{
	"data": {
		"bytecode": {
			"linkReferences": {},
			"object": "608060405234801561001057600080fd5b5061001961007b565b604051809103906000f080158015610035573d6000803e3d6000fd5b50600160006101000a81548173ffffffffffffffffffffffffffffffffffffffff021916908373ffffffffffffffffffffffffffffffffffffffff16021790555061008b565b6040516102a9806103af83390190565b6103158061009a6000396000f300608060405260043610610057576000357c0100000000000000000000000000000000000000000000000000000000900463ffffffff168063e81d53cf1461005c578063efedc669146100b3578063fa391c64146100de575b600080fd5b34801561006857600080fd5b506100716100f5565b604051808273ffffffffffffffffffffffffffffffffffffffff1673ffffffffffffffffffffffffffffffffffffffff16815260200191505060405180910390f35b3480156100bf57600080fd5b506100c861011b565b6040518082815260200191505060405180910390f35b3480156100ea57600080fd5b506100f3610121565b005b600160009054906101000a900473ffffffffffffffffffffffffffffffffffffffff1681565b60005481565b6000808190555067016345785d8a0000600160009054906101000a900473ffffffffffffffffffffffffffffffffffffffff1673ffffffffffffffffffffffffffffffffffffffff16630849cc996040518163ffffffff167c0100000000000000000000000000000000000000000000000000000000028152600401602060405180830381600087803b1580156101b757600080fd5b505af11580156101cb573d6000803e3d6000fd5b505050506040513d60208110156101e157600080fd5b8101908080519060200190929190505050111561020957603260008082825401925050819055505b60011515600160009054906101000a900473ffffffffffffffffffffffffffffffffffffffff1673ffffffffffffffffffffffffffffffffffffffff1663890eba686040518163ffffffff167c0100000000000000000000000000000000000000000000000000000000028152600401602060405180830381600087803b15801561029357600080fd5b505af11580156102a7573d6000803e3d6000fd5b505050506040513d60208110156102bd57600080fd5b8101908080519060200190929190505050151514156102e757603260008082825401925050819055505b5600a165627a7a723058206fc1b427e653292fd64d1cbd4d5843129527a348f796b6c65a27096461a516060029608060405234801561001057600080fd5b50610289806100206000396000f30060806040526004361061006d576000357c0100000000000000000000000000000000000000000000000000000000900463ffffffff1680630849cc991461007257806338d941931461009d578063890eba68146100de578063958c40651461010d578063fd57e9f914610144575b600080fd5b34801561007e57600080fd5b5061008761015b565b6040518082815260200191505060405180910390f35b3480156100a957600080fd5b506100c860048036038101908080359060200190929190505050610168565b6040518082815260200191505060405180910390f35b3480156100ea57600080fd5b506100f361018b565b604051808215151515815260200191505060405180910390f35b34801561011957600080fd5b50610142600480360381019080803590602001909291908035906020019092919050505061019d565b005b34801561015057600080fd5b506101596101e0565b005b6000600180549050905090565b60018181548110151561017757fe5b906000526020600020016000915090505481565b6000809054906101000a900460ff1681565b600180549050821015156101be57600182016001816101bc919061020c565b505b806001838154811015156101ce57fe5b90600052602060002001819055505050565b60006001805490501115156101f457600080fd5b6001805480919060019003610209919061020c565b50565b815481835581811115610233578183600052602060002091820191016102329190610238565b5b505050565b61025a91905b8082111561025657600081600090555060010161023e565b5090565b905600a165627a7a723058207dc7cec0f3a53398b85cced1f4831b3ea318cd4423b11bc69ac43a1455a18a1e0029",
			"opcodes": "PUSH1 0x80 PUSH1 0x40 MSTORE CALLVALUE DUP1 ISZERO PUSH2 0x10 JUMPI PUSH1 0x0 DUP1 REVERT JUMPDEST POP PUSH2 0x19 PUSH2 0x7B JUMP JUMPDEST PUSH1 0x40 MLOAD DUP1 SWAP2 SUB SWAP1 PUSH1 0x0 CREATE DUP1 ISZERO DUP1 ISZERO PUSH2 0x35 JUMPI RETURNDATASIZE PUSH1 0x0 DUP1 RETURNDATACOPY RETURNDATASIZE PUSH1 0x0 REVERT JUMPDEST POP PUSH1 0x1 PUSH1 0x0 PUSH2 0x100 EXP DUP2 SLOAD DUP2 PUSH20 0xFFFFFFFFFFFFFFFFFFFFFFFFFFFFFFFFFFFFFFFF MUL NOT AND SWAP1 DUP4 PUSH20 0xFFFFFFFFFFFFFFFFFFFFFFFFFFFFFFFFFFFFFFFF AND MUL OR SWAP1 SSTORE POP PUSH2 0x8B JUMP JUMPDEST PUSH1 0x40 MLOAD PUSH2 0x2A9 DUP1 PUSH2 0x3AF DUP4 CODECOPY ADD SWAP1 JUMP JUMPDEST PUSH2 0x315 DUP1 PUSH2 0x9A PUSH1 0x0 CODECOPY PUSH1 0x0 RETURN STOP PUSH1 0x80 PUSH1 0x40 MSTORE PUSH1 0x4 CALLDATASIZE LT PUSH2 0x57 JUMPI PUSH1 0x0 CALLDATALOAD PUSH29 0x100000000000000000000000000000000000000000000000000000000 SWAP1 DIV PUSH4 0xFFFFFFFF AND DUP1 PUSH4 0xE81D53CF EQ PUSH2 0x5C JUMPI DUP1 PUSH4 0xEFEDC669 EQ PUSH2 0xB3 JUMPI DUP1 PUSH4 0xFA391C64 EQ PUSH2 0xDE JUMPI JUMPDEST PUSH1 0x0 DUP1 REVERT JUMPDEST CALLVALUE DUP1 ISZERO PUSH2 0x68 JUMPI PUSH1 0x0 DUP1 REVERT JUMPDEST POP PUSH2 0x71 PUSH2 0xF5 JUMP JUMPDEST PUSH1 0x40 MLOAD DUP1 DUP3 PUSH20 0xFFFFFFFFFFFFFFFFFFFFFFFFFFFFFFFFFFFFFFFF AND PUSH20 0xFFFFFFFFFFFFFFFFFFFFFFFFFFFFFFFFFFFFFFFF AND DUP2 MSTORE PUSH1 0x20 ADD SWAP2 POP POP PUSH1 0x40 MLOAD DUP1 SWAP2 SUB SWAP1 RETURN JUMPDEST CALLVALUE DUP1 ISZERO PUSH2 0xBF JUMPI PUSH1 0x0 DUP1 REVERT JUMPDEST POP PUSH2 0xC8 PUSH2 0x11B JUMP JUMPDEST PUSH1 0x40 MLOAD DUP1 DUP3 DUP2 MSTORE PUSH1 0x20 ADD SWAP2 POP POP PUSH1 0x40 MLOAD DUP1 SWAP2 SUB SWAP1 RETURN JUMPDEST CALLVALUE DUP1 ISZERO PUSH2 0xEA JUMPI PUSH1 0x0 DUP1 REVERT JUMPDEST POP PUSH2 0xF3 PUSH2 0x121 JUMP JUMPDEST STOP JUMPDEST PUSH1 0x1 PUSH1 0x0 SWAP1 SLOAD SWAP1 PUSH2 0x100 EXP SWAP1 DIV PUSH20 0xFFFFFFFFFFFFFFFFFFFFFFFFFFFFFFFFFFFFFFFF AND DUP2 JUMP JUMPDEST PUSH1 0x0 SLOAD DUP2 JUMP JUMPDEST PUSH1 0x0 DUP1 DUP2 SWAP1 SSTORE POP PUSH8 0x16345785D8A0000 PUSH1 0x1 PUSH1 0x0 SWAP1 SLOAD SWAP1 PUSH2 0x100 EXP SWAP1 DIV PUSH20 0xFFFFFFFFFFFFFFFFFFFFFFFFFFFFFFFFFFFFFFFF AND PUSH20 0xFFFFFFFFFFFFFFFFFFFFFFFFFFFFFFFFFFFFFFFF AND PUSH4 0x849CC99 PUSH1 0x40 MLOAD DUP2 PUSH4 0xFFFFFFFF AND PUSH29 0x100000000000000000000000000000000000000000000000000000000 MUL DUP2 MSTORE PUSH1 0x4 ADD PUSH1 0x20 PUSH1 0x40 MLOAD DUP1 DUP4 SUB DUP2 PUSH1 0x0 DUP8 DUP1 EXTCODESIZE ISZERO DUP1 ISZERO PUSH2 0x1B7 JUMPI PUSH1 0x0 DUP1 REVERT JUMPDEST POP GAS CALL ISZERO DUP1 ISZERO PUSH2 0x1CB JUMPI RETURNDATASIZE PUSH1 0x0 DUP1 RETURNDATACOPY RETURNDATASIZE PUSH1 0x0 REVERT JUMPDEST POP POP POP POP PUSH1 0x40 MLOAD RETURNDATASIZE PUSH1 0x20 DUP2 LT ISZERO PUSH2 0x1E1 JUMPI PUSH1 0x0 DUP1 REVERT JUMPDEST DUP2 ADD SWAP1 DUP1 DUP1 MLOAD SWAP1 PUSH1 0x20 ADD SWAP1 SWAP3 SWAP2 SWAP1 POP POP POP GT ISZERO PUSH2 0x209 JUMPI PUSH1 0x32 PUSH1 0x0 DUP1 DUP3 DUP3 SLOAD ADD SWAP3 POP POP DUP2 SWAP1 SSTORE POP JUMPDEST PUSH1 0x1 ISZERO ISZERO PUSH1 0x1 PUSH1 0x0 SWAP1 SLOAD SWAP1 PUSH2 0x100 EXP SWAP1 DIV PUSH20 0xFFFFFFFFFFFFFFFFFFFFFFFFFFFFFFFFFFFFFFFF AND PUSH20 0xFFFFFFFFFFFFFFFFFFFFFFFFFFFFFFFFFFFFFFFF AND PUSH4 0x890EBA68 PUSH1 0x40 MLOAD DUP2 PUSH4 0xFFFFFFFF AND PUSH29 0x100000000000000000000000000000000000000000000000000000000 MUL DUP2 MSTORE PUSH1 0x4 ADD PUSH1 0x20 PUSH1 0x40 MLOAD DUP1 DUP4 SUB DUP2 PUSH1 0x0 DUP8 DUP1 EXTCODESIZE ISZERO DUP1 ISZERO PUSH2 0x293 JUMPI PUSH1 0x0 DUP1 REVERT JUMPDEST POP GAS CALL ISZERO DUP1 ISZERO PUSH2 0x2A7 JUMPI RETURNDATASIZE PUSH1 0x0 DUP1 RETURNDATACOPY RETURNDATASIZE PUSH1 0x0 REVERT JUMPDEST POP POP POP POP PUSH1 0x40 MLOAD RETURNDATASIZE PUSH1 0x20 DUP2 LT ISZERO PUSH2 0x2BD JUMPI PUSH1 0x0 DUP1 REVERT JUMPDEST DUP2 ADD SWAP1 DUP1 DUP1 MLOAD SWAP1 PUSH1 0x20 ADD SWAP1 SWAP3 SWAP2 SWAP1 POP POP POP ISZERO ISZERO EQ ISZERO PUSH2 0x2E7 JUMPI PUSH1 0x32 PUSH1 0x0 DUP1 DUP3 DUP3 SLOAD ADD SWAP3 POP POP DUP2 SWAP1 SSTORE POP JUMPDEST JUMP STOP LOG1 PUSH6 0x627A7A723058 KECCAK256 PUSH16 0xC1B427E653292FD64D1CBD4D58431295 0x27 LOG3 0x48 0xf7 SWAP7 0xb6 0xc6 GAS 0x27 MULMOD PUSH5 0x61A5160600 0x29 PUSH1 0x80 PUSH1 0x40 MSTORE CALLVALUE DUP1 ISZERO PUSH2 0x10 JUMPI PUSH1 0x0 DUP1 REVERT JUMPDEST POP PUSH2 0x289 DUP1 PUSH2 0x20 PUSH1 0x0 CODECOPY PUSH1 0x0 RETURN STOP PUSH1 0x80 PUSH1 0x40 MSTORE PUSH1 0x4 CALLDATASIZE LT PUSH2 0x6D JUMPI PUSH1 0x0 CALLDATALOAD PUSH29 0x100000000000000000000000000000000000000000000000000000000 SWAP1 DIV PUSH4 0xFFFFFFFF AND DUP1 PUSH4 0x849CC99 EQ PUSH2 0x72 JUMPI DUP1 PUSH4 0x38D94193 EQ PUSH2 0x9D JUMPI DUP1 PUSH4 0x890EBA68 EQ PUSH2 0xDE JUMPI DUP1 PUSH4 0x958C4065 EQ PUSH2 0x10D JUMPI DUP1 PUSH4 0xFD57E9F9 EQ PUSH2 0x144 JUMPI JUMPDEST PUSH1 0x0 DUP1 REVERT JUMPDEST CALLVALUE DUP1 ISZERO PUSH2 0x7E JUMPI PUSH1 0x0 DUP1 REVERT JUMPDEST POP PUSH2 0x87 PUSH2 0x15B JUMP JUMPDEST PUSH1 0x40 MLOAD DUP1 DUP3 DUP2 MSTORE PUSH1 0x20 ADD SWAP2 POP POP PUSH1 0x40 MLOAD DUP1 SWAP2 SUB SWAP1 RETURN JUMPDEST CALLVALUE DUP1 ISZERO PUSH2 0xA9 JUMPI PUSH1 0x0 DUP1 REVERT JUMPDEST POP PUSH2 0xC8 PUSH1 0x4 DUP1 CALLDATASIZE SUB DUP2 ADD SWAP1 DUP1 DUP1 CALLDATALOAD SWAP1 PUSH1 0x20 ADD SWAP1 SWAP3 SWAP2 SWAP1 POP POP POP PUSH2 0x168 JUMP JUMPDEST PUSH1 0x40 MLOAD DUP1 DUP3 DUP2 MSTORE PUSH1 0x20 ADD SWAP2 POP POP PUSH1 0x40 MLOAD DUP1 SWAP2 SUB SWAP1 RETURN JUMPDEST CALLVALUE DUP1 ISZERO PUSH2 0xEA JUMPI PUSH1 0x0 DUP1 REVERT JUMPDEST POP PUSH2 0xF3 PUSH2 0x18B JUMP JUMPDEST PUSH1 0x40 MLOAD DUP1 DUP3 ISZERO ISZERO ISZERO ISZERO DUP2 MSTORE PUSH1 0x20 ADD SWAP2 POP POP PUSH1 0x40 MLOAD DUP1 SWAP2 SUB SWAP1 RETURN JUMPDEST CALLVALUE DUP1 ISZERO PUSH2 0x119 JUMPI PUSH1 0x0 DUP1 REVERT JUMPDEST POP PUSH2 0x142 PUSH1 0x4 DUP1 CALLDATASIZE SUB DUP2 ADD SWAP1 DUP1 DUP1 CALLDATALOAD SWAP1 PUSH1 0x20 ADD SWAP1 SWAP3 SWAP2 SWAP1 DUP1 CALLDATALOAD SWAP1 PUSH1 0x20 ADD SWAP1 SWAP3 SWAP2 SWAP1 POP POP POP PUSH2 0x19D JUMP JUMPDEST STOP JUMPDEST CALLVALUE DUP1 ISZERO PUSH2 0x150 JUMPI PUSH1 0x0 DUP1 REVERT JUMPDEST POP PUSH2 0x159 PUSH2 0x1E0 JUMP JUMPDEST STOP JUMPDEST PUSH1 0x0 PUSH1 0x1 DUP1 SLOAD SWAP1 POP SWAP1 POP SWAP1 JUMP JUMPDEST PUSH1 0x1 DUP2 DUP2 SLOAD DUP2 LT ISZERO ISZERO PUSH2 0x177 JUMPI INVALID JUMPDEST SWAP1 PUSH1 0x0 MSTORE PUSH1 0x20 PUSH1 0x0 KECCAK256 ADD PUSH1 0x0 SWAP2 POP SWAP1 POP SLOAD DUP2 JUMP JUMPDEST PUSH1 0x0 DUP1 SWAP1 SLOAD SWAP1 PUSH2 0x100 EXP SWAP1 DIV PUSH1 0xFF AND DUP2 JUMP JUMPDEST PUSH1 0x1 DUP1 SLOAD SWAP1 POP DUP3 LT ISZERO ISZERO PUSH2 0x1BE JUMPI PUSH1 0x1 DUP3 ADD PUSH1 0x1 DUP2 PUSH2 0x1BC SWAP2 SWAP1 PUSH2 0x20C JUMP JUMPDEST POP JUMPDEST DUP1 PUSH1 0x1 DUP4 DUP2 SLOAD DUP2 LT ISZERO ISZERO PUSH2 0x1CE JUMPI INVALID JUMPDEST SWAP1 PUSH1 0x0 MSTORE PUSH1 0x20 PUSH1 0x0 KECCAK256 ADD DUP2 SWAP1 SSTORE POP POP POP JUMP JUMPDEST PUSH1 0x0 PUSH1 0x1 DUP1 SLOAD SWAP1 POP GT ISZERO ISZERO PUSH2 0x1F4 JUMPI PUSH1 0x0 DUP1 REVERT JUMPDEST PUSH1 0x1 DUP1 SLOAD DUP1 SWAP2 SWAP1 PUSH1 0x1 SWAP1 SUB PUSH2 0x209 SWAP2 SWAP1 PUSH2 0x20C JUMP JUMPDEST POP JUMP JUMPDEST DUP2 SLOAD DUP2 DUP4 SSTORE DUP2 DUP2 GT ISZERO PUSH2 0x233 JUMPI DUP2 DUP4 PUSH1 0x0 MSTORE PUSH1 0x20 PUSH1 0x0 KECCAK256 SWAP2 DUP3 ADD SWAP2 ADD PUSH2 0x232 SWAP2 SWAP1 PUSH2 0x238 JUMP JUMPDEST JUMPDEST POP POP POP JUMP JUMPDEST PUSH2 0x25A SWAP2 SWAP1 JUMPDEST DUP1 DUP3 GT ISZERO PUSH2 0x256 JUMPI PUSH1 0x0 DUP2 PUSH1 0x0 SWAP1 SSTORE POP PUSH1 0x1 ADD PUSH2 0x23E JUMP JUMPDEST POP SWAP1 JUMP JUMPDEST SWAP1 JUMP STOP LOG1 PUSH6 0x627A7A723058 KECCAK256 PUSH30 0xC7CEC0F3A53398B85CCED1F4831B3EA318CD4423B11BC69AC43A1455A18A 0x1e STOP 0x29 "
		},
		"gasEstimates": {
			"creation": {
				"codeDepositCost": "157800",
				"executionCost": "infinite",
				"totalCost": "infinite"
			},
			"external": {
				"arr()": "442",
				"isCompleted()": "infinite",
				"score()": "416"
			}
		},
		"methodIdentifiers": {
			"arr()": "e81d53cf",
			"isCompleted()": "fa391c64",
			"score()": "efedc669"
		}
	},
	"abi": [
		{
			"constant": true,
			"inputs": [],
			"name": "arr",
			"outputs": [
				{
					"name": "",
					"type": "address"
				}
			],
			"payable": false,
			"stateMutability": "view",
			"type": "function"
		},
		{
			"constant": true,
			"inputs": [],
			"name": "score",
			"outputs": [
				{
					"name": "",
					"type": "uint256"
				}
			],
			"payable": false,
			"stateMutability": "view",
			"type": "function"
		},
		{
			"constant": false,
			"inputs": [],
			"name": "isCompleted",
			"outputs": [],
			"payable": false,
			"stateMutability": "nonpayable",
			"type": "function"
		},
		{
			"inputs": [],
			"payable": false,
			"stateMutability": "nonpayable",
			"type": "constructor"
		}
	]
}