{
	"shoot/摸底1/3/1.sol": {
		"getaddress": {
			"abi": [
				{
					"inputs": [],
					"name": "attractcontractAddress",
					"outputs": [
						{
							"internalType": "address",
							"name": "",
							"type": "address"
						}
					],
					"stateMutability": "view",
					"type": "function"
				},
				{
					"inputs": [],
					"name": "exchangeSellerAddress",
					"outputs": [
						{
							"internalType": "address",
							"name": "",
							"type": "address"
						}
					],
					"stateMutability": "view",
					"type": "function"
				},
				{
					"inputs": [],
					"name": "exchangeSellerBytesHash",
					"outputs": [
						{
							"internalType": "bytes32",
							"name": "a",
							"type": "bytes32"
						}
					],
					"stateMutability": "view",
					"type": "function"
				},
				{
					"inputs": [
						{
							"internalType": "address",
							"name": "a",
							"type": "address"
						},
						{
							"internalType": "bytes32",
							"name": "b",
							"type": "bytes32"
						},
						{
							"internalType": "bytes32",
							"name": "c",
							"type": "bytes32"
						}
					],
					"name": "get",
					"outputs": [
						{
							"internalType": "bytes32",
							"name": "",
							"type": "bytes32"
						}
					],
					"stateMutability": "view",
					"type": "function"
				},
				{
					"inputs": [
						{
							"internalType": "bytes32",
							"name": "salt1",
							"type": "bytes32"
						}
					],
					"name": "getAttractcontractAddress",
					"outputs": [],
					"stateMutability": "nonpayable",
					"type": "function"
				},
				{
					"inputs": [],
					"name": "getAttractcontractbytecodeHash",
					"outputs": [
						{
							"internalType": "bytes32",
							"name": "a",
							"type": "bytes32"
						}
					],
					"stateMutability": "view",
					"type": "function"
				},
				{
					"inputs": [
						{
							"internalType": "bytes32",
							"name": "salt1",
							"type": "bytes32"
						}
					],
					"name": "getExchangeSeller",
					"outputs": [],
					"stateMutability": "nonpayable",
					"type": "function"
				},
				{
					"inputs": [
						{
							"internalType": "bytes32",
							"name": "a",
							"type": "bytes32"
						}
					],
					"name": "getad",
					"outputs": [
						{
							"internalType": "address",
							"name": "",
							"type": "address"
						}
					],
					"stateMutability": "view",
					"type": "function"
				}
			],
			"devdoc": {
				"kind": "dev",
				"methods": {},
				"version": 1
			},
			"evm": {
				"assembly": "    /* \"shoot/\\xe6\\x91\\xb8\\xe5\\xba\\x951/3/1.sol\":1559:2651  contract getaddress{... */\n  mstore(0x40, 0x80)\n  callvalue\n  dup1\n  iszero\n  tag_1\n  jumpi\n  0x00\n  dup1\n  revert\ntag_1:\n  pop\n  dataSize(sub_0)\n  dup1\n  dataOffset(sub_0)\n  0x00\n  codecopy\n  0x00\n  return\nstop\n\nsub_0: assembly {\n        /* \"shoot/\\xe6\\x91\\xb8\\xe5\\xba\\x951/3/1.sol\":1559:2651  contract getaddress{... */\n      mstore(0x40, 0x80)\n      callvalue\n      dup1\n      iszero\n      tag_1\n      jumpi\n      0x00\n      dup1\n      revert\n    tag_1:\n      pop\n      jumpi(tag_2, lt(calldatasize, 0x04))\n      shr(0xe0, calldataload(0x00))\n      dup1\n      0x8854746f\n      gt\n      tag_11\n      jumpi\n      dup1\n      0x8854746f\n      eq\n      tag_7\n      jumpi\n      dup1\n      0x9b0359d8\n      eq\n      tag_8\n      jumpi\n      dup1\n      0xb90365a7\n      eq\n      tag_9\n      jumpi\n      dup1\n      0xd8acfdb3\n      eq\n      tag_10\n      jumpi\n      jump(tag_2)\n    tag_11:\n      dup1\n      0x224863f0\n      eq\n      tag_3\n      jumpi\n      dup1\n      0x2330c780\n      eq\n      tag_4\n      jumpi\n      dup1\n      0x5c7b4114\n      eq\n      tag_5\n      jumpi\n      dup1\n      0x81ee9455\n      eq\n      tag_6\n      jumpi\n    tag_2:\n      0x00\n      dup1\n      revert\n        /* \"shoot/\\xe6\\x91\\xb8\\xe5\\xba\\x951/3/1.sol\":1965:2131  function getExchangeSeller(bytes32 salt1) public {... */\n    tag_3:\n      tag_12\n      0x04\n      dup1\n      calldatasize\n      sub\n      dup2\n      add\n      swap1\n      tag_13\n      swap2\n      swap1\n      tag_14\n      jump\t// in\n    tag_13:\n      tag_15\n      jump\t// in\n    tag_12:\n      stop\n        /* \"shoot/\\xe6\\x91\\xb8\\xe5\\xba\\x951/3/1.sol\":2137:2316  function getAttractcontractAddress(bytes32 salt1) public {... */\n    tag_4:\n      tag_16\n      0x04\n      dup1\n      calldatasize\n      sub\n      dup2\n      add\n      swap1\n      tag_17\n      swap2\n      swap1\n      tag_14\n      jump\t// in\n    tag_17:\n      tag_18\n      jump\t// in\n    tag_16:\n      stop\n        /* \"shoot/\\xe6\\x91\\xb8\\xe5\\xba\\x951/3/1.sol\":1812:1953  function getAttractcontractbytecodeHash() public view returns(bytes32 a){... */\n    tag_5:\n      tag_19\n      tag_20\n      jump\t// in\n    tag_19:\n      mload(0x40)\n      tag_21\n      swap2\n      swap1\n      tag_22\n      jump\t// in\n    tag_21:\n      mload(0x40)\n      dup1\n      swap2\n      sub\n      swap1\n      return\n        /* \"shoot/\\xe6\\x91\\xb8\\xe5\\xba\\x951/3/1.sol\":1628:1665  address public attractcontractAddress */\n    tag_6:\n      tag_23\n      tag_24\n      jump\t// in\n    tag_23:\n      mload(0x40)\n      tag_25\n      swap2\n      swap1\n      tag_26\n      jump\t// in\n    tag_25:\n      mload(0x40)\n      dup1\n      swap2\n      sub\n      swap1\n      return\n        /* \"shoot/\\xe6\\x91\\xb8\\xe5\\xba\\x951/3/1.sol\":1585:1621  address public exchangeSellerAddress */\n    tag_7:\n      tag_27\n      tag_28\n      jump\t// in\n    tag_27:\n      mload(0x40)\n      tag_29\n      swap2\n      swap1\n      tag_26\n      jump\t// in\n    tag_29:\n      mload(0x40)\n      dup1\n      swap2\n      sub\n      swap1\n      return\n        /* \"shoot/\\xe6\\x91\\xb8\\xe5\\xba\\x951/3/1.sol\":2382:2528  function get(address a,bytes32 b,bytes32 c) view public returns(bytes32) {... */\n    tag_8:\n      tag_30\n      0x04\n      dup1\n      calldatasize\n      sub\n      dup2\n      add\n      swap1\n      tag_31\n      swap2\n      swap1\n      tag_32\n      jump\t// in\n    tag_31:\n      tag_33\n      jump\t// in\n    tag_30:\n      mload(0x40)\n      tag_34\n      swap2\n      swap1\n      tag_22\n      jump\t// in\n    tag_34:\n      mload(0x40)\n      dup1\n      swap2\n      sub\n      swap1\n      return\n        /* \"shoot/\\xe6\\x91\\xb8\\xe5\\xba\\x951/3/1.sol\":1674:1806  function exchangeSellerBytesHash() public view returns(bytes32 a){... */\n    tag_9:\n      tag_35\n      tag_36\n      jump\t// in\n    tag_35:\n      mload(0x40)\n      tag_37\n      swap2\n      swap1\n      tag_22\n      jump\t// in\n    tag_37:\n      mload(0x40)\n      dup1\n      swap2\n      sub\n      swap1\n      return\n        /* \"shoot/\\xe6\\x91\\xb8\\xe5\\xba\\x951/3/1.sol\":2534:2642  function getad(bytes32 a) view public returns(address){... */\n    tag_10:\n      tag_38\n      0x04\n      dup1\n      calldatasize\n      sub\n      dup2\n      add\n      swap1\n      tag_39\n      swap2\n      swap1\n      tag_14\n      jump\t// in\n    tag_39:\n      tag_40\n      jump\t// in\n    tag_38:\n      mload(0x40)\n      tag_41\n      swap2\n      swap1\n      tag_26\n      jump\t// in\n    tag_41:\n      mload(0x40)\n      dup1\n      swap2\n      sub\n      swap1\n      return\n        /* \"shoot/\\xe6\\x91\\xb8\\xe5\\xba\\x951/3/1.sol\":1965:2131  function getExchangeSeller(bytes32 salt1) public {... */\n    tag_15:\n        /* \"shoot/\\xe6\\x91\\xb8\\xe5\\xba\\x951/3/1.sol\":2025:2041  exchangeseller a */\n      0x00\n        /* \"shoot/\\xe6\\x91\\xb8\\xe5\\xba\\x951/3/1.sol\":2070:2075  salt1 */\n      dup2\n        /* \"shoot/\\xe6\\x91\\xb8\\xe5\\xba\\x951/3/1.sol\":2044:2078  new exchangeseller{salt : salt1}() */\n      mload(0x40)\n      tag_43\n      swap1\n      tag_44\n      jump\t// in\n    tag_43:\n      dup2\n      swap1\n      mload(0x40)\n      dup1\n      swap2\n      sub\n      swap1\n      0x00\n      create2\n      swap1\n      pop\n      dup1\n      iszero\n      dup1\n      iszero\n      tag_45\n      jumpi\n      returndatasize\n      0x00\n      dup1\n      returndatacopy\n      revert(0x00, returndatasize)\n    tag_45:\n      pop\n        /* \"shoot/\\xe6\\x91\\xb8\\xe5\\xba\\x951/3/1.sol\":2025:2078  exchangeseller a = new exchangeseller{salt : salt1}() */\n      swap1\n      pop\n        /* \"shoot/\\xe6\\x91\\xb8\\xe5\\xba\\x951/3/1.sol\":2121:2122  a */\n      dup1\n        /* \"shoot/\\xe6\\x91\\xb8\\xe5\\xba\\x951/3/1.sol\":2089:2110  exchangeSellerAddress */\n      0x00\n      dup1\n        /* \"shoot/\\xe6\\x91\\xb8\\xe5\\xba\\x951/3/1.sol\":2089:2123  exchangeSellerAddress = address(a) */\n      0x0100\n      exp\n      dup2\n      sload\n      dup2\n      0xffffffffffffffffffffffffffffffffffffffff\n      mul\n      not\n      and\n      swap1\n      dup4\n      0xffffffffffffffffffffffffffffffffffffffff\n      and\n      mul\n      or\n      swap1\n      sstore\n      pop\n        /* \"shoot/\\xe6\\x91\\xb8\\xe5\\xba\\x951/3/1.sol\":2014:2131  {... */\n      pop\n        /* \"shoot/\\xe6\\x91\\xb8\\xe5\\xba\\x951/3/1.sol\":1965:2131  function getExchangeSeller(bytes32 salt1) public {... */\n      pop\n      jump\t// out\n        /* \"shoot/\\xe6\\x91\\xb8\\xe5\\xba\\x951/3/1.sol\":2137:2316  function getAttractcontractAddress(bytes32 salt1) public {... */\n    tag_18:\n        /* \"shoot/\\xe6\\x91\\xb8\\xe5\\xba\\x951/3/1.sol\":2205:2223  attractconstract a */\n      0x00\n        /* \"shoot/\\xe6\\x91\\xb8\\xe5\\xba\\x951/3/1.sol\":2254:2259  salt1 */\n      dup2\n        /* \"shoot/\\xe6\\x91\\xb8\\xe5\\xba\\x951/3/1.sol\":2226:2262  new attractconstract{salt : salt1}() */\n      mload(0x40)\n      tag_47\n      swap1\n      tag_48\n      jump\t// in\n    tag_47:\n      dup2\n      swap1\n      mload(0x40)\n      dup1\n      swap2\n      sub\n      swap1\n      0x00\n      create2\n      swap1\n      pop\n      dup1\n      iszero\n      dup1\n      iszero\n      tag_49\n      jumpi\n      returndatasize\n      0x00\n      dup1\n      returndatacopy\n      revert(0x00, returndatasize)\n    tag_49:\n      pop\n        /* \"shoot/\\xe6\\x91\\xb8\\xe5\\xba\\x951/3/1.sol\":2205:2262  attractconstract a = new attractconstract{salt : salt1}() */\n      swap1\n      pop\n        /* \"shoot/\\xe6\\x91\\xb8\\xe5\\xba\\x951/3/1.sol\":2306:2307  a */\n      dup1\n        /* \"shoot/\\xe6\\x91\\xb8\\xe5\\xba\\x951/3/1.sol\":2273:2295  attractcontractAddress */\n      0x01\n      0x00\n        /* \"shoot/\\xe6\\x91\\xb8\\xe5\\xba\\x951/3/1.sol\":2273:2308  attractcontractAddress = address(a) */\n      0x0100\n      exp\n      dup2\n      sload\n      dup2\n      0xffffffffffffffffffffffffffffffffffffffff\n      mul\n      not\n      and\n      swap1\n      dup4\n      0xffffffffffffffffffffffffffffffffffffffff\n      and\n      mul\n      or\n      swap1\n      sstore\n      pop\n        /* \"shoot/\\xe6\\x91\\xb8\\xe5\\xba\\x951/3/1.sol\":2194:2316  {... */\n      pop\n        /* \"shoot/\\xe6\\x91\\xb8\\xe5\\xba\\x951/3/1.sol\":2137:2316  function getAttractcontractAddress(bytes32 salt1) public {... */\n      pop\n      jump\t// out\n        /* \"shoot/\\xe6\\x91\\xb8\\xe5\\xba\\x951/3/1.sol\":1812:1953  function getAttractcontractbytecodeHash() public view returns(bytes32 a){... */\n    tag_20:\n        /* \"shoot/\\xe6\\x91\\xb8\\xe5\\xba\\x951/3/1.sol\":1874:1883  bytes32 a */\n      0x00\n        /* \"shoot/\\xe6\\x91\\xb8\\xe5\\xba\\x951/3/1.sol\":1909:1944  type(attractconstract).creationCode */\n      mload(0x40)\n      dup1\n      0x20\n      add\n      tag_51\n      swap1\n      tag_48\n      jump\t// in\n    tag_51:\n      0x20\n      dup3\n      add\n      dup2\n      sub\n      dup3\n      mstore\n      not(0x1f)\n      0x1f\n      dup3\n      add\n      and\n      0x40\n      mstore\n      pop\n        /* \"shoot/\\xe6\\x91\\xb8\\xe5\\xba\\x951/3/1.sol\":1899:1945  keccak256(type(attractconstract).creationCode) */\n      dup1\n      mload\n      swap1\n      0x20\n      add\n      keccak256\n        /* \"shoot/\\xe6\\x91\\xb8\\xe5\\xba\\x951/3/1.sol\":1895:1945  a = keccak256(type(attractconstract).creationCode) */\n      swap1\n      pop\n        /* \"shoot/\\xe6\\x91\\xb8\\xe5\\xba\\x951/3/1.sol\":1812:1953  function getAttractcontractbytecodeHash() public view returns(bytes32 a){... */\n      swap1\n      jump\t// out\n        /* \"shoot/\\xe6\\x91\\xb8\\xe5\\xba\\x951/3/1.sol\":1628:1665  address public attractcontractAddress */\n    tag_24:\n      0x01\n      0x00\n      swap1\n      sload\n      swap1\n      0x0100\n      exp\n      swap1\n      div\n      0xffffffffffffffffffffffffffffffffffffffff\n      and\n      dup2\n      jump\t// out\n        /* \"shoot/\\xe6\\x91\\xb8\\xe5\\xba\\x951/3/1.sol\":1585:1621  address public exchangeSellerAddress */\n    tag_28:\n      0x00\n      dup1\n      sload\n      swap1\n      0x0100\n      exp\n      swap1\n      div\n      0xffffffffffffffffffffffffffffffffffffffff\n      and\n      dup2\n      jump\t// out\n        /* \"shoot/\\xe6\\x91\\xb8\\xe5\\xba\\x951/3/1.sol\":2382:2528  function get(address a,bytes32 b,bytes32 c) view public returns(bytes32) {... */\n    tag_33:\n        /* \"shoot/\\xe6\\x91\\xb8\\xe5\\xba\\x951/3/1.sol\":2446:2453  bytes32 */\n      0x00\n        /* \"shoot/\\xe6\\x91\\xb8\\xe5\\xba\\x951/3/1.sol\":2507:2511  0xff */\n      0xff\n        /* \"shoot/\\xe6\\x91\\xb8\\xe5\\xba\\x951/3/1.sol\":2500:2512  bytes1(0xff) */\n      0xf8\n      shl\n        /* \"shoot/\\xe6\\x91\\xb8\\xe5\\xba\\x951/3/1.sol\":2513:2514  a */\n      dup5\n        /* \"shoot/\\xe6\\x91\\xb8\\xe5\\xba\\x951/3/1.sol\":2515:2516  b */\n      dup5\n        /* \"shoot/\\xe6\\x91\\xb8\\xe5\\xba\\x951/3/1.sol\":2517:2518  c */\n      dup5\n        /* \"shoot/\\xe6\\x91\\xb8\\xe5\\xba\\x951/3/1.sol\":2483:2519  abi.encodePacked(bytes1(0xff),a,b,c) */\n      add(0x20, mload(0x40))\n      tag_53\n      swap5\n      swap4\n      swap3\n      swap2\n      swap1\n      tag_54\n      jump\t// in\n    tag_53:\n      mload(0x40)\n      0x20\n      dup2\n      dup4\n      sub\n      sub\n      dup2\n      mstore\n      swap1\n      0x40\n      mstore\n        /* \"shoot/\\xe6\\x91\\xb8\\xe5\\xba\\x951/3/1.sol\":2473:2520  keccak256(abi.encodePacked(bytes1(0xff),a,b,c)) */\n      dup1\n      mload\n      swap1\n      0x20\n      add\n      keccak256\n        /* \"shoot/\\xe6\\x91\\xb8\\xe5\\xba\\x951/3/1.sol\":2466:2520  return keccak256(abi.encodePacked(bytes1(0xff),a,b,c)) */\n      swap1\n      pop\n        /* \"shoot/\\xe6\\x91\\xb8\\xe5\\xba\\x951/3/1.sol\":2382:2528  function get(address a,bytes32 b,bytes32 c) view public returns(bytes32) {... */\n      swap4\n      swap3\n      pop\n      pop\n      pop\n      jump\t// out\n        /* \"shoot/\\xe6\\x91\\xb8\\xe5\\xba\\x951/3/1.sol\":1674:1806  function exchangeSellerBytesHash() public view returns(bytes32 a){... */\n    tag_36:\n        /* \"shoot/\\xe6\\x91\\xb8\\xe5\\xba\\x951/3/1.sol\":1729:1738  bytes32 a */\n      0x00\n        /* \"shoot/\\xe6\\x91\\xb8\\xe5\\xba\\x951/3/1.sol\":1764:1797  type(exchangeseller).creationCode */\n      mload(0x40)\n      dup1\n      0x20\n      add\n      tag_56\n      swap1\n      tag_44\n      jump\t// in\n    tag_56:\n      0x20\n      dup3\n      add\n      dup2\n      sub\n      dup3\n      mstore\n      not(0x1f)\n      0x1f\n      dup3\n      add\n      and\n      0x40\n      mstore\n      pop\n        /* \"shoot/\\xe6\\x91\\xb8\\xe5\\xba\\x951/3/1.sol\":1754:1798  keccak256(type(exchangeseller).creationCode) */\n      dup1\n      mload\n      swap1\n      0x20\n      add\n      keccak256\n        /* \"shoot/\\xe6\\x91\\xb8\\xe5\\xba\\x951/3/1.sol\":1750:1798  a = keccak256(type(exchangeseller).creationCode) */\n      swap1\n      pop\n        /* \"shoot/\\xe6\\x91\\xb8\\xe5\\xba\\x951/3/1.sol\":1674:1806  function exchangeSellerBytesHash() public view returns(bytes32 a){... */\n      swap1\n      jump\t// out\n        /* \"shoot/\\xe6\\x91\\xb8\\xe5\\xba\\x951/3/1.sol\":2534:2642  function getad(bytes32 a) view public returns(address){... */\n    tag_40:\n        /* \"shoot/\\xe6\\x91\\xb8\\xe5\\xba\\x951/3/1.sol\":2580:2587  address */\n      0x00\n        /* \"shoot/\\xe6\\x91\\xb8\\xe5\\xba\\x951/3/1.sol\":2630:2631  a */\n      dup2\n        /* \"shoot/\\xe6\\x91\\xb8\\xe5\\xba\\x951/3/1.sol\":2622:2632  uint256(a) */\n      0x00\n      shr\n        /* \"shoot/\\xe6\\x91\\xb8\\xe5\\xba\\x951/3/1.sol\":2599:2634  return address(uint160(uint256(a))) */\n      swap1\n      pop\n        /* \"shoot/\\xe6\\x91\\xb8\\xe5\\xba\\x951/3/1.sol\":2534:2642  function getad(bytes32 a) view public returns(address){... */\n      swap2\n      swap1\n      pop\n      jump\t// out\n    tag_44:\n      dataSize(sub_0)\n      dup1\n      dataOffset(sub_0)\n      dup4\n      codecopy\n      add\n      swap1\n      jump\t// out\n    tag_48:\n      dataSize(sub_1)\n      dup1\n      dataOffset(sub_1)\n      dup4\n      codecopy\n      add\n      swap1\n      jump\t// out\n        /* \"#utility.yul\":88:205   */\n    tag_59:\n        /* \"#utility.yul\":197:198   */\n      0x00\n        /* \"#utility.yul\":194:195   */\n      dup1\n        /* \"#utility.yul\":187:199   */\n      revert\n        /* \"#utility.yul\":334:411   */\n    tag_61:\n        /* \"#utility.yul\":371:378   */\n      0x00\n        /* \"#utility.yul\":400:405   */\n      dup2\n        /* \"#utility.yul\":389:405   */\n      swap1\n      pop\n        /* \"#utility.yul\":334:411   */\n      swap2\n      swap1\n      pop\n      jump\t// out\n        /* \"#utility.yul\":417:539   */\n    tag_62:\n        /* \"#utility.yul\":490:514   */\n      tag_85\n        /* \"#utility.yul\":508:513   */\n      dup2\n        /* \"#utility.yul\":490:514   */\n      tag_61\n      jump\t// in\n    tag_85:\n        /* \"#utility.yul\":483:488   */\n      dup2\n        /* \"#utility.yul\":480:515   */\n      eq\n        /* \"#utility.yul\":470:533   */\n      tag_86\n      jumpi\n        /* \"#utility.yul\":529:530   */\n      0x00\n        /* \"#utility.yul\":526:527   */\n      dup1\n        /* \"#utility.yul\":519:531   */\n      revert\n        /* \"#utility.yul\":470:533   */\n    tag_86:\n        /* \"#utility.yul\":417:539   */\n      pop\n      jump\t// out\n        /* \"#utility.yul\":545:684   */\n    tag_63:\n        /* \"#utility.yul\":591:596   */\n      0x00\n        /* \"#utility.yul\":629:635   */\n      dup2\n        /* \"#utility.yul\":616:636   */\n      calldataload\n        /* \"#utility.yul\":607:636   */\n      swap1\n      pop\n        /* \"#utility.yul\":645:678   */\n      tag_88\n        /* \"#utility.yul\":672:677   */\n      dup2\n        /* \"#utility.yul\":645:678   */\n      tag_62\n      jump\t// in\n    tag_88:\n        /* \"#utility.yul\":545:684   */\n      swap3\n      swap2\n      pop\n      pop\n      jump\t// out\n        /* \"#utility.yul\":690:1019   */\n    tag_14:\n        /* \"#utility.yul\":749:755   */\n      0x00\n        /* \"#utility.yul\":798:800   */\n      0x20\n        /* \"#utility.yul\":786:795   */\n      dup3\n        /* \"#utility.yul\":777:784   */\n      dup5\n        /* \"#utility.yul\":773:796   */\n      sub\n        /* \"#utility.yul\":769:801   */\n      slt\n        /* \"#utility.yul\":766:885   */\n      iszero\n      tag_90\n      jumpi\n        /* \"#utility.yul\":804:883   */\n      tag_91\n      tag_59\n      jump\t// in\n    tag_91:\n        /* \"#utility.yul\":766:885   */\n    tag_90:\n        /* \"#utility.yul\":924:925   */\n      0x00\n        /* \"#utility.yul\":949:1002   */\n      tag_92\n        /* \"#utility.yul\":994:1001   */\n      dup5\n        /* \"#utility.yul\":985:991   */\n      dup3\n        /* \"#utility.yul\":974:983   */\n      dup6\n        /* \"#utility.yul\":970:992   */\n      add\n        /* \"#utility.yul\":949:1002   */\n      tag_63\n      jump\t// in\n    tag_92:\n        /* \"#utility.yul\":939:1002   */\n      swap2\n      pop\n        /* \"#utility.yul\":895:1012   */\n      pop\n        /* \"#utility.yul\":690:1019   */\n      swap3\n      swap2\n      pop\n      pop\n      jump\t// out\n        /* \"#utility.yul\":1025:1143   */\n    tag_64:\n        /* \"#utility.yul\":1112:1136   */\n      tag_94\n        /* \"#utility.yul\":1130:1135   */\n      dup2\n        /* \"#utility.yul\":1112:1136   */\n      tag_61\n      jump\t// in\n    tag_94:\n        /* \"#utility.yul\":1107:1110   */\n      dup3\n        /* \"#utility.yul\":1100:1137   */\n      mstore\n        /* \"#utility.yul\":1025:1143   */\n      pop\n      pop\n      jump\t// out\n        /* \"#utility.yul\":1149:1371   */\n    tag_22:\n        /* \"#utility.yul\":1242:1246   */\n      0x00\n        /* \"#utility.yul\":1280:1282   */\n      0x20\n        /* \"#utility.yul\":1269:1278   */\n      dup3\n        /* \"#utility.yul\":1265:1283   */\n      add\n        /* \"#utility.yul\":1257:1283   */\n      swap1\n      pop\n        /* \"#utility.yul\":1293:1364   */\n      tag_96\n        /* \"#utility.yul\":1361:1362   */\n      0x00\n        /* \"#utility.yul\":1350:1359   */\n      dup4\n        /* \"#utility.yul\":1346:1363   */\n      add\n        /* \"#utility.yul\":1337:1343   */\n      dup5\n        /* \"#utility.yul\":1293:1364   */\n      tag_64\n      jump\t// in\n    tag_96:\n        /* \"#utility.yul\":1149:1371   */\n      swap3\n      swap2\n      pop\n      pop\n      jump\t// out\n        /* \"#utility.yul\":1377:1503   */\n    tag_65:\n        /* \"#utility.yul\":1414:1421   */\n      0x00\n        /* \"#utility.yul\":1454:1496   */\n      0xffffffffffffffffffffffffffffffffffffffff\n        /* \"#utility.yul\":1447:1452   */\n      dup3\n        /* \"#utility.yul\":1443:1497   */\n      and\n        /* \"#utility.yul\":1432:1497   */\n      swap1\n      pop\n        /* \"#utility.yul\":1377:1503   */\n      swap2\n      swap1\n      pop\n      jump\t// out\n        /* \"#utility.yul\":1509:1605   */\n    tag_66:\n        /* \"#utility.yul\":1546:1553   */\n      0x00\n        /* \"#utility.yul\":1575:1599   */\n      tag_99\n        /* \"#utility.yul\":1593:1598   */\n      dup3\n        /* \"#utility.yul\":1575:1599   */\n      tag_65\n      jump\t// in\n    tag_99:\n        /* \"#utility.yul\":1564:1599   */\n      swap1\n      pop\n        /* \"#utility.yul\":1509:1605   */\n      swap2\n      swap1\n      pop\n      jump\t// out\n        /* \"#utility.yul\":1611:1729   */\n    tag_67:\n        /* \"#utility.yul\":1698:1722   */\n      tag_101\n        /* \"#utility.yul\":1716:1721   */\n      dup2\n        /* \"#utility.yul\":1698:1722   */\n      tag_66\n      jump\t// in\n    tag_101:\n        /* \"#utility.yul\":1693:1696   */\n      dup3\n        /* \"#utility.yul\":1686:1723   */\n      mstore\n        /* \"#utility.yul\":1611:1729   */\n      pop\n      pop\n      jump\t// out\n        /* \"#utility.yul\":1735:1957   */\n    tag_26:\n        /* \"#utility.yul\":1828:1832   */\n      0x00\n        /* \"#utility.yul\":1866:1868   */\n      0x20\n        /* \"#utility.yul\":1855:1864   */\n      dup3\n        /* \"#utility.yul\":1851:1869   */\n      add\n        /* \"#utility.yul\":1843:1869   */\n      swap1\n      pop\n        /* \"#utility.yul\":1879:1950   */\n      tag_103\n        /* \"#utility.yul\":1947:1948   */\n      0x00\n        /* \"#utility.yul\":1936:1945   */\n      dup4\n        /* \"#utility.yul\":1932:1949   */\n      add\n        /* \"#utility.yul\":1923:1929   */\n      dup5\n        /* \"#utility.yul\":1879:1950   */\n      tag_67\n      jump\t// in\n    tag_103:\n        /* \"#utility.yul\":1735:1957   */\n      swap3\n      swap2\n      pop\n      pop\n      jump\t// out\n        /* \"#utility.yul\":1963:2085   */\n    tag_68:\n        /* \"#utility.yul\":2036:2060   */\n      tag_105\n        /* \"#utility.yul\":2054:2059   */\n      dup2\n        /* \"#utility.yul\":2036:2060   */\n      tag_66\n      jump\t// in\n    tag_105:\n        /* \"#utility.yul\":2029:2034   */\n      dup2\n        /* \"#utility.yul\":2026:2061   */\n      eq\n        /* \"#utility.yul\":2016:2079   */\n      tag_106\n      jumpi\n        /* \"#utility.yul\":2075:2076   */\n      0x00\n        /* \"#utility.yul\":2072:2073   */\n      dup1\n        /* \"#utility.yul\":2065:2077   */\n      revert\n        /* \"#utility.yul\":2016:2079   */\n    tag_106:\n        /* \"#utility.yul\":1963:2085   */\n      pop\n      jump\t// out\n        /* \"#utility.yul\":2091:2230   */\n    tag_69:\n        /* \"#utility.yul\":2137:2142   */\n      0x00\n        /* \"#utility.yul\":2175:2181   */\n      dup2\n        /* \"#utility.yul\":2162:2182   */\n      calldataload\n        /* \"#utility.yul\":2153:2182   */\n      swap1\n      pop\n        /* \"#utility.yul\":2191:2224   */\n      tag_108\n        /* \"#utility.yul\":2218:2223   */\n      dup2\n        /* \"#utility.yul\":2191:2224   */\n      tag_68\n      jump\t// in\n    tag_108:\n        /* \"#utility.yul\":2091:2230   */\n      swap3\n      swap2\n      pop\n      pop\n      jump\t// out\n        /* \"#utility.yul\":2236:2855   */\n    tag_32:\n        /* \"#utility.yul\":2313:2319   */\n      0x00\n        /* \"#utility.yul\":2321:2327   */\n      dup1\n        /* \"#utility.yul\":2329:2335   */\n      0x00\n        /* \"#utility.yul\":2378:2380   */\n      0x60\n        /* \"#utility.yul\":2366:2375   */\n      dup5\n        /* \"#utility.yul\":2357:2364   */\n      dup7\n        /* \"#utility.yul\":2353:2376   */\n      sub\n        /* \"#utility.yul\":2349:2381   */\n      slt\n        /* \"#utility.yul\":2346:2465   */\n      iszero\n      tag_110\n      jumpi\n        /* \"#utility.yul\":2384:2463   */\n      tag_111\n      tag_59\n      jump\t// in\n    tag_111:\n        /* \"#utility.yul\":2346:2465   */\n    tag_110:\n        /* \"#utility.yul\":2504:2505   */\n      0x00\n        /* \"#utility.yul\":2529:2582   */\n      tag_112\n        /* \"#utility.yul\":2574:2581   */\n      dup7\n        /* \"#utility.yul\":2565:2571   */\n      dup3\n        /* \"#utility.yul\":2554:2563   */\n      dup8\n        /* \"#utility.yul\":2550:2572   */\n      add\n        /* \"#utility.yul\":2529:2582   */\n      tag_69\n      jump\t// in\n    tag_112:\n        /* \"#utility.yul\":2519:2582   */\n      swap4\n      pop\n        /* \"#utility.yul\":2475:2592   */\n      pop\n        /* \"#utility.yul\":2631:2633   */\n      0x20\n        /* \"#utility.yul\":2657:2710   */\n      tag_113\n        /* \"#utility.yul\":2702:2709   */\n      dup7\n        /* \"#utility.yul\":2693:2699   */\n      dup3\n        /* \"#utility.yul\":2682:2691   */\n      dup8\n        /* \"#utility.yul\":2678:2700   */\n      add\n        /* \"#utility.yul\":2657:2710   */\n      tag_63\n      jump\t// in\n    tag_113:\n        /* \"#utility.yul\":2647:2710   */\n      swap3\n      pop\n        /* \"#utility.yul\":2602:2720   */\n      pop\n        /* \"#utility.yul\":2759:2761   */\n      0x40\n        /* \"#utility.yul\":2785:2838   */\n      tag_114\n        /* \"#utility.yul\":2830:2837   */\n      dup7\n        /* \"#utility.yul\":2821:2827   */\n      dup3\n        /* \"#utility.yul\":2810:2819   */\n      dup8\n        /* \"#utility.yul\":2806:2828   */\n      add\n        /* \"#utility.yul\":2785:2838   */\n      tag_63\n      jump\t// in\n    tag_114:\n        /* \"#utility.yul\":2775:2838   */\n      swap2\n      pop\n        /* \"#utility.yul\":2730:2848   */\n      pop\n        /* \"#utility.yul\":2236:2855   */\n      swap3\n      pop\n      swap3\n      pop\n      swap3\n      jump\t// out\n        /* \"#utility.yul\":2861:3010   */\n    tag_70:\n        /* \"#utility.yul\":2897:2904   */\n      0x00\n        /* \"#utility.yul\":2937:3003   */\n      0xff00000000000000000000000000000000000000000000000000000000000000\n        /* \"#utility.yul\":2930:2935   */\n      dup3\n        /* \"#utility.yul\":2926:3004   */\n      and\n        /* \"#utility.yul\":2915:3004   */\n      swap1\n      pop\n        /* \"#utility.yul\":2861:3010   */\n      swap2\n      swap1\n      pop\n      jump\t// out\n        /* \"#utility.yul\":3016:3094   */\n    tag_71:\n        /* \"#utility.yul\":3054:3061   */\n      0x00\n        /* \"#utility.yul\":3083:3088   */\n      dup2\n        /* \"#utility.yul\":3072:3088   */\n      swap1\n      pop\n        /* \"#utility.yul\":3016:3094   */\n      swap2\n      swap1\n      pop\n      jump\t// out\n        /* \"#utility.yul\":3100:3253   */\n    tag_72:\n        /* \"#utility.yul\":3203:3246   */\n      tag_118\n        /* \"#utility.yul\":3222:3245   */\n      tag_119\n        /* \"#utility.yul\":3239:3244   */\n      dup3\n        /* \"#utility.yul\":3222:3245   */\n      tag_70\n      jump\t// in\n    tag_119:\n        /* \"#utility.yul\":3203:3246   */\n      tag_71\n      jump\t// in\n    tag_118:\n        /* \"#utility.yul\":3198:3201   */\n      dup3\n        /* \"#utility.yul\":3191:3247   */\n      mstore\n        /* \"#utility.yul\":3100:3253   */\n      pop\n      pop\n      jump\t// out\n        /* \"#utility.yul\":3259:3353   */\n    tag_73:\n        /* \"#utility.yul\":3292:3300   */\n      0x00\n        /* \"#utility.yul\":3340:3345   */\n      dup2\n        /* \"#utility.yul\":3336:3338   */\n      0x60\n        /* \"#utility.yul\":3332:3346   */\n      shl\n        /* \"#utility.yul\":3311:3346   */\n      swap1\n      pop\n        /* \"#utility.yul\":3259:3353   */\n      swap2\n      swap1\n      pop\n      jump\t// out\n        /* \"#utility.yul\":3359:3453   */\n    tag_74:\n        /* \"#utility.yul\":3398:3405   */\n      0x00\n        /* \"#utility.yul\":3427:3447   */\n      tag_122\n        /* \"#utility.yul\":3441:3446   */\n      dup3\n        /* \"#utility.yul\":3427:3447   */\n      tag_73\n      jump\t// in\n    tag_122:\n        /* \"#utility.yul\":3416:3447   */\n      swap1\n      pop\n        /* \"#utility.yul\":3359:3453   */\n      swap2\n      swap1\n      pop\n      jump\t// out\n        /* \"#utility.yul\":3459:3559   */\n    tag_75:\n        /* \"#utility.yul\":3498:3505   */\n      0x00\n        /* \"#utility.yul\":3527:3553   */\n      tag_124\n        /* \"#utility.yul\":3547:3552   */\n      dup3\n        /* \"#utility.yul\":3527:3553   */\n      tag_74\n      jump\t// in\n    tag_124:\n        /* \"#utility.yul\":3516:3553   */\n      swap1\n      pop\n        /* \"#utility.yul\":3459:3559   */\n      swap2\n      swap1\n      pop\n      jump\t// out\n        /* \"#utility.yul\":3565:3722   */\n    tag_76:\n        /* \"#utility.yul\":3670:3715   */\n      tag_126\n        /* \"#utility.yul\":3690:3714   */\n      tag_127\n        /* \"#utility.yul\":3708:3713   */\n      dup3\n        /* \"#utility.yul\":3690:3714   */\n      tag_66\n      jump\t// in\n    tag_127:\n        /* \"#utility.yul\":3670:3715   */\n      tag_75\n      jump\t// in\n    tag_126:\n        /* \"#utility.yul\":3665:3668   */\n      dup3\n        /* \"#utility.yul\":3658:3716   */\n      mstore\n        /* \"#utility.yul\":3565:3722   */\n      pop\n      pop\n      jump\t// out\n        /* \"#utility.yul\":3728:3807   */\n    tag_77:\n        /* \"#utility.yul\":3767:3774   */\n      0x00\n        /* \"#utility.yul\":3796:3801   */\n      dup2\n        /* \"#utility.yul\":3785:3801   */\n      swap1\n      pop\n        /* \"#utility.yul\":3728:3807   */\n      swap2\n      swap1\n      pop\n      jump\t// out\n        /* \"#utility.yul\":3813:3970   */\n    tag_78:\n        /* \"#utility.yul\":3918:3963   */\n      tag_130\n        /* \"#utility.yul\":3938:3962   */\n      tag_131\n        /* \"#utility.yul\":3956:3961   */\n      dup3\n        /* \"#utility.yul\":3938:3962   */\n      tag_61\n      jump\t// in\n    tag_131:\n        /* \"#utility.yul\":3918:3963   */\n      tag_77\n      jump\t// in\n    tag_130:\n        /* \"#utility.yul\":3913:3916   */\n      dup3\n        /* \"#utility.yul\":3906:3964   */\n      mstore\n        /* \"#utility.yul\":3813:3970   */\n      pop\n      pop\n      jump\t// out\n        /* \"#utility.yul\":3976:4650   */\n    tag_54:\n        /* \"#utility.yul\":4170:4173   */\n      0x00\n        /* \"#utility.yul\":4185:4258   */\n      tag_133\n        /* \"#utility.yul\":4254:4257   */\n      dup3\n        /* \"#utility.yul\":4245:4251   */\n      dup8\n        /* \"#utility.yul\":4185:4258   */\n      tag_72\n      jump\t// in\n    tag_133:\n        /* \"#utility.yul\":4283:4284   */\n      0x01\n        /* \"#utility.yul\":4278:4281   */\n      dup3\n        /* \"#utility.yul\":4274:4285   */\n      add\n        /* \"#utility.yul\":4267:4285   */\n      swap2\n      pop\n        /* \"#utility.yul\":4295:4370   */\n      tag_134\n        /* \"#utility.yul\":4366:4369   */\n      dup3\n        /* \"#utility.yul\":4357:4363   */\n      dup7\n        /* \"#utility.yul\":4295:4370   */\n      tag_76\n      jump\t// in\n    tag_134:\n        /* \"#utility.yul\":4395:4397   */\n      0x14\n        /* \"#utility.yul\":4390:4393   */\n      dup3\n        /* \"#utility.yul\":4386:4398   */\n      add\n        /* \"#utility.yul\":4379:4398   */\n      swap2\n      pop\n        /* \"#utility.yul\":4408:4483   */\n      tag_135\n        /* \"#utility.yul\":4479:4482   */\n      dup3\n        /* \"#utility.yul\":4470:4476   */\n      dup6\n        /* \"#utility.yul\":4408:4483   */\n      tag_78\n      jump\t// in\n    tag_135:\n        /* \"#utility.yul\":4508:4510   */\n      0x20\n        /* \"#utility.yul\":4503:4506   */\n      dup3\n        /* \"#utility.yul\":4499:4511   */\n      add\n        /* \"#utility.yul\":4492:4511   */\n      swap2\n      pop\n        /* \"#utility.yul\":4521:4596   */\n      tag_136\n        /* \"#utility.yul\":4592:4595   */\n      dup3\n        /* \"#utility.yul\":4583:4589   */\n      dup5\n        /* \"#utility.yul\":4521:4596   */\n      tag_78\n      jump\t// in\n    tag_136:\n        /* \"#utility.yul\":4621:4623   */\n      0x20\n        /* \"#utility.yul\":4616:4619   */\n      dup3\n        /* \"#utility.yul\":4612:4624   */\n      add\n        /* \"#utility.yul\":4605:4624   */\n      swap2\n      pop\n        /* \"#utility.yul\":4641:4644   */\n      dup2\n        /* \"#utility.yul\":4634:4644   */\n      swap1\n      pop\n        /* \"#utility.yul\":3976:4650   */\n      swap6\n      swap5\n      pop\n      pop\n      pop\n      pop\n      pop\n      jump\t// out\n    stop\n\n    sub_0: assembly {\n            /* \"shoot/\\xe6\\x91\\xb8\\xe5\\xba\\x951/3/1.sol\":1249:1406  contract exchangeseller{... */\n          mstore(0x40, 0x80)\n          callvalue\n          dup1\n          iszero\n          tag_1\n          jumpi\n          0x00\n          dup1\n          revert\n        tag_1:\n          pop\n          dataSize(sub_0)\n          dup1\n          dataOffset(sub_0)\n          0x00\n          codecopy\n          0x00\n          return\n        stop\n\n        sub_0: assembly {\n                /* \"shoot/\\xe6\\x91\\xb8\\xe5\\xba\\x951/3/1.sol\":1249:1406  contract exchangeseller{... */\n              mstore(0x40, 0x80)\n              callvalue\n              dup1\n              iszero\n              tag_1\n              jumpi\n              0x00\n              dup1\n              revert\n            tag_1:\n              pop\n              jumpi(tag_2, lt(calldatasize, 0x04))\n              shr(0xe0, calldataload(0x00))\n              dup1\n              0xdbf16873\n              eq\n              tag_3\n              jumpi\n            tag_2:\n              0x00\n              dup1\n              revert\n                /* \"shoot/\\xe6\\x91\\xb8\\xe5\\xba\\x951/3/1.sol\":1281:1403  function attract(address addr) public {... */\n            tag_3:\n              tag_4\n              0x04\n              dup1\n              calldatasize\n              sub\n              dup2\n              add\n              swap1\n              tag_5\n              swap2\n              swap1\n              tag_6\n              jump\t// in\n            tag_5:\n              tag_7\n              jump\t// in\n            tag_4:\n              stop\n            tag_7:\n                /* \"shoot/\\xe6\\x91\\xb8\\xe5\\xba\\x951/3/1.sol\":1337:1341  addr */\n              dup1\n                /* \"shoot/\\xe6\\x91\\xb8\\xe5\\xba\\x951/3/1.sol\":1330:1355  market(addr).changeSeller */\n              0xffffffffffffffffffffffffffffffffffffffff\n              and\n              0xe90e2fed\n                /* \"shoot/\\xe6\\x91\\xb8\\xe5\\xba\\x951/3/1.sol\":1330:1357  market(addr).changeSeller() */\n              mload(0x40)\n              dup2\n              0xffffffff\n              and\n              0xe0\n              shl\n              dup2\n              mstore\n              0x04\n              add\n              0x00\n              mload(0x40)\n              dup1\n              dup4\n              sub\n              dup2\n              0x00\n              dup8\n              dup1\n              extcodesize\n              iszero\n              dup1\n              iszero\n              tag_9\n              jumpi\n              0x00\n              dup1\n              revert\n            tag_9:\n              pop\n              gas\n              call\n              iszero\n              dup1\n              iszero\n              tag_11\n              jumpi\n              returndatasize\n              0x00\n              dup1\n              returndatacopy\n              revert(0x00, returndatasize)\n            tag_11:\n              pop\n              pop\n              pop\n              pop\n                /* \"shoot/\\xe6\\x91\\xb8\\xe5\\xba\\x951/3/1.sol\":1375:1379  addr */\n              dup1\n                /* \"shoot/\\xe6\\x91\\xb8\\xe5\\xba\\x951/3/1.sol\":1368:1392  market(addr).changePrice */\n              0xffffffffffffffffffffffffffffffffffffffff\n              and\n              0xa2b40d19\n                /* \"shoot/\\xe6\\x91\\xb8\\xe5\\xba\\x951/3/1.sol\":1393:1394  0 */\n              0x00\n                /* \"shoot/\\xe6\\x91\\xb8\\xe5\\xba\\x951/3/1.sol\":1368:1395  market(addr).changePrice(0) */\n              mload(0x40)\n              dup3\n              0xffffffff\n              and\n              0xe0\n              shl\n              dup2\n              mstore\n              0x04\n              add\n              tag_12\n              swap2\n              swap1\n              tag_13\n              jump\t// in\n            tag_12:\n              0x00\n              mload(0x40)\n              dup1\n              dup4\n              sub\n              dup2\n              0x00\n              dup8\n              dup1\n              extcodesize\n              iszero\n              dup1\n              iszero\n              tag_14\n              jumpi\n              0x00\n              dup1\n              revert\n            tag_14:\n              pop\n              gas\n              call\n              iszero\n              dup1\n              iszero\n              tag_16\n              jumpi\n              returndatasize\n              0x00\n              dup1\n              returndatacopy\n              revert(0x00, returndatasize)\n            tag_16:\n              pop\n              pop\n              pop\n              pop\n                /* \"shoot/\\xe6\\x91\\xb8\\xe5\\xba\\x951/3/1.sol\":1281:1403  function attract(address addr) public {... */\n              pop\n              jump\t// out\n                /* \"#utility.yul\":88:205   */\n            tag_18:\n                /* \"#utility.yul\":197:198   */\n              0x00\n                /* \"#utility.yul\":194:195   */\n              dup1\n                /* \"#utility.yul\":187:199   */\n              revert\n                /* \"#utility.yul\":334:460   */\n            tag_20:\n                /* \"#utility.yul\":371:378   */\n              0x00\n                /* \"#utility.yul\":411:453   */\n              0xffffffffffffffffffffffffffffffffffffffff\n                /* \"#utility.yul\":404:409   */\n              dup3\n                /* \"#utility.yul\":400:454   */\n              and\n                /* \"#utility.yul\":389:454   */\n              swap1\n              pop\n                /* \"#utility.yul\":334:460   */\n              swap2\n              swap1\n              pop\n              jump\t// out\n                /* \"#utility.yul\":466:562   */\n            tag_21:\n                /* \"#utility.yul\":503:510   */\n              0x00\n                /* \"#utility.yul\":532:556   */\n              tag_35\n                /* \"#utility.yul\":550:555   */\n              dup3\n                /* \"#utility.yul\":532:556   */\n              tag_20\n              jump\t// in\n            tag_35:\n                /* \"#utility.yul\":521:556   */\n              swap1\n              pop\n                /* \"#utility.yul\":466:562   */\n              swap2\n              swap1\n              pop\n              jump\t// out\n                /* \"#utility.yul\":568:690   */\n            tag_22:\n                /* \"#utility.yul\":641:665   */\n              tag_37\n                /* \"#utility.yul\":659:664   */\n              dup2\n                /* \"#utility.yul\":641:665   */\n              tag_21\n              jump\t// in\n            tag_37:\n                /* \"#utility.yul\":634:639   */\n              dup2\n                /* \"#utility.yul\":631:666   */\n              eq\n                /* \"#utility.yul\":621:684   */\n              tag_38\n              jumpi\n                /* \"#utility.yul\":680:681   */\n              0x00\n                /* \"#utility.yul\":677:678   */\n              dup1\n                /* \"#utility.yul\":670:682   */\n              revert\n                /* \"#utility.yul\":621:684   */\n            tag_38:\n                /* \"#utility.yul\":568:690   */\n              pop\n              jump\t// out\n                /* \"#utility.yul\":696:835   */\n            tag_23:\n                /* \"#utility.yul\":742:747   */\n              0x00\n                /* \"#utility.yul\":780:786   */\n              dup2\n                /* \"#utility.yul\":767:787   */\n              calldataload\n                /* \"#utility.yul\":758:787   */\n              swap1\n              pop\n                /* \"#utility.yul\":796:829   */\n              tag_40\n                /* \"#utility.yul\":823:828   */\n              dup2\n                /* \"#utility.yul\":796:829   */\n              tag_22\n              jump\t// in\n            tag_40:\n                /* \"#utility.yul\":696:835   */\n              swap3\n              swap2\n              pop\n              pop\n              jump\t// out\n                /* \"#utility.yul\":841:1170   */\n            tag_6:\n                /* \"#utility.yul\":900:906   */\n              0x00\n                /* \"#utility.yul\":949:951   */\n              0x20\n                /* \"#utility.yul\":937:946   */\n              dup3\n                /* \"#utility.yul\":928:935   */\n              dup5\n                /* \"#utility.yul\":924:947   */\n              sub\n                /* \"#utility.yul\":920:952   */\n              slt\n                /* \"#utility.yul\":917:1036   */\n              iszero\n              tag_42\n              jumpi\n                /* \"#utility.yul\":955:1034   */\n              tag_43\n              tag_18\n              jump\t// in\n            tag_43:\n                /* \"#utility.yul\":917:1036   */\n            tag_42:\n                /* \"#utility.yul\":1075:1076   */\n              0x00\n                /* \"#utility.yul\":1100:1153   */\n              tag_44\n                /* \"#utility.yul\":1145:1152   */\n              dup5\n                /* \"#utility.yul\":1136:1142   */\n              dup3\n                /* \"#utility.yul\":1125:1134   */\n              dup6\n                /* \"#utility.yul\":1121:1143   */\n              add\n                /* \"#utility.yul\":1100:1153   */\n              tag_23\n              jump\t// in\n            tag_44:\n                /* \"#utility.yul\":1090:1153   */\n              swap2\n              pop\n                /* \"#utility.yul\":1046:1163   */\n              pop\n                /* \"#utility.yul\":841:1170   */\n              swap3\n              swap2\n              pop\n              pop\n              jump\t// out\n                /* \"#utility.yul\":1176:1261   */\n            tag_24:\n                /* \"#utility.yul\":1221:1228   */\n              0x00\n                /* \"#utility.yul\":1250:1255   */\n              dup2\n                /* \"#utility.yul\":1239:1255   */\n              swap1\n              pop\n                /* \"#utility.yul\":1176:1261   */\n              swap2\n              swap1\n              pop\n              jump\t// out\n                /* \"#utility.yul\":1267:1344   */\n            tag_25:\n                /* \"#utility.yul\":1304:1311   */\n              0x00\n                /* \"#utility.yul\":1333:1338   */\n              dup2\n                /* \"#utility.yul\":1322:1338   */\n              swap1\n              pop\n                /* \"#utility.yul\":1267:1344   */\n              swap2\n              swap1\n              pop\n              jump\t// out\n                /* \"#utility.yul\":1350:1410   */\n            tag_26:\n                /* \"#utility.yul\":1378:1381   */\n              0x00\n                /* \"#utility.yul\":1399:1404   */\n              dup2\n                /* \"#utility.yul\":1392:1404   */\n              swap1\n              pop\n                /* \"#utility.yul\":1350:1410   */\n              swap2\n              swap1\n              pop\n              jump\t// out\n                /* \"#utility.yul\":1416:1574   */\n            tag_27:\n                /* \"#utility.yul\":1474:1483   */\n              0x00\n                /* \"#utility.yul\":1507:1568   */\n              tag_49\n                /* \"#utility.yul\":1525:1567   */\n              tag_50\n                /* \"#utility.yul\":1534:1566   */\n              tag_51\n                /* \"#utility.yul\":1560:1565   */\n              dup5\n                /* \"#utility.yul\":1534:1566   */\n              tag_24\n              jump\t// in\n            tag_51:\n                /* \"#utility.yul\":1525:1567   */\n              tag_26\n              jump\t// in\n            tag_50:\n                /* \"#utility.yul\":1507:1568   */\n              tag_25\n              jump\t// in\n            tag_49:\n                /* \"#utility.yul\":1494:1568   */\n              swap1\n              pop\n                /* \"#utility.yul\":1416:1574   */\n              swap2\n              swap1\n              pop\n              jump\t// out\n                /* \"#utility.yul\":1580:1727   */\n            tag_28:\n                /* \"#utility.yul\":1675:1720   */\n              tag_53\n                /* \"#utility.yul\":1714:1719   */\n              dup2\n                /* \"#utility.yul\":1675:1720   */\n              tag_27\n              jump\t// in\n            tag_53:\n                /* \"#utility.yul\":1670:1673   */\n              dup3\n                /* \"#utility.yul\":1663:1721   */\n              mstore\n                /* \"#utility.yul\":1580:1727   */\n              pop\n              pop\n              jump\t// out\n                /* \"#utility.yul\":1733:1971   */\n            tag_13:\n                /* \"#utility.yul\":1834:1838   */\n              0x00\n                /* \"#utility.yul\":1872:1874   */\n              0x20\n                /* \"#utility.yul\":1861:1870   */\n              dup3\n                /* \"#utility.yul\":1857:1875   */\n              add\n                /* \"#utility.yul\":1849:1875   */\n              swap1\n              pop\n                /* \"#utility.yul\":1885:1964   */\n              tag_55\n                /* \"#utility.yul\":1961:1962   */\n              0x00\n                /* \"#utility.yul\":1950:1959   */\n              dup4\n                /* \"#utility.yul\":1946:1963   */\n              add\n                /* \"#utility.yul\":1937:1943   */\n              dup5\n                /* \"#utility.yul\":1885:1964   */\n              tag_28\n              jump\t// in\n            tag_55:\n                /* \"#utility.yul\":1733:1971   */\n              swap3\n              swap2\n              pop\n              pop\n              jump\t// out\n\n            auxdata: 0xa26469706673582212206f4eadafdfbdc726329978c8b26dfb6016792de9e569c34b89acb9ffed0d75a964736f6c63430008150033\n        }\n    }\n\n    sub_1: assembly {\n            /* \"shoot/\\xe6\\x91\\xb8\\xe5\\xba\\x951/3/1.sol\":1408:1557  contract attractconstract{... */\n          mstore(0x40, 0x80)\n          callvalue\n          dup1\n          iszero\n          tag_1\n          jumpi\n          0x00\n          dup1\n          revert\n        tag_1:\n          pop\n          dataSize(sub_0)\n          dup1\n          dataOffset(sub_0)\n          0x00\n          codecopy\n          0x00\n          return\n        stop\n\n        sub_0: assembly {\n                /* \"shoot/\\xe6\\x91\\xb8\\xe5\\xba\\x951/3/1.sol\":1408:1557  contract attractconstract{... */\n              mstore(0x40, 0x80)\n              callvalue\n              dup1\n              iszero\n              tag_1\n              jumpi\n              0x00\n              dup1\n              revert\n            tag_1:\n              pop\n              jumpi(tag_2, lt(calldatasize, 0x04))\n              shr(0xe0, calldataload(0x00))\n              dup1\n              0xdbf16873\n              eq\n              tag_3\n              jumpi\n            tag_2:\n              0x00\n              dup1\n              revert\n                /* \"shoot/\\xe6\\x91\\xb8\\xe5\\xba\\x951/3/1.sol\":1442:1554  function attract(address addr) public {... */\n            tag_3:\n              tag_4\n              0x04\n              dup1\n              calldatasize\n              sub\n              dup2\n              add\n              swap1\n              tag_5\n              swap2\n              swap1\n              tag_6\n              jump\t// in\n            tag_5:\n              tag_7\n              jump\t// in\n            tag_4:\n              stop\n            tag_7:\n                /* \"shoot/\\xe6\\x91\\xb8\\xe5\\xba\\x951/3/1.sol\":1498:1502  addr */\n              dup1\n                /* \"shoot/\\xe6\\x91\\xb8\\xe5\\xba\\x951/3/1.sol\":1491:1507  market(addr).buy */\n              0xffffffffffffffffffffffffffffffffffffffff\n              and\n              0xa6f2ae3a\n                /* \"shoot/\\xe6\\x91\\xb8\\xe5\\xba\\x951/3/1.sol\":1491:1509  market(addr).buy() */\n              mload(0x40)\n              dup2\n              0xffffffff\n              and\n              0xe0\n              shl\n              dup2\n              mstore\n              0x04\n              add\n              0x00\n              mload(0x40)\n              dup1\n              dup4\n              sub\n              dup2\n              0x00\n              dup8\n              dup1\n              extcodesize\n              iszero\n              dup1\n              iszero\n              tag_9\n              jumpi\n              0x00\n              dup1\n              revert\n            tag_9:\n              pop\n              gas\n              call\n              iszero\n              dup1\n              iszero\n              tag_11\n              jumpi\n              returndatasize\n              0x00\n              dup1\n              returndatacopy\n              revert(0x00, returndatasize)\n            tag_11:\n              pop\n              pop\n              pop\n              pop\n                /* \"shoot/\\xe6\\x91\\xb8\\xe5\\xba\\x951/3/1.sol\":1527:1531  addr */\n              dup1\n                /* \"shoot/\\xe6\\x91\\xb8\\xe5\\xba\\x951/3/1.sol\":1520:1544  market(addr).isCompleted */\n              0xffffffffffffffffffffffffffffffffffffffff\n              and\n              0xfa391c64\n                /* \"shoot/\\xe6\\x91\\xb8\\xe5\\xba\\x951/3/1.sol\":1520:1546  market(addr).isCompleted() */\n              mload(0x40)\n              dup2\n              0xffffffff\n              and\n              0xe0\n              shl\n              dup2\n              mstore\n              0x04\n              add\n              0x00\n              mload(0x40)\n              dup1\n              dup4\n              sub\n              dup2\n              0x00\n              dup8\n              dup1\n              extcodesize\n              iszero\n              dup1\n              iszero\n              tag_12\n              jumpi\n              0x00\n              dup1\n              revert\n            tag_12:\n              pop\n              gas\n              call\n              iszero\n              dup1\n              iszero\n              tag_14\n              jumpi\n              returndatasize\n              0x00\n              dup1\n              returndatacopy\n              revert(0x00, returndatasize)\n            tag_14:\n              pop\n              pop\n              pop\n              pop\n                /* \"shoot/\\xe6\\x91\\xb8\\xe5\\xba\\x951/3/1.sol\":1442:1554  function attract(address addr) public {... */\n              pop\n              jump\t// out\n                /* \"#utility.yul\":88:205   */\n            tag_16:\n                /* \"#utility.yul\":197:198   */\n              0x00\n                /* \"#utility.yul\":194:195   */\n              dup1\n                /* \"#utility.yul\":187:199   */\n              revert\n                /* \"#utility.yul\":334:460   */\n            tag_18:\n                /* \"#utility.yul\":371:378   */\n              0x00\n                /* \"#utility.yul\":411:453   */\n              0xffffffffffffffffffffffffffffffffffffffff\n                /* \"#utility.yul\":404:409   */\n              dup3\n                /* \"#utility.yul\":400:454   */\n              and\n                /* \"#utility.yul\":389:454   */\n              swap1\n              pop\n                /* \"#utility.yul\":334:460   */\n              swap2\n              swap1\n              pop\n              jump\t// out\n                /* \"#utility.yul\":466:562   */\n            tag_19:\n                /* \"#utility.yul\":503:510   */\n              0x00\n                /* \"#utility.yul\":532:556   */\n              tag_28\n                /* \"#utility.yul\":550:555   */\n              dup3\n                /* \"#utility.yul\":532:556   */\n              tag_18\n              jump\t// in\n            tag_28:\n                /* \"#utility.yul\":521:556   */\n              swap1\n              pop\n                /* \"#utility.yul\":466:562   */\n              swap2\n              swap1\n              pop\n              jump\t// out\n                /* \"#utility.yul\":568:690   */\n            tag_20:\n                /* \"#utility.yul\":641:665   */\n              tag_30\n                /* \"#utility.yul\":659:664   */\n              dup2\n                /* \"#utility.yul\":641:665   */\n              tag_19\n              jump\t// in\n            tag_30:\n                /* \"#utility.yul\":634:639   */\n              dup2\n                /* \"#utility.yul\":631:666   */\n              eq\n                /* \"#utility.yul\":621:684   */\n              tag_31\n              jumpi\n                /* \"#utility.yul\":680:681   */\n              0x00\n                /* \"#utility.yul\":677:678   */\n              dup1\n                /* \"#utility.yul\":670:682   */\n              revert\n                /* \"#utility.yul\":621:684   */\n            tag_31:\n                /* \"#utility.yul\":568:690   */\n              pop\n              jump\t// out\n                /* \"#utility.yul\":696:835   */\n            tag_21:\n                /* \"#utility.yul\":742:747   */\n              0x00\n                /* \"#utility.yul\":780:786   */\n              dup2\n                /* \"#utility.yul\":767:787   */\n              calldataload\n                /* \"#utility.yul\":758:787   */\n              swap1\n              pop\n                /* \"#utility.yul\":796:829   */\n              tag_33\n                /* \"#utility.yul\":823:828   */\n              dup2\n                /* \"#utility.yul\":796:829   */\n              tag_20\n              jump\t// in\n            tag_33:\n                /* \"#utility.yul\":696:835   */\n              swap3\n              swap2\n              pop\n              pop\n              jump\t// out\n                /* \"#utility.yul\":841:1170   */\n            tag_6:\n                /* \"#utility.yul\":900:906   */\n              0x00\n                /* \"#utility.yul\":949:951   */\n              0x20\n                /* \"#utility.yul\":937:946   */\n              dup3\n                /* \"#utility.yul\":928:935   */\n              dup5\n                /* \"#utility.yul\":924:947   */\n              sub\n                /* \"#utility.yul\":920:952   */\n              slt\n                /* \"#utility.yul\":917:1036   */\n              iszero\n              tag_35\n              jumpi\n                /* \"#utility.yul\":955:1034   */\n              tag_36\n              tag_16\n              jump\t// in\n            tag_36:\n                /* \"#utility.yul\":917:1036   */\n            tag_35:\n                /* \"#utility.yul\":1075:1076   */\n              0x00\n                /* \"#utility.yul\":1100:1153   */\n              tag_37\n                /* \"#utility.yul\":1145:1152   */\n              dup5\n                /* \"#utility.yul\":1136:1142   */\n              dup3\n                /* \"#utility.yul\":1125:1134   */\n              dup6\n                /* \"#utility.yul\":1121:1143   */\n              add\n                /* \"#utility.yul\":1100:1153   */\n              tag_21\n              jump\t// in\n            tag_37:\n                /* \"#utility.yul\":1090:1153   */\n              swap2\n              pop\n                /* \"#utility.yul\":1046:1163   */\n              pop\n                /* \"#utility.yul\":841:1170   */\n              swap3\n              swap2\n              pop\n              pop\n              jump\t// out\n\n            auxdata: 0xa2646970667358221220ba1915876a8af20b83140b8362d01b12f310140fa499ee68bd9ba9a841e177e864736f6c63430008150033\n        }\n    }\n\n    auxdata: 0xa2646970667358221220da033f5152df3c9c6812b3ea61c9d05d3484e8c739152b3eb44e574d377f4d1f64736f6c63430008150033\n}\n",
				"bytecode": {
					"linkReferences": {},
					"object": "608060405234801561000f575f80fd5b50610a418061001d5f395ff3fe608060405234801561000f575f80fd5b5060043610610086575f3560e01c80638854746f116100595780638854746f146100fe5780639b0359d81461011c578063b90365a71461014c578063d8acfdb31461016a57610086565b8063224863f01461008a5780632330c780146100a65780635c7b4114146100c257806381ee9455146100e0575b5f80fd5b6100a4600480360381019061009f91906103be565b61019a565b005b6100c060048036038101906100bb91906103be565b61020b565b005b6100ca61027d565b6040516100d791906103f8565b60405180910390f35b6100e86102ae565b6040516100f59190610450565b60405180910390f35b6101066102d3565b6040516101139190610450565b60405180910390f35b61013660048036038101906101319190610493565b6102f6565b60405161014391906103f8565b60405180910390f35b610154610331565b60405161016191906103f8565b60405180910390f35b610184600480360381019061017f91906103be565b610362565b6040516101919190610450565b60405180910390f35b5f816040516101a89061036d565b8190604051809103905ff59050801580156101c5573d5f803e3d5ffd5b509050805f806101000a81548173ffffffffffffffffffffffffffffffffffffffff021916908373ffffffffffffffffffffffffffffffffffffffff1602179055505050565b5f816040516102199061037a565b8190604051809103905ff5905080158015610236573d5f803e3d5ffd5b5090508060015f6101000a81548173ffffffffffffffffffffffffffffffffffffffff021916908373ffffffffffffffffffffffffffffffffffffffff1602179055505050565b5f6040518060200161028e9061037a565b6020820181038252601f19601f8201166040525080519060200120905090565b60015f9054906101000a900473ffffffffffffffffffffffffffffffffffffffff1681565b5f8054906101000a900473ffffffffffffffffffffffffffffffffffffffff1681565b5f60ff60f81b8484846040516020016103129493929190610593565b6040516020818303038152906040528051906020012090509392505050565b5f604051806020016103429061036d565b6020820181038252601f19601f8201166040525080519060200120905090565b5f815f1c9050919050565b61024d806105e183390190565b6101de8061082e83390190565b5f80fd5b5f819050919050565b61039d8161038b565b81146103a7575f80fd5b50565b5f813590506103b881610394565b92915050565b5f602082840312156103d3576103d2610387565b5b5f6103e0848285016103aa565b91505092915050565b6103f28161038b565b82525050565b5f60208201905061040b5f8301846103e9565b92915050565b5f73ffffffffffffffffffffffffffffffffffffffff82169050919050565b5f61043a82610411565b9050919050565b61044a81610430565b82525050565b5f6020820190506104635f830184610441565b92915050565b61047281610430565b811461047c575f80fd5b50565b5f8135905061048d81610469565b92915050565b5f805f606084860312156104aa576104a9610387565b5b5f6104b78682870161047f565b93505060206104c8868287016103aa565b92505060406104d9868287016103aa565b9150509250925092565b5f7fff0000000000000000000000000000000000000000000000000000000000000082169050919050565b5f819050919050565b610528610523826104e3565b61050e565b82525050565b5f8160601b9050919050565b5f6105448261052e565b9050919050565b5f6105558261053a565b9050919050565b61056d61056882610430565b61054b565b82525050565b5f819050919050565b61058d6105888261038b565b610573565b82525050565b5f61059e8287610517565b6001820191506105ae828661055c565b6014820191506105be828561057c565b6020820191506105ce828461057c565b6020820191508190509594505050505056fe608060405234801561000f575f80fd5b506102308061001d5f395ff3fe608060405234801561000f575f80fd5b5060043610610029575f3560e01c8063dbf168731461002d575b5f80fd5b6100476004803603810190610042919061016b565b610049565b005b8073ffffffffffffffffffffffffffffffffffffffff1663e90e2fed6040518163ffffffff1660e01b81526004015f604051808303815f87803b15801561008e575f80fd5b505af11580156100a0573d5f803e3d5ffd5b505050508073ffffffffffffffffffffffffffffffffffffffff1663a2b40d195f6040518263ffffffff1660e01b81526004016100dd91906101e1565b5f604051808303815f87803b1580156100f4575f80fd5b505af1158015610106573d5f803e3d5ffd5b5050505050565b5f80fd5b5f73ffffffffffffffffffffffffffffffffffffffff82169050919050565b5f61013a82610111565b9050919050565b61014a81610130565b8114610154575f80fd5b50565b5f8135905061016581610141565b92915050565b5f602082840312156101805761017f61010d565b5b5f61018d84828501610157565b91505092915050565b5f819050919050565b5f819050919050565b5f819050919050565b5f6101cb6101c66101c184610196565b6101a8565b61019f565b9050919050565b6101db816101b1565b82525050565b5f6020820190506101f45f8301846101d2565b9291505056fea26469706673582212206f4eadafdfbdc726329978c8b26dfb6016792de9e569c34b89acb9ffed0d75a964736f6c63430008150033608060405234801561000f575f80fd5b506101c18061001d5f395ff3fe608060405234801561000f575f80fd5b5060043610610029575f3560e01c8063dbf168731461002d575b5f80fd5b61004760048036038101906100429190610160565b610049565b005b8073ffffffffffffffffffffffffffffffffffffffff1663a6f2ae3a6040518163ffffffff1660e01b81526004015f604051808303815f87803b15801561008e575f80fd5b505af11580156100a0573d5f803e3d5ffd5b505050508073ffffffffffffffffffffffffffffffffffffffff1663fa391c646040518163ffffffff1660e01b81526004015f604051808303815f87803b1580156100e9575f80fd5b505af11580156100fb573d5f803e3d5ffd5b5050505050565b5f80fd5b5f73ffffffffffffffffffffffffffffffffffffffff82169050919050565b5f61012f82610106565b9050919050565b61013f81610125565b8114610149575f80fd5b50565b5f8135905061015a81610136565b92915050565b5f6020828403121561017557610174610102565b5b5f6101828482850161014c565b9150509291505056fea2646970667358221220ba1915876a8af20b83140b8362d01b12f310140fa499ee68bd9ba9a841e177e864736f6c63430008150033a2646970667358221220da033f5152df3c9c6812b3ea61c9d05d3484e8c739152b3eb44e574d377f4d1f64736f6c63430008150033",
					"opcodes": "PUSH1 0x80 PUSH1 0x40 MSTORE CALLVALUE DUP1 ISZERO PUSH2 0xF JUMPI PUSH0 DUP1 REVERT JUMPDEST POP PUSH2 0xA41 DUP1 PUSH2 0x1D PUSH0 CODECOPY PUSH0 RETURN INVALID PUSH1 0x80 PUSH1 0x40 MSTORE CALLVALUE DUP1 ISZERO PUSH2 0xF JUMPI PUSH0 DUP1 REVERT JUMPDEST POP PUSH1 0x4 CALLDATASIZE LT PUSH2 0x86 JUMPI PUSH0 CALLDATALOAD PUSH1 0xE0 SHR DUP1 PUSH4 0x8854746F GT PUSH2 0x59 JUMPI DUP1 PUSH4 0x8854746F EQ PUSH2 0xFE JUMPI DUP1 PUSH4 0x9B0359D8 EQ PUSH2 0x11C JUMPI DUP1 PUSH4 0xB90365A7 EQ PUSH2 0x14C JUMPI DUP1 PUSH4 0xD8ACFDB3 EQ PUSH2 0x16A JUMPI PUSH2 0x86 JUMP JUMPDEST DUP1 PUSH4 0x224863F0 EQ PUSH2 0x8A JUMPI DUP1 PUSH4 0x2330C780 EQ PUSH2 0xA6 JUMPI DUP1 PUSH4 0x5C7B4114 EQ PUSH2 0xC2 JUMPI DUP1 PUSH4 0x81EE9455 EQ PUSH2 0xE0 JUMPI JUMPDEST PUSH0 DUP1 REVERT JUMPDEST PUSH2 0xA4 PUSH1 0x4 DUP1 CALLDATASIZE SUB DUP2 ADD SWAP1 PUSH2 0x9F SWAP2 SWAP1 PUSH2 0x3BE JUMP JUMPDEST PUSH2 0x19A JUMP JUMPDEST STOP JUMPDEST PUSH2 0xC0 PUSH1 0x4 DUP1 CALLDATASIZE SUB DUP2 ADD SWAP1 PUSH2 0xBB SWAP2 SWAP1 PUSH2 0x3BE JUMP JUMPDEST PUSH2 0x20B JUMP JUMPDEST STOP JUMPDEST PUSH2 0xCA PUSH2 0x27D JUMP JUMPDEST PUSH1 0x40 MLOAD PUSH2 0xD7 SWAP2 SWAP1 PUSH2 0x3F8 JUMP JUMPDEST PUSH1 0x40 MLOAD DUP1 SWAP2 SUB SWAP1 RETURN JUMPDEST PUSH2 0xE8 PUSH2 0x2AE JUMP JUMPDEST PUSH1 0x40 MLOAD PUSH2 0xF5 SWAP2 SWAP1 PUSH2 0x450 JUMP JUMPDEST PUSH1 0x40 MLOAD DUP1 SWAP2 SUB SWAP1 RETURN JUMPDEST PUSH2 0x106 PUSH2 0x2D3 JUMP JUMPDEST PUSH1 0x40 MLOAD PUSH2 0x113 SWAP2 SWAP1 PUSH2 0x450 JUMP JUMPDEST PUSH1 0x40 MLOAD DUP1 SWAP2 SUB SWAP1 RETURN JUMPDEST PUSH2 0x136 PUSH1 0x4 DUP1 CALLDATASIZE SUB DUP2 ADD SWAP1 PUSH2 0x131 SWAP2 SWAP1 PUSH2 0x493 JUMP JUMPDEST PUSH2 0x2F6 JUMP JUMPDEST PUSH1 0x40 MLOAD PUSH2 0x143 SWAP2 SWAP1 PUSH2 0x3F8 JUMP JUMPDEST PUSH1 0x40 MLOAD DUP1 SWAP2 SUB SWAP1 RETURN JUMPDEST PUSH2 0x154 PUSH2 0x331 JUMP JUMPDEST PUSH1 0x40 MLOAD PUSH2 0x161 SWAP2 SWAP1 PUSH2 0x3F8 JUMP JUMPDEST PUSH1 0x40 MLOAD DUP1 SWAP2 SUB SWAP1 RETURN JUMPDEST PUSH2 0x184 PUSH1 0x4 DUP1 CALLDATASIZE SUB DUP2 ADD SWAP1 PUSH2 0x17F SWAP2 SWAP1 PUSH2 0x3BE JUMP JUMPDEST PUSH2 0x362 JUMP JUMPDEST PUSH1 0x40 MLOAD PUSH2 0x191 SWAP2 SWAP1 PUSH2 0x450 JUMP JUMPDEST PUSH1 0x40 MLOAD DUP1 SWAP2 SUB SWAP1 RETURN JUMPDEST PUSH0 DUP2 PUSH1 0x40 MLOAD PUSH2 0x1A8 SWAP1 PUSH2 0x36D JUMP JUMPDEST DUP2 SWAP1 PUSH1 0x40 MLOAD DUP1 SWAP2 SUB SWAP1 PUSH0 CREATE2 SWAP1 POP DUP1 ISZERO DUP1 ISZERO PUSH2 0x1C5 JUMPI RETURNDATASIZE PUSH0 DUP1 RETURNDATACOPY RETURNDATASIZE PUSH0 REVERT JUMPDEST POP SWAP1 POP DUP1 PUSH0 DUP1 PUSH2 0x100 EXP DUP2 SLOAD DUP2 PUSH20 0xFFFFFFFFFFFFFFFFFFFFFFFFFFFFFFFFFFFFFFFF MUL NOT AND SWAP1 DUP4 PUSH20 0xFFFFFFFFFFFFFFFFFFFFFFFFFFFFFFFFFFFFFFFF AND MUL OR SWAP1 SSTORE POP POP POP JUMP JUMPDEST PUSH0 DUP2 PUSH1 0x40 MLOAD PUSH2 0x219 SWAP1 PUSH2 0x37A JUMP JUMPDEST DUP2 SWAP1 PUSH1 0x40 MLOAD DUP1 SWAP2 SUB SWAP1 PUSH0 CREATE2 SWAP1 POP DUP1 ISZERO DUP1 ISZERO PUSH2 0x236 JUMPI RETURNDATASIZE PUSH0 DUP1 RETURNDATACOPY RETURNDATASIZE PUSH0 REVERT JUMPDEST POP SWAP1 POP DUP1 PUSH1 0x1 PUSH0 PUSH2 0x100 EXP DUP2 SLOAD DUP2 PUSH20 0xFFFFFFFFFFFFFFFFFFFFFFFFFFFFFFFFFFFFFFFF MUL NOT AND SWAP1 DUP4 PUSH20 0xFFFFFFFFFFFFFFFFFFFFFFFFFFFFFFFFFFFFFFFF AND MUL OR SWAP1 SSTORE POP POP POP JUMP JUMPDEST PUSH0 PUSH1 0x40 MLOAD DUP1 PUSH1 0x20 ADD PUSH2 0x28E SWAP1 PUSH2 0x37A JUMP JUMPDEST PUSH1 0x20 DUP3 ADD DUP2 SUB DUP3 MSTORE PUSH1 0x1F NOT PUSH1 0x1F DUP3 ADD AND PUSH1 0x40 MSTORE POP DUP1 MLOAD SWAP1 PUSH1 0x20 ADD KECCAK256 SWAP1 POP SWAP1 JUMP JUMPDEST PUSH1 0x1 PUSH0 SWAP1 SLOAD SWAP1 PUSH2 0x100 EXP SWAP1 DIV PUSH20 0xFFFFFFFFFFFFFFFFFFFFFFFFFFFFFFFFFFFFFFFF AND DUP2 JUMP JUMPDEST PUSH0 DUP1 SLOAD SWAP1 PUSH2 0x100 EXP SWAP1 DIV PUSH20 0xFFFFFFFFFFFFFFFFFFFFFFFFFFFFFFFFFFFFFFFF AND DUP2 JUMP JUMPDEST PUSH0 PUSH1 0xFF PUSH1 0xF8 SHL DUP5 DUP5 DUP5 PUSH1 0x40 MLOAD PUSH1 0x20 ADD PUSH2 0x312 SWAP5 SWAP4 SWAP3 SWAP2 SWAP1 PUSH2 0x593 JUMP JUMPDEST PUSH1 0x40 MLOAD PUSH1 0x20 DUP2 DUP4 SUB SUB DUP2 MSTORE SWAP1 PUSH1 0x40 MSTORE DUP1 MLOAD SWAP1 PUSH1 0x20 ADD KECCAK256 SWAP1 POP SWAP4 SWAP3 POP POP POP JUMP JUMPDEST PUSH0 PUSH1 0x40 MLOAD DUP1 PUSH1 0x20 ADD PUSH2 0x342 SWAP1 PUSH2 0x36D JUMP JUMPDEST PUSH1 0x20 DUP3 ADD DUP2 SUB DUP3 MSTORE PUSH1 0x1F NOT PUSH1 0x1F DUP3 ADD AND PUSH1 0x40 MSTORE POP DUP1 MLOAD SWAP1 PUSH1 0x20 ADD KECCAK256 SWAP1 POP SWAP1 JUMP JUMPDEST PUSH0 DUP2 PUSH0 SHR SWAP1 POP SWAP2 SWAP1 POP JUMP JUMPDEST PUSH2 0x24D DUP1 PUSH2 0x5E1 DUP4 CODECOPY ADD SWAP1 JUMP JUMPDEST PUSH2 0x1DE DUP1 PUSH2 0x82E DUP4 CODECOPY ADD SWAP1 JUMP JUMPDEST PUSH0 DUP1 REVERT JUMPDEST PUSH0 DUP2 SWAP1 POP SWAP2 SWAP1 POP JUMP JUMPDEST PUSH2 0x39D DUP2 PUSH2 0x38B JUMP JUMPDEST DUP2 EQ PUSH2 0x3A7 JUMPI PUSH0 DUP1 REVERT JUMPDEST POP JUMP JUMPDEST PUSH0 DUP2 CALLDATALOAD SWAP1 POP PUSH2 0x3B8 DUP2 PUSH2 0x394 JUMP JUMPDEST SWAP3 SWAP2 POP POP JUMP JUMPDEST PUSH0 PUSH1 0x20 DUP3 DUP5 SUB SLT ISZERO PUSH2 0x3D3 JUMPI PUSH2 0x3D2 PUSH2 0x387 JUMP JUMPDEST JUMPDEST PUSH0 PUSH2 0x3E0 DUP5 DUP3 DUP6 ADD PUSH2 0x3AA JUMP JUMPDEST SWAP2 POP POP SWAP3 SWAP2 POP POP JUMP JUMPDEST PUSH2 0x3F2 DUP2 PUSH2 0x38B JUMP JUMPDEST DUP3 MSTORE POP POP JUMP JUMPDEST PUSH0 PUSH1 0x20 DUP3 ADD SWAP1 POP PUSH2 0x40B PUSH0 DUP4 ADD DUP5 PUSH2 0x3E9 JUMP JUMPDEST SWAP3 SWAP2 POP POP JUMP JUMPDEST PUSH0 PUSH20 0xFFFFFFFFFFFFFFFFFFFFFFFFFFFFFFFFFFFFFFFF DUP3 AND SWAP1 POP SWAP2 SWAP1 POP JUMP JUMPDEST PUSH0 PUSH2 0x43A DUP3 PUSH2 0x411 JUMP JUMPDEST SWAP1 POP SWAP2 SWAP1 POP JUMP JUMPDEST PUSH2 0x44A DUP2 PUSH2 0x430 JUMP JUMPDEST DUP3 MSTORE POP POP JUMP JUMPDEST PUSH0 PUSH1 0x20 DUP3 ADD SWAP1 POP PUSH2 0x463 PUSH0 DUP4 ADD DUP5 PUSH2 0x441 JUMP JUMPDEST SWAP3 SWAP2 POP POP JUMP JUMPDEST PUSH2 0x472 DUP2 PUSH2 0x430 JUMP JUMPDEST DUP2 EQ PUSH2 0x47C JUMPI PUSH0 DUP1 REVERT JUMPDEST POP JUMP JUMPDEST PUSH0 DUP2 CALLDATALOAD SWAP1 POP PUSH2 0x48D DUP2 PUSH2 0x469 JUMP JUMPDEST SWAP3 SWAP2 POP POP JUMP JUMPDEST PUSH0 DUP1 PUSH0 PUSH1 0x60 DUP5 DUP7 SUB SLT ISZERO PUSH2 0x4AA JUMPI PUSH2 0x4A9 PUSH2 0x387 JUMP JUMPDEST JUMPDEST PUSH0 PUSH2 0x4B7 DUP7 DUP3 DUP8 ADD PUSH2 0x47F JUMP JUMPDEST SWAP4 POP POP PUSH1 0x20 PUSH2 0x4C8 DUP7 DUP3 DUP8 ADD PUSH2 0x3AA JUMP JUMPDEST SWAP3 POP POP PUSH1 0x40 PUSH2 0x4D9 DUP7 DUP3 DUP8 ADD PUSH2 0x3AA JUMP JUMPDEST SWAP2 POP POP SWAP3 POP SWAP3 POP SWAP3 JUMP JUMPDEST PUSH0 PUSH32 0xFF00000000000000000000000000000000000000000000000000000000000000 DUP3 AND SWAP1 POP SWAP2 SWAP1 POP JUMP JUMPDEST PUSH0 DUP2 SWAP1 POP SWAP2 SWAP1 POP JUMP JUMPDEST PUSH2 0x528 PUSH2 0x523 DUP3 PUSH2 0x4E3 JUMP JUMPDEST PUSH2 0x50E JUMP JUMPDEST DUP3 MSTORE POP POP JUMP JUMPDEST PUSH0 DUP2 PUSH1 0x60 SHL SWAP1 POP SWAP2 SWAP1 POP JUMP JUMPDEST PUSH0 PUSH2 0x544 DUP3 PUSH2 0x52E JUMP JUMPDEST SWAP1 POP SWAP2 SWAP1 POP JUMP JUMPDEST PUSH0 PUSH2 0x555 DUP3 PUSH2 0x53A JUMP JUMPDEST SWAP1 POP SWAP2 SWAP1 POP JUMP JUMPDEST PUSH2 0x56D PUSH2 0x568 DUP3 PUSH2 0x430 JUMP JUMPDEST PUSH2 0x54B JUMP JUMPDEST DUP3 MSTORE POP POP JUMP JUMPDEST PUSH0 DUP2 SWAP1 POP SWAP2 SWAP1 POP JUMP JUMPDEST PUSH2 0x58D PUSH2 0x588 DUP3 PUSH2 0x38B JUMP JUMPDEST PUSH2 0x573 JUMP JUMPDEST DUP3 MSTORE POP POP JUMP JUMPDEST PUSH0 PUSH2 0x59E DUP3 DUP8 PUSH2 0x517 JUMP JUMPDEST PUSH1 0x1 DUP3 ADD SWAP2 POP PUSH2 0x5AE DUP3 DUP7 PUSH2 0x55C JUMP JUMPDEST PUSH1 0x14 DUP3 ADD SWAP2 POP PUSH2 0x5BE DUP3 DUP6 PUSH2 0x57C JUMP JUMPDEST PUSH1 0x20 DUP3 ADD SWAP2 POP PUSH2 0x5CE DUP3 DUP5 PUSH2 0x57C JUMP JUMPDEST PUSH1 0x20 DUP3 ADD SWAP2 POP DUP2 SWAP1 POP SWAP6 SWAP5 POP POP POP POP POP JUMP INVALID PUSH1 0x80 PUSH1 0x40 MSTORE CALLVALUE DUP1 ISZERO PUSH2 0xF JUMPI PUSH0 DUP1 REVERT JUMPDEST POP PUSH2 0x230 DUP1 PUSH2 0x1D PUSH0 CODECOPY PUSH0 RETURN INVALID PUSH1 0x80 PUSH1 0x40 MSTORE CALLVALUE DUP1 ISZERO PUSH2 0xF JUMPI PUSH0 DUP1 REVERT JUMPDEST POP PUSH1 0x4 CALLDATASIZE LT PUSH2 0x29 JUMPI PUSH0 CALLDATALOAD PUSH1 0xE0 SHR DUP1 PUSH4 0xDBF16873 EQ PUSH2 0x2D JUMPI JUMPDEST PUSH0 DUP1 REVERT JUMPDEST PUSH2 0x47 PUSH1 0x4 DUP1 CALLDATASIZE SUB DUP2 ADD SWAP1 PUSH2 0x42 SWAP2 SWAP1 PUSH2 0x16B JUMP JUMPDEST PUSH2 0x49 JUMP JUMPDEST STOP JUMPDEST DUP1 PUSH20 0xFFFFFFFFFFFFFFFFFFFFFFFFFFFFFFFFFFFFFFFF AND PUSH4 0xE90E2FED PUSH1 0x40 MLOAD DUP2 PUSH4 0xFFFFFFFF AND PUSH1 0xE0 SHL DUP2 MSTORE PUSH1 0x4 ADD PUSH0 PUSH1 0x40 MLOAD DUP1 DUP4 SUB DUP2 PUSH0 DUP8 DUP1 EXTCODESIZE ISZERO DUP1 ISZERO PUSH2 0x8E JUMPI PUSH0 DUP1 REVERT JUMPDEST POP GAS CALL ISZERO DUP1 ISZERO PUSH2 0xA0 JUMPI RETURNDATASIZE PUSH0 DUP1 RETURNDATACOPY RETURNDATASIZE PUSH0 REVERT JUMPDEST POP POP POP POP DUP1 PUSH20 0xFFFFFFFFFFFFFFFFFFFFFFFFFFFFFFFFFFFFFFFF AND PUSH4 0xA2B40D19 PUSH0 PUSH1 0x40 MLOAD DUP3 PUSH4 0xFFFFFFFF AND PUSH1 0xE0 SHL DUP2 MSTORE PUSH1 0x4 ADD PUSH2 0xDD SWAP2 SWAP1 PUSH2 0x1E1 JUMP JUMPDEST PUSH0 PUSH1 0x40 MLOAD DUP1 DUP4 SUB DUP2 PUSH0 DUP8 DUP1 EXTCODESIZE ISZERO DUP1 ISZERO PUSH2 0xF4 JUMPI PUSH0 DUP1 REVERT JUMPDEST POP GAS CALL ISZERO DUP1 ISZERO PUSH2 0x106 JUMPI RETURNDATASIZE PUSH0 DUP1 RETURNDATACOPY RETURNDATASIZE PUSH0 REVERT JUMPDEST POP POP POP POP POP JUMP JUMPDEST PUSH0 DUP1 REVERT JUMPDEST PUSH0 PUSH20 0xFFFFFFFFFFFFFFFFFFFFFFFFFFFFFFFFFFFFFFFF DUP3 AND SWAP1 POP SWAP2 SWAP1 POP JUMP JUMPDEST PUSH0 PUSH2 0x13A DUP3 PUSH2 0x111 JUMP JUMPDEST SWAP1 POP SWAP2 SWAP1 POP JUMP JUMPDEST PUSH2 0x14A DUP2 PUSH2 0x130 JUMP JUMPDEST DUP2 EQ PUSH2 0x154 JUMPI PUSH0 DUP1 REVERT JUMPDEST POP JUMP JUMPDEST PUSH0 DUP2 CALLDATALOAD SWAP1 POP PUSH2 0x165 DUP2 PUSH2 0x141 JUMP JUMPDEST SWAP3 SWAP2 POP POP JUMP JUMPDEST PUSH0 PUSH1 0x20 DUP3 DUP5 SUB SLT ISZERO PUSH2 0x180 JUMPI PUSH2 0x17F PUSH2 0x10D JUMP JUMPDEST JUMPDEST PUSH0 PUSH2 0x18D DUP5 DUP3 DUP6 ADD PUSH2 0x157 JUMP JUMPDEST SWAP2 POP POP SWAP3 SWAP2 POP POP JUMP JUMPDEST PUSH0 DUP2 SWAP1 POP SWAP2 SWAP1 POP JUMP JUMPDEST PUSH0 DUP2 SWAP1 POP SWAP2 SWAP1 POP JUMP JUMPDEST PUSH0 DUP2 SWAP1 POP SWAP2 SWAP1 POP JUMP JUMPDEST PUSH0 PUSH2 0x1CB PUSH2 0x1C6 PUSH2 0x1C1 DUP5 PUSH2 0x196 JUMP JUMPDEST PUSH2 0x1A8 JUMP JUMPDEST PUSH2 0x19F JUMP JUMPDEST SWAP1 POP SWAP2 SWAP1 POP JUMP JUMPDEST PUSH2 0x1DB DUP2 PUSH2 0x1B1 JUMP JUMPDEST DUP3 MSTORE POP POP JUMP JUMPDEST PUSH0 PUSH1 0x20 DUP3 ADD SWAP1 POP PUSH2 0x1F4 PUSH0 DUP4 ADD DUP5 PUSH2 0x1D2 JUMP JUMPDEST SWAP3 SWAP2 POP POP JUMP INVALID LOG2 PUSH5 0x6970667358 0x22 SLT KECCAK256 PUSH16 0x4EADAFDFBDC726329978C8B26DFB6016 PUSH26 0x2DE9E569C34B89ACB9FFED0D75A964736F6C6343000815003360 DUP1 PUSH1 0x40 MSTORE CALLVALUE DUP1 ISZERO PUSH2 0xF JUMPI PUSH0 DUP1 REVERT JUMPDEST POP PUSH2 0x1C1 DUP1 PUSH2 0x1D PUSH0 CODECOPY PUSH0 RETURN INVALID PUSH1 0x80 PUSH1 0x40 MSTORE CALLVALUE DUP1 ISZERO PUSH2 0xF JUMPI PUSH0 DUP1 REVERT JUMPDEST POP PUSH1 0x4 CALLDATASIZE LT PUSH2 0x29 JUMPI PUSH0 CALLDATALOAD PUSH1 0xE0 SHR DUP1 PUSH4 0xDBF16873 EQ PUSH2 0x2D JUMPI JUMPDEST PUSH0 DUP1 REVERT JUMPDEST PUSH2 0x47 PUSH1 0x4 DUP1 CALLDATASIZE SUB DUP2 ADD SWAP1 PUSH2 0x42 SWAP2 SWAP1 PUSH2 0x160 JUMP JUMPDEST PUSH2 0x49 JUMP JUMPDEST STOP JUMPDEST DUP1 PUSH20 0xFFFFFFFFFFFFFFFFFFFFFFFFFFFFFFFFFFFFFFFF AND PUSH4 0xA6F2AE3A PUSH1 0x40 MLOAD DUP2 PUSH4 0xFFFFFFFF AND PUSH1 0xE0 SHL DUP2 MSTORE PUSH1 0x4 ADD PUSH0 PUSH1 0x40 MLOAD DUP1 DUP4 SUB DUP2 PUSH0 DUP8 DUP1 EXTCODESIZE ISZERO DUP1 ISZERO PUSH2 0x8E JUMPI PUSH0 DUP1 REVERT JUMPDEST POP GAS CALL ISZERO DUP1 ISZERO PUSH2 0xA0 JUMPI RETURNDATASIZE PUSH0 DUP1 RETURNDATACOPY RETURNDATASIZE PUSH0 REVERT JUMPDEST POP POP POP POP DUP1 PUSH20 0xFFFFFFFFFFFFFFFFFFFFFFFFFFFFFFFFFFFFFFFF AND PUSH4 0xFA391C64 PUSH1 0x40 MLOAD DUP2 PUSH4 0xFFFFFFFF AND PUSH1 0xE0 SHL DUP2 MSTORE PUSH1 0x4 ADD PUSH0 PUSH1 0x40 MLOAD DUP1 DUP4 SUB DUP2 PUSH0 DUP8 DUP1 EXTCODESIZE ISZERO DUP1 ISZERO PUSH2 0xE9 JUMPI PUSH0 DUP1 REVERT JUMPDEST POP GAS CALL ISZERO DUP1 ISZERO PUSH2 0xFB JUMPI RETURNDATASIZE PUSH0 DUP1 RETURNDATACOPY RETURNDATASIZE PUSH0 REVERT JUMPDEST POP POP POP POP POP JUMP JUMPDEST PUSH0 DUP1 REVERT JUMPDEST PUSH0 PUSH20 0xFFFFFFFFFFFFFFFFFFFFFFFFFFFFFFFFFFFFFFFF DUP3 AND SWAP1 POP SWAP2 SWAP1 POP JUMP JUMPDEST PUSH0 PUSH2 0x12F DUP3 PUSH2 0x106 JUMP JUMPDEST SWAP1 POP SWAP2 SWAP1 POP JUMP JUMPDEST PUSH2 0x13F DUP2 PUSH2 0x125 JUMP JUMPDEST DUP2 EQ PUSH2 0x149 JUMPI PUSH0 DUP1 REVERT JUMPDEST POP JUMP JUMPDEST PUSH0 DUP2 CALLDATALOAD SWAP1 POP PUSH2 0x15A DUP2 PUSH2 0x136 JUMP JUMPDEST SWAP3 SWAP2 POP POP JUMP JUMPDEST PUSH0 PUSH1 0x20 DUP3 DUP5 SUB SLT ISZERO PUSH2 0x175 JUMPI PUSH2 0x174 PUSH2 0x102 JUMP JUMPDEST JUMPDEST PUSH0 PUSH2 0x182 DUP5 DUP3 DUP6 ADD PUSH2 0x14C JUMP JUMPDEST SWAP2 POP POP SWAP3 SWAP2 POP POP JUMP INVALID LOG2 PUSH5 0x6970667358 0x22 SLT KECCAK256 0xBA NOT ISZERO DUP8 PUSH11 0x8AF20B83140B8362D01B12 RETURN LT EQ 0xF LOG4 SWAP10 0xEE PUSH9 0xBD9BA9A841E177E864 PUSH20 0x6F6C63430008150033A2646970667358221220DA SUB EXTCODEHASH MLOAD MSTORE 0xDF EXTCODECOPY SWAP13 PUSH9 0x12B3EA61C9D05D3484 0xE8 0xC7 CODECOPY ISZERO 0x2B RETURNDATACOPY 0xB4 0x4E JUMPI 0x4D CALLDATACOPY PUSH32 0x4D1F64736F6C6343000815003300000000000000000000000000000000000000 "
				},
				"gasEstimates": {
					"creation": {
						"codeDepositCost": "525000",
						"executionCost": "560",
						"totalCost": "525560"
					},
					"external": {
						"attractcontractAddress()": "2575",
						"exchangeSellerAddress()": "2505",
						"exchangeSellerBytesHash()": "760",
						"get(address,bytes32,bytes32)": "infinite",
						"getAttractcontractAddress(bytes32)": "infinite",
						"getAttractcontractbytecodeHash()": "712",
						"getExchangeSeller(bytes32)": "infinite",
						"getad(bytes32)": "712"
					}
				},
				"methodIdentifiers": {
					"attractcontractAddress()": "81ee9455",
					"exchangeSellerAddress()": "8854746f",
					"exchangeSellerBytesHash()": "b90365a7",
					"get(address,bytes32,bytes32)": "9b0359d8",
					"getAttractcontractAddress(bytes32)": "2330c780",
					"getAttractcontractbytecodeHash()": "5c7b4114",
					"getExchangeSeller(bytes32)": "224863f0",
					"getad(bytes32)": "d8acfdb3"
				}
			},
			"storageLayout": {
				"storage": [
					{
						"astId": 193,
						"contract": "shoot/摸底1/3/1.sol:getaddress",
						"label": "exchangeSellerAddress",
						"offset": 0,
						"slot": "0",
						"type": "t_address"
					},
					{
						"astId": 195,
						"contract": "shoot/摸底1/3/1.sol:getaddress",
						"label": "attractcontractAddress",
						"offset": 0,
						"slot": "1",
						"type": "t_address"
					}
				],
				"types": {
					"t_address": {
						"encoding": "inplace",
						"label": "address",
						"numberOfBytes": "20"
					}
				}
			},
			"userdoc": {
				"kind": "user",
				"methods": {},
				"version": 1
			}
		}
	}
}