{
	"shoot/摸底3/1/1.sol": {
		"attract": {
			"abi": [
				{
					"inputs": [
						{
							"internalType": "address",
							"name": "addr",
							"type": "address"
						}
					],
					"stateMutability": "nonpayable",
					"type": "constructor"
				},
				{
					"inputs": [],
					"name": "att1",
					"outputs": [],
					"stateMutability": "nonpayable",
					"type": "function"
				},
				{
					"inputs": [],
					"name": "att2",
					"outputs": [],
					"stateMutability": "nonpayable",
					"type": "function"
				},
				{
					"inputs": [],
					"name": "att3",
					"outputs": [],
					"stateMutability": "nonpayable",
					"type": "function"
				},
				{
					"inputs": [],
					"name": "timestamp",
					"outputs": [
						{
							"internalType": "uint256",
							"name": "a",
							"type": "uint256"
						}
					],
					"stateMutability": "nonpayable",
					"type": "function"
				}
			],
			"devdoc": {
				"kind": "dev",
				"methods": {},
				"version": 1
			},
			"evm": {
				"assembly": "    /* \"shoot/\\xe6\\x91\\xb8\\xe5\\xba\\x953/1/1.sol\":4021:4565  contract attract{... */\n  mstore(0x40, 0x80)\n    /* \"shoot/\\xe6\\x91\\xb8\\xe5\\xba\\x953/1/1.sol\":4073:4141  constructor(address addr)public {... */\n  callvalue\n  dup1\n  iszero\n  tag_1\n  jumpi\n  0x00\n  dup1\n  revert\ntag_1:\n  pop\n  mload(0x40)\n  sub(codesize, bytecodeSize)\n  dup1\n  bytecodeSize\n  dup4\n  codecopy\n  dup2\n  dup2\n  add\n  0x40\n  mstore\n  dup2\n  add\n  swap1\n  tag_2\n  swap2\n  swap1\n  tag_3\n  jump\t// in\ntag_2:\n    /* \"shoot/\\xe6\\x91\\xb8\\xe5\\xba\\x953/1/1.sol\":4128:4132  addr */\n  dup1\n    /* \"shoot/\\xe6\\x91\\xb8\\xe5\\xba\\x953/1/1.sol\":4116:4119  che */\n  0x00\n  dup1\n    /* \"shoot/\\xe6\\x91\\xb8\\xe5\\xba\\x953/1/1.sol\":4116:4133  che = check(addr) */\n  0x0100\n  exp\n  dup2\n  sload\n  dup2\n  0xffffffffffffffffffffffffffffffffffffffff\n  mul\n  not\n  and\n  swap1\n  dup4\n  0xffffffffffffffffffffffffffffffffffffffff\n  and\n  mul\n  or\n  swap1\n  sstore\n  pop\n    /* \"shoot/\\xe6\\x91\\xb8\\xe5\\xba\\x953/1/1.sol\":4073:4141  constructor(address addr)public {... */\n  pop\n    /* \"shoot/\\xe6\\x91\\xb8\\xe5\\xba\\x953/1/1.sol\":4021:4565  contract attract{... */\n  jump(tag_6)\n    /* \"#utility.yul\":88:205   */\ntag_8:\n    /* \"#utility.yul\":197:198   */\n  0x00\n    /* \"#utility.yul\":194:195   */\n  dup1\n    /* \"#utility.yul\":187:199   */\n  revert\n    /* \"#utility.yul\":334:460   */\ntag_10:\n    /* \"#utility.yul\":371:378   */\n  0x00\n    /* \"#utility.yul\":411:453   */\n  0xffffffffffffffffffffffffffffffffffffffff\n    /* \"#utility.yul\":404:409   */\n  dup3\n    /* \"#utility.yul\":400:454   */\n  and\n    /* \"#utility.yul\":389:454   */\n  swap1\n  pop\n    /* \"#utility.yul\":334:460   */\n  swap2\n  swap1\n  pop\n  jump\t// out\n    /* \"#utility.yul\":466:562   */\ntag_11:\n    /* \"#utility.yul\":503:510   */\n  0x00\n    /* \"#utility.yul\":532:556   */\n  tag_20\n    /* \"#utility.yul\":550:555   */\n  dup3\n    /* \"#utility.yul\":532:556   */\n  tag_10\n  jump\t// in\ntag_20:\n    /* \"#utility.yul\":521:556   */\n  swap1\n  pop\n    /* \"#utility.yul\":466:562   */\n  swap2\n  swap1\n  pop\n  jump\t// out\n    /* \"#utility.yul\":568:690   */\ntag_12:\n    /* \"#utility.yul\":641:665   */\n  tag_22\n    /* \"#utility.yul\":659:664   */\n  dup2\n    /* \"#utility.yul\":641:665   */\n  tag_11\n  jump\t// in\ntag_22:\n    /* \"#utility.yul\":634:639   */\n  dup2\n    /* \"#utility.yul\":631:666   */\n  eq\n    /* \"#utility.yul\":621:684   */\n  tag_23\n  jumpi\n    /* \"#utility.yul\":680:681   */\n  0x00\n    /* \"#utility.yul\":677:678   */\n  dup1\n    /* \"#utility.yul\":670:682   */\n  revert\n    /* \"#utility.yul\":621:684   */\ntag_23:\n    /* \"#utility.yul\":568:690   */\n  pop\n  jump\t// out\n    /* \"#utility.yul\":696:839   */\ntag_13:\n    /* \"#utility.yul\":753:758   */\n  0x00\n    /* \"#utility.yul\":784:790   */\n  dup2\n    /* \"#utility.yul\":778:791   */\n  mload\n    /* \"#utility.yul\":769:791   */\n  swap1\n  pop\n    /* \"#utility.yul\":800:833   */\n  tag_25\n    /* \"#utility.yul\":827:832   */\n  dup2\n    /* \"#utility.yul\":800:833   */\n  tag_12\n  jump\t// in\ntag_25:\n    /* \"#utility.yul\":696:839   */\n  swap3\n  swap2\n  pop\n  pop\n  jump\t// out\n    /* \"#utility.yul\":845:1196   */\ntag_3:\n    /* \"#utility.yul\":915:921   */\n  0x00\n    /* \"#utility.yul\":964:966   */\n  0x20\n    /* \"#utility.yul\":952:961   */\n  dup3\n    /* \"#utility.yul\":943:950   */\n  dup5\n    /* \"#utility.yul\":939:962   */\n  sub\n    /* \"#utility.yul\":935:967   */\n  slt\n    /* \"#utility.yul\":932:1051   */\n  iszero\n  tag_27\n  jumpi\n    /* \"#utility.yul\":970:1049   */\n  tag_28\n  tag_8\n  jump\t// in\ntag_28:\n    /* \"#utility.yul\":932:1051   */\ntag_27:\n    /* \"#utility.yul\":1090:1091   */\n  0x00\n    /* \"#utility.yul\":1115:1179   */\n  tag_29\n    /* \"#utility.yul\":1171:1178   */\n  dup5\n    /* \"#utility.yul\":1162:1168   */\n  dup3\n    /* \"#utility.yul\":1151:1160   */\n  dup6\n    /* \"#utility.yul\":1147:1169   */\n  add\n    /* \"#utility.yul\":1115:1179   */\n  tag_13\n  jump\t// in\ntag_29:\n    /* \"#utility.yul\":1105:1179   */\n  swap2\n  pop\n    /* \"#utility.yul\":1061:1189   */\n  pop\n    /* \"#utility.yul\":845:1196   */\n  swap3\n  swap2\n  pop\n  pop\n  jump\t// out\n    /* \"shoot/\\xe6\\x91\\xb8\\xe5\\xba\\x953/1/1.sol\":4021:4565  contract attract{... */\ntag_6:\n  dataSize(sub_0)\n  dup1\n  dataOffset(sub_0)\n  0x00\n  codecopy\n  0x00\n  return\nstop\n\nsub_0: assembly {\n        /* \"shoot/\\xe6\\x91\\xb8\\xe5\\xba\\x953/1/1.sol\":4021:4565  contract attract{... */\n      mstore(0x40, 0x80)\n      callvalue\n      dup1\n      iszero\n      tag_1\n      jumpi\n      0x00\n      dup1\n      revert\n    tag_1:\n      pop\n      jumpi(tag_2, lt(calldatasize, 0x04))\n      shr(0xe0, calldataload(0x00))\n      dup1\n      0x10b45e21\n      eq\n      tag_3\n      jumpi\n      dup1\n      0x38a39681\n      eq\n      tag_4\n      jumpi\n      dup1\n      0x68b8d10e\n      eq\n      tag_5\n      jumpi\n      dup1\n      0xb80777ea\n      eq\n      tag_6\n      jumpi\n    tag_2:\n      0x00\n      dup1\n      revert\n        /* \"shoot/\\xe6\\x91\\xb8\\xe5\\xba\\x953/1/1.sol\":4480:4562  function att3() public {... */\n    tag_3:\n      tag_7\n      tag_8\n      jump\t// in\n    tag_7:\n      stop\n        /* \"shoot/\\xe6\\x91\\xb8\\xe5\\xba\\x953/1/1.sol\":4420:4474  function att2() public {... */\n    tag_4:\n      tag_9\n      tag_10\n      jump\t// in\n    tag_9:\n      stop\n        /* \"shoot/\\xe6\\x91\\xb8\\xe5\\xba\\x953/1/1.sol\":4332:4414  function att1() public {... */\n    tag_5:\n      tag_11\n      tag_12\n      jump\t// in\n    tag_11:\n      stop\n        /* \"shoot/\\xe6\\x91\\xb8\\xe5\\xba\\x953/1/1.sol\":4147:4326  function timestamp()external returns(uint256 a){... */\n    tag_6:\n      tag_13\n      tag_14\n      jump\t// in\n    tag_13:\n      mload(0x40)\n      tag_15\n      swap2\n      swap1\n      tag_16\n      jump\t// in\n    tag_15:\n      mload(0x40)\n      dup1\n      swap2\n      sub\n      swap1\n      return\n        /* \"shoot/\\xe6\\x91\\xb8\\xe5\\xba\\x953/1/1.sol\":4480:4562  function att3() public {... */\n    tag_8:\n        /* \"shoot/\\xe6\\x91\\xb8\\xe5\\xba\\x953/1/1.sol\":4514:4517  che */\n      0x00\n      dup1\n      sload\n      swap1\n      0x0100\n      exp\n      swap1\n      div\n      0xffffffffffffffffffffffffffffffffffffffff\n      and\n        /* \"shoot/\\xe6\\x91\\xb8\\xe5\\xba\\x953/1/1.sol\":4514:4522  che.work */\n      0xffffffffffffffffffffffffffffffffffffffff\n      and\n      0x5858d161\n        /* \"shoot/\\xe6\\x91\\xb8\\xe5\\xba\\x953/1/1.sol\":4523:4525  22 */\n      0x16\n        /* \"shoot/\\xe6\\x91\\xb8\\xe5\\xba\\x953/1/1.sol\":4514:4526  che.work(22) */\n      mload(0x40)\n      dup3\n      0xffffffff\n      and\n      0xe0\n      shl\n      dup2\n      mstore\n      0x04\n      add\n      tag_18\n      swap2\n      swap1\n      tag_19\n      jump\t// in\n    tag_18:\n      0x00\n      mload(0x40)\n      dup1\n      dup4\n      sub\n      dup2\n      0x00\n      dup8\n      dup1\n      extcodesize\n      iszero\n      dup1\n      iszero\n      tag_20\n      jumpi\n      0x00\n      dup1\n      revert\n    tag_20:\n      pop\n      gas\n      call\n      iszero\n      dup1\n      iszero\n      tag_22\n      jumpi\n      returndatasize\n      0x00\n      dup1\n      returndatacopy\n      revert(0x00, returndatasize)\n    tag_22:\n      pop\n      pop\n      pop\n      pop\n        /* \"shoot/\\xe6\\x91\\xb8\\xe5\\xba\\x953/1/1.sol\":4537:4540  che */\n      0x00\n      dup1\n      sload\n      swap1\n      0x0100\n      exp\n      swap1\n      div\n      0xffffffffffffffffffffffffffffffffffffffff\n      and\n        /* \"shoot/\\xe6\\x91\\xb8\\xe5\\xba\\x953/1/1.sol\":4537:4552  che.isCompleted */\n      0xffffffffffffffffffffffffffffffffffffffff\n      and\n      0xfa391c64\n        /* \"shoot/\\xe6\\x91\\xb8\\xe5\\xba\\x953/1/1.sol\":4537:4554  che.isCompleted() */\n      mload(0x40)\n      dup2\n      0xffffffff\n      and\n      0xe0\n      shl\n      dup2\n      mstore\n      0x04\n      add\n      0x00\n      mload(0x40)\n      dup1\n      dup4\n      sub\n      dup2\n      0x00\n      dup8\n      dup1\n      extcodesize\n      iszero\n      dup1\n      iszero\n      tag_23\n      jumpi\n      0x00\n      dup1\n      revert\n    tag_23:\n      pop\n      gas\n      call\n      iszero\n      dup1\n      iszero\n      tag_25\n      jumpi\n      returndatasize\n      0x00\n      dup1\n      returndatacopy\n      revert(0x00, returndatasize)\n    tag_25:\n      pop\n      pop\n      pop\n      pop\n        /* \"shoot/\\xe6\\x91\\xb8\\xe5\\xba\\x953/1/1.sol\":4480:4562  function att3() public {... */\n      jump\t// out\n        /* \"shoot/\\xe6\\x91\\xb8\\xe5\\xba\\x953/1/1.sol\":4420:4474  function att2() public {... */\n    tag_10:\n        /* \"shoot/\\xe6\\x91\\xb8\\xe5\\xba\\x953/1/1.sol\":4454:4457  che */\n      0x00\n      dup1\n      sload\n      swap1\n      0x0100\n      exp\n      swap1\n      div\n      0xffffffffffffffffffffffffffffffffffffffff\n      and\n        /* \"shoot/\\xe6\\x91\\xb8\\xe5\\xba\\x953/1/1.sol\":4454:4464  che.finish */\n      0xffffffffffffffffffffffffffffffffffffffff\n      and\n      0xd56b2889\n        /* \"shoot/\\xe6\\x91\\xb8\\xe5\\xba\\x953/1/1.sol\":4454:4466  che.finish() */\n      mload(0x40)\n      dup2\n      0xffffffff\n      and\n      0xe0\n      shl\n      dup2\n      mstore\n      0x04\n      add\n      0x00\n      mload(0x40)\n      dup1\n      dup4\n      sub\n      dup2\n      0x00\n      dup8\n      dup1\n      extcodesize\n      iszero\n      dup1\n      iszero\n      tag_27\n      jumpi\n      0x00\n      dup1\n      revert\n    tag_27:\n      pop\n      gas\n      call\n      iszero\n      dup1\n      iszero\n      tag_29\n      jumpi\n      returndatasize\n      0x00\n      dup1\n      returndatacopy\n      revert(0x00, returndatasize)\n    tag_29:\n      pop\n      pop\n      pop\n      pop\n        /* \"shoot/\\xe6\\x91\\xb8\\xe5\\xba\\x953/1/1.sol\":4420:4474  function att2() public {... */\n      jump\t// out\n        /* \"shoot/\\xe6\\x91\\xb8\\xe5\\xba\\x953/1/1.sol\":4332:4414  function att1() public {... */\n    tag_12:\n        /* \"shoot/\\xe6\\x91\\xb8\\xe5\\xba\\x953/1/1.sol\":4366:4369  che */\n      0x00\n      dup1\n      sload\n      swap1\n      0x0100\n      exp\n      swap1\n      div\n      0xffffffffffffffffffffffffffffffffffffffff\n      and\n        /* \"shoot/\\xe6\\x91\\xb8\\xe5\\xba\\x953/1/1.sol\":4366:4374  che.work */\n      0xffffffffffffffffffffffffffffffffffffffff\n      and\n      0x5858d161\n        /* \"shoot/\\xe6\\x91\\xb8\\xe5\\xba\\x953/1/1.sol\":4375:4377  51 */\n      0x33\n        /* \"shoot/\\xe6\\x91\\xb8\\xe5\\xba\\x953/1/1.sol\":4366:4378  che.work(51) */\n      mload(0x40)\n      dup3\n      0xffffffff\n      and\n      0xe0\n      shl\n      dup2\n      mstore\n      0x04\n      add\n      tag_31\n      swap2\n      swap1\n      tag_32\n      jump\t// in\n    tag_31:\n      0x00\n      mload(0x40)\n      dup1\n      dup4\n      sub\n      dup2\n      0x00\n      dup8\n      dup1\n      extcodesize\n      iszero\n      dup1\n      iszero\n      tag_33\n      jumpi\n      0x00\n      dup1\n      revert\n    tag_33:\n      pop\n      gas\n      call\n      iszero\n      dup1\n      iszero\n      tag_35\n      jumpi\n      returndatasize\n      0x00\n      dup1\n      returndatacopy\n      revert(0x00, returndatasize)\n    tag_35:\n      pop\n      pop\n      pop\n      pop\n        /* \"shoot/\\xe6\\x91\\xb8\\xe5\\xba\\x953/1/1.sol\":4389:4392  che */\n      0x00\n      dup1\n      sload\n      swap1\n      0x0100\n      exp\n      swap1\n      div\n      0xffffffffffffffffffffffffffffffffffffffff\n      and\n        /* \"shoot/\\xe6\\x91\\xb8\\xe5\\xba\\x953/1/1.sol\":4389:4404  che.updateStart */\n      0xffffffffffffffffffffffffffffffffffffffff\n      and\n      0xe320bee5\n        /* \"shoot/\\xe6\\x91\\xb8\\xe5\\xba\\x953/1/1.sol\":4389:4406  che.updateStart() */\n      mload(0x40)\n      dup2\n      0xffffffff\n      and\n      0xe0\n      shl\n      dup2\n      mstore\n      0x04\n      add\n      0x00\n      mload(0x40)\n      dup1\n      dup4\n      sub\n      dup2\n      0x00\n      dup8\n      dup1\n      extcodesize\n      iszero\n      dup1\n      iszero\n      tag_36\n      jumpi\n      0x00\n      dup1\n      revert\n    tag_36:\n      pop\n      gas\n      call\n      iszero\n      dup1\n      iszero\n      tag_38\n      jumpi\n      returndatasize\n      0x00\n      dup1\n      returndatacopy\n      revert(0x00, returndatasize)\n    tag_38:\n      pop\n      pop\n      pop\n      pop\n        /* \"shoot/\\xe6\\x91\\xb8\\xe5\\xba\\x953/1/1.sol\":4332:4414  function att1() public {... */\n      jump\t// out\n        /* \"shoot/\\xe6\\x91\\xb8\\xe5\\xba\\x953/1/1.sol\":4147:4326  function timestamp()external returns(uint256 a){... */\n    tag_14:\n        /* \"shoot/\\xe6\\x91\\xb8\\xe5\\xba\\x953/1/1.sol\":4184:4193  uint256 a */\n      0x00\n        /* \"shoot/\\xe6\\x91\\xb8\\xe5\\xba\\x953/1/1.sol\":4209:4210  b */\n      dup1\n      0x14\n      swap1\n      sload\n      swap1\n      0x0100\n      exp\n      swap1\n      div\n      0xff\n      and\n        /* \"shoot/\\xe6\\x91\\xb8\\xe5\\xba\\x953/1/1.sol\":4205:4319  if(!b){... */\n      tag_40\n      jumpi\n        /* \"shoot/\\xe6\\x91\\xb8\\xe5\\xba\\x953/1/1.sol\":4245:4248  100 */\n      0x64\n        /* \"shoot/\\xe6\\x91\\xb8\\xe5\\xba\\x953/1/1.sol\":4230:4242  block.number */\n      number\n        /* \"shoot/\\xe6\\x91\\xb8\\xe5\\xba\\x953/1/1.sol\":4230:4248  block.number + 100 */\n      tag_41\n      swap2\n      swap1\n      tag_42\n      jump\t// in\n    tag_41:\n        /* \"shoot/\\xe6\\x91\\xb8\\xe5\\xba\\x953/1/1.sol\":4226:4248  a = block.number + 100 */\n      swap1\n      pop\n        /* \"shoot/\\xe6\\x91\\xb8\\xe5\\xba\\x953/1/1.sol\":4267:4271  true */\n      0x01\n        /* \"shoot/\\xe6\\x91\\xb8\\xe5\\xba\\x953/1/1.sol\":4263:4264  b */\n      0x00\n      0x14\n        /* \"shoot/\\xe6\\x91\\xb8\\xe5\\xba\\x953/1/1.sol\":4263:4271  b = true */\n      0x0100\n      exp\n      dup2\n      sload\n      dup2\n      0xff\n      mul\n      not\n      and\n      swap1\n      dup4\n      iszero\n      iszero\n      mul\n      or\n      swap1\n      sstore\n      pop\n        /* \"shoot/\\xe6\\x91\\xb8\\xe5\\xba\\x953/1/1.sol\":4205:4319  if(!b){... */\n      jump(tag_43)\n    tag_40:\n        /* \"shoot/\\xe6\\x91\\xb8\\xe5\\xba\\x953/1/1.sol\":4306:4307  0 */\n      0x00\n        /* \"shoot/\\xe6\\x91\\xb8\\xe5\\xba\\x953/1/1.sol\":4302:4307  a = 0 */\n      swap1\n      pop\n        /* \"shoot/\\xe6\\x91\\xb8\\xe5\\xba\\x953/1/1.sol\":4205:4319  if(!b){... */\n    tag_43:\n        /* \"shoot/\\xe6\\x91\\xb8\\xe5\\xba\\x953/1/1.sol\":4147:4326  function timestamp()external returns(uint256 a){... */\n      swap1\n      jump\t// out\n        /* \"#utility.yul\":7:84   */\n    tag_44:\n        /* \"#utility.yul\":44:51   */\n      0x00\n        /* \"#utility.yul\":73:78   */\n      dup2\n        /* \"#utility.yul\":62:78   */\n      swap1\n      pop\n        /* \"#utility.yul\":7:84   */\n      swap2\n      swap1\n      pop\n      jump\t// out\n        /* \"#utility.yul\":90:208   */\n    tag_45:\n        /* \"#utility.yul\":177:201   */\n      tag_57\n        /* \"#utility.yul\":195:200   */\n      dup2\n        /* \"#utility.yul\":177:201   */\n      tag_44\n      jump\t// in\n    tag_57:\n        /* \"#utility.yul\":172:175   */\n      dup3\n        /* \"#utility.yul\":165:202   */\n      mstore\n        /* \"#utility.yul\":90:208   */\n      pop\n      pop\n      jump\t// out\n        /* \"#utility.yul\":214:436   */\n    tag_16:\n        /* \"#utility.yul\":307:311   */\n      0x00\n        /* \"#utility.yul\":345:347   */\n      0x20\n        /* \"#utility.yul\":334:343   */\n      dup3\n        /* \"#utility.yul\":330:348   */\n      add\n        /* \"#utility.yul\":322:348   */\n      swap1\n      pop\n        /* \"#utility.yul\":358:429   */\n      tag_59\n        /* \"#utility.yul\":426:427   */\n      0x00\n        /* \"#utility.yul\":415:424   */\n      dup4\n        /* \"#utility.yul\":411:428   */\n      add\n        /* \"#utility.yul\":402:408   */\n      dup5\n        /* \"#utility.yul\":358:429   */\n      tag_45\n      jump\t// in\n    tag_59:\n        /* \"#utility.yul\":214:436   */\n      swap3\n      swap2\n      pop\n      pop\n      jump\t// out\n        /* \"#utility.yul\":442:528   */\n    tag_46:\n        /* \"#utility.yul\":488:495   */\n      0x00\n        /* \"#utility.yul\":517:522   */\n      dup2\n        /* \"#utility.yul\":506:522   */\n      swap1\n      pop\n        /* \"#utility.yul\":442:528   */\n      swap2\n      swap1\n      pop\n      jump\t// out\n        /* \"#utility.yul\":534:594   */\n    tag_47:\n        /* \"#utility.yul\":562:565   */\n      0x00\n        /* \"#utility.yul\":583:588   */\n      dup2\n        /* \"#utility.yul\":576:588   */\n      swap1\n      pop\n        /* \"#utility.yul\":534:594   */\n      swap2\n      swap1\n      pop\n      jump\t// out\n        /* \"#utility.yul\":600:760   */\n    tag_48:\n        /* \"#utility.yul\":659:668   */\n      0x00\n        /* \"#utility.yul\":692:754   */\n      tag_63\n        /* \"#utility.yul\":710:753   */\n      tag_64\n        /* \"#utility.yul\":719:752   */\n      tag_65\n        /* \"#utility.yul\":746:751   */\n      dup5\n        /* \"#utility.yul\":719:752   */\n      tag_46\n      jump\t// in\n    tag_65:\n        /* \"#utility.yul\":710:753   */\n      tag_47\n      jump\t// in\n    tag_64:\n        /* \"#utility.yul\":692:754   */\n      tag_44\n      jump\t// in\n    tag_63:\n        /* \"#utility.yul\":679:754   */\n      swap1\n      pop\n        /* \"#utility.yul\":600:760   */\n      swap2\n      swap1\n      pop\n      jump\t// out\n        /* \"#utility.yul\":766:915   */\n    tag_49:\n        /* \"#utility.yul\":862:908   */\n      tag_67\n        /* \"#utility.yul\":902:907   */\n      dup2\n        /* \"#utility.yul\":862:908   */\n      tag_48\n      jump\t// in\n    tag_67:\n        /* \"#utility.yul\":857:860   */\n      dup3\n        /* \"#utility.yul\":850:909   */\n      mstore\n        /* \"#utility.yul\":766:915   */\n      pop\n      pop\n      jump\t// out\n        /* \"#utility.yul\":921:1161   */\n    tag_19:\n        /* \"#utility.yul\":1023:1027   */\n      0x00\n        /* \"#utility.yul\":1061:1063   */\n      0x20\n        /* \"#utility.yul\":1050:1059   */\n      dup3\n        /* \"#utility.yul\":1046:1064   */\n      add\n        /* \"#utility.yul\":1038:1064   */\n      swap1\n      pop\n        /* \"#utility.yul\":1074:1154   */\n      tag_69\n        /* \"#utility.yul\":1151:1152   */\n      0x00\n        /* \"#utility.yul\":1140:1149   */\n      dup4\n        /* \"#utility.yul\":1136:1153   */\n      add\n        /* \"#utility.yul\":1127:1133   */\n      dup5\n        /* \"#utility.yul\":1074:1154   */\n      tag_49\n      jump\t// in\n    tag_69:\n        /* \"#utility.yul\":921:1161   */\n      swap3\n      swap2\n      pop\n      pop\n      jump\t// out\n        /* \"#utility.yul\":1167:1253   */\n    tag_50:\n        /* \"#utility.yul\":1213:1220   */\n      0x00\n        /* \"#utility.yul\":1242:1247   */\n      dup2\n        /* \"#utility.yul\":1231:1247   */\n      swap1\n      pop\n        /* \"#utility.yul\":1167:1253   */\n      swap2\n      swap1\n      pop\n      jump\t// out\n        /* \"#utility.yul\":1259:1419   */\n    tag_51:\n        /* \"#utility.yul\":1318:1327   */\n      0x00\n        /* \"#utility.yul\":1351:1413   */\n      tag_72\n        /* \"#utility.yul\":1369:1412   */\n      tag_73\n        /* \"#utility.yul\":1378:1411   */\n      tag_74\n        /* \"#utility.yul\":1405:1410   */\n      dup5\n        /* \"#utility.yul\":1378:1411   */\n      tag_50\n      jump\t// in\n    tag_74:\n        /* \"#utility.yul\":1369:1412   */\n      tag_47\n      jump\t// in\n    tag_73:\n        /* \"#utility.yul\":1351:1413   */\n      tag_44\n      jump\t// in\n    tag_72:\n        /* \"#utility.yul\":1338:1413   */\n      swap1\n      pop\n        /* \"#utility.yul\":1259:1419   */\n      swap2\n      swap1\n      pop\n      jump\t// out\n        /* \"#utility.yul\":1425:1574   */\n    tag_52:\n        /* \"#utility.yul\":1521:1567   */\n      tag_76\n        /* \"#utility.yul\":1561:1566   */\n      dup2\n        /* \"#utility.yul\":1521:1567   */\n      tag_51\n      jump\t// in\n    tag_76:\n        /* \"#utility.yul\":1516:1519   */\n      dup3\n        /* \"#utility.yul\":1509:1568   */\n      mstore\n        /* \"#utility.yul\":1425:1574   */\n      pop\n      pop\n      jump\t// out\n        /* \"#utility.yul\":1580:1820   */\n    tag_32:\n        /* \"#utility.yul\":1682:1686   */\n      0x00\n        /* \"#utility.yul\":1720:1722   */\n      0x20\n        /* \"#utility.yul\":1709:1718   */\n      dup3\n        /* \"#utility.yul\":1705:1723   */\n      add\n        /* \"#utility.yul\":1697:1723   */\n      swap1\n      pop\n        /* \"#utility.yul\":1733:1813   */\n      tag_78\n        /* \"#utility.yul\":1810:1811   */\n      0x00\n        /* \"#utility.yul\":1799:1808   */\n      dup4\n        /* \"#utility.yul\":1795:1812   */\n      add\n        /* \"#utility.yul\":1786:1792   */\n      dup5\n        /* \"#utility.yul\":1733:1813   */\n      tag_52\n      jump\t// in\n    tag_78:\n        /* \"#utility.yul\":1580:1820   */\n      swap3\n      swap2\n      pop\n      pop\n      jump\t// out\n        /* \"#utility.yul\":1826:2006   */\n    tag_53:\n        /* \"#utility.yul\":1874:1951   */\n      0x4e487b7100000000000000000000000000000000000000000000000000000000\n        /* \"#utility.yul\":1871:1872   */\n      0x00\n        /* \"#utility.yul\":1864:1952   */\n      mstore\n        /* \"#utility.yul\":1971:1975   */\n      0x11\n        /* \"#utility.yul\":1968:1969   */\n      0x04\n        /* \"#utility.yul\":1961:1976   */\n      mstore\n        /* \"#utility.yul\":1995:1999   */\n      0x24\n        /* \"#utility.yul\":1992:1993   */\n      0x00\n        /* \"#utility.yul\":1985:2000   */\n      revert\n        /* \"#utility.yul\":2012:2203   */\n    tag_42:\n        /* \"#utility.yul\":2052:2055   */\n      0x00\n        /* \"#utility.yul\":2071:2091   */\n      tag_81\n        /* \"#utility.yul\":2089:2090   */\n      dup3\n        /* \"#utility.yul\":2071:2091   */\n      tag_44\n      jump\t// in\n    tag_81:\n        /* \"#utility.yul\":2066:2091   */\n      swap2\n      pop\n        /* \"#utility.yul\":2105:2125   */\n      tag_82\n        /* \"#utility.yul\":2123:2124   */\n      dup4\n        /* \"#utility.yul\":2105:2125   */\n      tag_44\n      jump\t// in\n    tag_82:\n        /* \"#utility.yul\":2100:2125   */\n      swap3\n      pop\n        /* \"#utility.yul\":2148:2149   */\n      dup3\n        /* \"#utility.yul\":2145:2146   */\n      dup3\n        /* \"#utility.yul\":2141:2150   */\n      add\n        /* \"#utility.yul\":2134:2150   */\n      swap1\n      pop\n        /* \"#utility.yul\":2169:2172   */\n      dup1\n        /* \"#utility.yul\":2166:2167   */\n      dup3\n        /* \"#utility.yul\":2163:2173   */\n      gt\n        /* \"#utility.yul\":2160:2196   */\n      iszero\n      tag_83\n      jumpi\n        /* \"#utility.yul\":2176:2194   */\n      tag_84\n      tag_53\n      jump\t// in\n    tag_84:\n        /* \"#utility.yul\":2160:2196   */\n    tag_83:\n        /* \"#utility.yul\":2012:2203   */\n      swap3\n      swap2\n      pop\n      pop\n      jump\t// out\n\n    auxdata: 0xa2646970667358221220c827d80650b6fd6c588244a3edc4c92dd324a38539dae66171a8c0bed993917e64736f6c63430008150033\n}\n",
				"bytecode": {
					"linkReferences": {},
					"object": "608060405234801561000f575f80fd5b506040516105d33803806105d3833981810160405281019061003191906100d4565b805f806101000a81548173ffffffffffffffffffffffffffffffffffffffff021916908373ffffffffffffffffffffffffffffffffffffffff160217905550506100ff565b5f80fd5b5f73ffffffffffffffffffffffffffffffffffffffff82169050919050565b5f6100a38261007a565b9050919050565b6100b381610099565b81146100bd575f80fd5b50565b5f815190506100ce816100aa565b92915050565b5f602082840312156100e9576100e8610076565b5b5f6100f6848285016100c0565b91505092915050565b6104c78061010c5f395ff3fe608060405234801561000f575f80fd5b506004361061004a575f3560e01c806310b45e211461004e57806338a396811461005857806368b8d10e14610062578063b80777ea1461006c575b5f80fd5b61005661008a565b005b61006061018c565b005b61006a610208565b005b61007461030a565b604051610081919061036b565b60405180910390f35b5f8054906101000a900473ffffffffffffffffffffffffffffffffffffffff1673ffffffffffffffffffffffffffffffffffffffff16635858d16160166040518263ffffffff1660e01b81526004016100e391906103c6565b5f604051808303815f87803b1580156100fa575f80fd5b505af115801561010c573d5f803e3d5ffd5b505050505f8054906101000a900473ffffffffffffffffffffffffffffffffffffffff1673ffffffffffffffffffffffffffffffffffffffff1663fa391c646040518163ffffffff1660e01b81526004015f604051808303815f87803b158015610174575f80fd5b505af1158015610186573d5f803e3d5ffd5b50505050565b5f8054906101000a900473ffffffffffffffffffffffffffffffffffffffff1673ffffffffffffffffffffffffffffffffffffffff1663d56b28896040518163ffffffff1660e01b81526004015f604051808303815f87803b1580156101f0575f80fd5b505af1158015610202573d5f803e3d5ffd5b50505050565b5f8054906101000a900473ffffffffffffffffffffffffffffffffffffffff1673ffffffffffffffffffffffffffffffffffffffff16635858d16160336040518263ffffffff1660e01b81526004016102619190610418565b5f604051808303815f87803b158015610278575f80fd5b505af115801561028a573d5f803e3d5ffd5b505050505f8054906101000a900473ffffffffffffffffffffffffffffffffffffffff1673ffffffffffffffffffffffffffffffffffffffff1663e320bee56040518163ffffffff1660e01b81526004015f604051808303815f87803b1580156102f2575f80fd5b505af1158015610304573d5f803e3d5ffd5b50505050565b5f8060149054906101000a900460ff1661034c5760644361032b919061045e565b905060015f60146101000a81548160ff021916908315150217905550610350565b5f90505b90565b5f819050919050565b61036581610353565b82525050565b5f60208201905061037e5f83018461035c565b92915050565b5f819050919050565b5f819050919050565b5f6103b06103ab6103a684610384565b61038d565b610353565b9050919050565b6103c081610396565b82525050565b5f6020820190506103d95f8301846103b7565b92915050565b5f819050919050565b5f6104026103fd6103f8846103df565b61038d565b610353565b9050919050565b610412816103e8565b82525050565b5f60208201905061042b5f830184610409565b92915050565b7f4e487b71000000000000000000000000000000000000000000000000000000005f52601160045260245ffd5b5f61046882610353565b915061047383610353565b925082820190508082111561048b5761048a610431565b5b9291505056fea2646970667358221220c827d80650b6fd6c588244a3edc4c92dd324a38539dae66171a8c0bed993917e64736f6c63430008150033",
					"opcodes": "PUSH1 0x80 PUSH1 0x40 MSTORE CALLVALUE DUP1 ISZERO PUSH2 0xF JUMPI PUSH0 DUP1 REVERT JUMPDEST POP PUSH1 0x40 MLOAD PUSH2 0x5D3 CODESIZE SUB DUP1 PUSH2 0x5D3 DUP4 CODECOPY DUP2 DUP2 ADD PUSH1 0x40 MSTORE DUP2 ADD SWAP1 PUSH2 0x31 SWAP2 SWAP1 PUSH2 0xD4 JUMP JUMPDEST DUP1 PUSH0 DUP1 PUSH2 0x100 EXP DUP2 SLOAD DUP2 PUSH20 0xFFFFFFFFFFFFFFFFFFFFFFFFFFFFFFFFFFFFFFFF MUL NOT AND SWAP1 DUP4 PUSH20 0xFFFFFFFFFFFFFFFFFFFFFFFFFFFFFFFFFFFFFFFF AND MUL OR SWAP1 SSTORE POP POP PUSH2 0xFF JUMP JUMPDEST PUSH0 DUP1 REVERT JUMPDEST PUSH0 PUSH20 0xFFFFFFFFFFFFFFFFFFFFFFFFFFFFFFFFFFFFFFFF DUP3 AND SWAP1 POP SWAP2 SWAP1 POP JUMP JUMPDEST PUSH0 PUSH2 0xA3 DUP3 PUSH2 0x7A JUMP JUMPDEST SWAP1 POP SWAP2 SWAP1 POP JUMP JUMPDEST PUSH2 0xB3 DUP2 PUSH2 0x99 JUMP JUMPDEST DUP2 EQ PUSH2 0xBD JUMPI PUSH0 DUP1 REVERT JUMPDEST POP JUMP JUMPDEST PUSH0 DUP2 MLOAD SWAP1 POP PUSH2 0xCE DUP2 PUSH2 0xAA JUMP JUMPDEST SWAP3 SWAP2 POP POP JUMP JUMPDEST PUSH0 PUSH1 0x20 DUP3 DUP5 SUB SLT ISZERO PUSH2 0xE9 JUMPI PUSH2 0xE8 PUSH2 0x76 JUMP JUMPDEST JUMPDEST PUSH0 PUSH2 0xF6 DUP5 DUP3 DUP6 ADD PUSH2 0xC0 JUMP JUMPDEST SWAP2 POP POP SWAP3 SWAP2 POP POP JUMP JUMPDEST PUSH2 0x4C7 DUP1 PUSH2 0x10C PUSH0 CODECOPY PUSH0 RETURN INVALID PUSH1 0x80 PUSH1 0x40 MSTORE CALLVALUE DUP1 ISZERO PUSH2 0xF JUMPI PUSH0 DUP1 REVERT JUMPDEST POP PUSH1 0x4 CALLDATASIZE LT PUSH2 0x4A JUMPI PUSH0 CALLDATALOAD PUSH1 0xE0 SHR DUP1 PUSH4 0x10B45E21 EQ PUSH2 0x4E JUMPI DUP1 PUSH4 0x38A39681 EQ PUSH2 0x58 JUMPI DUP1 PUSH4 0x68B8D10E EQ PUSH2 0x62 JUMPI DUP1 PUSH4 0xB80777EA EQ PUSH2 0x6C JUMPI JUMPDEST PUSH0 DUP1 REVERT JUMPDEST PUSH2 0x56 PUSH2 0x8A JUMP JUMPDEST STOP JUMPDEST PUSH2 0x60 PUSH2 0x18C JUMP JUMPDEST STOP JUMPDEST PUSH2 0x6A PUSH2 0x208 JUMP JUMPDEST STOP JUMPDEST PUSH2 0x74 PUSH2 0x30A JUMP JUMPDEST PUSH1 0x40 MLOAD PUSH2 0x81 SWAP2 SWAP1 PUSH2 0x36B JUMP JUMPDEST PUSH1 0x40 MLOAD DUP1 SWAP2 SUB SWAP1 RETURN JUMPDEST PUSH0 DUP1 SLOAD SWAP1 PUSH2 0x100 EXP SWAP1 DIV PUSH20 0xFFFFFFFFFFFFFFFFFFFFFFFFFFFFFFFFFFFFFFFF AND PUSH20 0xFFFFFFFFFFFFFFFFFFFFFFFFFFFFFFFFFFFFFFFF AND PUSH4 0x5858D161 PUSH1 0x16 PUSH1 0x40 MLOAD DUP3 PUSH4 0xFFFFFFFF AND PUSH1 0xE0 SHL DUP2 MSTORE PUSH1 0x4 ADD PUSH2 0xE3 SWAP2 SWAP1 PUSH2 0x3C6 JUMP JUMPDEST PUSH0 PUSH1 0x40 MLOAD DUP1 DUP4 SUB DUP2 PUSH0 DUP8 DUP1 EXTCODESIZE ISZERO DUP1 ISZERO PUSH2 0xFA JUMPI PUSH0 DUP1 REVERT JUMPDEST POP GAS CALL ISZERO DUP1 ISZERO PUSH2 0x10C JUMPI RETURNDATASIZE PUSH0 DUP1 RETURNDATACOPY RETURNDATASIZE PUSH0 REVERT JUMPDEST POP POP POP POP PUSH0 DUP1 SLOAD SWAP1 PUSH2 0x100 EXP SWAP1 DIV PUSH20 0xFFFFFFFFFFFFFFFFFFFFFFFFFFFFFFFFFFFFFFFF AND PUSH20 0xFFFFFFFFFFFFFFFFFFFFFFFFFFFFFFFFFFFFFFFF AND PUSH4 0xFA391C64 PUSH1 0x40 MLOAD DUP2 PUSH4 0xFFFFFFFF AND PUSH1 0xE0 SHL DUP2 MSTORE PUSH1 0x4 ADD PUSH0 PUSH1 0x40 MLOAD DUP1 DUP4 SUB DUP2 PUSH0 DUP8 DUP1 EXTCODESIZE ISZERO DUP1 ISZERO PUSH2 0x174 JUMPI PUSH0 DUP1 REVERT JUMPDEST POP GAS CALL ISZERO DUP1 ISZERO PUSH2 0x186 JUMPI RETURNDATASIZE PUSH0 DUP1 RETURNDATACOPY RETURNDATASIZE PUSH0 REVERT JUMPDEST POP POP POP POP JUMP JUMPDEST PUSH0 DUP1 SLOAD SWAP1 PUSH2 0x100 EXP SWAP1 DIV PUSH20 0xFFFFFFFFFFFFFFFFFFFFFFFFFFFFFFFFFFFFFFFF AND PUSH20 0xFFFFFFFFFFFFFFFFFFFFFFFFFFFFFFFFFFFFFFFF AND PUSH4 0xD56B2889 PUSH1 0x40 MLOAD DUP2 PUSH4 0xFFFFFFFF AND PUSH1 0xE0 SHL DUP2 MSTORE PUSH1 0x4 ADD PUSH0 PUSH1 0x40 MLOAD DUP1 DUP4 SUB DUP2 PUSH0 DUP8 DUP1 EXTCODESIZE ISZERO DUP1 ISZERO PUSH2 0x1F0 JUMPI PUSH0 DUP1 REVERT JUMPDEST POP GAS CALL ISZERO DUP1 ISZERO PUSH2 0x202 JUMPI RETURNDATASIZE PUSH0 DUP1 RETURNDATACOPY RETURNDATASIZE PUSH0 REVERT JUMPDEST POP POP POP POP JUMP JUMPDEST PUSH0 DUP1 SLOAD SWAP1 PUSH2 0x100 EXP SWAP1 DIV PUSH20 0xFFFFFFFFFFFFFFFFFFFFFFFFFFFFFFFFFFFFFFFF AND PUSH20 0xFFFFFFFFFFFFFFFFFFFFFFFFFFFFFFFFFFFFFFFF AND PUSH4 0x5858D161 PUSH1 0x33 PUSH1 0x40 MLOAD DUP3 PUSH4 0xFFFFFFFF AND PUSH1 0xE0 SHL DUP2 MSTORE PUSH1 0x4 ADD PUSH2 0x261 SWAP2 SWAP1 PUSH2 0x418 JUMP JUMPDEST PUSH0 PUSH1 0x40 MLOAD DUP1 DUP4 SUB DUP2 PUSH0 DUP8 DUP1 EXTCODESIZE ISZERO DUP1 ISZERO PUSH2 0x278 JUMPI PUSH0 DUP1 REVERT JUMPDEST POP GAS CALL ISZERO DUP1 ISZERO PUSH2 0x28A JUMPI RETURNDATASIZE PUSH0 DUP1 RETURNDATACOPY RETURNDATASIZE PUSH0 REVERT JUMPDEST POP POP POP POP PUSH0 DUP1 SLOAD SWAP1 PUSH2 0x100 EXP SWAP1 DIV PUSH20 0xFFFFFFFFFFFFFFFFFFFFFFFFFFFFFFFFFFFFFFFF AND PUSH20 0xFFFFFFFFFFFFFFFFFFFFFFFFFFFFFFFFFFFFFFFF AND PUSH4 0xE320BEE5 PUSH1 0x40 MLOAD DUP2 PUSH4 0xFFFFFFFF AND PUSH1 0xE0 SHL DUP2 MSTORE PUSH1 0x4 ADD PUSH0 PUSH1 0x40 MLOAD DUP1 DUP4 SUB DUP2 PUSH0 DUP8 DUP1 EXTCODESIZE ISZERO DUP1 ISZERO PUSH2 0x2F2 JUMPI PUSH0 DUP1 REVERT JUMPDEST POP GAS CALL ISZERO DUP1 ISZERO PUSH2 0x304 JUMPI RETURNDATASIZE PUSH0 DUP1 RETURNDATACOPY RETURNDATASIZE PUSH0 REVERT JUMPDEST POP POP POP POP JUMP JUMPDEST PUSH0 DUP1 PUSH1 0x14 SWAP1 SLOAD SWAP1 PUSH2 0x100 EXP SWAP1 DIV PUSH1 0xFF AND PUSH2 0x34C JUMPI PUSH1 0x64 NUMBER PUSH2 0x32B SWAP2 SWAP1 PUSH2 0x45E JUMP JUMPDEST SWAP1 POP PUSH1 0x1 PUSH0 PUSH1 0x14 PUSH2 0x100 EXP DUP2 SLOAD DUP2 PUSH1 0xFF MUL NOT AND SWAP1 DUP4 ISZERO ISZERO MUL OR SWAP1 SSTORE POP PUSH2 0x350 JUMP JUMPDEST PUSH0 SWAP1 POP JUMPDEST SWAP1 JUMP JUMPDEST PUSH0 DUP2 SWAP1 POP SWAP2 SWAP1 POP JUMP JUMPDEST PUSH2 0x365 DUP2 PUSH2 0x353 JUMP JUMPDEST DUP3 MSTORE POP POP JUMP JUMPDEST PUSH0 PUSH1 0x20 DUP3 ADD SWAP1 POP PUSH2 0x37E PUSH0 DUP4 ADD DUP5 PUSH2 0x35C JUMP JUMPDEST SWAP3 SWAP2 POP POP JUMP JUMPDEST PUSH0 DUP2 SWAP1 POP SWAP2 SWAP1 POP JUMP JUMPDEST PUSH0 DUP2 SWAP1 POP SWAP2 SWAP1 POP JUMP JUMPDEST PUSH0 PUSH2 0x3B0 PUSH2 0x3AB PUSH2 0x3A6 DUP5 PUSH2 0x384 JUMP JUMPDEST PUSH2 0x38D JUMP JUMPDEST PUSH2 0x353 JUMP JUMPDEST SWAP1 POP SWAP2 SWAP1 POP JUMP JUMPDEST PUSH2 0x3C0 DUP2 PUSH2 0x396 JUMP JUMPDEST DUP3 MSTORE POP POP JUMP JUMPDEST PUSH0 PUSH1 0x20 DUP3 ADD SWAP1 POP PUSH2 0x3D9 PUSH0 DUP4 ADD DUP5 PUSH2 0x3B7 JUMP JUMPDEST SWAP3 SWAP2 POP POP JUMP JUMPDEST PUSH0 DUP2 SWAP1 POP SWAP2 SWAP1 POP JUMP JUMPDEST PUSH0 PUSH2 0x402 PUSH2 0x3FD PUSH2 0x3F8 DUP5 PUSH2 0x3DF JUMP JUMPDEST PUSH2 0x38D JUMP JUMPDEST PUSH2 0x353 JUMP JUMPDEST SWAP1 POP SWAP2 SWAP1 POP JUMP JUMPDEST PUSH2 0x412 DUP2 PUSH2 0x3E8 JUMP JUMPDEST DUP3 MSTORE POP POP JUMP JUMPDEST PUSH0 PUSH1 0x20 DUP3 ADD SWAP1 POP PUSH2 0x42B PUSH0 DUP4 ADD DUP5 PUSH2 0x409 JUMP JUMPDEST SWAP3 SWAP2 POP POP JUMP JUMPDEST PUSH32 0x4E487B7100000000000000000000000000000000000000000000000000000000 PUSH0 MSTORE PUSH1 0x11 PUSH1 0x4 MSTORE PUSH1 0x24 PUSH0 REVERT JUMPDEST PUSH0 PUSH2 0x468 DUP3 PUSH2 0x353 JUMP JUMPDEST SWAP2 POP PUSH2 0x473 DUP4 PUSH2 0x353 JUMP JUMPDEST SWAP3 POP DUP3 DUP3 ADD SWAP1 POP DUP1 DUP3 GT ISZERO PUSH2 0x48B JUMPI PUSH2 0x48A PUSH2 0x431 JUMP JUMPDEST JUMPDEST SWAP3 SWAP2 POP POP JUMP INVALID LOG2 PUSH5 0x6970667358 0x22 SLT KECCAK256 0xC8 0x27 0xD8 MOD POP 0xB6 REVERT PUSH13 0x588244A3EDC4C92DD324A38539 0xDA 0xE6 PUSH2 0x71A8 0xC0 0xBE 0xD9 SWAP4 SWAP2 PUSH31 0x64736F6C634300081500330000000000000000000000000000000000000000 "
				},
				"gasEstimates": {
					"creation": {
						"codeDepositCost": "244600",
						"executionCost": "infinite",
						"totalCost": "infinite"
					},
					"external": {
						"att1()": "infinite",
						"att2()": "infinite",
						"att3()": "infinite",
						"timestamp()": "infinite"
					}
				},
				"methodIdentifiers": {
					"att1()": "68b8d10e",
					"att2()": "38a39681",
					"att3()": "10b45e21",
					"timestamp()": "b80777ea"
				}
			},
			"storageLayout": {
				"storage": [
					{
						"astId": 484,
						"contract": "shoot/摸底3/1/1.sol:attract",
						"label": "che",
						"offset": 0,
						"slot": "0",
						"type": "t_contract(check)604"
					},
					{
						"astId": 486,
						"contract": "shoot/摸底3/1/1.sol:attract",
						"label": "b",
						"offset": 20,
						"slot": "0",
						"type": "t_bool"
					}
				],
				"types": {
					"t_bool": {
						"encoding": "inplace",
						"label": "bool",
						"numberOfBytes": "1"
					},
					"t_contract(check)604": {
						"encoding": "inplace",
						"label": "contract check",
						"numberOfBytes": "20"
					}
				}
			},
			"userdoc": {
				"kind": "user",
				"methods": {},
				"version": 1
			}
		}
	}
}