{
	"shoot/摸底3/1/1.sol": {
		"worker": {
			"abi": [
				{
					"inputs": [],
					"stateMutability": "nonpayable",
					"type": "constructor"
				},
				{
					"anonymous": false,
					"inputs": [
						{
							"indexed": true,
							"internalType": "address",
							"name": "owner",
							"type": "address"
						},
						{
							"indexed": true,
							"internalType": "address",
							"name": "spender",
							"type": "address"
						},
						{
							"indexed": false,
							"internalType": "uint256",
							"name": "value",
							"type": "uint256"
						}
					],
					"name": "Approval",
					"type": "event"
				},
				{
					"anonymous": false,
					"inputs": [
						{
							"indexed": true,
							"internalType": "address",
							"name": "from",
							"type": "address"
						},
						{
							"indexed": true,
							"internalType": "address",
							"name": "to",
							"type": "address"
						},
						{
							"indexed": false,
							"internalType": "uint256",
							"name": "value",
							"type": "uint256"
						}
					],
					"name": "Transfer",
					"type": "event"
				},
				{
					"inputs": [
						{
							"internalType": "address",
							"name": "owner",
							"type": "address"
						},
						{
							"internalType": "address",
							"name": "delegate",
							"type": "address"
						}
					],
					"name": "allowance",
					"outputs": [
						{
							"internalType": "uint256",
							"name": "",
							"type": "uint256"
						}
					],
					"stateMutability": "view",
					"type": "function"
				},
				{
					"inputs": [
						{
							"internalType": "address",
							"name": "delegate",
							"type": "address"
						},
						{
							"internalType": "uint256",
							"name": "numTokens",
							"type": "uint256"
						}
					],
					"name": "approve",
					"outputs": [
						{
							"internalType": "bool",
							"name": "",
							"type": "bool"
						}
					],
					"stateMutability": "nonpayable",
					"type": "function"
				},
				{
					"inputs": [
						{
							"internalType": "address",
							"name": "tokenOwner",
							"type": "address"
						}
					],
					"name": "balanceOf",
					"outputs": [
						{
							"internalType": "uint256",
							"name": "",
							"type": "uint256"
						}
					],
					"stateMutability": "view",
					"type": "function"
				},
				{
					"inputs": [],
					"name": "decimals",
					"outputs": [
						{
							"internalType": "uint8",
							"name": "",
							"type": "uint8"
						}
					],
					"stateMutability": "view",
					"type": "function"
				},
				{
					"inputs": [],
					"name": "finish",
					"outputs": [],
					"stateMutability": "nonpayable",
					"type": "function"
				},
				{
					"inputs": [],
					"name": "itimestamp",
					"outputs": [
						{
							"internalType": "uint256",
							"name": "a",
							"type": "uint256"
						}
					],
					"stateMutability": "nonpayable",
					"type": "function"
				},
				{
					"inputs": [],
					"name": "name",
					"outputs": [
						{
							"internalType": "string",
							"name": "",
							"type": "string"
						}
					],
					"stateMutability": "view",
					"type": "function"
				},
				{
					"inputs": [],
					"name": "symbol",
					"outputs": [
						{
							"internalType": "string",
							"name": "",
							"type": "string"
						}
					],
					"stateMutability": "view",
					"type": "function"
				},
				{
					"inputs": [],
					"name": "timestamp",
					"outputs": [
						{
							"internalType": "uint256",
							"name": "",
							"type": "uint256"
						}
					],
					"stateMutability": "view",
					"type": "function"
				},
				{
					"inputs": [],
					"name": "totalSupply",
					"outputs": [
						{
							"internalType": "uint256",
							"name": "",
							"type": "uint256"
						}
					],
					"stateMutability": "view",
					"type": "function"
				},
				{
					"inputs": [
						{
							"internalType": "address",
							"name": "receiver",
							"type": "address"
						},
						{
							"internalType": "uint256",
							"name": "numTokens",
							"type": "uint256"
						}
					],
					"name": "transfer",
					"outputs": [
						{
							"internalType": "bool",
							"name": "",
							"type": "bool"
						}
					],
					"stateMutability": "nonpayable",
					"type": "function"
				},
				{
					"inputs": [
						{
							"internalType": "address",
							"name": "owner",
							"type": "address"
						},
						{
							"internalType": "address",
							"name": "buyer",
							"type": "address"
						},
						{
							"internalType": "uint256",
							"name": "numTokens",
							"type": "uint256"
						}
					],
					"name": "transferFrom",
					"outputs": [
						{
							"internalType": "bool",
							"name": "",
							"type": "bool"
						}
					],
					"stateMutability": "nonpayable",
					"type": "function"
				},
				{
					"inputs": [],
					"name": "updateStart",
					"outputs": [],
					"stateMutability": "nonpayable",
					"type": "function"
				},
				{
					"inputs": [
						{
							"internalType": "uint256",
							"name": "_workingNumber",
							"type": "uint256"
						}
					],
					"name": "work",
					"outputs": [],
					"stateMutability": "nonpayable",
					"type": "function"
				},
				{
					"inputs": [
						{
							"internalType": "address",
							"name": "",
							"type": "address"
						}
					],
					"name": "workusers",
					"outputs": [
						{
							"internalType": "uint256",
							"name": "startNumber",
							"type": "uint256"
						},
						{
							"internalType": "uint256",
							"name": "workingNumber",
							"type": "uint256"
						}
					],
					"stateMutability": "view",
					"type": "function"
				}
			],
			"devdoc": {
				"kind": "dev",
				"methods": {},
				"version": 1
			},
			"evm": {
				"assembly": "    /* \"shoot/\\xe6\\x91\\xb8\\xe5\\xba\\x953/1/1.sol\":2846:4017  contract worker is ERC20{... */\n  mstore(0x40, 0x80)\n    /* \"shoot/\\xe6\\x91\\xb8\\xe5\\xba\\x953/1/1.sol\":1170:1180  1000 ether */\n  0x3635c9adc5dea00000\n    /* \"shoot/\\xe6\\x91\\xb8\\xe5\\xba\\x953/1/1.sol\":1147:1180  uint256 totalSupply_ = 1000 ether */\n  0x02\n  sstore\n    /* \"shoot/\\xe6\\x91\\xb8\\xe5\\xba\\x953/1/1.sol\":3022:3086  constructor(){... */\n  callvalue\n  dup1\n  iszero\n  tag_1\n  jumpi\n  0x00\n  dup1\n  revert\ntag_1:\n  pop\n    /* \"shoot/\\xe6\\x91\\xb8\\xe5\\xba\\x953/1/1.sol\":3046:3078  mint(address(this),block.number) */\n  tag_6\n    /* \"shoot/\\xe6\\x91\\xb8\\xe5\\xba\\x953/1/1.sol\":3059:3063  this */\n  address\n    /* \"shoot/\\xe6\\x91\\xb8\\xe5\\xba\\x953/1/1.sol\":3065:3077  block.number */\n  number\n    /* \"shoot/\\xe6\\x91\\xb8\\xe5\\xba\\x953/1/1.sol\":3046:3050  mint */\n  shl(0x20, tag_7)\n    /* \"shoot/\\xe6\\x91\\xb8\\xe5\\xba\\x953/1/1.sol\":3046:3078  mint(address(this),block.number) */\n  0x20\n  shr\n  jump\t// in\ntag_6:\n    /* \"shoot/\\xe6\\x91\\xb8\\xe5\\xba\\x953/1/1.sol\":2846:4017  contract worker is ERC20{... */\n  jump(tag_8)\n    /* \"shoot/\\xe6\\x91\\xb8\\xe5\\xba\\x953/1/1.sol\":1318:1442  function mint(address _addr,uint256 amount)internal{... */\ntag_7:\n    /* \"shoot/\\xe6\\x91\\xb8\\xe5\\xba\\x953/1/1.sol\":1397:1403  amount */\n  dup1\n    /* \"shoot/\\xe6\\x91\\xb8\\xe5\\xba\\x953/1/1.sol\":1380:1388  balances */\n  0x00\n    /* \"shoot/\\xe6\\x91\\xb8\\xe5\\xba\\x953/1/1.sol\":1380:1395  balances[_addr] */\n  dup1\n    /* \"shoot/\\xe6\\x91\\xb8\\xe5\\xba\\x953/1/1.sol\":1389:1394  _addr */\n  dup5\n    /* \"shoot/\\xe6\\x91\\xb8\\xe5\\xba\\x953/1/1.sol\":1380:1395  balances[_addr] */\n  0xffffffffffffffffffffffffffffffffffffffff\n  and\n  0xffffffffffffffffffffffffffffffffffffffff\n  and\n  dup2\n  mstore\n  0x20\n  add\n  swap1\n  dup2\n  mstore\n  0x20\n  add\n  0x00\n  keccak256\n  0x00\n    /* \"shoot/\\xe6\\x91\\xb8\\xe5\\xba\\x953/1/1.sol\":1380:1403  balances[_addr]+=amount */\n  dup3\n  dup3\n  sload\n  tag_10\n  swap2\n  swap1\n  tag_11\n  jump\t// in\ntag_10:\n  swap3\n  pop\n  pop\n  dup2\n  swap1\n  sstore\n  pop\n    /* \"shoot/\\xe6\\x91\\xb8\\xe5\\xba\\x953/1/1.sol\":1428:1434  amount */\n  dup1\n    /* \"shoot/\\xe6\\x91\\xb8\\xe5\\xba\\x953/1/1.sol\":1414:1426  totalSupply_ */\n  0x02\n  0x00\n    /* \"shoot/\\xe6\\x91\\xb8\\xe5\\xba\\x953/1/1.sol\":1414:1434  totalSupply_+=amount */\n  dup3\n  dup3\n  sload\n  tag_12\n  swap2\n  swap1\n  tag_11\n  jump\t// in\ntag_12:\n  swap3\n  pop\n  pop\n  dup2\n  swap1\n  sstore\n  pop\n    /* \"shoot/\\xe6\\x91\\xb8\\xe5\\xba\\x953/1/1.sol\":1318:1442  function mint(address _addr,uint256 amount)internal{... */\n  pop\n  pop\n  jump\t// out\n    /* \"#utility.yul\":7:84   */\ntag_13:\n    /* \"#utility.yul\":44:51   */\n  0x00\n    /* \"#utility.yul\":73:78   */\n  dup2\n    /* \"#utility.yul\":62:78   */\n  swap1\n  pop\n    /* \"#utility.yul\":7:84   */\n  swap2\n  swap1\n  pop\n  jump\t// out\n    /* \"#utility.yul\":90:270   */\ntag_14:\n    /* \"#utility.yul\":138:215   */\n  0x4e487b7100000000000000000000000000000000000000000000000000000000\n    /* \"#utility.yul\":135:136   */\n  0x00\n    /* \"#utility.yul\":128:216   */\n  mstore\n    /* \"#utility.yul\":235:239   */\n  0x11\n    /* \"#utility.yul\":232:233   */\n  0x04\n    /* \"#utility.yul\":225:240   */\n  mstore\n    /* \"#utility.yul\":259:263   */\n  0x24\n    /* \"#utility.yul\":256:257   */\n  0x00\n    /* \"#utility.yul\":249:264   */\n  revert\n    /* \"#utility.yul\":276:467   */\ntag_11:\n    /* \"#utility.yul\":316:319   */\n  0x00\n    /* \"#utility.yul\":335:355   */\n  tag_19\n    /* \"#utility.yul\":353:354   */\n  dup3\n    /* \"#utility.yul\":335:355   */\n  tag_13\n  jump\t// in\ntag_19:\n    /* \"#utility.yul\":330:355   */\n  swap2\n  pop\n    /* \"#utility.yul\":369:389   */\n  tag_20\n    /* \"#utility.yul\":387:388   */\n  dup4\n    /* \"#utility.yul\":369:389   */\n  tag_13\n  jump\t// in\ntag_20:\n    /* \"#utility.yul\":364:389   */\n  swap3\n  pop\n    /* \"#utility.yul\":412:413   */\n  dup3\n    /* \"#utility.yul\":409:410   */\n  dup3\n    /* \"#utility.yul\":405:414   */\n  add\n    /* \"#utility.yul\":398:414   */\n  swap1\n  pop\n    /* \"#utility.yul\":433:436   */\n  dup1\n    /* \"#utility.yul\":430:431   */\n  dup3\n    /* \"#utility.yul\":427:437   */\n  gt\n    /* \"#utility.yul\":424:460   */\n  iszero\n  tag_21\n  jumpi\n    /* \"#utility.yul\":440:458   */\n  tag_22\n  tag_14\n  jump\t// in\ntag_22:\n    /* \"#utility.yul\":424:460   */\ntag_21:\n    /* \"#utility.yul\":276:467   */\n  swap3\n  swap2\n  pop\n  pop\n  jump\t// out\n    /* \"shoot/\\xe6\\x91\\xb8\\xe5\\xba\\x953/1/1.sol\":2846:4017  contract worker is ERC20{... */\ntag_8:\n  dataSize(sub_0)\n  dup1\n  dataOffset(sub_0)\n  0x00\n  codecopy\n  0x00\n  return\nstop\n\nsub_0: assembly {\n        /* \"shoot/\\xe6\\x91\\xb8\\xe5\\xba\\x953/1/1.sol\":2846:4017  contract worker is ERC20{... */\n      mstore(0x40, 0x80)\n      callvalue\n      dup1\n      iszero\n      tag_1\n      jumpi\n      0x00\n      dup1\n      revert\n    tag_1:\n      pop\n      jumpi(tag_2, lt(calldatasize, 0x04))\n      shr(0xe0, calldataload(0x00))\n      dup1\n      0x5858d161\n      gt\n      tag_18\n      jumpi\n      dup1\n      0xb80777ea\n      gt\n      tag_19\n      jumpi\n      dup1\n      0xb80777ea\n      eq\n      tag_14\n      jumpi\n      dup1\n      0xd56b2889\n      eq\n      tag_15\n      jumpi\n      dup1\n      0xdd62ed3e\n      eq\n      tag_16\n      jumpi\n      dup1\n      0xe320bee5\n      eq\n      tag_17\n      jumpi\n      jump(tag_2)\n    tag_19:\n      dup1\n      0x5858d161\n      eq\n      tag_10\n      jumpi\n      dup1\n      0x70a08231\n      eq\n      tag_11\n      jumpi\n      dup1\n      0x95d89b41\n      eq\n      tag_12\n      jumpi\n      dup1\n      0xa9059cbb\n      eq\n      tag_13\n      jumpi\n      jump(tag_2)\n    tag_18:\n      dup1\n      0x0b74974d\n      gt\n      tag_20\n      jumpi\n      dup1\n      0x0b74974d\n      eq\n      tag_6\n      jumpi\n      dup1\n      0x18160ddd\n      eq\n      tag_7\n      jumpi\n      dup1\n      0x23b872dd\n      eq\n      tag_8\n      jumpi\n      dup1\n      0x313ce567\n      eq\n      tag_9\n      jumpi\n      jump(tag_2)\n    tag_20:\n      dup1\n      0x0168c11e\n      eq\n      tag_3\n      jumpi\n      dup1\n      0x06fdde03\n      eq\n      tag_4\n      jumpi\n      dup1\n      0x095ea7b3\n      eq\n      tag_5\n      jumpi\n    tag_2:\n      0x00\n      dup1\n      revert\n        /* \"shoot/\\xe6\\x91\\xb8\\xe5\\xba\\x953/1/1.sol\":2970:3015  mapping(address => workUser) public workusers */\n    tag_3:\n      tag_21\n      0x04\n      dup1\n      calldatasize\n      sub\n      dup2\n      add\n      swap1\n      tag_22\n      swap2\n      swap1\n      tag_23\n      jump\t// in\n    tag_22:\n      tag_24\n      jump\t// in\n    tag_21:\n      mload(0x40)\n      tag_25\n      swap3\n      swap2\n      swap1\n      tag_26\n      jump\t// in\n    tag_25:\n      mload(0x40)\n      dup1\n      swap2\n      sub\n      swap1\n      return\n        /* \"shoot/\\xe6\\x91\\xb8\\xe5\\xba\\x953/1/1.sol\":907:944  string public constant name = \"ERC20\" */\n    tag_4:\n      tag_27\n      tag_28\n      jump\t// in\n    tag_27:\n      mload(0x40)\n      tag_29\n      swap2\n      swap1\n      tag_30\n      jump\t// in\n    tag_29:\n      mload(0x40)\n      dup1\n      swap2\n      sub\n      swap1\n      return\n        /* \"shoot/\\xe6\\x91\\xb8\\xe5\\xba\\x953/1/1.sol\":1940:2164  function approve(address delegate, uint256 numTokens) public override returns (bool) {... */\n    tag_5:\n      tag_31\n      0x04\n      dup1\n      calldatasize\n      sub\n      dup2\n      add\n      swap1\n      tag_32\n      swap2\n      swap1\n      tag_33\n      jump\t// in\n    tag_32:\n      tag_34\n      jump\t// in\n    tag_31:\n      mload(0x40)\n      tag_35\n      swap2\n      swap1\n      tag_36\n      jump\t// in\n    tag_35:\n      mload(0x40)\n      dup1\n      swap2\n      sub\n      swap1\n      return\n        /* \"shoot/\\xe6\\x91\\xb8\\xe5\\xba\\x953/1/1.sol\":3186:3287  function itimestamp()public returns(uint256 a){... */\n    tag_6:\n      tag_37\n      tag_38\n      jump\t// in\n    tag_37:\n      mload(0x40)\n      tag_39\n      swap2\n      swap1\n      tag_40\n      jump\t// in\n    tag_39:\n      mload(0x40)\n      dup1\n      swap2\n      sub\n      swap1\n      return\n        /* \"shoot/\\xe6\\x91\\xb8\\xe5\\xba\\x953/1/1.sol\":1214:1310  function totalSupply() public override view returns (uint256) {... */\n    tag_7:\n      tag_41\n      tag_42\n      jump\t// in\n    tag_41:\n      mload(0x40)\n      tag_43\n      swap2\n      swap1\n      tag_40\n      jump\t// in\n    tag_43:\n      mload(0x40)\n      dup1\n      swap2\n      sub\n      swap1\n      return\n        /* \"shoot/\\xe6\\x91\\xb8\\xe5\\xba\\x953/1/1.sol\":2318:2792  function transferFrom(address owner, address buyer, uint256 numTokens) public override returns (bool) {... */\n    tag_8:\n      tag_44\n      0x04\n      dup1\n      calldatasize\n      sub\n      dup2\n      add\n      swap1\n      tag_45\n      swap2\n      swap1\n      tag_46\n      jump\t// in\n    tag_45:\n      tag_47\n      jump\t// in\n    tag_44:\n      mload(0x40)\n      tag_48\n      swap2\n      swap1\n      tag_36\n      jump\t// in\n    tag_48:\n      mload(0x40)\n      dup1\n      swap2\n      sub\n      swap1\n      return\n        /* \"shoot/\\xe6\\x91\\xb8\\xe5\\xba\\x953/1/1.sol\":995:1030  uint8 public constant decimals = 18 */\n    tag_9:\n      tag_49\n      tag_50\n      jump\t// in\n    tag_49:\n      mload(0x40)\n      tag_51\n      swap2\n      swap1\n      tag_52\n      jump\t// in\n    tag_51:\n      mload(0x40)\n      dup1\n      swap2\n      sub\n      swap1\n      return\n        /* \"shoot/\\xe6\\x91\\xb8\\xe5\\xba\\x953/1/1.sol\":3295:3508  function work(uint256 _workingNumber)public{... */\n    tag_10:\n      tag_53\n      0x04\n      dup1\n      calldatasize\n      sub\n      dup2\n      add\n      swap1\n      tag_54\n      swap2\n      swap1\n      tag_55\n      jump\t// in\n    tag_54:\n      tag_56\n      jump\t// in\n    tag_53:\n      stop\n        /* \"shoot/\\xe6\\x91\\xb8\\xe5\\xba\\x953/1/1.sol\":1450:1574  function balanceOf(address tokenOwner) public override view returns (uint256) {... */\n    tag_11:\n      tag_57\n      0x04\n      dup1\n      calldatasize\n      sub\n      dup2\n      add\n      swap1\n      tag_58\n      swap2\n      swap1\n      tag_23\n      jump\t// in\n    tag_58:\n      tag_59\n      jump\t// in\n    tag_57:\n      mload(0x40)\n      tag_60\n      swap2\n      swap1\n      tag_40\n      jump\t// in\n    tag_60:\n      mload(0x40)\n      dup1\n      swap2\n      sub\n      swap1\n      return\n        /* \"shoot/\\xe6\\x91\\xb8\\xe5\\xba\\x953/1/1.sol\":951:988  string public constant symbol = \"ERC\" */\n    tag_12:\n      tag_61\n      tag_62\n      jump\t// in\n    tag_61:\n      mload(0x40)\n      tag_63\n      swap2\n      swap1\n      tag_30\n      jump\t// in\n    tag_63:\n      mload(0x40)\n      dup1\n      swap2\n      sub\n      swap1\n      return\n        /* \"shoot/\\xe6\\x91\\xb8\\xe5\\xba\\x953/1/1.sol\":1582:1932  function transfer(address receiver, uint256 numTokens) public override returns (bool) {... */\n    tag_13:\n      tag_64\n      0x04\n      dup1\n      calldatasize\n      sub\n      dup2\n      add\n      swap1\n      tag_65\n      swap2\n      swap1\n      tag_33\n      jump\t// in\n    tag_65:\n      tag_66\n      jump\t// in\n    tag_64:\n      mload(0x40)\n      tag_67\n      swap2\n      swap1\n      tag_36\n      jump\t// in\n    tag_67:\n      mload(0x40)\n      dup1\n      swap2\n      sub\n      swap1\n      return\n        /* \"shoot/\\xe6\\x91\\xb8\\xe5\\xba\\x953/1/1.sol\":3094:3180  function timestamp()public view returns(uint256){... */\n    tag_14:\n      tag_68\n      tag_69\n      jump\t// in\n    tag_68:\n      mload(0x40)\n      tag_70\n      swap2\n      swap1\n      tag_40\n      jump\t// in\n    tag_70:\n      mload(0x40)\n      dup1\n      swap2\n      sub\n      swap1\n      return\n        /* \"shoot/\\xe6\\x91\\xb8\\xe5\\xba\\x953/1/1.sol\":3516:3769  function finish()public{... */\n    tag_15:\n      tag_71\n      tag_72\n      jump\t// in\n    tag_71:\n      stop\n        /* \"shoot/\\xe6\\x91\\xb8\\xe5\\xba\\x953/1/1.sol\":2172:2310  function allowance(address owner, address delegate) public override view returns (uint) {... */\n    tag_16:\n      tag_73\n      0x04\n      dup1\n      calldatasize\n      sub\n      dup2\n      add\n      swap1\n      tag_74\n      swap2\n      swap1\n      tag_75\n      jump\t// in\n    tag_74:\n      tag_76\n      jump\t// in\n    tag_73:\n      mload(0x40)\n      tag_77\n      swap2\n      swap1\n      tag_40\n      jump\t// in\n    tag_77:\n      mload(0x40)\n      dup1\n      swap2\n      sub\n      swap1\n      return\n        /* \"shoot/\\xe6\\x91\\xb8\\xe5\\xba\\x953/1/1.sol\":3777:4012  function updateStart()public{... */\n    tag_17:\n      tag_78\n      tag_79\n      jump\t// in\n    tag_78:\n      stop\n        /* \"shoot/\\xe6\\x91\\xb8\\xe5\\xba\\x953/1/1.sol\":2970:3015  mapping(address => workUser) public workusers */\n    tag_24:\n      mstore(0x20, 0x03)\n      dup1\n      0x00\n      mstore\n      keccak256(0x00, 0x40)\n      0x00\n      swap2\n      pop\n      swap1\n      pop\n      dup1\n      0x00\n      add\n      sload\n      swap1\n      dup1\n      0x01\n      add\n      sload\n      swap1\n      pop\n      dup3\n      jump\t// out\n        /* \"shoot/\\xe6\\x91\\xb8\\xe5\\xba\\x953/1/1.sol\":907:944  string public constant name = \"ERC20\" */\n    tag_28:\n      mload(0x40)\n      dup1\n      0x40\n      add\n      0x40\n      mstore\n      dup1\n      0x05\n      dup2\n      mstore\n      0x20\n      add\n      0x4552433230000000000000000000000000000000000000000000000000000000\n      dup2\n      mstore\n      pop\n      dup2\n      jump\t// out\n        /* \"shoot/\\xe6\\x91\\xb8\\xe5\\xba\\x953/1/1.sol\":1940:2164  function approve(address delegate, uint256 numTokens) public override returns (bool) {... */\n    tag_34:\n        /* \"shoot/\\xe6\\x91\\xb8\\xe5\\xba\\x953/1/1.sol\":2019:2023  bool */\n      0x00\n        /* \"shoot/\\xe6\\x91\\xb8\\xe5\\xba\\x953/1/1.sol\":2068:2077  numTokens */\n      dup2\n        /* \"shoot/\\xe6\\x91\\xb8\\xe5\\xba\\x953/1/1.sol\":2036:2043  allowed */\n      0x01\n        /* \"shoot/\\xe6\\x91\\xb8\\xe5\\xba\\x953/1/1.sol\":2036:2055  allowed[msg.sender] */\n      0x00\n        /* \"shoot/\\xe6\\x91\\xb8\\xe5\\xba\\x953/1/1.sol\":2044:2054  msg.sender */\n      caller\n        /* \"shoot/\\xe6\\x91\\xb8\\xe5\\xba\\x953/1/1.sol\":2036:2055  allowed[msg.sender] */\n      0xffffffffffffffffffffffffffffffffffffffff\n      and\n      0xffffffffffffffffffffffffffffffffffffffff\n      and\n      dup2\n      mstore\n      0x20\n      add\n      swap1\n      dup2\n      mstore\n      0x20\n      add\n      0x00\n      keccak256\n        /* \"shoot/\\xe6\\x91\\xb8\\xe5\\xba\\x953/1/1.sol\":2036:2065  allowed[msg.sender][delegate] */\n      0x00\n        /* \"shoot/\\xe6\\x91\\xb8\\xe5\\xba\\x953/1/1.sol\":2056:2064  delegate */\n      dup6\n        /* \"shoot/\\xe6\\x91\\xb8\\xe5\\xba\\x953/1/1.sol\":2036:2065  allowed[msg.sender][delegate] */\n      0xffffffffffffffffffffffffffffffffffffffff\n      and\n      0xffffffffffffffffffffffffffffffffffffffff\n      and\n      dup2\n      mstore\n      0x20\n      add\n      swap1\n      dup2\n      mstore\n      0x20\n      add\n      0x00\n      keccak256\n        /* \"shoot/\\xe6\\x91\\xb8\\xe5\\xba\\x953/1/1.sol\":2036:2077  allowed[msg.sender][delegate] = numTokens */\n      dup2\n      swap1\n      sstore\n      pop\n        /* \"shoot/\\xe6\\x91\\xb8\\xe5\\xba\\x953/1/1.sol\":2114:2122  delegate */\n      dup3\n        /* \"shoot/\\xe6\\x91\\xb8\\xe5\\xba\\x953/1/1.sol\":2093:2134  Approval(msg.sender, delegate, numTokens) */\n      0xffffffffffffffffffffffffffffffffffffffff\n      and\n        /* \"shoot/\\xe6\\x91\\xb8\\xe5\\xba\\x953/1/1.sol\":2102:2112  msg.sender */\n      caller\n        /* \"shoot/\\xe6\\x91\\xb8\\xe5\\xba\\x953/1/1.sol\":2093:2134  Approval(msg.sender, delegate, numTokens) */\n      0xffffffffffffffffffffffffffffffffffffffff\n      and\n      0x8c5be1e5ebec7d5bd14f71427d1e84f3dd0314c0f7b2291e5b200ac8c7c3b925\n        /* \"shoot/\\xe6\\x91\\xb8\\xe5\\xba\\x953/1/1.sol\":2124:2133  numTokens */\n      dup5\n        /* \"shoot/\\xe6\\x91\\xb8\\xe5\\xba\\x953/1/1.sol\":2093:2134  Approval(msg.sender, delegate, numTokens) */\n      mload(0x40)\n      tag_81\n      swap2\n      swap1\n      tag_40\n      jump\t// in\n    tag_81:\n      mload(0x40)\n      dup1\n      swap2\n      sub\n      swap1\n      log3\n        /* \"shoot/\\xe6\\x91\\xb8\\xe5\\xba\\x953/1/1.sol\":2152:2156  true */\n      0x01\n        /* \"shoot/\\xe6\\x91\\xb8\\xe5\\xba\\x953/1/1.sol\":2145:2156  return true */\n      swap1\n      pop\n        /* \"shoot/\\xe6\\x91\\xb8\\xe5\\xba\\x953/1/1.sol\":1940:2164  function approve(address delegate, uint256 numTokens) public override returns (bool) {... */\n      swap3\n      swap2\n      pop\n      pop\n      jump\t// out\n        /* \"shoot/\\xe6\\x91\\xb8\\xe5\\xba\\x953/1/1.sol\":3186:3287  function itimestamp()public returns(uint256 a){... */\n    tag_38:\n        /* \"shoot/\\xe6\\x91\\xb8\\xe5\\xba\\x953/1/1.sol\":3222:3231  uint256 a */\n      0x00\n        /* \"shoot/\\xe6\\x91\\xb8\\xe5\\xba\\x953/1/1.sol\":3261:3265  this */\n      address\n        /* \"shoot/\\xe6\\x91\\xb8\\xe5\\xba\\x953/1/1.sol\":3247:3277  Itime(address(this)).timestamp */\n      0xffffffffffffffffffffffffffffffffffffffff\n      and\n      0xb80777ea\n        /* \"shoot/\\xe6\\x91\\xb8\\xe5\\xba\\x953/1/1.sol\":3247:3279  Itime(address(this)).timestamp() */\n      mload(0x40)\n      dup2\n      0xffffffff\n      and\n      0xe0\n      shl\n      dup2\n      mstore\n      0x04\n      add\n      0x20\n      mload(0x40)\n      dup1\n      dup4\n      sub\n      dup2\n      0x00\n      dup8\n      gas\n      call\n      iszero\n      dup1\n      iszero\n      tag_84\n      jumpi\n      returndatasize\n      0x00\n      dup1\n      returndatacopy\n      revert(0x00, returndatasize)\n    tag_84:\n      pop\n      pop\n      pop\n      pop\n      mload(0x40)\n      returndatasize\n      not(0x1f)\n      0x1f\n      dup3\n      add\n      and\n      dup3\n      add\n      dup1\n      0x40\n      mstore\n      pop\n      dup2\n      add\n      swap1\n      tag_85\n      swap2\n      swap1\n      tag_86\n      jump\t// in\n    tag_85:\n        /* \"shoot/\\xe6\\x91\\xb8\\xe5\\xba\\x953/1/1.sol\":3243:3279  a = Itime(address(this)).timestamp() */\n      swap1\n      pop\n        /* \"shoot/\\xe6\\x91\\xb8\\xe5\\xba\\x953/1/1.sol\":3186:3287  function itimestamp()public returns(uint256 a){... */\n      swap1\n      jump\t// out\n        /* \"shoot/\\xe6\\x91\\xb8\\xe5\\xba\\x953/1/1.sol\":1214:1310  function totalSupply() public override view returns (uint256) {... */\n    tag_42:\n        /* \"shoot/\\xe6\\x91\\xb8\\xe5\\xba\\x953/1/1.sol\":1267:1274  uint256 */\n      0x00\n        /* \"shoot/\\xe6\\x91\\xb8\\xe5\\xba\\x953/1/1.sol\":1290:1302  totalSupply_ */\n      sload(0x02)\n        /* \"shoot/\\xe6\\x91\\xb8\\xe5\\xba\\x953/1/1.sol\":1283:1302  return totalSupply_ */\n      swap1\n      pop\n        /* \"shoot/\\xe6\\x91\\xb8\\xe5\\xba\\x953/1/1.sol\":1214:1310  function totalSupply() public override view returns (uint256) {... */\n      swap1\n      jump\t// out\n        /* \"shoot/\\xe6\\x91\\xb8\\xe5\\xba\\x953/1/1.sol\":2318:2792  function transferFrom(address owner, address buyer, uint256 numTokens) public override returns (bool) {... */\n    tag_47:\n        /* \"shoot/\\xe6\\x91\\xb8\\xe5\\xba\\x953/1/1.sol\":2414:2418  bool */\n      0x00\n        /* \"shoot/\\xe6\\x91\\xb8\\xe5\\xba\\x953/1/1.sol\":2452:2460  balances */\n      dup1\n        /* \"shoot/\\xe6\\x91\\xb8\\xe5\\xba\\x953/1/1.sol\":2452:2467  balances[owner] */\n      0x00\n        /* \"shoot/\\xe6\\x91\\xb8\\xe5\\xba\\x953/1/1.sol\":2461:2466  owner */\n      dup6\n        /* \"shoot/\\xe6\\x91\\xb8\\xe5\\xba\\x953/1/1.sol\":2452:2467  balances[owner] */\n      0xffffffffffffffffffffffffffffffffffffffff\n      and\n      0xffffffffffffffffffffffffffffffffffffffff\n      and\n      dup2\n      mstore\n      0x20\n      add\n      swap1\n      dup2\n      mstore\n      0x20\n      add\n      0x00\n      keccak256\n      sload\n        /* \"shoot/\\xe6\\x91\\xb8\\xe5\\xba\\x953/1/1.sol\":2439:2448  numTokens */\n      dup3\n        /* \"shoot/\\xe6\\x91\\xb8\\xe5\\xba\\x953/1/1.sol\":2439:2467  numTokens <= balances[owner] */\n      gt\n      iszero\n        /* \"shoot/\\xe6\\x91\\xb8\\xe5\\xba\\x953/1/1.sol\":2431:2468  require(numTokens <= balances[owner]) */\n      tag_89\n      jumpi\n      0x00\n      dup1\n      revert\n    tag_89:\n        /* \"shoot/\\xe6\\x91\\xb8\\xe5\\xba\\x953/1/1.sol\":2500:2507  allowed */\n      0x01\n        /* \"shoot/\\xe6\\x91\\xb8\\xe5\\xba\\x953/1/1.sol\":2500:2514  allowed[owner] */\n      0x00\n        /* \"shoot/\\xe6\\x91\\xb8\\xe5\\xba\\x953/1/1.sol\":2508:2513  owner */\n      dup6\n        /* \"shoot/\\xe6\\x91\\xb8\\xe5\\xba\\x953/1/1.sol\":2500:2514  allowed[owner] */\n      0xffffffffffffffffffffffffffffffffffffffff\n      and\n      0xffffffffffffffffffffffffffffffffffffffff\n      and\n      dup2\n      mstore\n      0x20\n      add\n      swap1\n      dup2\n      mstore\n      0x20\n      add\n      0x00\n      keccak256\n        /* \"shoot/\\xe6\\x91\\xb8\\xe5\\xba\\x953/1/1.sol\":2500:2526  allowed[owner][msg.sender] */\n      0x00\n        /* \"shoot/\\xe6\\x91\\xb8\\xe5\\xba\\x953/1/1.sol\":2515:2525  msg.sender */\n      caller\n        /* \"shoot/\\xe6\\x91\\xb8\\xe5\\xba\\x953/1/1.sol\":2500:2526  allowed[owner][msg.sender] */\n      0xffffffffffffffffffffffffffffffffffffffff\n      and\n      0xffffffffffffffffffffffffffffffffffffffff\n      and\n      dup2\n      mstore\n      0x20\n      add\n      swap1\n      dup2\n      mstore\n      0x20\n      add\n      0x00\n      keccak256\n      sload\n        /* \"shoot/\\xe6\\x91\\xb8\\xe5\\xba\\x953/1/1.sol\":2487:2496  numTokens */\n      dup3\n        /* \"shoot/\\xe6\\x91\\xb8\\xe5\\xba\\x953/1/1.sol\":2487:2526  numTokens <= allowed[owner][msg.sender] */\n      gt\n      iszero\n        /* \"shoot/\\xe6\\x91\\xb8\\xe5\\xba\\x953/1/1.sol\":2479:2527  require(numTokens <= allowed[owner][msg.sender]) */\n      tag_90\n      jumpi\n      0x00\n      dup1\n      revert\n    tag_90:\n        /* \"shoot/\\xe6\\x91\\xb8\\xe5\\xba\\x953/1/1.sol\":2574:2583  numTokens */\n      dup2\n        /* \"shoot/\\xe6\\x91\\xb8\\xe5\\xba\\x953/1/1.sol\":2558:2566  balances */\n      0x00\n        /* \"shoot/\\xe6\\x91\\xb8\\xe5\\xba\\x953/1/1.sol\":2558:2573  balances[owner] */\n      dup1\n        /* \"shoot/\\xe6\\x91\\xb8\\xe5\\xba\\x953/1/1.sol\":2567:2572  owner */\n      dup7\n        /* \"shoot/\\xe6\\x91\\xb8\\xe5\\xba\\x953/1/1.sol\":2558:2573  balances[owner] */\n      0xffffffffffffffffffffffffffffffffffffffff\n      and\n      0xffffffffffffffffffffffffffffffffffffffff\n      and\n      dup2\n      mstore\n      0x20\n      add\n      swap1\n      dup2\n      mstore\n      0x20\n      add\n      0x00\n      keccak256\n      sload\n        /* \"shoot/\\xe6\\x91\\xb8\\xe5\\xba\\x953/1/1.sol\":2558:2583  balances[owner]-numTokens */\n      tag_91\n      swap2\n      swap1\n      tag_92\n      jump\t// in\n    tag_91:\n        /* \"shoot/\\xe6\\x91\\xb8\\xe5\\xba\\x953/1/1.sol\":2540:2548  balances */\n      0x00\n        /* \"shoot/\\xe6\\x91\\xb8\\xe5\\xba\\x953/1/1.sol\":2540:2555  balances[owner] */\n      dup1\n        /* \"shoot/\\xe6\\x91\\xb8\\xe5\\xba\\x953/1/1.sol\":2549:2554  owner */\n      dup7\n        /* \"shoot/\\xe6\\x91\\xb8\\xe5\\xba\\x953/1/1.sol\":2540:2555  balances[owner] */\n      0xffffffffffffffffffffffffffffffffffffffff\n      and\n      0xffffffffffffffffffffffffffffffffffffffff\n      and\n      dup2\n      mstore\n      0x20\n      add\n      swap1\n      dup2\n      mstore\n      0x20\n      add\n      0x00\n      keccak256\n        /* \"shoot/\\xe6\\x91\\xb8\\xe5\\xba\\x953/1/1.sol\":2540:2583  balances[owner] = balances[owner]-numTokens */\n      dup2\n      swap1\n      sstore\n      pop\n        /* \"shoot/\\xe6\\x91\\xb8\\xe5\\xba\\x953/1/1.sol\":2650:2659  numTokens */\n      dup2\n        /* \"shoot/\\xe6\\x91\\xb8\\xe5\\xba\\x953/1/1.sol\":2623:2630  allowed */\n      0x01\n        /* \"shoot/\\xe6\\x91\\xb8\\xe5\\xba\\x953/1/1.sol\":2623:2637  allowed[owner] */\n      0x00\n        /* \"shoot/\\xe6\\x91\\xb8\\xe5\\xba\\x953/1/1.sol\":2631:2636  owner */\n      dup7\n        /* \"shoot/\\xe6\\x91\\xb8\\xe5\\xba\\x953/1/1.sol\":2623:2637  allowed[owner] */\n      0xffffffffffffffffffffffffffffffffffffffff\n      and\n      0xffffffffffffffffffffffffffffffffffffffff\n      and\n      dup2\n      mstore\n      0x20\n      add\n      swap1\n      dup2\n      mstore\n      0x20\n      add\n      0x00\n      keccak256\n        /* \"shoot/\\xe6\\x91\\xb8\\xe5\\xba\\x953/1/1.sol\":2623:2649  allowed[owner][msg.sender] */\n      0x00\n        /* \"shoot/\\xe6\\x91\\xb8\\xe5\\xba\\x953/1/1.sol\":2638:2648  msg.sender */\n      caller\n        /* \"shoot/\\xe6\\x91\\xb8\\xe5\\xba\\x953/1/1.sol\":2623:2649  allowed[owner][msg.sender] */\n      0xffffffffffffffffffffffffffffffffffffffff\n      and\n      0xffffffffffffffffffffffffffffffffffffffff\n      and\n      dup2\n      mstore\n      0x20\n      add\n      swap1\n      dup2\n      mstore\n      0x20\n      add\n      0x00\n      keccak256\n      sload\n        /* \"shoot/\\xe6\\x91\\xb8\\xe5\\xba\\x953/1/1.sol\":2623:2659  allowed[owner][msg.sender]-numTokens */\n      tag_93\n      swap2\n      swap1\n      tag_92\n      jump\t// in\n    tag_93:\n        /* \"shoot/\\xe6\\x91\\xb8\\xe5\\xba\\x953/1/1.sol\":2594:2601  allowed */\n      0x01\n        /* \"shoot/\\xe6\\x91\\xb8\\xe5\\xba\\x953/1/1.sol\":2594:2608  allowed[owner] */\n      0x00\n        /* \"shoot/\\xe6\\x91\\xb8\\xe5\\xba\\x953/1/1.sol\":2602:2607  owner */\n      dup7\n        /* \"shoot/\\xe6\\x91\\xb8\\xe5\\xba\\x953/1/1.sol\":2594:2608  allowed[owner] */\n      0xffffffffffffffffffffffffffffffffffffffff\n      and\n      0xffffffffffffffffffffffffffffffffffffffff\n      and\n      dup2\n      mstore\n      0x20\n      add\n      swap1\n      dup2\n      mstore\n      0x20\n      add\n      0x00\n      keccak256\n        /* \"shoot/\\xe6\\x91\\xb8\\xe5\\xba\\x953/1/1.sol\":2594:2620  allowed[owner][msg.sender] */\n      0x00\n        /* \"shoot/\\xe6\\x91\\xb8\\xe5\\xba\\x953/1/1.sol\":2609:2619  msg.sender */\n      caller\n        /* \"shoot/\\xe6\\x91\\xb8\\xe5\\xba\\x953/1/1.sol\":2594:2620  allowed[owner][msg.sender] */\n      0xffffffffffffffffffffffffffffffffffffffff\n      and\n      0xffffffffffffffffffffffffffffffffffffffff\n      and\n      dup2\n      mstore\n      0x20\n      add\n      swap1\n      dup2\n      mstore\n      0x20\n      add\n      0x00\n      keccak256\n        /* \"shoot/\\xe6\\x91\\xb8\\xe5\\xba\\x953/1/1.sol\":2594:2659  allowed[owner][msg.sender] = allowed[owner][msg.sender]-numTokens */\n      dup2\n      swap1\n      sstore\n      pop\n        /* \"shoot/\\xe6\\x91\\xb8\\xe5\\xba\\x953/1/1.sol\":2704:2713  numTokens */\n      dup2\n        /* \"shoot/\\xe6\\x91\\xb8\\xe5\\xba\\x953/1/1.sol\":2688:2696  balances */\n      0x00\n        /* \"shoot/\\xe6\\x91\\xb8\\xe5\\xba\\x953/1/1.sol\":2688:2703  balances[buyer] */\n      dup1\n        /* \"shoot/\\xe6\\x91\\xb8\\xe5\\xba\\x953/1/1.sol\":2697:2702  buyer */\n      dup6\n        /* \"shoot/\\xe6\\x91\\xb8\\xe5\\xba\\x953/1/1.sol\":2688:2703  balances[buyer] */\n      0xffffffffffffffffffffffffffffffffffffffff\n      and\n      0xffffffffffffffffffffffffffffffffffffffff\n      and\n      dup2\n      mstore\n      0x20\n      add\n      swap1\n      dup2\n      mstore\n      0x20\n      add\n      0x00\n      keccak256\n      sload\n        /* \"shoot/\\xe6\\x91\\xb8\\xe5\\xba\\x953/1/1.sol\":2688:2713  balances[buyer]+numTokens */\n      tag_94\n      swap2\n      swap1\n      tag_95\n      jump\t// in\n    tag_94:\n        /* \"shoot/\\xe6\\x91\\xb8\\xe5\\xba\\x953/1/1.sol\":2670:2678  balances */\n      0x00\n        /* \"shoot/\\xe6\\x91\\xb8\\xe5\\xba\\x953/1/1.sol\":2670:2685  balances[buyer] */\n      dup1\n        /* \"shoot/\\xe6\\x91\\xb8\\xe5\\xba\\x953/1/1.sol\":2679:2684  buyer */\n      dup6\n        /* \"shoot/\\xe6\\x91\\xb8\\xe5\\xba\\x953/1/1.sol\":2670:2685  balances[buyer] */\n      0xffffffffffffffffffffffffffffffffffffffff\n      and\n      0xffffffffffffffffffffffffffffffffffffffff\n      and\n      dup2\n      mstore\n      0x20\n      add\n      swap1\n      dup2\n      mstore\n      0x20\n      add\n      0x00\n      keccak256\n        /* \"shoot/\\xe6\\x91\\xb8\\xe5\\xba\\x953/1/1.sol\":2670:2713  balances[buyer] = balances[buyer]+numTokens */\n      dup2\n      swap1\n      sstore\n      pop\n        /* \"shoot/\\xe6\\x91\\xb8\\xe5\\xba\\x953/1/1.sol\":2745:2750  buyer */\n      dup3\n        /* \"shoot/\\xe6\\x91\\xb8\\xe5\\xba\\x953/1/1.sol\":2729:2762  Transfer(owner, buyer, numTokens) */\n      0xffffffffffffffffffffffffffffffffffffffff\n      and\n        /* \"shoot/\\xe6\\x91\\xb8\\xe5\\xba\\x953/1/1.sol\":2738:2743  owner */\n      dup5\n        /* \"shoot/\\xe6\\x91\\xb8\\xe5\\xba\\x953/1/1.sol\":2729:2762  Transfer(owner, buyer, numTokens) */\n      0xffffffffffffffffffffffffffffffffffffffff\n      and\n      0xddf252ad1be2c89b69c2b068fc378daa952ba7f163c4a11628f55a4df523b3ef\n        /* \"shoot/\\xe6\\x91\\xb8\\xe5\\xba\\x953/1/1.sol\":2752:2761  numTokens */\n      dup5\n        /* \"shoot/\\xe6\\x91\\xb8\\xe5\\xba\\x953/1/1.sol\":2729:2762  Transfer(owner, buyer, numTokens) */\n      mload(0x40)\n      tag_96\n      swap2\n      swap1\n      tag_40\n      jump\t// in\n    tag_96:\n      mload(0x40)\n      dup1\n      swap2\n      sub\n      swap1\n      log3\n        /* \"shoot/\\xe6\\x91\\xb8\\xe5\\xba\\x953/1/1.sol\":2780:2784  true */\n      0x01\n        /* \"shoot/\\xe6\\x91\\xb8\\xe5\\xba\\x953/1/1.sol\":2773:2784  return true */\n      swap1\n      pop\n        /* \"shoot/\\xe6\\x91\\xb8\\xe5\\xba\\x953/1/1.sol\":2318:2792  function transferFrom(address owner, address buyer, uint256 numTokens) public override returns (bool) {... */\n      swap4\n      swap3\n      pop\n      pop\n      pop\n      jump\t// out\n        /* \"shoot/\\xe6\\x91\\xb8\\xe5\\xba\\x953/1/1.sol\":995:1030  uint8 public constant decimals = 18 */\n    tag_50:\n        /* \"shoot/\\xe6\\x91\\xb8\\xe5\\xba\\x953/1/1.sol\":1028:1030  18 */\n      0x12\n        /* \"shoot/\\xe6\\x91\\xb8\\xe5\\xba\\x953/1/1.sol\":995:1030  uint8 public constant decimals = 18 */\n      dup2\n      jump\t// out\n        /* \"shoot/\\xe6\\x91\\xb8\\xe5\\xba\\x953/1/1.sol\":3295:3508  function work(uint256 _workingNumber)public{... */\n    tag_56:\n        /* \"shoot/\\xe6\\x91\\xb8\\xe5\\xba\\x953/1/1.sol\":3349:3370  workUser storage user */\n      0x00\n        /* \"shoot/\\xe6\\x91\\xb8\\xe5\\xba\\x953/1/1.sol\":3373:3382  workusers */\n      0x03\n        /* \"shoot/\\xe6\\x91\\xb8\\xe5\\xba\\x953/1/1.sol\":3373:3394  workusers[msg.sender] */\n      0x00\n        /* \"shoot/\\xe6\\x91\\xb8\\xe5\\xba\\x953/1/1.sol\":3383:3393  msg.sender */\n      caller\n        /* \"shoot/\\xe6\\x91\\xb8\\xe5\\xba\\x953/1/1.sol\":3373:3394  workusers[msg.sender] */\n      0xffffffffffffffffffffffffffffffffffffffff\n      and\n      0xffffffffffffffffffffffffffffffffffffffff\n      and\n      dup2\n      mstore\n      0x20\n      add\n      swap1\n      dup2\n      mstore\n      0x20\n      add\n      0x00\n      keccak256\n        /* \"shoot/\\xe6\\x91\\xb8\\xe5\\xba\\x953/1/1.sol\":3349:3394  workUser storage user = workusers[msg.sender] */\n      swap1\n      pop\n        /* \"shoot/\\xe6\\x91\\xb8\\xe5\\xba\\x953/1/1.sol\":3438:3442  this */\n      address\n        /* \"shoot/\\xe6\\x91\\xb8\\xe5\\xba\\x953/1/1.sol\":3424:3454  Itime(address(this)).timestamp */\n      0xffffffffffffffffffffffffffffffffffffffff\n      and\n      0xb80777ea\n        /* \"shoot/\\xe6\\x91\\xb8\\xe5\\xba\\x953/1/1.sol\":3424:3456  Itime(address(this)).timestamp() */\n      mload(0x40)\n      dup2\n      0xffffffff\n      and\n      0xe0\n      shl\n      dup2\n      mstore\n      0x04\n      add\n      0x20\n      mload(0x40)\n      dup1\n      dup4\n      sub\n      dup2\n      0x00\n      dup8\n      gas\n      call\n      iszero\n      dup1\n      iszero\n      tag_99\n      jumpi\n      returndatasize\n      0x00\n      dup1\n      returndatacopy\n      revert(0x00, returndatasize)\n    tag_99:\n      pop\n      pop\n      pop\n      pop\n      mload(0x40)\n      returndatasize\n      not(0x1f)\n      0x1f\n      dup3\n      add\n      and\n      dup3\n      add\n      dup1\n      0x40\n      mstore\n      pop\n      dup2\n      add\n      swap1\n      tag_100\n      swap2\n      swap1\n      tag_86\n      jump\t// in\n    tag_100:\n        /* \"shoot/\\xe6\\x91\\xb8\\xe5\\xba\\x953/1/1.sol\":3405:3409  user */\n      dup2\n        /* \"shoot/\\xe6\\x91\\xb8\\xe5\\xba\\x953/1/1.sol\":3405:3421  user.startNumber */\n      0x00\n      add\n        /* \"shoot/\\xe6\\x91\\xb8\\xe5\\xba\\x953/1/1.sol\":3405:3456  user.startNumber = Itime(address(this)).timestamp() */\n      dup2\n      swap1\n      sstore\n      pop\n        /* \"shoot/\\xe6\\x91\\xb8\\xe5\\xba\\x953/1/1.sol\":3486:3500  _workingNumber */\n      dup2\n        /* \"shoot/\\xe6\\x91\\xb8\\xe5\\xba\\x953/1/1.sol\":3467:3471  user */\n      dup2\n        /* \"shoot/\\xe6\\x91\\xb8\\xe5\\xba\\x953/1/1.sol\":3467:3485  user.workingNumber */\n      0x01\n      add\n        /* \"shoot/\\xe6\\x91\\xb8\\xe5\\xba\\x953/1/1.sol\":3467:3500  user.workingNumber=_workingNumber */\n      dup2\n      swap1\n      sstore\n      pop\n        /* \"shoot/\\xe6\\x91\\xb8\\xe5\\xba\\x953/1/1.sol\":3338:3508  {... */\n      pop\n        /* \"shoot/\\xe6\\x91\\xb8\\xe5\\xba\\x953/1/1.sol\":3295:3508  function work(uint256 _workingNumber)public{... */\n      pop\n      jump\t// out\n        /* \"shoot/\\xe6\\x91\\xb8\\xe5\\xba\\x953/1/1.sol\":1450:1574  function balanceOf(address tokenOwner) public override view returns (uint256) {... */\n    tag_59:\n        /* \"shoot/\\xe6\\x91\\xb8\\xe5\\xba\\x953/1/1.sol\":1519:1526  uint256 */\n      0x00\n        /* \"shoot/\\xe6\\x91\\xb8\\xe5\\xba\\x953/1/1.sol\":1546:1554  balances */\n      dup1\n        /* \"shoot/\\xe6\\x91\\xb8\\xe5\\xba\\x953/1/1.sol\":1546:1566  balances[tokenOwner] */\n      0x00\n        /* \"shoot/\\xe6\\x91\\xb8\\xe5\\xba\\x953/1/1.sol\":1555:1565  tokenOwner */\n      dup4\n        /* \"shoot/\\xe6\\x91\\xb8\\xe5\\xba\\x953/1/1.sol\":1546:1566  balances[tokenOwner] */\n      0xffffffffffffffffffffffffffffffffffffffff\n      and\n      0xffffffffffffffffffffffffffffffffffffffff\n      and\n      dup2\n      mstore\n      0x20\n      add\n      swap1\n      dup2\n      mstore\n      0x20\n      add\n      0x00\n      keccak256\n      sload\n        /* \"shoot/\\xe6\\x91\\xb8\\xe5\\xba\\x953/1/1.sol\":1539:1566  return balances[tokenOwner] */\n      swap1\n      pop\n        /* \"shoot/\\xe6\\x91\\xb8\\xe5\\xba\\x953/1/1.sol\":1450:1574  function balanceOf(address tokenOwner) public override view returns (uint256) {... */\n      swap2\n      swap1\n      pop\n      jump\t// out\n        /* \"shoot/\\xe6\\x91\\xb8\\xe5\\xba\\x953/1/1.sol\":951:988  string public constant symbol = \"ERC\" */\n    tag_62:\n      mload(0x40)\n      dup1\n      0x40\n      add\n      0x40\n      mstore\n      dup1\n      0x03\n      dup2\n      mstore\n      0x20\n      add\n      0x4552430000000000000000000000000000000000000000000000000000000000\n      dup2\n      mstore\n      pop\n      dup2\n      jump\t// out\n        /* \"shoot/\\xe6\\x91\\xb8\\xe5\\xba\\x953/1/1.sol\":1582:1932  function transfer(address receiver, uint256 numTokens) public override returns (bool) {... */\n    tag_66:\n        /* \"shoot/\\xe6\\x91\\xb8\\xe5\\xba\\x953/1/1.sol\":1662:1666  bool */\n      0x00\n        /* \"shoot/\\xe6\\x91\\xb8\\xe5\\xba\\x953/1/1.sol\":1700:1708  balances */\n      dup1\n        /* \"shoot/\\xe6\\x91\\xb8\\xe5\\xba\\x953/1/1.sol\":1700:1720  balances[msg.sender] */\n      0x00\n        /* \"shoot/\\xe6\\x91\\xb8\\xe5\\xba\\x953/1/1.sol\":1709:1719  msg.sender */\n      caller\n        /* \"shoot/\\xe6\\x91\\xb8\\xe5\\xba\\x953/1/1.sol\":1700:1720  balances[msg.sender] */\n      0xffffffffffffffffffffffffffffffffffffffff\n      and\n      0xffffffffffffffffffffffffffffffffffffffff\n      and\n      dup2\n      mstore\n      0x20\n      add\n      swap1\n      dup2\n      mstore\n      0x20\n      add\n      0x00\n      keccak256\n      sload\n        /* \"shoot/\\xe6\\x91\\xb8\\xe5\\xba\\x953/1/1.sol\":1687:1696  numTokens */\n      dup3\n        /* \"shoot/\\xe6\\x91\\xb8\\xe5\\xba\\x953/1/1.sol\":1687:1720  numTokens <= balances[msg.sender] */\n      gt\n      iszero\n        /* \"shoot/\\xe6\\x91\\xb8\\xe5\\xba\\x953/1/1.sol\":1679:1721  require(numTokens <= balances[msg.sender]) */\n      tag_103\n      jumpi\n      0x00\n      dup1\n      revert\n    tag_103:\n        /* \"shoot/\\xe6\\x91\\xb8\\xe5\\xba\\x953/1/1.sol\":1776:1785  numTokens */\n      dup2\n        /* \"shoot/\\xe6\\x91\\xb8\\xe5\\xba\\x953/1/1.sol\":1755:1763  balances */\n      0x00\n        /* \"shoot/\\xe6\\x91\\xb8\\xe5\\xba\\x953/1/1.sol\":1755:1775  balances[msg.sender] */\n      dup1\n        /* \"shoot/\\xe6\\x91\\xb8\\xe5\\xba\\x953/1/1.sol\":1764:1774  msg.sender */\n      caller\n        /* \"shoot/\\xe6\\x91\\xb8\\xe5\\xba\\x953/1/1.sol\":1755:1775  balances[msg.sender] */\n      0xffffffffffffffffffffffffffffffffffffffff\n      and\n      0xffffffffffffffffffffffffffffffffffffffff\n      and\n      dup2\n      mstore\n      0x20\n      add\n      swap1\n      dup2\n      mstore\n      0x20\n      add\n      0x00\n      keccak256\n      sload\n        /* \"shoot/\\xe6\\x91\\xb8\\xe5\\xba\\x953/1/1.sol\":1755:1785  balances[msg.sender]-numTokens */\n      tag_104\n      swap2\n      swap1\n      tag_92\n      jump\t// in\n    tag_104:\n        /* \"shoot/\\xe6\\x91\\xb8\\xe5\\xba\\x953/1/1.sol\":1732:1740  balances */\n      0x00\n        /* \"shoot/\\xe6\\x91\\xb8\\xe5\\xba\\x953/1/1.sol\":1732:1752  balances[msg.sender] */\n      dup1\n        /* \"shoot/\\xe6\\x91\\xb8\\xe5\\xba\\x953/1/1.sol\":1741:1751  msg.sender */\n      caller\n        /* \"shoot/\\xe6\\x91\\xb8\\xe5\\xba\\x953/1/1.sol\":1732:1752  balances[msg.sender] */\n      0xffffffffffffffffffffffffffffffffffffffff\n      and\n      0xffffffffffffffffffffffffffffffffffffffff\n      and\n      dup2\n      mstore\n      0x20\n      add\n      swap1\n      dup2\n      mstore\n      0x20\n      add\n      0x00\n      keccak256\n        /* \"shoot/\\xe6\\x91\\xb8\\xe5\\xba\\x953/1/1.sol\":1732:1785  balances[msg.sender] = balances[msg.sender]-numTokens */\n      dup2\n      swap1\n      sstore\n      pop\n        /* \"shoot/\\xe6\\x91\\xb8\\xe5\\xba\\x953/1/1.sol\":1836:1845  numTokens */\n      dup2\n        /* \"shoot/\\xe6\\x91\\xb8\\xe5\\xba\\x953/1/1.sol\":1817:1825  balances */\n      0x00\n        /* \"shoot/\\xe6\\x91\\xb8\\xe5\\xba\\x953/1/1.sol\":1817:1835  balances[receiver] */\n      dup1\n        /* \"shoot/\\xe6\\x91\\xb8\\xe5\\xba\\x953/1/1.sol\":1826:1834  receiver */\n      dup6\n        /* \"shoot/\\xe6\\x91\\xb8\\xe5\\xba\\x953/1/1.sol\":1817:1835  balances[receiver] */\n      0xffffffffffffffffffffffffffffffffffffffff\n      and\n      0xffffffffffffffffffffffffffffffffffffffff\n      and\n      dup2\n      mstore\n      0x20\n      add\n      swap1\n      dup2\n      mstore\n      0x20\n      add\n      0x00\n      keccak256\n      sload\n        /* \"shoot/\\xe6\\x91\\xb8\\xe5\\xba\\x953/1/1.sol\":1817:1845  balances[receiver]+numTokens */\n      tag_105\n      swap2\n      swap1\n      tag_95\n      jump\t// in\n    tag_105:\n        /* \"shoot/\\xe6\\x91\\xb8\\xe5\\xba\\x953/1/1.sol\":1796:1804  balances */\n      0x00\n        /* \"shoot/\\xe6\\x91\\xb8\\xe5\\xba\\x953/1/1.sol\":1796:1814  balances[receiver] */\n      dup1\n        /* \"shoot/\\xe6\\x91\\xb8\\xe5\\xba\\x953/1/1.sol\":1805:1813  receiver */\n      dup6\n        /* \"shoot/\\xe6\\x91\\xb8\\xe5\\xba\\x953/1/1.sol\":1796:1814  balances[receiver] */\n      0xffffffffffffffffffffffffffffffffffffffff\n      and\n      0xffffffffffffffffffffffffffffffffffffffff\n      and\n      dup2\n      mstore\n      0x20\n      add\n      swap1\n      dup2\n      mstore\n      0x20\n      add\n      0x00\n      keccak256\n        /* \"shoot/\\xe6\\x91\\xb8\\xe5\\xba\\x953/1/1.sol\":1796:1845  balances[receiver] = balances[receiver]+numTokens */\n      dup2\n      swap1\n      sstore\n      pop\n        /* \"shoot/\\xe6\\x91\\xb8\\xe5\\xba\\x953/1/1.sol\":1882:1890  receiver */\n      dup3\n        /* \"shoot/\\xe6\\x91\\xb8\\xe5\\xba\\x953/1/1.sol\":1861:1902  Transfer(msg.sender, receiver, numTokens) */\n      0xffffffffffffffffffffffffffffffffffffffff\n      and\n        /* \"shoot/\\xe6\\x91\\xb8\\xe5\\xba\\x953/1/1.sol\":1870:1880  msg.sender */\n      caller\n        /* \"shoot/\\xe6\\x91\\xb8\\xe5\\xba\\x953/1/1.sol\":1861:1902  Transfer(msg.sender, receiver, numTokens) */\n      0xffffffffffffffffffffffffffffffffffffffff\n      and\n      0xddf252ad1be2c89b69c2b068fc378daa952ba7f163c4a11628f55a4df523b3ef\n        /* \"shoot/\\xe6\\x91\\xb8\\xe5\\xba\\x953/1/1.sol\":1892:1901  numTokens */\n      dup5\n        /* \"shoot/\\xe6\\x91\\xb8\\xe5\\xba\\x953/1/1.sol\":1861:1902  Transfer(msg.sender, receiver, numTokens) */\n      mload(0x40)\n      tag_106\n      swap2\n      swap1\n      tag_40\n      jump\t// in\n    tag_106:\n      mload(0x40)\n      dup1\n      swap2\n      sub\n      swap1\n      log3\n        /* \"shoot/\\xe6\\x91\\xb8\\xe5\\xba\\x953/1/1.sol\":1920:1924  true */\n      0x01\n        /* \"shoot/\\xe6\\x91\\xb8\\xe5\\xba\\x953/1/1.sol\":1913:1924  return true */\n      swap1\n      pop\n        /* \"shoot/\\xe6\\x91\\xb8\\xe5\\xba\\x953/1/1.sol\":1582:1932  function transfer(address receiver, uint256 numTokens) public override returns (bool) {... */\n      swap3\n      swap2\n      pop\n      pop\n      jump\t// out\n        /* \"shoot/\\xe6\\x91\\xb8\\xe5\\xba\\x953/1/1.sol\":3094:3180  function timestamp()public view returns(uint256){... */\n    tag_69:\n        /* \"shoot/\\xe6\\x91\\xb8\\xe5\\xba\\x953/1/1.sol\":3134:3141  uint256 */\n      0x00\n        /* \"shoot/\\xe6\\x91\\xb8\\xe5\\xba\\x953/1/1.sol\":3160:3172  block.number */\n      number\n        /* \"shoot/\\xe6\\x91\\xb8\\xe5\\xba\\x953/1/1.sol\":3153:3172  return block.number */\n      swap1\n      pop\n        /* \"shoot/\\xe6\\x91\\xb8\\xe5\\xba\\x953/1/1.sol\":3094:3180  function timestamp()public view returns(uint256){... */\n      swap1\n      jump\t// out\n        /* \"shoot/\\xe6\\x91\\xb8\\xe5\\xba\\x953/1/1.sol\":3516:3769  function finish()public{... */\n    tag_72:\n        /* \"shoot/\\xe6\\x91\\xb8\\xe5\\xba\\x953/1/1.sol\":3550:3571  workUser storage user */\n      0x00\n        /* \"shoot/\\xe6\\x91\\xb8\\xe5\\xba\\x953/1/1.sol\":3574:3583  workusers */\n      0x03\n        /* \"shoot/\\xe6\\x91\\xb8\\xe5\\xba\\x953/1/1.sol\":3574:3595  workusers[msg.sender] */\n      0x00\n        /* \"shoot/\\xe6\\x91\\xb8\\xe5\\xba\\x953/1/1.sol\":3584:3594  msg.sender */\n      caller\n        /* \"shoot/\\xe6\\x91\\xb8\\xe5\\xba\\x953/1/1.sol\":3574:3595  workusers[msg.sender] */\n      0xffffffffffffffffffffffffffffffffffffffff\n      and\n      0xffffffffffffffffffffffffffffffffffffffff\n      and\n      dup2\n      mstore\n      0x20\n      add\n      swap1\n      dup2\n      mstore\n      0x20\n      add\n      0x00\n      keccak256\n        /* \"shoot/\\xe6\\x91\\xb8\\xe5\\xba\\x953/1/1.sol\":3550:3595  workUser storage user = workusers[msg.sender] */\n      swap1\n      pop\n        /* \"shoot/\\xe6\\x91\\xb8\\xe5\\xba\\x953/1/1.sol\":3645:3649  user */\n      dup1\n        /* \"shoot/\\xe6\\x91\\xb8\\xe5\\xba\\x953/1/1.sol\":3645:3663  user.workingNumber */\n      0x01\n      add\n      sload\n        /* \"shoot/\\xe6\\x91\\xb8\\xe5\\xba\\x953/1/1.sol\":3628:3632  user */\n      dup2\n        /* \"shoot/\\xe6\\x91\\xb8\\xe5\\xba\\x953/1/1.sol\":3628:3644  user.startNumber */\n      0x00\n      add\n      sload\n        /* \"shoot/\\xe6\\x91\\xb8\\xe5\\xba\\x953/1/1.sol\":3628:3663  user.startNumber+user.workingNumber */\n      tag_109\n      swap2\n      swap1\n      tag_95\n      jump\t// in\n    tag_109:\n        /* \"shoot/\\xe6\\x91\\xb8\\xe5\\xba\\x953/1/1.sol\":3614:3626  block.number */\n      number\n        /* \"shoot/\\xe6\\x91\\xb8\\xe5\\xba\\x953/1/1.sol\":3614:3663  block.number>=user.startNumber+user.workingNumber */\n      lt\n      iszero\n        /* \"shoot/\\xe6\\x91\\xb8\\xe5\\xba\\x953/1/1.sol\":3606:3664  require(block.number>=user.startNumber+user.workingNumber) */\n      tag_110\n      jumpi\n      0x00\n      dup1\n      revert\n    tag_110:\n        /* \"shoot/\\xe6\\x91\\xb8\\xe5\\xba\\x953/1/1.sol\":3677:3681  this */\n      address\n        /* \"shoot/\\xe6\\x91\\xb8\\xe5\\xba\\x953/1/1.sol\":3677:3690  this.transfer */\n      0xffffffffffffffffffffffffffffffffffffffff\n      and\n      0xa9059cbb\n        /* \"shoot/\\xe6\\x91\\xb8\\xe5\\xba\\x953/1/1.sol\":3691:3701  msg.sender */\n      caller\n        /* \"shoot/\\xe6\\x91\\xb8\\xe5\\xba\\x953/1/1.sol\":3702:3706  user */\n      dup4\n        /* \"shoot/\\xe6\\x91\\xb8\\xe5\\xba\\x953/1/1.sol\":3702:3720  user.workingNumber */\n      0x01\n      add\n      sload\n        /* \"shoot/\\xe6\\x91\\xb8\\xe5\\xba\\x953/1/1.sol\":3677:3721  this.transfer(msg.sender,user.workingNumber) */\n      mload(0x40)\n      dup4\n      0xffffffff\n      and\n      0xe0\n      shl\n      dup2\n      mstore\n      0x04\n      add\n      tag_111\n      swap3\n      swap2\n      swap1\n      tag_112\n      jump\t// in\n    tag_111:\n      0x20\n      mload(0x40)\n      dup1\n      dup4\n      sub\n      dup2\n      0x00\n      dup8\n      gas\n      call\n      iszero\n      dup1\n      iszero\n      tag_114\n      jumpi\n      returndatasize\n      0x00\n      dup1\n      returndatacopy\n      revert(0x00, returndatasize)\n    tag_114:\n      pop\n      pop\n      pop\n      pop\n      mload(0x40)\n      returndatasize\n      not(0x1f)\n      0x1f\n      dup3\n      add\n      and\n      dup3\n      add\n      dup1\n      0x40\n      mstore\n      pop\n      dup2\n      add\n      swap1\n      tag_115\n      swap2\n      swap1\n      tag_116\n      jump\t// in\n    tag_115:\n      pop\n        /* \"shoot/\\xe6\\x91\\xb8\\xe5\\xba\\x953/1/1.sol\":3739:3748  workusers */\n      0x03\n        /* \"shoot/\\xe6\\x91\\xb8\\xe5\\xba\\x953/1/1.sol\":3739:3760  workusers[msg.sender] */\n      0x00\n        /* \"shoot/\\xe6\\x91\\xb8\\xe5\\xba\\x953/1/1.sol\":3749:3759  msg.sender */\n      caller\n        /* \"shoot/\\xe6\\x91\\xb8\\xe5\\xba\\x953/1/1.sol\":3739:3760  workusers[msg.sender] */\n      0xffffffffffffffffffffffffffffffffffffffff\n      and\n      0xffffffffffffffffffffffffffffffffffffffff\n      and\n      dup2\n      mstore\n      0x20\n      add\n      swap1\n      dup2\n      mstore\n      0x20\n      add\n      0x00\n      keccak256\n      0x00\n        /* \"shoot/\\xe6\\x91\\xb8\\xe5\\xba\\x953/1/1.sol\":3732:3761  delete(workusers[msg.sender]) */\n      dup1\n      dup3\n      add\n      0x00\n      swap1\n      sstore\n      0x01\n      dup3\n      add\n      0x00\n      swap1\n      sstore\n      pop\n      pop\n        /* \"shoot/\\xe6\\x91\\xb8\\xe5\\xba\\x953/1/1.sol\":3539:3769  {... */\n      pop\n        /* \"shoot/\\xe6\\x91\\xb8\\xe5\\xba\\x953/1/1.sol\":3516:3769  function finish()public{... */\n      jump\t// out\n        /* \"shoot/\\xe6\\x91\\xb8\\xe5\\xba\\x953/1/1.sol\":2172:2310  function allowance(address owner, address delegate) public override view returns (uint) {... */\n    tag_76:\n        /* \"shoot/\\xe6\\x91\\xb8\\xe5\\xba\\x953/1/1.sol\":2254:2258  uint */\n      0x00\n        /* \"shoot/\\xe6\\x91\\xb8\\xe5\\xba\\x953/1/1.sol\":2278:2285  allowed */\n      0x01\n        /* \"shoot/\\xe6\\x91\\xb8\\xe5\\xba\\x953/1/1.sol\":2278:2292  allowed[owner] */\n      0x00\n        /* \"shoot/\\xe6\\x91\\xb8\\xe5\\xba\\x953/1/1.sol\":2286:2291  owner */\n      dup5\n        /* \"shoot/\\xe6\\x91\\xb8\\xe5\\xba\\x953/1/1.sol\":2278:2292  allowed[owner] */\n      0xffffffffffffffffffffffffffffffffffffffff\n      and\n      0xffffffffffffffffffffffffffffffffffffffff\n      and\n      dup2\n      mstore\n      0x20\n      add\n      swap1\n      dup2\n      mstore\n      0x20\n      add\n      0x00\n      keccak256\n        /* \"shoot/\\xe6\\x91\\xb8\\xe5\\xba\\x953/1/1.sol\":2278:2302  allowed[owner][delegate] */\n      0x00\n        /* \"shoot/\\xe6\\x91\\xb8\\xe5\\xba\\x953/1/1.sol\":2293:2301  delegate */\n      dup4\n        /* \"shoot/\\xe6\\x91\\xb8\\xe5\\xba\\x953/1/1.sol\":2278:2302  allowed[owner][delegate] */\n      0xffffffffffffffffffffffffffffffffffffffff\n      and\n      0xffffffffffffffffffffffffffffffffffffffff\n      and\n      dup2\n      mstore\n      0x20\n      add\n      swap1\n      dup2\n      mstore\n      0x20\n      add\n      0x00\n      keccak256\n      sload\n        /* \"shoot/\\xe6\\x91\\xb8\\xe5\\xba\\x953/1/1.sol\":2271:2302  return allowed[owner][delegate] */\n      swap1\n      pop\n        /* \"shoot/\\xe6\\x91\\xb8\\xe5\\xba\\x953/1/1.sol\":2172:2310  function allowance(address owner, address delegate) public override view returns (uint) {... */\n      swap3\n      swap2\n      pop\n      pop\n      jump\t// out\n        /* \"shoot/\\xe6\\x91\\xb8\\xe5\\xba\\x953/1/1.sol\":3777:4012  function updateStart()public{... */\n    tag_79:\n        /* \"shoot/\\xe6\\x91\\xb8\\xe5\\xba\\x953/1/1.sol\":3816:3837  workUser storage user */\n      0x00\n        /* \"shoot/\\xe6\\x91\\xb8\\xe5\\xba\\x953/1/1.sol\":3840:3849  workusers */\n      0x03\n        /* \"shoot/\\xe6\\x91\\xb8\\xe5\\xba\\x953/1/1.sol\":3840:3861  workusers[msg.sender] */\n      0x00\n        /* \"shoot/\\xe6\\x91\\xb8\\xe5\\xba\\x953/1/1.sol\":3850:3860  msg.sender */\n      caller\n        /* \"shoot/\\xe6\\x91\\xb8\\xe5\\xba\\x953/1/1.sol\":3840:3861  workusers[msg.sender] */\n      0xffffffffffffffffffffffffffffffffffffffff\n      and\n      0xffffffffffffffffffffffffffffffffffffffff\n      and\n      dup2\n      mstore\n      0x20\n      add\n      swap1\n      dup2\n      mstore\n      0x20\n      add\n      0x00\n      keccak256\n        /* \"shoot/\\xe6\\x91\\xb8\\xe5\\xba\\x953/1/1.sol\":3816:3861  workUser storage user = workusers[msg.sender] */\n      swap1\n      pop\n        /* \"shoot/\\xe6\\x91\\xb8\\xe5\\xba\\x953/1/1.sol\":3919:3923  user */\n      dup1\n        /* \"shoot/\\xe6\\x91\\xb8\\xe5\\xba\\x953/1/1.sol\":3919:3935  user.startNumber */\n      0x00\n      add\n      sload\n        /* \"shoot/\\xe6\\x91\\xb8\\xe5\\xba\\x953/1/1.sol\":3894:3904  msg.sender */\n      caller\n        /* \"shoot/\\xe6\\x91\\xb8\\xe5\\xba\\x953/1/1.sol\":3880:3916  Itime(address(msg.sender)).timestamp */\n      0xffffffffffffffffffffffffffffffffffffffff\n      and\n      0xb80777ea\n        /* \"shoot/\\xe6\\x91\\xb8\\xe5\\xba\\x953/1/1.sol\":3880:3918  Itime(address(msg.sender)).timestamp() */\n      mload(0x40)\n      dup2\n      0xffffffff\n      and\n      0xe0\n      shl\n      dup2\n      mstore\n      0x04\n      add\n      0x20\n      mload(0x40)\n      dup1\n      dup4\n      sub\n      dup2\n      0x00\n      dup8\n      gas\n      call\n      iszero\n      dup1\n      iszero\n      tag_120\n      jumpi\n      returndatasize\n      0x00\n      dup1\n      returndatacopy\n      revert(0x00, returndatasize)\n    tag_120:\n      pop\n      pop\n      pop\n      pop\n      mload(0x40)\n      returndatasize\n      not(0x1f)\n      0x1f\n      dup3\n      add\n      and\n      dup3\n      add\n      dup1\n      0x40\n      mstore\n      pop\n      dup2\n      add\n      swap1\n      tag_121\n      swap2\n      swap1\n      tag_86\n      jump\t// in\n    tag_121:\n        /* \"shoot/\\xe6\\x91\\xb8\\xe5\\xba\\x953/1/1.sol\":3880:3935  Itime(address(msg.sender)).timestamp()>user.startNumber */\n      gt\n        /* \"shoot/\\xe6\\x91\\xb8\\xe5\\xba\\x953/1/1.sol\":3872:3936  require(Itime(address(msg.sender)).timestamp()>user.startNumber) */\n      tag_122\n      jumpi\n      0x00\n      dup1\n      revert\n    tag_122:\n        /* \"shoot/\\xe6\\x91\\xb8\\xe5\\xba\\x953/1/1.sol\":3980:3990  msg.sender */\n      caller\n        /* \"shoot/\\xe6\\x91\\xb8\\xe5\\xba\\x953/1/1.sol\":3966:4002  Itime(address(msg.sender)).timestamp */\n      0xffffffffffffffffffffffffffffffffffffffff\n      and\n      0xb80777ea\n        /* \"shoot/\\xe6\\x91\\xb8\\xe5\\xba\\x953/1/1.sol\":3966:4004  Itime(address(msg.sender)).timestamp() */\n      mload(0x40)\n      dup2\n      0xffffffff\n      and\n      0xe0\n      shl\n      dup2\n      mstore\n      0x04\n      add\n      0x20\n      mload(0x40)\n      dup1\n      dup4\n      sub\n      dup2\n      0x00\n      dup8\n      gas\n      call\n      iszero\n      dup1\n      iszero\n      tag_124\n      jumpi\n      returndatasize\n      0x00\n      dup1\n      returndatacopy\n      revert(0x00, returndatasize)\n    tag_124:\n      pop\n      pop\n      pop\n      pop\n      mload(0x40)\n      returndatasize\n      not(0x1f)\n      0x1f\n      dup3\n      add\n      and\n      dup3\n      add\n      dup1\n      0x40\n      mstore\n      pop\n      dup2\n      add\n      swap1\n      tag_125\n      swap2\n      swap1\n      tag_86\n      jump\t// in\n    tag_125:\n        /* \"shoot/\\xe6\\x91\\xb8\\xe5\\xba\\x953/1/1.sol\":3947:3951  user */\n      dup2\n        /* \"shoot/\\xe6\\x91\\xb8\\xe5\\xba\\x953/1/1.sol\":3947:3963  user.startNumber */\n      0x00\n      add\n        /* \"shoot/\\xe6\\x91\\xb8\\xe5\\xba\\x953/1/1.sol\":3947:4004  user.startNumber = Itime(address(msg.sender)).timestamp() */\n      dup2\n      swap1\n      sstore\n      pop\n        /* \"shoot/\\xe6\\x91\\xb8\\xe5\\xba\\x953/1/1.sol\":3805:4012  {... */\n      pop\n        /* \"shoot/\\xe6\\x91\\xb8\\xe5\\xba\\x953/1/1.sol\":3777:4012  function updateStart()public{... */\n      jump\t// out\n        /* \"#utility.yul\":88:205   */\n    tag_127:\n        /* \"#utility.yul\":197:198   */\n      0x00\n        /* \"#utility.yul\":194:195   */\n      dup1\n        /* \"#utility.yul\":187:199   */\n      revert\n        /* \"#utility.yul\":334:460   */\n    tag_129:\n        /* \"#utility.yul\":371:378   */\n      0x00\n        /* \"#utility.yul\":411:453   */\n      0xffffffffffffffffffffffffffffffffffffffff\n        /* \"#utility.yul\":404:409   */\n      dup3\n        /* \"#utility.yul\":400:454   */\n      and\n        /* \"#utility.yul\":389:454   */\n      swap1\n      pop\n        /* \"#utility.yul\":334:460   */\n      swap2\n      swap1\n      pop\n      jump\t// out\n        /* \"#utility.yul\":466:562   */\n    tag_130:\n        /* \"#utility.yul\":503:510   */\n      0x00\n        /* \"#utility.yul\":532:556   */\n      tag_157\n        /* \"#utility.yul\":550:555   */\n      dup3\n        /* \"#utility.yul\":532:556   */\n      tag_129\n      jump\t// in\n    tag_157:\n        /* \"#utility.yul\":521:556   */\n      swap1\n      pop\n        /* \"#utility.yul\":466:562   */\n      swap2\n      swap1\n      pop\n      jump\t// out\n        /* \"#utility.yul\":568:690   */\n    tag_131:\n        /* \"#utility.yul\":641:665   */\n      tag_159\n        /* \"#utility.yul\":659:664   */\n      dup2\n        /* \"#utility.yul\":641:665   */\n      tag_130\n      jump\t// in\n    tag_159:\n        /* \"#utility.yul\":634:639   */\n      dup2\n        /* \"#utility.yul\":631:666   */\n      eq\n        /* \"#utility.yul\":621:684   */\n      tag_160\n      jumpi\n        /* \"#utility.yul\":680:681   */\n      0x00\n        /* \"#utility.yul\":677:678   */\n      dup1\n        /* \"#utility.yul\":670:682   */\n      revert\n        /* \"#utility.yul\":621:684   */\n    tag_160:\n        /* \"#utility.yul\":568:690   */\n      pop\n      jump\t// out\n        /* \"#utility.yul\":696:835   */\n    tag_132:\n        /* \"#utility.yul\":742:747   */\n      0x00\n        /* \"#utility.yul\":780:786   */\n      dup2\n        /* \"#utility.yul\":767:787   */\n      calldataload\n        /* \"#utility.yul\":758:787   */\n      swap1\n      pop\n        /* \"#utility.yul\":796:829   */\n      tag_162\n        /* \"#utility.yul\":823:828   */\n      dup2\n        /* \"#utility.yul\":796:829   */\n      tag_131\n      jump\t// in\n    tag_162:\n        /* \"#utility.yul\":696:835   */\n      swap3\n      swap2\n      pop\n      pop\n      jump\t// out\n        /* \"#utility.yul\":841:1170   */\n    tag_23:\n        /* \"#utility.yul\":900:906   */\n      0x00\n        /* \"#utility.yul\":949:951   */\n      0x20\n        /* \"#utility.yul\":937:946   */\n      dup3\n        /* \"#utility.yul\":928:935   */\n      dup5\n        /* \"#utility.yul\":924:947   */\n      sub\n        /* \"#utility.yul\":920:952   */\n      slt\n        /* \"#utility.yul\":917:1036   */\n      iszero\n      tag_164\n      jumpi\n        /* \"#utility.yul\":955:1034   */\n      tag_165\n      tag_127\n      jump\t// in\n    tag_165:\n        /* \"#utility.yul\":917:1036   */\n    tag_164:\n        /* \"#utility.yul\":1075:1076   */\n      0x00\n        /* \"#utility.yul\":1100:1153   */\n      tag_166\n        /* \"#utility.yul\":1145:1152   */\n      dup5\n        /* \"#utility.yul\":1136:1142   */\n      dup3\n        /* \"#utility.yul\":1125:1134   */\n      dup6\n        /* \"#utility.yul\":1121:1143   */\n      add\n        /* \"#utility.yul\":1100:1153   */\n      tag_132\n      jump\t// in\n    tag_166:\n        /* \"#utility.yul\":1090:1153   */\n      swap2\n      pop\n        /* \"#utility.yul\":1046:1163   */\n      pop\n        /* \"#utility.yul\":841:1170   */\n      swap3\n      swap2\n      pop\n      pop\n      jump\t// out\n        /* \"#utility.yul\":1176:1253   */\n    tag_133:\n        /* \"#utility.yul\":1213:1220   */\n      0x00\n        /* \"#utility.yul\":1242:1247   */\n      dup2\n        /* \"#utility.yul\":1231:1247   */\n      swap1\n      pop\n        /* \"#utility.yul\":1176:1253   */\n      swap2\n      swap1\n      pop\n      jump\t// out\n        /* \"#utility.yul\":1259:1377   */\n    tag_134:\n        /* \"#utility.yul\":1346:1370   */\n      tag_169\n        /* \"#utility.yul\":1364:1369   */\n      dup2\n        /* \"#utility.yul\":1346:1370   */\n      tag_133\n      jump\t// in\n    tag_169:\n        /* \"#utility.yul\":1341:1344   */\n      dup3\n        /* \"#utility.yul\":1334:1371   */\n      mstore\n        /* \"#utility.yul\":1259:1377   */\n      pop\n      pop\n      jump\t// out\n        /* \"#utility.yul\":1383:1715   */\n    tag_26:\n        /* \"#utility.yul\":1504:1508   */\n      0x00\n        /* \"#utility.yul\":1542:1544   */\n      0x40\n        /* \"#utility.yul\":1531:1540   */\n      dup3\n        /* \"#utility.yul\":1527:1545   */\n      add\n        /* \"#utility.yul\":1519:1545   */\n      swap1\n      pop\n        /* \"#utility.yul\":1555:1626   */\n      tag_171\n        /* \"#utility.yul\":1623:1624   */\n      0x00\n        /* \"#utility.yul\":1612:1621   */\n      dup4\n        /* \"#utility.yul\":1608:1625   */\n      add\n        /* \"#utility.yul\":1599:1605   */\n      dup6\n        /* \"#utility.yul\":1555:1626   */\n      tag_134\n      jump\t// in\n    tag_171:\n        /* \"#utility.yul\":1636:1708   */\n      tag_172\n        /* \"#utility.yul\":1704:1706   */\n      0x20\n        /* \"#utility.yul\":1693:1702   */\n      dup4\n        /* \"#utility.yul\":1689:1707   */\n      add\n        /* \"#utility.yul\":1680:1686   */\n      dup5\n        /* \"#utility.yul\":1636:1708   */\n      tag_134\n      jump\t// in\n    tag_172:\n        /* \"#utility.yul\":1383:1715   */\n      swap4\n      swap3\n      pop\n      pop\n      pop\n      jump\t// out\n        /* \"#utility.yul\":1721:1820   */\n    tag_135:\n        /* \"#utility.yul\":1773:1779   */\n      0x00\n        /* \"#utility.yul\":1807:1812   */\n      dup2\n        /* \"#utility.yul\":1801:1813   */\n      mload\n        /* \"#utility.yul\":1791:1813   */\n      swap1\n      pop\n        /* \"#utility.yul\":1721:1820   */\n      swap2\n      swap1\n      pop\n      jump\t// out\n        /* \"#utility.yul\":1826:1995   */\n    tag_136:\n        /* \"#utility.yul\":1910:1921   */\n      0x00\n        /* \"#utility.yul\":1944:1950   */\n      dup3\n        /* \"#utility.yul\":1939:1942   */\n      dup3\n        /* \"#utility.yul\":1932:1951   */\n      mstore\n        /* \"#utility.yul\":1984:1988   */\n      0x20\n        /* \"#utility.yul\":1979:1982   */\n      dup3\n        /* \"#utility.yul\":1975:1989   */\n      add\n        /* \"#utility.yul\":1960:1989   */\n      swap1\n      pop\n        /* \"#utility.yul\":1826:1995   */\n      swap3\n      swap2\n      pop\n      pop\n      jump\t// out\n        /* \"#utility.yul\":2001:2247   */\n    tag_137:\n        /* \"#utility.yul\":2082:2083   */\n      0x00\n        /* \"#utility.yul\":2092:2205   */\n    tag_176:\n        /* \"#utility.yul\":2106:2112   */\n      dup4\n        /* \"#utility.yul\":2103:2104   */\n      dup2\n        /* \"#utility.yul\":2100:2113   */\n      lt\n        /* \"#utility.yul\":2092:2205   */\n      iszero\n      tag_178\n      jumpi\n        /* \"#utility.yul\":2191:2192   */\n      dup1\n        /* \"#utility.yul\":2186:2189   */\n      dup3\n        /* \"#utility.yul\":2182:2193   */\n      add\n        /* \"#utility.yul\":2176:2194   */\n      mload\n        /* \"#utility.yul\":2172:2173   */\n      dup2\n        /* \"#utility.yul\":2167:2170   */\n      dup5\n        /* \"#utility.yul\":2163:2174   */\n      add\n        /* \"#utility.yul\":2156:2195   */\n      mstore\n        /* \"#utility.yul\":2128:2130   */\n      0x20\n        /* \"#utility.yul\":2125:2126   */\n      dup2\n        /* \"#utility.yul\":2121:2131   */\n      add\n        /* \"#utility.yul\":2116:2131   */\n      swap1\n      pop\n        /* \"#utility.yul\":2092:2205   */\n      jump(tag_176)\n    tag_178:\n        /* \"#utility.yul\":2239:2240   */\n      0x00\n        /* \"#utility.yul\":2230:2236   */\n      dup5\n        /* \"#utility.yul\":2225:2228   */\n      dup5\n        /* \"#utility.yul\":2221:2237   */\n      add\n        /* \"#utility.yul\":2214:2241   */\n      mstore\n        /* \"#utility.yul\":2063:2247   */\n      pop\n        /* \"#utility.yul\":2001:2247   */\n      pop\n      pop\n      pop\n      jump\t// out\n        /* \"#utility.yul\":2253:2355   */\n    tag_138:\n        /* \"#utility.yul\":2294:2300   */\n      0x00\n        /* \"#utility.yul\":2345:2347   */\n      0x1f\n        /* \"#utility.yul\":2341:2348   */\n      not\n        /* \"#utility.yul\":2336:2338   */\n      0x1f\n        /* \"#utility.yul\":2329:2334   */\n      dup4\n        /* \"#utility.yul\":2325:2339   */\n      add\n        /* \"#utility.yul\":2321:2349   */\n      and\n        /* \"#utility.yul\":2311:2349   */\n      swap1\n      pop\n        /* \"#utility.yul\":2253:2355   */\n      swap2\n      swap1\n      pop\n      jump\t// out\n        /* \"#utility.yul\":2361:2738   */\n    tag_139:\n        /* \"#utility.yul\":2449:2452   */\n      0x00\n        /* \"#utility.yul\":2477:2516   */\n      tag_181\n        /* \"#utility.yul\":2510:2515   */\n      dup3\n        /* \"#utility.yul\":2477:2516   */\n      tag_135\n      jump\t// in\n    tag_181:\n        /* \"#utility.yul\":2532:2603   */\n      tag_182\n        /* \"#utility.yul\":2596:2602   */\n      dup2\n        /* \"#utility.yul\":2591:2594   */\n      dup6\n        /* \"#utility.yul\":2532:2603   */\n      tag_136\n      jump\t// in\n    tag_182:\n        /* \"#utility.yul\":2525:2603   */\n      swap4\n      pop\n        /* \"#utility.yul\":2612:2677   */\n      tag_183\n        /* \"#utility.yul\":2670:2676   */\n      dup2\n        /* \"#utility.yul\":2665:2668   */\n      dup6\n        /* \"#utility.yul\":2658:2662   */\n      0x20\n        /* \"#utility.yul\":2651:2656   */\n      dup7\n        /* \"#utility.yul\":2647:2663   */\n      add\n        /* \"#utility.yul\":2612:2677   */\n      tag_137\n      jump\t// in\n    tag_183:\n        /* \"#utility.yul\":2702:2731   */\n      tag_184\n        /* \"#utility.yul\":2724:2730   */\n      dup2\n        /* \"#utility.yul\":2702:2731   */\n      tag_138\n      jump\t// in\n    tag_184:\n        /* \"#utility.yul\":2697:2700   */\n      dup5\n        /* \"#utility.yul\":2693:2732   */\n      add\n        /* \"#utility.yul\":2686:2732   */\n      swap2\n      pop\n        /* \"#utility.yul\":2453:2738   */\n      pop\n        /* \"#utility.yul\":2361:2738   */\n      swap3\n      swap2\n      pop\n      pop\n      jump\t// out\n        /* \"#utility.yul\":2744:3057   */\n    tag_30:\n        /* \"#utility.yul\":2857:2861   */\n      0x00\n        /* \"#utility.yul\":2895:2897   */\n      0x20\n        /* \"#utility.yul\":2884:2893   */\n      dup3\n        /* \"#utility.yul\":2880:2898   */\n      add\n        /* \"#utility.yul\":2872:2898   */\n      swap1\n      pop\n        /* \"#utility.yul\":2944:2953   */\n      dup2\n        /* \"#utility.yul\":2938:2942   */\n      dup2\n        /* \"#utility.yul\":2934:2954   */\n      sub\n        /* \"#utility.yul\":2930:2931   */\n      0x00\n        /* \"#utility.yul\":2919:2928   */\n      dup4\n        /* \"#utility.yul\":2915:2932   */\n      add\n        /* \"#utility.yul\":2908:2955   */\n      mstore\n        /* \"#utility.yul\":2972:3050   */\n      tag_186\n        /* \"#utility.yul\":3045:3049   */\n      dup2\n        /* \"#utility.yul\":3036:3042   */\n      dup5\n        /* \"#utility.yul\":2972:3050   */\n      tag_139\n      jump\t// in\n    tag_186:\n        /* \"#utility.yul\":2964:3050   */\n      swap1\n      pop\n        /* \"#utility.yul\":2744:3057   */\n      swap3\n      swap2\n      pop\n      pop\n      jump\t// out\n        /* \"#utility.yul\":3063:3185   */\n    tag_140:\n        /* \"#utility.yul\":3136:3160   */\n      tag_188\n        /* \"#utility.yul\":3154:3159   */\n      dup2\n        /* \"#utility.yul\":3136:3160   */\n      tag_133\n      jump\t// in\n    tag_188:\n        /* \"#utility.yul\":3129:3134   */\n      dup2\n        /* \"#utility.yul\":3126:3161   */\n      eq\n        /* \"#utility.yul\":3116:3179   */\n      tag_189\n      jumpi\n        /* \"#utility.yul\":3175:3176   */\n      0x00\n        /* \"#utility.yul\":3172:3173   */\n      dup1\n        /* \"#utility.yul\":3165:3177   */\n      revert\n        /* \"#utility.yul\":3116:3179   */\n    tag_189:\n        /* \"#utility.yul\":3063:3185   */\n      pop\n      jump\t// out\n        /* \"#utility.yul\":3191:3330   */\n    tag_141:\n        /* \"#utility.yul\":3237:3242   */\n      0x00\n        /* \"#utility.yul\":3275:3281   */\n      dup2\n        /* \"#utility.yul\":3262:3282   */\n      calldataload\n        /* \"#utility.yul\":3253:3282   */\n      swap1\n      pop\n        /* \"#utility.yul\":3291:3324   */\n      tag_191\n        /* \"#utility.yul\":3318:3323   */\n      dup2\n        /* \"#utility.yul\":3291:3324   */\n      tag_140\n      jump\t// in\n    tag_191:\n        /* \"#utility.yul\":3191:3330   */\n      swap3\n      swap2\n      pop\n      pop\n      jump\t// out\n        /* \"#utility.yul\":3336:3810   */\n    tag_33:\n        /* \"#utility.yul\":3404:3410   */\n      0x00\n        /* \"#utility.yul\":3412:3418   */\n      dup1\n        /* \"#utility.yul\":3461:3463   */\n      0x40\n        /* \"#utility.yul\":3449:3458   */\n      dup4\n        /* \"#utility.yul\":3440:3447   */\n      dup6\n        /* \"#utility.yul\":3436:3459   */\n      sub\n        /* \"#utility.yul\":3432:3464   */\n      slt\n        /* \"#utility.yul\":3429:3548   */\n      iszero\n      tag_193\n      jumpi\n        /* \"#utility.yul\":3467:3546   */\n      tag_194\n      tag_127\n      jump\t// in\n    tag_194:\n        /* \"#utility.yul\":3429:3548   */\n    tag_193:\n        /* \"#utility.yul\":3587:3588   */\n      0x00\n        /* \"#utility.yul\":3612:3665   */\n      tag_195\n        /* \"#utility.yul\":3657:3664   */\n      dup6\n        /* \"#utility.yul\":3648:3654   */\n      dup3\n        /* \"#utility.yul\":3637:3646   */\n      dup7\n        /* \"#utility.yul\":3633:3655   */\n      add\n        /* \"#utility.yul\":3612:3665   */\n      tag_132\n      jump\t// in\n    tag_195:\n        /* \"#utility.yul\":3602:3665   */\n      swap3\n      pop\n        /* \"#utility.yul\":3558:3675   */\n      pop\n        /* \"#utility.yul\":3714:3716   */\n      0x20\n        /* \"#utility.yul\":3740:3793   */\n      tag_196\n        /* \"#utility.yul\":3785:3792   */\n      dup6\n        /* \"#utility.yul\":3776:3782   */\n      dup3\n        /* \"#utility.yul\":3765:3774   */\n      dup7\n        /* \"#utility.yul\":3761:3783   */\n      add\n        /* \"#utility.yul\":3740:3793   */\n      tag_141\n      jump\t// in\n    tag_196:\n        /* \"#utility.yul\":3730:3793   */\n      swap2\n      pop\n        /* \"#utility.yul\":3685:3803   */\n      pop\n        /* \"#utility.yul\":3336:3810   */\n      swap3\n      pop\n      swap3\n      swap1\n      pop\n      jump\t// out\n        /* \"#utility.yul\":3816:3906   */\n    tag_142:\n        /* \"#utility.yul\":3850:3857   */\n      0x00\n        /* \"#utility.yul\":3893:3898   */\n      dup2\n        /* \"#utility.yul\":3886:3899   */\n      iszero\n        /* \"#utility.yul\":3879:3900   */\n      iszero\n        /* \"#utility.yul\":3868:3900   */\n      swap1\n      pop\n        /* \"#utility.yul\":3816:3906   */\n      swap2\n      swap1\n      pop\n      jump\t// out\n        /* \"#utility.yul\":3912:4021   */\n    tag_143:\n        /* \"#utility.yul\":3993:4014   */\n      tag_199\n        /* \"#utility.yul\":4008:4013   */\n      dup2\n        /* \"#utility.yul\":3993:4014   */\n      tag_142\n      jump\t// in\n    tag_199:\n        /* \"#utility.yul\":3988:3991   */\n      dup3\n        /* \"#utility.yul\":3981:4015   */\n      mstore\n        /* \"#utility.yul\":3912:4021   */\n      pop\n      pop\n      jump\t// out\n        /* \"#utility.yul\":4027:4237   */\n    tag_36:\n        /* \"#utility.yul\":4114:4118   */\n      0x00\n        /* \"#utility.yul\":4152:4154   */\n      0x20\n        /* \"#utility.yul\":4141:4150   */\n      dup3\n        /* \"#utility.yul\":4137:4155   */\n      add\n        /* \"#utility.yul\":4129:4155   */\n      swap1\n      pop\n        /* \"#utility.yul\":4165:4230   */\n      tag_201\n        /* \"#utility.yul\":4227:4228   */\n      0x00\n        /* \"#utility.yul\":4216:4225   */\n      dup4\n        /* \"#utility.yul\":4212:4229   */\n      add\n        /* \"#utility.yul\":4203:4209   */\n      dup5\n        /* \"#utility.yul\":4165:4230   */\n      tag_143\n      jump\t// in\n    tag_201:\n        /* \"#utility.yul\":4027:4237   */\n      swap3\n      swap2\n      pop\n      pop\n      jump\t// out\n        /* \"#utility.yul\":4243:4465   */\n    tag_40:\n        /* \"#utility.yul\":4336:4340   */\n      0x00\n        /* \"#utility.yul\":4374:4376   */\n      0x20\n        /* \"#utility.yul\":4363:4372   */\n      dup3\n        /* \"#utility.yul\":4359:4377   */\n      add\n        /* \"#utility.yul\":4351:4377   */\n      swap1\n      pop\n        /* \"#utility.yul\":4387:4458   */\n      tag_203\n        /* \"#utility.yul\":4455:4456   */\n      0x00\n        /* \"#utility.yul\":4444:4453   */\n      dup4\n        /* \"#utility.yul\":4440:4457   */\n      add\n        /* \"#utility.yul\":4431:4437   */\n      dup5\n        /* \"#utility.yul\":4387:4458   */\n      tag_134\n      jump\t// in\n    tag_203:\n        /* \"#utility.yul\":4243:4465   */\n      swap3\n      swap2\n      pop\n      pop\n      jump\t// out\n        /* \"#utility.yul\":4471:5090   */\n    tag_46:\n        /* \"#utility.yul\":4548:4554   */\n      0x00\n        /* \"#utility.yul\":4556:4562   */\n      dup1\n        /* \"#utility.yul\":4564:4570   */\n      0x00\n        /* \"#utility.yul\":4613:4615   */\n      0x60\n        /* \"#utility.yul\":4601:4610   */\n      dup5\n        /* \"#utility.yul\":4592:4599   */\n      dup7\n        /* \"#utility.yul\":4588:4611   */\n      sub\n        /* \"#utility.yul\":4584:4616   */\n      slt\n        /* \"#utility.yul\":4581:4700   */\n      iszero\n      tag_205\n      jumpi\n        /* \"#utility.yul\":4619:4698   */\n      tag_206\n      tag_127\n      jump\t// in\n    tag_206:\n        /* \"#utility.yul\":4581:4700   */\n    tag_205:\n        /* \"#utility.yul\":4739:4740   */\n      0x00\n        /* \"#utility.yul\":4764:4817   */\n      tag_207\n        /* \"#utility.yul\":4809:4816   */\n      dup7\n        /* \"#utility.yul\":4800:4806   */\n      dup3\n        /* \"#utility.yul\":4789:4798   */\n      dup8\n        /* \"#utility.yul\":4785:4807   */\n      add\n        /* \"#utility.yul\":4764:4817   */\n      tag_132\n      jump\t// in\n    tag_207:\n        /* \"#utility.yul\":4754:4817   */\n      swap4\n      pop\n        /* \"#utility.yul\":4710:4827   */\n      pop\n        /* \"#utility.yul\":4866:4868   */\n      0x20\n        /* \"#utility.yul\":4892:4945   */\n      tag_208\n        /* \"#utility.yul\":4937:4944   */\n      dup7\n        /* \"#utility.yul\":4928:4934   */\n      dup3\n        /* \"#utility.yul\":4917:4926   */\n      dup8\n        /* \"#utility.yul\":4913:4935   */\n      add\n        /* \"#utility.yul\":4892:4945   */\n      tag_132\n      jump\t// in\n    tag_208:\n        /* \"#utility.yul\":4882:4945   */\n      swap3\n      pop\n        /* \"#utility.yul\":4837:4955   */\n      pop\n        /* \"#utility.yul\":4994:4996   */\n      0x40\n        /* \"#utility.yul\":5020:5073   */\n      tag_209\n        /* \"#utility.yul\":5065:5072   */\n      dup7\n        /* \"#utility.yul\":5056:5062   */\n      dup3\n        /* \"#utility.yul\":5045:5054   */\n      dup8\n        /* \"#utility.yul\":5041:5063   */\n      add\n        /* \"#utility.yul\":5020:5073   */\n      tag_141\n      jump\t// in\n    tag_209:\n        /* \"#utility.yul\":5010:5073   */\n      swap2\n      pop\n        /* \"#utility.yul\":4965:5083   */\n      pop\n        /* \"#utility.yul\":4471:5090   */\n      swap3\n      pop\n      swap3\n      pop\n      swap3\n      jump\t// out\n        /* \"#utility.yul\":5096:5182   */\n    tag_144:\n        /* \"#utility.yul\":5131:5138   */\n      0x00\n        /* \"#utility.yul\":5171:5175   */\n      0xff\n        /* \"#utility.yul\":5164:5169   */\n      dup3\n        /* \"#utility.yul\":5160:5176   */\n      and\n        /* \"#utility.yul\":5149:5176   */\n      swap1\n      pop\n        /* \"#utility.yul\":5096:5182   */\n      swap2\n      swap1\n      pop\n      jump\t// out\n        /* \"#utility.yul\":5188:5300   */\n    tag_145:\n        /* \"#utility.yul\":5271:5293   */\n      tag_212\n        /* \"#utility.yul\":5287:5292   */\n      dup2\n        /* \"#utility.yul\":5271:5293   */\n      tag_144\n      jump\t// in\n    tag_212:\n        /* \"#utility.yul\":5266:5269   */\n      dup3\n        /* \"#utility.yul\":5259:5294   */\n      mstore\n        /* \"#utility.yul\":5188:5300   */\n      pop\n      pop\n      jump\t// out\n        /* \"#utility.yul\":5306:5520   */\n    tag_52:\n        /* \"#utility.yul\":5395:5399   */\n      0x00\n        /* \"#utility.yul\":5433:5435   */\n      0x20\n        /* \"#utility.yul\":5422:5431   */\n      dup3\n        /* \"#utility.yul\":5418:5436   */\n      add\n        /* \"#utility.yul\":5410:5436   */\n      swap1\n      pop\n        /* \"#utility.yul\":5446:5513   */\n      tag_214\n        /* \"#utility.yul\":5510:5511   */\n      0x00\n        /* \"#utility.yul\":5499:5508   */\n      dup4\n        /* \"#utility.yul\":5495:5512   */\n      add\n        /* \"#utility.yul\":5486:5492   */\n      dup5\n        /* \"#utility.yul\":5446:5513   */\n      tag_145\n      jump\t// in\n    tag_214:\n        /* \"#utility.yul\":5306:5520   */\n      swap3\n      swap2\n      pop\n      pop\n      jump\t// out\n        /* \"#utility.yul\":5526:5855   */\n    tag_55:\n        /* \"#utility.yul\":5585:5591   */\n      0x00\n        /* \"#utility.yul\":5634:5636   */\n      0x20\n        /* \"#utility.yul\":5622:5631   */\n      dup3\n        /* \"#utility.yul\":5613:5620   */\n      dup5\n        /* \"#utility.yul\":5609:5632   */\n      sub\n        /* \"#utility.yul\":5605:5637   */\n      slt\n        /* \"#utility.yul\":5602:5721   */\n      iszero\n      tag_216\n      jumpi\n        /* \"#utility.yul\":5640:5719   */\n      tag_217\n      tag_127\n      jump\t// in\n    tag_217:\n        /* \"#utility.yul\":5602:5721   */\n    tag_216:\n        /* \"#utility.yul\":5760:5761   */\n      0x00\n        /* \"#utility.yul\":5785:5838   */\n      tag_218\n        /* \"#utility.yul\":5830:5837   */\n      dup5\n        /* \"#utility.yul\":5821:5827   */\n      dup3\n        /* \"#utility.yul\":5810:5819   */\n      dup6\n        /* \"#utility.yul\":5806:5828   */\n      add\n        /* \"#utility.yul\":5785:5838   */\n      tag_141\n      jump\t// in\n    tag_218:\n        /* \"#utility.yul\":5775:5838   */\n      swap2\n      pop\n        /* \"#utility.yul\":5731:5848   */\n      pop\n        /* \"#utility.yul\":5526:5855   */\n      swap3\n      swap2\n      pop\n      pop\n      jump\t// out\n        /* \"#utility.yul\":5861:6335   */\n    tag_75:\n        /* \"#utility.yul\":5929:5935   */\n      0x00\n        /* \"#utility.yul\":5937:5943   */\n      dup1\n        /* \"#utility.yul\":5986:5988   */\n      0x40\n        /* \"#utility.yul\":5974:5983   */\n      dup4\n        /* \"#utility.yul\":5965:5972   */\n      dup6\n        /* \"#utility.yul\":5961:5984   */\n      sub\n        /* \"#utility.yul\":5957:5989   */\n      slt\n        /* \"#utility.yul\":5954:6073   */\n      iszero\n      tag_220\n      jumpi\n        /* \"#utility.yul\":5992:6071   */\n      tag_221\n      tag_127\n      jump\t// in\n    tag_221:\n        /* \"#utility.yul\":5954:6073   */\n    tag_220:\n        /* \"#utility.yul\":6112:6113   */\n      0x00\n        /* \"#utility.yul\":6137:6190   */\n      tag_222\n        /* \"#utility.yul\":6182:6189   */\n      dup6\n        /* \"#utility.yul\":6173:6179   */\n      dup3\n        /* \"#utility.yul\":6162:6171   */\n      dup7\n        /* \"#utility.yul\":6158:6180   */\n      add\n        /* \"#utility.yul\":6137:6190   */\n      tag_132\n      jump\t// in\n    tag_222:\n        /* \"#utility.yul\":6127:6190   */\n      swap3\n      pop\n        /* \"#utility.yul\":6083:6200   */\n      pop\n        /* \"#utility.yul\":6239:6241   */\n      0x20\n        /* \"#utility.yul\":6265:6318   */\n      tag_223\n        /* \"#utility.yul\":6310:6317   */\n      dup6\n        /* \"#utility.yul\":6301:6307   */\n      dup3\n        /* \"#utility.yul\":6290:6299   */\n      dup7\n        /* \"#utility.yul\":6286:6308   */\n      add\n        /* \"#utility.yul\":6265:6318   */\n      tag_132\n      jump\t// in\n    tag_223:\n        /* \"#utility.yul\":6255:6318   */\n      swap2\n      pop\n        /* \"#utility.yul\":6210:6328   */\n      pop\n        /* \"#utility.yul\":5861:6335   */\n      swap3\n      pop\n      swap3\n      swap1\n      pop\n      jump\t// out\n        /* \"#utility.yul\":6341:6484   */\n    tag_146:\n        /* \"#utility.yul\":6398:6403   */\n      0x00\n        /* \"#utility.yul\":6429:6435   */\n      dup2\n        /* \"#utility.yul\":6423:6436   */\n      mload\n        /* \"#utility.yul\":6414:6436   */\n      swap1\n      pop\n        /* \"#utility.yul\":6445:6478   */\n      tag_225\n        /* \"#utility.yul\":6472:6477   */\n      dup2\n        /* \"#utility.yul\":6445:6478   */\n      tag_140\n      jump\t// in\n    tag_225:\n        /* \"#utility.yul\":6341:6484   */\n      swap3\n      swap2\n      pop\n      pop\n      jump\t// out\n        /* \"#utility.yul\":6490:6841   */\n    tag_86:\n        /* \"#utility.yul\":6560:6566   */\n      0x00\n        /* \"#utility.yul\":6609:6611   */\n      0x20\n        /* \"#utility.yul\":6597:6606   */\n      dup3\n        /* \"#utility.yul\":6588:6595   */\n      dup5\n        /* \"#utility.yul\":6584:6607   */\n      sub\n        /* \"#utility.yul\":6580:6612   */\n      slt\n        /* \"#utility.yul\":6577:6696   */\n      iszero\n      tag_227\n      jumpi\n        /* \"#utility.yul\":6615:6694   */\n      tag_228\n      tag_127\n      jump\t// in\n    tag_228:\n        /* \"#utility.yul\":6577:6696   */\n    tag_227:\n        /* \"#utility.yul\":6735:6736   */\n      0x00\n        /* \"#utility.yul\":6760:6824   */\n      tag_229\n        /* \"#utility.yul\":6816:6823   */\n      dup5\n        /* \"#utility.yul\":6807:6813   */\n      dup3\n        /* \"#utility.yul\":6796:6805   */\n      dup6\n        /* \"#utility.yul\":6792:6814   */\n      add\n        /* \"#utility.yul\":6760:6824   */\n      tag_146\n      jump\t// in\n    tag_229:\n        /* \"#utility.yul\":6750:6824   */\n      swap2\n      pop\n        /* \"#utility.yul\":6706:6834   */\n      pop\n        /* \"#utility.yul\":6490:6841   */\n      swap3\n      swap2\n      pop\n      pop\n      jump\t// out\n        /* \"#utility.yul\":6847:7027   */\n    tag_147:\n        /* \"#utility.yul\":6895:6972   */\n      0x4e487b7100000000000000000000000000000000000000000000000000000000\n        /* \"#utility.yul\":6892:6893   */\n      0x00\n        /* \"#utility.yul\":6885:6973   */\n      mstore\n        /* \"#utility.yul\":6992:6996   */\n      0x11\n        /* \"#utility.yul\":6989:6990   */\n      0x04\n        /* \"#utility.yul\":6982:6997   */\n      mstore\n        /* \"#utility.yul\":7016:7020   */\n      0x24\n        /* \"#utility.yul\":7013:7014   */\n      0x00\n        /* \"#utility.yul\":7006:7021   */\n      revert\n        /* \"#utility.yul\":7033:7227   */\n    tag_92:\n        /* \"#utility.yul\":7073:7077   */\n      0x00\n        /* \"#utility.yul\":7093:7113   */\n      tag_232\n        /* \"#utility.yul\":7111:7112   */\n      dup3\n        /* \"#utility.yul\":7093:7113   */\n      tag_133\n      jump\t// in\n    tag_232:\n        /* \"#utility.yul\":7088:7113   */\n      swap2\n      pop\n        /* \"#utility.yul\":7127:7147   */\n      tag_233\n        /* \"#utility.yul\":7145:7146   */\n      dup4\n        /* \"#utility.yul\":7127:7147   */\n      tag_133\n      jump\t// in\n    tag_233:\n        /* \"#utility.yul\":7122:7147   */\n      swap3\n      pop\n        /* \"#utility.yul\":7171:7172   */\n      dup3\n        /* \"#utility.yul\":7168:7169   */\n      dup3\n        /* \"#utility.yul\":7164:7173   */\n      sub\n        /* \"#utility.yul\":7156:7173   */\n      swap1\n      pop\n        /* \"#utility.yul\":7195:7196   */\n      dup2\n        /* \"#utility.yul\":7189:7193   */\n      dup2\n        /* \"#utility.yul\":7186:7197   */\n      gt\n        /* \"#utility.yul\":7183:7220   */\n      iszero\n      tag_234\n      jumpi\n        /* \"#utility.yul\":7200:7218   */\n      tag_235\n      tag_147\n      jump\t// in\n    tag_235:\n        /* \"#utility.yul\":7183:7220   */\n    tag_234:\n        /* \"#utility.yul\":7033:7227   */\n      swap3\n      swap2\n      pop\n      pop\n      jump\t// out\n        /* \"#utility.yul\":7233:7424   */\n    tag_95:\n        /* \"#utility.yul\":7273:7276   */\n      0x00\n        /* \"#utility.yul\":7292:7312   */\n      tag_237\n        /* \"#utility.yul\":7310:7311   */\n      dup3\n        /* \"#utility.yul\":7292:7312   */\n      tag_133\n      jump\t// in\n    tag_237:\n        /* \"#utility.yul\":7287:7312   */\n      swap2\n      pop\n        /* \"#utility.yul\":7326:7346   */\n      tag_238\n        /* \"#utility.yul\":7344:7345   */\n      dup4\n        /* \"#utility.yul\":7326:7346   */\n      tag_133\n      jump\t// in\n    tag_238:\n        /* \"#utility.yul\":7321:7346   */\n      swap3\n      pop\n        /* \"#utility.yul\":7369:7370   */\n      dup3\n        /* \"#utility.yul\":7366:7367   */\n      dup3\n        /* \"#utility.yul\":7362:7371   */\n      add\n        /* \"#utility.yul\":7355:7371   */\n      swap1\n      pop\n        /* \"#utility.yul\":7390:7393   */\n      dup1\n        /* \"#utility.yul\":7387:7388   */\n      dup3\n        /* \"#utility.yul\":7384:7394   */\n      gt\n        /* \"#utility.yul\":7381:7417   */\n      iszero\n      tag_239\n      jumpi\n        /* \"#utility.yul\":7397:7415   */\n      tag_240\n      tag_147\n      jump\t// in\n    tag_240:\n        /* \"#utility.yul\":7381:7417   */\n    tag_239:\n        /* \"#utility.yul\":7233:7424   */\n      swap3\n      swap2\n      pop\n      pop\n      jump\t// out\n        /* \"#utility.yul\":7430:7548   */\n    tag_148:\n        /* \"#utility.yul\":7517:7541   */\n      tag_242\n        /* \"#utility.yul\":7535:7540   */\n      dup2\n        /* \"#utility.yul\":7517:7541   */\n      tag_130\n      jump\t// in\n    tag_242:\n        /* \"#utility.yul\":7512:7515   */\n      dup3\n        /* \"#utility.yul\":7505:7542   */\n      mstore\n        /* \"#utility.yul\":7430:7548   */\n      pop\n      pop\n      jump\t// out\n        /* \"#utility.yul\":7554:7886   */\n    tag_112:\n        /* \"#utility.yul\":7675:7679   */\n      0x00\n        /* \"#utility.yul\":7713:7715   */\n      0x40\n        /* \"#utility.yul\":7702:7711   */\n      dup3\n        /* \"#utility.yul\":7698:7716   */\n      add\n        /* \"#utility.yul\":7690:7716   */\n      swap1\n      pop\n        /* \"#utility.yul\":7726:7797   */\n      tag_244\n        /* \"#utility.yul\":7794:7795   */\n      0x00\n        /* \"#utility.yul\":7783:7792   */\n      dup4\n        /* \"#utility.yul\":7779:7796   */\n      add\n        /* \"#utility.yul\":7770:7776   */\n      dup6\n        /* \"#utility.yul\":7726:7797   */\n      tag_148\n      jump\t// in\n    tag_244:\n        /* \"#utility.yul\":7807:7879   */\n      tag_245\n        /* \"#utility.yul\":7875:7877   */\n      0x20\n        /* \"#utility.yul\":7864:7873   */\n      dup4\n        /* \"#utility.yul\":7860:7878   */\n      add\n        /* \"#utility.yul\":7851:7857   */\n      dup5\n        /* \"#utility.yul\":7807:7879   */\n      tag_134\n      jump\t// in\n    tag_245:\n        /* \"#utility.yul\":7554:7886   */\n      swap4\n      swap3\n      pop\n      pop\n      pop\n      jump\t// out\n        /* \"#utility.yul\":7892:8008   */\n    tag_149:\n        /* \"#utility.yul\":7962:7983   */\n      tag_247\n        /* \"#utility.yul\":7977:7982   */\n      dup2\n        /* \"#utility.yul\":7962:7983   */\n      tag_142\n      jump\t// in\n    tag_247:\n        /* \"#utility.yul\":7955:7960   */\n      dup2\n        /* \"#utility.yul\":7952:7984   */\n      eq\n        /* \"#utility.yul\":7942:8002   */\n      tag_248\n      jumpi\n        /* \"#utility.yul\":7998:7999   */\n      0x00\n        /* \"#utility.yul\":7995:7996   */\n      dup1\n        /* \"#utility.yul\":7988:8000   */\n      revert\n        /* \"#utility.yul\":7942:8002   */\n    tag_248:\n        /* \"#utility.yul\":7892:8008   */\n      pop\n      jump\t// out\n        /* \"#utility.yul\":8014:8151   */\n    tag_150:\n        /* \"#utility.yul\":8068:8073   */\n      0x00\n        /* \"#utility.yul\":8099:8105   */\n      dup2\n        /* \"#utility.yul\":8093:8106   */\n      mload\n        /* \"#utility.yul\":8084:8106   */\n      swap1\n      pop\n        /* \"#utility.yul\":8115:8145   */\n      tag_250\n        /* \"#utility.yul\":8139:8144   */\n      dup2\n        /* \"#utility.yul\":8115:8145   */\n      tag_149\n      jump\t// in\n    tag_250:\n        /* \"#utility.yul\":8014:8151   */\n      swap3\n      swap2\n      pop\n      pop\n      jump\t// out\n        /* \"#utility.yul\":8157:8502   */\n    tag_116:\n        /* \"#utility.yul\":8224:8230   */\n      0x00\n        /* \"#utility.yul\":8273:8275   */\n      0x20\n        /* \"#utility.yul\":8261:8270   */\n      dup3\n        /* \"#utility.yul\":8252:8259   */\n      dup5\n        /* \"#utility.yul\":8248:8271   */\n      sub\n        /* \"#utility.yul\":8244:8276   */\n      slt\n        /* \"#utility.yul\":8241:8360   */\n      iszero\n      tag_252\n      jumpi\n        /* \"#utility.yul\":8279:8358   */\n      tag_253\n      tag_127\n      jump\t// in\n    tag_253:\n        /* \"#utility.yul\":8241:8360   */\n    tag_252:\n        /* \"#utility.yul\":8399:8400   */\n      0x00\n        /* \"#utility.yul\":8424:8485   */\n      tag_254\n        /* \"#utility.yul\":8477:8484   */\n      dup5\n        /* \"#utility.yul\":8468:8474   */\n      dup3\n        /* \"#utility.yul\":8457:8466   */\n      dup6\n        /* \"#utility.yul\":8453:8475   */\n      add\n        /* \"#utility.yul\":8424:8485   */\n      tag_150\n      jump\t// in\n    tag_254:\n        /* \"#utility.yul\":8414:8485   */\n      swap2\n      pop\n        /* \"#utility.yul\":8370:8495   */\n      pop\n        /* \"#utility.yul\":8157:8502   */\n      swap3\n      swap2\n      pop\n      pop\n      jump\t// out\n\n    auxdata: 0xa2646970667358221220e8b72e648cb5a09636aee385d9c1ef499277670342874d148976cd5ca177f3d664736f6c63430008150033\n}\n",
				"bytecode": {
					"linkReferences": {},
					"object": "6080604052683635c9adc5dea000006002553480156200001d575f80fd5b506200003030436200003660201b60201c565b62000118565b805f808473ffffffffffffffffffffffffffffffffffffffff1673ffffffffffffffffffffffffffffffffffffffff1681526020019081526020015f205f828254620000839190620000de565b925050819055508060025f8282546200009d9190620000de565b925050819055505050565b5f819050919050565b7f4e487b71000000000000000000000000000000000000000000000000000000005f52601160045260245ffd5b5f620000ea82620000a8565b9150620000f783620000a8565b9250828201905080821115620001125762000111620000b1565b5b92915050565b6112a980620001265f395ff3fe608060405234801561000f575f80fd5b50600436106100f3575f3560e01c80635858d16111610095578063b80777ea11610064578063b80777ea1461029a578063d56b2889146102b8578063dd62ed3e146102c2578063e320bee5146102f2576100f3565b80635858d1611461020057806370a082311461021c57806395d89b411461024c578063a9059cbb1461026a576100f3565b80630b74974d116100d15780630b74974d1461017657806318160ddd1461019457806323b872dd146101b2578063313ce567146101e2576100f3565b80630168c11e146100f757806306fdde0314610128578063095ea7b314610146575b5f80fd5b610111600480360381019061010c9190610e61565b6102fc565b60405161011f929190610ea4565b60405180910390f35b61013061031c565b60405161013d9190610f55565b60405180910390f35b610160600480360381019061015b9190610f9f565b610355565b60405161016d9190610ff7565b60405180910390f35b61017e610442565b60405161018b9190611010565b60405180910390f35b61019c6104b6565b6040516101a99190611010565b60405180910390f35b6101cc60048036038101906101c79190611029565b6104bf565b6040516101d99190610ff7565b60405180910390f35b6101ea61080c565b6040516101f79190611094565b60405180910390f35b61021a600480360381019061021591906110ad565b610811565b005b61023660048036038101906102319190610e61565b6108d3565b6040516102439190611010565b60405180910390f35b610254610918565b6040516102619190610f55565b60405180910390f35b610284600480360381019061027f9190610f9f565b610951565b6040516102919190610ff7565b60405180910390f35b6102a2610b19565b6040516102af9190611010565b60405180910390f35b6102c0610b20565b005b6102dc60048036038101906102d791906110d8565b610c4e565b6040516102e99190611010565b60405180910390f35b6102fa610cd0565b005b6003602052805f5260405f205f91509050805f0154908060010154905082565b6040518060400160405280600581526020017f455243323000000000000000000000000000000000000000000000000000000081525081565b5f8160015f3373ffffffffffffffffffffffffffffffffffffffff1673ffffffffffffffffffffffffffffffffffffffff1681526020019081526020015f205f8573ffffffffffffffffffffffffffffffffffffffff1673ffffffffffffffffffffffffffffffffffffffff1681526020019081526020015f20819055508273ffffffffffffffffffffffffffffffffffffffff163373ffffffffffffffffffffffffffffffffffffffff167f8c5be1e5ebec7d5bd14f71427d1e84f3dd0314c0f7b2291e5b200ac8c7c3b925846040516104309190611010565b60405180910390a36001905092915050565b5f3073ffffffffffffffffffffffffffffffffffffffff1663b80777ea6040518163ffffffff1660e01b81526004016020604051808303815f875af115801561048d573d5f803e3d5ffd5b505050506040513d601f19601f820116820180604052508101906104b1919061112a565b905090565b5f600254905090565b5f805f8573ffffffffffffffffffffffffffffffffffffffff1673ffffffffffffffffffffffffffffffffffffffff1681526020019081526020015f2054821115610508575f80fd5b60015f8573ffffffffffffffffffffffffffffffffffffffff1673ffffffffffffffffffffffffffffffffffffffff1681526020019081526020015f205f3373ffffffffffffffffffffffffffffffffffffffff1673ffffffffffffffffffffffffffffffffffffffff1681526020019081526020015f205482111561058c575f80fd5b815f808673ffffffffffffffffffffffffffffffffffffffff1673ffffffffffffffffffffffffffffffffffffffff1681526020019081526020015f20546105d49190611182565b5f808673ffffffffffffffffffffffffffffffffffffffff1673ffffffffffffffffffffffffffffffffffffffff1681526020019081526020015f20819055508160015f8673ffffffffffffffffffffffffffffffffffffffff1673ffffffffffffffffffffffffffffffffffffffff1681526020019081526020015f205f3373ffffffffffffffffffffffffffffffffffffffff1673ffffffffffffffffffffffffffffffffffffffff1681526020019081526020015f20546106989190611182565b60015f8673ffffffffffffffffffffffffffffffffffffffff1673ffffffffffffffffffffffffffffffffffffffff1681526020019081526020015f205f3373ffffffffffffffffffffffffffffffffffffffff1673ffffffffffffffffffffffffffffffffffffffff1681526020019081526020015f2081905550815f808573ffffffffffffffffffffffffffffffffffffffff1673ffffffffffffffffffffffffffffffffffffffff1681526020019081526020015f205461075c91906111b5565b5f808573ffffffffffffffffffffffffffffffffffffffff1673ffffffffffffffffffffffffffffffffffffffff1681526020019081526020015f20819055508273ffffffffffffffffffffffffffffffffffffffff168473ffffffffffffffffffffffffffffffffffffffff167fddf252ad1be2c89b69c2b068fc378daa952ba7f163c4a11628f55a4df523b3ef846040516107f99190611010565b60405180910390a3600190509392505050565b601281565b5f60035f3373ffffffffffffffffffffffffffffffffffffffff1673ffffffffffffffffffffffffffffffffffffffff1681526020019081526020015f2090503073ffffffffffffffffffffffffffffffffffffffff1663b80777ea6040518163ffffffff1660e01b81526004016020604051808303815f875af115801561089b573d5f803e3d5ffd5b505050506040513d601f19601f820116820180604052508101906108bf919061112a565b815f01819055508181600101819055505050565b5f805f8373ffffffffffffffffffffffffffffffffffffffff1673ffffffffffffffffffffffffffffffffffffffff1681526020019081526020015f20549050919050565b6040518060400160405280600381526020017f455243000000000000000000000000000000000000000000000000000000000081525081565b5f805f3373ffffffffffffffffffffffffffffffffffffffff1673ffffffffffffffffffffffffffffffffffffffff1681526020019081526020015f205482111561099a575f80fd5b815f803373ffffffffffffffffffffffffffffffffffffffff1673ffffffffffffffffffffffffffffffffffffffff1681526020019081526020015f20546109e29190611182565b5f803373ffffffffffffffffffffffffffffffffffffffff1673ffffffffffffffffffffffffffffffffffffffff1681526020019081526020015f2081905550815f808573ffffffffffffffffffffffffffffffffffffffff1673ffffffffffffffffffffffffffffffffffffffff1681526020019081526020015f2054610a6a91906111b5565b5f808573ffffffffffffffffffffffffffffffffffffffff1673ffffffffffffffffffffffffffffffffffffffff1681526020019081526020015f20819055508273ffffffffffffffffffffffffffffffffffffffff163373ffffffffffffffffffffffffffffffffffffffff167fddf252ad1be2c89b69c2b068fc378daa952ba7f163c4a11628f55a4df523b3ef84604051610b079190611010565b60405180910390a36001905092915050565b5f43905090565b5f60035f3373ffffffffffffffffffffffffffffffffffffffff1673ffffffffffffffffffffffffffffffffffffffff1681526020019081526020015f2090508060010154815f0154610b7391906111b5565b431015610b7e575f80fd5b3073ffffffffffffffffffffffffffffffffffffffff1663a9059cbb3383600101546040518363ffffffff1660e01b8152600401610bbd9291906111f7565b6020604051808303815f875af1158015610bd9573d5f803e3d5ffd5b505050506040513d601f19601f82011682018060405250810190610bfd9190611248565b5060035f3373ffffffffffffffffffffffffffffffffffffffff1673ffffffffffffffffffffffffffffffffffffffff1681526020019081526020015f205f8082015f9055600182015f9055505050565b5f60015f8473ffffffffffffffffffffffffffffffffffffffff1673ffffffffffffffffffffffffffffffffffffffff1681526020019081526020015f205f8373ffffffffffffffffffffffffffffffffffffffff1673ffffffffffffffffffffffffffffffffffffffff1681526020019081526020015f2054905092915050565b5f60035f3373ffffffffffffffffffffffffffffffffffffffff1673ffffffffffffffffffffffffffffffffffffffff1681526020019081526020015f209050805f01543373ffffffffffffffffffffffffffffffffffffffff1663b80777ea6040518163ffffffff1660e01b81526004016020604051808303815f875af1158015610d5e573d5f803e3d5ffd5b505050506040513d601f19601f82011682018060405250810190610d82919061112a565b11610d8b575f80fd5b3373ffffffffffffffffffffffffffffffffffffffff1663b80777ea6040518163ffffffff1660e01b81526004016020604051808303815f875af1158015610dd5573d5f803e3d5ffd5b505050506040513d601f19601f82011682018060405250810190610df9919061112a565b815f018190555050565b5f80fd5b5f73ffffffffffffffffffffffffffffffffffffffff82169050919050565b5f610e3082610e07565b9050919050565b610e4081610e26565b8114610e4a575f80fd5b50565b5f81359050610e5b81610e37565b92915050565b5f60208284031215610e7657610e75610e03565b5b5f610e8384828501610e4d565b91505092915050565b5f819050919050565b610e9e81610e8c565b82525050565b5f604082019050610eb75f830185610e95565b610ec46020830184610e95565b9392505050565b5f81519050919050565b5f82825260208201905092915050565b5f5b83811015610f02578082015181840152602081019050610ee7565b5f8484015250505050565b5f601f19601f8301169050919050565b5f610f2782610ecb565b610f318185610ed5565b9350610f41818560208601610ee5565b610f4a81610f0d565b840191505092915050565b5f6020820190508181035f830152610f6d8184610f1d565b905092915050565b610f7e81610e8c565b8114610f88575f80fd5b50565b5f81359050610f9981610f75565b92915050565b5f8060408385031215610fb557610fb4610e03565b5b5f610fc285828601610e4d565b9250506020610fd385828601610f8b565b9150509250929050565b5f8115159050919050565b610ff181610fdd565b82525050565b5f60208201905061100a5f830184610fe8565b92915050565b5f6020820190506110235f830184610e95565b92915050565b5f805f606084860312156110405761103f610e03565b5b5f61104d86828701610e4d565b935050602061105e86828701610e4d565b925050604061106f86828701610f8b565b9150509250925092565b5f60ff82169050919050565b61108e81611079565b82525050565b5f6020820190506110a75f830184611085565b92915050565b5f602082840312156110c2576110c1610e03565b5b5f6110cf84828501610f8b565b91505092915050565b5f80604083850312156110ee576110ed610e03565b5b5f6110fb85828601610e4d565b925050602061110c85828601610e4d565b9150509250929050565b5f8151905061112481610f75565b92915050565b5f6020828403121561113f5761113e610e03565b5b5f61114c84828501611116565b91505092915050565b7f4e487b71000000000000000000000000000000000000000000000000000000005f52601160045260245ffd5b5f61118c82610e8c565b915061119783610e8c565b92508282039050818111156111af576111ae611155565b5b92915050565b5f6111bf82610e8c565b91506111ca83610e8c565b92508282019050808211156111e2576111e1611155565b5b92915050565b6111f181610e26565b82525050565b5f60408201905061120a5f8301856111e8565b6112176020830184610e95565b9392505050565b61122781610fdd565b8114611231575f80fd5b50565b5f815190506112428161121e565b92915050565b5f6020828403121561125d5761125c610e03565b5b5f61126a84828501611234565b9150509291505056fea2646970667358221220e8b72e648cb5a09636aee385d9c1ef499277670342874d148976cd5ca177f3d664736f6c63430008150033",
					"opcodes": "PUSH1 0x80 PUSH1 0x40 MSTORE PUSH9 0x3635C9ADC5DEA00000 PUSH1 0x2 SSTORE CALLVALUE DUP1 ISZERO PUSH3 0x1D JUMPI PUSH0 DUP1 REVERT JUMPDEST POP PUSH3 0x30 ADDRESS NUMBER PUSH3 0x36 PUSH1 0x20 SHL PUSH1 0x20 SHR JUMP JUMPDEST PUSH3 0x118 JUMP JUMPDEST DUP1 PUSH0 DUP1 DUP5 PUSH20 0xFFFFFFFFFFFFFFFFFFFFFFFFFFFFFFFFFFFFFFFF AND PUSH20 0xFFFFFFFFFFFFFFFFFFFFFFFFFFFFFFFFFFFFFFFF AND DUP2 MSTORE PUSH1 0x20 ADD SWAP1 DUP2 MSTORE PUSH1 0x20 ADD PUSH0 KECCAK256 PUSH0 DUP3 DUP3 SLOAD PUSH3 0x83 SWAP2 SWAP1 PUSH3 0xDE JUMP JUMPDEST SWAP3 POP POP DUP2 SWAP1 SSTORE POP DUP1 PUSH1 0x2 PUSH0 DUP3 DUP3 SLOAD PUSH3 0x9D SWAP2 SWAP1 PUSH3 0xDE JUMP JUMPDEST SWAP3 POP POP DUP2 SWAP1 SSTORE POP POP POP JUMP JUMPDEST PUSH0 DUP2 SWAP1 POP SWAP2 SWAP1 POP JUMP JUMPDEST PUSH32 0x4E487B7100000000000000000000000000000000000000000000000000000000 PUSH0 MSTORE PUSH1 0x11 PUSH1 0x4 MSTORE PUSH1 0x24 PUSH0 REVERT JUMPDEST PUSH0 PUSH3 0xEA DUP3 PUSH3 0xA8 JUMP JUMPDEST SWAP2 POP PUSH3 0xF7 DUP4 PUSH3 0xA8 JUMP JUMPDEST SWAP3 POP DUP3 DUP3 ADD SWAP1 POP DUP1 DUP3 GT ISZERO PUSH3 0x112 JUMPI PUSH3 0x111 PUSH3 0xB1 JUMP JUMPDEST JUMPDEST SWAP3 SWAP2 POP POP JUMP JUMPDEST PUSH2 0x12A9 DUP1 PUSH3 0x126 PUSH0 CODECOPY PUSH0 RETURN INVALID PUSH1 0x80 PUSH1 0x40 MSTORE CALLVALUE DUP1 ISZERO PUSH2 0xF JUMPI PUSH0 DUP1 REVERT JUMPDEST POP PUSH1 0x4 CALLDATASIZE LT PUSH2 0xF3 JUMPI PUSH0 CALLDATALOAD PUSH1 0xE0 SHR DUP1 PUSH4 0x5858D161 GT PUSH2 0x95 JUMPI DUP1 PUSH4 0xB80777EA GT PUSH2 0x64 JUMPI DUP1 PUSH4 0xB80777EA EQ PUSH2 0x29A JUMPI DUP1 PUSH4 0xD56B2889 EQ PUSH2 0x2B8 JUMPI DUP1 PUSH4 0xDD62ED3E EQ PUSH2 0x2C2 JUMPI DUP1 PUSH4 0xE320BEE5 EQ PUSH2 0x2F2 JUMPI PUSH2 0xF3 JUMP JUMPDEST DUP1 PUSH4 0x5858D161 EQ PUSH2 0x200 JUMPI DUP1 PUSH4 0x70A08231 EQ PUSH2 0x21C JUMPI DUP1 PUSH4 0x95D89B41 EQ PUSH2 0x24C JUMPI DUP1 PUSH4 0xA9059CBB EQ PUSH2 0x26A JUMPI PUSH2 0xF3 JUMP JUMPDEST DUP1 PUSH4 0xB74974D GT PUSH2 0xD1 JUMPI DUP1 PUSH4 0xB74974D EQ PUSH2 0x176 JUMPI DUP1 PUSH4 0x18160DDD EQ PUSH2 0x194 JUMPI DUP1 PUSH4 0x23B872DD EQ PUSH2 0x1B2 JUMPI DUP1 PUSH4 0x313CE567 EQ PUSH2 0x1E2 JUMPI PUSH2 0xF3 JUMP JUMPDEST DUP1 PUSH4 0x168C11E EQ PUSH2 0xF7 JUMPI DUP1 PUSH4 0x6FDDE03 EQ PUSH2 0x128 JUMPI DUP1 PUSH4 0x95EA7B3 EQ PUSH2 0x146 JUMPI JUMPDEST PUSH0 DUP1 REVERT JUMPDEST PUSH2 0x111 PUSH1 0x4 DUP1 CALLDATASIZE SUB DUP2 ADD SWAP1 PUSH2 0x10C SWAP2 SWAP1 PUSH2 0xE61 JUMP JUMPDEST PUSH2 0x2FC JUMP JUMPDEST PUSH1 0x40 MLOAD PUSH2 0x11F SWAP3 SWAP2 SWAP1 PUSH2 0xEA4 JUMP JUMPDEST PUSH1 0x40 MLOAD DUP1 SWAP2 SUB SWAP1 RETURN JUMPDEST PUSH2 0x130 PUSH2 0x31C JUMP JUMPDEST PUSH1 0x40 MLOAD PUSH2 0x13D SWAP2 SWAP1 PUSH2 0xF55 JUMP JUMPDEST PUSH1 0x40 MLOAD DUP1 SWAP2 SUB SWAP1 RETURN JUMPDEST PUSH2 0x160 PUSH1 0x4 DUP1 CALLDATASIZE SUB DUP2 ADD SWAP1 PUSH2 0x15B SWAP2 SWAP1 PUSH2 0xF9F JUMP JUMPDEST PUSH2 0x355 JUMP JUMPDEST PUSH1 0x40 MLOAD PUSH2 0x16D SWAP2 SWAP1 PUSH2 0xFF7 JUMP JUMPDEST PUSH1 0x40 MLOAD DUP1 SWAP2 SUB SWAP1 RETURN JUMPDEST PUSH2 0x17E PUSH2 0x442 JUMP JUMPDEST PUSH1 0x40 MLOAD PUSH2 0x18B SWAP2 SWAP1 PUSH2 0x1010 JUMP JUMPDEST PUSH1 0x40 MLOAD DUP1 SWAP2 SUB SWAP1 RETURN JUMPDEST PUSH2 0x19C PUSH2 0x4B6 JUMP JUMPDEST PUSH1 0x40 MLOAD PUSH2 0x1A9 SWAP2 SWAP1 PUSH2 0x1010 JUMP JUMPDEST PUSH1 0x40 MLOAD DUP1 SWAP2 SUB SWAP1 RETURN JUMPDEST PUSH2 0x1CC PUSH1 0x4 DUP1 CALLDATASIZE SUB DUP2 ADD SWAP1 PUSH2 0x1C7 SWAP2 SWAP1 PUSH2 0x1029 JUMP JUMPDEST PUSH2 0x4BF JUMP JUMPDEST PUSH1 0x40 MLOAD PUSH2 0x1D9 SWAP2 SWAP1 PUSH2 0xFF7 JUMP JUMPDEST PUSH1 0x40 MLOAD DUP1 SWAP2 SUB SWAP1 RETURN JUMPDEST PUSH2 0x1EA PUSH2 0x80C JUMP JUMPDEST PUSH1 0x40 MLOAD PUSH2 0x1F7 SWAP2 SWAP1 PUSH2 0x1094 JUMP JUMPDEST PUSH1 0x40 MLOAD DUP1 SWAP2 SUB SWAP1 RETURN JUMPDEST PUSH2 0x21A PUSH1 0x4 DUP1 CALLDATASIZE SUB DUP2 ADD SWAP1 PUSH2 0x215 SWAP2 SWAP1 PUSH2 0x10AD JUMP JUMPDEST PUSH2 0x811 JUMP JUMPDEST STOP JUMPDEST PUSH2 0x236 PUSH1 0x4 DUP1 CALLDATASIZE SUB DUP2 ADD SWAP1 PUSH2 0x231 SWAP2 SWAP1 PUSH2 0xE61 JUMP JUMPDEST PUSH2 0x8D3 JUMP JUMPDEST PUSH1 0x40 MLOAD PUSH2 0x243 SWAP2 SWAP1 PUSH2 0x1010 JUMP JUMPDEST PUSH1 0x40 MLOAD DUP1 SWAP2 SUB SWAP1 RETURN JUMPDEST PUSH2 0x254 PUSH2 0x918 JUMP JUMPDEST PUSH1 0x40 MLOAD PUSH2 0x261 SWAP2 SWAP1 PUSH2 0xF55 JUMP JUMPDEST PUSH1 0x40 MLOAD DUP1 SWAP2 SUB SWAP1 RETURN JUMPDEST PUSH2 0x284 PUSH1 0x4 DUP1 CALLDATASIZE SUB DUP2 ADD SWAP1 PUSH2 0x27F SWAP2 SWAP1 PUSH2 0xF9F JUMP JUMPDEST PUSH2 0x951 JUMP JUMPDEST PUSH1 0x40 MLOAD PUSH2 0x291 SWAP2 SWAP1 PUSH2 0xFF7 JUMP JUMPDEST PUSH1 0x40 MLOAD DUP1 SWAP2 SUB SWAP1 RETURN JUMPDEST PUSH2 0x2A2 PUSH2 0xB19 JUMP JUMPDEST PUSH1 0x40 MLOAD PUSH2 0x2AF SWAP2 SWAP1 PUSH2 0x1010 JUMP JUMPDEST PUSH1 0x40 MLOAD DUP1 SWAP2 SUB SWAP1 RETURN JUMPDEST PUSH2 0x2C0 PUSH2 0xB20 JUMP JUMPDEST STOP JUMPDEST PUSH2 0x2DC PUSH1 0x4 DUP1 CALLDATASIZE SUB DUP2 ADD SWAP1 PUSH2 0x2D7 SWAP2 SWAP1 PUSH2 0x10D8 JUMP JUMPDEST PUSH2 0xC4E JUMP JUMPDEST PUSH1 0x40 MLOAD PUSH2 0x2E9 SWAP2 SWAP1 PUSH2 0x1010 JUMP JUMPDEST PUSH1 0x40 MLOAD DUP1 SWAP2 SUB SWAP1 RETURN JUMPDEST PUSH2 0x2FA PUSH2 0xCD0 JUMP JUMPDEST STOP JUMPDEST PUSH1 0x3 PUSH1 0x20 MSTORE DUP1 PUSH0 MSTORE PUSH1 0x40 PUSH0 KECCAK256 PUSH0 SWAP2 POP SWAP1 POP DUP1 PUSH0 ADD SLOAD SWAP1 DUP1 PUSH1 0x1 ADD SLOAD SWAP1 POP DUP3 JUMP JUMPDEST PUSH1 0x40 MLOAD DUP1 PUSH1 0x40 ADD PUSH1 0x40 MSTORE DUP1 PUSH1 0x5 DUP2 MSTORE PUSH1 0x20 ADD PUSH32 0x4552433230000000000000000000000000000000000000000000000000000000 DUP2 MSTORE POP DUP2 JUMP JUMPDEST PUSH0 DUP2 PUSH1 0x1 PUSH0 CALLER PUSH20 0xFFFFFFFFFFFFFFFFFFFFFFFFFFFFFFFFFFFFFFFF AND PUSH20 0xFFFFFFFFFFFFFFFFFFFFFFFFFFFFFFFFFFFFFFFF AND DUP2 MSTORE PUSH1 0x20 ADD SWAP1 DUP2 MSTORE PUSH1 0x20 ADD PUSH0 KECCAK256 PUSH0 DUP6 PUSH20 0xFFFFFFFFFFFFFFFFFFFFFFFFFFFFFFFFFFFFFFFF AND PUSH20 0xFFFFFFFFFFFFFFFFFFFFFFFFFFFFFFFFFFFFFFFF AND DUP2 MSTORE PUSH1 0x20 ADD SWAP1 DUP2 MSTORE PUSH1 0x20 ADD PUSH0 KECCAK256 DUP2 SWAP1 SSTORE POP DUP3 PUSH20 0xFFFFFFFFFFFFFFFFFFFFFFFFFFFFFFFFFFFFFFFF AND CALLER PUSH20 0xFFFFFFFFFFFFFFFFFFFFFFFFFFFFFFFFFFFFFFFF AND PUSH32 0x8C5BE1E5EBEC7D5BD14F71427D1E84F3DD0314C0F7B2291E5B200AC8C7C3B925 DUP5 PUSH1 0x40 MLOAD PUSH2 0x430 SWAP2 SWAP1 PUSH2 0x1010 JUMP JUMPDEST PUSH1 0x40 MLOAD DUP1 SWAP2 SUB SWAP1 LOG3 PUSH1 0x1 SWAP1 POP SWAP3 SWAP2 POP POP JUMP JUMPDEST PUSH0 ADDRESS PUSH20 0xFFFFFFFFFFFFFFFFFFFFFFFFFFFFFFFFFFFFFFFF AND PUSH4 0xB80777EA PUSH1 0x40 MLOAD DUP2 PUSH4 0xFFFFFFFF AND PUSH1 0xE0 SHL DUP2 MSTORE PUSH1 0x4 ADD PUSH1 0x20 PUSH1 0x40 MLOAD DUP1 DUP4 SUB DUP2 PUSH0 DUP8 GAS CALL ISZERO DUP1 ISZERO PUSH2 0x48D JUMPI RETURNDATASIZE PUSH0 DUP1 RETURNDATACOPY RETURNDATASIZE PUSH0 REVERT JUMPDEST POP POP POP POP PUSH1 0x40 MLOAD RETURNDATASIZE PUSH1 0x1F NOT PUSH1 0x1F DUP3 ADD AND DUP3 ADD DUP1 PUSH1 0x40 MSTORE POP DUP2 ADD SWAP1 PUSH2 0x4B1 SWAP2 SWAP1 PUSH2 0x112A JUMP JUMPDEST SWAP1 POP SWAP1 JUMP JUMPDEST PUSH0 PUSH1 0x2 SLOAD SWAP1 POP SWAP1 JUMP JUMPDEST PUSH0 DUP1 PUSH0 DUP6 PUSH20 0xFFFFFFFFFFFFFFFFFFFFFFFFFFFFFFFFFFFFFFFF AND PUSH20 0xFFFFFFFFFFFFFFFFFFFFFFFFFFFFFFFFFFFFFFFF AND DUP2 MSTORE PUSH1 0x20 ADD SWAP1 DUP2 MSTORE PUSH1 0x20 ADD PUSH0 KECCAK256 SLOAD DUP3 GT ISZERO PUSH2 0x508 JUMPI PUSH0 DUP1 REVERT JUMPDEST PUSH1 0x1 PUSH0 DUP6 PUSH20 0xFFFFFFFFFFFFFFFFFFFFFFFFFFFFFFFFFFFFFFFF AND PUSH20 0xFFFFFFFFFFFFFFFFFFFFFFFFFFFFFFFFFFFFFFFF AND DUP2 MSTORE PUSH1 0x20 ADD SWAP1 DUP2 MSTORE PUSH1 0x20 ADD PUSH0 KECCAK256 PUSH0 CALLER PUSH20 0xFFFFFFFFFFFFFFFFFFFFFFFFFFFFFFFFFFFFFFFF AND PUSH20 0xFFFFFFFFFFFFFFFFFFFFFFFFFFFFFFFFFFFFFFFF AND DUP2 MSTORE PUSH1 0x20 ADD SWAP1 DUP2 MSTORE PUSH1 0x20 ADD PUSH0 KECCAK256 SLOAD DUP3 GT ISZERO PUSH2 0x58C JUMPI PUSH0 DUP1 REVERT JUMPDEST DUP2 PUSH0 DUP1 DUP7 PUSH20 0xFFFFFFFFFFFFFFFFFFFFFFFFFFFFFFFFFFFFFFFF AND PUSH20 0xFFFFFFFFFFFFFFFFFFFFFFFFFFFFFFFFFFFFFFFF AND DUP2 MSTORE PUSH1 0x20 ADD SWAP1 DUP2 MSTORE PUSH1 0x20 ADD PUSH0 KECCAK256 SLOAD PUSH2 0x5D4 SWAP2 SWAP1 PUSH2 0x1182 JUMP JUMPDEST PUSH0 DUP1 DUP7 PUSH20 0xFFFFFFFFFFFFFFFFFFFFFFFFFFFFFFFFFFFFFFFF AND PUSH20 0xFFFFFFFFFFFFFFFFFFFFFFFFFFFFFFFFFFFFFFFF AND DUP2 MSTORE PUSH1 0x20 ADD SWAP1 DUP2 MSTORE PUSH1 0x20 ADD PUSH0 KECCAK256 DUP2 SWAP1 SSTORE POP DUP2 PUSH1 0x1 PUSH0 DUP7 PUSH20 0xFFFFFFFFFFFFFFFFFFFFFFFFFFFFFFFFFFFFFFFF AND PUSH20 0xFFFFFFFFFFFFFFFFFFFFFFFFFFFFFFFFFFFFFFFF AND DUP2 MSTORE PUSH1 0x20 ADD SWAP1 DUP2 MSTORE PUSH1 0x20 ADD PUSH0 KECCAK256 PUSH0 CALLER PUSH20 0xFFFFFFFFFFFFFFFFFFFFFFFFFFFFFFFFFFFFFFFF AND PUSH20 0xFFFFFFFFFFFFFFFFFFFFFFFFFFFFFFFFFFFFFFFF AND DUP2 MSTORE PUSH1 0x20 ADD SWAP1 DUP2 MSTORE PUSH1 0x20 ADD PUSH0 KECCAK256 SLOAD PUSH2 0x698 SWAP2 SWAP1 PUSH2 0x1182 JUMP JUMPDEST PUSH1 0x1 PUSH0 DUP7 PUSH20 0xFFFFFFFFFFFFFFFFFFFFFFFFFFFFFFFFFFFFFFFF AND PUSH20 0xFFFFFFFFFFFFFFFFFFFFFFFFFFFFFFFFFFFFFFFF AND DUP2 MSTORE PUSH1 0x20 ADD SWAP1 DUP2 MSTORE PUSH1 0x20 ADD PUSH0 KECCAK256 PUSH0 CALLER PUSH20 0xFFFFFFFFFFFFFFFFFFFFFFFFFFFFFFFFFFFFFFFF AND PUSH20 0xFFFFFFFFFFFFFFFFFFFFFFFFFFFFFFFFFFFFFFFF AND DUP2 MSTORE PUSH1 0x20 ADD SWAP1 DUP2 MSTORE PUSH1 0x20 ADD PUSH0 KECCAK256 DUP2 SWAP1 SSTORE POP DUP2 PUSH0 DUP1 DUP6 PUSH20 0xFFFFFFFFFFFFFFFFFFFFFFFFFFFFFFFFFFFFFFFF AND PUSH20 0xFFFFFFFFFFFFFFFFFFFFFFFFFFFFFFFFFFFFFFFF AND DUP2 MSTORE PUSH1 0x20 ADD SWAP1 DUP2 MSTORE PUSH1 0x20 ADD PUSH0 KECCAK256 SLOAD PUSH2 0x75C SWAP2 SWAP1 PUSH2 0x11B5 JUMP JUMPDEST PUSH0 DUP1 DUP6 PUSH20 0xFFFFFFFFFFFFFFFFFFFFFFFFFFFFFFFFFFFFFFFF AND PUSH20 0xFFFFFFFFFFFFFFFFFFFFFFFFFFFFFFFFFFFFFFFF AND DUP2 MSTORE PUSH1 0x20 ADD SWAP1 DUP2 MSTORE PUSH1 0x20 ADD PUSH0 KECCAK256 DUP2 SWAP1 SSTORE POP DUP3 PUSH20 0xFFFFFFFFFFFFFFFFFFFFFFFFFFFFFFFFFFFFFFFF AND DUP5 PUSH20 0xFFFFFFFFFFFFFFFFFFFFFFFFFFFFFFFFFFFFFFFF AND PUSH32 0xDDF252AD1BE2C89B69C2B068FC378DAA952BA7F163C4A11628F55A4DF523B3EF DUP5 PUSH1 0x40 MLOAD PUSH2 0x7F9 SWAP2 SWAP1 PUSH2 0x1010 JUMP JUMPDEST PUSH1 0x40 MLOAD DUP1 SWAP2 SUB SWAP1 LOG3 PUSH1 0x1 SWAP1 POP SWAP4 SWAP3 POP POP POP JUMP JUMPDEST PUSH1 0x12 DUP2 JUMP JUMPDEST PUSH0 PUSH1 0x3 PUSH0 CALLER PUSH20 0xFFFFFFFFFFFFFFFFFFFFFFFFFFFFFFFFFFFFFFFF AND PUSH20 0xFFFFFFFFFFFFFFFFFFFFFFFFFFFFFFFFFFFFFFFF AND DUP2 MSTORE PUSH1 0x20 ADD SWAP1 DUP2 MSTORE PUSH1 0x20 ADD PUSH0 KECCAK256 SWAP1 POP ADDRESS PUSH20 0xFFFFFFFFFFFFFFFFFFFFFFFFFFFFFFFFFFFFFFFF AND PUSH4 0xB80777EA PUSH1 0x40 MLOAD DUP2 PUSH4 0xFFFFFFFF AND PUSH1 0xE0 SHL DUP2 MSTORE PUSH1 0x4 ADD PUSH1 0x20 PUSH1 0x40 MLOAD DUP1 DUP4 SUB DUP2 PUSH0 DUP8 GAS CALL ISZERO DUP1 ISZERO PUSH2 0x89B JUMPI RETURNDATASIZE PUSH0 DUP1 RETURNDATACOPY RETURNDATASIZE PUSH0 REVERT JUMPDEST POP POP POP POP PUSH1 0x40 MLOAD RETURNDATASIZE PUSH1 0x1F NOT PUSH1 0x1F DUP3 ADD AND DUP3 ADD DUP1 PUSH1 0x40 MSTORE POP DUP2 ADD SWAP1 PUSH2 0x8BF SWAP2 SWAP1 PUSH2 0x112A JUMP JUMPDEST DUP2 PUSH0 ADD DUP2 SWAP1 SSTORE POP DUP2 DUP2 PUSH1 0x1 ADD DUP2 SWAP1 SSTORE POP POP POP JUMP JUMPDEST PUSH0 DUP1 PUSH0 DUP4 PUSH20 0xFFFFFFFFFFFFFFFFFFFFFFFFFFFFFFFFFFFFFFFF AND PUSH20 0xFFFFFFFFFFFFFFFFFFFFFFFFFFFFFFFFFFFFFFFF AND DUP2 MSTORE PUSH1 0x20 ADD SWAP1 DUP2 MSTORE PUSH1 0x20 ADD PUSH0 KECCAK256 SLOAD SWAP1 POP SWAP2 SWAP1 POP JUMP JUMPDEST PUSH1 0x40 MLOAD DUP1 PUSH1 0x40 ADD PUSH1 0x40 MSTORE DUP1 PUSH1 0x3 DUP2 MSTORE PUSH1 0x20 ADD PUSH32 0x4552430000000000000000000000000000000000000000000000000000000000 DUP2 MSTORE POP DUP2 JUMP JUMPDEST PUSH0 DUP1 PUSH0 CALLER PUSH20 0xFFFFFFFFFFFFFFFFFFFFFFFFFFFFFFFFFFFFFFFF AND PUSH20 0xFFFFFFFFFFFFFFFFFFFFFFFFFFFFFFFFFFFFFFFF AND DUP2 MSTORE PUSH1 0x20 ADD SWAP1 DUP2 MSTORE PUSH1 0x20 ADD PUSH0 KECCAK256 SLOAD DUP3 GT ISZERO PUSH2 0x99A JUMPI PUSH0 DUP1 REVERT JUMPDEST DUP2 PUSH0 DUP1 CALLER PUSH20 0xFFFFFFFFFFFFFFFFFFFFFFFFFFFFFFFFFFFFFFFF AND PUSH20 0xFFFFFFFFFFFFFFFFFFFFFFFFFFFFFFFFFFFFFFFF AND DUP2 MSTORE PUSH1 0x20 ADD SWAP1 DUP2 MSTORE PUSH1 0x20 ADD PUSH0 KECCAK256 SLOAD PUSH2 0x9E2 SWAP2 SWAP1 PUSH2 0x1182 JUMP JUMPDEST PUSH0 DUP1 CALLER PUSH20 0xFFFFFFFFFFFFFFFFFFFFFFFFFFFFFFFFFFFFFFFF AND PUSH20 0xFFFFFFFFFFFFFFFFFFFFFFFFFFFFFFFFFFFFFFFF AND DUP2 MSTORE PUSH1 0x20 ADD SWAP1 DUP2 MSTORE PUSH1 0x20 ADD PUSH0 KECCAK256 DUP2 SWAP1 SSTORE POP DUP2 PUSH0 DUP1 DUP6 PUSH20 0xFFFFFFFFFFFFFFFFFFFFFFFFFFFFFFFFFFFFFFFF AND PUSH20 0xFFFFFFFFFFFFFFFFFFFFFFFFFFFFFFFFFFFFFFFF AND DUP2 MSTORE PUSH1 0x20 ADD SWAP1 DUP2 MSTORE PUSH1 0x20 ADD PUSH0 KECCAK256 SLOAD PUSH2 0xA6A SWAP2 SWAP1 PUSH2 0x11B5 JUMP JUMPDEST PUSH0 DUP1 DUP6 PUSH20 0xFFFFFFFFFFFFFFFFFFFFFFFFFFFFFFFFFFFFFFFF AND PUSH20 0xFFFFFFFFFFFFFFFFFFFFFFFFFFFFFFFFFFFFFFFF AND DUP2 MSTORE PUSH1 0x20 ADD SWAP1 DUP2 MSTORE PUSH1 0x20 ADD PUSH0 KECCAK256 DUP2 SWAP1 SSTORE POP DUP3 PUSH20 0xFFFFFFFFFFFFFFFFFFFFFFFFFFFFFFFFFFFFFFFF AND CALLER PUSH20 0xFFFFFFFFFFFFFFFFFFFFFFFFFFFFFFFFFFFFFFFF AND PUSH32 0xDDF252AD1BE2C89B69C2B068FC378DAA952BA7F163C4A11628F55A4DF523B3EF DUP5 PUSH1 0x40 MLOAD PUSH2 0xB07 SWAP2 SWAP1 PUSH2 0x1010 JUMP JUMPDEST PUSH1 0x40 MLOAD DUP1 SWAP2 SUB SWAP1 LOG3 PUSH1 0x1 SWAP1 POP SWAP3 SWAP2 POP POP JUMP JUMPDEST PUSH0 NUMBER SWAP1 POP SWAP1 JUMP JUMPDEST PUSH0 PUSH1 0x3 PUSH0 CALLER PUSH20 0xFFFFFFFFFFFFFFFFFFFFFFFFFFFFFFFFFFFFFFFF AND PUSH20 0xFFFFFFFFFFFFFFFFFFFFFFFFFFFFFFFFFFFFFFFF AND DUP2 MSTORE PUSH1 0x20 ADD SWAP1 DUP2 MSTORE PUSH1 0x20 ADD PUSH0 KECCAK256 SWAP1 POP DUP1 PUSH1 0x1 ADD SLOAD DUP2 PUSH0 ADD SLOAD PUSH2 0xB73 SWAP2 SWAP1 PUSH2 0x11B5 JUMP JUMPDEST NUMBER LT ISZERO PUSH2 0xB7E JUMPI PUSH0 DUP1 REVERT JUMPDEST ADDRESS PUSH20 0xFFFFFFFFFFFFFFFFFFFFFFFFFFFFFFFFFFFFFFFF AND PUSH4 0xA9059CBB CALLER DUP4 PUSH1 0x1 ADD SLOAD PUSH1 0x40 MLOAD DUP4 PUSH4 0xFFFFFFFF AND PUSH1 0xE0 SHL DUP2 MSTORE PUSH1 0x4 ADD PUSH2 0xBBD SWAP3 SWAP2 SWAP1 PUSH2 0x11F7 JUMP JUMPDEST PUSH1 0x20 PUSH1 0x40 MLOAD DUP1 DUP4 SUB DUP2 PUSH0 DUP8 GAS CALL ISZERO DUP1 ISZERO PUSH2 0xBD9 JUMPI RETURNDATASIZE PUSH0 DUP1 RETURNDATACOPY RETURNDATASIZE PUSH0 REVERT JUMPDEST POP POP POP POP PUSH1 0x40 MLOAD RETURNDATASIZE PUSH1 0x1F NOT PUSH1 0x1F DUP3 ADD AND DUP3 ADD DUP1 PUSH1 0x40 MSTORE POP DUP2 ADD SWAP1 PUSH2 0xBFD SWAP2 SWAP1 PUSH2 0x1248 JUMP JUMPDEST POP PUSH1 0x3 PUSH0 CALLER PUSH20 0xFFFFFFFFFFFFFFFFFFFFFFFFFFFFFFFFFFFFFFFF AND PUSH20 0xFFFFFFFFFFFFFFFFFFFFFFFFFFFFFFFFFFFFFFFF AND DUP2 MSTORE PUSH1 0x20 ADD SWAP1 DUP2 MSTORE PUSH1 0x20 ADD PUSH0 KECCAK256 PUSH0 DUP1 DUP3 ADD PUSH0 SWAP1 SSTORE PUSH1 0x1 DUP3 ADD PUSH0 SWAP1 SSTORE POP POP POP JUMP JUMPDEST PUSH0 PUSH1 0x1 PUSH0 DUP5 PUSH20 0xFFFFFFFFFFFFFFFFFFFFFFFFFFFFFFFFFFFFFFFF AND PUSH20 0xFFFFFFFFFFFFFFFFFFFFFFFFFFFFFFFFFFFFFFFF AND DUP2 MSTORE PUSH1 0x20 ADD SWAP1 DUP2 MSTORE PUSH1 0x20 ADD PUSH0 KECCAK256 PUSH0 DUP4 PUSH20 0xFFFFFFFFFFFFFFFFFFFFFFFFFFFFFFFFFFFFFFFF AND PUSH20 0xFFFFFFFFFFFFFFFFFFFFFFFFFFFFFFFFFFFFFFFF AND DUP2 MSTORE PUSH1 0x20 ADD SWAP1 DUP2 MSTORE PUSH1 0x20 ADD PUSH0 KECCAK256 SLOAD SWAP1 POP SWAP3 SWAP2 POP POP JUMP JUMPDEST PUSH0 PUSH1 0x3 PUSH0 CALLER PUSH20 0xFFFFFFFFFFFFFFFFFFFFFFFFFFFFFFFFFFFFFFFF AND PUSH20 0xFFFFFFFFFFFFFFFFFFFFFFFFFFFFFFFFFFFFFFFF AND DUP2 MSTORE PUSH1 0x20 ADD SWAP1 DUP2 MSTORE PUSH1 0x20 ADD PUSH0 KECCAK256 SWAP1 POP DUP1 PUSH0 ADD SLOAD CALLER PUSH20 0xFFFFFFFFFFFFFFFFFFFFFFFFFFFFFFFFFFFFFFFF AND PUSH4 0xB80777EA PUSH1 0x40 MLOAD DUP2 PUSH4 0xFFFFFFFF AND PUSH1 0xE0 SHL DUP2 MSTORE PUSH1 0x4 ADD PUSH1 0x20 PUSH1 0x40 MLOAD DUP1 DUP4 SUB DUP2 PUSH0 DUP8 GAS CALL ISZERO DUP1 ISZERO PUSH2 0xD5E JUMPI RETURNDATASIZE PUSH0 DUP1 RETURNDATACOPY RETURNDATASIZE PUSH0 REVERT JUMPDEST POP POP POP POP PUSH1 0x40 MLOAD RETURNDATASIZE PUSH1 0x1F NOT PUSH1 0x1F DUP3 ADD AND DUP3 ADD DUP1 PUSH1 0x40 MSTORE POP DUP2 ADD SWAP1 PUSH2 0xD82 SWAP2 SWAP1 PUSH2 0x112A JUMP JUMPDEST GT PUSH2 0xD8B JUMPI PUSH0 DUP1 REVERT JUMPDEST CALLER PUSH20 0xFFFFFFFFFFFFFFFFFFFFFFFFFFFFFFFFFFFFFFFF AND PUSH4 0xB80777EA PUSH1 0x40 MLOAD DUP2 PUSH4 0xFFFFFFFF AND PUSH1 0xE0 SHL DUP2 MSTORE PUSH1 0x4 ADD PUSH1 0x20 PUSH1 0x40 MLOAD DUP1 DUP4 SUB DUP2 PUSH0 DUP8 GAS CALL ISZERO DUP1 ISZERO PUSH2 0xDD5 JUMPI RETURNDATASIZE PUSH0 DUP1 RETURNDATACOPY RETURNDATASIZE PUSH0 REVERT JUMPDEST POP POP POP POP PUSH1 0x40 MLOAD RETURNDATASIZE PUSH1 0x1F NOT PUSH1 0x1F DUP3 ADD AND DUP3 ADD DUP1 PUSH1 0x40 MSTORE POP DUP2 ADD SWAP1 PUSH2 0xDF9 SWAP2 SWAP1 PUSH2 0x112A JUMP JUMPDEST DUP2 PUSH0 ADD DUP2 SWAP1 SSTORE POP POP JUMP JUMPDEST PUSH0 DUP1 REVERT JUMPDEST PUSH0 PUSH20 0xFFFFFFFFFFFFFFFFFFFFFFFFFFFFFFFFFFFFFFFF DUP3 AND SWAP1 POP SWAP2 SWAP1 POP JUMP JUMPDEST PUSH0 PUSH2 0xE30 DUP3 PUSH2 0xE07 JUMP JUMPDEST SWAP1 POP SWAP2 SWAP1 POP JUMP JUMPDEST PUSH2 0xE40 DUP2 PUSH2 0xE26 JUMP JUMPDEST DUP2 EQ PUSH2 0xE4A JUMPI PUSH0 DUP1 REVERT JUMPDEST POP JUMP JUMPDEST PUSH0 DUP2 CALLDATALOAD SWAP1 POP PUSH2 0xE5B DUP2 PUSH2 0xE37 JUMP JUMPDEST SWAP3 SWAP2 POP POP JUMP JUMPDEST PUSH0 PUSH1 0x20 DUP3 DUP5 SUB SLT ISZERO PUSH2 0xE76 JUMPI PUSH2 0xE75 PUSH2 0xE03 JUMP JUMPDEST JUMPDEST PUSH0 PUSH2 0xE83 DUP5 DUP3 DUP6 ADD PUSH2 0xE4D JUMP JUMPDEST SWAP2 POP POP SWAP3 SWAP2 POP POP JUMP JUMPDEST PUSH0 DUP2 SWAP1 POP SWAP2 SWAP1 POP JUMP JUMPDEST PUSH2 0xE9E DUP2 PUSH2 0xE8C JUMP JUMPDEST DUP3 MSTORE POP POP JUMP JUMPDEST PUSH0 PUSH1 0x40 DUP3 ADD SWAP1 POP PUSH2 0xEB7 PUSH0 DUP4 ADD DUP6 PUSH2 0xE95 JUMP JUMPDEST PUSH2 0xEC4 PUSH1 0x20 DUP4 ADD DUP5 PUSH2 0xE95 JUMP JUMPDEST SWAP4 SWAP3 POP POP POP JUMP JUMPDEST PUSH0 DUP2 MLOAD SWAP1 POP SWAP2 SWAP1 POP JUMP JUMPDEST PUSH0 DUP3 DUP3 MSTORE PUSH1 0x20 DUP3 ADD SWAP1 POP SWAP3 SWAP2 POP POP JUMP JUMPDEST PUSH0 JUMPDEST DUP4 DUP2 LT ISZERO PUSH2 0xF02 JUMPI DUP1 DUP3 ADD MLOAD DUP2 DUP5 ADD MSTORE PUSH1 0x20 DUP2 ADD SWAP1 POP PUSH2 0xEE7 JUMP JUMPDEST PUSH0 DUP5 DUP5 ADD MSTORE POP POP POP POP JUMP JUMPDEST PUSH0 PUSH1 0x1F NOT PUSH1 0x1F DUP4 ADD AND SWAP1 POP SWAP2 SWAP1 POP JUMP JUMPDEST PUSH0 PUSH2 0xF27 DUP3 PUSH2 0xECB JUMP JUMPDEST PUSH2 0xF31 DUP2 DUP6 PUSH2 0xED5 JUMP JUMPDEST SWAP4 POP PUSH2 0xF41 DUP2 DUP6 PUSH1 0x20 DUP7 ADD PUSH2 0xEE5 JUMP JUMPDEST PUSH2 0xF4A DUP2 PUSH2 0xF0D JUMP JUMPDEST DUP5 ADD SWAP2 POP POP SWAP3 SWAP2 POP POP JUMP JUMPDEST PUSH0 PUSH1 0x20 DUP3 ADD SWAP1 POP DUP2 DUP2 SUB PUSH0 DUP4 ADD MSTORE PUSH2 0xF6D DUP2 DUP5 PUSH2 0xF1D JUMP JUMPDEST SWAP1 POP SWAP3 SWAP2 POP POP JUMP JUMPDEST PUSH2 0xF7E DUP2 PUSH2 0xE8C JUMP JUMPDEST DUP2 EQ PUSH2 0xF88 JUMPI PUSH0 DUP1 REVERT JUMPDEST POP JUMP JUMPDEST PUSH0 DUP2 CALLDATALOAD SWAP1 POP PUSH2 0xF99 DUP2 PUSH2 0xF75 JUMP JUMPDEST SWAP3 SWAP2 POP POP JUMP JUMPDEST PUSH0 DUP1 PUSH1 0x40 DUP4 DUP6 SUB SLT ISZERO PUSH2 0xFB5 JUMPI PUSH2 0xFB4 PUSH2 0xE03 JUMP JUMPDEST JUMPDEST PUSH0 PUSH2 0xFC2 DUP6 DUP3 DUP7 ADD PUSH2 0xE4D JUMP JUMPDEST SWAP3 POP POP PUSH1 0x20 PUSH2 0xFD3 DUP6 DUP3 DUP7 ADD PUSH2 0xF8B JUMP JUMPDEST SWAP2 POP POP SWAP3 POP SWAP3 SWAP1 POP JUMP JUMPDEST PUSH0 DUP2 ISZERO ISZERO SWAP1 POP SWAP2 SWAP1 POP JUMP JUMPDEST PUSH2 0xFF1 DUP2 PUSH2 0xFDD JUMP JUMPDEST DUP3 MSTORE POP POP JUMP JUMPDEST PUSH0 PUSH1 0x20 DUP3 ADD SWAP1 POP PUSH2 0x100A PUSH0 DUP4 ADD DUP5 PUSH2 0xFE8 JUMP JUMPDEST SWAP3 SWAP2 POP POP JUMP JUMPDEST PUSH0 PUSH1 0x20 DUP3 ADD SWAP1 POP PUSH2 0x1023 PUSH0 DUP4 ADD DUP5 PUSH2 0xE95 JUMP JUMPDEST SWAP3 SWAP2 POP POP JUMP JUMPDEST PUSH0 DUP1 PUSH0 PUSH1 0x60 DUP5 DUP7 SUB SLT ISZERO PUSH2 0x1040 JUMPI PUSH2 0x103F PUSH2 0xE03 JUMP JUMPDEST JUMPDEST PUSH0 PUSH2 0x104D DUP7 DUP3 DUP8 ADD PUSH2 0xE4D JUMP JUMPDEST SWAP4 POP POP PUSH1 0x20 PUSH2 0x105E DUP7 DUP3 DUP8 ADD PUSH2 0xE4D JUMP JUMPDEST SWAP3 POP POP PUSH1 0x40 PUSH2 0x106F DUP7 DUP3 DUP8 ADD PUSH2 0xF8B JUMP JUMPDEST SWAP2 POP POP SWAP3 POP SWAP3 POP SWAP3 JUMP JUMPDEST PUSH0 PUSH1 0xFF DUP3 AND SWAP1 POP SWAP2 SWAP1 POP JUMP JUMPDEST PUSH2 0x108E DUP2 PUSH2 0x1079 JUMP JUMPDEST DUP3 MSTORE POP POP JUMP JUMPDEST PUSH0 PUSH1 0x20 DUP3 ADD SWAP1 POP PUSH2 0x10A7 PUSH0 DUP4 ADD DUP5 PUSH2 0x1085 JUMP JUMPDEST SWAP3 SWAP2 POP POP JUMP JUMPDEST PUSH0 PUSH1 0x20 DUP3 DUP5 SUB SLT ISZERO PUSH2 0x10C2 JUMPI PUSH2 0x10C1 PUSH2 0xE03 JUMP JUMPDEST JUMPDEST PUSH0 PUSH2 0x10CF DUP5 DUP3 DUP6 ADD PUSH2 0xF8B JUMP JUMPDEST SWAP2 POP POP SWAP3 SWAP2 POP POP JUMP JUMPDEST PUSH0 DUP1 PUSH1 0x40 DUP4 DUP6 SUB SLT ISZERO PUSH2 0x10EE JUMPI PUSH2 0x10ED PUSH2 0xE03 JUMP JUMPDEST JUMPDEST PUSH0 PUSH2 0x10FB DUP6 DUP3 DUP7 ADD PUSH2 0xE4D JUMP JUMPDEST SWAP3 POP POP PUSH1 0x20 PUSH2 0x110C DUP6 DUP3 DUP7 ADD PUSH2 0xE4D JUMP JUMPDEST SWAP2 POP POP SWAP3 POP SWAP3 SWAP1 POP JUMP JUMPDEST PUSH0 DUP2 MLOAD SWAP1 POP PUSH2 0x1124 DUP2 PUSH2 0xF75 JUMP JUMPDEST SWAP3 SWAP2 POP POP JUMP JUMPDEST PUSH0 PUSH1 0x20 DUP3 DUP5 SUB SLT ISZERO PUSH2 0x113F JUMPI PUSH2 0x113E PUSH2 0xE03 JUMP JUMPDEST JUMPDEST PUSH0 PUSH2 0x114C DUP5 DUP3 DUP6 ADD PUSH2 0x1116 JUMP JUMPDEST SWAP2 POP POP SWAP3 SWAP2 POP POP JUMP JUMPDEST PUSH32 0x4E487B7100000000000000000000000000000000000000000000000000000000 PUSH0 MSTORE PUSH1 0x11 PUSH1 0x4 MSTORE PUSH1 0x24 PUSH0 REVERT JUMPDEST PUSH0 PUSH2 0x118C DUP3 PUSH2 0xE8C JUMP JUMPDEST SWAP2 POP PUSH2 0x1197 DUP4 PUSH2 0xE8C JUMP JUMPDEST SWAP3 POP DUP3 DUP3 SUB SWAP1 POP DUP2 DUP2 GT ISZERO PUSH2 0x11AF JUMPI PUSH2 0x11AE PUSH2 0x1155 JUMP JUMPDEST JUMPDEST SWAP3 SWAP2 POP POP JUMP JUMPDEST PUSH0 PUSH2 0x11BF DUP3 PUSH2 0xE8C JUMP JUMPDEST SWAP2 POP PUSH2 0x11CA DUP4 PUSH2 0xE8C JUMP JUMPDEST SWAP3 POP DUP3 DUP3 ADD SWAP1 POP DUP1 DUP3 GT ISZERO PUSH2 0x11E2 JUMPI PUSH2 0x11E1 PUSH2 0x1155 JUMP JUMPDEST JUMPDEST SWAP3 SWAP2 POP POP JUMP JUMPDEST PUSH2 0x11F1 DUP2 PUSH2 0xE26 JUMP JUMPDEST DUP3 MSTORE POP POP JUMP JUMPDEST PUSH0 PUSH1 0x40 DUP3 ADD SWAP1 POP PUSH2 0x120A PUSH0 DUP4 ADD DUP6 PUSH2 0x11E8 JUMP JUMPDEST PUSH2 0x1217 PUSH1 0x20 DUP4 ADD DUP5 PUSH2 0xE95 JUMP JUMPDEST SWAP4 SWAP3 POP POP POP JUMP JUMPDEST PUSH2 0x1227 DUP2 PUSH2 0xFDD JUMP JUMPDEST DUP2 EQ PUSH2 0x1231 JUMPI PUSH0 DUP1 REVERT JUMPDEST POP JUMP JUMPDEST PUSH0 DUP2 MLOAD SWAP1 POP PUSH2 0x1242 DUP2 PUSH2 0x121E JUMP JUMPDEST SWAP3 SWAP2 POP POP JUMP JUMPDEST PUSH0 PUSH1 0x20 DUP3 DUP5 SUB SLT ISZERO PUSH2 0x125D JUMPI PUSH2 0x125C PUSH2 0xE03 JUMP JUMPDEST JUMPDEST PUSH0 PUSH2 0x126A DUP5 DUP3 DUP6 ADD PUSH2 0x1234 JUMP JUMPDEST SWAP2 POP POP SWAP3 SWAP2 POP POP JUMP INVALID LOG2 PUSH5 0x6970667358 0x22 SLT KECCAK256 0xE8 0xB7 0x2E PUSH5 0x8CB5A09636 0xAE 0xE3 DUP6 0xD9 0xC1 0xEF 0x49 SWAP3 PUSH24 0x670342874D148976CD5CA177F3D664736F6C634300081500 CALLER "
				},
				"gasEstimates": {
					"creation": {
						"codeDepositCost": "955400",
						"executionCost": "infinite",
						"totalCost": "infinite"
					},
					"external": {
						"allowance(address,address)": "infinite",
						"approve(address,uint256)": "infinite",
						"balanceOf(address)": "2874",
						"decimals()": "420",
						"finish()": "infinite",
						"itimestamp()": "infinite",
						"name()": "infinite",
						"symbol()": "infinite",
						"timestamp()": "353",
						"totalSupply()": "2477",
						"transfer(address,uint256)": "infinite",
						"transferFrom(address,address,uint256)": "infinite",
						"updateStart()": "infinite",
						"work(uint256)": "infinite",
						"workusers(address)": "infinite"
					}
				},
				"methodIdentifiers": {
					"allowance(address,address)": "dd62ed3e",
					"approve(address,uint256)": "095ea7b3",
					"balanceOf(address)": "70a08231",
					"decimals()": "313ce567",
					"finish()": "d56b2889",
					"itimestamp()": "0b74974d",
					"name()": "06fdde03",
					"symbol()": "95d89b41",
					"timestamp()": "b80777ea",
					"totalSupply()": "18160ddd",
					"transfer(address,uint256)": "a9059cbb",
					"transferFrom(address,address,uint256)": "23b872dd",
					"updateStart()": "e320bee5",
					"work(uint256)": "5858d161",
					"workusers(address)": "0168c11e"
				}
			},
			"storageLayout": {
				"storage": [
					{
						"astId": 89,
						"contract": "shoot/摸底3/1/1.sol:worker",
						"label": "balances",
						"offset": 0,
						"slot": "0",
						"type": "t_mapping(t_address,t_uint256)"
					},
					{
						"astId": 95,
						"contract": "shoot/摸底3/1/1.sol:worker",
						"label": "allowed",
						"offset": 0,
						"slot": "1",
						"type": "t_mapping(t_address,t_mapping(t_address,t_uint256))"
					},
					{
						"astId": 98,
						"contract": "shoot/摸底3/1/1.sol:worker",
						"label": "totalSupply_",
						"offset": 0,
						"slot": "2",
						"type": "t_uint256"
					},
					{
						"astId": 328,
						"contract": "shoot/摸底3/1/1.sol:worker",
						"label": "workusers",
						"offset": 0,
						"slot": "3",
						"type": "t_mapping(t_address,t_struct(workUser)323_storage)"
					}
				],
				"types": {
					"t_address": {
						"encoding": "inplace",
						"label": "address",
						"numberOfBytes": "20"
					},
					"t_mapping(t_address,t_mapping(t_address,t_uint256))": {
						"encoding": "mapping",
						"key": "t_address",
						"label": "mapping(address => mapping(address => uint256))",
						"numberOfBytes": "32",
						"value": "t_mapping(t_address,t_uint256)"
					},
					"t_mapping(t_address,t_struct(workUser)323_storage)": {
						"encoding": "mapping",
						"key": "t_address",
						"label": "mapping(address => struct worker.workUser)",
						"numberOfBytes": "32",
						"value": "t_struct(workUser)323_storage"
					},
					"t_mapping(t_address,t_uint256)": {
						"encoding": "mapping",
						"key": "t_address",
						"label": "mapping(address => uint256)",
						"numberOfBytes": "32",
						"value": "t_uint256"
					},
					"t_struct(workUser)323_storage": {
						"encoding": "inplace",
						"label": "struct worker.workUser",
						"members": [
							{
								"astId": 320,
								"contract": "shoot/摸底3/1/1.sol:worker",
								"label": "startNumber",
								"offset": 0,
								"slot": "0",
								"type": "t_uint256"
							},
							{
								"astId": 322,
								"contract": "shoot/摸底3/1/1.sol:worker",
								"label": "workingNumber",
								"offset": 0,
								"slot": "1",
								"type": "t_uint256"
							}
						],
						"numberOfBytes": "64"
					},
					"t_uint256": {
						"encoding": "inplace",
						"label": "uint256",
						"numberOfBytes": "32"
					}
				}
			},
			"userdoc": {
				"kind": "user",
				"methods": {},
				"version": 1
			}
		}
	}
}