{
	"shoot/摸底3/1/1.sol": {
		"check": {
			"abi": [
				{
					"anonymous": false,
					"inputs": [
						{
							"indexed": true,
							"internalType": "address",
							"name": "owner",
							"type": "address"
						},
						{
							"indexed": true,
							"internalType": "address",
							"name": "spender",
							"type": "address"
						},
						{
							"indexed": false,
							"internalType": "uint256",
							"name": "value",
							"type": "uint256"
						}
					],
					"name": "Approval",
					"type": "event"
				},
				{
					"anonymous": false,
					"inputs": [
						{
							"indexed": true,
							"internalType": "address",
							"name": "from",
							"type": "address"
						},
						{
							"indexed": true,
							"internalType": "address",
							"name": "to",
							"type": "address"
						},
						{
							"indexed": false,
							"internalType": "uint256",
							"name": "value",
							"type": "uint256"
						}
					],
					"name": "Transfer",
					"type": "event"
				},
				{
					"inputs": [
						{
							"internalType": "address",
							"name": "owner",
							"type": "address"
						},
						{
							"internalType": "address",
							"name": "delegate",
							"type": "address"
						}
					],
					"name": "allowance",
					"outputs": [
						{
							"internalType": "uint256",
							"name": "",
							"type": "uint256"
						}
					],
					"stateMutability": "view",
					"type": "function"
				},
				{
					"inputs": [
						{
							"internalType": "address",
							"name": "delegate",
							"type": "address"
						},
						{
							"internalType": "uint256",
							"name": "numTokens",
							"type": "uint256"
						}
					],
					"name": "approve",
					"outputs": [
						{
							"internalType": "bool",
							"name": "",
							"type": "bool"
						}
					],
					"stateMutability": "nonpayable",
					"type": "function"
				},
				{
					"inputs": [
						{
							"internalType": "address",
							"name": "tokenOwner",
							"type": "address"
						}
					],
					"name": "balanceOf",
					"outputs": [
						{
							"internalType": "uint256",
							"name": "",
							"type": "uint256"
						}
					],
					"stateMutability": "view",
					"type": "function"
				},
				{
					"inputs": [],
					"name": "decimals",
					"outputs": [
						{
							"internalType": "uint8",
							"name": "",
							"type": "uint8"
						}
					],
					"stateMutability": "view",
					"type": "function"
				},
				{
					"inputs": [],
					"name": "finish",
					"outputs": [],
					"stateMutability": "nonpayable",
					"type": "function"
				},
				{
					"inputs": [],
					"name": "isCompleted",
					"outputs": [],
					"stateMutability": "nonpayable",
					"type": "function"
				},
				{
					"inputs": [],
					"name": "itimestamp",
					"outputs": [
						{
							"internalType": "uint256",
							"name": "a",
							"type": "uint256"
						}
					],
					"stateMutability": "nonpayable",
					"type": "function"
				},
				{
					"inputs": [],
					"name": "name",
					"outputs": [
						{
							"internalType": "string",
							"name": "",
							"type": "string"
						}
					],
					"stateMutability": "view",
					"type": "function"
				},
				{
					"inputs": [],
					"name": "score",
					"outputs": [
						{
							"internalType": "uint256",
							"name": "",
							"type": "uint256"
						}
					],
					"stateMutability": "view",
					"type": "function"
				},
				{
					"inputs": [],
					"name": "symbol",
					"outputs": [
						{
							"internalType": "string",
							"name": "",
							"type": "string"
						}
					],
					"stateMutability": "view",
					"type": "function"
				},
				{
					"inputs": [],
					"name": "timestamp",
					"outputs": [
						{
							"internalType": "uint256",
							"name": "",
							"type": "uint256"
						}
					],
					"stateMutability": "view",
					"type": "function"
				},
				{
					"inputs": [],
					"name": "totalSupply",
					"outputs": [
						{
							"internalType": "uint256",
							"name": "",
							"type": "uint256"
						}
					],
					"stateMutability": "view",
					"type": "function"
				},
				{
					"inputs": [
						{
							"internalType": "address",
							"name": "receiver",
							"type": "address"
						},
						{
							"internalType": "uint256",
							"name": "numTokens",
							"type": "uint256"
						}
					],
					"name": "transfer",
					"outputs": [
						{
							"internalType": "bool",
							"name": "",
							"type": "bool"
						}
					],
					"stateMutability": "nonpayable",
					"type": "function"
				},
				{
					"inputs": [
						{
							"internalType": "address",
							"name": "owner",
							"type": "address"
						},
						{
							"internalType": "address",
							"name": "buyer",
							"type": "address"
						},
						{
							"internalType": "uint256",
							"name": "numTokens",
							"type": "uint256"
						}
					],
					"name": "transferFrom",
					"outputs": [
						{
							"internalType": "bool",
							"name": "",
							"type": "bool"
						}
					],
					"stateMutability": "nonpayable",
					"type": "function"
				},
				{
					"inputs": [],
					"name": "updateStart",
					"outputs": [],
					"stateMutability": "nonpayable",
					"type": "function"
				},
				{
					"inputs": [
						{
							"internalType": "uint256",
							"name": "_workingNumber",
							"type": "uint256"
						}
					],
					"name": "work",
					"outputs": [],
					"stateMutability": "nonpayable",
					"type": "function"
				},
				{
					"inputs": [
						{
							"internalType": "address",
							"name": "",
							"type": "address"
						}
					],
					"name": "workusers",
					"outputs": [
						{
							"internalType": "uint256",
							"name": "startNumber",
							"type": "uint256"
						},
						{
							"internalType": "uint256",
							"name": "workingNumber",
							"type": "uint256"
						}
					],
					"stateMutability": "view",
					"type": "function"
				}
			],
			"devdoc": {
				"kind": "dev",
				"methods": {},
				"version": 1
			},
			"evm": {
				"assembly": "    /* \"shoot/\\xe6\\x91\\xb8\\xe5\\xba\\x953/1/1.sol\":4569:4849  contract check is worker{... */\n  mstore(0x40, 0x80)\n    /* \"shoot/\\xe6\\x91\\xb8\\xe5\\xba\\x953/1/1.sol\":1170:1180  1000 ether */\n  0x3635c9adc5dea00000\n    /* \"shoot/\\xe6\\x91\\xb8\\xe5\\xba\\x953/1/1.sol\":1147:1180  uint256 totalSupply_ = 1000 ether */\n  0x02\n  sstore\n    /* \"shoot/\\xe6\\x91\\xb8\\xe5\\xba\\x953/1/1.sol\":4569:4849  contract check is worker{... */\n  callvalue\n  dup1\n  iszero\n  tag_1\n  jumpi\n  0x00\n  dup1\n  revert\ntag_1:\n  pop\n    /* \"shoot/\\xe6\\x91\\xb8\\xe5\\xba\\x953/1/1.sol\":3046:3078  mint(address(this),block.number) */\n  tag_6\n    /* \"shoot/\\xe6\\x91\\xb8\\xe5\\xba\\x953/1/1.sol\":3059:3063  this */\n  address\n    /* \"shoot/\\xe6\\x91\\xb8\\xe5\\xba\\x953/1/1.sol\":3065:3077  block.number */\n  number\n    /* \"shoot/\\xe6\\x91\\xb8\\xe5\\xba\\x953/1/1.sol\":3046:3050  mint */\n  shl(0x20, tag_7)\n    /* \"shoot/\\xe6\\x91\\xb8\\xe5\\xba\\x953/1/1.sol\":3046:3078  mint(address(this),block.number) */\n  0x20\n  shr\n  jump\t// in\ntag_6:\n    /* \"shoot/\\xe6\\x91\\xb8\\xe5\\xba\\x953/1/1.sol\":4569:4849  contract check is worker{... */\n  jump(tag_8)\n    /* \"shoot/\\xe6\\x91\\xb8\\xe5\\xba\\x953/1/1.sol\":1318:1442  function mint(address _addr,uint256 amount)internal{... */\ntag_7:\n    /* \"shoot/\\xe6\\x91\\xb8\\xe5\\xba\\x953/1/1.sol\":1397:1403  amount */\n  dup1\n    /* \"shoot/\\xe6\\x91\\xb8\\xe5\\xba\\x953/1/1.sol\":1380:1388  balances */\n  0x00\n    /* \"shoot/\\xe6\\x91\\xb8\\xe5\\xba\\x953/1/1.sol\":1380:1395  balances[_addr] */\n  dup1\n    /* \"shoot/\\xe6\\x91\\xb8\\xe5\\xba\\x953/1/1.sol\":1389:1394  _addr */\n  dup5\n    /* \"shoot/\\xe6\\x91\\xb8\\xe5\\xba\\x953/1/1.sol\":1380:1395  balances[_addr] */\n  0xffffffffffffffffffffffffffffffffffffffff\n  and\n  0xffffffffffffffffffffffffffffffffffffffff\n  and\n  dup2\n  mstore\n  0x20\n  add\n  swap1\n  dup2\n  mstore\n  0x20\n  add\n  0x00\n  keccak256\n  0x00\n    /* \"shoot/\\xe6\\x91\\xb8\\xe5\\xba\\x953/1/1.sol\":1380:1403  balances[_addr]+=amount */\n  dup3\n  dup3\n  sload\n  tag_10\n  swap2\n  swap1\n  tag_11\n  jump\t// in\ntag_10:\n  swap3\n  pop\n  pop\n  dup2\n  swap1\n  sstore\n  pop\n    /* \"shoot/\\xe6\\x91\\xb8\\xe5\\xba\\x953/1/1.sol\":1428:1434  amount */\n  dup1\n    /* \"shoot/\\xe6\\x91\\xb8\\xe5\\xba\\x953/1/1.sol\":1414:1426  totalSupply_ */\n  0x02\n  0x00\n    /* \"shoot/\\xe6\\x91\\xb8\\xe5\\xba\\x953/1/1.sol\":1414:1434  totalSupply_+=amount */\n  dup3\n  dup3\n  sload\n  tag_12\n  swap2\n  swap1\n  tag_11\n  jump\t// in\ntag_12:\n  swap3\n  pop\n  pop\n  dup2\n  swap1\n  sstore\n  pop\n    /* \"shoot/\\xe6\\x91\\xb8\\xe5\\xba\\x953/1/1.sol\":1318:1442  function mint(address _addr,uint256 amount)internal{... */\n  pop\n  pop\n  jump\t// out\n    /* \"#utility.yul\":7:84   */\ntag_13:\n    /* \"#utility.yul\":44:51   */\n  0x00\n    /* \"#utility.yul\":73:78   */\n  dup2\n    /* \"#utility.yul\":62:78   */\n  swap1\n  pop\n    /* \"#utility.yul\":7:84   */\n  swap2\n  swap1\n  pop\n  jump\t// out\n    /* \"#utility.yul\":90:270   */\ntag_14:\n    /* \"#utility.yul\":138:215   */\n  0x4e487b7100000000000000000000000000000000000000000000000000000000\n    /* \"#utility.yul\":135:136   */\n  0x00\n    /* \"#utility.yul\":128:216   */\n  mstore\n    /* \"#utility.yul\":235:239   */\n  0x11\n    /* \"#utility.yul\":232:233   */\n  0x04\n    /* \"#utility.yul\":225:240   */\n  mstore\n    /* \"#utility.yul\":259:263   */\n  0x24\n    /* \"#utility.yul\":256:257   */\n  0x00\n    /* \"#utility.yul\":249:264   */\n  revert\n    /* \"#utility.yul\":276:467   */\ntag_11:\n    /* \"#utility.yul\":316:319   */\n  0x00\n    /* \"#utility.yul\":335:355   */\n  tag_19\n    /* \"#utility.yul\":353:354   */\n  dup3\n    /* \"#utility.yul\":335:355   */\n  tag_13\n  jump\t// in\ntag_19:\n    /* \"#utility.yul\":330:355   */\n  swap2\n  pop\n    /* \"#utility.yul\":369:389   */\n  tag_20\n    /* \"#utility.yul\":387:388   */\n  dup4\n    /* \"#utility.yul\":369:389   */\n  tag_13\n  jump\t// in\ntag_20:\n    /* \"#utility.yul\":364:389   */\n  swap3\n  pop\n    /* \"#utility.yul\":412:413   */\n  dup3\n    /* \"#utility.yul\":409:410   */\n  dup3\n    /* \"#utility.yul\":405:414   */\n  add\n    /* \"#utility.yul\":398:414   */\n  swap1\n  pop\n    /* \"#utility.yul\":433:436   */\n  dup1\n    /* \"#utility.yul\":430:431   */\n  dup3\n    /* \"#utility.yul\":427:437   */\n  gt\n    /* \"#utility.yul\":424:460   */\n  iszero\n  tag_21\n  jumpi\n    /* \"#utility.yul\":440:458   */\n  tag_22\n  tag_14\n  jump\t// in\ntag_22:\n    /* \"#utility.yul\":424:460   */\ntag_21:\n    /* \"#utility.yul\":276:467   */\n  swap3\n  swap2\n  pop\n  pop\n  jump\t// out\n    /* \"shoot/\\xe6\\x91\\xb8\\xe5\\xba\\x953/1/1.sol\":4569:4849  contract check is worker{... */\ntag_8:\n  dataSize(sub_0)\n  dup1\n  dataOffset(sub_0)\n  0x00\n  codecopy\n  0x00\n  return\nstop\n\nsub_0: assembly {\n        /* \"shoot/\\xe6\\x91\\xb8\\xe5\\xba\\x953/1/1.sol\":4569:4849  contract check is worker{... */\n      mstore(0x40, 0x80)\n      callvalue\n      dup1\n      iszero\n      tag_1\n      jumpi\n      0x00\n      dup1\n      revert\n    tag_1:\n      pop\n      jumpi(tag_2, lt(calldatasize, 0x04))\n      shr(0xe0, calldataload(0x00))\n      dup1\n      0x70a08231\n      gt\n      tag_20\n      jumpi\n      dup1\n      0xd56b2889\n      gt\n      tag_21\n      jumpi\n      dup1\n      0xd56b2889\n      eq\n      tag_15\n      jumpi\n      dup1\n      0xdd62ed3e\n      eq\n      tag_16\n      jumpi\n      dup1\n      0xe320bee5\n      eq\n      tag_17\n      jumpi\n      dup1\n      0xefedc669\n      eq\n      tag_18\n      jumpi\n      dup1\n      0xfa391c64\n      eq\n      tag_19\n      jumpi\n      jump(tag_2)\n    tag_21:\n      dup1\n      0x70a08231\n      eq\n      tag_11\n      jumpi\n      dup1\n      0x95d89b41\n      eq\n      tag_12\n      jumpi\n      dup1\n      0xa9059cbb\n      eq\n      tag_13\n      jumpi\n      dup1\n      0xb80777ea\n      eq\n      tag_14\n      jumpi\n      jump(tag_2)\n    tag_20:\n      dup1\n      0x18160ddd\n      gt\n      tag_22\n      jumpi\n      dup1\n      0x18160ddd\n      eq\n      tag_7\n      jumpi\n      dup1\n      0x23b872dd\n      eq\n      tag_8\n      jumpi\n      dup1\n      0x313ce567\n      eq\n      tag_9\n      jumpi\n      dup1\n      0x5858d161\n      eq\n      tag_10\n      jumpi\n      jump(tag_2)\n    tag_22:\n      dup1\n      0x0168c11e\n      eq\n      tag_3\n      jumpi\n      dup1\n      0x06fdde03\n      eq\n      tag_4\n      jumpi\n      dup1\n      0x095ea7b3\n      eq\n      tag_5\n      jumpi\n      dup1\n      0x0b74974d\n      eq\n      tag_6\n      jumpi\n    tag_2:\n      0x00\n      dup1\n      revert\n        /* \"shoot/\\xe6\\x91\\xb8\\xe5\\xba\\x953/1/1.sol\":2970:3015  mapping(address => workUser) public workusers */\n    tag_3:\n      tag_23\n      0x04\n      dup1\n      calldatasize\n      sub\n      dup2\n      add\n      swap1\n      tag_24\n      swap2\n      swap1\n      tag_25\n      jump\t// in\n    tag_24:\n      tag_26\n      jump\t// in\n    tag_23:\n      mload(0x40)\n      tag_27\n      swap3\n      swap2\n      swap1\n      tag_28\n      jump\t// in\n    tag_27:\n      mload(0x40)\n      dup1\n      swap2\n      sub\n      swap1\n      return\n        /* \"shoot/\\xe6\\x91\\xb8\\xe5\\xba\\x953/1/1.sol\":907:944  string public constant name = \"ERC20\" */\n    tag_4:\n      tag_29\n      tag_30\n      jump\t// in\n    tag_29:\n      mload(0x40)\n      tag_31\n      swap2\n      swap1\n      tag_32\n      jump\t// in\n    tag_31:\n      mload(0x40)\n      dup1\n      swap2\n      sub\n      swap1\n      return\n        /* \"shoot/\\xe6\\x91\\xb8\\xe5\\xba\\x953/1/1.sol\":1940:2164  function approve(address delegate, uint256 numTokens) public override returns (bool) {... */\n    tag_5:\n      tag_33\n      0x04\n      dup1\n      calldatasize\n      sub\n      dup2\n      add\n      swap1\n      tag_34\n      swap2\n      swap1\n      tag_35\n      jump\t// in\n    tag_34:\n      tag_36\n      jump\t// in\n    tag_33:\n      mload(0x40)\n      tag_37\n      swap2\n      swap1\n      tag_38\n      jump\t// in\n    tag_37:\n      mload(0x40)\n      dup1\n      swap2\n      sub\n      swap1\n      return\n        /* \"shoot/\\xe6\\x91\\xb8\\xe5\\xba\\x953/1/1.sol\":3186:3287  function itimestamp()public returns(uint256 a){... */\n    tag_6:\n      tag_39\n      tag_40\n      jump\t// in\n    tag_39:\n      mload(0x40)\n      tag_41\n      swap2\n      swap1\n      tag_42\n      jump\t// in\n    tag_41:\n      mload(0x40)\n      dup1\n      swap2\n      sub\n      swap1\n      return\n        /* \"shoot/\\xe6\\x91\\xb8\\xe5\\xba\\x953/1/1.sol\":1214:1310  function totalSupply() public override view returns (uint256) {... */\n    tag_7:\n      tag_43\n      tag_44\n      jump\t// in\n    tag_43:\n      mload(0x40)\n      tag_45\n      swap2\n      swap1\n      tag_42\n      jump\t// in\n    tag_45:\n      mload(0x40)\n      dup1\n      swap2\n      sub\n      swap1\n      return\n        /* \"shoot/\\xe6\\x91\\xb8\\xe5\\xba\\x953/1/1.sol\":2318:2792  function transferFrom(address owner, address buyer, uint256 numTokens) public override returns (bool) {... */\n    tag_8:\n      tag_46\n      0x04\n      dup1\n      calldatasize\n      sub\n      dup2\n      add\n      swap1\n      tag_47\n      swap2\n      swap1\n      tag_48\n      jump\t// in\n    tag_47:\n      tag_49\n      jump\t// in\n    tag_46:\n      mload(0x40)\n      tag_50\n      swap2\n      swap1\n      tag_38\n      jump\t// in\n    tag_50:\n      mload(0x40)\n      dup1\n      swap2\n      sub\n      swap1\n      return\n        /* \"shoot/\\xe6\\x91\\xb8\\xe5\\xba\\x953/1/1.sol\":995:1030  uint8 public constant decimals = 18 */\n    tag_9:\n      tag_51\n      tag_52\n      jump\t// in\n    tag_51:\n      mload(0x40)\n      tag_53\n      swap2\n      swap1\n      tag_54\n      jump\t// in\n    tag_53:\n      mload(0x40)\n      dup1\n      swap2\n      sub\n      swap1\n      return\n        /* \"shoot/\\xe6\\x91\\xb8\\xe5\\xba\\x953/1/1.sol\":3295:3508  function work(uint256 _workingNumber)public{... */\n    tag_10:\n      tag_55\n      0x04\n      dup1\n      calldatasize\n      sub\n      dup2\n      add\n      swap1\n      tag_56\n      swap2\n      swap1\n      tag_57\n      jump\t// in\n    tag_56:\n      tag_58\n      jump\t// in\n    tag_55:\n      stop\n        /* \"shoot/\\xe6\\x91\\xb8\\xe5\\xba\\x953/1/1.sol\":1450:1574  function balanceOf(address tokenOwner) public override view returns (uint256) {... */\n    tag_11:\n      tag_59\n      0x04\n      dup1\n      calldatasize\n      sub\n      dup2\n      add\n      swap1\n      tag_60\n      swap2\n      swap1\n      tag_25\n      jump\t// in\n    tag_60:\n      tag_61\n      jump\t// in\n    tag_59:\n      mload(0x40)\n      tag_62\n      swap2\n      swap1\n      tag_42\n      jump\t// in\n    tag_62:\n      mload(0x40)\n      dup1\n      swap2\n      sub\n      swap1\n      return\n        /* \"shoot/\\xe6\\x91\\xb8\\xe5\\xba\\x953/1/1.sol\":951:988  string public constant symbol = \"ERC\" */\n    tag_12:\n      tag_63\n      tag_64\n      jump\t// in\n    tag_63:\n      mload(0x40)\n      tag_65\n      swap2\n      swap1\n      tag_32\n      jump\t// in\n    tag_65:\n      mload(0x40)\n      dup1\n      swap2\n      sub\n      swap1\n      return\n        /* \"shoot/\\xe6\\x91\\xb8\\xe5\\xba\\x953/1/1.sol\":1582:1932  function transfer(address receiver, uint256 numTokens) public override returns (bool) {... */\n    tag_13:\n      tag_66\n      0x04\n      dup1\n      calldatasize\n      sub\n      dup2\n      add\n      swap1\n      tag_67\n      swap2\n      swap1\n      tag_35\n      jump\t// in\n    tag_67:\n      tag_68\n      jump\t// in\n    tag_66:\n      mload(0x40)\n      tag_69\n      swap2\n      swap1\n      tag_38\n      jump\t// in\n    tag_69:\n      mload(0x40)\n      dup1\n      swap2\n      sub\n      swap1\n      return\n        /* \"shoot/\\xe6\\x91\\xb8\\xe5\\xba\\x953/1/1.sol\":3094:3180  function timestamp()public view returns(uint256){... */\n    tag_14:\n      tag_70\n      tag_71\n      jump\t// in\n    tag_70:\n      mload(0x40)\n      tag_72\n      swap2\n      swap1\n      tag_42\n      jump\t// in\n    tag_72:\n      mload(0x40)\n      dup1\n      swap2\n      sub\n      swap1\n      return\n        /* \"shoot/\\xe6\\x91\\xb8\\xe5\\xba\\x953/1/1.sol\":3516:3769  function finish()public{... */\n    tag_15:\n      tag_73\n      tag_74\n      jump\t// in\n    tag_73:\n      stop\n        /* \"shoot/\\xe6\\x91\\xb8\\xe5\\xba\\x953/1/1.sol\":2172:2310  function allowance(address owner, address delegate) public override view returns (uint) {... */\n    tag_16:\n      tag_75\n      0x04\n      dup1\n      calldatasize\n      sub\n      dup2\n      add\n      swap1\n      tag_76\n      swap2\n      swap1\n      tag_77\n      jump\t// in\n    tag_76:\n      tag_78\n      jump\t// in\n    tag_75:\n      mload(0x40)\n      tag_79\n      swap2\n      swap1\n      tag_42\n      jump\t// in\n    tag_79:\n      mload(0x40)\n      dup1\n      swap2\n      sub\n      swap1\n      return\n        /* \"shoot/\\xe6\\x91\\xb8\\xe5\\xba\\x953/1/1.sol\":3777:4012  function updateStart()public{... */\n    tag_17:\n      tag_80\n      tag_81\n      jump\t// in\n    tag_80:\n      stop\n        /* \"shoot/\\xe6\\x91\\xb8\\xe5\\xba\\x953/1/1.sol\":4600:4620  uint256 public score */\n    tag_18:\n      tag_82\n      tag_83\n      jump\t// in\n    tag_82:\n      mload(0x40)\n      tag_84\n      swap2\n      swap1\n      tag_42\n      jump\t// in\n    tag_84:\n      mload(0x40)\n      dup1\n      swap2\n      sub\n      swap1\n      return\n        /* \"shoot/\\xe6\\x91\\xb8\\xe5\\xba\\x953/1/1.sol\":4627:4846  function isCompleted()public{... */\n    tag_19:\n      tag_85\n      tag_86\n      jump\t// in\n    tag_85:\n      stop\n        /* \"shoot/\\xe6\\x91\\xb8\\xe5\\xba\\x953/1/1.sol\":2970:3015  mapping(address => workUser) public workusers */\n    tag_26:\n      mstore(0x20, 0x03)\n      dup1\n      0x00\n      mstore\n      keccak256(0x00, 0x40)\n      0x00\n      swap2\n      pop\n      swap1\n      pop\n      dup1\n      0x00\n      add\n      sload\n      swap1\n      dup1\n      0x01\n      add\n      sload\n      swap1\n      pop\n      dup3\n      jump\t// out\n        /* \"shoot/\\xe6\\x91\\xb8\\xe5\\xba\\x953/1/1.sol\":907:944  string public constant name = \"ERC20\" */\n    tag_30:\n      mload(0x40)\n      dup1\n      0x40\n      add\n      0x40\n      mstore\n      dup1\n      0x05\n      dup2\n      mstore\n      0x20\n      add\n      0x4552433230000000000000000000000000000000000000000000000000000000\n      dup2\n      mstore\n      pop\n      dup2\n      jump\t// out\n        /* \"shoot/\\xe6\\x91\\xb8\\xe5\\xba\\x953/1/1.sol\":1940:2164  function approve(address delegate, uint256 numTokens) public override returns (bool) {... */\n    tag_36:\n        /* \"shoot/\\xe6\\x91\\xb8\\xe5\\xba\\x953/1/1.sol\":2019:2023  bool */\n      0x00\n        /* \"shoot/\\xe6\\x91\\xb8\\xe5\\xba\\x953/1/1.sol\":2068:2077  numTokens */\n      dup2\n        /* \"shoot/\\xe6\\x91\\xb8\\xe5\\xba\\x953/1/1.sol\":2036:2043  allowed */\n      0x01\n        /* \"shoot/\\xe6\\x91\\xb8\\xe5\\xba\\x953/1/1.sol\":2036:2055  allowed[msg.sender] */\n      0x00\n        /* \"shoot/\\xe6\\x91\\xb8\\xe5\\xba\\x953/1/1.sol\":2044:2054  msg.sender */\n      caller\n        /* \"shoot/\\xe6\\x91\\xb8\\xe5\\xba\\x953/1/1.sol\":2036:2055  allowed[msg.sender] */\n      0xffffffffffffffffffffffffffffffffffffffff\n      and\n      0xffffffffffffffffffffffffffffffffffffffff\n      and\n      dup2\n      mstore\n      0x20\n      add\n      swap1\n      dup2\n      mstore\n      0x20\n      add\n      0x00\n      keccak256\n        /* \"shoot/\\xe6\\x91\\xb8\\xe5\\xba\\x953/1/1.sol\":2036:2065  allowed[msg.sender][delegate] */\n      0x00\n        /* \"shoot/\\xe6\\x91\\xb8\\xe5\\xba\\x953/1/1.sol\":2056:2064  delegate */\n      dup6\n        /* \"shoot/\\xe6\\x91\\xb8\\xe5\\xba\\x953/1/1.sol\":2036:2065  allowed[msg.sender][delegate] */\n      0xffffffffffffffffffffffffffffffffffffffff\n      and\n      0xffffffffffffffffffffffffffffffffffffffff\n      and\n      dup2\n      mstore\n      0x20\n      add\n      swap1\n      dup2\n      mstore\n      0x20\n      add\n      0x00\n      keccak256\n        /* \"shoot/\\xe6\\x91\\xb8\\xe5\\xba\\x953/1/1.sol\":2036:2077  allowed[msg.sender][delegate] = numTokens */\n      dup2\n      swap1\n      sstore\n      pop\n        /* \"shoot/\\xe6\\x91\\xb8\\xe5\\xba\\x953/1/1.sol\":2114:2122  delegate */\n      dup3\n        /* \"shoot/\\xe6\\x91\\xb8\\xe5\\xba\\x953/1/1.sol\":2093:2134  Approval(msg.sender, delegate, numTokens) */\n      0xffffffffffffffffffffffffffffffffffffffff\n      and\n        /* \"shoot/\\xe6\\x91\\xb8\\xe5\\xba\\x953/1/1.sol\":2102:2112  msg.sender */\n      caller\n        /* \"shoot/\\xe6\\x91\\xb8\\xe5\\xba\\x953/1/1.sol\":2093:2134  Approval(msg.sender, delegate, numTokens) */\n      0xffffffffffffffffffffffffffffffffffffffff\n      and\n      0x8c5be1e5ebec7d5bd14f71427d1e84f3dd0314c0f7b2291e5b200ac8c7c3b925\n        /* \"shoot/\\xe6\\x91\\xb8\\xe5\\xba\\x953/1/1.sol\":2124:2133  numTokens */\n      dup5\n        /* \"shoot/\\xe6\\x91\\xb8\\xe5\\xba\\x953/1/1.sol\":2093:2134  Approval(msg.sender, delegate, numTokens) */\n      mload(0x40)\n      tag_88\n      swap2\n      swap1\n      tag_42\n      jump\t// in\n    tag_88:\n      mload(0x40)\n      dup1\n      swap2\n      sub\n      swap1\n      log3\n        /* \"shoot/\\xe6\\x91\\xb8\\xe5\\xba\\x953/1/1.sol\":2152:2156  true */\n      0x01\n        /* \"shoot/\\xe6\\x91\\xb8\\xe5\\xba\\x953/1/1.sol\":2145:2156  return true */\n      swap1\n      pop\n        /* \"shoot/\\xe6\\x91\\xb8\\xe5\\xba\\x953/1/1.sol\":1940:2164  function approve(address delegate, uint256 numTokens) public override returns (bool) {... */\n      swap3\n      swap2\n      pop\n      pop\n      jump\t// out\n        /* \"shoot/\\xe6\\x91\\xb8\\xe5\\xba\\x953/1/1.sol\":3186:3287  function itimestamp()public returns(uint256 a){... */\n    tag_40:\n        /* \"shoot/\\xe6\\x91\\xb8\\xe5\\xba\\x953/1/1.sol\":3222:3231  uint256 a */\n      0x00\n        /* \"shoot/\\xe6\\x91\\xb8\\xe5\\xba\\x953/1/1.sol\":3261:3265  this */\n      address\n        /* \"shoot/\\xe6\\x91\\xb8\\xe5\\xba\\x953/1/1.sol\":3247:3277  Itime(address(this)).timestamp */\n      0xffffffffffffffffffffffffffffffffffffffff\n      and\n      0xb80777ea\n        /* \"shoot/\\xe6\\x91\\xb8\\xe5\\xba\\x953/1/1.sol\":3247:3279  Itime(address(this)).timestamp() */\n      mload(0x40)\n      dup2\n      0xffffffff\n      and\n      0xe0\n      shl\n      dup2\n      mstore\n      0x04\n      add\n      0x20\n      mload(0x40)\n      dup1\n      dup4\n      sub\n      dup2\n      0x00\n      dup8\n      gas\n      call\n      iszero\n      dup1\n      iszero\n      tag_91\n      jumpi\n      returndatasize\n      0x00\n      dup1\n      returndatacopy\n      revert(0x00, returndatasize)\n    tag_91:\n      pop\n      pop\n      pop\n      pop\n      mload(0x40)\n      returndatasize\n      not(0x1f)\n      0x1f\n      dup3\n      add\n      and\n      dup3\n      add\n      dup1\n      0x40\n      mstore\n      pop\n      dup2\n      add\n      swap1\n      tag_92\n      swap2\n      swap1\n      tag_93\n      jump\t// in\n    tag_92:\n        /* \"shoot/\\xe6\\x91\\xb8\\xe5\\xba\\x953/1/1.sol\":3243:3279  a = Itime(address(this)).timestamp() */\n      swap1\n      pop\n        /* \"shoot/\\xe6\\x91\\xb8\\xe5\\xba\\x953/1/1.sol\":3186:3287  function itimestamp()public returns(uint256 a){... */\n      swap1\n      jump\t// out\n        /* \"shoot/\\xe6\\x91\\xb8\\xe5\\xba\\x953/1/1.sol\":1214:1310  function totalSupply() public override view returns (uint256) {... */\n    tag_44:\n        /* \"shoot/\\xe6\\x91\\xb8\\xe5\\xba\\x953/1/1.sol\":1267:1274  uint256 */\n      0x00\n        /* \"shoot/\\xe6\\x91\\xb8\\xe5\\xba\\x953/1/1.sol\":1290:1302  totalSupply_ */\n      sload(0x02)\n        /* \"shoot/\\xe6\\x91\\xb8\\xe5\\xba\\x953/1/1.sol\":1283:1302  return totalSupply_ */\n      swap1\n      pop\n        /* \"shoot/\\xe6\\x91\\xb8\\xe5\\xba\\x953/1/1.sol\":1214:1310  function totalSupply() public override view returns (uint256) {... */\n      swap1\n      jump\t// out\n        /* \"shoot/\\xe6\\x91\\xb8\\xe5\\xba\\x953/1/1.sol\":2318:2792  function transferFrom(address owner, address buyer, uint256 numTokens) public override returns (bool) {... */\n    tag_49:\n        /* \"shoot/\\xe6\\x91\\xb8\\xe5\\xba\\x953/1/1.sol\":2414:2418  bool */\n      0x00\n        /* \"shoot/\\xe6\\x91\\xb8\\xe5\\xba\\x953/1/1.sol\":2452:2460  balances */\n      dup1\n        /* \"shoot/\\xe6\\x91\\xb8\\xe5\\xba\\x953/1/1.sol\":2452:2467  balances[owner] */\n      0x00\n        /* \"shoot/\\xe6\\x91\\xb8\\xe5\\xba\\x953/1/1.sol\":2461:2466  owner */\n      dup6\n        /* \"shoot/\\xe6\\x91\\xb8\\xe5\\xba\\x953/1/1.sol\":2452:2467  balances[owner] */\n      0xffffffffffffffffffffffffffffffffffffffff\n      and\n      0xffffffffffffffffffffffffffffffffffffffff\n      and\n      dup2\n      mstore\n      0x20\n      add\n      swap1\n      dup2\n      mstore\n      0x20\n      add\n      0x00\n      keccak256\n      sload\n        /* \"shoot/\\xe6\\x91\\xb8\\xe5\\xba\\x953/1/1.sol\":2439:2448  numTokens */\n      dup3\n        /* \"shoot/\\xe6\\x91\\xb8\\xe5\\xba\\x953/1/1.sol\":2439:2467  numTokens <= balances[owner] */\n      gt\n      iszero\n        /* \"shoot/\\xe6\\x91\\xb8\\xe5\\xba\\x953/1/1.sol\":2431:2468  require(numTokens <= balances[owner]) */\n      tag_96\n      jumpi\n      0x00\n      dup1\n      revert\n    tag_96:\n        /* \"shoot/\\xe6\\x91\\xb8\\xe5\\xba\\x953/1/1.sol\":2500:2507  allowed */\n      0x01\n        /* \"shoot/\\xe6\\x91\\xb8\\xe5\\xba\\x953/1/1.sol\":2500:2514  allowed[owner] */\n      0x00\n        /* \"shoot/\\xe6\\x91\\xb8\\xe5\\xba\\x953/1/1.sol\":2508:2513  owner */\n      dup6\n        /* \"shoot/\\xe6\\x91\\xb8\\xe5\\xba\\x953/1/1.sol\":2500:2514  allowed[owner] */\n      0xffffffffffffffffffffffffffffffffffffffff\n      and\n      0xffffffffffffffffffffffffffffffffffffffff\n      and\n      dup2\n      mstore\n      0x20\n      add\n      swap1\n      dup2\n      mstore\n      0x20\n      add\n      0x00\n      keccak256\n        /* \"shoot/\\xe6\\x91\\xb8\\xe5\\xba\\x953/1/1.sol\":2500:2526  allowed[owner][msg.sender] */\n      0x00\n        /* \"shoot/\\xe6\\x91\\xb8\\xe5\\xba\\x953/1/1.sol\":2515:2525  msg.sender */\n      caller\n        /* \"shoot/\\xe6\\x91\\xb8\\xe5\\xba\\x953/1/1.sol\":2500:2526  allowed[owner][msg.sender] */\n      0xffffffffffffffffffffffffffffffffffffffff\n      and\n      0xffffffffffffffffffffffffffffffffffffffff\n      and\n      dup2\n      mstore\n      0x20\n      add\n      swap1\n      dup2\n      mstore\n      0x20\n      add\n      0x00\n      keccak256\n      sload\n        /* \"shoot/\\xe6\\x91\\xb8\\xe5\\xba\\x953/1/1.sol\":2487:2496  numTokens */\n      dup3\n        /* \"shoot/\\xe6\\x91\\xb8\\xe5\\xba\\x953/1/1.sol\":2487:2526  numTokens <= allowed[owner][msg.sender] */\n      gt\n      iszero\n        /* \"shoot/\\xe6\\x91\\xb8\\xe5\\xba\\x953/1/1.sol\":2479:2527  require(numTokens <= allowed[owner][msg.sender]) */\n      tag_97\n      jumpi\n      0x00\n      dup1\n      revert\n    tag_97:\n        /* \"shoot/\\xe6\\x91\\xb8\\xe5\\xba\\x953/1/1.sol\":2574:2583  numTokens */\n      dup2\n        /* \"shoot/\\xe6\\x91\\xb8\\xe5\\xba\\x953/1/1.sol\":2558:2566  balances */\n      0x00\n        /* \"shoot/\\xe6\\x91\\xb8\\xe5\\xba\\x953/1/1.sol\":2558:2573  balances[owner] */\n      dup1\n        /* \"shoot/\\xe6\\x91\\xb8\\xe5\\xba\\x953/1/1.sol\":2567:2572  owner */\n      dup7\n        /* \"shoot/\\xe6\\x91\\xb8\\xe5\\xba\\x953/1/1.sol\":2558:2573  balances[owner] */\n      0xffffffffffffffffffffffffffffffffffffffff\n      and\n      0xffffffffffffffffffffffffffffffffffffffff\n      and\n      dup2\n      mstore\n      0x20\n      add\n      swap1\n      dup2\n      mstore\n      0x20\n      add\n      0x00\n      keccak256\n      sload\n        /* \"shoot/\\xe6\\x91\\xb8\\xe5\\xba\\x953/1/1.sol\":2558:2583  balances[owner]-numTokens */\n      tag_98\n      swap2\n      swap1\n      tag_99\n      jump\t// in\n    tag_98:\n        /* \"shoot/\\xe6\\x91\\xb8\\xe5\\xba\\x953/1/1.sol\":2540:2548  balances */\n      0x00\n        /* \"shoot/\\xe6\\x91\\xb8\\xe5\\xba\\x953/1/1.sol\":2540:2555  balances[owner] */\n      dup1\n        /* \"shoot/\\xe6\\x91\\xb8\\xe5\\xba\\x953/1/1.sol\":2549:2554  owner */\n      dup7\n        /* \"shoot/\\xe6\\x91\\xb8\\xe5\\xba\\x953/1/1.sol\":2540:2555  balances[owner] */\n      0xffffffffffffffffffffffffffffffffffffffff\n      and\n      0xffffffffffffffffffffffffffffffffffffffff\n      and\n      dup2\n      mstore\n      0x20\n      add\n      swap1\n      dup2\n      mstore\n      0x20\n      add\n      0x00\n      keccak256\n        /* \"shoot/\\xe6\\x91\\xb8\\xe5\\xba\\x953/1/1.sol\":2540:2583  balances[owner] = balances[owner]-numTokens */\n      dup2\n      swap1\n      sstore\n      pop\n        /* \"shoot/\\xe6\\x91\\xb8\\xe5\\xba\\x953/1/1.sol\":2650:2659  numTokens */\n      dup2\n        /* \"shoot/\\xe6\\x91\\xb8\\xe5\\xba\\x953/1/1.sol\":2623:2630  allowed */\n      0x01\n        /* \"shoot/\\xe6\\x91\\xb8\\xe5\\xba\\x953/1/1.sol\":2623:2637  allowed[owner] */\n      0x00\n        /* \"shoot/\\xe6\\x91\\xb8\\xe5\\xba\\x953/1/1.sol\":2631:2636  owner */\n      dup7\n        /* \"shoot/\\xe6\\x91\\xb8\\xe5\\xba\\x953/1/1.sol\":2623:2637  allowed[owner] */\n      0xffffffffffffffffffffffffffffffffffffffff\n      and\n      0xffffffffffffffffffffffffffffffffffffffff\n      and\n      dup2\n      mstore\n      0x20\n      add\n      swap1\n      dup2\n      mstore\n      0x20\n      add\n      0x00\n      keccak256\n        /* \"shoot/\\xe6\\x91\\xb8\\xe5\\xba\\x953/1/1.sol\":2623:2649  allowed[owner][msg.sender] */\n      0x00\n        /* \"shoot/\\xe6\\x91\\xb8\\xe5\\xba\\x953/1/1.sol\":2638:2648  msg.sender */\n      caller\n        /* \"shoot/\\xe6\\x91\\xb8\\xe5\\xba\\x953/1/1.sol\":2623:2649  allowed[owner][msg.sender] */\n      0xffffffffffffffffffffffffffffffffffffffff\n      and\n      0xffffffffffffffffffffffffffffffffffffffff\n      and\n      dup2\n      mstore\n      0x20\n      add\n      swap1\n      dup2\n      mstore\n      0x20\n      add\n      0x00\n      keccak256\n      sload\n        /* \"shoot/\\xe6\\x91\\xb8\\xe5\\xba\\x953/1/1.sol\":2623:2659  allowed[owner][msg.sender]-numTokens */\n      tag_100\n      swap2\n      swap1\n      tag_99\n      jump\t// in\n    tag_100:\n        /* \"shoot/\\xe6\\x91\\xb8\\xe5\\xba\\x953/1/1.sol\":2594:2601  allowed */\n      0x01\n        /* \"shoot/\\xe6\\x91\\xb8\\xe5\\xba\\x953/1/1.sol\":2594:2608  allowed[owner] */\n      0x00\n        /* \"shoot/\\xe6\\x91\\xb8\\xe5\\xba\\x953/1/1.sol\":2602:2607  owner */\n      dup7\n        /* \"shoot/\\xe6\\x91\\xb8\\xe5\\xba\\x953/1/1.sol\":2594:2608  allowed[owner] */\n      0xffffffffffffffffffffffffffffffffffffffff\n      and\n      0xffffffffffffffffffffffffffffffffffffffff\n      and\n      dup2\n      mstore\n      0x20\n      add\n      swap1\n      dup2\n      mstore\n      0x20\n      add\n      0x00\n      keccak256\n        /* \"shoot/\\xe6\\x91\\xb8\\xe5\\xba\\x953/1/1.sol\":2594:2620  allowed[owner][msg.sender] */\n      0x00\n        /* \"shoot/\\xe6\\x91\\xb8\\xe5\\xba\\x953/1/1.sol\":2609:2619  msg.sender */\n      caller\n        /* \"shoot/\\xe6\\x91\\xb8\\xe5\\xba\\x953/1/1.sol\":2594:2620  allowed[owner][msg.sender] */\n      0xffffffffffffffffffffffffffffffffffffffff\n      and\n      0xffffffffffffffffffffffffffffffffffffffff\n      and\n      dup2\n      mstore\n      0x20\n      add\n      swap1\n      dup2\n      mstore\n      0x20\n      add\n      0x00\n      keccak256\n        /* \"shoot/\\xe6\\x91\\xb8\\xe5\\xba\\x953/1/1.sol\":2594:2659  allowed[owner][msg.sender] = allowed[owner][msg.sender]-numTokens */\n      dup2\n      swap1\n      sstore\n      pop\n        /* \"shoot/\\xe6\\x91\\xb8\\xe5\\xba\\x953/1/1.sol\":2704:2713  numTokens */\n      dup2\n        /* \"shoot/\\xe6\\x91\\xb8\\xe5\\xba\\x953/1/1.sol\":2688:2696  balances */\n      0x00\n        /* \"shoot/\\xe6\\x91\\xb8\\xe5\\xba\\x953/1/1.sol\":2688:2703  balances[buyer] */\n      dup1\n        /* \"shoot/\\xe6\\x91\\xb8\\xe5\\xba\\x953/1/1.sol\":2697:2702  buyer */\n      dup6\n        /* \"shoot/\\xe6\\x91\\xb8\\xe5\\xba\\x953/1/1.sol\":2688:2703  balances[buyer] */\n      0xffffffffffffffffffffffffffffffffffffffff\n      and\n      0xffffffffffffffffffffffffffffffffffffffff\n      and\n      dup2\n      mstore\n      0x20\n      add\n      swap1\n      dup2\n      mstore\n      0x20\n      add\n      0x00\n      keccak256\n      sload\n        /* \"shoot/\\xe6\\x91\\xb8\\xe5\\xba\\x953/1/1.sol\":2688:2713  balances[buyer]+numTokens */\n      tag_101\n      swap2\n      swap1\n      tag_102\n      jump\t// in\n    tag_101:\n        /* \"shoot/\\xe6\\x91\\xb8\\xe5\\xba\\x953/1/1.sol\":2670:2678  balances */\n      0x00\n        /* \"shoot/\\xe6\\x91\\xb8\\xe5\\xba\\x953/1/1.sol\":2670:2685  balances[buyer] */\n      dup1\n        /* \"shoot/\\xe6\\x91\\xb8\\xe5\\xba\\x953/1/1.sol\":2679:2684  buyer */\n      dup6\n        /* \"shoot/\\xe6\\x91\\xb8\\xe5\\xba\\x953/1/1.sol\":2670:2685  balances[buyer] */\n      0xffffffffffffffffffffffffffffffffffffffff\n      and\n      0xffffffffffffffffffffffffffffffffffffffff\n      and\n      dup2\n      mstore\n      0x20\n      add\n      swap1\n      dup2\n      mstore\n      0x20\n      add\n      0x00\n      keccak256\n        /* \"shoot/\\xe6\\x91\\xb8\\xe5\\xba\\x953/1/1.sol\":2670:2713  balances[buyer] = balances[buyer]+numTokens */\n      dup2\n      swap1\n      sstore\n      pop\n        /* \"shoot/\\xe6\\x91\\xb8\\xe5\\xba\\x953/1/1.sol\":2745:2750  buyer */\n      dup3\n        /* \"shoot/\\xe6\\x91\\xb8\\xe5\\xba\\x953/1/1.sol\":2729:2762  Transfer(owner, buyer, numTokens) */\n      0xffffffffffffffffffffffffffffffffffffffff\n      and\n        /* \"shoot/\\xe6\\x91\\xb8\\xe5\\xba\\x953/1/1.sol\":2738:2743  owner */\n      dup5\n        /* \"shoot/\\xe6\\x91\\xb8\\xe5\\xba\\x953/1/1.sol\":2729:2762  Transfer(owner, buyer, numTokens) */\n      0xffffffffffffffffffffffffffffffffffffffff\n      and\n      0xddf252ad1be2c89b69c2b068fc378daa952ba7f163c4a11628f55a4df523b3ef\n        /* \"shoot/\\xe6\\x91\\xb8\\xe5\\xba\\x953/1/1.sol\":2752:2761  numTokens */\n      dup5\n        /* \"shoot/\\xe6\\x91\\xb8\\xe5\\xba\\x953/1/1.sol\":2729:2762  Transfer(owner, buyer, numTokens) */\n      mload(0x40)\n      tag_103\n      swap2\n      swap1\n      tag_42\n      jump\t// in\n    tag_103:\n      mload(0x40)\n      dup1\n      swap2\n      sub\n      swap1\n      log3\n        /* \"shoot/\\xe6\\x91\\xb8\\xe5\\xba\\x953/1/1.sol\":2780:2784  true */\n      0x01\n        /* \"shoot/\\xe6\\x91\\xb8\\xe5\\xba\\x953/1/1.sol\":2773:2784  return true */\n      swap1\n      pop\n        /* \"shoot/\\xe6\\x91\\xb8\\xe5\\xba\\x953/1/1.sol\":2318:2792  function transferFrom(address owner, address buyer, uint256 numTokens) public override returns (bool) {... */\n      swap4\n      swap3\n      pop\n      pop\n      pop\n      jump\t// out\n        /* \"shoot/\\xe6\\x91\\xb8\\xe5\\xba\\x953/1/1.sol\":995:1030  uint8 public constant decimals = 18 */\n    tag_52:\n        /* \"shoot/\\xe6\\x91\\xb8\\xe5\\xba\\x953/1/1.sol\":1028:1030  18 */\n      0x12\n        /* \"shoot/\\xe6\\x91\\xb8\\xe5\\xba\\x953/1/1.sol\":995:1030  uint8 public constant decimals = 18 */\n      dup2\n      jump\t// out\n        /* \"shoot/\\xe6\\x91\\xb8\\xe5\\xba\\x953/1/1.sol\":3295:3508  function work(uint256 _workingNumber)public{... */\n    tag_58:\n        /* \"shoot/\\xe6\\x91\\xb8\\xe5\\xba\\x953/1/1.sol\":3349:3370  workUser storage user */\n      0x00\n        /* \"shoot/\\xe6\\x91\\xb8\\xe5\\xba\\x953/1/1.sol\":3373:3382  workusers */\n      0x03\n        /* \"shoot/\\xe6\\x91\\xb8\\xe5\\xba\\x953/1/1.sol\":3373:3394  workusers[msg.sender] */\n      0x00\n        /* \"shoot/\\xe6\\x91\\xb8\\xe5\\xba\\x953/1/1.sol\":3383:3393  msg.sender */\n      caller\n        /* \"shoot/\\xe6\\x91\\xb8\\xe5\\xba\\x953/1/1.sol\":3373:3394  workusers[msg.sender] */\n      0xffffffffffffffffffffffffffffffffffffffff\n      and\n      0xffffffffffffffffffffffffffffffffffffffff\n      and\n      dup2\n      mstore\n      0x20\n      add\n      swap1\n      dup2\n      mstore\n      0x20\n      add\n      0x00\n      keccak256\n        /* \"shoot/\\xe6\\x91\\xb8\\xe5\\xba\\x953/1/1.sol\":3349:3394  workUser storage user = workusers[msg.sender] */\n      swap1\n      pop\n        /* \"shoot/\\xe6\\x91\\xb8\\xe5\\xba\\x953/1/1.sol\":3438:3442  this */\n      address\n        /* \"shoot/\\xe6\\x91\\xb8\\xe5\\xba\\x953/1/1.sol\":3424:3454  Itime(address(this)).timestamp */\n      0xffffffffffffffffffffffffffffffffffffffff\n      and\n      0xb80777ea\n        /* \"shoot/\\xe6\\x91\\xb8\\xe5\\xba\\x953/1/1.sol\":3424:3456  Itime(address(this)).timestamp() */\n      mload(0x40)\n      dup2\n      0xffffffff\n      and\n      0xe0\n      shl\n      dup2\n      mstore\n      0x04\n      add\n      0x20\n      mload(0x40)\n      dup1\n      dup4\n      sub\n      dup2\n      0x00\n      dup8\n      gas\n      call\n      iszero\n      dup1\n      iszero\n      tag_106\n      jumpi\n      returndatasize\n      0x00\n      dup1\n      returndatacopy\n      revert(0x00, returndatasize)\n    tag_106:\n      pop\n      pop\n      pop\n      pop\n      mload(0x40)\n      returndatasize\n      not(0x1f)\n      0x1f\n      dup3\n      add\n      and\n      dup3\n      add\n      dup1\n      0x40\n      mstore\n      pop\n      dup2\n      add\n      swap1\n      tag_107\n      swap2\n      swap1\n      tag_93\n      jump\t// in\n    tag_107:\n        /* \"shoot/\\xe6\\x91\\xb8\\xe5\\xba\\x953/1/1.sol\":3405:3409  user */\n      dup2\n        /* \"shoot/\\xe6\\x91\\xb8\\xe5\\xba\\x953/1/1.sol\":3405:3421  user.startNumber */\n      0x00\n      add\n        /* \"shoot/\\xe6\\x91\\xb8\\xe5\\xba\\x953/1/1.sol\":3405:3456  user.startNumber = Itime(address(this)).timestamp() */\n      dup2\n      swap1\n      sstore\n      pop\n        /* \"shoot/\\xe6\\x91\\xb8\\xe5\\xba\\x953/1/1.sol\":3486:3500  _workingNumber */\n      dup2\n        /* \"shoot/\\xe6\\x91\\xb8\\xe5\\xba\\x953/1/1.sol\":3467:3471  user */\n      dup2\n        /* \"shoot/\\xe6\\x91\\xb8\\xe5\\xba\\x953/1/1.sol\":3467:3485  user.workingNumber */\n      0x01\n      add\n        /* \"shoot/\\xe6\\x91\\xb8\\xe5\\xba\\x953/1/1.sol\":3467:3500  user.workingNumber=_workingNumber */\n      dup2\n      swap1\n      sstore\n      pop\n        /* \"shoot/\\xe6\\x91\\xb8\\xe5\\xba\\x953/1/1.sol\":3338:3508  {... */\n      pop\n        /* \"shoot/\\xe6\\x91\\xb8\\xe5\\xba\\x953/1/1.sol\":3295:3508  function work(uint256 _workingNumber)public{... */\n      pop\n      jump\t// out\n        /* \"shoot/\\xe6\\x91\\xb8\\xe5\\xba\\x953/1/1.sol\":1450:1574  function balanceOf(address tokenOwner) public override view returns (uint256) {... */\n    tag_61:\n        /* \"shoot/\\xe6\\x91\\xb8\\xe5\\xba\\x953/1/1.sol\":1519:1526  uint256 */\n      0x00\n        /* \"shoot/\\xe6\\x91\\xb8\\xe5\\xba\\x953/1/1.sol\":1546:1554  balances */\n      dup1\n        /* \"shoot/\\xe6\\x91\\xb8\\xe5\\xba\\x953/1/1.sol\":1546:1566  balances[tokenOwner] */\n      0x00\n        /* \"shoot/\\xe6\\x91\\xb8\\xe5\\xba\\x953/1/1.sol\":1555:1565  tokenOwner */\n      dup4\n        /* \"shoot/\\xe6\\x91\\xb8\\xe5\\xba\\x953/1/1.sol\":1546:1566  balances[tokenOwner] */\n      0xffffffffffffffffffffffffffffffffffffffff\n      and\n      0xffffffffffffffffffffffffffffffffffffffff\n      and\n      dup2\n      mstore\n      0x20\n      add\n      swap1\n      dup2\n      mstore\n      0x20\n      add\n      0x00\n      keccak256\n      sload\n        /* \"shoot/\\xe6\\x91\\xb8\\xe5\\xba\\x953/1/1.sol\":1539:1566  return balances[tokenOwner] */\n      swap1\n      pop\n        /* \"shoot/\\xe6\\x91\\xb8\\xe5\\xba\\x953/1/1.sol\":1450:1574  function balanceOf(address tokenOwner) public override view returns (uint256) {... */\n      swap2\n      swap1\n      pop\n      jump\t// out\n        /* \"shoot/\\xe6\\x91\\xb8\\xe5\\xba\\x953/1/1.sol\":951:988  string public constant symbol = \"ERC\" */\n    tag_64:\n      mload(0x40)\n      dup1\n      0x40\n      add\n      0x40\n      mstore\n      dup1\n      0x03\n      dup2\n      mstore\n      0x20\n      add\n      0x4552430000000000000000000000000000000000000000000000000000000000\n      dup2\n      mstore\n      pop\n      dup2\n      jump\t// out\n        /* \"shoot/\\xe6\\x91\\xb8\\xe5\\xba\\x953/1/1.sol\":1582:1932  function transfer(address receiver, uint256 numTokens) public override returns (bool) {... */\n    tag_68:\n        /* \"shoot/\\xe6\\x91\\xb8\\xe5\\xba\\x953/1/1.sol\":1662:1666  bool */\n      0x00\n        /* \"shoot/\\xe6\\x91\\xb8\\xe5\\xba\\x953/1/1.sol\":1700:1708  balances */\n      dup1\n        /* \"shoot/\\xe6\\x91\\xb8\\xe5\\xba\\x953/1/1.sol\":1700:1720  balances[msg.sender] */\n      0x00\n        /* \"shoot/\\xe6\\x91\\xb8\\xe5\\xba\\x953/1/1.sol\":1709:1719  msg.sender */\n      caller\n        /* \"shoot/\\xe6\\x91\\xb8\\xe5\\xba\\x953/1/1.sol\":1700:1720  balances[msg.sender] */\n      0xffffffffffffffffffffffffffffffffffffffff\n      and\n      0xffffffffffffffffffffffffffffffffffffffff\n      and\n      dup2\n      mstore\n      0x20\n      add\n      swap1\n      dup2\n      mstore\n      0x20\n      add\n      0x00\n      keccak256\n      sload\n        /* \"shoot/\\xe6\\x91\\xb8\\xe5\\xba\\x953/1/1.sol\":1687:1696  numTokens */\n      dup3\n        /* \"shoot/\\xe6\\x91\\xb8\\xe5\\xba\\x953/1/1.sol\":1687:1720  numTokens <= balances[msg.sender] */\n      gt\n      iszero\n        /* \"shoot/\\xe6\\x91\\xb8\\xe5\\xba\\x953/1/1.sol\":1679:1721  require(numTokens <= balances[msg.sender]) */\n      tag_110\n      jumpi\n      0x00\n      dup1\n      revert\n    tag_110:\n        /* \"shoot/\\xe6\\x91\\xb8\\xe5\\xba\\x953/1/1.sol\":1776:1785  numTokens */\n      dup2\n        /* \"shoot/\\xe6\\x91\\xb8\\xe5\\xba\\x953/1/1.sol\":1755:1763  balances */\n      0x00\n        /* \"shoot/\\xe6\\x91\\xb8\\xe5\\xba\\x953/1/1.sol\":1755:1775  balances[msg.sender] */\n      dup1\n        /* \"shoot/\\xe6\\x91\\xb8\\xe5\\xba\\x953/1/1.sol\":1764:1774  msg.sender */\n      caller\n        /* \"shoot/\\xe6\\x91\\xb8\\xe5\\xba\\x953/1/1.sol\":1755:1775  balances[msg.sender] */\n      0xffffffffffffffffffffffffffffffffffffffff\n      and\n      0xffffffffffffffffffffffffffffffffffffffff\n      and\n      dup2\n      mstore\n      0x20\n      add\n      swap1\n      dup2\n      mstore\n      0x20\n      add\n      0x00\n      keccak256\n      sload\n        /* \"shoot/\\xe6\\x91\\xb8\\xe5\\xba\\x953/1/1.sol\":1755:1785  balances[msg.sender]-numTokens */\n      tag_111\n      swap2\n      swap1\n      tag_99\n      jump\t// in\n    tag_111:\n        /* \"shoot/\\xe6\\x91\\xb8\\xe5\\xba\\x953/1/1.sol\":1732:1740  balances */\n      0x00\n        /* \"shoot/\\xe6\\x91\\xb8\\xe5\\xba\\x953/1/1.sol\":1732:1752  balances[msg.sender] */\n      dup1\n        /* \"shoot/\\xe6\\x91\\xb8\\xe5\\xba\\x953/1/1.sol\":1741:1751  msg.sender */\n      caller\n        /* \"shoot/\\xe6\\x91\\xb8\\xe5\\xba\\x953/1/1.sol\":1732:1752  balances[msg.sender] */\n      0xffffffffffffffffffffffffffffffffffffffff\n      and\n      0xffffffffffffffffffffffffffffffffffffffff\n      and\n      dup2\n      mstore\n      0x20\n      add\n      swap1\n      dup2\n      mstore\n      0x20\n      add\n      0x00\n      keccak256\n        /* \"shoot/\\xe6\\x91\\xb8\\xe5\\xba\\x953/1/1.sol\":1732:1785  balances[msg.sender] = balances[msg.sender]-numTokens */\n      dup2\n      swap1\n      sstore\n      pop\n        /* \"shoot/\\xe6\\x91\\xb8\\xe5\\xba\\x953/1/1.sol\":1836:1845  numTokens */\n      dup2\n        /* \"shoot/\\xe6\\x91\\xb8\\xe5\\xba\\x953/1/1.sol\":1817:1825  balances */\n      0x00\n        /* \"shoot/\\xe6\\x91\\xb8\\xe5\\xba\\x953/1/1.sol\":1817:1835  balances[receiver] */\n      dup1\n        /* \"shoot/\\xe6\\x91\\xb8\\xe5\\xba\\x953/1/1.sol\":1826:1834  receiver */\n      dup6\n        /* \"shoot/\\xe6\\x91\\xb8\\xe5\\xba\\x953/1/1.sol\":1817:1835  balances[receiver] */\n      0xffffffffffffffffffffffffffffffffffffffff\n      and\n      0xffffffffffffffffffffffffffffffffffffffff\n      and\n      dup2\n      mstore\n      0x20\n      add\n      swap1\n      dup2\n      mstore\n      0x20\n      add\n      0x00\n      keccak256\n      sload\n        /* \"shoot/\\xe6\\x91\\xb8\\xe5\\xba\\x953/1/1.sol\":1817:1845  balances[receiver]+numTokens */\n      tag_112\n      swap2\n      swap1\n      tag_102\n      jump\t// in\n    tag_112:\n        /* \"shoot/\\xe6\\x91\\xb8\\xe5\\xba\\x953/1/1.sol\":1796:1804  balances */\n      0x00\n        /* \"shoot/\\xe6\\x91\\xb8\\xe5\\xba\\x953/1/1.sol\":1796:1814  balances[receiver] */\n      dup1\n        /* \"shoot/\\xe6\\x91\\xb8\\xe5\\xba\\x953/1/1.sol\":1805:1813  receiver */\n      dup6\n        /* \"shoot/\\xe6\\x91\\xb8\\xe5\\xba\\x953/1/1.sol\":1796:1814  balances[receiver] */\n      0xffffffffffffffffffffffffffffffffffffffff\n      and\n      0xffffffffffffffffffffffffffffffffffffffff\n      and\n      dup2\n      mstore\n      0x20\n      add\n      swap1\n      dup2\n      mstore\n      0x20\n      add\n      0x00\n      keccak256\n        /* \"shoot/\\xe6\\x91\\xb8\\xe5\\xba\\x953/1/1.sol\":1796:1845  balances[receiver] = balances[receiver]+numTokens */\n      dup2\n      swap1\n      sstore\n      pop\n        /* \"shoot/\\xe6\\x91\\xb8\\xe5\\xba\\x953/1/1.sol\":1882:1890  receiver */\n      dup3\n        /* \"shoot/\\xe6\\x91\\xb8\\xe5\\xba\\x953/1/1.sol\":1861:1902  Transfer(msg.sender, receiver, numTokens) */\n      0xffffffffffffffffffffffffffffffffffffffff\n      and\n        /* \"shoot/\\xe6\\x91\\xb8\\xe5\\xba\\x953/1/1.sol\":1870:1880  msg.sender */\n      caller\n        /* \"shoot/\\xe6\\x91\\xb8\\xe5\\xba\\x953/1/1.sol\":1861:1902  Transfer(msg.sender, receiver, numTokens) */\n      0xffffffffffffffffffffffffffffffffffffffff\n      and\n      0xddf252ad1be2c89b69c2b068fc378daa952ba7f163c4a11628f55a4df523b3ef\n        /* \"shoot/\\xe6\\x91\\xb8\\xe5\\xba\\x953/1/1.sol\":1892:1901  numTokens */\n      dup5\n        /* \"shoot/\\xe6\\x91\\xb8\\xe5\\xba\\x953/1/1.sol\":1861:1902  Transfer(msg.sender, receiver, numTokens) */\n      mload(0x40)\n      tag_113\n      swap2\n      swap1\n      tag_42\n      jump\t// in\n    tag_113:\n      mload(0x40)\n      dup1\n      swap2\n      sub\n      swap1\n      log3\n        /* \"shoot/\\xe6\\x91\\xb8\\xe5\\xba\\x953/1/1.sol\":1920:1924  true */\n      0x01\n        /* \"shoot/\\xe6\\x91\\xb8\\xe5\\xba\\x953/1/1.sol\":1913:1924  return true */\n      swap1\n      pop\n        /* \"shoot/\\xe6\\x91\\xb8\\xe5\\xba\\x953/1/1.sol\":1582:1932  function transfer(address receiver, uint256 numTokens) public override returns (bool) {... */\n      swap3\n      swap2\n      pop\n      pop\n      jump\t// out\n        /* \"shoot/\\xe6\\x91\\xb8\\xe5\\xba\\x953/1/1.sol\":3094:3180  function timestamp()public view returns(uint256){... */\n    tag_71:\n        /* \"shoot/\\xe6\\x91\\xb8\\xe5\\xba\\x953/1/1.sol\":3134:3141  uint256 */\n      0x00\n        /* \"shoot/\\xe6\\x91\\xb8\\xe5\\xba\\x953/1/1.sol\":3160:3172  block.number */\n      number\n        /* \"shoot/\\xe6\\x91\\xb8\\xe5\\xba\\x953/1/1.sol\":3153:3172  return block.number */\n      swap1\n      pop\n        /* \"shoot/\\xe6\\x91\\xb8\\xe5\\xba\\x953/1/1.sol\":3094:3180  function timestamp()public view returns(uint256){... */\n      swap1\n      jump\t// out\n        /* \"shoot/\\xe6\\x91\\xb8\\xe5\\xba\\x953/1/1.sol\":3516:3769  function finish()public{... */\n    tag_74:\n        /* \"shoot/\\xe6\\x91\\xb8\\xe5\\xba\\x953/1/1.sol\":3550:3571  workUser storage user */\n      0x00\n        /* \"shoot/\\xe6\\x91\\xb8\\xe5\\xba\\x953/1/1.sol\":3574:3583  workusers */\n      0x03\n        /* \"shoot/\\xe6\\x91\\xb8\\xe5\\xba\\x953/1/1.sol\":3574:3595  workusers[msg.sender] */\n      0x00\n        /* \"shoot/\\xe6\\x91\\xb8\\xe5\\xba\\x953/1/1.sol\":3584:3594  msg.sender */\n      caller\n        /* \"shoot/\\xe6\\x91\\xb8\\xe5\\xba\\x953/1/1.sol\":3574:3595  workusers[msg.sender] */\n      0xffffffffffffffffffffffffffffffffffffffff\n      and\n      0xffffffffffffffffffffffffffffffffffffffff\n      and\n      dup2\n      mstore\n      0x20\n      add\n      swap1\n      dup2\n      mstore\n      0x20\n      add\n      0x00\n      keccak256\n        /* \"shoot/\\xe6\\x91\\xb8\\xe5\\xba\\x953/1/1.sol\":3550:3595  workUser storage user = workusers[msg.sender] */\n      swap1\n      pop\n        /* \"shoot/\\xe6\\x91\\xb8\\xe5\\xba\\x953/1/1.sol\":3645:3649  user */\n      dup1\n        /* \"shoot/\\xe6\\x91\\xb8\\xe5\\xba\\x953/1/1.sol\":3645:3663  user.workingNumber */\n      0x01\n      add\n      sload\n        /* \"shoot/\\xe6\\x91\\xb8\\xe5\\xba\\x953/1/1.sol\":3628:3632  user */\n      dup2\n        /* \"shoot/\\xe6\\x91\\xb8\\xe5\\xba\\x953/1/1.sol\":3628:3644  user.startNumber */\n      0x00\n      add\n      sload\n        /* \"shoot/\\xe6\\x91\\xb8\\xe5\\xba\\x953/1/1.sol\":3628:3663  user.startNumber+user.workingNumber */\n      tag_116\n      swap2\n      swap1\n      tag_102\n      jump\t// in\n    tag_116:\n        /* \"shoot/\\xe6\\x91\\xb8\\xe5\\xba\\x953/1/1.sol\":3614:3626  block.number */\n      number\n        /* \"shoot/\\xe6\\x91\\xb8\\xe5\\xba\\x953/1/1.sol\":3614:3663  block.number>=user.startNumber+user.workingNumber */\n      lt\n      iszero\n        /* \"shoot/\\xe6\\x91\\xb8\\xe5\\xba\\x953/1/1.sol\":3606:3664  require(block.number>=user.startNumber+user.workingNumber) */\n      tag_117\n      jumpi\n      0x00\n      dup1\n      revert\n    tag_117:\n        /* \"shoot/\\xe6\\x91\\xb8\\xe5\\xba\\x953/1/1.sol\":3677:3681  this */\n      address\n        /* \"shoot/\\xe6\\x91\\xb8\\xe5\\xba\\x953/1/1.sol\":3677:3690  this.transfer */\n      0xffffffffffffffffffffffffffffffffffffffff\n      and\n      0xa9059cbb\n        /* \"shoot/\\xe6\\x91\\xb8\\xe5\\xba\\x953/1/1.sol\":3691:3701  msg.sender */\n      caller\n        /* \"shoot/\\xe6\\x91\\xb8\\xe5\\xba\\x953/1/1.sol\":3702:3706  user */\n      dup4\n        /* \"shoot/\\xe6\\x91\\xb8\\xe5\\xba\\x953/1/1.sol\":3702:3720  user.workingNumber */\n      0x01\n      add\n      sload\n        /* \"shoot/\\xe6\\x91\\xb8\\xe5\\xba\\x953/1/1.sol\":3677:3721  this.transfer(msg.sender,user.workingNumber) */\n      mload(0x40)\n      dup4\n      0xffffffff\n      and\n      0xe0\n      shl\n      dup2\n      mstore\n      0x04\n      add\n      tag_118\n      swap3\n      swap2\n      swap1\n      tag_119\n      jump\t// in\n    tag_118:\n      0x20\n      mload(0x40)\n      dup1\n      dup4\n      sub\n      dup2\n      0x00\n      dup8\n      gas\n      call\n      iszero\n      dup1\n      iszero\n      tag_121\n      jumpi\n      returndatasize\n      0x00\n      dup1\n      returndatacopy\n      revert(0x00, returndatasize)\n    tag_121:\n      pop\n      pop\n      pop\n      pop\n      mload(0x40)\n      returndatasize\n      not(0x1f)\n      0x1f\n      dup3\n      add\n      and\n      dup3\n      add\n      dup1\n      0x40\n      mstore\n      pop\n      dup2\n      add\n      swap1\n      tag_122\n      swap2\n      swap1\n      tag_123\n      jump\t// in\n    tag_122:\n      pop\n        /* \"shoot/\\xe6\\x91\\xb8\\xe5\\xba\\x953/1/1.sol\":3739:3748  workusers */\n      0x03\n        /* \"shoot/\\xe6\\x91\\xb8\\xe5\\xba\\x953/1/1.sol\":3739:3760  workusers[msg.sender] */\n      0x00\n        /* \"shoot/\\xe6\\x91\\xb8\\xe5\\xba\\x953/1/1.sol\":3749:3759  msg.sender */\n      caller\n        /* \"shoot/\\xe6\\x91\\xb8\\xe5\\xba\\x953/1/1.sol\":3739:3760  workusers[msg.sender] */\n      0xffffffffffffffffffffffffffffffffffffffff\n      and\n      0xffffffffffffffffffffffffffffffffffffffff\n      and\n      dup2\n      mstore\n      0x20\n      add\n      swap1\n      dup2\n      mstore\n      0x20\n      add\n      0x00\n      keccak256\n      0x00\n        /* \"shoot/\\xe6\\x91\\xb8\\xe5\\xba\\x953/1/1.sol\":3732:3761  delete(workusers[msg.sender]) */\n      dup1\n      dup3\n      add\n      0x00\n      swap1\n      sstore\n      0x01\n      dup3\n      add\n      0x00\n      swap1\n      sstore\n      pop\n      pop\n        /* \"shoot/\\xe6\\x91\\xb8\\xe5\\xba\\x953/1/1.sol\":3539:3769  {... */\n      pop\n        /* \"shoot/\\xe6\\x91\\xb8\\xe5\\xba\\x953/1/1.sol\":3516:3769  function finish()public{... */\n      jump\t// out\n        /* \"shoot/\\xe6\\x91\\xb8\\xe5\\xba\\x953/1/1.sol\":2172:2310  function allowance(address owner, address delegate) public override view returns (uint) {... */\n    tag_78:\n        /* \"shoot/\\xe6\\x91\\xb8\\xe5\\xba\\x953/1/1.sol\":2254:2258  uint */\n      0x00\n        /* \"shoot/\\xe6\\x91\\xb8\\xe5\\xba\\x953/1/1.sol\":2278:2285  allowed */\n      0x01\n        /* \"shoot/\\xe6\\x91\\xb8\\xe5\\xba\\x953/1/1.sol\":2278:2292  allowed[owner] */\n      0x00\n        /* \"shoot/\\xe6\\x91\\xb8\\xe5\\xba\\x953/1/1.sol\":2286:2291  owner */\n      dup5\n        /* \"shoot/\\xe6\\x91\\xb8\\xe5\\xba\\x953/1/1.sol\":2278:2292  allowed[owner] */\n      0xffffffffffffffffffffffffffffffffffffffff\n      and\n      0xffffffffffffffffffffffffffffffffffffffff\n      and\n      dup2\n      mstore\n      0x20\n      add\n      swap1\n      dup2\n      mstore\n      0x20\n      add\n      0x00\n      keccak256\n        /* \"shoot/\\xe6\\x91\\xb8\\xe5\\xba\\x953/1/1.sol\":2278:2302  allowed[owner][delegate] */\n      0x00\n        /* \"shoot/\\xe6\\x91\\xb8\\xe5\\xba\\x953/1/1.sol\":2293:2301  delegate */\n      dup4\n        /* \"shoot/\\xe6\\x91\\xb8\\xe5\\xba\\x953/1/1.sol\":2278:2302  allowed[owner][delegate] */\n      0xffffffffffffffffffffffffffffffffffffffff\n      and\n      0xffffffffffffffffffffffffffffffffffffffff\n      and\n      dup2\n      mstore\n      0x20\n      add\n      swap1\n      dup2\n      mstore\n      0x20\n      add\n      0x00\n      keccak256\n      sload\n        /* \"shoot/\\xe6\\x91\\xb8\\xe5\\xba\\x953/1/1.sol\":2271:2302  return allowed[owner][delegate] */\n      swap1\n      pop\n        /* \"shoot/\\xe6\\x91\\xb8\\xe5\\xba\\x953/1/1.sol\":2172:2310  function allowance(address owner, address delegate) public override view returns (uint) {... */\n      swap3\n      swap2\n      pop\n      pop\n      jump\t// out\n        /* \"shoot/\\xe6\\x91\\xb8\\xe5\\xba\\x953/1/1.sol\":3777:4012  function updateStart()public{... */\n    tag_81:\n        /* \"shoot/\\xe6\\x91\\xb8\\xe5\\xba\\x953/1/1.sol\":3816:3837  workUser storage user */\n      0x00\n        /* \"shoot/\\xe6\\x91\\xb8\\xe5\\xba\\x953/1/1.sol\":3840:3849  workusers */\n      0x03\n        /* \"shoot/\\xe6\\x91\\xb8\\xe5\\xba\\x953/1/1.sol\":3840:3861  workusers[msg.sender] */\n      0x00\n        /* \"shoot/\\xe6\\x91\\xb8\\xe5\\xba\\x953/1/1.sol\":3850:3860  msg.sender */\n      caller\n        /* \"shoot/\\xe6\\x91\\xb8\\xe5\\xba\\x953/1/1.sol\":3840:3861  workusers[msg.sender] */\n      0xffffffffffffffffffffffffffffffffffffffff\n      and\n      0xffffffffffffffffffffffffffffffffffffffff\n      and\n      dup2\n      mstore\n      0x20\n      add\n      swap1\n      dup2\n      mstore\n      0x20\n      add\n      0x00\n      keccak256\n        /* \"shoot/\\xe6\\x91\\xb8\\xe5\\xba\\x953/1/1.sol\":3816:3861  workUser storage user = workusers[msg.sender] */\n      swap1\n      pop\n        /* \"shoot/\\xe6\\x91\\xb8\\xe5\\xba\\x953/1/1.sol\":3919:3923  user */\n      dup1\n        /* \"shoot/\\xe6\\x91\\xb8\\xe5\\xba\\x953/1/1.sol\":3919:3935  user.startNumber */\n      0x00\n      add\n      sload\n        /* \"shoot/\\xe6\\x91\\xb8\\xe5\\xba\\x953/1/1.sol\":3894:3904  msg.sender */\n      caller\n        /* \"shoot/\\xe6\\x91\\xb8\\xe5\\xba\\x953/1/1.sol\":3880:3916  Itime(address(msg.sender)).timestamp */\n      0xffffffffffffffffffffffffffffffffffffffff\n      and\n      0xb80777ea\n        /* \"shoot/\\xe6\\x91\\xb8\\xe5\\xba\\x953/1/1.sol\":3880:3918  Itime(address(msg.sender)).timestamp() */\n      mload(0x40)\n      dup2\n      0xffffffff\n      and\n      0xe0\n      shl\n      dup2\n      mstore\n      0x04\n      add\n      0x20\n      mload(0x40)\n      dup1\n      dup4\n      sub\n      dup2\n      0x00\n      dup8\n      gas\n      call\n      iszero\n      dup1\n      iszero\n      tag_127\n      jumpi\n      returndatasize\n      0x00\n      dup1\n      returndatacopy\n      revert(0x00, returndatasize)\n    tag_127:\n      pop\n      pop\n      pop\n      pop\n      mload(0x40)\n      returndatasize\n      not(0x1f)\n      0x1f\n      dup3\n      add\n      and\n      dup3\n      add\n      dup1\n      0x40\n      mstore\n      pop\n      dup2\n      add\n      swap1\n      tag_128\n      swap2\n      swap1\n      tag_93\n      jump\t// in\n    tag_128:\n        /* \"shoot/\\xe6\\x91\\xb8\\xe5\\xba\\x953/1/1.sol\":3880:3935  Itime(address(msg.sender)).timestamp()>user.startNumber */\n      gt\n        /* \"shoot/\\xe6\\x91\\xb8\\xe5\\xba\\x953/1/1.sol\":3872:3936  require(Itime(address(msg.sender)).timestamp()>user.startNumber) */\n      tag_129\n      jumpi\n      0x00\n      dup1\n      revert\n    tag_129:\n        /* \"shoot/\\xe6\\x91\\xb8\\xe5\\xba\\x953/1/1.sol\":3980:3990  msg.sender */\n      caller\n        /* \"shoot/\\xe6\\x91\\xb8\\xe5\\xba\\x953/1/1.sol\":3966:4002  Itime(address(msg.sender)).timestamp */\n      0xffffffffffffffffffffffffffffffffffffffff\n      and\n      0xb80777ea\n        /* \"shoot/\\xe6\\x91\\xb8\\xe5\\xba\\x953/1/1.sol\":3966:4004  Itime(address(msg.sender)).timestamp() */\n      mload(0x40)\n      dup2\n      0xffffffff\n      and\n      0xe0\n      shl\n      dup2\n      mstore\n      0x04\n      add\n      0x20\n      mload(0x40)\n      dup1\n      dup4\n      sub\n      dup2\n      0x00\n      dup8\n      gas\n      call\n      iszero\n      dup1\n      iszero\n      tag_131\n      jumpi\n      returndatasize\n      0x00\n      dup1\n      returndatacopy\n      revert(0x00, returndatasize)\n    tag_131:\n      pop\n      pop\n      pop\n      pop\n      mload(0x40)\n      returndatasize\n      not(0x1f)\n      0x1f\n      dup3\n      add\n      and\n      dup3\n      add\n      dup1\n      0x40\n      mstore\n      pop\n      dup2\n      add\n      swap1\n      tag_132\n      swap2\n      swap1\n      tag_93\n      jump\t// in\n    tag_132:\n        /* \"shoot/\\xe6\\x91\\xb8\\xe5\\xba\\x953/1/1.sol\":3947:3951  user */\n      dup2\n        /* \"shoot/\\xe6\\x91\\xb8\\xe5\\xba\\x953/1/1.sol\":3947:3963  user.startNumber */\n      0x00\n      add\n        /* \"shoot/\\xe6\\x91\\xb8\\xe5\\xba\\x953/1/1.sol\":3947:4004  user.startNumber = Itime(address(msg.sender)).timestamp() */\n      dup2\n      swap1\n      sstore\n      pop\n        /* \"shoot/\\xe6\\x91\\xb8\\xe5\\xba\\x953/1/1.sol\":3805:4012  {... */\n      pop\n        /* \"shoot/\\xe6\\x91\\xb8\\xe5\\xba\\x953/1/1.sol\":3777:4012  function updateStart()public{... */\n      jump\t// out\n        /* \"shoot/\\xe6\\x91\\xb8\\xe5\\xba\\x953/1/1.sol\":4600:4620  uint256 public score */\n    tag_83:\n      sload(0x04)\n      dup2\n      jump\t// out\n        /* \"shoot/\\xe6\\x91\\xb8\\xe5\\xba\\x953/1/1.sol\":4627:4846  function isCompleted()public{... */\n    tag_86:\n        /* \"shoot/\\xe6\\x91\\xb8\\xe5\\xba\\x953/1/1.sol\":4672:4673  0 */\n      0x00\n        /* \"shoot/\\xe6\\x91\\xb8\\xe5\\xba\\x953/1/1.sol\":4666:4671  score */\n      0x04\n        /* \"shoot/\\xe6\\x91\\xb8\\xe5\\xba\\x953/1/1.sol\":4666:4673  score=0 */\n      dup2\n      swap1\n      sstore\n      pop\n        /* \"shoot/\\xe6\\x91\\xb8\\xe5\\xba\\x953/1/1.sol\":4724:4725  0 */\n      0x00\n        /* \"shoot/\\xe6\\x91\\xb8\\xe5\\xba\\x953/1/1.sol\":4687:4696  workusers */\n      0x03\n        /* \"shoot/\\xe6\\x91\\xb8\\xe5\\xba\\x953/1/1.sol\":4687:4708  workusers[msg.sender] */\n      0x00\n        /* \"shoot/\\xe6\\x91\\xb8\\xe5\\xba\\x953/1/1.sol\":4697:4707  msg.sender */\n      caller\n        /* \"shoot/\\xe6\\x91\\xb8\\xe5\\xba\\x953/1/1.sol\":4687:4708  workusers[msg.sender] */\n      0xffffffffffffffffffffffffffffffffffffffff\n      and\n      0xffffffffffffffffffffffffffffffffffffffff\n      and\n      dup2\n      mstore\n      0x20\n      add\n      swap1\n      dup2\n      mstore\n      0x20\n      add\n      0x00\n      keccak256\n        /* \"shoot/\\xe6\\x91\\xb8\\xe5\\xba\\x953/1/1.sol\":4687:4722  workusers[msg.sender].workingNumber */\n      0x01\n      add\n      sload\n        /* \"shoot/\\xe6\\x91\\xb8\\xe5\\xba\\x953/1/1.sol\":4687:4725  workusers[msg.sender].workingNumber!=0 */\n      eq\n        /* \"shoot/\\xe6\\x91\\xb8\\xe5\\xba\\x953/1/1.sol\":4684:4762  if(workusers[msg.sender].workingNumber!=0){... */\n      tag_134\n      jumpi\n        /* \"shoot/\\xe6\\x91\\xb8\\xe5\\xba\\x953/1/1.sol\":4748:4750  25 */\n      0x19\n        /* \"shoot/\\xe6\\x91\\xb8\\xe5\\xba\\x953/1/1.sol\":4741:4746  score */\n      0x04\n      0x00\n        /* \"shoot/\\xe6\\x91\\xb8\\xe5\\xba\\x953/1/1.sol\":4741:4750  score+=25 */\n      dup3\n      dup3\n      sload\n      tag_135\n      swap2\n      swap1\n      tag_102\n      jump\t// in\n    tag_135:\n      swap3\n      pop\n      pop\n      dup2\n      swap1\n      sstore\n      pop\n        /* \"shoot/\\xe6\\x91\\xb8\\xe5\\xba\\x953/1/1.sol\":4684:4762  if(workusers[msg.sender].workingNumber!=0){... */\n    tag_134:\n        /* \"shoot/\\xe6\\x91\\xb8\\xe5\\xba\\x953/1/1.sol\":4801:4802  0 */\n      0x00\n        /* \"shoot/\\xe6\\x91\\xb8\\xe5\\xba\\x953/1/1.sol\":4776:4784  balances */\n      dup1\n        /* \"shoot/\\xe6\\x91\\xb8\\xe5\\xba\\x953/1/1.sol\":4776:4799  balances[address(this)] */\n      0x00\n        /* \"shoot/\\xe6\\x91\\xb8\\xe5\\xba\\x953/1/1.sol\":4793:4797  this */\n      address\n        /* \"shoot/\\xe6\\x91\\xb8\\xe5\\xba\\x953/1/1.sol\":4776:4799  balances[address(this)] */\n      0xffffffffffffffffffffffffffffffffffffffff\n      and\n      0xffffffffffffffffffffffffffffffffffffffff\n      and\n      dup2\n      mstore\n      0x20\n      add\n      swap1\n      dup2\n      mstore\n      0x20\n      add\n      0x00\n      keccak256\n      sload\n        /* \"shoot/\\xe6\\x91\\xb8\\xe5\\xba\\x953/1/1.sol\":4776:4802  balances[address(this)]==0 */\n      sub\n        /* \"shoot/\\xe6\\x91\\xb8\\xe5\\xba\\x953/1/1.sol\":4772:4839  if (balances[address(this)]==0){... */\n      tag_136\n      jumpi\n        /* \"shoot/\\xe6\\x91\\xb8\\xe5\\xba\\x953/1/1.sol\":4825:4827  75 */\n      0x4b\n        /* \"shoot/\\xe6\\x91\\xb8\\xe5\\xba\\x953/1/1.sol\":4818:4823  score */\n      0x04\n      0x00\n        /* \"shoot/\\xe6\\x91\\xb8\\xe5\\xba\\x953/1/1.sol\":4818:4827  score+=75 */\n      dup3\n      dup3\n      sload\n      tag_137\n      swap2\n      swap1\n      tag_102\n      jump\t// in\n    tag_137:\n      swap3\n      pop\n      pop\n      dup2\n      swap1\n      sstore\n      pop\n        /* \"shoot/\\xe6\\x91\\xb8\\xe5\\xba\\x953/1/1.sol\":4772:4839  if (balances[address(this)]==0){... */\n    tag_136:\n        /* \"shoot/\\xe6\\x91\\xb8\\xe5\\xba\\x953/1/1.sol\":4627:4846  function isCompleted()public{... */\n      jump\t// out\n        /* \"#utility.yul\":88:205   */\n    tag_139:\n        /* \"#utility.yul\":197:198   */\n      0x00\n        /* \"#utility.yul\":194:195   */\n      dup1\n        /* \"#utility.yul\":187:199   */\n      revert\n        /* \"#utility.yul\":334:460   */\n    tag_141:\n        /* \"#utility.yul\":371:378   */\n      0x00\n        /* \"#utility.yul\":411:453   */\n      0xffffffffffffffffffffffffffffffffffffffff\n        /* \"#utility.yul\":404:409   */\n      dup3\n        /* \"#utility.yul\":400:454   */\n      and\n        /* \"#utility.yul\":389:454   */\n      swap1\n      pop\n        /* \"#utility.yul\":334:460   */\n      swap2\n      swap1\n      pop\n      jump\t// out\n        /* \"#utility.yul\":466:562   */\n    tag_142:\n        /* \"#utility.yul\":503:510   */\n      0x00\n        /* \"#utility.yul\":532:556   */\n      tag_169\n        /* \"#utility.yul\":550:555   */\n      dup3\n        /* \"#utility.yul\":532:556   */\n      tag_141\n      jump\t// in\n    tag_169:\n        /* \"#utility.yul\":521:556   */\n      swap1\n      pop\n        /* \"#utility.yul\":466:562   */\n      swap2\n      swap1\n      pop\n      jump\t// out\n        /* \"#utility.yul\":568:690   */\n    tag_143:\n        /* \"#utility.yul\":641:665   */\n      tag_171\n        /* \"#utility.yul\":659:664   */\n      dup2\n        /* \"#utility.yul\":641:665   */\n      tag_142\n      jump\t// in\n    tag_171:\n        /* \"#utility.yul\":634:639   */\n      dup2\n        /* \"#utility.yul\":631:666   */\n      eq\n        /* \"#utility.yul\":621:684   */\n      tag_172\n      jumpi\n        /* \"#utility.yul\":680:681   */\n      0x00\n        /* \"#utility.yul\":677:678   */\n      dup1\n        /* \"#utility.yul\":670:682   */\n      revert\n        /* \"#utility.yul\":621:684   */\n    tag_172:\n        /* \"#utility.yul\":568:690   */\n      pop\n      jump\t// out\n        /* \"#utility.yul\":696:835   */\n    tag_144:\n        /* \"#utility.yul\":742:747   */\n      0x00\n        /* \"#utility.yul\":780:786   */\n      dup2\n        /* \"#utility.yul\":767:787   */\n      calldataload\n        /* \"#utility.yul\":758:787   */\n      swap1\n      pop\n        /* \"#utility.yul\":796:829   */\n      tag_174\n        /* \"#utility.yul\":823:828   */\n      dup2\n        /* \"#utility.yul\":796:829   */\n      tag_143\n      jump\t// in\n    tag_174:\n        /* \"#utility.yul\":696:835   */\n      swap3\n      swap2\n      pop\n      pop\n      jump\t// out\n        /* \"#utility.yul\":841:1170   */\n    tag_25:\n        /* \"#utility.yul\":900:906   */\n      0x00\n        /* \"#utility.yul\":949:951   */\n      0x20\n        /* \"#utility.yul\":937:946   */\n      dup3\n        /* \"#utility.yul\":928:935   */\n      dup5\n        /* \"#utility.yul\":924:947   */\n      sub\n        /* \"#utility.yul\":920:952   */\n      slt\n        /* \"#utility.yul\":917:1036   */\n      iszero\n      tag_176\n      jumpi\n        /* \"#utility.yul\":955:1034   */\n      tag_177\n      tag_139\n      jump\t// in\n    tag_177:\n        /* \"#utility.yul\":917:1036   */\n    tag_176:\n        /* \"#utility.yul\":1075:1076   */\n      0x00\n        /* \"#utility.yul\":1100:1153   */\n      tag_178\n        /* \"#utility.yul\":1145:1152   */\n      dup5\n        /* \"#utility.yul\":1136:1142   */\n      dup3\n        /* \"#utility.yul\":1125:1134   */\n      dup6\n        /* \"#utility.yul\":1121:1143   */\n      add\n        /* \"#utility.yul\":1100:1153   */\n      tag_144\n      jump\t// in\n    tag_178:\n        /* \"#utility.yul\":1090:1153   */\n      swap2\n      pop\n        /* \"#utility.yul\":1046:1163   */\n      pop\n        /* \"#utility.yul\":841:1170   */\n      swap3\n      swap2\n      pop\n      pop\n      jump\t// out\n        /* \"#utility.yul\":1176:1253   */\n    tag_145:\n        /* \"#utility.yul\":1213:1220   */\n      0x00\n        /* \"#utility.yul\":1242:1247   */\n      dup2\n        /* \"#utility.yul\":1231:1247   */\n      swap1\n      pop\n        /* \"#utility.yul\":1176:1253   */\n      swap2\n      swap1\n      pop\n      jump\t// out\n        /* \"#utility.yul\":1259:1377   */\n    tag_146:\n        /* \"#utility.yul\":1346:1370   */\n      tag_181\n        /* \"#utility.yul\":1364:1369   */\n      dup2\n        /* \"#utility.yul\":1346:1370   */\n      tag_145\n      jump\t// in\n    tag_181:\n        /* \"#utility.yul\":1341:1344   */\n      dup3\n        /* \"#utility.yul\":1334:1371   */\n      mstore\n        /* \"#utility.yul\":1259:1377   */\n      pop\n      pop\n      jump\t// out\n        /* \"#utility.yul\":1383:1715   */\n    tag_28:\n        /* \"#utility.yul\":1504:1508   */\n      0x00\n        /* \"#utility.yul\":1542:1544   */\n      0x40\n        /* \"#utility.yul\":1531:1540   */\n      dup3\n        /* \"#utility.yul\":1527:1545   */\n      add\n        /* \"#utility.yul\":1519:1545   */\n      swap1\n      pop\n        /* \"#utility.yul\":1555:1626   */\n      tag_183\n        /* \"#utility.yul\":1623:1624   */\n      0x00\n        /* \"#utility.yul\":1612:1621   */\n      dup4\n        /* \"#utility.yul\":1608:1625   */\n      add\n        /* \"#utility.yul\":1599:1605   */\n      dup6\n        /* \"#utility.yul\":1555:1626   */\n      tag_146\n      jump\t// in\n    tag_183:\n        /* \"#utility.yul\":1636:1708   */\n      tag_184\n        /* \"#utility.yul\":1704:1706   */\n      0x20\n        /* \"#utility.yul\":1693:1702   */\n      dup4\n        /* \"#utility.yul\":1689:1707   */\n      add\n        /* \"#utility.yul\":1680:1686   */\n      dup5\n        /* \"#utility.yul\":1636:1708   */\n      tag_146\n      jump\t// in\n    tag_184:\n        /* \"#utility.yul\":1383:1715   */\n      swap4\n      swap3\n      pop\n      pop\n      pop\n      jump\t// out\n        /* \"#utility.yul\":1721:1820   */\n    tag_147:\n        /* \"#utility.yul\":1773:1779   */\n      0x00\n        /* \"#utility.yul\":1807:1812   */\n      dup2\n        /* \"#utility.yul\":1801:1813   */\n      mload\n        /* \"#utility.yul\":1791:1813   */\n      swap1\n      pop\n        /* \"#utility.yul\":1721:1820   */\n      swap2\n      swap1\n      pop\n      jump\t// out\n        /* \"#utility.yul\":1826:1995   */\n    tag_148:\n        /* \"#utility.yul\":1910:1921   */\n      0x00\n        /* \"#utility.yul\":1944:1950   */\n      dup3\n        /* \"#utility.yul\":1939:1942   */\n      dup3\n        /* \"#utility.yul\":1932:1951   */\n      mstore\n        /* \"#utility.yul\":1984:1988   */\n      0x20\n        /* \"#utility.yul\":1979:1982   */\n      dup3\n        /* \"#utility.yul\":1975:1989   */\n      add\n        /* \"#utility.yul\":1960:1989   */\n      swap1\n      pop\n        /* \"#utility.yul\":1826:1995   */\n      swap3\n      swap2\n      pop\n      pop\n      jump\t// out\n        /* \"#utility.yul\":2001:2247   */\n    tag_149:\n        /* \"#utility.yul\":2082:2083   */\n      0x00\n        /* \"#utility.yul\":2092:2205   */\n    tag_188:\n        /* \"#utility.yul\":2106:2112   */\n      dup4\n        /* \"#utility.yul\":2103:2104   */\n      dup2\n        /* \"#utility.yul\":2100:2113   */\n      lt\n        /* \"#utility.yul\":2092:2205   */\n      iszero\n      tag_190\n      jumpi\n        /* \"#utility.yul\":2191:2192   */\n      dup1\n        /* \"#utility.yul\":2186:2189   */\n      dup3\n        /* \"#utility.yul\":2182:2193   */\n      add\n        /* \"#utility.yul\":2176:2194   */\n      mload\n        /* \"#utility.yul\":2172:2173   */\n      dup2\n        /* \"#utility.yul\":2167:2170   */\n      dup5\n        /* \"#utility.yul\":2163:2174   */\n      add\n        /* \"#utility.yul\":2156:2195   */\n      mstore\n        /* \"#utility.yul\":2128:2130   */\n      0x20\n        /* \"#utility.yul\":2125:2126   */\n      dup2\n        /* \"#utility.yul\":2121:2131   */\n      add\n        /* \"#utility.yul\":2116:2131   */\n      swap1\n      pop\n        /* \"#utility.yul\":2092:2205   */\n      jump(tag_188)\n    tag_190:\n        /* \"#utility.yul\":2239:2240   */\n      0x00\n        /* \"#utility.yul\":2230:2236   */\n      dup5\n        /* \"#utility.yul\":2225:2228   */\n      dup5\n        /* \"#utility.yul\":2221:2237   */\n      add\n        /* \"#utility.yul\":2214:2241   */\n      mstore\n        /* \"#utility.yul\":2063:2247   */\n      pop\n        /* \"#utility.yul\":2001:2247   */\n      pop\n      pop\n      pop\n      jump\t// out\n        /* \"#utility.yul\":2253:2355   */\n    tag_150:\n        /* \"#utility.yul\":2294:2300   */\n      0x00\n        /* \"#utility.yul\":2345:2347   */\n      0x1f\n        /* \"#utility.yul\":2341:2348   */\n      not\n        /* \"#utility.yul\":2336:2338   */\n      0x1f\n        /* \"#utility.yul\":2329:2334   */\n      dup4\n        /* \"#utility.yul\":2325:2339   */\n      add\n        /* \"#utility.yul\":2321:2349   */\n      and\n        /* \"#utility.yul\":2311:2349   */\n      swap1\n      pop\n        /* \"#utility.yul\":2253:2355   */\n      swap2\n      swap1\n      pop\n      jump\t// out\n        /* \"#utility.yul\":2361:2738   */\n    tag_151:\n        /* \"#utility.yul\":2449:2452   */\n      0x00\n        /* \"#utility.yul\":2477:2516   */\n      tag_193\n        /* \"#utility.yul\":2510:2515   */\n      dup3\n        /* \"#utility.yul\":2477:2516   */\n      tag_147\n      jump\t// in\n    tag_193:\n        /* \"#utility.yul\":2532:2603   */\n      tag_194\n        /* \"#utility.yul\":2596:2602   */\n      dup2\n        /* \"#utility.yul\":2591:2594   */\n      dup6\n        /* \"#utility.yul\":2532:2603   */\n      tag_148\n      jump\t// in\n    tag_194:\n        /* \"#utility.yul\":2525:2603   */\n      swap4\n      pop\n        /* \"#utility.yul\":2612:2677   */\n      tag_195\n        /* \"#utility.yul\":2670:2676   */\n      dup2\n        /* \"#utility.yul\":2665:2668   */\n      dup6\n        /* \"#utility.yul\":2658:2662   */\n      0x20\n        /* \"#utility.yul\":2651:2656   */\n      dup7\n        /* \"#utility.yul\":2647:2663   */\n      add\n        /* \"#utility.yul\":2612:2677   */\n      tag_149\n      jump\t// in\n    tag_195:\n        /* \"#utility.yul\":2702:2731   */\n      tag_196\n        /* \"#utility.yul\":2724:2730   */\n      dup2\n        /* \"#utility.yul\":2702:2731   */\n      tag_150\n      jump\t// in\n    tag_196:\n        /* \"#utility.yul\":2697:2700   */\n      dup5\n        /* \"#utility.yul\":2693:2732   */\n      add\n        /* \"#utility.yul\":2686:2732   */\n      swap2\n      pop\n        /* \"#utility.yul\":2453:2738   */\n      pop\n        /* \"#utility.yul\":2361:2738   */\n      swap3\n      swap2\n      pop\n      pop\n      jump\t// out\n        /* \"#utility.yul\":2744:3057   */\n    tag_32:\n        /* \"#utility.yul\":2857:2861   */\n      0x00\n        /* \"#utility.yul\":2895:2897   */\n      0x20\n        /* \"#utility.yul\":2884:2893   */\n      dup3\n        /* \"#utility.yul\":2880:2898   */\n      add\n        /* \"#utility.yul\":2872:2898   */\n      swap1\n      pop\n        /* \"#utility.yul\":2944:2953   */\n      dup2\n        /* \"#utility.yul\":2938:2942   */\n      dup2\n        /* \"#utility.yul\":2934:2954   */\n      sub\n        /* \"#utility.yul\":2930:2931   */\n      0x00\n        /* \"#utility.yul\":2919:2928   */\n      dup4\n        /* \"#utility.yul\":2915:2932   */\n      add\n        /* \"#utility.yul\":2908:2955   */\n      mstore\n        /* \"#utility.yul\":2972:3050   */\n      tag_198\n        /* \"#utility.yul\":3045:3049   */\n      dup2\n        /* \"#utility.yul\":3036:3042   */\n      dup5\n        /* \"#utility.yul\":2972:3050   */\n      tag_151\n      jump\t// in\n    tag_198:\n        /* \"#utility.yul\":2964:3050   */\n      swap1\n      pop\n        /* \"#utility.yul\":2744:3057   */\n      swap3\n      swap2\n      pop\n      pop\n      jump\t// out\n        /* \"#utility.yul\":3063:3185   */\n    tag_152:\n        /* \"#utility.yul\":3136:3160   */\n      tag_200\n        /* \"#utility.yul\":3154:3159   */\n      dup2\n        /* \"#utility.yul\":3136:3160   */\n      tag_145\n      jump\t// in\n    tag_200:\n        /* \"#utility.yul\":3129:3134   */\n      dup2\n        /* \"#utility.yul\":3126:3161   */\n      eq\n        /* \"#utility.yul\":3116:3179   */\n      tag_201\n      jumpi\n        /* \"#utility.yul\":3175:3176   */\n      0x00\n        /* \"#utility.yul\":3172:3173   */\n      dup1\n        /* \"#utility.yul\":3165:3177   */\n      revert\n        /* \"#utility.yul\":3116:3179   */\n    tag_201:\n        /* \"#utility.yul\":3063:3185   */\n      pop\n      jump\t// out\n        /* \"#utility.yul\":3191:3330   */\n    tag_153:\n        /* \"#utility.yul\":3237:3242   */\n      0x00\n        /* \"#utility.yul\":3275:3281   */\n      dup2\n        /* \"#utility.yul\":3262:3282   */\n      calldataload\n        /* \"#utility.yul\":3253:3282   */\n      swap1\n      pop\n        /* \"#utility.yul\":3291:3324   */\n      tag_203\n        /* \"#utility.yul\":3318:3323   */\n      dup2\n        /* \"#utility.yul\":3291:3324   */\n      tag_152\n      jump\t// in\n    tag_203:\n        /* \"#utility.yul\":3191:3330   */\n      swap3\n      swap2\n      pop\n      pop\n      jump\t// out\n        /* \"#utility.yul\":3336:3810   */\n    tag_35:\n        /* \"#utility.yul\":3404:3410   */\n      0x00\n        /* \"#utility.yul\":3412:3418   */\n      dup1\n        /* \"#utility.yul\":3461:3463   */\n      0x40\n        /* \"#utility.yul\":3449:3458   */\n      dup4\n        /* \"#utility.yul\":3440:3447   */\n      dup6\n        /* \"#utility.yul\":3436:3459   */\n      sub\n        /* \"#utility.yul\":3432:3464   */\n      slt\n        /* \"#utility.yul\":3429:3548   */\n      iszero\n      tag_205\n      jumpi\n        /* \"#utility.yul\":3467:3546   */\n      tag_206\n      tag_139\n      jump\t// in\n    tag_206:\n        /* \"#utility.yul\":3429:3548   */\n    tag_205:\n        /* \"#utility.yul\":3587:3588   */\n      0x00\n        /* \"#utility.yul\":3612:3665   */\n      tag_207\n        /* \"#utility.yul\":3657:3664   */\n      dup6\n        /* \"#utility.yul\":3648:3654   */\n      dup3\n        /* \"#utility.yul\":3637:3646   */\n      dup7\n        /* \"#utility.yul\":3633:3655   */\n      add\n        /* \"#utility.yul\":3612:3665   */\n      tag_144\n      jump\t// in\n    tag_207:\n        /* \"#utility.yul\":3602:3665   */\n      swap3\n      pop\n        /* \"#utility.yul\":3558:3675   */\n      pop\n        /* \"#utility.yul\":3714:3716   */\n      0x20\n        /* \"#utility.yul\":3740:3793   */\n      tag_208\n        /* \"#utility.yul\":3785:3792   */\n      dup6\n        /* \"#utility.yul\":3776:3782   */\n      dup3\n        /* \"#utility.yul\":3765:3774   */\n      dup7\n        /* \"#utility.yul\":3761:3783   */\n      add\n        /* \"#utility.yul\":3740:3793   */\n      tag_153\n      jump\t// in\n    tag_208:\n        /* \"#utility.yul\":3730:3793   */\n      swap2\n      pop\n        /* \"#utility.yul\":3685:3803   */\n      pop\n        /* \"#utility.yul\":3336:3810   */\n      swap3\n      pop\n      swap3\n      swap1\n      pop\n      jump\t// out\n        /* \"#utility.yul\":3816:3906   */\n    tag_154:\n        /* \"#utility.yul\":3850:3857   */\n      0x00\n        /* \"#utility.yul\":3893:3898   */\n      dup2\n        /* \"#utility.yul\":3886:3899   */\n      iszero\n        /* \"#utility.yul\":3879:3900   */\n      iszero\n        /* \"#utility.yul\":3868:3900   */\n      swap1\n      pop\n        /* \"#utility.yul\":3816:3906   */\n      swap2\n      swap1\n      pop\n      jump\t// out\n        /* \"#utility.yul\":3912:4021   */\n    tag_155:\n        /* \"#utility.yul\":3993:4014   */\n      tag_211\n        /* \"#utility.yul\":4008:4013   */\n      dup2\n        /* \"#utility.yul\":3993:4014   */\n      tag_154\n      jump\t// in\n    tag_211:\n        /* \"#utility.yul\":3988:3991   */\n      dup3\n        /* \"#utility.yul\":3981:4015   */\n      mstore\n        /* \"#utility.yul\":3912:4021   */\n      pop\n      pop\n      jump\t// out\n        /* \"#utility.yul\":4027:4237   */\n    tag_38:\n        /* \"#utility.yul\":4114:4118   */\n      0x00\n        /* \"#utility.yul\":4152:4154   */\n      0x20\n        /* \"#utility.yul\":4141:4150   */\n      dup3\n        /* \"#utility.yul\":4137:4155   */\n      add\n        /* \"#utility.yul\":4129:4155   */\n      swap1\n      pop\n        /* \"#utility.yul\":4165:4230   */\n      tag_213\n        /* \"#utility.yul\":4227:4228   */\n      0x00\n        /* \"#utility.yul\":4216:4225   */\n      dup4\n        /* \"#utility.yul\":4212:4229   */\n      add\n        /* \"#utility.yul\":4203:4209   */\n      dup5\n        /* \"#utility.yul\":4165:4230   */\n      tag_155\n      jump\t// in\n    tag_213:\n        /* \"#utility.yul\":4027:4237   */\n      swap3\n      swap2\n      pop\n      pop\n      jump\t// out\n        /* \"#utility.yul\":4243:4465   */\n    tag_42:\n        /* \"#utility.yul\":4336:4340   */\n      0x00\n        /* \"#utility.yul\":4374:4376   */\n      0x20\n        /* \"#utility.yul\":4363:4372   */\n      dup3\n        /* \"#utility.yul\":4359:4377   */\n      add\n        /* \"#utility.yul\":4351:4377   */\n      swap1\n      pop\n        /* \"#utility.yul\":4387:4458   */\n      tag_215\n        /* \"#utility.yul\":4455:4456   */\n      0x00\n        /* \"#utility.yul\":4444:4453   */\n      dup4\n        /* \"#utility.yul\":4440:4457   */\n      add\n        /* \"#utility.yul\":4431:4437   */\n      dup5\n        /* \"#utility.yul\":4387:4458   */\n      tag_146\n      jump\t// in\n    tag_215:\n        /* \"#utility.yul\":4243:4465   */\n      swap3\n      swap2\n      pop\n      pop\n      jump\t// out\n        /* \"#utility.yul\":4471:5090   */\n    tag_48:\n        /* \"#utility.yul\":4548:4554   */\n      0x00\n        /* \"#utility.yul\":4556:4562   */\n      dup1\n        /* \"#utility.yul\":4564:4570   */\n      0x00\n        /* \"#utility.yul\":4613:4615   */\n      0x60\n        /* \"#utility.yul\":4601:4610   */\n      dup5\n        /* \"#utility.yul\":4592:4599   */\n      dup7\n        /* \"#utility.yul\":4588:4611   */\n      sub\n        /* \"#utility.yul\":4584:4616   */\n      slt\n        /* \"#utility.yul\":4581:4700   */\n      iszero\n      tag_217\n      jumpi\n        /* \"#utility.yul\":4619:4698   */\n      tag_218\n      tag_139\n      jump\t// in\n    tag_218:\n        /* \"#utility.yul\":4581:4700   */\n    tag_217:\n        /* \"#utility.yul\":4739:4740   */\n      0x00\n        /* \"#utility.yul\":4764:4817   */\n      tag_219\n        /* \"#utility.yul\":4809:4816   */\n      dup7\n        /* \"#utility.yul\":4800:4806   */\n      dup3\n        /* \"#utility.yul\":4789:4798   */\n      dup8\n        /* \"#utility.yul\":4785:4807   */\n      add\n        /* \"#utility.yul\":4764:4817   */\n      tag_144\n      jump\t// in\n    tag_219:\n        /* \"#utility.yul\":4754:4817   */\n      swap4\n      pop\n        /* \"#utility.yul\":4710:4827   */\n      pop\n        /* \"#utility.yul\":4866:4868   */\n      0x20\n        /* \"#utility.yul\":4892:4945   */\n      tag_220\n        /* \"#utility.yul\":4937:4944   */\n      dup7\n        /* \"#utility.yul\":4928:4934   */\n      dup3\n        /* \"#utility.yul\":4917:4926   */\n      dup8\n        /* \"#utility.yul\":4913:4935   */\n      add\n        /* \"#utility.yul\":4892:4945   */\n      tag_144\n      jump\t// in\n    tag_220:\n        /* \"#utility.yul\":4882:4945   */\n      swap3\n      pop\n        /* \"#utility.yul\":4837:4955   */\n      pop\n        /* \"#utility.yul\":4994:4996   */\n      0x40\n        /* \"#utility.yul\":5020:5073   */\n      tag_221\n        /* \"#utility.yul\":5065:5072   */\n      dup7\n        /* \"#utility.yul\":5056:5062   */\n      dup3\n        /* \"#utility.yul\":5045:5054   */\n      dup8\n        /* \"#utility.yul\":5041:5063   */\n      add\n        /* \"#utility.yul\":5020:5073   */\n      tag_153\n      jump\t// in\n    tag_221:\n        /* \"#utility.yul\":5010:5073   */\n      swap2\n      pop\n        /* \"#utility.yul\":4965:5083   */\n      pop\n        /* \"#utility.yul\":4471:5090   */\n      swap3\n      pop\n      swap3\n      pop\n      swap3\n      jump\t// out\n        /* \"#utility.yul\":5096:5182   */\n    tag_156:\n        /* \"#utility.yul\":5131:5138   */\n      0x00\n        /* \"#utility.yul\":5171:5175   */\n      0xff\n        /* \"#utility.yul\":5164:5169   */\n      dup3\n        /* \"#utility.yul\":5160:5176   */\n      and\n        /* \"#utility.yul\":5149:5176   */\n      swap1\n      pop\n        /* \"#utility.yul\":5096:5182   */\n      swap2\n      swap1\n      pop\n      jump\t// out\n        /* \"#utility.yul\":5188:5300   */\n    tag_157:\n        /* \"#utility.yul\":5271:5293   */\n      tag_224\n        /* \"#utility.yul\":5287:5292   */\n      dup2\n        /* \"#utility.yul\":5271:5293   */\n      tag_156\n      jump\t// in\n    tag_224:\n        /* \"#utility.yul\":5266:5269   */\n      dup3\n        /* \"#utility.yul\":5259:5294   */\n      mstore\n        /* \"#utility.yul\":5188:5300   */\n      pop\n      pop\n      jump\t// out\n        /* \"#utility.yul\":5306:5520   */\n    tag_54:\n        /* \"#utility.yul\":5395:5399   */\n      0x00\n        /* \"#utility.yul\":5433:5435   */\n      0x20\n        /* \"#utility.yul\":5422:5431   */\n      dup3\n        /* \"#utility.yul\":5418:5436   */\n      add\n        /* \"#utility.yul\":5410:5436   */\n      swap1\n      pop\n        /* \"#utility.yul\":5446:5513   */\n      tag_226\n        /* \"#utility.yul\":5510:5511   */\n      0x00\n        /* \"#utility.yul\":5499:5508   */\n      dup4\n        /* \"#utility.yul\":5495:5512   */\n      add\n        /* \"#utility.yul\":5486:5492   */\n      dup5\n        /* \"#utility.yul\":5446:5513   */\n      tag_157\n      jump\t// in\n    tag_226:\n        /* \"#utility.yul\":5306:5520   */\n      swap3\n      swap2\n      pop\n      pop\n      jump\t// out\n        /* \"#utility.yul\":5526:5855   */\n    tag_57:\n        /* \"#utility.yul\":5585:5591   */\n      0x00\n        /* \"#utility.yul\":5634:5636   */\n      0x20\n        /* \"#utility.yul\":5622:5631   */\n      dup3\n        /* \"#utility.yul\":5613:5620   */\n      dup5\n        /* \"#utility.yul\":5609:5632   */\n      sub\n        /* \"#utility.yul\":5605:5637   */\n      slt\n        /* \"#utility.yul\":5602:5721   */\n      iszero\n      tag_228\n      jumpi\n        /* \"#utility.yul\":5640:5719   */\n      tag_229\n      tag_139\n      jump\t// in\n    tag_229:\n        /* \"#utility.yul\":5602:5721   */\n    tag_228:\n        /* \"#utility.yul\":5760:5761   */\n      0x00\n        /* \"#utility.yul\":5785:5838   */\n      tag_230\n        /* \"#utility.yul\":5830:5837   */\n      dup5\n        /* \"#utility.yul\":5821:5827   */\n      dup3\n        /* \"#utility.yul\":5810:5819   */\n      dup6\n        /* \"#utility.yul\":5806:5828   */\n      add\n        /* \"#utility.yul\":5785:5838   */\n      tag_153\n      jump\t// in\n    tag_230:\n        /* \"#utility.yul\":5775:5838   */\n      swap2\n      pop\n        /* \"#utility.yul\":5731:5848   */\n      pop\n        /* \"#utility.yul\":5526:5855   */\n      swap3\n      swap2\n      pop\n      pop\n      jump\t// out\n        /* \"#utility.yul\":5861:6335   */\n    tag_77:\n        /* \"#utility.yul\":5929:5935   */\n      0x00\n        /* \"#utility.yul\":5937:5943   */\n      dup1\n        /* \"#utility.yul\":5986:5988   */\n      0x40\n        /* \"#utility.yul\":5974:5983   */\n      dup4\n        /* \"#utility.yul\":5965:5972   */\n      dup6\n        /* \"#utility.yul\":5961:5984   */\n      sub\n        /* \"#utility.yul\":5957:5989   */\n      slt\n        /* \"#utility.yul\":5954:6073   */\n      iszero\n      tag_232\n      jumpi\n        /* \"#utility.yul\":5992:6071   */\n      tag_233\n      tag_139\n      jump\t// in\n    tag_233:\n        /* \"#utility.yul\":5954:6073   */\n    tag_232:\n        /* \"#utility.yul\":6112:6113   */\n      0x00\n        /* \"#utility.yul\":6137:6190   */\n      tag_234\n        /* \"#utility.yul\":6182:6189   */\n      dup6\n        /* \"#utility.yul\":6173:6179   */\n      dup3\n        /* \"#utility.yul\":6162:6171   */\n      dup7\n        /* \"#utility.yul\":6158:6180   */\n      add\n        /* \"#utility.yul\":6137:6190   */\n      tag_144\n      jump\t// in\n    tag_234:\n        /* \"#utility.yul\":6127:6190   */\n      swap3\n      pop\n        /* \"#utility.yul\":6083:6200   */\n      pop\n        /* \"#utility.yul\":6239:6241   */\n      0x20\n        /* \"#utility.yul\":6265:6318   */\n      tag_235\n        /* \"#utility.yul\":6310:6317   */\n      dup6\n        /* \"#utility.yul\":6301:6307   */\n      dup3\n        /* \"#utility.yul\":6290:6299   */\n      dup7\n        /* \"#utility.yul\":6286:6308   */\n      add\n        /* \"#utility.yul\":6265:6318   */\n      tag_144\n      jump\t// in\n    tag_235:\n        /* \"#utility.yul\":6255:6318   */\n      swap2\n      pop\n        /* \"#utility.yul\":6210:6328   */\n      pop\n        /* \"#utility.yul\":5861:6335   */\n      swap3\n      pop\n      swap3\n      swap1\n      pop\n      jump\t// out\n        /* \"#utility.yul\":6341:6484   */\n    tag_158:\n        /* \"#utility.yul\":6398:6403   */\n      0x00\n        /* \"#utility.yul\":6429:6435   */\n      dup2\n        /* \"#utility.yul\":6423:6436   */\n      mload\n        /* \"#utility.yul\":6414:6436   */\n      swap1\n      pop\n        /* \"#utility.yul\":6445:6478   */\n      tag_237\n        /* \"#utility.yul\":6472:6477   */\n      dup2\n        /* \"#utility.yul\":6445:6478   */\n      tag_152\n      jump\t// in\n    tag_237:\n        /* \"#utility.yul\":6341:6484   */\n      swap3\n      swap2\n      pop\n      pop\n      jump\t// out\n        /* \"#utility.yul\":6490:6841   */\n    tag_93:\n        /* \"#utility.yul\":6560:6566   */\n      0x00\n        /* \"#utility.yul\":6609:6611   */\n      0x20\n        /* \"#utility.yul\":6597:6606   */\n      dup3\n        /* \"#utility.yul\":6588:6595   */\n      dup5\n        /* \"#utility.yul\":6584:6607   */\n      sub\n        /* \"#utility.yul\":6580:6612   */\n      slt\n        /* \"#utility.yul\":6577:6696   */\n      iszero\n      tag_239\n      jumpi\n        /* \"#utility.yul\":6615:6694   */\n      tag_240\n      tag_139\n      jump\t// in\n    tag_240:\n        /* \"#utility.yul\":6577:6696   */\n    tag_239:\n        /* \"#utility.yul\":6735:6736   */\n      0x00\n        /* \"#utility.yul\":6760:6824   */\n      tag_241\n        /* \"#utility.yul\":6816:6823   */\n      dup5\n        /* \"#utility.yul\":6807:6813   */\n      dup3\n        /* \"#utility.yul\":6796:6805   */\n      dup6\n        /* \"#utility.yul\":6792:6814   */\n      add\n        /* \"#utility.yul\":6760:6824   */\n      tag_158\n      jump\t// in\n    tag_241:\n        /* \"#utility.yul\":6750:6824   */\n      swap2\n      pop\n        /* \"#utility.yul\":6706:6834   */\n      pop\n        /* \"#utility.yul\":6490:6841   */\n      swap3\n      swap2\n      pop\n      pop\n      jump\t// out\n        /* \"#utility.yul\":6847:7027   */\n    tag_159:\n        /* \"#utility.yul\":6895:6972   */\n      0x4e487b7100000000000000000000000000000000000000000000000000000000\n        /* \"#utility.yul\":6892:6893   */\n      0x00\n        /* \"#utility.yul\":6885:6973   */\n      mstore\n        /* \"#utility.yul\":6992:6996   */\n      0x11\n        /* \"#utility.yul\":6989:6990   */\n      0x04\n        /* \"#utility.yul\":6982:6997   */\n      mstore\n        /* \"#utility.yul\":7016:7020   */\n      0x24\n        /* \"#utility.yul\":7013:7014   */\n      0x00\n        /* \"#utility.yul\":7006:7021   */\n      revert\n        /* \"#utility.yul\":7033:7227   */\n    tag_99:\n        /* \"#utility.yul\":7073:7077   */\n      0x00\n        /* \"#utility.yul\":7093:7113   */\n      tag_244\n        /* \"#utility.yul\":7111:7112   */\n      dup3\n        /* \"#utility.yul\":7093:7113   */\n      tag_145\n      jump\t// in\n    tag_244:\n        /* \"#utility.yul\":7088:7113   */\n      swap2\n      pop\n        /* \"#utility.yul\":7127:7147   */\n      tag_245\n        /* \"#utility.yul\":7145:7146   */\n      dup4\n        /* \"#utility.yul\":7127:7147   */\n      tag_145\n      jump\t// in\n    tag_245:\n        /* \"#utility.yul\":7122:7147   */\n      swap3\n      pop\n        /* \"#utility.yul\":7171:7172   */\n      dup3\n        /* \"#utility.yul\":7168:7169   */\n      dup3\n        /* \"#utility.yul\":7164:7173   */\n      sub\n        /* \"#utility.yul\":7156:7173   */\n      swap1\n      pop\n        /* \"#utility.yul\":7195:7196   */\n      dup2\n        /* \"#utility.yul\":7189:7193   */\n      dup2\n        /* \"#utility.yul\":7186:7197   */\n      gt\n        /* \"#utility.yul\":7183:7220   */\n      iszero\n      tag_246\n      jumpi\n        /* \"#utility.yul\":7200:7218   */\n      tag_247\n      tag_159\n      jump\t// in\n    tag_247:\n        /* \"#utility.yul\":7183:7220   */\n    tag_246:\n        /* \"#utility.yul\":7033:7227   */\n      swap3\n      swap2\n      pop\n      pop\n      jump\t// out\n        /* \"#utility.yul\":7233:7424   */\n    tag_102:\n        /* \"#utility.yul\":7273:7276   */\n      0x00\n        /* \"#utility.yul\":7292:7312   */\n      tag_249\n        /* \"#utility.yul\":7310:7311   */\n      dup3\n        /* \"#utility.yul\":7292:7312   */\n      tag_145\n      jump\t// in\n    tag_249:\n        /* \"#utility.yul\":7287:7312   */\n      swap2\n      pop\n        /* \"#utility.yul\":7326:7346   */\n      tag_250\n        /* \"#utility.yul\":7344:7345   */\n      dup4\n        /* \"#utility.yul\":7326:7346   */\n      tag_145\n      jump\t// in\n    tag_250:\n        /* \"#utility.yul\":7321:7346   */\n      swap3\n      pop\n        /* \"#utility.yul\":7369:7370   */\n      dup3\n        /* \"#utility.yul\":7366:7367   */\n      dup3\n        /* \"#utility.yul\":7362:7371   */\n      add\n        /* \"#utility.yul\":7355:7371   */\n      swap1\n      pop\n        /* \"#utility.yul\":7390:7393   */\n      dup1\n        /* \"#utility.yul\":7387:7388   */\n      dup3\n        /* \"#utility.yul\":7384:7394   */\n      gt\n        /* \"#utility.yul\":7381:7417   */\n      iszero\n      tag_251\n      jumpi\n        /* \"#utility.yul\":7397:7415   */\n      tag_252\n      tag_159\n      jump\t// in\n    tag_252:\n        /* \"#utility.yul\":7381:7417   */\n    tag_251:\n        /* \"#utility.yul\":7233:7424   */\n      swap3\n      swap2\n      pop\n      pop\n      jump\t// out\n        /* \"#utility.yul\":7430:7548   */\n    tag_160:\n        /* \"#utility.yul\":7517:7541   */\n      tag_254\n        /* \"#utility.yul\":7535:7540   */\n      dup2\n        /* \"#utility.yul\":7517:7541   */\n      tag_142\n      jump\t// in\n    tag_254:\n        /* \"#utility.yul\":7512:7515   */\n      dup3\n        /* \"#utility.yul\":7505:7542   */\n      mstore\n        /* \"#utility.yul\":7430:7548   */\n      pop\n      pop\n      jump\t// out\n        /* \"#utility.yul\":7554:7886   */\n    tag_119:\n        /* \"#utility.yul\":7675:7679   */\n      0x00\n        /* \"#utility.yul\":7713:7715   */\n      0x40\n        /* \"#utility.yul\":7702:7711   */\n      dup3\n        /* \"#utility.yul\":7698:7716   */\n      add\n        /* \"#utility.yul\":7690:7716   */\n      swap1\n      pop\n        /* \"#utility.yul\":7726:7797   */\n      tag_256\n        /* \"#utility.yul\":7794:7795   */\n      0x00\n        /* \"#utility.yul\":7783:7792   */\n      dup4\n        /* \"#utility.yul\":7779:7796   */\n      add\n        /* \"#utility.yul\":7770:7776   */\n      dup6\n        /* \"#utility.yul\":7726:7797   */\n      tag_160\n      jump\t// in\n    tag_256:\n        /* \"#utility.yul\":7807:7879   */\n      tag_257\n        /* \"#utility.yul\":7875:7877   */\n      0x20\n        /* \"#utility.yul\":7864:7873   */\n      dup4\n        /* \"#utility.yul\":7860:7878   */\n      add\n        /* \"#utility.yul\":7851:7857   */\n      dup5\n        /* \"#utility.yul\":7807:7879   */\n      tag_146\n      jump\t// in\n    tag_257:\n        /* \"#utility.yul\":7554:7886   */\n      swap4\n      swap3\n      pop\n      pop\n      pop\n      jump\t// out\n        /* \"#utility.yul\":7892:8008   */\n    tag_161:\n        /* \"#utility.yul\":7962:7983   */\n      tag_259\n        /* \"#utility.yul\":7977:7982   */\n      dup2\n        /* \"#utility.yul\":7962:7983   */\n      tag_154\n      jump\t// in\n    tag_259:\n        /* \"#utility.yul\":7955:7960   */\n      dup2\n        /* \"#utility.yul\":7952:7984   */\n      eq\n        /* \"#utility.yul\":7942:8002   */\n      tag_260\n      jumpi\n        /* \"#utility.yul\":7998:7999   */\n      0x00\n        /* \"#utility.yul\":7995:7996   */\n      dup1\n        /* \"#utility.yul\":7988:8000   */\n      revert\n        /* \"#utility.yul\":7942:8002   */\n    tag_260:\n        /* \"#utility.yul\":7892:8008   */\n      pop\n      jump\t// out\n        /* \"#utility.yul\":8014:8151   */\n    tag_162:\n        /* \"#utility.yul\":8068:8073   */\n      0x00\n        /* \"#utility.yul\":8099:8105   */\n      dup2\n        /* \"#utility.yul\":8093:8106   */\n      mload\n        /* \"#utility.yul\":8084:8106   */\n      swap1\n      pop\n        /* \"#utility.yul\":8115:8145   */\n      tag_262\n        /* \"#utility.yul\":8139:8144   */\n      dup2\n        /* \"#utility.yul\":8115:8145   */\n      tag_161\n      jump\t// in\n    tag_262:\n        /* \"#utility.yul\":8014:8151   */\n      swap3\n      swap2\n      pop\n      pop\n      jump\t// out\n        /* \"#utility.yul\":8157:8502   */\n    tag_123:\n        /* \"#utility.yul\":8224:8230   */\n      0x00\n        /* \"#utility.yul\":8273:8275   */\n      0x20\n        /* \"#utility.yul\":8261:8270   */\n      dup3\n        /* \"#utility.yul\":8252:8259   */\n      dup5\n        /* \"#utility.yul\":8248:8271   */\n      sub\n        /* \"#utility.yul\":8244:8276   */\n      slt\n        /* \"#utility.yul\":8241:8360   */\n      iszero\n      tag_264\n      jumpi\n        /* \"#utility.yul\":8279:8358   */\n      tag_265\n      tag_139\n      jump\t// in\n    tag_265:\n        /* \"#utility.yul\":8241:8360   */\n    tag_264:\n        /* \"#utility.yul\":8399:8400   */\n      0x00\n        /* \"#utility.yul\":8424:8485   */\n      tag_266\n        /* \"#utility.yul\":8477:8484   */\n      dup5\n        /* \"#utility.yul\":8468:8474   */\n      dup3\n        /* \"#utility.yul\":8457:8466   */\n      dup6\n        /* \"#utility.yul\":8453:8475   */\n      add\n        /* \"#utility.yul\":8424:8485   */\n      tag_162\n      jump\t// in\n    tag_266:\n        /* \"#utility.yul\":8414:8485   */\n      swap2\n      pop\n        /* \"#utility.yul\":8370:8495   */\n      pop\n        /* \"#utility.yul\":8157:8502   */\n      swap3\n      swap2\n      pop\n      pop\n      jump\t// out\n\n    auxdata: 0xa264697066735822122051e7d81c7f5d380981916efc131cc7de6e67bc9368cae64597545c61c48f798f64736f6c63430008150033\n}\n",
				"bytecode": {
					"linkReferences": {},
					"object": "6080604052683635c9adc5dea000006002553480156200001d575f80fd5b506200003030436200003660201b60201c565b62000118565b805f808473ffffffffffffffffffffffffffffffffffffffff1673ffffffffffffffffffffffffffffffffffffffff1681526020019081526020015f205f828254620000839190620000de565b925050819055508060025f8282546200009d9190620000de565b925050819055505050565b5f819050919050565b7f4e487b71000000000000000000000000000000000000000000000000000000005f52601160045260245ffd5b5f620000ea82620000a8565b9150620000f783620000a8565b9250828201905080821115620001125762000111620000b1565b5b92915050565b6113b480620001265f395ff3fe608060405234801561000f575f80fd5b5060043610610109575f3560e01c806370a08231116100a0578063d56b28891161006f578063d56b2889146102ce578063dd62ed3e146102d8578063e320bee514610308578063efedc66914610312578063fa391c641461033057610109565b806370a082311461023257806395d89b4114610262578063a9059cbb14610280578063b80777ea146102b057610109565b806318160ddd116100dc57806318160ddd146101aa57806323b872dd146101c8578063313ce567146101f85780635858d1611461021657610109565b80630168c11e1461010d57806306fdde031461013e578063095ea7b31461015c5780630b74974d1461018c575b5f80fd5b61012760048036038101906101229190610f6c565b61033a565b604051610135929190610faf565b60405180910390f35b61014661035a565b6040516101539190611060565b60405180910390f35b610176600480360381019061017191906110aa565b610393565b6040516101839190611102565b60405180910390f35b610194610480565b6040516101a1919061111b565b60405180910390f35b6101b26104f4565b6040516101bf919061111b565b60405180910390f35b6101e260048036038101906101dd9190611134565b6104fd565b6040516101ef9190611102565b60405180910390f35b61020061084a565b60405161020d919061119f565b60405180910390f35b610230600480360381019061022b91906111b8565b61084f565b005b61024c60048036038101906102479190610f6c565b610911565b604051610259919061111b565b60405180910390f35b61026a610956565b6040516102779190611060565b60405180910390f35b61029a600480360381019061029591906110aa565b61098f565b6040516102a79190611102565b60405180910390f35b6102b8610b57565b6040516102c5919061111b565b60405180910390f35b6102d6610b5e565b005b6102f260048036038101906102ed91906111e3565b610c8c565b6040516102ff919061111b565b60405180910390f35b610310610d0e565b005b61031a610e41565b604051610327919061111b565b60405180910390f35b610338610e47565b005b6003602052805f5260405f205f91509050805f0154908060010154905082565b6040518060400160405280600581526020017f455243323000000000000000000000000000000000000000000000000000000081525081565b5f8160015f3373ffffffffffffffffffffffffffffffffffffffff1673ffffffffffffffffffffffffffffffffffffffff1681526020019081526020015f205f8573ffffffffffffffffffffffffffffffffffffffff1673ffffffffffffffffffffffffffffffffffffffff1681526020019081526020015f20819055508273ffffffffffffffffffffffffffffffffffffffff163373ffffffffffffffffffffffffffffffffffffffff167f8c5be1e5ebec7d5bd14f71427d1e84f3dd0314c0f7b2291e5b200ac8c7c3b9258460405161046e919061111b565b60405180910390a36001905092915050565b5f3073ffffffffffffffffffffffffffffffffffffffff1663b80777ea6040518163ffffffff1660e01b81526004016020604051808303815f875af11580156104cb573d5f803e3d5ffd5b505050506040513d601f19601f820116820180604052508101906104ef9190611235565b905090565b5f600254905090565b5f805f8573ffffffffffffffffffffffffffffffffffffffff1673ffffffffffffffffffffffffffffffffffffffff1681526020019081526020015f2054821115610546575f80fd5b60015f8573ffffffffffffffffffffffffffffffffffffffff1673ffffffffffffffffffffffffffffffffffffffff1681526020019081526020015f205f3373ffffffffffffffffffffffffffffffffffffffff1673ffffffffffffffffffffffffffffffffffffffff1681526020019081526020015f20548211156105ca575f80fd5b815f808673ffffffffffffffffffffffffffffffffffffffff1673ffffffffffffffffffffffffffffffffffffffff1681526020019081526020015f2054610612919061128d565b5f808673ffffffffffffffffffffffffffffffffffffffff1673ffffffffffffffffffffffffffffffffffffffff1681526020019081526020015f20819055508160015f8673ffffffffffffffffffffffffffffffffffffffff1673ffffffffffffffffffffffffffffffffffffffff1681526020019081526020015f205f3373ffffffffffffffffffffffffffffffffffffffff1673ffffffffffffffffffffffffffffffffffffffff1681526020019081526020015f20546106d6919061128d565b60015f8673ffffffffffffffffffffffffffffffffffffffff1673ffffffffffffffffffffffffffffffffffffffff1681526020019081526020015f205f3373ffffffffffffffffffffffffffffffffffffffff1673ffffffffffffffffffffffffffffffffffffffff1681526020019081526020015f2081905550815f808573ffffffffffffffffffffffffffffffffffffffff1673ffffffffffffffffffffffffffffffffffffffff1681526020019081526020015f205461079a91906112c0565b5f808573ffffffffffffffffffffffffffffffffffffffff1673ffffffffffffffffffffffffffffffffffffffff1681526020019081526020015f20819055508273ffffffffffffffffffffffffffffffffffffffff168473ffffffffffffffffffffffffffffffffffffffff167fddf252ad1be2c89b69c2b068fc378daa952ba7f163c4a11628f55a4df523b3ef84604051610837919061111b565b60405180910390a3600190509392505050565b601281565b5f60035f3373ffffffffffffffffffffffffffffffffffffffff1673ffffffffffffffffffffffffffffffffffffffff1681526020019081526020015f2090503073ffffffffffffffffffffffffffffffffffffffff1663b80777ea6040518163ffffffff1660e01b81526004016020604051808303815f875af11580156108d9573d5f803e3d5ffd5b505050506040513d601f19601f820116820180604052508101906108fd9190611235565b815f01819055508181600101819055505050565b5f805f8373ffffffffffffffffffffffffffffffffffffffff1673ffffffffffffffffffffffffffffffffffffffff1681526020019081526020015f20549050919050565b6040518060400160405280600381526020017f455243000000000000000000000000000000000000000000000000000000000081525081565b5f805f3373ffffffffffffffffffffffffffffffffffffffff1673ffffffffffffffffffffffffffffffffffffffff1681526020019081526020015f20548211156109d8575f80fd5b815f803373ffffffffffffffffffffffffffffffffffffffff1673ffffffffffffffffffffffffffffffffffffffff1681526020019081526020015f2054610a20919061128d565b5f803373ffffffffffffffffffffffffffffffffffffffff1673ffffffffffffffffffffffffffffffffffffffff1681526020019081526020015f2081905550815f808573ffffffffffffffffffffffffffffffffffffffff1673ffffffffffffffffffffffffffffffffffffffff1681526020019081526020015f2054610aa891906112c0565b5f808573ffffffffffffffffffffffffffffffffffffffff1673ffffffffffffffffffffffffffffffffffffffff1681526020019081526020015f20819055508273ffffffffffffffffffffffffffffffffffffffff163373ffffffffffffffffffffffffffffffffffffffff167fddf252ad1be2c89b69c2b068fc378daa952ba7f163c4a11628f55a4df523b3ef84604051610b45919061111b565b60405180910390a36001905092915050565b5f43905090565b5f60035f3373ffffffffffffffffffffffffffffffffffffffff1673ffffffffffffffffffffffffffffffffffffffff1681526020019081526020015f2090508060010154815f0154610bb191906112c0565b431015610bbc575f80fd5b3073ffffffffffffffffffffffffffffffffffffffff1663a9059cbb3383600101546040518363ffffffff1660e01b8152600401610bfb929190611302565b6020604051808303815f875af1158015610c17573d5f803e3d5ffd5b505050506040513d601f19601f82011682018060405250810190610c3b9190611353565b5060035f3373ffffffffffffffffffffffffffffffffffffffff1673ffffffffffffffffffffffffffffffffffffffff1681526020019081526020015f205f8082015f9055600182015f9055505050565b5f60015f8473ffffffffffffffffffffffffffffffffffffffff1673ffffffffffffffffffffffffffffffffffffffff1681526020019081526020015f205f8373ffffffffffffffffffffffffffffffffffffffff1673ffffffffffffffffffffffffffffffffffffffff1681526020019081526020015f2054905092915050565b5f60035f3373ffffffffffffffffffffffffffffffffffffffff1673ffffffffffffffffffffffffffffffffffffffff1681526020019081526020015f209050805f01543373ffffffffffffffffffffffffffffffffffffffff1663b80777ea6040518163ffffffff1660e01b81526004016020604051808303815f875af1158015610d9c573d5f803e3d5ffd5b505050506040513d601f19601f82011682018060405250810190610dc09190611235565b11610dc9575f80fd5b3373ffffffffffffffffffffffffffffffffffffffff1663b80777ea6040518163ffffffff1660e01b81526004016020604051808303815f875af1158015610e13573d5f803e3d5ffd5b505050506040513d601f19601f82011682018060405250810190610e379190611235565b815f018190555050565b60045481565b5f6004819055505f60035f3373ffffffffffffffffffffffffffffffffffffffff1673ffffffffffffffffffffffffffffffffffffffff1681526020019081526020015f206001015414610eaf57601960045f828254610ea791906112c0565b925050819055505b5f805f3073ffffffffffffffffffffffffffffffffffffffff1673ffffffffffffffffffffffffffffffffffffffff1681526020019081526020015f205403610f0c57604b60045f828254610f0491906112c0565b925050819055505b565b5f80fd5b5f73ffffffffffffffffffffffffffffffffffffffff82169050919050565b5f610f3b82610f12565b9050919050565b610f4b81610f31565b8114610f55575f80fd5b50565b5f81359050610f6681610f42565b92915050565b5f60208284031215610f8157610f80610f0e565b5b5f610f8e84828501610f58565b91505092915050565b5f819050919050565b610fa981610f97565b82525050565b5f604082019050610fc25f830185610fa0565b610fcf6020830184610fa0565b9392505050565b5f81519050919050565b5f82825260208201905092915050565b5f5b8381101561100d578082015181840152602081019050610ff2565b5f8484015250505050565b5f601f19601f8301169050919050565b5f61103282610fd6565b61103c8185610fe0565b935061104c818560208601610ff0565b61105581611018565b840191505092915050565b5f6020820190508181035f8301526110788184611028565b905092915050565b61108981610f97565b8114611093575f80fd5b50565b5f813590506110a481611080565b92915050565b5f80604083850312156110c0576110bf610f0e565b5b5f6110cd85828601610f58565b92505060206110de85828601611096565b9150509250929050565b5f8115159050919050565b6110fc816110e8565b82525050565b5f6020820190506111155f8301846110f3565b92915050565b5f60208201905061112e5f830184610fa0565b92915050565b5f805f6060848603121561114b5761114a610f0e565b5b5f61115886828701610f58565b935050602061116986828701610f58565b925050604061117a86828701611096565b9150509250925092565b5f60ff82169050919050565b61119981611184565b82525050565b5f6020820190506111b25f830184611190565b92915050565b5f602082840312156111cd576111cc610f0e565b5b5f6111da84828501611096565b91505092915050565b5f80604083850312156111f9576111f8610f0e565b5b5f61120685828601610f58565b925050602061121785828601610f58565b9150509250929050565b5f8151905061122f81611080565b92915050565b5f6020828403121561124a57611249610f0e565b5b5f61125784828501611221565b91505092915050565b7f4e487b71000000000000000000000000000000000000000000000000000000005f52601160045260245ffd5b5f61129782610f97565b91506112a283610f97565b92508282039050818111156112ba576112b9611260565b5b92915050565b5f6112ca82610f97565b91506112d583610f97565b92508282019050808211156112ed576112ec611260565b5b92915050565b6112fc81610f31565b82525050565b5f6040820190506113155f8301856112f3565b6113226020830184610fa0565b9392505050565b611332816110e8565b811461133c575f80fd5b50565b5f8151905061134d81611329565b92915050565b5f6020828403121561136857611367610f0e565b5b5f6113758482850161133f565b9150509291505056fea264697066735822122051e7d81c7f5d380981916efc131cc7de6e67bc9368cae64597545c61c48f798f64736f6c63430008150033",
					"opcodes": "PUSH1 0x80 PUSH1 0x40 MSTORE PUSH9 0x3635C9ADC5DEA00000 PUSH1 0x2 SSTORE CALLVALUE DUP1 ISZERO PUSH3 0x1D JUMPI PUSH0 DUP1 REVERT JUMPDEST POP PUSH3 0x30 ADDRESS NUMBER PUSH3 0x36 PUSH1 0x20 SHL PUSH1 0x20 SHR JUMP JUMPDEST PUSH3 0x118 JUMP JUMPDEST DUP1 PUSH0 DUP1 DUP5 PUSH20 0xFFFFFFFFFFFFFFFFFFFFFFFFFFFFFFFFFFFFFFFF AND PUSH20 0xFFFFFFFFFFFFFFFFFFFFFFFFFFFFFFFFFFFFFFFF AND DUP2 MSTORE PUSH1 0x20 ADD SWAP1 DUP2 MSTORE PUSH1 0x20 ADD PUSH0 KECCAK256 PUSH0 DUP3 DUP3 SLOAD PUSH3 0x83 SWAP2 SWAP1 PUSH3 0xDE JUMP JUMPDEST SWAP3 POP POP DUP2 SWAP1 SSTORE POP DUP1 PUSH1 0x2 PUSH0 DUP3 DUP3 SLOAD PUSH3 0x9D SWAP2 SWAP1 PUSH3 0xDE JUMP JUMPDEST SWAP3 POP POP DUP2 SWAP1 SSTORE POP POP POP JUMP JUMPDEST PUSH0 DUP2 SWAP1 POP SWAP2 SWAP1 POP JUMP JUMPDEST PUSH32 0x4E487B7100000000000000000000000000000000000000000000000000000000 PUSH0 MSTORE PUSH1 0x11 PUSH1 0x4 MSTORE PUSH1 0x24 PUSH0 REVERT JUMPDEST PUSH0 PUSH3 0xEA DUP3 PUSH3 0xA8 JUMP JUMPDEST SWAP2 POP PUSH3 0xF7 DUP4 PUSH3 0xA8 JUMP JUMPDEST SWAP3 POP DUP3 DUP3 ADD SWAP1 POP DUP1 DUP3 GT ISZERO PUSH3 0x112 JUMPI PUSH3 0x111 PUSH3 0xB1 JUMP JUMPDEST JUMPDEST SWAP3 SWAP2 POP POP JUMP JUMPDEST PUSH2 0x13B4 DUP1 PUSH3 0x126 PUSH0 CODECOPY PUSH0 RETURN INVALID PUSH1 0x80 PUSH1 0x40 MSTORE CALLVALUE DUP1 ISZERO PUSH2 0xF JUMPI PUSH0 DUP1 REVERT JUMPDEST POP PUSH1 0x4 CALLDATASIZE LT PUSH2 0x109 JUMPI PUSH0 CALLDATALOAD PUSH1 0xE0 SHR DUP1 PUSH4 0x70A08231 GT PUSH2 0xA0 JUMPI DUP1 PUSH4 0xD56B2889 GT PUSH2 0x6F JUMPI DUP1 PUSH4 0xD56B2889 EQ PUSH2 0x2CE JUMPI DUP1 PUSH4 0xDD62ED3E EQ PUSH2 0x2D8 JUMPI DUP1 PUSH4 0xE320BEE5 EQ PUSH2 0x308 JUMPI DUP1 PUSH4 0xEFEDC669 EQ PUSH2 0x312 JUMPI DUP1 PUSH4 0xFA391C64 EQ PUSH2 0x330 JUMPI PUSH2 0x109 JUMP JUMPDEST DUP1 PUSH4 0x70A08231 EQ PUSH2 0x232 JUMPI DUP1 PUSH4 0x95D89B41 EQ PUSH2 0x262 JUMPI DUP1 PUSH4 0xA9059CBB EQ PUSH2 0x280 JUMPI DUP1 PUSH4 0xB80777EA EQ PUSH2 0x2B0 JUMPI PUSH2 0x109 JUMP JUMPDEST DUP1 PUSH4 0x18160DDD GT PUSH2 0xDC JUMPI DUP1 PUSH4 0x18160DDD EQ PUSH2 0x1AA JUMPI DUP1 PUSH4 0x23B872DD EQ PUSH2 0x1C8 JUMPI DUP1 PUSH4 0x313CE567 EQ PUSH2 0x1F8 JUMPI DUP1 PUSH4 0x5858D161 EQ PUSH2 0x216 JUMPI PUSH2 0x109 JUMP JUMPDEST DUP1 PUSH4 0x168C11E EQ PUSH2 0x10D JUMPI DUP1 PUSH4 0x6FDDE03 EQ PUSH2 0x13E JUMPI DUP1 PUSH4 0x95EA7B3 EQ PUSH2 0x15C JUMPI DUP1 PUSH4 0xB74974D EQ PUSH2 0x18C JUMPI JUMPDEST PUSH0 DUP1 REVERT JUMPDEST PUSH2 0x127 PUSH1 0x4 DUP1 CALLDATASIZE SUB DUP2 ADD SWAP1 PUSH2 0x122 SWAP2 SWAP1 PUSH2 0xF6C JUMP JUMPDEST PUSH2 0x33A JUMP JUMPDEST PUSH1 0x40 MLOAD PUSH2 0x135 SWAP3 SWAP2 SWAP1 PUSH2 0xFAF JUMP JUMPDEST PUSH1 0x40 MLOAD DUP1 SWAP2 SUB SWAP1 RETURN JUMPDEST PUSH2 0x146 PUSH2 0x35A JUMP JUMPDEST PUSH1 0x40 MLOAD PUSH2 0x153 SWAP2 SWAP1 PUSH2 0x1060 JUMP JUMPDEST PUSH1 0x40 MLOAD DUP1 SWAP2 SUB SWAP1 RETURN JUMPDEST PUSH2 0x176 PUSH1 0x4 DUP1 CALLDATASIZE SUB DUP2 ADD SWAP1 PUSH2 0x171 SWAP2 SWAP1 PUSH2 0x10AA JUMP JUMPDEST PUSH2 0x393 JUMP JUMPDEST PUSH1 0x40 MLOAD PUSH2 0x183 SWAP2 SWAP1 PUSH2 0x1102 JUMP JUMPDEST PUSH1 0x40 MLOAD DUP1 SWAP2 SUB SWAP1 RETURN JUMPDEST PUSH2 0x194 PUSH2 0x480 JUMP JUMPDEST PUSH1 0x40 MLOAD PUSH2 0x1A1 SWAP2 SWAP1 PUSH2 0x111B JUMP JUMPDEST PUSH1 0x40 MLOAD DUP1 SWAP2 SUB SWAP1 RETURN JUMPDEST PUSH2 0x1B2 PUSH2 0x4F4 JUMP JUMPDEST PUSH1 0x40 MLOAD PUSH2 0x1BF SWAP2 SWAP1 PUSH2 0x111B JUMP JUMPDEST PUSH1 0x40 MLOAD DUP1 SWAP2 SUB SWAP1 RETURN JUMPDEST PUSH2 0x1E2 PUSH1 0x4 DUP1 CALLDATASIZE SUB DUP2 ADD SWAP1 PUSH2 0x1DD SWAP2 SWAP1 PUSH2 0x1134 JUMP JUMPDEST PUSH2 0x4FD JUMP JUMPDEST PUSH1 0x40 MLOAD PUSH2 0x1EF SWAP2 SWAP1 PUSH2 0x1102 JUMP JUMPDEST PUSH1 0x40 MLOAD DUP1 SWAP2 SUB SWAP1 RETURN JUMPDEST PUSH2 0x200 PUSH2 0x84A JUMP JUMPDEST PUSH1 0x40 MLOAD PUSH2 0x20D SWAP2 SWAP1 PUSH2 0x119F JUMP JUMPDEST PUSH1 0x40 MLOAD DUP1 SWAP2 SUB SWAP1 RETURN JUMPDEST PUSH2 0x230 PUSH1 0x4 DUP1 CALLDATASIZE SUB DUP2 ADD SWAP1 PUSH2 0x22B SWAP2 SWAP1 PUSH2 0x11B8 JUMP JUMPDEST PUSH2 0x84F JUMP JUMPDEST STOP JUMPDEST PUSH2 0x24C PUSH1 0x4 DUP1 CALLDATASIZE SUB DUP2 ADD SWAP1 PUSH2 0x247 SWAP2 SWAP1 PUSH2 0xF6C JUMP JUMPDEST PUSH2 0x911 JUMP JUMPDEST PUSH1 0x40 MLOAD PUSH2 0x259 SWAP2 SWAP1 PUSH2 0x111B JUMP JUMPDEST PUSH1 0x40 MLOAD DUP1 SWAP2 SUB SWAP1 RETURN JUMPDEST PUSH2 0x26A PUSH2 0x956 JUMP JUMPDEST PUSH1 0x40 MLOAD PUSH2 0x277 SWAP2 SWAP1 PUSH2 0x1060 JUMP JUMPDEST PUSH1 0x40 MLOAD DUP1 SWAP2 SUB SWAP1 RETURN JUMPDEST PUSH2 0x29A PUSH1 0x4 DUP1 CALLDATASIZE SUB DUP2 ADD SWAP1 PUSH2 0x295 SWAP2 SWAP1 PUSH2 0x10AA JUMP JUMPDEST PUSH2 0x98F JUMP JUMPDEST PUSH1 0x40 MLOAD PUSH2 0x2A7 SWAP2 SWAP1 PUSH2 0x1102 JUMP JUMPDEST PUSH1 0x40 MLOAD DUP1 SWAP2 SUB SWAP1 RETURN JUMPDEST PUSH2 0x2B8 PUSH2 0xB57 JUMP JUMPDEST PUSH1 0x40 MLOAD PUSH2 0x2C5 SWAP2 SWAP1 PUSH2 0x111B JUMP JUMPDEST PUSH1 0x40 MLOAD DUP1 SWAP2 SUB SWAP1 RETURN JUMPDEST PUSH2 0x2D6 PUSH2 0xB5E JUMP JUMPDEST STOP JUMPDEST PUSH2 0x2F2 PUSH1 0x4 DUP1 CALLDATASIZE SUB DUP2 ADD SWAP1 PUSH2 0x2ED SWAP2 SWAP1 PUSH2 0x11E3 JUMP JUMPDEST PUSH2 0xC8C JUMP JUMPDEST PUSH1 0x40 MLOAD PUSH2 0x2FF SWAP2 SWAP1 PUSH2 0x111B JUMP JUMPDEST PUSH1 0x40 MLOAD DUP1 SWAP2 SUB SWAP1 RETURN JUMPDEST PUSH2 0x310 PUSH2 0xD0E JUMP JUMPDEST STOP JUMPDEST PUSH2 0x31A PUSH2 0xE41 JUMP JUMPDEST PUSH1 0x40 MLOAD PUSH2 0x327 SWAP2 SWAP1 PUSH2 0x111B JUMP JUMPDEST PUSH1 0x40 MLOAD DUP1 SWAP2 SUB SWAP1 RETURN JUMPDEST PUSH2 0x338 PUSH2 0xE47 JUMP JUMPDEST STOP JUMPDEST PUSH1 0x3 PUSH1 0x20 MSTORE DUP1 PUSH0 MSTORE PUSH1 0x40 PUSH0 KECCAK256 PUSH0 SWAP2 POP SWAP1 POP DUP1 PUSH0 ADD SLOAD SWAP1 DUP1 PUSH1 0x1 ADD SLOAD SWAP1 POP DUP3 JUMP JUMPDEST PUSH1 0x40 MLOAD DUP1 PUSH1 0x40 ADD PUSH1 0x40 MSTORE DUP1 PUSH1 0x5 DUP2 MSTORE PUSH1 0x20 ADD PUSH32 0x4552433230000000000000000000000000000000000000000000000000000000 DUP2 MSTORE POP DUP2 JUMP JUMPDEST PUSH0 DUP2 PUSH1 0x1 PUSH0 CALLER PUSH20 0xFFFFFFFFFFFFFFFFFFFFFFFFFFFFFFFFFFFFFFFF AND PUSH20 0xFFFFFFFFFFFFFFFFFFFFFFFFFFFFFFFFFFFFFFFF AND DUP2 MSTORE PUSH1 0x20 ADD SWAP1 DUP2 MSTORE PUSH1 0x20 ADD PUSH0 KECCAK256 PUSH0 DUP6 PUSH20 0xFFFFFFFFFFFFFFFFFFFFFFFFFFFFFFFFFFFFFFFF AND PUSH20 0xFFFFFFFFFFFFFFFFFFFFFFFFFFFFFFFFFFFFFFFF AND DUP2 MSTORE PUSH1 0x20 ADD SWAP1 DUP2 MSTORE PUSH1 0x20 ADD PUSH0 KECCAK256 DUP2 SWAP1 SSTORE POP DUP3 PUSH20 0xFFFFFFFFFFFFFFFFFFFFFFFFFFFFFFFFFFFFFFFF AND CALLER PUSH20 0xFFFFFFFFFFFFFFFFFFFFFFFFFFFFFFFFFFFFFFFF AND PUSH32 0x8C5BE1E5EBEC7D5BD14F71427D1E84F3DD0314C0F7B2291E5B200AC8C7C3B925 DUP5 PUSH1 0x40 MLOAD PUSH2 0x46E SWAP2 SWAP1 PUSH2 0x111B JUMP JUMPDEST PUSH1 0x40 MLOAD DUP1 SWAP2 SUB SWAP1 LOG3 PUSH1 0x1 SWAP1 POP SWAP3 SWAP2 POP POP JUMP JUMPDEST PUSH0 ADDRESS PUSH20 0xFFFFFFFFFFFFFFFFFFFFFFFFFFFFFFFFFFFFFFFF AND PUSH4 0xB80777EA PUSH1 0x40 MLOAD DUP2 PUSH4 0xFFFFFFFF AND PUSH1 0xE0 SHL DUP2 MSTORE PUSH1 0x4 ADD PUSH1 0x20 PUSH1 0x40 MLOAD DUP1 DUP4 SUB DUP2 PUSH0 DUP8 GAS CALL ISZERO DUP1 ISZERO PUSH2 0x4CB JUMPI RETURNDATASIZE PUSH0 DUP1 RETURNDATACOPY RETURNDATASIZE PUSH0 REVERT JUMPDEST POP POP POP POP PUSH1 0x40 MLOAD RETURNDATASIZE PUSH1 0x1F NOT PUSH1 0x1F DUP3 ADD AND DUP3 ADD DUP1 PUSH1 0x40 MSTORE POP DUP2 ADD SWAP1 PUSH2 0x4EF SWAP2 SWAP1 PUSH2 0x1235 JUMP JUMPDEST SWAP1 POP SWAP1 JUMP JUMPDEST PUSH0 PUSH1 0x2 SLOAD SWAP1 POP SWAP1 JUMP JUMPDEST PUSH0 DUP1 PUSH0 DUP6 PUSH20 0xFFFFFFFFFFFFFFFFFFFFFFFFFFFFFFFFFFFFFFFF AND PUSH20 0xFFFFFFFFFFFFFFFFFFFFFFFFFFFFFFFFFFFFFFFF AND DUP2 MSTORE PUSH1 0x20 ADD SWAP1 DUP2 MSTORE PUSH1 0x20 ADD PUSH0 KECCAK256 SLOAD DUP3 GT ISZERO PUSH2 0x546 JUMPI PUSH0 DUP1 REVERT JUMPDEST PUSH1 0x1 PUSH0 DUP6 PUSH20 0xFFFFFFFFFFFFFFFFFFFFFFFFFFFFFFFFFFFFFFFF AND PUSH20 0xFFFFFFFFFFFFFFFFFFFFFFFFFFFFFFFFFFFFFFFF AND DUP2 MSTORE PUSH1 0x20 ADD SWAP1 DUP2 MSTORE PUSH1 0x20 ADD PUSH0 KECCAK256 PUSH0 CALLER PUSH20 0xFFFFFFFFFFFFFFFFFFFFFFFFFFFFFFFFFFFFFFFF AND PUSH20 0xFFFFFFFFFFFFFFFFFFFFFFFFFFFFFFFFFFFFFFFF AND DUP2 MSTORE PUSH1 0x20 ADD SWAP1 DUP2 MSTORE PUSH1 0x20 ADD PUSH0 KECCAK256 SLOAD DUP3 GT ISZERO PUSH2 0x5CA JUMPI PUSH0 DUP1 REVERT JUMPDEST DUP2 PUSH0 DUP1 DUP7 PUSH20 0xFFFFFFFFFFFFFFFFFFFFFFFFFFFFFFFFFFFFFFFF AND PUSH20 0xFFFFFFFFFFFFFFFFFFFFFFFFFFFFFFFFFFFFFFFF AND DUP2 MSTORE PUSH1 0x20 ADD SWAP1 DUP2 MSTORE PUSH1 0x20 ADD PUSH0 KECCAK256 SLOAD PUSH2 0x612 SWAP2 SWAP1 PUSH2 0x128D JUMP JUMPDEST PUSH0 DUP1 DUP7 PUSH20 0xFFFFFFFFFFFFFFFFFFFFFFFFFFFFFFFFFFFFFFFF AND PUSH20 0xFFFFFFFFFFFFFFFFFFFFFFFFFFFFFFFFFFFFFFFF AND DUP2 MSTORE PUSH1 0x20 ADD SWAP1 DUP2 MSTORE PUSH1 0x20 ADD PUSH0 KECCAK256 DUP2 SWAP1 SSTORE POP DUP2 PUSH1 0x1 PUSH0 DUP7 PUSH20 0xFFFFFFFFFFFFFFFFFFFFFFFFFFFFFFFFFFFFFFFF AND PUSH20 0xFFFFFFFFFFFFFFFFFFFFFFFFFFFFFFFFFFFFFFFF AND DUP2 MSTORE PUSH1 0x20 ADD SWAP1 DUP2 MSTORE PUSH1 0x20 ADD PUSH0 KECCAK256 PUSH0 CALLER PUSH20 0xFFFFFFFFFFFFFFFFFFFFFFFFFFFFFFFFFFFFFFFF AND PUSH20 0xFFFFFFFFFFFFFFFFFFFFFFFFFFFFFFFFFFFFFFFF AND DUP2 MSTORE PUSH1 0x20 ADD SWAP1 DUP2 MSTORE PUSH1 0x20 ADD PUSH0 KECCAK256 SLOAD PUSH2 0x6D6 SWAP2 SWAP1 PUSH2 0x128D JUMP JUMPDEST PUSH1 0x1 PUSH0 DUP7 PUSH20 0xFFFFFFFFFFFFFFFFFFFFFFFFFFFFFFFFFFFFFFFF AND PUSH20 0xFFFFFFFFFFFFFFFFFFFFFFFFFFFFFFFFFFFFFFFF AND DUP2 MSTORE PUSH1 0x20 ADD SWAP1 DUP2 MSTORE PUSH1 0x20 ADD PUSH0 KECCAK256 PUSH0 CALLER PUSH20 0xFFFFFFFFFFFFFFFFFFFFFFFFFFFFFFFFFFFFFFFF AND PUSH20 0xFFFFFFFFFFFFFFFFFFFFFFFFFFFFFFFFFFFFFFFF AND DUP2 MSTORE PUSH1 0x20 ADD SWAP1 DUP2 MSTORE PUSH1 0x20 ADD PUSH0 KECCAK256 DUP2 SWAP1 SSTORE POP DUP2 PUSH0 DUP1 DUP6 PUSH20 0xFFFFFFFFFFFFFFFFFFFFFFFFFFFFFFFFFFFFFFFF AND PUSH20 0xFFFFFFFFFFFFFFFFFFFFFFFFFFFFFFFFFFFFFFFF AND DUP2 MSTORE PUSH1 0x20 ADD SWAP1 DUP2 MSTORE PUSH1 0x20 ADD PUSH0 KECCAK256 SLOAD PUSH2 0x79A SWAP2 SWAP1 PUSH2 0x12C0 JUMP JUMPDEST PUSH0 DUP1 DUP6 PUSH20 0xFFFFFFFFFFFFFFFFFFFFFFFFFFFFFFFFFFFFFFFF AND PUSH20 0xFFFFFFFFFFFFFFFFFFFFFFFFFFFFFFFFFFFFFFFF AND DUP2 MSTORE PUSH1 0x20 ADD SWAP1 DUP2 MSTORE PUSH1 0x20 ADD PUSH0 KECCAK256 DUP2 SWAP1 SSTORE POP DUP3 PUSH20 0xFFFFFFFFFFFFFFFFFFFFFFFFFFFFFFFFFFFFFFFF AND DUP5 PUSH20 0xFFFFFFFFFFFFFFFFFFFFFFFFFFFFFFFFFFFFFFFF AND PUSH32 0xDDF252AD1BE2C89B69C2B068FC378DAA952BA7F163C4A11628F55A4DF523B3EF DUP5 PUSH1 0x40 MLOAD PUSH2 0x837 SWAP2 SWAP1 PUSH2 0x111B JUMP JUMPDEST PUSH1 0x40 MLOAD DUP1 SWAP2 SUB SWAP1 LOG3 PUSH1 0x1 SWAP1 POP SWAP4 SWAP3 POP POP POP JUMP JUMPDEST PUSH1 0x12 DUP2 JUMP JUMPDEST PUSH0 PUSH1 0x3 PUSH0 CALLER PUSH20 0xFFFFFFFFFFFFFFFFFFFFFFFFFFFFFFFFFFFFFFFF AND PUSH20 0xFFFFFFFFFFFFFFFFFFFFFFFFFFFFFFFFFFFFFFFF AND DUP2 MSTORE PUSH1 0x20 ADD SWAP1 DUP2 MSTORE PUSH1 0x20 ADD PUSH0 KECCAK256 SWAP1 POP ADDRESS PUSH20 0xFFFFFFFFFFFFFFFFFFFFFFFFFFFFFFFFFFFFFFFF AND PUSH4 0xB80777EA PUSH1 0x40 MLOAD DUP2 PUSH4 0xFFFFFFFF AND PUSH1 0xE0 SHL DUP2 MSTORE PUSH1 0x4 ADD PUSH1 0x20 PUSH1 0x40 MLOAD DUP1 DUP4 SUB DUP2 PUSH0 DUP8 GAS CALL ISZERO DUP1 ISZERO PUSH2 0x8D9 JUMPI RETURNDATASIZE PUSH0 DUP1 RETURNDATACOPY RETURNDATASIZE PUSH0 REVERT JUMPDEST POP POP POP POP PUSH1 0x40 MLOAD RETURNDATASIZE PUSH1 0x1F NOT PUSH1 0x1F DUP3 ADD AND DUP3 ADD DUP1 PUSH1 0x40 MSTORE POP DUP2 ADD SWAP1 PUSH2 0x8FD SWAP2 SWAP1 PUSH2 0x1235 JUMP JUMPDEST DUP2 PUSH0 ADD DUP2 SWAP1 SSTORE POP DUP2 DUP2 PUSH1 0x1 ADD DUP2 SWAP1 SSTORE POP POP POP JUMP JUMPDEST PUSH0 DUP1 PUSH0 DUP4 PUSH20 0xFFFFFFFFFFFFFFFFFFFFFFFFFFFFFFFFFFFFFFFF AND PUSH20 0xFFFFFFFFFFFFFFFFFFFFFFFFFFFFFFFFFFFFFFFF AND DUP2 MSTORE PUSH1 0x20 ADD SWAP1 DUP2 MSTORE PUSH1 0x20 ADD PUSH0 KECCAK256 SLOAD SWAP1 POP SWAP2 SWAP1 POP JUMP JUMPDEST PUSH1 0x40 MLOAD DUP1 PUSH1 0x40 ADD PUSH1 0x40 MSTORE DUP1 PUSH1 0x3 DUP2 MSTORE PUSH1 0x20 ADD PUSH32 0x4552430000000000000000000000000000000000000000000000000000000000 DUP2 MSTORE POP DUP2 JUMP JUMPDEST PUSH0 DUP1 PUSH0 CALLER PUSH20 0xFFFFFFFFFFFFFFFFFFFFFFFFFFFFFFFFFFFFFFFF AND PUSH20 0xFFFFFFFFFFFFFFFFFFFFFFFFFFFFFFFFFFFFFFFF AND DUP2 MSTORE PUSH1 0x20 ADD SWAP1 DUP2 MSTORE PUSH1 0x20 ADD PUSH0 KECCAK256 SLOAD DUP3 GT ISZERO PUSH2 0x9D8 JUMPI PUSH0 DUP1 REVERT JUMPDEST DUP2 PUSH0 DUP1 CALLER PUSH20 0xFFFFFFFFFFFFFFFFFFFFFFFFFFFFFFFFFFFFFFFF AND PUSH20 0xFFFFFFFFFFFFFFFFFFFFFFFFFFFFFFFFFFFFFFFF AND DUP2 MSTORE PUSH1 0x20 ADD SWAP1 DUP2 MSTORE PUSH1 0x20 ADD PUSH0 KECCAK256 SLOAD PUSH2 0xA20 SWAP2 SWAP1 PUSH2 0x128D JUMP JUMPDEST PUSH0 DUP1 CALLER PUSH20 0xFFFFFFFFFFFFFFFFFFFFFFFFFFFFFFFFFFFFFFFF AND PUSH20 0xFFFFFFFFFFFFFFFFFFFFFFFFFFFFFFFFFFFFFFFF AND DUP2 MSTORE PUSH1 0x20 ADD SWAP1 DUP2 MSTORE PUSH1 0x20 ADD PUSH0 KECCAK256 DUP2 SWAP1 SSTORE POP DUP2 PUSH0 DUP1 DUP6 PUSH20 0xFFFFFFFFFFFFFFFFFFFFFFFFFFFFFFFFFFFFFFFF AND PUSH20 0xFFFFFFFFFFFFFFFFFFFFFFFFFFFFFFFFFFFFFFFF AND DUP2 MSTORE PUSH1 0x20 ADD SWAP1 DUP2 MSTORE PUSH1 0x20 ADD PUSH0 KECCAK256 SLOAD PUSH2 0xAA8 SWAP2 SWAP1 PUSH2 0x12C0 JUMP JUMPDEST PUSH0 DUP1 DUP6 PUSH20 0xFFFFFFFFFFFFFFFFFFFFFFFFFFFFFFFFFFFFFFFF AND PUSH20 0xFFFFFFFFFFFFFFFFFFFFFFFFFFFFFFFFFFFFFFFF AND DUP2 MSTORE PUSH1 0x20 ADD SWAP1 DUP2 MSTORE PUSH1 0x20 ADD PUSH0 KECCAK256 DUP2 SWAP1 SSTORE POP DUP3 PUSH20 0xFFFFFFFFFFFFFFFFFFFFFFFFFFFFFFFFFFFFFFFF AND CALLER PUSH20 0xFFFFFFFFFFFFFFFFFFFFFFFFFFFFFFFFFFFFFFFF AND PUSH32 0xDDF252AD1BE2C89B69C2B068FC378DAA952BA7F163C4A11628F55A4DF523B3EF DUP5 PUSH1 0x40 MLOAD PUSH2 0xB45 SWAP2 SWAP1 PUSH2 0x111B JUMP JUMPDEST PUSH1 0x40 MLOAD DUP1 SWAP2 SUB SWAP1 LOG3 PUSH1 0x1 SWAP1 POP SWAP3 SWAP2 POP POP JUMP JUMPDEST PUSH0 NUMBER SWAP1 POP SWAP1 JUMP JUMPDEST PUSH0 PUSH1 0x3 PUSH0 CALLER PUSH20 0xFFFFFFFFFFFFFFFFFFFFFFFFFFFFFFFFFFFFFFFF AND PUSH20 0xFFFFFFFFFFFFFFFFFFFFFFFFFFFFFFFFFFFFFFFF AND DUP2 MSTORE PUSH1 0x20 ADD SWAP1 DUP2 MSTORE PUSH1 0x20 ADD PUSH0 KECCAK256 SWAP1 POP DUP1 PUSH1 0x1 ADD SLOAD DUP2 PUSH0 ADD SLOAD PUSH2 0xBB1 SWAP2 SWAP1 PUSH2 0x12C0 JUMP JUMPDEST NUMBER LT ISZERO PUSH2 0xBBC JUMPI PUSH0 DUP1 REVERT JUMPDEST ADDRESS PUSH20 0xFFFFFFFFFFFFFFFFFFFFFFFFFFFFFFFFFFFFFFFF AND PUSH4 0xA9059CBB CALLER DUP4 PUSH1 0x1 ADD SLOAD PUSH1 0x40 MLOAD DUP4 PUSH4 0xFFFFFFFF AND PUSH1 0xE0 SHL DUP2 MSTORE PUSH1 0x4 ADD PUSH2 0xBFB SWAP3 SWAP2 SWAP1 PUSH2 0x1302 JUMP JUMPDEST PUSH1 0x20 PUSH1 0x40 MLOAD DUP1 DUP4 SUB DUP2 PUSH0 DUP8 GAS CALL ISZERO DUP1 ISZERO PUSH2 0xC17 JUMPI RETURNDATASIZE PUSH0 DUP1 RETURNDATACOPY RETURNDATASIZE PUSH0 REVERT JUMPDEST POP POP POP POP PUSH1 0x40 MLOAD RETURNDATASIZE PUSH1 0x1F NOT PUSH1 0x1F DUP3 ADD AND DUP3 ADD DUP1 PUSH1 0x40 MSTORE POP DUP2 ADD SWAP1 PUSH2 0xC3B SWAP2 SWAP1 PUSH2 0x1353 JUMP JUMPDEST POP PUSH1 0x3 PUSH0 CALLER PUSH20 0xFFFFFFFFFFFFFFFFFFFFFFFFFFFFFFFFFFFFFFFF AND PUSH20 0xFFFFFFFFFFFFFFFFFFFFFFFFFFFFFFFFFFFFFFFF AND DUP2 MSTORE PUSH1 0x20 ADD SWAP1 DUP2 MSTORE PUSH1 0x20 ADD PUSH0 KECCAK256 PUSH0 DUP1 DUP3 ADD PUSH0 SWAP1 SSTORE PUSH1 0x1 DUP3 ADD PUSH0 SWAP1 SSTORE POP POP POP JUMP JUMPDEST PUSH0 PUSH1 0x1 PUSH0 DUP5 PUSH20 0xFFFFFFFFFFFFFFFFFFFFFFFFFFFFFFFFFFFFFFFF AND PUSH20 0xFFFFFFFFFFFFFFFFFFFFFFFFFFFFFFFFFFFFFFFF AND DUP2 MSTORE PUSH1 0x20 ADD SWAP1 DUP2 MSTORE PUSH1 0x20 ADD PUSH0 KECCAK256 PUSH0 DUP4 PUSH20 0xFFFFFFFFFFFFFFFFFFFFFFFFFFFFFFFFFFFFFFFF AND PUSH20 0xFFFFFFFFFFFFFFFFFFFFFFFFFFFFFFFFFFFFFFFF AND DUP2 MSTORE PUSH1 0x20 ADD SWAP1 DUP2 MSTORE PUSH1 0x20 ADD PUSH0 KECCAK256 SLOAD SWAP1 POP SWAP3 SWAP2 POP POP JUMP JUMPDEST PUSH0 PUSH1 0x3 PUSH0 CALLER PUSH20 0xFFFFFFFFFFFFFFFFFFFFFFFFFFFFFFFFFFFFFFFF AND PUSH20 0xFFFFFFFFFFFFFFFFFFFFFFFFFFFFFFFFFFFFFFFF AND DUP2 MSTORE PUSH1 0x20 ADD SWAP1 DUP2 MSTORE PUSH1 0x20 ADD PUSH0 KECCAK256 SWAP1 POP DUP1 PUSH0 ADD SLOAD CALLER PUSH20 0xFFFFFFFFFFFFFFFFFFFFFFFFFFFFFFFFFFFFFFFF AND PUSH4 0xB80777EA PUSH1 0x40 MLOAD DUP2 PUSH4 0xFFFFFFFF AND PUSH1 0xE0 SHL DUP2 MSTORE PUSH1 0x4 ADD PUSH1 0x20 PUSH1 0x40 MLOAD DUP1 DUP4 SUB DUP2 PUSH0 DUP8 GAS CALL ISZERO DUP1 ISZERO PUSH2 0xD9C JUMPI RETURNDATASIZE PUSH0 DUP1 RETURNDATACOPY RETURNDATASIZE PUSH0 REVERT JUMPDEST POP POP POP POP PUSH1 0x40 MLOAD RETURNDATASIZE PUSH1 0x1F NOT PUSH1 0x1F DUP3 ADD AND DUP3 ADD DUP1 PUSH1 0x40 MSTORE POP DUP2 ADD SWAP1 PUSH2 0xDC0 SWAP2 SWAP1 PUSH2 0x1235 JUMP JUMPDEST GT PUSH2 0xDC9 JUMPI PUSH0 DUP1 REVERT JUMPDEST CALLER PUSH20 0xFFFFFFFFFFFFFFFFFFFFFFFFFFFFFFFFFFFFFFFF AND PUSH4 0xB80777EA PUSH1 0x40 MLOAD DUP2 PUSH4 0xFFFFFFFF AND PUSH1 0xE0 SHL DUP2 MSTORE PUSH1 0x4 ADD PUSH1 0x20 PUSH1 0x40 MLOAD DUP1 DUP4 SUB DUP2 PUSH0 DUP8 GAS CALL ISZERO DUP1 ISZERO PUSH2 0xE13 JUMPI RETURNDATASIZE PUSH0 DUP1 RETURNDATACOPY RETURNDATASIZE PUSH0 REVERT JUMPDEST POP POP POP POP PUSH1 0x40 MLOAD RETURNDATASIZE PUSH1 0x1F NOT PUSH1 0x1F DUP3 ADD AND DUP3 ADD DUP1 PUSH1 0x40 MSTORE POP DUP2 ADD SWAP1 PUSH2 0xE37 SWAP2 SWAP1 PUSH2 0x1235 JUMP JUMPDEST DUP2 PUSH0 ADD DUP2 SWAP1 SSTORE POP POP JUMP JUMPDEST PUSH1 0x4 SLOAD DUP2 JUMP JUMPDEST PUSH0 PUSH1 0x4 DUP2 SWAP1 SSTORE POP PUSH0 PUSH1 0x3 PUSH0 CALLER PUSH20 0xFFFFFFFFFFFFFFFFFFFFFFFFFFFFFFFFFFFFFFFF AND PUSH20 0xFFFFFFFFFFFFFFFFFFFFFFFFFFFFFFFFFFFFFFFF AND DUP2 MSTORE PUSH1 0x20 ADD SWAP1 DUP2 MSTORE PUSH1 0x20 ADD PUSH0 KECCAK256 PUSH1 0x1 ADD SLOAD EQ PUSH2 0xEAF JUMPI PUSH1 0x19 PUSH1 0x4 PUSH0 DUP3 DUP3 SLOAD PUSH2 0xEA7 SWAP2 SWAP1 PUSH2 0x12C0 JUMP JUMPDEST SWAP3 POP POP DUP2 SWAP1 SSTORE POP JUMPDEST PUSH0 DUP1 PUSH0 ADDRESS PUSH20 0xFFFFFFFFFFFFFFFFFFFFFFFFFFFFFFFFFFFFFFFF AND PUSH20 0xFFFFFFFFFFFFFFFFFFFFFFFFFFFFFFFFFFFFFFFF AND DUP2 MSTORE PUSH1 0x20 ADD SWAP1 DUP2 MSTORE PUSH1 0x20 ADD PUSH0 KECCAK256 SLOAD SUB PUSH2 0xF0C JUMPI PUSH1 0x4B PUSH1 0x4 PUSH0 DUP3 DUP3 SLOAD PUSH2 0xF04 SWAP2 SWAP1 PUSH2 0x12C0 JUMP JUMPDEST SWAP3 POP POP DUP2 SWAP1 SSTORE POP JUMPDEST JUMP JUMPDEST PUSH0 DUP1 REVERT JUMPDEST PUSH0 PUSH20 0xFFFFFFFFFFFFFFFFFFFFFFFFFFFFFFFFFFFFFFFF DUP3 AND SWAP1 POP SWAP2 SWAP1 POP JUMP JUMPDEST PUSH0 PUSH2 0xF3B DUP3 PUSH2 0xF12 JUMP JUMPDEST SWAP1 POP SWAP2 SWAP1 POP JUMP JUMPDEST PUSH2 0xF4B DUP2 PUSH2 0xF31 JUMP JUMPDEST DUP2 EQ PUSH2 0xF55 JUMPI PUSH0 DUP1 REVERT JUMPDEST POP JUMP JUMPDEST PUSH0 DUP2 CALLDATALOAD SWAP1 POP PUSH2 0xF66 DUP2 PUSH2 0xF42 JUMP JUMPDEST SWAP3 SWAP2 POP POP JUMP JUMPDEST PUSH0 PUSH1 0x20 DUP3 DUP5 SUB SLT ISZERO PUSH2 0xF81 JUMPI PUSH2 0xF80 PUSH2 0xF0E JUMP JUMPDEST JUMPDEST PUSH0 PUSH2 0xF8E DUP5 DUP3 DUP6 ADD PUSH2 0xF58 JUMP JUMPDEST SWAP2 POP POP SWAP3 SWAP2 POP POP JUMP JUMPDEST PUSH0 DUP2 SWAP1 POP SWAP2 SWAP1 POP JUMP JUMPDEST PUSH2 0xFA9 DUP2 PUSH2 0xF97 JUMP JUMPDEST DUP3 MSTORE POP POP JUMP JUMPDEST PUSH0 PUSH1 0x40 DUP3 ADD SWAP1 POP PUSH2 0xFC2 PUSH0 DUP4 ADD DUP6 PUSH2 0xFA0 JUMP JUMPDEST PUSH2 0xFCF PUSH1 0x20 DUP4 ADD DUP5 PUSH2 0xFA0 JUMP JUMPDEST SWAP4 SWAP3 POP POP POP JUMP JUMPDEST PUSH0 DUP2 MLOAD SWAP1 POP SWAP2 SWAP1 POP JUMP JUMPDEST PUSH0 DUP3 DUP3 MSTORE PUSH1 0x20 DUP3 ADD SWAP1 POP SWAP3 SWAP2 POP POP JUMP JUMPDEST PUSH0 JUMPDEST DUP4 DUP2 LT ISZERO PUSH2 0x100D JUMPI DUP1 DUP3 ADD MLOAD DUP2 DUP5 ADD MSTORE PUSH1 0x20 DUP2 ADD SWAP1 POP PUSH2 0xFF2 JUMP JUMPDEST PUSH0 DUP5 DUP5 ADD MSTORE POP POP POP POP JUMP JUMPDEST PUSH0 PUSH1 0x1F NOT PUSH1 0x1F DUP4 ADD AND SWAP1 POP SWAP2 SWAP1 POP JUMP JUMPDEST PUSH0 PUSH2 0x1032 DUP3 PUSH2 0xFD6 JUMP JUMPDEST PUSH2 0x103C DUP2 DUP6 PUSH2 0xFE0 JUMP JUMPDEST SWAP4 POP PUSH2 0x104C DUP2 DUP6 PUSH1 0x20 DUP7 ADD PUSH2 0xFF0 JUMP JUMPDEST PUSH2 0x1055 DUP2 PUSH2 0x1018 JUMP JUMPDEST DUP5 ADD SWAP2 POP POP SWAP3 SWAP2 POP POP JUMP JUMPDEST PUSH0 PUSH1 0x20 DUP3 ADD SWAP1 POP DUP2 DUP2 SUB PUSH0 DUP4 ADD MSTORE PUSH2 0x1078 DUP2 DUP5 PUSH2 0x1028 JUMP JUMPDEST SWAP1 POP SWAP3 SWAP2 POP POP JUMP JUMPDEST PUSH2 0x1089 DUP2 PUSH2 0xF97 JUMP JUMPDEST DUP2 EQ PUSH2 0x1093 JUMPI PUSH0 DUP1 REVERT JUMPDEST POP JUMP JUMPDEST PUSH0 DUP2 CALLDATALOAD SWAP1 POP PUSH2 0x10A4 DUP2 PUSH2 0x1080 JUMP JUMPDEST SWAP3 SWAP2 POP POP JUMP JUMPDEST PUSH0 DUP1 PUSH1 0x40 DUP4 DUP6 SUB SLT ISZERO PUSH2 0x10C0 JUMPI PUSH2 0x10BF PUSH2 0xF0E JUMP JUMPDEST JUMPDEST PUSH0 PUSH2 0x10CD DUP6 DUP3 DUP7 ADD PUSH2 0xF58 JUMP JUMPDEST SWAP3 POP POP PUSH1 0x20 PUSH2 0x10DE DUP6 DUP3 DUP7 ADD PUSH2 0x1096 JUMP JUMPDEST SWAP2 POP POP SWAP3 POP SWAP3 SWAP1 POP JUMP JUMPDEST PUSH0 DUP2 ISZERO ISZERO SWAP1 POP SWAP2 SWAP1 POP JUMP JUMPDEST PUSH2 0x10FC DUP2 PUSH2 0x10E8 JUMP JUMPDEST DUP3 MSTORE POP POP JUMP JUMPDEST PUSH0 PUSH1 0x20 DUP3 ADD SWAP1 POP PUSH2 0x1115 PUSH0 DUP4 ADD DUP5 PUSH2 0x10F3 JUMP JUMPDEST SWAP3 SWAP2 POP POP JUMP JUMPDEST PUSH0 PUSH1 0x20 DUP3 ADD SWAP1 POP PUSH2 0x112E PUSH0 DUP4 ADD DUP5 PUSH2 0xFA0 JUMP JUMPDEST SWAP3 SWAP2 POP POP JUMP JUMPDEST PUSH0 DUP1 PUSH0 PUSH1 0x60 DUP5 DUP7 SUB SLT ISZERO PUSH2 0x114B JUMPI PUSH2 0x114A PUSH2 0xF0E JUMP JUMPDEST JUMPDEST PUSH0 PUSH2 0x1158 DUP7 DUP3 DUP8 ADD PUSH2 0xF58 JUMP JUMPDEST SWAP4 POP POP PUSH1 0x20 PUSH2 0x1169 DUP7 DUP3 DUP8 ADD PUSH2 0xF58 JUMP JUMPDEST SWAP3 POP POP PUSH1 0x40 PUSH2 0x117A DUP7 DUP3 DUP8 ADD PUSH2 0x1096 JUMP JUMPDEST SWAP2 POP POP SWAP3 POP SWAP3 POP SWAP3 JUMP JUMPDEST PUSH0 PUSH1 0xFF DUP3 AND SWAP1 POP SWAP2 SWAP1 POP JUMP JUMPDEST PUSH2 0x1199 DUP2 PUSH2 0x1184 JUMP JUMPDEST DUP3 MSTORE POP POP JUMP JUMPDEST PUSH0 PUSH1 0x20 DUP3 ADD SWAP1 POP PUSH2 0x11B2 PUSH0 DUP4 ADD DUP5 PUSH2 0x1190 JUMP JUMPDEST SWAP3 SWAP2 POP POP JUMP JUMPDEST PUSH0 PUSH1 0x20 DUP3 DUP5 SUB SLT ISZERO PUSH2 0x11CD JUMPI PUSH2 0x11CC PUSH2 0xF0E JUMP JUMPDEST JUMPDEST PUSH0 PUSH2 0x11DA DUP5 DUP3 DUP6 ADD PUSH2 0x1096 JUMP JUMPDEST SWAP2 POP POP SWAP3 SWAP2 POP POP JUMP JUMPDEST PUSH0 DUP1 PUSH1 0x40 DUP4 DUP6 SUB SLT ISZERO PUSH2 0x11F9 JUMPI PUSH2 0x11F8 PUSH2 0xF0E JUMP JUMPDEST JUMPDEST PUSH0 PUSH2 0x1206 DUP6 DUP3 DUP7 ADD PUSH2 0xF58 JUMP JUMPDEST SWAP3 POP POP PUSH1 0x20 PUSH2 0x1217 DUP6 DUP3 DUP7 ADD PUSH2 0xF58 JUMP JUMPDEST SWAP2 POP POP SWAP3 POP SWAP3 SWAP1 POP JUMP JUMPDEST PUSH0 DUP2 MLOAD SWAP1 POP PUSH2 0x122F DUP2 PUSH2 0x1080 JUMP JUMPDEST SWAP3 SWAP2 POP POP JUMP JUMPDEST PUSH0 PUSH1 0x20 DUP3 DUP5 SUB SLT ISZERO PUSH2 0x124A JUMPI PUSH2 0x1249 PUSH2 0xF0E JUMP JUMPDEST JUMPDEST PUSH0 PUSH2 0x1257 DUP5 DUP3 DUP6 ADD PUSH2 0x1221 JUMP JUMPDEST SWAP2 POP POP SWAP3 SWAP2 POP POP JUMP JUMPDEST PUSH32 0x4E487B7100000000000000000000000000000000000000000000000000000000 PUSH0 MSTORE PUSH1 0x11 PUSH1 0x4 MSTORE PUSH1 0x24 PUSH0 REVERT JUMPDEST PUSH0 PUSH2 0x1297 DUP3 PUSH2 0xF97 JUMP JUMPDEST SWAP2 POP PUSH2 0x12A2 DUP4 PUSH2 0xF97 JUMP JUMPDEST SWAP3 POP DUP3 DUP3 SUB SWAP1 POP DUP2 DUP2 GT ISZERO PUSH2 0x12BA JUMPI PUSH2 0x12B9 PUSH2 0x1260 JUMP JUMPDEST JUMPDEST SWAP3 SWAP2 POP POP JUMP JUMPDEST PUSH0 PUSH2 0x12CA DUP3 PUSH2 0xF97 JUMP JUMPDEST SWAP2 POP PUSH2 0x12D5 DUP4 PUSH2 0xF97 JUMP JUMPDEST SWAP3 POP DUP3 DUP3 ADD SWAP1 POP DUP1 DUP3 GT ISZERO PUSH2 0x12ED JUMPI PUSH2 0x12EC PUSH2 0x1260 JUMP JUMPDEST JUMPDEST SWAP3 SWAP2 POP POP JUMP JUMPDEST PUSH2 0x12FC DUP2 PUSH2 0xF31 JUMP JUMPDEST DUP3 MSTORE POP POP JUMP JUMPDEST PUSH0 PUSH1 0x40 DUP3 ADD SWAP1 POP PUSH2 0x1315 PUSH0 DUP4 ADD DUP6 PUSH2 0x12F3 JUMP JUMPDEST PUSH2 0x1322 PUSH1 0x20 DUP4 ADD DUP5 PUSH2 0xFA0 JUMP JUMPDEST SWAP4 SWAP3 POP POP POP JUMP JUMPDEST PUSH2 0x1332 DUP2 PUSH2 0x10E8 JUMP JUMPDEST DUP2 EQ PUSH2 0x133C JUMPI PUSH0 DUP1 REVERT JUMPDEST POP JUMP JUMPDEST PUSH0 DUP2 MLOAD SWAP1 POP PUSH2 0x134D DUP2 PUSH2 0x1329 JUMP JUMPDEST SWAP3 SWAP2 POP POP JUMP JUMPDEST PUSH0 PUSH1 0x20 DUP3 DUP5 SUB SLT ISZERO PUSH2 0x1368 JUMPI PUSH2 0x1367 PUSH2 0xF0E JUMP JUMPDEST JUMPDEST PUSH0 PUSH2 0x1375 DUP5 DUP3 DUP6 ADD PUSH2 0x133F JUMP JUMPDEST SWAP2 POP POP SWAP3 SWAP2 POP POP JUMP INVALID LOG2 PUSH5 0x6970667358 0x22 SLT KECCAK256 MLOAD 0xE7 0xD8 SHR PUSH32 0x5D380981916EFC131CC7DE6E67BC9368CAE64597545C61C48F798F64736F6C63 NUMBER STOP ADDMOD ISZERO STOP CALLER "
				},
				"gasEstimates": {
					"creation": {
						"codeDepositCost": "1008800",
						"executionCost": "infinite",
						"totalCost": "infinite"
					},
					"external": {
						"allowance(address,address)": "infinite",
						"approve(address,uint256)": "infinite",
						"balanceOf(address)": "2852",
						"decimals()": "398",
						"finish()": "infinite",
						"isCompleted()": "infinite",
						"itimestamp()": "infinite",
						"name()": "infinite",
						"score()": "2513",
						"symbol()": "infinite",
						"timestamp()": "420",
						"totalSupply()": "2455",
						"transfer(address,uint256)": "infinite",
						"transferFrom(address,address,uint256)": "infinite",
						"updateStart()": "infinite",
						"work(uint256)": "infinite",
						"workusers(address)": "infinite"
					}
				},
				"methodIdentifiers": {
					"allowance(address,address)": "dd62ed3e",
					"approve(address,uint256)": "095ea7b3",
					"balanceOf(address)": "70a08231",
					"decimals()": "313ce567",
					"finish()": "d56b2889",
					"isCompleted()": "fa391c64",
					"itimestamp()": "0b74974d",
					"name()": "06fdde03",
					"score()": "efedc669",
					"symbol()": "95d89b41",
					"timestamp()": "b80777ea",
					"totalSupply()": "18160ddd",
					"transfer(address,uint256)": "a9059cbb",
					"transferFrom(address,address,uint256)": "23b872dd",
					"updateStart()": "e320bee5",
					"work(uint256)": "5858d161",
					"workusers(address)": "0168c11e"
				}
			},
			"storageLayout": {
				"storage": [
					{
						"astId": 89,
						"contract": "shoot/摸底3/1/1.sol:check",
						"label": "balances",
						"offset": 0,
						"slot": "0",
						"type": "t_mapping(t_address,t_uint256)"
					},
					{
						"astId": 95,
						"contract": "shoot/摸底3/1/1.sol:check",
						"label": "allowed",
						"offset": 0,
						"slot": "1",
						"type": "t_mapping(t_address,t_mapping(t_address,t_uint256))"
					},
					{
						"astId": 98,
						"contract": "shoot/摸底3/1/1.sol:check",
						"label": "totalSupply_",
						"offset": 0,
						"slot": "2",
						"type": "t_uint256"
					},
					{
						"astId": 328,
						"contract": "shoot/摸底3/1/1.sol:check",
						"label": "workusers",
						"offset": 0,
						"slot": "3",
						"type": "t_mapping(t_address,t_struct(workUser)323_storage)"
					},
					{
						"astId": 568,
						"contract": "shoot/摸底3/1/1.sol:check",
						"label": "score",
						"offset": 0,
						"slot": "4",
						"type": "t_uint256"
					}
				],
				"types": {
					"t_address": {
						"encoding": "inplace",
						"label": "address",
						"numberOfBytes": "20"
					},
					"t_mapping(t_address,t_mapping(t_address,t_uint256))": {
						"encoding": "mapping",
						"key": "t_address",
						"label": "mapping(address => mapping(address => uint256))",
						"numberOfBytes": "32",
						"value": "t_mapping(t_address,t_uint256)"
					},
					"t_mapping(t_address,t_struct(workUser)323_storage)": {
						"encoding": "mapping",
						"key": "t_address",
						"label": "mapping(address => struct worker.workUser)",
						"numberOfBytes": "32",
						"value": "t_struct(workUser)323_storage"
					},
					"t_mapping(t_address,t_uint256)": {
						"encoding": "mapping",
						"key": "t_address",
						"label": "mapping(address => uint256)",
						"numberOfBytes": "32",
						"value": "t_uint256"
					},
					"t_struct(workUser)323_storage": {
						"encoding": "inplace",
						"label": "struct worker.workUser",
						"members": [
							{
								"astId": 320,
								"contract": "shoot/摸底3/1/1.sol:check",
								"label": "startNumber",
								"offset": 0,
								"slot": "0",
								"type": "t_uint256"
							},
							{
								"astId": 322,
								"contract": "shoot/摸底3/1/1.sol:check",
								"label": "workingNumber",
								"offset": 0,
								"slot": "1",
								"type": "t_uint256"
							}
						],
						"numberOfBytes": "64"
					},
					"t_uint256": {
						"encoding": "inplace",
						"label": "uint256",
						"numberOfBytes": "32"
					}
				}
			},
			"userdoc": {
				"kind": "user",
				"methods": {},
				"version": 1
			}
		}
	}
}