{
	"data": {
		"bytecode": {
			"linkReferences": {},
			"object": "608060405234801561001057600080fd5b506040516103cc3803806103cc8339818101604052604081101561003357600080fd5b810190808051604051939291908464010000000082111561005357600080fd5b8382019150602082018581111561006957600080fd5b825186600182028301116401000000008211171561008657600080fd5b8083526020830192505050908051906020019080838360005b838110156100ba57808201518184015260208101905061009f565b50505050905090810190601f1680156100e75780820380516001836020036101000a031916815260200191505b50604052602001805190602001909291905050508160019080519060200190610111929190610120565b508060008190555050506101c5565b828054600181600116156101000203166002900490600052602060002090601f016020900481019282601f1061016157805160ff191683800117855561018f565b8280016001018555821561018f579182015b8281111561018e578251825591602001919060010190610173565b5b50905061019c91906101a0565b5090565b6101c291905b808211156101be5760008160009055506001016101a6565b5090565b90565b6101f8806101d46000396000f3fe608060405234801561001057600080fd5b50600436106100415760003560e01c806306fdde03146100465780636ca7f3ba146100c9578063e3ac5d26146100f7575b600080fd5b61004e610115565b6040518080602001828103825283818151815260200191508051906020019080838360005b8381101561008e578082015181840152602081019050610073565b50505050905090810190601f1680156100bb5780820380516001836020036101000a031916815260200191505b509250505060405180910390f35b6100f5600480360360208110156100df57600080fd5b81019080803590602001909291905050506101b3565b005b6100ff6101bd565b6040518082815260200191505060405180910390f35b60018054600181600116156101000203166002900480601f0160208091040260200160405190810160405280929190818152602001828054600181600116156101000203166002900480156101ab5780601f10610180576101008083540402835291602001916101ab565b820191906000526020600020905b81548152906001019060200180831161018e57829003601f168201915b505050505081565b8060008190555050565b6000548156fea265627a7a72315820838c38f2dcafa51b9ee819add37e206f2b58cb2eac58e16c8bd657b57f1216d864736f6c63430005110032",
			"opcodes": "PUSH1 0x80 PUSH1 0x40 MSTORE CALLVALUE DUP1 ISZERO PUSH2 0x10 JUMPI PUSH1 0x0 DUP1 REVERT JUMPDEST POP PUSH1 0x40 MLOAD PUSH2 0x3CC CODESIZE SUB DUP1 PUSH2 0x3CC DUP4 CODECOPY DUP2 DUP2 ADD PUSH1 0x40 MSTORE PUSH1 0x40 DUP2 LT ISZERO PUSH2 0x33 JUMPI PUSH1 0x0 DUP1 REVERT JUMPDEST DUP2 ADD SWAP1 DUP1 DUP1 MLOAD PUSH1 0x40 MLOAD SWAP4 SWAP3 SWAP2 SWAP1 DUP5 PUSH5 0x100000000 DUP3 GT ISZERO PUSH2 0x53 JUMPI PUSH1 0x0 DUP1 REVERT JUMPDEST DUP4 DUP3 ADD SWAP2 POP PUSH1 0x20 DUP3 ADD DUP6 DUP2 GT ISZERO PUSH2 0x69 JUMPI PUSH1 0x0 DUP1 REVERT JUMPDEST DUP3 MLOAD DUP7 PUSH1 0x1 DUP3 MUL DUP4 ADD GT PUSH5 0x100000000 DUP3 GT OR ISZERO PUSH2 0x86 JUMPI PUSH1 0x0 DUP1 REVERT JUMPDEST DUP1 DUP4 MSTORE PUSH1 0x20 DUP4 ADD SWAP3 POP POP POP SWAP1 DUP1 MLOAD SWAP1 PUSH1 0x20 ADD SWAP1 DUP1 DUP4 DUP4 PUSH1 0x0 JUMPDEST DUP4 DUP2 LT ISZERO PUSH2 0xBA JUMPI DUP1 DUP3 ADD MLOAD DUP2 DUP5 ADD MSTORE PUSH1 0x20 DUP2 ADD SWAP1 POP PUSH2 0x9F JUMP JUMPDEST POP POP POP POP SWAP1 POP SWAP1 DUP2 ADD SWAP1 PUSH1 0x1F AND DUP1 ISZERO PUSH2 0xE7 JUMPI DUP1 DUP3 SUB DUP1 MLOAD PUSH1 0x1 DUP4 PUSH1 0x20 SUB PUSH2 0x100 EXP SUB NOT AND DUP2 MSTORE PUSH1 0x20 ADD SWAP2 POP JUMPDEST POP PUSH1 0x40 MSTORE PUSH1 0x20 ADD DUP1 MLOAD SWAP1 PUSH1 0x20 ADD SWAP1 SWAP3 SWAP2 SWAP1 POP POP POP DUP2 PUSH1 0x1 SWAP1 DUP1 MLOAD SWAP1 PUSH1 0x20 ADD SWAP1 PUSH2 0x111 SWAP3 SWAP2 SWAP1 PUSH2 0x120 JUMP JUMPDEST POP DUP1 PUSH1 0x0 DUP2 SWAP1 SSTORE POP POP POP PUSH2 0x1C5 JUMP JUMPDEST DUP3 DUP1 SLOAD PUSH1 0x1 DUP2 PUSH1 0x1 AND ISZERO PUSH2 0x100 MUL SUB AND PUSH1 0x2 SWAP1 DIV SWAP1 PUSH1 0x0 MSTORE PUSH1 0x20 PUSH1 0x0 KECCAK256 SWAP1 PUSH1 0x1F ADD PUSH1 0x20 SWAP1 DIV DUP2 ADD SWAP3 DUP3 PUSH1 0x1F LT PUSH2 0x161 JUMPI DUP1 MLOAD PUSH1 0xFF NOT AND DUP4 DUP1 ADD OR DUP6 SSTORE PUSH2 0x18F JUMP JUMPDEST DUP3 DUP1 ADD PUSH1 0x1 ADD DUP6 SSTORE DUP3 ISZERO PUSH2 0x18F JUMPI SWAP2 DUP3 ADD JUMPDEST DUP3 DUP2 GT ISZERO PUSH2 0x18E JUMPI DUP3 MLOAD DUP3 SSTORE SWAP2 PUSH1 0x20 ADD SWAP2 SWAP1 PUSH1 0x1 ADD SWAP1 PUSH2 0x173 JUMP JUMPDEST JUMPDEST POP SWAP1 POP PUSH2 0x19C SWAP2 SWAP1 PUSH2 0x1A0 JUMP JUMPDEST POP SWAP1 JUMP JUMPDEST PUSH2 0x1C2 SWAP2 SWAP1 JUMPDEST DUP1 DUP3 GT ISZERO PUSH2 0x1BE JUMPI PUSH1 0x0 DUP2 PUSH1 0x0 SWAP1 SSTORE POP PUSH1 0x1 ADD PUSH2 0x1A6 JUMP JUMPDEST POP SWAP1 JUMP JUMPDEST SWAP1 JUMP JUMPDEST PUSH2 0x1F8 DUP1 PUSH2 0x1D4 PUSH1 0x0 CODECOPY PUSH1 0x0 RETURN INVALID PUSH1 0x80 PUSH1 0x40 MSTORE CALLVALUE DUP1 ISZERO PUSH2 0x10 JUMPI PUSH1 0x0 DUP1 REVERT JUMPDEST POP PUSH1 0x4 CALLDATASIZE LT PUSH2 0x41 JUMPI PUSH1 0x0 CALLDATALOAD PUSH1 0xE0 SHR DUP1 PUSH4 0x6FDDE03 EQ PUSH2 0x46 JUMPI DUP1 PUSH4 0x6CA7F3BA EQ PUSH2 0xC9 JUMPI DUP1 PUSH4 0xE3AC5D26 EQ PUSH2 0xF7 JUMPI JUMPDEST PUSH1 0x0 DUP1 REVERT JUMPDEST PUSH2 0x4E PUSH2 0x115 JUMP JUMPDEST PUSH1 0x40 MLOAD DUP1 DUP1 PUSH1 0x20 ADD DUP3 DUP2 SUB DUP3 MSTORE DUP4 DUP2 DUP2 MLOAD DUP2 MSTORE PUSH1 0x20 ADD SWAP2 POP DUP1 MLOAD SWAP1 PUSH1 0x20 ADD SWAP1 DUP1 DUP4 DUP4 PUSH1 0x0 JUMPDEST DUP4 DUP2 LT ISZERO PUSH2 0x8E JUMPI DUP1 DUP3 ADD MLOAD DUP2 DUP5 ADD MSTORE PUSH1 0x20 DUP2 ADD SWAP1 POP PUSH2 0x73 JUMP JUMPDEST POP POP POP POP SWAP1 POP SWAP1 DUP2 ADD SWAP1 PUSH1 0x1F AND DUP1 ISZERO PUSH2 0xBB JUMPI DUP1 DUP3 SUB DUP1 MLOAD PUSH1 0x1 DUP4 PUSH1 0x20 SUB PUSH2 0x100 EXP SUB NOT AND DUP2 MSTORE PUSH1 0x20 ADD SWAP2 POP JUMPDEST POP SWAP3 POP POP POP PUSH1 0x40 MLOAD DUP1 SWAP2 SUB SWAP1 RETURN JUMPDEST PUSH2 0xF5 PUSH1 0x4 DUP1 CALLDATASIZE SUB PUSH1 0x20 DUP2 LT ISZERO PUSH2 0xDF JUMPI PUSH1 0x0 DUP1 REVERT JUMPDEST DUP2 ADD SWAP1 DUP1 DUP1 CALLDATALOAD SWAP1 PUSH1 0x20 ADD SWAP1 SWAP3 SWAP2 SWAP1 POP POP POP PUSH2 0x1B3 JUMP JUMPDEST STOP JUMPDEST PUSH2 0xFF PUSH2 0x1BD JUMP JUMPDEST PUSH1 0x40 MLOAD DUP1 DUP3 DUP2 MSTORE PUSH1 0x20 ADD SWAP2 POP POP PUSH1 0x40 MLOAD DUP1 SWAP2 SUB SWAP1 RETURN JUMPDEST PUSH1 0x1 DUP1 SLOAD PUSH1 0x1 DUP2 PUSH1 0x1 AND ISZERO PUSH2 0x100 MUL SUB AND PUSH1 0x2 SWAP1 DIV DUP1 PUSH1 0x1F ADD PUSH1 0x20 DUP1 SWAP2 DIV MUL PUSH1 0x20 ADD PUSH1 0x40 MLOAD SWAP1 DUP2 ADD PUSH1 0x40 MSTORE DUP1 SWAP3 SWAP2 SWAP1 DUP2 DUP2 MSTORE PUSH1 0x20 ADD DUP3 DUP1 SLOAD PUSH1 0x1 DUP2 PUSH1 0x1 AND ISZERO PUSH2 0x100 MUL SUB AND PUSH1 0x2 SWAP1 DIV DUP1 ISZERO PUSH2 0x1AB JUMPI DUP1 PUSH1 0x1F LT PUSH2 0x180 JUMPI PUSH2 0x100 DUP1 DUP4 SLOAD DIV MUL DUP4 MSTORE SWAP2 PUSH1 0x20 ADD SWAP2 PUSH2 0x1AB JUMP JUMPDEST DUP3 ADD SWAP2 SWAP1 PUSH1 0x0 MSTORE PUSH1 0x20 PUSH1 0x0 KECCAK256 SWAP1 JUMPDEST DUP2 SLOAD DUP2 MSTORE SWAP1 PUSH1 0x1 ADD SWAP1 PUSH1 0x20 ADD DUP1 DUP4 GT PUSH2 0x18E JUMPI DUP3 SWAP1 SUB PUSH1 0x1F AND DUP3 ADD SWAP2 JUMPDEST POP POP POP POP POP DUP2 JUMP JUMPDEST DUP1 PUSH1 0x0 DUP2 SWAP1 SSTORE POP POP JUMP JUMPDEST PUSH1 0x0 SLOAD DUP2 JUMP INVALID LOG2 PUSH6 0x627A7A723158 KECCAK256 DUP4 DUP13 CODESIZE CALLCODE 0xDC 0xAF 0xA5 SHL SWAP15 0xE8 NOT 0xAD 0xD3 PUSH31 0x206F2B58CB2EAC58E16C8BD657B57F1216D864736F6C634300051100320000 "
		},
		"gasEstimates": {
			"creation": {
				"codeDepositCost": "100800",
				"executionCost": "infinite",
				"totalCost": "infinite"
			},
			"external": {
				"name()": "infinite",
				"prize()": "1027",
				"setPrize(uint256)": "20242"
			}
		},
		"methodIdentifiers": {
			"name()": "06fdde03",
			"prize()": "e3ac5d26",
			"setPrize(uint256)": "6ca7f3ba"
		}
	},
	"abi": [
		{
			"inputs": [
				{
					"internalType": "string",
					"name": "_name",
					"type": "string"
				},
				{
					"internalType": "uint256",
					"name": "_prize",
					"type": "uint256"
				}
			],
			"payable": false,
			"stateMutability": "nonpayable",
			"type": "constructor"
		},
		{
			"constant": true,
			"inputs": [],
			"name": "name",
			"outputs": [
				{
					"internalType": "string",
					"name": "",
					"type": "string"
				}
			],
			"payable": false,
			"stateMutability": "view",
			"type": "function"
		},
		{
			"constant": true,
			"inputs": [],
			"name": "prize",
			"outputs": [
				{
					"internalType": "uint256",
					"name": "",
					"type": "uint256"
				}
			],
			"payable": false,
			"stateMutability": "view",
			"type": "function"
		},
		{
			"constant": false,
			"inputs": [
				{
					"internalType": "uint256",
					"name": "amount",
					"type": "uint256"
				}
			],
			"name": "setPrize",
			"outputs": [],
			"payable": false,
			"stateMutability": "nonpayable",
			"type": "function"
		}
	]
}