{
	"shoot/摸底2/1/1.sol": {
		"Check": {
			"abi": [
				{
					"constant": true,
					"inputs": [],
					"name": "stu",
					"outputs": [
						{
							"name": "",
							"type": "address"
						}
					],
					"payable": false,
					"stateMutability": "view",
					"type": "function"
				},
				{
					"constant": false,
					"inputs": [],
					"name": "isComplete",
					"outputs": [],
					"payable": false,
					"stateMutability": "nonpayable",
					"type": "function"
				},
				{
					"constant": true,
					"inputs": [],
					"name": "score",
					"outputs": [
						{
							"name": "",
							"type": "uint256"
						}
					],
					"payable": false,
					"stateMutability": "view",
					"type": "function"
				},
				{
					"inputs": [],
					"payable": false,
					"stateMutability": "nonpayable",
					"type": "constructor"
				}
			],
			"devdoc": {
				"methods": {}
			},
			"evm": {
				"assembly": "    /* \"shoot/摸底2/1/1.sol\":2084:2753  contract Check {\r... */\n  mstore(0x40, 0x80)\n    /* \"shoot/摸底2/1/1.sol\":2162:2225  constructor() public {\r... */\n  callvalue\n    /* \"--CODEGEN--\":8:17   */\n  dup1\n    /* \"--CODEGEN--\":5:7   */\n  iszero\n  tag_1\n  jumpi\n    /* \"--CODEGEN--\":30:31   */\n  0x0\n    /* \"--CODEGEN--\":27:28   */\n  dup1\n    /* \"--CODEGEN--\":20:32   */\n  revert\n    /* \"--CODEGEN--\":5:7   */\ntag_1:\n    /* \"shoot/摸底2/1/1.sol\":2162:2225  constructor() public {\r... */\n  pop\n    /* \"shoot/摸底2/1/1.sol\":2200:2217  new StudentInfo() */\n  tag_4\n  jump\t// in(tag_5)\ntag_4:\n  mload(0x40)\n  dup1\n  swap2\n  sub\n  swap1\n  0x0\n  create\n  dup1\n  iszero\n    /* \"--CODEGEN--\":8:17   */\n  dup1\n    /* \"--CODEGEN--\":5:7   */\n  iszero\n  tag_6\n  jumpi\n    /* \"--CODEGEN--\":45:61   */\n  returndatasize\n    /* \"--CODEGEN--\":42:43   */\n  0x0\n    /* \"--CODEGEN--\":39:40   */\n  dup1\n    /* \"--CODEGEN--\":24:62   */\n  returndatacopy\n    /* \"--CODEGEN--\":77:93   */\n  returndatasize\n    /* \"--CODEGEN--\":74:75   */\n  0x0\n    /* \"--CODEGEN--\":67:94   */\n  revert\n    /* \"--CODEGEN--\":5:7   */\ntag_6:\n    /* \"shoot/摸底2/1/1.sol\":2200:2217  new StudentInfo() */\n  pop\n    /* \"shoot/摸底2/1/1.sol\":2194:2197  stu */\n  0x0\n  dup1\n    /* \"shoot/摸底2/1/1.sol\":2194:2217  stu = new StudentInfo() */\n  0x100\n  exp\n  dup2\n  sload\n  dup2\n  0xffffffffffffffffffffffffffffffffffffffff\n  mul\n  not\n  and\n  swap1\n  dup4\n  0xffffffffffffffffffffffffffffffffffffffff\n  and\n  mul\n  or\n  swap1\n  sstore\n  pop\n    /* \"shoot/摸底2/1/1.sol\":2084:2753  contract Check {\r... */\n  jump(tag_7)\ntag_5:\n  mload(0x40)\n  dataSize(sub_1)\n  dup1\n  dataOffset(sub_1)\n  dup4\n  codecopy\n  add\n  swap1\n  jump\t// out\ntag_7:\n  dataSize(sub_0)\n  dup1\n  dataOffset(sub_0)\n  0x0\n  codecopy\n  0x0\n  return\nstop\n\nsub_0: assembly {\n        /* \"shoot/摸底2/1/1.sol\":2084:2753  contract Check {\r... */\n      mstore(0x40, 0x80)\n      jumpi(tag_1, lt(calldatasize, 0x4))\n      calldataload(0x0)\n      0x100000000000000000000000000000000000000000000000000000000\n      swap1\n      div\n      0xffffffff\n      and\n      dup1\n      0x28fbf343\n      eq\n      tag_2\n      jumpi\n      dup1\n      0xb2fa1c9e\n      eq\n      tag_3\n      jumpi\n      dup1\n      0xefedc669\n      eq\n      tag_4\n      jumpi\n    tag_1:\n      0x0\n      dup1\n      revert\n        /* \"shoot/摸底2/1/1.sol\":2106:2128  StudentInfo public stu */\n    tag_2:\n      callvalue\n        /* \"--CODEGEN--\":8:17   */\n      dup1\n        /* \"--CODEGEN--\":5:7   */\n      iszero\n      tag_5\n      jumpi\n        /* \"--CODEGEN--\":30:31   */\n      0x0\n        /* \"--CODEGEN--\":27:28   */\n      dup1\n        /* \"--CODEGEN--\":20:32   */\n      revert\n        /* \"--CODEGEN--\":5:7   */\n    tag_5:\n        /* \"shoot/摸底2/1/1.sol\":2106:2128  StudentInfo public stu */\n      pop\n      tag_6\n      jump(tag_7)\n    tag_6:\n      mload(0x40)\n      dup1\n      dup3\n      0xffffffffffffffffffffffffffffffffffffffff\n      and\n      0xffffffffffffffffffffffffffffffffffffffff\n      and\n      dup2\n      mstore\n      0x20\n      add\n      swap2\n      pop\n      pop\n      mload(0x40)\n      dup1\n      swap2\n      sub\n      swap1\n      return\n        /* \"shoot/摸底2/1/1.sol\":2233:2543  function isComplete() public {\r... */\n    tag_3:\n      callvalue\n        /* \"--CODEGEN--\":8:17   */\n      dup1\n        /* \"--CODEGEN--\":5:7   */\n      iszero\n      tag_8\n      jumpi\n        /* \"--CODEGEN--\":30:31   */\n      0x0\n        /* \"--CODEGEN--\":27:28   */\n      dup1\n        /* \"--CODEGEN--\":20:32   */\n      revert\n        /* \"--CODEGEN--\":5:7   */\n    tag_8:\n        /* \"shoot/摸底2/1/1.sol\":2233:2543  function isComplete() public {\r... */\n      pop\n      tag_9\n      jump(tag_10)\n    tag_9:\n      stop\n        /* \"shoot/摸底2/1/1.sol\":2135:2155  uint256 public score */\n    tag_4:\n      callvalue\n        /* \"--CODEGEN--\":8:17   */\n      dup1\n        /* \"--CODEGEN--\":5:7   */\n      iszero\n      tag_11\n      jumpi\n        /* \"--CODEGEN--\":30:31   */\n      0x0\n        /* \"--CODEGEN--\":27:28   */\n      dup1\n        /* \"--CODEGEN--\":20:32   */\n      revert\n        /* \"--CODEGEN--\":5:7   */\n    tag_11:\n        /* \"shoot/摸底2/1/1.sol\":2135:2155  uint256 public score */\n      pop\n      tag_12\n      jump(tag_13)\n    tag_12:\n      mload(0x40)\n      dup1\n      dup3\n      dup2\n      mstore\n      0x20\n      add\n      swap2\n      pop\n      pop\n      mload(0x40)\n      dup1\n      swap2\n      sub\n      swap1\n      return\n        /* \"shoot/摸底2/1/1.sol\":2106:2128  StudentInfo public stu */\n    tag_7:\n      0x0\n      dup1\n      swap1\n      sload\n      swap1\n      0x100\n      exp\n      swap1\n      div\n      0xffffffffffffffffffffffffffffffffffffffff\n      and\n      dup2\n      jump\t// out\n        /* \"shoot/摸底2/1/1.sol\":2233:2543  function isComplete() public {\r... */\n    tag_10:\n        /* \"shoot/摸底2/1/1.sol\":2281:2282  0 */\n      0x0\n        /* \"shoot/摸底2/1/1.sol\":2273:2278  score */\n      0x1\n        /* \"shoot/摸底2/1/1.sol\":2273:2282  score = 0 */\n      dup2\n      swap1\n      sstore\n      pop\n        /* \"shoot/摸底2/1/1.sol\":2322:2326  true */\n      0x1\n        /* \"shoot/摸底2/1/1.sol\":2296:2326  isContract(msg.sender) == true */\n      iszero\n      iszero\n        /* \"shoot/摸底2/1/1.sol\":2296:2318  isContract(msg.sender) */\n      tag_15\n        /* \"shoot/摸底2/1/1.sol\":2307:2317  msg.sender */\n      caller\n        /* \"shoot/摸底2/1/1.sol\":2296:2306  isContract */\n      tag_16\n        /* \"shoot/摸底2/1/1.sol\":2296:2318  isContract(msg.sender) */\n      jump\t// in\n    tag_15:\n        /* \"shoot/摸底2/1/1.sol\":2296:2326  isContract(msg.sender) == true */\n      iszero\n      iszero\n      eq\n        /* \"shoot/摸底2/1/1.sol\":2293:2364  if(isContract(msg.sender) == true){\r... */\n      iszero\n      tag_17\n      jumpi\n        /* \"shoot/摸底2/1/1.sol\":2350:2352  25 */\n      0x19\n        /* \"shoot/摸底2/1/1.sol\":2342:2347  score */\n      0x1\n        /* \"shoot/摸底2/1/1.sol\":2342:2352  score = 25 */\n      dup2\n      swap1\n      sstore\n      pop\n        /* \"shoot/摸底2/1/1.sol\":2293:2364  if(isContract(msg.sender) == true){\r... */\n    tag_17:\n        /* \"shoot/摸底2/1/1.sol\":2395:2421  10000000000000000000000000 */\n      0x84595161401484a000000\n        /* \"shoot/摸底2/1/1.sol\":2377:2380  stu */\n      0x0\n      dup1\n      swap1\n      sload\n      swap1\n      0x100\n      exp\n      swap1\n      div\n      0xffffffffffffffffffffffffffffffffffffffff\n      and\n        /* \"shoot/摸底2/1/1.sol\":2377:2390  stu.getLength */\n      0xffffffffffffffffffffffffffffffffffffffff\n      and\n      0xbe1c766b\n        /* \"shoot/摸底2/1/1.sol\":2377:2392  stu.getLength() */\n      mload(0x40)\n      dup2\n      0xffffffff\n      and\n      0x100000000000000000000000000000000000000000000000000000000\n      mul\n      dup2\n      mstore\n      0x4\n      add\n      0x20\n      mload(0x40)\n      dup1\n      dup4\n      sub\n      dup2\n      0x0\n      dup8\n      dup1\n      extcodesize\n      iszero\n        /* \"--CODEGEN--\":8:17   */\n      dup1\n        /* \"--CODEGEN--\":5:7   */\n      iszero\n      tag_18\n      jumpi\n        /* \"--CODEGEN--\":30:31   */\n      0x0\n        /* \"--CODEGEN--\":27:28   */\n      dup1\n        /* \"--CODEGEN--\":20:32   */\n      revert\n        /* \"--CODEGEN--\":5:7   */\n    tag_18:\n        /* \"shoot/摸底2/1/1.sol\":2377:2392  stu.getLength() */\n      pop\n      gas\n      call\n      iszero\n        /* \"--CODEGEN--\":8:17   */\n      dup1\n        /* \"--CODEGEN--\":5:7   */\n      iszero\n      tag_19\n      jumpi\n        /* \"--CODEGEN--\":45:61   */\n      returndatasize\n        /* \"--CODEGEN--\":42:43   */\n      0x0\n        /* \"--CODEGEN--\":39:40   */\n      dup1\n        /* \"--CODEGEN--\":24:62   */\n      returndatacopy\n        /* \"--CODEGEN--\":77:93   */\n      returndatasize\n        /* \"--CODEGEN--\":74:75   */\n      0x0\n        /* \"--CODEGEN--\":67:94   */\n      revert\n        /* \"--CODEGEN--\":5:7   */\n    tag_19:\n        /* \"shoot/摸底2/1/1.sol\":2377:2392  stu.getLength() */\n      pop\n      pop\n      pop\n      pop\n      mload(0x40)\n      returndatasize\n        /* \"--CODEGEN--\":13:15   */\n      0x20\n        /* \"--CODEGEN--\":8:11   */\n      dup2\n        /* \"--CODEGEN--\":5:16   */\n      lt\n        /* \"--CODEGEN--\":2:4   */\n      iszero\n      tag_20\n      jumpi\n        /* \"--CODEGEN--\":29:30   */\n      0x0\n        /* \"--CODEGEN--\":26:27   */\n      dup1\n        /* \"--CODEGEN--\":19:31   */\n      revert\n        /* \"--CODEGEN--\":2:4   */\n    tag_20:\n        /* \"shoot/摸底2/1/1.sol\":2377:2392  stu.getLength() */\n      dup2\n      add\n      swap1\n      dup1\n      dup1\n      mload\n      swap1\n      0x20\n      add\n      swap1\n      swap3\n      swap2\n      swap1\n      pop\n      pop\n      pop\n        /* \"shoot/摸底2/1/1.sol\":2377:2421  stu.getLength() > 10000000000000000000000000 */\n      gt\n        /* \"shoot/摸底2/1/1.sol\":2374:2459  if(stu.getLength() > 10000000000000000000000000){\r... */\n      iszero\n      tag_21\n      jumpi\n        /* \"shoot/摸底2/1/1.sol\":2445:2447  50 */\n      0x32\n        /* \"shoot/摸底2/1/1.sol\":2437:2442  score */\n      0x1\n        /* \"shoot/摸底2/1/1.sol\":2437:2447  score = 50 */\n      dup2\n      swap1\n      sstore\n      pop\n        /* \"shoot/摸底2/1/1.sol\":2374:2459  if(stu.getLength() > 10000000000000000000000000){\r... */\n    tag_21:\n        /* \"shoot/摸底2/1/1.sol\":2487:2497  msg.sender */\n      caller\n        /* \"shoot/摸底2/1/1.sol\":2472:2497  stu.owner() == msg.sender */\n      0xffffffffffffffffffffffffffffffffffffffff\n      and\n        /* \"shoot/摸底2/1/1.sol\":2472:2475  stu */\n      0x0\n      dup1\n      swap1\n      sload\n      swap1\n      0x100\n      exp\n      swap1\n      div\n      0xffffffffffffffffffffffffffffffffffffffff\n      and\n        /* \"shoot/摸底2/1/1.sol\":2472:2481  stu.owner */\n      0xffffffffffffffffffffffffffffffffffffffff\n      and\n      0x8da5cb5b\n        /* \"shoot/摸底2/1/1.sol\":2472:2483  stu.owner() */\n      mload(0x40)\n      dup2\n      0xffffffff\n      and\n      0x100000000000000000000000000000000000000000000000000000000\n      mul\n      dup2\n      mstore\n      0x4\n      add\n      0x20\n      mload(0x40)\n      dup1\n      dup4\n      sub\n      dup2\n      0x0\n      dup8\n      dup1\n      extcodesize\n      iszero\n        /* \"--CODEGEN--\":8:17   */\n      dup1\n        /* \"--CODEGEN--\":5:7   */\n      iszero\n      tag_22\n      jumpi\n        /* \"--CODEGEN--\":30:31   */\n      0x0\n        /* \"--CODEGEN--\":27:28   */\n      dup1\n        /* \"--CODEGEN--\":20:32   */\n      revert\n        /* \"--CODEGEN--\":5:7   */\n    tag_22:\n        /* \"shoot/摸底2/1/1.sol\":2472:2483  stu.owner() */\n      pop\n      gas\n      call\n      iszero\n        /* \"--CODEGEN--\":8:17   */\n      dup1\n        /* \"--CODEGEN--\":5:7   */\n      iszero\n      tag_23\n      jumpi\n        /* \"--CODEGEN--\":45:61   */\n      returndatasize\n        /* \"--CODEGEN--\":42:43   */\n      0x0\n        /* \"--CODEGEN--\":39:40   */\n      dup1\n        /* \"--CODEGEN--\":24:62   */\n      returndatacopy\n        /* \"--CODEGEN--\":77:93   */\n      returndatasize\n        /* \"--CODEGEN--\":74:75   */\n      0x0\n        /* \"--CODEGEN--\":67:94   */\n      revert\n        /* \"--CODEGEN--\":5:7   */\n    tag_23:\n        /* \"shoot/摸底2/1/1.sol\":2472:2483  stu.owner() */\n      pop\n      pop\n      pop\n      pop\n      mload(0x40)\n      returndatasize\n        /* \"--CODEGEN--\":13:15   */\n      0x20\n        /* \"--CODEGEN--\":8:11   */\n      dup2\n        /* \"--CODEGEN--\":5:16   */\n      lt\n        /* \"--CODEGEN--\":2:4   */\n      iszero\n      tag_24\n      jumpi\n        /* \"--CODEGEN--\":29:30   */\n      0x0\n        /* \"--CODEGEN--\":26:27   */\n      dup1\n        /* \"--CODEGEN--\":19:31   */\n      revert\n        /* \"--CODEGEN--\":2:4   */\n    tag_24:\n        /* \"shoot/摸底2/1/1.sol\":2472:2483  stu.owner() */\n      dup2\n      add\n      swap1\n      dup1\n      dup1\n      mload\n      swap1\n      0x20\n      add\n      swap1\n      swap3\n      swap2\n      swap1\n      pop\n      pop\n      pop\n        /* \"shoot/摸底2/1/1.sol\":2472:2497  stu.owner() == msg.sender */\n      0xffffffffffffffffffffffffffffffffffffffff\n      and\n      eq\n        /* \"shoot/摸底2/1/1.sol\":2469:2536  if(stu.owner() == msg.sender){\r... */\n      iszero\n      tag_25\n      jumpi\n        /* \"shoot/摸底2/1/1.sol\":2521:2524  100 */\n      0x64\n        /* \"shoot/摸底2/1/1.sol\":2513:2518  score */\n      0x1\n        /* \"shoot/摸底2/1/1.sol\":2513:2524  score = 100 */\n      dup2\n      swap1\n      sstore\n      pop\n        /* \"shoot/摸底2/1/1.sol\":2469:2536  if(stu.owner() == msg.sender){\r... */\n    tag_25:\n        /* \"shoot/摸底2/1/1.sol\":2233:2543  function isComplete() public {\r... */\n      jump\t// out\n        /* \"shoot/摸底2/1/1.sol\":2135:2155  uint256 public score */\n    tag_13:\n      sload(0x1)\n      dup2\n      jump\t// out\n        /* \"shoot/摸底2/1/1.sol\":2586:2750  function isContract(address addr) private view returns (bool) {\r... */\n    tag_16:\n        /* \"shoot/摸底2/1/1.sol\":2642:2646  bool */\n      0x0\n        /* \"shoot/摸底2/1/1.sol\":2659:2668  uint size */\n      dup1\n        /* \"shoot/摸底2/1/1.sol\":2710:2714  addr */\n      dup3\n        /* \"shoot/摸底2/1/1.sol\":2698:2715  extcodesize(addr) */\n      extcodesize\n        /* \"shoot/摸底2/1/1.sol\":2690:2715  size := extcodesize(addr) */\n      swap1\n      pop\n        /* \"shoot/摸底2/1/1.sol\":2741:2742  0 */\n      0x0\n        /* \"shoot/摸底2/1/1.sol\":2734:2738  size */\n      dup2\n        /* \"shoot/摸底2/1/1.sol\":2734:2742  size > 0 */\n      gt\n        /* \"shoot/摸底2/1/1.sol\":2727:2742  return size > 0 */\n      swap2\n      pop\n        /* \"shoot/摸底2/1/1.sol\":2586:2750  function isContract(address addr) private view returns (bool) {\r... */\n      pop\n      swap2\n      swap1\n      pop\n      jump\t// out\n\n    auxdata: 0xa165627a7a72305820d7d46e13e055085405f0c61d00a03d490a1f60b4832d30c2bc2a5afd079f6d1b0029\n}\n\nsub_1: assembly {\n        /* \"shoot/摸底2/1/1.sol\":177:1318  contract StudentInfo {\r... */\n      mstore(0x40, 0x80)\n        /* \"shoot/摸底2/1/1.sol\":466:498  constructor () public {\r... */\n      callvalue\n        /* \"--CODEGEN--\":8:17   */\n      dup1\n        /* \"--CODEGEN--\":5:7   */\n      iszero\n      tag_1\n      jumpi\n        /* \"--CODEGEN--\":30:31   */\n      0x0\n        /* \"--CODEGEN--\":27:28   */\n      dup1\n        /* \"--CODEGEN--\":20:32   */\n      revert\n        /* \"--CODEGEN--\":5:7   */\n    tag_1:\n        /* \"shoot/摸底2/1/1.sol\":466:498  constructor () public {\r... */\n      pop\n        /* \"shoot/摸底2/1/1.sol\":177:1318  contract StudentInfo {\r... */\n      dataSize(sub_0)\n      dup1\n      dataOffset(sub_0)\n      0x0\n      codecopy\n      0x0\n      return\n    stop\n\n    sub_0: assembly {\n            /* \"shoot/摸底2/1/1.sol\":177:1318  contract StudentInfo {\r... */\n          mstore(0x40, 0x80)\n          jumpi(tag_1, lt(calldatasize, 0x4))\n          calldataload(0x0)\n          0x100000000000000000000000000000000000000000000000000000000\n          swap1\n          div\n          0xffffffff\n          and\n          dup1\n          0x4c2b17a0\n          eq\n          tag_2\n          jumpi\n          dup1\n          0x83f7e2d7\n          eq\n          tag_3\n          jumpi\n          dup1\n          0x890eba68\n          eq\n          tag_4\n          jumpi\n          dup1\n          0x8da5cb5b\n          eq\n          tag_5\n          jumpi\n          dup1\n          0xbe1c766b\n          eq\n          tag_6\n          jumpi\n          dup1\n          0xedb70f8c\n          eq\n          tag_7\n          jumpi\n          dup1\n          0xefedc669\n          eq\n          tag_8\n          jumpi\n          dup1\n          0xf19a3f44\n          eq\n          tag_9\n          jumpi\n        tag_1:\n          0x0\n          dup1\n          revert\n            /* \"shoot/摸底2/1/1.sol\":1115:1208  function revise(uint i, uint256 _content) public {\r... */\n        tag_2:\n          callvalue\n            /* \"--CODEGEN--\":8:17   */\n          dup1\n            /* \"--CODEGEN--\":5:7   */\n          iszero\n          tag_10\n          jumpi\n            /* \"--CODEGEN--\":30:31   */\n          0x0\n            /* \"--CODEGEN--\":27:28   */\n          dup1\n            /* \"--CODEGEN--\":20:32   */\n          revert\n            /* \"--CODEGEN--\":5:7   */\n        tag_10:\n            /* \"shoot/摸底2/1/1.sol\":1115:1208  function revise(uint i, uint256 _content) public {\r... */\n          pop\n          tag_11\n          0x4\n          dup1\n          calldatasize\n          sub\n          dup2\n          add\n          swap1\n          dup1\n          dup1\n          calldataload\n          swap1\n          0x20\n          add\n          swap1\n          swap3\n          swap2\n          swap1\n          dup1\n          calldataload\n          swap1\n          0x20\n          add\n          swap1\n          swap3\n          swap2\n          swap1\n          pop\n          pop\n          pop\n          jump(tag_12)\n        tag_11:\n          stop\n            /* \"shoot/摸底2/1/1.sol\":506:888  function reduce(uint256 index) public {\r... */\n        tag_3:\n          callvalue\n            /* \"--CODEGEN--\":8:17   */\n          dup1\n            /* \"--CODEGEN--\":5:7   */\n          iszero\n          tag_13\n          jumpi\n            /* \"--CODEGEN--\":30:31   */\n          0x0\n            /* \"--CODEGEN--\":27:28   */\n          dup1\n            /* \"--CODEGEN--\":20:32   */\n          revert\n            /* \"--CODEGEN--\":5:7   */\n        tag_13:\n            /* \"shoot/摸底2/1/1.sol\":506:888  function reduce(uint256 index) public {\r... */\n          pop\n          tag_14\n          0x4\n          dup1\n          calldatasize\n          sub\n          dup2\n          add\n          swap1\n          dup1\n          dup1\n          calldataload\n          swap1\n          0x20\n          add\n          swap1\n          swap3\n          swap2\n          swap1\n          pop\n          pop\n          pop\n          jump(tag_15)\n        tag_14:\n          stop\n            /* \"shoot/摸底2/1/1.sol\":270:289  uint256 public flag */\n        tag_4:\n          callvalue\n            /* \"--CODEGEN--\":8:17   */\n          dup1\n            /* \"--CODEGEN--\":5:7   */\n          iszero\n          tag_16\n          jumpi\n            /* \"--CODEGEN--\":30:31   */\n          0x0\n            /* \"--CODEGEN--\":27:28   */\n          dup1\n            /* \"--CODEGEN--\":20:32   */\n          revert\n            /* \"--CODEGEN--\":5:7   */\n        tag_16:\n            /* \"shoot/摸底2/1/1.sol\":270:289  uint256 public flag */\n          pop\n          tag_17\n          jump(tag_18)\n        tag_17:\n          mload(0x40)\n          dup1\n          dup3\n          dup2\n          mstore\n          0x20\n          add\n          swap2\n          pop\n          pop\n          mload(0x40)\n          dup1\n          swap2\n          sub\n          swap1\n          return\n            /* \"shoot/摸底2/1/1.sol\":205:225  address public owner */\n        tag_5:\n          callvalue\n            /* \"--CODEGEN--\":8:17   */\n          dup1\n            /* \"--CODEGEN--\":5:7   */\n          iszero\n          tag_19\n          jumpi\n            /* \"--CODEGEN--\":30:31   */\n          0x0\n            /* \"--CODEGEN--\":27:28   */\n          dup1\n            /* \"--CODEGEN--\":20:32   */\n          revert\n            /* \"--CODEGEN--\":5:7   */\n        tag_19:\n            /* \"shoot/摸底2/1/1.sol\":205:225  address public owner */\n          pop\n          tag_20\n          jump(tag_21)\n        tag_20:\n          mload(0x40)\n          dup1\n          dup3\n          0xffffffffffffffffffffffffffffffffffffffff\n          and\n          0xffffffffffffffffffffffffffffffffffffffff\n          and\n          dup2\n          mstore\n          0x20\n          add\n          swap2\n          pop\n          pop\n          mload(0x40)\n          dup1\n          swap2\n          sub\n          swap1\n          return\n            /* \"shoot/摸底2/1/1.sol\":1220:1309  function getLength() public returns(uint256) {\r... */\n        tag_6:\n          callvalue\n            /* \"--CODEGEN--\":8:17   */\n          dup1\n            /* \"--CODEGEN--\":5:7   */\n          iszero\n          tag_22\n          jumpi\n            /* \"--CODEGEN--\":30:31   */\n          0x0\n            /* \"--CODEGEN--\":27:28   */\n          dup1\n            /* \"--CODEGEN--\":20:32   */\n          revert\n            /* \"--CODEGEN--\":5:7   */\n        tag_22:\n            /* \"shoot/摸底2/1/1.sol\":1220:1309  function getLength() public returns(uint256) {\r... */\n          pop\n          tag_23\n          jump(tag_24)\n        tag_23:\n          mload(0x40)\n          dup1\n          dup3\n          dup2\n          mstore\n          0x20\n          add\n          swap2\n          pop\n          pop\n          mload(0x40)\n          dup1\n          swap2\n          sub\n          swap1\n          return\n            /* \"shoot/摸底2/1/1.sol\":235:260  uint[] public students_Id */\n        tag_7:\n          callvalue\n            /* \"--CODEGEN--\":8:17   */\n          dup1\n            /* \"--CODEGEN--\":5:7   */\n          iszero\n          tag_25\n          jumpi\n            /* \"--CODEGEN--\":30:31   */\n          0x0\n            /* \"--CODEGEN--\":27:28   */\n          dup1\n            /* \"--CODEGEN--\":20:32   */\n          revert\n            /* \"--CODEGEN--\":5:7   */\n        tag_25:\n            /* \"shoot/摸底2/1/1.sol\":235:260  uint[] public students_Id */\n          pop\n          tag_26\n          0x4\n          dup1\n          calldatasize\n          sub\n          dup2\n          add\n          swap1\n          dup1\n          dup1\n          calldataload\n          swap1\n          0x20\n          add\n          swap1\n          swap3\n          swap2\n          swap1\n          pop\n          pop\n          pop\n          jump(tag_27)\n        tag_26:\n          mload(0x40)\n          dup1\n          dup3\n          dup2\n          mstore\n          0x20\n          add\n          swap2\n          pop\n          pop\n          mload(0x40)\n          dup1\n          swap2\n          sub\n          swap1\n          return\n            /* \"shoot/摸底2/1/1.sol\":437:457  uint256 public score */\n        tag_8:\n          callvalue\n            /* \"--CODEGEN--\":8:17   */\n          dup1\n            /* \"--CODEGEN--\":5:7   */\n          iszero\n          tag_28\n          jumpi\n            /* \"--CODEGEN--\":30:31   */\n          0x0\n            /* \"--CODEGEN--\":27:28   */\n          dup1\n            /* \"--CODEGEN--\":20:32   */\n          revert\n            /* \"--CODEGEN--\":5:7   */\n        tag_28:\n            /* \"shoot/摸底2/1/1.sol\":437:457  uint256 public score */\n          pop\n          tag_29\n          jump(tag_30)\n        tag_29:\n          mload(0x40)\n          dup1\n          dup3\n          dup2\n          mstore\n          0x20\n          add\n          swap2\n          pop\n          pop\n          mload(0x40)\n          dup1\n          swap2\n          sub\n          swap1\n          return\n            /* \"shoot/摸底2/1/1.sol\":896:1107  function increase(string name, uint8 old, uint8 grade) public {\r... */\n        tag_9:\n          callvalue\n            /* \"--CODEGEN--\":8:17   */\n          dup1\n            /* \"--CODEGEN--\":5:7   */\n          iszero\n          tag_31\n          jumpi\n            /* \"--CODEGEN--\":30:31   */\n          0x0\n            /* \"--CODEGEN--\":27:28   */\n          dup1\n            /* \"--CODEGEN--\":20:32   */\n          revert\n            /* \"--CODEGEN--\":5:7   */\n        tag_31:\n            /* \"shoot/摸底2/1/1.sol\":896:1107  function increase(string name, uint8 old, uint8 grade) public {\r... */\n          pop\n          tag_32\n          0x4\n          dup1\n          calldatasize\n          sub\n          dup2\n          add\n          swap1\n          dup1\n          dup1\n          calldataload\n          swap1\n          0x20\n          add\n          swap1\n          dup3\n          add\n          dup1\n          calldataload\n          swap1\n          0x20\n          add\n          swap1\n          dup1\n          dup1\n          0x1f\n          add\n          0x20\n          dup1\n          swap2\n          div\n          mul\n          0x20\n          add\n          mload(0x40)\n          swap1\n          dup2\n          add\n          0x40\n          mstore\n          dup1\n          swap4\n          swap3\n          swap2\n          swap1\n          dup2\n          dup2\n          mstore\n          0x20\n          add\n          dup4\n          dup4\n          dup1\n          dup3\n          dup5\n          calldatacopy\n          dup3\n          add\n          swap2\n          pop\n          pop\n          pop\n          pop\n          pop\n          pop\n          swap2\n          swap3\n          swap2\n          swap3\n          swap1\n          dup1\n          calldataload\n          0xff\n          and\n          swap1\n          0x20\n          add\n          swap1\n          swap3\n          swap2\n          swap1\n          dup1\n          calldataload\n          0xff\n          and\n          swap1\n          0x20\n          add\n          swap1\n          swap3\n          swap2\n          swap1\n          pop\n          pop\n          pop\n          jump(tag_33)\n        tag_32:\n          stop\n            /* \"shoot/摸底2/1/1.sol\":1115:1208  function revise(uint i, uint256 _content) public {\r... */\n        tag_12:\n            /* \"shoot/摸底2/1/1.sol\":1192:1200  _content */\n          dup1\n            /* \"shoot/摸底2/1/1.sol\":1175:1186  students_Id */\n          0x1\n            /* \"shoot/摸底2/1/1.sol\":1187:1188  i */\n          dup4\n            /* \"shoot/摸底2/1/1.sol\":1175:1189  students_Id[i] */\n          dup2\n          sload\n          dup2\n          lt\n          iszero\n          iszero\n          tag_35\n          jumpi\n          invalid\n        tag_35:\n          swap1\n          0x0\n          mstore\n          keccak256(0x0, 0x20)\n          add\n            /* \"shoot/摸底2/1/1.sol\":1175:1200  students_Id[i] = _content */\n          dup2\n          swap1\n          sstore\n          pop\n            /* \"shoot/摸底2/1/1.sol\":1115:1208  function revise(uint i, uint256 _content) public {\r... */\n          pop\n          pop\n          jump\t// out\n            /* \"shoot/摸底2/1/1.sol\":506:888  function reduce(uint256 index) public {\r... */\n        tag_15:\n            /* \"shoot/摸底2/1/1.sol\":596:606  uint256 id */\n          0x0\n            /* \"shoot/摸底2/1/1.sol\":696:705  uint temp */\n          dup1\n            /* \"shoot/摸底2/1/1.sol\":579:580  0 */\n          0x0\n            /* \"shoot/摸底2/1/1.sol\":558:569  students_Id */\n          0x1\n            /* \"shoot/摸底2/1/1.sol\":558:576  students_Id.length */\n          dup1\n          sload\n          swap1\n          pop\n            /* \"shoot/摸底2/1/1.sol\":558:580  students_Id.length > 0 */\n          gt\n            /* \"shoot/摸底2/1/1.sol\":555:850  if(students_Id.length > 0){\r... */\n          iszero\n          tag_38\n          jumpi\n            /* \"shoot/摸底2/1/1.sol\":609:620  students_Id */\n          0x1\n            /* \"shoot/摸底2/1/1.sol\":621:626  index */\n          dup4\n            /* \"shoot/摸底2/1/1.sol\":609:627  students_Id[index] */\n          dup2\n          sload\n          dup2\n          lt\n          iszero\n          iszero\n          tag_39\n          jumpi\n          invalid\n        tag_39:\n          swap1\n          0x0\n          mstore\n          keccak256(0x0, 0x20)\n          add\n          sload\n            /* \"shoot/摸底2/1/1.sol\":596:627  uint256 id = students_Id[index] */\n          swap2\n          pop\n            /* \"shoot/摸底2/1/1.sol\":649:657  students */\n          0x3\n            /* \"shoot/摸底2/1/1.sol\":649:661  students[id] */\n          0x0\n            /* \"shoot/摸底2/1/1.sol\":658:660  id */\n          dup4\n            /* \"shoot/摸底2/1/1.sol\":649:661  students[id] */\n          dup2\n          mstore\n          0x20\n          add\n          swap1\n          dup2\n          mstore\n          0x20\n          add\n          0x0\n          keccak256\n          0x0\n            /* \"shoot/摸底2/1/1.sol\":642:661  delete students[id] */\n          dup1\n          dup3\n          add\n          0x0\n          tag_41\n          swap2\n          swap1\n          jump\t// in(tag_42)\n        tag_41:\n          0x1\n          dup3\n          add\n          exp(0x100, 0x0)\n          dup2\n          sload\n          swap1\n          0xff\n          mul\n          not\n          and\n          swap1\n          sstore\n          0x1\n          dup3\n          add\n          exp(0x100, 0x1)\n          dup2\n          sload\n          swap1\n          0xff\n          mul\n          not\n          and\n          swap1\n          sstore\n          pop\n          pop\n            /* \"shoot/摸底2/1/1.sol\":708:719  students_Id */\n          0x1\n            /* \"shoot/摸底2/1/1.sol\":741:742  1 */\n          dup1\n            /* \"shoot/摸底2/1/1.sol\":720:731  students_Id */\n          dup1\n            /* \"shoot/摸底2/1/1.sol\":720:738  students_Id.length */\n          dup1\n          sload\n          swap1\n          pop\n            /* \"shoot/摸底2/1/1.sol\":720:742  students_Id.length - 1 */\n          sub\n            /* \"shoot/摸底2/1/1.sol\":708:743  students_Id[students_Id.length - 1] */\n          dup2\n          sload\n          dup2\n          lt\n          iszero\n          iszero\n          tag_43\n          jumpi\n          invalid\n        tag_43:\n          swap1\n          0x0\n          mstore\n          keccak256(0x0, 0x20)\n          add\n          sload\n            /* \"shoot/摸底2/1/1.sol\":696:743  uint temp = students_Id[students_Id.length - 1] */\n          swap1\n          pop\n            /* \"shoot/摸底2/1/1.sol\":796:798  id */\n          dup2\n            /* \"shoot/摸底2/1/1.sol\":758:769  students_Id */\n          0x1\n            /* \"shoot/摸底2/1/1.sol\":791:792  1 */\n          dup1\n            /* \"shoot/摸底2/1/1.sol\":770:781  students_Id */\n          dup1\n            /* \"shoot/摸底2/1/1.sol\":770:788  students_Id.length */\n          dup1\n          sload\n          swap1\n          pop\n            /* \"shoot/摸底2/1/1.sol\":770:792  students_Id.length - 1 */\n          sub\n            /* \"shoot/摸底2/1/1.sol\":758:793  students_Id[students_Id.length - 1] */\n          dup2\n          sload\n          dup2\n          lt\n          iszero\n          iszero\n          tag_45\n          jumpi\n          invalid\n        tag_45:\n          swap1\n          0x0\n          mstore\n          keccak256(0x0, 0x20)\n          add\n            /* \"shoot/摸底2/1/1.sol\":758:798  students_Id[students_Id.length - 1] = id */\n          dup2\n          swap1\n          sstore\n          pop\n            /* \"shoot/摸底2/1/1.sol\":834:838  temp */\n          dup1\n            /* \"shoot/摸底2/1/1.sol\":813:824  students_Id */\n          0x1\n            /* \"shoot/摸底2/1/1.sol\":825:830  index */\n          dup5\n            /* \"shoot/摸底2/1/1.sol\":813:831  students_Id[index] */\n          dup2\n          sload\n          dup2\n          lt\n          iszero\n          iszero\n          tag_47\n          jumpi\n          invalid\n        tag_47:\n          swap1\n          0x0\n          mstore\n          keccak256(0x0, 0x20)\n          add\n            /* \"shoot/摸底2/1/1.sol\":813:838  students_Id[index] = temp */\n          dup2\n          swap1\n          sstore\n          pop\n            /* \"shoot/摸底2/1/1.sol\":555:850  if(students_Id.length > 0){\r... */\n        tag_38:\n            /* \"shoot/摸底2/1/1.sol\":860:871  students_Id */\n          0x1\n            /* \"shoot/摸底2/1/1.sol\":860:880  students_Id.length-- */\n          dup1\n          sload\n          dup1\n          swap2\n          swap1\n          0x1\n          swap1\n          sub\n          tag_49\n          swap2\n          swap1\n          jump\t// in(tag_50)\n        tag_49:\n          pop\n            /* \"shoot/摸底2/1/1.sol\":506:888  function reduce(uint256 index) public {\r... */\n          pop\n          pop\n          pop\n          jump\t// out\n            /* \"shoot/摸底2/1/1.sol\":270:289  uint256 public flag */\n        tag_18:\n          sload(0x2)\n          dup2\n          jump\t// out\n            /* \"shoot/摸底2/1/1.sol\":205:225  address public owner */\n        tag_21:\n          0x0\n          dup1\n          swap1\n          sload\n          swap1\n          0x100\n          exp\n          swap1\n          div\n          0xffffffffffffffffffffffffffffffffffffffff\n          and\n          dup2\n          jump\t// out\n            /* \"shoot/摸底2/1/1.sol\":1220:1309  function getLength() public returns(uint256) {\r... */\n        tag_24:\n            /* \"shoot/摸底2/1/1.sol\":1256:1263  uint256 */\n          0x0\n            /* \"shoot/摸底2/1/1.sol\":1283:1294  students_Id */\n          0x1\n            /* \"shoot/摸底2/1/1.sol\":1283:1301  students_Id.length */\n          dup1\n          sload\n          swap1\n          pop\n            /* \"shoot/摸底2/1/1.sol\":1276:1301  return students_Id.length */\n          swap1\n          pop\n            /* \"shoot/摸底2/1/1.sol\":1220:1309  function getLength() public returns(uint256) {\r... */\n          swap1\n          jump\t// out\n            /* \"shoot/摸底2/1/1.sol\":235:260  uint[] public students_Id */\n        tag_27:\n          0x1\n          dup2\n          dup2\n          sload\n          dup2\n          lt\n          iszero\n          iszero\n          tag_52\n          jumpi\n          invalid\n        tag_52:\n          swap1\n          0x0\n          mstore\n          keccak256(0x0, 0x20)\n          add\n          0x0\n          swap2\n          pop\n          swap1\n          pop\n          sload\n          dup2\n          jump\t// out\n            /* \"shoot/摸底2/1/1.sol\":437:457  uint256 public score */\n        tag_30:\n          sload(0x4)\n          dup2\n          jump\t// out\n            /* \"shoot/摸底2/1/1.sol\":896:1107  function increase(string name, uint8 old, uint8 grade) public {\r... */\n        tag_33:\n            /* \"shoot/摸底2/1/1.sol\":1000:1010  uint256 id */\n          0x0\n            /* \"shoot/摸底2/1/1.sol\":969:980  students_Id */\n          0x1\n            /* \"shoot/摸底2/1/1.sol\":969:989  students_Id.length++ */\n          dup1\n          sload\n          dup1\n          swap2\n          swap1\n          0x1\n          add\n          tag_55\n          swap2\n          swap1\n          jump\t// in(tag_50)\n        tag_55:\n          pop\n            /* \"shoot/摸底2/1/1.sol\":1013:1024  students_Id */\n          0x1\n            /* \"shoot/摸底2/1/1.sol\":1046:1047  1 */\n          dup1\n            /* \"shoot/摸底2/1/1.sol\":1025:1036  students_Id */\n          dup1\n            /* \"shoot/摸底2/1/1.sol\":1025:1043  students_Id.length */\n          dup1\n          sload\n          swap1\n          pop\n            /* \"shoot/摸底2/1/1.sol\":1025:1047  students_Id.length - 1 */\n          sub\n            /* \"shoot/摸底2/1/1.sol\":1013:1048  students_Id[students_Id.length - 1] */\n          dup2\n          sload\n          dup2\n          lt\n          iszero\n          iszero\n          tag_56\n          jumpi\n          invalid\n        tag_56:\n          swap1\n          0x0\n          mstore\n          keccak256(0x0, 0x20)\n          add\n          sload\n            /* \"shoot/摸底2/1/1.sol\":1000:1048  uint256 id = students_Id[students_Id.length - 1] */\n          swap1\n          pop\n            /* \"shoot/摸底2/1/1.sol\":1074:1099  Student(name, old, grade) */\n          0x60\n          mload(0x40)\n          swap1\n          dup2\n          add\n          0x40\n          mstore\n          dup1\n            /* \"shoot/摸底2/1/1.sol\":1082:1086  name */\n          dup6\n            /* \"shoot/摸底2/1/1.sol\":1074:1099  Student(name, old, grade) */\n          dup2\n          mstore\n          0x20\n          add\n            /* \"shoot/摸底2/1/1.sol\":1088:1091  old */\n          dup5\n            /* \"shoot/摸底2/1/1.sol\":1074:1099  Student(name, old, grade) */\n          0xff\n          and\n          dup2\n          mstore\n          0x20\n          add\n            /* \"shoot/摸底2/1/1.sol\":1093:1098  grade */\n          dup4\n            /* \"shoot/摸底2/1/1.sol\":1074:1099  Student(name, old, grade) */\n          0xff\n          and\n          dup2\n          mstore\n          pop\n            /* \"shoot/摸底2/1/1.sol\":1059:1067  students */\n          0x3\n            /* \"shoot/摸底2/1/1.sol\":1059:1071  students[id] */\n          0x0\n            /* \"shoot/摸底2/1/1.sol\":1068:1070  id */\n          dup4\n            /* \"shoot/摸底2/1/1.sol\":1059:1071  students[id] */\n          dup2\n          mstore\n          0x20\n          add\n          swap1\n          dup2\n          mstore\n          0x20\n          add\n          0x0\n          keccak256\n            /* \"shoot/摸底2/1/1.sol\":1059:1099  students[id] = Student(name, old, grade) */\n          0x0\n          dup3\n          add\n          mload\n          dup2\n          0x0\n          add\n          swap1\n          dup1\n          mload\n          swap1\n          0x20\n          add\n          swap1\n          tag_58\n          swap3\n          swap2\n          swap1\n          jump\t// in(tag_59)\n        tag_58:\n          pop\n          0x20\n          dup3\n          add\n          mload\n          dup2\n          0x1\n          add\n          exp(0x100, 0x0)\n          dup2\n          sload\n          dup2\n          0xff\n          mul\n          not\n          and\n          swap1\n          dup4\n          0xff\n          and\n          mul\n          or\n          swap1\n          sstore\n          pop\n          0x40\n          dup3\n          add\n          mload\n          dup2\n          0x1\n          add\n          exp(0x100, 0x1)\n          dup2\n          sload\n          dup2\n          0xff\n          mul\n          not\n          and\n          swap1\n          dup4\n          0xff\n          and\n          mul\n          or\n          swap1\n          sstore\n          pop\n          swap1\n          pop\n          pop\n            /* \"shoot/摸底2/1/1.sol\":896:1107  function increase(string name, uint8 old, uint8 grade) public {\r... */\n          pop\n          pop\n          pop\n          pop\n          jump\t// out\n            /* \"shoot/摸底2/1/1.sol\":177:1318  contract StudentInfo {\r... */\n        tag_42:\n          pop\n          dup1\n          sload\n          0x1\n          dup2\n          0x1\n          and\n          iszero\n          0x100\n          mul\n          sub\n          and\n          0x2\n          swap1\n          div\n          0x0\n          dup3\n          sstore\n          dup1\n          0x1f\n          lt\n          tag_61\n          jumpi\n          pop\n          jump(tag_60)\n        tag_61:\n          0x1f\n          add\n          0x20\n          swap1\n          div\n          swap1\n          0x0\n          mstore\n          keccak256(0x0, 0x20)\n          swap1\n          dup2\n          add\n          swap1\n          tag_62\n          swap2\n          swap1\n          jump\t// in(tag_63)\n        tag_62:\n        tag_60:\n          pop\n          jump\t// out\n        tag_50:\n          dup2\n          sload\n          dup2\n          dup4\n          sstore\n          dup2\n          dup2\n          gt\n          iszero\n          tag_64\n          jumpi\n          dup2\n          dup4\n          0x0\n          mstore\n          keccak256(0x0, 0x20)\n          swap2\n          dup3\n          add\n          swap2\n          add\n          tag_65\n          swap2\n          swap1\n          jump\t// in(tag_63)\n        tag_65:\n        tag_64:\n          pop\n          pop\n          pop\n          jump\t// out\n        tag_59:\n          dup3\n          dup1\n          sload\n          0x1\n          dup2\n          0x1\n          and\n          iszero\n          0x100\n          mul\n          sub\n          and\n          0x2\n          swap1\n          div\n          swap1\n          0x0\n          mstore\n          keccak256(0x0, 0x20)\n          swap1\n          0x1f\n          add\n          0x20\n          swap1\n          div\n          dup2\n          add\n          swap3\n          dup3\n          0x1f\n          lt\n          tag_67\n          jumpi\n          dup1\n          mload\n          not(0xff)\n          and\n          dup4\n          dup1\n          add\n          or\n          dup6\n          sstore\n          jump(tag_66)\n        tag_67:\n          dup3\n          dup1\n          add\n          0x1\n          add\n          dup6\n          sstore\n          dup3\n          iszero\n          tag_66\n          jumpi\n          swap2\n          dup3\n          add\n        tag_68:\n          dup3\n          dup2\n          gt\n          iszero\n          tag_69\n          jumpi\n          dup3\n          mload\n          dup3\n          sstore\n          swap2\n          0x20\n          add\n          swap2\n          swap1\n          0x1\n          add\n          swap1\n          jump(tag_68)\n        tag_69:\n        tag_66:\n          pop\n          swap1\n          pop\n          tag_70\n          swap2\n          swap1\n          jump\t// in(tag_63)\n        tag_70:\n          pop\n          swap1\n          jump\t// out\n        tag_63:\n          tag_71\n          swap2\n          swap1\n        tag_72:\n          dup1\n          dup3\n          gt\n          iszero\n          tag_73\n          jumpi\n          0x0\n          dup2\n          0x0\n          swap1\n          sstore\n          pop\n          0x1\n          add\n          jump(tag_72)\n        tag_73:\n          pop\n          swap1\n          jump\n        tag_71:\n          swap1\n          jump\t// out\n\n        auxdata: 0xa165627a7a72305820b290d6a3e288a9cda39eef858650745e594e5d868a1c5926229c805093ca82b40029\n    }\n}\n",
				"bytecode": {
					"linkReferences": {},
					"object": "608060405234801561001057600080fd5b5061001961007a565b604051809103906000f080158015610035573d6000803e3d6000fd5b506000806101000a81548173ffffffffffffffffffffffffffffffffffffffff021916908373ffffffffffffffffffffffffffffffffffffffff16021790555061008a565b60405161064c806103f783390190565b61035e806100996000396000f300608060405260043610610057576000357c0100000000000000000000000000000000000000000000000000000000900463ffffffff16806328fbf3431461005c578063b2fa1c9e146100b3578063efedc669146100ca575b600080fd5b34801561006857600080fd5b506100716100f5565b604051808273ffffffffffffffffffffffffffffffffffffffff1673ffffffffffffffffffffffffffffffffffffffff16815260200191505060405180910390f35b3480156100bf57600080fd5b506100c861011a565b005b3480156100d657600080fd5b506100df610319565b6040518082815260200191505060405180910390f35b6000809054906101000a900473ffffffffffffffffffffffffffffffffffffffff1681565b60006001819055506001151561012f3361031f565b151514156101405760196001819055505b6a084595161401484a0000006000809054906101000a900473ffffffffffffffffffffffffffffffffffffffff1673ffffffffffffffffffffffffffffffffffffffff1663be1c766b6040518163ffffffff167c0100000000000000000000000000000000000000000000000000000000028152600401602060405180830381600087803b1580156101d157600080fd5b505af11580156101e5573d6000803e3d6000fd5b505050506040513d60208110156101fb57600080fd5b8101908080519060200190929190505050111561021b5760326001819055505b3373ffffffffffffffffffffffffffffffffffffffff166000809054906101000a900473ffffffffffffffffffffffffffffffffffffffff1673ffffffffffffffffffffffffffffffffffffffff16638da5cb5b6040518163ffffffff167c0100000000000000000000000000000000000000000000000000000000028152600401602060405180830381600087803b1580156102b757600080fd5b505af11580156102cb573d6000803e3d6000fd5b505050506040513d60208110156102e157600080fd5b810190808051906020019092919050505073ffffffffffffffffffffffffffffffffffffffff1614156103175760646001819055505b565b60015481565b600080823b9050600081119150509190505600a165627a7a72305820d7d46e13e055085405f0c61d00a03d490a1f60b4832d30c2bc2a5afd079f6d1b0029608060405234801561001057600080fd5b5061062c806100206000396000f30060806040526004361061008e576000357c0100000000000000000000000000000000000000000000000000000000900463ffffffff1680634c2b17a01461009357806383f7e2d7146100ca578063890eba68146100f75780638da5cb5b14610122578063be1c766b14610179578063edb70f8c146101a4578063efedc669146101e5578063f19a3f4414610210575b600080fd5b34801561009f57600080fd5b506100c86004803603810190808035906020019092919080359060200190929190505050610293565b005b3480156100d657600080fd5b506100f5600480360381019080803590602001909291905050506102b5565b005b34801561010357600080fd5b5061010c6103b0565b6040518082815260200191505060405180910390f35b34801561012e57600080fd5b506101376103b6565b604051808273ffffffffffffffffffffffffffffffffffffffff1673ffffffffffffffffffffffffffffffffffffffff16815260200191505060405180910390f35b34801561018557600080fd5b5061018e6103db565b6040518082815260200191505060405180910390f35b3480156101b057600080fd5b506101cf600480360381019080803590602001909291905050506103e8565b6040518082815260200191505060405180910390f35b3480156101f157600080fd5b506101fa61040b565b6040518082815260200191505060405180910390f35b34801561021c57600080fd5b50610291600480360381019080803590602001908201803590602001908080601f0160208091040260200160405190810160405280939291908181526020018383808284378201915050505050509192919290803560ff169060200190929190803560ff169060200190929190505050610411565b005b806001838154811015156102a357fe5b90600052602060002001819055505050565b60008060006001805490501115610395576001838154811015156102d557fe5b90600052602060002001549150600360008381526020019081526020016000206000808201600061030691906104e7565b6001820160006101000a81549060ff02191690556001820160016101000a81549060ff0219169055505060018080805490500381548110151561034557fe5b906000526020600020015490508160018080805490500381548110151561036857fe5b90600052602060002001819055508060018481548110151561038657fe5b90600052602060002001819055505b60018054809190600190036103aa919061052f565b50505050565b60025481565b6000809054906101000a900473ffffffffffffffffffffffffffffffffffffffff1681565b6000600180549050905090565b6001818154811015156103f757fe5b906000526020600020016000915090505481565b60045481565b600060018054809190600101610427919061052f565b5060018080805490500381548110151561043d57fe5b906000526020600020015490506060604051908101604052808581526020018460ff1681526020018360ff1681525060036000838152602001908152602001600020600082015181600001908051906020019061049b92919061055b565b5060208201518160010160006101000a81548160ff021916908360ff16021790555060408201518160010160016101000a81548160ff021916908360ff16021790555090505050505050565b50805460018160011615610100020316600290046000825580601f1061050d575061052c565b601f01602090049060005260206000209081019061052b91906105db565b5b50565b8154818355818111156105565781836000526020600020918201910161055591906105db565b5b505050565b828054600181600116156101000203166002900490600052602060002090601f016020900481019282601f1061059c57805160ff19168380011785556105ca565b828001600101855582156105ca579182015b828111156105c95782518255916020019190600101906105ae565b5b5090506105d791906105db565b5090565b6105fd91905b808211156105f95760008160009055506001016105e1565b5090565b905600a165627a7a72305820b290d6a3e288a9cda39eef858650745e594e5d868a1c5926229c805093ca82b40029",
					"opcodes": "PUSH1 0x80 PUSH1 0x40 MSTORE CALLVALUE DUP1 ISZERO PUSH2 0x10 JUMPI PUSH1 0x0 DUP1 REVERT JUMPDEST POP PUSH2 0x19 PUSH2 0x7A JUMP JUMPDEST PUSH1 0x40 MLOAD DUP1 SWAP2 SUB SWAP1 PUSH1 0x0 CREATE DUP1 ISZERO DUP1 ISZERO PUSH2 0x35 JUMPI RETURNDATASIZE PUSH1 0x0 DUP1 RETURNDATACOPY RETURNDATASIZE PUSH1 0x0 REVERT JUMPDEST POP PUSH1 0x0 DUP1 PUSH2 0x100 EXP DUP2 SLOAD DUP2 PUSH20 0xFFFFFFFFFFFFFFFFFFFFFFFFFFFFFFFFFFFFFFFF MUL NOT AND SWAP1 DUP4 PUSH20 0xFFFFFFFFFFFFFFFFFFFFFFFFFFFFFFFFFFFFFFFF AND MUL OR SWAP1 SSTORE POP PUSH2 0x8A JUMP JUMPDEST PUSH1 0x40 MLOAD PUSH2 0x64C DUP1 PUSH2 0x3F7 DUP4 CODECOPY ADD SWAP1 JUMP JUMPDEST PUSH2 0x35E DUP1 PUSH2 0x99 PUSH1 0x0 CODECOPY PUSH1 0x0 RETURN STOP PUSH1 0x80 PUSH1 0x40 MSTORE PUSH1 0x4 CALLDATASIZE LT PUSH2 0x57 JUMPI PUSH1 0x0 CALLDATALOAD PUSH29 0x100000000000000000000000000000000000000000000000000000000 SWAP1 DIV PUSH4 0xFFFFFFFF AND DUP1 PUSH4 0x28FBF343 EQ PUSH2 0x5C JUMPI DUP1 PUSH4 0xB2FA1C9E EQ PUSH2 0xB3 JUMPI DUP1 PUSH4 0xEFEDC669 EQ PUSH2 0xCA JUMPI JUMPDEST PUSH1 0x0 DUP1 REVERT JUMPDEST CALLVALUE DUP1 ISZERO PUSH2 0x68 JUMPI PUSH1 0x0 DUP1 REVERT JUMPDEST POP PUSH2 0x71 PUSH2 0xF5 JUMP JUMPDEST PUSH1 0x40 MLOAD DUP1 DUP3 PUSH20 0xFFFFFFFFFFFFFFFFFFFFFFFFFFFFFFFFFFFFFFFF AND PUSH20 0xFFFFFFFFFFFFFFFFFFFFFFFFFFFFFFFFFFFFFFFF AND DUP2 MSTORE PUSH1 0x20 ADD SWAP2 POP POP PUSH1 0x40 MLOAD DUP1 SWAP2 SUB SWAP1 RETURN JUMPDEST CALLVALUE DUP1 ISZERO PUSH2 0xBF JUMPI PUSH1 0x0 DUP1 REVERT JUMPDEST POP PUSH2 0xC8 PUSH2 0x11A JUMP JUMPDEST STOP JUMPDEST CALLVALUE DUP1 ISZERO PUSH2 0xD6 JUMPI PUSH1 0x0 DUP1 REVERT JUMPDEST POP PUSH2 0xDF PUSH2 0x319 JUMP JUMPDEST PUSH1 0x40 MLOAD DUP1 DUP3 DUP2 MSTORE PUSH1 0x20 ADD SWAP2 POP POP PUSH1 0x40 MLOAD DUP1 SWAP2 SUB SWAP1 RETURN JUMPDEST PUSH1 0x0 DUP1 SWAP1 SLOAD SWAP1 PUSH2 0x100 EXP SWAP1 DIV PUSH20 0xFFFFFFFFFFFFFFFFFFFFFFFFFFFFFFFFFFFFFFFF AND DUP2 JUMP JUMPDEST PUSH1 0x0 PUSH1 0x1 DUP2 SWAP1 SSTORE POP PUSH1 0x1 ISZERO ISZERO PUSH2 0x12F CALLER PUSH2 0x31F JUMP JUMPDEST ISZERO ISZERO EQ ISZERO PUSH2 0x140 JUMPI PUSH1 0x19 PUSH1 0x1 DUP2 SWAP1 SSTORE POP JUMPDEST PUSH11 0x84595161401484A000000 PUSH1 0x0 DUP1 SWAP1 SLOAD SWAP1 PUSH2 0x100 EXP SWAP1 DIV PUSH20 0xFFFFFFFFFFFFFFFFFFFFFFFFFFFFFFFFFFFFFFFF AND PUSH20 0xFFFFFFFFFFFFFFFFFFFFFFFFFFFFFFFFFFFFFFFF AND PUSH4 0xBE1C766B PUSH1 0x40 MLOAD DUP2 PUSH4 0xFFFFFFFF AND PUSH29 0x100000000000000000000000000000000000000000000000000000000 MUL DUP2 MSTORE PUSH1 0x4 ADD PUSH1 0x20 PUSH1 0x40 MLOAD DUP1 DUP4 SUB DUP2 PUSH1 0x0 DUP8 DUP1 EXTCODESIZE ISZERO DUP1 ISZERO PUSH2 0x1D1 JUMPI PUSH1 0x0 DUP1 REVERT JUMPDEST POP GAS CALL ISZERO DUP1 ISZERO PUSH2 0x1E5 JUMPI RETURNDATASIZE PUSH1 0x0 DUP1 RETURNDATACOPY RETURNDATASIZE PUSH1 0x0 REVERT JUMPDEST POP POP POP POP PUSH1 0x40 MLOAD RETURNDATASIZE PUSH1 0x20 DUP2 LT ISZERO PUSH2 0x1FB JUMPI PUSH1 0x0 DUP1 REVERT JUMPDEST DUP2 ADD SWAP1 DUP1 DUP1 MLOAD SWAP1 PUSH1 0x20 ADD SWAP1 SWAP3 SWAP2 SWAP1 POP POP POP GT ISZERO PUSH2 0x21B JUMPI PUSH1 0x32 PUSH1 0x1 DUP2 SWAP1 SSTORE POP JUMPDEST CALLER PUSH20 0xFFFFFFFFFFFFFFFFFFFFFFFFFFFFFFFFFFFFFFFF AND PUSH1 0x0 DUP1 SWAP1 SLOAD SWAP1 PUSH2 0x100 EXP SWAP1 DIV PUSH20 0xFFFFFFFFFFFFFFFFFFFFFFFFFFFFFFFFFFFFFFFF AND PUSH20 0xFFFFFFFFFFFFFFFFFFFFFFFFFFFFFFFFFFFFFFFF AND PUSH4 0x8DA5CB5B PUSH1 0x40 MLOAD DUP2 PUSH4 0xFFFFFFFF AND PUSH29 0x100000000000000000000000000000000000000000000000000000000 MUL DUP2 MSTORE PUSH1 0x4 ADD PUSH1 0x20 PUSH1 0x40 MLOAD DUP1 DUP4 SUB DUP2 PUSH1 0x0 DUP8 DUP1 EXTCODESIZE ISZERO DUP1 ISZERO PUSH2 0x2B7 JUMPI PUSH1 0x0 DUP1 REVERT JUMPDEST POP GAS CALL ISZERO DUP1 ISZERO PUSH2 0x2CB JUMPI RETURNDATASIZE PUSH1 0x0 DUP1 RETURNDATACOPY RETURNDATASIZE PUSH1 0x0 REVERT JUMPDEST POP POP POP POP PUSH1 0x40 MLOAD RETURNDATASIZE PUSH1 0x20 DUP2 LT ISZERO PUSH2 0x2E1 JUMPI PUSH1 0x0 DUP1 REVERT JUMPDEST DUP2 ADD SWAP1 DUP1 DUP1 MLOAD SWAP1 PUSH1 0x20 ADD SWAP1 SWAP3 SWAP2 SWAP1 POP POP POP PUSH20 0xFFFFFFFFFFFFFFFFFFFFFFFFFFFFFFFFFFFFFFFF AND EQ ISZERO PUSH2 0x317 JUMPI PUSH1 0x64 PUSH1 0x1 DUP2 SWAP1 SSTORE POP JUMPDEST JUMP JUMPDEST PUSH1 0x1 SLOAD DUP2 JUMP JUMPDEST PUSH1 0x0 DUP1 DUP3 EXTCODESIZE SWAP1 POP PUSH1 0x0 DUP2 GT SWAP2 POP POP SWAP2 SWAP1 POP JUMP STOP LOG1 PUSH6 0x627A7A723058 KECCAK256 0xd7 0xd4 PUSH15 0x13E055085405F0C61D00A03D490A1F PUSH1 0xB4 DUP4 0x2d ADDRESS 0xc2 0xbc 0x2a GAS REVERT SMOD SWAP16 PUSH14 0x1B00296080604052348015610010 JUMPI PUSH1 0x0 DUP1 REVERT JUMPDEST POP PUSH2 0x62C DUP1 PUSH2 0x20 PUSH1 0x0 CODECOPY PUSH1 0x0 RETURN STOP PUSH1 0x80 PUSH1 0x40 MSTORE PUSH1 0x4 CALLDATASIZE LT PUSH2 0x8E JUMPI PUSH1 0x0 CALLDATALOAD PUSH29 0x100000000000000000000000000000000000000000000000000000000 SWAP1 DIV PUSH4 0xFFFFFFFF AND DUP1 PUSH4 0x4C2B17A0 EQ PUSH2 0x93 JUMPI DUP1 PUSH4 0x83F7E2D7 EQ PUSH2 0xCA JUMPI DUP1 PUSH4 0x890EBA68 EQ PUSH2 0xF7 JUMPI DUP1 PUSH4 0x8DA5CB5B EQ PUSH2 0x122 JUMPI DUP1 PUSH4 0xBE1C766B EQ PUSH2 0x179 JUMPI DUP1 PUSH4 0xEDB70F8C EQ PUSH2 0x1A4 JUMPI DUP1 PUSH4 0xEFEDC669 EQ PUSH2 0x1E5 JUMPI DUP1 PUSH4 0xF19A3F44 EQ PUSH2 0x210 JUMPI JUMPDEST PUSH1 0x0 DUP1 REVERT JUMPDEST CALLVALUE DUP1 ISZERO PUSH2 0x9F JUMPI PUSH1 0x0 DUP1 REVERT JUMPDEST POP PUSH2 0xC8 PUSH1 0x4 DUP1 CALLDATASIZE SUB DUP2 ADD SWAP1 DUP1 DUP1 CALLDATALOAD SWAP1 PUSH1 0x20 ADD SWAP1 SWAP3 SWAP2 SWAP1 DUP1 CALLDATALOAD SWAP1 PUSH1 0x20 ADD SWAP1 SWAP3 SWAP2 SWAP1 POP POP POP PUSH2 0x293 JUMP JUMPDEST STOP JUMPDEST CALLVALUE DUP1 ISZERO PUSH2 0xD6 JUMPI PUSH1 0x0 DUP1 REVERT JUMPDEST POP PUSH2 0xF5 PUSH1 0x4 DUP1 CALLDATASIZE SUB DUP2 ADD SWAP1 DUP1 DUP1 CALLDATALOAD SWAP1 PUSH1 0x20 ADD SWAP1 SWAP3 SWAP2 SWAP1 POP POP POP PUSH2 0x2B5 JUMP JUMPDEST STOP JUMPDEST CALLVALUE DUP1 ISZERO PUSH2 0x103 JUMPI PUSH1 0x0 DUP1 REVERT JUMPDEST POP PUSH2 0x10C PUSH2 0x3B0 JUMP JUMPDEST PUSH1 0x40 MLOAD DUP1 DUP3 DUP2 MSTORE PUSH1 0x20 ADD SWAP2 POP POP PUSH1 0x40 MLOAD DUP1 SWAP2 SUB SWAP1 RETURN JUMPDEST CALLVALUE DUP1 ISZERO PUSH2 0x12E JUMPI PUSH1 0x0 DUP1 REVERT JUMPDEST POP PUSH2 0x137 PUSH2 0x3B6 JUMP JUMPDEST PUSH1 0x40 MLOAD DUP1 DUP3 PUSH20 0xFFFFFFFFFFFFFFFFFFFFFFFFFFFFFFFFFFFFFFFF AND PUSH20 0xFFFFFFFFFFFFFFFFFFFFFFFFFFFFFFFFFFFFFFFF AND DUP2 MSTORE PUSH1 0x20 ADD SWAP2 POP POP PUSH1 0x40 MLOAD DUP1 SWAP2 SUB SWAP1 RETURN JUMPDEST CALLVALUE DUP1 ISZERO PUSH2 0x185 JUMPI PUSH1 0x0 DUP1 REVERT JUMPDEST POP PUSH2 0x18E PUSH2 0x3DB JUMP JUMPDEST PUSH1 0x40 MLOAD DUP1 DUP3 DUP2 MSTORE PUSH1 0x20 ADD SWAP2 POP POP PUSH1 0x40 MLOAD DUP1 SWAP2 SUB SWAP1 RETURN JUMPDEST CALLVALUE DUP1 ISZERO PUSH2 0x1B0 JUMPI PUSH1 0x0 DUP1 REVERT JUMPDEST POP PUSH2 0x1CF PUSH1 0x4 DUP1 CALLDATASIZE SUB DUP2 ADD SWAP1 DUP1 DUP1 CALLDATALOAD SWAP1 PUSH1 0x20 ADD SWAP1 SWAP3 SWAP2 SWAP1 POP POP POP PUSH2 0x3E8 JUMP JUMPDEST PUSH1 0x40 MLOAD DUP1 DUP3 DUP2 MSTORE PUSH1 0x20 ADD SWAP2 POP POP PUSH1 0x40 MLOAD DUP1 SWAP2 SUB SWAP1 RETURN JUMPDEST CALLVALUE DUP1 ISZERO PUSH2 0x1F1 JUMPI PUSH1 0x0 DUP1 REVERT JUMPDEST POP PUSH2 0x1FA PUSH2 0x40B JUMP JUMPDEST PUSH1 0x40 MLOAD DUP1 DUP3 DUP2 MSTORE PUSH1 0x20 ADD SWAP2 POP POP PUSH1 0x40 MLOAD DUP1 SWAP2 SUB SWAP1 RETURN JUMPDEST CALLVALUE DUP1 ISZERO PUSH2 0x21C JUMPI PUSH1 0x0 DUP1 REVERT JUMPDEST POP PUSH2 0x291 PUSH1 0x4 DUP1 CALLDATASIZE SUB DUP2 ADD SWAP1 DUP1 DUP1 CALLDATALOAD SWAP1 PUSH1 0x20 ADD SWAP1 DUP3 ADD DUP1 CALLDATALOAD SWAP1 PUSH1 0x20 ADD SWAP1 DUP1 DUP1 PUSH1 0x1F ADD PUSH1 0x20 DUP1 SWAP2 DIV MUL PUSH1 0x20 ADD PUSH1 0x40 MLOAD SWAP1 DUP2 ADD PUSH1 0x40 MSTORE DUP1 SWAP4 SWAP3 SWAP2 SWAP1 DUP2 DUP2 MSTORE PUSH1 0x20 ADD DUP4 DUP4 DUP1 DUP3 DUP5 CALLDATACOPY DUP3 ADD SWAP2 POP POP POP POP POP POP SWAP2 SWAP3 SWAP2 SWAP3 SWAP1 DUP1 CALLDATALOAD PUSH1 0xFF AND SWAP1 PUSH1 0x20 ADD SWAP1 SWAP3 SWAP2 SWAP1 DUP1 CALLDATALOAD PUSH1 0xFF AND SWAP1 PUSH1 0x20 ADD SWAP1 SWAP3 SWAP2 SWAP1 POP POP POP PUSH2 0x411 JUMP JUMPDEST STOP JUMPDEST DUP1 PUSH1 0x1 DUP4 DUP2 SLOAD DUP2 LT ISZERO ISZERO PUSH2 0x2A3 JUMPI INVALID JUMPDEST SWAP1 PUSH1 0x0 MSTORE PUSH1 0x20 PUSH1 0x0 KECCAK256 ADD DUP2 SWAP1 SSTORE POP POP POP JUMP JUMPDEST PUSH1 0x0 DUP1 PUSH1 0x0 PUSH1 0x1 DUP1 SLOAD SWAP1 POP GT ISZERO PUSH2 0x395 JUMPI PUSH1 0x1 DUP4 DUP2 SLOAD DUP2 LT ISZERO ISZERO PUSH2 0x2D5 JUMPI INVALID JUMPDEST SWAP1 PUSH1 0x0 MSTORE PUSH1 0x20 PUSH1 0x0 KECCAK256 ADD SLOAD SWAP2 POP PUSH1 0x3 PUSH1 0x0 DUP4 DUP2 MSTORE PUSH1 0x20 ADD SWAP1 DUP2 MSTORE PUSH1 0x20 ADD PUSH1 0x0 KECCAK256 PUSH1 0x0 DUP1 DUP3 ADD PUSH1 0x0 PUSH2 0x306 SWAP2 SWAP1 PUSH2 0x4E7 JUMP JUMPDEST PUSH1 0x1 DUP3 ADD PUSH1 0x0 PUSH2 0x100 EXP DUP2 SLOAD SWAP1 PUSH1 0xFF MUL NOT AND SWAP1 SSTORE PUSH1 0x1 DUP3 ADD PUSH1 0x1 PUSH2 0x100 EXP DUP2 SLOAD SWAP1 PUSH1 0xFF MUL NOT AND SWAP1 SSTORE POP POP PUSH1 0x1 DUP1 DUP1 DUP1 SLOAD SWAP1 POP SUB DUP2 SLOAD DUP2 LT ISZERO ISZERO PUSH2 0x345 JUMPI INVALID JUMPDEST SWAP1 PUSH1 0x0 MSTORE PUSH1 0x20 PUSH1 0x0 KECCAK256 ADD SLOAD SWAP1 POP DUP2 PUSH1 0x1 DUP1 DUP1 DUP1 SLOAD SWAP1 POP SUB DUP2 SLOAD DUP2 LT ISZERO ISZERO PUSH2 0x368 JUMPI INVALID JUMPDEST SWAP1 PUSH1 0x0 MSTORE PUSH1 0x20 PUSH1 0x0 KECCAK256 ADD DUP2 SWAP1 SSTORE POP DUP1 PUSH1 0x1 DUP5 DUP2 SLOAD DUP2 LT ISZERO ISZERO PUSH2 0x386 JUMPI INVALID JUMPDEST SWAP1 PUSH1 0x0 MSTORE PUSH1 0x20 PUSH1 0x0 KECCAK256 ADD DUP2 SWAP1 SSTORE POP JUMPDEST PUSH1 0x1 DUP1 SLOAD DUP1 SWAP2 SWAP1 PUSH1 0x1 SWAP1 SUB PUSH2 0x3AA SWAP2 SWAP1 PUSH2 0x52F JUMP JUMPDEST POP POP POP POP JUMP JUMPDEST PUSH1 0x2 SLOAD DUP2 JUMP JUMPDEST PUSH1 0x0 DUP1 SWAP1 SLOAD SWAP1 PUSH2 0x100 EXP SWAP1 DIV PUSH20 0xFFFFFFFFFFFFFFFFFFFFFFFFFFFFFFFFFFFFFFFF AND DUP2 JUMP JUMPDEST PUSH1 0x0 PUSH1 0x1 DUP1 SLOAD SWAP1 POP SWAP1 POP SWAP1 JUMP JUMPDEST PUSH1 0x1 DUP2 DUP2 SLOAD DUP2 LT ISZERO ISZERO PUSH2 0x3F7 JUMPI INVALID JUMPDEST SWAP1 PUSH1 0x0 MSTORE PUSH1 0x20 PUSH1 0x0 KECCAK256 ADD PUSH1 0x0 SWAP2 POP SWAP1 POP SLOAD DUP2 JUMP JUMPDEST PUSH1 0x4 SLOAD DUP2 JUMP JUMPDEST PUSH1 0x0 PUSH1 0x1 DUP1 SLOAD DUP1 SWAP2 SWAP1 PUSH1 0x1 ADD PUSH2 0x427 SWAP2 SWAP1 PUSH2 0x52F JUMP JUMPDEST POP PUSH1 0x1 DUP1 DUP1 DUP1 SLOAD SWAP1 POP SUB DUP2 SLOAD DUP2 LT ISZERO ISZERO PUSH2 0x43D JUMPI INVALID JUMPDEST SWAP1 PUSH1 0x0 MSTORE PUSH1 0x20 PUSH1 0x0 KECCAK256 ADD SLOAD SWAP1 POP PUSH1 0x60 PUSH1 0x40 MLOAD SWAP1 DUP2 ADD PUSH1 0x40 MSTORE DUP1 DUP6 DUP2 MSTORE PUSH1 0x20 ADD DUP5 PUSH1 0xFF AND DUP2 MSTORE PUSH1 0x20 ADD DUP4 PUSH1 0xFF AND DUP2 MSTORE POP PUSH1 0x3 PUSH1 0x0 DUP4 DUP2 MSTORE PUSH1 0x20 ADD SWAP1 DUP2 MSTORE PUSH1 0x20 ADD PUSH1 0x0 KECCAK256 PUSH1 0x0 DUP3 ADD MLOAD DUP2 PUSH1 0x0 ADD SWAP1 DUP1 MLOAD SWAP1 PUSH1 0x20 ADD SWAP1 PUSH2 0x49B SWAP3 SWAP2 SWAP1 PUSH2 0x55B JUMP JUMPDEST POP PUSH1 0x20 DUP3 ADD MLOAD DUP2 PUSH1 0x1 ADD PUSH1 0x0 PUSH2 0x100 EXP DUP2 SLOAD DUP2 PUSH1 0xFF MUL NOT AND SWAP1 DUP4 PUSH1 0xFF AND MUL OR SWAP1 SSTORE POP PUSH1 0x40 DUP3 ADD MLOAD DUP2 PUSH1 0x1 ADD PUSH1 0x1 PUSH2 0x100 EXP DUP2 SLOAD DUP2 PUSH1 0xFF MUL NOT AND SWAP1 DUP4 PUSH1 0xFF AND MUL OR SWAP1 SSTORE POP SWAP1 POP POP POP POP POP POP JUMP JUMPDEST POP DUP1 SLOAD PUSH1 0x1 DUP2 PUSH1 0x1 AND ISZERO PUSH2 0x100 MUL SUB AND PUSH1 0x2 SWAP1 DIV PUSH1 0x0 DUP3 SSTORE DUP1 PUSH1 0x1F LT PUSH2 0x50D JUMPI POP PUSH2 0x52C JUMP JUMPDEST PUSH1 0x1F ADD PUSH1 0x20 SWAP1 DIV SWAP1 PUSH1 0x0 MSTORE PUSH1 0x20 PUSH1 0x0 KECCAK256 SWAP1 DUP2 ADD SWAP1 PUSH2 0x52B SWAP2 SWAP1 PUSH2 0x5DB JUMP JUMPDEST JUMPDEST POP JUMP JUMPDEST DUP2 SLOAD DUP2 DUP4 SSTORE DUP2 DUP2 GT ISZERO PUSH2 0x556 JUMPI DUP2 DUP4 PUSH1 0x0 MSTORE PUSH1 0x20 PUSH1 0x0 KECCAK256 SWAP2 DUP3 ADD SWAP2 ADD PUSH2 0x555 SWAP2 SWAP1 PUSH2 0x5DB JUMP JUMPDEST JUMPDEST POP POP POP JUMP JUMPDEST DUP3 DUP1 SLOAD PUSH1 0x1 DUP2 PUSH1 0x1 AND ISZERO PUSH2 0x100 MUL SUB AND PUSH1 0x2 SWAP1 DIV SWAP1 PUSH1 0x0 MSTORE PUSH1 0x20 PUSH1 0x0 KECCAK256 SWAP1 PUSH1 0x1F ADD PUSH1 0x20 SWAP1 DIV DUP2 ADD SWAP3 DUP3 PUSH1 0x1F LT PUSH2 0x59C JUMPI DUP1 MLOAD PUSH1 0xFF NOT AND DUP4 DUP1 ADD OR DUP6 SSTORE PUSH2 0x5CA JUMP JUMPDEST DUP3 DUP1 ADD PUSH1 0x1 ADD DUP6 SSTORE DUP3 ISZERO PUSH2 0x5CA JUMPI SWAP2 DUP3 ADD JUMPDEST DUP3 DUP2 GT ISZERO PUSH2 0x5C9 JUMPI DUP3 MLOAD DUP3 SSTORE SWAP2 PUSH1 0x20 ADD SWAP2 SWAP1 PUSH1 0x1 ADD SWAP1 PUSH2 0x5AE JUMP JUMPDEST JUMPDEST POP SWAP1 POP PUSH2 0x5D7 SWAP2 SWAP1 PUSH2 0x5DB JUMP JUMPDEST POP SWAP1 JUMP JUMPDEST PUSH2 0x5FD SWAP2 SWAP1 JUMPDEST DUP1 DUP3 GT ISZERO PUSH2 0x5F9 JUMPI PUSH1 0x0 DUP2 PUSH1 0x0 SWAP1 SSTORE POP PUSH1 0x1 ADD PUSH2 0x5E1 JUMP JUMPDEST POP SWAP1 JUMP JUMPDEST SWAP1 JUMP STOP LOG1 PUSH6 0x627A7A723058 KECCAK256 0xb2 SWAP1 0xd6 LOG3 0xe2 DUP9 0xa9 0xcd LOG3 SWAP15 0xef DUP6 DUP7 POP PUSH21 0x5E594E5D868A1C5926229C805093CA82B400290000 "
				},
				"gasEstimates": {
					"creation": {
						"codeDepositCost": "172400",
						"executionCost": "infinite",
						"totalCost": "infinite"
					},
					"external": {
						"isComplete()": "infinite",
						"score()": "438",
						"stu()": "442"
					},
					"internal": {
						"isContract(address)": "747"
					}
				},
				"methodIdentifiers": {
					"isComplete()": "b2fa1c9e",
					"score()": "efedc669",
					"stu()": "28fbf343"
				}
			},
			"userdoc": {
				"methods": {}
			}
		}
	}
}