{
	"SecLessonPoc-main/contracts/verifySign/check/ectransfer.sol": {
		"ectransfer": {
			"abi": [
				{
					"inputs": [],
					"stateMutability": "nonpayable",
					"type": "constructor"
				},
				{
					"inputs": [],
					"name": "airdrop",
					"outputs": [],
					"stateMutability": "nonpayable",
					"type": "function"
				},
				{
					"inputs": [
						{
							"internalType": "address",
							"name": "account",
							"type": "address"
						}
					],
					"name": "balanceOf",
					"outputs": [
						{
							"internalType": "uint256",
							"name": "",
							"type": "uint256"
						}
					],
					"stateMutability": "view",
					"type": "function"
				},
				{
					"inputs": [
						{
							"internalType": "bytes32",
							"name": "hash",
							"type": "bytes32"
						},
						{
							"internalType": "bytes",
							"name": "sig",
							"type": "bytes"
						}
					],
					"name": "ecrecovery",
					"outputs": [
						{
							"internalType": "address",
							"name": "",
							"type": "address"
						}
					],
					"stateMutability": "pure",
					"type": "function"
				},
				{
					"inputs": [
						{
							"internalType": "address",
							"name": "",
							"type": "address"
						}
					],
					"name": "isAir",
					"outputs": [
						{
							"internalType": "bool",
							"name": "",
							"type": "bool"
						}
					],
					"stateMutability": "view",
					"type": "function"
				},
				{
					"inputs": [],
					"name": "isCompleted",
					"outputs": [],
					"stateMutability": "nonpayable",
					"type": "function"
				},
				{
					"inputs": [
						{
							"internalType": "address",
							"name": "receiver",
							"type": "address"
						},
						{
							"internalType": "uint256",
							"name": "amount",
							"type": "uint256"
						},
						{
							"internalType": "bytes",
							"name": "sig",
							"type": "bytes"
						}
					],
					"name": "safeTransfer",
					"outputs": [],
					"stateMutability": "nonpayable",
					"type": "function"
				},
				{
					"inputs": [],
					"name": "score",
					"outputs": [
						{
							"internalType": "uint256",
							"name": "",
							"type": "uint256"
						}
					],
					"stateMutability": "view",
					"type": "function"
				}
			],
			"devdoc": {
				"kind": "dev",
				"methods": {},
				"version": 1
			},
			"evm": {
				"assembly": "    /* \"SecLessonPoc-main/contracts/verifySign/check/ectransfer.sol\":163:2027  contract ectransfer {... */\n  mstore(0x40, 0x80)\n    /* \"SecLessonPoc-main/contracts/verifySign/check/ectransfer.sol\":313:385  constructor() {... */\n  callvalue\n  dup1\n  iszero\n  tag_1\n  jumpi\n  0x00\n  dup1\n  revert\ntag_1:\n  pop\n    /* \"SecLessonPoc-main/contracts/verifySign/check/ectransfer.sol\":365:377  10000*10**18 */\n  0x021e19e0c9bab2400000\n    /* \"SecLessonPoc-main/contracts/verifySign/check/ectransfer.sol\":338:347  _balances */\n  0x01\n    /* \"SecLessonPoc-main/contracts/verifySign/check/ectransfer.sol\":338:362  _balances[address(this)] */\n  0x00\n    /* \"SecLessonPoc-main/contracts/verifySign/check/ectransfer.sol\":356:360  this */\n  address\n    /* \"SecLessonPoc-main/contracts/verifySign/check/ectransfer.sol\":338:362  _balances[address(this)] */\n  0xffffffffffffffffffffffffffffffffffffffff\n  and\n  0xffffffffffffffffffffffffffffffffffffffff\n  and\n  dup2\n  mstore\n  0x20\n  add\n  swap1\n  dup2\n  mstore\n  0x20\n  add\n  0x00\n  keccak256\n    /* \"SecLessonPoc-main/contracts/verifySign/check/ectransfer.sol\":338:377  _balances[address(this)] = 10000*10**18 */\n  dup2\n  swap1\n  sstore\n  pop\n    /* \"SecLessonPoc-main/contracts/verifySign/check/ectransfer.sol\":163:2027  contract ectransfer {... */\n  dataSize(sub_0)\n  dup1\n  dataOffset(sub_0)\n  0x00\n  codecopy\n  0x00\n  return\nstop\n\nsub_0: assembly {\n        /* \"SecLessonPoc-main/contracts/verifySign/check/ectransfer.sol\":163:2027  contract ectransfer {... */\n      mstore(0x40, 0x80)\n      callvalue\n      dup1\n      iszero\n      tag_1\n      jumpi\n      0x00\n      dup1\n      revert\n    tag_1:\n      pop\n      jumpi(tag_2, lt(calldatasize, 0x04))\n      shr(0xe0, calldataload(0x00))\n      dup1\n      0x77d32e94\n      gt\n      tag_10\n      jumpi\n      dup1\n      0x77d32e94\n      eq\n      tag_6\n      jumpi\n      dup1\n      0xeb795549\n      eq\n      tag_7\n      jumpi\n      dup1\n      0xefedc669\n      eq\n      tag_8\n      jumpi\n      dup1\n      0xfa391c64\n      eq\n      tag_9\n      jumpi\n      jump(tag_2)\n    tag_10:\n      dup1\n      0x3884d635\n      eq\n      tag_3\n      jumpi\n      dup1\n      0x450c8025\n      eq\n      tag_4\n      jumpi\n      dup1\n      0x70a08231\n      eq\n      tag_5\n      jumpi\n    tag_2:\n      0x00\n      dup1\n      revert\n        /* \"SecLessonPoc-main/contracts/verifySign/check/ectransfer.sol\":860:1050  function airdrop()public{... */\n    tag_3:\n      tag_11\n      tag_12\n      jump\t// in\n    tag_11:\n      stop\n        /* \"SecLessonPoc-main/contracts/verifySign/check/ectransfer.sol\":269:306  mapping(address => bool) public isAir */\n    tag_4:\n      tag_13\n      0x04\n      dup1\n      calldatasize\n      sub\n      dup2\n      add\n      swap1\n      tag_14\n      swap2\n      swap1\n      tag_15\n      jump\t// in\n    tag_14:\n      tag_16\n      jump\t// in\n    tag_13:\n      mload(0x40)\n      tag_17\n      swap2\n      swap1\n      tag_18\n      jump\t// in\n    tag_17:\n      mload(0x40)\n      dup1\n      swap2\n      sub\n      swap1\n      return\n        /* \"SecLessonPoc-main/contracts/verifySign/check/ectransfer.sol\":393:503  function balanceOf(address account) public view returns (uint256) {... */\n    tag_5:\n      tag_19\n      0x04\n      dup1\n      calldatasize\n      sub\n      dup2\n      add\n      swap1\n      tag_20\n      swap2\n      swap1\n      tag_15\n      jump\t// in\n    tag_20:\n      tag_21\n      jump\t// in\n    tag_19:\n      mload(0x40)\n      tag_22\n      swap2\n      swap1\n      tag_23\n      jump\t// in\n    tag_22:\n      mload(0x40)\n      dup1\n      swap2\n      sub\n      swap1\n      return\n        /* \"SecLessonPoc-main/contracts/verifySign/check/ectransfer.sol\":1329:2024  function ecrecovery(bytes32 hash, bytes memory sig) public pure returns (address) {... */\n    tag_6:\n      tag_24\n      0x04\n      dup1\n      calldatasize\n      sub\n      dup2\n      add\n      swap1\n      tag_25\n      swap2\n      swap1\n      tag_26\n      jump\t// in\n    tag_25:\n      tag_27\n      jump\t// in\n    tag_24:\n      mload(0x40)\n      tag_28\n      swap2\n      swap1\n      tag_29\n      jump\t// in\n    tag_28:\n      mload(0x40)\n      dup1\n      swap2\n      sub\n      swap1\n      return\n        /* \"SecLessonPoc-main/contracts/verifySign/check/ectransfer.sol\":511:852  function safeTransfer(address receiver, uint256 amount, bytes memory sig) public {... */\n    tag_7:\n      tag_30\n      0x04\n      dup1\n      calldatasize\n      sub\n      dup2\n      add\n      swap1\n      tag_31\n      swap2\n      swap1\n      tag_32\n      jump\t// in\n    tag_31:\n      tag_33\n      jump\t// in\n    tag_30:\n      stop\n        /* \"SecLessonPoc-main/contracts/verifySign/check/ectransfer.sol\":190:210  uint256 public score */\n    tag_8:\n      tag_34\n      tag_35\n      jump\t// in\n    tag_34:\n      mload(0x40)\n      tag_36\n      swap2\n      swap1\n      tag_23\n      jump\t// in\n    tag_36:\n      mload(0x40)\n      dup1\n      swap2\n      sub\n      swap1\n      return\n        /* \"SecLessonPoc-main/contracts/verifySign/check/ectransfer.sol\":1058:1321  function isCompleted() public {... */\n    tag_9:\n      tag_37\n      tag_38\n      jump\t// in\n    tag_37:\n      stop\n        /* \"SecLessonPoc-main/contracts/verifySign/check/ectransfer.sol\":860:1050  function airdrop()public{... */\n    tag_12:\n        /* \"SecLessonPoc-main/contracts/verifySign/check/ectransfer.sol\":904:909  isAir */\n      0x02\n        /* \"SecLessonPoc-main/contracts/verifySign/check/ectransfer.sol\":904:921  isAir[msg.sender] */\n      0x00\n        /* \"SecLessonPoc-main/contracts/verifySign/check/ectransfer.sol\":910:920  msg.sender */\n      caller\n        /* \"SecLessonPoc-main/contracts/verifySign/check/ectransfer.sol\":904:921  isAir[msg.sender] */\n      0xffffffffffffffffffffffffffffffffffffffff\n      and\n      0xffffffffffffffffffffffffffffffffffffffff\n      and\n      dup2\n      mstore\n      0x20\n      add\n      swap1\n      dup2\n      mstore\n      0x20\n      add\n      0x00\n      keccak256\n      0x00\n      swap1\n      sload\n      swap1\n      0x0100\n      exp\n      swap1\n      div\n      0xff\n      and\n        /* \"SecLessonPoc-main/contracts/verifySign/check/ectransfer.sol\":903:921  !isAir[msg.sender] */\n      iszero\n        /* \"SecLessonPoc-main/contracts/verifySign/check/ectransfer.sol\":895:922  require(!isAir[msg.sender]) */\n      tag_40\n      jumpi\n      0x00\n      dup1\n      revert\n    tag_40:\n        /* \"SecLessonPoc-main/contracts/verifySign/check/ectransfer.sol\":953:957  true */\n      0x01\n        /* \"SecLessonPoc-main/contracts/verifySign/check/ectransfer.sol\":933:938  isAir */\n      0x02\n        /* \"SecLessonPoc-main/contracts/verifySign/check/ectransfer.sol\":933:950  isAir[msg.sender] */\n      0x00\n        /* \"SecLessonPoc-main/contracts/verifySign/check/ectransfer.sol\":939:949  msg.sender */\n      caller\n        /* \"SecLessonPoc-main/contracts/verifySign/check/ectransfer.sol\":933:950  isAir[msg.sender] */\n      0xffffffffffffffffffffffffffffffffffffffff\n      and\n      0xffffffffffffffffffffffffffffffffffffffff\n      and\n      dup2\n      mstore\n      0x20\n      add\n      swap1\n      dup2\n      mstore\n      0x20\n      add\n      0x00\n      keccak256\n      0x00\n        /* \"SecLessonPoc-main/contracts/verifySign/check/ectransfer.sol\":933:957  isAir[msg.sender] = true */\n      0x0100\n      exp\n      dup2\n      sload\n      dup2\n      0xff\n      mul\n      not\n      and\n      swap1\n      dup4\n      iszero\n      iszero\n      mul\n      or\n      swap1\n      sstore\n      pop\n        /* \"SecLessonPoc-main/contracts/verifySign/check/ectransfer.sol\":991:998  1 ether */\n      0x0de0b6b3a7640000\n        /* \"SecLessonPoc-main/contracts/verifySign/check/ectransfer.sol\":968:977  _balances */\n      0x01\n        /* \"SecLessonPoc-main/contracts/verifySign/check/ectransfer.sol\":968:989  _balances[msg.sender] */\n      0x00\n        /* \"SecLessonPoc-main/contracts/verifySign/check/ectransfer.sol\":978:988  msg.sender */\n      caller\n        /* \"SecLessonPoc-main/contracts/verifySign/check/ectransfer.sol\":968:989  _balances[msg.sender] */\n      0xffffffffffffffffffffffffffffffffffffffff\n      and\n      0xffffffffffffffffffffffffffffffffffffffff\n      and\n      dup2\n      mstore\n      0x20\n      add\n      swap1\n      dup2\n      mstore\n      0x20\n      add\n      0x00\n      keccak256\n      0x00\n        /* \"SecLessonPoc-main/contracts/verifySign/check/ectransfer.sol\":968:998  _balances[msg.sender]+=1 ether */\n      dup3\n      dup3\n      sload\n      tag_41\n      swap2\n      swap1\n      tag_42\n      jump\t// in\n    tag_41:\n      swap3\n      pop\n      pop\n      dup2\n      swap1\n      sstore\n      pop\n        /* \"SecLessonPoc-main/contracts/verifySign/check/ectransfer.sol\":1035:1042  1 ether */\n      0x0de0b6b3a7640000\n        /* \"SecLessonPoc-main/contracts/verifySign/check/ectransfer.sol\":1009:1018  _balances */\n      0x01\n        /* \"SecLessonPoc-main/contracts/verifySign/check/ectransfer.sol\":1009:1033  _balances[address(this)] */\n      0x00\n        /* \"SecLessonPoc-main/contracts/verifySign/check/ectransfer.sol\":1027:1031  this */\n      address\n        /* \"SecLessonPoc-main/contracts/verifySign/check/ectransfer.sol\":1009:1033  _balances[address(this)] */\n      0xffffffffffffffffffffffffffffffffffffffff\n      and\n      0xffffffffffffffffffffffffffffffffffffffff\n      and\n      dup2\n      mstore\n      0x20\n      add\n      swap1\n      dup2\n      mstore\n      0x20\n      add\n      0x00\n      keccak256\n      0x00\n        /* \"SecLessonPoc-main/contracts/verifySign/check/ectransfer.sol\":1009:1042  _balances[address(this)]-=1 ether */\n      dup3\n      dup3\n      sload\n      tag_43\n      swap2\n      swap1\n      tag_44\n      jump\t// in\n    tag_43:\n      swap3\n      pop\n      pop\n      dup2\n      swap1\n      sstore\n      pop\n        /* \"SecLessonPoc-main/contracts/verifySign/check/ectransfer.sol\":860:1050  function airdrop()public{... */\n      jump\t// out\n        /* \"SecLessonPoc-main/contracts/verifySign/check/ectransfer.sol\":269:306  mapping(address => bool) public isAir */\n    tag_16:\n      mstore(0x20, 0x02)\n      dup1\n      0x00\n      mstore\n      keccak256(0x00, 0x40)\n      0x00\n      swap2\n      pop\n      sload\n      swap1\n      0x0100\n      exp\n      swap1\n      div\n      0xff\n      and\n      dup2\n      jump\t// out\n        /* \"SecLessonPoc-main/contracts/verifySign/check/ectransfer.sol\":393:503  function balanceOf(address account) public view returns (uint256) {... */\n    tag_21:\n        /* \"SecLessonPoc-main/contracts/verifySign/check/ectransfer.sol\":450:457  uint256 */\n      0x00\n        /* \"SecLessonPoc-main/contracts/verifySign/check/ectransfer.sol\":477:486  _balances */\n      0x01\n        /* \"SecLessonPoc-main/contracts/verifySign/check/ectransfer.sol\":477:495  _balances[account] */\n      0x00\n        /* \"SecLessonPoc-main/contracts/verifySign/check/ectransfer.sol\":487:494  account */\n      dup4\n        /* \"SecLessonPoc-main/contracts/verifySign/check/ectransfer.sol\":477:495  _balances[account] */\n      0xffffffffffffffffffffffffffffffffffffffff\n      and\n      0xffffffffffffffffffffffffffffffffffffffff\n      and\n      dup2\n      mstore\n      0x20\n      add\n      swap1\n      dup2\n      mstore\n      0x20\n      add\n      0x00\n      keccak256\n      sload\n        /* \"SecLessonPoc-main/contracts/verifySign/check/ectransfer.sol\":470:495  return _balances[account] */\n      swap1\n      pop\n        /* \"SecLessonPoc-main/contracts/verifySign/check/ectransfer.sol\":393:503  function balanceOf(address account) public view returns (uint256) {... */\n      swap2\n      swap1\n      pop\n      jump\t// out\n        /* \"SecLessonPoc-main/contracts/verifySign/check/ectransfer.sol\":1329:2024  function ecrecovery(bytes32 hash, bytes memory sig) public pure returns (address) {... */\n    tag_27:\n        /* \"SecLessonPoc-main/contracts/verifySign/check/ectransfer.sol\":1402:1409  address */\n      0x00\n        /* \"SecLessonPoc-main/contracts/verifySign/check/ectransfer.sol\":1422:1431  bytes32 r */\n      dup1\n        /* \"SecLessonPoc-main/contracts/verifySign/check/ectransfer.sol\":1442:1451  bytes32 s */\n      0x00\n        /* \"SecLessonPoc-main/contracts/verifySign/check/ectransfer.sol\":1462:1469  uint8 v */\n      dup1\n        /* \"SecLessonPoc-main/contracts/verifySign/check/ectransfer.sol\":1500:1502  65 */\n      0x41\n        /* \"SecLessonPoc-main/contracts/verifySign/check/ectransfer.sol\":1486:1489  sig */\n      dup6\n        /* \"SecLessonPoc-main/contracts/verifySign/check/ectransfer.sol\":1486:1496  sig.length */\n      mload\n        /* \"SecLessonPoc-main/contracts/verifySign/check/ectransfer.sol\":1486:1502  sig.length != 65 */\n      eq\n        /* \"SecLessonPoc-main/contracts/verifySign/check/ectransfer.sol\":1482:1550  if (sig.length != 65) {... */\n      tag_47\n      jumpi\n        /* \"SecLessonPoc-main/contracts/verifySign/check/ectransfer.sol\":1534:1537  0x0 */\n      0x00\n        /* \"SecLessonPoc-main/contracts/verifySign/check/ectransfer.sol\":1519:1538  return address(0x0) */\n      swap4\n      pop\n      pop\n      pop\n      pop\n      jump(tag_46)\n        /* \"SecLessonPoc-main/contracts/verifySign/check/ectransfer.sol\":1482:1550  if (sig.length != 65) {... */\n    tag_47:\n        /* \"SecLessonPoc-main/contracts/verifySign/check/ectransfer.sol\":1606:1608  32 */\n      0x20\n        /* \"SecLessonPoc-main/contracts/verifySign/check/ectransfer.sol\":1601:1604  sig */\n      dup6\n        /* \"SecLessonPoc-main/contracts/verifySign/check/ectransfer.sol\":1597:1609  add(sig, 32) */\n      add\n        /* \"SecLessonPoc-main/contracts/verifySign/check/ectransfer.sol\":1591:1610  mload(add(sig, 32)) */\n      mload\n        /* \"SecLessonPoc-main/contracts/verifySign/check/ectransfer.sol\":1586:1610  r := mload(add(sig, 32)) */\n      swap3\n      pop\n        /* \"SecLessonPoc-main/contracts/verifySign/check/ectransfer.sol\":1644:1646  64 */\n      0x40\n        /* \"SecLessonPoc-main/contracts/verifySign/check/ectransfer.sol\":1639:1642  sig */\n      dup6\n        /* \"SecLessonPoc-main/contracts/verifySign/check/ectransfer.sol\":1635:1647  add(sig, 64) */\n      add\n        /* \"SecLessonPoc-main/contracts/verifySign/check/ectransfer.sol\":1629:1648  mload(add(sig, 64)) */\n      mload\n        /* \"SecLessonPoc-main/contracts/verifySign/check/ectransfer.sol\":1624:1648  s := mload(add(sig, 64)) */\n      swap2\n      pop\n        /* \"SecLessonPoc-main/contracts/verifySign/check/ectransfer.sol\":1692:1695  255 */\n      0xff\n        /* \"SecLessonPoc-main/contracts/verifySign/check/ectransfer.sol\":1686:1688  65 */\n      0x41\n        /* \"SecLessonPoc-main/contracts/verifySign/check/ectransfer.sol\":1681:1684  sig */\n      dup7\n        /* \"SecLessonPoc-main/contracts/verifySign/check/ectransfer.sol\":1677:1689  add(sig, 65) */\n      add\n        /* \"SecLessonPoc-main/contracts/verifySign/check/ectransfer.sol\":1671:1690  mload(add(sig, 65)) */\n      mload\n        /* \"SecLessonPoc-main/contracts/verifySign/check/ectransfer.sol\":1667:1696  and(mload(add(sig, 65)), 255) */\n      and\n        /* \"SecLessonPoc-main/contracts/verifySign/check/ectransfer.sol\":1662:1696  v := and(mload(add(sig, 65)), 255) */\n      swap1\n      pop\n        /* \"SecLessonPoc-main/contracts/verifySign/check/ectransfer.sol\":1725:1727  27 */\n      0x1b\n        /* \"SecLessonPoc-main/contracts/verifySign/check/ectransfer.sol\":1721:1722  v */\n      dup2\n        /* \"SecLessonPoc-main/contracts/verifySign/check/ectransfer.sol\":1721:1727  v < 27 */\n      0xff\n      and\n      lt\n        /* \"SecLessonPoc-main/contracts/verifySign/check/ectransfer.sol\":1717:1763  if (v < 27) {... */\n      iszero\n      tag_48\n      jumpi\n        /* \"SecLessonPoc-main/contracts/verifySign/check/ectransfer.sol\":1749:1751  27 */\n      0x1b\n        /* \"SecLessonPoc-main/contracts/verifySign/check/ectransfer.sol\":1744:1751  v += 27 */\n      dup2\n      tag_49\n      swap2\n      swap1\n      tag_50\n      jump\t// in\n    tag_49:\n      swap1\n      pop\n        /* \"SecLessonPoc-main/contracts/verifySign/check/ectransfer.sol\":1717:1763  if (v < 27) {... */\n    tag_48:\n        /* \"SecLessonPoc-main/contracts/verifySign/check/ectransfer.sol\":1784:1786  27 */\n      0x1b\n        /* \"SecLessonPoc-main/contracts/verifySign/check/ectransfer.sol\":1779:1780  v */\n      dup2\n        /* \"SecLessonPoc-main/contracts/verifySign/check/ectransfer.sol\":1779:1786  v != 27 */\n      0xff\n      and\n      eq\n      iszero\n        /* \"SecLessonPoc-main/contracts/verifySign/check/ectransfer.sol\":1779:1797  v != 27 && v != 28 */\n      dup1\n      iszero\n      tag_51\n      jumpi\n      pop\n        /* \"SecLessonPoc-main/contracts/verifySign/check/ectransfer.sol\":1795:1797  28 */\n      0x1c\n        /* \"SecLessonPoc-main/contracts/verifySign/check/ectransfer.sol\":1790:1791  v */\n      dup2\n        /* \"SecLessonPoc-main/contracts/verifySign/check/ectransfer.sol\":1790:1797  v != 28 */\n      0xff\n      and\n      eq\n      iszero\n        /* \"SecLessonPoc-main/contracts/verifySign/check/ectransfer.sol\":1779:1797  v != 27 && v != 28 */\n    tag_51:\n        /* \"SecLessonPoc-main/contracts/verifySign/check/ectransfer.sol\":1775:1845  if (v != 27 && v != 28) {... */\n      iszero\n      tag_52\n      jumpi\n        /* \"SecLessonPoc-main/contracts/verifySign/check/ectransfer.sol\":1829:1832  0x0 */\n      0x00\n        /* \"SecLessonPoc-main/contracts/verifySign/check/ectransfer.sol\":1814:1833  return address(0x0) */\n      swap4\n      pop\n      pop\n      pop\n      pop\n      jump(tag_46)\n        /* \"SecLessonPoc-main/contracts/verifySign/check/ectransfer.sol\":1775:1845  if (v != 27 && v != 28) {... */\n    tag_52:\n        /* \"SecLessonPoc-main/contracts/verifySign/check/ectransfer.sol\":1857:1876  bytes memory prefix */\n      0x00\n        /* \"SecLessonPoc-main/contracts/verifySign/check/ectransfer.sol\":1857:1913  bytes memory prefix = \"\\x19Ethereum Signed Message:\\n32\" */\n      mload(0x40)\n      dup1\n      0x40\n      add\n      0x40\n      mstore\n      dup1\n      0x1c\n      dup2\n      mstore\n      0x20\n      add\n      0x19457468657265756d205369676e6564204d6573736167653a0a333200000000\n      dup2\n      mstore\n      pop\n      swap1\n      pop\n        /* \"SecLessonPoc-main/contracts/verifySign/check/ectransfer.sol\":1958:1964  prefix */\n      dup1\n        /* \"SecLessonPoc-main/contracts/verifySign/check/ectransfer.sol\":1966:1970  hash */\n      dup8\n        /* \"SecLessonPoc-main/contracts/verifySign/check/ectransfer.sol\":1941:1971  abi.encodePacked(prefix, hash) */\n      add(0x20, mload(0x40))\n      tag_53\n      swap3\n      swap2\n      swap1\n      tag_54\n      jump\t// in\n    tag_53:\n      mload(0x40)\n      0x20\n      dup2\n      dup4\n      sub\n      sub\n      dup2\n      mstore\n      swap1\n      0x40\n      mstore\n        /* \"SecLessonPoc-main/contracts/verifySign/check/ectransfer.sol\":1931:1972  keccak256(abi.encodePacked(prefix, hash)) */\n      dup1\n      mload\n      swap1\n      0x20\n      add\n      keccak256\n        /* \"SecLessonPoc-main/contracts/verifySign/check/ectransfer.sol\":1924:1972  hash = keccak256(abi.encodePacked(prefix, hash)) */\n      swap7\n      pop\n        /* \"SecLessonPoc-main/contracts/verifySign/check/ectransfer.sol\":1992:2016  ecrecover(hash, v, r, s) */\n      0x01\n        /* \"SecLessonPoc-main/contracts/verifySign/check/ectransfer.sol\":2002:2006  hash */\n      dup8\n        /* \"SecLessonPoc-main/contracts/verifySign/check/ectransfer.sol\":2008:2009  v */\n      dup4\n        /* \"SecLessonPoc-main/contracts/verifySign/check/ectransfer.sol\":2011:2012  r */\n      dup7\n        /* \"SecLessonPoc-main/contracts/verifySign/check/ectransfer.sol\":2014:2015  s */\n      dup7\n        /* \"SecLessonPoc-main/contracts/verifySign/check/ectransfer.sol\":1992:2016  ecrecover(hash, v, r, s) */\n      mload(0x40)\n      0x00\n      dup2\n      mstore\n      0x20\n      add\n      0x40\n      mstore\n      mload(0x40)\n      tag_55\n      swap5\n      swap4\n      swap3\n      swap2\n      swap1\n      tag_56\n      jump\t// in\n    tag_55:\n      0x20\n      mload(0x40)\n      0x20\n      dup2\n      sub\n      swap1\n      dup1\n      dup5\n      sub\n      swap1\n      dup6\n      gas\n      staticcall\n      iszero\n      dup1\n      iszero\n      tag_58\n      jumpi\n      returndatasize\n      0x00\n      dup1\n      returndatacopy\n      revert(0x00, returndatasize)\n    tag_58:\n      pop\n      pop\n      pop\n      mload(sub(mload(0x40), 0x20))\n        /* \"SecLessonPoc-main/contracts/verifySign/check/ectransfer.sol\":1985:2016  return ecrecover(hash, v, r, s) */\n      swap5\n      pop\n      pop\n      pop\n      pop\n      pop\n        /* \"SecLessonPoc-main/contracts/verifySign/check/ectransfer.sol\":1329:2024  function ecrecovery(bytes32 hash, bytes memory sig) public pure returns (address) {... */\n    tag_46:\n      swap3\n      swap2\n      pop\n      pop\n      jump\t// out\n        /* \"SecLessonPoc-main/contracts/verifySign/check/ectransfer.sol\":511:852  function safeTransfer(address receiver, uint256 amount, bytes memory sig) public {... */\n    tag_33:\n        /* \"SecLessonPoc-main/contracts/verifySign/check/ectransfer.sol\":603:618  bytes32 message */\n      0x00\n        /* \"SecLessonPoc-main/contracts/verifySign/check/ectransfer.sol\":648:658  msg.sender */\n      caller\n        /* \"SecLessonPoc-main/contracts/verifySign/check/ectransfer.sol\":660:666  amount */\n      dup4\n        /* \"SecLessonPoc-main/contracts/verifySign/check/ectransfer.sol\":668:676  receiver */\n      dup6\n        /* \"SecLessonPoc-main/contracts/verifySign/check/ectransfer.sol\":631:677  abi.encodePacked(msg.sender, amount, receiver) */\n      add(0x20, mload(0x40))\n      tag_60\n      swap4\n      swap3\n      swap2\n      swap1\n      tag_61\n      jump\t// in\n    tag_60:\n      mload(0x40)\n      0x20\n      dup2\n      dup4\n      sub\n      sub\n      dup2\n      mstore\n      swap1\n      0x40\n      mstore\n        /* \"SecLessonPoc-main/contracts/verifySign/check/ectransfer.sol\":621:678  keccak256(abi.encodePacked(msg.sender, amount, receiver)) */\n      dup1\n      mload\n      swap1\n      0x20\n      add\n      keccak256\n        /* \"SecLessonPoc-main/contracts/verifySign/check/ectransfer.sol\":603:678  bytes32 message = keccak256(abi.encodePacked(msg.sender, amount, receiver)) */\n      swap1\n      pop\n        /* \"SecLessonPoc-main/contracts/verifySign/check/ectransfer.sol\":711:734  ecrecovery(message,sig) */\n      tag_62\n        /* \"SecLessonPoc-main/contracts/verifySign/check/ectransfer.sol\":722:729  message */\n      dup2\n        /* \"SecLessonPoc-main/contracts/verifySign/check/ectransfer.sol\":730:733  sig */\n      dup4\n        /* \"SecLessonPoc-main/contracts/verifySign/check/ectransfer.sol\":711:721  ecrecovery */\n      tag_27\n        /* \"SecLessonPoc-main/contracts/verifySign/check/ectransfer.sol\":711:734  ecrecovery(message,sig) */\n      jump\t// in\n    tag_62:\n        /* \"SecLessonPoc-main/contracts/verifySign/check/ectransfer.sol\":697:734  msg.sender == ecrecovery(message,sig) */\n      0xffffffffffffffffffffffffffffffffffffffff\n      and\n        /* \"SecLessonPoc-main/contracts/verifySign/check/ectransfer.sol\":697:707  msg.sender */\n      caller\n        /* \"SecLessonPoc-main/contracts/verifySign/check/ectransfer.sol\":697:734  msg.sender == ecrecovery(message,sig) */\n      0xffffffffffffffffffffffffffffffffffffffff\n      and\n      eq\n        /* \"SecLessonPoc-main/contracts/verifySign/check/ectransfer.sol\":689:760  require(msg.sender == ecrecovery(message,sig), \"your sig is not right\") */\n      tag_63\n      jumpi\n      mload(0x40)\n      0x08c379a000000000000000000000000000000000000000000000000000000000\n      dup2\n      mstore\n      0x04\n      add\n      tag_64\n      swap1\n      tag_65\n      jump\t// in\n    tag_64:\n      mload(0x40)\n      dup1\n      swap2\n      sub\n      swap1\n      revert\n    tag_63:\n        /* \"SecLessonPoc-main/contracts/verifySign/check/ectransfer.sol\":798:804  amount */\n      dup3\n        /* \"SecLessonPoc-main/contracts/verifySign/check/ectransfer.sol\":773:782  _balances */\n      0x01\n        /* \"SecLessonPoc-main/contracts/verifySign/check/ectransfer.sol\":773:794  _balances[msg.sender] */\n      0x00\n        /* \"SecLessonPoc-main/contracts/verifySign/check/ectransfer.sol\":783:793  msg.sender */\n      caller\n        /* \"SecLessonPoc-main/contracts/verifySign/check/ectransfer.sol\":773:794  _balances[msg.sender] */\n      0xffffffffffffffffffffffffffffffffffffffff\n      and\n      0xffffffffffffffffffffffffffffffffffffffff\n      and\n      dup2\n      mstore\n      0x20\n      add\n      swap1\n      dup2\n      mstore\n      0x20\n      add\n      0x00\n      keccak256\n      0x00\n        /* \"SecLessonPoc-main/contracts/verifySign/check/ectransfer.sol\":773:804  _balances[msg.sender] -= amount */\n      dup3\n      dup3\n      sload\n      tag_66\n      swap2\n      swap1\n      tag_44\n      jump\t// in\n    tag_66:\n      swap3\n      pop\n      pop\n      dup2\n      swap1\n      sstore\n      pop\n        /* \"SecLessonPoc-main/contracts/verifySign/check/ectransfer.sol\":838:844  amount */\n      dup3\n        /* \"SecLessonPoc-main/contracts/verifySign/check/ectransfer.sol\":815:824  _balances */\n      0x01\n        /* \"SecLessonPoc-main/contracts/verifySign/check/ectransfer.sol\":815:834  _balances[receiver] */\n      0x00\n        /* \"SecLessonPoc-main/contracts/verifySign/check/ectransfer.sol\":825:833  receiver */\n      dup7\n        /* \"SecLessonPoc-main/contracts/verifySign/check/ectransfer.sol\":815:834  _balances[receiver] */\n      0xffffffffffffffffffffffffffffffffffffffff\n      and\n      0xffffffffffffffffffffffffffffffffffffffff\n      and\n      dup2\n      mstore\n      0x20\n      add\n      swap1\n      dup2\n      mstore\n      0x20\n      add\n      0x00\n      keccak256\n      0x00\n        /* \"SecLessonPoc-main/contracts/verifySign/check/ectransfer.sol\":815:844  _balances[receiver] += amount */\n      dup3\n      dup3\n      sload\n      tag_67\n      swap2\n      swap1\n      tag_42\n      jump\t// in\n    tag_67:\n      swap3\n      pop\n      pop\n      dup2\n      swap1\n      sstore\n      pop\n        /* \"SecLessonPoc-main/contracts/verifySign/check/ectransfer.sol\":592:852  {... */\n      pop\n        /* \"SecLessonPoc-main/contracts/verifySign/check/ectransfer.sol\":511:852  function safeTransfer(address receiver, uint256 amount, bytes memory sig) public {... */\n      pop\n      pop\n      pop\n      jump\t// out\n        /* \"SecLessonPoc-main/contracts/verifySign/check/ectransfer.sol\":190:210  uint256 public score */\n    tag_35:\n      sload(0x00)\n      dup2\n      jump\t// out\n        /* \"SecLessonPoc-main/contracts/verifySign/check/ectransfer.sol\":1058:1321  function isCompleted() public {... */\n    tag_38:\n        /* \"SecLessonPoc-main/contracts/verifySign/check/ectransfer.sol\":1107:1112  isAir */\n      0x02\n        /* \"SecLessonPoc-main/contracts/verifySign/check/ectransfer.sol\":1107:1124  isAir[msg.sender] */\n      0x00\n        /* \"SecLessonPoc-main/contracts/verifySign/check/ectransfer.sol\":1113:1123  msg.sender */\n      caller\n        /* \"SecLessonPoc-main/contracts/verifySign/check/ectransfer.sol\":1107:1124  isAir[msg.sender] */\n      0xffffffffffffffffffffffffffffffffffffffff\n      and\n      0xffffffffffffffffffffffffffffffffffffffff\n      and\n      dup2\n      mstore\n      0x20\n      add\n      swap1\n      dup2\n      mstore\n      0x20\n      add\n      0x00\n      keccak256\n      0x00\n      swap1\n      sload\n      swap1\n      0x0100\n      exp\n      swap1\n      div\n      0xff\n      and\n        /* \"SecLessonPoc-main/contracts/verifySign/check/ectransfer.sol\":1099:1125  require(isAir[msg.sender]) */\n      tag_69\n      jumpi\n      0x00\n      dup1\n      revert\n    tag_69:\n        /* \"SecLessonPoc-main/contracts/verifySign/check/ectransfer.sol\":1144:1145  0 */\n      0x00\n        /* \"SecLessonPoc-main/contracts/verifySign/check/ectransfer.sol\":1136:1141  score */\n      dup1\n        /* \"SecLessonPoc-main/contracts/verifySign/check/ectransfer.sol\":1136:1145  score = 0 */\n      dup2\n      swap1\n      sstore\n      pop\n        /* \"SecLessonPoc-main/contracts/verifySign/check/ectransfer.sol\":1184:1185  0 */\n      0x00\n        /* \"SecLessonPoc-main/contracts/verifySign/check/ectransfer.sol\":1159:1168  _balances */\n      0x01\n        /* \"SecLessonPoc-main/contracts/verifySign/check/ectransfer.sol\":1159:1180  _balances[msg.sender] */\n      0x00\n        /* \"SecLessonPoc-main/contracts/verifySign/check/ectransfer.sol\":1169:1179  msg.sender */\n      caller\n        /* \"SecLessonPoc-main/contracts/verifySign/check/ectransfer.sol\":1159:1180  _balances[msg.sender] */\n      0xffffffffffffffffffffffffffffffffffffffff\n      and\n      0xffffffffffffffffffffffffffffffffffffffff\n      and\n      dup2\n      mstore\n      0x20\n      add\n      swap1\n      dup2\n      mstore\n      0x20\n      add\n      0x00\n      keccak256\n      sload\n        /* \"SecLessonPoc-main/contracts/verifySign/check/ectransfer.sol\":1159:1185  _balances[msg.sender] == 0 */\n      sub\n        /* \"SecLessonPoc-main/contracts/verifySign/check/ectransfer.sol\":1156:1224  if(_balances[msg.sender] == 0){... */\n      tag_70\n      jumpi\n        /* \"SecLessonPoc-main/contracts/verifySign/check/ectransfer.sol\":1210:1212  75 */\n      0x4b\n        /* \"SecLessonPoc-main/contracts/verifySign/check/ectransfer.sol\":1201:1206  score */\n      0x00\n      dup1\n        /* \"SecLessonPoc-main/contracts/verifySign/check/ectransfer.sol\":1201:1212  score += 75 */\n      dup3\n      dup3\n      sload\n      tag_71\n      swap2\n      swap1\n      tag_42\n      jump\t// in\n    tag_71:\n      swap3\n      pop\n      pop\n      dup2\n      swap1\n      sstore\n      pop\n        /* \"SecLessonPoc-main/contracts/verifySign/check/ectransfer.sol\":1156:1224  if(_balances[msg.sender] == 0){... */\n    tag_70:\n        /* \"SecLessonPoc-main/contracts/verifySign/check/ectransfer.sol\":1263:1274  10000 ether */\n      0x021e19e0c9bab2400000\n        /* \"SecLessonPoc-main/contracts/verifySign/check/ectransfer.sol\":1237:1246  _balances */\n      0x01\n        /* \"SecLessonPoc-main/contracts/verifySign/check/ectransfer.sol\":1237:1261  _balances[address(this)] */\n      0x00\n        /* \"SecLessonPoc-main/contracts/verifySign/check/ectransfer.sol\":1255:1259  this */\n      address\n        /* \"SecLessonPoc-main/contracts/verifySign/check/ectransfer.sol\":1237:1261  _balances[address(this)] */\n      0xffffffffffffffffffffffffffffffffffffffff\n      and\n      0xffffffffffffffffffffffffffffffffffffffff\n      and\n      dup2\n      mstore\n      0x20\n      add\n      swap1\n      dup2\n      mstore\n      0x20\n      add\n      0x00\n      keccak256\n      sload\n        /* \"SecLessonPoc-main/contracts/verifySign/check/ectransfer.sol\":1237:1274  _balances[address(this)]==10000 ether */\n      sub\n        /* \"SecLessonPoc-main/contracts/verifySign/check/ectransfer.sol\":1234:1314  if(_balances[address(this)]==10000 ether) {... */\n      tag_72\n      jumpi\n        /* \"SecLessonPoc-main/contracts/verifySign/check/ectransfer.sol\":1300:1302  25 */\n      0x19\n        /* \"SecLessonPoc-main/contracts/verifySign/check/ectransfer.sol\":1291:1296  score */\n      0x00\n      dup1\n        /* \"SecLessonPoc-main/contracts/verifySign/check/ectransfer.sol\":1291:1302  score += 25 */\n      dup3\n      dup3\n      sload\n      tag_73\n      swap2\n      swap1\n      tag_42\n      jump\t// in\n    tag_73:\n      swap3\n      pop\n      pop\n      dup2\n      swap1\n      sstore\n      pop\n        /* \"SecLessonPoc-main/contracts/verifySign/check/ectransfer.sol\":1234:1314  if(_balances[address(this)]==10000 ether) {... */\n    tag_72:\n        /* \"SecLessonPoc-main/contracts/verifySign/check/ectransfer.sol\":1058:1321  function isCompleted() public {... */\n      jump\t// out\n        /* \"#utility.yul\":7:82   */\n    tag_74:\n        /* \"#utility.yul\":40:46   */\n      0x00\n        /* \"#utility.yul\":73:75   */\n      0x40\n        /* \"#utility.yul\":67:76   */\n      mload\n        /* \"#utility.yul\":57:76   */\n      swap1\n      pop\n        /* \"#utility.yul\":7:82   */\n      swap1\n      jump\t// out\n        /* \"#utility.yul\":88:205   */\n    tag_75:\n        /* \"#utility.yul\":197:198   */\n      0x00\n        /* \"#utility.yul\":194:195   */\n      dup1\n        /* \"#utility.yul\":187:199   */\n      revert\n        /* \"#utility.yul\":211:328   */\n    tag_76:\n        /* \"#utility.yul\":320:321   */\n      0x00\n        /* \"#utility.yul\":317:318   */\n      dup1\n        /* \"#utility.yul\":310:322   */\n      revert\n        /* \"#utility.yul\":334:460   */\n    tag_77:\n        /* \"#utility.yul\":371:378   */\n      0x00\n        /* \"#utility.yul\":411:453   */\n      0xffffffffffffffffffffffffffffffffffffffff\n        /* \"#utility.yul\":404:409   */\n      dup3\n        /* \"#utility.yul\":400:454   */\n      and\n        /* \"#utility.yul\":389:454   */\n      swap1\n      pop\n        /* \"#utility.yul\":334:460   */\n      swap2\n      swap1\n      pop\n      jump\t// out\n        /* \"#utility.yul\":466:562   */\n    tag_78:\n        /* \"#utility.yul\":503:510   */\n      0x00\n        /* \"#utility.yul\":532:556   */\n      tag_126\n        /* \"#utility.yul\":550:555   */\n      dup3\n        /* \"#utility.yul\":532:556   */\n      tag_77\n      jump\t// in\n    tag_126:\n        /* \"#utility.yul\":521:556   */\n      swap1\n      pop\n        /* \"#utility.yul\":466:562   */\n      swap2\n      swap1\n      pop\n      jump\t// out\n        /* \"#utility.yul\":568:690   */\n    tag_79:\n        /* \"#utility.yul\":641:665   */\n      tag_128\n        /* \"#utility.yul\":659:664   */\n      dup2\n        /* \"#utility.yul\":641:665   */\n      tag_78\n      jump\t// in\n    tag_128:\n        /* \"#utility.yul\":634:639   */\n      dup2\n        /* \"#utility.yul\":631:666   */\n      eq\n        /* \"#utility.yul\":621:684   */\n      tag_129\n      jumpi\n        /* \"#utility.yul\":680:681   */\n      0x00\n        /* \"#utility.yul\":677:678   */\n      dup1\n        /* \"#utility.yul\":670:682   */\n      revert\n        /* \"#utility.yul\":621:684   */\n    tag_129:\n        /* \"#utility.yul\":568:690   */\n      pop\n      jump\t// out\n        /* \"#utility.yul\":696:835   */\n    tag_80:\n        /* \"#utility.yul\":742:747   */\n      0x00\n        /* \"#utility.yul\":780:786   */\n      dup2\n        /* \"#utility.yul\":767:787   */\n      calldataload\n        /* \"#utility.yul\":758:787   */\n      swap1\n      pop\n        /* \"#utility.yul\":796:829   */\n      tag_131\n        /* \"#utility.yul\":823:828   */\n      dup2\n        /* \"#utility.yul\":796:829   */\n      tag_79\n      jump\t// in\n    tag_131:\n        /* \"#utility.yul\":696:835   */\n      swap3\n      swap2\n      pop\n      pop\n      jump\t// out\n        /* \"#utility.yul\":841:1170   */\n    tag_15:\n        /* \"#utility.yul\":900:906   */\n      0x00\n        /* \"#utility.yul\":949:951   */\n      0x20\n        /* \"#utility.yul\":937:946   */\n      dup3\n        /* \"#utility.yul\":928:935   */\n      dup5\n        /* \"#utility.yul\":924:947   */\n      sub\n        /* \"#utility.yul\":920:952   */\n      slt\n        /* \"#utility.yul\":917:1036   */\n      iszero\n      tag_133\n      jumpi\n        /* \"#utility.yul\":955:1034   */\n      tag_134\n      tag_75\n      jump\t// in\n    tag_134:\n        /* \"#utility.yul\":917:1036   */\n    tag_133:\n        /* \"#utility.yul\":1075:1076   */\n      0x00\n        /* \"#utility.yul\":1100:1153   */\n      tag_135\n        /* \"#utility.yul\":1145:1152   */\n      dup5\n        /* \"#utility.yul\":1136:1142   */\n      dup3\n        /* \"#utility.yul\":1125:1134   */\n      dup6\n        /* \"#utility.yul\":1121:1143   */\n      add\n        /* \"#utility.yul\":1100:1153   */\n      tag_80\n      jump\t// in\n    tag_135:\n        /* \"#utility.yul\":1090:1153   */\n      swap2\n      pop\n        /* \"#utility.yul\":1046:1163   */\n      pop\n        /* \"#utility.yul\":841:1170   */\n      swap3\n      swap2\n      pop\n      pop\n      jump\t// out\n        /* \"#utility.yul\":1176:1266   */\n    tag_81:\n        /* \"#utility.yul\":1210:1217   */\n      0x00\n        /* \"#utility.yul\":1253:1258   */\n      dup2\n        /* \"#utility.yul\":1246:1259   */\n      iszero\n        /* \"#utility.yul\":1239:1260   */\n      iszero\n        /* \"#utility.yul\":1228:1260   */\n      swap1\n      pop\n        /* \"#utility.yul\":1176:1266   */\n      swap2\n      swap1\n      pop\n      jump\t// out\n        /* \"#utility.yul\":1272:1381   */\n    tag_82:\n        /* \"#utility.yul\":1353:1374   */\n      tag_138\n        /* \"#utility.yul\":1368:1373   */\n      dup2\n        /* \"#utility.yul\":1353:1374   */\n      tag_81\n      jump\t// in\n    tag_138:\n        /* \"#utility.yul\":1348:1351   */\n      dup3\n        /* \"#utility.yul\":1341:1375   */\n      mstore\n        /* \"#utility.yul\":1272:1381   */\n      pop\n      pop\n      jump\t// out\n        /* \"#utility.yul\":1387:1597   */\n    tag_18:\n        /* \"#utility.yul\":1474:1478   */\n      0x00\n        /* \"#utility.yul\":1512:1514   */\n      0x20\n        /* \"#utility.yul\":1501:1510   */\n      dup3\n        /* \"#utility.yul\":1497:1515   */\n      add\n        /* \"#utility.yul\":1489:1515   */\n      swap1\n      pop\n        /* \"#utility.yul\":1525:1590   */\n      tag_140\n        /* \"#utility.yul\":1587:1588   */\n      0x00\n        /* \"#utility.yul\":1576:1585   */\n      dup4\n        /* \"#utility.yul\":1572:1589   */\n      add\n        /* \"#utility.yul\":1563:1569   */\n      dup5\n        /* \"#utility.yul\":1525:1590   */\n      tag_82\n      jump\t// in\n    tag_140:\n        /* \"#utility.yul\":1387:1597   */\n      swap3\n      swap2\n      pop\n      pop\n      jump\t// out\n        /* \"#utility.yul\":1603:1680   */\n    tag_83:\n        /* \"#utility.yul\":1640:1647   */\n      0x00\n        /* \"#utility.yul\":1669:1674   */\n      dup2\n        /* \"#utility.yul\":1658:1674   */\n      swap1\n      pop\n        /* \"#utility.yul\":1603:1680   */\n      swap2\n      swap1\n      pop\n      jump\t// out\n        /* \"#utility.yul\":1686:1804   */\n    tag_84:\n        /* \"#utility.yul\":1773:1797   */\n      tag_143\n        /* \"#utility.yul\":1791:1796   */\n      dup2\n        /* \"#utility.yul\":1773:1797   */\n      tag_83\n      jump\t// in\n    tag_143:\n        /* \"#utility.yul\":1768:1771   */\n      dup3\n        /* \"#utility.yul\":1761:1798   */\n      mstore\n        /* \"#utility.yul\":1686:1804   */\n      pop\n      pop\n      jump\t// out\n        /* \"#utility.yul\":1810:2032   */\n    tag_23:\n        /* \"#utility.yul\":1903:1907   */\n      0x00\n        /* \"#utility.yul\":1941:1943   */\n      0x20\n        /* \"#utility.yul\":1930:1939   */\n      dup3\n        /* \"#utility.yul\":1926:1944   */\n      add\n        /* \"#utility.yul\":1918:1944   */\n      swap1\n      pop\n        /* \"#utility.yul\":1954:2025   */\n      tag_145\n        /* \"#utility.yul\":2022:2023   */\n      0x00\n        /* \"#utility.yul\":2011:2020   */\n      dup4\n        /* \"#utility.yul\":2007:2024   */\n      add\n        /* \"#utility.yul\":1998:2004   */\n      dup5\n        /* \"#utility.yul\":1954:2025   */\n      tag_84\n      jump\t// in\n    tag_145:\n        /* \"#utility.yul\":1810:2032   */\n      swap3\n      swap2\n      pop\n      pop\n      jump\t// out\n        /* \"#utility.yul\":2038:2115   */\n    tag_85:\n        /* \"#utility.yul\":2075:2082   */\n      0x00\n        /* \"#utility.yul\":2104:2109   */\n      dup2\n        /* \"#utility.yul\":2093:2109   */\n      swap1\n      pop\n        /* \"#utility.yul\":2038:2115   */\n      swap2\n      swap1\n      pop\n      jump\t// out\n        /* \"#utility.yul\":2121:2243   */\n    tag_86:\n        /* \"#utility.yul\":2194:2218   */\n      tag_148\n        /* \"#utility.yul\":2212:2217   */\n      dup2\n        /* \"#utility.yul\":2194:2218   */\n      tag_85\n      jump\t// in\n    tag_148:\n        /* \"#utility.yul\":2187:2192   */\n      dup2\n        /* \"#utility.yul\":2184:2219   */\n      eq\n        /* \"#utility.yul\":2174:2237   */\n      tag_149\n      jumpi\n        /* \"#utility.yul\":2233:2234   */\n      0x00\n        /* \"#utility.yul\":2230:2231   */\n      dup1\n        /* \"#utility.yul\":2223:2235   */\n      revert\n        /* \"#utility.yul\":2174:2237   */\n    tag_149:\n        /* \"#utility.yul\":2121:2243   */\n      pop\n      jump\t// out\n        /* \"#utility.yul\":2249:2388   */\n    tag_87:\n        /* \"#utility.yul\":2295:2300   */\n      0x00\n        /* \"#utility.yul\":2333:2339   */\n      dup2\n        /* \"#utility.yul\":2320:2340   */\n      calldataload\n        /* \"#utility.yul\":2311:2340   */\n      swap1\n      pop\n        /* \"#utility.yul\":2349:2382   */\n      tag_151\n        /* \"#utility.yul\":2376:2381   */\n      dup2\n        /* \"#utility.yul\":2349:2382   */\n      tag_86\n      jump\t// in\n    tag_151:\n        /* \"#utility.yul\":2249:2388   */\n      swap3\n      swap2\n      pop\n      pop\n      jump\t// out\n        /* \"#utility.yul\":2394:2511   */\n    tag_88:\n        /* \"#utility.yul\":2503:2504   */\n      0x00\n        /* \"#utility.yul\":2500:2501   */\n      dup1\n        /* \"#utility.yul\":2493:2505   */\n      revert\n        /* \"#utility.yul\":2517:2634   */\n    tag_89:\n        /* \"#utility.yul\":2626:2627   */\n      0x00\n        /* \"#utility.yul\":2623:2624   */\n      dup1\n        /* \"#utility.yul\":2616:2628   */\n      revert\n        /* \"#utility.yul\":2640:2742   */\n    tag_90:\n        /* \"#utility.yul\":2681:2687   */\n      0x00\n        /* \"#utility.yul\":2732:2734   */\n      0x1f\n        /* \"#utility.yul\":2728:2735   */\n      not\n        /* \"#utility.yul\":2723:2725   */\n      0x1f\n        /* \"#utility.yul\":2716:2721   */\n      dup4\n        /* \"#utility.yul\":2712:2726   */\n      add\n        /* \"#utility.yul\":2708:2736   */\n      and\n        /* \"#utility.yul\":2698:2736   */\n      swap1\n      pop\n        /* \"#utility.yul\":2640:2742   */\n      swap2\n      swap1\n      pop\n      jump\t// out\n        /* \"#utility.yul\":2748:2928   */\n    tag_91:\n        /* \"#utility.yul\":2796:2873   */\n      0x4e487b7100000000000000000000000000000000000000000000000000000000\n        /* \"#utility.yul\":2793:2794   */\n      0x00\n        /* \"#utility.yul\":2786:2874   */\n      mstore\n        /* \"#utility.yul\":2893:2897   */\n      0x41\n        /* \"#utility.yul\":2890:2891   */\n      0x04\n        /* \"#utility.yul\":2883:2898   */\n      mstore\n        /* \"#utility.yul\":2917:2921   */\n      0x24\n        /* \"#utility.yul\":2914:2915   */\n      0x00\n        /* \"#utility.yul\":2907:2922   */\n      revert\n        /* \"#utility.yul\":2934:3215   */\n    tag_92:\n        /* \"#utility.yul\":3017:3044   */\n      tag_157\n        /* \"#utility.yul\":3039:3043   */\n      dup3\n        /* \"#utility.yul\":3017:3044   */\n      tag_90\n      jump\t// in\n    tag_157:\n        /* \"#utility.yul\":3009:3015   */\n      dup2\n        /* \"#utility.yul\":3005:3045   */\n      add\n        /* \"#utility.yul\":3147:3153   */\n      dup2\n        /* \"#utility.yul\":3135:3145   */\n      dup2\n        /* \"#utility.yul\":3132:3154   */\n      lt\n        /* \"#utility.yul\":3111:3129   */\n      0xffffffffffffffff\n        /* \"#utility.yul\":3099:3109   */\n      dup3\n        /* \"#utility.yul\":3096:3130   */\n      gt\n        /* \"#utility.yul\":3093:3155   */\n      or\n        /* \"#utility.yul\":3090:3178   */\n      iszero\n      tag_158\n      jumpi\n        /* \"#utility.yul\":3158:3176   */\n      tag_159\n      tag_91\n      jump\t// in\n    tag_159:\n        /* \"#utility.yul\":3090:3178   */\n    tag_158:\n        /* \"#utility.yul\":3198:3208   */\n      dup1\n        /* \"#utility.yul\":3194:3196   */\n      0x40\n        /* \"#utility.yul\":3187:3209   */\n      mstore\n        /* \"#utility.yul\":2977:3215   */\n      pop\n        /* \"#utility.yul\":2934:3215   */\n      pop\n      pop\n      jump\t// out\n        /* \"#utility.yul\":3221:3350   */\n    tag_93:\n        /* \"#utility.yul\":3255:3261   */\n      0x00\n        /* \"#utility.yul\":3282:3302   */\n      tag_161\n      tag_74\n      jump\t// in\n    tag_161:\n        /* \"#utility.yul\":3272:3302   */\n      swap1\n      pop\n        /* \"#utility.yul\":3311:3344   */\n      tag_162\n        /* \"#utility.yul\":3339:3343   */\n      dup3\n        /* \"#utility.yul\":3331:3337   */\n      dup3\n        /* \"#utility.yul\":3311:3344   */\n      tag_92\n      jump\t// in\n    tag_162:\n        /* \"#utility.yul\":3221:3350   */\n      swap2\n      swap1\n      pop\n      jump\t// out\n        /* \"#utility.yul\":3356:3663   */\n    tag_94:\n        /* \"#utility.yul\":3417:3421   */\n      0x00\n        /* \"#utility.yul\":3507:3525   */\n      0xffffffffffffffff\n        /* \"#utility.yul\":3499:3505   */\n      dup3\n        /* \"#utility.yul\":3496:3526   */\n      gt\n        /* \"#utility.yul\":3493:3549   */\n      iszero\n      tag_164\n      jumpi\n        /* \"#utility.yul\":3529:3547   */\n      tag_165\n      tag_91\n      jump\t// in\n    tag_165:\n        /* \"#utility.yul\":3493:3549   */\n    tag_164:\n        /* \"#utility.yul\":3567:3596   */\n      tag_166\n        /* \"#utility.yul\":3589:3595   */\n      dup3\n        /* \"#utility.yul\":3567:3596   */\n      tag_90\n      jump\t// in\n    tag_166:\n        /* \"#utility.yul\":3559:3596   */\n      swap1\n      pop\n        /* \"#utility.yul\":3651:3655   */\n      0x20\n        /* \"#utility.yul\":3645:3649   */\n      dup2\n        /* \"#utility.yul\":3641:3656   */\n      add\n        /* \"#utility.yul\":3633:3656   */\n      swap1\n      pop\n        /* \"#utility.yul\":3356:3663   */\n      swap2\n      swap1\n      pop\n      jump\t// out\n        /* \"#utility.yul\":3669:3815   */\n    tag_95:\n        /* \"#utility.yul\":3766:3772   */\n      dup3\n        /* \"#utility.yul\":3761:3764   */\n      dup2\n        /* \"#utility.yul\":3756:3759   */\n      dup4\n        /* \"#utility.yul\":3743:3773   */\n      calldatacopy\n        /* \"#utility.yul\":3807:3808   */\n      0x00\n        /* \"#utility.yul\":3798:3804   */\n      dup4\n        /* \"#utility.yul\":3793:3796   */\n      dup4\n        /* \"#utility.yul\":3789:3805   */\n      add\n        /* \"#utility.yul\":3782:3809   */\n      mstore\n        /* \"#utility.yul\":3669:3815   */\n      pop\n      pop\n      pop\n      jump\t// out\n        /* \"#utility.yul\":3821:4244   */\n    tag_96:\n        /* \"#utility.yul\":3898:3903   */\n      0x00\n        /* \"#utility.yul\":3923:3988   */\n      tag_169\n        /* \"#utility.yul\":3939:3987   */\n      tag_170\n        /* \"#utility.yul\":3980:3986   */\n      dup5\n        /* \"#utility.yul\":3939:3987   */\n      tag_94\n      jump\t// in\n    tag_170:\n        /* \"#utility.yul\":3923:3988   */\n      tag_93\n      jump\t// in\n    tag_169:\n        /* \"#utility.yul\":3914:3988   */\n      swap1\n      pop\n        /* \"#utility.yul\":4011:4017   */\n      dup3\n        /* \"#utility.yul\":4004:4009   */\n      dup2\n        /* \"#utility.yul\":3997:4018   */\n      mstore\n        /* \"#utility.yul\":4049:4053   */\n      0x20\n        /* \"#utility.yul\":4042:4047   */\n      dup2\n        /* \"#utility.yul\":4038:4054   */\n      add\n        /* \"#utility.yul\":4087:4090   */\n      dup5\n        /* \"#utility.yul\":4078:4084   */\n      dup5\n        /* \"#utility.yul\":4073:4076   */\n      dup5\n        /* \"#utility.yul\":4069:4085   */\n      add\n        /* \"#utility.yul\":4066:4091   */\n      gt\n        /* \"#utility.yul\":4063:4175   */\n      iszero\n      tag_171\n      jumpi\n        /* \"#utility.yul\":4094:4173   */\n      tag_172\n      tag_89\n      jump\t// in\n    tag_172:\n        /* \"#utility.yul\":4063:4175   */\n    tag_171:\n        /* \"#utility.yul\":4184:4238   */\n      tag_173\n        /* \"#utility.yul\":4231:4237   */\n      dup5\n        /* \"#utility.yul\":4226:4229   */\n      dup3\n        /* \"#utility.yul\":4221:4224   */\n      dup6\n        /* \"#utility.yul\":4184:4238   */\n      tag_95\n      jump\t// in\n    tag_173:\n        /* \"#utility.yul\":3904:4244   */\n      pop\n        /* \"#utility.yul\":3821:4244   */\n      swap4\n      swap3\n      pop\n      pop\n      pop\n      jump\t// out\n        /* \"#utility.yul\":4263:4601   */\n    tag_97:\n        /* \"#utility.yul\":4318:4323   */\n      0x00\n        /* \"#utility.yul\":4367:4370   */\n      dup3\n        /* \"#utility.yul\":4360:4364   */\n      0x1f\n        /* \"#utility.yul\":4352:4358   */\n      dup4\n        /* \"#utility.yul\":4348:4365   */\n      add\n        /* \"#utility.yul\":4344:4371   */\n      slt\n        /* \"#utility.yul\":4334:4456   */\n      tag_175\n      jumpi\n        /* \"#utility.yul\":4375:4454   */\n      tag_176\n      tag_88\n      jump\t// in\n    tag_176:\n        /* \"#utility.yul\":4334:4456   */\n    tag_175:\n        /* \"#utility.yul\":4492:4498   */\n      dup2\n        /* \"#utility.yul\":4479:4499   */\n      calldataload\n        /* \"#utility.yul\":4517:4595   */\n      tag_177\n        /* \"#utility.yul\":4591:4594   */\n      dup5\n        /* \"#utility.yul\":4583:4589   */\n      dup3\n        /* \"#utility.yul\":4576:4580   */\n      0x20\n        /* \"#utility.yul\":4568:4574   */\n      dup7\n        /* \"#utility.yul\":4564:4581   */\n      add\n        /* \"#utility.yul\":4517:4595   */\n      tag_96\n      jump\t// in\n    tag_177:\n        /* \"#utility.yul\":4508:4595   */\n      swap2\n      pop\n        /* \"#utility.yul\":4324:4601   */\n      pop\n        /* \"#utility.yul\":4263:4601   */\n      swap3\n      swap2\n      pop\n      pop\n      jump\t// out\n        /* \"#utility.yul\":4607:5259   */\n    tag_26:\n        /* \"#utility.yul\":4684:4690   */\n      0x00\n        /* \"#utility.yul\":4692:4698   */\n      dup1\n        /* \"#utility.yul\":4741:4743   */\n      0x40\n        /* \"#utility.yul\":4729:4738   */\n      dup4\n        /* \"#utility.yul\":4720:4727   */\n      dup6\n        /* \"#utility.yul\":4716:4739   */\n      sub\n        /* \"#utility.yul\":4712:4744   */\n      slt\n        /* \"#utility.yul\":4709:4828   */\n      iszero\n      tag_179\n      jumpi\n        /* \"#utility.yul\":4747:4826   */\n      tag_180\n      tag_75\n      jump\t// in\n    tag_180:\n        /* \"#utility.yul\":4709:4828   */\n    tag_179:\n        /* \"#utility.yul\":4867:4868   */\n      0x00\n        /* \"#utility.yul\":4892:4945   */\n      tag_181\n        /* \"#utility.yul\":4937:4944   */\n      dup6\n        /* \"#utility.yul\":4928:4934   */\n      dup3\n        /* \"#utility.yul\":4917:4926   */\n      dup7\n        /* \"#utility.yul\":4913:4935   */\n      add\n        /* \"#utility.yul\":4892:4945   */\n      tag_87\n      jump\t// in\n    tag_181:\n        /* \"#utility.yul\":4882:4945   */\n      swap3\n      pop\n        /* \"#utility.yul\":4838:4955   */\n      pop\n        /* \"#utility.yul\":5022:5024   */\n      0x20\n        /* \"#utility.yul\":5011:5020   */\n      dup4\n        /* \"#utility.yul\":5007:5025   */\n      add\n        /* \"#utility.yul\":4994:5026   */\n      calldataload\n        /* \"#utility.yul\":5053:5071   */\n      0xffffffffffffffff\n        /* \"#utility.yul\":5045:5051   */\n      dup2\n        /* \"#utility.yul\":5042:5072   */\n      gt\n        /* \"#utility.yul\":5039:5156   */\n      iszero\n      tag_182\n      jumpi\n        /* \"#utility.yul\":5075:5154   */\n      tag_183\n      tag_76\n      jump\t// in\n    tag_183:\n        /* \"#utility.yul\":5039:5156   */\n    tag_182:\n        /* \"#utility.yul\":5180:5242   */\n      tag_184\n        /* \"#utility.yul\":5234:5241   */\n      dup6\n        /* \"#utility.yul\":5225:5231   */\n      dup3\n        /* \"#utility.yul\":5214:5223   */\n      dup7\n        /* \"#utility.yul\":5210:5232   */\n      add\n        /* \"#utility.yul\":5180:5242   */\n      tag_97\n      jump\t// in\n    tag_184:\n        /* \"#utility.yul\":5170:5242   */\n      swap2\n      pop\n        /* \"#utility.yul\":4965:5252   */\n      pop\n        /* \"#utility.yul\":4607:5259   */\n      swap3\n      pop\n      swap3\n      swap1\n      pop\n      jump\t// out\n        /* \"#utility.yul\":5265:5383   */\n    tag_98:\n        /* \"#utility.yul\":5352:5376   */\n      tag_186\n        /* \"#utility.yul\":5370:5375   */\n      dup2\n        /* \"#utility.yul\":5352:5376   */\n      tag_78\n      jump\t// in\n    tag_186:\n        /* \"#utility.yul\":5347:5350   */\n      dup3\n        /* \"#utility.yul\":5340:5377   */\n      mstore\n        /* \"#utility.yul\":5265:5383   */\n      pop\n      pop\n      jump\t// out\n        /* \"#utility.yul\":5389:5611   */\n    tag_29:\n        /* \"#utility.yul\":5482:5486   */\n      0x00\n        /* \"#utility.yul\":5520:5522   */\n      0x20\n        /* \"#utility.yul\":5509:5518   */\n      dup3\n        /* \"#utility.yul\":5505:5523   */\n      add\n        /* \"#utility.yul\":5497:5523   */\n      swap1\n      pop\n        /* \"#utility.yul\":5533:5604   */\n      tag_188\n        /* \"#utility.yul\":5601:5602   */\n      0x00\n        /* \"#utility.yul\":5590:5599   */\n      dup4\n        /* \"#utility.yul\":5586:5603   */\n      add\n        /* \"#utility.yul\":5577:5583   */\n      dup5\n        /* \"#utility.yul\":5533:5604   */\n      tag_98\n      jump\t// in\n    tag_188:\n        /* \"#utility.yul\":5389:5611   */\n      swap3\n      swap2\n      pop\n      pop\n      jump\t// out\n        /* \"#utility.yul\":5617:5739   */\n    tag_99:\n        /* \"#utility.yul\":5690:5714   */\n      tag_190\n        /* \"#utility.yul\":5708:5713   */\n      dup2\n        /* \"#utility.yul\":5690:5714   */\n      tag_83\n      jump\t// in\n    tag_190:\n        /* \"#utility.yul\":5683:5688   */\n      dup2\n        /* \"#utility.yul\":5680:5715   */\n      eq\n        /* \"#utility.yul\":5670:5733   */\n      tag_191\n      jumpi\n        /* \"#utility.yul\":5729:5730   */\n      0x00\n        /* \"#utility.yul\":5726:5727   */\n      dup1\n        /* \"#utility.yul\":5719:5731   */\n      revert\n        /* \"#utility.yul\":5670:5733   */\n    tag_191:\n        /* \"#utility.yul\":5617:5739   */\n      pop\n      jump\t// out\n        /* \"#utility.yul\":5745:5884   */\n    tag_100:\n        /* \"#utility.yul\":5791:5796   */\n      0x00\n        /* \"#utility.yul\":5829:5835   */\n      dup2\n        /* \"#utility.yul\":5816:5836   */\n      calldataload\n        /* \"#utility.yul\":5807:5836   */\n      swap1\n      pop\n        /* \"#utility.yul\":5845:5878   */\n      tag_193\n        /* \"#utility.yul\":5872:5877   */\n      dup2\n        /* \"#utility.yul\":5845:5878   */\n      tag_99\n      jump\t// in\n    tag_193:\n        /* \"#utility.yul\":5745:5884   */\n      swap3\n      swap2\n      pop\n      pop\n      jump\t// out\n        /* \"#utility.yul\":5890:6687   */\n    tag_32:\n        /* \"#utility.yul\":5976:5982   */\n      0x00\n        /* \"#utility.yul\":5984:5990   */\n      dup1\n        /* \"#utility.yul\":5992:5998   */\n      0x00\n        /* \"#utility.yul\":6041:6043   */\n      0x60\n        /* \"#utility.yul\":6029:6038   */\n      dup5\n        /* \"#utility.yul\":6020:6027   */\n      dup7\n        /* \"#utility.yul\":6016:6039   */\n      sub\n        /* \"#utility.yul\":6012:6044   */\n      slt\n        /* \"#utility.yul\":6009:6128   */\n      iszero\n      tag_195\n      jumpi\n        /* \"#utility.yul\":6047:6126   */\n      tag_196\n      tag_75\n      jump\t// in\n    tag_196:\n        /* \"#utility.yul\":6009:6128   */\n    tag_195:\n        /* \"#utility.yul\":6167:6168   */\n      0x00\n        /* \"#utility.yul\":6192:6245   */\n      tag_197\n        /* \"#utility.yul\":6237:6244   */\n      dup7\n        /* \"#utility.yul\":6228:6234   */\n      dup3\n        /* \"#utility.yul\":6217:6226   */\n      dup8\n        /* \"#utility.yul\":6213:6235   */\n      add\n        /* \"#utility.yul\":6192:6245   */\n      tag_80\n      jump\t// in\n    tag_197:\n        /* \"#utility.yul\":6182:6245   */\n      swap4\n      pop\n        /* \"#utility.yul\":6138:6255   */\n      pop\n        /* \"#utility.yul\":6294:6296   */\n      0x20\n        /* \"#utility.yul\":6320:6373   */\n      tag_198\n        /* \"#utility.yul\":6365:6372   */\n      dup7\n        /* \"#utility.yul\":6356:6362   */\n      dup3\n        /* \"#utility.yul\":6345:6354   */\n      dup8\n        /* \"#utility.yul\":6341:6363   */\n      add\n        /* \"#utility.yul\":6320:6373   */\n      tag_100\n      jump\t// in\n    tag_198:\n        /* \"#utility.yul\":6310:6373   */\n      swap3\n      pop\n        /* \"#utility.yul\":6265:6383   */\n      pop\n        /* \"#utility.yul\":6450:6452   */\n      0x40\n        /* \"#utility.yul\":6439:6448   */\n      dup5\n        /* \"#utility.yul\":6435:6453   */\n      add\n        /* \"#utility.yul\":6422:6454   */\n      calldataload\n        /* \"#utility.yul\":6481:6499   */\n      0xffffffffffffffff\n        /* \"#utility.yul\":6473:6479   */\n      dup2\n        /* \"#utility.yul\":6470:6500   */\n      gt\n        /* \"#utility.yul\":6467:6584   */\n      iszero\n      tag_199\n      jumpi\n        /* \"#utility.yul\":6503:6582   */\n      tag_200\n      tag_76\n      jump\t// in\n    tag_200:\n        /* \"#utility.yul\":6467:6584   */\n    tag_199:\n        /* \"#utility.yul\":6608:6670   */\n      tag_201\n        /* \"#utility.yul\":6662:6669   */\n      dup7\n        /* \"#utility.yul\":6653:6659   */\n      dup3\n        /* \"#utility.yul\":6642:6651   */\n      dup8\n        /* \"#utility.yul\":6638:6660   */\n      add\n        /* \"#utility.yul\":6608:6670   */\n      tag_97\n      jump\t// in\n    tag_201:\n        /* \"#utility.yul\":6598:6670   */\n      swap2\n      pop\n        /* \"#utility.yul\":6393:6680   */\n      pop\n        /* \"#utility.yul\":5890:6687   */\n      swap3\n      pop\n      swap3\n      pop\n      swap3\n      jump\t// out\n        /* \"#utility.yul\":6693:6873   */\n    tag_101:\n        /* \"#utility.yul\":6741:6818   */\n      0x4e487b7100000000000000000000000000000000000000000000000000000000\n        /* \"#utility.yul\":6738:6739   */\n      0x00\n        /* \"#utility.yul\":6731:6819   */\n      mstore\n        /* \"#utility.yul\":6838:6842   */\n      0x11\n        /* \"#utility.yul\":6835:6836   */\n      0x04\n        /* \"#utility.yul\":6828:6843   */\n      mstore\n        /* \"#utility.yul\":6862:6866   */\n      0x24\n        /* \"#utility.yul\":6859:6860   */\n      0x00\n        /* \"#utility.yul\":6852:6867   */\n      revert\n        /* \"#utility.yul\":6879:7070   */\n    tag_42:\n        /* \"#utility.yul\":6919:6922   */\n      0x00\n        /* \"#utility.yul\":6938:6958   */\n      tag_204\n        /* \"#utility.yul\":6956:6957   */\n      dup3\n        /* \"#utility.yul\":6938:6958   */\n      tag_83\n      jump\t// in\n    tag_204:\n        /* \"#utility.yul\":6933:6958   */\n      swap2\n      pop\n        /* \"#utility.yul\":6972:6992   */\n      tag_205\n        /* \"#utility.yul\":6990:6991   */\n      dup4\n        /* \"#utility.yul\":6972:6992   */\n      tag_83\n      jump\t// in\n    tag_205:\n        /* \"#utility.yul\":6967:6992   */\n      swap3\n      pop\n        /* \"#utility.yul\":7015:7016   */\n      dup3\n        /* \"#utility.yul\":7012:7013   */\n      dup3\n        /* \"#utility.yul\":7008:7017   */\n      add\n        /* \"#utility.yul\":7001:7017   */\n      swap1\n      pop\n        /* \"#utility.yul\":7036:7039   */\n      dup1\n        /* \"#utility.yul\":7033:7034   */\n      dup3\n        /* \"#utility.yul\":7030:7040   */\n      gt\n        /* \"#utility.yul\":7027:7063   */\n      iszero\n      tag_206\n      jumpi\n        /* \"#utility.yul\":7043:7061   */\n      tag_207\n      tag_101\n      jump\t// in\n    tag_207:\n        /* \"#utility.yul\":7027:7063   */\n    tag_206:\n        /* \"#utility.yul\":6879:7070   */\n      swap3\n      swap2\n      pop\n      pop\n      jump\t// out\n        /* \"#utility.yul\":7076:7270   */\n    tag_44:\n        /* \"#utility.yul\":7116:7120   */\n      0x00\n        /* \"#utility.yul\":7136:7156   */\n      tag_209\n        /* \"#utility.yul\":7154:7155   */\n      dup3\n        /* \"#utility.yul\":7136:7156   */\n      tag_83\n      jump\t// in\n    tag_209:\n        /* \"#utility.yul\":7131:7156   */\n      swap2\n      pop\n        /* \"#utility.yul\":7170:7190   */\n      tag_210\n        /* \"#utility.yul\":7188:7189   */\n      dup4\n        /* \"#utility.yul\":7170:7190   */\n      tag_83\n      jump\t// in\n    tag_210:\n        /* \"#utility.yul\":7165:7190   */\n      swap3\n      pop\n        /* \"#utility.yul\":7214:7215   */\n      dup3\n        /* \"#utility.yul\":7211:7212   */\n      dup3\n        /* \"#utility.yul\":7207:7216   */\n      sub\n        /* \"#utility.yul\":7199:7216   */\n      swap1\n      pop\n        /* \"#utility.yul\":7238:7239   */\n      dup2\n        /* \"#utility.yul\":7232:7236   */\n      dup2\n        /* \"#utility.yul\":7229:7240   */\n      gt\n        /* \"#utility.yul\":7226:7263   */\n      iszero\n      tag_211\n      jumpi\n        /* \"#utility.yul\":7243:7261   */\n      tag_212\n      tag_101\n      jump\t// in\n    tag_212:\n        /* \"#utility.yul\":7226:7263   */\n    tag_211:\n        /* \"#utility.yul\":7076:7270   */\n      swap3\n      swap2\n      pop\n      pop\n      jump\t// out\n        /* \"#utility.yul\":7276:7362   */\n    tag_102:\n        /* \"#utility.yul\":7311:7318   */\n      0x00\n        /* \"#utility.yul\":7351:7355   */\n      0xff\n        /* \"#utility.yul\":7344:7349   */\n      dup3\n        /* \"#utility.yul\":7340:7356   */\n      and\n        /* \"#utility.yul\":7329:7356   */\n      swap1\n      pop\n        /* \"#utility.yul\":7276:7362   */\n      swap2\n      swap1\n      pop\n      jump\t// out\n        /* \"#utility.yul\":7368:7556   */\n    tag_50:\n        /* \"#utility.yul\":7406:7409   */\n      0x00\n        /* \"#utility.yul\":7425:7443   */\n      tag_215\n        /* \"#utility.yul\":7441:7442   */\n      dup3\n        /* \"#utility.yul\":7425:7443   */\n      tag_102\n      jump\t// in\n    tag_215:\n        /* \"#utility.yul\":7420:7443   */\n      swap2\n      pop\n        /* \"#utility.yul\":7457:7475   */\n      tag_216\n        /* \"#utility.yul\":7473:7474   */\n      dup4\n        /* \"#utility.yul\":7457:7475   */\n      tag_102\n      jump\t// in\n    tag_216:\n        /* \"#utility.yul\":7452:7475   */\n      swap3\n      pop\n        /* \"#utility.yul\":7498:7499   */\n      dup3\n        /* \"#utility.yul\":7495:7496   */\n      dup3\n        /* \"#utility.yul\":7491:7500   */\n      add\n        /* \"#utility.yul\":7484:7500   */\n      swap1\n      pop\n        /* \"#utility.yul\":7521:7525   */\n      0xff\n        /* \"#utility.yul\":7516:7519   */\n      dup2\n        /* \"#utility.yul\":7513:7526   */\n      gt\n        /* \"#utility.yul\":7510:7549   */\n      iszero\n      tag_217\n      jumpi\n        /* \"#utility.yul\":7529:7547   */\n      tag_218\n      tag_101\n      jump\t// in\n    tag_218:\n        /* \"#utility.yul\":7510:7549   */\n    tag_217:\n        /* \"#utility.yul\":7368:7556   */\n      swap3\n      swap2\n      pop\n      pop\n      jump\t// out\n        /* \"#utility.yul\":7562:7660   */\n    tag_103:\n        /* \"#utility.yul\":7613:7619   */\n      0x00\n        /* \"#utility.yul\":7647:7652   */\n      dup2\n        /* \"#utility.yul\":7641:7653   */\n      mload\n        /* \"#utility.yul\":7631:7653   */\n      swap1\n      pop\n        /* \"#utility.yul\":7562:7660   */\n      swap2\n      swap1\n      pop\n      jump\t// out\n        /* \"#utility.yul\":7666:7813   */\n    tag_104:\n        /* \"#utility.yul\":7767:7778   */\n      0x00\n        /* \"#utility.yul\":7804:7807   */\n      dup2\n        /* \"#utility.yul\":7789:7807   */\n      swap1\n      pop\n        /* \"#utility.yul\":7666:7813   */\n      swap3\n      swap2\n      pop\n      pop\n      jump\t// out\n        /* \"#utility.yul\":7819:8065   */\n    tag_105:\n        /* \"#utility.yul\":7900:7901   */\n      0x00\n        /* \"#utility.yul\":7910:8023   */\n    tag_222:\n        /* \"#utility.yul\":7924:7930   */\n      dup4\n        /* \"#utility.yul\":7921:7922   */\n      dup2\n        /* \"#utility.yul\":7918:7931   */\n      lt\n        /* \"#utility.yul\":7910:8023   */\n      iszero\n      tag_224\n      jumpi\n        /* \"#utility.yul\":8009:8010   */\n      dup1\n        /* \"#utility.yul\":8004:8007   */\n      dup3\n        /* \"#utility.yul\":8000:8011   */\n      add\n        /* \"#utility.yul\":7994:8012   */\n      mload\n        /* \"#utility.yul\":7990:7991   */\n      dup2\n        /* \"#utility.yul\":7985:7988   */\n      dup5\n        /* \"#utility.yul\":7981:7992   */\n      add\n        /* \"#utility.yul\":7974:8013   */\n      mstore\n        /* \"#utility.yul\":7946:7948   */\n      0x20\n        /* \"#utility.yul\":7943:7944   */\n      dup2\n        /* \"#utility.yul\":7939:7949   */\n      add\n        /* \"#utility.yul\":7934:7949   */\n      swap1\n      pop\n        /* \"#utility.yul\":7910:8023   */\n      jump(tag_222)\n    tag_224:\n        /* \"#utility.yul\":8057:8058   */\n      0x00\n        /* \"#utility.yul\":8048:8054   */\n      dup5\n        /* \"#utility.yul\":8043:8046   */\n      dup5\n        /* \"#utility.yul\":8039:8055   */\n      add\n        /* \"#utility.yul\":8032:8059   */\n      mstore\n        /* \"#utility.yul\":7881:8065   */\n      pop\n        /* \"#utility.yul\":7819:8065   */\n      pop\n      pop\n      pop\n      jump\t// out\n        /* \"#utility.yul\":8071:8457   */\n    tag_106:\n        /* \"#utility.yul\":8175:8178   */\n      0x00\n        /* \"#utility.yul\":8203:8241   */\n      tag_226\n        /* \"#utility.yul\":8235:8240   */\n      dup3\n        /* \"#utility.yul\":8203:8241   */\n      tag_103\n      jump\t// in\n    tag_226:\n        /* \"#utility.yul\":8257:8345   */\n      tag_227\n        /* \"#utility.yul\":8338:8344   */\n      dup2\n        /* \"#utility.yul\":8333:8336   */\n      dup6\n        /* \"#utility.yul\":8257:8345   */\n      tag_104\n      jump\t// in\n    tag_227:\n        /* \"#utility.yul\":8250:8345   */\n      swap4\n      pop\n        /* \"#utility.yul\":8354:8419   */\n      tag_228\n        /* \"#utility.yul\":8412:8418   */\n      dup2\n        /* \"#utility.yul\":8407:8410   */\n      dup6\n        /* \"#utility.yul\":8400:8404   */\n      0x20\n        /* \"#utility.yul\":8393:8398   */\n      dup7\n        /* \"#utility.yul\":8389:8405   */\n      add\n        /* \"#utility.yul\":8354:8419   */\n      tag_105\n      jump\t// in\n    tag_228:\n        /* \"#utility.yul\":8444:8450   */\n      dup1\n        /* \"#utility.yul\":8439:8442   */\n      dup5\n        /* \"#utility.yul\":8435:8451   */\n      add\n        /* \"#utility.yul\":8428:8451   */\n      swap2\n      pop\n        /* \"#utility.yul\":8179:8457   */\n      pop\n        /* \"#utility.yul\":8071:8457   */\n      swap3\n      swap2\n      pop\n      pop\n      jump\t// out\n        /* \"#utility.yul\":8463:8542   */\n    tag_107:\n        /* \"#utility.yul\":8502:8509   */\n      0x00\n        /* \"#utility.yul\":8531:8536   */\n      dup2\n        /* \"#utility.yul\":8520:8536   */\n      swap1\n      pop\n        /* \"#utility.yul\":8463:8542   */\n      swap2\n      swap1\n      pop\n      jump\t// out\n        /* \"#utility.yul\":8548:8705   */\n    tag_108:\n        /* \"#utility.yul\":8653:8698   */\n      tag_231\n        /* \"#utility.yul\":8673:8697   */\n      tag_232\n        /* \"#utility.yul\":8691:8696   */\n      dup3\n        /* \"#utility.yul\":8673:8697   */\n      tag_85\n      jump\t// in\n    tag_232:\n        /* \"#utility.yul\":8653:8698   */\n      tag_107\n      jump\t// in\n    tag_231:\n        /* \"#utility.yul\":8648:8651   */\n      dup3\n        /* \"#utility.yul\":8641:8699   */\n      mstore\n        /* \"#utility.yul\":8548:8705   */\n      pop\n      pop\n      jump\t// out\n        /* \"#utility.yul\":8711:9123   */\n    tag_54:\n        /* \"#utility.yul\":8869:8872   */\n      0x00\n        /* \"#utility.yul\":8891:8984   */\n      tag_234\n        /* \"#utility.yul\":8980:8983   */\n      dup3\n        /* \"#utility.yul\":8971:8977   */\n      dup6\n        /* \"#utility.yul\":8891:8984   */\n      tag_106\n      jump\t// in\n    tag_234:\n        /* \"#utility.yul\":8884:8984   */\n      swap2\n      pop\n        /* \"#utility.yul\":8994:9069   */\n      tag_235\n        /* \"#utility.yul\":9065:9068   */\n      dup3\n        /* \"#utility.yul\":9056:9062   */\n      dup5\n        /* \"#utility.yul\":8994:9069   */\n      tag_108\n      jump\t// in\n    tag_235:\n        /* \"#utility.yul\":9094:9096   */\n      0x20\n        /* \"#utility.yul\":9089:9092   */\n      dup3\n        /* \"#utility.yul\":9085:9097   */\n      add\n        /* \"#utility.yul\":9078:9097   */\n      swap2\n      pop\n        /* \"#utility.yul\":9114:9117   */\n      dup2\n        /* \"#utility.yul\":9107:9117   */\n      swap1\n      pop\n        /* \"#utility.yul\":8711:9123   */\n      swap4\n      swap3\n      pop\n      pop\n      pop\n      jump\t// out\n        /* \"#utility.yul\":9129:9247   */\n    tag_109:\n        /* \"#utility.yul\":9216:9240   */\n      tag_237\n        /* \"#utility.yul\":9234:9239   */\n      dup2\n        /* \"#utility.yul\":9216:9240   */\n      tag_85\n      jump\t// in\n    tag_237:\n        /* \"#utility.yul\":9211:9214   */\n      dup3\n        /* \"#utility.yul\":9204:9241   */\n      mstore\n        /* \"#utility.yul\":9129:9247   */\n      pop\n      pop\n      jump\t// out\n        /* \"#utility.yul\":9253:9365   */\n    tag_110:\n        /* \"#utility.yul\":9336:9358   */\n      tag_239\n        /* \"#utility.yul\":9352:9357   */\n      dup2\n        /* \"#utility.yul\":9336:9358   */\n      tag_102\n      jump\t// in\n    tag_239:\n        /* \"#utility.yul\":9331:9334   */\n      dup3\n        /* \"#utility.yul\":9324:9359   */\n      mstore\n        /* \"#utility.yul\":9253:9365   */\n      pop\n      pop\n      jump\t// out\n        /* \"#utility.yul\":9371:9916   */\n    tag_56:\n        /* \"#utility.yul\":9544:9548   */\n      0x00\n        /* \"#utility.yul\":9582:9585   */\n      0x80\n        /* \"#utility.yul\":9571:9580   */\n      dup3\n        /* \"#utility.yul\":9567:9586   */\n      add\n        /* \"#utility.yul\":9559:9586   */\n      swap1\n      pop\n        /* \"#utility.yul\":9596:9667   */\n      tag_241\n        /* \"#utility.yul\":9664:9665   */\n      0x00\n        /* \"#utility.yul\":9653:9662   */\n      dup4\n        /* \"#utility.yul\":9649:9666   */\n      add\n        /* \"#utility.yul\":9640:9646   */\n      dup8\n        /* \"#utility.yul\":9596:9667   */\n      tag_109\n      jump\t// in\n    tag_241:\n        /* \"#utility.yul\":9677:9745   */\n      tag_242\n        /* \"#utility.yul\":9741:9743   */\n      0x20\n        /* \"#utility.yul\":9730:9739   */\n      dup4\n        /* \"#utility.yul\":9726:9744   */\n      add\n        /* \"#utility.yul\":9717:9723   */\n      dup7\n        /* \"#utility.yul\":9677:9745   */\n      tag_110\n      jump\t// in\n    tag_242:\n        /* \"#utility.yul\":9755:9827   */\n      tag_243\n        /* \"#utility.yul\":9823:9825   */\n      0x40\n        /* \"#utility.yul\":9812:9821   */\n      dup4\n        /* \"#utility.yul\":9808:9826   */\n      add\n        /* \"#utility.yul\":9799:9805   */\n      dup6\n        /* \"#utility.yul\":9755:9827   */\n      tag_109\n      jump\t// in\n    tag_243:\n        /* \"#utility.yul\":9837:9909   */\n      tag_244\n        /* \"#utility.yul\":9905:9907   */\n      0x60\n        /* \"#utility.yul\":9894:9903   */\n      dup4\n        /* \"#utility.yul\":9890:9908   */\n      add\n        /* \"#utility.yul\":9881:9887   */\n      dup5\n        /* \"#utility.yul\":9837:9909   */\n      tag_109\n      jump\t// in\n    tag_244:\n        /* \"#utility.yul\":9371:9916   */\n      swap6\n      swap5\n      pop\n      pop\n      pop\n      pop\n      pop\n      jump\t// out\n        /* \"#utility.yul\":9922:10016   */\n    tag_111:\n        /* \"#utility.yul\":9955:9963   */\n      0x00\n        /* \"#utility.yul\":10003:10008   */\n      dup2\n        /* \"#utility.yul\":9999:10001   */\n      0x60\n        /* \"#utility.yul\":9995:10009   */\n      shl\n        /* \"#utility.yul\":9974:10009   */\n      swap1\n      pop\n        /* \"#utility.yul\":9922:10016   */\n      swap2\n      swap1\n      pop\n      jump\t// out\n        /* \"#utility.yul\":10022:10116   */\n    tag_112:\n        /* \"#utility.yul\":10061:10068   */\n      0x00\n        /* \"#utility.yul\":10090:10110   */\n      tag_247\n        /* \"#utility.yul\":10104:10109   */\n      dup3\n        /* \"#utility.yul\":10090:10110   */\n      tag_111\n      jump\t// in\n    tag_247:\n        /* \"#utility.yul\":10079:10110   */\n      swap1\n      pop\n        /* \"#utility.yul\":10022:10116   */\n      swap2\n      swap1\n      pop\n      jump\t// out\n        /* \"#utility.yul\":10122:10222   */\n    tag_113:\n        /* \"#utility.yul\":10161:10168   */\n      0x00\n        /* \"#utility.yul\":10190:10216   */\n      tag_249\n        /* \"#utility.yul\":10210:10215   */\n      dup3\n        /* \"#utility.yul\":10190:10216   */\n      tag_112\n      jump\t// in\n    tag_249:\n        /* \"#utility.yul\":10179:10216   */\n      swap1\n      pop\n        /* \"#utility.yul\":10122:10222   */\n      swap2\n      swap1\n      pop\n      jump\t// out\n        /* \"#utility.yul\":10228:10385   */\n    tag_114:\n        /* \"#utility.yul\":10333:10378   */\n      tag_251\n        /* \"#utility.yul\":10353:10377   */\n      tag_252\n        /* \"#utility.yul\":10371:10376   */\n      dup3\n        /* \"#utility.yul\":10353:10377   */\n      tag_78\n      jump\t// in\n    tag_252:\n        /* \"#utility.yul\":10333:10378   */\n      tag_113\n      jump\t// in\n    tag_251:\n        /* \"#utility.yul\":10328:10331   */\n      dup3\n        /* \"#utility.yul\":10321:10379   */\n      mstore\n        /* \"#utility.yul\":10228:10385   */\n      pop\n      pop\n      jump\t// out\n        /* \"#utility.yul\":10391:10470   */\n    tag_115:\n        /* \"#utility.yul\":10430:10437   */\n      0x00\n        /* \"#utility.yul\":10459:10464   */\n      dup2\n        /* \"#utility.yul\":10448:10464   */\n      swap1\n      pop\n        /* \"#utility.yul\":10391:10470   */\n      swap2\n      swap1\n      pop\n      jump\t// out\n        /* \"#utility.yul\":10476:10633   */\n    tag_116:\n        /* \"#utility.yul\":10581:10626   */\n      tag_255\n        /* \"#utility.yul\":10601:10625   */\n      tag_256\n        /* \"#utility.yul\":10619:10624   */\n      dup3\n        /* \"#utility.yul\":10601:10625   */\n      tag_83\n      jump\t// in\n    tag_256:\n        /* \"#utility.yul\":10581:10626   */\n      tag_115\n      jump\t// in\n    tag_255:\n        /* \"#utility.yul\":10576:10579   */\n      dup3\n        /* \"#utility.yul\":10569:10627   */\n      mstore\n        /* \"#utility.yul\":10476:10633   */\n      pop\n      pop\n      jump\t// out\n        /* \"#utility.yul\":10639:11177   */\n    tag_61:\n        /* \"#utility.yul\":10807:10810   */\n      0x00\n        /* \"#utility.yul\":10822:10897   */\n      tag_258\n        /* \"#utility.yul\":10893:10896   */\n      dup3\n        /* \"#utility.yul\":10884:10890   */\n      dup7\n        /* \"#utility.yul\":10822:10897   */\n      tag_114\n      jump\t// in\n    tag_258:\n        /* \"#utility.yul\":10922:10924   */\n      0x14\n        /* \"#utility.yul\":10917:10920   */\n      dup3\n        /* \"#utility.yul\":10913:10925   */\n      add\n        /* \"#utility.yul\":10906:10925   */\n      swap2\n      pop\n        /* \"#utility.yul\":10935:11010   */\n      tag_259\n        /* \"#utility.yul\":11006:11009   */\n      dup3\n        /* \"#utility.yul\":10997:11003   */\n      dup6\n        /* \"#utility.yul\":10935:11010   */\n      tag_116\n      jump\t// in\n    tag_259:\n        /* \"#utility.yul\":11035:11037   */\n      0x20\n        /* \"#utility.yul\":11030:11033   */\n      dup3\n        /* \"#utility.yul\":11026:11038   */\n      add\n        /* \"#utility.yul\":11019:11038   */\n      swap2\n      pop\n        /* \"#utility.yul\":11048:11123   */\n      tag_260\n        /* \"#utility.yul\":11119:11122   */\n      dup3\n        /* \"#utility.yul\":11110:11116   */\n      dup5\n        /* \"#utility.yul\":11048:11123   */\n      tag_114\n      jump\t// in\n    tag_260:\n        /* \"#utility.yul\":11148:11150   */\n      0x14\n        /* \"#utility.yul\":11143:11146   */\n      dup3\n        /* \"#utility.yul\":11139:11151   */\n      add\n        /* \"#utility.yul\":11132:11151   */\n      swap2\n      pop\n        /* \"#utility.yul\":11168:11171   */\n      dup2\n        /* \"#utility.yul\":11161:11171   */\n      swap1\n      pop\n        /* \"#utility.yul\":10639:11177   */\n      swap5\n      swap4\n      pop\n      pop\n      pop\n      pop\n      jump\t// out\n        /* \"#utility.yul\":11183:11352   */\n    tag_117:\n        /* \"#utility.yul\":11267:11278   */\n      0x00\n        /* \"#utility.yul\":11301:11307   */\n      dup3\n        /* \"#utility.yul\":11296:11299   */\n      dup3\n        /* \"#utility.yul\":11289:11308   */\n      mstore\n        /* \"#utility.yul\":11341:11345   */\n      0x20\n        /* \"#utility.yul\":11336:11339   */\n      dup3\n        /* \"#utility.yul\":11332:11346   */\n      add\n        /* \"#utility.yul\":11317:11346   */\n      swap1\n      pop\n        /* \"#utility.yul\":11183:11352   */\n      swap3\n      swap2\n      pop\n      pop\n      jump\t// out\n        /* \"#utility.yul\":11358:11529   */\n    tag_118:\n        /* \"#utility.yul\":11498:11521   */\n      0x796f757220736967206973206e6f742072696768740000000000000000000000\n        /* \"#utility.yul\":11494:11495   */\n      0x00\n        /* \"#utility.yul\":11486:11492   */\n      dup3\n        /* \"#utility.yul\":11482:11496   */\n      add\n        /* \"#utility.yul\":11475:11522   */\n      mstore\n        /* \"#utility.yul\":11358:11529   */\n      pop\n      jump\t// out\n        /* \"#utility.yul\":11535:11901   */\n    tag_119:\n        /* \"#utility.yul\":11677:11680   */\n      0x00\n        /* \"#utility.yul\":11698:11765   */\n      tag_264\n        /* \"#utility.yul\":11762:11764   */\n      0x15\n        /* \"#utility.yul\":11757:11760   */\n      dup4\n        /* \"#utility.yul\":11698:11765   */\n      tag_117\n      jump\t// in\n    tag_264:\n        /* \"#utility.yul\":11691:11765   */\n      swap2\n      pop\n        /* \"#utility.yul\":11774:11867   */\n      tag_265\n        /* \"#utility.yul\":11863:11866   */\n      dup3\n        /* \"#utility.yul\":11774:11867   */\n      tag_118\n      jump\t// in\n    tag_265:\n        /* \"#utility.yul\":11892:11894   */\n      0x20\n        /* \"#utility.yul\":11887:11890   */\n      dup3\n        /* \"#utility.yul\":11883:11895   */\n      add\n        /* \"#utility.yul\":11876:11895   */\n      swap1\n      pop\n        /* \"#utility.yul\":11535:11901   */\n      swap2\n      swap1\n      pop\n      jump\t// out\n        /* \"#utility.yul\":11907:12326   */\n    tag_65:\n        /* \"#utility.yul\":12073:12077   */\n      0x00\n        /* \"#utility.yul\":12111:12113   */\n      0x20\n        /* \"#utility.yul\":12100:12109   */\n      dup3\n        /* \"#utility.yul\":12096:12114   */\n      add\n        /* \"#utility.yul\":12088:12114   */\n      swap1\n      pop\n        /* \"#utility.yul\":12160:12169   */\n      dup2\n        /* \"#utility.yul\":12154:12158   */\n      dup2\n        /* \"#utility.yul\":12150:12170   */\n      sub\n        /* \"#utility.yul\":12146:12147   */\n      0x00\n        /* \"#utility.yul\":12135:12144   */\n      dup4\n        /* \"#utility.yul\":12131:12148   */\n      add\n        /* \"#utility.yul\":12124:12171   */\n      mstore\n        /* \"#utility.yul\":12188:12319   */\n      tag_267\n        /* \"#utility.yul\":12314:12318   */\n      dup2\n        /* \"#utility.yul\":12188:12319   */\n      tag_119\n      jump\t// in\n    tag_267:\n        /* \"#utility.yul\":12180:12319   */\n      swap1\n      pop\n        /* \"#utility.yul\":11907:12326   */\n      swap2\n      swap1\n      pop\n      jump\t// out\n\n    auxdata: 0xa2646970667358221220d3872dbe189a63a8b13ce594d9ee3e9622b295c6bd5131782e2d9337a8e5ac5864736f6c63430008120033\n}\n",
				"bytecode": {
					"linkReferences": {},
					"object": "608060405234801561001057600080fd5b5069021e19e0c9bab2400000600160003073ffffffffffffffffffffffffffffffffffffffff1673ffffffffffffffffffffffffffffffffffffffff16815260200190815260200160002081905550610dec8061006e6000396000f3fe608060405234801561001057600080fd5b506004361061007d5760003560e01c806377d32e941161005b57806377d32e94146100ec578063eb7955491461011c578063efedc66914610138578063fa391c64146101565761007d565b80633884d63514610082578063450c80251461008c57806370a08231146100bc575b600080fd5b61008a610160565b005b6100a660048036038101906100a19190610769565b6102cd565b6040516100b391906107b1565b60405180910390f35b6100d660048036038101906100d19190610769565b6102ed565b6040516100e391906107e5565b60405180910390f35b6101066004803603810190610101919061097c565b610336565b60405161011391906109e7565b60405180910390f35b61013660048036038101906101319190610a2e565b61046f565b005b6101406105c7565b60405161014d91906107e5565b60405180910390f35b61015e6105cd565b005b600260003373ffffffffffffffffffffffffffffffffffffffff1673ffffffffffffffffffffffffffffffffffffffff16815260200190815260200160002060009054906101000a900460ff16156101b757600080fd5b6001600260003373ffffffffffffffffffffffffffffffffffffffff1673ffffffffffffffffffffffffffffffffffffffff16815260200190815260200160002060006101000a81548160ff021916908315150217905550670de0b6b3a7640000600160003373ffffffffffffffffffffffffffffffffffffffff1673ffffffffffffffffffffffffffffffffffffffff16815260200190815260200160002060008282546102669190610acc565b92505081905550670de0b6b3a7640000600160003073ffffffffffffffffffffffffffffffffffffffff1673ffffffffffffffffffffffffffffffffffffffff16815260200190815260200160002060008282546102c49190610b00565b92505081905550565b60026020528060005260406000206000915054906101000a900460ff1681565b6000600160008373ffffffffffffffffffffffffffffffffffffffff1673ffffffffffffffffffffffffffffffffffffffff168152602001908152602001600020549050919050565b60008060008060418551146103515760009350505050610469565b602085015192506040850151915060ff6041860151169050601b8160ff16101561038557601b816103829190610b41565b90505b601b8160ff161415801561039d5750601c8160ff1614155b156103ae5760009350505050610469565b60006040518060400160405280601c81526020017f19457468657265756d205369676e6564204d6573736167653a0a333200000000815250905080876040516020016103fb929190610c08565b604051602081830303815290604052805190602001209650600187838686604051600081526020016040526040516104369493929190610c4e565b6020604051602081039080840390855afa158015610458573d6000803e3d6000fd5b505050602060405103519450505050505b92915050565b600033838560405160200161048693929190610cfc565b6040516020818303038152906040528051906020012090506104a88183610336565b73ffffffffffffffffffffffffffffffffffffffff163373ffffffffffffffffffffffffffffffffffffffff1614610515576040517f08c379a000000000000000000000000000000000000000000000000000000000815260040161050c90610d96565b60405180910390fd5b82600160003373ffffffffffffffffffffffffffffffffffffffff1673ffffffffffffffffffffffffffffffffffffffff16815260200190815260200160002060008282546105649190610b00565b9250508190555082600160008673ffffffffffffffffffffffffffffffffffffffff1673ffffffffffffffffffffffffffffffffffffffff16815260200190815260200160002060008282546105ba9190610acc565b9250508190555050505050565b60005481565b600260003373ffffffffffffffffffffffffffffffffffffffff1673ffffffffffffffffffffffffffffffffffffffff16815260200190815260200160002060009054906101000a900460ff1661062357600080fd5b600080819055506000600160003373ffffffffffffffffffffffffffffffffffffffff1673ffffffffffffffffffffffffffffffffffffffff168152602001908152602001600020540361068b57604b6000808282546106839190610acc565b925050819055505b69021e19e0c9bab2400000600160003073ffffffffffffffffffffffffffffffffffffffff1673ffffffffffffffffffffffffffffffffffffffff16815260200190815260200160002054036106f55760196000808282546106ed9190610acc565b925050819055505b565b6000604051905090565b600080fd5b600080fd5b600073ffffffffffffffffffffffffffffffffffffffff82169050919050565b60006107368261070b565b9050919050565b6107468161072b565b811461075157600080fd5b50565b6000813590506107638161073d565b92915050565b60006020828403121561077f5761077e610701565b5b600061078d84828501610754565b91505092915050565b60008115159050919050565b6107ab81610796565b82525050565b60006020820190506107c660008301846107a2565b92915050565b6000819050919050565b6107df816107cc565b82525050565b60006020820190506107fa60008301846107d6565b92915050565b6000819050919050565b61081381610800565b811461081e57600080fd5b50565b6000813590506108308161080a565b92915050565b600080fd5b600080fd5b6000601f19601f8301169050919050565b7f4e487b7100000000000000000000000000000000000000000000000000000000600052604160045260246000fd5b61088982610840565b810181811067ffffffffffffffff821117156108a8576108a7610851565b5b80604052505050565b60006108bb6106f7565b90506108c78282610880565b919050565b600067ffffffffffffffff8211156108e7576108e6610851565b5b6108f082610840565b9050602081019050919050565b82818337600083830152505050565b600061091f61091a846108cc565b6108b1565b90508281526020810184848401111561093b5761093a61083b565b5b6109468482856108fd565b509392505050565b600082601f83011261096357610962610836565b5b813561097384826020860161090c565b91505092915050565b6000806040838503121561099357610992610701565b5b60006109a185828601610821565b925050602083013567ffffffffffffffff8111156109c2576109c1610706565b5b6109ce8582860161094e565b9150509250929050565b6109e18161072b565b82525050565b60006020820190506109fc60008301846109d8565b92915050565b610a0b816107cc565b8114610a1657600080fd5b50565b600081359050610a2881610a02565b92915050565b600080600060608486031215610a4757610a46610701565b5b6000610a5586828701610754565b9350506020610a6686828701610a19565b925050604084013567ffffffffffffffff811115610a8757610a86610706565b5b610a938682870161094e565b9150509250925092565b7f4e487b7100000000000000000000000000000000000000000000000000000000600052601160045260246000fd5b6000610ad7826107cc565b9150610ae2836107cc565b9250828201905080821115610afa57610af9610a9d565b5b92915050565b6000610b0b826107cc565b9150610b16836107cc565b9250828203905081811115610b2e57610b2d610a9d565b5b92915050565b600060ff82169050919050565b6000610b4c82610b34565b9150610b5783610b34565b9250828201905060ff811115610b7057610b6f610a9d565b5b92915050565b600081519050919050565b600081905092915050565b60005b83811015610baa578082015181840152602081019050610b8f565b60008484015250505050565b6000610bc182610b76565b610bcb8185610b81565b9350610bdb818560208601610b8c565b80840191505092915050565b6000819050919050565b610c02610bfd82610800565b610be7565b82525050565b6000610c148285610bb6565b9150610c208284610bf1565b6020820191508190509392505050565b610c3981610800565b82525050565b610c4881610b34565b82525050565b6000608082019050610c636000830187610c30565b610c706020830186610c3f565b610c7d6040830185610c30565b610c8a6060830184610c30565b95945050505050565b60008160601b9050919050565b6000610cab82610c93565b9050919050565b6000610cbd82610ca0565b9050919050565b610cd5610cd08261072b565b610cb2565b82525050565b6000819050919050565b610cf6610cf1826107cc565b610cdb565b82525050565b6000610d088286610cc4565b601482019150610d188285610ce5565b602082019150610d288284610cc4565b601482019150819050949350505050565b600082825260208201905092915050565b7f796f757220736967206973206e6f742072696768740000000000000000000000600082015250565b6000610d80601583610d39565b9150610d8b82610d4a565b602082019050919050565b60006020820190508181036000830152610daf81610d73565b905091905056fea2646970667358221220d3872dbe189a63a8b13ce594d9ee3e9622b295c6bd5131782e2d9337a8e5ac5864736f6c63430008120033",
					"opcodes": "PUSH1 0x80 PUSH1 0x40 MSTORE CALLVALUE DUP1 ISZERO PUSH2 0x10 JUMPI PUSH1 0x0 DUP1 REVERT JUMPDEST POP PUSH10 0x21E19E0C9BAB2400000 PUSH1 0x1 PUSH1 0x0 ADDRESS PUSH20 0xFFFFFFFFFFFFFFFFFFFFFFFFFFFFFFFFFFFFFFFF AND PUSH20 0xFFFFFFFFFFFFFFFFFFFFFFFFFFFFFFFFFFFFFFFF AND DUP2 MSTORE PUSH1 0x20 ADD SWAP1 DUP2 MSTORE PUSH1 0x20 ADD PUSH1 0x0 KECCAK256 DUP2 SWAP1 SSTORE POP PUSH2 0xDEC DUP1 PUSH2 0x6E PUSH1 0x0 CODECOPY PUSH1 0x0 RETURN INVALID PUSH1 0x80 PUSH1 0x40 MSTORE CALLVALUE DUP1 ISZERO PUSH2 0x10 JUMPI PUSH1 0x0 DUP1 REVERT JUMPDEST POP PUSH1 0x4 CALLDATASIZE LT PUSH2 0x7D JUMPI PUSH1 0x0 CALLDATALOAD PUSH1 0xE0 SHR DUP1 PUSH4 0x77D32E94 GT PUSH2 0x5B JUMPI DUP1 PUSH4 0x77D32E94 EQ PUSH2 0xEC JUMPI DUP1 PUSH4 0xEB795549 EQ PUSH2 0x11C JUMPI DUP1 PUSH4 0xEFEDC669 EQ PUSH2 0x138 JUMPI DUP1 PUSH4 0xFA391C64 EQ PUSH2 0x156 JUMPI PUSH2 0x7D JUMP JUMPDEST DUP1 PUSH4 0x3884D635 EQ PUSH2 0x82 JUMPI DUP1 PUSH4 0x450C8025 EQ PUSH2 0x8C JUMPI DUP1 PUSH4 0x70A08231 EQ PUSH2 0xBC JUMPI JUMPDEST PUSH1 0x0 DUP1 REVERT JUMPDEST PUSH2 0x8A PUSH2 0x160 JUMP JUMPDEST STOP JUMPDEST PUSH2 0xA6 PUSH1 0x4 DUP1 CALLDATASIZE SUB DUP2 ADD SWAP1 PUSH2 0xA1 SWAP2 SWAP1 PUSH2 0x769 JUMP JUMPDEST PUSH2 0x2CD JUMP JUMPDEST PUSH1 0x40 MLOAD PUSH2 0xB3 SWAP2 SWAP1 PUSH2 0x7B1 JUMP JUMPDEST PUSH1 0x40 MLOAD DUP1 SWAP2 SUB SWAP1 RETURN JUMPDEST PUSH2 0xD6 PUSH1 0x4 DUP1 CALLDATASIZE SUB DUP2 ADD SWAP1 PUSH2 0xD1 SWAP2 SWAP1 PUSH2 0x769 JUMP JUMPDEST PUSH2 0x2ED JUMP JUMPDEST PUSH1 0x40 MLOAD PUSH2 0xE3 SWAP2 SWAP1 PUSH2 0x7E5 JUMP JUMPDEST PUSH1 0x40 MLOAD DUP1 SWAP2 SUB SWAP1 RETURN JUMPDEST PUSH2 0x106 PUSH1 0x4 DUP1 CALLDATASIZE SUB DUP2 ADD SWAP1 PUSH2 0x101 SWAP2 SWAP1 PUSH2 0x97C JUMP JUMPDEST PUSH2 0x336 JUMP JUMPDEST PUSH1 0x40 MLOAD PUSH2 0x113 SWAP2 SWAP1 PUSH2 0x9E7 JUMP JUMPDEST PUSH1 0x40 MLOAD DUP1 SWAP2 SUB SWAP1 RETURN JUMPDEST PUSH2 0x136 PUSH1 0x4 DUP1 CALLDATASIZE SUB DUP2 ADD SWAP1 PUSH2 0x131 SWAP2 SWAP1 PUSH2 0xA2E JUMP JUMPDEST PUSH2 0x46F JUMP JUMPDEST STOP JUMPDEST PUSH2 0x140 PUSH2 0x5C7 JUMP JUMPDEST PUSH1 0x40 MLOAD PUSH2 0x14D SWAP2 SWAP1 PUSH2 0x7E5 JUMP JUMPDEST PUSH1 0x40 MLOAD DUP1 SWAP2 SUB SWAP1 RETURN JUMPDEST PUSH2 0x15E PUSH2 0x5CD JUMP JUMPDEST STOP JUMPDEST PUSH1 0x2 PUSH1 0x0 CALLER PUSH20 0xFFFFFFFFFFFFFFFFFFFFFFFFFFFFFFFFFFFFFFFF AND PUSH20 0xFFFFFFFFFFFFFFFFFFFFFFFFFFFFFFFFFFFFFFFF AND DUP2 MSTORE PUSH1 0x20 ADD SWAP1 DUP2 MSTORE PUSH1 0x20 ADD PUSH1 0x0 KECCAK256 PUSH1 0x0 SWAP1 SLOAD SWAP1 PUSH2 0x100 EXP SWAP1 DIV PUSH1 0xFF AND ISZERO PUSH2 0x1B7 JUMPI PUSH1 0x0 DUP1 REVERT JUMPDEST PUSH1 0x1 PUSH1 0x2 PUSH1 0x0 CALLER PUSH20 0xFFFFFFFFFFFFFFFFFFFFFFFFFFFFFFFFFFFFFFFF AND PUSH20 0xFFFFFFFFFFFFFFFFFFFFFFFFFFFFFFFFFFFFFFFF AND DUP2 MSTORE PUSH1 0x20 ADD SWAP1 DUP2 MSTORE PUSH1 0x20 ADD PUSH1 0x0 KECCAK256 PUSH1 0x0 PUSH2 0x100 EXP DUP2 SLOAD DUP2 PUSH1 0xFF MUL NOT AND SWAP1 DUP4 ISZERO ISZERO MUL OR SWAP1 SSTORE POP PUSH8 0xDE0B6B3A7640000 PUSH1 0x1 PUSH1 0x0 CALLER PUSH20 0xFFFFFFFFFFFFFFFFFFFFFFFFFFFFFFFFFFFFFFFF AND PUSH20 0xFFFFFFFFFFFFFFFFFFFFFFFFFFFFFFFFFFFFFFFF AND DUP2 MSTORE PUSH1 0x20 ADD SWAP1 DUP2 MSTORE PUSH1 0x20 ADD PUSH1 0x0 KECCAK256 PUSH1 0x0 DUP3 DUP3 SLOAD PUSH2 0x266 SWAP2 SWAP1 PUSH2 0xACC JUMP JUMPDEST SWAP3 POP POP DUP2 SWAP1 SSTORE POP PUSH8 0xDE0B6B3A7640000 PUSH1 0x1 PUSH1 0x0 ADDRESS PUSH20 0xFFFFFFFFFFFFFFFFFFFFFFFFFFFFFFFFFFFFFFFF AND PUSH20 0xFFFFFFFFFFFFFFFFFFFFFFFFFFFFFFFFFFFFFFFF AND DUP2 MSTORE PUSH1 0x20 ADD SWAP1 DUP2 MSTORE PUSH1 0x20 ADD PUSH1 0x0 KECCAK256 PUSH1 0x0 DUP3 DUP3 SLOAD PUSH2 0x2C4 SWAP2 SWAP1 PUSH2 0xB00 JUMP JUMPDEST SWAP3 POP POP DUP2 SWAP1 SSTORE POP JUMP JUMPDEST PUSH1 0x2 PUSH1 0x20 MSTORE DUP1 PUSH1 0x0 MSTORE PUSH1 0x40 PUSH1 0x0 KECCAK256 PUSH1 0x0 SWAP2 POP SLOAD SWAP1 PUSH2 0x100 EXP SWAP1 DIV PUSH1 0xFF AND DUP2 JUMP JUMPDEST PUSH1 0x0 PUSH1 0x1 PUSH1 0x0 DUP4 PUSH20 0xFFFFFFFFFFFFFFFFFFFFFFFFFFFFFFFFFFFFFFFF AND PUSH20 0xFFFFFFFFFFFFFFFFFFFFFFFFFFFFFFFFFFFFFFFF AND DUP2 MSTORE PUSH1 0x20 ADD SWAP1 DUP2 MSTORE PUSH1 0x20 ADD PUSH1 0x0 KECCAK256 SLOAD SWAP1 POP SWAP2 SWAP1 POP JUMP JUMPDEST PUSH1 0x0 DUP1 PUSH1 0x0 DUP1 PUSH1 0x41 DUP6 MLOAD EQ PUSH2 0x351 JUMPI PUSH1 0x0 SWAP4 POP POP POP POP PUSH2 0x469 JUMP JUMPDEST PUSH1 0x20 DUP6 ADD MLOAD SWAP3 POP PUSH1 0x40 DUP6 ADD MLOAD SWAP2 POP PUSH1 0xFF PUSH1 0x41 DUP7 ADD MLOAD AND SWAP1 POP PUSH1 0x1B DUP2 PUSH1 0xFF AND LT ISZERO PUSH2 0x385 JUMPI PUSH1 0x1B DUP2 PUSH2 0x382 SWAP2 SWAP1 PUSH2 0xB41 JUMP JUMPDEST SWAP1 POP JUMPDEST PUSH1 0x1B DUP2 PUSH1 0xFF AND EQ ISZERO DUP1 ISZERO PUSH2 0x39D JUMPI POP PUSH1 0x1C DUP2 PUSH1 0xFF AND EQ ISZERO JUMPDEST ISZERO PUSH2 0x3AE JUMPI PUSH1 0x0 SWAP4 POP POP POP POP PUSH2 0x469 JUMP JUMPDEST PUSH1 0x0 PUSH1 0x40 MLOAD DUP1 PUSH1 0x40 ADD PUSH1 0x40 MSTORE DUP1 PUSH1 0x1C DUP2 MSTORE PUSH1 0x20 ADD PUSH32 0x19457468657265756D205369676E6564204D6573736167653A0A333200000000 DUP2 MSTORE POP SWAP1 POP DUP1 DUP8 PUSH1 0x40 MLOAD PUSH1 0x20 ADD PUSH2 0x3FB SWAP3 SWAP2 SWAP1 PUSH2 0xC08 JUMP JUMPDEST PUSH1 0x40 MLOAD PUSH1 0x20 DUP2 DUP4 SUB SUB DUP2 MSTORE SWAP1 PUSH1 0x40 MSTORE DUP1 MLOAD SWAP1 PUSH1 0x20 ADD KECCAK256 SWAP7 POP PUSH1 0x1 DUP8 DUP4 DUP7 DUP7 PUSH1 0x40 MLOAD PUSH1 0x0 DUP2 MSTORE PUSH1 0x20 ADD PUSH1 0x40 MSTORE PUSH1 0x40 MLOAD PUSH2 0x436 SWAP5 SWAP4 SWAP3 SWAP2 SWAP1 PUSH2 0xC4E JUMP JUMPDEST PUSH1 0x20 PUSH1 0x40 MLOAD PUSH1 0x20 DUP2 SUB SWAP1 DUP1 DUP5 SUB SWAP1 DUP6 GAS STATICCALL ISZERO DUP1 ISZERO PUSH2 0x458 JUMPI RETURNDATASIZE PUSH1 0x0 DUP1 RETURNDATACOPY RETURNDATASIZE PUSH1 0x0 REVERT JUMPDEST POP POP POP PUSH1 0x20 PUSH1 0x40 MLOAD SUB MLOAD SWAP5 POP POP POP POP POP JUMPDEST SWAP3 SWAP2 POP POP JUMP JUMPDEST PUSH1 0x0 CALLER DUP4 DUP6 PUSH1 0x40 MLOAD PUSH1 0x20 ADD PUSH2 0x486 SWAP4 SWAP3 SWAP2 SWAP1 PUSH2 0xCFC JUMP JUMPDEST PUSH1 0x40 MLOAD PUSH1 0x20 DUP2 DUP4 SUB SUB DUP2 MSTORE SWAP1 PUSH1 0x40 MSTORE DUP1 MLOAD SWAP1 PUSH1 0x20 ADD KECCAK256 SWAP1 POP PUSH2 0x4A8 DUP2 DUP4 PUSH2 0x336 JUMP JUMPDEST PUSH20 0xFFFFFFFFFFFFFFFFFFFFFFFFFFFFFFFFFFFFFFFF AND CALLER PUSH20 0xFFFFFFFFFFFFFFFFFFFFFFFFFFFFFFFFFFFFFFFF AND EQ PUSH2 0x515 JUMPI PUSH1 0x40 MLOAD PUSH32 0x8C379A000000000000000000000000000000000000000000000000000000000 DUP2 MSTORE PUSH1 0x4 ADD PUSH2 0x50C SWAP1 PUSH2 0xD96 JUMP JUMPDEST PUSH1 0x40 MLOAD DUP1 SWAP2 SUB SWAP1 REVERT JUMPDEST DUP3 PUSH1 0x1 PUSH1 0x0 CALLER PUSH20 0xFFFFFFFFFFFFFFFFFFFFFFFFFFFFFFFFFFFFFFFF AND PUSH20 0xFFFFFFFFFFFFFFFFFFFFFFFFFFFFFFFFFFFFFFFF AND DUP2 MSTORE PUSH1 0x20 ADD SWAP1 DUP2 MSTORE PUSH1 0x20 ADD PUSH1 0x0 KECCAK256 PUSH1 0x0 DUP3 DUP3 SLOAD PUSH2 0x564 SWAP2 SWAP1 PUSH2 0xB00 JUMP JUMPDEST SWAP3 POP POP DUP2 SWAP1 SSTORE POP DUP3 PUSH1 0x1 PUSH1 0x0 DUP7 PUSH20 0xFFFFFFFFFFFFFFFFFFFFFFFFFFFFFFFFFFFFFFFF AND PUSH20 0xFFFFFFFFFFFFFFFFFFFFFFFFFFFFFFFFFFFFFFFF AND DUP2 MSTORE PUSH1 0x20 ADD SWAP1 DUP2 MSTORE PUSH1 0x20 ADD PUSH1 0x0 KECCAK256 PUSH1 0x0 DUP3 DUP3 SLOAD PUSH2 0x5BA SWAP2 SWAP1 PUSH2 0xACC JUMP JUMPDEST SWAP3 POP POP DUP2 SWAP1 SSTORE POP POP POP POP POP JUMP JUMPDEST PUSH1 0x0 SLOAD DUP2 JUMP JUMPDEST PUSH1 0x2 PUSH1 0x0 CALLER PUSH20 0xFFFFFFFFFFFFFFFFFFFFFFFFFFFFFFFFFFFFFFFF AND PUSH20 0xFFFFFFFFFFFFFFFFFFFFFFFFFFFFFFFFFFFFFFFF AND DUP2 MSTORE PUSH1 0x20 ADD SWAP1 DUP2 MSTORE PUSH1 0x20 ADD PUSH1 0x0 KECCAK256 PUSH1 0x0 SWAP1 SLOAD SWAP1 PUSH2 0x100 EXP SWAP1 DIV PUSH1 0xFF AND PUSH2 0x623 JUMPI PUSH1 0x0 DUP1 REVERT JUMPDEST PUSH1 0x0 DUP1 DUP2 SWAP1 SSTORE POP PUSH1 0x0 PUSH1 0x1 PUSH1 0x0 CALLER PUSH20 0xFFFFFFFFFFFFFFFFFFFFFFFFFFFFFFFFFFFFFFFF AND PUSH20 0xFFFFFFFFFFFFFFFFFFFFFFFFFFFFFFFFFFFFFFFF AND DUP2 MSTORE PUSH1 0x20 ADD SWAP1 DUP2 MSTORE PUSH1 0x20 ADD PUSH1 0x0 KECCAK256 SLOAD SUB PUSH2 0x68B JUMPI PUSH1 0x4B PUSH1 0x0 DUP1 DUP3 DUP3 SLOAD PUSH2 0x683 SWAP2 SWAP1 PUSH2 0xACC JUMP JUMPDEST SWAP3 POP POP DUP2 SWAP1 SSTORE POP JUMPDEST PUSH10 0x21E19E0C9BAB2400000 PUSH1 0x1 PUSH1 0x0 ADDRESS PUSH20 0xFFFFFFFFFFFFFFFFFFFFFFFFFFFFFFFFFFFFFFFF AND PUSH20 0xFFFFFFFFFFFFFFFFFFFFFFFFFFFFFFFFFFFFFFFF AND DUP2 MSTORE PUSH1 0x20 ADD SWAP1 DUP2 MSTORE PUSH1 0x20 ADD PUSH1 0x0 KECCAK256 SLOAD SUB PUSH2 0x6F5 JUMPI PUSH1 0x19 PUSH1 0x0 DUP1 DUP3 DUP3 SLOAD PUSH2 0x6ED SWAP2 SWAP1 PUSH2 0xACC JUMP JUMPDEST SWAP3 POP POP DUP2 SWAP1 SSTORE POP JUMPDEST JUMP JUMPDEST PUSH1 0x0 PUSH1 0x40 MLOAD SWAP1 POP SWAP1 JUMP JUMPDEST PUSH1 0x0 DUP1 REVERT JUMPDEST PUSH1 0x0 DUP1 REVERT JUMPDEST PUSH1 0x0 PUSH20 0xFFFFFFFFFFFFFFFFFFFFFFFFFFFFFFFFFFFFFFFF DUP3 AND SWAP1 POP SWAP2 SWAP1 POP JUMP JUMPDEST PUSH1 0x0 PUSH2 0x736 DUP3 PUSH2 0x70B JUMP JUMPDEST SWAP1 POP SWAP2 SWAP1 POP JUMP JUMPDEST PUSH2 0x746 DUP2 PUSH2 0x72B JUMP JUMPDEST DUP2 EQ PUSH2 0x751 JUMPI PUSH1 0x0 DUP1 REVERT JUMPDEST POP JUMP JUMPDEST PUSH1 0x0 DUP2 CALLDATALOAD SWAP1 POP PUSH2 0x763 DUP2 PUSH2 0x73D JUMP JUMPDEST SWAP3 SWAP2 POP POP JUMP JUMPDEST PUSH1 0x0 PUSH1 0x20 DUP3 DUP5 SUB SLT ISZERO PUSH2 0x77F JUMPI PUSH2 0x77E PUSH2 0x701 JUMP JUMPDEST JUMPDEST PUSH1 0x0 PUSH2 0x78D DUP5 DUP3 DUP6 ADD PUSH2 0x754 JUMP JUMPDEST SWAP2 POP POP SWAP3 SWAP2 POP POP JUMP JUMPDEST PUSH1 0x0 DUP2 ISZERO ISZERO SWAP1 POP SWAP2 SWAP1 POP JUMP JUMPDEST PUSH2 0x7AB DUP2 PUSH2 0x796 JUMP JUMPDEST DUP3 MSTORE POP POP JUMP JUMPDEST PUSH1 0x0 PUSH1 0x20 DUP3 ADD SWAP1 POP PUSH2 0x7C6 PUSH1 0x0 DUP4 ADD DUP5 PUSH2 0x7A2 JUMP JUMPDEST SWAP3 SWAP2 POP POP JUMP JUMPDEST PUSH1 0x0 DUP2 SWAP1 POP SWAP2 SWAP1 POP JUMP JUMPDEST PUSH2 0x7DF DUP2 PUSH2 0x7CC JUMP JUMPDEST DUP3 MSTORE POP POP JUMP JUMPDEST PUSH1 0x0 PUSH1 0x20 DUP3 ADD SWAP1 POP PUSH2 0x7FA PUSH1 0x0 DUP4 ADD DUP5 PUSH2 0x7D6 JUMP JUMPDEST SWAP3 SWAP2 POP POP JUMP JUMPDEST PUSH1 0x0 DUP2 SWAP1 POP SWAP2 SWAP1 POP JUMP JUMPDEST PUSH2 0x813 DUP2 PUSH2 0x800 JUMP JUMPDEST DUP2 EQ PUSH2 0x81E JUMPI PUSH1 0x0 DUP1 REVERT JUMPDEST POP JUMP JUMPDEST PUSH1 0x0 DUP2 CALLDATALOAD SWAP1 POP PUSH2 0x830 DUP2 PUSH2 0x80A JUMP JUMPDEST SWAP3 SWAP2 POP POP JUMP JUMPDEST PUSH1 0x0 DUP1 REVERT JUMPDEST PUSH1 0x0 DUP1 REVERT JUMPDEST PUSH1 0x0 PUSH1 0x1F NOT PUSH1 0x1F DUP4 ADD AND SWAP1 POP SWAP2 SWAP1 POP JUMP JUMPDEST PUSH32 0x4E487B7100000000000000000000000000000000000000000000000000000000 PUSH1 0x0 MSTORE PUSH1 0x41 PUSH1 0x4 MSTORE PUSH1 0x24 PUSH1 0x0 REVERT JUMPDEST PUSH2 0x889 DUP3 PUSH2 0x840 JUMP JUMPDEST DUP2 ADD DUP2 DUP2 LT PUSH8 0xFFFFFFFFFFFFFFFF DUP3 GT OR ISZERO PUSH2 0x8A8 JUMPI PUSH2 0x8A7 PUSH2 0x851 JUMP JUMPDEST JUMPDEST DUP1 PUSH1 0x40 MSTORE POP POP POP JUMP JUMPDEST PUSH1 0x0 PUSH2 0x8BB PUSH2 0x6F7 JUMP JUMPDEST SWAP1 POP PUSH2 0x8C7 DUP3 DUP3 PUSH2 0x880 JUMP JUMPDEST SWAP2 SWAP1 POP JUMP JUMPDEST PUSH1 0x0 PUSH8 0xFFFFFFFFFFFFFFFF DUP3 GT ISZERO PUSH2 0x8E7 JUMPI PUSH2 0x8E6 PUSH2 0x851 JUMP JUMPDEST JUMPDEST PUSH2 0x8F0 DUP3 PUSH2 0x840 JUMP JUMPDEST SWAP1 POP PUSH1 0x20 DUP2 ADD SWAP1 POP SWAP2 SWAP1 POP JUMP JUMPDEST DUP3 DUP2 DUP4 CALLDATACOPY PUSH1 0x0 DUP4 DUP4 ADD MSTORE POP POP POP JUMP JUMPDEST PUSH1 0x0 PUSH2 0x91F PUSH2 0x91A DUP5 PUSH2 0x8CC JUMP JUMPDEST PUSH2 0x8B1 JUMP JUMPDEST SWAP1 POP DUP3 DUP2 MSTORE PUSH1 0x20 DUP2 ADD DUP5 DUP5 DUP5 ADD GT ISZERO PUSH2 0x93B JUMPI PUSH2 0x93A PUSH2 0x83B JUMP JUMPDEST JUMPDEST PUSH2 0x946 DUP5 DUP3 DUP6 PUSH2 0x8FD JUMP JUMPDEST POP SWAP4 SWAP3 POP POP POP JUMP JUMPDEST PUSH1 0x0 DUP3 PUSH1 0x1F DUP4 ADD SLT PUSH2 0x963 JUMPI PUSH2 0x962 PUSH2 0x836 JUMP JUMPDEST JUMPDEST DUP2 CALLDATALOAD PUSH2 0x973 DUP5 DUP3 PUSH1 0x20 DUP7 ADD PUSH2 0x90C JUMP JUMPDEST SWAP2 POP POP SWAP3 SWAP2 POP POP JUMP JUMPDEST PUSH1 0x0 DUP1 PUSH1 0x40 DUP4 DUP6 SUB SLT ISZERO PUSH2 0x993 JUMPI PUSH2 0x992 PUSH2 0x701 JUMP JUMPDEST JUMPDEST PUSH1 0x0 PUSH2 0x9A1 DUP6 DUP3 DUP7 ADD PUSH2 0x821 JUMP JUMPDEST SWAP3 POP POP PUSH1 0x20 DUP4 ADD CALLDATALOAD PUSH8 0xFFFFFFFFFFFFFFFF DUP2 GT ISZERO PUSH2 0x9C2 JUMPI PUSH2 0x9C1 PUSH2 0x706 JUMP JUMPDEST JUMPDEST PUSH2 0x9CE DUP6 DUP3 DUP7 ADD PUSH2 0x94E JUMP JUMPDEST SWAP2 POP POP SWAP3 POP SWAP3 SWAP1 POP JUMP JUMPDEST PUSH2 0x9E1 DUP2 PUSH2 0x72B JUMP JUMPDEST DUP3 MSTORE POP POP JUMP JUMPDEST PUSH1 0x0 PUSH1 0x20 DUP3 ADD SWAP1 POP PUSH2 0x9FC PUSH1 0x0 DUP4 ADD DUP5 PUSH2 0x9D8 JUMP JUMPDEST SWAP3 SWAP2 POP POP JUMP JUMPDEST PUSH2 0xA0B DUP2 PUSH2 0x7CC JUMP JUMPDEST DUP2 EQ PUSH2 0xA16 JUMPI PUSH1 0x0 DUP1 REVERT JUMPDEST POP JUMP JUMPDEST PUSH1 0x0 DUP2 CALLDATALOAD SWAP1 POP PUSH2 0xA28 DUP2 PUSH2 0xA02 JUMP JUMPDEST SWAP3 SWAP2 POP POP JUMP JUMPDEST PUSH1 0x0 DUP1 PUSH1 0x0 PUSH1 0x60 DUP5 DUP7 SUB SLT ISZERO PUSH2 0xA47 JUMPI PUSH2 0xA46 PUSH2 0x701 JUMP JUMPDEST JUMPDEST PUSH1 0x0 PUSH2 0xA55 DUP7 DUP3 DUP8 ADD PUSH2 0x754 JUMP JUMPDEST SWAP4 POP POP PUSH1 0x20 PUSH2 0xA66 DUP7 DUP3 DUP8 ADD PUSH2 0xA19 JUMP JUMPDEST SWAP3 POP POP PUSH1 0x40 DUP5 ADD CALLDATALOAD PUSH8 0xFFFFFFFFFFFFFFFF DUP2 GT ISZERO PUSH2 0xA87 JUMPI PUSH2 0xA86 PUSH2 0x706 JUMP JUMPDEST JUMPDEST PUSH2 0xA93 DUP7 DUP3 DUP8 ADD PUSH2 0x94E JUMP JUMPDEST SWAP2 POP POP SWAP3 POP SWAP3 POP SWAP3 JUMP JUMPDEST PUSH32 0x4E487B7100000000000000000000000000000000000000000000000000000000 PUSH1 0x0 MSTORE PUSH1 0x11 PUSH1 0x4 MSTORE PUSH1 0x24 PUSH1 0x0 REVERT JUMPDEST PUSH1 0x0 PUSH2 0xAD7 DUP3 PUSH2 0x7CC JUMP JUMPDEST SWAP2 POP PUSH2 0xAE2 DUP4 PUSH2 0x7CC JUMP JUMPDEST SWAP3 POP DUP3 DUP3 ADD SWAP1 POP DUP1 DUP3 GT ISZERO PUSH2 0xAFA JUMPI PUSH2 0xAF9 PUSH2 0xA9D JUMP JUMPDEST JUMPDEST SWAP3 SWAP2 POP POP JUMP JUMPDEST PUSH1 0x0 PUSH2 0xB0B DUP3 PUSH2 0x7CC JUMP JUMPDEST SWAP2 POP PUSH2 0xB16 DUP4 PUSH2 0x7CC JUMP JUMPDEST SWAP3 POP DUP3 DUP3 SUB SWAP1 POP DUP2 DUP2 GT ISZERO PUSH2 0xB2E JUMPI PUSH2 0xB2D PUSH2 0xA9D JUMP JUMPDEST JUMPDEST SWAP3 SWAP2 POP POP JUMP JUMPDEST PUSH1 0x0 PUSH1 0xFF DUP3 AND SWAP1 POP SWAP2 SWAP1 POP JUMP JUMPDEST PUSH1 0x0 PUSH2 0xB4C DUP3 PUSH2 0xB34 JUMP JUMPDEST SWAP2 POP PUSH2 0xB57 DUP4 PUSH2 0xB34 JUMP JUMPDEST SWAP3 POP DUP3 DUP3 ADD SWAP1 POP PUSH1 0xFF DUP2 GT ISZERO PUSH2 0xB70 JUMPI PUSH2 0xB6F PUSH2 0xA9D JUMP JUMPDEST JUMPDEST SWAP3 SWAP2 POP POP JUMP JUMPDEST PUSH1 0x0 DUP2 MLOAD SWAP1 POP SWAP2 SWAP1 POP JUMP JUMPDEST PUSH1 0x0 DUP2 SWAP1 POP SWAP3 SWAP2 POP POP JUMP JUMPDEST PUSH1 0x0 JUMPDEST DUP4 DUP2 LT ISZERO PUSH2 0xBAA JUMPI DUP1 DUP3 ADD MLOAD DUP2 DUP5 ADD MSTORE PUSH1 0x20 DUP2 ADD SWAP1 POP PUSH2 0xB8F JUMP JUMPDEST PUSH1 0x0 DUP5 DUP5 ADD MSTORE POP POP POP POP JUMP JUMPDEST PUSH1 0x0 PUSH2 0xBC1 DUP3 PUSH2 0xB76 JUMP JUMPDEST PUSH2 0xBCB DUP2 DUP6 PUSH2 0xB81 JUMP JUMPDEST SWAP4 POP PUSH2 0xBDB DUP2 DUP6 PUSH1 0x20 DUP7 ADD PUSH2 0xB8C JUMP JUMPDEST DUP1 DUP5 ADD SWAP2 POP POP SWAP3 SWAP2 POP POP JUMP JUMPDEST PUSH1 0x0 DUP2 SWAP1 POP SWAP2 SWAP1 POP JUMP JUMPDEST PUSH2 0xC02 PUSH2 0xBFD DUP3 PUSH2 0x800 JUMP JUMPDEST PUSH2 0xBE7 JUMP JUMPDEST DUP3 MSTORE POP POP JUMP JUMPDEST PUSH1 0x0 PUSH2 0xC14 DUP3 DUP6 PUSH2 0xBB6 JUMP JUMPDEST SWAP2 POP PUSH2 0xC20 DUP3 DUP5 PUSH2 0xBF1 JUMP JUMPDEST PUSH1 0x20 DUP3 ADD SWAP2 POP DUP2 SWAP1 POP SWAP4 SWAP3 POP POP POP JUMP JUMPDEST PUSH2 0xC39 DUP2 PUSH2 0x800 JUMP JUMPDEST DUP3 MSTORE POP POP JUMP JUMPDEST PUSH2 0xC48 DUP2 PUSH2 0xB34 JUMP JUMPDEST DUP3 MSTORE POP POP JUMP JUMPDEST PUSH1 0x0 PUSH1 0x80 DUP3 ADD SWAP1 POP PUSH2 0xC63 PUSH1 0x0 DUP4 ADD DUP8 PUSH2 0xC30 JUMP JUMPDEST PUSH2 0xC70 PUSH1 0x20 DUP4 ADD DUP7 PUSH2 0xC3F JUMP JUMPDEST PUSH2 0xC7D PUSH1 0x40 DUP4 ADD DUP6 PUSH2 0xC30 JUMP JUMPDEST PUSH2 0xC8A PUSH1 0x60 DUP4 ADD DUP5 PUSH2 0xC30 JUMP JUMPDEST SWAP6 SWAP5 POP POP POP POP POP JUMP JUMPDEST PUSH1 0x0 DUP2 PUSH1 0x60 SHL SWAP1 POP SWAP2 SWAP1 POP JUMP JUMPDEST PUSH1 0x0 PUSH2 0xCAB DUP3 PUSH2 0xC93 JUMP JUMPDEST SWAP1 POP SWAP2 SWAP1 POP JUMP JUMPDEST PUSH1 0x0 PUSH2 0xCBD DUP3 PUSH2 0xCA0 JUMP JUMPDEST SWAP1 POP SWAP2 SWAP1 POP JUMP JUMPDEST PUSH2 0xCD5 PUSH2 0xCD0 DUP3 PUSH2 0x72B JUMP JUMPDEST PUSH2 0xCB2 JUMP JUMPDEST DUP3 MSTORE POP POP JUMP JUMPDEST PUSH1 0x0 DUP2 SWAP1 POP SWAP2 SWAP1 POP JUMP JUMPDEST PUSH2 0xCF6 PUSH2 0xCF1 DUP3 PUSH2 0x7CC JUMP JUMPDEST PUSH2 0xCDB JUMP JUMPDEST DUP3 MSTORE POP POP JUMP JUMPDEST PUSH1 0x0 PUSH2 0xD08 DUP3 DUP7 PUSH2 0xCC4 JUMP JUMPDEST PUSH1 0x14 DUP3 ADD SWAP2 POP PUSH2 0xD18 DUP3 DUP6 PUSH2 0xCE5 JUMP JUMPDEST PUSH1 0x20 DUP3 ADD SWAP2 POP PUSH2 0xD28 DUP3 DUP5 PUSH2 0xCC4 JUMP JUMPDEST PUSH1 0x14 DUP3 ADD SWAP2 POP DUP2 SWAP1 POP SWAP5 SWAP4 POP POP POP POP JUMP JUMPDEST PUSH1 0x0 DUP3 DUP3 MSTORE PUSH1 0x20 DUP3 ADD SWAP1 POP SWAP3 SWAP2 POP POP JUMP JUMPDEST PUSH32 0x796F757220736967206973206E6F742072696768740000000000000000000000 PUSH1 0x0 DUP3 ADD MSTORE POP JUMP JUMPDEST PUSH1 0x0 PUSH2 0xD80 PUSH1 0x15 DUP4 PUSH2 0xD39 JUMP JUMPDEST SWAP2 POP PUSH2 0xD8B DUP3 PUSH2 0xD4A JUMP JUMPDEST PUSH1 0x20 DUP3 ADD SWAP1 POP SWAP2 SWAP1 POP JUMP JUMPDEST PUSH1 0x0 PUSH1 0x20 DUP3 ADD SWAP1 POP DUP2 DUP2 SUB PUSH1 0x0 DUP4 ADD MSTORE PUSH2 0xDAF DUP2 PUSH2 0xD73 JUMP JUMPDEST SWAP1 POP SWAP2 SWAP1 POP JUMP INVALID LOG2 PUSH5 0x6970667358 0x22 SLT KECCAK256 0xD3 DUP8 0x2D 0xBE XOR SWAP11 PUSH4 0xA8B13CE5 SWAP5 0xD9 0xEE RETURNDATACOPY SWAP7 0x22 0xB2 SWAP6 0xC6 0xBD MLOAD BALANCE PUSH25 0x2E2D9337A8E5AC5864736F6C63430008120033000000000000 "
				},
				"gasEstimates": {
					"creation": {
						"codeDepositCost": "712800",
						"executionCost": "22950",
						"totalCost": "735750"
					},
					"external": {
						"airdrop()": "infinite",
						"balanceOf(address)": "2886",
						"ecrecovery(bytes32,bytes)": "infinite",
						"isAir(address)": "2868",
						"isCompleted()": "infinite",
						"safeTransfer(address,uint256,bytes)": "infinite",
						"score()": "2473"
					}
				},
				"methodIdentifiers": {
					"airdrop()": "3884d635",
					"balanceOf(address)": "70a08231",
					"ecrecovery(bytes32,bytes)": "77d32e94",
					"isAir(address)": "450c8025",
					"isCompleted()": "fa391c64",
					"safeTransfer(address,uint256,bytes)": "eb795549",
					"score()": "efedc669"
				}
			},
			"storageLayout": {
				"storage": [
					{
						"astId": 3,
						"contract": "SecLessonPoc-main/contracts/verifySign/check/ectransfer.sol:ectransfer",
						"label": "score",
						"offset": 0,
						"slot": "0",
						"type": "t_uint256"
					},
					{
						"astId": 7,
						"contract": "SecLessonPoc-main/contracts/verifySign/check/ectransfer.sol:ectransfer",
						"label": "_balances",
						"offset": 0,
						"slot": "1",
						"type": "t_mapping(t_address,t_uint256)"
					},
					{
						"astId": 11,
						"contract": "SecLessonPoc-main/contracts/verifySign/check/ectransfer.sol:ectransfer",
						"label": "isAir",
						"offset": 0,
						"slot": "2",
						"type": "t_mapping(t_address,t_bool)"
					}
				],
				"types": {
					"t_address": {
						"encoding": "inplace",
						"label": "address",
						"numberOfBytes": "20"
					},
					"t_bool": {
						"encoding": "inplace",
						"label": "bool",
						"numberOfBytes": "1"
					},
					"t_mapping(t_address,t_bool)": {
						"encoding": "mapping",
						"key": "t_address",
						"label": "mapping(address => bool)",
						"numberOfBytes": "32",
						"value": "t_bool"
					},
					"t_mapping(t_address,t_uint256)": {
						"encoding": "mapping",
						"key": "t_address",
						"label": "mapping(address => uint256)",
						"numberOfBytes": "32",
						"value": "t_uint256"
					},
					"t_uint256": {
						"encoding": "inplace",
						"label": "uint256",
						"numberOfBytes": "32"
					}
				}
			},
			"userdoc": {
				"kind": "user",
				"methods": {},
				"version": 1
			}
		}
	}
}