{
	"data": {
		"bytecode": {
			"linkReferences": {},
			"object": "608060405260405180602001620000169062000150565b6020820181038252601f19601f82011660405250600290816200003a9190620003c2565b5034801562000047575f80fd5b5060405162001d1d38038062001d1d83398181016040528101906200006d91906200050b565b8060015f6101000a81548173ffffffffffffffffffffffffffffffffffffffff021916908373ffffffffffffffffffffffffffffffffffffffff16021790555060405180602001620000bf9062000150565b6020820181038252601f19601f8201166040525060015f9054906101000a900473ffffffffffffffffffffffffffffffffffffffff166040516020016200010791906200054c565b60405160208183030381529060405260405160200162000129929190620005d1565b60405160208183030381529060405260039081620001489190620003c2565b5050620005f8565b6109c1806200135c83390190565b5f81519050919050565b7f4e487b71000000000000000000000000000000000000000000000000000000005f52604160045260245ffd5b7f4e487b71000000000000000000000000000000000000000000000000000000005f52602260045260245ffd5b5f6002820490506001821680620001da57607f821691505b602082108103620001f057620001ef62000195565b5b50919050565b5f819050815f5260205f209050919050565b5f6020601f8301049050919050565b5f82821b905092915050565b5f60088302620002547fffffffffffffffffffffffffffffffffffffffffffffffffffffffffffffffff8262000217565b62000260868362000217565b95508019841693508086168417925050509392505050565b5f819050919050565b5f819050919050565b5f620002aa620002a46200029e8462000278565b62000281565b62000278565b9050919050565b5f819050919050565b620002c5836200028a565b620002dd620002d482620002b1565b84845462000223565b825550505050565b5f90565b620002f3620002e5565b62000300818484620002ba565b505050565b5b8181101562000327576200031b5f82620002e9565b60018101905062000306565b5050565b601f82111562000376576200034081620001f6565b6200034b8462000208565b810160208510156200035b578190505b620003736200036a8562000208565b83018262000305565b50505b505050565b5f82821c905092915050565b5f620003985f19846008026200037b565b1980831691505092915050565b5f620003b2838362000387565b9150826002028217905092915050565b620003cd826200015e565b67ffffffffffffffff811115620003e957620003e862000168565b5b620003f58254620001c2565b620004028282856200032b565b5f60209050601f83116001811462000438575f841562000423578287015190505b6200042f8582620003a5565b8655506200049e565b601f1984166200044886620001f6565b5f5b8281101562000471578489015182556001820191506020850194506020810190506200044a565b868310156200049157848901516200048d601f89168262000387565b8355505b6001600288020188555050505b505050505050565b5f80fd5b5f73ffffffffffffffffffffffffffffffffffffffff82169050919050565b5f620004d582620004aa565b9050919050565b620004e781620004c9565b8114620004f2575f80fd5b50565b5f815190506200050581620004dc565b92915050565b5f60208284031215620005235762000522620004a6565b5b5f6200053284828501620004f5565b91505092915050565b6200054681620004c9565b82525050565b5f602082019050620005615f8301846200053b565b92915050565b5f81905092915050565b5f5b838110156200059057808201518184015260208101905062000573565b5f8484015250505050565b5f620005a7826200015e565b620005b3818562000567565b9350620005c581856020860162000571565b80840191505092915050565b5f620005de82856200059b565b9150620005ec82846200059b565b91508190509392505050565b610d5680620006065f395ff3fe608060405234801562000010575f80fd5b506004361062000038575f3560e01c80636a6cc258146200003c578063d13319c4146200005c575b5f80fd5b6200005a600480360381019062000054919062000184565b6200007e565b005b620000666200011b565b604051620000759190620001c5565b60405180910390f35b8060015f9054906101000a900473ffffffffffffffffffffffffffffffffffffffff16604051620000af906200013a565b620000bb919062000223565b8190604051809103905ff5905080158015620000d9573d5f803e3d5ffd5b505f806101000a81548173ffffffffffffffffffffffffffffffffffffffff021916908373ffffffffffffffffffffffffffffffffffffffff16021790555050565b5f60036040516200012d919062000347565b6040518091039020905090565b6109c1806200036083390190565b5f80fd5b5f819050919050565b62000160816200014c565b81146200016b575f80fd5b50565b5f813590506200017e8162000155565b92915050565b5f602082840312156200019c576200019b62000148565b5b5f620001ab848285016200016e565b91505092915050565b620001bf816200014c565b82525050565b5f602082019050620001da5f830184620001b4565b92915050565b5f73ffffffffffffffffffffffffffffffffffffffff82169050919050565b5f6200020b82620001e0565b9050919050565b6200021d81620001ff565b82525050565b5f602082019050620002385f83018462000212565b92915050565b7f4e487b71000000000000000000000000000000000000000000000000000000005f52602260045260245ffd5b5f60028204905060018216806200028357607f821691505b6020821081036200029957620002986200023e565b5b50919050565b5f81905092915050565b5f819050815f5260205f209050919050565b5f8154620002c9816200026b565b620002d581866200029f565b9450600182165f8114620002f2576001811462000308576200033e565b60ff19831686528115158202860193506200033e565b6200031385620002a9565b5f5b83811015620003365781548189015260018201915060208101905062000315565b838801955050505b50505092915050565b5f620003548284620002bb565b91508190509291505056fe60806040526040516024016040516020818303038152906040527fe09966a8000000000000000000000000000000000000000000000000000000007bffffffffffffffffffffffffffffffffffffffffffffffffffffffff19166020820180517bffffffffffffffffffffffffffffffffffffffffffffffffffffffff83818316178352505050506001908162000097919062000374565b50348015620000a4575f80fd5b50604051620009c1380380620009c18339818101604052810190620000ca9190620004bd565b805f806101000a81548173ffffffffffffffffffffffffffffffffffffffff021916908373ffffffffffffffffffffffffffffffffffffffff16021790555050620004ed565b5f81519050919050565b7f4e487b71000000000000000000000000000000000000000000000000000000005f52604160045260245ffd5b7f4e487b71000000000000000000000000000000000000000000000000000000005f52602260045260245ffd5b5f60028204905060018216806200018c57607f821691505b602082108103620001a257620001a162000147565b5b50919050565b5f819050815f5260205f209050919050565b5f6020601f8301049050919050565b5f82821b905092915050565b5f60088302620002067fffffffffffffffffffffffffffffffffffffffffffffffffffffffffffffffff82620001c9565b620002128683620001c9565b95508019841693508086168417925050509392505050565b5f819050919050565b5f819050919050565b5f6200025c6200025662000250846200022a565b62000233565b6200022a565b9050919050565b5f819050919050565b62000277836200023c565b6200028f620002868262000263565b848454620001d5565b825550505050565b5f90565b620002a562000297565b620002b28184846200026c565b505050565b5b81811015620002d957620002cd5f826200029b565b600181019050620002b8565b5050565b601f8211156200032857620002f281620001a8565b620002fd84620001ba565b810160208510156200030d578190505b620003256200031c85620001ba565b830182620002b7565b50505b505050565b5f82821c905092915050565b5f6200034a5f19846008026200032d565b1980831691505092915050565b5f62000364838362000339565b9150826002028217905092915050565b6200037f8262000110565b67ffffffffffffffff8111156200039b576200039a6200011a565b5b620003a7825462000174565b620003b4828285620002dd565b5f60209050601f831160018114620003ea575f8415620003d5578287015190505b620003e1858262000357565b86555062000450565b601f198416620003fa86620001a8565b5f5b828110156200042357848901518255600182019150602085019450602081019050620003fc565b868310156200044357848901516200043f601f89168262000339565b8355505b6001600288020188555050505b505050505050565b5f80fd5b5f73ffffffffffffffffffffffffffffffffffffffff82169050919050565b5f62000487826200045c565b9050919050565b62000499816200047b565b8114620004a4575f80fd5b50565b5f81519050620004b7816200048e565b92915050565b5f60208284031215620004d557620004d462000458565b5b5f620004e484828501620004a7565b91505092915050565b6104c680620004fb5f395ff3fe608060405234801561000f575f80fd5b5060043610610029575f3560e01c806350f357531461002d575b5f80fd5b610035610037565b005b5f8054906101000a900473ffffffffffffffffffffffffffffffffffffffff1673ffffffffffffffffffffffffffffffffffffffff1663c58a455b6040518163ffffffff1660e01b81526004015f604051808303815f87803b15801561009b575f80fd5b505af11580156100ad573d5f803e3d5ffd5b505050505f8054906101000a900473ffffffffffffffffffffffffffffffffffffffff1673ffffffffffffffffffffffffffffffffffffffff166319c43a016040518163ffffffff1660e01b81526004015f604051808303815f87803b158015610115575f80fd5b505af1158015610127573d5f803e3d5ffd5b505050505f8054906101000a900473ffffffffffffffffffffffffffffffffffffffff1673ffffffffffffffffffffffffffffffffffffffff1663cf9f23b56040518163ffffffff1660e01b81526004015f604051808303815f87803b15801561018f575f80fd5b505af11580156101a1573d5f803e3d5ffd5b505050505f8054906101000a900473ffffffffffffffffffffffffffffffffffffffff1673ffffffffffffffffffffffffffffffffffffffff1663e0232b425f8054906101000a900473ffffffffffffffffffffffffffffffffffffffff165f60016040518463ffffffff1660e01b815260040161022193929190610454565b5f604051808303815f87803b158015610238575f80fd5b505af115801561024a573d5f803e3d5ffd5b505050505f8054906101000a900473ffffffffffffffffffffffffffffffffffffffff1673ffffffffffffffffffffffffffffffffffffffff1663fa391c646040518163ffffffff1660e01b81526004015f604051808303815f87803b1580156102b2575f80fd5b505af11580156102c4573d5f803e3d5ffd5b50505050565b5f73ffffffffffffffffffffffffffffffffffffffff82169050919050565b5f6102f3826102ca565b9050919050565b610303816102e9565b82525050565b5f819050919050565b5f819050919050565b5f819050919050565b5f61033e61033961033484610309565b61031b565b610312565b9050919050565b61034e81610324565b82525050565b7f4e487b71000000000000000000000000000000000000000000000000000000005f52602260045260245ffd5b5f600282049050600182168061039857607f821691505b6020821081036103ab576103aa610354565b5b50919050565b5f82825260208201905092915050565b5f819050815f5260205f209050919050565b5f81546103df81610381565b6103e981866103b1565b9450600182165f811461040357600181146104195761044b565b60ff19831686528115156020028601935061044b565b610422856103c1565b5f5b8381101561044357815481890152600182019150602081019050610424565b808801955050505b50505092915050565b5f6060820190506104675f8301866102fa565b6104746020830185610345565b818103604083015261048681846103d3565b905094935050505056fea2646970667358221220b76ba55b4526d8ff8dd1ac298b52a38bdc28f68d482e193bd69b4ca4a314c62c64736f6c63430008150033a2646970667358221220e937551c6d0df99dcbd65430997a8744a889b98c7ab25030c73cb59ee6e95a0564736f6c6343000815003360806040526040516024016040516020818303038152906040527fe09966a8000000000000000000000000000000000000000000000000000000007bffffffffffffffffffffffffffffffffffffffffffffffffffffffff19166020820180517bffffffffffffffffffffffffffffffffffffffffffffffffffffffff83818316178352505050506001908162000097919062000374565b50348015620000a4575f80fd5b50604051620009c1380380620009c18339818101604052810190620000ca9190620004bd565b805f806101000a81548173ffffffffffffffffffffffffffffffffffffffff021916908373ffffffffffffffffffffffffffffffffffffffff16021790555050620004ed565b5f81519050919050565b7f4e487b71000000000000000000000000000000000000000000000000000000005f52604160045260245ffd5b7f4e487b71000000000000000000000000000000000000000000000000000000005f52602260045260245ffd5b5f60028204905060018216806200018c57607f821691505b602082108103620001a257620001a162000147565b5b50919050565b5f819050815f5260205f209050919050565b5f6020601f8301049050919050565b5f82821b905092915050565b5f60088302620002067fffffffffffffffffffffffffffffffffffffffffffffffffffffffffffffffff82620001c9565b620002128683620001c9565b95508019841693508086168417925050509392505050565b5f819050919050565b5f819050919050565b5f6200025c6200025662000250846200022a565b62000233565b6200022a565b9050919050565b5f819050919050565b62000277836200023c565b6200028f620002868262000263565b848454620001d5565b825550505050565b5f90565b620002a562000297565b620002b28184846200026c565b505050565b5b81811015620002d957620002cd5f826200029b565b600181019050620002b8565b5050565b601f8211156200032857620002f281620001a8565b620002fd84620001ba565b810160208510156200030d578190505b620003256200031c85620001ba565b830182620002b7565b50505b505050565b5f82821c905092915050565b5f6200034a5f19846008026200032d565b1980831691505092915050565b5f62000364838362000339565b9150826002028217905092915050565b6200037f8262000110565b67ffffffffffffffff8111156200039b576200039a6200011a565b5b620003a7825462000174565b620003b4828285620002dd565b5f60209050601f831160018114620003ea575f8415620003d5578287015190505b620003e1858262000357565b86555062000450565b601f198416620003fa86620001a8565b5f5b828110156200042357848901518255600182019150602085019450602081019050620003fc565b868310156200044357848901516200043f601f89168262000339565b8355505b6001600288020188555050505b505050505050565b5f80fd5b5f73ffffffffffffffffffffffffffffffffffffffff82169050919050565b5f62000487826200045c565b9050919050565b62000499816200047b565b8114620004a4575f80fd5b50565b5f81519050620004b7816200048e565b92915050565b5f60208284031215620004d557620004d462000458565b5b5f620004e484828501620004a7565b91505092915050565b6104c680620004fb5f395ff3fe608060405234801561000f575f80fd5b5060043610610029575f3560e01c806350f357531461002d575b5f80fd5b610035610037565b005b5f8054906101000a900473ffffffffffffffffffffffffffffffffffffffff1673ffffffffffffffffffffffffffffffffffffffff1663c58a455b6040518163ffffffff1660e01b81526004015f604051808303815f87803b15801561009b575f80fd5b505af11580156100ad573d5f803e3d5ffd5b505050505f8054906101000a900473ffffffffffffffffffffffffffffffffffffffff1673ffffffffffffffffffffffffffffffffffffffff166319c43a016040518163ffffffff1660e01b81526004015f604051808303815f87803b158015610115575f80fd5b505af1158015610127573d5f803e3d5ffd5b505050505f8054906101000a900473ffffffffffffffffffffffffffffffffffffffff1673ffffffffffffffffffffffffffffffffffffffff1663cf9f23b56040518163ffffffff1660e01b81526004015f604051808303815f87803b15801561018f575f80fd5b505af11580156101a1573d5f803e3d5ffd5b505050505f8054906101000a900473ffffffffffffffffffffffffffffffffffffffff1673ffffffffffffffffffffffffffffffffffffffff1663e0232b425f8054906101000a900473ffffffffffffffffffffffffffffffffffffffff165f60016040518463ffffffff1660e01b815260040161022193929190610454565b5f604051808303815f87803b158015610238575f80fd5b505af115801561024a573d5f803e3d5ffd5b505050505f8054906101000a900473ffffffffffffffffffffffffffffffffffffffff1673ffffffffffffffffffffffffffffffffffffffff1663fa391c646040518163ffffffff1660e01b81526004015f604051808303815f87803b1580156102b2575f80fd5b505af11580156102c4573d5f803e3d5ffd5b50505050565b5f73ffffffffffffffffffffffffffffffffffffffff82169050919050565b5f6102f3826102ca565b9050919050565b610303816102e9565b82525050565b5f819050919050565b5f819050919050565b5f819050919050565b5f61033e61033961033484610309565b61031b565b610312565b9050919050565b61034e81610324565b82525050565b7f4e487b71000000000000000000000000000000000000000000000000000000005f52602260045260245ffd5b5f600282049050600182168061039857607f821691505b6020821081036103ab576103aa610354565b5b50919050565b5f82825260208201905092915050565b5f819050815f5260205f209050919050565b5f81546103df81610381565b6103e981866103b1565b9450600182165f811461040357600181146104195761044b565b60ff19831686528115156020028601935061044b565b610422856103c1565b5f5b8381101561044357815481890152600182019150602081019050610424565b808801955050505b50505092915050565b5f6060820190506104675f8301866102fa565b6104746020830185610345565b818103604083015261048681846103d3565b905094935050505056fea2646970667358221220b76ba55b4526d8ff8dd1ac298b52a38bdc28f68d482e193bd69b4ca4a314c62c64736f6c63430008150033",
			"opcodes": "PUSH1 0x80 PUSH1 0x40 MSTORE PUSH1 0x40 MLOAD DUP1 PUSH1 0x20 ADD PUSH3 0x16 SWAP1 PUSH3 0x150 JUMP JUMPDEST PUSH1 0x20 DUP3 ADD DUP2 SUB DUP3 MSTORE PUSH1 0x1F NOT PUSH1 0x1F DUP3 ADD AND PUSH1 0x40 MSTORE POP PUSH1 0x2 SWAP1 DUP2 PUSH3 0x3A SWAP2 SWAP1 PUSH3 0x3C2 JUMP JUMPDEST POP CALLVALUE DUP1 ISZERO PUSH3 0x47 JUMPI PUSH0 DUP1 REVERT JUMPDEST POP PUSH1 0x40 MLOAD PUSH3 0x1D1D CODESIZE SUB DUP1 PUSH3 0x1D1D DUP4 CODECOPY DUP2 DUP2 ADD PUSH1 0x40 MSTORE DUP2 ADD SWAP1 PUSH3 0x6D SWAP2 SWAP1 PUSH3 0x50B JUMP JUMPDEST DUP1 PUSH1 0x1 PUSH0 PUSH2 0x100 EXP DUP2 SLOAD DUP2 PUSH20 0xFFFFFFFFFFFFFFFFFFFFFFFFFFFFFFFFFFFFFFFF MUL NOT AND SWAP1 DUP4 PUSH20 0xFFFFFFFFFFFFFFFFFFFFFFFFFFFFFFFFFFFFFFFF AND MUL OR SWAP1 SSTORE POP PUSH1 0x40 MLOAD DUP1 PUSH1 0x20 ADD PUSH3 0xBF SWAP1 PUSH3 0x150 JUMP JUMPDEST PUSH1 0x20 DUP3 ADD DUP2 SUB DUP3 MSTORE PUSH1 0x1F NOT PUSH1 0x1F DUP3 ADD AND PUSH1 0x40 MSTORE POP PUSH1 0x1 PUSH0 SWAP1 SLOAD SWAP1 PUSH2 0x100 EXP SWAP1 DIV PUSH20 0xFFFFFFFFFFFFFFFFFFFFFFFFFFFFFFFFFFFFFFFF AND PUSH1 0x40 MLOAD PUSH1 0x20 ADD PUSH3 0x107 SWAP2 SWAP1 PUSH3 0x54C JUMP JUMPDEST PUSH1 0x40 MLOAD PUSH1 0x20 DUP2 DUP4 SUB SUB DUP2 MSTORE SWAP1 PUSH1 0x40 MSTORE PUSH1 0x40 MLOAD PUSH1 0x20 ADD PUSH3 0x129 SWAP3 SWAP2 SWAP1 PUSH3 0x5D1 JUMP JUMPDEST PUSH1 0x40 MLOAD PUSH1 0x20 DUP2 DUP4 SUB SUB DUP2 MSTORE SWAP1 PUSH1 0x40 MSTORE PUSH1 0x3 SWAP1 DUP2 PUSH3 0x148 SWAP2 SWAP1 PUSH3 0x3C2 JUMP JUMPDEST POP POP PUSH3 0x5F8 JUMP JUMPDEST PUSH2 0x9C1 DUP1 PUSH3 0x135C DUP4 CODECOPY ADD SWAP1 JUMP JUMPDEST PUSH0 DUP2 MLOAD SWAP1 POP SWAP2 SWAP1 POP JUMP JUMPDEST PUSH32 0x4E487B7100000000000000000000000000000000000000000000000000000000 PUSH0 MSTORE PUSH1 0x41 PUSH1 0x4 MSTORE PUSH1 0x24 PUSH0 REVERT JUMPDEST PUSH32 0x4E487B7100000000000000000000000000000000000000000000000000000000 PUSH0 MSTORE PUSH1 0x22 PUSH1 0x4 MSTORE PUSH1 0x24 PUSH0 REVERT JUMPDEST PUSH0 PUSH1 0x2 DUP3 DIV SWAP1 POP PUSH1 0x1 DUP3 AND DUP1 PUSH3 0x1DA JUMPI PUSH1 0x7F DUP3 AND SWAP2 POP JUMPDEST PUSH1 0x20 DUP3 LT DUP2 SUB PUSH3 0x1F0 JUMPI PUSH3 0x1EF PUSH3 0x195 JUMP JUMPDEST JUMPDEST POP SWAP2 SWAP1 POP JUMP JUMPDEST PUSH0 DUP2 SWAP1 POP DUP2 PUSH0 MSTORE PUSH1 0x20 PUSH0 KECCAK256 SWAP1 POP SWAP2 SWAP1 POP JUMP JUMPDEST PUSH0 PUSH1 0x20 PUSH1 0x1F DUP4 ADD DIV SWAP1 POP SWAP2 SWAP1 POP JUMP JUMPDEST PUSH0 DUP3 DUP3 SHL SWAP1 POP SWAP3 SWAP2 POP POP JUMP JUMPDEST PUSH0 PUSH1 0x8 DUP4 MUL PUSH3 0x254 PUSH32 0xFFFFFFFFFFFFFFFFFFFFFFFFFFFFFFFFFFFFFFFFFFFFFFFFFFFFFFFFFFFFFFFF DUP3 PUSH3 0x217 JUMP JUMPDEST PUSH3 0x260 DUP7 DUP4 PUSH3 0x217 JUMP JUMPDEST SWAP6 POP DUP1 NOT DUP5 AND SWAP4 POP DUP1 DUP7 AND DUP5 OR SWAP3 POP POP POP SWAP4 SWAP3 POP POP POP JUMP JUMPDEST PUSH0 DUP2 SWAP1 POP SWAP2 SWAP1 POP JUMP JUMPDEST PUSH0 DUP2 SWAP1 POP SWAP2 SWAP1 POP JUMP JUMPDEST PUSH0 PUSH3 0x2AA PUSH3 0x2A4 PUSH3 0x29E DUP5 PUSH3 0x278 JUMP JUMPDEST PUSH3 0x281 JUMP JUMPDEST PUSH3 0x278 JUMP JUMPDEST SWAP1 POP SWAP2 SWAP1 POP JUMP JUMPDEST PUSH0 DUP2 SWAP1 POP SWAP2 SWAP1 POP JUMP JUMPDEST PUSH3 0x2C5 DUP4 PUSH3 0x28A JUMP JUMPDEST PUSH3 0x2DD PUSH3 0x2D4 DUP3 PUSH3 0x2B1 JUMP JUMPDEST DUP5 DUP5 SLOAD PUSH3 0x223 JUMP JUMPDEST DUP3 SSTORE POP POP POP POP JUMP JUMPDEST PUSH0 SWAP1 JUMP JUMPDEST PUSH3 0x2F3 PUSH3 0x2E5 JUMP JUMPDEST PUSH3 0x300 DUP2 DUP5 DUP5 PUSH3 0x2BA JUMP JUMPDEST POP POP POP JUMP JUMPDEST JUMPDEST DUP2 DUP2 LT ISZERO PUSH3 0x327 JUMPI PUSH3 0x31B PUSH0 DUP3 PUSH3 0x2E9 JUMP JUMPDEST PUSH1 0x1 DUP2 ADD SWAP1 POP PUSH3 0x306 JUMP JUMPDEST POP POP JUMP JUMPDEST PUSH1 0x1F DUP3 GT ISZERO PUSH3 0x376 JUMPI PUSH3 0x340 DUP2 PUSH3 0x1F6 JUMP JUMPDEST PUSH3 0x34B DUP5 PUSH3 0x208 JUMP JUMPDEST DUP2 ADD PUSH1 0x20 DUP6 LT ISZERO PUSH3 0x35B JUMPI DUP2 SWAP1 POP JUMPDEST PUSH3 0x373 PUSH3 0x36A DUP6 PUSH3 0x208 JUMP JUMPDEST DUP4 ADD DUP3 PUSH3 0x305 JUMP JUMPDEST POP POP JUMPDEST POP POP POP JUMP JUMPDEST PUSH0 DUP3 DUP3 SHR SWAP1 POP SWAP3 SWAP2 POP POP JUMP JUMPDEST PUSH0 PUSH3 0x398 PUSH0 NOT DUP5 PUSH1 0x8 MUL PUSH3 0x37B JUMP JUMPDEST NOT DUP1 DUP4 AND SWAP2 POP POP SWAP3 SWAP2 POP POP JUMP JUMPDEST PUSH0 PUSH3 0x3B2 DUP4 DUP4 PUSH3 0x387 JUMP JUMPDEST SWAP2 POP DUP3 PUSH1 0x2 MUL DUP3 OR SWAP1 POP SWAP3 SWAP2 POP POP JUMP JUMPDEST PUSH3 0x3CD DUP3 PUSH3 0x15E JUMP JUMPDEST PUSH8 0xFFFFFFFFFFFFFFFF DUP2 GT ISZERO PUSH3 0x3E9 JUMPI PUSH3 0x3E8 PUSH3 0x168 JUMP JUMPDEST JUMPDEST PUSH3 0x3F5 DUP3 SLOAD PUSH3 0x1C2 JUMP JUMPDEST PUSH3 0x402 DUP3 DUP3 DUP6 PUSH3 0x32B JUMP JUMPDEST PUSH0 PUSH1 0x20 SWAP1 POP PUSH1 0x1F DUP4 GT PUSH1 0x1 DUP2 EQ PUSH3 0x438 JUMPI PUSH0 DUP5 ISZERO PUSH3 0x423 JUMPI DUP3 DUP8 ADD MLOAD SWAP1 POP JUMPDEST PUSH3 0x42F DUP6 DUP3 PUSH3 0x3A5 JUMP JUMPDEST DUP7 SSTORE POP PUSH3 0x49E JUMP JUMPDEST PUSH1 0x1F NOT DUP5 AND PUSH3 0x448 DUP7 PUSH3 0x1F6 JUMP JUMPDEST PUSH0 JUMPDEST DUP3 DUP2 LT ISZERO PUSH3 0x471 JUMPI DUP5 DUP10 ADD MLOAD DUP3 SSTORE PUSH1 0x1 DUP3 ADD SWAP2 POP PUSH1 0x20 DUP6 ADD SWAP5 POP PUSH1 0x20 DUP2 ADD SWAP1 POP PUSH3 0x44A JUMP JUMPDEST DUP7 DUP4 LT ISZERO PUSH3 0x491 JUMPI DUP5 DUP10 ADD MLOAD PUSH3 0x48D PUSH1 0x1F DUP10 AND DUP3 PUSH3 0x387 JUMP JUMPDEST DUP4 SSTORE POP JUMPDEST PUSH1 0x1 PUSH1 0x2 DUP9 MUL ADD DUP9 SSTORE POP POP POP JUMPDEST POP POP POP POP POP POP JUMP JUMPDEST PUSH0 DUP1 REVERT JUMPDEST PUSH0 PUSH20 0xFFFFFFFFFFFFFFFFFFFFFFFFFFFFFFFFFFFFFFFF DUP3 AND SWAP1 POP SWAP2 SWAP1 POP JUMP JUMPDEST PUSH0 PUSH3 0x4D5 DUP3 PUSH3 0x4AA JUMP JUMPDEST SWAP1 POP SWAP2 SWAP1 POP JUMP JUMPDEST PUSH3 0x4E7 DUP2 PUSH3 0x4C9 JUMP JUMPDEST DUP2 EQ PUSH3 0x4F2 JUMPI PUSH0 DUP1 REVERT JUMPDEST POP JUMP JUMPDEST PUSH0 DUP2 MLOAD SWAP1 POP PUSH3 0x505 DUP2 PUSH3 0x4DC JUMP JUMPDEST SWAP3 SWAP2 POP POP JUMP JUMPDEST PUSH0 PUSH1 0x20 DUP3 DUP5 SUB SLT ISZERO PUSH3 0x523 JUMPI PUSH3 0x522 PUSH3 0x4A6 JUMP JUMPDEST JUMPDEST PUSH0 PUSH3 0x532 DUP5 DUP3 DUP6 ADD PUSH3 0x4F5 JUMP JUMPDEST SWAP2 POP POP SWAP3 SWAP2 POP POP JUMP JUMPDEST PUSH3 0x546 DUP2 PUSH3 0x4C9 JUMP JUMPDEST DUP3 MSTORE POP POP JUMP JUMPDEST PUSH0 PUSH1 0x20 DUP3 ADD SWAP1 POP PUSH3 0x561 PUSH0 DUP4 ADD DUP5 PUSH3 0x53B JUMP JUMPDEST SWAP3 SWAP2 POP POP JUMP JUMPDEST PUSH0 DUP2 SWAP1 POP SWAP3 SWAP2 POP POP JUMP JUMPDEST PUSH0 JUMPDEST DUP4 DUP2 LT ISZERO PUSH3 0x590 JUMPI DUP1 DUP3 ADD MLOAD DUP2 DUP5 ADD MSTORE PUSH1 0x20 DUP2 ADD SWAP1 POP PUSH3 0x573 JUMP JUMPDEST PUSH0 DUP5 DUP5 ADD MSTORE POP POP POP POP JUMP JUMPDEST PUSH0 PUSH3 0x5A7 DUP3 PUSH3 0x15E JUMP JUMPDEST PUSH3 0x5B3 DUP2 DUP6 PUSH3 0x567 JUMP JUMPDEST SWAP4 POP PUSH3 0x5C5 DUP2 DUP6 PUSH1 0x20 DUP7 ADD PUSH3 0x571 JUMP JUMPDEST DUP1 DUP5 ADD SWAP2 POP POP SWAP3 SWAP2 POP POP JUMP JUMPDEST PUSH0 PUSH3 0x5DE DUP3 DUP6 PUSH3 0x59B JUMP JUMPDEST SWAP2 POP PUSH3 0x5EC DUP3 DUP5 PUSH3 0x59B JUMP JUMPDEST SWAP2 POP DUP2 SWAP1 POP SWAP4 SWAP3 POP POP POP JUMP JUMPDEST PUSH2 0xD56 DUP1 PUSH3 0x606 PUSH0 CODECOPY PUSH0 RETURN INVALID PUSH1 0x80 PUSH1 0x40 MSTORE CALLVALUE DUP1 ISZERO PUSH3 0x10 JUMPI PUSH0 DUP1 REVERT JUMPDEST POP PUSH1 0x4 CALLDATASIZE LT PUSH3 0x38 JUMPI PUSH0 CALLDATALOAD PUSH1 0xE0 SHR DUP1 PUSH4 0x6A6CC258 EQ PUSH3 0x3C JUMPI DUP1 PUSH4 0xD13319C4 EQ PUSH3 0x5C JUMPI JUMPDEST PUSH0 DUP1 REVERT JUMPDEST PUSH3 0x5A PUSH1 0x4 DUP1 CALLDATASIZE SUB DUP2 ADD SWAP1 PUSH3 0x54 SWAP2 SWAP1 PUSH3 0x184 JUMP JUMPDEST PUSH3 0x7E JUMP JUMPDEST STOP JUMPDEST PUSH3 0x66 PUSH3 0x11B JUMP JUMPDEST PUSH1 0x40 MLOAD PUSH3 0x75 SWAP2 SWAP1 PUSH3 0x1C5 JUMP JUMPDEST PUSH1 0x40 MLOAD DUP1 SWAP2 SUB SWAP1 RETURN JUMPDEST DUP1 PUSH1 0x1 PUSH0 SWAP1 SLOAD SWAP1 PUSH2 0x100 EXP SWAP1 DIV PUSH20 0xFFFFFFFFFFFFFFFFFFFFFFFFFFFFFFFFFFFFFFFF AND PUSH1 0x40 MLOAD PUSH3 0xAF SWAP1 PUSH3 0x13A JUMP JUMPDEST PUSH3 0xBB SWAP2 SWAP1 PUSH3 0x223 JUMP JUMPDEST DUP2 SWAP1 PUSH1 0x40 MLOAD DUP1 SWAP2 SUB SWAP1 PUSH0 CREATE2 SWAP1 POP DUP1 ISZERO DUP1 ISZERO PUSH3 0xD9 JUMPI RETURNDATASIZE PUSH0 DUP1 RETURNDATACOPY RETURNDATASIZE PUSH0 REVERT JUMPDEST POP PUSH0 DUP1 PUSH2 0x100 EXP DUP2 SLOAD DUP2 PUSH20 0xFFFFFFFFFFFFFFFFFFFFFFFFFFFFFFFFFFFFFFFF MUL NOT AND SWAP1 DUP4 PUSH20 0xFFFFFFFFFFFFFFFFFFFFFFFFFFFFFFFFFFFFFFFF AND MUL OR SWAP1 SSTORE POP POP JUMP JUMPDEST PUSH0 PUSH1 0x3 PUSH1 0x40 MLOAD PUSH3 0x12D SWAP2 SWAP1 PUSH3 0x347 JUMP JUMPDEST PUSH1 0x40 MLOAD DUP1 SWAP2 SUB SWAP1 KECCAK256 SWAP1 POP SWAP1 JUMP JUMPDEST PUSH2 0x9C1 DUP1 PUSH3 0x360 DUP4 CODECOPY ADD SWAP1 JUMP JUMPDEST PUSH0 DUP1 REVERT JUMPDEST PUSH0 DUP2 SWAP1 POP SWAP2 SWAP1 POP JUMP JUMPDEST PUSH3 0x160 DUP2 PUSH3 0x14C JUMP JUMPDEST DUP2 EQ PUSH3 0x16B JUMPI PUSH0 DUP1 REVERT JUMPDEST POP JUMP JUMPDEST PUSH0 DUP2 CALLDATALOAD SWAP1 POP PUSH3 0x17E DUP2 PUSH3 0x155 JUMP JUMPDEST SWAP3 SWAP2 POP POP JUMP JUMPDEST PUSH0 PUSH1 0x20 DUP3 DUP5 SUB SLT ISZERO PUSH3 0x19C JUMPI PUSH3 0x19B PUSH3 0x148 JUMP JUMPDEST JUMPDEST PUSH0 PUSH3 0x1AB DUP5 DUP3 DUP6 ADD PUSH3 0x16E JUMP JUMPDEST SWAP2 POP POP SWAP3 SWAP2 POP POP JUMP JUMPDEST PUSH3 0x1BF DUP2 PUSH3 0x14C JUMP JUMPDEST DUP3 MSTORE POP POP JUMP JUMPDEST PUSH0 PUSH1 0x20 DUP3 ADD SWAP1 POP PUSH3 0x1DA PUSH0 DUP4 ADD DUP5 PUSH3 0x1B4 JUMP JUMPDEST SWAP3 SWAP2 POP POP JUMP JUMPDEST PUSH0 PUSH20 0xFFFFFFFFFFFFFFFFFFFFFFFFFFFFFFFFFFFFFFFF DUP3 AND SWAP1 POP SWAP2 SWAP1 POP JUMP JUMPDEST PUSH0 PUSH3 0x20B DUP3 PUSH3 0x1E0 JUMP JUMPDEST SWAP1 POP SWAP2 SWAP1 POP JUMP JUMPDEST PUSH3 0x21D DUP2 PUSH3 0x1FF JUMP JUMPDEST DUP3 MSTORE POP POP JUMP JUMPDEST PUSH0 PUSH1 0x20 DUP3 ADD SWAP1 POP PUSH3 0x238 PUSH0 DUP4 ADD DUP5 PUSH3 0x212 JUMP JUMPDEST SWAP3 SWAP2 POP POP JUMP JUMPDEST PUSH32 0x4E487B7100000000000000000000000000000000000000000000000000000000 PUSH0 MSTORE PUSH1 0x22 PUSH1 0x4 MSTORE PUSH1 0x24 PUSH0 REVERT JUMPDEST PUSH0 PUSH1 0x2 DUP3 DIV SWAP1 POP PUSH1 0x1 DUP3 AND DUP1 PUSH3 0x283 JUMPI PUSH1 0x7F DUP3 AND SWAP2 POP JUMPDEST PUSH1 0x20 DUP3 LT DUP2 SUB PUSH3 0x299 JUMPI PUSH3 0x298 PUSH3 0x23E JUMP JUMPDEST JUMPDEST POP SWAP2 SWAP1 POP JUMP JUMPDEST PUSH0 DUP2 SWAP1 POP SWAP3 SWAP2 POP POP JUMP JUMPDEST PUSH0 DUP2 SWAP1 POP DUP2 PUSH0 MSTORE PUSH1 0x20 PUSH0 KECCAK256 SWAP1 POP SWAP2 SWAP1 POP JUMP JUMPDEST PUSH0 DUP2 SLOAD PUSH3 0x2C9 DUP2 PUSH3 0x26B JUMP JUMPDEST PUSH3 0x2D5 DUP2 DUP7 PUSH3 0x29F JUMP JUMPDEST SWAP5 POP PUSH1 0x1 DUP3 AND PUSH0 DUP2 EQ PUSH3 0x2F2 JUMPI PUSH1 0x1 DUP2 EQ PUSH3 0x308 JUMPI PUSH3 0x33E JUMP JUMPDEST PUSH1 0xFF NOT DUP4 AND DUP7 MSTORE DUP2 ISZERO ISZERO DUP3 MUL DUP7 ADD SWAP4 POP PUSH3 0x33E JUMP JUMPDEST PUSH3 0x313 DUP6 PUSH3 0x2A9 JUMP JUMPDEST PUSH0 JUMPDEST DUP4 DUP2 LT ISZERO PUSH3 0x336 JUMPI DUP2 SLOAD DUP2 DUP10 ADD MSTORE PUSH1 0x1 DUP3 ADD SWAP2 POP PUSH1 0x20 DUP2 ADD SWAP1 POP PUSH3 0x315 JUMP JUMPDEST DUP4 DUP9 ADD SWAP6 POP POP POP JUMPDEST POP POP POP SWAP3 SWAP2 POP POP JUMP JUMPDEST PUSH0 PUSH3 0x354 DUP3 DUP5 PUSH3 0x2BB JUMP JUMPDEST SWAP2 POP DUP2 SWAP1 POP SWAP3 SWAP2 POP POP JUMP INVALID PUSH1 0x80 PUSH1 0x40 MSTORE PUSH1 0x40 MLOAD PUSH1 0x24 ADD PUSH1 0x40 MLOAD PUSH1 0x20 DUP2 DUP4 SUB SUB DUP2 MSTORE SWAP1 PUSH1 0x40 MSTORE PUSH32 0xE09966A800000000000000000000000000000000000000000000000000000000 PUSH28 0xFFFFFFFFFFFFFFFFFFFFFFFFFFFFFFFFFFFFFFFFFFFFFFFFFFFFFFFF NOT AND PUSH1 0x20 DUP3 ADD DUP1 MLOAD PUSH28 0xFFFFFFFFFFFFFFFFFFFFFFFFFFFFFFFFFFFFFFFFFFFFFFFFFFFFFFFF DUP4 DUP2 DUP4 AND OR DUP4 MSTORE POP POP POP POP PUSH1 0x1 SWAP1 DUP2 PUSH3 0x97 SWAP2 SWAP1 PUSH3 0x374 JUMP JUMPDEST POP CALLVALUE DUP1 ISZERO PUSH3 0xA4 JUMPI PUSH0 DUP1 REVERT JUMPDEST POP PUSH1 0x40 MLOAD PUSH3 0x9C1 CODESIZE SUB DUP1 PUSH3 0x9C1 DUP4 CODECOPY DUP2 DUP2 ADD PUSH1 0x40 MSTORE DUP2 ADD SWAP1 PUSH3 0xCA SWAP2 SWAP1 PUSH3 0x4BD JUMP JUMPDEST DUP1 PUSH0 DUP1 PUSH2 0x100 EXP DUP2 SLOAD DUP2 PUSH20 0xFFFFFFFFFFFFFFFFFFFFFFFFFFFFFFFFFFFFFFFF MUL NOT AND SWAP1 DUP4 PUSH20 0xFFFFFFFFFFFFFFFFFFFFFFFFFFFFFFFFFFFFFFFF AND MUL OR SWAP1 SSTORE POP POP PUSH3 0x4ED JUMP JUMPDEST PUSH0 DUP2 MLOAD SWAP1 POP SWAP2 SWAP1 POP JUMP JUMPDEST PUSH32 0x4E487B7100000000000000000000000000000000000000000000000000000000 PUSH0 MSTORE PUSH1 0x41 PUSH1 0x4 MSTORE PUSH1 0x24 PUSH0 REVERT JUMPDEST PUSH32 0x4E487B7100000000000000000000000000000000000000000000000000000000 PUSH0 MSTORE PUSH1 0x22 PUSH1 0x4 MSTORE PUSH1 0x24 PUSH0 REVERT JUMPDEST PUSH0 PUSH1 0x2 DUP3 DIV SWAP1 POP PUSH1 0x1 DUP3 AND DUP1 PUSH3 0x18C JUMPI PUSH1 0x7F DUP3 AND SWAP2 POP JUMPDEST PUSH1 0x20 DUP3 LT DUP2 SUB PUSH3 0x1A2 JUMPI PUSH3 0x1A1 PUSH3 0x147 JUMP JUMPDEST JUMPDEST POP SWAP2 SWAP1 POP JUMP JUMPDEST PUSH0 DUP2 SWAP1 POP DUP2 PUSH0 MSTORE PUSH1 0x20 PUSH0 KECCAK256 SWAP1 POP SWAP2 SWAP1 POP JUMP JUMPDEST PUSH0 PUSH1 0x20 PUSH1 0x1F DUP4 ADD DIV SWAP1 POP SWAP2 SWAP1 POP JUMP JUMPDEST PUSH0 DUP3 DUP3 SHL SWAP1 POP SWAP3 SWAP2 POP POP JUMP JUMPDEST PUSH0 PUSH1 0x8 DUP4 MUL PUSH3 0x206 PUSH32 0xFFFFFFFFFFFFFFFFFFFFFFFFFFFFFFFFFFFFFFFFFFFFFFFFFFFFFFFFFFFFFFFF DUP3 PUSH3 0x1C9 JUMP JUMPDEST PUSH3 0x212 DUP7 DUP4 PUSH3 0x1C9 JUMP JUMPDEST SWAP6 POP DUP1 NOT DUP5 AND SWAP4 POP DUP1 DUP7 AND DUP5 OR SWAP3 POP POP POP SWAP4 SWAP3 POP POP POP JUMP JUMPDEST PUSH0 DUP2 SWAP1 POP SWAP2 SWAP1 POP JUMP JUMPDEST PUSH0 DUP2 SWAP1 POP SWAP2 SWAP1 POP JUMP JUMPDEST PUSH0 PUSH3 0x25C PUSH3 0x256 PUSH3 0x250 DUP5 PUSH3 0x22A JUMP JUMPDEST PUSH3 0x233 JUMP JUMPDEST PUSH3 0x22A JUMP JUMPDEST SWAP1 POP SWAP2 SWAP1 POP JUMP JUMPDEST PUSH0 DUP2 SWAP1 POP SWAP2 SWAP1 POP JUMP JUMPDEST PUSH3 0x277 DUP4 PUSH3 0x23C JUMP JUMPDEST PUSH3 0x28F PUSH3 0x286 DUP3 PUSH3 0x263 JUMP JUMPDEST DUP5 DUP5 SLOAD PUSH3 0x1D5 JUMP JUMPDEST DUP3 SSTORE POP POP POP POP JUMP JUMPDEST PUSH0 SWAP1 JUMP JUMPDEST PUSH3 0x2A5 PUSH3 0x297 JUMP JUMPDEST PUSH3 0x2B2 DUP2 DUP5 DUP5 PUSH3 0x26C JUMP JUMPDEST POP POP POP JUMP JUMPDEST JUMPDEST DUP2 DUP2 LT ISZERO PUSH3 0x2D9 JUMPI PUSH3 0x2CD PUSH0 DUP3 PUSH3 0x29B JUMP JUMPDEST PUSH1 0x1 DUP2 ADD SWAP1 POP PUSH3 0x2B8 JUMP JUMPDEST POP POP JUMP JUMPDEST PUSH1 0x1F DUP3 GT ISZERO PUSH3 0x328 JUMPI PUSH3 0x2F2 DUP2 PUSH3 0x1A8 JUMP JUMPDEST PUSH3 0x2FD DUP5 PUSH3 0x1BA JUMP JUMPDEST DUP2 ADD PUSH1 0x20 DUP6 LT ISZERO PUSH3 0x30D JUMPI DUP2 SWAP1 POP JUMPDEST PUSH3 0x325 PUSH3 0x31C DUP6 PUSH3 0x1BA JUMP JUMPDEST DUP4 ADD DUP3 PUSH3 0x2B7 JUMP JUMPDEST POP POP JUMPDEST POP POP POP JUMP JUMPDEST PUSH0 DUP3 DUP3 SHR SWAP1 POP SWAP3 SWAP2 POP POP JUMP JUMPDEST PUSH0 PUSH3 0x34A PUSH0 NOT DUP5 PUSH1 0x8 MUL PUSH3 0x32D JUMP JUMPDEST NOT DUP1 DUP4 AND SWAP2 POP POP SWAP3 SWAP2 POP POP JUMP JUMPDEST PUSH0 PUSH3 0x364 DUP4 DUP4 PUSH3 0x339 JUMP JUMPDEST SWAP2 POP DUP3 PUSH1 0x2 MUL DUP3 OR SWAP1 POP SWAP3 SWAP2 POP POP JUMP JUMPDEST PUSH3 0x37F DUP3 PUSH3 0x110 JUMP JUMPDEST PUSH8 0xFFFFFFFFFFFFFFFF DUP2 GT ISZERO PUSH3 0x39B JUMPI PUSH3 0x39A PUSH3 0x11A JUMP JUMPDEST JUMPDEST PUSH3 0x3A7 DUP3 SLOAD PUSH3 0x174 JUMP JUMPDEST PUSH3 0x3B4 DUP3 DUP3 DUP6 PUSH3 0x2DD JUMP JUMPDEST PUSH0 PUSH1 0x20 SWAP1 POP PUSH1 0x1F DUP4 GT PUSH1 0x1 DUP2 EQ PUSH3 0x3EA JUMPI PUSH0 DUP5 ISZERO PUSH3 0x3D5 JUMPI DUP3 DUP8 ADD MLOAD SWAP1 POP JUMPDEST PUSH3 0x3E1 DUP6 DUP3 PUSH3 0x357 JUMP JUMPDEST DUP7 SSTORE POP PUSH3 0x450 JUMP JUMPDEST PUSH1 0x1F NOT DUP5 AND PUSH3 0x3FA DUP7 PUSH3 0x1A8 JUMP JUMPDEST PUSH0 JUMPDEST DUP3 DUP2 LT ISZERO PUSH3 0x423 JUMPI DUP5 DUP10 ADD MLOAD DUP3 SSTORE PUSH1 0x1 DUP3 ADD SWAP2 POP PUSH1 0x20 DUP6 ADD SWAP5 POP PUSH1 0x20 DUP2 ADD SWAP1 POP PUSH3 0x3FC JUMP JUMPDEST DUP7 DUP4 LT ISZERO PUSH3 0x443 JUMPI DUP5 DUP10 ADD MLOAD PUSH3 0x43F PUSH1 0x1F DUP10 AND DUP3 PUSH3 0x339 JUMP JUMPDEST DUP4 SSTORE POP JUMPDEST PUSH1 0x1 PUSH1 0x2 DUP9 MUL ADD DUP9 SSTORE POP POP POP JUMPDEST POP POP POP POP POP POP JUMP JUMPDEST PUSH0 DUP1 REVERT JUMPDEST PUSH0 PUSH20 0xFFFFFFFFFFFFFFFFFFFFFFFFFFFFFFFFFFFFFFFF DUP3 AND SWAP1 POP SWAP2 SWAP1 POP JUMP JUMPDEST PUSH0 PUSH3 0x487 DUP3 PUSH3 0x45C JUMP JUMPDEST SWAP1 POP SWAP2 SWAP1 POP JUMP JUMPDEST PUSH3 0x499 DUP2 PUSH3 0x47B JUMP JUMPDEST DUP2 EQ PUSH3 0x4A4 JUMPI PUSH0 DUP1 REVERT JUMPDEST POP JUMP JUMPDEST PUSH0 DUP2 MLOAD SWAP1 POP PUSH3 0x4B7 DUP2 PUSH3 0x48E JUMP JUMPDEST SWAP3 SWAP2 POP POP JUMP JUMPDEST PUSH0 PUSH1 0x20 DUP3 DUP5 SUB SLT ISZERO PUSH3 0x4D5 JUMPI PUSH3 0x4D4 PUSH3 0x458 JUMP JUMPDEST JUMPDEST PUSH0 PUSH3 0x4E4 DUP5 DUP3 DUP6 ADD PUSH3 0x4A7 JUMP JUMPDEST SWAP2 POP POP SWAP3 SWAP2 POP POP JUMP JUMPDEST PUSH2 0x4C6 DUP1 PUSH3 0x4FB PUSH0 CODECOPY PUSH0 RETURN INVALID PUSH1 0x80 PUSH1 0x40 MSTORE CALLVALUE DUP1 ISZERO PUSH2 0xF JUMPI PUSH0 DUP1 REVERT JUMPDEST POP PUSH1 0x4 CALLDATASIZE LT PUSH2 0x29 JUMPI PUSH0 CALLDATALOAD PUSH1 0xE0 SHR DUP1 PUSH4 0x50F35753 EQ PUSH2 0x2D JUMPI JUMPDEST PUSH0 DUP1 REVERT JUMPDEST PUSH2 0x35 PUSH2 0x37 JUMP JUMPDEST STOP JUMPDEST PUSH0 DUP1 SLOAD SWAP1 PUSH2 0x100 EXP SWAP1 DIV PUSH20 0xFFFFFFFFFFFFFFFFFFFFFFFFFFFFFFFFFFFFFFFF AND PUSH20 0xFFFFFFFFFFFFFFFFFFFFFFFFFFFFFFFFFFFFFFFF AND PUSH4 0xC58A455B PUSH1 0x40 MLOAD DUP2 PUSH4 0xFFFFFFFF AND PUSH1 0xE0 SHL DUP2 MSTORE PUSH1 0x4 ADD PUSH0 PUSH1 0x40 MLOAD DUP1 DUP4 SUB DUP2 PUSH0 DUP8 DUP1 EXTCODESIZE ISZERO DUP1 ISZERO PUSH2 0x9B JUMPI PUSH0 DUP1 REVERT JUMPDEST POP GAS CALL ISZERO DUP1 ISZERO PUSH2 0xAD JUMPI RETURNDATASIZE PUSH0 DUP1 RETURNDATACOPY RETURNDATASIZE PUSH0 REVERT JUMPDEST POP POP POP POP PUSH0 DUP1 SLOAD SWAP1 PUSH2 0x100 EXP SWAP1 DIV PUSH20 0xFFFFFFFFFFFFFFFFFFFFFFFFFFFFFFFFFFFFFFFF AND PUSH20 0xFFFFFFFFFFFFFFFFFFFFFFFFFFFFFFFFFFFFFFFF AND PUSH4 0x19C43A01 PUSH1 0x40 MLOAD DUP2 PUSH4 0xFFFFFFFF AND PUSH1 0xE0 SHL DUP2 MSTORE PUSH1 0x4 ADD PUSH0 PUSH1 0x40 MLOAD DUP1 DUP4 SUB DUP2 PUSH0 DUP8 DUP1 EXTCODESIZE ISZERO DUP1 ISZERO PUSH2 0x115 JUMPI PUSH0 DUP1 REVERT JUMPDEST POP GAS CALL ISZERO DUP1 ISZERO PUSH2 0x127 JUMPI RETURNDATASIZE PUSH0 DUP1 RETURNDATACOPY RETURNDATASIZE PUSH0 REVERT JUMPDEST POP POP POP POP PUSH0 DUP1 SLOAD SWAP1 PUSH2 0x100 EXP SWAP1 DIV PUSH20 0xFFFFFFFFFFFFFFFFFFFFFFFFFFFFFFFFFFFFFFFF AND PUSH20 0xFFFFFFFFFFFFFFFFFFFFFFFFFFFFFFFFFFFFFFFF AND PUSH4 0xCF9F23B5 PUSH1 0x40 MLOAD DUP2 PUSH4 0xFFFFFFFF AND PUSH1 0xE0 SHL DUP2 MSTORE PUSH1 0x4 ADD PUSH0 PUSH1 0x40 MLOAD DUP1 DUP4 SUB DUP2 PUSH0 DUP8 DUP1 EXTCODESIZE ISZERO DUP1 ISZERO PUSH2 0x18F JUMPI PUSH0 DUP1 REVERT JUMPDEST POP GAS CALL ISZERO DUP1 ISZERO PUSH2 0x1A1 JUMPI RETURNDATASIZE PUSH0 DUP1 RETURNDATACOPY RETURNDATASIZE PUSH0 REVERT JUMPDEST POP POP POP POP PUSH0 DUP1 SLOAD SWAP1 PUSH2 0x100 EXP SWAP1 DIV PUSH20 0xFFFFFFFFFFFFFFFFFFFFFFFFFFFFFFFFFFFFFFFF AND PUSH20 0xFFFFFFFFFFFFFFFFFFFFFFFFFFFFFFFFFFFFFFFF AND PUSH4 0xE0232B42 PUSH0 DUP1 SLOAD SWAP1 PUSH2 0x100 EXP SWAP1 DIV PUSH20 0xFFFFFFFFFFFFFFFFFFFFFFFFFFFFFFFFFFFFFFFF AND PUSH0 PUSH1 0x1 PUSH1 0x40 MLOAD DUP5 PUSH4 0xFFFFFFFF AND PUSH1 0xE0 SHL DUP2 MSTORE PUSH1 0x4 ADD PUSH2 0x221 SWAP4 SWAP3 SWAP2 SWAP1 PUSH2 0x454 JUMP JUMPDEST PUSH0 PUSH1 0x40 MLOAD DUP1 DUP4 SUB DUP2 PUSH0 DUP8 DUP1 EXTCODESIZE ISZERO DUP1 ISZERO PUSH2 0x238 JUMPI PUSH0 DUP1 REVERT JUMPDEST POP GAS CALL ISZERO DUP1 ISZERO PUSH2 0x24A JUMPI RETURNDATASIZE PUSH0 DUP1 RETURNDATACOPY RETURNDATASIZE PUSH0 REVERT JUMPDEST POP POP POP POP PUSH0 DUP1 SLOAD SWAP1 PUSH2 0x100 EXP SWAP1 DIV PUSH20 0xFFFFFFFFFFFFFFFFFFFFFFFFFFFFFFFFFFFFFFFF AND PUSH20 0xFFFFFFFFFFFFFFFFFFFFFFFFFFFFFFFFFFFFFFFF AND PUSH4 0xFA391C64 PUSH1 0x40 MLOAD DUP2 PUSH4 0xFFFFFFFF AND PUSH1 0xE0 SHL DUP2 MSTORE PUSH1 0x4 ADD PUSH0 PUSH1 0x40 MLOAD DUP1 DUP4 SUB DUP2 PUSH0 DUP8 DUP1 EXTCODESIZE ISZERO DUP1 ISZERO PUSH2 0x2B2 JUMPI PUSH0 DUP1 REVERT JUMPDEST POP GAS CALL ISZERO DUP1 ISZERO PUSH2 0x2C4 JUMPI RETURNDATASIZE PUSH0 DUP1 RETURNDATACOPY RETURNDATASIZE PUSH0 REVERT JUMPDEST POP POP POP POP JUMP JUMPDEST PUSH0 PUSH20 0xFFFFFFFFFFFFFFFFFFFFFFFFFFFFFFFFFFFFFFFF DUP3 AND SWAP1 POP SWAP2 SWAP1 POP JUMP JUMPDEST PUSH0 PUSH2 0x2F3 DUP3 PUSH2 0x2CA JUMP JUMPDEST SWAP1 POP SWAP2 SWAP1 POP JUMP JUMPDEST PUSH2 0x303 DUP2 PUSH2 0x2E9 JUMP JUMPDEST DUP3 MSTORE POP POP JUMP JUMPDEST PUSH0 DUP2 SWAP1 POP SWAP2 SWAP1 POP JUMP JUMPDEST PUSH0 DUP2 SWAP1 POP SWAP2 SWAP1 POP JUMP JUMPDEST PUSH0 DUP2 SWAP1 POP SWAP2 SWAP1 POP JUMP JUMPDEST PUSH0 PUSH2 0x33E PUSH2 0x339 PUSH2 0x334 DUP5 PUSH2 0x309 JUMP JUMPDEST PUSH2 0x31B JUMP JUMPDEST PUSH2 0x312 JUMP JUMPDEST SWAP1 POP SWAP2 SWAP1 POP JUMP JUMPDEST PUSH2 0x34E DUP2 PUSH2 0x324 JUMP JUMPDEST DUP3 MSTORE POP POP JUMP JUMPDEST PUSH32 0x4E487B7100000000000000000000000000000000000000000000000000000000 PUSH0 MSTORE PUSH1 0x22 PUSH1 0x4 MSTORE PUSH1 0x24 PUSH0 REVERT JUMPDEST PUSH0 PUSH1 0x2 DUP3 DIV SWAP1 POP PUSH1 0x1 DUP3 AND DUP1 PUSH2 0x398 JUMPI PUSH1 0x7F DUP3 AND SWAP2 POP JUMPDEST PUSH1 0x20 DUP3 LT DUP2 SUB PUSH2 0x3AB JUMPI PUSH2 0x3AA PUSH2 0x354 JUMP JUMPDEST JUMPDEST POP SWAP2 SWAP1 POP JUMP JUMPDEST PUSH0 DUP3 DUP3 MSTORE PUSH1 0x20 DUP3 ADD SWAP1 POP SWAP3 SWAP2 POP POP JUMP JUMPDEST PUSH0 DUP2 SWAP1 POP DUP2 PUSH0 MSTORE PUSH1 0x20 PUSH0 KECCAK256 SWAP1 POP SWAP2 SWAP1 POP JUMP JUMPDEST PUSH0 DUP2 SLOAD PUSH2 0x3DF DUP2 PUSH2 0x381 JUMP JUMPDEST PUSH2 0x3E9 DUP2 DUP7 PUSH2 0x3B1 JUMP JUMPDEST SWAP5 POP PUSH1 0x1 DUP3 AND PUSH0 DUP2 EQ PUSH2 0x403 JUMPI PUSH1 0x1 DUP2 EQ PUSH2 0x419 JUMPI PUSH2 0x44B JUMP JUMPDEST PUSH1 0xFF NOT DUP4 AND DUP7 MSTORE DUP2 ISZERO ISZERO PUSH1 0x20 MUL DUP7 ADD SWAP4 POP PUSH2 0x44B JUMP JUMPDEST PUSH2 0x422 DUP6 PUSH2 0x3C1 JUMP JUMPDEST PUSH0 JUMPDEST DUP4 DUP2 LT ISZERO PUSH2 0x443 JUMPI DUP2 SLOAD DUP2 DUP10 ADD MSTORE PUSH1 0x1 DUP3 ADD SWAP2 POP PUSH1 0x20 DUP2 ADD SWAP1 POP PUSH2 0x424 JUMP JUMPDEST DUP1 DUP9 ADD SWAP6 POP POP POP JUMPDEST POP POP POP SWAP3 SWAP2 POP POP JUMP JUMPDEST PUSH0 PUSH1 0x60 DUP3 ADD SWAP1 POP PUSH2 0x467 PUSH0 DUP4 ADD DUP7 PUSH2 0x2FA JUMP JUMPDEST PUSH2 0x474 PUSH1 0x20 DUP4 ADD DUP6 PUSH2 0x345 JUMP JUMPDEST DUP2 DUP2 SUB PUSH1 0x40 DUP4 ADD MSTORE PUSH2 0x486 DUP2 DUP5 PUSH2 0x3D3 JUMP JUMPDEST SWAP1 POP SWAP5 SWAP4 POP POP POP POP JUMP INVALID LOG2 PUSH5 0x6970667358 0x22 SLT KECCAK256 0xB7 PUSH12 0xA55B4526D8FF8DD1AC298B52 LOG3 DUP12 0xDC 0x28 0xF6 DUP14 BASEFEE 0x2E NOT EXTCODESIZE 0xD6 SWAP12 0x4C LOG4 LOG3 EQ 0xC6 0x2C PUSH5 0x736F6C6343 STOP ADDMOD ISZERO STOP CALLER LOG2 PUSH5 0x6970667358 0x22 SLT KECCAK256 0xE9 CALLDATACOPY SSTORE SHR PUSH14 0xDF99DCBD65430997A8744A889B9 DUP13 PUSH27 0xB25030C73CB59EE6E95A0564736F6C634300081500336080604052 PUSH1 0x40 MLOAD PUSH1 0x24 ADD PUSH1 0x40 MLOAD PUSH1 0x20 DUP2 DUP4 SUB SUB DUP2 MSTORE SWAP1 PUSH1 0x40 MSTORE PUSH32 0xE09966A800000000000000000000000000000000000000000000000000000000 PUSH28 0xFFFFFFFFFFFFFFFFFFFFFFFFFFFFFFFFFFFFFFFFFFFFFFFFFFFFFFFF NOT AND PUSH1 0x20 DUP3 ADD DUP1 MLOAD PUSH28 0xFFFFFFFFFFFFFFFFFFFFFFFFFFFFFFFFFFFFFFFFFFFFFFFFFFFFFFFF DUP4 DUP2 DUP4 AND OR DUP4 MSTORE POP POP POP POP PUSH1 0x1 SWAP1 DUP2 PUSH3 0x97 SWAP2 SWAP1 PUSH3 0x374 JUMP JUMPDEST POP CALLVALUE DUP1 ISZERO PUSH3 0xA4 JUMPI PUSH0 DUP1 REVERT JUMPDEST POP PUSH1 0x40 MLOAD PUSH3 0x9C1 CODESIZE SUB DUP1 PUSH3 0x9C1 DUP4 CODECOPY DUP2 DUP2 ADD PUSH1 0x40 MSTORE DUP2 ADD SWAP1 PUSH3 0xCA SWAP2 SWAP1 PUSH3 0x4BD JUMP JUMPDEST DUP1 PUSH0 DUP1 PUSH2 0x100 EXP DUP2 SLOAD DUP2 PUSH20 0xFFFFFFFFFFFFFFFFFFFFFFFFFFFFFFFFFFFFFFFF MUL NOT AND SWAP1 DUP4 PUSH20 0xFFFFFFFFFFFFFFFFFFFFFFFFFFFFFFFFFFFFFFFF AND MUL OR SWAP1 SSTORE POP POP PUSH3 0x4ED JUMP JUMPDEST PUSH0 DUP2 MLOAD SWAP1 POP SWAP2 SWAP1 POP JUMP JUMPDEST PUSH32 0x4E487B7100000000000000000000000000000000000000000000000000000000 PUSH0 MSTORE PUSH1 0x41 PUSH1 0x4 MSTORE PUSH1 0x24 PUSH0 REVERT JUMPDEST PUSH32 0x4E487B7100000000000000000000000000000000000000000000000000000000 PUSH0 MSTORE PUSH1 0x22 PUSH1 0x4 MSTORE PUSH1 0x24 PUSH0 REVERT JUMPDEST PUSH0 PUSH1 0x2 DUP3 DIV SWAP1 POP PUSH1 0x1 DUP3 AND DUP1 PUSH3 0x18C JUMPI PUSH1 0x7F DUP3 AND SWAP2 POP JUMPDEST PUSH1 0x20 DUP3 LT DUP2 SUB PUSH3 0x1A2 JUMPI PUSH3 0x1A1 PUSH3 0x147 JUMP JUMPDEST JUMPDEST POP SWAP2 SWAP1 POP JUMP JUMPDEST PUSH0 DUP2 SWAP1 POP DUP2 PUSH0 MSTORE PUSH1 0x20 PUSH0 KECCAK256 SWAP1 POP SWAP2 SWAP1 POP JUMP JUMPDEST PUSH0 PUSH1 0x20 PUSH1 0x1F DUP4 ADD DIV SWAP1 POP SWAP2 SWAP1 POP JUMP JUMPDEST PUSH0 DUP3 DUP3 SHL SWAP1 POP SWAP3 SWAP2 POP POP JUMP JUMPDEST PUSH0 PUSH1 0x8 DUP4 MUL PUSH3 0x206 PUSH32 0xFFFFFFFFFFFFFFFFFFFFFFFFFFFFFFFFFFFFFFFFFFFFFFFFFFFFFFFFFFFFFFFF DUP3 PUSH3 0x1C9 JUMP JUMPDEST PUSH3 0x212 DUP7 DUP4 PUSH3 0x1C9 JUMP JUMPDEST SWAP6 POP DUP1 NOT DUP5 AND SWAP4 POP DUP1 DUP7 AND DUP5 OR SWAP3 POP POP POP SWAP4 SWAP3 POP POP POP JUMP JUMPDEST PUSH0 DUP2 SWAP1 POP SWAP2 SWAP1 POP JUMP JUMPDEST PUSH0 DUP2 SWAP1 POP SWAP2 SWAP1 POP JUMP JUMPDEST PUSH0 PUSH3 0x25C PUSH3 0x256 PUSH3 0x250 DUP5 PUSH3 0x22A JUMP JUMPDEST PUSH3 0x233 JUMP JUMPDEST PUSH3 0x22A JUMP JUMPDEST SWAP1 POP SWAP2 SWAP1 POP JUMP JUMPDEST PUSH0 DUP2 SWAP1 POP SWAP2 SWAP1 POP JUMP JUMPDEST PUSH3 0x277 DUP4 PUSH3 0x23C JUMP JUMPDEST PUSH3 0x28F PUSH3 0x286 DUP3 PUSH3 0x263 JUMP JUMPDEST DUP5 DUP5 SLOAD PUSH3 0x1D5 JUMP JUMPDEST DUP3 SSTORE POP POP POP POP JUMP JUMPDEST PUSH0 SWAP1 JUMP JUMPDEST PUSH3 0x2A5 PUSH3 0x297 JUMP JUMPDEST PUSH3 0x2B2 DUP2 DUP5 DUP5 PUSH3 0x26C JUMP JUMPDEST POP POP POP JUMP JUMPDEST JUMPDEST DUP2 DUP2 LT ISZERO PUSH3 0x2D9 JUMPI PUSH3 0x2CD PUSH0 DUP3 PUSH3 0x29B JUMP JUMPDEST PUSH1 0x1 DUP2 ADD SWAP1 POP PUSH3 0x2B8 JUMP JUMPDEST POP POP JUMP JUMPDEST PUSH1 0x1F DUP3 GT ISZERO PUSH3 0x328 JUMPI PUSH3 0x2F2 DUP2 PUSH3 0x1A8 JUMP JUMPDEST PUSH3 0x2FD DUP5 PUSH3 0x1BA JUMP JUMPDEST DUP2 ADD PUSH1 0x20 DUP6 LT ISZERO PUSH3 0x30D JUMPI DUP2 SWAP1 POP JUMPDEST PUSH3 0x325 PUSH3 0x31C DUP6 PUSH3 0x1BA JUMP JUMPDEST DUP4 ADD DUP3 PUSH3 0x2B7 JUMP JUMPDEST POP POP JUMPDEST POP POP POP JUMP JUMPDEST PUSH0 DUP3 DUP3 SHR SWAP1 POP SWAP3 SWAP2 POP POP JUMP JUMPDEST PUSH0 PUSH3 0x34A PUSH0 NOT DUP5 PUSH1 0x8 MUL PUSH3 0x32D JUMP JUMPDEST NOT DUP1 DUP4 AND SWAP2 POP POP SWAP3 SWAP2 POP POP JUMP JUMPDEST PUSH0 PUSH3 0x364 DUP4 DUP4 PUSH3 0x339 JUMP JUMPDEST SWAP2 POP DUP3 PUSH1 0x2 MUL DUP3 OR SWAP1 POP SWAP3 SWAP2 POP POP JUMP JUMPDEST PUSH3 0x37F DUP3 PUSH3 0x110 JUMP JUMPDEST PUSH8 0xFFFFFFFFFFFFFFFF DUP2 GT ISZERO PUSH3 0x39B JUMPI PUSH3 0x39A PUSH3 0x11A JUMP JUMPDEST JUMPDEST PUSH3 0x3A7 DUP3 SLOAD PUSH3 0x174 JUMP JUMPDEST PUSH3 0x3B4 DUP3 DUP3 DUP6 PUSH3 0x2DD JUMP JUMPDEST PUSH0 PUSH1 0x20 SWAP1 POP PUSH1 0x1F DUP4 GT PUSH1 0x1 DUP2 EQ PUSH3 0x3EA JUMPI PUSH0 DUP5 ISZERO PUSH3 0x3D5 JUMPI DUP3 DUP8 ADD MLOAD SWAP1 POP JUMPDEST PUSH3 0x3E1 DUP6 DUP3 PUSH3 0x357 JUMP JUMPDEST DUP7 SSTORE POP PUSH3 0x450 JUMP JUMPDEST PUSH1 0x1F NOT DUP5 AND PUSH3 0x3FA DUP7 PUSH3 0x1A8 JUMP JUMPDEST PUSH0 JUMPDEST DUP3 DUP2 LT ISZERO PUSH3 0x423 JUMPI DUP5 DUP10 ADD MLOAD DUP3 SSTORE PUSH1 0x1 DUP3 ADD SWAP2 POP PUSH1 0x20 DUP6 ADD SWAP5 POP PUSH1 0x20 DUP2 ADD SWAP1 POP PUSH3 0x3FC JUMP JUMPDEST DUP7 DUP4 LT ISZERO PUSH3 0x443 JUMPI DUP5 DUP10 ADD MLOAD PUSH3 0x43F PUSH1 0x1F DUP10 AND DUP3 PUSH3 0x339 JUMP JUMPDEST DUP4 SSTORE POP JUMPDEST PUSH1 0x1 PUSH1 0x2 DUP9 MUL ADD DUP9 SSTORE POP POP POP JUMPDEST POP POP POP POP POP POP JUMP JUMPDEST PUSH0 DUP1 REVERT JUMPDEST PUSH0 PUSH20 0xFFFFFFFFFFFFFFFFFFFFFFFFFFFFFFFFFFFFFFFF DUP3 AND SWAP1 POP SWAP2 SWAP1 POP JUMP JUMPDEST PUSH0 PUSH3 0x487 DUP3 PUSH3 0x45C JUMP JUMPDEST SWAP1 POP SWAP2 SWAP1 POP JUMP JUMPDEST PUSH3 0x499 DUP2 PUSH3 0x47B JUMP JUMPDEST DUP2 EQ PUSH3 0x4A4 JUMPI PUSH0 DUP1 REVERT JUMPDEST POP JUMP JUMPDEST PUSH0 DUP2 MLOAD SWAP1 POP PUSH3 0x4B7 DUP2 PUSH3 0x48E JUMP JUMPDEST SWAP3 SWAP2 POP POP JUMP JUMPDEST PUSH0 PUSH1 0x20 DUP3 DUP5 SUB SLT ISZERO PUSH3 0x4D5 JUMPI PUSH3 0x4D4 PUSH3 0x458 JUMP JUMPDEST JUMPDEST PUSH0 PUSH3 0x4E4 DUP5 DUP3 DUP6 ADD PUSH3 0x4A7 JUMP JUMPDEST SWAP2 POP POP SWAP3 SWAP2 POP POP JUMP JUMPDEST PUSH2 0x4C6 DUP1 PUSH3 0x4FB PUSH0 CODECOPY PUSH0 RETURN INVALID PUSH1 0x80 PUSH1 0x40 MSTORE CALLVALUE DUP1 ISZERO PUSH2 0xF JUMPI PUSH0 DUP1 REVERT JUMPDEST POP PUSH1 0x4 CALLDATASIZE LT PUSH2 0x29 JUMPI PUSH0 CALLDATALOAD PUSH1 0xE0 SHR DUP1 PUSH4 0x50F35753 EQ PUSH2 0x2D JUMPI JUMPDEST PUSH0 DUP1 REVERT JUMPDEST PUSH2 0x35 PUSH2 0x37 JUMP JUMPDEST STOP JUMPDEST PUSH0 DUP1 SLOAD SWAP1 PUSH2 0x100 EXP SWAP1 DIV PUSH20 0xFFFFFFFFFFFFFFFFFFFFFFFFFFFFFFFFFFFFFFFF AND PUSH20 0xFFFFFFFFFFFFFFFFFFFFFFFFFFFFFFFFFFFFFFFF AND PUSH4 0xC58A455B PUSH1 0x40 MLOAD DUP2 PUSH4 0xFFFFFFFF AND PUSH1 0xE0 SHL DUP2 MSTORE PUSH1 0x4 ADD PUSH0 PUSH1 0x40 MLOAD DUP1 DUP4 SUB DUP2 PUSH0 DUP8 DUP1 EXTCODESIZE ISZERO DUP1 ISZERO PUSH2 0x9B JUMPI PUSH0 DUP1 REVERT JUMPDEST POP GAS CALL ISZERO DUP1 ISZERO PUSH2 0xAD JUMPI RETURNDATASIZE PUSH0 DUP1 RETURNDATACOPY RETURNDATASIZE PUSH0 REVERT JUMPDEST POP POP POP POP PUSH0 DUP1 SLOAD SWAP1 PUSH2 0x100 EXP SWAP1 DIV PUSH20 0xFFFFFFFFFFFFFFFFFFFFFFFFFFFFFFFFFFFFFFFF AND PUSH20 0xFFFFFFFFFFFFFFFFFFFFFFFFFFFFFFFFFFFFFFFF AND PUSH4 0x19C43A01 PUSH1 0x40 MLOAD DUP2 PUSH4 0xFFFFFFFF AND PUSH1 0xE0 SHL DUP2 MSTORE PUSH1 0x4 ADD PUSH0 PUSH1 0x40 MLOAD DUP1 DUP4 SUB DUP2 PUSH0 DUP8 DUP1 EXTCODESIZE ISZERO DUP1 ISZERO PUSH2 0x115 JUMPI PUSH0 DUP1 REVERT JUMPDEST POP GAS CALL ISZERO DUP1 ISZERO PUSH2 0x127 JUMPI RETURNDATASIZE PUSH0 DUP1 RETURNDATACOPY RETURNDATASIZE PUSH0 REVERT JUMPDEST POP POP POP POP PUSH0 DUP1 SLOAD SWAP1 PUSH2 0x100 EXP SWAP1 DIV PUSH20 0xFFFFFFFFFFFFFFFFFFFFFFFFFFFFFFFFFFFFFFFF AND PUSH20 0xFFFFFFFFFFFFFFFFFFFFFFFFFFFFFFFFFFFFFFFF AND PUSH4 0xCF9F23B5 PUSH1 0x40 MLOAD DUP2 PUSH4 0xFFFFFFFF AND PUSH1 0xE0 SHL DUP2 MSTORE PUSH1 0x4 ADD PUSH0 PUSH1 0x40 MLOAD DUP1 DUP4 SUB DUP2 PUSH0 DUP8 DUP1 EXTCODESIZE ISZERO DUP1 ISZERO PUSH2 0x18F JUMPI PUSH0 DUP1 REVERT JUMPDEST POP GAS CALL ISZERO DUP1 ISZERO PUSH2 0x1A1 JUMPI RETURNDATASIZE PUSH0 DUP1 RETURNDATACOPY RETURNDATASIZE PUSH0 REVERT JUMPDEST POP POP POP POP PUSH0 DUP1 SLOAD SWAP1 PUSH2 0x100 EXP SWAP1 DIV PUSH20 0xFFFFFFFFFFFFFFFFFFFFFFFFFFFFFFFFFFFFFFFF AND PUSH20 0xFFFFFFFFFFFFFFFFFFFFFFFFFFFFFFFFFFFFFFFF AND PUSH4 0xE0232B42 PUSH0 DUP1 SLOAD SWAP1 PUSH2 0x100 EXP SWAP1 DIV PUSH20 0xFFFFFFFFFFFFFFFFFFFFFFFFFFFFFFFFFFFFFFFF AND PUSH0 PUSH1 0x1 PUSH1 0x40 MLOAD DUP5 PUSH4 0xFFFFFFFF AND PUSH1 0xE0 SHL DUP2 MSTORE PUSH1 0x4 ADD PUSH2 0x221 SWAP4 SWAP3 SWAP2 SWAP1 PUSH2 0x454 JUMP JUMPDEST PUSH0 PUSH1 0x40 MLOAD DUP1 DUP4 SUB DUP2 PUSH0 DUP8 DUP1 EXTCODESIZE ISZERO DUP1 ISZERO PUSH2 0x238 JUMPI PUSH0 DUP1 REVERT JUMPDEST POP GAS CALL ISZERO DUP1 ISZERO PUSH2 0x24A JUMPI RETURNDATASIZE PUSH0 DUP1 RETURNDATACOPY RETURNDATASIZE PUSH0 REVERT JUMPDEST POP POP POP POP PUSH0 DUP1 SLOAD SWAP1 PUSH2 0x100 EXP SWAP1 DIV PUSH20 0xFFFFFFFFFFFFFFFFFFFFFFFFFFFFFFFFFFFFFFFF AND PUSH20 0xFFFFFFFFFFFFFFFFFFFFFFFFFFFFFFFFFFFFFFFF AND PUSH4 0xFA391C64 PUSH1 0x40 MLOAD DUP2 PUSH4 0xFFFFFFFF AND PUSH1 0xE0 SHL DUP2 MSTORE PUSH1 0x4 ADD PUSH0 PUSH1 0x40 MLOAD DUP1 DUP4 SUB DUP2 PUSH0 DUP8 DUP1 EXTCODESIZE ISZERO DUP1 ISZERO PUSH2 0x2B2 JUMPI PUSH0 DUP1 REVERT JUMPDEST POP GAS CALL ISZERO DUP1 ISZERO PUSH2 0x2C4 JUMPI RETURNDATASIZE PUSH0 DUP1 RETURNDATACOPY RETURNDATASIZE PUSH0 REVERT JUMPDEST POP POP POP POP JUMP JUMPDEST PUSH0 PUSH20 0xFFFFFFFFFFFFFFFFFFFFFFFFFFFFFFFFFFFFFFFF DUP3 AND SWAP1 POP SWAP2 SWAP1 POP JUMP JUMPDEST PUSH0 PUSH2 0x2F3 DUP3 PUSH2 0x2CA JUMP JUMPDEST SWAP1 POP SWAP2 SWAP1 POP JUMP JUMPDEST PUSH2 0x303 DUP2 PUSH2 0x2E9 JUMP JUMPDEST DUP3 MSTORE POP POP JUMP JUMPDEST PUSH0 DUP2 SWAP1 POP SWAP2 SWAP1 POP JUMP JUMPDEST PUSH0 DUP2 SWAP1 POP SWAP2 SWAP1 POP JUMP JUMPDEST PUSH0 DUP2 SWAP1 POP SWAP2 SWAP1 POP JUMP JUMPDEST PUSH0 PUSH2 0x33E PUSH2 0x339 PUSH2 0x334 DUP5 PUSH2 0x309 JUMP JUMPDEST PUSH2 0x31B JUMP JUMPDEST PUSH2 0x312 JUMP JUMPDEST SWAP1 POP SWAP2 SWAP1 POP JUMP JUMPDEST PUSH2 0x34E DUP2 PUSH2 0x324 JUMP JUMPDEST DUP3 MSTORE POP POP JUMP JUMPDEST PUSH32 0x4E487B7100000000000000000000000000000000000000000000000000000000 PUSH0 MSTORE PUSH1 0x22 PUSH1 0x4 MSTORE PUSH1 0x24 PUSH0 REVERT JUMPDEST PUSH0 PUSH1 0x2 DUP3 DIV SWAP1 POP PUSH1 0x1 DUP3 AND DUP1 PUSH2 0x398 JUMPI PUSH1 0x7F DUP3 AND SWAP2 POP JUMPDEST PUSH1 0x20 DUP3 LT DUP2 SUB PUSH2 0x3AB JUMPI PUSH2 0x3AA PUSH2 0x354 JUMP JUMPDEST JUMPDEST POP SWAP2 SWAP1 POP JUMP JUMPDEST PUSH0 DUP3 DUP3 MSTORE PUSH1 0x20 DUP3 ADD SWAP1 POP SWAP3 SWAP2 POP POP JUMP JUMPDEST PUSH0 DUP2 SWAP1 POP DUP2 PUSH0 MSTORE PUSH1 0x20 PUSH0 KECCAK256 SWAP1 POP SWAP2 SWAP1 POP JUMP JUMPDEST PUSH0 DUP2 SLOAD PUSH2 0x3DF DUP2 PUSH2 0x381 JUMP JUMPDEST PUSH2 0x3E9 DUP2 DUP7 PUSH2 0x3B1 JUMP JUMPDEST SWAP5 POP PUSH1 0x1 DUP3 AND PUSH0 DUP2 EQ PUSH2 0x403 JUMPI PUSH1 0x1 DUP2 EQ PUSH2 0x419 JUMPI PUSH2 0x44B JUMP JUMPDEST PUSH1 0xFF NOT DUP4 AND DUP7 MSTORE DUP2 ISZERO ISZERO PUSH1 0x20 MUL DUP7 ADD SWAP4 POP PUSH2 0x44B JUMP JUMPDEST PUSH2 0x422 DUP6 PUSH2 0x3C1 JUMP JUMPDEST PUSH0 JUMPDEST DUP4 DUP2 LT ISZERO PUSH2 0x443 JUMPI DUP2 SLOAD DUP2 DUP10 ADD MSTORE PUSH1 0x1 DUP3 ADD SWAP2 POP PUSH1 0x20 DUP2 ADD SWAP1 POP PUSH2 0x424 JUMP JUMPDEST DUP1 DUP9 ADD SWAP6 POP POP POP JUMPDEST POP POP POP SWAP3 SWAP2 POP POP JUMP JUMPDEST PUSH0 PUSH1 0x60 DUP3 ADD SWAP1 POP PUSH2 0x467 PUSH0 DUP4 ADD DUP7 PUSH2 0x2FA JUMP JUMPDEST PUSH2 0x474 PUSH1 0x20 DUP4 ADD DUP6 PUSH2 0x345 JUMP JUMPDEST DUP2 DUP2 SUB PUSH1 0x40 DUP4 ADD MSTORE PUSH2 0x486 DUP2 DUP5 PUSH2 0x3D3 JUMP JUMPDEST SWAP1 POP SWAP5 SWAP4 POP POP POP POP JUMP INVALID LOG2 PUSH5 0x6970667358 0x22 SLT KECCAK256 0xB7 PUSH12 0xA55B4526D8FF8DD1AC298B52 LOG3 DUP12 0xDC 0x28 0xF6 DUP14 BASEFEE 0x2E NOT EXTCODESIZE 0xD6 SWAP12 0x4C LOG4 LOG3 EQ 0xC6 0x2C PUSH5 0x736F6C6343 STOP ADDMOD ISZERO STOP CALLER "
		},
		"gasEstimates": {
			"creation": {
				"codeDepositCost": "682800",
				"executionCost": "infinite",
				"totalCost": "infinite"
			},
			"external": {
				"deployed(bytes32)": "infinite",
				"getHash()": "infinite"
			}
		},
		"methodIdentifiers": {
			"deployed(bytes32)": "6a6cc258",
			"getHash()": "d13319c4"
		}
	},
	"abi": [
		{
			"inputs": [
				{
					"internalType": "address payable",
					"name": "addr",
					"type": "address"
				}
			],
			"stateMutability": "nonpayable",
			"type": "constructor"
		},
		{
			"inputs": [
				{
					"internalType": "bytes32",
					"name": "salt",
					"type": "bytes32"
				}
			],
			"name": "deployed",
			"outputs": [],
			"stateMutability": "nonpayable",
			"type": "function"
		},
		{
			"inputs": [],
			"name": "getHash",
			"outputs": [
				{
					"internalType": "bytes32",
					"name": "",
					"type": "bytes32"
				}
			],
			"stateMutability": "view",
			"type": "function"
		}
	]
}