{
	"data": {
		"bytecode": {
			"linkReferences": {},
			"object": "608060405234801561000f575f80fd5b50604051610d51380380610d51833981810160405281019061003191906100e6565b8060015f6101000a81548173ffffffffffffffffffffffffffffffffffffffff021916908373ffffffffffffffffffffffffffffffffffffffff16021790555050610111565b5f80fd5b5f73ffffffffffffffffffffffffffffffffffffffff82169050919050565b5f6100a48261007b565b9050919050565b5f6100b58261009a565b9050919050565b6100c5816100ab565b81146100cf575f80fd5b50565b5f815190506100e0816100bc565b92915050565b5f602082840312156100fb576100fa610077565b5b5f610108848285016100d2565b91505092915050565b610c338061011e5f395ff3fe608060405234801561000f575f80fd5b506004361061003f575f3560e01c8063434ad1481461004357806368b8d10e14610061578063775c300c1461007f575b5f80fd5b61004b610089565b604051610058919061028e565b60405180910390f35b6100696101a8565b6040516100769190610321565b60405180910390f35b6100876101cb565b005b5f805f6040518060200161009c90610269565b6020820181038252601f19601f8201166040525090505f8160015f9054906101000a900473ffffffffffffffffffffffffffffffffffffffff166040516020016100e6919061035a565b6040516020818303038152906040526040516020016101069291906103df565b60405160208183030381529060405290505f805f90505b5f811061019b5760ff60f81b30865f1b858051906020012060405160200161014894939291906104b2565b604051602081830303815290604052805190602001205f1c915060c460ff1660ff831673ffffffffffffffffffffffffffffffffffffffff16031561019b576001856101949190610535565b945061011d565b50835f1b94505050505090565b5f8054906101000a900473ffffffffffffffffffffffffffffffffffffffff1681565b6101d3610089565b60015f9054906101000a900473ffffffffffffffffffffffffffffffffffffffff1660405161020190610269565b61020b9190610599565b8190604051809103905ff5905080158015610228573d5f803e3d5ffd5b505f806101000a81548173ffffffffffffffffffffffffffffffffffffffff021916908373ffffffffffffffffffffffffffffffffffffffff160217905550565b61064b806105b383390190565b5f819050919050565b61028881610276565b82525050565b5f6020820190506102a15f83018461027f565b92915050565b5f73ffffffffffffffffffffffffffffffffffffffff82169050919050565b5f819050919050565b5f6102e96102e46102df846102a7565b6102c6565b6102a7565b9050919050565b5f6102fa826102cf565b9050919050565b5f61030b826102f0565b9050919050565b61031b81610301565b82525050565b5f6020820190506103345f830184610312565b92915050565b5f610344826102a7565b9050919050565b6103548161033a565b82525050565b5f60208201905061036d5f83018461034b565b92915050565b5f81519050919050565b5f81905092915050565b5f5b838110156103a4578082015181840152602081019050610389565b5f8484015250505050565b5f6103b982610373565b6103c3818561037d565b93506103d3818560208601610387565b80840191505092915050565b5f6103ea82856103af565b91506103f682846103af565b91508190509392505050565b5f7fff0000000000000000000000000000000000000000000000000000000000000082169050919050565b5f819050919050565b61044761044282610402565b61042d565b82525050565b5f8160601b9050919050565b5f6104638261044d565b9050919050565b5f61047482610459565b9050919050565b61048c6104878261033a565b61046a565b82525050565b5f819050919050565b6104ac6104a782610276565b610492565b82525050565b5f6104bd8287610436565b6001820191506104cd828661047b565b6014820191506104dd828561049b565b6020820191506104ed828461049b565b60208201915081905095945050505050565b5f819050919050565b7f4e487b71000000000000000000000000000000000000000000000000000000005f52601160045260245ffd5b5f61053f826104ff565b915061054a836104ff565b925082820190508082111561056257610561610508565b5b92915050565b5f610572826102cf565b9050919050565b5f61058382610568565b9050919050565b61059381610579565b82525050565b5f6020820190506105ac5f83018461058a565b9291505056fe608060405234801561000f575f80fd5b5060405161064b38038061064b833981810160405281019061003191906100e5565b805f806101000a81548173ffffffffffffffffffffffffffffffffffffffff021916908373ffffffffffffffffffffffffffffffffffffffff16021790555050610110565b5f80fd5b5f73ffffffffffffffffffffffffffffffffffffffff82169050919050565b5f6100a38261007a565b9050919050565b5f6100b482610099565b9050919050565b6100c4816100aa565b81146100ce575f80fd5b50565b5f815190506100df816100bb565b92915050565b5f602082840312156100fa576100f9610076565b5b5f610107848285016100d1565b91505092915050565b61052e8061011d5f395ff3fe60806040526004361061001d575f3560e01c806350f3575314610021575b5f80fd5b61002961002b565b005b5f8054906101000a900473ffffffffffffffffffffffffffffffffffffffff1673ffffffffffffffffffffffffffffffffffffffff166108fc600a90811502906040515f60405180830381858888f1935050505015801561008e573d5f803e3d5ffd5b505f6040516024016040516020818303038152906040527fe09966a8000000000000000000000000000000000000000000000000000000007bffffffffffffffffffffffffffffffffffffffffffffffffffffffff19166020820180517bffffffffffffffffffffffffffffffffffffffffffffffffffffffff838183161783525050505090505f8054906101000a900473ffffffffffffffffffffffffffffffffffffffff1673ffffffffffffffffffffffffffffffffffffffff1663c58a455b6040518163ffffffff1660e01b81526004015f604051808303815f87803b158015610179575f80fd5b505af115801561018b573d5f803e3d5ffd5b505050505f8054906101000a900473ffffffffffffffffffffffffffffffffffffffff1673ffffffffffffffffffffffffffffffffffffffff166319c43a016040518163ffffffff1660e01b81526004015f604051808303815f87803b1580156101f3575f80fd5b505af1158015610205573d5f803e3d5ffd5b505050505f8054906101000a900473ffffffffffffffffffffffffffffffffffffffff1673ffffffffffffffffffffffffffffffffffffffff1663cf9f23b56040518163ffffffff1660e01b81526004015f604051808303815f87803b15801561026d575f80fd5b505af115801561027f573d5f803e3d5ffd5b505050505f8054906101000a900473ffffffffffffffffffffffffffffffffffffffff1673ffffffffffffffffffffffffffffffffffffffff1663e0232b425f8054906101000a900473ffffffffffffffffffffffffffffffffffffffff165f846040518463ffffffff1660e01b81526004016102fe939291906104bc565b5f604051808303815f87803b158015610315575f80fd5b505af1158015610327573d5f803e3d5ffd5b505050505f8054906101000a900473ffffffffffffffffffffffffffffffffffffffff1673ffffffffffffffffffffffffffffffffffffffff1663fa391c646040518163ffffffff1660e01b81526004015f604051808303815f87803b15801561038f575f80fd5b505af11580156103a1573d5f803e3d5ffd5b5050505050565b5f73ffffffffffffffffffffffffffffffffffffffff82169050919050565b5f6103d1826103a8565b9050919050565b6103e1816103c7565b82525050565b5f819050919050565b5f819050919050565b5f819050919050565b5f61041c610417610412846103e7565b6103f9565b6103f0565b9050919050565b61042c81610402565b82525050565b5f81519050919050565b5f82825260208201905092915050565b5f5b8381101561046957808201518184015260208101905061044e565b5f8484015250505050565b5f601f19601f8301169050919050565b5f61048e82610432565b610498818561043c565b93506104a881856020860161044c565b6104b181610474565b840191505092915050565b5f6060820190506104cf5f8301866103d8565b6104dc6020830185610423565b81810360408301526104ee8184610484565b905094935050505056fea264697066735822122094a083cd5cedd82eff6609af0d375e02c486494656efe20ec2d8b8f18eb2824d64736f6c63430008150033a2646970667358221220f5e390f5876470e690e574bc4e9d0727e6752f447adb4aadb48ebf0aeae9db7c64736f6c63430008150033",
			"opcodes": "PUSH1 0x80 PUSH1 0x40 MSTORE CALLVALUE DUP1 ISZERO PUSH2 0xF JUMPI PUSH0 DUP1 REVERT JUMPDEST POP PUSH1 0x40 MLOAD PUSH2 0xD51 CODESIZE SUB DUP1 PUSH2 0xD51 DUP4 CODECOPY DUP2 DUP2 ADD PUSH1 0x40 MSTORE DUP2 ADD SWAP1 PUSH2 0x31 SWAP2 SWAP1 PUSH2 0xE6 JUMP JUMPDEST DUP1 PUSH1 0x1 PUSH0 PUSH2 0x100 EXP DUP2 SLOAD DUP2 PUSH20 0xFFFFFFFFFFFFFFFFFFFFFFFFFFFFFFFFFFFFFFFF MUL NOT AND SWAP1 DUP4 PUSH20 0xFFFFFFFFFFFFFFFFFFFFFFFFFFFFFFFFFFFFFFFF AND MUL OR SWAP1 SSTORE POP POP PUSH2 0x111 JUMP JUMPDEST PUSH0 DUP1 REVERT JUMPDEST PUSH0 PUSH20 0xFFFFFFFFFFFFFFFFFFFFFFFFFFFFFFFFFFFFFFFF DUP3 AND SWAP1 POP SWAP2 SWAP1 POP JUMP JUMPDEST PUSH0 PUSH2 0xA4 DUP3 PUSH2 0x7B JUMP JUMPDEST SWAP1 POP SWAP2 SWAP1 POP JUMP JUMPDEST PUSH0 PUSH2 0xB5 DUP3 PUSH2 0x9A JUMP JUMPDEST SWAP1 POP SWAP2 SWAP1 POP JUMP JUMPDEST PUSH2 0xC5 DUP2 PUSH2 0xAB JUMP JUMPDEST DUP2 EQ PUSH2 0xCF JUMPI PUSH0 DUP1 REVERT JUMPDEST POP JUMP JUMPDEST PUSH0 DUP2 MLOAD SWAP1 POP PUSH2 0xE0 DUP2 PUSH2 0xBC JUMP JUMPDEST SWAP3 SWAP2 POP POP JUMP JUMPDEST PUSH0 PUSH1 0x20 DUP3 DUP5 SUB SLT ISZERO PUSH2 0xFB JUMPI PUSH2 0xFA PUSH2 0x77 JUMP JUMPDEST JUMPDEST PUSH0 PUSH2 0x108 DUP5 DUP3 DUP6 ADD PUSH2 0xD2 JUMP JUMPDEST SWAP2 POP POP SWAP3 SWAP2 POP POP JUMP JUMPDEST PUSH2 0xC33 DUP1 PUSH2 0x11E PUSH0 CODECOPY PUSH0 RETURN INVALID PUSH1 0x80 PUSH1 0x40 MSTORE CALLVALUE DUP1 ISZERO PUSH2 0xF JUMPI PUSH0 DUP1 REVERT JUMPDEST POP PUSH1 0x4 CALLDATASIZE LT PUSH2 0x3F JUMPI PUSH0 CALLDATALOAD PUSH1 0xE0 SHR DUP1 PUSH4 0x434AD148 EQ PUSH2 0x43 JUMPI DUP1 PUSH4 0x68B8D10E EQ PUSH2 0x61 JUMPI DUP1 PUSH4 0x775C300C EQ PUSH2 0x7F JUMPI JUMPDEST PUSH0 DUP1 REVERT JUMPDEST PUSH2 0x4B PUSH2 0x89 JUMP JUMPDEST PUSH1 0x40 MLOAD PUSH2 0x58 SWAP2 SWAP1 PUSH2 0x28E JUMP JUMPDEST PUSH1 0x40 MLOAD DUP1 SWAP2 SUB SWAP1 RETURN JUMPDEST PUSH2 0x69 PUSH2 0x1A8 JUMP JUMPDEST PUSH1 0x40 MLOAD PUSH2 0x76 SWAP2 SWAP1 PUSH2 0x321 JUMP JUMPDEST PUSH1 0x40 MLOAD DUP1 SWAP2 SUB SWAP1 RETURN JUMPDEST PUSH2 0x87 PUSH2 0x1CB JUMP JUMPDEST STOP JUMPDEST PUSH0 DUP1 PUSH0 PUSH1 0x40 MLOAD DUP1 PUSH1 0x20 ADD PUSH2 0x9C SWAP1 PUSH2 0x269 JUMP JUMPDEST PUSH1 0x20 DUP3 ADD DUP2 SUB DUP3 MSTORE PUSH1 0x1F NOT PUSH1 0x1F DUP3 ADD AND PUSH1 0x40 MSTORE POP SWAP1 POP PUSH0 DUP2 PUSH1 0x1 PUSH0 SWAP1 SLOAD SWAP1 PUSH2 0x100 EXP SWAP1 DIV PUSH20 0xFFFFFFFFFFFFFFFFFFFFFFFFFFFFFFFFFFFFFFFF AND PUSH1 0x40 MLOAD PUSH1 0x20 ADD PUSH2 0xE6 SWAP2 SWAP1 PUSH2 0x35A JUMP JUMPDEST PUSH1 0x40 MLOAD PUSH1 0x20 DUP2 DUP4 SUB SUB DUP2 MSTORE SWAP1 PUSH1 0x40 MSTORE PUSH1 0x40 MLOAD PUSH1 0x20 ADD PUSH2 0x106 SWAP3 SWAP2 SWAP1 PUSH2 0x3DF JUMP JUMPDEST PUSH1 0x40 MLOAD PUSH1 0x20 DUP2 DUP4 SUB SUB DUP2 MSTORE SWAP1 PUSH1 0x40 MSTORE SWAP1 POP PUSH0 DUP1 PUSH0 SWAP1 POP JUMPDEST PUSH0 DUP2 LT PUSH2 0x19B JUMPI PUSH1 0xFF PUSH1 0xF8 SHL ADDRESS DUP7 PUSH0 SHL DUP6 DUP1 MLOAD SWAP1 PUSH1 0x20 ADD KECCAK256 PUSH1 0x40 MLOAD PUSH1 0x20 ADD PUSH2 0x148 SWAP5 SWAP4 SWAP3 SWAP2 SWAP1 PUSH2 0x4B2 JUMP JUMPDEST PUSH1 0x40 MLOAD PUSH1 0x20 DUP2 DUP4 SUB SUB DUP2 MSTORE SWAP1 PUSH1 0x40 MSTORE DUP1 MLOAD SWAP1 PUSH1 0x20 ADD KECCAK256 PUSH0 SHR SWAP2 POP PUSH1 0xC4 PUSH1 0xFF AND PUSH1 0xFF DUP4 AND PUSH20 0xFFFFFFFFFFFFFFFFFFFFFFFFFFFFFFFFFFFFFFFF AND SUB ISZERO PUSH2 0x19B JUMPI PUSH1 0x1 DUP6 PUSH2 0x194 SWAP2 SWAP1 PUSH2 0x535 JUMP JUMPDEST SWAP5 POP PUSH2 0x11D JUMP JUMPDEST POP DUP4 PUSH0 SHL SWAP5 POP POP POP POP POP SWAP1 JUMP JUMPDEST PUSH0 DUP1 SLOAD SWAP1 PUSH2 0x100 EXP SWAP1 DIV PUSH20 0xFFFFFFFFFFFFFFFFFFFFFFFFFFFFFFFFFFFFFFFF AND DUP2 JUMP JUMPDEST PUSH2 0x1D3 PUSH2 0x89 JUMP JUMPDEST PUSH1 0x1 PUSH0 SWAP1 SLOAD SWAP1 PUSH2 0x100 EXP SWAP1 DIV PUSH20 0xFFFFFFFFFFFFFFFFFFFFFFFFFFFFFFFFFFFFFFFF AND PUSH1 0x40 MLOAD PUSH2 0x201 SWAP1 PUSH2 0x269 JUMP JUMPDEST PUSH2 0x20B SWAP2 SWAP1 PUSH2 0x599 JUMP JUMPDEST DUP2 SWAP1 PUSH1 0x40 MLOAD DUP1 SWAP2 SUB SWAP1 PUSH0 CREATE2 SWAP1 POP DUP1 ISZERO DUP1 ISZERO PUSH2 0x228 JUMPI RETURNDATASIZE PUSH0 DUP1 RETURNDATACOPY RETURNDATASIZE PUSH0 REVERT JUMPDEST POP PUSH0 DUP1 PUSH2 0x100 EXP DUP2 SLOAD DUP2 PUSH20 0xFFFFFFFFFFFFFFFFFFFFFFFFFFFFFFFFFFFFFFFF MUL NOT AND SWAP1 DUP4 PUSH20 0xFFFFFFFFFFFFFFFFFFFFFFFFFFFFFFFFFFFFFFFF AND MUL OR SWAP1 SSTORE POP JUMP JUMPDEST PUSH2 0x64B DUP1 PUSH2 0x5B3 DUP4 CODECOPY ADD SWAP1 JUMP JUMPDEST PUSH0 DUP2 SWAP1 POP SWAP2 SWAP1 POP JUMP JUMPDEST PUSH2 0x288 DUP2 PUSH2 0x276 JUMP JUMPDEST DUP3 MSTORE POP POP JUMP JUMPDEST PUSH0 PUSH1 0x20 DUP3 ADD SWAP1 POP PUSH2 0x2A1 PUSH0 DUP4 ADD DUP5 PUSH2 0x27F JUMP JUMPDEST SWAP3 SWAP2 POP POP JUMP JUMPDEST PUSH0 PUSH20 0xFFFFFFFFFFFFFFFFFFFFFFFFFFFFFFFFFFFFFFFF DUP3 AND SWAP1 POP SWAP2 SWAP1 POP JUMP JUMPDEST PUSH0 DUP2 SWAP1 POP SWAP2 SWAP1 POP JUMP JUMPDEST PUSH0 PUSH2 0x2E9 PUSH2 0x2E4 PUSH2 0x2DF DUP5 PUSH2 0x2A7 JUMP JUMPDEST PUSH2 0x2C6 JUMP JUMPDEST PUSH2 0x2A7 JUMP JUMPDEST SWAP1 POP SWAP2 SWAP1 POP JUMP JUMPDEST PUSH0 PUSH2 0x2FA DUP3 PUSH2 0x2CF JUMP JUMPDEST SWAP1 POP SWAP2 SWAP1 POP JUMP JUMPDEST PUSH0 PUSH2 0x30B DUP3 PUSH2 0x2F0 JUMP JUMPDEST SWAP1 POP SWAP2 SWAP1 POP JUMP JUMPDEST PUSH2 0x31B DUP2 PUSH2 0x301 JUMP JUMPDEST DUP3 MSTORE POP POP JUMP JUMPDEST PUSH0 PUSH1 0x20 DUP3 ADD SWAP1 POP PUSH2 0x334 PUSH0 DUP4 ADD DUP5 PUSH2 0x312 JUMP JUMPDEST SWAP3 SWAP2 POP POP JUMP JUMPDEST PUSH0 PUSH2 0x344 DUP3 PUSH2 0x2A7 JUMP JUMPDEST SWAP1 POP SWAP2 SWAP1 POP JUMP JUMPDEST PUSH2 0x354 DUP2 PUSH2 0x33A JUMP JUMPDEST DUP3 MSTORE POP POP JUMP JUMPDEST PUSH0 PUSH1 0x20 DUP3 ADD SWAP1 POP PUSH2 0x36D PUSH0 DUP4 ADD DUP5 PUSH2 0x34B JUMP JUMPDEST SWAP3 SWAP2 POP POP JUMP JUMPDEST PUSH0 DUP2 MLOAD SWAP1 POP SWAP2 SWAP1 POP JUMP JUMPDEST PUSH0 DUP2 SWAP1 POP SWAP3 SWAP2 POP POP JUMP JUMPDEST PUSH0 JUMPDEST DUP4 DUP2 LT ISZERO PUSH2 0x3A4 JUMPI DUP1 DUP3 ADD MLOAD DUP2 DUP5 ADD MSTORE PUSH1 0x20 DUP2 ADD SWAP1 POP PUSH2 0x389 JUMP JUMPDEST PUSH0 DUP5 DUP5 ADD MSTORE POP POP POP POP JUMP JUMPDEST PUSH0 PUSH2 0x3B9 DUP3 PUSH2 0x373 JUMP JUMPDEST PUSH2 0x3C3 DUP2 DUP6 PUSH2 0x37D JUMP JUMPDEST SWAP4 POP PUSH2 0x3D3 DUP2 DUP6 PUSH1 0x20 DUP7 ADD PUSH2 0x387 JUMP JUMPDEST DUP1 DUP5 ADD SWAP2 POP POP SWAP3 SWAP2 POP POP JUMP JUMPDEST PUSH0 PUSH2 0x3EA DUP3 DUP6 PUSH2 0x3AF JUMP JUMPDEST SWAP2 POP PUSH2 0x3F6 DUP3 DUP5 PUSH2 0x3AF JUMP JUMPDEST SWAP2 POP DUP2 SWAP1 POP SWAP4 SWAP3 POP POP POP JUMP JUMPDEST PUSH0 PUSH32 0xFF00000000000000000000000000000000000000000000000000000000000000 DUP3 AND SWAP1 POP SWAP2 SWAP1 POP JUMP JUMPDEST PUSH0 DUP2 SWAP1 POP SWAP2 SWAP1 POP JUMP JUMPDEST PUSH2 0x447 PUSH2 0x442 DUP3 PUSH2 0x402 JUMP JUMPDEST PUSH2 0x42D JUMP JUMPDEST DUP3 MSTORE POP POP JUMP JUMPDEST PUSH0 DUP2 PUSH1 0x60 SHL SWAP1 POP SWAP2 SWAP1 POP JUMP JUMPDEST PUSH0 PUSH2 0x463 DUP3 PUSH2 0x44D JUMP JUMPDEST SWAP1 POP SWAP2 SWAP1 POP JUMP JUMPDEST PUSH0 PUSH2 0x474 DUP3 PUSH2 0x459 JUMP JUMPDEST SWAP1 POP SWAP2 SWAP1 POP JUMP JUMPDEST PUSH2 0x48C PUSH2 0x487 DUP3 PUSH2 0x33A JUMP JUMPDEST PUSH2 0x46A JUMP JUMPDEST DUP3 MSTORE POP POP JUMP JUMPDEST PUSH0 DUP2 SWAP1 POP SWAP2 SWAP1 POP JUMP JUMPDEST PUSH2 0x4AC PUSH2 0x4A7 DUP3 PUSH2 0x276 JUMP JUMPDEST PUSH2 0x492 JUMP JUMPDEST DUP3 MSTORE POP POP JUMP JUMPDEST PUSH0 PUSH2 0x4BD DUP3 DUP8 PUSH2 0x436 JUMP JUMPDEST PUSH1 0x1 DUP3 ADD SWAP2 POP PUSH2 0x4CD DUP3 DUP7 PUSH2 0x47B JUMP JUMPDEST PUSH1 0x14 DUP3 ADD SWAP2 POP PUSH2 0x4DD DUP3 DUP6 PUSH2 0x49B JUMP JUMPDEST PUSH1 0x20 DUP3 ADD SWAP2 POP PUSH2 0x4ED DUP3 DUP5 PUSH2 0x49B JUMP JUMPDEST PUSH1 0x20 DUP3 ADD SWAP2 POP DUP2 SWAP1 POP SWAP6 SWAP5 POP POP POP POP POP JUMP JUMPDEST PUSH0 DUP2 SWAP1 POP SWAP2 SWAP1 POP JUMP JUMPDEST PUSH32 0x4E487B7100000000000000000000000000000000000000000000000000000000 PUSH0 MSTORE PUSH1 0x11 PUSH1 0x4 MSTORE PUSH1 0x24 PUSH0 REVERT JUMPDEST PUSH0 PUSH2 0x53F DUP3 PUSH2 0x4FF JUMP JUMPDEST SWAP2 POP PUSH2 0x54A DUP4 PUSH2 0x4FF JUMP JUMPDEST SWAP3 POP DUP3 DUP3 ADD SWAP1 POP DUP1 DUP3 GT ISZERO PUSH2 0x562 JUMPI PUSH2 0x561 PUSH2 0x508 JUMP JUMPDEST JUMPDEST SWAP3 SWAP2 POP POP JUMP JUMPDEST PUSH0 PUSH2 0x572 DUP3 PUSH2 0x2CF JUMP JUMPDEST SWAP1 POP SWAP2 SWAP1 POP JUMP JUMPDEST PUSH0 PUSH2 0x583 DUP3 PUSH2 0x568 JUMP JUMPDEST SWAP1 POP SWAP2 SWAP1 POP JUMP JUMPDEST PUSH2 0x593 DUP2 PUSH2 0x579 JUMP JUMPDEST DUP3 MSTORE POP POP JUMP JUMPDEST PUSH0 PUSH1 0x20 DUP3 ADD SWAP1 POP PUSH2 0x5AC PUSH0 DUP4 ADD DUP5 PUSH2 0x58A JUMP JUMPDEST SWAP3 SWAP2 POP POP JUMP INVALID PUSH1 0x80 PUSH1 0x40 MSTORE CALLVALUE DUP1 ISZERO PUSH2 0xF JUMPI PUSH0 DUP1 REVERT JUMPDEST POP PUSH1 0x40 MLOAD PUSH2 0x64B CODESIZE SUB DUP1 PUSH2 0x64B DUP4 CODECOPY DUP2 DUP2 ADD PUSH1 0x40 MSTORE DUP2 ADD SWAP1 PUSH2 0x31 SWAP2 SWAP1 PUSH2 0xE5 JUMP JUMPDEST DUP1 PUSH0 DUP1 PUSH2 0x100 EXP DUP2 SLOAD DUP2 PUSH20 0xFFFFFFFFFFFFFFFFFFFFFFFFFFFFFFFFFFFFFFFF MUL NOT AND SWAP1 DUP4 PUSH20 0xFFFFFFFFFFFFFFFFFFFFFFFFFFFFFFFFFFFFFFFF AND MUL OR SWAP1 SSTORE POP POP PUSH2 0x110 JUMP JUMPDEST PUSH0 DUP1 REVERT JUMPDEST PUSH0 PUSH20 0xFFFFFFFFFFFFFFFFFFFFFFFFFFFFFFFFFFFFFFFF DUP3 AND SWAP1 POP SWAP2 SWAP1 POP JUMP JUMPDEST PUSH0 PUSH2 0xA3 DUP3 PUSH2 0x7A JUMP JUMPDEST SWAP1 POP SWAP2 SWAP1 POP JUMP JUMPDEST PUSH0 PUSH2 0xB4 DUP3 PUSH2 0x99 JUMP JUMPDEST SWAP1 POP SWAP2 SWAP1 POP JUMP JUMPDEST PUSH2 0xC4 DUP2 PUSH2 0xAA JUMP JUMPDEST DUP2 EQ PUSH2 0xCE JUMPI PUSH0 DUP1 REVERT JUMPDEST POP JUMP JUMPDEST PUSH0 DUP2 MLOAD SWAP1 POP PUSH2 0xDF DUP2 PUSH2 0xBB JUMP JUMPDEST SWAP3 SWAP2 POP POP JUMP JUMPDEST PUSH0 PUSH1 0x20 DUP3 DUP5 SUB SLT ISZERO PUSH2 0xFA JUMPI PUSH2 0xF9 PUSH2 0x76 JUMP JUMPDEST JUMPDEST PUSH0 PUSH2 0x107 DUP5 DUP3 DUP6 ADD PUSH2 0xD1 JUMP JUMPDEST SWAP2 POP POP SWAP3 SWAP2 POP POP JUMP JUMPDEST PUSH2 0x52E DUP1 PUSH2 0x11D PUSH0 CODECOPY PUSH0 RETURN INVALID PUSH1 0x80 PUSH1 0x40 MSTORE PUSH1 0x4 CALLDATASIZE LT PUSH2 0x1D JUMPI PUSH0 CALLDATALOAD PUSH1 0xE0 SHR DUP1 PUSH4 0x50F35753 EQ PUSH2 0x21 JUMPI JUMPDEST PUSH0 DUP1 REVERT JUMPDEST PUSH2 0x29 PUSH2 0x2B JUMP JUMPDEST STOP JUMPDEST PUSH0 DUP1 SLOAD SWAP1 PUSH2 0x100 EXP SWAP1 DIV PUSH20 0xFFFFFFFFFFFFFFFFFFFFFFFFFFFFFFFFFFFFFFFF AND PUSH20 0xFFFFFFFFFFFFFFFFFFFFFFFFFFFFFFFFFFFFFFFF AND PUSH2 0x8FC PUSH1 0xA SWAP1 DUP2 ISZERO MUL SWAP1 PUSH1 0x40 MLOAD PUSH0 PUSH1 0x40 MLOAD DUP1 DUP4 SUB DUP2 DUP6 DUP9 DUP9 CALL SWAP4 POP POP POP POP ISZERO DUP1 ISZERO PUSH2 0x8E JUMPI RETURNDATASIZE PUSH0 DUP1 RETURNDATACOPY RETURNDATASIZE PUSH0 REVERT JUMPDEST POP PUSH0 PUSH1 0x40 MLOAD PUSH1 0x24 ADD PUSH1 0x40 MLOAD PUSH1 0x20 DUP2 DUP4 SUB SUB DUP2 MSTORE SWAP1 PUSH1 0x40 MSTORE PUSH32 0xE09966A800000000000000000000000000000000000000000000000000000000 PUSH28 0xFFFFFFFFFFFFFFFFFFFFFFFFFFFFFFFFFFFFFFFFFFFFFFFFFFFFFFFF NOT AND PUSH1 0x20 DUP3 ADD DUP1 MLOAD PUSH28 0xFFFFFFFFFFFFFFFFFFFFFFFFFFFFFFFFFFFFFFFFFFFFFFFFFFFFFFFF DUP4 DUP2 DUP4 AND OR DUP4 MSTORE POP POP POP POP SWAP1 POP PUSH0 DUP1 SLOAD SWAP1 PUSH2 0x100 EXP SWAP1 DIV PUSH20 0xFFFFFFFFFFFFFFFFFFFFFFFFFFFFFFFFFFFFFFFF AND PUSH20 0xFFFFFFFFFFFFFFFFFFFFFFFFFFFFFFFFFFFFFFFF AND PUSH4 0xC58A455B PUSH1 0x40 MLOAD DUP2 PUSH4 0xFFFFFFFF AND PUSH1 0xE0 SHL DUP2 MSTORE PUSH1 0x4 ADD PUSH0 PUSH1 0x40 MLOAD DUP1 DUP4 SUB DUP2 PUSH0 DUP8 DUP1 EXTCODESIZE ISZERO DUP1 ISZERO PUSH2 0x179 JUMPI PUSH0 DUP1 REVERT JUMPDEST POP GAS CALL ISZERO DUP1 ISZERO PUSH2 0x18B JUMPI RETURNDATASIZE PUSH0 DUP1 RETURNDATACOPY RETURNDATASIZE PUSH0 REVERT JUMPDEST POP POP POP POP PUSH0 DUP1 SLOAD SWAP1 PUSH2 0x100 EXP SWAP1 DIV PUSH20 0xFFFFFFFFFFFFFFFFFFFFFFFFFFFFFFFFFFFFFFFF AND PUSH20 0xFFFFFFFFFFFFFFFFFFFFFFFFFFFFFFFFFFFFFFFF AND PUSH4 0x19C43A01 PUSH1 0x40 MLOAD DUP2 PUSH4 0xFFFFFFFF AND PUSH1 0xE0 SHL DUP2 MSTORE PUSH1 0x4 ADD PUSH0 PUSH1 0x40 MLOAD DUP1 DUP4 SUB DUP2 PUSH0 DUP8 DUP1 EXTCODESIZE ISZERO DUP1 ISZERO PUSH2 0x1F3 JUMPI PUSH0 DUP1 REVERT JUMPDEST POP GAS CALL ISZERO DUP1 ISZERO PUSH2 0x205 JUMPI RETURNDATASIZE PUSH0 DUP1 RETURNDATACOPY RETURNDATASIZE PUSH0 REVERT JUMPDEST POP POP POP POP PUSH0 DUP1 SLOAD SWAP1 PUSH2 0x100 EXP SWAP1 DIV PUSH20 0xFFFFFFFFFFFFFFFFFFFFFFFFFFFFFFFFFFFFFFFF AND PUSH20 0xFFFFFFFFFFFFFFFFFFFFFFFFFFFFFFFFFFFFFFFF AND PUSH4 0xCF9F23B5 PUSH1 0x40 MLOAD DUP2 PUSH4 0xFFFFFFFF AND PUSH1 0xE0 SHL DUP2 MSTORE PUSH1 0x4 ADD PUSH0 PUSH1 0x40 MLOAD DUP1 DUP4 SUB DUP2 PUSH0 DUP8 DUP1 EXTCODESIZE ISZERO DUP1 ISZERO PUSH2 0x26D JUMPI PUSH0 DUP1 REVERT JUMPDEST POP GAS CALL ISZERO DUP1 ISZERO PUSH2 0x27F JUMPI RETURNDATASIZE PUSH0 DUP1 RETURNDATACOPY RETURNDATASIZE PUSH0 REVERT JUMPDEST POP POP POP POP PUSH0 DUP1 SLOAD SWAP1 PUSH2 0x100 EXP SWAP1 DIV PUSH20 0xFFFFFFFFFFFFFFFFFFFFFFFFFFFFFFFFFFFFFFFF AND PUSH20 0xFFFFFFFFFFFFFFFFFFFFFFFFFFFFFFFFFFFFFFFF AND PUSH4 0xE0232B42 PUSH0 DUP1 SLOAD SWAP1 PUSH2 0x100 EXP SWAP1 DIV PUSH20 0xFFFFFFFFFFFFFFFFFFFFFFFFFFFFFFFFFFFFFFFF AND PUSH0 DUP5 PUSH1 0x40 MLOAD DUP5 PUSH4 0xFFFFFFFF AND PUSH1 0xE0 SHL DUP2 MSTORE PUSH1 0x4 ADD PUSH2 0x2FE SWAP4 SWAP3 SWAP2 SWAP1 PUSH2 0x4BC JUMP JUMPDEST PUSH0 PUSH1 0x40 MLOAD DUP1 DUP4 SUB DUP2 PUSH0 DUP8 DUP1 EXTCODESIZE ISZERO DUP1 ISZERO PUSH2 0x315 JUMPI PUSH0 DUP1 REVERT JUMPDEST POP GAS CALL ISZERO DUP1 ISZERO PUSH2 0x327 JUMPI RETURNDATASIZE PUSH0 DUP1 RETURNDATACOPY RETURNDATASIZE PUSH0 REVERT JUMPDEST POP POP POP POP PUSH0 DUP1 SLOAD SWAP1 PUSH2 0x100 EXP SWAP1 DIV PUSH20 0xFFFFFFFFFFFFFFFFFFFFFFFFFFFFFFFFFFFFFFFF AND PUSH20 0xFFFFFFFFFFFFFFFFFFFFFFFFFFFFFFFFFFFFFFFF AND PUSH4 0xFA391C64 PUSH1 0x40 MLOAD DUP2 PUSH4 0xFFFFFFFF AND PUSH1 0xE0 SHL DUP2 MSTORE PUSH1 0x4 ADD PUSH0 PUSH1 0x40 MLOAD DUP1 DUP4 SUB DUP2 PUSH0 DUP8 DUP1 EXTCODESIZE ISZERO DUP1 ISZERO PUSH2 0x38F JUMPI PUSH0 DUP1 REVERT JUMPDEST POP GAS CALL ISZERO DUP1 ISZERO PUSH2 0x3A1 JUMPI RETURNDATASIZE PUSH0 DUP1 RETURNDATACOPY RETURNDATASIZE PUSH0 REVERT JUMPDEST POP POP POP POP POP JUMP JUMPDEST PUSH0 PUSH20 0xFFFFFFFFFFFFFFFFFFFFFFFFFFFFFFFFFFFFFFFF DUP3 AND SWAP1 POP SWAP2 SWAP1 POP JUMP JUMPDEST PUSH0 PUSH2 0x3D1 DUP3 PUSH2 0x3A8 JUMP JUMPDEST SWAP1 POP SWAP2 SWAP1 POP JUMP JUMPDEST PUSH2 0x3E1 DUP2 PUSH2 0x3C7 JUMP JUMPDEST DUP3 MSTORE POP POP JUMP JUMPDEST PUSH0 DUP2 SWAP1 POP SWAP2 SWAP1 POP JUMP JUMPDEST PUSH0 DUP2 SWAP1 POP SWAP2 SWAP1 POP JUMP JUMPDEST PUSH0 DUP2 SWAP1 POP SWAP2 SWAP1 POP JUMP JUMPDEST PUSH0 PUSH2 0x41C PUSH2 0x417 PUSH2 0x412 DUP5 PUSH2 0x3E7 JUMP JUMPDEST PUSH2 0x3F9 JUMP JUMPDEST PUSH2 0x3F0 JUMP JUMPDEST SWAP1 POP SWAP2 SWAP1 POP JUMP JUMPDEST PUSH2 0x42C DUP2 PUSH2 0x402 JUMP JUMPDEST DUP3 MSTORE POP POP JUMP JUMPDEST PUSH0 DUP2 MLOAD SWAP1 POP SWAP2 SWAP1 POP JUMP JUMPDEST PUSH0 DUP3 DUP3 MSTORE PUSH1 0x20 DUP3 ADD SWAP1 POP SWAP3 SWAP2 POP POP JUMP JUMPDEST PUSH0 JUMPDEST DUP4 DUP2 LT ISZERO PUSH2 0x469 JUMPI DUP1 DUP3 ADD MLOAD DUP2 DUP5 ADD MSTORE PUSH1 0x20 DUP2 ADD SWAP1 POP PUSH2 0x44E JUMP JUMPDEST PUSH0 DUP5 DUP5 ADD MSTORE POP POP POP POP JUMP JUMPDEST PUSH0 PUSH1 0x1F NOT PUSH1 0x1F DUP4 ADD AND SWAP1 POP SWAP2 SWAP1 POP JUMP JUMPDEST PUSH0 PUSH2 0x48E DUP3 PUSH2 0x432 JUMP JUMPDEST PUSH2 0x498 DUP2 DUP6 PUSH2 0x43C JUMP JUMPDEST SWAP4 POP PUSH2 0x4A8 DUP2 DUP6 PUSH1 0x20 DUP7 ADD PUSH2 0x44C JUMP JUMPDEST PUSH2 0x4B1 DUP2 PUSH2 0x474 JUMP JUMPDEST DUP5 ADD SWAP2 POP POP SWAP3 SWAP2 POP POP JUMP JUMPDEST PUSH0 PUSH1 0x60 DUP3 ADD SWAP1 POP PUSH2 0x4CF PUSH0 DUP4 ADD DUP7 PUSH2 0x3D8 JUMP JUMPDEST PUSH2 0x4DC PUSH1 0x20 DUP4 ADD DUP6 PUSH2 0x423 JUMP JUMPDEST DUP2 DUP2 SUB PUSH1 0x40 DUP4 ADD MSTORE PUSH2 0x4EE DUP2 DUP5 PUSH2 0x484 JUMP JUMPDEST SWAP1 POP SWAP5 SWAP4 POP POP POP POP JUMP INVALID LOG2 PUSH5 0x6970667358 0x22 SLT KECCAK256 SWAP5 LOG0 DUP4 0xCD 0x5C 0xED 0xD8 0x2E SELFDESTRUCT PUSH7 0x9AF0D375E02C4 DUP7 0x49 CHAINID JUMP 0xEF 0xE2 0xE 0xC2 0xD8 0xB8 CALL DUP15 0xB2 DUP3 0x4D PUSH5 0x736F6C6343 STOP ADDMOD ISZERO STOP CALLER LOG2 PUSH5 0x6970667358 0x22 SLT KECCAK256 CREATE2 0xE3 SWAP1 CREATE2 DUP8 PUSH5 0x70E690E574 0xBC 0x4E SWAP14 SMOD 0x27 0xE6 PUSH22 0x2F447ADB4AADB48EBF0AEAE9DB7C64736F6C63430008 ISZERO STOP CALLER "
		},
		"gasEstimates": {
			"creation": {
				"codeDepositCost": "624600",
				"executionCost": "infinite",
				"totalCost": "infinite"
			},
			"external": {
				"att1()": "infinite",
				"deploy()": "infinite",
				"getsalt()": "infinite"
			}
		},
		"methodIdentifiers": {
			"att1()": "68b8d10e",
			"deploy()": "775c300c",
			"getsalt()": "434ad148"
		}
	},
	"abi": [
		{
			"inputs": [
				{
					"internalType": "contract check",
					"name": "addr",
					"type": "address"
				}
			],
			"stateMutability": "nonpayable",
			"type": "constructor"
		},
		{
			"inputs": [],
			"name": "att1",
			"outputs": [
				{
					"internalType": "contract att",
					"name": "",
					"type": "address"
				}
			],
			"stateMutability": "view",
			"type": "function"
		},
		{
			"inputs": [],
			"name": "deploy",
			"outputs": [],
			"stateMutability": "nonpayable",
			"type": "function"
		},
		{
			"inputs": [],
			"name": "getsalt",
			"outputs": [
				{
					"internalType": "bytes32",
					"name": "",
					"type": "bytes32"
				}
			],
			"stateMutability": "nonpayable",
			"type": "function"
		}
	]
}