{
	"shoot/2/未初始化的局部storage/1.sol": {
		"array": {
			"abi": [
				{
					"constant": true,
					"inputs": [],
					"name": "isComplete",
					"outputs": [
						{
							"name": "",
							"type": "bool"
						}
					],
					"payable": false,
					"stateMutability": "view",
					"type": "function"
				},
				{
					"constant": false,
					"inputs": [
						{
							"name": "_num",
							"type": "uint256"
						}
					],
					"name": "number_add",
					"outputs": [],
					"payable": false,
					"stateMutability": "nonpayable",
					"type": "function"
				},
				{
					"constant": true,
					"inputs": [
						{
							"name": "",
							"type": "uint256"
						}
					],
					"name": "prime_number",
					"outputs": [
						{
							"name": "",
							"type": "uint256"
						}
					],
					"payable": false,
					"stateMutability": "view",
					"type": "function"
				},
				{
					"constant": true,
					"inputs": [],
					"name": "score",
					"outputs": [
						{
							"name": "",
							"type": "uint256"
						}
					],
					"payable": false,
					"stateMutability": "view",
					"type": "function"
				},
				{
					"constant": false,
					"inputs": [],
					"name": "isCompleted",
					"outputs": [],
					"payable": false,
					"stateMutability": "nonpayable",
					"type": "function"
				}
			],
			"devdoc": {
				"methods": {}
			},
			"evm": {
				"assembly": "    /* \"shoot/2/未初始化的局部storage/1.sol\":236:854  contract array {\r... */\n  mstore(0x40, 0x80)\n  callvalue\n    /* \"--CODEGEN--\":8:17   */\n  dup1\n    /* \"--CODEGEN--\":5:7   */\n  iszero\n  tag_1\n  jumpi\n    /* \"--CODEGEN--\":30:31   */\n  0x0\n    /* \"--CODEGEN--\":27:28   */\n  dup1\n    /* \"--CODEGEN--\":20:32   */\n  revert\n    /* \"--CODEGEN--\":5:7   */\ntag_1:\n    /* \"shoot/2/未初始化的局部storage/1.sol\":236:854  contract array {\r... */\n  pop\n  dataSize(sub_0)\n  dup1\n  dataOffset(sub_0)\n  0x0\n  codecopy\n  0x0\n  return\nstop\n\nsub_0: assembly {\n        /* \"shoot/2/未初始化的局部storage/1.sol\":236:854  contract array {\r... */\n      mstore(0x40, 0x80)\n      jumpi(tag_1, lt(calldatasize, 0x4))\n      calldataload(0x0)\n      0x100000000000000000000000000000000000000000000000000000000\n      swap1\n      div\n      0xffffffff\n      and\n      dup1\n      0xb2fa1c9e\n      eq\n      tag_2\n      jumpi\n      dup1\n      0xbd326fdb\n      eq\n      tag_3\n      jumpi\n      dup1\n      0xc168f37a\n      eq\n      tag_4\n      jumpi\n      dup1\n      0xefedc669\n      eq\n      tag_5\n      jumpi\n      dup1\n      0xfa391c64\n      eq\n      tag_6\n      jumpi\n    tag_1:\n      0x0\n      dup1\n      revert\n        /* \"shoot/2/未初始化的局部storage/1.sol\":258:280  bool public isComplete */\n    tag_2:\n      callvalue\n        /* \"--CODEGEN--\":8:17   */\n      dup1\n        /* \"--CODEGEN--\":5:7   */\n      iszero\n      tag_7\n      jumpi\n        /* \"--CODEGEN--\":30:31   */\n      0x0\n        /* \"--CODEGEN--\":27:28   */\n      dup1\n        /* \"--CODEGEN--\":20:32   */\n      revert\n        /* \"--CODEGEN--\":5:7   */\n    tag_7:\n        /* \"shoot/2/未初始化的局部storage/1.sol\":258:280  bool public isComplete */\n      pop\n      tag_8\n      jump(tag_9)\n    tag_8:\n      mload(0x40)\n      dup1\n      dup3\n      iszero\n      iszero\n      iszero\n      iszero\n      dup2\n      mstore\n      0x20\n      add\n      swap2\n      pop\n      pop\n      mload(0x40)\n      dup1\n      swap2\n      sub\n      swap1\n      return\n        /* \"shoot/2/未初始化的局部storage/1.sol\":359:478  function number_add(uint _num) public {\r... */\n    tag_3:\n      callvalue\n        /* \"--CODEGEN--\":8:17   */\n      dup1\n        /* \"--CODEGEN--\":5:7   */\n      iszero\n      tag_10\n      jumpi\n        /* \"--CODEGEN--\":30:31   */\n      0x0\n        /* \"--CODEGEN--\":27:28   */\n      dup1\n        /* \"--CODEGEN--\":20:32   */\n      revert\n        /* \"--CODEGEN--\":5:7   */\n    tag_10:\n        /* \"shoot/2/未初始化的局部storage/1.sol\":359:478  function number_add(uint _num) public {\r... */\n      pop\n      tag_11\n      0x4\n      dup1\n      calldatasize\n      sub\n      dup2\n      add\n      swap1\n      dup1\n      dup1\n      calldataload\n      swap1\n      0x20\n      add\n      swap1\n      swap3\n      swap2\n      swap1\n      pop\n      pop\n      pop\n      jump(tag_12)\n    tag_11:\n      stop\n        /* \"shoot/2/未初始化的局部storage/1.sol\":317:343  uint[] public prime_number */\n    tag_4:\n      callvalue\n        /* \"--CODEGEN--\":8:17   */\n      dup1\n        /* \"--CODEGEN--\":5:7   */\n      iszero\n      tag_13\n      jumpi\n        /* \"--CODEGEN--\":30:31   */\n      0x0\n        /* \"--CODEGEN--\":27:28   */\n      dup1\n        /* \"--CODEGEN--\":20:32   */\n      revert\n        /* \"--CODEGEN--\":5:7   */\n    tag_13:\n        /* \"shoot/2/未初始化的局部storage/1.sol\":317:343  uint[] public prime_number */\n      pop\n      tag_14\n      0x4\n      dup1\n      calldatasize\n      sub\n      dup2\n      add\n      swap1\n      dup1\n      dup1\n      calldataload\n      swap1\n      0x20\n      add\n      swap1\n      swap3\n      swap2\n      swap1\n      pop\n      pop\n      pop\n      jump(tag_15)\n    tag_14:\n      mload(0x40)\n      dup1\n      dup3\n      dup2\n      mstore\n      0x20\n      add\n      swap2\n      pop\n      pop\n      mload(0x40)\n      dup1\n      swap2\n      sub\n      swap1\n      return\n        /* \"shoot/2/未初始化的局部storage/1.sol\":290:307  uint public score */\n    tag_5:\n      callvalue\n        /* \"--CODEGEN--\":8:17   */\n      dup1\n        /* \"--CODEGEN--\":5:7   */\n      iszero\n      tag_16\n      jumpi\n        /* \"--CODEGEN--\":30:31   */\n      0x0\n        /* \"--CODEGEN--\":27:28   */\n      dup1\n        /* \"--CODEGEN--\":20:32   */\n      revert\n        /* \"--CODEGEN--\":5:7   */\n    tag_16:\n        /* \"shoot/2/未初始化的局部storage/1.sol\":290:307  uint public score */\n      pop\n      tag_17\n      jump(tag_18)\n    tag_17:\n      mload(0x40)\n      dup1\n      dup3\n      dup2\n      mstore\n      0x20\n      add\n      swap2\n      pop\n      pop\n      mload(0x40)\n      dup1\n      swap2\n      sub\n      swap1\n      return\n        /* \"shoot/2/未初始化的局部storage/1.sol\":486:679  function isCompleted() public {\r... */\n    tag_6:\n      callvalue\n        /* \"--CODEGEN--\":8:17   */\n      dup1\n        /* \"--CODEGEN--\":5:7   */\n      iszero\n      tag_19\n      jumpi\n        /* \"--CODEGEN--\":30:31   */\n      0x0\n        /* \"--CODEGEN--\":27:28   */\n      dup1\n        /* \"--CODEGEN--\":20:32   */\n      revert\n        /* \"--CODEGEN--\":5:7   */\n    tag_19:\n        /* \"shoot/2/未初始化的局部storage/1.sol\":486:679  function isCompleted() public {\r... */\n      pop\n      tag_20\n      jump(tag_21)\n    tag_20:\n      stop\n        /* \"shoot/2/未初始化的局部storage/1.sol\":258:280  bool public isComplete */\n    tag_9:\n      0x0\n      dup1\n      swap1\n      sload\n      swap1\n      0x100\n      exp\n      swap1\n      div\n      0xff\n      and\n      dup2\n      jump\t// out\n        /* \"shoot/2/未初始化的局部storage/1.sol\":359:478  function number_add(uint _num) public {\r... */\n    tag_12:\n        /* \"shoot/2/未初始化的局部storage/1.sol\":408:418  uint[] tmp */\n      0x0\n        /* \"shoot/2/未初始化的局部storage/1.sol\":429:432  tmp */\n      dup1\n        /* \"shoot/2/未初始化的局部storage/1.sol\":438:442  _num */\n      dup3\n        /* \"shoot/2/未初始化的局部storage/1.sol\":429:443  tmp.push(_num) */\n      swap1\n      dup1\n        /* \"--CODEGEN--\":39:40   */\n      0x1\n        /* \"--CODEGEN--\":33:36   */\n      dup2\n        /* \"--CODEGEN--\":27:37   */\n      sload\n        /* \"--CODEGEN--\":23:41   */\n      add\n        /* \"--CODEGEN--\":57:67   */\n      dup1\n        /* \"--CODEGEN--\":52:55   */\n      dup3\n        /* \"--CODEGEN--\":45:68   */\n      sstore\n        /* \"--CODEGEN--\":79:89   */\n      dup1\n        /* \"--CODEGEN--\":72:89   */\n      swap2\n      pop\n        /* \"--CODEGEN--\":0:93   */\n      pop\n        /* \"shoot/2/未初始化的局部storage/1.sol\":429:443  tmp.push(_num) */\n      swap1\n      0x1\n      dup3\n      sub\n      swap1\n      0x0\n      mstore\n      keccak256(0x0, 0x20)\n      add\n      0x0\n      swap1\n      swap2\n      swap3\n      swap1\n      swap2\n      swap1\n      swap2\n      pop\n      sstore\n      pop\n        /* \"shoot/2/未初始化的局部storage/1.sol\":467:470  tmp */\n      dup1\n        /* \"shoot/2/未初始化的局部storage/1.sol\":454:466  prime_number */\n      0x2\n        /* \"shoot/2/未初始化的局部storage/1.sol\":454:470  prime_number=tmp */\n      swap1\n      dup1\n      sload\n      tag_24\n      swap3\n      swap2\n      swap1\n      jump\t// in(tag_25)\n    tag_24:\n      pop\n        /* \"shoot/2/未初始化的局部storage/1.sol\":359:478  function number_add(uint _num) public {\r... */\n      pop\n      pop\n      jump\t// out\n        /* \"shoot/2/未初始化的局部storage/1.sol\":317:343  uint[] public prime_number */\n    tag_15:\n      0x2\n      dup2\n      dup2\n      sload\n      dup2\n      lt\n      iszero\n      iszero\n      tag_26\n      jumpi\n      invalid\n    tag_26:\n      swap1\n      0x0\n      mstore\n      keccak256(0x0, 0x20)\n      add\n      0x0\n      swap2\n      pop\n      swap1\n      pop\n      sload\n      dup2\n      jump\t// out\n        /* \"shoot/2/未初始化的局部storage/1.sol\":290:307  uint public score */\n    tag_18:\n      sload(0x1)\n      dup2\n      jump\t// out\n        /* \"shoot/2/未初始化的局部storage/1.sol\":486:679  function isCompleted() public {\r... */\n    tag_21:\n        /* \"shoot/2/未初始化的局部storage/1.sol\":535:536  0 */\n      0x0\n        /* \"shoot/2/未初始化的局部storage/1.sol\":527:532  score */\n      0x1\n        /* \"shoot/2/未初始化的局部storage/1.sol\":527:536  score = 0 */\n      dup2\n      swap1\n      sstore\n      pop\n        /* \"shoot/2/未初始化的局部storage/1.sol\":550:572  isContract(msg.sender) */\n      tag_29\n        /* \"shoot/2/未初始化的局部storage/1.sol\":561:571  msg.sender */\n      caller\n        /* \"shoot/2/未初始化的局部storage/1.sol\":550:560  isContract */\n      tag_30\n        /* \"shoot/2/未初始化的局部storage/1.sol\":550:572  isContract(msg.sender) */\n      jump\t// in\n    tag_29:\n        /* \"shoot/2/未初始化的局部storage/1.sol\":547:611  if(isContract(msg.sender)){\r... */\n      iszero\n      tag_31\n      jumpi\n        /* \"shoot/2/未初始化的局部storage/1.sol\":597:599  25 */\n      0x19\n        /* \"shoot/2/未初始化的局部storage/1.sol\":588:593  score */\n      0x1\n      0x0\n        /* \"shoot/2/未初始化的局部storage/1.sol\":588:599  score += 25 */\n      dup3\n      dup3\n      sload\n      add\n      swap3\n      pop\n      pop\n      dup2\n      swap1\n      sstore\n      pop\n        /* \"shoot/2/未初始化的局部storage/1.sol\":547:611  if(isContract(msg.sender)){\r... */\n    tag_31:\n        /* \"shoot/2/未初始化的局部storage/1.sol\":624:634  isComplete */\n      0x0\n      dup1\n      swap1\n      sload\n      swap1\n      0x100\n      exp\n      swap1\n      div\n      0xff\n      and\n        /* \"shoot/2/未初始化的局部storage/1.sol\":621:672  if(isComplete){\r... */\n      iszero\n      tag_32\n      jumpi\n        /* \"shoot/2/未初始化的局部storage/1.sol\":658:660  75 */\n      0x4b\n        /* \"shoot/2/未初始化的局部storage/1.sol\":650:655  score */\n      0x1\n      0x0\n        /* \"shoot/2/未初始化的局部storage/1.sol\":650:660  score +=75 */\n      dup3\n      dup3\n      sload\n      add\n      swap3\n      pop\n      pop\n      dup2\n      swap1\n      sstore\n      pop\n        /* \"shoot/2/未初始化的局部storage/1.sol\":621:672  if(isComplete){\r... */\n    tag_32:\n        /* \"shoot/2/未初始化的局部storage/1.sol\":486:679  function isCompleted() public {\r... */\n      jump\t// out\n        /* \"shoot/2/未初始化的局部storage/1.sol\":687:851  function isContract(address addr) private view returns (bool) {\r... */\n    tag_30:\n        /* \"shoot/2/未初始化的局部storage/1.sol\":743:747  bool */\n      0x0\n        /* \"shoot/2/未初始化的局部storage/1.sol\":760:769  uint size */\n      dup1\n        /* \"shoot/2/未初始化的局部storage/1.sol\":811:815  addr */\n      dup3\n        /* \"shoot/2/未初始化的局部storage/1.sol\":799:816  extcodesize(addr) */\n      extcodesize\n        /* \"shoot/2/未初始化的局部storage/1.sol\":791:816  size := extcodesize(addr) */\n      swap1\n      pop\n        /* \"shoot/2/未初始化的局部storage/1.sol\":842:843  0 */\n      0x0\n        /* \"shoot/2/未初始化的局部storage/1.sol\":835:839  size */\n      dup2\n        /* \"shoot/2/未初始化的局部storage/1.sol\":835:843  size > 0 */\n      gt\n        /* \"shoot/2/未初始化的局部storage/1.sol\":828:843  return size > 0 */\n      swap2\n      pop\n        /* \"shoot/2/未初始化的局部storage/1.sol\":687:851  function isContract(address addr) private view returns (bool) {\r... */\n      pop\n      swap2\n      swap1\n      pop\n      jump\t// out\n        /* \"shoot/2/未初始化的局部storage/1.sol\":236:854  contract array {\r... */\n    tag_25:\n      dup3\n      dup1\n      sload\n      dup3\n      dup3\n      sstore\n      swap1\n      0x0\n      mstore\n      keccak256(0x0, 0x20)\n      swap1\n      dup2\n      add\n      swap3\n      dup3\n      iszero\n      tag_34\n      jumpi\n      0x0\n      mstore\n      keccak256(0x0, 0x20)\n      swap2\n      dup3\n      add\n    tag_35:\n      dup3\n      dup2\n      gt\n      iszero\n      tag_36\n      jumpi\n      dup3\n      sload\n      dup3\n      sstore\n      swap2\n      0x1\n      add\n      swap2\n      swap1\n      0x1\n      add\n      swap1\n      jump(tag_35)\n    tag_36:\n    tag_34:\n      pop\n      swap1\n      pop\n      tag_37\n      swap2\n      swap1\n      jump\t// in(tag_38)\n    tag_37:\n      pop\n      swap1\n      jump\t// out\n    tag_38:\n      tag_39\n      swap2\n      swap1\n    tag_40:\n      dup1\n      dup3\n      gt\n      iszero\n      tag_41\n      jumpi\n      0x0\n      dup2\n      0x0\n      swap1\n      sstore\n      pop\n      0x1\n      add\n      jump(tag_40)\n    tag_41:\n      pop\n      swap1\n      jump\n    tag_39:\n      swap1\n      jump\t// out\n\n    auxdata: 0xa165627a7a72305820d91f91654f411d7ea8bc45744951b1ac9987bf4e44a17820d85178fe6486c9330029\n}\n",
				"bytecode": {
					"linkReferences": {},
					"object": "608060405234801561001057600080fd5b506102d5806100206000396000f30060806040526004361061006d576000357c0100000000000000000000000000000000000000000000000000000000900463ffffffff168063b2fa1c9e14610072578063bd326fdb146100a1578063c168f37a146100ce578063efedc6691461010f578063fa391c641461013a575b600080fd5b34801561007e57600080fd5b50610087610151565b604051808215151515815260200191505060405180910390f35b3480156100ad57600080fd5b506100cc60048036038101908080359060200190929190505050610163565b005b3480156100da57600080fd5b506100f9600480360381019080803590602001909291905050506101a6565b6040518082815260200191505060405180910390f35b34801561011b57600080fd5b506101246101c9565b6040518082815260200191505060405180910390f35b34801561014657600080fd5b5061014f6101cf565b005b6000809054906101000a900460ff1681565b6000808290806001815401808255809150509060018203906000526020600020016000909192909190915055508060029080546101a1929190610232565b505050565b6002818154811015156101b557fe5b906000526020600020016000915090505481565b60015481565b60006001819055506101e03361021f565b156101f75760196001600082825401925050819055505b6000809054906101000a900460ff161561021d57604b6001600082825401925050819055505b565b600080823b905060008111915050919050565b8280548282559060005260206000209081019282156102735760005260206000209182015b82811115610272578254825591600101919060010190610257565b5b5090506102809190610284565b5090565b6102a691905b808211156102a257600081600090555060010161028a565b5090565b905600a165627a7a72305820d91f91654f411d7ea8bc45744951b1ac9987bf4e44a17820d85178fe6486c9330029",
					"opcodes": "PUSH1 0x80 PUSH1 0x40 MSTORE CALLVALUE DUP1 ISZERO PUSH2 0x10 JUMPI PUSH1 0x0 DUP1 REVERT JUMPDEST POP PUSH2 0x2D5 DUP1 PUSH2 0x20 PUSH1 0x0 CODECOPY PUSH1 0x0 RETURN STOP PUSH1 0x80 PUSH1 0x40 MSTORE PUSH1 0x4 CALLDATASIZE LT PUSH2 0x6D JUMPI PUSH1 0x0 CALLDATALOAD PUSH29 0x100000000000000000000000000000000000000000000000000000000 SWAP1 DIV PUSH4 0xFFFFFFFF AND DUP1 PUSH4 0xB2FA1C9E EQ PUSH2 0x72 JUMPI DUP1 PUSH4 0xBD326FDB EQ PUSH2 0xA1 JUMPI DUP1 PUSH4 0xC168F37A EQ PUSH2 0xCE JUMPI DUP1 PUSH4 0xEFEDC669 EQ PUSH2 0x10F JUMPI DUP1 PUSH4 0xFA391C64 EQ PUSH2 0x13A JUMPI JUMPDEST PUSH1 0x0 DUP1 REVERT JUMPDEST CALLVALUE DUP1 ISZERO PUSH2 0x7E JUMPI PUSH1 0x0 DUP1 REVERT JUMPDEST POP PUSH2 0x87 PUSH2 0x151 JUMP JUMPDEST PUSH1 0x40 MLOAD DUP1 DUP3 ISZERO ISZERO ISZERO ISZERO DUP2 MSTORE PUSH1 0x20 ADD SWAP2 POP POP PUSH1 0x40 MLOAD DUP1 SWAP2 SUB SWAP1 RETURN JUMPDEST CALLVALUE DUP1 ISZERO PUSH2 0xAD JUMPI PUSH1 0x0 DUP1 REVERT JUMPDEST POP PUSH2 0xCC PUSH1 0x4 DUP1 CALLDATASIZE SUB DUP2 ADD SWAP1 DUP1 DUP1 CALLDATALOAD SWAP1 PUSH1 0x20 ADD SWAP1 SWAP3 SWAP2 SWAP1 POP POP POP PUSH2 0x163 JUMP JUMPDEST STOP JUMPDEST CALLVALUE DUP1 ISZERO PUSH2 0xDA JUMPI PUSH1 0x0 DUP1 REVERT JUMPDEST POP PUSH2 0xF9 PUSH1 0x4 DUP1 CALLDATASIZE SUB DUP2 ADD SWAP1 DUP1 DUP1 CALLDATALOAD SWAP1 PUSH1 0x20 ADD SWAP1 SWAP3 SWAP2 SWAP1 POP POP POP PUSH2 0x1A6 JUMP JUMPDEST PUSH1 0x40 MLOAD DUP1 DUP3 DUP2 MSTORE PUSH1 0x20 ADD SWAP2 POP POP PUSH1 0x40 MLOAD DUP1 SWAP2 SUB SWAP1 RETURN JUMPDEST CALLVALUE DUP1 ISZERO PUSH2 0x11B JUMPI PUSH1 0x0 DUP1 REVERT JUMPDEST POP PUSH2 0x124 PUSH2 0x1C9 JUMP JUMPDEST PUSH1 0x40 MLOAD DUP1 DUP3 DUP2 MSTORE PUSH1 0x20 ADD SWAP2 POP POP PUSH1 0x40 MLOAD DUP1 SWAP2 SUB SWAP1 RETURN JUMPDEST CALLVALUE DUP1 ISZERO PUSH2 0x146 JUMPI PUSH1 0x0 DUP1 REVERT JUMPDEST POP PUSH2 0x14F PUSH2 0x1CF JUMP JUMPDEST STOP JUMPDEST PUSH1 0x0 DUP1 SWAP1 SLOAD SWAP1 PUSH2 0x100 EXP SWAP1 DIV PUSH1 0xFF AND DUP2 JUMP JUMPDEST PUSH1 0x0 DUP1 DUP3 SWAP1 DUP1 PUSH1 0x1 DUP2 SLOAD ADD DUP1 DUP3 SSTORE DUP1 SWAP2 POP POP SWAP1 PUSH1 0x1 DUP3 SUB SWAP1 PUSH1 0x0 MSTORE PUSH1 0x20 PUSH1 0x0 KECCAK256 ADD PUSH1 0x0 SWAP1 SWAP2 SWAP3 SWAP1 SWAP2 SWAP1 SWAP2 POP SSTORE POP DUP1 PUSH1 0x2 SWAP1 DUP1 SLOAD PUSH2 0x1A1 SWAP3 SWAP2 SWAP1 PUSH2 0x232 JUMP JUMPDEST POP POP POP JUMP JUMPDEST PUSH1 0x2 DUP2 DUP2 SLOAD DUP2 LT ISZERO ISZERO PUSH2 0x1B5 JUMPI INVALID JUMPDEST SWAP1 PUSH1 0x0 MSTORE PUSH1 0x20 PUSH1 0x0 KECCAK256 ADD PUSH1 0x0 SWAP2 POP SWAP1 POP SLOAD DUP2 JUMP JUMPDEST PUSH1 0x1 SLOAD DUP2 JUMP JUMPDEST PUSH1 0x0 PUSH1 0x1 DUP2 SWAP1 SSTORE POP PUSH2 0x1E0 CALLER PUSH2 0x21F JUMP JUMPDEST ISZERO PUSH2 0x1F7 JUMPI PUSH1 0x19 PUSH1 0x1 PUSH1 0x0 DUP3 DUP3 SLOAD ADD SWAP3 POP POP DUP2 SWAP1 SSTORE POP JUMPDEST PUSH1 0x0 DUP1 SWAP1 SLOAD SWAP1 PUSH2 0x100 EXP SWAP1 DIV PUSH1 0xFF AND ISZERO PUSH2 0x21D JUMPI PUSH1 0x4B PUSH1 0x1 PUSH1 0x0 DUP3 DUP3 SLOAD ADD SWAP3 POP POP DUP2 SWAP1 SSTORE POP JUMPDEST JUMP JUMPDEST PUSH1 0x0 DUP1 DUP3 EXTCODESIZE SWAP1 POP PUSH1 0x0 DUP2 GT SWAP2 POP POP SWAP2 SWAP1 POP JUMP JUMPDEST DUP3 DUP1 SLOAD DUP3 DUP3 SSTORE SWAP1 PUSH1 0x0 MSTORE PUSH1 0x20 PUSH1 0x0 KECCAK256 SWAP1 DUP2 ADD SWAP3 DUP3 ISZERO PUSH2 0x273 JUMPI PUSH1 0x0 MSTORE PUSH1 0x20 PUSH1 0x0 KECCAK256 SWAP2 DUP3 ADD JUMPDEST DUP3 DUP2 GT ISZERO PUSH2 0x272 JUMPI DUP3 SLOAD DUP3 SSTORE SWAP2 PUSH1 0x1 ADD SWAP2 SWAP1 PUSH1 0x1 ADD SWAP1 PUSH2 0x257 JUMP JUMPDEST JUMPDEST POP SWAP1 POP PUSH2 0x280 SWAP2 SWAP1 PUSH2 0x284 JUMP JUMPDEST POP SWAP1 JUMP JUMPDEST PUSH2 0x2A6 SWAP2 SWAP1 JUMPDEST DUP1 DUP3 GT ISZERO PUSH2 0x2A2 JUMPI PUSH1 0x0 DUP2 PUSH1 0x0 SWAP1 SSTORE POP PUSH1 0x1 ADD PUSH2 0x28A JUMP JUMPDEST POP SWAP1 JUMP JUMPDEST SWAP1 JUMP STOP LOG1 PUSH6 0x627A7A723058 KECCAK256 0xd9 0x1f SWAP2 PUSH6 0x4F411D7EA8BC GASLIMIT PUSH21 0x4951B1AC9987BF4E44A17820D85178FE6486C93300 0x29 "
				},
				"gasEstimates": {
					"creation": {
						"codeDepositCost": "145000",
						"executionCost": "190",
						"totalCost": "145190"
					},
					"external": {
						"isComplete()": "442",
						"isCompleted()": "31738",
						"number_add(uint256)": "infinite",
						"prime_number(uint256)": "793",
						"score()": "460"
					},
					"internal": {
						"isContract(address)": "747"
					}
				},
				"methodIdentifiers": {
					"isComplete()": "b2fa1c9e",
					"isCompleted()": "fa391c64",
					"number_add(uint256)": "bd326fdb",
					"prime_number(uint256)": "c168f37a",
					"score()": "efedc669"
				}
			},
			"userdoc": {
				"methods": {}
			}
		}
	}
}