{
	"data": {
		"bytecode": {
			"linkReferences": {},
			"object": "6080604052610152806100115f395ff3fe608060405234801561000f575f80fd5b5060043610610029575f3560e01c8063adeebff21461002d575b5f80fd5b610047600480360381019061004291906100de565b610049565b005b5050565b5f80fd5b5f819050919050565b61006381610051565b811461006d575f80fd5b50565b5f8135905061007e8161005a565b92915050565b5f73ffffffffffffffffffffffffffffffffffffffff82169050919050565b5f6100ad82610084565b9050919050565b6100bd816100a3565b81146100c7575f80fd5b50565b5f813590506100d8816100b4565b92915050565b5f80604083850312156100f4576100f361004d565b5b5f61010185828601610070565b9250506020610112858286016100ca565b915050925092905056fea26469706673582212204915cae93892cd7c5cbd9623b61ef6931d783f2ec1fa0edd744ac751c7bdfbd164736f6c63430008140033",
			"opcodes": "PUSH1 0x80 PUSH1 0x40 MSTORE PUSH2 0x152 DUP1 PUSH2 0x11 PUSH0 CODECOPY PUSH0 RETURN INVALID PUSH1 0x80 PUSH1 0x40 MSTORE CALLVALUE DUP1 ISZERO PUSH2 0xF JUMPI PUSH0 DUP1 REVERT JUMPDEST POP PUSH1 0x4 CALLDATASIZE LT PUSH2 0x29 JUMPI PUSH0 CALLDATALOAD PUSH1 0xE0 SHR DUP1 PUSH4 0xADEEBFF2 EQ PUSH2 0x2D JUMPI JUMPDEST PUSH0 DUP1 REVERT JUMPDEST PUSH2 0x47 PUSH1 0x4 DUP1 CALLDATASIZE SUB DUP2 ADD SWAP1 PUSH2 0x42 SWAP2 SWAP1 PUSH2 0xDE JUMP JUMPDEST PUSH2 0x49 JUMP JUMPDEST STOP JUMPDEST POP POP JUMP JUMPDEST PUSH0 DUP1 REVERT JUMPDEST PUSH0 DUP2 SWAP1 POP SWAP2 SWAP1 POP JUMP JUMPDEST PUSH2 0x63 DUP2 PUSH2 0x51 JUMP JUMPDEST DUP2 EQ PUSH2 0x6D JUMPI PUSH0 DUP1 REVERT JUMPDEST POP JUMP JUMPDEST PUSH0 DUP2 CALLDATALOAD SWAP1 POP PUSH2 0x7E DUP2 PUSH2 0x5A JUMP JUMPDEST SWAP3 SWAP2 POP POP JUMP JUMPDEST PUSH0 PUSH20 0xFFFFFFFFFFFFFFFFFFFFFFFFFFFFFFFFFFFFFFFF DUP3 AND SWAP1 POP SWAP2 SWAP1 POP JUMP JUMPDEST PUSH0 PUSH2 0xAD DUP3 PUSH2 0x84 JUMP JUMPDEST SWAP1 POP SWAP2 SWAP1 POP JUMP JUMPDEST PUSH2 0xBD DUP2 PUSH2 0xA3 JUMP JUMPDEST DUP2 EQ PUSH2 0xC7 JUMPI PUSH0 DUP1 REVERT JUMPDEST POP JUMP JUMPDEST PUSH0 DUP2 CALLDATALOAD SWAP1 POP PUSH2 0xD8 DUP2 PUSH2 0xB4 JUMP JUMPDEST SWAP3 SWAP2 POP POP JUMP JUMPDEST PUSH0 DUP1 PUSH1 0x40 DUP4 DUP6 SUB SLT ISZERO PUSH2 0xF4 JUMPI PUSH2 0xF3 PUSH2 0x4D JUMP JUMPDEST JUMPDEST PUSH0 PUSH2 0x101 DUP6 DUP3 DUP7 ADD PUSH2 0x70 JUMP JUMPDEST SWAP3 POP POP PUSH1 0x20 PUSH2 0x112 DUP6 DUP3 DUP7 ADD PUSH2 0xCA JUMP JUMPDEST SWAP2 POP POP SWAP3 POP SWAP3 SWAP1 POP JUMP INVALID LOG2 PUSH5 0x6970667358 0x22 SLT KECCAK256 0x49 ISZERO 0xCA 0xE9 CODESIZE SWAP3 0xCD PUSH29 0x5CBD9623B61EF6931D783F2EC1FA0EDD744AC751C7BDFBD164736F6C63 NUMBER STOP ADDMOD EQ STOP CALLER "
		},
		"gasEstimates": {
			"creation": {
				"codeDepositCost": "67600",
				"executionCost": "91",
				"totalCost": "67691"
			},
			"external": {
				"getaddress(bytes32,address)": "598"
			}
		},
		"methodIdentifiers": {
			"getaddress(bytes32,address)": "adeebff2"
		}
	},
	"abi": [
		{
			"inputs": [],
			"stateMutability": "payable",
			"type": "constructor"
		},
		{
			"inputs": [
				{
					"internalType": "bytes32",
					"name": "_salt",
					"type": "bytes32"
				},
				{
					"internalType": "address",
					"name": "found",
					"type": "address"
				}
			],
			"name": "getaddress",
			"outputs": [],
			"stateMutability": "nonpayable",
			"type": "function"
		}
	]
}