{
	"shoot/2/call调用返回值检查/1.sol": {
		"Bank": {
			"abi": [
				{
					"inputs": [],
					"stateMutability": "nonpayable",
					"type": "constructor"
				},
				{
					"inputs": [
						{
							"internalType": "address",
							"name": "",
							"type": "address"
						}
					],
					"name": "balanceOf",
					"outputs": [
						{
							"internalType": "uint256",
							"name": "",
							"type": "uint256"
						}
					],
					"stateMutability": "view",
					"type": "function"
				},
				{
					"inputs": [
						{
							"internalType": "uint256",
							"name": "_amount",
							"type": "uint256"
						}
					],
					"name": "deposit",
					"outputs": [],
					"stateMutability": "payable",
					"type": "function"
				},
				{
					"inputs": [],
					"name": "initWithValue",
					"outputs": [],
					"stateMutability": "payable",
					"type": "function"
				},
				{
					"inputs": [],
					"name": "isCompleted",
					"outputs": [],
					"stateMutability": "nonpayable",
					"type": "function"
				},
				{
					"inputs": [],
					"name": "isInit",
					"outputs": [
						{
							"internalType": "bool",
							"name": "",
							"type": "bool"
						}
					],
					"stateMutability": "view",
					"type": "function"
				},
				{
					"inputs": [
						{
							"internalType": "uint256",
							"name": "flag",
							"type": "uint256"
						},
						{
							"internalType": "address",
							"name": "user",
							"type": "address"
						},
						{
							"internalType": "uint256",
							"name": "_amount",
							"type": "uint256"
						}
					],
					"name": "reviseBalance",
					"outputs": [],
					"stateMutability": "nonpayable",
					"type": "function"
				},
				{
					"inputs": [],
					"name": "score",
					"outputs": [
						{
							"internalType": "uint256",
							"name": "",
							"type": "uint256"
						}
					],
					"stateMutability": "view",
					"type": "function"
				},
				{
					"inputs": [
						{
							"internalType": "uint256",
							"name": "_amount",
							"type": "uint256"
						}
					],
					"name": "withdraw",
					"outputs": [],
					"stateMutability": "nonpayable",
					"type": "function"
				}
			],
			"devdoc": {
				"kind": "dev",
				"methods": {},
				"version": 1
			},
			"evm": {
				"assembly": "    /* \"shoot/2/call\\xe8\\xb0\\x83\\xe7\\x94\\xa8\\xe8\\xbf\\x94\\xe5\\x9b\\x9e\\xe5\\x80\\xbc\\xe6\\xa3\\x80\\xe6\\x9f\\xa5/1.sol\":132:1951  contract Bank{... */\n  mstore(0x40, 0x80)\n    /* \"shoot/2/call\\xe8\\xb0\\x83\\xe7\\x94\\xa8\\xe8\\xbf\\x94\\xe5\\x9b\\x9e\\xe5\\x80\\xbc\\xe6\\xa3\\x80\\xe6\\x9f\\xa5/1.sol\":351:382  constructor() public {... */\n  callvalue\n  dup1\n  iszero\n  tag_1\n  jumpi\n  0x00\n  dup1\n  revert\ntag_1:\n  pop\n    /* \"shoot/2/call\\xe8\\xb0\\x83\\xe7\\x94\\xa8\\xe8\\xbf\\x94\\xe5\\x9b\\x9e\\xe5\\x80\\xbc\\xe6\\xa3\\x80\\xe6\\x9f\\xa5/1.sol\":132:1951  contract Bank{... */\n  dataSize(sub_0)\n  dup1\n  dataOffset(sub_0)\n  0x00\n  codecopy\n  0x00\n  return\nstop\n\nsub_0: assembly {\n        /* \"shoot/2/call\\xe8\\xb0\\x83\\xe7\\x94\\xa8\\xe8\\xbf\\x94\\xe5\\x9b\\x9e\\xe5\\x80\\xbc\\xe6\\xa3\\x80\\xe6\\x9f\\xa5/1.sol\":132:1951  contract Bank{... */\n      mstore(0x40, 0x80)\n      jumpi(tag_1, lt(calldatasize, 0x04))\n      shr(0xe0, calldataload(0x00))\n      dup1\n      0xd0abec2f\n      gt\n      tag_10\n      jumpi\n      dup1\n      0xd0abec2f\n      eq\n      tag_6\n      jumpi\n      dup1\n      0xefedc669\n      eq\n      tag_7\n      jumpi\n      dup1\n      0xf8ef1085\n      eq\n      tag_8\n      jumpi\n      dup1\n      0xfa391c64\n      eq\n      tag_9\n      jumpi\n      jump(tag_1)\n    tag_10:\n      dup1\n      0x2e1a7d4d\n      eq\n      tag_2\n      jumpi\n      dup1\n      0x70a08231\n      eq\n      tag_3\n      jumpi\n      dup1\n      0xb145a5b8\n      eq\n      tag_4\n      jumpi\n      dup1\n      0xb6b55f25\n      eq\n      tag_5\n      jumpi\n    tag_1:\n      0x00\n      dup1\n      revert\n        /* \"shoot/2/call\\xe8\\xb0\\x83\\xe7\\x94\\xa8\\xe8\\xbf\\x94\\xe5\\x9b\\x9e\\xe5\\x80\\xbc\\xe6\\xa3\\x80\\xe6\\x9f\\xa5/1.sol\":1360:1670  function withdraw(uint256 _amount) public {... */\n    tag_2:\n      callvalue\n      dup1\n      iszero\n      tag_11\n      jumpi\n      0x00\n      dup1\n      revert\n    tag_11:\n      pop\n      tag_12\n      0x04\n      dup1\n      calldatasize\n      sub\n      dup2\n      add\n      swap1\n      tag_13\n      swap2\n      swap1\n      tag_14\n      jump\t// in\n    tag_13:\n      tag_15\n      jump\t// in\n    tag_12:\n      stop\n        /* \"shoot/2/call\\xe8\\xb0\\x83\\xe7\\x94\\xa8\\xe8\\xbf\\x94\\xe5\\x9b\\x9e\\xe5\\x80\\xbc\\xe6\\xa3\\x80\\xe6\\x9f\\xa5/1.sol\":294:338  mapping(address => uint256) public balanceOf */\n    tag_3:\n      callvalue\n      dup1\n      iszero\n      tag_16\n      jumpi\n      0x00\n      dup1\n      revert\n    tag_16:\n      pop\n      tag_17\n      0x04\n      dup1\n      calldatasize\n      sub\n      dup2\n      add\n      swap1\n      tag_18\n      swap2\n      swap1\n      tag_19\n      jump\t// in\n    tag_18:\n      tag_20\n      jump\t// in\n    tag_17:\n      mload(0x40)\n      tag_21\n      swap2\n      swap1\n      tag_22\n      jump\t// in\n    tag_21:\n      mload(0x40)\n      dup1\n      swap2\n      sub\n      swap1\n      return\n        /* \"shoot/2/call\\xe8\\xb0\\x83\\xe7\\x94\\xa8\\xe8\\xbf\\x94\\xe5\\x9b\\x9e\\xe5\\x80\\xbc\\xe6\\xa3\\x80\\xe6\\x9f\\xa5/1.sol\":179:197  bool public isInit */\n    tag_4:\n      callvalue\n      dup1\n      iszero\n      tag_23\n      jumpi\n      0x00\n      dup1\n      revert\n    tag_23:\n      pop\n      tag_24\n      tag_25\n      jump\t// in\n    tag_24:\n      mload(0x40)\n      tag_26\n      swap2\n      swap1\n      tag_27\n      jump\t// in\n    tag_26:\n      mload(0x40)\n      dup1\n      swap2\n      sub\n      swap1\n      return\n        /* \"shoot/2/call\\xe8\\xb0\\x83\\xe7\\x94\\xa8\\xe8\\xbf\\x94\\xe5\\x9b\\x9e\\xe5\\x80\\xbc\\xe6\\xa3\\x80\\xe6\\x9f\\xa5/1.sol\":1072:1352  function deposit(uint256 _amount) public payable{... */\n    tag_5:\n      tag_28\n      0x04\n      dup1\n      calldatasize\n      sub\n      dup2\n      add\n      swap1\n      tag_29\n      swap2\n      swap1\n      tag_14\n      jump\t// in\n    tag_29:\n      tag_30\n      jump\t// in\n    tag_28:\n      stop\n        /* \"shoot/2/call\\xe8\\xb0\\x83\\xe7\\x94\\xa8\\xe8\\xbf\\x94\\xe5\\x9b\\x9e\\xe5\\x80\\xbc\\xe6\\xa3\\x80\\xe6\\x9f\\xa5/1.sol\":675:1064  function reviseBalance(uint256 flag, address user, uint256 _amount) public onlyBank{... */\n    tag_6:\n      callvalue\n      dup1\n      iszero\n      tag_31\n      jumpi\n      0x00\n      dup1\n      revert\n    tag_31:\n      pop\n      tag_32\n      0x04\n      dup1\n      calldatasize\n      sub\n      dup2\n      add\n      swap1\n      tag_33\n      swap2\n      swap1\n      tag_34\n      jump\t// in\n    tag_33:\n      tag_35\n      jump\t// in\n    tag_32:\n      stop\n        /* \"shoot/2/call\\xe8\\xb0\\x83\\xe7\\x94\\xa8\\xe8\\xbf\\x94\\xe5\\x9b\\x9e\\xe5\\x80\\xbc\\xe6\\xa3\\x80\\xe6\\x9f\\xa5/1.sol\":152:172  uint256 public score */\n    tag_7:\n      callvalue\n      dup1\n      iszero\n      tag_36\n      jumpi\n      0x00\n      dup1\n      revert\n    tag_36:\n      pop\n      tag_37\n      tag_38\n      jump\t// in\n    tag_37:\n      mload(0x40)\n      tag_39\n      swap2\n      swap1\n      tag_22\n      jump\t// in\n    tag_39:\n      mload(0x40)\n      dup1\n      swap2\n      sub\n      swap1\n      return\n        /* \"shoot/2/call\\xe8\\xb0\\x83\\xe7\\x94\\xa8\\xe8\\xbf\\x94\\xe5\\x9b\\x9e\\xe5\\x80\\xbc\\xe6\\xa3\\x80\\xe6\\x9f\\xa5/1.sol\":419:605  function initWithValue() public payable{... */\n    tag_8:\n      tag_40\n      tag_41\n      jump\t// in\n    tag_40:\n      stop\n        /* \"shoot/2/call\\xe8\\xb0\\x83\\xe7\\x94\\xa8\\xe8\\xbf\\x94\\xe5\\x9b\\x9e\\xe5\\x80\\xbc\\xe6\\xa3\\x80\\xe6\\x9f\\xa5/1.sol\":1678:1948  function isCompleted() public {... */\n    tag_9:\n      callvalue\n      dup1\n      iszero\n      tag_42\n      jumpi\n      0x00\n      dup1\n      revert\n    tag_42:\n      pop\n      tag_43\n      tag_44\n      jump\t// in\n    tag_43:\n      stop\n        /* \"shoot/2/call\\xe8\\xb0\\x83\\xe7\\x94\\xa8\\xe8\\xbf\\x94\\xe5\\x9b\\x9e\\xe5\\x80\\xbc\\xe6\\xa3\\x80\\xe6\\x9f\\xa5/1.sol\":1360:1670  function withdraw(uint256 _amount) public {... */\n    tag_15:\n        /* \"shoot/2/call\\xe8\\xb0\\x83\\xe7\\x94\\xa8\\xe8\\xbf\\x94\\xe5\\x9b\\x9e\\xe5\\x80\\xbc\\xe6\\xa3\\x80\\xe6\\x9f\\xa5/1.sol\":1431:1432  0 */\n      0x00\n        /* \"shoot/2/call\\xe8\\xb0\\x83\\xe7\\x94\\xa8\\xe8\\xbf\\x94\\xe5\\x9b\\x9e\\xe5\\x80\\xbc\\xe6\\xa3\\x80\\xe6\\x9f\\xa5/1.sol\":1421:1428  _amount */\n      dup2\n        /* \"shoot/2/call\\xe8\\xb0\\x83\\xe7\\x94\\xa8\\xe8\\xbf\\x94\\xe5\\x9b\\x9e\\xe5\\x80\\xbc\\xe6\\xa3\\x80\\xe6\\x9f\\xa5/1.sol\":1421:1432  _amount > 0 */\n      gt\n        /* \"shoot/2/call\\xe8\\xb0\\x83\\xe7\\x94\\xa8\\xe8\\xbf\\x94\\xe5\\x9b\\x9e\\xe5\\x80\\xbc\\xe6\\xa3\\x80\\xe6\\x9f\\xa5/1.sol\":1413:1459  require(_amount > 0, \"amount can not be zero\") */\n      tag_46\n      jumpi\n      mload(0x40)\n      0x08c379a000000000000000000000000000000000000000000000000000000000\n      dup2\n      mstore\n      0x04\n      add\n      tag_47\n      swap1\n      tag_48\n      jump\t// in\n    tag_47:\n      mload(0x40)\n      dup1\n      swap2\n      sub\n      swap1\n      revert\n    tag_46:\n        /* \"shoot/2/call\\xe8\\xb0\\x83\\xe7\\x94\\xa8\\xe8\\xbf\\x94\\xe5\\x9b\\x9e\\xe5\\x80\\xbc\\xe6\\xa3\\x80\\xe6\\x9f\\xa5/1.sol\":1470:1487  bytes memory data */\n      0x00\n        /* \"shoot/2/call\\xe8\\xb0\\x83\\xe7\\x94\\xa8\\xe8\\xbf\\x94\\xe5\\x9b\\x9e\\xe5\\x80\\xbc\\xe6\\xa3\\x80\\xe6\\x9f\\xa5/1.sol\":1556:1557  0 */\n      dup1\n        /* \"shoot/2/call\\xe8\\xb0\\x83\\xe7\\x94\\xa8\\xe8\\xbf\\x94\\xe5\\x9b\\x9e\\xe5\\x80\\xbc\\xe6\\xa3\\x80\\xe6\\x9f\\xa5/1.sol\":1559:1569  msg.sender */\n      caller\n        /* \"shoot/2/call\\xe8\\xb0\\x83\\xe7\\x94\\xa8\\xe8\\xbf\\x94\\xe5\\x9b\\x9e\\xe5\\x80\\xbc\\xe6\\xa3\\x80\\xe6\\x9f\\xa5/1.sol\":1571:1578  _amount */\n      dup4\n        /* \"shoot/2/call\\xe8\\xb0\\x83\\xe7\\x94\\xa8\\xe8\\xbf\\x94\\xe5\\x9b\\x9e\\xe5\\x80\\xbc\\xe6\\xa3\\x80\\xe6\\x9f\\xa5/1.sol\":1490:1579  abi.encodeWithSignature(\"reviseBalance(uint256,address,uint256)\", 0, msg.sender, _amount) */\n      add(0x24, mload(0x40))\n      tag_49\n      swap4\n      swap3\n      swap2\n      swap1\n      tag_50\n      jump\t// in\n    tag_49:\n      mload(0x40)\n      0x20\n      dup2\n      dup4\n      sub\n      sub\n      dup2\n      mstore\n      swap1\n      0x40\n      mstore\n      and(not(0xffffffffffffffffffffffffffffffffffffffffffffffffffffffff), 0xd0abec2f00000000000000000000000000000000000000000000000000000000)\n      0x20\n      dup3\n      add\n      dup1\n      mload\n      0xffffffffffffffffffffffffffffffffffffffffffffffffffffffff\n      dup4\n      dup2\n      dup4\n      and\n      or\n      dup4\n      mstore\n      pop\n      pop\n      pop\n      pop\n        /* \"shoot/2/call\\xe8\\xb0\\x83\\xe7\\x94\\xa8\\xe8\\xbf\\x94\\xe5\\x9b\\x9e\\xe5\\x80\\xbc\\xe6\\xa3\\x80\\xe6\\x9f\\xa5/1.sol\":1470:1579  bytes memory data = abi.encodeWithSignature(\"reviseBalance(uint256,address,uint256)\", 0, msg.sender, _amount) */\n      swap1\n      pop\n        /* \"shoot/2/call\\xe8\\xb0\\x83\\xe7\\x94\\xa8\\xe8\\xbf\\x94\\xe5\\x9b\\x9e\\xe5\\x80\\xbc\\xe6\\xa3\\x80\\xe6\\x9f\\xa5/1.sol\":1598:1602  this */\n      address\n        /* \"shoot/2/call\\xe8\\xb0\\x83\\xe7\\x94\\xa8\\xe8\\xbf\\x94\\xe5\\x9b\\x9e\\xe5\\x80\\xbc\\xe6\\xa3\\x80\\xe6\\x9f\\xa5/1.sol\":1590:1608  address(this).call */\n      0xffffffffffffffffffffffffffffffffffffffff\n      and\n        /* \"shoot/2/call\\xe8\\xb0\\x83\\xe7\\x94\\xa8\\xe8\\xbf\\x94\\xe5\\x9b\\x9e\\xe5\\x80\\xbc\\xe6\\xa3\\x80\\xe6\\x9f\\xa5/1.sol\":1609:1613  data */\n      dup2\n        /* \"shoot/2/call\\xe8\\xb0\\x83\\xe7\\x94\\xa8\\xe8\\xbf\\x94\\xe5\\x9b\\x9e\\xe5\\x80\\xbc\\xe6\\xa3\\x80\\xe6\\x9f\\xa5/1.sol\":1590:1614  address(this).call(data) */\n      mload(0x40)\n      tag_51\n      swap2\n      swap1\n      tag_52\n      jump\t// in\n    tag_51:\n      0x00\n      mload(0x40)\n      dup1\n      dup4\n      sub\n      dup2\n      0x00\n      dup7\n      gas\n      call\n      swap2\n      pop\n      pop\n      returndatasize\n      dup1\n      0x00\n      dup2\n      eq\n      tag_55\n      jumpi\n      mload(0x40)\n      swap2\n      pop\n      and(add(returndatasize, 0x3f), not(0x1f))\n      dup3\n      add\n      0x40\n      mstore\n      returndatasize\n      dup3\n      mstore\n      returndatasize\n      0x00\n      0x20\n      dup5\n      add\n      returndatacopy\n      jump(tag_54)\n    tag_55:\n      0x60\n      swap2\n      pop\n    tag_54:\n      pop\n      pop\n      pop\n        /* \"shoot/2/call\\xe8\\xb0\\x83\\xe7\\x94\\xa8\\xe8\\xbf\\x94\\xe5\\x9b\\x9e\\xe5\\x80\\xbc\\xe6\\xa3\\x80\\xe6\\x9f\\xa5/1.sol\":1633:1643  msg.sender */\n      caller\n        /* \"shoot/2/call\\xe8\\xb0\\x83\\xe7\\x94\\xa8\\xe8\\xbf\\x94\\xe5\\x9b\\x9e\\xe5\\x80\\xbc\\xe6\\xa3\\x80\\xe6\\x9f\\xa5/1.sol\":1625:1653  payable(msg.sender).transfer */\n      0xffffffffffffffffffffffffffffffffffffffff\n      and\n        /* \"shoot/2/call\\xe8\\xb0\\x83\\xe7\\x94\\xa8\\xe8\\xbf\\x94\\xe5\\x9b\\x9e\\xe5\\x80\\xbc\\xe6\\xa3\\x80\\xe6\\x9f\\xa5/1.sol\":1625:1662  payable(msg.sender).transfer(_amount) */\n      0x08fc\n        /* \"shoot/2/call\\xe8\\xb0\\x83\\xe7\\x94\\xa8\\xe8\\xbf\\x94\\xe5\\x9b\\x9e\\xe5\\x80\\xbc\\xe6\\xa3\\x80\\xe6\\x9f\\xa5/1.sol\":1654:1661  _amount */\n      dup4\n        /* \"shoot/2/call\\xe8\\xb0\\x83\\xe7\\x94\\xa8\\xe8\\xbf\\x94\\xe5\\x9b\\x9e\\xe5\\x80\\xbc\\xe6\\xa3\\x80\\xe6\\x9f\\xa5/1.sol\":1625:1662  payable(msg.sender).transfer(_amount) */\n      swap1\n      dup2\n      iszero\n      mul\n      swap1\n      mload(0x40)\n      0x00\n      mload(0x40)\n      dup1\n      dup4\n      sub\n      dup2\n      dup6\n      dup9\n      dup9\n      call\n      swap4\n      pop\n      pop\n      pop\n      pop\n      iszero\n      dup1\n      iszero\n      tag_57\n      jumpi\n      returndatasize\n      0x00\n      dup1\n      returndatacopy\n      revert(0x00, returndatasize)\n    tag_57:\n      pop\n        /* \"shoot/2/call\\xe8\\xb0\\x83\\xe7\\x94\\xa8\\xe8\\xbf\\x94\\xe5\\x9b\\x9e\\xe5\\x80\\xbc\\xe6\\xa3\\x80\\xe6\\x9f\\xa5/1.sol\":1402:1670  {... */\n      pop\n        /* \"shoot/2/call\\xe8\\xb0\\x83\\xe7\\x94\\xa8\\xe8\\xbf\\x94\\xe5\\x9b\\x9e\\xe5\\x80\\xbc\\xe6\\xa3\\x80\\xe6\\x9f\\xa5/1.sol\":1360:1670  function withdraw(uint256 _amount) public {... */\n      pop\n      jump\t// out\n        /* \"shoot/2/call\\xe8\\xb0\\x83\\xe7\\x94\\xa8\\xe8\\xbf\\x94\\xe5\\x9b\\x9e\\xe5\\x80\\xbc\\xe6\\xa3\\x80\\xe6\\x9f\\xa5/1.sol\":294:338  mapping(address => uint256) public balanceOf */\n    tag_20:\n      mstore(0x20, 0x02)\n      dup1\n      0x00\n      mstore\n      keccak256(0x00, 0x40)\n      0x00\n      swap2\n      pop\n      swap1\n      pop\n      sload\n      dup2\n      jump\t// out\n        /* \"shoot/2/call\\xe8\\xb0\\x83\\xe7\\x94\\xa8\\xe8\\xbf\\x94\\xe5\\x9b\\x9e\\xe5\\x80\\xbc\\xe6\\xa3\\x80\\xe6\\x9f\\xa5/1.sol\":179:197  bool public isInit */\n    tag_25:\n      0x01\n      0x00\n      swap1\n      sload\n      swap1\n      0x0100\n      exp\n      swap1\n      div\n      0xff\n      and\n      dup2\n      jump\t// out\n        /* \"shoot/2/call\\xe8\\xb0\\x83\\xe7\\x94\\xa8\\xe8\\xbf\\x94\\xe5\\x9b\\x9e\\xe5\\x80\\xbc\\xe6\\xa3\\x80\\xe6\\x9f\\xa5/1.sol\":1072:1352  function deposit(uint256 _amount) public payable{... */\n    tag_30:\n        /* \"shoot/2/call\\xe8\\xb0\\x83\\xe7\\x94\\xa8\\xe8\\xbf\\x94\\xe5\\x9b\\x9e\\xe5\\x80\\xbc\\xe6\\xa3\\x80\\xe6\\x9f\\xa5/1.sol\":1152:1159  _amount */\n      dup1\n        /* \"shoot/2/call\\xe8\\xb0\\x83\\xe7\\x94\\xa8\\xe8\\xbf\\x94\\xe5\\x9b\\x9e\\xe5\\x80\\xbc\\xe6\\xa3\\x80\\xe6\\x9f\\xa5/1.sol\":1139:1148  msg.value */\n      callvalue\n        /* \"shoot/2/call\\xe8\\xb0\\x83\\xe7\\x94\\xa8\\xe8\\xbf\\x94\\xe5\\x9b\\x9e\\xe5\\x80\\xbc\\xe6\\xa3\\x80\\xe6\\x9f\\xa5/1.sol\":1139:1159  msg.value >= _amount */\n      lt\n      iszero\n        /* \"shoot/2/call\\xe8\\xb0\\x83\\xe7\\x94\\xa8\\xe8\\xbf\\x94\\xe5\\x9b\\x9e\\xe5\\x80\\xbc\\xe6\\xa3\\x80\\xe6\\x9f\\xa5/1.sol\":1131:1189  require(msg.value >= _amount, \"Value is less than amount\") */\n      tag_59\n      jumpi\n      mload(0x40)\n      0x08c379a000000000000000000000000000000000000000000000000000000000\n      dup2\n      mstore\n      0x04\n      add\n      tag_60\n      swap1\n      tag_61\n      jump\t// in\n    tag_60:\n      mload(0x40)\n      dup1\n      swap2\n      sub\n      swap1\n      revert\n    tag_59:\n        /* \"shoot/2/call\\xe8\\xb0\\x83\\xe7\\x94\\xa8\\xe8\\xbf\\x94\\xe5\\x9b\\x9e\\xe5\\x80\\xbc\\xe6\\xa3\\x80\\xe6\\x9f\\xa5/1.sol\":1200:1217  bytes memory data */\n      0x00\n        /* \"shoot/2/call\\xe8\\xb0\\x83\\xe7\\x94\\xa8\\xe8\\xbf\\x94\\xe5\\x9b\\x9e\\xe5\\x80\\xbc\\xe6\\xa3\\x80\\xe6\\x9f\\xa5/1.sol\":1286:1287  1 */\n      0x01\n        /* \"shoot/2/call\\xe8\\xb0\\x83\\xe7\\x94\\xa8\\xe8\\xbf\\x94\\xe5\\x9b\\x9e\\xe5\\x80\\xbc\\xe6\\xa3\\x80\\xe6\\x9f\\xa5/1.sol\":1289:1299  msg.sender */\n      caller\n        /* \"shoot/2/call\\xe8\\xb0\\x83\\xe7\\x94\\xa8\\xe8\\xbf\\x94\\xe5\\x9b\\x9e\\xe5\\x80\\xbc\\xe6\\xa3\\x80\\xe6\\x9f\\xa5/1.sol\":1301:1308  _amount */\n      dup4\n        /* \"shoot/2/call\\xe8\\xb0\\x83\\xe7\\x94\\xa8\\xe8\\xbf\\x94\\xe5\\x9b\\x9e\\xe5\\x80\\xbc\\xe6\\xa3\\x80\\xe6\\x9f\\xa5/1.sol\":1220:1309  abi.encodeWithSignature(\"reviseBalance(uint256,address,uint256)\", 1, msg.sender, _amount) */\n      add(0x24, mload(0x40))\n      tag_62\n      swap4\n      swap3\n      swap2\n      swap1\n      tag_63\n      jump\t// in\n    tag_62:\n      mload(0x40)\n      0x20\n      dup2\n      dup4\n      sub\n      sub\n      dup2\n      mstore\n      swap1\n      0x40\n      mstore\n      and(not(0xffffffffffffffffffffffffffffffffffffffffffffffffffffffff), 0xd0abec2f00000000000000000000000000000000000000000000000000000000)\n      0x20\n      dup3\n      add\n      dup1\n      mload\n      0xffffffffffffffffffffffffffffffffffffffffffffffffffffffff\n      dup4\n      dup2\n      dup4\n      and\n      or\n      dup4\n      mstore\n      pop\n      pop\n      pop\n      pop\n        /* \"shoot/2/call\\xe8\\xb0\\x83\\xe7\\x94\\xa8\\xe8\\xbf\\x94\\xe5\\x9b\\x9e\\xe5\\x80\\xbc\\xe6\\xa3\\x80\\xe6\\x9f\\xa5/1.sol\":1200:1309  bytes memory data = abi.encodeWithSignature(\"reviseBalance(uint256,address,uint256)\", 1, msg.sender, _amount) */\n      swap1\n      pop\n        /* \"shoot/2/call\\xe8\\xb0\\x83\\xe7\\x94\\xa8\\xe8\\xbf\\x94\\xe5\\x9b\\x9e\\xe5\\x80\\xbc\\xe6\\xa3\\x80\\xe6\\x9f\\xa5/1.sol\":1328:1332  this */\n      address\n        /* \"shoot/2/call\\xe8\\xb0\\x83\\xe7\\x94\\xa8\\xe8\\xbf\\x94\\xe5\\x9b\\x9e\\xe5\\x80\\xbc\\xe6\\xa3\\x80\\xe6\\x9f\\xa5/1.sol\":1320:1338  address(this).call */\n      0xffffffffffffffffffffffffffffffffffffffff\n      and\n        /* \"shoot/2/call\\xe8\\xb0\\x83\\xe7\\x94\\xa8\\xe8\\xbf\\x94\\xe5\\x9b\\x9e\\xe5\\x80\\xbc\\xe6\\xa3\\x80\\xe6\\x9f\\xa5/1.sol\":1339:1343  data */\n      dup2\n        /* \"shoot/2/call\\xe8\\xb0\\x83\\xe7\\x94\\xa8\\xe8\\xbf\\x94\\xe5\\x9b\\x9e\\xe5\\x80\\xbc\\xe6\\xa3\\x80\\xe6\\x9f\\xa5/1.sol\":1320:1344  address(this).call(data) */\n      mload(0x40)\n      tag_64\n      swap2\n      swap1\n      tag_52\n      jump\t// in\n    tag_64:\n      0x00\n      mload(0x40)\n      dup1\n      dup4\n      sub\n      dup2\n      0x00\n      dup7\n      gas\n      call\n      swap2\n      pop\n      pop\n      returndatasize\n      dup1\n      0x00\n      dup2\n      eq\n      tag_67\n      jumpi\n      mload(0x40)\n      swap2\n      pop\n      and(add(returndatasize, 0x3f), not(0x1f))\n      dup3\n      add\n      0x40\n      mstore\n      returndatasize\n      dup3\n      mstore\n      returndatasize\n      0x00\n      0x20\n      dup5\n      add\n      returndatacopy\n      jump(tag_66)\n    tag_67:\n      0x60\n      swap2\n      pop\n    tag_66:\n      pop\n      pop\n      pop\n        /* \"shoot/2/call\\xe8\\xb0\\x83\\xe7\\x94\\xa8\\xe8\\xbf\\x94\\xe5\\x9b\\x9e\\xe5\\x80\\xbc\\xe6\\xa3\\x80\\xe6\\x9f\\xa5/1.sol\":1120:1352  {... */\n      pop\n        /* \"shoot/2/call\\xe8\\xb0\\x83\\xe7\\x94\\xa8\\xe8\\xbf\\x94\\xe5\\x9b\\x9e\\xe5\\x80\\xbc\\xe6\\xa3\\x80\\xe6\\x9f\\xa5/1.sol\":1072:1352  function deposit(uint256 _amount) public payable{... */\n      pop\n      jump\t// out\n        /* \"shoot/2/call\\xe8\\xb0\\x83\\xe7\\x94\\xa8\\xe8\\xbf\\x94\\xe5\\x9b\\x9e\\xe5\\x80\\xbc\\xe6\\xa3\\x80\\xe6\\x9f\\xa5/1.sol\":675:1064  function reviseBalance(uint256 flag, address user, uint256 _amount) public onlyBank{... */\n    tag_35:\n        /* \"shoot/2/call\\xe8\\xb0\\x83\\xe7\\x94\\xa8\\xe8\\xbf\\x94\\xe5\\x9b\\x9e\\xe5\\x80\\xbc\\xe6\\xa3\\x80\\xe6\\x9f\\xa5/1.sol\":262:266  this */\n      address\n        /* \"shoot/2/call\\xe8\\xb0\\x83\\xe7\\x94\\xa8\\xe8\\xbf\\x94\\xe5\\x9b\\x9e\\xe5\\x80\\xbc\\xe6\\xa3\\x80\\xe6\\x9f\\xa5/1.sol\":240:267  msg.sender == address(this) */\n      0xffffffffffffffffffffffffffffffffffffffff\n      and\n        /* \"shoot/2/call\\xe8\\xb0\\x83\\xe7\\x94\\xa8\\xe8\\xbf\\x94\\xe5\\x9b\\x9e\\xe5\\x80\\xbc\\xe6\\xa3\\x80\\xe6\\x9f\\xa5/1.sol\":240:250  msg.sender */\n      caller\n        /* \"shoot/2/call\\xe8\\xb0\\x83\\xe7\\x94\\xa8\\xe8\\xbf\\x94\\xe5\\x9b\\x9e\\xe5\\x80\\xbc\\xe6\\xa3\\x80\\xe6\\x9f\\xa5/1.sol\":240:267  msg.sender == address(this) */\n      0xffffffffffffffffffffffffffffffffffffffff\n      and\n      eq\n        /* \"shoot/2/call\\xe8\\xb0\\x83\\xe7\\x94\\xa8\\xe8\\xbf\\x94\\xe5\\x9b\\x9e\\xe5\\x80\\xbc\\xe6\\xa3\\x80\\xe6\\x9f\\xa5/1.sol\":232:268  require(msg.sender == address(this)) */\n      tag_69\n      jumpi\n      0x00\n      dup1\n      revert\n    tag_69:\n        /* \"shoot/2/call\\xe8\\xb0\\x83\\xe7\\x94\\xa8\\xe8\\xbf\\x94\\xe5\\x9b\\x9e\\xe5\\x80\\xbc\\xe6\\xa3\\x80\\xe6\\x9f\\xa5/1.sol\":780:781  0 */\n      0x00\n        /* \"shoot/2/call\\xe8\\xb0\\x83\\xe7\\x94\\xa8\\xe8\\xbf\\x94\\xe5\\x9b\\x9e\\xe5\\x80\\xbc\\xe6\\xa3\\x80\\xe6\\x9f\\xa5/1.sol\":772:776  flag */\n      dup4\n        /* \"shoot/2/call\\xe8\\xb0\\x83\\xe7\\x94\\xa8\\xe8\\xbf\\x94\\xe5\\x9b\\x9e\\xe5\\x80\\xbc\\xe6\\xa3\\x80\\xe6\\x9f\\xa5/1.sol\":772:781  flag == 0 */\n      sub\n        /* \"shoot/2/call\\xe8\\xb0\\x83\\xe7\\x94\\xa8\\xe8\\xbf\\x94\\xe5\\x9b\\x9e\\xe5\\x80\\xbc\\xe6\\xa3\\x80\\xe6\\x9f\\xa5/1.sol\":769:1057  if(flag == 0){... */\n      tag_71\n      jumpi\n        /* \"shoot/2/call\\xe8\\xb0\\x83\\xe7\\x94\\xa8\\xe8\\xbf\\x94\\xe5\\x9b\\x9e\\xe5\\x80\\xbc\\xe6\\xa3\\x80\\xe6\\x9f\\xa5/1.sol\":823:830  _amount */\n      dup1\n        /* \"shoot/2/call\\xe8\\xb0\\x83\\xe7\\x94\\xa8\\xe8\\xbf\\x94\\xe5\\x9b\\x9e\\xe5\\x80\\xbc\\xe6\\xa3\\x80\\xe6\\x9f\\xa5/1.sol\":805:814  balanceOf */\n      0x02\n        /* \"shoot/2/call\\xe8\\xb0\\x83\\xe7\\x94\\xa8\\xe8\\xbf\\x94\\xe5\\x9b\\x9e\\xe5\\x80\\xbc\\xe6\\xa3\\x80\\xe6\\x9f\\xa5/1.sol\":805:820  balanceOf[user] */\n      0x00\n        /* \"shoot/2/call\\xe8\\xb0\\x83\\xe7\\x94\\xa8\\xe8\\xbf\\x94\\xe5\\x9b\\x9e\\xe5\\x80\\xbc\\xe6\\xa3\\x80\\xe6\\x9f\\xa5/1.sol\":815:819  user */\n      dup5\n        /* \"shoot/2/call\\xe8\\xb0\\x83\\xe7\\x94\\xa8\\xe8\\xbf\\x94\\xe5\\x9b\\x9e\\xe5\\x80\\xbc\\xe6\\xa3\\x80\\xe6\\x9f\\xa5/1.sol\":805:820  balanceOf[user] */\n      0xffffffffffffffffffffffffffffffffffffffff\n      and\n      0xffffffffffffffffffffffffffffffffffffffff\n      and\n      dup2\n      mstore\n      0x20\n      add\n      swap1\n      dup2\n      mstore\n      0x20\n      add\n      0x00\n      keccak256\n      sload\n        /* \"shoot/2/call\\xe8\\xb0\\x83\\xe7\\x94\\xa8\\xe8\\xbf\\x94\\xe5\\x9b\\x9e\\xe5\\x80\\xbc\\xe6\\xa3\\x80\\xe6\\x9f\\xa5/1.sol\":805:830  balanceOf[user] > _amount */\n      gt\n        /* \"shoot/2/call\\xe8\\xb0\\x83\\xe7\\x94\\xa8\\xe8\\xbf\\x94\\xe5\\x9b\\x9e\\xe5\\x80\\xbc\\xe6\\xa3\\x80\\xe6\\x9f\\xa5/1.sol\":797:868  require(balanceOf[user] > _amount, \"Sorry, your credit is running low\") */\n      tag_72\n      jumpi\n      mload(0x40)\n      0x08c379a000000000000000000000000000000000000000000000000000000000\n      dup2\n      mstore\n      0x04\n      add\n      tag_73\n      swap1\n      tag_74\n      jump\t// in\n    tag_73:\n      mload(0x40)\n      dup1\n      swap2\n      sub\n      swap1\n      revert\n    tag_72:\n        /* \"shoot/2/call\\xe8\\xb0\\x83\\xe7\\x94\\xa8\\xe8\\xbf\\x94\\xe5\\x9b\\x9e\\xe5\\x80\\xbc\\xe6\\xa3\\x80\\xe6\\x9f\\xa5/1.sol\":902:909  _amount */\n      dup1\n        /* \"shoot/2/call\\xe8\\xb0\\x83\\xe7\\x94\\xa8\\xe8\\xbf\\x94\\xe5\\x9b\\x9e\\xe5\\x80\\xbc\\xe6\\xa3\\x80\\xe6\\x9f\\xa5/1.sol\":883:892  balanceOf */\n      0x02\n        /* \"shoot/2/call\\xe8\\xb0\\x83\\xe7\\x94\\xa8\\xe8\\xbf\\x94\\xe5\\x9b\\x9e\\xe5\\x80\\xbc\\xe6\\xa3\\x80\\xe6\\x9f\\xa5/1.sol\":883:898  balanceOf[user] */\n      0x00\n        /* \"shoot/2/call\\xe8\\xb0\\x83\\xe7\\x94\\xa8\\xe8\\xbf\\x94\\xe5\\x9b\\x9e\\xe5\\x80\\xbc\\xe6\\xa3\\x80\\xe6\\x9f\\xa5/1.sol\":893:897  user */\n      dup5\n        /* \"shoot/2/call\\xe8\\xb0\\x83\\xe7\\x94\\xa8\\xe8\\xbf\\x94\\xe5\\x9b\\x9e\\xe5\\x80\\xbc\\xe6\\xa3\\x80\\xe6\\x9f\\xa5/1.sol\":883:898  balanceOf[user] */\n      0xffffffffffffffffffffffffffffffffffffffff\n      and\n      0xffffffffffffffffffffffffffffffffffffffff\n      and\n      dup2\n      mstore\n      0x20\n      add\n      swap1\n      dup2\n      mstore\n      0x20\n      add\n      0x00\n      keccak256\n      0x00\n        /* \"shoot/2/call\\xe8\\xb0\\x83\\xe7\\x94\\xa8\\xe8\\xbf\\x94\\xe5\\x9b\\x9e\\xe5\\x80\\xbc\\xe6\\xa3\\x80\\xe6\\x9f\\xa5/1.sol\":883:909  balanceOf[user] -= _amount */\n      dup3\n      dup3\n      sload\n      tag_75\n      swap2\n      swap1\n      tag_76\n      jump\t// in\n    tag_75:\n      swap3\n      pop\n      pop\n      dup2\n      swap1\n      sstore\n      pop\n        /* \"shoot/2/call\\xe8\\xb0\\x83\\xe7\\x94\\xa8\\xe8\\xbf\\x94\\xe5\\x9b\\x9e\\xe5\\x80\\xbc\\xe6\\xa3\\x80\\xe6\\x9f\\xa5/1.sol\":769:1057  if(flag == 0){... */\n      jump(tag_77)\n    tag_71:\n        /* \"shoot/2/call\\xe8\\xb0\\x83\\xe7\\x94\\xa8\\xe8\\xbf\\x94\\xe5\\x9b\\x9e\\xe5\\x80\\xbc\\xe6\\xa3\\x80\\xe6\\x9f\\xa5/1.sol\":937:938  1 */\n      0x01\n        /* \"shoot/2/call\\xe8\\xb0\\x83\\xe7\\x94\\xa8\\xe8\\xbf\\x94\\xe5\\x9b\\x9e\\xe5\\x80\\xbc\\xe6\\xa3\\x80\\xe6\\x9f\\xa5/1.sol\":929:933  flag */\n      dup4\n        /* \"shoot/2/call\\xe8\\xb0\\x83\\xe7\\x94\\xa8\\xe8\\xbf\\x94\\xe5\\x9b\\x9e\\xe5\\x80\\xbc\\xe6\\xa3\\x80\\xe6\\x9f\\xa5/1.sol\":929:938  flag == 1 */\n      sub\n        /* \"shoot/2/call\\xe8\\xb0\\x83\\xe7\\x94\\xa8\\xe8\\xbf\\x94\\xe5\\x9b\\x9e\\xe5\\x80\\xbc\\xe6\\xa3\\x80\\xe6\\x9f\\xa5/1.sol\":926:1057  if(flag == 1){... */\n      tag_78\n      jumpi\n        /* \"shoot/2/call\\xe8\\xb0\\x83\\xe7\\x94\\xa8\\xe8\\xbf\\x94\\xe5\\x9b\\x9e\\xe5\\x80\\xbc\\xe6\\xa3\\x80\\xe6\\x9f\\xa5/1.sol\":973:980  _amount */\n      dup1\n        /* \"shoot/2/call\\xe8\\xb0\\x83\\xe7\\x94\\xa8\\xe8\\xbf\\x94\\xe5\\x9b\\x9e\\xe5\\x80\\xbc\\xe6\\xa3\\x80\\xe6\\x9f\\xa5/1.sol\":954:963  balanceOf */\n      0x02\n        /* \"shoot/2/call\\xe8\\xb0\\x83\\xe7\\x94\\xa8\\xe8\\xbf\\x94\\xe5\\x9b\\x9e\\xe5\\x80\\xbc\\xe6\\xa3\\x80\\xe6\\x9f\\xa5/1.sol\":954:969  balanceOf[user] */\n      0x00\n        /* \"shoot/2/call\\xe8\\xb0\\x83\\xe7\\x94\\xa8\\xe8\\xbf\\x94\\xe5\\x9b\\x9e\\xe5\\x80\\xbc\\xe6\\xa3\\x80\\xe6\\x9f\\xa5/1.sol\":964:968  user */\n      dup5\n        /* \"shoot/2/call\\xe8\\xb0\\x83\\xe7\\x94\\xa8\\xe8\\xbf\\x94\\xe5\\x9b\\x9e\\xe5\\x80\\xbc\\xe6\\xa3\\x80\\xe6\\x9f\\xa5/1.sol\":954:969  balanceOf[user] */\n      0xffffffffffffffffffffffffffffffffffffffff\n      and\n      0xffffffffffffffffffffffffffffffffffffffff\n      and\n      dup2\n      mstore\n      0x20\n      add\n      swap1\n      dup2\n      mstore\n      0x20\n      add\n      0x00\n      keccak256\n      0x00\n        /* \"shoot/2/call\\xe8\\xb0\\x83\\xe7\\x94\\xa8\\xe8\\xbf\\x94\\xe5\\x9b\\x9e\\xe5\\x80\\xbc\\xe6\\xa3\\x80\\xe6\\x9f\\xa5/1.sol\":954:980  balanceOf[user] += _amount */\n      dup3\n      dup3\n      sload\n      tag_79\n      swap2\n      swap1\n      tag_80\n      jump\t// in\n    tag_79:\n      swap3\n      pop\n      pop\n      dup2\n      swap1\n      sstore\n      pop\n        /* \"shoot/2/call\\xe8\\xb0\\x83\\xe7\\x94\\xa8\\xe8\\xbf\\x94\\xe5\\x9b\\x9e\\xe5\\x80\\xbc\\xe6\\xa3\\x80\\xe6\\x9f\\xa5/1.sol\":926:1057  if(flag == 1){... */\n      jump(tag_81)\n    tag_78:\n        /* \"shoot/2/call\\xe8\\xb0\\x83\\xe7\\x94\\xa8\\xe8\\xbf\\x94\\xe5\\x9b\\x9e\\xe5\\x80\\xbc\\xe6\\xa3\\x80\\xe6\\x9f\\xa5/1.sol\":1024:1025  1 */\n      0x01\n        /* \"shoot/2/call\\xe8\\xb0\\x83\\xe7\\x94\\xa8\\xe8\\xbf\\x94\\xe5\\x9b\\x9e\\xe5\\x80\\xbc\\xe6\\xa3\\x80\\xe6\\x9f\\xa5/1.sol\":1019:1020  0 */\n      0x00\n        /* \"shoot/2/call\\xe8\\xb0\\x83\\xe7\\x94\\xa8\\xe8\\xbf\\x94\\xe5\\x9b\\x9e\\xe5\\x80\\xbc\\xe6\\xa3\\x80\\xe6\\x9f\\xa5/1.sol\":1019:1025  0 == 1 */\n      eq\n        /* \"shoot/2/call\\xe8\\xb0\\x83\\xe7\\x94\\xa8\\xe8\\xbf\\x94\\xe5\\x9b\\x9e\\xe5\\x80\\xbc\\xe6\\xa3\\x80\\xe6\\x9f\\xa5/1.sol\":1011:1045  require(0 == 1, \"Parameter error\") */\n      tag_82\n      jumpi\n      mload(0x40)\n      0x08c379a000000000000000000000000000000000000000000000000000000000\n      dup2\n      mstore\n      0x04\n      add\n      tag_83\n      swap1\n      tag_84\n      jump\t// in\n    tag_83:\n      mload(0x40)\n      dup1\n      swap2\n      sub\n      swap1\n      revert\n    tag_82:\n        /* \"shoot/2/call\\xe8\\xb0\\x83\\xe7\\x94\\xa8\\xe8\\xbf\\x94\\xe5\\x9b\\x9e\\xe5\\x80\\xbc\\xe6\\xa3\\x80\\xe6\\x9f\\xa5/1.sol\":926:1057  if(flag == 1){... */\n    tag_81:\n        /* \"shoot/2/call\\xe8\\xb0\\x83\\xe7\\x94\\xa8\\xe8\\xbf\\x94\\xe5\\x9b\\x9e\\xe5\\x80\\xbc\\xe6\\xa3\\x80\\xe6\\x9f\\xa5/1.sol\":769:1057  if(flag == 0){... */\n    tag_77:\n        /* \"shoot/2/call\\xe8\\xb0\\x83\\xe7\\x94\\xa8\\xe8\\xbf\\x94\\xe5\\x9b\\x9e\\xe5\\x80\\xbc\\xe6\\xa3\\x80\\xe6\\x9f\\xa5/1.sol\":675:1064  function reviseBalance(uint256 flag, address user, uint256 _amount) public onlyBank{... */\n      pop\n      pop\n      pop\n      jump\t// out\n        /* \"shoot/2/call\\xe8\\xb0\\x83\\xe7\\x94\\xa8\\xe8\\xbf\\x94\\xe5\\x9b\\x9e\\xe5\\x80\\xbc\\xe6\\xa3\\x80\\xe6\\x9f\\xa5/1.sol\":152:172  uint256 public score */\n    tag_38:\n      sload(0x00)\n      dup2\n      jump\t// out\n        /* \"shoot/2/call\\xe8\\xb0\\x83\\xe7\\x94\\xa8\\xe8\\xbf\\x94\\xe5\\x9b\\x9e\\xe5\\x80\\xbc\\xe6\\xa3\\x80\\xe6\\x9f\\xa5/1.sol\":419:605  function initWithValue() public payable{... */\n    tag_41:\n        /* \"shoot/2/call\\xe8\\xb0\\x83\\xe7\\x94\\xa8\\xe8\\xbf\\x94\\xe5\\x9b\\x9e\\xe5\\x80\\xbc\\xe6\\xa3\\x80\\xe6\\x9f\\xa5/1.sol\":473:479  isInit */\n      0x01\n      0x00\n      swap1\n      sload\n      swap1\n      0x0100\n      exp\n      swap1\n      div\n      0xff\n      and\n        /* \"shoot/2/call\\xe8\\xb0\\x83\\xe7\\x94\\xa8\\xe8\\xbf\\x94\\xe5\\x9b\\x9e\\xe5\\x80\\xbc\\xe6\\xa3\\x80\\xe6\\x9f\\xa5/1.sol\":469:598  if(!isInit){... */\n      tag_86\n      jumpi\n        /* \"shoot/2/call\\xe8\\xb0\\x83\\xe7\\x94\\xa8\\xe8\\xbf\\x94\\xe5\\x9b\\x9e\\xe5\\x80\\xbc\\xe6\\xa3\\x80\\xe6\\x9f\\xa5/1.sol\":528:530  10 */\n      0x0a\n        /* \"shoot/2/call\\xe8\\xb0\\x83\\xe7\\x94\\xa8\\xe8\\xbf\\x94\\xe5\\x9b\\x9e\\xe5\\x80\\xbc\\xe6\\xa3\\x80\\xe6\\x9f\\xa5/1.sol\":503:524  address(this).balance */\n      selfbalance\n        /* \"shoot/2/call\\xe8\\xb0\\x83\\xe7\\x94\\xa8\\xe8\\xbf\\x94\\xe5\\x9b\\x9e\\xe5\\x80\\xbc\\xe6\\xa3\\x80\\xe6\\x9f\\xa5/1.sol\":503:530  address(this).balance == 10 */\n      eq\n        /* \"shoot/2/call\\xe8\\xb0\\x83\\xe7\\x94\\xa8\\xe8\\xbf\\x94\\xe5\\x9b\\x9e\\xe5\\x80\\xbc\\xe6\\xa3\\x80\\xe6\\x9f\\xa5/1.sol\":495:558  require(address(this).balance == 10, \"should init with 10 wei\") */\n      tag_87\n      jumpi\n      mload(0x40)\n      0x08c379a000000000000000000000000000000000000000000000000000000000\n      dup2\n      mstore\n      0x04\n      add\n      tag_88\n      swap1\n      tag_89\n      jump\t// in\n    tag_88:\n      mload(0x40)\n      dup1\n      swap2\n      sub\n      swap1\n      revert\n    tag_87:\n        /* \"shoot/2/call\\xe8\\xb0\\x83\\xe7\\x94\\xa8\\xe8\\xbf\\x94\\xe5\\x9b\\x9e\\xe5\\x80\\xbc\\xe6\\xa3\\x80\\xe6\\x9f\\xa5/1.sol\":582:586  true */\n      0x01\n        /* \"shoot/2/call\\xe8\\xb0\\x83\\xe7\\x94\\xa8\\xe8\\xbf\\x94\\xe5\\x9b\\x9e\\xe5\\x80\\xbc\\xe6\\xa3\\x80\\xe6\\x9f\\xa5/1.sol\":573:579  isInit */\n      dup1\n      0x00\n        /* \"shoot/2/call\\xe8\\xb0\\x83\\xe7\\x94\\xa8\\xe8\\xbf\\x94\\xe5\\x9b\\x9e\\xe5\\x80\\xbc\\xe6\\xa3\\x80\\xe6\\x9f\\xa5/1.sol\":573:586  isInit = true */\n      0x0100\n      exp\n      dup2\n      sload\n      dup2\n      0xff\n      mul\n      not\n      and\n      swap1\n      dup4\n      iszero\n      iszero\n      mul\n      or\n      swap1\n      sstore\n      pop\n        /* \"shoot/2/call\\xe8\\xb0\\x83\\xe7\\x94\\xa8\\xe8\\xbf\\x94\\xe5\\x9b\\x9e\\xe5\\x80\\xbc\\xe6\\xa3\\x80\\xe6\\x9f\\xa5/1.sol\":469:598  if(!isInit){... */\n    tag_86:\n        /* \"shoot/2/call\\xe8\\xb0\\x83\\xe7\\x94\\xa8\\xe8\\xbf\\x94\\xe5\\x9b\\x9e\\xe5\\x80\\xbc\\xe6\\xa3\\x80\\xe6\\x9f\\xa5/1.sol\":419:605  function initWithValue() public payable{... */\n      jump\t// out\n        /* \"shoot/2/call\\xe8\\xb0\\x83\\xe7\\x94\\xa8\\xe8\\xbf\\x94\\xe5\\x9b\\x9e\\xe5\\x80\\xbc\\xe6\\xa3\\x80\\xe6\\x9f\\xa5/1.sol\":1678:1948  function isCompleted() public {... */\n    tag_44:\n        /* \"shoot/2/call\\xe8\\xb0\\x83\\xe7\\x94\\xa8\\xe8\\xbf\\x94\\xe5\\x9b\\x9e\\xe5\\x80\\xbc\\xe6\\xa3\\x80\\xe6\\x9f\\xa5/1.sol\":1727:1733  isInit */\n      0x01\n      0x00\n      swap1\n      sload\n      swap1\n      0x0100\n      exp\n      swap1\n      div\n      0xff\n      and\n        /* \"shoot/2/call\\xe8\\xb0\\x83\\xe7\\x94\\xa8\\xe8\\xbf\\x94\\xe5\\x9b\\x9e\\xe5\\x80\\xbc\\xe6\\xa3\\x80\\xe6\\x9f\\xa5/1.sol\":1719:1766  require(isInit, \"You can't do it without init\") */\n      tag_91\n      jumpi\n      mload(0x40)\n      0x08c379a000000000000000000000000000000000000000000000000000000000\n      dup2\n      mstore\n      0x04\n      add\n      tag_92\n      swap1\n      tag_93\n      jump\t// in\n    tag_92:\n      mload(0x40)\n      dup1\n      swap2\n      sub\n      swap1\n      revert\n    tag_91:\n        /* \"shoot/2/call\\xe8\\xb0\\x83\\xe7\\x94\\xa8\\xe8\\xbf\\x94\\xe5\\x9b\\x9e\\xe5\\x80\\xbc\\xe6\\xa3\\x80\\xe6\\x9f\\xa5/1.sol\":1785:1786  0 */\n      0x00\n        /* \"shoot/2/call\\xe8\\xb0\\x83\\xe7\\x94\\xa8\\xe8\\xbf\\x94\\xe5\\x9b\\x9e\\xe5\\x80\\xbc\\xe6\\xa3\\x80\\xe6\\x9f\\xa5/1.sol\":1777:1782  score */\n      dup1\n        /* \"shoot/2/call\\xe8\\xb0\\x83\\xe7\\x94\\xa8\\xe8\\xbf\\x94\\xe5\\x9b\\x9e\\xe5\\x80\\xbc\\xe6\\xa3\\x80\\xe6\\x9f\\xa5/1.sol\":1777:1786  score = 0 */\n      dup2\n      swap1\n      sstore\n      pop\n        /* \"shoot/2/call\\xe8\\xb0\\x83\\xe7\\x94\\xa8\\xe8\\xbf\\x94\\xe5\\x9b\\x9e\\xe5\\x80\\xbc\\xe6\\xa3\\x80\\xe6\\x9f\\xa5/1.sol\":1824:1825  0 */\n      0x00\n        /* \"shoot/2/call\\xe8\\xb0\\x83\\xe7\\x94\\xa8\\xe8\\xbf\\x94\\xe5\\x9b\\x9e\\xe5\\x80\\xbc\\xe6\\xa3\\x80\\xe6\\x9f\\xa5/1.sol\":1800:1809  balanceOf */\n      0x02\n        /* \"shoot/2/call\\xe8\\xb0\\x83\\xe7\\x94\\xa8\\xe8\\xbf\\x94\\xe5\\x9b\\x9e\\xe5\\x80\\xbc\\xe6\\xa3\\x80\\xe6\\x9f\\xa5/1.sol\":1800:1821  balanceOf[msg.sender] */\n      0x00\n        /* \"shoot/2/call\\xe8\\xb0\\x83\\xe7\\x94\\xa8\\xe8\\xbf\\x94\\xe5\\x9b\\x9e\\xe5\\x80\\xbc\\xe6\\xa3\\x80\\xe6\\x9f\\xa5/1.sol\":1810:1820  msg.sender */\n      caller\n        /* \"shoot/2/call\\xe8\\xb0\\x83\\xe7\\x94\\xa8\\xe8\\xbf\\x94\\xe5\\x9b\\x9e\\xe5\\x80\\xbc\\xe6\\xa3\\x80\\xe6\\x9f\\xa5/1.sol\":1800:1821  balanceOf[msg.sender] */\n      0xffffffffffffffffffffffffffffffffffffffff\n      and\n      0xffffffffffffffffffffffffffffffffffffffff\n      and\n      dup2\n      mstore\n      0x20\n      add\n      swap1\n      dup2\n      mstore\n      0x20\n      add\n      0x00\n      keccak256\n      sload\n        /* \"shoot/2/call\\xe8\\xb0\\x83\\xe7\\x94\\xa8\\xe8\\xbf\\x94\\xe5\\x9b\\x9e\\xe5\\x80\\xbc\\xe6\\xa3\\x80\\xe6\\x9f\\xa5/1.sol\":1800:1825  balanceOf[msg.sender] > 0 */\n      gt\n        /* \"shoot/2/call\\xe8\\xb0\\x83\\xe7\\x94\\xa8\\xe8\\xbf\\x94\\xe5\\x9b\\x9e\\xe5\\x80\\xbc\\xe6\\xa3\\x80\\xe6\\x9f\\xa5/1.sol\":1797:1864  if(balanceOf[msg.sender] > 0){... */\n      iszero\n      tag_94\n      jumpi\n        /* \"shoot/2/call\\xe8\\xb0\\x83\\xe7\\x94\\xa8\\xe8\\xbf\\x94\\xe5\\x9b\\x9e\\xe5\\x80\\xbc\\xe6\\xa3\\x80\\xe6\\x9f\\xa5/1.sol\":1850:1852  25 */\n      0x19\n        /* \"shoot/2/call\\xe8\\xb0\\x83\\xe7\\x94\\xa8\\xe8\\xbf\\x94\\xe5\\x9b\\x9e\\xe5\\x80\\xbc\\xe6\\xa3\\x80\\xe6\\x9f\\xa5/1.sol\":1841:1846  score */\n      0x00\n      dup1\n        /* \"shoot/2/call\\xe8\\xb0\\x83\\xe7\\x94\\xa8\\xe8\\xbf\\x94\\xe5\\x9b\\x9e\\xe5\\x80\\xbc\\xe6\\xa3\\x80\\xe6\\x9f\\xa5/1.sol\":1841:1852  score += 25 */\n      dup3\n      dup3\n      sload\n      tag_95\n      swap2\n      swap1\n      tag_80\n      jump\t// in\n    tag_95:\n      swap3\n      pop\n      pop\n      dup2\n      swap1\n      sstore\n      pop\n        /* \"shoot/2/call\\xe8\\xb0\\x83\\xe7\\x94\\xa8\\xe8\\xbf\\x94\\xe5\\x9b\\x9e\\xe5\\x80\\xbc\\xe6\\xa3\\x80\\xe6\\x9f\\xa5/1.sol\":1797:1864  if(balanceOf[msg.sender] > 0){... */\n    tag_94:\n        /* \"shoot/2/call\\xe8\\xb0\\x83\\xe7\\x94\\xa8\\xe8\\xbf\\x94\\xe5\\x9b\\x9e\\xe5\\x80\\xbc\\xe6\\xa3\\x80\\xe6\\x9f\\xa5/1.sol\":1902:1903  0 */\n      0x00\n        /* \"shoot/2/call\\xe8\\xb0\\x83\\xe7\\x94\\xa8\\xe8\\xbf\\x94\\xe5\\x9b\\x9e\\xe5\\x80\\xbc\\xe6\\xa3\\x80\\xe6\\x9f\\xa5/1.sol\":1877:1898  address(this).balance */\n      selfbalance\n        /* \"shoot/2/call\\xe8\\xb0\\x83\\xe7\\x94\\xa8\\xe8\\xbf\\x94\\xe5\\x9b\\x9e\\xe5\\x80\\xbc\\xe6\\xa3\\x80\\xe6\\x9f\\xa5/1.sol\":1877:1903  address(this).balance == 0 */\n      sub\n        /* \"shoot/2/call\\xe8\\xb0\\x83\\xe7\\x94\\xa8\\xe8\\xbf\\x94\\xe5\\x9b\\x9e\\xe5\\x80\\xbc\\xe6\\xa3\\x80\\xe6\\x9f\\xa5/1.sol\":1874:1941  if(address(this).balance == 0){... */\n      tag_96\n      jumpi\n        /* \"shoot/2/call\\xe8\\xb0\\x83\\xe7\\x94\\xa8\\xe8\\xbf\\x94\\xe5\\x9b\\x9e\\xe5\\x80\\xbc\\xe6\\xa3\\x80\\xe6\\x9f\\xa5/1.sol\":1927:1929  75 */\n      0x4b\n        /* \"shoot/2/call\\xe8\\xb0\\x83\\xe7\\x94\\xa8\\xe8\\xbf\\x94\\xe5\\x9b\\x9e\\xe5\\x80\\xbc\\xe6\\xa3\\x80\\xe6\\x9f\\xa5/1.sol\":1919:1924  score */\n      0x00\n      dup1\n        /* \"shoot/2/call\\xe8\\xb0\\x83\\xe7\\x94\\xa8\\xe8\\xbf\\x94\\xe5\\x9b\\x9e\\xe5\\x80\\xbc\\xe6\\xa3\\x80\\xe6\\x9f\\xa5/1.sol\":1919:1929  score +=75 */\n      dup3\n      dup3\n      sload\n      tag_97\n      swap2\n      swap1\n      tag_80\n      jump\t// in\n    tag_97:\n      swap3\n      pop\n      pop\n      dup2\n      swap1\n      sstore\n      pop\n        /* \"shoot/2/call\\xe8\\xb0\\x83\\xe7\\x94\\xa8\\xe8\\xbf\\x94\\xe5\\x9b\\x9e\\xe5\\x80\\xbc\\xe6\\xa3\\x80\\xe6\\x9f\\xa5/1.sol\":1874:1941  if(address(this).balance == 0){... */\n    tag_96:\n        /* \"shoot/2/call\\xe8\\xb0\\x83\\xe7\\x94\\xa8\\xe8\\xbf\\x94\\xe5\\x9b\\x9e\\xe5\\x80\\xbc\\xe6\\xa3\\x80\\xe6\\x9f\\xa5/1.sol\":1678:1948  function isCompleted() public {... */\n      jump\t// out\n        /* \"#utility.yul\":88:205   */\n    tag_99:\n        /* \"#utility.yul\":197:198   */\n      0x00\n        /* \"#utility.yul\":194:195   */\n      dup1\n        /* \"#utility.yul\":187:199   */\n      revert\n        /* \"#utility.yul\":334:411   */\n    tag_101:\n        /* \"#utility.yul\":371:378   */\n      0x00\n        /* \"#utility.yul\":400:405   */\n      dup2\n        /* \"#utility.yul\":389:405   */\n      swap1\n      pop\n        /* \"#utility.yul\":334:411   */\n      swap2\n      swap1\n      pop\n      jump\t// out\n        /* \"#utility.yul\":417:539   */\n    tag_102:\n        /* \"#utility.yul\":490:514   */\n      tag_144\n        /* \"#utility.yul\":508:513   */\n      dup2\n        /* \"#utility.yul\":490:514   */\n      tag_101\n      jump\t// in\n    tag_144:\n        /* \"#utility.yul\":483:488   */\n      dup2\n        /* \"#utility.yul\":480:515   */\n      eq\n        /* \"#utility.yul\":470:533   */\n      tag_145\n      jumpi\n        /* \"#utility.yul\":529:530   */\n      0x00\n        /* \"#utility.yul\":526:527   */\n      dup1\n        /* \"#utility.yul\":519:531   */\n      revert\n        /* \"#utility.yul\":470:533   */\n    tag_145:\n        /* \"#utility.yul\":417:539   */\n      pop\n      jump\t// out\n        /* \"#utility.yul\":545:684   */\n    tag_103:\n        /* \"#utility.yul\":591:596   */\n      0x00\n        /* \"#utility.yul\":629:635   */\n      dup2\n        /* \"#utility.yul\":616:636   */\n      calldataload\n        /* \"#utility.yul\":607:636   */\n      swap1\n      pop\n        /* \"#utility.yul\":645:678   */\n      tag_147\n        /* \"#utility.yul\":672:677   */\n      dup2\n        /* \"#utility.yul\":645:678   */\n      tag_102\n      jump\t// in\n    tag_147:\n        /* \"#utility.yul\":545:684   */\n      swap3\n      swap2\n      pop\n      pop\n      jump\t// out\n        /* \"#utility.yul\":690:1019   */\n    tag_14:\n        /* \"#utility.yul\":749:755   */\n      0x00\n        /* \"#utility.yul\":798:800   */\n      0x20\n        /* \"#utility.yul\":786:795   */\n      dup3\n        /* \"#utility.yul\":777:784   */\n      dup5\n        /* \"#utility.yul\":773:796   */\n      sub\n        /* \"#utility.yul\":769:801   */\n      slt\n        /* \"#utility.yul\":766:885   */\n      iszero\n      tag_149\n      jumpi\n        /* \"#utility.yul\":804:883   */\n      tag_150\n      tag_99\n      jump\t// in\n    tag_150:\n        /* \"#utility.yul\":766:885   */\n    tag_149:\n        /* \"#utility.yul\":924:925   */\n      0x00\n        /* \"#utility.yul\":949:1002   */\n      tag_151\n        /* \"#utility.yul\":994:1001   */\n      dup5\n        /* \"#utility.yul\":985:991   */\n      dup3\n        /* \"#utility.yul\":974:983   */\n      dup6\n        /* \"#utility.yul\":970:992   */\n      add\n        /* \"#utility.yul\":949:1002   */\n      tag_103\n      jump\t// in\n    tag_151:\n        /* \"#utility.yul\":939:1002   */\n      swap2\n      pop\n        /* \"#utility.yul\":895:1012   */\n      pop\n        /* \"#utility.yul\":690:1019   */\n      swap3\n      swap2\n      pop\n      pop\n      jump\t// out\n        /* \"#utility.yul\":1025:1151   */\n    tag_104:\n        /* \"#utility.yul\":1062:1069   */\n      0x00\n        /* \"#utility.yul\":1102:1144   */\n      0xffffffffffffffffffffffffffffffffffffffff\n        /* \"#utility.yul\":1095:1100   */\n      dup3\n        /* \"#utility.yul\":1091:1145   */\n      and\n        /* \"#utility.yul\":1080:1145   */\n      swap1\n      pop\n        /* \"#utility.yul\":1025:1151   */\n      swap2\n      swap1\n      pop\n      jump\t// out\n        /* \"#utility.yul\":1157:1253   */\n    tag_105:\n        /* \"#utility.yul\":1194:1201   */\n      0x00\n        /* \"#utility.yul\":1223:1247   */\n      tag_154\n        /* \"#utility.yul\":1241:1246   */\n      dup3\n        /* \"#utility.yul\":1223:1247   */\n      tag_104\n      jump\t// in\n    tag_154:\n        /* \"#utility.yul\":1212:1247   */\n      swap1\n      pop\n        /* \"#utility.yul\":1157:1253   */\n      swap2\n      swap1\n      pop\n      jump\t// out\n        /* \"#utility.yul\":1259:1381   */\n    tag_106:\n        /* \"#utility.yul\":1332:1356   */\n      tag_156\n        /* \"#utility.yul\":1350:1355   */\n      dup2\n        /* \"#utility.yul\":1332:1356   */\n      tag_105\n      jump\t// in\n    tag_156:\n        /* \"#utility.yul\":1325:1330   */\n      dup2\n        /* \"#utility.yul\":1322:1357   */\n      eq\n        /* \"#utility.yul\":1312:1375   */\n      tag_157\n      jumpi\n        /* \"#utility.yul\":1371:1372   */\n      0x00\n        /* \"#utility.yul\":1368:1369   */\n      dup1\n        /* \"#utility.yul\":1361:1373   */\n      revert\n        /* \"#utility.yul\":1312:1375   */\n    tag_157:\n        /* \"#utility.yul\":1259:1381   */\n      pop\n      jump\t// out\n        /* \"#utility.yul\":1387:1526   */\n    tag_107:\n        /* \"#utility.yul\":1433:1438   */\n      0x00\n        /* \"#utility.yul\":1471:1477   */\n      dup2\n        /* \"#utility.yul\":1458:1478   */\n      calldataload\n        /* \"#utility.yul\":1449:1478   */\n      swap1\n      pop\n        /* \"#utility.yul\":1487:1520   */\n      tag_159\n        /* \"#utility.yul\":1514:1519   */\n      dup2\n        /* \"#utility.yul\":1487:1520   */\n      tag_106\n      jump\t// in\n    tag_159:\n        /* \"#utility.yul\":1387:1526   */\n      swap3\n      swap2\n      pop\n      pop\n      jump\t// out\n        /* \"#utility.yul\":1532:1861   */\n    tag_19:\n        /* \"#utility.yul\":1591:1597   */\n      0x00\n        /* \"#utility.yul\":1640:1642   */\n      0x20\n        /* \"#utility.yul\":1628:1637   */\n      dup3\n        /* \"#utility.yul\":1619:1626   */\n      dup5\n        /* \"#utility.yul\":1615:1638   */\n      sub\n        /* \"#utility.yul\":1611:1643   */\n      slt\n        /* \"#utility.yul\":1608:1727   */\n      iszero\n      tag_161\n      jumpi\n        /* \"#utility.yul\":1646:1725   */\n      tag_162\n      tag_99\n      jump\t// in\n    tag_162:\n        /* \"#utility.yul\":1608:1727   */\n    tag_161:\n        /* \"#utility.yul\":1766:1767   */\n      0x00\n        /* \"#utility.yul\":1791:1844   */\n      tag_163\n        /* \"#utility.yul\":1836:1843   */\n      dup5\n        /* \"#utility.yul\":1827:1833   */\n      dup3\n        /* \"#utility.yul\":1816:1825   */\n      dup6\n        /* \"#utility.yul\":1812:1834   */\n      add\n        /* \"#utility.yul\":1791:1844   */\n      tag_107\n      jump\t// in\n    tag_163:\n        /* \"#utility.yul\":1781:1844   */\n      swap2\n      pop\n        /* \"#utility.yul\":1737:1854   */\n      pop\n        /* \"#utility.yul\":1532:1861   */\n      swap3\n      swap2\n      pop\n      pop\n      jump\t// out\n        /* \"#utility.yul\":1867:1985   */\n    tag_108:\n        /* \"#utility.yul\":1954:1978   */\n      tag_165\n        /* \"#utility.yul\":1972:1977   */\n      dup2\n        /* \"#utility.yul\":1954:1978   */\n      tag_101\n      jump\t// in\n    tag_165:\n        /* \"#utility.yul\":1949:1952   */\n      dup3\n        /* \"#utility.yul\":1942:1979   */\n      mstore\n        /* \"#utility.yul\":1867:1985   */\n      pop\n      pop\n      jump\t// out\n        /* \"#utility.yul\":1991:2213   */\n    tag_22:\n        /* \"#utility.yul\":2084:2088   */\n      0x00\n        /* \"#utility.yul\":2122:2124   */\n      0x20\n        /* \"#utility.yul\":2111:2120   */\n      dup3\n        /* \"#utility.yul\":2107:2125   */\n      add\n        /* \"#utility.yul\":2099:2125   */\n      swap1\n      pop\n        /* \"#utility.yul\":2135:2206   */\n      tag_167\n        /* \"#utility.yul\":2203:2204   */\n      0x00\n        /* \"#utility.yul\":2192:2201   */\n      dup4\n        /* \"#utility.yul\":2188:2205   */\n      add\n        /* \"#utility.yul\":2179:2185   */\n      dup5\n        /* \"#utility.yul\":2135:2206   */\n      tag_108\n      jump\t// in\n    tag_167:\n        /* \"#utility.yul\":1991:2213   */\n      swap3\n      swap2\n      pop\n      pop\n      jump\t// out\n        /* \"#utility.yul\":2219:2309   */\n    tag_109:\n        /* \"#utility.yul\":2253:2260   */\n      0x00\n        /* \"#utility.yul\":2296:2301   */\n      dup2\n        /* \"#utility.yul\":2289:2302   */\n      iszero\n        /* \"#utility.yul\":2282:2303   */\n      iszero\n        /* \"#utility.yul\":2271:2303   */\n      swap1\n      pop\n        /* \"#utility.yul\":2219:2309   */\n      swap2\n      swap1\n      pop\n      jump\t// out\n        /* \"#utility.yul\":2315:2424   */\n    tag_110:\n        /* \"#utility.yul\":2396:2417   */\n      tag_170\n        /* \"#utility.yul\":2411:2416   */\n      dup2\n        /* \"#utility.yul\":2396:2417   */\n      tag_109\n      jump\t// in\n    tag_170:\n        /* \"#utility.yul\":2391:2394   */\n      dup3\n        /* \"#utility.yul\":2384:2418   */\n      mstore\n        /* \"#utility.yul\":2315:2424   */\n      pop\n      pop\n      jump\t// out\n        /* \"#utility.yul\":2430:2640   */\n    tag_27:\n        /* \"#utility.yul\":2517:2521   */\n      0x00\n        /* \"#utility.yul\":2555:2557   */\n      0x20\n        /* \"#utility.yul\":2544:2553   */\n      dup3\n        /* \"#utility.yul\":2540:2558   */\n      add\n        /* \"#utility.yul\":2532:2558   */\n      swap1\n      pop\n        /* \"#utility.yul\":2568:2633   */\n      tag_172\n        /* \"#utility.yul\":2630:2631   */\n      0x00\n        /* \"#utility.yul\":2619:2628   */\n      dup4\n        /* \"#utility.yul\":2615:2632   */\n      add\n        /* \"#utility.yul\":2606:2612   */\n      dup5\n        /* \"#utility.yul\":2568:2633   */\n      tag_110\n      jump\t// in\n    tag_172:\n        /* \"#utility.yul\":2430:2640   */\n      swap3\n      swap2\n      pop\n      pop\n      jump\t// out\n        /* \"#utility.yul\":2646:3265   */\n    tag_34:\n        /* \"#utility.yul\":2723:2729   */\n      0x00\n        /* \"#utility.yul\":2731:2737   */\n      dup1\n        /* \"#utility.yul\":2739:2745   */\n      0x00\n        /* \"#utility.yul\":2788:2790   */\n      0x60\n        /* \"#utility.yul\":2776:2785   */\n      dup5\n        /* \"#utility.yul\":2767:2774   */\n      dup7\n        /* \"#utility.yul\":2763:2786   */\n      sub\n        /* \"#utility.yul\":2759:2791   */\n      slt\n        /* \"#utility.yul\":2756:2875   */\n      iszero\n      tag_174\n      jumpi\n        /* \"#utility.yul\":2794:2873   */\n      tag_175\n      tag_99\n      jump\t// in\n    tag_175:\n        /* \"#utility.yul\":2756:2875   */\n    tag_174:\n        /* \"#utility.yul\":2914:2915   */\n      0x00\n        /* \"#utility.yul\":2939:2992   */\n      tag_176\n        /* \"#utility.yul\":2984:2991   */\n      dup7\n        /* \"#utility.yul\":2975:2981   */\n      dup3\n        /* \"#utility.yul\":2964:2973   */\n      dup8\n        /* \"#utility.yul\":2960:2982   */\n      add\n        /* \"#utility.yul\":2939:2992   */\n      tag_103\n      jump\t// in\n    tag_176:\n        /* \"#utility.yul\":2929:2992   */\n      swap4\n      pop\n        /* \"#utility.yul\":2885:3002   */\n      pop\n        /* \"#utility.yul\":3041:3043   */\n      0x20\n        /* \"#utility.yul\":3067:3120   */\n      tag_177\n        /* \"#utility.yul\":3112:3119   */\n      dup7\n        /* \"#utility.yul\":3103:3109   */\n      dup3\n        /* \"#utility.yul\":3092:3101   */\n      dup8\n        /* \"#utility.yul\":3088:3110   */\n      add\n        /* \"#utility.yul\":3067:3120   */\n      tag_107\n      jump\t// in\n    tag_177:\n        /* \"#utility.yul\":3057:3120   */\n      swap3\n      pop\n        /* \"#utility.yul\":3012:3130   */\n      pop\n        /* \"#utility.yul\":3169:3171   */\n      0x40\n        /* \"#utility.yul\":3195:3248   */\n      tag_178\n        /* \"#utility.yul\":3240:3247   */\n      dup7\n        /* \"#utility.yul\":3231:3237   */\n      dup3\n        /* \"#utility.yul\":3220:3229   */\n      dup8\n        /* \"#utility.yul\":3216:3238   */\n      add\n        /* \"#utility.yul\":3195:3248   */\n      tag_103\n      jump\t// in\n    tag_178:\n        /* \"#utility.yul\":3185:3248   */\n      swap2\n      pop\n        /* \"#utility.yul\":3140:3258   */\n      pop\n        /* \"#utility.yul\":2646:3265   */\n      swap3\n      pop\n      swap3\n      pop\n      swap3\n      jump\t// out\n        /* \"#utility.yul\":3271:3440   */\n    tag_111:\n        /* \"#utility.yul\":3355:3366   */\n      0x00\n        /* \"#utility.yul\":3389:3395   */\n      dup3\n        /* \"#utility.yul\":3384:3387   */\n      dup3\n        /* \"#utility.yul\":3377:3396   */\n      mstore\n        /* \"#utility.yul\":3429:3433   */\n      0x20\n        /* \"#utility.yul\":3424:3427   */\n      dup3\n        /* \"#utility.yul\":3420:3434   */\n      add\n        /* \"#utility.yul\":3405:3434   */\n      swap1\n      pop\n        /* \"#utility.yul\":3271:3440   */\n      swap3\n      swap2\n      pop\n      pop\n      jump\t// out\n        /* \"#utility.yul\":3446:3618   */\n    tag_112:\n        /* \"#utility.yul\":3586:3610   */\n      0x616d6f756e742063616e206e6f74206265207a65726f00000000000000000000\n        /* \"#utility.yul\":3582:3583   */\n      0x00\n        /* \"#utility.yul\":3574:3580   */\n      dup3\n        /* \"#utility.yul\":3570:3584   */\n      add\n        /* \"#utility.yul\":3563:3611   */\n      mstore\n        /* \"#utility.yul\":3446:3618   */\n      pop\n      jump\t// out\n        /* \"#utility.yul\":3624:3990   */\n    tag_113:\n        /* \"#utility.yul\":3766:3769   */\n      0x00\n        /* \"#utility.yul\":3787:3854   */\n      tag_182\n        /* \"#utility.yul\":3851:3853   */\n      0x16\n        /* \"#utility.yul\":3846:3849   */\n      dup4\n        /* \"#utility.yul\":3787:3854   */\n      tag_111\n      jump\t// in\n    tag_182:\n        /* \"#utility.yul\":3780:3854   */\n      swap2\n      pop\n        /* \"#utility.yul\":3863:3956   */\n      tag_183\n        /* \"#utility.yul\":3952:3955   */\n      dup3\n        /* \"#utility.yul\":3863:3956   */\n      tag_112\n      jump\t// in\n    tag_183:\n        /* \"#utility.yul\":3981:3983   */\n      0x20\n        /* \"#utility.yul\":3976:3979   */\n      dup3\n        /* \"#utility.yul\":3972:3984   */\n      add\n        /* \"#utility.yul\":3965:3984   */\n      swap1\n      pop\n        /* \"#utility.yul\":3624:3990   */\n      swap2\n      swap1\n      pop\n      jump\t// out\n        /* \"#utility.yul\":3996:4415   */\n    tag_48:\n        /* \"#utility.yul\":4162:4166   */\n      0x00\n        /* \"#utility.yul\":4200:4202   */\n      0x20\n        /* \"#utility.yul\":4189:4198   */\n      dup3\n        /* \"#utility.yul\":4185:4203   */\n      add\n        /* \"#utility.yul\":4177:4203   */\n      swap1\n      pop\n        /* \"#utility.yul\":4249:4258   */\n      dup2\n        /* \"#utility.yul\":4243:4247   */\n      dup2\n        /* \"#utility.yul\":4239:4259   */\n      sub\n        /* \"#utility.yul\":4235:4236   */\n      0x00\n        /* \"#utility.yul\":4224:4233   */\n      dup4\n        /* \"#utility.yul\":4220:4237   */\n      add\n        /* \"#utility.yul\":4213:4260   */\n      mstore\n        /* \"#utility.yul\":4277:4408   */\n      tag_185\n        /* \"#utility.yul\":4403:4407   */\n      dup2\n        /* \"#utility.yul\":4277:4408   */\n      tag_113\n      jump\t// in\n    tag_185:\n        /* \"#utility.yul\":4269:4408   */\n      swap1\n      pop\n        /* \"#utility.yul\":3996:4415   */\n      swap2\n      swap1\n      pop\n      jump\t// out\n        /* \"#utility.yul\":4421:4506   */\n    tag_114:\n        /* \"#utility.yul\":4466:4473   */\n      0x00\n        /* \"#utility.yul\":4495:4500   */\n      dup2\n        /* \"#utility.yul\":4484:4500   */\n      swap1\n      pop\n        /* \"#utility.yul\":4421:4506   */\n      swap2\n      swap1\n      pop\n      jump\t// out\n        /* \"#utility.yul\":4512:4598   */\n    tag_115:\n        /* \"#utility.yul\":4547:4554   */\n      0x00\n        /* \"#utility.yul\":4587:4591   */\n      0xff\n        /* \"#utility.yul\":4580:4585   */\n      dup3\n        /* \"#utility.yul\":4576:4592   */\n      and\n        /* \"#utility.yul\":4565:4592   */\n      swap1\n      pop\n        /* \"#utility.yul\":4512:4598   */\n      swap2\n      swap1\n      pop\n      jump\t// out\n        /* \"#utility.yul\":4604:4664   */\n    tag_116:\n        /* \"#utility.yul\":4632:4635   */\n      0x00\n        /* \"#utility.yul\":4653:4658   */\n      dup2\n        /* \"#utility.yul\":4646:4658   */\n      swap1\n      pop\n        /* \"#utility.yul\":4604:4664   */\n      swap2\n      swap1\n      pop\n      jump\t// out\n        /* \"#utility.yul\":4670:4824   */\n    tag_117:\n        /* \"#utility.yul\":4726:4735   */\n      0x00\n        /* \"#utility.yul\":4759:4818   */\n      tag_190\n        /* \"#utility.yul\":4775:4817   */\n      tag_191\n        /* \"#utility.yul\":4784:4816   */\n      tag_192\n        /* \"#utility.yul\":4810:4815   */\n      dup5\n        /* \"#utility.yul\":4784:4816   */\n      tag_114\n      jump\t// in\n    tag_192:\n        /* \"#utility.yul\":4775:4817   */\n      tag_116\n      jump\t// in\n    tag_191:\n        /* \"#utility.yul\":4759:4818   */\n      tag_115\n      jump\t// in\n    tag_190:\n        /* \"#utility.yul\":4746:4818   */\n      swap1\n      pop\n        /* \"#utility.yul\":4670:4824   */\n      swap2\n      swap1\n      pop\n      jump\t// out\n        /* \"#utility.yul\":4830:4973   */\n    tag_118:\n        /* \"#utility.yul\":4923:4966   */\n      tag_194\n        /* \"#utility.yul\":4960:4965   */\n      dup2\n        /* \"#utility.yul\":4923:4966   */\n      tag_117\n      jump\t// in\n    tag_194:\n        /* \"#utility.yul\":4918:4921   */\n      dup3\n        /* \"#utility.yul\":4911:4967   */\n      mstore\n        /* \"#utility.yul\":4830:4973   */\n      pop\n      pop\n      jump\t// out\n        /* \"#utility.yul\":4979:5097   */\n    tag_119:\n        /* \"#utility.yul\":5066:5090   */\n      tag_196\n        /* \"#utility.yul\":5084:5089   */\n      dup2\n        /* \"#utility.yul\":5066:5090   */\n      tag_105\n      jump\t// in\n    tag_196:\n        /* \"#utility.yul\":5061:5064   */\n      dup3\n        /* \"#utility.yul\":5054:5091   */\n      mstore\n        /* \"#utility.yul\":4979:5097   */\n      pop\n      pop\n      jump\t// out\n        /* \"#utility.yul\":5103:5557   */\n    tag_50:\n        /* \"#utility.yul\":5258:5262   */\n      0x00\n        /* \"#utility.yul\":5296:5298   */\n      0x60\n        /* \"#utility.yul\":5285:5294   */\n      dup3\n        /* \"#utility.yul\":5281:5299   */\n      add\n        /* \"#utility.yul\":5273:5299   */\n      swap1\n      pop\n        /* \"#utility.yul\":5309:5386   */\n      tag_198\n        /* \"#utility.yul\":5383:5384   */\n      0x00\n        /* \"#utility.yul\":5372:5381   */\n      dup4\n        /* \"#utility.yul\":5368:5385   */\n      add\n        /* \"#utility.yul\":5359:5365   */\n      dup7\n        /* \"#utility.yul\":5309:5386   */\n      tag_118\n      jump\t// in\n    tag_198:\n        /* \"#utility.yul\":5396:5468   */\n      tag_199\n        /* \"#utility.yul\":5464:5466   */\n      0x20\n        /* \"#utility.yul\":5453:5462   */\n      dup4\n        /* \"#utility.yul\":5449:5467   */\n      add\n        /* \"#utility.yul\":5440:5446   */\n      dup6\n        /* \"#utility.yul\":5396:5468   */\n      tag_119\n      jump\t// in\n    tag_199:\n        /* \"#utility.yul\":5478:5550   */\n      tag_200\n        /* \"#utility.yul\":5546:5548   */\n      0x40\n        /* \"#utility.yul\":5535:5544   */\n      dup4\n        /* \"#utility.yul\":5531:5549   */\n      add\n        /* \"#utility.yul\":5522:5528   */\n      dup5\n        /* \"#utility.yul\":5478:5550   */\n      tag_108\n      jump\t// in\n    tag_200:\n        /* \"#utility.yul\":5103:5557   */\n      swap5\n      swap4\n      pop\n      pop\n      pop\n      pop\n      jump\t// out\n        /* \"#utility.yul\":5563:5661   */\n    tag_120:\n        /* \"#utility.yul\":5614:5620   */\n      0x00\n        /* \"#utility.yul\":5648:5653   */\n      dup2\n        /* \"#utility.yul\":5642:5654   */\n      mload\n        /* \"#utility.yul\":5632:5654   */\n      swap1\n      pop\n        /* \"#utility.yul\":5563:5661   */\n      swap2\n      swap1\n      pop\n      jump\t// out\n        /* \"#utility.yul\":5667:5814   */\n    tag_121:\n        /* \"#utility.yul\":5768:5779   */\n      0x00\n        /* \"#utility.yul\":5805:5808   */\n      dup2\n        /* \"#utility.yul\":5790:5808   */\n      swap1\n      pop\n        /* \"#utility.yul\":5667:5814   */\n      swap3\n      swap2\n      pop\n      pop\n      jump\t// out\n        /* \"#utility.yul\":5820:6066   */\n    tag_122:\n        /* \"#utility.yul\":5901:5902   */\n      0x00\n        /* \"#utility.yul\":5911:6024   */\n    tag_204:\n        /* \"#utility.yul\":5925:5931   */\n      dup4\n        /* \"#utility.yul\":5922:5923   */\n      dup2\n        /* \"#utility.yul\":5919:5932   */\n      lt\n        /* \"#utility.yul\":5911:6024   */\n      iszero\n      tag_206\n      jumpi\n        /* \"#utility.yul\":6010:6011   */\n      dup1\n        /* \"#utility.yul\":6005:6008   */\n      dup3\n        /* \"#utility.yul\":6001:6012   */\n      add\n        /* \"#utility.yul\":5995:6013   */\n      mload\n        /* \"#utility.yul\":5991:5992   */\n      dup2\n        /* \"#utility.yul\":5986:5989   */\n      dup5\n        /* \"#utility.yul\":5982:5993   */\n      add\n        /* \"#utility.yul\":5975:6014   */\n      mstore\n        /* \"#utility.yul\":5947:5949   */\n      0x20\n        /* \"#utility.yul\":5944:5945   */\n      dup2\n        /* \"#utility.yul\":5940:5950   */\n      add\n        /* \"#utility.yul\":5935:5950   */\n      swap1\n      pop\n        /* \"#utility.yul\":5911:6024   */\n      jump(tag_204)\n    tag_206:\n        /* \"#utility.yul\":6058:6059   */\n      0x00\n        /* \"#utility.yul\":6049:6055   */\n      dup5\n        /* \"#utility.yul\":6044:6047   */\n      dup5\n        /* \"#utility.yul\":6040:6056   */\n      add\n        /* \"#utility.yul\":6033:6060   */\n      mstore\n        /* \"#utility.yul\":5882:6066   */\n      pop\n        /* \"#utility.yul\":5820:6066   */\n      pop\n      pop\n      pop\n      jump\t// out\n        /* \"#utility.yul\":6072:6458   */\n    tag_123:\n        /* \"#utility.yul\":6176:6179   */\n      0x00\n        /* \"#utility.yul\":6204:6242   */\n      tag_208\n        /* \"#utility.yul\":6236:6241   */\n      dup3\n        /* \"#utility.yul\":6204:6242   */\n      tag_120\n      jump\t// in\n    tag_208:\n        /* \"#utility.yul\":6258:6346   */\n      tag_209\n        /* \"#utility.yul\":6339:6345   */\n      dup2\n        /* \"#utility.yul\":6334:6337   */\n      dup6\n        /* \"#utility.yul\":6258:6346   */\n      tag_121\n      jump\t// in\n    tag_209:\n        /* \"#utility.yul\":6251:6346   */\n      swap4\n      pop\n        /* \"#utility.yul\":6355:6420   */\n      tag_210\n        /* \"#utility.yul\":6413:6419   */\n      dup2\n        /* \"#utility.yul\":6408:6411   */\n      dup6\n        /* \"#utility.yul\":6401:6405   */\n      0x20\n        /* \"#utility.yul\":6394:6399   */\n      dup7\n        /* \"#utility.yul\":6390:6406   */\n      add\n        /* \"#utility.yul\":6355:6420   */\n      tag_122\n      jump\t// in\n    tag_210:\n        /* \"#utility.yul\":6445:6451   */\n      dup1\n        /* \"#utility.yul\":6440:6443   */\n      dup5\n        /* \"#utility.yul\":6436:6452   */\n      add\n        /* \"#utility.yul\":6429:6452   */\n      swap2\n      pop\n        /* \"#utility.yul\":6180:6458   */\n      pop\n        /* \"#utility.yul\":6072:6458   */\n      swap3\n      swap2\n      pop\n      pop\n      jump\t// out\n        /* \"#utility.yul\":6464:6735   */\n    tag_52:\n        /* \"#utility.yul\":6594:6597   */\n      0x00\n        /* \"#utility.yul\":6616:6709   */\n      tag_212\n        /* \"#utility.yul\":6705:6708   */\n      dup3\n        /* \"#utility.yul\":6696:6702   */\n      dup5\n        /* \"#utility.yul\":6616:6709   */\n      tag_123\n      jump\t// in\n    tag_212:\n        /* \"#utility.yul\":6609:6709   */\n      swap2\n      pop\n        /* \"#utility.yul\":6726:6729   */\n      dup2\n        /* \"#utility.yul\":6719:6729   */\n      swap1\n      pop\n        /* \"#utility.yul\":6464:6735   */\n      swap3\n      swap2\n      pop\n      pop\n      jump\t// out\n        /* \"#utility.yul\":6741:6916   */\n    tag_124:\n        /* \"#utility.yul\":6881:6908   */\n      0x56616c7565206973206c657373207468616e20616d6f756e7400000000000000\n        /* \"#utility.yul\":6877:6878   */\n      0x00\n        /* \"#utility.yul\":6869:6875   */\n      dup3\n        /* \"#utility.yul\":6865:6879   */\n      add\n        /* \"#utility.yul\":6858:6909   */\n      mstore\n        /* \"#utility.yul\":6741:6916   */\n      pop\n      jump\t// out\n        /* \"#utility.yul\":6922:7288   */\n    tag_125:\n        /* \"#utility.yul\":7064:7067   */\n      0x00\n        /* \"#utility.yul\":7085:7152   */\n      tag_215\n        /* \"#utility.yul\":7149:7151   */\n      0x19\n        /* \"#utility.yul\":7144:7147   */\n      dup4\n        /* \"#utility.yul\":7085:7152   */\n      tag_111\n      jump\t// in\n    tag_215:\n        /* \"#utility.yul\":7078:7152   */\n      swap2\n      pop\n        /* \"#utility.yul\":7161:7254   */\n      tag_216\n        /* \"#utility.yul\":7250:7253   */\n      dup3\n        /* \"#utility.yul\":7161:7254   */\n      tag_124\n      jump\t// in\n    tag_216:\n        /* \"#utility.yul\":7279:7281   */\n      0x20\n        /* \"#utility.yul\":7274:7277   */\n      dup3\n        /* \"#utility.yul\":7270:7282   */\n      add\n        /* \"#utility.yul\":7263:7282   */\n      swap1\n      pop\n        /* \"#utility.yul\":6922:7288   */\n      swap2\n      swap1\n      pop\n      jump\t// out\n        /* \"#utility.yul\":7294:7713   */\n    tag_61:\n        /* \"#utility.yul\":7460:7464   */\n      0x00\n        /* \"#utility.yul\":7498:7500   */\n      0x20\n        /* \"#utility.yul\":7487:7496   */\n      dup3\n        /* \"#utility.yul\":7483:7501   */\n      add\n        /* \"#utility.yul\":7475:7501   */\n      swap1\n      pop\n        /* \"#utility.yul\":7547:7556   */\n      dup2\n        /* \"#utility.yul\":7541:7545   */\n      dup2\n        /* \"#utility.yul\":7537:7557   */\n      sub\n        /* \"#utility.yul\":7533:7534   */\n      0x00\n        /* \"#utility.yul\":7522:7531   */\n      dup4\n        /* \"#utility.yul\":7518:7535   */\n      add\n        /* \"#utility.yul\":7511:7558   */\n      mstore\n        /* \"#utility.yul\":7575:7706   */\n      tag_218\n        /* \"#utility.yul\":7701:7705   */\n      dup2\n        /* \"#utility.yul\":7575:7706   */\n      tag_125\n      jump\t// in\n    tag_218:\n        /* \"#utility.yul\":7567:7706   */\n      swap1\n      pop\n        /* \"#utility.yul\":7294:7713   */\n      swap2\n      swap1\n      pop\n      jump\t// out\n        /* \"#utility.yul\":7719:7804   */\n    tag_126:\n        /* \"#utility.yul\":7764:7771   */\n      0x00\n        /* \"#utility.yul\":7793:7798   */\n      dup2\n        /* \"#utility.yul\":7782:7798   */\n      swap1\n      pop\n        /* \"#utility.yul\":7719:7804   */\n      swap2\n      swap1\n      pop\n      jump\t// out\n        /* \"#utility.yul\":7810:7964   */\n    tag_127:\n        /* \"#utility.yul\":7866:7875   */\n      0x00\n        /* \"#utility.yul\":7899:7958   */\n      tag_221\n        /* \"#utility.yul\":7915:7957   */\n      tag_222\n        /* \"#utility.yul\":7924:7956   */\n      tag_223\n        /* \"#utility.yul\":7950:7955   */\n      dup5\n        /* \"#utility.yul\":7924:7956   */\n      tag_126\n      jump\t// in\n    tag_223:\n        /* \"#utility.yul\":7915:7957   */\n      tag_116\n      jump\t// in\n    tag_222:\n        /* \"#utility.yul\":7899:7958   */\n      tag_115\n      jump\t// in\n    tag_221:\n        /* \"#utility.yul\":7886:7958   */\n      swap1\n      pop\n        /* \"#utility.yul\":7810:7964   */\n      swap2\n      swap1\n      pop\n      jump\t// out\n        /* \"#utility.yul\":7970:8113   */\n    tag_128:\n        /* \"#utility.yul\":8063:8106   */\n      tag_225\n        /* \"#utility.yul\":8100:8105   */\n      dup2\n        /* \"#utility.yul\":8063:8106   */\n      tag_127\n      jump\t// in\n    tag_225:\n        /* \"#utility.yul\":8058:8061   */\n      dup3\n        /* \"#utility.yul\":8051:8107   */\n      mstore\n        /* \"#utility.yul\":7970:8113   */\n      pop\n      pop\n      jump\t// out\n        /* \"#utility.yul\":8119:8573   */\n    tag_63:\n        /* \"#utility.yul\":8274:8278   */\n      0x00\n        /* \"#utility.yul\":8312:8314   */\n      0x60\n        /* \"#utility.yul\":8301:8310   */\n      dup3\n        /* \"#utility.yul\":8297:8315   */\n      add\n        /* \"#utility.yul\":8289:8315   */\n      swap1\n      pop\n        /* \"#utility.yul\":8325:8402   */\n      tag_227\n        /* \"#utility.yul\":8399:8400   */\n      0x00\n        /* \"#utility.yul\":8388:8397   */\n      dup4\n        /* \"#utility.yul\":8384:8401   */\n      add\n        /* \"#utility.yul\":8375:8381   */\n      dup7\n        /* \"#utility.yul\":8325:8402   */\n      tag_128\n      jump\t// in\n    tag_227:\n        /* \"#utility.yul\":8412:8484   */\n      tag_228\n        /* \"#utility.yul\":8480:8482   */\n      0x20\n        /* \"#utility.yul\":8469:8478   */\n      dup4\n        /* \"#utility.yul\":8465:8483   */\n      add\n        /* \"#utility.yul\":8456:8462   */\n      dup6\n        /* \"#utility.yul\":8412:8484   */\n      tag_119\n      jump\t// in\n    tag_228:\n        /* \"#utility.yul\":8494:8566   */\n      tag_229\n        /* \"#utility.yul\":8562:8564   */\n      0x40\n        /* \"#utility.yul\":8551:8560   */\n      dup4\n        /* \"#utility.yul\":8547:8565   */\n      add\n        /* \"#utility.yul\":8538:8544   */\n      dup5\n        /* \"#utility.yul\":8494:8566   */\n      tag_108\n      jump\t// in\n    tag_229:\n        /* \"#utility.yul\":8119:8573   */\n      swap5\n      swap4\n      pop\n      pop\n      pop\n      pop\n      jump\t// out\n        /* \"#utility.yul\":8579:8799   */\n    tag_129:\n        /* \"#utility.yul\":8719:8753   */\n      0x536f7272792c20796f7572206372656469742069732072756e6e696e67206c6f\n        /* \"#utility.yul\":8715:8716   */\n      0x00\n        /* \"#utility.yul\":8707:8713   */\n      dup3\n        /* \"#utility.yul\":8703:8717   */\n      add\n        /* \"#utility.yul\":8696:8754   */\n      mstore\n        /* \"#utility.yul\":8788:8791   */\n      0x7700000000000000000000000000000000000000000000000000000000000000\n        /* \"#utility.yul\":8783:8785   */\n      0x20\n        /* \"#utility.yul\":8775:8781   */\n      dup3\n        /* \"#utility.yul\":8771:8786   */\n      add\n        /* \"#utility.yul\":8764:8792   */\n      mstore\n        /* \"#utility.yul\":8579:8799   */\n      pop\n      jump\t// out\n        /* \"#utility.yul\":8805:9171   */\n    tag_130:\n        /* \"#utility.yul\":8947:8950   */\n      0x00\n        /* \"#utility.yul\":8968:9035   */\n      tag_232\n        /* \"#utility.yul\":9032:9034   */\n      0x21\n        /* \"#utility.yul\":9027:9030   */\n      dup4\n        /* \"#utility.yul\":8968:9035   */\n      tag_111\n      jump\t// in\n    tag_232:\n        /* \"#utility.yul\":8961:9035   */\n      swap2\n      pop\n        /* \"#utility.yul\":9044:9137   */\n      tag_233\n        /* \"#utility.yul\":9133:9136   */\n      dup3\n        /* \"#utility.yul\":9044:9137   */\n      tag_129\n      jump\t// in\n    tag_233:\n        /* \"#utility.yul\":9162:9164   */\n      0x40\n        /* \"#utility.yul\":9157:9160   */\n      dup3\n        /* \"#utility.yul\":9153:9165   */\n      add\n        /* \"#utility.yul\":9146:9165   */\n      swap1\n      pop\n        /* \"#utility.yul\":8805:9171   */\n      swap2\n      swap1\n      pop\n      jump\t// out\n        /* \"#utility.yul\":9177:9596   */\n    tag_74:\n        /* \"#utility.yul\":9343:9347   */\n      0x00\n        /* \"#utility.yul\":9381:9383   */\n      0x20\n        /* \"#utility.yul\":9370:9379   */\n      dup3\n        /* \"#utility.yul\":9366:9384   */\n      add\n        /* \"#utility.yul\":9358:9384   */\n      swap1\n      pop\n        /* \"#utility.yul\":9430:9439   */\n      dup2\n        /* \"#utility.yul\":9424:9428   */\n      dup2\n        /* \"#utility.yul\":9420:9440   */\n      sub\n        /* \"#utility.yul\":9416:9417   */\n      0x00\n        /* \"#utility.yul\":9405:9414   */\n      dup4\n        /* \"#utility.yul\":9401:9418   */\n      add\n        /* \"#utility.yul\":9394:9441   */\n      mstore\n        /* \"#utility.yul\":9458:9589   */\n      tag_235\n        /* \"#utility.yul\":9584:9588   */\n      dup2\n        /* \"#utility.yul\":9458:9589   */\n      tag_130\n      jump\t// in\n    tag_235:\n        /* \"#utility.yul\":9450:9589   */\n      swap1\n      pop\n        /* \"#utility.yul\":9177:9596   */\n      swap2\n      swap1\n      pop\n      jump\t// out\n        /* \"#utility.yul\":9602:9782   */\n    tag_131:\n        /* \"#utility.yul\":9650:9727   */\n      0x4e487b7100000000000000000000000000000000000000000000000000000000\n        /* \"#utility.yul\":9647:9648   */\n      0x00\n        /* \"#utility.yul\":9640:9728   */\n      mstore\n        /* \"#utility.yul\":9747:9751   */\n      0x11\n        /* \"#utility.yul\":9744:9745   */\n      0x04\n        /* \"#utility.yul\":9737:9752   */\n      mstore\n        /* \"#utility.yul\":9771:9775   */\n      0x24\n        /* \"#utility.yul\":9768:9769   */\n      0x00\n        /* \"#utility.yul\":9761:9776   */\n      revert\n        /* \"#utility.yul\":9788:9982   */\n    tag_76:\n        /* \"#utility.yul\":9828:9832   */\n      0x00\n        /* \"#utility.yul\":9848:9868   */\n      tag_238\n        /* \"#utility.yul\":9866:9867   */\n      dup3\n        /* \"#utility.yul\":9848:9868   */\n      tag_101\n      jump\t// in\n    tag_238:\n        /* \"#utility.yul\":9843:9868   */\n      swap2\n      pop\n        /* \"#utility.yul\":9882:9902   */\n      tag_239\n        /* \"#utility.yul\":9900:9901   */\n      dup4\n        /* \"#utility.yul\":9882:9902   */\n      tag_101\n      jump\t// in\n    tag_239:\n        /* \"#utility.yul\":9877:9902   */\n      swap3\n      pop\n        /* \"#utility.yul\":9926:9927   */\n      dup3\n        /* \"#utility.yul\":9923:9924   */\n      dup3\n        /* \"#utility.yul\":9919:9928   */\n      sub\n        /* \"#utility.yul\":9911:9928   */\n      swap1\n      pop\n        /* \"#utility.yul\":9950:9951   */\n      dup2\n        /* \"#utility.yul\":9944:9948   */\n      dup2\n        /* \"#utility.yul\":9941:9952   */\n      gt\n        /* \"#utility.yul\":9938:9975   */\n      iszero\n      tag_240\n      jumpi\n        /* \"#utility.yul\":9955:9973   */\n      tag_241\n      tag_131\n      jump\t// in\n    tag_241:\n        /* \"#utility.yul\":9938:9975   */\n    tag_240:\n        /* \"#utility.yul\":9788:9982   */\n      swap3\n      swap2\n      pop\n      pop\n      jump\t// out\n        /* \"#utility.yul\":9988:10179   */\n    tag_80:\n        /* \"#utility.yul\":10028:10031   */\n      0x00\n        /* \"#utility.yul\":10047:10067   */\n      tag_243\n        /* \"#utility.yul\":10065:10066   */\n      dup3\n        /* \"#utility.yul\":10047:10067   */\n      tag_101\n      jump\t// in\n    tag_243:\n        /* \"#utility.yul\":10042:10067   */\n      swap2\n      pop\n        /* \"#utility.yul\":10081:10101   */\n      tag_244\n        /* \"#utility.yul\":10099:10100   */\n      dup4\n        /* \"#utility.yul\":10081:10101   */\n      tag_101\n      jump\t// in\n    tag_244:\n        /* \"#utility.yul\":10076:10101   */\n      swap3\n      pop\n        /* \"#utility.yul\":10124:10125   */\n      dup3\n        /* \"#utility.yul\":10121:10122   */\n      dup3\n        /* \"#utility.yul\":10117:10126   */\n      add\n        /* \"#utility.yul\":10110:10126   */\n      swap1\n      pop\n        /* \"#utility.yul\":10145:10148   */\n      dup1\n        /* \"#utility.yul\":10142:10143   */\n      dup3\n        /* \"#utility.yul\":10139:10149   */\n      gt\n        /* \"#utility.yul\":10136:10172   */\n      iszero\n      tag_245\n      jumpi\n        /* \"#utility.yul\":10152:10170   */\n      tag_246\n      tag_131\n      jump\t// in\n    tag_246:\n        /* \"#utility.yul\":10136:10172   */\n    tag_245:\n        /* \"#utility.yul\":9988:10179   */\n      swap3\n      swap2\n      pop\n      pop\n      jump\t// out\n        /* \"#utility.yul\":10185:10350   */\n    tag_132:\n        /* \"#utility.yul\":10325:10342   */\n      0x506172616d65746572206572726f720000000000000000000000000000000000\n        /* \"#utility.yul\":10321:10322   */\n      0x00\n        /* \"#utility.yul\":10313:10319   */\n      dup3\n        /* \"#utility.yul\":10309:10323   */\n      add\n        /* \"#utility.yul\":10302:10343   */\n      mstore\n        /* \"#utility.yul\":10185:10350   */\n      pop\n      jump\t// out\n        /* \"#utility.yul\":10356:10722   */\n    tag_133:\n        /* \"#utility.yul\":10498:10501   */\n      0x00\n        /* \"#utility.yul\":10519:10586   */\n      tag_249\n        /* \"#utility.yul\":10583:10585   */\n      0x0f\n        /* \"#utility.yul\":10578:10581   */\n      dup4\n        /* \"#utility.yul\":10519:10586   */\n      tag_111\n      jump\t// in\n    tag_249:\n        /* \"#utility.yul\":10512:10586   */\n      swap2\n      pop\n        /* \"#utility.yul\":10595:10688   */\n      tag_250\n        /* \"#utility.yul\":10684:10687   */\n      dup3\n        /* \"#utility.yul\":10595:10688   */\n      tag_132\n      jump\t// in\n    tag_250:\n        /* \"#utility.yul\":10713:10715   */\n      0x20\n        /* \"#utility.yul\":10708:10711   */\n      dup3\n        /* \"#utility.yul\":10704:10716   */\n      add\n        /* \"#utility.yul\":10697:10716   */\n      swap1\n      pop\n        /* \"#utility.yul\":10356:10722   */\n      swap2\n      swap1\n      pop\n      jump\t// out\n        /* \"#utility.yul\":10728:11147   */\n    tag_84:\n        /* \"#utility.yul\":10894:10898   */\n      0x00\n        /* \"#utility.yul\":10932:10934   */\n      0x20\n        /* \"#utility.yul\":10921:10930   */\n      dup3\n        /* \"#utility.yul\":10917:10935   */\n      add\n        /* \"#utility.yul\":10909:10935   */\n      swap1\n      pop\n        /* \"#utility.yul\":10981:10990   */\n      dup2\n        /* \"#utility.yul\":10975:10979   */\n      dup2\n        /* \"#utility.yul\":10971:10991   */\n      sub\n        /* \"#utility.yul\":10967:10968   */\n      0x00\n        /* \"#utility.yul\":10956:10965   */\n      dup4\n        /* \"#utility.yul\":10952:10969   */\n      add\n        /* \"#utility.yul\":10945:10992   */\n      mstore\n        /* \"#utility.yul\":11009:11140   */\n      tag_252\n        /* \"#utility.yul\":11135:11139   */\n      dup2\n        /* \"#utility.yul\":11009:11140   */\n      tag_133\n      jump\t// in\n    tag_252:\n        /* \"#utility.yul\":11001:11140   */\n      swap1\n      pop\n        /* \"#utility.yul\":10728:11147   */\n      swap2\n      swap1\n      pop\n      jump\t// out\n        /* \"#utility.yul\":11153:11326   */\n    tag_134:\n        /* \"#utility.yul\":11293:11318   */\n      0x73686f756c6420696e6974207769746820313020776569000000000000000000\n        /* \"#utility.yul\":11289:11290   */\n      0x00\n        /* \"#utility.yul\":11281:11287   */\n      dup3\n        /* \"#utility.yul\":11277:11291   */\n      add\n        /* \"#utility.yul\":11270:11319   */\n      mstore\n        /* \"#utility.yul\":11153:11326   */\n      pop\n      jump\t// out\n        /* \"#utility.yul\":11332:11698   */\n    tag_135:\n        /* \"#utility.yul\":11474:11477   */\n      0x00\n        /* \"#utility.yul\":11495:11562   */\n      tag_255\n        /* \"#utility.yul\":11559:11561   */\n      0x17\n        /* \"#utility.yul\":11554:11557   */\n      dup4\n        /* \"#utility.yul\":11495:11562   */\n      tag_111\n      jump\t// in\n    tag_255:\n        /* \"#utility.yul\":11488:11562   */\n      swap2\n      pop\n        /* \"#utility.yul\":11571:11664   */\n      tag_256\n        /* \"#utility.yul\":11660:11663   */\n      dup3\n        /* \"#utility.yul\":11571:11664   */\n      tag_134\n      jump\t// in\n    tag_256:\n        /* \"#utility.yul\":11689:11691   */\n      0x20\n        /* \"#utility.yul\":11684:11687   */\n      dup3\n        /* \"#utility.yul\":11680:11692   */\n      add\n        /* \"#utility.yul\":11673:11692   */\n      swap1\n      pop\n        /* \"#utility.yul\":11332:11698   */\n      swap2\n      swap1\n      pop\n      jump\t// out\n        /* \"#utility.yul\":11704:12123   */\n    tag_89:\n        /* \"#utility.yul\":11870:11874   */\n      0x00\n        /* \"#utility.yul\":11908:11910   */\n      0x20\n        /* \"#utility.yul\":11897:11906   */\n      dup3\n        /* \"#utility.yul\":11893:11911   */\n      add\n        /* \"#utility.yul\":11885:11911   */\n      swap1\n      pop\n        /* \"#utility.yul\":11957:11966   */\n      dup2\n        /* \"#utility.yul\":11951:11955   */\n      dup2\n        /* \"#utility.yul\":11947:11967   */\n      sub\n        /* \"#utility.yul\":11943:11944   */\n      0x00\n        /* \"#utility.yul\":11932:11941   */\n      dup4\n        /* \"#utility.yul\":11928:11945   */\n      add\n        /* \"#utility.yul\":11921:11968   */\n      mstore\n        /* \"#utility.yul\":11985:12116   */\n      tag_258\n        /* \"#utility.yul\":12111:12115   */\n      dup2\n        /* \"#utility.yul\":11985:12116   */\n      tag_135\n      jump\t// in\n    tag_258:\n        /* \"#utility.yul\":11977:12116   */\n      swap1\n      pop\n        /* \"#utility.yul\":11704:12123   */\n      swap2\n      swap1\n      pop\n      jump\t// out\n        /* \"#utility.yul\":12129:12307   */\n    tag_136:\n        /* \"#utility.yul\":12269:12299   */\n      0x596f752063616e277420646f20697420776974686f757420696e697400000000\n        /* \"#utility.yul\":12265:12266   */\n      0x00\n        /* \"#utility.yul\":12257:12263   */\n      dup3\n        /* \"#utility.yul\":12253:12267   */\n      add\n        /* \"#utility.yul\":12246:12300   */\n      mstore\n        /* \"#utility.yul\":12129:12307   */\n      pop\n      jump\t// out\n        /* \"#utility.yul\":12313:12679   */\n    tag_137:\n        /* \"#utility.yul\":12455:12458   */\n      0x00\n        /* \"#utility.yul\":12476:12543   */\n      tag_261\n        /* \"#utility.yul\":12540:12542   */\n      0x1c\n        /* \"#utility.yul\":12535:12538   */\n      dup4\n        /* \"#utility.yul\":12476:12543   */\n      tag_111\n      jump\t// in\n    tag_261:\n        /* \"#utility.yul\":12469:12543   */\n      swap2\n      pop\n        /* \"#utility.yul\":12552:12645   */\n      tag_262\n        /* \"#utility.yul\":12641:12644   */\n      dup3\n        /* \"#utility.yul\":12552:12645   */\n      tag_136\n      jump\t// in\n    tag_262:\n        /* \"#utility.yul\":12670:12672   */\n      0x20\n        /* \"#utility.yul\":12665:12668   */\n      dup3\n        /* \"#utility.yul\":12661:12673   */\n      add\n        /* \"#utility.yul\":12654:12673   */\n      swap1\n      pop\n        /* \"#utility.yul\":12313:12679   */\n      swap2\n      swap1\n      pop\n      jump\t// out\n        /* \"#utility.yul\":12685:13104   */\n    tag_93:\n        /* \"#utility.yul\":12851:12855   */\n      0x00\n        /* \"#utility.yul\":12889:12891   */\n      0x20\n        /* \"#utility.yul\":12878:12887   */\n      dup3\n        /* \"#utility.yul\":12874:12892   */\n      add\n        /* \"#utility.yul\":12866:12892   */\n      swap1\n      pop\n        /* \"#utility.yul\":12938:12947   */\n      dup2\n        /* \"#utility.yul\":12932:12936   */\n      dup2\n        /* \"#utility.yul\":12928:12948   */\n      sub\n        /* \"#utility.yul\":12924:12925   */\n      0x00\n        /* \"#utility.yul\":12913:12922   */\n      dup4\n        /* \"#utility.yul\":12909:12926   */\n      add\n        /* \"#utility.yul\":12902:12949   */\n      mstore\n        /* \"#utility.yul\":12966:13097   */\n      tag_264\n        /* \"#utility.yul\":13092:13096   */\n      dup2\n        /* \"#utility.yul\":12966:13097   */\n      tag_137\n      jump\t// in\n    tag_264:\n        /* \"#utility.yul\":12958:13097   */\n      swap1\n      pop\n        /* \"#utility.yul\":12685:13104   */\n      swap2\n      swap1\n      pop\n      jump\t// out\n\n    auxdata: 0xa26469706673582212200724239650da80b80f733b7f793a5e29d9ce962596d96914f20eddacf2bf762864736f6c63430008170033\n}\n",
				"bytecode": {
					"linkReferences": {},
					"object": "608060405234801561000f575f80fd5b50610e168061001d5f395ff3fe60806040526004361061007a575f3560e01c8063d0abec2f1161004d578063d0abec2f14610128578063efedc66914610150578063f8ef10851461017a578063fa391c64146101845761007a565b80632e1a7d4d1461007e57806370a08231146100a6578063b145a5b8146100e2578063b6b55f251461010c575b5f80fd5b348015610089575f80fd5b506100a4600480360381019061009f91906107ca565b61019a565b005b3480156100b1575f80fd5b506100cc60048036038101906100c7919061084f565b61031f565b6040516100d99190610889565b60405180910390f35b3480156100ed575f80fd5b506100f6610334565b60405161010391906108bc565b60405180910390f35b610126600480360381019061012191906107ca565b610346565b005b348015610133575f80fd5b5061014e600480360381019061014991906108d5565b610489565b005b34801561015b575f80fd5b50610164610648565b6040516101719190610889565b60405180910390f35b61018261064d565b005b34801561018f575f80fd5b506101986106bf565b005b5f81116101dc576040517f08c379a00000000000000000000000000000000000000000000000000000000081526004016101d39061097f565b60405180910390fd5b5f8033836040516024016101f2939291906109fa565b6040516020818303038152906040527fd0abec2f000000000000000000000000000000000000000000000000000000007bffffffffffffffffffffffffffffffffffffffffffffffffffffffff19166020820180517bffffffffffffffffffffffffffffffffffffffffffffffffffffffff838183161783525050505090503073ffffffffffffffffffffffffffffffffffffffff16816040516102969190610a9b565b5f604051808303815f865af19150503d805f81146102cf576040519150601f19603f3d011682016040523d82523d5f602084013e6102d4565b606091505b5050503373ffffffffffffffffffffffffffffffffffffffff166108fc8390811502906040515f60405180830381858888f1935050505015801561031a573d5f803e3d5ffd5b505050565b6002602052805f5260405f205f915090505481565b60015f9054906101000a900460ff1681565b80341015610389576040517f08c379a000000000000000000000000000000000000000000000000000000000815260040161038090610afb565b60405180910390fd5b5f600133836040516024016103a093929190610b52565b6040516020818303038152906040527fd0abec2f000000000000000000000000000000000000000000000000000000007bffffffffffffffffffffffffffffffffffffffffffffffffffffffff19166020820180517bffffffffffffffffffffffffffffffffffffffffffffffffffffffff838183161783525050505090503073ffffffffffffffffffffffffffffffffffffffff16816040516104449190610a9b565b5f604051808303815f865af19150503d805f811461047d576040519150601f19603f3d011682016040523d82523d5f602084013e610482565b606091505b5050505050565b3073ffffffffffffffffffffffffffffffffffffffff163373ffffffffffffffffffffffffffffffffffffffff16146104c0575f80fd5b5f830361059e578060025f8473ffffffffffffffffffffffffffffffffffffffff1673ffffffffffffffffffffffffffffffffffffffff1681526020019081526020015f205411610546576040517f08c379a000000000000000000000000000000000000000000000000000000000815260040161053d90610bf7565b60405180910390fd5b8060025f8473ffffffffffffffffffffffffffffffffffffffff1673ffffffffffffffffffffffffffffffffffffffff1681526020019081526020015f205f8282546105929190610c42565b92505081905550610643565b600183036105fe578060025f8473ffffffffffffffffffffffffffffffffffffffff1673ffffffffffffffffffffffffffffffffffffffff1681526020019081526020015f205f8282546105f29190610c75565b92505081905550610642565b60015f14610641576040517f08c379a000000000000000000000000000000000000000000000000000000000815260040161063890610cf2565b60405180910390fd5b5b5b505050565b5f5481565b60015f9054906101000a900460ff166106bd57600a47146106a3576040517f08c379a000000000000000000000000000000000000000000000000000000000815260040161069a90610d5a565b60405180910390fd5b6001805f6101000a81548160ff0219169083151502179055505b565b60015f9054906101000a900460ff1661070d576040517f08c379a000000000000000000000000000000000000000000000000000000000815260040161070490610dc2565b60405180910390fd5b5f80819055505f60025f3373ffffffffffffffffffffffffffffffffffffffff1673ffffffffffffffffffffffffffffffffffffffff1681526020019081526020015f205411156107715760195f808282546107699190610c75565b925050819055505b5f470361079157604b5f808282546107899190610c75565b925050819055505b565b5f80fd5b5f819050919050565b6107a981610797565b81146107b3575f80fd5b50565b5f813590506107c4816107a0565b92915050565b5f602082840312156107df576107de610793565b5b5f6107ec848285016107b6565b91505092915050565b5f73ffffffffffffffffffffffffffffffffffffffff82169050919050565b5f61081e826107f5565b9050919050565b61082e81610814565b8114610838575f80fd5b50565b5f8135905061084981610825565b92915050565b5f6020828403121561086457610863610793565b5b5f6108718482850161083b565b91505092915050565b61088381610797565b82525050565b5f60208201905061089c5f83018461087a565b92915050565b5f8115159050919050565b6108b6816108a2565b82525050565b5f6020820190506108cf5f8301846108ad565b92915050565b5f805f606084860312156108ec576108eb610793565b5b5f6108f9868287016107b6565b935050602061090a8682870161083b565b925050604061091b868287016107b6565b9150509250925092565b5f82825260208201905092915050565b7f616d6f756e742063616e206e6f74206265207a65726f000000000000000000005f82015250565b5f610969601683610925565b915061097482610935565b602082019050919050565b5f6020820190508181035f8301526109968161095d565b9050919050565b5f819050919050565b5f60ff82169050919050565b5f819050919050565b5f6109d56109d06109cb8461099d565b6109b2565b6109a6565b9050919050565b6109e5816109bb565b82525050565b6109f481610814565b82525050565b5f606082019050610a0d5f8301866109dc565b610a1a60208301856109eb565b610a27604083018461087a565b949350505050565b5f81519050919050565b5f81905092915050565b5f5b83811015610a60578082015181840152602081019050610a45565b5f8484015250505050565b5f610a7582610a2f565b610a7f8185610a39565b9350610a8f818560208601610a43565b80840191505092915050565b5f610aa68284610a6b565b915081905092915050565b7f56616c7565206973206c657373207468616e20616d6f756e74000000000000005f82015250565b5f610ae5601983610925565b9150610af082610ab1565b602082019050919050565b5f6020820190508181035f830152610b1281610ad9565b9050919050565b5f819050919050565b5f610b3c610b37610b3284610b19565b6109b2565b6109a6565b9050919050565b610b4c81610b22565b82525050565b5f606082019050610b655f830186610b43565b610b7260208301856109eb565b610b7f604083018461087a565b949350505050565b7f536f7272792c20796f7572206372656469742069732072756e6e696e67206c6f5f8201527f7700000000000000000000000000000000000000000000000000000000000000602082015250565b5f610be1602183610925565b9150610bec82610b87565b604082019050919050565b5f6020820190508181035f830152610c0e81610bd5565b9050919050565b7f4e487b71000000000000000000000000000000000000000000000000000000005f52601160045260245ffd5b5f610c4c82610797565b9150610c5783610797565b9250828203905081811115610c6f57610c6e610c15565b5b92915050565b5f610c7f82610797565b9150610c8a83610797565b9250828201905080821115610ca257610ca1610c15565b5b92915050565b7f506172616d65746572206572726f7200000000000000000000000000000000005f82015250565b5f610cdc600f83610925565b9150610ce782610ca8565b602082019050919050565b5f6020820190508181035f830152610d0981610cd0565b9050919050565b7f73686f756c6420696e69742077697468203130207765690000000000000000005f82015250565b5f610d44601783610925565b9150610d4f82610d10565b602082019050919050565b5f6020820190508181035f830152610d7181610d38565b9050919050565b7f596f752063616e277420646f20697420776974686f757420696e6974000000005f82015250565b5f610dac601c83610925565b9150610db782610d78565b602082019050919050565b5f6020820190508181035f830152610dd981610da0565b905091905056fea26469706673582212200724239650da80b80f733b7f793a5e29d9ce962596d96914f20eddacf2bf762864736f6c63430008170033",
					"opcodes": "PUSH1 0x80 PUSH1 0x40 MSTORE CALLVALUE DUP1 ISZERO PUSH2 0xF JUMPI PUSH0 DUP1 REVERT JUMPDEST POP PUSH2 0xE16 DUP1 PUSH2 0x1D PUSH0 CODECOPY PUSH0 RETURN INVALID PUSH1 0x80 PUSH1 0x40 MSTORE PUSH1 0x4 CALLDATASIZE LT PUSH2 0x7A JUMPI PUSH0 CALLDATALOAD PUSH1 0xE0 SHR DUP1 PUSH4 0xD0ABEC2F GT PUSH2 0x4D JUMPI DUP1 PUSH4 0xD0ABEC2F EQ PUSH2 0x128 JUMPI DUP1 PUSH4 0xEFEDC669 EQ PUSH2 0x150 JUMPI DUP1 PUSH4 0xF8EF1085 EQ PUSH2 0x17A JUMPI DUP1 PUSH4 0xFA391C64 EQ PUSH2 0x184 JUMPI PUSH2 0x7A JUMP JUMPDEST DUP1 PUSH4 0x2E1A7D4D EQ PUSH2 0x7E JUMPI DUP1 PUSH4 0x70A08231 EQ PUSH2 0xA6 JUMPI DUP1 PUSH4 0xB145A5B8 EQ PUSH2 0xE2 JUMPI DUP1 PUSH4 0xB6B55F25 EQ PUSH2 0x10C JUMPI JUMPDEST PUSH0 DUP1 REVERT JUMPDEST CALLVALUE DUP1 ISZERO PUSH2 0x89 JUMPI PUSH0 DUP1 REVERT JUMPDEST POP PUSH2 0xA4 PUSH1 0x4 DUP1 CALLDATASIZE SUB DUP2 ADD SWAP1 PUSH2 0x9F SWAP2 SWAP1 PUSH2 0x7CA JUMP JUMPDEST PUSH2 0x19A JUMP JUMPDEST STOP JUMPDEST CALLVALUE DUP1 ISZERO PUSH2 0xB1 JUMPI PUSH0 DUP1 REVERT JUMPDEST POP PUSH2 0xCC PUSH1 0x4 DUP1 CALLDATASIZE SUB DUP2 ADD SWAP1 PUSH2 0xC7 SWAP2 SWAP1 PUSH2 0x84F JUMP JUMPDEST PUSH2 0x31F JUMP JUMPDEST PUSH1 0x40 MLOAD PUSH2 0xD9 SWAP2 SWAP1 PUSH2 0x889 JUMP JUMPDEST PUSH1 0x40 MLOAD DUP1 SWAP2 SUB SWAP1 RETURN JUMPDEST CALLVALUE DUP1 ISZERO PUSH2 0xED JUMPI PUSH0 DUP1 REVERT JUMPDEST POP PUSH2 0xF6 PUSH2 0x334 JUMP JUMPDEST PUSH1 0x40 MLOAD PUSH2 0x103 SWAP2 SWAP1 PUSH2 0x8BC JUMP JUMPDEST PUSH1 0x40 MLOAD DUP1 SWAP2 SUB SWAP1 RETURN JUMPDEST PUSH2 0x126 PUSH1 0x4 DUP1 CALLDATASIZE SUB DUP2 ADD SWAP1 PUSH2 0x121 SWAP2 SWAP1 PUSH2 0x7CA JUMP JUMPDEST PUSH2 0x346 JUMP JUMPDEST STOP JUMPDEST CALLVALUE DUP1 ISZERO PUSH2 0x133 JUMPI PUSH0 DUP1 REVERT JUMPDEST POP PUSH2 0x14E PUSH1 0x4 DUP1 CALLDATASIZE SUB DUP2 ADD SWAP1 PUSH2 0x149 SWAP2 SWAP1 PUSH2 0x8D5 JUMP JUMPDEST PUSH2 0x489 JUMP JUMPDEST STOP JUMPDEST CALLVALUE DUP1 ISZERO PUSH2 0x15B JUMPI PUSH0 DUP1 REVERT JUMPDEST POP PUSH2 0x164 PUSH2 0x648 JUMP JUMPDEST PUSH1 0x40 MLOAD PUSH2 0x171 SWAP2 SWAP1 PUSH2 0x889 JUMP JUMPDEST PUSH1 0x40 MLOAD DUP1 SWAP2 SUB SWAP1 RETURN JUMPDEST PUSH2 0x182 PUSH2 0x64D JUMP JUMPDEST STOP JUMPDEST CALLVALUE DUP1 ISZERO PUSH2 0x18F JUMPI PUSH0 DUP1 REVERT JUMPDEST POP PUSH2 0x198 PUSH2 0x6BF JUMP JUMPDEST STOP JUMPDEST PUSH0 DUP2 GT PUSH2 0x1DC JUMPI PUSH1 0x40 MLOAD PUSH32 0x8C379A000000000000000000000000000000000000000000000000000000000 DUP2 MSTORE PUSH1 0x4 ADD PUSH2 0x1D3 SWAP1 PUSH2 0x97F JUMP JUMPDEST PUSH1 0x40 MLOAD DUP1 SWAP2 SUB SWAP1 REVERT JUMPDEST PUSH0 DUP1 CALLER DUP4 PUSH1 0x40 MLOAD PUSH1 0x24 ADD PUSH2 0x1F2 SWAP4 SWAP3 SWAP2 SWAP1 PUSH2 0x9FA JUMP JUMPDEST PUSH1 0x40 MLOAD PUSH1 0x20 DUP2 DUP4 SUB SUB DUP2 MSTORE SWAP1 PUSH1 0x40 MSTORE PUSH32 0xD0ABEC2F00000000000000000000000000000000000000000000000000000000 PUSH28 0xFFFFFFFFFFFFFFFFFFFFFFFFFFFFFFFFFFFFFFFFFFFFFFFFFFFFFFFF NOT AND PUSH1 0x20 DUP3 ADD DUP1 MLOAD PUSH28 0xFFFFFFFFFFFFFFFFFFFFFFFFFFFFFFFFFFFFFFFFFFFFFFFFFFFFFFFF DUP4 DUP2 DUP4 AND OR DUP4 MSTORE POP POP POP POP SWAP1 POP ADDRESS PUSH20 0xFFFFFFFFFFFFFFFFFFFFFFFFFFFFFFFFFFFFFFFF AND DUP2 PUSH1 0x40 MLOAD PUSH2 0x296 SWAP2 SWAP1 PUSH2 0xA9B JUMP JUMPDEST PUSH0 PUSH1 0x40 MLOAD DUP1 DUP4 SUB DUP2 PUSH0 DUP7 GAS CALL SWAP2 POP POP RETURNDATASIZE DUP1 PUSH0 DUP2 EQ PUSH2 0x2CF JUMPI PUSH1 0x40 MLOAD SWAP2 POP PUSH1 0x1F NOT PUSH1 0x3F RETURNDATASIZE ADD AND DUP3 ADD PUSH1 0x40 MSTORE RETURNDATASIZE DUP3 MSTORE RETURNDATASIZE PUSH0 PUSH1 0x20 DUP5 ADD RETURNDATACOPY PUSH2 0x2D4 JUMP JUMPDEST PUSH1 0x60 SWAP2 POP JUMPDEST POP POP POP CALLER PUSH20 0xFFFFFFFFFFFFFFFFFFFFFFFFFFFFFFFFFFFFFFFF AND PUSH2 0x8FC DUP4 SWAP1 DUP2 ISZERO MUL SWAP1 PUSH1 0x40 MLOAD PUSH0 PUSH1 0x40 MLOAD DUP1 DUP4 SUB DUP2 DUP6 DUP9 DUP9 CALL SWAP4 POP POP POP POP ISZERO DUP1 ISZERO PUSH2 0x31A JUMPI RETURNDATASIZE PUSH0 DUP1 RETURNDATACOPY RETURNDATASIZE PUSH0 REVERT JUMPDEST POP POP POP JUMP JUMPDEST PUSH1 0x2 PUSH1 0x20 MSTORE DUP1 PUSH0 MSTORE PUSH1 0x40 PUSH0 KECCAK256 PUSH0 SWAP2 POP SWAP1 POP SLOAD DUP2 JUMP JUMPDEST PUSH1 0x1 PUSH0 SWAP1 SLOAD SWAP1 PUSH2 0x100 EXP SWAP1 DIV PUSH1 0xFF AND DUP2 JUMP JUMPDEST DUP1 CALLVALUE LT ISZERO PUSH2 0x389 JUMPI PUSH1 0x40 MLOAD PUSH32 0x8C379A000000000000000000000000000000000000000000000000000000000 DUP2 MSTORE PUSH1 0x4 ADD PUSH2 0x380 SWAP1 PUSH2 0xAFB JUMP JUMPDEST PUSH1 0x40 MLOAD DUP1 SWAP2 SUB SWAP1 REVERT JUMPDEST PUSH0 PUSH1 0x1 CALLER DUP4 PUSH1 0x40 MLOAD PUSH1 0x24 ADD PUSH2 0x3A0 SWAP4 SWAP3 SWAP2 SWAP1 PUSH2 0xB52 JUMP JUMPDEST PUSH1 0x40 MLOAD PUSH1 0x20 DUP2 DUP4 SUB SUB DUP2 MSTORE SWAP1 PUSH1 0x40 MSTORE PUSH32 0xD0ABEC2F00000000000000000000000000000000000000000000000000000000 PUSH28 0xFFFFFFFFFFFFFFFFFFFFFFFFFFFFFFFFFFFFFFFFFFFFFFFFFFFFFFFF NOT AND PUSH1 0x20 DUP3 ADD DUP1 MLOAD PUSH28 0xFFFFFFFFFFFFFFFFFFFFFFFFFFFFFFFFFFFFFFFFFFFFFFFFFFFFFFFF DUP4 DUP2 DUP4 AND OR DUP4 MSTORE POP POP POP POP SWAP1 POP ADDRESS PUSH20 0xFFFFFFFFFFFFFFFFFFFFFFFFFFFFFFFFFFFFFFFF AND DUP2 PUSH1 0x40 MLOAD PUSH2 0x444 SWAP2 SWAP1 PUSH2 0xA9B JUMP JUMPDEST PUSH0 PUSH1 0x40 MLOAD DUP1 DUP4 SUB DUP2 PUSH0 DUP7 GAS CALL SWAP2 POP POP RETURNDATASIZE DUP1 PUSH0 DUP2 EQ PUSH2 0x47D JUMPI PUSH1 0x40 MLOAD SWAP2 POP PUSH1 0x1F NOT PUSH1 0x3F RETURNDATASIZE ADD AND DUP3 ADD PUSH1 0x40 MSTORE RETURNDATASIZE DUP3 MSTORE RETURNDATASIZE PUSH0 PUSH1 0x20 DUP5 ADD RETURNDATACOPY PUSH2 0x482 JUMP JUMPDEST PUSH1 0x60 SWAP2 POP JUMPDEST POP POP POP POP POP JUMP JUMPDEST ADDRESS PUSH20 0xFFFFFFFFFFFFFFFFFFFFFFFFFFFFFFFFFFFFFFFF AND CALLER PUSH20 0xFFFFFFFFFFFFFFFFFFFFFFFFFFFFFFFFFFFFFFFF AND EQ PUSH2 0x4C0 JUMPI PUSH0 DUP1 REVERT JUMPDEST PUSH0 DUP4 SUB PUSH2 0x59E JUMPI DUP1 PUSH1 0x2 PUSH0 DUP5 PUSH20 0xFFFFFFFFFFFFFFFFFFFFFFFFFFFFFFFFFFFFFFFF AND PUSH20 0xFFFFFFFFFFFFFFFFFFFFFFFFFFFFFFFFFFFFFFFF AND DUP2 MSTORE PUSH1 0x20 ADD SWAP1 DUP2 MSTORE PUSH1 0x20 ADD PUSH0 KECCAK256 SLOAD GT PUSH2 0x546 JUMPI PUSH1 0x40 MLOAD PUSH32 0x8C379A000000000000000000000000000000000000000000000000000000000 DUP2 MSTORE PUSH1 0x4 ADD PUSH2 0x53D SWAP1 PUSH2 0xBF7 JUMP JUMPDEST PUSH1 0x40 MLOAD DUP1 SWAP2 SUB SWAP1 REVERT JUMPDEST DUP1 PUSH1 0x2 PUSH0 DUP5 PUSH20 0xFFFFFFFFFFFFFFFFFFFFFFFFFFFFFFFFFFFFFFFF AND PUSH20 0xFFFFFFFFFFFFFFFFFFFFFFFFFFFFFFFFFFFFFFFF AND DUP2 MSTORE PUSH1 0x20 ADD SWAP1 DUP2 MSTORE PUSH1 0x20 ADD PUSH0 KECCAK256 PUSH0 DUP3 DUP3 SLOAD PUSH2 0x592 SWAP2 SWAP1 PUSH2 0xC42 JUMP JUMPDEST SWAP3 POP POP DUP2 SWAP1 SSTORE POP PUSH2 0x643 JUMP JUMPDEST PUSH1 0x1 DUP4 SUB PUSH2 0x5FE JUMPI DUP1 PUSH1 0x2 PUSH0 DUP5 PUSH20 0xFFFFFFFFFFFFFFFFFFFFFFFFFFFFFFFFFFFFFFFF AND PUSH20 0xFFFFFFFFFFFFFFFFFFFFFFFFFFFFFFFFFFFFFFFF AND DUP2 MSTORE PUSH1 0x20 ADD SWAP1 DUP2 MSTORE PUSH1 0x20 ADD PUSH0 KECCAK256 PUSH0 DUP3 DUP3 SLOAD PUSH2 0x5F2 SWAP2 SWAP1 PUSH2 0xC75 JUMP JUMPDEST SWAP3 POP POP DUP2 SWAP1 SSTORE POP PUSH2 0x642 JUMP JUMPDEST PUSH1 0x1 PUSH0 EQ PUSH2 0x641 JUMPI PUSH1 0x40 MLOAD PUSH32 0x8C379A000000000000000000000000000000000000000000000000000000000 DUP2 MSTORE PUSH1 0x4 ADD PUSH2 0x638 SWAP1 PUSH2 0xCF2 JUMP JUMPDEST PUSH1 0x40 MLOAD DUP1 SWAP2 SUB SWAP1 REVERT JUMPDEST JUMPDEST JUMPDEST POP POP POP JUMP JUMPDEST PUSH0 SLOAD DUP2 JUMP JUMPDEST PUSH1 0x1 PUSH0 SWAP1 SLOAD SWAP1 PUSH2 0x100 EXP SWAP1 DIV PUSH1 0xFF AND PUSH2 0x6BD JUMPI PUSH1 0xA SELFBALANCE EQ PUSH2 0x6A3 JUMPI PUSH1 0x40 MLOAD PUSH32 0x8C379A000000000000000000000000000000000000000000000000000000000 DUP2 MSTORE PUSH1 0x4 ADD PUSH2 0x69A SWAP1 PUSH2 0xD5A JUMP JUMPDEST PUSH1 0x40 MLOAD DUP1 SWAP2 SUB SWAP1 REVERT JUMPDEST PUSH1 0x1 DUP1 PUSH0 PUSH2 0x100 EXP DUP2 SLOAD DUP2 PUSH1 0xFF MUL NOT AND SWAP1 DUP4 ISZERO ISZERO MUL OR SWAP1 SSTORE POP JUMPDEST JUMP JUMPDEST PUSH1 0x1 PUSH0 SWAP1 SLOAD SWAP1 PUSH2 0x100 EXP SWAP1 DIV PUSH1 0xFF AND PUSH2 0x70D JUMPI PUSH1 0x40 MLOAD PUSH32 0x8C379A000000000000000000000000000000000000000000000000000000000 DUP2 MSTORE PUSH1 0x4 ADD PUSH2 0x704 SWAP1 PUSH2 0xDC2 JUMP JUMPDEST PUSH1 0x40 MLOAD DUP1 SWAP2 SUB SWAP1 REVERT JUMPDEST PUSH0 DUP1 DUP2 SWAP1 SSTORE POP PUSH0 PUSH1 0x2 PUSH0 CALLER PUSH20 0xFFFFFFFFFFFFFFFFFFFFFFFFFFFFFFFFFFFFFFFF AND PUSH20 0xFFFFFFFFFFFFFFFFFFFFFFFFFFFFFFFFFFFFFFFF AND DUP2 MSTORE PUSH1 0x20 ADD SWAP1 DUP2 MSTORE PUSH1 0x20 ADD PUSH0 KECCAK256 SLOAD GT ISZERO PUSH2 0x771 JUMPI PUSH1 0x19 PUSH0 DUP1 DUP3 DUP3 SLOAD PUSH2 0x769 SWAP2 SWAP1 PUSH2 0xC75 JUMP JUMPDEST SWAP3 POP POP DUP2 SWAP1 SSTORE POP JUMPDEST PUSH0 SELFBALANCE SUB PUSH2 0x791 JUMPI PUSH1 0x4B PUSH0 DUP1 DUP3 DUP3 SLOAD PUSH2 0x789 SWAP2 SWAP1 PUSH2 0xC75 JUMP JUMPDEST SWAP3 POP POP DUP2 SWAP1 SSTORE POP JUMPDEST JUMP JUMPDEST PUSH0 DUP1 REVERT JUMPDEST PUSH0 DUP2 SWAP1 POP SWAP2 SWAP1 POP JUMP JUMPDEST PUSH2 0x7A9 DUP2 PUSH2 0x797 JUMP JUMPDEST DUP2 EQ PUSH2 0x7B3 JUMPI PUSH0 DUP1 REVERT JUMPDEST POP JUMP JUMPDEST PUSH0 DUP2 CALLDATALOAD SWAP1 POP PUSH2 0x7C4 DUP2 PUSH2 0x7A0 JUMP JUMPDEST SWAP3 SWAP2 POP POP JUMP JUMPDEST PUSH0 PUSH1 0x20 DUP3 DUP5 SUB SLT ISZERO PUSH2 0x7DF JUMPI PUSH2 0x7DE PUSH2 0x793 JUMP JUMPDEST JUMPDEST PUSH0 PUSH2 0x7EC DUP5 DUP3 DUP6 ADD PUSH2 0x7B6 JUMP JUMPDEST SWAP2 POP POP SWAP3 SWAP2 POP POP JUMP JUMPDEST PUSH0 PUSH20 0xFFFFFFFFFFFFFFFFFFFFFFFFFFFFFFFFFFFFFFFF DUP3 AND SWAP1 POP SWAP2 SWAP1 POP JUMP JUMPDEST PUSH0 PUSH2 0x81E DUP3 PUSH2 0x7F5 JUMP JUMPDEST SWAP1 POP SWAP2 SWAP1 POP JUMP JUMPDEST PUSH2 0x82E DUP2 PUSH2 0x814 JUMP JUMPDEST DUP2 EQ PUSH2 0x838 JUMPI PUSH0 DUP1 REVERT JUMPDEST POP JUMP JUMPDEST PUSH0 DUP2 CALLDATALOAD SWAP1 POP PUSH2 0x849 DUP2 PUSH2 0x825 JUMP JUMPDEST SWAP3 SWAP2 POP POP JUMP JUMPDEST PUSH0 PUSH1 0x20 DUP3 DUP5 SUB SLT ISZERO PUSH2 0x864 JUMPI PUSH2 0x863 PUSH2 0x793 JUMP JUMPDEST JUMPDEST PUSH0 PUSH2 0x871 DUP5 DUP3 DUP6 ADD PUSH2 0x83B JUMP JUMPDEST SWAP2 POP POP SWAP3 SWAP2 POP POP JUMP JUMPDEST PUSH2 0x883 DUP2 PUSH2 0x797 JUMP JUMPDEST DUP3 MSTORE POP POP JUMP JUMPDEST PUSH0 PUSH1 0x20 DUP3 ADD SWAP1 POP PUSH2 0x89C PUSH0 DUP4 ADD DUP5 PUSH2 0x87A JUMP JUMPDEST SWAP3 SWAP2 POP POP JUMP JUMPDEST PUSH0 DUP2 ISZERO ISZERO SWAP1 POP SWAP2 SWAP1 POP JUMP JUMPDEST PUSH2 0x8B6 DUP2 PUSH2 0x8A2 JUMP JUMPDEST DUP3 MSTORE POP POP JUMP JUMPDEST PUSH0 PUSH1 0x20 DUP3 ADD SWAP1 POP PUSH2 0x8CF PUSH0 DUP4 ADD DUP5 PUSH2 0x8AD JUMP JUMPDEST SWAP3 SWAP2 POP POP JUMP JUMPDEST PUSH0 DUP1 PUSH0 PUSH1 0x60 DUP5 DUP7 SUB SLT ISZERO PUSH2 0x8EC JUMPI PUSH2 0x8EB PUSH2 0x793 JUMP JUMPDEST JUMPDEST PUSH0 PUSH2 0x8F9 DUP7 DUP3 DUP8 ADD PUSH2 0x7B6 JUMP JUMPDEST SWAP4 POP POP PUSH1 0x20 PUSH2 0x90A DUP7 DUP3 DUP8 ADD PUSH2 0x83B JUMP JUMPDEST SWAP3 POP POP PUSH1 0x40 PUSH2 0x91B DUP7 DUP3 DUP8 ADD PUSH2 0x7B6 JUMP JUMPDEST SWAP2 POP POP SWAP3 POP SWAP3 POP SWAP3 JUMP JUMPDEST PUSH0 DUP3 DUP3 MSTORE PUSH1 0x20 DUP3 ADD SWAP1 POP SWAP3 SWAP2 POP POP JUMP JUMPDEST PUSH32 0x616D6F756E742063616E206E6F74206265207A65726F00000000000000000000 PUSH0 DUP3 ADD MSTORE POP JUMP JUMPDEST PUSH0 PUSH2 0x969 PUSH1 0x16 DUP4 PUSH2 0x925 JUMP JUMPDEST SWAP2 POP PUSH2 0x974 DUP3 PUSH2 0x935 JUMP JUMPDEST PUSH1 0x20 DUP3 ADD SWAP1 POP SWAP2 SWAP1 POP JUMP JUMPDEST PUSH0 PUSH1 0x20 DUP3 ADD SWAP1 POP DUP2 DUP2 SUB PUSH0 DUP4 ADD MSTORE PUSH2 0x996 DUP2 PUSH2 0x95D JUMP JUMPDEST SWAP1 POP SWAP2 SWAP1 POP JUMP JUMPDEST PUSH0 DUP2 SWAP1 POP SWAP2 SWAP1 POP JUMP JUMPDEST PUSH0 PUSH1 0xFF DUP3 AND SWAP1 POP SWAP2 SWAP1 POP JUMP JUMPDEST PUSH0 DUP2 SWAP1 POP SWAP2 SWAP1 POP JUMP JUMPDEST PUSH0 PUSH2 0x9D5 PUSH2 0x9D0 PUSH2 0x9CB DUP5 PUSH2 0x99D JUMP JUMPDEST PUSH2 0x9B2 JUMP JUMPDEST PUSH2 0x9A6 JUMP JUMPDEST SWAP1 POP SWAP2 SWAP1 POP JUMP JUMPDEST PUSH2 0x9E5 DUP2 PUSH2 0x9BB JUMP JUMPDEST DUP3 MSTORE POP POP JUMP JUMPDEST PUSH2 0x9F4 DUP2 PUSH2 0x814 JUMP JUMPDEST DUP3 MSTORE POP POP JUMP JUMPDEST PUSH0 PUSH1 0x60 DUP3 ADD SWAP1 POP PUSH2 0xA0D PUSH0 DUP4 ADD DUP7 PUSH2 0x9DC JUMP JUMPDEST PUSH2 0xA1A PUSH1 0x20 DUP4 ADD DUP6 PUSH2 0x9EB JUMP JUMPDEST PUSH2 0xA27 PUSH1 0x40 DUP4 ADD DUP5 PUSH2 0x87A JUMP JUMPDEST SWAP5 SWAP4 POP POP POP POP JUMP JUMPDEST PUSH0 DUP2 MLOAD SWAP1 POP SWAP2 SWAP1 POP JUMP JUMPDEST PUSH0 DUP2 SWAP1 POP SWAP3 SWAP2 POP POP JUMP JUMPDEST PUSH0 JUMPDEST DUP4 DUP2 LT ISZERO PUSH2 0xA60 JUMPI DUP1 DUP3 ADD MLOAD DUP2 DUP5 ADD MSTORE PUSH1 0x20 DUP2 ADD SWAP1 POP PUSH2 0xA45 JUMP JUMPDEST PUSH0 DUP5 DUP5 ADD MSTORE POP POP POP POP JUMP JUMPDEST PUSH0 PUSH2 0xA75 DUP3 PUSH2 0xA2F JUMP JUMPDEST PUSH2 0xA7F DUP2 DUP6 PUSH2 0xA39 JUMP JUMPDEST SWAP4 POP PUSH2 0xA8F DUP2 DUP6 PUSH1 0x20 DUP7 ADD PUSH2 0xA43 JUMP JUMPDEST DUP1 DUP5 ADD SWAP2 POP POP SWAP3 SWAP2 POP POP JUMP JUMPDEST PUSH0 PUSH2 0xAA6 DUP3 DUP5 PUSH2 0xA6B JUMP JUMPDEST SWAP2 POP DUP2 SWAP1 POP SWAP3 SWAP2 POP POP JUMP JUMPDEST PUSH32 0x56616C7565206973206C657373207468616E20616D6F756E7400000000000000 PUSH0 DUP3 ADD MSTORE POP JUMP JUMPDEST PUSH0 PUSH2 0xAE5 PUSH1 0x19 DUP4 PUSH2 0x925 JUMP JUMPDEST SWAP2 POP PUSH2 0xAF0 DUP3 PUSH2 0xAB1 JUMP JUMPDEST PUSH1 0x20 DUP3 ADD SWAP1 POP SWAP2 SWAP1 POP JUMP JUMPDEST PUSH0 PUSH1 0x20 DUP3 ADD SWAP1 POP DUP2 DUP2 SUB PUSH0 DUP4 ADD MSTORE PUSH2 0xB12 DUP2 PUSH2 0xAD9 JUMP JUMPDEST SWAP1 POP SWAP2 SWAP1 POP JUMP JUMPDEST PUSH0 DUP2 SWAP1 POP SWAP2 SWAP1 POP JUMP JUMPDEST PUSH0 PUSH2 0xB3C PUSH2 0xB37 PUSH2 0xB32 DUP5 PUSH2 0xB19 JUMP JUMPDEST PUSH2 0x9B2 JUMP JUMPDEST PUSH2 0x9A6 JUMP JUMPDEST SWAP1 POP SWAP2 SWAP1 POP JUMP JUMPDEST PUSH2 0xB4C DUP2 PUSH2 0xB22 JUMP JUMPDEST DUP3 MSTORE POP POP JUMP JUMPDEST PUSH0 PUSH1 0x60 DUP3 ADD SWAP1 POP PUSH2 0xB65 PUSH0 DUP4 ADD DUP7 PUSH2 0xB43 JUMP JUMPDEST PUSH2 0xB72 PUSH1 0x20 DUP4 ADD DUP6 PUSH2 0x9EB JUMP JUMPDEST PUSH2 0xB7F PUSH1 0x40 DUP4 ADD DUP5 PUSH2 0x87A JUMP JUMPDEST SWAP5 SWAP4 POP POP POP POP JUMP JUMPDEST PUSH32 0x536F7272792C20796F7572206372656469742069732072756E6E696E67206C6F PUSH0 DUP3 ADD MSTORE PUSH32 0x7700000000000000000000000000000000000000000000000000000000000000 PUSH1 0x20 DUP3 ADD MSTORE POP JUMP JUMPDEST PUSH0 PUSH2 0xBE1 PUSH1 0x21 DUP4 PUSH2 0x925 JUMP JUMPDEST SWAP2 POP PUSH2 0xBEC DUP3 PUSH2 0xB87 JUMP JUMPDEST PUSH1 0x40 DUP3 ADD SWAP1 POP SWAP2 SWAP1 POP JUMP JUMPDEST PUSH0 PUSH1 0x20 DUP3 ADD SWAP1 POP DUP2 DUP2 SUB PUSH0 DUP4 ADD MSTORE PUSH2 0xC0E DUP2 PUSH2 0xBD5 JUMP JUMPDEST SWAP1 POP SWAP2 SWAP1 POP JUMP JUMPDEST PUSH32 0x4E487B7100000000000000000000000000000000000000000000000000000000 PUSH0 MSTORE PUSH1 0x11 PUSH1 0x4 MSTORE PUSH1 0x24 PUSH0 REVERT JUMPDEST PUSH0 PUSH2 0xC4C DUP3 PUSH2 0x797 JUMP JUMPDEST SWAP2 POP PUSH2 0xC57 DUP4 PUSH2 0x797 JUMP JUMPDEST SWAP3 POP DUP3 DUP3 SUB SWAP1 POP DUP2 DUP2 GT ISZERO PUSH2 0xC6F JUMPI PUSH2 0xC6E PUSH2 0xC15 JUMP JUMPDEST JUMPDEST SWAP3 SWAP2 POP POP JUMP JUMPDEST PUSH0 PUSH2 0xC7F DUP3 PUSH2 0x797 JUMP JUMPDEST SWAP2 POP PUSH2 0xC8A DUP4 PUSH2 0x797 JUMP JUMPDEST SWAP3 POP DUP3 DUP3 ADD SWAP1 POP DUP1 DUP3 GT ISZERO PUSH2 0xCA2 JUMPI PUSH2 0xCA1 PUSH2 0xC15 JUMP JUMPDEST JUMPDEST SWAP3 SWAP2 POP POP JUMP JUMPDEST PUSH32 0x506172616D65746572206572726F720000000000000000000000000000000000 PUSH0 DUP3 ADD MSTORE POP JUMP JUMPDEST PUSH0 PUSH2 0xCDC PUSH1 0xF DUP4 PUSH2 0x925 JUMP JUMPDEST SWAP2 POP PUSH2 0xCE7 DUP3 PUSH2 0xCA8 JUMP JUMPDEST PUSH1 0x20 DUP3 ADD SWAP1 POP SWAP2 SWAP1 POP JUMP JUMPDEST PUSH0 PUSH1 0x20 DUP3 ADD SWAP1 POP DUP2 DUP2 SUB PUSH0 DUP4 ADD MSTORE PUSH2 0xD09 DUP2 PUSH2 0xCD0 JUMP JUMPDEST SWAP1 POP SWAP2 SWAP1 POP JUMP JUMPDEST PUSH32 0x73686F756C6420696E6974207769746820313020776569000000000000000000 PUSH0 DUP3 ADD MSTORE POP JUMP JUMPDEST PUSH0 PUSH2 0xD44 PUSH1 0x17 DUP4 PUSH2 0x925 JUMP JUMPDEST SWAP2 POP PUSH2 0xD4F DUP3 PUSH2 0xD10 JUMP JUMPDEST PUSH1 0x20 DUP3 ADD SWAP1 POP SWAP2 SWAP1 POP JUMP JUMPDEST PUSH0 PUSH1 0x20 DUP3 ADD SWAP1 POP DUP2 DUP2 SUB PUSH0 DUP4 ADD MSTORE PUSH2 0xD71 DUP2 PUSH2 0xD38 JUMP JUMPDEST SWAP1 POP SWAP2 SWAP1 POP JUMP JUMPDEST PUSH32 0x596F752063616E277420646F20697420776974686F757420696E697400000000 PUSH0 DUP3 ADD MSTORE POP JUMP JUMPDEST PUSH0 PUSH2 0xDAC PUSH1 0x1C DUP4 PUSH2 0x925 JUMP JUMPDEST SWAP2 POP PUSH2 0xDB7 DUP3 PUSH2 0xD78 JUMP JUMPDEST PUSH1 0x20 DUP3 ADD SWAP1 POP SWAP2 SWAP1 POP JUMP JUMPDEST PUSH0 PUSH1 0x20 DUP3 ADD SWAP1 POP DUP2 DUP2 SUB PUSH0 DUP4 ADD MSTORE PUSH2 0xDD9 DUP2 PUSH2 0xDA0 JUMP JUMPDEST SWAP1 POP SWAP2 SWAP1 POP JUMP INVALID LOG2 PUSH5 0x6970667358 0x22 SLT KECCAK256 SMOD 0x24 0x23 SWAP7 POP 0xDA DUP1 0xB8 0xF PUSH20 0x3B7F793A5E29D9CE962596D96914F20EDDACF2BF PUSH23 0x2864736F6C634300081700330000000000000000000000 "
				},
				"gasEstimates": {
					"creation": {
						"codeDepositCost": "721200",
						"executionCost": "751",
						"totalCost": "721951"
					},
					"external": {
						"balanceOf(address)": "2825",
						"deposit(uint256)": "infinite",
						"initWithValue()": "26606",
						"isCompleted()": "infinite",
						"isInit()": "2511",
						"reviseBalance(uint256,address,uint256)": "infinite",
						"score()": "2446",
						"withdraw(uint256)": "infinite"
					}
				},
				"methodIdentifiers": {
					"balanceOf(address)": "70a08231",
					"deposit(uint256)": "b6b55f25",
					"initWithValue()": "f8ef1085",
					"isCompleted()": "fa391c64",
					"isInit()": "b145a5b8",
					"reviseBalance(uint256,address,uint256)": "d0abec2f",
					"score()": "efedc669",
					"withdraw(uint256)": "2e1a7d4d"
				}
			},
			"storageLayout": {
				"storage": [
					{
						"astId": 3,
						"contract": "shoot/2/call调用返回值检查/1.sol:Bank",
						"label": "score",
						"offset": 0,
						"slot": "0",
						"type": "t_uint256"
					},
					{
						"astId": 5,
						"contract": "shoot/2/call调用返回值检查/1.sol:Bank",
						"label": "isInit",
						"offset": 0,
						"slot": "1",
						"type": "t_bool"
					},
					{
						"astId": 23,
						"contract": "shoot/2/call调用返回值检查/1.sol:Bank",
						"label": "balanceOf",
						"offset": 0,
						"slot": "2",
						"type": "t_mapping(t_address,t_uint256)"
					}
				],
				"types": {
					"t_address": {
						"encoding": "inplace",
						"label": "address",
						"numberOfBytes": "20"
					},
					"t_bool": {
						"encoding": "inplace",
						"label": "bool",
						"numberOfBytes": "1"
					},
					"t_mapping(t_address,t_uint256)": {
						"encoding": "mapping",
						"key": "t_address",
						"label": "mapping(address => uint256)",
						"numberOfBytes": "32",
						"value": "t_uint256"
					},
					"t_uint256": {
						"encoding": "inplace",
						"label": "uint256",
						"numberOfBytes": "32"
					}
				}
			},
			"userdoc": {
				"kind": "user",
				"methods": {},
				"version": 1
			}
		}
	}
}