{
	"shoot/3/数组长度溢出/1.sol": {
		"att": {
			"abi": [
				{
					"constant": true,
					"inputs": [
						{
							"name": "addr",
							"type": "address"
						}
					],
					"name": "getBalanceAddress",
					"outputs": [
						{
							"name": "",
							"type": "uint256"
						}
					],
					"payable": false,
					"stateMutability": "view",
					"type": "function"
				},
				{
					"constant": true,
					"inputs": [
						{
							"name": "a",
							"type": "bytes32"
						}
					],
					"name": "getuint256",
					"outputs": [
						{
							"name": "",
							"type": "uint256"
						}
					],
					"payable": false,
					"stateMutability": "view",
					"type": "function"
				},
				{
					"constant": true,
					"inputs": [
						{
							"name": "addr",
							"type": "address"
						}
					],
					"name": "getUserAddress",
					"outputs": [
						{
							"name": "",
							"type": "uint256"
						}
					],
					"payable": false,
					"stateMutability": "view",
					"type": "function"
				},
				{
					"constant": false,
					"inputs": [],
					"name": "attract",
					"outputs": [],
					"payable": false,
					"stateMutability": "nonpayable",
					"type": "function"
				},
				{
					"constant": true,
					"inputs": [
						{
							"name": "addr",
							"type": "address"
						}
					],
					"name": "getUserSolt",
					"outputs": [
						{
							"name": "",
							"type": "bytes32"
						}
					],
					"payable": false,
					"stateMutability": "view",
					"type": "function"
				},
				{
					"constant": true,
					"inputs": [
						{
							"name": "addr",
							"type": "address"
						}
					],
					"name": "getUserArrSolt",
					"outputs": [
						{
							"name": "",
							"type": "bytes32"
						}
					],
					"payable": false,
					"stateMutability": "view",
					"type": "function"
				},
				{
					"constant": true,
					"inputs": [
						{
							"name": "addr",
							"type": "address"
						}
					],
					"name": "getBalanceSolt",
					"outputs": [
						{
							"name": "",
							"type": "bytes32"
						}
					],
					"payable": false,
					"stateMutability": "view",
					"type": "function"
				},
				{
					"constant": true,
					"inputs": [
						{
							"name": "addr",
							"type": "address"
						}
					],
					"name": "getBalacneIndes",
					"outputs": [
						{
							"name": "",
							"type": "uint256"
						}
					],
					"payable": false,
					"stateMutability": "view",
					"type": "function"
				},
				{
					"constant": true,
					"inputs": [
						{
							"name": "addr",
							"type": "address"
						}
					],
					"name": "getUserIndex",
					"outputs": [
						{
							"name": "",
							"type": "uint256"
						}
					],
					"payable": false,
					"stateMutability": "view",
					"type": "function"
				},
				{
					"inputs": [
						{
							"name": "addr",
							"type": "address"
						}
					],
					"payable": false,
					"stateMutability": "nonpayable",
					"type": "constructor"
				},
				{
					"payable": true,
					"stateMutability": "payable",
					"type": "fallback"
				}
			],
			"devdoc": {
				"methods": {}
			},
			"evm": {
				"assembly": "    /* \"shoot/3/数组长度溢出/1.sol\":3187:4957  contract att{\r... */\n  mstore(0x40, 0x80)\n    /* \"shoot/3/数组长度溢出/1.sol\":3263:3351  constructor(check addr) public {\r... */\n  callvalue\n    /* \"--CODEGEN--\":8:17   */\n  dup1\n    /* \"--CODEGEN--\":5:7   */\n  iszero\n  tag_1\n  jumpi\n    /* \"--CODEGEN--\":30:31   */\n  0x0\n    /* \"--CODEGEN--\":27:28   */\n  dup1\n    /* \"--CODEGEN--\":20:32   */\n  revert\n    /* \"--CODEGEN--\":5:7   */\ntag_1:\n    /* \"shoot/3/数组长度溢出/1.sol\":3263:3351  constructor(check addr) public {\r... */\n  pop\n  mload(0x40)\n  0x20\n  dup1\n  bytecodeSize\n  dup4\n  codecopy\n  dup2\n  add\n  dup1\n  0x40\n  mstore\n  dup2\n  add\n  swap1\n  dup1\n  dup1\n  mload\n  swap1\n  0x20\n  add\n  swap1\n  swap3\n  swap2\n  swap1\n  pop\n  pop\n  pop\n    /* \"shoot/3/数组长度溢出/1.sol\":3311:3315  addr */\n  dup1\n    /* \"shoot/3/数组长度溢出/1.sol\":3305:3308  che */\n  0x0\n  dup1\n    /* \"shoot/3/数组长度溢出/1.sol\":3305:3315  che = addr */\n  0x100\n  exp\n  dup2\n  sload\n  dup2\n  0xffffffffffffffffffffffffffffffffffffffff\n  mul\n  not\n  and\n  swap1\n  dup4\n  0xffffffffffffffffffffffffffffffffffffffff\n  and\n  mul\n  or\n  swap1\n  sstore\n  pop\n    /* \"shoot/3/数组长度溢出/1.sol\":3333:3336  che */\n  0x0\n  dup1\n  swap1\n  sload\n  swap1\n  0x100\n  exp\n  swap1\n  div\n  0xffffffffffffffffffffffffffffffffffffffff\n  and\n    /* \"shoot/3/数组长度溢出/1.sol\":3333:3341  che.info */\n  0xffffffffffffffffffffffffffffffffffffffff\n  and\n  0x370158ea\n    /* \"shoot/3/数组长度溢出/1.sol\":3333:3343  che.info() */\n  mload(0x40)\n  dup2\n  0xffffffff\n  and\n  0x100000000000000000000000000000000000000000000000000000000\n  mul\n  dup2\n  mstore\n  0x4\n  add\n  0x20\n  mload(0x40)\n  dup1\n  dup4\n  sub\n  dup2\n  0x0\n  dup8\n  dup1\n  extcodesize\n  iszero\n    /* \"--CODEGEN--\":8:17   */\n  dup1\n    /* \"--CODEGEN--\":5:7   */\n  iszero\n  tag_4\n  jumpi\n    /* \"--CODEGEN--\":30:31   */\n  0x0\n    /* \"--CODEGEN--\":27:28   */\n  dup1\n    /* \"--CODEGEN--\":20:32   */\n  revert\n    /* \"--CODEGEN--\":5:7   */\ntag_4:\n    /* \"shoot/3/数组长度溢出/1.sol\":3333:3343  che.info() */\n  pop\n  gas\n  call\n  iszero\n    /* \"--CODEGEN--\":8:17   */\n  dup1\n    /* \"--CODEGEN--\":5:7   */\n  iszero\n  tag_5\n  jumpi\n    /* \"--CODEGEN--\":45:61   */\n  returndatasize\n    /* \"--CODEGEN--\":42:43   */\n  0x0\n    /* \"--CODEGEN--\":39:40   */\n  dup1\n    /* \"--CODEGEN--\":24:62   */\n  returndatacopy\n    /* \"--CODEGEN--\":77:93   */\n  returndatasize\n    /* \"--CODEGEN--\":74:75   */\n  0x0\n    /* \"--CODEGEN--\":67:94   */\n  revert\n    /* \"--CODEGEN--\":5:7   */\ntag_5:\n    /* \"shoot/3/数组长度溢出/1.sol\":3333:3343  che.info() */\n  pop\n  pop\n  pop\n  pop\n  mload(0x40)\n  returndatasize\n    /* \"--CODEGEN--\":13:15   */\n  0x20\n    /* \"--CODEGEN--\":8:11   */\n  dup2\n    /* \"--CODEGEN--\":5:16   */\n  lt\n    /* \"--CODEGEN--\":2:4   */\n  iszero\n  tag_6\n  jumpi\n    /* \"--CODEGEN--\":29:30   */\n  0x0\n    /* \"--CODEGEN--\":26:27   */\n  dup1\n    /* \"--CODEGEN--\":19:31   */\n  revert\n    /* \"--CODEGEN--\":2:4   */\ntag_6:\n    /* \"shoot/3/数组长度溢出/1.sol\":3333:3343  che.info() */\n  dup2\n  add\n  swap1\n  dup1\n  dup1\n  mload\n  swap1\n  0x20\n  add\n  swap1\n  swap3\n  swap2\n  swap1\n  pop\n  pop\n  pop\n    /* \"shoot/3/数组长度溢出/1.sol\":3326:3330  info */\n  0x1\n  0x0\n    /* \"shoot/3/数组长度溢出/1.sol\":3326:3343  info = che.info() */\n  0x100\n  exp\n  dup2\n  sload\n  dup2\n  0xffffffffffffffffffffffffffffffffffffffff\n  mul\n  not\n  and\n  swap1\n  dup4\n  0xffffffffffffffffffffffffffffffffffffffff\n  and\n  mul\n  or\n  swap1\n  sstore\n  pop\n    /* \"shoot/3/数组长度溢出/1.sol\":3263:3351  constructor(check addr) public {\r... */\n  pop\n    /* \"shoot/3/数组长度溢出/1.sol\":3187:4957  contract att{\r... */\n  dataSize(sub_0)\n  dup1\n  dataOffset(sub_0)\n  0x0\n  codecopy\n  0x0\n  return\nstop\n\nsub_0: assembly {\n        /* \"shoot/3/数组长度溢出/1.sol\":3187:4957  contract att{\r... */\n      mstore(0x40, 0x80)\n      jumpi(tag_1, lt(calldatasize, 0x4))\n      calldataload(0x0)\n      0x100000000000000000000000000000000000000000000000000000000\n      swap1\n      div\n      0xffffffff\n      and\n      dup1\n      0x14205234\n      eq\n      tag_2\n      jumpi\n      dup1\n      0x29788bcc\n      eq\n      tag_3\n      jumpi\n      dup1\n      0x4d6849d2\n      eq\n      tag_4\n      jumpi\n      dup1\n      0x50f35753\n      eq\n      tag_5\n      jumpi\n      dup1\n      0x6dd5fdf1\n      eq\n      tag_6\n      jumpi\n      dup1\n      0xa94fe3f4\n      eq\n      tag_7\n      jumpi\n      dup1\n      0xca606429\n      eq\n      tag_8\n      jumpi\n      dup1\n      0xd947f735\n      eq\n      tag_9\n      jumpi\n      dup1\n      0xee9907a4\n      eq\n      tag_10\n      jumpi\n    tag_1:\n        /* \"shoot/3/数组长度溢出/1.sol\":3406:3407  2 */\n      0x2\n        /* \"shoot/3/数组长度溢出/1.sol\":3400:3405  times */\n      dup1\n      sload\n        /* \"shoot/3/数组长度溢出/1.sol\":3400:3407  times<2 */\n      lt\n        /* \"shoot/3/数组长度溢出/1.sol\":3397:3475  if(times<2){\r... */\n      iszero\n      tag_13\n      jumpi\n        /* \"shoot/3/数组长度溢出/1.sol\":3430:3431  1 */\n      0x1\n        /* \"shoot/3/数组长度溢出/1.sol\":3423:3428  times */\n      0x2\n      0x0\n        /* \"shoot/3/数组长度溢出/1.sol\":3423:3431  times+=1 */\n      dup3\n      dup3\n      sload\n      add\n      swap3\n      pop\n      pop\n      dup2\n      swap1\n      sstore\n      pop\n        /* \"shoot/3/数组长度溢出/1.sol\":3446:3450  info */\n      0x1\n      0x0\n      swap1\n      sload\n      swap1\n      0x100\n      exp\n      swap1\n      div\n      0xffffffffffffffffffffffffffffffffffffffff\n      and\n        /* \"shoot/3/数组长度溢出/1.sol\":3446:3461  info.deleteUser */\n      0xffffffffffffffffffffffffffffffffffffffff\n      and\n      0x26ff05e\n        /* \"shoot/3/数组长度溢出/1.sol\":3446:3463  info.deleteUser() */\n      mload(0x40)\n      dup2\n      0xffffffff\n      and\n      0x100000000000000000000000000000000000000000000000000000000\n      mul\n      dup2\n      mstore\n      0x4\n      add\n      0x0\n      mload(0x40)\n      dup1\n      dup4\n      sub\n      dup2\n      0x0\n      dup8\n      dup1\n      extcodesize\n      iszero\n        /* \"--CODEGEN--\":8:17   */\n      dup1\n        /* \"--CODEGEN--\":5:7   */\n      iszero\n      tag_14\n      jumpi\n        /* \"--CODEGEN--\":30:31   */\n      0x0\n        /* \"--CODEGEN--\":27:28   */\n      dup1\n        /* \"--CODEGEN--\":20:32   */\n      revert\n        /* \"--CODEGEN--\":5:7   */\n    tag_14:\n        /* \"shoot/3/数组长度溢出/1.sol\":3446:3463  info.deleteUser() */\n      pop\n      gas\n      call\n      iszero\n        /* \"--CODEGEN--\":8:17   */\n      dup1\n        /* \"--CODEGEN--\":5:7   */\n      iszero\n      tag_15\n      jumpi\n        /* \"--CODEGEN--\":45:61   */\n      returndatasize\n        /* \"--CODEGEN--\":42:43   */\n      0x0\n        /* \"--CODEGEN--\":39:40   */\n      dup1\n        /* \"--CODEGEN--\":24:62   */\n      returndatacopy\n        /* \"--CODEGEN--\":77:93   */\n      returndatasize\n        /* \"--CODEGEN--\":74:75   */\n      0x0\n        /* \"--CODEGEN--\":67:94   */\n      revert\n        /* \"--CODEGEN--\":5:7   */\n    tag_15:\n        /* \"shoot/3/数组长度溢出/1.sol\":3446:3463  info.deleteUser() */\n      pop\n      pop\n      pop\n      pop\n        /* \"shoot/3/数组长度溢出/1.sol\":3397:3475  if(times<2){\r... */\n    tag_13:\n        /* \"shoot/3/数组长度溢出/1.sol\":3187:4957  contract att{\r... */\n      stop\n        /* \"shoot/3/数组长度溢出/1.sol\":4524:4683  function getBalanceAddress(address addr) public view returns(uint256){\r... */\n    tag_2:\n      callvalue\n        /* \"--CODEGEN--\":8:17   */\n      dup1\n        /* \"--CODEGEN--\":5:7   */\n      iszero\n      tag_16\n      jumpi\n        /* \"--CODEGEN--\":30:31   */\n      0x0\n        /* \"--CODEGEN--\":27:28   */\n      dup1\n        /* \"--CODEGEN--\":20:32   */\n      revert\n        /* \"--CODEGEN--\":5:7   */\n    tag_16:\n        /* \"shoot/3/数组长度溢出/1.sol\":4524:4683  function getBalanceAddress(address addr) public view returns(uint256){\r... */\n      pop\n      tag_17\n      0x4\n      dup1\n      calldatasize\n      sub\n      dup2\n      add\n      swap1\n      dup1\n      dup1\n      calldataload\n      0xffffffffffffffffffffffffffffffffffffffff\n      and\n      swap1\n      0x20\n      add\n      swap1\n      swap3\n      swap2\n      swap1\n      pop\n      pop\n      pop\n      jump(tag_18)\n    tag_17:\n      mload(0x40)\n      dup1\n      dup3\n      dup2\n      mstore\n      0x20\n      add\n      swap2\n      pop\n      pop\n      mload(0x40)\n      dup1\n      swap2\n      sub\n      swap1\n      return\n        /* \"shoot/3/数组长度溢出/1.sol\":4852:4948  function getuint256(bytes32 a) public view returns(uint256){\r... */\n    tag_3:\n      callvalue\n        /* \"--CODEGEN--\":8:17   */\n      dup1\n        /* \"--CODEGEN--\":5:7   */\n      iszero\n      tag_19\n      jumpi\n        /* \"--CODEGEN--\":30:31   */\n      0x0\n        /* \"--CODEGEN--\":27:28   */\n      dup1\n        /* \"--CODEGEN--\":20:32   */\n      revert\n        /* \"--CODEGEN--\":5:7   */\n    tag_19:\n        /* \"shoot/3/数组长度溢出/1.sol\":4852:4948  function getuint256(bytes32 a) public view returns(uint256){\r... */\n      pop\n      tag_20\n      0x4\n      dup1\n      calldatasize\n      sub\n      dup2\n      add\n      swap1\n      dup1\n      dup1\n      calldataload\n      not(0x0)\n      and\n      swap1\n      0x20\n      add\n      swap1\n      swap3\n      swap2\n      swap1\n      pop\n      pop\n      pop\n      jump(tag_21)\n    tag_20:\n      mload(0x40)\n      dup1\n      dup3\n      dup2\n      mstore\n      0x20\n      add\n      swap2\n      pop\n      pop\n      mload(0x40)\n      dup1\n      swap2\n      sub\n      swap1\n      return\n        /* \"shoot/3/数组长度溢出/1.sol\":4067:4209  function getUserAddress(address addr) public view returns(uint256){\r... */\n    tag_4:\n      callvalue\n        /* \"--CODEGEN--\":8:17   */\n      dup1\n        /* \"--CODEGEN--\":5:7   */\n      iszero\n      tag_22\n      jumpi\n        /* \"--CODEGEN--\":30:31   */\n      0x0\n        /* \"--CODEGEN--\":27:28   */\n      dup1\n        /* \"--CODEGEN--\":20:32   */\n      revert\n        /* \"--CODEGEN--\":5:7   */\n    tag_22:\n        /* \"shoot/3/数组长度溢出/1.sol\":4067:4209  function getUserAddress(address addr) public view returns(uint256){\r... */\n      pop\n      tag_23\n      0x4\n      dup1\n      calldatasize\n      sub\n      dup2\n      add\n      swap1\n      dup1\n      dup1\n      calldataload\n      0xffffffffffffffffffffffffffffffffffffffff\n      and\n      swap1\n      0x20\n      add\n      swap1\n      swap3\n      swap2\n      swap1\n      pop\n      pop\n      pop\n      jump(tag_24)\n    tag_23:\n      mload(0x40)\n      dup1\n      dup3\n      dup2\n      mstore\n      0x20\n      add\n      swap2\n      pop\n      pop\n      mload(0x40)\n      dup1\n      swap2\n      sub\n      swap1\n      return\n        /* \"shoot/3/数组长度溢出/1.sol\":3488:3757  function attract() public {\r... */\n    tag_5:\n      callvalue\n        /* \"--CODEGEN--\":8:17   */\n      dup1\n        /* \"--CODEGEN--\":5:7   */\n      iszero\n      tag_25\n      jumpi\n        /* \"--CODEGEN--\":30:31   */\n      0x0\n        /* \"--CODEGEN--\":27:28   */\n      dup1\n        /* \"--CODEGEN--\":20:32   */\n      revert\n        /* \"--CODEGEN--\":5:7   */\n    tag_25:\n        /* \"shoot/3/数组长度溢出/1.sol\":3488:3757  function attract() public {\r... */\n      pop\n      tag_26\n      jump(tag_27)\n    tag_26:\n      stop\n        /* \"shoot/3/数组长度溢出/1.sol\":3923:4061  function getUserSolt(address addr) public view returns(bytes32){\r... */\n    tag_6:\n      callvalue\n        /* \"--CODEGEN--\":8:17   */\n      dup1\n        /* \"--CODEGEN--\":5:7   */\n      iszero\n      tag_28\n      jumpi\n        /* \"--CODEGEN--\":30:31   */\n      0x0\n        /* \"--CODEGEN--\":27:28   */\n      dup1\n        /* \"--CODEGEN--\":20:32   */\n      revert\n        /* \"--CODEGEN--\":5:7   */\n    tag_28:\n        /* \"shoot/3/数组长度溢出/1.sol\":3923:4061  function getUserSolt(address addr) public view returns(bytes32){\r... */\n      pop\n      tag_29\n      0x4\n      dup1\n      calldatasize\n      sub\n      dup2\n      add\n      swap1\n      dup1\n      dup1\n      calldataload\n      0xffffffffffffffffffffffffffffffffffffffff\n      and\n      swap1\n      0x20\n      add\n      swap1\n      swap3\n      swap2\n      swap1\n      pop\n      pop\n      pop\n      jump(tag_30)\n    tag_29:\n      mload(0x40)\n      dup1\n      dup3\n      not(0x0)\n      and\n      not(0x0)\n      and\n      dup2\n      mstore\n      0x20\n      add\n      swap2\n      pop\n      pop\n      mload(0x40)\n      dup1\n      swap2\n      sub\n      swap1\n      return\n        /* \"shoot/3/数组长度溢出/1.sol\":3763:3917  function getUserArrSolt(address addr) public view returns(bytes32){\r... */\n    tag_7:\n      callvalue\n        /* \"--CODEGEN--\":8:17   */\n      dup1\n        /* \"--CODEGEN--\":5:7   */\n      iszero\n      tag_31\n      jumpi\n        /* \"--CODEGEN--\":30:31   */\n      0x0\n        /* \"--CODEGEN--\":27:28   */\n      dup1\n        /* \"--CODEGEN--\":20:32   */\n      revert\n        /* \"--CODEGEN--\":5:7   */\n    tag_31:\n        /* \"shoot/3/数组长度溢出/1.sol\":3763:3917  function getUserArrSolt(address addr) public view returns(bytes32){\r... */\n      pop\n      tag_32\n      0x4\n      dup1\n      calldatasize\n      sub\n      dup2\n      add\n      swap1\n      dup1\n      dup1\n      calldataload\n      0xffffffffffffffffffffffffffffffffffffffff\n      and\n      swap1\n      0x20\n      add\n      swap1\n      swap3\n      swap2\n      swap1\n      pop\n      pop\n      pop\n      jump(tag_33)\n    tag_32:\n      mload(0x40)\n      dup1\n      dup3\n      not(0x0)\n      and\n      not(0x0)\n      and\n      dup2\n      mstore\n      0x20\n      add\n      swap2\n      pop\n      pop\n      mload(0x40)\n      dup1\n      swap2\n      sub\n      swap1\n      return\n        /* \"shoot/3/数组长度溢出/1.sol\":4362:4516  function getBalanceSolt(address addr) public view returns(bytes32){\r... */\n    tag_8:\n      callvalue\n        /* \"--CODEGEN--\":8:17   */\n      dup1\n        /* \"--CODEGEN--\":5:7   */\n      iszero\n      tag_34\n      jumpi\n        /* \"--CODEGEN--\":30:31   */\n      0x0\n        /* \"--CODEGEN--\":27:28   */\n      dup1\n        /* \"--CODEGEN--\":20:32   */\n      revert\n        /* \"--CODEGEN--\":5:7   */\n    tag_34:\n        /* \"shoot/3/数组长度溢出/1.sol\":4362:4516  function getBalanceSolt(address addr) public view returns(bytes32){\r... */\n      pop\n      tag_35\n      0x4\n      dup1\n      calldatasize\n      sub\n      dup2\n      add\n      swap1\n      dup1\n      dup1\n      calldataload\n      0xffffffffffffffffffffffffffffffffffffffff\n      and\n      swap1\n      0x20\n      add\n      swap1\n      swap3\n      swap2\n      swap1\n      pop\n      pop\n      pop\n      jump(tag_36)\n    tag_35:\n      mload(0x40)\n      dup1\n      dup3\n      not(0x0)\n      and\n      not(0x0)\n      and\n      dup2\n      mstore\n      0x20\n      add\n      swap2\n      pop\n      pop\n      mload(0x40)\n      dup1\n      swap2\n      sub\n      swap1\n      return\n        /* \"shoot/3/数组长度溢出/1.sol\":4689:4846  function getBalacneIndes(address addr) public view returns(uint256){\r... */\n    tag_9:\n      callvalue\n        /* \"--CODEGEN--\":8:17   */\n      dup1\n        /* \"--CODEGEN--\":5:7   */\n      iszero\n      tag_37\n      jumpi\n        /* \"--CODEGEN--\":30:31   */\n      0x0\n        /* \"--CODEGEN--\":27:28   */\n      dup1\n        /* \"--CODEGEN--\":20:32   */\n      revert\n        /* \"--CODEGEN--\":5:7   */\n    tag_37:\n        /* \"shoot/3/数组长度溢出/1.sol\":4689:4846  function getBalacneIndes(address addr) public view returns(uint256){\r... */\n      pop\n      tag_38\n      0x4\n      dup1\n      calldatasize\n      sub\n      dup2\n      add\n      swap1\n      dup1\n      dup1\n      calldataload\n      0xffffffffffffffffffffffffffffffffffffffff\n      and\n      swap1\n      0x20\n      add\n      swap1\n      swap3\n      swap2\n      swap1\n      pop\n      pop\n      pop\n      jump(tag_39)\n    tag_38:\n      mload(0x40)\n      dup1\n      dup3\n      dup2\n      mstore\n      0x20\n      add\n      swap2\n      pop\n      pop\n      mload(0x40)\n      dup1\n      swap2\n      sub\n      swap1\n      return\n        /* \"shoot/3/数组长度溢出/1.sol\":4215:4354  function getUserIndex(address addr) public view returns(uint256){\r... */\n    tag_10:\n      callvalue\n        /* \"--CODEGEN--\":8:17   */\n      dup1\n        /* \"--CODEGEN--\":5:7   */\n      iszero\n      tag_40\n      jumpi\n        /* \"--CODEGEN--\":30:31   */\n      0x0\n        /* \"--CODEGEN--\":27:28   */\n      dup1\n        /* \"--CODEGEN--\":20:32   */\n      revert\n        /* \"--CODEGEN--\":5:7   */\n    tag_40:\n        /* \"shoot/3/数组长度溢出/1.sol\":4215:4354  function getUserIndex(address addr) public view returns(uint256){\r... */\n      pop\n      tag_41\n      0x4\n      dup1\n      calldatasize\n      sub\n      dup2\n      add\n      swap1\n      dup1\n      dup1\n      calldataload\n      0xffffffffffffffffffffffffffffffffffffffff\n      and\n      swap1\n      0x20\n      add\n      swap1\n      swap3\n      swap2\n      swap1\n      pop\n      pop\n      pop\n      jump(tag_42)\n    tag_41:\n      mload(0x40)\n      dup1\n      dup3\n      dup2\n      mstore\n      0x20\n      add\n      swap2\n      pop\n      pop\n      mload(0x40)\n      dup1\n      swap2\n      sub\n      swap1\n      return\n        /* \"shoot/3/数组长度溢出/1.sol\":4524:4683  function getBalanceAddress(address addr) public view returns(uint256){\r... */\n    tag_18:\n        /* \"shoot/3/数组长度溢出/1.sol\":4585:4592  uint256 */\n      0x0\n        /* \"shoot/3/数组长度溢出/1.sol\":4674:4675  2 */\n      0x2\n        /* \"shoot/3/数组长度溢出/1.sol\":4652:4669  getUserSolt(addr) */\n      tag_44\n        /* \"shoot/3/数组长度溢出/1.sol\":4664:4668  addr */\n      dup4\n        /* \"shoot/3/数组长度溢出/1.sol\":4652:4663  getUserSolt */\n      tag_30\n        /* \"shoot/3/数组长度溢出/1.sol\":4652:4669  getUserSolt(addr) */\n      jump\t// in\n    tag_44:\n        /* \"shoot/3/数组长度溢出/1.sol\":4644:4670  uint256(getUserSolt(addr)) */\n      0x1\n      swap1\n      div\n        /* \"shoot/3/数组长度溢出/1.sol\":4620:4640  getBalanceSolt(addr) */\n      tag_45\n        /* \"shoot/3/数组长度溢出/1.sol\":4635:4639  addr */\n      dup5\n        /* \"shoot/3/数组长度溢出/1.sol\":4620:4634  getBalanceSolt */\n      tag_36\n        /* \"shoot/3/数组长度溢出/1.sol\":4620:4640  getBalanceSolt(addr) */\n      jump\t// in\n    tag_45:\n        /* \"shoot/3/数组长度溢出/1.sol\":4612:4641  uint256(getBalanceSolt(addr)) */\n      0x1\n      swap1\n      div\n        /* \"shoot/3/数组长度溢出/1.sol\":4612:4670  uint256(getBalanceSolt(addr)) - uint256(getUserSolt(addr)) */\n      sub\n        /* \"shoot/3/数组长度溢出/1.sol\":4611:4675  (uint256(getBalanceSolt(addr)) - uint256(getUserSolt(addr))) % 2 */\n      dup2\n      iszero\n      iszero\n      tag_46\n      jumpi\n      invalid\n    tag_46:\n      mod\n        /* \"shoot/3/数组长度溢出/1.sol\":4604:4675  return (uint256(getBalanceSolt(addr)) - uint256(getUserSolt(addr))) % 2 */\n      swap1\n      pop\n        /* \"shoot/3/数组长度溢出/1.sol\":4524:4683  function getBalanceAddress(address addr) public view returns(uint256){\r... */\n      swap2\n      swap1\n      pop\n      jump\t// out\n        /* \"shoot/3/数组长度溢出/1.sol\":4852:4948  function getuint256(bytes32 a) public view returns(uint256){\r... */\n    tag_21:\n        /* \"shoot/3/数组长度溢出/1.sol\":4903:4910  uint256 */\n      0x0\n        /* \"shoot/3/数组长度溢出/1.sol\":4937:4938  a */\n      dup2\n        /* \"shoot/3/数组长度溢出/1.sol\":4929:4939  uint256(a) */\n      0x1\n      swap1\n      div\n        /* \"shoot/3/数组长度溢出/1.sol\":4922:4939  return uint256(a) */\n      swap1\n      pop\n        /* \"shoot/3/数组长度溢出/1.sol\":4852:4948  function getuint256(bytes32 a) public view returns(uint256){\r... */\n      swap2\n      swap1\n      pop\n      jump\t// out\n        /* \"shoot/3/数组长度溢出/1.sol\":4067:4209  function getUserAddress(address addr) public view returns(uint256){\r... */\n    tag_24:\n        /* \"shoot/3/数组长度溢出/1.sol\":4125:4132  uint256 */\n      0x0\n        /* \"shoot/3/数组长度溢出/1.sol\":4200:4201  2 */\n      0x2\n        /* \"shoot/3/数组长度溢出/1.sol\":4194:4195  1 */\n      0x1\n        /* \"shoot/3/数组长度溢出/1.sol\":4173:4190  getUserSolt(addr) */\n      tag_49\n        /* \"shoot/3/数组长度溢出/1.sol\":4185:4189  addr */\n      dup5\n        /* \"shoot/3/数组长度溢出/1.sol\":4173:4184  getUserSolt */\n      tag_30\n        /* \"shoot/3/数组长度溢出/1.sol\":4173:4190  getUserSolt(addr) */\n      jump\t// in\n    tag_49:\n        /* \"shoot/3/数组长度溢出/1.sol\":4165:4191  uint256(getUserSolt(addr)) */\n      0x1\n      swap1\n      div\n        /* \"shoot/3/数组长度溢出/1.sol\":4152:4162  2**256 - 1 */\n      0xffffffffffffffffffffffffffffffffffffffffffffffffffffffffffffffff\n        /* \"shoot/3/数组长度溢出/1.sol\":4152:4191  2**256 - 1 - uint256(getUserSolt(addr)) */\n      sub\n        /* \"shoot/3/数组长度溢出/1.sol\":4152:4195  2**256 - 1 - uint256(getUserSolt(addr)) + 1 */\n      add\n        /* \"shoot/3/数组长度溢出/1.sol\":4151:4201  (2**256 - 1 - uint256(getUserSolt(addr)) + 1 ) % 2 */\n      dup2\n      iszero\n      iszero\n      tag_50\n      jumpi\n      invalid\n    tag_50:\n      mod\n        /* \"shoot/3/数组长度溢出/1.sol\":4144:4201  return (2**256 - 1 - uint256(getUserSolt(addr)) + 1 ) % 2 */\n      swap1\n      pop\n        /* \"shoot/3/数组长度溢出/1.sol\":4067:4209  function getUserAddress(address addr) public view returns(uint256){\r... */\n      swap2\n      swap1\n      pop\n      jump\t// out\n        /* \"shoot/3/数组长度溢出/1.sol\":3488:3757  function attract() public {\r... */\n    tag_27:\n        /* \"shoot/3/数组长度溢出/1.sol\":3525:3529  info */\n      0x1\n      0x0\n      swap1\n      sload\n      swap1\n      0x100\n      exp\n      swap1\n      div\n      0xffffffffffffffffffffffffffffffffffffffff\n      and\n        /* \"shoot/3/数组长度溢出/1.sol\":3525:3537  info.addUser */\n      0xffffffffffffffffffffffffffffffffffffffff\n      and\n      0x18b8275a\n        /* \"shoot/3/数组长度溢出/1.sol\":3544:3553  msg.value */\n      callvalue\n        /* \"shoot/3/数组长度溢出/1.sol\":3525:3560  info.addUser.value(msg.value)(\"zp\") */\n      mload(0x40)\n      dup3\n      0xffffffff\n      and\n      0x100000000000000000000000000000000000000000000000000000000\n      mul\n      dup2\n      mstore\n      0x4\n      add\n      dup1\n      dup1\n      0x20\n      add\n      dup3\n      dup2\n      sub\n      dup3\n      mstore\n      0x2\n      dup2\n      mstore\n      0x20\n      add\n      dup1\n      0x7a70000000000000000000000000000000000000000000000000000000000000\n      dup2\n      mstore\n      pop\n      0x20\n      add\n      swap2\n      pop\n      pop\n      0x0\n      mload(0x40)\n      dup1\n      dup4\n      sub\n      dup2\n      dup6\n      dup9\n      dup1\n      extcodesize\n      iszero\n        /* \"--CODEGEN--\":8:17   */\n      dup1\n        /* \"--CODEGEN--\":5:7   */\n      iszero\n      tag_52\n      jumpi\n        /* \"--CODEGEN--\":30:31   */\n      0x0\n        /* \"--CODEGEN--\":27:28   */\n      dup1\n        /* \"--CODEGEN--\":20:32   */\n      revert\n        /* \"--CODEGEN--\":5:7   */\n    tag_52:\n        /* \"shoot/3/数组长度溢出/1.sol\":3525:3560  info.addUser.value(msg.value)(\"zp\") */\n      pop\n      gas\n      call\n      iszero\n        /* \"--CODEGEN--\":8:17   */\n      dup1\n        /* \"--CODEGEN--\":5:7   */\n      iszero\n      tag_53\n      jumpi\n        /* \"--CODEGEN--\":45:61   */\n      returndatasize\n        /* \"--CODEGEN--\":42:43   */\n      0x0\n        /* \"--CODEGEN--\":39:40   */\n      dup1\n        /* \"--CODEGEN--\":24:62   */\n      returndatacopy\n        /* \"--CODEGEN--\":77:93   */\n      returndatasize\n        /* \"--CODEGEN--\":74:75   */\n      0x0\n        /* \"--CODEGEN--\":67:94   */\n      revert\n        /* \"--CODEGEN--\":5:7   */\n    tag_53:\n        /* \"shoot/3/数组长度溢出/1.sol\":3525:3560  info.addUser.value(msg.value)(\"zp\") */\n      pop\n      pop\n      pop\n      pop\n      pop\n        /* \"shoot/3/数组长度溢出/1.sol\":3571:3575  info */\n      0x1\n      0x0\n      swap1\n      sload\n      swap1\n      0x100\n      exp\n      swap1\n      div\n      0xffffffffffffffffffffffffffffffffffffffff\n      and\n        /* \"shoot/3/数组长度溢出/1.sol\":3571:3586  info.deleteUser */\n      0xffffffffffffffffffffffffffffffffffffffff\n      and\n      0x26ff05e\n        /* \"shoot/3/数组长度溢出/1.sol\":3571:3588  info.deleteUser() */\n      mload(0x40)\n      dup2\n      0xffffffff\n      and\n      0x100000000000000000000000000000000000000000000000000000000\n      mul\n      dup2\n      mstore\n      0x4\n      add\n      0x0\n      mload(0x40)\n      dup1\n      dup4\n      sub\n      dup2\n      0x0\n      dup8\n      dup1\n      extcodesize\n      iszero\n        /* \"--CODEGEN--\":8:17   */\n      dup1\n        /* \"--CODEGEN--\":5:7   */\n      iszero\n      tag_54\n      jumpi\n        /* \"--CODEGEN--\":30:31   */\n      0x0\n        /* \"--CODEGEN--\":27:28   */\n      dup1\n        /* \"--CODEGEN--\":20:32   */\n      revert\n        /* \"--CODEGEN--\":5:7   */\n    tag_54:\n        /* \"shoot/3/数组长度溢出/1.sol\":3571:3588  info.deleteUser() */\n      pop\n      gas\n      call\n      iszero\n        /* \"--CODEGEN--\":8:17   */\n      dup1\n        /* \"--CODEGEN--\":5:7   */\n      iszero\n      tag_55\n      jumpi\n        /* \"--CODEGEN--\":45:61   */\n      returndatasize\n        /* \"--CODEGEN--\":42:43   */\n      0x0\n        /* \"--CODEGEN--\":39:40   */\n      dup1\n        /* \"--CODEGEN--\":24:62   */\n      returndatacopy\n        /* \"--CODEGEN--\":77:93   */\n      returndatasize\n        /* \"--CODEGEN--\":74:75   */\n      0x0\n        /* \"--CODEGEN--\":67:94   */\n      revert\n        /* \"--CODEGEN--\":5:7   */\n    tag_55:\n        /* \"shoot/3/数组长度溢出/1.sol\":3571:3588  info.deleteUser() */\n      pop\n      pop\n      pop\n      pop\n        /* \"shoot/3/数组长度溢出/1.sol\":3599:3603  info */\n      0x1\n      0x0\n      swap1\n      sload\n      swap1\n      0x100\n      exp\n      swap1\n      div\n      0xffffffffffffffffffffffffffffffffffffffff\n      and\n        /* \"shoot/3/数组长度溢出/1.sol\":3599:3611  info.setName */\n      0xffffffffffffffffffffffffffffffffffffffff\n      and\n      0xfe55932a\n        /* \"shoot/3/数组长度溢出/1.sol\":3612:3639  getUserIndex(address(this)) */\n      tag_56\n        /* \"shoot/3/数组长度溢出/1.sol\":3633:3637  this */\n      address\n        /* \"shoot/3/数组长度溢出/1.sol\":3612:3624  getUserIndex */\n      tag_42\n        /* \"shoot/3/数组长度溢出/1.sol\":3612:3639  getUserIndex(address(this)) */\n      jump\t// in\n    tag_56:\n        /* \"shoot/3/数组长度溢出/1.sol\":3599:3643  info.setName(getUserIndex(address(this)),\"\") */\n      mload(0x40)\n      dup3\n      0xffffffff\n      and\n      0x100000000000000000000000000000000000000000000000000000000\n      mul\n      dup2\n      mstore\n      0x4\n      add\n      dup1\n      dup3\n      dup2\n      mstore\n      0x20\n      add\n      dup1\n      0x20\n      add\n      dup3\n      dup2\n      sub\n      dup3\n      mstore\n      0x0\n      dup2\n      mstore\n      0x20\n      add\n      0x20\n      add\n      swap3\n      pop\n      pop\n      pop\n      0x0\n      mload(0x40)\n      dup1\n      dup4\n      sub\n      dup2\n      0x0\n      dup8\n      dup1\n      extcodesize\n      iszero\n        /* \"--CODEGEN--\":8:17   */\n      dup1\n        /* \"--CODEGEN--\":5:7   */\n      iszero\n      tag_57\n      jumpi\n        /* \"--CODEGEN--\":30:31   */\n      0x0\n        /* \"--CODEGEN--\":27:28   */\n      dup1\n        /* \"--CODEGEN--\":20:32   */\n      revert\n        /* \"--CODEGEN--\":5:7   */\n    tag_57:\n        /* \"shoot/3/数组长度溢出/1.sol\":3599:3643  info.setName(getUserIndex(address(this)),\"\") */\n      pop\n      gas\n      call\n      iszero\n        /* \"--CODEGEN--\":8:17   */\n      dup1\n        /* \"--CODEGEN--\":5:7   */\n      iszero\n      tag_58\n      jumpi\n        /* \"--CODEGEN--\":45:61   */\n      returndatasize\n        /* \"--CODEGEN--\":42:43   */\n      0x0\n        /* \"--CODEGEN--\":39:40   */\n      dup1\n        /* \"--CODEGEN--\":24:62   */\n      returndatacopy\n        /* \"--CODEGEN--\":77:93   */\n      returndatasize\n        /* \"--CODEGEN--\":74:75   */\n      0x0\n        /* \"--CODEGEN--\":67:94   */\n      revert\n        /* \"--CODEGEN--\":5:7   */\n    tag_58:\n        /* \"shoot/3/数组长度溢出/1.sol\":3599:3643  info.setName(getUserIndex(address(this)),\"\") */\n      pop\n      pop\n      pop\n      pop\n        /* \"shoot/3/数组长度溢出/1.sol\":3654:3658  info */\n      0x1\n      0x0\n      swap1\n      sload\n      swap1\n      0x100\n      exp\n      swap1\n      div\n      0xffffffffffffffffffffffffffffffffffffffff\n      and\n        /* \"shoot/3/数组长度溢出/1.sol\":3654:3666  info.setName */\n      0xffffffffffffffffffffffffffffffffffffffff\n      and\n      0xfe55932a\n        /* \"shoot/3/数组长度溢出/1.sol\":3667:3697  getBalacneIndes(address(this)) */\n      tag_59\n        /* \"shoot/3/数组长度溢出/1.sol\":3691:3695  this */\n      address\n        /* \"shoot/3/数组长度溢出/1.sol\":3667:3682  getBalacneIndes */\n      tag_39\n        /* \"shoot/3/数组长度溢出/1.sol\":3667:3697  getBalacneIndes(address(this)) */\n      jump\t// in\n    tag_59:\n        /* \"shoot/3/数组长度溢出/1.sol\":3654:3721  info.setName(getBalacneIndes(address(this)),\"ssssssssssssssssssss\") */\n      mload(0x40)\n      dup3\n      0xffffffff\n      and\n      0x100000000000000000000000000000000000000000000000000000000\n      mul\n      dup2\n      mstore\n      0x4\n      add\n      dup1\n      dup3\n      dup2\n      mstore\n      0x20\n      add\n      dup1\n      0x20\n      add\n      dup3\n      dup2\n      sub\n      dup3\n      mstore\n      0x14\n      dup2\n      mstore\n      0x20\n      add\n      dup1\n      0x7373737373737373737373737373737373737373000000000000000000000000\n      dup2\n      mstore\n      pop\n      0x20\n      add\n      swap3\n      pop\n      pop\n      pop\n      0x0\n      mload(0x40)\n      dup1\n      dup4\n      sub\n      dup2\n      0x0\n      dup8\n      dup1\n      extcodesize\n      iszero\n        /* \"--CODEGEN--\":8:17   */\n      dup1\n        /* \"--CODEGEN--\":5:7   */\n      iszero\n      tag_60\n      jumpi\n        /* \"--CODEGEN--\":30:31   */\n      0x0\n        /* \"--CODEGEN--\":27:28   */\n      dup1\n        /* \"--CODEGEN--\":20:32   */\n      revert\n        /* \"--CODEGEN--\":5:7   */\n    tag_60:\n        /* \"shoot/3/数组长度溢出/1.sol\":3654:3721  info.setName(getBalacneIndes(address(this)),\"ssssssssssssssssssss\") */\n      pop\n      gas\n      call\n      iszero\n        /* \"--CODEGEN--\":8:17   */\n      dup1\n        /* \"--CODEGEN--\":5:7   */\n      iszero\n      tag_61\n      jumpi\n        /* \"--CODEGEN--\":45:61   */\n      returndatasize\n        /* \"--CODEGEN--\":42:43   */\n      0x0\n        /* \"--CODEGEN--\":39:40   */\n      dup1\n        /* \"--CODEGEN--\":24:62   */\n      returndatacopy\n        /* \"--CODEGEN--\":77:93   */\n      returndatasize\n        /* \"--CODEGEN--\":74:75   */\n      0x0\n        /* \"--CODEGEN--\":67:94   */\n      revert\n        /* \"--CODEGEN--\":5:7   */\n    tag_61:\n        /* \"shoot/3/数组长度溢出/1.sol\":3654:3721  info.setName(getBalacneIndes(address(this)),\"ssssssssssssssssssss\") */\n      pop\n      pop\n      pop\n      pop\n        /* \"shoot/3/数组长度溢出/1.sol\":3732:3735  che */\n      0x0\n      dup1\n      swap1\n      sload\n      swap1\n      0x100\n      exp\n      swap1\n      div\n      0xffffffffffffffffffffffffffffffffffffffff\n      and\n        /* \"shoot/3/数组长度溢出/1.sol\":3732:3747  che.isCompleted */\n      0xffffffffffffffffffffffffffffffffffffffff\n      and\n      0xfa391c64\n        /* \"shoot/3/数组长度溢出/1.sol\":3732:3749  che.isCompleted() */\n      mload(0x40)\n      dup2\n      0xffffffff\n      and\n      0x100000000000000000000000000000000000000000000000000000000\n      mul\n      dup2\n      mstore\n      0x4\n      add\n      0x0\n      mload(0x40)\n      dup1\n      dup4\n      sub\n      dup2\n      0x0\n      dup8\n      dup1\n      extcodesize\n      iszero\n        /* \"--CODEGEN--\":8:17   */\n      dup1\n        /* \"--CODEGEN--\":5:7   */\n      iszero\n      tag_62\n      jumpi\n        /* \"--CODEGEN--\":30:31   */\n      0x0\n        /* \"--CODEGEN--\":27:28   */\n      dup1\n        /* \"--CODEGEN--\":20:32   */\n      revert\n        /* \"--CODEGEN--\":5:7   */\n    tag_62:\n        /* \"shoot/3/数组长度溢出/1.sol\":3732:3749  che.isCompleted() */\n      pop\n      gas\n      call\n      iszero\n        /* \"--CODEGEN--\":8:17   */\n      dup1\n        /* \"--CODEGEN--\":5:7   */\n      iszero\n      tag_63\n      jumpi\n        /* \"--CODEGEN--\":45:61   */\n      returndatasize\n        /* \"--CODEGEN--\":42:43   */\n      0x0\n        /* \"--CODEGEN--\":39:40   */\n      dup1\n        /* \"--CODEGEN--\":24:62   */\n      returndatacopy\n        /* \"--CODEGEN--\":77:93   */\n      returndatasize\n        /* \"--CODEGEN--\":74:75   */\n      0x0\n        /* \"--CODEGEN--\":67:94   */\n      revert\n        /* \"--CODEGEN--\":5:7   */\n    tag_63:\n        /* \"shoot/3/数组长度溢出/1.sol\":3732:3749  che.isCompleted() */\n      pop\n      pop\n      pop\n      pop\n        /* \"shoot/3/数组长度溢出/1.sol\":3488:3757  function attract() public {\r... */\n      jump\t// out\n        /* \"shoot/3/数组长度溢出/1.sol\":3923:4061  function getUserSolt(address addr) public view returns(bytes32){\r... */\n    tag_30:\n        /* \"shoot/3/数组长度溢出/1.sol\":3978:3985  bytes32 */\n      0x0\n        /* \"shoot/3/数组长度溢出/1.sol\":4031:4051  getUserArrSolt(addr) */\n      tag_65\n        /* \"shoot/3/数组长度溢出/1.sol\":4046:4050  addr */\n      dup3\n        /* \"shoot/3/数组长度溢出/1.sol\":4031:4045  getUserArrSolt */\n      tag_33\n        /* \"shoot/3/数组长度溢出/1.sol\":4031:4051  getUserArrSolt(addr) */\n      jump\t// in\n    tag_65:\n        /* \"shoot/3/数组长度溢出/1.sol\":4014:4052  abi.encodePacked(getUserArrSolt(addr)) */\n      add(0x20, mload(0x40))\n      dup1\n      dup3\n      not(0x0)\n      and\n      not(0x0)\n      and\n      dup2\n      mstore\n      0x20\n      add\n      swap2\n      pop\n      pop\n      mload(0x40)\n        /* \"--CODEGEN--\":49:53   */\n      0x20\n        /* \"--CODEGEN--\":39:46   */\n      dup2\n        /* \"--CODEGEN--\":30:37   */\n      dup4\n        /* \"--CODEGEN--\":26:47   */\n      sub\n        /* \"--CODEGEN--\":22:54   */\n      sub\n        /* \"--CODEGEN--\":13:20   */\n      dup2\n        /* \"--CODEGEN--\":6:55   */\n      mstore\n        /* \"shoot/3/数组长度溢出/1.sol\":4014:4052  abi.encodePacked(getUserArrSolt(addr)) */\n      swap1\n      0x40\n      mstore\n        /* \"shoot/3/数组长度溢出/1.sol\":4004:4053  keccak256(abi.encodePacked(getUserArrSolt(addr))) */\n      mload(0x40)\n      dup1\n      dup3\n      dup1\n      mload\n      swap1\n      0x20\n      add\n      swap1\n      dup1\n      dup4\n      dup4\n        /* \"--CODEGEN--\":36:189   */\n    tag_66:\n        /* \"--CODEGEN--\":66:68   */\n      0x20\n        /* \"--CODEGEN--\":61:64   */\n      dup4\n        /* \"--CODEGEN--\":58:69   */\n      lt\n        /* \"--CODEGEN--\":51:70   */\n      iszero\n        /* \"--CODEGEN--\":36:189   */\n      iszero\n      tag_67\n      jumpi\n        /* \"--CODEGEN--\":182:185   */\n      dup1\n        /* \"--CODEGEN--\":176:186   */\n      mload\n        /* \"--CODEGEN--\":171:174   */\n      dup3\n        /* \"--CODEGEN--\":164:187   */\n      mstore\n        /* \"--CODEGEN--\":98:100   */\n      0x20\n        /* \"--CODEGEN--\":93:96   */\n      dup3\n        /* \"--CODEGEN--\":89:101   */\n      add\n        /* \"--CODEGEN--\":82:101   */\n      swap2\n      pop\n        /* \"--CODEGEN--\":123:125   */\n      0x20\n        /* \"--CODEGEN--\":118:121   */\n      dup2\n        /* \"--CODEGEN--\":114:126   */\n      add\n        /* \"--CODEGEN--\":107:126   */\n      swap1\n      pop\n        /* \"--CODEGEN--\":148:150   */\n      0x20\n        /* \"--CODEGEN--\":143:146   */\n      dup4\n        /* \"--CODEGEN--\":139:151   */\n      sub\n        /* \"--CODEGEN--\":132:151   */\n      swap3\n      pop\n        /* \"--CODEGEN--\":36:189   */\n      jump(tag_66)\n    tag_67:\n        /* \"--CODEGEN--\":274:275   */\n      0x1\n        /* \"--CODEGEN--\":267:270   */\n      dup4\n        /* \"--CODEGEN--\":263:265   */\n      0x20\n        /* \"--CODEGEN--\":259:271   */\n      sub\n        /* \"--CODEGEN--\":254:257   */\n      0x100\n        /* \"--CODEGEN--\":250:272   */\n      exp\n        /* \"--CODEGEN--\":246:276   */\n      sub\n        /* \"--CODEGEN--\":315:319   */\n      dup1\n        /* \"--CODEGEN--\":311:320   */\n      not\n        /* \"--CODEGEN--\":305:308   */\n      dup3\n        /* \"--CODEGEN--\":299:309   */\n      mload\n        /* \"--CODEGEN--\":295:321   */\n      and\n        /* \"--CODEGEN--\":356:360   */\n      dup2\n        /* \"--CODEGEN--\":350:353   */\n      dup5\n        /* \"--CODEGEN--\":344:354   */\n      mload\n        /* \"--CODEGEN--\":340:361   */\n      and\n        /* \"--CODEGEN--\":389:396   */\n      dup1\n        /* \"--CODEGEN--\":380:387   */\n      dup3\n        /* \"--CODEGEN--\":377:397   */\n      or\n        /* \"--CODEGEN--\":372:375   */\n      dup6\n        /* \"--CODEGEN--\":365:398   */\n      mstore\n        /* \"--CODEGEN--\":3:402   */\n      pop\n      pop\n      pop\n        /* \"shoot/3/数组长度溢出/1.sol\":4004:4053  keccak256(abi.encodePacked(getUserArrSolt(addr))) */\n      pop\n      pop\n      pop\n      swap1\n      pop\n      add\n      swap2\n      pop\n      pop\n      mload(0x40)\n      dup1\n      swap2\n      sub\n      swap1\n      keccak256\n        /* \"shoot/3/数组长度溢出/1.sol\":3997:4053  return keccak256(abi.encodePacked(getUserArrSolt(addr))) */\n      swap1\n      pop\n        /* \"shoot/3/数组长度溢出/1.sol\":3923:4061  function getUserSolt(address addr) public view returns(bytes32){\r... */\n      swap2\n      swap1\n      pop\n      jump\t// out\n        /* \"shoot/3/数组长度溢出/1.sol\":3763:3917  function getUserArrSolt(address addr) public view returns(bytes32){\r... */\n    tag_33:\n        /* \"shoot/3/数组长度溢出/1.sol\":3821:3828  bytes32 */\n      0x0\n        /* \"shoot/3/数组长度溢出/1.sol\":3890:3894  addr */\n      dup2\n        /* \"shoot/3/数组长度溢出/1.sol\":3874:3896  uint256(uint160(addr)) */\n      0xffffffffffffffffffffffffffffffffffffffff\n      and\n        /* \"shoot/3/数组长度溢出/1.sol\":3905:3906  2 */\n      0x2\n        /* \"shoot/3/数组长度溢出/1.sol\":3857:3908  abi.encodePacked(uint256(uint160(addr)),uint256(2)) */\n      add(0x20, mload(0x40))\n      dup1\n      dup4\n      dup2\n      mstore\n      0x20\n      add\n      dup3\n      dup2\n      mstore\n      0x20\n      add\n      swap3\n      pop\n      pop\n      pop\n      mload(0x40)\n        /* \"--CODEGEN--\":49:53   */\n      0x20\n        /* \"--CODEGEN--\":39:46   */\n      dup2\n        /* \"--CODEGEN--\":30:37   */\n      dup4\n        /* \"--CODEGEN--\":26:47   */\n      sub\n        /* \"--CODEGEN--\":22:54   */\n      sub\n        /* \"--CODEGEN--\":13:20   */\n      dup2\n        /* \"--CODEGEN--\":6:55   */\n      mstore\n        /* \"shoot/3/数组长度溢出/1.sol\":3857:3908  abi.encodePacked(uint256(uint160(addr)),uint256(2)) */\n      swap1\n      0x40\n      mstore\n        /* \"shoot/3/数组长度溢出/1.sol\":3847:3909  keccak256(abi.encodePacked(uint256(uint160(addr)),uint256(2))) */\n      mload(0x40)\n      dup1\n      dup3\n      dup1\n      mload\n      swap1\n      0x20\n      add\n      swap1\n      dup1\n      dup4\n      dup4\n        /* \"--CODEGEN--\":36:189   */\n    tag_70:\n        /* \"--CODEGEN--\":66:68   */\n      0x20\n        /* \"--CODEGEN--\":61:64   */\n      dup4\n        /* \"--CODEGEN--\":58:69   */\n      lt\n        /* \"--CODEGEN--\":51:70   */\n      iszero\n        /* \"--CODEGEN--\":36:189   */\n      iszero\n      tag_71\n      jumpi\n        /* \"--CODEGEN--\":182:185   */\n      dup1\n        /* \"--CODEGEN--\":176:186   */\n      mload\n        /* \"--CODEGEN--\":171:174   */\n      dup3\n        /* \"--CODEGEN--\":164:187   */\n      mstore\n        /* \"--CODEGEN--\":98:100   */\n      0x20\n        /* \"--CODEGEN--\":93:96   */\n      dup3\n        /* \"--CODEGEN--\":89:101   */\n      add\n        /* \"--CODEGEN--\":82:101   */\n      swap2\n      pop\n        /* \"--CODEGEN--\":123:125   */\n      0x20\n        /* \"--CODEGEN--\":118:121   */\n      dup2\n        /* \"--CODEGEN--\":114:126   */\n      add\n        /* \"--CODEGEN--\":107:126   */\n      swap1\n      pop\n        /* \"--CODEGEN--\":148:150   */\n      0x20\n        /* \"--CODEGEN--\":143:146   */\n      dup4\n        /* \"--CODEGEN--\":139:151   */\n      sub\n        /* \"--CODEGEN--\":132:151   */\n      swap3\n      pop\n        /* \"--CODEGEN--\":36:189   */\n      jump(tag_70)\n    tag_71:\n        /* \"--CODEGEN--\":274:275   */\n      0x1\n        /* \"--CODEGEN--\":267:270   */\n      dup4\n        /* \"--CODEGEN--\":263:265   */\n      0x20\n        /* \"--CODEGEN--\":259:271   */\n      sub\n        /* \"--CODEGEN--\":254:257   */\n      0x100\n        /* \"--CODEGEN--\":250:272   */\n      exp\n        /* \"--CODEGEN--\":246:276   */\n      sub\n        /* \"--CODEGEN--\":315:319   */\n      dup1\n        /* \"--CODEGEN--\":311:320   */\n      not\n        /* \"--CODEGEN--\":305:308   */\n      dup3\n        /* \"--CODEGEN--\":299:309   */\n      mload\n        /* \"--CODEGEN--\":295:321   */\n      and\n        /* \"--CODEGEN--\":356:360   */\n      dup2\n        /* \"--CODEGEN--\":350:353   */\n      dup5\n        /* \"--CODEGEN--\":344:354   */\n      mload\n        /* \"--CODEGEN--\":340:361   */\n      and\n        /* \"--CODEGEN--\":389:396   */\n      dup1\n        /* \"--CODEGEN--\":380:387   */\n      dup3\n        /* \"--CODEGEN--\":377:397   */\n      or\n        /* \"--CODEGEN--\":372:375   */\n      dup6\n        /* \"--CODEGEN--\":365:398   */\n      mstore\n        /* \"--CODEGEN--\":3:402   */\n      pop\n      pop\n      pop\n        /* \"shoot/3/数组长度溢出/1.sol\":3847:3909  keccak256(abi.encodePacked(uint256(uint160(addr)),uint256(2))) */\n      pop\n      pop\n      pop\n      swap1\n      pop\n      add\n      swap2\n      pop\n      pop\n      mload(0x40)\n      dup1\n      swap2\n      sub\n      swap1\n      keccak256\n        /* \"shoot/3/数组长度溢出/1.sol\":3840:3909  return keccak256(abi.encodePacked(uint256(uint160(addr)),uint256(2))) */\n      swap1\n      pop\n        /* \"shoot/3/数组长度溢出/1.sol\":3763:3917  function getUserArrSolt(address addr) public view returns(bytes32){\r... */\n      swap2\n      swap1\n      pop\n      jump\t// out\n        /* \"shoot/3/数组长度溢出/1.sol\":4362:4516  function getBalanceSolt(address addr) public view returns(bytes32){\r... */\n    tag_36:\n        /* \"shoot/3/数组长度溢出/1.sol\":4420:4427  bytes32 */\n      0x0\n        /* \"shoot/3/数组长度溢出/1.sol\":4489:4493  addr */\n      dup2\n        /* \"shoot/3/数组长度溢出/1.sol\":4473:4495  uint256(uint160(addr)) */\n      0xffffffffffffffffffffffffffffffffffffffff\n      and\n        /* \"shoot/3/数组长度溢出/1.sol\":4504:4505  1 */\n      0x1\n        /* \"shoot/3/数组长度溢出/1.sol\":4456:4507  abi.encodePacked(uint256(uint160(addr)),uint256(1)) */\n      add(0x20, mload(0x40))\n      dup1\n      dup4\n      dup2\n      mstore\n      0x20\n      add\n      dup3\n      dup2\n      mstore\n      0x20\n      add\n      swap3\n      pop\n      pop\n      pop\n      mload(0x40)\n        /* \"--CODEGEN--\":49:53   */\n      0x20\n        /* \"--CODEGEN--\":39:46   */\n      dup2\n        /* \"--CODEGEN--\":30:37   */\n      dup4\n        /* \"--CODEGEN--\":26:47   */\n      sub\n        /* \"--CODEGEN--\":22:54   */\n      sub\n        /* \"--CODEGEN--\":13:20   */\n      dup2\n        /* \"--CODEGEN--\":6:55   */\n      mstore\n        /* \"shoot/3/数组长度溢出/1.sol\":4456:4507  abi.encodePacked(uint256(uint160(addr)),uint256(1)) */\n      swap1\n      0x40\n      mstore\n        /* \"shoot/3/数组长度溢出/1.sol\":4446:4508  keccak256(abi.encodePacked(uint256(uint160(addr)),uint256(1))) */\n      mload(0x40)\n      dup1\n      dup3\n      dup1\n      mload\n      swap1\n      0x20\n      add\n      swap1\n      dup1\n      dup4\n      dup4\n        /* \"--CODEGEN--\":36:189   */\n    tag_74:\n        /* \"--CODEGEN--\":66:68   */\n      0x20\n        /* \"--CODEGEN--\":61:64   */\n      dup4\n        /* \"--CODEGEN--\":58:69   */\n      lt\n        /* \"--CODEGEN--\":51:70   */\n      iszero\n        /* \"--CODEGEN--\":36:189   */\n      iszero\n      tag_75\n      jumpi\n        /* \"--CODEGEN--\":182:185   */\n      dup1\n        /* \"--CODEGEN--\":176:186   */\n      mload\n        /* \"--CODEGEN--\":171:174   */\n      dup3\n        /* \"--CODEGEN--\":164:187   */\n      mstore\n        /* \"--CODEGEN--\":98:100   */\n      0x20\n        /* \"--CODEGEN--\":93:96   */\n      dup3\n        /* \"--CODEGEN--\":89:101   */\n      add\n        /* \"--CODEGEN--\":82:101   */\n      swap2\n      pop\n        /* \"--CODEGEN--\":123:125   */\n      0x20\n        /* \"--CODEGEN--\":118:121   */\n      dup2\n        /* \"--CODEGEN--\":114:126   */\n      add\n        /* \"--CODEGEN--\":107:126   */\n      swap1\n      pop\n        /* \"--CODEGEN--\":148:150   */\n      0x20\n        /* \"--CODEGEN--\":143:146   */\n      dup4\n        /* \"--CODEGEN--\":139:151   */\n      sub\n        /* \"--CODEGEN--\":132:151   */\n      swap3\n      pop\n        /* \"--CODEGEN--\":36:189   */\n      jump(tag_74)\n    tag_75:\n        /* \"--CODEGEN--\":274:275   */\n      0x1\n        /* \"--CODEGEN--\":267:270   */\n      dup4\n        /* \"--CODEGEN--\":263:265   */\n      0x20\n        /* \"--CODEGEN--\":259:271   */\n      sub\n        /* \"--CODEGEN--\":254:257   */\n      0x100\n        /* \"--CODEGEN--\":250:272   */\n      exp\n        /* \"--CODEGEN--\":246:276   */\n      sub\n        /* \"--CODEGEN--\":315:319   */\n      dup1\n        /* \"--CODEGEN--\":311:320   */\n      not\n        /* \"--CODEGEN--\":305:308   */\n      dup3\n        /* \"--CODEGEN--\":299:309   */\n      mload\n        /* \"--CODEGEN--\":295:321   */\n      and\n        /* \"--CODEGEN--\":356:360   */\n      dup2\n        /* \"--CODEGEN--\":350:353   */\n      dup5\n        /* \"--CODEGEN--\":344:354   */\n      mload\n        /* \"--CODEGEN--\":340:361   */\n      and\n        /* \"--CODEGEN--\":389:396   */\n      dup1\n        /* \"--CODEGEN--\":380:387   */\n      dup3\n        /* \"--CODEGEN--\":377:397   */\n      or\n        /* \"--CODEGEN--\":372:375   */\n      dup6\n        /* \"--CODEGEN--\":365:398   */\n      mstore\n        /* \"--CODEGEN--\":3:402   */\n      pop\n      pop\n      pop\n        /* \"shoot/3/数组长度溢出/1.sol\":4446:4508  keccak256(abi.encodePacked(uint256(uint160(addr)),uint256(1))) */\n      pop\n      pop\n      pop\n      swap1\n      pop\n      add\n      swap2\n      pop\n      pop\n      mload(0x40)\n      dup1\n      swap2\n      sub\n      swap1\n      keccak256\n        /* \"shoot/3/数组长度溢出/1.sol\":4439:4508  return keccak256(abi.encodePacked(uint256(uint160(addr)),uint256(1))) */\n      swap1\n      pop\n        /* \"shoot/3/数组长度溢出/1.sol\":4362:4516  function getBalanceSolt(address addr) public view returns(bytes32){\r... */\n      swap2\n      swap1\n      pop\n      jump\t// out\n        /* \"shoot/3/数组长度溢出/1.sol\":4689:4846  function getBalacneIndes(address addr) public view returns(uint256){\r... */\n    tag_39:\n        /* \"shoot/3/数组长度溢出/1.sol\":4748:4755  uint256 */\n      0x0\n        /* \"shoot/3/数组长度溢出/1.sol\":4837:4838  2 */\n      0x2\n        /* \"shoot/3/数组长度溢出/1.sol\":4815:4832  getUserSolt(addr) */\n      tag_78\n        /* \"shoot/3/数组长度溢出/1.sol\":4827:4831  addr */\n      dup4\n        /* \"shoot/3/数组长度溢出/1.sol\":4815:4826  getUserSolt */\n      tag_30\n        /* \"shoot/3/数组长度溢出/1.sol\":4815:4832  getUserSolt(addr) */\n      jump\t// in\n    tag_78:\n        /* \"shoot/3/数组长度溢出/1.sol\":4807:4833  uint256(getUserSolt(addr)) */\n      0x1\n      swap1\n      div\n        /* \"shoot/3/数组长度溢出/1.sol\":4783:4803  getBalanceSolt(addr) */\n      tag_79\n        /* \"shoot/3/数组长度溢出/1.sol\":4798:4802  addr */\n      dup5\n        /* \"shoot/3/数组长度溢出/1.sol\":4783:4797  getBalanceSolt */\n      tag_36\n        /* \"shoot/3/数组长度溢出/1.sol\":4783:4803  getBalanceSolt(addr) */\n      jump\t// in\n    tag_79:\n        /* \"shoot/3/数组长度溢出/1.sol\":4775:4804  uint256(getBalanceSolt(addr)) */\n      0x1\n      swap1\n      div\n        /* \"shoot/3/数组长度溢出/1.sol\":4775:4833  uint256(getBalanceSolt(addr)) - uint256(getUserSolt(addr)) */\n      sub\n        /* \"shoot/3/数组长度溢出/1.sol\":4774:4838  (uint256(getBalanceSolt(addr)) - uint256(getUserSolt(addr))) / 2 */\n      dup2\n      iszero\n      iszero\n      tag_80\n      jumpi\n      invalid\n    tag_80:\n      div\n        /* \"shoot/3/数组长度溢出/1.sol\":4767:4838  return (uint256(getBalanceSolt(addr)) - uint256(getUserSolt(addr))) / 2 */\n      swap1\n      pop\n        /* \"shoot/3/数组长度溢出/1.sol\":4689:4846  function getBalacneIndes(address addr) public view returns(uint256){\r... */\n      swap2\n      swap1\n      pop\n      jump\t// out\n        /* \"shoot/3/数组长度溢出/1.sol\":4215:4354  function getUserIndex(address addr) public view returns(uint256){\r... */\n    tag_42:\n        /* \"shoot/3/数组长度溢出/1.sol\":4271:4278  uint256 */\n      0x0\n        /* \"shoot/3/数组长度溢出/1.sol\":4345:4346  2 */\n      0x2\n        /* \"shoot/3/数组长度溢出/1.sol\":4340:4341  1 */\n      0x1\n        /* \"shoot/3/数组长度溢出/1.sol\":4319:4336  getUserSolt(addr) */\n      tag_82\n        /* \"shoot/3/数组长度溢出/1.sol\":4331:4335  addr */\n      dup5\n        /* \"shoot/3/数组长度溢出/1.sol\":4319:4330  getUserSolt */\n      tag_30\n        /* \"shoot/3/数组长度溢出/1.sol\":4319:4336  getUserSolt(addr) */\n      jump\t// in\n    tag_82:\n        /* \"shoot/3/数组长度溢出/1.sol\":4311:4337  uint256(getUserSolt(addr)) */\n      0x1\n      swap1\n      div\n        /* \"shoot/3/数组长度溢出/1.sol\":4298:4308  2**256 - 1 */\n      0xffffffffffffffffffffffffffffffffffffffffffffffffffffffffffffffff\n        /* \"shoot/3/数组长度溢出/1.sol\":4298:4337  2**256 - 1 - uint256(getUserSolt(addr)) */\n      sub\n        /* \"shoot/3/数组长度溢出/1.sol\":4298:4341  2**256 - 1 - uint256(getUserSolt(addr)) + 1 */\n      add\n        /* \"shoot/3/数组长度溢出/1.sol\":4297:4346  (2**256 - 1 - uint256(getUserSolt(addr)) + 1) / 2 */\n      dup2\n      iszero\n      iszero\n      tag_83\n      jumpi\n      invalid\n    tag_83:\n      div\n        /* \"shoot/3/数组长度溢出/1.sol\":4290:4346  return (2**256 - 1 - uint256(getUserSolt(addr)) + 1) / 2 */\n      swap1\n      pop\n        /* \"shoot/3/数组长度溢出/1.sol\":4215:4354  function getUserIndex(address addr) public view returns(uint256){\r... */\n      swap2\n      swap1\n      pop\n      jump\t// out\n\n    auxdata: 0xa165627a7a723058201493c89c851385e9855f3a994ddbbe868ffa908ffd88a2e0be978ae6097b853c0029\n}\n",
				"bytecode": {
					"linkReferences": {},
					"object": "608060405234801561001057600080fd5b50604051602080610c8b83398101806040528101908080519060200190929190505050806000806101000a81548173ffffffffffffffffffffffffffffffffffffffff021916908373ffffffffffffffffffffffffffffffffffffffff1602179055506000809054906101000a900473ffffffffffffffffffffffffffffffffffffffff1673ffffffffffffffffffffffffffffffffffffffff1663370158ea6040518163ffffffff167c0100000000000000000000000000000000000000000000000000000000028152600401602060405180830381600087803b1580156100f857600080fd5b505af115801561010c573d6000803e3d6000fd5b505050506040513d602081101561012257600080fd5b8101908080519060200190929190505050600160006101000a81548173ffffffffffffffffffffffffffffffffffffffff021916908373ffffffffffffffffffffffffffffffffffffffff16021790555050610b08806101836000396000f300608060405260043610610099576000357c0100000000000000000000000000000000000000000000000000000000900463ffffffff168063142052341461015557806329788bcc146101ac5780634d6849d2146101f157806350f35753146102485780636dd5fdf11461025f578063a94fe3f4146102be578063ca6064291461031d578063d947f7351461037c578063ee9907a4146103d3575b600280541015610153576001600260008282540192505081905550600160009054906101000a900473ffffffffffffffffffffffffffffffffffffffff1673ffffffffffffffffffffffffffffffffffffffff1663026ff05e6040518163ffffffff167c0100000000000000000000000000000000000000000000000000000000028152600401600060405180830381600087803b15801561013a57600080fd5b505af115801561014e573d6000803e3d6000fd5b505050505b005b34801561016157600080fd5b50610196600480360381019080803573ffffffffffffffffffffffffffffffffffffffff16906020019092919050505061042a565b6040518082815260200191505060405180910390f35b3480156101b857600080fd5b506101db600480360381019080803560001916906020019092919050505061045a565b6040518082815260200191505060405180910390f35b3480156101fd57600080fd5b50610232600480360381019080803573ffffffffffffffffffffffffffffffffffffffff169060200190929190505050610468565b6040518082815260200191505060405180910390f35b34801561025457600080fd5b5061025d6104af565b005b34801561026b57600080fd5b506102a0600480360381019080803573ffffffffffffffffffffffffffffffffffffffff169060200190929190505050610876565b60405180826000191660001916815260200191505060405180910390f35b3480156102ca57600080fd5b506102ff600480360381019080803573ffffffffffffffffffffffffffffffffffffffff169060200190929190505050610911565b60405180826000191660001916815260200191505060405180910390f35b34801561032957600080fd5b5061035e600480360381019080803573ffffffffffffffffffffffffffffffffffffffff1690602001909291905050506109bb565b60405180826000191660001916815260200191505060405180910390f35b34801561038857600080fd5b506103bd600480360381019080803573ffffffffffffffffffffffffffffffffffffffff169060200190929190505050610a65565b6040518082815260200191505060405180910390f35b3480156103df57600080fd5b50610414600480360381019080803573ffffffffffffffffffffffffffffffffffffffff169060200190929190505050610a95565b6040518082815260200191505060405180910390f35b6000600261043783610876565b60019004610444846109bb565b600190040381151561045257fe5b069050919050565b600081600190049050919050565b60006002600161047784610876565b600190047fffffffffffffffffffffffffffffffffffffffffffffffffffffffffffffffff03018115156104a757fe5b069050919050565b600160009054906101000a900473ffffffffffffffffffffffffffffffffffffffff1673ffffffffffffffffffffffffffffffffffffffff166318b8275a346040518263ffffffff167c01000000000000000000000000000000000000000000000000000000000281526004018080602001828103825260028152602001807f7a700000000000000000000000000000000000000000000000000000000000008152506020019150506000604051808303818588803b15801561057157600080fd5b505af1158015610585573d6000803e3d6000fd5b5050505050600160009054906101000a900473ffffffffffffffffffffffffffffffffffffffff1673ffffffffffffffffffffffffffffffffffffffff1663026ff05e6040518163ffffffff167c0100000000000000000000000000000000000000000000000000000000028152600401600060405180830381600087803b15801561061057600080fd5b505af1158015610624573d6000803e3d6000fd5b50505050600160009054906101000a900473ffffffffffffffffffffffffffffffffffffffff1673ffffffffffffffffffffffffffffffffffffffff1663fe55932a61066f30610a95565b6040518263ffffffff167c0100000000000000000000000000000000000000000000000000000000028152600401808281526020018060200182810382526000815260200160200192505050600060405180830381600087803b1580156106d557600080fd5b505af11580156106e9573d6000803e3d6000fd5b50505050600160009054906101000a900473ffffffffffffffffffffffffffffffffffffffff1673ffffffffffffffffffffffffffffffffffffffff1663fe55932a61073430610a65565b6040518263ffffffff167c01000000000000000000000000000000000000000000000000000000000281526004018082815260200180602001828103825260148152602001807f737373737373737373737373737373737373737300000000000000000000000081525060200192505050600060405180830381600087803b1580156107bf57600080fd5b505af11580156107d3573d6000803e3d6000fd5b505050506000809054906101000a900473ffffffffffffffffffffffffffffffffffffffff1673ffffffffffffffffffffffffffffffffffffffff1663fa391c646040518163ffffffff167c0100000000000000000000000000000000000000000000000000000000028152600401600060405180830381600087803b15801561085c57600080fd5b505af1158015610870573d6000803e3d6000fd5b50505050565b600061088182610911565b6040516020018082600019166000191681526020019150506040516020818303038152906040526040518082805190602001908083835b6020831015156108dd57805182526020820191506020810190506020830392506108b8565b6001836020036101000a03801982511681845116808217855250505050505090500191505060405180910390209050919050565b60008173ffffffffffffffffffffffffffffffffffffffff16600260405160200180838152602001828152602001925050506040516020818303038152906040526040518082805190602001908083835b6020831015156109875780518252602082019150602081019050602083039250610962565b6001836020036101000a03801982511681845116808217855250505050505090500191505060405180910390209050919050565b60008173ffffffffffffffffffffffffffffffffffffffff16600160405160200180838152602001828152602001925050506040516020818303038152906040526040518082805190602001908083835b602083101515610a315780518252602082019150602081019050602083039250610a0c565b6001836020036101000a03801982511681845116808217855250505050505090500191505060405180910390209050919050565b60006002610a7283610876565b60019004610a7f846109bb565b6001900403811515610a8d57fe5b049050919050565b600060026001610aa484610876565b600190047fffffffffffffffffffffffffffffffffffffffffffffffffffffffffffffffff0301811515610ad457fe5b0490509190505600a165627a7a723058201493c89c851385e9855f3a994ddbbe868ffa908ffd88a2e0be978ae6097b853c0029",
					"opcodes": "PUSH1 0x80 PUSH1 0x40 MSTORE CALLVALUE DUP1 ISZERO PUSH2 0x10 JUMPI PUSH1 0x0 DUP1 REVERT JUMPDEST POP PUSH1 0x40 MLOAD PUSH1 0x20 DUP1 PUSH2 0xC8B DUP4 CODECOPY DUP2 ADD DUP1 PUSH1 0x40 MSTORE DUP2 ADD SWAP1 DUP1 DUP1 MLOAD SWAP1 PUSH1 0x20 ADD SWAP1 SWAP3 SWAP2 SWAP1 POP POP POP DUP1 PUSH1 0x0 DUP1 PUSH2 0x100 EXP DUP2 SLOAD DUP2 PUSH20 0xFFFFFFFFFFFFFFFFFFFFFFFFFFFFFFFFFFFFFFFF MUL NOT AND SWAP1 DUP4 PUSH20 0xFFFFFFFFFFFFFFFFFFFFFFFFFFFFFFFFFFFFFFFF AND MUL OR SWAP1 SSTORE POP PUSH1 0x0 DUP1 SWAP1 SLOAD SWAP1 PUSH2 0x100 EXP SWAP1 DIV PUSH20 0xFFFFFFFFFFFFFFFFFFFFFFFFFFFFFFFFFFFFFFFF AND PUSH20 0xFFFFFFFFFFFFFFFFFFFFFFFFFFFFFFFFFFFFFFFF AND PUSH4 0x370158EA PUSH1 0x40 MLOAD DUP2 PUSH4 0xFFFFFFFF AND PUSH29 0x100000000000000000000000000000000000000000000000000000000 MUL DUP2 MSTORE PUSH1 0x4 ADD PUSH1 0x20 PUSH1 0x40 MLOAD DUP1 DUP4 SUB DUP2 PUSH1 0x0 DUP8 DUP1 EXTCODESIZE ISZERO DUP1 ISZERO PUSH2 0xF8 JUMPI PUSH1 0x0 DUP1 REVERT JUMPDEST POP GAS CALL ISZERO DUP1 ISZERO PUSH2 0x10C JUMPI RETURNDATASIZE PUSH1 0x0 DUP1 RETURNDATACOPY RETURNDATASIZE PUSH1 0x0 REVERT JUMPDEST POP POP POP POP PUSH1 0x40 MLOAD RETURNDATASIZE PUSH1 0x20 DUP2 LT ISZERO PUSH2 0x122 JUMPI PUSH1 0x0 DUP1 REVERT JUMPDEST DUP2 ADD SWAP1 DUP1 DUP1 MLOAD SWAP1 PUSH1 0x20 ADD SWAP1 SWAP3 SWAP2 SWAP1 POP POP POP PUSH1 0x1 PUSH1 0x0 PUSH2 0x100 EXP DUP2 SLOAD DUP2 PUSH20 0xFFFFFFFFFFFFFFFFFFFFFFFFFFFFFFFFFFFFFFFF MUL NOT AND SWAP1 DUP4 PUSH20 0xFFFFFFFFFFFFFFFFFFFFFFFFFFFFFFFFFFFFFFFF AND MUL OR SWAP1 SSTORE POP POP PUSH2 0xB08 DUP1 PUSH2 0x183 PUSH1 0x0 CODECOPY PUSH1 0x0 RETURN STOP PUSH1 0x80 PUSH1 0x40 MSTORE PUSH1 0x4 CALLDATASIZE LT PUSH2 0x99 JUMPI PUSH1 0x0 CALLDATALOAD PUSH29 0x100000000000000000000000000000000000000000000000000000000 SWAP1 DIV PUSH4 0xFFFFFFFF AND DUP1 PUSH4 0x14205234 EQ PUSH2 0x155 JUMPI DUP1 PUSH4 0x29788BCC EQ PUSH2 0x1AC JUMPI DUP1 PUSH4 0x4D6849D2 EQ PUSH2 0x1F1 JUMPI DUP1 PUSH4 0x50F35753 EQ PUSH2 0x248 JUMPI DUP1 PUSH4 0x6DD5FDF1 EQ PUSH2 0x25F JUMPI DUP1 PUSH4 0xA94FE3F4 EQ PUSH2 0x2BE JUMPI DUP1 PUSH4 0xCA606429 EQ PUSH2 0x31D JUMPI DUP1 PUSH4 0xD947F735 EQ PUSH2 0x37C JUMPI DUP1 PUSH4 0xEE9907A4 EQ PUSH2 0x3D3 JUMPI JUMPDEST PUSH1 0x2 DUP1 SLOAD LT ISZERO PUSH2 0x153 JUMPI PUSH1 0x1 PUSH1 0x2 PUSH1 0x0 DUP3 DUP3 SLOAD ADD SWAP3 POP POP DUP2 SWAP1 SSTORE POP PUSH1 0x1 PUSH1 0x0 SWAP1 SLOAD SWAP1 PUSH2 0x100 EXP SWAP1 DIV PUSH20 0xFFFFFFFFFFFFFFFFFFFFFFFFFFFFFFFFFFFFFFFF AND PUSH20 0xFFFFFFFFFFFFFFFFFFFFFFFFFFFFFFFFFFFFFFFF AND PUSH4 0x26FF05E PUSH1 0x40 MLOAD DUP2 PUSH4 0xFFFFFFFF AND PUSH29 0x100000000000000000000000000000000000000000000000000000000 MUL DUP2 MSTORE PUSH1 0x4 ADD PUSH1 0x0 PUSH1 0x40 MLOAD DUP1 DUP4 SUB DUP2 PUSH1 0x0 DUP8 DUP1 EXTCODESIZE ISZERO DUP1 ISZERO PUSH2 0x13A JUMPI PUSH1 0x0 DUP1 REVERT JUMPDEST POP GAS CALL ISZERO DUP1 ISZERO PUSH2 0x14E JUMPI RETURNDATASIZE PUSH1 0x0 DUP1 RETURNDATACOPY RETURNDATASIZE PUSH1 0x0 REVERT JUMPDEST POP POP POP POP JUMPDEST STOP JUMPDEST CALLVALUE DUP1 ISZERO PUSH2 0x161 JUMPI PUSH1 0x0 DUP1 REVERT JUMPDEST POP PUSH2 0x196 PUSH1 0x4 DUP1 CALLDATASIZE SUB DUP2 ADD SWAP1 DUP1 DUP1 CALLDATALOAD PUSH20 0xFFFFFFFFFFFFFFFFFFFFFFFFFFFFFFFFFFFFFFFF AND SWAP1 PUSH1 0x20 ADD SWAP1 SWAP3 SWAP2 SWAP1 POP POP POP PUSH2 0x42A JUMP JUMPDEST PUSH1 0x40 MLOAD DUP1 DUP3 DUP2 MSTORE PUSH1 0x20 ADD SWAP2 POP POP PUSH1 0x40 MLOAD DUP1 SWAP2 SUB SWAP1 RETURN JUMPDEST CALLVALUE DUP1 ISZERO PUSH2 0x1B8 JUMPI PUSH1 0x0 DUP1 REVERT JUMPDEST POP PUSH2 0x1DB PUSH1 0x4 DUP1 CALLDATASIZE SUB DUP2 ADD SWAP1 DUP1 DUP1 CALLDATALOAD PUSH1 0x0 NOT AND SWAP1 PUSH1 0x20 ADD SWAP1 SWAP3 SWAP2 SWAP1 POP POP POP PUSH2 0x45A JUMP JUMPDEST PUSH1 0x40 MLOAD DUP1 DUP3 DUP2 MSTORE PUSH1 0x20 ADD SWAP2 POP POP PUSH1 0x40 MLOAD DUP1 SWAP2 SUB SWAP1 RETURN JUMPDEST CALLVALUE DUP1 ISZERO PUSH2 0x1FD JUMPI PUSH1 0x0 DUP1 REVERT JUMPDEST POP PUSH2 0x232 PUSH1 0x4 DUP1 CALLDATASIZE SUB DUP2 ADD SWAP1 DUP1 DUP1 CALLDATALOAD PUSH20 0xFFFFFFFFFFFFFFFFFFFFFFFFFFFFFFFFFFFFFFFF AND SWAP1 PUSH1 0x20 ADD SWAP1 SWAP3 SWAP2 SWAP1 POP POP POP PUSH2 0x468 JUMP JUMPDEST PUSH1 0x40 MLOAD DUP1 DUP3 DUP2 MSTORE PUSH1 0x20 ADD SWAP2 POP POP PUSH1 0x40 MLOAD DUP1 SWAP2 SUB SWAP1 RETURN JUMPDEST CALLVALUE DUP1 ISZERO PUSH2 0x254 JUMPI PUSH1 0x0 DUP1 REVERT JUMPDEST POP PUSH2 0x25D PUSH2 0x4AF JUMP JUMPDEST STOP JUMPDEST CALLVALUE DUP1 ISZERO PUSH2 0x26B JUMPI PUSH1 0x0 DUP1 REVERT JUMPDEST POP PUSH2 0x2A0 PUSH1 0x4 DUP1 CALLDATASIZE SUB DUP2 ADD SWAP1 DUP1 DUP1 CALLDATALOAD PUSH20 0xFFFFFFFFFFFFFFFFFFFFFFFFFFFFFFFFFFFFFFFF AND SWAP1 PUSH1 0x20 ADD SWAP1 SWAP3 SWAP2 SWAP1 POP POP POP PUSH2 0x876 JUMP JUMPDEST PUSH1 0x40 MLOAD DUP1 DUP3 PUSH1 0x0 NOT AND PUSH1 0x0 NOT AND DUP2 MSTORE PUSH1 0x20 ADD SWAP2 POP POP PUSH1 0x40 MLOAD DUP1 SWAP2 SUB SWAP1 RETURN JUMPDEST CALLVALUE DUP1 ISZERO PUSH2 0x2CA JUMPI PUSH1 0x0 DUP1 REVERT JUMPDEST POP PUSH2 0x2FF PUSH1 0x4 DUP1 CALLDATASIZE SUB DUP2 ADD SWAP1 DUP1 DUP1 CALLDATALOAD PUSH20 0xFFFFFFFFFFFFFFFFFFFFFFFFFFFFFFFFFFFFFFFF AND SWAP1 PUSH1 0x20 ADD SWAP1 SWAP3 SWAP2 SWAP1 POP POP POP PUSH2 0x911 JUMP JUMPDEST PUSH1 0x40 MLOAD DUP1 DUP3 PUSH1 0x0 NOT AND PUSH1 0x0 NOT AND DUP2 MSTORE PUSH1 0x20 ADD SWAP2 POP POP PUSH1 0x40 MLOAD DUP1 SWAP2 SUB SWAP1 RETURN JUMPDEST CALLVALUE DUP1 ISZERO PUSH2 0x329 JUMPI PUSH1 0x0 DUP1 REVERT JUMPDEST POP PUSH2 0x35E PUSH1 0x4 DUP1 CALLDATASIZE SUB DUP2 ADD SWAP1 DUP1 DUP1 CALLDATALOAD PUSH20 0xFFFFFFFFFFFFFFFFFFFFFFFFFFFFFFFFFFFFFFFF AND SWAP1 PUSH1 0x20 ADD SWAP1 SWAP3 SWAP2 SWAP1 POP POP POP PUSH2 0x9BB JUMP JUMPDEST PUSH1 0x40 MLOAD DUP1 DUP3 PUSH1 0x0 NOT AND PUSH1 0x0 NOT AND DUP2 MSTORE PUSH1 0x20 ADD SWAP2 POP POP PUSH1 0x40 MLOAD DUP1 SWAP2 SUB SWAP1 RETURN JUMPDEST CALLVALUE DUP1 ISZERO PUSH2 0x388 JUMPI PUSH1 0x0 DUP1 REVERT JUMPDEST POP PUSH2 0x3BD PUSH1 0x4 DUP1 CALLDATASIZE SUB DUP2 ADD SWAP1 DUP1 DUP1 CALLDATALOAD PUSH20 0xFFFFFFFFFFFFFFFFFFFFFFFFFFFFFFFFFFFFFFFF AND SWAP1 PUSH1 0x20 ADD SWAP1 SWAP3 SWAP2 SWAP1 POP POP POP PUSH2 0xA65 JUMP JUMPDEST PUSH1 0x40 MLOAD DUP1 DUP3 DUP2 MSTORE PUSH1 0x20 ADD SWAP2 POP POP PUSH1 0x40 MLOAD DUP1 SWAP2 SUB SWAP1 RETURN JUMPDEST CALLVALUE DUP1 ISZERO PUSH2 0x3DF JUMPI PUSH1 0x0 DUP1 REVERT JUMPDEST POP PUSH2 0x414 PUSH1 0x4 DUP1 CALLDATASIZE SUB DUP2 ADD SWAP1 DUP1 DUP1 CALLDATALOAD PUSH20 0xFFFFFFFFFFFFFFFFFFFFFFFFFFFFFFFFFFFFFFFF AND SWAP1 PUSH1 0x20 ADD SWAP1 SWAP3 SWAP2 SWAP1 POP POP POP PUSH2 0xA95 JUMP JUMPDEST PUSH1 0x40 MLOAD DUP1 DUP3 DUP2 MSTORE PUSH1 0x20 ADD SWAP2 POP POP PUSH1 0x40 MLOAD DUP1 SWAP2 SUB SWAP1 RETURN JUMPDEST PUSH1 0x0 PUSH1 0x2 PUSH2 0x437 DUP4 PUSH2 0x876 JUMP JUMPDEST PUSH1 0x1 SWAP1 DIV PUSH2 0x444 DUP5 PUSH2 0x9BB JUMP JUMPDEST PUSH1 0x1 SWAP1 DIV SUB DUP2 ISZERO ISZERO PUSH2 0x452 JUMPI INVALID JUMPDEST MOD SWAP1 POP SWAP2 SWAP1 POP JUMP JUMPDEST PUSH1 0x0 DUP2 PUSH1 0x1 SWAP1 DIV SWAP1 POP SWAP2 SWAP1 POP JUMP JUMPDEST PUSH1 0x0 PUSH1 0x2 PUSH1 0x1 PUSH2 0x477 DUP5 PUSH2 0x876 JUMP JUMPDEST PUSH1 0x1 SWAP1 DIV PUSH32 0xFFFFFFFFFFFFFFFFFFFFFFFFFFFFFFFFFFFFFFFFFFFFFFFFFFFFFFFFFFFFFFFF SUB ADD DUP2 ISZERO ISZERO PUSH2 0x4A7 JUMPI INVALID JUMPDEST MOD SWAP1 POP SWAP2 SWAP1 POP JUMP JUMPDEST PUSH1 0x1 PUSH1 0x0 SWAP1 SLOAD SWAP1 PUSH2 0x100 EXP SWAP1 DIV PUSH20 0xFFFFFFFFFFFFFFFFFFFFFFFFFFFFFFFFFFFFFFFF AND PUSH20 0xFFFFFFFFFFFFFFFFFFFFFFFFFFFFFFFFFFFFFFFF AND PUSH4 0x18B8275A CALLVALUE PUSH1 0x40 MLOAD DUP3 PUSH4 0xFFFFFFFF AND PUSH29 0x100000000000000000000000000000000000000000000000000000000 MUL DUP2 MSTORE PUSH1 0x4 ADD DUP1 DUP1 PUSH1 0x20 ADD DUP3 DUP2 SUB DUP3 MSTORE PUSH1 0x2 DUP2 MSTORE PUSH1 0x20 ADD DUP1 PUSH32 0x7A70000000000000000000000000000000000000000000000000000000000000 DUP2 MSTORE POP PUSH1 0x20 ADD SWAP2 POP POP PUSH1 0x0 PUSH1 0x40 MLOAD DUP1 DUP4 SUB DUP2 DUP6 DUP9 DUP1 EXTCODESIZE ISZERO DUP1 ISZERO PUSH2 0x571 JUMPI PUSH1 0x0 DUP1 REVERT JUMPDEST POP GAS CALL ISZERO DUP1 ISZERO PUSH2 0x585 JUMPI RETURNDATASIZE PUSH1 0x0 DUP1 RETURNDATACOPY RETURNDATASIZE PUSH1 0x0 REVERT JUMPDEST POP POP POP POP POP PUSH1 0x1 PUSH1 0x0 SWAP1 SLOAD SWAP1 PUSH2 0x100 EXP SWAP1 DIV PUSH20 0xFFFFFFFFFFFFFFFFFFFFFFFFFFFFFFFFFFFFFFFF AND PUSH20 0xFFFFFFFFFFFFFFFFFFFFFFFFFFFFFFFFFFFFFFFF AND PUSH4 0x26FF05E PUSH1 0x40 MLOAD DUP2 PUSH4 0xFFFFFFFF AND PUSH29 0x100000000000000000000000000000000000000000000000000000000 MUL DUP2 MSTORE PUSH1 0x4 ADD PUSH1 0x0 PUSH1 0x40 MLOAD DUP1 DUP4 SUB DUP2 PUSH1 0x0 DUP8 DUP1 EXTCODESIZE ISZERO DUP1 ISZERO PUSH2 0x610 JUMPI PUSH1 0x0 DUP1 REVERT JUMPDEST POP GAS CALL ISZERO DUP1 ISZERO PUSH2 0x624 JUMPI RETURNDATASIZE PUSH1 0x0 DUP1 RETURNDATACOPY RETURNDATASIZE PUSH1 0x0 REVERT JUMPDEST POP POP POP POP PUSH1 0x1 PUSH1 0x0 SWAP1 SLOAD SWAP1 PUSH2 0x100 EXP SWAP1 DIV PUSH20 0xFFFFFFFFFFFFFFFFFFFFFFFFFFFFFFFFFFFFFFFF AND PUSH20 0xFFFFFFFFFFFFFFFFFFFFFFFFFFFFFFFFFFFFFFFF AND PUSH4 0xFE55932A PUSH2 0x66F ADDRESS PUSH2 0xA95 JUMP JUMPDEST PUSH1 0x40 MLOAD DUP3 PUSH4 0xFFFFFFFF AND PUSH29 0x100000000000000000000000000000000000000000000000000000000 MUL DUP2 MSTORE PUSH1 0x4 ADD DUP1 DUP3 DUP2 MSTORE PUSH1 0x20 ADD DUP1 PUSH1 0x20 ADD DUP3 DUP2 SUB DUP3 MSTORE PUSH1 0x0 DUP2 MSTORE PUSH1 0x20 ADD PUSH1 0x20 ADD SWAP3 POP POP POP PUSH1 0x0 PUSH1 0x40 MLOAD DUP1 DUP4 SUB DUP2 PUSH1 0x0 DUP8 DUP1 EXTCODESIZE ISZERO DUP1 ISZERO PUSH2 0x6D5 JUMPI PUSH1 0x0 DUP1 REVERT JUMPDEST POP GAS CALL ISZERO DUP1 ISZERO PUSH2 0x6E9 JUMPI RETURNDATASIZE PUSH1 0x0 DUP1 RETURNDATACOPY RETURNDATASIZE PUSH1 0x0 REVERT JUMPDEST POP POP POP POP PUSH1 0x1 PUSH1 0x0 SWAP1 SLOAD SWAP1 PUSH2 0x100 EXP SWAP1 DIV PUSH20 0xFFFFFFFFFFFFFFFFFFFFFFFFFFFFFFFFFFFFFFFF AND PUSH20 0xFFFFFFFFFFFFFFFFFFFFFFFFFFFFFFFFFFFFFFFF AND PUSH4 0xFE55932A PUSH2 0x734 ADDRESS PUSH2 0xA65 JUMP JUMPDEST PUSH1 0x40 MLOAD DUP3 PUSH4 0xFFFFFFFF AND PUSH29 0x100000000000000000000000000000000000000000000000000000000 MUL DUP2 MSTORE PUSH1 0x4 ADD DUP1 DUP3 DUP2 MSTORE PUSH1 0x20 ADD DUP1 PUSH1 0x20 ADD DUP3 DUP2 SUB DUP3 MSTORE PUSH1 0x14 DUP2 MSTORE PUSH1 0x20 ADD DUP1 PUSH32 0x7373737373737373737373737373737373737373000000000000000000000000 DUP2 MSTORE POP PUSH1 0x20 ADD SWAP3 POP POP POP PUSH1 0x0 PUSH1 0x40 MLOAD DUP1 DUP4 SUB DUP2 PUSH1 0x0 DUP8 DUP1 EXTCODESIZE ISZERO DUP1 ISZERO PUSH2 0x7BF JUMPI PUSH1 0x0 DUP1 REVERT JUMPDEST POP GAS CALL ISZERO DUP1 ISZERO PUSH2 0x7D3 JUMPI RETURNDATASIZE PUSH1 0x0 DUP1 RETURNDATACOPY RETURNDATASIZE PUSH1 0x0 REVERT JUMPDEST POP POP POP POP PUSH1 0x0 DUP1 SWAP1 SLOAD SWAP1 PUSH2 0x100 EXP SWAP1 DIV PUSH20 0xFFFFFFFFFFFFFFFFFFFFFFFFFFFFFFFFFFFFFFFF AND PUSH20 0xFFFFFFFFFFFFFFFFFFFFFFFFFFFFFFFFFFFFFFFF AND PUSH4 0xFA391C64 PUSH1 0x40 MLOAD DUP2 PUSH4 0xFFFFFFFF AND PUSH29 0x100000000000000000000000000000000000000000000000000000000 MUL DUP2 MSTORE PUSH1 0x4 ADD PUSH1 0x0 PUSH1 0x40 MLOAD DUP1 DUP4 SUB DUP2 PUSH1 0x0 DUP8 DUP1 EXTCODESIZE ISZERO DUP1 ISZERO PUSH2 0x85C JUMPI PUSH1 0x0 DUP1 REVERT JUMPDEST POP GAS CALL ISZERO DUP1 ISZERO PUSH2 0x870 JUMPI RETURNDATASIZE PUSH1 0x0 DUP1 RETURNDATACOPY RETURNDATASIZE PUSH1 0x0 REVERT JUMPDEST POP POP POP POP JUMP JUMPDEST PUSH1 0x0 PUSH2 0x881 DUP3 PUSH2 0x911 JUMP JUMPDEST PUSH1 0x40 MLOAD PUSH1 0x20 ADD DUP1 DUP3 PUSH1 0x0 NOT AND PUSH1 0x0 NOT AND DUP2 MSTORE PUSH1 0x20 ADD SWAP2 POP POP PUSH1 0x40 MLOAD PUSH1 0x20 DUP2 DUP4 SUB SUB DUP2 MSTORE SWAP1 PUSH1 0x40 MSTORE PUSH1 0x40 MLOAD DUP1 DUP3 DUP1 MLOAD SWAP1 PUSH1 0x20 ADD SWAP1 DUP1 DUP4 DUP4 JUMPDEST PUSH1 0x20 DUP4 LT ISZERO ISZERO PUSH2 0x8DD JUMPI DUP1 MLOAD DUP3 MSTORE PUSH1 0x20 DUP3 ADD SWAP2 POP PUSH1 0x20 DUP2 ADD SWAP1 POP PUSH1 0x20 DUP4 SUB SWAP3 POP PUSH2 0x8B8 JUMP JUMPDEST PUSH1 0x1 DUP4 PUSH1 0x20 SUB PUSH2 0x100 EXP SUB DUP1 NOT DUP3 MLOAD AND DUP2 DUP5 MLOAD AND DUP1 DUP3 OR DUP6 MSTORE POP POP POP POP POP POP SWAP1 POP ADD SWAP2 POP POP PUSH1 0x40 MLOAD DUP1 SWAP2 SUB SWAP1 KECCAK256 SWAP1 POP SWAP2 SWAP1 POP JUMP JUMPDEST PUSH1 0x0 DUP2 PUSH20 0xFFFFFFFFFFFFFFFFFFFFFFFFFFFFFFFFFFFFFFFF AND PUSH1 0x2 PUSH1 0x40 MLOAD PUSH1 0x20 ADD DUP1 DUP4 DUP2 MSTORE PUSH1 0x20 ADD DUP3 DUP2 MSTORE PUSH1 0x20 ADD SWAP3 POP POP POP PUSH1 0x40 MLOAD PUSH1 0x20 DUP2 DUP4 SUB SUB DUP2 MSTORE SWAP1 PUSH1 0x40 MSTORE PUSH1 0x40 MLOAD DUP1 DUP3 DUP1 MLOAD SWAP1 PUSH1 0x20 ADD SWAP1 DUP1 DUP4 DUP4 JUMPDEST PUSH1 0x20 DUP4 LT ISZERO ISZERO PUSH2 0x987 JUMPI DUP1 MLOAD DUP3 MSTORE PUSH1 0x20 DUP3 ADD SWAP2 POP PUSH1 0x20 DUP2 ADD SWAP1 POP PUSH1 0x20 DUP4 SUB SWAP3 POP PUSH2 0x962 JUMP JUMPDEST PUSH1 0x1 DUP4 PUSH1 0x20 SUB PUSH2 0x100 EXP SUB DUP1 NOT DUP3 MLOAD AND DUP2 DUP5 MLOAD AND DUP1 DUP3 OR DUP6 MSTORE POP POP POP POP POP POP SWAP1 POP ADD SWAP2 POP POP PUSH1 0x40 MLOAD DUP1 SWAP2 SUB SWAP1 KECCAK256 SWAP1 POP SWAP2 SWAP1 POP JUMP JUMPDEST PUSH1 0x0 DUP2 PUSH20 0xFFFFFFFFFFFFFFFFFFFFFFFFFFFFFFFFFFFFFFFF AND PUSH1 0x1 PUSH1 0x40 MLOAD PUSH1 0x20 ADD DUP1 DUP4 DUP2 MSTORE PUSH1 0x20 ADD DUP3 DUP2 MSTORE PUSH1 0x20 ADD SWAP3 POP POP POP PUSH1 0x40 MLOAD PUSH1 0x20 DUP2 DUP4 SUB SUB DUP2 MSTORE SWAP1 PUSH1 0x40 MSTORE PUSH1 0x40 MLOAD DUP1 DUP3 DUP1 MLOAD SWAP1 PUSH1 0x20 ADD SWAP1 DUP1 DUP4 DUP4 JUMPDEST PUSH1 0x20 DUP4 LT ISZERO ISZERO PUSH2 0xA31 JUMPI DUP1 MLOAD DUP3 MSTORE PUSH1 0x20 DUP3 ADD SWAP2 POP PUSH1 0x20 DUP2 ADD SWAP1 POP PUSH1 0x20 DUP4 SUB SWAP3 POP PUSH2 0xA0C JUMP JUMPDEST PUSH1 0x1 DUP4 PUSH1 0x20 SUB PUSH2 0x100 EXP SUB DUP1 NOT DUP3 MLOAD AND DUP2 DUP5 MLOAD AND DUP1 DUP3 OR DUP6 MSTORE POP POP POP POP POP POP SWAP1 POP ADD SWAP2 POP POP PUSH1 0x40 MLOAD DUP1 SWAP2 SUB SWAP1 KECCAK256 SWAP1 POP SWAP2 SWAP1 POP JUMP JUMPDEST PUSH1 0x0 PUSH1 0x2 PUSH2 0xA72 DUP4 PUSH2 0x876 JUMP JUMPDEST PUSH1 0x1 SWAP1 DIV PUSH2 0xA7F DUP5 PUSH2 0x9BB JUMP JUMPDEST PUSH1 0x1 SWAP1 DIV SUB DUP2 ISZERO ISZERO PUSH2 0xA8D JUMPI INVALID JUMPDEST DIV SWAP1 POP SWAP2 SWAP1 POP JUMP JUMPDEST PUSH1 0x0 PUSH1 0x2 PUSH1 0x1 PUSH2 0xAA4 DUP5 PUSH2 0x876 JUMP JUMPDEST PUSH1 0x1 SWAP1 DIV PUSH32 0xFFFFFFFFFFFFFFFFFFFFFFFFFFFFFFFFFFFFFFFFFFFFFFFFFFFFFFFFFFFFFFFF SUB ADD DUP2 ISZERO ISZERO PUSH2 0xAD4 JUMPI INVALID JUMPDEST DIV SWAP1 POP SWAP2 SWAP1 POP JUMP STOP LOG1 PUSH6 0x627A7A723058 KECCAK256 EQ SWAP4 0xc8 SWAP13 DUP6 SGT DUP6 0xe9 DUP6 0x5f GASPRICE SWAP10 0x4d 0xdb 0xbe DUP7 DUP16 STATICCALL SWAP1 DUP16 REVERT DUP9 LOG2 0xe0 0xbe SWAP8 DUP11 0xe6 MULMOD PUSH28 0x853C0029000000000000000000000000000000000000000000000000 "
				},
				"gasEstimates": {
					"creation": {
						"codeDepositCost": "564800",
						"executionCost": "infinite",
						"totalCost": "infinite"
					},
					"external": {
						"": "infinite",
						"attract()": "infinite",
						"getBalacneIndes(address)": "infinite",
						"getBalanceAddress(address)": "infinite",
						"getBalanceSolt(address)": "infinite",
						"getUserAddress(address)": "infinite",
						"getUserArrSolt(address)": "infinite",
						"getUserIndex(address)": "infinite",
						"getUserSolt(address)": "infinite",
						"getuint256(bytes32)": "305"
					}
				},
				"methodIdentifiers": {
					"attract()": "50f35753",
					"getBalacneIndes(address)": "d947f735",
					"getBalanceAddress(address)": "14205234",
					"getBalanceSolt(address)": "ca606429",
					"getUserAddress(address)": "4d6849d2",
					"getUserArrSolt(address)": "a94fe3f4",
					"getUserIndex(address)": "ee9907a4",
					"getUserSolt(address)": "6dd5fdf1",
					"getuint256(bytes32)": "29788bcc"
				}
			},
			"userdoc": {
				"methods": {}
			}
		}
	}
}