{
	"shoot/3/数组长度溢出/1.sol": {
		"deploy": {
			"abi": [
				{
					"constant": true,
					"inputs": [
						{
							"name": "_addr",
							"type": "address"
						}
					],
					"name": "fig2",
					"outputs": [
						{
							"name": "",
							"type": "uint256"
						}
					],
					"payable": false,
					"stateMutability": "view",
					"type": "function"
				},
				{
					"constant": true,
					"inputs": [
						{
							"name": "_addr",
							"type": "address"
						}
					],
					"name": "arrayEle",
					"outputs": [
						{
							"name": "",
							"type": "bytes32"
						}
					],
					"payable": false,
					"stateMutability": "view",
					"type": "function"
				},
				{
					"constant": true,
					"inputs": [],
					"name": "user",
					"outputs": [
						{
							"name": "",
							"type": "address"
						}
					],
					"payable": false,
					"stateMutability": "view",
					"type": "function"
				},
				{
					"constant": true,
					"inputs": [
						{
							"name": "_addr",
							"type": "address"
						}
					],
					"name": "fig3",
					"outputs": [
						{
							"name": "",
							"type": "bytes32"
						}
					],
					"payable": false,
					"stateMutability": "view",
					"type": "function"
				},
				{
					"constant": true,
					"inputs": [
						{
							"name": "_addr",
							"type": "address"
						}
					],
					"name": "fig4",
					"outputs": [
						{
							"name": "",
							"type": "uint256"
						}
					],
					"payable": false,
					"stateMutability": "view",
					"type": "function"
				},
				{
					"constant": true,
					"inputs": [
						{
							"name": "_addr",
							"type": "address"
						}
					],
					"name": "fig5",
					"outputs": [
						{
							"name": "",
							"type": "uint256"
						}
					],
					"payable": false,
					"stateMutability": "view",
					"type": "function"
				},
				{
					"constant": false,
					"inputs": [
						{
							"name": "_addr",
							"type": "address"
						}
					],
					"name": "dep",
					"outputs": [],
					"payable": false,
					"stateMutability": "nonpayable",
					"type": "function"
				},
				{
					"constant": true,
					"inputs": [
						{
							"name": "_addr",
							"type": "address"
						}
					],
					"name": "fig1",
					"outputs": [
						{
							"name": "",
							"type": "uint256"
						}
					],
					"payable": false,
					"stateMutability": "view",
					"type": "function"
				},
				{
					"constant": true,
					"inputs": [
						{
							"name": "_addr",
							"type": "address"
						}
					],
					"name": "arrayStart",
					"outputs": [
						{
							"name": "",
							"type": "bytes32"
						}
					],
					"payable": false,
					"stateMutability": "view",
					"type": "function"
				}
			],
			"devdoc": {
				"methods": {}
			},
			"evm": {
				"assembly": "    /* \"shoot/3/数组长度溢出/1.sol\":1916:3183  contract deploy{\r... */\n  mstore(0x40, 0x80)\n  callvalue\n    /* \"--CODEGEN--\":8:17   */\n  dup1\n    /* \"--CODEGEN--\":5:7   */\n  iszero\n  tag_1\n  jumpi\n    /* \"--CODEGEN--\":30:31   */\n  0x0\n    /* \"--CODEGEN--\":27:28   */\n  dup1\n    /* \"--CODEGEN--\":20:32   */\n  revert\n    /* \"--CODEGEN--\":5:7   */\ntag_1:\n    /* \"shoot/3/数组长度溢出/1.sol\":1916:3183  contract deploy{\r... */\n  pop\n  dataSize(sub_0)\n  dup1\n  dataOffset(sub_0)\n  0x0\n  codecopy\n  0x0\n  return\nstop\n\nsub_0: assembly {\n        /* \"shoot/3/数组长度溢出/1.sol\":1916:3183  contract deploy{\r... */\n      mstore(0x40, 0x80)\n      jumpi(tag_1, lt(calldatasize, 0x4))\n      calldataload(0x0)\n      0x100000000000000000000000000000000000000000000000000000000\n      swap1\n      div\n      0xffffffff\n      and\n      dup1\n      0x110ade1\n      eq\n      tag_2\n      jumpi\n      dup1\n      0x3347825f\n      eq\n      tag_3\n      jumpi\n      dup1\n      0x4f8632ba\n      eq\n      tag_4\n      jumpi\n      dup1\n      0x7127998d\n      eq\n      tag_5\n      jumpi\n      dup1\n      0x7797d6df\n      eq\n      tag_6\n      jumpi\n      dup1\n      0x8dc7892c\n      eq\n      tag_7\n      jumpi\n      dup1\n      0xb733e791\n      eq\n      tag_8\n      jumpi\n      dup1\n      0xc75a1a9f\n      eq\n      tag_9\n      jumpi\n      dup1\n      0xf60d9e61\n      eq\n      tag_10\n      jumpi\n    tag_1:\n      0x0\n      dup1\n      revert\n        /* \"shoot/3/数组长度溢出/1.sol\":2352:2476  function fig2(address _addr)public pure returns(uint256){\r... */\n    tag_2:\n      callvalue\n        /* \"--CODEGEN--\":8:17   */\n      dup1\n        /* \"--CODEGEN--\":5:7   */\n      iszero\n      tag_11\n      jumpi\n        /* \"--CODEGEN--\":30:31   */\n      0x0\n        /* \"--CODEGEN--\":27:28   */\n      dup1\n        /* \"--CODEGEN--\":20:32   */\n      revert\n        /* \"--CODEGEN--\":5:7   */\n    tag_11:\n        /* \"shoot/3/数组长度溢出/1.sol\":2352:2476  function fig2(address _addr)public pure returns(uint256){\r... */\n      pop\n      tag_12\n      0x4\n      dup1\n      calldatasize\n      sub\n      dup2\n      add\n      swap1\n      dup1\n      dup1\n      calldataload\n      0xffffffffffffffffffffffffffffffffffffffff\n      and\n      swap1\n      0x20\n      add\n      swap1\n      swap3\n      swap2\n      swap1\n      pop\n      pop\n      pop\n      jump(tag_13)\n    tag_12:\n      mload(0x40)\n      dup1\n      dup3\n      dup2\n      mstore\n      0x20\n      add\n      swap2\n      pop\n      pop\n      mload(0x40)\n      dup1\n      swap2\n      sub\n      swap1\n      return\n        /* \"shoot/3/数组长度溢出/1.sol\":2101:2216  function arrayEle(address _addr) public pure returns(bytes32){\r... */\n    tag_3:\n      callvalue\n        /* \"--CODEGEN--\":8:17   */\n      dup1\n        /* \"--CODEGEN--\":5:7   */\n      iszero\n      tag_14\n      jumpi\n        /* \"--CODEGEN--\":30:31   */\n      0x0\n        /* \"--CODEGEN--\":27:28   */\n      dup1\n        /* \"--CODEGEN--\":20:32   */\n      revert\n        /* \"--CODEGEN--\":5:7   */\n    tag_14:\n        /* \"shoot/3/数组长度溢出/1.sol\":2101:2216  function arrayEle(address _addr) public pure returns(bytes32){\r... */\n      pop\n      tag_15\n      0x4\n      dup1\n      calldatasize\n      sub\n      dup2\n      add\n      swap1\n      dup1\n      dup1\n      calldataload\n      0xffffffffffffffffffffffffffffffffffffffff\n      and\n      swap1\n      0x20\n      add\n      swap1\n      swap3\n      swap2\n      swap1\n      pop\n      pop\n      pop\n      jump(tag_16)\n    tag_15:\n      mload(0x40)\n      dup1\n      dup3\n      not(0x0)\n      and\n      not(0x0)\n      and\n      dup2\n      mstore\n      0x20\n      add\n      swap2\n      pop\n      pop\n      mload(0x40)\n      dup1\n      swap2\n      sub\n      swap1\n      return\n        /* \"shoot/3/数组长度溢出/1.sol\":1938:1964  userinfoAttack public user */\n    tag_4:\n      callvalue\n        /* \"--CODEGEN--\":8:17   */\n      dup1\n        /* \"--CODEGEN--\":5:7   */\n      iszero\n      tag_17\n      jumpi\n        /* \"--CODEGEN--\":30:31   */\n      0x0\n        /* \"--CODEGEN--\":27:28   */\n      dup1\n        /* \"--CODEGEN--\":20:32   */\n      revert\n        /* \"--CODEGEN--\":5:7   */\n    tag_17:\n        /* \"shoot/3/数组长度溢出/1.sol\":1938:1964  userinfoAttack public user */\n      pop\n      tag_18\n      jump(tag_19)\n    tag_18:\n      mload(0x40)\n      dup1\n      dup3\n      0xffffffffffffffffffffffffffffffffffffffff\n      and\n      0xffffffffffffffffffffffffffffffffffffffff\n      and\n      dup2\n      mstore\n      0x20\n      add\n      swap2\n      pop\n      pop\n      mload(0x40)\n      dup1\n      swap2\n      sub\n      swap1\n      return\n        /* \"shoot/3/数组长度溢出/1.sol\":2482:2600  function fig3(address _addr)public pure returns(bytes32){\r... */\n    tag_5:\n      callvalue\n        /* \"--CODEGEN--\":8:17   */\n      dup1\n        /* \"--CODEGEN--\":5:7   */\n      iszero\n      tag_20\n      jumpi\n        /* \"--CODEGEN--\":30:31   */\n      0x0\n        /* \"--CODEGEN--\":27:28   */\n      dup1\n        /* \"--CODEGEN--\":20:32   */\n      revert\n        /* \"--CODEGEN--\":5:7   */\n    tag_20:\n        /* \"shoot/3/数组长度溢出/1.sol\":2482:2600  function fig3(address _addr)public pure returns(bytes32){\r... */\n      pop\n      tag_21\n      0x4\n      dup1\n      calldatasize\n      sub\n      dup2\n      add\n      swap1\n      dup1\n      dup1\n      calldataload\n      0xffffffffffffffffffffffffffffffffffffffff\n      and\n      swap1\n      0x20\n      add\n      swap1\n      swap3\n      swap2\n      swap1\n      pop\n      pop\n      pop\n      jump(tag_22)\n    tag_21:\n      mload(0x40)\n      dup1\n      dup3\n      not(0x0)\n      and\n      not(0x0)\n      and\n      dup2\n      mstore\n      0x20\n      add\n      swap2\n      pop\n      pop\n      mload(0x40)\n      dup1\n      swap2\n      sub\n      swap1\n      return\n        /* \"shoot/3/数组长度溢出/1.sol\":2606:2737  function fig4(address _addr)public pure returns(uint256){\r... */\n    tag_6:\n      callvalue\n        /* \"--CODEGEN--\":8:17   */\n      dup1\n        /* \"--CODEGEN--\":5:7   */\n      iszero\n      tag_23\n      jumpi\n        /* \"--CODEGEN--\":30:31   */\n      0x0\n        /* \"--CODEGEN--\":27:28   */\n      dup1\n        /* \"--CODEGEN--\":20:32   */\n      revert\n        /* \"--CODEGEN--\":5:7   */\n    tag_23:\n        /* \"shoot/3/数组长度溢出/1.sol\":2606:2737  function fig4(address _addr)public pure returns(uint256){\r... */\n      pop\n      tag_24\n      0x4\n      dup1\n      calldatasize\n      sub\n      dup2\n      add\n      swap1\n      dup1\n      dup1\n      calldataload\n      0xffffffffffffffffffffffffffffffffffffffff\n      and\n      swap1\n      0x20\n      add\n      swap1\n      swap3\n      swap2\n      swap1\n      pop\n      pop\n      pop\n      jump(tag_25)\n    tag_24:\n      mload(0x40)\n      dup1\n      dup3\n      dup2\n      mstore\n      0x20\n      add\n      swap2\n      pop\n      pop\n      mload(0x40)\n      dup1\n      swap2\n      sub\n      swap1\n      return\n        /* \"shoot/3/数组长度溢出/1.sol\":2743:2874  function fig5(address _addr)public pure returns(uint256){\r... */\n    tag_7:\n      callvalue\n        /* \"--CODEGEN--\":8:17   */\n      dup1\n        /* \"--CODEGEN--\":5:7   */\n      iszero\n      tag_26\n      jumpi\n        /* \"--CODEGEN--\":30:31   */\n      0x0\n        /* \"--CODEGEN--\":27:28   */\n      dup1\n        /* \"--CODEGEN--\":20:32   */\n      revert\n        /* \"--CODEGEN--\":5:7   */\n    tag_26:\n        /* \"shoot/3/数组长度溢出/1.sol\":2743:2874  function fig5(address _addr)public pure returns(uint256){\r... */\n      pop\n      tag_27\n      0x4\n      dup1\n      calldatasize\n      sub\n      dup2\n      add\n      swap1\n      dup1\n      dup1\n      calldataload\n      0xffffffffffffffffffffffffffffffffffffffff\n      and\n      swap1\n      0x20\n      add\n      swap1\n      swap3\n      swap2\n      swap1\n      pop\n      pop\n      pop\n      jump(tag_28)\n    tag_27:\n      mload(0x40)\n      dup1\n      dup3\n      dup2\n      mstore\n      0x20\n      add\n      swap2\n      pop\n      pop\n      mload(0x40)\n      dup1\n      swap2\n      sub\n      swap1\n      return\n        /* \"shoot/3/数组长度溢出/1.sol\":2882:3180  function dep(address _addr)public{\r... */\n    tag_8:\n      callvalue\n        /* \"--CODEGEN--\":8:17   */\n      dup1\n        /* \"--CODEGEN--\":5:7   */\n      iszero\n      tag_29\n      jumpi\n        /* \"--CODEGEN--\":30:31   */\n      0x0\n        /* \"--CODEGEN--\":27:28   */\n      dup1\n        /* \"--CODEGEN--\":20:32   */\n      revert\n        /* \"--CODEGEN--\":5:7   */\n    tag_29:\n        /* \"shoot/3/数组长度溢出/1.sol\":2882:3180  function dep(address _addr)public{\r... */\n      pop\n      tag_30\n      0x4\n      dup1\n      calldatasize\n      sub\n      dup2\n      add\n      swap1\n      dup1\n      dup1\n      calldataload\n      0xffffffffffffffffffffffffffffffffffffffff\n      and\n      swap1\n      0x20\n      add\n      swap1\n      swap3\n      swap2\n      swap1\n      pop\n      pop\n      pop\n      jump(tag_31)\n    tag_30:\n      stop\n        /* \"shoot/3/数组长度溢出/1.sol\":2222:2346  function fig1(address _addr)public pure returns(uint256){\r... */\n    tag_9:\n      callvalue\n        /* \"--CODEGEN--\":8:17   */\n      dup1\n        /* \"--CODEGEN--\":5:7   */\n      iszero\n      tag_32\n      jumpi\n        /* \"--CODEGEN--\":30:31   */\n      0x0\n        /* \"--CODEGEN--\":27:28   */\n      dup1\n        /* \"--CODEGEN--\":20:32   */\n      revert\n        /* \"--CODEGEN--\":5:7   */\n    tag_32:\n        /* \"shoot/3/数组长度溢出/1.sol\":2222:2346  function fig1(address _addr)public pure returns(uint256){\r... */\n      pop\n      tag_33\n      0x4\n      dup1\n      calldatasize\n      sub\n      dup2\n      add\n      swap1\n      dup1\n      dup1\n      calldataload\n      0xffffffffffffffffffffffffffffffffffffffff\n      and\n      swap1\n      0x20\n      add\n      swap1\n      swap3\n      swap2\n      swap1\n      pop\n      pop\n      pop\n      jump(tag_34)\n    tag_33:\n      mload(0x40)\n      dup1\n      dup3\n      dup2\n      mstore\n      0x20\n      add\n      swap2\n      pop\n      pop\n      mload(0x40)\n      dup1\n      swap2\n      sub\n      swap1\n      return\n        /* \"shoot/3/数组长度溢出/1.sol\":1971:2095  function arrayStart(address _addr)public pure returns(bytes32){\r... */\n    tag_10:\n      callvalue\n        /* \"--CODEGEN--\":8:17   */\n      dup1\n        /* \"--CODEGEN--\":5:7   */\n      iszero\n      tag_35\n      jumpi\n        /* \"--CODEGEN--\":30:31   */\n      0x0\n        /* \"--CODEGEN--\":27:28   */\n      dup1\n        /* \"--CODEGEN--\":20:32   */\n      revert\n        /* \"--CODEGEN--\":5:7   */\n    tag_35:\n        /* \"shoot/3/数组长度溢出/1.sol\":1971:2095  function arrayStart(address _addr)public pure returns(bytes32){\r... */\n      pop\n      tag_36\n      0x4\n      dup1\n      calldatasize\n      sub\n      dup2\n      add\n      swap1\n      dup1\n      dup1\n      calldataload\n      0xffffffffffffffffffffffffffffffffffffffff\n      and\n      swap1\n      0x20\n      add\n      swap1\n      swap3\n      swap2\n      swap1\n      pop\n      pop\n      pop\n      jump(tag_37)\n    tag_36:\n      mload(0x40)\n      dup1\n      dup3\n      not(0x0)\n      and\n      not(0x0)\n      and\n      dup2\n      mstore\n      0x20\n      add\n      swap2\n      pop\n      pop\n      mload(0x40)\n      dup1\n      swap2\n      sub\n      swap1\n      return\n        /* \"shoot/3/数组长度溢出/1.sol\":2352:2476  function fig2(address _addr)public pure returns(uint256){\r... */\n    tag_13:\n        /* \"shoot/3/数组长度溢出/1.sol\":2400:2407  uint256 */\n      0x0\n        /* \"shoot/3/数组长度溢出/1.sol\":2467:2468  2 */\n      0x2\n        /* \"shoot/3/数组长度溢出/1.sol\":2464:2465  1 */\n      0x1\n        /* \"shoot/3/数组长度溢出/1.sol\":2447:2462  arrayEle(_addr) */\n      tag_39\n        /* \"shoot/3/数组长度溢出/1.sol\":2456:2461  _addr */\n      dup5\n        /* \"shoot/3/数组长度溢出/1.sol\":2447:2455  arrayEle */\n      tag_16\n        /* \"shoot/3/数组长度溢出/1.sol\":2447:2462  arrayEle(_addr) */\n      jump\t// in\n    tag_39:\n        /* \"shoot/3/数组长度溢出/1.sol\":2439:2463  uint256(arrayEle(_addr)) */\n      0x1\n      swap1\n      div\n        /* \"shoot/3/数组长度溢出/1.sol\":2435:2437  -1 */\n      0xffffffffffffffffffffffffffffffffffffffffffffffffffffffffffffffff\n        /* \"shoot/3/数组长度溢出/1.sol\":2427:2463  uint256(-1)-uint256(arrayEle(_addr)) */\n      sub\n        /* \"shoot/3/数组长度溢出/1.sol\":2427:2465  uint256(-1)-uint256(arrayEle(_addr))+1 */\n      add\n        /* \"shoot/3/数组长度溢出/1.sol\":2426:2468  (uint256(-1)-uint256(arrayEle(_addr))+1)/2 */\n      dup2\n      iszero\n      iszero\n      tag_40\n      jumpi\n      invalid\n    tag_40:\n      div\n        /* \"shoot/3/数组长度溢出/1.sol\":2419:2468  return (uint256(-1)-uint256(arrayEle(_addr))+1)/2 */\n      swap1\n      pop\n        /* \"shoot/3/数组长度溢出/1.sol\":2352:2476  function fig2(address _addr)public pure returns(uint256){\r... */\n      swap2\n      swap1\n      pop\n      jump\t// out\n        /* \"shoot/3/数组长度溢出/1.sol\":2101:2216  function arrayEle(address _addr) public pure returns(bytes32){\r... */\n    tag_16:\n        /* \"shoot/3/数组长度溢出/1.sol\":2154:2161  bytes32 */\n      0x0\n        /* \"shoot/3/数组长度溢出/1.sol\":2190:2207  arrayStart(_addr) */\n      tag_42\n        /* \"shoot/3/数组长度溢出/1.sol\":2201:2206  _addr */\n      dup3\n        /* \"shoot/3/数组长度溢出/1.sol\":2190:2200  arrayStart */\n      tag_37\n        /* \"shoot/3/数组长度溢出/1.sol\":2190:2207  arrayStart(_addr) */\n      jump\t// in\n    tag_42:\n        /* \"shoot/3/数组长度溢出/1.sol\":2180:2208  keccak256(arrayStart(_addr)) */\n      mload(0x40)\n      dup1\n      dup3\n      not(0x0)\n      and\n      not(0x0)\n      and\n      dup2\n      mstore\n      0x20\n      add\n      swap2\n      pop\n      pop\n      mload(0x40)\n      dup1\n      swap2\n      sub\n      swap1\n      keccak256\n        /* \"shoot/3/数组长度溢出/1.sol\":2173:2208  return keccak256(arrayStart(_addr)) */\n      swap1\n      pop\n        /* \"shoot/3/数组长度溢出/1.sol\":2101:2216  function arrayEle(address _addr) public pure returns(bytes32){\r... */\n      swap2\n      swap1\n      pop\n      jump\t// out\n        /* \"shoot/3/数组长度溢出/1.sol\":1938:1964  userinfoAttack public user */\n    tag_19:\n      0x0\n      dup1\n      swap1\n      sload\n      swap1\n      0x100\n      exp\n      swap1\n      div\n      0xffffffffffffffffffffffffffffffffffffffff\n      and\n      dup2\n      jump\t// out\n        /* \"shoot/3/数组长度溢出/1.sol\":2482:2600  function fig3(address _addr)public pure returns(bytes32){\r... */\n    tag_22:\n        /* \"shoot/3/数组长度溢出/1.sol\":2530:2537  bytes32 */\n      0x0\n        /* \"shoot/3/数组长度溢出/1.sol\":2574:2579  _addr */\n      dup2\n        /* \"shoot/3/数组长度溢出/1.sol\":2566:2580  bytes32(_addr) */\n      0xffffffffffffffffffffffffffffffffffffffff\n      and\n      0x1\n      mul\n        /* \"shoot/3/数组长度溢出/1.sol\":2589:2590  1 */\n      0x1\n        /* \"shoot/3/数组长度溢出/1.sol\":2556:2592  keccak256(bytes32(_addr),uint256(1)) */\n      mload(0x40)\n      dup1\n      dup4\n      not(0x0)\n      and\n      not(0x0)\n      and\n      dup2\n      mstore\n      0x20\n      add\n      dup3\n      dup2\n      mstore\n      0x20\n      add\n      swap3\n      pop\n      pop\n      pop\n      mload(0x40)\n      dup1\n      swap2\n      sub\n      swap1\n      keccak256\n        /* \"shoot/3/数组长度溢出/1.sol\":2549:2592  return keccak256(bytes32(_addr),uint256(1)) */\n      swap1\n      pop\n        /* \"shoot/3/数组长度溢出/1.sol\":2482:2600  function fig3(address _addr)public pure returns(bytes32){\r... */\n      swap2\n      swap1\n      pop\n      jump\t// out\n        /* \"shoot/3/数组长度溢出/1.sol\":2606:2737  function fig4(address _addr)public pure returns(uint256){\r... */\n    tag_25:\n        /* \"shoot/3/数组长度溢出/1.sol\":2654:2661  uint256 */\n      0x0\n        /* \"shoot/3/数组长度溢出/1.sol\":2728:2729  2 */\n      0x2\n        /* \"shoot/3/数组长度溢出/1.sol\":2710:2725  arrayEle(_addr) */\n      tag_45\n        /* \"shoot/3/数组长度溢出/1.sol\":2719:2724  _addr */\n      dup4\n        /* \"shoot/3/数组长度溢出/1.sol\":2710:2718  arrayEle */\n      tag_16\n        /* \"shoot/3/数组长度溢出/1.sol\":2710:2725  arrayEle(_addr) */\n      jump\t// in\n    tag_45:\n        /* \"shoot/3/数组长度溢出/1.sol\":2702:2726  uint256(arrayEle(_addr)) */\n      0x1\n      swap1\n      div\n        /* \"shoot/3/数组长度溢出/1.sol\":2689:2700  fig3(_addr) */\n      tag_46\n        /* \"shoot/3/数组长度溢出/1.sol\":2694:2699  _addr */\n      dup5\n        /* \"shoot/3/数组长度溢出/1.sol\":2689:2693  fig3 */\n      tag_22\n        /* \"shoot/3/数组长度溢出/1.sol\":2689:2700  fig3(_addr) */\n      jump\t// in\n    tag_46:\n        /* \"shoot/3/数组长度溢出/1.sol\":2681:2701  uint256(fig3(_addr)) */\n      0x1\n      swap1\n      div\n        /* \"shoot/3/数组长度溢出/1.sol\":2681:2726  uint256(fig3(_addr))-uint256(arrayEle(_addr)) */\n      sub\n        /* \"shoot/3/数组长度溢出/1.sol\":2680:2729  (uint256(fig3(_addr))-uint256(arrayEle(_addr)))%2 */\n      dup2\n      iszero\n      iszero\n      tag_47\n      jumpi\n      invalid\n    tag_47:\n      mod\n        /* \"shoot/3/数组长度溢出/1.sol\":2673:2729  return (uint256(fig3(_addr))-uint256(arrayEle(_addr)))%2 */\n      swap1\n      pop\n        /* \"shoot/3/数组长度溢出/1.sol\":2606:2737  function fig4(address _addr)public pure returns(uint256){\r... */\n      swap2\n      swap1\n      pop\n      jump\t// out\n        /* \"shoot/3/数组长度溢出/1.sol\":2743:2874  function fig5(address _addr)public pure returns(uint256){\r... */\n    tag_28:\n        /* \"shoot/3/数组长度溢出/1.sol\":2791:2798  uint256 */\n      0x0\n        /* \"shoot/3/数组长度溢出/1.sol\":2865:2866  2 */\n      0x2\n        /* \"shoot/3/数组长度溢出/1.sol\":2847:2862  arrayEle(_addr) */\n      tag_49\n        /* \"shoot/3/数组长度溢出/1.sol\":2856:2861  _addr */\n      dup4\n        /* \"shoot/3/数组长度溢出/1.sol\":2847:2855  arrayEle */\n      tag_16\n        /* \"shoot/3/数组长度溢出/1.sol\":2847:2862  arrayEle(_addr) */\n      jump\t// in\n    tag_49:\n        /* \"shoot/3/数组长度溢出/1.sol\":2839:2863  uint256(arrayEle(_addr)) */\n      0x1\n      swap1\n      div\n        /* \"shoot/3/数组长度溢出/1.sol\":2826:2837  fig3(_addr) */\n      tag_50\n        /* \"shoot/3/数组长度溢出/1.sol\":2831:2836  _addr */\n      dup5\n        /* \"shoot/3/数组长度溢出/1.sol\":2826:2830  fig3 */\n      tag_22\n        /* \"shoot/3/数组长度溢出/1.sol\":2826:2837  fig3(_addr) */\n      jump\t// in\n    tag_50:\n        /* \"shoot/3/数组长度溢出/1.sol\":2818:2838  uint256(fig3(_addr)) */\n      0x1\n      swap1\n      div\n        /* \"shoot/3/数组长度溢出/1.sol\":2818:2863  uint256(fig3(_addr))-uint256(arrayEle(_addr)) */\n      sub\n        /* \"shoot/3/数组长度溢出/1.sol\":2817:2866  (uint256(fig3(_addr))-uint256(arrayEle(_addr)))/2 */\n      dup2\n      iszero\n      iszero\n      tag_51\n      jumpi\n      invalid\n    tag_51:\n      div\n        /* \"shoot/3/数组长度溢出/1.sol\":2810:2866  return (uint256(fig3(_addr))-uint256(arrayEle(_addr)))/2 */\n      swap1\n      pop\n        /* \"shoot/3/数组长度溢出/1.sol\":2743:2874  function fig5(address _addr)public pure returns(uint256){\r... */\n      swap2\n      swap1\n      pop\n      jump\t// out\n        /* \"shoot/3/数组长度溢出/1.sol\":2882:3180  function dep(address _addr)public{\r... */\n    tag_31:\n        /* \"shoot/3/数组长度溢出/1.sol\":2930:2936  uint i */\n      0x0\n        /* \"shoot/3/数组长度溢出/1.sol\":2963:2983  userinfoAttack _user */\n      dup1\n        /* \"shoot/3/数组长度溢出/1.sol\":2937:2938  0 */\n      0x0\n        /* \"shoot/3/数组长度溢出/1.sol\":2930:2938  uint i=0 */\n      swap2\n      pop\n        /* \"shoot/3/数组长度溢出/1.sol\":2926:3163  for(uint i=0;i<999;i++){\r... */\n    tag_53:\n        /* \"shoot/3/数组长度溢出/1.sol\":2941:2944  999 */\n      0x3e7\n        /* \"shoot/3/数组长度溢出/1.sol\":2939:2940  i */\n      dup3\n        /* \"shoot/3/数组长度溢出/1.sol\":2939:2944  i<999 */\n      lt\n        /* \"shoot/3/数组长度溢出/1.sol\":2926:3163  for(uint i=0;i<999;i++){\r... */\n      iszero\n      tag_54\n      jumpi\n        /* \"shoot/3/数组长度溢出/1.sol\":3005:3010  _addr */\n      dup3\n        /* \"shoot/3/数组长度溢出/1.sol\":2986:3011  new userinfoAttack(_addr) */\n      tag_56\n      jump\t// in(tag_57)\n    tag_56:\n      dup1\n      dup3\n      0xffffffffffffffffffffffffffffffffffffffff\n      and\n      0xffffffffffffffffffffffffffffffffffffffff\n      and\n      dup2\n      mstore\n      0x20\n      add\n      swap2\n      pop\n      pop\n      mload(0x40)\n      dup1\n      swap2\n      sub\n      swap1\n      0x0\n      create\n      dup1\n      iszero\n        /* \"--CODEGEN--\":8:17   */\n      dup1\n        /* \"--CODEGEN--\":5:7   */\n      iszero\n      tag_58\n      jumpi\n        /* \"--CODEGEN--\":45:61   */\n      returndatasize\n        /* \"--CODEGEN--\":42:43   */\n      0x0\n        /* \"--CODEGEN--\":39:40   */\n      dup1\n        /* \"--CODEGEN--\":24:62   */\n      returndatacopy\n        /* \"--CODEGEN--\":77:93   */\n      returndatasize\n        /* \"--CODEGEN--\":74:75   */\n      0x0\n        /* \"--CODEGEN--\":67:94   */\n      revert\n        /* \"--CODEGEN--\":5:7   */\n    tag_58:\n        /* \"shoot/3/数组长度溢出/1.sol\":2986:3011  new userinfoAttack(_addr) */\n      pop\n        /* \"shoot/3/数组长度溢出/1.sol\":2963:3011  userinfoAttack _user = new userinfoAttack(_addr) */\n      swap1\n      pop\n        /* \"shoot/3/数组长度溢出/1.sol\":3053:3054  0 */\n      0x0\n        /* \"shoot/3/数组长度溢出/1.sol\":3030:3050  fig1(address(_user)) */\n      tag_59\n        /* \"shoot/3/数组长度溢出/1.sol\":3043:3048  _user */\n      dup3\n        /* \"shoot/3/数组长度溢出/1.sol\":3030:3034  fig1 */\n      tag_34\n        /* \"shoot/3/数组长度溢出/1.sol\":3030:3050  fig1(address(_user)) */\n      jump\t// in\n    tag_59:\n        /* \"shoot/3/数组长度溢出/1.sol\":3030:3054  fig1(address(_user)) ==0 */\n      eq\n        /* \"shoot/3/数组长度溢出/1.sol\":3030:3080  fig1(address(_user)) ==0&& fig4(address(_user))==0 */\n      dup1\n      iszero\n      tag_60\n      jumpi\n      pop\n        /* \"shoot/3/数组长度溢出/1.sol\":3079:3080  0 */\n      0x0\n        /* \"shoot/3/数组长度溢出/1.sol\":3057:3077  fig4(address(_user)) */\n      tag_61\n        /* \"shoot/3/数组长度溢出/1.sol\":3070:3075  _user */\n      dup3\n        /* \"shoot/3/数组长度溢出/1.sol\":3057:3061  fig4 */\n      tag_25\n        /* \"shoot/3/数组长度溢出/1.sol\":3057:3077  fig4(address(_user)) */\n      jump\t// in\n    tag_61:\n        /* \"shoot/3/数组长度溢出/1.sol\":3057:3080  fig4(address(_user))==0 */\n      eq\n        /* \"shoot/3/数组长度溢出/1.sol\":3030:3080  fig1(address(_user)) ==0&& fig4(address(_user))==0 */\n    tag_60:\n        /* \"shoot/3/数组长度溢出/1.sol\":3026:3152  if (fig1(address(_user)) ==0&& fig4(address(_user))==0){\r... */\n      iszero\n      tag_62\n      jumpi\n        /* \"shoot/3/数组长度溢出/1.sol\":3107:3112  _user */\n      dup1\n        /* \"shoot/3/数组长度溢出/1.sol\":3100:3104  user */\n      0x0\n      dup1\n        /* \"shoot/3/数组长度溢出/1.sol\":3100:3112  user = _user */\n      0x100\n      exp\n      dup2\n      sload\n      dup2\n      0xffffffffffffffffffffffffffffffffffffffff\n      mul\n      not\n      and\n      swap1\n      dup4\n      0xffffffffffffffffffffffffffffffffffffffff\n      and\n      mul\n      or\n      swap1\n      sstore\n      pop\n        /* \"shoot/3/数组长度溢出/1.sol\":3131:3136  break */\n      jump(tag_54)\n        /* \"shoot/3/数组长度溢出/1.sol\":3026:3152  if (fig1(address(_user)) ==0&& fig4(address(_user))==0){\r... */\n    tag_62:\n        /* \"shoot/3/数组长度溢出/1.sol\":2945:2948  i++ */\n      dup2\n      dup1\n      0x1\n      add\n      swap3\n      pop\n      pop\n        /* \"shoot/3/数组长度溢出/1.sol\":2926:3163  for(uint i=0;i<999;i++){\r... */\n      jump(tag_53)\n    tag_54:\n        /* \"shoot/3/数组长度溢出/1.sol\":2882:3180  function dep(address _addr)public{\r... */\n      pop\n      pop\n      pop\n      jump\t// out\n        /* \"shoot/3/数组长度溢出/1.sol\":2222:2346  function fig1(address _addr)public pure returns(uint256){\r... */\n    tag_34:\n        /* \"shoot/3/数组长度溢出/1.sol\":2270:2277  uint256 */\n      0x0\n        /* \"shoot/3/数组长度溢出/1.sol\":2337:2338  2 */\n      0x2\n        /* \"shoot/3/数组长度溢出/1.sol\":2334:2335  1 */\n      0x1\n        /* \"shoot/3/数组长度溢出/1.sol\":2317:2332  arrayEle(_addr) */\n      tag_64\n        /* \"shoot/3/数组长度溢出/1.sol\":2326:2331  _addr */\n      dup5\n        /* \"shoot/3/数组长度溢出/1.sol\":2317:2325  arrayEle */\n      tag_16\n        /* \"shoot/3/数组长度溢出/1.sol\":2317:2332  arrayEle(_addr) */\n      jump\t// in\n    tag_64:\n        /* \"shoot/3/数组长度溢出/1.sol\":2309:2333  uint256(arrayEle(_addr)) */\n      0x1\n      swap1\n      div\n        /* \"shoot/3/数组长度溢出/1.sol\":2305:2307  -1 */\n      0xffffffffffffffffffffffffffffffffffffffffffffffffffffffffffffffff\n        /* \"shoot/3/数组长度溢出/1.sol\":2297:2333  uint256(-1)-uint256(arrayEle(_addr)) */\n      sub\n        /* \"shoot/3/数组长度溢出/1.sol\":2297:2335  uint256(-1)-uint256(arrayEle(_addr))+1 */\n      add\n        /* \"shoot/3/数组长度溢出/1.sol\":2296:2338  (uint256(-1)-uint256(arrayEle(_addr))+1)%2 */\n      dup2\n      iszero\n      iszero\n      tag_65\n      jumpi\n      invalid\n    tag_65:\n      mod\n        /* \"shoot/3/数组长度溢出/1.sol\":2289:2338  return (uint256(-1)-uint256(arrayEle(_addr))+1)%2 */\n      swap1\n      pop\n        /* \"shoot/3/数组长度溢出/1.sol\":2222:2346  function fig1(address _addr)public pure returns(uint256){\r... */\n      swap2\n      swap1\n      pop\n      jump\t// out\n        /* \"shoot/3/数组长度溢出/1.sol\":1971:2095  function arrayStart(address _addr)public pure returns(bytes32){\r... */\n    tag_37:\n        /* \"shoot/3/数组长度溢出/1.sol\":2025:2032  bytes32 */\n      0x0\n        /* \"shoot/3/数组长度溢出/1.sol\":2069:2074  _addr */\n      dup2\n        /* \"shoot/3/数组长度溢出/1.sol\":2061:2075  bytes32(_addr) */\n      0xffffffffffffffffffffffffffffffffffffffff\n      and\n      0x1\n      mul\n        /* \"shoot/3/数组长度溢出/1.sol\":2084:2085  2 */\n      0x2\n        /* \"shoot/3/数组长度溢出/1.sol\":2051:2087  keccak256(bytes32(_addr),uint256(2)) */\n      mload(0x40)\n      dup1\n      dup4\n      not(0x0)\n      and\n      not(0x0)\n      and\n      dup2\n      mstore\n      0x20\n      add\n      dup3\n      dup2\n      mstore\n      0x20\n      add\n      swap3\n      pop\n      pop\n      pop\n      mload(0x40)\n      dup1\n      swap2\n      sub\n      swap1\n      keccak256\n        /* \"shoot/3/数组长度溢出/1.sol\":2044:2087  return keccak256(bytes32(_addr),uint256(2)) */\n      swap1\n      pop\n        /* \"shoot/3/数组长度溢出/1.sol\":1971:2095  function arrayStart(address _addr)public pure returns(bytes32){\r... */\n      swap2\n      swap1\n      pop\n      jump\t// out\n        /* \"shoot/3/数组长度溢出/1.sol\":1916:3183  contract deploy{\r... */\n    tag_57:\n      mload(0x40)\n      dataSize(sub_0)\n      dup1\n      dataOffset(sub_0)\n      dup4\n      codecopy\n      add\n      swap1\n      jump\t// out\n    stop\n\n    sub_0: assembly {\n            /* \"shoot/3/数组长度溢出/1.sol\":98:1912  contract userinfoAttack{\r... */\n          mstore(0x40, 0x80)\n            /* \"shoot/3/数组长度溢出/1.sol\":205:300  constructor(address _che)public{\r... */\n          callvalue\n            /* \"--CODEGEN--\":8:17   */\n          dup1\n            /* \"--CODEGEN--\":5:7   */\n          iszero\n          tag_1\n          jumpi\n            /* \"--CODEGEN--\":30:31   */\n          0x0\n            /* \"--CODEGEN--\":27:28   */\n          dup1\n            /* \"--CODEGEN--\":20:32   */\n          revert\n            /* \"--CODEGEN--\":5:7   */\n        tag_1:\n            /* \"shoot/3/数组长度溢出/1.sol\":205:300  constructor(address _che)public{\r... */\n          pop\n          mload(0x40)\n          0x20\n          dup1\n          bytecodeSize\n          dup4\n          codecopy\n          dup2\n          add\n          dup1\n          0x40\n          mstore\n          dup2\n          add\n          swap1\n          dup1\n          dup1\n          mload\n          swap1\n          0x20\n          add\n          swap1\n          swap3\n          swap2\n          swap1\n          pop\n          pop\n          pop\n            /* \"shoot/3/数组长度溢出/1.sol\":259:263  _che */\n          dup1\n            /* \"shoot/3/数组长度溢出/1.sol\":247:250  che */\n          0x0\n          dup1\n            /* \"shoot/3/数组长度溢出/1.sol\":247:264  che = check(_che) */\n          0x100\n          exp\n          dup2\n          sload\n          dup2\n          0xffffffffffffffffffffffffffffffffffffffff\n          mul\n          not\n          and\n          swap1\n          dup4\n          0xffffffffffffffffffffffffffffffffffffffff\n          and\n          mul\n          or\n          swap1\n          sstore\n          pop\n            /* \"shoot/3/数组长度溢出/1.sol\":282:285  che */\n          0x0\n          dup1\n          swap1\n          sload\n          swap1\n          0x100\n          exp\n          swap1\n          div\n          0xffffffffffffffffffffffffffffffffffffffff\n          and\n            /* \"shoot/3/数组长度溢出/1.sol\":282:290  che.info */\n          0xffffffffffffffffffffffffffffffffffffffff\n          and\n          0x370158ea\n            /* \"shoot/3/数组长度溢出/1.sol\":282:292  che.info() */\n          mload(0x40)\n          dup2\n          0xffffffff\n          and\n          0x100000000000000000000000000000000000000000000000000000000\n          mul\n          dup2\n          mstore\n          0x4\n          add\n          0x20\n          mload(0x40)\n          dup1\n          dup4\n          sub\n          dup2\n          0x0\n          dup8\n          dup1\n          extcodesize\n          iszero\n            /* \"--CODEGEN--\":8:17   */\n          dup1\n            /* \"--CODEGEN--\":5:7   */\n          iszero\n          tag_4\n          jumpi\n            /* \"--CODEGEN--\":30:31   */\n          0x0\n            /* \"--CODEGEN--\":27:28   */\n          dup1\n            /* \"--CODEGEN--\":20:32   */\n          revert\n            /* \"--CODEGEN--\":5:7   */\n        tag_4:\n            /* \"shoot/3/数组长度溢出/1.sol\":282:292  che.info() */\n          pop\n          gas\n          call\n          iszero\n            /* \"--CODEGEN--\":8:17   */\n          dup1\n            /* \"--CODEGEN--\":5:7   */\n          iszero\n          tag_5\n          jumpi\n            /* \"--CODEGEN--\":45:61   */\n          returndatasize\n            /* \"--CODEGEN--\":42:43   */\n          0x0\n            /* \"--CODEGEN--\":39:40   */\n          dup1\n            /* \"--CODEGEN--\":24:62   */\n          returndatacopy\n            /* \"--CODEGEN--\":77:93   */\n          returndatasize\n            /* \"--CODEGEN--\":74:75   */\n          0x0\n            /* \"--CODEGEN--\":67:94   */\n          revert\n            /* \"--CODEGEN--\":5:7   */\n        tag_5:\n            /* \"shoot/3/数组长度溢出/1.sol\":282:292  che.info() */\n          pop\n          pop\n          pop\n          pop\n          mload(0x40)\n          returndatasize\n            /* \"--CODEGEN--\":13:15   */\n          0x20\n            /* \"--CODEGEN--\":8:11   */\n          dup2\n            /* \"--CODEGEN--\":5:16   */\n          lt\n            /* \"--CODEGEN--\":2:4   */\n          iszero\n          tag_6\n          jumpi\n            /* \"--CODEGEN--\":29:30   */\n          0x0\n            /* \"--CODEGEN--\":26:27   */\n          dup1\n            /* \"--CODEGEN--\":19:31   */\n          revert\n            /* \"--CODEGEN--\":2:4   */\n        tag_6:\n            /* \"shoot/3/数组长度溢出/1.sol\":282:292  che.info() */\n          dup2\n          add\n          swap1\n          dup1\n          dup1\n          mload\n          swap1\n          0x20\n          add\n          swap1\n          swap3\n          swap2\n          swap1\n          pop\n          pop\n          pop\n            /* \"shoot/3/数组长度溢出/1.sol\":275:279  info */\n          0x1\n          0x0\n            /* \"shoot/3/数组长度溢出/1.sol\":275:292  info = che.info() */\n          0x100\n          exp\n          dup2\n          sload\n          dup2\n          0xffffffffffffffffffffffffffffffffffffffff\n          mul\n          not\n          and\n          swap1\n          dup4\n          0xffffffffffffffffffffffffffffffffffffffff\n          and\n          mul\n          or\n          swap1\n          sstore\n          pop\n            /* \"shoot/3/数组长度溢出/1.sol\":205:300  constructor(address _che)public{\r... */\n          pop\n            /* \"shoot/3/数组长度溢出/1.sol\":98:1912  contract userinfoAttack{\r... */\n          dataSize(sub_0)\n          dup1\n          dataOffset(sub_0)\n          0x0\n          codecopy\n          0x0\n          return\n        stop\n\n        sub_0: assembly {\n                /* \"shoot/3/数组长度溢出/1.sol\":98:1912  contract userinfoAttack{\r... */\n              mstore(0x40, 0x80)\n              jumpi(tag_1, lt(calldatasize, 0x4))\n              calldataload(0x0)\n              0x100000000000000000000000000000000000000000000000000000000\n              swap1\n              div\n              0xffffffff\n              and\n              dup1\n              0x110ade1\n              eq\n              tag_2\n              jumpi\n              dup1\n              0x3347825f\n              eq\n              tag_3\n              jumpi\n              dup1\n              0x370158ea\n              eq\n              tag_4\n              jumpi\n              dup1\n              0x38a39681\n              eq\n              tag_5\n              jumpi\n              dup1\n              0x522e1177\n              eq\n              tag_6\n              jumpi\n              dup1\n              0x68b8d10e\n              eq\n              tag_7\n              jumpi\n              dup1\n              0x7127998d\n              eq\n              tag_8\n              jumpi\n              dup1\n              0x7797d6df\n              eq\n              tag_9\n              jumpi\n              dup1\n              0x8dc7892c\n              eq\n              tag_10\n              jumpi\n              dup1\n              0x9e3b34bf\n              eq\n              tag_11\n              jumpi\n              dup1\n              0xa7fb0375\n              eq\n              tag_12\n              jumpi\n              dup1\n              0xc75a1a9f\n              eq\n              tag_13\n              jumpi\n              dup1\n              0xe1c7392a\n              eq\n              tag_14\n              jumpi\n              dup1\n              0xf60d9e61\n              eq\n              tag_15\n              jumpi\n            tag_1:\n                /* \"shoot/3/数组长度溢出/1.sol\":922:923  2 */\n              0x2\n                /* \"shoot/3/数组长度溢出/1.sol\":916:921  times */\n              dup1\n              sload\n                /* \"shoot/3/数组长度溢出/1.sol\":916:923  times<2 */\n              lt\n                /* \"shoot/3/数组长度溢出/1.sol\":913:991  if(times<2){\r... */\n              iszero\n              tag_18\n              jumpi\n                /* \"shoot/3/数组长度溢出/1.sol\":946:947  1 */\n              0x1\n                /* \"shoot/3/数组长度溢出/1.sol\":939:944  times */\n              0x2\n              0x0\n                /* \"shoot/3/数组长度溢出/1.sol\":939:947  times+=1 */\n              dup3\n              dup3\n              sload\n              add\n              swap3\n              pop\n              pop\n              dup2\n              swap1\n              sstore\n              pop\n                /* \"shoot/3/数组长度溢出/1.sol\":962:966  info */\n              0x1\n              0x0\n              swap1\n              sload\n              swap1\n              0x100\n              exp\n              swap1\n              div\n              0xffffffffffffffffffffffffffffffffffffffff\n              and\n                /* \"shoot/3/数组长度溢出/1.sol\":962:977  info.deleteUser */\n              0xffffffffffffffffffffffffffffffffffffffff\n              and\n              0x26ff05e\n                /* \"shoot/3/数组长度溢出/1.sol\":962:979  info.deleteUser() */\n              mload(0x40)\n              dup2\n              0xffffffff\n              and\n              0x100000000000000000000000000000000000000000000000000000000\n              mul\n              dup2\n              mstore\n              0x4\n              add\n              0x0\n              mload(0x40)\n              dup1\n              dup4\n              sub\n              dup2\n              0x0\n              dup8\n              dup1\n              extcodesize\n              iszero\n                /* \"--CODEGEN--\":8:17   */\n              dup1\n                /* \"--CODEGEN--\":5:7   */\n              iszero\n              tag_19\n              jumpi\n                /* \"--CODEGEN--\":30:31   */\n              0x0\n                /* \"--CODEGEN--\":27:28   */\n              dup1\n                /* \"--CODEGEN--\":20:32   */\n              revert\n                /* \"--CODEGEN--\":5:7   */\n            tag_19:\n                /* \"shoot/3/数组长度溢出/1.sol\":962:979  info.deleteUser() */\n              pop\n              gas\n              call\n              iszero\n                /* \"--CODEGEN--\":8:17   */\n              dup1\n                /* \"--CODEGEN--\":5:7   */\n              iszero\n              tag_20\n              jumpi\n                /* \"--CODEGEN--\":45:61   */\n              returndatasize\n                /* \"--CODEGEN--\":42:43   */\n              0x0\n                /* \"--CODEGEN--\":39:40   */\n              dup1\n                /* \"--CODEGEN--\":24:62   */\n              returndatacopy\n                /* \"--CODEGEN--\":77:93   */\n              returndatasize\n                /* \"--CODEGEN--\":74:75   */\n              0x0\n                /* \"--CODEGEN--\":67:94   */\n              revert\n                /* \"--CODEGEN--\":5:7   */\n            tag_20:\n                /* \"shoot/3/数组长度溢出/1.sol\":962:979  info.deleteUser() */\n              pop\n              pop\n              pop\n              pop\n                /* \"shoot/3/数组长度溢出/1.sol\":913:991  if(times<2){\r... */\n            tag_18:\n                /* \"shoot/3/数组长度溢出/1.sol\":98:1912  contract userinfoAttack{\r... */\n              stop\n                /* \"shoot/3/数组长度溢出/1.sol\":1387:1511  function fig2(address _addr)public pure returns(uint256){\r... */\n            tag_2:\n              callvalue\n                /* \"--CODEGEN--\":8:17   */\n              dup1\n                /* \"--CODEGEN--\":5:7   */\n              iszero\n              tag_21\n              jumpi\n                /* \"--CODEGEN--\":30:31   */\n              0x0\n                /* \"--CODEGEN--\":27:28   */\n              dup1\n                /* \"--CODEGEN--\":20:32   */\n              revert\n                /* \"--CODEGEN--\":5:7   */\n            tag_21:\n                /* \"shoot/3/数组长度溢出/1.sol\":1387:1511  function fig2(address _addr)public pure returns(uint256){\r... */\n              pop\n              tag_22\n              0x4\n              dup1\n              calldatasize\n              sub\n              dup2\n              add\n              swap1\n              dup1\n              dup1\n              calldataload\n              0xffffffffffffffffffffffffffffffffffffffff\n              and\n              swap1\n              0x20\n              add\n              swap1\n              swap3\n              swap2\n              swap1\n              pop\n              pop\n              pop\n              jump(tag_23)\n            tag_22:\n              mload(0x40)\n              dup1\n              dup3\n              dup2\n              mstore\n              0x20\n              add\n              swap2\n              pop\n              pop\n              mload(0x40)\n              dup1\n              swap2\n              sub\n              swap1\n              return\n                /* \"shoot/3/数组长度溢出/1.sol\":1136:1251  function arrayEle(address _addr) public pure returns(bytes32){\r... */\n            tag_3:\n              callvalue\n                /* \"--CODEGEN--\":8:17   */\n              dup1\n                /* \"--CODEGEN--\":5:7   */\n              iszero\n              tag_24\n              jumpi\n                /* \"--CODEGEN--\":30:31   */\n              0x0\n                /* \"--CODEGEN--\":27:28   */\n              dup1\n                /* \"--CODEGEN--\":20:32   */\n              revert\n                /* \"--CODEGEN--\":5:7   */\n            tag_24:\n                /* \"shoot/3/数组长度溢出/1.sol\":1136:1251  function arrayEle(address _addr) public pure returns(bytes32){\r... */\n              pop\n              tag_25\n              0x4\n              dup1\n              calldatasize\n              sub\n              dup2\n              add\n              swap1\n              dup1\n              dup1\n              calldataload\n              0xffffffffffffffffffffffffffffffffffffffff\n              and\n              swap1\n              0x20\n              add\n              swap1\n              swap3\n              swap2\n              swap1\n              pop\n              pop\n              pop\n              jump(tag_26)\n            tag_25:\n              mload(0x40)\n              dup1\n              dup3\n              not(0x0)\n              and\n              not(0x0)\n              and\n              dup2\n              mstore\n              0x20\n              add\n              swap2\n              pop\n              pop\n              mload(0x40)\n              dup1\n              swap2\n              sub\n              swap1\n              return\n                /* \"shoot/3/数组长度溢出/1.sol\":151:171  userinfo public info */\n            tag_4:\n              callvalue\n                /* \"--CODEGEN--\":8:17   */\n              dup1\n                /* \"--CODEGEN--\":5:7   */\n              iszero\n              tag_27\n              jumpi\n                /* \"--CODEGEN--\":30:31   */\n              0x0\n                /* \"--CODEGEN--\":27:28   */\n              dup1\n                /* \"--CODEGEN--\":20:32   */\n              revert\n                /* \"--CODEGEN--\":5:7   */\n            tag_27:\n                /* \"shoot/3/数组长度溢出/1.sol\":151:171  userinfo public info */\n              pop\n              tag_28\n              jump(tag_29)\n            tag_28:\n              mload(0x40)\n              dup1\n              dup3\n              0xffffffffffffffffffffffffffffffffffffffff\n              and\n              0xffffffffffffffffffffffffffffffffffffffff\n              and\n              dup2\n              mstore\n              0x20\n              add\n              swap2\n              pop\n              pop\n              mload(0x40)\n              dup1\n              swap2\n              sub\n              swap1\n              return\n                /* \"shoot/3/数组长度溢出/1.sol\":730:803  function att2()public{\r... */\n            tag_5:\n              callvalue\n                /* \"--CODEGEN--\":8:17   */\n              dup1\n                /* \"--CODEGEN--\":5:7   */\n              iszero\n              tag_30\n              jumpi\n                /* \"--CODEGEN--\":30:31   */\n              0x0\n                /* \"--CODEGEN--\":27:28   */\n              dup1\n                /* \"--CODEGEN--\":20:32   */\n              revert\n                /* \"--CODEGEN--\":5:7   */\n            tag_30:\n                /* \"shoot/3/数组长度溢出/1.sol\":730:803  function att2()public{\r... */\n              pop\n              tag_31\n              jump(tag_32)\n            tag_31:\n              stop\n                /* \"shoot/3/数组长度溢出/1.sol\":809:870  function complete()public{\r... */\n            tag_6:\n              callvalue\n                /* \"--CODEGEN--\":8:17   */\n              dup1\n                /* \"--CODEGEN--\":5:7   */\n              iszero\n              tag_33\n              jumpi\n                /* \"--CODEGEN--\":30:31   */\n              0x0\n                /* \"--CODEGEN--\":27:28   */\n              dup1\n                /* \"--CODEGEN--\":20:32   */\n              revert\n                /* \"--CODEGEN--\":5:7   */\n            tag_33:\n                /* \"shoot/3/数组长度溢出/1.sol\":809:870  function complete()public{\r... */\n              pop\n              tag_34\n              jump(tag_35)\n            tag_34:\n              stop\n                /* \"shoot/3/数组长度溢出/1.sol\":654:722  function att1()public{\r... */\n            tag_7:\n              callvalue\n                /* \"--CODEGEN--\":8:17   */\n              dup1\n                /* \"--CODEGEN--\":5:7   */\n              iszero\n              tag_36\n              jumpi\n                /* \"--CODEGEN--\":30:31   */\n              0x0\n                /* \"--CODEGEN--\":27:28   */\n              dup1\n                /* \"--CODEGEN--\":20:32   */\n              revert\n                /* \"--CODEGEN--\":5:7   */\n            tag_36:\n                /* \"shoot/3/数组长度溢出/1.sol\":654:722  function att1()public{\r... */\n              pop\n              tag_37\n              jump(tag_38)\n            tag_37:\n              stop\n                /* \"shoot/3/数组长度溢出/1.sol\":1517:1635  function fig3(address _addr)public pure returns(bytes32){\r... */\n            tag_8:\n              callvalue\n                /* \"--CODEGEN--\":8:17   */\n              dup1\n                /* \"--CODEGEN--\":5:7   */\n              iszero\n              tag_39\n              jumpi\n                /* \"--CODEGEN--\":30:31   */\n              0x0\n                /* \"--CODEGEN--\":27:28   */\n              dup1\n                /* \"--CODEGEN--\":20:32   */\n              revert\n                /* \"--CODEGEN--\":5:7   */\n            tag_39:\n                /* \"shoot/3/数组长度溢出/1.sol\":1517:1635  function fig3(address _addr)public pure returns(bytes32){\r... */\n              pop\n              tag_40\n              0x4\n              dup1\n              calldatasize\n              sub\n              dup2\n              add\n              swap1\n              dup1\n              dup1\n              calldataload\n              0xffffffffffffffffffffffffffffffffffffffff\n              and\n              swap1\n              0x20\n              add\n              swap1\n              swap3\n              swap2\n              swap1\n              pop\n              pop\n              pop\n              jump(tag_41)\n            tag_40:\n              mload(0x40)\n              dup1\n              dup3\n              not(0x0)\n              and\n              not(0x0)\n              and\n              dup2\n              mstore\n              0x20\n              add\n              swap2\n              pop\n              pop\n              mload(0x40)\n              dup1\n              swap2\n              sub\n              swap1\n              return\n                /* \"shoot/3/数组长度溢出/1.sol\":1641:1772  function fig4(address _addr)public pure returns(uint256){\r... */\n            tag_9:\n              callvalue\n                /* \"--CODEGEN--\":8:17   */\n              dup1\n                /* \"--CODEGEN--\":5:7   */\n              iszero\n              tag_42\n              jumpi\n                /* \"--CODEGEN--\":30:31   */\n              0x0\n                /* \"--CODEGEN--\":27:28   */\n              dup1\n                /* \"--CODEGEN--\":20:32   */\n              revert\n                /* \"--CODEGEN--\":5:7   */\n            tag_42:\n                /* \"shoot/3/数组长度溢出/1.sol\":1641:1772  function fig4(address _addr)public pure returns(uint256){\r... */\n              pop\n              tag_43\n              0x4\n              dup1\n              calldatasize\n              sub\n              dup2\n              add\n              swap1\n              dup1\n              dup1\n              calldataload\n              0xffffffffffffffffffffffffffffffffffffffff\n              and\n              swap1\n              0x20\n              add\n              swap1\n              swap3\n              swap2\n              swap1\n              pop\n              pop\n              pop\n              jump(tag_44)\n            tag_43:\n              mload(0x40)\n              dup1\n              dup3\n              dup2\n              mstore\n              0x20\n              add\n              swap2\n              pop\n              pop\n              mload(0x40)\n              dup1\n              swap2\n              sub\n              swap1\n              return\n                /* \"shoot/3/数组长度溢出/1.sol\":1778:1909  function fig5(address _addr)public pure returns(uint256){\r... */\n            tag_10:\n              callvalue\n                /* \"--CODEGEN--\":8:17   */\n              dup1\n                /* \"--CODEGEN--\":5:7   */\n              iszero\n              tag_45\n              jumpi\n                /* \"--CODEGEN--\":30:31   */\n              0x0\n                /* \"--CODEGEN--\":27:28   */\n              dup1\n                /* \"--CODEGEN--\":20:32   */\n              revert\n                /* \"--CODEGEN--\":5:7   */\n            tag_45:\n                /* \"shoot/3/数组长度溢出/1.sol\":1778:1909  function fig5(address _addr)public pure returns(uint256){\r... */\n              pop\n              tag_46\n              0x4\n              dup1\n              calldatasize\n              sub\n              dup2\n              add\n              swap1\n              dup1\n              dup1\n              calldataload\n              0xffffffffffffffffffffffffffffffffffffffff\n              and\n              swap1\n              0x20\n              add\n              swap1\n              swap3\n              swap2\n              swap1\n              pop\n              pop\n              pop\n              jump(tag_47)\n            tag_46:\n              mload(0x40)\n              dup1\n              dup3\n              dup2\n              mstore\n              0x20\n              add\n              swap2\n              pop\n              pop\n              mload(0x40)\n              dup1\n              swap2\n              sub\n              swap1\n              return\n                /* \"shoot/3/数组长度溢出/1.sol\":178:198  uint256 public times */\n            tag_11:\n              callvalue\n                /* \"--CODEGEN--\":8:17   */\n              dup1\n                /* \"--CODEGEN--\":5:7   */\n              iszero\n              tag_48\n              jumpi\n                /* \"--CODEGEN--\":30:31   */\n              0x0\n                /* \"--CODEGEN--\":27:28   */\n              dup1\n                /* \"--CODEGEN--\":20:32   */\n              revert\n                /* \"--CODEGEN--\":5:7   */\n            tag_48:\n                /* \"shoot/3/数组长度溢出/1.sol\":178:198  uint256 public times */\n              pop\n              tag_49\n              jump(tag_50)\n            tag_49:\n              mload(0x40)\n              dup1\n              dup3\n              dup2\n              mstore\n              0x20\n              add\n              swap2\n              pop\n              pop\n              mload(0x40)\n              dup1\n              swap2\n              sub\n              swap1\n              return\n                /* \"shoot/3/数组长度溢出/1.sol\":128:144  check public che */\n            tag_12:\n              callvalue\n                /* \"--CODEGEN--\":8:17   */\n              dup1\n                /* \"--CODEGEN--\":5:7   */\n              iszero\n              tag_51\n              jumpi\n                /* \"--CODEGEN--\":30:31   */\n              0x0\n                /* \"--CODEGEN--\":27:28   */\n              dup1\n                /* \"--CODEGEN--\":20:32   */\n              revert\n                /* \"--CODEGEN--\":5:7   */\n            tag_51:\n                /* \"shoot/3/数组长度溢出/1.sol\":128:144  check public che */\n              pop\n              tag_52\n              jump(tag_53)\n            tag_52:\n              mload(0x40)\n              dup1\n              dup3\n              0xffffffffffffffffffffffffffffffffffffffff\n              and\n              0xffffffffffffffffffffffffffffffffffffffff\n              and\n              dup2\n              mstore\n              0x20\n              add\n              swap2\n              pop\n              pop\n              mload(0x40)\n              dup1\n              swap2\n              sub\n              swap1\n              return\n                /* \"shoot/3/数组长度溢出/1.sol\":1257:1381  function fig1(address _addr)public pure returns(uint256){\r... */\n            tag_13:\n              callvalue\n                /* \"--CODEGEN--\":8:17   */\n              dup1\n                /* \"--CODEGEN--\":5:7   */\n              iszero\n              tag_54\n              jumpi\n                /* \"--CODEGEN--\":30:31   */\n              0x0\n                /* \"--CODEGEN--\":27:28   */\n              dup1\n                /* \"--CODEGEN--\":20:32   */\n              revert\n                /* \"--CODEGEN--\":5:7   */\n            tag_54:\n                /* \"shoot/3/数组长度溢出/1.sol\":1257:1381  function fig1(address _addr)public pure returns(uint256){\r... */\n              pop\n              tag_55\n              0x4\n              dup1\n              calldatasize\n              sub\n              dup2\n              add\n              swap1\n              dup1\n              dup1\n              calldataload\n              0xffffffffffffffffffffffffffffffffffffffff\n              and\n              swap1\n              0x20\n              add\n              swap1\n              swap3\n              swap2\n              swap1\n              pop\n              pop\n              pop\n              jump(tag_56)\n            tag_55:\n              mload(0x40)\n              dup1\n              dup3\n              dup2\n              mstore\n              0x20\n              add\n              swap2\n              pop\n              pop\n              mload(0x40)\n              dup1\n              swap2\n              sub\n              swap1\n              return\n                /* \"shoot/3/数组长度溢出/1.sol\":578:648  function init()public{\r... */\n            tag_14:\n              callvalue\n                /* \"--CODEGEN--\":8:17   */\n              dup1\n                /* \"--CODEGEN--\":5:7   */\n              iszero\n              tag_57\n              jumpi\n                /* \"--CODEGEN--\":30:31   */\n              0x0\n                /* \"--CODEGEN--\":27:28   */\n              dup1\n                /* \"--CODEGEN--\":20:32   */\n              revert\n                /* \"--CODEGEN--\":5:7   */\n            tag_57:\n                /* \"shoot/3/数组长度溢出/1.sol\":578:648  function init()public{\r... */\n              pop\n              tag_58\n              jump(tag_59)\n            tag_58:\n              stop\n                /* \"shoot/3/数组长度溢出/1.sol\":1006:1130  function arrayStart(address _addr)public pure returns(bytes32){\r... */\n            tag_15:\n              callvalue\n                /* \"--CODEGEN--\":8:17   */\n              dup1\n                /* \"--CODEGEN--\":5:7   */\n              iszero\n              tag_60\n              jumpi\n                /* \"--CODEGEN--\":30:31   */\n              0x0\n                /* \"--CODEGEN--\":27:28   */\n              dup1\n                /* \"--CODEGEN--\":20:32   */\n              revert\n                /* \"--CODEGEN--\":5:7   */\n            tag_60:\n                /* \"shoot/3/数组长度溢出/1.sol\":1006:1130  function arrayStart(address _addr)public pure returns(bytes32){\r... */\n              pop\n              tag_61\n              0x4\n              dup1\n              calldatasize\n              sub\n              dup2\n              add\n              swap1\n              dup1\n              dup1\n              calldataload\n              0xffffffffffffffffffffffffffffffffffffffff\n              and\n              swap1\n              0x20\n              add\n              swap1\n              swap3\n              swap2\n              swap1\n              pop\n              pop\n              pop\n              jump(tag_62)\n            tag_61:\n              mload(0x40)\n              dup1\n              dup3\n              not(0x0)\n              and\n              not(0x0)\n              and\n              dup2\n              mstore\n              0x20\n              add\n              swap2\n              pop\n              pop\n              mload(0x40)\n              dup1\n              swap2\n              sub\n              swap1\n              return\n                /* \"shoot/3/数组长度溢出/1.sol\":1387:1511  function fig2(address _addr)public pure returns(uint256){\r... */\n            tag_23:\n                /* \"shoot/3/数组长度溢出/1.sol\":1435:1442  uint256 */\n              0x0\n                /* \"shoot/3/数组长度溢出/1.sol\":1502:1503  2 */\n              0x2\n                /* \"shoot/3/数组长度溢出/1.sol\":1499:1500  1 */\n              0x1\n                /* \"shoot/3/数组长度溢出/1.sol\":1482:1497  arrayEle(_addr) */\n              tag_64\n                /* \"shoot/3/数组长度溢出/1.sol\":1491:1496  _addr */\n              dup5\n                /* \"shoot/3/数组长度溢出/1.sol\":1482:1490  arrayEle */\n              tag_26\n                /* \"shoot/3/数组长度溢出/1.sol\":1482:1497  arrayEle(_addr) */\n              jump\t// in\n            tag_64:\n                /* \"shoot/3/数组长度溢出/1.sol\":1474:1498  uint256(arrayEle(_addr)) */\n              0x1\n              swap1\n              div\n                /* \"shoot/3/数组长度溢出/1.sol\":1470:1472  -1 */\n              0xffffffffffffffffffffffffffffffffffffffffffffffffffffffffffffffff\n                /* \"shoot/3/数组长度溢出/1.sol\":1462:1498  uint256(-1)-uint256(arrayEle(_addr)) */\n              sub\n                /* \"shoot/3/数组长度溢出/1.sol\":1462:1500  uint256(-1)-uint256(arrayEle(_addr))+1 */\n              add\n                /* \"shoot/3/数组长度溢出/1.sol\":1461:1503  (uint256(-1)-uint256(arrayEle(_addr))+1)/2 */\n              dup2\n              iszero\n              iszero\n              tag_65\n              jumpi\n              invalid\n            tag_65:\n              div\n                /* \"shoot/3/数组长度溢出/1.sol\":1454:1503  return (uint256(-1)-uint256(arrayEle(_addr))+1)/2 */\n              swap1\n              pop\n                /* \"shoot/3/数组长度溢出/1.sol\":1387:1511  function fig2(address _addr)public pure returns(uint256){\r... */\n              swap2\n              swap1\n              pop\n              jump\t// out\n                /* \"shoot/3/数组长度溢出/1.sol\":1136:1251  function arrayEle(address _addr) public pure returns(bytes32){\r... */\n            tag_26:\n                /* \"shoot/3/数组长度溢出/1.sol\":1189:1196  bytes32 */\n              0x0\n                /* \"shoot/3/数组长度溢出/1.sol\":1225:1242  arrayStart(_addr) */\n              tag_67\n                /* \"shoot/3/数组长度溢出/1.sol\":1236:1241  _addr */\n              dup3\n                /* \"shoot/3/数组长度溢出/1.sol\":1225:1235  arrayStart */\n              tag_62\n                /* \"shoot/3/数组长度溢出/1.sol\":1225:1242  arrayStart(_addr) */\n              jump\t// in\n            tag_67:\n                /* \"shoot/3/数组长度溢出/1.sol\":1215:1243  keccak256(arrayStart(_addr)) */\n              mload(0x40)\n              dup1\n              dup3\n              not(0x0)\n              and\n              not(0x0)\n              and\n              dup2\n              mstore\n              0x20\n              add\n              swap2\n              pop\n              pop\n              mload(0x40)\n              dup1\n              swap2\n              sub\n              swap1\n              keccak256\n                /* \"shoot/3/数组长度溢出/1.sol\":1208:1243  return keccak256(arrayStart(_addr)) */\n              swap1\n              pop\n                /* \"shoot/3/数组长度溢出/1.sol\":1136:1251  function arrayEle(address _addr) public pure returns(bytes32){\r... */\n              swap2\n              swap1\n              pop\n              jump\t// out\n                /* \"shoot/3/数组长度溢出/1.sol\":151:171  userinfo public info */\n            tag_29:\n              0x1\n              0x0\n              swap1\n              sload\n              swap1\n              0x100\n              exp\n              swap1\n              div\n              0xffffffffffffffffffffffffffffffffffffffff\n              and\n              dup2\n              jump\t// out\n                /* \"shoot/3/数组长度溢出/1.sol\":730:803  function att2()public{\r... */\n            tag_32:\n                /* \"shoot/3/数组长度溢出/1.sol\":762:795  setN(fig5(address(this)),\"sbgzx\") */\n              tag_69\n                /* \"shoot/3/数组长度溢出/1.sol\":767:786  fig5(address(this)) */\n              tag_70\n                /* \"shoot/3/数组长度溢出/1.sol\":780:784  this */\n              address\n                /* \"shoot/3/数组长度溢出/1.sol\":767:771  fig5 */\n              tag_47\n                /* \"shoot/3/数组长度溢出/1.sol\":767:786  fig5(address(this)) */\n              jump\t// in\n            tag_70:\n                /* \"shoot/3/数组长度溢出/1.sol\":762:795  setN(fig5(address(this)),\"sbgzx\") */\n              0x40\n              dup1\n              mload\n              swap1\n              dup2\n              add\n              0x40\n              mstore\n              dup1\n              0x5\n              dup2\n              mstore\n              0x20\n              add\n              0x7362677a78000000000000000000000000000000000000000000000000000000\n              dup2\n              mstore\n              pop\n                /* \"shoot/3/数组长度溢出/1.sol\":762:766  setN */\n              tag_71\n                /* \"shoot/3/数组长度溢出/1.sol\":762:795  setN(fig5(address(this)),\"sbgzx\") */\n              jump\t// in\n            tag_69:\n                /* \"shoot/3/数组长度溢出/1.sol\":730:803  function att2()public{\r... */\n              jump\t// out\n                /* \"shoot/3/数组长度溢出/1.sol\":809:870  function complete()public{\r... */\n            tag_35:\n                /* \"shoot/3/数组长度溢出/1.sol\":845:848  che */\n              0x0\n              dup1\n              swap1\n              sload\n              swap1\n              0x100\n              exp\n              swap1\n              div\n              0xffffffffffffffffffffffffffffffffffffffff\n              and\n                /* \"shoot/3/数组长度溢出/1.sol\":845:860  che.isCompleted */\n              0xffffffffffffffffffffffffffffffffffffffff\n              and\n              0xfa391c64\n                /* \"shoot/3/数组长度溢出/1.sol\":845:862  che.isCompleted() */\n              mload(0x40)\n              dup2\n              0xffffffff\n              and\n              0x100000000000000000000000000000000000000000000000000000000\n              mul\n              dup2\n              mstore\n              0x4\n              add\n              0x0\n              mload(0x40)\n              dup1\n              dup4\n              sub\n              dup2\n              0x0\n              dup8\n              dup1\n              extcodesize\n              iszero\n                /* \"--CODEGEN--\":8:17   */\n              dup1\n                /* \"--CODEGEN--\":5:7   */\n              iszero\n              tag_73\n              jumpi\n                /* \"--CODEGEN--\":30:31   */\n              0x0\n                /* \"--CODEGEN--\":27:28   */\n              dup1\n                /* \"--CODEGEN--\":20:32   */\n              revert\n                /* \"--CODEGEN--\":5:7   */\n            tag_73:\n                /* \"shoot/3/数组长度溢出/1.sol\":845:862  che.isCompleted() */\n              pop\n              gas\n              call\n              iszero\n                /* \"--CODEGEN--\":8:17   */\n              dup1\n                /* \"--CODEGEN--\":5:7   */\n              iszero\n              tag_74\n              jumpi\n                /* \"--CODEGEN--\":45:61   */\n              returndatasize\n                /* \"--CODEGEN--\":42:43   */\n              0x0\n                /* \"--CODEGEN--\":39:40   */\n              dup1\n                /* \"--CODEGEN--\":24:62   */\n              returndatacopy\n                /* \"--CODEGEN--\":77:93   */\n              returndatasize\n                /* \"--CODEGEN--\":74:75   */\n              0x0\n                /* \"--CODEGEN--\":67:94   */\n              revert\n                /* \"--CODEGEN--\":5:7   */\n            tag_74:\n                /* \"shoot/3/数组长度溢出/1.sol\":845:862  che.isCompleted() */\n              pop\n              pop\n              pop\n              pop\n                /* \"shoot/3/数组长度溢出/1.sol\":809:870  function complete()public{\r... */\n              jump\t// out\n                /* \"shoot/3/数组长度溢出/1.sol\":654:722  function att1()public{\r... */\n            tag_38:\n                /* \"shoot/3/数组长度溢出/1.sol\":686:714  setN(fig2(address(this)),\"\") */\n              tag_76\n                /* \"shoot/3/数组长度溢出/1.sol\":691:710  fig2(address(this)) */\n              tag_77\n                /* \"shoot/3/数组长度溢出/1.sol\":704:708  this */\n              address\n                /* \"shoot/3/数组长度溢出/1.sol\":691:695  fig2 */\n              tag_23\n                /* \"shoot/3/数组长度溢出/1.sol\":691:710  fig2(address(this)) */\n              jump\t// in\n            tag_77:\n                /* \"shoot/3/数组长度溢出/1.sol\":686:714  setN(fig2(address(this)),\"\") */\n              0x20\n              mload(0x40)\n              swap1\n              dup2\n              add\n              0x40\n              mstore\n              dup1\n              0x0\n              dup2\n              mstore\n              pop\n                /* \"shoot/3/数组长度溢出/1.sol\":686:690  setN */\n              tag_71\n                /* \"shoot/3/数组长度溢出/1.sol\":686:714  setN(fig2(address(this)),\"\") */\n              jump\t// in\n            tag_76:\n                /* \"shoot/3/数组长度溢出/1.sol\":654:722  function att1()public{\r... */\n              jump\t// out\n                /* \"shoot/3/数组长度溢出/1.sol\":1517:1635  function fig3(address _addr)public pure returns(bytes32){\r... */\n            tag_41:\n                /* \"shoot/3/数组长度溢出/1.sol\":1565:1572  bytes32 */\n              0x0\n                /* \"shoot/3/数组长度溢出/1.sol\":1609:1614  _addr */\n              dup2\n                /* \"shoot/3/数组长度溢出/1.sol\":1601:1615  bytes32(_addr) */\n              0xffffffffffffffffffffffffffffffffffffffff\n              and\n              0x1\n              mul\n                /* \"shoot/3/数组长度溢出/1.sol\":1624:1625  1 */\n              0x1\n                /* \"shoot/3/数组长度溢出/1.sol\":1591:1627  keccak256(bytes32(_addr),uint256(1)) */\n              mload(0x40)\n              dup1\n              dup4\n              not(0x0)\n              and\n              not(0x0)\n              and\n              dup2\n              mstore\n              0x20\n              add\n              dup3\n              dup2\n              mstore\n              0x20\n              add\n              swap3\n              pop\n              pop\n              pop\n              mload(0x40)\n              dup1\n              swap2\n              sub\n              swap1\n              keccak256\n                /* \"shoot/3/数组长度溢出/1.sol\":1584:1627  return keccak256(bytes32(_addr),uint256(1)) */\n              swap1\n              pop\n                /* \"shoot/3/数组长度溢出/1.sol\":1517:1635  function fig3(address _addr)public pure returns(bytes32){\r... */\n              swap2\n              swap1\n              pop\n              jump\t// out\n                /* \"shoot/3/数组长度溢出/1.sol\":1641:1772  function fig4(address _addr)public pure returns(uint256){\r... */\n            tag_44:\n                /* \"shoot/3/数组长度溢出/1.sol\":1689:1696  uint256 */\n              0x0\n                /* \"shoot/3/数组长度溢出/1.sol\":1763:1764  2 */\n              0x2\n                /* \"shoot/3/数组长度溢出/1.sol\":1745:1760  arrayEle(_addr) */\n              tag_80\n                /* \"shoot/3/数组长度溢出/1.sol\":1754:1759  _addr */\n              dup4\n                /* \"shoot/3/数组长度溢出/1.sol\":1745:1753  arrayEle */\n              tag_26\n                /* \"shoot/3/数组长度溢出/1.sol\":1745:1760  arrayEle(_addr) */\n              jump\t// in\n            tag_80:\n                /* \"shoot/3/数组长度溢出/1.sol\":1737:1761  uint256(arrayEle(_addr)) */\n              0x1\n              swap1\n              div\n                /* \"shoot/3/数组长度溢出/1.sol\":1724:1735  fig3(_addr) */\n              tag_81\n                /* \"shoot/3/数组长度溢出/1.sol\":1729:1734  _addr */\n              dup5\n                /* \"shoot/3/数组长度溢出/1.sol\":1724:1728  fig3 */\n              tag_41\n                /* \"shoot/3/数组长度溢出/1.sol\":1724:1735  fig3(_addr) */\n              jump\t// in\n            tag_81:\n                /* \"shoot/3/数组长度溢出/1.sol\":1716:1736  uint256(fig3(_addr)) */\n              0x1\n              swap1\n              div\n                /* \"shoot/3/数组长度溢出/1.sol\":1716:1761  uint256(fig3(_addr))-uint256(arrayEle(_addr)) */\n              sub\n                /* \"shoot/3/数组长度溢出/1.sol\":1715:1764  (uint256(fig3(_addr))-uint256(arrayEle(_addr)))%2 */\n              dup2\n              iszero\n              iszero\n              tag_82\n              jumpi\n              invalid\n            tag_82:\n              mod\n                /* \"shoot/3/数组长度溢出/1.sol\":1708:1764  return (uint256(fig3(_addr))-uint256(arrayEle(_addr)))%2 */\n              swap1\n              pop\n                /* \"shoot/3/数组长度溢出/1.sol\":1641:1772  function fig4(address _addr)public pure returns(uint256){\r... */\n              swap2\n              swap1\n              pop\n              jump\t// out\n                /* \"shoot/3/数组长度溢出/1.sol\":1778:1909  function fig5(address _addr)public pure returns(uint256){\r... */\n            tag_47:\n                /* \"shoot/3/数组长度溢出/1.sol\":1826:1833  uint256 */\n              0x0\n                /* \"shoot/3/数组长度溢出/1.sol\":1900:1901  2 */\n              0x2\n                /* \"shoot/3/数组长度溢出/1.sol\":1882:1897  arrayEle(_addr) */\n              tag_84\n                /* \"shoot/3/数组长度溢出/1.sol\":1891:1896  _addr */\n              dup4\n                /* \"shoot/3/数组长度溢出/1.sol\":1882:1890  arrayEle */\n              tag_26\n                /* \"shoot/3/数组长度溢出/1.sol\":1882:1897  arrayEle(_addr) */\n              jump\t// in\n            tag_84:\n                /* \"shoot/3/数组长度溢出/1.sol\":1874:1898  uint256(arrayEle(_addr)) */\n              0x1\n              swap1\n              div\n                /* \"shoot/3/数组长度溢出/1.sol\":1861:1872  fig3(_addr) */\n              tag_85\n                /* \"shoot/3/数组长度溢出/1.sol\":1866:1871  _addr */\n              dup5\n                /* \"shoot/3/数组长度溢出/1.sol\":1861:1865  fig3 */\n              tag_41\n                /* \"shoot/3/数组长度溢出/1.sol\":1861:1872  fig3(_addr) */\n              jump\t// in\n            tag_85:\n                /* \"shoot/3/数组长度溢出/1.sol\":1853:1873  uint256(fig3(_addr)) */\n              0x1\n              swap1\n              div\n                /* \"shoot/3/数组长度溢出/1.sol\":1853:1898  uint256(fig3(_addr))-uint256(arrayEle(_addr)) */\n              sub\n                /* \"shoot/3/数组长度溢出/1.sol\":1852:1901  (uint256(fig3(_addr))-uint256(arrayEle(_addr)))/2 */\n              dup2\n              iszero\n              iszero\n              tag_86\n              jumpi\n              invalid\n            tag_86:\n              div\n                /* \"shoot/3/数组长度溢出/1.sol\":1845:1901  return (uint256(fig3(_addr))-uint256(arrayEle(_addr)))/2 */\n              swap1\n              pop\n                /* \"shoot/3/数组长度溢出/1.sol\":1778:1909  function fig5(address _addr)public pure returns(uint256){\r... */\n              swap2\n              swap1\n              pop\n              jump\t// out\n                /* \"shoot/3/数组长度溢出/1.sol\":178:198  uint256 public times */\n            tag_50:\n              sload(0x2)\n              dup2\n              jump\t// out\n                /* \"shoot/3/数组长度溢出/1.sol\":128:144  check public che */\n            tag_53:\n              0x0\n              dup1\n              swap1\n              sload\n              swap1\n              0x100\n              exp\n              swap1\n              div\n              0xffffffffffffffffffffffffffffffffffffffff\n              and\n              dup2\n              jump\t// out\n                /* \"shoot/3/数组长度溢出/1.sol\":1257:1381  function fig1(address _addr)public pure returns(uint256){\r... */\n            tag_56:\n                /* \"shoot/3/数组长度溢出/1.sol\":1305:1312  uint256 */\n              0x0\n                /* \"shoot/3/数组长度溢出/1.sol\":1372:1373  2 */\n              0x2\n                /* \"shoot/3/数组长度溢出/1.sol\":1369:1370  1 */\n              0x1\n                /* \"shoot/3/数组长度溢出/1.sol\":1352:1367  arrayEle(_addr) */\n              tag_88\n                /* \"shoot/3/数组长度溢出/1.sol\":1361:1366  _addr */\n              dup5\n                /* \"shoot/3/数组长度溢出/1.sol\":1352:1360  arrayEle */\n              tag_26\n                /* \"shoot/3/数组长度溢出/1.sol\":1352:1367  arrayEle(_addr) */\n              jump\t// in\n            tag_88:\n                /* \"shoot/3/数组长度溢出/1.sol\":1344:1368  uint256(arrayEle(_addr)) */\n              0x1\n              swap1\n              div\n                /* \"shoot/3/数组长度溢出/1.sol\":1340:1342  -1 */\n              0xffffffffffffffffffffffffffffffffffffffffffffffffffffffffffffffff\n                /* \"shoot/3/数组长度溢出/1.sol\":1332:1368  uint256(-1)-uint256(arrayEle(_addr)) */\n              sub\n                /* \"shoot/3/数组长度溢出/1.sol\":1332:1370  uint256(-1)-uint256(arrayEle(_addr))+1 */\n              add\n                /* \"shoot/3/数组长度溢出/1.sol\":1331:1373  (uint256(-1)-uint256(arrayEle(_addr))+1)%2 */\n              dup2\n              iszero\n              iszero\n              tag_89\n              jumpi\n              invalid\n            tag_89:\n              mod\n                /* \"shoot/3/数组长度溢出/1.sol\":1324:1373  return (uint256(-1)-uint256(arrayEle(_addr))+1)%2 */\n              swap1\n              pop\n                /* \"shoot/3/数组长度溢出/1.sol\":1257:1381  function fig1(address _addr)public pure returns(uint256){\r... */\n              swap2\n              swap1\n              pop\n              jump\t// out\n                /* \"shoot/3/数组长度溢出/1.sol\":578:648  function init()public{\r... */\n            tag_59:\n                /* \"shoot/3/数组长度溢出/1.sol\":610:618  add(\"a\") */\n              tag_91\n              0x40\n              dup1\n              mload\n              swap1\n              dup2\n              add\n              0x40\n              mstore\n              dup1\n              0x1\n              dup2\n              mstore\n              0x20\n              add\n              0x6100000000000000000000000000000000000000000000000000000000000000\n              dup2\n              mstore\n              pop\n                /* \"shoot/3/数组长度溢出/1.sol\":610:613  add */\n              tag_92\n                /* \"shoot/3/数组长度溢出/1.sol\":610:618  add(\"a\") */\n              jump\t// in\n            tag_91:\n                /* \"shoot/3/数组长度溢出/1.sol\":629:638  deleteU() */\n              tag_93\n                /* \"shoot/3/数组长度溢出/1.sol\":629:636  deleteU */\n              tag_94\n                /* \"shoot/3/数组长度溢出/1.sol\":629:638  deleteU() */\n              jump\t// in\n            tag_93:\n                /* \"shoot/3/数组长度溢出/1.sol\":578:648  function init()public{\r... */\n              jump\t// out\n                /* \"shoot/3/数组长度溢出/1.sol\":1006:1130  function arrayStart(address _addr)public pure returns(bytes32){\r... */\n            tag_62:\n                /* \"shoot/3/数组长度溢出/1.sol\":1060:1067  bytes32 */\n              0x0\n                /* \"shoot/3/数组长度溢出/1.sol\":1104:1109  _addr */\n              dup2\n                /* \"shoot/3/数组长度溢出/1.sol\":1096:1110  bytes32(_addr) */\n              0xffffffffffffffffffffffffffffffffffffffff\n              and\n              0x1\n              mul\n                /* \"shoot/3/数组长度溢出/1.sol\":1119:1120  2 */\n              0x2\n                /* \"shoot/3/数组长度溢出/1.sol\":1086:1122  keccak256(bytes32(_addr),uint256(2)) */\n              mload(0x40)\n              dup1\n              dup4\n              not(0x0)\n              and\n              not(0x0)\n              and\n              dup2\n              mstore\n              0x20\n              add\n              dup3\n              dup2\n              mstore\n              0x20\n              add\n              swap3\n              pop\n              pop\n              pop\n              mload(0x40)\n              dup1\n              swap2\n              sub\n              swap1\n              keccak256\n                /* \"shoot/3/数组长度溢出/1.sol\":1079:1122  return keccak256(bytes32(_addr),uint256(2)) */\n              swap1\n              pop\n                /* \"shoot/3/数组长度溢出/1.sol\":1006:1130  function arrayStart(address _addr)public pure returns(bytes32){\r... */\n              swap2\n              swap1\n              pop\n              jump\t// out\n                /* \"shoot/3/数组长度溢出/1.sol\":472:570  function setN(uint256 index,string memory name)internal{\r... */\n            tag_71:\n                /* \"shoot/3/数组长度溢出/1.sol\":538:542  info */\n              0x1\n              0x0\n              swap1\n              sload\n              swap1\n              0x100\n              exp\n              swap1\n              div\n              0xffffffffffffffffffffffffffffffffffffffff\n              and\n                /* \"shoot/3/数组长度溢出/1.sol\":538:550  info.setName */\n              0xffffffffffffffffffffffffffffffffffffffff\n              and\n              0xfe55932a\n                /* \"shoot/3/数组长度溢出/1.sol\":551:556  index */\n              dup4\n                /* \"shoot/3/数组长度溢出/1.sol\":557:561  name */\n              dup4\n                /* \"shoot/3/数组长度溢出/1.sol\":538:562  info.setName(index,name) */\n              mload(0x40)\n              dup4\n              0xffffffff\n              and\n              0x100000000000000000000000000000000000000000000000000000000\n              mul\n              dup2\n              mstore\n              0x4\n              add\n              dup1\n              dup4\n              dup2\n              mstore\n              0x20\n              add\n              dup1\n              0x20\n              add\n              dup3\n              dup2\n              sub\n              dup3\n              mstore\n              dup4\n              dup2\n              dup2\n              mload\n              dup2\n              mstore\n              0x20\n              add\n              swap2\n              pop\n              dup1\n              mload\n              swap1\n              0x20\n              add\n              swap1\n              dup1\n              dup4\n              dup4\n                /* \"--CODEGEN--\":23:24   */\n              0x0\n                /* \"--CODEGEN--\":8:108   */\n            tag_97:\n                /* \"--CODEGEN--\":33:36   */\n              dup4\n                /* \"--CODEGEN--\":30:31   */\n              dup2\n                /* \"--CODEGEN--\":27:37   */\n              lt\n                /* \"--CODEGEN--\":8:108   */\n              iszero\n              tag_98\n              jumpi\n                /* \"--CODEGEN--\":99:100   */\n              dup1\n                /* \"--CODEGEN--\":94:97   */\n              dup3\n                /* \"--CODEGEN--\":90:101   */\n              add\n                /* \"--CODEGEN--\":84:102   */\n              mload\n                /* \"--CODEGEN--\":80:81   */\n              dup2\n                /* \"--CODEGEN--\":75:78   */\n              dup5\n                /* \"--CODEGEN--\":71:82   */\n              add\n                /* \"--CODEGEN--\":64:103   */\n              mstore\n                /* \"--CODEGEN--\":52:54   */\n              0x20\n                /* \"--CODEGEN--\":49:50   */\n              dup2\n                /* \"--CODEGEN--\":45:55   */\n              add\n                /* \"--CODEGEN--\":40:55   */\n              swap1\n              pop\n                /* \"--CODEGEN--\":8:108   */\n              jump(tag_97)\n            tag_98:\n                /* \"--CODEGEN--\":12:26   */\n              pop\n                /* \"shoot/3/数组长度溢出/1.sol\":538:562  info.setName(index,name) */\n              pop\n              pop\n              pop\n              swap1\n              pop\n              swap1\n              dup2\n              add\n              swap1\n              0x1f\n              and\n              dup1\n              iszero\n              tag_100\n              jumpi\n              dup1\n              dup3\n              sub\n              dup1\n              mload\n              0x1\n              dup4\n              0x20\n              sub\n              0x100\n              exp\n              sub\n              not\n              and\n              dup2\n              mstore\n              0x20\n              add\n              swap2\n              pop\n            tag_100:\n              pop\n              swap4\n              pop\n              pop\n              pop\n              pop\n              0x0\n              mload(0x40)\n              dup1\n              dup4\n              sub\n              dup2\n              0x0\n              dup8\n              dup1\n              extcodesize\n              iszero\n                /* \"--CODEGEN--\":8:17   */\n              dup1\n                /* \"--CODEGEN--\":5:7   */\n              iszero\n              tag_101\n              jumpi\n                /* \"--CODEGEN--\":30:31   */\n              0x0\n                /* \"--CODEGEN--\":27:28   */\n              dup1\n                /* \"--CODEGEN--\":20:32   */\n              revert\n                /* \"--CODEGEN--\":5:7   */\n            tag_101:\n                /* \"shoot/3/数组长度溢出/1.sol\":538:562  info.setName(index,name) */\n              pop\n              gas\n              call\n              iszero\n                /* \"--CODEGEN--\":8:17   */\n              dup1\n                /* \"--CODEGEN--\":5:7   */\n              iszero\n              tag_102\n              jumpi\n                /* \"--CODEGEN--\":45:61   */\n              returndatasize\n                /* \"--CODEGEN--\":42:43   */\n              0x0\n                /* \"--CODEGEN--\":39:40   */\n              dup1\n                /* \"--CODEGEN--\":24:62   */\n              returndatacopy\n                /* \"--CODEGEN--\":77:93   */\n              returndatasize\n                /* \"--CODEGEN--\":74:75   */\n              0x0\n                /* \"--CODEGEN--\":67:94   */\n              revert\n                /* \"--CODEGEN--\":5:7   */\n            tag_102:\n                /* \"shoot/3/数组长度溢出/1.sol\":538:562  info.setName(index,name) */\n              pop\n              pop\n              pop\n              pop\n                /* \"shoot/3/数组长度溢出/1.sol\":472:570  function setN(uint256 index,string memory name)internal{\r... */\n              pop\n              pop\n              jump\t// out\n                /* \"shoot/3/数组长度溢出/1.sol\":308:398  function add(string _name)internal {\r... */\n            tag_92:\n                /* \"shoot/3/数组长度溢出/1.sol\":354:358  info */\n              0x1\n              0x0\n              swap1\n              sload\n              swap1\n              0x100\n              exp\n              swap1\n              div\n              0xffffffffffffffffffffffffffffffffffffffff\n              and\n                /* \"shoot/3/数组长度溢出/1.sol\":354:366  info.addUser */\n              0xffffffffffffffffffffffffffffffffffffffff\n              and\n              0x18b8275a\n                /* \"shoot/3/数组长度溢出/1.sol\":373:382  msg.value */\n              callvalue\n                /* \"shoot/3/数组长度溢出/1.sol\":384:389  _name */\n              dup4\n                /* \"shoot/3/数组长度溢出/1.sol\":354:390  info.addUser.value(msg.value)(_name) */\n              mload(0x40)\n              dup4\n              0xffffffff\n              and\n              0x100000000000000000000000000000000000000000000000000000000\n              mul\n              dup2\n              mstore\n              0x4\n              add\n              dup1\n              dup1\n              0x20\n              add\n              dup3\n              dup2\n              sub\n              dup3\n              mstore\n              dup4\n              dup2\n              dup2\n              mload\n              dup2\n              mstore\n              0x20\n              add\n              swap2\n              pop\n              dup1\n              mload\n              swap1\n              0x20\n              add\n              swap1\n              dup1\n              dup4\n              dup4\n                /* \"--CODEGEN--\":23:24   */\n              0x0\n                /* \"--CODEGEN--\":8:108   */\n            tag_104:\n                /* \"--CODEGEN--\":33:36   */\n              dup4\n                /* \"--CODEGEN--\":30:31   */\n              dup2\n                /* \"--CODEGEN--\":27:37   */\n              lt\n                /* \"--CODEGEN--\":8:108   */\n              iszero\n              tag_105\n              jumpi\n                /* \"--CODEGEN--\":99:100   */\n              dup1\n                /* \"--CODEGEN--\":94:97   */\n              dup3\n                /* \"--CODEGEN--\":90:101   */\n              add\n                /* \"--CODEGEN--\":84:102   */\n              mload\n                /* \"--CODEGEN--\":80:81   */\n              dup2\n                /* \"--CODEGEN--\":75:78   */\n              dup5\n                /* \"--CODEGEN--\":71:82   */\n              add\n                /* \"--CODEGEN--\":64:103   */\n              mstore\n                /* \"--CODEGEN--\":52:54   */\n              0x20\n                /* \"--CODEGEN--\":49:50   */\n              dup2\n                /* \"--CODEGEN--\":45:55   */\n              add\n                /* \"--CODEGEN--\":40:55   */\n              swap1\n              pop\n                /* \"--CODEGEN--\":8:108   */\n              jump(tag_104)\n            tag_105:\n                /* \"--CODEGEN--\":12:26   */\n              pop\n                /* \"shoot/3/数组长度溢出/1.sol\":354:390  info.addUser.value(msg.value)(_name) */\n              pop\n              pop\n              pop\n              swap1\n              pop\n              swap1\n              dup2\n              add\n              swap1\n              0x1f\n              and\n              dup1\n              iszero\n              tag_107\n              jumpi\n              dup1\n              dup3\n              sub\n              dup1\n              mload\n              0x1\n              dup4\n              0x20\n              sub\n              0x100\n              exp\n              sub\n              not\n              and\n              dup2\n              mstore\n              0x20\n              add\n              swap2\n              pop\n            tag_107:\n              pop\n              swap3\n              pop\n              pop\n              pop\n              0x0\n              mload(0x40)\n              dup1\n              dup4\n              sub\n              dup2\n              dup6\n              dup9\n              dup1\n              extcodesize\n              iszero\n                /* \"--CODEGEN--\":8:17   */\n              dup1\n                /* \"--CODEGEN--\":5:7   */\n              iszero\n              tag_108\n              jumpi\n                /* \"--CODEGEN--\":30:31   */\n              0x0\n                /* \"--CODEGEN--\":27:28   */\n              dup1\n                /* \"--CODEGEN--\":20:32   */\n              revert\n                /* \"--CODEGEN--\":5:7   */\n            tag_108:\n                /* \"shoot/3/数组长度溢出/1.sol\":354:390  info.addUser.value(msg.value)(_name) */\n              pop\n              gas\n              call\n              iszero\n                /* \"--CODEGEN--\":8:17   */\n              dup1\n                /* \"--CODEGEN--\":5:7   */\n              iszero\n              tag_109\n              jumpi\n                /* \"--CODEGEN--\":45:61   */\n              returndatasize\n                /* \"--CODEGEN--\":42:43   */\n              0x0\n                /* \"--CODEGEN--\":39:40   */\n              dup1\n                /* \"--CODEGEN--\":24:62   */\n              returndatacopy\n                /* \"--CODEGEN--\":77:93   */\n              returndatasize\n                /* \"--CODEGEN--\":74:75   */\n              0x0\n                /* \"--CODEGEN--\":67:94   */\n              revert\n                /* \"--CODEGEN--\":5:7   */\n            tag_109:\n                /* \"shoot/3/数组长度溢出/1.sol\":354:390  info.addUser.value(msg.value)(_name) */\n              pop\n              pop\n              pop\n              pop\n              pop\n                /* \"shoot/3/数组长度溢出/1.sol\":308:398  function add(string _name)internal {\r... */\n              pop\n              jump\t// out\n                /* \"shoot/3/数组长度溢出/1.sol\":404:466  function deleteU()internal{\r... */\n            tag_94:\n                /* \"shoot/3/数组长度溢出/1.sol\":441:445  info */\n              0x1\n              0x0\n              swap1\n              sload\n              swap1\n              0x100\n              exp\n              swap1\n              div\n              0xffffffffffffffffffffffffffffffffffffffff\n              and\n                /* \"shoot/3/数组长度溢出/1.sol\":441:456  info.deleteUser */\n              0xffffffffffffffffffffffffffffffffffffffff\n              and\n              0x26ff05e\n                /* \"shoot/3/数组长度溢出/1.sol\":441:458  info.deleteUser() */\n              mload(0x40)\n              dup2\n              0xffffffff\n              and\n              0x100000000000000000000000000000000000000000000000000000000\n              mul\n              dup2\n              mstore\n              0x4\n              add\n              0x0\n              mload(0x40)\n              dup1\n              dup4\n              sub\n              dup2\n              0x0\n              dup8\n              dup1\n              extcodesize\n              iszero\n                /* \"--CODEGEN--\":8:17   */\n              dup1\n                /* \"--CODEGEN--\":5:7   */\n              iszero\n              tag_111\n              jumpi\n                /* \"--CODEGEN--\":30:31   */\n              0x0\n                /* \"--CODEGEN--\":27:28   */\n              dup1\n                /* \"--CODEGEN--\":20:32   */\n              revert\n                /* \"--CODEGEN--\":5:7   */\n            tag_111:\n                /* \"shoot/3/数组长度溢出/1.sol\":441:458  info.deleteUser() */\n              pop\n              gas\n              call\n              iszero\n                /* \"--CODEGEN--\":8:17   */\n              dup1\n                /* \"--CODEGEN--\":5:7   */\n              iszero\n              tag_112\n              jumpi\n                /* \"--CODEGEN--\":45:61   */\n              returndatasize\n                /* \"--CODEGEN--\":42:43   */\n              0x0\n                /* \"--CODEGEN--\":39:40   */\n              dup1\n                /* \"--CODEGEN--\":24:62   */\n              returndatacopy\n                /* \"--CODEGEN--\":77:93   */\n              returndatasize\n                /* \"--CODEGEN--\":74:75   */\n              0x0\n                /* \"--CODEGEN--\":67:94   */\n              revert\n                /* \"--CODEGEN--\":5:7   */\n            tag_112:\n                /* \"shoot/3/数组长度溢出/1.sol\":441:458  info.deleteUser() */\n              pop\n              pop\n              pop\n              pop\n                /* \"shoot/3/数组长度溢出/1.sol\":404:466  function deleteU()internal{\r... */\n              jump\t// out\n\n            auxdata: 0xa165627a7a7230582098c22886d94d098ddbdddffcb5a0d3d9d6549f6778978e9aedddb9503a89b3fb0029\n        }\n    }\n\n    auxdata: 0xa165627a7a72305820c4704071b05426ead2082d6888f652f71e38a577e5c0c34218e6cf754f1f8f9a0029\n}\n",
				"bytecode": {
					"linkReferences": {},
					"object": "608060405234801561001057600080fd5b506113b6806100206000396000f300608060405260043610610099576000357c0100000000000000000000000000000000000000000000000000000000900463ffffffff1680630110ade11461009e5780633347825f146100f55780634f8632ba146101545780637127998d146101ab5780637797d6df1461020a5780638dc7892c14610261578063b733e791146102b8578063c75a1a9f146102fb578063f60d9e6114610352575b600080fd5b3480156100aa57600080fd5b506100df600480360381019080803573ffffffffffffffffffffffffffffffffffffffff1690602001909291905050506103b1565b6040518082815260200191505060405180910390f35b34801561010157600080fd5b50610136600480360381019080803573ffffffffffffffffffffffffffffffffffffffff1690602001909291905050506103f8565b60405180826000191660001916815260200191505060405180910390f35b34801561016057600080fd5b50610169610427565b604051808273ffffffffffffffffffffffffffffffffffffffff1673ffffffffffffffffffffffffffffffffffffffff16815260200191505060405180910390f35b3480156101b757600080fd5b506101ec600480360381019080803573ffffffffffffffffffffffffffffffffffffffff16906020019092919050505061044c565b60405180826000191660001916815260200191505060405180910390f35b34801561021657600080fd5b5061024b600480360381019080803573ffffffffffffffffffffffffffffffffffffffff169060200190929190505050610495565b6040518082815260200191505060405180910390f35b34801561026d57600080fd5b506102a2600480360381019080803573ffffffffffffffffffffffffffffffffffffffff1690602001909291905050506104c5565b6040518082815260200191505060405180910390f35b3480156102c457600080fd5b506102f9600480360381019080803573ffffffffffffffffffffffffffffffffffffffff1690602001909291905050506104f5565b005b34801561030757600080fd5b5061033c600480360381019080803573ffffffffffffffffffffffffffffffffffffffff1690602001909291905050506105e1565b6040518082815260200191505060405180910390f35b34801561035e57600080fd5b50610393600480360381019080803573ffffffffffffffffffffffffffffffffffffffff169060200190929190505050610628565b60405180826000191660001916815260200191505060405180910390f35b6000600260016103c0846103f8565b600190047fffffffffffffffffffffffffffffffffffffffffffffffffffffffffffffffff03018115156103f057fe5b049050919050565b600061040382610628565b60405180826000191660001916815260200191505060405180910390209050919050565b6000809054906101000a900473ffffffffffffffffffffffffffffffffffffffff1681565b60008173ffffffffffffffffffffffffffffffffffffffff1660010260016040518083600019166000191681526020018281526020019250505060405180910390209050919050565b600060026104a2836103f8565b600190046104af8461044c565b60019004038115156104bd57fe5b069050919050565b600060026104d2836103f8565b600190046104df8461044c565b60019004038115156104ed57fe5b049050919050565b600080600091505b6103e78210156105dc5782610510610671565b808273ffffffffffffffffffffffffffffffffffffffff1673ffffffffffffffffffffffffffffffffffffffff168152602001915050604051809103906000f080158015610562573d6000803e3d6000fd5b5090506000610570826105e1565b1480156105855750600061058382610495565b145b156105cf57806000806101000a81548173ffffffffffffffffffffffffffffffffffffffff021916908373ffffffffffffffffffffffffffffffffffffffff1602179055506105dc565b81806001019250506104fd565b505050565b6000600260016105f0846103f8565b600190047fffffffffffffffffffffffffffffffffffffffffffffffffffffffffffffffff030181151561062057fe5b069050919050565b60008173ffffffffffffffffffffffffffffffffffffffff1660010260026040518083600019166000191681526020018281526020019250505060405180910390209050919050565b604051610d0980610682833901905600608060405234801561001057600080fd5b50604051602080610d0983398101806040528101908080519060200190929190505050806000806101000a81548173ffffffffffffffffffffffffffffffffffffffff021916908373ffffffffffffffffffffffffffffffffffffffff1602179055506000809054906101000a900473ffffffffffffffffffffffffffffffffffffffff1673ffffffffffffffffffffffffffffffffffffffff1663370158ea6040518163ffffffff167c0100000000000000000000000000000000000000000000000000000000028152600401602060405180830381600087803b1580156100f857600080fd5b505af115801561010c573d6000803e3d6000fd5b505050506040513d602081101561012257600080fd5b8101908080519060200190929190505050600160006101000a81548173ffffffffffffffffffffffffffffffffffffffff021916908373ffffffffffffffffffffffffffffffffffffffff16021790555050610b86806101836000396000f3006080604052600436106100d0576000357c0100000000000000000000000000000000000000000000000000000000900463ffffffff1680630110ade11461018c5780633347825f146101e3578063370158ea1461024257806338a3968114610299578063522e1177146102b057806368b8d10e146102c75780637127998d146102de5780637797d6df1461033d5780638dc7892c146103945780639e3b34bf146103eb578063a7fb037514610416578063c75a1a9f1461046d578063e1c7392a146104c4578063f60d9e61146104db575b60028054101561018a576001600260008282540192505081905550600160009054906101000a900473ffffffffffffffffffffffffffffffffffffffff1673ffffffffffffffffffffffffffffffffffffffff1663026ff05e6040518163ffffffff167c0100000000000000000000000000000000000000000000000000000000028152600401600060405180830381600087803b15801561017157600080fd5b505af1158015610185573d6000803e3d6000fd5b505050505b005b34801561019857600080fd5b506101cd600480360381019080803573ffffffffffffffffffffffffffffffffffffffff16906020019092919050505061053a565b6040518082815260200191505060405180910390f35b3480156101ef57600080fd5b50610224600480360381019080803573ffffffffffffffffffffffffffffffffffffffff169060200190929190505050610581565b60405180826000191660001916815260200191505060405180910390f35b34801561024e57600080fd5b506102576105b0565b604051808273ffffffffffffffffffffffffffffffffffffffff1673ffffffffffffffffffffffffffffffffffffffff16815260200191505060405180910390f35b3480156102a557600080fd5b506102ae6105d6565b005b3480156102bc57600080fd5b506102c561061f565b005b3480156102d357600080fd5b506102dc6106be565b005b3480156102ea57600080fd5b5061031f600480360381019080803573ffffffffffffffffffffffffffffffffffffffff1690602001909291905050506106e2565b60405180826000191660001916815260200191505060405180910390f35b34801561034957600080fd5b5061037e600480360381019080803573ffffffffffffffffffffffffffffffffffffffff16906020019092919050505061072b565b6040518082815260200191505060405180910390f35b3480156103a057600080fd5b506103d5600480360381019080803573ffffffffffffffffffffffffffffffffffffffff16906020019092919050505061075b565b6040518082815260200191505060405180910390f35b3480156103f757600080fd5b5061040061078b565b6040518082815260200191505060405180910390f35b34801561042257600080fd5b5061042b610791565b604051808273ffffffffffffffffffffffffffffffffffffffff1673ffffffffffffffffffffffffffffffffffffffff16815260200191505060405180910390f35b34801561047957600080fd5b506104ae600480360381019080803573ffffffffffffffffffffffffffffffffffffffff1690602001909291905050506107b6565b6040518082815260200191505060405180910390f35b3480156104d057600080fd5b506104d96107fd565b005b3480156104e757600080fd5b5061051c600480360381019080803573ffffffffffffffffffffffffffffffffffffffff169060200190929190505050610845565b60405180826000191660001916815260200191505060405180910390f35b60006002600161054984610581565b600190047fffffffffffffffffffffffffffffffffffffffffffffffffffffffffffffffff030181151561057957fe5b049050919050565b600061058c82610845565b60405180826000191660001916815260200191505060405180910390209050919050565b600160009054906101000a900473ffffffffffffffffffffffffffffffffffffffff1681565b61061d6105e23061075b565b6040805190810160405280600581526020017f7362677a7800000000000000000000000000000000000000000000000000000081525061088e565b565b6000809054906101000a900473ffffffffffffffffffffffffffffffffffffffff1673ffffffffffffffffffffffffffffffffffffffff1663fa391c646040518163ffffffff167c0100000000000000000000000000000000000000000000000000000000028152600401600060405180830381600087803b1580156106a457600080fd5b505af11580156106b8573d6000803e3d6000fd5b50505050565b6106e06106ca3061053a565b602060405190810160405280600081525061088e565b565b60008173ffffffffffffffffffffffffffffffffffffffff1660010260016040518083600019166000191681526020018281526020019250505060405180910390209050919050565b6000600261073883610581565b60019004610745846106e2565b600190040381151561075357fe5b069050919050565b6000600261076883610581565b60019004610775846106e2565b600190040381151561078357fe5b049050919050565b60025481565b6000809054906101000a900473ffffffffffffffffffffffffffffffffffffffff1681565b6000600260016107c584610581565b600190047fffffffffffffffffffffffffffffffffffffffffffffffffffffffffffffffff03018115156107f557fe5b069050919050565b61083b6040805190810160405280600181526020017f61000000000000000000000000000000000000000000000000000000000000008152506109a8565b610843610aba565b565b60008173ffffffffffffffffffffffffffffffffffffffff1660010260026040518083600019166000191681526020018281526020019250505060405180910390209050919050565b600160009054906101000a900473ffffffffffffffffffffffffffffffffffffffff1673ffffffffffffffffffffffffffffffffffffffff1663fe55932a83836040518363ffffffff167c01000000000000000000000000000000000000000000000000000000000281526004018083815260200180602001828103825283818151815260200191508051906020019080838360005b8381101561093f578082015181840152602081019050610924565b50505050905090810190601f16801561096c5780820380516001836020036101000a031916815260200191505b509350505050600060405180830381600087803b15801561098c57600080fd5b505af11580156109a0573d6000803e3d6000fd5b505050505050565b600160009054906101000a900473ffffffffffffffffffffffffffffffffffffffff1673ffffffffffffffffffffffffffffffffffffffff166318b8275a34836040518363ffffffff167c01000000000000000000000000000000000000000000000000000000000281526004018080602001828103825283818151815260200191508051906020019080838360005b83811015610a53578082015181840152602081019050610a38565b50505050905090810190601f168015610a805780820380516001836020036101000a031916815260200191505b50925050506000604051808303818588803b158015610a9e57600080fd5b505af1158015610ab2573d6000803e3d6000fd5b505050505050565b600160009054906101000a900473ffffffffffffffffffffffffffffffffffffffff1673ffffffffffffffffffffffffffffffffffffffff1663026ff05e6040518163ffffffff167c0100000000000000000000000000000000000000000000000000000000028152600401600060405180830381600087803b158015610b4057600080fd5b505af1158015610b54573d6000803e3d6000fd5b505050505600a165627a7a7230582098c22886d94d098ddbdddffcb5a0d3d9d6549f6778978e9aedddb9503a89b3fb0029a165627a7a72305820c4704071b05426ead2082d6888f652f71e38a577e5c0c34218e6cf754f1f8f9a0029",
					"opcodes": "PUSH1 0x80 PUSH1 0x40 MSTORE CALLVALUE DUP1 ISZERO PUSH2 0x10 JUMPI PUSH1 0x0 DUP1 REVERT JUMPDEST POP PUSH2 0x13B6 DUP1 PUSH2 0x20 PUSH1 0x0 CODECOPY PUSH1 0x0 RETURN STOP PUSH1 0x80 PUSH1 0x40 MSTORE PUSH1 0x4 CALLDATASIZE LT PUSH2 0x99 JUMPI PUSH1 0x0 CALLDATALOAD PUSH29 0x100000000000000000000000000000000000000000000000000000000 SWAP1 DIV PUSH4 0xFFFFFFFF AND DUP1 PUSH4 0x110ADE1 EQ PUSH2 0x9E JUMPI DUP1 PUSH4 0x3347825F EQ PUSH2 0xF5 JUMPI DUP1 PUSH4 0x4F8632BA EQ PUSH2 0x154 JUMPI DUP1 PUSH4 0x7127998D EQ PUSH2 0x1AB JUMPI DUP1 PUSH4 0x7797D6DF EQ PUSH2 0x20A JUMPI DUP1 PUSH4 0x8DC7892C EQ PUSH2 0x261 JUMPI DUP1 PUSH4 0xB733E791 EQ PUSH2 0x2B8 JUMPI DUP1 PUSH4 0xC75A1A9F EQ PUSH2 0x2FB JUMPI DUP1 PUSH4 0xF60D9E61 EQ PUSH2 0x352 JUMPI JUMPDEST PUSH1 0x0 DUP1 REVERT JUMPDEST CALLVALUE DUP1 ISZERO PUSH2 0xAA JUMPI PUSH1 0x0 DUP1 REVERT JUMPDEST POP PUSH2 0xDF PUSH1 0x4 DUP1 CALLDATASIZE SUB DUP2 ADD SWAP1 DUP1 DUP1 CALLDATALOAD PUSH20 0xFFFFFFFFFFFFFFFFFFFFFFFFFFFFFFFFFFFFFFFF AND SWAP1 PUSH1 0x20 ADD SWAP1 SWAP3 SWAP2 SWAP1 POP POP POP PUSH2 0x3B1 JUMP JUMPDEST PUSH1 0x40 MLOAD DUP1 DUP3 DUP2 MSTORE PUSH1 0x20 ADD SWAP2 POP POP PUSH1 0x40 MLOAD DUP1 SWAP2 SUB SWAP1 RETURN JUMPDEST CALLVALUE DUP1 ISZERO PUSH2 0x101 JUMPI PUSH1 0x0 DUP1 REVERT JUMPDEST POP PUSH2 0x136 PUSH1 0x4 DUP1 CALLDATASIZE SUB DUP2 ADD SWAP1 DUP1 DUP1 CALLDATALOAD PUSH20 0xFFFFFFFFFFFFFFFFFFFFFFFFFFFFFFFFFFFFFFFF AND SWAP1 PUSH1 0x20 ADD SWAP1 SWAP3 SWAP2 SWAP1 POP POP POP PUSH2 0x3F8 JUMP JUMPDEST PUSH1 0x40 MLOAD DUP1 DUP3 PUSH1 0x0 NOT AND PUSH1 0x0 NOT AND DUP2 MSTORE PUSH1 0x20 ADD SWAP2 POP POP PUSH1 0x40 MLOAD DUP1 SWAP2 SUB SWAP1 RETURN JUMPDEST CALLVALUE DUP1 ISZERO PUSH2 0x160 JUMPI PUSH1 0x0 DUP1 REVERT JUMPDEST POP PUSH2 0x169 PUSH2 0x427 JUMP JUMPDEST PUSH1 0x40 MLOAD DUP1 DUP3 PUSH20 0xFFFFFFFFFFFFFFFFFFFFFFFFFFFFFFFFFFFFFFFF AND PUSH20 0xFFFFFFFFFFFFFFFFFFFFFFFFFFFFFFFFFFFFFFFF AND DUP2 MSTORE PUSH1 0x20 ADD SWAP2 POP POP PUSH1 0x40 MLOAD DUP1 SWAP2 SUB SWAP1 RETURN JUMPDEST CALLVALUE DUP1 ISZERO PUSH2 0x1B7 JUMPI PUSH1 0x0 DUP1 REVERT JUMPDEST POP PUSH2 0x1EC PUSH1 0x4 DUP1 CALLDATASIZE SUB DUP2 ADD SWAP1 DUP1 DUP1 CALLDATALOAD PUSH20 0xFFFFFFFFFFFFFFFFFFFFFFFFFFFFFFFFFFFFFFFF AND SWAP1 PUSH1 0x20 ADD SWAP1 SWAP3 SWAP2 SWAP1 POP POP POP PUSH2 0x44C JUMP JUMPDEST PUSH1 0x40 MLOAD DUP1 DUP3 PUSH1 0x0 NOT AND PUSH1 0x0 NOT AND DUP2 MSTORE PUSH1 0x20 ADD SWAP2 POP POP PUSH1 0x40 MLOAD DUP1 SWAP2 SUB SWAP1 RETURN JUMPDEST CALLVALUE DUP1 ISZERO PUSH2 0x216 JUMPI PUSH1 0x0 DUP1 REVERT JUMPDEST POP PUSH2 0x24B PUSH1 0x4 DUP1 CALLDATASIZE SUB DUP2 ADD SWAP1 DUP1 DUP1 CALLDATALOAD PUSH20 0xFFFFFFFFFFFFFFFFFFFFFFFFFFFFFFFFFFFFFFFF AND SWAP1 PUSH1 0x20 ADD SWAP1 SWAP3 SWAP2 SWAP1 POP POP POP PUSH2 0x495 JUMP JUMPDEST PUSH1 0x40 MLOAD DUP1 DUP3 DUP2 MSTORE PUSH1 0x20 ADD SWAP2 POP POP PUSH1 0x40 MLOAD DUP1 SWAP2 SUB SWAP1 RETURN JUMPDEST CALLVALUE DUP1 ISZERO PUSH2 0x26D JUMPI PUSH1 0x0 DUP1 REVERT JUMPDEST POP PUSH2 0x2A2 PUSH1 0x4 DUP1 CALLDATASIZE SUB DUP2 ADD SWAP1 DUP1 DUP1 CALLDATALOAD PUSH20 0xFFFFFFFFFFFFFFFFFFFFFFFFFFFFFFFFFFFFFFFF AND SWAP1 PUSH1 0x20 ADD SWAP1 SWAP3 SWAP2 SWAP1 POP POP POP PUSH2 0x4C5 JUMP JUMPDEST PUSH1 0x40 MLOAD DUP1 DUP3 DUP2 MSTORE PUSH1 0x20 ADD SWAP2 POP POP PUSH1 0x40 MLOAD DUP1 SWAP2 SUB SWAP1 RETURN JUMPDEST CALLVALUE DUP1 ISZERO PUSH2 0x2C4 JUMPI PUSH1 0x0 DUP1 REVERT JUMPDEST POP PUSH2 0x2F9 PUSH1 0x4 DUP1 CALLDATASIZE SUB DUP2 ADD SWAP1 DUP1 DUP1 CALLDATALOAD PUSH20 0xFFFFFFFFFFFFFFFFFFFFFFFFFFFFFFFFFFFFFFFF AND SWAP1 PUSH1 0x20 ADD SWAP1 SWAP3 SWAP2 SWAP1 POP POP POP PUSH2 0x4F5 JUMP JUMPDEST STOP JUMPDEST CALLVALUE DUP1 ISZERO PUSH2 0x307 JUMPI PUSH1 0x0 DUP1 REVERT JUMPDEST POP PUSH2 0x33C PUSH1 0x4 DUP1 CALLDATASIZE SUB DUP2 ADD SWAP1 DUP1 DUP1 CALLDATALOAD PUSH20 0xFFFFFFFFFFFFFFFFFFFFFFFFFFFFFFFFFFFFFFFF AND SWAP1 PUSH1 0x20 ADD SWAP1 SWAP3 SWAP2 SWAP1 POP POP POP PUSH2 0x5E1 JUMP JUMPDEST PUSH1 0x40 MLOAD DUP1 DUP3 DUP2 MSTORE PUSH1 0x20 ADD SWAP2 POP POP PUSH1 0x40 MLOAD DUP1 SWAP2 SUB SWAP1 RETURN JUMPDEST CALLVALUE DUP1 ISZERO PUSH2 0x35E JUMPI PUSH1 0x0 DUP1 REVERT JUMPDEST POP PUSH2 0x393 PUSH1 0x4 DUP1 CALLDATASIZE SUB DUP2 ADD SWAP1 DUP1 DUP1 CALLDATALOAD PUSH20 0xFFFFFFFFFFFFFFFFFFFFFFFFFFFFFFFFFFFFFFFF AND SWAP1 PUSH1 0x20 ADD SWAP1 SWAP3 SWAP2 SWAP1 POP POP POP PUSH2 0x628 JUMP JUMPDEST PUSH1 0x40 MLOAD DUP1 DUP3 PUSH1 0x0 NOT AND PUSH1 0x0 NOT AND DUP2 MSTORE PUSH1 0x20 ADD SWAP2 POP POP PUSH1 0x40 MLOAD DUP1 SWAP2 SUB SWAP1 RETURN JUMPDEST PUSH1 0x0 PUSH1 0x2 PUSH1 0x1 PUSH2 0x3C0 DUP5 PUSH2 0x3F8 JUMP JUMPDEST PUSH1 0x1 SWAP1 DIV PUSH32 0xFFFFFFFFFFFFFFFFFFFFFFFFFFFFFFFFFFFFFFFFFFFFFFFFFFFFFFFFFFFFFFFF SUB ADD DUP2 ISZERO ISZERO PUSH2 0x3F0 JUMPI INVALID JUMPDEST DIV SWAP1 POP SWAP2 SWAP1 POP JUMP JUMPDEST PUSH1 0x0 PUSH2 0x403 DUP3 PUSH2 0x628 JUMP JUMPDEST PUSH1 0x40 MLOAD DUP1 DUP3 PUSH1 0x0 NOT AND PUSH1 0x0 NOT AND DUP2 MSTORE PUSH1 0x20 ADD SWAP2 POP POP PUSH1 0x40 MLOAD DUP1 SWAP2 SUB SWAP1 KECCAK256 SWAP1 POP SWAP2 SWAP1 POP JUMP JUMPDEST PUSH1 0x0 DUP1 SWAP1 SLOAD SWAP1 PUSH2 0x100 EXP SWAP1 DIV PUSH20 0xFFFFFFFFFFFFFFFFFFFFFFFFFFFFFFFFFFFFFFFF AND DUP2 JUMP JUMPDEST PUSH1 0x0 DUP2 PUSH20 0xFFFFFFFFFFFFFFFFFFFFFFFFFFFFFFFFFFFFFFFF AND PUSH1 0x1 MUL PUSH1 0x1 PUSH1 0x40 MLOAD DUP1 DUP4 PUSH1 0x0 NOT AND PUSH1 0x0 NOT AND DUP2 MSTORE PUSH1 0x20 ADD DUP3 DUP2 MSTORE PUSH1 0x20 ADD SWAP3 POP POP POP PUSH1 0x40 MLOAD DUP1 SWAP2 SUB SWAP1 KECCAK256 SWAP1 POP SWAP2 SWAP1 POP JUMP JUMPDEST PUSH1 0x0 PUSH1 0x2 PUSH2 0x4A2 DUP4 PUSH2 0x3F8 JUMP JUMPDEST PUSH1 0x1 SWAP1 DIV PUSH2 0x4AF DUP5 PUSH2 0x44C JUMP JUMPDEST PUSH1 0x1 SWAP1 DIV SUB DUP2 ISZERO ISZERO PUSH2 0x4BD JUMPI INVALID JUMPDEST MOD SWAP1 POP SWAP2 SWAP1 POP JUMP JUMPDEST PUSH1 0x0 PUSH1 0x2 PUSH2 0x4D2 DUP4 PUSH2 0x3F8 JUMP JUMPDEST PUSH1 0x1 SWAP1 DIV PUSH2 0x4DF DUP5 PUSH2 0x44C JUMP JUMPDEST PUSH1 0x1 SWAP1 DIV SUB DUP2 ISZERO ISZERO PUSH2 0x4ED JUMPI INVALID JUMPDEST DIV SWAP1 POP SWAP2 SWAP1 POP JUMP JUMPDEST PUSH1 0x0 DUP1 PUSH1 0x0 SWAP2 POP JUMPDEST PUSH2 0x3E7 DUP3 LT ISZERO PUSH2 0x5DC JUMPI DUP3 PUSH2 0x510 PUSH2 0x671 JUMP JUMPDEST DUP1 DUP3 PUSH20 0xFFFFFFFFFFFFFFFFFFFFFFFFFFFFFFFFFFFFFFFF AND PUSH20 0xFFFFFFFFFFFFFFFFFFFFFFFFFFFFFFFFFFFFFFFF AND DUP2 MSTORE PUSH1 0x20 ADD SWAP2 POP POP PUSH1 0x40 MLOAD DUP1 SWAP2 SUB SWAP1 PUSH1 0x0 CREATE DUP1 ISZERO DUP1 ISZERO PUSH2 0x562 JUMPI RETURNDATASIZE PUSH1 0x0 DUP1 RETURNDATACOPY RETURNDATASIZE PUSH1 0x0 REVERT JUMPDEST POP SWAP1 POP PUSH1 0x0 PUSH2 0x570 DUP3 PUSH2 0x5E1 JUMP JUMPDEST EQ DUP1 ISZERO PUSH2 0x585 JUMPI POP PUSH1 0x0 PUSH2 0x583 DUP3 PUSH2 0x495 JUMP JUMPDEST EQ JUMPDEST ISZERO PUSH2 0x5CF JUMPI DUP1 PUSH1 0x0 DUP1 PUSH2 0x100 EXP DUP2 SLOAD DUP2 PUSH20 0xFFFFFFFFFFFFFFFFFFFFFFFFFFFFFFFFFFFFFFFF MUL NOT AND SWAP1 DUP4 PUSH20 0xFFFFFFFFFFFFFFFFFFFFFFFFFFFFFFFFFFFFFFFF AND MUL OR SWAP1 SSTORE POP PUSH2 0x5DC JUMP JUMPDEST DUP2 DUP1 PUSH1 0x1 ADD SWAP3 POP POP PUSH2 0x4FD JUMP JUMPDEST POP POP POP JUMP JUMPDEST PUSH1 0x0 PUSH1 0x2 PUSH1 0x1 PUSH2 0x5F0 DUP5 PUSH2 0x3F8 JUMP JUMPDEST PUSH1 0x1 SWAP1 DIV PUSH32 0xFFFFFFFFFFFFFFFFFFFFFFFFFFFFFFFFFFFFFFFFFFFFFFFFFFFFFFFFFFFFFFFF SUB ADD DUP2 ISZERO ISZERO PUSH2 0x620 JUMPI INVALID JUMPDEST MOD SWAP1 POP SWAP2 SWAP1 POP JUMP JUMPDEST PUSH1 0x0 DUP2 PUSH20 0xFFFFFFFFFFFFFFFFFFFFFFFFFFFFFFFFFFFFFFFF AND PUSH1 0x1 MUL PUSH1 0x2 PUSH1 0x40 MLOAD DUP1 DUP4 PUSH1 0x0 NOT AND PUSH1 0x0 NOT AND DUP2 MSTORE PUSH1 0x20 ADD DUP3 DUP2 MSTORE PUSH1 0x20 ADD SWAP3 POP POP POP PUSH1 0x40 MLOAD DUP1 SWAP2 SUB SWAP1 KECCAK256 SWAP1 POP SWAP2 SWAP1 POP JUMP JUMPDEST PUSH1 0x40 MLOAD PUSH2 0xD09 DUP1 PUSH2 0x682 DUP4 CODECOPY ADD SWAP1 JUMP STOP PUSH1 0x80 PUSH1 0x40 MSTORE CALLVALUE DUP1 ISZERO PUSH2 0x10 JUMPI PUSH1 0x0 DUP1 REVERT JUMPDEST POP PUSH1 0x40 MLOAD PUSH1 0x20 DUP1 PUSH2 0xD09 DUP4 CODECOPY DUP2 ADD DUP1 PUSH1 0x40 MSTORE DUP2 ADD SWAP1 DUP1 DUP1 MLOAD SWAP1 PUSH1 0x20 ADD SWAP1 SWAP3 SWAP2 SWAP1 POP POP POP DUP1 PUSH1 0x0 DUP1 PUSH2 0x100 EXP DUP2 SLOAD DUP2 PUSH20 0xFFFFFFFFFFFFFFFFFFFFFFFFFFFFFFFFFFFFFFFF MUL NOT AND SWAP1 DUP4 PUSH20 0xFFFFFFFFFFFFFFFFFFFFFFFFFFFFFFFFFFFFFFFF AND MUL OR SWAP1 SSTORE POP PUSH1 0x0 DUP1 SWAP1 SLOAD SWAP1 PUSH2 0x100 EXP SWAP1 DIV PUSH20 0xFFFFFFFFFFFFFFFFFFFFFFFFFFFFFFFFFFFFFFFF AND PUSH20 0xFFFFFFFFFFFFFFFFFFFFFFFFFFFFFFFFFFFFFFFF AND PUSH4 0x370158EA PUSH1 0x40 MLOAD DUP2 PUSH4 0xFFFFFFFF AND PUSH29 0x100000000000000000000000000000000000000000000000000000000 MUL DUP2 MSTORE PUSH1 0x4 ADD PUSH1 0x20 PUSH1 0x40 MLOAD DUP1 DUP4 SUB DUP2 PUSH1 0x0 DUP8 DUP1 EXTCODESIZE ISZERO DUP1 ISZERO PUSH2 0xF8 JUMPI PUSH1 0x0 DUP1 REVERT JUMPDEST POP GAS CALL ISZERO DUP1 ISZERO PUSH2 0x10C JUMPI RETURNDATASIZE PUSH1 0x0 DUP1 RETURNDATACOPY RETURNDATASIZE PUSH1 0x0 REVERT JUMPDEST POP POP POP POP PUSH1 0x40 MLOAD RETURNDATASIZE PUSH1 0x20 DUP2 LT ISZERO PUSH2 0x122 JUMPI PUSH1 0x0 DUP1 REVERT JUMPDEST DUP2 ADD SWAP1 DUP1 DUP1 MLOAD SWAP1 PUSH1 0x20 ADD SWAP1 SWAP3 SWAP2 SWAP1 POP POP POP PUSH1 0x1 PUSH1 0x0 PUSH2 0x100 EXP DUP2 SLOAD DUP2 PUSH20 0xFFFFFFFFFFFFFFFFFFFFFFFFFFFFFFFFFFFFFFFF MUL NOT AND SWAP1 DUP4 PUSH20 0xFFFFFFFFFFFFFFFFFFFFFFFFFFFFFFFFFFFFFFFF AND MUL OR SWAP1 SSTORE POP POP PUSH2 0xB86 DUP1 PUSH2 0x183 PUSH1 0x0 CODECOPY PUSH1 0x0 RETURN STOP PUSH1 0x80 PUSH1 0x40 MSTORE PUSH1 0x4 CALLDATASIZE LT PUSH2 0xD0 JUMPI PUSH1 0x0 CALLDATALOAD PUSH29 0x100000000000000000000000000000000000000000000000000000000 SWAP1 DIV PUSH4 0xFFFFFFFF AND DUP1 PUSH4 0x110ADE1 EQ PUSH2 0x18C JUMPI DUP1 PUSH4 0x3347825F EQ PUSH2 0x1E3 JUMPI DUP1 PUSH4 0x370158EA EQ PUSH2 0x242 JUMPI DUP1 PUSH4 0x38A39681 EQ PUSH2 0x299 JUMPI DUP1 PUSH4 0x522E1177 EQ PUSH2 0x2B0 JUMPI DUP1 PUSH4 0x68B8D10E EQ PUSH2 0x2C7 JUMPI DUP1 PUSH4 0x7127998D EQ PUSH2 0x2DE JUMPI DUP1 PUSH4 0x7797D6DF EQ PUSH2 0x33D JUMPI DUP1 PUSH4 0x8DC7892C EQ PUSH2 0x394 JUMPI DUP1 PUSH4 0x9E3B34BF EQ PUSH2 0x3EB JUMPI DUP1 PUSH4 0xA7FB0375 EQ PUSH2 0x416 JUMPI DUP1 PUSH4 0xC75A1A9F EQ PUSH2 0x46D JUMPI DUP1 PUSH4 0xE1C7392A EQ PUSH2 0x4C4 JUMPI DUP1 PUSH4 0xF60D9E61 EQ PUSH2 0x4DB JUMPI JUMPDEST PUSH1 0x2 DUP1 SLOAD LT ISZERO PUSH2 0x18A JUMPI PUSH1 0x1 PUSH1 0x2 PUSH1 0x0 DUP3 DUP3 SLOAD ADD SWAP3 POP POP DUP2 SWAP1 SSTORE POP PUSH1 0x1 PUSH1 0x0 SWAP1 SLOAD SWAP1 PUSH2 0x100 EXP SWAP1 DIV PUSH20 0xFFFFFFFFFFFFFFFFFFFFFFFFFFFFFFFFFFFFFFFF AND PUSH20 0xFFFFFFFFFFFFFFFFFFFFFFFFFFFFFFFFFFFFFFFF AND PUSH4 0x26FF05E PUSH1 0x40 MLOAD DUP2 PUSH4 0xFFFFFFFF AND PUSH29 0x100000000000000000000000000000000000000000000000000000000 MUL DUP2 MSTORE PUSH1 0x4 ADD PUSH1 0x0 PUSH1 0x40 MLOAD DUP1 DUP4 SUB DUP2 PUSH1 0x0 DUP8 DUP1 EXTCODESIZE ISZERO DUP1 ISZERO PUSH2 0x171 JUMPI PUSH1 0x0 DUP1 REVERT JUMPDEST POP GAS CALL ISZERO DUP1 ISZERO PUSH2 0x185 JUMPI RETURNDATASIZE PUSH1 0x0 DUP1 RETURNDATACOPY RETURNDATASIZE PUSH1 0x0 REVERT JUMPDEST POP POP POP POP JUMPDEST STOP JUMPDEST CALLVALUE DUP1 ISZERO PUSH2 0x198 JUMPI PUSH1 0x0 DUP1 REVERT JUMPDEST POP PUSH2 0x1CD PUSH1 0x4 DUP1 CALLDATASIZE SUB DUP2 ADD SWAP1 DUP1 DUP1 CALLDATALOAD PUSH20 0xFFFFFFFFFFFFFFFFFFFFFFFFFFFFFFFFFFFFFFFF AND SWAP1 PUSH1 0x20 ADD SWAP1 SWAP3 SWAP2 SWAP1 POP POP POP PUSH2 0x53A JUMP JUMPDEST PUSH1 0x40 MLOAD DUP1 DUP3 DUP2 MSTORE PUSH1 0x20 ADD SWAP2 POP POP PUSH1 0x40 MLOAD DUP1 SWAP2 SUB SWAP1 RETURN JUMPDEST CALLVALUE DUP1 ISZERO PUSH2 0x1EF JUMPI PUSH1 0x0 DUP1 REVERT JUMPDEST POP PUSH2 0x224 PUSH1 0x4 DUP1 CALLDATASIZE SUB DUP2 ADD SWAP1 DUP1 DUP1 CALLDATALOAD PUSH20 0xFFFFFFFFFFFFFFFFFFFFFFFFFFFFFFFFFFFFFFFF AND SWAP1 PUSH1 0x20 ADD SWAP1 SWAP3 SWAP2 SWAP1 POP POP POP PUSH2 0x581 JUMP JUMPDEST PUSH1 0x40 MLOAD DUP1 DUP3 PUSH1 0x0 NOT AND PUSH1 0x0 NOT AND DUP2 MSTORE PUSH1 0x20 ADD SWAP2 POP POP PUSH1 0x40 MLOAD DUP1 SWAP2 SUB SWAP1 RETURN JUMPDEST CALLVALUE DUP1 ISZERO PUSH2 0x24E JUMPI PUSH1 0x0 DUP1 REVERT JUMPDEST POP PUSH2 0x257 PUSH2 0x5B0 JUMP JUMPDEST PUSH1 0x40 MLOAD DUP1 DUP3 PUSH20 0xFFFFFFFFFFFFFFFFFFFFFFFFFFFFFFFFFFFFFFFF AND PUSH20 0xFFFFFFFFFFFFFFFFFFFFFFFFFFFFFFFFFFFFFFFF AND DUP2 MSTORE PUSH1 0x20 ADD SWAP2 POP POP PUSH1 0x40 MLOAD DUP1 SWAP2 SUB SWAP1 RETURN JUMPDEST CALLVALUE DUP1 ISZERO PUSH2 0x2A5 JUMPI PUSH1 0x0 DUP1 REVERT JUMPDEST POP PUSH2 0x2AE PUSH2 0x5D6 JUMP JUMPDEST STOP JUMPDEST CALLVALUE DUP1 ISZERO PUSH2 0x2BC JUMPI PUSH1 0x0 DUP1 REVERT JUMPDEST POP PUSH2 0x2C5 PUSH2 0x61F JUMP JUMPDEST STOP JUMPDEST CALLVALUE DUP1 ISZERO PUSH2 0x2D3 JUMPI PUSH1 0x0 DUP1 REVERT JUMPDEST POP PUSH2 0x2DC PUSH2 0x6BE JUMP JUMPDEST STOP JUMPDEST CALLVALUE DUP1 ISZERO PUSH2 0x2EA JUMPI PUSH1 0x0 DUP1 REVERT JUMPDEST POP PUSH2 0x31F PUSH1 0x4 DUP1 CALLDATASIZE SUB DUP2 ADD SWAP1 DUP1 DUP1 CALLDATALOAD PUSH20 0xFFFFFFFFFFFFFFFFFFFFFFFFFFFFFFFFFFFFFFFF AND SWAP1 PUSH1 0x20 ADD SWAP1 SWAP3 SWAP2 SWAP1 POP POP POP PUSH2 0x6E2 JUMP JUMPDEST PUSH1 0x40 MLOAD DUP1 DUP3 PUSH1 0x0 NOT AND PUSH1 0x0 NOT AND DUP2 MSTORE PUSH1 0x20 ADD SWAP2 POP POP PUSH1 0x40 MLOAD DUP1 SWAP2 SUB SWAP1 RETURN JUMPDEST CALLVALUE DUP1 ISZERO PUSH2 0x349 JUMPI PUSH1 0x0 DUP1 REVERT JUMPDEST POP PUSH2 0x37E PUSH1 0x4 DUP1 CALLDATASIZE SUB DUP2 ADD SWAP1 DUP1 DUP1 CALLDATALOAD PUSH20 0xFFFFFFFFFFFFFFFFFFFFFFFFFFFFFFFFFFFFFFFF AND SWAP1 PUSH1 0x20 ADD SWAP1 SWAP3 SWAP2 SWAP1 POP POP POP PUSH2 0x72B JUMP JUMPDEST PUSH1 0x40 MLOAD DUP1 DUP3 DUP2 MSTORE PUSH1 0x20 ADD SWAP2 POP POP PUSH1 0x40 MLOAD DUP1 SWAP2 SUB SWAP1 RETURN JUMPDEST CALLVALUE DUP1 ISZERO PUSH2 0x3A0 JUMPI PUSH1 0x0 DUP1 REVERT JUMPDEST POP PUSH2 0x3D5 PUSH1 0x4 DUP1 CALLDATASIZE SUB DUP2 ADD SWAP1 DUP1 DUP1 CALLDATALOAD PUSH20 0xFFFFFFFFFFFFFFFFFFFFFFFFFFFFFFFFFFFFFFFF AND SWAP1 PUSH1 0x20 ADD SWAP1 SWAP3 SWAP2 SWAP1 POP POP POP PUSH2 0x75B JUMP JUMPDEST PUSH1 0x40 MLOAD DUP1 DUP3 DUP2 MSTORE PUSH1 0x20 ADD SWAP2 POP POP PUSH1 0x40 MLOAD DUP1 SWAP2 SUB SWAP1 RETURN JUMPDEST CALLVALUE DUP1 ISZERO PUSH2 0x3F7 JUMPI PUSH1 0x0 DUP1 REVERT JUMPDEST POP PUSH2 0x400 PUSH2 0x78B JUMP JUMPDEST PUSH1 0x40 MLOAD DUP1 DUP3 DUP2 MSTORE PUSH1 0x20 ADD SWAP2 POP POP PUSH1 0x40 MLOAD DUP1 SWAP2 SUB SWAP1 RETURN JUMPDEST CALLVALUE DUP1 ISZERO PUSH2 0x422 JUMPI PUSH1 0x0 DUP1 REVERT JUMPDEST POP PUSH2 0x42B PUSH2 0x791 JUMP JUMPDEST PUSH1 0x40 MLOAD DUP1 DUP3 PUSH20 0xFFFFFFFFFFFFFFFFFFFFFFFFFFFFFFFFFFFFFFFF AND PUSH20 0xFFFFFFFFFFFFFFFFFFFFFFFFFFFFFFFFFFFFFFFF AND DUP2 MSTORE PUSH1 0x20 ADD SWAP2 POP POP PUSH1 0x40 MLOAD DUP1 SWAP2 SUB SWAP1 RETURN JUMPDEST CALLVALUE DUP1 ISZERO PUSH2 0x479 JUMPI PUSH1 0x0 DUP1 REVERT JUMPDEST POP PUSH2 0x4AE PUSH1 0x4 DUP1 CALLDATASIZE SUB DUP2 ADD SWAP1 DUP1 DUP1 CALLDATALOAD PUSH20 0xFFFFFFFFFFFFFFFFFFFFFFFFFFFFFFFFFFFFFFFF AND SWAP1 PUSH1 0x20 ADD SWAP1 SWAP3 SWAP2 SWAP1 POP POP POP PUSH2 0x7B6 JUMP JUMPDEST PUSH1 0x40 MLOAD DUP1 DUP3 DUP2 MSTORE PUSH1 0x20 ADD SWAP2 POP POP PUSH1 0x40 MLOAD DUP1 SWAP2 SUB SWAP1 RETURN JUMPDEST CALLVALUE DUP1 ISZERO PUSH2 0x4D0 JUMPI PUSH1 0x0 DUP1 REVERT JUMPDEST POP PUSH2 0x4D9 PUSH2 0x7FD JUMP JUMPDEST STOP JUMPDEST CALLVALUE DUP1 ISZERO PUSH2 0x4E7 JUMPI PUSH1 0x0 DUP1 REVERT JUMPDEST POP PUSH2 0x51C PUSH1 0x4 DUP1 CALLDATASIZE SUB DUP2 ADD SWAP1 DUP1 DUP1 CALLDATALOAD PUSH20 0xFFFFFFFFFFFFFFFFFFFFFFFFFFFFFFFFFFFFFFFF AND SWAP1 PUSH1 0x20 ADD SWAP1 SWAP3 SWAP2 SWAP1 POP POP POP PUSH2 0x845 JUMP JUMPDEST PUSH1 0x40 MLOAD DUP1 DUP3 PUSH1 0x0 NOT AND PUSH1 0x0 NOT AND DUP2 MSTORE PUSH1 0x20 ADD SWAP2 POP POP PUSH1 0x40 MLOAD DUP1 SWAP2 SUB SWAP1 RETURN JUMPDEST PUSH1 0x0 PUSH1 0x2 PUSH1 0x1 PUSH2 0x549 DUP5 PUSH2 0x581 JUMP JUMPDEST PUSH1 0x1 SWAP1 DIV PUSH32 0xFFFFFFFFFFFFFFFFFFFFFFFFFFFFFFFFFFFFFFFFFFFFFFFFFFFFFFFFFFFFFFFF SUB ADD DUP2 ISZERO ISZERO PUSH2 0x579 JUMPI INVALID JUMPDEST DIV SWAP1 POP SWAP2 SWAP1 POP JUMP JUMPDEST PUSH1 0x0 PUSH2 0x58C DUP3 PUSH2 0x845 JUMP JUMPDEST PUSH1 0x40 MLOAD DUP1 DUP3 PUSH1 0x0 NOT AND PUSH1 0x0 NOT AND DUP2 MSTORE PUSH1 0x20 ADD SWAP2 POP POP PUSH1 0x40 MLOAD DUP1 SWAP2 SUB SWAP1 KECCAK256 SWAP1 POP SWAP2 SWAP1 POP JUMP JUMPDEST PUSH1 0x1 PUSH1 0x0 SWAP1 SLOAD SWAP1 PUSH2 0x100 EXP SWAP1 DIV PUSH20 0xFFFFFFFFFFFFFFFFFFFFFFFFFFFFFFFFFFFFFFFF AND DUP2 JUMP JUMPDEST PUSH2 0x61D PUSH2 0x5E2 ADDRESS PUSH2 0x75B JUMP JUMPDEST PUSH1 0x40 DUP1 MLOAD SWAP1 DUP2 ADD PUSH1 0x40 MSTORE DUP1 PUSH1 0x5 DUP2 MSTORE PUSH1 0x20 ADD PUSH32 0x7362677A78000000000000000000000000000000000000000000000000000000 DUP2 MSTORE POP PUSH2 0x88E JUMP JUMPDEST JUMP JUMPDEST PUSH1 0x0 DUP1 SWAP1 SLOAD SWAP1 PUSH2 0x100 EXP SWAP1 DIV PUSH20 0xFFFFFFFFFFFFFFFFFFFFFFFFFFFFFFFFFFFFFFFF AND PUSH20 0xFFFFFFFFFFFFFFFFFFFFFFFFFFFFFFFFFFFFFFFF AND PUSH4 0xFA391C64 PUSH1 0x40 MLOAD DUP2 PUSH4 0xFFFFFFFF AND PUSH29 0x100000000000000000000000000000000000000000000000000000000 MUL DUP2 MSTORE PUSH1 0x4 ADD PUSH1 0x0 PUSH1 0x40 MLOAD DUP1 DUP4 SUB DUP2 PUSH1 0x0 DUP8 DUP1 EXTCODESIZE ISZERO DUP1 ISZERO PUSH2 0x6A4 JUMPI PUSH1 0x0 DUP1 REVERT JUMPDEST POP GAS CALL ISZERO DUP1 ISZERO PUSH2 0x6B8 JUMPI RETURNDATASIZE PUSH1 0x0 DUP1 RETURNDATACOPY RETURNDATASIZE PUSH1 0x0 REVERT JUMPDEST POP POP POP POP JUMP JUMPDEST PUSH2 0x6E0 PUSH2 0x6CA ADDRESS PUSH2 0x53A JUMP JUMPDEST PUSH1 0x20 PUSH1 0x40 MLOAD SWAP1 DUP2 ADD PUSH1 0x40 MSTORE DUP1 PUSH1 0x0 DUP2 MSTORE POP PUSH2 0x88E JUMP JUMPDEST JUMP JUMPDEST PUSH1 0x0 DUP2 PUSH20 0xFFFFFFFFFFFFFFFFFFFFFFFFFFFFFFFFFFFFFFFF AND PUSH1 0x1 MUL PUSH1 0x1 PUSH1 0x40 MLOAD DUP1 DUP4 PUSH1 0x0 NOT AND PUSH1 0x0 NOT AND DUP2 MSTORE PUSH1 0x20 ADD DUP3 DUP2 MSTORE PUSH1 0x20 ADD SWAP3 POP POP POP PUSH1 0x40 MLOAD DUP1 SWAP2 SUB SWAP1 KECCAK256 SWAP1 POP SWAP2 SWAP1 POP JUMP JUMPDEST PUSH1 0x0 PUSH1 0x2 PUSH2 0x738 DUP4 PUSH2 0x581 JUMP JUMPDEST PUSH1 0x1 SWAP1 DIV PUSH2 0x745 DUP5 PUSH2 0x6E2 JUMP JUMPDEST PUSH1 0x1 SWAP1 DIV SUB DUP2 ISZERO ISZERO PUSH2 0x753 JUMPI INVALID JUMPDEST MOD SWAP1 POP SWAP2 SWAP1 POP JUMP JUMPDEST PUSH1 0x0 PUSH1 0x2 PUSH2 0x768 DUP4 PUSH2 0x581 JUMP JUMPDEST PUSH1 0x1 SWAP1 DIV PUSH2 0x775 DUP5 PUSH2 0x6E2 JUMP JUMPDEST PUSH1 0x1 SWAP1 DIV SUB DUP2 ISZERO ISZERO PUSH2 0x783 JUMPI INVALID JUMPDEST DIV SWAP1 POP SWAP2 SWAP1 POP JUMP JUMPDEST PUSH1 0x2 SLOAD DUP2 JUMP JUMPDEST PUSH1 0x0 DUP1 SWAP1 SLOAD SWAP1 PUSH2 0x100 EXP SWAP1 DIV PUSH20 0xFFFFFFFFFFFFFFFFFFFFFFFFFFFFFFFFFFFFFFFF AND DUP2 JUMP JUMPDEST PUSH1 0x0 PUSH1 0x2 PUSH1 0x1 PUSH2 0x7C5 DUP5 PUSH2 0x581 JUMP JUMPDEST PUSH1 0x1 SWAP1 DIV PUSH32 0xFFFFFFFFFFFFFFFFFFFFFFFFFFFFFFFFFFFFFFFFFFFFFFFFFFFFFFFFFFFFFFFF SUB ADD DUP2 ISZERO ISZERO PUSH2 0x7F5 JUMPI INVALID JUMPDEST MOD SWAP1 POP SWAP2 SWAP1 POP JUMP JUMPDEST PUSH2 0x83B PUSH1 0x40 DUP1 MLOAD SWAP1 DUP2 ADD PUSH1 0x40 MSTORE DUP1 PUSH1 0x1 DUP2 MSTORE PUSH1 0x20 ADD PUSH32 0x6100000000000000000000000000000000000000000000000000000000000000 DUP2 MSTORE POP PUSH2 0x9A8 JUMP JUMPDEST PUSH2 0x843 PUSH2 0xABA JUMP JUMPDEST JUMP JUMPDEST PUSH1 0x0 DUP2 PUSH20 0xFFFFFFFFFFFFFFFFFFFFFFFFFFFFFFFFFFFFFFFF AND PUSH1 0x1 MUL PUSH1 0x2 PUSH1 0x40 MLOAD DUP1 DUP4 PUSH1 0x0 NOT AND PUSH1 0x0 NOT AND DUP2 MSTORE PUSH1 0x20 ADD DUP3 DUP2 MSTORE PUSH1 0x20 ADD SWAP3 POP POP POP PUSH1 0x40 MLOAD DUP1 SWAP2 SUB SWAP1 KECCAK256 SWAP1 POP SWAP2 SWAP1 POP JUMP JUMPDEST PUSH1 0x1 PUSH1 0x0 SWAP1 SLOAD SWAP1 PUSH2 0x100 EXP SWAP1 DIV PUSH20 0xFFFFFFFFFFFFFFFFFFFFFFFFFFFFFFFFFFFFFFFF AND PUSH20 0xFFFFFFFFFFFFFFFFFFFFFFFFFFFFFFFFFFFFFFFF AND PUSH4 0xFE55932A DUP4 DUP4 PUSH1 0x40 MLOAD DUP4 PUSH4 0xFFFFFFFF AND PUSH29 0x100000000000000000000000000000000000000000000000000000000 MUL DUP2 MSTORE PUSH1 0x4 ADD DUP1 DUP4 DUP2 MSTORE PUSH1 0x20 ADD DUP1 PUSH1 0x20 ADD DUP3 DUP2 SUB DUP3 MSTORE DUP4 DUP2 DUP2 MLOAD DUP2 MSTORE PUSH1 0x20 ADD SWAP2 POP DUP1 MLOAD SWAP1 PUSH1 0x20 ADD SWAP1 DUP1 DUP4 DUP4 PUSH1 0x0 JUMPDEST DUP4 DUP2 LT ISZERO PUSH2 0x93F JUMPI DUP1 DUP3 ADD MLOAD DUP2 DUP5 ADD MSTORE PUSH1 0x20 DUP2 ADD SWAP1 POP PUSH2 0x924 JUMP JUMPDEST POP POP POP POP SWAP1 POP SWAP1 DUP2 ADD SWAP1 PUSH1 0x1F AND DUP1 ISZERO PUSH2 0x96C JUMPI DUP1 DUP3 SUB DUP1 MLOAD PUSH1 0x1 DUP4 PUSH1 0x20 SUB PUSH2 0x100 EXP SUB NOT AND DUP2 MSTORE PUSH1 0x20 ADD SWAP2 POP JUMPDEST POP SWAP4 POP POP POP POP PUSH1 0x0 PUSH1 0x40 MLOAD DUP1 DUP4 SUB DUP2 PUSH1 0x0 DUP8 DUP1 EXTCODESIZE ISZERO DUP1 ISZERO PUSH2 0x98C JUMPI PUSH1 0x0 DUP1 REVERT JUMPDEST POP GAS CALL ISZERO DUP1 ISZERO PUSH2 0x9A0 JUMPI RETURNDATASIZE PUSH1 0x0 DUP1 RETURNDATACOPY RETURNDATASIZE PUSH1 0x0 REVERT JUMPDEST POP POP POP POP POP POP JUMP JUMPDEST PUSH1 0x1 PUSH1 0x0 SWAP1 SLOAD SWAP1 PUSH2 0x100 EXP SWAP1 DIV PUSH20 0xFFFFFFFFFFFFFFFFFFFFFFFFFFFFFFFFFFFFFFFF AND PUSH20 0xFFFFFFFFFFFFFFFFFFFFFFFFFFFFFFFFFFFFFFFF AND PUSH4 0x18B8275A CALLVALUE DUP4 PUSH1 0x40 MLOAD DUP4 PUSH4 0xFFFFFFFF AND PUSH29 0x100000000000000000000000000000000000000000000000000000000 MUL DUP2 MSTORE PUSH1 0x4 ADD DUP1 DUP1 PUSH1 0x20 ADD DUP3 DUP2 SUB DUP3 MSTORE DUP4 DUP2 DUP2 MLOAD DUP2 MSTORE PUSH1 0x20 ADD SWAP2 POP DUP1 MLOAD SWAP1 PUSH1 0x20 ADD SWAP1 DUP1 DUP4 DUP4 PUSH1 0x0 JUMPDEST DUP4 DUP2 LT ISZERO PUSH2 0xA53 JUMPI DUP1 DUP3 ADD MLOAD DUP2 DUP5 ADD MSTORE PUSH1 0x20 DUP2 ADD SWAP1 POP PUSH2 0xA38 JUMP JUMPDEST POP POP POP POP SWAP1 POP SWAP1 DUP2 ADD SWAP1 PUSH1 0x1F AND DUP1 ISZERO PUSH2 0xA80 JUMPI DUP1 DUP3 SUB DUP1 MLOAD PUSH1 0x1 DUP4 PUSH1 0x20 SUB PUSH2 0x100 EXP SUB NOT AND DUP2 MSTORE PUSH1 0x20 ADD SWAP2 POP JUMPDEST POP SWAP3 POP POP POP PUSH1 0x0 PUSH1 0x40 MLOAD DUP1 DUP4 SUB DUP2 DUP6 DUP9 DUP1 EXTCODESIZE ISZERO DUP1 ISZERO PUSH2 0xA9E JUMPI PUSH1 0x0 DUP1 REVERT JUMPDEST POP GAS CALL ISZERO DUP1 ISZERO PUSH2 0xAB2 JUMPI RETURNDATASIZE PUSH1 0x0 DUP1 RETURNDATACOPY RETURNDATASIZE PUSH1 0x0 REVERT JUMPDEST POP POP POP POP POP POP JUMP JUMPDEST PUSH1 0x1 PUSH1 0x0 SWAP1 SLOAD SWAP1 PUSH2 0x100 EXP SWAP1 DIV PUSH20 0xFFFFFFFFFFFFFFFFFFFFFFFFFFFFFFFFFFFFFFFF AND PUSH20 0xFFFFFFFFFFFFFFFFFFFFFFFFFFFFFFFFFFFFFFFF AND PUSH4 0x26FF05E PUSH1 0x40 MLOAD DUP2 PUSH4 0xFFFFFFFF AND PUSH29 0x100000000000000000000000000000000000000000000000000000000 MUL DUP2 MSTORE PUSH1 0x4 ADD PUSH1 0x0 PUSH1 0x40 MLOAD DUP1 DUP4 SUB DUP2 PUSH1 0x0 DUP8 DUP1 EXTCODESIZE ISZERO DUP1 ISZERO PUSH2 0xB40 JUMPI PUSH1 0x0 DUP1 REVERT JUMPDEST POP GAS CALL ISZERO DUP1 ISZERO PUSH2 0xB54 JUMPI RETURNDATASIZE PUSH1 0x0 DUP1 RETURNDATACOPY RETURNDATASIZE PUSH1 0x0 REVERT JUMPDEST POP POP POP POP JUMP STOP LOG1 PUSH6 0x627A7A723058 KECCAK256 SWAP9 0xc2 0x28 DUP7 0xd9 0x4d MULMOD DUP14 0xdb 0xdd 0xdf 0xfc 0xb5 LOG0 0xd3 0xd9 0xd6 SLOAD SWAP16 PUSH8 0x78978E9AEDDDB950 GASPRICE DUP10 0xb3 CREATE2 STOP 0x29 LOG1 PUSH6 0x627A7A723058 KECCAK256 0xc4 PUSH17 0x4071B05426EAD2082D6888F652F71E38A5 PUSH24 0xE5C0C34218E6CF754F1F8F9A002900000000000000000000 "
				},
				"gasEstimates": {
					"creation": {
						"codeDepositCost": "1009200",
						"executionCost": "1047",
						"totalCost": "1010247"
					},
					"external": {
						"arrayEle(address)": "601",
						"arrayStart(address)": "609",
						"dep(address)": "infinite",
						"fig1(address)": "812",
						"fig2(address)": "658",
						"fig3(address)": "499",
						"fig4(address)": "937",
						"fig5(address)": "959",
						"user()": "486"
					}
				},
				"methodIdentifiers": {
					"arrayEle(address)": "3347825f",
					"arrayStart(address)": "f60d9e61",
					"dep(address)": "b733e791",
					"fig1(address)": "c75a1a9f",
					"fig2(address)": "0110ade1",
					"fig3(address)": "7127998d",
					"fig4(address)": "7797d6df",
					"fig5(address)": "8dc7892c",
					"user()": "4f8632ba"
				}
			},
			"userdoc": {
				"methods": {}
			}
		}
	}
}