{
	"shoot/3/数组长度溢出/1.sol": {
		"check": {
			"abi": [
				{
					"constant": true,
					"inputs": [],
					"name": "info",
					"outputs": [
						{
							"name": "",
							"type": "address"
						}
					],
					"payable": false,
					"stateMutability": "view",
					"type": "function"
				},
				{
					"constant": true,
					"inputs": [],
					"name": "score",
					"outputs": [
						{
							"name": "",
							"type": "uint256"
						}
					],
					"payable": false,
					"stateMutability": "view",
					"type": "function"
				},
				{
					"constant": false,
					"inputs": [],
					"name": "isCompleted",
					"outputs": [],
					"payable": false,
					"stateMutability": "nonpayable",
					"type": "function"
				}
			],
			"devdoc": {
				"methods": {}
			},
			"evm": {
				"assembly": "    /* \"shoot/3/数组长度溢出/1.sol\":7700:8034  contract check{\r... */\n  mstore(0x40, 0x80)\n    /* \"shoot/3/数组长度溢出/1.sol\":7771:7785  new userinfo() */\n  tag_1\n  jump\t// in(tag_2)\ntag_1:\n  mload(0x40)\n  dup1\n  swap2\n  sub\n  swap1\n  0x0\n  create\n  dup1\n  iszero\n    /* \"--CODEGEN--\":8:17   */\n  dup1\n    /* \"--CODEGEN--\":5:7   */\n  iszero\n  tag_3\n  jumpi\n    /* \"--CODEGEN--\":45:61   */\n  returndatasize\n    /* \"--CODEGEN--\":42:43   */\n  0x0\n    /* \"--CODEGEN--\":39:40   */\n  dup1\n    /* \"--CODEGEN--\":24:62   */\n  returndatacopy\n    /* \"--CODEGEN--\":77:93   */\n  returndatasize\n    /* \"--CODEGEN--\":74:75   */\n  0x0\n    /* \"--CODEGEN--\":67:94   */\n  revert\n    /* \"--CODEGEN--\":5:7   */\ntag_3:\n    /* \"shoot/3/数组长度溢出/1.sol\":7771:7785  new userinfo() */\n  pop\n    /* \"shoot/3/数组长度溢出/1.sol\":7748:7785  userinfo public info = new userinfo() */\n  0x1\n  exp(0x100, 0x0)\n  dup2\n  sload\n  dup2\n  0xffffffffffffffffffffffffffffffffffffffff\n  mul\n  not\n  and\n  swap1\n  dup4\n  0xffffffffffffffffffffffffffffffffffffffff\n  and\n  mul\n  or\n  swap1\n  sstore\n  pop\n    /* \"shoot/3/数组长度溢出/1.sol\":7700:8034  contract check{\r... */\n  callvalue\n    /* \"--CODEGEN--\":8:17   */\n  dup1\n    /* \"--CODEGEN--\":5:7   */\n  iszero\n  tag_4\n  jumpi\n    /* \"--CODEGEN--\":30:31   */\n  0x0\n    /* \"--CODEGEN--\":27:28   */\n  dup1\n    /* \"--CODEGEN--\":20:32   */\n  revert\n    /* \"--CODEGEN--\":5:7   */\ntag_4:\n    /* \"shoot/3/数组长度溢出/1.sol\":7700:8034  contract check{\r... */\n  pop\n  jump(tag_5)\ntag_2:\n  mload(0x40)\n  dataSize(sub_1)\n  dup1\n  dataOffset(sub_1)\n  dup4\n  codecopy\n  add\n  swap1\n  jump\t// out\ntag_5:\n  dataSize(sub_0)\n  dup1\n  dataOffset(sub_0)\n  0x0\n  codecopy\n  0x0\n  return\nstop\n\nsub_0: assembly {\n        /* \"shoot/3/数组长度溢出/1.sol\":7700:8034  contract check{\r... */\n      mstore(0x40, 0x80)\n      jumpi(tag_1, lt(calldatasize, 0x4))\n      calldataload(0x0)\n      0x100000000000000000000000000000000000000000000000000000000\n      swap1\n      div\n      0xffffffff\n      and\n      dup1\n      0x370158ea\n      eq\n      tag_2\n      jumpi\n      dup1\n      0xefedc669\n      eq\n      tag_3\n      jumpi\n      dup1\n      0xfa391c64\n      eq\n      tag_4\n      jumpi\n    tag_1:\n      0x0\n      dup1\n      revert\n        /* \"shoot/3/数组长度溢出/1.sol\":7748:7785  userinfo public info = new userinfo() */\n    tag_2:\n      callvalue\n        /* \"--CODEGEN--\":8:17   */\n      dup1\n        /* \"--CODEGEN--\":5:7   */\n      iszero\n      tag_5\n      jumpi\n        /* \"--CODEGEN--\":30:31   */\n      0x0\n        /* \"--CODEGEN--\":27:28   */\n      dup1\n        /* \"--CODEGEN--\":20:32   */\n      revert\n        /* \"--CODEGEN--\":5:7   */\n    tag_5:\n        /* \"shoot/3/数组长度溢出/1.sol\":7748:7785  userinfo public info = new userinfo() */\n      pop\n      tag_6\n      jump(tag_7)\n    tag_6:\n      mload(0x40)\n      dup1\n      dup3\n      0xffffffffffffffffffffffffffffffffffffffff\n      and\n      0xffffffffffffffffffffffffffffffffffffffff\n      and\n      dup2\n      mstore\n      0x20\n      add\n      swap2\n      pop\n      pop\n      mload(0x40)\n      dup1\n      swap2\n      sub\n      swap1\n      return\n        /* \"shoot/3/数组长度溢出/1.sol\":7721:7741  uint256 public score */\n    tag_3:\n      callvalue\n        /* \"--CODEGEN--\":8:17   */\n      dup1\n        /* \"--CODEGEN--\":5:7   */\n      iszero\n      tag_8\n      jumpi\n        /* \"--CODEGEN--\":30:31   */\n      0x0\n        /* \"--CODEGEN--\":27:28   */\n      dup1\n        /* \"--CODEGEN--\":20:32   */\n      revert\n        /* \"--CODEGEN--\":5:7   */\n    tag_8:\n        /* \"shoot/3/数组长度溢出/1.sol\":7721:7741  uint256 public score */\n      pop\n      tag_9\n      jump(tag_10)\n    tag_9:\n      mload(0x40)\n      dup1\n      dup3\n      dup2\n      mstore\n      0x20\n      add\n      swap2\n      pop\n      pop\n      mload(0x40)\n      dup1\n      swap2\n      sub\n      swap1\n      return\n        /* \"shoot/3/数组长度溢出/1.sol\":7794:8025  function isCompleted()public{\r... */\n    tag_4:\n      callvalue\n        /* \"--CODEGEN--\":8:17   */\n      dup1\n        /* \"--CODEGEN--\":5:7   */\n      iszero\n      tag_11\n      jumpi\n        /* \"--CODEGEN--\":30:31   */\n      0x0\n        /* \"--CODEGEN--\":27:28   */\n      dup1\n        /* \"--CODEGEN--\":20:32   */\n      revert\n        /* \"--CODEGEN--\":5:7   */\n    tag_11:\n        /* \"shoot/3/数组长度溢出/1.sol\":7794:8025  function isCompleted()public{\r... */\n      pop\n      tag_12\n      jump(tag_13)\n    tag_12:\n      stop\n        /* \"shoot/3/数组长度溢出/1.sol\":7748:7785  userinfo public info = new userinfo() */\n    tag_7:\n      0x1\n      0x0\n      swap1\n      sload\n      swap1\n      0x100\n      exp\n      swap1\n      div\n      0xffffffffffffffffffffffffffffffffffffffff\n      and\n      dup2\n      jump\t// out\n        /* \"shoot/3/数组长度溢出/1.sol\":7721:7741  uint256 public score */\n    tag_10:\n      sload(0x0)\n      dup2\n      jump\t// out\n        /* \"shoot/3/数组长度溢出/1.sol\":7794:8025  function isCompleted()public{\r... */\n    tag_13:\n        /* \"shoot/3/数组长度溢出/1.sol\":7840:7841  0 */\n      0x0\n        /* \"shoot/3/数组长度溢出/1.sol\":7833:7838  score */\n      dup1\n        /* \"shoot/3/数组长度溢出/1.sol\":7833:7841  score =0 */\n      dup2\n      swap1\n      sstore\n      pop\n        /* \"shoot/3/数组长度溢出/1.sol\":7887:7888  0 */\n      0x0\n        /* \"shoot/3/数组长度溢出/1.sol\":7856:7889  info.administration()==address(0) */\n      0xffffffffffffffffffffffffffffffffffffffff\n      and\n        /* \"shoot/3/数组长度溢出/1.sol\":7856:7860  info */\n      0x1\n      0x0\n      swap1\n      sload\n      swap1\n      0x100\n      exp\n      swap1\n      div\n      0xffffffffffffffffffffffffffffffffffffffff\n      and\n        /* \"shoot/3/数组长度溢出/1.sol\":7856:7875  info.administration */\n      0xffffffffffffffffffffffffffffffffffffffff\n      and\n      0x3847cb59\n        /* \"shoot/3/数组长度溢出/1.sol\":7856:7877  info.administration() */\n      mload(0x40)\n      dup2\n      0xffffffff\n      and\n      0x100000000000000000000000000000000000000000000000000000000\n      mul\n      dup2\n      mstore\n      0x4\n      add\n      0x20\n      mload(0x40)\n      dup1\n      dup4\n      sub\n      dup2\n      0x0\n      dup8\n      dup1\n      extcodesize\n      iszero\n        /* \"--CODEGEN--\":8:17   */\n      dup1\n        /* \"--CODEGEN--\":5:7   */\n      iszero\n      tag_15\n      jumpi\n        /* \"--CODEGEN--\":30:31   */\n      0x0\n        /* \"--CODEGEN--\":27:28   */\n      dup1\n        /* \"--CODEGEN--\":20:32   */\n      revert\n        /* \"--CODEGEN--\":5:7   */\n    tag_15:\n        /* \"shoot/3/数组长度溢出/1.sol\":7856:7877  info.administration() */\n      pop\n      gas\n      call\n      iszero\n        /* \"--CODEGEN--\":8:17   */\n      dup1\n        /* \"--CODEGEN--\":5:7   */\n      iszero\n      tag_16\n      jumpi\n        /* \"--CODEGEN--\":45:61   */\n      returndatasize\n        /* \"--CODEGEN--\":42:43   */\n      0x0\n        /* \"--CODEGEN--\":39:40   */\n      dup1\n        /* \"--CODEGEN--\":24:62   */\n      returndatacopy\n        /* \"--CODEGEN--\":77:93   */\n      returndatasize\n        /* \"--CODEGEN--\":74:75   */\n      0x0\n        /* \"--CODEGEN--\":67:94   */\n      revert\n        /* \"--CODEGEN--\":5:7   */\n    tag_16:\n        /* \"shoot/3/数组长度溢出/1.sol\":7856:7877  info.administration() */\n      pop\n      pop\n      pop\n      pop\n      mload(0x40)\n      returndatasize\n        /* \"--CODEGEN--\":13:15   */\n      0x20\n        /* \"--CODEGEN--\":8:11   */\n      dup2\n        /* \"--CODEGEN--\":5:16   */\n      lt\n        /* \"--CODEGEN--\":2:4   */\n      iszero\n      tag_17\n      jumpi\n        /* \"--CODEGEN--\":29:30   */\n      0x0\n        /* \"--CODEGEN--\":26:27   */\n      dup1\n        /* \"--CODEGEN--\":19:31   */\n      revert\n        /* \"--CODEGEN--\":2:4   */\n    tag_17:\n        /* \"shoot/3/数组长度溢出/1.sol\":7856:7877  info.administration() */\n      dup2\n      add\n      swap1\n      dup1\n      dup1\n      mload\n      swap1\n      0x20\n      add\n      swap1\n      swap3\n      swap2\n      swap1\n      pop\n      pop\n      pop\n        /* \"shoot/3/数组长度溢出/1.sol\":7856:7889  info.administration()==address(0) */\n      0xffffffffffffffffffffffffffffffffffffffff\n      and\n      eq\n        /* \"shoot/3/数组长度溢出/1.sol\":7852:7926  if (info.administration()==address(0)){\r... */\n      iszero\n      tag_18\n      jumpi\n        /* \"shoot/3/数组长度溢出/1.sol\":7912:7914  25 */\n      0x19\n        /* \"shoot/3/数组长度溢出/1.sol\":7905:7910  score */\n      0x0\n      dup1\n        /* \"shoot/3/数组长度溢出/1.sol\":7905:7914  score+=25 */\n      dup3\n      dup3\n      sload\n      add\n      swap3\n      pop\n      pop\n      dup2\n      swap1\n      sstore\n      pop\n        /* \"shoot/3/数组长度溢出/1.sol\":7852:7926  if (info.administration()==address(0)){\r... */\n    tag_18:\n        /* \"shoot/3/数组长度溢出/1.sol\":7968:7981  1000000 ether */\n      0xd3c21bcecceda1000000\n        /* \"shoot/3/数组长度溢出/1.sol\":7941:7945  info */\n      0x1\n      0x0\n      swap1\n      sload\n      swap1\n      0x100\n      exp\n      swap1\n      div\n      0xffffffffffffffffffffffffffffffffffffffff\n      and\n        /* \"shoot/3/数组长度溢出/1.sol\":7941:7954  info.balances */\n      0xffffffffffffffffffffffffffffffffffffffff\n      and\n      0x27e235e3\n        /* \"shoot/3/数组长度溢出/1.sol\":7955:7965  msg.sender */\n      caller\n        /* \"shoot/3/数组长度溢出/1.sol\":7941:7966  info.balances(msg.sender) */\n      mload(0x40)\n      dup3\n      0xffffffff\n      and\n      0x100000000000000000000000000000000000000000000000000000000\n      mul\n      dup2\n      mstore\n      0x4\n      add\n      dup1\n      dup3\n      0xffffffffffffffffffffffffffffffffffffffff\n      and\n      0xffffffffffffffffffffffffffffffffffffffff\n      and\n      dup2\n      mstore\n      0x20\n      add\n      swap2\n      pop\n      pop\n      0x20\n      mload(0x40)\n      dup1\n      dup4\n      sub\n      dup2\n      0x0\n      dup8\n      dup1\n      extcodesize\n      iszero\n        /* \"--CODEGEN--\":8:17   */\n      dup1\n        /* \"--CODEGEN--\":5:7   */\n      iszero\n      tag_19\n      jumpi\n        /* \"--CODEGEN--\":30:31   */\n      0x0\n        /* \"--CODEGEN--\":27:28   */\n      dup1\n        /* \"--CODEGEN--\":20:32   */\n      revert\n        /* \"--CODEGEN--\":5:7   */\n    tag_19:\n        /* \"shoot/3/数组长度溢出/1.sol\":7941:7966  info.balances(msg.sender) */\n      pop\n      gas\n      call\n      iszero\n        /* \"--CODEGEN--\":8:17   */\n      dup1\n        /* \"--CODEGEN--\":5:7   */\n      iszero\n      tag_20\n      jumpi\n        /* \"--CODEGEN--\":45:61   */\n      returndatasize\n        /* \"--CODEGEN--\":42:43   */\n      0x0\n        /* \"--CODEGEN--\":39:40   */\n      dup1\n        /* \"--CODEGEN--\":24:62   */\n      returndatacopy\n        /* \"--CODEGEN--\":77:93   */\n      returndatasize\n        /* \"--CODEGEN--\":74:75   */\n      0x0\n        /* \"--CODEGEN--\":67:94   */\n      revert\n        /* \"--CODEGEN--\":5:7   */\n    tag_20:\n        /* \"shoot/3/数组长度溢出/1.sol\":7941:7966  info.balances(msg.sender) */\n      pop\n      pop\n      pop\n      pop\n      mload(0x40)\n      returndatasize\n        /* \"--CODEGEN--\":13:15   */\n      0x20\n        /* \"--CODEGEN--\":8:11   */\n      dup2\n        /* \"--CODEGEN--\":5:16   */\n      lt\n        /* \"--CODEGEN--\":2:4   */\n      iszero\n      tag_21\n      jumpi\n        /* \"--CODEGEN--\":29:30   */\n      0x0\n        /* \"--CODEGEN--\":26:27   */\n      dup1\n        /* \"--CODEGEN--\":19:31   */\n      revert\n        /* \"--CODEGEN--\":2:4   */\n    tag_21:\n        /* \"shoot/3/数组长度溢出/1.sol\":7941:7966  info.balances(msg.sender) */\n      dup2\n      add\n      swap1\n      dup1\n      dup1\n      mload\n      swap1\n      0x20\n      add\n      swap1\n      swap3\n      swap2\n      swap1\n      pop\n      pop\n      pop\n        /* \"shoot/3/数组长度溢出/1.sol\":7941:7981  info.balances(msg.sender)>=1000000 ether */\n      lt\n      iszero\n        /* \"shoot/3/数组长度溢出/1.sol\":7938:8018  if(info.balances(msg.sender)>=1000000 ether){\r... */\n      iszero\n      tag_22\n      jumpi\n        /* \"shoot/3/数组长度溢出/1.sol\":8004:8006  75 */\n      0x4b\n        /* \"shoot/3/数组长度溢出/1.sol\":7997:8002  score */\n      0x0\n      dup1\n        /* \"shoot/3/数组长度溢出/1.sol\":7997:8006  score+=75 */\n      dup3\n      dup3\n      sload\n      add\n      swap3\n      pop\n      pop\n      dup2\n      swap1\n      sstore\n      pop\n        /* \"shoot/3/数组长度溢出/1.sol\":7938:8018  if(info.balances(msg.sender)>=1000000 ether){\r... */\n    tag_22:\n        /* \"shoot/3/数组长度溢出/1.sol\":7794:8025  function isCompleted()public{\r... */\n      jump\t// out\n\n    auxdata: 0xa165627a7a7230582067b93f922c6c8d48d66da0c6a8d84fb0648e8e9982b8ce34a4fe026b2b1c8abb0029\n}\n\nsub_1: assembly {\n        /* \"shoot/3/数组长度溢出/1.sol\":6574:7698  contract userinfo{\r... */\n      mstore(0x40, 0x80)\n        /* \"shoot/3/数组长度溢出/1.sol\":6810:6875  constructor()public{\r... */\n      callvalue\n        /* \"--CODEGEN--\":8:17   */\n      dup1\n        /* \"--CODEGEN--\":5:7   */\n      iszero\n      tag_1\n      jumpi\n        /* \"--CODEGEN--\":30:31   */\n      0x0\n        /* \"--CODEGEN--\":27:28   */\n      dup1\n        /* \"--CODEGEN--\":20:32   */\n      revert\n        /* \"--CODEGEN--\":5:7   */\n    tag_1:\n        /* \"shoot/3/数组长度溢出/1.sol\":6810:6875  constructor()public{\r... */\n      pop\n        /* \"shoot/3/数组长度溢出/1.sol\":6857:6867  msg.sender */\n      caller\n        /* \"shoot/3/数组长度溢出/1.sol\":6840:6854  administration */\n      0x0\n      dup1\n        /* \"shoot/3/数组长度溢出/1.sol\":6840:6867  administration = msg.sender */\n      0x100\n      exp\n      dup2\n      sload\n      dup2\n      0xffffffffffffffffffffffffffffffffffffffff\n      mul\n      not\n      and\n      swap1\n      dup4\n      0xffffffffffffffffffffffffffffffffffffffff\n      and\n      mul\n      or\n      swap1\n      sstore\n      pop\n        /* \"shoot/3/数组长度溢出/1.sol\":6574:7698  contract userinfo{\r... */\n      dataSize(sub_0)\n      dup1\n      dataOffset(sub_0)\n      0x0\n      codecopy\n      0x0\n      return\n    stop\n\n    sub_0: assembly {\n            /* \"shoot/3/数组长度溢出/1.sol\":6574:7698  contract userinfo{\r... */\n          mstore(0x40, 0x80)\n          jumpi(tag_1, lt(calldatasize, 0x4))\n          calldataload(0x0)\n          0x100000000000000000000000000000000000000000000000000000000\n          swap1\n          div\n          0xffffffff\n          and\n          dup1\n          0x26ff05e\n          eq\n          tag_2\n          jumpi\n          dup1\n          0x18b8275a\n          eq\n          tag_3\n          jumpi\n          dup1\n          0x27e235e3\n          eq\n          tag_4\n          jumpi\n          dup1\n          0x3847cb59\n          eq\n          tag_5\n          jumpi\n          dup1\n          0x54a02f9e\n          eq\n          tag_6\n          jumpi\n          dup1\n          0xfe55932a\n          eq\n          tag_7\n          jumpi\n        tag_1:\n          0x0\n          dup1\n          revert\n            /* \"shoot/3/数组长度溢出/1.sol\":7127:7533  function deleteUser()public{\r... */\n        tag_2:\n          callvalue\n            /* \"--CODEGEN--\":8:17   */\n          dup1\n            /* \"--CODEGEN--\":5:7   */\n          iszero\n          tag_8\n          jumpi\n            /* \"--CODEGEN--\":30:31   */\n          0x0\n            /* \"--CODEGEN--\":27:28   */\n          dup1\n            /* \"--CODEGEN--\":20:32   */\n          revert\n            /* \"--CODEGEN--\":5:7   */\n        tag_8:\n            /* \"shoot/3/数组长度溢出/1.sol\":7127:7533  function deleteUser()public{\r... */\n          pop\n          tag_9\n          jump(tag_10)\n        tag_9:\n          stop\n            /* \"shoot/3/数组长度溢出/1.sol\":6887:7119  function addUser(string memory _name)public payable{\r... */\n        tag_3:\n          tag_11\n          0x4\n          dup1\n          calldatasize\n          sub\n          dup2\n          add\n          swap1\n          dup1\n          dup1\n          calldataload\n          swap1\n          0x20\n          add\n          swap1\n          dup3\n          add\n          dup1\n          calldataload\n          swap1\n          0x20\n          add\n          swap1\n          dup1\n          dup1\n          0x1f\n          add\n          0x20\n          dup1\n          swap2\n          div\n          mul\n          0x20\n          add\n          mload(0x40)\n          swap1\n          dup2\n          add\n          0x40\n          mstore\n          dup1\n          swap4\n          swap3\n          swap2\n          swap1\n          dup2\n          dup2\n          mstore\n          0x20\n          add\n          dup4\n          dup4\n          dup1\n          dup3\n          dup5\n          calldatacopy\n          dup3\n          add\n          swap2\n          pop\n          pop\n          pop\n          pop\n          pop\n          pop\n          swap2\n          swap3\n          swap2\n          swap3\n          swap1\n          pop\n          pop\n          pop\n          jump(tag_12)\n        tag_11:\n          stop\n            /* \"shoot/3/数组长度溢出/1.sol\":6637:6679  mapping(address => uint256)public balances */\n        tag_4:\n          callvalue\n            /* \"--CODEGEN--\":8:17   */\n          dup1\n            /* \"--CODEGEN--\":5:7   */\n          iszero\n          tag_13\n          jumpi\n            /* \"--CODEGEN--\":30:31   */\n          0x0\n            /* \"--CODEGEN--\":27:28   */\n          dup1\n            /* \"--CODEGEN--\":20:32   */\n          revert\n            /* \"--CODEGEN--\":5:7   */\n        tag_13:\n            /* \"shoot/3/数组长度溢出/1.sol\":6637:6679  mapping(address => uint256)public balances */\n          pop\n          tag_14\n          0x4\n          dup1\n          calldatasize\n          sub\n          dup2\n          add\n          swap1\n          dup1\n          dup1\n          calldataload\n          0xffffffffffffffffffffffffffffffffffffffff\n          and\n          swap1\n          0x20\n          add\n          swap1\n          swap3\n          swap2\n          swap1\n          pop\n          pop\n          pop\n          jump(tag_15)\n        tag_14:\n          mload(0x40)\n          dup1\n          dup3\n          dup2\n          mstore\n          0x20\n          add\n          swap2\n          pop\n          pop\n          mload(0x40)\n          dup1\n          swap2\n          sub\n          swap1\n          return\n            /* \"shoot/3/数组长度溢出/1.sol\":6598:6627  address public administration */\n        tag_5:\n          callvalue\n            /* \"--CODEGEN--\":8:17   */\n          dup1\n            /* \"--CODEGEN--\":5:7   */\n          iszero\n          tag_16\n          jumpi\n            /* \"--CODEGEN--\":30:31   */\n          0x0\n            /* \"--CODEGEN--\":27:28   */\n          dup1\n            /* \"--CODEGEN--\":20:32   */\n          revert\n            /* \"--CODEGEN--\":5:7   */\n        tag_16:\n            /* \"shoot/3/数组长度溢出/1.sol\":6598:6627  address public administration */\n          pop\n          tag_17\n          jump(tag_18)\n        tag_17:\n          mload(0x40)\n          dup1\n          dup3\n          0xffffffffffffffffffffffffffffffffffffffff\n          and\n          0xffffffffffffffffffffffffffffffffffffffff\n          and\n          dup2\n          mstore\n          0x20\n          add\n          swap2\n          pop\n          pop\n          mload(0x40)\n          dup1\n          swap2\n          sub\n          swap1\n          return\n            /* \"shoot/3/数组长度溢出/1.sol\":6762:6800  mapping(address => User[])public users */\n        tag_6:\n          callvalue\n            /* \"--CODEGEN--\":8:17   */\n          dup1\n            /* \"--CODEGEN--\":5:7   */\n          iszero\n          tag_19\n          jumpi\n            /* \"--CODEGEN--\":30:31   */\n          0x0\n            /* \"--CODEGEN--\":27:28   */\n          dup1\n            /* \"--CODEGEN--\":20:32   */\n          revert\n            /* \"--CODEGEN--\":5:7   */\n        tag_19:\n            /* \"shoot/3/数组长度溢出/1.sol\":6762:6800  mapping(address => User[])public users */\n          pop\n          tag_20\n          0x4\n          dup1\n          calldatasize\n          sub\n          dup2\n          add\n          swap1\n          dup1\n          dup1\n          calldataload\n          0xffffffffffffffffffffffffffffffffffffffff\n          and\n          swap1\n          0x20\n          add\n          swap1\n          swap3\n          swap2\n          swap1\n          dup1\n          calldataload\n          swap1\n          0x20\n          add\n          swap1\n          swap3\n          swap2\n          swap1\n          pop\n          pop\n          pop\n          jump(tag_21)\n        tag_20:\n          mload(0x40)\n          dup1\n          dup1\n          0x20\n          add\n          dup4\n          dup2\n          mstore\n          0x20\n          add\n          dup3\n          dup2\n          sub\n          dup3\n          mstore\n          dup5\n          dup2\n          dup2\n          mload\n          dup2\n          mstore\n          0x20\n          add\n          swap2\n          pop\n          dup1\n          mload\n          swap1\n          0x20\n          add\n          swap1\n          dup1\n          dup4\n          dup4\n            /* \"--CODEGEN--\":23:24   */\n          0x0\n            /* \"--CODEGEN--\":8:108   */\n        tag_22:\n            /* \"--CODEGEN--\":33:36   */\n          dup4\n            /* \"--CODEGEN--\":30:31   */\n          dup2\n            /* \"--CODEGEN--\":27:37   */\n          lt\n            /* \"--CODEGEN--\":8:108   */\n          iszero\n          tag_23\n          jumpi\n            /* \"--CODEGEN--\":99:100   */\n          dup1\n            /* \"--CODEGEN--\":94:97   */\n          dup3\n            /* \"--CODEGEN--\":90:101   */\n          add\n            /* \"--CODEGEN--\":84:102   */\n          mload\n            /* \"--CODEGEN--\":80:81   */\n          dup2\n            /* \"--CODEGEN--\":75:78   */\n          dup5\n            /* \"--CODEGEN--\":71:82   */\n          add\n            /* \"--CODEGEN--\":64:103   */\n          mstore\n            /* \"--CODEGEN--\":52:54   */\n          0x20\n            /* \"--CODEGEN--\":49:50   */\n          dup2\n            /* \"--CODEGEN--\":45:55   */\n          add\n            /* \"--CODEGEN--\":40:55   */\n          swap1\n          pop\n            /* \"--CODEGEN--\":8:108   */\n          jump(tag_22)\n        tag_23:\n            /* \"--CODEGEN--\":12:26   */\n          pop\n            /* \"shoot/3/数组长度溢出/1.sol\":6762:6800  mapping(address => User[])public users */\n          pop\n          pop\n          pop\n          swap1\n          pop\n          swap1\n          dup2\n          add\n          swap1\n          0x1f\n          and\n          dup1\n          iszero\n          tag_25\n          jumpi\n          dup1\n          dup3\n          sub\n          dup1\n          mload\n          0x1\n          dup4\n          0x20\n          sub\n          0x100\n          exp\n          sub\n          not\n          and\n          dup2\n          mstore\n          0x20\n          add\n          swap2\n          pop\n        tag_25:\n          pop\n          swap4\n          pop\n          pop\n          pop\n          pop\n          mload(0x40)\n          dup1\n          swap2\n          sub\n          swap1\n          return\n            /* \"shoot/3/数组长度溢出/1.sol\":7541:7693  function setName(uint256 index,string memory newName)public{\r... */\n        tag_7:\n          callvalue\n            /* \"--CODEGEN--\":8:17   */\n          dup1\n            /* \"--CODEGEN--\":5:7   */\n          iszero\n          tag_26\n          jumpi\n            /* \"--CODEGEN--\":30:31   */\n          0x0\n            /* \"--CODEGEN--\":27:28   */\n          dup1\n            /* \"--CODEGEN--\":20:32   */\n          revert\n            /* \"--CODEGEN--\":5:7   */\n        tag_26:\n            /* \"shoot/3/数组长度溢出/1.sol\":7541:7693  function setName(uint256 index,string memory newName)public{\r... */\n          pop\n          tag_27\n          0x4\n          dup1\n          calldatasize\n          sub\n          dup2\n          add\n          swap1\n          dup1\n          dup1\n          calldataload\n          swap1\n          0x20\n          add\n          swap1\n          swap3\n          swap2\n          swap1\n          dup1\n          calldataload\n          swap1\n          0x20\n          add\n          swap1\n          dup3\n          add\n          dup1\n          calldataload\n          swap1\n          0x20\n          add\n          swap1\n          dup1\n          dup1\n          0x1f\n          add\n          0x20\n          dup1\n          swap2\n          div\n          mul\n          0x20\n          add\n          mload(0x40)\n          swap1\n          dup2\n          add\n          0x40\n          mstore\n          dup1\n          swap4\n          swap3\n          swap2\n          swap1\n          dup2\n          dup2\n          mstore\n          0x20\n          add\n          dup4\n          dup4\n          dup1\n          dup3\n          dup5\n          calldatacopy\n          dup3\n          add\n          swap2\n          pop\n          pop\n          pop\n          pop\n          pop\n          pop\n          swap2\n          swap3\n          swap2\n          swap3\n          swap1\n          pop\n          pop\n          pop\n          jump(tag_28)\n        tag_27:\n          stop\n            /* \"shoot/3/数组长度溢出/1.sol\":7127:7533  function deleteUser()public{\r... */\n        tag_10:\n            /* \"shoot/3/数组长度溢出/1.sol\":7165:7176  uint256 len */\n          0x0\n            /* \"shoot/3/数组长度溢出/1.sol\":7214:7230  User memory user */\n          tag_29\n          jump\t// in(tag_30)\n        tag_29:\n            /* \"shoot/3/数组长度溢出/1.sol\":7385:7397  bool success */\n          0x0\n            /* \"shoot/3/数组长度溢出/1.sol\":7179:7184  users */\n          0x2\n            /* \"shoot/3/数组长度溢出/1.sol\":7179:7196  users[msg.sender] */\n          0x0\n            /* \"shoot/3/数组长度溢出/1.sol\":7185:7195  msg.sender */\n          caller\n            /* \"shoot/3/数组长度溢出/1.sol\":7179:7196  users[msg.sender] */\n          0xffffffffffffffffffffffffffffffffffffffff\n          and\n          0xffffffffffffffffffffffffffffffffffffffff\n          and\n          dup2\n          mstore\n          0x20\n          add\n          swap1\n          dup2\n          mstore\n          0x20\n          add\n          0x0\n          keccak256\n            /* \"shoot/3/数组长度溢出/1.sol\":7179:7203  users[msg.sender].length */\n          dup1\n          sload\n          swap1\n          pop\n            /* \"shoot/3/数组长度溢出/1.sol\":7165:7203  uint256 len = users[msg.sender].length */\n          swap3\n          pop\n            /* \"shoot/3/数组长度溢出/1.sol\":7233:7238  users */\n          0x2\n            /* \"shoot/3/数组长度溢出/1.sol\":7233:7250  users[msg.sender] */\n          0x0\n            /* \"shoot/3/数组长度溢出/1.sol\":7239:7249  msg.sender */\n          caller\n            /* \"shoot/3/数组长度溢出/1.sol\":7233:7250  users[msg.sender] */\n          0xffffffffffffffffffffffffffffffffffffffff\n          and\n          0xffffffffffffffffffffffffffffffffffffffff\n          and\n          dup2\n          mstore\n          0x20\n          add\n          swap1\n          dup2\n          mstore\n          0x20\n          add\n          0x0\n          keccak256\n            /* \"shoot/3/数组长度溢出/1.sol\":7255:7256  1 */\n          0x1\n            /* \"shoot/3/数组长度溢出/1.sol\":7251:7254  len */\n          dup5\n            /* \"shoot/3/数组长度溢出/1.sol\":7251:7256  len-1 */\n          sub\n            /* \"shoot/3/数组长度溢出/1.sol\":7233:7257  users[msg.sender][len-1] */\n          dup2\n          sload\n          dup2\n          lt\n          iszero\n          iszero\n          tag_32\n          jumpi\n          invalid\n        tag_32:\n          swap1\n          0x0\n          mstore\n          keccak256(0x0, 0x20)\n          swap1\n          0x2\n          mul\n          add\n            /* \"shoot/3/数组长度溢出/1.sol\":7214:7257  User memory user = users[msg.sender][len-1] */\n          0x40\n          dup1\n          mload\n          swap1\n          dup2\n          add\n          0x40\n          mstore\n          swap1\n          dup2\n          0x0\n          dup3\n          add\n          dup1\n          sload\n          0x1\n          dup2\n          0x1\n          and\n          iszero\n          0x100\n          mul\n          sub\n          and\n          0x2\n          swap1\n          div\n          dup1\n          0x1f\n          add\n          0x20\n          dup1\n          swap2\n          div\n          mul\n          0x20\n          add\n          mload(0x40)\n          swap1\n          dup2\n          add\n          0x40\n          mstore\n          dup1\n          swap3\n          swap2\n          swap1\n          dup2\n          dup2\n          mstore\n          0x20\n          add\n          dup3\n          dup1\n          sload\n          0x1\n          dup2\n          0x1\n          and\n          iszero\n          0x100\n          mul\n          sub\n          and\n          0x2\n          swap1\n          div\n          dup1\n          iszero\n          tag_34\n          jumpi\n          dup1\n          0x1f\n          lt\n          tag_35\n          jumpi\n          0x100\n          dup1\n          dup4\n          sload\n          div\n          mul\n          dup4\n          mstore\n          swap2\n          0x20\n          add\n          swap2\n          jump(tag_34)\n        tag_35:\n          dup3\n          add\n          swap2\n          swap1\n          0x0\n          mstore\n          keccak256(0x0, 0x20)\n          swap1\n        tag_36:\n          dup2\n          sload\n          dup2\n          mstore\n          swap1\n          0x1\n          add\n          swap1\n          0x20\n          add\n          dup1\n          dup4\n          gt\n          tag_36\n          jumpi\n          dup3\n          swap1\n          sub\n          0x1f\n          and\n          dup3\n          add\n          swap2\n        tag_34:\n          pop\n          pop\n          pop\n          pop\n          pop\n          dup2\n          mstore\n          0x20\n          add\n          0x1\n          dup3\n          add\n          sload\n          dup2\n          mstore\n          pop\n          pop\n          swap2\n          pop\n            /* \"shoot/3/数组长度溢出/1.sol\":7300:7304  user */\n          dup2\n            /* \"shoot/3/数组长度溢出/1.sol\":7300:7312  user.balance */\n          0x20\n          add\n          mload\n            /* \"shoot/3/数组长度溢出/1.sol\":7278:7286  balances */\n          0x1\n            /* \"shoot/3/数组长度溢出/1.sol\":7278:7298  balances[msg.sender] */\n          0x0\n            /* \"shoot/3/数组长度溢出/1.sol\":7287:7297  msg.sender */\n          caller\n            /* \"shoot/3/数组长度溢出/1.sol\":7278:7298  balances[msg.sender] */\n          0xffffffffffffffffffffffffffffffffffffffff\n          and\n          0xffffffffffffffffffffffffffffffffffffffff\n          and\n          dup2\n          mstore\n          0x20\n          add\n          swap1\n          dup2\n          mstore\n          0x20\n          add\n          0x0\n          keccak256\n          sload\n            /* \"shoot/3/数组长度溢出/1.sol\":7278:7312  balances[msg.sender]>=user.balance */\n          lt\n          iszero\n            /* \"shoot/3/数组长度溢出/1.sol\":7270:7329  require(balances[msg.sender]>=user.balance,\"balance error\") */\n          iszero\n          iszero\n          tag_37\n          jumpi\n          mload(0x40)\n          0x8c379a000000000000000000000000000000000000000000000000000000000\n          dup2\n          mstore\n          0x4\n          add\n          dup1\n          dup1\n          0x20\n          add\n          dup3\n          dup2\n          sub\n          dup3\n          mstore\n          0xd\n          dup2\n          mstore\n          0x20\n          add\n          dup1\n          0x62616c616e6365206572726f7200000000000000000000000000000000000000\n          dup2\n          mstore\n          pop\n          0x20\n          add\n          swap2\n          pop\n          pop\n          mload(0x40)\n          dup1\n          swap2\n          sub\n          swap1\n          revert\n        tag_37:\n            /* \"shoot/3/数组长度溢出/1.sol\":7362:7366  user */\n          dup2\n            /* \"shoot/3/数组长度溢出/1.sol\":7362:7374  user.balance */\n          0x20\n          add\n          mload\n            /* \"shoot/3/数组长度溢出/1.sol\":7340:7348  balances */\n          0x1\n            /* \"shoot/3/数组长度溢出/1.sol\":7340:7360  balances[msg.sender] */\n          0x0\n            /* \"shoot/3/数组长度溢出/1.sol\":7349:7359  msg.sender */\n          caller\n            /* \"shoot/3/数组长度溢出/1.sol\":7340:7360  balances[msg.sender] */\n          0xffffffffffffffffffffffffffffffffffffffff\n          and\n          0xffffffffffffffffffffffffffffffffffffffff\n          and\n          dup2\n          mstore\n          0x20\n          add\n          swap1\n          dup2\n          mstore\n          0x20\n          add\n          0x0\n          keccak256\n          0x0\n            /* \"shoot/3/数组长度溢出/1.sol\":7340:7374  balances[msg.sender]-=user.balance */\n          dup3\n          dup3\n          sload\n          sub\n          swap3\n          pop\n          pop\n          dup2\n          swap1\n          sstore\n          pop\n            /* \"shoot/3/数组长度溢出/1.sol\":7399:7409  msg.sender */\n          caller\n            /* \"shoot/3/数组长度溢出/1.sol\":7399:7414  msg.sender.call */\n          0xffffffffffffffffffffffffffffffffffffffff\n          and\n            /* \"shoot/3/数组长度溢出/1.sol\":7421:7425  user */\n          dup3\n            /* \"shoot/3/数组长度溢出/1.sol\":7421:7433  user.balance */\n          0x20\n          add\n          mload\n            /* \"shoot/3/数组长度溢出/1.sol\":7399:7436  msg.sender.call.value(user.balance)() */\n          mload(0x40)\n          0x0\n          mload(0x40)\n          dup1\n          dup4\n          sub\n          dup2\n          dup6\n          dup8\n          gas\n          call\n          swap3\n          pop\n          pop\n          pop\n            /* \"shoot/3/数组长度溢出/1.sol\":7385:7436  bool success =msg.sender.call.value(user.balance)() */\n          swap1\n          pop\n            /* \"shoot/3/数组长度溢出/1.sol\":7455:7462  success */\n          dup1\n            /* \"shoot/3/数组长度溢出/1.sol\":7447:7480  require(success,\"transfer error\") */\n          iszero\n          iszero\n          tag_38\n          jumpi\n          mload(0x40)\n          0x8c379a000000000000000000000000000000000000000000000000000000000\n          dup2\n          mstore\n          0x4\n          add\n          dup1\n          dup1\n          0x20\n          add\n          dup3\n          dup2\n          sub\n          dup3\n          mstore\n          0xe\n          dup2\n          mstore\n          0x20\n          add\n          dup1\n          0x7472616e73666572206572726f72000000000000000000000000000000000000\n          dup2\n          mstore\n          pop\n          0x20\n          add\n          swap2\n          pop\n          pop\n          mload(0x40)\n          dup1\n          swap2\n          sub\n          swap1\n          revert\n        tag_38:\n            /* \"shoot/3/数组长度溢出/1.sol\":7493:7498  users */\n          0x2\n            /* \"shoot/3/数组长度溢出/1.sol\":7493:7510  users[msg.sender] */\n          0x0\n            /* \"shoot/3/数组长度溢出/1.sol\":7499:7509  msg.sender */\n          caller\n            /* \"shoot/3/数组长度溢出/1.sol\":7493:7510  users[msg.sender] */\n          0xffffffffffffffffffffffffffffffffffffffff\n          and\n          0xffffffffffffffffffffffffffffffffffffffff\n          and\n          dup2\n          mstore\n          0x20\n          add\n          swap1\n          dup2\n          mstore\n          0x20\n          add\n          0x0\n          keccak256\n            /* \"shoot/3/数组长度溢出/1.sol\":7493:7519  users[msg.sender].length-- */\n          dup1\n          sload\n          dup1\n          swap2\n          swap1\n          0x1\n          swap1\n          sub\n          tag_39\n          swap2\n          swap1\n          jump\t// in(tag_40)\n        tag_39:\n          pop\n            /* \"shoot/3/数组长度溢出/1.sol\":7127:7533  function deleteUser()public{\r... */\n          pop\n          pop\n          pop\n          jump\t// out\n            /* \"shoot/3/数组长度溢出/1.sol\":6887:7119  function addUser(string memory _name)public payable{\r... */\n        tag_12:\n            /* \"shoot/3/数组长度溢出/1.sol\":6949:6965  User memory user */\n          tag_41\n          jump\t// in(tag_30)\n        tag_41:\n            /* \"shoot/3/数组长度溢出/1.sol\":6988:6993  _name */\n          dup2\n            /* \"shoot/3/数组长度溢出/1.sol\":6976:6980  user */\n          dup2\n            /* \"shoot/3/数组长度溢出/1.sol\":6976:6985  user.name */\n          0x0\n          add\n            /* \"shoot/3/数组长度溢出/1.sol\":6976:6993  user.name = _name */\n          dup2\n          swap1\n          mstore\n          pop\n            /* \"shoot/3/数组长度溢出/1.sol\":7019:7028  msg.value */\n          callvalue\n            /* \"shoot/3/数组长度溢出/1.sol\":7004:7008  user */\n          dup2\n            /* \"shoot/3/数组长度溢出/1.sol\":7004:7016  user.balance */\n          0x20\n          add\n            /* \"shoot/3/数组长度溢出/1.sol\":7004:7028  user.balance = msg.value */\n          dup2\n          dup2\n          mstore\n          pop\n          pop\n            /* \"shoot/3/数组长度溢出/1.sol\":7041:7046  users */\n          0x2\n            /* \"shoot/3/数组长度溢出/1.sol\":7041:7058  users[msg.sender] */\n          0x0\n            /* \"shoot/3/数组长度溢出/1.sol\":7047:7057  msg.sender */\n          caller\n            /* \"shoot/3/数组长度溢出/1.sol\":7041:7058  users[msg.sender] */\n          0xffffffffffffffffffffffffffffffffffffffff\n          and\n          0xffffffffffffffffffffffffffffffffffffffff\n          and\n          dup2\n          mstore\n          0x20\n          add\n          swap1\n          dup2\n          mstore\n          0x20\n          add\n          0x0\n          keccak256\n            /* \"shoot/3/数组长度溢出/1.sol\":7064:7068  user */\n          dup2\n            /* \"shoot/3/数组长度溢出/1.sol\":7041:7069  users[msg.sender].push(user) */\n          swap1\n          dup1\n            /* \"--CODEGEN--\":39:40   */\n          0x1\n            /* \"--CODEGEN--\":33:36   */\n          dup2\n            /* \"--CODEGEN--\":27:37   */\n          sload\n            /* \"--CODEGEN--\":23:41   */\n          add\n            /* \"--CODEGEN--\":57:67   */\n          dup1\n            /* \"--CODEGEN--\":52:55   */\n          dup3\n            /* \"--CODEGEN--\":45:68   */\n          sstore\n            /* \"--CODEGEN--\":79:89   */\n          dup1\n            /* \"--CODEGEN--\":72:89   */\n          swap2\n          pop\n            /* \"--CODEGEN--\":0:93   */\n          pop\n            /* \"shoot/3/数组长度溢出/1.sol\":7041:7069  users[msg.sender].push(user) */\n          swap1\n          0x1\n          dup3\n          sub\n          swap1\n          0x0\n          mstore\n          keccak256(0x0, 0x20)\n          swap1\n          0x2\n          mul\n          add\n          0x0\n          swap1\n          swap2\n          swap3\n          swap1\n          swap2\n          swap1\n          swap2\n          pop\n          0x0\n          dup3\n          add\n          mload\n          dup2\n          0x0\n          add\n          swap1\n          dup1\n          mload\n          swap1\n          0x20\n          add\n          swap1\n          tag_44\n          swap3\n          swap2\n          swap1\n          jump\t// in(tag_45)\n        tag_44:\n          pop\n          0x20\n          dup3\n          add\n          mload\n          dup2\n          0x1\n          add\n          sstore\n          pop\n          pop\n          pop\n            /* \"shoot/3/数组长度溢出/1.sol\":7102:7111  msg.value */\n          callvalue\n            /* \"shoot/3/数组长度溢出/1.sol\":7080:7088  balances */\n          0x1\n            /* \"shoot/3/数组长度溢出/1.sol\":7080:7100  balances[msg.sender] */\n          0x0\n            /* \"shoot/3/数组长度溢出/1.sol\":7089:7099  msg.sender */\n          caller\n            /* \"shoot/3/数组长度溢出/1.sol\":7080:7100  balances[msg.sender] */\n          0xffffffffffffffffffffffffffffffffffffffff\n          and\n          0xffffffffffffffffffffffffffffffffffffffff\n          and\n          dup2\n          mstore\n          0x20\n          add\n          swap1\n          dup2\n          mstore\n          0x20\n          add\n          0x0\n          keccak256\n          0x0\n            /* \"shoot/3/数组长度溢出/1.sol\":7080:7111  balances[msg.sender]+=msg.value */\n          dup3\n          dup3\n          sload\n          add\n          swap3\n          pop\n          pop\n          dup2\n          swap1\n          sstore\n          pop\n            /* \"shoot/3/数组长度溢出/1.sol\":6887:7119  function addUser(string memory _name)public payable{\r... */\n          pop\n          pop\n          jump\t// out\n            /* \"shoot/3/数组长度溢出/1.sol\":6637:6679  mapping(address => uint256)public balances */\n        tag_15:\n          mstore(0x20, 0x1)\n          dup1\n          0x0\n          mstore\n          keccak256(0x0, 0x40)\n          0x0\n          swap2\n          pop\n          swap1\n          pop\n          sload\n          dup2\n          jump\t// out\n            /* \"shoot/3/数组长度溢出/1.sol\":6598:6627  address public administration */\n        tag_18:\n          0x0\n          dup1\n          swap1\n          sload\n          swap1\n          0x100\n          exp\n          swap1\n          div\n          0xffffffffffffffffffffffffffffffffffffffff\n          and\n          dup2\n          jump\t// out\n            /* \"shoot/3/数组长度溢出/1.sol\":6762:6800  mapping(address => User[])public users */\n        tag_21:\n          mstore(0x20, 0x2)\n          dup2\n          0x0\n          mstore\n          keccak256(0x0, 0x40)\n          dup2\n          dup2\n          sload\n          dup2\n          lt\n          iszero\n          iszero\n          tag_46\n          jumpi\n          invalid\n        tag_46:\n          swap1\n          0x0\n          mstore\n          keccak256(0x0, 0x20)\n          swap1\n          0x2\n          mul\n          add\n          0x0\n          swap2\n          pop\n          swap2\n          pop\n          pop\n          dup1\n          0x0\n          add\n          dup1\n          sload\n          0x1\n          dup2\n          0x1\n          and\n          iszero\n          0x100\n          mul\n          sub\n          and\n          0x2\n          swap1\n          div\n          dup1\n          0x1f\n          add\n          0x20\n          dup1\n          swap2\n          div\n          mul\n          0x20\n          add\n          mload(0x40)\n          swap1\n          dup2\n          add\n          0x40\n          mstore\n          dup1\n          swap3\n          swap2\n          swap1\n          dup2\n          dup2\n          mstore\n          0x20\n          add\n          dup3\n          dup1\n          sload\n          0x1\n          dup2\n          0x1\n          and\n          iszero\n          0x100\n          mul\n          sub\n          and\n          0x2\n          swap1\n          div\n          dup1\n          iszero\n          tag_48\n          jumpi\n          dup1\n          0x1f\n          lt\n          tag_49\n          jumpi\n          0x100\n          dup1\n          dup4\n          sload\n          div\n          mul\n          dup4\n          mstore\n          swap2\n          0x20\n          add\n          swap2\n          jump(tag_48)\n        tag_49:\n          dup3\n          add\n          swap2\n          swap1\n          0x0\n          mstore\n          keccak256(0x0, 0x20)\n          swap1\n        tag_50:\n          dup2\n          sload\n          dup2\n          mstore\n          swap1\n          0x1\n          add\n          swap1\n          0x20\n          add\n          dup1\n          dup4\n          gt\n          tag_50\n          jumpi\n          dup3\n          swap1\n          sub\n          0x1f\n          and\n          dup3\n          add\n          swap2\n        tag_48:\n          pop\n          pop\n          pop\n          pop\n          pop\n          swap1\n          dup1\n          0x1\n          add\n          sload\n          swap1\n          pop\n          dup3\n          jump\t// out\n            /* \"shoot/3/数组长度溢出/1.sol\":7541:7693  function setName(uint256 index,string memory newName)public{\r... */\n        tag_28:\n            /* \"shoot/3/数组长度溢出/1.sol\":7611:7628  User storage user */\n          0x0\n            /* \"shoot/3/数组长度溢出/1.sol\":7631:7636  users */\n          0x2\n            /* \"shoot/3/数组长度溢出/1.sol\":7631:7648  users[msg.sender] */\n          0x0\n            /* \"shoot/3/数组长度溢出/1.sol\":7637:7647  msg.sender */\n          caller\n            /* \"shoot/3/数组长度溢出/1.sol\":7631:7648  users[msg.sender] */\n          0xffffffffffffffffffffffffffffffffffffffff\n          and\n          0xffffffffffffffffffffffffffffffffffffffff\n          and\n          dup2\n          mstore\n          0x20\n          add\n          swap1\n          dup2\n          mstore\n          0x20\n          add\n          0x0\n          keccak256\n            /* \"shoot/3/数组长度溢出/1.sol\":7649:7654  index */\n          dup4\n            /* \"shoot/3/数组长度溢出/1.sol\":7631:7655  users[msg.sender][index] */\n          dup2\n          sload\n          dup2\n          lt\n          iszero\n          iszero\n          tag_52\n          jumpi\n          invalid\n        tag_52:\n          swap1\n          0x0\n          mstore\n          keccak256(0x0, 0x20)\n          swap1\n          0x2\n          mul\n          add\n            /* \"shoot/3/数组长度溢出/1.sol\":7611:7655  User storage user = users[msg.sender][index] */\n          swap1\n          pop\n            /* \"shoot/3/数组长度溢出/1.sol\":7678:7685  newName */\n          dup2\n            /* \"shoot/3/数组长度溢出/1.sol\":7666:7670  user */\n          dup2\n            /* \"shoot/3/数组长度溢出/1.sol\":7666:7675  user.name */\n          0x0\n          add\n            /* \"shoot/3/数组长度溢出/1.sol\":7666:7685  user.name = newName */\n          swap1\n          dup1\n          mload\n          swap1\n          0x20\n          add\n          swap1\n          tag_54\n          swap3\n          swap2\n          swap1\n          jump\t// in(tag_55)\n        tag_54:\n          pop\n            /* \"shoot/3/数组长度溢出/1.sol\":7541:7693  function setName(uint256 index,string memory newName)public{\r... */\n          pop\n          pop\n          pop\n          jump\t// out\n            /* \"shoot/3/数组长度溢出/1.sol\":6574:7698  contract userinfo{\r... */\n        tag_30:\n          0x40\n          dup1\n          mload\n          swap1\n          dup2\n          add\n          0x40\n          mstore\n          dup1\n          0x60\n          dup2\n          mstore\n          0x20\n          add\n          0x0\n          dup2\n          mstore\n          pop\n          swap1\n          jump\t// out\n        tag_40:\n          dup2\n          sload\n          dup2\n          dup4\n          sstore\n          dup2\n          dup2\n          gt\n          iszero\n          tag_56\n          jumpi\n          0x2\n          mul\n          dup2\n          0x2\n          mul\n          dup4\n          0x0\n          mstore\n          keccak256(0x0, 0x20)\n          swap2\n          dup3\n          add\n          swap2\n          add\n          tag_57\n          swap2\n          swap1\n          jump\t// in(tag_58)\n        tag_57:\n        tag_56:\n          pop\n          pop\n          pop\n          jump\t// out\n        tag_45:\n          dup3\n          dup1\n          sload\n          0x1\n          dup2\n          0x1\n          and\n          iszero\n          0x100\n          mul\n          sub\n          and\n          0x2\n          swap1\n          div\n          swap1\n          0x0\n          mstore\n          keccak256(0x0, 0x20)\n          swap1\n          0x1f\n          add\n          0x20\n          swap1\n          div\n          dup2\n          add\n          swap3\n          dup3\n          0x1f\n          lt\n          tag_60\n          jumpi\n          dup1\n          mload\n          not(0xff)\n          and\n          dup4\n          dup1\n          add\n          or\n          dup6\n          sstore\n          jump(tag_59)\n        tag_60:\n          dup3\n          dup1\n          add\n          0x1\n          add\n          dup6\n          sstore\n          dup3\n          iszero\n          tag_59\n          jumpi\n          swap2\n          dup3\n          add\n        tag_61:\n          dup3\n          dup2\n          gt\n          iszero\n          tag_62\n          jumpi\n          dup3\n          mload\n          dup3\n          sstore\n          swap2\n          0x20\n          add\n          swap2\n          swap1\n          0x1\n          add\n          swap1\n          jump(tag_61)\n        tag_62:\n        tag_59:\n          pop\n          swap1\n          pop\n          tag_63\n          swap2\n          swap1\n          jump\t// in(tag_64)\n        tag_63:\n          pop\n          swap1\n          jump\t// out\n        tag_55:\n          dup3\n          dup1\n          sload\n          0x1\n          dup2\n          0x1\n          and\n          iszero\n          0x100\n          mul\n          sub\n          and\n          0x2\n          swap1\n          div\n          swap1\n          0x0\n          mstore\n          keccak256(0x0, 0x20)\n          swap1\n          0x1f\n          add\n          0x20\n          swap1\n          div\n          dup2\n          add\n          swap3\n          dup3\n          0x1f\n          lt\n          tag_66\n          jumpi\n          dup1\n          mload\n          not(0xff)\n          and\n          dup4\n          dup1\n          add\n          or\n          dup6\n          sstore\n          jump(tag_65)\n        tag_66:\n          dup3\n          dup1\n          add\n          0x1\n          add\n          dup6\n          sstore\n          dup3\n          iszero\n          tag_65\n          jumpi\n          swap2\n          dup3\n          add\n        tag_67:\n          dup3\n          dup2\n          gt\n          iszero\n          tag_68\n          jumpi\n          dup3\n          mload\n          dup3\n          sstore\n          swap2\n          0x20\n          add\n          swap2\n          swap1\n          0x1\n          add\n          swap1\n          jump(tag_67)\n        tag_68:\n        tag_65:\n          pop\n          swap1\n          pop\n          tag_69\n          swap2\n          swap1\n          jump\t// in(tag_64)\n        tag_69:\n          pop\n          swap1\n          jump\t// out\n        tag_58:\n          tag_70\n          swap2\n          swap1\n        tag_71:\n          dup1\n          dup3\n          gt\n          iszero\n          tag_72\n          jumpi\n          0x0\n          dup1\n          dup3\n          add\n          0x0\n          tag_73\n          swap2\n          swap1\n          jump\t// in(tag_74)\n        tag_73:\n          0x1\n          dup3\n          add\n          0x0\n          swap1\n          sstore\n          pop\n          0x2\n          add\n          jump(tag_71)\n        tag_72:\n          pop\n          swap1\n          jump\n        tag_70:\n          swap1\n          jump\t// out\n        tag_64:\n          tag_75\n          swap2\n          swap1\n        tag_76:\n          dup1\n          dup3\n          gt\n          iszero\n          tag_77\n          jumpi\n          0x0\n          dup2\n          0x0\n          swap1\n          sstore\n          pop\n          0x1\n          add\n          jump(tag_76)\n        tag_77:\n          pop\n          swap1\n          jump\n        tag_75:\n          swap1\n          jump\t// out\n        tag_74:\n          pop\n          dup1\n          sload\n          0x1\n          dup2\n          0x1\n          and\n          iszero\n          0x100\n          mul\n          sub\n          and\n          0x2\n          swap1\n          div\n          0x0\n          dup3\n          sstore\n          dup1\n          0x1f\n          lt\n          tag_79\n          jumpi\n          pop\n          jump(tag_78)\n        tag_79:\n          0x1f\n          add\n          0x20\n          swap1\n          div\n          swap1\n          0x0\n          mstore\n          keccak256(0x0, 0x20)\n          swap1\n          dup2\n          add\n          swap1\n          tag_80\n          swap2\n          swap1\n          jump\t// in(tag_64)\n        tag_80:\n        tag_78:\n          pop\n          jump\t// out\n\n        auxdata: 0xa165627a7a723058208951c73a47218b2ced0470ae69c83b1e49bee3b869e99b2707f1af33d470f0ef0029\n    }\n}\n",
				"bytecode": {
					"linkReferences": {},
					"object": "608060405261000c61007b565b604051809103906000f080158015610028573d6000803e3d6000fd5b50600160006101000a81548173ffffffffffffffffffffffffffffffffffffffff021916908373ffffffffffffffffffffffffffffffffffffffff16021790555034801561007557600080fd5b5061008b565b604051610b5e8061041183390190565b6103778061009a6000396000f300608060405260043610610057576000357c0100000000000000000000000000000000000000000000000000000000900463ffffffff168063370158ea1461005c578063efedc669146100b3578063fa391c64146100de575b600080fd5b34801561006857600080fd5b506100716100f5565b604051808273ffffffffffffffffffffffffffffffffffffffff1673ffffffffffffffffffffffffffffffffffffffff16815260200191505060405180910390f35b3480156100bf57600080fd5b506100c861011b565b6040518082815260200191505060405180910390f35b3480156100ea57600080fd5b506100f3610121565b005b600160009054906101000a900473ffffffffffffffffffffffffffffffffffffffff1681565b60005481565b60008081905550600073ffffffffffffffffffffffffffffffffffffffff16600160009054906101000a900473ffffffffffffffffffffffffffffffffffffffff1673ffffffffffffffffffffffffffffffffffffffff16633847cb596040518163ffffffff167c0100000000000000000000000000000000000000000000000000000000028152600401602060405180830381600087803b1580156101c657600080fd5b505af11580156101da573d6000803e3d6000fd5b505050506040513d60208110156101f057600080fd5b810190808051906020019092919050505073ffffffffffffffffffffffffffffffffffffffff16141561022e57601960008082825401925050819055505b69d3c21bcecceda1000000600160009054906101000a900473ffffffffffffffffffffffffffffffffffffffff1673ffffffffffffffffffffffffffffffffffffffff166327e235e3336040518263ffffffff167c0100000000000000000000000000000000000000000000000000000000028152600401808273ffffffffffffffffffffffffffffffffffffffff1673ffffffffffffffffffffffffffffffffffffffff168152602001915050602060405180830381600087803b1580156102f657600080fd5b505af115801561030a573d6000803e3d6000fd5b505050506040513d602081101561032057600080fd5b810190808051906020019092919050505010151561034957604b60008082825401925050819055505b5600a165627a7a7230582067b93f922c6c8d48d66da0c6a8d84fb0648e8e9982b8ce34a4fe026b2b1c8abb0029608060405234801561001057600080fd5b50336000806101000a81548173ffffffffffffffffffffffffffffffffffffffff021916908373ffffffffffffffffffffffffffffffffffffffff160217905550610afe806100606000396000f300608060405260043610610078576000357c0100000000000000000000000000000000000000000000000000000000900463ffffffff168063026ff05e1461007d57806318b8275a1461009457806327e235e3146100f05780633847cb591461014757806354a02f9e1461019e578063fe55932a1461026b575b600080fd5b34801561008957600080fd5b506100926102de565b005b6100ee600480360381019080803590602001908201803590602001908080601f0160208091040260200160405190810160405280939291908181526020018383808284378201915050505050509192919290505050610650565b005b3480156100fc57600080fd5b50610131600480360381019080803573ffffffffffffffffffffffffffffffffffffffff169060200190929190505050610751565b6040518082815260200191505060405180910390f35b34801561015357600080fd5b5061015c610769565b604051808273ffffffffffffffffffffffffffffffffffffffff1673ffffffffffffffffffffffffffffffffffffffff16815260200191505060405180910390f35b3480156101aa57600080fd5b506101e9600480360381019080803573ffffffffffffffffffffffffffffffffffffffff1690602001909291908035906020019092919050505061078e565b6040518080602001838152602001828103825284818151815260200191508051906020019080838360005b8381101561022f578082015181840152602081019050610214565b50505050905090810190601f16801561025c5780820380516001836020036101000a031916815260200191505b50935050505060405180910390f35b34801561027757600080fd5b506102dc60048036038101908080359060200190929190803590602001908201803590602001908080601f0160208091040260200160405190810160405280939291908181526020018383808284378201915050505050509192919290505050610866565b005b60006102e86108e2565b6000600260003373ffffffffffffffffffffffffffffffffffffffff1673ffffffffffffffffffffffffffffffffffffffff168152602001908152602001600020805490509250600260003373ffffffffffffffffffffffffffffffffffffffff1673ffffffffffffffffffffffffffffffffffffffff1681526020019081526020016000206001840381548110151561037e57fe5b9060005260206000209060020201604080519081016040529081600082018054600181600116156101000203166002900480601f0160208091040260200160405190810160405280929190818152602001828054600181600116156101000203166002900480156104305780601f1061040557610100808354040283529160200191610430565b820191906000526020600020905b81548152906001019060200180831161041357829003601f168201915b5050505050815260200160018201548152505091508160200151600160003373ffffffffffffffffffffffffffffffffffffffff1673ffffffffffffffffffffffffffffffffffffffff1681526020019081526020016000205410151515610500576040517f08c379a000000000000000000000000000000000000000000000000000000000815260040180806020018281038252600d8152602001807f62616c616e6365206572726f720000000000000000000000000000000000000081525060200191505060405180910390fd5b8160200151600160003373ffffffffffffffffffffffffffffffffffffffff1673ffffffffffffffffffffffffffffffffffffffff168152602001908152602001600020600082825403925050819055503373ffffffffffffffffffffffffffffffffffffffff16826020015160405160006040518083038185875af19250505090508015156105f8576040517f08c379a000000000000000000000000000000000000000000000000000000000815260040180806020018281038252600e8152602001807f7472616e73666572206572726f7200000000000000000000000000000000000081525060200191505060405180910390fd5b600260003373ffffffffffffffffffffffffffffffffffffffff1673ffffffffffffffffffffffffffffffffffffffff16815260200190815260200160002080548091906001900361064a91906108fc565b50505050565b6106586108e2565b81816000018190525034816020018181525050600260003373ffffffffffffffffffffffffffffffffffffffff1673ffffffffffffffffffffffffffffffffffffffff168152602001908152602001600020819080600181540180825580915050906001820390600052602060002090600202016000909192909190915060008201518160000190805190602001906106f292919061092e565b506020820151816001015550505034600160003373ffffffffffffffffffffffffffffffffffffffff1673ffffffffffffffffffffffffffffffffffffffff168152602001908152602001600020600082825401925050819055505050565b60016020528060005260406000206000915090505481565b6000809054906101000a900473ffffffffffffffffffffffffffffffffffffffff1681565b6002602052816000526040600020818154811015156107a957fe5b906000526020600020906002020160009150915050806000018054600181600116156101000203166002900480601f0160208091040260200160405190810160405280929190818152602001828054600181600116156101000203166002900480156108565780601f1061082b57610100808354040283529160200191610856565b820191906000526020600020905b81548152906001019060200180831161083957829003601f168201915b5050505050908060010154905082565b6000600260003373ffffffffffffffffffffffffffffffffffffffff1673ffffffffffffffffffffffffffffffffffffffff168152602001908152602001600020838154811015156108b457fe5b90600052602060002090600202019050818160000190805190602001906108dc9291906109ae565b50505050565b604080519081016040528060608152602001600081525090565b815481835581811115610929576002028160020283600052602060002091820191016109289190610a2e565b5b505050565b828054600181600116156101000203166002900490600052602060002090601f016020900481019282601f1061096f57805160ff191683800117855561099d565b8280016001018555821561099d579182015b8281111561099c578251825591602001919060010190610981565b5b5090506109aa9190610a65565b5090565b828054600181600116156101000203166002900490600052602060002090601f016020900481019282601f106109ef57805160ff1916838001178555610a1d565b82800160010185558215610a1d579182015b82811115610a1c578251825591602001919060010190610a01565b5b509050610a2a9190610a65565b5090565b610a6291905b80821115610a5e5760008082016000610a4d9190610a8a565b600182016000905550600201610a34565b5090565b90565b610a8791905b80821115610a83576000816000905550600101610a6b565b5090565b90565b50805460018160011615610100020316600290046000825580601f10610ab05750610acf565b601f016020900490600052602060002090810190610ace9190610a65565b5b505600a165627a7a723058208951c73a47218b2ced0470ae69c83b1e49bee3b869e99b2707f1af33d470f0ef0029",
					"opcodes": "PUSH1 0x80 PUSH1 0x40 MSTORE PUSH2 0xC PUSH2 0x7B JUMP JUMPDEST PUSH1 0x40 MLOAD DUP1 SWAP2 SUB SWAP1 PUSH1 0x0 CREATE DUP1 ISZERO DUP1 ISZERO PUSH2 0x28 JUMPI RETURNDATASIZE PUSH1 0x0 DUP1 RETURNDATACOPY RETURNDATASIZE PUSH1 0x0 REVERT JUMPDEST POP PUSH1 0x1 PUSH1 0x0 PUSH2 0x100 EXP DUP2 SLOAD DUP2 PUSH20 0xFFFFFFFFFFFFFFFFFFFFFFFFFFFFFFFFFFFFFFFF MUL NOT AND SWAP1 DUP4 PUSH20 0xFFFFFFFFFFFFFFFFFFFFFFFFFFFFFFFFFFFFFFFF AND MUL OR SWAP1 SSTORE POP CALLVALUE DUP1 ISZERO PUSH2 0x75 JUMPI PUSH1 0x0 DUP1 REVERT JUMPDEST POP PUSH2 0x8B JUMP JUMPDEST PUSH1 0x40 MLOAD PUSH2 0xB5E DUP1 PUSH2 0x411 DUP4 CODECOPY ADD SWAP1 JUMP JUMPDEST PUSH2 0x377 DUP1 PUSH2 0x9A PUSH1 0x0 CODECOPY PUSH1 0x0 RETURN STOP PUSH1 0x80 PUSH1 0x40 MSTORE PUSH1 0x4 CALLDATASIZE LT PUSH2 0x57 JUMPI PUSH1 0x0 CALLDATALOAD PUSH29 0x100000000000000000000000000000000000000000000000000000000 SWAP1 DIV PUSH4 0xFFFFFFFF AND DUP1 PUSH4 0x370158EA EQ PUSH2 0x5C JUMPI DUP1 PUSH4 0xEFEDC669 EQ PUSH2 0xB3 JUMPI DUP1 PUSH4 0xFA391C64 EQ PUSH2 0xDE JUMPI JUMPDEST PUSH1 0x0 DUP1 REVERT JUMPDEST CALLVALUE DUP1 ISZERO PUSH2 0x68 JUMPI PUSH1 0x0 DUP1 REVERT JUMPDEST POP PUSH2 0x71 PUSH2 0xF5 JUMP JUMPDEST PUSH1 0x40 MLOAD DUP1 DUP3 PUSH20 0xFFFFFFFFFFFFFFFFFFFFFFFFFFFFFFFFFFFFFFFF AND PUSH20 0xFFFFFFFFFFFFFFFFFFFFFFFFFFFFFFFFFFFFFFFF AND DUP2 MSTORE PUSH1 0x20 ADD SWAP2 POP POP PUSH1 0x40 MLOAD DUP1 SWAP2 SUB SWAP1 RETURN JUMPDEST CALLVALUE DUP1 ISZERO PUSH2 0xBF JUMPI PUSH1 0x0 DUP1 REVERT JUMPDEST POP PUSH2 0xC8 PUSH2 0x11B JUMP JUMPDEST PUSH1 0x40 MLOAD DUP1 DUP3 DUP2 MSTORE PUSH1 0x20 ADD SWAP2 POP POP PUSH1 0x40 MLOAD DUP1 SWAP2 SUB SWAP1 RETURN JUMPDEST CALLVALUE DUP1 ISZERO PUSH2 0xEA JUMPI PUSH1 0x0 DUP1 REVERT JUMPDEST POP PUSH2 0xF3 PUSH2 0x121 JUMP JUMPDEST STOP JUMPDEST PUSH1 0x1 PUSH1 0x0 SWAP1 SLOAD SWAP1 PUSH2 0x100 EXP SWAP1 DIV PUSH20 0xFFFFFFFFFFFFFFFFFFFFFFFFFFFFFFFFFFFFFFFF AND DUP2 JUMP JUMPDEST PUSH1 0x0 SLOAD DUP2 JUMP JUMPDEST PUSH1 0x0 DUP1 DUP2 SWAP1 SSTORE POP PUSH1 0x0 PUSH20 0xFFFFFFFFFFFFFFFFFFFFFFFFFFFFFFFFFFFFFFFF AND PUSH1 0x1 PUSH1 0x0 SWAP1 SLOAD SWAP1 PUSH2 0x100 EXP SWAP1 DIV PUSH20 0xFFFFFFFFFFFFFFFFFFFFFFFFFFFFFFFFFFFFFFFF AND PUSH20 0xFFFFFFFFFFFFFFFFFFFFFFFFFFFFFFFFFFFFFFFF AND PUSH4 0x3847CB59 PUSH1 0x40 MLOAD DUP2 PUSH4 0xFFFFFFFF AND PUSH29 0x100000000000000000000000000000000000000000000000000000000 MUL DUP2 MSTORE PUSH1 0x4 ADD PUSH1 0x20 PUSH1 0x40 MLOAD DUP1 DUP4 SUB DUP2 PUSH1 0x0 DUP8 DUP1 EXTCODESIZE ISZERO DUP1 ISZERO PUSH2 0x1C6 JUMPI PUSH1 0x0 DUP1 REVERT JUMPDEST POP GAS CALL ISZERO DUP1 ISZERO PUSH2 0x1DA JUMPI RETURNDATASIZE PUSH1 0x0 DUP1 RETURNDATACOPY RETURNDATASIZE PUSH1 0x0 REVERT JUMPDEST POP POP POP POP PUSH1 0x40 MLOAD RETURNDATASIZE PUSH1 0x20 DUP2 LT ISZERO PUSH2 0x1F0 JUMPI PUSH1 0x0 DUP1 REVERT JUMPDEST DUP2 ADD SWAP1 DUP1 DUP1 MLOAD SWAP1 PUSH1 0x20 ADD SWAP1 SWAP3 SWAP2 SWAP1 POP POP POP PUSH20 0xFFFFFFFFFFFFFFFFFFFFFFFFFFFFFFFFFFFFFFFF AND EQ ISZERO PUSH2 0x22E JUMPI PUSH1 0x19 PUSH1 0x0 DUP1 DUP3 DUP3 SLOAD ADD SWAP3 POP POP DUP2 SWAP1 SSTORE POP JUMPDEST PUSH10 0xD3C21BCECCEDA1000000 PUSH1 0x1 PUSH1 0x0 SWAP1 SLOAD SWAP1 PUSH2 0x100 EXP SWAP1 DIV PUSH20 0xFFFFFFFFFFFFFFFFFFFFFFFFFFFFFFFFFFFFFFFF AND PUSH20 0xFFFFFFFFFFFFFFFFFFFFFFFFFFFFFFFFFFFFFFFF AND PUSH4 0x27E235E3 CALLER PUSH1 0x40 MLOAD DUP3 PUSH4 0xFFFFFFFF AND PUSH29 0x100000000000000000000000000000000000000000000000000000000 MUL DUP2 MSTORE PUSH1 0x4 ADD DUP1 DUP3 PUSH20 0xFFFFFFFFFFFFFFFFFFFFFFFFFFFFFFFFFFFFFFFF AND PUSH20 0xFFFFFFFFFFFFFFFFFFFFFFFFFFFFFFFFFFFFFFFF AND DUP2 MSTORE PUSH1 0x20 ADD SWAP2 POP POP PUSH1 0x20 PUSH1 0x40 MLOAD DUP1 DUP4 SUB DUP2 PUSH1 0x0 DUP8 DUP1 EXTCODESIZE ISZERO DUP1 ISZERO PUSH2 0x2F6 JUMPI PUSH1 0x0 DUP1 REVERT JUMPDEST POP GAS CALL ISZERO DUP1 ISZERO PUSH2 0x30A JUMPI RETURNDATASIZE PUSH1 0x0 DUP1 RETURNDATACOPY RETURNDATASIZE PUSH1 0x0 REVERT JUMPDEST POP POP POP POP PUSH1 0x40 MLOAD RETURNDATASIZE PUSH1 0x20 DUP2 LT ISZERO PUSH2 0x320 JUMPI PUSH1 0x0 DUP1 REVERT JUMPDEST DUP2 ADD SWAP1 DUP1 DUP1 MLOAD SWAP1 PUSH1 0x20 ADD SWAP1 SWAP3 SWAP2 SWAP1 POP POP POP LT ISZERO ISZERO PUSH2 0x349 JUMPI PUSH1 0x4B PUSH1 0x0 DUP1 DUP3 DUP3 SLOAD ADD SWAP3 POP POP DUP2 SWAP1 SSTORE POP JUMPDEST JUMP STOP LOG1 PUSH6 0x627A7A723058 KECCAK256 PUSH8 0xB93F922C6C8D48D6 PUSH14 0xA0C6A8D84FB0648E8E9982B8CE34 LOG4 INVALID MUL PUSH12 0x2B1C8ABB0029608060405234 DUP1 ISZERO PUSH2 0x10 JUMPI PUSH1 0x0 DUP1 REVERT JUMPDEST POP CALLER PUSH1 0x0 DUP1 PUSH2 0x100 EXP DUP2 SLOAD DUP2 PUSH20 0xFFFFFFFFFFFFFFFFFFFFFFFFFFFFFFFFFFFFFFFF MUL NOT AND SWAP1 DUP4 PUSH20 0xFFFFFFFFFFFFFFFFFFFFFFFFFFFFFFFFFFFFFFFF AND MUL OR SWAP1 SSTORE POP PUSH2 0xAFE DUP1 PUSH2 0x60 PUSH1 0x0 CODECOPY PUSH1 0x0 RETURN STOP PUSH1 0x80 PUSH1 0x40 MSTORE PUSH1 0x4 CALLDATASIZE LT PUSH2 0x78 JUMPI PUSH1 0x0 CALLDATALOAD PUSH29 0x100000000000000000000000000000000000000000000000000000000 SWAP1 DIV PUSH4 0xFFFFFFFF AND DUP1 PUSH4 0x26FF05E EQ PUSH2 0x7D JUMPI DUP1 PUSH4 0x18B8275A EQ PUSH2 0x94 JUMPI DUP1 PUSH4 0x27E235E3 EQ PUSH2 0xF0 JUMPI DUP1 PUSH4 0x3847CB59 EQ PUSH2 0x147 JUMPI DUP1 PUSH4 0x54A02F9E EQ PUSH2 0x19E JUMPI DUP1 PUSH4 0xFE55932A EQ PUSH2 0x26B JUMPI JUMPDEST PUSH1 0x0 DUP1 REVERT JUMPDEST CALLVALUE DUP1 ISZERO PUSH2 0x89 JUMPI PUSH1 0x0 DUP1 REVERT JUMPDEST POP PUSH2 0x92 PUSH2 0x2DE JUMP JUMPDEST STOP JUMPDEST PUSH2 0xEE PUSH1 0x4 DUP1 CALLDATASIZE SUB DUP2 ADD SWAP1 DUP1 DUP1 CALLDATALOAD SWAP1 PUSH1 0x20 ADD SWAP1 DUP3 ADD DUP1 CALLDATALOAD SWAP1 PUSH1 0x20 ADD SWAP1 DUP1 DUP1 PUSH1 0x1F ADD PUSH1 0x20 DUP1 SWAP2 DIV MUL PUSH1 0x20 ADD PUSH1 0x40 MLOAD SWAP1 DUP2 ADD PUSH1 0x40 MSTORE DUP1 SWAP4 SWAP3 SWAP2 SWAP1 DUP2 DUP2 MSTORE PUSH1 0x20 ADD DUP4 DUP4 DUP1 DUP3 DUP5 CALLDATACOPY DUP3 ADD SWAP2 POP POP POP POP POP POP SWAP2 SWAP3 SWAP2 SWAP3 SWAP1 POP POP POP PUSH2 0x650 JUMP JUMPDEST STOP JUMPDEST CALLVALUE DUP1 ISZERO PUSH2 0xFC JUMPI PUSH1 0x0 DUP1 REVERT JUMPDEST POP PUSH2 0x131 PUSH1 0x4 DUP1 CALLDATASIZE SUB DUP2 ADD SWAP1 DUP1 DUP1 CALLDATALOAD PUSH20 0xFFFFFFFFFFFFFFFFFFFFFFFFFFFFFFFFFFFFFFFF AND SWAP1 PUSH1 0x20 ADD SWAP1 SWAP3 SWAP2 SWAP1 POP POP POP PUSH2 0x751 JUMP JUMPDEST PUSH1 0x40 MLOAD DUP1 DUP3 DUP2 MSTORE PUSH1 0x20 ADD SWAP2 POP POP PUSH1 0x40 MLOAD DUP1 SWAP2 SUB SWAP1 RETURN JUMPDEST CALLVALUE DUP1 ISZERO PUSH2 0x153 JUMPI PUSH1 0x0 DUP1 REVERT JUMPDEST POP PUSH2 0x15C PUSH2 0x769 JUMP JUMPDEST PUSH1 0x40 MLOAD DUP1 DUP3 PUSH20 0xFFFFFFFFFFFFFFFFFFFFFFFFFFFFFFFFFFFFFFFF AND PUSH20 0xFFFFFFFFFFFFFFFFFFFFFFFFFFFFFFFFFFFFFFFF AND DUP2 MSTORE PUSH1 0x20 ADD SWAP2 POP POP PUSH1 0x40 MLOAD DUP1 SWAP2 SUB SWAP1 RETURN JUMPDEST CALLVALUE DUP1 ISZERO PUSH2 0x1AA JUMPI PUSH1 0x0 DUP1 REVERT JUMPDEST POP PUSH2 0x1E9 PUSH1 0x4 DUP1 CALLDATASIZE SUB DUP2 ADD SWAP1 DUP1 DUP1 CALLDATALOAD PUSH20 0xFFFFFFFFFFFFFFFFFFFFFFFFFFFFFFFFFFFFFFFF AND SWAP1 PUSH1 0x20 ADD SWAP1 SWAP3 SWAP2 SWAP1 DUP1 CALLDATALOAD SWAP1 PUSH1 0x20 ADD SWAP1 SWAP3 SWAP2 SWAP1 POP POP POP PUSH2 0x78E JUMP JUMPDEST PUSH1 0x40 MLOAD DUP1 DUP1 PUSH1 0x20 ADD DUP4 DUP2 MSTORE PUSH1 0x20 ADD DUP3 DUP2 SUB DUP3 MSTORE DUP5 DUP2 DUP2 MLOAD DUP2 MSTORE PUSH1 0x20 ADD SWAP2 POP DUP1 MLOAD SWAP1 PUSH1 0x20 ADD SWAP1 DUP1 DUP4 DUP4 PUSH1 0x0 JUMPDEST DUP4 DUP2 LT ISZERO PUSH2 0x22F JUMPI DUP1 DUP3 ADD MLOAD DUP2 DUP5 ADD MSTORE PUSH1 0x20 DUP2 ADD SWAP1 POP PUSH2 0x214 JUMP JUMPDEST POP POP POP POP SWAP1 POP SWAP1 DUP2 ADD SWAP1 PUSH1 0x1F AND DUP1 ISZERO PUSH2 0x25C JUMPI DUP1 DUP3 SUB DUP1 MLOAD PUSH1 0x1 DUP4 PUSH1 0x20 SUB PUSH2 0x100 EXP SUB NOT AND DUP2 MSTORE PUSH1 0x20 ADD SWAP2 POP JUMPDEST POP SWAP4 POP POP POP POP PUSH1 0x40 MLOAD DUP1 SWAP2 SUB SWAP1 RETURN JUMPDEST CALLVALUE DUP1 ISZERO PUSH2 0x277 JUMPI PUSH1 0x0 DUP1 REVERT JUMPDEST POP PUSH2 0x2DC PUSH1 0x4 DUP1 CALLDATASIZE SUB DUP2 ADD SWAP1 DUP1 DUP1 CALLDATALOAD SWAP1 PUSH1 0x20 ADD SWAP1 SWAP3 SWAP2 SWAP1 DUP1 CALLDATALOAD SWAP1 PUSH1 0x20 ADD SWAP1 DUP3 ADD DUP1 CALLDATALOAD SWAP1 PUSH1 0x20 ADD SWAP1 DUP1 DUP1 PUSH1 0x1F ADD PUSH1 0x20 DUP1 SWAP2 DIV MUL PUSH1 0x20 ADD PUSH1 0x40 MLOAD SWAP1 DUP2 ADD PUSH1 0x40 MSTORE DUP1 SWAP4 SWAP3 SWAP2 SWAP1 DUP2 DUP2 MSTORE PUSH1 0x20 ADD DUP4 DUP4 DUP1 DUP3 DUP5 CALLDATACOPY DUP3 ADD SWAP2 POP POP POP POP POP POP SWAP2 SWAP3 SWAP2 SWAP3 SWAP1 POP POP POP PUSH2 0x866 JUMP JUMPDEST STOP JUMPDEST PUSH1 0x0 PUSH2 0x2E8 PUSH2 0x8E2 JUMP JUMPDEST PUSH1 0x0 PUSH1 0x2 PUSH1 0x0 CALLER PUSH20 0xFFFFFFFFFFFFFFFFFFFFFFFFFFFFFFFFFFFFFFFF AND PUSH20 0xFFFFFFFFFFFFFFFFFFFFFFFFFFFFFFFFFFFFFFFF AND DUP2 MSTORE PUSH1 0x20 ADD SWAP1 DUP2 MSTORE PUSH1 0x20 ADD PUSH1 0x0 KECCAK256 DUP1 SLOAD SWAP1 POP SWAP3 POP PUSH1 0x2 PUSH1 0x0 CALLER PUSH20 0xFFFFFFFFFFFFFFFFFFFFFFFFFFFFFFFFFFFFFFFF AND PUSH20 0xFFFFFFFFFFFFFFFFFFFFFFFFFFFFFFFFFFFFFFFF AND DUP2 MSTORE PUSH1 0x20 ADD SWAP1 DUP2 MSTORE PUSH1 0x20 ADD PUSH1 0x0 KECCAK256 PUSH1 0x1 DUP5 SUB DUP2 SLOAD DUP2 LT ISZERO ISZERO PUSH2 0x37E JUMPI INVALID JUMPDEST SWAP1 PUSH1 0x0 MSTORE PUSH1 0x20 PUSH1 0x0 KECCAK256 SWAP1 PUSH1 0x2 MUL ADD PUSH1 0x40 DUP1 MLOAD SWAP1 DUP2 ADD PUSH1 0x40 MSTORE SWAP1 DUP2 PUSH1 0x0 DUP3 ADD DUP1 SLOAD PUSH1 0x1 DUP2 PUSH1 0x1 AND ISZERO PUSH2 0x100 MUL SUB AND PUSH1 0x2 SWAP1 DIV DUP1 PUSH1 0x1F ADD PUSH1 0x20 DUP1 SWAP2 DIV MUL PUSH1 0x20 ADD PUSH1 0x40 MLOAD SWAP1 DUP2 ADD PUSH1 0x40 MSTORE DUP1 SWAP3 SWAP2 SWAP1 DUP2 DUP2 MSTORE PUSH1 0x20 ADD DUP3 DUP1 SLOAD PUSH1 0x1 DUP2 PUSH1 0x1 AND ISZERO PUSH2 0x100 MUL SUB AND PUSH1 0x2 SWAP1 DIV DUP1 ISZERO PUSH2 0x430 JUMPI DUP1 PUSH1 0x1F LT PUSH2 0x405 JUMPI PUSH2 0x100 DUP1 DUP4 SLOAD DIV MUL DUP4 MSTORE SWAP2 PUSH1 0x20 ADD SWAP2 PUSH2 0x430 JUMP JUMPDEST DUP3 ADD SWAP2 SWAP1 PUSH1 0x0 MSTORE PUSH1 0x20 PUSH1 0x0 KECCAK256 SWAP1 JUMPDEST DUP2 SLOAD DUP2 MSTORE SWAP1 PUSH1 0x1 ADD SWAP1 PUSH1 0x20 ADD DUP1 DUP4 GT PUSH2 0x413 JUMPI DUP3 SWAP1 SUB PUSH1 0x1F AND DUP3 ADD SWAP2 JUMPDEST POP POP POP POP POP DUP2 MSTORE PUSH1 0x20 ADD PUSH1 0x1 DUP3 ADD SLOAD DUP2 MSTORE POP POP SWAP2 POP DUP2 PUSH1 0x20 ADD MLOAD PUSH1 0x1 PUSH1 0x0 CALLER PUSH20 0xFFFFFFFFFFFFFFFFFFFFFFFFFFFFFFFFFFFFFFFF AND PUSH20 0xFFFFFFFFFFFFFFFFFFFFFFFFFFFFFFFFFFFFFFFF AND DUP2 MSTORE PUSH1 0x20 ADD SWAP1 DUP2 MSTORE PUSH1 0x20 ADD PUSH1 0x0 KECCAK256 SLOAD LT ISZERO ISZERO ISZERO PUSH2 0x500 JUMPI PUSH1 0x40 MLOAD PUSH32 0x8C379A000000000000000000000000000000000000000000000000000000000 DUP2 MSTORE PUSH1 0x4 ADD DUP1 DUP1 PUSH1 0x20 ADD DUP3 DUP2 SUB DUP3 MSTORE PUSH1 0xD DUP2 MSTORE PUSH1 0x20 ADD DUP1 PUSH32 0x62616C616E6365206572726F7200000000000000000000000000000000000000 DUP2 MSTORE POP PUSH1 0x20 ADD SWAP2 POP POP PUSH1 0x40 MLOAD DUP1 SWAP2 SUB SWAP1 REVERT JUMPDEST DUP2 PUSH1 0x20 ADD MLOAD PUSH1 0x1 PUSH1 0x0 CALLER PUSH20 0xFFFFFFFFFFFFFFFFFFFFFFFFFFFFFFFFFFFFFFFF AND PUSH20 0xFFFFFFFFFFFFFFFFFFFFFFFFFFFFFFFFFFFFFFFF AND DUP2 MSTORE PUSH1 0x20 ADD SWAP1 DUP2 MSTORE PUSH1 0x20 ADD PUSH1 0x0 KECCAK256 PUSH1 0x0 DUP3 DUP3 SLOAD SUB SWAP3 POP POP DUP2 SWAP1 SSTORE POP CALLER PUSH20 0xFFFFFFFFFFFFFFFFFFFFFFFFFFFFFFFFFFFFFFFF AND DUP3 PUSH1 0x20 ADD MLOAD PUSH1 0x40 MLOAD PUSH1 0x0 PUSH1 0x40 MLOAD DUP1 DUP4 SUB DUP2 DUP6 DUP8 GAS CALL SWAP3 POP POP POP SWAP1 POP DUP1 ISZERO ISZERO PUSH2 0x5F8 JUMPI PUSH1 0x40 MLOAD PUSH32 0x8C379A000000000000000000000000000000000000000000000000000000000 DUP2 MSTORE PUSH1 0x4 ADD DUP1 DUP1 PUSH1 0x20 ADD DUP3 DUP2 SUB DUP3 MSTORE PUSH1 0xE DUP2 MSTORE PUSH1 0x20 ADD DUP1 PUSH32 0x7472616E73666572206572726F72000000000000000000000000000000000000 DUP2 MSTORE POP PUSH1 0x20 ADD SWAP2 POP POP PUSH1 0x40 MLOAD DUP1 SWAP2 SUB SWAP1 REVERT JUMPDEST PUSH1 0x2 PUSH1 0x0 CALLER PUSH20 0xFFFFFFFFFFFFFFFFFFFFFFFFFFFFFFFFFFFFFFFF AND PUSH20 0xFFFFFFFFFFFFFFFFFFFFFFFFFFFFFFFFFFFFFFFF AND DUP2 MSTORE PUSH1 0x20 ADD SWAP1 DUP2 MSTORE PUSH1 0x20 ADD PUSH1 0x0 KECCAK256 DUP1 SLOAD DUP1 SWAP2 SWAP1 PUSH1 0x1 SWAP1 SUB PUSH2 0x64A SWAP2 SWAP1 PUSH2 0x8FC JUMP JUMPDEST POP POP POP POP JUMP JUMPDEST PUSH2 0x658 PUSH2 0x8E2 JUMP JUMPDEST DUP2 DUP2 PUSH1 0x0 ADD DUP2 SWAP1 MSTORE POP CALLVALUE DUP2 PUSH1 0x20 ADD DUP2 DUP2 MSTORE POP POP PUSH1 0x2 PUSH1 0x0 CALLER PUSH20 0xFFFFFFFFFFFFFFFFFFFFFFFFFFFFFFFFFFFFFFFF AND PUSH20 0xFFFFFFFFFFFFFFFFFFFFFFFFFFFFFFFFFFFFFFFF AND DUP2 MSTORE PUSH1 0x20 ADD SWAP1 DUP2 MSTORE PUSH1 0x20 ADD PUSH1 0x0 KECCAK256 DUP2 SWAP1 DUP1 PUSH1 0x1 DUP2 SLOAD ADD DUP1 DUP3 SSTORE DUP1 SWAP2 POP POP SWAP1 PUSH1 0x1 DUP3 SUB SWAP1 PUSH1 0x0 MSTORE PUSH1 0x20 PUSH1 0x0 KECCAK256 SWAP1 PUSH1 0x2 MUL ADD PUSH1 0x0 SWAP1 SWAP2 SWAP3 SWAP1 SWAP2 SWAP1 SWAP2 POP PUSH1 0x0 DUP3 ADD MLOAD DUP2 PUSH1 0x0 ADD SWAP1 DUP1 MLOAD SWAP1 PUSH1 0x20 ADD SWAP1 PUSH2 0x6F2 SWAP3 SWAP2 SWAP1 PUSH2 0x92E JUMP JUMPDEST POP PUSH1 0x20 DUP3 ADD MLOAD DUP2 PUSH1 0x1 ADD SSTORE POP POP POP CALLVALUE PUSH1 0x1 PUSH1 0x0 CALLER PUSH20 0xFFFFFFFFFFFFFFFFFFFFFFFFFFFFFFFFFFFFFFFF AND PUSH20 0xFFFFFFFFFFFFFFFFFFFFFFFFFFFFFFFFFFFFFFFF AND DUP2 MSTORE PUSH1 0x20 ADD SWAP1 DUP2 MSTORE PUSH1 0x20 ADD PUSH1 0x0 KECCAK256 PUSH1 0x0 DUP3 DUP3 SLOAD ADD SWAP3 POP POP DUP2 SWAP1 SSTORE POP POP POP JUMP JUMPDEST PUSH1 0x1 PUSH1 0x20 MSTORE DUP1 PUSH1 0x0 MSTORE PUSH1 0x40 PUSH1 0x0 KECCAK256 PUSH1 0x0 SWAP2 POP SWAP1 POP SLOAD DUP2 JUMP JUMPDEST PUSH1 0x0 DUP1 SWAP1 SLOAD SWAP1 PUSH2 0x100 EXP SWAP1 DIV PUSH20 0xFFFFFFFFFFFFFFFFFFFFFFFFFFFFFFFFFFFFFFFF AND DUP2 JUMP JUMPDEST PUSH1 0x2 PUSH1 0x20 MSTORE DUP2 PUSH1 0x0 MSTORE PUSH1 0x40 PUSH1 0x0 KECCAK256 DUP2 DUP2 SLOAD DUP2 LT ISZERO ISZERO PUSH2 0x7A9 JUMPI INVALID JUMPDEST SWAP1 PUSH1 0x0 MSTORE PUSH1 0x20 PUSH1 0x0 KECCAK256 SWAP1 PUSH1 0x2 MUL ADD PUSH1 0x0 SWAP2 POP SWAP2 POP POP DUP1 PUSH1 0x0 ADD DUP1 SLOAD PUSH1 0x1 DUP2 PUSH1 0x1 AND ISZERO PUSH2 0x100 MUL SUB AND PUSH1 0x2 SWAP1 DIV DUP1 PUSH1 0x1F ADD PUSH1 0x20 DUP1 SWAP2 DIV MUL PUSH1 0x20 ADD PUSH1 0x40 MLOAD SWAP1 DUP2 ADD PUSH1 0x40 MSTORE DUP1 SWAP3 SWAP2 SWAP1 DUP2 DUP2 MSTORE PUSH1 0x20 ADD DUP3 DUP1 SLOAD PUSH1 0x1 DUP2 PUSH1 0x1 AND ISZERO PUSH2 0x100 MUL SUB AND PUSH1 0x2 SWAP1 DIV DUP1 ISZERO PUSH2 0x856 JUMPI DUP1 PUSH1 0x1F LT PUSH2 0x82B JUMPI PUSH2 0x100 DUP1 DUP4 SLOAD DIV MUL DUP4 MSTORE SWAP2 PUSH1 0x20 ADD SWAP2 PUSH2 0x856 JUMP JUMPDEST DUP3 ADD SWAP2 SWAP1 PUSH1 0x0 MSTORE PUSH1 0x20 PUSH1 0x0 KECCAK256 SWAP1 JUMPDEST DUP2 SLOAD DUP2 MSTORE SWAP1 PUSH1 0x1 ADD SWAP1 PUSH1 0x20 ADD DUP1 DUP4 GT PUSH2 0x839 JUMPI DUP3 SWAP1 SUB PUSH1 0x1F AND DUP3 ADD SWAP2 JUMPDEST POP POP POP POP POP SWAP1 DUP1 PUSH1 0x1 ADD SLOAD SWAP1 POP DUP3 JUMP JUMPDEST PUSH1 0x0 PUSH1 0x2 PUSH1 0x0 CALLER PUSH20 0xFFFFFFFFFFFFFFFFFFFFFFFFFFFFFFFFFFFFFFFF AND PUSH20 0xFFFFFFFFFFFFFFFFFFFFFFFFFFFFFFFFFFFFFFFF AND DUP2 MSTORE PUSH1 0x20 ADD SWAP1 DUP2 MSTORE PUSH1 0x20 ADD PUSH1 0x0 KECCAK256 DUP4 DUP2 SLOAD DUP2 LT ISZERO ISZERO PUSH2 0x8B4 JUMPI INVALID JUMPDEST SWAP1 PUSH1 0x0 MSTORE PUSH1 0x20 PUSH1 0x0 KECCAK256 SWAP1 PUSH1 0x2 MUL ADD SWAP1 POP DUP2 DUP2 PUSH1 0x0 ADD SWAP1 DUP1 MLOAD SWAP1 PUSH1 0x20 ADD SWAP1 PUSH2 0x8DC SWAP3 SWAP2 SWAP1 PUSH2 0x9AE JUMP JUMPDEST POP POP POP POP JUMP JUMPDEST PUSH1 0x40 DUP1 MLOAD SWAP1 DUP2 ADD PUSH1 0x40 MSTORE DUP1 PUSH1 0x60 DUP2 MSTORE PUSH1 0x20 ADD PUSH1 0x0 DUP2 MSTORE POP SWAP1 JUMP JUMPDEST DUP2 SLOAD DUP2 DUP4 SSTORE DUP2 DUP2 GT ISZERO PUSH2 0x929 JUMPI PUSH1 0x2 MUL DUP2 PUSH1 0x2 MUL DUP4 PUSH1 0x0 MSTORE PUSH1 0x20 PUSH1 0x0 KECCAK256 SWAP2 DUP3 ADD SWAP2 ADD PUSH2 0x928 SWAP2 SWAP1 PUSH2 0xA2E JUMP JUMPDEST JUMPDEST POP POP POP JUMP JUMPDEST DUP3 DUP1 SLOAD PUSH1 0x1 DUP2 PUSH1 0x1 AND ISZERO PUSH2 0x100 MUL SUB AND PUSH1 0x2 SWAP1 DIV SWAP1 PUSH1 0x0 MSTORE PUSH1 0x20 PUSH1 0x0 KECCAK256 SWAP1 PUSH1 0x1F ADD PUSH1 0x20 SWAP1 DIV DUP2 ADD SWAP3 DUP3 PUSH1 0x1F LT PUSH2 0x96F JUMPI DUP1 MLOAD PUSH1 0xFF NOT AND DUP4 DUP1 ADD OR DUP6 SSTORE PUSH2 0x99D JUMP JUMPDEST DUP3 DUP1 ADD PUSH1 0x1 ADD DUP6 SSTORE DUP3 ISZERO PUSH2 0x99D JUMPI SWAP2 DUP3 ADD JUMPDEST DUP3 DUP2 GT ISZERO PUSH2 0x99C JUMPI DUP3 MLOAD DUP3 SSTORE SWAP2 PUSH1 0x20 ADD SWAP2 SWAP1 PUSH1 0x1 ADD SWAP1 PUSH2 0x981 JUMP JUMPDEST JUMPDEST POP SWAP1 POP PUSH2 0x9AA SWAP2 SWAP1 PUSH2 0xA65 JUMP JUMPDEST POP SWAP1 JUMP JUMPDEST DUP3 DUP1 SLOAD PUSH1 0x1 DUP2 PUSH1 0x1 AND ISZERO PUSH2 0x100 MUL SUB AND PUSH1 0x2 SWAP1 DIV SWAP1 PUSH1 0x0 MSTORE PUSH1 0x20 PUSH1 0x0 KECCAK256 SWAP1 PUSH1 0x1F ADD PUSH1 0x20 SWAP1 DIV DUP2 ADD SWAP3 DUP3 PUSH1 0x1F LT PUSH2 0x9EF JUMPI DUP1 MLOAD PUSH1 0xFF NOT AND DUP4 DUP1 ADD OR DUP6 SSTORE PUSH2 0xA1D JUMP JUMPDEST DUP3 DUP1 ADD PUSH1 0x1 ADD DUP6 SSTORE DUP3 ISZERO PUSH2 0xA1D JUMPI SWAP2 DUP3 ADD JUMPDEST DUP3 DUP2 GT ISZERO PUSH2 0xA1C JUMPI DUP3 MLOAD DUP3 SSTORE SWAP2 PUSH1 0x20 ADD SWAP2 SWAP1 PUSH1 0x1 ADD SWAP1 PUSH2 0xA01 JUMP JUMPDEST JUMPDEST POP SWAP1 POP PUSH2 0xA2A SWAP2 SWAP1 PUSH2 0xA65 JUMP JUMPDEST POP SWAP1 JUMP JUMPDEST PUSH2 0xA62 SWAP2 SWAP1 JUMPDEST DUP1 DUP3 GT ISZERO PUSH2 0xA5E JUMPI PUSH1 0x0 DUP1 DUP3 ADD PUSH1 0x0 PUSH2 0xA4D SWAP2 SWAP1 PUSH2 0xA8A JUMP JUMPDEST PUSH1 0x1 DUP3 ADD PUSH1 0x0 SWAP1 SSTORE POP PUSH1 0x2 ADD PUSH2 0xA34 JUMP JUMPDEST POP SWAP1 JUMP JUMPDEST SWAP1 JUMP JUMPDEST PUSH2 0xA87 SWAP2 SWAP1 JUMPDEST DUP1 DUP3 GT ISZERO PUSH2 0xA83 JUMPI PUSH1 0x0 DUP2 PUSH1 0x0 SWAP1 SSTORE POP PUSH1 0x1 ADD PUSH2 0xA6B JUMP JUMPDEST POP SWAP1 JUMP JUMPDEST SWAP1 JUMP JUMPDEST POP DUP1 SLOAD PUSH1 0x1 DUP2 PUSH1 0x1 AND ISZERO PUSH2 0x100 MUL SUB AND PUSH1 0x2 SWAP1 DIV PUSH1 0x0 DUP3 SSTORE DUP1 PUSH1 0x1F LT PUSH2 0xAB0 JUMPI POP PUSH2 0xACF JUMP JUMPDEST PUSH1 0x1F ADD PUSH1 0x20 SWAP1 DIV SWAP1 PUSH1 0x0 MSTORE PUSH1 0x20 PUSH1 0x0 KECCAK256 SWAP1 DUP2 ADD SWAP1 PUSH2 0xACE SWAP2 SWAP1 PUSH2 0xA65 JUMP JUMPDEST JUMPDEST POP JUMP STOP LOG1 PUSH6 0x627A7A723058 KECCAK256 DUP10 MLOAD 0xc7 GASPRICE 0x47 0x21 DUP12 0x2c 0xed DIV PUSH17 0xAE69C83B1E49BEE3B869E99B2707F1AF33 0xd4 PUSH17 0xF0EF002900000000000000000000000000 "
				},
				"gasEstimates": {
					"creation": {
						"codeDepositCost": "177400",
						"executionCost": "infinite",
						"totalCost": "infinite"
					},
					"external": {
						"info()": "442",
						"isCompleted()": "infinite",
						"score()": "416"
					}
				},
				"methodIdentifiers": {
					"info()": "370158ea",
					"isCompleted()": "fa391c64",
					"score()": "efedc669"
				}
			},
			"userdoc": {
				"methods": {}
			}
		}
	}
}