{
	"data": {
		"bytecode": {
			"linkReferences": {},
			"object": "60806040526040516100109061007e565b604051809103906000f08015801561002c573d6000803e3d6000fd5b506000806101000a81548173ffffffffffffffffffffffffffffffffffffffff021916908373ffffffffffffffffffffffffffffffffffffffff16021790555034801561007857600080fd5b5061008b565b61103880610e1c83390190565b610d828061009a6000396000f3fe608060405234801561001057600080fd5b50600436106100625760003560e01c80630512f60b146100675780632e1a7d4d146100975780633884d635146100b35780635296a431146100bd578063b6b55f25146100d9578063fc0c546a146100f5575b600080fd5b610081600480360381019061007c91906107e6565b610113565b60405161008e919061082c565b60405180910390f35b6100b160048036038101906100ac9190610873565b61012b565b005b6100bb61026f565b005b6100d760048036038101906100d29190610905565b61034d565b005b6100f360048036038101906100ee9190610873565b610658565b005b6100fd61075a565b60405161010a91906109c4565b60405180910390f35b60016020528060005260406000206000915090505481565b80600160003373ffffffffffffffffffffffffffffffffffffffff1673ffffffffffffffffffffffffffffffffffffffff16815260200190815260200160002054101561017757600080fd5b60008054906101000a900473ffffffffffffffffffffffffffffffffffffffff1673ffffffffffffffffffffffffffffffffffffffff1663a9059cbb33836040518363ffffffff1660e01b81526004016101d29291906109ee565b6020604051808303816000875af11580156101f1573d6000803e3d6000fd5b505050506040513d601f19601f820116820180604052508101906102159190610a4f565b5080600160003373ffffffffffffffffffffffffffffffffffffffff1673ffffffffffffffffffffffffffffffffffffffff16815260200190815260200160002060008282546102659190610aab565b9250508190555050565b600060149054906101000a900460ff161561028957600080fd5b6001600060146101000a81548160ff02191690831515021790555060008054906101000a900473ffffffffffffffffffffffffffffffffffffffff1673ffffffffffffffffffffffffffffffffffffffff1663a9059cbb3367016345785d8a00006040518363ffffffff1660e01b8152600401610307929190610b1a565b6020604051808303816000875af1158015610326573d6000803e3d6000fd5b505050506040513d601f19601f8201168201806040525081019061034a9190610a4f565b50565b60008060009054906101000a900473ffffffffffffffffffffffffffffffffffffffff1673ffffffffffffffffffffffffffffffffffffffff166370a08231306040518263ffffffff1660e01b81526004016103a99190610b43565b602060405180830381865afa1580156103c6573d6000803e3d6000fd5b505050506040513d601f19601f820116820180604052508101906103ea9190610b73565b90508381101561042f576040517f08c379a000000000000000000000000000000000000000000000000000000000815260040161042690610bfd565b60405180910390fd5b6001600060156101000a81548160ff02191690831515021790555060008054906101000a900473ffffffffffffffffffffffffffffffffffffffff1673ffffffffffffffffffffffffffffffffffffffff1663a9059cbb33866040518363ffffffff1660e01b81526004016104a59291906109ee565b6020604051808303816000875af11580156104c4573d6000803e3d6000fd5b505050506040513d601f19601f820116820180604052508101906104e89190610a4f565b503373ffffffffffffffffffffffffffffffffffffffff168383604051610510929190610c5c565b6000604051808303816000865af19150503d806000811461054d576040519150601f19603f3d011682016040523d82523d6000602084013e610552565b606091505b50505060008060156101000a81548160ff02191690831515021790555060008060009054906101000a900473ffffffffffffffffffffffffffffffffffffffff1673ffffffffffffffffffffffffffffffffffffffff166370a08231306040518263ffffffff1660e01b81526004016105cb9190610b43565b602060405180830381865afa1580156105e8573d6000803e3d6000fd5b505050506040513d601f19601f8201168201806040525081019061060c9190610b73565b905081811015610651576040517f08c379a000000000000000000000000000000000000000000000000000000000815260040161064890610cc1565b60405180910390fd5b5050505050565b60008054906101000a900473ffffffffffffffffffffffffffffffffffffffff1673ffffffffffffffffffffffffffffffffffffffff166323b872dd3330846040518463ffffffff1660e01b81526004016106b593929190610ce1565b6020604051808303816000875af11580156106d4573d6000803e3d6000fd5b505050506040513d601f19601f820116820180604052508101906106f89190610a4f565b61070157600080fd5b80600160003373ffffffffffffffffffffffffffffffffffffffff1673ffffffffffffffffffffffffffffffffffffffff16815260200190815260200160002060008282546107509190610d18565b9250508190555050565b60008054906101000a900473ffffffffffffffffffffffffffffffffffffffff1681565b600080fd5b600080fd5b600073ffffffffffffffffffffffffffffffffffffffff82169050919050565b60006107b382610788565b9050919050565b6107c3816107a8565b81146107ce57600080fd5b50565b6000813590506107e0816107ba565b92915050565b6000602082840312156107fc576107fb61077e565b5b600061080a848285016107d1565b91505092915050565b6000819050919050565b61082681610813565b82525050565b6000602082019050610841600083018461081d565b92915050565b61085081610813565b811461085b57600080fd5b50565b60008135905061086d81610847565b92915050565b6000602082840312156108895761088861077e565b5b60006108978482850161085e565b91505092915050565b600080fd5b600080fd5b600080fd5b60008083601f8401126108c5576108c46108a0565b5b8235905067ffffffffffffffff8111156108e2576108e16108a5565b5b6020830191508360018202830111156108fe576108fd6108aa565b5b9250929050565b60008060006040848603121561091e5761091d61077e565b5b600061092c8682870161085e565b935050602084013567ffffffffffffffff81111561094d5761094c610783565b5b610959868287016108af565b92509250509250925092565b6000819050919050565b600061098a61098561098084610788565b610965565b610788565b9050919050565b600061099c8261096f565b9050919050565b60006109ae82610991565b9050919050565b6109be816109a3565b82525050565b60006020820190506109d960008301846109b5565b92915050565b6109e8816107a8565b82525050565b6000604082019050610a0360008301856109df565b610a10602083018461081d565b9392505050565b60008115159050919050565b610a2c81610a17565b8114610a3757600080fd5b50565b600081519050610a4981610a23565b92915050565b600060208284031215610a6557610a6461077e565b5b6000610a7384828501610a3a565b91505092915050565b7f4e487b7100000000000000000000000000000000000000000000000000000000600052601160045260246000fd5b6000610ab682610813565b9150610ac183610813565b9250828203905081811115610ad957610ad8610a7c565b5b92915050565b6000819050919050565b6000610b04610aff610afa84610adf565b610965565b610813565b9050919050565b610b1481610ae9565b82525050565b6000604082019050610b2f60008301856109df565b610b3c6020830184610b0b565b9392505050565b6000602082019050610b5860008301846109df565b92915050565b600081519050610b6d81610847565b92915050565b600060208284031215610b8957610b8861077e565b5b6000610b9784828501610b5e565b91505092915050565b600082825260208201905092915050565b7f4e6f7420656e6f75676820746f6b656e7320696e20706f6f6c00000000000000600082015250565b6000610be7601983610ba0565b9150610bf282610bb1565b602082019050919050565b60006020820190508181036000830152610c1681610bda565b9050919050565b600081905092915050565b82818337600083830152505050565b6000610c438385610c1d565b9350610c50838584610c28565b82840190509392505050565b6000610c69828486610c37565b91508190509392505050565b7f466c617368206c6f616e206861736e2774206265656e2070616964206261636b600082015250565b6000610cab602083610ba0565b9150610cb682610c75565b602082019050919050565b60006020820190508181036000830152610cda81610c9e565b9050919050565b6000606082019050610cf660008301866109df565b610d0360208301856109df565b610d10604083018461081d565b949350505050565b6000610d2382610813565b9150610d2e83610813565b9250828201905080821115610d4657610d45610a7c565b5b9291505056fea2646970667358221220231d22a5788985b2a11e8ae4cb60555860db7996a39ac5399fc37763f61952cb64736f6c634300081200336080604052683635c9adc5dea0000060025534801561001d57600080fd5b506002546000803373ffffffffffffffffffffffffffffffffffffffff1673ffffffffffffffffffffffffffffffffffffffff16815260200190815260200160002081905550610fc6806100726000396000f3fe608060405234801561001057600080fd5b506004361061009e5760003560e01c8063478b36d811610066578063478b36d81461015d57806370a082311461017957806395d89b41146101a9578063a9059cbb146101c7578063dd62ed3e146101f75761009e565b806306fdde03146100a3578063095ea7b3146100c157806318160ddd146100f157806323b872dd1461010f578063313ce5671461013f575b600080fd5b6100ab610227565b6040516100b89190610b71565b60405180910390f35b6100db60048036038101906100d69190610c31565b610260565b6040516100e89190610c8c565b60405180910390f35b6100f9610352565b6040516101069190610cb6565b60405180910390f35b61012960048036038101906101249190610cd1565b61035c565b6040516101369190610c8c565b60405180910390f35b6101476106c2565b6040516101549190610d40565b60405180910390f35b61017760048036038101906101729190610dc0565b6106c7565b005b610193600480360381019061018e9190610e34565b610805565b6040516101a09190610cb6565b60405180910390f35b6101b161084d565b6040516101be9190610b71565b60405180910390f35b6101e160048036038101906101dc9190610c31565b610886565b6040516101ee9190610c8c565b60405180910390f35b610211600480360381019061020c9190610e61565b610a5a565b60405161021e9190610cb6565b60405180910390f35b6040518060400160405280600581526020017f455243323000000000000000000000000000000000000000000000000000000081525081565b600081600160003373ffffffffffffffffffffffffffffffffffffffff1673ffffffffffffffffffffffffffffffffffffffff16815260200190815260200160002060008573ffffffffffffffffffffffffffffffffffffffff1673ffffffffffffffffffffffffffffffffffffffff168152602001908152602001600020819055508273ffffffffffffffffffffffffffffffffffffffff163373ffffffffffffffffffffffffffffffffffffffff167f8c5be1e5ebec7d5bd14f71427d1e84f3dd0314c0f7b2291e5b200ac8c7c3b925846040516103409190610cb6565b60405180910390a36001905092915050565b6000600254905090565b60008060008573ffffffffffffffffffffffffffffffffffffffff1673ffffffffffffffffffffffffffffffffffffffff168152602001908152602001600020548211156103a957600080fd5b600160008573ffffffffffffffffffffffffffffffffffffffff1673ffffffffffffffffffffffffffffffffffffffff16815260200190815260200160002060003373ffffffffffffffffffffffffffffffffffffffff1673ffffffffffffffffffffffffffffffffffffffff1681526020019081526020016000205482111561043257600080fd5b816000808673ffffffffffffffffffffffffffffffffffffffff1673ffffffffffffffffffffffffffffffffffffffff1681526020019081526020016000205461047c9190610ed0565b6000808673ffffffffffffffffffffffffffffffffffffffff1673ffffffffffffffffffffffffffffffffffffffff1681526020019081526020016000208190555081600160008673ffffffffffffffffffffffffffffffffffffffff1673ffffffffffffffffffffffffffffffffffffffff16815260200190815260200160002060003373ffffffffffffffffffffffffffffffffffffffff1673ffffffffffffffffffffffffffffffffffffffff168152602001908152602001600020546105469190610ed0565b600160008673ffffffffffffffffffffffffffffffffffffffff1673ffffffffffffffffffffffffffffffffffffffff16815260200190815260200160002060003373ffffffffffffffffffffffffffffffffffffffff1673ffffffffffffffffffffffffffffffffffffffff16815260200190815260200160002081905550816000808573ffffffffffffffffffffffffffffffffffffffff1673ffffffffffffffffffffffffffffffffffffffff168152602001908152602001600020546106109190610f04565b6000808573ffffffffffffffffffffffffffffffffffffffff1673ffffffffffffffffffffffffffffffffffffffff168152602001908152602001600020819055508273ffffffffffffffffffffffffffffffffffffffff168473ffffffffffffffffffffffffffffffffffffffff167fddf252ad1be2c89b69c2b068fc378daa952ba7f163c4a11628f55a4df523b3ef846040516106af9190610cb6565b60405180910390a3600190509392505050565b601281565b82600160003373ffffffffffffffffffffffffffffffffffffffff1673ffffffffffffffffffffffffffffffffffffffff16815260200190815260200160002060008673ffffffffffffffffffffffffffffffffffffffff1673ffffffffffffffffffffffffffffffffffffffff168152602001908152602001600020819055506000808573ffffffffffffffffffffffffffffffffffffffff168484604051610772929190610f77565b6000604051808303816000865af19150503d80600081146107af576040519150601f19603f3d011682016040523d82523d6000602084013e6107b4565b606091505b50915091508181906107fc576040517f08c379a00000000000000000000000000000000000000000000000000000000081526004016107f39190610b71565b60405180910390fd5b50505050505050565b60008060008373ffffffffffffffffffffffffffffffffffffffff1673ffffffffffffffffffffffffffffffffffffffff168152602001908152602001600020549050919050565b6040518060400160405280600381526020017f455243000000000000000000000000000000000000000000000000000000000081525081565b60008060003373ffffffffffffffffffffffffffffffffffffffff1673ffffffffffffffffffffffffffffffffffffffff168152602001908152602001600020548211156108d357600080fd5b816000803373ffffffffffffffffffffffffffffffffffffffff1673ffffffffffffffffffffffffffffffffffffffff1681526020019081526020016000205461091d9190610ed0565b6000803373ffffffffffffffffffffffffffffffffffffffff1673ffffffffffffffffffffffffffffffffffffffff16815260200190815260200160002081905550816000808573ffffffffffffffffffffffffffffffffffffffff1673ffffffffffffffffffffffffffffffffffffffff168152602001908152602001600020546109a99190610f04565b6000808573ffffffffffffffffffffffffffffffffffffffff1673ffffffffffffffffffffffffffffffffffffffff168152602001908152602001600020819055508273ffffffffffffffffffffffffffffffffffffffff163373ffffffffffffffffffffffffffffffffffffffff167fddf252ad1be2c89b69c2b068fc378daa952ba7f163c4a11628f55a4df523b3ef84604051610a489190610cb6565b60405180910390a36001905092915050565b6000600160008473ffffffffffffffffffffffffffffffffffffffff1673ffffffffffffffffffffffffffffffffffffffff16815260200190815260200160002060008373ffffffffffffffffffffffffffffffffffffffff1673ffffffffffffffffffffffffffffffffffffffff16815260200190815260200160002054905092915050565b600081519050919050565b600082825260208201905092915050565b60005b83811015610b1b578082015181840152602081019050610b00565b60008484015250505050565b6000601f19601f8301169050919050565b6000610b4382610ae1565b610b4d8185610aec565b9350610b5d818560208601610afd565b610b6681610b27565b840191505092915050565b60006020820190508181036000830152610b8b8184610b38565b905092915050565b600080fd5b600080fd5b600073ffffffffffffffffffffffffffffffffffffffff82169050919050565b6000610bc882610b9d565b9050919050565b610bd881610bbd565b8114610be357600080fd5b50565b600081359050610bf581610bcf565b92915050565b6000819050919050565b610c0e81610bfb565b8114610c1957600080fd5b50565b600081359050610c2b81610c05565b92915050565b60008060408385031215610c4857610c47610b93565b5b6000610c5685828601610be6565b9250506020610c6785828601610c1c565b9150509250929050565b60008115159050919050565b610c8681610c71565b82525050565b6000602082019050610ca16000830184610c7d565b92915050565b610cb081610bfb565b82525050565b6000602082019050610ccb6000830184610ca7565b92915050565b600080600060608486031215610cea57610ce9610b93565b5b6000610cf886828701610be6565b9350506020610d0986828701610be6565b9250506040610d1a86828701610c1c565b9150509250925092565b600060ff82169050919050565b610d3a81610d24565b82525050565b6000602082019050610d556000830184610d31565b92915050565b600080fd5b600080fd5b600080fd5b60008083601f840112610d8057610d7f610d5b565b5b8235905067ffffffffffffffff811115610d9d57610d9c610d60565b5b602083019150836001820283011115610db957610db8610d65565b5b9250929050565b60008060008060608587031215610dda57610dd9610b93565b5b6000610de887828801610be6565b9450506020610df987828801610c1c565b935050604085013567ffffffffffffffff811115610e1a57610e19610b98565b5b610e2687828801610d6a565b925092505092959194509250565b600060208284031215610e4a57610e49610b93565b5b6000610e5884828501610be6565b91505092915050565b60008060408385031215610e7857610e77610b93565b5b6000610e8685828601610be6565b9250506020610e9785828601610be6565b9150509250929050565b7f4e487b7100000000000000000000000000000000000000000000000000000000600052601160045260246000fd5b6000610edb82610bfb565b9150610ee683610bfb565b9250828203905081811115610efe57610efd610ea1565b5b92915050565b6000610f0f82610bfb565b9150610f1a83610bfb565b9250828201905080821115610f3257610f31610ea1565b5b92915050565b600081905092915050565b82818337600083830152505050565b6000610f5e8385610f38565b9350610f6b838584610f43565b82840190509392505050565b6000610f84828486610f52565b9150819050939250505056fea26469706673582212203be25201ac49a9f320c5e99128602283ba8769d132a02fe7a0739559e2d9714664736f6c63430008120033",
			"opcodes": "PUSH1 0x80 PUSH1 0x40 MSTORE PUSH1 0x40 MLOAD PUSH2 0x10 SWAP1 PUSH2 0x7E JUMP JUMPDEST PUSH1 0x40 MLOAD DUP1 SWAP2 SUB SWAP1 PUSH1 0x0 CREATE DUP1 ISZERO DUP1 ISZERO PUSH2 0x2C JUMPI RETURNDATASIZE PUSH1 0x0 DUP1 RETURNDATACOPY RETURNDATASIZE PUSH1 0x0 REVERT JUMPDEST POP PUSH1 0x0 DUP1 PUSH2 0x100 EXP DUP2 SLOAD DUP2 PUSH20 0xFFFFFFFFFFFFFFFFFFFFFFFFFFFFFFFFFFFFFFFF MUL NOT AND SWAP1 DUP4 PUSH20 0xFFFFFFFFFFFFFFFFFFFFFFFFFFFFFFFFFFFFFFFF AND MUL OR SWAP1 SSTORE POP CALLVALUE DUP1 ISZERO PUSH2 0x78 JUMPI PUSH1 0x0 DUP1 REVERT JUMPDEST POP PUSH2 0x8B JUMP JUMPDEST PUSH2 0x1038 DUP1 PUSH2 0xE1C DUP4 CODECOPY ADD SWAP1 JUMP JUMPDEST PUSH2 0xD82 DUP1 PUSH2 0x9A PUSH1 0x0 CODECOPY PUSH1 0x0 RETURN INVALID PUSH1 0x80 PUSH1 0x40 MSTORE CALLVALUE DUP1 ISZERO PUSH2 0x10 JUMPI PUSH1 0x0 DUP1 REVERT JUMPDEST POP PUSH1 0x4 CALLDATASIZE LT PUSH2 0x62 JUMPI PUSH1 0x0 CALLDATALOAD PUSH1 0xE0 SHR DUP1 PUSH4 0x512F60B EQ PUSH2 0x67 JUMPI DUP1 PUSH4 0x2E1A7D4D EQ PUSH2 0x97 JUMPI DUP1 PUSH4 0x3884D635 EQ PUSH2 0xB3 JUMPI DUP1 PUSH4 0x5296A431 EQ PUSH2 0xBD JUMPI DUP1 PUSH4 0xB6B55F25 EQ PUSH2 0xD9 JUMPI DUP1 PUSH4 0xFC0C546A EQ PUSH2 0xF5 JUMPI JUMPDEST PUSH1 0x0 DUP1 REVERT JUMPDEST PUSH2 0x81 PUSH1 0x4 DUP1 CALLDATASIZE SUB DUP2 ADD SWAP1 PUSH2 0x7C SWAP2 SWAP1 PUSH2 0x7E6 JUMP JUMPDEST PUSH2 0x113 JUMP JUMPDEST PUSH1 0x40 MLOAD PUSH2 0x8E SWAP2 SWAP1 PUSH2 0x82C JUMP JUMPDEST PUSH1 0x40 MLOAD DUP1 SWAP2 SUB SWAP1 RETURN JUMPDEST PUSH2 0xB1 PUSH1 0x4 DUP1 CALLDATASIZE SUB DUP2 ADD SWAP1 PUSH2 0xAC SWAP2 SWAP1 PUSH2 0x873 JUMP JUMPDEST PUSH2 0x12B JUMP JUMPDEST STOP JUMPDEST PUSH2 0xBB PUSH2 0x26F JUMP JUMPDEST STOP JUMPDEST PUSH2 0xD7 PUSH1 0x4 DUP1 CALLDATASIZE SUB DUP2 ADD SWAP1 PUSH2 0xD2 SWAP2 SWAP1 PUSH2 0x905 JUMP JUMPDEST PUSH2 0x34D JUMP JUMPDEST STOP JUMPDEST PUSH2 0xF3 PUSH1 0x4 DUP1 CALLDATASIZE SUB DUP2 ADD SWAP1 PUSH2 0xEE SWAP2 SWAP1 PUSH2 0x873 JUMP JUMPDEST PUSH2 0x658 JUMP JUMPDEST STOP JUMPDEST PUSH2 0xFD PUSH2 0x75A JUMP JUMPDEST PUSH1 0x40 MLOAD PUSH2 0x10A SWAP2 SWAP1 PUSH2 0x9C4 JUMP JUMPDEST PUSH1 0x40 MLOAD DUP1 SWAP2 SUB SWAP1 RETURN JUMPDEST PUSH1 0x1 PUSH1 0x20 MSTORE DUP1 PUSH1 0x0 MSTORE PUSH1 0x40 PUSH1 0x0 KECCAK256 PUSH1 0x0 SWAP2 POP SWAP1 POP SLOAD DUP2 JUMP JUMPDEST DUP1 PUSH1 0x1 PUSH1 0x0 CALLER PUSH20 0xFFFFFFFFFFFFFFFFFFFFFFFFFFFFFFFFFFFFFFFF AND PUSH20 0xFFFFFFFFFFFFFFFFFFFFFFFFFFFFFFFFFFFFFFFF AND DUP2 MSTORE PUSH1 0x20 ADD SWAP1 DUP2 MSTORE PUSH1 0x20 ADD PUSH1 0x0 KECCAK256 SLOAD LT ISZERO PUSH2 0x177 JUMPI PUSH1 0x0 DUP1 REVERT JUMPDEST PUSH1 0x0 DUP1 SLOAD SWAP1 PUSH2 0x100 EXP SWAP1 DIV PUSH20 0xFFFFFFFFFFFFFFFFFFFFFFFFFFFFFFFFFFFFFFFF AND PUSH20 0xFFFFFFFFFFFFFFFFFFFFFFFFFFFFFFFFFFFFFFFF AND PUSH4 0xA9059CBB CALLER DUP4 PUSH1 0x40 MLOAD DUP4 PUSH4 0xFFFFFFFF AND PUSH1 0xE0 SHL DUP2 MSTORE PUSH1 0x4 ADD PUSH2 0x1D2 SWAP3 SWAP2 SWAP1 PUSH2 0x9EE JUMP JUMPDEST PUSH1 0x20 PUSH1 0x40 MLOAD DUP1 DUP4 SUB DUP2 PUSH1 0x0 DUP8 GAS CALL ISZERO DUP1 ISZERO PUSH2 0x1F1 JUMPI RETURNDATASIZE PUSH1 0x0 DUP1 RETURNDATACOPY RETURNDATASIZE PUSH1 0x0 REVERT JUMPDEST POP POP POP POP PUSH1 0x40 MLOAD RETURNDATASIZE PUSH1 0x1F NOT PUSH1 0x1F DUP3 ADD AND DUP3 ADD DUP1 PUSH1 0x40 MSTORE POP DUP2 ADD SWAP1 PUSH2 0x215 SWAP2 SWAP1 PUSH2 0xA4F JUMP JUMPDEST POP DUP1 PUSH1 0x1 PUSH1 0x0 CALLER PUSH20 0xFFFFFFFFFFFFFFFFFFFFFFFFFFFFFFFFFFFFFFFF AND PUSH20 0xFFFFFFFFFFFFFFFFFFFFFFFFFFFFFFFFFFFFFFFF AND DUP2 MSTORE PUSH1 0x20 ADD SWAP1 DUP2 MSTORE PUSH1 0x20 ADD PUSH1 0x0 KECCAK256 PUSH1 0x0 DUP3 DUP3 SLOAD PUSH2 0x265 SWAP2 SWAP1 PUSH2 0xAAB JUMP JUMPDEST SWAP3 POP POP DUP2 SWAP1 SSTORE POP POP JUMP JUMPDEST PUSH1 0x0 PUSH1 0x14 SWAP1 SLOAD SWAP1 PUSH2 0x100 EXP SWAP1 DIV PUSH1 0xFF AND ISZERO PUSH2 0x289 JUMPI PUSH1 0x0 DUP1 REVERT JUMPDEST PUSH1 0x1 PUSH1 0x0 PUSH1 0x14 PUSH2 0x100 EXP DUP2 SLOAD DUP2 PUSH1 0xFF MUL NOT AND SWAP1 DUP4 ISZERO ISZERO MUL OR SWAP1 SSTORE POP PUSH1 0x0 DUP1 SLOAD SWAP1 PUSH2 0x100 EXP SWAP1 DIV PUSH20 0xFFFFFFFFFFFFFFFFFFFFFFFFFFFFFFFFFFFFFFFF AND PUSH20 0xFFFFFFFFFFFFFFFFFFFFFFFFFFFFFFFFFFFFFFFF AND PUSH4 0xA9059CBB CALLER PUSH8 0x16345785D8A0000 PUSH1 0x40 MLOAD DUP4 PUSH4 0xFFFFFFFF AND PUSH1 0xE0 SHL DUP2 MSTORE PUSH1 0x4 ADD PUSH2 0x307 SWAP3 SWAP2 SWAP1 PUSH2 0xB1A JUMP JUMPDEST PUSH1 0x20 PUSH1 0x40 MLOAD DUP1 DUP4 SUB DUP2 PUSH1 0x0 DUP8 GAS CALL ISZERO DUP1 ISZERO PUSH2 0x326 JUMPI RETURNDATASIZE PUSH1 0x0 DUP1 RETURNDATACOPY RETURNDATASIZE PUSH1 0x0 REVERT JUMPDEST POP POP POP POP PUSH1 0x40 MLOAD RETURNDATASIZE PUSH1 0x1F NOT PUSH1 0x1F DUP3 ADD AND DUP3 ADD DUP1 PUSH1 0x40 MSTORE POP DUP2 ADD SWAP1 PUSH2 0x34A SWAP2 SWAP1 PUSH2 0xA4F JUMP JUMPDEST POP JUMP JUMPDEST PUSH1 0x0 DUP1 PUSH1 0x0 SWAP1 SLOAD SWAP1 PUSH2 0x100 EXP SWAP1 DIV PUSH20 0xFFFFFFFFFFFFFFFFFFFFFFFFFFFFFFFFFFFFFFFF AND PUSH20 0xFFFFFFFFFFFFFFFFFFFFFFFFFFFFFFFFFFFFFFFF AND PUSH4 0x70A08231 ADDRESS PUSH1 0x40 MLOAD DUP3 PUSH4 0xFFFFFFFF AND PUSH1 0xE0 SHL DUP2 MSTORE PUSH1 0x4 ADD PUSH2 0x3A9 SWAP2 SWAP1 PUSH2 0xB43 JUMP JUMPDEST PUSH1 0x20 PUSH1 0x40 MLOAD DUP1 DUP4 SUB DUP2 DUP7 GAS STATICCALL ISZERO DUP1 ISZERO PUSH2 0x3C6 JUMPI RETURNDATASIZE PUSH1 0x0 DUP1 RETURNDATACOPY RETURNDATASIZE PUSH1 0x0 REVERT JUMPDEST POP POP POP POP PUSH1 0x40 MLOAD RETURNDATASIZE PUSH1 0x1F NOT PUSH1 0x1F DUP3 ADD AND DUP3 ADD DUP1 PUSH1 0x40 MSTORE POP DUP2 ADD SWAP1 PUSH2 0x3EA SWAP2 SWAP1 PUSH2 0xB73 JUMP JUMPDEST SWAP1 POP DUP4 DUP2 LT ISZERO PUSH2 0x42F JUMPI PUSH1 0x40 MLOAD PUSH32 0x8C379A000000000000000000000000000000000000000000000000000000000 DUP2 MSTORE PUSH1 0x4 ADD PUSH2 0x426 SWAP1 PUSH2 0xBFD JUMP JUMPDEST PUSH1 0x40 MLOAD DUP1 SWAP2 SUB SWAP1 REVERT JUMPDEST PUSH1 0x1 PUSH1 0x0 PUSH1 0x15 PUSH2 0x100 EXP DUP2 SLOAD DUP2 PUSH1 0xFF MUL NOT AND SWAP1 DUP4 ISZERO ISZERO MUL OR SWAP1 SSTORE POP PUSH1 0x0 DUP1 SLOAD SWAP1 PUSH2 0x100 EXP SWAP1 DIV PUSH20 0xFFFFFFFFFFFFFFFFFFFFFFFFFFFFFFFFFFFFFFFF AND PUSH20 0xFFFFFFFFFFFFFFFFFFFFFFFFFFFFFFFFFFFFFFFF AND PUSH4 0xA9059CBB CALLER DUP7 PUSH1 0x40 MLOAD DUP4 PUSH4 0xFFFFFFFF AND PUSH1 0xE0 SHL DUP2 MSTORE PUSH1 0x4 ADD PUSH2 0x4A5 SWAP3 SWAP2 SWAP1 PUSH2 0x9EE JUMP JUMPDEST PUSH1 0x20 PUSH1 0x40 MLOAD DUP1 DUP4 SUB DUP2 PUSH1 0x0 DUP8 GAS CALL ISZERO DUP1 ISZERO PUSH2 0x4C4 JUMPI RETURNDATASIZE PUSH1 0x0 DUP1 RETURNDATACOPY RETURNDATASIZE PUSH1 0x0 REVERT JUMPDEST POP POP POP POP PUSH1 0x40 MLOAD RETURNDATASIZE PUSH1 0x1F NOT PUSH1 0x1F DUP3 ADD AND DUP3 ADD DUP1 PUSH1 0x40 MSTORE POP DUP2 ADD SWAP1 PUSH2 0x4E8 SWAP2 SWAP1 PUSH2 0xA4F JUMP JUMPDEST POP CALLER PUSH20 0xFFFFFFFFFFFFFFFFFFFFFFFFFFFFFFFFFFFFFFFF AND DUP4 DUP4 PUSH1 0x40 MLOAD PUSH2 0x510 SWAP3 SWAP2 SWAP1 PUSH2 0xC5C JUMP JUMPDEST PUSH1 0x0 PUSH1 0x40 MLOAD DUP1 DUP4 SUB DUP2 PUSH1 0x0 DUP7 GAS CALL SWAP2 POP POP RETURNDATASIZE DUP1 PUSH1 0x0 DUP2 EQ PUSH2 0x54D JUMPI PUSH1 0x40 MLOAD SWAP2 POP PUSH1 0x1F NOT PUSH1 0x3F RETURNDATASIZE ADD AND DUP3 ADD PUSH1 0x40 MSTORE RETURNDATASIZE DUP3 MSTORE RETURNDATASIZE PUSH1 0x0 PUSH1 0x20 DUP5 ADD RETURNDATACOPY PUSH2 0x552 JUMP JUMPDEST PUSH1 0x60 SWAP2 POP JUMPDEST POP POP POP PUSH1 0x0 DUP1 PUSH1 0x15 PUSH2 0x100 EXP DUP2 SLOAD DUP2 PUSH1 0xFF MUL NOT AND SWAP1 DUP4 ISZERO ISZERO MUL OR SWAP1 SSTORE POP PUSH1 0x0 DUP1 PUSH1 0x0 SWAP1 SLOAD SWAP1 PUSH2 0x100 EXP SWAP1 DIV PUSH20 0xFFFFFFFFFFFFFFFFFFFFFFFFFFFFFFFFFFFFFFFF AND PUSH20 0xFFFFFFFFFFFFFFFFFFFFFFFFFFFFFFFFFFFFFFFF AND PUSH4 0x70A08231 ADDRESS PUSH1 0x40 MLOAD DUP3 PUSH4 0xFFFFFFFF AND PUSH1 0xE0 SHL DUP2 MSTORE PUSH1 0x4 ADD PUSH2 0x5CB SWAP2 SWAP1 PUSH2 0xB43 JUMP JUMPDEST PUSH1 0x20 PUSH1 0x40 MLOAD DUP1 DUP4 SUB DUP2 DUP7 GAS STATICCALL ISZERO DUP1 ISZERO PUSH2 0x5E8 JUMPI RETURNDATASIZE PUSH1 0x0 DUP1 RETURNDATACOPY RETURNDATASIZE PUSH1 0x0 REVERT JUMPDEST POP POP POP POP PUSH1 0x40 MLOAD RETURNDATASIZE PUSH1 0x1F NOT PUSH1 0x1F DUP3 ADD AND DUP3 ADD DUP1 PUSH1 0x40 MSTORE POP DUP2 ADD SWAP1 PUSH2 0x60C SWAP2 SWAP1 PUSH2 0xB73 JUMP JUMPDEST SWAP1 POP DUP2 DUP2 LT ISZERO PUSH2 0x651 JUMPI PUSH1 0x40 MLOAD PUSH32 0x8C379A000000000000000000000000000000000000000000000000000000000 DUP2 MSTORE PUSH1 0x4 ADD PUSH2 0x648 SWAP1 PUSH2 0xCC1 JUMP JUMPDEST PUSH1 0x40 MLOAD DUP1 SWAP2 SUB SWAP1 REVERT JUMPDEST POP POP POP POP POP JUMP JUMPDEST PUSH1 0x0 DUP1 SLOAD SWAP1 PUSH2 0x100 EXP SWAP1 DIV PUSH20 0xFFFFFFFFFFFFFFFFFFFFFFFFFFFFFFFFFFFFFFFF AND PUSH20 0xFFFFFFFFFFFFFFFFFFFFFFFFFFFFFFFFFFFFFFFF AND PUSH4 0x23B872DD CALLER ADDRESS DUP5 PUSH1 0x40 MLOAD DUP5 PUSH4 0xFFFFFFFF AND PUSH1 0xE0 SHL DUP2 MSTORE PUSH1 0x4 ADD PUSH2 0x6B5 SWAP4 SWAP3 SWAP2 SWAP1 PUSH2 0xCE1 JUMP JUMPDEST PUSH1 0x20 PUSH1 0x40 MLOAD DUP1 DUP4 SUB DUP2 PUSH1 0x0 DUP8 GAS CALL ISZERO DUP1 ISZERO PUSH2 0x6D4 JUMPI RETURNDATASIZE PUSH1 0x0 DUP1 RETURNDATACOPY RETURNDATASIZE PUSH1 0x0 REVERT JUMPDEST POP POP POP POP PUSH1 0x40 MLOAD RETURNDATASIZE PUSH1 0x1F NOT PUSH1 0x1F DUP3 ADD AND DUP3 ADD DUP1 PUSH1 0x40 MSTORE POP DUP2 ADD SWAP1 PUSH2 0x6F8 SWAP2 SWAP1 PUSH2 0xA4F JUMP JUMPDEST PUSH2 0x701 JUMPI PUSH1 0x0 DUP1 REVERT JUMPDEST DUP1 PUSH1 0x1 PUSH1 0x0 CALLER PUSH20 0xFFFFFFFFFFFFFFFFFFFFFFFFFFFFFFFFFFFFFFFF AND PUSH20 0xFFFFFFFFFFFFFFFFFFFFFFFFFFFFFFFFFFFFFFFF AND DUP2 MSTORE PUSH1 0x20 ADD SWAP1 DUP2 MSTORE PUSH1 0x20 ADD PUSH1 0x0 KECCAK256 PUSH1 0x0 DUP3 DUP3 SLOAD PUSH2 0x750 SWAP2 SWAP1 PUSH2 0xD18 JUMP JUMPDEST SWAP3 POP POP DUP2 SWAP1 SSTORE POP POP JUMP JUMPDEST PUSH1 0x0 DUP1 SLOAD SWAP1 PUSH2 0x100 EXP SWAP1 DIV PUSH20 0xFFFFFFFFFFFFFFFFFFFFFFFFFFFFFFFFFFFFFFFF AND DUP2 JUMP JUMPDEST PUSH1 0x0 DUP1 REVERT JUMPDEST PUSH1 0x0 DUP1 REVERT JUMPDEST PUSH1 0x0 PUSH20 0xFFFFFFFFFFFFFFFFFFFFFFFFFFFFFFFFFFFFFFFF DUP3 AND SWAP1 POP SWAP2 SWAP1 POP JUMP JUMPDEST PUSH1 0x0 PUSH2 0x7B3 DUP3 PUSH2 0x788 JUMP JUMPDEST SWAP1 POP SWAP2 SWAP1 POP JUMP JUMPDEST PUSH2 0x7C3 DUP2 PUSH2 0x7A8 JUMP JUMPDEST DUP2 EQ PUSH2 0x7CE JUMPI PUSH1 0x0 DUP1 REVERT JUMPDEST POP JUMP JUMPDEST PUSH1 0x0 DUP2 CALLDATALOAD SWAP1 POP PUSH2 0x7E0 DUP2 PUSH2 0x7BA JUMP JUMPDEST SWAP3 SWAP2 POP POP JUMP JUMPDEST PUSH1 0x0 PUSH1 0x20 DUP3 DUP5 SUB SLT ISZERO PUSH2 0x7FC JUMPI PUSH2 0x7FB PUSH2 0x77E JUMP JUMPDEST JUMPDEST PUSH1 0x0 PUSH2 0x80A DUP5 DUP3 DUP6 ADD PUSH2 0x7D1 JUMP JUMPDEST SWAP2 POP POP SWAP3 SWAP2 POP POP JUMP JUMPDEST PUSH1 0x0 DUP2 SWAP1 POP SWAP2 SWAP1 POP JUMP JUMPDEST PUSH2 0x826 DUP2 PUSH2 0x813 JUMP JUMPDEST DUP3 MSTORE POP POP JUMP JUMPDEST PUSH1 0x0 PUSH1 0x20 DUP3 ADD SWAP1 POP PUSH2 0x841 PUSH1 0x0 DUP4 ADD DUP5 PUSH2 0x81D JUMP JUMPDEST SWAP3 SWAP2 POP POP JUMP JUMPDEST PUSH2 0x850 DUP2 PUSH2 0x813 JUMP JUMPDEST DUP2 EQ PUSH2 0x85B JUMPI PUSH1 0x0 DUP1 REVERT JUMPDEST POP JUMP JUMPDEST PUSH1 0x0 DUP2 CALLDATALOAD SWAP1 POP PUSH2 0x86D DUP2 PUSH2 0x847 JUMP JUMPDEST SWAP3 SWAP2 POP POP JUMP JUMPDEST PUSH1 0x0 PUSH1 0x20 DUP3 DUP5 SUB SLT ISZERO PUSH2 0x889 JUMPI PUSH2 0x888 PUSH2 0x77E JUMP JUMPDEST JUMPDEST PUSH1 0x0 PUSH2 0x897 DUP5 DUP3 DUP6 ADD PUSH2 0x85E JUMP JUMPDEST SWAP2 POP POP SWAP3 SWAP2 POP POP JUMP JUMPDEST PUSH1 0x0 DUP1 REVERT JUMPDEST PUSH1 0x0 DUP1 REVERT JUMPDEST PUSH1 0x0 DUP1 REVERT JUMPDEST PUSH1 0x0 DUP1 DUP4 PUSH1 0x1F DUP5 ADD SLT PUSH2 0x8C5 JUMPI PUSH2 0x8C4 PUSH2 0x8A0 JUMP JUMPDEST JUMPDEST DUP3 CALLDATALOAD SWAP1 POP PUSH8 0xFFFFFFFFFFFFFFFF DUP2 GT ISZERO PUSH2 0x8E2 JUMPI PUSH2 0x8E1 PUSH2 0x8A5 JUMP JUMPDEST JUMPDEST PUSH1 0x20 DUP4 ADD SWAP2 POP DUP4 PUSH1 0x1 DUP3 MUL DUP4 ADD GT ISZERO PUSH2 0x8FE JUMPI PUSH2 0x8FD PUSH2 0x8AA JUMP JUMPDEST JUMPDEST SWAP3 POP SWAP3 SWAP1 POP JUMP JUMPDEST PUSH1 0x0 DUP1 PUSH1 0x0 PUSH1 0x40 DUP5 DUP7 SUB SLT ISZERO PUSH2 0x91E JUMPI PUSH2 0x91D PUSH2 0x77E JUMP JUMPDEST JUMPDEST PUSH1 0x0 PUSH2 0x92C DUP7 DUP3 DUP8 ADD PUSH2 0x85E JUMP JUMPDEST SWAP4 POP POP PUSH1 0x20 DUP5 ADD CALLDATALOAD PUSH8 0xFFFFFFFFFFFFFFFF DUP2 GT ISZERO PUSH2 0x94D JUMPI PUSH2 0x94C PUSH2 0x783 JUMP JUMPDEST JUMPDEST PUSH2 0x959 DUP7 DUP3 DUP8 ADD PUSH2 0x8AF JUMP JUMPDEST SWAP3 POP SWAP3 POP POP SWAP3 POP SWAP3 POP SWAP3 JUMP JUMPDEST PUSH1 0x0 DUP2 SWAP1 POP SWAP2 SWAP1 POP JUMP JUMPDEST PUSH1 0x0 PUSH2 0x98A PUSH2 0x985 PUSH2 0x980 DUP5 PUSH2 0x788 JUMP JUMPDEST PUSH2 0x965 JUMP JUMPDEST PUSH2 0x788 JUMP JUMPDEST SWAP1 POP SWAP2 SWAP1 POP JUMP JUMPDEST PUSH1 0x0 PUSH2 0x99C DUP3 PUSH2 0x96F JUMP JUMPDEST SWAP1 POP SWAP2 SWAP1 POP JUMP JUMPDEST PUSH1 0x0 PUSH2 0x9AE DUP3 PUSH2 0x991 JUMP JUMPDEST SWAP1 POP SWAP2 SWAP1 POP JUMP JUMPDEST PUSH2 0x9BE DUP2 PUSH2 0x9A3 JUMP JUMPDEST DUP3 MSTORE POP POP JUMP JUMPDEST PUSH1 0x0 PUSH1 0x20 DUP3 ADD SWAP1 POP PUSH2 0x9D9 PUSH1 0x0 DUP4 ADD DUP5 PUSH2 0x9B5 JUMP JUMPDEST SWAP3 SWAP2 POP POP JUMP JUMPDEST PUSH2 0x9E8 DUP2 PUSH2 0x7A8 JUMP JUMPDEST DUP3 MSTORE POP POP JUMP JUMPDEST PUSH1 0x0 PUSH1 0x40 DUP3 ADD SWAP1 POP PUSH2 0xA03 PUSH1 0x0 DUP4 ADD DUP6 PUSH2 0x9DF JUMP JUMPDEST PUSH2 0xA10 PUSH1 0x20 DUP4 ADD DUP5 PUSH2 0x81D JUMP JUMPDEST SWAP4 SWAP3 POP POP POP JUMP JUMPDEST PUSH1 0x0 DUP2 ISZERO ISZERO SWAP1 POP SWAP2 SWAP1 POP JUMP JUMPDEST PUSH2 0xA2C DUP2 PUSH2 0xA17 JUMP JUMPDEST DUP2 EQ PUSH2 0xA37 JUMPI PUSH1 0x0 DUP1 REVERT JUMPDEST POP JUMP JUMPDEST PUSH1 0x0 DUP2 MLOAD SWAP1 POP PUSH2 0xA49 DUP2 PUSH2 0xA23 JUMP JUMPDEST SWAP3 SWAP2 POP POP JUMP JUMPDEST PUSH1 0x0 PUSH1 0x20 DUP3 DUP5 SUB SLT ISZERO PUSH2 0xA65 JUMPI PUSH2 0xA64 PUSH2 0x77E JUMP JUMPDEST JUMPDEST PUSH1 0x0 PUSH2 0xA73 DUP5 DUP3 DUP6 ADD PUSH2 0xA3A JUMP JUMPDEST SWAP2 POP POP SWAP3 SWAP2 POP POP JUMP JUMPDEST PUSH32 0x4E487B7100000000000000000000000000000000000000000000000000000000 PUSH1 0x0 MSTORE PUSH1 0x11 PUSH1 0x4 MSTORE PUSH1 0x24 PUSH1 0x0 REVERT JUMPDEST PUSH1 0x0 PUSH2 0xAB6 DUP3 PUSH2 0x813 JUMP JUMPDEST SWAP2 POP PUSH2 0xAC1 DUP4 PUSH2 0x813 JUMP JUMPDEST SWAP3 POP DUP3 DUP3 SUB SWAP1 POP DUP2 DUP2 GT ISZERO PUSH2 0xAD9 JUMPI PUSH2 0xAD8 PUSH2 0xA7C JUMP JUMPDEST JUMPDEST SWAP3 SWAP2 POP POP JUMP JUMPDEST PUSH1 0x0 DUP2 SWAP1 POP SWAP2 SWAP1 POP JUMP JUMPDEST PUSH1 0x0 PUSH2 0xB04 PUSH2 0xAFF PUSH2 0xAFA DUP5 PUSH2 0xADF JUMP JUMPDEST PUSH2 0x965 JUMP JUMPDEST PUSH2 0x813 JUMP JUMPDEST SWAP1 POP SWAP2 SWAP1 POP JUMP JUMPDEST PUSH2 0xB14 DUP2 PUSH2 0xAE9 JUMP JUMPDEST DUP3 MSTORE POP POP JUMP JUMPDEST PUSH1 0x0 PUSH1 0x40 DUP3 ADD SWAP1 POP PUSH2 0xB2F PUSH1 0x0 DUP4 ADD DUP6 PUSH2 0x9DF JUMP JUMPDEST PUSH2 0xB3C PUSH1 0x20 DUP4 ADD DUP5 PUSH2 0xB0B JUMP JUMPDEST SWAP4 SWAP3 POP POP POP JUMP JUMPDEST PUSH1 0x0 PUSH1 0x20 DUP3 ADD SWAP1 POP PUSH2 0xB58 PUSH1 0x0 DUP4 ADD DUP5 PUSH2 0x9DF JUMP JUMPDEST SWAP3 SWAP2 POP POP JUMP JUMPDEST PUSH1 0x0 DUP2 MLOAD SWAP1 POP PUSH2 0xB6D DUP2 PUSH2 0x847 JUMP JUMPDEST SWAP3 SWAP2 POP POP JUMP JUMPDEST PUSH1 0x0 PUSH1 0x20 DUP3 DUP5 SUB SLT ISZERO PUSH2 0xB89 JUMPI PUSH2 0xB88 PUSH2 0x77E JUMP JUMPDEST JUMPDEST PUSH1 0x0 PUSH2 0xB97 DUP5 DUP3 DUP6 ADD PUSH2 0xB5E JUMP JUMPDEST SWAP2 POP POP SWAP3 SWAP2 POP POP JUMP JUMPDEST PUSH1 0x0 DUP3 DUP3 MSTORE PUSH1 0x20 DUP3 ADD SWAP1 POP SWAP3 SWAP2 POP POP JUMP JUMPDEST PUSH32 0x4E6F7420656E6F75676820746F6B656E7320696E20706F6F6C00000000000000 PUSH1 0x0 DUP3 ADD MSTORE POP JUMP JUMPDEST PUSH1 0x0 PUSH2 0xBE7 PUSH1 0x19 DUP4 PUSH2 0xBA0 JUMP JUMPDEST SWAP2 POP PUSH2 0xBF2 DUP3 PUSH2 0xBB1 JUMP JUMPDEST PUSH1 0x20 DUP3 ADD SWAP1 POP SWAP2 SWAP1 POP JUMP JUMPDEST PUSH1 0x0 PUSH1 0x20 DUP3 ADD SWAP1 POP DUP2 DUP2 SUB PUSH1 0x0 DUP4 ADD MSTORE PUSH2 0xC16 DUP2 PUSH2 0xBDA JUMP JUMPDEST SWAP1 POP SWAP2 SWAP1 POP JUMP JUMPDEST PUSH1 0x0 DUP2 SWAP1 POP SWAP3 SWAP2 POP POP JUMP JUMPDEST DUP3 DUP2 DUP4 CALLDATACOPY PUSH1 0x0 DUP4 DUP4 ADD MSTORE POP POP POP JUMP JUMPDEST PUSH1 0x0 PUSH2 0xC43 DUP4 DUP6 PUSH2 0xC1D JUMP JUMPDEST SWAP4 POP PUSH2 0xC50 DUP4 DUP6 DUP5 PUSH2 0xC28 JUMP JUMPDEST DUP3 DUP5 ADD SWAP1 POP SWAP4 SWAP3 POP POP POP JUMP JUMPDEST PUSH1 0x0 PUSH2 0xC69 DUP3 DUP5 DUP7 PUSH2 0xC37 JUMP JUMPDEST SWAP2 POP DUP2 SWAP1 POP SWAP4 SWAP3 POP POP POP JUMP JUMPDEST PUSH32 0x466C617368206C6F616E206861736E2774206265656E2070616964206261636B PUSH1 0x0 DUP3 ADD MSTORE POP JUMP JUMPDEST PUSH1 0x0 PUSH2 0xCAB PUSH1 0x20 DUP4 PUSH2 0xBA0 JUMP JUMPDEST SWAP2 POP PUSH2 0xCB6 DUP3 PUSH2 0xC75 JUMP JUMPDEST PUSH1 0x20 DUP3 ADD SWAP1 POP SWAP2 SWAP1 POP JUMP JUMPDEST PUSH1 0x0 PUSH1 0x20 DUP3 ADD SWAP1 POP DUP2 DUP2 SUB PUSH1 0x0 DUP4 ADD MSTORE PUSH2 0xCDA DUP2 PUSH2 0xC9E JUMP JUMPDEST SWAP1 POP SWAP2 SWAP1 POP JUMP JUMPDEST PUSH1 0x0 PUSH1 0x60 DUP3 ADD SWAP1 POP PUSH2 0xCF6 PUSH1 0x0 DUP4 ADD DUP7 PUSH2 0x9DF JUMP JUMPDEST PUSH2 0xD03 PUSH1 0x20 DUP4 ADD DUP6 PUSH2 0x9DF JUMP JUMPDEST PUSH2 0xD10 PUSH1 0x40 DUP4 ADD DUP5 PUSH2 0x81D JUMP JUMPDEST SWAP5 SWAP4 POP POP POP POP JUMP JUMPDEST PUSH1 0x0 PUSH2 0xD23 DUP3 PUSH2 0x813 JUMP JUMPDEST SWAP2 POP PUSH2 0xD2E DUP4 PUSH2 0x813 JUMP JUMPDEST SWAP3 POP DUP3 DUP3 ADD SWAP1 POP DUP1 DUP3 GT ISZERO PUSH2 0xD46 JUMPI PUSH2 0xD45 PUSH2 0xA7C JUMP JUMPDEST JUMPDEST SWAP3 SWAP2 POP POP JUMP INVALID LOG2 PUSH5 0x6970667358 0x22 SLT KECCAK256 0x23 SAR 0x22 0xA5 PUSH25 0x8985B2A11E8AE4CB60555860DB7996A39AC5399FC37763F619 MSTORE 0xCB PUSH5 0x736F6C6343 STOP ADDMOD SLT STOP CALLER PUSH1 0x80 PUSH1 0x40 MSTORE PUSH9 0x3635C9ADC5DEA00000 PUSH1 0x2 SSTORE CALLVALUE DUP1 ISZERO PUSH2 0x1D JUMPI PUSH1 0x0 DUP1 REVERT JUMPDEST POP PUSH1 0x2 SLOAD PUSH1 0x0 DUP1 CALLER PUSH20 0xFFFFFFFFFFFFFFFFFFFFFFFFFFFFFFFFFFFFFFFF AND PUSH20 0xFFFFFFFFFFFFFFFFFFFFFFFFFFFFFFFFFFFFFFFF AND DUP2 MSTORE PUSH1 0x20 ADD SWAP1 DUP2 MSTORE PUSH1 0x20 ADD PUSH1 0x0 KECCAK256 DUP2 SWAP1 SSTORE POP PUSH2 0xFC6 DUP1 PUSH2 0x72 PUSH1 0x0 CODECOPY PUSH1 0x0 RETURN INVALID PUSH1 0x80 PUSH1 0x40 MSTORE CALLVALUE DUP1 ISZERO PUSH2 0x10 JUMPI PUSH1 0x0 DUP1 REVERT JUMPDEST POP PUSH1 0x4 CALLDATASIZE LT PUSH2 0x9E JUMPI PUSH1 0x0 CALLDATALOAD PUSH1 0xE0 SHR DUP1 PUSH4 0x478B36D8 GT PUSH2 0x66 JUMPI DUP1 PUSH4 0x478B36D8 EQ PUSH2 0x15D JUMPI DUP1 PUSH4 0x70A08231 EQ PUSH2 0x179 JUMPI DUP1 PUSH4 0x95D89B41 EQ PUSH2 0x1A9 JUMPI DUP1 PUSH4 0xA9059CBB EQ PUSH2 0x1C7 JUMPI DUP1 PUSH4 0xDD62ED3E EQ PUSH2 0x1F7 JUMPI PUSH2 0x9E JUMP JUMPDEST DUP1 PUSH4 0x6FDDE03 EQ PUSH2 0xA3 JUMPI DUP1 PUSH4 0x95EA7B3 EQ PUSH2 0xC1 JUMPI DUP1 PUSH4 0x18160DDD EQ PUSH2 0xF1 JUMPI DUP1 PUSH4 0x23B872DD EQ PUSH2 0x10F JUMPI DUP1 PUSH4 0x313CE567 EQ PUSH2 0x13F JUMPI JUMPDEST PUSH1 0x0 DUP1 REVERT JUMPDEST PUSH2 0xAB PUSH2 0x227 JUMP JUMPDEST PUSH1 0x40 MLOAD PUSH2 0xB8 SWAP2 SWAP1 PUSH2 0xB71 JUMP JUMPDEST PUSH1 0x40 MLOAD DUP1 SWAP2 SUB SWAP1 RETURN JUMPDEST PUSH2 0xDB PUSH1 0x4 DUP1 CALLDATASIZE SUB DUP2 ADD SWAP1 PUSH2 0xD6 SWAP2 SWAP1 PUSH2 0xC31 JUMP JUMPDEST PUSH2 0x260 JUMP JUMPDEST PUSH1 0x40 MLOAD PUSH2 0xE8 SWAP2 SWAP1 PUSH2 0xC8C JUMP JUMPDEST PUSH1 0x40 MLOAD DUP1 SWAP2 SUB SWAP1 RETURN JUMPDEST PUSH2 0xF9 PUSH2 0x352 JUMP JUMPDEST PUSH1 0x40 MLOAD PUSH2 0x106 SWAP2 SWAP1 PUSH2 0xCB6 JUMP JUMPDEST PUSH1 0x40 MLOAD DUP1 SWAP2 SUB SWAP1 RETURN JUMPDEST PUSH2 0x129 PUSH1 0x4 DUP1 CALLDATASIZE SUB DUP2 ADD SWAP1 PUSH2 0x124 SWAP2 SWAP1 PUSH2 0xCD1 JUMP JUMPDEST PUSH2 0x35C JUMP JUMPDEST PUSH1 0x40 MLOAD PUSH2 0x136 SWAP2 SWAP1 PUSH2 0xC8C JUMP JUMPDEST PUSH1 0x40 MLOAD DUP1 SWAP2 SUB SWAP1 RETURN JUMPDEST PUSH2 0x147 PUSH2 0x6C2 JUMP JUMPDEST PUSH1 0x40 MLOAD PUSH2 0x154 SWAP2 SWAP1 PUSH2 0xD40 JUMP JUMPDEST PUSH1 0x40 MLOAD DUP1 SWAP2 SUB SWAP1 RETURN JUMPDEST PUSH2 0x177 PUSH1 0x4 DUP1 CALLDATASIZE SUB DUP2 ADD SWAP1 PUSH2 0x172 SWAP2 SWAP1 PUSH2 0xDC0 JUMP JUMPDEST PUSH2 0x6C7 JUMP JUMPDEST STOP JUMPDEST PUSH2 0x193 PUSH1 0x4 DUP1 CALLDATASIZE SUB DUP2 ADD SWAP1 PUSH2 0x18E SWAP2 SWAP1 PUSH2 0xE34 JUMP JUMPDEST PUSH2 0x805 JUMP JUMPDEST PUSH1 0x40 MLOAD PUSH2 0x1A0 SWAP2 SWAP1 PUSH2 0xCB6 JUMP JUMPDEST PUSH1 0x40 MLOAD DUP1 SWAP2 SUB SWAP1 RETURN JUMPDEST PUSH2 0x1B1 PUSH2 0x84D JUMP JUMPDEST PUSH1 0x40 MLOAD PUSH2 0x1BE SWAP2 SWAP1 PUSH2 0xB71 JUMP JUMPDEST PUSH1 0x40 MLOAD DUP1 SWAP2 SUB SWAP1 RETURN JUMPDEST PUSH2 0x1E1 PUSH1 0x4 DUP1 CALLDATASIZE SUB DUP2 ADD SWAP1 PUSH2 0x1DC SWAP2 SWAP1 PUSH2 0xC31 JUMP JUMPDEST PUSH2 0x886 JUMP JUMPDEST PUSH1 0x40 MLOAD PUSH2 0x1EE SWAP2 SWAP1 PUSH2 0xC8C JUMP JUMPDEST PUSH1 0x40 MLOAD DUP1 SWAP2 SUB SWAP1 RETURN JUMPDEST PUSH2 0x211 PUSH1 0x4 DUP1 CALLDATASIZE SUB DUP2 ADD SWAP1 PUSH2 0x20C SWAP2 SWAP1 PUSH2 0xE61 JUMP JUMPDEST PUSH2 0xA5A JUMP JUMPDEST PUSH1 0x40 MLOAD PUSH2 0x21E SWAP2 SWAP1 PUSH2 0xCB6 JUMP JUMPDEST PUSH1 0x40 MLOAD DUP1 SWAP2 SUB SWAP1 RETURN JUMPDEST PUSH1 0x40 MLOAD DUP1 PUSH1 0x40 ADD PUSH1 0x40 MSTORE DUP1 PUSH1 0x5 DUP2 MSTORE PUSH1 0x20 ADD PUSH32 0x4552433230000000000000000000000000000000000000000000000000000000 DUP2 MSTORE POP DUP2 JUMP JUMPDEST PUSH1 0x0 DUP2 PUSH1 0x1 PUSH1 0x0 CALLER PUSH20 0xFFFFFFFFFFFFFFFFFFFFFFFFFFFFFFFFFFFFFFFF AND PUSH20 0xFFFFFFFFFFFFFFFFFFFFFFFFFFFFFFFFFFFFFFFF AND DUP2 MSTORE PUSH1 0x20 ADD SWAP1 DUP2 MSTORE PUSH1 0x20 ADD PUSH1 0x0 KECCAK256 PUSH1 0x0 DUP6 PUSH20 0xFFFFFFFFFFFFFFFFFFFFFFFFFFFFFFFFFFFFFFFF AND PUSH20 0xFFFFFFFFFFFFFFFFFFFFFFFFFFFFFFFFFFFFFFFF AND DUP2 MSTORE PUSH1 0x20 ADD SWAP1 DUP2 MSTORE PUSH1 0x20 ADD PUSH1 0x0 KECCAK256 DUP2 SWAP1 SSTORE POP DUP3 PUSH20 0xFFFFFFFFFFFFFFFFFFFFFFFFFFFFFFFFFFFFFFFF AND CALLER PUSH20 0xFFFFFFFFFFFFFFFFFFFFFFFFFFFFFFFFFFFFFFFF AND PUSH32 0x8C5BE1E5EBEC7D5BD14F71427D1E84F3DD0314C0F7B2291E5B200AC8C7C3B925 DUP5 PUSH1 0x40 MLOAD PUSH2 0x340 SWAP2 SWAP1 PUSH2 0xCB6 JUMP JUMPDEST PUSH1 0x40 MLOAD DUP1 SWAP2 SUB SWAP1 LOG3 PUSH1 0x1 SWAP1 POP SWAP3 SWAP2 POP POP JUMP JUMPDEST PUSH1 0x0 PUSH1 0x2 SLOAD SWAP1 POP SWAP1 JUMP JUMPDEST PUSH1 0x0 DUP1 PUSH1 0x0 DUP6 PUSH20 0xFFFFFFFFFFFFFFFFFFFFFFFFFFFFFFFFFFFFFFFF AND PUSH20 0xFFFFFFFFFFFFFFFFFFFFFFFFFFFFFFFFFFFFFFFF AND DUP2 MSTORE PUSH1 0x20 ADD SWAP1 DUP2 MSTORE PUSH1 0x20 ADD PUSH1 0x0 KECCAK256 SLOAD DUP3 GT ISZERO PUSH2 0x3A9 JUMPI PUSH1 0x0 DUP1 REVERT JUMPDEST PUSH1 0x1 PUSH1 0x0 DUP6 PUSH20 0xFFFFFFFFFFFFFFFFFFFFFFFFFFFFFFFFFFFFFFFF AND PUSH20 0xFFFFFFFFFFFFFFFFFFFFFFFFFFFFFFFFFFFFFFFF AND DUP2 MSTORE PUSH1 0x20 ADD SWAP1 DUP2 MSTORE PUSH1 0x20 ADD PUSH1 0x0 KECCAK256 PUSH1 0x0 CALLER PUSH20 0xFFFFFFFFFFFFFFFFFFFFFFFFFFFFFFFFFFFFFFFF AND PUSH20 0xFFFFFFFFFFFFFFFFFFFFFFFFFFFFFFFFFFFFFFFF AND DUP2 MSTORE PUSH1 0x20 ADD SWAP1 DUP2 MSTORE PUSH1 0x20 ADD PUSH1 0x0 KECCAK256 SLOAD DUP3 GT ISZERO PUSH2 0x432 JUMPI PUSH1 0x0 DUP1 REVERT JUMPDEST DUP2 PUSH1 0x0 DUP1 DUP7 PUSH20 0xFFFFFFFFFFFFFFFFFFFFFFFFFFFFFFFFFFFFFFFF AND PUSH20 0xFFFFFFFFFFFFFFFFFFFFFFFFFFFFFFFFFFFFFFFF AND DUP2 MSTORE PUSH1 0x20 ADD SWAP1 DUP2 MSTORE PUSH1 0x20 ADD PUSH1 0x0 KECCAK256 SLOAD PUSH2 0x47C SWAP2 SWAP1 PUSH2 0xED0 JUMP JUMPDEST PUSH1 0x0 DUP1 DUP7 PUSH20 0xFFFFFFFFFFFFFFFFFFFFFFFFFFFFFFFFFFFFFFFF AND PUSH20 0xFFFFFFFFFFFFFFFFFFFFFFFFFFFFFFFFFFFFFFFF AND DUP2 MSTORE PUSH1 0x20 ADD SWAP1 DUP2 MSTORE PUSH1 0x20 ADD PUSH1 0x0 KECCAK256 DUP2 SWAP1 SSTORE POP DUP2 PUSH1 0x1 PUSH1 0x0 DUP7 PUSH20 0xFFFFFFFFFFFFFFFFFFFFFFFFFFFFFFFFFFFFFFFF AND PUSH20 0xFFFFFFFFFFFFFFFFFFFFFFFFFFFFFFFFFFFFFFFF AND DUP2 MSTORE PUSH1 0x20 ADD SWAP1 DUP2 MSTORE PUSH1 0x20 ADD PUSH1 0x0 KECCAK256 PUSH1 0x0 CALLER PUSH20 0xFFFFFFFFFFFFFFFFFFFFFFFFFFFFFFFFFFFFFFFF AND PUSH20 0xFFFFFFFFFFFFFFFFFFFFFFFFFFFFFFFFFFFFFFFF AND DUP2 MSTORE PUSH1 0x20 ADD SWAP1 DUP2 MSTORE PUSH1 0x20 ADD PUSH1 0x0 KECCAK256 SLOAD PUSH2 0x546 SWAP2 SWAP1 PUSH2 0xED0 JUMP JUMPDEST PUSH1 0x1 PUSH1 0x0 DUP7 PUSH20 0xFFFFFFFFFFFFFFFFFFFFFFFFFFFFFFFFFFFFFFFF AND PUSH20 0xFFFFFFFFFFFFFFFFFFFFFFFFFFFFFFFFFFFFFFFF AND DUP2 MSTORE PUSH1 0x20 ADD SWAP1 DUP2 MSTORE PUSH1 0x20 ADD PUSH1 0x0 KECCAK256 PUSH1 0x0 CALLER PUSH20 0xFFFFFFFFFFFFFFFFFFFFFFFFFFFFFFFFFFFFFFFF AND PUSH20 0xFFFFFFFFFFFFFFFFFFFFFFFFFFFFFFFFFFFFFFFF AND DUP2 MSTORE PUSH1 0x20 ADD SWAP1 DUP2 MSTORE PUSH1 0x20 ADD PUSH1 0x0 KECCAK256 DUP2 SWAP1 SSTORE POP DUP2 PUSH1 0x0 DUP1 DUP6 PUSH20 0xFFFFFFFFFFFFFFFFFFFFFFFFFFFFFFFFFFFFFFFF AND PUSH20 0xFFFFFFFFFFFFFFFFFFFFFFFFFFFFFFFFFFFFFFFF AND DUP2 MSTORE PUSH1 0x20 ADD SWAP1 DUP2 MSTORE PUSH1 0x20 ADD PUSH1 0x0 KECCAK256 SLOAD PUSH2 0x610 SWAP2 SWAP1 PUSH2 0xF04 JUMP JUMPDEST PUSH1 0x0 DUP1 DUP6 PUSH20 0xFFFFFFFFFFFFFFFFFFFFFFFFFFFFFFFFFFFFFFFF AND PUSH20 0xFFFFFFFFFFFFFFFFFFFFFFFFFFFFFFFFFFFFFFFF AND DUP2 MSTORE PUSH1 0x20 ADD SWAP1 DUP2 MSTORE PUSH1 0x20 ADD PUSH1 0x0 KECCAK256 DUP2 SWAP1 SSTORE POP DUP3 PUSH20 0xFFFFFFFFFFFFFFFFFFFFFFFFFFFFFFFFFFFFFFFF AND DUP5 PUSH20 0xFFFFFFFFFFFFFFFFFFFFFFFFFFFFFFFFFFFFFFFF AND PUSH32 0xDDF252AD1BE2C89B69C2B068FC378DAA952BA7F163C4A11628F55A4DF523B3EF DUP5 PUSH1 0x40 MLOAD PUSH2 0x6AF SWAP2 SWAP1 PUSH2 0xCB6 JUMP JUMPDEST PUSH1 0x40 MLOAD DUP1 SWAP2 SUB SWAP1 LOG3 PUSH1 0x1 SWAP1 POP SWAP4 SWAP3 POP POP POP JUMP JUMPDEST PUSH1 0x12 DUP2 JUMP JUMPDEST DUP3 PUSH1 0x1 PUSH1 0x0 CALLER PUSH20 0xFFFFFFFFFFFFFFFFFFFFFFFFFFFFFFFFFFFFFFFF AND PUSH20 0xFFFFFFFFFFFFFFFFFFFFFFFFFFFFFFFFFFFFFFFF AND DUP2 MSTORE PUSH1 0x20 ADD SWAP1 DUP2 MSTORE PUSH1 0x20 ADD PUSH1 0x0 KECCAK256 PUSH1 0x0 DUP7 PUSH20 0xFFFFFFFFFFFFFFFFFFFFFFFFFFFFFFFFFFFFFFFF AND PUSH20 0xFFFFFFFFFFFFFFFFFFFFFFFFFFFFFFFFFFFFFFFF AND DUP2 MSTORE PUSH1 0x20 ADD SWAP1 DUP2 MSTORE PUSH1 0x20 ADD PUSH1 0x0 KECCAK256 DUP2 SWAP1 SSTORE POP PUSH1 0x0 DUP1 DUP6 PUSH20 0xFFFFFFFFFFFFFFFFFFFFFFFFFFFFFFFFFFFFFFFF AND DUP5 DUP5 PUSH1 0x40 MLOAD PUSH2 0x772 SWAP3 SWAP2 SWAP1 PUSH2 0xF77 JUMP JUMPDEST PUSH1 0x0 PUSH1 0x40 MLOAD DUP1 DUP4 SUB DUP2 PUSH1 0x0 DUP7 GAS CALL SWAP2 POP POP RETURNDATASIZE DUP1 PUSH1 0x0 DUP2 EQ PUSH2 0x7AF JUMPI PUSH1 0x40 MLOAD SWAP2 POP PUSH1 0x1F NOT PUSH1 0x3F RETURNDATASIZE ADD AND DUP3 ADD PUSH1 0x40 MSTORE RETURNDATASIZE DUP3 MSTORE RETURNDATASIZE PUSH1 0x0 PUSH1 0x20 DUP5 ADD RETURNDATACOPY PUSH2 0x7B4 JUMP JUMPDEST PUSH1 0x60 SWAP2 POP JUMPDEST POP SWAP2 POP SWAP2 POP DUP2 DUP2 SWAP1 PUSH2 0x7FC JUMPI PUSH1 0x40 MLOAD PUSH32 0x8C379A000000000000000000000000000000000000000000000000000000000 DUP2 MSTORE PUSH1 0x4 ADD PUSH2 0x7F3 SWAP2 SWAP1 PUSH2 0xB71 JUMP JUMPDEST PUSH1 0x40 MLOAD DUP1 SWAP2 SUB SWAP1 REVERT JUMPDEST POP POP POP POP POP POP POP JUMP JUMPDEST PUSH1 0x0 DUP1 PUSH1 0x0 DUP4 PUSH20 0xFFFFFFFFFFFFFFFFFFFFFFFFFFFFFFFFFFFFFFFF AND PUSH20 0xFFFFFFFFFFFFFFFFFFFFFFFFFFFFFFFFFFFFFFFF AND DUP2 MSTORE PUSH1 0x20 ADD SWAP1 DUP2 MSTORE PUSH1 0x20 ADD PUSH1 0x0 KECCAK256 SLOAD SWAP1 POP SWAP2 SWAP1 POP JUMP JUMPDEST PUSH1 0x40 MLOAD DUP1 PUSH1 0x40 ADD PUSH1 0x40 MSTORE DUP1 PUSH1 0x3 DUP2 MSTORE PUSH1 0x20 ADD PUSH32 0x4552430000000000000000000000000000000000000000000000000000000000 DUP2 MSTORE POP DUP2 JUMP JUMPDEST PUSH1 0x0 DUP1 PUSH1 0x0 CALLER PUSH20 0xFFFFFFFFFFFFFFFFFFFFFFFFFFFFFFFFFFFFFFFF AND PUSH20 0xFFFFFFFFFFFFFFFFFFFFFFFFFFFFFFFFFFFFFFFF AND DUP2 MSTORE PUSH1 0x20 ADD SWAP1 DUP2 MSTORE PUSH1 0x20 ADD PUSH1 0x0 KECCAK256 SLOAD DUP3 GT ISZERO PUSH2 0x8D3 JUMPI PUSH1 0x0 DUP1 REVERT JUMPDEST DUP2 PUSH1 0x0 DUP1 CALLER PUSH20 0xFFFFFFFFFFFFFFFFFFFFFFFFFFFFFFFFFFFFFFFF AND PUSH20 0xFFFFFFFFFFFFFFFFFFFFFFFFFFFFFFFFFFFFFFFF AND DUP2 MSTORE PUSH1 0x20 ADD SWAP1 DUP2 MSTORE PUSH1 0x20 ADD PUSH1 0x0 KECCAK256 SLOAD PUSH2 0x91D SWAP2 SWAP1 PUSH2 0xED0 JUMP JUMPDEST PUSH1 0x0 DUP1 CALLER PUSH20 0xFFFFFFFFFFFFFFFFFFFFFFFFFFFFFFFFFFFFFFFF AND PUSH20 0xFFFFFFFFFFFFFFFFFFFFFFFFFFFFFFFFFFFFFFFF AND DUP2 MSTORE PUSH1 0x20 ADD SWAP1 DUP2 MSTORE PUSH1 0x20 ADD PUSH1 0x0 KECCAK256 DUP2 SWAP1 SSTORE POP DUP2 PUSH1 0x0 DUP1 DUP6 PUSH20 0xFFFFFFFFFFFFFFFFFFFFFFFFFFFFFFFFFFFFFFFF AND PUSH20 0xFFFFFFFFFFFFFFFFFFFFFFFFFFFFFFFFFFFFFFFF AND DUP2 MSTORE PUSH1 0x20 ADD SWAP1 DUP2 MSTORE PUSH1 0x20 ADD PUSH1 0x0 KECCAK256 SLOAD PUSH2 0x9A9 SWAP2 SWAP1 PUSH2 0xF04 JUMP JUMPDEST PUSH1 0x0 DUP1 DUP6 PUSH20 0xFFFFFFFFFFFFFFFFFFFFFFFFFFFFFFFFFFFFFFFF AND PUSH20 0xFFFFFFFFFFFFFFFFFFFFFFFFFFFFFFFFFFFFFFFF AND DUP2 MSTORE PUSH1 0x20 ADD SWAP1 DUP2 MSTORE PUSH1 0x20 ADD PUSH1 0x0 KECCAK256 DUP2 SWAP1 SSTORE POP DUP3 PUSH20 0xFFFFFFFFFFFFFFFFFFFFFFFFFFFFFFFFFFFFFFFF AND CALLER PUSH20 0xFFFFFFFFFFFFFFFFFFFFFFFFFFFFFFFFFFFFFFFF AND PUSH32 0xDDF252AD1BE2C89B69C2B068FC378DAA952BA7F163C4A11628F55A4DF523B3EF DUP5 PUSH1 0x40 MLOAD PUSH2 0xA48 SWAP2 SWAP1 PUSH2 0xCB6 JUMP JUMPDEST PUSH1 0x40 MLOAD DUP1 SWAP2 SUB SWAP1 LOG3 PUSH1 0x1 SWAP1 POP SWAP3 SWAP2 POP POP JUMP JUMPDEST PUSH1 0x0 PUSH1 0x1 PUSH1 0x0 DUP5 PUSH20 0xFFFFFFFFFFFFFFFFFFFFFFFFFFFFFFFFFFFFFFFF AND PUSH20 0xFFFFFFFFFFFFFFFFFFFFFFFFFFFFFFFFFFFFFFFF AND DUP2 MSTORE PUSH1 0x20 ADD SWAP1 DUP2 MSTORE PUSH1 0x20 ADD PUSH1 0x0 KECCAK256 PUSH1 0x0 DUP4 PUSH20 0xFFFFFFFFFFFFFFFFFFFFFFFFFFFFFFFFFFFFFFFF AND PUSH20 0xFFFFFFFFFFFFFFFFFFFFFFFFFFFFFFFFFFFFFFFF AND DUP2 MSTORE PUSH1 0x20 ADD SWAP1 DUP2 MSTORE PUSH1 0x20 ADD PUSH1 0x0 KECCAK256 SLOAD SWAP1 POP SWAP3 SWAP2 POP POP JUMP JUMPDEST PUSH1 0x0 DUP2 MLOAD SWAP1 POP SWAP2 SWAP1 POP JUMP JUMPDEST PUSH1 0x0 DUP3 DUP3 MSTORE PUSH1 0x20 DUP3 ADD SWAP1 POP SWAP3 SWAP2 POP POP JUMP JUMPDEST PUSH1 0x0 JUMPDEST DUP4 DUP2 LT ISZERO PUSH2 0xB1B JUMPI DUP1 DUP3 ADD MLOAD DUP2 DUP5 ADD MSTORE PUSH1 0x20 DUP2 ADD SWAP1 POP PUSH2 0xB00 JUMP JUMPDEST PUSH1 0x0 DUP5 DUP5 ADD MSTORE POP POP POP POP JUMP JUMPDEST PUSH1 0x0 PUSH1 0x1F NOT PUSH1 0x1F DUP4 ADD AND SWAP1 POP SWAP2 SWAP1 POP JUMP JUMPDEST PUSH1 0x0 PUSH2 0xB43 DUP3 PUSH2 0xAE1 JUMP JUMPDEST PUSH2 0xB4D DUP2 DUP6 PUSH2 0xAEC JUMP JUMPDEST SWAP4 POP PUSH2 0xB5D DUP2 DUP6 PUSH1 0x20 DUP7 ADD PUSH2 0xAFD JUMP JUMPDEST PUSH2 0xB66 DUP2 PUSH2 0xB27 JUMP JUMPDEST DUP5 ADD SWAP2 POP POP SWAP3 SWAP2 POP POP JUMP JUMPDEST PUSH1 0x0 PUSH1 0x20 DUP3 ADD SWAP1 POP DUP2 DUP2 SUB PUSH1 0x0 DUP4 ADD MSTORE PUSH2 0xB8B DUP2 DUP5 PUSH2 0xB38 JUMP JUMPDEST SWAP1 POP SWAP3 SWAP2 POP POP JUMP JUMPDEST PUSH1 0x0 DUP1 REVERT JUMPDEST PUSH1 0x0 DUP1 REVERT JUMPDEST PUSH1 0x0 PUSH20 0xFFFFFFFFFFFFFFFFFFFFFFFFFFFFFFFFFFFFFFFF DUP3 AND SWAP1 POP SWAP2 SWAP1 POP JUMP JUMPDEST PUSH1 0x0 PUSH2 0xBC8 DUP3 PUSH2 0xB9D JUMP JUMPDEST SWAP1 POP SWAP2 SWAP1 POP JUMP JUMPDEST PUSH2 0xBD8 DUP2 PUSH2 0xBBD JUMP JUMPDEST DUP2 EQ PUSH2 0xBE3 JUMPI PUSH1 0x0 DUP1 REVERT JUMPDEST POP JUMP JUMPDEST PUSH1 0x0 DUP2 CALLDATALOAD SWAP1 POP PUSH2 0xBF5 DUP2 PUSH2 0xBCF JUMP JUMPDEST SWAP3 SWAP2 POP POP JUMP JUMPDEST PUSH1 0x0 DUP2 SWAP1 POP SWAP2 SWAP1 POP JUMP JUMPDEST PUSH2 0xC0E DUP2 PUSH2 0xBFB JUMP JUMPDEST DUP2 EQ PUSH2 0xC19 JUMPI PUSH1 0x0 DUP1 REVERT JUMPDEST POP JUMP JUMPDEST PUSH1 0x0 DUP2 CALLDATALOAD SWAP1 POP PUSH2 0xC2B DUP2 PUSH2 0xC05 JUMP JUMPDEST SWAP3 SWAP2 POP POP JUMP JUMPDEST PUSH1 0x0 DUP1 PUSH1 0x40 DUP4 DUP6 SUB SLT ISZERO PUSH2 0xC48 JUMPI PUSH2 0xC47 PUSH2 0xB93 JUMP JUMPDEST JUMPDEST PUSH1 0x0 PUSH2 0xC56 DUP6 DUP3 DUP7 ADD PUSH2 0xBE6 JUMP JUMPDEST SWAP3 POP POP PUSH1 0x20 PUSH2 0xC67 DUP6 DUP3 DUP7 ADD PUSH2 0xC1C JUMP JUMPDEST SWAP2 POP POP SWAP3 POP SWAP3 SWAP1 POP JUMP JUMPDEST PUSH1 0x0 DUP2 ISZERO ISZERO SWAP1 POP SWAP2 SWAP1 POP JUMP JUMPDEST PUSH2 0xC86 DUP2 PUSH2 0xC71 JUMP JUMPDEST DUP3 MSTORE POP POP JUMP JUMPDEST PUSH1 0x0 PUSH1 0x20 DUP3 ADD SWAP1 POP PUSH2 0xCA1 PUSH1 0x0 DUP4 ADD DUP5 PUSH2 0xC7D JUMP JUMPDEST SWAP3 SWAP2 POP POP JUMP JUMPDEST PUSH2 0xCB0 DUP2 PUSH2 0xBFB JUMP JUMPDEST DUP3 MSTORE POP POP JUMP JUMPDEST PUSH1 0x0 PUSH1 0x20 DUP3 ADD SWAP1 POP PUSH2 0xCCB PUSH1 0x0 DUP4 ADD DUP5 PUSH2 0xCA7 JUMP JUMPDEST SWAP3 SWAP2 POP POP JUMP JUMPDEST PUSH1 0x0 DUP1 PUSH1 0x0 PUSH1 0x60 DUP5 DUP7 SUB SLT ISZERO PUSH2 0xCEA JUMPI PUSH2 0xCE9 PUSH2 0xB93 JUMP JUMPDEST JUMPDEST PUSH1 0x0 PUSH2 0xCF8 DUP7 DUP3 DUP8 ADD PUSH2 0xBE6 JUMP JUMPDEST SWAP4 POP POP PUSH1 0x20 PUSH2 0xD09 DUP7 DUP3 DUP8 ADD PUSH2 0xBE6 JUMP JUMPDEST SWAP3 POP POP PUSH1 0x40 PUSH2 0xD1A DUP7 DUP3 DUP8 ADD PUSH2 0xC1C JUMP JUMPDEST SWAP2 POP POP SWAP3 POP SWAP3 POP SWAP3 JUMP JUMPDEST PUSH1 0x0 PUSH1 0xFF DUP3 AND SWAP1 POP SWAP2 SWAP1 POP JUMP JUMPDEST PUSH2 0xD3A DUP2 PUSH2 0xD24 JUMP JUMPDEST DUP3 MSTORE POP POP JUMP JUMPDEST PUSH1 0x0 PUSH1 0x20 DUP3 ADD SWAP1 POP PUSH2 0xD55 PUSH1 0x0 DUP4 ADD DUP5 PUSH2 0xD31 JUMP JUMPDEST SWAP3 SWAP2 POP POP JUMP JUMPDEST PUSH1 0x0 DUP1 REVERT JUMPDEST PUSH1 0x0 DUP1 REVERT JUMPDEST PUSH1 0x0 DUP1 REVERT JUMPDEST PUSH1 0x0 DUP1 DUP4 PUSH1 0x1F DUP5 ADD SLT PUSH2 0xD80 JUMPI PUSH2 0xD7F PUSH2 0xD5B JUMP JUMPDEST JUMPDEST DUP3 CALLDATALOAD SWAP1 POP PUSH8 0xFFFFFFFFFFFFFFFF DUP2 GT ISZERO PUSH2 0xD9D JUMPI PUSH2 0xD9C PUSH2 0xD60 JUMP JUMPDEST JUMPDEST PUSH1 0x20 DUP4 ADD SWAP2 POP DUP4 PUSH1 0x1 DUP3 MUL DUP4 ADD GT ISZERO PUSH2 0xDB9 JUMPI PUSH2 0xDB8 PUSH2 0xD65 JUMP JUMPDEST JUMPDEST SWAP3 POP SWAP3 SWAP1 POP JUMP JUMPDEST PUSH1 0x0 DUP1 PUSH1 0x0 DUP1 PUSH1 0x60 DUP6 DUP8 SUB SLT ISZERO PUSH2 0xDDA JUMPI PUSH2 0xDD9 PUSH2 0xB93 JUMP JUMPDEST JUMPDEST PUSH1 0x0 PUSH2 0xDE8 DUP8 DUP3 DUP9 ADD PUSH2 0xBE6 JUMP JUMPDEST SWAP5 POP POP PUSH1 0x20 PUSH2 0xDF9 DUP8 DUP3 DUP9 ADD PUSH2 0xC1C JUMP JUMPDEST SWAP4 POP POP PUSH1 0x40 DUP6 ADD CALLDATALOAD PUSH8 0xFFFFFFFFFFFFFFFF DUP2 GT ISZERO PUSH2 0xE1A JUMPI PUSH2 0xE19 PUSH2 0xB98 JUMP JUMPDEST JUMPDEST PUSH2 0xE26 DUP8 DUP3 DUP9 ADD PUSH2 0xD6A JUMP JUMPDEST SWAP3 POP SWAP3 POP POP SWAP3 SWAP6 SWAP2 SWAP5 POP SWAP3 POP JUMP JUMPDEST PUSH1 0x0 PUSH1 0x20 DUP3 DUP5 SUB SLT ISZERO PUSH2 0xE4A JUMPI PUSH2 0xE49 PUSH2 0xB93 JUMP JUMPDEST JUMPDEST PUSH1 0x0 PUSH2 0xE58 DUP5 DUP3 DUP6 ADD PUSH2 0xBE6 JUMP JUMPDEST SWAP2 POP POP SWAP3 SWAP2 POP POP JUMP JUMPDEST PUSH1 0x0 DUP1 PUSH1 0x40 DUP4 DUP6 SUB SLT ISZERO PUSH2 0xE78 JUMPI PUSH2 0xE77 PUSH2 0xB93 JUMP JUMPDEST JUMPDEST PUSH1 0x0 PUSH2 0xE86 DUP6 DUP3 DUP7 ADD PUSH2 0xBE6 JUMP JUMPDEST SWAP3 POP POP PUSH1 0x20 PUSH2 0xE97 DUP6 DUP3 DUP7 ADD PUSH2 0xBE6 JUMP JUMPDEST SWAP2 POP POP SWAP3 POP SWAP3 SWAP1 POP JUMP JUMPDEST PUSH32 0x4E487B7100000000000000000000000000000000000000000000000000000000 PUSH1 0x0 MSTORE PUSH1 0x11 PUSH1 0x4 MSTORE PUSH1 0x24 PUSH1 0x0 REVERT JUMPDEST PUSH1 0x0 PUSH2 0xEDB DUP3 PUSH2 0xBFB JUMP JUMPDEST SWAP2 POP PUSH2 0xEE6 DUP4 PUSH2 0xBFB JUMP JUMPDEST SWAP3 POP DUP3 DUP3 SUB SWAP1 POP DUP2 DUP2 GT ISZERO PUSH2 0xEFE JUMPI PUSH2 0xEFD PUSH2 0xEA1 JUMP JUMPDEST JUMPDEST SWAP3 SWAP2 POP POP JUMP JUMPDEST PUSH1 0x0 PUSH2 0xF0F DUP3 PUSH2 0xBFB JUMP JUMPDEST SWAP2 POP PUSH2 0xF1A DUP4 PUSH2 0xBFB JUMP JUMPDEST SWAP3 POP DUP3 DUP3 ADD SWAP1 POP DUP1 DUP3 GT ISZERO PUSH2 0xF32 JUMPI PUSH2 0xF31 PUSH2 0xEA1 JUMP JUMPDEST JUMPDEST SWAP3 SWAP2 POP POP JUMP JUMPDEST PUSH1 0x0 DUP2 SWAP1 POP SWAP3 SWAP2 POP POP JUMP JUMPDEST DUP3 DUP2 DUP4 CALLDATACOPY PUSH1 0x0 DUP4 DUP4 ADD MSTORE POP POP POP JUMP JUMPDEST PUSH1 0x0 PUSH2 0xF5E DUP4 DUP6 PUSH2 0xF38 JUMP JUMPDEST SWAP4 POP PUSH2 0xF6B DUP4 DUP6 DUP5 PUSH2 0xF43 JUMP JUMPDEST DUP3 DUP5 ADD SWAP1 POP SWAP4 SWAP3 POP POP POP JUMP JUMPDEST PUSH1 0x0 PUSH2 0xF84 DUP3 DUP5 DUP7 PUSH2 0xF52 JUMP JUMPDEST SWAP2 POP DUP2 SWAP1 POP SWAP4 SWAP3 POP POP POP JUMP INVALID LOG2 PUSH5 0x6970667358 0x22 SLT KECCAK256 EXTCODESIZE 0xE2 MSTORE ADD 0xAC 0x49 0xA9 RETURN KECCAK256 0xC5 0xE9 SWAP2 0x28 PUSH1 0x22 DUP4 0xBA DUP8 PUSH10 0xD132A02FE7A0739559E2 0xD9 PUSH18 0x4664736F6C63430008120033000000000000 "
		},
		"gasEstimates": {
			"creation": {
				"codeDepositCost": "691600",
				"executionCost": "infinite",
				"totalCost": "infinite"
			},
			"external": {
				"airdrop()": "infinite",
				"bankBal(address)": "2792",
				"deposit(uint256)": "infinite",
				"flashLoan(uint256,bytes)": "infinite",
				"token()": "infinite",
				"withdraw(uint256)": "infinite"
			}
		},
		"methodIdentifiers": {
			"airdrop()": "3884d635",
			"bankBal(address)": "0512f60b",
			"deposit(uint256)": "b6b55f25",
			"flashLoan(uint256,bytes)": "5296a431",
			"token()": "fc0c546a",
			"withdraw(uint256)": "2e1a7d4d"
		}
	},
	"abi": [
		{
			"inputs": [],
			"name": "airdrop",
			"outputs": [],
			"stateMutability": "nonpayable",
			"type": "function"
		},
		{
			"inputs": [
				{
					"internalType": "address",
					"name": "",
					"type": "address"
				}
			],
			"name": "bankBal",
			"outputs": [
				{
					"internalType": "uint256",
					"name": "",
					"type": "uint256"
				}
			],
			"stateMutability": "view",
			"type": "function"
		},
		{
			"inputs": [
				{
					"internalType": "uint256",
					"name": "amount",
					"type": "uint256"
				}
			],
			"name": "deposit",
			"outputs": [],
			"stateMutability": "nonpayable",
			"type": "function"
		},
		{
			"inputs": [
				{
					"internalType": "uint256",
					"name": "borrowAmount",
					"type": "uint256"
				},
				{
					"internalType": "bytes",
					"name": "data",
					"type": "bytes"
				}
			],
			"name": "flashLoan",
			"outputs": [],
			"stateMutability": "nonpayable",
			"type": "function"
		},
		{
			"inputs": [],
			"name": "token",
			"outputs": [
				{
					"internalType": "contract ERC20",
					"name": "",
					"type": "address"
				}
			],
			"stateMutability": "view",
			"type": "function"
		},
		{
			"inputs": [
				{
					"internalType": "uint256",
					"name": "amount",
					"type": "uint256"
				}
			],
			"name": "withdraw",
			"outputs": [],
			"stateMutability": "nonpayable",
			"type": "function"
		}
	]
}