{
	"shoot/1/外部合约引用/2.sol": {
		"tokenbank": {
			"abi": [
				{
					"inputs": [
						{
							"internalType": "address",
							"name": "_owner",
							"type": "address"
						}
					],
					"stateMutability": "nonpayable",
					"type": "constructor"
				},
				{
					"inputs": [
						{
							"internalType": "address",
							"name": "_addr",
							"type": "address"
						}
					],
					"name": "balanceOf",
					"outputs": [
						{
							"internalType": "uint256",
							"name": "",
							"type": "uint256"
						}
					],
					"stateMutability": "view",
					"type": "function"
				},
				{
					"inputs": [
						{
							"internalType": "address",
							"name": "_addr",
							"type": "address"
						},
						{
							"internalType": "uint256",
							"name": "amount",
							"type": "uint256"
						}
					],
					"name": "burn",
					"outputs": [],
					"stateMutability": "nonpayable",
					"type": "function"
				},
				{
					"inputs": [],
					"name": "deposit",
					"outputs": [],
					"stateMutability": "payable",
					"type": "function"
				},
				{
					"inputs": [
						{
							"internalType": "address",
							"name": "_addr",
							"type": "address"
						},
						{
							"internalType": "uint256",
							"name": "amount",
							"type": "uint256"
						}
					],
					"name": "mint",
					"outputs": [],
					"stateMutability": "nonpayable",
					"type": "function"
				},
				{
					"inputs": [],
					"name": "owner",
					"outputs": [
						{
							"internalType": "address",
							"name": "",
							"type": "address"
						}
					],
					"stateMutability": "view",
					"type": "function"
				},
				{
					"inputs": [
						{
							"internalType": "address",
							"name": "_addr",
							"type": "address"
						},
						{
							"internalType": "uint256",
							"name": "amount",
							"type": "uint256"
						}
					],
					"name": "transfer",
					"outputs": [],
					"stateMutability": "nonpayable",
					"type": "function"
				},
				{
					"inputs": [
						{
							"internalType": "uint256",
							"name": "amount",
							"type": "uint256"
						}
					],
					"name": "withdraw",
					"outputs": [],
					"stateMutability": "payable",
					"type": "function"
				}
			],
			"devdoc": {
				"kind": "dev",
				"methods": {},
				"version": 1
			},
			"evm": {
				"assembly": "    /* \"shoot/1/\\xe5\\xa4\\x96\\xe9\\x83\\xa8\\xe5\\x90\\x88\\xe7\\xba\\xa6\\xe5\\xbc\\x95\\xe7\\x94\\xa8/2.sol\":135:1319  contract tokenbank{... */\n  mstore(0x40, 0x80)\n    /* \"shoot/1/\\xe5\\xa4\\x96\\xe9\\x83\\xa8\\xe5\\x90\\x88\\xe7\\xba\\xa6\\xe5\\xbc\\x95\\xe7\\x94\\xa8/2.sol\":236:333  constructor(address _owner){... */\n  callvalue\n  dup1\n  iszero\n  tag_1\n  jumpi\n  0x00\n  dup1\n  revert\ntag_1:\n  pop\n  mload(0x40)\n  sub(codesize, bytecodeSize)\n  dup1\n  bytecodeSize\n  dup4\n  codecopy\n  dup2\n  dup2\n  add\n  0x40\n  mstore\n  dup2\n  add\n  swap1\n  tag_2\n  swap2\n  swap1\n  tag_3\n  jump\t// in\ntag_2:\n    /* \"shoot/1/\\xe5\\xa4\\x96\\xe9\\x83\\xa8\\xe5\\x90\\x88\\xe7\\xba\\xa6\\xe5\\xbc\\x95\\xe7\\x94\\xa8/2.sol\":282:288  _owner */\n  dup1\n    /* \"shoot/1/\\xe5\\xa4\\x96\\xe9\\x83\\xa8\\xe5\\x90\\x88\\xe7\\xba\\xa6\\xe5\\xbc\\x95\\xe7\\x94\\xa8/2.sol\":274:279  owner */\n  0x00\n  dup1\n    /* \"shoot/1/\\xe5\\xa4\\x96\\xe9\\x83\\xa8\\xe5\\x90\\x88\\xe7\\xba\\xa6\\xe5\\xbc\\x95\\xe7\\x94\\xa8/2.sol\":274:288  owner = _owner */\n  0x0100\n  exp\n  dup2\n  sload\n  dup2\n  0xffffffffffffffffffffffffffffffffffffffff\n  mul\n  not\n  and\n  swap1\n  dup4\n  0xffffffffffffffffffffffffffffffffffffffff\n  and\n  mul\n  or\n  swap1\n  sstore\n  pop\n    /* \"shoot/1/\\xe5\\xa4\\x96\\xe9\\x83\\xa8\\xe5\\x90\\x88\\xe7\\xba\\xa6\\xe5\\xbc\\x95\\xe7\\x94\\xa8/2.sol\":315:325  1000 ether */\n  0x3635c9adc5dea00000\n    /* \"shoot/1/\\xe5\\xa4\\x96\\xe9\\x83\\xa8\\xe5\\x90\\x88\\xe7\\xba\\xa6\\xe5\\xbc\\x95\\xe7\\x94\\xa8/2.sol\":299:306  balance */\n  0x01\n    /* \"shoot/1/\\xe5\\xa4\\x96\\xe9\\x83\\xa8\\xe5\\x90\\x88\\xe7\\xba\\xa6\\xe5\\xbc\\x95\\xe7\\x94\\xa8/2.sol\":299:313  balance[owner] */\n  0x00\n    /* \"shoot/1/\\xe5\\xa4\\x96\\xe9\\x83\\xa8\\xe5\\x90\\x88\\xe7\\xba\\xa6\\xe5\\xbc\\x95\\xe7\\x94\\xa8/2.sol\":307:312  owner */\n  dup1\n  0x00\n  swap1\n  sload\n  swap1\n  0x0100\n  exp\n  swap1\n  div\n  0xffffffffffffffffffffffffffffffffffffffff\n  and\n    /* \"shoot/1/\\xe5\\xa4\\x96\\xe9\\x83\\xa8\\xe5\\x90\\x88\\xe7\\xba\\xa6\\xe5\\xbc\\x95\\xe7\\x94\\xa8/2.sol\":299:313  balance[owner] */\n  0xffffffffffffffffffffffffffffffffffffffff\n  and\n  0xffffffffffffffffffffffffffffffffffffffff\n  and\n  dup2\n  mstore\n  0x20\n  add\n  swap1\n  dup2\n  mstore\n  0x20\n  add\n  0x00\n  keccak256\n  0x00\n    /* \"shoot/1/\\xe5\\xa4\\x96\\xe9\\x83\\xa8\\xe5\\x90\\x88\\xe7\\xba\\xa6\\xe5\\xbc\\x95\\xe7\\x94\\xa8/2.sol\":299:325  balance[owner]+=1000 ether */\n  dup3\n  dup3\n  sload\n  tag_6\n  swap2\n  swap1\n  tag_7\n  jump\t// in\ntag_6:\n  swap3\n  pop\n  pop\n  dup2\n  swap1\n  sstore\n  pop\n    /* \"shoot/1/\\xe5\\xa4\\x96\\xe9\\x83\\xa8\\xe5\\x90\\x88\\xe7\\xba\\xa6\\xe5\\xbc\\x95\\xe7\\x94\\xa8/2.sol\":236:333  constructor(address _owner){... */\n  pop\n    /* \"shoot/1/\\xe5\\xa4\\x96\\xe9\\x83\\xa8\\xe5\\x90\\x88\\xe7\\xba\\xa6\\xe5\\xbc\\x95\\xe7\\x94\\xa8/2.sol\":135:1319  contract tokenbank{... */\n  jump(tag_8)\n    /* \"#utility.yul\":88:205   */\ntag_10:\n    /* \"#utility.yul\":197:198   */\n  0x00\n    /* \"#utility.yul\":194:195   */\n  dup1\n    /* \"#utility.yul\":187:199   */\n  revert\n    /* \"#utility.yul\":334:460   */\ntag_12:\n    /* \"#utility.yul\":371:378   */\n  0x00\n    /* \"#utility.yul\":411:453   */\n  0xffffffffffffffffffffffffffffffffffffffff\n    /* \"#utility.yul\":404:409   */\n  dup3\n    /* \"#utility.yul\":400:454   */\n  and\n    /* \"#utility.yul\":389:454   */\n  swap1\n  pop\n    /* \"#utility.yul\":334:460   */\n  swap2\n  swap1\n  pop\n  jump\t// out\n    /* \"#utility.yul\":466:562   */\ntag_13:\n    /* \"#utility.yul\":503:510   */\n  0x00\n    /* \"#utility.yul\":532:556   */\n  tag_24\n    /* \"#utility.yul\":550:555   */\n  dup3\n    /* \"#utility.yul\":532:556   */\n  tag_12\n  jump\t// in\ntag_24:\n    /* \"#utility.yul\":521:556   */\n  swap1\n  pop\n    /* \"#utility.yul\":466:562   */\n  swap2\n  swap1\n  pop\n  jump\t// out\n    /* \"#utility.yul\":568:690   */\ntag_14:\n    /* \"#utility.yul\":641:665   */\n  tag_26\n    /* \"#utility.yul\":659:664   */\n  dup2\n    /* \"#utility.yul\":641:665   */\n  tag_13\n  jump\t// in\ntag_26:\n    /* \"#utility.yul\":634:639   */\n  dup2\n    /* \"#utility.yul\":631:666   */\n  eq\n    /* \"#utility.yul\":621:684   */\n  tag_27\n  jumpi\n    /* \"#utility.yul\":680:681   */\n  0x00\n    /* \"#utility.yul\":677:678   */\n  dup1\n    /* \"#utility.yul\":670:682   */\n  revert\n    /* \"#utility.yul\":621:684   */\ntag_27:\n    /* \"#utility.yul\":568:690   */\n  pop\n  jump\t// out\n    /* \"#utility.yul\":696:839   */\ntag_15:\n    /* \"#utility.yul\":753:758   */\n  0x00\n    /* \"#utility.yul\":784:790   */\n  dup2\n    /* \"#utility.yul\":778:791   */\n  mload\n    /* \"#utility.yul\":769:791   */\n  swap1\n  pop\n    /* \"#utility.yul\":800:833   */\n  tag_29\n    /* \"#utility.yul\":827:832   */\n  dup2\n    /* \"#utility.yul\":800:833   */\n  tag_14\n  jump\t// in\ntag_29:\n    /* \"#utility.yul\":696:839   */\n  swap3\n  swap2\n  pop\n  pop\n  jump\t// out\n    /* \"#utility.yul\":845:1196   */\ntag_3:\n    /* \"#utility.yul\":915:921   */\n  0x00\n    /* \"#utility.yul\":964:966   */\n  0x20\n    /* \"#utility.yul\":952:961   */\n  dup3\n    /* \"#utility.yul\":943:950   */\n  dup5\n    /* \"#utility.yul\":939:962   */\n  sub\n    /* \"#utility.yul\":935:967   */\n  slt\n    /* \"#utility.yul\":932:1051   */\n  iszero\n  tag_31\n  jumpi\n    /* \"#utility.yul\":970:1049   */\n  tag_32\n  tag_10\n  jump\t// in\ntag_32:\n    /* \"#utility.yul\":932:1051   */\ntag_31:\n    /* \"#utility.yul\":1090:1091   */\n  0x00\n    /* \"#utility.yul\":1115:1179   */\n  tag_33\n    /* \"#utility.yul\":1171:1178   */\n  dup5\n    /* \"#utility.yul\":1162:1168   */\n  dup3\n    /* \"#utility.yul\":1151:1160   */\n  dup6\n    /* \"#utility.yul\":1147:1169   */\n  add\n    /* \"#utility.yul\":1115:1179   */\n  tag_15\n  jump\t// in\ntag_33:\n    /* \"#utility.yul\":1105:1179   */\n  swap2\n  pop\n    /* \"#utility.yul\":1061:1189   */\n  pop\n    /* \"#utility.yul\":845:1196   */\n  swap3\n  swap2\n  pop\n  pop\n  jump\t// out\n    /* \"#utility.yul\":1202:1279   */\ntag_16:\n    /* \"#utility.yul\":1239:1246   */\n  0x00\n    /* \"#utility.yul\":1268:1273   */\n  dup2\n    /* \"#utility.yul\":1257:1273   */\n  swap1\n  pop\n    /* \"#utility.yul\":1202:1279   */\n  swap2\n  swap1\n  pop\n  jump\t// out\n    /* \"#utility.yul\":1285:1465   */\ntag_17:\n    /* \"#utility.yul\":1333:1410   */\n  0x4e487b7100000000000000000000000000000000000000000000000000000000\n    /* \"#utility.yul\":1330:1331   */\n  0x00\n    /* \"#utility.yul\":1323:1411   */\n  mstore\n    /* \"#utility.yul\":1430:1434   */\n  0x11\n    /* \"#utility.yul\":1427:1428   */\n  0x04\n    /* \"#utility.yul\":1420:1435   */\n  mstore\n    /* \"#utility.yul\":1454:1458   */\n  0x24\n    /* \"#utility.yul\":1451:1452   */\n  0x00\n    /* \"#utility.yul\":1444:1459   */\n  revert\n    /* \"#utility.yul\":1471:1662   */\ntag_7:\n    /* \"#utility.yul\":1511:1514   */\n  0x00\n    /* \"#utility.yul\":1530:1550   */\n  tag_37\n    /* \"#utility.yul\":1548:1549   */\n  dup3\n    /* \"#utility.yul\":1530:1550   */\n  tag_16\n  jump\t// in\ntag_37:\n    /* \"#utility.yul\":1525:1550   */\n  swap2\n  pop\n    /* \"#utility.yul\":1564:1584   */\n  tag_38\n    /* \"#utility.yul\":1582:1583   */\n  dup4\n    /* \"#utility.yul\":1564:1584   */\n  tag_16\n  jump\t// in\ntag_38:\n    /* \"#utility.yul\":1559:1584   */\n  swap3\n  pop\n    /* \"#utility.yul\":1607:1608   */\n  dup3\n    /* \"#utility.yul\":1604:1605   */\n  dup3\n    /* \"#utility.yul\":1600:1609   */\n  add\n    /* \"#utility.yul\":1593:1609   */\n  swap1\n  pop\n    /* \"#utility.yul\":1628:1631   */\n  dup1\n    /* \"#utility.yul\":1625:1626   */\n  dup3\n    /* \"#utility.yul\":1622:1632   */\n  gt\n    /* \"#utility.yul\":1619:1655   */\n  iszero\n  tag_39\n  jumpi\n    /* \"#utility.yul\":1635:1653   */\n  tag_40\n  tag_17\n  jump\t// in\ntag_40:\n    /* \"#utility.yul\":1619:1655   */\ntag_39:\n    /* \"#utility.yul\":1471:1662   */\n  swap3\n  swap2\n  pop\n  pop\n  jump\t// out\n    /* \"shoot/1/\\xe5\\xa4\\x96\\xe9\\x83\\xa8\\xe5\\x90\\x88\\xe7\\xba\\xa6\\xe5\\xbc\\x95\\xe7\\x94\\xa8/2.sol\":135:1319  contract tokenbank{... */\ntag_8:\n  dataSize(sub_0)\n  dup1\n  dataOffset(sub_0)\n  0x00\n  codecopy\n  0x00\n  return\nstop\n\nsub_0: assembly {\n        /* \"shoot/1/\\xe5\\xa4\\x96\\xe9\\x83\\xa8\\xe5\\x90\\x88\\xe7\\xba\\xa6\\xe5\\xbc\\x95\\xe7\\x94\\xa8/2.sol\":135:1319  contract tokenbank{... */\n      mstore(0x40, 0x80)\n      jumpi(tag_1, lt(calldatasize, 0x04))\n      shr(0xe0, calldataload(0x00))\n      dup1\n      0x8da5cb5b\n      gt\n      tag_9\n      jumpi\n      dup1\n      0x8da5cb5b\n      eq\n      tag_5\n      jumpi\n      dup1\n      0x9dc29fac\n      eq\n      tag_6\n      jumpi\n      dup1\n      0xa9059cbb\n      eq\n      tag_7\n      jumpi\n      dup1\n      0xd0e30db0\n      eq\n      tag_8\n      jumpi\n      jump(tag_1)\n    tag_9:\n      dup1\n      0x2e1a7d4d\n      eq\n      tag_2\n      jumpi\n      dup1\n      0x40c10f19\n      eq\n      tag_3\n      jumpi\n      dup1\n      0x70a08231\n      eq\n      tag_4\n      jumpi\n    tag_1:\n      0x00\n      dup1\n      revert\n        /* \"shoot/1/\\xe5\\xa4\\x96\\xe9\\x83\\xa8\\xe5\\x90\\x88\\xe7\\xba\\xa6\\xe5\\xbc\\x95\\xe7\\x94\\xa8/2.sol\":580:767  function withdraw(uint256 amount)public payable{... */\n    tag_2:\n      tag_10\n      0x04\n      dup1\n      calldatasize\n      sub\n      dup2\n      add\n      swap1\n      tag_11\n      swap2\n      swap1\n      tag_12\n      jump\t// in\n    tag_11:\n      tag_13\n      jump\t// in\n    tag_10:\n      stop\n        /* \"shoot/1/\\xe5\\xa4\\x96\\xe9\\x83\\xa8\\xe5\\x90\\x88\\xe7\\xba\\xa6\\xe5\\xbc\\x95\\xe7\\x94\\xa8/2.sol\":1106:1206  function mint(address _addr,uint256 amount)public onlyOwner{... */\n    tag_3:\n      callvalue\n      dup1\n      iszero\n      tag_14\n      jumpi\n      0x00\n      dup1\n      revert\n    tag_14:\n      pop\n      tag_15\n      0x04\n      dup1\n      calldatasize\n      sub\n      dup2\n      add\n      swap1\n      tag_16\n      swap2\n      swap1\n      tag_17\n      jump\t// in\n    tag_16:\n      tag_18\n      jump\t// in\n    tag_15:\n      stop\n        /* \"shoot/1/\\xe5\\xa4\\x96\\xe9\\x83\\xa8\\xe5\\x90\\x88\\xe7\\xba\\xa6\\xe5\\xbc\\x95\\xe7\\x94\\xa8/2.sol\":997:1098  function balanceOf(address _addr)public view returns(uint256){... */\n    tag_4:\n      callvalue\n      dup1\n      iszero\n      tag_19\n      jumpi\n      0x00\n      dup1\n      revert\n    tag_19:\n      pop\n      tag_20\n      0x04\n      dup1\n      calldatasize\n      sub\n      dup2\n      add\n      swap1\n      tag_21\n      swap2\n      swap1\n      tag_22\n      jump\t// in\n    tag_21:\n      tag_23\n      jump\t// in\n    tag_20:\n      mload(0x40)\n      tag_24\n      swap2\n      swap1\n      tag_25\n      jump\t// in\n    tag_24:\n      mload(0x40)\n      dup1\n      swap2\n      sub\n      swap1\n      return\n        /* \"shoot/1/\\xe5\\xa4\\x96\\xe9\\x83\\xa8\\xe5\\x90\\x88\\xe7\\xba\\xa6\\xe5\\xbc\\x95\\xe7\\x94\\xa8/2.sol\":160:180  address public owner */\n    tag_5:\n      callvalue\n      dup1\n      iszero\n      tag_26\n      jumpi\n      0x00\n      dup1\n      revert\n    tag_26:\n      pop\n      tag_27\n      tag_28\n      jump\t// in\n    tag_27:\n      mload(0x40)\n      tag_29\n      swap2\n      swap1\n      tag_30\n      jump\t// in\n    tag_29:\n      mload(0x40)\n      dup1\n      swap2\n      sub\n      swap1\n      return\n        /* \"shoot/1/\\xe5\\xa4\\x96\\xe9\\x83\\xa8\\xe5\\x90\\x88\\xe7\\xba\\xa6\\xe5\\xbc\\x95\\xe7\\x94\\xa8/2.sol\":1214:1314  function burn(address _addr,uint256 amount)public onlyOwner{... */\n    tag_6:\n      callvalue\n      dup1\n      iszero\n      tag_31\n      jumpi\n      0x00\n      dup1\n      revert\n    tag_31:\n      pop\n      tag_32\n      0x04\n      dup1\n      calldatasize\n      sub\n      dup2\n      add\n      swap1\n      tag_33\n      swap2\n      swap1\n      tag_17\n      jump\t// in\n    tag_33:\n      tag_34\n      jump\t// in\n    tag_32:\n      stop\n        /* \"shoot/1/\\xe5\\xa4\\x96\\xe9\\x83\\xa8\\xe5\\x90\\x88\\xe7\\xba\\xa6\\xe5\\xbc\\x95\\xe7\\x94\\xa8/2.sol\":775:991  function transfer(address _addr,uint256 amount)public{... */\n    tag_7:\n      callvalue\n      dup1\n      iszero\n      tag_35\n      jumpi\n      0x00\n      dup1\n      revert\n    tag_35:\n      pop\n      tag_36\n      0x04\n      dup1\n      calldatasize\n      sub\n      dup2\n      add\n      swap1\n      tag_37\n      swap2\n      swap1\n      tag_17\n      jump\t// in\n    tag_37:\n      tag_38\n      jump\t// in\n    tag_36:\n      stop\n        /* \"shoot/1/\\xe5\\xa4\\x96\\xe9\\x83\\xa8\\xe5\\x90\\x88\\xe7\\xba\\xa6\\xe5\\xbc\\x95\\xe7\\x94\\xa8/2.sol\":438:572  function deposit()public payable{... */\n    tag_8:\n      tag_39\n      tag_40\n      jump\t// in\n    tag_39:\n      stop\n        /* \"shoot/1/\\xe5\\xa4\\x96\\xe9\\x83\\xa8\\xe5\\x90\\x88\\xe7\\xba\\xa6\\xe5\\xbc\\x95\\xe7\\x94\\xa8/2.sol\":580:767  function withdraw(uint256 amount)public payable{... */\n    tag_13:\n        /* \"shoot/1/\\xe5\\xa4\\x96\\xe9\\x83\\xa8\\xe5\\x90\\x88\\xe7\\xba\\xa6\\xe5\\xbc\\x95\\xe7\\x94\\xa8/2.sol\":667:673  amount */\n      dup1\n        /* \"shoot/1/\\xe5\\xa4\\x96\\xe9\\x83\\xa8\\xe5\\x90\\x88\\xe7\\xba\\xa6\\xe5\\xbc\\x95\\xe7\\x94\\xa8/2.sol\":646:653  balance */\n      0x01\n        /* \"shoot/1/\\xe5\\xa4\\x96\\xe9\\x83\\xa8\\xe5\\x90\\x88\\xe7\\xba\\xa6\\xe5\\xbc\\x95\\xe7\\x94\\xa8/2.sol\":646:665  balance[msg.sender] */\n      0x00\n        /* \"shoot/1/\\xe5\\xa4\\x96\\xe9\\x83\\xa8\\xe5\\x90\\x88\\xe7\\xba\\xa6\\xe5\\xbc\\x95\\xe7\\x94\\xa8/2.sol\":654:664  msg.sender */\n      caller\n        /* \"shoot/1/\\xe5\\xa4\\x96\\xe9\\x83\\xa8\\xe5\\x90\\x88\\xe7\\xba\\xa6\\xe5\\xbc\\x95\\xe7\\x94\\xa8/2.sol\":646:665  balance[msg.sender] */\n      0xffffffffffffffffffffffffffffffffffffffff\n      and\n      0xffffffffffffffffffffffffffffffffffffffff\n      and\n      dup2\n      mstore\n      0x20\n      add\n      swap1\n      dup2\n      mstore\n      0x20\n      add\n      0x00\n      keccak256\n      sload\n        /* \"shoot/1/\\xe5\\xa4\\x96\\xe9\\x83\\xa8\\xe5\\x90\\x88\\xe7\\xba\\xa6\\xe5\\xbc\\x95\\xe7\\x94\\xa8/2.sol\":646:673  balance[msg.sender]>=amount */\n      lt\n      iszero\n        /* \"shoot/1/\\xe5\\xa4\\x96\\xe9\\x83\\xa8\\xe5\\x90\\x88\\xe7\\xba\\xa6\\xe5\\xbc\\x95\\xe7\\x94\\xa8/2.sol\":638:674  require(balance[msg.sender]>=amount) */\n      tag_42\n      jumpi\n      0x00\n      dup1\n      revert\n    tag_42:\n        /* \"shoot/1/\\xe5\\xa4\\x96\\xe9\\x83\\xa8\\xe5\\x90\\x88\\xe7\\xba\\xa6\\xe5\\xbc\\x95\\xe7\\x94\\xa8/2.sol\":706:712  amount */\n      dup1\n        /* \"shoot/1/\\xe5\\xa4\\x96\\xe9\\x83\\xa8\\xe5\\x90\\x88\\xe7\\xba\\xa6\\xe5\\xbc\\x95\\xe7\\x94\\xa8/2.sol\":685:692  balance */\n      0x01\n        /* \"shoot/1/\\xe5\\xa4\\x96\\xe9\\x83\\xa8\\xe5\\x90\\x88\\xe7\\xba\\xa6\\xe5\\xbc\\x95\\xe7\\x94\\xa8/2.sol\":685:704  balance[msg.sender] */\n      0x00\n        /* \"shoot/1/\\xe5\\xa4\\x96\\xe9\\x83\\xa8\\xe5\\x90\\x88\\xe7\\xba\\xa6\\xe5\\xbc\\x95\\xe7\\x94\\xa8/2.sol\":693:703  msg.sender */\n      caller\n        /* \"shoot/1/\\xe5\\xa4\\x96\\xe9\\x83\\xa8\\xe5\\x90\\x88\\xe7\\xba\\xa6\\xe5\\xbc\\x95\\xe7\\x94\\xa8/2.sol\":685:704  balance[msg.sender] */\n      0xffffffffffffffffffffffffffffffffffffffff\n      and\n      0xffffffffffffffffffffffffffffffffffffffff\n      and\n      dup2\n      mstore\n      0x20\n      add\n      swap1\n      dup2\n      mstore\n      0x20\n      add\n      0x00\n      keccak256\n      0x00\n        /* \"shoot/1/\\xe5\\xa4\\x96\\xe9\\x83\\xa8\\xe5\\x90\\x88\\xe7\\xba\\xa6\\xe5\\xbc\\x95\\xe7\\x94\\xa8/2.sol\":685:712  balance[msg.sender]-=amount */\n      dup3\n      dup3\n      sload\n      tag_43\n      swap2\n      swap1\n      tag_44\n      jump\t// in\n    tag_43:\n      swap3\n      pop\n      pop\n      dup2\n      swap1\n      sstore\n      pop\n        /* \"shoot/1/\\xe5\\xa4\\x96\\xe9\\x83\\xa8\\xe5\\x90\\x88\\xe7\\xba\\xa6\\xe5\\xbc\\x95\\xe7\\x94\\xa8/2.sol\":731:741  msg.sender */\n      caller\n        /* \"shoot/1/\\xe5\\xa4\\x96\\xe9\\x83\\xa8\\xe5\\x90\\x88\\xe7\\xba\\xa6\\xe5\\xbc\\x95\\xe7\\x94\\xa8/2.sol\":723:751  payable(msg.sender).transfer */\n      0xffffffffffffffffffffffffffffffffffffffff\n      and\n        /* \"shoot/1/\\xe5\\xa4\\x96\\xe9\\x83\\xa8\\xe5\\x90\\x88\\xe7\\xba\\xa6\\xe5\\xbc\\x95\\xe7\\x94\\xa8/2.sol\":723:759  payable(msg.sender).transfer(amount) */\n      0x08fc\n        /* \"shoot/1/\\xe5\\xa4\\x96\\xe9\\x83\\xa8\\xe5\\x90\\x88\\xe7\\xba\\xa6\\xe5\\xbc\\x95\\xe7\\x94\\xa8/2.sol\":752:758  amount */\n      dup3\n        /* \"shoot/1/\\xe5\\xa4\\x96\\xe9\\x83\\xa8\\xe5\\x90\\x88\\xe7\\xba\\xa6\\xe5\\xbc\\x95\\xe7\\x94\\xa8/2.sol\":723:759  payable(msg.sender).transfer(amount) */\n      swap1\n      dup2\n      iszero\n      mul\n      swap1\n      mload(0x40)\n      0x00\n      mload(0x40)\n      dup1\n      dup4\n      sub\n      dup2\n      dup6\n      dup9\n      dup9\n      call\n      swap4\n      pop\n      pop\n      pop\n      pop\n      iszero\n      dup1\n      iszero\n      tag_46\n      jumpi\n      returndatasize\n      0x00\n      dup1\n      returndatacopy\n      revert(0x00, returndatasize)\n    tag_46:\n      pop\n        /* \"shoot/1/\\xe5\\xa4\\x96\\xe9\\x83\\xa8\\xe5\\x90\\x88\\xe7\\xba\\xa6\\xe5\\xbc\\x95\\xe7\\x94\\xa8/2.sol\":580:767  function withdraw(uint256 amount)public payable{... */\n      pop\n      jump\t// out\n        /* \"shoot/1/\\xe5\\xa4\\x96\\xe9\\x83\\xa8\\xe5\\x90\\x88\\xe7\\xba\\xa6\\xe5\\xbc\\x95\\xe7\\x94\\xa8/2.sol\":1106:1206  function mint(address _addr,uint256 amount)public onlyOwner{... */\n    tag_18:\n        /* \"shoot/1/\\xe5\\xa4\\x96\\xe9\\x83\\xa8\\xe5\\x90\\x88\\xe7\\xba\\xa6\\xe5\\xbc\\x95\\xe7\\x94\\xa8/2.sol\":390:395  owner */\n      0x00\n      dup1\n      sload\n      swap1\n      0x0100\n      exp\n      swap1\n      div\n      0xffffffffffffffffffffffffffffffffffffffff\n      and\n        /* \"shoot/1/\\xe5\\xa4\\x96\\xe9\\x83\\xa8\\xe5\\x90\\x88\\xe7\\xba\\xa6\\xe5\\xbc\\x95\\xe7\\x94\\xa8/2.sol\":378:395  msg.sender==owner */\n      0xffffffffffffffffffffffffffffffffffffffff\n      and\n        /* \"shoot/1/\\xe5\\xa4\\x96\\xe9\\x83\\xa8\\xe5\\x90\\x88\\xe7\\xba\\xa6\\xe5\\xbc\\x95\\xe7\\x94\\xa8/2.sol\":378:388  msg.sender */\n      caller\n        /* \"shoot/1/\\xe5\\xa4\\x96\\xe9\\x83\\xa8\\xe5\\x90\\x88\\xe7\\xba\\xa6\\xe5\\xbc\\x95\\xe7\\x94\\xa8/2.sol\":378:395  msg.sender==owner */\n      0xffffffffffffffffffffffffffffffffffffffff\n      and\n      eq\n        /* \"shoot/1/\\xe5\\xa4\\x96\\xe9\\x83\\xa8\\xe5\\x90\\x88\\xe7\\xba\\xa6\\xe5\\xbc\\x95\\xe7\\x94\\xa8/2.sol\":370:408  require(msg.sender==owner,\"onlyowner\") */\n      tag_48\n      jumpi\n      mload(0x40)\n      0x08c379a000000000000000000000000000000000000000000000000000000000\n      dup2\n      mstore\n      0x04\n      add\n      tag_49\n      swap1\n      tag_50\n      jump\t// in\n    tag_49:\n      mload(0x40)\n      dup1\n      swap2\n      sub\n      swap1\n      revert\n    tag_48:\n        /* \"shoot/1/\\xe5\\xa4\\x96\\xe9\\x83\\xa8\\xe5\\x90\\x88\\xe7\\xba\\xa6\\xe5\\xbc\\x95\\xe7\\x94\\xa8/2.sol\":1192:1198  amount */\n      dup1\n        /* \"shoot/1/\\xe5\\xa4\\x96\\xe9\\x83\\xa8\\xe5\\x90\\x88\\xe7\\xba\\xa6\\xe5\\xbc\\x95\\xe7\\x94\\xa8/2.sol\":1176:1183  balance */\n      0x01\n        /* \"shoot/1/\\xe5\\xa4\\x96\\xe9\\x83\\xa8\\xe5\\x90\\x88\\xe7\\xba\\xa6\\xe5\\xbc\\x95\\xe7\\x94\\xa8/2.sol\":1176:1190  balance[_addr] */\n      0x00\n        /* \"shoot/1/\\xe5\\xa4\\x96\\xe9\\x83\\xa8\\xe5\\x90\\x88\\xe7\\xba\\xa6\\xe5\\xbc\\x95\\xe7\\x94\\xa8/2.sol\":1184:1189  _addr */\n      dup5\n        /* \"shoot/1/\\xe5\\xa4\\x96\\xe9\\x83\\xa8\\xe5\\x90\\x88\\xe7\\xba\\xa6\\xe5\\xbc\\x95\\xe7\\x94\\xa8/2.sol\":1176:1190  balance[_addr] */\n      0xffffffffffffffffffffffffffffffffffffffff\n      and\n      0xffffffffffffffffffffffffffffffffffffffff\n      and\n      dup2\n      mstore\n      0x20\n      add\n      swap1\n      dup2\n      mstore\n      0x20\n      add\n      0x00\n      keccak256\n      0x00\n        /* \"shoot/1/\\xe5\\xa4\\x96\\xe9\\x83\\xa8\\xe5\\x90\\x88\\xe7\\xba\\xa6\\xe5\\xbc\\x95\\xe7\\x94\\xa8/2.sol\":1176:1198  balance[_addr]+=amount */\n      dup3\n      dup3\n      sload\n      tag_52\n      swap2\n      swap1\n      tag_53\n      jump\t// in\n    tag_52:\n      swap3\n      pop\n      pop\n      dup2\n      swap1\n      sstore\n      pop\n        /* \"shoot/1/\\xe5\\xa4\\x96\\xe9\\x83\\xa8\\xe5\\x90\\x88\\xe7\\xba\\xa6\\xe5\\xbc\\x95\\xe7\\x94\\xa8/2.sol\":1106:1206  function mint(address _addr,uint256 amount)public onlyOwner{... */\n      pop\n      pop\n      jump\t// out\n        /* \"shoot/1/\\xe5\\xa4\\x96\\xe9\\x83\\xa8\\xe5\\x90\\x88\\xe7\\xba\\xa6\\xe5\\xbc\\x95\\xe7\\x94\\xa8/2.sol\":997:1098  function balanceOf(address _addr)public view returns(uint256){... */\n    tag_23:\n        /* \"shoot/1/\\xe5\\xa4\\x96\\xe9\\x83\\xa8\\xe5\\x90\\x88\\xe7\\xba\\xa6\\xe5\\xbc\\x95\\xe7\\x94\\xa8/2.sol\":1050:1057  uint256 */\n      0x00\n        /* \"shoot/1/\\xe5\\xa4\\x96\\xe9\\x83\\xa8\\xe5\\x90\\x88\\xe7\\xba\\xa6\\xe5\\xbc\\x95\\xe7\\x94\\xa8/2.sol\":1076:1083  balance */\n      0x01\n        /* \"shoot/1/\\xe5\\xa4\\x96\\xe9\\x83\\xa8\\xe5\\x90\\x88\\xe7\\xba\\xa6\\xe5\\xbc\\x95\\xe7\\x94\\xa8/2.sol\":1076:1090  balance[_addr] */\n      0x00\n        /* \"shoot/1/\\xe5\\xa4\\x96\\xe9\\x83\\xa8\\xe5\\x90\\x88\\xe7\\xba\\xa6\\xe5\\xbc\\x95\\xe7\\x94\\xa8/2.sol\":1084:1089  _addr */\n      dup4\n        /* \"shoot/1/\\xe5\\xa4\\x96\\xe9\\x83\\xa8\\xe5\\x90\\x88\\xe7\\xba\\xa6\\xe5\\xbc\\x95\\xe7\\x94\\xa8/2.sol\":1076:1090  balance[_addr] */\n      0xffffffffffffffffffffffffffffffffffffffff\n      and\n      0xffffffffffffffffffffffffffffffffffffffff\n      and\n      dup2\n      mstore\n      0x20\n      add\n      swap1\n      dup2\n      mstore\n      0x20\n      add\n      0x00\n      keccak256\n      sload\n        /* \"shoot/1/\\xe5\\xa4\\x96\\xe9\\x83\\xa8\\xe5\\x90\\x88\\xe7\\xba\\xa6\\xe5\\xbc\\x95\\xe7\\x94\\xa8/2.sol\":1069:1090  return balance[_addr] */\n      swap1\n      pop\n        /* \"shoot/1/\\xe5\\xa4\\x96\\xe9\\x83\\xa8\\xe5\\x90\\x88\\xe7\\xba\\xa6\\xe5\\xbc\\x95\\xe7\\x94\\xa8/2.sol\":997:1098  function balanceOf(address _addr)public view returns(uint256){... */\n      swap2\n      swap1\n      pop\n      jump\t// out\n        /* \"shoot/1/\\xe5\\xa4\\x96\\xe9\\x83\\xa8\\xe5\\x90\\x88\\xe7\\xba\\xa6\\xe5\\xbc\\x95\\xe7\\x94\\xa8/2.sol\":160:180  address public owner */\n    tag_28:\n      0x00\n      dup1\n      sload\n      swap1\n      0x0100\n      exp\n      swap1\n      div\n      0xffffffffffffffffffffffffffffffffffffffff\n      and\n      dup2\n      jump\t// out\n        /* \"shoot/1/\\xe5\\xa4\\x96\\xe9\\x83\\xa8\\xe5\\x90\\x88\\xe7\\xba\\xa6\\xe5\\xbc\\x95\\xe7\\x94\\xa8/2.sol\":1214:1314  function burn(address _addr,uint256 amount)public onlyOwner{... */\n    tag_34:\n        /* \"shoot/1/\\xe5\\xa4\\x96\\xe9\\x83\\xa8\\xe5\\x90\\x88\\xe7\\xba\\xa6\\xe5\\xbc\\x95\\xe7\\x94\\xa8/2.sol\":390:395  owner */\n      0x00\n      dup1\n      sload\n      swap1\n      0x0100\n      exp\n      swap1\n      div\n      0xffffffffffffffffffffffffffffffffffffffff\n      and\n        /* \"shoot/1/\\xe5\\xa4\\x96\\xe9\\x83\\xa8\\xe5\\x90\\x88\\xe7\\xba\\xa6\\xe5\\xbc\\x95\\xe7\\x94\\xa8/2.sol\":378:395  msg.sender==owner */\n      0xffffffffffffffffffffffffffffffffffffffff\n      and\n        /* \"shoot/1/\\xe5\\xa4\\x96\\xe9\\x83\\xa8\\xe5\\x90\\x88\\xe7\\xba\\xa6\\xe5\\xbc\\x95\\xe7\\x94\\xa8/2.sol\":378:388  msg.sender */\n      caller\n        /* \"shoot/1/\\xe5\\xa4\\x96\\xe9\\x83\\xa8\\xe5\\x90\\x88\\xe7\\xba\\xa6\\xe5\\xbc\\x95\\xe7\\x94\\xa8/2.sol\":378:395  msg.sender==owner */\n      0xffffffffffffffffffffffffffffffffffffffff\n      and\n      eq\n        /* \"shoot/1/\\xe5\\xa4\\x96\\xe9\\x83\\xa8\\xe5\\x90\\x88\\xe7\\xba\\xa6\\xe5\\xbc\\x95\\xe7\\x94\\xa8/2.sol\":370:408  require(msg.sender==owner,\"onlyowner\") */\n      tag_56\n      jumpi\n      mload(0x40)\n      0x08c379a000000000000000000000000000000000000000000000000000000000\n      dup2\n      mstore\n      0x04\n      add\n      tag_57\n      swap1\n      tag_50\n      jump\t// in\n    tag_57:\n      mload(0x40)\n      dup1\n      swap2\n      sub\n      swap1\n      revert\n    tag_56:\n        /* \"shoot/1/\\xe5\\xa4\\x96\\xe9\\x83\\xa8\\xe5\\x90\\x88\\xe7\\xba\\xa6\\xe5\\xbc\\x95\\xe7\\x94\\xa8/2.sol\":1300:1306  amount */\n      dup1\n        /* \"shoot/1/\\xe5\\xa4\\x96\\xe9\\x83\\xa8\\xe5\\x90\\x88\\xe7\\xba\\xa6\\xe5\\xbc\\x95\\xe7\\x94\\xa8/2.sol\":1284:1291  balance */\n      0x01\n        /* \"shoot/1/\\xe5\\xa4\\x96\\xe9\\x83\\xa8\\xe5\\x90\\x88\\xe7\\xba\\xa6\\xe5\\xbc\\x95\\xe7\\x94\\xa8/2.sol\":1284:1298  balance[_addr] */\n      0x00\n        /* \"shoot/1/\\xe5\\xa4\\x96\\xe9\\x83\\xa8\\xe5\\x90\\x88\\xe7\\xba\\xa6\\xe5\\xbc\\x95\\xe7\\x94\\xa8/2.sol\":1292:1297  _addr */\n      dup5\n        /* \"shoot/1/\\xe5\\xa4\\x96\\xe9\\x83\\xa8\\xe5\\x90\\x88\\xe7\\xba\\xa6\\xe5\\xbc\\x95\\xe7\\x94\\xa8/2.sol\":1284:1298  balance[_addr] */\n      0xffffffffffffffffffffffffffffffffffffffff\n      and\n      0xffffffffffffffffffffffffffffffffffffffff\n      and\n      dup2\n      mstore\n      0x20\n      add\n      swap1\n      dup2\n      mstore\n      0x20\n      add\n      0x00\n      keccak256\n      0x00\n        /* \"shoot/1/\\xe5\\xa4\\x96\\xe9\\x83\\xa8\\xe5\\x90\\x88\\xe7\\xba\\xa6\\xe5\\xbc\\x95\\xe7\\x94\\xa8/2.sol\":1284:1306  balance[_addr]-=amount */\n      dup3\n      dup3\n      sload\n      tag_59\n      swap2\n      swap1\n      tag_44\n      jump\t// in\n    tag_59:\n      swap3\n      pop\n      pop\n      dup2\n      swap1\n      sstore\n      pop\n        /* \"shoot/1/\\xe5\\xa4\\x96\\xe9\\x83\\xa8\\xe5\\x90\\x88\\xe7\\xba\\xa6\\xe5\\xbc\\x95\\xe7\\x94\\xa8/2.sol\":1214:1314  function burn(address _addr,uint256 amount)public onlyOwner{... */\n      pop\n      pop\n      jump\t// out\n        /* \"shoot/1/\\xe5\\xa4\\x96\\xe9\\x83\\xa8\\xe5\\x90\\x88\\xe7\\xba\\xa6\\xe5\\xbc\\x95\\xe7\\x94\\xa8/2.sol\":775:991  function transfer(address _addr,uint256 amount)public{... */\n    tag_38:\n        /* \"shoot/1/\\xe5\\xa4\\x96\\xe9\\x83\\xa8\\xe5\\x90\\x88\\xe7\\xba\\xa6\\xe5\\xbc\\x95\\xe7\\x94\\xa8/2.sol\":868:874  amount */\n      dup1\n        /* \"shoot/1/\\xe5\\xa4\\x96\\xe9\\x83\\xa8\\xe5\\x90\\x88\\xe7\\xba\\xa6\\xe5\\xbc\\x95\\xe7\\x94\\xa8/2.sol\":847:854  balance */\n      0x01\n        /* \"shoot/1/\\xe5\\xa4\\x96\\xe9\\x83\\xa8\\xe5\\x90\\x88\\xe7\\xba\\xa6\\xe5\\xbc\\x95\\xe7\\x94\\xa8/2.sol\":847:866  balance[msg.sender] */\n      0x00\n        /* \"shoot/1/\\xe5\\xa4\\x96\\xe9\\x83\\xa8\\xe5\\x90\\x88\\xe7\\xba\\xa6\\xe5\\xbc\\x95\\xe7\\x94\\xa8/2.sol\":855:865  msg.sender */\n      caller\n        /* \"shoot/1/\\xe5\\xa4\\x96\\xe9\\x83\\xa8\\xe5\\x90\\x88\\xe7\\xba\\xa6\\xe5\\xbc\\x95\\xe7\\x94\\xa8/2.sol\":847:866  balance[msg.sender] */\n      0xffffffffffffffffffffffffffffffffffffffff\n      and\n      0xffffffffffffffffffffffffffffffffffffffff\n      and\n      dup2\n      mstore\n      0x20\n      add\n      swap1\n      dup2\n      mstore\n      0x20\n      add\n      0x00\n      keccak256\n      sload\n        /* \"shoot/1/\\xe5\\xa4\\x96\\xe9\\x83\\xa8\\xe5\\x90\\x88\\xe7\\xba\\xa6\\xe5\\xbc\\x95\\xe7\\x94\\xa8/2.sol\":847:874  balance[msg.sender]>=amount */\n      lt\n      iszero\n        /* \"shoot/1/\\xe5\\xa4\\x96\\xe9\\x83\\xa8\\xe5\\x90\\x88\\xe7\\xba\\xa6\\xe5\\xbc\\x95\\xe7\\x94\\xa8/2.sol\":839:875  require(balance[msg.sender]>=amount) */\n      tag_61\n      jumpi\n      0x00\n      dup1\n      revert\n    tag_61:\n        /* \"shoot/1/\\xe5\\xa4\\x96\\xe9\\x83\\xa8\\xe5\\x90\\x88\\xe7\\xba\\xa6\\xe5\\xbc\\x95\\xe7\\x94\\xa8/2.sol\":906:911  _addr */\n      dup2\n        /* \"shoot/1/\\xe5\\xa4\\x96\\xe9\\x83\\xa8\\xe5\\x90\\x88\\xe7\\xba\\xa6\\xe5\\xbc\\x95\\xe7\\x94\\xa8/2.sol\":894:911  msg.sender!=_addr */\n      0xffffffffffffffffffffffffffffffffffffffff\n      and\n        /* \"shoot/1/\\xe5\\xa4\\x96\\xe9\\x83\\xa8\\xe5\\x90\\x88\\xe7\\xba\\xa6\\xe5\\xbc\\x95\\xe7\\x94\\xa8/2.sol\":894:904  msg.sender */\n      caller\n        /* \"shoot/1/\\xe5\\xa4\\x96\\xe9\\x83\\xa8\\xe5\\x90\\x88\\xe7\\xba\\xa6\\xe5\\xbc\\x95\\xe7\\x94\\xa8/2.sol\":894:911  msg.sender!=_addr */\n      0xffffffffffffffffffffffffffffffffffffffff\n      and\n      sub\n        /* \"shoot/1/\\xe5\\xa4\\x96\\xe9\\x83\\xa8\\xe5\\x90\\x88\\xe7\\xba\\xa6\\xe5\\xbc\\x95\\xe7\\x94\\xa8/2.sol\":886:912  require(msg.sender!=_addr) */\n      tag_62\n      jumpi\n      0x00\n      dup1\n      revert\n    tag_62:\n        /* \"shoot/1/\\xe5\\xa4\\x96\\xe9\\x83\\xa8\\xe5\\x90\\x88\\xe7\\xba\\xa6\\xe5\\xbc\\x95\\xe7\\x94\\xa8/2.sol\":944:950  amount */\n      dup1\n        /* \"shoot/1/\\xe5\\xa4\\x96\\xe9\\x83\\xa8\\xe5\\x90\\x88\\xe7\\xba\\xa6\\xe5\\xbc\\x95\\xe7\\x94\\xa8/2.sol\":923:930  balance */\n      0x01\n        /* \"shoot/1/\\xe5\\xa4\\x96\\xe9\\x83\\xa8\\xe5\\x90\\x88\\xe7\\xba\\xa6\\xe5\\xbc\\x95\\xe7\\x94\\xa8/2.sol\":923:942  balance[msg.sender] */\n      0x00\n        /* \"shoot/1/\\xe5\\xa4\\x96\\xe9\\x83\\xa8\\xe5\\x90\\x88\\xe7\\xba\\xa6\\xe5\\xbc\\x95\\xe7\\x94\\xa8/2.sol\":931:941  msg.sender */\n      caller\n        /* \"shoot/1/\\xe5\\xa4\\x96\\xe9\\x83\\xa8\\xe5\\x90\\x88\\xe7\\xba\\xa6\\xe5\\xbc\\x95\\xe7\\x94\\xa8/2.sol\":923:942  balance[msg.sender] */\n      0xffffffffffffffffffffffffffffffffffffffff\n      and\n      0xffffffffffffffffffffffffffffffffffffffff\n      and\n      dup2\n      mstore\n      0x20\n      add\n      swap1\n      dup2\n      mstore\n      0x20\n      add\n      0x00\n      keccak256\n      0x00\n        /* \"shoot/1/\\xe5\\xa4\\x96\\xe9\\x83\\xa8\\xe5\\x90\\x88\\xe7\\xba\\xa6\\xe5\\xbc\\x95\\xe7\\x94\\xa8/2.sol\":923:950  balance[msg.sender]-=amount */\n      dup3\n      dup3\n      sload\n      tag_63\n      swap2\n      swap1\n      tag_44\n      jump\t// in\n    tag_63:\n      swap3\n      pop\n      pop\n      dup2\n      swap1\n      sstore\n      pop\n        /* \"shoot/1/\\xe5\\xa4\\x96\\xe9\\x83\\xa8\\xe5\\x90\\x88\\xe7\\xba\\xa6\\xe5\\xbc\\x95\\xe7\\x94\\xa8/2.sol\":977:983  amount */\n      dup1\n        /* \"shoot/1/\\xe5\\xa4\\x96\\xe9\\x83\\xa8\\xe5\\x90\\x88\\xe7\\xba\\xa6\\xe5\\xbc\\x95\\xe7\\x94\\xa8/2.sol\":961:968  balance */\n      0x01\n        /* \"shoot/1/\\xe5\\xa4\\x96\\xe9\\x83\\xa8\\xe5\\x90\\x88\\xe7\\xba\\xa6\\xe5\\xbc\\x95\\xe7\\x94\\xa8/2.sol\":961:975  balance[_addr] */\n      0x00\n        /* \"shoot/1/\\xe5\\xa4\\x96\\xe9\\x83\\xa8\\xe5\\x90\\x88\\xe7\\xba\\xa6\\xe5\\xbc\\x95\\xe7\\x94\\xa8/2.sol\":969:974  _addr */\n      dup5\n        /* \"shoot/1/\\xe5\\xa4\\x96\\xe9\\x83\\xa8\\xe5\\x90\\x88\\xe7\\xba\\xa6\\xe5\\xbc\\x95\\xe7\\x94\\xa8/2.sol\":961:975  balance[_addr] */\n      0xffffffffffffffffffffffffffffffffffffffff\n      and\n      0xffffffffffffffffffffffffffffffffffffffff\n      and\n      dup2\n      mstore\n      0x20\n      add\n      swap1\n      dup2\n      mstore\n      0x20\n      add\n      0x00\n      keccak256\n      0x00\n        /* \"shoot/1/\\xe5\\xa4\\x96\\xe9\\x83\\xa8\\xe5\\x90\\x88\\xe7\\xba\\xa6\\xe5\\xbc\\x95\\xe7\\x94\\xa8/2.sol\":961:983  balance[_addr]+=amount */\n      dup3\n      dup3\n      sload\n      tag_64\n      swap2\n      swap1\n      tag_53\n      jump\t// in\n    tag_64:\n      swap3\n      pop\n      pop\n      dup2\n      swap1\n      sstore\n      pop\n        /* \"shoot/1/\\xe5\\xa4\\x96\\xe9\\x83\\xa8\\xe5\\x90\\x88\\xe7\\xba\\xa6\\xe5\\xbc\\x95\\xe7\\x94\\xa8/2.sol\":775:991  function transfer(address _addr,uint256 amount)public{... */\n      pop\n      pop\n      jump\t// out\n        /* \"shoot/1/\\xe5\\xa4\\x96\\xe9\\x83\\xa8\\xe5\\x90\\x88\\xe7\\xba\\xa6\\xe5\\xbc\\x95\\xe7\\x94\\xa8/2.sol\":438:572  function deposit()public payable{... */\n    tag_40:\n        /* \"shoot/1/\\xe5\\xa4\\x96\\xe9\\x83\\xa8\\xe5\\x90\\x88\\xe7\\xba\\xa6\\xe5\\xbc\\x95\\xe7\\x94\\xa8/2.sol\":499:500  0 */\n      0x00\n        /* \"shoot/1/\\xe5\\xa4\\x96\\xe9\\x83\\xa8\\xe5\\x90\\x88\\xe7\\xba\\xa6\\xe5\\xbc\\x95\\xe7\\x94\\xa8/2.sol\":489:498  msg.value */\n      callvalue\n        /* \"shoot/1/\\xe5\\xa4\\x96\\xe9\\x83\\xa8\\xe5\\x90\\x88\\xe7\\xba\\xa6\\xe5\\xbc\\x95\\xe7\\x94\\xa8/2.sol\":489:500  msg.value>0 */\n      gt\n        /* \"shoot/1/\\xe5\\xa4\\x96\\xe9\\x83\\xa8\\xe5\\x90\\x88\\xe7\\xba\\xa6\\xe5\\xbc\\x95\\xe7\\x94\\xa8/2.sol\":481:523  require(msg.value>0,\"are you kidding me?\") */\n      tag_66\n      jumpi\n      mload(0x40)\n      0x08c379a000000000000000000000000000000000000000000000000000000000\n      dup2\n      mstore\n      0x04\n      add\n      tag_67\n      swap1\n      tag_68\n      jump\t// in\n    tag_67:\n      mload(0x40)\n      dup1\n      swap2\n      sub\n      swap1\n      revert\n    tag_66:\n        /* \"shoot/1/\\xe5\\xa4\\x96\\xe9\\x83\\xa8\\xe5\\x90\\x88\\xe7\\xba\\xa6\\xe5\\xbc\\x95\\xe7\\x94\\xa8/2.sol\":555:564  msg.value */\n      callvalue\n        /* \"shoot/1/\\xe5\\xa4\\x96\\xe9\\x83\\xa8\\xe5\\x90\\x88\\xe7\\xba\\xa6\\xe5\\xbc\\x95\\xe7\\x94\\xa8/2.sol\":534:541  balance */\n      0x01\n        /* \"shoot/1/\\xe5\\xa4\\x96\\xe9\\x83\\xa8\\xe5\\x90\\x88\\xe7\\xba\\xa6\\xe5\\xbc\\x95\\xe7\\x94\\xa8/2.sol\":534:553  balance[msg.sender] */\n      0x00\n        /* \"shoot/1/\\xe5\\xa4\\x96\\xe9\\x83\\xa8\\xe5\\x90\\x88\\xe7\\xba\\xa6\\xe5\\xbc\\x95\\xe7\\x94\\xa8/2.sol\":542:552  msg.sender */\n      caller\n        /* \"shoot/1/\\xe5\\xa4\\x96\\xe9\\x83\\xa8\\xe5\\x90\\x88\\xe7\\xba\\xa6\\xe5\\xbc\\x95\\xe7\\x94\\xa8/2.sol\":534:553  balance[msg.sender] */\n      0xffffffffffffffffffffffffffffffffffffffff\n      and\n      0xffffffffffffffffffffffffffffffffffffffff\n      and\n      dup2\n      mstore\n      0x20\n      add\n      swap1\n      dup2\n      mstore\n      0x20\n      add\n      0x00\n      keccak256\n      0x00\n        /* \"shoot/1/\\xe5\\xa4\\x96\\xe9\\x83\\xa8\\xe5\\x90\\x88\\xe7\\xba\\xa6\\xe5\\xbc\\x95\\xe7\\x94\\xa8/2.sol\":534:564  balance[msg.sender]+=msg.value */\n      dup3\n      dup3\n      sload\n      tag_69\n      swap2\n      swap1\n      tag_53\n      jump\t// in\n    tag_69:\n      swap3\n      pop\n      pop\n      dup2\n      swap1\n      sstore\n      pop\n        /* \"shoot/1/\\xe5\\xa4\\x96\\xe9\\x83\\xa8\\xe5\\x90\\x88\\xe7\\xba\\xa6\\xe5\\xbc\\x95\\xe7\\x94\\xa8/2.sol\":438:572  function deposit()public payable{... */\n      jump\t// out\n        /* \"#utility.yul\":88:205   */\n    tag_71:\n        /* \"#utility.yul\":197:198   */\n      0x00\n        /* \"#utility.yul\":194:195   */\n      dup1\n        /* \"#utility.yul\":187:199   */\n      revert\n        /* \"#utility.yul\":334:411   */\n    tag_73:\n        /* \"#utility.yul\":371:378   */\n      0x00\n        /* \"#utility.yul\":400:405   */\n      dup2\n        /* \"#utility.yul\":389:405   */\n      swap1\n      pop\n        /* \"#utility.yul\":334:411   */\n      swap2\n      swap1\n      pop\n      jump\t// out\n        /* \"#utility.yul\":417:539   */\n    tag_74:\n        /* \"#utility.yul\":490:514   */\n      tag_94\n        /* \"#utility.yul\":508:513   */\n      dup2\n        /* \"#utility.yul\":490:514   */\n      tag_73\n      jump\t// in\n    tag_94:\n        /* \"#utility.yul\":483:488   */\n      dup2\n        /* \"#utility.yul\":480:515   */\n      eq\n        /* \"#utility.yul\":470:533   */\n      tag_95\n      jumpi\n        /* \"#utility.yul\":529:530   */\n      0x00\n        /* \"#utility.yul\":526:527   */\n      dup1\n        /* \"#utility.yul\":519:531   */\n      revert\n        /* \"#utility.yul\":470:533   */\n    tag_95:\n        /* \"#utility.yul\":417:539   */\n      pop\n      jump\t// out\n        /* \"#utility.yul\":545:684   */\n    tag_75:\n        /* \"#utility.yul\":591:596   */\n      0x00\n        /* \"#utility.yul\":629:635   */\n      dup2\n        /* \"#utility.yul\":616:636   */\n      calldataload\n        /* \"#utility.yul\":607:636   */\n      swap1\n      pop\n        /* \"#utility.yul\":645:678   */\n      tag_97\n        /* \"#utility.yul\":672:677   */\n      dup2\n        /* \"#utility.yul\":645:678   */\n      tag_74\n      jump\t// in\n    tag_97:\n        /* \"#utility.yul\":545:684   */\n      swap3\n      swap2\n      pop\n      pop\n      jump\t// out\n        /* \"#utility.yul\":690:1019   */\n    tag_12:\n        /* \"#utility.yul\":749:755   */\n      0x00\n        /* \"#utility.yul\":798:800   */\n      0x20\n        /* \"#utility.yul\":786:795   */\n      dup3\n        /* \"#utility.yul\":777:784   */\n      dup5\n        /* \"#utility.yul\":773:796   */\n      sub\n        /* \"#utility.yul\":769:801   */\n      slt\n        /* \"#utility.yul\":766:885   */\n      iszero\n      tag_99\n      jumpi\n        /* \"#utility.yul\":804:883   */\n      tag_100\n      tag_71\n      jump\t// in\n    tag_100:\n        /* \"#utility.yul\":766:885   */\n    tag_99:\n        /* \"#utility.yul\":924:925   */\n      0x00\n        /* \"#utility.yul\":949:1002   */\n      tag_101\n        /* \"#utility.yul\":994:1001   */\n      dup5\n        /* \"#utility.yul\":985:991   */\n      dup3\n        /* \"#utility.yul\":974:983   */\n      dup6\n        /* \"#utility.yul\":970:992   */\n      add\n        /* \"#utility.yul\":949:1002   */\n      tag_75\n      jump\t// in\n    tag_101:\n        /* \"#utility.yul\":939:1002   */\n      swap2\n      pop\n        /* \"#utility.yul\":895:1012   */\n      pop\n        /* \"#utility.yul\":690:1019   */\n      swap3\n      swap2\n      pop\n      pop\n      jump\t// out\n        /* \"#utility.yul\":1025:1151   */\n    tag_76:\n        /* \"#utility.yul\":1062:1069   */\n      0x00\n        /* \"#utility.yul\":1102:1144   */\n      0xffffffffffffffffffffffffffffffffffffffff\n        /* \"#utility.yul\":1095:1100   */\n      dup3\n        /* \"#utility.yul\":1091:1145   */\n      and\n        /* \"#utility.yul\":1080:1145   */\n      swap1\n      pop\n        /* \"#utility.yul\":1025:1151   */\n      swap2\n      swap1\n      pop\n      jump\t// out\n        /* \"#utility.yul\":1157:1253   */\n    tag_77:\n        /* \"#utility.yul\":1194:1201   */\n      0x00\n        /* \"#utility.yul\":1223:1247   */\n      tag_104\n        /* \"#utility.yul\":1241:1246   */\n      dup3\n        /* \"#utility.yul\":1223:1247   */\n      tag_76\n      jump\t// in\n    tag_104:\n        /* \"#utility.yul\":1212:1247   */\n      swap1\n      pop\n        /* \"#utility.yul\":1157:1253   */\n      swap2\n      swap1\n      pop\n      jump\t// out\n        /* \"#utility.yul\":1259:1381   */\n    tag_78:\n        /* \"#utility.yul\":1332:1356   */\n      tag_106\n        /* \"#utility.yul\":1350:1355   */\n      dup2\n        /* \"#utility.yul\":1332:1356   */\n      tag_77\n      jump\t// in\n    tag_106:\n        /* \"#utility.yul\":1325:1330   */\n      dup2\n        /* \"#utility.yul\":1322:1357   */\n      eq\n        /* \"#utility.yul\":1312:1375   */\n      tag_107\n      jumpi\n        /* \"#utility.yul\":1371:1372   */\n      0x00\n        /* \"#utility.yul\":1368:1369   */\n      dup1\n        /* \"#utility.yul\":1361:1373   */\n      revert\n        /* \"#utility.yul\":1312:1375   */\n    tag_107:\n        /* \"#utility.yul\":1259:1381   */\n      pop\n      jump\t// out\n        /* \"#utility.yul\":1387:1526   */\n    tag_79:\n        /* \"#utility.yul\":1433:1438   */\n      0x00\n        /* \"#utility.yul\":1471:1477   */\n      dup2\n        /* \"#utility.yul\":1458:1478   */\n      calldataload\n        /* \"#utility.yul\":1449:1478   */\n      swap1\n      pop\n        /* \"#utility.yul\":1487:1520   */\n      tag_109\n        /* \"#utility.yul\":1514:1519   */\n      dup2\n        /* \"#utility.yul\":1487:1520   */\n      tag_78\n      jump\t// in\n    tag_109:\n        /* \"#utility.yul\":1387:1526   */\n      swap3\n      swap2\n      pop\n      pop\n      jump\t// out\n        /* \"#utility.yul\":1532:2006   */\n    tag_17:\n        /* \"#utility.yul\":1600:1606   */\n      0x00\n        /* \"#utility.yul\":1608:1614   */\n      dup1\n        /* \"#utility.yul\":1657:1659   */\n      0x40\n        /* \"#utility.yul\":1645:1654   */\n      dup4\n        /* \"#utility.yul\":1636:1643   */\n      dup6\n        /* \"#utility.yul\":1632:1655   */\n      sub\n        /* \"#utility.yul\":1628:1660   */\n      slt\n        /* \"#utility.yul\":1625:1744   */\n      iszero\n      tag_111\n      jumpi\n        /* \"#utility.yul\":1663:1742   */\n      tag_112\n      tag_71\n      jump\t// in\n    tag_112:\n        /* \"#utility.yul\":1625:1744   */\n    tag_111:\n        /* \"#utility.yul\":1783:1784   */\n      0x00\n        /* \"#utility.yul\":1808:1861   */\n      tag_113\n        /* \"#utility.yul\":1853:1860   */\n      dup6\n        /* \"#utility.yul\":1844:1850   */\n      dup3\n        /* \"#utility.yul\":1833:1842   */\n      dup7\n        /* \"#utility.yul\":1829:1851   */\n      add\n        /* \"#utility.yul\":1808:1861   */\n      tag_79\n      jump\t// in\n    tag_113:\n        /* \"#utility.yul\":1798:1861   */\n      swap3\n      pop\n        /* \"#utility.yul\":1754:1871   */\n      pop\n        /* \"#utility.yul\":1910:1912   */\n      0x20\n        /* \"#utility.yul\":1936:1989   */\n      tag_114\n        /* \"#utility.yul\":1981:1988   */\n      dup6\n        /* \"#utility.yul\":1972:1978   */\n      dup3\n        /* \"#utility.yul\":1961:1970   */\n      dup7\n        /* \"#utility.yul\":1957:1979   */\n      add\n        /* \"#utility.yul\":1936:1989   */\n      tag_75\n      jump\t// in\n    tag_114:\n        /* \"#utility.yul\":1926:1989   */\n      swap2\n      pop\n        /* \"#utility.yul\":1881:1999   */\n      pop\n        /* \"#utility.yul\":1532:2006   */\n      swap3\n      pop\n      swap3\n      swap1\n      pop\n      jump\t// out\n        /* \"#utility.yul\":2012:2341   */\n    tag_22:\n        /* \"#utility.yul\":2071:2077   */\n      0x00\n        /* \"#utility.yul\":2120:2122   */\n      0x20\n        /* \"#utility.yul\":2108:2117   */\n      dup3\n        /* \"#utility.yul\":2099:2106   */\n      dup5\n        /* \"#utility.yul\":2095:2118   */\n      sub\n        /* \"#utility.yul\":2091:2123   */\n      slt\n        /* \"#utility.yul\":2088:2207   */\n      iszero\n      tag_116\n      jumpi\n        /* \"#utility.yul\":2126:2205   */\n      tag_117\n      tag_71\n      jump\t// in\n    tag_117:\n        /* \"#utility.yul\":2088:2207   */\n    tag_116:\n        /* \"#utility.yul\":2246:2247   */\n      0x00\n        /* \"#utility.yul\":2271:2324   */\n      tag_118\n        /* \"#utility.yul\":2316:2323   */\n      dup5\n        /* \"#utility.yul\":2307:2313   */\n      dup3\n        /* \"#utility.yul\":2296:2305   */\n      dup6\n        /* \"#utility.yul\":2292:2314   */\n      add\n        /* \"#utility.yul\":2271:2324   */\n      tag_79\n      jump\t// in\n    tag_118:\n        /* \"#utility.yul\":2261:2324   */\n      swap2\n      pop\n        /* \"#utility.yul\":2217:2334   */\n      pop\n        /* \"#utility.yul\":2012:2341   */\n      swap3\n      swap2\n      pop\n      pop\n      jump\t// out\n        /* \"#utility.yul\":2347:2465   */\n    tag_80:\n        /* \"#utility.yul\":2434:2458   */\n      tag_120\n        /* \"#utility.yul\":2452:2457   */\n      dup2\n        /* \"#utility.yul\":2434:2458   */\n      tag_73\n      jump\t// in\n    tag_120:\n        /* \"#utility.yul\":2429:2432   */\n      dup3\n        /* \"#utility.yul\":2422:2459   */\n      mstore\n        /* \"#utility.yul\":2347:2465   */\n      pop\n      pop\n      jump\t// out\n        /* \"#utility.yul\":2471:2693   */\n    tag_25:\n        /* \"#utility.yul\":2564:2568   */\n      0x00\n        /* \"#utility.yul\":2602:2604   */\n      0x20\n        /* \"#utility.yul\":2591:2600   */\n      dup3\n        /* \"#utility.yul\":2587:2605   */\n      add\n        /* \"#utility.yul\":2579:2605   */\n      swap1\n      pop\n        /* \"#utility.yul\":2615:2686   */\n      tag_122\n        /* \"#utility.yul\":2683:2684   */\n      0x00\n        /* \"#utility.yul\":2672:2681   */\n      dup4\n        /* \"#utility.yul\":2668:2685   */\n      add\n        /* \"#utility.yul\":2659:2665   */\n      dup5\n        /* \"#utility.yul\":2615:2686   */\n      tag_80\n      jump\t// in\n    tag_122:\n        /* \"#utility.yul\":2471:2693   */\n      swap3\n      swap2\n      pop\n      pop\n      jump\t// out\n        /* \"#utility.yul\":2699:2817   */\n    tag_81:\n        /* \"#utility.yul\":2786:2810   */\n      tag_124\n        /* \"#utility.yul\":2804:2809   */\n      dup2\n        /* \"#utility.yul\":2786:2810   */\n      tag_77\n      jump\t// in\n    tag_124:\n        /* \"#utility.yul\":2781:2784   */\n      dup3\n        /* \"#utility.yul\":2774:2811   */\n      mstore\n        /* \"#utility.yul\":2699:2817   */\n      pop\n      pop\n      jump\t// out\n        /* \"#utility.yul\":2823:3045   */\n    tag_30:\n        /* \"#utility.yul\":2916:2920   */\n      0x00\n        /* \"#utility.yul\":2954:2956   */\n      0x20\n        /* \"#utility.yul\":2943:2952   */\n      dup3\n        /* \"#utility.yul\":2939:2957   */\n      add\n        /* \"#utility.yul\":2931:2957   */\n      swap1\n      pop\n        /* \"#utility.yul\":2967:3038   */\n      tag_126\n        /* \"#utility.yul\":3035:3036   */\n      0x00\n        /* \"#utility.yul\":3024:3033   */\n      dup4\n        /* \"#utility.yul\":3020:3037   */\n      add\n        /* \"#utility.yul\":3011:3017   */\n      dup5\n        /* \"#utility.yul\":2967:3038   */\n      tag_81\n      jump\t// in\n    tag_126:\n        /* \"#utility.yul\":2823:3045   */\n      swap3\n      swap2\n      pop\n      pop\n      jump\t// out\n        /* \"#utility.yul\":3051:3231   */\n    tag_82:\n        /* \"#utility.yul\":3099:3176   */\n      0x4e487b7100000000000000000000000000000000000000000000000000000000\n        /* \"#utility.yul\":3096:3097   */\n      0x00\n        /* \"#utility.yul\":3089:3177   */\n      mstore\n        /* \"#utility.yul\":3196:3200   */\n      0x11\n        /* \"#utility.yul\":3193:3194   */\n      0x04\n        /* \"#utility.yul\":3186:3201   */\n      mstore\n        /* \"#utility.yul\":3220:3224   */\n      0x24\n        /* \"#utility.yul\":3217:3218   */\n      0x00\n        /* \"#utility.yul\":3210:3225   */\n      revert\n        /* \"#utility.yul\":3237:3431   */\n    tag_44:\n        /* \"#utility.yul\":3277:3281   */\n      0x00\n        /* \"#utility.yul\":3297:3317   */\n      tag_129\n        /* \"#utility.yul\":3315:3316   */\n      dup3\n        /* \"#utility.yul\":3297:3317   */\n      tag_73\n      jump\t// in\n    tag_129:\n        /* \"#utility.yul\":3292:3317   */\n      swap2\n      pop\n        /* \"#utility.yul\":3331:3351   */\n      tag_130\n        /* \"#utility.yul\":3349:3350   */\n      dup4\n        /* \"#utility.yul\":3331:3351   */\n      tag_73\n      jump\t// in\n    tag_130:\n        /* \"#utility.yul\":3326:3351   */\n      swap3\n      pop\n        /* \"#utility.yul\":3375:3376   */\n      dup3\n        /* \"#utility.yul\":3372:3373   */\n      dup3\n        /* \"#utility.yul\":3368:3377   */\n      sub\n        /* \"#utility.yul\":3360:3377   */\n      swap1\n      pop\n        /* \"#utility.yul\":3399:3400   */\n      dup2\n        /* \"#utility.yul\":3393:3397   */\n      dup2\n        /* \"#utility.yul\":3390:3401   */\n      gt\n        /* \"#utility.yul\":3387:3424   */\n      iszero\n      tag_131\n      jumpi\n        /* \"#utility.yul\":3404:3422   */\n      tag_132\n      tag_82\n      jump\t// in\n    tag_132:\n        /* \"#utility.yul\":3387:3424   */\n    tag_131:\n        /* \"#utility.yul\":3237:3431   */\n      swap3\n      swap2\n      pop\n      pop\n      jump\t// out\n        /* \"#utility.yul\":3437:3606   */\n    tag_83:\n        /* \"#utility.yul\":3521:3532   */\n      0x00\n        /* \"#utility.yul\":3555:3561   */\n      dup3\n        /* \"#utility.yul\":3550:3553   */\n      dup3\n        /* \"#utility.yul\":3543:3562   */\n      mstore\n        /* \"#utility.yul\":3595:3599   */\n      0x20\n        /* \"#utility.yul\":3590:3593   */\n      dup3\n        /* \"#utility.yul\":3586:3600   */\n      add\n        /* \"#utility.yul\":3571:3600   */\n      swap1\n      pop\n        /* \"#utility.yul\":3437:3606   */\n      swap3\n      swap2\n      pop\n      pop\n      jump\t// out\n        /* \"#utility.yul\":3612:3771   */\n    tag_84:\n        /* \"#utility.yul\":3752:3763   */\n      0x6f6e6c796f776e65720000000000000000000000000000000000000000000000\n        /* \"#utility.yul\":3748:3749   */\n      0x00\n        /* \"#utility.yul\":3740:3746   */\n      dup3\n        /* \"#utility.yul\":3736:3750   */\n      add\n        /* \"#utility.yul\":3729:3764   */\n      mstore\n        /* \"#utility.yul\":3612:3771   */\n      pop\n      jump\t// out\n        /* \"#utility.yul\":3777:4142   */\n    tag_85:\n        /* \"#utility.yul\":3919:3922   */\n      0x00\n        /* \"#utility.yul\":3940:4006   */\n      tag_136\n        /* \"#utility.yul\":4004:4005   */\n      0x09\n        /* \"#utility.yul\":3999:4002   */\n      dup4\n        /* \"#utility.yul\":3940:4006   */\n      tag_83\n      jump\t// in\n    tag_136:\n        /* \"#utility.yul\":3933:4006   */\n      swap2\n      pop\n        /* \"#utility.yul\":4015:4108   */\n      tag_137\n        /* \"#utility.yul\":4104:4107   */\n      dup3\n        /* \"#utility.yul\":4015:4108   */\n      tag_84\n      jump\t// in\n    tag_137:\n        /* \"#utility.yul\":4133:4135   */\n      0x20\n        /* \"#utility.yul\":4128:4131   */\n      dup3\n        /* \"#utility.yul\":4124:4136   */\n      add\n        /* \"#utility.yul\":4117:4136   */\n      swap1\n      pop\n        /* \"#utility.yul\":3777:4142   */\n      swap2\n      swap1\n      pop\n      jump\t// out\n        /* \"#utility.yul\":4148:4567   */\n    tag_50:\n        /* \"#utility.yul\":4314:4318   */\n      0x00\n        /* \"#utility.yul\":4352:4354   */\n      0x20\n        /* \"#utility.yul\":4341:4350   */\n      dup3\n        /* \"#utility.yul\":4337:4355   */\n      add\n        /* \"#utility.yul\":4329:4355   */\n      swap1\n      pop\n        /* \"#utility.yul\":4401:4410   */\n      dup2\n        /* \"#utility.yul\":4395:4399   */\n      dup2\n        /* \"#utility.yul\":4391:4411   */\n      sub\n        /* \"#utility.yul\":4387:4388   */\n      0x00\n        /* \"#utility.yul\":4376:4385   */\n      dup4\n        /* \"#utility.yul\":4372:4389   */\n      add\n        /* \"#utility.yul\":4365:4412   */\n      mstore\n        /* \"#utility.yul\":4429:4560   */\n      tag_139\n        /* \"#utility.yul\":4555:4559   */\n      dup2\n        /* \"#utility.yul\":4429:4560   */\n      tag_85\n      jump\t// in\n    tag_139:\n        /* \"#utility.yul\":4421:4560   */\n      swap1\n      pop\n        /* \"#utility.yul\":4148:4567   */\n      swap2\n      swap1\n      pop\n      jump\t// out\n        /* \"#utility.yul\":4573:4764   */\n    tag_53:\n        /* \"#utility.yul\":4613:4616   */\n      0x00\n        /* \"#utility.yul\":4632:4652   */\n      tag_141\n        /* \"#utility.yul\":4650:4651   */\n      dup3\n        /* \"#utility.yul\":4632:4652   */\n      tag_73\n      jump\t// in\n    tag_141:\n        /* \"#utility.yul\":4627:4652   */\n      swap2\n      pop\n        /* \"#utility.yul\":4666:4686   */\n      tag_142\n        /* \"#utility.yul\":4684:4685   */\n      dup4\n        /* \"#utility.yul\":4666:4686   */\n      tag_73\n      jump\t// in\n    tag_142:\n        /* \"#utility.yul\":4661:4686   */\n      swap3\n      pop\n        /* \"#utility.yul\":4709:4710   */\n      dup3\n        /* \"#utility.yul\":4706:4707   */\n      dup3\n        /* \"#utility.yul\":4702:4711   */\n      add\n        /* \"#utility.yul\":4695:4711   */\n      swap1\n      pop\n        /* \"#utility.yul\":4730:4733   */\n      dup1\n        /* \"#utility.yul\":4727:4728   */\n      dup3\n        /* \"#utility.yul\":4724:4734   */\n      gt\n        /* \"#utility.yul\":4721:4757   */\n      iszero\n      tag_143\n      jumpi\n        /* \"#utility.yul\":4737:4755   */\n      tag_144\n      tag_82\n      jump\t// in\n    tag_144:\n        /* \"#utility.yul\":4721:4757   */\n    tag_143:\n        /* \"#utility.yul\":4573:4764   */\n      swap3\n      swap2\n      pop\n      pop\n      jump\t// out\n        /* \"#utility.yul\":4770:4939   */\n    tag_86:\n        /* \"#utility.yul\":4910:4931   */\n      0x61726520796f75206b696464696e67206d653f00000000000000000000000000\n        /* \"#utility.yul\":4906:4907   */\n      0x00\n        /* \"#utility.yul\":4898:4904   */\n      dup3\n        /* \"#utility.yul\":4894:4908   */\n      add\n        /* \"#utility.yul\":4887:4932   */\n      mstore\n        /* \"#utility.yul\":4770:4939   */\n      pop\n      jump\t// out\n        /* \"#utility.yul\":4945:5311   */\n    tag_87:\n        /* \"#utility.yul\":5087:5090   */\n      0x00\n        /* \"#utility.yul\":5108:5175   */\n      tag_147\n        /* \"#utility.yul\":5172:5174   */\n      0x13\n        /* \"#utility.yul\":5167:5170   */\n      dup4\n        /* \"#utility.yul\":5108:5175   */\n      tag_83\n      jump\t// in\n    tag_147:\n        /* \"#utility.yul\":5101:5175   */\n      swap2\n      pop\n        /* \"#utility.yul\":5184:5277   */\n      tag_148\n        /* \"#utility.yul\":5273:5276   */\n      dup3\n        /* \"#utility.yul\":5184:5277   */\n      tag_86\n      jump\t// in\n    tag_148:\n        /* \"#utility.yul\":5302:5304   */\n      0x20\n        /* \"#utility.yul\":5297:5300   */\n      dup3\n        /* \"#utility.yul\":5293:5305   */\n      add\n        /* \"#utility.yul\":5286:5305   */\n      swap1\n      pop\n        /* \"#utility.yul\":4945:5311   */\n      swap2\n      swap1\n      pop\n      jump\t// out\n        /* \"#utility.yul\":5317:5736   */\n    tag_68:\n        /* \"#utility.yul\":5483:5487   */\n      0x00\n        /* \"#utility.yul\":5521:5523   */\n      0x20\n        /* \"#utility.yul\":5510:5519   */\n      dup3\n        /* \"#utility.yul\":5506:5524   */\n      add\n        /* \"#utility.yul\":5498:5524   */\n      swap1\n      pop\n        /* \"#utility.yul\":5570:5579   */\n      dup2\n        /* \"#utility.yul\":5564:5568   */\n      dup2\n        /* \"#utility.yul\":5560:5580   */\n      sub\n        /* \"#utility.yul\":5556:5557   */\n      0x00\n        /* \"#utility.yul\":5545:5554   */\n      dup4\n        /* \"#utility.yul\":5541:5558   */\n      add\n        /* \"#utility.yul\":5534:5581   */\n      mstore\n        /* \"#utility.yul\":5598:5729   */\n      tag_150\n        /* \"#utility.yul\":5724:5728   */\n      dup2\n        /* \"#utility.yul\":5598:5729   */\n      tag_87\n      jump\t// in\n    tag_150:\n        /* \"#utility.yul\":5590:5729   */\n      swap1\n      pop\n        /* \"#utility.yul\":5317:5736   */\n      swap2\n      swap1\n      pop\n      jump\t// out\n\n    auxdata: 0xa2646970667358221220d9f958094175c2b59abd18e18c897fc599a93cef2be8096cf4378b42d61debbc64736f6c63430008170033\n}\n",
				"bytecode": {
					"linkReferences": {},
					"object": "608060405234801561000f575f80fd5b50604051610b5b380380610b5b83398181016040528101906100319190610150565b805f806101000a81548173ffffffffffffffffffffffffffffffffffffffff021916908373ffffffffffffffffffffffffffffffffffffffff160217905550683635c9adc5dea0000060015f805f9054906101000a900473ffffffffffffffffffffffffffffffffffffffff1673ffffffffffffffffffffffffffffffffffffffff1673ffffffffffffffffffffffffffffffffffffffff1681526020019081526020015f205f8282546100e591906101b1565b92505081905550506101e4565b5f80fd5b5f73ffffffffffffffffffffffffffffffffffffffff82169050919050565b5f61011f826100f6565b9050919050565b61012f81610115565b8114610139575f80fd5b50565b5f8151905061014a81610126565b92915050565b5f60208284031215610165576101646100f2565b5b5f6101728482850161013c565b91505092915050565b5f819050919050565b7f4e487b71000000000000000000000000000000000000000000000000000000005f52601160045260245ffd5b5f6101bb8261017b565b91506101c68361017b565b92508282019050808211156101de576101dd610184565b5b92915050565b61096a806101f15f395ff3fe60806040526004361061006f575f3560e01c80638da5cb5b1161004d5780638da5cb5b146100f35780639dc29fac1461011d578063a9059cbb14610145578063d0e30db01461016d5761006f565b80632e1a7d4d1461007357806340c10f191461008f57806370a08231146100b7575b5f80fd5b61008d60048036038101906100889190610683565b610177565b005b34801561009a575f80fd5b506100b560048036038101906100b09190610708565b61025a565b005b3480156100c2575f80fd5b506100dd60048036038101906100d89190610746565b61033e565b6040516100ea9190610780565b60405180910390f35b3480156100fe575f80fd5b50610107610384565b60405161011491906107a8565b60405180910390f35b348015610128575f80fd5b50610143600480360381019061013e9190610708565b6103a7565b005b348015610150575f80fd5b5061016b60048036038101906101669190610708565b61048b565b005b6101756105b5565b005b8060015f3373ffffffffffffffffffffffffffffffffffffffff1673ffffffffffffffffffffffffffffffffffffffff1681526020019081526020015f205410156101c0575f80fd5b8060015f3373ffffffffffffffffffffffffffffffffffffffff1673ffffffffffffffffffffffffffffffffffffffff1681526020019081526020015f205f82825461020c91906107ee565b925050819055503373ffffffffffffffffffffffffffffffffffffffff166108fc8290811502906040515f60405180830381858888f19350505050158015610256573d5f803e3d5ffd5b5050565b5f8054906101000a900473ffffffffffffffffffffffffffffffffffffffff1673ffffffffffffffffffffffffffffffffffffffff163373ffffffffffffffffffffffffffffffffffffffff16146102e7576040517f08c379a00000000000000000000000000000000000000000000000000000000081526004016102de9061087b565b60405180910390fd5b8060015f8473ffffffffffffffffffffffffffffffffffffffff1673ffffffffffffffffffffffffffffffffffffffff1681526020019081526020015f205f8282546103339190610899565b925050819055505050565b5f60015f8373ffffffffffffffffffffffffffffffffffffffff1673ffffffffffffffffffffffffffffffffffffffff1681526020019081526020015f20549050919050565b5f8054906101000a900473ffffffffffffffffffffffffffffffffffffffff1681565b5f8054906101000a900473ffffffffffffffffffffffffffffffffffffffff1673ffffffffffffffffffffffffffffffffffffffff163373ffffffffffffffffffffffffffffffffffffffff1614610434576040517f08c379a000000000000000000000000000000000000000000000000000000000815260040161042b9061087b565b60405180910390fd5b8060015f8473ffffffffffffffffffffffffffffffffffffffff1673ffffffffffffffffffffffffffffffffffffffff1681526020019081526020015f205f82825461048091906107ee565b925050819055505050565b8060015f3373ffffffffffffffffffffffffffffffffffffffff1673ffffffffffffffffffffffffffffffffffffffff1681526020019081526020015f205410156104d4575f80fd5b8173ffffffffffffffffffffffffffffffffffffffff163373ffffffffffffffffffffffffffffffffffffffff160361050b575f80fd5b8060015f3373ffffffffffffffffffffffffffffffffffffffff1673ffffffffffffffffffffffffffffffffffffffff1681526020019081526020015f205f82825461055791906107ee565b925050819055508060015f8473ffffffffffffffffffffffffffffffffffffffff1673ffffffffffffffffffffffffffffffffffffffff1681526020019081526020015f205f8282546105aa9190610899565b925050819055505050565b5f34116105f7576040517f08c379a00000000000000000000000000000000000000000000000000000000081526004016105ee90610916565b60405180910390fd5b3460015f3373ffffffffffffffffffffffffffffffffffffffff1673ffffffffffffffffffffffffffffffffffffffff1681526020019081526020015f205f8282546106439190610899565b92505081905550565b5f80fd5b5f819050919050565b61066281610650565b811461066c575f80fd5b50565b5f8135905061067d81610659565b92915050565b5f602082840312156106985761069761064c565b5b5f6106a58482850161066f565b91505092915050565b5f73ffffffffffffffffffffffffffffffffffffffff82169050919050565b5f6106d7826106ae565b9050919050565b6106e7816106cd565b81146106f1575f80fd5b50565b5f81359050610702816106de565b92915050565b5f806040838503121561071e5761071d61064c565b5b5f61072b858286016106f4565b925050602061073c8582860161066f565b9150509250929050565b5f6020828403121561075b5761075a61064c565b5b5f610768848285016106f4565b91505092915050565b61077a81610650565b82525050565b5f6020820190506107935f830184610771565b92915050565b6107a2816106cd565b82525050565b5f6020820190506107bb5f830184610799565b92915050565b7f4e487b71000000000000000000000000000000000000000000000000000000005f52601160045260245ffd5b5f6107f882610650565b915061080383610650565b925082820390508181111561081b5761081a6107c1565b5b92915050565b5f82825260208201905092915050565b7f6f6e6c796f776e657200000000000000000000000000000000000000000000005f82015250565b5f610865600983610821565b915061087082610831565b602082019050919050565b5f6020820190508181035f83015261089281610859565b9050919050565b5f6108a382610650565b91506108ae83610650565b92508282019050808211156108c6576108c56107c1565b5b92915050565b7f61726520796f75206b696464696e67206d653f000000000000000000000000005f82015250565b5f610900601383610821565b915061090b826108cc565b602082019050919050565b5f6020820190508181035f83015261092d816108f4565b905091905056fea2646970667358221220d9f958094175c2b59abd18e18c897fc599a93cef2be8096cf4378b42d61debbc64736f6c63430008170033",
					"opcodes": "PUSH1 0x80 PUSH1 0x40 MSTORE CALLVALUE DUP1 ISZERO PUSH2 0xF JUMPI PUSH0 DUP1 REVERT JUMPDEST POP PUSH1 0x40 MLOAD PUSH2 0xB5B CODESIZE SUB DUP1 PUSH2 0xB5B DUP4 CODECOPY DUP2 DUP2 ADD PUSH1 0x40 MSTORE DUP2 ADD SWAP1 PUSH2 0x31 SWAP2 SWAP1 PUSH2 0x150 JUMP JUMPDEST DUP1 PUSH0 DUP1 PUSH2 0x100 EXP DUP2 SLOAD DUP2 PUSH20 0xFFFFFFFFFFFFFFFFFFFFFFFFFFFFFFFFFFFFFFFF MUL NOT AND SWAP1 DUP4 PUSH20 0xFFFFFFFFFFFFFFFFFFFFFFFFFFFFFFFFFFFFFFFF AND MUL OR SWAP1 SSTORE POP PUSH9 0x3635C9ADC5DEA00000 PUSH1 0x1 PUSH0 DUP1 PUSH0 SWAP1 SLOAD SWAP1 PUSH2 0x100 EXP SWAP1 DIV PUSH20 0xFFFFFFFFFFFFFFFFFFFFFFFFFFFFFFFFFFFFFFFF AND PUSH20 0xFFFFFFFFFFFFFFFFFFFFFFFFFFFFFFFFFFFFFFFF AND PUSH20 0xFFFFFFFFFFFFFFFFFFFFFFFFFFFFFFFFFFFFFFFF AND DUP2 MSTORE PUSH1 0x20 ADD SWAP1 DUP2 MSTORE PUSH1 0x20 ADD PUSH0 KECCAK256 PUSH0 DUP3 DUP3 SLOAD PUSH2 0xE5 SWAP2 SWAP1 PUSH2 0x1B1 JUMP JUMPDEST SWAP3 POP POP DUP2 SWAP1 SSTORE POP POP PUSH2 0x1E4 JUMP JUMPDEST PUSH0 DUP1 REVERT JUMPDEST PUSH0 PUSH20 0xFFFFFFFFFFFFFFFFFFFFFFFFFFFFFFFFFFFFFFFF DUP3 AND SWAP1 POP SWAP2 SWAP1 POP JUMP JUMPDEST PUSH0 PUSH2 0x11F DUP3 PUSH2 0xF6 JUMP JUMPDEST SWAP1 POP SWAP2 SWAP1 POP JUMP JUMPDEST PUSH2 0x12F DUP2 PUSH2 0x115 JUMP JUMPDEST DUP2 EQ PUSH2 0x139 JUMPI PUSH0 DUP1 REVERT JUMPDEST POP JUMP JUMPDEST PUSH0 DUP2 MLOAD SWAP1 POP PUSH2 0x14A DUP2 PUSH2 0x126 JUMP JUMPDEST SWAP3 SWAP2 POP POP JUMP JUMPDEST PUSH0 PUSH1 0x20 DUP3 DUP5 SUB SLT ISZERO PUSH2 0x165 JUMPI PUSH2 0x164 PUSH2 0xF2 JUMP JUMPDEST JUMPDEST PUSH0 PUSH2 0x172 DUP5 DUP3 DUP6 ADD PUSH2 0x13C JUMP JUMPDEST SWAP2 POP POP SWAP3 SWAP2 POP POP JUMP JUMPDEST PUSH0 DUP2 SWAP1 POP SWAP2 SWAP1 POP JUMP JUMPDEST PUSH32 0x4E487B7100000000000000000000000000000000000000000000000000000000 PUSH0 MSTORE PUSH1 0x11 PUSH1 0x4 MSTORE PUSH1 0x24 PUSH0 REVERT JUMPDEST PUSH0 PUSH2 0x1BB DUP3 PUSH2 0x17B JUMP JUMPDEST SWAP2 POP PUSH2 0x1C6 DUP4 PUSH2 0x17B JUMP JUMPDEST SWAP3 POP DUP3 DUP3 ADD SWAP1 POP DUP1 DUP3 GT ISZERO PUSH2 0x1DE JUMPI PUSH2 0x1DD PUSH2 0x184 JUMP JUMPDEST JUMPDEST SWAP3 SWAP2 POP POP JUMP JUMPDEST PUSH2 0x96A DUP1 PUSH2 0x1F1 PUSH0 CODECOPY PUSH0 RETURN INVALID PUSH1 0x80 PUSH1 0x40 MSTORE PUSH1 0x4 CALLDATASIZE LT PUSH2 0x6F JUMPI PUSH0 CALLDATALOAD PUSH1 0xE0 SHR DUP1 PUSH4 0x8DA5CB5B GT PUSH2 0x4D JUMPI DUP1 PUSH4 0x8DA5CB5B EQ PUSH2 0xF3 JUMPI DUP1 PUSH4 0x9DC29FAC EQ PUSH2 0x11D JUMPI DUP1 PUSH4 0xA9059CBB EQ PUSH2 0x145 JUMPI DUP1 PUSH4 0xD0E30DB0 EQ PUSH2 0x16D JUMPI PUSH2 0x6F JUMP JUMPDEST DUP1 PUSH4 0x2E1A7D4D EQ PUSH2 0x73 JUMPI DUP1 PUSH4 0x40C10F19 EQ PUSH2 0x8F JUMPI DUP1 PUSH4 0x70A08231 EQ PUSH2 0xB7 JUMPI JUMPDEST PUSH0 DUP1 REVERT JUMPDEST PUSH2 0x8D PUSH1 0x4 DUP1 CALLDATASIZE SUB DUP2 ADD SWAP1 PUSH2 0x88 SWAP2 SWAP1 PUSH2 0x683 JUMP JUMPDEST PUSH2 0x177 JUMP JUMPDEST STOP JUMPDEST CALLVALUE DUP1 ISZERO PUSH2 0x9A JUMPI PUSH0 DUP1 REVERT JUMPDEST POP PUSH2 0xB5 PUSH1 0x4 DUP1 CALLDATASIZE SUB DUP2 ADD SWAP1 PUSH2 0xB0 SWAP2 SWAP1 PUSH2 0x708 JUMP JUMPDEST PUSH2 0x25A JUMP JUMPDEST STOP JUMPDEST CALLVALUE DUP1 ISZERO PUSH2 0xC2 JUMPI PUSH0 DUP1 REVERT JUMPDEST POP PUSH2 0xDD PUSH1 0x4 DUP1 CALLDATASIZE SUB DUP2 ADD SWAP1 PUSH2 0xD8 SWAP2 SWAP1 PUSH2 0x746 JUMP JUMPDEST PUSH2 0x33E JUMP JUMPDEST PUSH1 0x40 MLOAD PUSH2 0xEA SWAP2 SWAP1 PUSH2 0x780 JUMP JUMPDEST PUSH1 0x40 MLOAD DUP1 SWAP2 SUB SWAP1 RETURN JUMPDEST CALLVALUE DUP1 ISZERO PUSH2 0xFE JUMPI PUSH0 DUP1 REVERT JUMPDEST POP PUSH2 0x107 PUSH2 0x384 JUMP JUMPDEST PUSH1 0x40 MLOAD PUSH2 0x114 SWAP2 SWAP1 PUSH2 0x7A8 JUMP JUMPDEST PUSH1 0x40 MLOAD DUP1 SWAP2 SUB SWAP1 RETURN JUMPDEST CALLVALUE DUP1 ISZERO PUSH2 0x128 JUMPI PUSH0 DUP1 REVERT JUMPDEST POP PUSH2 0x143 PUSH1 0x4 DUP1 CALLDATASIZE SUB DUP2 ADD SWAP1 PUSH2 0x13E SWAP2 SWAP1 PUSH2 0x708 JUMP JUMPDEST PUSH2 0x3A7 JUMP JUMPDEST STOP JUMPDEST CALLVALUE DUP1 ISZERO PUSH2 0x150 JUMPI PUSH0 DUP1 REVERT JUMPDEST POP PUSH2 0x16B PUSH1 0x4 DUP1 CALLDATASIZE SUB DUP2 ADD SWAP1 PUSH2 0x166 SWAP2 SWAP1 PUSH2 0x708 JUMP JUMPDEST PUSH2 0x48B JUMP JUMPDEST STOP JUMPDEST PUSH2 0x175 PUSH2 0x5B5 JUMP JUMPDEST STOP JUMPDEST DUP1 PUSH1 0x1 PUSH0 CALLER PUSH20 0xFFFFFFFFFFFFFFFFFFFFFFFFFFFFFFFFFFFFFFFF AND PUSH20 0xFFFFFFFFFFFFFFFFFFFFFFFFFFFFFFFFFFFFFFFF AND DUP2 MSTORE PUSH1 0x20 ADD SWAP1 DUP2 MSTORE PUSH1 0x20 ADD PUSH0 KECCAK256 SLOAD LT ISZERO PUSH2 0x1C0 JUMPI PUSH0 DUP1 REVERT JUMPDEST DUP1 PUSH1 0x1 PUSH0 CALLER PUSH20 0xFFFFFFFFFFFFFFFFFFFFFFFFFFFFFFFFFFFFFFFF AND PUSH20 0xFFFFFFFFFFFFFFFFFFFFFFFFFFFFFFFFFFFFFFFF AND DUP2 MSTORE PUSH1 0x20 ADD SWAP1 DUP2 MSTORE PUSH1 0x20 ADD PUSH0 KECCAK256 PUSH0 DUP3 DUP3 SLOAD PUSH2 0x20C SWAP2 SWAP1 PUSH2 0x7EE JUMP JUMPDEST SWAP3 POP POP DUP2 SWAP1 SSTORE POP CALLER PUSH20 0xFFFFFFFFFFFFFFFFFFFFFFFFFFFFFFFFFFFFFFFF AND PUSH2 0x8FC DUP3 SWAP1 DUP2 ISZERO MUL SWAP1 PUSH1 0x40 MLOAD PUSH0 PUSH1 0x40 MLOAD DUP1 DUP4 SUB DUP2 DUP6 DUP9 DUP9 CALL SWAP4 POP POP POP POP ISZERO DUP1 ISZERO PUSH2 0x256 JUMPI RETURNDATASIZE PUSH0 DUP1 RETURNDATACOPY RETURNDATASIZE PUSH0 REVERT JUMPDEST POP POP JUMP JUMPDEST PUSH0 DUP1 SLOAD SWAP1 PUSH2 0x100 EXP SWAP1 DIV PUSH20 0xFFFFFFFFFFFFFFFFFFFFFFFFFFFFFFFFFFFFFFFF AND PUSH20 0xFFFFFFFFFFFFFFFFFFFFFFFFFFFFFFFFFFFFFFFF AND CALLER PUSH20 0xFFFFFFFFFFFFFFFFFFFFFFFFFFFFFFFFFFFFFFFF AND EQ PUSH2 0x2E7 JUMPI PUSH1 0x40 MLOAD PUSH32 0x8C379A000000000000000000000000000000000000000000000000000000000 DUP2 MSTORE PUSH1 0x4 ADD PUSH2 0x2DE SWAP1 PUSH2 0x87B JUMP JUMPDEST PUSH1 0x40 MLOAD DUP1 SWAP2 SUB SWAP1 REVERT JUMPDEST DUP1 PUSH1 0x1 PUSH0 DUP5 PUSH20 0xFFFFFFFFFFFFFFFFFFFFFFFFFFFFFFFFFFFFFFFF AND PUSH20 0xFFFFFFFFFFFFFFFFFFFFFFFFFFFFFFFFFFFFFFFF AND DUP2 MSTORE PUSH1 0x20 ADD SWAP1 DUP2 MSTORE PUSH1 0x20 ADD PUSH0 KECCAK256 PUSH0 DUP3 DUP3 SLOAD PUSH2 0x333 SWAP2 SWAP1 PUSH2 0x899 JUMP JUMPDEST SWAP3 POP POP DUP2 SWAP1 SSTORE POP POP POP JUMP JUMPDEST PUSH0 PUSH1 0x1 PUSH0 DUP4 PUSH20 0xFFFFFFFFFFFFFFFFFFFFFFFFFFFFFFFFFFFFFFFF AND PUSH20 0xFFFFFFFFFFFFFFFFFFFFFFFFFFFFFFFFFFFFFFFF AND DUP2 MSTORE PUSH1 0x20 ADD SWAP1 DUP2 MSTORE PUSH1 0x20 ADD PUSH0 KECCAK256 SLOAD SWAP1 POP SWAP2 SWAP1 POP JUMP JUMPDEST PUSH0 DUP1 SLOAD SWAP1 PUSH2 0x100 EXP SWAP1 DIV PUSH20 0xFFFFFFFFFFFFFFFFFFFFFFFFFFFFFFFFFFFFFFFF AND DUP2 JUMP JUMPDEST PUSH0 DUP1 SLOAD SWAP1 PUSH2 0x100 EXP SWAP1 DIV PUSH20 0xFFFFFFFFFFFFFFFFFFFFFFFFFFFFFFFFFFFFFFFF AND PUSH20 0xFFFFFFFFFFFFFFFFFFFFFFFFFFFFFFFFFFFFFFFF AND CALLER PUSH20 0xFFFFFFFFFFFFFFFFFFFFFFFFFFFFFFFFFFFFFFFF AND EQ PUSH2 0x434 JUMPI PUSH1 0x40 MLOAD PUSH32 0x8C379A000000000000000000000000000000000000000000000000000000000 DUP2 MSTORE PUSH1 0x4 ADD PUSH2 0x42B SWAP1 PUSH2 0x87B JUMP JUMPDEST PUSH1 0x40 MLOAD DUP1 SWAP2 SUB SWAP1 REVERT JUMPDEST DUP1 PUSH1 0x1 PUSH0 DUP5 PUSH20 0xFFFFFFFFFFFFFFFFFFFFFFFFFFFFFFFFFFFFFFFF AND PUSH20 0xFFFFFFFFFFFFFFFFFFFFFFFFFFFFFFFFFFFFFFFF AND DUP2 MSTORE PUSH1 0x20 ADD SWAP1 DUP2 MSTORE PUSH1 0x20 ADD PUSH0 KECCAK256 PUSH0 DUP3 DUP3 SLOAD PUSH2 0x480 SWAP2 SWAP1 PUSH2 0x7EE JUMP JUMPDEST SWAP3 POP POP DUP2 SWAP1 SSTORE POP POP POP JUMP JUMPDEST DUP1 PUSH1 0x1 PUSH0 CALLER PUSH20 0xFFFFFFFFFFFFFFFFFFFFFFFFFFFFFFFFFFFFFFFF AND PUSH20 0xFFFFFFFFFFFFFFFFFFFFFFFFFFFFFFFFFFFFFFFF AND DUP2 MSTORE PUSH1 0x20 ADD SWAP1 DUP2 MSTORE PUSH1 0x20 ADD PUSH0 KECCAK256 SLOAD LT ISZERO PUSH2 0x4D4 JUMPI PUSH0 DUP1 REVERT JUMPDEST DUP2 PUSH20 0xFFFFFFFFFFFFFFFFFFFFFFFFFFFFFFFFFFFFFFFF AND CALLER PUSH20 0xFFFFFFFFFFFFFFFFFFFFFFFFFFFFFFFFFFFFFFFF AND SUB PUSH2 0x50B JUMPI PUSH0 DUP1 REVERT JUMPDEST DUP1 PUSH1 0x1 PUSH0 CALLER PUSH20 0xFFFFFFFFFFFFFFFFFFFFFFFFFFFFFFFFFFFFFFFF AND PUSH20 0xFFFFFFFFFFFFFFFFFFFFFFFFFFFFFFFFFFFFFFFF AND DUP2 MSTORE PUSH1 0x20 ADD SWAP1 DUP2 MSTORE PUSH1 0x20 ADD PUSH0 KECCAK256 PUSH0 DUP3 DUP3 SLOAD PUSH2 0x557 SWAP2 SWAP1 PUSH2 0x7EE JUMP JUMPDEST SWAP3 POP POP DUP2 SWAP1 SSTORE POP DUP1 PUSH1 0x1 PUSH0 DUP5 PUSH20 0xFFFFFFFFFFFFFFFFFFFFFFFFFFFFFFFFFFFFFFFF AND PUSH20 0xFFFFFFFFFFFFFFFFFFFFFFFFFFFFFFFFFFFFFFFF AND DUP2 MSTORE PUSH1 0x20 ADD SWAP1 DUP2 MSTORE PUSH1 0x20 ADD PUSH0 KECCAK256 PUSH0 DUP3 DUP3 SLOAD PUSH2 0x5AA SWAP2 SWAP1 PUSH2 0x899 JUMP JUMPDEST SWAP3 POP POP DUP2 SWAP1 SSTORE POP POP POP JUMP JUMPDEST PUSH0 CALLVALUE GT PUSH2 0x5F7 JUMPI PUSH1 0x40 MLOAD PUSH32 0x8C379A000000000000000000000000000000000000000000000000000000000 DUP2 MSTORE PUSH1 0x4 ADD PUSH2 0x5EE SWAP1 PUSH2 0x916 JUMP JUMPDEST PUSH1 0x40 MLOAD DUP1 SWAP2 SUB SWAP1 REVERT JUMPDEST CALLVALUE PUSH1 0x1 PUSH0 CALLER PUSH20 0xFFFFFFFFFFFFFFFFFFFFFFFFFFFFFFFFFFFFFFFF AND PUSH20 0xFFFFFFFFFFFFFFFFFFFFFFFFFFFFFFFFFFFFFFFF AND DUP2 MSTORE PUSH1 0x20 ADD SWAP1 DUP2 MSTORE PUSH1 0x20 ADD PUSH0 KECCAK256 PUSH0 DUP3 DUP3 SLOAD PUSH2 0x643 SWAP2 SWAP1 PUSH2 0x899 JUMP JUMPDEST SWAP3 POP POP DUP2 SWAP1 SSTORE POP JUMP JUMPDEST PUSH0 DUP1 REVERT JUMPDEST PUSH0 DUP2 SWAP1 POP SWAP2 SWAP1 POP JUMP JUMPDEST PUSH2 0x662 DUP2 PUSH2 0x650 JUMP JUMPDEST DUP2 EQ PUSH2 0x66C JUMPI PUSH0 DUP1 REVERT JUMPDEST POP JUMP JUMPDEST PUSH0 DUP2 CALLDATALOAD SWAP1 POP PUSH2 0x67D DUP2 PUSH2 0x659 JUMP JUMPDEST SWAP3 SWAP2 POP POP JUMP JUMPDEST PUSH0 PUSH1 0x20 DUP3 DUP5 SUB SLT ISZERO PUSH2 0x698 JUMPI PUSH2 0x697 PUSH2 0x64C JUMP JUMPDEST JUMPDEST PUSH0 PUSH2 0x6A5 DUP5 DUP3 DUP6 ADD PUSH2 0x66F JUMP JUMPDEST SWAP2 POP POP SWAP3 SWAP2 POP POP JUMP JUMPDEST PUSH0 PUSH20 0xFFFFFFFFFFFFFFFFFFFFFFFFFFFFFFFFFFFFFFFF DUP3 AND SWAP1 POP SWAP2 SWAP1 POP JUMP JUMPDEST PUSH0 PUSH2 0x6D7 DUP3 PUSH2 0x6AE JUMP JUMPDEST SWAP1 POP SWAP2 SWAP1 POP JUMP JUMPDEST PUSH2 0x6E7 DUP2 PUSH2 0x6CD JUMP JUMPDEST DUP2 EQ PUSH2 0x6F1 JUMPI PUSH0 DUP1 REVERT JUMPDEST POP JUMP JUMPDEST PUSH0 DUP2 CALLDATALOAD SWAP1 POP PUSH2 0x702 DUP2 PUSH2 0x6DE JUMP JUMPDEST SWAP3 SWAP2 POP POP JUMP JUMPDEST PUSH0 DUP1 PUSH1 0x40 DUP4 DUP6 SUB SLT ISZERO PUSH2 0x71E JUMPI PUSH2 0x71D PUSH2 0x64C JUMP JUMPDEST JUMPDEST PUSH0 PUSH2 0x72B DUP6 DUP3 DUP7 ADD PUSH2 0x6F4 JUMP JUMPDEST SWAP3 POP POP PUSH1 0x20 PUSH2 0x73C DUP6 DUP3 DUP7 ADD PUSH2 0x66F JUMP JUMPDEST SWAP2 POP POP SWAP3 POP SWAP3 SWAP1 POP JUMP JUMPDEST PUSH0 PUSH1 0x20 DUP3 DUP5 SUB SLT ISZERO PUSH2 0x75B JUMPI PUSH2 0x75A PUSH2 0x64C JUMP JUMPDEST JUMPDEST PUSH0 PUSH2 0x768 DUP5 DUP3 DUP6 ADD PUSH2 0x6F4 JUMP JUMPDEST SWAP2 POP POP SWAP3 SWAP2 POP POP JUMP JUMPDEST PUSH2 0x77A DUP2 PUSH2 0x650 JUMP JUMPDEST DUP3 MSTORE POP POP JUMP JUMPDEST PUSH0 PUSH1 0x20 DUP3 ADD SWAP1 POP PUSH2 0x793 PUSH0 DUP4 ADD DUP5 PUSH2 0x771 JUMP JUMPDEST SWAP3 SWAP2 POP POP JUMP JUMPDEST PUSH2 0x7A2 DUP2 PUSH2 0x6CD JUMP JUMPDEST DUP3 MSTORE POP POP JUMP JUMPDEST PUSH0 PUSH1 0x20 DUP3 ADD SWAP1 POP PUSH2 0x7BB PUSH0 DUP4 ADD DUP5 PUSH2 0x799 JUMP JUMPDEST SWAP3 SWAP2 POP POP JUMP JUMPDEST PUSH32 0x4E487B7100000000000000000000000000000000000000000000000000000000 PUSH0 MSTORE PUSH1 0x11 PUSH1 0x4 MSTORE PUSH1 0x24 PUSH0 REVERT JUMPDEST PUSH0 PUSH2 0x7F8 DUP3 PUSH2 0x650 JUMP JUMPDEST SWAP2 POP PUSH2 0x803 DUP4 PUSH2 0x650 JUMP JUMPDEST SWAP3 POP DUP3 DUP3 SUB SWAP1 POP DUP2 DUP2 GT ISZERO PUSH2 0x81B JUMPI PUSH2 0x81A PUSH2 0x7C1 JUMP JUMPDEST JUMPDEST SWAP3 SWAP2 POP POP JUMP JUMPDEST PUSH0 DUP3 DUP3 MSTORE PUSH1 0x20 DUP3 ADD SWAP1 POP SWAP3 SWAP2 POP POP JUMP JUMPDEST PUSH32 0x6F6E6C796F776E65720000000000000000000000000000000000000000000000 PUSH0 DUP3 ADD MSTORE POP JUMP JUMPDEST PUSH0 PUSH2 0x865 PUSH1 0x9 DUP4 PUSH2 0x821 JUMP JUMPDEST SWAP2 POP PUSH2 0x870 DUP3 PUSH2 0x831 JUMP JUMPDEST PUSH1 0x20 DUP3 ADD SWAP1 POP SWAP2 SWAP1 POP JUMP JUMPDEST PUSH0 PUSH1 0x20 DUP3 ADD SWAP1 POP DUP2 DUP2 SUB PUSH0 DUP4 ADD MSTORE PUSH2 0x892 DUP2 PUSH2 0x859 JUMP JUMPDEST SWAP1 POP SWAP2 SWAP1 POP JUMP JUMPDEST PUSH0 PUSH2 0x8A3 DUP3 PUSH2 0x650 JUMP JUMPDEST SWAP2 POP PUSH2 0x8AE DUP4 PUSH2 0x650 JUMP JUMPDEST SWAP3 POP DUP3 DUP3 ADD SWAP1 POP DUP1 DUP3 GT ISZERO PUSH2 0x8C6 JUMPI PUSH2 0x8C5 PUSH2 0x7C1 JUMP JUMPDEST JUMPDEST SWAP3 SWAP2 POP POP JUMP JUMPDEST PUSH32 0x61726520796F75206B696464696E67206D653F00000000000000000000000000 PUSH0 DUP3 ADD MSTORE POP JUMP JUMPDEST PUSH0 PUSH2 0x900 PUSH1 0x13 DUP4 PUSH2 0x821 JUMP JUMPDEST SWAP2 POP PUSH2 0x90B DUP3 PUSH2 0x8CC JUMP JUMPDEST PUSH1 0x20 DUP3 ADD SWAP1 POP SWAP2 SWAP1 POP JUMP JUMPDEST PUSH0 PUSH1 0x20 DUP3 ADD SWAP1 POP DUP2 DUP2 SUB PUSH0 DUP4 ADD MSTORE PUSH2 0x92D DUP2 PUSH2 0x8F4 JUMP JUMPDEST SWAP1 POP SWAP2 SWAP1 POP JUMP INVALID LOG2 PUSH5 0x6970667358 0x22 SLT KECCAK256 0xD9 0xF9 PC MULMOD COINBASE PUSH22 0xC2B59ABD18E18C897FC599A93CEF2BE8096CF4378B42 0xD6 SAR 0xEB 0xBC PUSH5 0x736F6C6343 STOP ADDMOD OR STOP CALLER "
				},
				"gasEstimates": {
					"creation": {
						"codeDepositCost": "482000",
						"executionCost": "infinite",
						"totalCost": "infinite"
					},
					"external": {
						"balanceOf(address)": "2874",
						"burn(address,uint256)": "infinite",
						"deposit()": "infinite",
						"mint(address,uint256)": "infinite",
						"owner()": "2505",
						"transfer(address,uint256)": "infinite",
						"withdraw(uint256)": "infinite"
					}
				},
				"methodIdentifiers": {
					"balanceOf(address)": "70a08231",
					"burn(address,uint256)": "9dc29fac",
					"deposit()": "d0e30db0",
					"mint(address,uint256)": "40c10f19",
					"owner()": "8da5cb5b",
					"transfer(address,uint256)": "a9059cbb",
					"withdraw(uint256)": "2e1a7d4d"
				}
			},
			"storageLayout": {
				"storage": [
					{
						"astId": 3,
						"contract": "shoot/1/外部合约引用/2.sol:tokenbank",
						"label": "owner",
						"offset": 0,
						"slot": "0",
						"type": "t_address"
					},
					{
						"astId": 7,
						"contract": "shoot/1/外部合约引用/2.sol:tokenbank",
						"label": "balance",
						"offset": 0,
						"slot": "1",
						"type": "t_mapping(t_address,t_uint256)"
					}
				],
				"types": {
					"t_address": {
						"encoding": "inplace",
						"label": "address",
						"numberOfBytes": "20"
					},
					"t_mapping(t_address,t_uint256)": {
						"encoding": "mapping",
						"key": "t_address",
						"label": "mapping(address => uint256)",
						"numberOfBytes": "32",
						"value": "t_uint256"
					},
					"t_uint256": {
						"encoding": "inplace",
						"label": "uint256",
						"numberOfBytes": "32"
					}
				}
			},
			"userdoc": {
				"kind": "user",
				"methods": {},
				"version": 1
			}
		}
	}
}