{
	"shoot/1/可预测的随机数/1.sol": {
		"vulquery": {
			"abi": [
				{
					"inputs": [
						{
							"internalType": "uint256",
							"name": "answer",
							"type": "uint256"
						}
					],
					"name": "collision",
					"outputs": [],
					"stateMutability": "nonpayable",
					"type": "function"
				},
				{
					"inputs": [
						{
							"internalType": "uint256",
							"name": "",
							"type": "uint256"
						}
					],
					"name": "gate",
					"outputs": [
						{
							"internalType": "bool",
							"name": "",
							"type": "bool"
						}
					],
					"stateMutability": "view",
					"type": "function"
				},
				{
					"inputs": [],
					"name": "i",
					"outputs": [
						{
							"internalType": "uint256",
							"name": "",
							"type": "uint256"
						}
					],
					"stateMutability": "view",
					"type": "function"
				},
				{
					"inputs": [],
					"name": "isComplete",
					"outputs": [
						{
							"internalType": "uint256",
							"name": "",
							"type": "uint256"
						}
					],
					"stateMutability": "nonpayable",
					"type": "function"
				},
				{
					"inputs": [],
					"name": "score",
					"outputs": [
						{
							"internalType": "uint256",
							"name": "",
							"type": "uint256"
						}
					],
					"stateMutability": "view",
					"type": "function"
				}
			],
			"devdoc": {
				"kind": "dev",
				"methods": {},
				"version": 1
			},
			"evm": {
				"assembly": "    /* \"shoot/1/可预测的随机数/1.sol\":78:1373  contract vulquery{\r... */\n  mstore(0x40, 0x80)\n    /* \"shoot/1/可预测的随机数/1.sol\":165:166  0 */\n  0x00\n    /* \"shoot/1/可预测的随机数/1.sol\":151:166  uint public i=0 */\n  0x02\n  sstore\n    /* \"shoot/1/可预测的随机数/1.sol\":78:1373  contract vulquery{\r... */\n  callvalue\n  dup1\n  iszero\n  tag_1\n  jumpi\n  0x00\n  dup1\n  revert\ntag_1:\n  pop\n  dataSize(sub_0)\n  dup1\n  dataOffset(sub_0)\n  0x00\n  codecopy\n  0x00\n  return\nstop\n\nsub_0: assembly {\n        /* \"shoot/1/可预测的随机数/1.sol\":78:1373  contract vulquery{\r... */\n      mstore(0x40, 0x80)\n      callvalue\n      dup1\n      iszero\n      tag_1\n      jumpi\n      0x00\n      dup1\n      revert\n    tag_1:\n      pop\n      jumpi(tag_2, lt(calldatasize, 0x04))\n      shr(0xe0, calldataload(0x00))\n      dup1\n      0x26cbeb7a\n      eq\n      tag_3\n      jumpi\n      dup1\n      0x87a99866\n      eq\n      tag_4\n      jumpi\n      dup1\n      0xb2fa1c9e\n      eq\n      tag_5\n      jumpi\n      dup1\n      0xe5aa3d58\n      eq\n      tag_6\n      jumpi\n      dup1\n      0xefedc669\n      eq\n      tag_7\n      jumpi\n    tag_2:\n      0x00\n      dup1\n      revert\n        /* \"shoot/1/可预测的随机数/1.sol\":680:1068  function collision(uint answer) public {\r... */\n    tag_3:\n      tag_8\n      0x04\n      dup1\n      calldatasize\n      sub\n      0x20\n      dup2\n      lt\n      iszero\n      tag_9\n      jumpi\n      0x00\n      dup1\n      revert\n    tag_9:\n      dup2\n      add\n      swap1\n      dup1\n      dup1\n      calldataload\n      swap1\n      0x20\n      add\n      swap1\n      swap3\n      swap2\n      swap1\n      pop\n      pop\n      pop\n      tag_10\n      jump\t// in\n    tag_8:\n      stop\n        /* \"shoot/1/可预测的随机数/1.sol\":126:144  bool[] public gate */\n    tag_4:\n      tag_11\n      0x04\n      dup1\n      calldatasize\n      sub\n      0x20\n      dup2\n      lt\n      iszero\n      tag_12\n      jumpi\n      0x00\n      dup1\n      revert\n    tag_12:\n      dup2\n      add\n      swap1\n      dup1\n      dup1\n      calldataload\n      swap1\n      0x20\n      add\n      swap1\n      swap3\n      swap2\n      swap1\n      pop\n      pop\n      pop\n      tag_13\n      jump\t// in\n    tag_11:\n      mload(0x40)\n      dup1\n      dup3\n      iszero\n      iszero\n      dup2\n      mstore\n      0x20\n      add\n      swap2\n      pop\n      pop\n      mload(0x40)\n      dup1\n      swap2\n      sub\n      swap1\n      return\n        /* \"shoot/1/可预测的随机数/1.sol\":1074:1370  function isComplete()public returns(uint){\r... */\n    tag_5:\n      tag_14\n      tag_15\n      jump\t// in\n    tag_14:\n      mload(0x40)\n      dup1\n      dup3\n      dup2\n      mstore\n      0x20\n      add\n      swap2\n      pop\n      pop\n      mload(0x40)\n      dup1\n      swap2\n      sub\n      swap1\n      return\n        /* \"shoot/1/可预测的随机数/1.sol\":151:166  uint public i=0 */\n    tag_6:\n      tag_16\n      tag_17\n      jump\t// in\n    tag_16:\n      mload(0x40)\n      dup1\n      dup3\n      dup2\n      mstore\n      0x20\n      add\n      swap2\n      pop\n      pop\n      mload(0x40)\n      dup1\n      swap2\n      sub\n      swap1\n      return\n        /* \"shoot/1/可预测的随机数/1.sol\":102:119  uint public score */\n    tag_7:\n      tag_18\n      tag_19\n      jump\t// in\n    tag_18:\n      mload(0x40)\n      dup1\n      dup3\n      dup2\n      mstore\n      0x20\n      add\n      swap2\n      pop\n      pop\n      mload(0x40)\n      dup1\n      swap2\n      sub\n      swap1\n      return\n        /* \"shoot/1/可预测的随机数/1.sol\":680:1068  function collision(uint answer) public {\r... */\n    tag_10:\n        /* \"shoot/1/可预测的随机数/1.sol\":730:734  gate */\n      0x01\n        /* \"shoot/1/可预测的随机数/1.sol\":740:753  culcu(answer) */\n      tag_21\n        /* \"shoot/1/可预测的随机数/1.sol\":746:752  answer */\n      dup3\n        /* \"shoot/1/可预测的随机数/1.sol\":740:745  culcu */\n      tag_22\n        /* \"shoot/1/可预测的随机数/1.sol\":740:753  culcu(answer) */\n      jump\t// in\n    tag_21:\n        /* \"shoot/1/可预测的随机数/1.sol\":730:754  gate.push(culcu(answer)) */\n      swap1\n      dup1\n      0x01\n      dup2\n      sload\n      add\n      dup1\n      dup3\n      sstore\n      dup1\n      swap2\n      pop\n      pop\n      0x01\n      swap1\n      sub\n      swap1\n      0x00\n      mstore\n      keccak256(0x00, 0x20)\n      swap1\n      0x20\n      swap2\n      dup3\n      dup3\n      div\n      add\n      swap2\n      swap1\n      mod\n      swap1\n      swap2\n      swap1\n      swap2\n      swap1\n      swap2\n      0x0100\n      exp\n      dup2\n      sload\n      dup2\n      0xff\n      mul\n      not\n      and\n      swap1\n      dup4\n      iszero\n      iszero\n      mul\n      or\n      swap1\n      sstore\n      pop\n        /* \"shoot/1/可预测的随机数/1.sol\":777:781  true */\n      0x01\n        /* \"shoot/1/可预测的随机数/1.sol\":768:781  gate[i]==true */\n      iszero\n      iszero\n        /* \"shoot/1/可预测的随机数/1.sol\":768:772  gate */\n      0x01\n        /* \"shoot/1/可预测的随机数/1.sol\":773:774  i */\n      sload(0x02)\n        /* \"shoot/1/可预测的随机数/1.sol\":768:775  gate[i] */\n      dup2\n      sload\n      dup2\n      lt\n      tag_24\n      jumpi\n      invalid\n    tag_24:\n      swap1\n      0x00\n      mstore\n      keccak256(0x00, 0x20)\n      swap1\n      0x20\n      swap2\n      dup3\n      dup3\n      div\n      add\n      swap2\n      swap1\n      mod\n      swap1\n      sload\n      swap1\n      0x0100\n      exp\n      swap1\n      div\n      0xff\n      and\n        /* \"shoot/1/可预测的随机数/1.sol\":768:781  gate[i]==true */\n      iszero\n      iszero\n      eq\n        /* \"shoot/1/可预测的随机数/1.sol\":765:1061  if(gate[i]==true){\r... */\n      iszero\n      tag_26\n      jumpi\n        /* \"shoot/1/可预测的随机数/1.sol\":797:798  i */\n      0x02\n      0x00\n        /* \"shoot/1/可预测的随机数/1.sol\":797:800  i++ */\n      dup2\n      sload\n      dup1\n      swap3\n      swap2\n      swap1\n      0x01\n      add\n      swap2\n      swap1\n      pop\n      sstore\n      pop\n        /* \"shoot/1/可预测的随机数/1.sol\":830:832  10 */\n      0x0a\n        /* \"shoot/1/可预测的随机数/1.sol\":818:822  gate */\n      0x01\n        /* \"shoot/1/可预测的随机数/1.sol\":818:829  gate.length */\n      dup1\n      sload\n      swap1\n      pop\n        /* \"shoot/1/可预测的随机数/1.sol\":818:832  gate.length>10 */\n      gt\n        /* \"shoot/1/可预测的随机数/1.sol\":815:885  if(gate.length>10){\r... */\n      iszero\n      tag_27\n      jumpi\n        /* \"shoot/1/可预测的随机数/1.sol\":852:869  revert(\"To much\") */\n      mload(0x40)\n      0x08c379a000000000000000000000000000000000000000000000000000000000\n      dup2\n      mstore\n      0x04\n      add\n      dup1\n      dup1\n      0x20\n      add\n      dup3\n      dup2\n      sub\n      dup3\n      mstore\n      0x07\n      dup2\n      mstore\n      0x20\n      add\n      dup1\n      0x546f206d75636800000000000000000000000000000000000000000000000000\n      dup2\n      mstore\n      pop\n      0x20\n      add\n      swap2\n      pop\n      pop\n      mload(0x40)\n      dup1\n      swap2\n      sub\n      swap1\n      revert\n        /* \"shoot/1/可预测的随机数/1.sol\":815:885  if(gate.length>10){\r... */\n    tag_27:\n        /* \"shoot/1/可预测的随机数/1.sol\":765:1061  if(gate[i]==true){\r... */\n      jump(tag_28)\n    tag_26:\n        /* \"shoot/1/可预测的随机数/1.sol\":915:926  uint length */\n      0x00\n        /* \"shoot/1/可预测的随机数/1.sol\":927:931  gate */\n      0x01\n        /* \"shoot/1/可预测的随机数/1.sol\":927:938  gate.length */\n      dup1\n      sload\n      swap1\n      pop\n        /* \"shoot/1/可预测的随机数/1.sol\":915:938  uint length=gate.length */\n      swap1\n      pop\n        /* \"shoot/1/可预测的随机数/1.sol\":957:963  uint q */\n      0x00\n        /* \"shoot/1/可预测的随机数/1.sol\":953:1028  for(uint q=0;q<length;q++){\r... */\n    tag_29:\n        /* \"shoot/1/可预测的随机数/1.sol\":968:974  length */\n      dup2\n        /* \"shoot/1/可预测的随机数/1.sol\":966:967  q */\n      dup2\n        /* \"shoot/1/可预测的随机数/1.sol\":966:974  q<length */\n      lt\n        /* \"shoot/1/可预测的随机数/1.sol\":953:1028  for(uint q=0;q<length;q++){\r... */\n      iszero\n      tag_30\n      jumpi\n        /* \"shoot/1/可预测的随机数/1.sol\":998:1002  gate */\n      0x01\n        /* \"shoot/1/可预测的随机数/1.sol\":998:1008  gate.pop() */\n      dup1\n      sload\n      dup1\n      tag_32\n      jumpi\n      invalid\n    tag_32:\n      0x01\n      swap1\n      sub\n      dup2\n      dup2\n      swap1\n      0x00\n      mstore\n      keccak256(0x00, 0x20)\n      swap1\n      0x20\n      swap2\n      dup3\n      dup3\n      div\n      add\n      swap2\n      swap1\n      mod\n      0x0100\n      exp\n      dup2\n      sload\n      swap1\n      0xff\n      mul\n      not\n      and\n      swap1\n      sstore\n      swap1\n      sstore\n        /* \"shoot/1/可预测的随机数/1.sol\":975:978  q++ */\n      dup1\n      dup1\n      0x01\n      add\n      swap2\n      pop\n      pop\n        /* \"shoot/1/可预测的随机数/1.sol\":953:1028  for(uint q=0;q<length;q++){\r... */\n      jump(tag_29)\n    tag_30:\n      pop\n        /* \"shoot/1/可预测的随机数/1.sol\":1048:1049  0 */\n      0x00\n        /* \"shoot/1/可预测的随机数/1.sol\":1046:1047  i */\n      0x02\n        /* \"shoot/1/可预测的随机数/1.sol\":1046:1049  i=0 */\n      dup2\n      swap1\n      sstore\n      pop\n        /* \"shoot/1/可预测的随机数/1.sol\":765:1061  if(gate[i]==true){\r... */\n      pop\n    tag_28:\n        /* \"shoot/1/可预测的随机数/1.sol\":680:1068  function collision(uint answer) public {\r... */\n      pop\n      jump\t// out\n        /* \"shoot/1/可预测的随机数/1.sol\":126:144  bool[] public gate */\n    tag_13:\n      0x01\n      dup2\n      dup2\n      sload\n      dup2\n      lt\n      tag_34\n      jumpi\n      invalid\n    tag_34:\n      swap1\n      0x00\n      mstore\n      keccak256(0x00, 0x20)\n      swap1\n      0x20\n      swap2\n      dup3\n      dup3\n      div\n      add\n      swap2\n      swap1\n      mod\n      swap2\n      pop\n      sload\n      swap1\n      0x0100\n      exp\n      swap1\n      div\n      0xff\n      and\n      dup2\n      jump\t// out\n        /* \"shoot/1/可预测的随机数/1.sol\":1074:1370  function isComplete()public returns(uint){\r... */\n    tag_15:\n        /* \"shoot/1/可预测的随机数/1.sol\":1110:1114  uint */\n      0x00\n        /* \"shoot/1/可预测的随机数/1.sol\":1132:1133  0 */\n      dup1\n        /* \"shoot/1/可预测的随机数/1.sol\":1126:1131  score */\n      0x00\n        /* \"shoot/1/可预测的随机数/1.sol\":1126:1133  score=0 */\n      dup2\n      swap1\n      sstore\n      pop\n        /* \"shoot/1/可预测的随机数/1.sol\":1161:1162  8 */\n      0x08\n        /* \"shoot/1/可预测的随机数/1.sol\":1148:1152  gate */\n      0x01\n        /* \"shoot/1/可预测的随机数/1.sol\":1148:1159  gate.length */\n      dup1\n      sload\n      swap1\n      pop\n        /* \"shoot/1/可预测的随机数/1.sol\":1148:1162  gate.length<=8 */\n      gt\n      iszero\n        /* \"shoot/1/可预测的随机数/1.sol\":1148:1177  gate.length<=8&&gate.length>0 */\n      dup1\n      iszero\n      tag_37\n      jumpi\n      pop\n        /* \"shoot/1/可预测的随机数/1.sol\":1176:1177  0 */\n      0x00\n        /* \"shoot/1/可预测的随机数/1.sol\":1164:1168  gate */\n      0x01\n        /* \"shoot/1/可预测的随机数/1.sol\":1164:1175  gate.length */\n      dup1\n      sload\n      swap1\n      pop\n        /* \"shoot/1/可预测的随机数/1.sol\":1164:1177  gate.length>0 */\n      gt\n        /* \"shoot/1/可预测的随机数/1.sol\":1148:1177  gate.length<=8&&gate.length>0 */\n    tag_37:\n        /* \"shoot/1/可预测的随机数/1.sol\":1144:1363  if (gate.length<=8&&gate.length>0){score=30;}\r... */\n      iszero\n      tag_38\n      jumpi\n        /* \"shoot/1/可预测的随机数/1.sol\":1185:1187  30 */\n      0x1e\n        /* \"shoot/1/可预测的随机数/1.sol\":1179:1184  score */\n      0x00\n        /* \"shoot/1/可预测的随机数/1.sol\":1179:1187  score=30 */\n      dup2\n      swap1\n      sstore\n      pop\n        /* \"shoot/1/可预测的随机数/1.sol\":1144:1363  if (gate.length<=8&&gate.length>0){score=30;}\r... */\n      jump(tag_39)\n    tag_38:\n        /* \"shoot/1/可预测的随机数/1.sol\":1222:1228  uint q */\n      0x00\n        /* \"shoot/1/可预测的随机数/1.sol\":1218:1352  for(uint q=0;q<gate.length;q++){\r... */\n    tag_40:\n        /* \"shoot/1/可预测的随机数/1.sol\":1233:1237  gate */\n      0x01\n        /* \"shoot/1/可预测的随机数/1.sol\":1233:1244  gate.length */\n      dup1\n      sload\n      swap1\n      pop\n        /* \"shoot/1/可预测的随机数/1.sol\":1231:1232  q */\n      dup2\n        /* \"shoot/1/可预测的随机数/1.sol\":1231:1244  q<gate.length */\n      lt\n        /* \"shoot/1/可预测的随机数/1.sol\":1218:1352  for(uint q=0;q<gate.length;q++){\r... */\n      iszero\n      tag_41\n      jumpi\n        /* \"shoot/1/可预测的随机数/1.sol\":1280:1284  true */\n      0x01\n        /* \"shoot/1/可预测的随机数/1.sol\":1271:1284  gate[q]==true */\n      iszero\n      iszero\n        /* \"shoot/1/可预测的随机数/1.sol\":1271:1275  gate */\n      0x01\n        /* \"shoot/1/可预测的随机数/1.sol\":1276:1277  q */\n      dup3\n        /* \"shoot/1/可预测的随机数/1.sol\":1271:1278  gate[q] */\n      dup2\n      sload\n      dup2\n      lt\n      tag_43\n      jumpi\n      invalid\n    tag_43:\n      swap1\n      0x00\n      mstore\n      keccak256(0x00, 0x20)\n      swap1\n      0x20\n      swap2\n      dup3\n      dup3\n      div\n      add\n      swap2\n      swap1\n      mod\n      swap1\n      sload\n      swap1\n      0x0100\n      exp\n      swap1\n      div\n      0xff\n      and\n        /* \"shoot/1/可预测的随机数/1.sol\":1271:1284  gate[q]==true */\n      iszero\n      iszero\n      eq\n        /* \"shoot/1/可预测的随机数/1.sol\":1268:1337  if(gate[q]==true){\r... */\n      iszero\n      tag_45\n      jumpi\n        /* \"shoot/1/可预测的随机数/1.sol\":1315:1317  10 */\n      0x0a\n        /* \"shoot/1/可预测的随机数/1.sol\":1308:1313  score */\n      0x00\n      dup1\n        /* \"shoot/1/可预测的随机数/1.sol\":1308:1317  score+=10 */\n      dup3\n      dup3\n      sload\n      add\n      swap3\n      pop\n      pop\n      dup2\n      swap1\n      sstore\n      pop\n        /* \"shoot/1/可预测的随机数/1.sol\":1268:1337  if(gate[q]==true){\r... */\n    tag_45:\n        /* \"shoot/1/可预测的随机数/1.sol\":1245:1248  q++ */\n      dup1\n      dup1\n      0x01\n      add\n      swap2\n      pop\n      pop\n        /* \"shoot/1/可预测的随机数/1.sol\":1218:1352  for(uint q=0;q<gate.length;q++){\r... */\n      jump(tag_40)\n    tag_41:\n      pop\n        /* \"shoot/1/可预测的随机数/1.sol\":1144:1363  if (gate.length<=8&&gate.length>0){score=30;}\r... */\n    tag_39:\n        /* \"shoot/1/可预测的随机数/1.sol\":1074:1370  function isComplete()public returns(uint){\r... */\n      swap1\n      jump\t// out\n        /* \"shoot/1/可预测的随机数/1.sol\":151:166  uint public i=0 */\n    tag_17:\n      sload(0x02)\n      dup2\n      jump\t// out\n        /* \"shoot/1/可预测的随机数/1.sol\":102:119  uint public score */\n    tag_19:\n      sload(0x00)\n      dup2\n      jump\t// out\n        /* \"shoot/1/可预测的随机数/1.sol\":175:674  function culcu(uint _answer) internal view returns (bool){\r... */\n    tag_22:\n        /* \"shoot/1/可预测的随机数/1.sol\":227:231  bool */\n      0x00\n        /* \"shoot/1/可预测的随机数/1.sol\":243:255  uint MOD_NUM */\n      dup1\n        /* \"shoot/1/可预测的随机数/1.sol\":256:258  60 */\n      0x3c\n        /* \"shoot/1/可预测的随机数/1.sol\":243:258  uint MOD_NUM=60 */\n      swap1\n      pop\n        /* \"shoot/1/可预测的随机数/1.sol\":269:281  uint256 seed */\n      0x00\n        /* \"shoot/1/可预测的随机数/1.sol\":370:385  block.timestamp */\n      timestamp\n        /* \"shoot/1/可预测的随机数/1.sol\":353:386  abi.encodePacked(block.timestamp) */\n      add(0x20, mload(0x40))\n      dup1\n      dup3\n      dup2\n      mstore\n      0x20\n      add\n      swap2\n      pop\n      pop\n      mload(0x40)\n      0x20\n      dup2\n      dup4\n      sub\n      sub\n      dup2\n      mstore\n      swap1\n      0x40\n      mstore\n        /* \"shoot/1/可预测的随机数/1.sol\":343:387  keccak256(abi.encodePacked(block.timestamp)) */\n      dup1\n      mload\n      swap1\n      0x20\n      add\n      keccak256\n        /* \"shoot/1/可预测的随机数/1.sol\":335:388  uint256(keccak256(abi.encodePacked(block.timestamp))) */\n      0x00\n      shr\n        /* \"shoot/1/可预测的随机数/1.sol\":319:331  block.number */\n      number\n        /* \"shoot/1/可预测的随机数/1.sol\":302:332  abi.encodePacked(block.number) */\n      add(0x20, mload(0x40))\n      dup1\n      dup3\n      dup2\n      mstore\n      0x20\n      add\n      swap2\n      pop\n      pop\n      mload(0x40)\n      0x20\n      dup2\n      dup4\n      sub\n      sub\n      dup2\n      mstore\n      swap1\n      0x40\n      mstore\n        /* \"shoot/1/可预测的随机数/1.sol\":292:333  keccak256(abi.encodePacked(block.number)) */\n      dup1\n      mload\n      swap1\n      0x20\n      add\n      keccak256\n        /* \"shoot/1/可预测的随机数/1.sol\":284:334  uint256(keccak256(abi.encodePacked(block.number))) */\n      0x00\n      shr\n        /* \"shoot/1/可预测的随机数/1.sol\":284:388  uint256(keccak256(abi.encodePacked(block.number)))+uint256(keccak256(abi.encodePacked(block.timestamp))) */\n      add\n        /* \"shoot/1/可预测的随机数/1.sol\":269:388  uint256 seed = uint256(keccak256(abi.encodePacked(block.number)))+uint256(keccak256(abi.encodePacked(block.timestamp))) */\n      swap1\n      pop\n        /* \"shoot/1/可预测的随机数/1.sol\":399:416  uint256 seed_hash */\n      0x00\n        /* \"shoot/1/可预测的随机数/1.sol\":454:458  seed */\n      dup2\n        /* \"shoot/1/可预测的随机数/1.sol\":437:459  abi.encodePacked(seed) */\n      add(0x20, mload(0x40))\n      dup1\n      dup3\n      dup2\n      mstore\n      0x20\n      add\n      swap2\n      pop\n      pop\n      mload(0x40)\n      0x20\n      dup2\n      dup4\n      sub\n      sub\n      dup2\n      mstore\n      swap1\n      0x40\n      mstore\n        /* \"shoot/1/可预测的随机数/1.sol\":427:460  keccak256(abi.encodePacked(seed)) */\n      dup1\n      mload\n      swap1\n      0x20\n      add\n      keccak256\n        /* \"shoot/1/可预测的随机数/1.sol\":419:461  uint256(keccak256(abi.encodePacked(seed))) */\n      0x00\n      shr\n        /* \"shoot/1/可预测的随机数/1.sol\":399:461  uint256 seed_hash = uint256(keccak256(abi.encodePacked(seed))) */\n      swap1\n      pop\n        /* \"shoot/1/可预测的随机数/1.sol\":472:485  uint256 shark */\n      0x00\n        /* \"shoot/1/可预测的随机数/1.sol\":500:507  MOD_NUM */\n      dup4\n        /* \"shoot/1/可预测的随机数/1.sol\":488:497  seed_hash */\n      dup3\n        /* \"shoot/1/可预测的随机数/1.sol\":488:507  seed_hash % MOD_NUM */\n      dup2\n      tag_47\n      jumpi\n      invalid\n    tag_47:\n      mod\n        /* \"shoot/1/可预测的随机数/1.sol\":472:507  uint256 shark = seed_hash % MOD_NUM */\n      swap1\n      pop\n        /* \"shoot/1/可预测的随机数/1.sol\":518:536  uint256 lucky_hash */\n      0x00\n        /* \"shoot/1/可预测的随机数/1.sol\":574:584  msg.sender */\n      caller\n        /* \"shoot/1/可预测的随机数/1.sol\":557:585  abi.encodePacked(msg.sender) */\n      add(0x20, mload(0x40))\n      dup1\n      dup3\n      0xffffffffffffffffffffffffffffffffffffffff\n      and\n      0x60\n      shl\n      dup2\n      mstore\n      0x14\n      add\n      swap2\n      pop\n      pop\n      mload(0x40)\n      0x20\n      dup2\n      dup4\n      sub\n      sub\n      dup2\n      mstore\n      swap1\n      0x40\n      mstore\n        /* \"shoot/1/可预测的随机数/1.sol\":547:586  keccak256(abi.encodePacked(msg.sender)) */\n      dup1\n      mload\n      swap1\n      0x20\n      add\n      keccak256\n        /* \"shoot/1/可预测的随机数/1.sol\":539:587  uint256(keccak256(abi.encodePacked(msg.sender))) */\n      0x00\n      shr\n        /* \"shoot/1/可预测的随机数/1.sol\":518:587  uint256 lucky_hash = uint256(keccak256(abi.encodePacked(msg.sender))) */\n      swap1\n      pop\n        /* \"shoot/1/可预测的随机数/1.sol\":598:611  uint256 lucky */\n      0x00\n        /* \"shoot/1/可预测的随机数/1.sol\":627:632  shark */\n      dup3\n        /* \"shoot/1/可预测的随机数/1.sol\":614:624  lucky_hash */\n      dup3\n        /* \"shoot/1/可预测的随机数/1.sol\":614:632  lucky_hash % shark */\n      dup2\n      tag_48\n      jumpi\n      invalid\n    tag_48:\n      mod\n        /* \"shoot/1/可预测的随机数/1.sol\":598:632  uint256 lucky = lucky_hash % shark */\n      swap1\n      pop\n        /* \"shoot/1/可预测的随机数/1.sol\":659:666  _answer */\n      dup8\n        /* \"shoot/1/可预测的随机数/1.sol\":652:657  lucky */\n      dup2\n        /* \"shoot/1/可预测的随机数/1.sol\":652:666  lucky==_answer */\n      eq\n        /* \"shoot/1/可预测的随机数/1.sol\":645:666  return lucky==_answer */\n      swap7\n      pop\n      pop\n      pop\n      pop\n      pop\n      pop\n      pop\n        /* \"shoot/1/可预测的随机数/1.sol\":175:674  function culcu(uint _answer) internal view returns (bool){\r... */\n      swap2\n      swap1\n      pop\n      jump\t// out\n\n    auxdata: 0xa26469706673582212205b60acd14c7a536d42c8b297d0774ef8b07612992510454cab0cdef37afb92f264736f6c634300060c0033\n}\n",
				"bytecode": {
					"linkReferences": {},
					"object": "6080604052600060025534801561001557600080fd5b506104bd806100256000396000f3fe608060405234801561001057600080fd5b50600436106100575760003560e01c806326cbeb7a1461005c57806387a998661461008a578063b2fa1c9e146100ce578063e5aa3d58146100ec578063efedc6691461010a575b600080fd5b6100886004803603602081101561007257600080fd5b8101908080359060200190929190505050610128565b005b6100b6600480360360208110156100a057600080fd5b81019080803590602001909291905050506102a7565b60405180821515815260200191505060405180910390f35b6100d66102d8565b6040518082815260200191505060405180910390f35b6100f461037a565b6040518082815260200191505060405180910390f35b610112610380565b6040518082815260200191505060405180910390f35b600161013382610386565b90806001815401808255809150506001900390600052602060002090602091828204019190069091909190916101000a81548160ff0219169083151502179055506001151560016002548154811061018757fe5b90600052602060002090602091828204019190069054906101000a900460ff161515141561024257600260008154809291906001019190505550600a600180549050111561023d576040517f08c379a00000000000000000000000000000000000000000000000000000000081526004018080602001828103825260078152602001807f546f206d7563680000000000000000000000000000000000000000000000000081525060200191505060405180910390fd5b6102a4565b6000600180549050905060005b8181101561029957600180548061026257fe5b60019003818190600052602060002090602091828204019190066101000a81549060ff02191690559055808060010191505061024f565b506000600281905550505b50565b600181815481106102b457fe5b9060005260206000209060209182820401919006915054906101000a900460ff1681565b6000806000819055506008600180549050111580156102fc57506000600180549050115b1561030e57601e600081905550610377565b60005b60018054905081101561037557600115156001828154811061032f57fe5b90600052602060002090602091828204019190069054906101000a900460ff161515141561036857600a60008082825401925050819055505b8080600101915050610311565b505b90565b60025481565b60005481565b600080603c9050600042604051602001808281526020019150506040516020818303038152906040528051906020012060001c43604051602001808281526020019150506040516020818303038152906040528051906020012060001c019050600081604051602001808281526020019150506040516020818303038152906040528051906020012060001c9050600083828161041f57fe5b069050600033604051602001808273ffffffffffffffffffffffffffffffffffffffff1660601b81526014019150506040516020818303038152906040528051906020012060001c9050600082828161047457fe5b069050878114965050505050505091905056fea26469706673582212205b60acd14c7a536d42c8b297d0774ef8b07612992510454cab0cdef37afb92f264736f6c634300060c0033",
					"opcodes": "PUSH1 0x80 PUSH1 0x40 MSTORE PUSH1 0x0 PUSH1 0x2 SSTORE CALLVALUE DUP1 ISZERO PUSH2 0x15 JUMPI PUSH1 0x0 DUP1 REVERT JUMPDEST POP PUSH2 0x4BD DUP1 PUSH2 0x25 PUSH1 0x0 CODECOPY PUSH1 0x0 RETURN INVALID PUSH1 0x80 PUSH1 0x40 MSTORE CALLVALUE DUP1 ISZERO PUSH2 0x10 JUMPI PUSH1 0x0 DUP1 REVERT JUMPDEST POP PUSH1 0x4 CALLDATASIZE LT PUSH2 0x57 JUMPI PUSH1 0x0 CALLDATALOAD PUSH1 0xE0 SHR DUP1 PUSH4 0x26CBEB7A EQ PUSH2 0x5C JUMPI DUP1 PUSH4 0x87A99866 EQ PUSH2 0x8A JUMPI DUP1 PUSH4 0xB2FA1C9E EQ PUSH2 0xCE JUMPI DUP1 PUSH4 0xE5AA3D58 EQ PUSH2 0xEC JUMPI DUP1 PUSH4 0xEFEDC669 EQ PUSH2 0x10A JUMPI JUMPDEST PUSH1 0x0 DUP1 REVERT JUMPDEST PUSH2 0x88 PUSH1 0x4 DUP1 CALLDATASIZE SUB PUSH1 0x20 DUP2 LT ISZERO PUSH2 0x72 JUMPI PUSH1 0x0 DUP1 REVERT JUMPDEST DUP2 ADD SWAP1 DUP1 DUP1 CALLDATALOAD SWAP1 PUSH1 0x20 ADD SWAP1 SWAP3 SWAP2 SWAP1 POP POP POP PUSH2 0x128 JUMP JUMPDEST STOP JUMPDEST PUSH2 0xB6 PUSH1 0x4 DUP1 CALLDATASIZE SUB PUSH1 0x20 DUP2 LT ISZERO PUSH2 0xA0 JUMPI PUSH1 0x0 DUP1 REVERT JUMPDEST DUP2 ADD SWAP1 DUP1 DUP1 CALLDATALOAD SWAP1 PUSH1 0x20 ADD SWAP1 SWAP3 SWAP2 SWAP1 POP POP POP PUSH2 0x2A7 JUMP JUMPDEST PUSH1 0x40 MLOAD DUP1 DUP3 ISZERO ISZERO DUP2 MSTORE PUSH1 0x20 ADD SWAP2 POP POP PUSH1 0x40 MLOAD DUP1 SWAP2 SUB SWAP1 RETURN JUMPDEST PUSH2 0xD6 PUSH2 0x2D8 JUMP JUMPDEST PUSH1 0x40 MLOAD DUP1 DUP3 DUP2 MSTORE PUSH1 0x20 ADD SWAP2 POP POP PUSH1 0x40 MLOAD DUP1 SWAP2 SUB SWAP1 RETURN JUMPDEST PUSH2 0xF4 PUSH2 0x37A JUMP JUMPDEST PUSH1 0x40 MLOAD DUP1 DUP3 DUP2 MSTORE PUSH1 0x20 ADD SWAP2 POP POP PUSH1 0x40 MLOAD DUP1 SWAP2 SUB SWAP1 RETURN JUMPDEST PUSH2 0x112 PUSH2 0x380 JUMP JUMPDEST PUSH1 0x40 MLOAD DUP1 DUP3 DUP2 MSTORE PUSH1 0x20 ADD SWAP2 POP POP PUSH1 0x40 MLOAD DUP1 SWAP2 SUB SWAP1 RETURN JUMPDEST PUSH1 0x1 PUSH2 0x133 DUP3 PUSH2 0x386 JUMP JUMPDEST SWAP1 DUP1 PUSH1 0x1 DUP2 SLOAD ADD DUP1 DUP3 SSTORE DUP1 SWAP2 POP POP PUSH1 0x1 SWAP1 SUB SWAP1 PUSH1 0x0 MSTORE PUSH1 0x20 PUSH1 0x0 KECCAK256 SWAP1 PUSH1 0x20 SWAP2 DUP3 DUP3 DIV ADD SWAP2 SWAP1 MOD SWAP1 SWAP2 SWAP1 SWAP2 SWAP1 SWAP2 PUSH2 0x100 EXP DUP2 SLOAD DUP2 PUSH1 0xFF MUL NOT AND SWAP1 DUP4 ISZERO ISZERO MUL OR SWAP1 SSTORE POP PUSH1 0x1 ISZERO ISZERO PUSH1 0x1 PUSH1 0x2 SLOAD DUP2 SLOAD DUP2 LT PUSH2 0x187 JUMPI INVALID JUMPDEST SWAP1 PUSH1 0x0 MSTORE PUSH1 0x20 PUSH1 0x0 KECCAK256 SWAP1 PUSH1 0x20 SWAP2 DUP3 DUP3 DIV ADD SWAP2 SWAP1 MOD SWAP1 SLOAD SWAP1 PUSH2 0x100 EXP SWAP1 DIV PUSH1 0xFF AND ISZERO ISZERO EQ ISZERO PUSH2 0x242 JUMPI PUSH1 0x2 PUSH1 0x0 DUP2 SLOAD DUP1 SWAP3 SWAP2 SWAP1 PUSH1 0x1 ADD SWAP2 SWAP1 POP SSTORE POP PUSH1 0xA PUSH1 0x1 DUP1 SLOAD SWAP1 POP GT ISZERO PUSH2 0x23D JUMPI PUSH1 0x40 MLOAD PUSH32 0x8C379A000000000000000000000000000000000000000000000000000000000 DUP2 MSTORE PUSH1 0x4 ADD DUP1 DUP1 PUSH1 0x20 ADD DUP3 DUP2 SUB DUP3 MSTORE PUSH1 0x7 DUP2 MSTORE PUSH1 0x20 ADD DUP1 PUSH32 0x546F206D75636800000000000000000000000000000000000000000000000000 DUP2 MSTORE POP PUSH1 0x20 ADD SWAP2 POP POP PUSH1 0x40 MLOAD DUP1 SWAP2 SUB SWAP1 REVERT JUMPDEST PUSH2 0x2A4 JUMP JUMPDEST PUSH1 0x0 PUSH1 0x1 DUP1 SLOAD SWAP1 POP SWAP1 POP PUSH1 0x0 JUMPDEST DUP2 DUP2 LT ISZERO PUSH2 0x299 JUMPI PUSH1 0x1 DUP1 SLOAD DUP1 PUSH2 0x262 JUMPI INVALID JUMPDEST PUSH1 0x1 SWAP1 SUB DUP2 DUP2 SWAP1 PUSH1 0x0 MSTORE PUSH1 0x20 PUSH1 0x0 KECCAK256 SWAP1 PUSH1 0x20 SWAP2 DUP3 DUP3 DIV ADD SWAP2 SWAP1 MOD PUSH2 0x100 EXP DUP2 SLOAD SWAP1 PUSH1 0xFF MUL NOT AND SWAP1 SSTORE SWAP1 SSTORE DUP1 DUP1 PUSH1 0x1 ADD SWAP2 POP POP PUSH2 0x24F JUMP JUMPDEST POP PUSH1 0x0 PUSH1 0x2 DUP2 SWAP1 SSTORE POP POP JUMPDEST POP JUMP JUMPDEST PUSH1 0x1 DUP2 DUP2 SLOAD DUP2 LT PUSH2 0x2B4 JUMPI INVALID JUMPDEST SWAP1 PUSH1 0x0 MSTORE PUSH1 0x20 PUSH1 0x0 KECCAK256 SWAP1 PUSH1 0x20 SWAP2 DUP3 DUP3 DIV ADD SWAP2 SWAP1 MOD SWAP2 POP SLOAD SWAP1 PUSH2 0x100 EXP SWAP1 DIV PUSH1 0xFF AND DUP2 JUMP JUMPDEST PUSH1 0x0 DUP1 PUSH1 0x0 DUP2 SWAP1 SSTORE POP PUSH1 0x8 PUSH1 0x1 DUP1 SLOAD SWAP1 POP GT ISZERO DUP1 ISZERO PUSH2 0x2FC JUMPI POP PUSH1 0x0 PUSH1 0x1 DUP1 SLOAD SWAP1 POP GT JUMPDEST ISZERO PUSH2 0x30E JUMPI PUSH1 0x1E PUSH1 0x0 DUP2 SWAP1 SSTORE POP PUSH2 0x377 JUMP JUMPDEST PUSH1 0x0 JUMPDEST PUSH1 0x1 DUP1 SLOAD SWAP1 POP DUP2 LT ISZERO PUSH2 0x375 JUMPI PUSH1 0x1 ISZERO ISZERO PUSH1 0x1 DUP3 DUP2 SLOAD DUP2 LT PUSH2 0x32F JUMPI INVALID JUMPDEST SWAP1 PUSH1 0x0 MSTORE PUSH1 0x20 PUSH1 0x0 KECCAK256 SWAP1 PUSH1 0x20 SWAP2 DUP3 DUP3 DIV ADD SWAP2 SWAP1 MOD SWAP1 SLOAD SWAP1 PUSH2 0x100 EXP SWAP1 DIV PUSH1 0xFF AND ISZERO ISZERO EQ ISZERO PUSH2 0x368 JUMPI PUSH1 0xA PUSH1 0x0 DUP1 DUP3 DUP3 SLOAD ADD SWAP3 POP POP DUP2 SWAP1 SSTORE POP JUMPDEST DUP1 DUP1 PUSH1 0x1 ADD SWAP2 POP POP PUSH2 0x311 JUMP JUMPDEST POP JUMPDEST SWAP1 JUMP JUMPDEST PUSH1 0x2 SLOAD DUP2 JUMP JUMPDEST PUSH1 0x0 SLOAD DUP2 JUMP JUMPDEST PUSH1 0x0 DUP1 PUSH1 0x3C SWAP1 POP PUSH1 0x0 TIMESTAMP PUSH1 0x40 MLOAD PUSH1 0x20 ADD DUP1 DUP3 DUP2 MSTORE PUSH1 0x20 ADD SWAP2 POP POP PUSH1 0x40 MLOAD PUSH1 0x20 DUP2 DUP4 SUB SUB DUP2 MSTORE SWAP1 PUSH1 0x40 MSTORE DUP1 MLOAD SWAP1 PUSH1 0x20 ADD KECCAK256 PUSH1 0x0 SHR NUMBER PUSH1 0x40 MLOAD PUSH1 0x20 ADD DUP1 DUP3 DUP2 MSTORE PUSH1 0x20 ADD SWAP2 POP POP PUSH1 0x40 MLOAD PUSH1 0x20 DUP2 DUP4 SUB SUB DUP2 MSTORE SWAP1 PUSH1 0x40 MSTORE DUP1 MLOAD SWAP1 PUSH1 0x20 ADD KECCAK256 PUSH1 0x0 SHR ADD SWAP1 POP PUSH1 0x0 DUP2 PUSH1 0x40 MLOAD PUSH1 0x20 ADD DUP1 DUP3 DUP2 MSTORE PUSH1 0x20 ADD SWAP2 POP POP PUSH1 0x40 MLOAD PUSH1 0x20 DUP2 DUP4 SUB SUB DUP2 MSTORE SWAP1 PUSH1 0x40 MSTORE DUP1 MLOAD SWAP1 PUSH1 0x20 ADD KECCAK256 PUSH1 0x0 SHR SWAP1 POP PUSH1 0x0 DUP4 DUP3 DUP2 PUSH2 0x41F JUMPI INVALID JUMPDEST MOD SWAP1 POP PUSH1 0x0 CALLER PUSH1 0x40 MLOAD PUSH1 0x20 ADD DUP1 DUP3 PUSH20 0xFFFFFFFFFFFFFFFFFFFFFFFFFFFFFFFFFFFFFFFF AND PUSH1 0x60 SHL DUP2 MSTORE PUSH1 0x14 ADD SWAP2 POP POP PUSH1 0x40 MLOAD PUSH1 0x20 DUP2 DUP4 SUB SUB DUP2 MSTORE SWAP1 PUSH1 0x40 MSTORE DUP1 MLOAD SWAP1 PUSH1 0x20 ADD KECCAK256 PUSH1 0x0 SHR SWAP1 POP PUSH1 0x0 DUP3 DUP3 DUP2 PUSH2 0x474 JUMPI INVALID JUMPDEST MOD SWAP1 POP DUP8 DUP2 EQ SWAP7 POP POP POP POP POP POP POP SWAP2 SWAP1 POP JUMP INVALID LOG2 PUSH5 0x6970667358 0x22 SLT KECCAK256 JUMPDEST PUSH1 0xAC 0xD1 0x4C PUSH27 0x536D42C8B297D0774EF8B07612992510454CAB0CDEF37AFB92F264 PUSH20 0x6F6C634300060C00330000000000000000000000 "
				},
				"gasEstimates": {
					"creation": {
						"codeDepositCost": "242600",
						"executionCost": "5287",
						"totalCost": "247887"
					},
					"external": {
						"collision(uint256)": "infinite",
						"gate(uint256)": "3639",
						"i()": "1049",
						"isComplete()": "infinite",
						"score()": "1071"
					},
					"internal": {
						"culcu(uint256)": "infinite"
					}
				},
				"methodIdentifiers": {
					"collision(uint256)": "26cbeb7a",
					"gate(uint256)": "87a99866",
					"i()": "e5aa3d58",
					"isComplete()": "b2fa1c9e",
					"score()": "efedc669"
				}
			},
			"storageLayout": {
				"storage": [
					{
						"astId": 3,
						"contract": "shoot/1/可预测的随机数/1.sol:vulquery",
						"label": "score",
						"offset": 0,
						"slot": "0",
						"type": "t_uint256"
					},
					{
						"astId": 6,
						"contract": "shoot/1/可预测的随机数/1.sol:vulquery",
						"label": "gate",
						"offset": 0,
						"slot": "1",
						"type": "t_array(t_bool)dyn_storage"
					},
					{
						"astId": 9,
						"contract": "shoot/1/可预测的随机数/1.sol:vulquery",
						"label": "i",
						"offset": 0,
						"slot": "2",
						"type": "t_uint256"
					}
				],
				"types": {
					"t_array(t_bool)dyn_storage": {
						"base": "t_bool",
						"encoding": "dynamic_array",
						"label": "bool[]",
						"numberOfBytes": "32"
					},
					"t_bool": {
						"encoding": "inplace",
						"label": "bool",
						"numberOfBytes": "1"
					},
					"t_uint256": {
						"encoding": "inplace",
						"label": "uint256",
						"numberOfBytes": "32"
					}
				}
			},
			"userdoc": {
				"kind": "user",
				"methods": {},
				"version": 1
			}
		}
	}
}