{
	"shoot/1/可预测的随机数/1attrract.sol": {
		"Attract": {
			"abi": [
				{
					"inputs": [
						{
							"internalType": "contract vulquery",
							"name": "addr",
							"type": "address"
						}
					],
					"stateMutability": "nonpayable",
					"type": "constructor"
				},
				{
					"inputs": [],
					"name": "aatract",
					"outputs": [],
					"stateMutability": "nonpayable",
					"type": "function"
				}
			],
			"devdoc": {
				"kind": "dev",
				"methods": {},
				"version": 1
			},
			"evm": {
				"assembly": "    /* \"shoot/1/可预测的随机数/1attrract.sol\":97:804  contract Attract{\r... */\n  mstore(0x40, 0x80)\n    /* \"shoot/1/可预测的随机数/1attrract.sol\":145:213  constructor(vulquery addr)public {\r... */\n  callvalue\n  dup1\n  iszero\n  tag_1\n  jumpi\n  0x00\n  dup1\n  revert\ntag_1:\n  pop\n  mload(0x40)\n  sub(codesize, bytecodeSize)\n  dup1\n  bytecodeSize\n  dup4\n  codecopy\n  dup2\n  dup2\n  add\n  0x40\n  mstore\n  0x20\n  dup2\n  lt\n  iszero\n  tag_2\n  jumpi\n  0x00\n  dup1\n  revert\ntag_2:\n  dup2\n  add\n  swap1\n  dup1\n  dup1\n  mload\n  swap1\n  0x20\n  add\n  swap1\n  swap3\n  swap2\n  swap1\n  pop\n  pop\n  pop\n    /* \"shoot/1/可预测的随机数/1attrract.sol\":201:205  addr */\n  dup1\n    /* \"shoot/1/可预测的随机数/1attrract.sol\":189:198  vulquery1 */\n  0x00\n  dup1\n    /* \"shoot/1/可预测的随机数/1attrract.sol\":189:205  vulquery1 = addr */\n  0x0100\n  exp\n  dup2\n  sload\n  dup2\n  0xffffffffffffffffffffffffffffffffffffffff\n  mul\n  not\n  and\n  swap1\n  dup4\n  0xffffffffffffffffffffffffffffffffffffffff\n  and\n  mul\n  or\n  swap1\n  sstore\n  pop\n    /* \"shoot/1/可预测的随机数/1attrract.sol\":145:213  constructor(vulquery addr)public {\r... */\n  pop\n    /* \"shoot/1/可预测的随机数/1attrract.sol\":97:804  contract Attract{\r... */\n  dataSize(sub_0)\n  dup1\n  dataOffset(sub_0)\n  0x00\n  codecopy\n  0x00\n  return\nstop\n\nsub_0: assembly {\n        /* \"shoot/1/可预测的随机数/1attrract.sol\":97:804  contract Attract{\r... */\n      mstore(0x40, 0x80)\n      callvalue\n      dup1\n      iszero\n      tag_1\n      jumpi\n      0x00\n      dup1\n      revert\n    tag_1:\n      pop\n      jumpi(tag_2, lt(calldatasize, 0x04))\n      shr(0xe0, calldataload(0x00))\n      dup1\n      0x3c913800\n      eq\n      tag_3\n      jumpi\n    tag_2:\n      0x00\n      dup1\n      revert\n        /* \"shoot/1/可预测的随机数/1attrract.sol\":219:801  function aatract() public {\r... */\n    tag_3:\n      tag_4\n      tag_5\n      jump\t// in\n    tag_4:\n      stop\n    tag_5:\n        /* \"shoot/1/可预测的随机数/1attrract.sol\":260:266  uint i */\n      0x00\n        /* \"shoot/1/可预测的随机数/1attrract.sol\":269:270  1 */\n      0x01\n        /* \"shoot/1/可预测的随机数/1attrract.sol\":260:270  uint i = 1 */\n      swap1\n      pop\n        /* \"shoot/1/可预测的随机数/1attrract.sol\":256:761  for(uint i = 1;i<=10;i++){\r... */\n    tag_7:\n        /* \"shoot/1/可预测的随机数/1attrract.sol\":274:276  10 */\n      0x0a\n        /* \"shoot/1/可预测的随机数/1attrract.sol\":271:272  i */\n      dup2\n        /* \"shoot/1/可预测的随机数/1attrract.sol\":271:276  i<=10 */\n      gt\n        /* \"shoot/1/可预测的随机数/1attrract.sol\":256:761  for(uint i = 1;i<=10;i++){\r... */\n      tag_8\n      jumpi\n        /* \"shoot/1/可预测的随机数/1attrract.sol\":296:308  uint MOD_NUM */\n      0x00\n        /* \"shoot/1/可预测的随机数/1attrract.sol\":309:311  60 */\n      0x3c\n        /* \"shoot/1/可预测的随机数/1attrract.sol\":296:311  uint MOD_NUM=60 */\n      swap1\n      pop\n        /* \"shoot/1/可预测的随机数/1attrract.sol\":326:338  uint256 seed */\n      0x00\n        /* \"shoot/1/可预测的随机数/1attrract.sol\":427:442  block.timestamp */\n      timestamp\n        /* \"shoot/1/可预测的随机数/1attrract.sol\":410:443  abi.encodePacked(block.timestamp) */\n      add(0x20, mload(0x40))\n      dup1\n      dup3\n      dup2\n      mstore\n      0x20\n      add\n      swap2\n      pop\n      pop\n      mload(0x40)\n      0x20\n      dup2\n      dup4\n      sub\n      sub\n      dup2\n      mstore\n      swap1\n      0x40\n      mstore\n        /* \"shoot/1/可预测的随机数/1attrract.sol\":400:444  keccak256(abi.encodePacked(block.timestamp)) */\n      dup1\n      mload\n      swap1\n      0x20\n      add\n      keccak256\n        /* \"shoot/1/可预测的随机数/1attrract.sol\":392:445  uint256(keccak256(abi.encodePacked(block.timestamp))) */\n      0x00\n      shr\n        /* \"shoot/1/可预测的随机数/1attrract.sol\":376:388  block.number */\n      number\n        /* \"shoot/1/可预测的随机数/1attrract.sol\":359:389  abi.encodePacked(block.number) */\n      add(0x20, mload(0x40))\n      dup1\n      dup3\n      dup2\n      mstore\n      0x20\n      add\n      swap2\n      pop\n      pop\n      mload(0x40)\n      0x20\n      dup2\n      dup4\n      sub\n      sub\n      dup2\n      mstore\n      swap1\n      0x40\n      mstore\n        /* \"shoot/1/可预测的随机数/1attrract.sol\":349:390  keccak256(abi.encodePacked(block.number)) */\n      dup1\n      mload\n      swap1\n      0x20\n      add\n      keccak256\n        /* \"shoot/1/可预测的随机数/1attrract.sol\":341:391  uint256(keccak256(abi.encodePacked(block.number))) */\n      0x00\n      shr\n        /* \"shoot/1/可预测的随机数/1attrract.sol\":341:445  uint256(keccak256(abi.encodePacked(block.number)))+uint256(keccak256(abi.encodePacked(block.timestamp))) */\n      add\n        /* \"shoot/1/可预测的随机数/1attrract.sol\":326:445  uint256 seed = uint256(keccak256(abi.encodePacked(block.number)))+uint256(keccak256(abi.encodePacked(block.timestamp))) */\n      swap1\n      pop\n        /* \"shoot/1/可预测的随机数/1attrract.sol\":460:477  uint256 seed_hash */\n      0x00\n        /* \"shoot/1/可预测的随机数/1attrract.sol\":515:519  seed */\n      dup2\n        /* \"shoot/1/可预测的随机数/1attrract.sol\":498:520  abi.encodePacked(seed) */\n      add(0x20, mload(0x40))\n      dup1\n      dup3\n      dup2\n      mstore\n      0x20\n      add\n      swap2\n      pop\n      pop\n      mload(0x40)\n      0x20\n      dup2\n      dup4\n      sub\n      sub\n      dup2\n      mstore\n      swap1\n      0x40\n      mstore\n        /* \"shoot/1/可预测的随机数/1attrract.sol\":488:521  keccak256(abi.encodePacked(seed)) */\n      dup1\n      mload\n      swap1\n      0x20\n      add\n      keccak256\n        /* \"shoot/1/可预测的随机数/1attrract.sol\":480:522  uint256(keccak256(abi.encodePacked(seed))) */\n      0x00\n      shr\n        /* \"shoot/1/可预测的随机数/1attrract.sol\":460:522  uint256 seed_hash = uint256(keccak256(abi.encodePacked(seed))) */\n      swap1\n      pop\n        /* \"shoot/1/可预测的随机数/1attrract.sol\":537:550  uint256 shark */\n      0x00\n        /* \"shoot/1/可预测的随机数/1attrract.sol\":565:572  MOD_NUM */\n      dup4\n        /* \"shoot/1/可预测的随机数/1attrract.sol\":553:562  seed_hash */\n      dup3\n        /* \"shoot/1/可预测的随机数/1attrract.sol\":553:572  seed_hash % MOD_NUM */\n      dup2\n      tag_10\n      jumpi\n      invalid\n    tag_10:\n      mod\n        /* \"shoot/1/可预测的随机数/1attrract.sol\":537:572  uint256 shark = seed_hash % MOD_NUM */\n      swap1\n      pop\n        /* \"shoot/1/可预测的随机数/1attrract.sol\":587:605  uint256 lucky_hash */\n      0x00\n        /* \"shoot/1/可预测的随机数/1attrract.sol\":651:655  this */\n      address\n        /* \"shoot/1/可预测的随机数/1attrract.sol\":626:657  abi.encodePacked(address(this)) */\n      add(0x20, mload(0x40))\n      dup1\n      dup3\n      0xffffffffffffffffffffffffffffffffffffffff\n      and\n      0x60\n      shl\n      dup2\n      mstore\n      0x14\n      add\n      swap2\n      pop\n      pop\n      mload(0x40)\n      0x20\n      dup2\n      dup4\n      sub\n      sub\n      dup2\n      mstore\n      swap1\n      0x40\n      mstore\n        /* \"shoot/1/可预测的随机数/1attrract.sol\":616:658  keccak256(abi.encodePacked(address(this))) */\n      dup1\n      mload\n      swap1\n      0x20\n      add\n      keccak256\n        /* \"shoot/1/可预测的随机数/1attrract.sol\":608:659  uint256(keccak256(abi.encodePacked(address(this)))) */\n      0x00\n      shr\n        /* \"shoot/1/可预测的随机数/1attrract.sol\":587:659  uint256 lucky_hash = uint256(keccak256(abi.encodePacked(address(this)))) */\n      swap1\n      pop\n        /* \"shoot/1/可预测的随机数/1attrract.sol\":674:687  uint256 lucky */\n      0x00\n        /* \"shoot/1/可预测的随机数/1attrract.sol\":703:708  shark */\n      dup3\n        /* \"shoot/1/可预测的随机数/1attrract.sol\":690:700  lucky_hash */\n      dup3\n        /* \"shoot/1/可预测的随机数/1attrract.sol\":690:708  lucky_hash % shark */\n      dup2\n      tag_11\n      jumpi\n      invalid\n    tag_11:\n      mod\n        /* \"shoot/1/可预测的随机数/1attrract.sol\":674:708  uint256 lucky = lucky_hash % shark */\n      swap1\n      pop\n        /* \"shoot/1/可预测的随机数/1attrract.sol\":723:732  vulquery1 */\n      0x00\n      dup1\n      sload\n      swap1\n      0x0100\n      exp\n      swap1\n      div\n      0xffffffffffffffffffffffffffffffffffffffff\n      and\n        /* \"shoot/1/可预测的随机数/1attrract.sol\":723:742  vulquery1.collision */\n      0xffffffffffffffffffffffffffffffffffffffff\n      and\n      0x26cbeb7a\n        /* \"shoot/1/可预测的随机数/1attrract.sol\":743:748  lucky */\n      dup3\n        /* \"shoot/1/可预测的随机数/1attrract.sol\":723:749  vulquery1.collision(lucky) */\n      mload(0x40)\n      dup3\n      0xffffffff\n      and\n      0xe0\n      shl\n      dup2\n      mstore\n      0x04\n      add\n      dup1\n      dup3\n      dup2\n      mstore\n      0x20\n      add\n      swap2\n      pop\n      pop\n      0x00\n      mload(0x40)\n      dup1\n      dup4\n      sub\n      dup2\n      0x00\n      dup8\n      dup1\n      extcodesize\n      iszero\n      dup1\n      iszero\n      tag_12\n      jumpi\n      0x00\n      dup1\n      revert\n    tag_12:\n      pop\n      gas\n      call\n      iszero\n      dup1\n      iszero\n      tag_14\n      jumpi\n      returndatasize\n      0x00\n      dup1\n      returndatacopy\n      revert(0x00, returndatasize)\n    tag_14:\n      pop\n      pop\n      pop\n      pop\n        /* \"shoot/1/可预测的随机数/1attrract.sol\":256:761  for(uint i = 1;i<=10;i++){\r... */\n      pop\n      pop\n      pop\n      pop\n      pop\n      pop\n        /* \"shoot/1/可预测的随机数/1attrract.sol\":277:280  i++ */\n      dup1\n      dup1\n      0x01\n      add\n      swap2\n      pop\n      pop\n        /* \"shoot/1/可预测的随机数/1attrract.sol\":256:761  for(uint i = 1;i<=10;i++){\r... */\n      jump(tag_7)\n    tag_8:\n      pop\n        /* \"shoot/1/可预测的随机数/1attrract.sol\":771:780  vulquery1 */\n      0x00\n      dup1\n      sload\n      swap1\n      0x0100\n      exp\n      swap1\n      div\n      0xffffffffffffffffffffffffffffffffffffffff\n      and\n        /* \"shoot/1/可预测的随机数/1attrract.sol\":771:791  vulquery1.isComplete */\n      0xffffffffffffffffffffffffffffffffffffffff\n      and\n      0xb2fa1c9e\n        /* \"shoot/1/可预测的随机数/1attrract.sol\":771:793  vulquery1.isComplete() */\n      mload(0x40)\n      dup2\n      0xffffffff\n      and\n      0xe0\n      shl\n      dup2\n      mstore\n      0x04\n      add\n      0x20\n      mload(0x40)\n      dup1\n      dup4\n      sub\n      dup2\n      0x00\n      dup8\n      dup1\n      extcodesize\n      iszero\n      dup1\n      iszero\n      tag_15\n      jumpi\n      0x00\n      dup1\n      revert\n    tag_15:\n      pop\n      gas\n      call\n      iszero\n      dup1\n      iszero\n      tag_17\n      jumpi\n      returndatasize\n      0x00\n      dup1\n      returndatacopy\n      revert(0x00, returndatasize)\n    tag_17:\n      pop\n      pop\n      pop\n      pop\n      mload(0x40)\n      returndatasize\n      0x20\n      dup2\n      lt\n      iszero\n      tag_18\n      jumpi\n      0x00\n      dup1\n      revert\n    tag_18:\n      dup2\n      add\n      swap1\n      dup1\n      dup1\n      mload\n      swap1\n      0x20\n      add\n      swap1\n      swap3\n      swap2\n      swap1\n      pop\n      pop\n      pop\n      pop\n        /* \"shoot/1/可预测的随机数/1attrract.sol\":219:801  function aatract() public {\r... */\n      jump\t// out\n\n    auxdata: 0xa2646970667358221220aba43334a37f2bf9e192e194a19bd7088bfe692be41bab6a45a9472500edd04c64736f6c634300060c0033\n}\n",
				"bytecode": {
					"linkReferences": {},
					"object": "608060405234801561001057600080fd5b506040516103483803806103488339818101604052602081101561003357600080fd5b8101908080519060200190929190505050806000806101000a81548173ffffffffffffffffffffffffffffffffffffffff021916908373ffffffffffffffffffffffffffffffffffffffff160217905550506102b4806100946000396000f3fe608060405234801561001057600080fd5b506004361061002b5760003560e01c80633c91380014610030575b600080fd5b61003861003a565b005b6000600190505b600a81116101d7576000603c9050600042604051602001808281526020019150506040516020818303038152906040528051906020012060001c43604051602001808281526020019150506040516020818303038152906040528051906020012060001c019050600081604051602001808281526020019150506040516020818303038152906040528051906020012060001c905060008382816100e157fe5b069050600030604051602001808273ffffffffffffffffffffffffffffffffffffffff1660601b81526014019150506040516020818303038152906040528051906020012060001c9050600082828161013657fe5b06905060008054906101000a900473ffffffffffffffffffffffffffffffffffffffff1673ffffffffffffffffffffffffffffffffffffffff166326cbeb7a826040518263ffffffff1660e01b815260040180828152602001915050600060405180830381600087803b1580156101ac57600080fd5b505af11580156101c0573d6000803e3d6000fd5b505050505050505050508080600101915050610041565b5060008054906101000a900473ffffffffffffffffffffffffffffffffffffffff1673ffffffffffffffffffffffffffffffffffffffff1663b2fa1c9e6040518163ffffffff1660e01b8152600401602060405180830381600087803b15801561024057600080fd5b505af1158015610254573d6000803e3d6000fd5b505050506040513d602081101561026a57600080fd5b81019080805190602001909291905050505056fea2646970667358221220aba43334a37f2bf9e192e194a19bd7088bfe692be41bab6a45a9472500edd04c64736f6c634300060c0033",
					"opcodes": "PUSH1 0x80 PUSH1 0x40 MSTORE CALLVALUE DUP1 ISZERO PUSH2 0x10 JUMPI PUSH1 0x0 DUP1 REVERT JUMPDEST POP PUSH1 0x40 MLOAD PUSH2 0x348 CODESIZE SUB DUP1 PUSH2 0x348 DUP4 CODECOPY DUP2 DUP2 ADD PUSH1 0x40 MSTORE PUSH1 0x20 DUP2 LT ISZERO PUSH2 0x33 JUMPI PUSH1 0x0 DUP1 REVERT JUMPDEST DUP2 ADD SWAP1 DUP1 DUP1 MLOAD SWAP1 PUSH1 0x20 ADD SWAP1 SWAP3 SWAP2 SWAP1 POP POP POP DUP1 PUSH1 0x0 DUP1 PUSH2 0x100 EXP DUP2 SLOAD DUP2 PUSH20 0xFFFFFFFFFFFFFFFFFFFFFFFFFFFFFFFFFFFFFFFF MUL NOT AND SWAP1 DUP4 PUSH20 0xFFFFFFFFFFFFFFFFFFFFFFFFFFFFFFFFFFFFFFFF AND MUL OR SWAP1 SSTORE POP POP PUSH2 0x2B4 DUP1 PUSH2 0x94 PUSH1 0x0 CODECOPY PUSH1 0x0 RETURN INVALID PUSH1 0x80 PUSH1 0x40 MSTORE CALLVALUE DUP1 ISZERO PUSH2 0x10 JUMPI PUSH1 0x0 DUP1 REVERT JUMPDEST POP PUSH1 0x4 CALLDATASIZE LT PUSH2 0x2B JUMPI PUSH1 0x0 CALLDATALOAD PUSH1 0xE0 SHR DUP1 PUSH4 0x3C913800 EQ PUSH2 0x30 JUMPI JUMPDEST PUSH1 0x0 DUP1 REVERT JUMPDEST PUSH2 0x38 PUSH2 0x3A JUMP JUMPDEST STOP JUMPDEST PUSH1 0x0 PUSH1 0x1 SWAP1 POP JUMPDEST PUSH1 0xA DUP2 GT PUSH2 0x1D7 JUMPI PUSH1 0x0 PUSH1 0x3C SWAP1 POP PUSH1 0x0 TIMESTAMP PUSH1 0x40 MLOAD PUSH1 0x20 ADD DUP1 DUP3 DUP2 MSTORE PUSH1 0x20 ADD SWAP2 POP POP PUSH1 0x40 MLOAD PUSH1 0x20 DUP2 DUP4 SUB SUB DUP2 MSTORE SWAP1 PUSH1 0x40 MSTORE DUP1 MLOAD SWAP1 PUSH1 0x20 ADD KECCAK256 PUSH1 0x0 SHR NUMBER PUSH1 0x40 MLOAD PUSH1 0x20 ADD DUP1 DUP3 DUP2 MSTORE PUSH1 0x20 ADD SWAP2 POP POP PUSH1 0x40 MLOAD PUSH1 0x20 DUP2 DUP4 SUB SUB DUP2 MSTORE SWAP1 PUSH1 0x40 MSTORE DUP1 MLOAD SWAP1 PUSH1 0x20 ADD KECCAK256 PUSH1 0x0 SHR ADD SWAP1 POP PUSH1 0x0 DUP2 PUSH1 0x40 MLOAD PUSH1 0x20 ADD DUP1 DUP3 DUP2 MSTORE PUSH1 0x20 ADD SWAP2 POP POP PUSH1 0x40 MLOAD PUSH1 0x20 DUP2 DUP4 SUB SUB DUP2 MSTORE SWAP1 PUSH1 0x40 MSTORE DUP1 MLOAD SWAP1 PUSH1 0x20 ADD KECCAK256 PUSH1 0x0 SHR SWAP1 POP PUSH1 0x0 DUP4 DUP3 DUP2 PUSH2 0xE1 JUMPI INVALID JUMPDEST MOD SWAP1 POP PUSH1 0x0 ADDRESS PUSH1 0x40 MLOAD PUSH1 0x20 ADD DUP1 DUP3 PUSH20 0xFFFFFFFFFFFFFFFFFFFFFFFFFFFFFFFFFFFFFFFF AND PUSH1 0x60 SHL DUP2 MSTORE PUSH1 0x14 ADD SWAP2 POP POP PUSH1 0x40 MLOAD PUSH1 0x20 DUP2 DUP4 SUB SUB DUP2 MSTORE SWAP1 PUSH1 0x40 MSTORE DUP1 MLOAD SWAP1 PUSH1 0x20 ADD KECCAK256 PUSH1 0x0 SHR SWAP1 POP PUSH1 0x0 DUP3 DUP3 DUP2 PUSH2 0x136 JUMPI INVALID JUMPDEST MOD SWAP1 POP PUSH1 0x0 DUP1 SLOAD SWAP1 PUSH2 0x100 EXP SWAP1 DIV PUSH20 0xFFFFFFFFFFFFFFFFFFFFFFFFFFFFFFFFFFFFFFFF AND PUSH20 0xFFFFFFFFFFFFFFFFFFFFFFFFFFFFFFFFFFFFFFFF AND PUSH4 0x26CBEB7A DUP3 PUSH1 0x40 MLOAD DUP3 PUSH4 0xFFFFFFFF AND PUSH1 0xE0 SHL DUP2 MSTORE PUSH1 0x4 ADD DUP1 DUP3 DUP2 MSTORE PUSH1 0x20 ADD SWAP2 POP POP PUSH1 0x0 PUSH1 0x40 MLOAD DUP1 DUP4 SUB DUP2 PUSH1 0x0 DUP8 DUP1 EXTCODESIZE ISZERO DUP1 ISZERO PUSH2 0x1AC JUMPI PUSH1 0x0 DUP1 REVERT JUMPDEST POP GAS CALL ISZERO DUP1 ISZERO PUSH2 0x1C0 JUMPI RETURNDATASIZE PUSH1 0x0 DUP1 RETURNDATACOPY RETURNDATASIZE PUSH1 0x0 REVERT JUMPDEST POP POP POP POP POP POP POP POP POP POP DUP1 DUP1 PUSH1 0x1 ADD SWAP2 POP POP PUSH2 0x41 JUMP JUMPDEST POP PUSH1 0x0 DUP1 SLOAD SWAP1 PUSH2 0x100 EXP SWAP1 DIV PUSH20 0xFFFFFFFFFFFFFFFFFFFFFFFFFFFFFFFFFFFFFFFF AND PUSH20 0xFFFFFFFFFFFFFFFFFFFFFFFFFFFFFFFFFFFFFFFF AND PUSH4 0xB2FA1C9E PUSH1 0x40 MLOAD DUP2 PUSH4 0xFFFFFFFF AND PUSH1 0xE0 SHL DUP2 MSTORE PUSH1 0x4 ADD PUSH1 0x20 PUSH1 0x40 MLOAD DUP1 DUP4 SUB DUP2 PUSH1 0x0 DUP8 DUP1 EXTCODESIZE ISZERO DUP1 ISZERO PUSH2 0x240 JUMPI PUSH1 0x0 DUP1 REVERT JUMPDEST POP GAS CALL ISZERO DUP1 ISZERO PUSH2 0x254 JUMPI RETURNDATASIZE PUSH1 0x0 DUP1 RETURNDATACOPY RETURNDATASIZE PUSH1 0x0 REVERT JUMPDEST POP POP POP POP PUSH1 0x40 MLOAD RETURNDATASIZE PUSH1 0x20 DUP2 LT ISZERO PUSH2 0x26A JUMPI PUSH1 0x0 DUP1 REVERT JUMPDEST DUP2 ADD SWAP1 DUP1 DUP1 MLOAD SWAP1 PUSH1 0x20 ADD SWAP1 SWAP3 SWAP2 SWAP1 POP POP POP POP JUMP INVALID LOG2 PUSH5 0x6970667358 0x22 SLT KECCAK256 0xAB LOG4 CALLER CALLVALUE LOG3 PUSH32 0x2BF9E192E194A19BD7088BFE692BE41BAB6A45A9472500EDD04C64736F6C6343 STOP MOD 0xC STOP CALLER "
				},
				"gasEstimates": {
					"creation": {
						"codeDepositCost": "138400",
						"executionCost": "infinite",
						"totalCost": "infinite"
					},
					"external": {
						"aatract()": "infinite"
					}
				},
				"methodIdentifiers": {
					"aatract()": "3c913800"
				}
			},
			"storageLayout": {
				"storage": [
					{
						"astId": 203,
						"contract": "shoot/1/可预测的随机数/1attrract.sol:Attract",
						"label": "vulquery1",
						"offset": 0,
						"slot": "0",
						"type": "t_contract(vulquery)198"
					}
				],
				"types": {
					"t_contract(vulquery)198": {
						"encoding": "inplace",
						"label": "contract vulquery",
						"numberOfBytes": "20"
					}
				}
			},
			"userdoc": {
				"kind": "user",
				"methods": {},
				"version": 1
			}
		}
	}
}