{
	"shoot/1/整型溢出/1.sol": {
		"Cal": {
			"abi": [
				{
					"inputs": [
						{
							"internalType": "address",
							"name": "",
							"type": "address"
						}
					],
					"name": "balance",
					"outputs": [
						{
							"internalType": "uint256",
							"name": "",
							"type": "uint256"
						}
					],
					"stateMutability": "view",
					"type": "function"
				},
				{
					"inputs": [],
					"name": "buy",
					"outputs": [],
					"stateMutability": "payable",
					"type": "function"
				},
				{
					"inputs": [],
					"name": "isComplete",
					"outputs": [
						{
							"internalType": "uint256",
							"name": "",
							"type": "uint256"
						}
					],
					"stateMutability": "nonpayable",
					"type": "function"
				},
				{
					"inputs": [],
					"name": "score",
					"outputs": [
						{
							"internalType": "uint256",
							"name": "",
							"type": "uint256"
						}
					],
					"stateMutability": "view",
					"type": "function"
				},
				{
					"inputs": [
						{
							"internalType": "address",
							"name": "to",
							"type": "address"
						},
						{
							"internalType": "uint256",
							"name": "amount",
							"type": "uint256"
						}
					],
					"name": "transfer",
					"outputs": [],
					"stateMutability": "nonpayable",
					"type": "function"
				}
			],
			"devdoc": {
				"kind": "dev",
				"methods": {},
				"version": 1
			},
			"evm": {
				"assembly": "    /* \"shoot/1/整型溢出/1.sol\":91:993  contract Cal{\r... */\n  mstore(0x40, 0x80)\n  callvalue\n  dup1\n  iszero\n  tag_1\n  jumpi\n  0x00\n  dup1\n  revert\ntag_1:\n  pop\n  dataSize(sub_0)\n  dup1\n  dataOffset(sub_0)\n  0x00\n  codecopy\n  0x00\n  return\nstop\n\nsub_0: assembly {\n        /* \"shoot/1/整型溢出/1.sol\":91:993  contract Cal{\r... */\n      mstore(0x40, 0x80)\n      jumpi(tag_1, lt(calldatasize, 0x04))\n      shr(0xe0, calldataload(0x00))\n      dup1\n      0xa6f2ae3a\n      eq\n      tag_2\n      jumpi\n      dup1\n      0xa9059cbb\n      eq\n      tag_3\n      jumpi\n      dup1\n      0xb2fa1c9e\n      eq\n      tag_4\n      jumpi\n      dup1\n      0xe3d670d7\n      eq\n      tag_5\n      jumpi\n      dup1\n      0xefedc669\n      eq\n      tag_6\n      jumpi\n    tag_1:\n      0x00\n      dup1\n      revert\n        /* \"shoot/1/整型溢出/1.sol\":322:455  function buy() public payable{\r... */\n    tag_2:\n      tag_7\n      tag_8\n      jump\t// in\n    tag_7:\n      stop\n        /* \"shoot/1/整型溢出/1.sol\":463:782  function transfer(address to,uint amount)public{\r... */\n    tag_3:\n      callvalue\n      dup1\n      iszero\n      tag_9\n      jumpi\n      0x00\n      dup1\n      revert\n    tag_9:\n      pop\n      tag_10\n      0x04\n      dup1\n      calldatasize\n      sub\n      0x40\n      dup2\n      lt\n      iszero\n      tag_11\n      jumpi\n      0x00\n      dup1\n      revert\n    tag_11:\n      dup2\n      add\n      swap1\n      dup1\n      dup1\n      calldataload\n      0xffffffffffffffffffffffffffffffffffffffff\n      and\n      swap1\n      0x20\n      add\n      swap1\n      swap3\n      swap2\n      swap1\n      dup1\n      calldataload\n      swap1\n      0x20\n      add\n      swap1\n      swap3\n      swap2\n      swap1\n      pop\n      pop\n      pop\n      tag_12\n      jump\t// in\n    tag_10:\n      stop\n        /* \"shoot/1/整型溢出/1.sol\":790:990  function isComplete()public returns(uint){\r... */\n    tag_4:\n      callvalue\n      dup1\n      iszero\n      tag_13\n      jumpi\n      0x00\n      dup1\n      revert\n    tag_13:\n      pop\n      tag_14\n      tag_15\n      jump\t// in\n    tag_14:\n      mload(0x40)\n      dup1\n      dup3\n      dup2\n      mstore\n      0x20\n      add\n      swap2\n      pop\n      pop\n      mload(0x40)\n      dup1\n      swap2\n      sub\n      swap1\n      return\n        /* \"shoot/1/整型溢出/1.sol\":188:224  mapping(address=>uint)public balance */\n    tag_5:\n      callvalue\n      dup1\n      iszero\n      tag_16\n      jumpi\n      0x00\n      dup1\n      revert\n    tag_16:\n      pop\n      tag_17\n      0x04\n      dup1\n      calldatasize\n      sub\n      0x20\n      dup2\n      lt\n      iszero\n      tag_18\n      jumpi\n      0x00\n      dup1\n      revert\n    tag_18:\n      dup2\n      add\n      swap1\n      dup1\n      dup1\n      calldataload\n      0xffffffffffffffffffffffffffffffffffffffff\n      and\n      swap1\n      0x20\n      add\n      swap1\n      swap3\n      swap2\n      swap1\n      pop\n      pop\n      pop\n      tag_19\n      jump\t// in\n    tag_17:\n      mload(0x40)\n      dup1\n      dup3\n      dup2\n      mstore\n      0x20\n      add\n      swap2\n      pop\n      pop\n      mload(0x40)\n      dup1\n      swap2\n      sub\n      swap1\n      return\n        /* \"shoot/1/整型溢出/1.sol\":110:127  uint public score */\n    tag_6:\n      callvalue\n      dup1\n      iszero\n      tag_20\n      jumpi\n      0x00\n      dup1\n      revert\n    tag_20:\n      pop\n      tag_21\n      tag_22\n      jump\t// in\n    tag_21:\n      mload(0x40)\n      dup1\n      dup3\n      dup2\n      mstore\n      0x20\n      add\n      swap2\n      pop\n      pop\n      mload(0x40)\n      dup1\n      swap2\n      sub\n      swap1\n      return\n        /* \"shoot/1/整型溢出/1.sol\":322:455  function buy() public payable{\r... */\n    tag_8:\n        /* \"shoot/1/整型溢出/1.sol\":381:391  0.01 ether */\n      0x2386f26fc10000\n        /* \"shoot/1/整型溢出/1.sol\":370:379  msg.value */\n      callvalue\n        /* \"shoot/1/整型溢出/1.sol\":370:391  msg.value>=0.01 ether */\n      lt\n      iszero\n        /* \"shoot/1/整型溢出/1.sol\":362:405  require(msg.value>=0.01 ether,\"zero value\") */\n      tag_24\n      jumpi\n      mload(0x40)\n      0x08c379a000000000000000000000000000000000000000000000000000000000\n      dup2\n      mstore\n      0x04\n      add\n      dup1\n      dup1\n      0x20\n      add\n      dup3\n      dup2\n      sub\n      dup3\n      mstore\n      0x0a\n      dup2\n      mstore\n      0x20\n      add\n      dup1\n      0x7a65726f2076616c756500000000000000000000000000000000000000000000\n      dup2\n      mstore\n      pop\n      0x20\n      add\n      swap2\n      pop\n      pop\n      mload(0x40)\n      dup1\n      swap2\n      sub\n      swap1\n      revert\n    tag_24:\n        /* \"shoot/1/整型溢出/1.sol\":416:447  mint(msg.sender,msg.value/1e16) */\n      tag_25\n        /* \"shoot/1/整型溢出/1.sol\":421:431  msg.sender */\n      caller\n        /* \"shoot/1/整型溢出/1.sol\":442:446  1e16 */\n      0x2386f26fc10000\n        /* \"shoot/1/整型溢出/1.sol\":432:441  msg.value */\n      callvalue\n        /* \"shoot/1/整型溢出/1.sol\":432:446  msg.value/1e16 */\n      dup2\n      tag_26\n      jumpi\n      invalid\n    tag_26:\n      div\n        /* \"shoot/1/整型溢出/1.sol\":416:420  mint */\n      tag_27\n        /* \"shoot/1/整型溢出/1.sol\":416:447  mint(msg.sender,msg.value/1e16) */\n      jump\t// in\n    tag_25:\n        /* \"shoot/1/整型溢出/1.sol\":322:455  function buy() public payable{\r... */\n      jump\t// out\n        /* \"shoot/1/整型溢出/1.sol\":463:782  function transfer(address to,uint amount)public{\r... */\n    tag_12:\n        /* \"shoot/1/整型溢出/1.sol\":541:542  0 */\n      0x00\n        /* \"shoot/1/整型溢出/1.sol\":529:543  to!=address(0) */\n      0xffffffffffffffffffffffffffffffffffffffff\n      and\n        /* \"shoot/1/整型溢出/1.sol\":529:531  to */\n      dup3\n        /* \"shoot/1/整型溢出/1.sol\":529:543  to!=address(0) */\n      0xffffffffffffffffffffffffffffffffffffffff\n      and\n      eq\n      iszero\n        /* \"shoot/1/整型溢出/1.sol\":521:562  require(to!=address(0),\"invalid address\") */\n      tag_29\n      jumpi\n      mload(0x40)\n      0x08c379a000000000000000000000000000000000000000000000000000000000\n      dup2\n      mstore\n      0x04\n      add\n      dup1\n      dup1\n      0x20\n      add\n      dup3\n      dup2\n      sub\n      dup3\n      mstore\n      0x0f\n      dup2\n      mstore\n      0x20\n      add\n      dup1\n      0x696e76616c696420616464726573730000000000000000000000000000000000\n      dup2\n      mstore\n      pop\n      0x20\n      add\n      swap2\n      pop\n      pop\n      mload(0x40)\n      dup1\n      swap2\n      sub\n      swap1\n      revert\n    tag_29:\n        /* \"shoot/1/整型溢出/1.sol\":588:589  0 */\n      0x00\n        /* \"shoot/1/整型溢出/1.sol\":581:587  amount */\n      dup2\n        /* \"shoot/1/整型溢出/1.sol\":581:589  amount>0 */\n      gt\n        /* \"shoot/1/整型溢出/1.sol\":573:607  require(amount>0,\"invalid amount\") */\n      tag_30\n      jumpi\n      mload(0x40)\n      0x08c379a000000000000000000000000000000000000000000000000000000000\n      dup2\n      mstore\n      0x04\n      add\n      dup1\n      dup1\n      0x20\n      add\n      dup3\n      dup2\n      sub\n      dup3\n      mstore\n      0x0e\n      dup2\n      mstore\n      0x20\n      add\n      dup1\n      0x696e76616c696420616d6f756e74000000000000000000000000000000000000\n      dup2\n      mstore\n      pop\n      0x20\n      add\n      swap2\n      pop\n      pop\n      mload(0x40)\n      dup1\n      swap2\n      sub\n      swap1\n      revert\n    tag_30:\n        /* \"shoot/1/整型溢出/1.sol\":654:655  0 */\n      0x00\n        /* \"shoot/1/整型溢出/1.sol\":646:652  amount */\n      dup2\n        /* \"shoot/1/整型溢出/1.sol\":626:633  balance */\n      0x03\n        /* \"shoot/1/整型溢出/1.sol\":626:645  balance[msg.sender] */\n      0x00\n        /* \"shoot/1/整型溢出/1.sol\":634:644  msg.sender */\n      caller\n        /* \"shoot/1/整型溢出/1.sol\":626:645  balance[msg.sender] */\n      0xffffffffffffffffffffffffffffffffffffffff\n      and\n      0xffffffffffffffffffffffffffffffffffffffff\n      and\n      dup2\n      mstore\n      0x20\n      add\n      swap1\n      dup2\n      mstore\n      0x20\n      add\n      0x00\n      keccak256\n      sload\n        /* \"shoot/1/整型溢出/1.sol\":626:652  balance[msg.sender]-amount */\n      sub\n        /* \"shoot/1/整型溢出/1.sol\":626:655  balance[msg.sender]-amount>=0 */\n      lt\n      iszero\n        /* \"shoot/1/整型溢出/1.sol\":618:656  require(balance[msg.sender]-amount>=0) */\n      tag_31\n      jumpi\n      0x00\n      dup1\n      revert\n    tag_31:\n        /* \"shoot/1/整型溢出/1.sol\":688:694  amount */\n      dup1\n        /* \"shoot/1/整型溢出/1.sol\":667:674  balance */\n      0x03\n        /* \"shoot/1/整型溢出/1.sol\":667:686  balance[msg.sender] */\n      0x00\n        /* \"shoot/1/整型溢出/1.sol\":675:685  msg.sender */\n      caller\n        /* \"shoot/1/整型溢出/1.sol\":667:686  balance[msg.sender] */\n      0xffffffffffffffffffffffffffffffffffffffff\n      and\n      0xffffffffffffffffffffffffffffffffffffffff\n      and\n      dup2\n      mstore\n      0x20\n      add\n      swap1\n      dup2\n      mstore\n      0x20\n      add\n      0x00\n      keccak256\n      0x00\n        /* \"shoot/1/整型溢出/1.sol\":667:694  balance[msg.sender]-=amount */\n      dup3\n      dup3\n      sload\n      sub\n      swap3\n      pop\n      pop\n      dup2\n      swap1\n      sstore\n      pop\n        /* \"shoot/1/整型溢出/1.sol\":718:724  amount */\n      dup1\n        /* \"shoot/1/整型溢出/1.sol\":705:712  balance */\n      0x03\n        /* \"shoot/1/整型溢出/1.sol\":705:716  balance[to] */\n      0x00\n        /* \"shoot/1/整型溢出/1.sol\":713:715  to */\n      dup5\n        /* \"shoot/1/整型溢出/1.sol\":705:716  balance[to] */\n      0xffffffffffffffffffffffffffffffffffffffff\n      and\n      0xffffffffffffffffffffffffffffffffffffffff\n      and\n      dup2\n      mstore\n      0x20\n      add\n      swap1\n      dup2\n      mstore\n      0x20\n      add\n      0x00\n      keccak256\n      0x00\n        /* \"shoot/1/整型溢出/1.sol\":705:724  balance[to]+=amount */\n      dup3\n      dup3\n      sload\n      add\n      swap3\n      pop\n      pop\n      dup2\n      swap1\n      sstore\n      pop\n        /* \"shoot/1/整型溢出/1.sol\":767:773  amount */\n      dup1\n        /* \"shoot/1/整型溢出/1.sol\":755:762  balance */\n      0x03\n        /* \"shoot/1/整型溢出/1.sol\":755:766  balance[to] */\n      0x00\n        /* \"shoot/1/整型溢出/1.sol\":763:765  to */\n      dup5\n        /* \"shoot/1/整型溢出/1.sol\":755:766  balance[to] */\n      0xffffffffffffffffffffffffffffffffffffffff\n      and\n      0xffffffffffffffffffffffffffffffffffffffff\n      and\n      dup2\n      mstore\n      0x20\n      add\n      swap1\n      dup2\n      mstore\n      0x20\n      add\n      0x00\n      keccak256\n      sload\n        /* \"shoot/1/整型溢出/1.sol\":755:773  balance[to]-amount */\n      sub\n        /* \"shoot/1/整型溢出/1.sol\":743:750  balance */\n      0x03\n        /* \"shoot/1/整型溢出/1.sol\":743:754  balance[to] */\n      0x00\n        /* \"shoot/1/整型溢出/1.sol\":751:753  to */\n      dup5\n        /* \"shoot/1/整型溢出/1.sol\":743:754  balance[to] */\n      0xffffffffffffffffffffffffffffffffffffffff\n      and\n      0xffffffffffffffffffffffffffffffffffffffff\n      and\n      dup2\n      mstore\n      0x20\n      add\n      swap1\n      dup2\n      mstore\n      0x20\n      add\n      0x00\n      keccak256\n      sload\n        /* \"shoot/1/整型溢出/1.sol\":743:773  balance[to]>balance[to]-amount */\n      gt\n        /* \"shoot/1/整型溢出/1.sol\":735:774  require(balance[to]>balance[to]-amount) */\n      tag_32\n      jumpi\n      0x00\n      dup1\n      revert\n    tag_32:\n        /* \"shoot/1/整型溢出/1.sol\":463:782  function transfer(address to,uint amount)public{\r... */\n      pop\n      pop\n      jump\t// out\n        /* \"shoot/1/整型溢出/1.sol\":790:990  function isComplete()public returns(uint){\r... */\n    tag_15:\n        /* \"shoot/1/整型溢出/1.sol\":826:830  uint */\n      0x00\n        /* \"shoot/1/整型溢出/1.sol\":848:849  0 */\n      dup1\n        /* \"shoot/1/整型溢出/1.sol\":842:847  score */\n      0x00\n        /* \"shoot/1/整型溢出/1.sol\":842:849  score=0 */\n      dup2\n      swap1\n      sstore\n      pop\n        /* \"shoot/1/整型溢出/1.sol\":884:885  0 */\n      0x00\n        /* \"shoot/1/整型溢出/1.sol\":863:870  balance */\n      0x03\n        /* \"shoot/1/整型溢出/1.sol\":863:882  balance[msg.sender] */\n      0x00\n        /* \"shoot/1/整型溢出/1.sol\":871:881  msg.sender */\n      caller\n        /* \"shoot/1/整型溢出/1.sol\":863:882  balance[msg.sender] */\n      0xffffffffffffffffffffffffffffffffffffffff\n      and\n      0xffffffffffffffffffffffffffffffffffffffff\n      and\n      dup2\n      mstore\n      0x20\n      add\n      swap1\n      dup2\n      mstore\n      0x20\n      add\n      0x00\n      keccak256\n      sload\n        /* \"shoot/1/整型溢出/1.sol\":863:885  balance[msg.sender]!=0 */\n      eq\n        /* \"shoot/1/整型溢出/1.sol\":860:897  if(balance[msg.sender]!=0){score=20;} */\n      tag_34\n      jumpi\n        /* \"shoot/1/整型溢出/1.sol\":893:895  20 */\n      0x14\n        /* \"shoot/1/整型溢出/1.sol\":887:892  score */\n      0x00\n        /* \"shoot/1/整型溢出/1.sol\":887:895  score=20 */\n      dup2\n      swap1\n      sstore\n      pop\n        /* \"shoot/1/整型溢出/1.sol\":860:897  if(balance[msg.sender]!=0){score=20;} */\n    tag_34:\n        /* \"shoot/1/整型溢出/1.sol\":930:947  10000000000000000 */\n      0x2386f26fc10000\n        /* \"shoot/1/整型溢出/1.sol\":910:917  balance */\n      0x03\n        /* \"shoot/1/整型溢出/1.sol\":910:929  balance[msg.sender] */\n      0x00\n        /* \"shoot/1/整型溢出/1.sol\":918:928  msg.sender */\n      caller\n        /* \"shoot/1/整型溢出/1.sol\":910:929  balance[msg.sender] */\n      0xffffffffffffffffffffffffffffffffffffffff\n      and\n      0xffffffffffffffffffffffffffffffffffffffff\n      and\n      dup2\n      mstore\n      0x20\n      add\n      swap1\n      dup2\n      mstore\n      0x20\n      add\n      0x00\n      keccak256\n      sload\n        /* \"shoot/1/整型溢出/1.sol\":910:947  balance[msg.sender]>10000000000000000 */\n      gt\n        /* \"shoot/1/整型溢出/1.sol\":907:960  if(balance[msg.sender]>10000000000000000){score=100;} */\n      iszero\n      tag_35\n      jumpi\n        /* \"shoot/1/整型溢出/1.sol\":955:958  100 */\n      0x64\n        /* \"shoot/1/整型溢出/1.sol\":949:954  score */\n      0x00\n        /* \"shoot/1/整型溢出/1.sol\":949:958  score=100 */\n      dup2\n      swap1\n      sstore\n      pop\n        /* \"shoot/1/整型溢出/1.sol\":907:960  if(balance[msg.sender]>10000000000000000){score=100;} */\n    tag_35:\n        /* \"shoot/1/整型溢出/1.sol\":977:982  score */\n      sload(0x00)\n        /* \"shoot/1/整型溢出/1.sol\":970:982  return score */\n      swap1\n      pop\n        /* \"shoot/1/整型溢出/1.sol\":790:990  function isComplete()public returns(uint){\r... */\n      swap1\n      jump\t// out\n        /* \"shoot/1/整型溢出/1.sol\":188:224  mapping(address=>uint)public balance */\n    tag_19:\n      mstore(0x20, 0x03)\n      dup1\n      0x00\n      mstore\n      keccak256(0x00, 0x40)\n      0x00\n      swap2\n      pop\n      swap1\n      pop\n      sload\n      dup2\n      jump\t// out\n        /* \"shoot/1/整型溢出/1.sol\":110:127  uint public score */\n    tag_22:\n      sload(0x00)\n      dup2\n      jump\t// out\n        /* \"shoot/1/整型溢出/1.sol\":233:316  function mint(address to,uint amount) private{\r... */\n    tag_27:\n        /* \"shoot/1/整型溢出/1.sol\":302:308  amount */\n      dup1\n        /* \"shoot/1/整型溢出/1.sol\":289:296  balance */\n      0x03\n        /* \"shoot/1/整型溢出/1.sol\":289:300  balance[to] */\n      0x00\n        /* \"shoot/1/整型溢出/1.sol\":297:299  to */\n      dup5\n        /* \"shoot/1/整型溢出/1.sol\":289:300  balance[to] */\n      0xffffffffffffffffffffffffffffffffffffffff\n      and\n      0xffffffffffffffffffffffffffffffffffffffff\n      and\n      dup2\n      mstore\n      0x20\n      add\n      swap1\n      dup2\n      mstore\n      0x20\n      add\n      0x00\n      keccak256\n      0x00\n        /* \"shoot/1/整型溢出/1.sol\":289:308  balance[to]+=amount */\n      dup3\n      dup3\n      sload\n      add\n      swap3\n      pop\n      pop\n      dup2\n      swap1\n      sstore\n      pop\n        /* \"shoot/1/整型溢出/1.sol\":233:316  function mint(address to,uint amount) private{\r... */\n      pop\n      pop\n      jump\t// out\n\n    auxdata: 0xa264697066735822122097a0e2970b948711474af0b6f3df00479f405678e36f6cdd7df25a15df65192564736f6c634300060c0033\n}\n",
				"bytecode": {
					"linkReferences": {},
					"object": "608060405234801561001057600080fd5b506105f7806100206000396000f3fe60806040526004361061004a5760003560e01c8063a6f2ae3a1461004f578063a9059cbb14610059578063b2fa1c9e146100b4578063e3d670d7146100df578063efedc66914610144575b600080fd5b61005761016f565b005b34801561006557600080fd5b506100b26004803603604081101561007c57600080fd5b81019080803573ffffffffffffffffffffffffffffffffffffffff16906020019092919080359060200190929190505050610208565b005b3480156100c057600080fd5b506100c961049a565b6040518082815260200191505060405180910390f35b3480156100eb57600080fd5b5061012e6004803603602081101561010257600080fd5b81019080803573ffffffffffffffffffffffffffffffffffffffff169060200190929190505050610552565b6040518082815260200191505060405180910390f35b34801561015057600080fd5b5061015961056a565b6040518082815260200191505060405180910390f35b662386f26fc100003410156101ec576040517f08c379a000000000000000000000000000000000000000000000000000000000815260040180806020018281038252600a8152602001807f7a65726f2076616c75650000000000000000000000000000000000000000000081525060200191505060405180910390fd5b61020633662386f26fc10000348161020057fe5b04610570565b565b600073ffffffffffffffffffffffffffffffffffffffff168273ffffffffffffffffffffffffffffffffffffffff1614156102ab576040517f08c379a000000000000000000000000000000000000000000000000000000000815260040180806020018281038252600f8152602001807f696e76616c69642061646472657373000000000000000000000000000000000081525060200191505060405180910390fd5b60008111610321576040517f08c379a000000000000000000000000000000000000000000000000000000000815260040180806020018281038252600e8152602001807f696e76616c696420616d6f756e7400000000000000000000000000000000000081525060200191505060405180910390fd5b600081600360003373ffffffffffffffffffffffffffffffffffffffff1673ffffffffffffffffffffffffffffffffffffffff1681526020019081526020016000205403101561037057600080fd5b80600360003373ffffffffffffffffffffffffffffffffffffffff1673ffffffffffffffffffffffffffffffffffffffff1681526020019081526020016000206000828254039250508190555080600360008473ffffffffffffffffffffffffffffffffffffffff1673ffffffffffffffffffffffffffffffffffffffff1681526020019081526020016000206000828254019250508190555080600360008473ffffffffffffffffffffffffffffffffffffffff1673ffffffffffffffffffffffffffffffffffffffff1681526020019081526020016000205403600360008473ffffffffffffffffffffffffffffffffffffffff1673ffffffffffffffffffffffffffffffffffffffff168152602001908152602001600020541161049657600080fd5b5050565b6000806000819055506000600360003373ffffffffffffffffffffffffffffffffffffffff1673ffffffffffffffffffffffffffffffffffffffff16815260200190815260200160002054146104f35760146000819055505b662386f26fc10000600360003373ffffffffffffffffffffffffffffffffffffffff1673ffffffffffffffffffffffffffffffffffffffff16815260200190815260200160002054111561054a5760646000819055505b600054905090565b60036020528060005260406000206000915090505481565b60005481565b80600360008473ffffffffffffffffffffffffffffffffffffffff1673ffffffffffffffffffffffffffffffffffffffff16815260200190815260200160002060008282540192505081905550505056fea264697066735822122097a0e2970b948711474af0b6f3df00479f405678e36f6cdd7df25a15df65192564736f6c634300060c0033",
					"opcodes": "PUSH1 0x80 PUSH1 0x40 MSTORE CALLVALUE DUP1 ISZERO PUSH2 0x10 JUMPI PUSH1 0x0 DUP1 REVERT JUMPDEST POP PUSH2 0x5F7 DUP1 PUSH2 0x20 PUSH1 0x0 CODECOPY PUSH1 0x0 RETURN INVALID PUSH1 0x80 PUSH1 0x40 MSTORE PUSH1 0x4 CALLDATASIZE LT PUSH2 0x4A JUMPI PUSH1 0x0 CALLDATALOAD PUSH1 0xE0 SHR DUP1 PUSH4 0xA6F2AE3A EQ PUSH2 0x4F JUMPI DUP1 PUSH4 0xA9059CBB EQ PUSH2 0x59 JUMPI DUP1 PUSH4 0xB2FA1C9E EQ PUSH2 0xB4 JUMPI DUP1 PUSH4 0xE3D670D7 EQ PUSH2 0xDF JUMPI DUP1 PUSH4 0xEFEDC669 EQ PUSH2 0x144 JUMPI JUMPDEST PUSH1 0x0 DUP1 REVERT JUMPDEST PUSH2 0x57 PUSH2 0x16F JUMP JUMPDEST STOP JUMPDEST CALLVALUE DUP1 ISZERO PUSH2 0x65 JUMPI PUSH1 0x0 DUP1 REVERT JUMPDEST POP PUSH2 0xB2 PUSH1 0x4 DUP1 CALLDATASIZE SUB PUSH1 0x40 DUP2 LT ISZERO PUSH2 0x7C JUMPI PUSH1 0x0 DUP1 REVERT JUMPDEST DUP2 ADD SWAP1 DUP1 DUP1 CALLDATALOAD PUSH20 0xFFFFFFFFFFFFFFFFFFFFFFFFFFFFFFFFFFFFFFFF AND SWAP1 PUSH1 0x20 ADD SWAP1 SWAP3 SWAP2 SWAP1 DUP1 CALLDATALOAD SWAP1 PUSH1 0x20 ADD SWAP1 SWAP3 SWAP2 SWAP1 POP POP POP PUSH2 0x208 JUMP JUMPDEST STOP JUMPDEST CALLVALUE DUP1 ISZERO PUSH2 0xC0 JUMPI PUSH1 0x0 DUP1 REVERT JUMPDEST POP PUSH2 0xC9 PUSH2 0x49A JUMP JUMPDEST PUSH1 0x40 MLOAD DUP1 DUP3 DUP2 MSTORE PUSH1 0x20 ADD SWAP2 POP POP PUSH1 0x40 MLOAD DUP1 SWAP2 SUB SWAP1 RETURN JUMPDEST CALLVALUE DUP1 ISZERO PUSH2 0xEB JUMPI PUSH1 0x0 DUP1 REVERT JUMPDEST POP PUSH2 0x12E PUSH1 0x4 DUP1 CALLDATASIZE SUB PUSH1 0x20 DUP2 LT ISZERO PUSH2 0x102 JUMPI PUSH1 0x0 DUP1 REVERT JUMPDEST DUP2 ADD SWAP1 DUP1 DUP1 CALLDATALOAD PUSH20 0xFFFFFFFFFFFFFFFFFFFFFFFFFFFFFFFFFFFFFFFF AND SWAP1 PUSH1 0x20 ADD SWAP1 SWAP3 SWAP2 SWAP1 POP POP POP PUSH2 0x552 JUMP JUMPDEST PUSH1 0x40 MLOAD DUP1 DUP3 DUP2 MSTORE PUSH1 0x20 ADD SWAP2 POP POP PUSH1 0x40 MLOAD DUP1 SWAP2 SUB SWAP1 RETURN JUMPDEST CALLVALUE DUP1 ISZERO PUSH2 0x150 JUMPI PUSH1 0x0 DUP1 REVERT JUMPDEST POP PUSH2 0x159 PUSH2 0x56A JUMP JUMPDEST PUSH1 0x40 MLOAD DUP1 DUP3 DUP2 MSTORE PUSH1 0x20 ADD SWAP2 POP POP PUSH1 0x40 MLOAD DUP1 SWAP2 SUB SWAP1 RETURN JUMPDEST PUSH7 0x2386F26FC10000 CALLVALUE LT ISZERO PUSH2 0x1EC JUMPI PUSH1 0x40 MLOAD PUSH32 0x8C379A000000000000000000000000000000000000000000000000000000000 DUP2 MSTORE PUSH1 0x4 ADD DUP1 DUP1 PUSH1 0x20 ADD DUP3 DUP2 SUB DUP3 MSTORE PUSH1 0xA DUP2 MSTORE PUSH1 0x20 ADD DUP1 PUSH32 0x7A65726F2076616C756500000000000000000000000000000000000000000000 DUP2 MSTORE POP PUSH1 0x20 ADD SWAP2 POP POP PUSH1 0x40 MLOAD DUP1 SWAP2 SUB SWAP1 REVERT JUMPDEST PUSH2 0x206 CALLER PUSH7 0x2386F26FC10000 CALLVALUE DUP2 PUSH2 0x200 JUMPI INVALID JUMPDEST DIV PUSH2 0x570 JUMP JUMPDEST JUMP JUMPDEST PUSH1 0x0 PUSH20 0xFFFFFFFFFFFFFFFFFFFFFFFFFFFFFFFFFFFFFFFF AND DUP3 PUSH20 0xFFFFFFFFFFFFFFFFFFFFFFFFFFFFFFFFFFFFFFFF AND EQ ISZERO PUSH2 0x2AB JUMPI PUSH1 0x40 MLOAD PUSH32 0x8C379A000000000000000000000000000000000000000000000000000000000 DUP2 MSTORE PUSH1 0x4 ADD DUP1 DUP1 PUSH1 0x20 ADD DUP3 DUP2 SUB DUP3 MSTORE PUSH1 0xF DUP2 MSTORE PUSH1 0x20 ADD DUP1 PUSH32 0x696E76616C696420616464726573730000000000000000000000000000000000 DUP2 MSTORE POP PUSH1 0x20 ADD SWAP2 POP POP PUSH1 0x40 MLOAD DUP1 SWAP2 SUB SWAP1 REVERT JUMPDEST PUSH1 0x0 DUP2 GT PUSH2 0x321 JUMPI PUSH1 0x40 MLOAD PUSH32 0x8C379A000000000000000000000000000000000000000000000000000000000 DUP2 MSTORE PUSH1 0x4 ADD DUP1 DUP1 PUSH1 0x20 ADD DUP3 DUP2 SUB DUP3 MSTORE PUSH1 0xE DUP2 MSTORE PUSH1 0x20 ADD DUP1 PUSH32 0x696E76616C696420616D6F756E74000000000000000000000000000000000000 DUP2 MSTORE POP PUSH1 0x20 ADD SWAP2 POP POP PUSH1 0x40 MLOAD DUP1 SWAP2 SUB SWAP1 REVERT JUMPDEST PUSH1 0x0 DUP2 PUSH1 0x3 PUSH1 0x0 CALLER PUSH20 0xFFFFFFFFFFFFFFFFFFFFFFFFFFFFFFFFFFFFFFFF AND PUSH20 0xFFFFFFFFFFFFFFFFFFFFFFFFFFFFFFFFFFFFFFFF AND DUP2 MSTORE PUSH1 0x20 ADD SWAP1 DUP2 MSTORE PUSH1 0x20 ADD PUSH1 0x0 KECCAK256 SLOAD SUB LT ISZERO PUSH2 0x370 JUMPI PUSH1 0x0 DUP1 REVERT JUMPDEST DUP1 PUSH1 0x3 PUSH1 0x0 CALLER PUSH20 0xFFFFFFFFFFFFFFFFFFFFFFFFFFFFFFFFFFFFFFFF AND PUSH20 0xFFFFFFFFFFFFFFFFFFFFFFFFFFFFFFFFFFFFFFFF AND DUP2 MSTORE PUSH1 0x20 ADD SWAP1 DUP2 MSTORE PUSH1 0x20 ADD PUSH1 0x0 KECCAK256 PUSH1 0x0 DUP3 DUP3 SLOAD SUB SWAP3 POP POP DUP2 SWAP1 SSTORE POP DUP1 PUSH1 0x3 PUSH1 0x0 DUP5 PUSH20 0xFFFFFFFFFFFFFFFFFFFFFFFFFFFFFFFFFFFFFFFF AND PUSH20 0xFFFFFFFFFFFFFFFFFFFFFFFFFFFFFFFFFFFFFFFF AND DUP2 MSTORE PUSH1 0x20 ADD SWAP1 DUP2 MSTORE PUSH1 0x20 ADD PUSH1 0x0 KECCAK256 PUSH1 0x0 DUP3 DUP3 SLOAD ADD SWAP3 POP POP DUP2 SWAP1 SSTORE POP DUP1 PUSH1 0x3 PUSH1 0x0 DUP5 PUSH20 0xFFFFFFFFFFFFFFFFFFFFFFFFFFFFFFFFFFFFFFFF AND PUSH20 0xFFFFFFFFFFFFFFFFFFFFFFFFFFFFFFFFFFFFFFFF AND DUP2 MSTORE PUSH1 0x20 ADD SWAP1 DUP2 MSTORE PUSH1 0x20 ADD PUSH1 0x0 KECCAK256 SLOAD SUB PUSH1 0x3 PUSH1 0x0 DUP5 PUSH20 0xFFFFFFFFFFFFFFFFFFFFFFFFFFFFFFFFFFFFFFFF AND PUSH20 0xFFFFFFFFFFFFFFFFFFFFFFFFFFFFFFFFFFFFFFFF AND DUP2 MSTORE PUSH1 0x20 ADD SWAP1 DUP2 MSTORE PUSH1 0x20 ADD PUSH1 0x0 KECCAK256 SLOAD GT PUSH2 0x496 JUMPI PUSH1 0x0 DUP1 REVERT JUMPDEST POP POP JUMP JUMPDEST PUSH1 0x0 DUP1 PUSH1 0x0 DUP2 SWAP1 SSTORE POP PUSH1 0x0 PUSH1 0x3 PUSH1 0x0 CALLER PUSH20 0xFFFFFFFFFFFFFFFFFFFFFFFFFFFFFFFFFFFFFFFF AND PUSH20 0xFFFFFFFFFFFFFFFFFFFFFFFFFFFFFFFFFFFFFFFF AND DUP2 MSTORE PUSH1 0x20 ADD SWAP1 DUP2 MSTORE PUSH1 0x20 ADD PUSH1 0x0 KECCAK256 SLOAD EQ PUSH2 0x4F3 JUMPI PUSH1 0x14 PUSH1 0x0 DUP2 SWAP1 SSTORE POP JUMPDEST PUSH7 0x2386F26FC10000 PUSH1 0x3 PUSH1 0x0 CALLER PUSH20 0xFFFFFFFFFFFFFFFFFFFFFFFFFFFFFFFFFFFFFFFF AND PUSH20 0xFFFFFFFFFFFFFFFFFFFFFFFFFFFFFFFFFFFFFFFF AND DUP2 MSTORE PUSH1 0x20 ADD SWAP1 DUP2 MSTORE PUSH1 0x20 ADD PUSH1 0x0 KECCAK256 SLOAD GT ISZERO PUSH2 0x54A JUMPI PUSH1 0x64 PUSH1 0x0 DUP2 SWAP1 SSTORE POP JUMPDEST PUSH1 0x0 SLOAD SWAP1 POP SWAP1 JUMP JUMPDEST PUSH1 0x3 PUSH1 0x20 MSTORE DUP1 PUSH1 0x0 MSTORE PUSH1 0x40 PUSH1 0x0 KECCAK256 PUSH1 0x0 SWAP2 POP SWAP1 POP SLOAD DUP2 JUMP JUMPDEST PUSH1 0x0 SLOAD DUP2 JUMP JUMPDEST DUP1 PUSH1 0x3 PUSH1 0x0 DUP5 PUSH20 0xFFFFFFFFFFFFFFFFFFFFFFFFFFFFFFFFFFFFFFFF AND PUSH20 0xFFFFFFFFFFFFFFFFFFFFFFFFFFFFFFFFFFFFFFFF AND DUP2 MSTORE PUSH1 0x20 ADD SWAP1 DUP2 MSTORE PUSH1 0x20 ADD PUSH1 0x0 KECCAK256 PUSH1 0x0 DUP3 DUP3 SLOAD ADD SWAP3 POP POP DUP2 SWAP1 SSTORE POP POP POP JUMP INVALID LOG2 PUSH5 0x6970667358 0x22 SLT KECCAK256 SWAP8 LOG0 0xE2 SWAP8 SIGNEXTEND SWAP5 DUP8 GT SELFBALANCE 0x4A CREATE 0xB6 RETURN 0xDF STOP SELFBALANCE SWAP16 BLOCKHASH JUMP PUSH25 0xE36F6CDD7DF25A15DF65192564736F6C634300060C00330000 "
				},
				"gasEstimates": {
					"creation": {
						"codeDepositCost": "305400",
						"executionCost": "343",
						"totalCost": "305743"
					},
					"external": {
						"balance(address)": "1213",
						"buy()": "21103",
						"isComplete()": "32904",
						"score()": "1071",
						"transfer(address,uint256)": "44899"
					},
					"internal": {
						"mint(address,uint256)": "20942"
					}
				},
				"methodIdentifiers": {
					"balance(address)": "e3d670d7",
					"buy()": "a6f2ae3a",
					"isComplete()": "b2fa1c9e",
					"score()": "efedc669",
					"transfer(address,uint256)": "a9059cbb"
				}
			},
			"storageLayout": {
				"storage": [
					{
						"astId": 3,
						"contract": "shoot/1/整型溢出/1.sol:Cal",
						"label": "score",
						"offset": 0,
						"slot": "0",
						"type": "t_uint256"
					},
					{
						"astId": 5,
						"contract": "shoot/1/整型溢出/1.sol:Cal",
						"label": "name",
						"offset": 0,
						"slot": "1",
						"type": "t_string_storage"
					},
					{
						"astId": 7,
						"contract": "shoot/1/整型溢出/1.sol:Cal",
						"label": "symbol",
						"offset": 0,
						"slot": "2",
						"type": "t_string_storage"
					},
					{
						"astId": 11,
						"contract": "shoot/1/整型溢出/1.sol:Cal",
						"label": "balance",
						"offset": 0,
						"slot": "3",
						"type": "t_mapping(t_address,t_uint256)"
					}
				],
				"types": {
					"t_address": {
						"encoding": "inplace",
						"label": "address",
						"numberOfBytes": "20"
					},
					"t_mapping(t_address,t_uint256)": {
						"encoding": "mapping",
						"key": "t_address",
						"label": "mapping(address => uint256)",
						"numberOfBytes": "32",
						"value": "t_uint256"
					},
					"t_string_storage": {
						"encoding": "bytes",
						"label": "string",
						"numberOfBytes": "32"
					},
					"t_uint256": {
						"encoding": "inplace",
						"label": "uint256",
						"numberOfBytes": "32"
					}
				}
			},
			"userdoc": {
				"kind": "user",
				"methods": {},
				"version": 1
			}
		}
	}
}