{
	"shoot/2/动态数据类型的存储/1.sol": {
		"att": {
			"abi": [
				{
					"inputs": [
						{
							"internalType": "contract array",
							"name": "addr",
							"type": "address"
						}
					],
					"stateMutability": "nonpayable",
					"type": "constructor"
				},
				{
					"inputs": [],
					"name": "attract",
					"outputs": [],
					"stateMutability": "nonpayable",
					"type": "function"
				},
				{
					"inputs": [],
					"name": "getTokenOfUserSlot",
					"outputs": [
						{
							"internalType": "bytes32",
							"name": "a",
							"type": "bytes32"
						}
					],
					"stateMutability": "view",
					"type": "function"
				},
				{
					"inputs": [],
					"name": "getTokenSlot",
					"outputs": [
						{
							"internalType": "bytes32",
							"name": "a",
							"type": "bytes32"
						}
					],
					"stateMutability": "pure",
					"type": "function"
				}
			],
			"devdoc": {
				"kind": "dev",
				"methods": {},
				"version": 1
			},
			"evm": {
				"assembly": "    /* \"shoot/2/\\xe5\\x8a\\xa8\\xe6\\x80\\x81\\xe6\\x95\\xb0\\xe6\\x8d\\xae\\xe7\\xb1\\xbb\\xe5\\x9e\\x8b\\xe7\\x9a\\x84\\xe5\\xad\\x98\\xe5\\x82\\xa8/1.sol\":177:732  contract att{... */\n  mstore(0x40, 0x80)\n    /* \"shoot/2/\\xe5\\x8a\\xa8\\xe6\\x80\\x81\\xe6\\x95\\xb0\\xe6\\x8d\\xae\\xe7\\xb1\\xbb\\xe5\\x9e\\x8b\\xe7\\x9a\\x84\\xe5\\xad\\x98\\xe5\\x82\\xa8/1.sol\":212:265  constructor(array addr) {... */\n  callvalue\n  dup1\n  iszero\n  tag_1\n  jumpi\n  0x00\n  dup1\n  revert\ntag_1:\n  pop\n  mload(0x40)\n  sub(codesize, bytecodeSize)\n  dup1\n  bytecodeSize\n  dup4\n  codecopy\n  dup2\n  dup2\n  add\n  0x40\n  mstore\n  dup2\n  add\n  swap1\n  tag_2\n  swap2\n  swap1\n  tag_3\n  jump\t// in\ntag_2:\n    /* \"shoot/2/\\xe5\\x8a\\xa8\\xe6\\x80\\x81\\xe6\\x95\\xb0\\xe6\\x8d\\xae\\xe7\\xb1\\xbb\\xe5\\x9e\\x8b\\xe7\\x9a\\x84\\xe5\\xad\\x98\\xe5\\x82\\xa8/1.sol\":253:257  addr */\n  dup1\n    /* \"shoot/2/\\xe5\\x8a\\xa8\\xe6\\x80\\x81\\xe6\\x95\\xb0\\xe6\\x8d\\xae\\xe7\\xb1\\xbb\\xe5\\x9e\\x8b\\xe7\\x9a\\x84\\xe5\\xad\\x98\\xe5\\x82\\xa8/1.sol\":247:250  arr */\n  0x00\n  dup1\n    /* \"shoot/2/\\xe5\\x8a\\xa8\\xe6\\x80\\x81\\xe6\\x95\\xb0\\xe6\\x8d\\xae\\xe7\\xb1\\xbb\\xe5\\x9e\\x8b\\xe7\\x9a\\x84\\xe5\\xad\\x98\\xe5\\x82\\xa8/1.sol\":247:257  arr = addr */\n  0x0100\n  exp\n  dup2\n  sload\n  dup2\n  0xffffffffffffffffffffffffffffffffffffffff\n  mul\n  not\n  and\n  swap1\n  dup4\n  0xffffffffffffffffffffffffffffffffffffffff\n  and\n  mul\n  or\n  swap1\n  sstore\n  pop\n    /* \"shoot/2/\\xe5\\x8a\\xa8\\xe6\\x80\\x81\\xe6\\x95\\xb0\\xe6\\x8d\\xae\\xe7\\xb1\\xbb\\xe5\\x9e\\x8b\\xe7\\x9a\\x84\\xe5\\xad\\x98\\xe5\\x82\\xa8/1.sol\":212:265  constructor(array addr) {... */\n  pop\n    /* \"shoot/2/\\xe5\\x8a\\xa8\\xe6\\x80\\x81\\xe6\\x95\\xb0\\xe6\\x8d\\xae\\xe7\\xb1\\xbb\\xe5\\x9e\\x8b\\xe7\\x9a\\x84\\xe5\\xad\\x98\\xe5\\x82\\xa8/1.sol\":177:732  contract att{... */\n  jump(tag_6)\n    /* \"#utility.yul\":88:205   */\ntag_8:\n    /* \"#utility.yul\":197:198   */\n  0x00\n    /* \"#utility.yul\":194:195   */\n  dup1\n    /* \"#utility.yul\":187:199   */\n  revert\n    /* \"#utility.yul\":334:460   */\ntag_10:\n    /* \"#utility.yul\":371:378   */\n  0x00\n    /* \"#utility.yul\":411:453   */\n  0xffffffffffffffffffffffffffffffffffffffff\n    /* \"#utility.yul\":404:409   */\n  dup3\n    /* \"#utility.yul\":400:454   */\n  and\n    /* \"#utility.yul\":389:454   */\n  swap1\n  pop\n    /* \"#utility.yul\":334:460   */\n  swap2\n  swap1\n  pop\n  jump\t// out\n    /* \"#utility.yul\":466:562   */\ntag_11:\n    /* \"#utility.yul\":503:510   */\n  0x00\n    /* \"#utility.yul\":532:556   */\n  tag_21\n    /* \"#utility.yul\":550:555   */\n  dup3\n    /* \"#utility.yul\":532:556   */\n  tag_10\n  jump\t// in\ntag_21:\n    /* \"#utility.yul\":521:556   */\n  swap1\n  pop\n    /* \"#utility.yul\":466:562   */\n  swap2\n  swap1\n  pop\n  jump\t// out\n    /* \"#utility.yul\":568:677   */\ntag_12:\n    /* \"#utility.yul\":618:625   */\n  0x00\n    /* \"#utility.yul\":647:671   */\n  tag_23\n    /* \"#utility.yul\":665:670   */\n  dup3\n    /* \"#utility.yul\":647:671   */\n  tag_11\n  jump\t// in\ntag_23:\n    /* \"#utility.yul\":636:671   */\n  swap1\n  pop\n    /* \"#utility.yul\":568:677   */\n  swap2\n  swap1\n  pop\n  jump\t// out\n    /* \"#utility.yul\":683:831   */\ntag_13:\n    /* \"#utility.yul\":769:806   */\n  tag_25\n    /* \"#utility.yul\":800:805   */\n  dup2\n    /* \"#utility.yul\":769:806   */\n  tag_12\n  jump\t// in\ntag_25:\n    /* \"#utility.yul\":762:767   */\n  dup2\n    /* \"#utility.yul\":759:807   */\n  eq\n    /* \"#utility.yul\":749:825   */\n  tag_26\n  jumpi\n    /* \"#utility.yul\":821:822   */\n  0x00\n    /* \"#utility.yul\":818:819   */\n  dup1\n    /* \"#utility.yul\":811:823   */\n  revert\n    /* \"#utility.yul\":749:825   */\ntag_26:\n    /* \"#utility.yul\":683:831   */\n  pop\n  jump\t// out\n    /* \"#utility.yul\":837:1006   */\ntag_14:\n    /* \"#utility.yul\":907:912   */\n  0x00\n    /* \"#utility.yul\":938:944   */\n  dup2\n    /* \"#utility.yul\":932:945   */\n  mload\n    /* \"#utility.yul\":923:945   */\n  swap1\n  pop\n    /* \"#utility.yul\":954:1000   */\n  tag_28\n    /* \"#utility.yul\":994:999   */\n  dup2\n    /* \"#utility.yul\":954:1000   */\n  tag_13\n  jump\t// in\ntag_28:\n    /* \"#utility.yul\":837:1006   */\n  swap3\n  swap2\n  pop\n  pop\n  jump\t// out\n    /* \"#utility.yul\":1012:1389   */\ntag_3:\n    /* \"#utility.yul\":1095:1101   */\n  0x00\n    /* \"#utility.yul\":1144:1146   */\n  0x20\n    /* \"#utility.yul\":1132:1141   */\n  dup3\n    /* \"#utility.yul\":1123:1130   */\n  dup5\n    /* \"#utility.yul\":1119:1142   */\n  sub\n    /* \"#utility.yul\":1115:1147   */\n  slt\n    /* \"#utility.yul\":1112:1231   */\n  iszero\n  tag_30\n  jumpi\n    /* \"#utility.yul\":1150:1229   */\n  tag_31\n  tag_8\n  jump\t// in\ntag_31:\n    /* \"#utility.yul\":1112:1231   */\ntag_30:\n    /* \"#utility.yul\":1270:1271   */\n  0x00\n    /* \"#utility.yul\":1295:1372   */\n  tag_32\n    /* \"#utility.yul\":1364:1371   */\n  dup5\n    /* \"#utility.yul\":1355:1361   */\n  dup3\n    /* \"#utility.yul\":1344:1353   */\n  dup6\n    /* \"#utility.yul\":1340:1362   */\n  add\n    /* \"#utility.yul\":1295:1372   */\n  tag_14\n  jump\t// in\ntag_32:\n    /* \"#utility.yul\":1285:1372   */\n  swap2\n  pop\n    /* \"#utility.yul\":1241:1382   */\n  pop\n    /* \"#utility.yul\":1012:1389   */\n  swap3\n  swap2\n  pop\n  pop\n  jump\t// out\n    /* \"shoot/2/\\xe5\\x8a\\xa8\\xe6\\x80\\x81\\xe6\\x95\\xb0\\xe6\\x8d\\xae\\xe7\\xb1\\xbb\\xe5\\x9e\\x8b\\xe7\\x9a\\x84\\xe5\\xad\\x98\\xe5\\x82\\xa8/1.sol\":177:732  contract att{... */\ntag_6:\n  dataSize(sub_0)\n  dup1\n  dataOffset(sub_0)\n  0x00\n  codecopy\n  0x00\n  return\nstop\n\nsub_0: assembly {\n        /* \"shoot/2/\\xe5\\x8a\\xa8\\xe6\\x80\\x81\\xe6\\x95\\xb0\\xe6\\x8d\\xae\\xe7\\xb1\\xbb\\xe5\\x9e\\x8b\\xe7\\x9a\\x84\\xe5\\xad\\x98\\xe5\\x82\\xa8/1.sol\":177:732  contract att{... */\n      mstore(0x40, 0x80)\n      callvalue\n      dup1\n      iszero\n      tag_1\n      jumpi\n      0x00\n      dup1\n      revert\n    tag_1:\n      pop\n      jumpi(tag_2, lt(calldatasize, 0x04))\n      shr(0xe0, calldataload(0x00))\n      dup1\n      0x50f35753\n      eq\n      tag_3\n      jumpi\n      dup1\n      0xcfb8d21a\n      eq\n      tag_4\n      jumpi\n      dup1\n      0xf4f5195d\n      eq\n      tag_5\n      jumpi\n    tag_2:\n      0x00\n      dup1\n      revert\n        /* \"shoot/2/\\xe5\\x8a\\xa8\\xe6\\x80\\x81\\xe6\\x95\\xb0\\xe6\\x8d\\xae\\xe7\\xb1\\xbb\\xe5\\x9e\\x8b\\xe7\\x9a\\x84\\xe5\\xad\\x98\\xe5\\x82\\xa8/1.sol\":271:421  function attract() public {... */\n    tag_3:\n      tag_6\n      tag_7\n      jump\t// in\n    tag_6:\n      stop\n        /* \"shoot/2/\\xe5\\x8a\\xa8\\xe6\\x80\\x81\\xe6\\x95\\xb0\\xe6\\x8d\\xae\\xe7\\xb1\\xbb\\xe5\\x9e\\x8b\\xe7\\x9a\\x84\\xe5\\xad\\x98\\xe5\\x82\\xa8/1.sol\":427:561  function getTokenSlot() public pure returns(bytes32 a){... */\n    tag_4:\n      tag_8\n      tag_9\n      jump\t// in\n    tag_8:\n      mload(0x40)\n      tag_10\n      swap2\n      swap1\n      tag_11\n      jump\t// in\n    tag_10:\n      mload(0x40)\n      dup1\n      swap2\n      sub\n      swap1\n      return\n        /* \"shoot/2/\\xe5\\x8a\\xa8\\xe6\\x80\\x81\\xe6\\x95\\xb0\\xe6\\x8d\\xae\\xe7\\xb1\\xbb\\xe5\\x9e\\x8b\\xe7\\x9a\\x84\\xe5\\xad\\x98\\xe5\\x82\\xa8/1.sol\":567:729  function getTokenOfUserSlot() public view returns(bytes32 a){... */\n    tag_5:\n      tag_12\n      tag_13\n      jump\t// in\n    tag_12:\n      mload(0x40)\n      tag_14\n      swap2\n      swap1\n      tag_11\n      jump\t// in\n    tag_14:\n      mload(0x40)\n      dup1\n      swap2\n      sub\n      swap1\n      return\n        /* \"shoot/2/\\xe5\\x8a\\xa8\\xe6\\x80\\x81\\xe6\\x95\\xb0\\xe6\\x8d\\xae\\xe7\\xb1\\xbb\\xe5\\x9e\\x8b\\xe7\\x9a\\x84\\xe5\\xad\\x98\\xe5\\x82\\xa8/1.sol\":271:421  function attract() public {... */\n    tag_7:\n        /* \"shoot/2/\\xe5\\x8a\\xa8\\xe6\\x80\\x81\\xe6\\x95\\xb0\\xe6\\x8d\\xae\\xe7\\xb1\\xbb\\xe5\\x9e\\x8b\\xe7\\x9a\\x84\\xe5\\xad\\x98\\xe5\\x82\\xa8/1.sol\":308:311  arr */\n      0x00\n      dup1\n      sload\n      swap1\n      0x0100\n      exp\n      swap1\n      div\n      0xffffffffffffffffffffffffffffffffffffffff\n      and\n        /* \"shoot/2/\\xe5\\x8a\\xa8\\xe6\\x80\\x81\\xe6\\x95\\xb0\\xe6\\x8d\\xae\\xe7\\xb1\\xbb\\xe5\\x9e\\x8b\\xe7\\x9a\\x84\\xe5\\xad\\x98\\xe5\\x82\\xa8/1.sol\":308:320  arr.addToken */\n      0xffffffffffffffffffffffffffffffffffffffff\n      and\n      0xaf81c5b9\n        /* \"shoot/2/\\xe5\\x8a\\xa8\\xe6\\x80\\x81\\xe6\\x95\\xb0\\xe6\\x8d\\xae\\xe7\\xb1\\xbb\\xe5\\x9e\\x8b\\xe7\\x9a\\x84\\xe5\\xad\\x98\\xe5\\x82\\xa8/1.sol\":329:330  0 */\n      0x00\n        /* \"shoot/2/\\xe5\\x8a\\xa8\\xe6\\x80\\x81\\xe6\\x95\\xb0\\xe6\\x8d\\xae\\xe7\\xb1\\xbb\\xe5\\x9e\\x8b\\xe7\\x9a\\x84\\xe5\\xad\\x98\\xe5\\x82\\xa8/1.sol\":333:334  0 */\n      dup1\n        /* \"shoot/2/\\xe5\\x8a\\xa8\\xe6\\x80\\x81\\xe6\\x95\\xb0\\xe6\\x8d\\xae\\xe7\\xb1\\xbb\\xe5\\x9e\\x8b\\xe7\\x9a\\x84\\xe5\\xad\\x98\\xe5\\x82\\xa8/1.sol\":308:335  arr.addToken(address(0), 0) */\n      mload(0x40)\n      dup4\n      0xffffffff\n      and\n      0xe0\n      shl\n      dup2\n      mstore\n      0x04\n      add\n      tag_16\n      swap3\n      swap2\n      swap1\n      tag_17\n      jump\t// in\n    tag_16:\n      0x00\n      mload(0x40)\n      dup1\n      dup4\n      sub\n      dup2\n      0x00\n      dup8\n      dup1\n      extcodesize\n      iszero\n      dup1\n      iszero\n      tag_18\n      jumpi\n      0x00\n      dup1\n      revert\n    tag_18:\n      pop\n      gas\n      call\n      iszero\n      dup1\n      iszero\n      tag_20\n      jumpi\n      returndatasize\n      0x00\n      dup1\n      returndatacopy\n      revert(0x00, returndatasize)\n    tag_20:\n      pop\n      pop\n      pop\n      pop\n        /* \"shoot/2/\\xe5\\x8a\\xa8\\xe6\\x80\\x81\\xe6\\x95\\xb0\\xe6\\x8d\\xae\\xe7\\xb1\\xbb\\xe5\\x9e\\x8b\\xe7\\x9a\\x84\\xe5\\xad\\x98\\xe5\\x82\\xa8/1.sol\":346:349  arr */\n      0x00\n      dup1\n      sload\n      swap1\n      0x0100\n      exp\n      swap1\n      div\n      0xffffffffffffffffffffffffffffffffffffffff\n      and\n        /* \"shoot/2/\\xe5\\x8a\\xa8\\xe6\\x80\\x81\\xe6\\x95\\xb0\\xe6\\x8d\\xae\\xe7\\xb1\\xbb\\xe5\\x9e\\x8b\\xe7\\x9a\\x84\\xe5\\xad\\x98\\xe5\\x82\\xa8/1.sol\":346:361  arr.isCompleted */\n      0xffffffffffffffffffffffffffffffffffffffff\n      and\n      0xf4a7fe27\n        /* \"shoot/2/\\xe5\\x8a\\xa8\\xe6\\x80\\x81\\xe6\\x95\\xb0\\xe6\\x8d\\xae\\xe7\\xb1\\xbb\\xe5\\x9e\\x8b\\xe7\\x9a\\x84\\xe5\\xad\\x98\\xe5\\x82\\xa8/1.sol\":362:376  getTokenSlot() */\n      tag_21\n        /* \"shoot/2/\\xe5\\x8a\\xa8\\xe6\\x80\\x81\\xe6\\x95\\xb0\\xe6\\x8d\\xae\\xe7\\xb1\\xbb\\xe5\\x9e\\x8b\\xe7\\x9a\\x84\\xe5\\xad\\x98\\xe5\\x82\\xa8/1.sol\":362:374  getTokenSlot */\n      tag_9\n        /* \"shoot/2/\\xe5\\x8a\\xa8\\xe6\\x80\\x81\\xe6\\x95\\xb0\\xe6\\x8d\\xae\\xe7\\xb1\\xbb\\xe5\\x9e\\x8b\\xe7\\x9a\\x84\\xe5\\xad\\x98\\xe5\\x82\\xa8/1.sol\":362:376  getTokenSlot() */\n      jump\t// in\n    tag_21:\n        /* \"shoot/2/\\xe5\\x8a\\xa8\\xe6\\x80\\x81\\xe6\\x95\\xb0\\xe6\\x8d\\xae\\xe7\\xb1\\xbb\\xe5\\x9e\\x8b\\xe7\\x9a\\x84\\xe5\\xad\\x98\\xe5\\x82\\xa8/1.sol\":377:397  getTokenOfUserSlot() */\n      tag_22\n        /* \"shoot/2/\\xe5\\x8a\\xa8\\xe6\\x80\\x81\\xe6\\x95\\xb0\\xe6\\x8d\\xae\\xe7\\xb1\\xbb\\xe5\\x9e\\x8b\\xe7\\x9a\\x84\\xe5\\xad\\x98\\xe5\\x82\\xa8/1.sol\":377:395  getTokenOfUserSlot */\n      tag_13\n        /* \"shoot/2/\\xe5\\x8a\\xa8\\xe6\\x80\\x81\\xe6\\x95\\xb0\\xe6\\x8d\\xae\\xe7\\xb1\\xbb\\xe5\\x9e\\x8b\\xe7\\x9a\\x84\\xe5\\xad\\x98\\xe5\\x82\\xa8/1.sol\":377:397  getTokenOfUserSlot() */\n      jump\t// in\n    tag_22:\n        /* \"shoot/2/\\xe5\\x8a\\xa8\\xe6\\x80\\x81\\xe6\\x95\\xb0\\xe6\\x8d\\xae\\xe7\\xb1\\xbb\\xe5\\x9e\\x8b\\xe7\\x9a\\x84\\xe5\\xad\\x98\\xe5\\x82\\xa8/1.sol\":398:399  0 */\n      0x00\n        /* \"shoot/2/\\xe5\\x8a\\xa8\\xe6\\x80\\x81\\xe6\\x95\\xb0\\xe6\\x8d\\xae\\xe7\\xb1\\xbb\\xe5\\x9e\\x8b\\xe7\\x9a\\x84\\xe5\\xad\\x98\\xe5\\x82\\xa8/1.sol\":408:411  arr */\n      dup1\n      0x00\n      swap1\n      sload\n      swap1\n      0x0100\n      exp\n      swap1\n      div\n      0xffffffffffffffffffffffffffffffffffffffff\n      and\n        /* \"shoot/2/\\xe5\\x8a\\xa8\\xe6\\x80\\x81\\xe6\\x95\\xb0\\xe6\\x8d\\xae\\xe7\\xb1\\xbb\\xe5\\x9e\\x8b\\xe7\\x9a\\x84\\xe5\\xad\\x98\\xe5\\x82\\xa8/1.sol\":346:413  arr.isCompleted(getTokenSlot(),getTokenOfUserSlot(),0,address(arr)) */\n      mload(0x40)\n      dup6\n      0xffffffff\n      and\n      0xe0\n      shl\n      dup2\n      mstore\n      0x04\n      add\n      tag_23\n      swap5\n      swap4\n      swap3\n      swap2\n      swap1\n      tag_24\n      jump\t// in\n    tag_23:\n      0x00\n      mload(0x40)\n      dup1\n      dup4\n      sub\n      dup2\n      0x00\n      dup8\n      dup1\n      extcodesize\n      iszero\n      dup1\n      iszero\n      tag_25\n      jumpi\n      0x00\n      dup1\n      revert\n    tag_25:\n      pop\n      gas\n      call\n      iszero\n      dup1\n      iszero\n      tag_27\n      jumpi\n      returndatasize\n      0x00\n      dup1\n      returndatacopy\n      revert(0x00, returndatasize)\n    tag_27:\n      pop\n      pop\n      pop\n      pop\n        /* \"shoot/2/\\xe5\\x8a\\xa8\\xe6\\x80\\x81\\xe6\\x95\\xb0\\xe6\\x8d\\xae\\xe7\\xb1\\xbb\\xe5\\x9e\\x8b\\xe7\\x9a\\x84\\xe5\\xad\\x98\\xe5\\x82\\xa8/1.sol\":271:421  function attract() public {... */\n      jump\t// out\n        /* \"shoot/2/\\xe5\\x8a\\xa8\\xe6\\x80\\x81\\xe6\\x95\\xb0\\xe6\\x8d\\xae\\xe7\\xb1\\xbb\\xe5\\x9e\\x8b\\xe7\\x9a\\x84\\xe5\\xad\\x98\\xe5\\x82\\xa8/1.sol\":427:561  function getTokenSlot() public pure returns(bytes32 a){... */\n    tag_9:\n        /* \"shoot/2/\\xe5\\x8a\\xa8\\xe6\\x80\\x81\\xe6\\x95\\xb0\\xe6\\x8d\\xae\\xe7\\xb1\\xbb\\xe5\\x9e\\x8b\\xe7\\x9a\\x84\\xe5\\xad\\x98\\xe5\\x82\\xa8/1.sol\":471:480  bytes32 a */\n      0x00\n        /* \"shoot/2/\\xe5\\x8a\\xa8\\xe6\\x80\\x81\\xe6\\x95\\xb0\\xe6\\x8d\\xae\\xe7\\xb1\\xbb\\xe5\\x9e\\x8b\\xe7\\x9a\\x84\\xe5\\xad\\x98\\xe5\\x82\\xa8/1.sol\":547:548  0 */\n      dup1\n        /* \"shoot/2/\\xe5\\x8a\\xa8\\xe6\\x80\\x81\\xe6\\x95\\xb0\\xe6\\x8d\\xae\\xe7\\xb1\\xbb\\xe5\\x9e\\x8b\\xe7\\x9a\\x84\\xe5\\xad\\x98\\xe5\\x82\\xa8/1.sol\":522:550  abi.encodePacked(uint256(0)) */\n      add(0x20, mload(0x40))\n      tag_29\n      swap2\n      swap1\n      tag_30\n      jump\t// in\n    tag_29:\n      mload(0x40)\n      0x20\n      dup2\n      dup4\n      sub\n      sub\n      dup2\n      mstore\n      swap1\n      0x40\n      mstore\n        /* \"shoot/2/\\xe5\\x8a\\xa8\\xe6\\x80\\x81\\xe6\\x95\\xb0\\xe6\\x8d\\xae\\xe7\\xb1\\xbb\\xe5\\x9e\\x8b\\xe7\\x9a\\x84\\xe5\\xad\\x98\\xe5\\x82\\xa8/1.sol\":512:551  keccak256(abi.encodePacked(uint256(0))) */\n      dup1\n      mload\n      swap1\n      0x20\n      add\n      keccak256\n        /* \"shoot/2/\\xe5\\x8a\\xa8\\xe6\\x80\\x81\\xe6\\x95\\xb0\\xe6\\x8d\\xae\\xe7\\xb1\\xbb\\xe5\\x9e\\x8b\\xe7\\x9a\\x84\\xe5\\xad\\x98\\xe5\\x82\\xa8/1.sol\":504:552  uint256(keccak256(abi.encodePacked(uint256(0)))) */\n      0x00\n      shr\n        /* \"shoot/2/\\xe5\\x8a\\xa8\\xe6\\x80\\x81\\xe6\\x95\\xb0\\xe6\\x8d\\xae\\xe7\\xb1\\xbb\\xe5\\x9e\\x8b\\xe7\\x9a\\x84\\xe5\\xad\\x98\\xe5\\x82\\xa8/1.sol\":496:553  bytes32(uint256(keccak256(abi.encodePacked(uint256(0))))) */\n      0x00\n      shl\n        /* \"shoot/2/\\xe5\\x8a\\xa8\\xe6\\x80\\x81\\xe6\\x95\\xb0\\xe6\\x8d\\xae\\xe7\\xb1\\xbb\\xe5\\x9e\\x8b\\xe7\\x9a\\x84\\xe5\\xad\\x98\\xe5\\x82\\xa8/1.sol\":492:553  a = bytes32(uint256(keccak256(abi.encodePacked(uint256(0))))) */\n      swap1\n      pop\n        /* \"shoot/2/\\xe5\\x8a\\xa8\\xe6\\x80\\x81\\xe6\\x95\\xb0\\xe6\\x8d\\xae\\xe7\\xb1\\xbb\\xe5\\x9e\\x8b\\xe7\\x9a\\x84\\xe5\\xad\\x98\\xe5\\x82\\xa8/1.sol\":427:561  function getTokenSlot() public pure returns(bytes32 a){... */\n      swap1\n      jump\t// out\n        /* \"shoot/2/\\xe5\\x8a\\xa8\\xe6\\x80\\x81\\xe6\\x95\\xb0\\xe6\\x8d\\xae\\xe7\\xb1\\xbb\\xe5\\x9e\\x8b\\xe7\\x9a\\x84\\xe5\\xad\\x98\\xe5\\x82\\xa8/1.sol\":567:729  function getTokenOfUserSlot() public view returns(bytes32 a){... */\n    tag_13:\n        /* \"shoot/2/\\xe5\\x8a\\xa8\\xe6\\x80\\x81\\xe6\\x95\\xb0\\xe6\\x8d\\xae\\xe7\\xb1\\xbb\\xe5\\x9e\\x8b\\xe7\\x9a\\x84\\xe5\\xad\\x98\\xe5\\x82\\xa8/1.sol\":617:626  bytes32 a */\n      0x00\n        /* \"shoot/2/\\xe5\\x8a\\xa8\\xe6\\x80\\x81\\xe6\\x95\\xb0\\xe6\\x8d\\xae\\xe7\\xb1\\xbb\\xe5\\x9e\\x8b\\xe7\\x9a\\x84\\xe5\\xad\\x98\\xe5\\x82\\xa8/1.sol\":701:704  arr */\n      dup1\n      0x00\n      swap1\n      sload\n      swap1\n      0x0100\n      exp\n      swap1\n      div\n      0xffffffffffffffffffffffffffffffffffffffff\n      and\n        /* \"shoot/2/\\xe5\\x8a\\xa8\\xe6\\x80\\x81\\xe6\\x95\\xb0\\xe6\\x8d\\xae\\xe7\\xb1\\xbb\\xe5\\x9e\\x8b\\xe7\\x9a\\x84\\xe5\\xad\\x98\\xe5\\x82\\xa8/1.sol\":677:707  uint256(uint160(address(arr))) */\n      0xffffffffffffffffffffffffffffffffffffffff\n      and\n        /* \"shoot/2/\\xe5\\x8a\\xa8\\xe6\\x80\\x81\\xe6\\x95\\xb0\\xe6\\x8d\\xae\\xe7\\xb1\\xbb\\xe5\\x9e\\x8b\\xe7\\x9a\\x84\\xe5\\xad\\x98\\xe5\\x82\\xa8/1.sol\":716:717  1 */\n      0x01\n        /* \"shoot/2/\\xe5\\x8a\\xa8\\xe6\\x80\\x81\\xe6\\x95\\xb0\\xe6\\x8d\\xae\\xe7\\xb1\\xbb\\xe5\\x9e\\x8b\\xe7\\x9a\\x84\\xe5\\xad\\x98\\xe5\\x82\\xa8/1.sol\":660:719  abi.encodePacked(uint256(uint160(address(arr))),uint256(1)) */\n      add(0x20, mload(0x40))\n      tag_32\n      swap3\n      swap2\n      swap1\n      tag_33\n      jump\t// in\n    tag_32:\n      mload(0x40)\n      0x20\n      dup2\n      dup4\n      sub\n      sub\n      dup2\n      mstore\n      swap1\n      0x40\n      mstore\n        /* \"shoot/2/\\xe5\\x8a\\xa8\\xe6\\x80\\x81\\xe6\\x95\\xb0\\xe6\\x8d\\xae\\xe7\\xb1\\xbb\\xe5\\x9e\\x8b\\xe7\\x9a\\x84\\xe5\\xad\\x98\\xe5\\x82\\xa8/1.sol\":650:720  keccak256(abi.encodePacked(uint256(uint160(address(arr))),uint256(1))) */\n      dup1\n      mload\n      swap1\n      0x20\n      add\n      keccak256\n        /* \"shoot/2/\\xe5\\x8a\\xa8\\xe6\\x80\\x81\\xe6\\x95\\xb0\\xe6\\x8d\\xae\\xe7\\xb1\\xbb\\xe5\\x9e\\x8b\\xe7\\x9a\\x84\\xe5\\xad\\x98\\xe5\\x82\\xa8/1.sol\":638:721  a = bytes32(keccak256(abi.encodePacked(uint256(uint160(address(arr))),uint256(1)))) */\n      swap1\n      pop\n        /* \"shoot/2/\\xe5\\x8a\\xa8\\xe6\\x80\\x81\\xe6\\x95\\xb0\\xe6\\x8d\\xae\\xe7\\xb1\\xbb\\xe5\\x9e\\x8b\\xe7\\x9a\\x84\\xe5\\xad\\x98\\xe5\\x82\\xa8/1.sol\":567:729  function getTokenOfUserSlot() public view returns(bytes32 a){... */\n      swap1\n      jump\t// out\n        /* \"#utility.yul\":7:84   */\n    tag_34:\n        /* \"#utility.yul\":44:51   */\n      0x00\n        /* \"#utility.yul\":73:78   */\n      dup2\n        /* \"#utility.yul\":62:78   */\n      swap1\n      pop\n        /* \"#utility.yul\":7:84   */\n      swap2\n      swap1\n      pop\n      jump\t// out\n        /* \"#utility.yul\":90:208   */\n    tag_35:\n        /* \"#utility.yul\":177:201   */\n      tag_49\n        /* \"#utility.yul\":195:200   */\n      dup2\n        /* \"#utility.yul\":177:201   */\n      tag_34\n      jump\t// in\n    tag_49:\n        /* \"#utility.yul\":172:175   */\n      dup3\n        /* \"#utility.yul\":165:202   */\n      mstore\n        /* \"#utility.yul\":90:208   */\n      pop\n      pop\n      jump\t// out\n        /* \"#utility.yul\":214:436   */\n    tag_11:\n        /* \"#utility.yul\":307:311   */\n      0x00\n        /* \"#utility.yul\":345:347   */\n      0x20\n        /* \"#utility.yul\":334:343   */\n      dup3\n        /* \"#utility.yul\":330:348   */\n      add\n        /* \"#utility.yul\":322:348   */\n      swap1\n      pop\n        /* \"#utility.yul\":358:429   */\n      tag_51\n        /* \"#utility.yul\":426:427   */\n      0x00\n        /* \"#utility.yul\":415:424   */\n      dup4\n        /* \"#utility.yul\":411:428   */\n      add\n        /* \"#utility.yul\":402:408   */\n      dup5\n        /* \"#utility.yul\":358:429   */\n      tag_35\n      jump\t// in\n    tag_51:\n        /* \"#utility.yul\":214:436   */\n      swap3\n      swap2\n      pop\n      pop\n      jump\t// out\n        /* \"#utility.yul\":442:568   */\n    tag_36:\n        /* \"#utility.yul\":479:486   */\n      0x00\n        /* \"#utility.yul\":519:561   */\n      0xffffffffffffffffffffffffffffffffffffffff\n        /* \"#utility.yul\":512:517   */\n      dup3\n        /* \"#utility.yul\":508:562   */\n      and\n        /* \"#utility.yul\":497:562   */\n      swap1\n      pop\n        /* \"#utility.yul\":442:568   */\n      swap2\n      swap1\n      pop\n      jump\t// out\n        /* \"#utility.yul\":574:670   */\n    tag_37:\n        /* \"#utility.yul\":611:618   */\n      0x00\n        /* \"#utility.yul\":640:664   */\n      tag_54\n        /* \"#utility.yul\":658:663   */\n      dup3\n        /* \"#utility.yul\":640:664   */\n      tag_36\n      jump\t// in\n    tag_54:\n        /* \"#utility.yul\":629:664   */\n      swap1\n      pop\n        /* \"#utility.yul\":574:670   */\n      swap2\n      swap1\n      pop\n      jump\t// out\n        /* \"#utility.yul\":676:794   */\n    tag_38:\n        /* \"#utility.yul\":763:787   */\n      tag_56\n        /* \"#utility.yul\":781:786   */\n      dup2\n        /* \"#utility.yul\":763:787   */\n      tag_37\n      jump\t// in\n    tag_56:\n        /* \"#utility.yul\":758:761   */\n      dup3\n        /* \"#utility.yul\":751:788   */\n      mstore\n        /* \"#utility.yul\":676:794   */\n      pop\n      pop\n      jump\t// out\n        /* \"#utility.yul\":800:885   */\n    tag_39:\n        /* \"#utility.yul\":845:852   */\n      0x00\n        /* \"#utility.yul\":874:879   */\n      dup2\n        /* \"#utility.yul\":863:879   */\n      swap1\n      pop\n        /* \"#utility.yul\":800:885   */\n      swap2\n      swap1\n      pop\n      jump\t// out\n        /* \"#utility.yul\":891:968   */\n    tag_40:\n        /* \"#utility.yul\":928:935   */\n      0x00\n        /* \"#utility.yul\":957:962   */\n      dup2\n        /* \"#utility.yul\":946:962   */\n      swap1\n      pop\n        /* \"#utility.yul\":891:968   */\n      swap2\n      swap1\n      pop\n      jump\t// out\n        /* \"#utility.yul\":974:1034   */\n    tag_41:\n        /* \"#utility.yul\":1002:1005   */\n      0x00\n        /* \"#utility.yul\":1023:1028   */\n      dup2\n        /* \"#utility.yul\":1016:1028   */\n      swap1\n      pop\n        /* \"#utility.yul\":974:1034   */\n      swap2\n      swap1\n      pop\n      jump\t// out\n        /* \"#utility.yul\":1040:1198   */\n    tag_42:\n        /* \"#utility.yul\":1098:1107   */\n      0x00\n        /* \"#utility.yul\":1131:1192   */\n      tag_61\n        /* \"#utility.yul\":1149:1191   */\n      tag_62\n        /* \"#utility.yul\":1158:1190   */\n      tag_63\n        /* \"#utility.yul\":1184:1189   */\n      dup5\n        /* \"#utility.yul\":1158:1190   */\n      tag_39\n      jump\t// in\n    tag_63:\n        /* \"#utility.yul\":1149:1191   */\n      tag_41\n      jump\t// in\n    tag_62:\n        /* \"#utility.yul\":1131:1192   */\n      tag_40\n      jump\t// in\n    tag_61:\n        /* \"#utility.yul\":1118:1192   */\n      swap1\n      pop\n        /* \"#utility.yul\":1040:1198   */\n      swap2\n      swap1\n      pop\n      jump\t// out\n        /* \"#utility.yul\":1204:1351   */\n    tag_43:\n        /* \"#utility.yul\":1299:1344   */\n      tag_65\n        /* \"#utility.yul\":1338:1343   */\n      dup2\n        /* \"#utility.yul\":1299:1344   */\n      tag_42\n      jump\t// in\n    tag_65:\n        /* \"#utility.yul\":1294:1297   */\n      dup3\n        /* \"#utility.yul\":1287:1345   */\n      mstore\n        /* \"#utility.yul\":1204:1351   */\n      pop\n      pop\n      jump\t// out\n        /* \"#utility.yul\":1357:1705   */\n    tag_17:\n        /* \"#utility.yul\":1486:1490   */\n      0x00\n        /* \"#utility.yul\":1524:1526   */\n      0x40\n        /* \"#utility.yul\":1513:1522   */\n      dup3\n        /* \"#utility.yul\":1509:1527   */\n      add\n        /* \"#utility.yul\":1501:1527   */\n      swap1\n      pop\n        /* \"#utility.yul\":1537:1608   */\n      tag_67\n        /* \"#utility.yul\":1605:1606   */\n      0x00\n        /* \"#utility.yul\":1594:1603   */\n      dup4\n        /* \"#utility.yul\":1590:1607   */\n      add\n        /* \"#utility.yul\":1581:1587   */\n      dup6\n        /* \"#utility.yul\":1537:1608   */\n      tag_38\n      jump\t// in\n    tag_67:\n        /* \"#utility.yul\":1618:1698   */\n      tag_68\n        /* \"#utility.yul\":1694:1696   */\n      0x20\n        /* \"#utility.yul\":1683:1692   */\n      dup4\n        /* \"#utility.yul\":1679:1697   */\n      add\n        /* \"#utility.yul\":1670:1676   */\n      dup5\n        /* \"#utility.yul\":1618:1698   */\n      tag_43\n      jump\t// in\n    tag_68:\n        /* \"#utility.yul\":1357:1705   */\n      swap4\n      swap3\n      pop\n      pop\n      pop\n      jump\t// out\n        /* \"#utility.yul\":1711:2280   */\n    tag_24:\n        /* \"#utility.yul\":1896:1900   */\n      0x00\n        /* \"#utility.yul\":1934:1937   */\n      0x80\n        /* \"#utility.yul\":1923:1932   */\n      dup3\n        /* \"#utility.yul\":1919:1938   */\n      add\n        /* \"#utility.yul\":1911:1938   */\n      swap1\n      pop\n        /* \"#utility.yul\":1948:2019   */\n      tag_70\n        /* \"#utility.yul\":2016:2017   */\n      0x00\n        /* \"#utility.yul\":2005:2014   */\n      dup4\n        /* \"#utility.yul\":2001:2018   */\n      add\n        /* \"#utility.yul\":1992:1998   */\n      dup8\n        /* \"#utility.yul\":1948:2019   */\n      tag_35\n      jump\t// in\n    tag_70:\n        /* \"#utility.yul\":2029:2101   */\n      tag_71\n        /* \"#utility.yul\":2097:2099   */\n      0x20\n        /* \"#utility.yul\":2086:2095   */\n      dup4\n        /* \"#utility.yul\":2082:2100   */\n      add\n        /* \"#utility.yul\":2073:2079   */\n      dup7\n        /* \"#utility.yul\":2029:2101   */\n      tag_35\n      jump\t// in\n    tag_71:\n        /* \"#utility.yul\":2111:2191   */\n      tag_72\n        /* \"#utility.yul\":2187:2189   */\n      0x40\n        /* \"#utility.yul\":2176:2185   */\n      dup4\n        /* \"#utility.yul\":2172:2190   */\n      add\n        /* \"#utility.yul\":2163:2169   */\n      dup6\n        /* \"#utility.yul\":2111:2191   */\n      tag_43\n      jump\t// in\n    tag_72:\n        /* \"#utility.yul\":2201:2273   */\n      tag_73\n        /* \"#utility.yul\":2269:2271   */\n      0x60\n        /* \"#utility.yul\":2258:2267   */\n      dup4\n        /* \"#utility.yul\":2254:2272   */\n      add\n        /* \"#utility.yul\":2245:2251   */\n      dup5\n        /* \"#utility.yul\":2201:2273   */\n      tag_38\n      jump\t// in\n    tag_73:\n        /* \"#utility.yul\":1711:2280   */\n      swap6\n      swap5\n      pop\n      pop\n      pop\n      pop\n      pop\n      jump\t// out\n        /* \"#utility.yul\":2286:2365   */\n    tag_44:\n        /* \"#utility.yul\":2325:2332   */\n      0x00\n        /* \"#utility.yul\":2354:2359   */\n      dup2\n        /* \"#utility.yul\":2343:2359   */\n      swap1\n      pop\n        /* \"#utility.yul\":2286:2365   */\n      swap2\n      swap1\n      pop\n      jump\t// out\n        /* \"#utility.yul\":2371:2528   */\n    tag_45:\n        /* \"#utility.yul\":2476:2521   */\n      tag_76\n        /* \"#utility.yul\":2496:2520   */\n      tag_77\n        /* \"#utility.yul\":2514:2519   */\n      dup3\n        /* \"#utility.yul\":2496:2520   */\n      tag_40\n      jump\t// in\n    tag_77:\n        /* \"#utility.yul\":2476:2521   */\n      tag_44\n      jump\t// in\n    tag_76:\n        /* \"#utility.yul\":2471:2474   */\n      dup3\n        /* \"#utility.yul\":2464:2522   */\n      mstore\n        /* \"#utility.yul\":2371:2528   */\n      pop\n      pop\n      jump\t// out\n        /* \"#utility.yul\":2534:2790   */\n    tag_30:\n        /* \"#utility.yul\":2646:2649   */\n      0x00\n        /* \"#utility.yul\":2661:2736   */\n      tag_79\n        /* \"#utility.yul\":2732:2735   */\n      dup3\n        /* \"#utility.yul\":2723:2729   */\n      dup5\n        /* \"#utility.yul\":2661:2736   */\n      tag_45\n      jump\t// in\n    tag_79:\n        /* \"#utility.yul\":2761:2763   */\n      0x20\n        /* \"#utility.yul\":2756:2759   */\n      dup3\n        /* \"#utility.yul\":2752:2764   */\n      add\n        /* \"#utility.yul\":2745:2764   */\n      swap2\n      pop\n        /* \"#utility.yul\":2781:2784   */\n      dup2\n        /* \"#utility.yul\":2774:2784   */\n      swap1\n      pop\n        /* \"#utility.yul\":2534:2790   */\n      swap3\n      swap2\n      pop\n      pop\n      jump\t// out\n        /* \"#utility.yul\":2796:3193   */\n    tag_33:\n        /* \"#utility.yul\":2936:2939   */\n      0x00\n        /* \"#utility.yul\":2951:3026   */\n      tag_81\n        /* \"#utility.yul\":3022:3025   */\n      dup3\n        /* \"#utility.yul\":3013:3019   */\n      dup6\n        /* \"#utility.yul\":2951:3026   */\n      tag_45\n      jump\t// in\n    tag_81:\n        /* \"#utility.yul\":3051:3053   */\n      0x20\n        /* \"#utility.yul\":3046:3049   */\n      dup3\n        /* \"#utility.yul\":3042:3054   */\n      add\n        /* \"#utility.yul\":3035:3054   */\n      swap2\n      pop\n        /* \"#utility.yul\":3064:3139   */\n      tag_82\n        /* \"#utility.yul\":3135:3138   */\n      dup3\n        /* \"#utility.yul\":3126:3132   */\n      dup5\n        /* \"#utility.yul\":3064:3139   */\n      tag_45\n      jump\t// in\n    tag_82:\n        /* \"#utility.yul\":3164:3166   */\n      0x20\n        /* \"#utility.yul\":3159:3162   */\n      dup3\n        /* \"#utility.yul\":3155:3167   */\n      add\n        /* \"#utility.yul\":3148:3167   */\n      swap2\n      pop\n        /* \"#utility.yul\":3184:3187   */\n      dup2\n        /* \"#utility.yul\":3177:3187   */\n      swap1\n      pop\n        /* \"#utility.yul\":2796:3193   */\n      swap4\n      swap3\n      pop\n      pop\n      pop\n      jump\t// out\n\n    auxdata: 0xa264697066735822122015f1365cfd34445a70cee92992c9975d1ad2d96e29dad17a4b55208760e23b1064736f6c63430008150033\n}\n",
				"bytecode": {
					"linkReferences": {},
					"object": "608060405234801561000f575f80fd5b5060405161053f38038061053f833981810160405281019061003191906100e5565b805f806101000a81548173ffffffffffffffffffffffffffffffffffffffff021916908373ffffffffffffffffffffffffffffffffffffffff16021790555050610110565b5f80fd5b5f73ffffffffffffffffffffffffffffffffffffffff82169050919050565b5f6100a38261007a565b9050919050565b5f6100b482610099565b9050919050565b6100c4816100aa565b81146100ce575f80fd5b50565b5f815190506100df816100bb565b92915050565b5f602082840312156100fa576100f9610076565b5b5f610107848285016100d1565b91505092915050565b6104228061011d5f395ff3fe608060405234801561000f575f80fd5b506004361061003f575f3560e01c806350f3575314610043578063cfb8d21a1461004d578063f4f5195d1461006b575b5f80fd5b61004b610089565b005b6100556101cb565b604051610062919061027a565b60405180910390f35b6100736101fc565b604051610080919061027a565b60405180910390f35b5f8054906101000a900473ffffffffffffffffffffffffffffffffffffffff1673ffffffffffffffffffffffffffffffffffffffff1663af81c5b95f806040518363ffffffff1660e01b81526004016100e392919061031d565b5f604051808303815f87803b1580156100fa575f80fd5b505af115801561010c573d5f803e3d5ffd5b505050505f8054906101000a900473ffffffffffffffffffffffffffffffffffffffff1673ffffffffffffffffffffffffffffffffffffffff1663f4a7fe276101536101cb565b61015b6101fc565b5f805f9054906101000a900473ffffffffffffffffffffffffffffffffffffffff166040518563ffffffff1660e01b815260040161019c9493929190610344565b5f604051808303815f87803b1580156101b3575f80fd5b505af11580156101c5573d5f803e3d5ffd5b50505050565b5f806040516020016101dd91906103a7565b604051602081830303815290604052805190602001205f1c5f1b905090565b5f805f9054906101000a900473ffffffffffffffffffffffffffffffffffffffff1673ffffffffffffffffffffffffffffffffffffffff1660016040516020016102479291906103c1565b60405160208183030381529060405280519060200120905090565b5f819050919050565b61027481610262565b82525050565b5f60208201905061028d5f83018461026b565b92915050565b5f73ffffffffffffffffffffffffffffffffffffffff82169050919050565b5f6102bc82610293565b9050919050565b6102cc816102b2565b82525050565b5f819050919050565b5f819050919050565b5f819050919050565b5f6103076103026102fd846102d2565b6102e4565b6102db565b9050919050565b610317816102ed565b82525050565b5f6040820190506103305f8301856102c3565b61033d602083018461030e565b9392505050565b5f6080820190506103575f83018761026b565b610364602083018661026b565b610371604083018561030e565b61037e60608301846102c3565b95945050505050565b5f819050919050565b6103a161039c826102db565b610387565b82525050565b5f6103b28284610390565b60208201915081905092915050565b5f6103cc8285610390565b6020820191506103dc8284610390565b602082019150819050939250505056fea264697066735822122015f1365cfd34445a70cee92992c9975d1ad2d96e29dad17a4b55208760e23b1064736f6c63430008150033",
					"opcodes": "PUSH1 0x80 PUSH1 0x40 MSTORE CALLVALUE DUP1 ISZERO PUSH2 0xF JUMPI PUSH0 DUP1 REVERT JUMPDEST POP PUSH1 0x40 MLOAD PUSH2 0x53F CODESIZE SUB DUP1 PUSH2 0x53F DUP4 CODECOPY DUP2 DUP2 ADD PUSH1 0x40 MSTORE DUP2 ADD SWAP1 PUSH2 0x31 SWAP2 SWAP1 PUSH2 0xE5 JUMP JUMPDEST DUP1 PUSH0 DUP1 PUSH2 0x100 EXP DUP2 SLOAD DUP2 PUSH20 0xFFFFFFFFFFFFFFFFFFFFFFFFFFFFFFFFFFFFFFFF MUL NOT AND SWAP1 DUP4 PUSH20 0xFFFFFFFFFFFFFFFFFFFFFFFFFFFFFFFFFFFFFFFF AND MUL OR SWAP1 SSTORE POP POP PUSH2 0x110 JUMP JUMPDEST PUSH0 DUP1 REVERT JUMPDEST PUSH0 PUSH20 0xFFFFFFFFFFFFFFFFFFFFFFFFFFFFFFFFFFFFFFFF DUP3 AND SWAP1 POP SWAP2 SWAP1 POP JUMP JUMPDEST PUSH0 PUSH2 0xA3 DUP3 PUSH2 0x7A JUMP JUMPDEST SWAP1 POP SWAP2 SWAP1 POP JUMP JUMPDEST PUSH0 PUSH2 0xB4 DUP3 PUSH2 0x99 JUMP JUMPDEST SWAP1 POP SWAP2 SWAP1 POP JUMP JUMPDEST PUSH2 0xC4 DUP2 PUSH2 0xAA JUMP JUMPDEST DUP2 EQ PUSH2 0xCE JUMPI PUSH0 DUP1 REVERT JUMPDEST POP JUMP JUMPDEST PUSH0 DUP2 MLOAD SWAP1 POP PUSH2 0xDF DUP2 PUSH2 0xBB JUMP JUMPDEST SWAP3 SWAP2 POP POP JUMP JUMPDEST PUSH0 PUSH1 0x20 DUP3 DUP5 SUB SLT ISZERO PUSH2 0xFA JUMPI PUSH2 0xF9 PUSH2 0x76 JUMP JUMPDEST JUMPDEST PUSH0 PUSH2 0x107 DUP5 DUP3 DUP6 ADD PUSH2 0xD1 JUMP JUMPDEST SWAP2 POP POP SWAP3 SWAP2 POP POP JUMP JUMPDEST PUSH2 0x422 DUP1 PUSH2 0x11D PUSH0 CODECOPY PUSH0 RETURN INVALID PUSH1 0x80 PUSH1 0x40 MSTORE CALLVALUE DUP1 ISZERO PUSH2 0xF JUMPI PUSH0 DUP1 REVERT JUMPDEST POP PUSH1 0x4 CALLDATASIZE LT PUSH2 0x3F JUMPI PUSH0 CALLDATALOAD PUSH1 0xE0 SHR DUP1 PUSH4 0x50F35753 EQ PUSH2 0x43 JUMPI DUP1 PUSH4 0xCFB8D21A EQ PUSH2 0x4D JUMPI DUP1 PUSH4 0xF4F5195D EQ PUSH2 0x6B JUMPI JUMPDEST PUSH0 DUP1 REVERT JUMPDEST PUSH2 0x4B PUSH2 0x89 JUMP JUMPDEST STOP JUMPDEST PUSH2 0x55 PUSH2 0x1CB JUMP JUMPDEST PUSH1 0x40 MLOAD PUSH2 0x62 SWAP2 SWAP1 PUSH2 0x27A JUMP JUMPDEST PUSH1 0x40 MLOAD DUP1 SWAP2 SUB SWAP1 RETURN JUMPDEST PUSH2 0x73 PUSH2 0x1FC JUMP JUMPDEST PUSH1 0x40 MLOAD PUSH2 0x80 SWAP2 SWAP1 PUSH2 0x27A JUMP JUMPDEST PUSH1 0x40 MLOAD DUP1 SWAP2 SUB SWAP1 RETURN JUMPDEST PUSH0 DUP1 SLOAD SWAP1 PUSH2 0x100 EXP SWAP1 DIV PUSH20 0xFFFFFFFFFFFFFFFFFFFFFFFFFFFFFFFFFFFFFFFF AND PUSH20 0xFFFFFFFFFFFFFFFFFFFFFFFFFFFFFFFFFFFFFFFF AND PUSH4 0xAF81C5B9 PUSH0 DUP1 PUSH1 0x40 MLOAD DUP4 PUSH4 0xFFFFFFFF AND PUSH1 0xE0 SHL DUP2 MSTORE PUSH1 0x4 ADD PUSH2 0xE3 SWAP3 SWAP2 SWAP1 PUSH2 0x31D JUMP JUMPDEST PUSH0 PUSH1 0x40 MLOAD DUP1 DUP4 SUB DUP2 PUSH0 DUP8 DUP1 EXTCODESIZE ISZERO DUP1 ISZERO PUSH2 0xFA JUMPI PUSH0 DUP1 REVERT JUMPDEST POP GAS CALL ISZERO DUP1 ISZERO PUSH2 0x10C JUMPI RETURNDATASIZE PUSH0 DUP1 RETURNDATACOPY RETURNDATASIZE PUSH0 REVERT JUMPDEST POP POP POP POP PUSH0 DUP1 SLOAD SWAP1 PUSH2 0x100 EXP SWAP1 DIV PUSH20 0xFFFFFFFFFFFFFFFFFFFFFFFFFFFFFFFFFFFFFFFF AND PUSH20 0xFFFFFFFFFFFFFFFFFFFFFFFFFFFFFFFFFFFFFFFF AND PUSH4 0xF4A7FE27 PUSH2 0x153 PUSH2 0x1CB JUMP JUMPDEST PUSH2 0x15B PUSH2 0x1FC JUMP JUMPDEST PUSH0 DUP1 PUSH0 SWAP1 SLOAD SWAP1 PUSH2 0x100 EXP SWAP1 DIV PUSH20 0xFFFFFFFFFFFFFFFFFFFFFFFFFFFFFFFFFFFFFFFF AND PUSH1 0x40 MLOAD DUP6 PUSH4 0xFFFFFFFF AND PUSH1 0xE0 SHL DUP2 MSTORE PUSH1 0x4 ADD PUSH2 0x19C SWAP5 SWAP4 SWAP3 SWAP2 SWAP1 PUSH2 0x344 JUMP JUMPDEST PUSH0 PUSH1 0x40 MLOAD DUP1 DUP4 SUB DUP2 PUSH0 DUP8 DUP1 EXTCODESIZE ISZERO DUP1 ISZERO PUSH2 0x1B3 JUMPI PUSH0 DUP1 REVERT JUMPDEST POP GAS CALL ISZERO DUP1 ISZERO PUSH2 0x1C5 JUMPI RETURNDATASIZE PUSH0 DUP1 RETURNDATACOPY RETURNDATASIZE PUSH0 REVERT JUMPDEST POP POP POP POP JUMP JUMPDEST PUSH0 DUP1 PUSH1 0x40 MLOAD PUSH1 0x20 ADD PUSH2 0x1DD SWAP2 SWAP1 PUSH2 0x3A7 JUMP JUMPDEST PUSH1 0x40 MLOAD PUSH1 0x20 DUP2 DUP4 SUB SUB DUP2 MSTORE SWAP1 PUSH1 0x40 MSTORE DUP1 MLOAD SWAP1 PUSH1 0x20 ADD KECCAK256 PUSH0 SHR PUSH0 SHL SWAP1 POP SWAP1 JUMP JUMPDEST PUSH0 DUP1 PUSH0 SWAP1 SLOAD SWAP1 PUSH2 0x100 EXP SWAP1 DIV PUSH20 0xFFFFFFFFFFFFFFFFFFFFFFFFFFFFFFFFFFFFFFFF AND PUSH20 0xFFFFFFFFFFFFFFFFFFFFFFFFFFFFFFFFFFFFFFFF AND PUSH1 0x1 PUSH1 0x40 MLOAD PUSH1 0x20 ADD PUSH2 0x247 SWAP3 SWAP2 SWAP1 PUSH2 0x3C1 JUMP JUMPDEST PUSH1 0x40 MLOAD PUSH1 0x20 DUP2 DUP4 SUB SUB DUP2 MSTORE SWAP1 PUSH1 0x40 MSTORE DUP1 MLOAD SWAP1 PUSH1 0x20 ADD KECCAK256 SWAP1 POP SWAP1 JUMP JUMPDEST PUSH0 DUP2 SWAP1 POP SWAP2 SWAP1 POP JUMP JUMPDEST PUSH2 0x274 DUP2 PUSH2 0x262 JUMP JUMPDEST DUP3 MSTORE POP POP JUMP JUMPDEST PUSH0 PUSH1 0x20 DUP3 ADD SWAP1 POP PUSH2 0x28D PUSH0 DUP4 ADD DUP5 PUSH2 0x26B JUMP JUMPDEST SWAP3 SWAP2 POP POP JUMP JUMPDEST PUSH0 PUSH20 0xFFFFFFFFFFFFFFFFFFFFFFFFFFFFFFFFFFFFFFFF DUP3 AND SWAP1 POP SWAP2 SWAP1 POP JUMP JUMPDEST PUSH0 PUSH2 0x2BC DUP3 PUSH2 0x293 JUMP JUMPDEST SWAP1 POP SWAP2 SWAP1 POP JUMP JUMPDEST PUSH2 0x2CC DUP2 PUSH2 0x2B2 JUMP JUMPDEST DUP3 MSTORE POP POP JUMP JUMPDEST PUSH0 DUP2 SWAP1 POP SWAP2 SWAP1 POP JUMP JUMPDEST PUSH0 DUP2 SWAP1 POP SWAP2 SWAP1 POP JUMP JUMPDEST PUSH0 DUP2 SWAP1 POP SWAP2 SWAP1 POP JUMP JUMPDEST PUSH0 PUSH2 0x307 PUSH2 0x302 PUSH2 0x2FD DUP5 PUSH2 0x2D2 JUMP JUMPDEST PUSH2 0x2E4 JUMP JUMPDEST PUSH2 0x2DB JUMP JUMPDEST SWAP1 POP SWAP2 SWAP1 POP JUMP JUMPDEST PUSH2 0x317 DUP2 PUSH2 0x2ED JUMP JUMPDEST DUP3 MSTORE POP POP JUMP JUMPDEST PUSH0 PUSH1 0x40 DUP3 ADD SWAP1 POP PUSH2 0x330 PUSH0 DUP4 ADD DUP6 PUSH2 0x2C3 JUMP JUMPDEST PUSH2 0x33D PUSH1 0x20 DUP4 ADD DUP5 PUSH2 0x30E JUMP JUMPDEST SWAP4 SWAP3 POP POP POP JUMP JUMPDEST PUSH0 PUSH1 0x80 DUP3 ADD SWAP1 POP PUSH2 0x357 PUSH0 DUP4 ADD DUP8 PUSH2 0x26B JUMP JUMPDEST PUSH2 0x364 PUSH1 0x20 DUP4 ADD DUP7 PUSH2 0x26B JUMP JUMPDEST PUSH2 0x371 PUSH1 0x40 DUP4 ADD DUP6 PUSH2 0x30E JUMP JUMPDEST PUSH2 0x37E PUSH1 0x60 DUP4 ADD DUP5 PUSH2 0x2C3 JUMP JUMPDEST SWAP6 SWAP5 POP POP POP POP POP JUMP JUMPDEST PUSH0 DUP2 SWAP1 POP SWAP2 SWAP1 POP JUMP JUMPDEST PUSH2 0x3A1 PUSH2 0x39C DUP3 PUSH2 0x2DB JUMP JUMPDEST PUSH2 0x387 JUMP JUMPDEST DUP3 MSTORE POP POP JUMP JUMPDEST PUSH0 PUSH2 0x3B2 DUP3 DUP5 PUSH2 0x390 JUMP JUMPDEST PUSH1 0x20 DUP3 ADD SWAP2 POP DUP2 SWAP1 POP SWAP3 SWAP2 POP POP JUMP JUMPDEST PUSH0 PUSH2 0x3CC DUP3 DUP6 PUSH2 0x390 JUMP JUMPDEST PUSH1 0x20 DUP3 ADD SWAP2 POP PUSH2 0x3DC DUP3 DUP5 PUSH2 0x390 JUMP JUMPDEST PUSH1 0x20 DUP3 ADD SWAP2 POP DUP2 SWAP1 POP SWAP4 SWAP3 POP POP POP JUMP INVALID LOG2 PUSH5 0x6970667358 0x22 SLT KECCAK256 ISZERO CALL CALLDATASIZE 0x5C REVERT CALLVALUE PREVRANDAO GAS PUSH17 0xCEE92992C9975D1AD2D96E29DAD17A4B55 KECCAK256 DUP8 PUSH1 0xE2 EXTCODESIZE LT PUSH5 0x736F6C6343 STOP ADDMOD ISZERO STOP CALLER "
				},
				"gasEstimates": {
					"creation": {
						"codeDepositCost": "211600",
						"executionCost": "infinite",
						"totalCost": "infinite"
					},
					"external": {
						"attract()": "infinite",
						"getTokenOfUserSlot()": "infinite",
						"getTokenSlot()": "638"
					}
				},
				"methodIdentifiers": {
					"attract()": "50f35753",
					"getTokenOfUserSlot()": "f4f5195d",
					"getTokenSlot()": "cfb8d21a"
				}
			},
			"storageLayout": {
				"storage": [
					{
						"astId": 4,
						"contract": "shoot/2/动态数据类型的存储/1.sol:att",
						"label": "arr",
						"offset": 0,
						"slot": "0",
						"type": "t_contract(array)396"
					}
				],
				"types": {
					"t_contract(array)396": {
						"encoding": "inplace",
						"label": "contract array",
						"numberOfBytes": "20"
					}
				}
			},
			"userdoc": {
				"kind": "user",
				"methods": {},
				"version": 1
			}
		}
	}
}