{
	"shoot/2/动态数据类型的存储/1.sol": {
		"array": {
			"abi": [
				{
					"inputs": [],
					"stateMutability": "nonpayable",
					"type": "constructor"
				},
				{
					"inputs": [
						{
							"internalType": "address",
							"name": "_token",
							"type": "address"
						},
						{
							"internalType": "uint256",
							"name": "_value",
							"type": "uint256"
						}
					],
					"name": "addToken",
					"outputs": [],
					"stateMutability": "nonpayable",
					"type": "function"
				},
				{
					"inputs": [
						{
							"internalType": "bytes32",
							"name": "_slot",
							"type": "bytes32"
						},
						{
							"internalType": "address",
							"name": "_addr",
							"type": "address"
						}
					],
					"name": "checkTokenOfUserSlot",
					"outputs": [
						{
							"internalType": "bool",
							"name": "",
							"type": "bool"
						}
					],
					"stateMutability": "view",
					"type": "function"
				},
				{
					"inputs": [
						{
							"internalType": "bytes32",
							"name": "_slot",
							"type": "bytes32"
						},
						{
							"internalType": "uint256",
							"name": "index",
							"type": "uint256"
						}
					],
					"name": "checkTokensSlot",
					"outputs": [
						{
							"internalType": "bool",
							"name": "",
							"type": "bool"
						}
					],
					"stateMutability": "view",
					"type": "function"
				},
				{
					"inputs": [],
					"name": "deleteToken",
					"outputs": [],
					"stateMutability": "nonpayable",
					"type": "function"
				},
				{
					"inputs": [
						{
							"internalType": "bytes32",
							"name": "slotArray",
							"type": "bytes32"
						},
						{
							"internalType": "bytes32",
							"name": "slotMap",
							"type": "bytes32"
						},
						{
							"internalType": "uint256",
							"name": "index",
							"type": "uint256"
						},
						{
							"internalType": "address",
							"name": "_addr",
							"type": "address"
						}
					],
					"name": "isCompleted",
					"outputs": [],
					"stateMutability": "nonpayable",
					"type": "function"
				},
				{
					"inputs": [],
					"name": "score",
					"outputs": [
						{
							"internalType": "uint256",
							"name": "",
							"type": "uint256"
						}
					],
					"stateMutability": "view",
					"type": "function"
				},
				{
					"inputs": [
						{
							"internalType": "address",
							"name": "",
							"type": "address"
						}
					],
					"name": "tokenOfUser",
					"outputs": [
						{
							"internalType": "address",
							"name": "addr",
							"type": "address"
						},
						{
							"internalType": "uint256",
							"name": "value",
							"type": "uint256"
						},
						{
							"internalType": "uint256",
							"name": "index",
							"type": "uint256"
						}
					],
					"stateMutability": "view",
					"type": "function"
				},
				{
					"inputs": [
						{
							"internalType": "uint256",
							"name": "",
							"type": "uint256"
						}
					],
					"name": "tokens",
					"outputs": [
						{
							"internalType": "address",
							"name": "addr",
							"type": "address"
						},
						{
							"internalType": "uint256",
							"name": "value",
							"type": "uint256"
						},
						{
							"internalType": "uint256",
							"name": "index",
							"type": "uint256"
						}
					],
					"stateMutability": "view",
					"type": "function"
				}
			],
			"devdoc": {
				"kind": "dev",
				"methods": {},
				"version": 1
			},
			"evm": {
				"assembly": "    /* \"shoot/2/\\xe5\\x8a\\xa8\\xe6\\x80\\x81\\xe6\\x95\\xb0\\xe6\\x8d\\xae\\xe7\\xb1\\xbb\\xe5\\x9e\\x8b\\xe7\\x9a\\x84\\xe5\\xad\\x98\\xe5\\x82\\xa8/1.sol\":736:2938  contract array{... */\n  mstore(0x40, 0x80)\n    /* \"shoot/2/\\xe5\\x8a\\xa8\\xe6\\x80\\x81\\xe6\\x95\\xb0\\xe6\\x8d\\xae\\xe7\\xb1\\xbb\\xe5\\x9e\\x8b\\xe7\\x9a\\x84\\xe5\\xad\\x98\\xe5\\x82\\xa8/1.sol\":959:1115  constructor(){... */\n  callvalue\n  dup1\n  iszero\n  tag_1\n  jumpi\n  0x00\n  dup1\n  revert\ntag_1:\n  pop\n    /* \"shoot/2/\\xe5\\x8a\\xa8\\xe6\\x80\\x81\\xe6\\x95\\xb0\\xe6\\x8d\\xae\\xe7\\xb1\\xbb\\xe5\\x9e\\x8b\\xe7\\x9a\\x84\\xe5\\xad\\x98\\xe5\\x82\\xa8/1.sol\":983:1001  Token memory token */\n  0x00\n    /* \"shoot/2/\\xe5\\x8a\\xa8\\xe6\\x80\\x81\\xe6\\x95\\xb0\\xe6\\x8d\\xae\\xe7\\xb1\\xbb\\xe5\\x9e\\x8b\\xe7\\x9a\\x84\\xe5\\xad\\x98\\xe5\\x82\\xa8/1.sol\":1005:1038  Token(address(0),0,tokens.length) */\n  mload(0x40)\n  dup1\n  0x60\n  add\n  0x40\n  mstore\n  dup1\n    /* \"shoot/2/\\xe5\\x8a\\xa8\\xe6\\x80\\x81\\xe6\\x95\\xb0\\xe6\\x8d\\xae\\xe7\\xb1\\xbb\\xe5\\x9e\\x8b\\xe7\\x9a\\x84\\xe5\\xad\\x98\\xe5\\x82\\xa8/1.sol\":1019:1020  0 */\n  0x00\n    /* \"shoot/2/\\xe5\\x8a\\xa8\\xe6\\x80\\x81\\xe6\\x95\\xb0\\xe6\\x8d\\xae\\xe7\\xb1\\xbb\\xe5\\x9e\\x8b\\xe7\\x9a\\x84\\xe5\\xad\\x98\\xe5\\x82\\xa8/1.sol\":1005:1038  Token(address(0),0,tokens.length) */\n  0xffffffffffffffffffffffffffffffffffffffff\n  and\n  dup2\n  mstore\n  0x20\n  add\n    /* \"shoot/2/\\xe5\\x8a\\xa8\\xe6\\x80\\x81\\xe6\\x95\\xb0\\xe6\\x8d\\xae\\xe7\\xb1\\xbb\\xe5\\x9e\\x8b\\xe7\\x9a\\x84\\xe5\\xad\\x98\\xe5\\x82\\xa8/1.sol\":1022:1023  0 */\n  0x00\n    /* \"shoot/2/\\xe5\\x8a\\xa8\\xe6\\x80\\x81\\xe6\\x95\\xb0\\xe6\\x8d\\xae\\xe7\\xb1\\xbb\\xe5\\x9e\\x8b\\xe7\\x9a\\x84\\xe5\\xad\\x98\\xe5\\x82\\xa8/1.sol\":1005:1038  Token(address(0),0,tokens.length) */\n  dup2\n  mstore\n  0x20\n  add\n    /* \"shoot/2/\\xe5\\x8a\\xa8\\xe6\\x80\\x81\\xe6\\x95\\xb0\\xe6\\x8d\\xae\\xe7\\xb1\\xbb\\xe5\\x9e\\x8b\\xe7\\x9a\\x84\\xe5\\xad\\x98\\xe5\\x82\\xa8/1.sol\":1024:1030  tokens */\n  0x00\n    /* \"shoot/2/\\xe5\\x8a\\xa8\\xe6\\x80\\x81\\xe6\\x95\\xb0\\xe6\\x8d\\xae\\xe7\\xb1\\xbb\\xe5\\x9e\\x8b\\xe7\\x9a\\x84\\xe5\\xad\\x98\\xe5\\x82\\xa8/1.sol\":1024:1037  tokens.length */\n  dup1\n  sload\n  swap1\n  pop\n    /* \"shoot/2/\\xe5\\x8a\\xa8\\xe6\\x80\\x81\\xe6\\x95\\xb0\\xe6\\x8d\\xae\\xe7\\xb1\\xbb\\xe5\\x9e\\x8b\\xe7\\x9a\\x84\\xe5\\xad\\x98\\xe5\\x82\\xa8/1.sol\":1005:1038  Token(address(0),0,tokens.length) */\n  dup2\n  mstore\n  pop\n    /* \"shoot/2/\\xe5\\x8a\\xa8\\xe6\\x80\\x81\\xe6\\x95\\xb0\\xe6\\x8d\\xae\\xe7\\xb1\\xbb\\xe5\\x9e\\x8b\\xe7\\x9a\\x84\\xe5\\xad\\x98\\xe5\\x82\\xa8/1.sol\":983:1038  Token memory token =  Token(address(0),0,tokens.length) */\n  swap1\n  pop\n    /* \"shoot/2/\\xe5\\x8a\\xa8\\xe6\\x80\\x81\\xe6\\x95\\xb0\\xe6\\x8d\\xae\\xe7\\xb1\\xbb\\xe5\\x9e\\x8b\\xe7\\x9a\\x84\\xe5\\xad\\x98\\xe5\\x82\\xa8/1.sol\":1049:1055  tokens */\n  0x00\n    /* \"shoot/2/\\xe5\\x8a\\xa8\\xe6\\x80\\x81\\xe6\\x95\\xb0\\xe6\\x8d\\xae\\xe7\\xb1\\xbb\\xe5\\x9e\\x8b\\xe7\\x9a\\x84\\xe5\\xad\\x98\\xe5\\x82\\xa8/1.sol\":1061:1066  token */\n  dup2\n    /* \"shoot/2/\\xe5\\x8a\\xa8\\xe6\\x80\\x81\\xe6\\x95\\xb0\\xe6\\x8d\\xae\\xe7\\xb1\\xbb\\xe5\\x9e\\x8b\\xe7\\x9a\\x84\\xe5\\xad\\x98\\xe5\\x82\\xa8/1.sol\":1049:1067  tokens.push(token) */\n  swap1\n  dup1\n  0x01\n  dup2\n  sload\n  add\n  dup1\n  dup3\n  sstore\n  dup1\n  swap2\n  pop\n  pop\n  0x01\n  swap1\n  sub\n  swap1\n  0x00\n  mstore\n  keccak256(0x00, 0x20)\n  swap1\n  0x03\n  mul\n  add\n  0x00\n  swap1\n  swap2\n  swap1\n  swap2\n  swap1\n  swap2\n  pop\n  0x00\n  dup3\n  add\n  mload\n  dup2\n  0x00\n  add\n  exp(0x0100, 0x00)\n  dup2\n  sload\n  dup2\n  0xffffffffffffffffffffffffffffffffffffffff\n  mul\n  not\n  and\n  swap1\n  dup4\n  0xffffffffffffffffffffffffffffffffffffffff\n  and\n  mul\n  or\n  swap1\n  sstore\n  pop\n  0x20\n  dup3\n  add\n  mload\n  dup2\n  0x01\n  add\n  sstore\n  0x40\n  dup3\n  add\n  mload\n  dup2\n  0x02\n  add\n  sstore\n  pop\n  pop\n    /* \"shoot/2/\\xe5\\x8a\\xa8\\xe6\\x80\\x81\\xe6\\x95\\xb0\\xe6\\x8d\\xae\\xe7\\xb1\\xbb\\xe5\\x9e\\x8b\\xe7\\x9a\\x84\\xe5\\xad\\x98\\xe5\\x82\\xa8/1.sol\":1102:1107  token */\n  dup1\n    /* \"shoot/2/\\xe5\\x8a\\xa8\\xe6\\x80\\x81\\xe6\\x95\\xb0\\xe6\\x8d\\xae\\xe7\\xb1\\xbb\\xe5\\x9e\\x8b\\xe7\\x9a\\x84\\xe5\\xad\\x98\\xe5\\x82\\xa8/1.sol\":1078:1089  tokenOfUser */\n  0x01\n    /* \"shoot/2/\\xe5\\x8a\\xa8\\xe6\\x80\\x81\\xe6\\x95\\xb0\\xe6\\x8d\\xae\\xe7\\xb1\\xbb\\xe5\\x9e\\x8b\\xe7\\x9a\\x84\\xe5\\xad\\x98\\xe5\\x82\\xa8/1.sol\":1078:1101  tokenOfUser[msg.sender] */\n  0x00\n    /* \"shoot/2/\\xe5\\x8a\\xa8\\xe6\\x80\\x81\\xe6\\x95\\xb0\\xe6\\x8d\\xae\\xe7\\xb1\\xbb\\xe5\\x9e\\x8b\\xe7\\x9a\\x84\\xe5\\xad\\x98\\xe5\\x82\\xa8/1.sol\":1090:1100  msg.sender */\n  caller\n    /* \"shoot/2/\\xe5\\x8a\\xa8\\xe6\\x80\\x81\\xe6\\x95\\xb0\\xe6\\x8d\\xae\\xe7\\xb1\\xbb\\xe5\\x9e\\x8b\\xe7\\x9a\\x84\\xe5\\xad\\x98\\xe5\\x82\\xa8/1.sol\":1078:1101  tokenOfUser[msg.sender] */\n  0xffffffffffffffffffffffffffffffffffffffff\n  and\n  0xffffffffffffffffffffffffffffffffffffffff\n  and\n  dup2\n  mstore\n  0x20\n  add\n  swap1\n  dup2\n  mstore\n  0x20\n  add\n  0x00\n  keccak256\n    /* \"shoot/2/\\xe5\\x8a\\xa8\\xe6\\x80\\x81\\xe6\\x95\\xb0\\xe6\\x8d\\xae\\xe7\\xb1\\xbb\\xe5\\x9e\\x8b\\xe7\\x9a\\x84\\xe5\\xad\\x98\\xe5\\x82\\xa8/1.sol\":1078:1107  tokenOfUser[msg.sender]=token */\n  0x00\n  dup3\n  add\n  mload\n  dup2\n  0x00\n  add\n  exp(0x0100, 0x00)\n  dup2\n  sload\n  dup2\n  0xffffffffffffffffffffffffffffffffffffffff\n  mul\n  not\n  and\n  swap1\n  dup4\n  0xffffffffffffffffffffffffffffffffffffffff\n  and\n  mul\n  or\n  swap1\n  sstore\n  pop\n  0x20\n  dup3\n  add\n  mload\n  dup2\n  0x01\n  add\n  sstore\n  0x40\n  dup3\n  add\n  mload\n  dup2\n  0x02\n  add\n  sstore\n  swap1\n  pop\n  pop\n    /* \"shoot/2/\\xe5\\x8a\\xa8\\xe6\\x80\\x81\\xe6\\x95\\xb0\\xe6\\x8d\\xae\\xe7\\xb1\\xbb\\xe5\\x9e\\x8b\\xe7\\x9a\\x84\\xe5\\xad\\x98\\xe5\\x82\\xa8/1.sol\":972:1115  {... */\n  pop\n    /* \"shoot/2/\\xe5\\x8a\\xa8\\xe6\\x80\\x81\\xe6\\x95\\xb0\\xe6\\x8d\\xae\\xe7\\xb1\\xbb\\xe5\\x9e\\x8b\\xe7\\x9a\\x84\\xe5\\xad\\x98\\xe5\\x82\\xa8/1.sol\":736:2938  contract array{... */\n  dataSize(sub_0)\n  dup1\n  dataOffset(sub_0)\n  0x00\n  codecopy\n  0x00\n  return\nstop\n\nsub_0: assembly {\n        /* \"shoot/2/\\xe5\\x8a\\xa8\\xe6\\x80\\x81\\xe6\\x95\\xb0\\xe6\\x8d\\xae\\xe7\\xb1\\xbb\\xe5\\x9e\\x8b\\xe7\\x9a\\x84\\xe5\\xad\\x98\\xe5\\x82\\xa8/1.sol\":736:2938  contract array{... */\n      mstore(0x40, 0x80)\n      callvalue\n      dup1\n      iszero\n      tag_1\n      jumpi\n      0x00\n      dup1\n      revert\n    tag_1:\n      pop\n      jumpi(tag_2, lt(calldatasize, 0x04))\n      shr(0xe0, calldataload(0x00))\n      dup1\n      0xaf81c5b9\n      gt\n      tag_11\n      jumpi\n      dup1\n      0xaf81c5b9\n      eq\n      tag_7\n      jumpi\n      dup1\n      0xd4688092\n      eq\n      tag_8\n      jumpi\n      dup1\n      0xefedc669\n      eq\n      tag_9\n      jumpi\n      dup1\n      0xf4a7fe27\n      eq\n      tag_10\n      jumpi\n      jump(tag_2)\n    tag_11:\n      dup1\n      0x3dd7d5bc\n      eq\n      tag_3\n      jumpi\n      dup1\n      0x4123a0ac\n      eq\n      tag_4\n      jumpi\n      dup1\n      0x4f64b2be\n      eq\n      tag_5\n      jumpi\n      dup1\n      0x50322a66\n      eq\n      tag_6\n      jumpi\n    tag_2:\n      0x00\n      dup1\n      revert\n        /* \"shoot/2/\\xe5\\x8a\\xa8\\xe6\\x80\\x81\\xe6\\x95\\xb0\\xe6\\x8d\\xae\\xe7\\xb1\\xbb\\xe5\\x9e\\x8b\\xe7\\x9a\\x84\\xe5\\xad\\x98\\xe5\\x82\\xa8/1.sol\":1123:1376  function checkTokensSlot(bytes32 _slot,uint256 index)public view returns(bool){... */\n    tag_3:\n      tag_12\n      0x04\n      dup1\n      calldatasize\n      sub\n      dup2\n      add\n      swap1\n      tag_13\n      swap2\n      swap1\n      tag_14\n      jump\t// in\n    tag_13:\n      tag_15\n      jump\t// in\n    tag_12:\n      mload(0x40)\n      tag_16\n      swap2\n      swap1\n      tag_17\n      jump\t// in\n    tag_16:\n      mload(0x40)\n      dup1\n      swap2\n      sub\n      swap1\n      return\n        /* \"shoot/2/\\xe5\\x8a\\xa8\\xe6\\x80\\x81\\xe6\\x95\\xb0\\xe6\\x8d\\xae\\xe7\\xb1\\xbb\\xe5\\x9e\\x8b\\xe7\\x9a\\x84\\xe5\\xad\\x98\\xe5\\x82\\xa8/1.sol\":2236:2578  function deleteToken()public{... */\n    tag_4:\n      tag_18\n      tag_19\n      jump\t// in\n    tag_18:\n      stop\n        /* \"shoot/2/\\xe5\\x8a\\xa8\\xe6\\x80\\x81\\xe6\\x95\\xb0\\xe6\\x8d\\xae\\xe7\\xb1\\xbb\\xe5\\x9e\\x8b\\xe7\\x9a\\x84\\xe5\\xad\\x98\\xe5\\x82\\xa8/1.sol\":854:875  Token[] public tokens */\n    tag_5:\n      tag_20\n      0x04\n      dup1\n      calldatasize\n      sub\n      dup2\n      add\n      swap1\n      tag_21\n      swap2\n      swap1\n      tag_22\n      jump\t// in\n    tag_21:\n      tag_23\n      jump\t// in\n    tag_20:\n      mload(0x40)\n      tag_24\n      swap4\n      swap3\n      swap2\n      swap1\n      tag_25\n      jump\t// in\n    tag_24:\n      mload(0x40)\n      dup1\n      swap2\n      sub\n      swap1\n      return\n        /* \"shoot/2/\\xe5\\x8a\\xa8\\xe6\\x80\\x81\\xe6\\x95\\xb0\\xe6\\x8d\\xae\\xe7\\xb1\\xbb\\xe5\\x9e\\x8b\\xe7\\x9a\\x84\\xe5\\xad\\x98\\xe5\\x82\\xa8/1.sol\":1382:1645  function checkTokenOfUserSlot(bytes32 _slot,address _addr)public view returns(bool){... */\n    tag_6:\n      tag_26\n      0x04\n      dup1\n      calldatasize\n      sub\n      dup2\n      add\n      swap1\n      tag_27\n      swap2\n      swap1\n      tag_28\n      jump\t// in\n    tag_27:\n      tag_29\n      jump\t// in\n    tag_26:\n      mload(0x40)\n      tag_30\n      swap2\n      swap1\n      tag_17\n      jump\t// in\n    tag_30:\n      mload(0x40)\n      dup1\n      swap2\n      sub\n      swap1\n      return\n        /* \"shoot/2/\\xe5\\x8a\\xa8\\xe6\\x80\\x81\\xe6\\x95\\xb0\\xe6\\x8d\\xae\\xe7\\xb1\\xbb\\xe5\\x9e\\x8b\\xe7\\x9a\\x84\\xe5\\xad\\x98\\xe5\\x82\\xa8/1.sol\":1653:2228  function addToken(address _token,uint256 _value)public{... */\n    tag_7:\n      tag_31\n      0x04\n      dup1\n      calldatasize\n      sub\n      dup2\n      add\n      swap1\n      tag_32\n      swap2\n      swap1\n      tag_33\n      jump\t// in\n    tag_32:\n      tag_34\n      jump\t// in\n    tag_31:\n      stop\n        /* \"shoot/2/\\xe5\\x8a\\xa8\\xe6\\x80\\x81\\xe6\\x95\\xb0\\xe6\\x8d\\xae\\xe7\\xb1\\xbb\\xe5\\x9e\\x8b\\xe7\\x9a\\x84\\xe5\\xad\\x98\\xe5\\x82\\xa8/1.sol\":882:925  mapping(address => Token)public tokenOfUser */\n    tag_8:\n      tag_35\n      0x04\n      dup1\n      calldatasize\n      sub\n      dup2\n      add\n      swap1\n      tag_36\n      swap2\n      swap1\n      tag_37\n      jump\t// in\n    tag_36:\n      tag_38\n      jump\t// in\n    tag_35:\n      mload(0x40)\n      tag_39\n      swap4\n      swap3\n      swap2\n      swap1\n      tag_25\n      jump\t// in\n    tag_39:\n      mload(0x40)\n      dup1\n      swap2\n      sub\n      swap1\n      return\n        /* \"shoot/2/\\xe5\\x8a\\xa8\\xe6\\x80\\x81\\xe6\\x95\\xb0\\xe6\\x8d\\xae\\xe7\\xb1\\xbb\\xe5\\x9e\\x8b\\xe7\\x9a\\x84\\xe5\\xad\\x98\\xe5\\x82\\xa8/1.sol\":932:952  uint256 public score */\n    tag_9:\n      tag_40\n      tag_41\n      jump\t// in\n    tag_40:\n      mload(0x40)\n      tag_42\n      swap2\n      swap1\n      tag_43\n      jump\t// in\n    tag_42:\n      mload(0x40)\n      dup1\n      swap2\n      sub\n      swap1\n      return\n        /* \"shoot/2/\\xe5\\x8a\\xa8\\xe6\\x80\\x81\\xe6\\x95\\xb0\\xe6\\x8d\\xae\\xe7\\xb1\\xbb\\xe5\\x9e\\x8b\\xe7\\x9a\\x84\\xe5\\xad\\x98\\xe5\\x82\\xa8/1.sol\":2586:2935  function isCompleted(bytes32 slotArray,bytes32 slotMap,uint256 index,address _addr)public{... */\n    tag_10:\n      tag_44\n      0x04\n      dup1\n      calldatasize\n      sub\n      dup2\n      add\n      swap1\n      tag_45\n      swap2\n      swap1\n      tag_46\n      jump\t// in\n    tag_45:\n      tag_47\n      jump\t// in\n    tag_44:\n      stop\n        /* \"shoot/2/\\xe5\\x8a\\xa8\\xe6\\x80\\x81\\xe6\\x95\\xb0\\xe6\\x8d\\xae\\xe7\\xb1\\xbb\\xe5\\x9e\\x8b\\xe7\\x9a\\x84\\xe5\\xad\\x98\\xe5\\x82\\xa8/1.sol\":1123:1376  function checkTokensSlot(bytes32 _slot,uint256 index)public view returns(bool){... */\n    tag_15:\n        /* \"shoot/2/\\xe5\\x8a\\xa8\\xe6\\x80\\x81\\xe6\\x95\\xb0\\xe6\\x8d\\xae\\xe7\\xb1\\xbb\\xe5\\x9e\\x8b\\xe7\\x9a\\x84\\xe5\\xad\\x98\\xe5\\x82\\xa8/1.sol\":1196:1200  bool */\n      0x00\n        /* \"shoot/2/\\xe5\\x8a\\xa8\\xe6\\x80\\x81\\xe6\\x95\\xb0\\xe6\\x8d\\xae\\xe7\\xb1\\xbb\\xe5\\x9e\\x8b\\xe7\\x9a\\x84\\xe5\\xad\\x98\\xe5\\x82\\xa8/1.sol\":1212:1224  bytes32 slot */\n      dup1\n        /* \"shoot/2/\\xe5\\x8a\\xa8\\xe6\\x80\\x81\\xe6\\x95\\xb0\\xe6\\x8d\\xae\\xe7\\xb1\\xbb\\xe5\\x9e\\x8b\\xe7\\x9a\\x84\\xe5\\xad\\x98\\xe5\\x82\\xa8/1.sol\":1235:1254  Token storage token */\n      0x00\n        /* \"shoot/2/\\xe5\\x8a\\xa8\\xe6\\x80\\x81\\xe6\\x95\\xb0\\xe6\\x8d\\xae\\xe7\\xb1\\xbb\\xe5\\x9e\\x8b\\xe7\\x9a\\x84\\xe5\\xad\\x98\\xe5\\x82\\xa8/1.sol\":1257:1263  tokens */\n      dup1\n        /* \"shoot/2/\\xe5\\x8a\\xa8\\xe6\\x80\\x81\\xe6\\x95\\xb0\\xe6\\x8d\\xae\\xe7\\xb1\\xbb\\xe5\\x9e\\x8b\\xe7\\x9a\\x84\\xe5\\xad\\x98\\xe5\\x82\\xa8/1.sol\":1264:1269  index */\n      dup5\n        /* \"shoot/2/\\xe5\\x8a\\xa8\\xe6\\x80\\x81\\xe6\\x95\\xb0\\xe6\\x8d\\xae\\xe7\\xb1\\xbb\\xe5\\x9e\\x8b\\xe7\\x9a\\x84\\xe5\\xad\\x98\\xe5\\x82\\xa8/1.sol\":1257:1270  tokens[index] */\n      dup2\n      sload\n      dup2\n      lt\n      tag_49\n      jumpi\n      tag_50\n      tag_51\n      jump\t// in\n    tag_50:\n    tag_49:\n      swap1\n      0x00\n      mstore\n      keccak256(0x00, 0x20)\n      swap1\n      0x03\n      mul\n      add\n        /* \"shoot/2/\\xe5\\x8a\\xa8\\xe6\\x80\\x81\\xe6\\x95\\xb0\\xe6\\x8d\\xae\\xe7\\xb1\\xbb\\xe5\\x9e\\x8b\\xe7\\x9a\\x84\\xe5\\xad\\x98\\xe5\\x82\\xa8/1.sol\":1235:1270  Token storage token = tokens[index] */\n      swap1\n      pop\n        /* \"shoot/2/\\xe5\\x8a\\xa8\\xe6\\x80\\x81\\xe6\\x95\\xb0\\xe6\\x8d\\xae\\xe7\\xb1\\xbb\\xe5\\x9e\\x8b\\xe7\\x9a\\x84\\xe5\\xad\\x98\\xe5\\x82\\xa8/1.sol\":1313:1323  token.slot */\n      dup1\n        /* \"shoot/2/\\xe5\\x8a\\xa8\\xe6\\x80\\x81\\xe6\\x95\\xb0\\xe6\\x8d\\xae\\xe7\\xb1\\xbb\\xe5\\x9e\\x8b\\xe7\\x9a\\x84\\xe5\\xad\\x98\\xe5\\x82\\xa8/1.sol\":1306:1323  slot :=token.slot */\n      swap2\n      pop\n        /* \"shoot/2/\\xe5\\x8a\\xa8\\xe6\\x80\\x81\\xe6\\x95\\xb0\\xe6\\x8d\\xae\\xe7\\xb1\\xbb\\xe5\\x9e\\x8b\\xe7\\x9a\\x84\\xe5\\xad\\x98\\xe5\\x82\\xa8/1.sol\":1362:1367  _slot */\n      dup5\n        /* \"shoot/2/\\xe5\\x8a\\xa8\\xe6\\x80\\x81\\xe6\\x95\\xb0\\xe6\\x8d\\xae\\xe7\\xb1\\xbb\\xe5\\x9e\\x8b\\xe7\\x9a\\x84\\xe5\\xad\\x98\\xe5\\x82\\xa8/1.sol\":1356:1360  slot */\n      dup3\n        /* \"shoot/2/\\xe5\\x8a\\xa8\\xe6\\x80\\x81\\xe6\\x95\\xb0\\xe6\\x8d\\xae\\xe7\\xb1\\xbb\\xe5\\x9e\\x8b\\xe7\\x9a\\x84\\xe5\\xad\\x98\\xe5\\x82\\xa8/1.sol\":1356:1367  slot==_slot */\n      eq\n        /* \"shoot/2/\\xe5\\x8a\\xa8\\xe6\\x80\\x81\\xe6\\x95\\xb0\\xe6\\x8d\\xae\\xe7\\xb1\\xbb\\xe5\\x9e\\x8b\\xe7\\x9a\\x84\\xe5\\xad\\x98\\xe5\\x82\\xa8/1.sol\":1349:1368  return(slot==_slot) */\n      swap3\n      pop\n      pop\n      pop\n        /* \"shoot/2/\\xe5\\x8a\\xa8\\xe6\\x80\\x81\\xe6\\x95\\xb0\\xe6\\x8d\\xae\\xe7\\xb1\\xbb\\xe5\\x9e\\x8b\\xe7\\x9a\\x84\\xe5\\xad\\x98\\xe5\\x82\\xa8/1.sol\":1123:1376  function checkTokensSlot(bytes32 _slot,uint256 index)public view returns(bool){... */\n      swap3\n      swap2\n      pop\n      pop\n      jump\t// out\n        /* \"shoot/2/\\xe5\\x8a\\xa8\\xe6\\x80\\x81\\xe6\\x95\\xb0\\xe6\\x8d\\xae\\xe7\\xb1\\xbb\\xe5\\x9e\\x8b\\xe7\\x9a\\x84\\xe5\\xad\\x98\\xe5\\x82\\xa8/1.sol\":2236:2578  function deleteToken()public{... */\n    tag_19:\n        /* \"shoot/2/\\xe5\\x8a\\xa8\\xe6\\x80\\x81\\xe6\\x95\\xb0\\xe6\\x8d\\xae\\xe7\\xb1\\xbb\\xe5\\x9e\\x8b\\xe7\\x9a\\x84\\xe5\\xad\\x98\\xe5\\x82\\xa8/1.sol\":2275:2288  uint256 index */\n      0x00\n        /* \"shoot/2/\\xe5\\x8a\\xa8\\xe6\\x80\\x81\\xe6\\x95\\xb0\\xe6\\x8d\\xae\\xe7\\xb1\\xbb\\xe5\\x9e\\x8b\\xe7\\x9a\\x84\\xe5\\xad\\x98\\xe5\\x82\\xa8/1.sol\":2291:2302  tokenOfUser */\n      0x01\n        /* \"shoot/2/\\xe5\\x8a\\xa8\\xe6\\x80\\x81\\xe6\\x95\\xb0\\xe6\\x8d\\xae\\xe7\\xb1\\xbb\\xe5\\x9e\\x8b\\xe7\\x9a\\x84\\xe5\\xad\\x98\\xe5\\x82\\xa8/1.sol\":2291:2314  tokenOfUser[msg.sender] */\n      0x00\n        /* \"shoot/2/\\xe5\\x8a\\xa8\\xe6\\x80\\x81\\xe6\\x95\\xb0\\xe6\\x8d\\xae\\xe7\\xb1\\xbb\\xe5\\x9e\\x8b\\xe7\\x9a\\x84\\xe5\\xad\\x98\\xe5\\x82\\xa8/1.sol\":2303:2313  msg.sender */\n      caller\n        /* \"shoot/2/\\xe5\\x8a\\xa8\\xe6\\x80\\x81\\xe6\\x95\\xb0\\xe6\\x8d\\xae\\xe7\\xb1\\xbb\\xe5\\x9e\\x8b\\xe7\\x9a\\x84\\xe5\\xad\\x98\\xe5\\x82\\xa8/1.sol\":2291:2314  tokenOfUser[msg.sender] */\n      0xffffffffffffffffffffffffffffffffffffffff\n      and\n      0xffffffffffffffffffffffffffffffffffffffff\n      and\n      dup2\n      mstore\n      0x20\n      add\n      swap1\n      dup2\n      mstore\n      0x20\n      add\n      0x00\n      keccak256\n        /* \"shoot/2/\\xe5\\x8a\\xa8\\xe6\\x80\\x81\\xe6\\x95\\xb0\\xe6\\x8d\\xae\\xe7\\xb1\\xbb\\xe5\\x9e\\x8b\\xe7\\x9a\\x84\\xe5\\xad\\x98\\xe5\\x82\\xa8/1.sol\":2291:2320  tokenOfUser[msg.sender].index */\n      0x02\n      add\n      sload\n        /* \"shoot/2/\\xe5\\x8a\\xa8\\xe6\\x80\\x81\\xe6\\x95\\xb0\\xe6\\x8d\\xae\\xe7\\xb1\\xbb\\xe5\\x9e\\x8b\\xe7\\x9a\\x84\\xe5\\xad\\x98\\xe5\\x82\\xa8/1.sol\":2275:2320  uint256 index = tokenOfUser[msg.sender].index */\n      swap1\n      pop\n        /* \"shoot/2/\\xe5\\x8a\\xa8\\xe6\\x80\\x81\\xe6\\x95\\xb0\\xe6\\x8d\\xae\\xe7\\xb1\\xbb\\xe5\\x9e\\x8b\\xe7\\x9a\\x84\\xe5\\xad\\x98\\xe5\\x82\\xa8/1.sol\":2331:2348  Token memory temp */\n      0x00\n        /* \"shoot/2/\\xe5\\x8a\\xa8\\xe6\\x80\\x81\\xe6\\x95\\xb0\\xe6\\x8d\\xae\\xe7\\xb1\\xbb\\xe5\\x9e\\x8b\\xe7\\x9a\\x84\\xe5\\xad\\x98\\xe5\\x82\\xa8/1.sol\":2351:2357  tokens */\n      dup1\n        /* \"shoot/2/\\xe5\\x8a\\xa8\\xe6\\x80\\x81\\xe6\\x95\\xb0\\xe6\\x8d\\xae\\xe7\\xb1\\xbb\\xe5\\x9e\\x8b\\xe7\\x9a\\x84\\xe5\\xad\\x98\\xe5\\x82\\xa8/1.sol\":2358:2363  index */\n      dup3\n        /* \"shoot/2/\\xe5\\x8a\\xa8\\xe6\\x80\\x81\\xe6\\x95\\xb0\\xe6\\x8d\\xae\\xe7\\xb1\\xbb\\xe5\\x9e\\x8b\\xe7\\x9a\\x84\\xe5\\xad\\x98\\xe5\\x82\\xa8/1.sol\":2351:2364  tokens[index] */\n      dup2\n      sload\n      dup2\n      lt\n      tag_54\n      jumpi\n      tag_55\n      tag_51\n      jump\t// in\n    tag_55:\n    tag_54:\n      swap1\n      0x00\n      mstore\n      keccak256(0x00, 0x20)\n      swap1\n      0x03\n      mul\n      add\n        /* \"shoot/2/\\xe5\\x8a\\xa8\\xe6\\x80\\x81\\xe6\\x95\\xb0\\xe6\\x8d\\xae\\xe7\\xb1\\xbb\\xe5\\x9e\\x8b\\xe7\\x9a\\x84\\xe5\\xad\\x98\\xe5\\x82\\xa8/1.sol\":2331:2364  Token memory temp = tokens[index] */\n      mload(0x40)\n      dup1\n      0x60\n      add\n      0x40\n      mstore\n      swap1\n      dup2\n      0x00\n      dup3\n      add\n      0x00\n      swap1\n      sload\n      swap1\n      0x0100\n      exp\n      swap1\n      div\n      0xffffffffffffffffffffffffffffffffffffffff\n      and\n      0xffffffffffffffffffffffffffffffffffffffff\n      and\n      0xffffffffffffffffffffffffffffffffffffffff\n      and\n      dup2\n      mstore\n      0x20\n      add\n      0x01\n      dup3\n      add\n      sload\n      dup2\n      mstore\n      0x20\n      add\n      0x02\n      dup3\n      add\n      sload\n      dup2\n      mstore\n      pop\n      pop\n      swap1\n      pop\n        /* \"shoot/2/\\xe5\\x8a\\xa8\\xe6\\x80\\x81\\xe6\\x95\\xb0\\xe6\\x8d\\xae\\xe7\\xb1\\xbb\\xe5\\x9e\\x8b\\xe7\\x9a\\x84\\xe5\\xad\\x98\\xe5\\x82\\xa8/1.sol\":2409:2414  index */\n      dup2\n        /* \"shoot/2/\\xe5\\x8a\\xa8\\xe6\\x80\\x81\\xe6\\x95\\xb0\\xe6\\x8d\\xae\\xe7\\xb1\\xbb\\xe5\\x9e\\x8b\\xe7\\x9a\\x84\\xe5\\xad\\x98\\xe5\\x82\\xa8/1.sol\":2377:2383  tokens */\n      0x00\n        /* \"shoot/2/\\xe5\\x8a\\xa8\\xe6\\x80\\x81\\xe6\\x95\\xb0\\xe6\\x8d\\xae\\xe7\\xb1\\xbb\\xe5\\x9e\\x8b\\xe7\\x9a\\x84\\xe5\\xad\\x98\\xe5\\x82\\xa8/1.sol\":2398:2399  1 */\n      0x01\n        /* \"shoot/2/\\xe5\\x8a\\xa8\\xe6\\x80\\x81\\xe6\\x95\\xb0\\xe6\\x8d\\xae\\xe7\\xb1\\xbb\\xe5\\x9e\\x8b\\xe7\\x9a\\x84\\xe5\\xad\\x98\\xe5\\x82\\xa8/1.sol\":2384:2390  tokens */\n      0x00\n        /* \"shoot/2/\\xe5\\x8a\\xa8\\xe6\\x80\\x81\\xe6\\x95\\xb0\\xe6\\x8d\\xae\\xe7\\xb1\\xbb\\xe5\\x9e\\x8b\\xe7\\x9a\\x84\\xe5\\xad\\x98\\xe5\\x82\\xa8/1.sol\":2384:2397  tokens.length */\n      dup1\n      sload\n      swap1\n      pop\n        /* \"shoot/2/\\xe5\\x8a\\xa8\\xe6\\x80\\x81\\xe6\\x95\\xb0\\xe6\\x8d\\xae\\xe7\\xb1\\xbb\\xe5\\x9e\\x8b\\xe7\\x9a\\x84\\xe5\\xad\\x98\\xe5\\x82\\xa8/1.sol\":2384:2399  tokens.length-1 */\n      tag_57\n      swap2\n      swap1\n      tag_58\n      jump\t// in\n    tag_57:\n        /* \"shoot/2/\\xe5\\x8a\\xa8\\xe6\\x80\\x81\\xe6\\x95\\xb0\\xe6\\x8d\\xae\\xe7\\xb1\\xbb\\xe5\\x9e\\x8b\\xe7\\x9a\\x84\\xe5\\xad\\x98\\xe5\\x82\\xa8/1.sol\":2377:2400  tokens[tokens.length-1] */\n      dup2\n      sload\n      dup2\n      lt\n      tag_59\n      jumpi\n      tag_60\n      tag_51\n      jump\t// in\n    tag_60:\n    tag_59:\n      swap1\n      0x00\n      mstore\n      keccak256(0x00, 0x20)\n      swap1\n      0x03\n      mul\n      add\n        /* \"shoot/2/\\xe5\\x8a\\xa8\\xe6\\x80\\x81\\xe6\\x95\\xb0\\xe6\\x8d\\xae\\xe7\\xb1\\xbb\\xe5\\x9e\\x8b\\xe7\\x9a\\x84\\xe5\\xad\\x98\\xe5\\x82\\xa8/1.sol\":2377:2406  tokens[tokens.length-1].index */\n      0x02\n      add\n        /* \"shoot/2/\\xe5\\x8a\\xa8\\xe6\\x80\\x81\\xe6\\x95\\xb0\\xe6\\x8d\\xae\\xe7\\xb1\\xbb\\xe5\\x9e\\x8b\\xe7\\x9a\\x84\\xe5\\xad\\x98\\xe5\\x82\\xa8/1.sol\":2377:2414  tokens[tokens.length-1].index = index */\n      dup2\n      swap1\n      sstore\n      pop\n        /* \"shoot/2/\\xe5\\x8a\\xa8\\xe6\\x80\\x81\\xe6\\x95\\xb0\\xe6\\x8d\\xae\\xe7\\xb1\\xbb\\xe5\\x9e\\x8b\\xe7\\x9a\\x84\\xe5\\xad\\x98\\xe5\\x82\\xa8/1.sol\":2441:2447  tokens */\n      0x00\n        /* \"shoot/2/\\xe5\\x8a\\xa8\\xe6\\x80\\x81\\xe6\\x95\\xb0\\xe6\\x8d\\xae\\xe7\\xb1\\xbb\\xe5\\x9e\\x8b\\xe7\\x9a\\x84\\xe5\\xad\\x98\\xe5\\x82\\xa8/1.sol\":2462:2463  1 */\n      0x01\n        /* \"shoot/2/\\xe5\\x8a\\xa8\\xe6\\x80\\x81\\xe6\\x95\\xb0\\xe6\\x8d\\xae\\xe7\\xb1\\xbb\\xe5\\x9e\\x8b\\xe7\\x9a\\x84\\xe5\\xad\\x98\\xe5\\x82\\xa8/1.sol\":2448:2454  tokens */\n      0x00\n        /* \"shoot/2/\\xe5\\x8a\\xa8\\xe6\\x80\\x81\\xe6\\x95\\xb0\\xe6\\x8d\\xae\\xe7\\xb1\\xbb\\xe5\\x9e\\x8b\\xe7\\x9a\\x84\\xe5\\xad\\x98\\xe5\\x82\\xa8/1.sol\":2448:2461  tokens.length */\n      dup1\n      sload\n      swap1\n      pop\n        /* \"shoot/2/\\xe5\\x8a\\xa8\\xe6\\x80\\x81\\xe6\\x95\\xb0\\xe6\\x8d\\xae\\xe7\\xb1\\xbb\\xe5\\x9e\\x8b\\xe7\\x9a\\x84\\xe5\\xad\\x98\\xe5\\x82\\xa8/1.sol\":2448:2463  tokens.length-1 */\n      tag_62\n      swap2\n      swap1\n      tag_58\n      jump\t// in\n    tag_62:\n        /* \"shoot/2/\\xe5\\x8a\\xa8\\xe6\\x80\\x81\\xe6\\x95\\xb0\\xe6\\x8d\\xae\\xe7\\xb1\\xbb\\xe5\\x9e\\x8b\\xe7\\x9a\\x84\\xe5\\xad\\x98\\xe5\\x82\\xa8/1.sol\":2441:2464  tokens[tokens.length-1] */\n      dup2\n      sload\n      dup2\n      lt\n      tag_63\n      jumpi\n      tag_64\n      tag_51\n      jump\t// in\n    tag_64:\n    tag_63:\n      swap1\n      0x00\n      mstore\n      keccak256(0x00, 0x20)\n      swap1\n      0x03\n      mul\n      add\n        /* \"shoot/2/\\xe5\\x8a\\xa8\\xe6\\x80\\x81\\xe6\\x95\\xb0\\xe6\\x8d\\xae\\xe7\\xb1\\xbb\\xe5\\x9e\\x8b\\xe7\\x9a\\x84\\xe5\\xad\\x98\\xe5\\x82\\xa8/1.sol\":2425:2431  tokens */\n      0x00\n        /* \"shoot/2/\\xe5\\x8a\\xa8\\xe6\\x80\\x81\\xe6\\x95\\xb0\\xe6\\x8d\\xae\\xe7\\xb1\\xbb\\xe5\\x9e\\x8b\\xe7\\x9a\\x84\\xe5\\xad\\x98\\xe5\\x82\\xa8/1.sol\":2432:2437  index */\n      dup4\n        /* \"shoot/2/\\xe5\\x8a\\xa8\\xe6\\x80\\x81\\xe6\\x95\\xb0\\xe6\\x8d\\xae\\xe7\\xb1\\xbb\\xe5\\x9e\\x8b\\xe7\\x9a\\x84\\xe5\\xad\\x98\\xe5\\x82\\xa8/1.sol\":2425:2438  tokens[index] */\n      dup2\n      sload\n      dup2\n      lt\n      tag_66\n      jumpi\n      tag_67\n      tag_51\n      jump\t// in\n    tag_67:\n    tag_66:\n      swap1\n      0x00\n      mstore\n      keccak256(0x00, 0x20)\n      swap1\n      0x03\n      mul\n      add\n        /* \"shoot/2/\\xe5\\x8a\\xa8\\xe6\\x80\\x81\\xe6\\x95\\xb0\\xe6\\x8d\\xae\\xe7\\xb1\\xbb\\xe5\\x9e\\x8b\\xe7\\x9a\\x84\\xe5\\xad\\x98\\xe5\\x82\\xa8/1.sol\":2425:2464  tokens[index] = tokens[tokens.length-1] */\n      0x00\n      dup3\n      add\n      0x00\n      swap1\n      sload\n      swap1\n      0x0100\n      exp\n      swap1\n      div\n      0xffffffffffffffffffffffffffffffffffffffff\n      and\n      dup2\n      0x00\n      add\n      exp(0x0100, 0x00)\n      dup2\n      sload\n      dup2\n      0xffffffffffffffffffffffffffffffffffffffff\n      mul\n      not\n      and\n      swap1\n      dup4\n      0xffffffffffffffffffffffffffffffffffffffff\n      and\n      mul\n      or\n      swap1\n      sstore\n      pop\n      0x01\n      dup3\n      add\n      sload\n      dup2\n      0x01\n      add\n      sstore\n      0x02\n      dup3\n      add\n      sload\n      dup2\n      0x02\n      add\n      sstore\n      swap1\n      pop\n      pop\n        /* \"shoot/2/\\xe5\\x8a\\xa8\\xe6\\x80\\x81\\xe6\\x95\\xb0\\xe6\\x8d\\xae\\xe7\\xb1\\xbb\\xe5\\x9e\\x8b\\xe7\\x9a\\x84\\xe5\\xad\\x98\\xe5\\x82\\xa8/1.sol\":2499:2503  temp */\n      dup1\n        /* \"shoot/2/\\xe5\\x8a\\xa8\\xe6\\x80\\x81\\xe6\\x95\\xb0\\xe6\\x8d\\xae\\xe7\\xb1\\xbb\\xe5\\x9e\\x8b\\xe7\\x9a\\x84\\xe5\\xad\\x98\\xe5\\x82\\xa8/1.sol\":2475:2481  tokens */\n      0x00\n        /* \"shoot/2/\\xe5\\x8a\\xa8\\xe6\\x80\\x81\\xe6\\x95\\xb0\\xe6\\x8d\\xae\\xe7\\xb1\\xbb\\xe5\\x9e\\x8b\\xe7\\x9a\\x84\\xe5\\xad\\x98\\xe5\\x82\\xa8/1.sol\":2496:2497  1 */\n      0x01\n        /* \"shoot/2/\\xe5\\x8a\\xa8\\xe6\\x80\\x81\\xe6\\x95\\xb0\\xe6\\x8d\\xae\\xe7\\xb1\\xbb\\xe5\\x9e\\x8b\\xe7\\x9a\\x84\\xe5\\xad\\x98\\xe5\\x82\\xa8/1.sol\":2482:2488  tokens */\n      0x00\n        /* \"shoot/2/\\xe5\\x8a\\xa8\\xe6\\x80\\x81\\xe6\\x95\\xb0\\xe6\\x8d\\xae\\xe7\\xb1\\xbb\\xe5\\x9e\\x8b\\xe7\\x9a\\x84\\xe5\\xad\\x98\\xe5\\x82\\xa8/1.sol\":2482:2495  tokens.length */\n      dup1\n      sload\n      swap1\n      pop\n        /* \"shoot/2/\\xe5\\x8a\\xa8\\xe6\\x80\\x81\\xe6\\x95\\xb0\\xe6\\x8d\\xae\\xe7\\xb1\\xbb\\xe5\\x9e\\x8b\\xe7\\x9a\\x84\\xe5\\xad\\x98\\xe5\\x82\\xa8/1.sol\":2482:2497  tokens.length-1 */\n      tag_69\n      swap2\n      swap1\n      tag_58\n      jump\t// in\n    tag_69:\n        /* \"shoot/2/\\xe5\\x8a\\xa8\\xe6\\x80\\x81\\xe6\\x95\\xb0\\xe6\\x8d\\xae\\xe7\\xb1\\xbb\\xe5\\x9e\\x8b\\xe7\\x9a\\x84\\xe5\\xad\\x98\\xe5\\x82\\xa8/1.sol\":2475:2498  tokens[tokens.length-1] */\n      dup2\n      sload\n      dup2\n      lt\n      tag_70\n      jumpi\n      tag_71\n      tag_51\n      jump\t// in\n    tag_71:\n    tag_70:\n      swap1\n      0x00\n      mstore\n      keccak256(0x00, 0x20)\n      swap1\n      0x03\n      mul\n      add\n        /* \"shoot/2/\\xe5\\x8a\\xa8\\xe6\\x80\\x81\\xe6\\x95\\xb0\\xe6\\x8d\\xae\\xe7\\xb1\\xbb\\xe5\\x9e\\x8b\\xe7\\x9a\\x84\\xe5\\xad\\x98\\xe5\\x82\\xa8/1.sol\":2475:2503  tokens[tokens.length-1]=temp */\n      0x00\n      dup3\n      add\n      mload\n      dup2\n      0x00\n      add\n      exp(0x0100, 0x00)\n      dup2\n      sload\n      dup2\n      0xffffffffffffffffffffffffffffffffffffffff\n      mul\n      not\n      and\n      swap1\n      dup4\n      0xffffffffffffffffffffffffffffffffffffffff\n      and\n      mul\n      or\n      swap1\n      sstore\n      pop\n      0x20\n      dup3\n      add\n      mload\n      dup2\n      0x01\n      add\n      sstore\n      0x40\n      dup3\n      add\n      mload\n      dup2\n      0x02\n      add\n      sstore\n      swap1\n      pop\n      pop\n        /* \"shoot/2/\\xe5\\x8a\\xa8\\xe6\\x80\\x81\\xe6\\x95\\xb0\\xe6\\x8d\\xae\\xe7\\xb1\\xbb\\xe5\\x9e\\x8b\\xe7\\x9a\\x84\\xe5\\xad\\x98\\xe5\\x82\\xa8/1.sol\":2516:2522  tokens */\n      0x00\n        /* \"shoot/2/\\xe5\\x8a\\xa8\\xe6\\x80\\x81\\xe6\\x95\\xb0\\xe6\\x8d\\xae\\xe7\\xb1\\xbb\\xe5\\x9e\\x8b\\xe7\\x9a\\x84\\xe5\\xad\\x98\\xe5\\x82\\xa8/1.sol\":2516:2528  tokens.pop() */\n      dup1\n      sload\n      dup1\n      tag_73\n      jumpi\n      tag_74\n      tag_75\n      jump\t// in\n    tag_74:\n    tag_73:\n      0x01\n      swap1\n      sub\n      dup2\n      dup2\n      swap1\n      0x00\n      mstore\n      keccak256(0x00, 0x20)\n      swap1\n      0x03\n      mul\n      add\n      0x00\n      dup1\n      dup3\n      add\n      exp(0x0100, 0x00)\n      dup2\n      sload\n      swap1\n      0xffffffffffffffffffffffffffffffffffffffff\n      mul\n      not\n      and\n      swap1\n      sstore\n      0x01\n      dup3\n      add\n      0x00\n      swap1\n      sstore\n      0x02\n      dup3\n      add\n      0x00\n      swap1\n      sstore\n      pop\n      pop\n      swap1\n      sstore\n        /* \"shoot/2/\\xe5\\x8a\\xa8\\xe6\\x80\\x81\\xe6\\x95\\xb0\\xe6\\x8d\\xae\\xe7\\xb1\\xbb\\xe5\\x9e\\x8b\\xe7\\x9a\\x84\\xe5\\xad\\x98\\xe5\\x82\\xa8/1.sol\":2546:2557  tokenOfUser */\n      0x01\n        /* \"shoot/2/\\xe5\\x8a\\xa8\\xe6\\x80\\x81\\xe6\\x95\\xb0\\xe6\\x8d\\xae\\xe7\\xb1\\xbb\\xe5\\x9e\\x8b\\xe7\\x9a\\x84\\xe5\\xad\\x98\\xe5\\x82\\xa8/1.sol\":2546:2569  tokenOfUser[msg.sender] */\n      0x00\n        /* \"shoot/2/\\xe5\\x8a\\xa8\\xe6\\x80\\x81\\xe6\\x95\\xb0\\xe6\\x8d\\xae\\xe7\\xb1\\xbb\\xe5\\x9e\\x8b\\xe7\\x9a\\x84\\xe5\\xad\\x98\\xe5\\x82\\xa8/1.sol\":2558:2568  msg.sender */\n      caller\n        /* \"shoot/2/\\xe5\\x8a\\xa8\\xe6\\x80\\x81\\xe6\\x95\\xb0\\xe6\\x8d\\xae\\xe7\\xb1\\xbb\\xe5\\x9e\\x8b\\xe7\\x9a\\x84\\xe5\\xad\\x98\\xe5\\x82\\xa8/1.sol\":2546:2569  tokenOfUser[msg.sender] */\n      0xffffffffffffffffffffffffffffffffffffffff\n      and\n      0xffffffffffffffffffffffffffffffffffffffff\n      and\n      dup2\n      mstore\n      0x20\n      add\n      swap1\n      dup2\n      mstore\n      0x20\n      add\n      0x00\n      keccak256\n      0x00\n        /* \"shoot/2/\\xe5\\x8a\\xa8\\xe6\\x80\\x81\\xe6\\x95\\xb0\\xe6\\x8d\\xae\\xe7\\xb1\\xbb\\xe5\\x9e\\x8b\\xe7\\x9a\\x84\\xe5\\xad\\x98\\xe5\\x82\\xa8/1.sol\":2539:2570  delete(tokenOfUser[msg.sender]) */\n      dup1\n      dup3\n      add\n      exp(0x0100, 0x00)\n      dup2\n      sload\n      swap1\n      0xffffffffffffffffffffffffffffffffffffffff\n      mul\n      not\n      and\n      swap1\n      sstore\n      0x01\n      dup3\n      add\n      0x00\n      swap1\n      sstore\n      0x02\n      dup3\n      add\n      0x00\n      swap1\n      sstore\n      pop\n      pop\n        /* \"shoot/2/\\xe5\\x8a\\xa8\\xe6\\x80\\x81\\xe6\\x95\\xb0\\xe6\\x8d\\xae\\xe7\\xb1\\xbb\\xe5\\x9e\\x8b\\xe7\\x9a\\x84\\xe5\\xad\\x98\\xe5\\x82\\xa8/1.sol\":2264:2578  {... */\n      pop\n      pop\n        /* \"shoot/2/\\xe5\\x8a\\xa8\\xe6\\x80\\x81\\xe6\\x95\\xb0\\xe6\\x8d\\xae\\xe7\\xb1\\xbb\\xe5\\x9e\\x8b\\xe7\\x9a\\x84\\xe5\\xad\\x98\\xe5\\x82\\xa8/1.sol\":2236:2578  function deleteToken()public{... */\n      jump\t// out\n        /* \"shoot/2/\\xe5\\x8a\\xa8\\xe6\\x80\\x81\\xe6\\x95\\xb0\\xe6\\x8d\\xae\\xe7\\xb1\\xbb\\xe5\\x9e\\x8b\\xe7\\x9a\\x84\\xe5\\xad\\x98\\xe5\\x82\\xa8/1.sol\":854:875  Token[] public tokens */\n    tag_23:\n      0x00\n      dup2\n      dup2\n      sload\n      dup2\n      lt\n      tag_77\n      jumpi\n      0x00\n      dup1\n      revert\n    tag_77:\n      swap1\n      0x00\n      mstore\n      keccak256(0x00, 0x20)\n      swap1\n      0x03\n      mul\n      add\n      0x00\n      swap2\n      pop\n      swap1\n      pop\n      dup1\n      0x00\n      add\n      0x00\n      swap1\n      sload\n      swap1\n      0x0100\n      exp\n      swap1\n      div\n      0xffffffffffffffffffffffffffffffffffffffff\n      and\n      swap1\n      dup1\n      0x01\n      add\n      sload\n      swap1\n      dup1\n      0x02\n      add\n      sload\n      swap1\n      pop\n      dup4\n      jump\t// out\n        /* \"shoot/2/\\xe5\\x8a\\xa8\\xe6\\x80\\x81\\xe6\\x95\\xb0\\xe6\\x8d\\xae\\xe7\\xb1\\xbb\\xe5\\x9e\\x8b\\xe7\\x9a\\x84\\xe5\\xad\\x98\\xe5\\x82\\xa8/1.sol\":1382:1645  function checkTokenOfUserSlot(bytes32 _slot,address _addr)public view returns(bool){... */\n    tag_29:\n        /* \"shoot/2/\\xe5\\x8a\\xa8\\xe6\\x80\\x81\\xe6\\x95\\xb0\\xe6\\x8d\\xae\\xe7\\xb1\\xbb\\xe5\\x9e\\x8b\\xe7\\x9a\\x84\\xe5\\xad\\x98\\xe5\\x82\\xa8/1.sol\":1460:1464  bool */\n      0x00\n        /* \"shoot/2/\\xe5\\x8a\\xa8\\xe6\\x80\\x81\\xe6\\x95\\xb0\\xe6\\x8d\\xae\\xe7\\xb1\\xbb\\xe5\\x9e\\x8b\\xe7\\x9a\\x84\\xe5\\xad\\x98\\xe5\\x82\\xa8/1.sol\":1476:1488  bytes32 slot */\n      dup1\n        /* \"shoot/2/\\xe5\\x8a\\xa8\\xe6\\x80\\x81\\xe6\\x95\\xb0\\xe6\\x8d\\xae\\xe7\\xb1\\xbb\\xe5\\x9e\\x8b\\xe7\\x9a\\x84\\xe5\\xad\\x98\\xe5\\x82\\xa8/1.sol\":1499:1518  Token storage token */\n      0x00\n        /* \"shoot/2/\\xe5\\x8a\\xa8\\xe6\\x80\\x81\\xe6\\x95\\xb0\\xe6\\x8d\\xae\\xe7\\xb1\\xbb\\xe5\\x9e\\x8b\\xe7\\x9a\\x84\\xe5\\xad\\x98\\xe5\\x82\\xa8/1.sol\":1521:1532  tokenOfUser */\n      0x01\n        /* \"shoot/2/\\xe5\\x8a\\xa8\\xe6\\x80\\x81\\xe6\\x95\\xb0\\xe6\\x8d\\xae\\xe7\\xb1\\xbb\\xe5\\x9e\\x8b\\xe7\\x9a\\x84\\xe5\\xad\\x98\\xe5\\x82\\xa8/1.sol\":1521:1539  tokenOfUser[_addr] */\n      0x00\n        /* \"shoot/2/\\xe5\\x8a\\xa8\\xe6\\x80\\x81\\xe6\\x95\\xb0\\xe6\\x8d\\xae\\xe7\\xb1\\xbb\\xe5\\x9e\\x8b\\xe7\\x9a\\x84\\xe5\\xad\\x98\\xe5\\x82\\xa8/1.sol\":1533:1538  _addr */\n      dup6\n        /* \"shoot/2/\\xe5\\x8a\\xa8\\xe6\\x80\\x81\\xe6\\x95\\xb0\\xe6\\x8d\\xae\\xe7\\xb1\\xbb\\xe5\\x9e\\x8b\\xe7\\x9a\\x84\\xe5\\xad\\x98\\xe5\\x82\\xa8/1.sol\":1521:1539  tokenOfUser[_addr] */\n      0xffffffffffffffffffffffffffffffffffffffff\n      and\n      0xffffffffffffffffffffffffffffffffffffffff\n      and\n      dup2\n      mstore\n      0x20\n      add\n      swap1\n      dup2\n      mstore\n      0x20\n      add\n      0x00\n      keccak256\n        /* \"shoot/2/\\xe5\\x8a\\xa8\\xe6\\x80\\x81\\xe6\\x95\\xb0\\xe6\\x8d\\xae\\xe7\\xb1\\xbb\\xe5\\x9e\\x8b\\xe7\\x9a\\x84\\xe5\\xad\\x98\\xe5\\x82\\xa8/1.sol\":1499:1539  Token storage token = tokenOfUser[_addr] */\n      swap1\n      pop\n        /* \"shoot/2/\\xe5\\x8a\\xa8\\xe6\\x80\\x81\\xe6\\x95\\xb0\\xe6\\x8d\\xae\\xe7\\xb1\\xbb\\xe5\\x9e\\x8b\\xe7\\x9a\\x84\\xe5\\xad\\x98\\xe5\\x82\\xa8/1.sol\":1582:1592  token.slot */\n      dup1\n        /* \"shoot/2/\\xe5\\x8a\\xa8\\xe6\\x80\\x81\\xe6\\x95\\xb0\\xe6\\x8d\\xae\\xe7\\xb1\\xbb\\xe5\\x9e\\x8b\\xe7\\x9a\\x84\\xe5\\xad\\x98\\xe5\\x82\\xa8/1.sol\":1575:1592  slot :=token.slot */\n      swap2\n      pop\n        /* \"shoot/2/\\xe5\\x8a\\xa8\\xe6\\x80\\x81\\xe6\\x95\\xb0\\xe6\\x8d\\xae\\xe7\\xb1\\xbb\\xe5\\x9e\\x8b\\xe7\\x9a\\x84\\xe5\\xad\\x98\\xe5\\x82\\xa8/1.sol\":1631:1636  _slot */\n      dup5\n        /* \"shoot/2/\\xe5\\x8a\\xa8\\xe6\\x80\\x81\\xe6\\x95\\xb0\\xe6\\x8d\\xae\\xe7\\xb1\\xbb\\xe5\\x9e\\x8b\\xe7\\x9a\\x84\\xe5\\xad\\x98\\xe5\\x82\\xa8/1.sol\":1625:1629  slot */\n      dup3\n        /* \"shoot/2/\\xe5\\x8a\\xa8\\xe6\\x80\\x81\\xe6\\x95\\xb0\\xe6\\x8d\\xae\\xe7\\xb1\\xbb\\xe5\\x9e\\x8b\\xe7\\x9a\\x84\\xe5\\xad\\x98\\xe5\\x82\\xa8/1.sol\":1625:1636  slot==_slot */\n      eq\n        /* \"shoot/2/\\xe5\\x8a\\xa8\\xe6\\x80\\x81\\xe6\\x95\\xb0\\xe6\\x8d\\xae\\xe7\\xb1\\xbb\\xe5\\x9e\\x8b\\xe7\\x9a\\x84\\xe5\\xad\\x98\\xe5\\x82\\xa8/1.sol\":1618:1637  return(slot==_slot) */\n      swap3\n      pop\n      pop\n      pop\n        /* \"shoot/2/\\xe5\\x8a\\xa8\\xe6\\x80\\x81\\xe6\\x95\\xb0\\xe6\\x8d\\xae\\xe7\\xb1\\xbb\\xe5\\x9e\\x8b\\xe7\\x9a\\x84\\xe5\\xad\\x98\\xe5\\x82\\xa8/1.sol\":1382:1645  function checkTokenOfUserSlot(bytes32 _slot,address _addr)public view returns(bool){... */\n      swap3\n      swap2\n      pop\n      pop\n      jump\t// out\n        /* \"shoot/2/\\xe5\\x8a\\xa8\\xe6\\x80\\x81\\xe6\\x95\\xb0\\xe6\\x8d\\xae\\xe7\\xb1\\xbb\\xe5\\x9e\\x8b\\xe7\\x9a\\x84\\xe5\\xad\\x98\\xe5\\x82\\xa8/1.sol\":1653:2228  function addToken(address _token,uint256 _value)public{... */\n    tag_34:\n        /* \"shoot/2/\\xe5\\x8a\\xa8\\xe6\\x80\\x81\\xe6\\x95\\xb0\\xe6\\x8d\\xae\\xe7\\xb1\\xbb\\xe5\\x9e\\x8b\\xe7\\x9a\\x84\\xe5\\xad\\x98\\xe5\\x82\\xa8/1.sol\":1740:1743  100 */\n      0x64\n        /* \"shoot/2/\\xe5\\x8a\\xa8\\xe6\\x80\\x81\\xe6\\x95\\xb0\\xe6\\x8d\\xae\\xe7\\xb1\\xbb\\xe5\\x9e\\x8b\\xe7\\x9a\\x84\\xe5\\xad\\x98\\xe5\\x82\\xa8/1.sol\":1726:1732  tokens */\n      0x00\n        /* \"shoot/2/\\xe5\\x8a\\xa8\\xe6\\x80\\x81\\xe6\\x95\\xb0\\xe6\\x8d\\xae\\xe7\\xb1\\xbb\\xe5\\x9e\\x8b\\xe7\\x9a\\x84\\xe5\\xad\\x98\\xe5\\x82\\xa8/1.sol\":1726:1739  tokens.length */\n      dup1\n      sload\n      swap1\n      pop\n        /* \"shoot/2/\\xe5\\x8a\\xa8\\xe6\\x80\\x81\\xe6\\x95\\xb0\\xe6\\x8d\\xae\\xe7\\xb1\\xbb\\xe5\\x9e\\x8b\\xe7\\x9a\\x84\\xe5\\xad\\x98\\xe5\\x82\\xa8/1.sol\":1726:1743  tokens.length<100 */\n      lt\n        /* \"shoot/2/\\xe5\\x8a\\xa8\\xe6\\x80\\x81\\xe6\\x95\\xb0\\xe6\\x8d\\xae\\xe7\\xb1\\xbb\\xe5\\x9e\\x8b\\xe7\\x9a\\x84\\xe5\\xad\\x98\\xe5\\x82\\xa8/1.sol\":1718:1761  require(tokens.length<100,\"too much token\") */\n      tag_81\n      jumpi\n      mload(0x40)\n      0x08c379a000000000000000000000000000000000000000000000000000000000\n      dup2\n      mstore\n      0x04\n      add\n      tag_82\n      swap1\n      tag_83\n      jump\t// in\n    tag_82:\n      mload(0x40)\n      dup1\n      swap2\n      sub\n      swap1\n      revert\n    tag_81:\n        /* \"shoot/2/\\xe5\\x8a\\xa8\\xe6\\x80\\x81\\xe6\\x95\\xb0\\xe6\\x8d\\xae\\xe7\\xb1\\xbb\\xe5\\x9e\\x8b\\xe7\\x9a\\x84\\xe5\\xad\\x98\\xe5\\x82\\xa8/1.sol\":1813:1814  0 */\n      0x00\n        /* \"shoot/2/\\xe5\\x8a\\xa8\\xe6\\x80\\x81\\xe6\\x95\\xb0\\xe6\\x8d\\xae\\xe7\\xb1\\xbb\\xe5\\x9e\\x8b\\xe7\\x9a\\x84\\xe5\\xad\\x98\\xe5\\x82\\xa8/1.sol\":1775:1815  tokenOfUser[msg.sender].addr==address(0) */\n      0xffffffffffffffffffffffffffffffffffffffff\n      and\n        /* \"shoot/2/\\xe5\\x8a\\xa8\\xe6\\x80\\x81\\xe6\\x95\\xb0\\xe6\\x8d\\xae\\xe7\\xb1\\xbb\\xe5\\x9e\\x8b\\xe7\\x9a\\x84\\xe5\\xad\\x98\\xe5\\x82\\xa8/1.sol\":1775:1786  tokenOfUser */\n      0x01\n        /* \"shoot/2/\\xe5\\x8a\\xa8\\xe6\\x80\\x81\\xe6\\x95\\xb0\\xe6\\x8d\\xae\\xe7\\xb1\\xbb\\xe5\\x9e\\x8b\\xe7\\x9a\\x84\\xe5\\xad\\x98\\xe5\\x82\\xa8/1.sol\":1775:1798  tokenOfUser[msg.sender] */\n      0x00\n        /* \"shoot/2/\\xe5\\x8a\\xa8\\xe6\\x80\\x81\\xe6\\x95\\xb0\\xe6\\x8d\\xae\\xe7\\xb1\\xbb\\xe5\\x9e\\x8b\\xe7\\x9a\\x84\\xe5\\xad\\x98\\xe5\\x82\\xa8/1.sol\":1787:1797  msg.sender */\n      caller\n        /* \"shoot/2/\\xe5\\x8a\\xa8\\xe6\\x80\\x81\\xe6\\x95\\xb0\\xe6\\x8d\\xae\\xe7\\xb1\\xbb\\xe5\\x9e\\x8b\\xe7\\x9a\\x84\\xe5\\xad\\x98\\xe5\\x82\\xa8/1.sol\":1775:1798  tokenOfUser[msg.sender] */\n      0xffffffffffffffffffffffffffffffffffffffff\n      and\n      0xffffffffffffffffffffffffffffffffffffffff\n      and\n      dup2\n      mstore\n      0x20\n      add\n      swap1\n      dup2\n      mstore\n      0x20\n      add\n      0x00\n      keccak256\n        /* \"shoot/2/\\xe5\\x8a\\xa8\\xe6\\x80\\x81\\xe6\\x95\\xb0\\xe6\\x8d\\xae\\xe7\\xb1\\xbb\\xe5\\x9e\\x8b\\xe7\\x9a\\x84\\xe5\\xad\\x98\\xe5\\x82\\xa8/1.sol\":1775:1803  tokenOfUser[msg.sender].addr */\n      0x00\n      add\n      0x00\n      swap1\n      sload\n      swap1\n      0x0100\n      exp\n      swap1\n      div\n      0xffffffffffffffffffffffffffffffffffffffff\n      and\n        /* \"shoot/2/\\xe5\\x8a\\xa8\\xe6\\x80\\x81\\xe6\\x95\\xb0\\xe6\\x8d\\xae\\xe7\\xb1\\xbb\\xe5\\x9e\\x8b\\xe7\\x9a\\x84\\xe5\\xad\\x98\\xe5\\x82\\xa8/1.sol\":1775:1815  tokenOfUser[msg.sender].addr==address(0) */\n      0xffffffffffffffffffffffffffffffffffffffff\n      and\n      sub\n        /* \"shoot/2/\\xe5\\x8a\\xa8\\xe6\\x80\\x81\\xe6\\x95\\xb0\\xe6\\x8d\\xae\\xe7\\xb1\\xbb\\xe5\\x9e\\x8b\\xe7\\x9a\\x84\\xe5\\xad\\x98\\xe5\\x82\\xa8/1.sol\":1772:2221  if(tokenOfUser[msg.sender].addr==address(0)){... */\n      tag_84\n      jumpi\n        /* \"shoot/2/\\xe5\\x8a\\xa8\\xe6\\x80\\x81\\xe6\\x95\\xb0\\xe6\\x8d\\xae\\xe7\\xb1\\xbb\\xe5\\x9e\\x8b\\xe7\\x9a\\x84\\xe5\\xad\\x98\\xe5\\x82\\xa8/1.sol\":1831:1849  Token memory token */\n      0x00\n        /* \"shoot/2/\\xe5\\x8a\\xa8\\xe6\\x80\\x81\\xe6\\x95\\xb0\\xe6\\x8d\\xae\\xe7\\xb1\\xbb\\xe5\\x9e\\x8b\\xe7\\x9a\\x84\\xe5\\xad\\x98\\xe5\\x82\\xa8/1.sol\":1852:1886  Token(_token,_value,tokens.length) */\n      mload(0x40)\n      dup1\n      0x60\n      add\n      0x40\n      mstore\n      dup1\n        /* \"shoot/2/\\xe5\\x8a\\xa8\\xe6\\x80\\x81\\xe6\\x95\\xb0\\xe6\\x8d\\xae\\xe7\\xb1\\xbb\\xe5\\x9e\\x8b\\xe7\\x9a\\x84\\xe5\\xad\\x98\\xe5\\x82\\xa8/1.sol\":1858:1864  _token */\n      dup5\n        /* \"shoot/2/\\xe5\\x8a\\xa8\\xe6\\x80\\x81\\xe6\\x95\\xb0\\xe6\\x8d\\xae\\xe7\\xb1\\xbb\\xe5\\x9e\\x8b\\xe7\\x9a\\x84\\xe5\\xad\\x98\\xe5\\x82\\xa8/1.sol\":1852:1886  Token(_token,_value,tokens.length) */\n      0xffffffffffffffffffffffffffffffffffffffff\n      and\n      dup2\n      mstore\n      0x20\n      add\n        /* \"shoot/2/\\xe5\\x8a\\xa8\\xe6\\x80\\x81\\xe6\\x95\\xb0\\xe6\\x8d\\xae\\xe7\\xb1\\xbb\\xe5\\x9e\\x8b\\xe7\\x9a\\x84\\xe5\\xad\\x98\\xe5\\x82\\xa8/1.sol\":1865:1871  _value */\n      dup4\n        /* \"shoot/2/\\xe5\\x8a\\xa8\\xe6\\x80\\x81\\xe6\\x95\\xb0\\xe6\\x8d\\xae\\xe7\\xb1\\xbb\\xe5\\x9e\\x8b\\xe7\\x9a\\x84\\xe5\\xad\\x98\\xe5\\x82\\xa8/1.sol\":1852:1886  Token(_token,_value,tokens.length) */\n      dup2\n      mstore\n      0x20\n      add\n        /* \"shoot/2/\\xe5\\x8a\\xa8\\xe6\\x80\\x81\\xe6\\x95\\xb0\\xe6\\x8d\\xae\\xe7\\xb1\\xbb\\xe5\\x9e\\x8b\\xe7\\x9a\\x84\\xe5\\xad\\x98\\xe5\\x82\\xa8/1.sol\":1872:1878  tokens */\n      0x00\n        /* \"shoot/2/\\xe5\\x8a\\xa8\\xe6\\x80\\x81\\xe6\\x95\\xb0\\xe6\\x8d\\xae\\xe7\\xb1\\xbb\\xe5\\x9e\\x8b\\xe7\\x9a\\x84\\xe5\\xad\\x98\\xe5\\x82\\xa8/1.sol\":1872:1885  tokens.length */\n      dup1\n      sload\n      swap1\n      pop\n        /* \"shoot/2/\\xe5\\x8a\\xa8\\xe6\\x80\\x81\\xe6\\x95\\xb0\\xe6\\x8d\\xae\\xe7\\xb1\\xbb\\xe5\\x9e\\x8b\\xe7\\x9a\\x84\\xe5\\xad\\x98\\xe5\\x82\\xa8/1.sol\":1852:1886  Token(_token,_value,tokens.length) */\n      dup2\n      mstore\n      pop\n        /* \"shoot/2/\\xe5\\x8a\\xa8\\xe6\\x80\\x81\\xe6\\x95\\xb0\\xe6\\x8d\\xae\\xe7\\xb1\\xbb\\xe5\\x9e\\x8b\\xe7\\x9a\\x84\\xe5\\xad\\x98\\xe5\\x82\\xa8/1.sol\":1831:1886  Token memory token = Token(_token,_value,tokens.length) */\n      swap1\n      pop\n        /* \"shoot/2/\\xe5\\x8a\\xa8\\xe6\\x80\\x81\\xe6\\x95\\xb0\\xe6\\x8d\\xae\\xe7\\xb1\\xbb\\xe5\\x9e\\x8b\\xe7\\x9a\\x84\\xe5\\xad\\x98\\xe5\\x82\\xa8/1.sol\":1901:1907  tokens */\n      0x00\n        /* \"shoot/2/\\xe5\\x8a\\xa8\\xe6\\x80\\x81\\xe6\\x95\\xb0\\xe6\\x8d\\xae\\xe7\\xb1\\xbb\\xe5\\x9e\\x8b\\xe7\\x9a\\x84\\xe5\\xad\\x98\\xe5\\x82\\xa8/1.sol\":1913:1918  token */\n      dup2\n        /* \"shoot/2/\\xe5\\x8a\\xa8\\xe6\\x80\\x81\\xe6\\x95\\xb0\\xe6\\x8d\\xae\\xe7\\xb1\\xbb\\xe5\\x9e\\x8b\\xe7\\x9a\\x84\\xe5\\xad\\x98\\xe5\\x82\\xa8/1.sol\":1901:1919  tokens.push(token) */\n      swap1\n      dup1\n      0x01\n      dup2\n      sload\n      add\n      dup1\n      dup3\n      sstore\n      dup1\n      swap2\n      pop\n      pop\n      0x01\n      swap1\n      sub\n      swap1\n      0x00\n      mstore\n      keccak256(0x00, 0x20)\n      swap1\n      0x03\n      mul\n      add\n      0x00\n      swap1\n      swap2\n      swap1\n      swap2\n      swap1\n      swap2\n      pop\n      0x00\n      dup3\n      add\n      mload\n      dup2\n      0x00\n      add\n      exp(0x0100, 0x00)\n      dup2\n      sload\n      dup2\n      0xffffffffffffffffffffffffffffffffffffffff\n      mul\n      not\n      and\n      swap1\n      dup4\n      0xffffffffffffffffffffffffffffffffffffffff\n      and\n      mul\n      or\n      swap1\n      sstore\n      pop\n      0x20\n      dup3\n      add\n      mload\n      dup2\n      0x01\n      add\n      sstore\n      0x40\n      dup3\n      add\n      mload\n      dup2\n      0x02\n      add\n      sstore\n      pop\n      pop\n        /* \"shoot/2/\\xe5\\x8a\\xa8\\xe6\\x80\\x81\\xe6\\x95\\xb0\\xe6\\x8d\\xae\\xe7\\xb1\\xbb\\xe5\\x9e\\x8b\\xe7\\x9a\\x84\\xe5\\xad\\x98\\xe5\\x82\\xa8/1.sol\":1958:1963  token */\n      dup1\n        /* \"shoot/2/\\xe5\\x8a\\xa8\\xe6\\x80\\x81\\xe6\\x95\\xb0\\xe6\\x8d\\xae\\xe7\\xb1\\xbb\\xe5\\x9e\\x8b\\xe7\\x9a\\x84\\xe5\\xad\\x98\\xe5\\x82\\xa8/1.sol\":1934:1945  tokenOfUser */\n      0x01\n        /* \"shoot/2/\\xe5\\x8a\\xa8\\xe6\\x80\\x81\\xe6\\x95\\xb0\\xe6\\x8d\\xae\\xe7\\xb1\\xbb\\xe5\\x9e\\x8b\\xe7\\x9a\\x84\\xe5\\xad\\x98\\xe5\\x82\\xa8/1.sol\":1934:1957  tokenOfUser[msg.sender] */\n      0x00\n        /* \"shoot/2/\\xe5\\x8a\\xa8\\xe6\\x80\\x81\\xe6\\x95\\xb0\\xe6\\x8d\\xae\\xe7\\xb1\\xbb\\xe5\\x9e\\x8b\\xe7\\x9a\\x84\\xe5\\xad\\x98\\xe5\\x82\\xa8/1.sol\":1946:1956  msg.sender */\n      caller\n        /* \"shoot/2/\\xe5\\x8a\\xa8\\xe6\\x80\\x81\\xe6\\x95\\xb0\\xe6\\x8d\\xae\\xe7\\xb1\\xbb\\xe5\\x9e\\x8b\\xe7\\x9a\\x84\\xe5\\xad\\x98\\xe5\\x82\\xa8/1.sol\":1934:1957  tokenOfUser[msg.sender] */\n      0xffffffffffffffffffffffffffffffffffffffff\n      and\n      0xffffffffffffffffffffffffffffffffffffffff\n      and\n      dup2\n      mstore\n      0x20\n      add\n      swap1\n      dup2\n      mstore\n      0x20\n      add\n      0x00\n      keccak256\n        /* \"shoot/2/\\xe5\\x8a\\xa8\\xe6\\x80\\x81\\xe6\\x95\\xb0\\xe6\\x8d\\xae\\xe7\\xb1\\xbb\\xe5\\x9e\\x8b\\xe7\\x9a\\x84\\xe5\\xad\\x98\\xe5\\x82\\xa8/1.sol\":1934:1963  tokenOfUser[msg.sender]=token */\n      0x00\n      dup3\n      add\n      mload\n      dup2\n      0x00\n      add\n      exp(0x0100, 0x00)\n      dup2\n      sload\n      dup2\n      0xffffffffffffffffffffffffffffffffffffffff\n      mul\n      not\n      and\n      swap1\n      dup4\n      0xffffffffffffffffffffffffffffffffffffffff\n      and\n      mul\n      or\n      swap1\n      sstore\n      pop\n      0x20\n      dup3\n      add\n      mload\n      dup2\n      0x01\n      add\n      sstore\n      0x40\n      dup3\n      add\n      mload\n      dup2\n      0x02\n      add\n      sstore\n      swap1\n      pop\n      pop\n        /* \"shoot/2/\\xe5\\x8a\\xa8\\xe6\\x80\\x81\\xe6\\x95\\xb0\\xe6\\x8d\\xae\\xe7\\xb1\\xbb\\xe5\\x9e\\x8b\\xe7\\x9a\\x84\\xe5\\xad\\x98\\xe5\\x82\\xa8/1.sol\":1816:1975  {... */\n      pop\n        /* \"shoot/2/\\xe5\\x8a\\xa8\\xe6\\x80\\x81\\xe6\\x95\\xb0\\xe6\\x8d\\xae\\xe7\\xb1\\xbb\\xe5\\x9e\\x8b\\xe7\\x9a\\x84\\xe5\\xad\\x98\\xe5\\x82\\xa8/1.sol\":1772:2221  if(tokenOfUser[msg.sender].addr==address(0)){... */\n      jump(tag_86)\n    tag_84:\n        /* \"shoot/2/\\xe5\\x8a\\xa8\\xe6\\x80\\x81\\xe6\\x95\\xb0\\xe6\\x8d\\xae\\xe7\\xb1\\xbb\\xe5\\x9e\\x8b\\xe7\\x9a\\x84\\xe5\\xad\\x98\\xe5\\x82\\xa8/1.sol\":1994:2012  Token memory token */\n      0x00\n        /* \"shoot/2/\\xe5\\x8a\\xa8\\xe6\\x80\\x81\\xe6\\x95\\xb0\\xe6\\x8d\\xae\\xe7\\xb1\\xbb\\xe5\\x9e\\x8b\\xe7\\x9a\\x84\\xe5\\xad\\x98\\xe5\\x82\\xa8/1.sol\":2015:2026  tokenOfUser */\n      0x01\n        /* \"shoot/2/\\xe5\\x8a\\xa8\\xe6\\x80\\x81\\xe6\\x95\\xb0\\xe6\\x8d\\xae\\xe7\\xb1\\xbb\\xe5\\x9e\\x8b\\xe7\\x9a\\x84\\xe5\\xad\\x98\\xe5\\x82\\xa8/1.sol\":2015:2038  tokenOfUser[msg.sender] */\n      0x00\n        /* \"shoot/2/\\xe5\\x8a\\xa8\\xe6\\x80\\x81\\xe6\\x95\\xb0\\xe6\\x8d\\xae\\xe7\\xb1\\xbb\\xe5\\x9e\\x8b\\xe7\\x9a\\x84\\xe5\\xad\\x98\\xe5\\x82\\xa8/1.sol\":2027:2037  msg.sender */\n      caller\n        /* \"shoot/2/\\xe5\\x8a\\xa8\\xe6\\x80\\x81\\xe6\\x95\\xb0\\xe6\\x8d\\xae\\xe7\\xb1\\xbb\\xe5\\x9e\\x8b\\xe7\\x9a\\x84\\xe5\\xad\\x98\\xe5\\x82\\xa8/1.sol\":2015:2038  tokenOfUser[msg.sender] */\n      0xffffffffffffffffffffffffffffffffffffffff\n      and\n      0xffffffffffffffffffffffffffffffffffffffff\n      and\n      dup2\n      mstore\n      0x20\n      add\n      swap1\n      dup2\n      mstore\n      0x20\n      add\n      0x00\n      keccak256\n        /* \"shoot/2/\\xe5\\x8a\\xa8\\xe6\\x80\\x81\\xe6\\x95\\xb0\\xe6\\x8d\\xae\\xe7\\xb1\\xbb\\xe5\\x9e\\x8b\\xe7\\x9a\\x84\\xe5\\xad\\x98\\xe5\\x82\\xa8/1.sol\":1994:2038  Token memory token = tokenOfUser[msg.sender] */\n      mload(0x40)\n      dup1\n      0x60\n      add\n      0x40\n      mstore\n      swap1\n      dup2\n      0x00\n      dup3\n      add\n      0x00\n      swap1\n      sload\n      swap1\n      0x0100\n      exp\n      swap1\n      div\n      0xffffffffffffffffffffffffffffffffffffffff\n      and\n      0xffffffffffffffffffffffffffffffffffffffff\n      and\n      0xffffffffffffffffffffffffffffffffffffffff\n      and\n      dup2\n      mstore\n      0x20\n      add\n      0x01\n      dup3\n      add\n      sload\n      dup2\n      mstore\n      0x20\n      add\n      0x02\n      dup3\n      add\n      sload\n      dup2\n      mstore\n      pop\n      pop\n      swap1\n      pop\n        /* \"shoot/2/\\xe5\\x8a\\xa8\\xe6\\x80\\x81\\xe6\\x95\\xb0\\xe6\\x8d\\xae\\xe7\\xb1\\xbb\\xe5\\x9e\\x8b\\xe7\\x9a\\x84\\xe5\\xad\\x98\\xe5\\x82\\xa8/1.sol\":2064:2070  _token */\n      dup3\n        /* \"shoot/2/\\xe5\\x8a\\xa8\\xe6\\x80\\x81\\xe6\\x95\\xb0\\xe6\\x8d\\xae\\xe7\\xb1\\xbb\\xe5\\x9e\\x8b\\xe7\\x9a\\x84\\xe5\\xad\\x98\\xe5\\x82\\xa8/1.sol\":2053:2058  token */\n      dup2\n        /* \"shoot/2/\\xe5\\x8a\\xa8\\xe6\\x80\\x81\\xe6\\x95\\xb0\\xe6\\x8d\\xae\\xe7\\xb1\\xbb\\xe5\\x9e\\x8b\\xe7\\x9a\\x84\\xe5\\xad\\x98\\xe5\\x82\\xa8/1.sol\":2053:2063  token.addr */\n      0x00\n      add\n        /* \"shoot/2/\\xe5\\x8a\\xa8\\xe6\\x80\\x81\\xe6\\x95\\xb0\\xe6\\x8d\\xae\\xe7\\xb1\\xbb\\xe5\\x9e\\x8b\\xe7\\x9a\\x84\\xe5\\xad\\x98\\xe5\\x82\\xa8/1.sol\":2053:2070  token.addr=_token */\n      swap1\n      0xffffffffffffffffffffffffffffffffffffffff\n      and\n      swap1\n      dup2\n      0xffffffffffffffffffffffffffffffffffffffff\n      and\n      dup2\n      mstore\n      pop\n      pop\n        /* \"shoot/2/\\xe5\\x8a\\xa8\\xe6\\x80\\x81\\xe6\\x95\\xb0\\xe6\\x8d\\xae\\xe7\\xb1\\xbb\\xe5\\x9e\\x8b\\xe7\\x9a\\x84\\xe5\\xad\\x98\\xe5\\x82\\xa8/1.sol\":2097:2103  _value */\n      dup2\n        /* \"shoot/2/\\xe5\\x8a\\xa8\\xe6\\x80\\x81\\xe6\\x95\\xb0\\xe6\\x8d\\xae\\xe7\\xb1\\xbb\\xe5\\x9e\\x8b\\xe7\\x9a\\x84\\xe5\\xad\\x98\\xe5\\x82\\xa8/1.sol\":2085:2090  token */\n      dup2\n        /* \"shoot/2/\\xe5\\x8a\\xa8\\xe6\\x80\\x81\\xe6\\x95\\xb0\\xe6\\x8d\\xae\\xe7\\xb1\\xbb\\xe5\\x9e\\x8b\\xe7\\x9a\\x84\\xe5\\xad\\x98\\xe5\\x82\\xa8/1.sol\":2085:2096  token.value */\n      0x20\n      add\n        /* \"shoot/2/\\xe5\\x8a\\xa8\\xe6\\x80\\x81\\xe6\\x95\\xb0\\xe6\\x8d\\xae\\xe7\\xb1\\xbb\\xe5\\x9e\\x8b\\xe7\\x9a\\x84\\xe5\\xad\\x98\\xe5\\x82\\xa8/1.sol\":2085:2103  token.value=_value */\n      dup2\n      dup2\n      mstore\n      pop\n      pop\n        /* \"shoot/2/\\xe5\\x8a\\xa8\\xe6\\x80\\x81\\xe6\\x95\\xb0\\xe6\\x8d\\xae\\xe7\\xb1\\xbb\\xe5\\x9e\\x8b\\xe7\\x9a\\x84\\xe5\\xad\\x98\\xe5\\x82\\xa8/1.sol\":2142:2147  token */\n      dup1\n        /* \"shoot/2/\\xe5\\x8a\\xa8\\xe6\\x80\\x81\\xe6\\x95\\xb0\\xe6\\x8d\\xae\\xe7\\xb1\\xbb\\xe5\\x9e\\x8b\\xe7\\x9a\\x84\\xe5\\xad\\x98\\xe5\\x82\\xa8/1.sol\":2118:2129  tokenOfUser */\n      0x01\n        /* \"shoot/2/\\xe5\\x8a\\xa8\\xe6\\x80\\x81\\xe6\\x95\\xb0\\xe6\\x8d\\xae\\xe7\\xb1\\xbb\\xe5\\x9e\\x8b\\xe7\\x9a\\x84\\xe5\\xad\\x98\\xe5\\x82\\xa8/1.sol\":2118:2141  tokenOfUser[msg.sender] */\n      0x00\n        /* \"shoot/2/\\xe5\\x8a\\xa8\\xe6\\x80\\x81\\xe6\\x95\\xb0\\xe6\\x8d\\xae\\xe7\\xb1\\xbb\\xe5\\x9e\\x8b\\xe7\\x9a\\x84\\xe5\\xad\\x98\\xe5\\x82\\xa8/1.sol\":2130:2140  msg.sender */\n      caller\n        /* \"shoot/2/\\xe5\\x8a\\xa8\\xe6\\x80\\x81\\xe6\\x95\\xb0\\xe6\\x8d\\xae\\xe7\\xb1\\xbb\\xe5\\x9e\\x8b\\xe7\\x9a\\x84\\xe5\\xad\\x98\\xe5\\x82\\xa8/1.sol\":2118:2141  tokenOfUser[msg.sender] */\n      0xffffffffffffffffffffffffffffffffffffffff\n      and\n      0xffffffffffffffffffffffffffffffffffffffff\n      and\n      dup2\n      mstore\n      0x20\n      add\n      swap1\n      dup2\n      mstore\n      0x20\n      add\n      0x00\n      keccak256\n        /* \"shoot/2/\\xe5\\x8a\\xa8\\xe6\\x80\\x81\\xe6\\x95\\xb0\\xe6\\x8d\\xae\\xe7\\xb1\\xbb\\xe5\\x9e\\x8b\\xe7\\x9a\\x84\\xe5\\xad\\x98\\xe5\\x82\\xa8/1.sol\":2118:2147  tokenOfUser[msg.sender]=token */\n      0x00\n      dup3\n      add\n      mload\n      dup2\n      0x00\n      add\n      exp(0x0100, 0x00)\n      dup2\n      sload\n      dup2\n      0xffffffffffffffffffffffffffffffffffffffff\n      mul\n      not\n      and\n      swap1\n      dup4\n      0xffffffffffffffffffffffffffffffffffffffff\n      and\n      mul\n      or\n      swap1\n      sstore\n      pop\n      0x20\n      dup3\n      add\n      mload\n      dup2\n      0x01\n      add\n      sstore\n      0x40\n      dup3\n      add\n      mload\n      dup2\n      0x02\n      add\n      sstore\n      swap1\n      pop\n      pop\n        /* \"shoot/2/\\xe5\\x8a\\xa8\\xe6\\x80\\x81\\xe6\\x95\\xb0\\xe6\\x8d\\xae\\xe7\\xb1\\xbb\\xe5\\x9e\\x8b\\xe7\\x9a\\x84\\xe5\\xad\\x98\\xe5\\x82\\xa8/1.sol\":2204:2209  token */\n      dup1\n        /* \"shoot/2/\\xe5\\x8a\\xa8\\xe6\\x80\\x81\\xe6\\x95\\xb0\\xe6\\x8d\\xae\\xe7\\xb1\\xbb\\xe5\\x9e\\x8b\\xe7\\x9a\\x84\\xe5\\xad\\x98\\xe5\\x82\\xa8/1.sol\":2164:2170  tokens */\n      0x00\n        /* \"shoot/2/\\xe5\\x8a\\xa8\\xe6\\x80\\x81\\xe6\\x95\\xb0\\xe6\\x8d\\xae\\xe7\\xb1\\xbb\\xe5\\x9e\\x8b\\xe7\\x9a\\x84\\xe5\\xad\\x98\\xe5\\x82\\xa8/1.sol\":2171:2182  tokenOfUser */\n      0x01\n        /* \"shoot/2/\\xe5\\x8a\\xa8\\xe6\\x80\\x81\\xe6\\x95\\xb0\\xe6\\x8d\\xae\\xe7\\xb1\\xbb\\xe5\\x9e\\x8b\\xe7\\x9a\\x84\\xe5\\xad\\x98\\xe5\\x82\\xa8/1.sol\":2171:2194  tokenOfUser[msg.sender] */\n      0x00\n        /* \"shoot/2/\\xe5\\x8a\\xa8\\xe6\\x80\\x81\\xe6\\x95\\xb0\\xe6\\x8d\\xae\\xe7\\xb1\\xbb\\xe5\\x9e\\x8b\\xe7\\x9a\\x84\\xe5\\xad\\x98\\xe5\\x82\\xa8/1.sol\":2183:2193  msg.sender */\n      caller\n        /* \"shoot/2/\\xe5\\x8a\\xa8\\xe6\\x80\\x81\\xe6\\x95\\xb0\\xe6\\x8d\\xae\\xe7\\xb1\\xbb\\xe5\\x9e\\x8b\\xe7\\x9a\\x84\\xe5\\xad\\x98\\xe5\\x82\\xa8/1.sol\":2171:2194  tokenOfUser[msg.sender] */\n      0xffffffffffffffffffffffffffffffffffffffff\n      and\n      0xffffffffffffffffffffffffffffffffffffffff\n      and\n      dup2\n      mstore\n      0x20\n      add\n      swap1\n      dup2\n      mstore\n      0x20\n      add\n      0x00\n      keccak256\n        /* \"shoot/2/\\xe5\\x8a\\xa8\\xe6\\x80\\x81\\xe6\\x95\\xb0\\xe6\\x8d\\xae\\xe7\\xb1\\xbb\\xe5\\x9e\\x8b\\xe7\\x9a\\x84\\xe5\\xad\\x98\\xe5\\x82\\xa8/1.sol\":2171:2200  tokenOfUser[msg.sender].index */\n      0x02\n      add\n      sload\n        /* \"shoot/2/\\xe5\\x8a\\xa8\\xe6\\x80\\x81\\xe6\\x95\\xb0\\xe6\\x8d\\xae\\xe7\\xb1\\xbb\\xe5\\x9e\\x8b\\xe7\\x9a\\x84\\xe5\\xad\\x98\\xe5\\x82\\xa8/1.sol\":2164:2201  tokens[tokenOfUser[msg.sender].index] */\n      dup2\n      sload\n      dup2\n      lt\n      tag_87\n      jumpi\n      tag_88\n      tag_51\n      jump\t// in\n    tag_88:\n    tag_87:\n      swap1\n      0x00\n      mstore\n      keccak256(0x00, 0x20)\n      swap1\n      0x03\n      mul\n      add\n        /* \"shoot/2/\\xe5\\x8a\\xa8\\xe6\\x80\\x81\\xe6\\x95\\xb0\\xe6\\x8d\\xae\\xe7\\xb1\\xbb\\xe5\\x9e\\x8b\\xe7\\x9a\\x84\\xe5\\xad\\x98\\xe5\\x82\\xa8/1.sol\":2164:2209  tokens[tokenOfUser[msg.sender].index] = token */\n      0x00\n      dup3\n      add\n      mload\n      dup2\n      0x00\n      add\n      exp(0x0100, 0x00)\n      dup2\n      sload\n      dup2\n      0xffffffffffffffffffffffffffffffffffffffff\n      mul\n      not\n      and\n      swap1\n      dup4\n      0xffffffffffffffffffffffffffffffffffffffff\n      and\n      mul\n      or\n      swap1\n      sstore\n      pop\n      0x20\n      dup3\n      add\n      mload\n      dup2\n      0x01\n      add\n      sstore\n      0x40\n      dup3\n      add\n      mload\n      dup2\n      0x02\n      add\n      sstore\n      swap1\n      pop\n      pop\n        /* \"shoot/2/\\xe5\\x8a\\xa8\\xe6\\x80\\x81\\xe6\\x95\\xb0\\xe6\\x8d\\xae\\xe7\\xb1\\xbb\\xe5\\x9e\\x8b\\xe7\\x9a\\x84\\xe5\\xad\\x98\\xe5\\x82\\xa8/1.sol\":1979:2221  {... */\n      pop\n        /* \"shoot/2/\\xe5\\x8a\\xa8\\xe6\\x80\\x81\\xe6\\x95\\xb0\\xe6\\x8d\\xae\\xe7\\xb1\\xbb\\xe5\\x9e\\x8b\\xe7\\x9a\\x84\\xe5\\xad\\x98\\xe5\\x82\\xa8/1.sol\":1772:2221  if(tokenOfUser[msg.sender].addr==address(0)){... */\n    tag_86:\n        /* \"shoot/2/\\xe5\\x8a\\xa8\\xe6\\x80\\x81\\xe6\\x95\\xb0\\xe6\\x8d\\xae\\xe7\\xb1\\xbb\\xe5\\x9e\\x8b\\xe7\\x9a\\x84\\xe5\\xad\\x98\\xe5\\x82\\xa8/1.sol\":1653:2228  function addToken(address _token,uint256 _value)public{... */\n      pop\n      pop\n      jump\t// out\n        /* \"shoot/2/\\xe5\\x8a\\xa8\\xe6\\x80\\x81\\xe6\\x95\\xb0\\xe6\\x8d\\xae\\xe7\\xb1\\xbb\\xe5\\x9e\\x8b\\xe7\\x9a\\x84\\xe5\\xad\\x98\\xe5\\x82\\xa8/1.sol\":882:925  mapping(address => Token)public tokenOfUser */\n    tag_38:\n      mstore(0x20, 0x01)\n      dup1\n      0x00\n      mstore\n      keccak256(0x00, 0x40)\n      0x00\n      swap2\n      pop\n      swap1\n      pop\n      dup1\n      0x00\n      add\n      0x00\n      swap1\n      sload\n      swap1\n      0x0100\n      exp\n      swap1\n      div\n      0xffffffffffffffffffffffffffffffffffffffff\n      and\n      swap1\n      dup1\n      0x01\n      add\n      sload\n      swap1\n      dup1\n      0x02\n      add\n      sload\n      swap1\n      pop\n      dup4\n      jump\t// out\n        /* \"shoot/2/\\xe5\\x8a\\xa8\\xe6\\x80\\x81\\xe6\\x95\\xb0\\xe6\\x8d\\xae\\xe7\\xb1\\xbb\\xe5\\x9e\\x8b\\xe7\\x9a\\x84\\xe5\\xad\\x98\\xe5\\x82\\xa8/1.sol\":932:952  uint256 public score */\n    tag_41:\n      sload(0x02)\n      dup2\n      jump\t// out\n        /* \"shoot/2/\\xe5\\x8a\\xa8\\xe6\\x80\\x81\\xe6\\x95\\xb0\\xe6\\x8d\\xae\\xe7\\xb1\\xbb\\xe5\\x9e\\x8b\\xe7\\x9a\\x84\\xe5\\xad\\x98\\xe5\\x82\\xa8/1.sol\":2586:2935  function isCompleted(bytes32 slotArray,bytes32 slotMap,uint256 index,address _addr)public{... */\n    tag_47:\n        /* \"shoot/2/\\xe5\\x8a\\xa8\\xe6\\x80\\x81\\xe6\\x95\\xb0\\xe6\\x8d\\xae\\xe7\\xb1\\xbb\\xe5\\x9e\\x8b\\xe7\\x9a\\x84\\xe5\\xad\\x98\\xe5\\x82\\xa8/1.sol\":2692:2693  0 */\n      0x00\n        /* \"shoot/2/\\xe5\\x8a\\xa8\\xe6\\x80\\x81\\xe6\\x95\\xb0\\xe6\\x8d\\xae\\xe7\\xb1\\xbb\\xe5\\x9e\\x8b\\xe7\\x9a\\x84\\xe5\\xad\\x98\\xe5\\x82\\xa8/1.sol\":2686:2691  score */\n      0x02\n        /* \"shoot/2/\\xe5\\x8a\\xa8\\xe6\\x80\\x81\\xe6\\x95\\xb0\\xe6\\x8d\\xae\\xe7\\xb1\\xbb\\xe5\\x9e\\x8b\\xe7\\x9a\\x84\\xe5\\xad\\x98\\xe5\\x82\\xa8/1.sol\":2686:2693  score=0 */\n      dup2\n      swap1\n      sstore\n      pop\n        /* \"shoot/2/\\xe5\\x8a\\xa8\\xe6\\x80\\x81\\xe6\\x95\\xb0\\xe6\\x8d\\xae\\xe7\\xb1\\xbb\\xe5\\x9e\\x8b\\xe7\\x9a\\x84\\xe5\\xad\\x98\\xe5\\x82\\xa8/1.sol\":2723:2724  2 */\n      0x02\n        /* \"shoot/2/\\xe5\\x8a\\xa8\\xe6\\x80\\x81\\xe6\\x95\\xb0\\xe6\\x8d\\xae\\xe7\\xb1\\xbb\\xe5\\x9e\\x8b\\xe7\\x9a\\x84\\xe5\\xad\\x98\\xe5\\x82\\xa8/1.sol\":2708:2714  tokens */\n      0x00\n        /* \"shoot/2/\\xe5\\x8a\\xa8\\xe6\\x80\\x81\\xe6\\x95\\xb0\\xe6\\x8d\\xae\\xe7\\xb1\\xbb\\xe5\\x9e\\x8b\\xe7\\x9a\\x84\\xe5\\xad\\x98\\xe5\\x82\\xa8/1.sol\":2708:2721  tokens.length */\n      dup1\n      sload\n      swap1\n      pop\n        /* \"shoot/2/\\xe5\\x8a\\xa8\\xe6\\x80\\x81\\xe6\\x95\\xb0\\xe6\\x8d\\xae\\xe7\\xb1\\xbb\\xe5\\x9e\\x8b\\xe7\\x9a\\x84\\xe5\\xad\\x98\\xe5\\x82\\xa8/1.sol\":2708:2724  tokens.length>=2 */\n      lt\n        /* \"shoot/2/\\xe5\\x8a\\xa8\\xe6\\x80\\x81\\xe6\\x95\\xb0\\xe6\\x8d\\xae\\xe7\\xb1\\xbb\\xe5\\x9e\\x8b\\xe7\\x9a\\x84\\xe5\\xad\\x98\\xe5\\x82\\xa8/1.sol\":2704:2761  if (tokens.length>=2){... */\n      tag_91\n      jumpi\n        /* \"shoot/2/\\xe5\\x8a\\xa8\\xe6\\x80\\x81\\xe6\\x95\\xb0\\xe6\\x8d\\xae\\xe7\\xb1\\xbb\\xe5\\x9e\\x8b\\xe7\\x9a\\x84\\xe5\\xad\\x98\\xe5\\x82\\xa8/1.sol\":2747:2749  25 */\n      0x19\n        /* \"shoot/2/\\xe5\\x8a\\xa8\\xe6\\x80\\x81\\xe6\\x95\\xb0\\xe6\\x8d\\xae\\xe7\\xb1\\xbb\\xe5\\x9e\\x8b\\xe7\\x9a\\x84\\xe5\\xad\\x98\\xe5\\x82\\xa8/1.sol\":2740:2745  score */\n      0x02\n      0x00\n        /* \"shoot/2/\\xe5\\x8a\\xa8\\xe6\\x80\\x81\\xe6\\x95\\xb0\\xe6\\x8d\\xae\\xe7\\xb1\\xbb\\xe5\\x9e\\x8b\\xe7\\x9a\\x84\\xe5\\xad\\x98\\xe5\\x82\\xa8/1.sol\":2740:2749  score+=25 */\n      dup3\n      dup3\n      sload\n      tag_92\n      swap2\n      swap1\n      tag_93\n      jump\t// in\n    tag_92:\n      swap3\n      pop\n      pop\n      dup2\n      swap1\n      sstore\n      pop\n        /* \"shoot/2/\\xe5\\x8a\\xa8\\xe6\\x80\\x81\\xe6\\x95\\xb0\\xe6\\x8d\\xae\\xe7\\xb1\\xbb\\xe5\\x9e\\x8b\\xe7\\x9a\\x84\\xe5\\xad\\x98\\xe5\\x82\\xa8/1.sol\":2704:2761  if (tokens.length>=2){... */\n    tag_91:\n        /* \"shoot/2/\\xe5\\x8a\\xa8\\xe6\\x80\\x81\\xe6\\x95\\xb0\\xe6\\x8d\\xae\\xe7\\xb1\\xbb\\xe5\\x9e\\x8b\\xe7\\x9a\\x84\\xe5\\xad\\x98\\xe5\\x82\\xa8/1.sol\":2774:2806  checkTokensSlot(slotArray,index) */\n      tag_94\n        /* \"shoot/2/\\xe5\\x8a\\xa8\\xe6\\x80\\x81\\xe6\\x95\\xb0\\xe6\\x8d\\xae\\xe7\\xb1\\xbb\\xe5\\x9e\\x8b\\xe7\\x9a\\x84\\xe5\\xad\\x98\\xe5\\x82\\xa8/1.sol\":2790:2799  slotArray */\n      dup5\n        /* \"shoot/2/\\xe5\\x8a\\xa8\\xe6\\x80\\x81\\xe6\\x95\\xb0\\xe6\\x8d\\xae\\xe7\\xb1\\xbb\\xe5\\x9e\\x8b\\xe7\\x9a\\x84\\xe5\\xad\\x98\\xe5\\x82\\xa8/1.sol\":2800:2805  index */\n      dup4\n        /* \"shoot/2/\\xe5\\x8a\\xa8\\xe6\\x80\\x81\\xe6\\x95\\xb0\\xe6\\x8d\\xae\\xe7\\xb1\\xbb\\xe5\\x9e\\x8b\\xe7\\x9a\\x84\\xe5\\xad\\x98\\xe5\\x82\\xa8/1.sol\":2774:2789  checkTokensSlot */\n      tag_15\n        /* \"shoot/2/\\xe5\\x8a\\xa8\\xe6\\x80\\x81\\xe6\\x95\\xb0\\xe6\\x8d\\xae\\xe7\\xb1\\xbb\\xe5\\x9e\\x8b\\xe7\\x9a\\x84\\xe5\\xad\\x98\\xe5\\x82\\xa8/1.sol\":2774:2806  checkTokensSlot(slotArray,index) */\n      jump\t// in\n    tag_94:\n        /* \"shoot/2/\\xe5\\x8a\\xa8\\xe6\\x80\\x81\\xe6\\x95\\xb0\\xe6\\x8d\\xae\\xe7\\xb1\\xbb\\xe5\\x9e\\x8b\\xe7\\x9a\\x84\\xe5\\xad\\x98\\xe5\\x82\\xa8/1.sol\":2771:2843  if(checkTokensSlot(slotArray,index)){... */\n      iszero\n      tag_95\n      jumpi\n        /* \"shoot/2/\\xe5\\x8a\\xa8\\xe6\\x80\\x81\\xe6\\x95\\xb0\\xe6\\x8d\\xae\\xe7\\xb1\\xbb\\xe5\\x9e\\x8b\\xe7\\x9a\\x84\\xe5\\xad\\x98\\xe5\\x82\\xa8/1.sol\":2829:2831  25 */\n      0x19\n        /* \"shoot/2/\\xe5\\x8a\\xa8\\xe6\\x80\\x81\\xe6\\x95\\xb0\\xe6\\x8d\\xae\\xe7\\xb1\\xbb\\xe5\\x9e\\x8b\\xe7\\x9a\\x84\\xe5\\xad\\x98\\xe5\\x82\\xa8/1.sol\":2822:2827  score */\n      0x02\n      0x00\n        /* \"shoot/2/\\xe5\\x8a\\xa8\\xe6\\x80\\x81\\xe6\\x95\\xb0\\xe6\\x8d\\xae\\xe7\\xb1\\xbb\\xe5\\x9e\\x8b\\xe7\\x9a\\x84\\xe5\\xad\\x98\\xe5\\x82\\xa8/1.sol\":2822:2831  score+=25 */\n      dup3\n      dup3\n      sload\n      tag_96\n      swap2\n      swap1\n      tag_93\n      jump\t// in\n    tag_96:\n      swap3\n      pop\n      pop\n      dup2\n      swap1\n      sstore\n      pop\n        /* \"shoot/2/\\xe5\\x8a\\xa8\\xe6\\x80\\x81\\xe6\\x95\\xb0\\xe6\\x8d\\xae\\xe7\\xb1\\xbb\\xe5\\x9e\\x8b\\xe7\\x9a\\x84\\xe5\\xad\\x98\\xe5\\x82\\xa8/1.sol\":2771:2843  if(checkTokensSlot(slotArray,index)){... */\n    tag_95:\n        /* \"shoot/2/\\xe5\\x8a\\xa8\\xe6\\x80\\x81\\xe6\\x95\\xb0\\xe6\\x8d\\xae\\xe7\\xb1\\xbb\\xe5\\x9e\\x8b\\xe7\\x9a\\x84\\xe5\\xad\\x98\\xe5\\x82\\xa8/1.sol\":2856:2891  checkTokenOfUserSlot(slotMap,_addr) */\n      tag_97\n        /* \"shoot/2/\\xe5\\x8a\\xa8\\xe6\\x80\\x81\\xe6\\x95\\xb0\\xe6\\x8d\\xae\\xe7\\xb1\\xbb\\xe5\\x9e\\x8b\\xe7\\x9a\\x84\\xe5\\xad\\x98\\xe5\\x82\\xa8/1.sol\":2877:2884  slotMap */\n      dup4\n        /* \"shoot/2/\\xe5\\x8a\\xa8\\xe6\\x80\\x81\\xe6\\x95\\xb0\\xe6\\x8d\\xae\\xe7\\xb1\\xbb\\xe5\\x9e\\x8b\\xe7\\x9a\\x84\\xe5\\xad\\x98\\xe5\\x82\\xa8/1.sol\":2885:2890  _addr */\n      dup3\n        /* \"shoot/2/\\xe5\\x8a\\xa8\\xe6\\x80\\x81\\xe6\\x95\\xb0\\xe6\\x8d\\xae\\xe7\\xb1\\xbb\\xe5\\x9e\\x8b\\xe7\\x9a\\x84\\xe5\\xad\\x98\\xe5\\x82\\xa8/1.sol\":2856:2876  checkTokenOfUserSlot */\n      tag_29\n        /* \"shoot/2/\\xe5\\x8a\\xa8\\xe6\\x80\\x81\\xe6\\x95\\xb0\\xe6\\x8d\\xae\\xe7\\xb1\\xbb\\xe5\\x9e\\x8b\\xe7\\x9a\\x84\\xe5\\xad\\x98\\xe5\\x82\\xa8/1.sol\":2856:2891  checkTokenOfUserSlot(slotMap,_addr) */\n      jump\t// in\n    tag_97:\n        /* \"shoot/2/\\xe5\\x8a\\xa8\\xe6\\x80\\x81\\xe6\\x95\\xb0\\xe6\\x8d\\xae\\xe7\\xb1\\xbb\\xe5\\x9e\\x8b\\xe7\\x9a\\x84\\xe5\\xad\\x98\\xe5\\x82\\xa8/1.sol\":2853:2928  if(checkTokenOfUserSlot(slotMap,_addr)){... */\n      iszero\n      tag_98\n      jumpi\n        /* \"shoot/2/\\xe5\\x8a\\xa8\\xe6\\x80\\x81\\xe6\\x95\\xb0\\xe6\\x8d\\xae\\xe7\\xb1\\xbb\\xe5\\x9e\\x8b\\xe7\\x9a\\x84\\xe5\\xad\\x98\\xe5\\x82\\xa8/1.sol\":2914:2916  50 */\n      0x32\n        /* \"shoot/2/\\xe5\\x8a\\xa8\\xe6\\x80\\x81\\xe6\\x95\\xb0\\xe6\\x8d\\xae\\xe7\\xb1\\xbb\\xe5\\x9e\\x8b\\xe7\\x9a\\x84\\xe5\\xad\\x98\\xe5\\x82\\xa8/1.sol\":2907:2912  score */\n      0x02\n      0x00\n        /* \"shoot/2/\\xe5\\x8a\\xa8\\xe6\\x80\\x81\\xe6\\x95\\xb0\\xe6\\x8d\\xae\\xe7\\xb1\\xbb\\xe5\\x9e\\x8b\\xe7\\x9a\\x84\\xe5\\xad\\x98\\xe5\\x82\\xa8/1.sol\":2907:2916  score+=50 */\n      dup3\n      dup3\n      sload\n      tag_99\n      swap2\n      swap1\n      tag_93\n      jump\t// in\n    tag_99:\n      swap3\n      pop\n      pop\n      dup2\n      swap1\n      sstore\n      pop\n        /* \"shoot/2/\\xe5\\x8a\\xa8\\xe6\\x80\\x81\\xe6\\x95\\xb0\\xe6\\x8d\\xae\\xe7\\xb1\\xbb\\xe5\\x9e\\x8b\\xe7\\x9a\\x84\\xe5\\xad\\x98\\xe5\\x82\\xa8/1.sol\":2853:2928  if(checkTokenOfUserSlot(slotMap,_addr)){... */\n    tag_98:\n        /* \"shoot/2/\\xe5\\x8a\\xa8\\xe6\\x80\\x81\\xe6\\x95\\xb0\\xe6\\x8d\\xae\\xe7\\xb1\\xbb\\xe5\\x9e\\x8b\\xe7\\x9a\\x84\\xe5\\xad\\x98\\xe5\\x82\\xa8/1.sol\":2586:2935  function isCompleted(bytes32 slotArray,bytes32 slotMap,uint256 index,address _addr)public{... */\n      pop\n      pop\n      pop\n      pop\n      jump\t// out\n        /* \"#utility.yul\":88:205   */\n    tag_101:\n        /* \"#utility.yul\":197:198   */\n      0x00\n        /* \"#utility.yul\":194:195   */\n      dup1\n        /* \"#utility.yul\":187:199   */\n      revert\n        /* \"#utility.yul\":334:411   */\n    tag_103:\n        /* \"#utility.yul\":371:378   */\n      0x00\n        /* \"#utility.yul\":400:405   */\n      dup2\n        /* \"#utility.yul\":389:405   */\n      swap1\n      pop\n        /* \"#utility.yul\":334:411   */\n      swap2\n      swap1\n      pop\n      jump\t// out\n        /* \"#utility.yul\":417:539   */\n    tag_104:\n        /* \"#utility.yul\":490:514   */\n      tag_127\n        /* \"#utility.yul\":508:513   */\n      dup2\n        /* \"#utility.yul\":490:514   */\n      tag_103\n      jump\t// in\n    tag_127:\n        /* \"#utility.yul\":483:488   */\n      dup2\n        /* \"#utility.yul\":480:515   */\n      eq\n        /* \"#utility.yul\":470:533   */\n      tag_128\n      jumpi\n        /* \"#utility.yul\":529:530   */\n      0x00\n        /* \"#utility.yul\":526:527   */\n      dup1\n        /* \"#utility.yul\":519:531   */\n      revert\n        /* \"#utility.yul\":470:533   */\n    tag_128:\n        /* \"#utility.yul\":417:539   */\n      pop\n      jump\t// out\n        /* \"#utility.yul\":545:684   */\n    tag_105:\n        /* \"#utility.yul\":591:596   */\n      0x00\n        /* \"#utility.yul\":629:635   */\n      dup2\n        /* \"#utility.yul\":616:636   */\n      calldataload\n        /* \"#utility.yul\":607:636   */\n      swap1\n      pop\n        /* \"#utility.yul\":645:678   */\n      tag_130\n        /* \"#utility.yul\":672:677   */\n      dup2\n        /* \"#utility.yul\":645:678   */\n      tag_104\n      jump\t// in\n    tag_130:\n        /* \"#utility.yul\":545:684   */\n      swap3\n      swap2\n      pop\n      pop\n      jump\t// out\n        /* \"#utility.yul\":690:767   */\n    tag_106:\n        /* \"#utility.yul\":727:734   */\n      0x00\n        /* \"#utility.yul\":756:761   */\n      dup2\n        /* \"#utility.yul\":745:761   */\n      swap1\n      pop\n        /* \"#utility.yul\":690:767   */\n      swap2\n      swap1\n      pop\n      jump\t// out\n        /* \"#utility.yul\":773:895   */\n    tag_107:\n        /* \"#utility.yul\":846:870   */\n      tag_133\n        /* \"#utility.yul\":864:869   */\n      dup2\n        /* \"#utility.yul\":846:870   */\n      tag_106\n      jump\t// in\n    tag_133:\n        /* \"#utility.yul\":839:844   */\n      dup2\n        /* \"#utility.yul\":836:871   */\n      eq\n        /* \"#utility.yul\":826:889   */\n      tag_134\n      jumpi\n        /* \"#utility.yul\":885:886   */\n      0x00\n        /* \"#utility.yul\":882:883   */\n      dup1\n        /* \"#utility.yul\":875:887   */\n      revert\n        /* \"#utility.yul\":826:889   */\n    tag_134:\n        /* \"#utility.yul\":773:895   */\n      pop\n      jump\t// out\n        /* \"#utility.yul\":901:1040   */\n    tag_108:\n        /* \"#utility.yul\":947:952   */\n      0x00\n        /* \"#utility.yul\":985:991   */\n      dup2\n        /* \"#utility.yul\":972:992   */\n      calldataload\n        /* \"#utility.yul\":963:992   */\n      swap1\n      pop\n        /* \"#utility.yul\":1001:1034   */\n      tag_136\n        /* \"#utility.yul\":1028:1033   */\n      dup2\n        /* \"#utility.yul\":1001:1034   */\n      tag_107\n      jump\t// in\n    tag_136:\n        /* \"#utility.yul\":901:1040   */\n      swap3\n      swap2\n      pop\n      pop\n      jump\t// out\n        /* \"#utility.yul\":1046:1520   */\n    tag_14:\n        /* \"#utility.yul\":1114:1120   */\n      0x00\n        /* \"#utility.yul\":1122:1128   */\n      dup1\n        /* \"#utility.yul\":1171:1173   */\n      0x40\n        /* \"#utility.yul\":1159:1168   */\n      dup4\n        /* \"#utility.yul\":1150:1157   */\n      dup6\n        /* \"#utility.yul\":1146:1169   */\n      sub\n        /* \"#utility.yul\":1142:1174   */\n      slt\n        /* \"#utility.yul\":1139:1258   */\n      iszero\n      tag_138\n      jumpi\n        /* \"#utility.yul\":1177:1256   */\n      tag_139\n      tag_101\n      jump\t// in\n    tag_139:\n        /* \"#utility.yul\":1139:1258   */\n    tag_138:\n        /* \"#utility.yul\":1297:1298   */\n      0x00\n        /* \"#utility.yul\":1322:1375   */\n      tag_140\n        /* \"#utility.yul\":1367:1374   */\n      dup6\n        /* \"#utility.yul\":1358:1364   */\n      dup3\n        /* \"#utility.yul\":1347:1356   */\n      dup7\n        /* \"#utility.yul\":1343:1365   */\n      add\n        /* \"#utility.yul\":1322:1375   */\n      tag_105\n      jump\t// in\n    tag_140:\n        /* \"#utility.yul\":1312:1375   */\n      swap3\n      pop\n        /* \"#utility.yul\":1268:1385   */\n      pop\n        /* \"#utility.yul\":1424:1426   */\n      0x20\n        /* \"#utility.yul\":1450:1503   */\n      tag_141\n        /* \"#utility.yul\":1495:1502   */\n      dup6\n        /* \"#utility.yul\":1486:1492   */\n      dup3\n        /* \"#utility.yul\":1475:1484   */\n      dup7\n        /* \"#utility.yul\":1471:1493   */\n      add\n        /* \"#utility.yul\":1450:1503   */\n      tag_108\n      jump\t// in\n    tag_141:\n        /* \"#utility.yul\":1440:1503   */\n      swap2\n      pop\n        /* \"#utility.yul\":1395:1513   */\n      pop\n        /* \"#utility.yul\":1046:1520   */\n      swap3\n      pop\n      swap3\n      swap1\n      pop\n      jump\t// out\n        /* \"#utility.yul\":1526:1616   */\n    tag_109:\n        /* \"#utility.yul\":1560:1567   */\n      0x00\n        /* \"#utility.yul\":1603:1608   */\n      dup2\n        /* \"#utility.yul\":1596:1609   */\n      iszero\n        /* \"#utility.yul\":1589:1610   */\n      iszero\n        /* \"#utility.yul\":1578:1610   */\n      swap1\n      pop\n        /* \"#utility.yul\":1526:1616   */\n      swap2\n      swap1\n      pop\n      jump\t// out\n        /* \"#utility.yul\":1622:1731   */\n    tag_110:\n        /* \"#utility.yul\":1703:1724   */\n      tag_144\n        /* \"#utility.yul\":1718:1723   */\n      dup2\n        /* \"#utility.yul\":1703:1724   */\n      tag_109\n      jump\t// in\n    tag_144:\n        /* \"#utility.yul\":1698:1701   */\n      dup3\n        /* \"#utility.yul\":1691:1725   */\n      mstore\n        /* \"#utility.yul\":1622:1731   */\n      pop\n      pop\n      jump\t// out\n        /* \"#utility.yul\":1737:1947   */\n    tag_17:\n        /* \"#utility.yul\":1824:1828   */\n      0x00\n        /* \"#utility.yul\":1862:1864   */\n      0x20\n        /* \"#utility.yul\":1851:1860   */\n      dup3\n        /* \"#utility.yul\":1847:1865   */\n      add\n        /* \"#utility.yul\":1839:1865   */\n      swap1\n      pop\n        /* \"#utility.yul\":1875:1940   */\n      tag_146\n        /* \"#utility.yul\":1937:1938   */\n      0x00\n        /* \"#utility.yul\":1926:1935   */\n      dup4\n        /* \"#utility.yul\":1922:1939   */\n      add\n        /* \"#utility.yul\":1913:1919   */\n      dup5\n        /* \"#utility.yul\":1875:1940   */\n      tag_110\n      jump\t// in\n    tag_146:\n        /* \"#utility.yul\":1737:1947   */\n      swap3\n      swap2\n      pop\n      pop\n      jump\t// out\n        /* \"#utility.yul\":1953:2282   */\n    tag_22:\n        /* \"#utility.yul\":2012:2018   */\n      0x00\n        /* \"#utility.yul\":2061:2063   */\n      0x20\n        /* \"#utility.yul\":2049:2058   */\n      dup3\n        /* \"#utility.yul\":2040:2047   */\n      dup5\n        /* \"#utility.yul\":2036:2059   */\n      sub\n        /* \"#utility.yul\":2032:2064   */\n      slt\n        /* \"#utility.yul\":2029:2148   */\n      iszero\n      tag_148\n      jumpi\n        /* \"#utility.yul\":2067:2146   */\n      tag_149\n      tag_101\n      jump\t// in\n    tag_149:\n        /* \"#utility.yul\":2029:2148   */\n    tag_148:\n        /* \"#utility.yul\":2187:2188   */\n      0x00\n        /* \"#utility.yul\":2212:2265   */\n      tag_150\n        /* \"#utility.yul\":2257:2264   */\n      dup5\n        /* \"#utility.yul\":2248:2254   */\n      dup3\n        /* \"#utility.yul\":2237:2246   */\n      dup6\n        /* \"#utility.yul\":2233:2255   */\n      add\n        /* \"#utility.yul\":2212:2265   */\n      tag_108\n      jump\t// in\n    tag_150:\n        /* \"#utility.yul\":2202:2265   */\n      swap2\n      pop\n        /* \"#utility.yul\":2158:2275   */\n      pop\n        /* \"#utility.yul\":1953:2282   */\n      swap3\n      swap2\n      pop\n      pop\n      jump\t// out\n        /* \"#utility.yul\":2288:2414   */\n    tag_111:\n        /* \"#utility.yul\":2325:2332   */\n      0x00\n        /* \"#utility.yul\":2365:2407   */\n      0xffffffffffffffffffffffffffffffffffffffff\n        /* \"#utility.yul\":2358:2363   */\n      dup3\n        /* \"#utility.yul\":2354:2408   */\n      and\n        /* \"#utility.yul\":2343:2408   */\n      swap1\n      pop\n        /* \"#utility.yul\":2288:2414   */\n      swap2\n      swap1\n      pop\n      jump\t// out\n        /* \"#utility.yul\":2420:2516   */\n    tag_112:\n        /* \"#utility.yul\":2457:2464   */\n      0x00\n        /* \"#utility.yul\":2486:2510   */\n      tag_153\n        /* \"#utility.yul\":2504:2509   */\n      dup3\n        /* \"#utility.yul\":2486:2510   */\n      tag_111\n      jump\t// in\n    tag_153:\n        /* \"#utility.yul\":2475:2510   */\n      swap1\n      pop\n        /* \"#utility.yul\":2420:2516   */\n      swap2\n      swap1\n      pop\n      jump\t// out\n        /* \"#utility.yul\":2522:2640   */\n    tag_113:\n        /* \"#utility.yul\":2609:2633   */\n      tag_155\n        /* \"#utility.yul\":2627:2632   */\n      dup2\n        /* \"#utility.yul\":2609:2633   */\n      tag_112\n      jump\t// in\n    tag_155:\n        /* \"#utility.yul\":2604:2607   */\n      dup3\n        /* \"#utility.yul\":2597:2634   */\n      mstore\n        /* \"#utility.yul\":2522:2640   */\n      pop\n      pop\n      jump\t// out\n        /* \"#utility.yul\":2646:2764   */\n    tag_114:\n        /* \"#utility.yul\":2733:2757   */\n      tag_157\n        /* \"#utility.yul\":2751:2756   */\n      dup2\n        /* \"#utility.yul\":2733:2757   */\n      tag_106\n      jump\t// in\n    tag_157:\n        /* \"#utility.yul\":2728:2731   */\n      dup3\n        /* \"#utility.yul\":2721:2758   */\n      mstore\n        /* \"#utility.yul\":2646:2764   */\n      pop\n      pop\n      jump\t// out\n        /* \"#utility.yul\":2770:3212   */\n    tag_25:\n        /* \"#utility.yul\":2919:2923   */\n      0x00\n        /* \"#utility.yul\":2957:2959   */\n      0x60\n        /* \"#utility.yul\":2946:2955   */\n      dup3\n        /* \"#utility.yul\":2942:2960   */\n      add\n        /* \"#utility.yul\":2934:2960   */\n      swap1\n      pop\n        /* \"#utility.yul\":2970:3041   */\n      tag_159\n        /* \"#utility.yul\":3038:3039   */\n      0x00\n        /* \"#utility.yul\":3027:3036   */\n      dup4\n        /* \"#utility.yul\":3023:3040   */\n      add\n        /* \"#utility.yul\":3014:3020   */\n      dup7\n        /* \"#utility.yul\":2970:3041   */\n      tag_113\n      jump\t// in\n    tag_159:\n        /* \"#utility.yul\":3051:3123   */\n      tag_160\n        /* \"#utility.yul\":3119:3121   */\n      0x20\n        /* \"#utility.yul\":3108:3117   */\n      dup4\n        /* \"#utility.yul\":3104:3122   */\n      add\n        /* \"#utility.yul\":3095:3101   */\n      dup6\n        /* \"#utility.yul\":3051:3123   */\n      tag_114\n      jump\t// in\n    tag_160:\n        /* \"#utility.yul\":3133:3205   */\n      tag_161\n        /* \"#utility.yul\":3201:3203   */\n      0x40\n        /* \"#utility.yul\":3190:3199   */\n      dup4\n        /* \"#utility.yul\":3186:3204   */\n      add\n        /* \"#utility.yul\":3177:3183   */\n      dup5\n        /* \"#utility.yul\":3133:3205   */\n      tag_114\n      jump\t// in\n    tag_161:\n        /* \"#utility.yul\":2770:3212   */\n      swap5\n      swap4\n      pop\n      pop\n      pop\n      pop\n      jump\t// out\n        /* \"#utility.yul\":3218:3340   */\n    tag_115:\n        /* \"#utility.yul\":3291:3315   */\n      tag_163\n        /* \"#utility.yul\":3309:3314   */\n      dup2\n        /* \"#utility.yul\":3291:3315   */\n      tag_112\n      jump\t// in\n    tag_163:\n        /* \"#utility.yul\":3284:3289   */\n      dup2\n        /* \"#utility.yul\":3281:3316   */\n      eq\n        /* \"#utility.yul\":3271:3334   */\n      tag_164\n      jumpi\n        /* \"#utility.yul\":3330:3331   */\n      0x00\n        /* \"#utility.yul\":3327:3328   */\n      dup1\n        /* \"#utility.yul\":3320:3332   */\n      revert\n        /* \"#utility.yul\":3271:3334   */\n    tag_164:\n        /* \"#utility.yul\":3218:3340   */\n      pop\n      jump\t// out\n        /* \"#utility.yul\":3346:3485   */\n    tag_116:\n        /* \"#utility.yul\":3392:3397   */\n      0x00\n        /* \"#utility.yul\":3430:3436   */\n      dup2\n        /* \"#utility.yul\":3417:3437   */\n      calldataload\n        /* \"#utility.yul\":3408:3437   */\n      swap1\n      pop\n        /* \"#utility.yul\":3446:3479   */\n      tag_166\n        /* \"#utility.yul\":3473:3478   */\n      dup2\n        /* \"#utility.yul\":3446:3479   */\n      tag_115\n      jump\t// in\n    tag_166:\n        /* \"#utility.yul\":3346:3485   */\n      swap3\n      swap2\n      pop\n      pop\n      jump\t// out\n        /* \"#utility.yul\":3491:3965   */\n    tag_28:\n        /* \"#utility.yul\":3559:3565   */\n      0x00\n        /* \"#utility.yul\":3567:3573   */\n      dup1\n        /* \"#utility.yul\":3616:3618   */\n      0x40\n        /* \"#utility.yul\":3604:3613   */\n      dup4\n        /* \"#utility.yul\":3595:3602   */\n      dup6\n        /* \"#utility.yul\":3591:3614   */\n      sub\n        /* \"#utility.yul\":3587:3619   */\n      slt\n        /* \"#utility.yul\":3584:3703   */\n      iszero\n      tag_168\n      jumpi\n        /* \"#utility.yul\":3622:3701   */\n      tag_169\n      tag_101\n      jump\t// in\n    tag_169:\n        /* \"#utility.yul\":3584:3703   */\n    tag_168:\n        /* \"#utility.yul\":3742:3743   */\n      0x00\n        /* \"#utility.yul\":3767:3820   */\n      tag_170\n        /* \"#utility.yul\":3812:3819   */\n      dup6\n        /* \"#utility.yul\":3803:3809   */\n      dup3\n        /* \"#utility.yul\":3792:3801   */\n      dup7\n        /* \"#utility.yul\":3788:3810   */\n      add\n        /* \"#utility.yul\":3767:3820   */\n      tag_105\n      jump\t// in\n    tag_170:\n        /* \"#utility.yul\":3757:3820   */\n      swap3\n      pop\n        /* \"#utility.yul\":3713:3830   */\n      pop\n        /* \"#utility.yul\":3869:3871   */\n      0x20\n        /* \"#utility.yul\":3895:3948   */\n      tag_171\n        /* \"#utility.yul\":3940:3947   */\n      dup6\n        /* \"#utility.yul\":3931:3937   */\n      dup3\n        /* \"#utility.yul\":3920:3929   */\n      dup7\n        /* \"#utility.yul\":3916:3938   */\n      add\n        /* \"#utility.yul\":3895:3948   */\n      tag_116\n      jump\t// in\n    tag_171:\n        /* \"#utility.yul\":3885:3948   */\n      swap2\n      pop\n        /* \"#utility.yul\":3840:3958   */\n      pop\n        /* \"#utility.yul\":3491:3965   */\n      swap3\n      pop\n      swap3\n      swap1\n      pop\n      jump\t// out\n        /* \"#utility.yul\":3971:4445   */\n    tag_33:\n        /* \"#utility.yul\":4039:4045   */\n      0x00\n        /* \"#utility.yul\":4047:4053   */\n      dup1\n        /* \"#utility.yul\":4096:4098   */\n      0x40\n        /* \"#utility.yul\":4084:4093   */\n      dup4\n        /* \"#utility.yul\":4075:4082   */\n      dup6\n        /* \"#utility.yul\":4071:4094   */\n      sub\n        /* \"#utility.yul\":4067:4099   */\n      slt\n        /* \"#utility.yul\":4064:4183   */\n      iszero\n      tag_173\n      jumpi\n        /* \"#utility.yul\":4102:4181   */\n      tag_174\n      tag_101\n      jump\t// in\n    tag_174:\n        /* \"#utility.yul\":4064:4183   */\n    tag_173:\n        /* \"#utility.yul\":4222:4223   */\n      0x00\n        /* \"#utility.yul\":4247:4300   */\n      tag_175\n        /* \"#utility.yul\":4292:4299   */\n      dup6\n        /* \"#utility.yul\":4283:4289   */\n      dup3\n        /* \"#utility.yul\":4272:4281   */\n      dup7\n        /* \"#utility.yul\":4268:4290   */\n      add\n        /* \"#utility.yul\":4247:4300   */\n      tag_116\n      jump\t// in\n    tag_175:\n        /* \"#utility.yul\":4237:4300   */\n      swap3\n      pop\n        /* \"#utility.yul\":4193:4310   */\n      pop\n        /* \"#utility.yul\":4349:4351   */\n      0x20\n        /* \"#utility.yul\":4375:4428   */\n      tag_176\n        /* \"#utility.yul\":4420:4427   */\n      dup6\n        /* \"#utility.yul\":4411:4417   */\n      dup3\n        /* \"#utility.yul\":4400:4409   */\n      dup7\n        /* \"#utility.yul\":4396:4418   */\n      add\n        /* \"#utility.yul\":4375:4428   */\n      tag_108\n      jump\t// in\n    tag_176:\n        /* \"#utility.yul\":4365:4428   */\n      swap2\n      pop\n        /* \"#utility.yul\":4320:4438   */\n      pop\n        /* \"#utility.yul\":3971:4445   */\n      swap3\n      pop\n      swap3\n      swap1\n      pop\n      jump\t// out\n        /* \"#utility.yul\":4451:4780   */\n    tag_37:\n        /* \"#utility.yul\":4510:4516   */\n      0x00\n        /* \"#utility.yul\":4559:4561   */\n      0x20\n        /* \"#utility.yul\":4547:4556   */\n      dup3\n        /* \"#utility.yul\":4538:4545   */\n      dup5\n        /* \"#utility.yul\":4534:4557   */\n      sub\n        /* \"#utility.yul\":4530:4562   */\n      slt\n        /* \"#utility.yul\":4527:4646   */\n      iszero\n      tag_178\n      jumpi\n        /* \"#utility.yul\":4565:4644   */\n      tag_179\n      tag_101\n      jump\t// in\n    tag_179:\n        /* \"#utility.yul\":4527:4646   */\n    tag_178:\n        /* \"#utility.yul\":4685:4686   */\n      0x00\n        /* \"#utility.yul\":4710:4763   */\n      tag_180\n        /* \"#utility.yul\":4755:4762   */\n      dup5\n        /* \"#utility.yul\":4746:4752   */\n      dup3\n        /* \"#utility.yul\":4735:4744   */\n      dup6\n        /* \"#utility.yul\":4731:4753   */\n      add\n        /* \"#utility.yul\":4710:4763   */\n      tag_116\n      jump\t// in\n    tag_180:\n        /* \"#utility.yul\":4700:4763   */\n      swap2\n      pop\n        /* \"#utility.yul\":4656:4773   */\n      pop\n        /* \"#utility.yul\":4451:4780   */\n      swap3\n      swap2\n      pop\n      pop\n      jump\t// out\n        /* \"#utility.yul\":4786:5008   */\n    tag_43:\n        /* \"#utility.yul\":4879:4883   */\n      0x00\n        /* \"#utility.yul\":4917:4919   */\n      0x20\n        /* \"#utility.yul\":4906:4915   */\n      dup3\n        /* \"#utility.yul\":4902:4920   */\n      add\n        /* \"#utility.yul\":4894:4920   */\n      swap1\n      pop\n        /* \"#utility.yul\":4930:5001   */\n      tag_182\n        /* \"#utility.yul\":4998:4999   */\n      0x00\n        /* \"#utility.yul\":4987:4996   */\n      dup4\n        /* \"#utility.yul\":4983:5000   */\n      add\n        /* \"#utility.yul\":4974:4980   */\n      dup5\n        /* \"#utility.yul\":4930:5001   */\n      tag_114\n      jump\t// in\n    tag_182:\n        /* \"#utility.yul\":4786:5008   */\n      swap3\n      swap2\n      pop\n      pop\n      jump\t// out\n        /* \"#utility.yul\":5014:5779   */\n    tag_46:\n        /* \"#utility.yul\":5100:5106   */\n      0x00\n        /* \"#utility.yul\":5108:5114   */\n      dup1\n        /* \"#utility.yul\":5116:5122   */\n      0x00\n        /* \"#utility.yul\":5124:5130   */\n      dup1\n        /* \"#utility.yul\":5173:5176   */\n      0x80\n        /* \"#utility.yul\":5161:5170   */\n      dup6\n        /* \"#utility.yul\":5152:5159   */\n      dup8\n        /* \"#utility.yul\":5148:5171   */\n      sub\n        /* \"#utility.yul\":5144:5177   */\n      slt\n        /* \"#utility.yul\":5141:5261   */\n      iszero\n      tag_184\n      jumpi\n        /* \"#utility.yul\":5180:5259   */\n      tag_185\n      tag_101\n      jump\t// in\n    tag_185:\n        /* \"#utility.yul\":5141:5261   */\n    tag_184:\n        /* \"#utility.yul\":5300:5301   */\n      0x00\n        /* \"#utility.yul\":5325:5378   */\n      tag_186\n        /* \"#utility.yul\":5370:5377   */\n      dup8\n        /* \"#utility.yul\":5361:5367   */\n      dup3\n        /* \"#utility.yul\":5350:5359   */\n      dup9\n        /* \"#utility.yul\":5346:5368   */\n      add\n        /* \"#utility.yul\":5325:5378   */\n      tag_105\n      jump\t// in\n    tag_186:\n        /* \"#utility.yul\":5315:5378   */\n      swap5\n      pop\n        /* \"#utility.yul\":5271:5388   */\n      pop\n        /* \"#utility.yul\":5427:5429   */\n      0x20\n        /* \"#utility.yul\":5453:5506   */\n      tag_187\n        /* \"#utility.yul\":5498:5505   */\n      dup8\n        /* \"#utility.yul\":5489:5495   */\n      dup3\n        /* \"#utility.yul\":5478:5487   */\n      dup9\n        /* \"#utility.yul\":5474:5496   */\n      add\n        /* \"#utility.yul\":5453:5506   */\n      tag_105\n      jump\t// in\n    tag_187:\n        /* \"#utility.yul\":5443:5506   */\n      swap4\n      pop\n        /* \"#utility.yul\":5398:5516   */\n      pop\n        /* \"#utility.yul\":5555:5557   */\n      0x40\n        /* \"#utility.yul\":5581:5634   */\n      tag_188\n        /* \"#utility.yul\":5626:5633   */\n      dup8\n        /* \"#utility.yul\":5617:5623   */\n      dup3\n        /* \"#utility.yul\":5606:5615   */\n      dup9\n        /* \"#utility.yul\":5602:5624   */\n      add\n        /* \"#utility.yul\":5581:5634   */\n      tag_108\n      jump\t// in\n    tag_188:\n        /* \"#utility.yul\":5571:5634   */\n      swap3\n      pop\n        /* \"#utility.yul\":5526:5644   */\n      pop\n        /* \"#utility.yul\":5683:5685   */\n      0x60\n        /* \"#utility.yul\":5709:5762   */\n      tag_189\n        /* \"#utility.yul\":5754:5761   */\n      dup8\n        /* \"#utility.yul\":5745:5751   */\n      dup3\n        /* \"#utility.yul\":5734:5743   */\n      dup9\n        /* \"#utility.yul\":5730:5752   */\n      add\n        /* \"#utility.yul\":5709:5762   */\n      tag_116\n      jump\t// in\n    tag_189:\n        /* \"#utility.yul\":5699:5762   */\n      swap2\n      pop\n        /* \"#utility.yul\":5654:5772   */\n      pop\n        /* \"#utility.yul\":5014:5779   */\n      swap3\n      swap6\n      swap2\n      swap5\n      pop\n      swap3\n      pop\n      jump\t// out\n        /* \"#utility.yul\":5785:5965   */\n    tag_51:\n        /* \"#utility.yul\":5833:5910   */\n      0x4e487b7100000000000000000000000000000000000000000000000000000000\n        /* \"#utility.yul\":5830:5831   */\n      0x00\n        /* \"#utility.yul\":5823:5911   */\n      mstore\n        /* \"#utility.yul\":5930:5934   */\n      0x32\n        /* \"#utility.yul\":5927:5928   */\n      0x04\n        /* \"#utility.yul\":5920:5935   */\n      mstore\n        /* \"#utility.yul\":5954:5958   */\n      0x24\n        /* \"#utility.yul\":5951:5952   */\n      0x00\n        /* \"#utility.yul\":5944:5959   */\n      revert\n        /* \"#utility.yul\":5971:6151   */\n    tag_117:\n        /* \"#utility.yul\":6019:6096   */\n      0x4e487b7100000000000000000000000000000000000000000000000000000000\n        /* \"#utility.yul\":6016:6017   */\n      0x00\n        /* \"#utility.yul\":6009:6097   */\n      mstore\n        /* \"#utility.yul\":6116:6120   */\n      0x11\n        /* \"#utility.yul\":6113:6114   */\n      0x04\n        /* \"#utility.yul\":6106:6121   */\n      mstore\n        /* \"#utility.yul\":6140:6144   */\n      0x24\n        /* \"#utility.yul\":6137:6138   */\n      0x00\n        /* \"#utility.yul\":6130:6145   */\n      revert\n        /* \"#utility.yul\":6157:6351   */\n    tag_58:\n        /* \"#utility.yul\":6197:6201   */\n      0x00\n        /* \"#utility.yul\":6217:6237   */\n      tag_193\n        /* \"#utility.yul\":6235:6236   */\n      dup3\n        /* \"#utility.yul\":6217:6237   */\n      tag_106\n      jump\t// in\n    tag_193:\n        /* \"#utility.yul\":6212:6237   */\n      swap2\n      pop\n        /* \"#utility.yul\":6251:6271   */\n      tag_194\n        /* \"#utility.yul\":6269:6270   */\n      dup4\n        /* \"#utility.yul\":6251:6271   */\n      tag_106\n      jump\t// in\n    tag_194:\n        /* \"#utility.yul\":6246:6271   */\n      swap3\n      pop\n        /* \"#utility.yul\":6295:6296   */\n      dup3\n        /* \"#utility.yul\":6292:6293   */\n      dup3\n        /* \"#utility.yul\":6288:6297   */\n      sub\n        /* \"#utility.yul\":6280:6297   */\n      swap1\n      pop\n        /* \"#utility.yul\":6319:6320   */\n      dup2\n        /* \"#utility.yul\":6313:6317   */\n      dup2\n        /* \"#utility.yul\":6310:6321   */\n      gt\n        /* \"#utility.yul\":6307:6344   */\n      iszero\n      tag_195\n      jumpi\n        /* \"#utility.yul\":6324:6342   */\n      tag_196\n      tag_117\n      jump\t// in\n    tag_196:\n        /* \"#utility.yul\":6307:6344   */\n    tag_195:\n        /* \"#utility.yul\":6157:6351   */\n      swap3\n      swap2\n      pop\n      pop\n      jump\t// out\n        /* \"#utility.yul\":6357:6537   */\n    tag_75:\n        /* \"#utility.yul\":6405:6482   */\n      0x4e487b7100000000000000000000000000000000000000000000000000000000\n        /* \"#utility.yul\":6402:6403   */\n      0x00\n        /* \"#utility.yul\":6395:6483   */\n      mstore\n        /* \"#utility.yul\":6502:6506   */\n      0x31\n        /* \"#utility.yul\":6499:6500   */\n      0x04\n        /* \"#utility.yul\":6492:6507   */\n      mstore\n        /* \"#utility.yul\":6526:6530   */\n      0x24\n        /* \"#utility.yul\":6523:6524   */\n      0x00\n        /* \"#utility.yul\":6516:6531   */\n      revert\n        /* \"#utility.yul\":6543:6712   */\n    tag_118:\n        /* \"#utility.yul\":6627:6638   */\n      0x00\n        /* \"#utility.yul\":6661:6667   */\n      dup3\n        /* \"#utility.yul\":6656:6659   */\n      dup3\n        /* \"#utility.yul\":6649:6668   */\n      mstore\n        /* \"#utility.yul\":6701:6705   */\n      0x20\n        /* \"#utility.yul\":6696:6699   */\n      dup3\n        /* \"#utility.yul\":6692:6706   */\n      add\n        /* \"#utility.yul\":6677:6706   */\n      swap1\n      pop\n        /* \"#utility.yul\":6543:6712   */\n      swap3\n      swap2\n      pop\n      pop\n      jump\t// out\n        /* \"#utility.yul\":6718:6882   */\n    tag_119:\n        /* \"#utility.yul\":6858:6874   */\n      0x746f6f206d75636820746f6b656e000000000000000000000000000000000000\n        /* \"#utility.yul\":6854:6855   */\n      0x00\n        /* \"#utility.yul\":6846:6852   */\n      dup3\n        /* \"#utility.yul\":6842:6856   */\n      add\n        /* \"#utility.yul\":6835:6875   */\n      mstore\n        /* \"#utility.yul\":6718:6882   */\n      pop\n      jump\t// out\n        /* \"#utility.yul\":6888:7254   */\n    tag_120:\n        /* \"#utility.yul\":7030:7033   */\n      0x00\n        /* \"#utility.yul\":7051:7118   */\n      tag_201\n        /* \"#utility.yul\":7115:7117   */\n      0x0e\n        /* \"#utility.yul\":7110:7113   */\n      dup4\n        /* \"#utility.yul\":7051:7118   */\n      tag_118\n      jump\t// in\n    tag_201:\n        /* \"#utility.yul\":7044:7118   */\n      swap2\n      pop\n        /* \"#utility.yul\":7127:7220   */\n      tag_202\n        /* \"#utility.yul\":7216:7219   */\n      dup3\n        /* \"#utility.yul\":7127:7220   */\n      tag_119\n      jump\t// in\n    tag_202:\n        /* \"#utility.yul\":7245:7247   */\n      0x20\n        /* \"#utility.yul\":7240:7243   */\n      dup3\n        /* \"#utility.yul\":7236:7248   */\n      add\n        /* \"#utility.yul\":7229:7248   */\n      swap1\n      pop\n        /* \"#utility.yul\":6888:7254   */\n      swap2\n      swap1\n      pop\n      jump\t// out\n        /* \"#utility.yul\":7260:7679   */\n    tag_83:\n        /* \"#utility.yul\":7426:7430   */\n      0x00\n        /* \"#utility.yul\":7464:7466   */\n      0x20\n        /* \"#utility.yul\":7453:7462   */\n      dup3\n        /* \"#utility.yul\":7449:7467   */\n      add\n        /* \"#utility.yul\":7441:7467   */\n      swap1\n      pop\n        /* \"#utility.yul\":7513:7522   */\n      dup2\n        /* \"#utility.yul\":7507:7511   */\n      dup2\n        /* \"#utility.yul\":7503:7523   */\n      sub\n        /* \"#utility.yul\":7499:7500   */\n      0x00\n        /* \"#utility.yul\":7488:7497   */\n      dup4\n        /* \"#utility.yul\":7484:7501   */\n      add\n        /* \"#utility.yul\":7477:7524   */\n      mstore\n        /* \"#utility.yul\":7541:7672   */\n      tag_204\n        /* \"#utility.yul\":7667:7671   */\n      dup2\n        /* \"#utility.yul\":7541:7672   */\n      tag_120\n      jump\t// in\n    tag_204:\n        /* \"#utility.yul\":7533:7672   */\n      swap1\n      pop\n        /* \"#utility.yul\":7260:7679   */\n      swap2\n      swap1\n      pop\n      jump\t// out\n        /* \"#utility.yul\":7685:7876   */\n    tag_93:\n        /* \"#utility.yul\":7725:7728   */\n      0x00\n        /* \"#utility.yul\":7744:7764   */\n      tag_206\n        /* \"#utility.yul\":7762:7763   */\n      dup3\n        /* \"#utility.yul\":7744:7764   */\n      tag_106\n      jump\t// in\n    tag_206:\n        /* \"#utility.yul\":7739:7764   */\n      swap2\n      pop\n        /* \"#utility.yul\":7778:7798   */\n      tag_207\n        /* \"#utility.yul\":7796:7797   */\n      dup4\n        /* \"#utility.yul\":7778:7798   */\n      tag_106\n      jump\t// in\n    tag_207:\n        /* \"#utility.yul\":7773:7798   */\n      swap3\n      pop\n        /* \"#utility.yul\":7821:7822   */\n      dup3\n        /* \"#utility.yul\":7818:7819   */\n      dup3\n        /* \"#utility.yul\":7814:7823   */\n      add\n        /* \"#utility.yul\":7807:7823   */\n      swap1\n      pop\n        /* \"#utility.yul\":7842:7845   */\n      dup1\n        /* \"#utility.yul\":7839:7840   */\n      dup3\n        /* \"#utility.yul\":7836:7846   */\n      gt\n        /* \"#utility.yul\":7833:7869   */\n      iszero\n      tag_208\n      jumpi\n        /* \"#utility.yul\":7849:7867   */\n      tag_209\n      tag_117\n      jump\t// in\n    tag_209:\n        /* \"#utility.yul\":7833:7869   */\n    tag_208:\n        /* \"#utility.yul\":7685:7876   */\n      swap3\n      swap2\n      pop\n      pop\n      jump\t// out\n\n    auxdata: 0xa2646970667358221220e74beda49b7d9ad9e44c3e52c9a29b4c27bf656d47622df84215f96880acbec464736f6c63430008150033\n}\n",
				"bytecode": {
					"linkReferences": {},
					"object": "608060405234801561000f575f80fd5b505f60405180606001604052805f73ffffffffffffffffffffffffffffffffffffffff1681526020015f81526020015f8054905081525090505f81908060018154018082558091505060019003905f5260205f2090600302015f909190919091505f820151815f015f6101000a81548173ffffffffffffffffffffffffffffffffffffffff021916908373ffffffffffffffffffffffffffffffffffffffff160217905550602082015181600101556040820151816002015550508060015f3373ffffffffffffffffffffffffffffffffffffffff1673ffffffffffffffffffffffffffffffffffffffff1681526020019081526020015f205f820151815f015f6101000a81548173ffffffffffffffffffffffffffffffffffffffff021916908373ffffffffffffffffffffffffffffffffffffffff160217905550602082015181600101556040820151816002015590505050610f7d806101715f395ff3fe608060405234801561000f575f80fd5b5060043610610086575f3560e01c8063af81c5b911610059578063af81c5b914610126578063d468809214610142578063efedc66914610174578063f4a7fe271461019257610086565b80633dd7d5bc1461008a5780634123a0ac146100ba5780634f64b2be146100c457806350322a66146100f6575b5f80fd5b6100a4600480360381019061009f9190610b75565b6101ae565b6040516100b19190610bcd565b60405180910390f35b6100c26101e2565b005b6100de60048036038101906100d99190610be6565b610517565b6040516100ed93929190610c5f565b60405180910390f35b610110600480360381019061010b9190610cbe565b61056a565b60405161011d9190610bcd565b60405180910390f35b610140600480360381019061013b9190610cfc565b6105bc565b005b61015c60048036038101906101579190610d3a565b610a3b565b60405161016b93929190610c5f565b60405180910390f35b61017c610a80565b6040516101899190610d65565b60405180910390f35b6101ac60048036038101906101a79190610d7e565b610a86565b005b5f805f8084815481106101c4576101c3610de2565b5b905f5260205f20906003020190508091508482149250505092915050565b5f60015f3373ffffffffffffffffffffffffffffffffffffffff1673ffffffffffffffffffffffffffffffffffffffff1681526020019081526020015f206002015490505f80828154811061023a57610239610de2565b5b905f5260205f2090600302016040518060600160405290815f82015f9054906101000a900473ffffffffffffffffffffffffffffffffffffffff1673ffffffffffffffffffffffffffffffffffffffff1673ffffffffffffffffffffffffffffffffffffffff168152602001600182015481526020016002820154815250509050815f60015f805490506102ce9190610e3c565b815481106102df576102de610de2565b5b905f5260205f209060030201600201819055505f60015f805490506103049190610e3c565b8154811061031557610314610de2565b5b905f5260205f2090600302015f838154811061033457610333610de2565b5b905f5260205f2090600302015f82015f9054906101000a900473ffffffffffffffffffffffffffffffffffffffff16815f015f6101000a81548173ffffffffffffffffffffffffffffffffffffffff021916908373ffffffffffffffffffffffffffffffffffffffff1602179055506001820154816001015560028201548160020155905050805f60015f805490506103cd9190610e3c565b815481106103de576103dd610de2565b5b905f5260205f2090600302015f820151815f015f6101000a81548173ffffffffffffffffffffffffffffffffffffffff021916908373ffffffffffffffffffffffffffffffffffffffff16021790555060208201518160010155604082015181600201559050505f80548061045657610455610e6f565b5b600190038181905f5260205f2090600302015f8082015f6101000a81549073ffffffffffffffffffffffffffffffffffffffff0219169055600182015f9055600282015f90555050905560015f3373ffffffffffffffffffffffffffffffffffffffff1673ffffffffffffffffffffffffffffffffffffffff1681526020019081526020015f205f8082015f6101000a81549073ffffffffffffffffffffffffffffffffffffffff0219169055600182015f9055600282015f905550505050565b5f8181548110610525575f80fd5b905f5260205f2090600302015f91509050805f015f9054906101000a900473ffffffffffffffffffffffffffffffffffffffff16908060010154908060020154905083565b5f805f60015f8573ffffffffffffffffffffffffffffffffffffffff1673ffffffffffffffffffffffffffffffffffffffff1681526020019081526020015f2090508091508482149250505092915050565b60645f8054905010610603576040517f08c379a00000000000000000000000000000000000000000000000000000000081526004016105fa90610ef6565b60405180910390fd5b5f73ffffffffffffffffffffffffffffffffffffffff1660015f3373ffffffffffffffffffffffffffffffffffffffff1673ffffffffffffffffffffffffffffffffffffffff1681526020019081526020015f205f015f9054906101000a900473ffffffffffffffffffffffffffffffffffffffff1673ffffffffffffffffffffffffffffffffffffffff16036107ed575f60405180606001604052808473ffffffffffffffffffffffffffffffffffffffff1681526020018381526020015f8054905081525090505f81908060018154018082558091505060019003905f5260205f2090600302015f909190919091505f820151815f015f6101000a81548173ffffffffffffffffffffffffffffffffffffffff021916908373ffffffffffffffffffffffffffffffffffffffff160217905550602082015181600101556040820151816002015550508060015f3373ffffffffffffffffffffffffffffffffffffffff1673ffffffffffffffffffffffffffffffffffffffff1681526020019081526020015f205f820151815f015f6101000a81548173ffffffffffffffffffffffffffffffffffffffff021916908373ffffffffffffffffffffffffffffffffffffffff160217905550602082015181600101556040820151816002015590505050610a37565b5f60015f3373ffffffffffffffffffffffffffffffffffffffff1673ffffffffffffffffffffffffffffffffffffffff1681526020019081526020015f206040518060600160405290815f82015f9054906101000a900473ffffffffffffffffffffffffffffffffffffffff1673ffffffffffffffffffffffffffffffffffffffff1673ffffffffffffffffffffffffffffffffffffffff16815260200160018201548152602001600282015481525050905082815f019073ffffffffffffffffffffffffffffffffffffffff16908173ffffffffffffffffffffffffffffffffffffffff1681525050818160200181815250508060015f3373ffffffffffffffffffffffffffffffffffffffff1673ffffffffffffffffffffffffffffffffffffffff1681526020019081526020015f205f820151815f015f6101000a81548173ffffffffffffffffffffffffffffffffffffffff021916908373ffffffffffffffffffffffffffffffffffffffff1602179055506020820151816001015560408201518160020155905050805f60015f3373ffffffffffffffffffffffffffffffffffffffff1673ffffffffffffffffffffffffffffffffffffffff1681526020019081526020015f2060020154815481106109ce576109cd610de2565b5b905f5260205f2090600302015f820151815f015f6101000a81548173ffffffffffffffffffffffffffffffffffffffff021916908373ffffffffffffffffffffffffffffffffffffffff1602179055506020820151816001015560408201518160020155905050505b5050565b6001602052805f5260405f205f91509050805f015f9054906101000a900473ffffffffffffffffffffffffffffffffffffffff16908060010154908060020154905083565b60025481565b5f60028190555060025f8054905010610ab357601960025f828254610aab9190610f14565b925050819055505b610abd84836101ae565b15610adc57601960025f828254610ad49190610f14565b925050819055505b610ae6838261056a565b15610b0557603260025f828254610afd9190610f14565b925050819055505b50505050565b5f80fd5b5f819050919050565b610b2181610b0f565b8114610b2b575f80fd5b50565b5f81359050610b3c81610b18565b92915050565b5f819050919050565b610b5481610b42565b8114610b5e575f80fd5b50565b5f81359050610b6f81610b4b565b92915050565b5f8060408385031215610b8b57610b8a610b0b565b5b5f610b9885828601610b2e565b9250506020610ba985828601610b61565b9150509250929050565b5f8115159050919050565b610bc781610bb3565b82525050565b5f602082019050610be05f830184610bbe565b92915050565b5f60208284031215610bfb57610bfa610b0b565b5b5f610c0884828501610b61565b91505092915050565b5f73ffffffffffffffffffffffffffffffffffffffff82169050919050565b5f610c3a82610c11565b9050919050565b610c4a81610c30565b82525050565b610c5981610b42565b82525050565b5f606082019050610c725f830186610c41565b610c7f6020830185610c50565b610c8c6040830184610c50565b949350505050565b610c9d81610c30565b8114610ca7575f80fd5b50565b5f81359050610cb881610c94565b92915050565b5f8060408385031215610cd457610cd3610b0b565b5b5f610ce185828601610b2e565b9250506020610cf285828601610caa565b9150509250929050565b5f8060408385031215610d1257610d11610b0b565b5b5f610d1f85828601610caa565b9250506020610d3085828601610b61565b9150509250929050565b5f60208284031215610d4f57610d4e610b0b565b5b5f610d5c84828501610caa565b91505092915050565b5f602082019050610d785f830184610c50565b92915050565b5f805f8060808587031215610d9657610d95610b0b565b5b5f610da387828801610b2e565b9450506020610db487828801610b2e565b9350506040610dc587828801610b61565b9250506060610dd687828801610caa565b91505092959194509250565b7f4e487b71000000000000000000000000000000000000000000000000000000005f52603260045260245ffd5b7f4e487b71000000000000000000000000000000000000000000000000000000005f52601160045260245ffd5b5f610e4682610b42565b9150610e5183610b42565b9250828203905081811115610e6957610e68610e0f565b5b92915050565b7f4e487b71000000000000000000000000000000000000000000000000000000005f52603160045260245ffd5b5f82825260208201905092915050565b7f746f6f206d75636820746f6b656e0000000000000000000000000000000000005f82015250565b5f610ee0600e83610e9c565b9150610eeb82610eac565b602082019050919050565b5f6020820190508181035f830152610f0d81610ed4565b9050919050565b5f610f1e82610b42565b9150610f2983610b42565b9250828201905080821115610f4157610f40610e0f565b5b9291505056fea2646970667358221220e74beda49b7d9ad9e44c3e52c9a29b4c27bf656d47622df84215f96880acbec464736f6c63430008150033",
					"opcodes": "PUSH1 0x80 PUSH1 0x40 MSTORE CALLVALUE DUP1 ISZERO PUSH2 0xF JUMPI PUSH0 DUP1 REVERT JUMPDEST POP PUSH0 PUSH1 0x40 MLOAD DUP1 PUSH1 0x60 ADD PUSH1 0x40 MSTORE DUP1 PUSH0 PUSH20 0xFFFFFFFFFFFFFFFFFFFFFFFFFFFFFFFFFFFFFFFF AND DUP2 MSTORE PUSH1 0x20 ADD PUSH0 DUP2 MSTORE PUSH1 0x20 ADD PUSH0 DUP1 SLOAD SWAP1 POP DUP2 MSTORE POP SWAP1 POP PUSH0 DUP2 SWAP1 DUP1 PUSH1 0x1 DUP2 SLOAD ADD DUP1 DUP3 SSTORE DUP1 SWAP2 POP POP PUSH1 0x1 SWAP1 SUB SWAP1 PUSH0 MSTORE PUSH1 0x20 PUSH0 KECCAK256 SWAP1 PUSH1 0x3 MUL ADD PUSH0 SWAP1 SWAP2 SWAP1 SWAP2 SWAP1 SWAP2 POP PUSH0 DUP3 ADD MLOAD DUP2 PUSH0 ADD PUSH0 PUSH2 0x100 EXP DUP2 SLOAD DUP2 PUSH20 0xFFFFFFFFFFFFFFFFFFFFFFFFFFFFFFFFFFFFFFFF MUL NOT AND SWAP1 DUP4 PUSH20 0xFFFFFFFFFFFFFFFFFFFFFFFFFFFFFFFFFFFFFFFF AND MUL OR SWAP1 SSTORE POP PUSH1 0x20 DUP3 ADD MLOAD DUP2 PUSH1 0x1 ADD SSTORE PUSH1 0x40 DUP3 ADD MLOAD DUP2 PUSH1 0x2 ADD SSTORE POP POP DUP1 PUSH1 0x1 PUSH0 CALLER PUSH20 0xFFFFFFFFFFFFFFFFFFFFFFFFFFFFFFFFFFFFFFFF AND PUSH20 0xFFFFFFFFFFFFFFFFFFFFFFFFFFFFFFFFFFFFFFFF AND DUP2 MSTORE PUSH1 0x20 ADD SWAP1 DUP2 MSTORE PUSH1 0x20 ADD PUSH0 KECCAK256 PUSH0 DUP3 ADD MLOAD DUP2 PUSH0 ADD PUSH0 PUSH2 0x100 EXP DUP2 SLOAD DUP2 PUSH20 0xFFFFFFFFFFFFFFFFFFFFFFFFFFFFFFFFFFFFFFFF MUL NOT AND SWAP1 DUP4 PUSH20 0xFFFFFFFFFFFFFFFFFFFFFFFFFFFFFFFFFFFFFFFF AND MUL OR SWAP1 SSTORE POP PUSH1 0x20 DUP3 ADD MLOAD DUP2 PUSH1 0x1 ADD SSTORE PUSH1 0x40 DUP3 ADD MLOAD DUP2 PUSH1 0x2 ADD SSTORE SWAP1 POP POP POP PUSH2 0xF7D DUP1 PUSH2 0x171 PUSH0 CODECOPY PUSH0 RETURN INVALID PUSH1 0x80 PUSH1 0x40 MSTORE CALLVALUE DUP1 ISZERO PUSH2 0xF JUMPI PUSH0 DUP1 REVERT JUMPDEST POP PUSH1 0x4 CALLDATASIZE LT PUSH2 0x86 JUMPI PUSH0 CALLDATALOAD PUSH1 0xE0 SHR DUP1 PUSH4 0xAF81C5B9 GT PUSH2 0x59 JUMPI DUP1 PUSH4 0xAF81C5B9 EQ PUSH2 0x126 JUMPI DUP1 PUSH4 0xD4688092 EQ PUSH2 0x142 JUMPI DUP1 PUSH4 0xEFEDC669 EQ PUSH2 0x174 JUMPI DUP1 PUSH4 0xF4A7FE27 EQ PUSH2 0x192 JUMPI PUSH2 0x86 JUMP JUMPDEST DUP1 PUSH4 0x3DD7D5BC EQ PUSH2 0x8A JUMPI DUP1 PUSH4 0x4123A0AC EQ PUSH2 0xBA JUMPI DUP1 PUSH4 0x4F64B2BE EQ PUSH2 0xC4 JUMPI DUP1 PUSH4 0x50322A66 EQ PUSH2 0xF6 JUMPI JUMPDEST PUSH0 DUP1 REVERT JUMPDEST PUSH2 0xA4 PUSH1 0x4 DUP1 CALLDATASIZE SUB DUP2 ADD SWAP1 PUSH2 0x9F SWAP2 SWAP1 PUSH2 0xB75 JUMP JUMPDEST PUSH2 0x1AE JUMP JUMPDEST PUSH1 0x40 MLOAD PUSH2 0xB1 SWAP2 SWAP1 PUSH2 0xBCD JUMP JUMPDEST PUSH1 0x40 MLOAD DUP1 SWAP2 SUB SWAP1 RETURN JUMPDEST PUSH2 0xC2 PUSH2 0x1E2 JUMP JUMPDEST STOP JUMPDEST PUSH2 0xDE PUSH1 0x4 DUP1 CALLDATASIZE SUB DUP2 ADD SWAP1 PUSH2 0xD9 SWAP2 SWAP1 PUSH2 0xBE6 JUMP JUMPDEST PUSH2 0x517 JUMP JUMPDEST PUSH1 0x40 MLOAD PUSH2 0xED SWAP4 SWAP3 SWAP2 SWAP1 PUSH2 0xC5F JUMP JUMPDEST PUSH1 0x40 MLOAD DUP1 SWAP2 SUB SWAP1 RETURN JUMPDEST PUSH2 0x110 PUSH1 0x4 DUP1 CALLDATASIZE SUB DUP2 ADD SWAP1 PUSH2 0x10B SWAP2 SWAP1 PUSH2 0xCBE JUMP JUMPDEST PUSH2 0x56A JUMP JUMPDEST PUSH1 0x40 MLOAD PUSH2 0x11D SWAP2 SWAP1 PUSH2 0xBCD JUMP JUMPDEST PUSH1 0x40 MLOAD DUP1 SWAP2 SUB SWAP1 RETURN JUMPDEST PUSH2 0x140 PUSH1 0x4 DUP1 CALLDATASIZE SUB DUP2 ADD SWAP1 PUSH2 0x13B SWAP2 SWAP1 PUSH2 0xCFC JUMP JUMPDEST PUSH2 0x5BC JUMP JUMPDEST STOP JUMPDEST PUSH2 0x15C PUSH1 0x4 DUP1 CALLDATASIZE SUB DUP2 ADD SWAP1 PUSH2 0x157 SWAP2 SWAP1 PUSH2 0xD3A JUMP JUMPDEST PUSH2 0xA3B JUMP JUMPDEST PUSH1 0x40 MLOAD PUSH2 0x16B SWAP4 SWAP3 SWAP2 SWAP1 PUSH2 0xC5F JUMP JUMPDEST PUSH1 0x40 MLOAD DUP1 SWAP2 SUB SWAP1 RETURN JUMPDEST PUSH2 0x17C PUSH2 0xA80 JUMP JUMPDEST PUSH1 0x40 MLOAD PUSH2 0x189 SWAP2 SWAP1 PUSH2 0xD65 JUMP JUMPDEST PUSH1 0x40 MLOAD DUP1 SWAP2 SUB SWAP1 RETURN JUMPDEST PUSH2 0x1AC PUSH1 0x4 DUP1 CALLDATASIZE SUB DUP2 ADD SWAP1 PUSH2 0x1A7 SWAP2 SWAP1 PUSH2 0xD7E JUMP JUMPDEST PUSH2 0xA86 JUMP JUMPDEST STOP JUMPDEST PUSH0 DUP1 PUSH0 DUP1 DUP5 DUP2 SLOAD DUP2 LT PUSH2 0x1C4 JUMPI PUSH2 0x1C3 PUSH2 0xDE2 JUMP JUMPDEST JUMPDEST SWAP1 PUSH0 MSTORE PUSH1 0x20 PUSH0 KECCAK256 SWAP1 PUSH1 0x3 MUL ADD SWAP1 POP DUP1 SWAP2 POP DUP5 DUP3 EQ SWAP3 POP POP POP SWAP3 SWAP2 POP POP JUMP JUMPDEST PUSH0 PUSH1 0x1 PUSH0 CALLER PUSH20 0xFFFFFFFFFFFFFFFFFFFFFFFFFFFFFFFFFFFFFFFF AND PUSH20 0xFFFFFFFFFFFFFFFFFFFFFFFFFFFFFFFFFFFFFFFF AND DUP2 MSTORE PUSH1 0x20 ADD SWAP1 DUP2 MSTORE PUSH1 0x20 ADD PUSH0 KECCAK256 PUSH1 0x2 ADD SLOAD SWAP1 POP PUSH0 DUP1 DUP3 DUP2 SLOAD DUP2 LT PUSH2 0x23A JUMPI PUSH2 0x239 PUSH2 0xDE2 JUMP JUMPDEST JUMPDEST SWAP1 PUSH0 MSTORE PUSH1 0x20 PUSH0 KECCAK256 SWAP1 PUSH1 0x3 MUL ADD PUSH1 0x40 MLOAD DUP1 PUSH1 0x60 ADD PUSH1 0x40 MSTORE SWAP1 DUP2 PUSH0 DUP3 ADD PUSH0 SWAP1 SLOAD SWAP1 PUSH2 0x100 EXP SWAP1 DIV PUSH20 0xFFFFFFFFFFFFFFFFFFFFFFFFFFFFFFFFFFFFFFFF AND PUSH20 0xFFFFFFFFFFFFFFFFFFFFFFFFFFFFFFFFFFFFFFFF AND PUSH20 0xFFFFFFFFFFFFFFFFFFFFFFFFFFFFFFFFFFFFFFFF AND DUP2 MSTORE PUSH1 0x20 ADD PUSH1 0x1 DUP3 ADD SLOAD DUP2 MSTORE PUSH1 0x20 ADD PUSH1 0x2 DUP3 ADD SLOAD DUP2 MSTORE POP POP SWAP1 POP DUP2 PUSH0 PUSH1 0x1 PUSH0 DUP1 SLOAD SWAP1 POP PUSH2 0x2CE SWAP2 SWAP1 PUSH2 0xE3C JUMP JUMPDEST DUP2 SLOAD DUP2 LT PUSH2 0x2DF JUMPI PUSH2 0x2DE PUSH2 0xDE2 JUMP JUMPDEST JUMPDEST SWAP1 PUSH0 MSTORE PUSH1 0x20 PUSH0 KECCAK256 SWAP1 PUSH1 0x3 MUL ADD PUSH1 0x2 ADD DUP2 SWAP1 SSTORE POP PUSH0 PUSH1 0x1 PUSH0 DUP1 SLOAD SWAP1 POP PUSH2 0x304 SWAP2 SWAP1 PUSH2 0xE3C JUMP JUMPDEST DUP2 SLOAD DUP2 LT PUSH2 0x315 JUMPI PUSH2 0x314 PUSH2 0xDE2 JUMP JUMPDEST JUMPDEST SWAP1 PUSH0 MSTORE PUSH1 0x20 PUSH0 KECCAK256 SWAP1 PUSH1 0x3 MUL ADD PUSH0 DUP4 DUP2 SLOAD DUP2 LT PUSH2 0x334 JUMPI PUSH2 0x333 PUSH2 0xDE2 JUMP JUMPDEST JUMPDEST SWAP1 PUSH0 MSTORE PUSH1 0x20 PUSH0 KECCAK256 SWAP1 PUSH1 0x3 MUL ADD PUSH0 DUP3 ADD PUSH0 SWAP1 SLOAD SWAP1 PUSH2 0x100 EXP SWAP1 DIV PUSH20 0xFFFFFFFFFFFFFFFFFFFFFFFFFFFFFFFFFFFFFFFF AND DUP2 PUSH0 ADD PUSH0 PUSH2 0x100 EXP DUP2 SLOAD DUP2 PUSH20 0xFFFFFFFFFFFFFFFFFFFFFFFFFFFFFFFFFFFFFFFF MUL NOT AND SWAP1 DUP4 PUSH20 0xFFFFFFFFFFFFFFFFFFFFFFFFFFFFFFFFFFFFFFFF AND MUL OR SWAP1 SSTORE POP PUSH1 0x1 DUP3 ADD SLOAD DUP2 PUSH1 0x1 ADD SSTORE PUSH1 0x2 DUP3 ADD SLOAD DUP2 PUSH1 0x2 ADD SSTORE SWAP1 POP POP DUP1 PUSH0 PUSH1 0x1 PUSH0 DUP1 SLOAD SWAP1 POP PUSH2 0x3CD SWAP2 SWAP1 PUSH2 0xE3C JUMP JUMPDEST DUP2 SLOAD DUP2 LT PUSH2 0x3DE JUMPI PUSH2 0x3DD PUSH2 0xDE2 JUMP JUMPDEST JUMPDEST SWAP1 PUSH0 MSTORE PUSH1 0x20 PUSH0 KECCAK256 SWAP1 PUSH1 0x3 MUL ADD PUSH0 DUP3 ADD MLOAD DUP2 PUSH0 ADD PUSH0 PUSH2 0x100 EXP DUP2 SLOAD DUP2 PUSH20 0xFFFFFFFFFFFFFFFFFFFFFFFFFFFFFFFFFFFFFFFF MUL NOT AND SWAP1 DUP4 PUSH20 0xFFFFFFFFFFFFFFFFFFFFFFFFFFFFFFFFFFFFFFFF AND MUL OR SWAP1 SSTORE POP PUSH1 0x20 DUP3 ADD MLOAD DUP2 PUSH1 0x1 ADD SSTORE PUSH1 0x40 DUP3 ADD MLOAD DUP2 PUSH1 0x2 ADD SSTORE SWAP1 POP POP PUSH0 DUP1 SLOAD DUP1 PUSH2 0x456 JUMPI PUSH2 0x455 PUSH2 0xE6F JUMP JUMPDEST JUMPDEST PUSH1 0x1 SWAP1 SUB DUP2 DUP2 SWAP1 PUSH0 MSTORE PUSH1 0x20 PUSH0 KECCAK256 SWAP1 PUSH1 0x3 MUL ADD PUSH0 DUP1 DUP3 ADD PUSH0 PUSH2 0x100 EXP DUP2 SLOAD SWAP1 PUSH20 0xFFFFFFFFFFFFFFFFFFFFFFFFFFFFFFFFFFFFFFFF MUL NOT AND SWAP1 SSTORE PUSH1 0x1 DUP3 ADD PUSH0 SWAP1 SSTORE PUSH1 0x2 DUP3 ADD PUSH0 SWAP1 SSTORE POP POP SWAP1 SSTORE PUSH1 0x1 PUSH0 CALLER PUSH20 0xFFFFFFFFFFFFFFFFFFFFFFFFFFFFFFFFFFFFFFFF AND PUSH20 0xFFFFFFFFFFFFFFFFFFFFFFFFFFFFFFFFFFFFFFFF AND DUP2 MSTORE PUSH1 0x20 ADD SWAP1 DUP2 MSTORE PUSH1 0x20 ADD PUSH0 KECCAK256 PUSH0 DUP1 DUP3 ADD PUSH0 PUSH2 0x100 EXP DUP2 SLOAD SWAP1 PUSH20 0xFFFFFFFFFFFFFFFFFFFFFFFFFFFFFFFFFFFFFFFF MUL NOT AND SWAP1 SSTORE PUSH1 0x1 DUP3 ADD PUSH0 SWAP1 SSTORE PUSH1 0x2 DUP3 ADD PUSH0 SWAP1 SSTORE POP POP POP POP JUMP JUMPDEST PUSH0 DUP2 DUP2 SLOAD DUP2 LT PUSH2 0x525 JUMPI PUSH0 DUP1 REVERT JUMPDEST SWAP1 PUSH0 MSTORE PUSH1 0x20 PUSH0 KECCAK256 SWAP1 PUSH1 0x3 MUL ADD PUSH0 SWAP2 POP SWAP1 POP DUP1 PUSH0 ADD PUSH0 SWAP1 SLOAD SWAP1 PUSH2 0x100 EXP SWAP1 DIV PUSH20 0xFFFFFFFFFFFFFFFFFFFFFFFFFFFFFFFFFFFFFFFF AND SWAP1 DUP1 PUSH1 0x1 ADD SLOAD SWAP1 DUP1 PUSH1 0x2 ADD SLOAD SWAP1 POP DUP4 JUMP JUMPDEST PUSH0 DUP1 PUSH0 PUSH1 0x1 PUSH0 DUP6 PUSH20 0xFFFFFFFFFFFFFFFFFFFFFFFFFFFFFFFFFFFFFFFF AND PUSH20 0xFFFFFFFFFFFFFFFFFFFFFFFFFFFFFFFFFFFFFFFF AND DUP2 MSTORE PUSH1 0x20 ADD SWAP1 DUP2 MSTORE PUSH1 0x20 ADD PUSH0 KECCAK256 SWAP1 POP DUP1 SWAP2 POP DUP5 DUP3 EQ SWAP3 POP POP POP SWAP3 SWAP2 POP POP JUMP JUMPDEST PUSH1 0x64 PUSH0 DUP1 SLOAD SWAP1 POP LT PUSH2 0x603 JUMPI PUSH1 0x40 MLOAD PUSH32 0x8C379A000000000000000000000000000000000000000000000000000000000 DUP2 MSTORE PUSH1 0x4 ADD PUSH2 0x5FA SWAP1 PUSH2 0xEF6 JUMP JUMPDEST PUSH1 0x40 MLOAD DUP1 SWAP2 SUB SWAP1 REVERT JUMPDEST PUSH0 PUSH20 0xFFFFFFFFFFFFFFFFFFFFFFFFFFFFFFFFFFFFFFFF AND PUSH1 0x1 PUSH0 CALLER PUSH20 0xFFFFFFFFFFFFFFFFFFFFFFFFFFFFFFFFFFFFFFFF AND PUSH20 0xFFFFFFFFFFFFFFFFFFFFFFFFFFFFFFFFFFFFFFFF AND DUP2 MSTORE PUSH1 0x20 ADD SWAP1 DUP2 MSTORE PUSH1 0x20 ADD PUSH0 KECCAK256 PUSH0 ADD PUSH0 SWAP1 SLOAD SWAP1 PUSH2 0x100 EXP SWAP1 DIV PUSH20 0xFFFFFFFFFFFFFFFFFFFFFFFFFFFFFFFFFFFFFFFF AND PUSH20 0xFFFFFFFFFFFFFFFFFFFFFFFFFFFFFFFFFFFFFFFF AND SUB PUSH2 0x7ED JUMPI PUSH0 PUSH1 0x40 MLOAD DUP1 PUSH1 0x60 ADD PUSH1 0x40 MSTORE DUP1 DUP5 PUSH20 0xFFFFFFFFFFFFFFFFFFFFFFFFFFFFFFFFFFFFFFFF AND DUP2 MSTORE PUSH1 0x20 ADD DUP4 DUP2 MSTORE PUSH1 0x20 ADD PUSH0 DUP1 SLOAD SWAP1 POP DUP2 MSTORE POP SWAP1 POP PUSH0 DUP2 SWAP1 DUP1 PUSH1 0x1 DUP2 SLOAD ADD DUP1 DUP3 SSTORE DUP1 SWAP2 POP POP PUSH1 0x1 SWAP1 SUB SWAP1 PUSH0 MSTORE PUSH1 0x20 PUSH0 KECCAK256 SWAP1 PUSH1 0x3 MUL ADD PUSH0 SWAP1 SWAP2 SWAP1 SWAP2 SWAP1 SWAP2 POP PUSH0 DUP3 ADD MLOAD DUP2 PUSH0 ADD PUSH0 PUSH2 0x100 EXP DUP2 SLOAD DUP2 PUSH20 0xFFFFFFFFFFFFFFFFFFFFFFFFFFFFFFFFFFFFFFFF MUL NOT AND SWAP1 DUP4 PUSH20 0xFFFFFFFFFFFFFFFFFFFFFFFFFFFFFFFFFFFFFFFF AND MUL OR SWAP1 SSTORE POP PUSH1 0x20 DUP3 ADD MLOAD DUP2 PUSH1 0x1 ADD SSTORE PUSH1 0x40 DUP3 ADD MLOAD DUP2 PUSH1 0x2 ADD SSTORE POP POP DUP1 PUSH1 0x1 PUSH0 CALLER PUSH20 0xFFFFFFFFFFFFFFFFFFFFFFFFFFFFFFFFFFFFFFFF AND PUSH20 0xFFFFFFFFFFFFFFFFFFFFFFFFFFFFFFFFFFFFFFFF AND DUP2 MSTORE PUSH1 0x20 ADD SWAP1 DUP2 MSTORE PUSH1 0x20 ADD PUSH0 KECCAK256 PUSH0 DUP3 ADD MLOAD DUP2 PUSH0 ADD PUSH0 PUSH2 0x100 EXP DUP2 SLOAD DUP2 PUSH20 0xFFFFFFFFFFFFFFFFFFFFFFFFFFFFFFFFFFFFFFFF MUL NOT AND SWAP1 DUP4 PUSH20 0xFFFFFFFFFFFFFFFFFFFFFFFFFFFFFFFFFFFFFFFF AND MUL OR SWAP1 SSTORE POP PUSH1 0x20 DUP3 ADD MLOAD DUP2 PUSH1 0x1 ADD SSTORE PUSH1 0x40 DUP3 ADD MLOAD DUP2 PUSH1 0x2 ADD SSTORE SWAP1 POP POP POP PUSH2 0xA37 JUMP JUMPDEST PUSH0 PUSH1 0x1 PUSH0 CALLER PUSH20 0xFFFFFFFFFFFFFFFFFFFFFFFFFFFFFFFFFFFFFFFF AND PUSH20 0xFFFFFFFFFFFFFFFFFFFFFFFFFFFFFFFFFFFFFFFF AND DUP2 MSTORE PUSH1 0x20 ADD SWAP1 DUP2 MSTORE PUSH1 0x20 ADD PUSH0 KECCAK256 PUSH1 0x40 MLOAD DUP1 PUSH1 0x60 ADD PUSH1 0x40 MSTORE SWAP1 DUP2 PUSH0 DUP3 ADD PUSH0 SWAP1 SLOAD SWAP1 PUSH2 0x100 EXP SWAP1 DIV PUSH20 0xFFFFFFFFFFFFFFFFFFFFFFFFFFFFFFFFFFFFFFFF AND PUSH20 0xFFFFFFFFFFFFFFFFFFFFFFFFFFFFFFFFFFFFFFFF AND PUSH20 0xFFFFFFFFFFFFFFFFFFFFFFFFFFFFFFFFFFFFFFFF AND DUP2 MSTORE PUSH1 0x20 ADD PUSH1 0x1 DUP3 ADD SLOAD DUP2 MSTORE PUSH1 0x20 ADD PUSH1 0x2 DUP3 ADD SLOAD DUP2 MSTORE POP POP SWAP1 POP DUP3 DUP2 PUSH0 ADD SWAP1 PUSH20 0xFFFFFFFFFFFFFFFFFFFFFFFFFFFFFFFFFFFFFFFF AND SWAP1 DUP2 PUSH20 0xFFFFFFFFFFFFFFFFFFFFFFFFFFFFFFFFFFFFFFFF AND DUP2 MSTORE POP POP DUP2 DUP2 PUSH1 0x20 ADD DUP2 DUP2 MSTORE POP POP DUP1 PUSH1 0x1 PUSH0 CALLER PUSH20 0xFFFFFFFFFFFFFFFFFFFFFFFFFFFFFFFFFFFFFFFF AND PUSH20 0xFFFFFFFFFFFFFFFFFFFFFFFFFFFFFFFFFFFFFFFF AND DUP2 MSTORE PUSH1 0x20 ADD SWAP1 DUP2 MSTORE PUSH1 0x20 ADD PUSH0 KECCAK256 PUSH0 DUP3 ADD MLOAD DUP2 PUSH0 ADD PUSH0 PUSH2 0x100 EXP DUP2 SLOAD DUP2 PUSH20 0xFFFFFFFFFFFFFFFFFFFFFFFFFFFFFFFFFFFFFFFF MUL NOT AND SWAP1 DUP4 PUSH20 0xFFFFFFFFFFFFFFFFFFFFFFFFFFFFFFFFFFFFFFFF AND MUL OR SWAP1 SSTORE POP PUSH1 0x20 DUP3 ADD MLOAD DUP2 PUSH1 0x1 ADD SSTORE PUSH1 0x40 DUP3 ADD MLOAD DUP2 PUSH1 0x2 ADD SSTORE SWAP1 POP POP DUP1 PUSH0 PUSH1 0x1 PUSH0 CALLER PUSH20 0xFFFFFFFFFFFFFFFFFFFFFFFFFFFFFFFFFFFFFFFF AND PUSH20 0xFFFFFFFFFFFFFFFFFFFFFFFFFFFFFFFFFFFFFFFF AND DUP2 MSTORE PUSH1 0x20 ADD SWAP1 DUP2 MSTORE PUSH1 0x20 ADD PUSH0 KECCAK256 PUSH1 0x2 ADD SLOAD DUP2 SLOAD DUP2 LT PUSH2 0x9CE JUMPI PUSH2 0x9CD PUSH2 0xDE2 JUMP JUMPDEST JUMPDEST SWAP1 PUSH0 MSTORE PUSH1 0x20 PUSH0 KECCAK256 SWAP1 PUSH1 0x3 MUL ADD PUSH0 DUP3 ADD MLOAD DUP2 PUSH0 ADD PUSH0 PUSH2 0x100 EXP DUP2 SLOAD DUP2 PUSH20 0xFFFFFFFFFFFFFFFFFFFFFFFFFFFFFFFFFFFFFFFF MUL NOT AND SWAP1 DUP4 PUSH20 0xFFFFFFFFFFFFFFFFFFFFFFFFFFFFFFFFFFFFFFFF AND MUL OR SWAP1 SSTORE POP PUSH1 0x20 DUP3 ADD MLOAD DUP2 PUSH1 0x1 ADD SSTORE PUSH1 0x40 DUP3 ADD MLOAD DUP2 PUSH1 0x2 ADD SSTORE SWAP1 POP POP POP JUMPDEST POP POP JUMP JUMPDEST PUSH1 0x1 PUSH1 0x20 MSTORE DUP1 PUSH0 MSTORE PUSH1 0x40 PUSH0 KECCAK256 PUSH0 SWAP2 POP SWAP1 POP DUP1 PUSH0 ADD PUSH0 SWAP1 SLOAD SWAP1 PUSH2 0x100 EXP SWAP1 DIV PUSH20 0xFFFFFFFFFFFFFFFFFFFFFFFFFFFFFFFFFFFFFFFF AND SWAP1 DUP1 PUSH1 0x1 ADD SLOAD SWAP1 DUP1 PUSH1 0x2 ADD SLOAD SWAP1 POP DUP4 JUMP JUMPDEST PUSH1 0x2 SLOAD DUP2 JUMP JUMPDEST PUSH0 PUSH1 0x2 DUP2 SWAP1 SSTORE POP PUSH1 0x2 PUSH0 DUP1 SLOAD SWAP1 POP LT PUSH2 0xAB3 JUMPI PUSH1 0x19 PUSH1 0x2 PUSH0 DUP3 DUP3 SLOAD PUSH2 0xAAB SWAP2 SWAP1 PUSH2 0xF14 JUMP JUMPDEST SWAP3 POP POP DUP2 SWAP1 SSTORE POP JUMPDEST PUSH2 0xABD DUP5 DUP4 PUSH2 0x1AE JUMP JUMPDEST ISZERO PUSH2 0xADC JUMPI PUSH1 0x19 PUSH1 0x2 PUSH0 DUP3 DUP3 SLOAD PUSH2 0xAD4 SWAP2 SWAP1 PUSH2 0xF14 JUMP JUMPDEST SWAP3 POP POP DUP2 SWAP1 SSTORE POP JUMPDEST PUSH2 0xAE6 DUP4 DUP3 PUSH2 0x56A JUMP JUMPDEST ISZERO PUSH2 0xB05 JUMPI PUSH1 0x32 PUSH1 0x2 PUSH0 DUP3 DUP3 SLOAD PUSH2 0xAFD SWAP2 SWAP1 PUSH2 0xF14 JUMP JUMPDEST SWAP3 POP POP DUP2 SWAP1 SSTORE POP JUMPDEST POP POP POP POP JUMP JUMPDEST PUSH0 DUP1 REVERT JUMPDEST PUSH0 DUP2 SWAP1 POP SWAP2 SWAP1 POP JUMP JUMPDEST PUSH2 0xB21 DUP2 PUSH2 0xB0F JUMP JUMPDEST DUP2 EQ PUSH2 0xB2B JUMPI PUSH0 DUP1 REVERT JUMPDEST POP JUMP JUMPDEST PUSH0 DUP2 CALLDATALOAD SWAP1 POP PUSH2 0xB3C DUP2 PUSH2 0xB18 JUMP JUMPDEST SWAP3 SWAP2 POP POP JUMP JUMPDEST PUSH0 DUP2 SWAP1 POP SWAP2 SWAP1 POP JUMP JUMPDEST PUSH2 0xB54 DUP2 PUSH2 0xB42 JUMP JUMPDEST DUP2 EQ PUSH2 0xB5E JUMPI PUSH0 DUP1 REVERT JUMPDEST POP JUMP JUMPDEST PUSH0 DUP2 CALLDATALOAD SWAP1 POP PUSH2 0xB6F DUP2 PUSH2 0xB4B JUMP JUMPDEST SWAP3 SWAP2 POP POP JUMP JUMPDEST PUSH0 DUP1 PUSH1 0x40 DUP4 DUP6 SUB SLT ISZERO PUSH2 0xB8B JUMPI PUSH2 0xB8A PUSH2 0xB0B JUMP JUMPDEST JUMPDEST PUSH0 PUSH2 0xB98 DUP6 DUP3 DUP7 ADD PUSH2 0xB2E JUMP JUMPDEST SWAP3 POP POP PUSH1 0x20 PUSH2 0xBA9 DUP6 DUP3 DUP7 ADD PUSH2 0xB61 JUMP JUMPDEST SWAP2 POP POP SWAP3 POP SWAP3 SWAP1 POP JUMP JUMPDEST PUSH0 DUP2 ISZERO ISZERO SWAP1 POP SWAP2 SWAP1 POP JUMP JUMPDEST PUSH2 0xBC7 DUP2 PUSH2 0xBB3 JUMP JUMPDEST DUP3 MSTORE POP POP JUMP JUMPDEST PUSH0 PUSH1 0x20 DUP3 ADD SWAP1 POP PUSH2 0xBE0 PUSH0 DUP4 ADD DUP5 PUSH2 0xBBE JUMP JUMPDEST SWAP3 SWAP2 POP POP JUMP JUMPDEST PUSH0 PUSH1 0x20 DUP3 DUP5 SUB SLT ISZERO PUSH2 0xBFB JUMPI PUSH2 0xBFA PUSH2 0xB0B JUMP JUMPDEST JUMPDEST PUSH0 PUSH2 0xC08 DUP5 DUP3 DUP6 ADD PUSH2 0xB61 JUMP JUMPDEST SWAP2 POP POP SWAP3 SWAP2 POP POP JUMP JUMPDEST PUSH0 PUSH20 0xFFFFFFFFFFFFFFFFFFFFFFFFFFFFFFFFFFFFFFFF DUP3 AND SWAP1 POP SWAP2 SWAP1 POP JUMP JUMPDEST PUSH0 PUSH2 0xC3A DUP3 PUSH2 0xC11 JUMP JUMPDEST SWAP1 POP SWAP2 SWAP1 POP JUMP JUMPDEST PUSH2 0xC4A DUP2 PUSH2 0xC30 JUMP JUMPDEST DUP3 MSTORE POP POP JUMP JUMPDEST PUSH2 0xC59 DUP2 PUSH2 0xB42 JUMP JUMPDEST DUP3 MSTORE POP POP JUMP JUMPDEST PUSH0 PUSH1 0x60 DUP3 ADD SWAP1 POP PUSH2 0xC72 PUSH0 DUP4 ADD DUP7 PUSH2 0xC41 JUMP JUMPDEST PUSH2 0xC7F PUSH1 0x20 DUP4 ADD DUP6 PUSH2 0xC50 JUMP JUMPDEST PUSH2 0xC8C PUSH1 0x40 DUP4 ADD DUP5 PUSH2 0xC50 JUMP JUMPDEST SWAP5 SWAP4 POP POP POP POP JUMP JUMPDEST PUSH2 0xC9D DUP2 PUSH2 0xC30 JUMP JUMPDEST DUP2 EQ PUSH2 0xCA7 JUMPI PUSH0 DUP1 REVERT JUMPDEST POP JUMP JUMPDEST PUSH0 DUP2 CALLDATALOAD SWAP1 POP PUSH2 0xCB8 DUP2 PUSH2 0xC94 JUMP JUMPDEST SWAP3 SWAP2 POP POP JUMP JUMPDEST PUSH0 DUP1 PUSH1 0x40 DUP4 DUP6 SUB SLT ISZERO PUSH2 0xCD4 JUMPI PUSH2 0xCD3 PUSH2 0xB0B JUMP JUMPDEST JUMPDEST PUSH0 PUSH2 0xCE1 DUP6 DUP3 DUP7 ADD PUSH2 0xB2E JUMP JUMPDEST SWAP3 POP POP PUSH1 0x20 PUSH2 0xCF2 DUP6 DUP3 DUP7 ADD PUSH2 0xCAA JUMP JUMPDEST SWAP2 POP POP SWAP3 POP SWAP3 SWAP1 POP JUMP JUMPDEST PUSH0 DUP1 PUSH1 0x40 DUP4 DUP6 SUB SLT ISZERO PUSH2 0xD12 JUMPI PUSH2 0xD11 PUSH2 0xB0B JUMP JUMPDEST JUMPDEST PUSH0 PUSH2 0xD1F DUP6 DUP3 DUP7 ADD PUSH2 0xCAA JUMP JUMPDEST SWAP3 POP POP PUSH1 0x20 PUSH2 0xD30 DUP6 DUP3 DUP7 ADD PUSH2 0xB61 JUMP JUMPDEST SWAP2 POP POP SWAP3 POP SWAP3 SWAP1 POP JUMP JUMPDEST PUSH0 PUSH1 0x20 DUP3 DUP5 SUB SLT ISZERO PUSH2 0xD4F JUMPI PUSH2 0xD4E PUSH2 0xB0B JUMP JUMPDEST JUMPDEST PUSH0 PUSH2 0xD5C DUP5 DUP3 DUP6 ADD PUSH2 0xCAA JUMP JUMPDEST SWAP2 POP POP SWAP3 SWAP2 POP POP JUMP JUMPDEST PUSH0 PUSH1 0x20 DUP3 ADD SWAP1 POP PUSH2 0xD78 PUSH0 DUP4 ADD DUP5 PUSH2 0xC50 JUMP JUMPDEST SWAP3 SWAP2 POP POP JUMP JUMPDEST PUSH0 DUP1 PUSH0 DUP1 PUSH1 0x80 DUP6 DUP8 SUB SLT ISZERO PUSH2 0xD96 JUMPI PUSH2 0xD95 PUSH2 0xB0B JUMP JUMPDEST JUMPDEST PUSH0 PUSH2 0xDA3 DUP8 DUP3 DUP9 ADD PUSH2 0xB2E JUMP JUMPDEST SWAP5 POP POP PUSH1 0x20 PUSH2 0xDB4 DUP8 DUP3 DUP9 ADD PUSH2 0xB2E JUMP JUMPDEST SWAP4 POP POP PUSH1 0x40 PUSH2 0xDC5 DUP8 DUP3 DUP9 ADD PUSH2 0xB61 JUMP JUMPDEST SWAP3 POP POP PUSH1 0x60 PUSH2 0xDD6 DUP8 DUP3 DUP9 ADD PUSH2 0xCAA JUMP JUMPDEST SWAP2 POP POP SWAP3 SWAP6 SWAP2 SWAP5 POP SWAP3 POP JUMP JUMPDEST PUSH32 0x4E487B7100000000000000000000000000000000000000000000000000000000 PUSH0 MSTORE PUSH1 0x32 PUSH1 0x4 MSTORE PUSH1 0x24 PUSH0 REVERT JUMPDEST PUSH32 0x4E487B7100000000000000000000000000000000000000000000000000000000 PUSH0 MSTORE PUSH1 0x11 PUSH1 0x4 MSTORE PUSH1 0x24 PUSH0 REVERT JUMPDEST PUSH0 PUSH2 0xE46 DUP3 PUSH2 0xB42 JUMP JUMPDEST SWAP2 POP PUSH2 0xE51 DUP4 PUSH2 0xB42 JUMP JUMPDEST SWAP3 POP DUP3 DUP3 SUB SWAP1 POP DUP2 DUP2 GT ISZERO PUSH2 0xE69 JUMPI PUSH2 0xE68 PUSH2 0xE0F JUMP JUMPDEST JUMPDEST SWAP3 SWAP2 POP POP JUMP JUMPDEST PUSH32 0x4E487B7100000000000000000000000000000000000000000000000000000000 PUSH0 MSTORE PUSH1 0x31 PUSH1 0x4 MSTORE PUSH1 0x24 PUSH0 REVERT JUMPDEST PUSH0 DUP3 DUP3 MSTORE PUSH1 0x20 DUP3 ADD SWAP1 POP SWAP3 SWAP2 POP POP JUMP JUMPDEST PUSH32 0x746F6F206D75636820746F6B656E000000000000000000000000000000000000 PUSH0 DUP3 ADD MSTORE POP JUMP JUMPDEST PUSH0 PUSH2 0xEE0 PUSH1 0xE DUP4 PUSH2 0xE9C JUMP JUMPDEST SWAP2 POP PUSH2 0xEEB DUP3 PUSH2 0xEAC JUMP JUMPDEST PUSH1 0x20 DUP3 ADD SWAP1 POP SWAP2 SWAP1 POP JUMP JUMPDEST PUSH0 PUSH1 0x20 DUP3 ADD SWAP1 POP DUP2 DUP2 SUB PUSH0 DUP4 ADD MSTORE PUSH2 0xF0D DUP2 PUSH2 0xED4 JUMP JUMPDEST SWAP1 POP SWAP2 SWAP1 POP JUMP JUMPDEST PUSH0 PUSH2 0xF1E DUP3 PUSH2 0xB42 JUMP JUMPDEST SWAP2 POP PUSH2 0xF29 DUP4 PUSH2 0xB42 JUMP JUMPDEST SWAP3 POP DUP3 DUP3 ADD SWAP1 POP DUP1 DUP3 GT ISZERO PUSH2 0xF41 JUMPI PUSH2 0xF40 PUSH2 0xE0F JUMP JUMPDEST JUMPDEST SWAP3 SWAP2 POP POP JUMP INVALID LOG2 PUSH5 0x6970667358 0x22 SLT KECCAK256 0xE7 0x4B 0xED LOG4 SWAP12 PUSH30 0x9AD9E44C3E52C9A29B4C27BF656D47622DF84215F96880ACBEC464736F6C PUSH4 0x43000815 STOP CALLER "
				},
				"gasEstimates": {
					"creation": {
						"codeDepositCost": "793000",
						"executionCost": "130284",
						"totalCost": "923284"
					},
					"external": {
						"addToken(address,uint256)": "168697",
						"checkTokenOfUserSlot(bytes32,address)": "1004",
						"checkTokensSlot(bytes32,uint256)": "2991",
						"deleteToken()": "infinite",
						"isCompleted(bytes32,bytes32,uint256,address)": "infinite",
						"score()": "2469",
						"tokenOfUser(address)": "infinite",
						"tokens(uint256)": "infinite"
					}
				},
				"methodIdentifiers": {
					"addToken(address,uint256)": "af81c5b9",
					"checkTokenOfUserSlot(bytes32,address)": "50322a66",
					"checkTokensSlot(bytes32,uint256)": "3dd7d5bc",
					"deleteToken()": "4123a0ac",
					"isCompleted(bytes32,bytes32,uint256,address)": "f4a7fe27",
					"score()": "efedc669",
					"tokenOfUser(address)": "d4688092",
					"tokens(uint256)": "4f64b2be"
				}
			},
			"storageLayout": {
				"storage": [
					{
						"astId": 110,
						"contract": "shoot/2/动态数据类型的存储/1.sol:array",
						"label": "tokens",
						"offset": 0,
						"slot": "0",
						"type": "t_array(t_struct(Token)106_storage)dyn_storage"
					},
					{
						"astId": 115,
						"contract": "shoot/2/动态数据类型的存储/1.sol:array",
						"label": "tokenOfUser",
						"offset": 0,
						"slot": "1",
						"type": "t_mapping(t_address,t_struct(Token)106_storage)"
					},
					{
						"astId": 117,
						"contract": "shoot/2/动态数据类型的存储/1.sol:array",
						"label": "score",
						"offset": 0,
						"slot": "2",
						"type": "t_uint256"
					}
				],
				"types": {
					"t_address": {
						"encoding": "inplace",
						"label": "address",
						"numberOfBytes": "20"
					},
					"t_array(t_struct(Token)106_storage)dyn_storage": {
						"base": "t_struct(Token)106_storage",
						"encoding": "dynamic_array",
						"label": "struct array.Token[]",
						"numberOfBytes": "32"
					},
					"t_mapping(t_address,t_struct(Token)106_storage)": {
						"encoding": "mapping",
						"key": "t_address",
						"label": "mapping(address => struct array.Token)",
						"numberOfBytes": "32",
						"value": "t_struct(Token)106_storage"
					},
					"t_struct(Token)106_storage": {
						"encoding": "inplace",
						"label": "struct array.Token",
						"members": [
							{
								"astId": 101,
								"contract": "shoot/2/动态数据类型的存储/1.sol:array",
								"label": "addr",
								"offset": 0,
								"slot": "0",
								"type": "t_address"
							},
							{
								"astId": 103,
								"contract": "shoot/2/动态数据类型的存储/1.sol:array",
								"label": "value",
								"offset": 0,
								"slot": "1",
								"type": "t_uint256"
							},
							{
								"astId": 105,
								"contract": "shoot/2/动态数据类型的存储/1.sol:array",
								"label": "index",
								"offset": 0,
								"slot": "2",
								"type": "t_uint256"
							}
						],
						"numberOfBytes": "96"
					},
					"t_uint256": {
						"encoding": "inplace",
						"label": "uint256",
						"numberOfBytes": "32"
					}
				}
			},
			"userdoc": {
				"kind": "user",
				"methods": {},
				"version": 1
			}
		}
	}
}