{
	"shoot/摸底1/2/1.sol": {
		"Check": {
			"abi": [
				{
					"inputs": [],
					"stateMutability": "nonpayable",
					"type": "constructor"
				},
				{
					"inputs": [],
					"name": "cuit",
					"outputs": [
						{
							"internalType": "contract Cuit",
							"name": "",
							"type": "address"
						}
					],
					"stateMutability": "view",
					"type": "function"
				},
				{
					"inputs": [],
					"name": "isCompleted",
					"outputs": [],
					"stateMutability": "nonpayable",
					"type": "function"
				},
				{
					"inputs": [],
					"name": "score",
					"outputs": [
						{
							"internalType": "uint256",
							"name": "",
							"type": "uint256"
						}
					],
					"stateMutability": "view",
					"type": "function"
				},
				{
					"inputs": [],
					"name": "wallet",
					"outputs": [
						{
							"internalType": "contract Wallet",
							"name": "",
							"type": "address"
						}
					],
					"stateMutability": "view",
					"type": "function"
				}
			],
			"devdoc": {
				"kind": "dev",
				"methods": {},
				"version": 1
			},
			"evm": {
				"assembly": "    /* \"shoot/摸底1/2/1.sol\":4485:4954  contract Check {\r... */\n  mstore(0x40, 0x80)\n    /* \"shoot/摸底1/2/1.sol\":4581:4687  constructor() public {\r... */\n  callvalue\n  dup1\n  iszero\n  tag_1\n  jumpi\n  0x00\n  dup1\n  revert\ntag_1:\n  pop\n    /* \"shoot/摸底1/2/1.sol\":4622:4634  new Wallet() */\n  mload(0x40)\n  tag_4\n  swap1\n  tag_5\n  jump\t// in\ntag_4:\n  mload(0x40)\n  dup1\n  swap2\n  sub\n  swap1\n  0x00\n  create\n  dup1\n  iszero\n  dup1\n  iszero\n  tag_6\n  jumpi\n  returndatasize\n  0x00\n  dup1\n  returndatacopy\n  revert(0x00, returndatasize)\ntag_6:\n  pop\n    /* \"shoot/摸底1/2/1.sol\":4613:4619  wallet */\n  0x00\n  dup1\n    /* \"shoot/摸底1/2/1.sol\":4613:4634  wallet = new Wallet() */\n  0x0100\n  exp\n  dup2\n  sload\n  dup2\n  0xffffffffffffffffffffffffffffffffffffffff\n  mul\n  not\n  and\n  swap1\n  dup4\n  0xffffffffffffffffffffffffffffffffffffffff\n  and\n  mul\n  or\n  swap1\n  sstore\n  pop\n    /* \"shoot/摸底1/2/1.sol\":4657:4663  wallet */\n  0x00\n  dup1\n  sload\n  swap1\n  0x0100\n  exp\n  swap1\n  div\n  0xffffffffffffffffffffffffffffffffffffffff\n  and\n    /* \"shoot/摸底1/2/1.sol\":4657:4676  wallet.toen_address */\n  0xffffffffffffffffffffffffffffffffffffffff\n  and\n  0xe686fd2d\n    /* \"shoot/摸底1/2/1.sol\":4657:4678  wallet.toen_address() */\n  mload(0x40)\n  dup2\n  0xffffffff\n  and\n  0xe0\n  shl\n  dup2\n  mstore\n  0x04\n  add\n  0x20\n  mload(0x40)\n  dup1\n  dup4\n  sub\n  dup2\n  dup7\n  dup1\n  extcodesize\n  iszero\n  dup1\n  iszero\n  tag_7\n  jumpi\n  0x00\n  dup1\n  revert\ntag_7:\n  pop\n  gas\n  staticcall\n  iszero\n  dup1\n  iszero\n  tag_9\n  jumpi\n  returndatasize\n  0x00\n  dup1\n  returndatacopy\n  revert(0x00, returndatasize)\ntag_9:\n  pop\n  pop\n  pop\n  pop\n  mload(0x40)\n  returndatasize\n  0x20\n  dup2\n  lt\n  iszero\n  tag_10\n  jumpi\n  0x00\n  dup1\n  revert\ntag_10:\n  dup2\n  add\n  swap1\n  dup1\n  dup1\n  mload\n  swap1\n  0x20\n  add\n  swap1\n  swap3\n  swap2\n  swap1\n  pop\n  pop\n  pop\n    /* \"shoot/摸底1/2/1.sol\":4645:4649  cuit */\n  0x01\n  0x00\n    /* \"shoot/摸底1/2/1.sol\":4645:4679  cuit = Cuit(wallet.toen_address()) */\n  0x0100\n  exp\n  dup2\n  sload\n  dup2\n  0xffffffffffffffffffffffffffffffffffffffff\n  mul\n  not\n  and\n  swap1\n  dup4\n  0xffffffffffffffffffffffffffffffffffffffff\n  and\n  mul\n  or\n  swap1\n  sstore\n  pop\n    /* \"shoot/摸底1/2/1.sol\":4485:4954  contract Check {\r... */\n  jump(tag_11)\ntag_5:\n  dataSize(sub_1)\n  dup1\n  dataOffset(sub_1)\n  dup4\n  codecopy\n  add\n  swap1\n  jump\t// out\ntag_11:\n  dataSize(sub_0)\n  dup1\n  dataOffset(sub_0)\n  0x00\n  codecopy\n  0x00\n  return\nstop\n\nsub_0: assembly {\n        /* \"shoot/摸底1/2/1.sol\":4485:4954  contract Check {\r... */\n      mstore(0x40, 0x80)\n      callvalue\n      dup1\n      iszero\n      tag_1\n      jumpi\n      0x00\n      dup1\n      revert\n    tag_1:\n      pop\n      jumpi(tag_2, lt(calldatasize, 0x04))\n      shr(0xe0, calldataload(0x00))\n      dup1\n      0x3ba9838c\n      eq\n      tag_3\n      jumpi\n      dup1\n      0x521eb273\n      eq\n      tag_4\n      jumpi\n      dup1\n      0xefedc669\n      eq\n      tag_5\n      jumpi\n      dup1\n      0xfa391c64\n      eq\n      tag_6\n      jumpi\n    tag_2:\n      0x00\n      dup1\n      revert\n        /* \"shoot/摸底1/2/1.sol\":4534:4550  Cuit public cuit */\n    tag_3:\n      tag_7\n      tag_8\n      jump\t// in\n    tag_7:\n      mload(0x40)\n      dup1\n      dup3\n      0xffffffffffffffffffffffffffffffffffffffff\n      and\n      dup2\n      mstore\n      0x20\n      add\n      swap2\n      pop\n      pop\n      mload(0x40)\n      dup1\n      swap2\n      sub\n      swap1\n      return\n        /* \"shoot/摸底1/2/1.sol\":4507:4527  Wallet public wallet */\n    tag_4:\n      tag_9\n      tag_10\n      jump\t// in\n    tag_9:\n      mload(0x40)\n      dup1\n      dup3\n      0xffffffffffffffffffffffffffffffffffffffff\n      and\n      dup2\n      mstore\n      0x20\n      add\n      swap2\n      pop\n      pop\n      mload(0x40)\n      dup1\n      swap2\n      sub\n      swap1\n      return\n        /* \"shoot/摸底1/2/1.sol\":4557:4574  uint public score */\n    tag_5:\n      tag_11\n      tag_12\n      jump\t// in\n    tag_11:\n      mload(0x40)\n      dup1\n      dup3\n      dup2\n      mstore\n      0x20\n      add\n      swap2\n      pop\n      pop\n      mload(0x40)\n      dup1\n      swap2\n      sub\n      swap1\n      return\n        /* \"shoot/摸底1/2/1.sol\":4695:4951  function isCompleted() public {\r... */\n    tag_6:\n      tag_13\n      tag_14\n      jump\t// in\n    tag_13:\n      stop\n        /* \"shoot/摸底1/2/1.sol\":4534:4550  Cuit public cuit */\n    tag_8:\n      0x01\n      0x00\n      swap1\n      sload\n      swap1\n      0x0100\n      exp\n      swap1\n      div\n      0xffffffffffffffffffffffffffffffffffffffff\n      and\n      dup2\n      jump\t// out\n        /* \"shoot/摸底1/2/1.sol\":4507:4527  Wallet public wallet */\n    tag_10:\n      0x00\n      dup1\n      sload\n      swap1\n      0x0100\n      exp\n      swap1\n      div\n      0xffffffffffffffffffffffffffffffffffffffff\n      and\n      dup2\n      jump\t// out\n        /* \"shoot/摸底1/2/1.sol\":4557:4574  uint public score */\n    tag_12:\n      sload(0x02)\n      dup2\n      jump\t// out\n        /* \"shoot/摸底1/2/1.sol\":4695:4951  function isCompleted() public {\r... */\n    tag_14:\n        /* \"shoot/摸底1/2/1.sol\":4773:4806  1000000000000000000000 * 10 ** 18 */\n      0x02f050fe938943acc45f65568000000000\n        /* \"shoot/摸底1/2/1.sol\":4739:4743  cuit */\n      0x01\n      0x00\n      swap1\n      sload\n      swap1\n      0x0100\n      exp\n      swap1\n      div\n      0xffffffffffffffffffffffffffffffffffffffff\n      and\n        /* \"shoot/摸底1/2/1.sol\":4739:4753  cuit.balanceOf */\n      0xffffffffffffffffffffffffffffffffffffffff\n      and\n      0x70a08231\n        /* \"shoot/摸底1/2/1.sol\":4762:4768  wallet */\n      0x00\n      dup1\n      sload\n      swap1\n      0x0100\n      exp\n      swap1\n      div\n      0xffffffffffffffffffffffffffffffffffffffff\n      and\n        /* \"shoot/摸底1/2/1.sol\":4739:4770  cuit.balanceOf(address(wallet)) */\n      mload(0x40)\n      dup3\n      0xffffffff\n      and\n      0xe0\n      shl\n      dup2\n      mstore\n      0x04\n      add\n      dup1\n      dup3\n      0xffffffffffffffffffffffffffffffffffffffff\n      and\n      dup2\n      mstore\n      0x20\n      add\n      swap2\n      pop\n      pop\n      0x20\n      mload(0x40)\n      dup1\n      dup4\n      sub\n      dup2\n      dup7\n      dup1\n      extcodesize\n      iszero\n      dup1\n      iszero\n      tag_16\n      jumpi\n      0x00\n      dup1\n      revert\n    tag_16:\n      pop\n      gas\n      staticcall\n      iszero\n      dup1\n      iszero\n      tag_18\n      jumpi\n      returndatasize\n      0x00\n      dup1\n      returndatacopy\n      revert(0x00, returndatasize)\n    tag_18:\n      pop\n      pop\n      pop\n      pop\n      mload(0x40)\n      returndatasize\n      0x20\n      dup2\n      lt\n      iszero\n      tag_19\n      jumpi\n      0x00\n      dup1\n      revert\n    tag_19:\n      dup2\n      add\n      swap1\n      dup1\n      dup1\n      mload\n      swap1\n      0x20\n      add\n      swap1\n      swap3\n      swap2\n      swap1\n      pop\n      pop\n      pop\n        /* \"shoot/摸底1/2/1.sol\":4739:4806  cuit.balanceOf(address(wallet)) < 1000000000000000000000 * 10 ** 18 */\n      lt\n        /* \"shoot/摸底1/2/1.sol\":4736:4844  if(cuit.balanceOf(address(wallet)) < 1000000000000000000000 * 10 ** 18){\r... */\n      iszero\n      tag_20\n      jumpi\n        /* \"shoot/摸底1/2/1.sol\":4830:4832  50 */\n      0x32\n        /* \"shoot/摸底1/2/1.sol\":4822:4827  score */\n      0x02\n        /* \"shoot/摸底1/2/1.sol\":4822:4832  score = 50 */\n      dup2\n      swap1\n      sstore\n      pop\n        /* \"shoot/摸底1/2/1.sol\":4736:4844  if(cuit.balanceOf(address(wallet)) < 1000000000000000000000 * 10 ** 18){\r... */\n    tag_20:\n        /* \"shoot/摸底1/2/1.sol\":4888:4903  10000 * 10 **18 */\n      0x021e19e0c9bab2400000\n        /* \"shoot/摸底1/2/1.sol\":4859:4863  cuit */\n      0x01\n      0x00\n      swap1\n      sload\n      swap1\n      0x0100\n      exp\n      swap1\n      div\n      0xffffffffffffffffffffffffffffffffffffffff\n      and\n        /* \"shoot/摸底1/2/1.sol\":4859:4873  cuit.balanceOf */\n      0xffffffffffffffffffffffffffffffffffffffff\n      and\n      0x70a08231\n        /* \"shoot/摸底1/2/1.sol\":4874:4884  msg.sender */\n      caller\n        /* \"shoot/摸底1/2/1.sol\":4859:4885  cuit.balanceOf(msg.sender) */\n      mload(0x40)\n      dup3\n      0xffffffff\n      and\n      0xe0\n      shl\n      dup2\n      mstore\n      0x04\n      add\n      dup1\n      dup3\n      0xffffffffffffffffffffffffffffffffffffffff\n      and\n      dup2\n      mstore\n      0x20\n      add\n      swap2\n      pop\n      pop\n      0x20\n      mload(0x40)\n      dup1\n      dup4\n      sub\n      dup2\n      dup7\n      dup1\n      extcodesize\n      iszero\n      dup1\n      iszero\n      tag_21\n      jumpi\n      0x00\n      dup1\n      revert\n    tag_21:\n      pop\n      gas\n      staticcall\n      iszero\n      dup1\n      iszero\n      tag_23\n      jumpi\n      returndatasize\n      0x00\n      dup1\n      returndatacopy\n      revert(0x00, returndatasize)\n    tag_23:\n      pop\n      pop\n      pop\n      pop\n      mload(0x40)\n      returndatasize\n      0x20\n      dup2\n      lt\n      iszero\n      tag_24\n      jumpi\n      0x00\n      dup1\n      revert\n    tag_24:\n      dup2\n      add\n      swap1\n      dup1\n      dup1\n      mload\n      swap1\n      0x20\n      add\n      swap1\n      swap3\n      swap2\n      swap1\n      pop\n      pop\n      pop\n        /* \"shoot/摸底1/2/1.sol\":4859:4903  cuit.balanceOf(msg.sender) > 10000 * 10 **18 */\n      gt\n        /* \"shoot/摸底1/2/1.sol\":4856:4942  if(cuit.balanceOf(msg.sender) > 10000 * 10 **18){\r... */\n      iszero\n      tag_25\n      jumpi\n        /* \"shoot/摸底1/2/1.sol\":4928:4930  50 */\n      0x32\n        /* \"shoot/摸底1/2/1.sol\":4919:4924  score */\n      0x02\n      0x00\n        /* \"shoot/摸底1/2/1.sol\":4919:4930  score += 50 */\n      dup3\n      dup3\n      sload\n      add\n      swap3\n      pop\n      pop\n      dup2\n      swap1\n      sstore\n      pop\n        /* \"shoot/摸底1/2/1.sol\":4856:4942  if(cuit.balanceOf(msg.sender) > 10000 * 10 **18){\r... */\n    tag_25:\n        /* \"shoot/摸底1/2/1.sol\":4695:4951  function isCompleted() public {\r... */\n      jump\t// out\n\n    auxdata: 0xa2646970667358221220560ec4c001881257b515f0951e90ae3ad842088824aea973ef41e04788b9d59064736f6c634300060c0033\n}\n\nsub_1: assembly {\n        /* \"shoot/摸底1/2/1.sol\":3784:4481  contract Wallet {\r... */\n      mstore(0x40, 0x80)\n        /* \"shoot/摸底1/2/1.sol\":3902:3999  constructor() public{\r... */\n      callvalue\n      dup1\n      iszero\n      tag_1\n      jumpi\n      0x00\n      dup1\n      revert\n    tag_1:\n      pop\n        /* \"shoot/摸底1/2/1.sol\":3941:3951  new Cuit() */\n      mload(0x40)\n      tag_4\n      swap1\n      tag_5\n      jump\t// in\n    tag_4:\n      mload(0x40)\n      dup1\n      swap2\n      sub\n      swap1\n      0x00\n      create\n      dup1\n      iszero\n      dup1\n      iszero\n      tag_6\n      jumpi\n      returndatasize\n      0x00\n      dup1\n      returndatacopy\n      revert(0x00, returndatasize)\n    tag_6:\n      pop\n        /* \"shoot/摸底1/2/1.sol\":3933:3938  token */\n      0x00\n      dup1\n        /* \"shoot/摸底1/2/1.sol\":3933:3951  token = new Cuit() */\n      0x0100\n      exp\n      dup2\n      sload\n      dup2\n      0xffffffffffffffffffffffffffffffffffffffff\n      mul\n      not\n      and\n      swap1\n      dup4\n      0xffffffffffffffffffffffffffffffffffffffff\n      and\n      mul\n      or\n      swap1\n      sstore\n      pop\n        /* \"shoot/摸底1/2/1.sol\":3985:3990  token */\n      0x00\n      dup1\n      sload\n      swap1\n      0x0100\n      exp\n      swap1\n      div\n      0xffffffffffffffffffffffffffffffffffffffff\n      and\n        /* \"shoot/摸底1/2/1.sol\":3962:3974  toen_address */\n      0x01\n      0x00\n        /* \"shoot/摸底1/2/1.sol\":3962:3991  toen_address = address(token) */\n      0x0100\n      exp\n      dup2\n      sload\n      dup2\n      0xffffffffffffffffffffffffffffffffffffffff\n      mul\n      not\n      and\n      swap1\n      dup4\n      0xffffffffffffffffffffffffffffffffffffffff\n      and\n      mul\n      or\n      swap1\n      sstore\n      pop\n        /* \"shoot/摸底1/2/1.sol\":3784:4481  contract Wallet {\r... */\n      jump(tag_7)\n    tag_5:\n      dataSize(sub_1)\n      dup1\n      dataOffset(sub_1)\n      dup4\n      codecopy\n      add\n      swap1\n      jump\t// out\n    tag_7:\n      dataSize(sub_0)\n      dup1\n      dataOffset(sub_0)\n      0x00\n      codecopy\n      0x00\n      return\n    stop\n\n    sub_0: assembly {\n            /* \"shoot/摸底1/2/1.sol\":3784:4481  contract Wallet {\r... */\n          mstore(0x40, 0x80)\n          callvalue\n          dup1\n          iszero\n          tag_1\n          jumpi\n          0x00\n          dup1\n          revert\n        tag_1:\n          pop\n          jumpi(tag_2, lt(calldatasize, 0x04))\n          shr(0xe0, calldataload(0x00))\n          dup1\n          0x2e1a7d4d\n          eq\n          tag_3\n          jumpi\n          dup1\n          0xb6b55f25\n          eq\n          tag_4\n          jumpi\n          dup1\n          0xe686fd2d\n          eq\n          tag_5\n          jumpi\n        tag_2:\n          0x00\n          dup1\n          revert\n            /* \"shoot/摸底1/2/1.sol\":4184:4476  function withdraw(uint _amount) public {\r... */\n        tag_3:\n          tag_6\n          0x04\n          dup1\n          calldatasize\n          sub\n          0x20\n          dup2\n          lt\n          iszero\n          tag_7\n          jumpi\n          0x00\n          dup1\n          revert\n        tag_7:\n          dup2\n          add\n          swap1\n          dup1\n          dup1\n          calldataload\n          swap1\n          0x20\n          add\n          swap1\n          swap3\n          swap2\n          swap1\n          pop\n          pop\n          pop\n          tag_8\n          jump\t// in\n        tag_6:\n          stop\n            /* \"shoot/摸底1/2/1.sol\":4007:4176  function deposit(uint _amount) public{\r... */\n        tag_4:\n          tag_9\n          0x04\n          dup1\n          calldatasize\n          sub\n          0x20\n          dup2\n          lt\n          iszero\n          tag_10\n          jumpi\n          0x00\n          dup1\n          revert\n        tag_10:\n          dup2\n          add\n          swap1\n          dup1\n          dup1\n          calldataload\n          swap1\n          0x20\n          add\n          swap1\n          swap3\n          swap2\n          swap1\n          pop\n          pop\n          pop\n          tag_11\n          jump\t// in\n        tag_9:\n          stop\n            /* \"shoot/摸底1/2/1.sol\":3824:3851  address public toen_address */\n        tag_5:\n          tag_12\n          tag_13\n          jump\t// in\n        tag_12:\n          mload(0x40)\n          dup1\n          dup3\n          0xffffffffffffffffffffffffffffffffffffffff\n          and\n          dup2\n          mstore\n          0x20\n          add\n          swap2\n          pop\n          pop\n          mload(0x40)\n          dup1\n          swap2\n          sub\n          swap1\n          return\n            /* \"shoot/摸底1/2/1.sol\":4184:4476  function withdraw(uint _amount) public {\r... */\n        tag_8:\n            /* \"shoot/摸底1/2/1.sol\":4252:4253  0 */\n          0x00\n            /* \"shoot/摸底1/2/1.sol\":4242:4249  _amount */\n          dup2\n            /* \"shoot/摸底1/2/1.sol\":4242:4253  _amount > 0 */\n          gt\n            /* \"shoot/摸底1/2/1.sol\":4234:4276  require(_amount > 0, \"Amount must be > 0\") */\n          tag_15\n          jumpi\n          mload(0x40)\n          0x08c379a000000000000000000000000000000000000000000000000000000000\n          dup2\n          mstore\n          0x04\n          add\n          dup1\n          dup1\n          0x20\n          add\n          dup3\n          dup2\n          sub\n          dup3\n          mstore\n          0x12\n          dup2\n          mstore\n          0x20\n          add\n          dup1\n          0x416d6f756e74206d757374206265203e20300000000000000000000000000000\n          dup2\n          mstore\n          pop\n          0x20\n          add\n          swap2\n          pop\n          pop\n          mload(0x40)\n          dup1\n          swap2\n          sub\n          swap1\n          revert\n        tag_15:\n            /* \"shoot/摸底1/2/1.sol\":4315:4322  balance */\n          0x02\n            /* \"shoot/摸底1/2/1.sol\":4315:4334  balance[msg.sender] */\n          0x00\n            /* \"shoot/摸底1/2/1.sol\":4323:4333  msg.sender */\n          caller\n            /* \"shoot/摸底1/2/1.sol\":4315:4334  balance[msg.sender] */\n          0xffffffffffffffffffffffffffffffffffffffff\n          and\n          0xffffffffffffffffffffffffffffffffffffffff\n          and\n          dup2\n          mstore\n          0x20\n          add\n          swap1\n          dup2\n          mstore\n          0x20\n          add\n          0x00\n          keccak256\n          0x00\n          swap1\n          sload\n          swap1\n          0x0100\n          exp\n          swap1\n          div\n          0xffffffffffffffffffffffffffffffff\n          and\n            /* \"shoot/摸底1/2/1.sol\":4295:4334  uint128(_amount) <= balance[msg.sender] */\n          0xffffffffffffffffffffffffffffffff\n          and\n            /* \"shoot/摸底1/2/1.sol\":4303:4310  _amount */\n          dup2\n            /* \"shoot/摸底1/2/1.sol\":4295:4334  uint128(_amount) <= balance[msg.sender] */\n          0xffffffffffffffffffffffffffffffff\n          and\n          gt\n          iszero\n            /* \"shoot/摸底1/2/1.sol\":4287:4372  require(uint128(_amount) <= balance[msg.sender], \"Sorry, your credit is running low\") */\n          tag_16\n          jumpi\n          mload(0x40)\n          0x08c379a000000000000000000000000000000000000000000000000000000000\n          dup2\n          mstore\n          0x04\n          add\n          dup1\n          dup1\n          0x20\n          add\n          dup3\n          dup2\n          sub\n          dup3\n          mstore\n          0x21\n          dup2\n          mstore\n          0x20\n          add\n          dup1\n          data_634e6d932cae9dba4b27f1a812b1b203af31a867f53452c1124fab457b9fec91\n          0x21\n          swap2\n          codecopy\n          0x40\n          add\n          swap2\n          pop\n          pop\n          mload(0x40)\n          dup1\n          swap2\n          sub\n          swap1\n          revert\n        tag_16:\n            /* \"shoot/摸底1/2/1.sol\":4383:4388  token */\n          0x00\n          dup1\n          sload\n          swap1\n          0x0100\n          exp\n          swap1\n          div\n          0xffffffffffffffffffffffffffffffffffffffff\n          and\n            /* \"shoot/摸底1/2/1.sol\":4383:4397  token.transfer */\n          0xffffffffffffffffffffffffffffffffffffffff\n          and\n          0xa9059cbb\n            /* \"shoot/摸底1/2/1.sol\":4398:4408  msg.sender */\n          caller\n            /* \"shoot/摸底1/2/1.sol\":4410:4417  _amount */\n          dup4\n            /* \"shoot/摸底1/2/1.sol\":4383:4418  token.transfer(msg.sender, _amount) */\n          mload(0x40)\n          dup4\n          0xffffffff\n          and\n          0xe0\n          shl\n          dup2\n          mstore\n          0x04\n          add\n          dup1\n          dup4\n          0xffffffffffffffffffffffffffffffffffffffff\n          and\n          dup2\n          mstore\n          0x20\n          add\n          dup3\n          dup2\n          mstore\n          0x20\n          add\n          swap3\n          pop\n          pop\n          pop\n          0x20\n          mload(0x40)\n          dup1\n          dup4\n          sub\n          dup2\n          0x00\n          dup8\n          dup1\n          extcodesize\n          iszero\n          dup1\n          iszero\n          tag_17\n          jumpi\n          0x00\n          dup1\n          revert\n        tag_17:\n          pop\n          gas\n          call\n          iszero\n          dup1\n          iszero\n          tag_19\n          jumpi\n          returndatasize\n          0x00\n          dup1\n          returndatacopy\n          revert(0x00, returndatasize)\n        tag_19:\n          pop\n          pop\n          pop\n          pop\n          mload(0x40)\n          returndatasize\n          0x20\n          dup2\n          lt\n          iszero\n          tag_20\n          jumpi\n          0x00\n          dup1\n          revert\n        tag_20:\n          dup2\n          add\n          swap1\n          dup1\n          dup1\n          mload\n          swap1\n          0x20\n          add\n          swap1\n          swap3\n          swap2\n          swap1\n          pop\n          pop\n          pop\n          pop\n            /* \"shoot/摸底1/2/1.sol\":4460:4467  _amount */\n          dup1\n            /* \"shoot/摸底1/2/1.sol\":4429:4436  balance */\n          0x02\n            /* \"shoot/摸底1/2/1.sol\":4429:4448  balance[msg.sender] */\n          0x00\n            /* \"shoot/摸底1/2/1.sol\":4437:4447  msg.sender */\n          caller\n            /* \"shoot/摸底1/2/1.sol\":4429:4448  balance[msg.sender] */\n          0xffffffffffffffffffffffffffffffffffffffff\n          and\n          0xffffffffffffffffffffffffffffffffffffffff\n          and\n          dup2\n          mstore\n          0x20\n          add\n          swap1\n          dup2\n          mstore\n          0x20\n          add\n          0x00\n          keccak256\n          0x00\n            /* \"shoot/摸底1/2/1.sol\":4429:4468  balance[msg.sender] -= uint128(_amount) */\n          dup3\n          dup3\n          dup3\n          swap1\n          sload\n          swap1\n          0x0100\n          exp\n          swap1\n          div\n          0xffffffffffffffffffffffffffffffff\n          and\n          sub\n          swap3\n          pop\n          0x0100\n          exp\n          dup2\n          sload\n          dup2\n          0xffffffffffffffffffffffffffffffff\n          mul\n          not\n          and\n          swap1\n          dup4\n          0xffffffffffffffffffffffffffffffff\n          and\n          mul\n          or\n          swap1\n          sstore\n          pop\n            /* \"shoot/摸底1/2/1.sol\":4184:4476  function withdraw(uint _amount) public {\r... */\n          pop\n          jump\t// out\n            /* \"shoot/摸底1/2/1.sol\":4007:4176  function deposit(uint _amount) public{\r... */\n        tag_11:\n            /* \"shoot/摸底1/2/1.sol\":4063:4068  token */\n          0x00\n          dup1\n          sload\n          swap1\n          0x0100\n          exp\n          swap1\n          div\n          0xffffffffffffffffffffffffffffffffffffffff\n          and\n            /* \"shoot/摸底1/2/1.sol\":4063:4081  token.transferFrom */\n          0xffffffffffffffffffffffffffffffffffffffff\n          and\n          0x23b872dd\n            /* \"shoot/摸底1/2/1.sol\":4082:4092  msg.sender */\n          caller\n            /* \"shoot/摸底1/2/1.sol\":4102:4106  this */\n          address\n            /* \"shoot/摸底1/2/1.sol\":4109:4116  _amount */\n          dup5\n            /* \"shoot/摸底1/2/1.sol\":4063:4117  token.transferFrom(msg.sender, address(this), _amount) */\n          mload(0x40)\n          dup5\n          0xffffffff\n          and\n          0xe0\n          shl\n          dup2\n          mstore\n          0x04\n          add\n          dup1\n          dup5\n          0xffffffffffffffffffffffffffffffffffffffff\n          and\n          dup2\n          mstore\n          0x20\n          add\n          dup4\n          0xffffffffffffffffffffffffffffffffffffffff\n          and\n          dup2\n          mstore\n          0x20\n          add\n          dup3\n          dup2\n          mstore\n          0x20\n          add\n          swap4\n          pop\n          pop\n          pop\n          pop\n          0x20\n          mload(0x40)\n          dup1\n          dup4\n          sub\n          dup2\n          0x00\n          dup8\n          dup1\n          extcodesize\n          iszero\n          dup1\n          iszero\n          tag_22\n          jumpi\n          0x00\n          dup1\n          revert\n        tag_22:\n          pop\n          gas\n          call\n          iszero\n          dup1\n          iszero\n          tag_24\n          jumpi\n          returndatasize\n          0x00\n          dup1\n          returndatacopy\n          revert(0x00, returndatasize)\n        tag_24:\n          pop\n          pop\n          pop\n          pop\n          mload(0x40)\n          returndatasize\n          0x20\n          dup2\n          lt\n          iszero\n          tag_25\n          jumpi\n          0x00\n          dup1\n          revert\n        tag_25:\n          dup2\n          add\n          swap1\n          dup1\n          dup1\n          mload\n          swap1\n          0x20\n          add\n          swap1\n          swap3\n          swap2\n          swap1\n          pop\n          pop\n          pop\n            /* \"shoot/摸底1/2/1.sol\":4055:4118  require(token.transferFrom(msg.sender, address(this), _amount)) */\n          tag_26\n          jumpi\n          0x00\n          dup1\n          revert\n        tag_26:\n            /* \"shoot/摸底1/2/1.sol\":4160:4167  _amount */\n          dup1\n            /* \"shoot/摸底1/2/1.sol\":4129:4136  balance */\n          0x02\n            /* \"shoot/摸底1/2/1.sol\":4129:4148  balance[msg.sender] */\n          0x00\n            /* \"shoot/摸底1/2/1.sol\":4137:4147  msg.sender */\n          caller\n            /* \"shoot/摸底1/2/1.sol\":4129:4148  balance[msg.sender] */\n          0xffffffffffffffffffffffffffffffffffffffff\n          and\n          0xffffffffffffffffffffffffffffffffffffffff\n          and\n          dup2\n          mstore\n          0x20\n          add\n          swap1\n          dup2\n          mstore\n          0x20\n          add\n          0x00\n          keccak256\n          0x00\n            /* \"shoot/摸底1/2/1.sol\":4129:4168  balance[msg.sender] += uint128(_amount) */\n          dup3\n          dup3\n          dup3\n          swap1\n          sload\n          swap1\n          0x0100\n          exp\n          swap1\n          div\n          0xffffffffffffffffffffffffffffffff\n          and\n          add\n          swap3\n          pop\n          0x0100\n          exp\n          dup2\n          sload\n          dup2\n          0xffffffffffffffffffffffffffffffff\n          mul\n          not\n          and\n          swap1\n          dup4\n          0xffffffffffffffffffffffffffffffff\n          and\n          mul\n          or\n          swap1\n          sstore\n          pop\n            /* \"shoot/摸底1/2/1.sol\":4007:4176  function deposit(uint _amount) public{\r... */\n          pop\n          jump\t// out\n            /* \"shoot/摸底1/2/1.sol\":3824:3851  address public toen_address */\n        tag_13:\n          0x01\n          0x00\n          swap1\n          sload\n          swap1\n          0x0100\n          exp\n          swap1\n          div\n          0xffffffffffffffffffffffffffffffffffffffff\n          and\n          dup2\n          jump\t// out\n        stop\n        data_634e6d932cae9dba4b27f1a812b1b203af31a867f53452c1124fab457b9fec91 536f7272792c20796f7572206372656469742069732072756e6e696e67206c6f77\n\n        auxdata: 0xa2646970667358221220bd99916b75e4b38a937aba7c1985193c85e47baada2578176423d13951eb644f64736f6c634300060c0033\n    }\n\n    sub_1: assembly {\n            /* \"shoot/摸底1/2/1.sol\":3634:3780  contract Cuit is ERC20(\"CUIT TOKEN\", \"CUIT\"){\r... */\n          mstore(0x40, 0x80)\n            /* \"shoot/摸底1/2/1.sol\":3685:3775  constructor() public {\r... */\n          callvalue\n          dup1\n          iszero\n          tag_1\n          jumpi\n          0x00\n          dup1\n          revert\n        tag_1:\n          pop\n            /* \"shoot/摸底1/2/1.sol\":1401:1545  constructor(string memory name, string memory symbol) public {\r... */\n          mload(0x40)\n          dup1\n          0x40\n          add\n          0x40\n          mstore\n          dup1\n          0x0a\n          dup2\n          mstore\n          0x20\n          add\n          0x4355495420544f4b454e00000000000000000000000000000000000000000000\n          dup2\n          mstore\n          pop\n          mload(0x40)\n          dup1\n          0x40\n          add\n          0x40\n          mstore\n          dup1\n          0x04\n          dup2\n          mstore\n          0x20\n          add\n          0x4355495400000000000000000000000000000000000000000000000000000000\n          dup2\n          mstore\n          pop\n            /* \"shoot/摸底1/2/1.sol\":1481:1485  name */\n          dup2\n            /* \"shoot/摸底1/2/1.sol\":1473:1478  _name */\n          0x02\n            /* \"shoot/摸底1/2/1.sol\":1473:1485  _name = name */\n          swap1\n          dup1\n          mload\n          swap1\n          0x20\n          add\n          swap1\n          tag_5\n          swap3\n          swap2\n          swap1\n          tag_6\n          jump\t// in\n        tag_5:\n          pop\n            /* \"shoot/摸底1/2/1.sol\":1506:1512  symbol */\n          dup1\n            /* \"shoot/摸底1/2/1.sol\":1496:1503  _symbol */\n          0x03\n            /* \"shoot/摸底1/2/1.sol\":1496:1512  _symbol = symbol */\n          swap1\n          dup1\n          mload\n          swap1\n          0x20\n          add\n          swap1\n          tag_7\n          swap3\n          swap2\n          swap1\n          tag_6\n          jump\t// in\n        tag_7:\n          pop\n            /* \"shoot/摸底1/2/1.sol\":1535:1537  18 */\n          0x12\n            /* \"shoot/摸底1/2/1.sol\":1523:1532  _decimals */\n          0x04\n          0x00\n            /* \"shoot/摸底1/2/1.sol\":1523:1537  _decimals = 18 */\n          0x0100\n          exp\n          dup2\n          sload\n          dup2\n          0xff\n          mul\n          not\n          and\n          swap1\n          dup4\n          0xff\n          and\n          mul\n          or\n          swap1\n          sstore\n          pop\n            /* \"shoot/摸底1/2/1.sol\":1401:1545  constructor(string memory name, string memory symbol) public {\r... */\n          pop\n          pop\n            /* \"shoot/摸底1/2/1.sol\":3717:3767  _mint(msg.sender, 1000000000000000000000 * 10**18) */\n          tag_9\n            /* \"shoot/摸底1/2/1.sol\":3723:3733  msg.sender */\n          caller\n            /* \"shoot/摸底1/2/1.sol\":3735:3766  1000000000000000000000 * 10**18 */\n          0x02f050fe938943acc45f65568000000000\n            /* \"shoot/摸底1/2/1.sol\":3717:3722  _mint */\n          shl(0x20, tag_10)\n            /* \"shoot/摸底1/2/1.sol\":3717:3767  _mint(msg.sender, 1000000000000000000000 * 10**18) */\n          0x20\n          shr\n          jump\t// in\n        tag_9:\n            /* \"shoot/摸底1/2/1.sol\":3634:3780  contract Cuit is ERC20(\"CUIT TOKEN\", \"CUIT\"){\r... */\n          jump(tag_11)\n            /* \"shoot/摸底1/2/1.sol\":2857:3068  function _mint(address account, uint256 amount) internal virtual {\r... */\n        tag_10:\n            /* \"shoot/摸底1/2/1.sol\":2960:2961  0 */\n          0x00\n            /* \"shoot/摸底1/2/1.sol\":2941:2962  account != address(0) */\n          0xffffffffffffffffffffffffffffffffffffffff\n          and\n            /* \"shoot/摸底1/2/1.sol\":2941:2948  account */\n          dup3\n            /* \"shoot/摸底1/2/1.sol\":2941:2962  account != address(0) */\n          0xffffffffffffffffffffffffffffffffffffffff\n          and\n          eq\n          iszero\n            /* \"shoot/摸底1/2/1.sol\":2933:2998  require(account != address(0), \"ERC20: mint to the zero address\") */\n          tag_13\n          jumpi\n          mload(0x40)\n          0x08c379a000000000000000000000000000000000000000000000000000000000\n          dup2\n          mstore\n          0x04\n          add\n          dup1\n          dup1\n          0x20\n          add\n          dup3\n          dup2\n          sub\n          dup3\n          mstore\n          0x1f\n          dup2\n          mstore\n          0x20\n          add\n          dup1\n          0x45524332303a206d696e7420746f20746865207a65726f206164647265737300\n          dup2\n          mstore\n          pop\n          0x20\n          add\n          swap2\n          pop\n          pop\n          mload(0x40)\n          dup1\n          swap2\n          sub\n          swap1\n          revert\n        tag_13:\n            /* \"shoot/摸底1/2/1.sol\":3030:3060  _balances[account].add(amount) */\n          tag_14\n            /* \"shoot/摸底1/2/1.sol\":3053:3059  amount */\n          dup2\n            /* \"shoot/摸底1/2/1.sol\":3030:3039  _balances */\n          0x00\n            /* \"shoot/摸底1/2/1.sol\":3030:3048  _balances[account] */\n          dup1\n            /* \"shoot/摸底1/2/1.sol\":3040:3047  account */\n          dup6\n            /* \"shoot/摸底1/2/1.sol\":3030:3048  _balances[account] */\n          0xffffffffffffffffffffffffffffffffffffffff\n          and\n          0xffffffffffffffffffffffffffffffffffffffff\n          and\n          dup2\n          mstore\n          0x20\n          add\n          swap1\n          dup2\n          mstore\n          0x20\n          add\n          0x00\n          keccak256\n          sload\n            /* \"shoot/摸底1/2/1.sol\":3030:3052  _balances[account].add */\n          or(tag_0_45, shl(0x20, tag_15))\n          swap1\n            /* \"shoot/摸底1/2/1.sol\":3030:3060  _balances[account].add(amount) */\n          swap2\n          swap1\n          0x20\n          shr\n          jump\t// in\n        tag_14:\n            /* \"shoot/摸底1/2/1.sol\":3009:3018  _balances */\n          0x00\n            /* \"shoot/摸底1/2/1.sol\":3009:3027  _balances[account] */\n          dup1\n            /* \"shoot/摸底1/2/1.sol\":3019:3026  account */\n          dup5\n            /* \"shoot/摸底1/2/1.sol\":3009:3027  _balances[account] */\n          0xffffffffffffffffffffffffffffffffffffffff\n          and\n          0xffffffffffffffffffffffffffffffffffffffff\n          and\n          dup2\n          mstore\n          0x20\n          add\n          swap1\n          dup2\n          mstore\n          0x20\n          add\n          0x00\n          keccak256\n            /* \"shoot/摸底1/2/1.sol\":3009:3060  _balances[account] = _balances[account].add(amount) */\n          dup2\n          swap1\n          sstore\n          pop\n            /* \"shoot/摸底1/2/1.sol\":2857:3068  function _mint(address account, uint256 amount) internal virtual {\r... */\n          pop\n          pop\n          jump\t// out\n            /* \"shoot/摸底1/2/1.sol\":146:327  function add(uint256 a, uint256 b) internal pure returns (uint256) {\r... */\n        tag_15:\n            /* \"shoot/摸底1/2/1.sol\":204:211  uint256 */\n          0x00\n            /* \"shoot/摸底1/2/1.sol\":224:233  uint256 c */\n          dup1\n            /* \"shoot/摸底1/2/1.sol\":240:241  b */\n          dup3\n            /* \"shoot/摸底1/2/1.sol\":236:237  a */\n          dup5\n            /* \"shoot/摸底1/2/1.sol\":236:241  a + b */\n          add\n            /* \"shoot/摸底1/2/1.sol\":224:241  uint256 c = a + b */\n          swap1\n          pop\n            /* \"shoot/摸底1/2/1.sol\":265:266  a */\n          dup4\n            /* \"shoot/摸底1/2/1.sol\":260:261  c */\n          dup2\n            /* \"shoot/摸底1/2/1.sol\":260:266  c >= a */\n          lt\n          iszero\n            /* \"shoot/摸底1/2/1.sol\":252:298  require(c >= a, \"SafeMath: addition overflow\") */\n          tag_17\n          jumpi\n          mload(0x40)\n          0x08c379a000000000000000000000000000000000000000000000000000000000\n          dup2\n          mstore\n          0x04\n          add\n          dup1\n          dup1\n          0x20\n          add\n          dup3\n          dup2\n          sub\n          dup3\n          mstore\n          0x1b\n          dup2\n          mstore\n          0x20\n          add\n          dup1\n          0x536166654d6174683a206164646974696f6e206f766572666c6f770000000000\n          dup2\n          mstore\n          pop\n          0x20\n          add\n          swap2\n          pop\n          pop\n          mload(0x40)\n          dup1\n          swap2\n          sub\n          swap1\n          revert\n        tag_17:\n            /* \"shoot/摸底1/2/1.sol\":318:319  c */\n          dup1\n            /* \"shoot/摸底1/2/1.sol\":311:319  return c */\n          swap2\n          pop\n          pop\n            /* \"shoot/摸底1/2/1.sol\":146:327  function add(uint256 a, uint256 b) internal pure returns (uint256) {\r... */\n          swap3\n          swap2\n          pop\n          pop\n          jump\t// out\n            /* \"shoot/摸底1/2/1.sol\":3634:3780  contract Cuit is ERC20(\"CUIT TOKEN\", \"CUIT\"){\r... */\n        tag_6:\n          dup3\n          dup1\n          sload\n          0x01\n          dup2\n          0x01\n          and\n          iszero\n          0x0100\n          mul\n          sub\n          and\n          0x02\n          swap1\n          div\n          swap1\n          0x00\n          mstore\n          keccak256(0x00, 0x20)\n          swap1\n          0x1f\n          add\n          0x20\n          swap1\n          div\n          dup2\n          add\n          swap3\n          dup3\n          0x1f\n          lt\n          tag_19\n          jumpi\n          dup1\n          mload\n          not(0xff)\n          and\n          dup4\n          dup1\n          add\n          or\n          dup6\n          sstore\n          jump(tag_18)\n        tag_19:\n          dup3\n          dup1\n          add\n          0x01\n          add\n          dup6\n          sstore\n          dup3\n          iszero\n          tag_18\n          jumpi\n          swap2\n          dup3\n          add\n        tag_20:\n          dup3\n          dup2\n          gt\n          iszero\n          tag_21\n          jumpi\n          dup3\n          mload\n          dup3\n          sstore\n          swap2\n          0x20\n          add\n          swap2\n          swap1\n          0x01\n          add\n          swap1\n          jump(tag_20)\n        tag_21:\n        tag_18:\n          pop\n          swap1\n          pop\n          tag_22\n          swap2\n          swap1\n          tag_23\n          jump\t// in\n        tag_22:\n          pop\n          swap1\n          jump\t// out\n        tag_23:\n        tag_24:\n          dup1\n          dup3\n          gt\n          iszero\n          tag_25\n          jumpi\n          0x00\n          dup2\n          0x00\n          swap1\n          sstore\n          pop\n          0x01\n          add\n          jump(tag_24)\n        tag_25:\n          pop\n          swap1\n          jump\t// out\n        tag_11:\n          dataSize(sub_0)\n          dup1\n          dataOffset(sub_0)\n          0x00\n          codecopy\n          0x00\n          return\n        stop\n\n        sub_0: assembly {\n                /* \"shoot/摸底1/2/1.sol\":3634:3780  contract Cuit is ERC20(\"CUIT TOKEN\", \"CUIT\"){\r... */\n              mstore(0x40, 0x80)\n              callvalue\n              dup1\n              iszero\n              tag_1\n              jumpi\n              0x00\n              dup1\n              revert\n            tag_1:\n              pop\n              jumpi(tag_2, lt(calldatasize, 0x04))\n              shr(0xe0, calldataload(0x00))\n              dup1\n              0x6ebcf607\n              gt\n              tag_12\n              jumpi\n              dup1\n              0x6ebcf607\n              eq\n              tag_7\n              jumpi\n              dup1\n              0x70a08231\n              eq\n              tag_8\n              jumpi\n              dup1\n              0xa9059cbb\n              eq\n              tag_9\n              jumpi\n              dup1\n              0xb09f1266\n              eq\n              tag_10\n              jumpi\n              dup1\n              0xd28d8852\n              eq\n              tag_11\n              jumpi\n              jump(tag_2)\n            tag_12:\n              dup1\n              0x024c2ddd\n              eq\n              tag_3\n              jumpi\n              dup1\n              0x095ea7b3\n              eq\n              tag_4\n              jumpi\n              dup1\n              0x23b872dd\n              eq\n              tag_5\n              jumpi\n              dup1\n              0x32424aa3\n              eq\n              tag_6\n              jumpi\n            tag_2:\n              0x00\n              dup1\n              revert\n                /* \"shoot/摸底1/2/1.sol\":1241:1307  mapping(address => mapping(address => uint256)) public _allowances */\n            tag_3:\n              tag_13\n              0x04\n              dup1\n              calldatasize\n              sub\n              0x40\n              dup2\n              lt\n              iszero\n              tag_14\n              jumpi\n              0x00\n              dup1\n              revert\n            tag_14:\n              dup2\n              add\n              swap1\n              dup1\n              dup1\n              calldataload\n              0xffffffffffffffffffffffffffffffffffffffff\n              and\n              swap1\n              0x20\n              add\n              swap1\n              swap3\n              swap2\n              swap1\n              dup1\n              calldataload\n              0xffffffffffffffffffffffffffffffffffffffff\n              and\n              swap1\n              0x20\n              add\n              swap1\n              swap3\n              swap2\n              swap1\n              pop\n              pop\n              pop\n              tag_15\n              jump\t// in\n            tag_13:\n              mload(0x40)\n              dup1\n              dup3\n              dup2\n              mstore\n              0x20\n              add\n              swap2\n              pop\n              pop\n              mload(0x40)\n              dup1\n              swap2\n              sub\n              swap1\n              return\n                /* \"shoot/摸底1/2/1.sol\":1875:2065  function approve(address spender, uint256 amount)\r... */\n            tag_4:\n              tag_16\n              0x04\n              dup1\n              calldatasize\n              sub\n              0x40\n              dup2\n              lt\n              iszero\n              tag_17\n              jumpi\n              0x00\n              dup1\n              revert\n            tag_17:\n              dup2\n              add\n              swap1\n              dup1\n              dup1\n              calldataload\n              0xffffffffffffffffffffffffffffffffffffffff\n              and\n              swap1\n              0x20\n              add\n              swap1\n              swap3\n              swap2\n              swap1\n              dup1\n              calldataload\n              swap1\n              0x20\n              add\n              swap1\n              swap3\n              swap2\n              swap1\n              pop\n              pop\n              pop\n              tag_18\n              jump\t// in\n            tag_16:\n              mload(0x40)\n              dup1\n              dup3\n              iszero\n              iszero\n              dup2\n              mstore\n              0x20\n              add\n              swap2\n              pop\n              pop\n              mload(0x40)\n              dup1\n              swap2\n              sub\n              swap1\n              return\n                /* \"shoot/摸底1/2/1.sol\":2073:2421  function transferFrom(\r... */\n            tag_5:\n              tag_19\n              0x04\n              dup1\n              calldatasize\n              sub\n              0x60\n              dup2\n              lt\n              iszero\n              tag_20\n              jumpi\n              0x00\n              dup1\n              revert\n            tag_20:\n              dup2\n              add\n              swap1\n              dup1\n              dup1\n              calldataload\n              0xffffffffffffffffffffffffffffffffffffffff\n              and\n              swap1\n              0x20\n              add\n              swap1\n              swap3\n              swap2\n              swap1\n              dup1\n              calldataload\n              0xffffffffffffffffffffffffffffffffffffffff\n              and\n              swap1\n              0x20\n              add\n              swap1\n              swap3\n              swap2\n              swap1\n              dup1\n              calldataload\n              swap1\n              0x20\n              add\n              swap1\n              swap3\n              swap2\n              swap1\n              pop\n              pop\n              pop\n              tag_21\n              jump\t// in\n            tag_19:\n              mload(0x40)\n              dup1\n              dup3\n              iszero\n              iszero\n              dup2\n              mstore\n              0x20\n              add\n              swap2\n              pop\n              pop\n              mload(0x40)\n              dup1\n              swap2\n              sub\n              swap1\n              return\n                /* \"shoot/摸底1/2/1.sol\":1370:1392  uint8 public _decimals */\n            tag_6:\n              tag_22\n              tag_23\n              jump\t// in\n            tag_22:\n              mload(0x40)\n              dup1\n              dup3\n              0xff\n              and\n              dup2\n              mstore\n              0x20\n              add\n              swap2\n              pop\n              pop\n              mload(0x40)\n              dup1\n              swap2\n              sub\n              swap1\n              return\n                /* \"shoot/摸底1/2/1.sol\":1188:1232  mapping(address => uint256) public _balances */\n            tag_7:\n              tag_24\n              0x04\n              dup1\n              calldatasize\n              sub\n              0x20\n              dup2\n              lt\n              iszero\n              tag_25\n              jumpi\n              0x00\n              dup1\n              revert\n            tag_25:\n              dup2\n              add\n              swap1\n              dup1\n              dup1\n              calldataload\n              0xffffffffffffffffffffffffffffffffffffffff\n              and\n              swap1\n              0x20\n              add\n              swap1\n              swap3\n              swap2\n              swap1\n              pop\n              pop\n              pop\n              tag_26\n              jump\t// in\n            tag_24:\n              mload(0x40)\n              dup1\n              dup3\n              dup2\n              mstore\n              0x20\n              add\n              swap2\n              pop\n              pop\n              mload(0x40)\n              dup1\n              swap2\n              sub\n              swap1\n              return\n                /* \"shoot/摸底1/2/1.sol\":1553:1663  function balanceOf(address account) public view returns (uint256) {\r... */\n            tag_8:\n              tag_27\n              0x04\n              dup1\n              calldatasize\n              sub\n              0x20\n              dup2\n              lt\n              iszero\n              tag_28\n              jumpi\n              0x00\n              dup1\n              revert\n            tag_28:\n              dup2\n              add\n              swap1\n              dup1\n              dup1\n              calldataload\n              0xffffffffffffffffffffffffffffffffffffffff\n              and\n              swap1\n              0x20\n              add\n              swap1\n              swap3\n              swap2\n              swap1\n              pop\n              pop\n              pop\n              tag_29\n              jump\t// in\n            tag_27:\n              mload(0x40)\n              dup1\n              dup3\n              dup2\n              mstore\n              0x20\n              add\n              swap2\n              pop\n              pop\n              mload(0x40)\n              dup1\n              swap2\n              sub\n              swap1\n              return\n                /* \"shoot/摸底1/2/1.sol\":1671:1867  function transfer(address recipient, uint256 amount)\r... */\n            tag_9:\n              tag_30\n              0x04\n              dup1\n              calldatasize\n              sub\n              0x40\n              dup2\n              lt\n              iszero\n              tag_31\n              jumpi\n              0x00\n              dup1\n              revert\n            tag_31:\n              dup2\n              add\n              swap1\n              dup1\n              dup1\n              calldataload\n              0xffffffffffffffffffffffffffffffffffffffff\n              and\n              swap1\n              0x20\n              add\n              swap1\n              swap3\n              swap2\n              swap1\n              dup1\n              calldataload\n              swap1\n              0x20\n              add\n              swap1\n              swap3\n              swap2\n              swap1\n              pop\n              pop\n              pop\n              tag_32\n              jump\t// in\n            tag_30:\n              mload(0x40)\n              dup1\n              dup3\n              iszero\n              iszero\n              dup2\n              mstore\n              0x20\n              add\n              swap2\n              pop\n              pop\n              mload(0x40)\n              dup1\n              swap2\n              sub\n              swap1\n              return\n                /* \"shoot/摸底1/2/1.sol\":1342:1363  string public _symbol */\n            tag_10:\n              tag_33\n              tag_34\n              jump\t// in\n            tag_33:\n              mload(0x40)\n              dup1\n              dup1\n              0x20\n              add\n              dup3\n              dup2\n              sub\n              dup3\n              mstore\n              dup4\n              dup2\n              dup2\n              mload\n              dup2\n              mstore\n              0x20\n              add\n              swap2\n              pop\n              dup1\n              mload\n              swap1\n              0x20\n              add\n              swap1\n              dup1\n              dup4\n              dup4\n              0x00\n            tag_35:\n              dup4\n              dup2\n              lt\n              iszero\n              tag_37\n              jumpi\n              dup1\n              dup3\n              add\n              mload\n              dup2\n              dup5\n              add\n              mstore\n              0x20\n              dup2\n              add\n              swap1\n              pop\n              jump(tag_35)\n            tag_37:\n              pop\n              pop\n              pop\n              pop\n              swap1\n              pop\n              swap1\n              dup2\n              add\n              swap1\n              0x1f\n              and\n              dup1\n              iszero\n              tag_38\n              jumpi\n              dup1\n              dup3\n              sub\n              dup1\n              mload\n              0x01\n              dup4\n              0x20\n              sub\n              0x0100\n              exp\n              sub\n              not\n              and\n              dup2\n              mstore\n              0x20\n              add\n              swap2\n              pop\n            tag_38:\n              pop\n              swap3\n              pop\n              pop\n              pop\n              mload(0x40)\n              dup1\n              swap2\n              sub\n              swap1\n              return\n                /* \"shoot/摸底1/2/1.sol\":1316:1335  string public _name */\n            tag_11:\n              tag_39\n              tag_40\n              jump\t// in\n            tag_39:\n              mload(0x40)\n              dup1\n              dup1\n              0x20\n              add\n              dup3\n              dup2\n              sub\n              dup3\n              mstore\n              dup4\n              dup2\n              dup2\n              mload\n              dup2\n              mstore\n              0x20\n              add\n              swap2\n              pop\n              dup1\n              mload\n              swap1\n              0x20\n              add\n              swap1\n              dup1\n              dup4\n              dup4\n              0x00\n            tag_41:\n              dup4\n              dup2\n              lt\n              iszero\n              tag_43\n              jumpi\n              dup1\n              dup3\n              add\n              mload\n              dup2\n              dup5\n              add\n              mstore\n              0x20\n              dup2\n              add\n              swap1\n              pop\n              jump(tag_41)\n            tag_43:\n              pop\n              pop\n              pop\n              pop\n              swap1\n              pop\n              swap1\n              dup2\n              add\n              swap1\n              0x1f\n              and\n              dup1\n              iszero\n              tag_44\n              jumpi\n              dup1\n              dup3\n              sub\n              dup1\n              mload\n              0x01\n              dup4\n              0x20\n              sub\n              0x0100\n              exp\n              sub\n              not\n              and\n              dup2\n              mstore\n              0x20\n              add\n              swap2\n              pop\n            tag_44:\n              pop\n              swap3\n              pop\n              pop\n              pop\n              mload(0x40)\n              dup1\n              swap2\n              sub\n              swap1\n              return\n                /* \"shoot/摸底1/2/1.sol\":1241:1307  mapping(address => mapping(address => uint256)) public _allowances */\n            tag_15:\n              mstore(0x20, 0x01)\n              dup2\n              0x00\n              mstore\n              mstore(0x20, keccak256(0x00, 0x40))\n              dup1\n              0x00\n              mstore\n              keccak256(0x00, 0x40)\n              0x00\n              swap2\n              pop\n              swap2\n              pop\n              pop\n              sload\n              dup2\n              jump\t// out\n                /* \"shoot/摸底1/2/1.sol\":1875:2065  function approve(address spender, uint256 amount)\r... */\n            tag_18:\n                /* \"shoot/摸底1/2/1.sol\":1976:1980  bool */\n              0x00\n                /* \"shoot/摸底1/2/1.sol\":1998:2035  _approve(msg.sender, spender, amount) */\n              tag_47\n                /* \"shoot/摸底1/2/1.sol\":2007:2017  msg.sender */\n              caller\n                /* \"shoot/摸底1/2/1.sol\":2019:2026  spender */\n              dup5\n                /* \"shoot/摸底1/2/1.sol\":2028:2034  amount */\n              dup5\n                /* \"shoot/摸底1/2/1.sol\":1998:2006  _approve */\n              tag_48\n                /* \"shoot/摸底1/2/1.sol\":1998:2035  _approve(msg.sender, spender, amount) */\n              jump\t// in\n            tag_47:\n                /* \"shoot/摸底1/2/1.sol\":2053:2057  true */\n              0x01\n                /* \"shoot/摸底1/2/1.sol\":2046:2057  return true */\n              swap1\n              pop\n                /* \"shoot/摸底1/2/1.sol\":1875:2065  function approve(address spender, uint256 amount)\r... */\n              swap3\n              swap2\n              pop\n              pop\n              jump\t// out\n                /* \"shoot/摸底1/2/1.sol\":2073:2421  function transferFrom(\r... */\n            tag_21:\n                /* \"shoot/摸底1/2/1.sol\":2204:2208  bool */\n              0x00\n                /* \"shoot/摸底1/2/1.sol\":2221:2257  _transfer(sender, recipient, amount) */\n              tag_50\n                /* \"shoot/摸底1/2/1.sol\":2231:2237  sender */\n              dup5\n                /* \"shoot/摸底1/2/1.sol\":2239:2248  recipient */\n              dup5\n                /* \"shoot/摸底1/2/1.sol\":2250:2256  amount */\n              dup5\n                /* \"shoot/摸底1/2/1.sol\":2221:2230  _transfer */\n              tag_51\n                /* \"shoot/摸底1/2/1.sol\":2221:2257  _transfer(sender, recipient, amount) */\n              jump\t// in\n            tag_50:\n                /* \"shoot/摸底1/2/1.sol\":2268:2391  _approve(\r... */\n              tag_52\n                /* \"shoot/摸底1/2/1.sol\":2291:2297  sender */\n              dup5\n                /* \"shoot/摸底1/2/1.sol\":2312:2322  msg.sender */\n              caller\n                /* \"shoot/摸底1/2/1.sol\":2337:2380  _allowances[sender][msg.sender].sub(amount) */\n              tag_53\n                /* \"shoot/摸底1/2/1.sol\":2373:2379  amount */\n              dup6\n                /* \"shoot/摸底1/2/1.sol\":2337:2348  _allowances */\n              0x01\n                /* \"shoot/摸底1/2/1.sol\":2337:2356  _allowances[sender] */\n              0x00\n                /* \"shoot/摸底1/2/1.sol\":2349:2355  sender */\n              dup11\n                /* \"shoot/摸底1/2/1.sol\":2337:2356  _allowances[sender] */\n              0xffffffffffffffffffffffffffffffffffffffff\n              and\n              0xffffffffffffffffffffffffffffffffffffffff\n              and\n              dup2\n              mstore\n              0x20\n              add\n              swap1\n              dup2\n              mstore\n              0x20\n              add\n              0x00\n              keccak256\n                /* \"shoot/摸底1/2/1.sol\":2337:2368  _allowances[sender][msg.sender] */\n              0x00\n                /* \"shoot/摸底1/2/1.sol\":2357:2367  msg.sender */\n              caller\n                /* \"shoot/摸底1/2/1.sol\":2337:2368  _allowances[sender][msg.sender] */\n              0xffffffffffffffffffffffffffffffffffffffff\n              and\n              0xffffffffffffffffffffffffffffffffffffffff\n              and\n              dup2\n              mstore\n              0x20\n              add\n              swap1\n              dup2\n              mstore\n              0x20\n              add\n              0x00\n              keccak256\n              sload\n                /* \"shoot/摸底1/2/1.sol\":2337:2372  _allowances[sender][msg.sender].sub */\n              tag_54\n              swap1\n                /* \"shoot/摸底1/2/1.sol\":2337:2380  _allowances[sender][msg.sender].sub(amount) */\n              swap2\n              swap1\n              0xffffffff\n              and\n              jump\t// in\n            tag_53:\n                /* \"shoot/摸底1/2/1.sol\":2268:2276  _approve */\n              tag_48\n                /* \"shoot/摸底1/2/1.sol\":2268:2391  _approve(\r... */\n              jump\t// in\n            tag_52:\n                /* \"shoot/摸底1/2/1.sol\":2409:2413  true */\n              0x01\n                /* \"shoot/摸底1/2/1.sol\":2402:2413  return true */\n              swap1\n              pop\n                /* \"shoot/摸底1/2/1.sol\":2073:2421  function transferFrom(\r... */\n              swap4\n              swap3\n              pop\n              pop\n              pop\n              jump\t// out\n                /* \"shoot/摸底1/2/1.sol\":1370:1392  uint8 public _decimals */\n            tag_23:\n              0x04\n              0x00\n              swap1\n              sload\n              swap1\n              0x0100\n              exp\n              swap1\n              div\n              0xff\n              and\n              dup2\n              jump\t// out\n                /* \"shoot/摸底1/2/1.sol\":1188:1232  mapping(address => uint256) public _balances */\n            tag_26:\n              mstore(0x20, 0x00)\n              dup1\n              0x00\n              mstore\n              keccak256(0x00, 0x40)\n              0x00\n              swap2\n              pop\n              swap1\n              pop\n              sload\n              dup2\n              jump\t// out\n                /* \"shoot/摸底1/2/1.sol\":1553:1663  function balanceOf(address account) public view returns (uint256) {\r... */\n            tag_29:\n                /* \"shoot/摸底1/2/1.sol\":1610:1617  uint256 */\n              0x00\n                /* \"shoot/摸底1/2/1.sol\":1637:1646  _balances */\n              dup1\n                /* \"shoot/摸底1/2/1.sol\":1637:1655  _balances[account] */\n              0x00\n                /* \"shoot/摸底1/2/1.sol\":1647:1654  account */\n              dup4\n                /* \"shoot/摸底1/2/1.sol\":1637:1655  _balances[account] */\n              0xffffffffffffffffffffffffffffffffffffffff\n              and\n              0xffffffffffffffffffffffffffffffffffffffff\n              and\n              dup2\n              mstore\n              0x20\n              add\n              swap1\n              dup2\n              mstore\n              0x20\n              add\n              0x00\n              keccak256\n              sload\n                /* \"shoot/摸底1/2/1.sol\":1630:1655  return _balances[account] */\n              swap1\n              pop\n                /* \"shoot/摸底1/2/1.sol\":1553:1663  function balanceOf(address account) public view returns (uint256) {\r... */\n              swap2\n              swap1\n              pop\n              jump\t// out\n                /* \"shoot/摸底1/2/1.sol\":1671:1867  function transfer(address recipient, uint256 amount)\r... */\n            tag_32:\n                /* \"shoot/摸底1/2/1.sol\":1775:1779  bool */\n              0x00\n                /* \"shoot/摸底1/2/1.sol\":1797:1837  _transfer(msg.sender, recipient, amount) */\n              tag_57\n                /* \"shoot/摸底1/2/1.sol\":1807:1817  msg.sender */\n              caller\n                /* \"shoot/摸底1/2/1.sol\":1819:1828  recipient */\n              dup5\n                /* \"shoot/摸底1/2/1.sol\":1830:1836  amount */\n              dup5\n                /* \"shoot/摸底1/2/1.sol\":1797:1806  _transfer */\n              tag_51\n                /* \"shoot/摸底1/2/1.sol\":1797:1837  _transfer(msg.sender, recipient, amount) */\n              jump\t// in\n            tag_57:\n                /* \"shoot/摸底1/2/1.sol\":1855:1859  true */\n              0x01\n                /* \"shoot/摸底1/2/1.sol\":1848:1859  return true */\n              swap1\n              pop\n                /* \"shoot/摸底1/2/1.sol\":1671:1867  function transfer(address recipient, uint256 amount)\r... */\n              swap3\n              swap2\n              pop\n              pop\n              jump\t// out\n                /* \"shoot/摸底1/2/1.sol\":1342:1363  string public _symbol */\n            tag_34:\n              0x03\n              dup1\n              sload\n              0x01\n              dup2\n              0x01\n              and\n              iszero\n              0x0100\n              mul\n              sub\n              and\n              0x02\n              swap1\n              div\n              dup1\n              0x1f\n              add\n              0x20\n              dup1\n              swap2\n              div\n              mul\n              0x20\n              add\n              mload(0x40)\n              swap1\n              dup2\n              add\n              0x40\n              mstore\n              dup1\n              swap3\n              swap2\n              swap1\n              dup2\n              dup2\n              mstore\n              0x20\n              add\n              dup3\n              dup1\n              sload\n              0x01\n              dup2\n              0x01\n              and\n              iszero\n              0x0100\n              mul\n              sub\n              and\n              0x02\n              swap1\n              div\n              dup1\n              iszero\n              tag_58\n              jumpi\n              dup1\n              0x1f\n              lt\n              tag_59\n              jumpi\n              0x0100\n              dup1\n              dup4\n              sload\n              div\n              mul\n              dup4\n              mstore\n              swap2\n              0x20\n              add\n              swap2\n              jump(tag_58)\n            tag_59:\n              dup3\n              add\n              swap2\n              swap1\n              0x00\n              mstore\n              keccak256(0x00, 0x20)\n              swap1\n            tag_60:\n              dup2\n              sload\n              dup2\n              mstore\n              swap1\n              0x01\n              add\n              swap1\n              0x20\n              add\n              dup1\n              dup4\n              gt\n              tag_60\n              jumpi\n              dup3\n              swap1\n              sub\n              0x1f\n              and\n              dup3\n              add\n              swap2\n            tag_58:\n              pop\n              pop\n              pop\n              pop\n              pop\n              dup2\n              jump\t// out\n                /* \"shoot/摸底1/2/1.sol\":1316:1335  string public _name */\n            tag_40:\n              0x02\n              dup1\n              sload\n              0x01\n              dup2\n              0x01\n              and\n              iszero\n              0x0100\n              mul\n              sub\n              and\n              0x02\n              swap1\n              div\n              dup1\n              0x1f\n              add\n              0x20\n              dup1\n              swap2\n              div\n              mul\n              0x20\n              add\n              mload(0x40)\n              swap1\n              dup2\n              add\n              0x40\n              mstore\n              dup1\n              swap3\n              swap2\n              swap1\n              dup2\n              dup2\n              mstore\n              0x20\n              add\n              dup3\n              dup1\n              sload\n              0x01\n              dup2\n              0x01\n              and\n              iszero\n              0x0100\n              mul\n              sub\n              and\n              0x02\n              swap1\n              div\n              dup1\n              iszero\n              tag_61\n              jumpi\n              dup1\n              0x1f\n              lt\n              tag_62\n              jumpi\n              0x0100\n              dup1\n              dup4\n              sload\n              div\n              mul\n              dup4\n              mstore\n              swap2\n              0x20\n              add\n              swap2\n              jump(tag_61)\n            tag_62:\n              dup3\n              add\n              swap2\n              swap1\n              0x00\n              mstore\n              keccak256(0x00, 0x20)\n              swap1\n            tag_63:\n              dup2\n              sload\n              dup2\n              mstore\n              swap1\n              0x01\n              add\n              swap1\n              0x20\n              add\n              dup1\n              dup4\n              gt\n              tag_63\n              jumpi\n              dup3\n              swap1\n              sub\n              0x1f\n              and\n              dup3\n              add\n              swap2\n            tag_61:\n              pop\n              pop\n              pop\n              pop\n              pop\n              dup2\n              jump\t// out\n                /* \"shoot/摸底1/2/1.sol\":146:327  function add(uint256 a, uint256 b) internal pure returns (uint256) {\r... */\n            tag_45:\n                /* \"shoot/摸底1/2/1.sol\":204:211  uint256 */\n              0x00\n                /* \"shoot/摸底1/2/1.sol\":224:233  uint256 c */\n              dup1\n                /* \"shoot/摸底1/2/1.sol\":240:241  b */\n              dup3\n                /* \"shoot/摸底1/2/1.sol\":236:237  a */\n              dup5\n                /* \"shoot/摸底1/2/1.sol\":236:241  a + b */\n              add\n                /* \"shoot/摸底1/2/1.sol\":224:241  uint256 c = a + b */\n              swap1\n              pop\n                /* \"shoot/摸底1/2/1.sol\":265:266  a */\n              dup4\n                /* \"shoot/摸底1/2/1.sol\":260:261  c */\n              dup2\n                /* \"shoot/摸底1/2/1.sol\":260:266  c >= a */\n              lt\n              iszero\n                /* \"shoot/摸底1/2/1.sol\":252:298  require(c >= a, \"SafeMath: addition overflow\") */\n              tag_65\n              jumpi\n              mload(0x40)\n              0x08c379a000000000000000000000000000000000000000000000000000000000\n              dup2\n              mstore\n              0x04\n              add\n              dup1\n              dup1\n              0x20\n              add\n              dup3\n              dup2\n              sub\n              dup3\n              mstore\n              0x1b\n              dup2\n              mstore\n              0x20\n              add\n              dup1\n              0x536166654d6174683a206164646974696f6e206f766572666c6f770000000000\n              dup2\n              mstore\n              pop\n              0x20\n              add\n              swap2\n              pop\n              pop\n              mload(0x40)\n              dup1\n              swap2\n              sub\n              swap1\n              revert\n            tag_65:\n                /* \"shoot/摸底1/2/1.sol\":318:319  c */\n              dup1\n                /* \"shoot/摸底1/2/1.sol\":311:319  return c */\n              swap2\n              pop\n              pop\n                /* \"shoot/摸底1/2/1.sol\":146:327  function add(uint256 a, uint256 b) internal pure returns (uint256) {\r... */\n              swap3\n              swap2\n              pop\n              pop\n              jump\t// out\n                /* \"shoot/摸底1/2/1.sol\":3297:3627  function _approve(\r... */\n            tag_48:\n                /* \"shoot/摸底1/2/1.sol\":3450:3451  0 */\n              0x00\n                /* \"shoot/摸底1/2/1.sol\":3433:3452  owner != address(0) */\n              0xffffffffffffffffffffffffffffffffffffffff\n              and\n                /* \"shoot/摸底1/2/1.sol\":3433:3438  owner */\n              dup4\n                /* \"shoot/摸底1/2/1.sol\":3433:3452  owner != address(0) */\n              0xffffffffffffffffffffffffffffffffffffffff\n              and\n              eq\n              iszero\n                /* \"shoot/摸底1/2/1.sol\":3425:3493  require(owner != address(0), \"ERC20: approve from the zero address\") */\n              tag_67\n              jumpi\n              mload(0x40)\n              0x08c379a000000000000000000000000000000000000000000000000000000000\n              dup2\n              mstore\n              0x04\n              add\n              dup1\n              dup1\n              0x20\n              add\n              dup3\n              dup2\n              sub\n              dup3\n              mstore\n              0x24\n              dup2\n              mstore\n              0x20\n              add\n              dup1\n              data_c953f4879035ed60e766b34720f656aab5c697b141d924c283124ecedb91c208\n              0x24\n              swap2\n              codecopy\n              0x40\n              add\n              swap2\n              pop\n              pop\n              mload(0x40)\n              dup1\n              swap2\n              sub\n              swap1\n              revert\n            tag_67:\n                /* \"shoot/摸底1/2/1.sol\":3531:3532  0 */\n              0x00\n                /* \"shoot/摸底1/2/1.sol\":3512:3533  spender != address(0) */\n              0xffffffffffffffffffffffffffffffffffffffff\n              and\n                /* \"shoot/摸底1/2/1.sol\":3512:3519  spender */\n              dup3\n                /* \"shoot/摸底1/2/1.sol\":3512:3533  spender != address(0) */\n              0xffffffffffffffffffffffffffffffffffffffff\n              and\n              eq\n              iszero\n                /* \"shoot/摸底1/2/1.sol\":3504:3572  require(spender != address(0), \"ERC20: approve to the zero address\") */\n              tag_68\n              jumpi\n              mload(0x40)\n              0x08c379a000000000000000000000000000000000000000000000000000000000\n              dup2\n              mstore\n              0x04\n              add\n              dup1\n              dup1\n              0x20\n              add\n              dup3\n              dup2\n              sub\n              dup3\n              mstore\n              0x22\n              dup2\n              mstore\n              0x20\n              add\n              dup1\n              data_24883cc5fe64ace9d0df1893501ecb93c77180f0ff69cca79affb3c316dc8029\n              0x22\n              swap2\n              codecopy\n              0x40\n              add\n              swap2\n              pop\n              pop\n              mload(0x40)\n              dup1\n              swap2\n              sub\n              swap1\n              revert\n            tag_68:\n                /* \"shoot/摸底1/2/1.sol\":3613:3619  amount */\n              dup1\n                /* \"shoot/摸底1/2/1.sol\":3583:3594  _allowances */\n              0x01\n                /* \"shoot/摸底1/2/1.sol\":3583:3601  _allowances[owner] */\n              0x00\n                /* \"shoot/摸底1/2/1.sol\":3595:3600  owner */\n              dup6\n                /* \"shoot/摸底1/2/1.sol\":3583:3601  _allowances[owner] */\n              0xffffffffffffffffffffffffffffffffffffffff\n              and\n              0xffffffffffffffffffffffffffffffffffffffff\n              and\n              dup2\n              mstore\n              0x20\n              add\n              swap1\n              dup2\n              mstore\n              0x20\n              add\n              0x00\n              keccak256\n                /* \"shoot/摸底1/2/1.sol\":3583:3610  _allowances[owner][spender] */\n              0x00\n                /* \"shoot/摸底1/2/1.sol\":3602:3609  spender */\n              dup5\n                /* \"shoot/摸底1/2/1.sol\":3583:3610  _allowances[owner][spender] */\n              0xffffffffffffffffffffffffffffffffffffffff\n              and\n              0xffffffffffffffffffffffffffffffffffffffff\n              and\n              dup2\n              mstore\n              0x20\n              add\n              swap1\n              dup2\n              mstore\n              0x20\n              add\n              0x00\n              keccak256\n                /* \"shoot/摸底1/2/1.sol\":3583:3619  _allowances[owner][spender] = amount */\n              dup2\n              swap1\n              sstore\n              pop\n                /* \"shoot/摸底1/2/1.sol\":3297:3627  function _approve(\r... */\n              pop\n              pop\n              pop\n              jump\t// out\n                /* \"shoot/摸底1/2/1.sol\":2429:2849  function _transfer(\r... */\n            tag_51:\n                /* \"shoot/摸底1/2/1.sol\":2587:2588  0 */\n              0x00\n                /* \"shoot/摸底1/2/1.sol\":2569:2589  sender != address(0) */\n              0xffffffffffffffffffffffffffffffffffffffff\n              and\n                /* \"shoot/摸底1/2/1.sol\":2569:2575  sender */\n              dup4\n                /* \"shoot/摸底1/2/1.sol\":2569:2589  sender != address(0) */\n              0xffffffffffffffffffffffffffffffffffffffff\n              and\n              eq\n              iszero\n                /* \"shoot/摸底1/2/1.sol\":2561:2631  require(sender != address(0), \"ERC20: transfer from the zero address\") */\n              tag_70\n              jumpi\n              mload(0x40)\n              0x08c379a000000000000000000000000000000000000000000000000000000000\n              dup2\n              mstore\n              0x04\n              add\n              dup1\n              dup1\n              0x20\n              add\n              dup3\n              dup2\n              sub\n              dup3\n              mstore\n              0x25\n              dup2\n              mstore\n              0x20\n              add\n              dup1\n              data_baecc556b46f4ed0f2b4cb599d60785ac8563dd2dc0a5bf12edea1c39e5e1fea\n              0x25\n              swap2\n              codecopy\n              0x40\n              add\n              swap2\n              pop\n              pop\n              mload(0x40)\n              dup1\n              swap2\n              sub\n              swap1\n              revert\n            tag_70:\n                /* \"shoot/摸底1/2/1.sol\":2671:2672  0 */\n              0x00\n                /* \"shoot/摸底1/2/1.sol\":2650:2673  recipient != address(0) */\n              0xffffffffffffffffffffffffffffffffffffffff\n              and\n                /* \"shoot/摸底1/2/1.sol\":2650:2659  recipient */\n              dup3\n                /* \"shoot/摸底1/2/1.sol\":2650:2673  recipient != address(0) */\n              0xffffffffffffffffffffffffffffffffffffffff\n              and\n              eq\n              iszero\n                /* \"shoot/摸底1/2/1.sol\":2642:2713  require(recipient != address(0), \"ERC20: transfer to the zero address\") */\n              tag_71\n              jumpi\n              mload(0x40)\n              0x08c379a000000000000000000000000000000000000000000000000000000000\n              dup2\n              mstore\n              0x04\n              add\n              dup1\n              dup1\n              0x20\n              add\n              dup3\n              dup2\n              sub\n              dup3\n              mstore\n              0x23\n              dup2\n              mstore\n              0x20\n              add\n              dup1\n              data_0557e210f7a69a685100a7e4e3d0a7024c546085cee28910fd17d0b081d9516f\n              0x23\n              swap2\n              codecopy\n              0x40\n              add\n              swap2\n              pop\n              pop\n              mload(0x40)\n              dup1\n              swap2\n              sub\n              swap1\n              revert\n            tag_71:\n                /* \"shoot/摸底1/2/1.sol\":2746:2775  _balances[sender].sub(amount) */\n              tag_72\n                /* \"shoot/摸底1/2/1.sol\":2768:2774  amount */\n              dup2\n                /* \"shoot/摸底1/2/1.sol\":2746:2755  _balances */\n              0x00\n                /* \"shoot/摸底1/2/1.sol\":2746:2763  _balances[sender] */\n              dup1\n                /* \"shoot/摸底1/2/1.sol\":2756:2762  sender */\n              dup7\n                /* \"shoot/摸底1/2/1.sol\":2746:2763  _balances[sender] */\n              0xffffffffffffffffffffffffffffffffffffffff\n              and\n              0xffffffffffffffffffffffffffffffffffffffff\n              and\n              dup2\n              mstore\n              0x20\n              add\n              swap1\n              dup2\n              mstore\n              0x20\n              add\n              0x00\n              keccak256\n              sload\n                /* \"shoot/摸底1/2/1.sol\":2746:2767  _balances[sender].sub */\n              tag_54\n              swap1\n                /* \"shoot/摸底1/2/1.sol\":2746:2775  _balances[sender].sub(amount) */\n              swap2\n              swap1\n              0xffffffff\n              and\n              jump\t// in\n            tag_72:\n                /* \"shoot/摸底1/2/1.sol\":2726:2735  _balances */\n              0x00\n                /* \"shoot/摸底1/2/1.sol\":2726:2743  _balances[sender] */\n              dup1\n                /* \"shoot/摸底1/2/1.sol\":2736:2742  sender */\n              dup6\n                /* \"shoot/摸底1/2/1.sol\":2726:2743  _balances[sender] */\n              0xffffffffffffffffffffffffffffffffffffffff\n              and\n              0xffffffffffffffffffffffffffffffffffffffff\n              and\n              dup2\n              mstore\n              0x20\n              add\n              swap1\n              dup2\n              mstore\n              0x20\n              add\n              0x00\n              keccak256\n                /* \"shoot/摸底1/2/1.sol\":2726:2775  _balances[sender] = _balances[sender].sub(amount) */\n              dup2\n              swap1\n              sstore\n              pop\n                /* \"shoot/摸底1/2/1.sol\":2809:2841  _balances[recipient].add(amount) */\n              tag_73\n                /* \"shoot/摸底1/2/1.sol\":2834:2840  amount */\n              dup2\n                /* \"shoot/摸底1/2/1.sol\":2809:2818  _balances */\n              0x00\n                /* \"shoot/摸底1/2/1.sol\":2809:2829  _balances[recipient] */\n              dup1\n                /* \"shoot/摸底1/2/1.sol\":2819:2828  recipient */\n              dup6\n                /* \"shoot/摸底1/2/1.sol\":2809:2829  _balances[recipient] */\n              0xffffffffffffffffffffffffffffffffffffffff\n              and\n              0xffffffffffffffffffffffffffffffffffffffff\n              and\n              dup2\n              mstore\n              0x20\n              add\n              swap1\n              dup2\n              mstore\n              0x20\n              add\n              0x00\n              keccak256\n              sload\n                /* \"shoot/摸底1/2/1.sol\":2809:2833  _balances[recipient].add */\n              tag_45\n              swap1\n                /* \"shoot/摸底1/2/1.sol\":2809:2841  _balances[recipient].add(amount) */\n              swap2\n              swap1\n              0xffffffff\n              and\n              jump\t// in\n            tag_73:\n                /* \"shoot/摸底1/2/1.sol\":2786:2795  _balances */\n              0x00\n                /* \"shoot/摸底1/2/1.sol\":2786:2806  _balances[recipient] */\n              dup1\n                /* \"shoot/摸底1/2/1.sol\":2796:2805  recipient */\n              dup5\n                /* \"shoot/摸底1/2/1.sol\":2786:2806  _balances[recipient] */\n              0xffffffffffffffffffffffffffffffffffffffff\n              and\n              0xffffffffffffffffffffffffffffffffffffffff\n              and\n              dup2\n              mstore\n              0x20\n              add\n              swap1\n              dup2\n              mstore\n              0x20\n              add\n              0x00\n              keccak256\n                /* \"shoot/摸底1/2/1.sol\":2786:2841  _balances[recipient] = _balances[recipient].add(amount) */\n              dup2\n              swap1\n              sstore\n              pop\n                /* \"shoot/摸底1/2/1.sol\":2429:2849  function _transfer(\r... */\n              pop\n              pop\n              pop\n              jump\t// out\n                /* \"shoot/摸底1/2/1.sol\":335:519  function sub(uint256 a, uint256 b) internal pure returns (uint256) {\r... */\n            tag_54:\n                /* \"shoot/摸底1/2/1.sol\":393:400  uint256 */\n              0x00\n                /* \"shoot/摸底1/2/1.sol\":426:427  a */\n              dup3\n                /* \"shoot/摸底1/2/1.sol\":421:422  b */\n              dup3\n                /* \"shoot/摸底1/2/1.sol\":421:427  b <= a */\n              gt\n              iszero\n                /* \"shoot/摸底1/2/1.sol\":413:462  require(b <= a, \"SafeMath: subtraction overflow\") */\n              tag_75\n              jumpi\n              mload(0x40)\n              0x08c379a000000000000000000000000000000000000000000000000000000000\n              dup2\n              mstore\n              0x04\n              add\n              dup1\n              dup1\n              0x20\n              add\n              dup3\n              dup2\n              sub\n              dup3\n              mstore\n              0x1e\n              dup2\n              mstore\n              0x20\n              add\n              dup1\n              0x536166654d6174683a207375627472616374696f6e206f766572666c6f770000\n              dup2\n              mstore\n              pop\n              0x20\n              add\n              swap2\n              pop\n              pop\n              mload(0x40)\n              dup1\n              swap2\n              sub\n              swap1\n              revert\n            tag_75:\n                /* \"shoot/摸底1/2/1.sol\":473:482  uint256 c */\n              0x00\n                /* \"shoot/摸底1/2/1.sol\":489:490  b */\n              dup3\n                /* \"shoot/摸底1/2/1.sol\":485:486  a */\n              dup5\n                /* \"shoot/摸底1/2/1.sol\":485:490  a - b */\n              sub\n                /* \"shoot/摸底1/2/1.sol\":473:490  uint256 c = a - b */\n              swap1\n              pop\n                /* \"shoot/摸底1/2/1.sol\":510:511  c */\n              dup1\n                /* \"shoot/摸底1/2/1.sol\":503:511  return c */\n              swap2\n              pop\n              pop\n                /* \"shoot/摸底1/2/1.sol\":335:519  function sub(uint256 a, uint256 b) internal pure returns (uint256) {\r... */\n              swap3\n              swap2\n              pop\n              pop\n              jump\t// out\n            stop\n            data_0557e210f7a69a685100a7e4e3d0a7024c546085cee28910fd17d0b081d9516f 45524332303a207472616e7366657220746f20746865207a65726f2061646472657373\n            data_24883cc5fe64ace9d0df1893501ecb93c77180f0ff69cca79affb3c316dc8029 45524332303a20617070726f766520746f20746865207a65726f2061646472657373\n            data_baecc556b46f4ed0f2b4cb599d60785ac8563dd2dc0a5bf12edea1c39e5e1fea 45524332303a207472616e736665722066726f6d20746865207a65726f2061646472657373\n            data_c953f4879035ed60e766b34720f656aab5c697b141d924c283124ecedb91c208 45524332303a20617070726f76652066726f6d20746865207a65726f2061646472657373\n\n            auxdata: 0xa26469706673582212209d1b68c4b1eb933c0cfdfd23c79c54fa3e26a63490c3211ddca3eb9e773e636e64736f6c634300060c0033\n        }\n    }\n}\n",
				"bytecode": {
					"linkReferences": {},
					"object": "608060405234801561001057600080fd5b5060405161001d9061015f565b604051809103906000f080158015610039573d6000803e3d6000fd5b506000806101000a81548173ffffffffffffffffffffffffffffffffffffffff021916908373ffffffffffffffffffffffffffffffffffffffff16021790555060008054906101000a900473ffffffffffffffffffffffffffffffffffffffff1673ffffffffffffffffffffffffffffffffffffffff1663e686fd2d6040518163ffffffff1660e01b815260040160206040518083038186803b1580156100df57600080fd5b505afa1580156100f3573d6000803e3d6000fd5b505050506040513d602081101561010957600080fd5b8101908080519060200190929190505050600160006101000a81548173ffffffffffffffffffffffffffffffffffffffff021916908373ffffffffffffffffffffffffffffffffffffffff16021790555061016c565b61168c806104d083390190565b6103558061017b6000396000f3fe608060405234801561001057600080fd5b506004361061004c5760003560e01c80633ba9838c14610051578063521eb27314610085578063efedc669146100b9578063fa391c64146100d7575b600080fd5b6100596100e1565b604051808273ffffffffffffffffffffffffffffffffffffffff16815260200191505060405180910390f35b61008d610107565b604051808273ffffffffffffffffffffffffffffffffffffffff16815260200191505060405180910390f35b6100c161012b565b6040518082815260200191505060405180910390f35b6100df610131565b005b600160009054906101000a900473ffffffffffffffffffffffffffffffffffffffff1681565b60008054906101000a900473ffffffffffffffffffffffffffffffffffffffff1681565b60025481565b7002f050fe938943acc45f65568000000000600160009054906101000a900473ffffffffffffffffffffffffffffffffffffffff1673ffffffffffffffffffffffffffffffffffffffff166370a0823160008054906101000a900473ffffffffffffffffffffffffffffffffffffffff166040518263ffffffff1660e01b8152600401808273ffffffffffffffffffffffffffffffffffffffff16815260200191505060206040518083038186803b1580156101ec57600080fd5b505afa158015610200573d6000803e3d6000fd5b505050506040513d602081101561021657600080fd5b810190808051906020019092919050505010156102365760326002819055505b69021e19e0c9bab2400000600160009054906101000a900473ffffffffffffffffffffffffffffffffffffffff1673ffffffffffffffffffffffffffffffffffffffff166370a08231336040518263ffffffff1660e01b8152600401808273ffffffffffffffffffffffffffffffffffffffff16815260200191505060206040518083038186803b1580156102ca57600080fd5b505afa1580156102de573d6000803e3d6000fd5b505050506040513d60208110156102f457600080fd5b8101908080519060200190929190505050111561031d5760326002600082825401925050819055505b56fea2646970667358221220560ec4c001881257b515f0951e90ae3ad842088824aea973ef41e04788b9d59064736f6c634300060c0033608060405234801561001057600080fd5b5060405161001d906100df565b604051809103906000f080158015610039573d6000803e3d6000fd5b506000806101000a81548173ffffffffffffffffffffffffffffffffffffffff021916908373ffffffffffffffffffffffffffffffffffffffff16021790555060008054906101000a900473ffffffffffffffffffffffffffffffffffffffff16600160006101000a81548173ffffffffffffffffffffffffffffffffffffffff021916908373ffffffffffffffffffffffffffffffffffffffff1602179055506100ec565b610ffc8061069083390190565b610595806100fb6000396000f3fe608060405234801561001057600080fd5b50600436106100415760003560e01c80632e1a7d4d14610046578063b6b55f2514610074578063e686fd2d146100a2575b600080fd5b6100726004803603602081101561005c57600080fd5b81019080803590602001909291905050506100d6565b005b6100a06004803603602081101561008a57600080fd5b810190808035906020019092919050505061038b565b005b6100aa610518565b604051808273ffffffffffffffffffffffffffffffffffffffff16815260200191505060405180910390f35b6000811161014c576040517f08c379a00000000000000000000000000000000000000000000000000000000081526004018080602001828103825260128152602001807f416d6f756e74206d757374206265203e2030000000000000000000000000000081525060200191505060405180910390fd5b600260003373ffffffffffffffffffffffffffffffffffffffff1673ffffffffffffffffffffffffffffffffffffffff16815260200190815260200160002060009054906101000a90046fffffffffffffffffffffffffffffffff166fffffffffffffffffffffffffffffffff16816fffffffffffffffffffffffffffffffff161115610224576040517f08c379a000000000000000000000000000000000000000000000000000000000815260040180806020018281038252602181526020018061053f6021913960400191505060405180910390fd5b60008054906101000a900473ffffffffffffffffffffffffffffffffffffffff1673ffffffffffffffffffffffffffffffffffffffff1663a9059cbb33836040518363ffffffff1660e01b8152600401808373ffffffffffffffffffffffffffffffffffffffff16815260200182815260200192505050602060405180830381600087803b1580156102b557600080fd5b505af11580156102c9573d6000803e3d6000fd5b505050506040513d60208110156102df57600080fd5b81019080805190602001909291905050505080600260003373ffffffffffffffffffffffffffffffffffffffff1673ffffffffffffffffffffffffffffffffffffffff16815260200190815260200160002060008282829054906101000a90046fffffffffffffffffffffffffffffffff160392506101000a8154816fffffffffffffffffffffffffffffffff02191690836fffffffffffffffffffffffffffffffff16021790555050565b60008054906101000a900473ffffffffffffffffffffffffffffffffffffffff1673ffffffffffffffffffffffffffffffffffffffff166323b872dd3330846040518463ffffffff1660e01b8152600401808473ffffffffffffffffffffffffffffffffffffffff1681526020018373ffffffffffffffffffffffffffffffffffffffff1681526020018281526020019350505050602060405180830381600087803b15801561043a57600080fd5b505af115801561044e573d6000803e3d6000fd5b505050506040513d602081101561046457600080fd5b810190808051906020019092919050505061047e57600080fd5b80600260003373ffffffffffffffffffffffffffffffffffffffff1673ffffffffffffffffffffffffffffffffffffffff16815260200190815260200160002060008282829054906101000a90046fffffffffffffffffffffffffffffffff160192506101000a8154816fffffffffffffffffffffffffffffffff02191690836fffffffffffffffffffffffffffffffff16021790555050565b600160009054906101000a900473ffffffffffffffffffffffffffffffffffffffff168156fe536f7272792c20796f7572206372656469742069732072756e6e696e67206c6f77a2646970667358221220bd99916b75e4b38a937aba7c1985193c85e47baada2578176423d13951eb644f64736f6c634300060c003360806040523480156200001157600080fd5b506040518060400160405280600a81526020017f4355495420544f4b454e000000000000000000000000000000000000000000008152506040518060400160405280600481526020017f4355495400000000000000000000000000000000000000000000000000000000815250816002908051906020019062000096929190620002c2565b508060039080519060200190620000af929190620002c2565b506012600460006101000a81548160ff021916908360ff1602179055505050620000f1337002f050fe938943acc45f65568000000000620000f760201b60201c565b62000368565b600073ffffffffffffffffffffffffffffffffffffffff168273ffffffffffffffffffffffffffffffffffffffff1614156200019b576040517f08c379a000000000000000000000000000000000000000000000000000000000815260040180806020018281038252601f8152602001807f45524332303a206d696e7420746f20746865207a65726f20616464726573730081525060200191505060405180910390fd5b620001f3816000808573ffffffffffffffffffffffffffffffffffffffff1673ffffffffffffffffffffffffffffffffffffffff168152602001908152602001600020546200023960201b620006e61790919060201c565b6000808473ffffffffffffffffffffffffffffffffffffffff1673ffffffffffffffffffffffffffffffffffffffff168152602001908152602001600020819055505050565b600080828401905083811015620002b8576040517f08c379a000000000000000000000000000000000000000000000000000000000815260040180806020018281038252601b8152602001807f536166654d6174683a206164646974696f6e206f766572666c6f77000000000081525060200191505060405180910390fd5b8091505092915050565b828054600181600116156101000203166002900490600052602060002090601f016020900481019282601f106200030557805160ff191683800117855562000336565b8280016001018555821562000336579182015b828111156200033557825182559160200191906001019062000318565b5b50905062000345919062000349565b5090565b5b80821115620003645760008160009055506001016200034a565b5090565b610c8480620003786000396000f3fe608060405234801561001057600080fd5b50600436106100935760003560e01c80636ebcf607116100665780636ebcf6071461021957806370a0823114610271578063a9059cbb146102c9578063b09f12661461032d578063d28d8852146103b057610093565b8063024c2ddd14610098578063095ea7b31461011057806323b872dd1461017457806332424aa3146101f8575b600080fd5b6100fa600480360360408110156100ae57600080fd5b81019080803573ffffffffffffffffffffffffffffffffffffffff169060200190929190803573ffffffffffffffffffffffffffffffffffffffff169060200190929190505050610433565b6040518082815260200191505060405180910390f35b61015c6004803603604081101561012657600080fd5b81019080803573ffffffffffffffffffffffffffffffffffffffff16906020019092919080359060200190929190505050610458565b60405180821515815260200191505060405180910390f35b6101e06004803603606081101561018a57600080fd5b81019080803573ffffffffffffffffffffffffffffffffffffffff169060200190929190803573ffffffffffffffffffffffffffffffffffffffff1690602001909291908035906020019092919050505061046f565b60405180821515815260200191505060405180910390f35b610200610520565b604051808260ff16815260200191505060405180910390f35b61025b6004803603602081101561022f57600080fd5b81019080803573ffffffffffffffffffffffffffffffffffffffff169060200190929190505050610533565b6040518082815260200191505060405180910390f35b6102b36004803603602081101561028757600080fd5b81019080803573ffffffffffffffffffffffffffffffffffffffff16906020019092919050505061054b565b6040518082815260200191505060405180910390f35b610315600480360360408110156102df57600080fd5b81019080803573ffffffffffffffffffffffffffffffffffffffff16906020019092919080359060200190929190505050610593565b60405180821515815260200191505060405180910390f35b6103356105aa565b6040518080602001828103825283818151815260200191508051906020019080838360005b8381101561037557808201518184015260208101905061035a565b50505050905090810190601f1680156103a25780820380516001836020036101000a031916815260200191505b509250505060405180910390f35b6103b8610648565b6040518080602001828103825283818151815260200191508051906020019080838360005b838110156103f85780820151818401526020810190506103dd565b50505050905090810190601f1680156104255780820380516001836020036101000a031916815260200191505b509250505060405180910390f35b6001602052816000526040600020602052806000526040600020600091509150505481565b600061046533848461076e565b6001905092915050565b600061047c848484610900565b610515843361051085600160008a73ffffffffffffffffffffffffffffffffffffffff1673ffffffffffffffffffffffffffffffffffffffff16815260200190815260200160002060003373ffffffffffffffffffffffffffffffffffffffff1673ffffffffffffffffffffffffffffffffffffffff16815260200190815260200160002054610b3790919063ffffffff16565b61076e565b600190509392505050565b600460009054906101000a900460ff1681565b60006020528060005260406000206000915090505481565b60008060008373ffffffffffffffffffffffffffffffffffffffff1673ffffffffffffffffffffffffffffffffffffffff168152602001908152602001600020549050919050565b60006105a0338484610900565b6001905092915050565b60038054600181600116156101000203166002900480601f0160208091040260200160405190810160405280929190818152602001828054600181600116156101000203166002900480156106405780601f1061061557610100808354040283529160200191610640565b820191906000526020600020905b81548152906001019060200180831161062357829003601f168201915b505050505081565b60028054600181600116156101000203166002900480601f0160208091040260200160405190810160405280929190818152602001828054600181600116156101000203166002900480156106de5780601f106106b3576101008083540402835291602001916106de565b820191906000526020600020905b8154815290600101906020018083116106c157829003601f168201915b505050505081565b600080828401905083811015610764576040517f08c379a000000000000000000000000000000000000000000000000000000000815260040180806020018281038252601b8152602001807f536166654d6174683a206164646974696f6e206f766572666c6f77000000000081525060200191505060405180910390fd5b8091505092915050565b600073ffffffffffffffffffffffffffffffffffffffff168373ffffffffffffffffffffffffffffffffffffffff1614156107f4576040517f08c379a0000000000000000000000000000000000000000000000000000000008152600401808060200182810382526024815260200180610c2b6024913960400191505060405180910390fd5b600073ffffffffffffffffffffffffffffffffffffffff168273ffffffffffffffffffffffffffffffffffffffff16141561087a576040517f08c379a0000000000000000000000000000000000000000000000000000000008152600401808060200182810382526022815260200180610be46022913960400191505060405180910390fd5b80600160008573ffffffffffffffffffffffffffffffffffffffff1673ffffffffffffffffffffffffffffffffffffffff16815260200190815260200160002060008473ffffffffffffffffffffffffffffffffffffffff1673ffffffffffffffffffffffffffffffffffffffff16815260200190815260200160002081905550505050565b600073ffffffffffffffffffffffffffffffffffffffff168373ffffffffffffffffffffffffffffffffffffffff161415610986576040517f08c379a0000000000000000000000000000000000000000000000000000000008152600401808060200182810382526025815260200180610c066025913960400191505060405180910390fd5b600073ffffffffffffffffffffffffffffffffffffffff168273ffffffffffffffffffffffffffffffffffffffff161415610a0c576040517f08c379a0000000000000000000000000000000000000000000000000000000008152600401808060200182810382526023815260200180610bc16023913960400191505060405180910390fd5b610a5d816000808673ffffffffffffffffffffffffffffffffffffffff1673ffffffffffffffffffffffffffffffffffffffff16815260200190815260200160002054610b3790919063ffffffff16565b6000808573ffffffffffffffffffffffffffffffffffffffff1673ffffffffffffffffffffffffffffffffffffffff16815260200190815260200160002081905550610af0816000808573ffffffffffffffffffffffffffffffffffffffff1673ffffffffffffffffffffffffffffffffffffffff168152602001908152602001600020546106e690919063ffffffff16565b6000808473ffffffffffffffffffffffffffffffffffffffff1673ffffffffffffffffffffffffffffffffffffffff16815260200190815260200160002081905550505050565b600082821115610baf576040517f08c379a000000000000000000000000000000000000000000000000000000000815260040180806020018281038252601e8152602001807f536166654d6174683a207375627472616374696f6e206f766572666c6f77000081525060200191505060405180910390fd5b60008284039050809150509291505056fe45524332303a207472616e7366657220746f20746865207a65726f206164647265737345524332303a20617070726f766520746f20746865207a65726f206164647265737345524332303a207472616e736665722066726f6d20746865207a65726f206164647265737345524332303a20617070726f76652066726f6d20746865207a65726f2061646472657373a26469706673582212209d1b68c4b1eb933c0cfdfd23c79c54fa3e26a63490c3211ddca3eb9e773e636e64736f6c634300060c0033",
					"opcodes": "PUSH1 0x80 PUSH1 0x40 MSTORE CALLVALUE DUP1 ISZERO PUSH2 0x10 JUMPI PUSH1 0x0 DUP1 REVERT JUMPDEST POP PUSH1 0x40 MLOAD PUSH2 0x1D SWAP1 PUSH2 0x15F JUMP JUMPDEST PUSH1 0x40 MLOAD DUP1 SWAP2 SUB SWAP1 PUSH1 0x0 CREATE DUP1 ISZERO DUP1 ISZERO PUSH2 0x39 JUMPI RETURNDATASIZE PUSH1 0x0 DUP1 RETURNDATACOPY RETURNDATASIZE PUSH1 0x0 REVERT JUMPDEST POP PUSH1 0x0 DUP1 PUSH2 0x100 EXP DUP2 SLOAD DUP2 PUSH20 0xFFFFFFFFFFFFFFFFFFFFFFFFFFFFFFFFFFFFFFFF MUL NOT AND SWAP1 DUP4 PUSH20 0xFFFFFFFFFFFFFFFFFFFFFFFFFFFFFFFFFFFFFFFF AND MUL OR SWAP1 SSTORE POP PUSH1 0x0 DUP1 SLOAD SWAP1 PUSH2 0x100 EXP SWAP1 DIV PUSH20 0xFFFFFFFFFFFFFFFFFFFFFFFFFFFFFFFFFFFFFFFF AND PUSH20 0xFFFFFFFFFFFFFFFFFFFFFFFFFFFFFFFFFFFFFFFF AND PUSH4 0xE686FD2D PUSH1 0x40 MLOAD DUP2 PUSH4 0xFFFFFFFF AND PUSH1 0xE0 SHL DUP2 MSTORE PUSH1 0x4 ADD PUSH1 0x20 PUSH1 0x40 MLOAD DUP1 DUP4 SUB DUP2 DUP7 DUP1 EXTCODESIZE ISZERO DUP1 ISZERO PUSH2 0xDF JUMPI PUSH1 0x0 DUP1 REVERT JUMPDEST POP GAS STATICCALL ISZERO DUP1 ISZERO PUSH2 0xF3 JUMPI RETURNDATASIZE PUSH1 0x0 DUP1 RETURNDATACOPY RETURNDATASIZE PUSH1 0x0 REVERT JUMPDEST POP POP POP POP PUSH1 0x40 MLOAD RETURNDATASIZE PUSH1 0x20 DUP2 LT ISZERO PUSH2 0x109 JUMPI PUSH1 0x0 DUP1 REVERT JUMPDEST DUP2 ADD SWAP1 DUP1 DUP1 MLOAD SWAP1 PUSH1 0x20 ADD SWAP1 SWAP3 SWAP2 SWAP1 POP POP POP PUSH1 0x1 PUSH1 0x0 PUSH2 0x100 EXP DUP2 SLOAD DUP2 PUSH20 0xFFFFFFFFFFFFFFFFFFFFFFFFFFFFFFFFFFFFFFFF MUL NOT AND SWAP1 DUP4 PUSH20 0xFFFFFFFFFFFFFFFFFFFFFFFFFFFFFFFFFFFFFFFF AND MUL OR SWAP1 SSTORE POP PUSH2 0x16C JUMP JUMPDEST PUSH2 0x168C DUP1 PUSH2 0x4D0 DUP4 CODECOPY ADD SWAP1 JUMP JUMPDEST PUSH2 0x355 DUP1 PUSH2 0x17B PUSH1 0x0 CODECOPY PUSH1 0x0 RETURN INVALID PUSH1 0x80 PUSH1 0x40 MSTORE CALLVALUE DUP1 ISZERO PUSH2 0x10 JUMPI PUSH1 0x0 DUP1 REVERT JUMPDEST POP PUSH1 0x4 CALLDATASIZE LT PUSH2 0x4C JUMPI PUSH1 0x0 CALLDATALOAD PUSH1 0xE0 SHR DUP1 PUSH4 0x3BA9838C EQ PUSH2 0x51 JUMPI DUP1 PUSH4 0x521EB273 EQ PUSH2 0x85 JUMPI DUP1 PUSH4 0xEFEDC669 EQ PUSH2 0xB9 JUMPI DUP1 PUSH4 0xFA391C64 EQ PUSH2 0xD7 JUMPI JUMPDEST PUSH1 0x0 DUP1 REVERT JUMPDEST PUSH2 0x59 PUSH2 0xE1 JUMP JUMPDEST PUSH1 0x40 MLOAD DUP1 DUP3 PUSH20 0xFFFFFFFFFFFFFFFFFFFFFFFFFFFFFFFFFFFFFFFF AND DUP2 MSTORE PUSH1 0x20 ADD SWAP2 POP POP PUSH1 0x40 MLOAD DUP1 SWAP2 SUB SWAP1 RETURN JUMPDEST PUSH2 0x8D PUSH2 0x107 JUMP JUMPDEST PUSH1 0x40 MLOAD DUP1 DUP3 PUSH20 0xFFFFFFFFFFFFFFFFFFFFFFFFFFFFFFFFFFFFFFFF AND DUP2 MSTORE PUSH1 0x20 ADD SWAP2 POP POP PUSH1 0x40 MLOAD DUP1 SWAP2 SUB SWAP1 RETURN JUMPDEST PUSH2 0xC1 PUSH2 0x12B JUMP JUMPDEST PUSH1 0x40 MLOAD DUP1 DUP3 DUP2 MSTORE PUSH1 0x20 ADD SWAP2 POP POP PUSH1 0x40 MLOAD DUP1 SWAP2 SUB SWAP1 RETURN JUMPDEST PUSH2 0xDF PUSH2 0x131 JUMP JUMPDEST STOP JUMPDEST PUSH1 0x1 PUSH1 0x0 SWAP1 SLOAD SWAP1 PUSH2 0x100 EXP SWAP1 DIV PUSH20 0xFFFFFFFFFFFFFFFFFFFFFFFFFFFFFFFFFFFFFFFF AND DUP2 JUMP JUMPDEST PUSH1 0x0 DUP1 SLOAD SWAP1 PUSH2 0x100 EXP SWAP1 DIV PUSH20 0xFFFFFFFFFFFFFFFFFFFFFFFFFFFFFFFFFFFFFFFF AND DUP2 JUMP JUMPDEST PUSH1 0x2 SLOAD DUP2 JUMP JUMPDEST PUSH17 0x2F050FE938943ACC45F65568000000000 PUSH1 0x1 PUSH1 0x0 SWAP1 SLOAD SWAP1 PUSH2 0x100 EXP SWAP1 DIV PUSH20 0xFFFFFFFFFFFFFFFFFFFFFFFFFFFFFFFFFFFFFFFF AND PUSH20 0xFFFFFFFFFFFFFFFFFFFFFFFFFFFFFFFFFFFFFFFF AND PUSH4 0x70A08231 PUSH1 0x0 DUP1 SLOAD SWAP1 PUSH2 0x100 EXP SWAP1 DIV PUSH20 0xFFFFFFFFFFFFFFFFFFFFFFFFFFFFFFFFFFFFFFFF AND PUSH1 0x40 MLOAD DUP3 PUSH4 0xFFFFFFFF AND PUSH1 0xE0 SHL DUP2 MSTORE PUSH1 0x4 ADD DUP1 DUP3 PUSH20 0xFFFFFFFFFFFFFFFFFFFFFFFFFFFFFFFFFFFFFFFF AND DUP2 MSTORE PUSH1 0x20 ADD SWAP2 POP POP PUSH1 0x20 PUSH1 0x40 MLOAD DUP1 DUP4 SUB DUP2 DUP7 DUP1 EXTCODESIZE ISZERO DUP1 ISZERO PUSH2 0x1EC JUMPI PUSH1 0x0 DUP1 REVERT JUMPDEST POP GAS STATICCALL ISZERO DUP1 ISZERO PUSH2 0x200 JUMPI RETURNDATASIZE PUSH1 0x0 DUP1 RETURNDATACOPY RETURNDATASIZE PUSH1 0x0 REVERT JUMPDEST POP POP POP POP PUSH1 0x40 MLOAD RETURNDATASIZE PUSH1 0x20 DUP2 LT ISZERO PUSH2 0x216 JUMPI PUSH1 0x0 DUP1 REVERT JUMPDEST DUP2 ADD SWAP1 DUP1 DUP1 MLOAD SWAP1 PUSH1 0x20 ADD SWAP1 SWAP3 SWAP2 SWAP1 POP POP POP LT ISZERO PUSH2 0x236 JUMPI PUSH1 0x32 PUSH1 0x2 DUP2 SWAP1 SSTORE POP JUMPDEST PUSH10 0x21E19E0C9BAB2400000 PUSH1 0x1 PUSH1 0x0 SWAP1 SLOAD SWAP1 PUSH2 0x100 EXP SWAP1 DIV PUSH20 0xFFFFFFFFFFFFFFFFFFFFFFFFFFFFFFFFFFFFFFFF AND PUSH20 0xFFFFFFFFFFFFFFFFFFFFFFFFFFFFFFFFFFFFFFFF AND PUSH4 0x70A08231 CALLER PUSH1 0x40 MLOAD DUP3 PUSH4 0xFFFFFFFF AND PUSH1 0xE0 SHL DUP2 MSTORE PUSH1 0x4 ADD DUP1 DUP3 PUSH20 0xFFFFFFFFFFFFFFFFFFFFFFFFFFFFFFFFFFFFFFFF AND DUP2 MSTORE PUSH1 0x20 ADD SWAP2 POP POP PUSH1 0x20 PUSH1 0x40 MLOAD DUP1 DUP4 SUB DUP2 DUP7 DUP1 EXTCODESIZE ISZERO DUP1 ISZERO PUSH2 0x2CA JUMPI PUSH1 0x0 DUP1 REVERT JUMPDEST POP GAS STATICCALL ISZERO DUP1 ISZERO PUSH2 0x2DE JUMPI RETURNDATASIZE PUSH1 0x0 DUP1 RETURNDATACOPY RETURNDATASIZE PUSH1 0x0 REVERT JUMPDEST POP POP POP POP PUSH1 0x40 MLOAD RETURNDATASIZE PUSH1 0x20 DUP2 LT ISZERO PUSH2 0x2F4 JUMPI PUSH1 0x0 DUP1 REVERT JUMPDEST DUP2 ADD SWAP1 DUP1 DUP1 MLOAD SWAP1 PUSH1 0x20 ADD SWAP1 SWAP3 SWAP2 SWAP1 POP POP POP GT ISZERO PUSH2 0x31D JUMPI PUSH1 0x32 PUSH1 0x2 PUSH1 0x0 DUP3 DUP3 SLOAD ADD SWAP3 POP POP DUP2 SWAP1 SSTORE POP JUMPDEST JUMP INVALID LOG2 PUSH5 0x6970667358 0x22 SLT KECCAK256 JUMP 0xE 0xC4 0xC0 ADD DUP9 SLT JUMPI 0xB5 ISZERO CREATE SWAP6 0x1E SWAP1 0xAE GASPRICE 0xD8 TIMESTAMP ADDMOD DUP9 0x24 0xAE 0xA9 PUSH20 0xEF41E04788B9D59064736F6C634300060C003360 DUP1 PUSH1 0x40 MSTORE CALLVALUE DUP1 ISZERO PUSH2 0x10 JUMPI PUSH1 0x0 DUP1 REVERT JUMPDEST POP PUSH1 0x40 MLOAD PUSH2 0x1D SWAP1 PUSH2 0xDF JUMP JUMPDEST PUSH1 0x40 MLOAD DUP1 SWAP2 SUB SWAP1 PUSH1 0x0 CREATE DUP1 ISZERO DUP1 ISZERO PUSH2 0x39 JUMPI RETURNDATASIZE PUSH1 0x0 DUP1 RETURNDATACOPY RETURNDATASIZE PUSH1 0x0 REVERT JUMPDEST POP PUSH1 0x0 DUP1 PUSH2 0x100 EXP DUP2 SLOAD DUP2 PUSH20 0xFFFFFFFFFFFFFFFFFFFFFFFFFFFFFFFFFFFFFFFF MUL NOT AND SWAP1 DUP4 PUSH20 0xFFFFFFFFFFFFFFFFFFFFFFFFFFFFFFFFFFFFFFFF AND MUL OR SWAP1 SSTORE POP PUSH1 0x0 DUP1 SLOAD SWAP1 PUSH2 0x100 EXP SWAP1 DIV PUSH20 0xFFFFFFFFFFFFFFFFFFFFFFFFFFFFFFFFFFFFFFFF AND PUSH1 0x1 PUSH1 0x0 PUSH2 0x100 EXP DUP2 SLOAD DUP2 PUSH20 0xFFFFFFFFFFFFFFFFFFFFFFFFFFFFFFFFFFFFFFFF MUL NOT AND SWAP1 DUP4 PUSH20 0xFFFFFFFFFFFFFFFFFFFFFFFFFFFFFFFFFFFFFFFF AND MUL OR SWAP1 SSTORE POP PUSH2 0xEC JUMP JUMPDEST PUSH2 0xFFC DUP1 PUSH2 0x690 DUP4 CODECOPY ADD SWAP1 JUMP JUMPDEST PUSH2 0x595 DUP1 PUSH2 0xFB PUSH1 0x0 CODECOPY PUSH1 0x0 RETURN INVALID PUSH1 0x80 PUSH1 0x40 MSTORE CALLVALUE DUP1 ISZERO PUSH2 0x10 JUMPI PUSH1 0x0 DUP1 REVERT JUMPDEST POP PUSH1 0x4 CALLDATASIZE LT PUSH2 0x41 JUMPI PUSH1 0x0 CALLDATALOAD PUSH1 0xE0 SHR DUP1 PUSH4 0x2E1A7D4D EQ PUSH2 0x46 JUMPI DUP1 PUSH4 0xB6B55F25 EQ PUSH2 0x74 JUMPI DUP1 PUSH4 0xE686FD2D EQ PUSH2 0xA2 JUMPI JUMPDEST PUSH1 0x0 DUP1 REVERT JUMPDEST PUSH2 0x72 PUSH1 0x4 DUP1 CALLDATASIZE SUB PUSH1 0x20 DUP2 LT ISZERO PUSH2 0x5C JUMPI PUSH1 0x0 DUP1 REVERT JUMPDEST DUP2 ADD SWAP1 DUP1 DUP1 CALLDATALOAD SWAP1 PUSH1 0x20 ADD SWAP1 SWAP3 SWAP2 SWAP1 POP POP POP PUSH2 0xD6 JUMP JUMPDEST STOP JUMPDEST PUSH2 0xA0 PUSH1 0x4 DUP1 CALLDATASIZE SUB PUSH1 0x20 DUP2 LT ISZERO PUSH2 0x8A JUMPI PUSH1 0x0 DUP1 REVERT JUMPDEST DUP2 ADD SWAP1 DUP1 DUP1 CALLDATALOAD SWAP1 PUSH1 0x20 ADD SWAP1 SWAP3 SWAP2 SWAP1 POP POP POP PUSH2 0x38B JUMP JUMPDEST STOP JUMPDEST PUSH2 0xAA PUSH2 0x518 JUMP JUMPDEST PUSH1 0x40 MLOAD DUP1 DUP3 PUSH20 0xFFFFFFFFFFFFFFFFFFFFFFFFFFFFFFFFFFFFFFFF AND DUP2 MSTORE PUSH1 0x20 ADD SWAP2 POP POP PUSH1 0x40 MLOAD DUP1 SWAP2 SUB SWAP1 RETURN JUMPDEST PUSH1 0x0 DUP2 GT PUSH2 0x14C JUMPI PUSH1 0x40 MLOAD PUSH32 0x8C379A000000000000000000000000000000000000000000000000000000000 DUP2 MSTORE PUSH1 0x4 ADD DUP1 DUP1 PUSH1 0x20 ADD DUP3 DUP2 SUB DUP3 MSTORE PUSH1 0x12 DUP2 MSTORE PUSH1 0x20 ADD DUP1 PUSH32 0x416D6F756E74206D757374206265203E20300000000000000000000000000000 DUP2 MSTORE POP PUSH1 0x20 ADD SWAP2 POP POP PUSH1 0x40 MLOAD DUP1 SWAP2 SUB SWAP1 REVERT JUMPDEST PUSH1 0x2 PUSH1 0x0 CALLER PUSH20 0xFFFFFFFFFFFFFFFFFFFFFFFFFFFFFFFFFFFFFFFF AND PUSH20 0xFFFFFFFFFFFFFFFFFFFFFFFFFFFFFFFFFFFFFFFF AND DUP2 MSTORE PUSH1 0x20 ADD SWAP1 DUP2 MSTORE PUSH1 0x20 ADD PUSH1 0x0 KECCAK256 PUSH1 0x0 SWAP1 SLOAD SWAP1 PUSH2 0x100 EXP SWAP1 DIV PUSH16 0xFFFFFFFFFFFFFFFFFFFFFFFFFFFFFFFF AND PUSH16 0xFFFFFFFFFFFFFFFFFFFFFFFFFFFFFFFF AND DUP2 PUSH16 0xFFFFFFFFFFFFFFFFFFFFFFFFFFFFFFFF AND GT ISZERO PUSH2 0x224 JUMPI PUSH1 0x40 MLOAD PUSH32 0x8C379A000000000000000000000000000000000000000000000000000000000 DUP2 MSTORE PUSH1 0x4 ADD DUP1 DUP1 PUSH1 0x20 ADD DUP3 DUP2 SUB DUP3 MSTORE PUSH1 0x21 DUP2 MSTORE PUSH1 0x20 ADD DUP1 PUSH2 0x53F PUSH1 0x21 SWAP2 CODECOPY PUSH1 0x40 ADD SWAP2 POP POP PUSH1 0x40 MLOAD DUP1 SWAP2 SUB SWAP1 REVERT JUMPDEST PUSH1 0x0 DUP1 SLOAD SWAP1 PUSH2 0x100 EXP SWAP1 DIV PUSH20 0xFFFFFFFFFFFFFFFFFFFFFFFFFFFFFFFFFFFFFFFF AND PUSH20 0xFFFFFFFFFFFFFFFFFFFFFFFFFFFFFFFFFFFFFFFF AND PUSH4 0xA9059CBB CALLER DUP4 PUSH1 0x40 MLOAD DUP4 PUSH4 0xFFFFFFFF AND PUSH1 0xE0 SHL DUP2 MSTORE PUSH1 0x4 ADD DUP1 DUP4 PUSH20 0xFFFFFFFFFFFFFFFFFFFFFFFFFFFFFFFFFFFFFFFF AND DUP2 MSTORE PUSH1 0x20 ADD DUP3 DUP2 MSTORE PUSH1 0x20 ADD SWAP3 POP POP POP PUSH1 0x20 PUSH1 0x40 MLOAD DUP1 DUP4 SUB DUP2 PUSH1 0x0 DUP8 DUP1 EXTCODESIZE ISZERO DUP1 ISZERO PUSH2 0x2B5 JUMPI PUSH1 0x0 DUP1 REVERT JUMPDEST POP GAS CALL ISZERO DUP1 ISZERO PUSH2 0x2C9 JUMPI RETURNDATASIZE PUSH1 0x0 DUP1 RETURNDATACOPY RETURNDATASIZE PUSH1 0x0 REVERT JUMPDEST POP POP POP POP PUSH1 0x40 MLOAD RETURNDATASIZE PUSH1 0x20 DUP2 LT ISZERO PUSH2 0x2DF JUMPI PUSH1 0x0 DUP1 REVERT JUMPDEST DUP2 ADD SWAP1 DUP1 DUP1 MLOAD SWAP1 PUSH1 0x20 ADD SWAP1 SWAP3 SWAP2 SWAP1 POP POP POP POP DUP1 PUSH1 0x2 PUSH1 0x0 CALLER PUSH20 0xFFFFFFFFFFFFFFFFFFFFFFFFFFFFFFFFFFFFFFFF AND PUSH20 0xFFFFFFFFFFFFFFFFFFFFFFFFFFFFFFFFFFFFFFFF AND DUP2 MSTORE PUSH1 0x20 ADD SWAP1 DUP2 MSTORE PUSH1 0x20 ADD PUSH1 0x0 KECCAK256 PUSH1 0x0 DUP3 DUP3 DUP3 SWAP1 SLOAD SWAP1 PUSH2 0x100 EXP SWAP1 DIV PUSH16 0xFFFFFFFFFFFFFFFFFFFFFFFFFFFFFFFF AND SUB SWAP3 POP PUSH2 0x100 EXP DUP2 SLOAD DUP2 PUSH16 0xFFFFFFFFFFFFFFFFFFFFFFFFFFFFFFFF MUL NOT AND SWAP1 DUP4 PUSH16 0xFFFFFFFFFFFFFFFFFFFFFFFFFFFFFFFF AND MUL OR SWAP1 SSTORE POP POP JUMP JUMPDEST PUSH1 0x0 DUP1 SLOAD SWAP1 PUSH2 0x100 EXP SWAP1 DIV PUSH20 0xFFFFFFFFFFFFFFFFFFFFFFFFFFFFFFFFFFFFFFFF AND PUSH20 0xFFFFFFFFFFFFFFFFFFFFFFFFFFFFFFFFFFFFFFFF AND PUSH4 0x23B872DD CALLER ADDRESS DUP5 PUSH1 0x40 MLOAD DUP5 PUSH4 0xFFFFFFFF AND PUSH1 0xE0 SHL DUP2 MSTORE PUSH1 0x4 ADD DUP1 DUP5 PUSH20 0xFFFFFFFFFFFFFFFFFFFFFFFFFFFFFFFFFFFFFFFF AND DUP2 MSTORE PUSH1 0x20 ADD DUP4 PUSH20 0xFFFFFFFFFFFFFFFFFFFFFFFFFFFFFFFFFFFFFFFF AND DUP2 MSTORE PUSH1 0x20 ADD DUP3 DUP2 MSTORE PUSH1 0x20 ADD SWAP4 POP POP POP POP PUSH1 0x20 PUSH1 0x40 MLOAD DUP1 DUP4 SUB DUP2 PUSH1 0x0 DUP8 DUP1 EXTCODESIZE ISZERO DUP1 ISZERO PUSH2 0x43A JUMPI PUSH1 0x0 DUP1 REVERT JUMPDEST POP GAS CALL ISZERO DUP1 ISZERO PUSH2 0x44E JUMPI RETURNDATASIZE PUSH1 0x0 DUP1 RETURNDATACOPY RETURNDATASIZE PUSH1 0x0 REVERT JUMPDEST POP POP POP POP PUSH1 0x40 MLOAD RETURNDATASIZE PUSH1 0x20 DUP2 LT ISZERO PUSH2 0x464 JUMPI PUSH1 0x0 DUP1 REVERT JUMPDEST DUP2 ADD SWAP1 DUP1 DUP1 MLOAD SWAP1 PUSH1 0x20 ADD SWAP1 SWAP3 SWAP2 SWAP1 POP POP POP PUSH2 0x47E JUMPI PUSH1 0x0 DUP1 REVERT JUMPDEST DUP1 PUSH1 0x2 PUSH1 0x0 CALLER PUSH20 0xFFFFFFFFFFFFFFFFFFFFFFFFFFFFFFFFFFFFFFFF AND PUSH20 0xFFFFFFFFFFFFFFFFFFFFFFFFFFFFFFFFFFFFFFFF AND DUP2 MSTORE PUSH1 0x20 ADD SWAP1 DUP2 MSTORE PUSH1 0x20 ADD PUSH1 0x0 KECCAK256 PUSH1 0x0 DUP3 DUP3 DUP3 SWAP1 SLOAD SWAP1 PUSH2 0x100 EXP SWAP1 DIV PUSH16 0xFFFFFFFFFFFFFFFFFFFFFFFFFFFFFFFF AND ADD SWAP3 POP PUSH2 0x100 EXP DUP2 SLOAD DUP2 PUSH16 0xFFFFFFFFFFFFFFFFFFFFFFFFFFFFFFFF MUL NOT AND SWAP1 DUP4 PUSH16 0xFFFFFFFFFFFFFFFFFFFFFFFFFFFFFFFF AND MUL OR SWAP1 SSTORE POP POP JUMP JUMPDEST PUSH1 0x1 PUSH1 0x0 SWAP1 SLOAD SWAP1 PUSH2 0x100 EXP SWAP1 DIV PUSH20 0xFFFFFFFFFFFFFFFFFFFFFFFFFFFFFFFFFFFFFFFF AND DUP2 JUMP INVALID MSTORE8 PUSH16 0x7272792C20796F757220637265646974 KECCAK256 PUSH10 0x732072756E6E696E6720 PUSH13 0x6F77A2646970667358221220BD SWAP10 SWAP2 PUSH12 0x75E4B38A937ABA7C1985193C DUP6 0xE4 PUSH28 0xAADA2578176423D13951EB644F64736F6C634300060C003360806040 MSTORE CALLVALUE DUP1 ISZERO PUSH3 0x11 JUMPI PUSH1 0x0 DUP1 REVERT JUMPDEST POP PUSH1 0x40 MLOAD DUP1 PUSH1 0x40 ADD PUSH1 0x40 MSTORE DUP1 PUSH1 0xA DUP2 MSTORE PUSH1 0x20 ADD PUSH32 0x4355495420544F4B454E00000000000000000000000000000000000000000000 DUP2 MSTORE POP PUSH1 0x40 MLOAD DUP1 PUSH1 0x40 ADD PUSH1 0x40 MSTORE DUP1 PUSH1 0x4 DUP2 MSTORE PUSH1 0x20 ADD PUSH32 0x4355495400000000000000000000000000000000000000000000000000000000 DUP2 MSTORE POP DUP2 PUSH1 0x2 SWAP1 DUP1 MLOAD SWAP1 PUSH1 0x20 ADD SWAP1 PUSH3 0x96 SWAP3 SWAP2 SWAP1 PUSH3 0x2C2 JUMP JUMPDEST POP DUP1 PUSH1 0x3 SWAP1 DUP1 MLOAD SWAP1 PUSH1 0x20 ADD SWAP1 PUSH3 0xAF SWAP3 SWAP2 SWAP1 PUSH3 0x2C2 JUMP JUMPDEST POP PUSH1 0x12 PUSH1 0x4 PUSH1 0x0 PUSH2 0x100 EXP DUP2 SLOAD DUP2 PUSH1 0xFF MUL NOT AND SWAP1 DUP4 PUSH1 0xFF AND MUL OR SWAP1 SSTORE POP POP POP PUSH3 0xF1 CALLER PUSH17 0x2F050FE938943ACC45F65568000000000 PUSH3 0xF7 PUSH1 0x20 SHL PUSH1 0x20 SHR JUMP JUMPDEST PUSH3 0x368 JUMP JUMPDEST PUSH1 0x0 PUSH20 0xFFFFFFFFFFFFFFFFFFFFFFFFFFFFFFFFFFFFFFFF AND DUP3 PUSH20 0xFFFFFFFFFFFFFFFFFFFFFFFFFFFFFFFFFFFFFFFF AND EQ ISZERO PUSH3 0x19B JUMPI PUSH1 0x40 MLOAD PUSH32 0x8C379A000000000000000000000000000000000000000000000000000000000 DUP2 MSTORE PUSH1 0x4 ADD DUP1 DUP1 PUSH1 0x20 ADD DUP3 DUP2 SUB DUP3 MSTORE PUSH1 0x1F DUP2 MSTORE PUSH1 0x20 ADD DUP1 PUSH32 0x45524332303A206D696E7420746F20746865207A65726F206164647265737300 DUP2 MSTORE POP PUSH1 0x20 ADD SWAP2 POP POP PUSH1 0x40 MLOAD DUP1 SWAP2 SUB SWAP1 REVERT JUMPDEST PUSH3 0x1F3 DUP2 PUSH1 0x0 DUP1 DUP6 PUSH20 0xFFFFFFFFFFFFFFFFFFFFFFFFFFFFFFFFFFFFFFFF AND PUSH20 0xFFFFFFFFFFFFFFFFFFFFFFFFFFFFFFFFFFFFFFFF AND DUP2 MSTORE PUSH1 0x20 ADD SWAP1 DUP2 MSTORE PUSH1 0x20 ADD PUSH1 0x0 KECCAK256 SLOAD PUSH3 0x239 PUSH1 0x20 SHL PUSH3 0x6E6 OR SWAP1 SWAP2 SWAP1 PUSH1 0x20 SHR JUMP JUMPDEST PUSH1 0x0 DUP1 DUP5 PUSH20 0xFFFFFFFFFFFFFFFFFFFFFFFFFFFFFFFFFFFFFFFF AND PUSH20 0xFFFFFFFFFFFFFFFFFFFFFFFFFFFFFFFFFFFFFFFF AND DUP2 MSTORE PUSH1 0x20 ADD SWAP1 DUP2 MSTORE PUSH1 0x20 ADD PUSH1 0x0 KECCAK256 DUP2 SWAP1 SSTORE POP POP POP JUMP JUMPDEST PUSH1 0x0 DUP1 DUP3 DUP5 ADD SWAP1 POP DUP4 DUP2 LT ISZERO PUSH3 0x2B8 JUMPI PUSH1 0x40 MLOAD PUSH32 0x8C379A000000000000000000000000000000000000000000000000000000000 DUP2 MSTORE PUSH1 0x4 ADD DUP1 DUP1 PUSH1 0x20 ADD DUP3 DUP2 SUB DUP3 MSTORE PUSH1 0x1B DUP2 MSTORE PUSH1 0x20 ADD DUP1 PUSH32 0x536166654D6174683A206164646974696F6E206F766572666C6F770000000000 DUP2 MSTORE POP PUSH1 0x20 ADD SWAP2 POP POP PUSH1 0x40 MLOAD DUP1 SWAP2 SUB SWAP1 REVERT JUMPDEST DUP1 SWAP2 POP POP SWAP3 SWAP2 POP POP JUMP JUMPDEST DUP3 DUP1 SLOAD PUSH1 0x1 DUP2 PUSH1 0x1 AND ISZERO PUSH2 0x100 MUL SUB AND PUSH1 0x2 SWAP1 DIV SWAP1 PUSH1 0x0 MSTORE PUSH1 0x20 PUSH1 0x0 KECCAK256 SWAP1 PUSH1 0x1F ADD PUSH1 0x20 SWAP1 DIV DUP2 ADD SWAP3 DUP3 PUSH1 0x1F LT PUSH3 0x305 JUMPI DUP1 MLOAD PUSH1 0xFF NOT AND DUP4 DUP1 ADD OR DUP6 SSTORE PUSH3 0x336 JUMP JUMPDEST DUP3 DUP1 ADD PUSH1 0x1 ADD DUP6 SSTORE DUP3 ISZERO PUSH3 0x336 JUMPI SWAP2 DUP3 ADD JUMPDEST DUP3 DUP2 GT ISZERO PUSH3 0x335 JUMPI DUP3 MLOAD DUP3 SSTORE SWAP2 PUSH1 0x20 ADD SWAP2 SWAP1 PUSH1 0x1 ADD SWAP1 PUSH3 0x318 JUMP JUMPDEST JUMPDEST POP SWAP1 POP PUSH3 0x345 SWAP2 SWAP1 PUSH3 0x349 JUMP JUMPDEST POP SWAP1 JUMP JUMPDEST JUMPDEST DUP1 DUP3 GT ISZERO PUSH3 0x364 JUMPI PUSH1 0x0 DUP2 PUSH1 0x0 SWAP1 SSTORE POP PUSH1 0x1 ADD PUSH3 0x34A JUMP JUMPDEST POP SWAP1 JUMP JUMPDEST PUSH2 0xC84 DUP1 PUSH3 0x378 PUSH1 0x0 CODECOPY PUSH1 0x0 RETURN INVALID PUSH1 0x80 PUSH1 0x40 MSTORE CALLVALUE DUP1 ISZERO PUSH2 0x10 JUMPI PUSH1 0x0 DUP1 REVERT JUMPDEST POP PUSH1 0x4 CALLDATASIZE LT PUSH2 0x93 JUMPI PUSH1 0x0 CALLDATALOAD PUSH1 0xE0 SHR DUP1 PUSH4 0x6EBCF607 GT PUSH2 0x66 JUMPI DUP1 PUSH4 0x6EBCF607 EQ PUSH2 0x219 JUMPI DUP1 PUSH4 0x70A08231 EQ PUSH2 0x271 JUMPI DUP1 PUSH4 0xA9059CBB EQ PUSH2 0x2C9 JUMPI DUP1 PUSH4 0xB09F1266 EQ PUSH2 0x32D JUMPI DUP1 PUSH4 0xD28D8852 EQ PUSH2 0x3B0 JUMPI PUSH2 0x93 JUMP JUMPDEST DUP1 PUSH4 0x24C2DDD EQ PUSH2 0x98 JUMPI DUP1 PUSH4 0x95EA7B3 EQ PUSH2 0x110 JUMPI DUP1 PUSH4 0x23B872DD EQ PUSH2 0x174 JUMPI DUP1 PUSH4 0x32424AA3 EQ PUSH2 0x1F8 JUMPI JUMPDEST PUSH1 0x0 DUP1 REVERT JUMPDEST PUSH2 0xFA PUSH1 0x4 DUP1 CALLDATASIZE SUB PUSH1 0x40 DUP2 LT ISZERO PUSH2 0xAE JUMPI PUSH1 0x0 DUP1 REVERT JUMPDEST DUP2 ADD SWAP1 DUP1 DUP1 CALLDATALOAD PUSH20 0xFFFFFFFFFFFFFFFFFFFFFFFFFFFFFFFFFFFFFFFF AND SWAP1 PUSH1 0x20 ADD SWAP1 SWAP3 SWAP2 SWAP1 DUP1 CALLDATALOAD PUSH20 0xFFFFFFFFFFFFFFFFFFFFFFFFFFFFFFFFFFFFFFFF AND SWAP1 PUSH1 0x20 ADD SWAP1 SWAP3 SWAP2 SWAP1 POP POP POP PUSH2 0x433 JUMP JUMPDEST PUSH1 0x40 MLOAD DUP1 DUP3 DUP2 MSTORE PUSH1 0x20 ADD SWAP2 POP POP PUSH1 0x40 MLOAD DUP1 SWAP2 SUB SWAP1 RETURN JUMPDEST PUSH2 0x15C PUSH1 0x4 DUP1 CALLDATASIZE SUB PUSH1 0x40 DUP2 LT ISZERO PUSH2 0x126 JUMPI PUSH1 0x0 DUP1 REVERT JUMPDEST DUP2 ADD SWAP1 DUP1 DUP1 CALLDATALOAD PUSH20 0xFFFFFFFFFFFFFFFFFFFFFFFFFFFFFFFFFFFFFFFF AND SWAP1 PUSH1 0x20 ADD SWAP1 SWAP3 SWAP2 SWAP1 DUP1 CALLDATALOAD SWAP1 PUSH1 0x20 ADD SWAP1 SWAP3 SWAP2 SWAP1 POP POP POP PUSH2 0x458 JUMP JUMPDEST PUSH1 0x40 MLOAD DUP1 DUP3 ISZERO ISZERO DUP2 MSTORE PUSH1 0x20 ADD SWAP2 POP POP PUSH1 0x40 MLOAD DUP1 SWAP2 SUB SWAP1 RETURN JUMPDEST PUSH2 0x1E0 PUSH1 0x4 DUP1 CALLDATASIZE SUB PUSH1 0x60 DUP2 LT ISZERO PUSH2 0x18A JUMPI PUSH1 0x0 DUP1 REVERT JUMPDEST DUP2 ADD SWAP1 DUP1 DUP1 CALLDATALOAD PUSH20 0xFFFFFFFFFFFFFFFFFFFFFFFFFFFFFFFFFFFFFFFF AND SWAP1 PUSH1 0x20 ADD SWAP1 SWAP3 SWAP2 SWAP1 DUP1 CALLDATALOAD PUSH20 0xFFFFFFFFFFFFFFFFFFFFFFFFFFFFFFFFFFFFFFFF AND SWAP1 PUSH1 0x20 ADD SWAP1 SWAP3 SWAP2 SWAP1 DUP1 CALLDATALOAD SWAP1 PUSH1 0x20 ADD SWAP1 SWAP3 SWAP2 SWAP1 POP POP POP PUSH2 0x46F JUMP JUMPDEST PUSH1 0x40 MLOAD DUP1 DUP3 ISZERO ISZERO DUP2 MSTORE PUSH1 0x20 ADD SWAP2 POP POP PUSH1 0x40 MLOAD DUP1 SWAP2 SUB SWAP1 RETURN JUMPDEST PUSH2 0x200 PUSH2 0x520 JUMP JUMPDEST PUSH1 0x40 MLOAD DUP1 DUP3 PUSH1 0xFF AND DUP2 MSTORE PUSH1 0x20 ADD SWAP2 POP POP PUSH1 0x40 MLOAD DUP1 SWAP2 SUB SWAP1 RETURN JUMPDEST PUSH2 0x25B PUSH1 0x4 DUP1 CALLDATASIZE SUB PUSH1 0x20 DUP2 LT ISZERO PUSH2 0x22F JUMPI PUSH1 0x0 DUP1 REVERT JUMPDEST DUP2 ADD SWAP1 DUP1 DUP1 CALLDATALOAD PUSH20 0xFFFFFFFFFFFFFFFFFFFFFFFFFFFFFFFFFFFFFFFF AND SWAP1 PUSH1 0x20 ADD SWAP1 SWAP3 SWAP2 SWAP1 POP POP POP PUSH2 0x533 JUMP JUMPDEST PUSH1 0x40 MLOAD DUP1 DUP3 DUP2 MSTORE PUSH1 0x20 ADD SWAP2 POP POP PUSH1 0x40 MLOAD DUP1 SWAP2 SUB SWAP1 RETURN JUMPDEST PUSH2 0x2B3 PUSH1 0x4 DUP1 CALLDATASIZE SUB PUSH1 0x20 DUP2 LT ISZERO PUSH2 0x287 JUMPI PUSH1 0x0 DUP1 REVERT JUMPDEST DUP2 ADD SWAP1 DUP1 DUP1 CALLDATALOAD PUSH20 0xFFFFFFFFFFFFFFFFFFFFFFFFFFFFFFFFFFFFFFFF AND SWAP1 PUSH1 0x20 ADD SWAP1 SWAP3 SWAP2 SWAP1 POP POP POP PUSH2 0x54B JUMP JUMPDEST PUSH1 0x40 MLOAD DUP1 DUP3 DUP2 MSTORE PUSH1 0x20 ADD SWAP2 POP POP PUSH1 0x40 MLOAD DUP1 SWAP2 SUB SWAP1 RETURN JUMPDEST PUSH2 0x315 PUSH1 0x4 DUP1 CALLDATASIZE SUB PUSH1 0x40 DUP2 LT ISZERO PUSH2 0x2DF JUMPI PUSH1 0x0 DUP1 REVERT JUMPDEST DUP2 ADD SWAP1 DUP1 DUP1 CALLDATALOAD PUSH20 0xFFFFFFFFFFFFFFFFFFFFFFFFFFFFFFFFFFFFFFFF AND SWAP1 PUSH1 0x20 ADD SWAP1 SWAP3 SWAP2 SWAP1 DUP1 CALLDATALOAD SWAP1 PUSH1 0x20 ADD SWAP1 SWAP3 SWAP2 SWAP1 POP POP POP PUSH2 0x593 JUMP JUMPDEST PUSH1 0x40 MLOAD DUP1 DUP3 ISZERO ISZERO DUP2 MSTORE PUSH1 0x20 ADD SWAP2 POP POP PUSH1 0x40 MLOAD DUP1 SWAP2 SUB SWAP1 RETURN JUMPDEST PUSH2 0x335 PUSH2 0x5AA JUMP JUMPDEST PUSH1 0x40 MLOAD DUP1 DUP1 PUSH1 0x20 ADD DUP3 DUP2 SUB DUP3 MSTORE DUP4 DUP2 DUP2 MLOAD DUP2 MSTORE PUSH1 0x20 ADD SWAP2 POP DUP1 MLOAD SWAP1 PUSH1 0x20 ADD SWAP1 DUP1 DUP4 DUP4 PUSH1 0x0 JUMPDEST DUP4 DUP2 LT ISZERO PUSH2 0x375 JUMPI DUP1 DUP3 ADD MLOAD DUP2 DUP5 ADD MSTORE PUSH1 0x20 DUP2 ADD SWAP1 POP PUSH2 0x35A JUMP JUMPDEST POP POP POP POP SWAP1 POP SWAP1 DUP2 ADD SWAP1 PUSH1 0x1F AND DUP1 ISZERO PUSH2 0x3A2 JUMPI DUP1 DUP3 SUB DUP1 MLOAD PUSH1 0x1 DUP4 PUSH1 0x20 SUB PUSH2 0x100 EXP SUB NOT AND DUP2 MSTORE PUSH1 0x20 ADD SWAP2 POP JUMPDEST POP SWAP3 POP POP POP PUSH1 0x40 MLOAD DUP1 SWAP2 SUB SWAP1 RETURN JUMPDEST PUSH2 0x3B8 PUSH2 0x648 JUMP JUMPDEST PUSH1 0x40 MLOAD DUP1 DUP1 PUSH1 0x20 ADD DUP3 DUP2 SUB DUP3 MSTORE DUP4 DUP2 DUP2 MLOAD DUP2 MSTORE PUSH1 0x20 ADD SWAP2 POP DUP1 MLOAD SWAP1 PUSH1 0x20 ADD SWAP1 DUP1 DUP4 DUP4 PUSH1 0x0 JUMPDEST DUP4 DUP2 LT ISZERO PUSH2 0x3F8 JUMPI DUP1 DUP3 ADD MLOAD DUP2 DUP5 ADD MSTORE PUSH1 0x20 DUP2 ADD SWAP1 POP PUSH2 0x3DD JUMP JUMPDEST POP POP POP POP SWAP1 POP SWAP1 DUP2 ADD SWAP1 PUSH1 0x1F AND DUP1 ISZERO PUSH2 0x425 JUMPI DUP1 DUP3 SUB DUP1 MLOAD PUSH1 0x1 DUP4 PUSH1 0x20 SUB PUSH2 0x100 EXP SUB NOT AND DUP2 MSTORE PUSH1 0x20 ADD SWAP2 POP JUMPDEST POP SWAP3 POP POP POP PUSH1 0x40 MLOAD DUP1 SWAP2 SUB SWAP1 RETURN JUMPDEST PUSH1 0x1 PUSH1 0x20 MSTORE DUP2 PUSH1 0x0 MSTORE PUSH1 0x40 PUSH1 0x0 KECCAK256 PUSH1 0x20 MSTORE DUP1 PUSH1 0x0 MSTORE PUSH1 0x40 PUSH1 0x0 KECCAK256 PUSH1 0x0 SWAP2 POP SWAP2 POP POP SLOAD DUP2 JUMP JUMPDEST PUSH1 0x0 PUSH2 0x465 CALLER DUP5 DUP5 PUSH2 0x76E JUMP JUMPDEST PUSH1 0x1 SWAP1 POP SWAP3 SWAP2 POP POP JUMP JUMPDEST PUSH1 0x0 PUSH2 0x47C DUP5 DUP5 DUP5 PUSH2 0x900 JUMP JUMPDEST PUSH2 0x515 DUP5 CALLER PUSH2 0x510 DUP6 PUSH1 0x1 PUSH1 0x0 DUP11 PUSH20 0xFFFFFFFFFFFFFFFFFFFFFFFFFFFFFFFFFFFFFFFF AND PUSH20 0xFFFFFFFFFFFFFFFFFFFFFFFFFFFFFFFFFFFFFFFF AND DUP2 MSTORE PUSH1 0x20 ADD SWAP1 DUP2 MSTORE PUSH1 0x20 ADD PUSH1 0x0 KECCAK256 PUSH1 0x0 CALLER PUSH20 0xFFFFFFFFFFFFFFFFFFFFFFFFFFFFFFFFFFFFFFFF AND PUSH20 0xFFFFFFFFFFFFFFFFFFFFFFFFFFFFFFFFFFFFFFFF AND DUP2 MSTORE PUSH1 0x20 ADD SWAP1 DUP2 MSTORE PUSH1 0x20 ADD PUSH1 0x0 KECCAK256 SLOAD PUSH2 0xB37 SWAP1 SWAP2 SWAP1 PUSH4 0xFFFFFFFF AND JUMP JUMPDEST PUSH2 0x76E JUMP JUMPDEST PUSH1 0x1 SWAP1 POP SWAP4 SWAP3 POP POP POP JUMP JUMPDEST PUSH1 0x4 PUSH1 0x0 SWAP1 SLOAD SWAP1 PUSH2 0x100 EXP SWAP1 DIV PUSH1 0xFF AND DUP2 JUMP JUMPDEST PUSH1 0x0 PUSH1 0x20 MSTORE DUP1 PUSH1 0x0 MSTORE PUSH1 0x40 PUSH1 0x0 KECCAK256 PUSH1 0x0 SWAP2 POP SWAP1 POP SLOAD DUP2 JUMP JUMPDEST PUSH1 0x0 DUP1 PUSH1 0x0 DUP4 PUSH20 0xFFFFFFFFFFFFFFFFFFFFFFFFFFFFFFFFFFFFFFFF AND PUSH20 0xFFFFFFFFFFFFFFFFFFFFFFFFFFFFFFFFFFFFFFFF AND DUP2 MSTORE PUSH1 0x20 ADD SWAP1 DUP2 MSTORE PUSH1 0x20 ADD PUSH1 0x0 KECCAK256 SLOAD SWAP1 POP SWAP2 SWAP1 POP JUMP JUMPDEST PUSH1 0x0 PUSH2 0x5A0 CALLER DUP5 DUP5 PUSH2 0x900 JUMP JUMPDEST PUSH1 0x1 SWAP1 POP SWAP3 SWAP2 POP POP JUMP JUMPDEST PUSH1 0x3 DUP1 SLOAD PUSH1 0x1 DUP2 PUSH1 0x1 AND ISZERO PUSH2 0x100 MUL SUB AND PUSH1 0x2 SWAP1 DIV DUP1 PUSH1 0x1F ADD PUSH1 0x20 DUP1 SWAP2 DIV MUL PUSH1 0x20 ADD PUSH1 0x40 MLOAD SWAP1 DUP2 ADD PUSH1 0x40 MSTORE DUP1 SWAP3 SWAP2 SWAP1 DUP2 DUP2 MSTORE PUSH1 0x20 ADD DUP3 DUP1 SLOAD PUSH1 0x1 DUP2 PUSH1 0x1 AND ISZERO PUSH2 0x100 MUL SUB AND PUSH1 0x2 SWAP1 DIV DUP1 ISZERO PUSH2 0x640 JUMPI DUP1 PUSH1 0x1F LT PUSH2 0x615 JUMPI PUSH2 0x100 DUP1 DUP4 SLOAD DIV MUL DUP4 MSTORE SWAP2 PUSH1 0x20 ADD SWAP2 PUSH2 0x640 JUMP JUMPDEST DUP3 ADD SWAP2 SWAP1 PUSH1 0x0 MSTORE PUSH1 0x20 PUSH1 0x0 KECCAK256 SWAP1 JUMPDEST DUP2 SLOAD DUP2 MSTORE SWAP1 PUSH1 0x1 ADD SWAP1 PUSH1 0x20 ADD DUP1 DUP4 GT PUSH2 0x623 JUMPI DUP3 SWAP1 SUB PUSH1 0x1F AND DUP3 ADD SWAP2 JUMPDEST POP POP POP POP POP DUP2 JUMP JUMPDEST PUSH1 0x2 DUP1 SLOAD PUSH1 0x1 DUP2 PUSH1 0x1 AND ISZERO PUSH2 0x100 MUL SUB AND PUSH1 0x2 SWAP1 DIV DUP1 PUSH1 0x1F ADD PUSH1 0x20 DUP1 SWAP2 DIV MUL PUSH1 0x20 ADD PUSH1 0x40 MLOAD SWAP1 DUP2 ADD PUSH1 0x40 MSTORE DUP1 SWAP3 SWAP2 SWAP1 DUP2 DUP2 MSTORE PUSH1 0x20 ADD DUP3 DUP1 SLOAD PUSH1 0x1 DUP2 PUSH1 0x1 AND ISZERO PUSH2 0x100 MUL SUB AND PUSH1 0x2 SWAP1 DIV DUP1 ISZERO PUSH2 0x6DE JUMPI DUP1 PUSH1 0x1F LT PUSH2 0x6B3 JUMPI PUSH2 0x100 DUP1 DUP4 SLOAD DIV MUL DUP4 MSTORE SWAP2 PUSH1 0x20 ADD SWAP2 PUSH2 0x6DE JUMP JUMPDEST DUP3 ADD SWAP2 SWAP1 PUSH1 0x0 MSTORE PUSH1 0x20 PUSH1 0x0 KECCAK256 SWAP1 JUMPDEST DUP2 SLOAD DUP2 MSTORE SWAP1 PUSH1 0x1 ADD SWAP1 PUSH1 0x20 ADD DUP1 DUP4 GT PUSH2 0x6C1 JUMPI DUP3 SWAP1 SUB PUSH1 0x1F AND DUP3 ADD SWAP2 JUMPDEST POP POP POP POP POP DUP2 JUMP JUMPDEST PUSH1 0x0 DUP1 DUP3 DUP5 ADD SWAP1 POP DUP4 DUP2 LT ISZERO PUSH2 0x764 JUMPI PUSH1 0x40 MLOAD PUSH32 0x8C379A000000000000000000000000000000000000000000000000000000000 DUP2 MSTORE PUSH1 0x4 ADD DUP1 DUP1 PUSH1 0x20 ADD DUP3 DUP2 SUB DUP3 MSTORE PUSH1 0x1B DUP2 MSTORE PUSH1 0x20 ADD DUP1 PUSH32 0x536166654D6174683A206164646974696F6E206F766572666C6F770000000000 DUP2 MSTORE POP PUSH1 0x20 ADD SWAP2 POP POP PUSH1 0x40 MLOAD DUP1 SWAP2 SUB SWAP1 REVERT JUMPDEST DUP1 SWAP2 POP POP SWAP3 SWAP2 POP POP JUMP JUMPDEST PUSH1 0x0 PUSH20 0xFFFFFFFFFFFFFFFFFFFFFFFFFFFFFFFFFFFFFFFF AND DUP4 PUSH20 0xFFFFFFFFFFFFFFFFFFFFFFFFFFFFFFFFFFFFFFFF AND EQ ISZERO PUSH2 0x7F4 JUMPI PUSH1 0x40 MLOAD PUSH32 0x8C379A000000000000000000000000000000000000000000000000000000000 DUP2 MSTORE PUSH1 0x4 ADD DUP1 DUP1 PUSH1 0x20 ADD DUP3 DUP2 SUB DUP3 MSTORE PUSH1 0x24 DUP2 MSTORE PUSH1 0x20 ADD DUP1 PUSH2 0xC2B PUSH1 0x24 SWAP2 CODECOPY PUSH1 0x40 ADD SWAP2 POP POP PUSH1 0x40 MLOAD DUP1 SWAP2 SUB SWAP1 REVERT JUMPDEST PUSH1 0x0 PUSH20 0xFFFFFFFFFFFFFFFFFFFFFFFFFFFFFFFFFFFFFFFF AND DUP3 PUSH20 0xFFFFFFFFFFFFFFFFFFFFFFFFFFFFFFFFFFFFFFFF AND EQ ISZERO PUSH2 0x87A JUMPI PUSH1 0x40 MLOAD PUSH32 0x8C379A000000000000000000000000000000000000000000000000000000000 DUP2 MSTORE PUSH1 0x4 ADD DUP1 DUP1 PUSH1 0x20 ADD DUP3 DUP2 SUB DUP3 MSTORE PUSH1 0x22 DUP2 MSTORE PUSH1 0x20 ADD DUP1 PUSH2 0xBE4 PUSH1 0x22 SWAP2 CODECOPY PUSH1 0x40 ADD SWAP2 POP POP PUSH1 0x40 MLOAD DUP1 SWAP2 SUB SWAP1 REVERT JUMPDEST DUP1 PUSH1 0x1 PUSH1 0x0 DUP6 PUSH20 0xFFFFFFFFFFFFFFFFFFFFFFFFFFFFFFFFFFFFFFFF AND PUSH20 0xFFFFFFFFFFFFFFFFFFFFFFFFFFFFFFFFFFFFFFFF AND DUP2 MSTORE PUSH1 0x20 ADD SWAP1 DUP2 MSTORE PUSH1 0x20 ADD PUSH1 0x0 KECCAK256 PUSH1 0x0 DUP5 PUSH20 0xFFFFFFFFFFFFFFFFFFFFFFFFFFFFFFFFFFFFFFFF AND PUSH20 0xFFFFFFFFFFFFFFFFFFFFFFFFFFFFFFFFFFFFFFFF AND DUP2 MSTORE PUSH1 0x20 ADD SWAP1 DUP2 MSTORE PUSH1 0x20 ADD PUSH1 0x0 KECCAK256 DUP2 SWAP1 SSTORE POP POP POP POP JUMP JUMPDEST PUSH1 0x0 PUSH20 0xFFFFFFFFFFFFFFFFFFFFFFFFFFFFFFFFFFFFFFFF AND DUP4 PUSH20 0xFFFFFFFFFFFFFFFFFFFFFFFFFFFFFFFFFFFFFFFF AND EQ ISZERO PUSH2 0x986 JUMPI PUSH1 0x40 MLOAD PUSH32 0x8C379A000000000000000000000000000000000000000000000000000000000 DUP2 MSTORE PUSH1 0x4 ADD DUP1 DUP1 PUSH1 0x20 ADD DUP3 DUP2 SUB DUP3 MSTORE PUSH1 0x25 DUP2 MSTORE PUSH1 0x20 ADD DUP1 PUSH2 0xC06 PUSH1 0x25 SWAP2 CODECOPY PUSH1 0x40 ADD SWAP2 POP POP PUSH1 0x40 MLOAD DUP1 SWAP2 SUB SWAP1 REVERT JUMPDEST PUSH1 0x0 PUSH20 0xFFFFFFFFFFFFFFFFFFFFFFFFFFFFFFFFFFFFFFFF AND DUP3 PUSH20 0xFFFFFFFFFFFFFFFFFFFFFFFFFFFFFFFFFFFFFFFF AND EQ ISZERO PUSH2 0xA0C JUMPI PUSH1 0x40 MLOAD PUSH32 0x8C379A000000000000000000000000000000000000000000000000000000000 DUP2 MSTORE PUSH1 0x4 ADD DUP1 DUP1 PUSH1 0x20 ADD DUP3 DUP2 SUB DUP3 MSTORE PUSH1 0x23 DUP2 MSTORE PUSH1 0x20 ADD DUP1 PUSH2 0xBC1 PUSH1 0x23 SWAP2 CODECOPY PUSH1 0x40 ADD SWAP2 POP POP PUSH1 0x40 MLOAD DUP1 SWAP2 SUB SWAP1 REVERT JUMPDEST PUSH2 0xA5D DUP2 PUSH1 0x0 DUP1 DUP7 PUSH20 0xFFFFFFFFFFFFFFFFFFFFFFFFFFFFFFFFFFFFFFFF AND PUSH20 0xFFFFFFFFFFFFFFFFFFFFFFFFFFFFFFFFFFFFFFFF AND DUP2 MSTORE PUSH1 0x20 ADD SWAP1 DUP2 MSTORE PUSH1 0x20 ADD PUSH1 0x0 KECCAK256 SLOAD PUSH2 0xB37 SWAP1 SWAP2 SWAP1 PUSH4 0xFFFFFFFF AND JUMP JUMPDEST PUSH1 0x0 DUP1 DUP6 PUSH20 0xFFFFFFFFFFFFFFFFFFFFFFFFFFFFFFFFFFFFFFFF AND PUSH20 0xFFFFFFFFFFFFFFFFFFFFFFFFFFFFFFFFFFFFFFFF AND DUP2 MSTORE PUSH1 0x20 ADD SWAP1 DUP2 MSTORE PUSH1 0x20 ADD PUSH1 0x0 KECCAK256 DUP2 SWAP1 SSTORE POP PUSH2 0xAF0 DUP2 PUSH1 0x0 DUP1 DUP6 PUSH20 0xFFFFFFFFFFFFFFFFFFFFFFFFFFFFFFFFFFFFFFFF AND PUSH20 0xFFFFFFFFFFFFFFFFFFFFFFFFFFFFFFFFFFFFFFFF AND DUP2 MSTORE PUSH1 0x20 ADD SWAP1 DUP2 MSTORE PUSH1 0x20 ADD PUSH1 0x0 KECCAK256 SLOAD PUSH2 0x6E6 SWAP1 SWAP2 SWAP1 PUSH4 0xFFFFFFFF AND JUMP JUMPDEST PUSH1 0x0 DUP1 DUP5 PUSH20 0xFFFFFFFFFFFFFFFFFFFFFFFFFFFFFFFFFFFFFFFF AND PUSH20 0xFFFFFFFFFFFFFFFFFFFFFFFFFFFFFFFFFFFFFFFF AND DUP2 MSTORE PUSH1 0x20 ADD SWAP1 DUP2 MSTORE PUSH1 0x20 ADD PUSH1 0x0 KECCAK256 DUP2 SWAP1 SSTORE POP POP POP POP JUMP JUMPDEST PUSH1 0x0 DUP3 DUP3 GT ISZERO PUSH2 0xBAF JUMPI PUSH1 0x40 MLOAD PUSH32 0x8C379A000000000000000000000000000000000000000000000000000000000 DUP2 MSTORE PUSH1 0x4 ADD DUP1 DUP1 PUSH1 0x20 ADD DUP3 DUP2 SUB DUP3 MSTORE PUSH1 0x1E DUP2 MSTORE PUSH1 0x20 ADD DUP1 PUSH32 0x536166654D6174683A207375627472616374696F6E206F766572666C6F770000 DUP2 MSTORE POP PUSH1 0x20 ADD SWAP2 POP POP PUSH1 0x40 MLOAD DUP1 SWAP2 SUB SWAP1 REVERT JUMPDEST PUSH1 0x0 DUP3 DUP5 SUB SWAP1 POP DUP1 SWAP2 POP POP SWAP3 SWAP2 POP POP JUMP INVALID GASLIMIT MSTORE NUMBER ORIGIN ADDRESS GASPRICE KECCAK256 PUSH21 0x72616E7366657220746F20746865207A65726F2061 PUSH5 0x6472657373 GASLIMIT MSTORE NUMBER ORIGIN ADDRESS GASPRICE KECCAK256 PUSH2 0x7070 PUSH19 0x6F766520746F20746865207A65726F20616464 PUSH19 0x65737345524332303A207472616E7366657220 PUSH7 0x726F6D20746865 KECCAK256 PUSH27 0x65726F206164647265737345524332303A20617070726F76652066 PUSH19 0x6F6D20746865207A65726F2061646472657373 LOG2 PUSH5 0x6970667358 0x22 SLT KECCAK256 SWAP14 SHL PUSH9 0xC4B1EB933C0CFDFD23 0xC7 SWAP13 SLOAD STATICCALL RETURNDATACOPY 0x26 0xA6 CALLVALUE SWAP1 0xC3 0x21 SAR 0xDC LOG3 0xEB SWAP15 PUSH24 0x3E636E64736F6C634300060C003300000000000000000000 "
				},
				"gasEstimates": {
					"creation": {
						"codeDepositCost": "170600",
						"executionCost": "infinite",
						"totalCost": "infinite"
					},
					"external": {
						"cuit()": "1025",
						"isCompleted()": "infinite",
						"score()": "1027",
						"wallet()": "1044"
					}
				},
				"methodIdentifiers": {
					"cuit()": "3ba9838c",
					"isCompleted()": "fa391c64",
					"score()": "efedc669",
					"wallet()": "521eb273"
				}
			},
			"storageLayout": {
				"storage": [
					{
						"astId": 525,
						"contract": "shoot/摸底1/2/1.sol:Check",
						"label": "wallet",
						"offset": 0,
						"slot": "0",
						"type": "t_contract(Wallet)523"
					},
					{
						"astId": 527,
						"contract": "shoot/摸底1/2/1.sol:Check",
						"label": "cuit",
						"offset": 0,
						"slot": "1",
						"type": "t_contract(Cuit)424"
					},
					{
						"astId": 529,
						"contract": "shoot/摸底1/2/1.sol:Check",
						"label": "score",
						"offset": 0,
						"slot": "2",
						"type": "t_uint256"
					}
				],
				"types": {
					"t_contract(Cuit)424": {
						"encoding": "inplace",
						"label": "contract Cuit",
						"numberOfBytes": "20"
					},
					"t_contract(Wallet)523": {
						"encoding": "inplace",
						"label": "contract Wallet",
						"numberOfBytes": "20"
					},
					"t_uint256": {
						"encoding": "inplace",
						"label": "uint256",
						"numberOfBytes": "32"
					}
				}
			},
			"userdoc": {
				"kind": "user",
				"methods": {},
				"version": 1
			}
		}
	}
}