{
	"shoot/2/可见性修饰符/1.sol": {
		"func": {
			"abi": [
				{
					"inputs": [],
					"stateMutability": "nonpayable",
					"type": "constructor"
				},
				{
					"inputs": [],
					"name": "com",
					"outputs": [],
					"stateMutability": "nonpayable",
					"type": "function"
				},
				{
					"inputs": [],
					"name": "ext",
					"outputs": [],
					"stateMutability": "nonpayable",
					"type": "function"
				},
				{
					"inputs": [],
					"name": "pul",
					"outputs": [],
					"stateMutability": "nonpayable",
					"type": "function"
				},
				{
					"inputs": [],
					"name": "score",
					"outputs": [
						{
							"internalType": "uint256",
							"name": "",
							"type": "uint256"
						}
					],
					"stateMutability": "view",
					"type": "function"
				},
				{
					"inputs": [],
					"name": "times",
					"outputs": [
						{
							"internalType": "uint256",
							"name": "",
							"type": "uint256"
						}
					],
					"stateMutability": "view",
					"type": "function"
				}
			],
			"devdoc": {
				"kind": "dev",
				"methods": {},
				"version": 1
			},
			"evm": {
				"assembly": "    /* \"shoot/2/\\xe5\\x8f\\xaf\\xe8\\xa7\\x81\\xe6\\x80\\xa7\\xe4\\xbf\\xae\\xe9\\xa5\\xb0\\xe7\\xac\\xa6/1.sol\":3436:4041  contract func{... */\n  mstore(0x40, 0x80)\n    /* \"shoot/2/\\xe5\\x8f\\xaf\\xe8\\xa7\\x81\\xe6\\x80\\xa7\\xe4\\xbf\\xae\\xe9\\xa5\\xb0\\xe7\\xac\\xa6/1.sol\":3541:3591  constructor(){... */\n  callvalue\n  dup1\n  iszero\n  tag_1\n  jumpi\n  0x00\n  dup1\n  revert\ntag_1:\n  pop\n    /* \"shoot/2/\\xe5\\x8f\\xaf\\xe8\\xa7\\x81\\xe6\\x80\\xa7\\xe4\\xbf\\xae\\xe9\\xa5\\xb0\\xe7\\xac\\xa6/1.sol\":3573:3583  msg.sender */\n  caller\n    /* \"shoot/2/\\xe5\\x8f\\xaf\\xe8\\xa7\\x81\\xe6\\x80\\xa7\\xe4\\xbf\\xae\\xe9\\xa5\\xb0\\xe7\\xac\\xa6/1.sol\":3565:3570  owner */\n  0x00\n  dup1\n    /* \"shoot/2/\\xe5\\x8f\\xaf\\xe8\\xa7\\x81\\xe6\\x80\\xa7\\xe4\\xbf\\xae\\xe9\\xa5\\xb0\\xe7\\xac\\xa6/1.sol\":3565:3583  owner = msg.sender */\n  0x0100\n  exp\n  dup2\n  sload\n  dup2\n  0xffffffffffffffffffffffffffffffffffffffff\n  mul\n  not\n  and\n  swap1\n  dup4\n  0xffffffffffffffffffffffffffffffffffffffff\n  and\n  mul\n  or\n  swap1\n  sstore\n  pop\n    /* \"shoot/2/\\xe5\\x8f\\xaf\\xe8\\xa7\\x81\\xe6\\x80\\xa7\\xe4\\xbf\\xae\\xe9\\xa5\\xb0\\xe7\\xac\\xa6/1.sol\":3436:4041  contract func{... */\n  dataSize(sub_0)\n  dup1\n  dataOffset(sub_0)\n  0x00\n  codecopy\n  0x00\n  return\nstop\n\nsub_0: assembly {\n        /* \"shoot/2/\\xe5\\x8f\\xaf\\xe8\\xa7\\x81\\xe6\\x80\\xa7\\xe4\\xbf\\xae\\xe9\\xa5\\xb0\\xe7\\xac\\xa6/1.sol\":3436:4041  contract func{... */\n      mstore(0x40, 0x80)\n      callvalue\n      dup1\n      iszero\n      tag_1\n      jumpi\n      0x00\n      dup1\n      revert\n    tag_1:\n      pop\n      jumpi(tag_2, lt(calldatasize, 0x04))\n      shr(0xe0, calldataload(0x00))\n      dup1\n      0x9e3b34bf\n      eq\n      tag_3\n      jumpi\n      dup1\n      0xc58a455b\n      eq\n      tag_4\n      jumpi\n      dup1\n      0xcf9f23b5\n      eq\n      tag_5\n      jumpi\n      dup1\n      0xe09966a8\n      eq\n      tag_6\n      jumpi\n      dup1\n      0xefedc669\n      eq\n      tag_7\n      jumpi\n    tag_2:\n      0x00\n      dup1\n      revert\n        /* \"shoot/2/\\xe5\\x8f\\xaf\\xe8\\xa7\\x81\\xe6\\x80\\xa7\\xe4\\xbf\\xae\\xe9\\xa5\\xb0\\xe7\\xac\\xa6/1.sol\":3512:3532  uint256 public times */\n    tag_3:\n      tag_8\n      tag_9\n      jump\t// in\n    tag_8:\n      mload(0x40)\n      tag_10\n      swap2\n      swap1\n      tag_11\n      jump\t// in\n    tag_10:\n      mload(0x40)\n      dup1\n      swap2\n      sub\n      swap1\n      return\n        /* \"shoot/2/\\xe5\\x8f\\xaf\\xe8\\xa7\\x81\\xe6\\x80\\xa7\\xe4\\xbf\\xae\\xe9\\xa5\\xb0\\xe7\\xac\\xa6/1.sol\":3599:3676  function pul()public{... */\n    tag_4:\n      tag_12\n      tag_13\n      jump\t// in\n    tag_12:\n      stop\n        /* \"shoot/2/\\xe5\\x8f\\xaf\\xe8\\xa7\\x81\\xe6\\x80\\xa7\\xe4\\xbf\\xae\\xe9\\xa5\\xb0\\xe7\\xac\\xa6/1.sol\":3776:3855  function ext()external{... */\n    tag_5:\n      tag_14\n      tag_15\n      jump\t// in\n    tag_14:\n      stop\n        /* \"shoot/2/\\xe5\\x8f\\xaf\\xe8\\xa7\\x81\\xe6\\x80\\xa7\\xe4\\xbf\\xae\\xe9\\xa5\\xb0\\xe7\\xac\\xa6/1.sol\":3949:4038  function com()public{... */\n    tag_6:\n      tag_16\n      tag_17\n      jump\t// in\n    tag_16:\n      stop\n        /* \"shoot/2/\\xe5\\x8f\\xaf\\xe8\\xa7\\x81\\xe6\\x80\\xa7\\xe4\\xbf\\xae\\xe9\\xa5\\xb0\\xe7\\xac\\xa6/1.sol\":3485:3505  uint256 public score */\n    tag_7:\n      tag_18\n      tag_19\n      jump\t// in\n    tag_18:\n      mload(0x40)\n      tag_20\n      swap2\n      swap1\n      tag_11\n      jump\t// in\n    tag_20:\n      mload(0x40)\n      dup1\n      swap2\n      sub\n      swap1\n      return\n        /* \"shoot/2/\\xe5\\x8f\\xaf\\xe8\\xa7\\x81\\xe6\\x80\\xa7\\xe4\\xbf\\xae\\xe9\\xa5\\xb0\\xe7\\xac\\xa6/1.sol\":3512:3532  uint256 public times */\n    tag_9:\n      sload(0x02)\n      dup2\n      jump\t// out\n        /* \"shoot/2/\\xe5\\x8f\\xaf\\xe8\\xa7\\x81\\xe6\\x80\\xa7\\xe4\\xbf\\xae\\xe9\\xa5\\xb0\\xe7\\xac\\xa6/1.sol\":3599:3676  function pul()public{... */\n    tag_13:\n        /* \"shoot/2/\\xe5\\x8f\\xaf\\xe8\\xa7\\x81\\xe6\\x80\\xa7\\xe4\\xbf\\xae\\xe9\\xa5\\xb0\\xe7\\xac\\xa6/1.sol\":3645:3646  0 */\n      0x00\n        /* \"shoot/2/\\xe5\\x8f\\xaf\\xe8\\xa7\\x81\\xe6\\x80\\xa7\\xe4\\xbf\\xae\\xe9\\xa5\\xb0\\xe7\\xac\\xa6/1.sol\":3638:3643  times */\n      sload(0x02)\n        /* \"shoot/2/\\xe5\\x8f\\xaf\\xe8\\xa7\\x81\\xe6\\x80\\xa7\\xe4\\xbf\\xae\\xe9\\xa5\\xb0\\xe7\\xac\\xa6/1.sol\":3638:3646  times==0 */\n      eq\n        /* \"shoot/2/\\xe5\\x8f\\xaf\\xe8\\xa7\\x81\\xe6\\x80\\xa7\\xe4\\xbf\\xae\\xe9\\xa5\\xb0\\xe7\\xac\\xa6/1.sol\":3630:3647  require(times==0) */\n      tag_22\n      jumpi\n      0x00\n      dup1\n      revert\n    tag_22:\n        /* \"shoot/2/\\xe5\\x8f\\xaf\\xe8\\xa7\\x81\\xe6\\x80\\xa7\\xe4\\xbf\\xae\\xe9\\xa5\\xb0\\xe7\\xac\\xa6/1.sol\":3665:3666  1 */\n      0x01\n        /* \"shoot/2/\\xe5\\x8f\\xaf\\xe8\\xa7\\x81\\xe6\\x80\\xa7\\xe4\\xbf\\xae\\xe9\\xa5\\xb0\\xe7\\xac\\xa6/1.sol\":3658:3663  times */\n      0x02\n      0x00\n        /* \"shoot/2/\\xe5\\x8f\\xaf\\xe8\\xa7\\x81\\xe6\\x80\\xa7\\xe4\\xbf\\xae\\xe9\\xa5\\xb0\\xe7\\xac\\xa6/1.sol\":3658:3666  times+=1 */\n      dup3\n      dup3\n      sload\n      tag_23\n      swap2\n      swap1\n      tag_24\n      jump\t// in\n    tag_23:\n      swap3\n      pop\n      pop\n      dup2\n      swap1\n      sstore\n      pop\n        /* \"shoot/2/\\xe5\\x8f\\xaf\\xe8\\xa7\\x81\\xe6\\x80\\xa7\\xe4\\xbf\\xae\\xe9\\xa5\\xb0\\xe7\\xac\\xa6/1.sol\":3599:3676  function pul()public{... */\n      jump\t// out\n        /* \"shoot/2/\\xe5\\x8f\\xaf\\xe8\\xa7\\x81\\xe6\\x80\\xa7\\xe4\\xbf\\xae\\xe9\\xa5\\xb0\\xe7\\xac\\xa6/1.sol\":3776:3855  function ext()external{... */\n    tag_15:\n        /* \"shoot/2/\\xe5\\x8f\\xaf\\xe8\\xa7\\x81\\xe6\\x80\\xa7\\xe4\\xbf\\xae\\xe9\\xa5\\xb0\\xe7\\xac\\xa6/1.sol\":3824:3825  2 */\n      0x02\n        /* \"shoot/2/\\xe5\\x8f\\xaf\\xe8\\xa7\\x81\\xe6\\x80\\xa7\\xe4\\xbf\\xae\\xe9\\xa5\\xb0\\xe7\\xac\\xa6/1.sol\":3817:3822  times */\n      dup1\n      sload\n        /* \"shoot/2/\\xe5\\x8f\\xaf\\xe8\\xa7\\x81\\xe6\\x80\\xa7\\xe4\\xbf\\xae\\xe9\\xa5\\xb0\\xe7\\xac\\xa6/1.sol\":3817:3825  times==2 */\n      eq\n        /* \"shoot/2/\\xe5\\x8f\\xaf\\xe8\\xa7\\x81\\xe6\\x80\\xa7\\xe4\\xbf\\xae\\xe9\\xa5\\xb0\\xe7\\xac\\xa6/1.sol\":3809:3826  require(times==2) */\n      tag_26\n      jumpi\n      0x00\n      dup1\n      revert\n    tag_26:\n        /* \"shoot/2/\\xe5\\x8f\\xaf\\xe8\\xa7\\x81\\xe6\\x80\\xa7\\xe4\\xbf\\xae\\xe9\\xa5\\xb0\\xe7\\xac\\xa6/1.sol\":3844:3845  1 */\n      0x01\n        /* \"shoot/2/\\xe5\\x8f\\xaf\\xe8\\xa7\\x81\\xe6\\x80\\xa7\\xe4\\xbf\\xae\\xe9\\xa5\\xb0\\xe7\\xac\\xa6/1.sol\":3837:3842  times */\n      0x02\n      0x00\n        /* \"shoot/2/\\xe5\\x8f\\xaf\\xe8\\xa7\\x81\\xe6\\x80\\xa7\\xe4\\xbf\\xae\\xe9\\xa5\\xb0\\xe7\\xac\\xa6/1.sol\":3837:3845  times+=1 */\n      dup3\n      dup3\n      sload\n      tag_27\n      swap2\n      swap1\n      tag_24\n      jump\t// in\n    tag_27:\n      swap3\n      pop\n      pop\n      dup2\n      swap1\n      sstore\n      pop\n        /* \"shoot/2/\\xe5\\x8f\\xaf\\xe8\\xa7\\x81\\xe6\\x80\\xa7\\xe4\\xbf\\xae\\xe9\\xa5\\xb0\\xe7\\xac\\xa6/1.sol\":3776:3855  function ext()external{... */\n      jump\t// out\n        /* \"shoot/2/\\xe5\\x8f\\xaf\\xe8\\xa7\\x81\\xe6\\x80\\xa7\\xe4\\xbf\\xae\\xe9\\xa5\\xb0\\xe7\\xac\\xa6/1.sol\":3949:4038  function com()public{... */\n    tag_17:\n        /* \"shoot/2/\\xe5\\x8f\\xaf\\xe8\\xa7\\x81\\xe6\\x80\\xa7\\xe4\\xbf\\xae\\xe9\\xa5\\xb0\\xe7\\xac\\xa6/1.sol\":4008:4012  this */\n      address\n        /* \"shoot/2/\\xe5\\x8f\\xaf\\xe8\\xa7\\x81\\xe6\\x80\\xa7\\xe4\\xbf\\xae\\xe9\\xa5\\xb0\\xe7\\xac\\xa6/1.sol\":3988:4013  msg.sender==address(this) */\n      0xffffffffffffffffffffffffffffffffffffffff\n      and\n        /* \"shoot/2/\\xe5\\x8f\\xaf\\xe8\\xa7\\x81\\xe6\\x80\\xa7\\xe4\\xbf\\xae\\xe9\\xa5\\xb0\\xe7\\xac\\xa6/1.sol\":3988:3998  msg.sender */\n      caller\n        /* \"shoot/2/\\xe5\\x8f\\xaf\\xe8\\xa7\\x81\\xe6\\x80\\xa7\\xe4\\xbf\\xae\\xe9\\xa5\\xb0\\xe7\\xac\\xa6/1.sol\":3988:4013  msg.sender==address(this) */\n      0xffffffffffffffffffffffffffffffffffffffff\n      and\n      eq\n        /* \"shoot/2/\\xe5\\x8f\\xaf\\xe8\\xa7\\x81\\xe6\\x80\\xa7\\xe4\\xbf\\xae\\xe9\\xa5\\xb0\\xe7\\xac\\xa6/1.sol\":3980:4014  require(msg.sender==address(this)) */\n      tag_29\n      jumpi\n      0x00\n      dup1\n      revert\n    tag_29:\n        /* \"shoot/2/\\xe5\\x8f\\xaf\\xe8\\xa7\\x81\\xe6\\x80\\xa7\\xe4\\xbf\\xae\\xe9\\xa5\\xb0\\xe7\\xac\\xa6/1.sol\":4025:4030  pri() */\n      tag_30\n        /* \"shoot/2/\\xe5\\x8f\\xaf\\xe8\\xa7\\x81\\xe6\\x80\\xa7\\xe4\\xbf\\xae\\xe9\\xa5\\xb0\\xe7\\xac\\xa6/1.sol\":4025:4028  pri */\n      tag_31\n        /* \"shoot/2/\\xe5\\x8f\\xaf\\xe8\\xa7\\x81\\xe6\\x80\\xa7\\xe4\\xbf\\xae\\xe9\\xa5\\xb0\\xe7\\xac\\xa6/1.sol\":4025:4030  pri() */\n      jump\t// in\n    tag_30:\n        /* \"shoot/2/\\xe5\\x8f\\xaf\\xe8\\xa7\\x81\\xe6\\x80\\xa7\\xe4\\xbf\\xae\\xe9\\xa5\\xb0\\xe7\\xac\\xa6/1.sol\":3949:4038  function com()public{... */\n      jump\t// out\n        /* \"shoot/2/\\xe5\\x8f\\xaf\\xe8\\xa7\\x81\\xe6\\x80\\xa7\\xe4\\xbf\\xae\\xe9\\xa5\\xb0\\xe7\\xac\\xa6/1.sol\":3485:3505  uint256 public score */\n    tag_19:\n      sload(0x01)\n      dup2\n      jump\t// out\n        /* \"shoot/2/\\xe5\\x8f\\xaf\\xe8\\xa7\\x81\\xe6\\x80\\xa7\\xe4\\xbf\\xae\\xe9\\xa5\\xb0\\xe7\\xac\\xa6/1.sol\":3863:3941  function pri()private{... */\n    tag_31:\n        /* \"shoot/2/\\xe5\\x8f\\xaf\\xe8\\xa7\\x81\\xe6\\x80\\xa7\\xe4\\xbf\\xae\\xe9\\xa5\\xb0\\xe7\\xac\\xa6/1.sol\":3910:3911  3 */\n      0x03\n        /* \"shoot/2/\\xe5\\x8f\\xaf\\xe8\\xa7\\x81\\xe6\\x80\\xa7\\xe4\\xbf\\xae\\xe9\\xa5\\xb0\\xe7\\xac\\xa6/1.sol\":3903:3908  times */\n      sload(0x02)\n        /* \"shoot/2/\\xe5\\x8f\\xaf\\xe8\\xa7\\x81\\xe6\\x80\\xa7\\xe4\\xbf\\xae\\xe9\\xa5\\xb0\\xe7\\xac\\xa6/1.sol\":3903:3911  times==3 */\n      eq\n        /* \"shoot/2/\\xe5\\x8f\\xaf\\xe8\\xa7\\x81\\xe6\\x80\\xa7\\xe4\\xbf\\xae\\xe9\\xa5\\xb0\\xe7\\xac\\xa6/1.sol\":3895:3912  require(times==3) */\n      tag_33\n      jumpi\n      0x00\n      dup1\n      revert\n    tag_33:\n        /* \"shoot/2/\\xe5\\x8f\\xaf\\xe8\\xa7\\x81\\xe6\\x80\\xa7\\xe4\\xbf\\xae\\xe9\\xa5\\xb0\\xe7\\xac\\xa6/1.sol\":3930:3931  1 */\n      0x01\n        /* \"shoot/2/\\xe5\\x8f\\xaf\\xe8\\xa7\\x81\\xe6\\x80\\xa7\\xe4\\xbf\\xae\\xe9\\xa5\\xb0\\xe7\\xac\\xa6/1.sol\":3923:3928  times */\n      0x02\n      0x00\n        /* \"shoot/2/\\xe5\\x8f\\xaf\\xe8\\xa7\\x81\\xe6\\x80\\xa7\\xe4\\xbf\\xae\\xe9\\xa5\\xb0\\xe7\\xac\\xa6/1.sol\":3923:3931  times+=1 */\n      dup3\n      dup3\n      sload\n      tag_34\n      swap2\n      swap1\n      tag_24\n      jump\t// in\n    tag_34:\n      swap3\n      pop\n      pop\n      dup2\n      swap1\n      sstore\n      pop\n        /* \"shoot/2/\\xe5\\x8f\\xaf\\xe8\\xa7\\x81\\xe6\\x80\\xa7\\xe4\\xbf\\xae\\xe9\\xa5\\xb0\\xe7\\xac\\xa6/1.sol\":3863:3941  function pri()private{... */\n      jump\t// out\n        /* \"#utility.yul\":7:84   */\n    tag_35:\n        /* \"#utility.yul\":44:51   */\n      0x00\n        /* \"#utility.yul\":73:78   */\n      dup2\n        /* \"#utility.yul\":62:78   */\n      swap1\n      pop\n        /* \"#utility.yul\":7:84   */\n      swap2\n      swap1\n      pop\n      jump\t// out\n        /* \"#utility.yul\":90:208   */\n    tag_36:\n        /* \"#utility.yul\":177:201   */\n      tag_41\n        /* \"#utility.yul\":195:200   */\n      dup2\n        /* \"#utility.yul\":177:201   */\n      tag_35\n      jump\t// in\n    tag_41:\n        /* \"#utility.yul\":172:175   */\n      dup3\n        /* \"#utility.yul\":165:202   */\n      mstore\n        /* \"#utility.yul\":90:208   */\n      pop\n      pop\n      jump\t// out\n        /* \"#utility.yul\":214:436   */\n    tag_11:\n        /* \"#utility.yul\":307:311   */\n      0x00\n        /* \"#utility.yul\":345:347   */\n      0x20\n        /* \"#utility.yul\":334:343   */\n      dup3\n        /* \"#utility.yul\":330:348   */\n      add\n        /* \"#utility.yul\":322:348   */\n      swap1\n      pop\n        /* \"#utility.yul\":358:429   */\n      tag_43\n        /* \"#utility.yul\":426:427   */\n      0x00\n        /* \"#utility.yul\":415:424   */\n      dup4\n        /* \"#utility.yul\":411:428   */\n      add\n        /* \"#utility.yul\":402:408   */\n      dup5\n        /* \"#utility.yul\":358:429   */\n      tag_36\n      jump\t// in\n    tag_43:\n        /* \"#utility.yul\":214:436   */\n      swap3\n      swap2\n      pop\n      pop\n      jump\t// out\n        /* \"#utility.yul\":442:622   */\n    tag_37:\n        /* \"#utility.yul\":490:567   */\n      0x4e487b7100000000000000000000000000000000000000000000000000000000\n        /* \"#utility.yul\":487:488   */\n      0x00\n        /* \"#utility.yul\":480:568   */\n      mstore\n        /* \"#utility.yul\":587:591   */\n      0x11\n        /* \"#utility.yul\":584:585   */\n      0x04\n        /* \"#utility.yul\":577:592   */\n      mstore\n        /* \"#utility.yul\":611:615   */\n      0x24\n        /* \"#utility.yul\":608:609   */\n      0x00\n        /* \"#utility.yul\":601:616   */\n      revert\n        /* \"#utility.yul\":628:819   */\n    tag_24:\n        /* \"#utility.yul\":668:671   */\n      0x00\n        /* \"#utility.yul\":687:707   */\n      tag_46\n        /* \"#utility.yul\":705:706   */\n      dup3\n        /* \"#utility.yul\":687:707   */\n      tag_35\n      jump\t// in\n    tag_46:\n        /* \"#utility.yul\":682:707   */\n      swap2\n      pop\n        /* \"#utility.yul\":721:741   */\n      tag_47\n        /* \"#utility.yul\":739:740   */\n      dup4\n        /* \"#utility.yul\":721:741   */\n      tag_35\n      jump\t// in\n    tag_47:\n        /* \"#utility.yul\":716:741   */\n      swap3\n      pop\n        /* \"#utility.yul\":764:765   */\n      dup3\n        /* \"#utility.yul\":761:762   */\n      dup3\n        /* \"#utility.yul\":757:766   */\n      add\n        /* \"#utility.yul\":750:766   */\n      swap1\n      pop\n        /* \"#utility.yul\":785:788   */\n      dup1\n        /* \"#utility.yul\":782:783   */\n      dup3\n        /* \"#utility.yul\":779:789   */\n      gt\n        /* \"#utility.yul\":776:812   */\n      iszero\n      tag_48\n      jumpi\n        /* \"#utility.yul\":792:810   */\n      tag_49\n      tag_37\n      jump\t// in\n    tag_49:\n        /* \"#utility.yul\":776:812   */\n    tag_48:\n        /* \"#utility.yul\":628:819   */\n      swap3\n      swap2\n      pop\n      pop\n      jump\t// out\n\n    auxdata: 0xa2646970667358221220371ef7882577bde0bb3e3098d5224f49fca9b3feade426249677435aa8e155a764736f6c63430008150033\n}\n",
				"bytecode": {
					"linkReferences": {},
					"object": "608060405234801561000f575f80fd5b50335f806101000a81548173ffffffffffffffffffffffffffffffffffffffff021916908373ffffffffffffffffffffffffffffffffffffffff1602179055506102408061005c5f395ff3fe608060405234801561000f575f80fd5b5060043610610055575f3560e01c80639e3b34bf14610059578063c58a455b14610077578063cf9f23b514610081578063e09966a81461008b578063efedc66914610095575b5f80fd5b6100616100b3565b60405161006e9190610191565b60405180910390f35b61007f6100b9565b005b6100896100e1565b005b610093610109565b005b61009d61014a565b6040516100aa9190610191565b60405180910390f35b60025481565b5f600254146100c6575f80fd5b600160025f8282546100d891906101d7565b92505081905550565b60028054146100ee575f80fd5b600160025f82825461010091906101d7565b92505081905550565b3073ffffffffffffffffffffffffffffffffffffffff163373ffffffffffffffffffffffffffffffffffffffff1614610140575f80fd5b610148610150565b565b60015481565b60036002541461015e575f80fd5b600160025f82825461017091906101d7565b92505081905550565b5f819050919050565b61018b81610179565b82525050565b5f6020820190506101a45f830184610182565b92915050565b7f4e487b71000000000000000000000000000000000000000000000000000000005f52601160045260245ffd5b5f6101e182610179565b91506101ec83610179565b9250828201905080821115610204576102036101aa565b5b9291505056fea2646970667358221220371ef7882577bde0bb3e3098d5224f49fca9b3feade426249677435aa8e155a764736f6c63430008150033",
					"opcodes": "PUSH1 0x80 PUSH1 0x40 MSTORE CALLVALUE DUP1 ISZERO PUSH2 0xF JUMPI PUSH0 DUP1 REVERT JUMPDEST POP CALLER PUSH0 DUP1 PUSH2 0x100 EXP DUP2 SLOAD DUP2 PUSH20 0xFFFFFFFFFFFFFFFFFFFFFFFFFFFFFFFFFFFFFFFF MUL NOT AND SWAP1 DUP4 PUSH20 0xFFFFFFFFFFFFFFFFFFFFFFFFFFFFFFFFFFFFFFFF AND MUL OR SWAP1 SSTORE POP PUSH2 0x240 DUP1 PUSH2 0x5C PUSH0 CODECOPY PUSH0 RETURN INVALID PUSH1 0x80 PUSH1 0x40 MSTORE CALLVALUE DUP1 ISZERO PUSH2 0xF JUMPI PUSH0 DUP1 REVERT JUMPDEST POP PUSH1 0x4 CALLDATASIZE LT PUSH2 0x55 JUMPI PUSH0 CALLDATALOAD PUSH1 0xE0 SHR DUP1 PUSH4 0x9E3B34BF EQ PUSH2 0x59 JUMPI DUP1 PUSH4 0xC58A455B EQ PUSH2 0x77 JUMPI DUP1 PUSH4 0xCF9F23B5 EQ PUSH2 0x81 JUMPI DUP1 PUSH4 0xE09966A8 EQ PUSH2 0x8B JUMPI DUP1 PUSH4 0xEFEDC669 EQ PUSH2 0x95 JUMPI JUMPDEST PUSH0 DUP1 REVERT JUMPDEST PUSH2 0x61 PUSH2 0xB3 JUMP JUMPDEST PUSH1 0x40 MLOAD PUSH2 0x6E SWAP2 SWAP1 PUSH2 0x191 JUMP JUMPDEST PUSH1 0x40 MLOAD DUP1 SWAP2 SUB SWAP1 RETURN JUMPDEST PUSH2 0x7F PUSH2 0xB9 JUMP JUMPDEST STOP JUMPDEST PUSH2 0x89 PUSH2 0xE1 JUMP JUMPDEST STOP JUMPDEST PUSH2 0x93 PUSH2 0x109 JUMP JUMPDEST STOP JUMPDEST PUSH2 0x9D PUSH2 0x14A JUMP JUMPDEST PUSH1 0x40 MLOAD PUSH2 0xAA SWAP2 SWAP1 PUSH2 0x191 JUMP JUMPDEST PUSH1 0x40 MLOAD DUP1 SWAP2 SUB SWAP1 RETURN JUMPDEST PUSH1 0x2 SLOAD DUP2 JUMP JUMPDEST PUSH0 PUSH1 0x2 SLOAD EQ PUSH2 0xC6 JUMPI PUSH0 DUP1 REVERT JUMPDEST PUSH1 0x1 PUSH1 0x2 PUSH0 DUP3 DUP3 SLOAD PUSH2 0xD8 SWAP2 SWAP1 PUSH2 0x1D7 JUMP JUMPDEST SWAP3 POP POP DUP2 SWAP1 SSTORE POP JUMP JUMPDEST PUSH1 0x2 DUP1 SLOAD EQ PUSH2 0xEE JUMPI PUSH0 DUP1 REVERT JUMPDEST PUSH1 0x1 PUSH1 0x2 PUSH0 DUP3 DUP3 SLOAD PUSH2 0x100 SWAP2 SWAP1 PUSH2 0x1D7 JUMP JUMPDEST SWAP3 POP POP DUP2 SWAP1 SSTORE POP JUMP JUMPDEST ADDRESS PUSH20 0xFFFFFFFFFFFFFFFFFFFFFFFFFFFFFFFFFFFFFFFF AND CALLER PUSH20 0xFFFFFFFFFFFFFFFFFFFFFFFFFFFFFFFFFFFFFFFF AND EQ PUSH2 0x140 JUMPI PUSH0 DUP1 REVERT JUMPDEST PUSH2 0x148 PUSH2 0x150 JUMP JUMPDEST JUMP JUMPDEST PUSH1 0x1 SLOAD DUP2 JUMP JUMPDEST PUSH1 0x3 PUSH1 0x2 SLOAD EQ PUSH2 0x15E JUMPI PUSH0 DUP1 REVERT JUMPDEST PUSH1 0x1 PUSH1 0x2 PUSH0 DUP3 DUP3 SLOAD PUSH2 0x170 SWAP2 SWAP1 PUSH2 0x1D7 JUMP JUMPDEST SWAP3 POP POP DUP2 SWAP1 SSTORE POP JUMP JUMPDEST PUSH0 DUP2 SWAP1 POP SWAP2 SWAP1 POP JUMP JUMPDEST PUSH2 0x18B DUP2 PUSH2 0x179 JUMP JUMPDEST DUP3 MSTORE POP POP JUMP JUMPDEST PUSH0 PUSH1 0x20 DUP3 ADD SWAP1 POP PUSH2 0x1A4 PUSH0 DUP4 ADD DUP5 PUSH2 0x182 JUMP JUMPDEST SWAP3 SWAP2 POP POP JUMP JUMPDEST PUSH32 0x4E487B7100000000000000000000000000000000000000000000000000000000 PUSH0 MSTORE PUSH1 0x11 PUSH1 0x4 MSTORE PUSH1 0x24 PUSH0 REVERT JUMPDEST PUSH0 PUSH2 0x1E1 DUP3 PUSH2 0x179 JUMP JUMPDEST SWAP2 POP PUSH2 0x1EC DUP4 PUSH2 0x179 JUMP JUMPDEST SWAP3 POP DUP3 DUP3 ADD SWAP1 POP DUP1 DUP3 GT ISZERO PUSH2 0x204 JUMPI PUSH2 0x203 PUSH2 0x1AA JUMP JUMPDEST JUMPDEST SWAP3 SWAP2 POP POP JUMP INVALID LOG2 PUSH5 0x6970667358 0x22 SLT KECCAK256 CALLDATACOPY 0x1E 0xF7 DUP9 0x25 PUSH24 0xBDE0BB3E3098D5224F49FCA9B3FEADE426249677435AA8E1 SSTORE 0xA7 PUSH5 0x736F6C6343 STOP ADDMOD ISZERO STOP CALLER "
				},
				"gasEstimates": {
					"creation": {
						"codeDepositCost": "115200",
						"executionCost": "24422",
						"totalCost": "139622"
					},
					"external": {
						"com()": "infinite",
						"ext()": "infinite",
						"pul()": "infinite",
						"score()": "2491",
						"times()": "2403"
					},
					"internal": {
						"inte()": "infinite",
						"pri()": "infinite"
					}
				},
				"methodIdentifiers": {
					"com()": "e09966a8",
					"ext()": "cf9f23b5",
					"pul()": "c58a455b",
					"score()": "efedc669",
					"times()": "9e3b34bf"
				}
			},
			"storageLayout": {
				"storage": [
					{
						"astId": 495,
						"contract": "shoot/2/可见性修饰符/1.sol:func",
						"label": "owner",
						"offset": 0,
						"slot": "0",
						"type": "t_address"
					},
					{
						"astId": 497,
						"contract": "shoot/2/可见性修饰符/1.sol:func",
						"label": "score",
						"offset": 0,
						"slot": "1",
						"type": "t_uint256"
					},
					{
						"astId": 499,
						"contract": "shoot/2/可见性修饰符/1.sol:func",
						"label": "times",
						"offset": 0,
						"slot": "2",
						"type": "t_uint256"
					}
				],
				"types": {
					"t_address": {
						"encoding": "inplace",
						"label": "address",
						"numberOfBytes": "20"
					},
					"t_uint256": {
						"encoding": "inplace",
						"label": "uint256",
						"numberOfBytes": "32"
					}
				}
			},
			"userdoc": {
				"kind": "user",
				"methods": {},
				"version": 1
			}
		}
	}
}