{
	"shoot/2/可见性修饰符/1.sol": {
		"deploy": {
			"abi": [
				{
					"inputs": [
						{
							"internalType": "address payable",
							"name": "_fun",
							"type": "address"
						}
					],
					"stateMutability": "nonpayable",
					"type": "constructor"
				},
				{
					"inputs": [],
					"name": "byteCode",
					"outputs": [
						{
							"internalType": "bytes",
							"name": "",
							"type": "bytes"
						}
					],
					"stateMutability": "view",
					"type": "function"
				},
				{
					"inputs": [],
					"name": "creatCode",
					"outputs": [
						{
							"internalType": "bytes",
							"name": "",
							"type": "bytes"
						}
					],
					"stateMutability": "view",
					"type": "function"
				},
				{
					"inputs": [],
					"name": "deployed",
					"outputs": [],
					"stateMutability": "nonpayable",
					"type": "function"
				},
				{
					"inputs": [],
					"name": "fi",
					"outputs": [
						{
							"internalType": "contract fig",
							"name": "",
							"type": "address"
						}
					],
					"stateMutability": "view",
					"type": "function"
				},
				{
					"inputs": [],
					"name": "figSalt",
					"outputs": [
						{
							"internalType": "bytes32",
							"name": "",
							"type": "bytes32"
						}
					],
					"stateMutability": "nonpayable",
					"type": "function"
				},
				{
					"inputs": [],
					"name": "getHash",
					"outputs": [
						{
							"internalType": "bytes32",
							"name": "",
							"type": "bytes32"
						}
					],
					"stateMutability": "view",
					"type": "function"
				}
			],
			"devdoc": {
				"kind": "dev",
				"methods": {},
				"version": 1
			},
			"evm": {
				"assembly": "    /* \"shoot/2/\\xe5\\x8f\\xaf\\xe8\\xa7\\x81\\xe6\\x80\\xa7\\xe4\\xbf\\xae\\xe9\\xa5\\xb0\\xe7\\xac\\xa6/1.sol\":1234:2158  contract deploy{... */\n  mstore(0x40, 0x80)\n    /* \"shoot/2/\\xe5\\x8f\\xaf\\xe8\\xa7\\x81\\xe6\\x80\\xa7\\xe4\\xbf\\xae\\xe9\\xa5\\xb0\\xe7\\xac\\xa6/1.sol\":1327:1349  type(fig).creationCode */\n  mload(0x40)\n  dup1\n  0x20\n  add\n  tag_1\n  swap1\n  tag_2\n  jump\t// in\ntag_1:\n  0x20\n  dup3\n  add\n  dup2\n  sub\n  dup3\n  mstore\n  not(0x1f)\n  0x1f\n  dup3\n  add\n  and\n  0x40\n  mstore\n  pop\n    /* \"shoot/2/\\xe5\\x8f\\xaf\\xe8\\xa7\\x81\\xe6\\x80\\xa7\\xe4\\xbf\\xae\\xe9\\xa5\\xb0\\xe7\\xac\\xa6/1.sol\":1302:1349  bytes public  byteCode = type(fig).creationCode */\n  0x02\n  swap1\n  dup2\n  tag_3\n  swap2\n  swap1\n  tag_4\n  jump\t// in\ntag_3:\n  pop\n    /* \"shoot/2/\\xe5\\x8f\\xaf\\xe8\\xa7\\x81\\xe6\\x80\\xa7\\xe4\\xbf\\xae\\xe9\\xa5\\xb0\\xe7\\xac\\xa6/1.sol\":1386:1527  constructor(address payable _fun){... */\n  callvalue\n  dup1\n  iszero\n  tag_5\n  jumpi\n  0x00\n  dup1\n  revert\ntag_5:\n  pop\n  mload(0x40)\n  sub(codesize, bytecodeSize)\n  dup1\n  bytecodeSize\n  dup4\n  codecopy\n  dup2\n  dup2\n  add\n  0x40\n  mstore\n  dup2\n  add\n  swap1\n  tag_6\n  swap2\n  swap1\n  tag_7\n  jump\t// in\ntag_6:\n    /* \"shoot/2/\\xe5\\x8f\\xaf\\xe8\\xa7\\x81\\xe6\\x80\\xa7\\xe4\\xbf\\xae\\xe9\\xa5\\xb0\\xe7\\xac\\xa6/1.sol\":1436:1440  _fun */\n  dup1\n    /* \"shoot/2/\\xe5\\x8f\\xaf\\xe8\\xa7\\x81\\xe6\\x80\\xa7\\xe4\\xbf\\xae\\xe9\\xa5\\xb0\\xe7\\xac\\xa6/1.sol\":1430:1433  fun */\n  0x01\n  0x00\n    /* \"shoot/2/\\xe5\\x8f\\xaf\\xe8\\xa7\\x81\\xe6\\x80\\xa7\\xe4\\xbf\\xae\\xe9\\xa5\\xb0\\xe7\\xac\\xa6/1.sol\":1430:1440  fun = _fun */\n  0x0100\n  exp\n  dup2\n  sload\n  dup2\n  0xffffffffffffffffffffffffffffffffffffffff\n  mul\n  not\n  and\n  swap1\n  dup4\n  0xffffffffffffffffffffffffffffffffffffffff\n  and\n  mul\n  or\n  swap1\n  sstore\n  pop\n    /* \"shoot/2/\\xe5\\x8f\\xaf\\xe8\\xa7\\x81\\xe6\\x80\\xa7\\xe4\\xbf\\xae\\xe9\\xa5\\xb0\\xe7\\xac\\xa6/1.sol\":1480:1502  type(fig).creationCode */\n  mload(0x40)\n  dup1\n  0x20\n  add\n  tag_10\n  swap1\n  tag_2\n  jump\t// in\ntag_10:\n  0x20\n  dup3\n  add\n  dup2\n  sub\n  dup3\n  mstore\n  not(0x1f)\n  0x1f\n  dup3\n  add\n  and\n  0x40\n  mstore\n  pop\n    /* \"shoot/2/\\xe5\\x8f\\xaf\\xe8\\xa7\\x81\\xe6\\x80\\xa7\\xe4\\xbf\\xae\\xe9\\xa5\\xb0\\xe7\\xac\\xa6/1.sol\":1514:1517  fun */\n  0x01\n  0x00\n  swap1\n  sload\n  swap1\n  0x0100\n  exp\n  swap1\n  div\n  0xffffffffffffffffffffffffffffffffffffffff\n  and\n    /* \"shoot/2/\\xe5\\x8f\\xaf\\xe8\\xa7\\x81\\xe6\\x80\\xa7\\xe4\\xbf\\xae\\xe9\\xa5\\xb0\\xe7\\xac\\xa6/1.sol\":1503:1518  abi.encode(fun) */\n  add(0x20, mload(0x40))\n  tag_11\n  swap2\n  swap1\n  tag_12\n  jump\t// in\ntag_11:\n  mload(0x40)\n  0x20\n  dup2\n  dup4\n  sub\n  sub\n  dup2\n  mstore\n  swap1\n  0x40\n  mstore\n    /* \"shoot/2/\\xe5\\x8f\\xaf\\xe8\\xa7\\x81\\xe6\\x80\\xa7\\xe4\\xbf\\xae\\xe9\\xa5\\xb0\\xe7\\xac\\xa6/1.sol\":1463:1519  abi.encodePacked(type(fig).creationCode,abi.encode(fun)) */\n  add(0x20, mload(0x40))\n  tag_13\n  swap3\n  swap2\n  swap1\n  tag_14\n  jump\t// in\ntag_13:\n  mload(0x40)\n  0x20\n  dup2\n  dup4\n  sub\n  sub\n  dup2\n  mstore\n  swap1\n  0x40\n  mstore\n    /* \"shoot/2/\\xe5\\x8f\\xaf\\xe8\\xa7\\x81\\xe6\\x80\\xa7\\xe4\\xbf\\xae\\xe9\\xa5\\xb0\\xe7\\xac\\xa6/1.sol\":1451:1460  creatCode */\n  0x03\n    /* \"shoot/2/\\xe5\\x8f\\xaf\\xe8\\xa7\\x81\\xe6\\x80\\xa7\\xe4\\xbf\\xae\\xe9\\xa5\\xb0\\xe7\\xac\\xa6/1.sol\":1451:1519  creatCode = abi.encodePacked(type(fig).creationCode,abi.encode(fun)) */\n  swap1\n  dup2\n  tag_15\n  swap2\n  swap1\n  tag_4\n  jump\t// in\ntag_15:\n  pop\n    /* \"shoot/2/\\xe5\\x8f\\xaf\\xe8\\xa7\\x81\\xe6\\x80\\xa7\\xe4\\xbf\\xae\\xe9\\xa5\\xb0\\xe7\\xac\\xa6/1.sol\":1386:1527  constructor(address payable _fun){... */\n  pop\n    /* \"shoot/2/\\xe5\\x8f\\xaf\\xe8\\xa7\\x81\\xe6\\x80\\xa7\\xe4\\xbf\\xae\\xe9\\xa5\\xb0\\xe7\\xac\\xa6/1.sol\":1234:2158  contract deploy{... */\n  jump(tag_16)\ntag_2:\n  dataSize(sub_1)\n  dup1\n  dataOffset(sub_1)\n  dup4\n  codecopy\n  add\n  swap1\n  jump\t// out\n    /* \"#utility.yul\":7:105   */\ntag_17:\n    /* \"#utility.yul\":58:64   */\n  0x00\n    /* \"#utility.yul\":92:97   */\n  dup2\n    /* \"#utility.yul\":86:98   */\n  mload\n    /* \"#utility.yul\":76:98   */\n  swap1\n  pop\n    /* \"#utility.yul\":7:105   */\n  swap2\n  swap1\n  pop\n  jump\t// out\n    /* \"#utility.yul\":111:291   */\ntag_18:\n    /* \"#utility.yul\":159:236   */\n  0x4e487b7100000000000000000000000000000000000000000000000000000000\n    /* \"#utility.yul\":156:157   */\n  0x00\n    /* \"#utility.yul\":149:237   */\n  mstore\n    /* \"#utility.yul\":256:260   */\n  0x41\n    /* \"#utility.yul\":253:254   */\n  0x04\n    /* \"#utility.yul\":246:261   */\n  mstore\n    /* \"#utility.yul\":280:284   */\n  0x24\n    /* \"#utility.yul\":277:278   */\n  0x00\n    /* \"#utility.yul\":270:285   */\n  revert\n    /* \"#utility.yul\":297:477   */\ntag_19:\n    /* \"#utility.yul\":345:422   */\n  0x4e487b7100000000000000000000000000000000000000000000000000000000\n    /* \"#utility.yul\":342:343   */\n  0x00\n    /* \"#utility.yul\":335:423   */\n  mstore\n    /* \"#utility.yul\":442:446   */\n  0x22\n    /* \"#utility.yul\":439:440   */\n  0x04\n    /* \"#utility.yul\":432:447   */\n  mstore\n    /* \"#utility.yul\":466:470   */\n  0x24\n    /* \"#utility.yul\":463:464   */\n  0x00\n    /* \"#utility.yul\":456:471   */\n  revert\n    /* \"#utility.yul\":483:803   */\ntag_20:\n    /* \"#utility.yul\":527:533   */\n  0x00\n    /* \"#utility.yul\":564:565   */\n  0x02\n    /* \"#utility.yul\":558:562   */\n  dup3\n    /* \"#utility.yul\":554:566   */\n  div\n    /* \"#utility.yul\":544:566   */\n  swap1\n  pop\n    /* \"#utility.yul\":611:612   */\n  0x01\n    /* \"#utility.yul\":605:609   */\n  dup3\n    /* \"#utility.yul\":601:613   */\n  and\n    /* \"#utility.yul\":632:650   */\n  dup1\n    /* \"#utility.yul\":622:703   */\n  tag_53\n  jumpi\n    /* \"#utility.yul\":688:692   */\n  0x7f\n    /* \"#utility.yul\":680:686   */\n  dup3\n    /* \"#utility.yul\":676:693   */\n  and\n    /* \"#utility.yul\":666:693   */\n  swap2\n  pop\n    /* \"#utility.yul\":622:703   */\ntag_53:\n    /* \"#utility.yul\":750:752   */\n  0x20\n    /* \"#utility.yul\":742:748   */\n  dup3\n    /* \"#utility.yul\":739:753   */\n  lt\n    /* \"#utility.yul\":719:737   */\n  dup2\n    /* \"#utility.yul\":716:754   */\n  sub\n    /* \"#utility.yul\":713:797   */\n  tag_54\n  jumpi\n    /* \"#utility.yul\":769:787   */\n  tag_55\n  tag_19\n  jump\t// in\ntag_55:\n    /* \"#utility.yul\":713:797   */\ntag_54:\n    /* \"#utility.yul\":534:803   */\n  pop\n    /* \"#utility.yul\":483:803   */\n  swap2\n  swap1\n  pop\n  jump\t// out\n    /* \"#utility.yul\":809:949   */\ntag_21:\n    /* \"#utility.yul\":857:861   */\n  0x00\n    /* \"#utility.yul\":880:883   */\n  dup2\n    /* \"#utility.yul\":872:883   */\n  swap1\n  pop\n    /* \"#utility.yul\":903:906   */\n  dup2\n    /* \"#utility.yul\":900:901   */\n  0x00\n    /* \"#utility.yul\":893:907   */\n  mstore\n    /* \"#utility.yul\":937:941   */\n  0x20\n    /* \"#utility.yul\":934:935   */\n  0x00\n    /* \"#utility.yul\":924:942   */\n  keccak256\n    /* \"#utility.yul\":916:942   */\n  swap1\n  pop\n    /* \"#utility.yul\":809:949   */\n  swap2\n  swap1\n  pop\n  jump\t// out\n    /* \"#utility.yul\":955:1048   */\ntag_22:\n    /* \"#utility.yul\":992:998   */\n  0x00\n    /* \"#utility.yul\":1039:1041   */\n  0x20\n    /* \"#utility.yul\":1034:1036   */\n  0x1f\n    /* \"#utility.yul\":1027:1032   */\n  dup4\n    /* \"#utility.yul\":1023:1037   */\n  add\n    /* \"#utility.yul\":1019:1042   */\n  div\n    /* \"#utility.yul\":1009:1042   */\n  swap1\n  pop\n    /* \"#utility.yul\":955:1048   */\n  swap2\n  swap1\n  pop\n  jump\t// out\n    /* \"#utility.yul\":1054:1161   */\ntag_23:\n    /* \"#utility.yul\":1098:1106   */\n  0x00\n    /* \"#utility.yul\":1148:1153   */\n  dup3\n    /* \"#utility.yul\":1142:1146   */\n  dup3\n    /* \"#utility.yul\":1138:1154   */\n  shl\n    /* \"#utility.yul\":1117:1154   */\n  swap1\n  pop\n    /* \"#utility.yul\":1054:1161   */\n  swap3\n  swap2\n  pop\n  pop\n  jump\t// out\n    /* \"#utility.yul\":1167:1560   */\ntag_24:\n    /* \"#utility.yul\":1236:1242   */\n  0x00\n    /* \"#utility.yul\":1286:1287   */\n  0x08\n    /* \"#utility.yul\":1274:1284   */\n  dup4\n    /* \"#utility.yul\":1270:1288   */\n  mul\n    /* \"#utility.yul\":1309:1406   */\n  tag_60\n    /* \"#utility.yul\":1339:1405   */\n  0xffffffffffffffffffffffffffffffffffffffffffffffffffffffffffffffff\n    /* \"#utility.yul\":1328:1337   */\n  dup3\n    /* \"#utility.yul\":1309:1406   */\n  tag_23\n  jump\t// in\ntag_60:\n    /* \"#utility.yul\":1427:1466   */\n  tag_61\n    /* \"#utility.yul\":1457:1465   */\n  dup7\n    /* \"#utility.yul\":1446:1455   */\n  dup4\n    /* \"#utility.yul\":1427:1466   */\n  tag_23\n  jump\t// in\ntag_61:\n    /* \"#utility.yul\":1415:1466   */\n  swap6\n  pop\n    /* \"#utility.yul\":1499:1503   */\n  dup1\n    /* \"#utility.yul\":1495:1504   */\n  not\n    /* \"#utility.yul\":1488:1493   */\n  dup5\n    /* \"#utility.yul\":1484:1505   */\n  and\n    /* \"#utility.yul\":1475:1505   */\n  swap4\n  pop\n    /* \"#utility.yul\":1548:1552   */\n  dup1\n    /* \"#utility.yul\":1538:1546   */\n  dup7\n    /* \"#utility.yul\":1534:1553   */\n  and\n    /* \"#utility.yul\":1527:1532   */\n  dup5\n    /* \"#utility.yul\":1524:1554   */\n  or\n    /* \"#utility.yul\":1514:1554   */\n  swap3\n  pop\n    /* \"#utility.yul\":1243:1560   */\n  pop\n  pop\n    /* \"#utility.yul\":1167:1560   */\n  swap4\n  swap3\n  pop\n  pop\n  pop\n  jump\t// out\n    /* \"#utility.yul\":1566:1643   */\ntag_25:\n    /* \"#utility.yul\":1603:1610   */\n  0x00\n    /* \"#utility.yul\":1632:1637   */\n  dup2\n    /* \"#utility.yul\":1621:1637   */\n  swap1\n  pop\n    /* \"#utility.yul\":1566:1643   */\n  swap2\n  swap1\n  pop\n  jump\t// out\n    /* \"#utility.yul\":1649:1709   */\ntag_26:\n    /* \"#utility.yul\":1677:1680   */\n  0x00\n    /* \"#utility.yul\":1698:1703   */\n  dup2\n    /* \"#utility.yul\":1691:1703   */\n  swap1\n  pop\n    /* \"#utility.yul\":1649:1709   */\n  swap2\n  swap1\n  pop\n  jump\t// out\n    /* \"#utility.yul\":1715:1857   */\ntag_27:\n    /* \"#utility.yul\":1765:1774   */\n  0x00\n    /* \"#utility.yul\":1798:1851   */\n  tag_65\n    /* \"#utility.yul\":1816:1850   */\n  tag_66\n    /* \"#utility.yul\":1825:1849   */\n  tag_67\n    /* \"#utility.yul\":1843:1848   */\n  dup5\n    /* \"#utility.yul\":1825:1849   */\n  tag_25\n  jump\t// in\ntag_67:\n    /* \"#utility.yul\":1816:1850   */\n  tag_26\n  jump\t// in\ntag_66:\n    /* \"#utility.yul\":1798:1851   */\n  tag_25\n  jump\t// in\ntag_65:\n    /* \"#utility.yul\":1785:1851   */\n  swap1\n  pop\n    /* \"#utility.yul\":1715:1857   */\n  swap2\n  swap1\n  pop\n  jump\t// out\n    /* \"#utility.yul\":1863:1938   */\ntag_28:\n    /* \"#utility.yul\":1906:1909   */\n  0x00\n    /* \"#utility.yul\":1927:1932   */\n  dup2\n    /* \"#utility.yul\":1920:1932   */\n  swap1\n  pop\n    /* \"#utility.yul\":1863:1938   */\n  swap2\n  swap1\n  pop\n  jump\t// out\n    /* \"#utility.yul\":1944:2213   */\ntag_29:\n    /* \"#utility.yul\":2054:2093   */\n  tag_70\n    /* \"#utility.yul\":2085:2092   */\n  dup4\n    /* \"#utility.yul\":2054:2093   */\n  tag_27\n  jump\t// in\ntag_70:\n    /* \"#utility.yul\":2115:2206   */\n  tag_71\n    /* \"#utility.yul\":2164:2205   */\n  tag_72\n    /* \"#utility.yul\":2188:2204   */\n  dup3\n    /* \"#utility.yul\":2164:2205   */\n  tag_28\n  jump\t// in\ntag_72:\n    /* \"#utility.yul\":2156:2162   */\n  dup5\n    /* \"#utility.yul\":2149:2153   */\n  dup5\n    /* \"#utility.yul\":2143:2154   */\n  sload\n    /* \"#utility.yul\":2115:2206   */\n  tag_24\n  jump\t// in\ntag_71:\n    /* \"#utility.yul\":2109:2113   */\n  dup3\n    /* \"#utility.yul\":2102:2207   */\n  sstore\n    /* \"#utility.yul\":2020:2213   */\n  pop\n    /* \"#utility.yul\":1944:2213   */\n  pop\n  pop\n  pop\n  jump\t// out\n    /* \"#utility.yul\":2219:2292   */\ntag_30:\n    /* \"#utility.yul\":2264:2267   */\n  0x00\n    /* \"#utility.yul\":2219:2292   */\n  swap1\n  jump\t// out\n    /* \"#utility.yul\":2298:2487   */\ntag_31:\n    /* \"#utility.yul\":2375:2407   */\n  tag_75\n  tag_30\n  jump\t// in\ntag_75:\n    /* \"#utility.yul\":2416:2481   */\n  tag_76\n    /* \"#utility.yul\":2474:2480   */\n  dup2\n    /* \"#utility.yul\":2466:2472   */\n  dup5\n    /* \"#utility.yul\":2460:2464   */\n  dup5\n    /* \"#utility.yul\":2416:2481   */\n  tag_29\n  jump\t// in\ntag_76:\n    /* \"#utility.yul\":2351:2487   */\n  pop\n    /* \"#utility.yul\":2298:2487   */\n  pop\n  pop\n  jump\t// out\n    /* \"#utility.yul\":2493:2679   */\ntag_32:\n    /* \"#utility.yul\":2553:2673   */\ntag_78:\n    /* \"#utility.yul\":2570:2573   */\n  dup2\n    /* \"#utility.yul\":2563:2568   */\n  dup2\n    /* \"#utility.yul\":2560:2574   */\n  lt\n    /* \"#utility.yul\":2553:2673   */\n  iszero\n  tag_80\n  jumpi\n    /* \"#utility.yul\":2624:2663   */\n  tag_81\n    /* \"#utility.yul\":2661:2662   */\n  0x00\n    /* \"#utility.yul\":2654:2659   */\n  dup3\n    /* \"#utility.yul\":2624:2663   */\n  tag_31\n  jump\t// in\ntag_81:\n    /* \"#utility.yul\":2597:2598   */\n  0x01\n    /* \"#utility.yul\":2590:2595   */\n  dup2\n    /* \"#utility.yul\":2586:2599   */\n  add\n    /* \"#utility.yul\":2577:2599   */\n  swap1\n  pop\n    /* \"#utility.yul\":2553:2673   */\n  jump(tag_78)\ntag_80:\n    /* \"#utility.yul\":2493:2679   */\n  pop\n  pop\n  jump\t// out\n    /* \"#utility.yul\":2685:3226   */\ntag_33:\n    /* \"#utility.yul\":2785:2787   */\n  0x1f\n    /* \"#utility.yul\":2780:2783   */\n  dup3\n    /* \"#utility.yul\":2777:2788   */\n  gt\n    /* \"#utility.yul\":2774:3219   */\n  iszero\n  tag_83\n  jumpi\n    /* \"#utility.yul\":2819:2856   */\n  tag_84\n    /* \"#utility.yul\":2850:2855   */\n  dup2\n    /* \"#utility.yul\":2819:2856   */\n  tag_21\n  jump\t// in\ntag_84:\n    /* \"#utility.yul\":2902:2931   */\n  tag_85\n    /* \"#utility.yul\":2920:2930   */\n  dup5\n    /* \"#utility.yul\":2902:2931   */\n  tag_22\n  jump\t// in\ntag_85:\n    /* \"#utility.yul\":2892:2900   */\n  dup2\n    /* \"#utility.yul\":2888:2932   */\n  add\n    /* \"#utility.yul\":3085:3087   */\n  0x20\n    /* \"#utility.yul\":3073:3083   */\n  dup6\n    /* \"#utility.yul\":3070:3088   */\n  lt\n    /* \"#utility.yul\":3067:3116   */\n  iszero\n  tag_86\n  jumpi\n    /* \"#utility.yul\":3106:3114   */\n  dup2\n    /* \"#utility.yul\":3091:3114   */\n  swap1\n  pop\n    /* \"#utility.yul\":3067:3116   */\ntag_86:\n    /* \"#utility.yul\":3129:3209   */\n  tag_87\n    /* \"#utility.yul\":3185:3207   */\n  tag_88\n    /* \"#utility.yul\":3203:3206   */\n  dup6\n    /* \"#utility.yul\":3185:3207   */\n  tag_22\n  jump\t// in\ntag_88:\n    /* \"#utility.yul\":3175:3183   */\n  dup4\n    /* \"#utility.yul\":3171:3208   */\n  add\n    /* \"#utility.yul\":3158:3169   */\n  dup3\n    /* \"#utility.yul\":3129:3209   */\n  tag_32\n  jump\t// in\ntag_87:\n    /* \"#utility.yul\":2789:3219   */\n  pop\n  pop\n    /* \"#utility.yul\":2774:3219   */\ntag_83:\n    /* \"#utility.yul\":2685:3226   */\n  pop\n  pop\n  pop\n  jump\t// out\n    /* \"#utility.yul\":3232:3349   */\ntag_34:\n    /* \"#utility.yul\":3286:3294   */\n  0x00\n    /* \"#utility.yul\":3336:3341   */\n  dup3\n    /* \"#utility.yul\":3330:3334   */\n  dup3\n    /* \"#utility.yul\":3326:3342   */\n  shr\n    /* \"#utility.yul\":3305:3342   */\n  swap1\n  pop\n    /* \"#utility.yul\":3232:3349   */\n  swap3\n  swap2\n  pop\n  pop\n  jump\t// out\n    /* \"#utility.yul\":3355:3524   */\ntag_35:\n    /* \"#utility.yul\":3399:3405   */\n  0x00\n    /* \"#utility.yul\":3432:3483   */\n  tag_91\n    /* \"#utility.yul\":3480:3481   */\n  0x00\n    /* \"#utility.yul\":3476:3482   */\n  not\n    /* \"#utility.yul\":3468:3473   */\n  dup5\n    /* \"#utility.yul\":3465:3466   */\n  0x08\n    /* \"#utility.yul\":3461:3474   */\n  mul\n    /* \"#utility.yul\":3432:3483   */\n  tag_34\n  jump\t// in\ntag_91:\n    /* \"#utility.yul\":3428:3484   */\n  not\n    /* \"#utility.yul\":3513:3517   */\n  dup1\n    /* \"#utility.yul\":3507:3511   */\n  dup4\n    /* \"#utility.yul\":3503:3518   */\n  and\n    /* \"#utility.yul\":3493:3518   */\n  swap2\n  pop\n    /* \"#utility.yul\":3406:3524   */\n  pop\n    /* \"#utility.yul\":3355:3524   */\n  swap3\n  swap2\n  pop\n  pop\n  jump\t// out\n    /* \"#utility.yul\":3529:3824   */\ntag_36:\n    /* \"#utility.yul\":3605:3609   */\n  0x00\n    /* \"#utility.yul\":3751:3780   */\n  tag_93\n    /* \"#utility.yul\":3776:3779   */\n  dup4\n    /* \"#utility.yul\":3770:3774   */\n  dup4\n    /* \"#utility.yul\":3751:3780   */\n  tag_35\n  jump\t// in\ntag_93:\n    /* \"#utility.yul\":3743:3780   */\n  swap2\n  pop\n    /* \"#utility.yul\":3813:3816   */\n  dup3\n    /* \"#utility.yul\":3810:3811   */\n  0x02\n    /* \"#utility.yul\":3806:3817   */\n  mul\n    /* \"#utility.yul\":3800:3804   */\n  dup3\n    /* \"#utility.yul\":3797:3818   */\n  or\n    /* \"#utility.yul\":3789:3818   */\n  swap1\n  pop\n    /* \"#utility.yul\":3529:3824   */\n  swap3\n  swap2\n  pop\n  pop\n  jump\t// out\n    /* \"#utility.yul\":3829:5219   */\ntag_4:\n    /* \"#utility.yul\":3944:3980   */\n  tag_95\n    /* \"#utility.yul\":3976:3979   */\n  dup3\n    /* \"#utility.yul\":3944:3980   */\n  tag_17\n  jump\t// in\ntag_95:\n    /* \"#utility.yul\":4045:4063   */\n  0xffffffffffffffff\n    /* \"#utility.yul\":4037:4043   */\n  dup2\n    /* \"#utility.yul\":4034:4064   */\n  gt\n    /* \"#utility.yul\":4031:4087   */\n  iszero\n  tag_96\n  jumpi\n    /* \"#utility.yul\":4067:4085   */\n  tag_97\n  tag_18\n  jump\t// in\ntag_97:\n    /* \"#utility.yul\":4031:4087   */\ntag_96:\n    /* \"#utility.yul\":4111:4149   */\n  tag_98\n    /* \"#utility.yul\":4143:4147   */\n  dup3\n    /* \"#utility.yul\":4137:4148   */\n  sload\n    /* \"#utility.yul\":4111:4149   */\n  tag_20\n  jump\t// in\ntag_98:\n    /* \"#utility.yul\":4196:4262   */\n  tag_99\n    /* \"#utility.yul\":4255:4261   */\n  dup3\n    /* \"#utility.yul\":4247:4253   */\n  dup3\n    /* \"#utility.yul\":4241:4245   */\n  dup6\n    /* \"#utility.yul\":4196:4262   */\n  tag_33\n  jump\t// in\ntag_99:\n    /* \"#utility.yul\":4289:4290   */\n  0x00\n    /* \"#utility.yul\":4313:4317   */\n  0x20\n    /* \"#utility.yul\":4300:4317   */\n  swap1\n  pop\n    /* \"#utility.yul\":4345:4347   */\n  0x1f\n    /* \"#utility.yul\":4337:4343   */\n  dup4\n    /* \"#utility.yul\":4334:4348   */\n  gt\n    /* \"#utility.yul\":4362:4363   */\n  0x01\n    /* \"#utility.yul\":4357:4974   */\n  dup2\n  eq\n  tag_101\n  jumpi\n    /* \"#utility.yul\":5018:5019   */\n  0x00\n    /* \"#utility.yul\":5035:5041   */\n  dup5\n    /* \"#utility.yul\":5032:5109   */\n  iszero\n  tag_102\n  jumpi\n    /* \"#utility.yul\":5084:5093   */\n  dup3\n    /* \"#utility.yul\":5079:5082   */\n  dup8\n    /* \"#utility.yul\":5075:5094   */\n  add\n    /* \"#utility.yul\":5069:5095   */\n  mload\n    /* \"#utility.yul\":5060:5095   */\n  swap1\n  pop\n    /* \"#utility.yul\":5032:5109   */\ntag_102:\n    /* \"#utility.yul\":5135:5202   */\n  tag_103\n    /* \"#utility.yul\":5195:5201   */\n  dup6\n    /* \"#utility.yul\":5188:5193   */\n  dup3\n    /* \"#utility.yul\":5135:5202   */\n  tag_36\n  jump\t// in\ntag_103:\n    /* \"#utility.yul\":5129:5133   */\n  dup7\n    /* \"#utility.yul\":5122:5203   */\n  sstore\n    /* \"#utility.yul\":4991:5213   */\n  pop\n    /* \"#utility.yul\":4327:5213   */\n  jump(tag_100)\n    /* \"#utility.yul\":4357:4974   */\ntag_101:\n    /* \"#utility.yul\":4409:4413   */\n  0x1f\n    /* \"#utility.yul\":4405:4414   */\n  not\n    /* \"#utility.yul\":4397:4403   */\n  dup5\n    /* \"#utility.yul\":4393:4415   */\n  and\n    /* \"#utility.yul\":4443:4479   */\n  tag_104\n    /* \"#utility.yul\":4474:4478   */\n  dup7\n    /* \"#utility.yul\":4443:4479   */\n  tag_21\n  jump\t// in\ntag_104:\n    /* \"#utility.yul\":4501:4502   */\n  0x00\n    /* \"#utility.yul\":4515:4723   */\ntag_105:\n    /* \"#utility.yul\":4529:4536   */\n  dup3\n    /* \"#utility.yul\":4526:4527   */\n  dup2\n    /* \"#utility.yul\":4523:4537   */\n  lt\n    /* \"#utility.yul\":4515:4723   */\n  iszero\n  tag_107\n  jumpi\n    /* \"#utility.yul\":4608:4617   */\n  dup5\n    /* \"#utility.yul\":4603:4606   */\n  dup10\n    /* \"#utility.yul\":4599:4618   */\n  add\n    /* \"#utility.yul\":4593:4619   */\n  mload\n    /* \"#utility.yul\":4585:4591   */\n  dup3\n    /* \"#utility.yul\":4578:4620   */\n  sstore\n    /* \"#utility.yul\":4659:4660   */\n  0x01\n    /* \"#utility.yul\":4651:4657   */\n  dup3\n    /* \"#utility.yul\":4647:4661   */\n  add\n    /* \"#utility.yul\":4637:4661   */\n  swap2\n  pop\n    /* \"#utility.yul\":4706:4708   */\n  0x20\n    /* \"#utility.yul\":4695:4704   */\n  dup6\n    /* \"#utility.yul\":4691:4709   */\n  add\n    /* \"#utility.yul\":4678:4709   */\n  swap5\n  pop\n    /* \"#utility.yul\":4552:4556   */\n  0x20\n    /* \"#utility.yul\":4549:4550   */\n  dup2\n    /* \"#utility.yul\":4545:4557   */\n  add\n    /* \"#utility.yul\":4540:4557   */\n  swap1\n  pop\n    /* \"#utility.yul\":4515:4723   */\n  jump(tag_105)\ntag_107:\n    /* \"#utility.yul\":4751:4757   */\n  dup7\n    /* \"#utility.yul\":4742:4749   */\n  dup4\n    /* \"#utility.yul\":4739:4758   */\n  lt\n    /* \"#utility.yul\":4736:4915   */\n  iszero\n  tag_108\n  jumpi\n    /* \"#utility.yul\":4809:4818   */\n  dup5\n    /* \"#utility.yul\":4804:4807   */\n  dup10\n    /* \"#utility.yul\":4800:4819   */\n  add\n    /* \"#utility.yul\":4794:4820   */\n  mload\n    /* \"#utility.yul\":4852:4900   */\n  tag_109\n    /* \"#utility.yul\":4894:4898   */\n  0x1f\n    /* \"#utility.yul\":4886:4892   */\n  dup10\n    /* \"#utility.yul\":4882:4899   */\n  and\n    /* \"#utility.yul\":4871:4880   */\n  dup3\n    /* \"#utility.yul\":4852:4900   */\n  tag_35\n  jump\t// in\ntag_109:\n    /* \"#utility.yul\":4844:4850   */\n  dup4\n    /* \"#utility.yul\":4837:4901   */\n  sstore\n    /* \"#utility.yul\":4759:4915   */\n  pop\n    /* \"#utility.yul\":4736:4915   */\ntag_108:\n    /* \"#utility.yul\":4961:4962   */\n  0x01\n    /* \"#utility.yul\":4957:4958   */\n  0x02\n    /* \"#utility.yul\":4949:4955   */\n  dup9\n    /* \"#utility.yul\":4945:4959   */\n  mul\n    /* \"#utility.yul\":4941:4963   */\n  add\n    /* \"#utility.yul\":4935:4939   */\n  dup9\n    /* \"#utility.yul\":4928:4964   */\n  sstore\n    /* \"#utility.yul\":4364:4974   */\n  pop\n  pop\n  pop\n    /* \"#utility.yul\":4327:5213   */\ntag_100:\n  pop\n    /* \"#utility.yul\":3919:5219   */\n  pop\n  pop\n  pop\n    /* \"#utility.yul\":3829:5219   */\n  pop\n  pop\n  jump\t// out\n    /* \"#utility.yul\":5306:5423   */\ntag_38:\n    /* \"#utility.yul\":5415:5416   */\n  0x00\n    /* \"#utility.yul\":5412:5413   */\n  dup1\n    /* \"#utility.yul\":5405:5417   */\n  revert\n    /* \"#utility.yul\":5552:5678   */\ntag_40:\n    /* \"#utility.yul\":5589:5596   */\n  0x00\n    /* \"#utility.yul\":5629:5671   */\n  0xffffffffffffffffffffffffffffffffffffffff\n    /* \"#utility.yul\":5622:5627   */\n  dup3\n    /* \"#utility.yul\":5618:5672   */\n  and\n    /* \"#utility.yul\":5607:5672   */\n  swap1\n  pop\n    /* \"#utility.yul\":5552:5678   */\n  swap2\n  swap1\n  pop\n  jump\t// out\n    /* \"#utility.yul\":5684:5788   */\ntag_41:\n    /* \"#utility.yul\":5729:5736   */\n  0x00\n    /* \"#utility.yul\":5758:5782   */\n  tag_115\n    /* \"#utility.yul\":5776:5781   */\n  dup3\n    /* \"#utility.yul\":5758:5782   */\n  tag_40\n  jump\t// in\ntag_115:\n    /* \"#utility.yul\":5747:5782   */\n  swap1\n  pop\n    /* \"#utility.yul\":5684:5788   */\n  swap2\n  swap1\n  pop\n  jump\t// out\n    /* \"#utility.yul\":5794:5932   */\ntag_42:\n    /* \"#utility.yul\":5875:5907   */\n  tag_117\n    /* \"#utility.yul\":5901:5906   */\n  dup2\n    /* \"#utility.yul\":5875:5907   */\n  tag_41\n  jump\t// in\ntag_117:\n    /* \"#utility.yul\":5868:5873   */\n  dup2\n    /* \"#utility.yul\":5865:5908   */\n  eq\n    /* \"#utility.yul\":5855:5926   */\n  tag_118\n  jumpi\n    /* \"#utility.yul\":5922:5923   */\n  0x00\n    /* \"#utility.yul\":5919:5920   */\n  dup1\n    /* \"#utility.yul\":5912:5924   */\n  revert\n    /* \"#utility.yul\":5855:5926   */\ntag_118:\n    /* \"#utility.yul\":5794:5932   */\n  pop\n  jump\t// out\n    /* \"#utility.yul\":5938:6097   */\ntag_43:\n    /* \"#utility.yul\":6003:6008   */\n  0x00\n    /* \"#utility.yul\":6034:6040   */\n  dup2\n    /* \"#utility.yul\":6028:6041   */\n  mload\n    /* \"#utility.yul\":6019:6041   */\n  swap1\n  pop\n    /* \"#utility.yul\":6050:6091   */\n  tag_120\n    /* \"#utility.yul\":6085:6090   */\n  dup2\n    /* \"#utility.yul\":6050:6091   */\n  tag_42\n  jump\t// in\ntag_120:\n    /* \"#utility.yul\":5938:6097   */\n  swap3\n  swap2\n  pop\n  pop\n  jump\t// out\n    /* \"#utility.yul\":6103:6470   */\ntag_7:\n    /* \"#utility.yul\":6181:6187   */\n  0x00\n    /* \"#utility.yul\":6230:6232   */\n  0x20\n    /* \"#utility.yul\":6218:6227   */\n  dup3\n    /* \"#utility.yul\":6209:6216   */\n  dup5\n    /* \"#utility.yul\":6205:6228   */\n  sub\n    /* \"#utility.yul\":6201:6233   */\n  slt\n    /* \"#utility.yul\":6198:6317   */\n  iszero\n  tag_122\n  jumpi\n    /* \"#utility.yul\":6236:6315   */\n  tag_123\n  tag_38\n  jump\t// in\ntag_123:\n    /* \"#utility.yul\":6198:6317   */\ntag_122:\n    /* \"#utility.yul\":6356:6357   */\n  0x00\n    /* \"#utility.yul\":6381:6453   */\n  tag_124\n    /* \"#utility.yul\":6445:6452   */\n  dup5\n    /* \"#utility.yul\":6436:6442   */\n  dup3\n    /* \"#utility.yul\":6425:6434   */\n  dup6\n    /* \"#utility.yul\":6421:6443   */\n  add\n    /* \"#utility.yul\":6381:6453   */\n  tag_43\n  jump\t// in\ntag_124:\n    /* \"#utility.yul\":6371:6453   */\n  swap2\n  pop\n    /* \"#utility.yul\":6327:6463   */\n  pop\n    /* \"#utility.yul\":6103:6470   */\n  swap3\n  swap2\n  pop\n  pop\n  jump\t// out\n    /* \"#utility.yul\":6476:6618   */\ntag_44:\n    /* \"#utility.yul\":6579:6611   */\n  tag_126\n    /* \"#utility.yul\":6605:6610   */\n  dup2\n    /* \"#utility.yul\":6579:6611   */\n  tag_41\n  jump\t// in\ntag_126:\n    /* \"#utility.yul\":6574:6577   */\n  dup3\n    /* \"#utility.yul\":6567:6612   */\n  mstore\n    /* \"#utility.yul\":6476:6618   */\n  pop\n  pop\n  jump\t// out\n    /* \"#utility.yul\":6624:6878   */\ntag_12:\n    /* \"#utility.yul\":6733:6737   */\n  0x00\n    /* \"#utility.yul\":6771:6773   */\n  0x20\n    /* \"#utility.yul\":6760:6769   */\n  dup3\n    /* \"#utility.yul\":6756:6774   */\n  add\n    /* \"#utility.yul\":6748:6774   */\n  swap1\n  pop\n    /* \"#utility.yul\":6784:6871   */\n  tag_128\n    /* \"#utility.yul\":6868:6869   */\n  0x00\n    /* \"#utility.yul\":6857:6866   */\n  dup4\n    /* \"#utility.yul\":6853:6870   */\n  add\n    /* \"#utility.yul\":6844:6850   */\n  dup5\n    /* \"#utility.yul\":6784:6871   */\n  tag_44\n  jump\t// in\ntag_128:\n    /* \"#utility.yul\":6624:6878   */\n  swap3\n  swap2\n  pop\n  pop\n  jump\t// out\n    /* \"#utility.yul\":6884:7031   */\ntag_45:\n    /* \"#utility.yul\":6985:6996   */\n  0x00\n    /* \"#utility.yul\":7022:7025   */\n  dup2\n    /* \"#utility.yul\":7007:7025   */\n  swap1\n  pop\n    /* \"#utility.yul\":6884:7031   */\n  swap3\n  swap2\n  pop\n  pop\n  jump\t// out\n    /* \"#utility.yul\":7037:7283   */\ntag_46:\n    /* \"#utility.yul\":7118:7119   */\n  0x00\n    /* \"#utility.yul\":7128:7241   */\ntag_131:\n    /* \"#utility.yul\":7142:7148   */\n  dup4\n    /* \"#utility.yul\":7139:7140   */\n  dup2\n    /* \"#utility.yul\":7136:7149   */\n  lt\n    /* \"#utility.yul\":7128:7241   */\n  iszero\n  tag_133\n  jumpi\n    /* \"#utility.yul\":7227:7228   */\n  dup1\n    /* \"#utility.yul\":7222:7225   */\n  dup3\n    /* \"#utility.yul\":7218:7229   */\n  add\n    /* \"#utility.yul\":7212:7230   */\n  mload\n    /* \"#utility.yul\":7208:7209   */\n  dup2\n    /* \"#utility.yul\":7203:7206   */\n  dup5\n    /* \"#utility.yul\":7199:7210   */\n  add\n    /* \"#utility.yul\":7192:7231   */\n  mstore\n    /* \"#utility.yul\":7164:7166   */\n  0x20\n    /* \"#utility.yul\":7161:7162   */\n  dup2\n    /* \"#utility.yul\":7157:7167   */\n  add\n    /* \"#utility.yul\":7152:7167   */\n  swap1\n  pop\n    /* \"#utility.yul\":7128:7241   */\n  jump(tag_131)\ntag_133:\n    /* \"#utility.yul\":7275:7276   */\n  0x00\n    /* \"#utility.yul\":7266:7272   */\n  dup5\n    /* \"#utility.yul\":7261:7264   */\n  dup5\n    /* \"#utility.yul\":7257:7273   */\n  add\n    /* \"#utility.yul\":7250:7277   */\n  mstore\n    /* \"#utility.yul\":7099:7283   */\n  pop\n    /* \"#utility.yul\":7037:7283   */\n  pop\n  pop\n  pop\n  jump\t// out\n    /* \"#utility.yul\":7289:7675   */\ntag_47:\n    /* \"#utility.yul\":7393:7396   */\n  0x00\n    /* \"#utility.yul\":7421:7459   */\n  tag_135\n    /* \"#utility.yul\":7453:7458   */\n  dup3\n    /* \"#utility.yul\":7421:7459   */\n  tag_17\n  jump\t// in\ntag_135:\n    /* \"#utility.yul\":7475:7563   */\n  tag_136\n    /* \"#utility.yul\":7556:7562   */\n  dup2\n    /* \"#utility.yul\":7551:7554   */\n  dup6\n    /* \"#utility.yul\":7475:7563   */\n  tag_45\n  jump\t// in\ntag_136:\n    /* \"#utility.yul\":7468:7563   */\n  swap4\n  pop\n    /* \"#utility.yul\":7572:7637   */\n  tag_137\n    /* \"#utility.yul\":7630:7636   */\n  dup2\n    /* \"#utility.yul\":7625:7628   */\n  dup6\n    /* \"#utility.yul\":7618:7622   */\n  0x20\n    /* \"#utility.yul\":7611:7616   */\n  dup7\n    /* \"#utility.yul\":7607:7623   */\n  add\n    /* \"#utility.yul\":7572:7637   */\n  tag_46\n  jump\t// in\ntag_137:\n    /* \"#utility.yul\":7662:7668   */\n  dup1\n    /* \"#utility.yul\":7657:7660   */\n  dup5\n    /* \"#utility.yul\":7653:7669   */\n  add\n    /* \"#utility.yul\":7646:7669   */\n  swap2\n  pop\n    /* \"#utility.yul\":7397:7675   */\n  pop\n    /* \"#utility.yul\":7289:7675   */\n  swap3\n  swap2\n  pop\n  pop\n  jump\t// out\n    /* \"#utility.yul\":7681:8108   */\ntag_14:\n    /* \"#utility.yul\":7857:7860   */\n  0x00\n    /* \"#utility.yul\":7879:7972   */\n  tag_139\n    /* \"#utility.yul\":7968:7971   */\n  dup3\n    /* \"#utility.yul\":7959:7965   */\n  dup6\n    /* \"#utility.yul\":7879:7972   */\n  tag_47\n  jump\t// in\ntag_139:\n    /* \"#utility.yul\":7872:7972   */\n  swap2\n  pop\n    /* \"#utility.yul\":7989:8082   */\n  tag_140\n    /* \"#utility.yul\":8078:8081   */\n  dup3\n    /* \"#utility.yul\":8069:8075   */\n  dup5\n    /* \"#utility.yul\":7989:8082   */\n  tag_47\n  jump\t// in\ntag_140:\n    /* \"#utility.yul\":7982:8082   */\n  swap2\n  pop\n    /* \"#utility.yul\":8099:8102   */\n  dup2\n    /* \"#utility.yul\":8092:8102   */\n  swap1\n  pop\n    /* \"#utility.yul\":7681:8108   */\n  swap4\n  swap3\n  pop\n  pop\n  pop\n  jump\t// out\n    /* \"shoot/2/\\xe5\\x8f\\xaf\\xe8\\xa7\\x81\\xe6\\x80\\xa7\\xe4\\xbf\\xae\\xe9\\xa5\\xb0\\xe7\\xac\\xa6/1.sol\":1234:2158  contract deploy{... */\ntag_16:\n  dataSize(sub_0)\n  dup1\n  dataOffset(sub_0)\n  0x00\n  codecopy\n  0x00\n  return\nstop\n\nsub_0: assembly {\n        /* \"shoot/2/\\xe5\\x8f\\xaf\\xe8\\xa7\\x81\\xe6\\x80\\xa7\\xe4\\xbf\\xae\\xe9\\xa5\\xb0\\xe7\\xac\\xa6/1.sol\":1234:2158  contract deploy{... */\n      mstore(0x40, 0x80)\n      callvalue\n      dup1\n      iszero\n      tag_1\n      jumpi\n      0x00\n      dup1\n      revert\n    tag_1:\n      pop\n      jumpi(tag_2, lt(calldatasize, 0x04))\n      shr(0xe0, calldataload(0x00))\n      dup1\n      0x0560280e\n      eq\n      tag_3\n      jumpi\n      dup1\n      0x494a1ae5\n      eq\n      tag_4\n      jumpi\n      dup1\n      0xc61b20e2\n      eq\n      tag_5\n      jumpi\n      dup1\n      0xc878eb3b\n      eq\n      tag_6\n      jumpi\n      dup1\n      0xd13319c4\n      eq\n      tag_7\n      jumpi\n      dup1\n      0xf905c15a\n      eq\n      tag_8\n      jumpi\n    tag_2:\n      0x00\n      dup1\n      revert\n        /* \"shoot/2/\\xe5\\x8f\\xaf\\xe8\\xa7\\x81\\xe6\\x80\\xa7\\xe4\\xbf\\xae\\xe9\\xa5\\xb0\\xe7\\xac\\xa6/1.sol\":1302:1349  bytes public  byteCode = type(fig).creationCode */\n    tag_3:\n      tag_9\n      tag_10\n      jump\t// in\n    tag_9:\n      mload(0x40)\n      tag_11\n      swap2\n      swap1\n      tag_12\n      jump\t// in\n    tag_11:\n      mload(0x40)\n      dup1\n      swap2\n      sub\n      swap1\n      return\n        /* \"shoot/2/\\xe5\\x8f\\xaf\\xe8\\xa7\\x81\\xe6\\x80\\xa7\\xe4\\xbf\\xae\\xe9\\xa5\\xb0\\xe7\\xac\\xa6/1.sol\":1533:1950  function figSalt()public returns(bytes32){... */\n    tag_4:\n      tag_13\n      tag_14\n      jump\t// in\n    tag_13:\n      mload(0x40)\n      tag_15\n      swap2\n      swap1\n      tag_16\n      jump\t// in\n    tag_15:\n      mload(0x40)\n      dup1\n      swap2\n      sub\n      swap1\n      return\n        /* \"shoot/2/\\xe5\\x8f\\xaf\\xe8\\xa7\\x81\\xe6\\x80\\xa7\\xe4\\xbf\\xae\\xe9\\xa5\\xb0\\xe7\\xac\\xa6/1.sol\":1256:1269  fig public fi */\n    tag_5:\n      tag_17\n      tag_18\n      jump\t// in\n    tag_17:\n      mload(0x40)\n      tag_19\n      swap2\n      swap1\n      tag_20\n      jump\t// in\n    tag_19:\n      mload(0x40)\n      dup1\n      swap2\n      sub\n      swap1\n      return\n        /* \"shoot/2/\\xe5\\x8f\\xaf\\xe8\\xa7\\x81\\xe6\\x80\\xa7\\xe4\\xbf\\xae\\xe9\\xa5\\xb0\\xe7\\xac\\xa6/1.sol\":1356:1379  bytes public  creatCode */\n    tag_6:\n      tag_21\n      tag_22\n      jump\t// in\n    tag_21:\n      mload(0x40)\n      tag_23\n      swap2\n      swap1\n      tag_12\n      jump\t// in\n    tag_23:\n      mload(0x40)\n      dup1\n      swap2\n      sub\n      swap1\n      return\n        /* \"shoot/2/\\xe5\\x8f\\xaf\\xe8\\xa7\\x81\\xe6\\x80\\xa7\\xe4\\xbf\\xae\\xe9\\xa5\\xb0\\xe7\\xac\\xa6/1.sol\":2063:2155  function getHash()public view returns(bytes32){... */\n    tag_7:\n      tag_24\n      tag_25\n      jump\t// in\n    tag_24:\n      mload(0x40)\n      tag_26\n      swap2\n      swap1\n      tag_16\n      jump\t// in\n    tag_26:\n      mload(0x40)\n      dup1\n      swap2\n      sub\n      swap1\n      return\n        /* \"shoot/2/\\xe5\\x8f\\xaf\\xe8\\xa7\\x81\\xe6\\x80\\xa7\\xe4\\xbf\\xae\\xe9\\xa5\\xb0\\xe7\\xac\\xa6/1.sol\":1958:2055  function deployed()public{... */\n    tag_8:\n      tag_27\n      tag_28\n      jump\t// in\n    tag_27:\n      stop\n        /* \"shoot/2/\\xe5\\x8f\\xaf\\xe8\\xa7\\x81\\xe6\\x80\\xa7\\xe4\\xbf\\xae\\xe9\\xa5\\xb0\\xe7\\xac\\xa6/1.sol\":1302:1349  bytes public  byteCode = type(fig).creationCode */\n    tag_10:\n      0x02\n      dup1\n      sload\n      tag_29\n      swap1\n      tag_30\n      jump\t// in\n    tag_29:\n      dup1\n      0x1f\n      add\n      0x20\n      dup1\n      swap2\n      div\n      mul\n      0x20\n      add\n      mload(0x40)\n      swap1\n      dup2\n      add\n      0x40\n      mstore\n      dup1\n      swap3\n      swap2\n      swap1\n      dup2\n      dup2\n      mstore\n      0x20\n      add\n      dup3\n      dup1\n      sload\n      tag_31\n      swap1\n      tag_30\n      jump\t// in\n    tag_31:\n      dup1\n      iszero\n      tag_32\n      jumpi\n      dup1\n      0x1f\n      lt\n      tag_33\n      jumpi\n      0x0100\n      dup1\n      dup4\n      sload\n      div\n      mul\n      dup4\n      mstore\n      swap2\n      0x20\n      add\n      swap2\n      jump(tag_32)\n    tag_33:\n      dup3\n      add\n      swap2\n      swap1\n      0x00\n      mstore\n      keccak256(0x00, 0x20)\n      swap1\n    tag_34:\n      dup2\n      sload\n      dup2\n      mstore\n      swap1\n      0x01\n      add\n      swap1\n      0x20\n      add\n      dup1\n      dup4\n      gt\n      tag_34\n      jumpi\n      dup3\n      swap1\n      sub\n      0x1f\n      and\n      dup3\n      add\n      swap2\n    tag_32:\n      pop\n      pop\n      pop\n      pop\n      pop\n      dup2\n      jump\t// out\n        /* \"shoot/2/\\xe5\\x8f\\xaf\\xe8\\xa7\\x81\\xe6\\x80\\xa7\\xe4\\xbf\\xae\\xe9\\xa5\\xb0\\xe7\\xac\\xa6/1.sol\":1533:1950  function figSalt()public returns(bytes32){... */\n    tag_14:\n        /* \"shoot/2/\\xe5\\x8f\\xaf\\xe8\\xa7\\x81\\xe6\\x80\\xa7\\xe4\\xbf\\xae\\xe9\\xa5\\xb0\\xe7\\xac\\xa6/1.sol\":1566:1573  bytes32 */\n      0x00\n        /* \"shoot/2/\\xe5\\x8f\\xaf\\xe8\\xa7\\x81\\xe6\\x80\\xa7\\xe4\\xbf\\xae\\xe9\\xa5\\xb0\\xe7\\xac\\xa6/1.sol\":1585:1597  uint256 salt */\n      dup1\n        /* \"shoot/2/\\xe5\\x8f\\xaf\\xe8\\xa7\\x81\\xe6\\x80\\xa7\\xe4\\xbf\\xae\\xe9\\xa5\\xb0\\xe7\\xac\\xa6/1.sol\":1608:1620  address addr */\n      0x00\n        /* \"shoot/2/\\xe5\\x8f\\xaf\\xe8\\xa7\\x81\\xe6\\x80\\xa7\\xe4\\xbf\\xae\\xe9\\xa5\\xb0\\xe7\\xac\\xa6/1.sol\":1635:1641  uint i */\n      dup1\n        /* \"shoot/2/\\xe5\\x8f\\xaf\\xe8\\xa7\\x81\\xe6\\x80\\xa7\\xe4\\xbf\\xae\\xe9\\xa5\\xb0\\xe7\\xac\\xa6/1.sol\":1642:1643  0 */\n      0x00\n        /* \"shoot/2/\\xe5\\x8f\\xaf\\xe8\\xa7\\x81\\xe6\\x80\\xa7\\xe4\\xbf\\xae\\xe9\\xa5\\xb0\\xe7\\xac\\xa6/1.sol\":1635:1643  uint i=0 */\n      swap1\n      pop\n        /* \"shoot/2/\\xe5\\x8f\\xaf\\xe8\\xa7\\x81\\xe6\\x80\\xa7\\xe4\\xbf\\xae\\xe9\\xa5\\xb0\\xe7\\xac\\xa6/1.sol\":1631:1911  for(uint i=0;i>=0;){... */\n    tag_36:\n        /* \"shoot/2/\\xe5\\x8f\\xaf\\xe8\\xa7\\x81\\xe6\\x80\\xa7\\xe4\\xbf\\xae\\xe9\\xa5\\xb0\\xe7\\xac\\xa6/1.sol\":1647:1648  0 */\n      0x00\n        /* \"shoot/2/\\xe5\\x8f\\xaf\\xe8\\xa7\\x81\\xe6\\x80\\xa7\\xe4\\xbf\\xae\\xe9\\xa5\\xb0\\xe7\\xac\\xa6/1.sol\":1644:1645  i */\n      dup2\n        /* \"shoot/2/\\xe5\\x8f\\xaf\\xe8\\xa7\\x81\\xe6\\x80\\xa7\\xe4\\xbf\\xae\\xe9\\xa5\\xb0\\xe7\\xac\\xa6/1.sol\":1644:1648  i>=0 */\n      lt\n        /* \"shoot/2/\\xe5\\x8f\\xaf\\xe8\\xa7\\x81\\xe6\\x80\\xa7\\xe4\\xbf\\xae\\xe9\\xa5\\xb0\\xe7\\xac\\xa6/1.sol\":1631:1911  for(uint i=0;i>=0;){... */\n      tag_37\n      jumpi\n        /* \"shoot/2/\\xe5\\x8f\\xaf\\xe8\\xa7\\x81\\xe6\\x80\\xa7\\xe4\\xbf\\xae\\xe9\\xa5\\xb0\\xe7\\xac\\xa6/1.sol\":1729:1733  0xff */\n      0xff\n        /* \"shoot/2/\\xe5\\x8f\\xaf\\xe8\\xa7\\x81\\xe6\\x80\\xa7\\xe4\\xbf\\xae\\xe9\\xa5\\xb0\\xe7\\xac\\xa6/1.sol\":1743:1747  this */\n      address\n        /* \"shoot/2/\\xe5\\x8f\\xaf\\xe8\\xa7\\x81\\xe6\\x80\\xa7\\xe4\\xbf\\xae\\xe9\\xa5\\xb0\\xe7\\xac\\xa6/1.sol\":1757:1761  salt */\n      dup5\n        /* \"shoot/2/\\xe5\\x8f\\xaf\\xe8\\xa7\\x81\\xe6\\x80\\xa7\\xe4\\xbf\\xae\\xe9\\xa5\\xb0\\xe7\\xac\\xa6/1.sol\":1749:1762  bytes32(salt) */\n      0x00\n      shl\n        /* \"shoot/2/\\xe5\\x8f\\xaf\\xe8\\xa7\\x81\\xe6\\x80\\xa7\\xe4\\xbf\\xae\\xe9\\xa5\\xb0\\xe7\\xac\\xa6/1.sol\":1773:1782  creatCode */\n      0x03\n        /* \"shoot/2/\\xe5\\x8f\\xaf\\xe8\\xa7\\x81\\xe6\\x80\\xa7\\xe4\\xbf\\xae\\xe9\\xa5\\xb0\\xe7\\xac\\xa6/1.sol\":1763:1783  keccak256(creatCode) */\n      mload(0x40)\n      tag_39\n      swap2\n      swap1\n      tag_40\n      jump\t// in\n    tag_39:\n      mload(0x40)\n      dup1\n      swap2\n      sub\n      swap1\n      keccak256\n        /* \"shoot/2/\\xe5\\x8f\\xaf\\xe8\\xa7\\x81\\xe6\\x80\\xa7\\xe4\\xbf\\xae\\xe9\\xa5\\xb0\\xe7\\xac\\xa6/1.sol\":1706:1784  abi.encodePacked(uint8(0xff),address(this),bytes32(salt),keccak256(creatCode)) */\n      add(0x20, mload(0x40))\n      tag_41\n      swap5\n      swap4\n      swap3\n      swap2\n      swap1\n      tag_42\n      jump\t// in\n    tag_41:\n      mload(0x40)\n      0x20\n      dup2\n      dup4\n      sub\n      sub\n      dup2\n      mstore\n      swap1\n      0x40\n      mstore\n        /* \"shoot/2/\\xe5\\x8f\\xaf\\xe8\\xa7\\x81\\xe6\\x80\\xa7\\xe4\\xbf\\xae\\xe9\\xa5\\xb0\\xe7\\xac\\xa6/1.sol\":1696:1785  keccak256(abi.encodePacked(uint8(0xff),address(this),bytes32(salt),keccak256(creatCode))) */\n      dup1\n      mload\n      swap1\n      0x20\n      add\n      keccak256\n        /* \"shoot/2/\\xe5\\x8f\\xaf\\xe8\\xa7\\x81\\xe6\\x80\\xa7\\xe4\\xbf\\xae\\xe9\\xa5\\xb0\\xe7\\xac\\xa6/1.sol\":1688:1786  uint256(keccak256(abi.encodePacked(uint8(0xff),address(this),bytes32(salt),keccak256(creatCode)))) */\n      0x00\n      shr\n        /* \"shoot/2/\\xe5\\x8f\\xaf\\xe8\\xa7\\x81\\xe6\\x80\\xa7\\xe4\\xbf\\xae\\xe9\\xa5\\xb0\\xe7\\xac\\xa6/1.sol\":1665:1788  addr = address(uint160(uint256(keccak256(abi.encodePacked(uint8(0xff),address(this),bytes32(salt),keccak256(creatCode)))))) */\n      swap2\n      pop\n        /* \"shoot/2/\\xe5\\x8f\\xaf\\xe8\\xa7\\x81\\xe6\\x80\\xa7\\xe4\\xbf\\xae\\xe9\\xa5\\xb0\\xe7\\xac\\xa6/1.sol\":1832:1836  0xc4 */\n      0xc4\n        /* \"shoot/2/\\xe5\\x8f\\xaf\\xe8\\xa7\\x81\\xe6\\x80\\xa7\\xe4\\xbf\\xae\\xe9\\xa5\\xb0\\xe7\\xac\\xa6/1.sol\":1806:1837  uint160(addr)&0xff==uint8(0xc4) */\n      0xff\n      and\n        /* \"shoot/2/\\xe5\\x8f\\xaf\\xe8\\xa7\\x81\\xe6\\x80\\xa7\\xe4\\xbf\\xae\\xe9\\xa5\\xb0\\xe7\\xac\\xa6/1.sol\":1820:1824  0xff */\n      0xff\n        /* \"shoot/2/\\xe5\\x8f\\xaf\\xe8\\xa7\\x81\\xe6\\x80\\xa7\\xe4\\xbf\\xae\\xe9\\xa5\\xb0\\xe7\\xac\\xa6/1.sol\":1814:1818  addr */\n      dup4\n        /* \"shoot/2/\\xe5\\x8f\\xaf\\xe8\\xa7\\x81\\xe6\\x80\\xa7\\xe4\\xbf\\xae\\xe9\\xa5\\xb0\\xe7\\xac\\xa6/1.sol\":1806:1824  uint160(addr)&0xff */\n      and\n        /* \"shoot/2/\\xe5\\x8f\\xaf\\xe8\\xa7\\x81\\xe6\\x80\\xa7\\xe4\\xbf\\xae\\xe9\\xa5\\xb0\\xe7\\xac\\xa6/1.sol\":1806:1837  uint160(addr)&0xff==uint8(0xc4) */\n      0xffffffffffffffffffffffffffffffffffffffff\n      and\n      sub\n        /* \"shoot/2/\\xe5\\x8f\\xaf\\xe8\\xa7\\x81\\xe6\\x80\\xa7\\xe4\\xbf\\xae\\xe9\\xa5\\xb0\\xe7\\xac\\xa6/1.sol\":1803:1878  if(uint160(addr)&0xff==uint8(0xc4)){... */\n      iszero\n        /* \"shoot/2/\\xe5\\x8f\\xaf\\xe8\\xa7\\x81\\xe6\\x80\\xa7\\xe4\\xbf\\xae\\xe9\\xa5\\xb0\\xe7\\xac\\xa6/1.sol\":1857:1862  break */\n      tag_37\n        /* \"shoot/2/\\xe5\\x8f\\xaf\\xe8\\xa7\\x81\\xe6\\x80\\xa7\\xe4\\xbf\\xae\\xe9\\xa5\\xb0\\xe7\\xac\\xa6/1.sol\":1803:1878  if(uint160(addr)&0xff==uint8(0xc4)){... */\n      jumpi\n        /* \"shoot/2/\\xe5\\x8f\\xaf\\xe8\\xa7\\x81\\xe6\\x80\\xa7\\xe4\\xbf\\xae\\xe9\\xa5\\xb0\\xe7\\xac\\xa6/1.sol\":1898:1899  1 */\n      0x01\n        /* \"shoot/2/\\xe5\\x8f\\xaf\\xe8\\xa7\\x81\\xe6\\x80\\xa7\\xe4\\xbf\\xae\\xe9\\xa5\\xb0\\xe7\\xac\\xa6/1.sol\":1892:1899  salt+=1 */\n      dup4\n      tag_44\n      swap2\n      swap1\n      tag_45\n      jump\t// in\n    tag_44:\n      swap3\n      pop\n        /* \"shoot/2/\\xe5\\x8f\\xaf\\xe8\\xa7\\x81\\xe6\\x80\\xa7\\xe4\\xbf\\xae\\xe9\\xa5\\xb0\\xe7\\xac\\xa6/1.sol\":1631:1911  for(uint i=0;i>=0;){... */\n      jump(tag_36)\n    tag_37:\n      pop\n        /* \"shoot/2/\\xe5\\x8f\\xaf\\xe8\\xa7\\x81\\xe6\\x80\\xa7\\xe4\\xbf\\xae\\xe9\\xa5\\xb0\\xe7\\xac\\xa6/1.sol\":1936:1940  salt */\n      dup2\n        /* \"shoot/2/\\xe5\\x8f\\xaf\\xe8\\xa7\\x81\\xe6\\x80\\xa7\\xe4\\xbf\\xae\\xe9\\xa5\\xb0\\xe7\\xac\\xa6/1.sol\":1928:1941  bytes32(salt) */\n      0x00\n      shl\n        /* \"shoot/2/\\xe5\\x8f\\xaf\\xe8\\xa7\\x81\\xe6\\x80\\xa7\\xe4\\xbf\\xae\\xe9\\xa5\\xb0\\xe7\\xac\\xa6/1.sol\":1921:1942  return(bytes32(salt)) */\n      swap3\n      pop\n      pop\n      pop\n        /* \"shoot/2/\\xe5\\x8f\\xaf\\xe8\\xa7\\x81\\xe6\\x80\\xa7\\xe4\\xbf\\xae\\xe9\\xa5\\xb0\\xe7\\xac\\xa6/1.sol\":1533:1950  function figSalt()public returns(bytes32){... */\n      swap1\n      jump\t// out\n        /* \"shoot/2/\\xe5\\x8f\\xaf\\xe8\\xa7\\x81\\xe6\\x80\\xa7\\xe4\\xbf\\xae\\xe9\\xa5\\xb0\\xe7\\xac\\xa6/1.sol\":1256:1269  fig public fi */\n    tag_18:\n      0x00\n      dup1\n      sload\n      swap1\n      0x0100\n      exp\n      swap1\n      div\n      0xffffffffffffffffffffffffffffffffffffffff\n      and\n      dup2\n      jump\t// out\n        /* \"shoot/2/\\xe5\\x8f\\xaf\\xe8\\xa7\\x81\\xe6\\x80\\xa7\\xe4\\xbf\\xae\\xe9\\xa5\\xb0\\xe7\\xac\\xa6/1.sol\":1356:1379  bytes public  creatCode */\n    tag_22:\n      0x03\n      dup1\n      sload\n      tag_46\n      swap1\n      tag_30\n      jump\t// in\n    tag_46:\n      dup1\n      0x1f\n      add\n      0x20\n      dup1\n      swap2\n      div\n      mul\n      0x20\n      add\n      mload(0x40)\n      swap1\n      dup2\n      add\n      0x40\n      mstore\n      dup1\n      swap3\n      swap2\n      swap1\n      dup2\n      dup2\n      mstore\n      0x20\n      add\n      dup3\n      dup1\n      sload\n      tag_47\n      swap1\n      tag_30\n      jump\t// in\n    tag_47:\n      dup1\n      iszero\n      tag_48\n      jumpi\n      dup1\n      0x1f\n      lt\n      tag_49\n      jumpi\n      0x0100\n      dup1\n      dup4\n      sload\n      div\n      mul\n      dup4\n      mstore\n      swap2\n      0x20\n      add\n      swap2\n      jump(tag_48)\n    tag_49:\n      dup3\n      add\n      swap2\n      swap1\n      0x00\n      mstore\n      keccak256(0x00, 0x20)\n      swap1\n    tag_50:\n      dup2\n      sload\n      dup2\n      mstore\n      swap1\n      0x01\n      add\n      swap1\n      0x20\n      add\n      dup1\n      dup4\n      gt\n      tag_50\n      jumpi\n      dup3\n      swap1\n      sub\n      0x1f\n      and\n      dup3\n      add\n      swap2\n    tag_48:\n      pop\n      pop\n      pop\n      pop\n      pop\n      dup2\n      jump\t// out\n        /* \"shoot/2/\\xe5\\x8f\\xaf\\xe8\\xa7\\x81\\xe6\\x80\\xa7\\xe4\\xbf\\xae\\xe9\\xa5\\xb0\\xe7\\xac\\xa6/1.sol\":2063:2155  function getHash()public view returns(bytes32){... */\n    tag_25:\n        /* \"shoot/2/\\xe5\\x8f\\xaf\\xe8\\xa7\\x81\\xe6\\x80\\xa7\\xe4\\xbf\\xae\\xe9\\xa5\\xb0\\xe7\\xac\\xa6/1.sol\":2101:2108  bytes32 */\n      0x00\n        /* \"shoot/2/\\xe5\\x8f\\xaf\\xe8\\xa7\\x81\\xe6\\x80\\xa7\\xe4\\xbf\\xae\\xe9\\xa5\\xb0\\xe7\\xac\\xa6/1.sol\":2137:2146  creatCode */\n      0x03\n        /* \"shoot/2/\\xe5\\x8f\\xaf\\xe8\\xa7\\x81\\xe6\\x80\\xa7\\xe4\\xbf\\xae\\xe9\\xa5\\xb0\\xe7\\xac\\xa6/1.sol\":2127:2147  keccak256(creatCode) */\n      mload(0x40)\n      tag_52\n      swap2\n      swap1\n      tag_40\n      jump\t// in\n    tag_52:\n      mload(0x40)\n      dup1\n      swap2\n      sub\n      swap1\n      keccak256\n        /* \"shoot/2/\\xe5\\x8f\\xaf\\xe8\\xa7\\x81\\xe6\\x80\\xa7\\xe4\\xbf\\xae\\xe9\\xa5\\xb0\\xe7\\xac\\xa6/1.sol\":2120:2147  return keccak256(creatCode) */\n      swap1\n      pop\n        /* \"shoot/2/\\xe5\\x8f\\xaf\\xe8\\xa7\\x81\\xe6\\x80\\xa7\\xe4\\xbf\\xae\\xe9\\xa5\\xb0\\xe7\\xac\\xa6/1.sol\":2063:2155  function getHash()public view returns(bytes32){... */\n      swap1\n      jump\t// out\n        /* \"shoot/2/\\xe5\\x8f\\xaf\\xe8\\xa7\\x81\\xe6\\x80\\xa7\\xe4\\xbf\\xae\\xe9\\xa5\\xb0\\xe7\\xac\\xa6/1.sol\":1958:2055  function deployed()public{... */\n    tag_28:\n        /* \"shoot/2/\\xe5\\x8f\\xaf\\xe8\\xa7\\x81\\xe6\\x80\\xa7\\xe4\\xbf\\xae\\xe9\\xa5\\xb0\\xe7\\xac\\xa6/1.sol\":2018:2027  figSalt() */\n      tag_54\n        /* \"shoot/2/\\xe5\\x8f\\xaf\\xe8\\xa7\\x81\\xe6\\x80\\xa7\\xe4\\xbf\\xae\\xe9\\xa5\\xb0\\xe7\\xac\\xa6/1.sol\":2018:2025  figSalt */\n      tag_14\n        /* \"shoot/2/\\xe5\\x8f\\xaf\\xe8\\xa7\\x81\\xe6\\x80\\xa7\\xe4\\xbf\\xae\\xe9\\xa5\\xb0\\xe7\\xac\\xa6/1.sol\":2018:2027  figSalt() */\n      jump\t// in\n    tag_54:\n        /* \"shoot/2/\\xe5\\x8f\\xaf\\xe8\\xa7\\x81\\xe6\\x80\\xa7\\xe4\\xbf\\xae\\xe9\\xa5\\xb0\\xe7\\xac\\xa6/1.sol\":2029:2032  fun */\n      0x01\n      0x00\n      swap1\n      sload\n      swap1\n      0x0100\n      exp\n      swap1\n      div\n      0xffffffffffffffffffffffffffffffffffffffff\n      and\n        /* \"shoot/2/\\xe5\\x8f\\xaf\\xe8\\xa7\\x81\\xe6\\x80\\xa7\\xe4\\xbf\\xae\\xe9\\xa5\\xb0\\xe7\\xac\\xa6/1.sol\":2003:2033  new fig{salt : figSalt()}(fun) */\n      mload(0x40)\n      tag_55\n      swap1\n      tag_56\n      jump\t// in\n    tag_55:\n      tag_57\n      swap2\n      swap1\n      tag_58\n      jump\t// in\n    tag_57:\n      dup2\n      swap1\n      mload(0x40)\n      dup1\n      swap2\n      sub\n      swap1\n      0x00\n      create2\n      swap1\n      pop\n      dup1\n      iszero\n      dup1\n      iszero\n      tag_59\n      jumpi\n      returndatasize\n      0x00\n      dup1\n      returndatacopy\n      revert(0x00, returndatasize)\n    tag_59:\n      pop\n        /* \"shoot/2/\\xe5\\x8f\\xaf\\xe8\\xa7\\x81\\xe6\\x80\\xa7\\xe4\\xbf\\xae\\xe9\\xa5\\xb0\\xe7\\xac\\xa6/1.sol\":1998:2000  fi */\n      0x00\n      dup1\n        /* \"shoot/2/\\xe5\\x8f\\xaf\\xe8\\xa7\\x81\\xe6\\x80\\xa7\\xe4\\xbf\\xae\\xe9\\xa5\\xb0\\xe7\\xac\\xa6/1.sol\":1998:2033  fi = new fig{salt : figSalt()}(fun) */\n      0x0100\n      exp\n      dup2\n      sload\n      dup2\n      0xffffffffffffffffffffffffffffffffffffffff\n      mul\n      not\n      and\n      swap1\n      dup4\n      0xffffffffffffffffffffffffffffffffffffffff\n      and\n      mul\n      or\n      swap1\n      sstore\n      pop\n        /* \"shoot/2/\\xe5\\x8f\\xaf\\xe8\\xa7\\x81\\xe6\\x80\\xa7\\xe4\\xbf\\xae\\xe9\\xa5\\xb0\\xe7\\xac\\xa6/1.sol\":1958:2055  function deployed()public{... */\n      jump\t// out\n    tag_56:\n      dataSize(sub_0)\n      dup1\n      dataOffset(sub_0)\n      dup4\n      codecopy\n      add\n      swap1\n      jump\t// out\n        /* \"#utility.yul\":7:105   */\n    tag_60:\n        /* \"#utility.yul\":58:64   */\n      0x00\n        /* \"#utility.yul\":92:97   */\n      dup2\n        /* \"#utility.yul\":86:98   */\n      mload\n        /* \"#utility.yul\":76:98   */\n      swap1\n      pop\n        /* \"#utility.yul\":7:105   */\n      swap2\n      swap1\n      pop\n      jump\t// out\n        /* \"#utility.yul\":111:279   */\n    tag_61:\n        /* \"#utility.yul\":194:205   */\n      0x00\n        /* \"#utility.yul\":228:234   */\n      dup3\n        /* \"#utility.yul\":223:226   */\n      dup3\n        /* \"#utility.yul\":216:235   */\n      mstore\n        /* \"#utility.yul\":268:272   */\n      0x20\n        /* \"#utility.yul\":263:266   */\n      dup3\n        /* \"#utility.yul\":259:273   */\n      add\n        /* \"#utility.yul\":244:273   */\n      swap1\n      pop\n        /* \"#utility.yul\":111:279   */\n      swap3\n      swap2\n      pop\n      pop\n      jump\t// out\n        /* \"#utility.yul\":285:531   */\n    tag_62:\n        /* \"#utility.yul\":366:367   */\n      0x00\n        /* \"#utility.yul\":376:489   */\n    tag_96:\n        /* \"#utility.yul\":390:396   */\n      dup4\n        /* \"#utility.yul\":387:388   */\n      dup2\n        /* \"#utility.yul\":384:397   */\n      lt\n        /* \"#utility.yul\":376:489   */\n      iszero\n      tag_98\n      jumpi\n        /* \"#utility.yul\":475:476   */\n      dup1\n        /* \"#utility.yul\":470:473   */\n      dup3\n        /* \"#utility.yul\":466:477   */\n      add\n        /* \"#utility.yul\":460:478   */\n      mload\n        /* \"#utility.yul\":456:457   */\n      dup2\n        /* \"#utility.yul\":451:454   */\n      dup5\n        /* \"#utility.yul\":447:458   */\n      add\n        /* \"#utility.yul\":440:479   */\n      mstore\n        /* \"#utility.yul\":412:414   */\n      0x20\n        /* \"#utility.yul\":409:410   */\n      dup2\n        /* \"#utility.yul\":405:415   */\n      add\n        /* \"#utility.yul\":400:415   */\n      swap1\n      pop\n        /* \"#utility.yul\":376:489   */\n      jump(tag_96)\n    tag_98:\n        /* \"#utility.yul\":523:524   */\n      0x00\n        /* \"#utility.yul\":514:520   */\n      dup5\n        /* \"#utility.yul\":509:512   */\n      dup5\n        /* \"#utility.yul\":505:521   */\n      add\n        /* \"#utility.yul\":498:525   */\n      mstore\n        /* \"#utility.yul\":347:531   */\n      pop\n        /* \"#utility.yul\":285:531   */\n      pop\n      pop\n      pop\n      jump\t// out\n        /* \"#utility.yul\":537:639   */\n    tag_63:\n        /* \"#utility.yul\":578:584   */\n      0x00\n        /* \"#utility.yul\":629:631   */\n      0x1f\n        /* \"#utility.yul\":625:632   */\n      not\n        /* \"#utility.yul\":620:622   */\n      0x1f\n        /* \"#utility.yul\":613:618   */\n      dup4\n        /* \"#utility.yul\":609:623   */\n      add\n        /* \"#utility.yul\":605:633   */\n      and\n        /* \"#utility.yul\":595:633   */\n      swap1\n      pop\n        /* \"#utility.yul\":537:639   */\n      swap2\n      swap1\n      pop\n      jump\t// out\n        /* \"#utility.yul\":645:1018   */\n    tag_64:\n        /* \"#utility.yul\":731:734   */\n      0x00\n        /* \"#utility.yul\":759:797   */\n      tag_101\n        /* \"#utility.yul\":791:796   */\n      dup3\n        /* \"#utility.yul\":759:797   */\n      tag_60\n      jump\t// in\n    tag_101:\n        /* \"#utility.yul\":813:883   */\n      tag_102\n        /* \"#utility.yul\":876:882   */\n      dup2\n        /* \"#utility.yul\":871:874   */\n      dup6\n        /* \"#utility.yul\":813:883   */\n      tag_61\n      jump\t// in\n    tag_102:\n        /* \"#utility.yul\":806:883   */\n      swap4\n      pop\n        /* \"#utility.yul\":892:957   */\n      tag_103\n        /* \"#utility.yul\":950:956   */\n      dup2\n        /* \"#utility.yul\":945:948   */\n      dup6\n        /* \"#utility.yul\":938:942   */\n      0x20\n        /* \"#utility.yul\":931:936   */\n      dup7\n        /* \"#utility.yul\":927:943   */\n      add\n        /* \"#utility.yul\":892:957   */\n      tag_62\n      jump\t// in\n    tag_103:\n        /* \"#utility.yul\":982:1011   */\n      tag_104\n        /* \"#utility.yul\":1004:1010   */\n      dup2\n        /* \"#utility.yul\":982:1011   */\n      tag_63\n      jump\t// in\n    tag_104:\n        /* \"#utility.yul\":977:980   */\n      dup5\n        /* \"#utility.yul\":973:1012   */\n      add\n        /* \"#utility.yul\":966:1012   */\n      swap2\n      pop\n        /* \"#utility.yul\":735:1018   */\n      pop\n        /* \"#utility.yul\":645:1018   */\n      swap3\n      swap2\n      pop\n      pop\n      jump\t// out\n        /* \"#utility.yul\":1024:1333   */\n    tag_12:\n        /* \"#utility.yul\":1135:1139   */\n      0x00\n        /* \"#utility.yul\":1173:1175   */\n      0x20\n        /* \"#utility.yul\":1162:1171   */\n      dup3\n        /* \"#utility.yul\":1158:1176   */\n      add\n        /* \"#utility.yul\":1150:1176   */\n      swap1\n      pop\n        /* \"#utility.yul\":1222:1231   */\n      dup2\n        /* \"#utility.yul\":1216:1220   */\n      dup2\n        /* \"#utility.yul\":1212:1232   */\n      sub\n        /* \"#utility.yul\":1208:1209   */\n      0x00\n        /* \"#utility.yul\":1197:1206   */\n      dup4\n        /* \"#utility.yul\":1193:1210   */\n      add\n        /* \"#utility.yul\":1186:1233   */\n      mstore\n        /* \"#utility.yul\":1250:1326   */\n      tag_106\n        /* \"#utility.yul\":1321:1325   */\n      dup2\n        /* \"#utility.yul\":1312:1318   */\n      dup5\n        /* \"#utility.yul\":1250:1326   */\n      tag_64\n      jump\t// in\n    tag_106:\n        /* \"#utility.yul\":1242:1326   */\n      swap1\n      pop\n        /* \"#utility.yul\":1024:1333   */\n      swap3\n      swap2\n      pop\n      pop\n      jump\t// out\n        /* \"#utility.yul\":1339:1416   */\n    tag_65:\n        /* \"#utility.yul\":1376:1383   */\n      0x00\n        /* \"#utility.yul\":1405:1410   */\n      dup2\n        /* \"#utility.yul\":1394:1410   */\n      swap1\n      pop\n        /* \"#utility.yul\":1339:1416   */\n      swap2\n      swap1\n      pop\n      jump\t// out\n        /* \"#utility.yul\":1422:1540   */\n    tag_66:\n        /* \"#utility.yul\":1509:1533   */\n      tag_109\n        /* \"#utility.yul\":1527:1532   */\n      dup2\n        /* \"#utility.yul\":1509:1533   */\n      tag_65\n      jump\t// in\n    tag_109:\n        /* \"#utility.yul\":1504:1507   */\n      dup3\n        /* \"#utility.yul\":1497:1534   */\n      mstore\n        /* \"#utility.yul\":1422:1540   */\n      pop\n      pop\n      jump\t// out\n        /* \"#utility.yul\":1546:1768   */\n    tag_16:\n        /* \"#utility.yul\":1639:1643   */\n      0x00\n        /* \"#utility.yul\":1677:1679   */\n      0x20\n        /* \"#utility.yul\":1666:1675   */\n      dup3\n        /* \"#utility.yul\":1662:1680   */\n      add\n        /* \"#utility.yul\":1654:1680   */\n      swap1\n      pop\n        /* \"#utility.yul\":1690:1761   */\n      tag_111\n        /* \"#utility.yul\":1758:1759   */\n      0x00\n        /* \"#utility.yul\":1747:1756   */\n      dup4\n        /* \"#utility.yul\":1743:1760   */\n      add\n        /* \"#utility.yul\":1734:1740   */\n      dup5\n        /* \"#utility.yul\":1690:1761   */\n      tag_66\n      jump\t// in\n    tag_111:\n        /* \"#utility.yul\":1546:1768   */\n      swap3\n      swap2\n      pop\n      pop\n      jump\t// out\n        /* \"#utility.yul\":1774:1900   */\n    tag_67:\n        /* \"#utility.yul\":1811:1818   */\n      0x00\n        /* \"#utility.yul\":1851:1893   */\n      0xffffffffffffffffffffffffffffffffffffffff\n        /* \"#utility.yul\":1844:1849   */\n      dup3\n        /* \"#utility.yul\":1840:1894   */\n      and\n        /* \"#utility.yul\":1829:1894   */\n      swap1\n      pop\n        /* \"#utility.yul\":1774:1900   */\n      swap2\n      swap1\n      pop\n      jump\t// out\n        /* \"#utility.yul\":1906:1966   */\n    tag_68:\n        /* \"#utility.yul\":1934:1937   */\n      0x00\n        /* \"#utility.yul\":1955:1960   */\n      dup2\n        /* \"#utility.yul\":1948:1960   */\n      swap1\n      pop\n        /* \"#utility.yul\":1906:1966   */\n      swap2\n      swap1\n      pop\n      jump\t// out\n        /* \"#utility.yul\":1972:2114   */\n    tag_69:\n        /* \"#utility.yul\":2022:2031   */\n      0x00\n        /* \"#utility.yul\":2055:2108   */\n      tag_115\n        /* \"#utility.yul\":2073:2107   */\n      tag_116\n        /* \"#utility.yul\":2082:2106   */\n      tag_117\n        /* \"#utility.yul\":2100:2105   */\n      dup5\n        /* \"#utility.yul\":2082:2106   */\n      tag_67\n      jump\t// in\n    tag_117:\n        /* \"#utility.yul\":2073:2107   */\n      tag_68\n      jump\t// in\n    tag_116:\n        /* \"#utility.yul\":2055:2108   */\n      tag_67\n      jump\t// in\n    tag_115:\n        /* \"#utility.yul\":2042:2108   */\n      swap1\n      pop\n        /* \"#utility.yul\":1972:2114   */\n      swap2\n      swap1\n      pop\n      jump\t// out\n        /* \"#utility.yul\":2120:2246   */\n    tag_70:\n        /* \"#utility.yul\":2170:2179   */\n      0x00\n        /* \"#utility.yul\":2203:2240   */\n      tag_119\n        /* \"#utility.yul\":2234:2239   */\n      dup3\n        /* \"#utility.yul\":2203:2240   */\n      tag_69\n      jump\t// in\n    tag_119:\n        /* \"#utility.yul\":2190:2240   */\n      swap1\n      pop\n        /* \"#utility.yul\":2120:2246   */\n      swap2\n      swap1\n      pop\n      jump\t// out\n        /* \"#utility.yul\":2252:2389   */\n    tag_71:\n        /* \"#utility.yul\":2313:2322   */\n      0x00\n        /* \"#utility.yul\":2346:2383   */\n      tag_121\n        /* \"#utility.yul\":2377:2382   */\n      dup3\n        /* \"#utility.yul\":2346:2383   */\n      tag_70\n      jump\t// in\n    tag_121:\n        /* \"#utility.yul\":2333:2383   */\n      swap1\n      pop\n        /* \"#utility.yul\":2252:2389   */\n      swap2\n      swap1\n      pop\n      jump\t// out\n        /* \"#utility.yul\":2395:2548   */\n    tag_72:\n        /* \"#utility.yul\":2493:2541   */\n      tag_123\n        /* \"#utility.yul\":2535:2540   */\n      dup2\n        /* \"#utility.yul\":2493:2541   */\n      tag_71\n      jump\t// in\n    tag_123:\n        /* \"#utility.yul\":2488:2491   */\n      dup3\n        /* \"#utility.yul\":2481:2542   */\n      mstore\n        /* \"#utility.yul\":2395:2548   */\n      pop\n      pop\n      jump\t// out\n        /* \"#utility.yul\":2554:2798   */\n    tag_20:\n        /* \"#utility.yul\":2658:2662   */\n      0x00\n        /* \"#utility.yul\":2696:2698   */\n      0x20\n        /* \"#utility.yul\":2685:2694   */\n      dup3\n        /* \"#utility.yul\":2681:2699   */\n      add\n        /* \"#utility.yul\":2673:2699   */\n      swap1\n      pop\n        /* \"#utility.yul\":2709:2791   */\n      tag_125\n        /* \"#utility.yul\":2788:2789   */\n      0x00\n        /* \"#utility.yul\":2777:2786   */\n      dup4\n        /* \"#utility.yul\":2773:2790   */\n      add\n        /* \"#utility.yul\":2764:2770   */\n      dup5\n        /* \"#utility.yul\":2709:2791   */\n      tag_72\n      jump\t// in\n    tag_125:\n        /* \"#utility.yul\":2554:2798   */\n      swap3\n      swap2\n      pop\n      pop\n      jump\t// out\n        /* \"#utility.yul\":2804:2984   */\n    tag_73:\n        /* \"#utility.yul\":2852:2929   */\n      0x4e487b7100000000000000000000000000000000000000000000000000000000\n        /* \"#utility.yul\":2849:2850   */\n      0x00\n        /* \"#utility.yul\":2842:2930   */\n      mstore\n        /* \"#utility.yul\":2949:2953   */\n      0x22\n        /* \"#utility.yul\":2946:2947   */\n      0x04\n        /* \"#utility.yul\":2939:2954   */\n      mstore\n        /* \"#utility.yul\":2973:2977   */\n      0x24\n        /* \"#utility.yul\":2970:2971   */\n      0x00\n        /* \"#utility.yul\":2963:2978   */\n      revert\n        /* \"#utility.yul\":2990:3310   */\n    tag_30:\n        /* \"#utility.yul\":3034:3040   */\n      0x00\n        /* \"#utility.yul\":3071:3072   */\n      0x02\n        /* \"#utility.yul\":3065:3069   */\n      dup3\n        /* \"#utility.yul\":3061:3073   */\n      div\n        /* \"#utility.yul\":3051:3073   */\n      swap1\n      pop\n        /* \"#utility.yul\":3118:3119   */\n      0x01\n        /* \"#utility.yul\":3112:3116   */\n      dup3\n        /* \"#utility.yul\":3108:3120   */\n      and\n        /* \"#utility.yul\":3139:3157   */\n      dup1\n        /* \"#utility.yul\":3129:3210   */\n      tag_128\n      jumpi\n        /* \"#utility.yul\":3195:3199   */\n      0x7f\n        /* \"#utility.yul\":3187:3193   */\n      dup3\n        /* \"#utility.yul\":3183:3200   */\n      and\n        /* \"#utility.yul\":3173:3200   */\n      swap2\n      pop\n        /* \"#utility.yul\":3129:3210   */\n    tag_128:\n        /* \"#utility.yul\":3257:3259   */\n      0x20\n        /* \"#utility.yul\":3249:3255   */\n      dup3\n        /* \"#utility.yul\":3246:3260   */\n      lt\n        /* \"#utility.yul\":3226:3244   */\n      dup2\n        /* \"#utility.yul\":3223:3261   */\n      sub\n        /* \"#utility.yul\":3220:3304   */\n      tag_129\n      jumpi\n        /* \"#utility.yul\":3276:3294   */\n      tag_130\n      tag_73\n      jump\t// in\n    tag_130:\n        /* \"#utility.yul\":3220:3304   */\n    tag_129:\n        /* \"#utility.yul\":3041:3310   */\n      pop\n        /* \"#utility.yul\":2990:3310   */\n      swap2\n      swap1\n      pop\n      jump\t// out\n        /* \"#utility.yul\":3316:3463   */\n    tag_74:\n        /* \"#utility.yul\":3417:3428   */\n      0x00\n        /* \"#utility.yul\":3454:3457   */\n      dup2\n        /* \"#utility.yul\":3439:3457   */\n      swap1\n      pop\n        /* \"#utility.yul\":3316:3463   */\n      swap3\n      swap2\n      pop\n      pop\n      jump\t// out\n        /* \"#utility.yul\":3469:3609   */\n    tag_75:\n        /* \"#utility.yul\":3517:3521   */\n      0x00\n        /* \"#utility.yul\":3540:3543   */\n      dup2\n        /* \"#utility.yul\":3532:3543   */\n      swap1\n      pop\n        /* \"#utility.yul\":3563:3566   */\n      dup2\n        /* \"#utility.yul\":3560:3561   */\n      0x00\n        /* \"#utility.yul\":3553:3567   */\n      mstore\n        /* \"#utility.yul\":3597:3601   */\n      0x20\n        /* \"#utility.yul\":3594:3595   */\n      0x00\n        /* \"#utility.yul\":3584:3602   */\n      keccak256\n        /* \"#utility.yul\":3576:3602   */\n      swap1\n      pop\n        /* \"#utility.yul\":3469:3609   */\n      swap2\n      swap1\n      pop\n      jump\t// out\n        /* \"#utility.yul\":3637:4507   */\n    tag_76:\n        /* \"#utility.yul\":3738:3741   */\n      0x00\n        /* \"#utility.yul\":3775:3780   */\n      dup2\n        /* \"#utility.yul\":3769:3781   */\n      sload\n        /* \"#utility.yul\":3804:3840   */\n      tag_134\n        /* \"#utility.yul\":3830:3839   */\n      dup2\n        /* \"#utility.yul\":3804:3840   */\n      tag_30\n      jump\t// in\n    tag_134:\n        /* \"#utility.yul\":3856:3944   */\n      tag_135\n        /* \"#utility.yul\":3937:3943   */\n      dup2\n        /* \"#utility.yul\":3932:3935   */\n      dup7\n        /* \"#utility.yul\":3856:3944   */\n      tag_74\n      jump\t// in\n    tag_135:\n        /* \"#utility.yul\":3849:3944   */\n      swap5\n      pop\n        /* \"#utility.yul\":3975:3976   */\n      0x01\n        /* \"#utility.yul\":3964:3973   */\n      dup3\n        /* \"#utility.yul\":3960:3977   */\n      and\n        /* \"#utility.yul\":3991:3992   */\n      0x00\n        /* \"#utility.yul\":3986:4152   */\n      dup2\n      eq\n      tag_137\n      jumpi\n        /* \"#utility.yul\":4166:4167   */\n      0x01\n        /* \"#utility.yul\":4161:4501   */\n      dup2\n      eq\n      tag_138\n      jumpi\n        /* \"#utility.yul\":3953:4501   */\n      jump(tag_136)\n        /* \"#utility.yul\":3986:4152   */\n    tag_137:\n        /* \"#utility.yul\":4070:4074   */\n      0xff\n        /* \"#utility.yul\":4066:4075   */\n      not\n        /* \"#utility.yul\":4055:4064   */\n      dup4\n        /* \"#utility.yul\":4051:4076   */\n      and\n        /* \"#utility.yul\":4046:4049   */\n      dup7\n        /* \"#utility.yul\":4039:4077   */\n      mstore\n        /* \"#utility.yul\":4132:4138   */\n      dup2\n        /* \"#utility.yul\":4125:4139   */\n      iszero\n        /* \"#utility.yul\":4118:4140   */\n      iszero\n        /* \"#utility.yul\":4110:4116   */\n      dup3\n        /* \"#utility.yul\":4106:4141   */\n      mul\n        /* \"#utility.yul\":4101:4104   */\n      dup7\n        /* \"#utility.yul\":4097:4142   */\n      add\n        /* \"#utility.yul\":4090:4142   */\n      swap4\n      pop\n        /* \"#utility.yul\":3986:4152   */\n      jump(tag_136)\n        /* \"#utility.yul\":4161:4501   */\n    tag_138:\n        /* \"#utility.yul\":4228:4265   */\n      tag_139\n        /* \"#utility.yul\":4259:4264   */\n      dup6\n        /* \"#utility.yul\":4228:4265   */\n      tag_75\n      jump\t// in\n    tag_139:\n        /* \"#utility.yul\":4287:4288   */\n      0x00\n        /* \"#utility.yul\":4301:4455   */\n    tag_140:\n        /* \"#utility.yul\":4315:4321   */\n      dup4\n        /* \"#utility.yul\":4312:4313   */\n      dup2\n        /* \"#utility.yul\":4309:4322   */\n      lt\n        /* \"#utility.yul\":4301:4455   */\n      iszero\n      tag_142\n      jumpi\n        /* \"#utility.yul\":4389:4396   */\n      dup2\n        /* \"#utility.yul\":4383:4397   */\n      sload\n        /* \"#utility.yul\":4379:4380   */\n      dup2\n        /* \"#utility.yul\":4374:4377   */\n      dup10\n        /* \"#utility.yul\":4370:4381   */\n      add\n        /* \"#utility.yul\":4363:4398   */\n      mstore\n        /* \"#utility.yul\":4439:4440   */\n      0x01\n        /* \"#utility.yul\":4430:4437   */\n      dup3\n        /* \"#utility.yul\":4426:4441   */\n      add\n        /* \"#utility.yul\":4415:4441   */\n      swap2\n      pop\n        /* \"#utility.yul\":4337:4341   */\n      0x20\n        /* \"#utility.yul\":4334:4335   */\n      dup2\n        /* \"#utility.yul\":4330:4342   */\n      add\n        /* \"#utility.yul\":4325:4342   */\n      swap1\n      pop\n        /* \"#utility.yul\":4301:4455   */\n      jump(tag_140)\n    tag_142:\n        /* \"#utility.yul\":4484:4490   */\n      dup4\n        /* \"#utility.yul\":4479:4482   */\n      dup9\n        /* \"#utility.yul\":4475:4491   */\n      add\n        /* \"#utility.yul\":4468:4491   */\n      swap6\n      pop\n        /* \"#utility.yul\":4168:4501   */\n      pop\n      pop\n        /* \"#utility.yul\":3953:4501   */\n    tag_136:\n      pop\n        /* \"#utility.yul\":3742:4507   */\n      pop\n      pop\n        /* \"#utility.yul\":3637:4507   */\n      swap3\n      swap2\n      pop\n      pop\n      jump\t// out\n        /* \"#utility.yul\":4513:4778   */\n    tag_40:\n        /* \"#utility.yul\":4640:4643   */\n      0x00\n        /* \"#utility.yul\":4662:4752   */\n      tag_144\n        /* \"#utility.yul\":4748:4751   */\n      dup3\n        /* \"#utility.yul\":4739:4745   */\n      dup5\n        /* \"#utility.yul\":4662:4752   */\n      tag_76\n      jump\t// in\n    tag_144:\n        /* \"#utility.yul\":4655:4752   */\n      swap2\n      pop\n        /* \"#utility.yul\":4769:4772   */\n      dup2\n        /* \"#utility.yul\":4762:4772   */\n      swap1\n      pop\n        /* \"#utility.yul\":4513:4778   */\n      swap3\n      swap2\n      pop\n      pop\n      jump\t// out\n        /* \"#utility.yul\":4784:4870   */\n    tag_77:\n        /* \"#utility.yul\":4819:4826   */\n      0x00\n        /* \"#utility.yul\":4859:4863   */\n      0xff\n        /* \"#utility.yul\":4852:4857   */\n      dup3\n        /* \"#utility.yul\":4848:4864   */\n      and\n        /* \"#utility.yul\":4837:4864   */\n      swap1\n      pop\n        /* \"#utility.yul\":4784:4870   */\n      swap2\n      swap1\n      pop\n      jump\t// out\n        /* \"#utility.yul\":4876:4972   */\n    tag_78:\n        /* \"#utility.yul\":4910:4918   */\n      0x00\n        /* \"#utility.yul\":4959:4964   */\n      dup2\n        /* \"#utility.yul\":4954:4957   */\n      0xf8\n        /* \"#utility.yul\":4950:4965   */\n      shl\n        /* \"#utility.yul\":4929:4965   */\n      swap1\n      pop\n        /* \"#utility.yul\":4876:4972   */\n      swap2\n      swap1\n      pop\n      jump\t// out\n        /* \"#utility.yul\":4978:5071   */\n    tag_79:\n        /* \"#utility.yul\":5015:5022   */\n      0x00\n        /* \"#utility.yul\":5044:5065   */\n      tag_148\n        /* \"#utility.yul\":5059:5064   */\n      dup3\n        /* \"#utility.yul\":5044:5065   */\n      tag_78\n      jump\t// in\n    tag_148:\n        /* \"#utility.yul\":5033:5065   */\n      swap1\n      pop\n        /* \"#utility.yul\":4978:5071   */\n      swap2\n      swap1\n      pop\n      jump\t// out\n        /* \"#utility.yul\":5077:5226   */\n    tag_80:\n        /* \"#utility.yul\":5178:5219   */\n      tag_150\n        /* \"#utility.yul\":5196:5218   */\n      tag_151\n        /* \"#utility.yul\":5212:5217   */\n      dup3\n        /* \"#utility.yul\":5196:5218   */\n      tag_77\n      jump\t// in\n    tag_151:\n        /* \"#utility.yul\":5178:5219   */\n      tag_79\n      jump\t// in\n    tag_150:\n        /* \"#utility.yul\":5173:5176   */\n      dup3\n        /* \"#utility.yul\":5166:5220   */\n      mstore\n        /* \"#utility.yul\":5077:5226   */\n      pop\n      pop\n      jump\t// out\n        /* \"#utility.yul\":5232:5328   */\n    tag_81:\n        /* \"#utility.yul\":5269:5276   */\n      0x00\n        /* \"#utility.yul\":5298:5322   */\n      tag_153\n        /* \"#utility.yul\":5316:5321   */\n      dup3\n        /* \"#utility.yul\":5298:5322   */\n      tag_67\n      jump\t// in\n    tag_153:\n        /* \"#utility.yul\":5287:5322   */\n      swap1\n      pop\n        /* \"#utility.yul\":5232:5328   */\n      swap2\n      swap1\n      pop\n      jump\t// out\n        /* \"#utility.yul\":5334:5428   */\n    tag_82:\n        /* \"#utility.yul\":5367:5375   */\n      0x00\n        /* \"#utility.yul\":5415:5420   */\n      dup2\n        /* \"#utility.yul\":5411:5413   */\n      0x60\n        /* \"#utility.yul\":5407:5421   */\n      shl\n        /* \"#utility.yul\":5386:5421   */\n      swap1\n      pop\n        /* \"#utility.yul\":5334:5428   */\n      swap2\n      swap1\n      pop\n      jump\t// out\n        /* \"#utility.yul\":5434:5528   */\n    tag_83:\n        /* \"#utility.yul\":5473:5480   */\n      0x00\n        /* \"#utility.yul\":5502:5522   */\n      tag_156\n        /* \"#utility.yul\":5516:5521   */\n      dup3\n        /* \"#utility.yul\":5502:5522   */\n      tag_82\n      jump\t// in\n    tag_156:\n        /* \"#utility.yul\":5491:5522   */\n      swap1\n      pop\n        /* \"#utility.yul\":5434:5528   */\n      swap2\n      swap1\n      pop\n      jump\t// out\n        /* \"#utility.yul\":5534:5634   */\n    tag_84:\n        /* \"#utility.yul\":5573:5580   */\n      0x00\n        /* \"#utility.yul\":5602:5628   */\n      tag_158\n        /* \"#utility.yul\":5622:5627   */\n      dup3\n        /* \"#utility.yul\":5602:5628   */\n      tag_83\n      jump\t// in\n    tag_158:\n        /* \"#utility.yul\":5591:5628   */\n      swap1\n      pop\n        /* \"#utility.yul\":5534:5634   */\n      swap2\n      swap1\n      pop\n      jump\t// out\n        /* \"#utility.yul\":5640:5797   */\n    tag_85:\n        /* \"#utility.yul\":5745:5790   */\n      tag_160\n        /* \"#utility.yul\":5765:5789   */\n      tag_161\n        /* \"#utility.yul\":5783:5788   */\n      dup3\n        /* \"#utility.yul\":5765:5789   */\n      tag_81\n      jump\t// in\n    tag_161:\n        /* \"#utility.yul\":5745:5790   */\n      tag_84\n      jump\t// in\n    tag_160:\n        /* \"#utility.yul\":5740:5743   */\n      dup3\n        /* \"#utility.yul\":5733:5791   */\n      mstore\n        /* \"#utility.yul\":5640:5797   */\n      pop\n      pop\n      jump\t// out\n        /* \"#utility.yul\":5803:5882   */\n    tag_86:\n        /* \"#utility.yul\":5842:5849   */\n      0x00\n        /* \"#utility.yul\":5871:5876   */\n      dup2\n        /* \"#utility.yul\":5860:5876   */\n      swap1\n      pop\n        /* \"#utility.yul\":5803:5882   */\n      swap2\n      swap1\n      pop\n      jump\t// out\n        /* \"#utility.yul\":5888:6045   */\n    tag_87:\n        /* \"#utility.yul\":5993:6038   */\n      tag_164\n        /* \"#utility.yul\":6013:6037   */\n      tag_165\n        /* \"#utility.yul\":6031:6036   */\n      dup3\n        /* \"#utility.yul\":6013:6037   */\n      tag_65\n      jump\t// in\n    tag_165:\n        /* \"#utility.yul\":5993:6038   */\n      tag_86\n      jump\t// in\n    tag_164:\n        /* \"#utility.yul\":5988:5991   */\n      dup3\n        /* \"#utility.yul\":5981:6039   */\n      mstore\n        /* \"#utility.yul\":5888:6045   */\n      pop\n      pop\n      jump\t// out\n        /* \"#utility.yul\":6051:6721   */\n    tag_42:\n        /* \"#utility.yul\":6243:6246   */\n      0x00\n        /* \"#utility.yul\":6258:6329   */\n      tag_167\n        /* \"#utility.yul\":6325:6328   */\n      dup3\n        /* \"#utility.yul\":6316:6322   */\n      dup8\n        /* \"#utility.yul\":6258:6329   */\n      tag_80\n      jump\t// in\n    tag_167:\n        /* \"#utility.yul\":6354:6355   */\n      0x01\n        /* \"#utility.yul\":6349:6352   */\n      dup3\n        /* \"#utility.yul\":6345:6356   */\n      add\n        /* \"#utility.yul\":6338:6356   */\n      swap2\n      pop\n        /* \"#utility.yul\":6366:6441   */\n      tag_168\n        /* \"#utility.yul\":6437:6440   */\n      dup3\n        /* \"#utility.yul\":6428:6434   */\n      dup7\n        /* \"#utility.yul\":6366:6441   */\n      tag_85\n      jump\t// in\n    tag_168:\n        /* \"#utility.yul\":6466:6468   */\n      0x14\n        /* \"#utility.yul\":6461:6464   */\n      dup3\n        /* \"#utility.yul\":6457:6469   */\n      add\n        /* \"#utility.yul\":6450:6469   */\n      swap2\n      pop\n        /* \"#utility.yul\":6479:6554   */\n      tag_169\n        /* \"#utility.yul\":6550:6553   */\n      dup3\n        /* \"#utility.yul\":6541:6547   */\n      dup6\n        /* \"#utility.yul\":6479:6554   */\n      tag_87\n      jump\t// in\n    tag_169:\n        /* \"#utility.yul\":6579:6581   */\n      0x20\n        /* \"#utility.yul\":6574:6577   */\n      dup3\n        /* \"#utility.yul\":6570:6582   */\n      add\n        /* \"#utility.yul\":6563:6582   */\n      swap2\n      pop\n        /* \"#utility.yul\":6592:6667   */\n      tag_170\n        /* \"#utility.yul\":6663:6666   */\n      dup3\n        /* \"#utility.yul\":6654:6660   */\n      dup5\n        /* \"#utility.yul\":6592:6667   */\n      tag_87\n      jump\t// in\n    tag_170:\n        /* \"#utility.yul\":6692:6694   */\n      0x20\n        /* \"#utility.yul\":6687:6690   */\n      dup3\n        /* \"#utility.yul\":6683:6695   */\n      add\n        /* \"#utility.yul\":6676:6695   */\n      swap2\n      pop\n        /* \"#utility.yul\":6712:6715   */\n      dup2\n        /* \"#utility.yul\":6705:6715   */\n      swap1\n      pop\n        /* \"#utility.yul\":6051:6721   */\n      swap6\n      swap5\n      pop\n      pop\n      pop\n      pop\n      pop\n      jump\t// out\n        /* \"#utility.yul\":6727:6804   */\n    tag_88:\n        /* \"#utility.yul\":6764:6771   */\n      0x00\n        /* \"#utility.yul\":6793:6798   */\n      dup2\n        /* \"#utility.yul\":6782:6798   */\n      swap1\n      pop\n        /* \"#utility.yul\":6727:6804   */\n      swap2\n      swap1\n      pop\n      jump\t// out\n        /* \"#utility.yul\":6810:6990   */\n    tag_89:\n        /* \"#utility.yul\":6858:6935   */\n      0x4e487b7100000000000000000000000000000000000000000000000000000000\n        /* \"#utility.yul\":6855:6856   */\n      0x00\n        /* \"#utility.yul\":6848:6936   */\n      mstore\n        /* \"#utility.yul\":6955:6959   */\n      0x11\n        /* \"#utility.yul\":6952:6953   */\n      0x04\n        /* \"#utility.yul\":6945:6960   */\n      mstore\n        /* \"#utility.yul\":6979:6983   */\n      0x24\n        /* \"#utility.yul\":6976:6977   */\n      0x00\n        /* \"#utility.yul\":6969:6984   */\n      revert\n        /* \"#utility.yul\":6996:7187   */\n    tag_45:\n        /* \"#utility.yul\":7036:7039   */\n      0x00\n        /* \"#utility.yul\":7055:7075   */\n      tag_174\n        /* \"#utility.yul\":7073:7074   */\n      dup3\n        /* \"#utility.yul\":7055:7075   */\n      tag_88\n      jump\t// in\n    tag_174:\n        /* \"#utility.yul\":7050:7075   */\n      swap2\n      pop\n        /* \"#utility.yul\":7089:7109   */\n      tag_175\n        /* \"#utility.yul\":7107:7108   */\n      dup4\n        /* \"#utility.yul\":7089:7109   */\n      tag_88\n      jump\t// in\n    tag_175:\n        /* \"#utility.yul\":7084:7109   */\n      swap3\n      pop\n        /* \"#utility.yul\":7132:7133   */\n      dup3\n        /* \"#utility.yul\":7129:7130   */\n      dup3\n        /* \"#utility.yul\":7125:7134   */\n      add\n        /* \"#utility.yul\":7118:7134   */\n      swap1\n      pop\n        /* \"#utility.yul\":7153:7156   */\n      dup1\n        /* \"#utility.yul\":7150:7151   */\n      dup3\n        /* \"#utility.yul\":7147:7157   */\n      gt\n        /* \"#utility.yul\":7144:7180   */\n      iszero\n      tag_176\n      jumpi\n        /* \"#utility.yul\":7160:7178   */\n      tag_177\n      tag_89\n      jump\t// in\n    tag_177:\n        /* \"#utility.yul\":7144:7180   */\n    tag_176:\n        /* \"#utility.yul\":6996:7187   */\n      swap3\n      swap2\n      pop\n      pop\n      jump\t// out\n        /* \"#utility.yul\":7193:7297   */\n    tag_90:\n        /* \"#utility.yul\":7238:7245   */\n      0x00\n        /* \"#utility.yul\":7267:7291   */\n      tag_179\n        /* \"#utility.yul\":7285:7290   */\n      dup3\n        /* \"#utility.yul\":7267:7291   */\n      tag_67\n      jump\t// in\n    tag_179:\n        /* \"#utility.yul\":7256:7291   */\n      swap1\n      pop\n        /* \"#utility.yul\":7193:7297   */\n      swap2\n      swap1\n      pop\n      jump\t// out\n        /* \"#utility.yul\":7303:7445   */\n    tag_91:\n        /* \"#utility.yul\":7406:7438   */\n      tag_181\n        /* \"#utility.yul\":7432:7437   */\n      dup2\n        /* \"#utility.yul\":7406:7438   */\n      tag_90\n      jump\t// in\n    tag_181:\n        /* \"#utility.yul\":7401:7404   */\n      dup3\n        /* \"#utility.yul\":7394:7439   */\n      mstore\n        /* \"#utility.yul\":7303:7445   */\n      pop\n      pop\n      jump\t// out\n        /* \"#utility.yul\":7451:7705   */\n    tag_58:\n        /* \"#utility.yul\":7560:7564   */\n      0x00\n        /* \"#utility.yul\":7598:7600   */\n      0x20\n        /* \"#utility.yul\":7587:7596   */\n      dup3\n        /* \"#utility.yul\":7583:7601   */\n      add\n        /* \"#utility.yul\":7575:7601   */\n      swap1\n      pop\n        /* \"#utility.yul\":7611:7698   */\n      tag_183\n        /* \"#utility.yul\":7695:7696   */\n      0x00\n        /* \"#utility.yul\":7684:7693   */\n      dup4\n        /* \"#utility.yul\":7680:7697   */\n      add\n        /* \"#utility.yul\":7671:7677   */\n      dup5\n        /* \"#utility.yul\":7611:7698   */\n      tag_91\n      jump\t// in\n    tag_183:\n        /* \"#utility.yul\":7451:7705   */\n      swap3\n      swap2\n      pop\n      pop\n      jump\t// out\n    stop\n\n    sub_0: assembly {\n            /* \"shoot/2/\\xe5\\x8f\\xaf\\xe8\\xa7\\x81\\xe6\\x80\\xa7\\xe4\\xbf\\xae\\xe9\\xa5\\xb0\\xe7\\xac\\xa6/1.sol\":164:1230  contract fig{... */\n          mstore(0x40, 0x80)\n            /* \"shoot/2/\\xe5\\x8f\\xaf\\xe8\\xa7\\x81\\xe6\\x80\\xa7\\xe4\\xbf\\xae\\xe9\\xa5\\xb0\\xe7\\xac\\xa6/1.sol\":206:275  constructor(address payable _fun){... */\n          callvalue\n          dup1\n          iszero\n          tag_1\n          jumpi\n          0x00\n          dup1\n          revert\n        tag_1:\n          pop\n          mload(0x40)\n          sub(codesize, bytecodeSize)\n          dup1\n          bytecodeSize\n          dup4\n          codecopy\n          dup2\n          dup2\n          add\n          0x40\n          mstore\n          dup2\n          add\n          swap1\n          tag_2\n          swap2\n          swap1\n          tag_3\n          jump\t// in\n        tag_2:\n            /* \"shoot/2/\\xe5\\x8f\\xaf\\xe8\\xa7\\x81\\xe6\\x80\\xa7\\xe4\\xbf\\xae\\xe9\\xa5\\xb0\\xe7\\xac\\xa6/1.sol\":262:266  _fun */\n          dup1\n            /* \"shoot/2/\\xe5\\x8f\\xaf\\xe8\\xa7\\x81\\xe6\\x80\\xa7\\xe4\\xbf\\xae\\xe9\\xa5\\xb0\\xe7\\xac\\xa6/1.sol\":250:253  fun */\n          0x00\n          dup1\n            /* \"shoot/2/\\xe5\\x8f\\xaf\\xe8\\xa7\\x81\\xe6\\x80\\xa7\\xe4\\xbf\\xae\\xe9\\xa5\\xb0\\xe7\\xac\\xa6/1.sol\":250:267  fun = check(_fun) */\n          0x0100\n          exp\n          dup2\n          sload\n          dup2\n          0xffffffffffffffffffffffffffffffffffffffff\n          mul\n          not\n          and\n          swap1\n          dup4\n          0xffffffffffffffffffffffffffffffffffffffff\n          and\n          mul\n          or\n          swap1\n          sstore\n          pop\n            /* \"shoot/2/\\xe5\\x8f\\xaf\\xe8\\xa7\\x81\\xe6\\x80\\xa7\\xe4\\xbf\\xae\\xe9\\xa5\\xb0\\xe7\\xac\\xa6/1.sol\":206:275  constructor(address payable _fun){... */\n          pop\n            /* \"shoot/2/\\xe5\\x8f\\xaf\\xe8\\xa7\\x81\\xe6\\x80\\xa7\\xe4\\xbf\\xae\\xe9\\xa5\\xb0\\xe7\\xac\\xa6/1.sol\":164:1230  contract fig{... */\n          jump(tag_6)\n            /* \"#utility.yul\":88:205   */\n        tag_8:\n            /* \"#utility.yul\":197:198   */\n          0x00\n            /* \"#utility.yul\":194:195   */\n          dup1\n            /* \"#utility.yul\":187:199   */\n          revert\n            /* \"#utility.yul\":334:460   */\n        tag_10:\n            /* \"#utility.yul\":371:378   */\n          0x00\n            /* \"#utility.yul\":411:453   */\n          0xffffffffffffffffffffffffffffffffffffffff\n            /* \"#utility.yul\":404:409   */\n          dup3\n            /* \"#utility.yul\":400:454   */\n          and\n            /* \"#utility.yul\":389:454   */\n          swap1\n          pop\n            /* \"#utility.yul\":334:460   */\n          swap2\n          swap1\n          pop\n          jump\t// out\n            /* \"#utility.yul\":466:570   */\n        tag_11:\n            /* \"#utility.yul\":511:518   */\n          0x00\n            /* \"#utility.yul\":540:564   */\n          tag_20\n            /* \"#utility.yul\":558:563   */\n          dup3\n            /* \"#utility.yul\":540:564   */\n          tag_10\n          jump\t// in\n        tag_20:\n            /* \"#utility.yul\":529:564   */\n          swap1\n          pop\n            /* \"#utility.yul\":466:570   */\n          swap2\n          swap1\n          pop\n          jump\t// out\n            /* \"#utility.yul\":576:714   */\n        tag_12:\n            /* \"#utility.yul\":657:689   */\n          tag_22\n            /* \"#utility.yul\":683:688   */\n          dup2\n            /* \"#utility.yul\":657:689   */\n          tag_11\n          jump\t// in\n        tag_22:\n            /* \"#utility.yul\":650:655   */\n          dup2\n            /* \"#utility.yul\":647:690   */\n          eq\n            /* \"#utility.yul\":637:708   */\n          tag_23\n          jumpi\n            /* \"#utility.yul\":704:705   */\n          0x00\n            /* \"#utility.yul\":701:702   */\n          dup1\n            /* \"#utility.yul\":694:706   */\n          revert\n            /* \"#utility.yul\":637:708   */\n        tag_23:\n            /* \"#utility.yul\":576:714   */\n          pop\n          jump\t// out\n            /* \"#utility.yul\":720:879   */\n        tag_13:\n            /* \"#utility.yul\":785:790   */\n          0x00\n            /* \"#utility.yul\":816:822   */\n          dup2\n            /* \"#utility.yul\":810:823   */\n          mload\n            /* \"#utility.yul\":801:823   */\n          swap1\n          pop\n            /* \"#utility.yul\":832:873   */\n          tag_25\n            /* \"#utility.yul\":867:872   */\n          dup2\n            /* \"#utility.yul\":832:873   */\n          tag_12\n          jump\t// in\n        tag_25:\n            /* \"#utility.yul\":720:879   */\n          swap3\n          swap2\n          pop\n          pop\n          jump\t// out\n            /* \"#utility.yul\":885:1252   */\n        tag_3:\n            /* \"#utility.yul\":963:969   */\n          0x00\n            /* \"#utility.yul\":1012:1014   */\n          0x20\n            /* \"#utility.yul\":1000:1009   */\n          dup3\n            /* \"#utility.yul\":991:998   */\n          dup5\n            /* \"#utility.yul\":987:1010   */\n          sub\n            /* \"#utility.yul\":983:1015   */\n          slt\n            /* \"#utility.yul\":980:1099   */\n          iszero\n          tag_27\n          jumpi\n            /* \"#utility.yul\":1018:1097   */\n          tag_28\n          tag_8\n          jump\t// in\n        tag_28:\n            /* \"#utility.yul\":980:1099   */\n        tag_27:\n            /* \"#utility.yul\":1138:1139   */\n          0x00\n            /* \"#utility.yul\":1163:1235   */\n          tag_29\n            /* \"#utility.yul\":1227:1234   */\n          dup5\n            /* \"#utility.yul\":1218:1224   */\n          dup3\n            /* \"#utility.yul\":1207:1216   */\n          dup6\n            /* \"#utility.yul\":1203:1225   */\n          add\n            /* \"#utility.yul\":1163:1235   */\n          tag_13\n          jump\t// in\n        tag_29:\n            /* \"#utility.yul\":1153:1235   */\n          swap2\n          pop\n            /* \"#utility.yul\":1109:1245   */\n          pop\n            /* \"#utility.yul\":885:1252   */\n          swap3\n          swap2\n          pop\n          pop\n          jump\t// out\n            /* \"shoot/2/\\xe5\\x8f\\xaf\\xe8\\xa7\\x81\\xe6\\x80\\xa7\\xe4\\xbf\\xae\\xe9\\xa5\\xb0\\xe7\\xac\\xa6/1.sol\":164:1230  contract fig{... */\n        tag_6:\n          dataSize(sub_0)\n          dup1\n          dataOffset(sub_0)\n          0x00\n          codecopy\n          0x00\n          return\n        stop\n\n        sub_0: assembly {\n                /* \"shoot/2/\\xe5\\x8f\\xaf\\xe8\\xa7\\x81\\xe6\\x80\\xa7\\xe4\\xbf\\xae\\xe9\\xa5\\xb0\\xe7\\xac\\xa6/1.sol\":164:1230  contract fig{... */\n              mstore(0x40, 0x80)\n              jumpi(tag_1, lt(calldatasize, 0x04))\n              shr(0xe0, calldataload(0x00))\n              dup1\n              0x946644cd\n              gt\n              tag_11\n              jumpi\n              dup1\n              0x946644cd\n              eq\n              tag_6\n              jumpi\n              dup1\n              0x9fcec698\n              eq\n              tag_7\n              jumpi\n              dup1\n              0xb2b9f26d\n              eq\n              tag_8\n              jumpi\n              dup1\n              0xdc5bb9a1\n              eq\n              tag_9\n              jumpi\n              dup1\n              0xe4832009\n              eq\n              tag_10\n              jumpi\n              jump(tag_1)\n            tag_11:\n              dup1\n              0x12a50b25\n              eq\n              tag_2\n              jumpi\n              dup1\n              0x13b6ae4c\n              eq\n              tag_3\n              jumpi\n              dup1\n              0x419efc03\n              eq\n              tag_4\n              jumpi\n              dup1\n              0x522e1177\n              eq\n              tag_5\n              jumpi\n            tag_1:\n              0x00\n              dup1\n              revert\n                /* \"shoot/2/\\xe5\\x8f\\xaf\\xe8\\xa7\\x81\\xe6\\x80\\xa7\\xe4\\xbf\\xae\\xe9\\xa5\\xb0\\xe7\\xac\\xa6/1.sol\":907:978  function attack4()public payable{... */\n            tag_2:\n              tag_12\n              tag_13\n              jump\t// in\n            tag_12:\n              stop\n                /* \"shoot/2/\\xe5\\x8f\\xaf\\xe8\\xa7\\x81\\xe6\\x80\\xa7\\xe4\\xbf\\xae\\xe9\\xa5\\xb0\\xe7\\xac\\xa6/1.sol\":282:390  function figure()public pure returns(bytes memory){... */\n            tag_3:\n              callvalue\n              dup1\n              iszero\n              tag_14\n              jumpi\n              0x00\n              dup1\n              revert\n            tag_14:\n              pop\n              tag_15\n              tag_16\n              jump\t// in\n            tag_15:\n              mload(0x40)\n              tag_17\n              swap2\n              swap1\n              tag_18\n              jump\t// in\n            tag_17:\n              mload(0x40)\n              dup1\n              swap2\n              sub\n              swap1\n              return\n                /* \"shoot/2/\\xe5\\x8f\\xaf\\xe8\\xa7\\x81\\xe6\\x80\\xa7\\xe4\\xbf\\xae\\xe9\\xa5\\xb0\\xe7\\xac\\xa6/1.sol\":398:679  function attack1()public payable{... */\n            tag_4:\n              tag_19\n              tag_20\n              jump\t// in\n            tag_19:\n              stop\n                /* \"shoot/2/\\xe5\\x8f\\xaf\\xe8\\xa7\\x81\\xe6\\x80\\xa7\\xe4\\xbf\\xae\\xe9\\xa5\\xb0\\xe7\\xac\\xa6/1.sol\":1166:1227  function complete()public{... */\n            tag_5:\n              callvalue\n              dup1\n              iszero\n              tag_21\n              jumpi\n              0x00\n              dup1\n              revert\n            tag_21:\n              pop\n              tag_22\n              tag_23\n              jump\t// in\n            tag_22:\n              stop\n                /* \"shoot/2/\\xe5\\x8f\\xaf\\xe8\\xa7\\x81\\xe6\\x80\\xa7\\xe4\\xbf\\xae\\xe9\\xa5\\xb0\\xe7\\xac\\xa6/1.sol\":183:199  check public fun */\n            tag_6:\n              callvalue\n              dup1\n              iszero\n              tag_24\n              jumpi\n              0x00\n              dup1\n              revert\n            tag_24:\n              pop\n              tag_25\n              tag_26\n              jump\t// in\n            tag_25:\n              mload(0x40)\n              tag_27\n              swap2\n              swap1\n              tag_28\n              jump\t// in\n            tag_27:\n              mload(0x40)\n              dup1\n              swap2\n              sub\n              swap1\n              return\n                /* \"shoot/2/\\xe5\\x8f\\xaf\\xe8\\xa7\\x81\\xe6\\x80\\xa7\\xe4\\xbf\\xae\\xe9\\xa5\\xb0\\xe7\\xac\\xa6/1.sol\":685:825  function attack2()public payable{... */\n            tag_7:\n              tag_29\n              tag_30\n              jump\t// in\n            tag_29:\n              stop\n                /* \"shoot/2/\\xe5\\x8f\\xaf\\xe8\\xa7\\x81\\xe6\\x80\\xa7\\xe4\\xbf\\xae\\xe9\\xa5\\xb0\\xe7\\xac\\xa6/1.sol\":831:901  function attack3()public payable{... */\n            tag_8:\n              tag_31\n              tag_32\n              jump\t// in\n            tag_31:\n              stop\n                /* \"shoot/2/\\xe5\\x8f\\xaf\\xe8\\xa7\\x81\\xe6\\x80\\xa7\\xe4\\xbf\\xae\\xe9\\xa5\\xb0\\xe7\\xac\\xa6/1.sol\":984:1044  function attack5()public payable{... */\n            tag_9:\n              tag_33\n              tag_34\n              jump\t// in\n            tag_33:\n              stop\n                /* \"shoot/2/\\xe5\\x8f\\xaf\\xe8\\xa7\\x81\\xe6\\x80\\xa7\\xe4\\xbf\\xae\\xe9\\xa5\\xb0\\xe7\\xac\\xa6/1.sol\":1050:1160  function attack6()public payable{... */\n            tag_10:\n              tag_35\n              tag_36\n              jump\t// in\n            tag_35:\n              stop\n                /* \"shoot/2/\\xe5\\x8f\\xaf\\xe8\\xa7\\x81\\xe6\\x80\\xa7\\xe4\\xbf\\xae\\xe9\\xa5\\xb0\\xe7\\xac\\xa6/1.sol\":907:978  function attack4()public payable{... */\n            tag_13:\n                /* \"shoot/2/\\xe5\\x8f\\xaf\\xe8\\xa7\\x81\\xe6\\x80\\xa7\\xe4\\xbf\\xae\\xe9\\xa5\\xb0\\xe7\\xac\\xa6/1.sol\":950:953  fun */\n              0x00\n              dup1\n              sload\n              swap1\n              0x0100\n              exp\n              swap1\n              div\n              0xffffffffffffffffffffffffffffffffffffffff\n              and\n                /* \"shoot/2/\\xe5\\x8f\\xaf\\xe8\\xa7\\x81\\xe6\\x80\\xa7\\xe4\\xbf\\xae\\xe9\\xa5\\xb0\\xe7\\xac\\xa6/1.sol\":950:968  fun.ownerPrivalege */\n              0xffffffffffffffffffffffffffffffffffffffff\n              and\n              0x19c43a01\n                /* \"shoot/2/\\xe5\\x8f\\xaf\\xe8\\xa7\\x81\\xe6\\x80\\xa7\\xe4\\xbf\\xae\\xe9\\xa5\\xb0\\xe7\\xac\\xa6/1.sol\":950:970  fun.ownerPrivalege() */\n              mload(0x40)\n              dup2\n              0xffffffff\n              and\n              0xe0\n              shl\n              dup2\n              mstore\n              0x04\n              add\n              0x00\n              mload(0x40)\n              dup1\n              dup4\n              sub\n              dup2\n              0x00\n              dup8\n              dup1\n              extcodesize\n              iszero\n              dup1\n              iszero\n              tag_38\n              jumpi\n              0x00\n              dup1\n              revert\n            tag_38:\n              pop\n              gas\n              call\n              iszero\n              dup1\n              iszero\n              tag_40\n              jumpi\n              returndatasize\n              0x00\n              dup1\n              returndatacopy\n              revert(0x00, returndatasize)\n            tag_40:\n              pop\n              pop\n              pop\n              pop\n                /* \"shoot/2/\\xe5\\x8f\\xaf\\xe8\\xa7\\x81\\xe6\\x80\\xa7\\xe4\\xbf\\xae\\xe9\\xa5\\xb0\\xe7\\xac\\xa6/1.sol\":907:978  function attack4()public payable{... */\n              jump\t// out\n                /* \"shoot/2/\\xe5\\x8f\\xaf\\xe8\\xa7\\x81\\xe6\\x80\\xa7\\xe4\\xbf\\xae\\xe9\\xa5\\xb0\\xe7\\xac\\xa6/1.sol\":282:390  function figure()public pure returns(bytes memory){... */\n            tag_16:\n                /* \"shoot/2/\\xe5\\x8f\\xaf\\xe8\\xa7\\x81\\xe6\\x80\\xa7\\xe4\\xbf\\xae\\xe9\\xa5\\xb0\\xe7\\xac\\xa6/1.sol\":319:331  bytes memory */\n              0x60\n                /* \"shoot/2/\\xe5\\x8f\\xaf\\xe8\\xa7\\x81\\xe6\\x80\\xa7\\xe4\\xbf\\xae\\xe9\\xa5\\xb0\\xe7\\xac\\xa6/1.sol\":350:382  abi.encodeWithSignature(\"com()\") */\n              add(0x24, mload(0x40))\n              mload(0x40)\n              0x20\n              dup2\n              dup4\n              sub\n              sub\n              dup2\n              mstore\n              swap1\n              0x40\n              mstore\n              and(not(0xffffffffffffffffffffffffffffffffffffffffffffffffffffffff), 0xe09966a800000000000000000000000000000000000000000000000000000000)\n              0x20\n              dup3\n              add\n              dup1\n              mload\n              0xffffffffffffffffffffffffffffffffffffffffffffffffffffffff\n              dup4\n              dup2\n              dup4\n              and\n              or\n              dup4\n              mstore\n              pop\n              pop\n              pop\n              pop\n                /* \"shoot/2/\\xe5\\x8f\\xaf\\xe8\\xa7\\x81\\xe6\\x80\\xa7\\xe4\\xbf\\xae\\xe9\\xa5\\xb0\\xe7\\xac\\xa6/1.sol\":343:382  return abi.encodeWithSignature(\"com()\") */\n              swap1\n              pop\n                /* \"shoot/2/\\xe5\\x8f\\xaf\\xe8\\xa7\\x81\\xe6\\x80\\xa7\\xe4\\xbf\\xae\\xe9\\xa5\\xb0\\xe7\\xac\\xa6/1.sol\":282:390  function figure()public pure returns(bytes memory){... */\n              swap1\n              jump\t// out\n                /* \"shoot/2/\\xe5\\x8f\\xaf\\xe8\\xa7\\x81\\xe6\\x80\\xa7\\xe4\\xbf\\xae\\xe9\\xa5\\xb0\\xe7\\xac\\xa6/1.sol\":398:679  function attack1()public payable{... */\n            tag_20:\n                /* \"shoot/2/\\xe5\\x8f\\xaf\\xe8\\xa7\\x81\\xe6\\x80\\xa7\\xe4\\xbf\\xae\\xe9\\xa5\\xb0\\xe7\\xac\\xa6/1.sol\":442:454  bool success */\n              0x00\n                /* \"shoot/2/\\xe5\\x8f\\xaf\\xe8\\xa7\\x81\\xe6\\x80\\xa7\\xe4\\xbf\\xae\\xe9\\xa5\\xb0\\xe7\\xac\\xa6/1.sol\":465:468  fun */\n              dup1\n              0x00\n              swap1\n              sload\n              swap1\n              0x0100\n              exp\n              swap1\n              div\n              0xffffffffffffffffffffffffffffffffffffffff\n              and\n                /* \"shoot/2/\\xe5\\x8f\\xaf\\xe8\\xa7\\x81\\xe6\\x80\\xa7\\xe4\\xbf\\xae\\xe9\\xa5\\xb0\\xe7\\xac\\xa6/1.sol\":457:474  address(fun).call */\n              0xffffffffffffffffffffffffffffffffffffffff\n              and\n                /* \"shoot/2/\\xe5\\x8f\\xaf\\xe8\\xa7\\x81\\xe6\\x80\\xa7\\xe4\\xbf\\xae\\xe9\\xa5\\xb0\\xe7\\xac\\xa6/1.sol\":481:484  100 */\n              0x64\n                /* \"shoot/2/\\xe5\\x8f\\xaf\\xe8\\xa7\\x81\\xe6\\x80\\xa7\\xe4\\xbf\\xae\\xe9\\xa5\\xb0\\xe7\\xac\\xa6/1.sol\":457:489  address(fun).call{value:100}(\"\") */\n              mload(0x40)\n              tag_43\n              swap1\n              tag_44\n              jump\t// in\n            tag_43:\n              0x00\n              mload(0x40)\n              dup1\n              dup4\n              sub\n              dup2\n              dup6\n              dup8\n              gas\n              call\n              swap3\n              pop\n              pop\n              pop\n              returndatasize\n              dup1\n              0x00\n              dup2\n              eq\n              tag_47\n              jumpi\n              mload(0x40)\n              swap2\n              pop\n              and(add(returndatasize, 0x3f), not(0x1f))\n              dup3\n              add\n              0x40\n              mstore\n              returndatasize\n              dup3\n              mstore\n              returndatasize\n              0x00\n              0x20\n              dup5\n              add\n              returndatacopy\n              jump(tag_46)\n            tag_47:\n              0x60\n              swap2\n              pop\n            tag_46:\n              pop\n                /* \"shoot/2/\\xe5\\x8f\\xaf\\xe8\\xa7\\x81\\xe6\\x80\\xa7\\xe4\\xbf\\xae\\xe9\\xa5\\xb0\\xe7\\xac\\xa6/1.sol\":441:489  (bool success,)=address(fun).call{value:100}(\"\") */\n              pop\n              swap1\n              pop\n                /* \"shoot/2/\\xe5\\x8f\\xaf\\xe8\\xa7\\x81\\xe6\\x80\\xa7\\xe4\\xbf\\xae\\xe9\\xa5\\xb0\\xe7\\xac\\xa6/1.sol\":508:515  success */\n              dup1\n                /* \"shoot/2/\\xe5\\x8f\\xaf\\xe8\\xa7\\x81\\xe6\\x80\\xa7\\xe4\\xbf\\xae\\xe9\\xa5\\xb0\\xe7\\xac\\xa6/1.sol\":500:530  require(success,\"call failed\") */\n              tag_48\n              jumpi\n              mload(0x40)\n              0x08c379a000000000000000000000000000000000000000000000000000000000\n              dup2\n              mstore\n              0x04\n              add\n              tag_49\n              swap1\n              tag_50\n              jump\t// in\n            tag_49:\n              mload(0x40)\n              dup1\n              swap2\n              sub\n              swap1\n              revert\n            tag_48:\n                /* \"shoot/2/\\xe5\\x8f\\xaf\\xe8\\xa7\\x81\\xe6\\x80\\xa7\\xe4\\xbf\\xae\\xe9\\xa5\\xb0\\xe7\\xac\\xa6/1.sol\":541:544  fun */\n              0x00\n              dup1\n              sload\n              swap1\n              0x0100\n              exp\n              swap1\n              div\n              0xffffffffffffffffffffffffffffffffffffffff\n              and\n                /* \"shoot/2/\\xe5\\x8f\\xaf\\xe8\\xa7\\x81\\xe6\\x80\\xa7\\xe4\\xbf\\xae\\xe9\\xa5\\xb0\\xe7\\xac\\xa6/1.sol\":541:548  fun.pul */\n              0xffffffffffffffffffffffffffffffffffffffff\n              and\n              0xc58a455b\n                /* \"shoot/2/\\xe5\\x8f\\xaf\\xe8\\xa7\\x81\\xe6\\x80\\xa7\\xe4\\xbf\\xae\\xe9\\xa5\\xb0\\xe7\\xac\\xa6/1.sol\":541:550  fun.pul() */\n              mload(0x40)\n              dup2\n              0xffffffff\n              and\n              0xe0\n              shl\n              dup2\n              mstore\n              0x04\n              add\n              0x00\n              mload(0x40)\n              dup1\n              dup4\n              sub\n              dup2\n              0x00\n              dup8\n              dup1\n              extcodesize\n              iszero\n              dup1\n              iszero\n              tag_51\n              jumpi\n              0x00\n              dup1\n              revert\n            tag_51:\n              pop\n              gas\n              call\n              iszero\n              dup1\n              iszero\n              tag_53\n              jumpi\n              returndatasize\n              0x00\n              dup1\n              returndatacopy\n              revert(0x00, returndatasize)\n            tag_53:\n              pop\n              pop\n              pop\n              pop\n                /* \"shoot/2/\\xe5\\x8f\\xaf\\xe8\\xa7\\x81\\xe6\\x80\\xa7\\xe4\\xbf\\xae\\xe9\\xa5\\xb0\\xe7\\xac\\xa6/1.sol\":561:564  fun */\n              0x00\n              dup1\n              sload\n              swap1\n              0x0100\n              exp\n              swap1\n              div\n              0xffffffffffffffffffffffffffffffffffffffff\n              and\n                /* \"shoot/2/\\xe5\\x8f\\xaf\\xe8\\xa7\\x81\\xe6\\x80\\xa7\\xe4\\xbf\\xae\\xe9\\xa5\\xb0\\xe7\\xac\\xa6/1.sol\":561:579  fun.ownerPrivalege */\n              0xffffffffffffffffffffffffffffffffffffffff\n              and\n              0x19c43a01\n                /* \"shoot/2/\\xe5\\x8f\\xaf\\xe8\\xa7\\x81\\xe6\\x80\\xa7\\xe4\\xbf\\xae\\xe9\\xa5\\xb0\\xe7\\xac\\xa6/1.sol\":561:581  fun.ownerPrivalege() */\n              mload(0x40)\n              dup2\n              0xffffffff\n              and\n              0xe0\n              shl\n              dup2\n              mstore\n              0x04\n              add\n              0x00\n              mload(0x40)\n              dup1\n              dup4\n              sub\n              dup2\n              0x00\n              dup8\n              dup1\n              extcodesize\n              iszero\n              dup1\n              iszero\n              tag_54\n              jumpi\n              0x00\n              dup1\n              revert\n            tag_54:\n              pop\n              gas\n              call\n              iszero\n              dup1\n              iszero\n              tag_56\n              jumpi\n              returndatasize\n              0x00\n              dup1\n              returndatacopy\n              revert(0x00, returndatasize)\n            tag_56:\n              pop\n              pop\n              pop\n              pop\n                /* \"shoot/2/\\xe5\\x8f\\xaf\\xe8\\xa7\\x81\\xe6\\x80\\xa7\\xe4\\xbf\\xae\\xe9\\xa5\\xb0\\xe7\\xac\\xa6/1.sol\":592:595  fun */\n              0x00\n              dup1\n              sload\n              swap1\n              0x0100\n              exp\n              swap1\n              div\n              0xffffffffffffffffffffffffffffffffffffffff\n              and\n                /* \"shoot/2/\\xe5\\x8f\\xaf\\xe8\\xa7\\x81\\xe6\\x80\\xa7\\xe4\\xbf\\xae\\xe9\\xa5\\xb0\\xe7\\xac\\xa6/1.sol\":592:599  fun.ext */\n              0xffffffffffffffffffffffffffffffffffffffff\n              and\n              0xcf9f23b5\n                /* \"shoot/2/\\xe5\\x8f\\xaf\\xe8\\xa7\\x81\\xe6\\x80\\xa7\\xe4\\xbf\\xae\\xe9\\xa5\\xb0\\xe7\\xac\\xa6/1.sol\":592:601  fun.ext() */\n              mload(0x40)\n              dup2\n              0xffffffff\n              and\n              0xe0\n              shl\n              dup2\n              mstore\n              0x04\n              add\n              0x00\n              mload(0x40)\n              dup1\n              dup4\n              sub\n              dup2\n              0x00\n              dup8\n              dup1\n              extcodesize\n              iszero\n              dup1\n              iszero\n              tag_57\n              jumpi\n              0x00\n              dup1\n              revert\n            tag_57:\n              pop\n              gas\n              call\n              iszero\n              dup1\n              iszero\n              tag_59\n              jumpi\n              returndatasize\n              0x00\n              dup1\n              returndatacopy\n              revert(0x00, returndatasize)\n            tag_59:\n              pop\n              pop\n              pop\n              pop\n                /* \"shoot/2/\\xe5\\x8f\\xaf\\xe8\\xa7\\x81\\xe6\\x80\\xa7\\xe4\\xbf\\xae\\xe9\\xa5\\xb0\\xe7\\xac\\xa6/1.sol\":612:615  fun */\n              0x00\n              dup1\n              sload\n              swap1\n              0x0100\n              exp\n              swap1\n              div\n              0xffffffffffffffffffffffffffffffffffffffff\n              and\n                /* \"shoot/2/\\xe5\\x8f\\xaf\\xe8\\xa7\\x81\\xe6\\x80\\xa7\\xe4\\xbf\\xae\\xe9\\xa5\\xb0\\xe7\\xac\\xa6/1.sol\":612:625  fun.flashLoan */\n              0xffffffffffffffffffffffffffffffffffffffff\n              and\n              0xe0232b42\n                /* \"shoot/2/\\xe5\\x8f\\xaf\\xe8\\xa7\\x81\\xe6\\x80\\xa7\\xe4\\xbf\\xae\\xe9\\xa5\\xb0\\xe7\\xac\\xa6/1.sol\":634:637  fun */\n              0x00\n              dup1\n              sload\n              swap1\n              0x0100\n              exp\n              swap1\n              div\n              0xffffffffffffffffffffffffffffffffffffffff\n              and\n                /* \"shoot/2/\\xe5\\x8f\\xaf\\xe8\\xa7\\x81\\xe6\\x80\\xa7\\xe4\\xbf\\xae\\xe9\\xa5\\xb0\\xe7\\xac\\xa6/1.sol\":639:640  0 */\n              0x00\n                /* \"shoot/2/\\xe5\\x8f\\xaf\\xe8\\xa7\\x81\\xe6\\x80\\xa7\\xe4\\xbf\\xae\\xe9\\xa5\\xb0\\xe7\\xac\\xa6/1.sol\":641:649  figure() */\n              tag_60\n                /* \"shoot/2/\\xe5\\x8f\\xaf\\xe8\\xa7\\x81\\xe6\\x80\\xa7\\xe4\\xbf\\xae\\xe9\\xa5\\xb0\\xe7\\xac\\xa6/1.sol\":641:647  figure */\n              tag_16\n                /* \"shoot/2/\\xe5\\x8f\\xaf\\xe8\\xa7\\x81\\xe6\\x80\\xa7\\xe4\\xbf\\xae\\xe9\\xa5\\xb0\\xe7\\xac\\xa6/1.sol\":641:649  figure() */\n              jump\t// in\n            tag_60:\n                /* \"shoot/2/\\xe5\\x8f\\xaf\\xe8\\xa7\\x81\\xe6\\x80\\xa7\\xe4\\xbf\\xae\\xe9\\xa5\\xb0\\xe7\\xac\\xa6/1.sol\":612:650  fun.flashLoan(address(fun),0,figure()) */\n              mload(0x40)\n              dup5\n              0xffffffff\n              and\n              0xe0\n              shl\n              dup2\n              mstore\n              0x04\n              add\n              tag_61\n              swap4\n              swap3\n              swap2\n              swap1\n              tag_62\n              jump\t// in\n            tag_61:\n              0x00\n              mload(0x40)\n              dup1\n              dup4\n              sub\n              dup2\n              0x00\n              dup8\n              dup1\n              extcodesize\n              iszero\n              dup1\n              iszero\n              tag_63\n              jumpi\n              0x00\n              dup1\n              revert\n            tag_63:\n              pop\n              gas\n              call\n              iszero\n              dup1\n              iszero\n              tag_65\n              jumpi\n              returndatasize\n              0x00\n              dup1\n              returndatacopy\n              revert(0x00, returndatasize)\n            tag_65:\n              pop\n              pop\n              pop\n              pop\n                /* \"shoot/2/\\xe5\\x8f\\xaf\\xe8\\xa7\\x81\\xe6\\x80\\xa7\\xe4\\xbf\\xae\\xe9\\xa5\\xb0\\xe7\\xac\\xa6/1.sol\":661:671  complete() */\n              tag_66\n                /* \"shoot/2/\\xe5\\x8f\\xaf\\xe8\\xa7\\x81\\xe6\\x80\\xa7\\xe4\\xbf\\xae\\xe9\\xa5\\xb0\\xe7\\xac\\xa6/1.sol\":661:669  complete */\n              tag_23\n                /* \"shoot/2/\\xe5\\x8f\\xaf\\xe8\\xa7\\x81\\xe6\\x80\\xa7\\xe4\\xbf\\xae\\xe9\\xa5\\xb0\\xe7\\xac\\xa6/1.sol\":661:671  complete() */\n              jump\t// in\n            tag_66:\n                /* \"shoot/2/\\xe5\\x8f\\xaf\\xe8\\xa7\\x81\\xe6\\x80\\xa7\\xe4\\xbf\\xae\\xe9\\xa5\\xb0\\xe7\\xac\\xa6/1.sol\":430:679  {... */\n              pop\n                /* \"shoot/2/\\xe5\\x8f\\xaf\\xe8\\xa7\\x81\\xe6\\x80\\xa7\\xe4\\xbf\\xae\\xe9\\xa5\\xb0\\xe7\\xac\\xa6/1.sol\":398:679  function attack1()public payable{... */\n              jump\t// out\n                /* \"shoot/2/\\xe5\\x8f\\xaf\\xe8\\xa7\\x81\\xe6\\x80\\xa7\\xe4\\xbf\\xae\\xe9\\xa5\\xb0\\xe7\\xac\\xa6/1.sol\":1166:1227  function complete()public{... */\n            tag_23:\n                /* \"shoot/2/\\xe5\\x8f\\xaf\\xe8\\xa7\\x81\\xe6\\x80\\xa7\\xe4\\xbf\\xae\\xe9\\xa5\\xb0\\xe7\\xac\\xa6/1.sol\":1202:1205  fun */\n              0x00\n              dup1\n              sload\n              swap1\n              0x0100\n              exp\n              swap1\n              div\n              0xffffffffffffffffffffffffffffffffffffffff\n              and\n                /* \"shoot/2/\\xe5\\x8f\\xaf\\xe8\\xa7\\x81\\xe6\\x80\\xa7\\xe4\\xbf\\xae\\xe9\\xa5\\xb0\\xe7\\xac\\xa6/1.sol\":1202:1217  fun.isCompleted */\n              0xffffffffffffffffffffffffffffffffffffffff\n              and\n              0xfa391c64\n                /* \"shoot/2/\\xe5\\x8f\\xaf\\xe8\\xa7\\x81\\xe6\\x80\\xa7\\xe4\\xbf\\xae\\xe9\\xa5\\xb0\\xe7\\xac\\xa6/1.sol\":1202:1219  fun.isCompleted() */\n              mload(0x40)\n              dup2\n              0xffffffff\n              and\n              0xe0\n              shl\n              dup2\n              mstore\n              0x04\n              add\n              0x00\n              mload(0x40)\n              dup1\n              dup4\n              sub\n              dup2\n              0x00\n              dup8\n              dup1\n              extcodesize\n              iszero\n              dup1\n              iszero\n              tag_68\n              jumpi\n              0x00\n              dup1\n              revert\n            tag_68:\n              pop\n              gas\n              call\n              iszero\n              dup1\n              iszero\n              tag_70\n              jumpi\n              returndatasize\n              0x00\n              dup1\n              returndatacopy\n              revert(0x00, returndatasize)\n            tag_70:\n              pop\n              pop\n              pop\n              pop\n                /* \"shoot/2/\\xe5\\x8f\\xaf\\xe8\\xa7\\x81\\xe6\\x80\\xa7\\xe4\\xbf\\xae\\xe9\\xa5\\xb0\\xe7\\xac\\xa6/1.sol\":1166:1227  function complete()public{... */\n              jump\t// out\n                /* \"shoot/2/\\xe5\\x8f\\xaf\\xe8\\xa7\\x81\\xe6\\x80\\xa7\\xe4\\xbf\\xae\\xe9\\xa5\\xb0\\xe7\\xac\\xa6/1.sol\":183:199  check public fun */\n            tag_26:\n              0x00\n              dup1\n              sload\n              swap1\n              0x0100\n              exp\n              swap1\n              div\n              0xffffffffffffffffffffffffffffffffffffffff\n              and\n              dup2\n              jump\t// out\n                /* \"shoot/2/\\xe5\\x8f\\xaf\\xe8\\xa7\\x81\\xe6\\x80\\xa7\\xe4\\xbf\\xae\\xe9\\xa5\\xb0\\xe7\\xac\\xa6/1.sol\":685:825  function attack2()public payable{... */\n            tag_30:\n                /* \"shoot/2/\\xe5\\x8f\\xaf\\xe8\\xa7\\x81\\xe6\\x80\\xa7\\xe4\\xbf\\xae\\xe9\\xa5\\xb0\\xe7\\xac\\xa6/1.sol\":729:741  bool success */\n              0x00\n                /* \"shoot/2/\\xe5\\x8f\\xaf\\xe8\\xa7\\x81\\xe6\\x80\\xa7\\xe4\\xbf\\xae\\xe9\\xa5\\xb0\\xe7\\xac\\xa6/1.sol\":752:755  fun */\n              dup1\n              0x00\n              swap1\n              sload\n              swap1\n              0x0100\n              exp\n              swap1\n              div\n              0xffffffffffffffffffffffffffffffffffffffff\n              and\n                /* \"shoot/2/\\xe5\\x8f\\xaf\\xe8\\xa7\\x81\\xe6\\x80\\xa7\\xe4\\xbf\\xae\\xe9\\xa5\\xb0\\xe7\\xac\\xa6/1.sol\":744:761  address(fun).call */\n              0xffffffffffffffffffffffffffffffffffffffff\n              and\n                /* \"shoot/2/\\xe5\\x8f\\xaf\\xe8\\xa7\\x81\\xe6\\x80\\xa7\\xe4\\xbf\\xae\\xe9\\xa5\\xb0\\xe7\\xac\\xa6/1.sol\":768:771  100 */\n              0x64\n                /* \"shoot/2/\\xe5\\x8f\\xaf\\xe8\\xa7\\x81\\xe6\\x80\\xa7\\xe4\\xbf\\xae\\xe9\\xa5\\xb0\\xe7\\xac\\xa6/1.sol\":744:776  address(fun).call{value:100}(\"\") */\n              mload(0x40)\n              tag_72\n              swap1\n              tag_44\n              jump\t// in\n            tag_72:\n              0x00\n              mload(0x40)\n              dup1\n              dup4\n              sub\n              dup2\n              dup6\n              dup8\n              gas\n              call\n              swap3\n              pop\n              pop\n              pop\n              returndatasize\n              dup1\n              0x00\n              dup2\n              eq\n              tag_75\n              jumpi\n              mload(0x40)\n              swap2\n              pop\n              and(add(returndatasize, 0x3f), not(0x1f))\n              dup3\n              add\n              0x40\n              mstore\n              returndatasize\n              dup3\n              mstore\n              returndatasize\n              0x00\n              0x20\n              dup5\n              add\n              returndatacopy\n              jump(tag_74)\n            tag_75:\n              0x60\n              swap2\n              pop\n            tag_74:\n              pop\n                /* \"shoot/2/\\xe5\\x8f\\xaf\\xe8\\xa7\\x81\\xe6\\x80\\xa7\\xe4\\xbf\\xae\\xe9\\xa5\\xb0\\xe7\\xac\\xa6/1.sol\":728:776  (bool success,)=address(fun).call{value:100}(\"\") */\n              pop\n              swap1\n              pop\n                /* \"shoot/2/\\xe5\\x8f\\xaf\\xe8\\xa7\\x81\\xe6\\x80\\xa7\\xe4\\xbf\\xae\\xe9\\xa5\\xb0\\xe7\\xac\\xa6/1.sol\":795:802  success */\n              dup1\n                /* \"shoot/2/\\xe5\\x8f\\xaf\\xe8\\xa7\\x81\\xe6\\x80\\xa7\\xe4\\xbf\\xae\\xe9\\xa5\\xb0\\xe7\\xac\\xa6/1.sol\":787:817  require(success,\"call failed\") */\n              tag_76\n              jumpi\n              mload(0x40)\n              0x08c379a000000000000000000000000000000000000000000000000000000000\n              dup2\n              mstore\n              0x04\n              add\n              tag_77\n              swap1\n              tag_50\n              jump\t// in\n            tag_77:\n              mload(0x40)\n              dup1\n              swap2\n              sub\n              swap1\n              revert\n            tag_76:\n                /* \"shoot/2/\\xe5\\x8f\\xaf\\xe8\\xa7\\x81\\xe6\\x80\\xa7\\xe4\\xbf\\xae\\xe9\\xa5\\xb0\\xe7\\xac\\xa6/1.sol\":717:825  {... */\n              pop\n                /* \"shoot/2/\\xe5\\x8f\\xaf\\xe8\\xa7\\x81\\xe6\\x80\\xa7\\xe4\\xbf\\xae\\xe9\\xa5\\xb0\\xe7\\xac\\xa6/1.sol\":685:825  function attack2()public payable{... */\n              jump\t// out\n                /* \"shoot/2/\\xe5\\x8f\\xaf\\xe8\\xa7\\x81\\xe6\\x80\\xa7\\xe4\\xbf\\xae\\xe9\\xa5\\xb0\\xe7\\xac\\xa6/1.sol\":831:901  function attack3()public payable{... */\n            tag_32:\n                /* \"shoot/2/\\xe5\\x8f\\xaf\\xe8\\xa7\\x81\\xe6\\x80\\xa7\\xe4\\xbf\\xae\\xe9\\xa5\\xb0\\xe7\\xac\\xa6/1.sol\":874:877  fun */\n              0x00\n              dup1\n              sload\n              swap1\n              0x0100\n              exp\n              swap1\n              div\n              0xffffffffffffffffffffffffffffffffffffffff\n              and\n                /* \"shoot/2/\\xe5\\x8f\\xaf\\xe8\\xa7\\x81\\xe6\\x80\\xa7\\xe4\\xbf\\xae\\xe9\\xa5\\xb0\\xe7\\xac\\xa6/1.sol\":874:881  fun.pul */\n              0xffffffffffffffffffffffffffffffffffffffff\n              and\n              0xc58a455b\n                /* \"shoot/2/\\xe5\\x8f\\xaf\\xe8\\xa7\\x81\\xe6\\x80\\xa7\\xe4\\xbf\\xae\\xe9\\xa5\\xb0\\xe7\\xac\\xa6/1.sol\":874:883  fun.pul() */\n              mload(0x40)\n              dup2\n              0xffffffff\n              and\n              0xe0\n              shl\n              dup2\n              mstore\n              0x04\n              add\n              0x00\n              mload(0x40)\n              dup1\n              dup4\n              sub\n              dup2\n              0x00\n              dup8\n              dup1\n              extcodesize\n              iszero\n              dup1\n              iszero\n              tag_79\n              jumpi\n              0x00\n              dup1\n              revert\n            tag_79:\n              pop\n              gas\n              call\n              iszero\n              dup1\n              iszero\n              tag_81\n              jumpi\n              returndatasize\n              0x00\n              dup1\n              returndatacopy\n              revert(0x00, returndatasize)\n            tag_81:\n              pop\n              pop\n              pop\n              pop\n                /* \"shoot/2/\\xe5\\x8f\\xaf\\xe8\\xa7\\x81\\xe6\\x80\\xa7\\xe4\\xbf\\xae\\xe9\\xa5\\xb0\\xe7\\xac\\xa6/1.sol\":831:901  function attack3()public payable{... */\n              jump\t// out\n                /* \"shoot/2/\\xe5\\x8f\\xaf\\xe8\\xa7\\x81\\xe6\\x80\\xa7\\xe4\\xbf\\xae\\xe9\\xa5\\xb0\\xe7\\xac\\xa6/1.sol\":984:1044  function attack5()public payable{... */\n            tag_34:\n                /* \"shoot/2/\\xe5\\x8f\\xaf\\xe8\\xa7\\x81\\xe6\\x80\\xa7\\xe4\\xbf\\xae\\xe9\\xa5\\xb0\\xe7\\xac\\xa6/1.sol\":1027:1030  fun */\n              0x00\n              dup1\n              sload\n              swap1\n              0x0100\n              exp\n              swap1\n              div\n              0xffffffffffffffffffffffffffffffffffffffff\n              and\n                /* \"shoot/2/\\xe5\\x8f\\xaf\\xe8\\xa7\\x81\\xe6\\x80\\xa7\\xe4\\xbf\\xae\\xe9\\xa5\\xb0\\xe7\\xac\\xa6/1.sol\":1027:1034  fun.ext */\n              0xffffffffffffffffffffffffffffffffffffffff\n              and\n              0xcf9f23b5\n                /* \"shoot/2/\\xe5\\x8f\\xaf\\xe8\\xa7\\x81\\xe6\\x80\\xa7\\xe4\\xbf\\xae\\xe9\\xa5\\xb0\\xe7\\xac\\xa6/1.sol\":1027:1036  fun.ext() */\n              mload(0x40)\n              dup2\n              0xffffffff\n              and\n              0xe0\n              shl\n              dup2\n              mstore\n              0x04\n              add\n              0x00\n              mload(0x40)\n              dup1\n              dup4\n              sub\n              dup2\n              0x00\n              dup8\n              dup1\n              extcodesize\n              iszero\n              dup1\n              iszero\n              tag_83\n              jumpi\n              0x00\n              dup1\n              revert\n            tag_83:\n              pop\n              gas\n              call\n              iszero\n              dup1\n              iszero\n              tag_85\n              jumpi\n              returndatasize\n              0x00\n              dup1\n              returndatacopy\n              revert(0x00, returndatasize)\n            tag_85:\n              pop\n              pop\n              pop\n              pop\n                /* \"shoot/2/\\xe5\\x8f\\xaf\\xe8\\xa7\\x81\\xe6\\x80\\xa7\\xe4\\xbf\\xae\\xe9\\xa5\\xb0\\xe7\\xac\\xa6/1.sol\":984:1044  function attack5()public payable{... */\n              jump\t// out\n                /* \"shoot/2/\\xe5\\x8f\\xaf\\xe8\\xa7\\x81\\xe6\\x80\\xa7\\xe4\\xbf\\xae\\xe9\\xa5\\xb0\\xe7\\xac\\xa6/1.sol\":1050:1160  function attack6()public payable{... */\n            tag_36:\n                /* \"shoot/2/\\xe5\\x8f\\xaf\\xe8\\xa7\\x81\\xe6\\x80\\xa7\\xe4\\xbf\\xae\\xe9\\xa5\\xb0\\xe7\\xac\\xa6/1.sol\":1093:1096  fun */\n              0x00\n              dup1\n              sload\n              swap1\n              0x0100\n              exp\n              swap1\n              div\n              0xffffffffffffffffffffffffffffffffffffffff\n              and\n                /* \"shoot/2/\\xe5\\x8f\\xaf\\xe8\\xa7\\x81\\xe6\\x80\\xa7\\xe4\\xbf\\xae\\xe9\\xa5\\xb0\\xe7\\xac\\xa6/1.sol\":1093:1106  fun.flashLoan */\n              0xffffffffffffffffffffffffffffffffffffffff\n              and\n              0xe0232b42\n                /* \"shoot/2/\\xe5\\x8f\\xaf\\xe8\\xa7\\x81\\xe6\\x80\\xa7\\xe4\\xbf\\xae\\xe9\\xa5\\xb0\\xe7\\xac\\xa6/1.sol\":1115:1118  fun */\n              0x00\n              dup1\n              sload\n              swap1\n              0x0100\n              exp\n              swap1\n              div\n              0xffffffffffffffffffffffffffffffffffffffff\n              and\n                /* \"shoot/2/\\xe5\\x8f\\xaf\\xe8\\xa7\\x81\\xe6\\x80\\xa7\\xe4\\xbf\\xae\\xe9\\xa5\\xb0\\xe7\\xac\\xa6/1.sol\":1120:1121  0 */\n              0x00\n                /* \"shoot/2/\\xe5\\x8f\\xaf\\xe8\\xa7\\x81\\xe6\\x80\\xa7\\xe4\\xbf\\xae\\xe9\\xa5\\xb0\\xe7\\xac\\xa6/1.sol\":1122:1130  figure() */\n              tag_87\n                /* \"shoot/2/\\xe5\\x8f\\xaf\\xe8\\xa7\\x81\\xe6\\x80\\xa7\\xe4\\xbf\\xae\\xe9\\xa5\\xb0\\xe7\\xac\\xa6/1.sol\":1122:1128  figure */\n              tag_16\n                /* \"shoot/2/\\xe5\\x8f\\xaf\\xe8\\xa7\\x81\\xe6\\x80\\xa7\\xe4\\xbf\\xae\\xe9\\xa5\\xb0\\xe7\\xac\\xa6/1.sol\":1122:1130  figure() */\n              jump\t// in\n            tag_87:\n                /* \"shoot/2/\\xe5\\x8f\\xaf\\xe8\\xa7\\x81\\xe6\\x80\\xa7\\xe4\\xbf\\xae\\xe9\\xa5\\xb0\\xe7\\xac\\xa6/1.sol\":1093:1131  fun.flashLoan(address(fun),0,figure()) */\n              mload(0x40)\n              dup5\n              0xffffffff\n              and\n              0xe0\n              shl\n              dup2\n              mstore\n              0x04\n              add\n              tag_88\n              swap4\n              swap3\n              swap2\n              swap1\n              tag_62\n              jump\t// in\n            tag_88:\n              0x00\n              mload(0x40)\n              dup1\n              dup4\n              sub\n              dup2\n              0x00\n              dup8\n              dup1\n              extcodesize\n              iszero\n              dup1\n              iszero\n              tag_89\n              jumpi\n              0x00\n              dup1\n              revert\n            tag_89:\n              pop\n              gas\n              call\n              iszero\n              dup1\n              iszero\n              tag_91\n              jumpi\n              returndatasize\n              0x00\n              dup1\n              returndatacopy\n              revert(0x00, returndatasize)\n            tag_91:\n              pop\n              pop\n              pop\n              pop\n                /* \"shoot/2/\\xe5\\x8f\\xaf\\xe8\\xa7\\x81\\xe6\\x80\\xa7\\xe4\\xbf\\xae\\xe9\\xa5\\xb0\\xe7\\xac\\xa6/1.sol\":1142:1152  complete() */\n              tag_92\n                /* \"shoot/2/\\xe5\\x8f\\xaf\\xe8\\xa7\\x81\\xe6\\x80\\xa7\\xe4\\xbf\\xae\\xe9\\xa5\\xb0\\xe7\\xac\\xa6/1.sol\":1142:1150  complete */\n              tag_23\n                /* \"shoot/2/\\xe5\\x8f\\xaf\\xe8\\xa7\\x81\\xe6\\x80\\xa7\\xe4\\xbf\\xae\\xe9\\xa5\\xb0\\xe7\\xac\\xa6/1.sol\":1142:1152  complete() */\n              jump\t// in\n            tag_92:\n                /* \"shoot/2/\\xe5\\x8f\\xaf\\xe8\\xa7\\x81\\xe6\\x80\\xa7\\xe4\\xbf\\xae\\xe9\\xa5\\xb0\\xe7\\xac\\xa6/1.sol\":1050:1160  function attack6()public payable{... */\n              jump\t// out\n                /* \"#utility.yul\":7:105   */\n            tag_93:\n                /* \"#utility.yul\":58:64   */\n              0x00\n                /* \"#utility.yul\":92:97   */\n              dup2\n                /* \"#utility.yul\":86:98   */\n              mload\n                /* \"#utility.yul\":76:98   */\n              swap1\n              pop\n                /* \"#utility.yul\":7:105   */\n              swap2\n              swap1\n              pop\n              jump\t// out\n                /* \"#utility.yul\":111:279   */\n            tag_94:\n                /* \"#utility.yul\":194:205   */\n              0x00\n                /* \"#utility.yul\":228:234   */\n              dup3\n                /* \"#utility.yul\":223:226   */\n              dup3\n                /* \"#utility.yul\":216:235   */\n              mstore\n                /* \"#utility.yul\":268:272   */\n              0x20\n                /* \"#utility.yul\":263:266   */\n              dup3\n                /* \"#utility.yul\":259:273   */\n              add\n                /* \"#utility.yul\":244:273   */\n              swap1\n              pop\n                /* \"#utility.yul\":111:279   */\n              swap3\n              swap2\n              pop\n              pop\n              jump\t// out\n                /* \"#utility.yul\":285:531   */\n            tag_95:\n                /* \"#utility.yul\":366:367   */\n              0x00\n                /* \"#utility.yul\":376:489   */\n            tag_120:\n                /* \"#utility.yul\":390:396   */\n              dup4\n                /* \"#utility.yul\":387:388   */\n              dup2\n                /* \"#utility.yul\":384:397   */\n              lt\n                /* \"#utility.yul\":376:489   */\n              iszero\n              tag_122\n              jumpi\n                /* \"#utility.yul\":475:476   */\n              dup1\n                /* \"#utility.yul\":470:473   */\n              dup3\n                /* \"#utility.yul\":466:477   */\n              add\n                /* \"#utility.yul\":460:478   */\n              mload\n                /* \"#utility.yul\":456:457   */\n              dup2\n                /* \"#utility.yul\":451:454   */\n              dup5\n                /* \"#utility.yul\":447:458   */\n              add\n                /* \"#utility.yul\":440:479   */\n              mstore\n                /* \"#utility.yul\":412:414   */\n              0x20\n                /* \"#utility.yul\":409:410   */\n              dup2\n                /* \"#utility.yul\":405:415   */\n              add\n                /* \"#utility.yul\":400:415   */\n              swap1\n              pop\n                /* \"#utility.yul\":376:489   */\n              jump(tag_120)\n            tag_122:\n                /* \"#utility.yul\":523:524   */\n              0x00\n                /* \"#utility.yul\":514:520   */\n              dup5\n                /* \"#utility.yul\":509:512   */\n              dup5\n                /* \"#utility.yul\":505:521   */\n              add\n                /* \"#utility.yul\":498:525   */\n              mstore\n                /* \"#utility.yul\":347:531   */\n              pop\n                /* \"#utility.yul\":285:531   */\n              pop\n              pop\n              pop\n              jump\t// out\n                /* \"#utility.yul\":537:639   */\n            tag_96:\n                /* \"#utility.yul\":578:584   */\n              0x00\n                /* \"#utility.yul\":629:631   */\n              0x1f\n                /* \"#utility.yul\":625:632   */\n              not\n                /* \"#utility.yul\":620:622   */\n              0x1f\n                /* \"#utility.yul\":613:618   */\n              dup4\n                /* \"#utility.yul\":609:623   */\n              add\n                /* \"#utility.yul\":605:633   */\n              and\n                /* \"#utility.yul\":595:633   */\n              swap1\n              pop\n                /* \"#utility.yul\":537:639   */\n              swap2\n              swap1\n              pop\n              jump\t// out\n                /* \"#utility.yul\":645:1018   */\n            tag_97:\n                /* \"#utility.yul\":731:734   */\n              0x00\n                /* \"#utility.yul\":759:797   */\n              tag_125\n                /* \"#utility.yul\":791:796   */\n              dup3\n                /* \"#utility.yul\":759:797   */\n              tag_93\n              jump\t// in\n            tag_125:\n                /* \"#utility.yul\":813:883   */\n              tag_126\n                /* \"#utility.yul\":876:882   */\n              dup2\n                /* \"#utility.yul\":871:874   */\n              dup6\n                /* \"#utility.yul\":813:883   */\n              tag_94\n              jump\t// in\n            tag_126:\n                /* \"#utility.yul\":806:883   */\n              swap4\n              pop\n                /* \"#utility.yul\":892:957   */\n              tag_127\n                /* \"#utility.yul\":950:956   */\n              dup2\n                /* \"#utility.yul\":945:948   */\n              dup6\n                /* \"#utility.yul\":938:942   */\n              0x20\n                /* \"#utility.yul\":931:936   */\n              dup7\n                /* \"#utility.yul\":927:943   */\n              add\n                /* \"#utility.yul\":892:957   */\n              tag_95\n              jump\t// in\n            tag_127:\n                /* \"#utility.yul\":982:1011   */\n              tag_128\n                /* \"#utility.yul\":1004:1010   */\n              dup2\n                /* \"#utility.yul\":982:1011   */\n              tag_96\n              jump\t// in\n            tag_128:\n                /* \"#utility.yul\":977:980   */\n              dup5\n                /* \"#utility.yul\":973:1012   */\n              add\n                /* \"#utility.yul\":966:1012   */\n              swap2\n              pop\n                /* \"#utility.yul\":735:1018   */\n              pop\n                /* \"#utility.yul\":645:1018   */\n              swap3\n              swap2\n              pop\n              pop\n              jump\t// out\n                /* \"#utility.yul\":1024:1333   */\n            tag_18:\n                /* \"#utility.yul\":1135:1139   */\n              0x00\n                /* \"#utility.yul\":1173:1175   */\n              0x20\n                /* \"#utility.yul\":1162:1171   */\n              dup3\n                /* \"#utility.yul\":1158:1176   */\n              add\n                /* \"#utility.yul\":1150:1176   */\n              swap1\n              pop\n                /* \"#utility.yul\":1222:1231   */\n              dup2\n                /* \"#utility.yul\":1216:1220   */\n              dup2\n                /* \"#utility.yul\":1212:1232   */\n              sub\n                /* \"#utility.yul\":1208:1209   */\n              0x00\n                /* \"#utility.yul\":1197:1206   */\n              dup4\n                /* \"#utility.yul\":1193:1210   */\n              add\n                /* \"#utility.yul\":1186:1233   */\n              mstore\n                /* \"#utility.yul\":1250:1326   */\n              tag_130\n                /* \"#utility.yul\":1321:1325   */\n              dup2\n                /* \"#utility.yul\":1312:1318   */\n              dup5\n                /* \"#utility.yul\":1250:1326   */\n              tag_97\n              jump\t// in\n            tag_130:\n                /* \"#utility.yul\":1242:1326   */\n              swap1\n              pop\n                /* \"#utility.yul\":1024:1333   */\n              swap3\n              swap2\n              pop\n              pop\n              jump\t// out\n                /* \"#utility.yul\":1339:1465   */\n            tag_98:\n                /* \"#utility.yul\":1376:1383   */\n              0x00\n                /* \"#utility.yul\":1416:1458   */\n              0xffffffffffffffffffffffffffffffffffffffff\n                /* \"#utility.yul\":1409:1414   */\n              dup3\n                /* \"#utility.yul\":1405:1459   */\n              and\n                /* \"#utility.yul\":1394:1459   */\n              swap1\n              pop\n                /* \"#utility.yul\":1339:1465   */\n              swap2\n              swap1\n              pop\n              jump\t// out\n                /* \"#utility.yul\":1471:1531   */\n            tag_99:\n                /* \"#utility.yul\":1499:1502   */\n              0x00\n                /* \"#utility.yul\":1520:1525   */\n              dup2\n                /* \"#utility.yul\":1513:1525   */\n              swap1\n              pop\n                /* \"#utility.yul\":1471:1531   */\n              swap2\n              swap1\n              pop\n              jump\t// out\n                /* \"#utility.yul\":1537:1679   */\n            tag_100:\n                /* \"#utility.yul\":1587:1596   */\n              0x00\n                /* \"#utility.yul\":1620:1673   */\n              tag_134\n                /* \"#utility.yul\":1638:1672   */\n              tag_135\n                /* \"#utility.yul\":1647:1671   */\n              tag_136\n                /* \"#utility.yul\":1665:1670   */\n              dup5\n                /* \"#utility.yul\":1647:1671   */\n              tag_98\n              jump\t// in\n            tag_136:\n                /* \"#utility.yul\":1638:1672   */\n              tag_99\n              jump\t// in\n            tag_135:\n                /* \"#utility.yul\":1620:1673   */\n              tag_98\n              jump\t// in\n            tag_134:\n                /* \"#utility.yul\":1607:1673   */\n              swap1\n              pop\n                /* \"#utility.yul\":1537:1679   */\n              swap2\n              swap1\n              pop\n              jump\t// out\n                /* \"#utility.yul\":1685:1819   */\n            tag_101:\n                /* \"#utility.yul\":1743:1752   */\n              0x00\n                /* \"#utility.yul\":1776:1813   */\n              tag_138\n                /* \"#utility.yul\":1807:1812   */\n              dup3\n                /* \"#utility.yul\":1776:1813   */\n              tag_100\n              jump\t// in\n            tag_138:\n                /* \"#utility.yul\":1763:1813   */\n              swap1\n              pop\n                /* \"#utility.yul\":1685:1819   */\n              swap2\n              swap1\n              pop\n              jump\t// out\n                /* \"#utility.yul\":1825:1980   */\n            tag_102:\n                /* \"#utility.yul\":1896:1905   */\n              0x00\n                /* \"#utility.yul\":1929:1974   */\n              tag_140\n                /* \"#utility.yul\":1968:1973   */\n              dup3\n                /* \"#utility.yul\":1929:1974   */\n              tag_101\n              jump\t// in\n            tag_140:\n                /* \"#utility.yul\":1916:1974   */\n              swap1\n              pop\n                /* \"#utility.yul\":1825:1980   */\n              swap2\n              swap1\n              pop\n              jump\t// out\n                /* \"#utility.yul\":1986:2159   */\n            tag_103:\n                /* \"#utility.yul\":2094:2152   */\n              tag_142\n                /* \"#utility.yul\":2146:2151   */\n              dup2\n                /* \"#utility.yul\":2094:2152   */\n              tag_102\n              jump\t// in\n            tag_142:\n                /* \"#utility.yul\":2089:2092   */\n              dup3\n                /* \"#utility.yul\":2082:2153   */\n              mstore\n                /* \"#utility.yul\":1986:2159   */\n              pop\n              pop\n              jump\t// out\n                /* \"#utility.yul\":2165:2429   */\n            tag_28:\n                /* \"#utility.yul\":2279:2283   */\n              0x00\n                /* \"#utility.yul\":2317:2319   */\n              0x20\n                /* \"#utility.yul\":2306:2315   */\n              dup3\n                /* \"#utility.yul\":2302:2320   */\n              add\n                /* \"#utility.yul\":2294:2320   */\n              swap1\n              pop\n                /* \"#utility.yul\":2330:2422   */\n              tag_144\n                /* \"#utility.yul\":2419:2420   */\n              0x00\n                /* \"#utility.yul\":2408:2417   */\n              dup4\n                /* \"#utility.yul\":2404:2421   */\n              add\n                /* \"#utility.yul\":2395:2401   */\n              dup5\n                /* \"#utility.yul\":2330:2422   */\n              tag_103\n              jump\t// in\n            tag_144:\n                /* \"#utility.yul\":2165:2429   */\n              swap3\n              swap2\n              pop\n              pop\n              jump\t// out\n                /* \"#utility.yul\":2435:2582   */\n            tag_104:\n                /* \"#utility.yul\":2536:2547   */\n              0x00\n                /* \"#utility.yul\":2573:2576   */\n              dup2\n                /* \"#utility.yul\":2558:2576   */\n              swap1\n              pop\n                /* \"#utility.yul\":2435:2582   */\n              swap3\n              swap2\n              pop\n              pop\n              jump\t// out\n                /* \"#utility.yul\":2588:2702   */\n            tag_105:\n              pop\n              jump\t// out\n                /* \"#utility.yul\":2708:3106   */\n            tag_106:\n                /* \"#utility.yul\":2867:2870   */\n              0x00\n                /* \"#utility.yul\":2888:2971   */\n              tag_148\n                /* \"#utility.yul\":2969:2970   */\n              0x00\n                /* \"#utility.yul\":2964:2967   */\n              dup4\n                /* \"#utility.yul\":2888:2971   */\n              tag_104\n              jump\t// in\n            tag_148:\n                /* \"#utility.yul\":2881:2971   */\n              swap2\n              pop\n                /* \"#utility.yul\":2980:3073   */\n              tag_149\n                /* \"#utility.yul\":3069:3072   */\n              dup3\n                /* \"#utility.yul\":2980:3073   */\n              tag_105\n              jump\t// in\n            tag_149:\n                /* \"#utility.yul\":3098:3099   */\n              0x00\n                /* \"#utility.yul\":3093:3096   */\n              dup3\n                /* \"#utility.yul\":3089:3100   */\n              add\n                /* \"#utility.yul\":3082:3100   */\n              swap1\n              pop\n                /* \"#utility.yul\":2708:3106   */\n              swap2\n              swap1\n              pop\n              jump\t// out\n                /* \"#utility.yul\":3112:3491   */\n            tag_44:\n                /* \"#utility.yul\":3296:3299   */\n              0x00\n                /* \"#utility.yul\":3318:3465   */\n              tag_151\n                /* \"#utility.yul\":3461:3464   */\n              dup3\n                /* \"#utility.yul\":3318:3465   */\n              tag_106\n              jump\t// in\n            tag_151:\n                /* \"#utility.yul\":3311:3465   */\n              swap2\n              pop\n                /* \"#utility.yul\":3482:3485   */\n              dup2\n                /* \"#utility.yul\":3475:3485   */\n              swap1\n              pop\n                /* \"#utility.yul\":3112:3491   */\n              swap2\n              swap1\n              pop\n              jump\t// out\n                /* \"#utility.yul\":3497:3666   */\n            tag_107:\n                /* \"#utility.yul\":3581:3592   */\n              0x00\n                /* \"#utility.yul\":3615:3621   */\n              dup3\n                /* \"#utility.yul\":3610:3613   */\n              dup3\n                /* \"#utility.yul\":3603:3622   */\n              mstore\n                /* \"#utility.yul\":3655:3659   */\n              0x20\n                /* \"#utility.yul\":3650:3653   */\n              dup3\n                /* \"#utility.yul\":3646:3660   */\n              add\n                /* \"#utility.yul\":3631:3660   */\n              swap1\n              pop\n                /* \"#utility.yul\":3497:3666   */\n              swap3\n              swap2\n              pop\n              pop\n              jump\t// out\n                /* \"#utility.yul\":3672:3833   */\n            tag_108:\n                /* \"#utility.yul\":3812:3825   */\n              0x63616c6c206661696c6564000000000000000000000000000000000000000000\n                /* \"#utility.yul\":3808:3809   */\n              0x00\n                /* \"#utility.yul\":3800:3806   */\n              dup3\n                /* \"#utility.yul\":3796:3810   */\n              add\n                /* \"#utility.yul\":3789:3826   */\n              mstore\n                /* \"#utility.yul\":3672:3833   */\n              pop\n              jump\t// out\n                /* \"#utility.yul\":3839:4205   */\n            tag_109:\n                /* \"#utility.yul\":3981:3984   */\n              0x00\n                /* \"#utility.yul\":4002:4069   */\n              tag_155\n                /* \"#utility.yul\":4066:4068   */\n              0x0b\n                /* \"#utility.yul\":4061:4064   */\n              dup4\n                /* \"#utility.yul\":4002:4069   */\n              tag_107\n              jump\t// in\n            tag_155:\n                /* \"#utility.yul\":3995:4069   */\n              swap2\n              pop\n                /* \"#utility.yul\":4078:4171   */\n              tag_156\n                /* \"#utility.yul\":4167:4170   */\n              dup3\n                /* \"#utility.yul\":4078:4171   */\n              tag_108\n              jump\t// in\n            tag_156:\n                /* \"#utility.yul\":4196:4198   */\n              0x20\n                /* \"#utility.yul\":4191:4194   */\n              dup3\n                /* \"#utility.yul\":4187:4199   */\n              add\n                /* \"#utility.yul\":4180:4199   */\n              swap1\n              pop\n                /* \"#utility.yul\":3839:4205   */\n              swap2\n              swap1\n              pop\n              jump\t// out\n                /* \"#utility.yul\":4211:4630   */\n            tag_50:\n                /* \"#utility.yul\":4377:4381   */\n              0x00\n                /* \"#utility.yul\":4415:4417   */\n              0x20\n                /* \"#utility.yul\":4404:4413   */\n              dup3\n                /* \"#utility.yul\":4400:4418   */\n              add\n                /* \"#utility.yul\":4392:4418   */\n              swap1\n              pop\n                /* \"#utility.yul\":4464:4473   */\n              dup2\n                /* \"#utility.yul\":4458:4462   */\n              dup2\n                /* \"#utility.yul\":4454:4474   */\n              sub\n                /* \"#utility.yul\":4450:4451   */\n              0x00\n                /* \"#utility.yul\":4439:4448   */\n              dup4\n                /* \"#utility.yul\":4435:4452   */\n              add\n                /* \"#utility.yul\":4428:4475   */\n              mstore\n                /* \"#utility.yul\":4492:4623   */\n              tag_158\n                /* \"#utility.yul\":4618:4622   */\n              dup2\n                /* \"#utility.yul\":4492:4623   */\n              tag_109\n              jump\t// in\n            tag_158:\n                /* \"#utility.yul\":4484:4623   */\n              swap1\n              pop\n                /* \"#utility.yul\":4211:4630   */\n              swap2\n              swap1\n              pop\n              jump\t// out\n                /* \"#utility.yul\":4636:4732   */\n            tag_110:\n                /* \"#utility.yul\":4673:4680   */\n              0x00\n                /* \"#utility.yul\":4702:4726   */\n              tag_160\n                /* \"#utility.yul\":4720:4725   */\n              dup3\n                /* \"#utility.yul\":4702:4726   */\n              tag_98\n              jump\t// in\n            tag_160:\n                /* \"#utility.yul\":4691:4726   */\n              swap1\n              pop\n                /* \"#utility.yul\":4636:4732   */\n              swap2\n              swap1\n              pop\n              jump\t// out\n                /* \"#utility.yul\":4738:4856   */\n            tag_111:\n                /* \"#utility.yul\":4825:4849   */\n              tag_162\n                /* \"#utility.yul\":4843:4848   */\n              dup2\n                /* \"#utility.yul\":4825:4849   */\n              tag_110\n              jump\t// in\n            tag_162:\n                /* \"#utility.yul\":4820:4823   */\n              dup3\n                /* \"#utility.yul\":4813:4850   */\n              mstore\n                /* \"#utility.yul\":4738:4856   */\n              pop\n              pop\n              jump\t// out\n                /* \"#utility.yul\":4862:4947   */\n            tag_112:\n                /* \"#utility.yul\":4907:4914   */\n              0x00\n                /* \"#utility.yul\":4936:4941   */\n              dup2\n                /* \"#utility.yul\":4925:4941   */\n              swap1\n              pop\n                /* \"#utility.yul\":4862:4947   */\n              swap2\n              swap1\n              pop\n              jump\t// out\n                /* \"#utility.yul\":4953:5030   */\n            tag_113:\n                /* \"#utility.yul\":4990:4997   */\n              0x00\n                /* \"#utility.yul\":5019:5024   */\n              dup2\n                /* \"#utility.yul\":5008:5024   */\n              swap1\n              pop\n                /* \"#utility.yul\":4953:5030   */\n              swap2\n              swap1\n              pop\n              jump\t// out\n                /* \"#utility.yul\":5036:5194   */\n            tag_114:\n                /* \"#utility.yul\":5094:5103   */\n              0x00\n                /* \"#utility.yul\":5127:5188   */\n              tag_166\n                /* \"#utility.yul\":5145:5187   */\n              tag_167\n                /* \"#utility.yul\":5154:5186   */\n              tag_168\n                /* \"#utility.yul\":5180:5185   */\n              dup5\n                /* \"#utility.yul\":5154:5186   */\n              tag_112\n              jump\t// in\n            tag_168:\n                /* \"#utility.yul\":5145:5187   */\n              tag_99\n              jump\t// in\n            tag_167:\n                /* \"#utility.yul\":5127:5188   */\n              tag_113\n              jump\t// in\n            tag_166:\n                /* \"#utility.yul\":5114:5188   */\n              swap1\n              pop\n                /* \"#utility.yul\":5036:5194   */\n              swap2\n              swap1\n              pop\n              jump\t// out\n                /* \"#utility.yul\":5200:5347   */\n            tag_115:\n                /* \"#utility.yul\":5295:5340   */\n              tag_170\n                /* \"#utility.yul\":5334:5339   */\n              dup2\n                /* \"#utility.yul\":5295:5340   */\n              tag_114\n              jump\t// in\n            tag_170:\n                /* \"#utility.yul\":5290:5293   */\n              dup3\n                /* \"#utility.yul\":5283:5341   */\n              mstore\n                /* \"#utility.yul\":5200:5347   */\n              pop\n              pop\n              jump\t// out\n                /* \"#utility.yul\":5353:5898   */\n            tag_62:\n                /* \"#utility.yul\":5528:5532   */\n              0x00\n                /* \"#utility.yul\":5566:5568   */\n              0x60\n                /* \"#utility.yul\":5555:5564   */\n              dup3\n                /* \"#utility.yul\":5551:5569   */\n              add\n                /* \"#utility.yul\":5543:5569   */\n              swap1\n              pop\n                /* \"#utility.yul\":5579:5650   */\n              tag_172\n                /* \"#utility.yul\":5647:5648   */\n              0x00\n                /* \"#utility.yul\":5636:5645   */\n              dup4\n                /* \"#utility.yul\":5632:5649   */\n              add\n                /* \"#utility.yul\":5623:5629   */\n              dup7\n                /* \"#utility.yul\":5579:5650   */\n              tag_111\n              jump\t// in\n            tag_172:\n                /* \"#utility.yul\":5660:5740   */\n              tag_173\n                /* \"#utility.yul\":5736:5738   */\n              0x20\n                /* \"#utility.yul\":5725:5734   */\n              dup4\n                /* \"#utility.yul\":5721:5739   */\n              add\n                /* \"#utility.yul\":5712:5718   */\n              dup6\n                /* \"#utility.yul\":5660:5740   */\n              tag_115\n              jump\t// in\n            tag_173:\n                /* \"#utility.yul\":5787:5796   */\n              dup2\n                /* \"#utility.yul\":5781:5785   */\n              dup2\n                /* \"#utility.yul\":5777:5797   */\n              sub\n                /* \"#utility.yul\":5772:5774   */\n              0x40\n                /* \"#utility.yul\":5761:5770   */\n              dup4\n                /* \"#utility.yul\":5757:5775   */\n              add\n                /* \"#utility.yul\":5750:5798   */\n              mstore\n                /* \"#utility.yul\":5815:5891   */\n              tag_174\n                /* \"#utility.yul\":5886:5890   */\n              dup2\n                /* \"#utility.yul\":5877:5883   */\n              dup5\n                /* \"#utility.yul\":5815:5891   */\n              tag_97\n              jump\t// in\n            tag_174:\n                /* \"#utility.yul\":5807:5891   */\n              swap1\n              pop\n                /* \"#utility.yul\":5353:5898   */\n              swap5\n              swap4\n              pop\n              pop\n              pop\n              pop\n              jump\t// out\n\n            auxdata: 0xa2646970667358221220a14c89e1188773921603b9c4db526faf7613493a0c9caa4b0af5136c873a27b564736f6c63430008150033\n        }\n    }\n\n    auxdata: 0xa2646970667358221220f6f5d38490ce835e1b0df78760aa22e7252d711d6cf93747a72a10d108d6fa0064736f6c63430008150033\n}\n\nsub_1: assembly {\n        /* \"shoot/2/\\xe5\\x8f\\xaf\\xe8\\xa7\\x81\\xe6\\x80\\xa7\\xe4\\xbf\\xae\\xe9\\xa5\\xb0\\xe7\\xac\\xa6/1.sol\":164:1230  contract fig{... */\n      mstore(0x40, 0x80)\n        /* \"shoot/2/\\xe5\\x8f\\xaf\\xe8\\xa7\\x81\\xe6\\x80\\xa7\\xe4\\xbf\\xae\\xe9\\xa5\\xb0\\xe7\\xac\\xa6/1.sol\":206:275  constructor(address payable _fun){... */\n      callvalue\n      dup1\n      iszero\n      tag_1\n      jumpi\n      0x00\n      dup1\n      revert\n    tag_1:\n      pop\n      mload(0x40)\n      sub(codesize, bytecodeSize)\n      dup1\n      bytecodeSize\n      dup4\n      codecopy\n      dup2\n      dup2\n      add\n      0x40\n      mstore\n      dup2\n      add\n      swap1\n      tag_2\n      swap2\n      swap1\n      tag_3\n      jump\t// in\n    tag_2:\n        /* \"shoot/2/\\xe5\\x8f\\xaf\\xe8\\xa7\\x81\\xe6\\x80\\xa7\\xe4\\xbf\\xae\\xe9\\xa5\\xb0\\xe7\\xac\\xa6/1.sol\":262:266  _fun */\n      dup1\n        /* \"shoot/2/\\xe5\\x8f\\xaf\\xe8\\xa7\\x81\\xe6\\x80\\xa7\\xe4\\xbf\\xae\\xe9\\xa5\\xb0\\xe7\\xac\\xa6/1.sol\":250:253  fun */\n      0x00\n      dup1\n        /* \"shoot/2/\\xe5\\x8f\\xaf\\xe8\\xa7\\x81\\xe6\\x80\\xa7\\xe4\\xbf\\xae\\xe9\\xa5\\xb0\\xe7\\xac\\xa6/1.sol\":250:267  fun = check(_fun) */\n      0x0100\n      exp\n      dup2\n      sload\n      dup2\n      0xffffffffffffffffffffffffffffffffffffffff\n      mul\n      not\n      and\n      swap1\n      dup4\n      0xffffffffffffffffffffffffffffffffffffffff\n      and\n      mul\n      or\n      swap1\n      sstore\n      pop\n        /* \"shoot/2/\\xe5\\x8f\\xaf\\xe8\\xa7\\x81\\xe6\\x80\\xa7\\xe4\\xbf\\xae\\xe9\\xa5\\xb0\\xe7\\xac\\xa6/1.sol\":206:275  constructor(address payable _fun){... */\n      pop\n        /* \"shoot/2/\\xe5\\x8f\\xaf\\xe8\\xa7\\x81\\xe6\\x80\\xa7\\xe4\\xbf\\xae\\xe9\\xa5\\xb0\\xe7\\xac\\xa6/1.sol\":164:1230  contract fig{... */\n      jump(tag_6)\n        /* \"#utility.yul\":88:205   */\n    tag_8:\n        /* \"#utility.yul\":197:198   */\n      0x00\n        /* \"#utility.yul\":194:195   */\n      dup1\n        /* \"#utility.yul\":187:199   */\n      revert\n        /* \"#utility.yul\":334:460   */\n    tag_10:\n        /* \"#utility.yul\":371:378   */\n      0x00\n        /* \"#utility.yul\":411:453   */\n      0xffffffffffffffffffffffffffffffffffffffff\n        /* \"#utility.yul\":404:409   */\n      dup3\n        /* \"#utility.yul\":400:454   */\n      and\n        /* \"#utility.yul\":389:454   */\n      swap1\n      pop\n        /* \"#utility.yul\":334:460   */\n      swap2\n      swap1\n      pop\n      jump\t// out\n        /* \"#utility.yul\":466:570   */\n    tag_11:\n        /* \"#utility.yul\":511:518   */\n      0x00\n        /* \"#utility.yul\":540:564   */\n      tag_20\n        /* \"#utility.yul\":558:563   */\n      dup3\n        /* \"#utility.yul\":540:564   */\n      tag_10\n      jump\t// in\n    tag_20:\n        /* \"#utility.yul\":529:564   */\n      swap1\n      pop\n        /* \"#utility.yul\":466:570   */\n      swap2\n      swap1\n      pop\n      jump\t// out\n        /* \"#utility.yul\":576:714   */\n    tag_12:\n        /* \"#utility.yul\":657:689   */\n      tag_22\n        /* \"#utility.yul\":683:688   */\n      dup2\n        /* \"#utility.yul\":657:689   */\n      tag_11\n      jump\t// in\n    tag_22:\n        /* \"#utility.yul\":650:655   */\n      dup2\n        /* \"#utility.yul\":647:690   */\n      eq\n        /* \"#utility.yul\":637:708   */\n      tag_23\n      jumpi\n        /* \"#utility.yul\":704:705   */\n      0x00\n        /* \"#utility.yul\":701:702   */\n      dup1\n        /* \"#utility.yul\":694:706   */\n      revert\n        /* \"#utility.yul\":637:708   */\n    tag_23:\n        /* \"#utility.yul\":576:714   */\n      pop\n      jump\t// out\n        /* \"#utility.yul\":720:879   */\n    tag_13:\n        /* \"#utility.yul\":785:790   */\n      0x00\n        /* \"#utility.yul\":816:822   */\n      dup2\n        /* \"#utility.yul\":810:823   */\n      mload\n        /* \"#utility.yul\":801:823   */\n      swap1\n      pop\n        /* \"#utility.yul\":832:873   */\n      tag_25\n        /* \"#utility.yul\":867:872   */\n      dup2\n        /* \"#utility.yul\":832:873   */\n      tag_12\n      jump\t// in\n    tag_25:\n        /* \"#utility.yul\":720:879   */\n      swap3\n      swap2\n      pop\n      pop\n      jump\t// out\n        /* \"#utility.yul\":885:1252   */\n    tag_3:\n        /* \"#utility.yul\":963:969   */\n      0x00\n        /* \"#utility.yul\":1012:1014   */\n      0x20\n        /* \"#utility.yul\":1000:1009   */\n      dup3\n        /* \"#utility.yul\":991:998   */\n      dup5\n        /* \"#utility.yul\":987:1010   */\n      sub\n        /* \"#utility.yul\":983:1015   */\n      slt\n        /* \"#utility.yul\":980:1099   */\n      iszero\n      tag_27\n      jumpi\n        /* \"#utility.yul\":1018:1097   */\n      tag_28\n      tag_8\n      jump\t// in\n    tag_28:\n        /* \"#utility.yul\":980:1099   */\n    tag_27:\n        /* \"#utility.yul\":1138:1139   */\n      0x00\n        /* \"#utility.yul\":1163:1235   */\n      tag_29\n        /* \"#utility.yul\":1227:1234   */\n      dup5\n        /* \"#utility.yul\":1218:1224   */\n      dup3\n        /* \"#utility.yul\":1207:1216   */\n      dup6\n        /* \"#utility.yul\":1203:1225   */\n      add\n        /* \"#utility.yul\":1163:1235   */\n      tag_13\n      jump\t// in\n    tag_29:\n        /* \"#utility.yul\":1153:1235   */\n      swap2\n      pop\n        /* \"#utility.yul\":1109:1245   */\n      pop\n        /* \"#utility.yul\":885:1252   */\n      swap3\n      swap2\n      pop\n      pop\n      jump\t// out\n        /* \"shoot/2/\\xe5\\x8f\\xaf\\xe8\\xa7\\x81\\xe6\\x80\\xa7\\xe4\\xbf\\xae\\xe9\\xa5\\xb0\\xe7\\xac\\xa6/1.sol\":164:1230  contract fig{... */\n    tag_6:\n      dataSize(sub_0)\n      dup1\n      dataOffset(sub_0)\n      0x00\n      codecopy\n      0x00\n      return\n    stop\n\n    sub_0: assembly {\n            /* \"shoot/2/\\xe5\\x8f\\xaf\\xe8\\xa7\\x81\\xe6\\x80\\xa7\\xe4\\xbf\\xae\\xe9\\xa5\\xb0\\xe7\\xac\\xa6/1.sol\":164:1230  contract fig{... */\n          mstore(0x40, 0x80)\n          jumpi(tag_1, lt(calldatasize, 0x04))\n          shr(0xe0, calldataload(0x00))\n          dup1\n          0x946644cd\n          gt\n          tag_11\n          jumpi\n          dup1\n          0x946644cd\n          eq\n          tag_6\n          jumpi\n          dup1\n          0x9fcec698\n          eq\n          tag_7\n          jumpi\n          dup1\n          0xb2b9f26d\n          eq\n          tag_8\n          jumpi\n          dup1\n          0xdc5bb9a1\n          eq\n          tag_9\n          jumpi\n          dup1\n          0xe4832009\n          eq\n          tag_10\n          jumpi\n          jump(tag_1)\n        tag_11:\n          dup1\n          0x12a50b25\n          eq\n          tag_2\n          jumpi\n          dup1\n          0x13b6ae4c\n          eq\n          tag_3\n          jumpi\n          dup1\n          0x419efc03\n          eq\n          tag_4\n          jumpi\n          dup1\n          0x522e1177\n          eq\n          tag_5\n          jumpi\n        tag_1:\n          0x00\n          dup1\n          revert\n            /* \"shoot/2/\\xe5\\x8f\\xaf\\xe8\\xa7\\x81\\xe6\\x80\\xa7\\xe4\\xbf\\xae\\xe9\\xa5\\xb0\\xe7\\xac\\xa6/1.sol\":907:978  function attack4()public payable{... */\n        tag_2:\n          tag_12\n          tag_13\n          jump\t// in\n        tag_12:\n          stop\n            /* \"shoot/2/\\xe5\\x8f\\xaf\\xe8\\xa7\\x81\\xe6\\x80\\xa7\\xe4\\xbf\\xae\\xe9\\xa5\\xb0\\xe7\\xac\\xa6/1.sol\":282:390  function figure()public pure returns(bytes memory){... */\n        tag_3:\n          callvalue\n          dup1\n          iszero\n          tag_14\n          jumpi\n          0x00\n          dup1\n          revert\n        tag_14:\n          pop\n          tag_15\n          tag_16\n          jump\t// in\n        tag_15:\n          mload(0x40)\n          tag_17\n          swap2\n          swap1\n          tag_18\n          jump\t// in\n        tag_17:\n          mload(0x40)\n          dup1\n          swap2\n          sub\n          swap1\n          return\n            /* \"shoot/2/\\xe5\\x8f\\xaf\\xe8\\xa7\\x81\\xe6\\x80\\xa7\\xe4\\xbf\\xae\\xe9\\xa5\\xb0\\xe7\\xac\\xa6/1.sol\":398:679  function attack1()public payable{... */\n        tag_4:\n          tag_19\n          tag_20\n          jump\t// in\n        tag_19:\n          stop\n            /* \"shoot/2/\\xe5\\x8f\\xaf\\xe8\\xa7\\x81\\xe6\\x80\\xa7\\xe4\\xbf\\xae\\xe9\\xa5\\xb0\\xe7\\xac\\xa6/1.sol\":1166:1227  function complete()public{... */\n        tag_5:\n          callvalue\n          dup1\n          iszero\n          tag_21\n          jumpi\n          0x00\n          dup1\n          revert\n        tag_21:\n          pop\n          tag_22\n          tag_23\n          jump\t// in\n        tag_22:\n          stop\n            /* \"shoot/2/\\xe5\\x8f\\xaf\\xe8\\xa7\\x81\\xe6\\x80\\xa7\\xe4\\xbf\\xae\\xe9\\xa5\\xb0\\xe7\\xac\\xa6/1.sol\":183:199  check public fun */\n        tag_6:\n          callvalue\n          dup1\n          iszero\n          tag_24\n          jumpi\n          0x00\n          dup1\n          revert\n        tag_24:\n          pop\n          tag_25\n          tag_26\n          jump\t// in\n        tag_25:\n          mload(0x40)\n          tag_27\n          swap2\n          swap1\n          tag_28\n          jump\t// in\n        tag_27:\n          mload(0x40)\n          dup1\n          swap2\n          sub\n          swap1\n          return\n            /* \"shoot/2/\\xe5\\x8f\\xaf\\xe8\\xa7\\x81\\xe6\\x80\\xa7\\xe4\\xbf\\xae\\xe9\\xa5\\xb0\\xe7\\xac\\xa6/1.sol\":685:825  function attack2()public payable{... */\n        tag_7:\n          tag_29\n          tag_30\n          jump\t// in\n        tag_29:\n          stop\n            /* \"shoot/2/\\xe5\\x8f\\xaf\\xe8\\xa7\\x81\\xe6\\x80\\xa7\\xe4\\xbf\\xae\\xe9\\xa5\\xb0\\xe7\\xac\\xa6/1.sol\":831:901  function attack3()public payable{... */\n        tag_8:\n          tag_31\n          tag_32\n          jump\t// in\n        tag_31:\n          stop\n            /* \"shoot/2/\\xe5\\x8f\\xaf\\xe8\\xa7\\x81\\xe6\\x80\\xa7\\xe4\\xbf\\xae\\xe9\\xa5\\xb0\\xe7\\xac\\xa6/1.sol\":984:1044  function attack5()public payable{... */\n        tag_9:\n          tag_33\n          tag_34\n          jump\t// in\n        tag_33:\n          stop\n            /* \"shoot/2/\\xe5\\x8f\\xaf\\xe8\\xa7\\x81\\xe6\\x80\\xa7\\xe4\\xbf\\xae\\xe9\\xa5\\xb0\\xe7\\xac\\xa6/1.sol\":1050:1160  function attack6()public payable{... */\n        tag_10:\n          tag_35\n          tag_36\n          jump\t// in\n        tag_35:\n          stop\n            /* \"shoot/2/\\xe5\\x8f\\xaf\\xe8\\xa7\\x81\\xe6\\x80\\xa7\\xe4\\xbf\\xae\\xe9\\xa5\\xb0\\xe7\\xac\\xa6/1.sol\":907:978  function attack4()public payable{... */\n        tag_13:\n            /* \"shoot/2/\\xe5\\x8f\\xaf\\xe8\\xa7\\x81\\xe6\\x80\\xa7\\xe4\\xbf\\xae\\xe9\\xa5\\xb0\\xe7\\xac\\xa6/1.sol\":950:953  fun */\n          0x00\n          dup1\n          sload\n          swap1\n          0x0100\n          exp\n          swap1\n          div\n          0xffffffffffffffffffffffffffffffffffffffff\n          and\n            /* \"shoot/2/\\xe5\\x8f\\xaf\\xe8\\xa7\\x81\\xe6\\x80\\xa7\\xe4\\xbf\\xae\\xe9\\xa5\\xb0\\xe7\\xac\\xa6/1.sol\":950:968  fun.ownerPrivalege */\n          0xffffffffffffffffffffffffffffffffffffffff\n          and\n          0x19c43a01\n            /* \"shoot/2/\\xe5\\x8f\\xaf\\xe8\\xa7\\x81\\xe6\\x80\\xa7\\xe4\\xbf\\xae\\xe9\\xa5\\xb0\\xe7\\xac\\xa6/1.sol\":950:970  fun.ownerPrivalege() */\n          mload(0x40)\n          dup2\n          0xffffffff\n          and\n          0xe0\n          shl\n          dup2\n          mstore\n          0x04\n          add\n          0x00\n          mload(0x40)\n          dup1\n          dup4\n          sub\n          dup2\n          0x00\n          dup8\n          dup1\n          extcodesize\n          iszero\n          dup1\n          iszero\n          tag_38\n          jumpi\n          0x00\n          dup1\n          revert\n        tag_38:\n          pop\n          gas\n          call\n          iszero\n          dup1\n          iszero\n          tag_40\n          jumpi\n          returndatasize\n          0x00\n          dup1\n          returndatacopy\n          revert(0x00, returndatasize)\n        tag_40:\n          pop\n          pop\n          pop\n          pop\n            /* \"shoot/2/\\xe5\\x8f\\xaf\\xe8\\xa7\\x81\\xe6\\x80\\xa7\\xe4\\xbf\\xae\\xe9\\xa5\\xb0\\xe7\\xac\\xa6/1.sol\":907:978  function attack4()public payable{... */\n          jump\t// out\n            /* \"shoot/2/\\xe5\\x8f\\xaf\\xe8\\xa7\\x81\\xe6\\x80\\xa7\\xe4\\xbf\\xae\\xe9\\xa5\\xb0\\xe7\\xac\\xa6/1.sol\":282:390  function figure()public pure returns(bytes memory){... */\n        tag_16:\n            /* \"shoot/2/\\xe5\\x8f\\xaf\\xe8\\xa7\\x81\\xe6\\x80\\xa7\\xe4\\xbf\\xae\\xe9\\xa5\\xb0\\xe7\\xac\\xa6/1.sol\":319:331  bytes memory */\n          0x60\n            /* \"shoot/2/\\xe5\\x8f\\xaf\\xe8\\xa7\\x81\\xe6\\x80\\xa7\\xe4\\xbf\\xae\\xe9\\xa5\\xb0\\xe7\\xac\\xa6/1.sol\":350:382  abi.encodeWithSignature(\"com()\") */\n          add(0x24, mload(0x40))\n          mload(0x40)\n          0x20\n          dup2\n          dup4\n          sub\n          sub\n          dup2\n          mstore\n          swap1\n          0x40\n          mstore\n          and(not(0xffffffffffffffffffffffffffffffffffffffffffffffffffffffff), 0xe09966a800000000000000000000000000000000000000000000000000000000)\n          0x20\n          dup3\n          add\n          dup1\n          mload\n          0xffffffffffffffffffffffffffffffffffffffffffffffffffffffff\n          dup4\n          dup2\n          dup4\n          and\n          or\n          dup4\n          mstore\n          pop\n          pop\n          pop\n          pop\n            /* \"shoot/2/\\xe5\\x8f\\xaf\\xe8\\xa7\\x81\\xe6\\x80\\xa7\\xe4\\xbf\\xae\\xe9\\xa5\\xb0\\xe7\\xac\\xa6/1.sol\":343:382  return abi.encodeWithSignature(\"com()\") */\n          swap1\n          pop\n            /* \"shoot/2/\\xe5\\x8f\\xaf\\xe8\\xa7\\x81\\xe6\\x80\\xa7\\xe4\\xbf\\xae\\xe9\\xa5\\xb0\\xe7\\xac\\xa6/1.sol\":282:390  function figure()public pure returns(bytes memory){... */\n          swap1\n          jump\t// out\n            /* \"shoot/2/\\xe5\\x8f\\xaf\\xe8\\xa7\\x81\\xe6\\x80\\xa7\\xe4\\xbf\\xae\\xe9\\xa5\\xb0\\xe7\\xac\\xa6/1.sol\":398:679  function attack1()public payable{... */\n        tag_20:\n            /* \"shoot/2/\\xe5\\x8f\\xaf\\xe8\\xa7\\x81\\xe6\\x80\\xa7\\xe4\\xbf\\xae\\xe9\\xa5\\xb0\\xe7\\xac\\xa6/1.sol\":442:454  bool success */\n          0x00\n            /* \"shoot/2/\\xe5\\x8f\\xaf\\xe8\\xa7\\x81\\xe6\\x80\\xa7\\xe4\\xbf\\xae\\xe9\\xa5\\xb0\\xe7\\xac\\xa6/1.sol\":465:468  fun */\n          dup1\n          0x00\n          swap1\n          sload\n          swap1\n          0x0100\n          exp\n          swap1\n          div\n          0xffffffffffffffffffffffffffffffffffffffff\n          and\n            /* \"shoot/2/\\xe5\\x8f\\xaf\\xe8\\xa7\\x81\\xe6\\x80\\xa7\\xe4\\xbf\\xae\\xe9\\xa5\\xb0\\xe7\\xac\\xa6/1.sol\":457:474  address(fun).call */\n          0xffffffffffffffffffffffffffffffffffffffff\n          and\n            /* \"shoot/2/\\xe5\\x8f\\xaf\\xe8\\xa7\\x81\\xe6\\x80\\xa7\\xe4\\xbf\\xae\\xe9\\xa5\\xb0\\xe7\\xac\\xa6/1.sol\":481:484  100 */\n          0x64\n            /* \"shoot/2/\\xe5\\x8f\\xaf\\xe8\\xa7\\x81\\xe6\\x80\\xa7\\xe4\\xbf\\xae\\xe9\\xa5\\xb0\\xe7\\xac\\xa6/1.sol\":457:489  address(fun).call{value:100}(\"\") */\n          mload(0x40)\n          tag_43\n          swap1\n          tag_44\n          jump\t// in\n        tag_43:\n          0x00\n          mload(0x40)\n          dup1\n          dup4\n          sub\n          dup2\n          dup6\n          dup8\n          gas\n          call\n          swap3\n          pop\n          pop\n          pop\n          returndatasize\n          dup1\n          0x00\n          dup2\n          eq\n          tag_47\n          jumpi\n          mload(0x40)\n          swap2\n          pop\n          and(add(returndatasize, 0x3f), not(0x1f))\n          dup3\n          add\n          0x40\n          mstore\n          returndatasize\n          dup3\n          mstore\n          returndatasize\n          0x00\n          0x20\n          dup5\n          add\n          returndatacopy\n          jump(tag_46)\n        tag_47:\n          0x60\n          swap2\n          pop\n        tag_46:\n          pop\n            /* \"shoot/2/\\xe5\\x8f\\xaf\\xe8\\xa7\\x81\\xe6\\x80\\xa7\\xe4\\xbf\\xae\\xe9\\xa5\\xb0\\xe7\\xac\\xa6/1.sol\":441:489  (bool success,)=address(fun).call{value:100}(\"\") */\n          pop\n          swap1\n          pop\n            /* \"shoot/2/\\xe5\\x8f\\xaf\\xe8\\xa7\\x81\\xe6\\x80\\xa7\\xe4\\xbf\\xae\\xe9\\xa5\\xb0\\xe7\\xac\\xa6/1.sol\":508:515  success */\n          dup1\n            /* \"shoot/2/\\xe5\\x8f\\xaf\\xe8\\xa7\\x81\\xe6\\x80\\xa7\\xe4\\xbf\\xae\\xe9\\xa5\\xb0\\xe7\\xac\\xa6/1.sol\":500:530  require(success,\"call failed\") */\n          tag_48\n          jumpi\n          mload(0x40)\n          0x08c379a000000000000000000000000000000000000000000000000000000000\n          dup2\n          mstore\n          0x04\n          add\n          tag_49\n          swap1\n          tag_50\n          jump\t// in\n        tag_49:\n          mload(0x40)\n          dup1\n          swap2\n          sub\n          swap1\n          revert\n        tag_48:\n            /* \"shoot/2/\\xe5\\x8f\\xaf\\xe8\\xa7\\x81\\xe6\\x80\\xa7\\xe4\\xbf\\xae\\xe9\\xa5\\xb0\\xe7\\xac\\xa6/1.sol\":541:544  fun */\n          0x00\n          dup1\n          sload\n          swap1\n          0x0100\n          exp\n          swap1\n          div\n          0xffffffffffffffffffffffffffffffffffffffff\n          and\n            /* \"shoot/2/\\xe5\\x8f\\xaf\\xe8\\xa7\\x81\\xe6\\x80\\xa7\\xe4\\xbf\\xae\\xe9\\xa5\\xb0\\xe7\\xac\\xa6/1.sol\":541:548  fun.pul */\n          0xffffffffffffffffffffffffffffffffffffffff\n          and\n          0xc58a455b\n            /* \"shoot/2/\\xe5\\x8f\\xaf\\xe8\\xa7\\x81\\xe6\\x80\\xa7\\xe4\\xbf\\xae\\xe9\\xa5\\xb0\\xe7\\xac\\xa6/1.sol\":541:550  fun.pul() */\n          mload(0x40)\n          dup2\n          0xffffffff\n          and\n          0xe0\n          shl\n          dup2\n          mstore\n          0x04\n          add\n          0x00\n          mload(0x40)\n          dup1\n          dup4\n          sub\n          dup2\n          0x00\n          dup8\n          dup1\n          extcodesize\n          iszero\n          dup1\n          iszero\n          tag_51\n          jumpi\n          0x00\n          dup1\n          revert\n        tag_51:\n          pop\n          gas\n          call\n          iszero\n          dup1\n          iszero\n          tag_53\n          jumpi\n          returndatasize\n          0x00\n          dup1\n          returndatacopy\n          revert(0x00, returndatasize)\n        tag_53:\n          pop\n          pop\n          pop\n          pop\n            /* \"shoot/2/\\xe5\\x8f\\xaf\\xe8\\xa7\\x81\\xe6\\x80\\xa7\\xe4\\xbf\\xae\\xe9\\xa5\\xb0\\xe7\\xac\\xa6/1.sol\":561:564  fun */\n          0x00\n          dup1\n          sload\n          swap1\n          0x0100\n          exp\n          swap1\n          div\n          0xffffffffffffffffffffffffffffffffffffffff\n          and\n            /* \"shoot/2/\\xe5\\x8f\\xaf\\xe8\\xa7\\x81\\xe6\\x80\\xa7\\xe4\\xbf\\xae\\xe9\\xa5\\xb0\\xe7\\xac\\xa6/1.sol\":561:579  fun.ownerPrivalege */\n          0xffffffffffffffffffffffffffffffffffffffff\n          and\n          0x19c43a01\n            /* \"shoot/2/\\xe5\\x8f\\xaf\\xe8\\xa7\\x81\\xe6\\x80\\xa7\\xe4\\xbf\\xae\\xe9\\xa5\\xb0\\xe7\\xac\\xa6/1.sol\":561:581  fun.ownerPrivalege() */\n          mload(0x40)\n          dup2\n          0xffffffff\n          and\n          0xe0\n          shl\n          dup2\n          mstore\n          0x04\n          add\n          0x00\n          mload(0x40)\n          dup1\n          dup4\n          sub\n          dup2\n          0x00\n          dup8\n          dup1\n          extcodesize\n          iszero\n          dup1\n          iszero\n          tag_54\n          jumpi\n          0x00\n          dup1\n          revert\n        tag_54:\n          pop\n          gas\n          call\n          iszero\n          dup1\n          iszero\n          tag_56\n          jumpi\n          returndatasize\n          0x00\n          dup1\n          returndatacopy\n          revert(0x00, returndatasize)\n        tag_56:\n          pop\n          pop\n          pop\n          pop\n            /* \"shoot/2/\\xe5\\x8f\\xaf\\xe8\\xa7\\x81\\xe6\\x80\\xa7\\xe4\\xbf\\xae\\xe9\\xa5\\xb0\\xe7\\xac\\xa6/1.sol\":592:595  fun */\n          0x00\n          dup1\n          sload\n          swap1\n          0x0100\n          exp\n          swap1\n          div\n          0xffffffffffffffffffffffffffffffffffffffff\n          and\n            /* \"shoot/2/\\xe5\\x8f\\xaf\\xe8\\xa7\\x81\\xe6\\x80\\xa7\\xe4\\xbf\\xae\\xe9\\xa5\\xb0\\xe7\\xac\\xa6/1.sol\":592:599  fun.ext */\n          0xffffffffffffffffffffffffffffffffffffffff\n          and\n          0xcf9f23b5\n            /* \"shoot/2/\\xe5\\x8f\\xaf\\xe8\\xa7\\x81\\xe6\\x80\\xa7\\xe4\\xbf\\xae\\xe9\\xa5\\xb0\\xe7\\xac\\xa6/1.sol\":592:601  fun.ext() */\n          mload(0x40)\n          dup2\n          0xffffffff\n          and\n          0xe0\n          shl\n          dup2\n          mstore\n          0x04\n          add\n          0x00\n          mload(0x40)\n          dup1\n          dup4\n          sub\n          dup2\n          0x00\n          dup8\n          dup1\n          extcodesize\n          iszero\n          dup1\n          iszero\n          tag_57\n          jumpi\n          0x00\n          dup1\n          revert\n        tag_57:\n          pop\n          gas\n          call\n          iszero\n          dup1\n          iszero\n          tag_59\n          jumpi\n          returndatasize\n          0x00\n          dup1\n          returndatacopy\n          revert(0x00, returndatasize)\n        tag_59:\n          pop\n          pop\n          pop\n          pop\n            /* \"shoot/2/\\xe5\\x8f\\xaf\\xe8\\xa7\\x81\\xe6\\x80\\xa7\\xe4\\xbf\\xae\\xe9\\xa5\\xb0\\xe7\\xac\\xa6/1.sol\":612:615  fun */\n          0x00\n          dup1\n          sload\n          swap1\n          0x0100\n          exp\n          swap1\n          div\n          0xffffffffffffffffffffffffffffffffffffffff\n          and\n            /* \"shoot/2/\\xe5\\x8f\\xaf\\xe8\\xa7\\x81\\xe6\\x80\\xa7\\xe4\\xbf\\xae\\xe9\\xa5\\xb0\\xe7\\xac\\xa6/1.sol\":612:625  fun.flashLoan */\n          0xffffffffffffffffffffffffffffffffffffffff\n          and\n          0xe0232b42\n            /* \"shoot/2/\\xe5\\x8f\\xaf\\xe8\\xa7\\x81\\xe6\\x80\\xa7\\xe4\\xbf\\xae\\xe9\\xa5\\xb0\\xe7\\xac\\xa6/1.sol\":634:637  fun */\n          0x00\n          dup1\n          sload\n          swap1\n          0x0100\n          exp\n          swap1\n          div\n          0xffffffffffffffffffffffffffffffffffffffff\n          and\n            /* \"shoot/2/\\xe5\\x8f\\xaf\\xe8\\xa7\\x81\\xe6\\x80\\xa7\\xe4\\xbf\\xae\\xe9\\xa5\\xb0\\xe7\\xac\\xa6/1.sol\":639:640  0 */\n          0x00\n            /* \"shoot/2/\\xe5\\x8f\\xaf\\xe8\\xa7\\x81\\xe6\\x80\\xa7\\xe4\\xbf\\xae\\xe9\\xa5\\xb0\\xe7\\xac\\xa6/1.sol\":641:649  figure() */\n          tag_60\n            /* \"shoot/2/\\xe5\\x8f\\xaf\\xe8\\xa7\\x81\\xe6\\x80\\xa7\\xe4\\xbf\\xae\\xe9\\xa5\\xb0\\xe7\\xac\\xa6/1.sol\":641:647  figure */\n          tag_16\n            /* \"shoot/2/\\xe5\\x8f\\xaf\\xe8\\xa7\\x81\\xe6\\x80\\xa7\\xe4\\xbf\\xae\\xe9\\xa5\\xb0\\xe7\\xac\\xa6/1.sol\":641:649  figure() */\n          jump\t// in\n        tag_60:\n            /* \"shoot/2/\\xe5\\x8f\\xaf\\xe8\\xa7\\x81\\xe6\\x80\\xa7\\xe4\\xbf\\xae\\xe9\\xa5\\xb0\\xe7\\xac\\xa6/1.sol\":612:650  fun.flashLoan(address(fun),0,figure()) */\n          mload(0x40)\n          dup5\n          0xffffffff\n          and\n          0xe0\n          shl\n          dup2\n          mstore\n          0x04\n          add\n          tag_61\n          swap4\n          swap3\n          swap2\n          swap1\n          tag_62\n          jump\t// in\n        tag_61:\n          0x00\n          mload(0x40)\n          dup1\n          dup4\n          sub\n          dup2\n          0x00\n          dup8\n          dup1\n          extcodesize\n          iszero\n          dup1\n          iszero\n          tag_63\n          jumpi\n          0x00\n          dup1\n          revert\n        tag_63:\n          pop\n          gas\n          call\n          iszero\n          dup1\n          iszero\n          tag_65\n          jumpi\n          returndatasize\n          0x00\n          dup1\n          returndatacopy\n          revert(0x00, returndatasize)\n        tag_65:\n          pop\n          pop\n          pop\n          pop\n            /* \"shoot/2/\\xe5\\x8f\\xaf\\xe8\\xa7\\x81\\xe6\\x80\\xa7\\xe4\\xbf\\xae\\xe9\\xa5\\xb0\\xe7\\xac\\xa6/1.sol\":661:671  complete() */\n          tag_66\n            /* \"shoot/2/\\xe5\\x8f\\xaf\\xe8\\xa7\\x81\\xe6\\x80\\xa7\\xe4\\xbf\\xae\\xe9\\xa5\\xb0\\xe7\\xac\\xa6/1.sol\":661:669  complete */\n          tag_23\n            /* \"shoot/2/\\xe5\\x8f\\xaf\\xe8\\xa7\\x81\\xe6\\x80\\xa7\\xe4\\xbf\\xae\\xe9\\xa5\\xb0\\xe7\\xac\\xa6/1.sol\":661:671  complete() */\n          jump\t// in\n        tag_66:\n            /* \"shoot/2/\\xe5\\x8f\\xaf\\xe8\\xa7\\x81\\xe6\\x80\\xa7\\xe4\\xbf\\xae\\xe9\\xa5\\xb0\\xe7\\xac\\xa6/1.sol\":430:679  {... */\n          pop\n            /* \"shoot/2/\\xe5\\x8f\\xaf\\xe8\\xa7\\x81\\xe6\\x80\\xa7\\xe4\\xbf\\xae\\xe9\\xa5\\xb0\\xe7\\xac\\xa6/1.sol\":398:679  function attack1()public payable{... */\n          jump\t// out\n            /* \"shoot/2/\\xe5\\x8f\\xaf\\xe8\\xa7\\x81\\xe6\\x80\\xa7\\xe4\\xbf\\xae\\xe9\\xa5\\xb0\\xe7\\xac\\xa6/1.sol\":1166:1227  function complete()public{... */\n        tag_23:\n            /* \"shoot/2/\\xe5\\x8f\\xaf\\xe8\\xa7\\x81\\xe6\\x80\\xa7\\xe4\\xbf\\xae\\xe9\\xa5\\xb0\\xe7\\xac\\xa6/1.sol\":1202:1205  fun */\n          0x00\n          dup1\n          sload\n          swap1\n          0x0100\n          exp\n          swap1\n          div\n          0xffffffffffffffffffffffffffffffffffffffff\n          and\n            /* \"shoot/2/\\xe5\\x8f\\xaf\\xe8\\xa7\\x81\\xe6\\x80\\xa7\\xe4\\xbf\\xae\\xe9\\xa5\\xb0\\xe7\\xac\\xa6/1.sol\":1202:1217  fun.isCompleted */\n          0xffffffffffffffffffffffffffffffffffffffff\n          and\n          0xfa391c64\n            /* \"shoot/2/\\xe5\\x8f\\xaf\\xe8\\xa7\\x81\\xe6\\x80\\xa7\\xe4\\xbf\\xae\\xe9\\xa5\\xb0\\xe7\\xac\\xa6/1.sol\":1202:1219  fun.isCompleted() */\n          mload(0x40)\n          dup2\n          0xffffffff\n          and\n          0xe0\n          shl\n          dup2\n          mstore\n          0x04\n          add\n          0x00\n          mload(0x40)\n          dup1\n          dup4\n          sub\n          dup2\n          0x00\n          dup8\n          dup1\n          extcodesize\n          iszero\n          dup1\n          iszero\n          tag_68\n          jumpi\n          0x00\n          dup1\n          revert\n        tag_68:\n          pop\n          gas\n          call\n          iszero\n          dup1\n          iszero\n          tag_70\n          jumpi\n          returndatasize\n          0x00\n          dup1\n          returndatacopy\n          revert(0x00, returndatasize)\n        tag_70:\n          pop\n          pop\n          pop\n          pop\n            /* \"shoot/2/\\xe5\\x8f\\xaf\\xe8\\xa7\\x81\\xe6\\x80\\xa7\\xe4\\xbf\\xae\\xe9\\xa5\\xb0\\xe7\\xac\\xa6/1.sol\":1166:1227  function complete()public{... */\n          jump\t// out\n            /* \"shoot/2/\\xe5\\x8f\\xaf\\xe8\\xa7\\x81\\xe6\\x80\\xa7\\xe4\\xbf\\xae\\xe9\\xa5\\xb0\\xe7\\xac\\xa6/1.sol\":183:199  check public fun */\n        tag_26:\n          0x00\n          dup1\n          sload\n          swap1\n          0x0100\n          exp\n          swap1\n          div\n          0xffffffffffffffffffffffffffffffffffffffff\n          and\n          dup2\n          jump\t// out\n            /* \"shoot/2/\\xe5\\x8f\\xaf\\xe8\\xa7\\x81\\xe6\\x80\\xa7\\xe4\\xbf\\xae\\xe9\\xa5\\xb0\\xe7\\xac\\xa6/1.sol\":685:825  function attack2()public payable{... */\n        tag_30:\n            /* \"shoot/2/\\xe5\\x8f\\xaf\\xe8\\xa7\\x81\\xe6\\x80\\xa7\\xe4\\xbf\\xae\\xe9\\xa5\\xb0\\xe7\\xac\\xa6/1.sol\":729:741  bool success */\n          0x00\n            /* \"shoot/2/\\xe5\\x8f\\xaf\\xe8\\xa7\\x81\\xe6\\x80\\xa7\\xe4\\xbf\\xae\\xe9\\xa5\\xb0\\xe7\\xac\\xa6/1.sol\":752:755  fun */\n          dup1\n          0x00\n          swap1\n          sload\n          swap1\n          0x0100\n          exp\n          swap1\n          div\n          0xffffffffffffffffffffffffffffffffffffffff\n          and\n            /* \"shoot/2/\\xe5\\x8f\\xaf\\xe8\\xa7\\x81\\xe6\\x80\\xa7\\xe4\\xbf\\xae\\xe9\\xa5\\xb0\\xe7\\xac\\xa6/1.sol\":744:761  address(fun).call */\n          0xffffffffffffffffffffffffffffffffffffffff\n          and\n            /* \"shoot/2/\\xe5\\x8f\\xaf\\xe8\\xa7\\x81\\xe6\\x80\\xa7\\xe4\\xbf\\xae\\xe9\\xa5\\xb0\\xe7\\xac\\xa6/1.sol\":768:771  100 */\n          0x64\n            /* \"shoot/2/\\xe5\\x8f\\xaf\\xe8\\xa7\\x81\\xe6\\x80\\xa7\\xe4\\xbf\\xae\\xe9\\xa5\\xb0\\xe7\\xac\\xa6/1.sol\":744:776  address(fun).call{value:100}(\"\") */\n          mload(0x40)\n          tag_72\n          swap1\n          tag_44\n          jump\t// in\n        tag_72:\n          0x00\n          mload(0x40)\n          dup1\n          dup4\n          sub\n          dup2\n          dup6\n          dup8\n          gas\n          call\n          swap3\n          pop\n          pop\n          pop\n          returndatasize\n          dup1\n          0x00\n          dup2\n          eq\n          tag_75\n          jumpi\n          mload(0x40)\n          swap2\n          pop\n          and(add(returndatasize, 0x3f), not(0x1f))\n          dup3\n          add\n          0x40\n          mstore\n          returndatasize\n          dup3\n          mstore\n          returndatasize\n          0x00\n          0x20\n          dup5\n          add\n          returndatacopy\n          jump(tag_74)\n        tag_75:\n          0x60\n          swap2\n          pop\n        tag_74:\n          pop\n            /* \"shoot/2/\\xe5\\x8f\\xaf\\xe8\\xa7\\x81\\xe6\\x80\\xa7\\xe4\\xbf\\xae\\xe9\\xa5\\xb0\\xe7\\xac\\xa6/1.sol\":728:776  (bool success,)=address(fun).call{value:100}(\"\") */\n          pop\n          swap1\n          pop\n            /* \"shoot/2/\\xe5\\x8f\\xaf\\xe8\\xa7\\x81\\xe6\\x80\\xa7\\xe4\\xbf\\xae\\xe9\\xa5\\xb0\\xe7\\xac\\xa6/1.sol\":795:802  success */\n          dup1\n            /* \"shoot/2/\\xe5\\x8f\\xaf\\xe8\\xa7\\x81\\xe6\\x80\\xa7\\xe4\\xbf\\xae\\xe9\\xa5\\xb0\\xe7\\xac\\xa6/1.sol\":787:817  require(success,\"call failed\") */\n          tag_76\n          jumpi\n          mload(0x40)\n          0x08c379a000000000000000000000000000000000000000000000000000000000\n          dup2\n          mstore\n          0x04\n          add\n          tag_77\n          swap1\n          tag_50\n          jump\t// in\n        tag_77:\n          mload(0x40)\n          dup1\n          swap2\n          sub\n          swap1\n          revert\n        tag_76:\n            /* \"shoot/2/\\xe5\\x8f\\xaf\\xe8\\xa7\\x81\\xe6\\x80\\xa7\\xe4\\xbf\\xae\\xe9\\xa5\\xb0\\xe7\\xac\\xa6/1.sol\":717:825  {... */\n          pop\n            /* \"shoot/2/\\xe5\\x8f\\xaf\\xe8\\xa7\\x81\\xe6\\x80\\xa7\\xe4\\xbf\\xae\\xe9\\xa5\\xb0\\xe7\\xac\\xa6/1.sol\":685:825  function attack2()public payable{... */\n          jump\t// out\n            /* \"shoot/2/\\xe5\\x8f\\xaf\\xe8\\xa7\\x81\\xe6\\x80\\xa7\\xe4\\xbf\\xae\\xe9\\xa5\\xb0\\xe7\\xac\\xa6/1.sol\":831:901  function attack3()public payable{... */\n        tag_32:\n            /* \"shoot/2/\\xe5\\x8f\\xaf\\xe8\\xa7\\x81\\xe6\\x80\\xa7\\xe4\\xbf\\xae\\xe9\\xa5\\xb0\\xe7\\xac\\xa6/1.sol\":874:877  fun */\n          0x00\n          dup1\n          sload\n          swap1\n          0x0100\n          exp\n          swap1\n          div\n          0xffffffffffffffffffffffffffffffffffffffff\n          and\n            /* \"shoot/2/\\xe5\\x8f\\xaf\\xe8\\xa7\\x81\\xe6\\x80\\xa7\\xe4\\xbf\\xae\\xe9\\xa5\\xb0\\xe7\\xac\\xa6/1.sol\":874:881  fun.pul */\n          0xffffffffffffffffffffffffffffffffffffffff\n          and\n          0xc58a455b\n            /* \"shoot/2/\\xe5\\x8f\\xaf\\xe8\\xa7\\x81\\xe6\\x80\\xa7\\xe4\\xbf\\xae\\xe9\\xa5\\xb0\\xe7\\xac\\xa6/1.sol\":874:883  fun.pul() */\n          mload(0x40)\n          dup2\n          0xffffffff\n          and\n          0xe0\n          shl\n          dup2\n          mstore\n          0x04\n          add\n          0x00\n          mload(0x40)\n          dup1\n          dup4\n          sub\n          dup2\n          0x00\n          dup8\n          dup1\n          extcodesize\n          iszero\n          dup1\n          iszero\n          tag_79\n          jumpi\n          0x00\n          dup1\n          revert\n        tag_79:\n          pop\n          gas\n          call\n          iszero\n          dup1\n          iszero\n          tag_81\n          jumpi\n          returndatasize\n          0x00\n          dup1\n          returndatacopy\n          revert(0x00, returndatasize)\n        tag_81:\n          pop\n          pop\n          pop\n          pop\n            /* \"shoot/2/\\xe5\\x8f\\xaf\\xe8\\xa7\\x81\\xe6\\x80\\xa7\\xe4\\xbf\\xae\\xe9\\xa5\\xb0\\xe7\\xac\\xa6/1.sol\":831:901  function attack3()public payable{... */\n          jump\t// out\n            /* \"shoot/2/\\xe5\\x8f\\xaf\\xe8\\xa7\\x81\\xe6\\x80\\xa7\\xe4\\xbf\\xae\\xe9\\xa5\\xb0\\xe7\\xac\\xa6/1.sol\":984:1044  function attack5()public payable{... */\n        tag_34:\n            /* \"shoot/2/\\xe5\\x8f\\xaf\\xe8\\xa7\\x81\\xe6\\x80\\xa7\\xe4\\xbf\\xae\\xe9\\xa5\\xb0\\xe7\\xac\\xa6/1.sol\":1027:1030  fun */\n          0x00\n          dup1\n          sload\n          swap1\n          0x0100\n          exp\n          swap1\n          div\n          0xffffffffffffffffffffffffffffffffffffffff\n          and\n            /* \"shoot/2/\\xe5\\x8f\\xaf\\xe8\\xa7\\x81\\xe6\\x80\\xa7\\xe4\\xbf\\xae\\xe9\\xa5\\xb0\\xe7\\xac\\xa6/1.sol\":1027:1034  fun.ext */\n          0xffffffffffffffffffffffffffffffffffffffff\n          and\n          0xcf9f23b5\n            /* \"shoot/2/\\xe5\\x8f\\xaf\\xe8\\xa7\\x81\\xe6\\x80\\xa7\\xe4\\xbf\\xae\\xe9\\xa5\\xb0\\xe7\\xac\\xa6/1.sol\":1027:1036  fun.ext() */\n          mload(0x40)\n          dup2\n          0xffffffff\n          and\n          0xe0\n          shl\n          dup2\n          mstore\n          0x04\n          add\n          0x00\n          mload(0x40)\n          dup1\n          dup4\n          sub\n          dup2\n          0x00\n          dup8\n          dup1\n          extcodesize\n          iszero\n          dup1\n          iszero\n          tag_83\n          jumpi\n          0x00\n          dup1\n          revert\n        tag_83:\n          pop\n          gas\n          call\n          iszero\n          dup1\n          iszero\n          tag_85\n          jumpi\n          returndatasize\n          0x00\n          dup1\n          returndatacopy\n          revert(0x00, returndatasize)\n        tag_85:\n          pop\n          pop\n          pop\n          pop\n            /* \"shoot/2/\\xe5\\x8f\\xaf\\xe8\\xa7\\x81\\xe6\\x80\\xa7\\xe4\\xbf\\xae\\xe9\\xa5\\xb0\\xe7\\xac\\xa6/1.sol\":984:1044  function attack5()public payable{... */\n          jump\t// out\n            /* \"shoot/2/\\xe5\\x8f\\xaf\\xe8\\xa7\\x81\\xe6\\x80\\xa7\\xe4\\xbf\\xae\\xe9\\xa5\\xb0\\xe7\\xac\\xa6/1.sol\":1050:1160  function attack6()public payable{... */\n        tag_36:\n            /* \"shoot/2/\\xe5\\x8f\\xaf\\xe8\\xa7\\x81\\xe6\\x80\\xa7\\xe4\\xbf\\xae\\xe9\\xa5\\xb0\\xe7\\xac\\xa6/1.sol\":1093:1096  fun */\n          0x00\n          dup1\n          sload\n          swap1\n          0x0100\n          exp\n          swap1\n          div\n          0xffffffffffffffffffffffffffffffffffffffff\n          and\n            /* \"shoot/2/\\xe5\\x8f\\xaf\\xe8\\xa7\\x81\\xe6\\x80\\xa7\\xe4\\xbf\\xae\\xe9\\xa5\\xb0\\xe7\\xac\\xa6/1.sol\":1093:1106  fun.flashLoan */\n          0xffffffffffffffffffffffffffffffffffffffff\n          and\n          0xe0232b42\n            /* \"shoot/2/\\xe5\\x8f\\xaf\\xe8\\xa7\\x81\\xe6\\x80\\xa7\\xe4\\xbf\\xae\\xe9\\xa5\\xb0\\xe7\\xac\\xa6/1.sol\":1115:1118  fun */\n          0x00\n          dup1\n          sload\n          swap1\n          0x0100\n          exp\n          swap1\n          div\n          0xffffffffffffffffffffffffffffffffffffffff\n          and\n            /* \"shoot/2/\\xe5\\x8f\\xaf\\xe8\\xa7\\x81\\xe6\\x80\\xa7\\xe4\\xbf\\xae\\xe9\\xa5\\xb0\\xe7\\xac\\xa6/1.sol\":1120:1121  0 */\n          0x00\n            /* \"shoot/2/\\xe5\\x8f\\xaf\\xe8\\xa7\\x81\\xe6\\x80\\xa7\\xe4\\xbf\\xae\\xe9\\xa5\\xb0\\xe7\\xac\\xa6/1.sol\":1122:1130  figure() */\n          tag_87\n            /* \"shoot/2/\\xe5\\x8f\\xaf\\xe8\\xa7\\x81\\xe6\\x80\\xa7\\xe4\\xbf\\xae\\xe9\\xa5\\xb0\\xe7\\xac\\xa6/1.sol\":1122:1128  figure */\n          tag_16\n            /* \"shoot/2/\\xe5\\x8f\\xaf\\xe8\\xa7\\x81\\xe6\\x80\\xa7\\xe4\\xbf\\xae\\xe9\\xa5\\xb0\\xe7\\xac\\xa6/1.sol\":1122:1130  figure() */\n          jump\t// in\n        tag_87:\n            /* \"shoot/2/\\xe5\\x8f\\xaf\\xe8\\xa7\\x81\\xe6\\x80\\xa7\\xe4\\xbf\\xae\\xe9\\xa5\\xb0\\xe7\\xac\\xa6/1.sol\":1093:1131  fun.flashLoan(address(fun),0,figure()) */\n          mload(0x40)\n          dup5\n          0xffffffff\n          and\n          0xe0\n          shl\n          dup2\n          mstore\n          0x04\n          add\n          tag_88\n          swap4\n          swap3\n          swap2\n          swap1\n          tag_62\n          jump\t// in\n        tag_88:\n          0x00\n          mload(0x40)\n          dup1\n          dup4\n          sub\n          dup2\n          0x00\n          dup8\n          dup1\n          extcodesize\n          iszero\n          dup1\n          iszero\n          tag_89\n          jumpi\n          0x00\n          dup1\n          revert\n        tag_89:\n          pop\n          gas\n          call\n          iszero\n          dup1\n          iszero\n          tag_91\n          jumpi\n          returndatasize\n          0x00\n          dup1\n          returndatacopy\n          revert(0x00, returndatasize)\n        tag_91:\n          pop\n          pop\n          pop\n          pop\n            /* \"shoot/2/\\xe5\\x8f\\xaf\\xe8\\xa7\\x81\\xe6\\x80\\xa7\\xe4\\xbf\\xae\\xe9\\xa5\\xb0\\xe7\\xac\\xa6/1.sol\":1142:1152  complete() */\n          tag_92\n            /* \"shoot/2/\\xe5\\x8f\\xaf\\xe8\\xa7\\x81\\xe6\\x80\\xa7\\xe4\\xbf\\xae\\xe9\\xa5\\xb0\\xe7\\xac\\xa6/1.sol\":1142:1150  complete */\n          tag_23\n            /* \"shoot/2/\\xe5\\x8f\\xaf\\xe8\\xa7\\x81\\xe6\\x80\\xa7\\xe4\\xbf\\xae\\xe9\\xa5\\xb0\\xe7\\xac\\xa6/1.sol\":1142:1152  complete() */\n          jump\t// in\n        tag_92:\n            /* \"shoot/2/\\xe5\\x8f\\xaf\\xe8\\xa7\\x81\\xe6\\x80\\xa7\\xe4\\xbf\\xae\\xe9\\xa5\\xb0\\xe7\\xac\\xa6/1.sol\":1050:1160  function attack6()public payable{... */\n          jump\t// out\n            /* \"#utility.yul\":7:105   */\n        tag_93:\n            /* \"#utility.yul\":58:64   */\n          0x00\n            /* \"#utility.yul\":92:97   */\n          dup2\n            /* \"#utility.yul\":86:98   */\n          mload\n            /* \"#utility.yul\":76:98   */\n          swap1\n          pop\n            /* \"#utility.yul\":7:105   */\n          swap2\n          swap1\n          pop\n          jump\t// out\n            /* \"#utility.yul\":111:279   */\n        tag_94:\n            /* \"#utility.yul\":194:205   */\n          0x00\n            /* \"#utility.yul\":228:234   */\n          dup3\n            /* \"#utility.yul\":223:226   */\n          dup3\n            /* \"#utility.yul\":216:235   */\n          mstore\n            /* \"#utility.yul\":268:272   */\n          0x20\n            /* \"#utility.yul\":263:266   */\n          dup3\n            /* \"#utility.yul\":259:273   */\n          add\n            /* \"#utility.yul\":244:273   */\n          swap1\n          pop\n            /* \"#utility.yul\":111:279   */\n          swap3\n          swap2\n          pop\n          pop\n          jump\t// out\n            /* \"#utility.yul\":285:531   */\n        tag_95:\n            /* \"#utility.yul\":366:367   */\n          0x00\n            /* \"#utility.yul\":376:489   */\n        tag_120:\n            /* \"#utility.yul\":390:396   */\n          dup4\n            /* \"#utility.yul\":387:388   */\n          dup2\n            /* \"#utility.yul\":384:397   */\n          lt\n            /* \"#utility.yul\":376:489   */\n          iszero\n          tag_122\n          jumpi\n            /* \"#utility.yul\":475:476   */\n          dup1\n            /* \"#utility.yul\":470:473   */\n          dup3\n            /* \"#utility.yul\":466:477   */\n          add\n            /* \"#utility.yul\":460:478   */\n          mload\n            /* \"#utility.yul\":456:457   */\n          dup2\n            /* \"#utility.yul\":451:454   */\n          dup5\n            /* \"#utility.yul\":447:458   */\n          add\n            /* \"#utility.yul\":440:479   */\n          mstore\n            /* \"#utility.yul\":412:414   */\n          0x20\n            /* \"#utility.yul\":409:410   */\n          dup2\n            /* \"#utility.yul\":405:415   */\n          add\n            /* \"#utility.yul\":400:415   */\n          swap1\n          pop\n            /* \"#utility.yul\":376:489   */\n          jump(tag_120)\n        tag_122:\n            /* \"#utility.yul\":523:524   */\n          0x00\n            /* \"#utility.yul\":514:520   */\n          dup5\n            /* \"#utility.yul\":509:512   */\n          dup5\n            /* \"#utility.yul\":505:521   */\n          add\n            /* \"#utility.yul\":498:525   */\n          mstore\n            /* \"#utility.yul\":347:531   */\n          pop\n            /* \"#utility.yul\":285:531   */\n          pop\n          pop\n          pop\n          jump\t// out\n            /* \"#utility.yul\":537:639   */\n        tag_96:\n            /* \"#utility.yul\":578:584   */\n          0x00\n            /* \"#utility.yul\":629:631   */\n          0x1f\n            /* \"#utility.yul\":625:632   */\n          not\n            /* \"#utility.yul\":620:622   */\n          0x1f\n            /* \"#utility.yul\":613:618   */\n          dup4\n            /* \"#utility.yul\":609:623   */\n          add\n            /* \"#utility.yul\":605:633   */\n          and\n            /* \"#utility.yul\":595:633   */\n          swap1\n          pop\n            /* \"#utility.yul\":537:639   */\n          swap2\n          swap1\n          pop\n          jump\t// out\n            /* \"#utility.yul\":645:1018   */\n        tag_97:\n            /* \"#utility.yul\":731:734   */\n          0x00\n            /* \"#utility.yul\":759:797   */\n          tag_125\n            /* \"#utility.yul\":791:796   */\n          dup3\n            /* \"#utility.yul\":759:797   */\n          tag_93\n          jump\t// in\n        tag_125:\n            /* \"#utility.yul\":813:883   */\n          tag_126\n            /* \"#utility.yul\":876:882   */\n          dup2\n            /* \"#utility.yul\":871:874   */\n          dup6\n            /* \"#utility.yul\":813:883   */\n          tag_94\n          jump\t// in\n        tag_126:\n            /* \"#utility.yul\":806:883   */\n          swap4\n          pop\n            /* \"#utility.yul\":892:957   */\n          tag_127\n            /* \"#utility.yul\":950:956   */\n          dup2\n            /* \"#utility.yul\":945:948   */\n          dup6\n            /* \"#utility.yul\":938:942   */\n          0x20\n            /* \"#utility.yul\":931:936   */\n          dup7\n            /* \"#utility.yul\":927:943   */\n          add\n            /* \"#utility.yul\":892:957   */\n          tag_95\n          jump\t// in\n        tag_127:\n            /* \"#utility.yul\":982:1011   */\n          tag_128\n            /* \"#utility.yul\":1004:1010   */\n          dup2\n            /* \"#utility.yul\":982:1011   */\n          tag_96\n          jump\t// in\n        tag_128:\n            /* \"#utility.yul\":977:980   */\n          dup5\n            /* \"#utility.yul\":973:1012   */\n          add\n            /* \"#utility.yul\":966:1012   */\n          swap2\n          pop\n            /* \"#utility.yul\":735:1018   */\n          pop\n            /* \"#utility.yul\":645:1018   */\n          swap3\n          swap2\n          pop\n          pop\n          jump\t// out\n            /* \"#utility.yul\":1024:1333   */\n        tag_18:\n            /* \"#utility.yul\":1135:1139   */\n          0x00\n            /* \"#utility.yul\":1173:1175   */\n          0x20\n            /* \"#utility.yul\":1162:1171   */\n          dup3\n            /* \"#utility.yul\":1158:1176   */\n          add\n            /* \"#utility.yul\":1150:1176   */\n          swap1\n          pop\n            /* \"#utility.yul\":1222:1231   */\n          dup2\n            /* \"#utility.yul\":1216:1220   */\n          dup2\n            /* \"#utility.yul\":1212:1232   */\n          sub\n            /* \"#utility.yul\":1208:1209   */\n          0x00\n            /* \"#utility.yul\":1197:1206   */\n          dup4\n            /* \"#utility.yul\":1193:1210   */\n          add\n            /* \"#utility.yul\":1186:1233   */\n          mstore\n            /* \"#utility.yul\":1250:1326   */\n          tag_130\n            /* \"#utility.yul\":1321:1325   */\n          dup2\n            /* \"#utility.yul\":1312:1318   */\n          dup5\n            /* \"#utility.yul\":1250:1326   */\n          tag_97\n          jump\t// in\n        tag_130:\n            /* \"#utility.yul\":1242:1326   */\n          swap1\n          pop\n            /* \"#utility.yul\":1024:1333   */\n          swap3\n          swap2\n          pop\n          pop\n          jump\t// out\n            /* \"#utility.yul\":1339:1465   */\n        tag_98:\n            /* \"#utility.yul\":1376:1383   */\n          0x00\n            /* \"#utility.yul\":1416:1458   */\n          0xffffffffffffffffffffffffffffffffffffffff\n            /* \"#utility.yul\":1409:1414   */\n          dup3\n            /* \"#utility.yul\":1405:1459   */\n          and\n            /* \"#utility.yul\":1394:1459   */\n          swap1\n          pop\n            /* \"#utility.yul\":1339:1465   */\n          swap2\n          swap1\n          pop\n          jump\t// out\n            /* \"#utility.yul\":1471:1531   */\n        tag_99:\n            /* \"#utility.yul\":1499:1502   */\n          0x00\n            /* \"#utility.yul\":1520:1525   */\n          dup2\n            /* \"#utility.yul\":1513:1525   */\n          swap1\n          pop\n            /* \"#utility.yul\":1471:1531   */\n          swap2\n          swap1\n          pop\n          jump\t// out\n            /* \"#utility.yul\":1537:1679   */\n        tag_100:\n            /* \"#utility.yul\":1587:1596   */\n          0x00\n            /* \"#utility.yul\":1620:1673   */\n          tag_134\n            /* \"#utility.yul\":1638:1672   */\n          tag_135\n            /* \"#utility.yul\":1647:1671   */\n          tag_136\n            /* \"#utility.yul\":1665:1670   */\n          dup5\n            /* \"#utility.yul\":1647:1671   */\n          tag_98\n          jump\t// in\n        tag_136:\n            /* \"#utility.yul\":1638:1672   */\n          tag_99\n          jump\t// in\n        tag_135:\n            /* \"#utility.yul\":1620:1673   */\n          tag_98\n          jump\t// in\n        tag_134:\n            /* \"#utility.yul\":1607:1673   */\n          swap1\n          pop\n            /* \"#utility.yul\":1537:1679   */\n          swap2\n          swap1\n          pop\n          jump\t// out\n            /* \"#utility.yul\":1685:1819   */\n        tag_101:\n            /* \"#utility.yul\":1743:1752   */\n          0x00\n            /* \"#utility.yul\":1776:1813   */\n          tag_138\n            /* \"#utility.yul\":1807:1812   */\n          dup3\n            /* \"#utility.yul\":1776:1813   */\n          tag_100\n          jump\t// in\n        tag_138:\n            /* \"#utility.yul\":1763:1813   */\n          swap1\n          pop\n            /* \"#utility.yul\":1685:1819   */\n          swap2\n          swap1\n          pop\n          jump\t// out\n            /* \"#utility.yul\":1825:1980   */\n        tag_102:\n            /* \"#utility.yul\":1896:1905   */\n          0x00\n            /* \"#utility.yul\":1929:1974   */\n          tag_140\n            /* \"#utility.yul\":1968:1973   */\n          dup3\n            /* \"#utility.yul\":1929:1974   */\n          tag_101\n          jump\t// in\n        tag_140:\n            /* \"#utility.yul\":1916:1974   */\n          swap1\n          pop\n            /* \"#utility.yul\":1825:1980   */\n          swap2\n          swap1\n          pop\n          jump\t// out\n            /* \"#utility.yul\":1986:2159   */\n        tag_103:\n            /* \"#utility.yul\":2094:2152   */\n          tag_142\n            /* \"#utility.yul\":2146:2151   */\n          dup2\n            /* \"#utility.yul\":2094:2152   */\n          tag_102\n          jump\t// in\n        tag_142:\n            /* \"#utility.yul\":2089:2092   */\n          dup3\n            /* \"#utility.yul\":2082:2153   */\n          mstore\n            /* \"#utility.yul\":1986:2159   */\n          pop\n          pop\n          jump\t// out\n            /* \"#utility.yul\":2165:2429   */\n        tag_28:\n            /* \"#utility.yul\":2279:2283   */\n          0x00\n            /* \"#utility.yul\":2317:2319   */\n          0x20\n            /* \"#utility.yul\":2306:2315   */\n          dup3\n            /* \"#utility.yul\":2302:2320   */\n          add\n            /* \"#utility.yul\":2294:2320   */\n          swap1\n          pop\n            /* \"#utility.yul\":2330:2422   */\n          tag_144\n            /* \"#utility.yul\":2419:2420   */\n          0x00\n            /* \"#utility.yul\":2408:2417   */\n          dup4\n            /* \"#utility.yul\":2404:2421   */\n          add\n            /* \"#utility.yul\":2395:2401   */\n          dup5\n            /* \"#utility.yul\":2330:2422   */\n          tag_103\n          jump\t// in\n        tag_144:\n            /* \"#utility.yul\":2165:2429   */\n          swap3\n          swap2\n          pop\n          pop\n          jump\t// out\n            /* \"#utility.yul\":2435:2582   */\n        tag_104:\n            /* \"#utility.yul\":2536:2547   */\n          0x00\n            /* \"#utility.yul\":2573:2576   */\n          dup2\n            /* \"#utility.yul\":2558:2576   */\n          swap1\n          pop\n            /* \"#utility.yul\":2435:2582   */\n          swap3\n          swap2\n          pop\n          pop\n          jump\t// out\n            /* \"#utility.yul\":2588:2702   */\n        tag_105:\n          pop\n          jump\t// out\n            /* \"#utility.yul\":2708:3106   */\n        tag_106:\n            /* \"#utility.yul\":2867:2870   */\n          0x00\n            /* \"#utility.yul\":2888:2971   */\n          tag_148\n            /* \"#utility.yul\":2969:2970   */\n          0x00\n            /* \"#utility.yul\":2964:2967   */\n          dup4\n            /* \"#utility.yul\":2888:2971   */\n          tag_104\n          jump\t// in\n        tag_148:\n            /* \"#utility.yul\":2881:2971   */\n          swap2\n          pop\n            /* \"#utility.yul\":2980:3073   */\n          tag_149\n            /* \"#utility.yul\":3069:3072   */\n          dup3\n            /* \"#utility.yul\":2980:3073   */\n          tag_105\n          jump\t// in\n        tag_149:\n            /* \"#utility.yul\":3098:3099   */\n          0x00\n            /* \"#utility.yul\":3093:3096   */\n          dup3\n            /* \"#utility.yul\":3089:3100   */\n          add\n            /* \"#utility.yul\":3082:3100   */\n          swap1\n          pop\n            /* \"#utility.yul\":2708:3106   */\n          swap2\n          swap1\n          pop\n          jump\t// out\n            /* \"#utility.yul\":3112:3491   */\n        tag_44:\n            /* \"#utility.yul\":3296:3299   */\n          0x00\n            /* \"#utility.yul\":3318:3465   */\n          tag_151\n            /* \"#utility.yul\":3461:3464   */\n          dup3\n            /* \"#utility.yul\":3318:3465   */\n          tag_106\n          jump\t// in\n        tag_151:\n            /* \"#utility.yul\":3311:3465   */\n          swap2\n          pop\n            /* \"#utility.yul\":3482:3485   */\n          dup2\n            /* \"#utility.yul\":3475:3485   */\n          swap1\n          pop\n            /* \"#utility.yul\":3112:3491   */\n          swap2\n          swap1\n          pop\n          jump\t// out\n            /* \"#utility.yul\":3497:3666   */\n        tag_107:\n            /* \"#utility.yul\":3581:3592   */\n          0x00\n            /* \"#utility.yul\":3615:3621   */\n          dup3\n            /* \"#utility.yul\":3610:3613   */\n          dup3\n            /* \"#utility.yul\":3603:3622   */\n          mstore\n            /* \"#utility.yul\":3655:3659   */\n          0x20\n            /* \"#utility.yul\":3650:3653   */\n          dup3\n            /* \"#utility.yul\":3646:3660   */\n          add\n            /* \"#utility.yul\":3631:3660   */\n          swap1\n          pop\n            /* \"#utility.yul\":3497:3666   */\n          swap3\n          swap2\n          pop\n          pop\n          jump\t// out\n            /* \"#utility.yul\":3672:3833   */\n        tag_108:\n            /* \"#utility.yul\":3812:3825   */\n          0x63616c6c206661696c6564000000000000000000000000000000000000000000\n            /* \"#utility.yul\":3808:3809   */\n          0x00\n            /* \"#utility.yul\":3800:3806   */\n          dup3\n            /* \"#utility.yul\":3796:3810   */\n          add\n            /* \"#utility.yul\":3789:3826   */\n          mstore\n            /* \"#utility.yul\":3672:3833   */\n          pop\n          jump\t// out\n            /* \"#utility.yul\":3839:4205   */\n        tag_109:\n            /* \"#utility.yul\":3981:3984   */\n          0x00\n            /* \"#utility.yul\":4002:4069   */\n          tag_155\n            /* \"#utility.yul\":4066:4068   */\n          0x0b\n            /* \"#utility.yul\":4061:4064   */\n          dup4\n            /* \"#utility.yul\":4002:4069   */\n          tag_107\n          jump\t// in\n        tag_155:\n            /* \"#utility.yul\":3995:4069   */\n          swap2\n          pop\n            /* \"#utility.yul\":4078:4171   */\n          tag_156\n            /* \"#utility.yul\":4167:4170   */\n          dup3\n            /* \"#utility.yul\":4078:4171   */\n          tag_108\n          jump\t// in\n        tag_156:\n            /* \"#utility.yul\":4196:4198   */\n          0x20\n            /* \"#utility.yul\":4191:4194   */\n          dup3\n            /* \"#utility.yul\":4187:4199   */\n          add\n            /* \"#utility.yul\":4180:4199   */\n          swap1\n          pop\n            /* \"#utility.yul\":3839:4205   */\n          swap2\n          swap1\n          pop\n          jump\t// out\n            /* \"#utility.yul\":4211:4630   */\n        tag_50:\n            /* \"#utility.yul\":4377:4381   */\n          0x00\n            /* \"#utility.yul\":4415:4417   */\n          0x20\n            /* \"#utility.yul\":4404:4413   */\n          dup3\n            /* \"#utility.yul\":4400:4418   */\n          add\n            /* \"#utility.yul\":4392:4418   */\n          swap1\n          pop\n            /* \"#utility.yul\":4464:4473   */\n          dup2\n            /* \"#utility.yul\":4458:4462   */\n          dup2\n            /* \"#utility.yul\":4454:4474   */\n          sub\n            /* \"#utility.yul\":4450:4451   */\n          0x00\n            /* \"#utility.yul\":4439:4448   */\n          dup4\n            /* \"#utility.yul\":4435:4452   */\n          add\n            /* \"#utility.yul\":4428:4475   */\n          mstore\n            /* \"#utility.yul\":4492:4623   */\n          tag_158\n            /* \"#utility.yul\":4618:4622   */\n          dup2\n            /* \"#utility.yul\":4492:4623   */\n          tag_109\n          jump\t// in\n        tag_158:\n            /* \"#utility.yul\":4484:4623   */\n          swap1\n          pop\n            /* \"#utility.yul\":4211:4630   */\n          swap2\n          swap1\n          pop\n          jump\t// out\n            /* \"#utility.yul\":4636:4732   */\n        tag_110:\n            /* \"#utility.yul\":4673:4680   */\n          0x00\n            /* \"#utility.yul\":4702:4726   */\n          tag_160\n            /* \"#utility.yul\":4720:4725   */\n          dup3\n            /* \"#utility.yul\":4702:4726   */\n          tag_98\n          jump\t// in\n        tag_160:\n            /* \"#utility.yul\":4691:4726   */\n          swap1\n          pop\n            /* \"#utility.yul\":4636:4732   */\n          swap2\n          swap1\n          pop\n          jump\t// out\n            /* \"#utility.yul\":4738:4856   */\n        tag_111:\n            /* \"#utility.yul\":4825:4849   */\n          tag_162\n            /* \"#utility.yul\":4843:4848   */\n          dup2\n            /* \"#utility.yul\":4825:4849   */\n          tag_110\n          jump\t// in\n        tag_162:\n            /* \"#utility.yul\":4820:4823   */\n          dup3\n            /* \"#utility.yul\":4813:4850   */\n          mstore\n            /* \"#utility.yul\":4738:4856   */\n          pop\n          pop\n          jump\t// out\n            /* \"#utility.yul\":4862:4947   */\n        tag_112:\n            /* \"#utility.yul\":4907:4914   */\n          0x00\n            /* \"#utility.yul\":4936:4941   */\n          dup2\n            /* \"#utility.yul\":4925:4941   */\n          swap1\n          pop\n            /* \"#utility.yul\":4862:4947   */\n          swap2\n          swap1\n          pop\n          jump\t// out\n            /* \"#utility.yul\":4953:5030   */\n        tag_113:\n            /* \"#utility.yul\":4990:4997   */\n          0x00\n            /* \"#utility.yul\":5019:5024   */\n          dup2\n            /* \"#utility.yul\":5008:5024   */\n          swap1\n          pop\n            /* \"#utility.yul\":4953:5030   */\n          swap2\n          swap1\n          pop\n          jump\t// out\n            /* \"#utility.yul\":5036:5194   */\n        tag_114:\n            /* \"#utility.yul\":5094:5103   */\n          0x00\n            /* \"#utility.yul\":5127:5188   */\n          tag_166\n            /* \"#utility.yul\":5145:5187   */\n          tag_167\n            /* \"#utility.yul\":5154:5186   */\n          tag_168\n            /* \"#utility.yul\":5180:5185   */\n          dup5\n            /* \"#utility.yul\":5154:5186   */\n          tag_112\n          jump\t// in\n        tag_168:\n            /* \"#utility.yul\":5145:5187   */\n          tag_99\n          jump\t// in\n        tag_167:\n            /* \"#utility.yul\":5127:5188   */\n          tag_113\n          jump\t// in\n        tag_166:\n            /* \"#utility.yul\":5114:5188   */\n          swap1\n          pop\n            /* \"#utility.yul\":5036:5194   */\n          swap2\n          swap1\n          pop\n          jump\t// out\n            /* \"#utility.yul\":5200:5347   */\n        tag_115:\n            /* \"#utility.yul\":5295:5340   */\n          tag_170\n            /* \"#utility.yul\":5334:5339   */\n          dup2\n            /* \"#utility.yul\":5295:5340   */\n          tag_114\n          jump\t// in\n        tag_170:\n            /* \"#utility.yul\":5290:5293   */\n          dup3\n            /* \"#utility.yul\":5283:5341   */\n          mstore\n            /* \"#utility.yul\":5200:5347   */\n          pop\n          pop\n          jump\t// out\n            /* \"#utility.yul\":5353:5898   */\n        tag_62:\n            /* \"#utility.yul\":5528:5532   */\n          0x00\n            /* \"#utility.yul\":5566:5568   */\n          0x60\n            /* \"#utility.yul\":5555:5564   */\n          dup3\n            /* \"#utility.yul\":5551:5569   */\n          add\n            /* \"#utility.yul\":5543:5569   */\n          swap1\n          pop\n            /* \"#utility.yul\":5579:5650   */\n          tag_172\n            /* \"#utility.yul\":5647:5648   */\n          0x00\n            /* \"#utility.yul\":5636:5645   */\n          dup4\n            /* \"#utility.yul\":5632:5649   */\n          add\n            /* \"#utility.yul\":5623:5629   */\n          dup7\n            /* \"#utility.yul\":5579:5650   */\n          tag_111\n          jump\t// in\n        tag_172:\n            /* \"#utility.yul\":5660:5740   */\n          tag_173\n            /* \"#utility.yul\":5736:5738   */\n          0x20\n            /* \"#utility.yul\":5725:5734   */\n          dup4\n            /* \"#utility.yul\":5721:5739   */\n          add\n            /* \"#utility.yul\":5712:5718   */\n          dup6\n            /* \"#utility.yul\":5660:5740   */\n          tag_115\n          jump\t// in\n        tag_173:\n            /* \"#utility.yul\":5787:5796   */\n          dup2\n            /* \"#utility.yul\":5781:5785   */\n          dup2\n            /* \"#utility.yul\":5777:5797   */\n          sub\n            /* \"#utility.yul\":5772:5774   */\n          0x40\n            /* \"#utility.yul\":5761:5770   */\n          dup4\n            /* \"#utility.yul\":5757:5775   */\n          add\n            /* \"#utility.yul\":5750:5798   */\n          mstore\n            /* \"#utility.yul\":5815:5891   */\n          tag_174\n            /* \"#utility.yul\":5886:5890   */\n          dup2\n            /* \"#utility.yul\":5877:5883   */\n          dup5\n            /* \"#utility.yul\":5815:5891   */\n          tag_97\n          jump\t// in\n        tag_174:\n            /* \"#utility.yul\":5807:5891   */\n          swap1\n          pop\n            /* \"#utility.yul\":5353:5898   */\n          swap5\n          swap4\n          pop\n          pop\n          pop\n          pop\n          jump\t// out\n\n        auxdata: 0xa2646970667358221220a14c89e1188773921603b9c4db526faf7613493a0c9caa4b0af5136c873a27b564736f6c63430008150033\n    }\n}\n",
				"bytecode": {
					"linkReferences": {},
					"object": "608060405260405180602001620000169062000150565b6020820181038252601f19601f82011660405250600290816200003a9190620003c2565b5034801562000047575f80fd5b50604051620026323803806200263283398181016040528101906200006d91906200050b565b8060015f6101000a81548173ffffffffffffffffffffffffffffffffffffffff021916908373ffffffffffffffffffffffffffffffffffffffff16021790555060405180602001620000bf9062000150565b6020820181038252601f19601f8201166040525060015f9054906101000a900473ffffffffffffffffffffffffffffffffffffffff166040516020016200010791906200054c565b60405160208183030381529060405260405160200162000129929190620005d1565b60405160208183030381529060405260039081620001489190620003c2565b5050620005f8565b610c188062001a1a83390190565b5f81519050919050565b7f4e487b71000000000000000000000000000000000000000000000000000000005f52604160045260245ffd5b7f4e487b71000000000000000000000000000000000000000000000000000000005f52602260045260245ffd5b5f6002820490506001821680620001da57607f821691505b602082108103620001f057620001ef62000195565b5b50919050565b5f819050815f5260205f209050919050565b5f6020601f8301049050919050565b5f82821b905092915050565b5f60088302620002547fffffffffffffffffffffffffffffffffffffffffffffffffffffffffffffffff8262000217565b62000260868362000217565b95508019841693508086168417925050509392505050565b5f819050919050565b5f819050919050565b5f620002aa620002a46200029e8462000278565b62000281565b62000278565b9050919050565b5f819050919050565b620002c5836200028a565b620002dd620002d482620002b1565b84845462000223565b825550505050565b5f90565b620002f3620002e5565b62000300818484620002ba565b505050565b5b8181101562000327576200031b5f82620002e9565b60018101905062000306565b5050565b601f82111562000376576200034081620001f6565b6200034b8462000208565b810160208510156200035b578190505b620003736200036a8562000208565b83018262000305565b50505b505050565b5f82821c905092915050565b5f620003985f19846008026200037b565b1980831691505092915050565b5f620003b2838362000387565b9150826002028217905092915050565b620003cd826200015e565b67ffffffffffffffff811115620003e957620003e862000168565b5b620003f58254620001c2565b620004028282856200032b565b5f60209050601f83116001811462000438575f841562000423578287015190505b6200042f8582620003a5565b8655506200049e565b601f1984166200044886620001f6565b5f5b8281101562000471578489015182556001820191506020850194506020810190506200044a565b868310156200049157848901516200048d601f89168262000387565b8355505b6001600288020188555050505b505050505050565b5f80fd5b5f73ffffffffffffffffffffffffffffffffffffffff82169050919050565b5f620004d582620004aa565b9050919050565b620004e781620004c9565b8114620004f2575f80fd5b50565b5f815190506200050581620004dc565b92915050565b5f60208284031215620005235762000522620004a6565b5b5f6200053284828501620004f5565b91505092915050565b6200054681620004c9565b82525050565b5f602082019050620005615f8301846200053b565b92915050565b5f81905092915050565b5f5b838110156200059057808201518184015260208101905062000573565b5f8484015250505050565b5f620005a7826200015e565b620005b3818562000567565b9350620005c581856020860162000571565b80840191505092915050565b5f620005de82856200059b565b9150620005ec82846200059b565b91508190509392505050565b61141480620006065f395ff3fe608060405234801561000f575f80fd5b5060043610610060575f3560e01c80630560280e14610064578063494a1ae514610082578063c61b20e2146100a0578063c878eb3b146100be578063d13319c4146100dc578063f905c15a146100fa575b5f80fd5b61006c610104565b604051610079919061042e565b60405180910390f35b61008a610190565b6040516100979190610466565b60405180910390f35b6100a861022d565b6040516100b591906104f9565b60405180910390f35b6100c6610250565b6040516100d3919061042e565b60405180910390f35b6100e46102dc565b6040516100f19190610466565b60405180910390f35b6101026102f9565b005b600280546101119061053f565b80601f016020809104026020016040519081016040528092919081815260200182805461013d9061053f565b80156101885780601f1061015f57610100808354040283529160200191610188565b820191905f5260205f20905b81548152906001019060200180831161016b57829003601f168201915b505050505081565b5f805f805f90505b5f81106102225760ff30845f1b60036040516101b4919061060b565b60405180910390206040516020016101cf94939291906106d7565b604051602081830303815290604052805190602001205f1c915060c460ff1660ff831673ffffffffffffffffffffffffffffffffffffffff1603156102225760018361021b919061075a565b9250610198565b50815f1b9250505090565b5f8054906101000a900473ffffffffffffffffffffffffffffffffffffffff1681565b6003805461025d9061053f565b80601f01602080910402602001604051908101604052809291908181526020018280546102899061053f565b80156102d45780601f106102ab576101008083540402835291602001916102d4565b820191905f5260205f20905b8154815290600101906020018083116102b757829003601f168201915b505050505081565b5f60036040516102ec919061060b565b6040518091039020905090565b610301610190565b60015f9054906101000a900473ffffffffffffffffffffffffffffffffffffffff1660405161032f90610397565b61033991906107ad565b8190604051809103905ff5905080158015610356573d5f803e3d5ffd5b505f806101000a81548173ffffffffffffffffffffffffffffffffffffffff021916908373ffffffffffffffffffffffffffffffffffffffff160217905550565b610c18806107c783390190565b5f81519050919050565b5f82825260208201905092915050565b5f5b838110156103db5780820151818401526020810190506103c0565b5f8484015250505050565b5f601f19601f8301169050919050565b5f610400826103a4565b61040a81856103ae565b935061041a8185602086016103be565b610423816103e6565b840191505092915050565b5f6020820190508181035f83015261044681846103f6565b905092915050565b5f819050919050565b6104608161044e565b82525050565b5f6020820190506104795f830184610457565b92915050565b5f73ffffffffffffffffffffffffffffffffffffffff82169050919050565b5f819050919050565b5f6104c16104bc6104b78461047f565b61049e565b61047f565b9050919050565b5f6104d2826104a7565b9050919050565b5f6104e3826104c8565b9050919050565b6104f3816104d9565b82525050565b5f60208201905061050c5f8301846104ea565b92915050565b7f4e487b71000000000000000000000000000000000000000000000000000000005f52602260045260245ffd5b5f600282049050600182168061055657607f821691505b60208210810361056957610568610512565b5b50919050565b5f81905092915050565b5f819050815f5260205f209050919050565b5f81546105978161053f565b6105a1818661056f565b9450600182165f81146105bb57600181146105d057610602565b60ff1983168652811515820286019350610602565b6105d985610579565b5f5b838110156105fa578154818901526001820191506020810190506105db565b838801955050505b50505092915050565b5f610616828461058b565b915081905092915050565b5f60ff82169050919050565b5f8160f81b9050919050565b5f6106438261062d565b9050919050565b61065b61065682610621565b610639565b82525050565b5f61066b8261047f565b9050919050565b5f8160601b9050919050565b5f61068882610672565b9050919050565b5f6106998261067e565b9050919050565b6106b16106ac82610661565b61068f565b82525050565b5f819050919050565b6106d16106cc8261044e565b6106b7565b82525050565b5f6106e2828761064a565b6001820191506106f282866106a0565b60148201915061070282856106c0565b60208201915061071282846106c0565b60208201915081905095945050505050565b5f819050919050565b7f4e487b71000000000000000000000000000000000000000000000000000000005f52601160045260245ffd5b5f61076482610724565b915061076f83610724565b92508282019050808211156107875761078661072d565b5b92915050565b5f6107978261047f565b9050919050565b6107a78161078d565b82525050565b5f6020820190506107c05f83018461079e565b9291505056fe608060405234801561000f575f80fd5b50604051610c18380380610c18833981810160405281019061003191906100d4565b805f806101000a81548173ffffffffffffffffffffffffffffffffffffffff021916908373ffffffffffffffffffffffffffffffffffffffff160217905550506100ff565b5f80fd5b5f73ffffffffffffffffffffffffffffffffffffffff82169050919050565b5f6100a38261007a565b9050919050565b6100b381610099565b81146100bd575f80fd5b50565b5f815190506100ce816100aa565b92915050565b5f602082840312156100e9576100e8610076565b5b5f6100f6848285016100c0565b91505092915050565b610b0c8061010c5f395ff3fe608060405260043610610085575f3560e01c8063946644cd11610058578063946644cd146100dd5780639fcec69814610107578063b2b9f26d14610111578063dc5bb9a11461011b578063e48320091461012557610085565b806312a50b251461008957806313b6ae4c14610093578063419efc03146100bd578063522e1177146100c7575b5f80fd5b61009161012f565b005b34801561009e575f80fd5b506100a76101ab565b6040516100b491906108cc565b60405180910390f35b6100c5610235565b005b3480156100d2575f80fd5b506100db610526565b005b3480156100e8575f80fd5b506100f16105a2565b6040516100fe9190610966565b60405180910390f35b61010f6105c5565b005b610119610691565b005b61012361070d565b005b61012d610789565b005b5f8054906101000a900473ffffffffffffffffffffffffffffffffffffffff1673ffffffffffffffffffffffffffffffffffffffff166319c43a016040518163ffffffff1660e01b81526004015f604051808303815f87803b158015610193575f80fd5b505af11580156101a5573d5f803e3d5ffd5b50505050565b60606040516024016040516020818303038152906040527fe09966a8000000000000000000000000000000000000000000000000000000007bffffffffffffffffffffffffffffffffffffffffffffffffffffffff19166020820180517bffffffffffffffffffffffffffffffffffffffffffffffffffffffff8381831617835250505050905090565b5f805f9054906101000a900473ffffffffffffffffffffffffffffffffffffffff1673ffffffffffffffffffffffffffffffffffffffff16606460405161027b906109ac565b5f6040518083038185875af1925050503d805f81146102b5576040519150601f19603f3d011682016040523d82523d5f602084013e6102ba565b606091505b50509050806102fe576040517f08c379a00000000000000000000000000000000000000000000000000000000081526004016102f590610a1a565b60405180910390fd5b5f8054906101000a900473ffffffffffffffffffffffffffffffffffffffff1673ffffffffffffffffffffffffffffffffffffffff1663c58a455b6040518163ffffffff1660e01b81526004015f604051808303815f87803b158015610362575f80fd5b505af1158015610374573d5f803e3d5ffd5b505050505f8054906101000a900473ffffffffffffffffffffffffffffffffffffffff1673ffffffffffffffffffffffffffffffffffffffff166319c43a016040518163ffffffff1660e01b81526004015f604051808303815f87803b1580156103dc575f80fd5b505af11580156103ee573d5f803e3d5ffd5b505050505f8054906101000a900473ffffffffffffffffffffffffffffffffffffffff1673ffffffffffffffffffffffffffffffffffffffff1663cf9f23b56040518163ffffffff1660e01b81526004015f604051808303815f87803b158015610456575f80fd5b505af1158015610468573d5f803e3d5ffd5b505050505f8054906101000a900473ffffffffffffffffffffffffffffffffffffffff1673ffffffffffffffffffffffffffffffffffffffff1663e0232b425f8054906101000a900473ffffffffffffffffffffffffffffffffffffffff165f6104d06101ab565b6040518463ffffffff1660e01b81526004016104ee93929190610a9a565b5f604051808303815f87803b158015610505575f80fd5b505af1158015610517573d5f803e3d5ffd5b50505050610523610526565b50565b5f8054906101000a900473ffffffffffffffffffffffffffffffffffffffff1673ffffffffffffffffffffffffffffffffffffffff1663fa391c646040518163ffffffff1660e01b81526004015f604051808303815f87803b15801561058a575f80fd5b505af115801561059c573d5f803e3d5ffd5b50505050565b5f8054906101000a900473ffffffffffffffffffffffffffffffffffffffff1681565b5f805f9054906101000a900473ffffffffffffffffffffffffffffffffffffffff1673ffffffffffffffffffffffffffffffffffffffff16606460405161060b906109ac565b5f6040518083038185875af1925050503d805f8114610645576040519150601f19603f3d011682016040523d82523d5f602084013e61064a565b606091505b505090508061068e576040517f08c379a000000000000000000000000000000000000000000000000000000000815260040161068590610a1a565b60405180910390fd5b50565b5f8054906101000a900473ffffffffffffffffffffffffffffffffffffffff1673ffffffffffffffffffffffffffffffffffffffff1663c58a455b6040518163ffffffff1660e01b81526004015f604051808303815f87803b1580156106f5575f80fd5b505af1158015610707573d5f803e3d5ffd5b50505050565b5f8054906101000a900473ffffffffffffffffffffffffffffffffffffffff1673ffffffffffffffffffffffffffffffffffffffff1663cf9f23b56040518163ffffffff1660e01b81526004015f604051808303815f87803b158015610771575f80fd5b505af1158015610783573d5f803e3d5ffd5b50505050565b5f8054906101000a900473ffffffffffffffffffffffffffffffffffffffff1673ffffffffffffffffffffffffffffffffffffffff1663e0232b425f8054906101000a900473ffffffffffffffffffffffffffffffffffffffff165f6107ed6101ab565b6040518463ffffffff1660e01b815260040161080b93929190610a9a565b5f604051808303815f87803b158015610822575f80fd5b505af1158015610834573d5f803e3d5ffd5b50505050610840610526565b565b5f81519050919050565b5f82825260208201905092915050565b5f5b8381101561087957808201518184015260208101905061085e565b5f8484015250505050565b5f601f19601f8301169050919050565b5f61089e82610842565b6108a8818561084c565b93506108b881856020860161085c565b6108c181610884565b840191505092915050565b5f6020820190508181035f8301526108e48184610894565b905092915050565b5f73ffffffffffffffffffffffffffffffffffffffff82169050919050565b5f819050919050565b5f61092e610929610924846108ec565b61090b565b6108ec565b9050919050565b5f61093f82610914565b9050919050565b5f61095082610935565b9050919050565b61096081610946565b82525050565b5f6020820190506109795f830184610957565b92915050565b5f81905092915050565b50565b5f6109975f8361097f565b91506109a282610989565b5f82019050919050565b5f6109b68261098c565b9150819050919050565b5f82825260208201905092915050565b7f63616c6c206661696c65640000000000000000000000000000000000000000005f82015250565b5f610a04600b836109c0565b9150610a0f826109d0565b602082019050919050565b5f6020820190508181035f830152610a31816109f8565b9050919050565b5f610a42826108ec565b9050919050565b610a5281610a38565b82525050565b5f819050919050565b5f819050919050565b5f610a84610a7f610a7a84610a58565b61090b565b610a61565b9050919050565b610a9481610a6a565b82525050565b5f606082019050610aad5f830186610a49565b610aba6020830185610a8b565b8181036040830152610acc8184610894565b905094935050505056fea2646970667358221220a14c89e1188773921603b9c4db526faf7613493a0c9caa4b0af5136c873a27b564736f6c63430008150033a2646970667358221220f6f5d38490ce835e1b0df78760aa22e7252d711d6cf93747a72a10d108d6fa0064736f6c63430008150033608060405234801561000f575f80fd5b50604051610c18380380610c18833981810160405281019061003191906100d4565b805f806101000a81548173ffffffffffffffffffffffffffffffffffffffff021916908373ffffffffffffffffffffffffffffffffffffffff160217905550506100ff565b5f80fd5b5f73ffffffffffffffffffffffffffffffffffffffff82169050919050565b5f6100a38261007a565b9050919050565b6100b381610099565b81146100bd575f80fd5b50565b5f815190506100ce816100aa565b92915050565b5f602082840312156100e9576100e8610076565b5b5f6100f6848285016100c0565b91505092915050565b610b0c8061010c5f395ff3fe608060405260043610610085575f3560e01c8063946644cd11610058578063946644cd146100dd5780639fcec69814610107578063b2b9f26d14610111578063dc5bb9a11461011b578063e48320091461012557610085565b806312a50b251461008957806313b6ae4c14610093578063419efc03146100bd578063522e1177146100c7575b5f80fd5b61009161012f565b005b34801561009e575f80fd5b506100a76101ab565b6040516100b491906108cc565b60405180910390f35b6100c5610235565b005b3480156100d2575f80fd5b506100db610526565b005b3480156100e8575f80fd5b506100f16105a2565b6040516100fe9190610966565b60405180910390f35b61010f6105c5565b005b610119610691565b005b61012361070d565b005b61012d610789565b005b5f8054906101000a900473ffffffffffffffffffffffffffffffffffffffff1673ffffffffffffffffffffffffffffffffffffffff166319c43a016040518163ffffffff1660e01b81526004015f604051808303815f87803b158015610193575f80fd5b505af11580156101a5573d5f803e3d5ffd5b50505050565b60606040516024016040516020818303038152906040527fe09966a8000000000000000000000000000000000000000000000000000000007bffffffffffffffffffffffffffffffffffffffffffffffffffffffff19166020820180517bffffffffffffffffffffffffffffffffffffffffffffffffffffffff8381831617835250505050905090565b5f805f9054906101000a900473ffffffffffffffffffffffffffffffffffffffff1673ffffffffffffffffffffffffffffffffffffffff16606460405161027b906109ac565b5f6040518083038185875af1925050503d805f81146102b5576040519150601f19603f3d011682016040523d82523d5f602084013e6102ba565b606091505b50509050806102fe576040517f08c379a00000000000000000000000000000000000000000000000000000000081526004016102f590610a1a565b60405180910390fd5b5f8054906101000a900473ffffffffffffffffffffffffffffffffffffffff1673ffffffffffffffffffffffffffffffffffffffff1663c58a455b6040518163ffffffff1660e01b81526004015f604051808303815f87803b158015610362575f80fd5b505af1158015610374573d5f803e3d5ffd5b505050505f8054906101000a900473ffffffffffffffffffffffffffffffffffffffff1673ffffffffffffffffffffffffffffffffffffffff166319c43a016040518163ffffffff1660e01b81526004015f604051808303815f87803b1580156103dc575f80fd5b505af11580156103ee573d5f803e3d5ffd5b505050505f8054906101000a900473ffffffffffffffffffffffffffffffffffffffff1673ffffffffffffffffffffffffffffffffffffffff1663cf9f23b56040518163ffffffff1660e01b81526004015f604051808303815f87803b158015610456575f80fd5b505af1158015610468573d5f803e3d5ffd5b505050505f8054906101000a900473ffffffffffffffffffffffffffffffffffffffff1673ffffffffffffffffffffffffffffffffffffffff1663e0232b425f8054906101000a900473ffffffffffffffffffffffffffffffffffffffff165f6104d06101ab565b6040518463ffffffff1660e01b81526004016104ee93929190610a9a565b5f604051808303815f87803b158015610505575f80fd5b505af1158015610517573d5f803e3d5ffd5b50505050610523610526565b50565b5f8054906101000a900473ffffffffffffffffffffffffffffffffffffffff1673ffffffffffffffffffffffffffffffffffffffff1663fa391c646040518163ffffffff1660e01b81526004015f604051808303815f87803b15801561058a575f80fd5b505af115801561059c573d5f803e3d5ffd5b50505050565b5f8054906101000a900473ffffffffffffffffffffffffffffffffffffffff1681565b5f805f9054906101000a900473ffffffffffffffffffffffffffffffffffffffff1673ffffffffffffffffffffffffffffffffffffffff16606460405161060b906109ac565b5f6040518083038185875af1925050503d805f8114610645576040519150601f19603f3d011682016040523d82523d5f602084013e61064a565b606091505b505090508061068e576040517f08c379a000000000000000000000000000000000000000000000000000000000815260040161068590610a1a565b60405180910390fd5b50565b5f8054906101000a900473ffffffffffffffffffffffffffffffffffffffff1673ffffffffffffffffffffffffffffffffffffffff1663c58a455b6040518163ffffffff1660e01b81526004015f604051808303815f87803b1580156106f5575f80fd5b505af1158015610707573d5f803e3d5ffd5b50505050565b5f8054906101000a900473ffffffffffffffffffffffffffffffffffffffff1673ffffffffffffffffffffffffffffffffffffffff1663cf9f23b56040518163ffffffff1660e01b81526004015f604051808303815f87803b158015610771575f80fd5b505af1158015610783573d5f803e3d5ffd5b50505050565b5f8054906101000a900473ffffffffffffffffffffffffffffffffffffffff1673ffffffffffffffffffffffffffffffffffffffff1663e0232b425f8054906101000a900473ffffffffffffffffffffffffffffffffffffffff165f6107ed6101ab565b6040518463ffffffff1660e01b815260040161080b93929190610a9a565b5f604051808303815f87803b158015610822575f80fd5b505af1158015610834573d5f803e3d5ffd5b50505050610840610526565b565b5f81519050919050565b5f82825260208201905092915050565b5f5b8381101561087957808201518184015260208101905061085e565b5f8484015250505050565b5f601f19601f8301169050919050565b5f61089e82610842565b6108a8818561084c565b93506108b881856020860161085c565b6108c181610884565b840191505092915050565b5f6020820190508181035f8301526108e48184610894565b905092915050565b5f73ffffffffffffffffffffffffffffffffffffffff82169050919050565b5f819050919050565b5f61092e610929610924846108ec565b61090b565b6108ec565b9050919050565b5f61093f82610914565b9050919050565b5f61095082610935565b9050919050565b61096081610946565b82525050565b5f6020820190506109795f830184610957565b92915050565b5f81905092915050565b50565b5f6109975f8361097f565b91506109a282610989565b5f82019050919050565b5f6109b68261098c565b9150819050919050565b5f82825260208201905092915050565b7f63616c6c206661696c65640000000000000000000000000000000000000000005f82015250565b5f610a04600b836109c0565b9150610a0f826109d0565b602082019050919050565b5f6020820190508181035f830152610a31816109f8565b9050919050565b5f610a42826108ec565b9050919050565b610a5281610a38565b82525050565b5f819050919050565b5f819050919050565b5f610a84610a7f610a7a84610a58565b61090b565b610a61565b9050919050565b610a9481610a6a565b82525050565b5f606082019050610aad5f830186610a49565b610aba6020830185610a8b565b8181036040830152610acc8184610894565b905094935050505056fea2646970667358221220a14c89e1188773921603b9c4db526faf7613493a0c9caa4b0af5136c873a27b564736f6c63430008150033",
					"opcodes": "PUSH1 0x80 PUSH1 0x40 MSTORE PUSH1 0x40 MLOAD DUP1 PUSH1 0x20 ADD PUSH3 0x16 SWAP1 PUSH3 0x150 JUMP JUMPDEST PUSH1 0x20 DUP3 ADD DUP2 SUB DUP3 MSTORE PUSH1 0x1F NOT PUSH1 0x1F DUP3 ADD AND PUSH1 0x40 MSTORE POP PUSH1 0x2 SWAP1 DUP2 PUSH3 0x3A SWAP2 SWAP1 PUSH3 0x3C2 JUMP JUMPDEST POP CALLVALUE DUP1 ISZERO PUSH3 0x47 JUMPI PUSH0 DUP1 REVERT JUMPDEST POP PUSH1 0x40 MLOAD PUSH3 0x2632 CODESIZE SUB DUP1 PUSH3 0x2632 DUP4 CODECOPY DUP2 DUP2 ADD PUSH1 0x40 MSTORE DUP2 ADD SWAP1 PUSH3 0x6D SWAP2 SWAP1 PUSH3 0x50B JUMP JUMPDEST DUP1 PUSH1 0x1 PUSH0 PUSH2 0x100 EXP DUP2 SLOAD DUP2 PUSH20 0xFFFFFFFFFFFFFFFFFFFFFFFFFFFFFFFFFFFFFFFF MUL NOT AND SWAP1 DUP4 PUSH20 0xFFFFFFFFFFFFFFFFFFFFFFFFFFFFFFFFFFFFFFFF AND MUL OR SWAP1 SSTORE POP PUSH1 0x40 MLOAD DUP1 PUSH1 0x20 ADD PUSH3 0xBF SWAP1 PUSH3 0x150 JUMP JUMPDEST PUSH1 0x20 DUP3 ADD DUP2 SUB DUP3 MSTORE PUSH1 0x1F NOT PUSH1 0x1F DUP3 ADD AND PUSH1 0x40 MSTORE POP PUSH1 0x1 PUSH0 SWAP1 SLOAD SWAP1 PUSH2 0x100 EXP SWAP1 DIV PUSH20 0xFFFFFFFFFFFFFFFFFFFFFFFFFFFFFFFFFFFFFFFF AND PUSH1 0x40 MLOAD PUSH1 0x20 ADD PUSH3 0x107 SWAP2 SWAP1 PUSH3 0x54C JUMP JUMPDEST PUSH1 0x40 MLOAD PUSH1 0x20 DUP2 DUP4 SUB SUB DUP2 MSTORE SWAP1 PUSH1 0x40 MSTORE PUSH1 0x40 MLOAD PUSH1 0x20 ADD PUSH3 0x129 SWAP3 SWAP2 SWAP1 PUSH3 0x5D1 JUMP JUMPDEST PUSH1 0x40 MLOAD PUSH1 0x20 DUP2 DUP4 SUB SUB DUP2 MSTORE SWAP1 PUSH1 0x40 MSTORE PUSH1 0x3 SWAP1 DUP2 PUSH3 0x148 SWAP2 SWAP1 PUSH3 0x3C2 JUMP JUMPDEST POP POP PUSH3 0x5F8 JUMP JUMPDEST PUSH2 0xC18 DUP1 PUSH3 0x1A1A DUP4 CODECOPY ADD SWAP1 JUMP JUMPDEST PUSH0 DUP2 MLOAD SWAP1 POP SWAP2 SWAP1 POP JUMP JUMPDEST PUSH32 0x4E487B7100000000000000000000000000000000000000000000000000000000 PUSH0 MSTORE PUSH1 0x41 PUSH1 0x4 MSTORE PUSH1 0x24 PUSH0 REVERT JUMPDEST PUSH32 0x4E487B7100000000000000000000000000000000000000000000000000000000 PUSH0 MSTORE PUSH1 0x22 PUSH1 0x4 MSTORE PUSH1 0x24 PUSH0 REVERT JUMPDEST PUSH0 PUSH1 0x2 DUP3 DIV SWAP1 POP PUSH1 0x1 DUP3 AND DUP1 PUSH3 0x1DA JUMPI PUSH1 0x7F DUP3 AND SWAP2 POP JUMPDEST PUSH1 0x20 DUP3 LT DUP2 SUB PUSH3 0x1F0 JUMPI PUSH3 0x1EF PUSH3 0x195 JUMP JUMPDEST JUMPDEST POP SWAP2 SWAP1 POP JUMP JUMPDEST PUSH0 DUP2 SWAP1 POP DUP2 PUSH0 MSTORE PUSH1 0x20 PUSH0 KECCAK256 SWAP1 POP SWAP2 SWAP1 POP JUMP JUMPDEST PUSH0 PUSH1 0x20 PUSH1 0x1F DUP4 ADD DIV SWAP1 POP SWAP2 SWAP1 POP JUMP JUMPDEST PUSH0 DUP3 DUP3 SHL SWAP1 POP SWAP3 SWAP2 POP POP JUMP JUMPDEST PUSH0 PUSH1 0x8 DUP4 MUL PUSH3 0x254 PUSH32 0xFFFFFFFFFFFFFFFFFFFFFFFFFFFFFFFFFFFFFFFFFFFFFFFFFFFFFFFFFFFFFFFF DUP3 PUSH3 0x217 JUMP JUMPDEST PUSH3 0x260 DUP7 DUP4 PUSH3 0x217 JUMP JUMPDEST SWAP6 POP DUP1 NOT DUP5 AND SWAP4 POP DUP1 DUP7 AND DUP5 OR SWAP3 POP POP POP SWAP4 SWAP3 POP POP POP JUMP JUMPDEST PUSH0 DUP2 SWAP1 POP SWAP2 SWAP1 POP JUMP JUMPDEST PUSH0 DUP2 SWAP1 POP SWAP2 SWAP1 POP JUMP JUMPDEST PUSH0 PUSH3 0x2AA PUSH3 0x2A4 PUSH3 0x29E DUP5 PUSH3 0x278 JUMP JUMPDEST PUSH3 0x281 JUMP JUMPDEST PUSH3 0x278 JUMP JUMPDEST SWAP1 POP SWAP2 SWAP1 POP JUMP JUMPDEST PUSH0 DUP2 SWAP1 POP SWAP2 SWAP1 POP JUMP JUMPDEST PUSH3 0x2C5 DUP4 PUSH3 0x28A JUMP JUMPDEST PUSH3 0x2DD PUSH3 0x2D4 DUP3 PUSH3 0x2B1 JUMP JUMPDEST DUP5 DUP5 SLOAD PUSH3 0x223 JUMP JUMPDEST DUP3 SSTORE POP POP POP POP JUMP JUMPDEST PUSH0 SWAP1 JUMP JUMPDEST PUSH3 0x2F3 PUSH3 0x2E5 JUMP JUMPDEST PUSH3 0x300 DUP2 DUP5 DUP5 PUSH3 0x2BA JUMP JUMPDEST POP POP POP JUMP JUMPDEST JUMPDEST DUP2 DUP2 LT ISZERO PUSH3 0x327 JUMPI PUSH3 0x31B PUSH0 DUP3 PUSH3 0x2E9 JUMP JUMPDEST PUSH1 0x1 DUP2 ADD SWAP1 POP PUSH3 0x306 JUMP JUMPDEST POP POP JUMP JUMPDEST PUSH1 0x1F DUP3 GT ISZERO PUSH3 0x376 JUMPI PUSH3 0x340 DUP2 PUSH3 0x1F6 JUMP JUMPDEST PUSH3 0x34B DUP5 PUSH3 0x208 JUMP JUMPDEST DUP2 ADD PUSH1 0x20 DUP6 LT ISZERO PUSH3 0x35B JUMPI DUP2 SWAP1 POP JUMPDEST PUSH3 0x373 PUSH3 0x36A DUP6 PUSH3 0x208 JUMP JUMPDEST DUP4 ADD DUP3 PUSH3 0x305 JUMP JUMPDEST POP POP JUMPDEST POP POP POP JUMP JUMPDEST PUSH0 DUP3 DUP3 SHR SWAP1 POP SWAP3 SWAP2 POP POP JUMP JUMPDEST PUSH0 PUSH3 0x398 PUSH0 NOT DUP5 PUSH1 0x8 MUL PUSH3 0x37B JUMP JUMPDEST NOT DUP1 DUP4 AND SWAP2 POP POP SWAP3 SWAP2 POP POP JUMP JUMPDEST PUSH0 PUSH3 0x3B2 DUP4 DUP4 PUSH3 0x387 JUMP JUMPDEST SWAP2 POP DUP3 PUSH1 0x2 MUL DUP3 OR SWAP1 POP SWAP3 SWAP2 POP POP JUMP JUMPDEST PUSH3 0x3CD DUP3 PUSH3 0x15E JUMP JUMPDEST PUSH8 0xFFFFFFFFFFFFFFFF DUP2 GT ISZERO PUSH3 0x3E9 JUMPI PUSH3 0x3E8 PUSH3 0x168 JUMP JUMPDEST JUMPDEST PUSH3 0x3F5 DUP3 SLOAD PUSH3 0x1C2 JUMP JUMPDEST PUSH3 0x402 DUP3 DUP3 DUP6 PUSH3 0x32B JUMP JUMPDEST PUSH0 PUSH1 0x20 SWAP1 POP PUSH1 0x1F DUP4 GT PUSH1 0x1 DUP2 EQ PUSH3 0x438 JUMPI PUSH0 DUP5 ISZERO PUSH3 0x423 JUMPI DUP3 DUP8 ADD MLOAD SWAP1 POP JUMPDEST PUSH3 0x42F DUP6 DUP3 PUSH3 0x3A5 JUMP JUMPDEST DUP7 SSTORE POP PUSH3 0x49E JUMP JUMPDEST PUSH1 0x1F NOT DUP5 AND PUSH3 0x448 DUP7 PUSH3 0x1F6 JUMP JUMPDEST PUSH0 JUMPDEST DUP3 DUP2 LT ISZERO PUSH3 0x471 JUMPI DUP5 DUP10 ADD MLOAD DUP3 SSTORE PUSH1 0x1 DUP3 ADD SWAP2 POP PUSH1 0x20 DUP6 ADD SWAP5 POP PUSH1 0x20 DUP2 ADD SWAP1 POP PUSH3 0x44A JUMP JUMPDEST DUP7 DUP4 LT ISZERO PUSH3 0x491 JUMPI DUP5 DUP10 ADD MLOAD PUSH3 0x48D PUSH1 0x1F DUP10 AND DUP3 PUSH3 0x387 JUMP JUMPDEST DUP4 SSTORE POP JUMPDEST PUSH1 0x1 PUSH1 0x2 DUP9 MUL ADD DUP9 SSTORE POP POP POP JUMPDEST POP POP POP POP POP POP JUMP JUMPDEST PUSH0 DUP1 REVERT JUMPDEST PUSH0 PUSH20 0xFFFFFFFFFFFFFFFFFFFFFFFFFFFFFFFFFFFFFFFF DUP3 AND SWAP1 POP SWAP2 SWAP1 POP JUMP JUMPDEST PUSH0 PUSH3 0x4D5 DUP3 PUSH3 0x4AA JUMP JUMPDEST SWAP1 POP SWAP2 SWAP1 POP JUMP JUMPDEST PUSH3 0x4E7 DUP2 PUSH3 0x4C9 JUMP JUMPDEST DUP2 EQ PUSH3 0x4F2 JUMPI PUSH0 DUP1 REVERT JUMPDEST POP JUMP JUMPDEST PUSH0 DUP2 MLOAD SWAP1 POP PUSH3 0x505 DUP2 PUSH3 0x4DC JUMP JUMPDEST SWAP3 SWAP2 POP POP JUMP JUMPDEST PUSH0 PUSH1 0x20 DUP3 DUP5 SUB SLT ISZERO PUSH3 0x523 JUMPI PUSH3 0x522 PUSH3 0x4A6 JUMP JUMPDEST JUMPDEST PUSH0 PUSH3 0x532 DUP5 DUP3 DUP6 ADD PUSH3 0x4F5 JUMP JUMPDEST SWAP2 POP POP SWAP3 SWAP2 POP POP JUMP JUMPDEST PUSH3 0x546 DUP2 PUSH3 0x4C9 JUMP JUMPDEST DUP3 MSTORE POP POP JUMP JUMPDEST PUSH0 PUSH1 0x20 DUP3 ADD SWAP1 POP PUSH3 0x561 PUSH0 DUP4 ADD DUP5 PUSH3 0x53B JUMP JUMPDEST SWAP3 SWAP2 POP POP JUMP JUMPDEST PUSH0 DUP2 SWAP1 POP SWAP3 SWAP2 POP POP JUMP JUMPDEST PUSH0 JUMPDEST DUP4 DUP2 LT ISZERO PUSH3 0x590 JUMPI DUP1 DUP3 ADD MLOAD DUP2 DUP5 ADD MSTORE PUSH1 0x20 DUP2 ADD SWAP1 POP PUSH3 0x573 JUMP JUMPDEST PUSH0 DUP5 DUP5 ADD MSTORE POP POP POP POP JUMP JUMPDEST PUSH0 PUSH3 0x5A7 DUP3 PUSH3 0x15E JUMP JUMPDEST PUSH3 0x5B3 DUP2 DUP6 PUSH3 0x567 JUMP JUMPDEST SWAP4 POP PUSH3 0x5C5 DUP2 DUP6 PUSH1 0x20 DUP7 ADD PUSH3 0x571 JUMP JUMPDEST DUP1 DUP5 ADD SWAP2 POP POP SWAP3 SWAP2 POP POP JUMP JUMPDEST PUSH0 PUSH3 0x5DE DUP3 DUP6 PUSH3 0x59B JUMP JUMPDEST SWAP2 POP PUSH3 0x5EC DUP3 DUP5 PUSH3 0x59B JUMP JUMPDEST SWAP2 POP DUP2 SWAP1 POP SWAP4 SWAP3 POP POP POP JUMP JUMPDEST PUSH2 0x1414 DUP1 PUSH3 0x606 PUSH0 CODECOPY PUSH0 RETURN INVALID PUSH1 0x80 PUSH1 0x40 MSTORE CALLVALUE DUP1 ISZERO PUSH2 0xF JUMPI PUSH0 DUP1 REVERT JUMPDEST POP PUSH1 0x4 CALLDATASIZE LT PUSH2 0x60 JUMPI PUSH0 CALLDATALOAD PUSH1 0xE0 SHR DUP1 PUSH4 0x560280E EQ PUSH2 0x64 JUMPI DUP1 PUSH4 0x494A1AE5 EQ PUSH2 0x82 JUMPI DUP1 PUSH4 0xC61B20E2 EQ PUSH2 0xA0 JUMPI DUP1 PUSH4 0xC878EB3B EQ PUSH2 0xBE JUMPI DUP1 PUSH4 0xD13319C4 EQ PUSH2 0xDC JUMPI DUP1 PUSH4 0xF905C15A EQ PUSH2 0xFA JUMPI JUMPDEST PUSH0 DUP1 REVERT JUMPDEST PUSH2 0x6C PUSH2 0x104 JUMP JUMPDEST PUSH1 0x40 MLOAD PUSH2 0x79 SWAP2 SWAP1 PUSH2 0x42E JUMP JUMPDEST PUSH1 0x40 MLOAD DUP1 SWAP2 SUB SWAP1 RETURN JUMPDEST PUSH2 0x8A PUSH2 0x190 JUMP JUMPDEST PUSH1 0x40 MLOAD PUSH2 0x97 SWAP2 SWAP1 PUSH2 0x466 JUMP JUMPDEST PUSH1 0x40 MLOAD DUP1 SWAP2 SUB SWAP1 RETURN JUMPDEST PUSH2 0xA8 PUSH2 0x22D JUMP JUMPDEST PUSH1 0x40 MLOAD PUSH2 0xB5 SWAP2 SWAP1 PUSH2 0x4F9 JUMP JUMPDEST PUSH1 0x40 MLOAD DUP1 SWAP2 SUB SWAP1 RETURN JUMPDEST PUSH2 0xC6 PUSH2 0x250 JUMP JUMPDEST PUSH1 0x40 MLOAD PUSH2 0xD3 SWAP2 SWAP1 PUSH2 0x42E JUMP JUMPDEST PUSH1 0x40 MLOAD DUP1 SWAP2 SUB SWAP1 RETURN JUMPDEST PUSH2 0xE4 PUSH2 0x2DC JUMP JUMPDEST PUSH1 0x40 MLOAD PUSH2 0xF1 SWAP2 SWAP1 PUSH2 0x466 JUMP JUMPDEST PUSH1 0x40 MLOAD DUP1 SWAP2 SUB SWAP1 RETURN JUMPDEST PUSH2 0x102 PUSH2 0x2F9 JUMP JUMPDEST STOP JUMPDEST PUSH1 0x2 DUP1 SLOAD PUSH2 0x111 SWAP1 PUSH2 0x53F JUMP JUMPDEST DUP1 PUSH1 0x1F ADD PUSH1 0x20 DUP1 SWAP2 DIV MUL PUSH1 0x20 ADD PUSH1 0x40 MLOAD SWAP1 DUP2 ADD PUSH1 0x40 MSTORE DUP1 SWAP3 SWAP2 SWAP1 DUP2 DUP2 MSTORE PUSH1 0x20 ADD DUP3 DUP1 SLOAD PUSH2 0x13D SWAP1 PUSH2 0x53F JUMP JUMPDEST DUP1 ISZERO PUSH2 0x188 JUMPI DUP1 PUSH1 0x1F LT PUSH2 0x15F JUMPI PUSH2 0x100 DUP1 DUP4 SLOAD DIV MUL DUP4 MSTORE SWAP2 PUSH1 0x20 ADD SWAP2 PUSH2 0x188 JUMP JUMPDEST DUP3 ADD SWAP2 SWAP1 PUSH0 MSTORE PUSH1 0x20 PUSH0 KECCAK256 SWAP1 JUMPDEST DUP2 SLOAD DUP2 MSTORE SWAP1 PUSH1 0x1 ADD SWAP1 PUSH1 0x20 ADD DUP1 DUP4 GT PUSH2 0x16B JUMPI DUP3 SWAP1 SUB PUSH1 0x1F AND DUP3 ADD SWAP2 JUMPDEST POP POP POP POP POP DUP2 JUMP JUMPDEST PUSH0 DUP1 PUSH0 DUP1 PUSH0 SWAP1 POP JUMPDEST PUSH0 DUP2 LT PUSH2 0x222 JUMPI PUSH1 0xFF ADDRESS DUP5 PUSH0 SHL PUSH1 0x3 PUSH1 0x40 MLOAD PUSH2 0x1B4 SWAP2 SWAP1 PUSH2 0x60B JUMP JUMPDEST PUSH1 0x40 MLOAD DUP1 SWAP2 SUB SWAP1 KECCAK256 PUSH1 0x40 MLOAD PUSH1 0x20 ADD PUSH2 0x1CF SWAP5 SWAP4 SWAP3 SWAP2 SWAP1 PUSH2 0x6D7 JUMP JUMPDEST PUSH1 0x40 MLOAD PUSH1 0x20 DUP2 DUP4 SUB SUB DUP2 MSTORE SWAP1 PUSH1 0x40 MSTORE DUP1 MLOAD SWAP1 PUSH1 0x20 ADD KECCAK256 PUSH0 SHR SWAP2 POP PUSH1 0xC4 PUSH1 0xFF AND PUSH1 0xFF DUP4 AND PUSH20 0xFFFFFFFFFFFFFFFFFFFFFFFFFFFFFFFFFFFFFFFF AND SUB ISZERO PUSH2 0x222 JUMPI PUSH1 0x1 DUP4 PUSH2 0x21B SWAP2 SWAP1 PUSH2 0x75A JUMP JUMPDEST SWAP3 POP PUSH2 0x198 JUMP JUMPDEST POP DUP2 PUSH0 SHL SWAP3 POP POP POP SWAP1 JUMP JUMPDEST PUSH0 DUP1 SLOAD SWAP1 PUSH2 0x100 EXP SWAP1 DIV PUSH20 0xFFFFFFFFFFFFFFFFFFFFFFFFFFFFFFFFFFFFFFFF AND DUP2 JUMP JUMPDEST PUSH1 0x3 DUP1 SLOAD PUSH2 0x25D SWAP1 PUSH2 0x53F JUMP JUMPDEST DUP1 PUSH1 0x1F ADD PUSH1 0x20 DUP1 SWAP2 DIV MUL PUSH1 0x20 ADD PUSH1 0x40 MLOAD SWAP1 DUP2 ADD PUSH1 0x40 MSTORE DUP1 SWAP3 SWAP2 SWAP1 DUP2 DUP2 MSTORE PUSH1 0x20 ADD DUP3 DUP1 SLOAD PUSH2 0x289 SWAP1 PUSH2 0x53F JUMP JUMPDEST DUP1 ISZERO PUSH2 0x2D4 JUMPI DUP1 PUSH1 0x1F LT PUSH2 0x2AB JUMPI PUSH2 0x100 DUP1 DUP4 SLOAD DIV MUL DUP4 MSTORE SWAP2 PUSH1 0x20 ADD SWAP2 PUSH2 0x2D4 JUMP JUMPDEST DUP3 ADD SWAP2 SWAP1 PUSH0 MSTORE PUSH1 0x20 PUSH0 KECCAK256 SWAP1 JUMPDEST DUP2 SLOAD DUP2 MSTORE SWAP1 PUSH1 0x1 ADD SWAP1 PUSH1 0x20 ADD DUP1 DUP4 GT PUSH2 0x2B7 JUMPI DUP3 SWAP1 SUB PUSH1 0x1F AND DUP3 ADD SWAP2 JUMPDEST POP POP POP POP POP DUP2 JUMP JUMPDEST PUSH0 PUSH1 0x3 PUSH1 0x40 MLOAD PUSH2 0x2EC SWAP2 SWAP1 PUSH2 0x60B JUMP JUMPDEST PUSH1 0x40 MLOAD DUP1 SWAP2 SUB SWAP1 KECCAK256 SWAP1 POP SWAP1 JUMP JUMPDEST PUSH2 0x301 PUSH2 0x190 JUMP JUMPDEST PUSH1 0x1 PUSH0 SWAP1 SLOAD SWAP1 PUSH2 0x100 EXP SWAP1 DIV PUSH20 0xFFFFFFFFFFFFFFFFFFFFFFFFFFFFFFFFFFFFFFFF AND PUSH1 0x40 MLOAD PUSH2 0x32F SWAP1 PUSH2 0x397 JUMP JUMPDEST PUSH2 0x339 SWAP2 SWAP1 PUSH2 0x7AD JUMP JUMPDEST DUP2 SWAP1 PUSH1 0x40 MLOAD DUP1 SWAP2 SUB SWAP1 PUSH0 CREATE2 SWAP1 POP DUP1 ISZERO DUP1 ISZERO PUSH2 0x356 JUMPI RETURNDATASIZE PUSH0 DUP1 RETURNDATACOPY RETURNDATASIZE PUSH0 REVERT JUMPDEST POP PUSH0 DUP1 PUSH2 0x100 EXP DUP2 SLOAD DUP2 PUSH20 0xFFFFFFFFFFFFFFFFFFFFFFFFFFFFFFFFFFFFFFFF MUL NOT AND SWAP1 DUP4 PUSH20 0xFFFFFFFFFFFFFFFFFFFFFFFFFFFFFFFFFFFFFFFF AND MUL OR SWAP1 SSTORE POP JUMP JUMPDEST PUSH2 0xC18 DUP1 PUSH2 0x7C7 DUP4 CODECOPY ADD SWAP1 JUMP JUMPDEST PUSH0 DUP2 MLOAD SWAP1 POP SWAP2 SWAP1 POP JUMP JUMPDEST PUSH0 DUP3 DUP3 MSTORE PUSH1 0x20 DUP3 ADD SWAP1 POP SWAP3 SWAP2 POP POP JUMP JUMPDEST PUSH0 JUMPDEST DUP4 DUP2 LT ISZERO PUSH2 0x3DB JUMPI DUP1 DUP3 ADD MLOAD DUP2 DUP5 ADD MSTORE PUSH1 0x20 DUP2 ADD SWAP1 POP PUSH2 0x3C0 JUMP JUMPDEST PUSH0 DUP5 DUP5 ADD MSTORE POP POP POP POP JUMP JUMPDEST PUSH0 PUSH1 0x1F NOT PUSH1 0x1F DUP4 ADD AND SWAP1 POP SWAP2 SWAP1 POP JUMP JUMPDEST PUSH0 PUSH2 0x400 DUP3 PUSH2 0x3A4 JUMP JUMPDEST PUSH2 0x40A DUP2 DUP6 PUSH2 0x3AE JUMP JUMPDEST SWAP4 POP PUSH2 0x41A DUP2 DUP6 PUSH1 0x20 DUP7 ADD PUSH2 0x3BE JUMP JUMPDEST PUSH2 0x423 DUP2 PUSH2 0x3E6 JUMP JUMPDEST DUP5 ADD SWAP2 POP POP SWAP3 SWAP2 POP POP JUMP JUMPDEST PUSH0 PUSH1 0x20 DUP3 ADD SWAP1 POP DUP2 DUP2 SUB PUSH0 DUP4 ADD MSTORE PUSH2 0x446 DUP2 DUP5 PUSH2 0x3F6 JUMP JUMPDEST SWAP1 POP SWAP3 SWAP2 POP POP JUMP JUMPDEST PUSH0 DUP2 SWAP1 POP SWAP2 SWAP1 POP JUMP JUMPDEST PUSH2 0x460 DUP2 PUSH2 0x44E JUMP JUMPDEST DUP3 MSTORE POP POP JUMP JUMPDEST PUSH0 PUSH1 0x20 DUP3 ADD SWAP1 POP PUSH2 0x479 PUSH0 DUP4 ADD DUP5 PUSH2 0x457 JUMP JUMPDEST SWAP3 SWAP2 POP POP JUMP JUMPDEST PUSH0 PUSH20 0xFFFFFFFFFFFFFFFFFFFFFFFFFFFFFFFFFFFFFFFF DUP3 AND SWAP1 POP SWAP2 SWAP1 POP JUMP JUMPDEST PUSH0 DUP2 SWAP1 POP SWAP2 SWAP1 POP JUMP JUMPDEST PUSH0 PUSH2 0x4C1 PUSH2 0x4BC PUSH2 0x4B7 DUP5 PUSH2 0x47F JUMP JUMPDEST PUSH2 0x49E JUMP JUMPDEST PUSH2 0x47F JUMP JUMPDEST SWAP1 POP SWAP2 SWAP1 POP JUMP JUMPDEST PUSH0 PUSH2 0x4D2 DUP3 PUSH2 0x4A7 JUMP JUMPDEST SWAP1 POP SWAP2 SWAP1 POP JUMP JUMPDEST PUSH0 PUSH2 0x4E3 DUP3 PUSH2 0x4C8 JUMP JUMPDEST SWAP1 POP SWAP2 SWAP1 POP JUMP JUMPDEST PUSH2 0x4F3 DUP2 PUSH2 0x4D9 JUMP JUMPDEST DUP3 MSTORE POP POP JUMP JUMPDEST PUSH0 PUSH1 0x20 DUP3 ADD SWAP1 POP PUSH2 0x50C PUSH0 DUP4 ADD DUP5 PUSH2 0x4EA JUMP JUMPDEST SWAP3 SWAP2 POP POP JUMP JUMPDEST PUSH32 0x4E487B7100000000000000000000000000000000000000000000000000000000 PUSH0 MSTORE PUSH1 0x22 PUSH1 0x4 MSTORE PUSH1 0x24 PUSH0 REVERT JUMPDEST PUSH0 PUSH1 0x2 DUP3 DIV SWAP1 POP PUSH1 0x1 DUP3 AND DUP1 PUSH2 0x556 JUMPI PUSH1 0x7F DUP3 AND SWAP2 POP JUMPDEST PUSH1 0x20 DUP3 LT DUP2 SUB PUSH2 0x569 JUMPI PUSH2 0x568 PUSH2 0x512 JUMP JUMPDEST JUMPDEST POP SWAP2 SWAP1 POP JUMP JUMPDEST PUSH0 DUP2 SWAP1 POP SWAP3 SWAP2 POP POP JUMP JUMPDEST PUSH0 DUP2 SWAP1 POP DUP2 PUSH0 MSTORE PUSH1 0x20 PUSH0 KECCAK256 SWAP1 POP SWAP2 SWAP1 POP JUMP JUMPDEST PUSH0 DUP2 SLOAD PUSH2 0x597 DUP2 PUSH2 0x53F JUMP JUMPDEST PUSH2 0x5A1 DUP2 DUP7 PUSH2 0x56F JUMP JUMPDEST SWAP5 POP PUSH1 0x1 DUP3 AND PUSH0 DUP2 EQ PUSH2 0x5BB JUMPI PUSH1 0x1 DUP2 EQ PUSH2 0x5D0 JUMPI PUSH2 0x602 JUMP JUMPDEST PUSH1 0xFF NOT DUP4 AND DUP7 MSTORE DUP2 ISZERO ISZERO DUP3 MUL DUP7 ADD SWAP4 POP PUSH2 0x602 JUMP JUMPDEST PUSH2 0x5D9 DUP6 PUSH2 0x579 JUMP JUMPDEST PUSH0 JUMPDEST DUP4 DUP2 LT ISZERO PUSH2 0x5FA JUMPI DUP2 SLOAD DUP2 DUP10 ADD MSTORE PUSH1 0x1 DUP3 ADD SWAP2 POP PUSH1 0x20 DUP2 ADD SWAP1 POP PUSH2 0x5DB JUMP JUMPDEST DUP4 DUP9 ADD SWAP6 POP POP POP JUMPDEST POP POP POP SWAP3 SWAP2 POP POP JUMP JUMPDEST PUSH0 PUSH2 0x616 DUP3 DUP5 PUSH2 0x58B JUMP JUMPDEST SWAP2 POP DUP2 SWAP1 POP SWAP3 SWAP2 POP POP JUMP JUMPDEST PUSH0 PUSH1 0xFF DUP3 AND SWAP1 POP SWAP2 SWAP1 POP JUMP JUMPDEST PUSH0 DUP2 PUSH1 0xF8 SHL SWAP1 POP SWAP2 SWAP1 POP JUMP JUMPDEST PUSH0 PUSH2 0x643 DUP3 PUSH2 0x62D JUMP JUMPDEST SWAP1 POP SWAP2 SWAP1 POP JUMP JUMPDEST PUSH2 0x65B PUSH2 0x656 DUP3 PUSH2 0x621 JUMP JUMPDEST PUSH2 0x639 JUMP JUMPDEST DUP3 MSTORE POP POP JUMP JUMPDEST PUSH0 PUSH2 0x66B DUP3 PUSH2 0x47F JUMP JUMPDEST SWAP1 POP SWAP2 SWAP1 POP JUMP JUMPDEST PUSH0 DUP2 PUSH1 0x60 SHL SWAP1 POP SWAP2 SWAP1 POP JUMP JUMPDEST PUSH0 PUSH2 0x688 DUP3 PUSH2 0x672 JUMP JUMPDEST SWAP1 POP SWAP2 SWAP1 POP JUMP JUMPDEST PUSH0 PUSH2 0x699 DUP3 PUSH2 0x67E JUMP JUMPDEST SWAP1 POP SWAP2 SWAP1 POP JUMP JUMPDEST PUSH2 0x6B1 PUSH2 0x6AC DUP3 PUSH2 0x661 JUMP JUMPDEST PUSH2 0x68F JUMP JUMPDEST DUP3 MSTORE POP POP JUMP JUMPDEST PUSH0 DUP2 SWAP1 POP SWAP2 SWAP1 POP JUMP JUMPDEST PUSH2 0x6D1 PUSH2 0x6CC DUP3 PUSH2 0x44E JUMP JUMPDEST PUSH2 0x6B7 JUMP JUMPDEST DUP3 MSTORE POP POP JUMP JUMPDEST PUSH0 PUSH2 0x6E2 DUP3 DUP8 PUSH2 0x64A JUMP JUMPDEST PUSH1 0x1 DUP3 ADD SWAP2 POP PUSH2 0x6F2 DUP3 DUP7 PUSH2 0x6A0 JUMP JUMPDEST PUSH1 0x14 DUP3 ADD SWAP2 POP PUSH2 0x702 DUP3 DUP6 PUSH2 0x6C0 JUMP JUMPDEST PUSH1 0x20 DUP3 ADD SWAP2 POP PUSH2 0x712 DUP3 DUP5 PUSH2 0x6C0 JUMP JUMPDEST PUSH1 0x20 DUP3 ADD SWAP2 POP DUP2 SWAP1 POP SWAP6 SWAP5 POP POP POP POP POP JUMP JUMPDEST PUSH0 DUP2 SWAP1 POP SWAP2 SWAP1 POP JUMP JUMPDEST PUSH32 0x4E487B7100000000000000000000000000000000000000000000000000000000 PUSH0 MSTORE PUSH1 0x11 PUSH1 0x4 MSTORE PUSH1 0x24 PUSH0 REVERT JUMPDEST PUSH0 PUSH2 0x764 DUP3 PUSH2 0x724 JUMP JUMPDEST SWAP2 POP PUSH2 0x76F DUP4 PUSH2 0x724 JUMP JUMPDEST SWAP3 POP DUP3 DUP3 ADD SWAP1 POP DUP1 DUP3 GT ISZERO PUSH2 0x787 JUMPI PUSH2 0x786 PUSH2 0x72D JUMP JUMPDEST JUMPDEST SWAP3 SWAP2 POP POP JUMP JUMPDEST PUSH0 PUSH2 0x797 DUP3 PUSH2 0x47F JUMP JUMPDEST SWAP1 POP SWAP2 SWAP1 POP JUMP JUMPDEST PUSH2 0x7A7 DUP2 PUSH2 0x78D JUMP JUMPDEST DUP3 MSTORE POP POP JUMP JUMPDEST PUSH0 PUSH1 0x20 DUP3 ADD SWAP1 POP PUSH2 0x7C0 PUSH0 DUP4 ADD DUP5 PUSH2 0x79E JUMP JUMPDEST SWAP3 SWAP2 POP POP JUMP INVALID PUSH1 0x80 PUSH1 0x40 MSTORE CALLVALUE DUP1 ISZERO PUSH2 0xF JUMPI PUSH0 DUP1 REVERT JUMPDEST POP PUSH1 0x40 MLOAD PUSH2 0xC18 CODESIZE SUB DUP1 PUSH2 0xC18 DUP4 CODECOPY DUP2 DUP2 ADD PUSH1 0x40 MSTORE DUP2 ADD SWAP1 PUSH2 0x31 SWAP2 SWAP1 PUSH2 0xD4 JUMP JUMPDEST DUP1 PUSH0 DUP1 PUSH2 0x100 EXP DUP2 SLOAD DUP2 PUSH20 0xFFFFFFFFFFFFFFFFFFFFFFFFFFFFFFFFFFFFFFFF MUL NOT AND SWAP1 DUP4 PUSH20 0xFFFFFFFFFFFFFFFFFFFFFFFFFFFFFFFFFFFFFFFF AND MUL OR SWAP1 SSTORE POP POP PUSH2 0xFF JUMP JUMPDEST PUSH0 DUP1 REVERT JUMPDEST PUSH0 PUSH20 0xFFFFFFFFFFFFFFFFFFFFFFFFFFFFFFFFFFFFFFFF DUP3 AND SWAP1 POP SWAP2 SWAP1 POP JUMP JUMPDEST PUSH0 PUSH2 0xA3 DUP3 PUSH2 0x7A JUMP JUMPDEST SWAP1 POP SWAP2 SWAP1 POP JUMP JUMPDEST PUSH2 0xB3 DUP2 PUSH2 0x99 JUMP JUMPDEST DUP2 EQ PUSH2 0xBD JUMPI PUSH0 DUP1 REVERT JUMPDEST POP JUMP JUMPDEST PUSH0 DUP2 MLOAD SWAP1 POP PUSH2 0xCE DUP2 PUSH2 0xAA JUMP JUMPDEST SWAP3 SWAP2 POP POP JUMP JUMPDEST PUSH0 PUSH1 0x20 DUP3 DUP5 SUB SLT ISZERO PUSH2 0xE9 JUMPI PUSH2 0xE8 PUSH2 0x76 JUMP JUMPDEST JUMPDEST PUSH0 PUSH2 0xF6 DUP5 DUP3 DUP6 ADD PUSH2 0xC0 JUMP JUMPDEST SWAP2 POP POP SWAP3 SWAP2 POP POP JUMP JUMPDEST PUSH2 0xB0C DUP1 PUSH2 0x10C PUSH0 CODECOPY PUSH0 RETURN INVALID PUSH1 0x80 PUSH1 0x40 MSTORE PUSH1 0x4 CALLDATASIZE LT PUSH2 0x85 JUMPI PUSH0 CALLDATALOAD PUSH1 0xE0 SHR DUP1 PUSH4 0x946644CD GT PUSH2 0x58 JUMPI DUP1 PUSH4 0x946644CD EQ PUSH2 0xDD JUMPI DUP1 PUSH4 0x9FCEC698 EQ PUSH2 0x107 JUMPI DUP1 PUSH4 0xB2B9F26D EQ PUSH2 0x111 JUMPI DUP1 PUSH4 0xDC5BB9A1 EQ PUSH2 0x11B JUMPI DUP1 PUSH4 0xE4832009 EQ PUSH2 0x125 JUMPI PUSH2 0x85 JUMP JUMPDEST DUP1 PUSH4 0x12A50B25 EQ PUSH2 0x89 JUMPI DUP1 PUSH4 0x13B6AE4C EQ PUSH2 0x93 JUMPI DUP1 PUSH4 0x419EFC03 EQ PUSH2 0xBD JUMPI DUP1 PUSH4 0x522E1177 EQ PUSH2 0xC7 JUMPI JUMPDEST PUSH0 DUP1 REVERT JUMPDEST PUSH2 0x91 PUSH2 0x12F JUMP JUMPDEST STOP JUMPDEST CALLVALUE DUP1 ISZERO PUSH2 0x9E JUMPI PUSH0 DUP1 REVERT JUMPDEST POP PUSH2 0xA7 PUSH2 0x1AB JUMP JUMPDEST PUSH1 0x40 MLOAD PUSH2 0xB4 SWAP2 SWAP1 PUSH2 0x8CC JUMP JUMPDEST PUSH1 0x40 MLOAD DUP1 SWAP2 SUB SWAP1 RETURN JUMPDEST PUSH2 0xC5 PUSH2 0x235 JUMP JUMPDEST STOP JUMPDEST CALLVALUE DUP1 ISZERO PUSH2 0xD2 JUMPI PUSH0 DUP1 REVERT JUMPDEST POP PUSH2 0xDB PUSH2 0x526 JUMP JUMPDEST STOP JUMPDEST CALLVALUE DUP1 ISZERO PUSH2 0xE8 JUMPI PUSH0 DUP1 REVERT JUMPDEST POP PUSH2 0xF1 PUSH2 0x5A2 JUMP JUMPDEST PUSH1 0x40 MLOAD PUSH2 0xFE SWAP2 SWAP1 PUSH2 0x966 JUMP JUMPDEST PUSH1 0x40 MLOAD DUP1 SWAP2 SUB SWAP1 RETURN JUMPDEST PUSH2 0x10F PUSH2 0x5C5 JUMP JUMPDEST STOP JUMPDEST PUSH2 0x119 PUSH2 0x691 JUMP JUMPDEST STOP JUMPDEST PUSH2 0x123 PUSH2 0x70D JUMP JUMPDEST STOP JUMPDEST PUSH2 0x12D PUSH2 0x789 JUMP JUMPDEST STOP JUMPDEST PUSH0 DUP1 SLOAD SWAP1 PUSH2 0x100 EXP SWAP1 DIV PUSH20 0xFFFFFFFFFFFFFFFFFFFFFFFFFFFFFFFFFFFFFFFF AND PUSH20 0xFFFFFFFFFFFFFFFFFFFFFFFFFFFFFFFFFFFFFFFF AND PUSH4 0x19C43A01 PUSH1 0x40 MLOAD DUP2 PUSH4 0xFFFFFFFF AND PUSH1 0xE0 SHL DUP2 MSTORE PUSH1 0x4 ADD PUSH0 PUSH1 0x40 MLOAD DUP1 DUP4 SUB DUP2 PUSH0 DUP8 DUP1 EXTCODESIZE ISZERO DUP1 ISZERO PUSH2 0x193 JUMPI PUSH0 DUP1 REVERT JUMPDEST POP GAS CALL ISZERO DUP1 ISZERO PUSH2 0x1A5 JUMPI RETURNDATASIZE PUSH0 DUP1 RETURNDATACOPY RETURNDATASIZE PUSH0 REVERT JUMPDEST POP POP POP POP JUMP JUMPDEST PUSH1 0x60 PUSH1 0x40 MLOAD PUSH1 0x24 ADD PUSH1 0x40 MLOAD PUSH1 0x20 DUP2 DUP4 SUB SUB DUP2 MSTORE SWAP1 PUSH1 0x40 MSTORE PUSH32 0xE09966A800000000000000000000000000000000000000000000000000000000 PUSH28 0xFFFFFFFFFFFFFFFFFFFFFFFFFFFFFFFFFFFFFFFFFFFFFFFFFFFFFFFF NOT AND PUSH1 0x20 DUP3 ADD DUP1 MLOAD PUSH28 0xFFFFFFFFFFFFFFFFFFFFFFFFFFFFFFFFFFFFFFFFFFFFFFFFFFFFFFFF DUP4 DUP2 DUP4 AND OR DUP4 MSTORE POP POP POP POP SWAP1 POP SWAP1 JUMP JUMPDEST PUSH0 DUP1 PUSH0 SWAP1 SLOAD SWAP1 PUSH2 0x100 EXP SWAP1 DIV PUSH20 0xFFFFFFFFFFFFFFFFFFFFFFFFFFFFFFFFFFFFFFFF AND PUSH20 0xFFFFFFFFFFFFFFFFFFFFFFFFFFFFFFFFFFFFFFFF AND PUSH1 0x64 PUSH1 0x40 MLOAD PUSH2 0x27B SWAP1 PUSH2 0x9AC JUMP JUMPDEST PUSH0 PUSH1 0x40 MLOAD DUP1 DUP4 SUB DUP2 DUP6 DUP8 GAS CALL SWAP3 POP POP POP RETURNDATASIZE DUP1 PUSH0 DUP2 EQ PUSH2 0x2B5 JUMPI PUSH1 0x40 MLOAD SWAP2 POP PUSH1 0x1F NOT PUSH1 0x3F RETURNDATASIZE ADD AND DUP3 ADD PUSH1 0x40 MSTORE RETURNDATASIZE DUP3 MSTORE RETURNDATASIZE PUSH0 PUSH1 0x20 DUP5 ADD RETURNDATACOPY PUSH2 0x2BA JUMP JUMPDEST PUSH1 0x60 SWAP2 POP JUMPDEST POP POP SWAP1 POP DUP1 PUSH2 0x2FE JUMPI PUSH1 0x40 MLOAD PUSH32 0x8C379A000000000000000000000000000000000000000000000000000000000 DUP2 MSTORE PUSH1 0x4 ADD PUSH2 0x2F5 SWAP1 PUSH2 0xA1A JUMP JUMPDEST PUSH1 0x40 MLOAD DUP1 SWAP2 SUB SWAP1 REVERT JUMPDEST PUSH0 DUP1 SLOAD SWAP1 PUSH2 0x100 EXP SWAP1 DIV PUSH20 0xFFFFFFFFFFFFFFFFFFFFFFFFFFFFFFFFFFFFFFFF AND PUSH20 0xFFFFFFFFFFFFFFFFFFFFFFFFFFFFFFFFFFFFFFFF AND PUSH4 0xC58A455B PUSH1 0x40 MLOAD DUP2 PUSH4 0xFFFFFFFF AND PUSH1 0xE0 SHL DUP2 MSTORE PUSH1 0x4 ADD PUSH0 PUSH1 0x40 MLOAD DUP1 DUP4 SUB DUP2 PUSH0 DUP8 DUP1 EXTCODESIZE ISZERO DUP1 ISZERO PUSH2 0x362 JUMPI PUSH0 DUP1 REVERT JUMPDEST POP GAS CALL ISZERO DUP1 ISZERO PUSH2 0x374 JUMPI RETURNDATASIZE PUSH0 DUP1 RETURNDATACOPY RETURNDATASIZE PUSH0 REVERT JUMPDEST POP POP POP POP PUSH0 DUP1 SLOAD SWAP1 PUSH2 0x100 EXP SWAP1 DIV PUSH20 0xFFFFFFFFFFFFFFFFFFFFFFFFFFFFFFFFFFFFFFFF AND PUSH20 0xFFFFFFFFFFFFFFFFFFFFFFFFFFFFFFFFFFFFFFFF AND PUSH4 0x19C43A01 PUSH1 0x40 MLOAD DUP2 PUSH4 0xFFFFFFFF AND PUSH1 0xE0 SHL DUP2 MSTORE PUSH1 0x4 ADD PUSH0 PUSH1 0x40 MLOAD DUP1 DUP4 SUB DUP2 PUSH0 DUP8 DUP1 EXTCODESIZE ISZERO DUP1 ISZERO PUSH2 0x3DC JUMPI PUSH0 DUP1 REVERT JUMPDEST POP GAS CALL ISZERO DUP1 ISZERO PUSH2 0x3EE JUMPI RETURNDATASIZE PUSH0 DUP1 RETURNDATACOPY RETURNDATASIZE PUSH0 REVERT JUMPDEST POP POP POP POP PUSH0 DUP1 SLOAD SWAP1 PUSH2 0x100 EXP SWAP1 DIV PUSH20 0xFFFFFFFFFFFFFFFFFFFFFFFFFFFFFFFFFFFFFFFF AND PUSH20 0xFFFFFFFFFFFFFFFFFFFFFFFFFFFFFFFFFFFFFFFF AND PUSH4 0xCF9F23B5 PUSH1 0x40 MLOAD DUP2 PUSH4 0xFFFFFFFF AND PUSH1 0xE0 SHL DUP2 MSTORE PUSH1 0x4 ADD PUSH0 PUSH1 0x40 MLOAD DUP1 DUP4 SUB DUP2 PUSH0 DUP8 DUP1 EXTCODESIZE ISZERO DUP1 ISZERO PUSH2 0x456 JUMPI PUSH0 DUP1 REVERT JUMPDEST POP GAS CALL ISZERO DUP1 ISZERO PUSH2 0x468 JUMPI RETURNDATASIZE PUSH0 DUP1 RETURNDATACOPY RETURNDATASIZE PUSH0 REVERT JUMPDEST POP POP POP POP PUSH0 DUP1 SLOAD SWAP1 PUSH2 0x100 EXP SWAP1 DIV PUSH20 0xFFFFFFFFFFFFFFFFFFFFFFFFFFFFFFFFFFFFFFFF AND PUSH20 0xFFFFFFFFFFFFFFFFFFFFFFFFFFFFFFFFFFFFFFFF AND PUSH4 0xE0232B42 PUSH0 DUP1 SLOAD SWAP1 PUSH2 0x100 EXP SWAP1 DIV PUSH20 0xFFFFFFFFFFFFFFFFFFFFFFFFFFFFFFFFFFFFFFFF AND PUSH0 PUSH2 0x4D0 PUSH2 0x1AB JUMP JUMPDEST PUSH1 0x40 MLOAD DUP5 PUSH4 0xFFFFFFFF AND PUSH1 0xE0 SHL DUP2 MSTORE PUSH1 0x4 ADD PUSH2 0x4EE SWAP4 SWAP3 SWAP2 SWAP1 PUSH2 0xA9A JUMP JUMPDEST PUSH0 PUSH1 0x40 MLOAD DUP1 DUP4 SUB DUP2 PUSH0 DUP8 DUP1 EXTCODESIZE ISZERO DUP1 ISZERO PUSH2 0x505 JUMPI PUSH0 DUP1 REVERT JUMPDEST POP GAS CALL ISZERO DUP1 ISZERO PUSH2 0x517 JUMPI RETURNDATASIZE PUSH0 DUP1 RETURNDATACOPY RETURNDATASIZE PUSH0 REVERT JUMPDEST POP POP POP POP PUSH2 0x523 PUSH2 0x526 JUMP JUMPDEST POP JUMP JUMPDEST PUSH0 DUP1 SLOAD SWAP1 PUSH2 0x100 EXP SWAP1 DIV PUSH20 0xFFFFFFFFFFFFFFFFFFFFFFFFFFFFFFFFFFFFFFFF AND PUSH20 0xFFFFFFFFFFFFFFFFFFFFFFFFFFFFFFFFFFFFFFFF AND PUSH4 0xFA391C64 PUSH1 0x40 MLOAD DUP2 PUSH4 0xFFFFFFFF AND PUSH1 0xE0 SHL DUP2 MSTORE PUSH1 0x4 ADD PUSH0 PUSH1 0x40 MLOAD DUP1 DUP4 SUB DUP2 PUSH0 DUP8 DUP1 EXTCODESIZE ISZERO DUP1 ISZERO PUSH2 0x58A JUMPI PUSH0 DUP1 REVERT JUMPDEST POP GAS CALL ISZERO DUP1 ISZERO PUSH2 0x59C JUMPI RETURNDATASIZE PUSH0 DUP1 RETURNDATACOPY RETURNDATASIZE PUSH0 REVERT JUMPDEST POP POP POP POP JUMP JUMPDEST PUSH0 DUP1 SLOAD SWAP1 PUSH2 0x100 EXP SWAP1 DIV PUSH20 0xFFFFFFFFFFFFFFFFFFFFFFFFFFFFFFFFFFFFFFFF AND DUP2 JUMP JUMPDEST PUSH0 DUP1 PUSH0 SWAP1 SLOAD SWAP1 PUSH2 0x100 EXP SWAP1 DIV PUSH20 0xFFFFFFFFFFFFFFFFFFFFFFFFFFFFFFFFFFFFFFFF AND PUSH20 0xFFFFFFFFFFFFFFFFFFFFFFFFFFFFFFFFFFFFFFFF AND PUSH1 0x64 PUSH1 0x40 MLOAD PUSH2 0x60B SWAP1 PUSH2 0x9AC JUMP JUMPDEST PUSH0 PUSH1 0x40 MLOAD DUP1 DUP4 SUB DUP2 DUP6 DUP8 GAS CALL SWAP3 POP POP POP RETURNDATASIZE DUP1 PUSH0 DUP2 EQ PUSH2 0x645 JUMPI PUSH1 0x40 MLOAD SWAP2 POP PUSH1 0x1F NOT PUSH1 0x3F RETURNDATASIZE ADD AND DUP3 ADD PUSH1 0x40 MSTORE RETURNDATASIZE DUP3 MSTORE RETURNDATASIZE PUSH0 PUSH1 0x20 DUP5 ADD RETURNDATACOPY PUSH2 0x64A JUMP JUMPDEST PUSH1 0x60 SWAP2 POP JUMPDEST POP POP SWAP1 POP DUP1 PUSH2 0x68E JUMPI PUSH1 0x40 MLOAD PUSH32 0x8C379A000000000000000000000000000000000000000000000000000000000 DUP2 MSTORE PUSH1 0x4 ADD PUSH2 0x685 SWAP1 PUSH2 0xA1A JUMP JUMPDEST PUSH1 0x40 MLOAD DUP1 SWAP2 SUB SWAP1 REVERT JUMPDEST POP JUMP JUMPDEST PUSH0 DUP1 SLOAD SWAP1 PUSH2 0x100 EXP SWAP1 DIV PUSH20 0xFFFFFFFFFFFFFFFFFFFFFFFFFFFFFFFFFFFFFFFF AND PUSH20 0xFFFFFFFFFFFFFFFFFFFFFFFFFFFFFFFFFFFFFFFF AND PUSH4 0xC58A455B PUSH1 0x40 MLOAD DUP2 PUSH4 0xFFFFFFFF AND PUSH1 0xE0 SHL DUP2 MSTORE PUSH1 0x4 ADD PUSH0 PUSH1 0x40 MLOAD DUP1 DUP4 SUB DUP2 PUSH0 DUP8 DUP1 EXTCODESIZE ISZERO DUP1 ISZERO PUSH2 0x6F5 JUMPI PUSH0 DUP1 REVERT JUMPDEST POP GAS CALL ISZERO DUP1 ISZERO PUSH2 0x707 JUMPI RETURNDATASIZE PUSH0 DUP1 RETURNDATACOPY RETURNDATASIZE PUSH0 REVERT JUMPDEST POP POP POP POP JUMP JUMPDEST PUSH0 DUP1 SLOAD SWAP1 PUSH2 0x100 EXP SWAP1 DIV PUSH20 0xFFFFFFFFFFFFFFFFFFFFFFFFFFFFFFFFFFFFFFFF AND PUSH20 0xFFFFFFFFFFFFFFFFFFFFFFFFFFFFFFFFFFFFFFFF AND PUSH4 0xCF9F23B5 PUSH1 0x40 MLOAD DUP2 PUSH4 0xFFFFFFFF AND PUSH1 0xE0 SHL DUP2 MSTORE PUSH1 0x4 ADD PUSH0 PUSH1 0x40 MLOAD DUP1 DUP4 SUB DUP2 PUSH0 DUP8 DUP1 EXTCODESIZE ISZERO DUP1 ISZERO PUSH2 0x771 JUMPI PUSH0 DUP1 REVERT JUMPDEST POP GAS CALL ISZERO DUP1 ISZERO PUSH2 0x783 JUMPI RETURNDATASIZE PUSH0 DUP1 RETURNDATACOPY RETURNDATASIZE PUSH0 REVERT JUMPDEST POP POP POP POP JUMP JUMPDEST PUSH0 DUP1 SLOAD SWAP1 PUSH2 0x100 EXP SWAP1 DIV PUSH20 0xFFFFFFFFFFFFFFFFFFFFFFFFFFFFFFFFFFFFFFFF AND PUSH20 0xFFFFFFFFFFFFFFFFFFFFFFFFFFFFFFFFFFFFFFFF AND PUSH4 0xE0232B42 PUSH0 DUP1 SLOAD SWAP1 PUSH2 0x100 EXP SWAP1 DIV PUSH20 0xFFFFFFFFFFFFFFFFFFFFFFFFFFFFFFFFFFFFFFFF AND PUSH0 PUSH2 0x7ED PUSH2 0x1AB JUMP JUMPDEST PUSH1 0x40 MLOAD DUP5 PUSH4 0xFFFFFFFF AND PUSH1 0xE0 SHL DUP2 MSTORE PUSH1 0x4 ADD PUSH2 0x80B SWAP4 SWAP3 SWAP2 SWAP1 PUSH2 0xA9A JUMP JUMPDEST PUSH0 PUSH1 0x40 MLOAD DUP1 DUP4 SUB DUP2 PUSH0 DUP8 DUP1 EXTCODESIZE ISZERO DUP1 ISZERO PUSH2 0x822 JUMPI PUSH0 DUP1 REVERT JUMPDEST POP GAS CALL ISZERO DUP1 ISZERO PUSH2 0x834 JUMPI RETURNDATASIZE PUSH0 DUP1 RETURNDATACOPY RETURNDATASIZE PUSH0 REVERT JUMPDEST POP POP POP POP PUSH2 0x840 PUSH2 0x526 JUMP JUMPDEST JUMP JUMPDEST PUSH0 DUP2 MLOAD SWAP1 POP SWAP2 SWAP1 POP JUMP JUMPDEST PUSH0 DUP3 DUP3 MSTORE PUSH1 0x20 DUP3 ADD SWAP1 POP SWAP3 SWAP2 POP POP JUMP JUMPDEST PUSH0 JUMPDEST DUP4 DUP2 LT ISZERO PUSH2 0x879 JUMPI DUP1 DUP3 ADD MLOAD DUP2 DUP5 ADD MSTORE PUSH1 0x20 DUP2 ADD SWAP1 POP PUSH2 0x85E JUMP JUMPDEST PUSH0 DUP5 DUP5 ADD MSTORE POP POP POP POP JUMP JUMPDEST PUSH0 PUSH1 0x1F NOT PUSH1 0x1F DUP4 ADD AND SWAP1 POP SWAP2 SWAP1 POP JUMP JUMPDEST PUSH0 PUSH2 0x89E DUP3 PUSH2 0x842 JUMP JUMPDEST PUSH2 0x8A8 DUP2 DUP6 PUSH2 0x84C JUMP JUMPDEST SWAP4 POP PUSH2 0x8B8 DUP2 DUP6 PUSH1 0x20 DUP7 ADD PUSH2 0x85C JUMP JUMPDEST PUSH2 0x8C1 DUP2 PUSH2 0x884 JUMP JUMPDEST DUP5 ADD SWAP2 POP POP SWAP3 SWAP2 POP POP JUMP JUMPDEST PUSH0 PUSH1 0x20 DUP3 ADD SWAP1 POP DUP2 DUP2 SUB PUSH0 DUP4 ADD MSTORE PUSH2 0x8E4 DUP2 DUP5 PUSH2 0x894 JUMP JUMPDEST SWAP1 POP SWAP3 SWAP2 POP POP JUMP JUMPDEST PUSH0 PUSH20 0xFFFFFFFFFFFFFFFFFFFFFFFFFFFFFFFFFFFFFFFF DUP3 AND SWAP1 POP SWAP2 SWAP1 POP JUMP JUMPDEST PUSH0 DUP2 SWAP1 POP SWAP2 SWAP1 POP JUMP JUMPDEST PUSH0 PUSH2 0x92E PUSH2 0x929 PUSH2 0x924 DUP5 PUSH2 0x8EC JUMP JUMPDEST PUSH2 0x90B JUMP JUMPDEST PUSH2 0x8EC JUMP JUMPDEST SWAP1 POP SWAP2 SWAP1 POP JUMP JUMPDEST PUSH0 PUSH2 0x93F DUP3 PUSH2 0x914 JUMP JUMPDEST SWAP1 POP SWAP2 SWAP1 POP JUMP JUMPDEST PUSH0 PUSH2 0x950 DUP3 PUSH2 0x935 JUMP JUMPDEST SWAP1 POP SWAP2 SWAP1 POP JUMP JUMPDEST PUSH2 0x960 DUP2 PUSH2 0x946 JUMP JUMPDEST DUP3 MSTORE POP POP JUMP JUMPDEST PUSH0 PUSH1 0x20 DUP3 ADD SWAP1 POP PUSH2 0x979 PUSH0 DUP4 ADD DUP5 PUSH2 0x957 JUMP JUMPDEST SWAP3 SWAP2 POP POP JUMP JUMPDEST PUSH0 DUP2 SWAP1 POP SWAP3 SWAP2 POP POP JUMP JUMPDEST POP JUMP JUMPDEST PUSH0 PUSH2 0x997 PUSH0 DUP4 PUSH2 0x97F JUMP JUMPDEST SWAP2 POP PUSH2 0x9A2 DUP3 PUSH2 0x989 JUMP JUMPDEST PUSH0 DUP3 ADD SWAP1 POP SWAP2 SWAP1 POP JUMP JUMPDEST PUSH0 PUSH2 0x9B6 DUP3 PUSH2 0x98C JUMP JUMPDEST SWAP2 POP DUP2 SWAP1 POP SWAP2 SWAP1 POP JUMP JUMPDEST PUSH0 DUP3 DUP3 MSTORE PUSH1 0x20 DUP3 ADD SWAP1 POP SWAP3 SWAP2 POP POP JUMP JUMPDEST PUSH32 0x63616C6C206661696C6564000000000000000000000000000000000000000000 PUSH0 DUP3 ADD MSTORE POP JUMP JUMPDEST PUSH0 PUSH2 0xA04 PUSH1 0xB DUP4 PUSH2 0x9C0 JUMP JUMPDEST SWAP2 POP PUSH2 0xA0F DUP3 PUSH2 0x9D0 JUMP JUMPDEST PUSH1 0x20 DUP3 ADD SWAP1 POP SWAP2 SWAP1 POP JUMP JUMPDEST PUSH0 PUSH1 0x20 DUP3 ADD SWAP1 POP DUP2 DUP2 SUB PUSH0 DUP4 ADD MSTORE PUSH2 0xA31 DUP2 PUSH2 0x9F8 JUMP JUMPDEST SWAP1 POP SWAP2 SWAP1 POP JUMP JUMPDEST PUSH0 PUSH2 0xA42 DUP3 PUSH2 0x8EC JUMP JUMPDEST SWAP1 POP SWAP2 SWAP1 POP JUMP JUMPDEST PUSH2 0xA52 DUP2 PUSH2 0xA38 JUMP JUMPDEST DUP3 MSTORE POP POP JUMP JUMPDEST PUSH0 DUP2 SWAP1 POP SWAP2 SWAP1 POP JUMP JUMPDEST PUSH0 DUP2 SWAP1 POP SWAP2 SWAP1 POP JUMP JUMPDEST PUSH0 PUSH2 0xA84 PUSH2 0xA7F PUSH2 0xA7A DUP5 PUSH2 0xA58 JUMP JUMPDEST PUSH2 0x90B JUMP JUMPDEST PUSH2 0xA61 JUMP JUMPDEST SWAP1 POP SWAP2 SWAP1 POP JUMP JUMPDEST PUSH2 0xA94 DUP2 PUSH2 0xA6A JUMP JUMPDEST DUP3 MSTORE POP POP JUMP JUMPDEST PUSH0 PUSH1 0x60 DUP3 ADD SWAP1 POP PUSH2 0xAAD PUSH0 DUP4 ADD DUP7 PUSH2 0xA49 JUMP JUMPDEST PUSH2 0xABA PUSH1 0x20 DUP4 ADD DUP6 PUSH2 0xA8B JUMP JUMPDEST DUP2 DUP2 SUB PUSH1 0x40 DUP4 ADD MSTORE PUSH2 0xACC DUP2 DUP5 PUSH2 0x894 JUMP JUMPDEST SWAP1 POP SWAP5 SWAP4 POP POP POP POP JUMP INVALID LOG2 PUSH5 0x6970667358 0x22 SLT KECCAK256 LOG1 0x4C DUP10 0xE1 XOR DUP8 PUSH20 0x921603B9C4DB526FAF7613493A0C9CAA4B0AF513 PUSH13 0x873A27B564736F6C6343000815 STOP CALLER LOG2 PUSH5 0x6970667358 0x22 SLT KECCAK256 0xF6 CREATE2 0xD3 DUP5 SWAP1 0xCE DUP4 0x5E SHL 0xD 0xF7 DUP8 PUSH1 0xAA 0x22 0xE7 0x25 0x2D PUSH18 0x1D6CF93747A72A10D108D6FA0064736F6C63 NUMBER STOP ADDMOD ISZERO STOP CALLER PUSH1 0x80 PUSH1 0x40 MSTORE CALLVALUE DUP1 ISZERO PUSH2 0xF JUMPI PUSH0 DUP1 REVERT JUMPDEST POP PUSH1 0x40 MLOAD PUSH2 0xC18 CODESIZE SUB DUP1 PUSH2 0xC18 DUP4 CODECOPY DUP2 DUP2 ADD PUSH1 0x40 MSTORE DUP2 ADD SWAP1 PUSH2 0x31 SWAP2 SWAP1 PUSH2 0xD4 JUMP JUMPDEST DUP1 PUSH0 DUP1 PUSH2 0x100 EXP DUP2 SLOAD DUP2 PUSH20 0xFFFFFFFFFFFFFFFFFFFFFFFFFFFFFFFFFFFFFFFF MUL NOT AND SWAP1 DUP4 PUSH20 0xFFFFFFFFFFFFFFFFFFFFFFFFFFFFFFFFFFFFFFFF AND MUL OR SWAP1 SSTORE POP POP PUSH2 0xFF JUMP JUMPDEST PUSH0 DUP1 REVERT JUMPDEST PUSH0 PUSH20 0xFFFFFFFFFFFFFFFFFFFFFFFFFFFFFFFFFFFFFFFF DUP3 AND SWAP1 POP SWAP2 SWAP1 POP JUMP JUMPDEST PUSH0 PUSH2 0xA3 DUP3 PUSH2 0x7A JUMP JUMPDEST SWAP1 POP SWAP2 SWAP1 POP JUMP JUMPDEST PUSH2 0xB3 DUP2 PUSH2 0x99 JUMP JUMPDEST DUP2 EQ PUSH2 0xBD JUMPI PUSH0 DUP1 REVERT JUMPDEST POP JUMP JUMPDEST PUSH0 DUP2 MLOAD SWAP1 POP PUSH2 0xCE DUP2 PUSH2 0xAA JUMP JUMPDEST SWAP3 SWAP2 POP POP JUMP JUMPDEST PUSH0 PUSH1 0x20 DUP3 DUP5 SUB SLT ISZERO PUSH2 0xE9 JUMPI PUSH2 0xE8 PUSH2 0x76 JUMP JUMPDEST JUMPDEST PUSH0 PUSH2 0xF6 DUP5 DUP3 DUP6 ADD PUSH2 0xC0 JUMP JUMPDEST SWAP2 POP POP SWAP3 SWAP2 POP POP JUMP JUMPDEST PUSH2 0xB0C DUP1 PUSH2 0x10C PUSH0 CODECOPY PUSH0 RETURN INVALID PUSH1 0x80 PUSH1 0x40 MSTORE PUSH1 0x4 CALLDATASIZE LT PUSH2 0x85 JUMPI PUSH0 CALLDATALOAD PUSH1 0xE0 SHR DUP1 PUSH4 0x946644CD GT PUSH2 0x58 JUMPI DUP1 PUSH4 0x946644CD EQ PUSH2 0xDD JUMPI DUP1 PUSH4 0x9FCEC698 EQ PUSH2 0x107 JUMPI DUP1 PUSH4 0xB2B9F26D EQ PUSH2 0x111 JUMPI DUP1 PUSH4 0xDC5BB9A1 EQ PUSH2 0x11B JUMPI DUP1 PUSH4 0xE4832009 EQ PUSH2 0x125 JUMPI PUSH2 0x85 JUMP JUMPDEST DUP1 PUSH4 0x12A50B25 EQ PUSH2 0x89 JUMPI DUP1 PUSH4 0x13B6AE4C EQ PUSH2 0x93 JUMPI DUP1 PUSH4 0x419EFC03 EQ PUSH2 0xBD JUMPI DUP1 PUSH4 0x522E1177 EQ PUSH2 0xC7 JUMPI JUMPDEST PUSH0 DUP1 REVERT JUMPDEST PUSH2 0x91 PUSH2 0x12F JUMP JUMPDEST STOP JUMPDEST CALLVALUE DUP1 ISZERO PUSH2 0x9E JUMPI PUSH0 DUP1 REVERT JUMPDEST POP PUSH2 0xA7 PUSH2 0x1AB JUMP JUMPDEST PUSH1 0x40 MLOAD PUSH2 0xB4 SWAP2 SWAP1 PUSH2 0x8CC JUMP JUMPDEST PUSH1 0x40 MLOAD DUP1 SWAP2 SUB SWAP1 RETURN JUMPDEST PUSH2 0xC5 PUSH2 0x235 JUMP JUMPDEST STOP JUMPDEST CALLVALUE DUP1 ISZERO PUSH2 0xD2 JUMPI PUSH0 DUP1 REVERT JUMPDEST POP PUSH2 0xDB PUSH2 0x526 JUMP JUMPDEST STOP JUMPDEST CALLVALUE DUP1 ISZERO PUSH2 0xE8 JUMPI PUSH0 DUP1 REVERT JUMPDEST POP PUSH2 0xF1 PUSH2 0x5A2 JUMP JUMPDEST PUSH1 0x40 MLOAD PUSH2 0xFE SWAP2 SWAP1 PUSH2 0x966 JUMP JUMPDEST PUSH1 0x40 MLOAD DUP1 SWAP2 SUB SWAP1 RETURN JUMPDEST PUSH2 0x10F PUSH2 0x5C5 JUMP JUMPDEST STOP JUMPDEST PUSH2 0x119 PUSH2 0x691 JUMP JUMPDEST STOP JUMPDEST PUSH2 0x123 PUSH2 0x70D JUMP JUMPDEST STOP JUMPDEST PUSH2 0x12D PUSH2 0x789 JUMP JUMPDEST STOP JUMPDEST PUSH0 DUP1 SLOAD SWAP1 PUSH2 0x100 EXP SWAP1 DIV PUSH20 0xFFFFFFFFFFFFFFFFFFFFFFFFFFFFFFFFFFFFFFFF AND PUSH20 0xFFFFFFFFFFFFFFFFFFFFFFFFFFFFFFFFFFFFFFFF AND PUSH4 0x19C43A01 PUSH1 0x40 MLOAD DUP2 PUSH4 0xFFFFFFFF AND PUSH1 0xE0 SHL DUP2 MSTORE PUSH1 0x4 ADD PUSH0 PUSH1 0x40 MLOAD DUP1 DUP4 SUB DUP2 PUSH0 DUP8 DUP1 EXTCODESIZE ISZERO DUP1 ISZERO PUSH2 0x193 JUMPI PUSH0 DUP1 REVERT JUMPDEST POP GAS CALL ISZERO DUP1 ISZERO PUSH2 0x1A5 JUMPI RETURNDATASIZE PUSH0 DUP1 RETURNDATACOPY RETURNDATASIZE PUSH0 REVERT JUMPDEST POP POP POP POP JUMP JUMPDEST PUSH1 0x60 PUSH1 0x40 MLOAD PUSH1 0x24 ADD PUSH1 0x40 MLOAD PUSH1 0x20 DUP2 DUP4 SUB SUB DUP2 MSTORE SWAP1 PUSH1 0x40 MSTORE PUSH32 0xE09966A800000000000000000000000000000000000000000000000000000000 PUSH28 0xFFFFFFFFFFFFFFFFFFFFFFFFFFFFFFFFFFFFFFFFFFFFFFFFFFFFFFFF NOT AND PUSH1 0x20 DUP3 ADD DUP1 MLOAD PUSH28 0xFFFFFFFFFFFFFFFFFFFFFFFFFFFFFFFFFFFFFFFFFFFFFFFFFFFFFFFF DUP4 DUP2 DUP4 AND OR DUP4 MSTORE POP POP POP POP SWAP1 POP SWAP1 JUMP JUMPDEST PUSH0 DUP1 PUSH0 SWAP1 SLOAD SWAP1 PUSH2 0x100 EXP SWAP1 DIV PUSH20 0xFFFFFFFFFFFFFFFFFFFFFFFFFFFFFFFFFFFFFFFF AND PUSH20 0xFFFFFFFFFFFFFFFFFFFFFFFFFFFFFFFFFFFFFFFF AND PUSH1 0x64 PUSH1 0x40 MLOAD PUSH2 0x27B SWAP1 PUSH2 0x9AC JUMP JUMPDEST PUSH0 PUSH1 0x40 MLOAD DUP1 DUP4 SUB DUP2 DUP6 DUP8 GAS CALL SWAP3 POP POP POP RETURNDATASIZE DUP1 PUSH0 DUP2 EQ PUSH2 0x2B5 JUMPI PUSH1 0x40 MLOAD SWAP2 POP PUSH1 0x1F NOT PUSH1 0x3F RETURNDATASIZE ADD AND DUP3 ADD PUSH1 0x40 MSTORE RETURNDATASIZE DUP3 MSTORE RETURNDATASIZE PUSH0 PUSH1 0x20 DUP5 ADD RETURNDATACOPY PUSH2 0x2BA JUMP JUMPDEST PUSH1 0x60 SWAP2 POP JUMPDEST POP POP SWAP1 POP DUP1 PUSH2 0x2FE JUMPI PUSH1 0x40 MLOAD PUSH32 0x8C379A000000000000000000000000000000000000000000000000000000000 DUP2 MSTORE PUSH1 0x4 ADD PUSH2 0x2F5 SWAP1 PUSH2 0xA1A JUMP JUMPDEST PUSH1 0x40 MLOAD DUP1 SWAP2 SUB SWAP1 REVERT JUMPDEST PUSH0 DUP1 SLOAD SWAP1 PUSH2 0x100 EXP SWAP1 DIV PUSH20 0xFFFFFFFFFFFFFFFFFFFFFFFFFFFFFFFFFFFFFFFF AND PUSH20 0xFFFFFFFFFFFFFFFFFFFFFFFFFFFFFFFFFFFFFFFF AND PUSH4 0xC58A455B PUSH1 0x40 MLOAD DUP2 PUSH4 0xFFFFFFFF AND PUSH1 0xE0 SHL DUP2 MSTORE PUSH1 0x4 ADD PUSH0 PUSH1 0x40 MLOAD DUP1 DUP4 SUB DUP2 PUSH0 DUP8 DUP1 EXTCODESIZE ISZERO DUP1 ISZERO PUSH2 0x362 JUMPI PUSH0 DUP1 REVERT JUMPDEST POP GAS CALL ISZERO DUP1 ISZERO PUSH2 0x374 JUMPI RETURNDATASIZE PUSH0 DUP1 RETURNDATACOPY RETURNDATASIZE PUSH0 REVERT JUMPDEST POP POP POP POP PUSH0 DUP1 SLOAD SWAP1 PUSH2 0x100 EXP SWAP1 DIV PUSH20 0xFFFFFFFFFFFFFFFFFFFFFFFFFFFFFFFFFFFFFFFF AND PUSH20 0xFFFFFFFFFFFFFFFFFFFFFFFFFFFFFFFFFFFFFFFF AND PUSH4 0x19C43A01 PUSH1 0x40 MLOAD DUP2 PUSH4 0xFFFFFFFF AND PUSH1 0xE0 SHL DUP2 MSTORE PUSH1 0x4 ADD PUSH0 PUSH1 0x40 MLOAD DUP1 DUP4 SUB DUP2 PUSH0 DUP8 DUP1 EXTCODESIZE ISZERO DUP1 ISZERO PUSH2 0x3DC JUMPI PUSH0 DUP1 REVERT JUMPDEST POP GAS CALL ISZERO DUP1 ISZERO PUSH2 0x3EE JUMPI RETURNDATASIZE PUSH0 DUP1 RETURNDATACOPY RETURNDATASIZE PUSH0 REVERT JUMPDEST POP POP POP POP PUSH0 DUP1 SLOAD SWAP1 PUSH2 0x100 EXP SWAP1 DIV PUSH20 0xFFFFFFFFFFFFFFFFFFFFFFFFFFFFFFFFFFFFFFFF AND PUSH20 0xFFFFFFFFFFFFFFFFFFFFFFFFFFFFFFFFFFFFFFFF AND PUSH4 0xCF9F23B5 PUSH1 0x40 MLOAD DUP2 PUSH4 0xFFFFFFFF AND PUSH1 0xE0 SHL DUP2 MSTORE PUSH1 0x4 ADD PUSH0 PUSH1 0x40 MLOAD DUP1 DUP4 SUB DUP2 PUSH0 DUP8 DUP1 EXTCODESIZE ISZERO DUP1 ISZERO PUSH2 0x456 JUMPI PUSH0 DUP1 REVERT JUMPDEST POP GAS CALL ISZERO DUP1 ISZERO PUSH2 0x468 JUMPI RETURNDATASIZE PUSH0 DUP1 RETURNDATACOPY RETURNDATASIZE PUSH0 REVERT JUMPDEST POP POP POP POP PUSH0 DUP1 SLOAD SWAP1 PUSH2 0x100 EXP SWAP1 DIV PUSH20 0xFFFFFFFFFFFFFFFFFFFFFFFFFFFFFFFFFFFFFFFF AND PUSH20 0xFFFFFFFFFFFFFFFFFFFFFFFFFFFFFFFFFFFFFFFF AND PUSH4 0xE0232B42 PUSH0 DUP1 SLOAD SWAP1 PUSH2 0x100 EXP SWAP1 DIV PUSH20 0xFFFFFFFFFFFFFFFFFFFFFFFFFFFFFFFFFFFFFFFF AND PUSH0 PUSH2 0x4D0 PUSH2 0x1AB JUMP JUMPDEST PUSH1 0x40 MLOAD DUP5 PUSH4 0xFFFFFFFF AND PUSH1 0xE0 SHL DUP2 MSTORE PUSH1 0x4 ADD PUSH2 0x4EE SWAP4 SWAP3 SWAP2 SWAP1 PUSH2 0xA9A JUMP JUMPDEST PUSH0 PUSH1 0x40 MLOAD DUP1 DUP4 SUB DUP2 PUSH0 DUP8 DUP1 EXTCODESIZE ISZERO DUP1 ISZERO PUSH2 0x505 JUMPI PUSH0 DUP1 REVERT JUMPDEST POP GAS CALL ISZERO DUP1 ISZERO PUSH2 0x517 JUMPI RETURNDATASIZE PUSH0 DUP1 RETURNDATACOPY RETURNDATASIZE PUSH0 REVERT JUMPDEST POP POP POP POP PUSH2 0x523 PUSH2 0x526 JUMP JUMPDEST POP JUMP JUMPDEST PUSH0 DUP1 SLOAD SWAP1 PUSH2 0x100 EXP SWAP1 DIV PUSH20 0xFFFFFFFFFFFFFFFFFFFFFFFFFFFFFFFFFFFFFFFF AND PUSH20 0xFFFFFFFFFFFFFFFFFFFFFFFFFFFFFFFFFFFFFFFF AND PUSH4 0xFA391C64 PUSH1 0x40 MLOAD DUP2 PUSH4 0xFFFFFFFF AND PUSH1 0xE0 SHL DUP2 MSTORE PUSH1 0x4 ADD PUSH0 PUSH1 0x40 MLOAD DUP1 DUP4 SUB DUP2 PUSH0 DUP8 DUP1 EXTCODESIZE ISZERO DUP1 ISZERO PUSH2 0x58A JUMPI PUSH0 DUP1 REVERT JUMPDEST POP GAS CALL ISZERO DUP1 ISZERO PUSH2 0x59C JUMPI RETURNDATASIZE PUSH0 DUP1 RETURNDATACOPY RETURNDATASIZE PUSH0 REVERT JUMPDEST POP POP POP POP JUMP JUMPDEST PUSH0 DUP1 SLOAD SWAP1 PUSH2 0x100 EXP SWAP1 DIV PUSH20 0xFFFFFFFFFFFFFFFFFFFFFFFFFFFFFFFFFFFFFFFF AND DUP2 JUMP JUMPDEST PUSH0 DUP1 PUSH0 SWAP1 SLOAD SWAP1 PUSH2 0x100 EXP SWAP1 DIV PUSH20 0xFFFFFFFFFFFFFFFFFFFFFFFFFFFFFFFFFFFFFFFF AND PUSH20 0xFFFFFFFFFFFFFFFFFFFFFFFFFFFFFFFFFFFFFFFF AND PUSH1 0x64 PUSH1 0x40 MLOAD PUSH2 0x60B SWAP1 PUSH2 0x9AC JUMP JUMPDEST PUSH0 PUSH1 0x40 MLOAD DUP1 DUP4 SUB DUP2 DUP6 DUP8 GAS CALL SWAP3 POP POP POP RETURNDATASIZE DUP1 PUSH0 DUP2 EQ PUSH2 0x645 JUMPI PUSH1 0x40 MLOAD SWAP2 POP PUSH1 0x1F NOT PUSH1 0x3F RETURNDATASIZE ADD AND DUP3 ADD PUSH1 0x40 MSTORE RETURNDATASIZE DUP3 MSTORE RETURNDATASIZE PUSH0 PUSH1 0x20 DUP5 ADD RETURNDATACOPY PUSH2 0x64A JUMP JUMPDEST PUSH1 0x60 SWAP2 POP JUMPDEST POP POP SWAP1 POP DUP1 PUSH2 0x68E JUMPI PUSH1 0x40 MLOAD PUSH32 0x8C379A000000000000000000000000000000000000000000000000000000000 DUP2 MSTORE PUSH1 0x4 ADD PUSH2 0x685 SWAP1 PUSH2 0xA1A JUMP JUMPDEST PUSH1 0x40 MLOAD DUP1 SWAP2 SUB SWAP1 REVERT JUMPDEST POP JUMP JUMPDEST PUSH0 DUP1 SLOAD SWAP1 PUSH2 0x100 EXP SWAP1 DIV PUSH20 0xFFFFFFFFFFFFFFFFFFFFFFFFFFFFFFFFFFFFFFFF AND PUSH20 0xFFFFFFFFFFFFFFFFFFFFFFFFFFFFFFFFFFFFFFFF AND PUSH4 0xC58A455B PUSH1 0x40 MLOAD DUP2 PUSH4 0xFFFFFFFF AND PUSH1 0xE0 SHL DUP2 MSTORE PUSH1 0x4 ADD PUSH0 PUSH1 0x40 MLOAD DUP1 DUP4 SUB DUP2 PUSH0 DUP8 DUP1 EXTCODESIZE ISZERO DUP1 ISZERO PUSH2 0x6F5 JUMPI PUSH0 DUP1 REVERT JUMPDEST POP GAS CALL ISZERO DUP1 ISZERO PUSH2 0x707 JUMPI RETURNDATASIZE PUSH0 DUP1 RETURNDATACOPY RETURNDATASIZE PUSH0 REVERT JUMPDEST POP POP POP POP JUMP JUMPDEST PUSH0 DUP1 SLOAD SWAP1 PUSH2 0x100 EXP SWAP1 DIV PUSH20 0xFFFFFFFFFFFFFFFFFFFFFFFFFFFFFFFFFFFFFFFF AND PUSH20 0xFFFFFFFFFFFFFFFFFFFFFFFFFFFFFFFFFFFFFFFF AND PUSH4 0xCF9F23B5 PUSH1 0x40 MLOAD DUP2 PUSH4 0xFFFFFFFF AND PUSH1 0xE0 SHL DUP2 MSTORE PUSH1 0x4 ADD PUSH0 PUSH1 0x40 MLOAD DUP1 DUP4 SUB DUP2 PUSH0 DUP8 DUP1 EXTCODESIZE ISZERO DUP1 ISZERO PUSH2 0x771 JUMPI PUSH0 DUP1 REVERT JUMPDEST POP GAS CALL ISZERO DUP1 ISZERO PUSH2 0x783 JUMPI RETURNDATASIZE PUSH0 DUP1 RETURNDATACOPY RETURNDATASIZE PUSH0 REVERT JUMPDEST POP POP POP POP JUMP JUMPDEST PUSH0 DUP1 SLOAD SWAP1 PUSH2 0x100 EXP SWAP1 DIV PUSH20 0xFFFFFFFFFFFFFFFFFFFFFFFFFFFFFFFFFFFFFFFF AND PUSH20 0xFFFFFFFFFFFFFFFFFFFFFFFFFFFFFFFFFFFFFFFF AND PUSH4 0xE0232B42 PUSH0 DUP1 SLOAD SWAP1 PUSH2 0x100 EXP SWAP1 DIV PUSH20 0xFFFFFFFFFFFFFFFFFFFFFFFFFFFFFFFFFFFFFFFF AND PUSH0 PUSH2 0x7ED PUSH2 0x1AB JUMP JUMPDEST PUSH1 0x40 MLOAD DUP5 PUSH4 0xFFFFFFFF AND PUSH1 0xE0 SHL DUP2 MSTORE PUSH1 0x4 ADD PUSH2 0x80B SWAP4 SWAP3 SWAP2 SWAP1 PUSH2 0xA9A JUMP JUMPDEST PUSH0 PUSH1 0x40 MLOAD DUP1 DUP4 SUB DUP2 PUSH0 DUP8 DUP1 EXTCODESIZE ISZERO DUP1 ISZERO PUSH2 0x822 JUMPI PUSH0 DUP1 REVERT JUMPDEST POP GAS CALL ISZERO DUP1 ISZERO PUSH2 0x834 JUMPI RETURNDATASIZE PUSH0 DUP1 RETURNDATACOPY RETURNDATASIZE PUSH0 REVERT JUMPDEST POP POP POP POP PUSH2 0x840 PUSH2 0x526 JUMP JUMPDEST JUMP JUMPDEST PUSH0 DUP2 MLOAD SWAP1 POP SWAP2 SWAP1 POP JUMP JUMPDEST PUSH0 DUP3 DUP3 MSTORE PUSH1 0x20 DUP3 ADD SWAP1 POP SWAP3 SWAP2 POP POP JUMP JUMPDEST PUSH0 JUMPDEST DUP4 DUP2 LT ISZERO PUSH2 0x879 JUMPI DUP1 DUP3 ADD MLOAD DUP2 DUP5 ADD MSTORE PUSH1 0x20 DUP2 ADD SWAP1 POP PUSH2 0x85E JUMP JUMPDEST PUSH0 DUP5 DUP5 ADD MSTORE POP POP POP POP JUMP JUMPDEST PUSH0 PUSH1 0x1F NOT PUSH1 0x1F DUP4 ADD AND SWAP1 POP SWAP2 SWAP1 POP JUMP JUMPDEST PUSH0 PUSH2 0x89E DUP3 PUSH2 0x842 JUMP JUMPDEST PUSH2 0x8A8 DUP2 DUP6 PUSH2 0x84C JUMP JUMPDEST SWAP4 POP PUSH2 0x8B8 DUP2 DUP6 PUSH1 0x20 DUP7 ADD PUSH2 0x85C JUMP JUMPDEST PUSH2 0x8C1 DUP2 PUSH2 0x884 JUMP JUMPDEST DUP5 ADD SWAP2 POP POP SWAP3 SWAP2 POP POP JUMP JUMPDEST PUSH0 PUSH1 0x20 DUP3 ADD SWAP1 POP DUP2 DUP2 SUB PUSH0 DUP4 ADD MSTORE PUSH2 0x8E4 DUP2 DUP5 PUSH2 0x894 JUMP JUMPDEST SWAP1 POP SWAP3 SWAP2 POP POP JUMP JUMPDEST PUSH0 PUSH20 0xFFFFFFFFFFFFFFFFFFFFFFFFFFFFFFFFFFFFFFFF DUP3 AND SWAP1 POP SWAP2 SWAP1 POP JUMP JUMPDEST PUSH0 DUP2 SWAP1 POP SWAP2 SWAP1 POP JUMP JUMPDEST PUSH0 PUSH2 0x92E PUSH2 0x929 PUSH2 0x924 DUP5 PUSH2 0x8EC JUMP JUMPDEST PUSH2 0x90B JUMP JUMPDEST PUSH2 0x8EC JUMP JUMPDEST SWAP1 POP SWAP2 SWAP1 POP JUMP JUMPDEST PUSH0 PUSH2 0x93F DUP3 PUSH2 0x914 JUMP JUMPDEST SWAP1 POP SWAP2 SWAP1 POP JUMP JUMPDEST PUSH0 PUSH2 0x950 DUP3 PUSH2 0x935 JUMP JUMPDEST SWAP1 POP SWAP2 SWAP1 POP JUMP JUMPDEST PUSH2 0x960 DUP2 PUSH2 0x946 JUMP JUMPDEST DUP3 MSTORE POP POP JUMP JUMPDEST PUSH0 PUSH1 0x20 DUP3 ADD SWAP1 POP PUSH2 0x979 PUSH0 DUP4 ADD DUP5 PUSH2 0x957 JUMP JUMPDEST SWAP3 SWAP2 POP POP JUMP JUMPDEST PUSH0 DUP2 SWAP1 POP SWAP3 SWAP2 POP POP JUMP JUMPDEST POP JUMP JUMPDEST PUSH0 PUSH2 0x997 PUSH0 DUP4 PUSH2 0x97F JUMP JUMPDEST SWAP2 POP PUSH2 0x9A2 DUP3 PUSH2 0x989 JUMP JUMPDEST PUSH0 DUP3 ADD SWAP1 POP SWAP2 SWAP1 POP JUMP JUMPDEST PUSH0 PUSH2 0x9B6 DUP3 PUSH2 0x98C JUMP JUMPDEST SWAP2 POP DUP2 SWAP1 POP SWAP2 SWAP1 POP JUMP JUMPDEST PUSH0 DUP3 DUP3 MSTORE PUSH1 0x20 DUP3 ADD SWAP1 POP SWAP3 SWAP2 POP POP JUMP JUMPDEST PUSH32 0x63616C6C206661696C6564000000000000000000000000000000000000000000 PUSH0 DUP3 ADD MSTORE POP JUMP JUMPDEST PUSH0 PUSH2 0xA04 PUSH1 0xB DUP4 PUSH2 0x9C0 JUMP JUMPDEST SWAP2 POP PUSH2 0xA0F DUP3 PUSH2 0x9D0 JUMP JUMPDEST PUSH1 0x20 DUP3 ADD SWAP1 POP SWAP2 SWAP1 POP JUMP JUMPDEST PUSH0 PUSH1 0x20 DUP3 ADD SWAP1 POP DUP2 DUP2 SUB PUSH0 DUP4 ADD MSTORE PUSH2 0xA31 DUP2 PUSH2 0x9F8 JUMP JUMPDEST SWAP1 POP SWAP2 SWAP1 POP JUMP JUMPDEST PUSH0 PUSH2 0xA42 DUP3 PUSH2 0x8EC JUMP JUMPDEST SWAP1 POP SWAP2 SWAP1 POP JUMP JUMPDEST PUSH2 0xA52 DUP2 PUSH2 0xA38 JUMP JUMPDEST DUP3 MSTORE POP POP JUMP JUMPDEST PUSH0 DUP2 SWAP1 POP SWAP2 SWAP1 POP JUMP JUMPDEST PUSH0 DUP2 SWAP1 POP SWAP2 SWAP1 POP JUMP JUMPDEST PUSH0 PUSH2 0xA84 PUSH2 0xA7F PUSH2 0xA7A DUP5 PUSH2 0xA58 JUMP JUMPDEST PUSH2 0x90B JUMP JUMPDEST PUSH2 0xA61 JUMP JUMPDEST SWAP1 POP SWAP2 SWAP1 POP JUMP JUMPDEST PUSH2 0xA94 DUP2 PUSH2 0xA6A JUMP JUMPDEST DUP3 MSTORE POP POP JUMP JUMPDEST PUSH0 PUSH1 0x60 DUP3 ADD SWAP1 POP PUSH2 0xAAD PUSH0 DUP4 ADD DUP7 PUSH2 0xA49 JUMP JUMPDEST PUSH2 0xABA PUSH1 0x20 DUP4 ADD DUP6 PUSH2 0xA8B JUMP JUMPDEST DUP2 DUP2 SUB PUSH1 0x40 DUP4 ADD MSTORE PUSH2 0xACC DUP2 DUP5 PUSH2 0x894 JUMP JUMPDEST SWAP1 POP SWAP5 SWAP4 POP POP POP POP JUMP INVALID LOG2 PUSH5 0x6970667358 0x22 SLT KECCAK256 LOG1 0x4C DUP10 0xE1 XOR DUP8 PUSH20 0x921603B9C4DB526FAF7613493A0C9CAA4B0AF513 PUSH13 0x873A27B564736F6C6343000815 STOP CALLER "
				},
				"gasEstimates": {
					"creation": {
						"codeDepositCost": "1028000",
						"executionCost": "infinite",
						"totalCost": "infinite"
					},
					"external": {
						"byteCode()": "infinite",
						"creatCode()": "infinite",
						"deployed()": "infinite",
						"fi()": "infinite",
						"figSalt()": "infinite",
						"getHash()": "infinite"
					}
				},
				"methodIdentifiers": {
					"byteCode()": "0560280e",
					"creatCode()": "c878eb3b",
					"deployed()": "f905c15a",
					"fi()": "c61b20e2",
					"figSalt()": "494a1ae5",
					"getHash()": "d13319c4"
				}
			},
			"storageLayout": {
				"storage": [
					{
						"astId": 158,
						"contract": "shoot/2/可见性修饰符/1.sol:deploy",
						"label": "fi",
						"offset": 0,
						"slot": "0",
						"type": "t_contract(fig)155"
					},
					{
						"astId": 160,
						"contract": "shoot/2/可见性修饰符/1.sol:deploy",
						"label": "fun",
						"offset": 0,
						"slot": "1",
						"type": "t_address_payable"
					},
					{
						"astId": 166,
						"contract": "shoot/2/可见性修饰符/1.sol:deploy",
						"label": "byteCode",
						"offset": 0,
						"slot": "2",
						"type": "t_bytes_storage"
					},
					{
						"astId": 168,
						"contract": "shoot/2/可见性修饰符/1.sol:deploy",
						"label": "creatCode",
						"offset": 0,
						"slot": "3",
						"type": "t_bytes_storage"
					}
				],
				"types": {
					"t_address_payable": {
						"encoding": "inplace",
						"label": "address payable",
						"numberOfBytes": "20"
					},
					"t_bytes_storage": {
						"encoding": "bytes",
						"label": "bytes",
						"numberOfBytes": "32"
					},
					"t_contract(fig)155": {
						"encoding": "inplace",
						"label": "contract fig",
						"numberOfBytes": "20"
					}
				}
			},
			"userdoc": {
				"kind": "user",
				"methods": {},
				"version": 1
			}
		}
	}
}