{
	"shoot/2/tx.origin误用/2.sol": {
		"Flashloan": {
			"abi": [
				{
					"inputs": [],
					"stateMutability": "payable",
					"type": "constructor"
				},
				{
					"inputs": [
						{
							"internalType": "address",
							"name": "target",
							"type": "address"
						},
						{
							"internalType": "uint256",
							"name": "amount",
							"type": "uint256"
						},
						{
							"internalType": "bytes",
							"name": "data",
							"type": "bytes"
						}
					],
					"name": "flashLoan",
					"outputs": [],
					"stateMutability": "nonpayable",
					"type": "function"
				},
				{
					"inputs": [],
					"name": "getLicense",
					"outputs": [],
					"stateMutability": "nonpayable",
					"type": "function"
				},
				{
					"inputs": [],
					"name": "isCompleted",
					"outputs": [],
					"stateMutability": "nonpayable",
					"type": "function"
				},
				{
					"inputs": [],
					"name": "score",
					"outputs": [
						{
							"internalType": "uint256",
							"name": "",
							"type": "uint256"
						}
					],
					"stateMutability": "view",
					"type": "function"
				},
				{
					"stateMutability": "payable",
					"type": "receive"
				}
			],
			"devdoc": {
				"kind": "dev",
				"methods": {},
				"version": 1
			},
			"evm": {
				"assembly": "    /* \"shoot/2/tx.origin\\xe8\\xaf\\xaf\\xe7\\x94\\xa8/2.sol\":1049:2178  contract Flashloan{... */\n  mstore(0x40, 0x80)\n    /* \"shoot/2/tx.origin\\xe8\\xaf\\xaf\\xe7\\x94\\xa8/2.sol\":1196:1200  true */\n  0x01\n    /* \"shoot/2/tx.origin\\xe8\\xaf\\xaf\\xe7\\x94\\xa8/2.sol\":1173:1180  license */\n  dup1\n    /* \"shoot/2/tx.origin\\xe8\\xaf\\xaf\\xe7\\x94\\xa8/2.sol\":1173:1195  license[address(this)] */\n  0x00\n    /* \"shoot/2/tx.origin\\xe8\\xaf\\xaf\\xe7\\x94\\xa8/2.sol\":1189:1193  this */\n  address\n    /* \"shoot/2/tx.origin\\xe8\\xaf\\xaf\\xe7\\x94\\xa8/2.sol\":1173:1195  license[address(this)] */\n  0xffffffffffffffffffffffffffffffffffffffff\n  and\n  0xffffffffffffffffffffffffffffffffffffffff\n  and\n  dup2\n  mstore\n  0x20\n  add\n  swap1\n  dup2\n  mstore\n  0x20\n  add\n  0x00\n  keccak256\n  0x00\n    /* \"shoot/2/tx.origin\\xe8\\xaf\\xaf\\xe7\\x94\\xa8/2.sol\":1173:1200  license[address(this)]=true */\n  0x0100\n  exp\n  dup2\n  sload\n  dup2\n  0xff\n  mul\n  not\n  and\n  swap1\n  dup4\n  iszero\n  iszero\n  mul\n  or\n  swap1\n  sstore\n  pop\n    /* \"shoot/2/tx.origin\\xe8\\xaf\\xaf\\xe7\\x94\\xa8/2.sol\":1049:2178  contract Flashloan{... */\n  dataSize(sub_0)\n  dup1\n  dataOffset(sub_0)\n  0x00\n  codecopy\n  0x00\n  return\nstop\n\nsub_0: assembly {\n        /* \"shoot/2/tx.origin\\xe8\\xaf\\xaf\\xe7\\x94\\xa8/2.sol\":1049:2178  contract Flashloan{... */\n      mstore(0x40, 0x80)\n      jumpi(tag_1, lt(calldatasize, 0x04))\n      shr(0xe0, calldataload(0x00))\n      dup1\n      0xc5e4dd82\n      eq\n      tag_3\n      jumpi\n      dup1\n      0xe0232b42\n      eq\n      tag_4\n      jumpi\n      dup1\n      0xefedc669\n      eq\n      tag_5\n      jumpi\n      dup1\n      0xfa391c64\n      eq\n      tag_6\n      jumpi\n      jump(tag_2)\n    tag_1:\n      jumpi(tag_2, calldatasize)\n      stop\n    tag_2:\n      0x00\n      dup1\n      revert\n        /* \"shoot/2/tx.origin\\xe8\\xaf\\xaf\\xe7\\x94\\xa8/2.sol\":1880:1971  function getLicense()public onlyLicense{... */\n    tag_3:\n      callvalue\n      dup1\n      iszero\n      tag_9\n      jumpi\n      0x00\n      dup1\n      revert\n    tag_9:\n      pop\n      tag_10\n      tag_11\n      jump\t// in\n    tag_10:\n      stop\n        /* \"shoot/2/tx.origin\\xe8\\xaf\\xaf\\xe7\\x94\\xa8/2.sol\":1332:1874  function flashLoan(address target,uint256 amount,bytes memory data)public{... */\n    tag_4:\n      callvalue\n      dup1\n      iszero\n      tag_12\n      jumpi\n      0x00\n      dup1\n      revert\n    tag_12:\n      pop\n      tag_13\n      0x04\n      dup1\n      calldatasize\n      sub\n      dup2\n      add\n      swap1\n      tag_14\n      swap2\n      swap1\n      tag_15\n      jump\t// in\n    tag_14:\n      tag_16\n      jump\t// in\n    tag_13:\n      stop\n        /* \"shoot/2/tx.origin\\xe8\\xaf\\xaf\\xe7\\x94\\xa8/2.sol\":1074:1094  uint256 public score */\n    tag_5:\n      callvalue\n      dup1\n      iszero\n      tag_17\n      jumpi\n      0x00\n      dup1\n      revert\n    tag_17:\n      pop\n      tag_18\n      tag_19\n      jump\t// in\n    tag_18:\n      mload(0x40)\n      tag_20\n      swap2\n      swap1\n      tag_21\n      jump\t// in\n    tag_20:\n      mload(0x40)\n      dup1\n      swap2\n      sub\n      swap1\n      return\n        /* \"shoot/2/tx.origin\\xe8\\xaf\\xaf\\xe7\\x94\\xa8/2.sol\":1977:2175  function isCompleted()external{... */\n    tag_6:\n      callvalue\n      dup1\n      iszero\n      tag_22\n      jumpi\n      0x00\n      dup1\n      revert\n    tag_22:\n      pop\n      tag_23\n      tag_24\n      jump\t// in\n    tag_23:\n      stop\n        /* \"shoot/2/tx.origin\\xe8\\xaf\\xaf\\xe7\\x94\\xa8/2.sol\":1880:1971  function getLicense()public onlyLicense{... */\n    tag_11:\n        /* \"shoot/2/tx.origin\\xe8\\xaf\\xaf\\xe7\\x94\\xa8/2.sol\":1253:1260  license */\n      0x01\n        /* \"shoot/2/tx.origin\\xe8\\xaf\\xaf\\xe7\\x94\\xa8/2.sol\":1253:1272  license[msg.sender] */\n      0x00\n        /* \"shoot/2/tx.origin\\xe8\\xaf\\xaf\\xe7\\x94\\xa8/2.sol\":1261:1271  msg.sender */\n      caller\n        /* \"shoot/2/tx.origin\\xe8\\xaf\\xaf\\xe7\\x94\\xa8/2.sol\":1253:1272  license[msg.sender] */\n      0xffffffffffffffffffffffffffffffffffffffff\n      and\n      0xffffffffffffffffffffffffffffffffffffffff\n      and\n      dup2\n      mstore\n      0x20\n      add\n      swap1\n      dup2\n      mstore\n      0x20\n      add\n      0x00\n      keccak256\n      0x00\n      swap1\n      sload\n      swap1\n      0x0100\n      exp\n      swap1\n      div\n      0xff\n      and\n        /* \"shoot/2/tx.origin\\xe8\\xaf\\xaf\\xe7\\x94\\xa8/2.sol\":1245:1273  require(license[msg.sender]) */\n      tag_26\n      jumpi\n      0x00\n      dup1\n      revert\n    tag_26:\n        /* \"shoot/2/tx.origin\\xe8\\xaf\\xaf\\xe7\\x94\\xa8/2.sol\":1949:1953  true */\n      0x01\n        /* \"shoot/2/tx.origin\\xe8\\xaf\\xaf\\xe7\\x94\\xa8/2.sol\":1930:1937  license */\n      dup1\n        /* \"shoot/2/tx.origin\\xe8\\xaf\\xaf\\xe7\\x94\\xa8/2.sol\":1930:1948  license[tx.origin] */\n      0x00\n        /* \"shoot/2/tx.origin\\xe8\\xaf\\xaf\\xe7\\x94\\xa8/2.sol\":1938:1947  tx.origin */\n      origin\n        /* \"shoot/2/tx.origin\\xe8\\xaf\\xaf\\xe7\\x94\\xa8/2.sol\":1930:1948  license[tx.origin] */\n      0xffffffffffffffffffffffffffffffffffffffff\n      and\n      0xffffffffffffffffffffffffffffffffffffffff\n      and\n      dup2\n      mstore\n      0x20\n      add\n      swap1\n      dup2\n      mstore\n      0x20\n      add\n      0x00\n      keccak256\n      0x00\n        /* \"shoot/2/tx.origin\\xe8\\xaf\\xaf\\xe7\\x94\\xa8/2.sol\":1930:1953  license[tx.origin]=true */\n      0x0100\n      exp\n      dup2\n      sload\n      dup2\n      0xff\n      mul\n      not\n      and\n      swap1\n      dup4\n      iszero\n      iszero\n      mul\n      or\n      swap1\n      sstore\n      pop\n        /* \"shoot/2/tx.origin\\xe8\\xaf\\xaf\\xe7\\x94\\xa8/2.sol\":1880:1971  function getLicense()public onlyLicense{... */\n      jump\t// out\n        /* \"shoot/2/tx.origin\\xe8\\xaf\\xaf\\xe7\\x94\\xa8/2.sol\":1332:1874  function flashLoan(address target,uint256 amount,bytes memory data)public{... */\n    tag_16:\n        /* \"shoot/2/tx.origin\\xe8\\xaf\\xaf\\xe7\\x94\\xa8/2.sol\":1435:1445  msg.sender */\n      caller\n        /* \"shoot/2/tx.origin\\xe8\\xaf\\xaf\\xe7\\x94\\xa8/2.sol\":1424:1445  tx.origin!=msg.sender */\n      0xffffffffffffffffffffffffffffffffffffffff\n      and\n        /* \"shoot/2/tx.origin\\xe8\\xaf\\xaf\\xe7\\x94\\xa8/2.sol\":1424:1433  tx.origin */\n      origin\n        /* \"shoot/2/tx.origin\\xe8\\xaf\\xaf\\xe7\\x94\\xa8/2.sol\":1424:1445  tx.origin!=msg.sender */\n      0xffffffffffffffffffffffffffffffffffffffff\n      and\n      sub\n        /* \"shoot/2/tx.origin\\xe8\\xaf\\xaf\\xe7\\x94\\xa8/2.sol\":1416:1446  require(tx.origin!=msg.sender) */\n      tag_29\n      jumpi\n      0x00\n      dup1\n      revert\n    tag_29:\n        /* \"shoot/2/tx.origin\\xe8\\xaf\\xaf\\xe7\\x94\\xa8/2.sol\":1459:1480  uint256 balanceBefore */\n      0x00\n        /* \"shoot/2/tx.origin\\xe8\\xaf\\xaf\\xe7\\x94\\xa8/2.sol\":1483:1504  address(this).balance */\n      selfbalance\n        /* \"shoot/2/tx.origin\\xe8\\xaf\\xaf\\xe7\\x94\\xa8/2.sol\":1459:1504  uint256 balanceBefore = address(this).balance */\n      swap1\n      pop\n        /* \"shoot/2/tx.origin\\xe8\\xaf\\xaf\\xe7\\x94\\xa8/2.sol\":1537:1543  amount */\n      dup3\n        /* \"shoot/2/tx.origin\\xe8\\xaf\\xaf\\xe7\\x94\\xa8/2.sol\":1523:1536  balanceBefore */\n      dup2\n        /* \"shoot/2/tx.origin\\xe8\\xaf\\xaf\\xe7\\x94\\xa8/2.sol\":1523:1543  balanceBefore>amount */\n      gt\n        /* \"shoot/2/tx.origin\\xe8\\xaf\\xaf\\xe7\\x94\\xa8/2.sol\":1515:1578  require(balanceBefore>amount,\"amount must letter than balance\") */\n      tag_30\n      jumpi\n      mload(0x40)\n      0x08c379a000000000000000000000000000000000000000000000000000000000\n      dup2\n      mstore\n      0x04\n      add\n      tag_31\n      swap1\n      tag_32\n      jump\t// in\n    tag_31:\n      mload(0x40)\n      dup1\n      swap2\n      sub\n      swap1\n      revert\n    tag_30:\n        /* \"shoot/2/tx.origin\\xe8\\xaf\\xaf\\xe7\\x94\\xa8/2.sol\":1599:1605  target */\n      dup4\n        /* \"shoot/2/tx.origin\\xe8\\xaf\\xaf\\xe7\\x94\\xa8/2.sol\":1591:1615  payable(target).transfer */\n      0xffffffffffffffffffffffffffffffffffffffff\n      and\n        /* \"shoot/2/tx.origin\\xe8\\xaf\\xaf\\xe7\\x94\\xa8/2.sol\":1591:1623  payable(target).transfer(amount) */\n      0x08fc\n        /* \"shoot/2/tx.origin\\xe8\\xaf\\xaf\\xe7\\x94\\xa8/2.sol\":1616:1622  amount */\n      dup5\n        /* \"shoot/2/tx.origin\\xe8\\xaf\\xaf\\xe7\\x94\\xa8/2.sol\":1591:1623  payable(target).transfer(amount) */\n      swap1\n      dup2\n      iszero\n      mul\n      swap1\n      mload(0x40)\n      0x00\n      mload(0x40)\n      dup1\n      dup4\n      sub\n      dup2\n      dup6\n      dup9\n      dup9\n      call\n      swap4\n      pop\n      pop\n      pop\n      pop\n      iszero\n      dup1\n      iszero\n      tag_34\n      jumpi\n      returndatasize\n      0x00\n      dup1\n      returndatacopy\n      revert(0x00, returndatasize)\n    tag_34:\n      pop\n        /* \"shoot/2/tx.origin\\xe8\\xaf\\xaf\\xe7\\x94\\xa8/2.sol\":1635:1647  bool success */\n      0x00\n        /* \"shoot/2/tx.origin\\xe8\\xaf\\xaf\\xe7\\x94\\xa8/2.sol\":1659:1665  target */\n      dup5\n        /* \"shoot/2/tx.origin\\xe8\\xaf\\xaf\\xe7\\x94\\xa8/2.sol\":1651:1671  payable(target).call */\n      0xffffffffffffffffffffffffffffffffffffffff\n      and\n        /* \"shoot/2/tx.origin\\xe8\\xaf\\xaf\\xe7\\x94\\xa8/2.sol\":1672:1676  data */\n      dup4\n        /* \"shoot/2/tx.origin\\xe8\\xaf\\xaf\\xe7\\x94\\xa8/2.sol\":1651:1677  payable(target).call(data) */\n      mload(0x40)\n      tag_35\n      swap2\n      swap1\n      tag_36\n      jump\t// in\n    tag_35:\n      0x00\n      mload(0x40)\n      dup1\n      dup4\n      sub\n      dup2\n      0x00\n      dup7\n      gas\n      call\n      swap2\n      pop\n      pop\n      returndatasize\n      dup1\n      0x00\n      dup2\n      eq\n      tag_39\n      jumpi\n      mload(0x40)\n      swap2\n      pop\n      and(add(returndatasize, 0x3f), not(0x1f))\n      dup3\n      add\n      0x40\n      mstore\n      returndatasize\n      dup3\n      mstore\n      returndatasize\n      0x00\n      0x20\n      dup5\n      add\n      returndatacopy\n      jump(tag_38)\n    tag_39:\n      0x60\n      swap2\n      pop\n    tag_38:\n      pop\n        /* \"shoot/2/tx.origin\\xe8\\xaf\\xaf\\xe7\\x94\\xa8/2.sol\":1634:1677  (bool success,) =payable(target).call(data) */\n      pop\n      swap1\n      pop\n        /* \"shoot/2/tx.origin\\xe8\\xaf\\xaf\\xe7\\x94\\xa8/2.sol\":1696:1703  success */\n      dup1\n        /* \"shoot/2/tx.origin\\xe8\\xaf\\xaf\\xe7\\x94\\xa8/2.sol\":1688:1728  require(success,\"flashLoan call failed\") */\n      tag_40\n      jumpi\n      mload(0x40)\n      0x08c379a000000000000000000000000000000000000000000000000000000000\n      dup2\n      mstore\n      0x04\n      add\n      tag_41\n      swap1\n      tag_42\n      jump\t// in\n    tag_41:\n      mload(0x40)\n      dup1\n      swap2\n      sub\n      swap1\n      revert\n    tag_40:\n        /* \"shoot/2/tx.origin\\xe8\\xaf\\xaf\\xe7\\x94\\xa8/2.sol\":1741:1761  uint256 balanceAfter */\n      0x00\n        /* \"shoot/2/tx.origin\\xe8\\xaf\\xaf\\xe7\\x94\\xa8/2.sol\":1764:1785  address(this).balance */\n      selfbalance\n        /* \"shoot/2/tx.origin\\xe8\\xaf\\xaf\\xe7\\x94\\xa8/2.sol\":1741:1785  uint256 balanceAfter = address(this).balance */\n      swap1\n      pop\n        /* \"shoot/2/tx.origin\\xe8\\xaf\\xaf\\xe7\\x94\\xa8/2.sol\":1818:1831  balanceBefore */\n      dup3\n        /* \"shoot/2/tx.origin\\xe8\\xaf\\xaf\\xe7\\x94\\xa8/2.sol\":1804:1816  balanceAfter */\n      dup2\n        /* \"shoot/2/tx.origin\\xe8\\xaf\\xaf\\xe7\\x94\\xa8/2.sol\":1804:1831  balanceAfter>=balanceBefore */\n      lt\n      iszero\n        /* \"shoot/2/tx.origin\\xe8\\xaf\\xaf\\xe7\\x94\\xa8/2.sol\":1796:1866  require(balanceAfter>=balanceBefore,\"flashloan hasn't been paid back\") */\n      tag_43\n      jumpi\n      mload(0x40)\n      0x08c379a000000000000000000000000000000000000000000000000000000000\n      dup2\n      mstore\n      0x04\n      add\n      tag_44\n      swap1\n      tag_45\n      jump\t// in\n    tag_44:\n      mload(0x40)\n      dup1\n      swap2\n      sub\n      swap1\n      revert\n    tag_43:\n        /* \"shoot/2/tx.origin\\xe8\\xaf\\xaf\\xe7\\x94\\xa8/2.sol\":1405:1874  {... */\n      pop\n      pop\n      pop\n        /* \"shoot/2/tx.origin\\xe8\\xaf\\xaf\\xe7\\x94\\xa8/2.sol\":1332:1874  function flashLoan(address target,uint256 amount,bytes memory data)public{... */\n      pop\n      pop\n      pop\n      jump\t// out\n        /* \"shoot/2/tx.origin\\xe8\\xaf\\xaf\\xe7\\x94\\xa8/2.sol\":1074:1094  uint256 public score */\n    tag_19:\n      sload(0x00)\n      dup2\n      jump\t// out\n        /* \"shoot/2/tx.origin\\xe8\\xaf\\xaf\\xe7\\x94\\xa8/2.sol\":1977:2175  function isCompleted()external{... */\n    tag_24:\n        /* \"shoot/2/tx.origin\\xe8\\xaf\\xaf\\xe7\\x94\\xa8/2.sol\":2024:2025  0 */\n      0x00\n        /* \"shoot/2/tx.origin\\xe8\\xaf\\xaf\\xe7\\x94\\xa8/2.sol\":2018:2023  score */\n      dup1\n        /* \"shoot/2/tx.origin\\xe8\\xaf\\xaf\\xe7\\x94\\xa8/2.sol\":2018:2025  score=0 */\n      dup2\n      swap1\n      sstore\n      pop\n        /* \"shoot/2/tx.origin\\xe8\\xaf\\xaf\\xe7\\x94\\xa8/2.sol\":2052:2061  tx.origin */\n      origin\n        /* \"shoot/2/tx.origin\\xe8\\xaf\\xaf\\xe7\\x94\\xa8/2.sol\":2040:2061  msg.sender!=tx.origin */\n      0xffffffffffffffffffffffffffffffffffffffff\n      and\n        /* \"shoot/2/tx.origin\\xe8\\xaf\\xaf\\xe7\\x94\\xa8/2.sol\":2040:2050  msg.sender */\n      caller\n        /* \"shoot/2/tx.origin\\xe8\\xaf\\xaf\\xe7\\x94\\xa8/2.sol\":2040:2061  msg.sender!=tx.origin */\n      0xffffffffffffffffffffffffffffffffffffffff\n      and\n      eq\n        /* \"shoot/2/tx.origin\\xe8\\xaf\\xaf\\xe7\\x94\\xa8/2.sol\":2036:2098  if (msg.sender!=tx.origin){... */\n      tag_47\n      jumpi\n        /* \"shoot/2/tx.origin\\xe8\\xaf\\xaf\\xe7\\x94\\xa8/2.sol\":2084:2086  50 */\n      0x32\n        /* \"shoot/2/tx.origin\\xe8\\xaf\\xaf\\xe7\\x94\\xa8/2.sol\":2077:2082  score */\n      0x00\n        /* \"shoot/2/tx.origin\\xe8\\xaf\\xaf\\xe7\\x94\\xa8/2.sol\":2077:2086  score =50 */\n      dup2\n      swap1\n      sstore\n      pop\n        /* \"shoot/2/tx.origin\\xe8\\xaf\\xaf\\xe7\\x94\\xa8/2.sol\":2036:2098  if (msg.sender!=tx.origin){... */\n    tag_47:\n        /* \"shoot/2/tx.origin\\xe8\\xaf\\xaf\\xe7\\x94\\xa8/2.sol\":2111:2118  license */\n      0x01\n        /* \"shoot/2/tx.origin\\xe8\\xaf\\xaf\\xe7\\x94\\xa8/2.sol\":2111:2130  license[msg.sender] */\n      0x00\n        /* \"shoot/2/tx.origin\\xe8\\xaf\\xaf\\xe7\\x94\\xa8/2.sol\":2119:2129  msg.sender */\n      caller\n        /* \"shoot/2/tx.origin\\xe8\\xaf\\xaf\\xe7\\x94\\xa8/2.sol\":2111:2130  license[msg.sender] */\n      0xffffffffffffffffffffffffffffffffffffffff\n      and\n      0xffffffffffffffffffffffffffffffffffffffff\n      and\n      dup2\n      mstore\n      0x20\n      add\n      swap1\n      dup2\n      mstore\n      0x20\n      add\n      0x00\n      keccak256\n      0x00\n      swap1\n      sload\n      swap1\n      0x0100\n      exp\n      swap1\n      div\n      0xff\n      and\n        /* \"shoot/2/tx.origin\\xe8\\xaf\\xaf\\xe7\\x94\\xa8/2.sol\":2108:2167  if(license[msg.sender]){... */\n      iszero\n      tag_48\n      jumpi\n        /* \"shoot/2/tx.origin\\xe8\\xaf\\xaf\\xe7\\x94\\xa8/2.sol\":2152:2155  100 */\n      0x64\n        /* \"shoot/2/tx.origin\\xe8\\xaf\\xaf\\xe7\\x94\\xa8/2.sol\":2146:2151  score */\n      0x00\n        /* \"shoot/2/tx.origin\\xe8\\xaf\\xaf\\xe7\\x94\\xa8/2.sol\":2146:2155  score=100 */\n      dup2\n      swap1\n      sstore\n      pop\n        /* \"shoot/2/tx.origin\\xe8\\xaf\\xaf\\xe7\\x94\\xa8/2.sol\":2108:2167  if(license[msg.sender]){... */\n    tag_48:\n        /* \"shoot/2/tx.origin\\xe8\\xaf\\xaf\\xe7\\x94\\xa8/2.sol\":1977:2175  function isCompleted()external{... */\n      jump\t// out\n        /* \"#utility.yul\":7:82   */\n    tag_49:\n        /* \"#utility.yul\":40:46   */\n      0x00\n        /* \"#utility.yul\":73:75   */\n      0x40\n        /* \"#utility.yul\":67:76   */\n      mload\n        /* \"#utility.yul\":57:76   */\n      swap1\n      pop\n        /* \"#utility.yul\":7:82   */\n      swap1\n      jump\t// out\n        /* \"#utility.yul\":88:205   */\n    tag_50:\n        /* \"#utility.yul\":197:198   */\n      0x00\n        /* \"#utility.yul\":194:195   */\n      dup1\n        /* \"#utility.yul\":187:199   */\n      revert\n        /* \"#utility.yul\":211:328   */\n    tag_51:\n        /* \"#utility.yul\":320:321   */\n      0x00\n        /* \"#utility.yul\":317:318   */\n      dup1\n        /* \"#utility.yul\":310:322   */\n      revert\n        /* \"#utility.yul\":334:460   */\n    tag_52:\n        /* \"#utility.yul\":371:378   */\n      0x00\n        /* \"#utility.yul\":411:453   */\n      0xffffffffffffffffffffffffffffffffffffffff\n        /* \"#utility.yul\":404:409   */\n      dup3\n        /* \"#utility.yul\":400:454   */\n      and\n        /* \"#utility.yul\":389:454   */\n      swap1\n      pop\n        /* \"#utility.yul\":334:460   */\n      swap2\n      swap1\n      pop\n      jump\t// out\n        /* \"#utility.yul\":466:562   */\n    tag_53:\n        /* \"#utility.yul\":503:510   */\n      0x00\n        /* \"#utility.yul\":532:556   */\n      tag_87\n        /* \"#utility.yul\":550:555   */\n      dup3\n        /* \"#utility.yul\":532:556   */\n      tag_52\n      jump\t// in\n    tag_87:\n        /* \"#utility.yul\":521:556   */\n      swap1\n      pop\n        /* \"#utility.yul\":466:562   */\n      swap2\n      swap1\n      pop\n      jump\t// out\n        /* \"#utility.yul\":568:690   */\n    tag_54:\n        /* \"#utility.yul\":641:665   */\n      tag_89\n        /* \"#utility.yul\":659:664   */\n      dup2\n        /* \"#utility.yul\":641:665   */\n      tag_53\n      jump\t// in\n    tag_89:\n        /* \"#utility.yul\":634:639   */\n      dup2\n        /* \"#utility.yul\":631:666   */\n      eq\n        /* \"#utility.yul\":621:684   */\n      tag_90\n      jumpi\n        /* \"#utility.yul\":680:681   */\n      0x00\n        /* \"#utility.yul\":677:678   */\n      dup1\n        /* \"#utility.yul\":670:682   */\n      revert\n        /* \"#utility.yul\":621:684   */\n    tag_90:\n        /* \"#utility.yul\":568:690   */\n      pop\n      jump\t// out\n        /* \"#utility.yul\":696:835   */\n    tag_55:\n        /* \"#utility.yul\":742:747   */\n      0x00\n        /* \"#utility.yul\":780:786   */\n      dup2\n        /* \"#utility.yul\":767:787   */\n      calldataload\n        /* \"#utility.yul\":758:787   */\n      swap1\n      pop\n        /* \"#utility.yul\":796:829   */\n      tag_92\n        /* \"#utility.yul\":823:828   */\n      dup2\n        /* \"#utility.yul\":796:829   */\n      tag_54\n      jump\t// in\n    tag_92:\n        /* \"#utility.yul\":696:835   */\n      swap3\n      swap2\n      pop\n      pop\n      jump\t// out\n        /* \"#utility.yul\":841:918   */\n    tag_56:\n        /* \"#utility.yul\":878:885   */\n      0x00\n        /* \"#utility.yul\":907:912   */\n      dup2\n        /* \"#utility.yul\":896:912   */\n      swap1\n      pop\n        /* \"#utility.yul\":841:918   */\n      swap2\n      swap1\n      pop\n      jump\t// out\n        /* \"#utility.yul\":924:1046   */\n    tag_57:\n        /* \"#utility.yul\":997:1021   */\n      tag_95\n        /* \"#utility.yul\":1015:1020   */\n      dup2\n        /* \"#utility.yul\":997:1021   */\n      tag_56\n      jump\t// in\n    tag_95:\n        /* \"#utility.yul\":990:995   */\n      dup2\n        /* \"#utility.yul\":987:1022   */\n      eq\n        /* \"#utility.yul\":977:1040   */\n      tag_96\n      jumpi\n        /* \"#utility.yul\":1036:1037   */\n      0x00\n        /* \"#utility.yul\":1033:1034   */\n      dup1\n        /* \"#utility.yul\":1026:1038   */\n      revert\n        /* \"#utility.yul\":977:1040   */\n    tag_96:\n        /* \"#utility.yul\":924:1046   */\n      pop\n      jump\t// out\n        /* \"#utility.yul\":1052:1191   */\n    tag_58:\n        /* \"#utility.yul\":1098:1103   */\n      0x00\n        /* \"#utility.yul\":1136:1142   */\n      dup2\n        /* \"#utility.yul\":1123:1143   */\n      calldataload\n        /* \"#utility.yul\":1114:1143   */\n      swap1\n      pop\n        /* \"#utility.yul\":1152:1185   */\n      tag_98\n        /* \"#utility.yul\":1179:1184   */\n      dup2\n        /* \"#utility.yul\":1152:1185   */\n      tag_57\n      jump\t// in\n    tag_98:\n        /* \"#utility.yul\":1052:1191   */\n      swap3\n      swap2\n      pop\n      pop\n      jump\t// out\n        /* \"#utility.yul\":1197:1314   */\n    tag_59:\n        /* \"#utility.yul\":1306:1307   */\n      0x00\n        /* \"#utility.yul\":1303:1304   */\n      dup1\n        /* \"#utility.yul\":1296:1308   */\n      revert\n        /* \"#utility.yul\":1320:1437   */\n    tag_60:\n        /* \"#utility.yul\":1429:1430   */\n      0x00\n        /* \"#utility.yul\":1426:1427   */\n      dup1\n        /* \"#utility.yul\":1419:1431   */\n      revert\n        /* \"#utility.yul\":1443:1545   */\n    tag_61:\n        /* \"#utility.yul\":1484:1490   */\n      0x00\n        /* \"#utility.yul\":1535:1537   */\n      0x1f\n        /* \"#utility.yul\":1531:1538   */\n      not\n        /* \"#utility.yul\":1526:1528   */\n      0x1f\n        /* \"#utility.yul\":1519:1524   */\n      dup4\n        /* \"#utility.yul\":1515:1529   */\n      add\n        /* \"#utility.yul\":1511:1539   */\n      and\n        /* \"#utility.yul\":1501:1539   */\n      swap1\n      pop\n        /* \"#utility.yul\":1443:1545   */\n      swap2\n      swap1\n      pop\n      jump\t// out\n        /* \"#utility.yul\":1551:1731   */\n    tag_62:\n        /* \"#utility.yul\":1599:1676   */\n      0x4e487b7100000000000000000000000000000000000000000000000000000000\n        /* \"#utility.yul\":1596:1597   */\n      0x00\n        /* \"#utility.yul\":1589:1677   */\n      mstore\n        /* \"#utility.yul\":1696:1700   */\n      0x41\n        /* \"#utility.yul\":1693:1694   */\n      0x04\n        /* \"#utility.yul\":1686:1701   */\n      mstore\n        /* \"#utility.yul\":1720:1724   */\n      0x24\n        /* \"#utility.yul\":1717:1718   */\n      0x00\n        /* \"#utility.yul\":1710:1725   */\n      revert\n        /* \"#utility.yul\":1737:2018   */\n    tag_63:\n        /* \"#utility.yul\":1820:1847   */\n      tag_104\n        /* \"#utility.yul\":1842:1846   */\n      dup3\n        /* \"#utility.yul\":1820:1847   */\n      tag_61\n      jump\t// in\n    tag_104:\n        /* \"#utility.yul\":1812:1818   */\n      dup2\n        /* \"#utility.yul\":1808:1848   */\n      add\n        /* \"#utility.yul\":1950:1956   */\n      dup2\n        /* \"#utility.yul\":1938:1948   */\n      dup2\n        /* \"#utility.yul\":1935:1957   */\n      lt\n        /* \"#utility.yul\":1914:1932   */\n      0xffffffffffffffff\n        /* \"#utility.yul\":1902:1912   */\n      dup3\n        /* \"#utility.yul\":1899:1933   */\n      gt\n        /* \"#utility.yul\":1896:1958   */\n      or\n        /* \"#utility.yul\":1893:1981   */\n      iszero\n      tag_105\n      jumpi\n        /* \"#utility.yul\":1961:1979   */\n      tag_106\n      tag_62\n      jump\t// in\n    tag_106:\n        /* \"#utility.yul\":1893:1981   */\n    tag_105:\n        /* \"#utility.yul\":2001:2011   */\n      dup1\n        /* \"#utility.yul\":1997:1999   */\n      0x40\n        /* \"#utility.yul\":1990:2012   */\n      mstore\n        /* \"#utility.yul\":1780:2018   */\n      pop\n        /* \"#utility.yul\":1737:2018   */\n      pop\n      pop\n      jump\t// out\n        /* \"#utility.yul\":2024:2153   */\n    tag_64:\n        /* \"#utility.yul\":2058:2064   */\n      0x00\n        /* \"#utility.yul\":2085:2105   */\n      tag_108\n      tag_49\n      jump\t// in\n    tag_108:\n        /* \"#utility.yul\":2075:2105   */\n      swap1\n      pop\n        /* \"#utility.yul\":2114:2147   */\n      tag_109\n        /* \"#utility.yul\":2142:2146   */\n      dup3\n        /* \"#utility.yul\":2134:2140   */\n      dup3\n        /* \"#utility.yul\":2114:2147   */\n      tag_63\n      jump\t// in\n    tag_109:\n        /* \"#utility.yul\":2024:2153   */\n      swap2\n      swap1\n      pop\n      jump\t// out\n        /* \"#utility.yul\":2159:2466   */\n    tag_65:\n        /* \"#utility.yul\":2220:2224   */\n      0x00\n        /* \"#utility.yul\":2310:2328   */\n      0xffffffffffffffff\n        /* \"#utility.yul\":2302:2308   */\n      dup3\n        /* \"#utility.yul\":2299:2329   */\n      gt\n        /* \"#utility.yul\":2296:2352   */\n      iszero\n      tag_111\n      jumpi\n        /* \"#utility.yul\":2332:2350   */\n      tag_112\n      tag_62\n      jump\t// in\n    tag_112:\n        /* \"#utility.yul\":2296:2352   */\n    tag_111:\n        /* \"#utility.yul\":2370:2399   */\n      tag_113\n        /* \"#utility.yul\":2392:2398   */\n      dup3\n        /* \"#utility.yul\":2370:2399   */\n      tag_61\n      jump\t// in\n    tag_113:\n        /* \"#utility.yul\":2362:2399   */\n      swap1\n      pop\n        /* \"#utility.yul\":2454:2458   */\n      0x20\n        /* \"#utility.yul\":2448:2452   */\n      dup2\n        /* \"#utility.yul\":2444:2459   */\n      add\n        /* \"#utility.yul\":2436:2459   */\n      swap1\n      pop\n        /* \"#utility.yul\":2159:2466   */\n      swap2\n      swap1\n      pop\n      jump\t// out\n        /* \"#utility.yul\":2472:2618   */\n    tag_66:\n        /* \"#utility.yul\":2569:2575   */\n      dup3\n        /* \"#utility.yul\":2564:2567   */\n      dup2\n        /* \"#utility.yul\":2559:2562   */\n      dup4\n        /* \"#utility.yul\":2546:2576   */\n      calldatacopy\n        /* \"#utility.yul\":2610:2611   */\n      0x00\n        /* \"#utility.yul\":2601:2607   */\n      dup4\n        /* \"#utility.yul\":2596:2599   */\n      dup4\n        /* \"#utility.yul\":2592:2608   */\n      add\n        /* \"#utility.yul\":2585:2612   */\n      mstore\n        /* \"#utility.yul\":2472:2618   */\n      pop\n      pop\n      pop\n      jump\t// out\n        /* \"#utility.yul\":2624:3047   */\n    tag_67:\n        /* \"#utility.yul\":2701:2706   */\n      0x00\n        /* \"#utility.yul\":2726:2791   */\n      tag_116\n        /* \"#utility.yul\":2742:2790   */\n      tag_117\n        /* \"#utility.yul\":2783:2789   */\n      dup5\n        /* \"#utility.yul\":2742:2790   */\n      tag_65\n      jump\t// in\n    tag_117:\n        /* \"#utility.yul\":2726:2791   */\n      tag_64\n      jump\t// in\n    tag_116:\n        /* \"#utility.yul\":2717:2791   */\n      swap1\n      pop\n        /* \"#utility.yul\":2814:2820   */\n      dup3\n        /* \"#utility.yul\":2807:2812   */\n      dup2\n        /* \"#utility.yul\":2800:2821   */\n      mstore\n        /* \"#utility.yul\":2852:2856   */\n      0x20\n        /* \"#utility.yul\":2845:2850   */\n      dup2\n        /* \"#utility.yul\":2841:2857   */\n      add\n        /* \"#utility.yul\":2890:2893   */\n      dup5\n        /* \"#utility.yul\":2881:2887   */\n      dup5\n        /* \"#utility.yul\":2876:2879   */\n      dup5\n        /* \"#utility.yul\":2872:2888   */\n      add\n        /* \"#utility.yul\":2869:2894   */\n      gt\n        /* \"#utility.yul\":2866:2978   */\n      iszero\n      tag_118\n      jumpi\n        /* \"#utility.yul\":2897:2976   */\n      tag_119\n      tag_60\n      jump\t// in\n    tag_119:\n        /* \"#utility.yul\":2866:2978   */\n    tag_118:\n        /* \"#utility.yul\":2987:3041   */\n      tag_120\n        /* \"#utility.yul\":3034:3040   */\n      dup5\n        /* \"#utility.yul\":3029:3032   */\n      dup3\n        /* \"#utility.yul\":3024:3027   */\n      dup6\n        /* \"#utility.yul\":2987:3041   */\n      tag_66\n      jump\t// in\n    tag_120:\n        /* \"#utility.yul\":2707:3047   */\n      pop\n        /* \"#utility.yul\":2624:3047   */\n      swap4\n      swap3\n      pop\n      pop\n      pop\n      jump\t// out\n        /* \"#utility.yul\":3066:3404   */\n    tag_68:\n        /* \"#utility.yul\":3121:3126   */\n      0x00\n        /* \"#utility.yul\":3170:3173   */\n      dup3\n        /* \"#utility.yul\":3163:3167   */\n      0x1f\n        /* \"#utility.yul\":3155:3161   */\n      dup4\n        /* \"#utility.yul\":3151:3168   */\n      add\n        /* \"#utility.yul\":3147:3174   */\n      slt\n        /* \"#utility.yul\":3137:3259   */\n      tag_122\n      jumpi\n        /* \"#utility.yul\":3178:3257   */\n      tag_123\n      tag_59\n      jump\t// in\n    tag_123:\n        /* \"#utility.yul\":3137:3259   */\n    tag_122:\n        /* \"#utility.yul\":3295:3301   */\n      dup2\n        /* \"#utility.yul\":3282:3302   */\n      calldataload\n        /* \"#utility.yul\":3320:3398   */\n      tag_124\n        /* \"#utility.yul\":3394:3397   */\n      dup5\n        /* \"#utility.yul\":3386:3392   */\n      dup3\n        /* \"#utility.yul\":3379:3383   */\n      0x20\n        /* \"#utility.yul\":3371:3377   */\n      dup7\n        /* \"#utility.yul\":3367:3384   */\n      add\n        /* \"#utility.yul\":3320:3398   */\n      tag_67\n      jump\t// in\n    tag_124:\n        /* \"#utility.yul\":3311:3398   */\n      swap2\n      pop\n        /* \"#utility.yul\":3127:3404   */\n      pop\n        /* \"#utility.yul\":3066:3404   */\n      swap3\n      swap2\n      pop\n      pop\n      jump\t// out\n        /* \"#utility.yul\":3410:4207   */\n    tag_15:\n        /* \"#utility.yul\":3496:3502   */\n      0x00\n        /* \"#utility.yul\":3504:3510   */\n      dup1\n        /* \"#utility.yul\":3512:3518   */\n      0x00\n        /* \"#utility.yul\":3561:3563   */\n      0x60\n        /* \"#utility.yul\":3549:3558   */\n      dup5\n        /* \"#utility.yul\":3540:3547   */\n      dup7\n        /* \"#utility.yul\":3536:3559   */\n      sub\n        /* \"#utility.yul\":3532:3564   */\n      slt\n        /* \"#utility.yul\":3529:3648   */\n      iszero\n      tag_126\n      jumpi\n        /* \"#utility.yul\":3567:3646   */\n      tag_127\n      tag_50\n      jump\t// in\n    tag_127:\n        /* \"#utility.yul\":3529:3648   */\n    tag_126:\n        /* \"#utility.yul\":3687:3688   */\n      0x00\n        /* \"#utility.yul\":3712:3765   */\n      tag_128\n        /* \"#utility.yul\":3757:3764   */\n      dup7\n        /* \"#utility.yul\":3748:3754   */\n      dup3\n        /* \"#utility.yul\":3737:3746   */\n      dup8\n        /* \"#utility.yul\":3733:3755   */\n      add\n        /* \"#utility.yul\":3712:3765   */\n      tag_55\n      jump\t// in\n    tag_128:\n        /* \"#utility.yul\":3702:3765   */\n      swap4\n      pop\n        /* \"#utility.yul\":3658:3775   */\n      pop\n        /* \"#utility.yul\":3814:3816   */\n      0x20\n        /* \"#utility.yul\":3840:3893   */\n      tag_129\n        /* \"#utility.yul\":3885:3892   */\n      dup7\n        /* \"#utility.yul\":3876:3882   */\n      dup3\n        /* \"#utility.yul\":3865:3874   */\n      dup8\n        /* \"#utility.yul\":3861:3883   */\n      add\n        /* \"#utility.yul\":3840:3893   */\n      tag_58\n      jump\t// in\n    tag_129:\n        /* \"#utility.yul\":3830:3893   */\n      swap3\n      pop\n        /* \"#utility.yul\":3785:3903   */\n      pop\n        /* \"#utility.yul\":3970:3972   */\n      0x40\n        /* \"#utility.yul\":3959:3968   */\n      dup5\n        /* \"#utility.yul\":3955:3973   */\n      add\n        /* \"#utility.yul\":3942:3974   */\n      calldataload\n        /* \"#utility.yul\":4001:4019   */\n      0xffffffffffffffff\n        /* \"#utility.yul\":3993:3999   */\n      dup2\n        /* \"#utility.yul\":3990:4020   */\n      gt\n        /* \"#utility.yul\":3987:4104   */\n      iszero\n      tag_130\n      jumpi\n        /* \"#utility.yul\":4023:4102   */\n      tag_131\n      tag_51\n      jump\t// in\n    tag_131:\n        /* \"#utility.yul\":3987:4104   */\n    tag_130:\n        /* \"#utility.yul\":4128:4190   */\n      tag_132\n        /* \"#utility.yul\":4182:4189   */\n      dup7\n        /* \"#utility.yul\":4173:4179   */\n      dup3\n        /* \"#utility.yul\":4162:4171   */\n      dup8\n        /* \"#utility.yul\":4158:4180   */\n      add\n        /* \"#utility.yul\":4128:4190   */\n      tag_68\n      jump\t// in\n    tag_132:\n        /* \"#utility.yul\":4118:4190   */\n      swap2\n      pop\n        /* \"#utility.yul\":3913:4200   */\n      pop\n        /* \"#utility.yul\":3410:4207   */\n      swap3\n      pop\n      swap3\n      pop\n      swap3\n      jump\t// out\n        /* \"#utility.yul\":4213:4331   */\n    tag_69:\n        /* \"#utility.yul\":4300:4324   */\n      tag_134\n        /* \"#utility.yul\":4318:4323   */\n      dup2\n        /* \"#utility.yul\":4300:4324   */\n      tag_56\n      jump\t// in\n    tag_134:\n        /* \"#utility.yul\":4295:4298   */\n      dup3\n        /* \"#utility.yul\":4288:4325   */\n      mstore\n        /* \"#utility.yul\":4213:4331   */\n      pop\n      pop\n      jump\t// out\n        /* \"#utility.yul\":4337:4559   */\n    tag_21:\n        /* \"#utility.yul\":4430:4434   */\n      0x00\n        /* \"#utility.yul\":4468:4470   */\n      0x20\n        /* \"#utility.yul\":4457:4466   */\n      dup3\n        /* \"#utility.yul\":4453:4471   */\n      add\n        /* \"#utility.yul\":4445:4471   */\n      swap1\n      pop\n        /* \"#utility.yul\":4481:4552   */\n      tag_136\n        /* \"#utility.yul\":4549:4550   */\n      0x00\n        /* \"#utility.yul\":4538:4547   */\n      dup4\n        /* \"#utility.yul\":4534:4551   */\n      add\n        /* \"#utility.yul\":4525:4531   */\n      dup5\n        /* \"#utility.yul\":4481:4552   */\n      tag_69\n      jump\t// in\n    tag_136:\n        /* \"#utility.yul\":4337:4559   */\n      swap3\n      swap2\n      pop\n      pop\n      jump\t// out\n        /* \"#utility.yul\":4565:4734   */\n    tag_70:\n        /* \"#utility.yul\":4649:4660   */\n      0x00\n        /* \"#utility.yul\":4683:4689   */\n      dup3\n        /* \"#utility.yul\":4678:4681   */\n      dup3\n        /* \"#utility.yul\":4671:4690   */\n      mstore\n        /* \"#utility.yul\":4723:4727   */\n      0x20\n        /* \"#utility.yul\":4718:4721   */\n      dup3\n        /* \"#utility.yul\":4714:4728   */\n      add\n        /* \"#utility.yul\":4699:4728   */\n      swap1\n      pop\n        /* \"#utility.yul\":4565:4734   */\n      swap3\n      swap2\n      pop\n      pop\n      jump\t// out\n        /* \"#utility.yul\":4740:4921   */\n    tag_71:\n        /* \"#utility.yul\":4880:4913   */\n      0x616d6f756e74206d757374206c6574746572207468616e2062616c616e636500\n        /* \"#utility.yul\":4876:4877   */\n      0x00\n        /* \"#utility.yul\":4868:4874   */\n      dup3\n        /* \"#utility.yul\":4864:4878   */\n      add\n        /* \"#utility.yul\":4857:4914   */\n      mstore\n        /* \"#utility.yul\":4740:4921   */\n      pop\n      jump\t// out\n        /* \"#utility.yul\":4927:5293   */\n    tag_72:\n        /* \"#utility.yul\":5069:5072   */\n      0x00\n        /* \"#utility.yul\":5090:5157   */\n      tag_140\n        /* \"#utility.yul\":5154:5156   */\n      0x1f\n        /* \"#utility.yul\":5149:5152   */\n      dup4\n        /* \"#utility.yul\":5090:5157   */\n      tag_70\n      jump\t// in\n    tag_140:\n        /* \"#utility.yul\":5083:5157   */\n      swap2\n      pop\n        /* \"#utility.yul\":5166:5259   */\n      tag_141\n        /* \"#utility.yul\":5255:5258   */\n      dup3\n        /* \"#utility.yul\":5166:5259   */\n      tag_71\n      jump\t// in\n    tag_141:\n        /* \"#utility.yul\":5284:5286   */\n      0x20\n        /* \"#utility.yul\":5279:5282   */\n      dup3\n        /* \"#utility.yul\":5275:5287   */\n      add\n        /* \"#utility.yul\":5268:5287   */\n      swap1\n      pop\n        /* \"#utility.yul\":4927:5293   */\n      swap2\n      swap1\n      pop\n      jump\t// out\n        /* \"#utility.yul\":5299:5718   */\n    tag_32:\n        /* \"#utility.yul\":5465:5469   */\n      0x00\n        /* \"#utility.yul\":5503:5505   */\n      0x20\n        /* \"#utility.yul\":5492:5501   */\n      dup3\n        /* \"#utility.yul\":5488:5506   */\n      add\n        /* \"#utility.yul\":5480:5506   */\n      swap1\n      pop\n        /* \"#utility.yul\":5552:5561   */\n      dup2\n        /* \"#utility.yul\":5546:5550   */\n      dup2\n        /* \"#utility.yul\":5542:5562   */\n      sub\n        /* \"#utility.yul\":5538:5539   */\n      0x00\n        /* \"#utility.yul\":5527:5536   */\n      dup4\n        /* \"#utility.yul\":5523:5540   */\n      add\n        /* \"#utility.yul\":5516:5563   */\n      mstore\n        /* \"#utility.yul\":5580:5711   */\n      tag_143\n        /* \"#utility.yul\":5706:5710   */\n      dup2\n        /* \"#utility.yul\":5580:5711   */\n      tag_72\n      jump\t// in\n    tag_143:\n        /* \"#utility.yul\":5572:5711   */\n      swap1\n      pop\n        /* \"#utility.yul\":5299:5718   */\n      swap2\n      swap1\n      pop\n      jump\t// out\n        /* \"#utility.yul\":5724:5822   */\n    tag_73:\n        /* \"#utility.yul\":5775:5781   */\n      0x00\n        /* \"#utility.yul\":5809:5814   */\n      dup2\n        /* \"#utility.yul\":5803:5815   */\n      mload\n        /* \"#utility.yul\":5793:5815   */\n      swap1\n      pop\n        /* \"#utility.yul\":5724:5822   */\n      swap2\n      swap1\n      pop\n      jump\t// out\n        /* \"#utility.yul\":5828:5975   */\n    tag_74:\n        /* \"#utility.yul\":5929:5940   */\n      0x00\n        /* \"#utility.yul\":5966:5969   */\n      dup2\n        /* \"#utility.yul\":5951:5969   */\n      swap1\n      pop\n        /* \"#utility.yul\":5828:5975   */\n      swap3\n      swap2\n      pop\n      pop\n      jump\t// out\n        /* \"#utility.yul\":5981:6227   */\n    tag_75:\n        /* \"#utility.yul\":6062:6063   */\n      0x00\n        /* \"#utility.yul\":6072:6185   */\n    tag_147:\n        /* \"#utility.yul\":6086:6092   */\n      dup4\n        /* \"#utility.yul\":6083:6084   */\n      dup2\n        /* \"#utility.yul\":6080:6093   */\n      lt\n        /* \"#utility.yul\":6072:6185   */\n      iszero\n      tag_149\n      jumpi\n        /* \"#utility.yul\":6171:6172   */\n      dup1\n        /* \"#utility.yul\":6166:6169   */\n      dup3\n        /* \"#utility.yul\":6162:6173   */\n      add\n        /* \"#utility.yul\":6156:6174   */\n      mload\n        /* \"#utility.yul\":6152:6153   */\n      dup2\n        /* \"#utility.yul\":6147:6150   */\n      dup5\n        /* \"#utility.yul\":6143:6154   */\n      add\n        /* \"#utility.yul\":6136:6175   */\n      mstore\n        /* \"#utility.yul\":6108:6110   */\n      0x20\n        /* \"#utility.yul\":6105:6106   */\n      dup2\n        /* \"#utility.yul\":6101:6111   */\n      add\n        /* \"#utility.yul\":6096:6111   */\n      swap1\n      pop\n        /* \"#utility.yul\":6072:6185   */\n      jump(tag_147)\n    tag_149:\n        /* \"#utility.yul\":6219:6220   */\n      0x00\n        /* \"#utility.yul\":6210:6216   */\n      dup5\n        /* \"#utility.yul\":6205:6208   */\n      dup5\n        /* \"#utility.yul\":6201:6217   */\n      add\n        /* \"#utility.yul\":6194:6221   */\n      mstore\n        /* \"#utility.yul\":6043:6227   */\n      pop\n        /* \"#utility.yul\":5981:6227   */\n      pop\n      pop\n      pop\n      jump\t// out\n        /* \"#utility.yul\":6233:6619   */\n    tag_76:\n        /* \"#utility.yul\":6337:6340   */\n      0x00\n        /* \"#utility.yul\":6365:6403   */\n      tag_151\n        /* \"#utility.yul\":6397:6402   */\n      dup3\n        /* \"#utility.yul\":6365:6403   */\n      tag_73\n      jump\t// in\n    tag_151:\n        /* \"#utility.yul\":6419:6507   */\n      tag_152\n        /* \"#utility.yul\":6500:6506   */\n      dup2\n        /* \"#utility.yul\":6495:6498   */\n      dup6\n        /* \"#utility.yul\":6419:6507   */\n      tag_74\n      jump\t// in\n    tag_152:\n        /* \"#utility.yul\":6412:6507   */\n      swap4\n      pop\n        /* \"#utility.yul\":6516:6581   */\n      tag_153\n        /* \"#utility.yul\":6574:6580   */\n      dup2\n        /* \"#utility.yul\":6569:6572   */\n      dup6\n        /* \"#utility.yul\":6562:6566   */\n      0x20\n        /* \"#utility.yul\":6555:6560   */\n      dup7\n        /* \"#utility.yul\":6551:6567   */\n      add\n        /* \"#utility.yul\":6516:6581   */\n      tag_75\n      jump\t// in\n    tag_153:\n        /* \"#utility.yul\":6606:6612   */\n      dup1\n        /* \"#utility.yul\":6601:6604   */\n      dup5\n        /* \"#utility.yul\":6597:6613   */\n      add\n        /* \"#utility.yul\":6590:6613   */\n      swap2\n      pop\n        /* \"#utility.yul\":6341:6619   */\n      pop\n        /* \"#utility.yul\":6233:6619   */\n      swap3\n      swap2\n      pop\n      pop\n      jump\t// out\n        /* \"#utility.yul\":6625:6896   */\n    tag_36:\n        /* \"#utility.yul\":6755:6758   */\n      0x00\n        /* \"#utility.yul\":6777:6870   */\n      tag_155\n        /* \"#utility.yul\":6866:6869   */\n      dup3\n        /* \"#utility.yul\":6857:6863   */\n      dup5\n        /* \"#utility.yul\":6777:6870   */\n      tag_76\n      jump\t// in\n    tag_155:\n        /* \"#utility.yul\":6770:6870   */\n      swap2\n      pop\n        /* \"#utility.yul\":6887:6890   */\n      dup2\n        /* \"#utility.yul\":6880:6890   */\n      swap1\n      pop\n        /* \"#utility.yul\":6625:6896   */\n      swap3\n      swap2\n      pop\n      pop\n      jump\t// out\n        /* \"#utility.yul\":6902:7073   */\n    tag_77:\n        /* \"#utility.yul\":7042:7065   */\n      0x666c6173684c6f616e2063616c6c206661696c65640000000000000000000000\n        /* \"#utility.yul\":7038:7039   */\n      0x00\n        /* \"#utility.yul\":7030:7036   */\n      dup3\n        /* \"#utility.yul\":7026:7040   */\n      add\n        /* \"#utility.yul\":7019:7066   */\n      mstore\n        /* \"#utility.yul\":6902:7073   */\n      pop\n      jump\t// out\n        /* \"#utility.yul\":7079:7445   */\n    tag_78:\n        /* \"#utility.yul\":7221:7224   */\n      0x00\n        /* \"#utility.yul\":7242:7309   */\n      tag_158\n        /* \"#utility.yul\":7306:7308   */\n      0x15\n        /* \"#utility.yul\":7301:7304   */\n      dup4\n        /* \"#utility.yul\":7242:7309   */\n      tag_70\n      jump\t// in\n    tag_158:\n        /* \"#utility.yul\":7235:7309   */\n      swap2\n      pop\n        /* \"#utility.yul\":7318:7411   */\n      tag_159\n        /* \"#utility.yul\":7407:7410   */\n      dup3\n        /* \"#utility.yul\":7318:7411   */\n      tag_77\n      jump\t// in\n    tag_159:\n        /* \"#utility.yul\":7436:7438   */\n      0x20\n        /* \"#utility.yul\":7431:7434   */\n      dup3\n        /* \"#utility.yul\":7427:7439   */\n      add\n        /* \"#utility.yul\":7420:7439   */\n      swap1\n      pop\n        /* \"#utility.yul\":7079:7445   */\n      swap2\n      swap1\n      pop\n      jump\t// out\n        /* \"#utility.yul\":7451:7870   */\n    tag_42:\n        /* \"#utility.yul\":7617:7621   */\n      0x00\n        /* \"#utility.yul\":7655:7657   */\n      0x20\n        /* \"#utility.yul\":7644:7653   */\n      dup3\n        /* \"#utility.yul\":7640:7658   */\n      add\n        /* \"#utility.yul\":7632:7658   */\n      swap1\n      pop\n        /* \"#utility.yul\":7704:7713   */\n      dup2\n        /* \"#utility.yul\":7698:7702   */\n      dup2\n        /* \"#utility.yul\":7694:7714   */\n      sub\n        /* \"#utility.yul\":7690:7691   */\n      0x00\n        /* \"#utility.yul\":7679:7688   */\n      dup4\n        /* \"#utility.yul\":7675:7692   */\n      add\n        /* \"#utility.yul\":7668:7715   */\n      mstore\n        /* \"#utility.yul\":7732:7863   */\n      tag_161\n        /* \"#utility.yul\":7858:7862   */\n      dup2\n        /* \"#utility.yul\":7732:7863   */\n      tag_78\n      jump\t// in\n    tag_161:\n        /* \"#utility.yul\":7724:7863   */\n      swap1\n      pop\n        /* \"#utility.yul\":7451:7870   */\n      swap2\n      swap1\n      pop\n      jump\t// out\n        /* \"#utility.yul\":7876:8057   */\n    tag_79:\n        /* \"#utility.yul\":8016:8049   */\n      0x666c6173686c6f616e206861736e2774206265656e2070616964206261636b00\n        /* \"#utility.yul\":8012:8013   */\n      0x00\n        /* \"#utility.yul\":8004:8010   */\n      dup3\n        /* \"#utility.yul\":8000:8014   */\n      add\n        /* \"#utility.yul\":7993:8050   */\n      mstore\n        /* \"#utility.yul\":7876:8057   */\n      pop\n      jump\t// out\n        /* \"#utility.yul\":8063:8429   */\n    tag_80:\n        /* \"#utility.yul\":8205:8208   */\n      0x00\n        /* \"#utility.yul\":8226:8293   */\n      tag_164\n        /* \"#utility.yul\":8290:8292   */\n      0x1f\n        /* \"#utility.yul\":8285:8288   */\n      dup4\n        /* \"#utility.yul\":8226:8293   */\n      tag_70\n      jump\t// in\n    tag_164:\n        /* \"#utility.yul\":8219:8293   */\n      swap2\n      pop\n        /* \"#utility.yul\":8302:8395   */\n      tag_165\n        /* \"#utility.yul\":8391:8394   */\n      dup3\n        /* \"#utility.yul\":8302:8395   */\n      tag_79\n      jump\t// in\n    tag_165:\n        /* \"#utility.yul\":8420:8422   */\n      0x20\n        /* \"#utility.yul\":8415:8418   */\n      dup3\n        /* \"#utility.yul\":8411:8423   */\n      add\n        /* \"#utility.yul\":8404:8423   */\n      swap1\n      pop\n        /* \"#utility.yul\":8063:8429   */\n      swap2\n      swap1\n      pop\n      jump\t// out\n        /* \"#utility.yul\":8435:8854   */\n    tag_45:\n        /* \"#utility.yul\":8601:8605   */\n      0x00\n        /* \"#utility.yul\":8639:8641   */\n      0x20\n        /* \"#utility.yul\":8628:8637   */\n      dup3\n        /* \"#utility.yul\":8624:8642   */\n      add\n        /* \"#utility.yul\":8616:8642   */\n      swap1\n      pop\n        /* \"#utility.yul\":8688:8697   */\n      dup2\n        /* \"#utility.yul\":8682:8686   */\n      dup2\n        /* \"#utility.yul\":8678:8698   */\n      sub\n        /* \"#utility.yul\":8674:8675   */\n      0x00\n        /* \"#utility.yul\":8663:8672   */\n      dup4\n        /* \"#utility.yul\":8659:8676   */\n      add\n        /* \"#utility.yul\":8652:8699   */\n      mstore\n        /* \"#utility.yul\":8716:8847   */\n      tag_167\n        /* \"#utility.yul\":8842:8846   */\n      dup2\n        /* \"#utility.yul\":8716:8847   */\n      tag_80\n      jump\t// in\n    tag_167:\n        /* \"#utility.yul\":8708:8847   */\n      swap1\n      pop\n        /* \"#utility.yul\":8435:8854   */\n      swap2\n      swap1\n      pop\n      jump\t// out\n\n    auxdata: 0xa264697066735822122098fb042d45352d9afda51ed48707a5ae5e64094f3be3a67734b1260f6fa918bd64736f6c63430008150033\n}\n",
				"bytecode": {
					"linkReferences": {},
					"object": "60806040526001805f3073ffffffffffffffffffffffffffffffffffffffff1673ffffffffffffffffffffffffffffffffffffffff1681526020019081526020015f205f6101000a81548160ff021916908315150217905550610838806100655f395ff3fe608060405260043610610042575f3560e01c8063c5e4dd821461004d578063e0232b4214610063578063efedc6691461008b578063fa391c64146100b557610049565b3661004957005b5f80fd5b348015610058575f80fd5b506100616100cb565b005b34801561006e575f80fd5b50610089600480360381019061008491906105a4565b610173565b005b348015610096575f80fd5b5061009f61032b565b6040516100ac919061061f565b60405180910390f35b3480156100c0575f80fd5b506100c9610330565b005b60015f3373ffffffffffffffffffffffffffffffffffffffff1673ffffffffffffffffffffffffffffffffffffffff1681526020019081526020015f205f9054906101000a900460ff1661011d575f80fd5b6001805f3273ffffffffffffffffffffffffffffffffffffffff1673ffffffffffffffffffffffffffffffffffffffff1681526020019081526020015f205f6101000a81548160ff021916908315150217905550565b3373ffffffffffffffffffffffffffffffffffffffff163273ffffffffffffffffffffffffffffffffffffffff16036101aa575f80fd5b5f4790508281116101f0576040517f08c379a00000000000000000000000000000000000000000000000000000000081526004016101e790610692565b60405180910390fd5b8373ffffffffffffffffffffffffffffffffffffffff166108fc8490811502906040515f60405180830381858888f19350505050158015610233573d5f803e3d5ffd5b505f8473ffffffffffffffffffffffffffffffffffffffff168360405161025a919061071c565b5f604051808303815f865af19150503d805f8114610293576040519150601f19603f3d011682016040523d82523d5f602084013e610298565b606091505b50509050806102dc576040517f08c379a00000000000000000000000000000000000000000000000000000000081526004016102d39061077c565b60405180910390fd5b5f47905082811015610323576040517f08c379a000000000000000000000000000000000000000000000000000000000815260040161031a906107e4565b60405180910390fd5b505050505050565b5f5481565b5f80819055503273ffffffffffffffffffffffffffffffffffffffff163373ffffffffffffffffffffffffffffffffffffffff16146103715760325f819055505b60015f3373ffffffffffffffffffffffffffffffffffffffff1673ffffffffffffffffffffffffffffffffffffffff1681526020019081526020015f205f9054906101000a900460ff16156103c85760645f819055505b565b5f604051905090565b5f80fd5b5f80fd5b5f73ffffffffffffffffffffffffffffffffffffffff82169050919050565b5f610404826103db565b9050919050565b610414816103fa565b811461041e575f80fd5b50565b5f8135905061042f8161040b565b92915050565b5f819050919050565b61044781610435565b8114610451575f80fd5b50565b5f813590506104628161043e565b92915050565b5f80fd5b5f80fd5b5f601f19601f8301169050919050565b7f4e487b71000000000000000000000000000000000000000000000000000000005f52604160045260245ffd5b6104b682610470565b810181811067ffffffffffffffff821117156104d5576104d4610480565b5b80604052505050565b5f6104e76103ca565b90506104f382826104ad565b919050565b5f67ffffffffffffffff82111561051257610511610480565b5b61051b82610470565b9050602081019050919050565b828183375f83830152505050565b5f610548610543846104f8565b6104de565b9050828152602081018484840111156105645761056361046c565b5b61056f848285610528565b509392505050565b5f82601f83011261058b5761058a610468565b5b813561059b848260208601610536565b91505092915050565b5f805f606084860312156105bb576105ba6103d3565b5b5f6105c886828701610421565b93505060206105d986828701610454565b925050604084013567ffffffffffffffff8111156105fa576105f96103d7565b5b61060686828701610577565b9150509250925092565b61061981610435565b82525050565b5f6020820190506106325f830184610610565b92915050565b5f82825260208201905092915050565b7f616d6f756e74206d757374206c6574746572207468616e2062616c616e6365005f82015250565b5f61067c601f83610638565b915061068782610648565b602082019050919050565b5f6020820190508181035f8301526106a981610670565b9050919050565b5f81519050919050565b5f81905092915050565b5f5b838110156106e15780820151818401526020810190506106c6565b5f8484015250505050565b5f6106f6826106b0565b61070081856106ba565b93506107108185602086016106c4565b80840191505092915050565b5f61072782846106ec565b915081905092915050565b7f666c6173684c6f616e2063616c6c206661696c656400000000000000000000005f82015250565b5f610766601583610638565b915061077182610732565b602082019050919050565b5f6020820190508181035f8301526107938161075a565b9050919050565b7f666c6173686c6f616e206861736e2774206265656e2070616964206261636b005f82015250565b5f6107ce601f83610638565b91506107d98261079a565b602082019050919050565b5f6020820190508181035f8301526107fb816107c2565b905091905056fea264697066735822122098fb042d45352d9afda51ed48707a5ae5e64094f3be3a67734b1260f6fa918bd64736f6c63430008150033",
					"opcodes": "PUSH1 0x80 PUSH1 0x40 MSTORE PUSH1 0x1 DUP1 PUSH0 ADDRESS PUSH20 0xFFFFFFFFFFFFFFFFFFFFFFFFFFFFFFFFFFFFFFFF AND PUSH20 0xFFFFFFFFFFFFFFFFFFFFFFFFFFFFFFFFFFFFFFFF AND DUP2 MSTORE PUSH1 0x20 ADD SWAP1 DUP2 MSTORE PUSH1 0x20 ADD PUSH0 KECCAK256 PUSH0 PUSH2 0x100 EXP DUP2 SLOAD DUP2 PUSH1 0xFF MUL NOT AND SWAP1 DUP4 ISZERO ISZERO MUL OR SWAP1 SSTORE POP PUSH2 0x838 DUP1 PUSH2 0x65 PUSH0 CODECOPY PUSH0 RETURN INVALID PUSH1 0x80 PUSH1 0x40 MSTORE PUSH1 0x4 CALLDATASIZE LT PUSH2 0x42 JUMPI PUSH0 CALLDATALOAD PUSH1 0xE0 SHR DUP1 PUSH4 0xC5E4DD82 EQ PUSH2 0x4D JUMPI DUP1 PUSH4 0xE0232B42 EQ PUSH2 0x63 JUMPI DUP1 PUSH4 0xEFEDC669 EQ PUSH2 0x8B JUMPI DUP1 PUSH4 0xFA391C64 EQ PUSH2 0xB5 JUMPI PUSH2 0x49 JUMP JUMPDEST CALLDATASIZE PUSH2 0x49 JUMPI STOP JUMPDEST PUSH0 DUP1 REVERT JUMPDEST CALLVALUE DUP1 ISZERO PUSH2 0x58 JUMPI PUSH0 DUP1 REVERT JUMPDEST POP PUSH2 0x61 PUSH2 0xCB JUMP JUMPDEST STOP JUMPDEST CALLVALUE DUP1 ISZERO PUSH2 0x6E JUMPI PUSH0 DUP1 REVERT JUMPDEST POP PUSH2 0x89 PUSH1 0x4 DUP1 CALLDATASIZE SUB DUP2 ADD SWAP1 PUSH2 0x84 SWAP2 SWAP1 PUSH2 0x5A4 JUMP JUMPDEST PUSH2 0x173 JUMP JUMPDEST STOP JUMPDEST CALLVALUE DUP1 ISZERO PUSH2 0x96 JUMPI PUSH0 DUP1 REVERT JUMPDEST POP PUSH2 0x9F PUSH2 0x32B JUMP JUMPDEST PUSH1 0x40 MLOAD PUSH2 0xAC SWAP2 SWAP1 PUSH2 0x61F JUMP JUMPDEST PUSH1 0x40 MLOAD DUP1 SWAP2 SUB SWAP1 RETURN JUMPDEST CALLVALUE DUP1 ISZERO PUSH2 0xC0 JUMPI PUSH0 DUP1 REVERT JUMPDEST POP PUSH2 0xC9 PUSH2 0x330 JUMP JUMPDEST STOP JUMPDEST PUSH1 0x1 PUSH0 CALLER PUSH20 0xFFFFFFFFFFFFFFFFFFFFFFFFFFFFFFFFFFFFFFFF AND PUSH20 0xFFFFFFFFFFFFFFFFFFFFFFFFFFFFFFFFFFFFFFFF AND DUP2 MSTORE PUSH1 0x20 ADD SWAP1 DUP2 MSTORE PUSH1 0x20 ADD PUSH0 KECCAK256 PUSH0 SWAP1 SLOAD SWAP1 PUSH2 0x100 EXP SWAP1 DIV PUSH1 0xFF AND PUSH2 0x11D JUMPI PUSH0 DUP1 REVERT JUMPDEST PUSH1 0x1 DUP1 PUSH0 ORIGIN PUSH20 0xFFFFFFFFFFFFFFFFFFFFFFFFFFFFFFFFFFFFFFFF AND PUSH20 0xFFFFFFFFFFFFFFFFFFFFFFFFFFFFFFFFFFFFFFFF AND DUP2 MSTORE PUSH1 0x20 ADD SWAP1 DUP2 MSTORE PUSH1 0x20 ADD PUSH0 KECCAK256 PUSH0 PUSH2 0x100 EXP DUP2 SLOAD DUP2 PUSH1 0xFF MUL NOT AND SWAP1 DUP4 ISZERO ISZERO MUL OR SWAP1 SSTORE POP JUMP JUMPDEST CALLER PUSH20 0xFFFFFFFFFFFFFFFFFFFFFFFFFFFFFFFFFFFFFFFF AND ORIGIN PUSH20 0xFFFFFFFFFFFFFFFFFFFFFFFFFFFFFFFFFFFFFFFF AND SUB PUSH2 0x1AA JUMPI PUSH0 DUP1 REVERT JUMPDEST PUSH0 SELFBALANCE SWAP1 POP DUP3 DUP2 GT PUSH2 0x1F0 JUMPI PUSH1 0x40 MLOAD PUSH32 0x8C379A000000000000000000000000000000000000000000000000000000000 DUP2 MSTORE PUSH1 0x4 ADD PUSH2 0x1E7 SWAP1 PUSH2 0x692 JUMP JUMPDEST PUSH1 0x40 MLOAD DUP1 SWAP2 SUB SWAP1 REVERT JUMPDEST DUP4 PUSH20 0xFFFFFFFFFFFFFFFFFFFFFFFFFFFFFFFFFFFFFFFF AND PUSH2 0x8FC DUP5 SWAP1 DUP2 ISZERO MUL SWAP1 PUSH1 0x40 MLOAD PUSH0 PUSH1 0x40 MLOAD DUP1 DUP4 SUB DUP2 DUP6 DUP9 DUP9 CALL SWAP4 POP POP POP POP ISZERO DUP1 ISZERO PUSH2 0x233 JUMPI RETURNDATASIZE PUSH0 DUP1 RETURNDATACOPY RETURNDATASIZE PUSH0 REVERT JUMPDEST POP PUSH0 DUP5 PUSH20 0xFFFFFFFFFFFFFFFFFFFFFFFFFFFFFFFFFFFFFFFF AND DUP4 PUSH1 0x40 MLOAD PUSH2 0x25A SWAP2 SWAP1 PUSH2 0x71C JUMP JUMPDEST PUSH0 PUSH1 0x40 MLOAD DUP1 DUP4 SUB DUP2 PUSH0 DUP7 GAS CALL SWAP2 POP POP RETURNDATASIZE DUP1 PUSH0 DUP2 EQ PUSH2 0x293 JUMPI PUSH1 0x40 MLOAD SWAP2 POP PUSH1 0x1F NOT PUSH1 0x3F RETURNDATASIZE ADD AND DUP3 ADD PUSH1 0x40 MSTORE RETURNDATASIZE DUP3 MSTORE RETURNDATASIZE PUSH0 PUSH1 0x20 DUP5 ADD RETURNDATACOPY PUSH2 0x298 JUMP JUMPDEST PUSH1 0x60 SWAP2 POP JUMPDEST POP POP SWAP1 POP DUP1 PUSH2 0x2DC JUMPI PUSH1 0x40 MLOAD PUSH32 0x8C379A000000000000000000000000000000000000000000000000000000000 DUP2 MSTORE PUSH1 0x4 ADD PUSH2 0x2D3 SWAP1 PUSH2 0x77C JUMP JUMPDEST PUSH1 0x40 MLOAD DUP1 SWAP2 SUB SWAP1 REVERT JUMPDEST PUSH0 SELFBALANCE SWAP1 POP DUP3 DUP2 LT ISZERO PUSH2 0x323 JUMPI PUSH1 0x40 MLOAD PUSH32 0x8C379A000000000000000000000000000000000000000000000000000000000 DUP2 MSTORE PUSH1 0x4 ADD PUSH2 0x31A SWAP1 PUSH2 0x7E4 JUMP JUMPDEST PUSH1 0x40 MLOAD DUP1 SWAP2 SUB SWAP1 REVERT JUMPDEST POP POP POP POP POP POP JUMP JUMPDEST PUSH0 SLOAD DUP2 JUMP JUMPDEST PUSH0 DUP1 DUP2 SWAP1 SSTORE POP ORIGIN PUSH20 0xFFFFFFFFFFFFFFFFFFFFFFFFFFFFFFFFFFFFFFFF AND CALLER PUSH20 0xFFFFFFFFFFFFFFFFFFFFFFFFFFFFFFFFFFFFFFFF AND EQ PUSH2 0x371 JUMPI PUSH1 0x32 PUSH0 DUP2 SWAP1 SSTORE POP JUMPDEST PUSH1 0x1 PUSH0 CALLER PUSH20 0xFFFFFFFFFFFFFFFFFFFFFFFFFFFFFFFFFFFFFFFF AND PUSH20 0xFFFFFFFFFFFFFFFFFFFFFFFFFFFFFFFFFFFFFFFF AND DUP2 MSTORE PUSH1 0x20 ADD SWAP1 DUP2 MSTORE PUSH1 0x20 ADD PUSH0 KECCAK256 PUSH0 SWAP1 SLOAD SWAP1 PUSH2 0x100 EXP SWAP1 DIV PUSH1 0xFF AND ISZERO PUSH2 0x3C8 JUMPI PUSH1 0x64 PUSH0 DUP2 SWAP1 SSTORE POP JUMPDEST JUMP JUMPDEST PUSH0 PUSH1 0x40 MLOAD SWAP1 POP SWAP1 JUMP JUMPDEST PUSH0 DUP1 REVERT JUMPDEST PUSH0 DUP1 REVERT JUMPDEST PUSH0 PUSH20 0xFFFFFFFFFFFFFFFFFFFFFFFFFFFFFFFFFFFFFFFF DUP3 AND SWAP1 POP SWAP2 SWAP1 POP JUMP JUMPDEST PUSH0 PUSH2 0x404 DUP3 PUSH2 0x3DB JUMP JUMPDEST SWAP1 POP SWAP2 SWAP1 POP JUMP JUMPDEST PUSH2 0x414 DUP2 PUSH2 0x3FA JUMP JUMPDEST DUP2 EQ PUSH2 0x41E JUMPI PUSH0 DUP1 REVERT JUMPDEST POP JUMP JUMPDEST PUSH0 DUP2 CALLDATALOAD SWAP1 POP PUSH2 0x42F DUP2 PUSH2 0x40B JUMP JUMPDEST SWAP3 SWAP2 POP POP JUMP JUMPDEST PUSH0 DUP2 SWAP1 POP SWAP2 SWAP1 POP JUMP JUMPDEST PUSH2 0x447 DUP2 PUSH2 0x435 JUMP JUMPDEST DUP2 EQ PUSH2 0x451 JUMPI PUSH0 DUP1 REVERT JUMPDEST POP JUMP JUMPDEST PUSH0 DUP2 CALLDATALOAD SWAP1 POP PUSH2 0x462 DUP2 PUSH2 0x43E JUMP JUMPDEST SWAP3 SWAP2 POP POP JUMP JUMPDEST PUSH0 DUP1 REVERT JUMPDEST PUSH0 DUP1 REVERT JUMPDEST PUSH0 PUSH1 0x1F NOT PUSH1 0x1F DUP4 ADD AND SWAP1 POP SWAP2 SWAP1 POP JUMP JUMPDEST PUSH32 0x4E487B7100000000000000000000000000000000000000000000000000000000 PUSH0 MSTORE PUSH1 0x41 PUSH1 0x4 MSTORE PUSH1 0x24 PUSH0 REVERT JUMPDEST PUSH2 0x4B6 DUP3 PUSH2 0x470 JUMP JUMPDEST DUP2 ADD DUP2 DUP2 LT PUSH8 0xFFFFFFFFFFFFFFFF DUP3 GT OR ISZERO PUSH2 0x4D5 JUMPI PUSH2 0x4D4 PUSH2 0x480 JUMP JUMPDEST JUMPDEST DUP1 PUSH1 0x40 MSTORE POP POP POP JUMP JUMPDEST PUSH0 PUSH2 0x4E7 PUSH2 0x3CA JUMP JUMPDEST SWAP1 POP PUSH2 0x4F3 DUP3 DUP3 PUSH2 0x4AD JUMP JUMPDEST SWAP2 SWAP1 POP JUMP JUMPDEST PUSH0 PUSH8 0xFFFFFFFFFFFFFFFF DUP3 GT ISZERO PUSH2 0x512 JUMPI PUSH2 0x511 PUSH2 0x480 JUMP JUMPDEST JUMPDEST PUSH2 0x51B DUP3 PUSH2 0x470 JUMP JUMPDEST SWAP1 POP PUSH1 0x20 DUP2 ADD SWAP1 POP SWAP2 SWAP1 POP JUMP JUMPDEST DUP3 DUP2 DUP4 CALLDATACOPY PUSH0 DUP4 DUP4 ADD MSTORE POP POP POP JUMP JUMPDEST PUSH0 PUSH2 0x548 PUSH2 0x543 DUP5 PUSH2 0x4F8 JUMP JUMPDEST PUSH2 0x4DE JUMP JUMPDEST SWAP1 POP DUP3 DUP2 MSTORE PUSH1 0x20 DUP2 ADD DUP5 DUP5 DUP5 ADD GT ISZERO PUSH2 0x564 JUMPI PUSH2 0x563 PUSH2 0x46C JUMP JUMPDEST JUMPDEST PUSH2 0x56F DUP5 DUP3 DUP6 PUSH2 0x528 JUMP JUMPDEST POP SWAP4 SWAP3 POP POP POP JUMP JUMPDEST PUSH0 DUP3 PUSH1 0x1F DUP4 ADD SLT PUSH2 0x58B JUMPI PUSH2 0x58A PUSH2 0x468 JUMP JUMPDEST JUMPDEST DUP2 CALLDATALOAD PUSH2 0x59B DUP5 DUP3 PUSH1 0x20 DUP7 ADD PUSH2 0x536 JUMP JUMPDEST SWAP2 POP POP SWAP3 SWAP2 POP POP JUMP JUMPDEST PUSH0 DUP1 PUSH0 PUSH1 0x60 DUP5 DUP7 SUB SLT ISZERO PUSH2 0x5BB JUMPI PUSH2 0x5BA PUSH2 0x3D3 JUMP JUMPDEST JUMPDEST PUSH0 PUSH2 0x5C8 DUP7 DUP3 DUP8 ADD PUSH2 0x421 JUMP JUMPDEST SWAP4 POP POP PUSH1 0x20 PUSH2 0x5D9 DUP7 DUP3 DUP8 ADD PUSH2 0x454 JUMP JUMPDEST SWAP3 POP POP PUSH1 0x40 DUP5 ADD CALLDATALOAD PUSH8 0xFFFFFFFFFFFFFFFF DUP2 GT ISZERO PUSH2 0x5FA JUMPI PUSH2 0x5F9 PUSH2 0x3D7 JUMP JUMPDEST JUMPDEST PUSH2 0x606 DUP7 DUP3 DUP8 ADD PUSH2 0x577 JUMP JUMPDEST SWAP2 POP POP SWAP3 POP SWAP3 POP SWAP3 JUMP JUMPDEST PUSH2 0x619 DUP2 PUSH2 0x435 JUMP JUMPDEST DUP3 MSTORE POP POP JUMP JUMPDEST PUSH0 PUSH1 0x20 DUP3 ADD SWAP1 POP PUSH2 0x632 PUSH0 DUP4 ADD DUP5 PUSH2 0x610 JUMP JUMPDEST SWAP3 SWAP2 POP POP JUMP JUMPDEST PUSH0 DUP3 DUP3 MSTORE PUSH1 0x20 DUP3 ADD SWAP1 POP SWAP3 SWAP2 POP POP JUMP JUMPDEST PUSH32 0x616D6F756E74206D757374206C6574746572207468616E2062616C616E636500 PUSH0 DUP3 ADD MSTORE POP JUMP JUMPDEST PUSH0 PUSH2 0x67C PUSH1 0x1F DUP4 PUSH2 0x638 JUMP JUMPDEST SWAP2 POP PUSH2 0x687 DUP3 PUSH2 0x648 JUMP JUMPDEST PUSH1 0x20 DUP3 ADD SWAP1 POP SWAP2 SWAP1 POP JUMP JUMPDEST PUSH0 PUSH1 0x20 DUP3 ADD SWAP1 POP DUP2 DUP2 SUB PUSH0 DUP4 ADD MSTORE PUSH2 0x6A9 DUP2 PUSH2 0x670 JUMP JUMPDEST SWAP1 POP SWAP2 SWAP1 POP JUMP JUMPDEST PUSH0 DUP2 MLOAD SWAP1 POP SWAP2 SWAP1 POP JUMP JUMPDEST PUSH0 DUP2 SWAP1 POP SWAP3 SWAP2 POP POP JUMP JUMPDEST PUSH0 JUMPDEST DUP4 DUP2 LT ISZERO PUSH2 0x6E1 JUMPI DUP1 DUP3 ADD MLOAD DUP2 DUP5 ADD MSTORE PUSH1 0x20 DUP2 ADD SWAP1 POP PUSH2 0x6C6 JUMP JUMPDEST PUSH0 DUP5 DUP5 ADD MSTORE POP POP POP POP JUMP JUMPDEST PUSH0 PUSH2 0x6F6 DUP3 PUSH2 0x6B0 JUMP JUMPDEST PUSH2 0x700 DUP2 DUP6 PUSH2 0x6BA JUMP JUMPDEST SWAP4 POP PUSH2 0x710 DUP2 DUP6 PUSH1 0x20 DUP7 ADD PUSH2 0x6C4 JUMP JUMPDEST DUP1 DUP5 ADD SWAP2 POP POP SWAP3 SWAP2 POP POP JUMP JUMPDEST PUSH0 PUSH2 0x727 DUP3 DUP5 PUSH2 0x6EC JUMP JUMPDEST SWAP2 POP DUP2 SWAP1 POP SWAP3 SWAP2 POP POP JUMP JUMPDEST PUSH32 0x666C6173684C6F616E2063616C6C206661696C65640000000000000000000000 PUSH0 DUP3 ADD MSTORE POP JUMP JUMPDEST PUSH0 PUSH2 0x766 PUSH1 0x15 DUP4 PUSH2 0x638 JUMP JUMPDEST SWAP2 POP PUSH2 0x771 DUP3 PUSH2 0x732 JUMP JUMPDEST PUSH1 0x20 DUP3 ADD SWAP1 POP SWAP2 SWAP1 POP JUMP JUMPDEST PUSH0 PUSH1 0x20 DUP3 ADD SWAP1 POP DUP2 DUP2 SUB PUSH0 DUP4 ADD MSTORE PUSH2 0x793 DUP2 PUSH2 0x75A JUMP JUMPDEST SWAP1 POP SWAP2 SWAP1 POP JUMP JUMPDEST PUSH32 0x666C6173686C6F616E206861736E2774206265656E2070616964206261636B00 PUSH0 DUP3 ADD MSTORE POP JUMP JUMPDEST PUSH0 PUSH2 0x7CE PUSH1 0x1F DUP4 PUSH2 0x638 JUMP JUMPDEST SWAP2 POP PUSH2 0x7D9 DUP3 PUSH2 0x79A JUMP JUMPDEST PUSH1 0x20 DUP3 ADD SWAP1 POP SWAP2 SWAP1 POP JUMP JUMPDEST PUSH0 PUSH1 0x20 DUP3 ADD SWAP1 POP DUP2 DUP2 SUB PUSH0 DUP4 ADD MSTORE PUSH2 0x7FB DUP2 PUSH2 0x7C2 JUMP JUMPDEST SWAP1 POP SWAP2 SWAP1 POP JUMP INVALID LOG2 PUSH5 0x6970667358 0x22 SLT KECCAK256 SWAP9 0xFB DIV 0x2D GASLIMIT CALLDATALOAD 0x2D SWAP11 REVERT 0xA5 0x1E 0xD4 DUP8 SMOD 0xA5 0xAE 0x5E PUSH5 0x94F3BE3A6 PUSH24 0x34B1260F6FA918BD64736F6C634300081500330000000000 "
				},
				"gasEstimates": {
					"creation": {
						"codeDepositCost": "420800",
						"executionCost": "24782",
						"totalCost": "445582"
					},
					"external": {
						"flashLoan(address,uint256,bytes)": "infinite",
						"getLicense()": "26713",
						"isCompleted()": "34601",
						"score()": "2446"
					}
				},
				"methodIdentifiers": {
					"flashLoan(address,uint256,bytes)": "e0232b42",
					"getLicense()": "c5e4dd82",
					"isCompleted()": "fa391c64",
					"score()": "efedc669"
				}
			},
			"storageLayout": {
				"storage": [
					{
						"astId": 102,
						"contract": "shoot/2/tx.origin误用/2.sol:Flashloan",
						"label": "score",
						"offset": 0,
						"slot": "0",
						"type": "t_uint256"
					},
					{
						"astId": 106,
						"contract": "shoot/2/tx.origin误用/2.sol:Flashloan",
						"label": "license",
						"offset": 0,
						"slot": "1",
						"type": "t_mapping(t_address,t_bool)"
					}
				],
				"types": {
					"t_address": {
						"encoding": "inplace",
						"label": "address",
						"numberOfBytes": "20"
					},
					"t_bool": {
						"encoding": "inplace",
						"label": "bool",
						"numberOfBytes": "1"
					},
					"t_mapping(t_address,t_bool)": {
						"encoding": "mapping",
						"key": "t_address",
						"label": "mapping(address => bool)",
						"numberOfBytes": "32",
						"value": "t_bool"
					},
					"t_uint256": {
						"encoding": "inplace",
						"label": "uint256",
						"numberOfBytes": "32"
					}
				}
			},
			"userdoc": {
				"kind": "user",
				"methods": {},
				"version": 1
			}
		}
	}
}