{
	"shoot/2/tx.origin误用/1.sol": {
		"Wallet": {
			"abi": [
				{
					"inputs": [],
					"stateMutability": "payable",
					"type": "constructor"
				},
				{
					"stateMutability": "payable",
					"type": "fallback"
				},
				{
					"inputs": [],
					"name": "beOwner",
					"outputs": [],
					"stateMutability": "nonpayable",
					"type": "function"
				},
				{
					"inputs": [
						{
							"internalType": "address payable",
							"name": "target",
							"type": "address"
						},
						{
							"internalType": "uint256",
							"name": "amount",
							"type": "uint256"
						},
						{
							"internalType": "bytes",
							"name": "data",
							"type": "bytes"
						}
					],
					"name": "flashLoan",
					"outputs": [],
					"stateMutability": "payable",
					"type": "function"
				},
				{
					"inputs": [],
					"name": "initChallange",
					"outputs": [],
					"stateMutability": "payable",
					"type": "function"
				},
				{
					"inputs": [],
					"name": "isCompleted",
					"outputs": [],
					"stateMutability": "nonpayable",
					"type": "function"
				},
				{
					"inputs": [],
					"name": "score",
					"outputs": [
						{
							"internalType": "uint256",
							"name": "",
							"type": "uint256"
						}
					],
					"stateMutability": "view",
					"type": "function"
				}
			],
			"devdoc": {
				"kind": "dev",
				"methods": {},
				"version": 1
			},
			"evm": {
				"assembly": "    /* \"shoot/2/tx.origin误用/1.sol\":528:1663  contract Wallet {\r... */\n  mstore(0x40, 0x80)\n    /* \"shoot/2/tx.origin误用/1.sol\":677:681  this */\n  address\n    /* \"shoot/2/tx.origin误用/1.sol\":661:666  owner */\n  0x00\n  dup1\n    /* \"shoot/2/tx.origin误用/1.sol\":661:682  owner = address(this) */\n  0x0100\n  exp\n  dup2\n  sload\n  dup2\n  0xffffffffffffffffffffffffffffffffffffffff\n  mul\n  not\n  and\n  swap1\n  dup4\n  0xffffffffffffffffffffffffffffffffffffffff\n  and\n  mul\n  or\n  swap1\n  sstore\n  pop\n    /* \"shoot/2/tx.origin误用/1.sol\":528:1663  contract Wallet {\r... */\n  dataSize(sub_0)\n  dup1\n  dataOffset(sub_0)\n  0x00\n  codecopy\n  0x00\n  return\nstop\n\nsub_0: assembly {\n        /* \"shoot/2/tx.origin误用/1.sol\":528:1663  contract Wallet {\r... */\n      mstore(0x40, 0x80)\n      jumpi(tag_1, lt(calldatasize, 0x04))\n      shr(0xe0, calldataload(0x00))\n      dup1\n      0x197a2f48\n      eq\n      tag_3\n      jumpi\n      dup1\n      0xe0232b42\n      eq\n      tag_4\n      jumpi\n      dup1\n      0xe10fe32a\n      eq\n      tag_5\n      jumpi\n      dup1\n      0xefedc669\n      eq\n      tag_6\n      jumpi\n      dup1\n      0xfa391c64\n      eq\n      tag_7\n      jumpi\n      jump(tag_2)\n    tag_1:\n    tag_2:\n      stop\n        /* \"shoot/2/tx.origin误用/1.sol\":765:870  function initChallange() public payable{\r... */\n    tag_3:\n      tag_10\n      tag_11\n      jump\t// in\n    tag_10:\n      stop\n        /* \"shoot/2/tx.origin误用/1.sol\":876:1393  function flashLoan(address payable target,uint256 amount,bytes memory data)public payable{\r... */\n    tag_4:\n      tag_12\n      0x04\n      dup1\n      calldatasize\n      sub\n      0x60\n      dup2\n      lt\n      iszero\n      tag_13\n      jumpi\n      0x00\n      dup1\n      revert\n    tag_13:\n      dup2\n      add\n      swap1\n      dup1\n      dup1\n      calldataload\n      0xffffffffffffffffffffffffffffffffffffffff\n      and\n      swap1\n      0x20\n      add\n      swap1\n      swap3\n      swap2\n      swap1\n      dup1\n      calldataload\n      swap1\n      0x20\n      add\n      swap1\n      swap3\n      swap2\n      swap1\n      dup1\n      calldataload\n      swap1\n      0x20\n      add\n      swap1\n      0x0100000000\n      dup2\n      gt\n      iszero\n      tag_14\n      jumpi\n      0x00\n      dup1\n      revert\n    tag_14:\n      dup3\n      add\n      dup4\n      0x20\n      dup3\n      add\n      gt\n      iszero\n      tag_15\n      jumpi\n      0x00\n      dup1\n      revert\n    tag_15:\n      dup1\n      calldataload\n      swap1\n      0x20\n      add\n      swap2\n      dup5\n      0x01\n      dup4\n      mul\n      dup5\n      add\n      gt\n      0x0100000000\n      dup4\n      gt\n      or\n      iszero\n      tag_16\n      jumpi\n      0x00\n      dup1\n      revert\n    tag_16:\n      swap2\n      swap1\n      dup1\n      dup1\n      0x1f\n      add\n      0x20\n      dup1\n      swap2\n      div\n      mul\n      0x20\n      add\n      mload(0x40)\n      swap1\n      dup2\n      add\n      0x40\n      mstore\n      dup1\n      swap4\n      swap3\n      swap2\n      swap1\n      dup2\n      dup2\n      mstore\n      0x20\n      add\n      dup4\n      dup4\n      dup1\n      dup3\n      dup5\n      calldatacopy\n      0x00\n      dup2\n      dup5\n      add\n      mstore\n      not(0x1f)\n      0x1f\n      dup3\n      add\n      and\n      swap1\n      pop\n      dup1\n      dup4\n      add\n      swap3\n      pop\n      pop\n      pop\n      pop\n      pop\n      pop\n      pop\n      swap2\n      swap3\n      swap2\n      swap3\n      swap1\n      pop\n      pop\n      pop\n      tag_17\n      jump\t// in\n    tag_12:\n      stop\n        /* \"shoot/2/tx.origin误用/1.sol\":696:759  function beOwner() public {\r... */\n    tag_5:\n      callvalue\n      dup1\n      iszero\n      tag_18\n      jumpi\n      0x00\n      dup1\n      revert\n    tag_18:\n      pop\n      tag_19\n      tag_20\n      jump\t// in\n    tag_19:\n      stop\n        /* \"shoot/2/tx.origin误用/1.sol\":571:591  uint256 public score */\n    tag_6:\n      callvalue\n      dup1\n      iszero\n      tag_21\n      jumpi\n      0x00\n      dup1\n      revert\n    tag_21:\n      pop\n      tag_22\n      tag_23\n      jump\t// in\n    tag_22:\n      mload(0x40)\n      dup1\n      dup3\n      dup2\n      mstore\n      0x20\n      add\n      swap2\n      pop\n      pop\n      mload(0x40)\n      dup1\n      swap2\n      sub\n      swap1\n      return\n        /* \"shoot/2/tx.origin误用/1.sol\":1399:1614  function isCompleted() public {\r... */\n    tag_7:\n      callvalue\n      dup1\n      iszero\n      tag_24\n      jumpi\n      0x00\n      dup1\n      revert\n    tag_24:\n      pop\n      tag_25\n      tag_26\n      jump\t// in\n    tag_25:\n      stop\n        /* \"shoot/2/tx.origin误用/1.sol\":765:870  function initChallange() public payable{\r... */\n    tag_11:\n        /* \"shoot/2/tx.origin误用/1.sol\":836:839  100 */\n      0x64\n        /* \"shoot/2/tx.origin误用/1.sol\":823:832  msg.value */\n      callvalue\n        /* \"shoot/2/tx.origin误用/1.sol\":823:839  msg.value == 100 */\n      eq\n        /* \"shoot/2/tx.origin误用/1.sol\":815:840  require(msg.value == 100) */\n      tag_28\n      jumpi\n      0x00\n      dup1\n      revert\n    tag_28:\n        /* \"shoot/2/tx.origin误用/1.sol\":858:862  true */\n      0x01\n        /* \"shoot/2/tx.origin误用/1.sol\":851:855  init */\n      0x02\n      0x00\n        /* \"shoot/2/tx.origin误用/1.sol\":851:862  init = true */\n      0x0100\n      exp\n      dup2\n      sload\n      dup2\n      0xff\n      mul\n      not\n      and\n      swap1\n      dup4\n      iszero\n      iszero\n      mul\n      or\n      swap1\n      sstore\n      pop\n        /* \"shoot/2/tx.origin误用/1.sol\":765:870  function initChallange() public payable{\r... */\n      jump\t// out\n        /* \"shoot/2/tx.origin误用/1.sol\":876:1393  function flashLoan(address payable target,uint256 amount,bytes memory data)public payable{\r... */\n    tag_17:\n        /* \"shoot/2/tx.origin误用/1.sol\":978:999  uint256 balanceBefore */\n      0x00\n        /* \"shoot/2/tx.origin误用/1.sol\":1002:1023  address(this).balance */\n      selfbalance\n        /* \"shoot/2/tx.origin误用/1.sol\":978:1023  uint256 balanceBefore = address(this).balance */\n      swap1\n      pop\n        /* \"shoot/2/tx.origin误用/1.sol\":1056:1062  amount */\n      dup3\n        /* \"shoot/2/tx.origin误用/1.sol\":1042:1055  balanceBefore */\n      dup2\n        /* \"shoot/2/tx.origin误用/1.sol\":1042:1062  balanceBefore>amount */\n      gt\n        /* \"shoot/2/tx.origin误用/1.sol\":1034:1097  require(balanceBefore>amount,\"amount must letter than balance\") */\n      tag_30\n      jumpi\n      mload(0x40)\n      0x08c379a000000000000000000000000000000000000000000000000000000000\n      dup2\n      mstore\n      0x04\n      add\n      dup1\n      dup1\n      0x20\n      add\n      dup3\n      dup2\n      sub\n      dup3\n      mstore\n      0x1f\n      dup2\n      mstore\n      0x20\n      add\n      dup1\n      0x616d6f756e74206d757374206c6574746572207468616e2062616c616e636500\n      dup2\n      mstore\n      pop\n      0x20\n      add\n      swap2\n      pop\n      pop\n      mload(0x40)\n      dup1\n      swap2\n      sub\n      swap1\n      revert\n    tag_30:\n        /* \"shoot/2/tx.origin误用/1.sol\":1118:1124  target */\n      dup4\n        /* \"shoot/2/tx.origin误用/1.sol\":1110:1134  payable(target).transfer */\n      0xffffffffffffffffffffffffffffffffffffffff\n      and\n        /* \"shoot/2/tx.origin误用/1.sol\":1110:1142  payable(target).transfer(amount) */\n      0x08fc\n        /* \"shoot/2/tx.origin误用/1.sol\":1135:1141  amount */\n      dup5\n        /* \"shoot/2/tx.origin误用/1.sol\":1110:1142  payable(target).transfer(amount) */\n      swap1\n      dup2\n      iszero\n      mul\n      swap1\n      mload(0x40)\n      0x00\n      mload(0x40)\n      dup1\n      dup4\n      sub\n      dup2\n      dup6\n      dup9\n      dup9\n      call\n      swap4\n      pop\n      pop\n      pop\n      pop\n      iszero\n      dup1\n      iszero\n      tag_32\n      jumpi\n      returndatasize\n      0x00\n      dup1\n      returndatacopy\n      revert(0x00, returndatasize)\n    tag_32:\n      pop\n        /* \"shoot/2/tx.origin误用/1.sol\":1154:1166  bool success */\n      0x00\n        /* \"shoot/2/tx.origin误用/1.sol\":1178:1184  target */\n      dup5\n        /* \"shoot/2/tx.origin误用/1.sol\":1170:1190  payable(target).call */\n      0xffffffffffffffffffffffffffffffffffffffff\n      and\n        /* \"shoot/2/tx.origin误用/1.sol\":1191:1195  data */\n      dup4\n        /* \"shoot/2/tx.origin误用/1.sol\":1170:1196  payable(target).call(data) */\n      mload(0x40)\n      dup1\n      dup3\n      dup1\n      mload\n      swap1\n      0x20\n      add\n      swap1\n      dup1\n      dup4\n      dup4\n    tag_33:\n      0x20\n      dup4\n      lt\n      tag_35\n      jumpi\n      dup1\n      mload\n      dup3\n      mstore\n      0x20\n      dup3\n      add\n      swap2\n      pop\n      0x20\n      dup2\n      add\n      swap1\n      pop\n      0x20\n      dup4\n      sub\n      swap3\n      pop\n      jump(tag_33)\n    tag_35:\n      0x01\n      dup4\n      0x20\n      sub\n      0x0100\n      exp\n      sub\n      dup1\n      not\n      dup3\n      mload\n      and\n      dup2\n      dup5\n      mload\n      and\n      dup1\n      dup3\n      or\n      dup6\n      mstore\n      pop\n      pop\n      pop\n      pop\n      pop\n      pop\n      swap1\n      pop\n      add\n      swap2\n      pop\n      pop\n      0x00\n      mload(0x40)\n      dup1\n      dup4\n      sub\n      dup2\n      0x00\n      dup7\n      gas\n      call\n      swap2\n      pop\n      pop\n      returndatasize\n      dup1\n      0x00\n      dup2\n      eq\n      tag_38\n      jumpi\n      mload(0x40)\n      swap2\n      pop\n      and(add(returndatasize, 0x3f), not(0x1f))\n      dup3\n      add\n      0x40\n      mstore\n      returndatasize\n      dup3\n      mstore\n      returndatasize\n      0x00\n      0x20\n      dup5\n      add\n      returndatacopy\n      jump(tag_37)\n    tag_38:\n      0x60\n      swap2\n      pop\n    tag_37:\n      pop\n        /* \"shoot/2/tx.origin误用/1.sol\":1153:1196  (bool success,) =payable(target).call(data) */\n      pop\n      swap1\n      pop\n        /* \"shoot/2/tx.origin误用/1.sol\":1215:1222  success */\n      dup1\n        /* \"shoot/2/tx.origin误用/1.sol\":1207:1247  require(success,\"flashLoan call failed\") */\n      tag_39\n      jumpi\n      mload(0x40)\n      0x08c379a000000000000000000000000000000000000000000000000000000000\n      dup2\n      mstore\n      0x04\n      add\n      dup1\n      dup1\n      0x20\n      add\n      dup3\n      dup2\n      sub\n      dup3\n      mstore\n      0x15\n      dup2\n      mstore\n      0x20\n      add\n      dup1\n      0x666c6173684c6f616e2063616c6c206661696c65640000000000000000000000\n      dup2\n      mstore\n      pop\n      0x20\n      add\n      swap2\n      pop\n      pop\n      mload(0x40)\n      dup1\n      swap2\n      sub\n      swap1\n      revert\n    tag_39:\n        /* \"shoot/2/tx.origin误用/1.sol\":1260:1280  uint256 balanceAfter */\n      0x00\n        /* \"shoot/2/tx.origin误用/1.sol\":1283:1304  address(this).balance */\n      selfbalance\n        /* \"shoot/2/tx.origin误用/1.sol\":1260:1304  uint256 balanceAfter = address(this).balance */\n      swap1\n      pop\n        /* \"shoot/2/tx.origin误用/1.sol\":1337:1350  balanceBefore */\n      dup3\n        /* \"shoot/2/tx.origin误用/1.sol\":1323:1335  balanceAfter */\n      dup2\n        /* \"shoot/2/tx.origin误用/1.sol\":1323:1350  balanceAfter>=balanceBefore */\n      lt\n      iszero\n        /* \"shoot/2/tx.origin误用/1.sol\":1315:1385  require(balanceAfter>=balanceBefore,\"flashloan hasn't been paid back\") */\n      tag_40\n      jumpi\n      mload(0x40)\n      0x08c379a000000000000000000000000000000000000000000000000000000000\n      dup2\n      mstore\n      0x04\n      add\n      dup1\n      dup1\n      0x20\n      add\n      dup3\n      dup2\n      sub\n      dup3\n      mstore\n      0x1f\n      dup2\n      mstore\n      0x20\n      add\n      dup1\n      0x666c6173686c6f616e206861736e2774206265656e2070616964206261636b00\n      dup2\n      mstore\n      pop\n      0x20\n      add\n      swap2\n      pop\n      pop\n      mload(0x40)\n      dup1\n      swap2\n      sub\n      swap1\n      revert\n    tag_40:\n        /* \"shoot/2/tx.origin误用/1.sol\":876:1393  function flashLoan(address payable target,uint256 amount,bytes memory data)public payable{\r... */\n      pop\n      pop\n      pop\n      pop\n      pop\n      pop\n      jump\t// out\n        /* \"shoot/2/tx.origin误用/1.sol\":696:759  function beOwner() public {\r... */\n    tag_20:\n        /* \"shoot/2/tx.origin误用/1.sol\":741:751  msg.sender */\n      caller\n        /* \"shoot/2/tx.origin误用/1.sol\":733:738  owner */\n      0x00\n      dup1\n        /* \"shoot/2/tx.origin误用/1.sol\":733:751  owner = msg.sender */\n      0x0100\n      exp\n      dup2\n      sload\n      dup2\n      0xffffffffffffffffffffffffffffffffffffffff\n      mul\n      not\n      and\n      swap1\n      dup4\n      0xffffffffffffffffffffffffffffffffffffffff\n      and\n      mul\n      or\n      swap1\n      sstore\n      pop\n        /* \"shoot/2/tx.origin误用/1.sol\":696:759  function beOwner() public {\r... */\n      jump\t// out\n        /* \"shoot/2/tx.origin误用/1.sol\":571:591  uint256 public score */\n    tag_23:\n      sload(0x01)\n      dup2\n      jump\t// out\n        /* \"shoot/2/tx.origin误用/1.sol\":1399:1614  function isCompleted() public {\r... */\n    tag_26:\n        /* \"shoot/2/tx.origin误用/1.sol\":1448:1449  0 */\n      0x00\n        /* \"shoot/2/tx.origin误用/1.sol\":1440:1445  score */\n      0x01\n        /* \"shoot/2/tx.origin误用/1.sol\":1440:1449  score = 0 */\n      dup2\n      swap1\n      sstore\n      pop\n        /* \"shoot/2/tx.origin误用/1.sol\":1476:1481  owner */\n      0x00\n      dup1\n      sload\n      swap1\n      0x0100\n      exp\n      swap1\n      div\n      0xffffffffffffffffffffffffffffffffffffffff\n      and\n        /* \"shoot/2/tx.origin误用/1.sol\":1463:1481  tx.origin == owner */\n      0xffffffffffffffffffffffffffffffffffffffff\n      and\n        /* \"shoot/2/tx.origin误用/1.sol\":1463:1472  tx.origin */\n      origin\n        /* \"shoot/2/tx.origin误用/1.sol\":1463:1481  tx.origin == owner */\n      0xffffffffffffffffffffffffffffffffffffffff\n      and\n      eq\n        /* \"shoot/2/tx.origin误用/1.sol\":1460:1520  if(tx.origin == owner){\r... */\n      iszero\n      tag_43\n      jumpi\n        /* \"shoot/2/tx.origin误用/1.sol\":1506:1508  25 */\n      0x19\n        /* \"shoot/2/tx.origin误用/1.sol\":1497:1502  score */\n      0x01\n      0x00\n        /* \"shoot/2/tx.origin误用/1.sol\":1497:1508  score += 25 */\n      dup3\n      dup3\n      sload\n      add\n      swap3\n      pop\n      pop\n      dup2\n      swap1\n      sstore\n      pop\n        /* \"shoot/2/tx.origin误用/1.sol\":1460:1520  if(tx.origin == owner){\r... */\n    tag_43:\n        /* \"shoot/2/tx.origin误用/1.sol\":1555:1559  this */\n      address\n        /* \"shoot/2/tx.origin误用/1.sol\":1533:1560  msg.sender == address(this) */\n      0xffffffffffffffffffffffffffffffffffffffff\n      and\n        /* \"shoot/2/tx.origin误用/1.sol\":1533:1543  msg.sender */\n      caller\n        /* \"shoot/2/tx.origin误用/1.sol\":1533:1560  msg.sender == address(this) */\n      0xffffffffffffffffffffffffffffffffffffffff\n      and\n      eq\n        /* \"shoot/2/tx.origin误用/1.sol\":1533:1568  msg.sender == address(this) && init */\n      dup1\n      iszero\n      tag_44\n      jumpi\n      pop\n        /* \"shoot/2/tx.origin误用/1.sol\":1564:1568  init */\n      0x02\n      0x00\n      swap1\n      sload\n      swap1\n      0x0100\n      exp\n      swap1\n      div\n      0xff\n      and\n        /* \"shoot/2/tx.origin误用/1.sol\":1533:1568  msg.sender == address(this) && init */\n    tag_44:\n        /* \"shoot/2/tx.origin误用/1.sol\":1530:1607  if(msg.sender == address(this) && init){\r... */\n      iszero\n      tag_45\n      jumpi\n        /* \"shoot/2/tx.origin误用/1.sol\":1593:1595  75 */\n      0x4b\n        /* \"shoot/2/tx.origin误用/1.sol\":1584:1589  score */\n      0x01\n      0x00\n        /* \"shoot/2/tx.origin误用/1.sol\":1584:1595  score += 75 */\n      dup3\n      dup3\n      sload\n      add\n      swap3\n      pop\n      pop\n      dup2\n      swap1\n      sstore\n      pop\n        /* \"shoot/2/tx.origin误用/1.sol\":1530:1607  if(msg.sender == address(this) && init){\r... */\n    tag_45:\n        /* \"shoot/2/tx.origin误用/1.sol\":1399:1614  function isCompleted() public {\r... */\n      jump\t// out\n\n    auxdata: 0xa26469706673582212204ecb23ca3589a1cf0ff1a0b61eefa919501e7816063c78dc51d1c93ef44aeb9764736f6c634300060c0033\n}\n",
				"bytecode": {
					"linkReferences": {},
					"object": "6080604052306000806101000a81548173ffffffffffffffffffffffffffffffffffffffff021916908373ffffffffffffffffffffffffffffffffffffffff16021790555061057e806100536000396000f3fe60806040526004361061004e5760003560e01c8063197a2f4814610051578063e0232b421461005b578063e10fe32a14610140578063efedc66914610157578063fa391c64146101825761004f565b5b005b610059610199565b005b61013e6004803603606081101561007157600080fd5b81019080803573ffffffffffffffffffffffffffffffffffffffff16906020019092919080359060200190929190803590602001906401000000008111156100b857600080fd5b8201836020820111156100ca57600080fd5b803590602001918460018302840111640100000000831117156100ec57600080fd5b91908080601f016020809104026020016040519081016040528093929190818152602001838380828437600081840152601f19601f8201169050808301925050505050505091929192905050506101c3565b005b34801561014c57600080fd5b50610155610432565b005b34801561016357600080fd5b5061016c610474565b6040518082815260200191505060405180910390f35b34801561018e57600080fd5b5061019761047a565b005b606434146101a657600080fd5b6001600260006101000a81548160ff021916908315150217905550565b600047905082811161023d576040517f08c379a000000000000000000000000000000000000000000000000000000000815260040180806020018281038252601f8152602001807f616d6f756e74206d757374206c6574746572207468616e2062616c616e63650081525060200191505060405180910390fd5b8373ffffffffffffffffffffffffffffffffffffffff166108fc849081150290604051600060405180830381858888f19350505050158015610283573d6000803e3d6000fd5b5060008473ffffffffffffffffffffffffffffffffffffffff16836040518082805190602001908083835b602083106102d157805182526020820191506020810190506020830392506102ae565b6001836020036101000a0380198251168184511680821785525050505050509050019150506000604051808303816000865af19150503d8060008114610333576040519150601f19603f3d011682016040523d82523d6000602084013e610338565b606091505b50509050806103af576040517f08c379a00000000000000000000000000000000000000000000000000000000081526004018080602001828103825260158152602001807f666c6173684c6f616e2063616c6c206661696c6564000000000000000000000081525060200191505060405180910390fd5b60004790508281101561042a576040517f08c379a000000000000000000000000000000000000000000000000000000000815260040180806020018281038252601f8152602001807f666c6173686c6f616e206861736e2774206265656e2070616964206261636b0081525060200191505060405180910390fd5b505050505050565b336000806101000a81548173ffffffffffffffffffffffffffffffffffffffff021916908373ffffffffffffffffffffffffffffffffffffffff160217905550565b60015481565b600060018190555060008054906101000a900473ffffffffffffffffffffffffffffffffffffffff1673ffffffffffffffffffffffffffffffffffffffff163273ffffffffffffffffffffffffffffffffffffffff1614156104e85760196001600082825401925050819055505b3073ffffffffffffffffffffffffffffffffffffffff163373ffffffffffffffffffffffffffffffffffffffff1614801561052f5750600260009054906101000a900460ff165b1561054657604b6001600082825401925050819055505b56fea26469706673582212204ecb23ca3589a1cf0ff1a0b61eefa919501e7816063c78dc51d1c93ef44aeb9764736f6c634300060c0033",
					"opcodes": "PUSH1 0x80 PUSH1 0x40 MSTORE ADDRESS PUSH1 0x0 DUP1 PUSH2 0x100 EXP DUP2 SLOAD DUP2 PUSH20 0xFFFFFFFFFFFFFFFFFFFFFFFFFFFFFFFFFFFFFFFF MUL NOT AND SWAP1 DUP4 PUSH20 0xFFFFFFFFFFFFFFFFFFFFFFFFFFFFFFFFFFFFFFFF AND MUL OR SWAP1 SSTORE POP PUSH2 0x57E DUP1 PUSH2 0x53 PUSH1 0x0 CODECOPY PUSH1 0x0 RETURN INVALID PUSH1 0x80 PUSH1 0x40 MSTORE PUSH1 0x4 CALLDATASIZE LT PUSH2 0x4E JUMPI PUSH1 0x0 CALLDATALOAD PUSH1 0xE0 SHR DUP1 PUSH4 0x197A2F48 EQ PUSH2 0x51 JUMPI DUP1 PUSH4 0xE0232B42 EQ PUSH2 0x5B JUMPI DUP1 PUSH4 0xE10FE32A EQ PUSH2 0x140 JUMPI DUP1 PUSH4 0xEFEDC669 EQ PUSH2 0x157 JUMPI DUP1 PUSH4 0xFA391C64 EQ PUSH2 0x182 JUMPI PUSH2 0x4F JUMP JUMPDEST JUMPDEST STOP JUMPDEST PUSH2 0x59 PUSH2 0x199 JUMP JUMPDEST STOP JUMPDEST PUSH2 0x13E PUSH1 0x4 DUP1 CALLDATASIZE SUB PUSH1 0x60 DUP2 LT ISZERO PUSH2 0x71 JUMPI PUSH1 0x0 DUP1 REVERT JUMPDEST DUP2 ADD SWAP1 DUP1 DUP1 CALLDATALOAD PUSH20 0xFFFFFFFFFFFFFFFFFFFFFFFFFFFFFFFFFFFFFFFF AND SWAP1 PUSH1 0x20 ADD SWAP1 SWAP3 SWAP2 SWAP1 DUP1 CALLDATALOAD SWAP1 PUSH1 0x20 ADD SWAP1 SWAP3 SWAP2 SWAP1 DUP1 CALLDATALOAD SWAP1 PUSH1 0x20 ADD SWAP1 PUSH5 0x100000000 DUP2 GT ISZERO PUSH2 0xB8 JUMPI PUSH1 0x0 DUP1 REVERT JUMPDEST DUP3 ADD DUP4 PUSH1 0x20 DUP3 ADD GT ISZERO PUSH2 0xCA JUMPI PUSH1 0x0 DUP1 REVERT JUMPDEST DUP1 CALLDATALOAD SWAP1 PUSH1 0x20 ADD SWAP2 DUP5 PUSH1 0x1 DUP4 MUL DUP5 ADD GT PUSH5 0x100000000 DUP4 GT OR ISZERO PUSH2 0xEC JUMPI PUSH1 0x0 DUP1 REVERT JUMPDEST SWAP2 SWAP1 DUP1 DUP1 PUSH1 0x1F ADD PUSH1 0x20 DUP1 SWAP2 DIV MUL PUSH1 0x20 ADD PUSH1 0x40 MLOAD SWAP1 DUP2 ADD PUSH1 0x40 MSTORE DUP1 SWAP4 SWAP3 SWAP2 SWAP1 DUP2 DUP2 MSTORE PUSH1 0x20 ADD DUP4 DUP4 DUP1 DUP3 DUP5 CALLDATACOPY PUSH1 0x0 DUP2 DUP5 ADD MSTORE PUSH1 0x1F NOT PUSH1 0x1F DUP3 ADD AND SWAP1 POP DUP1 DUP4 ADD SWAP3 POP POP POP POP POP POP POP SWAP2 SWAP3 SWAP2 SWAP3 SWAP1 POP POP POP PUSH2 0x1C3 JUMP JUMPDEST STOP JUMPDEST CALLVALUE DUP1 ISZERO PUSH2 0x14C JUMPI PUSH1 0x0 DUP1 REVERT JUMPDEST POP PUSH2 0x155 PUSH2 0x432 JUMP JUMPDEST STOP JUMPDEST CALLVALUE DUP1 ISZERO PUSH2 0x163 JUMPI PUSH1 0x0 DUP1 REVERT JUMPDEST POP PUSH2 0x16C PUSH2 0x474 JUMP JUMPDEST PUSH1 0x40 MLOAD DUP1 DUP3 DUP2 MSTORE PUSH1 0x20 ADD SWAP2 POP POP PUSH1 0x40 MLOAD DUP1 SWAP2 SUB SWAP1 RETURN JUMPDEST CALLVALUE DUP1 ISZERO PUSH2 0x18E JUMPI PUSH1 0x0 DUP1 REVERT JUMPDEST POP PUSH2 0x197 PUSH2 0x47A JUMP JUMPDEST STOP JUMPDEST PUSH1 0x64 CALLVALUE EQ PUSH2 0x1A6 JUMPI PUSH1 0x0 DUP1 REVERT JUMPDEST PUSH1 0x1 PUSH1 0x2 PUSH1 0x0 PUSH2 0x100 EXP DUP2 SLOAD DUP2 PUSH1 0xFF MUL NOT AND SWAP1 DUP4 ISZERO ISZERO MUL OR SWAP1 SSTORE POP JUMP JUMPDEST PUSH1 0x0 SELFBALANCE SWAP1 POP DUP3 DUP2 GT PUSH2 0x23D JUMPI PUSH1 0x40 MLOAD PUSH32 0x8C379A000000000000000000000000000000000000000000000000000000000 DUP2 MSTORE PUSH1 0x4 ADD DUP1 DUP1 PUSH1 0x20 ADD DUP3 DUP2 SUB DUP3 MSTORE PUSH1 0x1F DUP2 MSTORE PUSH1 0x20 ADD DUP1 PUSH32 0x616D6F756E74206D757374206C6574746572207468616E2062616C616E636500 DUP2 MSTORE POP PUSH1 0x20 ADD SWAP2 POP POP PUSH1 0x40 MLOAD DUP1 SWAP2 SUB SWAP1 REVERT JUMPDEST DUP4 PUSH20 0xFFFFFFFFFFFFFFFFFFFFFFFFFFFFFFFFFFFFFFFF AND PUSH2 0x8FC DUP5 SWAP1 DUP2 ISZERO MUL SWAP1 PUSH1 0x40 MLOAD PUSH1 0x0 PUSH1 0x40 MLOAD DUP1 DUP4 SUB DUP2 DUP6 DUP9 DUP9 CALL SWAP4 POP POP POP POP ISZERO DUP1 ISZERO PUSH2 0x283 JUMPI RETURNDATASIZE PUSH1 0x0 DUP1 RETURNDATACOPY RETURNDATASIZE PUSH1 0x0 REVERT JUMPDEST POP PUSH1 0x0 DUP5 PUSH20 0xFFFFFFFFFFFFFFFFFFFFFFFFFFFFFFFFFFFFFFFF AND DUP4 PUSH1 0x40 MLOAD DUP1 DUP3 DUP1 MLOAD SWAP1 PUSH1 0x20 ADD SWAP1 DUP1 DUP4 DUP4 JUMPDEST PUSH1 0x20 DUP4 LT PUSH2 0x2D1 JUMPI DUP1 MLOAD DUP3 MSTORE PUSH1 0x20 DUP3 ADD SWAP2 POP PUSH1 0x20 DUP2 ADD SWAP1 POP PUSH1 0x20 DUP4 SUB SWAP3 POP PUSH2 0x2AE JUMP JUMPDEST PUSH1 0x1 DUP4 PUSH1 0x20 SUB PUSH2 0x100 EXP SUB DUP1 NOT DUP3 MLOAD AND DUP2 DUP5 MLOAD AND DUP1 DUP3 OR DUP6 MSTORE POP POP POP POP POP POP SWAP1 POP ADD SWAP2 POP POP PUSH1 0x0 PUSH1 0x40 MLOAD DUP1 DUP4 SUB DUP2 PUSH1 0x0 DUP7 GAS CALL SWAP2 POP POP RETURNDATASIZE DUP1 PUSH1 0x0 DUP2 EQ PUSH2 0x333 JUMPI PUSH1 0x40 MLOAD SWAP2 POP PUSH1 0x1F NOT PUSH1 0x3F RETURNDATASIZE ADD AND DUP3 ADD PUSH1 0x40 MSTORE RETURNDATASIZE DUP3 MSTORE RETURNDATASIZE PUSH1 0x0 PUSH1 0x20 DUP5 ADD RETURNDATACOPY PUSH2 0x338 JUMP JUMPDEST PUSH1 0x60 SWAP2 POP JUMPDEST POP POP SWAP1 POP DUP1 PUSH2 0x3AF JUMPI PUSH1 0x40 MLOAD PUSH32 0x8C379A000000000000000000000000000000000000000000000000000000000 DUP2 MSTORE PUSH1 0x4 ADD DUP1 DUP1 PUSH1 0x20 ADD DUP3 DUP2 SUB DUP3 MSTORE PUSH1 0x15 DUP2 MSTORE PUSH1 0x20 ADD DUP1 PUSH32 0x666C6173684C6F616E2063616C6C206661696C65640000000000000000000000 DUP2 MSTORE POP PUSH1 0x20 ADD SWAP2 POP POP PUSH1 0x40 MLOAD DUP1 SWAP2 SUB SWAP1 REVERT JUMPDEST PUSH1 0x0 SELFBALANCE SWAP1 POP DUP3 DUP2 LT ISZERO PUSH2 0x42A JUMPI PUSH1 0x40 MLOAD PUSH32 0x8C379A000000000000000000000000000000000000000000000000000000000 DUP2 MSTORE PUSH1 0x4 ADD DUP1 DUP1 PUSH1 0x20 ADD DUP3 DUP2 SUB DUP3 MSTORE PUSH1 0x1F DUP2 MSTORE PUSH1 0x20 ADD DUP1 PUSH32 0x666C6173686C6F616E206861736E2774206265656E2070616964206261636B00 DUP2 MSTORE POP PUSH1 0x20 ADD SWAP2 POP POP PUSH1 0x40 MLOAD DUP1 SWAP2 SUB SWAP1 REVERT JUMPDEST POP POP POP POP POP POP JUMP JUMPDEST CALLER PUSH1 0x0 DUP1 PUSH2 0x100 EXP DUP2 SLOAD DUP2 PUSH20 0xFFFFFFFFFFFFFFFFFFFFFFFFFFFFFFFFFFFFFFFF MUL NOT AND SWAP1 DUP4 PUSH20 0xFFFFFFFFFFFFFFFFFFFFFFFFFFFFFFFFFFFFFFFF AND MUL OR SWAP1 SSTORE POP JUMP JUMPDEST PUSH1 0x1 SLOAD DUP2 JUMP JUMPDEST PUSH1 0x0 PUSH1 0x1 DUP2 SWAP1 SSTORE POP PUSH1 0x0 DUP1 SLOAD SWAP1 PUSH2 0x100 EXP SWAP1 DIV PUSH20 0xFFFFFFFFFFFFFFFFFFFFFFFFFFFFFFFFFFFFFFFF AND PUSH20 0xFFFFFFFFFFFFFFFFFFFFFFFFFFFFFFFFFFFFFFFF AND ORIGIN PUSH20 0xFFFFFFFFFFFFFFFFFFFFFFFFFFFFFFFFFFFFFFFF AND EQ ISZERO PUSH2 0x4E8 JUMPI PUSH1 0x19 PUSH1 0x1 PUSH1 0x0 DUP3 DUP3 SLOAD ADD SWAP3 POP POP DUP2 SWAP1 SSTORE POP JUMPDEST ADDRESS PUSH20 0xFFFFFFFFFFFFFFFFFFFFFFFFFFFFFFFFFFFFFFFF AND CALLER PUSH20 0xFFFFFFFFFFFFFFFFFFFFFFFFFFFFFFFFFFFFFFFF AND EQ DUP1 ISZERO PUSH2 0x52F JUMPI POP PUSH1 0x2 PUSH1 0x0 SWAP1 SLOAD SWAP1 PUSH2 0x100 EXP SWAP1 DIV PUSH1 0xFF AND JUMPDEST ISZERO PUSH2 0x546 JUMPI PUSH1 0x4B PUSH1 0x1 PUSH1 0x0 DUP3 DUP3 SLOAD ADD SWAP3 POP POP DUP2 SWAP1 SSTORE POP JUMPDEST JUMP INVALID LOG2 PUSH5 0x6970667358 0x22 SLT KECCAK256 0x4E 0xCB 0x23 0xCA CALLDATALOAD DUP10 LOG1 0xCF 0xF CALL LOG0 0xB6 0x1E 0xEF 0xA9 NOT POP 0x1E PUSH25 0x16063C78DC51D1C93EF44AEB9764736F6C634300060C003300 "
				},
				"gasEstimates": {
					"creation": {
						"codeDepositCost": "281200",
						"executionCost": "21160",
						"totalCost": "302360"
					},
					"external": {
						"": "173",
						"beOwner()": "21032",
						"flashLoan(address,uint256,bytes)": "infinite",
						"initChallange()": "20987",
						"isCompleted()": "33657",
						"score()": "1049"
					}
				},
				"methodIdentifiers": {
					"beOwner()": "e10fe32a",
					"flashLoan(address,uint256,bytes)": "e0232b42",
					"initChallange()": "197a2f48",
					"isCompleted()": "fa391c64",
					"score()": "efedc669"
				}
			},
			"storageLayout": {
				"storage": [
					{
						"astId": 48,
						"contract": "shoot/2/tx.origin误用/1.sol:Wallet",
						"label": "owner",
						"offset": 0,
						"slot": "0",
						"type": "t_address"
					},
					{
						"astId": 50,
						"contract": "shoot/2/tx.origin误用/1.sol:Wallet",
						"label": "score",
						"offset": 0,
						"slot": "1",
						"type": "t_uint256"
					},
					{
						"astId": 52,
						"contract": "shoot/2/tx.origin误用/1.sol:Wallet",
						"label": "init",
						"offset": 0,
						"slot": "2",
						"type": "t_bool"
					}
				],
				"types": {
					"t_address": {
						"encoding": "inplace",
						"label": "address",
						"numberOfBytes": "20"
					},
					"t_bool": {
						"encoding": "inplace",
						"label": "bool",
						"numberOfBytes": "1"
					},
					"t_uint256": {
						"encoding": "inplace",
						"label": "uint256",
						"numberOfBytes": "32"
					}
				}
			},
			"userdoc": {
				"kind": "user",
				"methods": {},
				"version": 1
			}
		}
	}
}