{
	"data": {
		"bytecode": {
			"linkReferences": {},
			"object": "608060405234801561000f575f80fd5b505f30905050610469806100225f395ff3fe608060405234801561000f575f80fd5b5060043610610034575f3560e01c8063030bd8c914610038578063efedc66914610054575b5f80fd5b610052600480360381019061004d91906102bb565b610072565b005b61005c610258565b60405161006991906102fe565b60405180910390f35b5f80819055505f8173ffffffffffffffffffffffffffffffffffffffff166370a08231306040518263ffffffff1660e01b81526004016100b29190610326565b602060405180830381865afa1580156100cd573d5f803e3d5ffd5b505050506040513d601f19601f820116820180604052508101906100f19190610369565b0361010f5760195f8082825461010791906103c1565b925050819055505b3073ffffffffffffffffffffffffffffffffffffffff168173ffffffffffffffffffffffffffffffffffffffff16638da5cb5b6040518163ffffffff1660e01b8152600401602060405180830381865afa15801561016f573d5f803e3d5ffd5b505050506040513d601f19601f820116820180604052508101906101939190610408565b73ffffffffffffffffffffffffffffffffffffffff16148015610237575069021e19e0c9bab24000008173ffffffffffffffffffffffffffffffffffffffff166370a08231336040518263ffffffff1660e01b81526004016101f59190610326565b602060405180830381865afa158015610210573d5f803e3d5ffd5b505050506040513d601f19601f820116820180604052508101906102349190610369565b10155b1561025557604b5f8082825461024d91906103c1565b925050819055505b50565b5f5481565b5f80fd5b5f73ffffffffffffffffffffffffffffffffffffffff82169050919050565b5f61028a82610261565b9050919050565b61029a81610280565b81146102a4575f80fd5b50565b5f813590506102b581610291565b92915050565b5f602082840312156102d0576102cf61025d565b5b5f6102dd848285016102a7565b91505092915050565b5f819050919050565b6102f8816102e6565b82525050565b5f6020820190506103115f8301846102ef565b92915050565b61032081610280565b82525050565b5f6020820190506103395f830184610317565b92915050565b610348816102e6565b8114610352575f80fd5b50565b5f815190506103638161033f565b92915050565b5f6020828403121561037e5761037d61025d565b5b5f61038b84828501610355565b91505092915050565b7f4e487b71000000000000000000000000000000000000000000000000000000005f52601160045260245ffd5b5f6103cb826102e6565b91506103d6836102e6565b92508282019050808211156103ee576103ed610394565b5b92915050565b5f8151905061040281610291565b92915050565b5f6020828403121561041d5761041c61025d565b5b5f61042a848285016103f4565b9150509291505056fea26469706673582212208f98239de86cf343c27336e60b2f4e2faecd7cb0696ebc700d83b7ed1443912864736f6c63430008150033",
			"opcodes": "PUSH1 0x80 PUSH1 0x40 MSTORE CALLVALUE DUP1 ISZERO PUSH2 0xF JUMPI PUSH0 DUP1 REVERT JUMPDEST POP PUSH0 ADDRESS SWAP1 POP POP PUSH2 0x469 DUP1 PUSH2 0x22 PUSH0 CODECOPY PUSH0 RETURN INVALID PUSH1 0x80 PUSH1 0x40 MSTORE CALLVALUE DUP1 ISZERO PUSH2 0xF JUMPI PUSH0 DUP1 REVERT JUMPDEST POP PUSH1 0x4 CALLDATASIZE LT PUSH2 0x34 JUMPI PUSH0 CALLDATALOAD PUSH1 0xE0 SHR DUP1 PUSH4 0x30BD8C9 EQ PUSH2 0x38 JUMPI DUP1 PUSH4 0xEFEDC669 EQ PUSH2 0x54 JUMPI JUMPDEST PUSH0 DUP1 REVERT JUMPDEST PUSH2 0x52 PUSH1 0x4 DUP1 CALLDATASIZE SUB DUP2 ADD SWAP1 PUSH2 0x4D SWAP2 SWAP1 PUSH2 0x2BB JUMP JUMPDEST PUSH2 0x72 JUMP JUMPDEST STOP JUMPDEST PUSH2 0x5C PUSH2 0x258 JUMP JUMPDEST PUSH1 0x40 MLOAD PUSH2 0x69 SWAP2 SWAP1 PUSH2 0x2FE JUMP JUMPDEST PUSH1 0x40 MLOAD DUP1 SWAP2 SUB SWAP1 RETURN JUMPDEST PUSH0 DUP1 DUP2 SWAP1 SSTORE POP PUSH0 DUP2 PUSH20 0xFFFFFFFFFFFFFFFFFFFFFFFFFFFFFFFFFFFFFFFF AND PUSH4 0x70A08231 ADDRESS PUSH1 0x40 MLOAD DUP3 PUSH4 0xFFFFFFFF AND PUSH1 0xE0 SHL DUP2 MSTORE PUSH1 0x4 ADD PUSH2 0xB2 SWAP2 SWAP1 PUSH2 0x326 JUMP JUMPDEST PUSH1 0x20 PUSH1 0x40 MLOAD DUP1 DUP4 SUB DUP2 DUP7 GAS STATICCALL ISZERO DUP1 ISZERO PUSH2 0xCD JUMPI RETURNDATASIZE PUSH0 DUP1 RETURNDATACOPY RETURNDATASIZE PUSH0 REVERT JUMPDEST POP POP POP POP PUSH1 0x40 MLOAD RETURNDATASIZE PUSH1 0x1F NOT PUSH1 0x1F DUP3 ADD AND DUP3 ADD DUP1 PUSH1 0x40 MSTORE POP DUP2 ADD SWAP1 PUSH2 0xF1 SWAP2 SWAP1 PUSH2 0x369 JUMP JUMPDEST SUB PUSH2 0x10F JUMPI PUSH1 0x19 PUSH0 DUP1 DUP3 DUP3 SLOAD PUSH2 0x107 SWAP2 SWAP1 PUSH2 0x3C1 JUMP JUMPDEST SWAP3 POP POP DUP2 SWAP1 SSTORE POP JUMPDEST ADDRESS PUSH20 0xFFFFFFFFFFFFFFFFFFFFFFFFFFFFFFFFFFFFFFFF AND DUP2 PUSH20 0xFFFFFFFFFFFFFFFFFFFFFFFFFFFFFFFFFFFFFFFF AND PUSH4 0x8DA5CB5B PUSH1 0x40 MLOAD DUP2 PUSH4 0xFFFFFFFF AND PUSH1 0xE0 SHL DUP2 MSTORE PUSH1 0x4 ADD PUSH1 0x20 PUSH1 0x40 MLOAD DUP1 DUP4 SUB DUP2 DUP7 GAS STATICCALL ISZERO DUP1 ISZERO PUSH2 0x16F JUMPI RETURNDATASIZE PUSH0 DUP1 RETURNDATACOPY RETURNDATASIZE PUSH0 REVERT JUMPDEST POP POP POP POP PUSH1 0x40 MLOAD RETURNDATASIZE PUSH1 0x1F NOT PUSH1 0x1F DUP3 ADD AND DUP3 ADD DUP1 PUSH1 0x40 MSTORE POP DUP2 ADD SWAP1 PUSH2 0x193 SWAP2 SWAP1 PUSH2 0x408 JUMP JUMPDEST PUSH20 0xFFFFFFFFFFFFFFFFFFFFFFFFFFFFFFFFFFFFFFFF AND EQ DUP1 ISZERO PUSH2 0x237 JUMPI POP PUSH10 0x21E19E0C9BAB2400000 DUP2 PUSH20 0xFFFFFFFFFFFFFFFFFFFFFFFFFFFFFFFFFFFFFFFF AND PUSH4 0x70A08231 CALLER PUSH1 0x40 MLOAD DUP3 PUSH4 0xFFFFFFFF AND PUSH1 0xE0 SHL DUP2 MSTORE PUSH1 0x4 ADD PUSH2 0x1F5 SWAP2 SWAP1 PUSH2 0x326 JUMP JUMPDEST PUSH1 0x20 PUSH1 0x40 MLOAD DUP1 DUP4 SUB DUP2 DUP7 GAS STATICCALL ISZERO DUP1 ISZERO PUSH2 0x210 JUMPI RETURNDATASIZE PUSH0 DUP1 RETURNDATACOPY RETURNDATASIZE PUSH0 REVERT JUMPDEST POP POP POP POP PUSH1 0x40 MLOAD RETURNDATASIZE PUSH1 0x1F NOT PUSH1 0x1F DUP3 ADD AND DUP3 ADD DUP1 PUSH1 0x40 MSTORE POP DUP2 ADD SWAP1 PUSH2 0x234 SWAP2 SWAP1 PUSH2 0x369 JUMP JUMPDEST LT ISZERO JUMPDEST ISZERO PUSH2 0x255 JUMPI PUSH1 0x4B PUSH0 DUP1 DUP3 DUP3 SLOAD PUSH2 0x24D SWAP2 SWAP1 PUSH2 0x3C1 JUMP JUMPDEST SWAP3 POP POP DUP2 SWAP1 SSTORE POP JUMPDEST POP JUMP JUMPDEST PUSH0 SLOAD DUP2 JUMP JUMPDEST PUSH0 DUP1 REVERT JUMPDEST PUSH0 PUSH20 0xFFFFFFFFFFFFFFFFFFFFFFFFFFFFFFFFFFFFFFFF DUP3 AND SWAP1 POP SWAP2 SWAP1 POP JUMP JUMPDEST PUSH0 PUSH2 0x28A DUP3 PUSH2 0x261 JUMP JUMPDEST SWAP1 POP SWAP2 SWAP1 POP JUMP JUMPDEST PUSH2 0x29A DUP2 PUSH2 0x280 JUMP JUMPDEST DUP2 EQ PUSH2 0x2A4 JUMPI PUSH0 DUP1 REVERT JUMPDEST POP JUMP JUMPDEST PUSH0 DUP2 CALLDATALOAD SWAP1 POP PUSH2 0x2B5 DUP2 PUSH2 0x291 JUMP JUMPDEST SWAP3 SWAP2 POP POP JUMP JUMPDEST PUSH0 PUSH1 0x20 DUP3 DUP5 SUB SLT ISZERO PUSH2 0x2D0 JUMPI PUSH2 0x2CF PUSH2 0x25D JUMP JUMPDEST JUMPDEST PUSH0 PUSH2 0x2DD DUP5 DUP3 DUP6 ADD PUSH2 0x2A7 JUMP JUMPDEST SWAP2 POP POP SWAP3 SWAP2 POP POP JUMP JUMPDEST PUSH0 DUP2 SWAP1 POP SWAP2 SWAP1 POP JUMP JUMPDEST PUSH2 0x2F8 DUP2 PUSH2 0x2E6 JUMP JUMPDEST DUP3 MSTORE POP POP JUMP JUMPDEST PUSH0 PUSH1 0x20 DUP3 ADD SWAP1 POP PUSH2 0x311 PUSH0 DUP4 ADD DUP5 PUSH2 0x2EF JUMP JUMPDEST SWAP3 SWAP2 POP POP JUMP JUMPDEST PUSH2 0x320 DUP2 PUSH2 0x280 JUMP JUMPDEST DUP3 MSTORE POP POP JUMP JUMPDEST PUSH0 PUSH1 0x20 DUP3 ADD SWAP1 POP PUSH2 0x339 PUSH0 DUP4 ADD DUP5 PUSH2 0x317 JUMP JUMPDEST SWAP3 SWAP2 POP POP JUMP JUMPDEST PUSH2 0x348 DUP2 PUSH2 0x2E6 JUMP JUMPDEST DUP2 EQ PUSH2 0x352 JUMPI PUSH0 DUP1 REVERT JUMPDEST POP JUMP JUMPDEST PUSH0 DUP2 MLOAD SWAP1 POP PUSH2 0x363 DUP2 PUSH2 0x33F JUMP JUMPDEST SWAP3 SWAP2 POP POP JUMP JUMPDEST PUSH0 PUSH1 0x20 DUP3 DUP5 SUB SLT ISZERO PUSH2 0x37E JUMPI PUSH2 0x37D PUSH2 0x25D JUMP JUMPDEST JUMPDEST PUSH0 PUSH2 0x38B DUP5 DUP3 DUP6 ADD PUSH2 0x355 JUMP JUMPDEST SWAP2 POP POP SWAP3 SWAP2 POP POP JUMP JUMPDEST PUSH32 0x4E487B7100000000000000000000000000000000000000000000000000000000 PUSH0 MSTORE PUSH1 0x11 PUSH1 0x4 MSTORE PUSH1 0x24 PUSH0 REVERT JUMPDEST PUSH0 PUSH2 0x3CB DUP3 PUSH2 0x2E6 JUMP JUMPDEST SWAP2 POP PUSH2 0x3D6 DUP4 PUSH2 0x2E6 JUMP JUMPDEST SWAP3 POP DUP3 DUP3 ADD SWAP1 POP DUP1 DUP3 GT ISZERO PUSH2 0x3EE JUMPI PUSH2 0x3ED PUSH2 0x394 JUMP JUMPDEST JUMPDEST SWAP3 SWAP2 POP POP JUMP JUMPDEST PUSH0 DUP2 MLOAD SWAP1 POP PUSH2 0x402 DUP2 PUSH2 0x291 JUMP JUMPDEST SWAP3 SWAP2 POP POP JUMP JUMPDEST PUSH0 PUSH1 0x20 DUP3 DUP5 SUB SLT ISZERO PUSH2 0x41D JUMPI PUSH2 0x41C PUSH2 0x25D JUMP JUMPDEST JUMPDEST PUSH0 PUSH2 0x42A DUP5 DUP3 DUP6 ADD PUSH2 0x3F4 JUMP JUMPDEST SWAP2 POP POP SWAP3 SWAP2 POP POP JUMP INVALID LOG2 PUSH5 0x6970667358 0x22 SLT KECCAK256 DUP16 SWAP9 0x23 SWAP14 0xE8 PUSH13 0xF343C27336E60B2F4E2FAECD7C 0xB0 PUSH10 0x6EBC700D83B7ED144391 0x28 PUSH5 0x736F6C6343 STOP ADDMOD ISZERO STOP CALLER "
		},
		"gasEstimates": {
			"creation": {
				"codeDepositCost": "225800",
				"executionCost": "278",
				"totalCost": "226078"
			},
			"external": {
				"isCompleted(address)": "infinite",
				"score()": "2424"
			}
		},
		"methodIdentifiers": {
			"isCompleted(address)": "030bd8c9",
			"score()": "efedc669"
		}
	},
	"abi": [
		{
			"inputs": [],
			"stateMutability": "nonpayable",
			"type": "constructor"
		},
		{
			"inputs": [
				{
					"internalType": "address",
					"name": "_bank",
					"type": "address"
				}
			],
			"name": "isCompleted",
			"outputs": [],
			"stateMutability": "nonpayable",
			"type": "function"
		},
		{
			"inputs": [],
			"name": "score",
			"outputs": [
				{
					"internalType": "uint256",
					"name": "",
					"type": "uint256"
				}
			],
			"stateMutability": "view",
			"type": "function"
		}
	]
}