{
	"shoot/3/外部合约引用/1.sol": {
		"deploy": {
			"abi": [
				{
					"inputs": [],
					"name": "attracter",
					"outputs": [
						{
							"internalType": "contract att",
							"name": "",
							"type": "address"
						}
					],
					"stateMutability": "view",
					"type": "function"
				},
				{
					"inputs": [
						{
							"internalType": "address",
							"name": "addr",
							"type": "address"
						}
					],
					"name": "getaddress",
					"outputs": [],
					"stateMutability": "nonpayable",
					"type": "function"
				}
			],
			"devdoc": {
				"kind": "dev",
				"methods": {},
				"version": 1
			},
			"evm": {
				"assembly": "    /* \"shoot/3/外部合约引用/1.sol\":4351:4648  contract deploy{\r... */\n  mstore(0x40, 0x80)\n  callvalue\n  dup1\n  iszero\n  tag_1\n  jumpi\n  0x00\n  dup1\n  revert\ntag_1:\n  pop\n  dataSize(sub_0)\n  dup1\n  dataOffset(sub_0)\n  0x00\n  codecopy\n  0x00\n  return\nstop\n\nsub_0: assembly {\n        /* \"shoot/3/外部合约引用/1.sol\":4351:4648  contract deploy{\r... */\n      mstore(0x40, 0x80)\n      callvalue\n      dup1\n      iszero\n      tag_1\n      jumpi\n      0x00\n      dup1\n      revert\n    tag_1:\n      pop\n      jumpi(tag_2, lt(calldatasize, 0x04))\n      shr(0xe0, calldataload(0x00))\n      dup1\n      0xdc019e6c\n      eq\n      tag_3\n      jumpi\n      dup1\n      0xf5458748\n      eq\n      tag_4\n      jumpi\n    tag_2:\n      0x00\n      dup1\n      revert\n        /* \"shoot/3/外部合约引用/1.sol\":4373:4393  att public attracter */\n    tag_3:\n      tag_5\n      tag_6\n      jump\t// in\n    tag_5:\n      mload(0x40)\n      dup1\n      dup3\n      0xffffffffffffffffffffffffffffffffffffffff\n      and\n      dup2\n      mstore\n      0x20\n      add\n      swap2\n      pop\n      pop\n      mload(0x40)\n      dup1\n      swap2\n      sub\n      swap1\n      return\n        /* \"shoot/3/外部合约引用/1.sol\":4400:4645  function getaddress(address addr) public {\r... */\n    tag_4:\n      tag_7\n      0x04\n      dup1\n      calldatasize\n      sub\n      0x20\n      dup2\n      lt\n      iszero\n      tag_8\n      jumpi\n      0x00\n      dup1\n      revert\n    tag_8:\n      dup2\n      add\n      swap1\n      dup1\n      dup1\n      calldataload\n      0xffffffffffffffffffffffffffffffffffffffff\n      and\n      swap1\n      0x20\n      add\n      swap1\n      swap3\n      swap2\n      swap1\n      pop\n      pop\n      pop\n      tag_9\n      jump\t// in\n    tag_7:\n      stop\n        /* \"shoot/3/外部合约引用/1.sol\":4373:4393  att public attracter */\n    tag_6:\n      0x00\n      dup1\n      sload\n      swap1\n      0x0100\n      exp\n      swap1\n      div\n      0xffffffffffffffffffffffffffffffffffffffff\n      and\n      dup2\n      jump\t// out\n        /* \"shoot/3/外部合约引用/1.sol\":4400:4645  function getaddress(address addr) public {\r... */\n    tag_9:\n        /* \"shoot/3/外部合约引用/1.sol\":4452:4457  att a */\n      0x00\n        /* \"shoot/3/外部合约引用/1.sol\":4468:4472  addr */\n      dup2\n        /* \"shoot/3/外部合约引用/1.sol\":4460:4473  new att(addr) */\n      mload(0x40)\n      tag_11\n      swap1\n      tag_12\n      jump\t// in\n    tag_11:\n      dup1\n      dup3\n      0xffffffffffffffffffffffffffffffffffffffff\n      and\n      dup2\n      mstore\n      0x20\n      add\n      swap2\n      pop\n      pop\n      mload(0x40)\n      dup1\n      swap2\n      sub\n      swap1\n      0x00\n      create\n      dup1\n      iszero\n      dup1\n      iszero\n      tag_13\n      jumpi\n      returndatasize\n      0x00\n      dup1\n      returndatacopy\n      revert(0x00, returndatasize)\n    tag_13:\n      pop\n        /* \"shoot/3/外部合约引用/1.sol\":4452:4473  att a = new att(addr) */\n      swap1\n      pop\n        /* \"shoot/3/外部合约引用/1.sol\":4489:4495  uint i */\n      0x00\n        /* \"shoot/3/外部合约引用/1.sol\":4484:4612  for (uint i = 0;i<100;i++){\r... */\n    tag_14:\n        /* \"shoot/3/外部合约引用/1.sol\":4502:4505  100 */\n      0x64\n        /* \"shoot/3/外部合约引用/1.sol\":4500:4501  i */\n      dup2\n        /* \"shoot/3/外部合约引用/1.sol\":4500:4505  i<100 */\n      lt\n        /* \"shoot/3/外部合约引用/1.sol\":4484:4612  for (uint i = 0;i<100;i++){\r... */\n      iszero\n      tag_15\n      jumpi\n        /* \"shoot/3/外部合约引用/1.sol\":4555:4556  0 */\n      0x00\n        /* \"shoot/3/外部合约引用/1.sol\":4549:4551  44 */\n      0x2c\n        /* \"shoot/3/外部合约引用/1.sol\":4545:4546  a */\n      dup4\n        /* \"shoot/3/外部合约引用/1.sol\":4529:4551  uint160(address(a))%44 */\n      0xffffffffffffffffffffffffffffffffffffffff\n      and\n      dup2\n      tag_17\n      jumpi\n      invalid\n    tag_17:\n      mod\n        /* \"shoot/3/外部合约引用/1.sol\":4529:4556  uint160(address(a))%44 == 0 */\n      0xffffffffffffffffffffffffffffffffffffffff\n      and\n      eq\n        /* \"shoot/3/外部合约引用/1.sol\":4525:4601  if (uint160(address(a))%44 == 0){\r... */\n      iszero\n      tag_18\n      jumpi\n        /* \"shoot/3/外部合约引用/1.sol\":4584:4585  a */\n      dup2\n        /* \"shoot/3/外部合约引用/1.sol\":4572:4581  attracter */\n      0x00\n      dup1\n        /* \"shoot/3/外部合约引用/1.sol\":4572:4585  attracter = a */\n      0x0100\n      exp\n      dup2\n      sload\n      dup2\n      0xffffffffffffffffffffffffffffffffffffffff\n      mul\n      not\n      and\n      swap1\n      dup4\n      0xffffffffffffffffffffffffffffffffffffffff\n      and\n      mul\n      or\n      swap1\n      sstore\n      pop\n        /* \"shoot/3/外部合约引用/1.sol\":4525:4601  if (uint160(address(a))%44 == 0){\r... */\n    tag_18:\n        /* \"shoot/3/外部合约引用/1.sol\":4506:4509  i++ */\n      dup1\n      dup1\n      0x01\n      add\n      swap2\n      pop\n      pop\n        /* \"shoot/3/外部合约引用/1.sol\":4484:4612  for (uint i = 0;i<100;i++){\r... */\n      jump(tag_14)\n    tag_15:\n      pop\n        /* \"shoot/3/外部合约引用/1.sol\":4634:4635  a */\n      dup1\n        /* \"shoot/3/外部合约引用/1.sol\":4622:4631  attracter */\n      0x00\n      dup1\n        /* \"shoot/3/外部合约引用/1.sol\":4622:4635  attracter = a */\n      0x0100\n      exp\n      dup2\n      sload\n      dup2\n      0xffffffffffffffffffffffffffffffffffffffff\n      mul\n      not\n      and\n      swap1\n      dup4\n      0xffffffffffffffffffffffffffffffffffffffff\n      and\n      mul\n      or\n      swap1\n      sstore\n      pop\n        /* \"shoot/3/外部合约引用/1.sol\":4400:4645  function getaddress(address addr) public {\r... */\n      pop\n      pop\n      jump\t// out\n    tag_12:\n      dataSize(sub_0)\n      dup1\n      dataOffset(sub_0)\n      dup4\n      codecopy\n      add\n      swap1\n      jump\t// out\n    stop\n\n    sub_0: assembly {\n            /* \"shoot/3/外部合约引用/1.sol\":4234:4349  contract att {\r... */\n          mstore(0x40, 0x80)\n            /* \"shoot/3/外部合约引用/1.sol\":4277:4346  constructor(address addr) public {\r... */\n          callvalue\n          dup1\n          iszero\n          tag_1\n          jumpi\n          0x00\n          dup1\n          revert\n        tag_1:\n          pop\n          mload(0x40)\n          sub(codesize, bytecodeSize)\n          dup1\n          bytecodeSize\n          dup4\n          codecopy\n          dup2\n          dup2\n          add\n          0x40\n          mstore\n          0x20\n          dup2\n          lt\n          iszero\n          tag_2\n          jumpi\n          0x00\n          dup1\n          revert\n        tag_2:\n          dup2\n          add\n          swap1\n          dup1\n          dup1\n          mload\n          swap1\n          0x20\n          add\n          swap1\n          swap3\n          swap2\n          swap1\n          pop\n          pop\n          pop\n            /* \"shoot/3/外部合约引用/1.sol\":4333:4337  addr */\n          dup1\n            /* \"shoot/3/外部合约引用/1.sol\":4321:4324  che */\n          0x00\n          dup1\n            /* \"shoot/3/外部合约引用/1.sol\":4321:4338  che = check(addr) */\n          0x0100\n          exp\n          dup2\n          sload\n          dup2\n          0xffffffffffffffffffffffffffffffffffffffff\n          mul\n          not\n          and\n          swap1\n          dup4\n          0xffffffffffffffffffffffffffffffffffffffff\n          and\n          mul\n          or\n          swap1\n          sstore\n          pop\n            /* \"shoot/3/外部合约引用/1.sol\":4277:4346  constructor(address addr) public {\r... */\n          pop\n            /* \"shoot/3/外部合约引用/1.sol\":4234:4349  contract att {\r... */\n          dataSize(sub_0)\n          dup1\n          dataOffset(sub_0)\n          0x00\n          codecopy\n          0x00\n          return\n        stop\n\n        sub_0: assembly {\n                /* \"shoot/3/外部合约引用/1.sol\":4234:4349  contract att {\r... */\n              mstore(0x40, 0x80)\n              callvalue\n              dup1\n              iszero\n              tag_1\n              jumpi\n              0x00\n              dup1\n              revert\n            tag_1:\n              pop\n              jumpi(tag_2, lt(calldatasize, 0x04))\n              shr(0xe0, calldataload(0x00))\n              dup1\n              0xa7fb0375\n              eq\n              tag_3\n              jumpi\n            tag_2:\n              0x00\n              dup1\n              revert\n                /* \"shoot/3/外部合约引用/1.sol\":4254:4270  check public che */\n            tag_3:\n              tag_4\n              tag_5\n              jump\t// in\n            tag_4:\n              mload(0x40)\n              dup1\n              dup3\n              0xffffffffffffffffffffffffffffffffffffffff\n              and\n              dup2\n              mstore\n              0x20\n              add\n              swap2\n              pop\n              pop\n              mload(0x40)\n              dup1\n              swap2\n              sub\n              swap1\n              return\n            tag_5:\n              0x00\n              dup1\n              sload\n              swap1\n              0x0100\n              exp\n              swap1\n              div\n              0xffffffffffffffffffffffffffffffffffffffff\n              and\n              dup2\n              jump\t// out\n\n            auxdata: 0xa26469706673582212200135938300db401657ece262d8862f767ab55487abe842497df09ed6543521e564736f6c63430007060033\n        }\n    }\n\n    auxdata: 0xa264697066735822122093eaa29d851e8d52641d481c213fa85d8693762c5ac40d3dcdd622e6a27e25e364736f6c63430007060033\n}\n",
				"bytecode": {
					"linkReferences": {},
					"object": "608060405234801561001057600080fd5b50610392806100206000396000f3fe608060405234801561001057600080fd5b50600436106100365760003560e01c8063dc019e6c1461003b578063f54587481461006f575b600080fd5b6100436100b3565b604051808273ffffffffffffffffffffffffffffffffffffffff16815260200191505060405180910390f35b6100b16004803603602081101561008557600080fd5b81019080803573ffffffffffffffffffffffffffffffffffffffff1690602001909291905050506100d7565b005b60008054906101000a900473ffffffffffffffffffffffffffffffffffffffff1681565b6000816040516100e690610203565b808273ffffffffffffffffffffffffffffffffffffffff168152602001915050604051809103906000f080158015610122573d6000803e3d6000fd5b50905060005b60648110156101be576000602c8373ffffffffffffffffffffffffffffffffffffffff168161015357fe5b0673ffffffffffffffffffffffffffffffffffffffff1614156101b157816000806101000a81548173ffffffffffffffffffffffffffffffffffffffff021916908373ffffffffffffffffffffffffffffffffffffffff1602179055505b8080600101915050610128565b50806000806101000a81548173ffffffffffffffffffffffffffffffffffffffff021916908373ffffffffffffffffffffffffffffffffffffffff1602179055505050565b61014c806102118339019056fe608060405234801561001057600080fd5b5060405161014c38038061014c8339818101604052602081101561003357600080fd5b8101908080519060200190929190505050806000806101000a81548173ffffffffffffffffffffffffffffffffffffffff021916908373ffffffffffffffffffffffffffffffffffffffff1602179055505060b9806100936000396000f3fe6080604052348015600f57600080fd5b506004361060285760003560e01c8063a7fb037514602d575b600080fd5b6033605f565b604051808273ffffffffffffffffffffffffffffffffffffffff16815260200191505060405180910390f35b60008054906101000a900473ffffffffffffffffffffffffffffffffffffffff168156fea26469706673582212200135938300db401657ece262d8862f767ab55487abe842497df09ed6543521e564736f6c63430007060033a264697066735822122093eaa29d851e8d52641d481c213fa85d8693762c5ac40d3dcdd622e6a27e25e364736f6c63430007060033",
					"opcodes": "PUSH1 0x80 PUSH1 0x40 MSTORE CALLVALUE DUP1 ISZERO PUSH2 0x10 JUMPI PUSH1 0x0 DUP1 REVERT JUMPDEST POP PUSH2 0x392 DUP1 PUSH2 0x20 PUSH1 0x0 CODECOPY PUSH1 0x0 RETURN INVALID PUSH1 0x80 PUSH1 0x40 MSTORE CALLVALUE DUP1 ISZERO PUSH2 0x10 JUMPI PUSH1 0x0 DUP1 REVERT JUMPDEST POP PUSH1 0x4 CALLDATASIZE LT PUSH2 0x36 JUMPI PUSH1 0x0 CALLDATALOAD PUSH1 0xE0 SHR DUP1 PUSH4 0xDC019E6C EQ PUSH2 0x3B JUMPI DUP1 PUSH4 0xF5458748 EQ PUSH2 0x6F JUMPI JUMPDEST PUSH1 0x0 DUP1 REVERT JUMPDEST PUSH2 0x43 PUSH2 0xB3 JUMP JUMPDEST PUSH1 0x40 MLOAD DUP1 DUP3 PUSH20 0xFFFFFFFFFFFFFFFFFFFFFFFFFFFFFFFFFFFFFFFF AND DUP2 MSTORE PUSH1 0x20 ADD SWAP2 POP POP PUSH1 0x40 MLOAD DUP1 SWAP2 SUB SWAP1 RETURN JUMPDEST PUSH2 0xB1 PUSH1 0x4 DUP1 CALLDATASIZE SUB PUSH1 0x20 DUP2 LT ISZERO PUSH2 0x85 JUMPI PUSH1 0x0 DUP1 REVERT JUMPDEST DUP2 ADD SWAP1 DUP1 DUP1 CALLDATALOAD PUSH20 0xFFFFFFFFFFFFFFFFFFFFFFFFFFFFFFFFFFFFFFFF AND SWAP1 PUSH1 0x20 ADD SWAP1 SWAP3 SWAP2 SWAP1 POP POP POP PUSH2 0xD7 JUMP JUMPDEST STOP JUMPDEST PUSH1 0x0 DUP1 SLOAD SWAP1 PUSH2 0x100 EXP SWAP1 DIV PUSH20 0xFFFFFFFFFFFFFFFFFFFFFFFFFFFFFFFFFFFFFFFF AND DUP2 JUMP JUMPDEST PUSH1 0x0 DUP2 PUSH1 0x40 MLOAD PUSH2 0xE6 SWAP1 PUSH2 0x203 JUMP JUMPDEST DUP1 DUP3 PUSH20 0xFFFFFFFFFFFFFFFFFFFFFFFFFFFFFFFFFFFFFFFF AND DUP2 MSTORE PUSH1 0x20 ADD SWAP2 POP POP PUSH1 0x40 MLOAD DUP1 SWAP2 SUB SWAP1 PUSH1 0x0 CREATE DUP1 ISZERO DUP1 ISZERO PUSH2 0x122 JUMPI RETURNDATASIZE PUSH1 0x0 DUP1 RETURNDATACOPY RETURNDATASIZE PUSH1 0x0 REVERT JUMPDEST POP SWAP1 POP PUSH1 0x0 JUMPDEST PUSH1 0x64 DUP2 LT ISZERO PUSH2 0x1BE JUMPI PUSH1 0x0 PUSH1 0x2C DUP4 PUSH20 0xFFFFFFFFFFFFFFFFFFFFFFFFFFFFFFFFFFFFFFFF AND DUP2 PUSH2 0x153 JUMPI INVALID JUMPDEST MOD PUSH20 0xFFFFFFFFFFFFFFFFFFFFFFFFFFFFFFFFFFFFFFFF AND EQ ISZERO PUSH2 0x1B1 JUMPI DUP2 PUSH1 0x0 DUP1 PUSH2 0x100 EXP DUP2 SLOAD DUP2 PUSH20 0xFFFFFFFFFFFFFFFFFFFFFFFFFFFFFFFFFFFFFFFF MUL NOT AND SWAP1 DUP4 PUSH20 0xFFFFFFFFFFFFFFFFFFFFFFFFFFFFFFFFFFFFFFFF AND MUL OR SWAP1 SSTORE POP JUMPDEST DUP1 DUP1 PUSH1 0x1 ADD SWAP2 POP POP PUSH2 0x128 JUMP JUMPDEST POP DUP1 PUSH1 0x0 DUP1 PUSH2 0x100 EXP DUP2 SLOAD DUP2 PUSH20 0xFFFFFFFFFFFFFFFFFFFFFFFFFFFFFFFFFFFFFFFF MUL NOT AND SWAP1 DUP4 PUSH20 0xFFFFFFFFFFFFFFFFFFFFFFFFFFFFFFFFFFFFFFFF AND MUL OR SWAP1 SSTORE POP POP POP JUMP JUMPDEST PUSH2 0x14C DUP1 PUSH2 0x211 DUP4 CODECOPY ADD SWAP1 JUMP INVALID PUSH1 0x80 PUSH1 0x40 MSTORE CALLVALUE DUP1 ISZERO PUSH2 0x10 JUMPI PUSH1 0x0 DUP1 REVERT JUMPDEST POP PUSH1 0x40 MLOAD PUSH2 0x14C CODESIZE SUB DUP1 PUSH2 0x14C DUP4 CODECOPY DUP2 DUP2 ADD PUSH1 0x40 MSTORE PUSH1 0x20 DUP2 LT ISZERO PUSH2 0x33 JUMPI PUSH1 0x0 DUP1 REVERT JUMPDEST DUP2 ADD SWAP1 DUP1 DUP1 MLOAD SWAP1 PUSH1 0x20 ADD SWAP1 SWAP3 SWAP2 SWAP1 POP POP POP DUP1 PUSH1 0x0 DUP1 PUSH2 0x100 EXP DUP2 SLOAD DUP2 PUSH20 0xFFFFFFFFFFFFFFFFFFFFFFFFFFFFFFFFFFFFFFFF MUL NOT AND SWAP1 DUP4 PUSH20 0xFFFFFFFFFFFFFFFFFFFFFFFFFFFFFFFFFFFFFFFF AND MUL OR SWAP1 SSTORE POP POP PUSH1 0xB9 DUP1 PUSH2 0x93 PUSH1 0x0 CODECOPY PUSH1 0x0 RETURN INVALID PUSH1 0x80 PUSH1 0x40 MSTORE CALLVALUE DUP1 ISZERO PUSH1 0xF JUMPI PUSH1 0x0 DUP1 REVERT JUMPDEST POP PUSH1 0x4 CALLDATASIZE LT PUSH1 0x28 JUMPI PUSH1 0x0 CALLDATALOAD PUSH1 0xE0 SHR DUP1 PUSH4 0xA7FB0375 EQ PUSH1 0x2D JUMPI JUMPDEST PUSH1 0x0 DUP1 REVERT JUMPDEST PUSH1 0x33 PUSH1 0x5F JUMP JUMPDEST PUSH1 0x40 MLOAD DUP1 DUP3 PUSH20 0xFFFFFFFFFFFFFFFFFFFFFFFFFFFFFFFFFFFFFFFF AND DUP2 MSTORE PUSH1 0x20 ADD SWAP2 POP POP PUSH1 0x40 MLOAD DUP1 SWAP2 SUB SWAP1 RETURN JUMPDEST PUSH1 0x0 DUP1 SLOAD SWAP1 PUSH2 0x100 EXP SWAP1 DIV PUSH20 0xFFFFFFFFFFFFFFFFFFFFFFFFFFFFFFFFFFFFFFFF AND DUP2 JUMP INVALID LOG2 PUSH5 0x6970667358 0x22 SLT KECCAK256 ADD CALLDATALOAD SWAP4 DUP4 STOP 0xDB BLOCKHASH AND JUMPI 0xEC 0xE2 PUSH3 0xD8862F PUSH23 0x7AB55487ABE842497DF09ED6543521E564736F6C634300 SMOD MOD STOP CALLER LOG2 PUSH5 0x6970667358 0x22 SLT KECCAK256 SWAP4 0xEA LOG2 SWAP14 DUP6 0x1E DUP14 MSTORE PUSH5 0x1D481C213F 0xA8 0x5D DUP7 SWAP4 PUSH23 0x2C5AC40D3DCDD622E6A27E25E364736F6C634300070600 CALLER "
				},
				"gasEstimates": {
					"creation": {
						"codeDepositCost": "182800",
						"executionCost": "226",
						"totalCost": "183026"
					},
					"external": {
						"attracter()": "1022",
						"getaddress(address)": "infinite"
					}
				},
				"methodIdentifiers": {
					"attracter()": "dc019e6c",
					"getaddress(address)": "f5458748"
				}
			},
			"storageLayout": {
				"storage": [
					{
						"astId": 526,
						"contract": "shoot/3/外部合约引用/1.sol:deploy",
						"label": "attracter",
						"offset": 0,
						"slot": "0",
						"type": "t_contract(att)524"
					}
				],
				"types": {
					"t_contract(att)524": {
						"encoding": "inplace",
						"label": "contract att",
						"numberOfBytes": "20"
					}
				}
			},
			"userdoc": {
				"kind": "user",
				"methods": {},
				"version": 1
			}
		}
	}
}