{
	"data": {
		"bytecode": {
			"linkReferences": {},
			"object": "608060405234801561001057600080fd5b5060f38061001f6000396000f3fe6080604052348015600f57600080fd5b5060043610603c5760003560e01c8063bbe1d75b146041578063be9a655514605d578063fe75faab146079575b600080fd5b604760a4565b6040518082815260200191505060405180910390f35b606360aa565b6040518082815260200191505060405180910390f35b60a260048036036020811015608d57600080fd5b810190808035906020019092919050505060b0565b005b60015481565b60005481565b620186a06001819055505056fea2646970667358221220aa3bd2953b5959d4a626f0723a3d498bd312a5ec1ff38dca00089e947a49aaa864736f6c634300060c0033",
			"opcodes": "PUSH1 0x80 PUSH1 0x40 MSTORE CALLVALUE DUP1 ISZERO PUSH2 0x10 JUMPI PUSH1 0x0 DUP1 REVERT JUMPDEST POP PUSH1 0xF3 DUP1 PUSH2 0x1F PUSH1 0x0 CODECOPY PUSH1 0x0 RETURN INVALID PUSH1 0x80 PUSH1 0x40 MSTORE CALLVALUE DUP1 ISZERO PUSH1 0xF JUMPI PUSH1 0x0 DUP1 REVERT JUMPDEST POP PUSH1 0x4 CALLDATASIZE LT PUSH1 0x3C JUMPI PUSH1 0x0 CALLDATALOAD PUSH1 0xE0 SHR DUP1 PUSH4 0xBBE1D75B EQ PUSH1 0x41 JUMPI DUP1 PUSH4 0xBE9A6555 EQ PUSH1 0x5D JUMPI DUP1 PUSH4 0xFE75FAAB EQ PUSH1 0x79 JUMPI JUMPDEST PUSH1 0x0 DUP1 REVERT JUMPDEST PUSH1 0x47 PUSH1 0xA4 JUMP JUMPDEST PUSH1 0x40 MLOAD DUP1 DUP3 DUP2 MSTORE PUSH1 0x20 ADD SWAP2 POP POP PUSH1 0x40 MLOAD DUP1 SWAP2 SUB SWAP1 RETURN JUMPDEST PUSH1 0x63 PUSH1 0xAA JUMP JUMPDEST PUSH1 0x40 MLOAD DUP1 DUP3 DUP2 MSTORE PUSH1 0x20 ADD SWAP2 POP POP PUSH1 0x40 MLOAD DUP1 SWAP2 SUB SWAP1 RETURN JUMPDEST PUSH1 0xA2 PUSH1 0x4 DUP1 CALLDATASIZE SUB PUSH1 0x20 DUP2 LT ISZERO PUSH1 0x8D JUMPI PUSH1 0x0 DUP1 REVERT JUMPDEST DUP2 ADD SWAP1 DUP1 DUP1 CALLDATALOAD SWAP1 PUSH1 0x20 ADD SWAP1 SWAP3 SWAP2 SWAP1 POP POP POP PUSH1 0xB0 JUMP JUMPDEST STOP JUMPDEST PUSH1 0x1 SLOAD DUP2 JUMP JUMPDEST PUSH1 0x0 SLOAD DUP2 JUMP JUMPDEST PUSH3 0x186A0 PUSH1 0x1 DUP2 SWAP1 SSTORE POP POP JUMP INVALID LOG2 PUSH5 0x6970667358 0x22 SLT KECCAK256 0xAA EXTCODESIZE 0xD2 SWAP6 EXTCODESIZE MSIZE MSIZE 0xD4 0xA6 0x26 CREATE PUSH19 0x3A3D498BD312A5EC1FF38DCA00089E947A49AA 0xA8 PUSH5 0x736F6C6343 STOP MOD 0xC STOP CALLER "
		},
		"gasEstimates": {
			"creation": {
				"codeDepositCost": "48600",
				"executionCost": "99",
				"totalCost": "48699"
			},
			"external": {
				"calculatedFibNumber()": "983",
				"setFibonacci(uint256)": "20264",
				"start()": "1005"
			}
		},
		"methodIdentifiers": {
			"calculatedFibNumber()": "bbe1d75b",
			"setFibonacci(uint256)": "fe75faab",
			"start()": "be9a6555"
		}
	},
	"abi": [
		{
			"inputs": [],
			"name": "calculatedFibNumber",
			"outputs": [
				{
					"internalType": "uint256",
					"name": "",
					"type": "uint256"
				}
			],
			"stateMutability": "view",
			"type": "function"
		},
		{
			"inputs": [
				{
					"internalType": "uint256",
					"name": "n",
					"type": "uint256"
				}
			],
			"name": "setFibonacci",
			"outputs": [],
			"stateMutability": "nonpayable",
			"type": "function"
		},
		{
			"inputs": [],
			"name": "start",
			"outputs": [
				{
					"internalType": "uint256",
					"name": "",
					"type": "uint256"
				}
			],
			"stateMutability": "view",
			"type": "function"
		}
	]
}