{
	"data": {
		"bytecode": {
			"linkReferences": {},
			"object": "608060405234801561001057600080fd5b5060405161001d9061020d565b604051809103906000f080158015610039573d6000803e3d6000fd5b506040516100469061021a565b808273ffffffffffffffffffffffffffffffffffffffff168152602001915050604051809103906000f080158015610082573d6000803e3d6000fd5b50600260006101000a81548173ffffffffffffffffffffffffffffffffffffffff021916908373ffffffffffffffffffffffffffffffffffffffff160217905550600260009054906101000a900473ffffffffffffffffffffffffffffffffffffffff16600160006101000a81548173ffffffffffffffffffffffffffffffffffffffff021916908373ffffffffffffffffffffffffffffffffffffffff160217905550600260009054906101000a900473ffffffffffffffffffffffffffffffffffffffff1673ffffffffffffffffffffffffffffffffffffffff16631d0e8e9a6040518163ffffffff1660e01b815260040160206040518083038186803b15801561018e57600080fd5b505afa1580156101a2573d6000803e3d6000fd5b505050506040513d60208110156101b857600080fd5b81019080805190602001909291905050506000806101000a81548173ffffffffffffffffffffffffffffffffffffffff021916908373ffffffffffffffffffffffffffffffffffffffff160217905550610227565b6101b28061072d83390190565b61061d806108df83390190565b6104f7806102366000396000f3fe6080604052600436106100555760003560e01c80637c3bdd931461005a578063a6337a081461009b578063b145a5b8146100dc578063efedc66914610109578063f8ef108514610134578063fa391c641461013e575b600080fd5b34801561006657600080fd5b5061006f610155565b604051808273ffffffffffffffffffffffffffffffffffffffff16815260200191505060405180910390f35b3480156100a757600080fd5b506100b0610179565b604051808273ffffffffffffffffffffffffffffffffffffffff16815260200191505060405180910390f35b3480156100e857600080fd5b506100f161019f565b60405180821515815260200191505060405180910390f35b34801561011557600080fd5b5061011e6101b2565b6040518082815260200191505060405180910390f35b61013c6101b8565b005b34801561014a57600080fd5b506101536102ec565b005b60008054906101000a900473ffffffffffffffffffffffffffffffffffffffff1681565b600160009054906101000a900473ffffffffffffffffffffffffffffffffffffffff1681565b600460009054906101000a900460ff1681565b60035481565b600460009054906101000a900460ff166102ea576000600160009054906101000a900473ffffffffffffffffffffffffffffffffffffffff1673ffffffffffffffffffffffffffffffffffffffff16620186a060405180600001905060006040518083038185875af1925050503d8060008114610251576040519150601f19603f3d011682016040523d82523d6000602084013e610256565b606091505b50509050806102cd576040517f08c379a000000000000000000000000000000000000000000000000000000000815260040180806020018281038252601b8152602001807f73686f756c6420696e697420776974682031303030303020776569000000000081525060200191505060405180910390fd5b6001600460006101000a81548160ff021916908315150217905550505b565b600460009054906101000a900460ff1661036e576040517f08c379a000000000000000000000000000000000000000000000000000000000815260040180806020018281038252601c8152602001807f596f752063616e277420646f20697420776974686f757420696e69740000000081525060200191505060405180910390fd5b600060038190555060008054906101000a900473ffffffffffffffffffffffffffffffffffffffff1673ffffffffffffffffffffffffffffffffffffffff16600260009054906101000a900473ffffffffffffffffffffffffffffffffffffffff1673ffffffffffffffffffffffffffffffffffffffff16631d0e8e9a6040518163ffffffff1660e01b815260040160206040518083038186803b15801561041557600080fd5b505afa158015610429573d6000803e3d6000fd5b505050506040513d602081101561043f57600080fd5b810190808051906020019092919050505073ffffffffffffffffffffffffffffffffffffffff16146104bf57601e6003819055506000600160009054906101000a900473ffffffffffffffffffffffffffffffffffffffff1673ffffffffffffffffffffffffffffffffffffffff163114156104be5760646003819055505b5b56fea2646970667358221220c1b6dfd5c95d5ce783f604ccd498f51bbd5591ac800b06f689ab9419a703ed5164736f6c634300060c0033608060405234801561001057600080fd5b50610192806100206000396000f3fe608060405234801561001057600080fd5b506004361061004c5760003560e01c8063bbe1d75b14610051578063be9a65551461006f578063f6a03ebf1461008d578063fe75faab146100bb575b600080fd5b6100596100e9565b6040518082815260200191505060405180910390f35b6100776100ef565b6040518082815260200191505060405180910390f35b6100b9600480360360208110156100a357600080fd5b81019080803590602001909291905050506100f5565b005b6100e7600480360360208110156100d157600080fd5b81019080803590602001909291905050506100ff565b005b60015481565b60005481565b8060008190555050565b61010881610111565b60018190555050565b600080821415610125576000549050610157565b600182141561013b576001600054019050610157565b61014760028303610111565b61015360018403610111565b0190505b91905056fea2646970667358221220726b317eb9c23bddd0e1fd5c4519b679ff888bb6aceacc1fb0525cace6e3167e64736f6c634300060c00336080604052600360025560405161061d38038061061d8339818101604052602081101561002b57600080fd5b8101908080519060200190929190505050806000806101000a81548173ffffffffffffffffffffffffffffffffffffffff021916908373ffffffffffffffffffffffffffffffffffffffff160217905550506105918061008c6000396000f3fe60806040526004361061004e5760003560e01c80631d0e8e9a1461019e5780633ccfd60b146101df578063bbe1d75b146101f6578063be9a655514610221578063ca8817601461024c5761004f565b5b600460009054906101000a900460ff1615610180576000341461007157600080fd5b60008060009054906101000a900473ffffffffffffffffffffffffffffffffffffffff1673ffffffffffffffffffffffffffffffffffffffff16600036604051808383808284378083019250505092505050600060405180830381855af49150503d80600081146100fe576040519150601f19603f3d011682016040523d82523d6000602084013e610103565b606091505b505090508061017a576040517f08c379a00000000000000000000000000000000000000000000000000000000081526004018080602001828103825260118152602001807f64656c656761746563616c6c2046616c6c00000000000000000000000000000081525060200191505060405180910390fd5b5061019c565b6001600460006101000a81548160ff0219169083151502179055505b005b3480156101aa57600080fd5b506101b3610277565b604051808273ffffffffffffffffffffffffffffffffffffffff16815260200191505060405180910390f35b3480156101eb57600080fd5b506101f461029b565b005b34801561020257600080fd5b5061020b610549565b6040518082815260200191505060405180910390f35b34801561022d57600080fd5b5061023661054f565b6040518082815260200191505060405180910390f35b34801561025857600080fd5b50610261610555565b6040518082815260200191505060405180910390f35b60008054906101000a900473ffffffffffffffffffffffffffffffffffffffff1681565b600160036000828254019250508190555060008060009054906101000a900473ffffffffffffffffffffffffffffffffffffffff1673ffffffffffffffffffffffffffffffffffffffff166040518060400160405280601581526020017f7365744669626f6e616363692875696e7432353629000000000000000000000081525060035460405160240180828152602001915050604051602081830303815290604052906040518082805190602001908083835b60208310610372578051825260208201915060208101905060208303925061034f565b6001836020036101000a03801982511681845116808217855250505050505090500191505060405180910390207bffffffffffffffffffffffffffffffffffffffffffffffffffffffff19166020820180517bffffffffffffffffffffffffffffffffffffffffffffffffffffffff83818316178352505050506040518082805190602001908083835b6020831061041f57805182526020820191506020810190506020830392506103fc565b6001836020036101000a038019825116818451168082178552505050505050905001915050600060405180830381855af49150503d806000811461047f576040519150601f19603f3d011682016040523d82523d6000602084013e610484565b606091505b50509050806104fb576040517f08c379a00000000000000000000000000000000000000000000000000000000081526004018080602001828103825260118152602001807f64656c656761746563616c6c2046616c6c00000000000000000000000000000081525060200191505060405180910390fd5b3373ffffffffffffffffffffffffffffffffffffffff166108fc60018054029081150290604051600060405180830381858888f19350505050158015610545573d6000803e3d6000fd5b5050565b60015481565b60025481565b6003548156fea2646970667358221220ef431f8a5e602c211d9d254121836346978aa90376de1b0967bb722ecf554bfb64736f6c634300060c0033",
			"opcodes": "PUSH1 0x80 PUSH1 0x40 MSTORE CALLVALUE DUP1 ISZERO PUSH2 0x10 JUMPI PUSH1 0x0 DUP1 REVERT JUMPDEST POP PUSH1 0x40 MLOAD PUSH2 0x1D SWAP1 PUSH2 0x20D JUMP JUMPDEST PUSH1 0x40 MLOAD DUP1 SWAP2 SUB SWAP1 PUSH1 0x0 CREATE DUP1 ISZERO DUP1 ISZERO PUSH2 0x39 JUMPI RETURNDATASIZE PUSH1 0x0 DUP1 RETURNDATACOPY RETURNDATASIZE PUSH1 0x0 REVERT JUMPDEST POP PUSH1 0x40 MLOAD PUSH2 0x46 SWAP1 PUSH2 0x21A JUMP JUMPDEST DUP1 DUP3 PUSH20 0xFFFFFFFFFFFFFFFFFFFFFFFFFFFFFFFFFFFFFFFF AND DUP2 MSTORE PUSH1 0x20 ADD SWAP2 POP POP PUSH1 0x40 MLOAD DUP1 SWAP2 SUB SWAP1 PUSH1 0x0 CREATE DUP1 ISZERO DUP1 ISZERO PUSH2 0x82 JUMPI RETURNDATASIZE PUSH1 0x0 DUP1 RETURNDATACOPY RETURNDATASIZE PUSH1 0x0 REVERT JUMPDEST POP PUSH1 0x2 PUSH1 0x0 PUSH2 0x100 EXP DUP2 SLOAD DUP2 PUSH20 0xFFFFFFFFFFFFFFFFFFFFFFFFFFFFFFFFFFFFFFFF MUL NOT AND SWAP1 DUP4 PUSH20 0xFFFFFFFFFFFFFFFFFFFFFFFFFFFFFFFFFFFFFFFF AND MUL OR SWAP1 SSTORE POP PUSH1 0x2 PUSH1 0x0 SWAP1 SLOAD SWAP1 PUSH2 0x100 EXP SWAP1 DIV PUSH20 0xFFFFFFFFFFFFFFFFFFFFFFFFFFFFFFFFFFFFFFFF AND PUSH1 0x1 PUSH1 0x0 PUSH2 0x100 EXP DUP2 SLOAD DUP2 PUSH20 0xFFFFFFFFFFFFFFFFFFFFFFFFFFFFFFFFFFFFFFFF MUL NOT AND SWAP1 DUP4 PUSH20 0xFFFFFFFFFFFFFFFFFFFFFFFFFFFFFFFFFFFFFFFF AND MUL OR SWAP1 SSTORE POP PUSH1 0x2 PUSH1 0x0 SWAP1 SLOAD SWAP1 PUSH2 0x100 EXP SWAP1 DIV PUSH20 0xFFFFFFFFFFFFFFFFFFFFFFFFFFFFFFFFFFFFFFFF AND PUSH20 0xFFFFFFFFFFFFFFFFFFFFFFFFFFFFFFFFFFFFFFFF AND PUSH4 0x1D0E8E9A PUSH1 0x40 MLOAD DUP2 PUSH4 0xFFFFFFFF AND PUSH1 0xE0 SHL DUP2 MSTORE PUSH1 0x4 ADD PUSH1 0x20 PUSH1 0x40 MLOAD DUP1 DUP4 SUB DUP2 DUP7 DUP1 EXTCODESIZE ISZERO DUP1 ISZERO PUSH2 0x18E JUMPI PUSH1 0x0 DUP1 REVERT JUMPDEST POP GAS STATICCALL ISZERO DUP1 ISZERO PUSH2 0x1A2 JUMPI RETURNDATASIZE PUSH1 0x0 DUP1 RETURNDATACOPY RETURNDATASIZE PUSH1 0x0 REVERT JUMPDEST POP POP POP POP PUSH1 0x40 MLOAD RETURNDATASIZE PUSH1 0x20 DUP2 LT ISZERO PUSH2 0x1B8 JUMPI PUSH1 0x0 DUP1 REVERT JUMPDEST DUP2 ADD SWAP1 DUP1 DUP1 MLOAD SWAP1 PUSH1 0x20 ADD SWAP1 SWAP3 SWAP2 SWAP1 POP POP POP PUSH1 0x0 DUP1 PUSH2 0x100 EXP DUP2 SLOAD DUP2 PUSH20 0xFFFFFFFFFFFFFFFFFFFFFFFFFFFFFFFFFFFFFFFF MUL NOT AND SWAP1 DUP4 PUSH20 0xFFFFFFFFFFFFFFFFFFFFFFFFFFFFFFFFFFFFFFFF AND MUL OR SWAP1 SSTORE POP PUSH2 0x227 JUMP JUMPDEST PUSH2 0x1B2 DUP1 PUSH2 0x72D DUP4 CODECOPY ADD SWAP1 JUMP JUMPDEST PUSH2 0x61D DUP1 PUSH2 0x8DF DUP4 CODECOPY ADD SWAP1 JUMP JUMPDEST PUSH2 0x4F7 DUP1 PUSH2 0x236 PUSH1 0x0 CODECOPY PUSH1 0x0 RETURN INVALID PUSH1 0x80 PUSH1 0x40 MSTORE PUSH1 0x4 CALLDATASIZE LT PUSH2 0x55 JUMPI PUSH1 0x0 CALLDATALOAD PUSH1 0xE0 SHR DUP1 PUSH4 0x7C3BDD93 EQ PUSH2 0x5A JUMPI DUP1 PUSH4 0xA6337A08 EQ PUSH2 0x9B JUMPI DUP1 PUSH4 0xB145A5B8 EQ PUSH2 0xDC JUMPI DUP1 PUSH4 0xEFEDC669 EQ PUSH2 0x109 JUMPI DUP1 PUSH4 0xF8EF1085 EQ PUSH2 0x134 JUMPI DUP1 PUSH4 0xFA391C64 EQ PUSH2 0x13E JUMPI JUMPDEST PUSH1 0x0 DUP1 REVERT JUMPDEST CALLVALUE DUP1 ISZERO PUSH2 0x66 JUMPI PUSH1 0x0 DUP1 REVERT JUMPDEST POP PUSH2 0x6F PUSH2 0x155 JUMP JUMPDEST PUSH1 0x40 MLOAD DUP1 DUP3 PUSH20 0xFFFFFFFFFFFFFFFFFFFFFFFFFFFFFFFFFFFFFFFF AND DUP2 MSTORE PUSH1 0x20 ADD SWAP2 POP POP PUSH1 0x40 MLOAD DUP1 SWAP2 SUB SWAP1 RETURN JUMPDEST CALLVALUE DUP1 ISZERO PUSH2 0xA7 JUMPI PUSH1 0x0 DUP1 REVERT JUMPDEST POP PUSH2 0xB0 PUSH2 0x179 JUMP JUMPDEST PUSH1 0x40 MLOAD DUP1 DUP3 PUSH20 0xFFFFFFFFFFFFFFFFFFFFFFFFFFFFFFFFFFFFFFFF AND DUP2 MSTORE PUSH1 0x20 ADD SWAP2 POP POP PUSH1 0x40 MLOAD DUP1 SWAP2 SUB SWAP1 RETURN JUMPDEST CALLVALUE DUP1 ISZERO PUSH2 0xE8 JUMPI PUSH1 0x0 DUP1 REVERT JUMPDEST POP PUSH2 0xF1 PUSH2 0x19F JUMP JUMPDEST PUSH1 0x40 MLOAD DUP1 DUP3 ISZERO ISZERO DUP2 MSTORE PUSH1 0x20 ADD SWAP2 POP POP PUSH1 0x40 MLOAD DUP1 SWAP2 SUB SWAP1 RETURN JUMPDEST CALLVALUE DUP1 ISZERO PUSH2 0x115 JUMPI PUSH1 0x0 DUP1 REVERT JUMPDEST POP PUSH2 0x11E PUSH2 0x1B2 JUMP JUMPDEST PUSH1 0x40 MLOAD DUP1 DUP3 DUP2 MSTORE PUSH1 0x20 ADD SWAP2 POP POP PUSH1 0x40 MLOAD DUP1 SWAP2 SUB SWAP1 RETURN JUMPDEST PUSH2 0x13C PUSH2 0x1B8 JUMP JUMPDEST STOP JUMPDEST CALLVALUE DUP1 ISZERO PUSH2 0x14A JUMPI PUSH1 0x0 DUP1 REVERT JUMPDEST POP PUSH2 0x153 PUSH2 0x2EC JUMP JUMPDEST STOP JUMPDEST PUSH1 0x0 DUP1 SLOAD SWAP1 PUSH2 0x100 EXP SWAP1 DIV PUSH20 0xFFFFFFFFFFFFFFFFFFFFFFFFFFFFFFFFFFFFFFFF AND DUP2 JUMP JUMPDEST PUSH1 0x1 PUSH1 0x0 SWAP1 SLOAD SWAP1 PUSH2 0x100 EXP SWAP1 DIV PUSH20 0xFFFFFFFFFFFFFFFFFFFFFFFFFFFFFFFFFFFFFFFF AND DUP2 JUMP JUMPDEST PUSH1 0x4 PUSH1 0x0 SWAP1 SLOAD SWAP1 PUSH2 0x100 EXP SWAP1 DIV PUSH1 0xFF AND DUP2 JUMP JUMPDEST PUSH1 0x3 SLOAD DUP2 JUMP JUMPDEST PUSH1 0x4 PUSH1 0x0 SWAP1 SLOAD SWAP1 PUSH2 0x100 EXP SWAP1 DIV PUSH1 0xFF AND PUSH2 0x2EA JUMPI PUSH1 0x0 PUSH1 0x1 PUSH1 0x0 SWAP1 SLOAD SWAP1 PUSH2 0x100 EXP SWAP1 DIV PUSH20 0xFFFFFFFFFFFFFFFFFFFFFFFFFFFFFFFFFFFFFFFF AND PUSH20 0xFFFFFFFFFFFFFFFFFFFFFFFFFFFFFFFFFFFFFFFF AND PUSH3 0x186A0 PUSH1 0x40 MLOAD DUP1 PUSH1 0x0 ADD SWAP1 POP PUSH1 0x0 PUSH1 0x40 MLOAD DUP1 DUP4 SUB DUP2 DUP6 DUP8 GAS CALL SWAP3 POP POP POP RETURNDATASIZE DUP1 PUSH1 0x0 DUP2 EQ PUSH2 0x251 JUMPI PUSH1 0x40 MLOAD SWAP2 POP PUSH1 0x1F NOT PUSH1 0x3F RETURNDATASIZE ADD AND DUP3 ADD PUSH1 0x40 MSTORE RETURNDATASIZE DUP3 MSTORE RETURNDATASIZE PUSH1 0x0 PUSH1 0x20 DUP5 ADD RETURNDATACOPY PUSH2 0x256 JUMP JUMPDEST PUSH1 0x60 SWAP2 POP JUMPDEST POP POP SWAP1 POP DUP1 PUSH2 0x2CD JUMPI PUSH1 0x40 MLOAD PUSH32 0x8C379A000000000000000000000000000000000000000000000000000000000 DUP2 MSTORE PUSH1 0x4 ADD DUP1 DUP1 PUSH1 0x20 ADD DUP3 DUP2 SUB DUP3 MSTORE PUSH1 0x1B DUP2 MSTORE PUSH1 0x20 ADD DUP1 PUSH32 0x73686F756C6420696E6974207769746820313030303030207765690000000000 DUP2 MSTORE POP PUSH1 0x20 ADD SWAP2 POP POP PUSH1 0x40 MLOAD DUP1 SWAP2 SUB SWAP1 REVERT JUMPDEST PUSH1 0x1 PUSH1 0x4 PUSH1 0x0 PUSH2 0x100 EXP DUP2 SLOAD DUP2 PUSH1 0xFF MUL NOT AND SWAP1 DUP4 ISZERO ISZERO MUL OR SWAP1 SSTORE POP POP JUMPDEST JUMP JUMPDEST PUSH1 0x4 PUSH1 0x0 SWAP1 SLOAD SWAP1 PUSH2 0x100 EXP SWAP1 DIV PUSH1 0xFF AND PUSH2 0x36E JUMPI PUSH1 0x40 MLOAD PUSH32 0x8C379A000000000000000000000000000000000000000000000000000000000 DUP2 MSTORE PUSH1 0x4 ADD DUP1 DUP1 PUSH1 0x20 ADD DUP3 DUP2 SUB DUP3 MSTORE PUSH1 0x1C DUP2 MSTORE PUSH1 0x20 ADD DUP1 PUSH32 0x596F752063616E277420646F20697420776974686F757420696E697400000000 DUP2 MSTORE POP PUSH1 0x20 ADD SWAP2 POP POP PUSH1 0x40 MLOAD DUP1 SWAP2 SUB SWAP1 REVERT JUMPDEST PUSH1 0x0 PUSH1 0x3 DUP2 SWAP1 SSTORE POP PUSH1 0x0 DUP1 SLOAD SWAP1 PUSH2 0x100 EXP SWAP1 DIV PUSH20 0xFFFFFFFFFFFFFFFFFFFFFFFFFFFFFFFFFFFFFFFF AND PUSH20 0xFFFFFFFFFFFFFFFFFFFFFFFFFFFFFFFFFFFFFFFF AND PUSH1 0x2 PUSH1 0x0 SWAP1 SLOAD SWAP1 PUSH2 0x100 EXP SWAP1 DIV PUSH20 0xFFFFFFFFFFFFFFFFFFFFFFFFFFFFFFFFFFFFFFFF AND PUSH20 0xFFFFFFFFFFFFFFFFFFFFFFFFFFFFFFFFFFFFFFFF AND PUSH4 0x1D0E8E9A PUSH1 0x40 MLOAD DUP2 PUSH4 0xFFFFFFFF AND PUSH1 0xE0 SHL DUP2 MSTORE PUSH1 0x4 ADD PUSH1 0x20 PUSH1 0x40 MLOAD DUP1 DUP4 SUB DUP2 DUP7 DUP1 EXTCODESIZE ISZERO DUP1 ISZERO PUSH2 0x415 JUMPI PUSH1 0x0 DUP1 REVERT JUMPDEST POP GAS STATICCALL ISZERO DUP1 ISZERO PUSH2 0x429 JUMPI RETURNDATASIZE PUSH1 0x0 DUP1 RETURNDATACOPY RETURNDATASIZE PUSH1 0x0 REVERT JUMPDEST POP POP POP POP PUSH1 0x40 MLOAD RETURNDATASIZE PUSH1 0x20 DUP2 LT ISZERO PUSH2 0x43F JUMPI PUSH1 0x0 DUP1 REVERT JUMPDEST DUP2 ADD SWAP1 DUP1 DUP1 MLOAD SWAP1 PUSH1 0x20 ADD SWAP1 SWAP3 SWAP2 SWAP1 POP POP POP PUSH20 0xFFFFFFFFFFFFFFFFFFFFFFFFFFFFFFFFFFFFFFFF AND EQ PUSH2 0x4BF JUMPI PUSH1 0x1E PUSH1 0x3 DUP2 SWAP1 SSTORE POP PUSH1 0x0 PUSH1 0x1 PUSH1 0x0 SWAP1 SLOAD SWAP1 PUSH2 0x100 EXP SWAP1 DIV PUSH20 0xFFFFFFFFFFFFFFFFFFFFFFFFFFFFFFFFFFFFFFFF AND PUSH20 0xFFFFFFFFFFFFFFFFFFFFFFFFFFFFFFFFFFFFFFFF AND BALANCE EQ ISZERO PUSH2 0x4BE JUMPI PUSH1 0x64 PUSH1 0x3 DUP2 SWAP1 SSTORE POP JUMPDEST JUMPDEST JUMP INVALID LOG2 PUSH5 0x6970667358 0x22 SLT KECCAK256 0xC1 0xB6 0xDF 0xD5 0xC9 0x5D 0x5C 0xE7 DUP4 0xF6 DIV 0xCC 0xD4 SWAP9 CREATE2 SHL 0xBD SSTORE SWAP2 0xAC DUP1 SIGNEXTEND MOD 0xF6 DUP10 0xAB SWAP5 NOT 0xA7 SUB 0xED MLOAD PUSH5 0x736F6C6343 STOP MOD 0xC STOP CALLER PUSH1 0x80 PUSH1 0x40 MSTORE CALLVALUE DUP1 ISZERO PUSH2 0x10 JUMPI PUSH1 0x0 DUP1 REVERT JUMPDEST POP PUSH2 0x192 DUP1 PUSH2 0x20 PUSH1 0x0 CODECOPY PUSH1 0x0 RETURN INVALID PUSH1 0x80 PUSH1 0x40 MSTORE CALLVALUE DUP1 ISZERO PUSH2 0x10 JUMPI PUSH1 0x0 DUP1 REVERT JUMPDEST POP PUSH1 0x4 CALLDATASIZE LT PUSH2 0x4C JUMPI PUSH1 0x0 CALLDATALOAD PUSH1 0xE0 SHR DUP1 PUSH4 0xBBE1D75B EQ PUSH2 0x51 JUMPI DUP1 PUSH4 0xBE9A6555 EQ PUSH2 0x6F JUMPI DUP1 PUSH4 0xF6A03EBF EQ PUSH2 0x8D JUMPI DUP1 PUSH4 0xFE75FAAB EQ PUSH2 0xBB JUMPI JUMPDEST PUSH1 0x0 DUP1 REVERT JUMPDEST PUSH2 0x59 PUSH2 0xE9 JUMP JUMPDEST PUSH1 0x40 MLOAD DUP1 DUP3 DUP2 MSTORE PUSH1 0x20 ADD SWAP2 POP POP PUSH1 0x40 MLOAD DUP1 SWAP2 SUB SWAP1 RETURN JUMPDEST PUSH2 0x77 PUSH2 0xEF JUMP JUMPDEST PUSH1 0x40 MLOAD DUP1 DUP3 DUP2 MSTORE PUSH1 0x20 ADD SWAP2 POP POP PUSH1 0x40 MLOAD DUP1 SWAP2 SUB SWAP1 RETURN JUMPDEST PUSH2 0xB9 PUSH1 0x4 DUP1 CALLDATASIZE SUB PUSH1 0x20 DUP2 LT ISZERO PUSH2 0xA3 JUMPI PUSH1 0x0 DUP1 REVERT JUMPDEST DUP2 ADD SWAP1 DUP1 DUP1 CALLDATALOAD SWAP1 PUSH1 0x20 ADD SWAP1 SWAP3 SWAP2 SWAP1 POP POP POP PUSH2 0xF5 JUMP JUMPDEST STOP JUMPDEST PUSH2 0xE7 PUSH1 0x4 DUP1 CALLDATASIZE SUB PUSH1 0x20 DUP2 LT ISZERO PUSH2 0xD1 JUMPI PUSH1 0x0 DUP1 REVERT JUMPDEST DUP2 ADD SWAP1 DUP1 DUP1 CALLDATALOAD SWAP1 PUSH1 0x20 ADD SWAP1 SWAP3 SWAP2 SWAP1 POP POP POP PUSH2 0xFF JUMP JUMPDEST STOP JUMPDEST PUSH1 0x1 SLOAD DUP2 JUMP JUMPDEST PUSH1 0x0 SLOAD DUP2 JUMP JUMPDEST DUP1 PUSH1 0x0 DUP2 SWAP1 SSTORE POP POP JUMP JUMPDEST PUSH2 0x108 DUP2 PUSH2 0x111 JUMP JUMPDEST PUSH1 0x1 DUP2 SWAP1 SSTORE POP POP JUMP JUMPDEST PUSH1 0x0 DUP1 DUP3 EQ ISZERO PUSH2 0x125 JUMPI PUSH1 0x0 SLOAD SWAP1 POP PUSH2 0x157 JUMP JUMPDEST PUSH1 0x1 DUP3 EQ ISZERO PUSH2 0x13B JUMPI PUSH1 0x1 PUSH1 0x0 SLOAD ADD SWAP1 POP PUSH2 0x157 JUMP JUMPDEST PUSH2 0x147 PUSH1 0x2 DUP4 SUB PUSH2 0x111 JUMP JUMPDEST PUSH2 0x153 PUSH1 0x1 DUP5 SUB PUSH2 0x111 JUMP JUMPDEST ADD SWAP1 POP JUMPDEST SWAP2 SWAP1 POP JUMP INVALID LOG2 PUSH5 0x6970667358 0x22 SLT KECCAK256 PUSH19 0x6B317EB9C23BDDD0E1FD5C4519B679FF888BB6 0xAC 0xEA 0xCC 0x1F 0xB0 MSTORE 0x5C 0xAC 0xE6 0xE3 AND PUSH31 0x64736F6C634300060C00336080604052600360025560405161061D38038061 MOD SAR DUP4 CODECOPY DUP2 DUP2 ADD PUSH1 0x40 MSTORE PUSH1 0x20 DUP2 LT ISZERO PUSH2 0x2B JUMPI PUSH1 0x0 DUP1 REVERT JUMPDEST DUP2 ADD SWAP1 DUP1 DUP1 MLOAD SWAP1 PUSH1 0x20 ADD SWAP1 SWAP3 SWAP2 SWAP1 POP POP POP DUP1 PUSH1 0x0 DUP1 PUSH2 0x100 EXP DUP2 SLOAD DUP2 PUSH20 0xFFFFFFFFFFFFFFFFFFFFFFFFFFFFFFFFFFFFFFFF MUL NOT AND SWAP1 DUP4 PUSH20 0xFFFFFFFFFFFFFFFFFFFFFFFFFFFFFFFFFFFFFFFF AND MUL OR SWAP1 SSTORE POP POP PUSH2 0x591 DUP1 PUSH2 0x8C PUSH1 0x0 CODECOPY PUSH1 0x0 RETURN INVALID PUSH1 0x80 PUSH1 0x40 MSTORE PUSH1 0x4 CALLDATASIZE LT PUSH2 0x4E JUMPI PUSH1 0x0 CALLDATALOAD PUSH1 0xE0 SHR DUP1 PUSH4 0x1D0E8E9A EQ PUSH2 0x19E JUMPI DUP1 PUSH4 0x3CCFD60B EQ PUSH2 0x1DF JUMPI DUP1 PUSH4 0xBBE1D75B EQ PUSH2 0x1F6 JUMPI DUP1 PUSH4 0xBE9A6555 EQ PUSH2 0x221 JUMPI DUP1 PUSH4 0xCA881760 EQ PUSH2 0x24C JUMPI PUSH2 0x4F JUMP JUMPDEST JUMPDEST PUSH1 0x4 PUSH1 0x0 SWAP1 SLOAD SWAP1 PUSH2 0x100 EXP SWAP1 DIV PUSH1 0xFF AND ISZERO PUSH2 0x180 JUMPI PUSH1 0x0 CALLVALUE EQ PUSH2 0x71 JUMPI PUSH1 0x0 DUP1 REVERT JUMPDEST PUSH1 0x0 DUP1 PUSH1 0x0 SWAP1 SLOAD SWAP1 PUSH2 0x100 EXP SWAP1 DIV PUSH20 0xFFFFFFFFFFFFFFFFFFFFFFFFFFFFFFFFFFFFFFFF AND PUSH20 0xFFFFFFFFFFFFFFFFFFFFFFFFFFFFFFFFFFFFFFFF AND PUSH1 0x0 CALLDATASIZE PUSH1 0x40 MLOAD DUP1 DUP4 DUP4 DUP1 DUP3 DUP5 CALLDATACOPY DUP1 DUP4 ADD SWAP3 POP POP POP SWAP3 POP POP POP PUSH1 0x0 PUSH1 0x40 MLOAD DUP1 DUP4 SUB DUP2 DUP6 GAS DELEGATECALL SWAP2 POP POP RETURNDATASIZE DUP1 PUSH1 0x0 DUP2 EQ PUSH2 0xFE JUMPI PUSH1 0x40 MLOAD SWAP2 POP PUSH1 0x1F NOT PUSH1 0x3F RETURNDATASIZE ADD AND DUP3 ADD PUSH1 0x40 MSTORE RETURNDATASIZE DUP3 MSTORE RETURNDATASIZE PUSH1 0x0 PUSH1 0x20 DUP5 ADD RETURNDATACOPY PUSH2 0x103 JUMP JUMPDEST PUSH1 0x60 SWAP2 POP JUMPDEST POP POP SWAP1 POP DUP1 PUSH2 0x17A JUMPI PUSH1 0x40 MLOAD PUSH32 0x8C379A000000000000000000000000000000000000000000000000000000000 DUP2 MSTORE PUSH1 0x4 ADD DUP1 DUP1 PUSH1 0x20 ADD DUP3 DUP2 SUB DUP3 MSTORE PUSH1 0x11 DUP2 MSTORE PUSH1 0x20 ADD DUP1 PUSH32 0x64656C656761746563616C6C2046616C6C000000000000000000000000000000 DUP2 MSTORE POP PUSH1 0x20 ADD SWAP2 POP POP PUSH1 0x40 MLOAD DUP1 SWAP2 SUB SWAP1 REVERT JUMPDEST POP PUSH2 0x19C JUMP JUMPDEST PUSH1 0x1 PUSH1 0x4 PUSH1 0x0 PUSH2 0x100 EXP DUP2 SLOAD DUP2 PUSH1 0xFF MUL NOT AND SWAP1 DUP4 ISZERO ISZERO MUL OR SWAP1 SSTORE POP JUMPDEST STOP JUMPDEST CALLVALUE DUP1 ISZERO PUSH2 0x1AA JUMPI PUSH1 0x0 DUP1 REVERT JUMPDEST POP PUSH2 0x1B3 PUSH2 0x277 JUMP JUMPDEST PUSH1 0x40 MLOAD DUP1 DUP3 PUSH20 0xFFFFFFFFFFFFFFFFFFFFFFFFFFFFFFFFFFFFFFFF AND DUP2 MSTORE PUSH1 0x20 ADD SWAP2 POP POP PUSH1 0x40 MLOAD DUP1 SWAP2 SUB SWAP1 RETURN JUMPDEST CALLVALUE DUP1 ISZERO PUSH2 0x1EB JUMPI PUSH1 0x0 DUP1 REVERT JUMPDEST POP PUSH2 0x1F4 PUSH2 0x29B JUMP JUMPDEST STOP JUMPDEST CALLVALUE DUP1 ISZERO PUSH2 0x202 JUMPI PUSH1 0x0 DUP1 REVERT JUMPDEST POP PUSH2 0x20B PUSH2 0x549 JUMP JUMPDEST PUSH1 0x40 MLOAD DUP1 DUP3 DUP2 MSTORE PUSH1 0x20 ADD SWAP2 POP POP PUSH1 0x40 MLOAD DUP1 SWAP2 SUB SWAP1 RETURN JUMPDEST CALLVALUE DUP1 ISZERO PUSH2 0x22D JUMPI PUSH1 0x0 DUP1 REVERT JUMPDEST POP PUSH2 0x236 PUSH2 0x54F JUMP JUMPDEST PUSH1 0x40 MLOAD DUP1 DUP3 DUP2 MSTORE PUSH1 0x20 ADD SWAP2 POP POP PUSH1 0x40 MLOAD DUP1 SWAP2 SUB SWAP1 RETURN JUMPDEST CALLVALUE DUP1 ISZERO PUSH2 0x258 JUMPI PUSH1 0x0 DUP1 REVERT JUMPDEST POP PUSH2 0x261 PUSH2 0x555 JUMP JUMPDEST PUSH1 0x40 MLOAD DUP1 DUP3 DUP2 MSTORE PUSH1 0x20 ADD SWAP2 POP POP PUSH1 0x40 MLOAD DUP1 SWAP2 SUB SWAP1 RETURN JUMPDEST PUSH1 0x0 DUP1 SLOAD SWAP1 PUSH2 0x100 EXP SWAP1 DIV PUSH20 0xFFFFFFFFFFFFFFFFFFFFFFFFFFFFFFFFFFFFFFFF AND DUP2 JUMP JUMPDEST PUSH1 0x1 PUSH1 0x3 PUSH1 0x0 DUP3 DUP3 SLOAD ADD SWAP3 POP POP DUP2 SWAP1 SSTORE POP PUSH1 0x0 DUP1 PUSH1 0x0 SWAP1 SLOAD SWAP1 PUSH2 0x100 EXP SWAP1 DIV PUSH20 0xFFFFFFFFFFFFFFFFFFFFFFFFFFFFFFFFFFFFFFFF AND PUSH20 0xFFFFFFFFFFFFFFFFFFFFFFFFFFFFFFFFFFFFFFFF AND PUSH1 0x40 MLOAD DUP1 PUSH1 0x40 ADD PUSH1 0x40 MSTORE DUP1 PUSH1 0x15 DUP2 MSTORE PUSH1 0x20 ADD PUSH32 0x7365744669626F6E616363692875696E74323536290000000000000000000000 DUP2 MSTORE POP PUSH1 0x3 SLOAD PUSH1 0x40 MLOAD PUSH1 0x24 ADD DUP1 DUP3 DUP2 MSTORE PUSH1 0x20 ADD SWAP2 POP POP PUSH1 0x40 MLOAD PUSH1 0x20 DUP2 DUP4 SUB SUB DUP2 MSTORE SWAP1 PUSH1 0x40 MSTORE SWAP1 PUSH1 0x40 MLOAD DUP1 DUP3 DUP1 MLOAD SWAP1 PUSH1 0x20 ADD SWAP1 DUP1 DUP4 DUP4 JUMPDEST PUSH1 0x20 DUP4 LT PUSH2 0x372 JUMPI DUP1 MLOAD DUP3 MSTORE PUSH1 0x20 DUP3 ADD SWAP2 POP PUSH1 0x20 DUP2 ADD SWAP1 POP PUSH1 0x20 DUP4 SUB SWAP3 POP PUSH2 0x34F JUMP JUMPDEST PUSH1 0x1 DUP4 PUSH1 0x20 SUB PUSH2 0x100 EXP SUB DUP1 NOT DUP3 MLOAD AND DUP2 DUP5 MLOAD AND DUP1 DUP3 OR DUP6 MSTORE POP POP POP POP POP POP SWAP1 POP ADD SWAP2 POP POP PUSH1 0x40 MLOAD DUP1 SWAP2 SUB SWAP1 KECCAK256 PUSH28 0xFFFFFFFFFFFFFFFFFFFFFFFFFFFFFFFFFFFFFFFFFFFFFFFFFFFFFFFF NOT AND PUSH1 0x20 DUP3 ADD DUP1 MLOAD PUSH28 0xFFFFFFFFFFFFFFFFFFFFFFFFFFFFFFFFFFFFFFFFFFFFFFFFFFFFFFFF DUP4 DUP2 DUP4 AND OR DUP4 MSTORE POP POP POP POP PUSH1 0x40 MLOAD DUP1 DUP3 DUP1 MLOAD SWAP1 PUSH1 0x20 ADD SWAP1 DUP1 DUP4 DUP4 JUMPDEST PUSH1 0x20 DUP4 LT PUSH2 0x41F JUMPI DUP1 MLOAD DUP3 MSTORE PUSH1 0x20 DUP3 ADD SWAP2 POP PUSH1 0x20 DUP2 ADD SWAP1 POP PUSH1 0x20 DUP4 SUB SWAP3 POP PUSH2 0x3FC JUMP JUMPDEST PUSH1 0x1 DUP4 PUSH1 0x20 SUB PUSH2 0x100 EXP SUB DUP1 NOT DUP3 MLOAD AND DUP2 DUP5 MLOAD AND DUP1 DUP3 OR DUP6 MSTORE POP POP POP POP POP POP SWAP1 POP ADD SWAP2 POP POP PUSH1 0x0 PUSH1 0x40 MLOAD DUP1 DUP4 SUB DUP2 DUP6 GAS DELEGATECALL SWAP2 POP POP RETURNDATASIZE DUP1 PUSH1 0x0 DUP2 EQ PUSH2 0x47F JUMPI PUSH1 0x40 MLOAD SWAP2 POP PUSH1 0x1F NOT PUSH1 0x3F RETURNDATASIZE ADD AND DUP3 ADD PUSH1 0x40 MSTORE RETURNDATASIZE DUP3 MSTORE RETURNDATASIZE PUSH1 0x0 PUSH1 0x20 DUP5 ADD RETURNDATACOPY PUSH2 0x484 JUMP JUMPDEST PUSH1 0x60 SWAP2 POP JUMPDEST POP POP SWAP1 POP DUP1 PUSH2 0x4FB JUMPI PUSH1 0x40 MLOAD PUSH32 0x8C379A000000000000000000000000000000000000000000000000000000000 DUP2 MSTORE PUSH1 0x4 ADD DUP1 DUP1 PUSH1 0x20 ADD DUP3 DUP2 SUB DUP3 MSTORE PUSH1 0x11 DUP2 MSTORE PUSH1 0x20 ADD DUP1 PUSH32 0x64656C656761746563616C6C2046616C6C000000000000000000000000000000 DUP2 MSTORE POP PUSH1 0x20 ADD SWAP2 POP POP PUSH1 0x40 MLOAD DUP1 SWAP2 SUB SWAP1 REVERT JUMPDEST CALLER PUSH20 0xFFFFFFFFFFFFFFFFFFFFFFFFFFFFFFFFFFFFFFFF AND PUSH2 0x8FC PUSH1 0x1 DUP1 SLOAD MUL SWAP1 DUP2 ISZERO MUL SWAP1 PUSH1 0x40 MLOAD PUSH1 0x0 PUSH1 0x40 MLOAD DUP1 DUP4 SUB DUP2 DUP6 DUP9 DUP9 CALL SWAP4 POP POP POP POP ISZERO DUP1 ISZERO PUSH2 0x545 JUMPI RETURNDATASIZE PUSH1 0x0 DUP1 RETURNDATACOPY RETURNDATASIZE PUSH1 0x0 REVERT JUMPDEST POP POP JUMP JUMPDEST PUSH1 0x1 SLOAD DUP2 JUMP JUMPDEST PUSH1 0x2 SLOAD DUP2 JUMP JUMPDEST PUSH1 0x3 SLOAD DUP2 JUMP INVALID LOG2 PUSH5 0x6970667358 0x22 SLT KECCAK256 0xEF NUMBER 0x1F DUP11 0x5E PUSH1 0x2C 0x21 SAR SWAP14 0x25 COINBASE 0x21 DUP4 PUSH4 0x46978AA9 SUB PUSH23 0xDE1B0967BB722ECF554BFB64736F6C634300060C003300 "
		},
		"gasEstimates": {
			"creation": {
				"codeDepositCost": "254200",
				"executionCost": "infinite",
				"totalCost": "infinite"
			},
			"external": {
				"fibonacciBalance()": "1047",
				"fibonacciLib()": "1022",
				"initWithValue()": "infinite",
				"isCompleted()": "infinite",
				"isInit()": "1069",
				"score()": "1049"
			}
		},
		"methodIdentifiers": {
			"fibonacciBalance()": "a6337a08",
			"fibonacciLib()": "7c3bdd93",
			"initWithValue()": "f8ef1085",
			"isCompleted()": "fa391c64",
			"isInit()": "b145a5b8",
			"score()": "efedc669"
		}
	},
	"abi": [
		{
			"inputs": [],
			"stateMutability": "nonpayable",
			"type": "constructor"
		},
		{
			"inputs": [],
			"name": "fibonacciBalance",
			"outputs": [
				{
					"internalType": "address",
					"name": "",
					"type": "address"
				}
			],
			"stateMutability": "view",
			"type": "function"
		},
		{
			"inputs": [],
			"name": "fibonacciLib",
			"outputs": [
				{
					"internalType": "address",
					"name": "",
					"type": "address"
				}
			],
			"stateMutability": "view",
			"type": "function"
		},
		{
			"inputs": [],
			"name": "initWithValue",
			"outputs": [],
			"stateMutability": "payable",
			"type": "function"
		},
		{
			"inputs": [],
			"name": "isCompleted",
			"outputs": [],
			"stateMutability": "nonpayable",
			"type": "function"
		},
		{
			"inputs": [],
			"name": "isInit",
			"outputs": [
				{
					"internalType": "bool",
					"name": "",
					"type": "bool"
				}
			],
			"stateMutability": "view",
			"type": "function"
		},
		{
			"inputs": [],
			"name": "score",
			"outputs": [
				{
					"internalType": "uint256",
					"name": "",
					"type": "uint256"
				}
			],
			"stateMutability": "view",
			"type": "function"
		}
	]
}