{
	"shoot/摸底2/2/2.sol": {
		"check": {
			"abi": [
				{
					"stateMutability": "payable",
					"type": "fallback"
				},
				{
					"inputs": [],
					"name": "airdrop",
					"outputs": [],
					"stateMutability": "nonpayable",
					"type": "function"
				},
				{
					"inputs": [],
					"name": "airdroped",
					"outputs": [
						{
							"internalType": "bool",
							"name": "",
							"type": "bool"
						}
					],
					"stateMutability": "view",
					"type": "function"
				},
				{
					"inputs": [
						{
							"internalType": "uint256",
							"name": "amount",
							"type": "uint256"
						}
					],
					"name": "depositTokens",
					"outputs": [],
					"stateMutability": "nonpayable",
					"type": "function"
				},
				{
					"inputs": [
						{
							"internalType": "uint256",
							"name": "borrowAmount",
							"type": "uint256"
						}
					],
					"name": "flashLoan",
					"outputs": [],
					"stateMutability": "nonpayable",
					"type": "function"
				},
				{
					"inputs": [],
					"name": "isCompleted",
					"outputs": [],
					"stateMutability": "nonpayable",
					"type": "function"
				},
				{
					"inputs": [],
					"name": "poolBalance",
					"outputs": [
						{
							"internalType": "uint256",
							"name": "",
							"type": "uint256"
						}
					],
					"stateMutability": "view",
					"type": "function"
				},
				{
					"inputs": [],
					"name": "score",
					"outputs": [
						{
							"internalType": "uint256",
							"name": "",
							"type": "uint256"
						}
					],
					"stateMutability": "view",
					"type": "function"
				},
				{
					"inputs": [],
					"name": "token",
					"outputs": [
						{
							"internalType": "contract ERC20",
							"name": "",
							"type": "address"
						}
					],
					"stateMutability": "view",
					"type": "function"
				}
			],
			"devdoc": {
				"kind": "dev",
				"methods": {},
				"version": 1
			},
			"evm": {
				"assembly": "    /* \"shoot/\\xe6\\x91\\xb8\\xe5\\xba\\x952/2/2.sol\":4766:5154  contract check is dosstop {... */\n  mstore(0x40, 0x80)\n    /* \"shoot/\\xe6\\x91\\xb8\\xe5\\xba\\x952/2/2.sol\":3198:3209  new ERC20() */\n  mload(0x40)\n  tag_1\n  swap1\n  tag_2\n  jump\t// in\ntag_1:\n  mload(0x40)\n  dup1\n  swap2\n  sub\n  swap1\n  0x00\n  create\n  dup1\n  iszero\n  dup1\n  iszero\n  tag_3\n  jumpi\n  returndatasize\n  0x00\n  dup1\n  returndatacopy\n  revert(0x00, returndatasize)\ntag_3:\n  pop\n    /* \"shoot/\\xe6\\x91\\xb8\\xe5\\xba\\x952/2/2.sol\":3177:3209  ERC20 public token = new ERC20() */\n  0x01\n  exp(0x0100, 0x00)\n  dup2\n  sload\n  dup2\n  0xffffffffffffffffffffffffffffffffffffffff\n  mul\n  not\n  and\n  swap1\n  dup4\n  0xffffffffffffffffffffffffffffffffffffffff\n  and\n  mul\n  or\n  swap1\n  sstore\n  pop\n    /* \"shoot/\\xe6\\x91\\xb8\\xe5\\xba\\x952/2/2.sol\":3245:3255  1000 ether */\n  0x3635c9adc5dea00000\n    /* \"shoot/\\xe6\\x91\\xb8\\xe5\\xba\\x952/2/2.sol\":3216:3255  uint256 public poolBalance = 1000 ether */\n  0x02\n  sstore\n    /* \"shoot/\\xe6\\x91\\xb8\\xe5\\xba\\x952/2/2.sol\":4766:5154  contract check is dosstop {... */\n  callvalue\n  dup1\n  iszero\n  tag_4\n  jumpi\n  0x00\n  dup1\n  revert\ntag_4:\n  pop\n    /* \"@openzeppelin/contracts/security/ReentrancyGuard.sol\":1716:1717  1 */\n  0x01\n    /* \"@openzeppelin/contracts/security/ReentrancyGuard.sol\":1821:1828  _status */\n  0x00\n    /* \"@openzeppelin/contracts/security/ReentrancyGuard.sol\":1821:1843  _status = _NOT_ENTERED */\n  dup2\n  swap1\n  sstore\n  pop\n    /* \"shoot/\\xe6\\x91\\xb8\\xe5\\xba\\x952/2/2.sol\":4766:5154  contract check is dosstop {... */\n  jump(tag_7)\ntag_2:\n  dataSize(sub_1)\n  dup1\n  dataOffset(sub_1)\n  dup4\n  codecopy\n  add\n  swap1\n  jump\t// out\ntag_7:\n  dataSize(sub_0)\n  dup1\n  dataOffset(sub_0)\n  0x00\n  codecopy\n  0x00\n  return\nstop\n\nsub_0: assembly {\n        /* \"shoot/\\xe6\\x91\\xb8\\xe5\\xba\\x952/2/2.sol\":4766:5154  contract check is dosstop {... */\n      mstore(0x40, 0x80)\n      jumpi(tag_1, lt(calldatasize, 0x04))\n      shr(0xe0, calldataload(0x00))\n      dup1\n      0xdd49756e\n      gt\n      tag_11\n      jumpi\n      dup1\n      0xdd49756e\n      eq\n      tag_7\n      jumpi\n      dup1\n      0xefedc669\n      eq\n      tag_8\n      jumpi\n      dup1\n      0xfa391c64\n      eq\n      tag_9\n      jumpi\n      dup1\n      0xfc0c546a\n      eq\n      tag_10\n      jumpi\n      jump(tag_2)\n    tag_11:\n      dup1\n      0x3884d635\n      eq\n      tag_3\n      jumpi\n      dup1\n      0x96365d44\n      eq\n      tag_4\n      jumpi\n      dup1\n      0x9ab603b9\n      eq\n      tag_5\n      jumpi\n      dup1\n      0xd1ae3e9c\n      eq\n      tag_6\n      jumpi\n      jump(tag_2)\n    tag_1:\n    tag_2:\n      stop\n        /* \"shoot/\\xe6\\x91\\xb8\\xe5\\xba\\x952/2/2.sol\":3545:3715  function airdrop() public {... */\n    tag_3:\n      callvalue\n      dup1\n      iszero\n      tag_14\n      jumpi\n      0x00\n      dup1\n      revert\n    tag_14:\n      pop\n      tag_15\n      tag_16\n      jump\t// in\n    tag_15:\n      stop\n        /* \"shoot/\\xe6\\x91\\xb8\\xe5\\xba\\x952/2/2.sol\":3216:3255  uint256 public poolBalance = 1000 ether */\n    tag_4:\n      callvalue\n      dup1\n      iszero\n      tag_17\n      jumpi\n      0x00\n      dup1\n      revert\n    tag_17:\n      pop\n      tag_18\n      tag_19\n      jump\t// in\n    tag_18:\n      mload(0x40)\n      tag_20\n      swap2\n      swap1\n      tag_21\n      jump\t// in\n    tag_20:\n      mload(0x40)\n      dup1\n      swap2\n      sub\n      swap1\n      return\n        /* \"shoot/\\xe6\\x91\\xb8\\xe5\\xba\\x952/2/2.sol\":3723:4305  function flashLoan(uint256 borrowAmount) external nonReentrant {... */\n    tag_5:\n      callvalue\n      dup1\n      iszero\n      tag_22\n      jumpi\n      0x00\n      dup1\n      revert\n    tag_22:\n      pop\n      tag_23\n      0x04\n      dup1\n      calldatasize\n      sub\n      dup2\n      add\n      swap1\n      tag_24\n      swap2\n      swap1\n      tag_25\n      jump\t// in\n    tag_24:\n      tag_26\n      jump\t// in\n    tag_23:\n      stop\n        /* \"shoot/\\xe6\\x91\\xb8\\xe5\\xba\\x952/2/2.sol\":3262:3283  bool public airdroped */\n    tag_6:\n      callvalue\n      dup1\n      iszero\n      tag_27\n      jumpi\n      0x00\n      dup1\n      revert\n    tag_27:\n      pop\n      tag_28\n      tag_29\n      jump\t// in\n    tag_28:\n      mload(0x40)\n      tag_30\n      swap2\n      swap1\n      tag_31\n      jump\t// in\n    tag_30:\n      mload(0x40)\n      dup1\n      swap2\n      sub\n      swap1\n      return\n        /* \"shoot/\\xe6\\x91\\xb8\\xe5\\xba\\x952/2/2.sol\":3292:3537  function depositTokens(uint256 amount) external nonReentrant {... */\n    tag_7:\n      callvalue\n      dup1\n      iszero\n      tag_32\n      jumpi\n      0x00\n      dup1\n      revert\n    tag_32:\n      pop\n      tag_33\n      0x04\n      dup1\n      calldatasize\n      sub\n      dup2\n      add\n      swap1\n      tag_34\n      swap2\n      swap1\n      tag_25\n      jump\t// in\n    tag_34:\n      tag_35\n      jump\t// in\n    tag_33:\n      stop\n        /* \"shoot/\\xe6\\x91\\xb8\\xe5\\xba\\x952/2/2.sol\":4799:4819  uint256 public score */\n    tag_8:\n      callvalue\n      dup1\n      iszero\n      tag_36\n      jumpi\n      0x00\n      dup1\n      revert\n    tag_36:\n      pop\n      tag_37\n      tag_38\n      jump\t// in\n    tag_37:\n      mload(0x40)\n      tag_39\n      swap2\n      swap1\n      tag_21\n      jump\t// in\n    tag_39:\n      mload(0x40)\n      dup1\n      swap2\n      sub\n      swap1\n      return\n        /* \"shoot/\\xe6\\x91\\xb8\\xe5\\xba\\x952/2/2.sol\":4832:5151  function isCompleted() public {... */\n    tag_9:\n      callvalue\n      dup1\n      iszero\n      tag_40\n      jumpi\n      0x00\n      dup1\n      revert\n    tag_40:\n      pop\n      tag_41\n      tag_42\n      jump\t// in\n    tag_41:\n      stop\n        /* \"shoot/\\xe6\\x91\\xb8\\xe5\\xba\\x952/2/2.sol\":3177:3209  ERC20 public token = new ERC20() */\n    tag_10:\n      callvalue\n      dup1\n      iszero\n      tag_43\n      jumpi\n      0x00\n      dup1\n      revert\n    tag_43:\n      pop\n      tag_44\n      tag_45\n      jump\t// in\n    tag_44:\n      mload(0x40)\n      tag_46\n      swap2\n      swap1\n      tag_47\n      jump\t// in\n    tag_46:\n      mload(0x40)\n      dup1\n      swap2\n      sub\n      swap1\n      return\n        /* \"shoot/\\xe6\\x91\\xb8\\xe5\\xba\\x952/2/2.sol\":3545:3715  function airdrop() public {... */\n    tag_16:\n        /* \"shoot/\\xe6\\x91\\xb8\\xe5\\xba\\x952/2/2.sol\":3591:3600  airdroped */\n      0x03\n      0x00\n      swap1\n      sload\n      swap1\n      0x0100\n      exp\n      swap1\n      div\n      0xff\n      and\n        /* \"shoot/\\xe6\\x91\\xb8\\xe5\\xba\\x952/2/2.sol\":3590:3600  !airdroped */\n      iszero\n        /* \"shoot/\\xe6\\x91\\xb8\\xe5\\xba\\x952/2/2.sol\":3582:3601  require(!airdroped) */\n      tag_49\n      jumpi\n      0x00\n      dup1\n      revert\n    tag_49:\n        /* \"shoot/\\xe6\\x91\\xb8\\xe5\\xba\\x952/2/2.sol\":3624:3628  true */\n      0x01\n        /* \"shoot/\\xe6\\x91\\xb8\\xe5\\xba\\x952/2/2.sol\":3612:3621  airdroped */\n      0x03\n      0x00\n        /* \"shoot/\\xe6\\x91\\xb8\\xe5\\xba\\x952/2/2.sol\":3612:3628  airdroped = true */\n      0x0100\n      exp\n      dup2\n      sload\n      dup2\n      0xff\n      mul\n      not\n      and\n      swap1\n      dup4\n      iszero\n      iszero\n      mul\n      or\n      swap1\n      sstore\n      pop\n        /* \"shoot/\\xe6\\x91\\xb8\\xe5\\xba\\x952/2/2.sol\":3654:3661  1 ether */\n      0x0de0b6b3a7640000\n        /* \"shoot/\\xe6\\x91\\xb8\\xe5\\xba\\x952/2/2.sol\":3639:3650  poolBalance */\n      0x02\n      0x00\n        /* \"shoot/\\xe6\\x91\\xb8\\xe5\\xba\\x952/2/2.sol\":3639:3661  poolBalance -= 1 ether */\n      dup3\n      dup3\n      sload\n      tag_50\n      swap2\n      swap1\n      tag_51\n      jump\t// in\n    tag_50:\n      swap3\n      pop\n      pop\n      dup2\n      swap1\n      sstore\n      pop\n        /* \"shoot/\\xe6\\x91\\xb8\\xe5\\xba\\x952/2/2.sol\":3672:3677  token */\n      0x01\n      0x00\n      swap1\n      sload\n      swap1\n      0x0100\n      exp\n      swap1\n      div\n      0xffffffffffffffffffffffffffffffffffffffff\n      and\n        /* \"shoot/\\xe6\\x91\\xb8\\xe5\\xba\\x952/2/2.sol\":3672:3686  token.transfer */\n      0xffffffffffffffffffffffffffffffffffffffff\n      and\n      0xa9059cbb\n        /* \"shoot/\\xe6\\x91\\xb8\\xe5\\xba\\x952/2/2.sol\":3687:3697  msg.sender */\n      caller\n        /* \"shoot/\\xe6\\x91\\xb8\\xe5\\xba\\x952/2/2.sol\":3699:3706  1 ether */\n      0x0de0b6b3a7640000\n        /* \"shoot/\\xe6\\x91\\xb8\\xe5\\xba\\x952/2/2.sol\":3672:3707  token.transfer(msg.sender, 1 ether) */\n      mload(0x40)\n      dup4\n      0xffffffff\n      and\n      0xe0\n      shl\n      dup2\n      mstore\n      0x04\n      add\n      tag_52\n      swap3\n      swap2\n      swap1\n      tag_53\n      jump\t// in\n    tag_52:\n      0x20\n      mload(0x40)\n      dup1\n      dup4\n      sub\n      dup2\n      0x00\n      dup8\n      gas\n      call\n      iszero\n      dup1\n      iszero\n      tag_55\n      jumpi\n      returndatasize\n      0x00\n      dup1\n      returndatacopy\n      revert(0x00, returndatasize)\n    tag_55:\n      pop\n      pop\n      pop\n      pop\n      mload(0x40)\n      returndatasize\n      not(0x1f)\n      0x1f\n      dup3\n      add\n      and\n      dup3\n      add\n      dup1\n      0x40\n      mstore\n      pop\n      dup2\n      add\n      swap1\n      tag_56\n      swap2\n      swap1\n      tag_57\n      jump\t// in\n    tag_56:\n      pop\n        /* \"shoot/\\xe6\\x91\\xb8\\xe5\\xba\\x952/2/2.sol\":3545:3715  function airdrop() public {... */\n      jump\t// out\n        /* \"shoot/\\xe6\\x91\\xb8\\xe5\\xba\\x952/2/2.sol\":3216:3255  uint256 public poolBalance = 1000 ether */\n    tag_19:\n      sload(0x02)\n      dup2\n      jump\t// out\n        /* \"shoot/\\xe6\\x91\\xb8\\xe5\\xba\\x952/2/2.sol\":3723:4305  function flashLoan(uint256 borrowAmount) external nonReentrant {... */\n    tag_26:\n        /* \"@openzeppelin/contracts/security/ReentrancyGuard.sol\":2261:2282  _nonReentrantBefore() */\n      tag_59\n        /* \"@openzeppelin/contracts/security/ReentrancyGuard.sol\":2261:2280  _nonReentrantBefore */\n      tag_60\n        /* \"@openzeppelin/contracts/security/ReentrancyGuard.sol\":2261:2282  _nonReentrantBefore() */\n      jump\t// in\n    tag_59:\n        /* \"shoot/\\xe6\\x91\\xb8\\xe5\\xba\\x952/2/2.sol\":3797:3818  uint256 balanceBefore */\n      0x00\n        /* \"shoot/\\xe6\\x91\\xb8\\xe5\\xba\\x952/2/2.sol\":3821:3826  token */\n      0x01\n      0x00\n      swap1\n      sload\n      swap1\n      0x0100\n      exp\n      swap1\n      div\n      0xffffffffffffffffffffffffffffffffffffffff\n      and\n        /* \"shoot/\\xe6\\x91\\xb8\\xe5\\xba\\x952/2/2.sol\":3821:3836  token.balanceOf */\n      0xffffffffffffffffffffffffffffffffffffffff\n      and\n      0x70a08231\n        /* \"shoot/\\xe6\\x91\\xb8\\xe5\\xba\\x952/2/2.sol\":3845:3849  this */\n      address\n        /* \"shoot/\\xe6\\x91\\xb8\\xe5\\xba\\x952/2/2.sol\":3821:3851  token.balanceOf(address(this)) */\n      mload(0x40)\n      dup3\n      0xffffffff\n      and\n      0xe0\n      shl\n      dup2\n      mstore\n      0x04\n      add\n      tag_62\n      swap2\n      swap1\n      tag_63\n      jump\t// in\n    tag_62:\n      0x20\n      mload(0x40)\n      dup1\n      dup4\n      sub\n      dup2\n      dup7\n      gas\n      staticcall\n      iszero\n      dup1\n      iszero\n      tag_65\n      jumpi\n      returndatasize\n      0x00\n      dup1\n      returndatacopy\n      revert(0x00, returndatasize)\n    tag_65:\n      pop\n      pop\n      pop\n      pop\n      mload(0x40)\n      returndatasize\n      not(0x1f)\n      0x1f\n      dup3\n      add\n      and\n      dup3\n      add\n      dup1\n      0x40\n      mstore\n      pop\n      dup2\n      add\n      swap1\n      tag_66\n      swap2\n      swap1\n      tag_67\n      jump\t// in\n    tag_66:\n        /* \"shoot/\\xe6\\x91\\xb8\\xe5\\xba\\x952/2/2.sol\":3797:3851  uint256 balanceBefore = token.balanceOf(address(this)) */\n      swap1\n      pop\n        /* \"shoot/\\xe6\\x91\\xb8\\xe5\\xba\\x952/2/2.sol\":3887:3899  borrowAmount */\n      dup2\n        /* \"shoot/\\xe6\\x91\\xb8\\xe5\\xba\\x952/2/2.sol\":3870:3883  balanceBefore */\n      dup2\n        /* \"shoot/\\xe6\\x91\\xb8\\xe5\\xba\\x952/2/2.sol\":3870:3899  balanceBefore >= borrowAmount */\n      lt\n      iszero\n        /* \"shoot/\\xe6\\x91\\xb8\\xe5\\xba\\x952/2/2.sol\":3862:3929  require(balanceBefore >= borrowAmount, \"Not enough tokens in pool\") */\n      tag_68\n      jumpi\n      mload(0x40)\n      0x08c379a000000000000000000000000000000000000000000000000000000000\n      dup2\n      mstore\n      0x04\n      add\n      tag_69\n      swap1\n      tag_70\n      jump\t// in\n    tag_69:\n      mload(0x40)\n      dup1\n      swap2\n      sub\n      swap1\n      revert\n    tag_68:\n        /* \"shoot/\\xe6\\x91\\xb8\\xe5\\xba\\x952/2/2.sol\":3964:3977  balanceBefore */\n      dup1\n        /* \"shoot/\\xe6\\x91\\xb8\\xe5\\xba\\x952/2/2.sol\":3949:3960  poolBalance */\n      sload(0x02)\n        /* \"shoot/\\xe6\\x91\\xb8\\xe5\\xba\\x952/2/2.sol\":3949:3977  poolBalance == balanceBefore */\n      eq\n        /* \"shoot/\\xe6\\x91\\xb8\\xe5\\xba\\x952/2/2.sol\":3942:3978  assert(poolBalance == balanceBefore) */\n      tag_71\n      jumpi\n      tag_72\n      tag_73\n      jump\t// in\n    tag_72:\n    tag_71:\n        /* \"shoot/\\xe6\\x91\\xb8\\xe5\\xba\\x952/2/2.sol\":3991:3996  token */\n      0x01\n      0x00\n      swap1\n      sload\n      swap1\n      0x0100\n      exp\n      swap1\n      div\n      0xffffffffffffffffffffffffffffffffffffffff\n      and\n        /* \"shoot/\\xe6\\x91\\xb8\\xe5\\xba\\x952/2/2.sol\":3991:4005  token.transfer */\n      0xffffffffffffffffffffffffffffffffffffffff\n      and\n      0xa9059cbb\n        /* \"shoot/\\xe6\\x91\\xb8\\xe5\\xba\\x952/2/2.sol\":4006:4016  msg.sender */\n      caller\n        /* \"shoot/\\xe6\\x91\\xb8\\xe5\\xba\\x952/2/2.sol\":4018:4030  borrowAmount */\n      dup5\n        /* \"shoot/\\xe6\\x91\\xb8\\xe5\\xba\\x952/2/2.sol\":3991:4031  token.transfer(msg.sender, borrowAmount) */\n      mload(0x40)\n      dup4\n      0xffffffff\n      and\n      0xe0\n      shl\n      dup2\n      mstore\n      0x04\n      add\n      tag_74\n      swap3\n      swap2\n      swap1\n      tag_75\n      jump\t// in\n    tag_74:\n      0x20\n      mload(0x40)\n      dup1\n      dup4\n      sub\n      dup2\n      0x00\n      dup8\n      gas\n      call\n      iszero\n      dup1\n      iszero\n      tag_77\n      jumpi\n      returndatasize\n      0x00\n      dup1\n      returndatacopy\n      revert(0x00, returndatasize)\n    tag_77:\n      pop\n      pop\n      pop\n      pop\n      mload(0x40)\n      returndatasize\n      not(0x1f)\n      0x1f\n      dup3\n      add\n      and\n      dup3\n      add\n      dup1\n      0x40\n      mstore\n      pop\n      dup2\n      add\n      swap1\n      tag_78\n      swap2\n      swap1\n      tag_57\n      jump\t// in\n    tag_78:\n      pop\n        /* \"shoot/\\xe6\\x91\\xb8\\xe5\\xba\\x952/2/2.sol\":4054:4064  msg.sender */\n      caller\n        /* \"shoot/\\xe6\\x91\\xb8\\xe5\\xba\\x952/2/2.sol\":4044:4079  IReceiver(msg.sender).receiveTokens */\n      0xffffffffffffffffffffffffffffffffffffffff\n      and\n      0x35729130\n        /* \"shoot/\\xe6\\x91\\xb8\\xe5\\xba\\x952/2/2.sol\":4088:4093  token */\n      0x01\n      0x00\n      swap1\n      sload\n      swap1\n      0x0100\n      exp\n      swap1\n      div\n      0xffffffffffffffffffffffffffffffffffffffff\n      and\n        /* \"shoot/\\xe6\\x91\\xb8\\xe5\\xba\\x952/2/2.sol\":4096:4108  borrowAmount */\n      dup5\n        /* \"shoot/\\xe6\\x91\\xb8\\xe5\\xba\\x952/2/2.sol\":4044:4109  IReceiver(msg.sender).receiveTokens(address(token), borrowAmount) */\n      mload(0x40)\n      dup4\n      0xffffffff\n      and\n      0xe0\n      shl\n      dup2\n      mstore\n      0x04\n      add\n      tag_79\n      swap3\n      swap2\n      swap1\n      tag_75\n      jump\t// in\n    tag_79:\n      0x00\n      mload(0x40)\n      dup1\n      dup4\n      sub\n      dup2\n      0x00\n      dup8\n      dup1\n      extcodesize\n      iszero\n      dup1\n      iszero\n      tag_80\n      jumpi\n      0x00\n      dup1\n      revert\n    tag_80:\n      pop\n      gas\n      call\n      iszero\n      dup1\n      iszero\n      tag_82\n      jumpi\n      returndatasize\n      0x00\n      dup1\n      returndatacopy\n      revert(0x00, returndatasize)\n    tag_82:\n      pop\n      pop\n      pop\n      pop\n        /* \"shoot/\\xe6\\x91\\xb8\\xe5\\xba\\x952/2/2.sol\":4122:4142  uint256 balanceAfter */\n      0x00\n        /* \"shoot/\\xe6\\x91\\xb8\\xe5\\xba\\x952/2/2.sol\":4145:4150  token */\n      0x01\n      0x00\n      swap1\n      sload\n      swap1\n      0x0100\n      exp\n      swap1\n      div\n      0xffffffffffffffffffffffffffffffffffffffff\n      and\n        /* \"shoot/\\xe6\\x91\\xb8\\xe5\\xba\\x952/2/2.sol\":4145:4160  token.balanceOf */\n      0xffffffffffffffffffffffffffffffffffffffff\n      and\n      0x70a08231\n        /* \"shoot/\\xe6\\x91\\xb8\\xe5\\xba\\x952/2/2.sol\":4169:4173  this */\n      address\n        /* \"shoot/\\xe6\\x91\\xb8\\xe5\\xba\\x952/2/2.sol\":4145:4175  token.balanceOf(address(this)) */\n      mload(0x40)\n      dup3\n      0xffffffff\n      and\n      0xe0\n      shl\n      dup2\n      mstore\n      0x04\n      add\n      tag_83\n      swap2\n      swap1\n      tag_63\n      jump\t// in\n    tag_83:\n      0x20\n      mload(0x40)\n      dup1\n      dup4\n      sub\n      dup2\n      dup7\n      gas\n      staticcall\n      iszero\n      dup1\n      iszero\n      tag_85\n      jumpi\n      returndatasize\n      0x00\n      dup1\n      returndatacopy\n      revert(0x00, returndatasize)\n    tag_85:\n      pop\n      pop\n      pop\n      pop\n      mload(0x40)\n      returndatasize\n      not(0x1f)\n      0x1f\n      dup3\n      add\n      and\n      dup3\n      add\n      dup1\n      0x40\n      mstore\n      pop\n      dup2\n      add\n      swap1\n      tag_86\n      swap2\n      swap1\n      tag_67\n      jump\t// in\n    tag_86:\n        /* \"shoot/\\xe6\\x91\\xb8\\xe5\\xba\\x952/2/2.sol\":4122:4175  uint256 balanceAfter = token.balanceOf(address(this)) */\n      swap1\n      pop\n        /* \"shoot/\\xe6\\x91\\xb8\\xe5\\xba\\x952/2/2.sol\":4224:4237  balanceBefore */\n      dup2\n        /* \"shoot/\\xe6\\x91\\xb8\\xe5\\xba\\x952/2/2.sol\":4208:4220  balanceAfter */\n      dup2\n        /* \"shoot/\\xe6\\x91\\xb8\\xe5\\xba\\x952/2/2.sol\":4208:4237  balanceAfter >= balanceBefore */\n      lt\n      iszero\n        /* \"shoot/\\xe6\\x91\\xb8\\xe5\\xba\\x952/2/2.sol\":4186:4297  require(... */\n      tag_87\n      jumpi\n      mload(0x40)\n      0x08c379a000000000000000000000000000000000000000000000000000000000\n      dup2\n      mstore\n      0x04\n      add\n      tag_88\n      swap1\n      tag_89\n      jump\t// in\n    tag_88:\n      mload(0x40)\n      dup1\n      swap2\n      sub\n      swap1\n      revert\n    tag_87:\n        /* \"shoot/\\xe6\\x91\\xb8\\xe5\\xba\\x952/2/2.sol\":3786:4305  {... */\n      pop\n      pop\n        /* \"@openzeppelin/contracts/security/ReentrancyGuard.sol\":2303:2323  _nonReentrantAfter() */\n      tag_90\n        /* \"@openzeppelin/contracts/security/ReentrancyGuard.sol\":2303:2321  _nonReentrantAfter */\n      tag_91\n        /* \"@openzeppelin/contracts/security/ReentrancyGuard.sol\":2303:2323  _nonReentrantAfter() */\n      jump\t// in\n    tag_90:\n        /* \"shoot/\\xe6\\x91\\xb8\\xe5\\xba\\x952/2/2.sol\":3723:4305  function flashLoan(uint256 borrowAmount) external nonReentrant {... */\n      pop\n      jump\t// out\n        /* \"shoot/\\xe6\\x91\\xb8\\xe5\\xba\\x952/2/2.sol\":3262:3283  bool public airdroped */\n    tag_29:\n      0x03\n      0x00\n      swap1\n      sload\n      swap1\n      0x0100\n      exp\n      swap1\n      div\n      0xff\n      and\n      dup2\n      jump\t// out\n        /* \"shoot/\\xe6\\x91\\xb8\\xe5\\xba\\x952/2/2.sol\":3292:3537  function depositTokens(uint256 amount) external nonReentrant {... */\n    tag_35:\n        /* \"@openzeppelin/contracts/security/ReentrancyGuard.sol\":2261:2282  _nonReentrantBefore() */\n      tag_93\n        /* \"@openzeppelin/contracts/security/ReentrancyGuard.sol\":2261:2280  _nonReentrantBefore */\n      tag_60\n        /* \"@openzeppelin/contracts/security/ReentrancyGuard.sol\":2261:2282  _nonReentrantBefore() */\n      jump\t// in\n    tag_93:\n        /* \"shoot/\\xe6\\x91\\xb8\\xe5\\xba\\x952/2/2.sol\":3381:3382  0 */\n      0x00\n        /* \"shoot/\\xe6\\x91\\xb8\\xe5\\xba\\x952/2/2.sol\":3372:3378  amount */\n      dup2\n        /* \"shoot/\\xe6\\x91\\xb8\\xe5\\xba\\x952/2/2.sol\":3372:3382  amount > 0 */\n      gt\n        /* \"shoot/\\xe6\\x91\\xb8\\xe5\\xba\\x952/2/2.sol\":3364:3418  require(amount > 0, \"Must deposit at least one token\") */\n      tag_95\n      jumpi\n      mload(0x40)\n      0x08c379a000000000000000000000000000000000000000000000000000000000\n      dup2\n      mstore\n      0x04\n      add\n      tag_96\n      swap1\n      tag_97\n      jump\t// in\n    tag_96:\n      mload(0x40)\n      dup1\n      swap2\n      sub\n      swap1\n      revert\n    tag_95:\n        /* \"shoot/\\xe6\\x91\\xb8\\xe5\\xba\\x952/2/2.sol\":3431:3436  token */\n      0x01\n      0x00\n      swap1\n      sload\n      swap1\n      0x0100\n      exp\n      swap1\n      div\n      0xffffffffffffffffffffffffffffffffffffffff\n      and\n        /* \"shoot/\\xe6\\x91\\xb8\\xe5\\xba\\x952/2/2.sol\":3431:3449  token.transferFrom */\n      0xffffffffffffffffffffffffffffffffffffffff\n      and\n      0x23b872dd\n        /* \"shoot/\\xe6\\x91\\xb8\\xe5\\xba\\x952/2/2.sol\":3450:3460  msg.sender */\n      caller\n        /* \"shoot/\\xe6\\x91\\xb8\\xe5\\xba\\x952/2/2.sol\":3470:3474  this */\n      address\n        /* \"shoot/\\xe6\\x91\\xb8\\xe5\\xba\\x952/2/2.sol\":3477:3483  amount */\n      dup5\n        /* \"shoot/\\xe6\\x91\\xb8\\xe5\\xba\\x952/2/2.sol\":3431:3484  token.transferFrom(msg.sender, address(this), amount) */\n      mload(0x40)\n      dup5\n      0xffffffff\n      and\n      0xe0\n      shl\n      dup2\n      mstore\n      0x04\n      add\n      tag_98\n      swap4\n      swap3\n      swap2\n      swap1\n      tag_99\n      jump\t// in\n    tag_98:\n      0x20\n      mload(0x40)\n      dup1\n      dup4\n      sub\n      dup2\n      0x00\n      dup8\n      gas\n      call\n      iszero\n      dup1\n      iszero\n      tag_101\n      jumpi\n      returndatasize\n      0x00\n      dup1\n      returndatacopy\n      revert(0x00, returndatasize)\n    tag_101:\n      pop\n      pop\n      pop\n      pop\n      mload(0x40)\n      returndatasize\n      not(0x1f)\n      0x1f\n      dup3\n      add\n      and\n      dup3\n      add\n      dup1\n      0x40\n      mstore\n      pop\n      dup2\n      add\n      swap1\n      tag_102\n      swap2\n      swap1\n      tag_57\n      jump\t// in\n    tag_102:\n      pop\n        /* \"shoot/\\xe6\\x91\\xb8\\xe5\\xba\\x952/2/2.sol\":3523:3529  amount */\n      dup1\n        /* \"shoot/\\xe6\\x91\\xb8\\xe5\\xba\\x952/2/2.sol\":3509:3520  poolBalance */\n      sload(0x02)\n        /* \"shoot/\\xe6\\x91\\xb8\\xe5\\xba\\x952/2/2.sol\":3509:3529  poolBalance + amount */\n      tag_103\n      swap2\n      swap1\n      tag_104\n      jump\t// in\n    tag_103:\n        /* \"shoot/\\xe6\\x91\\xb8\\xe5\\xba\\x952/2/2.sol\":3495:3506  poolBalance */\n      0x02\n        /* \"shoot/\\xe6\\x91\\xb8\\xe5\\xba\\x952/2/2.sol\":3495:3529  poolBalance = poolBalance + amount */\n      dup2\n      swap1\n      sstore\n      pop\n        /* \"@openzeppelin/contracts/security/ReentrancyGuard.sol\":2303:2323  _nonReentrantAfter() */\n      tag_105\n        /* \"@openzeppelin/contracts/security/ReentrancyGuard.sol\":2303:2321  _nonReentrantAfter */\n      tag_91\n        /* \"@openzeppelin/contracts/security/ReentrancyGuard.sol\":2303:2323  _nonReentrantAfter() */\n      jump\t// in\n    tag_105:\n        /* \"shoot/\\xe6\\x91\\xb8\\xe5\\xba\\x952/2/2.sol\":3292:3537  function depositTokens(uint256 amount) external nonReentrant {... */\n      pop\n      jump\t// out\n        /* \"shoot/\\xe6\\x91\\xb8\\xe5\\xba\\x952/2/2.sol\":4799:4819  uint256 public score */\n    tag_38:\n      sload(0x04)\n      dup2\n      jump\t// out\n        /* \"shoot/\\xe6\\x91\\xb8\\xe5\\xba\\x952/2/2.sol\":4832:5151  function isCompleted() public {... */\n    tag_42:\n        /* \"shoot/\\xe6\\x91\\xb8\\xe5\\xba\\x952/2/2.sol\":4881:4882  0 */\n      0x00\n        /* \"shoot/\\xe6\\x91\\xb8\\xe5\\xba\\x952/2/2.sol\":4873:4878  score */\n      0x04\n        /* \"shoot/\\xe6\\x91\\xb8\\xe5\\xba\\x952/2/2.sol\":4873:4882  score = 0 */\n      dup2\n      swap1\n      sstore\n      pop\n        /* \"shoot/\\xe6\\x91\\xb8\\xe5\\xba\\x952/2/2.sol\":4911:4920  tx.origin */\n      origin\n        /* \"shoot/\\xe6\\x91\\xb8\\xe5\\xba\\x952/2/2.sol\":4897:4920  msg.sender != tx.origin */\n      0xffffffffffffffffffffffffffffffffffffffff\n      and\n        /* \"shoot/\\xe6\\x91\\xb8\\xe5\\xba\\x952/2/2.sol\":4897:4907  msg.sender */\n      caller\n        /* \"shoot/\\xe6\\x91\\xb8\\xe5\\xba\\x952/2/2.sol\":4897:4920  msg.sender != tx.origin */\n      0xffffffffffffffffffffffffffffffffffffffff\n      and\n      eq\n        /* \"shoot/\\xe6\\x91\\xb8\\xe5\\xba\\x952/2/2.sol\":4893:4960  if (msg.sender != tx.origin) {... */\n      tag_107\n      jumpi\n        /* \"shoot/\\xe6\\x91\\xb8\\xe5\\xba\\x952/2/2.sol\":4946:4948  25 */\n      0x19\n        /* \"shoot/\\xe6\\x91\\xb8\\xe5\\xba\\x952/2/2.sol\":4937:4942  score */\n      0x04\n      0x00\n        /* \"shoot/\\xe6\\x91\\xb8\\xe5\\xba\\x952/2/2.sol\":4937:4948  score += 25 */\n      dup3\n      dup3\n      sload\n      tag_108\n      swap2\n      swap1\n      tag_104\n      jump\t// in\n    tag_108:\n      swap3\n      pop\n      pop\n      dup2\n      swap1\n      sstore\n      pop\n        /* \"shoot/\\xe6\\x91\\xb8\\xe5\\xba\\x952/2/2.sol\":4893:4960  if (msg.sender != tx.origin) {... */\n    tag_107:\n        /* \"shoot/\\xe6\\x91\\xb8\\xe5\\xba\\x952/2/2.sol\":4971:4983  bool success */\n      0x00\n        /* \"shoot/\\xe6\\x91\\xb8\\xe5\\xba\\x952/2/2.sol\":4997:5001  this */\n      address\n        /* \"shoot/\\xe6\\x91\\xb8\\xe5\\xba\\x952/2/2.sol\":4989:5007  address(this).call */\n      0xffffffffffffffffffffffffffffffffffffffff\n      and\n        /* \"shoot/\\xe6\\x91\\xb8\\xe5\\xba\\x952/2/2.sol\":5068:5069  0 */\n      0x00\n        /* \"shoot/\\xe6\\x91\\xb8\\xe5\\xba\\x952/2/2.sol\":5022:5070  abi.encodeWithSignature(\"flashLoan(uint256)\", 0) */\n      add(0x24, mload(0x40))\n      tag_109\n      swap2\n      swap1\n      tag_110\n      jump\t// in\n    tag_109:\n      mload(0x40)\n      0x20\n      dup2\n      dup4\n      sub\n      sub\n      dup2\n      mstore\n      swap1\n      0x40\n      mstore\n      and(not(0xffffffffffffffffffffffffffffffffffffffffffffffffffffffff), 0x9ab603b900000000000000000000000000000000000000000000000000000000)\n      0x20\n      dup3\n      add\n      dup1\n      mload\n      0xffffffffffffffffffffffffffffffffffffffffffffffffffffffff\n      dup4\n      dup2\n      dup4\n      and\n      or\n      dup4\n      mstore\n      pop\n      pop\n      pop\n      pop\n        /* \"shoot/\\xe6\\x91\\xb8\\xe5\\xba\\x952/2/2.sol\":4989:5081  address(this).call(... */\n      mload(0x40)\n      tag_111\n      swap2\n      swap1\n      tag_112\n      jump\t// in\n    tag_111:\n      0x00\n      mload(0x40)\n      dup1\n      dup4\n      sub\n      dup2\n      0x00\n      dup7\n      gas\n      call\n      swap2\n      pop\n      pop\n      returndatasize\n      dup1\n      0x00\n      dup2\n      eq\n      tag_115\n      jumpi\n      mload(0x40)\n      swap2\n      pop\n      and(add(returndatasize, 0x3f), not(0x1f))\n      dup3\n      add\n      0x40\n      mstore\n      returndatasize\n      dup3\n      mstore\n      returndatasize\n      0x00\n      0x20\n      dup5\n      add\n      returndatacopy\n      jump(tag_114)\n    tag_115:\n      0x60\n      swap2\n      pop\n    tag_114:\n      pop\n        /* \"shoot/\\xe6\\x91\\xb8\\xe5\\xba\\x952/2/2.sol\":4970:5081  (bool success, ) = address(this).call(... */\n      pop\n      swap1\n      pop\n        /* \"shoot/\\xe6\\x91\\xb8\\xe5\\xba\\x952/2/2.sol\":5097:5104  success */\n      dup1\n        /* \"shoot/\\xe6\\x91\\xb8\\xe5\\xba\\x952/2/2.sol\":5092:5144  if (!success) {... */\n      tag_116\n      jumpi\n        /* \"shoot/\\xe6\\x91\\xb8\\xe5\\xba\\x952/2/2.sol\":5130:5132  75 */\n      0x4b\n        /* \"shoot/\\xe6\\x91\\xb8\\xe5\\xba\\x952/2/2.sol\":5121:5126  score */\n      0x04\n      0x00\n        /* \"shoot/\\xe6\\x91\\xb8\\xe5\\xba\\x952/2/2.sol\":5121:5132  score += 75 */\n      dup3\n      dup3\n      sload\n      tag_117\n      swap2\n      swap1\n      tag_104\n      jump\t// in\n    tag_117:\n      swap3\n      pop\n      pop\n      dup2\n      swap1\n      sstore\n      pop\n        /* \"shoot/\\xe6\\x91\\xb8\\xe5\\xba\\x952/2/2.sol\":5092:5144  if (!success) {... */\n    tag_116:\n        /* \"shoot/\\xe6\\x91\\xb8\\xe5\\xba\\x952/2/2.sol\":4862:5151  {... */\n      pop\n        /* \"shoot/\\xe6\\x91\\xb8\\xe5\\xba\\x952/2/2.sol\":4832:5151  function isCompleted() public {... */\n      jump\t// out\n        /* \"shoot/\\xe6\\x91\\xb8\\xe5\\xba\\x952/2/2.sol\":3177:3209  ERC20 public token = new ERC20() */\n    tag_45:\n      0x01\n      0x00\n      swap1\n      sload\n      swap1\n      0x0100\n      exp\n      swap1\n      div\n      0xffffffffffffffffffffffffffffffffffffffff\n      and\n      dup2\n      jump\t// out\n        /* \"@openzeppelin/contracts/security/ReentrancyGuard.sol\":2336:2623  function _nonReentrantBefore() private {... */\n    tag_60:\n        /* \"@openzeppelin/contracts/security/ReentrancyGuard.sol\":1759:1760  2 */\n      0x02\n        /* \"@openzeppelin/contracts/security/ReentrancyGuard.sol\":2468:2475  _status */\n      sload(0x00)\n        /* \"@openzeppelin/contracts/security/ReentrancyGuard.sol\":2468:2487  _status != _ENTERED */\n      sub\n        /* \"@openzeppelin/contracts/security/ReentrancyGuard.sol\":2460:2523  require(_status != _ENTERED, \"ReentrancyGuard: reentrant call\") */\n      tag_119\n      jumpi\n      mload(0x40)\n      0x08c379a000000000000000000000000000000000000000000000000000000000\n      dup2\n      mstore\n      0x04\n      add\n      tag_120\n      swap1\n      tag_121\n      jump\t// in\n    tag_120:\n      mload(0x40)\n      dup1\n      swap2\n      sub\n      swap1\n      revert\n    tag_119:\n        /* \"@openzeppelin/contracts/security/ReentrancyGuard.sol\":1759:1760  2 */\n      0x02\n        /* \"@openzeppelin/contracts/security/ReentrancyGuard.sol\":2598:2605  _status */\n      0x00\n        /* \"@openzeppelin/contracts/security/ReentrancyGuard.sol\":2598:2616  _status = _ENTERED */\n      dup2\n      swap1\n      sstore\n      pop\n        /* \"@openzeppelin/contracts/security/ReentrancyGuard.sol\":2336:2623  function _nonReentrantBefore() private {... */\n      jump\t// out\n        /* \"@openzeppelin/contracts/security/ReentrancyGuard.sol\":2629:2838  function _nonReentrantAfter() private {... */\n    tag_91:\n        /* \"@openzeppelin/contracts/security/ReentrancyGuard.sol\":1716:1717  1 */\n      0x01\n        /* \"@openzeppelin/contracts/security/ReentrancyGuard.sol\":2809:2816  _status */\n      0x00\n        /* \"@openzeppelin/contracts/security/ReentrancyGuard.sol\":2809:2831  _status = _NOT_ENTERED */\n      dup2\n      swap1\n      sstore\n      pop\n        /* \"@openzeppelin/contracts/security/ReentrancyGuard.sol\":2629:2838  function _nonReentrantAfter() private {... */\n      jump\t// out\n        /* \"#utility.yul\":7:84   */\n    tag_123:\n        /* \"#utility.yul\":44:51   */\n      0x00\n        /* \"#utility.yul\":73:78   */\n      dup2\n        /* \"#utility.yul\":62:78   */\n      swap1\n      pop\n        /* \"#utility.yul\":7:84   */\n      swap2\n      swap1\n      pop\n      jump\t// out\n        /* \"#utility.yul\":90:208   */\n    tag_124:\n        /* \"#utility.yul\":177:201   */\n      tag_167\n        /* \"#utility.yul\":195:200   */\n      dup2\n        /* \"#utility.yul\":177:201   */\n      tag_123\n      jump\t// in\n    tag_167:\n        /* \"#utility.yul\":172:175   */\n      dup3\n        /* \"#utility.yul\":165:202   */\n      mstore\n        /* \"#utility.yul\":90:208   */\n      pop\n      pop\n      jump\t// out\n        /* \"#utility.yul\":214:436   */\n    tag_21:\n        /* \"#utility.yul\":307:311   */\n      0x00\n        /* \"#utility.yul\":345:347   */\n      0x20\n        /* \"#utility.yul\":334:343   */\n      dup3\n        /* \"#utility.yul\":330:348   */\n      add\n        /* \"#utility.yul\":322:348   */\n      swap1\n      pop\n        /* \"#utility.yul\":358:429   */\n      tag_169\n        /* \"#utility.yul\":426:427   */\n      0x00\n        /* \"#utility.yul\":415:424   */\n      dup4\n        /* \"#utility.yul\":411:428   */\n      add\n        /* \"#utility.yul\":402:408   */\n      dup5\n        /* \"#utility.yul\":358:429   */\n      tag_124\n      jump\t// in\n    tag_169:\n        /* \"#utility.yul\":214:436   */\n      swap3\n      swap2\n      pop\n      pop\n      jump\t// out\n        /* \"#utility.yul\":523:640   */\n    tag_126:\n        /* \"#utility.yul\":632:633   */\n      0x00\n        /* \"#utility.yul\":629:630   */\n      dup1\n        /* \"#utility.yul\":622:634   */\n      revert\n        /* \"#utility.yul\":769:891   */\n    tag_128:\n        /* \"#utility.yul\":842:866   */\n      tag_174\n        /* \"#utility.yul\":860:865   */\n      dup2\n        /* \"#utility.yul\":842:866   */\n      tag_123\n      jump\t// in\n    tag_174:\n        /* \"#utility.yul\":835:840   */\n      dup2\n        /* \"#utility.yul\":832:867   */\n      eq\n        /* \"#utility.yul\":822:885   */\n      tag_175\n      jumpi\n        /* \"#utility.yul\":881:882   */\n      0x00\n        /* \"#utility.yul\":878:879   */\n      dup1\n        /* \"#utility.yul\":871:883   */\n      revert\n        /* \"#utility.yul\":822:885   */\n    tag_175:\n        /* \"#utility.yul\":769:891   */\n      pop\n      jump\t// out\n        /* \"#utility.yul\":897:1036   */\n    tag_129:\n        /* \"#utility.yul\":943:948   */\n      0x00\n        /* \"#utility.yul\":981:987   */\n      dup2\n        /* \"#utility.yul\":968:988   */\n      calldataload\n        /* \"#utility.yul\":959:988   */\n      swap1\n      pop\n        /* \"#utility.yul\":997:1030   */\n      tag_177\n        /* \"#utility.yul\":1024:1029   */\n      dup2\n        /* \"#utility.yul\":997:1030   */\n      tag_128\n      jump\t// in\n    tag_177:\n        /* \"#utility.yul\":897:1036   */\n      swap3\n      swap2\n      pop\n      pop\n      jump\t// out\n        /* \"#utility.yul\":1042:1371   */\n    tag_25:\n        /* \"#utility.yul\":1101:1107   */\n      0x00\n        /* \"#utility.yul\":1150:1152   */\n      0x20\n        /* \"#utility.yul\":1138:1147   */\n      dup3\n        /* \"#utility.yul\":1129:1136   */\n      dup5\n        /* \"#utility.yul\":1125:1148   */\n      sub\n        /* \"#utility.yul\":1121:1153   */\n      slt\n        /* \"#utility.yul\":1118:1237   */\n      iszero\n      tag_179\n      jumpi\n        /* \"#utility.yul\":1156:1235   */\n      tag_180\n      tag_126\n      jump\t// in\n    tag_180:\n        /* \"#utility.yul\":1118:1237   */\n    tag_179:\n        /* \"#utility.yul\":1276:1277   */\n      0x00\n        /* \"#utility.yul\":1301:1354   */\n      tag_181\n        /* \"#utility.yul\":1346:1353   */\n      dup5\n        /* \"#utility.yul\":1337:1343   */\n      dup3\n        /* \"#utility.yul\":1326:1335   */\n      dup6\n        /* \"#utility.yul\":1322:1344   */\n      add\n        /* \"#utility.yul\":1301:1354   */\n      tag_129\n      jump\t// in\n    tag_181:\n        /* \"#utility.yul\":1291:1354   */\n      swap2\n      pop\n        /* \"#utility.yul\":1247:1364   */\n      pop\n        /* \"#utility.yul\":1042:1371   */\n      swap3\n      swap2\n      pop\n      pop\n      jump\t// out\n        /* \"#utility.yul\":1377:1467   */\n    tag_130:\n        /* \"#utility.yul\":1411:1418   */\n      0x00\n        /* \"#utility.yul\":1454:1459   */\n      dup2\n        /* \"#utility.yul\":1447:1460   */\n      iszero\n        /* \"#utility.yul\":1440:1461   */\n      iszero\n        /* \"#utility.yul\":1429:1461   */\n      swap1\n      pop\n        /* \"#utility.yul\":1377:1467   */\n      swap2\n      swap1\n      pop\n      jump\t// out\n        /* \"#utility.yul\":1473:1582   */\n    tag_131:\n        /* \"#utility.yul\":1554:1575   */\n      tag_184\n        /* \"#utility.yul\":1569:1574   */\n      dup2\n        /* \"#utility.yul\":1554:1575   */\n      tag_130\n      jump\t// in\n    tag_184:\n        /* \"#utility.yul\":1549:1552   */\n      dup3\n        /* \"#utility.yul\":1542:1576   */\n      mstore\n        /* \"#utility.yul\":1473:1582   */\n      pop\n      pop\n      jump\t// out\n        /* \"#utility.yul\":1588:1798   */\n    tag_31:\n        /* \"#utility.yul\":1675:1679   */\n      0x00\n        /* \"#utility.yul\":1713:1715   */\n      0x20\n        /* \"#utility.yul\":1702:1711   */\n      dup3\n        /* \"#utility.yul\":1698:1716   */\n      add\n        /* \"#utility.yul\":1690:1716   */\n      swap1\n      pop\n        /* \"#utility.yul\":1726:1791   */\n      tag_186\n        /* \"#utility.yul\":1788:1789   */\n      0x00\n        /* \"#utility.yul\":1777:1786   */\n      dup4\n        /* \"#utility.yul\":1773:1790   */\n      add\n        /* \"#utility.yul\":1764:1770   */\n      dup5\n        /* \"#utility.yul\":1726:1791   */\n      tag_131\n      jump\t// in\n    tag_186:\n        /* \"#utility.yul\":1588:1798   */\n      swap3\n      swap2\n      pop\n      pop\n      jump\t// out\n        /* \"#utility.yul\":1804:1930   */\n    tag_132:\n        /* \"#utility.yul\":1841:1848   */\n      0x00\n        /* \"#utility.yul\":1881:1923   */\n      0xffffffffffffffffffffffffffffffffffffffff\n        /* \"#utility.yul\":1874:1879   */\n      dup3\n        /* \"#utility.yul\":1870:1924   */\n      and\n        /* \"#utility.yul\":1859:1924   */\n      swap1\n      pop\n        /* \"#utility.yul\":1804:1930   */\n      swap2\n      swap1\n      pop\n      jump\t// out\n        /* \"#utility.yul\":1936:1996   */\n    tag_133:\n        /* \"#utility.yul\":1964:1967   */\n      0x00\n        /* \"#utility.yul\":1985:1990   */\n      dup2\n        /* \"#utility.yul\":1978:1990   */\n      swap1\n      pop\n        /* \"#utility.yul\":1936:1996   */\n      swap2\n      swap1\n      pop\n      jump\t// out\n        /* \"#utility.yul\":2002:2144   */\n    tag_134:\n        /* \"#utility.yul\":2052:2061   */\n      0x00\n        /* \"#utility.yul\":2085:2138   */\n      tag_190\n        /* \"#utility.yul\":2103:2137   */\n      tag_191\n        /* \"#utility.yul\":2112:2136   */\n      tag_192\n        /* \"#utility.yul\":2130:2135   */\n      dup5\n        /* \"#utility.yul\":2112:2136   */\n      tag_132\n      jump\t// in\n    tag_192:\n        /* \"#utility.yul\":2103:2137   */\n      tag_133\n      jump\t// in\n    tag_191:\n        /* \"#utility.yul\":2085:2138   */\n      tag_132\n      jump\t// in\n    tag_190:\n        /* \"#utility.yul\":2072:2138   */\n      swap1\n      pop\n        /* \"#utility.yul\":2002:2144   */\n      swap2\n      swap1\n      pop\n      jump\t// out\n        /* \"#utility.yul\":2150:2276   */\n    tag_135:\n        /* \"#utility.yul\":2200:2209   */\n      0x00\n        /* \"#utility.yul\":2233:2270   */\n      tag_194\n        /* \"#utility.yul\":2264:2269   */\n      dup3\n        /* \"#utility.yul\":2233:2270   */\n      tag_134\n      jump\t// in\n    tag_194:\n        /* \"#utility.yul\":2220:2270   */\n      swap1\n      pop\n        /* \"#utility.yul\":2150:2276   */\n      swap2\n      swap1\n      pop\n      jump\t// out\n        /* \"#utility.yul\":2282:2421   */\n    tag_136:\n        /* \"#utility.yul\":2345:2354   */\n      0x00\n        /* \"#utility.yul\":2378:2415   */\n      tag_196\n        /* \"#utility.yul\":2409:2414   */\n      dup3\n        /* \"#utility.yul\":2378:2415   */\n      tag_135\n      jump\t// in\n    tag_196:\n        /* \"#utility.yul\":2365:2415   */\n      swap1\n      pop\n        /* \"#utility.yul\":2282:2421   */\n      swap2\n      swap1\n      pop\n      jump\t// out\n        /* \"#utility.yul\":2427:2584   */\n    tag_137:\n        /* \"#utility.yul\":2527:2577   */\n      tag_198\n        /* \"#utility.yul\":2571:2576   */\n      dup2\n        /* \"#utility.yul\":2527:2577   */\n      tag_136\n      jump\t// in\n    tag_198:\n        /* \"#utility.yul\":2522:2525   */\n      dup3\n        /* \"#utility.yul\":2515:2578   */\n      mstore\n        /* \"#utility.yul\":2427:2584   */\n      pop\n      pop\n      jump\t// out\n        /* \"#utility.yul\":2590:2838   */\n    tag_47:\n        /* \"#utility.yul\":2696:2700   */\n      0x00\n        /* \"#utility.yul\":2734:2736   */\n      0x20\n        /* \"#utility.yul\":2723:2732   */\n      dup3\n        /* \"#utility.yul\":2719:2737   */\n      add\n        /* \"#utility.yul\":2711:2737   */\n      swap1\n      pop\n        /* \"#utility.yul\":2747:2831   */\n      tag_200\n        /* \"#utility.yul\":2828:2829   */\n      0x00\n        /* \"#utility.yul\":2817:2826   */\n      dup4\n        /* \"#utility.yul\":2813:2830   */\n      add\n        /* \"#utility.yul\":2804:2810   */\n      dup5\n        /* \"#utility.yul\":2747:2831   */\n      tag_137\n      jump\t// in\n    tag_200:\n        /* \"#utility.yul\":2590:2838   */\n      swap3\n      swap2\n      pop\n      pop\n      jump\t// out\n        /* \"#utility.yul\":2844:3024   */\n    tag_138:\n        /* \"#utility.yul\":2892:2969   */\n      0x4e487b7100000000000000000000000000000000000000000000000000000000\n        /* \"#utility.yul\":2889:2890   */\n      0x00\n        /* \"#utility.yul\":2882:2970   */\n      mstore\n        /* \"#utility.yul\":2989:2993   */\n      0x11\n        /* \"#utility.yul\":2986:2987   */\n      0x04\n        /* \"#utility.yul\":2979:2994   */\n      mstore\n        /* \"#utility.yul\":3013:3017   */\n      0x24\n        /* \"#utility.yul\":3010:3011   */\n      0x00\n        /* \"#utility.yul\":3003:3018   */\n      revert\n        /* \"#utility.yul\":3030:3224   */\n    tag_51:\n        /* \"#utility.yul\":3070:3074   */\n      0x00\n        /* \"#utility.yul\":3090:3110   */\n      tag_203\n        /* \"#utility.yul\":3108:3109   */\n      dup3\n        /* \"#utility.yul\":3090:3110   */\n      tag_123\n      jump\t// in\n    tag_203:\n        /* \"#utility.yul\":3085:3110   */\n      swap2\n      pop\n        /* \"#utility.yul\":3124:3144   */\n      tag_204\n        /* \"#utility.yul\":3142:3143   */\n      dup4\n        /* \"#utility.yul\":3124:3144   */\n      tag_123\n      jump\t// in\n    tag_204:\n        /* \"#utility.yul\":3119:3144   */\n      swap3\n      pop\n        /* \"#utility.yul\":3168:3169   */\n      dup3\n        /* \"#utility.yul\":3165:3166   */\n      dup3\n        /* \"#utility.yul\":3161:3170   */\n      sub\n        /* \"#utility.yul\":3153:3170   */\n      swap1\n      pop\n        /* \"#utility.yul\":3192:3193   */\n      dup2\n        /* \"#utility.yul\":3186:3190   */\n      dup2\n        /* \"#utility.yul\":3183:3194   */\n      gt\n        /* \"#utility.yul\":3180:3217   */\n      iszero\n      tag_205\n      jumpi\n        /* \"#utility.yul\":3197:3215   */\n      tag_206\n      tag_138\n      jump\t// in\n    tag_206:\n        /* \"#utility.yul\":3180:3217   */\n    tag_205:\n        /* \"#utility.yul\":3030:3224   */\n      swap3\n      swap2\n      pop\n      pop\n      jump\t// out\n        /* \"#utility.yul\":3230:3326   */\n    tag_139:\n        /* \"#utility.yul\":3267:3274   */\n      0x00\n        /* \"#utility.yul\":3296:3320   */\n      tag_208\n        /* \"#utility.yul\":3314:3319   */\n      dup3\n        /* \"#utility.yul\":3296:3320   */\n      tag_132\n      jump\t// in\n    tag_208:\n        /* \"#utility.yul\":3285:3320   */\n      swap1\n      pop\n        /* \"#utility.yul\":3230:3326   */\n      swap2\n      swap1\n      pop\n      jump\t// out\n        /* \"#utility.yul\":3332:3450   */\n    tag_140:\n        /* \"#utility.yul\":3419:3443   */\n      tag_210\n        /* \"#utility.yul\":3437:3442   */\n      dup2\n        /* \"#utility.yul\":3419:3443   */\n      tag_139\n      jump\t// in\n    tag_210:\n        /* \"#utility.yul\":3414:3417   */\n      dup3\n        /* \"#utility.yul\":3407:3444   */\n      mstore\n        /* \"#utility.yul\":3332:3450   */\n      pop\n      pop\n      jump\t// out\n        /* \"#utility.yul\":3456:3559   */\n    tag_141:\n        /* \"#utility.yul\":3519:3526   */\n      0x00\n        /* \"#utility.yul\":3548:3553   */\n      dup2\n        /* \"#utility.yul\":3537:3553   */\n      swap1\n      pop\n        /* \"#utility.yul\":3456:3559   */\n      swap2\n      swap1\n      pop\n      jump\t// out\n        /* \"#utility.yul\":3565:3759   */\n    tag_142:\n        /* \"#utility.yul\":3641:3650   */\n      0x00\n        /* \"#utility.yul\":3674:3753   */\n      tag_213\n        /* \"#utility.yul\":3692:3752   */\n      tag_214\n        /* \"#utility.yul\":3701:3751   */\n      tag_215\n        /* \"#utility.yul\":3745:3750   */\n      dup5\n        /* \"#utility.yul\":3701:3751   */\n      tag_141\n      jump\t// in\n    tag_215:\n        /* \"#utility.yul\":3692:3752   */\n      tag_133\n      jump\t// in\n    tag_214:\n        /* \"#utility.yul\":3674:3753   */\n      tag_123\n      jump\t// in\n    tag_213:\n        /* \"#utility.yul\":3661:3753   */\n      swap1\n      pop\n        /* \"#utility.yul\":3565:3759   */\n      swap2\n      swap1\n      pop\n      jump\t// out\n        /* \"#utility.yul\":3765:3948   */\n    tag_143:\n        /* \"#utility.yul\":3878:3941   */\n      tag_217\n        /* \"#utility.yul\":3935:3940   */\n      dup2\n        /* \"#utility.yul\":3878:3941   */\n      tag_142\n      jump\t// in\n    tag_217:\n        /* \"#utility.yul\":3873:3876   */\n      dup3\n        /* \"#utility.yul\":3866:3942   */\n      mstore\n        /* \"#utility.yul\":3765:3948   */\n      pop\n      pop\n      jump\t// out\n        /* \"#utility.yul\":3954:4338   */\n    tag_53:\n        /* \"#utility.yul\":4101:4105   */\n      0x00\n        /* \"#utility.yul\":4139:4141   */\n      0x40\n        /* \"#utility.yul\":4128:4137   */\n      dup3\n        /* \"#utility.yul\":4124:4142   */\n      add\n        /* \"#utility.yul\":4116:4142   */\n      swap1\n      pop\n        /* \"#utility.yul\":4152:4223   */\n      tag_219\n        /* \"#utility.yul\":4220:4221   */\n      0x00\n        /* \"#utility.yul\":4209:4218   */\n      dup4\n        /* \"#utility.yul\":4205:4222   */\n      add\n        /* \"#utility.yul\":4196:4202   */\n      dup6\n        /* \"#utility.yul\":4152:4223   */\n      tag_140\n      jump\t// in\n    tag_219:\n        /* \"#utility.yul\":4233:4331   */\n      tag_220\n        /* \"#utility.yul\":4327:4329   */\n      0x20\n        /* \"#utility.yul\":4316:4325   */\n      dup4\n        /* \"#utility.yul\":4312:4330   */\n      add\n        /* \"#utility.yul\":4303:4309   */\n      dup5\n        /* \"#utility.yul\":4233:4331   */\n      tag_143\n      jump\t// in\n    tag_220:\n        /* \"#utility.yul\":3954:4338   */\n      swap4\n      swap3\n      pop\n      pop\n      pop\n      jump\t// out\n        /* \"#utility.yul\":4344:4460   */\n    tag_144:\n        /* \"#utility.yul\":4414:4435   */\n      tag_222\n        /* \"#utility.yul\":4429:4434   */\n      dup2\n        /* \"#utility.yul\":4414:4435   */\n      tag_130\n      jump\t// in\n    tag_222:\n        /* \"#utility.yul\":4407:4412   */\n      dup2\n        /* \"#utility.yul\":4404:4436   */\n      eq\n        /* \"#utility.yul\":4394:4454   */\n      tag_223\n      jumpi\n        /* \"#utility.yul\":4450:4451   */\n      0x00\n        /* \"#utility.yul\":4447:4448   */\n      dup1\n        /* \"#utility.yul\":4440:4452   */\n      revert\n        /* \"#utility.yul\":4394:4454   */\n    tag_223:\n        /* \"#utility.yul\":4344:4460   */\n      pop\n      jump\t// out\n        /* \"#utility.yul\":4466:4603   */\n    tag_145:\n        /* \"#utility.yul\":4520:4525   */\n      0x00\n        /* \"#utility.yul\":4551:4557   */\n      dup2\n        /* \"#utility.yul\":4545:4558   */\n      mload\n        /* \"#utility.yul\":4536:4558   */\n      swap1\n      pop\n        /* \"#utility.yul\":4567:4597   */\n      tag_225\n        /* \"#utility.yul\":4591:4596   */\n      dup2\n        /* \"#utility.yul\":4567:4597   */\n      tag_144\n      jump\t// in\n    tag_225:\n        /* \"#utility.yul\":4466:4603   */\n      swap3\n      swap2\n      pop\n      pop\n      jump\t// out\n        /* \"#utility.yul\":4609:4954   */\n    tag_57:\n        /* \"#utility.yul\":4676:4682   */\n      0x00\n        /* \"#utility.yul\":4725:4727   */\n      0x20\n        /* \"#utility.yul\":4713:4722   */\n      dup3\n        /* \"#utility.yul\":4704:4711   */\n      dup5\n        /* \"#utility.yul\":4700:4723   */\n      sub\n        /* \"#utility.yul\":4696:4728   */\n      slt\n        /* \"#utility.yul\":4693:4812   */\n      iszero\n      tag_227\n      jumpi\n        /* \"#utility.yul\":4731:4810   */\n      tag_228\n      tag_126\n      jump\t// in\n    tag_228:\n        /* \"#utility.yul\":4693:4812   */\n    tag_227:\n        /* \"#utility.yul\":4851:4852   */\n      0x00\n        /* \"#utility.yul\":4876:4937   */\n      tag_229\n        /* \"#utility.yul\":4929:4936   */\n      dup5\n        /* \"#utility.yul\":4920:4926   */\n      dup3\n        /* \"#utility.yul\":4909:4918   */\n      dup6\n        /* \"#utility.yul\":4905:4927   */\n      add\n        /* \"#utility.yul\":4876:4937   */\n      tag_145\n      jump\t// in\n    tag_229:\n        /* \"#utility.yul\":4866:4937   */\n      swap2\n      pop\n        /* \"#utility.yul\":4822:4947   */\n      pop\n        /* \"#utility.yul\":4609:4954   */\n      swap3\n      swap2\n      pop\n      pop\n      jump\t// out\n        /* \"#utility.yul\":4960:5182   */\n    tag_63:\n        /* \"#utility.yul\":5053:5057   */\n      0x00\n        /* \"#utility.yul\":5091:5093   */\n      0x20\n        /* \"#utility.yul\":5080:5089   */\n      dup3\n        /* \"#utility.yul\":5076:5094   */\n      add\n        /* \"#utility.yul\":5068:5094   */\n      swap1\n      pop\n        /* \"#utility.yul\":5104:5175   */\n      tag_231\n        /* \"#utility.yul\":5172:5173   */\n      0x00\n        /* \"#utility.yul\":5161:5170   */\n      dup4\n        /* \"#utility.yul\":5157:5174   */\n      add\n        /* \"#utility.yul\":5148:5154   */\n      dup5\n        /* \"#utility.yul\":5104:5175   */\n      tag_140\n      jump\t// in\n    tag_231:\n        /* \"#utility.yul\":4960:5182   */\n      swap3\n      swap2\n      pop\n      pop\n      jump\t// out\n        /* \"#utility.yul\":5188:5331   */\n    tag_146:\n        /* \"#utility.yul\":5245:5250   */\n      0x00\n        /* \"#utility.yul\":5276:5282   */\n      dup2\n        /* \"#utility.yul\":5270:5283   */\n      mload\n        /* \"#utility.yul\":5261:5283   */\n      swap1\n      pop\n        /* \"#utility.yul\":5292:5325   */\n      tag_233\n        /* \"#utility.yul\":5319:5324   */\n      dup2\n        /* \"#utility.yul\":5292:5325   */\n      tag_128\n      jump\t// in\n    tag_233:\n        /* \"#utility.yul\":5188:5331   */\n      swap3\n      swap2\n      pop\n      pop\n      jump\t// out\n        /* \"#utility.yul\":5337:5688   */\n    tag_67:\n        /* \"#utility.yul\":5407:5413   */\n      0x00\n        /* \"#utility.yul\":5456:5458   */\n      0x20\n        /* \"#utility.yul\":5444:5453   */\n      dup3\n        /* \"#utility.yul\":5435:5442   */\n      dup5\n        /* \"#utility.yul\":5431:5454   */\n      sub\n        /* \"#utility.yul\":5427:5459   */\n      slt\n        /* \"#utility.yul\":5424:5543   */\n      iszero\n      tag_235\n      jumpi\n        /* \"#utility.yul\":5462:5541   */\n      tag_236\n      tag_126\n      jump\t// in\n    tag_236:\n        /* \"#utility.yul\":5424:5543   */\n    tag_235:\n        /* \"#utility.yul\":5582:5583   */\n      0x00\n        /* \"#utility.yul\":5607:5671   */\n      tag_237\n        /* \"#utility.yul\":5663:5670   */\n      dup5\n        /* \"#utility.yul\":5654:5660   */\n      dup3\n        /* \"#utility.yul\":5643:5652   */\n      dup6\n        /* \"#utility.yul\":5639:5661   */\n      add\n        /* \"#utility.yul\":5607:5671   */\n      tag_146\n      jump\t// in\n    tag_237:\n        /* \"#utility.yul\":5597:5671   */\n      swap2\n      pop\n        /* \"#utility.yul\":5553:5681   */\n      pop\n        /* \"#utility.yul\":5337:5688   */\n      swap3\n      swap2\n      pop\n      pop\n      jump\t// out\n        /* \"#utility.yul\":5694:5863   */\n    tag_147:\n        /* \"#utility.yul\":5778:5789   */\n      0x00\n        /* \"#utility.yul\":5812:5818   */\n      dup3\n        /* \"#utility.yul\":5807:5810   */\n      dup3\n        /* \"#utility.yul\":5800:5819   */\n      mstore\n        /* \"#utility.yul\":5852:5856   */\n      0x20\n        /* \"#utility.yul\":5847:5850   */\n      dup3\n        /* \"#utility.yul\":5843:5857   */\n      add\n        /* \"#utility.yul\":5828:5857   */\n      swap1\n      pop\n        /* \"#utility.yul\":5694:5863   */\n      swap3\n      swap2\n      pop\n      pop\n      jump\t// out\n        /* \"#utility.yul\":5869:6044   */\n    tag_148:\n        /* \"#utility.yul\":6009:6036   */\n      0x4e6f7420656e6f75676820746f6b656e7320696e20706f6f6c00000000000000\n        /* \"#utility.yul\":6005:6006   */\n      0x00\n        /* \"#utility.yul\":5997:6003   */\n      dup3\n        /* \"#utility.yul\":5993:6007   */\n      add\n        /* \"#utility.yul\":5986:6037   */\n      mstore\n        /* \"#utility.yul\":5869:6044   */\n      pop\n      jump\t// out\n        /* \"#utility.yul\":6050:6416   */\n    tag_149:\n        /* \"#utility.yul\":6192:6195   */\n      0x00\n        /* \"#utility.yul\":6213:6280   */\n      tag_241\n        /* \"#utility.yul\":6277:6279   */\n      0x19\n        /* \"#utility.yul\":6272:6275   */\n      dup4\n        /* \"#utility.yul\":6213:6280   */\n      tag_147\n      jump\t// in\n    tag_241:\n        /* \"#utility.yul\":6206:6280   */\n      swap2\n      pop\n        /* \"#utility.yul\":6289:6382   */\n      tag_242\n        /* \"#utility.yul\":6378:6381   */\n      dup3\n        /* \"#utility.yul\":6289:6382   */\n      tag_148\n      jump\t// in\n    tag_242:\n        /* \"#utility.yul\":6407:6409   */\n      0x20\n        /* \"#utility.yul\":6402:6405   */\n      dup3\n        /* \"#utility.yul\":6398:6410   */\n      add\n        /* \"#utility.yul\":6391:6410   */\n      swap1\n      pop\n        /* \"#utility.yul\":6050:6416   */\n      swap2\n      swap1\n      pop\n      jump\t// out\n        /* \"#utility.yul\":6422:6841   */\n    tag_70:\n        /* \"#utility.yul\":6588:6592   */\n      0x00\n        /* \"#utility.yul\":6626:6628   */\n      0x20\n        /* \"#utility.yul\":6615:6624   */\n      dup3\n        /* \"#utility.yul\":6611:6629   */\n      add\n        /* \"#utility.yul\":6603:6629   */\n      swap1\n      pop\n        /* \"#utility.yul\":6675:6684   */\n      dup2\n        /* \"#utility.yul\":6669:6673   */\n      dup2\n        /* \"#utility.yul\":6665:6685   */\n      sub\n        /* \"#utility.yul\":6661:6662   */\n      0x00\n        /* \"#utility.yul\":6650:6659   */\n      dup4\n        /* \"#utility.yul\":6646:6663   */\n      add\n        /* \"#utility.yul\":6639:6686   */\n      mstore\n        /* \"#utility.yul\":6703:6834   */\n      tag_244\n        /* \"#utility.yul\":6829:6833   */\n      dup2\n        /* \"#utility.yul\":6703:6834   */\n      tag_149\n      jump\t// in\n    tag_244:\n        /* \"#utility.yul\":6695:6834   */\n      swap1\n      pop\n        /* \"#utility.yul\":6422:6841   */\n      swap2\n      swap1\n      pop\n      jump\t// out\n        /* \"#utility.yul\":6847:7027   */\n    tag_73:\n        /* \"#utility.yul\":6895:6972   */\n      0x4e487b7100000000000000000000000000000000000000000000000000000000\n        /* \"#utility.yul\":6892:6893   */\n      0x00\n        /* \"#utility.yul\":6885:6973   */\n      mstore\n        /* \"#utility.yul\":6992:6996   */\n      0x01\n        /* \"#utility.yul\":6989:6990   */\n      0x04\n        /* \"#utility.yul\":6982:6997   */\n      mstore\n        /* \"#utility.yul\":7016:7020   */\n      0x24\n        /* \"#utility.yul\":7013:7014   */\n      0x00\n        /* \"#utility.yul\":7006:7021   */\n      revert\n        /* \"#utility.yul\":7033:7365   */\n    tag_75:\n        /* \"#utility.yul\":7154:7158   */\n      0x00\n        /* \"#utility.yul\":7192:7194   */\n      0x40\n        /* \"#utility.yul\":7181:7190   */\n      dup3\n        /* \"#utility.yul\":7177:7195   */\n      add\n        /* \"#utility.yul\":7169:7195   */\n      swap1\n      pop\n        /* \"#utility.yul\":7205:7276   */\n      tag_247\n        /* \"#utility.yul\":7273:7274   */\n      0x00\n        /* \"#utility.yul\":7262:7271   */\n      dup4\n        /* \"#utility.yul\":7258:7275   */\n      add\n        /* \"#utility.yul\":7249:7255   */\n      dup6\n        /* \"#utility.yul\":7205:7276   */\n      tag_140\n      jump\t// in\n    tag_247:\n        /* \"#utility.yul\":7286:7358   */\n      tag_248\n        /* \"#utility.yul\":7354:7356   */\n      0x20\n        /* \"#utility.yul\":7343:7352   */\n      dup4\n        /* \"#utility.yul\":7339:7357   */\n      add\n        /* \"#utility.yul\":7330:7336   */\n      dup5\n        /* \"#utility.yul\":7286:7358   */\n      tag_124\n      jump\t// in\n    tag_248:\n        /* \"#utility.yul\":7033:7365   */\n      swap4\n      swap3\n      pop\n      pop\n      pop\n      jump\t// out\n        /* \"#utility.yul\":7371:7553   */\n    tag_150:\n        /* \"#utility.yul\":7511:7545   */\n      0x466c617368206c6f616e206861736e2774206265656e2070616964206261636b\n        /* \"#utility.yul\":7507:7508   */\n      0x00\n        /* \"#utility.yul\":7499:7505   */\n      dup3\n        /* \"#utility.yul\":7495:7509   */\n      add\n        /* \"#utility.yul\":7488:7546   */\n      mstore\n        /* \"#utility.yul\":7371:7553   */\n      pop\n      jump\t// out\n        /* \"#utility.yul\":7559:7925   */\n    tag_151:\n        /* \"#utility.yul\":7701:7704   */\n      0x00\n        /* \"#utility.yul\":7722:7789   */\n      tag_251\n        /* \"#utility.yul\":7786:7788   */\n      0x20\n        /* \"#utility.yul\":7781:7784   */\n      dup4\n        /* \"#utility.yul\":7722:7789   */\n      tag_147\n      jump\t// in\n    tag_251:\n        /* \"#utility.yul\":7715:7789   */\n      swap2\n      pop\n        /* \"#utility.yul\":7798:7891   */\n      tag_252\n        /* \"#utility.yul\":7887:7890   */\n      dup3\n        /* \"#utility.yul\":7798:7891   */\n      tag_150\n      jump\t// in\n    tag_252:\n        /* \"#utility.yul\":7916:7918   */\n      0x20\n        /* \"#utility.yul\":7911:7914   */\n      dup3\n        /* \"#utility.yul\":7907:7919   */\n      add\n        /* \"#utility.yul\":7900:7919   */\n      swap1\n      pop\n        /* \"#utility.yul\":7559:7925   */\n      swap2\n      swap1\n      pop\n      jump\t// out\n        /* \"#utility.yul\":7931:8350   */\n    tag_89:\n        /* \"#utility.yul\":8097:8101   */\n      0x00\n        /* \"#utility.yul\":8135:8137   */\n      0x20\n        /* \"#utility.yul\":8124:8133   */\n      dup3\n        /* \"#utility.yul\":8120:8138   */\n      add\n        /* \"#utility.yul\":8112:8138   */\n      swap1\n      pop\n        /* \"#utility.yul\":8184:8193   */\n      dup2\n        /* \"#utility.yul\":8178:8182   */\n      dup2\n        /* \"#utility.yul\":8174:8194   */\n      sub\n        /* \"#utility.yul\":8170:8171   */\n      0x00\n        /* \"#utility.yul\":8159:8168   */\n      dup4\n        /* \"#utility.yul\":8155:8172   */\n      add\n        /* \"#utility.yul\":8148:8195   */\n      mstore\n        /* \"#utility.yul\":8212:8343   */\n      tag_254\n        /* \"#utility.yul\":8338:8342   */\n      dup2\n        /* \"#utility.yul\":8212:8343   */\n      tag_151\n      jump\t// in\n    tag_254:\n        /* \"#utility.yul\":8204:8343   */\n      swap1\n      pop\n        /* \"#utility.yul\":7931:8350   */\n      swap2\n      swap1\n      pop\n      jump\t// out\n        /* \"#utility.yul\":8356:8537   */\n    tag_152:\n        /* \"#utility.yul\":8496:8529   */\n      0x4d757374206465706f736974206174206c65617374206f6e6520746f6b656e00\n        /* \"#utility.yul\":8492:8493   */\n      0x00\n        /* \"#utility.yul\":8484:8490   */\n      dup3\n        /* \"#utility.yul\":8480:8494   */\n      add\n        /* \"#utility.yul\":8473:8530   */\n      mstore\n        /* \"#utility.yul\":8356:8537   */\n      pop\n      jump\t// out\n        /* \"#utility.yul\":8543:8909   */\n    tag_153:\n        /* \"#utility.yul\":8685:8688   */\n      0x00\n        /* \"#utility.yul\":8706:8773   */\n      tag_257\n        /* \"#utility.yul\":8770:8772   */\n      0x1f\n        /* \"#utility.yul\":8765:8768   */\n      dup4\n        /* \"#utility.yul\":8706:8773   */\n      tag_147\n      jump\t// in\n    tag_257:\n        /* \"#utility.yul\":8699:8773   */\n      swap2\n      pop\n        /* \"#utility.yul\":8782:8875   */\n      tag_258\n        /* \"#utility.yul\":8871:8874   */\n      dup3\n        /* \"#utility.yul\":8782:8875   */\n      tag_152\n      jump\t// in\n    tag_258:\n        /* \"#utility.yul\":8900:8902   */\n      0x20\n        /* \"#utility.yul\":8895:8898   */\n      dup3\n        /* \"#utility.yul\":8891:8903   */\n      add\n        /* \"#utility.yul\":8884:8903   */\n      swap1\n      pop\n        /* \"#utility.yul\":8543:8909   */\n      swap2\n      swap1\n      pop\n      jump\t// out\n        /* \"#utility.yul\":8915:9334   */\n    tag_97:\n        /* \"#utility.yul\":9081:9085   */\n      0x00\n        /* \"#utility.yul\":9119:9121   */\n      0x20\n        /* \"#utility.yul\":9108:9117   */\n      dup3\n        /* \"#utility.yul\":9104:9122   */\n      add\n        /* \"#utility.yul\":9096:9122   */\n      swap1\n      pop\n        /* \"#utility.yul\":9168:9177   */\n      dup2\n        /* \"#utility.yul\":9162:9166   */\n      dup2\n        /* \"#utility.yul\":9158:9178   */\n      sub\n        /* \"#utility.yul\":9154:9155   */\n      0x00\n        /* \"#utility.yul\":9143:9152   */\n      dup4\n        /* \"#utility.yul\":9139:9156   */\n      add\n        /* \"#utility.yul\":9132:9179   */\n      mstore\n        /* \"#utility.yul\":9196:9327   */\n      tag_260\n        /* \"#utility.yul\":9322:9326   */\n      dup2\n        /* \"#utility.yul\":9196:9327   */\n      tag_153\n      jump\t// in\n    tag_260:\n        /* \"#utility.yul\":9188:9327   */\n      swap1\n      pop\n        /* \"#utility.yul\":8915:9334   */\n      swap2\n      swap1\n      pop\n      jump\t// out\n        /* \"#utility.yul\":9340:9782   */\n    tag_99:\n        /* \"#utility.yul\":9489:9493   */\n      0x00\n        /* \"#utility.yul\":9527:9529   */\n      0x60\n        /* \"#utility.yul\":9516:9525   */\n      dup3\n        /* \"#utility.yul\":9512:9530   */\n      add\n        /* \"#utility.yul\":9504:9530   */\n      swap1\n      pop\n        /* \"#utility.yul\":9540:9611   */\n      tag_262\n        /* \"#utility.yul\":9608:9609   */\n      0x00\n        /* \"#utility.yul\":9597:9606   */\n      dup4\n        /* \"#utility.yul\":9593:9610   */\n      add\n        /* \"#utility.yul\":9584:9590   */\n      dup7\n        /* \"#utility.yul\":9540:9611   */\n      tag_140\n      jump\t// in\n    tag_262:\n        /* \"#utility.yul\":9621:9693   */\n      tag_263\n        /* \"#utility.yul\":9689:9691   */\n      0x20\n        /* \"#utility.yul\":9678:9687   */\n      dup4\n        /* \"#utility.yul\":9674:9692   */\n      add\n        /* \"#utility.yul\":9665:9671   */\n      dup6\n        /* \"#utility.yul\":9621:9693   */\n      tag_140\n      jump\t// in\n    tag_263:\n        /* \"#utility.yul\":9703:9775   */\n      tag_264\n        /* \"#utility.yul\":9771:9773   */\n      0x40\n        /* \"#utility.yul\":9760:9769   */\n      dup4\n        /* \"#utility.yul\":9756:9774   */\n      add\n        /* \"#utility.yul\":9747:9753   */\n      dup5\n        /* \"#utility.yul\":9703:9775   */\n      tag_124\n      jump\t// in\n    tag_264:\n        /* \"#utility.yul\":9340:9782   */\n      swap5\n      swap4\n      pop\n      pop\n      pop\n      pop\n      jump\t// out\n        /* \"#utility.yul\":9788:9979   */\n    tag_104:\n        /* \"#utility.yul\":9828:9831   */\n      0x00\n        /* \"#utility.yul\":9847:9867   */\n      tag_266\n        /* \"#utility.yul\":9865:9866   */\n      dup3\n        /* \"#utility.yul\":9847:9867   */\n      tag_123\n      jump\t// in\n    tag_266:\n        /* \"#utility.yul\":9842:9867   */\n      swap2\n      pop\n        /* \"#utility.yul\":9881:9901   */\n      tag_267\n        /* \"#utility.yul\":9899:9900   */\n      dup4\n        /* \"#utility.yul\":9881:9901   */\n      tag_123\n      jump\t// in\n    tag_267:\n        /* \"#utility.yul\":9876:9901   */\n      swap3\n      pop\n        /* \"#utility.yul\":9924:9925   */\n      dup3\n        /* \"#utility.yul\":9921:9922   */\n      dup3\n        /* \"#utility.yul\":9917:9926   */\n      add\n        /* \"#utility.yul\":9910:9926   */\n      swap1\n      pop\n        /* \"#utility.yul\":9945:9948   */\n      dup1\n        /* \"#utility.yul\":9942:9943   */\n      dup3\n        /* \"#utility.yul\":9939:9949   */\n      gt\n        /* \"#utility.yul\":9936:9972   */\n      iszero\n      tag_268\n      jumpi\n        /* \"#utility.yul\":9952:9970   */\n      tag_269\n      tag_138\n      jump\t// in\n    tag_269:\n        /* \"#utility.yul\":9936:9972   */\n    tag_268:\n        /* \"#utility.yul\":9788:9979   */\n      swap3\n      swap2\n      pop\n      pop\n      jump\t// out\n        /* \"#utility.yul\":9985:10070   */\n    tag_154:\n        /* \"#utility.yul\":10030:10037   */\n      0x00\n        /* \"#utility.yul\":10059:10064   */\n      dup2\n        /* \"#utility.yul\":10048:10064   */\n      swap1\n      pop\n        /* \"#utility.yul\":9985:10070   */\n      swap2\n      swap1\n      pop\n      jump\t// out\n        /* \"#utility.yul\":10076:10162   */\n    tag_155:\n        /* \"#utility.yul\":10111:10118   */\n      0x00\n        /* \"#utility.yul\":10151:10155   */\n      0xff\n        /* \"#utility.yul\":10144:10149   */\n      dup3\n        /* \"#utility.yul\":10140:10156   */\n      and\n        /* \"#utility.yul\":10129:10156   */\n      swap1\n      pop\n        /* \"#utility.yul\":10076:10162   */\n      swap2\n      swap1\n      pop\n      jump\t// out\n        /* \"#utility.yul\":10168:10322   */\n    tag_156:\n        /* \"#utility.yul\":10224:10233   */\n      0x00\n        /* \"#utility.yul\":10257:10316   */\n      tag_273\n        /* \"#utility.yul\":10273:10315   */\n      tag_274\n        /* \"#utility.yul\":10282:10314   */\n      tag_275\n        /* \"#utility.yul\":10308:10313   */\n      dup5\n        /* \"#utility.yul\":10282:10314   */\n      tag_154\n      jump\t// in\n    tag_275:\n        /* \"#utility.yul\":10273:10315   */\n      tag_133\n      jump\t// in\n    tag_274:\n        /* \"#utility.yul\":10257:10316   */\n      tag_155\n      jump\t// in\n    tag_273:\n        /* \"#utility.yul\":10244:10316   */\n      swap1\n      pop\n        /* \"#utility.yul\":10168:10322   */\n      swap2\n      swap1\n      pop\n      jump\t// out\n        /* \"#utility.yul\":10328:10471   */\n    tag_157:\n        /* \"#utility.yul\":10421:10464   */\n      tag_277\n        /* \"#utility.yul\":10458:10463   */\n      dup2\n        /* \"#utility.yul\":10421:10464   */\n      tag_156\n      jump\t// in\n    tag_277:\n        /* \"#utility.yul\":10416:10419   */\n      dup3\n        /* \"#utility.yul\":10409:10465   */\n      mstore\n        /* \"#utility.yul\":10328:10471   */\n      pop\n      pop\n      jump\t// out\n        /* \"#utility.yul\":10477:10711   */\n    tag_110:\n        /* \"#utility.yul\":10576:10580   */\n      0x00\n        /* \"#utility.yul\":10614:10616   */\n      0x20\n        /* \"#utility.yul\":10603:10612   */\n      dup3\n        /* \"#utility.yul\":10599:10617   */\n      add\n        /* \"#utility.yul\":10591:10617   */\n      swap1\n      pop\n        /* \"#utility.yul\":10627:10704   */\n      tag_279\n        /* \"#utility.yul\":10701:10702   */\n      0x00\n        /* \"#utility.yul\":10690:10699   */\n      dup4\n        /* \"#utility.yul\":10686:10703   */\n      add\n        /* \"#utility.yul\":10677:10683   */\n      dup5\n        /* \"#utility.yul\":10627:10704   */\n      tag_157\n      jump\t// in\n    tag_279:\n        /* \"#utility.yul\":10477:10711   */\n      swap3\n      swap2\n      pop\n      pop\n      jump\t// out\n        /* \"#utility.yul\":10717:10815   */\n    tag_158:\n        /* \"#utility.yul\":10768:10774   */\n      0x00\n        /* \"#utility.yul\":10802:10807   */\n      dup2\n        /* \"#utility.yul\":10796:10808   */\n      mload\n        /* \"#utility.yul\":10786:10808   */\n      swap1\n      pop\n        /* \"#utility.yul\":10717:10815   */\n      swap2\n      swap1\n      pop\n      jump\t// out\n        /* \"#utility.yul\":10821:10968   */\n    tag_159:\n        /* \"#utility.yul\":10922:10933   */\n      0x00\n        /* \"#utility.yul\":10959:10962   */\n      dup2\n        /* \"#utility.yul\":10944:10962   */\n      swap1\n      pop\n        /* \"#utility.yul\":10821:10968   */\n      swap3\n      swap2\n      pop\n      pop\n      jump\t// out\n        /* \"#utility.yul\":10974:11220   */\n    tag_160:\n        /* \"#utility.yul\":11055:11056   */\n      0x00\n        /* \"#utility.yul\":11065:11178   */\n    tag_283:\n        /* \"#utility.yul\":11079:11085   */\n      dup4\n        /* \"#utility.yul\":11076:11077   */\n      dup2\n        /* \"#utility.yul\":11073:11086   */\n      lt\n        /* \"#utility.yul\":11065:11178   */\n      iszero\n      tag_285\n      jumpi\n        /* \"#utility.yul\":11164:11165   */\n      dup1\n        /* \"#utility.yul\":11159:11162   */\n      dup3\n        /* \"#utility.yul\":11155:11166   */\n      add\n        /* \"#utility.yul\":11149:11167   */\n      mload\n        /* \"#utility.yul\":11145:11146   */\n      dup2\n        /* \"#utility.yul\":11140:11143   */\n      dup5\n        /* \"#utility.yul\":11136:11147   */\n      add\n        /* \"#utility.yul\":11129:11168   */\n      mstore\n        /* \"#utility.yul\":11101:11103   */\n      0x20\n        /* \"#utility.yul\":11098:11099   */\n      dup2\n        /* \"#utility.yul\":11094:11104   */\n      add\n        /* \"#utility.yul\":11089:11104   */\n      swap1\n      pop\n        /* \"#utility.yul\":11065:11178   */\n      jump(tag_283)\n    tag_285:\n        /* \"#utility.yul\":11212:11213   */\n      0x00\n        /* \"#utility.yul\":11203:11209   */\n      dup5\n        /* \"#utility.yul\":11198:11201   */\n      dup5\n        /* \"#utility.yul\":11194:11210   */\n      add\n        /* \"#utility.yul\":11187:11214   */\n      mstore\n        /* \"#utility.yul\":11036:11220   */\n      pop\n        /* \"#utility.yul\":10974:11220   */\n      pop\n      pop\n      pop\n      jump\t// out\n        /* \"#utility.yul\":11226:11612   */\n    tag_161:\n        /* \"#utility.yul\":11330:11333   */\n      0x00\n        /* \"#utility.yul\":11358:11396   */\n      tag_287\n        /* \"#utility.yul\":11390:11395   */\n      dup3\n        /* \"#utility.yul\":11358:11396   */\n      tag_158\n      jump\t// in\n    tag_287:\n        /* \"#utility.yul\":11412:11500   */\n      tag_288\n        /* \"#utility.yul\":11493:11499   */\n      dup2\n        /* \"#utility.yul\":11488:11491   */\n      dup6\n        /* \"#utility.yul\":11412:11500   */\n      tag_159\n      jump\t// in\n    tag_288:\n        /* \"#utility.yul\":11405:11500   */\n      swap4\n      pop\n        /* \"#utility.yul\":11509:11574   */\n      tag_289\n        /* \"#utility.yul\":11567:11573   */\n      dup2\n        /* \"#utility.yul\":11562:11565   */\n      dup6\n        /* \"#utility.yul\":11555:11559   */\n      0x20\n        /* \"#utility.yul\":11548:11553   */\n      dup7\n        /* \"#utility.yul\":11544:11560   */\n      add\n        /* \"#utility.yul\":11509:11574   */\n      tag_160\n      jump\t// in\n    tag_289:\n        /* \"#utility.yul\":11599:11605   */\n      dup1\n        /* \"#utility.yul\":11594:11597   */\n      dup5\n        /* \"#utility.yul\":11590:11606   */\n      add\n        /* \"#utility.yul\":11583:11606   */\n      swap2\n      pop\n        /* \"#utility.yul\":11334:11612   */\n      pop\n        /* \"#utility.yul\":11226:11612   */\n      swap3\n      swap2\n      pop\n      pop\n      jump\t// out\n        /* \"#utility.yul\":11618:11889   */\n    tag_112:\n        /* \"#utility.yul\":11748:11751   */\n      0x00\n        /* \"#utility.yul\":11770:11863   */\n      tag_291\n        /* \"#utility.yul\":11859:11862   */\n      dup3\n        /* \"#utility.yul\":11850:11856   */\n      dup5\n        /* \"#utility.yul\":11770:11863   */\n      tag_161\n      jump\t// in\n    tag_291:\n        /* \"#utility.yul\":11763:11863   */\n      swap2\n      pop\n        /* \"#utility.yul\":11880:11883   */\n      dup2\n        /* \"#utility.yul\":11873:11883   */\n      swap1\n      pop\n        /* \"#utility.yul\":11618:11889   */\n      swap3\n      swap2\n      pop\n      pop\n      jump\t// out\n        /* \"#utility.yul\":11895:12076   */\n    tag_162:\n        /* \"#utility.yul\":12035:12068   */\n      0x5265656e7472616e637947756172643a207265656e7472616e742063616c6c00\n        /* \"#utility.yul\":12031:12032   */\n      0x00\n        /* \"#utility.yul\":12023:12029   */\n      dup3\n        /* \"#utility.yul\":12019:12033   */\n      add\n        /* \"#utility.yul\":12012:12069   */\n      mstore\n        /* \"#utility.yul\":11895:12076   */\n      pop\n      jump\t// out\n        /* \"#utility.yul\":12082:12448   */\n    tag_163:\n        /* \"#utility.yul\":12224:12227   */\n      0x00\n        /* \"#utility.yul\":12245:12312   */\n      tag_294\n        /* \"#utility.yul\":12309:12311   */\n      0x1f\n        /* \"#utility.yul\":12304:12307   */\n      dup4\n        /* \"#utility.yul\":12245:12312   */\n      tag_147\n      jump\t// in\n    tag_294:\n        /* \"#utility.yul\":12238:12312   */\n      swap2\n      pop\n        /* \"#utility.yul\":12321:12414   */\n      tag_295\n        /* \"#utility.yul\":12410:12413   */\n      dup3\n        /* \"#utility.yul\":12321:12414   */\n      tag_162\n      jump\t// in\n    tag_295:\n        /* \"#utility.yul\":12439:12441   */\n      0x20\n        /* \"#utility.yul\":12434:12437   */\n      dup3\n        /* \"#utility.yul\":12430:12442   */\n      add\n        /* \"#utility.yul\":12423:12442   */\n      swap1\n      pop\n        /* \"#utility.yul\":12082:12448   */\n      swap2\n      swap1\n      pop\n      jump\t// out\n        /* \"#utility.yul\":12454:12873   */\n    tag_121:\n        /* \"#utility.yul\":12620:12624   */\n      0x00\n        /* \"#utility.yul\":12658:12660   */\n      0x20\n        /* \"#utility.yul\":12647:12656   */\n      dup3\n        /* \"#utility.yul\":12643:12661   */\n      add\n        /* \"#utility.yul\":12635:12661   */\n      swap1\n      pop\n        /* \"#utility.yul\":12707:12716   */\n      dup2\n        /* \"#utility.yul\":12701:12705   */\n      dup2\n        /* \"#utility.yul\":12697:12717   */\n      sub\n        /* \"#utility.yul\":12693:12694   */\n      0x00\n        /* \"#utility.yul\":12682:12691   */\n      dup4\n        /* \"#utility.yul\":12678:12695   */\n      add\n        /* \"#utility.yul\":12671:12718   */\n      mstore\n        /* \"#utility.yul\":12735:12866   */\n      tag_297\n        /* \"#utility.yul\":12861:12865   */\n      dup2\n        /* \"#utility.yul\":12735:12866   */\n      tag_163\n      jump\t// in\n    tag_297:\n        /* \"#utility.yul\":12727:12866   */\n      swap1\n      pop\n        /* \"#utility.yul\":12454:12873   */\n      swap2\n      swap1\n      pop\n      jump\t// out\n\n    auxdata: 0xa2646970667358221220ed6e9ca90fa425ca698e69dbf546d8a66fc227dcd4e367d6b7eaeed8e48f2eae64736f6c63430008150033\n}\n\nsub_1: assembly {\n        /* \"shoot/\\xe6\\x91\\xb8\\xe5\\xba\\x952/2/2.sol\":1095:3130  contract ERC20 is IERC20 {... */\n      mstore(0x40, 0x80)\n        /* \"shoot/\\xe6\\x91\\xb8\\xe5\\xba\\x952/2/2.sol\":1389:1399  1000 ether */\n      0x3635c9adc5dea00000\n        /* \"shoot/\\xe6\\x91\\xb8\\xe5\\xba\\x952/2/2.sol\":1366:1399  uint256 totalSupply_ = 1000 ether */\n      0x02\n      sstore\n        /* \"shoot/\\xe6\\x91\\xb8\\xe5\\xba\\x952/2/2.sol\":1408:1476  constructor() {... */\n      callvalue\n      dup1\n      iszero\n      tag_1\n      jumpi\n      0x00\n      dup1\n      revert\n    tag_1:\n      pop\n        /* \"shoot/\\xe6\\x91\\xb8\\xe5\\xba\\x952/2/2.sol\":1456:1468  totalSupply_ */\n      sload(0x02)\n        /* \"shoot/\\xe6\\x91\\xb8\\xe5\\xba\\x952/2/2.sol\":1433:1441  balances */\n      0x00\n        /* \"shoot/\\xe6\\x91\\xb8\\xe5\\xba\\x952/2/2.sol\":1433:1453  balances[msg.sender] */\n      dup1\n        /* \"shoot/\\xe6\\x91\\xb8\\xe5\\xba\\x952/2/2.sol\":1442:1452  msg.sender */\n      caller\n        /* \"shoot/\\xe6\\x91\\xb8\\xe5\\xba\\x952/2/2.sol\":1433:1453  balances[msg.sender] */\n      0xffffffffffffffffffffffffffffffffffffffff\n      and\n      0xffffffffffffffffffffffffffffffffffffffff\n      and\n      dup2\n      mstore\n      0x20\n      add\n      swap1\n      dup2\n      mstore\n      0x20\n      add\n      0x00\n      keccak256\n        /* \"shoot/\\xe6\\x91\\xb8\\xe5\\xba\\x952/2/2.sol\":1433:1468  balances[msg.sender] = totalSupply_ */\n      dup2\n      swap1\n      sstore\n      pop\n        /* \"shoot/\\xe6\\x91\\xb8\\xe5\\xba\\x952/2/2.sol\":1095:3130  contract ERC20 is IERC20 {... */\n      dataSize(sub_0)\n      dup1\n      dataOffset(sub_0)\n      0x00\n      codecopy\n      0x00\n      return\n    stop\n\n    sub_0: assembly {\n            /* \"shoot/\\xe6\\x91\\xb8\\xe5\\xba\\x952/2/2.sol\":1095:3130  contract ERC20 is IERC20 {... */\n          mstore(0x40, 0x80)\n          callvalue\n          dup1\n          iszero\n          tag_1\n          jumpi\n          0x00\n          dup1\n          revert\n        tag_1:\n          pop\n          jumpi(tag_2, lt(calldatasize, 0x04))\n          shr(0xe0, calldataload(0x00))\n          dup1\n          0x313ce567\n          gt\n          tag_12\n          jumpi\n          dup1\n          0x313ce567\n          eq\n          tag_7\n          jumpi\n          dup1\n          0x70a08231\n          eq\n          tag_8\n          jumpi\n          dup1\n          0x95d89b41\n          eq\n          tag_9\n          jumpi\n          dup1\n          0xa9059cbb\n          eq\n          tag_10\n          jumpi\n          dup1\n          0xdd62ed3e\n          eq\n          tag_11\n          jumpi\n          jump(tag_2)\n        tag_12:\n          dup1\n          0x06fdde03\n          eq\n          tag_3\n          jumpi\n          dup1\n          0x095ea7b3\n          eq\n          tag_4\n          jumpi\n          dup1\n          0x18160ddd\n          eq\n          tag_5\n          jumpi\n          dup1\n          0x23b872dd\n          eq\n          tag_6\n          jumpi\n        tag_2:\n          0x00\n          dup1\n          revert\n            /* \"shoot/\\xe6\\x91\\xb8\\xe5\\xba\\x952/2/2.sol\":1127:1164  string public constant name = \"ERC20\" */\n        tag_3:\n          tag_13\n          tag_14\n          jump\t// in\n        tag_13:\n          mload(0x40)\n          tag_15\n          swap2\n          swap1\n          tag_16\n          jump\t// in\n        tag_15:\n          mload(0x40)\n          dup1\n          swap2\n          sub\n          swap1\n          return\n            /* \"shoot/\\xe6\\x91\\xb8\\xe5\\xba\\x952/2/2.sol\":2159:2415  function approve(address delegate, uint256 numTokens)... */\n        tag_4:\n          tag_17\n          0x04\n          dup1\n          calldatasize\n          sub\n          dup2\n          add\n          swap1\n          tag_18\n          swap2\n          swap1\n          tag_19\n          jump\t// in\n        tag_18:\n          tag_20\n          jump\t// in\n        tag_17:\n          mload(0x40)\n          tag_21\n          swap2\n          swap1\n          tag_22\n          jump\t// in\n        tag_21:\n          mload(0x40)\n          dup1\n          swap2\n          sub\n          swap1\n          return\n            /* \"shoot/\\xe6\\x91\\xb8\\xe5\\xba\\x952/2/2.sol\":1484:1584  function totalSupply() public view override returns (uint256) {... */\n        tag_5:\n          tag_23\n          tag_24\n          jump\t// in\n        tag_23:\n          mload(0x40)\n          tag_25\n          swap2\n          swap1\n          tag_26\n          jump\t// in\n        tag_25:\n          mload(0x40)\n          dup1\n          swap2\n          sub\n          swap1\n          return\n            /* \"shoot/\\xe6\\x91\\xb8\\xe5\\xba\\x952/2/2.sol\":2613:3127  function transferFrom(... */\n        tag_6:\n          tag_27\n          0x04\n          dup1\n          calldatasize\n          sub\n          dup2\n          add\n          swap1\n          tag_28\n          swap2\n          swap1\n          tag_29\n          jump\t// in\n        tag_28:\n          tag_30\n          jump\t// in\n        tag_27:\n          mload(0x40)\n          tag_31\n          swap2\n          swap1\n          tag_22\n          jump\t// in\n        tag_31:\n          mload(0x40)\n          dup1\n          swap2\n          sub\n          swap1\n          return\n            /* \"shoot/\\xe6\\x91\\xb8\\xe5\\xba\\x952/2/2.sol\":1215:1250  uint8 public constant decimals = 18 */\n        tag_7:\n          tag_32\n          tag_33\n          jump\t// in\n        tag_32:\n          mload(0x40)\n          tag_34\n          swap2\n          swap1\n          tag_35\n          jump\t// in\n        tag_34:\n          mload(0x40)\n          dup1\n          swap2\n          sub\n          swap1\n          return\n            /* \"shoot/\\xe6\\x91\\xb8\\xe5\\xba\\x952/2/2.sol\":1592:1757  function balanceOf(address tokenOwner)... */\n        tag_8:\n          tag_36\n          0x04\n          dup1\n          calldatasize\n          sub\n          dup2\n          add\n          swap1\n          tag_37\n          swap2\n          swap1\n          tag_38\n          jump\t// in\n        tag_37:\n          tag_39\n          jump\t// in\n        tag_36:\n          mload(0x40)\n          tag_40\n          swap2\n          swap1\n          tag_26\n          jump\t// in\n        tag_40:\n          mload(0x40)\n          dup1\n          swap2\n          sub\n          swap1\n          return\n            /* \"shoot/\\xe6\\x91\\xb8\\xe5\\xba\\x952/2/2.sol\":1171:1208  string public constant symbol = \"ERC\" */\n        tag_9:\n          tag_41\n          tag_42\n          jump\t// in\n        tag_41:\n          mload(0x40)\n          tag_43\n          swap2\n          swap1\n          tag_16\n          jump\t// in\n        tag_43:\n          mload(0x40)\n          dup1\n          swap2\n          sub\n          swap1\n          return\n            /* \"shoot/\\xe6\\x91\\xb8\\xe5\\xba\\x952/2/2.sol\":1765:2151  function transfer(address receiver, uint256 numTokens)... */\n        tag_10:\n          tag_44\n          0x04\n          dup1\n          calldatasize\n          sub\n          dup2\n          add\n          swap1\n          tag_45\n          swap2\n          swap1\n          tag_19\n          jump\t// in\n        tag_45:\n          tag_46\n          jump\t// in\n        tag_44:\n          mload(0x40)\n          tag_47\n          swap2\n          swap1\n          tag_22\n          jump\t// in\n        tag_47:\n          mload(0x40)\n          dup1\n          swap2\n          sub\n          swap1\n          return\n            /* \"shoot/\\xe6\\x91\\xb8\\xe5\\xba\\x952/2/2.sol\":2423:2605  function allowance(address owner, address delegate)... */\n        tag_11:\n          tag_48\n          0x04\n          dup1\n          calldatasize\n          sub\n          dup2\n          add\n          swap1\n          tag_49\n          swap2\n          swap1\n          tag_50\n          jump\t// in\n        tag_49:\n          tag_51\n          jump\t// in\n        tag_48:\n          mload(0x40)\n          tag_52\n          swap2\n          swap1\n          tag_26\n          jump\t// in\n        tag_52:\n          mload(0x40)\n          dup1\n          swap2\n          sub\n          swap1\n          return\n            /* \"shoot/\\xe6\\x91\\xb8\\xe5\\xba\\x952/2/2.sol\":1127:1164  string public constant name = \"ERC20\" */\n        tag_14:\n          mload(0x40)\n          dup1\n          0x40\n          add\n          0x40\n          mstore\n          dup1\n          0x05\n          dup2\n          mstore\n          0x20\n          add\n          0x4552433230000000000000000000000000000000000000000000000000000000\n          dup2\n          mstore\n          pop\n          dup2\n          jump\t// out\n            /* \"shoot/\\xe6\\x91\\xb8\\xe5\\xba\\x952/2/2.sol\":2159:2415  function approve(address delegate, uint256 numTokens)... */\n        tag_20:\n            /* \"shoot/\\xe6\\x91\\xb8\\xe5\\xba\\x952/2/2.sol\":2265:2269  bool */\n          0x00\n            /* \"shoot/\\xe6\\x91\\xb8\\xe5\\xba\\x952/2/2.sol\":2319:2328  numTokens */\n          dup2\n            /* \"shoot/\\xe6\\x91\\xb8\\xe5\\xba\\x952/2/2.sol\":2287:2294  allowed */\n          0x01\n            /* \"shoot/\\xe6\\x91\\xb8\\xe5\\xba\\x952/2/2.sol\":2287:2306  allowed[msg.sender] */\n          0x00\n            /* \"shoot/\\xe6\\x91\\xb8\\xe5\\xba\\x952/2/2.sol\":2295:2305  msg.sender */\n          caller\n            /* \"shoot/\\xe6\\x91\\xb8\\xe5\\xba\\x952/2/2.sol\":2287:2306  allowed[msg.sender] */\n          0xffffffffffffffffffffffffffffffffffffffff\n          and\n          0xffffffffffffffffffffffffffffffffffffffff\n          and\n          dup2\n          mstore\n          0x20\n          add\n          swap1\n          dup2\n          mstore\n          0x20\n          add\n          0x00\n          keccak256\n            /* \"shoot/\\xe6\\x91\\xb8\\xe5\\xba\\x952/2/2.sol\":2287:2316  allowed[msg.sender][delegate] */\n          0x00\n            /* \"shoot/\\xe6\\x91\\xb8\\xe5\\xba\\x952/2/2.sol\":2307:2315  delegate */\n          dup6\n            /* \"shoot/\\xe6\\x91\\xb8\\xe5\\xba\\x952/2/2.sol\":2287:2316  allowed[msg.sender][delegate] */\n          0xffffffffffffffffffffffffffffffffffffffff\n          and\n          0xffffffffffffffffffffffffffffffffffffffff\n          and\n          dup2\n          mstore\n          0x20\n          add\n          swap1\n          dup2\n          mstore\n          0x20\n          add\n          0x00\n          keccak256\n            /* \"shoot/\\xe6\\x91\\xb8\\xe5\\xba\\x952/2/2.sol\":2287:2328  allowed[msg.sender][delegate] = numTokens */\n          dup2\n          swap1\n          sstore\n          pop\n            /* \"shoot/\\xe6\\x91\\xb8\\xe5\\xba\\x952/2/2.sol\":2365:2373  delegate */\n          dup3\n            /* \"shoot/\\xe6\\x91\\xb8\\xe5\\xba\\x952/2/2.sol\":2344:2385  Approval(msg.sender, delegate, numTokens) */\n          0xffffffffffffffffffffffffffffffffffffffff\n          and\n            /* \"shoot/\\xe6\\x91\\xb8\\xe5\\xba\\x952/2/2.sol\":2353:2363  msg.sender */\n          caller\n            /* \"shoot/\\xe6\\x91\\xb8\\xe5\\xba\\x952/2/2.sol\":2344:2385  Approval(msg.sender, delegate, numTokens) */\n          0xffffffffffffffffffffffffffffffffffffffff\n          and\n          0x8c5be1e5ebec7d5bd14f71427d1e84f3dd0314c0f7b2291e5b200ac8c7c3b925\n            /* \"shoot/\\xe6\\x91\\xb8\\xe5\\xba\\x952/2/2.sol\":2375:2384  numTokens */\n          dup5\n            /* \"shoot/\\xe6\\x91\\xb8\\xe5\\xba\\x952/2/2.sol\":2344:2385  Approval(msg.sender, delegate, numTokens) */\n          mload(0x40)\n          tag_54\n          swap2\n          swap1\n          tag_26\n          jump\t// in\n        tag_54:\n          mload(0x40)\n          dup1\n          swap2\n          sub\n          swap1\n          log3\n            /* \"shoot/\\xe6\\x91\\xb8\\xe5\\xba\\x952/2/2.sol\":2403:2407  true */\n          0x01\n            /* \"shoot/\\xe6\\x91\\xb8\\xe5\\xba\\x952/2/2.sol\":2396:2407  return true */\n          swap1\n          pop\n            /* \"shoot/\\xe6\\x91\\xb8\\xe5\\xba\\x952/2/2.sol\":2159:2415  function approve(address delegate, uint256 numTokens)... */\n          swap3\n          swap2\n          pop\n          pop\n          jump\t// out\n            /* \"shoot/\\xe6\\x91\\xb8\\xe5\\xba\\x952/2/2.sol\":1484:1584  function totalSupply() public view override returns (uint256) {... */\n        tag_24:\n            /* \"shoot/\\xe6\\x91\\xb8\\xe5\\xba\\x952/2/2.sol\":1537:1544  uint256 */\n          0x00\n            /* \"shoot/\\xe6\\x91\\xb8\\xe5\\xba\\x952/2/2.sol\":1564:1576  totalSupply_ */\n          sload(0x02)\n            /* \"shoot/\\xe6\\x91\\xb8\\xe5\\xba\\x952/2/2.sol\":1557:1576  return totalSupply_ */\n          swap1\n          pop\n            /* \"shoot/\\xe6\\x91\\xb8\\xe5\\xba\\x952/2/2.sol\":1484:1584  function totalSupply() public view override returns (uint256) {... */\n          swap1\n          jump\t// out\n            /* \"shoot/\\xe6\\x91\\xb8\\xe5\\xba\\x952/2/2.sol\":2613:3127  function transferFrom(... */\n        tag_30:\n            /* \"shoot/\\xe6\\x91\\xb8\\xe5\\xba\\x952/2/2.sol\":2743:2747  bool */\n          0x00\n            /* \"shoot/\\xe6\\x91\\xb8\\xe5\\xba\\x952/2/2.sol\":2781:2789  balances */\n          dup1\n            /* \"shoot/\\xe6\\x91\\xb8\\xe5\\xba\\x952/2/2.sol\":2781:2796  balances[owner] */\n          0x00\n            /* \"shoot/\\xe6\\x91\\xb8\\xe5\\xba\\x952/2/2.sol\":2790:2795  owner */\n          dup6\n            /* \"shoot/\\xe6\\x91\\xb8\\xe5\\xba\\x952/2/2.sol\":2781:2796  balances[owner] */\n          0xffffffffffffffffffffffffffffffffffffffff\n          and\n          0xffffffffffffffffffffffffffffffffffffffff\n          and\n          dup2\n          mstore\n          0x20\n          add\n          swap1\n          dup2\n          mstore\n          0x20\n          add\n          0x00\n          keccak256\n          sload\n            /* \"shoot/\\xe6\\x91\\xb8\\xe5\\xba\\x952/2/2.sol\":2768:2777  numTokens */\n          dup3\n            /* \"shoot/\\xe6\\x91\\xb8\\xe5\\xba\\x952/2/2.sol\":2768:2796  numTokens <= balances[owner] */\n          gt\n          iszero\n            /* \"shoot/\\xe6\\x91\\xb8\\xe5\\xba\\x952/2/2.sol\":2760:2797  require(numTokens <= balances[owner]) */\n          tag_57\n          jumpi\n          0x00\n          dup1\n          revert\n        tag_57:\n            /* \"shoot/\\xe6\\x91\\xb8\\xe5\\xba\\x952/2/2.sol\":2829:2836  allowed */\n          0x01\n            /* \"shoot/\\xe6\\x91\\xb8\\xe5\\xba\\x952/2/2.sol\":2829:2843  allowed[owner] */\n          0x00\n            /* \"shoot/\\xe6\\x91\\xb8\\xe5\\xba\\x952/2/2.sol\":2837:2842  owner */\n          dup6\n            /* \"shoot/\\xe6\\x91\\xb8\\xe5\\xba\\x952/2/2.sol\":2829:2843  allowed[owner] */\n          0xffffffffffffffffffffffffffffffffffffffff\n          and\n          0xffffffffffffffffffffffffffffffffffffffff\n          and\n          dup2\n          mstore\n          0x20\n          add\n          swap1\n          dup2\n          mstore\n          0x20\n          add\n          0x00\n          keccak256\n            /* \"shoot/\\xe6\\x91\\xb8\\xe5\\xba\\x952/2/2.sol\":2829:2855  allowed[owner][msg.sender] */\n          0x00\n            /* \"shoot/\\xe6\\x91\\xb8\\xe5\\xba\\x952/2/2.sol\":2844:2854  msg.sender */\n          caller\n            /* \"shoot/\\xe6\\x91\\xb8\\xe5\\xba\\x952/2/2.sol\":2829:2855  allowed[owner][msg.sender] */\n          0xffffffffffffffffffffffffffffffffffffffff\n          and\n          0xffffffffffffffffffffffffffffffffffffffff\n          and\n          dup2\n          mstore\n          0x20\n          add\n          swap1\n          dup2\n          mstore\n          0x20\n          add\n          0x00\n          keccak256\n          sload\n            /* \"shoot/\\xe6\\x91\\xb8\\xe5\\xba\\x952/2/2.sol\":2816:2825  numTokens */\n          dup3\n            /* \"shoot/\\xe6\\x91\\xb8\\xe5\\xba\\x952/2/2.sol\":2816:2855  numTokens <= allowed[owner][msg.sender] */\n          gt\n          iszero\n            /* \"shoot/\\xe6\\x91\\xb8\\xe5\\xba\\x952/2/2.sol\":2808:2856  require(numTokens <= allowed[owner][msg.sender]) */\n          tag_58\n          jumpi\n          0x00\n          dup1\n          revert\n        tag_58:\n            /* \"shoot/\\xe6\\x91\\xb8\\xe5\\xba\\x952/2/2.sol\":2905:2914  numTokens */\n          dup2\n            /* \"shoot/\\xe6\\x91\\xb8\\xe5\\xba\\x952/2/2.sol\":2887:2895  balances */\n          0x00\n            /* \"shoot/\\xe6\\x91\\xb8\\xe5\\xba\\x952/2/2.sol\":2887:2902  balances[owner] */\n          dup1\n            /* \"shoot/\\xe6\\x91\\xb8\\xe5\\xba\\x952/2/2.sol\":2896:2901  owner */\n          dup7\n            /* \"shoot/\\xe6\\x91\\xb8\\xe5\\xba\\x952/2/2.sol\":2887:2902  balances[owner] */\n          0xffffffffffffffffffffffffffffffffffffffff\n          and\n          0xffffffffffffffffffffffffffffffffffffffff\n          and\n          dup2\n          mstore\n          0x20\n          add\n          swap1\n          dup2\n          mstore\n          0x20\n          add\n          0x00\n          keccak256\n          sload\n            /* \"shoot/\\xe6\\x91\\xb8\\xe5\\xba\\x952/2/2.sol\":2887:2914  balances[owner] - numTokens */\n          tag_59\n          swap2\n          swap1\n          tag_60\n          jump\t// in\n        tag_59:\n            /* \"shoot/\\xe6\\x91\\xb8\\xe5\\xba\\x952/2/2.sol\":2869:2877  balances */\n          0x00\n            /* \"shoot/\\xe6\\x91\\xb8\\xe5\\xba\\x952/2/2.sol\":2869:2884  balances[owner] */\n          dup1\n            /* \"shoot/\\xe6\\x91\\xb8\\xe5\\xba\\x952/2/2.sol\":2878:2883  owner */\n          dup7\n            /* \"shoot/\\xe6\\x91\\xb8\\xe5\\xba\\x952/2/2.sol\":2869:2884  balances[owner] */\n          0xffffffffffffffffffffffffffffffffffffffff\n          and\n          0xffffffffffffffffffffffffffffffffffffffff\n          and\n          dup2\n          mstore\n          0x20\n          add\n          swap1\n          dup2\n          mstore\n          0x20\n          add\n          0x00\n          keccak256\n            /* \"shoot/\\xe6\\x91\\xb8\\xe5\\xba\\x952/2/2.sol\":2869:2914  balances[owner] = balances[owner] - numTokens */\n          dup2\n          swap1\n          sstore\n          pop\n            /* \"shoot/\\xe6\\x91\\xb8\\xe5\\xba\\x952/2/2.sol\":2983:2992  numTokens */\n          dup2\n            /* \"shoot/\\xe6\\x91\\xb8\\xe5\\xba\\x952/2/2.sol\":2954:2961  allowed */\n          0x01\n            /* \"shoot/\\xe6\\x91\\xb8\\xe5\\xba\\x952/2/2.sol\":2954:2968  allowed[owner] */\n          0x00\n            /* \"shoot/\\xe6\\x91\\xb8\\xe5\\xba\\x952/2/2.sol\":2962:2967  owner */\n          dup7\n            /* \"shoot/\\xe6\\x91\\xb8\\xe5\\xba\\x952/2/2.sol\":2954:2968  allowed[owner] */\n          0xffffffffffffffffffffffffffffffffffffffff\n          and\n          0xffffffffffffffffffffffffffffffffffffffff\n          and\n          dup2\n          mstore\n          0x20\n          add\n          swap1\n          dup2\n          mstore\n          0x20\n          add\n          0x00\n          keccak256\n            /* \"shoot/\\xe6\\x91\\xb8\\xe5\\xba\\x952/2/2.sol\":2954:2980  allowed[owner][msg.sender] */\n          0x00\n            /* \"shoot/\\xe6\\x91\\xb8\\xe5\\xba\\x952/2/2.sol\":2969:2979  msg.sender */\n          caller\n            /* \"shoot/\\xe6\\x91\\xb8\\xe5\\xba\\x952/2/2.sol\":2954:2980  allowed[owner][msg.sender] */\n          0xffffffffffffffffffffffffffffffffffffffff\n          and\n          0xffffffffffffffffffffffffffffffffffffffff\n          and\n          dup2\n          mstore\n          0x20\n          add\n          swap1\n          dup2\n          mstore\n          0x20\n          add\n          0x00\n          keccak256\n          sload\n            /* \"shoot/\\xe6\\x91\\xb8\\xe5\\xba\\x952/2/2.sol\":2954:2992  allowed[owner][msg.sender] - numTokens */\n          tag_61\n          swap2\n          swap1\n          tag_60\n          jump\t// in\n        tag_61:\n            /* \"shoot/\\xe6\\x91\\xb8\\xe5\\xba\\x952/2/2.sol\":2925:2932  allowed */\n          0x01\n            /* \"shoot/\\xe6\\x91\\xb8\\xe5\\xba\\x952/2/2.sol\":2925:2939  allowed[owner] */\n          0x00\n            /* \"shoot/\\xe6\\x91\\xb8\\xe5\\xba\\x952/2/2.sol\":2933:2938  owner */\n          dup7\n            /* \"shoot/\\xe6\\x91\\xb8\\xe5\\xba\\x952/2/2.sol\":2925:2939  allowed[owner] */\n          0xffffffffffffffffffffffffffffffffffffffff\n          and\n          0xffffffffffffffffffffffffffffffffffffffff\n          and\n          dup2\n          mstore\n          0x20\n          add\n          swap1\n          dup2\n          mstore\n          0x20\n          add\n          0x00\n          keccak256\n            /* \"shoot/\\xe6\\x91\\xb8\\xe5\\xba\\x952/2/2.sol\":2925:2951  allowed[owner][msg.sender] */\n          0x00\n            /* \"shoot/\\xe6\\x91\\xb8\\xe5\\xba\\x952/2/2.sol\":2940:2950  msg.sender */\n          caller\n            /* \"shoot/\\xe6\\x91\\xb8\\xe5\\xba\\x952/2/2.sol\":2925:2951  allowed[owner][msg.sender] */\n          0xffffffffffffffffffffffffffffffffffffffff\n          and\n          0xffffffffffffffffffffffffffffffffffffffff\n          and\n          dup2\n          mstore\n          0x20\n          add\n          swap1\n          dup2\n          mstore\n          0x20\n          add\n          0x00\n          keccak256\n            /* \"shoot/\\xe6\\x91\\xb8\\xe5\\xba\\x952/2/2.sol\":2925:2992  allowed[owner][msg.sender] = allowed[owner][msg.sender] - numTokens */\n          dup2\n          swap1\n          sstore\n          pop\n            /* \"shoot/\\xe6\\x91\\xb8\\xe5\\xba\\x952/2/2.sol\":3039:3048  numTokens */\n          dup2\n            /* \"shoot/\\xe6\\x91\\xb8\\xe5\\xba\\x952/2/2.sol\":3021:3029  balances */\n          0x00\n            /* \"shoot/\\xe6\\x91\\xb8\\xe5\\xba\\x952/2/2.sol\":3021:3036  balances[buyer] */\n          dup1\n            /* \"shoot/\\xe6\\x91\\xb8\\xe5\\xba\\x952/2/2.sol\":3030:3035  buyer */\n          dup6\n            /* \"shoot/\\xe6\\x91\\xb8\\xe5\\xba\\x952/2/2.sol\":3021:3036  balances[buyer] */\n          0xffffffffffffffffffffffffffffffffffffffff\n          and\n          0xffffffffffffffffffffffffffffffffffffffff\n          and\n          dup2\n          mstore\n          0x20\n          add\n          swap1\n          dup2\n          mstore\n          0x20\n          add\n          0x00\n          keccak256\n          sload\n            /* \"shoot/\\xe6\\x91\\xb8\\xe5\\xba\\x952/2/2.sol\":3021:3048  balances[buyer] + numTokens */\n          tag_62\n          swap2\n          swap1\n          tag_63\n          jump\t// in\n        tag_62:\n            /* \"shoot/\\xe6\\x91\\xb8\\xe5\\xba\\x952/2/2.sol\":3003:3011  balances */\n          0x00\n            /* \"shoot/\\xe6\\x91\\xb8\\xe5\\xba\\x952/2/2.sol\":3003:3018  balances[buyer] */\n          dup1\n            /* \"shoot/\\xe6\\x91\\xb8\\xe5\\xba\\x952/2/2.sol\":3012:3017  buyer */\n          dup6\n            /* \"shoot/\\xe6\\x91\\xb8\\xe5\\xba\\x952/2/2.sol\":3003:3018  balances[buyer] */\n          0xffffffffffffffffffffffffffffffffffffffff\n          and\n          0xffffffffffffffffffffffffffffffffffffffff\n          and\n          dup2\n          mstore\n          0x20\n          add\n          swap1\n          dup2\n          mstore\n          0x20\n          add\n          0x00\n          keccak256\n            /* \"shoot/\\xe6\\x91\\xb8\\xe5\\xba\\x952/2/2.sol\":3003:3048  balances[buyer] = balances[buyer] + numTokens */\n          dup2\n          swap1\n          sstore\n          pop\n            /* \"shoot/\\xe6\\x91\\xb8\\xe5\\xba\\x952/2/2.sol\":3080:3085  buyer */\n          dup3\n            /* \"shoot/\\xe6\\x91\\xb8\\xe5\\xba\\x952/2/2.sol\":3064:3097  Transfer(owner, buyer, numTokens) */\n          0xffffffffffffffffffffffffffffffffffffffff\n          and\n            /* \"shoot/\\xe6\\x91\\xb8\\xe5\\xba\\x952/2/2.sol\":3073:3078  owner */\n          dup5\n            /* \"shoot/\\xe6\\x91\\xb8\\xe5\\xba\\x952/2/2.sol\":3064:3097  Transfer(owner, buyer, numTokens) */\n          0xffffffffffffffffffffffffffffffffffffffff\n          and\n          0xddf252ad1be2c89b69c2b068fc378daa952ba7f163c4a11628f55a4df523b3ef\n            /* \"shoot/\\xe6\\x91\\xb8\\xe5\\xba\\x952/2/2.sol\":3087:3096  numTokens */\n          dup5\n            /* \"shoot/\\xe6\\x91\\xb8\\xe5\\xba\\x952/2/2.sol\":3064:3097  Transfer(owner, buyer, numTokens) */\n          mload(0x40)\n          tag_64\n          swap2\n          swap1\n          tag_26\n          jump\t// in\n        tag_64:\n          mload(0x40)\n          dup1\n          swap2\n          sub\n          swap1\n          log3\n            /* \"shoot/\\xe6\\x91\\xb8\\xe5\\xba\\x952/2/2.sol\":3115:3119  true */\n          0x01\n            /* \"shoot/\\xe6\\x91\\xb8\\xe5\\xba\\x952/2/2.sol\":3108:3119  return true */\n          swap1\n          pop\n            /* \"shoot/\\xe6\\x91\\xb8\\xe5\\xba\\x952/2/2.sol\":2613:3127  function transferFrom(... */\n          swap4\n          swap3\n          pop\n          pop\n          pop\n          jump\t// out\n            /* \"shoot/\\xe6\\x91\\xb8\\xe5\\xba\\x952/2/2.sol\":1215:1250  uint8 public constant decimals = 18 */\n        tag_33:\n            /* \"shoot/\\xe6\\x91\\xb8\\xe5\\xba\\x952/2/2.sol\":1248:1250  18 */\n          0x12\n            /* \"shoot/\\xe6\\x91\\xb8\\xe5\\xba\\x952/2/2.sol\":1215:1250  uint8 public constant decimals = 18 */\n          dup2\n          jump\t// out\n            /* \"shoot/\\xe6\\x91\\xb8\\xe5\\xba\\x952/2/2.sol\":1592:1757  function balanceOf(address tokenOwner)... */\n        tag_39:\n            /* \"shoot/\\xe6\\x91\\xb8\\xe5\\xba\\x952/2/2.sol\":1697:1704  uint256 */\n          0x00\n            /* \"shoot/\\xe6\\x91\\xb8\\xe5\\xba\\x952/2/2.sol\":1729:1737  balances */\n          dup1\n            /* \"shoot/\\xe6\\x91\\xb8\\xe5\\xba\\x952/2/2.sol\":1729:1749  balances[tokenOwner] */\n          0x00\n            /* \"shoot/\\xe6\\x91\\xb8\\xe5\\xba\\x952/2/2.sol\":1738:1748  tokenOwner */\n          dup4\n            /* \"shoot/\\xe6\\x91\\xb8\\xe5\\xba\\x952/2/2.sol\":1729:1749  balances[tokenOwner] */\n          0xffffffffffffffffffffffffffffffffffffffff\n          and\n          0xffffffffffffffffffffffffffffffffffffffff\n          and\n          dup2\n          mstore\n          0x20\n          add\n          swap1\n          dup2\n          mstore\n          0x20\n          add\n          0x00\n          keccak256\n          sload\n            /* \"shoot/\\xe6\\x91\\xb8\\xe5\\xba\\x952/2/2.sol\":1722:1749  return balances[tokenOwner] */\n          swap1\n          pop\n            /* \"shoot/\\xe6\\x91\\xb8\\xe5\\xba\\x952/2/2.sol\":1592:1757  function balanceOf(address tokenOwner)... */\n          swap2\n          swap1\n          pop\n          jump\t// out\n            /* \"shoot/\\xe6\\x91\\xb8\\xe5\\xba\\x952/2/2.sol\":1171:1208  string public constant symbol = \"ERC\" */\n        tag_42:\n          mload(0x40)\n          dup1\n          0x40\n          add\n          0x40\n          mstore\n          dup1\n          0x03\n          dup2\n          mstore\n          0x20\n          add\n          0x4552430000000000000000000000000000000000000000000000000000000000\n          dup2\n          mstore\n          pop\n          dup2\n          jump\t// out\n            /* \"shoot/\\xe6\\x91\\xb8\\xe5\\xba\\x952/2/2.sol\":1765:2151  function transfer(address receiver, uint256 numTokens)... */\n        tag_46:\n            /* \"shoot/\\xe6\\x91\\xb8\\xe5\\xba\\x952/2/2.sol\":1872:1876  bool */\n          0x00\n            /* \"shoot/\\xe6\\x91\\xb8\\xe5\\xba\\x952/2/2.sol\":1915:1923  balances */\n          dup1\n            /* \"shoot/\\xe6\\x91\\xb8\\xe5\\xba\\x952/2/2.sol\":1915:1935  balances[msg.sender] */\n          0x00\n            /* \"shoot/\\xe6\\x91\\xb8\\xe5\\xba\\x952/2/2.sol\":1924:1934  msg.sender */\n          caller\n            /* \"shoot/\\xe6\\x91\\xb8\\xe5\\xba\\x952/2/2.sol\":1915:1935  balances[msg.sender] */\n          0xffffffffffffffffffffffffffffffffffffffff\n          and\n          0xffffffffffffffffffffffffffffffffffffffff\n          and\n          dup2\n          mstore\n          0x20\n          add\n          swap1\n          dup2\n          mstore\n          0x20\n          add\n          0x00\n          keccak256\n          sload\n            /* \"shoot/\\xe6\\x91\\xb8\\xe5\\xba\\x952/2/2.sol\":1902:1911  numTokens */\n          dup3\n            /* \"shoot/\\xe6\\x91\\xb8\\xe5\\xba\\x952/2/2.sol\":1902:1935  numTokens <= balances[msg.sender] */\n          gt\n          iszero\n            /* \"shoot/\\xe6\\x91\\xb8\\xe5\\xba\\x952/2/2.sol\":1894:1936  require(numTokens <= balances[msg.sender]) */\n          tag_67\n          jumpi\n          0x00\n          dup1\n          revert\n        tag_67:\n            /* \"shoot/\\xe6\\x91\\xb8\\xe5\\xba\\x952/2/2.sol\":1993:2002  numTokens */\n          dup2\n            /* \"shoot/\\xe6\\x91\\xb8\\xe5\\xba\\x952/2/2.sol\":1970:1978  balances */\n          0x00\n            /* \"shoot/\\xe6\\x91\\xb8\\xe5\\xba\\x952/2/2.sol\":1970:1990  balances[msg.sender] */\n          dup1\n            /* \"shoot/\\xe6\\x91\\xb8\\xe5\\xba\\x952/2/2.sol\":1979:1989  msg.sender */\n          caller\n            /* \"shoot/\\xe6\\x91\\xb8\\xe5\\xba\\x952/2/2.sol\":1970:1990  balances[msg.sender] */\n          0xffffffffffffffffffffffffffffffffffffffff\n          and\n          0xffffffffffffffffffffffffffffffffffffffff\n          and\n          dup2\n          mstore\n          0x20\n          add\n          swap1\n          dup2\n          mstore\n          0x20\n          add\n          0x00\n          keccak256\n          sload\n            /* \"shoot/\\xe6\\x91\\xb8\\xe5\\xba\\x952/2/2.sol\":1970:2002  balances[msg.sender] - numTokens */\n          tag_68\n          swap2\n          swap1\n          tag_60\n          jump\t// in\n        tag_68:\n            /* \"shoot/\\xe6\\x91\\xb8\\xe5\\xba\\x952/2/2.sol\":1947:1955  balances */\n          0x00\n            /* \"shoot/\\xe6\\x91\\xb8\\xe5\\xba\\x952/2/2.sol\":1947:1967  balances[msg.sender] */\n          dup1\n            /* \"shoot/\\xe6\\x91\\xb8\\xe5\\xba\\x952/2/2.sol\":1956:1966  msg.sender */\n          caller\n            /* \"shoot/\\xe6\\x91\\xb8\\xe5\\xba\\x952/2/2.sol\":1947:1967  balances[msg.sender] */\n          0xffffffffffffffffffffffffffffffffffffffff\n          and\n          0xffffffffffffffffffffffffffffffffffffffff\n          and\n          dup2\n          mstore\n          0x20\n          add\n          swap1\n          dup2\n          mstore\n          0x20\n          add\n          0x00\n          keccak256\n            /* \"shoot/\\xe6\\x91\\xb8\\xe5\\xba\\x952/2/2.sol\":1947:2002  balances[msg.sender] = balances[msg.sender] - numTokens */\n          dup2\n          swap1\n          sstore\n          pop\n            /* \"shoot/\\xe6\\x91\\xb8\\xe5\\xba\\x952/2/2.sol\":2055:2064  numTokens */\n          dup2\n            /* \"shoot/\\xe6\\x91\\xb8\\xe5\\xba\\x952/2/2.sol\":2034:2042  balances */\n          0x00\n            /* \"shoot/\\xe6\\x91\\xb8\\xe5\\xba\\x952/2/2.sol\":2034:2052  balances[receiver] */\n          dup1\n            /* \"shoot/\\xe6\\x91\\xb8\\xe5\\xba\\x952/2/2.sol\":2043:2051  receiver */\n          dup6\n            /* \"shoot/\\xe6\\x91\\xb8\\xe5\\xba\\x952/2/2.sol\":2034:2052  balances[receiver] */\n          0xffffffffffffffffffffffffffffffffffffffff\n          and\n          0xffffffffffffffffffffffffffffffffffffffff\n          and\n          dup2\n          mstore\n          0x20\n          add\n          swap1\n          dup2\n          mstore\n          0x20\n          add\n          0x00\n          keccak256\n          sload\n            /* \"shoot/\\xe6\\x91\\xb8\\xe5\\xba\\x952/2/2.sol\":2034:2064  balances[receiver] + numTokens */\n          tag_69\n          swap2\n          swap1\n          tag_63\n          jump\t// in\n        tag_69:\n            /* \"shoot/\\xe6\\x91\\xb8\\xe5\\xba\\x952/2/2.sol\":2013:2021  balances */\n          0x00\n            /* \"shoot/\\xe6\\x91\\xb8\\xe5\\xba\\x952/2/2.sol\":2013:2031  balances[receiver] */\n          dup1\n            /* \"shoot/\\xe6\\x91\\xb8\\xe5\\xba\\x952/2/2.sol\":2022:2030  receiver */\n          dup6\n            /* \"shoot/\\xe6\\x91\\xb8\\xe5\\xba\\x952/2/2.sol\":2013:2031  balances[receiver] */\n          0xffffffffffffffffffffffffffffffffffffffff\n          and\n          0xffffffffffffffffffffffffffffffffffffffff\n          and\n          dup2\n          mstore\n          0x20\n          add\n          swap1\n          dup2\n          mstore\n          0x20\n          add\n          0x00\n          keccak256\n            /* \"shoot/\\xe6\\x91\\xb8\\xe5\\xba\\x952/2/2.sol\":2013:2064  balances[receiver] = balances[receiver] + numTokens */\n          dup2\n          swap1\n          sstore\n          pop\n            /* \"shoot/\\xe6\\x91\\xb8\\xe5\\xba\\x952/2/2.sol\":2101:2109  receiver */\n          dup3\n            /* \"shoot/\\xe6\\x91\\xb8\\xe5\\xba\\x952/2/2.sol\":2080:2121  Transfer(msg.sender, receiver, numTokens) */\n          0xffffffffffffffffffffffffffffffffffffffff\n          and\n            /* \"shoot/\\xe6\\x91\\xb8\\xe5\\xba\\x952/2/2.sol\":2089:2099  msg.sender */\n          caller\n            /* \"shoot/\\xe6\\x91\\xb8\\xe5\\xba\\x952/2/2.sol\":2080:2121  Transfer(msg.sender, receiver, numTokens) */\n          0xffffffffffffffffffffffffffffffffffffffff\n          and\n          0xddf252ad1be2c89b69c2b068fc378daa952ba7f163c4a11628f55a4df523b3ef\n            /* \"shoot/\\xe6\\x91\\xb8\\xe5\\xba\\x952/2/2.sol\":2111:2120  numTokens */\n          dup5\n            /* \"shoot/\\xe6\\x91\\xb8\\xe5\\xba\\x952/2/2.sol\":2080:2121  Transfer(msg.sender, receiver, numTokens) */\n          mload(0x40)\n          tag_70\n          swap2\n          swap1\n          tag_26\n          jump\t// in\n        tag_70:\n          mload(0x40)\n          dup1\n          swap2\n          sub\n          swap1\n          log3\n            /* \"shoot/\\xe6\\x91\\xb8\\xe5\\xba\\x952/2/2.sol\":2139:2143  true */\n          0x01\n            /* \"shoot/\\xe6\\x91\\xb8\\xe5\\xba\\x952/2/2.sol\":2132:2143  return true */\n          swap1\n          pop\n            /* \"shoot/\\xe6\\x91\\xb8\\xe5\\xba\\x952/2/2.sol\":1765:2151  function transfer(address receiver, uint256 numTokens)... */\n          swap3\n          swap2\n          pop\n          pop\n          jump\t// out\n            /* \"shoot/\\xe6\\x91\\xb8\\xe5\\xba\\x952/2/2.sol\":2423:2605  function allowance(address owner, address delegate)... */\n        tag_51:\n            /* \"shoot/\\xe6\\x91\\xb8\\xe5\\xba\\x952/2/2.sol\":2541:2548  uint256 */\n          0x00\n            /* \"shoot/\\xe6\\x91\\xb8\\xe5\\xba\\x952/2/2.sol\":2573:2580  allowed */\n          0x01\n            /* \"shoot/\\xe6\\x91\\xb8\\xe5\\xba\\x952/2/2.sol\":2573:2587  allowed[owner] */\n          0x00\n            /* \"shoot/\\xe6\\x91\\xb8\\xe5\\xba\\x952/2/2.sol\":2581:2586  owner */\n          dup5\n            /* \"shoot/\\xe6\\x91\\xb8\\xe5\\xba\\x952/2/2.sol\":2573:2587  allowed[owner] */\n          0xffffffffffffffffffffffffffffffffffffffff\n          and\n          0xffffffffffffffffffffffffffffffffffffffff\n          and\n          dup2\n          mstore\n          0x20\n          add\n          swap1\n          dup2\n          mstore\n          0x20\n          add\n          0x00\n          keccak256\n            /* \"shoot/\\xe6\\x91\\xb8\\xe5\\xba\\x952/2/2.sol\":2573:2597  allowed[owner][delegate] */\n          0x00\n            /* \"shoot/\\xe6\\x91\\xb8\\xe5\\xba\\x952/2/2.sol\":2588:2596  delegate */\n          dup4\n            /* \"shoot/\\xe6\\x91\\xb8\\xe5\\xba\\x952/2/2.sol\":2573:2597  allowed[owner][delegate] */\n          0xffffffffffffffffffffffffffffffffffffffff\n          and\n          0xffffffffffffffffffffffffffffffffffffffff\n          and\n          dup2\n          mstore\n          0x20\n          add\n          swap1\n          dup2\n          mstore\n          0x20\n          add\n          0x00\n          keccak256\n          sload\n            /* \"shoot/\\xe6\\x91\\xb8\\xe5\\xba\\x952/2/2.sol\":2566:2597  return allowed[owner][delegate] */\n          swap1\n          pop\n            /* \"shoot/\\xe6\\x91\\xb8\\xe5\\xba\\x952/2/2.sol\":2423:2605  function allowance(address owner, address delegate)... */\n          swap3\n          swap2\n          pop\n          pop\n          jump\t// out\n            /* \"#utility.yul\":7:106   */\n        tag_72:\n            /* \"#utility.yul\":59:65   */\n          0x00\n            /* \"#utility.yul\":93:98   */\n          dup2\n            /* \"#utility.yul\":87:99   */\n          mload\n            /* \"#utility.yul\":77:99   */\n          swap1\n          pop\n            /* \"#utility.yul\":7:106   */\n          swap2\n          swap1\n          pop\n          jump\t// out\n            /* \"#utility.yul\":112:281   */\n        tag_73:\n            /* \"#utility.yul\":196:207   */\n          0x00\n            /* \"#utility.yul\":230:236   */\n          dup3\n            /* \"#utility.yul\":225:228   */\n          dup3\n            /* \"#utility.yul\":218:237   */\n          mstore\n            /* \"#utility.yul\":270:274   */\n          0x20\n            /* \"#utility.yul\":265:268   */\n          dup3\n            /* \"#utility.yul\":261:275   */\n          add\n            /* \"#utility.yul\":246:275   */\n          swap1\n          pop\n            /* \"#utility.yul\":112:281   */\n          swap3\n          swap2\n          pop\n          pop\n          jump\t// out\n            /* \"#utility.yul\":287:533   */\n        tag_74:\n            /* \"#utility.yul\":368:369   */\n          0x00\n            /* \"#utility.yul\":378:491   */\n        tag_97:\n            /* \"#utility.yul\":392:398   */\n          dup4\n            /* \"#utility.yul\":389:390   */\n          dup2\n            /* \"#utility.yul\":386:399   */\n          lt\n            /* \"#utility.yul\":378:491   */\n          iszero\n          tag_99\n          jumpi\n            /* \"#utility.yul\":477:478   */\n          dup1\n            /* \"#utility.yul\":472:475   */\n          dup3\n            /* \"#utility.yul\":468:479   */\n          add\n            /* \"#utility.yul\":462:480   */\n          mload\n            /* \"#utility.yul\":458:459   */\n          dup2\n            /* \"#utility.yul\":453:456   */\n          dup5\n            /* \"#utility.yul\":449:460   */\n          add\n            /* \"#utility.yul\":442:481   */\n          mstore\n            /* \"#utility.yul\":414:416   */\n          0x20\n            /* \"#utility.yul\":411:412   */\n          dup2\n            /* \"#utility.yul\":407:417   */\n          add\n            /* \"#utility.yul\":402:417   */\n          swap1\n          pop\n            /* \"#utility.yul\":378:491   */\n          jump(tag_97)\n        tag_99:\n            /* \"#utility.yul\":525:526   */\n          0x00\n            /* \"#utility.yul\":516:522   */\n          dup5\n            /* \"#utility.yul\":511:514   */\n          dup5\n            /* \"#utility.yul\":507:523   */\n          add\n            /* \"#utility.yul\":500:527   */\n          mstore\n            /* \"#utility.yul\":349:533   */\n          pop\n            /* \"#utility.yul\":287:533   */\n          pop\n          pop\n          pop\n          jump\t// out\n            /* \"#utility.yul\":539:641   */\n        tag_75:\n            /* \"#utility.yul\":580:586   */\n          0x00\n            /* \"#utility.yul\":631:633   */\n          0x1f\n            /* \"#utility.yul\":627:634   */\n          not\n            /* \"#utility.yul\":622:624   */\n          0x1f\n            /* \"#utility.yul\":615:620   */\n          dup4\n            /* \"#utility.yul\":611:625   */\n          add\n            /* \"#utility.yul\":607:635   */\n          and\n            /* \"#utility.yul\":597:635   */\n          swap1\n          pop\n            /* \"#utility.yul\":539:641   */\n          swap2\n          swap1\n          pop\n          jump\t// out\n            /* \"#utility.yul\":647:1024   */\n        tag_76:\n            /* \"#utility.yul\":735:738   */\n          0x00\n            /* \"#utility.yul\":763:802   */\n          tag_102\n            /* \"#utility.yul\":796:801   */\n          dup3\n            /* \"#utility.yul\":763:802   */\n          tag_72\n          jump\t// in\n        tag_102:\n            /* \"#utility.yul\":818:889   */\n          tag_103\n            /* \"#utility.yul\":882:888   */\n          dup2\n            /* \"#utility.yul\":877:880   */\n          dup6\n            /* \"#utility.yul\":818:889   */\n          tag_73\n          jump\t// in\n        tag_103:\n            /* \"#utility.yul\":811:889   */\n          swap4\n          pop\n            /* \"#utility.yul\":898:963   */\n          tag_104\n            /* \"#utility.yul\":956:962   */\n          dup2\n            /* \"#utility.yul\":951:954   */\n          dup6\n            /* \"#utility.yul\":944:948   */\n          0x20\n            /* \"#utility.yul\":937:942   */\n          dup7\n            /* \"#utility.yul\":933:949   */\n          add\n            /* \"#utility.yul\":898:963   */\n          tag_74\n          jump\t// in\n        tag_104:\n            /* \"#utility.yul\":988:1017   */\n          tag_105\n            /* \"#utility.yul\":1010:1016   */\n          dup2\n            /* \"#utility.yul\":988:1017   */\n          tag_75\n          jump\t// in\n        tag_105:\n            /* \"#utility.yul\":983:986   */\n          dup5\n            /* \"#utility.yul\":979:1018   */\n          add\n            /* \"#utility.yul\":972:1018   */\n          swap2\n          pop\n            /* \"#utility.yul\":739:1024   */\n          pop\n            /* \"#utility.yul\":647:1024   */\n          swap3\n          swap2\n          pop\n          pop\n          jump\t// out\n            /* \"#utility.yul\":1030:1343   */\n        tag_16:\n            /* \"#utility.yul\":1143:1147   */\n          0x00\n            /* \"#utility.yul\":1181:1183   */\n          0x20\n            /* \"#utility.yul\":1170:1179   */\n          dup3\n            /* \"#utility.yul\":1166:1184   */\n          add\n            /* \"#utility.yul\":1158:1184   */\n          swap1\n          pop\n            /* \"#utility.yul\":1230:1239   */\n          dup2\n            /* \"#utility.yul\":1224:1228   */\n          dup2\n            /* \"#utility.yul\":1220:1240   */\n          sub\n            /* \"#utility.yul\":1216:1217   */\n          0x00\n            /* \"#utility.yul\":1205:1214   */\n          dup4\n            /* \"#utility.yul\":1201:1218   */\n          add\n            /* \"#utility.yul\":1194:1241   */\n          mstore\n            /* \"#utility.yul\":1258:1336   */\n          tag_107\n            /* \"#utility.yul\":1331:1335   */\n          dup2\n            /* \"#utility.yul\":1322:1328   */\n          dup5\n            /* \"#utility.yul\":1258:1336   */\n          tag_76\n          jump\t// in\n        tag_107:\n            /* \"#utility.yul\":1250:1336   */\n          swap1\n          pop\n            /* \"#utility.yul\":1030:1343   */\n          swap3\n          swap2\n          pop\n          pop\n          jump\t// out\n            /* \"#utility.yul\":1430:1547   */\n        tag_78:\n            /* \"#utility.yul\":1539:1540   */\n          0x00\n            /* \"#utility.yul\":1536:1537   */\n          dup1\n            /* \"#utility.yul\":1529:1541   */\n          revert\n            /* \"#utility.yul\":1676:1802   */\n        tag_80:\n            /* \"#utility.yul\":1713:1720   */\n          0x00\n            /* \"#utility.yul\":1753:1795   */\n          0xffffffffffffffffffffffffffffffffffffffff\n            /* \"#utility.yul\":1746:1751   */\n          dup3\n            /* \"#utility.yul\":1742:1796   */\n          and\n            /* \"#utility.yul\":1731:1796   */\n          swap1\n          pop\n            /* \"#utility.yul\":1676:1802   */\n          swap2\n          swap1\n          pop\n          jump\t// out\n            /* \"#utility.yul\":1808:1904   */\n        tag_81:\n            /* \"#utility.yul\":1845:1852   */\n          0x00\n            /* \"#utility.yul\":1874:1898   */\n          tag_113\n            /* \"#utility.yul\":1892:1897   */\n          dup3\n            /* \"#utility.yul\":1874:1898   */\n          tag_80\n          jump\t// in\n        tag_113:\n            /* \"#utility.yul\":1863:1898   */\n          swap1\n          pop\n            /* \"#utility.yul\":1808:1904   */\n          swap2\n          swap1\n          pop\n          jump\t// out\n            /* \"#utility.yul\":1910:2032   */\n        tag_82:\n            /* \"#utility.yul\":1983:2007   */\n          tag_115\n            /* \"#utility.yul\":2001:2006   */\n          dup2\n            /* \"#utility.yul\":1983:2007   */\n          tag_81\n          jump\t// in\n        tag_115:\n            /* \"#utility.yul\":1976:1981   */\n          dup2\n            /* \"#utility.yul\":1973:2008   */\n          eq\n            /* \"#utility.yul\":1963:2026   */\n          tag_116\n          jumpi\n            /* \"#utility.yul\":2022:2023   */\n          0x00\n            /* \"#utility.yul\":2019:2020   */\n          dup1\n            /* \"#utility.yul\":2012:2024   */\n          revert\n            /* \"#utility.yul\":1963:2026   */\n        tag_116:\n            /* \"#utility.yul\":1910:2032   */\n          pop\n          jump\t// out\n            /* \"#utility.yul\":2038:2177   */\n        tag_83:\n            /* \"#utility.yul\":2084:2089   */\n          0x00\n            /* \"#utility.yul\":2122:2128   */\n          dup2\n            /* \"#utility.yul\":2109:2129   */\n          calldataload\n            /* \"#utility.yul\":2100:2129   */\n          swap1\n          pop\n            /* \"#utility.yul\":2138:2171   */\n          tag_118\n            /* \"#utility.yul\":2165:2170   */\n          dup2\n            /* \"#utility.yul\":2138:2171   */\n          tag_82\n          jump\t// in\n        tag_118:\n            /* \"#utility.yul\":2038:2177   */\n          swap3\n          swap2\n          pop\n          pop\n          jump\t// out\n            /* \"#utility.yul\":2183:2260   */\n        tag_84:\n            /* \"#utility.yul\":2220:2227   */\n          0x00\n            /* \"#utility.yul\":2249:2254   */\n          dup2\n            /* \"#utility.yul\":2238:2254   */\n          swap1\n          pop\n            /* \"#utility.yul\":2183:2260   */\n          swap2\n          swap1\n          pop\n          jump\t// out\n            /* \"#utility.yul\":2266:2388   */\n        tag_85:\n            /* \"#utility.yul\":2339:2363   */\n          tag_121\n            /* \"#utility.yul\":2357:2362   */\n          dup2\n            /* \"#utility.yul\":2339:2363   */\n          tag_84\n          jump\t// in\n        tag_121:\n            /* \"#utility.yul\":2332:2337   */\n          dup2\n            /* \"#utility.yul\":2329:2364   */\n          eq\n            /* \"#utility.yul\":2319:2382   */\n          tag_122\n          jumpi\n            /* \"#utility.yul\":2378:2379   */\n          0x00\n            /* \"#utility.yul\":2375:2376   */\n          dup1\n            /* \"#utility.yul\":2368:2380   */\n          revert\n            /* \"#utility.yul\":2319:2382   */\n        tag_122:\n            /* \"#utility.yul\":2266:2388   */\n          pop\n          jump\t// out\n            /* \"#utility.yul\":2394:2533   */\n        tag_86:\n            /* \"#utility.yul\":2440:2445   */\n          0x00\n            /* \"#utility.yul\":2478:2484   */\n          dup2\n            /* \"#utility.yul\":2465:2485   */\n          calldataload\n            /* \"#utility.yul\":2456:2485   */\n          swap1\n          pop\n            /* \"#utility.yul\":2494:2527   */\n          tag_124\n            /* \"#utility.yul\":2521:2526   */\n          dup2\n            /* \"#utility.yul\":2494:2527   */\n          tag_85\n          jump\t// in\n        tag_124:\n            /* \"#utility.yul\":2394:2533   */\n          swap3\n          swap2\n          pop\n          pop\n          jump\t// out\n            /* \"#utility.yul\":2539:3013   */\n        tag_19:\n            /* \"#utility.yul\":2607:2613   */\n          0x00\n            /* \"#utility.yul\":2615:2621   */\n          dup1\n            /* \"#utility.yul\":2664:2666   */\n          0x40\n            /* \"#utility.yul\":2652:2661   */\n          dup4\n            /* \"#utility.yul\":2643:2650   */\n          dup6\n            /* \"#utility.yul\":2639:2662   */\n          sub\n            /* \"#utility.yul\":2635:2667   */\n          slt\n            /* \"#utility.yul\":2632:2751   */\n          iszero\n          tag_126\n          jumpi\n            /* \"#utility.yul\":2670:2749   */\n          tag_127\n          tag_78\n          jump\t// in\n        tag_127:\n            /* \"#utility.yul\":2632:2751   */\n        tag_126:\n            /* \"#utility.yul\":2790:2791   */\n          0x00\n            /* \"#utility.yul\":2815:2868   */\n          tag_128\n            /* \"#utility.yul\":2860:2867   */\n          dup6\n            /* \"#utility.yul\":2851:2857   */\n          dup3\n            /* \"#utility.yul\":2840:2849   */\n          dup7\n            /* \"#utility.yul\":2836:2858   */\n          add\n            /* \"#utility.yul\":2815:2868   */\n          tag_83\n          jump\t// in\n        tag_128:\n            /* \"#utility.yul\":2805:2868   */\n          swap3\n          pop\n            /* \"#utility.yul\":2761:2878   */\n          pop\n            /* \"#utility.yul\":2917:2919   */\n          0x20\n            /* \"#utility.yul\":2943:2996   */\n          tag_129\n            /* \"#utility.yul\":2988:2995   */\n          dup6\n            /* \"#utility.yul\":2979:2985   */\n          dup3\n            /* \"#utility.yul\":2968:2977   */\n          dup7\n            /* \"#utility.yul\":2964:2986   */\n          add\n            /* \"#utility.yul\":2943:2996   */\n          tag_86\n          jump\t// in\n        tag_129:\n            /* \"#utility.yul\":2933:2996   */\n          swap2\n          pop\n            /* \"#utility.yul\":2888:3006   */\n          pop\n            /* \"#utility.yul\":2539:3013   */\n          swap3\n          pop\n          swap3\n          swap1\n          pop\n          jump\t// out\n            /* \"#utility.yul\":3019:3109   */\n        tag_87:\n            /* \"#utility.yul\":3053:3060   */\n          0x00\n            /* \"#utility.yul\":3096:3101   */\n          dup2\n            /* \"#utility.yul\":3089:3102   */\n          iszero\n            /* \"#utility.yul\":3082:3103   */\n          iszero\n            /* \"#utility.yul\":3071:3103   */\n          swap1\n          pop\n            /* \"#utility.yul\":3019:3109   */\n          swap2\n          swap1\n          pop\n          jump\t// out\n            /* \"#utility.yul\":3115:3224   */\n        tag_88:\n            /* \"#utility.yul\":3196:3217   */\n          tag_132\n            /* \"#utility.yul\":3211:3216   */\n          dup2\n            /* \"#utility.yul\":3196:3217   */\n          tag_87\n          jump\t// in\n        tag_132:\n            /* \"#utility.yul\":3191:3194   */\n          dup3\n            /* \"#utility.yul\":3184:3218   */\n          mstore\n            /* \"#utility.yul\":3115:3224   */\n          pop\n          pop\n          jump\t// out\n            /* \"#utility.yul\":3230:3440   */\n        tag_22:\n            /* \"#utility.yul\":3317:3321   */\n          0x00\n            /* \"#utility.yul\":3355:3357   */\n          0x20\n            /* \"#utility.yul\":3344:3353   */\n          dup3\n            /* \"#utility.yul\":3340:3358   */\n          add\n            /* \"#utility.yul\":3332:3358   */\n          swap1\n          pop\n            /* \"#utility.yul\":3368:3433   */\n          tag_134\n            /* \"#utility.yul\":3430:3431   */\n          0x00\n            /* \"#utility.yul\":3419:3428   */\n          dup4\n            /* \"#utility.yul\":3415:3432   */\n          add\n            /* \"#utility.yul\":3406:3412   */\n          dup5\n            /* \"#utility.yul\":3368:3433   */\n          tag_88\n          jump\t// in\n        tag_134:\n            /* \"#utility.yul\":3230:3440   */\n          swap3\n          swap2\n          pop\n          pop\n          jump\t// out\n            /* \"#utility.yul\":3446:3564   */\n        tag_89:\n            /* \"#utility.yul\":3533:3557   */\n          tag_136\n            /* \"#utility.yul\":3551:3556   */\n          dup2\n            /* \"#utility.yul\":3533:3557   */\n          tag_84\n          jump\t// in\n        tag_136:\n            /* \"#utility.yul\":3528:3531   */\n          dup3\n            /* \"#utility.yul\":3521:3558   */\n          mstore\n            /* \"#utility.yul\":3446:3564   */\n          pop\n          pop\n          jump\t// out\n            /* \"#utility.yul\":3570:3792   */\n        tag_26:\n            /* \"#utility.yul\":3663:3667   */\n          0x00\n            /* \"#utility.yul\":3701:3703   */\n          0x20\n            /* \"#utility.yul\":3690:3699   */\n          dup3\n            /* \"#utility.yul\":3686:3704   */\n          add\n            /* \"#utility.yul\":3678:3704   */\n          swap1\n          pop\n            /* \"#utility.yul\":3714:3785   */\n          tag_138\n            /* \"#utility.yul\":3782:3783   */\n          0x00\n            /* \"#utility.yul\":3771:3780   */\n          dup4\n            /* \"#utility.yul\":3767:3784   */\n          add\n            /* \"#utility.yul\":3758:3764   */\n          dup5\n            /* \"#utility.yul\":3714:3785   */\n          tag_89\n          jump\t// in\n        tag_138:\n            /* \"#utility.yul\":3570:3792   */\n          swap3\n          swap2\n          pop\n          pop\n          jump\t// out\n            /* \"#utility.yul\":3798:4417   */\n        tag_29:\n            /* \"#utility.yul\":3875:3881   */\n          0x00\n            /* \"#utility.yul\":3883:3889   */\n          dup1\n            /* \"#utility.yul\":3891:3897   */\n          0x00\n            /* \"#utility.yul\":3940:3942   */\n          0x60\n            /* \"#utility.yul\":3928:3937   */\n          dup5\n            /* \"#utility.yul\":3919:3926   */\n          dup7\n            /* \"#utility.yul\":3915:3938   */\n          sub\n            /* \"#utility.yul\":3911:3943   */\n          slt\n            /* \"#utility.yul\":3908:4027   */\n          iszero\n          tag_140\n          jumpi\n            /* \"#utility.yul\":3946:4025   */\n          tag_141\n          tag_78\n          jump\t// in\n        tag_141:\n            /* \"#utility.yul\":3908:4027   */\n        tag_140:\n            /* \"#utility.yul\":4066:4067   */\n          0x00\n            /* \"#utility.yul\":4091:4144   */\n          tag_142\n            /* \"#utility.yul\":4136:4143   */\n          dup7\n            /* \"#utility.yul\":4127:4133   */\n          dup3\n            /* \"#utility.yul\":4116:4125   */\n          dup8\n            /* \"#utility.yul\":4112:4134   */\n          add\n            /* \"#utility.yul\":4091:4144   */\n          tag_83\n          jump\t// in\n        tag_142:\n            /* \"#utility.yul\":4081:4144   */\n          swap4\n          pop\n            /* \"#utility.yul\":4037:4154   */\n          pop\n            /* \"#utility.yul\":4193:4195   */\n          0x20\n            /* \"#utility.yul\":4219:4272   */\n          tag_143\n            /* \"#utility.yul\":4264:4271   */\n          dup7\n            /* \"#utility.yul\":4255:4261   */\n          dup3\n            /* \"#utility.yul\":4244:4253   */\n          dup8\n            /* \"#utility.yul\":4240:4262   */\n          add\n            /* \"#utility.yul\":4219:4272   */\n          tag_83\n          jump\t// in\n        tag_143:\n            /* \"#utility.yul\":4209:4272   */\n          swap3\n          pop\n            /* \"#utility.yul\":4164:4282   */\n          pop\n            /* \"#utility.yul\":4321:4323   */\n          0x40\n            /* \"#utility.yul\":4347:4400   */\n          tag_144\n            /* \"#utility.yul\":4392:4399   */\n          dup7\n            /* \"#utility.yul\":4383:4389   */\n          dup3\n            /* \"#utility.yul\":4372:4381   */\n          dup8\n            /* \"#utility.yul\":4368:4390   */\n          add\n            /* \"#utility.yul\":4347:4400   */\n          tag_86\n          jump\t// in\n        tag_144:\n            /* \"#utility.yul\":4337:4400   */\n          swap2\n          pop\n            /* \"#utility.yul\":4292:4410   */\n          pop\n            /* \"#utility.yul\":3798:4417   */\n          swap3\n          pop\n          swap3\n          pop\n          swap3\n          jump\t// out\n            /* \"#utility.yul\":4423:4509   */\n        tag_90:\n            /* \"#utility.yul\":4458:4465   */\n          0x00\n            /* \"#utility.yul\":4498:4502   */\n          0xff\n            /* \"#utility.yul\":4491:4496   */\n          dup3\n            /* \"#utility.yul\":4487:4503   */\n          and\n            /* \"#utility.yul\":4476:4503   */\n          swap1\n          pop\n            /* \"#utility.yul\":4423:4509   */\n          swap2\n          swap1\n          pop\n          jump\t// out\n            /* \"#utility.yul\":4515:4627   */\n        tag_91:\n            /* \"#utility.yul\":4598:4620   */\n          tag_147\n            /* \"#utility.yul\":4614:4619   */\n          dup2\n            /* \"#utility.yul\":4598:4620   */\n          tag_90\n          jump\t// in\n        tag_147:\n            /* \"#utility.yul\":4593:4596   */\n          dup3\n            /* \"#utility.yul\":4586:4621   */\n          mstore\n            /* \"#utility.yul\":4515:4627   */\n          pop\n          pop\n          jump\t// out\n            /* \"#utility.yul\":4633:4847   */\n        tag_35:\n            /* \"#utility.yul\":4722:4726   */\n          0x00\n            /* \"#utility.yul\":4760:4762   */\n          0x20\n            /* \"#utility.yul\":4749:4758   */\n          dup3\n            /* \"#utility.yul\":4745:4763   */\n          add\n            /* \"#utility.yul\":4737:4763   */\n          swap1\n          pop\n            /* \"#utility.yul\":4773:4840   */\n          tag_149\n            /* \"#utility.yul\":4837:4838   */\n          0x00\n            /* \"#utility.yul\":4826:4835   */\n          dup4\n            /* \"#utility.yul\":4822:4839   */\n          add\n            /* \"#utility.yul\":4813:4819   */\n          dup5\n            /* \"#utility.yul\":4773:4840   */\n          tag_91\n          jump\t// in\n        tag_149:\n            /* \"#utility.yul\":4633:4847   */\n          swap3\n          swap2\n          pop\n          pop\n          jump\t// out\n            /* \"#utility.yul\":4853:5182   */\n        tag_38:\n            /* \"#utility.yul\":4912:4918   */\n          0x00\n            /* \"#utility.yul\":4961:4963   */\n          0x20\n            /* \"#utility.yul\":4949:4958   */\n          dup3\n            /* \"#utility.yul\":4940:4947   */\n          dup5\n            /* \"#utility.yul\":4936:4959   */\n          sub\n            /* \"#utility.yul\":4932:4964   */\n          slt\n            /* \"#utility.yul\":4929:5048   */\n          iszero\n          tag_151\n          jumpi\n            /* \"#utility.yul\":4967:5046   */\n          tag_152\n          tag_78\n          jump\t// in\n        tag_152:\n            /* \"#utility.yul\":4929:5048   */\n        tag_151:\n            /* \"#utility.yul\":5087:5088   */\n          0x00\n            /* \"#utility.yul\":5112:5165   */\n          tag_153\n            /* \"#utility.yul\":5157:5164   */\n          dup5\n            /* \"#utility.yul\":5148:5154   */\n          dup3\n            /* \"#utility.yul\":5137:5146   */\n          dup6\n            /* \"#utility.yul\":5133:5155   */\n          add\n            /* \"#utility.yul\":5112:5165   */\n          tag_83\n          jump\t// in\n        tag_153:\n            /* \"#utility.yul\":5102:5165   */\n          swap2\n          pop\n            /* \"#utility.yul\":5058:5175   */\n          pop\n            /* \"#utility.yul\":4853:5182   */\n          swap3\n          swap2\n          pop\n          pop\n          jump\t// out\n            /* \"#utility.yul\":5188:5662   */\n        tag_50:\n            /* \"#utility.yul\":5256:5262   */\n          0x00\n            /* \"#utility.yul\":5264:5270   */\n          dup1\n            /* \"#utility.yul\":5313:5315   */\n          0x40\n            /* \"#utility.yul\":5301:5310   */\n          dup4\n            /* \"#utility.yul\":5292:5299   */\n          dup6\n            /* \"#utility.yul\":5288:5311   */\n          sub\n            /* \"#utility.yul\":5284:5316   */\n          slt\n            /* \"#utility.yul\":5281:5400   */\n          iszero\n          tag_155\n          jumpi\n            /* \"#utility.yul\":5319:5398   */\n          tag_156\n          tag_78\n          jump\t// in\n        tag_156:\n            /* \"#utility.yul\":5281:5400   */\n        tag_155:\n            /* \"#utility.yul\":5439:5440   */\n          0x00\n            /* \"#utility.yul\":5464:5517   */\n          tag_157\n            /* \"#utility.yul\":5509:5516   */\n          dup6\n            /* \"#utility.yul\":5500:5506   */\n          dup3\n            /* \"#utility.yul\":5489:5498   */\n          dup7\n            /* \"#utility.yul\":5485:5507   */\n          add\n            /* \"#utility.yul\":5464:5517   */\n          tag_83\n          jump\t// in\n        tag_157:\n            /* \"#utility.yul\":5454:5517   */\n          swap3\n          pop\n            /* \"#utility.yul\":5410:5527   */\n          pop\n            /* \"#utility.yul\":5566:5568   */\n          0x20\n            /* \"#utility.yul\":5592:5645   */\n          tag_158\n            /* \"#utility.yul\":5637:5644   */\n          dup6\n            /* \"#utility.yul\":5628:5634   */\n          dup3\n            /* \"#utility.yul\":5617:5626   */\n          dup7\n            /* \"#utility.yul\":5613:5635   */\n          add\n            /* \"#utility.yul\":5592:5645   */\n          tag_83\n          jump\t// in\n        tag_158:\n            /* \"#utility.yul\":5582:5645   */\n          swap2\n          pop\n            /* \"#utility.yul\":5537:5655   */\n          pop\n            /* \"#utility.yul\":5188:5662   */\n          swap3\n          pop\n          swap3\n          swap1\n          pop\n          jump\t// out\n            /* \"#utility.yul\":5668:5848   */\n        tag_92:\n            /* \"#utility.yul\":5716:5793   */\n          0x4e487b7100000000000000000000000000000000000000000000000000000000\n            /* \"#utility.yul\":5713:5714   */\n          0x00\n            /* \"#utility.yul\":5706:5794   */\n          mstore\n            /* \"#utility.yul\":5813:5817   */\n          0x11\n            /* \"#utility.yul\":5810:5811   */\n          0x04\n            /* \"#utility.yul\":5803:5818   */\n          mstore\n            /* \"#utility.yul\":5837:5841   */\n          0x24\n            /* \"#utility.yul\":5834:5835   */\n          0x00\n            /* \"#utility.yul\":5827:5842   */\n          revert\n            /* \"#utility.yul\":5854:6048   */\n        tag_60:\n            /* \"#utility.yul\":5894:5898   */\n          0x00\n            /* \"#utility.yul\":5914:5934   */\n          tag_161\n            /* \"#utility.yul\":5932:5933   */\n          dup3\n            /* \"#utility.yul\":5914:5934   */\n          tag_84\n          jump\t// in\n        tag_161:\n            /* \"#utility.yul\":5909:5934   */\n          swap2\n          pop\n            /* \"#utility.yul\":5948:5968   */\n          tag_162\n            /* \"#utility.yul\":5966:5967   */\n          dup4\n            /* \"#utility.yul\":5948:5968   */\n          tag_84\n          jump\t// in\n        tag_162:\n            /* \"#utility.yul\":5943:5968   */\n          swap3\n          pop\n            /* \"#utility.yul\":5992:5993   */\n          dup3\n            /* \"#utility.yul\":5989:5990   */\n          dup3\n            /* \"#utility.yul\":5985:5994   */\n          sub\n            /* \"#utility.yul\":5977:5994   */\n          swap1\n          pop\n            /* \"#utility.yul\":6016:6017   */\n          dup2\n            /* \"#utility.yul\":6010:6014   */\n          dup2\n            /* \"#utility.yul\":6007:6018   */\n          gt\n            /* \"#utility.yul\":6004:6041   */\n          iszero\n          tag_163\n          jumpi\n            /* \"#utility.yul\":6021:6039   */\n          tag_164\n          tag_92\n          jump\t// in\n        tag_164:\n            /* \"#utility.yul\":6004:6041   */\n        tag_163:\n            /* \"#utility.yul\":5854:6048   */\n          swap3\n          swap2\n          pop\n          pop\n          jump\t// out\n            /* \"#utility.yul\":6054:6245   */\n        tag_63:\n            /* \"#utility.yul\":6094:6097   */\n          0x00\n            /* \"#utility.yul\":6113:6133   */\n          tag_166\n            /* \"#utility.yul\":6131:6132   */\n          dup3\n            /* \"#utility.yul\":6113:6133   */\n          tag_84\n          jump\t// in\n        tag_166:\n            /* \"#utility.yul\":6108:6133   */\n          swap2\n          pop\n            /* \"#utility.yul\":6147:6167   */\n          tag_167\n            /* \"#utility.yul\":6165:6166   */\n          dup4\n            /* \"#utility.yul\":6147:6167   */\n          tag_84\n          jump\t// in\n        tag_167:\n            /* \"#utility.yul\":6142:6167   */\n          swap3\n          pop\n            /* \"#utility.yul\":6190:6191   */\n          dup3\n            /* \"#utility.yul\":6187:6188   */\n          dup3\n            /* \"#utility.yul\":6183:6192   */\n          add\n            /* \"#utility.yul\":6176:6192   */\n          swap1\n          pop\n            /* \"#utility.yul\":6211:6214   */\n          dup1\n            /* \"#utility.yul\":6208:6209   */\n          dup3\n            /* \"#utility.yul\":6205:6215   */\n          gt\n            /* \"#utility.yul\":6202:6238   */\n          iszero\n          tag_168\n          jumpi\n            /* \"#utility.yul\":6218:6236   */\n          tag_169\n          tag_92\n          jump\t// in\n        tag_169:\n            /* \"#utility.yul\":6202:6238   */\n        tag_168:\n            /* \"#utility.yul\":6054:6245   */\n          swap3\n          swap2\n          pop\n          pop\n          jump\t// out\n\n        auxdata: 0xa2646970667358221220523b4f554e3808a1e5c737d027e8dc61ec58b4351224627e7bd1f55e9b9f26c564736f6c63430008150033\n    }\n}\n",
				"bytecode": {
					"linkReferences": {},
					"object": "60806040526040516100109061008e565b604051809103905ff080158015610029573d5f803e3d5ffd5b5060015f6101000a81548173ffffffffffffffffffffffffffffffffffffffff021916908373ffffffffffffffffffffffffffffffffffffffff160217905550683635c9adc5dea00000600255348015610081575f80fd5b5060015f8190555061009b565b610d3d80610fbc83390190565b610f14806100a85f395ff3fe60806040526004361061007e575f3560e01c8063dd49756e1161004d578063dd49756e14610113578063efedc6691461013b578063fa391c6414610165578063fc0c546a1461017b5761007f565b80633884d6351461008157806396365d44146100975780639ab603b9146100c1578063d1ae3e9c146100e95761007f565b5b005b34801561008c575f80fd5b506100956101a5565b005b3480156100a2575f80fd5b506100ab61029e565b6040516100b891906108cd565b60405180910390f35b3480156100cc575f80fd5b506100e760048036038101906100e29190610914565b6102a4565b005b3480156100f4575f80fd5b506100fd6105af565b60405161010a9190610959565b60405180910390f35b34801561011e575f80fd5b5061013960048036038101906101349190610914565b6105c1565b005b348015610146575f80fd5b5061014f6106c9565b60405161015c91906108cd565b60405180910390f35b348015610170575f80fd5b506101796106cf565b005b348015610186575f80fd5b5061018f61083a565b60405161019c91906109ec565b60405180910390f35b60035f9054906101000a900460ff16156101bd575f80fd5b600160035f6101000a81548160ff021916908315150217905550670de0b6b3a764000060025f8282546101f09190610a32565b9250508190555060015f9054906101000a900473ffffffffffffffffffffffffffffffffffffffff1673ffffffffffffffffffffffffffffffffffffffff1663a9059cbb33670de0b6b3a76400006040518363ffffffff1660e01b815260040161025b929190610abe565b6020604051808303815f875af1158015610277573d5f803e3d5ffd5b505050506040513d601f19601f8201168201806040525081019061029b9190610b0f565b50565b60025481565b6102ac61085f565b5f60015f9054906101000a900473ffffffffffffffffffffffffffffffffffffffff1673ffffffffffffffffffffffffffffffffffffffff166370a08231306040518263ffffffff1660e01b81526004016103079190610b3a565b602060405180830381865afa158015610322573d5f803e3d5ffd5b505050506040513d601f19601f820116820180604052508101906103469190610b67565b90508181101561038b576040517f08c379a000000000000000000000000000000000000000000000000000000000815260040161038290610bec565b60405180910390fd5b806002541461039d5761039c610c0a565b5b60015f9054906101000a900473ffffffffffffffffffffffffffffffffffffffff1673ffffffffffffffffffffffffffffffffffffffff1663a9059cbb33846040518363ffffffff1660e01b81526004016103f9929190610c37565b6020604051808303815f875af1158015610415573d5f803e3d5ffd5b505050506040513d601f19601f820116820180604052508101906104399190610b0f565b503373ffffffffffffffffffffffffffffffffffffffff16633572913060015f9054906101000a900473ffffffffffffffffffffffffffffffffffffffff16846040518363ffffffff1660e01b8152600401610496929190610c37565b5f604051808303815f87803b1580156104ad575f80fd5b505af11580156104bf573d5f803e3d5ffd5b505050505f60015f9054906101000a900473ffffffffffffffffffffffffffffffffffffffff1673ffffffffffffffffffffffffffffffffffffffff166370a08231306040518263ffffffff1660e01b815260040161051e9190610b3a565b602060405180830381865afa158015610539573d5f803e3d5ffd5b505050506040513d601f19601f8201168201806040525081019061055d9190610b67565b9050818110156105a2576040517f08c379a000000000000000000000000000000000000000000000000000000000815260040161059990610ca8565b60405180910390fd5b50506105ac6108ac565b50565b60035f9054906101000a900460ff1681565b6105c961085f565b5f811161060b576040517f08c379a000000000000000000000000000000000000000000000000000000000815260040161060290610d10565b60405180910390fd5b60015f9054906101000a900473ffffffffffffffffffffffffffffffffffffffff1673ffffffffffffffffffffffffffffffffffffffff166323b872dd3330846040518463ffffffff1660e01b815260040161066993929190610d2e565b6020604051808303815f875af1158015610685573d5f803e3d5ffd5b505050506040513d601f19601f820116820180604052508101906106a99190610b0f565b50806002546106b89190610d63565b6002819055506106c66108ac565b50565b60045481565b5f6004819055503273ffffffffffffffffffffffffffffffffffffffff163373ffffffffffffffffffffffffffffffffffffffff161461072357601960045f82825461071b9190610d63565b925050819055505b5f3073ffffffffffffffffffffffffffffffffffffffff165f60405160240161074c9190610ddb565b6040516020818303038152906040527f9ab603b9000000000000000000000000000000000000000000000000000000007bffffffffffffffffffffffffffffffffffffffffffffffffffffffff19166020820180517bffffffffffffffffffffffffffffffffffffffffffffffffffffffff83818316178352505050506040516107d69190610e60565b5f604051808303815f865af19150503d805f811461080f576040519150601f19603f3d011682016040523d82523d5f602084013e610814565b606091505b505090508061083757604b60045f82825461082f9190610d63565b925050819055505b50565b60015f9054906101000a900473ffffffffffffffffffffffffffffffffffffffff1681565b60025f54036108a3576040517f08c379a000000000000000000000000000000000000000000000000000000000815260040161089a90610ec0565b60405180910390fd5b60025f81905550565b60015f81905550565b5f819050919050565b6108c7816108b5565b82525050565b5f6020820190506108e05f8301846108be565b92915050565b5f80fd5b6108f3816108b5565b81146108fd575f80fd5b50565b5f8135905061090e816108ea565b92915050565b5f60208284031215610929576109286108e6565b5b5f61093684828501610900565b91505092915050565b5f8115159050919050565b6109538161093f565b82525050565b5f60208201905061096c5f83018461094a565b92915050565b5f73ffffffffffffffffffffffffffffffffffffffff82169050919050565b5f819050919050565b5f6109b46109af6109aa84610972565b610991565b610972565b9050919050565b5f6109c58261099a565b9050919050565b5f6109d6826109bb565b9050919050565b6109e6816109cc565b82525050565b5f6020820190506109ff5f8301846109dd565b92915050565b7f4e487b71000000000000000000000000000000000000000000000000000000005f52601160045260245ffd5b5f610a3c826108b5565b9150610a47836108b5565b9250828203905081811115610a5f57610a5e610a05565b5b92915050565b5f610a6f82610972565b9050919050565b610a7f81610a65565b82525050565b5f819050919050565b5f610aa8610aa3610a9e84610a85565b610991565b6108b5565b9050919050565b610ab881610a8e565b82525050565b5f604082019050610ad15f830185610a76565b610ade6020830184610aaf565b9392505050565b610aee8161093f565b8114610af8575f80fd5b50565b5f81519050610b0981610ae5565b92915050565b5f60208284031215610b2457610b236108e6565b5b5f610b3184828501610afb565b91505092915050565b5f602082019050610b4d5f830184610a76565b92915050565b5f81519050610b61816108ea565b92915050565b5f60208284031215610b7c57610b7b6108e6565b5b5f610b8984828501610b53565b91505092915050565b5f82825260208201905092915050565b7f4e6f7420656e6f75676820746f6b656e7320696e20706f6f6c000000000000005f82015250565b5f610bd6601983610b92565b9150610be182610ba2565b602082019050919050565b5f6020820190508181035f830152610c0381610bca565b9050919050565b7f4e487b71000000000000000000000000000000000000000000000000000000005f52600160045260245ffd5b5f604082019050610c4a5f830185610a76565b610c5760208301846108be565b9392505050565b7f466c617368206c6f616e206861736e2774206265656e2070616964206261636b5f82015250565b5f610c92602083610b92565b9150610c9d82610c5e565b602082019050919050565b5f6020820190508181035f830152610cbf81610c86565b9050919050565b7f4d757374206465706f736974206174206c65617374206f6e6520746f6b656e005f82015250565b5f610cfa601f83610b92565b9150610d0582610cc6565b602082019050919050565b5f6020820190508181035f830152610d2781610cee565b9050919050565b5f606082019050610d415f830186610a76565b610d4e6020830185610a76565b610d5b60408301846108be565b949350505050565b5f610d6d826108b5565b9150610d78836108b5565b9250828201905080821115610d9057610d8f610a05565b5b92915050565b5f819050919050565b5f60ff82169050919050565b5f610dc5610dc0610dbb84610d96565b610991565b610d9f565b9050919050565b610dd581610dab565b82525050565b5f602082019050610dee5f830184610dcc565b92915050565b5f81519050919050565b5f81905092915050565b5f5b83811015610e25578082015181840152602081019050610e0a565b5f8484015250505050565b5f610e3a82610df4565b610e448185610dfe565b9350610e54818560208601610e08565b80840191505092915050565b5f610e6b8284610e30565b915081905092915050565b7f5265656e7472616e637947756172643a207265656e7472616e742063616c6c005f82015250565b5f610eaa601f83610b92565b9150610eb582610e76565b602082019050919050565b5f6020820190508181035f830152610ed781610e9e565b905091905056fea2646970667358221220ed6e9ca90fa425ca698e69dbf546d8a66fc227dcd4e367d6b7eaeed8e48f2eae64736f6c634300081500336080604052683635c9adc5dea0000060025534801561001c575f80fd5b506002545f803373ffffffffffffffffffffffffffffffffffffffff1673ffffffffffffffffffffffffffffffffffffffff1681526020019081526020015f2081905550610cd08061006d5f395ff3fe608060405234801561000f575f80fd5b5060043610610091575f3560e01c8063313ce56711610064578063313ce5671461013157806370a082311461014f57806395d89b411461017f578063a9059cbb1461019d578063dd62ed3e146101cd57610091565b806306fdde0314610095578063095ea7b3146100b357806318160ddd146100e357806323b872dd14610101575b5f80fd5b61009d6101fd565b6040516100aa91906109d0565b60405180910390f35b6100cd60048036038101906100c89190610a81565b610236565b6040516100da9190610ad9565b60405180910390f35b6100eb610323565b6040516100f89190610b01565b60405180910390f35b61011b60048036038101906101169190610b1a565b61032c565b6040516101289190610ad9565b60405180910390f35b610139610679565b6040516101469190610b85565b60405180910390f35b61016960048036038101906101649190610b9e565b61067e565b6040516101769190610b01565b60405180910390f35b6101876106c3565b60405161019491906109d0565b60405180910390f35b6101b760048036038101906101b29190610a81565b6106fc565b6040516101c49190610ad9565b60405180910390f35b6101e760048036038101906101e29190610bc9565b6108c4565b6040516101f49190610b01565b60405180910390f35b6040518060400160405280600581526020017f455243323000000000000000000000000000000000000000000000000000000081525081565b5f8160015f3373ffffffffffffffffffffffffffffffffffffffff1673ffffffffffffffffffffffffffffffffffffffff1681526020019081526020015f205f8573ffffffffffffffffffffffffffffffffffffffff1673ffffffffffffffffffffffffffffffffffffffff1681526020019081526020015f20819055508273ffffffffffffffffffffffffffffffffffffffff163373ffffffffffffffffffffffffffffffffffffffff167f8c5be1e5ebec7d5bd14f71427d1e84f3dd0314c0f7b2291e5b200ac8c7c3b925846040516103119190610b01565b60405180910390a36001905092915050565b5f600254905090565b5f805f8573ffffffffffffffffffffffffffffffffffffffff1673ffffffffffffffffffffffffffffffffffffffff1681526020019081526020015f2054821115610375575f80fd5b60015f8573ffffffffffffffffffffffffffffffffffffffff1673ffffffffffffffffffffffffffffffffffffffff1681526020019081526020015f205f3373ffffffffffffffffffffffffffffffffffffffff1673ffffffffffffffffffffffffffffffffffffffff1681526020019081526020015f20548211156103f9575f80fd5b815f808673ffffffffffffffffffffffffffffffffffffffff1673ffffffffffffffffffffffffffffffffffffffff1681526020019081526020015f20546104419190610c34565b5f808673ffffffffffffffffffffffffffffffffffffffff1673ffffffffffffffffffffffffffffffffffffffff1681526020019081526020015f20819055508160015f8673ffffffffffffffffffffffffffffffffffffffff1673ffffffffffffffffffffffffffffffffffffffff1681526020019081526020015f205f3373ffffffffffffffffffffffffffffffffffffffff1673ffffffffffffffffffffffffffffffffffffffff1681526020019081526020015f20546105059190610c34565b60015f8673ffffffffffffffffffffffffffffffffffffffff1673ffffffffffffffffffffffffffffffffffffffff1681526020019081526020015f205f3373ffffffffffffffffffffffffffffffffffffffff1673ffffffffffffffffffffffffffffffffffffffff1681526020019081526020015f2081905550815f808573ffffffffffffffffffffffffffffffffffffffff1673ffffffffffffffffffffffffffffffffffffffff1681526020019081526020015f20546105c99190610c67565b5f808573ffffffffffffffffffffffffffffffffffffffff1673ffffffffffffffffffffffffffffffffffffffff1681526020019081526020015f20819055508273ffffffffffffffffffffffffffffffffffffffff168473ffffffffffffffffffffffffffffffffffffffff167fddf252ad1be2c89b69c2b068fc378daa952ba7f163c4a11628f55a4df523b3ef846040516106669190610b01565b60405180910390a3600190509392505050565b601281565b5f805f8373ffffffffffffffffffffffffffffffffffffffff1673ffffffffffffffffffffffffffffffffffffffff1681526020019081526020015f20549050919050565b6040518060400160405280600381526020017f455243000000000000000000000000000000000000000000000000000000000081525081565b5f805f3373ffffffffffffffffffffffffffffffffffffffff1673ffffffffffffffffffffffffffffffffffffffff1681526020019081526020015f2054821115610745575f80fd5b815f803373ffffffffffffffffffffffffffffffffffffffff1673ffffffffffffffffffffffffffffffffffffffff1681526020019081526020015f205461078d9190610c34565b5f803373ffffffffffffffffffffffffffffffffffffffff1673ffffffffffffffffffffffffffffffffffffffff1681526020019081526020015f2081905550815f808573ffffffffffffffffffffffffffffffffffffffff1673ffffffffffffffffffffffffffffffffffffffff1681526020019081526020015f20546108159190610c67565b5f808573ffffffffffffffffffffffffffffffffffffffff1673ffffffffffffffffffffffffffffffffffffffff1681526020019081526020015f20819055508273ffffffffffffffffffffffffffffffffffffffff163373ffffffffffffffffffffffffffffffffffffffff167fddf252ad1be2c89b69c2b068fc378daa952ba7f163c4a11628f55a4df523b3ef846040516108b29190610b01565b60405180910390a36001905092915050565b5f60015f8473ffffffffffffffffffffffffffffffffffffffff1673ffffffffffffffffffffffffffffffffffffffff1681526020019081526020015f205f8373ffffffffffffffffffffffffffffffffffffffff1673ffffffffffffffffffffffffffffffffffffffff1681526020019081526020015f2054905092915050565b5f81519050919050565b5f82825260208201905092915050565b5f5b8381101561097d578082015181840152602081019050610962565b5f8484015250505050565b5f601f19601f8301169050919050565b5f6109a282610946565b6109ac8185610950565b93506109bc818560208601610960565b6109c581610988565b840191505092915050565b5f6020820190508181035f8301526109e88184610998565b905092915050565b5f80fd5b5f73ffffffffffffffffffffffffffffffffffffffff82169050919050565b5f610a1d826109f4565b9050919050565b610a2d81610a13565b8114610a37575f80fd5b50565b5f81359050610a4881610a24565b92915050565b5f819050919050565b610a6081610a4e565b8114610a6a575f80fd5b50565b5f81359050610a7b81610a57565b92915050565b5f8060408385031215610a9757610a966109f0565b5b5f610aa485828601610a3a565b9250506020610ab585828601610a6d565b9150509250929050565b5f8115159050919050565b610ad381610abf565b82525050565b5f602082019050610aec5f830184610aca565b92915050565b610afb81610a4e565b82525050565b5f602082019050610b145f830184610af2565b92915050565b5f805f60608486031215610b3157610b306109f0565b5b5f610b3e86828701610a3a565b9350506020610b4f86828701610a3a565b9250506040610b6086828701610a6d565b9150509250925092565b5f60ff82169050919050565b610b7f81610b6a565b82525050565b5f602082019050610b985f830184610b76565b92915050565b5f60208284031215610bb357610bb26109f0565b5b5f610bc084828501610a3a565b91505092915050565b5f8060408385031215610bdf57610bde6109f0565b5b5f610bec85828601610a3a565b9250506020610bfd85828601610a3a565b9150509250929050565b7f4e487b71000000000000000000000000000000000000000000000000000000005f52601160045260245ffd5b5f610c3e82610a4e565b9150610c4983610a4e565b9250828203905081811115610c6157610c60610c07565b5b92915050565b5f610c7182610a4e565b9150610c7c83610a4e565b9250828201905080821115610c9457610c93610c07565b5b9291505056fea2646970667358221220523b4f554e3808a1e5c737d027e8dc61ec58b4351224627e7bd1f55e9b9f26c564736f6c63430008150033",
					"opcodes": "PUSH1 0x80 PUSH1 0x40 MSTORE PUSH1 0x40 MLOAD PUSH2 0x10 SWAP1 PUSH2 0x8E JUMP JUMPDEST PUSH1 0x40 MLOAD DUP1 SWAP2 SUB SWAP1 PUSH0 CREATE DUP1 ISZERO DUP1 ISZERO PUSH2 0x29 JUMPI RETURNDATASIZE PUSH0 DUP1 RETURNDATACOPY RETURNDATASIZE PUSH0 REVERT JUMPDEST POP PUSH1 0x1 PUSH0 PUSH2 0x100 EXP DUP2 SLOAD DUP2 PUSH20 0xFFFFFFFFFFFFFFFFFFFFFFFFFFFFFFFFFFFFFFFF MUL NOT AND SWAP1 DUP4 PUSH20 0xFFFFFFFFFFFFFFFFFFFFFFFFFFFFFFFFFFFFFFFF AND MUL OR SWAP1 SSTORE POP PUSH9 0x3635C9ADC5DEA00000 PUSH1 0x2 SSTORE CALLVALUE DUP1 ISZERO PUSH2 0x81 JUMPI PUSH0 DUP1 REVERT JUMPDEST POP PUSH1 0x1 PUSH0 DUP2 SWAP1 SSTORE POP PUSH2 0x9B JUMP JUMPDEST PUSH2 0xD3D DUP1 PUSH2 0xFBC DUP4 CODECOPY ADD SWAP1 JUMP JUMPDEST PUSH2 0xF14 DUP1 PUSH2 0xA8 PUSH0 CODECOPY PUSH0 RETURN INVALID PUSH1 0x80 PUSH1 0x40 MSTORE PUSH1 0x4 CALLDATASIZE LT PUSH2 0x7E JUMPI PUSH0 CALLDATALOAD PUSH1 0xE0 SHR DUP1 PUSH4 0xDD49756E GT PUSH2 0x4D JUMPI DUP1 PUSH4 0xDD49756E EQ PUSH2 0x113 JUMPI DUP1 PUSH4 0xEFEDC669 EQ PUSH2 0x13B JUMPI DUP1 PUSH4 0xFA391C64 EQ PUSH2 0x165 JUMPI DUP1 PUSH4 0xFC0C546A EQ PUSH2 0x17B JUMPI PUSH2 0x7F JUMP JUMPDEST DUP1 PUSH4 0x3884D635 EQ PUSH2 0x81 JUMPI DUP1 PUSH4 0x96365D44 EQ PUSH2 0x97 JUMPI DUP1 PUSH4 0x9AB603B9 EQ PUSH2 0xC1 JUMPI DUP1 PUSH4 0xD1AE3E9C EQ PUSH2 0xE9 JUMPI PUSH2 0x7F JUMP JUMPDEST JUMPDEST STOP JUMPDEST CALLVALUE DUP1 ISZERO PUSH2 0x8C JUMPI PUSH0 DUP1 REVERT JUMPDEST POP PUSH2 0x95 PUSH2 0x1A5 JUMP JUMPDEST STOP JUMPDEST CALLVALUE DUP1 ISZERO PUSH2 0xA2 JUMPI PUSH0 DUP1 REVERT JUMPDEST POP PUSH2 0xAB PUSH2 0x29E JUMP JUMPDEST PUSH1 0x40 MLOAD PUSH2 0xB8 SWAP2 SWAP1 PUSH2 0x8CD JUMP JUMPDEST PUSH1 0x40 MLOAD DUP1 SWAP2 SUB SWAP1 RETURN JUMPDEST CALLVALUE DUP1 ISZERO PUSH2 0xCC JUMPI PUSH0 DUP1 REVERT JUMPDEST POP PUSH2 0xE7 PUSH1 0x4 DUP1 CALLDATASIZE SUB DUP2 ADD SWAP1 PUSH2 0xE2 SWAP2 SWAP1 PUSH2 0x914 JUMP JUMPDEST PUSH2 0x2A4 JUMP JUMPDEST STOP JUMPDEST CALLVALUE DUP1 ISZERO PUSH2 0xF4 JUMPI PUSH0 DUP1 REVERT JUMPDEST POP PUSH2 0xFD PUSH2 0x5AF JUMP JUMPDEST PUSH1 0x40 MLOAD PUSH2 0x10A SWAP2 SWAP1 PUSH2 0x959 JUMP JUMPDEST PUSH1 0x40 MLOAD DUP1 SWAP2 SUB SWAP1 RETURN JUMPDEST CALLVALUE DUP1 ISZERO PUSH2 0x11E JUMPI PUSH0 DUP1 REVERT JUMPDEST POP PUSH2 0x139 PUSH1 0x4 DUP1 CALLDATASIZE SUB DUP2 ADD SWAP1 PUSH2 0x134 SWAP2 SWAP1 PUSH2 0x914 JUMP JUMPDEST PUSH2 0x5C1 JUMP JUMPDEST STOP JUMPDEST CALLVALUE DUP1 ISZERO PUSH2 0x146 JUMPI PUSH0 DUP1 REVERT JUMPDEST POP PUSH2 0x14F PUSH2 0x6C9 JUMP JUMPDEST PUSH1 0x40 MLOAD PUSH2 0x15C SWAP2 SWAP1 PUSH2 0x8CD JUMP JUMPDEST PUSH1 0x40 MLOAD DUP1 SWAP2 SUB SWAP1 RETURN JUMPDEST CALLVALUE DUP1 ISZERO PUSH2 0x170 JUMPI PUSH0 DUP1 REVERT JUMPDEST POP PUSH2 0x179 PUSH2 0x6CF JUMP JUMPDEST STOP JUMPDEST CALLVALUE DUP1 ISZERO PUSH2 0x186 JUMPI PUSH0 DUP1 REVERT JUMPDEST POP PUSH2 0x18F PUSH2 0x83A JUMP JUMPDEST PUSH1 0x40 MLOAD PUSH2 0x19C SWAP2 SWAP1 PUSH2 0x9EC JUMP JUMPDEST PUSH1 0x40 MLOAD DUP1 SWAP2 SUB SWAP1 RETURN JUMPDEST PUSH1 0x3 PUSH0 SWAP1 SLOAD SWAP1 PUSH2 0x100 EXP SWAP1 DIV PUSH1 0xFF AND ISZERO PUSH2 0x1BD JUMPI PUSH0 DUP1 REVERT JUMPDEST PUSH1 0x1 PUSH1 0x3 PUSH0 PUSH2 0x100 EXP DUP2 SLOAD DUP2 PUSH1 0xFF MUL NOT AND SWAP1 DUP4 ISZERO ISZERO MUL OR SWAP1 SSTORE POP PUSH8 0xDE0B6B3A7640000 PUSH1 0x2 PUSH0 DUP3 DUP3 SLOAD PUSH2 0x1F0 SWAP2 SWAP1 PUSH2 0xA32 JUMP JUMPDEST SWAP3 POP POP DUP2 SWAP1 SSTORE POP PUSH1 0x1 PUSH0 SWAP1 SLOAD SWAP1 PUSH2 0x100 EXP SWAP1 DIV PUSH20 0xFFFFFFFFFFFFFFFFFFFFFFFFFFFFFFFFFFFFFFFF AND PUSH20 0xFFFFFFFFFFFFFFFFFFFFFFFFFFFFFFFFFFFFFFFF AND PUSH4 0xA9059CBB CALLER PUSH8 0xDE0B6B3A7640000 PUSH1 0x40 MLOAD DUP4 PUSH4 0xFFFFFFFF AND PUSH1 0xE0 SHL DUP2 MSTORE PUSH1 0x4 ADD PUSH2 0x25B SWAP3 SWAP2 SWAP1 PUSH2 0xABE JUMP JUMPDEST PUSH1 0x20 PUSH1 0x40 MLOAD DUP1 DUP4 SUB DUP2 PUSH0 DUP8 GAS CALL ISZERO DUP1 ISZERO PUSH2 0x277 JUMPI RETURNDATASIZE PUSH0 DUP1 RETURNDATACOPY RETURNDATASIZE PUSH0 REVERT JUMPDEST POP POP POP POP PUSH1 0x40 MLOAD RETURNDATASIZE PUSH1 0x1F NOT PUSH1 0x1F DUP3 ADD AND DUP3 ADD DUP1 PUSH1 0x40 MSTORE POP DUP2 ADD SWAP1 PUSH2 0x29B SWAP2 SWAP1 PUSH2 0xB0F JUMP JUMPDEST POP JUMP JUMPDEST PUSH1 0x2 SLOAD DUP2 JUMP JUMPDEST PUSH2 0x2AC PUSH2 0x85F JUMP JUMPDEST PUSH0 PUSH1 0x1 PUSH0 SWAP1 SLOAD SWAP1 PUSH2 0x100 EXP SWAP1 DIV PUSH20 0xFFFFFFFFFFFFFFFFFFFFFFFFFFFFFFFFFFFFFFFF AND PUSH20 0xFFFFFFFFFFFFFFFFFFFFFFFFFFFFFFFFFFFFFFFF AND PUSH4 0x70A08231 ADDRESS PUSH1 0x40 MLOAD DUP3 PUSH4 0xFFFFFFFF AND PUSH1 0xE0 SHL DUP2 MSTORE PUSH1 0x4 ADD PUSH2 0x307 SWAP2 SWAP1 PUSH2 0xB3A JUMP JUMPDEST PUSH1 0x20 PUSH1 0x40 MLOAD DUP1 DUP4 SUB DUP2 DUP7 GAS STATICCALL ISZERO DUP1 ISZERO PUSH2 0x322 JUMPI RETURNDATASIZE PUSH0 DUP1 RETURNDATACOPY RETURNDATASIZE PUSH0 REVERT JUMPDEST POP POP POP POP PUSH1 0x40 MLOAD RETURNDATASIZE PUSH1 0x1F NOT PUSH1 0x1F DUP3 ADD AND DUP3 ADD DUP1 PUSH1 0x40 MSTORE POP DUP2 ADD SWAP1 PUSH2 0x346 SWAP2 SWAP1 PUSH2 0xB67 JUMP JUMPDEST SWAP1 POP DUP2 DUP2 LT ISZERO PUSH2 0x38B JUMPI PUSH1 0x40 MLOAD PUSH32 0x8C379A000000000000000000000000000000000000000000000000000000000 DUP2 MSTORE PUSH1 0x4 ADD PUSH2 0x382 SWAP1 PUSH2 0xBEC JUMP JUMPDEST PUSH1 0x40 MLOAD DUP1 SWAP2 SUB SWAP1 REVERT JUMPDEST DUP1 PUSH1 0x2 SLOAD EQ PUSH2 0x39D JUMPI PUSH2 0x39C PUSH2 0xC0A JUMP JUMPDEST JUMPDEST PUSH1 0x1 PUSH0 SWAP1 SLOAD SWAP1 PUSH2 0x100 EXP SWAP1 DIV PUSH20 0xFFFFFFFFFFFFFFFFFFFFFFFFFFFFFFFFFFFFFFFF AND PUSH20 0xFFFFFFFFFFFFFFFFFFFFFFFFFFFFFFFFFFFFFFFF AND PUSH4 0xA9059CBB CALLER DUP5 PUSH1 0x40 MLOAD DUP4 PUSH4 0xFFFFFFFF AND PUSH1 0xE0 SHL DUP2 MSTORE PUSH1 0x4 ADD PUSH2 0x3F9 SWAP3 SWAP2 SWAP1 PUSH2 0xC37 JUMP JUMPDEST PUSH1 0x20 PUSH1 0x40 MLOAD DUP1 DUP4 SUB DUP2 PUSH0 DUP8 GAS CALL ISZERO DUP1 ISZERO PUSH2 0x415 JUMPI RETURNDATASIZE PUSH0 DUP1 RETURNDATACOPY RETURNDATASIZE PUSH0 REVERT JUMPDEST POP POP POP POP PUSH1 0x40 MLOAD RETURNDATASIZE PUSH1 0x1F NOT PUSH1 0x1F DUP3 ADD AND DUP3 ADD DUP1 PUSH1 0x40 MSTORE POP DUP2 ADD SWAP1 PUSH2 0x439 SWAP2 SWAP1 PUSH2 0xB0F JUMP JUMPDEST POP CALLER PUSH20 0xFFFFFFFFFFFFFFFFFFFFFFFFFFFFFFFFFFFFFFFF AND PUSH4 0x35729130 PUSH1 0x1 PUSH0 SWAP1 SLOAD SWAP1 PUSH2 0x100 EXP SWAP1 DIV PUSH20 0xFFFFFFFFFFFFFFFFFFFFFFFFFFFFFFFFFFFFFFFF AND DUP5 PUSH1 0x40 MLOAD DUP4 PUSH4 0xFFFFFFFF AND PUSH1 0xE0 SHL DUP2 MSTORE PUSH1 0x4 ADD PUSH2 0x496 SWAP3 SWAP2 SWAP1 PUSH2 0xC37 JUMP JUMPDEST PUSH0 PUSH1 0x40 MLOAD DUP1 DUP4 SUB DUP2 PUSH0 DUP8 DUP1 EXTCODESIZE ISZERO DUP1 ISZERO PUSH2 0x4AD JUMPI PUSH0 DUP1 REVERT JUMPDEST POP GAS CALL ISZERO DUP1 ISZERO PUSH2 0x4BF JUMPI RETURNDATASIZE PUSH0 DUP1 RETURNDATACOPY RETURNDATASIZE PUSH0 REVERT JUMPDEST POP POP POP POP PUSH0 PUSH1 0x1 PUSH0 SWAP1 SLOAD SWAP1 PUSH2 0x100 EXP SWAP1 DIV PUSH20 0xFFFFFFFFFFFFFFFFFFFFFFFFFFFFFFFFFFFFFFFF AND PUSH20 0xFFFFFFFFFFFFFFFFFFFFFFFFFFFFFFFFFFFFFFFF AND PUSH4 0x70A08231 ADDRESS PUSH1 0x40 MLOAD DUP3 PUSH4 0xFFFFFFFF AND PUSH1 0xE0 SHL DUP2 MSTORE PUSH1 0x4 ADD PUSH2 0x51E SWAP2 SWAP1 PUSH2 0xB3A JUMP JUMPDEST PUSH1 0x20 PUSH1 0x40 MLOAD DUP1 DUP4 SUB DUP2 DUP7 GAS STATICCALL ISZERO DUP1 ISZERO PUSH2 0x539 JUMPI RETURNDATASIZE PUSH0 DUP1 RETURNDATACOPY RETURNDATASIZE PUSH0 REVERT JUMPDEST POP POP POP POP PUSH1 0x40 MLOAD RETURNDATASIZE PUSH1 0x1F NOT PUSH1 0x1F DUP3 ADD AND DUP3 ADD DUP1 PUSH1 0x40 MSTORE POP DUP2 ADD SWAP1 PUSH2 0x55D SWAP2 SWAP1 PUSH2 0xB67 JUMP JUMPDEST SWAP1 POP DUP2 DUP2 LT ISZERO PUSH2 0x5A2 JUMPI PUSH1 0x40 MLOAD PUSH32 0x8C379A000000000000000000000000000000000000000000000000000000000 DUP2 MSTORE PUSH1 0x4 ADD PUSH2 0x599 SWAP1 PUSH2 0xCA8 JUMP JUMPDEST PUSH1 0x40 MLOAD DUP1 SWAP2 SUB SWAP1 REVERT JUMPDEST POP POP PUSH2 0x5AC PUSH2 0x8AC JUMP JUMPDEST POP JUMP JUMPDEST PUSH1 0x3 PUSH0 SWAP1 SLOAD SWAP1 PUSH2 0x100 EXP SWAP1 DIV PUSH1 0xFF AND DUP2 JUMP JUMPDEST PUSH2 0x5C9 PUSH2 0x85F JUMP JUMPDEST PUSH0 DUP2 GT PUSH2 0x60B JUMPI PUSH1 0x40 MLOAD PUSH32 0x8C379A000000000000000000000000000000000000000000000000000000000 DUP2 MSTORE PUSH1 0x4 ADD PUSH2 0x602 SWAP1 PUSH2 0xD10 JUMP JUMPDEST PUSH1 0x40 MLOAD DUP1 SWAP2 SUB SWAP1 REVERT JUMPDEST PUSH1 0x1 PUSH0 SWAP1 SLOAD SWAP1 PUSH2 0x100 EXP SWAP1 DIV PUSH20 0xFFFFFFFFFFFFFFFFFFFFFFFFFFFFFFFFFFFFFFFF AND PUSH20 0xFFFFFFFFFFFFFFFFFFFFFFFFFFFFFFFFFFFFFFFF AND PUSH4 0x23B872DD CALLER ADDRESS DUP5 PUSH1 0x40 MLOAD DUP5 PUSH4 0xFFFFFFFF AND PUSH1 0xE0 SHL DUP2 MSTORE PUSH1 0x4 ADD PUSH2 0x669 SWAP4 SWAP3 SWAP2 SWAP1 PUSH2 0xD2E JUMP JUMPDEST PUSH1 0x20 PUSH1 0x40 MLOAD DUP1 DUP4 SUB DUP2 PUSH0 DUP8 GAS CALL ISZERO DUP1 ISZERO PUSH2 0x685 JUMPI RETURNDATASIZE PUSH0 DUP1 RETURNDATACOPY RETURNDATASIZE PUSH0 REVERT JUMPDEST POP POP POP POP PUSH1 0x40 MLOAD RETURNDATASIZE PUSH1 0x1F NOT PUSH1 0x1F DUP3 ADD AND DUP3 ADD DUP1 PUSH1 0x40 MSTORE POP DUP2 ADD SWAP1 PUSH2 0x6A9 SWAP2 SWAP1 PUSH2 0xB0F JUMP JUMPDEST POP DUP1 PUSH1 0x2 SLOAD PUSH2 0x6B8 SWAP2 SWAP1 PUSH2 0xD63 JUMP JUMPDEST PUSH1 0x2 DUP2 SWAP1 SSTORE POP PUSH2 0x6C6 PUSH2 0x8AC JUMP JUMPDEST POP JUMP JUMPDEST PUSH1 0x4 SLOAD DUP2 JUMP JUMPDEST PUSH0 PUSH1 0x4 DUP2 SWAP1 SSTORE POP ORIGIN PUSH20 0xFFFFFFFFFFFFFFFFFFFFFFFFFFFFFFFFFFFFFFFF AND CALLER PUSH20 0xFFFFFFFFFFFFFFFFFFFFFFFFFFFFFFFFFFFFFFFF AND EQ PUSH2 0x723 JUMPI PUSH1 0x19 PUSH1 0x4 PUSH0 DUP3 DUP3 SLOAD PUSH2 0x71B SWAP2 SWAP1 PUSH2 0xD63 JUMP JUMPDEST SWAP3 POP POP DUP2 SWAP1 SSTORE POP JUMPDEST PUSH0 ADDRESS PUSH20 0xFFFFFFFFFFFFFFFFFFFFFFFFFFFFFFFFFFFFFFFF AND PUSH0 PUSH1 0x40 MLOAD PUSH1 0x24 ADD PUSH2 0x74C SWAP2 SWAP1 PUSH2 0xDDB JUMP JUMPDEST PUSH1 0x40 MLOAD PUSH1 0x20 DUP2 DUP4 SUB SUB DUP2 MSTORE SWAP1 PUSH1 0x40 MSTORE PUSH32 0x9AB603B900000000000000000000000000000000000000000000000000000000 PUSH28 0xFFFFFFFFFFFFFFFFFFFFFFFFFFFFFFFFFFFFFFFFFFFFFFFFFFFFFFFF NOT AND PUSH1 0x20 DUP3 ADD DUP1 MLOAD PUSH28 0xFFFFFFFFFFFFFFFFFFFFFFFFFFFFFFFFFFFFFFFFFFFFFFFFFFFFFFFF DUP4 DUP2 DUP4 AND OR DUP4 MSTORE POP POP POP POP PUSH1 0x40 MLOAD PUSH2 0x7D6 SWAP2 SWAP1 PUSH2 0xE60 JUMP JUMPDEST PUSH0 PUSH1 0x40 MLOAD DUP1 DUP4 SUB DUP2 PUSH0 DUP7 GAS CALL SWAP2 POP POP RETURNDATASIZE DUP1 PUSH0 DUP2 EQ PUSH2 0x80F JUMPI PUSH1 0x40 MLOAD SWAP2 POP PUSH1 0x1F NOT PUSH1 0x3F RETURNDATASIZE ADD AND DUP3 ADD PUSH1 0x40 MSTORE RETURNDATASIZE DUP3 MSTORE RETURNDATASIZE PUSH0 PUSH1 0x20 DUP5 ADD RETURNDATACOPY PUSH2 0x814 JUMP JUMPDEST PUSH1 0x60 SWAP2 POP JUMPDEST POP POP SWAP1 POP DUP1 PUSH2 0x837 JUMPI PUSH1 0x4B PUSH1 0x4 PUSH0 DUP3 DUP3 SLOAD PUSH2 0x82F SWAP2 SWAP1 PUSH2 0xD63 JUMP JUMPDEST SWAP3 POP POP DUP2 SWAP1 SSTORE POP JUMPDEST POP JUMP JUMPDEST PUSH1 0x1 PUSH0 SWAP1 SLOAD SWAP1 PUSH2 0x100 EXP SWAP1 DIV PUSH20 0xFFFFFFFFFFFFFFFFFFFFFFFFFFFFFFFFFFFFFFFF AND DUP2 JUMP JUMPDEST PUSH1 0x2 PUSH0 SLOAD SUB PUSH2 0x8A3 JUMPI PUSH1 0x40 MLOAD PUSH32 0x8C379A000000000000000000000000000000000000000000000000000000000 DUP2 MSTORE PUSH1 0x4 ADD PUSH2 0x89A SWAP1 PUSH2 0xEC0 JUMP JUMPDEST PUSH1 0x40 MLOAD DUP1 SWAP2 SUB SWAP1 REVERT JUMPDEST PUSH1 0x2 PUSH0 DUP2 SWAP1 SSTORE POP JUMP JUMPDEST PUSH1 0x1 PUSH0 DUP2 SWAP1 SSTORE POP JUMP JUMPDEST PUSH0 DUP2 SWAP1 POP SWAP2 SWAP1 POP JUMP JUMPDEST PUSH2 0x8C7 DUP2 PUSH2 0x8B5 JUMP JUMPDEST DUP3 MSTORE POP POP JUMP JUMPDEST PUSH0 PUSH1 0x20 DUP3 ADD SWAP1 POP PUSH2 0x8E0 PUSH0 DUP4 ADD DUP5 PUSH2 0x8BE JUMP JUMPDEST SWAP3 SWAP2 POP POP JUMP JUMPDEST PUSH0 DUP1 REVERT JUMPDEST PUSH2 0x8F3 DUP2 PUSH2 0x8B5 JUMP JUMPDEST DUP2 EQ PUSH2 0x8FD JUMPI PUSH0 DUP1 REVERT JUMPDEST POP JUMP JUMPDEST PUSH0 DUP2 CALLDATALOAD SWAP1 POP PUSH2 0x90E DUP2 PUSH2 0x8EA JUMP JUMPDEST SWAP3 SWAP2 POP POP JUMP JUMPDEST PUSH0 PUSH1 0x20 DUP3 DUP5 SUB SLT ISZERO PUSH2 0x929 JUMPI PUSH2 0x928 PUSH2 0x8E6 JUMP JUMPDEST JUMPDEST PUSH0 PUSH2 0x936 DUP5 DUP3 DUP6 ADD PUSH2 0x900 JUMP JUMPDEST SWAP2 POP POP SWAP3 SWAP2 POP POP JUMP JUMPDEST PUSH0 DUP2 ISZERO ISZERO SWAP1 POP SWAP2 SWAP1 POP JUMP JUMPDEST PUSH2 0x953 DUP2 PUSH2 0x93F JUMP JUMPDEST DUP3 MSTORE POP POP JUMP JUMPDEST PUSH0 PUSH1 0x20 DUP3 ADD SWAP1 POP PUSH2 0x96C PUSH0 DUP4 ADD DUP5 PUSH2 0x94A JUMP JUMPDEST SWAP3 SWAP2 POP POP JUMP JUMPDEST PUSH0 PUSH20 0xFFFFFFFFFFFFFFFFFFFFFFFFFFFFFFFFFFFFFFFF DUP3 AND SWAP1 POP SWAP2 SWAP1 POP JUMP JUMPDEST PUSH0 DUP2 SWAP1 POP SWAP2 SWAP1 POP JUMP JUMPDEST PUSH0 PUSH2 0x9B4 PUSH2 0x9AF PUSH2 0x9AA DUP5 PUSH2 0x972 JUMP JUMPDEST PUSH2 0x991 JUMP JUMPDEST PUSH2 0x972 JUMP JUMPDEST SWAP1 POP SWAP2 SWAP1 POP JUMP JUMPDEST PUSH0 PUSH2 0x9C5 DUP3 PUSH2 0x99A JUMP JUMPDEST SWAP1 POP SWAP2 SWAP1 POP JUMP JUMPDEST PUSH0 PUSH2 0x9D6 DUP3 PUSH2 0x9BB JUMP JUMPDEST SWAP1 POP SWAP2 SWAP1 POP JUMP JUMPDEST PUSH2 0x9E6 DUP2 PUSH2 0x9CC JUMP JUMPDEST DUP3 MSTORE POP POP JUMP JUMPDEST PUSH0 PUSH1 0x20 DUP3 ADD SWAP1 POP PUSH2 0x9FF PUSH0 DUP4 ADD DUP5 PUSH2 0x9DD JUMP JUMPDEST SWAP3 SWAP2 POP POP JUMP JUMPDEST PUSH32 0x4E487B7100000000000000000000000000000000000000000000000000000000 PUSH0 MSTORE PUSH1 0x11 PUSH1 0x4 MSTORE PUSH1 0x24 PUSH0 REVERT JUMPDEST PUSH0 PUSH2 0xA3C DUP3 PUSH2 0x8B5 JUMP JUMPDEST SWAP2 POP PUSH2 0xA47 DUP4 PUSH2 0x8B5 JUMP JUMPDEST SWAP3 POP DUP3 DUP3 SUB SWAP1 POP DUP2 DUP2 GT ISZERO PUSH2 0xA5F JUMPI PUSH2 0xA5E PUSH2 0xA05 JUMP JUMPDEST JUMPDEST SWAP3 SWAP2 POP POP JUMP JUMPDEST PUSH0 PUSH2 0xA6F DUP3 PUSH2 0x972 JUMP JUMPDEST SWAP1 POP SWAP2 SWAP1 POP JUMP JUMPDEST PUSH2 0xA7F DUP2 PUSH2 0xA65 JUMP JUMPDEST DUP3 MSTORE POP POP JUMP JUMPDEST PUSH0 DUP2 SWAP1 POP SWAP2 SWAP1 POP JUMP JUMPDEST PUSH0 PUSH2 0xAA8 PUSH2 0xAA3 PUSH2 0xA9E DUP5 PUSH2 0xA85 JUMP JUMPDEST PUSH2 0x991 JUMP JUMPDEST PUSH2 0x8B5 JUMP JUMPDEST SWAP1 POP SWAP2 SWAP1 POP JUMP JUMPDEST PUSH2 0xAB8 DUP2 PUSH2 0xA8E JUMP JUMPDEST DUP3 MSTORE POP POP JUMP JUMPDEST PUSH0 PUSH1 0x40 DUP3 ADD SWAP1 POP PUSH2 0xAD1 PUSH0 DUP4 ADD DUP6 PUSH2 0xA76 JUMP JUMPDEST PUSH2 0xADE PUSH1 0x20 DUP4 ADD DUP5 PUSH2 0xAAF JUMP JUMPDEST SWAP4 SWAP3 POP POP POP JUMP JUMPDEST PUSH2 0xAEE DUP2 PUSH2 0x93F JUMP JUMPDEST DUP2 EQ PUSH2 0xAF8 JUMPI PUSH0 DUP1 REVERT JUMPDEST POP JUMP JUMPDEST PUSH0 DUP2 MLOAD SWAP1 POP PUSH2 0xB09 DUP2 PUSH2 0xAE5 JUMP JUMPDEST SWAP3 SWAP2 POP POP JUMP JUMPDEST PUSH0 PUSH1 0x20 DUP3 DUP5 SUB SLT ISZERO PUSH2 0xB24 JUMPI PUSH2 0xB23 PUSH2 0x8E6 JUMP JUMPDEST JUMPDEST PUSH0 PUSH2 0xB31 DUP5 DUP3 DUP6 ADD PUSH2 0xAFB JUMP JUMPDEST SWAP2 POP POP SWAP3 SWAP2 POP POP JUMP JUMPDEST PUSH0 PUSH1 0x20 DUP3 ADD SWAP1 POP PUSH2 0xB4D PUSH0 DUP4 ADD DUP5 PUSH2 0xA76 JUMP JUMPDEST SWAP3 SWAP2 POP POP JUMP JUMPDEST PUSH0 DUP2 MLOAD SWAP1 POP PUSH2 0xB61 DUP2 PUSH2 0x8EA JUMP JUMPDEST SWAP3 SWAP2 POP POP JUMP JUMPDEST PUSH0 PUSH1 0x20 DUP3 DUP5 SUB SLT ISZERO PUSH2 0xB7C JUMPI PUSH2 0xB7B PUSH2 0x8E6 JUMP JUMPDEST JUMPDEST PUSH0 PUSH2 0xB89 DUP5 DUP3 DUP6 ADD PUSH2 0xB53 JUMP JUMPDEST SWAP2 POP POP SWAP3 SWAP2 POP POP JUMP JUMPDEST PUSH0 DUP3 DUP3 MSTORE PUSH1 0x20 DUP3 ADD SWAP1 POP SWAP3 SWAP2 POP POP JUMP JUMPDEST PUSH32 0x4E6F7420656E6F75676820746F6B656E7320696E20706F6F6C00000000000000 PUSH0 DUP3 ADD MSTORE POP JUMP JUMPDEST PUSH0 PUSH2 0xBD6 PUSH1 0x19 DUP4 PUSH2 0xB92 JUMP JUMPDEST SWAP2 POP PUSH2 0xBE1 DUP3 PUSH2 0xBA2 JUMP JUMPDEST PUSH1 0x20 DUP3 ADD SWAP1 POP SWAP2 SWAP1 POP JUMP JUMPDEST PUSH0 PUSH1 0x20 DUP3 ADD SWAP1 POP DUP2 DUP2 SUB PUSH0 DUP4 ADD MSTORE PUSH2 0xC03 DUP2 PUSH2 0xBCA JUMP JUMPDEST SWAP1 POP SWAP2 SWAP1 POP JUMP JUMPDEST PUSH32 0x4E487B7100000000000000000000000000000000000000000000000000000000 PUSH0 MSTORE PUSH1 0x1 PUSH1 0x4 MSTORE PUSH1 0x24 PUSH0 REVERT JUMPDEST PUSH0 PUSH1 0x40 DUP3 ADD SWAP1 POP PUSH2 0xC4A PUSH0 DUP4 ADD DUP6 PUSH2 0xA76 JUMP JUMPDEST PUSH2 0xC57 PUSH1 0x20 DUP4 ADD DUP5 PUSH2 0x8BE JUMP JUMPDEST SWAP4 SWAP3 POP POP POP JUMP JUMPDEST PUSH32 0x466C617368206C6F616E206861736E2774206265656E2070616964206261636B PUSH0 DUP3 ADD MSTORE POP JUMP JUMPDEST PUSH0 PUSH2 0xC92 PUSH1 0x20 DUP4 PUSH2 0xB92 JUMP JUMPDEST SWAP2 POP PUSH2 0xC9D DUP3 PUSH2 0xC5E JUMP JUMPDEST PUSH1 0x20 DUP3 ADD SWAP1 POP SWAP2 SWAP1 POP JUMP JUMPDEST PUSH0 PUSH1 0x20 DUP3 ADD SWAP1 POP DUP2 DUP2 SUB PUSH0 DUP4 ADD MSTORE PUSH2 0xCBF DUP2 PUSH2 0xC86 JUMP JUMPDEST SWAP1 POP SWAP2 SWAP1 POP JUMP JUMPDEST PUSH32 0x4D757374206465706F736974206174206C65617374206F6E6520746F6B656E00 PUSH0 DUP3 ADD MSTORE POP JUMP JUMPDEST PUSH0 PUSH2 0xCFA PUSH1 0x1F DUP4 PUSH2 0xB92 JUMP JUMPDEST SWAP2 POP PUSH2 0xD05 DUP3 PUSH2 0xCC6 JUMP JUMPDEST PUSH1 0x20 DUP3 ADD SWAP1 POP SWAP2 SWAP1 POP JUMP JUMPDEST PUSH0 PUSH1 0x20 DUP3 ADD SWAP1 POP DUP2 DUP2 SUB PUSH0 DUP4 ADD MSTORE PUSH2 0xD27 DUP2 PUSH2 0xCEE JUMP JUMPDEST SWAP1 POP SWAP2 SWAP1 POP JUMP JUMPDEST PUSH0 PUSH1 0x60 DUP3 ADD SWAP1 POP PUSH2 0xD41 PUSH0 DUP4 ADD DUP7 PUSH2 0xA76 JUMP JUMPDEST PUSH2 0xD4E PUSH1 0x20 DUP4 ADD DUP6 PUSH2 0xA76 JUMP JUMPDEST PUSH2 0xD5B PUSH1 0x40 DUP4 ADD DUP5 PUSH2 0x8BE JUMP JUMPDEST SWAP5 SWAP4 POP POP POP POP JUMP JUMPDEST PUSH0 PUSH2 0xD6D DUP3 PUSH2 0x8B5 JUMP JUMPDEST SWAP2 POP PUSH2 0xD78 DUP4 PUSH2 0x8B5 JUMP JUMPDEST SWAP3 POP DUP3 DUP3 ADD SWAP1 POP DUP1 DUP3 GT ISZERO PUSH2 0xD90 JUMPI PUSH2 0xD8F PUSH2 0xA05 JUMP JUMPDEST JUMPDEST SWAP3 SWAP2 POP POP JUMP JUMPDEST PUSH0 DUP2 SWAP1 POP SWAP2 SWAP1 POP JUMP JUMPDEST PUSH0 PUSH1 0xFF DUP3 AND SWAP1 POP SWAP2 SWAP1 POP JUMP JUMPDEST PUSH0 PUSH2 0xDC5 PUSH2 0xDC0 PUSH2 0xDBB DUP5 PUSH2 0xD96 JUMP JUMPDEST PUSH2 0x991 JUMP JUMPDEST PUSH2 0xD9F JUMP JUMPDEST SWAP1 POP SWAP2 SWAP1 POP JUMP JUMPDEST PUSH2 0xDD5 DUP2 PUSH2 0xDAB JUMP JUMPDEST DUP3 MSTORE POP POP JUMP JUMPDEST PUSH0 PUSH1 0x20 DUP3 ADD SWAP1 POP PUSH2 0xDEE PUSH0 DUP4 ADD DUP5 PUSH2 0xDCC JUMP JUMPDEST SWAP3 SWAP2 POP POP JUMP JUMPDEST PUSH0 DUP2 MLOAD SWAP1 POP SWAP2 SWAP1 POP JUMP JUMPDEST PUSH0 DUP2 SWAP1 POP SWAP3 SWAP2 POP POP JUMP JUMPDEST PUSH0 JUMPDEST DUP4 DUP2 LT ISZERO PUSH2 0xE25 JUMPI DUP1 DUP3 ADD MLOAD DUP2 DUP5 ADD MSTORE PUSH1 0x20 DUP2 ADD SWAP1 POP PUSH2 0xE0A JUMP JUMPDEST PUSH0 DUP5 DUP5 ADD MSTORE POP POP POP POP JUMP JUMPDEST PUSH0 PUSH2 0xE3A DUP3 PUSH2 0xDF4 JUMP JUMPDEST PUSH2 0xE44 DUP2 DUP6 PUSH2 0xDFE JUMP JUMPDEST SWAP4 POP PUSH2 0xE54 DUP2 DUP6 PUSH1 0x20 DUP7 ADD PUSH2 0xE08 JUMP JUMPDEST DUP1 DUP5 ADD SWAP2 POP POP SWAP3 SWAP2 POP POP JUMP JUMPDEST PUSH0 PUSH2 0xE6B DUP3 DUP5 PUSH2 0xE30 JUMP JUMPDEST SWAP2 POP DUP2 SWAP1 POP SWAP3 SWAP2 POP POP JUMP JUMPDEST PUSH32 0x5265656E7472616E637947756172643A207265656E7472616E742063616C6C00 PUSH0 DUP3 ADD MSTORE POP JUMP JUMPDEST PUSH0 PUSH2 0xEAA PUSH1 0x1F DUP4 PUSH2 0xB92 JUMP JUMPDEST SWAP2 POP PUSH2 0xEB5 DUP3 PUSH2 0xE76 JUMP JUMPDEST PUSH1 0x20 DUP3 ADD SWAP1 POP SWAP2 SWAP1 POP JUMP JUMPDEST PUSH0 PUSH1 0x20 DUP3 ADD SWAP1 POP DUP2 DUP2 SUB PUSH0 DUP4 ADD MSTORE PUSH2 0xED7 DUP2 PUSH2 0xE9E JUMP JUMPDEST SWAP1 POP SWAP2 SWAP1 POP JUMP INVALID LOG2 PUSH5 0x6970667358 0x22 SLT KECCAK256 0xED PUSH15 0x9CA90FA425CA698E69DBF546D8A66F 0xC2 0x27 0xDC 0xD4 0xE3 PUSH8 0xD6B7EAEED8E48F2E 0xAE PUSH5 0x736F6C6343 STOP ADDMOD ISZERO STOP CALLER PUSH1 0x80 PUSH1 0x40 MSTORE PUSH9 0x3635C9ADC5DEA00000 PUSH1 0x2 SSTORE CALLVALUE DUP1 ISZERO PUSH2 0x1C JUMPI PUSH0 DUP1 REVERT JUMPDEST POP PUSH1 0x2 SLOAD PUSH0 DUP1 CALLER PUSH20 0xFFFFFFFFFFFFFFFFFFFFFFFFFFFFFFFFFFFFFFFF AND PUSH20 0xFFFFFFFFFFFFFFFFFFFFFFFFFFFFFFFFFFFFFFFF AND DUP2 MSTORE PUSH1 0x20 ADD SWAP1 DUP2 MSTORE PUSH1 0x20 ADD PUSH0 KECCAK256 DUP2 SWAP1 SSTORE POP PUSH2 0xCD0 DUP1 PUSH2 0x6D PUSH0 CODECOPY PUSH0 RETURN INVALID PUSH1 0x80 PUSH1 0x40 MSTORE CALLVALUE DUP1 ISZERO PUSH2 0xF JUMPI PUSH0 DUP1 REVERT JUMPDEST POP PUSH1 0x4 CALLDATASIZE LT PUSH2 0x91 JUMPI PUSH0 CALLDATALOAD PUSH1 0xE0 SHR DUP1 PUSH4 0x313CE567 GT PUSH2 0x64 JUMPI DUP1 PUSH4 0x313CE567 EQ PUSH2 0x131 JUMPI DUP1 PUSH4 0x70A08231 EQ PUSH2 0x14F JUMPI DUP1 PUSH4 0x95D89B41 EQ PUSH2 0x17F JUMPI DUP1 PUSH4 0xA9059CBB EQ PUSH2 0x19D JUMPI DUP1 PUSH4 0xDD62ED3E EQ PUSH2 0x1CD JUMPI PUSH2 0x91 JUMP JUMPDEST DUP1 PUSH4 0x6FDDE03 EQ PUSH2 0x95 JUMPI DUP1 PUSH4 0x95EA7B3 EQ PUSH2 0xB3 JUMPI DUP1 PUSH4 0x18160DDD EQ PUSH2 0xE3 JUMPI DUP1 PUSH4 0x23B872DD EQ PUSH2 0x101 JUMPI JUMPDEST PUSH0 DUP1 REVERT JUMPDEST PUSH2 0x9D PUSH2 0x1FD JUMP JUMPDEST PUSH1 0x40 MLOAD PUSH2 0xAA SWAP2 SWAP1 PUSH2 0x9D0 JUMP JUMPDEST PUSH1 0x40 MLOAD DUP1 SWAP2 SUB SWAP1 RETURN JUMPDEST PUSH2 0xCD PUSH1 0x4 DUP1 CALLDATASIZE SUB DUP2 ADD SWAP1 PUSH2 0xC8 SWAP2 SWAP1 PUSH2 0xA81 JUMP JUMPDEST PUSH2 0x236 JUMP JUMPDEST PUSH1 0x40 MLOAD PUSH2 0xDA SWAP2 SWAP1 PUSH2 0xAD9 JUMP JUMPDEST PUSH1 0x40 MLOAD DUP1 SWAP2 SUB SWAP1 RETURN JUMPDEST PUSH2 0xEB PUSH2 0x323 JUMP JUMPDEST PUSH1 0x40 MLOAD PUSH2 0xF8 SWAP2 SWAP1 PUSH2 0xB01 JUMP JUMPDEST PUSH1 0x40 MLOAD DUP1 SWAP2 SUB SWAP1 RETURN JUMPDEST PUSH2 0x11B PUSH1 0x4 DUP1 CALLDATASIZE SUB DUP2 ADD SWAP1 PUSH2 0x116 SWAP2 SWAP1 PUSH2 0xB1A JUMP JUMPDEST PUSH2 0x32C JUMP JUMPDEST PUSH1 0x40 MLOAD PUSH2 0x128 SWAP2 SWAP1 PUSH2 0xAD9 JUMP JUMPDEST PUSH1 0x40 MLOAD DUP1 SWAP2 SUB SWAP1 RETURN JUMPDEST PUSH2 0x139 PUSH2 0x679 JUMP JUMPDEST PUSH1 0x40 MLOAD PUSH2 0x146 SWAP2 SWAP1 PUSH2 0xB85 JUMP JUMPDEST PUSH1 0x40 MLOAD DUP1 SWAP2 SUB SWAP1 RETURN JUMPDEST PUSH2 0x169 PUSH1 0x4 DUP1 CALLDATASIZE SUB DUP2 ADD SWAP1 PUSH2 0x164 SWAP2 SWAP1 PUSH2 0xB9E JUMP JUMPDEST PUSH2 0x67E JUMP JUMPDEST PUSH1 0x40 MLOAD PUSH2 0x176 SWAP2 SWAP1 PUSH2 0xB01 JUMP JUMPDEST PUSH1 0x40 MLOAD DUP1 SWAP2 SUB SWAP1 RETURN JUMPDEST PUSH2 0x187 PUSH2 0x6C3 JUMP JUMPDEST PUSH1 0x40 MLOAD PUSH2 0x194 SWAP2 SWAP1 PUSH2 0x9D0 JUMP JUMPDEST PUSH1 0x40 MLOAD DUP1 SWAP2 SUB SWAP1 RETURN JUMPDEST PUSH2 0x1B7 PUSH1 0x4 DUP1 CALLDATASIZE SUB DUP2 ADD SWAP1 PUSH2 0x1B2 SWAP2 SWAP1 PUSH2 0xA81 JUMP JUMPDEST PUSH2 0x6FC JUMP JUMPDEST PUSH1 0x40 MLOAD PUSH2 0x1C4 SWAP2 SWAP1 PUSH2 0xAD9 JUMP JUMPDEST PUSH1 0x40 MLOAD DUP1 SWAP2 SUB SWAP1 RETURN JUMPDEST PUSH2 0x1E7 PUSH1 0x4 DUP1 CALLDATASIZE SUB DUP2 ADD SWAP1 PUSH2 0x1E2 SWAP2 SWAP1 PUSH2 0xBC9 JUMP JUMPDEST PUSH2 0x8C4 JUMP JUMPDEST PUSH1 0x40 MLOAD PUSH2 0x1F4 SWAP2 SWAP1 PUSH2 0xB01 JUMP JUMPDEST PUSH1 0x40 MLOAD DUP1 SWAP2 SUB SWAP1 RETURN JUMPDEST PUSH1 0x40 MLOAD DUP1 PUSH1 0x40 ADD PUSH1 0x40 MSTORE DUP1 PUSH1 0x5 DUP2 MSTORE PUSH1 0x20 ADD PUSH32 0x4552433230000000000000000000000000000000000000000000000000000000 DUP2 MSTORE POP DUP2 JUMP JUMPDEST PUSH0 DUP2 PUSH1 0x1 PUSH0 CALLER PUSH20 0xFFFFFFFFFFFFFFFFFFFFFFFFFFFFFFFFFFFFFFFF AND PUSH20 0xFFFFFFFFFFFFFFFFFFFFFFFFFFFFFFFFFFFFFFFF AND DUP2 MSTORE PUSH1 0x20 ADD SWAP1 DUP2 MSTORE PUSH1 0x20 ADD PUSH0 KECCAK256 PUSH0 DUP6 PUSH20 0xFFFFFFFFFFFFFFFFFFFFFFFFFFFFFFFFFFFFFFFF AND PUSH20 0xFFFFFFFFFFFFFFFFFFFFFFFFFFFFFFFFFFFFFFFF AND DUP2 MSTORE PUSH1 0x20 ADD SWAP1 DUP2 MSTORE PUSH1 0x20 ADD PUSH0 KECCAK256 DUP2 SWAP1 SSTORE POP DUP3 PUSH20 0xFFFFFFFFFFFFFFFFFFFFFFFFFFFFFFFFFFFFFFFF AND CALLER PUSH20 0xFFFFFFFFFFFFFFFFFFFFFFFFFFFFFFFFFFFFFFFF AND PUSH32 0x8C5BE1E5EBEC7D5BD14F71427D1E84F3DD0314C0F7B2291E5B200AC8C7C3B925 DUP5 PUSH1 0x40 MLOAD PUSH2 0x311 SWAP2 SWAP1 PUSH2 0xB01 JUMP JUMPDEST PUSH1 0x40 MLOAD DUP1 SWAP2 SUB SWAP1 LOG3 PUSH1 0x1 SWAP1 POP SWAP3 SWAP2 POP POP JUMP JUMPDEST PUSH0 PUSH1 0x2 SLOAD SWAP1 POP SWAP1 JUMP JUMPDEST PUSH0 DUP1 PUSH0 DUP6 PUSH20 0xFFFFFFFFFFFFFFFFFFFFFFFFFFFFFFFFFFFFFFFF AND PUSH20 0xFFFFFFFFFFFFFFFFFFFFFFFFFFFFFFFFFFFFFFFF AND DUP2 MSTORE PUSH1 0x20 ADD SWAP1 DUP2 MSTORE PUSH1 0x20 ADD PUSH0 KECCAK256 SLOAD DUP3 GT ISZERO PUSH2 0x375 JUMPI PUSH0 DUP1 REVERT JUMPDEST PUSH1 0x1 PUSH0 DUP6 PUSH20 0xFFFFFFFFFFFFFFFFFFFFFFFFFFFFFFFFFFFFFFFF AND PUSH20 0xFFFFFFFFFFFFFFFFFFFFFFFFFFFFFFFFFFFFFFFF AND DUP2 MSTORE PUSH1 0x20 ADD SWAP1 DUP2 MSTORE PUSH1 0x20 ADD PUSH0 KECCAK256 PUSH0 CALLER PUSH20 0xFFFFFFFFFFFFFFFFFFFFFFFFFFFFFFFFFFFFFFFF AND PUSH20 0xFFFFFFFFFFFFFFFFFFFFFFFFFFFFFFFFFFFFFFFF AND DUP2 MSTORE PUSH1 0x20 ADD SWAP1 DUP2 MSTORE PUSH1 0x20 ADD PUSH0 KECCAK256 SLOAD DUP3 GT ISZERO PUSH2 0x3F9 JUMPI PUSH0 DUP1 REVERT JUMPDEST DUP2 PUSH0 DUP1 DUP7 PUSH20 0xFFFFFFFFFFFFFFFFFFFFFFFFFFFFFFFFFFFFFFFF AND PUSH20 0xFFFFFFFFFFFFFFFFFFFFFFFFFFFFFFFFFFFFFFFF AND DUP2 MSTORE PUSH1 0x20 ADD SWAP1 DUP2 MSTORE PUSH1 0x20 ADD PUSH0 KECCAK256 SLOAD PUSH2 0x441 SWAP2 SWAP1 PUSH2 0xC34 JUMP JUMPDEST PUSH0 DUP1 DUP7 PUSH20 0xFFFFFFFFFFFFFFFFFFFFFFFFFFFFFFFFFFFFFFFF AND PUSH20 0xFFFFFFFFFFFFFFFFFFFFFFFFFFFFFFFFFFFFFFFF AND DUP2 MSTORE PUSH1 0x20 ADD SWAP1 DUP2 MSTORE PUSH1 0x20 ADD PUSH0 KECCAK256 DUP2 SWAP1 SSTORE POP DUP2 PUSH1 0x1 PUSH0 DUP7 PUSH20 0xFFFFFFFFFFFFFFFFFFFFFFFFFFFFFFFFFFFFFFFF AND PUSH20 0xFFFFFFFFFFFFFFFFFFFFFFFFFFFFFFFFFFFFFFFF AND DUP2 MSTORE PUSH1 0x20 ADD SWAP1 DUP2 MSTORE PUSH1 0x20 ADD PUSH0 KECCAK256 PUSH0 CALLER PUSH20 0xFFFFFFFFFFFFFFFFFFFFFFFFFFFFFFFFFFFFFFFF AND PUSH20 0xFFFFFFFFFFFFFFFFFFFFFFFFFFFFFFFFFFFFFFFF AND DUP2 MSTORE PUSH1 0x20 ADD SWAP1 DUP2 MSTORE PUSH1 0x20 ADD PUSH0 KECCAK256 SLOAD PUSH2 0x505 SWAP2 SWAP1 PUSH2 0xC34 JUMP JUMPDEST PUSH1 0x1 PUSH0 DUP7 PUSH20 0xFFFFFFFFFFFFFFFFFFFFFFFFFFFFFFFFFFFFFFFF AND PUSH20 0xFFFFFFFFFFFFFFFFFFFFFFFFFFFFFFFFFFFFFFFF AND DUP2 MSTORE PUSH1 0x20 ADD SWAP1 DUP2 MSTORE PUSH1 0x20 ADD PUSH0 KECCAK256 PUSH0 CALLER PUSH20 0xFFFFFFFFFFFFFFFFFFFFFFFFFFFFFFFFFFFFFFFF AND PUSH20 0xFFFFFFFFFFFFFFFFFFFFFFFFFFFFFFFFFFFFFFFF AND DUP2 MSTORE PUSH1 0x20 ADD SWAP1 DUP2 MSTORE PUSH1 0x20 ADD PUSH0 KECCAK256 DUP2 SWAP1 SSTORE POP DUP2 PUSH0 DUP1 DUP6 PUSH20 0xFFFFFFFFFFFFFFFFFFFFFFFFFFFFFFFFFFFFFFFF AND PUSH20 0xFFFFFFFFFFFFFFFFFFFFFFFFFFFFFFFFFFFFFFFF AND DUP2 MSTORE PUSH1 0x20 ADD SWAP1 DUP2 MSTORE PUSH1 0x20 ADD PUSH0 KECCAK256 SLOAD PUSH2 0x5C9 SWAP2 SWAP1 PUSH2 0xC67 JUMP JUMPDEST PUSH0 DUP1 DUP6 PUSH20 0xFFFFFFFFFFFFFFFFFFFFFFFFFFFFFFFFFFFFFFFF AND PUSH20 0xFFFFFFFFFFFFFFFFFFFFFFFFFFFFFFFFFFFFFFFF AND DUP2 MSTORE PUSH1 0x20 ADD SWAP1 DUP2 MSTORE PUSH1 0x20 ADD PUSH0 KECCAK256 DUP2 SWAP1 SSTORE POP DUP3 PUSH20 0xFFFFFFFFFFFFFFFFFFFFFFFFFFFFFFFFFFFFFFFF AND DUP5 PUSH20 0xFFFFFFFFFFFFFFFFFFFFFFFFFFFFFFFFFFFFFFFF AND PUSH32 0xDDF252AD1BE2C89B69C2B068FC378DAA952BA7F163C4A11628F55A4DF523B3EF DUP5 PUSH1 0x40 MLOAD PUSH2 0x666 SWAP2 SWAP1 PUSH2 0xB01 JUMP JUMPDEST PUSH1 0x40 MLOAD DUP1 SWAP2 SUB SWAP1 LOG3 PUSH1 0x1 SWAP1 POP SWAP4 SWAP3 POP POP POP JUMP JUMPDEST PUSH1 0x12 DUP2 JUMP JUMPDEST PUSH0 DUP1 PUSH0 DUP4 PUSH20 0xFFFFFFFFFFFFFFFFFFFFFFFFFFFFFFFFFFFFFFFF AND PUSH20 0xFFFFFFFFFFFFFFFFFFFFFFFFFFFFFFFFFFFFFFFF AND DUP2 MSTORE PUSH1 0x20 ADD SWAP1 DUP2 MSTORE PUSH1 0x20 ADD PUSH0 KECCAK256 SLOAD SWAP1 POP SWAP2 SWAP1 POP JUMP JUMPDEST PUSH1 0x40 MLOAD DUP1 PUSH1 0x40 ADD PUSH1 0x40 MSTORE DUP1 PUSH1 0x3 DUP2 MSTORE PUSH1 0x20 ADD PUSH32 0x4552430000000000000000000000000000000000000000000000000000000000 DUP2 MSTORE POP DUP2 JUMP JUMPDEST PUSH0 DUP1 PUSH0 CALLER PUSH20 0xFFFFFFFFFFFFFFFFFFFFFFFFFFFFFFFFFFFFFFFF AND PUSH20 0xFFFFFFFFFFFFFFFFFFFFFFFFFFFFFFFFFFFFFFFF AND DUP2 MSTORE PUSH1 0x20 ADD SWAP1 DUP2 MSTORE PUSH1 0x20 ADD PUSH0 KECCAK256 SLOAD DUP3 GT ISZERO PUSH2 0x745 JUMPI PUSH0 DUP1 REVERT JUMPDEST DUP2 PUSH0 DUP1 CALLER PUSH20 0xFFFFFFFFFFFFFFFFFFFFFFFFFFFFFFFFFFFFFFFF AND PUSH20 0xFFFFFFFFFFFFFFFFFFFFFFFFFFFFFFFFFFFFFFFF AND DUP2 MSTORE PUSH1 0x20 ADD SWAP1 DUP2 MSTORE PUSH1 0x20 ADD PUSH0 KECCAK256 SLOAD PUSH2 0x78D SWAP2 SWAP1 PUSH2 0xC34 JUMP JUMPDEST PUSH0 DUP1 CALLER PUSH20 0xFFFFFFFFFFFFFFFFFFFFFFFFFFFFFFFFFFFFFFFF AND PUSH20 0xFFFFFFFFFFFFFFFFFFFFFFFFFFFFFFFFFFFFFFFF AND DUP2 MSTORE PUSH1 0x20 ADD SWAP1 DUP2 MSTORE PUSH1 0x20 ADD PUSH0 KECCAK256 DUP2 SWAP1 SSTORE POP DUP2 PUSH0 DUP1 DUP6 PUSH20 0xFFFFFFFFFFFFFFFFFFFFFFFFFFFFFFFFFFFFFFFF AND PUSH20 0xFFFFFFFFFFFFFFFFFFFFFFFFFFFFFFFFFFFFFFFF AND DUP2 MSTORE PUSH1 0x20 ADD SWAP1 DUP2 MSTORE PUSH1 0x20 ADD PUSH0 KECCAK256 SLOAD PUSH2 0x815 SWAP2 SWAP1 PUSH2 0xC67 JUMP JUMPDEST PUSH0 DUP1 DUP6 PUSH20 0xFFFFFFFFFFFFFFFFFFFFFFFFFFFFFFFFFFFFFFFF AND PUSH20 0xFFFFFFFFFFFFFFFFFFFFFFFFFFFFFFFFFFFFFFFF AND DUP2 MSTORE PUSH1 0x20 ADD SWAP1 DUP2 MSTORE PUSH1 0x20 ADD PUSH0 KECCAK256 DUP2 SWAP1 SSTORE POP DUP3 PUSH20 0xFFFFFFFFFFFFFFFFFFFFFFFFFFFFFFFFFFFFFFFF AND CALLER PUSH20 0xFFFFFFFFFFFFFFFFFFFFFFFFFFFFFFFFFFFFFFFF AND PUSH32 0xDDF252AD1BE2C89B69C2B068FC378DAA952BA7F163C4A11628F55A4DF523B3EF DUP5 PUSH1 0x40 MLOAD PUSH2 0x8B2 SWAP2 SWAP1 PUSH2 0xB01 JUMP JUMPDEST PUSH1 0x40 MLOAD DUP1 SWAP2 SUB SWAP1 LOG3 PUSH1 0x1 SWAP1 POP SWAP3 SWAP2 POP POP JUMP JUMPDEST PUSH0 PUSH1 0x1 PUSH0 DUP5 PUSH20 0xFFFFFFFFFFFFFFFFFFFFFFFFFFFFFFFFFFFFFFFF AND PUSH20 0xFFFFFFFFFFFFFFFFFFFFFFFFFFFFFFFFFFFFFFFF AND DUP2 MSTORE PUSH1 0x20 ADD SWAP1 DUP2 MSTORE PUSH1 0x20 ADD PUSH0 KECCAK256 PUSH0 DUP4 PUSH20 0xFFFFFFFFFFFFFFFFFFFFFFFFFFFFFFFFFFFFFFFF AND PUSH20 0xFFFFFFFFFFFFFFFFFFFFFFFFFFFFFFFFFFFFFFFF AND DUP2 MSTORE PUSH1 0x20 ADD SWAP1 DUP2 MSTORE PUSH1 0x20 ADD PUSH0 KECCAK256 SLOAD SWAP1 POP SWAP3 SWAP2 POP POP JUMP JUMPDEST PUSH0 DUP2 MLOAD SWAP1 POP SWAP2 SWAP1 POP JUMP JUMPDEST PUSH0 DUP3 DUP3 MSTORE PUSH1 0x20 DUP3 ADD SWAP1 POP SWAP3 SWAP2 POP POP JUMP JUMPDEST PUSH0 JUMPDEST DUP4 DUP2 LT ISZERO PUSH2 0x97D JUMPI DUP1 DUP3 ADD MLOAD DUP2 DUP5 ADD MSTORE PUSH1 0x20 DUP2 ADD SWAP1 POP PUSH2 0x962 JUMP JUMPDEST PUSH0 DUP5 DUP5 ADD MSTORE POP POP POP POP JUMP JUMPDEST PUSH0 PUSH1 0x1F NOT PUSH1 0x1F DUP4 ADD AND SWAP1 POP SWAP2 SWAP1 POP JUMP JUMPDEST PUSH0 PUSH2 0x9A2 DUP3 PUSH2 0x946 JUMP JUMPDEST PUSH2 0x9AC DUP2 DUP6 PUSH2 0x950 JUMP JUMPDEST SWAP4 POP PUSH2 0x9BC DUP2 DUP6 PUSH1 0x20 DUP7 ADD PUSH2 0x960 JUMP JUMPDEST PUSH2 0x9C5 DUP2 PUSH2 0x988 JUMP JUMPDEST DUP5 ADD SWAP2 POP POP SWAP3 SWAP2 POP POP JUMP JUMPDEST PUSH0 PUSH1 0x20 DUP3 ADD SWAP1 POP DUP2 DUP2 SUB PUSH0 DUP4 ADD MSTORE PUSH2 0x9E8 DUP2 DUP5 PUSH2 0x998 JUMP JUMPDEST SWAP1 POP SWAP3 SWAP2 POP POP JUMP JUMPDEST PUSH0 DUP1 REVERT JUMPDEST PUSH0 PUSH20 0xFFFFFFFFFFFFFFFFFFFFFFFFFFFFFFFFFFFFFFFF DUP3 AND SWAP1 POP SWAP2 SWAP1 POP JUMP JUMPDEST PUSH0 PUSH2 0xA1D DUP3 PUSH2 0x9F4 JUMP JUMPDEST SWAP1 POP SWAP2 SWAP1 POP JUMP JUMPDEST PUSH2 0xA2D DUP2 PUSH2 0xA13 JUMP JUMPDEST DUP2 EQ PUSH2 0xA37 JUMPI PUSH0 DUP1 REVERT JUMPDEST POP JUMP JUMPDEST PUSH0 DUP2 CALLDATALOAD SWAP1 POP PUSH2 0xA48 DUP2 PUSH2 0xA24 JUMP JUMPDEST SWAP3 SWAP2 POP POP JUMP JUMPDEST PUSH0 DUP2 SWAP1 POP SWAP2 SWAP1 POP JUMP JUMPDEST PUSH2 0xA60 DUP2 PUSH2 0xA4E JUMP JUMPDEST DUP2 EQ PUSH2 0xA6A JUMPI PUSH0 DUP1 REVERT JUMPDEST POP JUMP JUMPDEST PUSH0 DUP2 CALLDATALOAD SWAP1 POP PUSH2 0xA7B DUP2 PUSH2 0xA57 JUMP JUMPDEST SWAP3 SWAP2 POP POP JUMP JUMPDEST PUSH0 DUP1 PUSH1 0x40 DUP4 DUP6 SUB SLT ISZERO PUSH2 0xA97 JUMPI PUSH2 0xA96 PUSH2 0x9F0 JUMP JUMPDEST JUMPDEST PUSH0 PUSH2 0xAA4 DUP6 DUP3 DUP7 ADD PUSH2 0xA3A JUMP JUMPDEST SWAP3 POP POP PUSH1 0x20 PUSH2 0xAB5 DUP6 DUP3 DUP7 ADD PUSH2 0xA6D JUMP JUMPDEST SWAP2 POP POP SWAP3 POP SWAP3 SWAP1 POP JUMP JUMPDEST PUSH0 DUP2 ISZERO ISZERO SWAP1 POP SWAP2 SWAP1 POP JUMP JUMPDEST PUSH2 0xAD3 DUP2 PUSH2 0xABF JUMP JUMPDEST DUP3 MSTORE POP POP JUMP JUMPDEST PUSH0 PUSH1 0x20 DUP3 ADD SWAP1 POP PUSH2 0xAEC PUSH0 DUP4 ADD DUP5 PUSH2 0xACA JUMP JUMPDEST SWAP3 SWAP2 POP POP JUMP JUMPDEST PUSH2 0xAFB DUP2 PUSH2 0xA4E JUMP JUMPDEST DUP3 MSTORE POP POP JUMP JUMPDEST PUSH0 PUSH1 0x20 DUP3 ADD SWAP1 POP PUSH2 0xB14 PUSH0 DUP4 ADD DUP5 PUSH2 0xAF2 JUMP JUMPDEST SWAP3 SWAP2 POP POP JUMP JUMPDEST PUSH0 DUP1 PUSH0 PUSH1 0x60 DUP5 DUP7 SUB SLT ISZERO PUSH2 0xB31 JUMPI PUSH2 0xB30 PUSH2 0x9F0 JUMP JUMPDEST JUMPDEST PUSH0 PUSH2 0xB3E DUP7 DUP3 DUP8 ADD PUSH2 0xA3A JUMP JUMPDEST SWAP4 POP POP PUSH1 0x20 PUSH2 0xB4F DUP7 DUP3 DUP8 ADD PUSH2 0xA3A JUMP JUMPDEST SWAP3 POP POP PUSH1 0x40 PUSH2 0xB60 DUP7 DUP3 DUP8 ADD PUSH2 0xA6D JUMP JUMPDEST SWAP2 POP POP SWAP3 POP SWAP3 POP SWAP3 JUMP JUMPDEST PUSH0 PUSH1 0xFF DUP3 AND SWAP1 POP SWAP2 SWAP1 POP JUMP JUMPDEST PUSH2 0xB7F DUP2 PUSH2 0xB6A JUMP JUMPDEST DUP3 MSTORE POP POP JUMP JUMPDEST PUSH0 PUSH1 0x20 DUP3 ADD SWAP1 POP PUSH2 0xB98 PUSH0 DUP4 ADD DUP5 PUSH2 0xB76 JUMP JUMPDEST SWAP3 SWAP2 POP POP JUMP JUMPDEST PUSH0 PUSH1 0x20 DUP3 DUP5 SUB SLT ISZERO PUSH2 0xBB3 JUMPI PUSH2 0xBB2 PUSH2 0x9F0 JUMP JUMPDEST JUMPDEST PUSH0 PUSH2 0xBC0 DUP5 DUP3 DUP6 ADD PUSH2 0xA3A JUMP JUMPDEST SWAP2 POP POP SWAP3 SWAP2 POP POP JUMP JUMPDEST PUSH0 DUP1 PUSH1 0x40 DUP4 DUP6 SUB SLT ISZERO PUSH2 0xBDF JUMPI PUSH2 0xBDE PUSH2 0x9F0 JUMP JUMPDEST JUMPDEST PUSH0 PUSH2 0xBEC DUP6 DUP3 DUP7 ADD PUSH2 0xA3A JUMP JUMPDEST SWAP3 POP POP PUSH1 0x20 PUSH2 0xBFD DUP6 DUP3 DUP7 ADD PUSH2 0xA3A JUMP JUMPDEST SWAP2 POP POP SWAP3 POP SWAP3 SWAP1 POP JUMP JUMPDEST PUSH32 0x4E487B7100000000000000000000000000000000000000000000000000000000 PUSH0 MSTORE PUSH1 0x11 PUSH1 0x4 MSTORE PUSH1 0x24 PUSH0 REVERT JUMPDEST PUSH0 PUSH2 0xC3E DUP3 PUSH2 0xA4E JUMP JUMPDEST SWAP2 POP PUSH2 0xC49 DUP4 PUSH2 0xA4E JUMP JUMPDEST SWAP3 POP DUP3 DUP3 SUB SWAP1 POP DUP2 DUP2 GT ISZERO PUSH2 0xC61 JUMPI PUSH2 0xC60 PUSH2 0xC07 JUMP JUMPDEST JUMPDEST SWAP3 SWAP2 POP POP JUMP JUMPDEST PUSH0 PUSH2 0xC71 DUP3 PUSH2 0xA4E JUMP JUMPDEST SWAP2 POP PUSH2 0xC7C DUP4 PUSH2 0xA4E JUMP JUMPDEST SWAP3 POP DUP3 DUP3 ADD SWAP1 POP DUP1 DUP3 GT ISZERO PUSH2 0xC94 JUMPI PUSH2 0xC93 PUSH2 0xC07 JUMP JUMPDEST JUMPDEST SWAP3 SWAP2 POP POP JUMP INVALID LOG2 PUSH5 0x6970667358 0x22 SLT KECCAK256 MSTORE EXTCODESIZE 0x4F SSTORE 0x4E CODESIZE ADDMOD LOG1 0xE5 0xC7 CALLDATACOPY 0xD0 0x27 0xE8 0xDC PUSH2 0xEC58 0xB4 CALLDATALOAD SLT 0x24 PUSH3 0x7E7BD1 CREATE2 0x5E SWAP12 SWAP16 0x26 0xC5 PUSH5 0x736F6C6343 STOP ADDMOD ISZERO STOP CALLER "
				},
				"gasEstimates": {
					"creation": {
						"codeDepositCost": "772000",
						"executionCost": "infinite",
						"totalCost": "infinite"
					},
					"external": {
						"": "173",
						"airdrop()": "infinite",
						"airdroped()": "2533",
						"depositTokens(uint256)": "infinite",
						"flashLoan(uint256)": "infinite",
						"isCompleted()": "infinite",
						"poolBalance()": "2448",
						"score()": "2447",
						"token()": "infinite"
					}
				},
				"methodIdentifiers": {
					"airdrop()": "3884d635",
					"airdroped()": "d1ae3e9c",
					"depositTokens(uint256)": "dd49756e",
					"flashLoan(uint256)": "9ab603b9",
					"isCompleted()": "fa391c64",
					"poolBalance()": "96365d44",
					"score()": "efedc669",
					"token()": "fc0c546a"
				}
			},
			"storageLayout": {
				"storage": [
					{
						"astId": 10,
						"contract": "shoot/摸底2/2/2.sol:check",
						"label": "_status",
						"offset": 0,
						"slot": "0",
						"type": "t_uint256"
					},
					{
						"astId": 382,
						"contract": "shoot/摸底2/2/2.sol:check",
						"label": "token",
						"offset": 0,
						"slot": "1",
						"type": "t_contract(ERC20)373"
					},
					{
						"astId": 385,
						"contract": "shoot/摸底2/2/2.sol:check",
						"label": "poolBalance",
						"offset": 0,
						"slot": "2",
						"type": "t_uint256"
					},
					{
						"astId": 387,
						"contract": "shoot/摸底2/2/2.sol:check",
						"label": "airdroped",
						"offset": 0,
						"slot": "3",
						"type": "t_bool"
					},
					{
						"astId": 585,
						"contract": "shoot/摸底2/2/2.sol:check",
						"label": "score",
						"offset": 0,
						"slot": "4",
						"type": "t_uint256"
					}
				],
				"types": {
					"t_bool": {
						"encoding": "inplace",
						"label": "bool",
						"numberOfBytes": "1"
					},
					"t_contract(ERC20)373": {
						"encoding": "inplace",
						"label": "contract ERC20",
						"numberOfBytes": "20"
					},
					"t_uint256": {
						"encoding": "inplace",
						"label": "uint256",
						"numberOfBytes": "32"
					}
				}
			},
			"userdoc": {
				"kind": "user",
				"methods": {},
				"version": 1
			}
		}
	}
}