{
	"SecLessonPoc-main/contracts/delegatecall/check/Libray.sol": {
		"Check": {
			"abi": [
				{
					"inputs": [
						{
							"internalType": "address",
							"name": "_timeZone1LibraryAddress",
							"type": "address"
						},
						{
							"internalType": "address",
							"name": "_timeZone2LibraryAddress",
							"type": "address"
						}
					],
					"stateMutability": "nonpayable",
					"type": "constructor"
				},
				{
					"inputs": [],
					"name": "isCompleted",
					"outputs": [],
					"stateMutability": "nonpayable",
					"type": "function"
				},
				{
					"inputs": [],
					"name": "owner",
					"outputs": [
						{
							"internalType": "address",
							"name": "",
							"type": "address"
						}
					],
					"stateMutability": "view",
					"type": "function"
				},
				{
					"inputs": [],
					"name": "score",
					"outputs": [
						{
							"internalType": "uint256",
							"name": "",
							"type": "uint256"
						}
					],
					"stateMutability": "view",
					"type": "function"
				},
				{
					"inputs": [
						{
							"internalType": "uint256",
							"name": "_timeStamp",
							"type": "uint256"
						}
					],
					"name": "setFirstTime",
					"outputs": [],
					"stateMutability": "nonpayable",
					"type": "function"
				},
				{
					"inputs": [
						{
							"internalType": "uint256",
							"name": "_timeStamp",
							"type": "uint256"
						}
					],
					"name": "setSecondTime",
					"outputs": [],
					"stateMutability": "nonpayable",
					"type": "function"
				},
				{
					"inputs": [],
					"name": "timeZone1Library",
					"outputs": [
						{
							"internalType": "address",
							"name": "",
							"type": "address"
						}
					],
					"stateMutability": "view",
					"type": "function"
				},
				{
					"inputs": [],
					"name": "timeZone2Library",
					"outputs": [
						{
							"internalType": "address",
							"name": "",
							"type": "address"
						}
					],
					"stateMutability": "view",
					"type": "function"
				}
			],
			"devdoc": {
				"kind": "dev",
				"methods": {},
				"version": 1
			},
			"evm": {
				"assembly": "    /* \"SecLessonPoc-main/contracts/delegatecall/check/Libray.sol\":296:1535  contract Check {... */\n  mstore(0x40, 0x80)\n    /* \"SecLessonPoc-main/contracts/delegatecall/check/Libray.sol\":546:796  constructor(... */\n  callvalue\n  dup1\n  iszero\n  tag_1\n  jumpi\n  0x00\n  dup1\n  revert\ntag_1:\n  pop\n  mload(0x40)\n  sub(codesize, bytecodeSize)\n  dup1\n  bytecodeSize\n  dup4\n  codecopy\n  dup2\n  dup2\n  add\n  0x40\n  mstore\n  0x40\n  dup2\n  lt\n  iszero\n  tag_2\n  jumpi\n  0x00\n  dup1\n  revert\ntag_2:\n  dup2\n  add\n  swap1\n  dup1\n  dup1\n  mload\n  swap1\n  0x20\n  add\n  swap1\n  swap3\n  swap2\n  swap1\n  dup1\n  mload\n  swap1\n  0x20\n  add\n  swap1\n  swap3\n  swap2\n  swap1\n  pop\n  pop\n  pop\n    /* \"SecLessonPoc-main/contracts/delegatecall/check/Libray.sol\":684:708  _timeZone1LibraryAddress */\n  dup2\n    /* \"SecLessonPoc-main/contracts/delegatecall/check/Libray.sol\":665:681  timeZone1Library */\n  0x00\n  dup1\n    /* \"SecLessonPoc-main/contracts/delegatecall/check/Libray.sol\":665:708  timeZone1Library = _timeZone1LibraryAddress */\n  0x0100\n  exp\n  dup2\n  sload\n  dup2\n  0xffffffffffffffffffffffffffffffffffffffff\n  mul\n  not\n  and\n  swap1\n  dup4\n  0xffffffffffffffffffffffffffffffffffffffff\n  and\n  mul\n  or\n  swap1\n  sstore\n  pop\n    /* \"SecLessonPoc-main/contracts/delegatecall/check/Libray.sol\":737:761  _timeZone2LibraryAddress */\n  dup1\n    /* \"SecLessonPoc-main/contracts/delegatecall/check/Libray.sol\":718:734  timeZone2Library */\n  0x01\n  0x00\n    /* \"SecLessonPoc-main/contracts/delegatecall/check/Libray.sol\":718:761  timeZone2Library = _timeZone2LibraryAddress */\n  0x0100\n  exp\n  dup2\n  sload\n  dup2\n  0xffffffffffffffffffffffffffffffffffffffff\n  mul\n  not\n  and\n  swap1\n  dup4\n  0xffffffffffffffffffffffffffffffffffffffff\n  and\n  mul\n  or\n  swap1\n  sstore\n  pop\n    /* \"SecLessonPoc-main/contracts/delegatecall/check/Libray.sol\":779:789  msg.sender */\n  caller\n    /* \"SecLessonPoc-main/contracts/delegatecall/check/Libray.sol\":771:776  owner */\n  0x02\n  0x00\n    /* \"SecLessonPoc-main/contracts/delegatecall/check/Libray.sol\":771:789  owner = msg.sender */\n  0x0100\n  exp\n  dup2\n  sload\n  dup2\n  0xffffffffffffffffffffffffffffffffffffffff\n  mul\n  not\n  and\n  swap1\n  dup4\n  0xffffffffffffffffffffffffffffffffffffffff\n  and\n  mul\n  or\n  swap1\n  sstore\n  pop\n    /* \"SecLessonPoc-main/contracts/delegatecall/check/Libray.sol\":546:796  constructor(... */\n  pop\n  pop\n    /* \"SecLessonPoc-main/contracts/delegatecall/check/Libray.sol\":296:1535  contract Check {... */\n  dataSize(sub_0)\n  dup1\n  dataOffset(sub_0)\n  0x00\n  codecopy\n  0x00\n  return\nstop\n\nsub_0: assembly {\n        /* \"SecLessonPoc-main/contracts/delegatecall/check/Libray.sol\":296:1535  contract Check {... */\n      mstore(0x40, 0x80)\n      callvalue\n      dup1\n      iszero\n      tag_1\n      jumpi\n      0x00\n      dup1\n      revert\n    tag_1:\n      pop\n      jumpi(tag_2, lt(calldatasize, 0x04))\n      shr(0xe0, calldataload(0x00))\n      dup1\n      0x8da5cb5b\n      gt\n      tag_10\n      jumpi\n      dup1\n      0x8da5cb5b\n      eq\n      tag_6\n      jumpi\n      dup1\n      0xefedc669\n      eq\n      tag_7\n      jumpi\n      dup1\n      0xf1e02620\n      eq\n      tag_8\n      jumpi\n      dup1\n      0xfa391c64\n      eq\n      tag_9\n      jumpi\n      jump(tag_2)\n    tag_10:\n      dup1\n      0x27d6974f\n      eq\n      tag_3\n      jumpi\n      dup1\n      0x3dc79422\n      eq\n      tag_4\n      jumpi\n      dup1\n      0x5bda8fa4\n      eq\n      tag_5\n      jumpi\n    tag_2:\n      0x00\n      dup1\n      revert\n        /* \"SecLessonPoc-main/contracts/delegatecall/check/Libray.sol\":354:385  address public timeZone2Library */\n    tag_3:\n      tag_11\n      tag_12\n      jump\t// in\n    tag_11:\n      mload(0x40)\n      dup1\n      dup3\n      0xffffffffffffffffffffffffffffffffffffffff\n      and\n      dup2\n      mstore\n      0x20\n      add\n      swap2\n      pop\n      pop\n      mload(0x40)\n      dup1\n      swap2\n      sub\n      swap1\n      return\n        /* \"SecLessonPoc-main/contracts/delegatecall/check/Libray.sol\":317:348  address public timeZone1Library */\n    tag_4:\n      tag_13\n      tag_14\n      jump\t// in\n    tag_13:\n      mload(0x40)\n      dup1\n      dup3\n      0xffffffffffffffffffffffffffffffffffffffff\n      and\n      dup2\n      mstore\n      0x20\n      add\n      swap2\n      pop\n      pop\n      mload(0x40)\n      dup1\n      swap2\n      sub\n      swap1\n      return\n        /* \"SecLessonPoc-main/contracts/delegatecall/check/Libray.sol\":973:1139  function setSecondTime(uint256 _timeStamp) public {... */\n    tag_5:\n      tag_15\n      0x04\n      dup1\n      calldatasize\n      sub\n      0x20\n      dup2\n      lt\n      iszero\n      tag_16\n      jumpi\n      0x00\n      dup1\n      revert\n    tag_16:\n      dup2\n      add\n      swap1\n      dup1\n      dup1\n      calldataload\n      swap1\n      0x20\n      add\n      swap1\n      swap3\n      swap2\n      swap1\n      pop\n      pop\n      pop\n      tag_17\n      jump\t// in\n    tag_15:\n      stop\n        /* \"SecLessonPoc-main/contracts/delegatecall/check/Libray.sol\":391:411  address public owner */\n    tag_6:\n      tag_18\n      tag_19\n      jump\t// in\n    tag_18:\n      mload(0x40)\n      dup1\n      dup3\n      0xffffffffffffffffffffffffffffffffffffffff\n      and\n      dup2\n      mstore\n      0x20\n      add\n      swap2\n      pop\n      pop\n      mload(0x40)\n      dup1\n      swap2\n      sub\n      swap1\n      return\n        /* \"SecLessonPoc-main/contracts/delegatecall/check/Libray.sol\":417:437  uint256 public score */\n    tag_7:\n      tag_20\n      tag_21\n      jump\t// in\n    tag_20:\n      mload(0x40)\n      dup1\n      dup3\n      dup2\n      mstore\n      0x20\n      add\n      swap2\n      pop\n      pop\n      mload(0x40)\n      dup1\n      swap2\n      sub\n      swap1\n      return\n        /* \"SecLessonPoc-main/contracts/delegatecall/check/Libray.sol\":802:967  function setFirstTime(uint256 _timeStamp) public {... */\n    tag_8:\n      tag_22\n      0x04\n      dup1\n      calldatasize\n      sub\n      0x20\n      dup2\n      lt\n      iszero\n      tag_23\n      jumpi\n      0x00\n      dup1\n      revert\n    tag_23:\n      dup2\n      add\n      swap1\n      dup1\n      dup1\n      calldataload\n      swap1\n      0x20\n      add\n      swap1\n      swap3\n      swap2\n      swap1\n      pop\n      pop\n      pop\n      tag_24\n      jump\t// in\n    tag_22:\n      stop\n        /* \"SecLessonPoc-main/contracts/delegatecall/check/Libray.sol\":1334:1533  function isCompleted() public {... */\n    tag_9:\n      tag_25\n      tag_26\n      jump\t// in\n    tag_25:\n      stop\n        /* \"SecLessonPoc-main/contracts/delegatecall/check/Libray.sol\":354:385  address public timeZone2Library */\n    tag_12:\n      0x01\n      0x00\n      swap1\n      sload\n      swap1\n      0x0100\n      exp\n      swap1\n      div\n      0xffffffffffffffffffffffffffffffffffffffff\n      and\n      dup2\n      jump\t// out\n        /* \"SecLessonPoc-main/contracts/delegatecall/check/Libray.sol\":317:348  address public timeZone1Library */\n    tag_14:\n      0x00\n      dup1\n      sload\n      swap1\n      0x0100\n      exp\n      swap1\n      div\n      0xffffffffffffffffffffffffffffffffffffffff\n      and\n      dup2\n      jump\t// out\n        /* \"SecLessonPoc-main/contracts/delegatecall/check/Libray.sol\":973:1139  function setSecondTime(uint256 _timeStamp) public {... */\n    tag_17:\n        /* \"SecLessonPoc-main/contracts/delegatecall/check/Libray.sol\":1033:1049  timeZone2Library */\n      0x01\n      0x00\n      swap1\n      sload\n      swap1\n      0x0100\n      exp\n      swap1\n      div\n      0xffffffffffffffffffffffffffffffffffffffff\n      and\n        /* \"SecLessonPoc-main/contracts/delegatecall/check/Libray.sol\":1033:1062  timeZone2Library.delegatecall */\n      0xffffffffffffffffffffffffffffffffffffffff\n      and\n        /* \"SecLessonPoc-main/contracts/delegatecall/check/Libray.sol\":509:538  keccak256(\"setTime(uint256)\") */\n      0x3beb26c427d03ceadbdaedc2f7aac4d9fc345b4fcbfc4b80654fee46dd7c349a\n        /* \"SecLessonPoc-main/contracts/delegatecall/check/Libray.sol\":1111:1121  _timeStamp */\n      dup3\n        /* \"SecLessonPoc-main/contracts/delegatecall/check/Libray.sol\":1076:1122  abi.encodePacked(setTimeSignature, _timeStamp) */\n      add(0x20, mload(0x40))\n      dup1\n      dup4\n      not(0xffffffffffffffffffffffffffffffffffffffffffffffffffffffff)\n      and\n      dup2\n      mstore\n      0x04\n      add\n      dup3\n      dup2\n      mstore\n      0x20\n      add\n      swap3\n      pop\n      pop\n      pop\n      mload(0x40)\n      0x20\n      dup2\n      dup4\n      sub\n      sub\n      dup2\n      mstore\n      swap1\n      0x40\n      mstore\n        /* \"SecLessonPoc-main/contracts/delegatecall/check/Libray.sol\":1033:1132  timeZone2Library.delegatecall(... */\n      mload(0x40)\n      dup1\n      dup3\n      dup1\n      mload\n      swap1\n      0x20\n      add\n      swap1\n      dup1\n      dup4\n      dup4\n    tag_28:\n      0x20\n      dup4\n      lt\n      tag_30\n      jumpi\n      dup1\n      mload\n      dup3\n      mstore\n      0x20\n      dup3\n      add\n      swap2\n      pop\n      0x20\n      dup2\n      add\n      swap1\n      pop\n      0x20\n      dup4\n      sub\n      swap3\n      pop\n      jump(tag_28)\n    tag_30:\n      0x01\n      dup4\n      0x20\n      sub\n      0x0100\n      exp\n      sub\n      dup1\n      not\n      dup3\n      mload\n      and\n      dup2\n      dup5\n      mload\n      and\n      dup1\n      dup3\n      or\n      dup6\n      mstore\n      pop\n      pop\n      pop\n      pop\n      pop\n      pop\n      swap1\n      pop\n      add\n      swap2\n      pop\n      pop\n      0x00\n      mload(0x40)\n      dup1\n      dup4\n      sub\n      dup2\n      dup6\n      gas\n      delegatecall\n      swap2\n      pop\n      pop\n      returndatasize\n      dup1\n      0x00\n      dup2\n      eq\n      tag_33\n      jumpi\n      mload(0x40)\n      swap2\n      pop\n      and(add(returndatasize, 0x3f), not(0x1f))\n      dup3\n      add\n      0x40\n      mstore\n      returndatasize\n      dup3\n      mstore\n      returndatasize\n      0x00\n      0x20\n      dup5\n      add\n      returndatacopy\n      jump(tag_32)\n    tag_33:\n      0x60\n      swap2\n      pop\n    tag_32:\n      pop\n      pop\n      pop\n        /* \"SecLessonPoc-main/contracts/delegatecall/check/Libray.sol\":973:1139  function setSecondTime(uint256 _timeStamp) public {... */\n      pop\n      jump\t// out\n        /* \"SecLessonPoc-main/contracts/delegatecall/check/Libray.sol\":391:411  address public owner */\n    tag_19:\n      0x02\n      0x00\n      swap1\n      sload\n      swap1\n      0x0100\n      exp\n      swap1\n      div\n      0xffffffffffffffffffffffffffffffffffffffff\n      and\n      dup2\n      jump\t// out\n        /* \"SecLessonPoc-main/contracts/delegatecall/check/Libray.sol\":417:437  uint256 public score */\n    tag_21:\n      sload(0x03)\n      dup2\n      jump\t// out\n        /* \"SecLessonPoc-main/contracts/delegatecall/check/Libray.sol\":802:967  function setFirstTime(uint256 _timeStamp) public {... */\n    tag_24:\n        /* \"SecLessonPoc-main/contracts/delegatecall/check/Libray.sol\":861:877  timeZone1Library */\n      0x00\n      dup1\n      sload\n      swap1\n      0x0100\n      exp\n      swap1\n      div\n      0xffffffffffffffffffffffffffffffffffffffff\n      and\n        /* \"SecLessonPoc-main/contracts/delegatecall/check/Libray.sol\":861:890  timeZone1Library.delegatecall */\n      0xffffffffffffffffffffffffffffffffffffffff\n      and\n        /* \"SecLessonPoc-main/contracts/delegatecall/check/Libray.sol\":509:538  keccak256(\"setTime(uint256)\") */\n      0x3beb26c427d03ceadbdaedc2f7aac4d9fc345b4fcbfc4b80654fee46dd7c349a\n        /* \"SecLessonPoc-main/contracts/delegatecall/check/Libray.sol\":939:949  _timeStamp */\n      dup3\n        /* \"SecLessonPoc-main/contracts/delegatecall/check/Libray.sol\":904:950  abi.encodePacked(setTimeSignature, _timeStamp) */\n      add(0x20, mload(0x40))\n      dup1\n      dup4\n      not(0xffffffffffffffffffffffffffffffffffffffffffffffffffffffff)\n      and\n      dup2\n      mstore\n      0x04\n      add\n      dup3\n      dup2\n      mstore\n      0x20\n      add\n      swap3\n      pop\n      pop\n      pop\n      mload(0x40)\n      0x20\n      dup2\n      dup4\n      sub\n      sub\n      dup2\n      mstore\n      swap1\n      0x40\n      mstore\n        /* \"SecLessonPoc-main/contracts/delegatecall/check/Libray.sol\":861:960  timeZone1Library.delegatecall(... */\n      mload(0x40)\n      dup1\n      dup3\n      dup1\n      mload\n      swap1\n      0x20\n      add\n      swap1\n      dup1\n      dup4\n      dup4\n    tag_35:\n      0x20\n      dup4\n      lt\n      tag_37\n      jumpi\n      dup1\n      mload\n      dup3\n      mstore\n      0x20\n      dup3\n      add\n      swap2\n      pop\n      0x20\n      dup2\n      add\n      swap1\n      pop\n      0x20\n      dup4\n      sub\n      swap3\n      pop\n      jump(tag_35)\n    tag_37:\n      0x01\n      dup4\n      0x20\n      sub\n      0x0100\n      exp\n      sub\n      dup1\n      not\n      dup3\n      mload\n      and\n      dup2\n      dup5\n      mload\n      and\n      dup1\n      dup3\n      or\n      dup6\n      mstore\n      pop\n      pop\n      pop\n      pop\n      pop\n      pop\n      swap1\n      pop\n      add\n      swap2\n      pop\n      pop\n      0x00\n      mload(0x40)\n      dup1\n      dup4\n      sub\n      dup2\n      dup6\n      gas\n      delegatecall\n      swap2\n      pop\n      pop\n      returndatasize\n      dup1\n      0x00\n      dup2\n      eq\n      tag_40\n      jumpi\n      mload(0x40)\n      swap2\n      pop\n      and(add(returndatasize, 0x3f), not(0x1f))\n      dup3\n      add\n      0x40\n      mstore\n      returndatasize\n      dup3\n      mstore\n      returndatasize\n      0x00\n      0x20\n      dup5\n      add\n      returndatacopy\n      jump(tag_39)\n    tag_40:\n      0x60\n      swap2\n      pop\n    tag_39:\n      pop\n      pop\n      pop\n        /* \"SecLessonPoc-main/contracts/delegatecall/check/Libray.sol\":802:967  function setFirstTime(uint256 _timeStamp) public {... */\n      pop\n      jump\t// out\n        /* \"SecLessonPoc-main/contracts/delegatecall/check/Libray.sol\":1334:1533  function isCompleted() public {... */\n    tag_26:\n        /* \"SecLessonPoc-main/contracts/delegatecall/check/Libray.sol\":1382:1383  0 */\n      0x00\n        /* \"SecLessonPoc-main/contracts/delegatecall/check/Libray.sol\":1374:1379  score */\n      0x03\n        /* \"SecLessonPoc-main/contracts/delegatecall/check/Libray.sol\":1374:1383  score = 0 */\n      dup2\n      swap1\n      sstore\n      pop\n        /* \"SecLessonPoc-main/contracts/delegatecall/check/Libray.sol\":1397:1419  isContract(msg.sender) */\n      tag_42\n        /* \"SecLessonPoc-main/contracts/delegatecall/check/Libray.sol\":1408:1418  msg.sender */\n      caller\n        /* \"SecLessonPoc-main/contracts/delegatecall/check/Libray.sol\":1397:1407  isContract */\n      tag_43\n        /* \"SecLessonPoc-main/contracts/delegatecall/check/Libray.sol\":1397:1419  isContract(msg.sender) */\n      jump\t// in\n    tag_42:\n        /* \"SecLessonPoc-main/contracts/delegatecall/check/Libray.sol\":1393:1457  if (isContract(msg.sender)) {... */\n      iszero\n      tag_44\n      jumpi\n        /* \"SecLessonPoc-main/contracts/delegatecall/check/Libray.sol\":1444:1446  25 */\n      0x19\n        /* \"SecLessonPoc-main/contracts/delegatecall/check/Libray.sol\":1435:1440  score */\n      0x03\n      0x00\n        /* \"SecLessonPoc-main/contracts/delegatecall/check/Libray.sol\":1435:1446  score += 25 */\n      dup3\n      dup3\n      sload\n      add\n      swap3\n      pop\n      pop\n      dup2\n      swap1\n      sstore\n      pop\n        /* \"SecLessonPoc-main/contracts/delegatecall/check/Libray.sol\":1393:1457  if (isContract(msg.sender)) {... */\n    tag_44:\n        /* \"SecLessonPoc-main/contracts/delegatecall/check/Libray.sol\":1479:1489  msg.sender */\n      caller\n        /* \"SecLessonPoc-main/contracts/delegatecall/check/Libray.sol\":1470:1489  owner == msg.sender */\n      0xffffffffffffffffffffffffffffffffffffffff\n      and\n        /* \"SecLessonPoc-main/contracts/delegatecall/check/Libray.sol\":1470:1475  owner */\n      0x02\n      0x00\n      swap1\n      sload\n      swap1\n      0x0100\n      exp\n      swap1\n      div\n      0xffffffffffffffffffffffffffffffffffffffff\n      and\n        /* \"SecLessonPoc-main/contracts/delegatecall/check/Libray.sol\":1470:1489  owner == msg.sender */\n      0xffffffffffffffffffffffffffffffffffffffff\n      and\n      eq\n        /* \"SecLessonPoc-main/contracts/delegatecall/check/Libray.sol\":1466:1527  if (owner == msg.sender) {... */\n      iszero\n      tag_45\n      jumpi\n        /* \"SecLessonPoc-main/contracts/delegatecall/check/Libray.sol\":1514:1516  75 */\n      0x4b\n        /* \"SecLessonPoc-main/contracts/delegatecall/check/Libray.sol\":1505:1510  score */\n      0x03\n      0x00\n        /* \"SecLessonPoc-main/contracts/delegatecall/check/Libray.sol\":1505:1516  score += 75 */\n      dup3\n      dup3\n      sload\n      add\n      swap3\n      pop\n      pop\n      dup2\n      swap1\n      sstore\n      pop\n        /* \"SecLessonPoc-main/contracts/delegatecall/check/Libray.sol\":1466:1527  if (owner == msg.sender) {... */\n    tag_45:\n        /* \"SecLessonPoc-main/contracts/delegatecall/check/Libray.sol\":1334:1533  function isCompleted() public {... */\n      jump\t// out\n        /* \"SecLessonPoc-main/contracts/delegatecall/check/Libray.sol\":1145:1328  function isContract(address addr) private view returns (bool) {... */\n    tag_43:\n        /* \"SecLessonPoc-main/contracts/delegatecall/check/Libray.sol\":1201:1205  bool */\n      0x00\n        /* \"SecLessonPoc-main/contracts/delegatecall/check/Libray.sol\":1217:1229  uint256 size */\n      dup1\n        /* \"SecLessonPoc-main/contracts/delegatecall/check/Libray.sol\":1282:1286  addr */\n      dup3\n        /* \"SecLessonPoc-main/contracts/delegatecall/check/Libray.sol\":1270:1287  extcodesize(addr) */\n      extcodesize\n        /* \"SecLessonPoc-main/contracts/delegatecall/check/Libray.sol\":1262:1287  size := extcodesize(addr) */\n      swap1\n      pop\n        /* \"SecLessonPoc-main/contracts/delegatecall/check/Libray.sol\":1320:1321  0 */\n      0x00\n        /* \"SecLessonPoc-main/contracts/delegatecall/check/Libray.sol\":1313:1317  size */\n      dup2\n        /* \"SecLessonPoc-main/contracts/delegatecall/check/Libray.sol\":1313:1321  size > 0 */\n      gt\n        /* \"SecLessonPoc-main/contracts/delegatecall/check/Libray.sol\":1306:1321  return size > 0 */\n      swap2\n      pop\n      pop\n        /* \"SecLessonPoc-main/contracts/delegatecall/check/Libray.sol\":1145:1328  function isContract(address addr) private view returns (bool) {... */\n      swap2\n      swap1\n      pop\n      jump\t// out\n\n    auxdata: 0xa2646970667358221220d0a126ed6339b56a02228627d05352d4486a185734ff0aa87f679fb8e9baa43464736f6c634300060c0033\n}\n",
				"bytecode": {
					"linkReferences": {},
					"object": "608060405234801561001057600080fd5b5060405161068e38038061068e8339818101604052604081101561003357600080fd5b810190808051906020019092919080519060200190929190505050816000806101000a81548173ffffffffffffffffffffffffffffffffffffffff021916908373ffffffffffffffffffffffffffffffffffffffff16021790555080600160006101000a81548173ffffffffffffffffffffffffffffffffffffffff021916908373ffffffffffffffffffffffffffffffffffffffff16021790555033600260006101000a81548173ffffffffffffffffffffffffffffffffffffffff021916908373ffffffffffffffffffffffffffffffffffffffff160217905550505061056d806101216000396000f3fe608060405234801561001057600080fd5b506004361061007d5760003560e01c80638da5cb5b1161005b5780638da5cb5b14610118578063efedc6691461014c578063f1e026201461016a578063fa391c64146101985761007d565b806327d6974f146100825780633dc79422146100b65780635bda8fa4146100ea575b600080fd5b61008a6101a2565b604051808273ffffffffffffffffffffffffffffffffffffffff16815260200191505060405180910390f35b6100be6101c8565b604051808273ffffffffffffffffffffffffffffffffffffffff16815260200191505060405180910390f35b6101166004803603602081101561010057600080fd5b81019080803590602001909291905050506101ec565b005b61012061032a565b604051808273ffffffffffffffffffffffffffffffffffffffff16815260200191505060405180910390f35b610154610350565b6040518082815260200191505060405180910390f35b6101966004803603602081101561018057600080fd5b8101908080359060200190929190505050610356565b005b6101a0610492565b005b600160009054906101000a900473ffffffffffffffffffffffffffffffffffffffff1681565b60008054906101000a900473ffffffffffffffffffffffffffffffffffffffff1681565b600160009054906101000a900473ffffffffffffffffffffffffffffffffffffffff1673ffffffffffffffffffffffffffffffffffffffff167f3beb26c427d03ceadbdaedc2f7aac4d9fc345b4fcbfc4b80654fee46dd7c349a8260405160200180837bffffffffffffffffffffffffffffffffffffffffffffffffffffffff19168152600401828152602001925050506040516020818303038152906040526040518082805190602001908083835b602083106102bf578051825260208201915060208101905060208303925061029c565b6001836020036101000a038019825116818451168082178552505050505050905001915050600060405180830381855af49150503d806000811461031f576040519150601f19603f3d011682016040523d82523d6000602084013e610324565b606091505b50505050565b600260009054906101000a900473ffffffffffffffffffffffffffffffffffffffff1681565b60035481565b60008054906101000a900473ffffffffffffffffffffffffffffffffffffffff1673ffffffffffffffffffffffffffffffffffffffff167f3beb26c427d03ceadbdaedc2f7aac4d9fc345b4fcbfc4b80654fee46dd7c349a8260405160200180837bffffffffffffffffffffffffffffffffffffffffffffffffffffffff19168152600401828152602001925050506040516020818303038152906040526040518082805190602001908083835b602083106104275780518252602082019150602081019050602083039250610404565b6001836020036101000a038019825116818451168082178552505050505050905001915050600060405180830381855af49150503d8060008114610487576040519150601f19603f3d011682016040523d82523d6000602084013e61048c565b606091505b50505050565b60006003819055506104a333610524565b156104ba5760196003600082825401925050819055505b3373ffffffffffffffffffffffffffffffffffffffff16600260009054906101000a900473ffffffffffffffffffffffffffffffffffffffff1673ffffffffffffffffffffffffffffffffffffffff16141561052257604b6003600082825401925050819055505b565b600080823b90506000811191505091905056fea2646970667358221220d0a126ed6339b56a02228627d05352d4486a185734ff0aa87f679fb8e9baa43464736f6c634300060c0033",
					"opcodes": "PUSH1 0x80 PUSH1 0x40 MSTORE CALLVALUE DUP1 ISZERO PUSH2 0x10 JUMPI PUSH1 0x0 DUP1 REVERT JUMPDEST POP PUSH1 0x40 MLOAD PUSH2 0x68E CODESIZE SUB DUP1 PUSH2 0x68E DUP4 CODECOPY DUP2 DUP2 ADD PUSH1 0x40 MSTORE PUSH1 0x40 DUP2 LT ISZERO PUSH2 0x33 JUMPI PUSH1 0x0 DUP1 REVERT JUMPDEST DUP2 ADD SWAP1 DUP1 DUP1 MLOAD SWAP1 PUSH1 0x20 ADD SWAP1 SWAP3 SWAP2 SWAP1 DUP1 MLOAD SWAP1 PUSH1 0x20 ADD SWAP1 SWAP3 SWAP2 SWAP1 POP POP POP DUP2 PUSH1 0x0 DUP1 PUSH2 0x100 EXP DUP2 SLOAD DUP2 PUSH20 0xFFFFFFFFFFFFFFFFFFFFFFFFFFFFFFFFFFFFFFFF MUL NOT AND SWAP1 DUP4 PUSH20 0xFFFFFFFFFFFFFFFFFFFFFFFFFFFFFFFFFFFFFFFF AND MUL OR SWAP1 SSTORE POP DUP1 PUSH1 0x1 PUSH1 0x0 PUSH2 0x100 EXP DUP2 SLOAD DUP2 PUSH20 0xFFFFFFFFFFFFFFFFFFFFFFFFFFFFFFFFFFFFFFFF MUL NOT AND SWAP1 DUP4 PUSH20 0xFFFFFFFFFFFFFFFFFFFFFFFFFFFFFFFFFFFFFFFF AND MUL OR SWAP1 SSTORE POP CALLER PUSH1 0x2 PUSH1 0x0 PUSH2 0x100 EXP DUP2 SLOAD DUP2 PUSH20 0xFFFFFFFFFFFFFFFFFFFFFFFFFFFFFFFFFFFFFFFF MUL NOT AND SWAP1 DUP4 PUSH20 0xFFFFFFFFFFFFFFFFFFFFFFFFFFFFFFFFFFFFFFFF AND MUL OR SWAP1 SSTORE POP POP POP PUSH2 0x56D DUP1 PUSH2 0x121 PUSH1 0x0 CODECOPY PUSH1 0x0 RETURN INVALID PUSH1 0x80 PUSH1 0x40 MSTORE CALLVALUE DUP1 ISZERO PUSH2 0x10 JUMPI PUSH1 0x0 DUP1 REVERT JUMPDEST POP PUSH1 0x4 CALLDATASIZE LT PUSH2 0x7D JUMPI PUSH1 0x0 CALLDATALOAD PUSH1 0xE0 SHR DUP1 PUSH4 0x8DA5CB5B GT PUSH2 0x5B JUMPI DUP1 PUSH4 0x8DA5CB5B EQ PUSH2 0x118 JUMPI DUP1 PUSH4 0xEFEDC669 EQ PUSH2 0x14C JUMPI DUP1 PUSH4 0xF1E02620 EQ PUSH2 0x16A JUMPI DUP1 PUSH4 0xFA391C64 EQ PUSH2 0x198 JUMPI PUSH2 0x7D JUMP JUMPDEST DUP1 PUSH4 0x27D6974F EQ PUSH2 0x82 JUMPI DUP1 PUSH4 0x3DC79422 EQ PUSH2 0xB6 JUMPI DUP1 PUSH4 0x5BDA8FA4 EQ PUSH2 0xEA JUMPI JUMPDEST PUSH1 0x0 DUP1 REVERT JUMPDEST PUSH2 0x8A PUSH2 0x1A2 JUMP JUMPDEST PUSH1 0x40 MLOAD DUP1 DUP3 PUSH20 0xFFFFFFFFFFFFFFFFFFFFFFFFFFFFFFFFFFFFFFFF AND DUP2 MSTORE PUSH1 0x20 ADD SWAP2 POP POP PUSH1 0x40 MLOAD DUP1 SWAP2 SUB SWAP1 RETURN JUMPDEST PUSH2 0xBE PUSH2 0x1C8 JUMP JUMPDEST PUSH1 0x40 MLOAD DUP1 DUP3 PUSH20 0xFFFFFFFFFFFFFFFFFFFFFFFFFFFFFFFFFFFFFFFF AND DUP2 MSTORE PUSH1 0x20 ADD SWAP2 POP POP PUSH1 0x40 MLOAD DUP1 SWAP2 SUB SWAP1 RETURN JUMPDEST PUSH2 0x116 PUSH1 0x4 DUP1 CALLDATASIZE SUB PUSH1 0x20 DUP2 LT ISZERO PUSH2 0x100 JUMPI PUSH1 0x0 DUP1 REVERT JUMPDEST DUP2 ADD SWAP1 DUP1 DUP1 CALLDATALOAD SWAP1 PUSH1 0x20 ADD SWAP1 SWAP3 SWAP2 SWAP1 POP POP POP PUSH2 0x1EC JUMP JUMPDEST STOP JUMPDEST PUSH2 0x120 PUSH2 0x32A JUMP JUMPDEST PUSH1 0x40 MLOAD DUP1 DUP3 PUSH20 0xFFFFFFFFFFFFFFFFFFFFFFFFFFFFFFFFFFFFFFFF AND DUP2 MSTORE PUSH1 0x20 ADD SWAP2 POP POP PUSH1 0x40 MLOAD DUP1 SWAP2 SUB SWAP1 RETURN JUMPDEST PUSH2 0x154 PUSH2 0x350 JUMP JUMPDEST PUSH1 0x40 MLOAD DUP1 DUP3 DUP2 MSTORE PUSH1 0x20 ADD SWAP2 POP POP PUSH1 0x40 MLOAD DUP1 SWAP2 SUB SWAP1 RETURN JUMPDEST PUSH2 0x196 PUSH1 0x4 DUP1 CALLDATASIZE SUB PUSH1 0x20 DUP2 LT ISZERO PUSH2 0x180 JUMPI PUSH1 0x0 DUP1 REVERT JUMPDEST DUP2 ADD SWAP1 DUP1 DUP1 CALLDATALOAD SWAP1 PUSH1 0x20 ADD SWAP1 SWAP3 SWAP2 SWAP1 POP POP POP PUSH2 0x356 JUMP JUMPDEST STOP JUMPDEST PUSH2 0x1A0 PUSH2 0x492 JUMP JUMPDEST STOP JUMPDEST PUSH1 0x1 PUSH1 0x0 SWAP1 SLOAD SWAP1 PUSH2 0x100 EXP SWAP1 DIV PUSH20 0xFFFFFFFFFFFFFFFFFFFFFFFFFFFFFFFFFFFFFFFF AND DUP2 JUMP JUMPDEST PUSH1 0x0 DUP1 SLOAD SWAP1 PUSH2 0x100 EXP SWAP1 DIV PUSH20 0xFFFFFFFFFFFFFFFFFFFFFFFFFFFFFFFFFFFFFFFF AND DUP2 JUMP JUMPDEST PUSH1 0x1 PUSH1 0x0 SWAP1 SLOAD SWAP1 PUSH2 0x100 EXP SWAP1 DIV PUSH20 0xFFFFFFFFFFFFFFFFFFFFFFFFFFFFFFFFFFFFFFFF AND PUSH20 0xFFFFFFFFFFFFFFFFFFFFFFFFFFFFFFFFFFFFFFFF AND PUSH32 0x3BEB26C427D03CEADBDAEDC2F7AAC4D9FC345B4FCBFC4B80654FEE46DD7C349A DUP3 PUSH1 0x40 MLOAD PUSH1 0x20 ADD DUP1 DUP4 PUSH28 0xFFFFFFFFFFFFFFFFFFFFFFFFFFFFFFFFFFFFFFFFFFFFFFFFFFFFFFFF NOT AND DUP2 MSTORE PUSH1 0x4 ADD DUP3 DUP2 MSTORE PUSH1 0x20 ADD SWAP3 POP POP POP PUSH1 0x40 MLOAD PUSH1 0x20 DUP2 DUP4 SUB SUB DUP2 MSTORE SWAP1 PUSH1 0x40 MSTORE PUSH1 0x40 MLOAD DUP1 DUP3 DUP1 MLOAD SWAP1 PUSH1 0x20 ADD SWAP1 DUP1 DUP4 DUP4 JUMPDEST PUSH1 0x20 DUP4 LT PUSH2 0x2BF JUMPI DUP1 MLOAD DUP3 MSTORE PUSH1 0x20 DUP3 ADD SWAP2 POP PUSH1 0x20 DUP2 ADD SWAP1 POP PUSH1 0x20 DUP4 SUB SWAP3 POP PUSH2 0x29C JUMP JUMPDEST PUSH1 0x1 DUP4 PUSH1 0x20 SUB PUSH2 0x100 EXP SUB DUP1 NOT DUP3 MLOAD AND DUP2 DUP5 MLOAD AND DUP1 DUP3 OR DUP6 MSTORE POP POP POP POP POP POP SWAP1 POP ADD SWAP2 POP POP PUSH1 0x0 PUSH1 0x40 MLOAD DUP1 DUP4 SUB DUP2 DUP6 GAS DELEGATECALL SWAP2 POP POP RETURNDATASIZE DUP1 PUSH1 0x0 DUP2 EQ PUSH2 0x31F JUMPI PUSH1 0x40 MLOAD SWAP2 POP PUSH1 0x1F NOT PUSH1 0x3F RETURNDATASIZE ADD AND DUP3 ADD PUSH1 0x40 MSTORE RETURNDATASIZE DUP3 MSTORE RETURNDATASIZE PUSH1 0x0 PUSH1 0x20 DUP5 ADD RETURNDATACOPY PUSH2 0x324 JUMP JUMPDEST PUSH1 0x60 SWAP2 POP JUMPDEST POP POP POP POP JUMP JUMPDEST PUSH1 0x2 PUSH1 0x0 SWAP1 SLOAD SWAP1 PUSH2 0x100 EXP SWAP1 DIV PUSH20 0xFFFFFFFFFFFFFFFFFFFFFFFFFFFFFFFFFFFFFFFF AND DUP2 JUMP JUMPDEST PUSH1 0x3 SLOAD DUP2 JUMP JUMPDEST PUSH1 0x0 DUP1 SLOAD SWAP1 PUSH2 0x100 EXP SWAP1 DIV PUSH20 0xFFFFFFFFFFFFFFFFFFFFFFFFFFFFFFFFFFFFFFFF AND PUSH20 0xFFFFFFFFFFFFFFFFFFFFFFFFFFFFFFFFFFFFFFFF AND PUSH32 0x3BEB26C427D03CEADBDAEDC2F7AAC4D9FC345B4FCBFC4B80654FEE46DD7C349A DUP3 PUSH1 0x40 MLOAD PUSH1 0x20 ADD DUP1 DUP4 PUSH28 0xFFFFFFFFFFFFFFFFFFFFFFFFFFFFFFFFFFFFFFFFFFFFFFFFFFFFFFFF NOT AND DUP2 MSTORE PUSH1 0x4 ADD DUP3 DUP2 MSTORE PUSH1 0x20 ADD SWAP3 POP POP POP PUSH1 0x40 MLOAD PUSH1 0x20 DUP2 DUP4 SUB SUB DUP2 MSTORE SWAP1 PUSH1 0x40 MSTORE PUSH1 0x40 MLOAD DUP1 DUP3 DUP1 MLOAD SWAP1 PUSH1 0x20 ADD SWAP1 DUP1 DUP4 DUP4 JUMPDEST PUSH1 0x20 DUP4 LT PUSH2 0x427 JUMPI DUP1 MLOAD DUP3 MSTORE PUSH1 0x20 DUP3 ADD SWAP2 POP PUSH1 0x20 DUP2 ADD SWAP1 POP PUSH1 0x20 DUP4 SUB SWAP3 POP PUSH2 0x404 JUMP JUMPDEST PUSH1 0x1 DUP4 PUSH1 0x20 SUB PUSH2 0x100 EXP SUB DUP1 NOT DUP3 MLOAD AND DUP2 DUP5 MLOAD AND DUP1 DUP3 OR DUP6 MSTORE POP POP POP POP POP POP SWAP1 POP ADD SWAP2 POP POP PUSH1 0x0 PUSH1 0x40 MLOAD DUP1 DUP4 SUB DUP2 DUP6 GAS DELEGATECALL SWAP2 POP POP RETURNDATASIZE DUP1 PUSH1 0x0 DUP2 EQ PUSH2 0x487 JUMPI PUSH1 0x40 MLOAD SWAP2 POP PUSH1 0x1F NOT PUSH1 0x3F RETURNDATASIZE ADD AND DUP3 ADD PUSH1 0x40 MSTORE RETURNDATASIZE DUP3 MSTORE RETURNDATASIZE PUSH1 0x0 PUSH1 0x20 DUP5 ADD RETURNDATACOPY PUSH2 0x48C JUMP JUMPDEST PUSH1 0x60 SWAP2 POP JUMPDEST POP POP POP POP JUMP JUMPDEST PUSH1 0x0 PUSH1 0x3 DUP2 SWAP1 SSTORE POP PUSH2 0x4A3 CALLER PUSH2 0x524 JUMP JUMPDEST ISZERO PUSH2 0x4BA JUMPI PUSH1 0x19 PUSH1 0x3 PUSH1 0x0 DUP3 DUP3 SLOAD ADD SWAP3 POP POP DUP2 SWAP1 SSTORE POP JUMPDEST CALLER PUSH20 0xFFFFFFFFFFFFFFFFFFFFFFFFFFFFFFFFFFFFFFFF AND PUSH1 0x2 PUSH1 0x0 SWAP1 SLOAD SWAP1 PUSH2 0x100 EXP SWAP1 DIV PUSH20 0xFFFFFFFFFFFFFFFFFFFFFFFFFFFFFFFFFFFFFFFF AND PUSH20 0xFFFFFFFFFFFFFFFFFFFFFFFFFFFFFFFFFFFFFFFF AND EQ ISZERO PUSH2 0x522 JUMPI PUSH1 0x4B PUSH1 0x3 PUSH1 0x0 DUP3 DUP3 SLOAD ADD SWAP3 POP POP DUP2 SWAP1 SSTORE POP JUMPDEST JUMP JUMPDEST PUSH1 0x0 DUP1 DUP3 EXTCODESIZE SWAP1 POP PUSH1 0x0 DUP2 GT SWAP2 POP POP SWAP2 SWAP1 POP JUMP INVALID LOG2 PUSH5 0x6970667358 0x22 SLT KECCAK256 0xD0 LOG1 0x26 0xED PUSH4 0x39B56A02 0x22 DUP7 0x27 0xD0 MSTORE8 MSTORE 0xD4 0x48 PUSH11 0x185734FF0AA87F679FB8E9 0xBA LOG4 CALLVALUE PUSH5 0x736F6C6343 STOP MOD 0xC STOP CALLER "
				},
				"gasEstimates": {
					"creation": {
						"codeDepositCost": "277800",
						"executionCost": "infinite",
						"totalCost": "infinite"
					},
					"external": {
						"isCompleted()": "33544",
						"owner()": "1047",
						"score()": "1027",
						"setFirstTime(uint256)": "infinite",
						"setSecondTime(uint256)": "infinite",
						"timeZone1Library()": "1067",
						"timeZone2Library()": "1048"
					},
					"internal": {
						"isContract(address)": "747"
					}
				},
				"methodIdentifiers": {
					"isCompleted()": "fa391c64",
					"owner()": "8da5cb5b",
					"score()": "efedc669",
					"setFirstTime(uint256)": "f1e02620",
					"setSecondTime(uint256)": "5bda8fa4",
					"timeZone1Library()": "3dc79422",
					"timeZone2Library()": "27d6974f"
				}
			},
			"storageLayout": {
				"storage": [
					{
						"astId": 16,
						"contract": "SecLessonPoc-main/contracts/delegatecall/check/Libray.sol:Check",
						"label": "timeZone1Library",
						"offset": 0,
						"slot": "0",
						"type": "t_address"
					},
					{
						"astId": 18,
						"contract": "SecLessonPoc-main/contracts/delegatecall/check/Libray.sol:Check",
						"label": "timeZone2Library",
						"offset": 0,
						"slot": "1",
						"type": "t_address"
					},
					{
						"astId": 20,
						"contract": "SecLessonPoc-main/contracts/delegatecall/check/Libray.sol:Check",
						"label": "owner",
						"offset": 0,
						"slot": "2",
						"type": "t_address"
					},
					{
						"astId": 22,
						"contract": "SecLessonPoc-main/contracts/delegatecall/check/Libray.sol:Check",
						"label": "score",
						"offset": 0,
						"slot": "3",
						"type": "t_uint256"
					},
					{
						"astId": 24,
						"contract": "SecLessonPoc-main/contracts/delegatecall/check/Libray.sol:Check",
						"label": "storedTime",
						"offset": 0,
						"slot": "4",
						"type": "t_uint256"
					}
				],
				"types": {
					"t_address": {
						"encoding": "inplace",
						"label": "address",
						"numberOfBytes": "20"
					},
					"t_uint256": {
						"encoding": "inplace",
						"label": "uint256",
						"numberOfBytes": "32"
					}
				}
			},
			"userdoc": {
				"kind": "user",
				"methods": {},
				"version": 1
			}
		}
	}
}