{
	"shoot/3/方法选择器的计算/1.sol": {
		"check": {
			"abi": [
				{
					"inputs": [
						{
							"internalType": "address",
							"name": "target",
							"type": "address"
						},
						{
							"internalType": "uint256",
							"name": "amount",
							"type": "uint256"
						},
						{
							"internalType": "bytes",
							"name": "data",
							"type": "bytes"
						}
					],
					"name": "approveAndCall",
					"outputs": [
						{
							"internalType": "bytes",
							"name": "",
							"type": "bytes"
						}
					],
					"stateMutability": "nonpayable",
					"type": "function"
				},
				{
					"inputs": [
						{
							"internalType": "bytes4",
							"name": "data",
							"type": "bytes4"
						}
					],
					"name": "checkData",
					"outputs": [
						{
							"internalType": "bool",
							"name": "",
							"type": "bool"
						}
					],
					"stateMutability": "nonpayable",
					"type": "function"
				},
				{
					"inputs": [],
					"name": "erc20",
					"outputs": [
						{
							"internalType": "contract ERC20",
							"name": "",
							"type": "address"
						}
					],
					"stateMutability": "view",
					"type": "function"
				},
				{
					"inputs": [
						{
							"internalType": "address",
							"name": "token",
							"type": "address"
						},
						{
							"internalType": "address",
							"name": "receiver",
							"type": "address"
						},
						{
							"internalType": "uint256",
							"name": "amount",
							"type": "uint256"
						},
						{
							"internalType": "uint256",
							"name": "inneramount",
							"type": "uint256"
						},
						{
							"internalType": "bool",
							"name": "isUnderlyingOrReward",
							"type": "bool"
						},
						{
							"internalType": "bytes",
							"name": "data",
							"type": "bytes"
						}
					],
					"name": "flashloan",
					"outputs": [],
					"stateMutability": "nonpayable",
					"type": "function"
				},
				{
					"inputs": [
						{
							"internalType": "bytes4",
							"name": "data",
							"type": "bytes4"
						}
					],
					"name": "isCompleted",
					"outputs": [],
					"stateMutability": "nonpayable",
					"type": "function"
				},
				{
					"inputs": [],
					"name": "score",
					"outputs": [
						{
							"internalType": "uint256",
							"name": "",
							"type": "uint256"
						}
					],
					"stateMutability": "view",
					"type": "function"
				}
			],
			"devdoc": {
				"kind": "dev",
				"methods": {},
				"version": 1
			},
			"evm": {
				"assembly": "    /* \"shoot/3/方法选择器的计算/1.sol\":6651:6971  contract check is financeVault{\r... */\n  mstore(0x40, 0x80)\n    /* \"shoot/3/方法选择器的计算/1.sol\":3618:3629  new ERC20() */\n  mload(0x40)\n  tag_1\n  swap1\n  tag_2\n  jump\t// in\ntag_1:\n  mload(0x40)\n  dup1\n  swap2\n  sub\n  swap1\n  0x00\n  create\n  dup1\n  iszero\n  dup1\n  iszero\n  tag_3\n  jumpi\n  returndatasize\n  0x00\n  dup1\n  returndatacopy\n  revert(0x00, returndatasize)\ntag_3:\n  pop\n    /* \"shoot/3/方法选择器的计算/1.sol\":3597:3629  ERC20 public erc20 = new ERC20() */\n  0x00\n  dup1\n  0x0100\n  exp\n  dup2\n  sload\n  dup2\n  0xffffffffffffffffffffffffffffffffffffffff\n  mul\n  not\n  and\n  swap1\n  dup4\n  0xffffffffffffffffffffffffffffffffffffffff\n  and\n  mul\n  or\n  swap1\n  sstore\n  pop\n    /* \"shoot/3/方法选择器的计算/1.sol\":6651:6971  contract check is financeVault{\r... */\n  callvalue\n  dup1\n  iszero\n  tag_4\n  jumpi\n  0x00\n  dup1\n  revert\ntag_4:\n  pop\n  jump(tag_5)\ntag_2:\n  dataSize(sub_1)\n  dup1\n  dataOffset(sub_1)\n  dup4\n  codecopy\n  add\n  swap1\n  jump\t// out\ntag_5:\n  dataSize(sub_0)\n  dup1\n  dataOffset(sub_0)\n  0x00\n  codecopy\n  0x00\n  return\nstop\n\nsub_0: assembly {\n        /* \"shoot/3/方法选择器的计算/1.sol\":6651:6971  contract check is financeVault{\r... */\n      mstore(0x40, 0x80)\n      callvalue\n      dup1\n      iszero\n      tag_1\n      jumpi\n      0x00\n      dup1\n      revert\n    tag_1:\n      pop\n      jumpi(tag_2, lt(calldatasize, 0x04))\n      shr(0xe0, calldataload(0x00))\n      dup1\n      0x3e666d20\n      eq\n      tag_3\n      jumpi\n      dup1\n      0x66a3fdb1\n      eq\n      tag_4\n      jumpi\n      dup1\n      0x785e9e86\n      eq\n      tag_5\n      jumpi\n      dup1\n      0x9f29381d\n      eq\n      tag_6\n      jumpi\n      dup1\n      0xcae9ca51\n      eq\n      tag_7\n      jumpi\n      dup1\n      0xefedc669\n      eq\n      tag_8\n      jumpi\n    tag_2:\n      0x00\n      dup1\n      revert\n        /* \"shoot/3/方法选择器的计算/1.sol\":3772:4541  function flashloan(\r... */\n    tag_3:\n      tag_9\n      0x04\n      dup1\n      calldatasize\n      sub\n      dup2\n      add\n      swap1\n      tag_10\n      swap2\n      swap1\n      tag_11\n      jump\t// in\n    tag_10:\n      tag_12\n      jump\t// in\n    tag_9:\n      stop\n        /* \"shoot/3/方法选择器的计算/1.sol\":6715:6962  function isCompleted(bytes4 data) public {\r... */\n    tag_4:\n      tag_13\n      0x04\n      dup1\n      calldatasize\n      sub\n      dup2\n      add\n      swap1\n      tag_14\n      swap2\n      swap1\n      tag_15\n      jump\t// in\n    tag_14:\n      tag_16\n      jump\t// in\n    tag_13:\n      stop\n        /* \"shoot/3/方法选择器的计算/1.sol\":3597:3629  ERC20 public erc20 = new ERC20() */\n    tag_5:\n      tag_17\n      tag_18\n      jump\t// in\n    tag_17:\n      mload(0x40)\n      tag_19\n      swap2\n      swap1\n      tag_20\n      jump\t// in\n    tag_19:\n      mload(0x40)\n      dup1\n      swap2\n      sub\n      swap1\n      return\n        /* \"shoot/3/方法选择器的计算/1.sol\":3654:3764  function checkData(bytes4 data)public returns(bool){\r... */\n    tag_6:\n      tag_21\n      0x04\n      dup1\n      calldatasize\n      sub\n      dup2\n      add\n      swap1\n      tag_22\n      swap2\n      swap1\n      tag_15\n      jump\t// in\n    tag_22:\n      tag_23\n      jump\t// in\n    tag_21:\n      mload(0x40)\n      tag_24\n      swap2\n      swap1\n      tag_25\n      jump\t// in\n    tag_24:\n      mload(0x40)\n      dup1\n      swap2\n      sub\n      swap1\n      return\n        /* \"shoot/3/方法选择器的计算/1.sol\":4549:4901  function approveAndCall(\r... */\n    tag_7:\n      tag_26\n      0x04\n      dup1\n      calldatasize\n      sub\n      dup2\n      add\n      swap1\n      tag_27\n      swap2\n      swap1\n      tag_28\n      jump\t// in\n    tag_27:\n      tag_29\n      jump\t// in\n    tag_26:\n      mload(0x40)\n      tag_30\n      swap2\n      swap1\n      tag_31\n      jump\t// in\n    tag_30:\n      mload(0x40)\n      dup1\n      swap2\n      sub\n      swap1\n      return\n        /* \"shoot/3/方法选择器的计算/1.sol\":6688:6708  uint256 public score */\n    tag_8:\n      tag_32\n      tag_33\n      jump\t// in\n    tag_32:\n      mload(0x40)\n      tag_34\n      swap2\n      swap1\n      tag_35\n      jump\t// in\n    tag_34:\n      mload(0x40)\n      dup1\n      swap2\n      sub\n      swap1\n      return\n        /* \"shoot/3/方法选择器的计算/1.sol\":3772:4541  function flashloan(\r... */\n    tag_12:\n        /* \"shoot/3/方法选择器的计算/1.sol\":4018:4035  uint256 balBefore */\n      0x00\n        /* \"shoot/3/方法选择器的计算/1.sol\":4048:4053  token */\n      dup8\n        /* \"shoot/3/方法选择器的计算/1.sol\":4038:4064  ERC20Like(token).balanceOf */\n      0xffffffffffffffffffffffffffffffffffffffff\n      and\n      0x70a08231\n        /* \"shoot/3/方法选择器的计算/1.sol\":4073:4077  this */\n      address\n        /* \"shoot/3/方法选择器的计算/1.sol\":4038:4079  ERC20Like(token).balanceOf(address(this)) */\n      mload(0x40)\n      dup3\n      0xffffffff\n      and\n      0xe0\n      shl\n      dup2\n      mstore\n      0x04\n      add\n      tag_37\n      swap2\n      swap1\n      tag_38\n      jump\t// in\n    tag_37:\n      0x20\n      mload(0x40)\n      dup1\n      dup4\n      sub\n      dup2\n      dup7\n      dup1\n      extcodesize\n      iszero\n      dup1\n      iszero\n      tag_39\n      jumpi\n      0x00\n      dup1\n      revert\n    tag_39:\n      pop\n      gas\n      staticcall\n      iszero\n      dup1\n      iszero\n      tag_41\n      jumpi\n      returndatasize\n      0x00\n      dup1\n      returndatacopy\n      revert(0x00, returndatasize)\n    tag_41:\n      pop\n      pop\n      pop\n      pop\n      mload(0x40)\n      returndatasize\n      not(0x1f)\n      0x1f\n      dup3\n      add\n      and\n      dup3\n      add\n      dup1\n      0x40\n      mstore\n      pop\n      dup2\n      add\n      swap1\n      tag_42\n      swap2\n      swap1\n      tag_43\n      jump\t// in\n    tag_42:\n        /* \"shoot/3/方法选择器的计算/1.sol\":4018:4079  uint256 balBefore = ERC20Like(token).balanceOf(address(this)) */\n      swap1\n      pop\n        /* \"shoot/3/方法选择器的计算/1.sol\":4100:4105  token */\n      dup8\n        /* \"shoot/3/方法选择器的计算/1.sol\":4090:4115  ERC20Like(token).transfer */\n      0xffffffffffffffffffffffffffffffffffffffff\n      and\n      0xa9059cbb\n        /* \"shoot/3/方法选择器的计算/1.sol\":4116:4126  msg.sender */\n      caller\n        /* \"shoot/3/方法选择器的计算/1.sol\":4128:4134  amount */\n      dup9\n        /* \"shoot/3/方法选择器的计算/1.sol\":4090:4135  ERC20Like(token).transfer(msg.sender, amount) */\n      mload(0x40)\n      dup4\n      0xffffffff\n      and\n      0xe0\n      shl\n      dup2\n      mstore\n      0x04\n      add\n      tag_44\n      swap3\n      swap2\n      swap1\n      tag_45\n      jump\t// in\n    tag_44:\n      0x20\n      mload(0x40)\n      dup1\n      dup4\n      sub\n      dup2\n      0x00\n      dup8\n      dup1\n      extcodesize\n      iszero\n      dup1\n      iszero\n      tag_46\n      jumpi\n      0x00\n      dup1\n      revert\n    tag_46:\n      pop\n      gas\n      call\n      iszero\n      dup1\n      iszero\n      tag_48\n      jumpi\n      returndatasize\n      0x00\n      dup1\n      returndatacopy\n      revert(0x00, returndatasize)\n    tag_48:\n      pop\n      pop\n      pop\n      pop\n      mload(0x40)\n      returndatasize\n      not(0x1f)\n      0x1f\n      dup3\n      add\n      and\n      dup3\n      add\n      dup1\n      0x40\n      mstore\n      pop\n      dup2\n      add\n      swap1\n      tag_49\n      swap2\n      swap1\n      tag_50\n      jump\t// in\n    tag_49:\n      pop\n        /* \"shoot/3/方法选择器的计算/1.sol\":4155:4160  false */\n      0x00\n        /* \"shoot/3/方法选择器的计算/1.sol\":4148:4152  lock */\n      dup1\n      0x14\n        /* \"shoot/3/方法选择器的计算/1.sol\":4148:4160  lock = false */\n      0x0100\n      exp\n      dup2\n      sload\n      dup2\n      0xff\n      mul\n      not\n      and\n      swap1\n      dup4\n      iszero\n      iszero\n      mul\n      or\n      swap1\n      sstore\n      pop\n        /* \"shoot/3/方法选择器的计算/1.sol\":4190:4198  receiver */\n      dup7\n        /* \"shoot/3/方法选择器的计算/1.sol\":4171:4222  IFlashloanReceiver(receiver).onHintFinanceFlashloan */\n      0xffffffffffffffffffffffffffffffffffffffff\n      and\n      0xcae9ca51\n        /* \"shoot/3/方法选择器的计算/1.sol\":4237:4242  token */\n      dup10\n        /* \"shoot/3/方法选择器的计算/1.sol\":4257:4265  receiver */\n      dup10\n        /* \"shoot/3/方法选择器的计算/1.sol\":4280:4291  inneramount */\n      dup9\n        /* \"shoot/3/方法选择器的计算/1.sol\":4306:4326  isUnderlyingOrReward */\n      dup9\n        /* \"shoot/3/方法选择器的计算/1.sol\":4341:4345  data */\n      dup9\n      dup9\n        /* \"shoot/3/方法选择器的计算/1.sol\":4171:4356  IFlashloanReceiver(receiver).onHintFinanceFlashloan(\r... */\n      mload(0x40)\n      dup8\n      0xffffffff\n      and\n      0xe0\n      shl\n      dup2\n      mstore\n      0x04\n      add\n      tag_51\n      swap7\n      swap6\n      swap5\n      swap4\n      swap3\n      swap2\n      swap1\n      tag_52\n      jump\t// in\n    tag_51:\n      0x00\n      mload(0x40)\n      dup1\n      dup4\n      sub\n      dup2\n      0x00\n      dup8\n      dup1\n      extcodesize\n      iszero\n      dup1\n      iszero\n      tag_53\n      jumpi\n      0x00\n      dup1\n      revert\n    tag_53:\n      pop\n      gas\n      call\n      iszero\n      dup1\n      iszero\n      tag_55\n      jumpi\n      returndatasize\n      0x00\n      dup1\n      returndatacopy\n      revert(0x00, returndatasize)\n    tag_55:\n      pop\n      pop\n      pop\n      pop\n        /* \"shoot/3/方法选择器的计算/1.sol\":4374:4378  true */\n      0x01\n        /* \"shoot/3/方法选择器的计算/1.sol\":4367:4371  lock */\n      0x00\n      0x14\n        /* \"shoot/3/方法选择器的计算/1.sol\":4367:4378  lock = true */\n      0x0100\n      exp\n      dup2\n      sload\n      dup2\n      0xff\n      mul\n      not\n      and\n      swap1\n      dup4\n      iszero\n      iszero\n      mul\n      or\n      swap1\n      sstore\n      pop\n        /* \"shoot/3/方法选择器的计算/1.sol\":4389:4405  uint256 balAfter */\n      0x00\n        /* \"shoot/3/方法选择器的计算/1.sol\":4418:4423  token */\n      dup9\n        /* \"shoot/3/方法选择器的计算/1.sol\":4408:4434  ERC20Like(token).balanceOf */\n      0xffffffffffffffffffffffffffffffffffffffff\n      and\n      0x70a08231\n        /* \"shoot/3/方法选择器的计算/1.sol\":4443:4447  this */\n      address\n        /* \"shoot/3/方法选择器的计算/1.sol\":4408:4449  ERC20Like(token).balanceOf(address(this)) */\n      mload(0x40)\n      dup3\n      0xffffffff\n      and\n      0xe0\n      shl\n      dup2\n      mstore\n      0x04\n      add\n      tag_56\n      swap2\n      swap1\n      tag_38\n      jump\t// in\n    tag_56:\n      0x20\n      mload(0x40)\n      dup1\n      dup4\n      sub\n      dup2\n      dup7\n      dup1\n      extcodesize\n      iszero\n      dup1\n      iszero\n      tag_57\n      jumpi\n      0x00\n      dup1\n      revert\n    tag_57:\n      pop\n      gas\n      staticcall\n      iszero\n      dup1\n      iszero\n      tag_59\n      jumpi\n      returndatasize\n      0x00\n      dup1\n      returndatacopy\n      revert(0x00, returndatasize)\n    tag_59:\n      pop\n      pop\n      pop\n      pop\n      mload(0x40)\n      returndatasize\n      not(0x1f)\n      0x1f\n      dup3\n      add\n      and\n      dup3\n      add\n      dup1\n      0x40\n      mstore\n      pop\n      dup2\n      add\n      swap1\n      tag_60\n      swap2\n      swap1\n      tag_43\n      jump\t// in\n    tag_60:\n        /* \"shoot/3/方法选择器的计算/1.sol\":4389:4449  uint256 balAfter = ERC20Like(token).balanceOf(address(this)) */\n      swap1\n      pop\n        /* \"shoot/3/方法选择器的计算/1.sol\":4482:4491  balBefore */\n      dup2\n        /* \"shoot/3/方法选择器的计算/1.sol\":4470:4478  balAfter */\n      dup2\n        /* \"shoot/3/方法选择器的计算/1.sol\":4470:4491  balAfter == balBefore */\n      eq\n        /* \"shoot/3/方法选择器的计算/1.sol\":4462:4492  require(balAfter == balBefore) */\n      tag_61\n      jumpi\n      0x00\n      dup1\n      revert\n    tag_61:\n        /* \"shoot/3/方法选择器的计算/1.sol\":3772:4541  function flashloan(\r... */\n      pop\n      pop\n      pop\n      pop\n      pop\n      pop\n      pop\n      pop\n      pop\n      jump\t// out\n        /* \"shoot/3/方法选择器的计算/1.sol\":6715:6962  function isCompleted(bytes4 data) public {\r... */\n    tag_16:\n        /* \"shoot/3/方法选择器的计算/1.sol\":6775:6779  lock */\n      0x00\n      0x14\n      swap1\n      sload\n      swap1\n      0x0100\n      exp\n      swap1\n      div\n      0xff\n      and\n        /* \"shoot/3/方法选择器的计算/1.sol\":6767:6780  require(lock) */\n      tag_63\n      jumpi\n      0x00\n      dup1\n      revert\n    tag_63:\n        /* \"shoot/3/方法选择器的计算/1.sol\":6799:6800  0 */\n      0x00\n        /* \"shoot/3/方法选择器的计算/1.sol\":6791:6796  score */\n      0x01\n        /* \"shoot/3/方法选择器的计算/1.sol\":6791:6800  score = 0 */\n      dup2\n      swap1\n      sstore\n      pop\n        /* \"shoot/3/方法选择器的计算/1.sol\":6814:6829  checkData(data) */\n      tag_64\n        /* \"shoot/3/方法选择器的计算/1.sol\":6824:6828  data */\n      dup2\n        /* \"shoot/3/方法选择器的计算/1.sol\":6814:6823  checkData */\n      tag_23\n        /* \"shoot/3/方法选择器的计算/1.sol\":6814:6829  checkData(data) */\n      jump\t// in\n    tag_64:\n        /* \"shoot/3/方法选择器的计算/1.sol\":6811:6866  if(checkData(data)){\r... */\n      iszero\n      tag_65\n      jumpi\n        /* \"shoot/3/方法选择器的计算/1.sol\":6852:6854  25 */\n      0x19\n        /* \"shoot/3/方法选择器的计算/1.sol\":6845:6850  score */\n      0x01\n      0x00\n        /* \"shoot/3/方法选择器的计算/1.sol\":6845:6854  score+=25 */\n      dup3\n      dup3\n      sload\n      tag_66\n      swap2\n      swap1\n      tag_67\n      jump\t// in\n    tag_66:\n      swap3\n      pop\n      pop\n      dup2\n      swap1\n      sstore\n      pop\n        /* \"shoot/3/方法选择器的计算/1.sol\":6811:6866  if(checkData(data)){\r... */\n    tag_65:\n        /* \"shoot/3/方法选择器的计算/1.sol\":6914:6915  0 */\n      0x00\n        /* \"shoot/3/方法选择器的计算/1.sol\":6880:6885  erc20 */\n      dup1\n      0x00\n      swap1\n      sload\n      swap1\n      0x0100\n      exp\n      swap1\n      div\n      0xffffffffffffffffffffffffffffffffffffffff\n      and\n        /* \"shoot/3/方法选择器的计算/1.sol\":6880:6895  erc20.balanceOf */\n      0xffffffffffffffffffffffffffffffffffffffff\n      and\n      0x70a08231\n        /* \"shoot/3/方法选择器的计算/1.sol\":6904:6908  this */\n      address\n        /* \"shoot/3/方法选择器的计算/1.sol\":6880:6910  erc20.balanceOf(address(this)) */\n      mload(0x40)\n      dup3\n      0xffffffff\n      and\n      0xe0\n      shl\n      dup2\n      mstore\n      0x04\n      add\n      tag_68\n      swap2\n      swap1\n      tag_38\n      jump\t// in\n    tag_68:\n      0x20\n      mload(0x40)\n      dup1\n      dup4\n      sub\n      dup2\n      dup7\n      dup1\n      extcodesize\n      iszero\n      dup1\n      iszero\n      tag_69\n      jumpi\n      0x00\n      dup1\n      revert\n    tag_69:\n      pop\n      gas\n      staticcall\n      iszero\n      dup1\n      iszero\n      tag_71\n      jumpi\n      returndatasize\n      0x00\n      dup1\n      returndatacopy\n      revert(0x00, returndatasize)\n    tag_71:\n      pop\n      pop\n      pop\n      pop\n      mload(0x40)\n      returndatasize\n      not(0x1f)\n      0x1f\n      dup3\n      add\n      and\n      dup3\n      add\n      dup1\n      0x40\n      mstore\n      pop\n      dup2\n      add\n      swap1\n      tag_72\n      swap2\n      swap1\n      tag_43\n      jump\t// in\n    tag_72:\n        /* \"shoot/3/方法选择器的计算/1.sol\":6880:6915  erc20.balanceOf(address(this)) == 0 */\n      eq\n        /* \"shoot/3/方法选择器的计算/1.sol\":6876:6955  if (erc20.balanceOf(address(this)) == 0) {\r... */\n      iszero\n      tag_73\n      jumpi\n        /* \"shoot/3/方法选择器的计算/1.sol\":6941:6943  75 */\n      0x4b\n        /* \"shoot/3/方法选择器的计算/1.sol\":6932:6937  score */\n      0x01\n      0x00\n        /* \"shoot/3/方法选择器的计算/1.sol\":6932:6943  score += 75 */\n      dup3\n      dup3\n      sload\n      tag_74\n      swap2\n      swap1\n      tag_67\n      jump\t// in\n    tag_74:\n      swap3\n      pop\n      pop\n      dup2\n      swap1\n      sstore\n      pop\n        /* \"shoot/3/方法选择器的计算/1.sol\":6876:6955  if (erc20.balanceOf(address(this)) == 0) {\r... */\n    tag_73:\n        /* \"shoot/3/方法选择器的计算/1.sol\":6715:6962  function isCompleted(bytes4 data) public {\r... */\n      pop\n      jump\t// out\n        /* \"shoot/3/方法选择器的计算/1.sol\":3597:3629  ERC20 public erc20 = new ERC20() */\n    tag_18:\n      0x00\n      dup1\n      sload\n      swap1\n      0x0100\n      exp\n      swap1\n      div\n      0xffffffffffffffffffffffffffffffffffffffff\n      and\n      dup2\n      jump\t// out\n        /* \"shoot/3/方法选择器的计算/1.sol\":3654:3764  function checkData(bytes4 data)public returns(bool){\r... */\n    tag_23:\n        /* \"shoot/3/方法选择器的计算/1.sol\":3700:3704  bool */\n      0x00\n        /* \"shoot/3/方法选择器的计算/1.sol\":3732:3755  this.checkData.selector */\n      shl(0xe0, 0x9f29381d)\n        /* \"shoot/3/方法选择器的计算/1.sol\":3724:3755  data == this.checkData.selector */\n      not(0xffffffffffffffffffffffffffffffffffffffffffffffffffffffff)\n      and\n        /* \"shoot/3/方法选择器的计算/1.sol\":3724:3728  data */\n      dup3\n        /* \"shoot/3/方法选择器的计算/1.sol\":3724:3755  data == this.checkData.selector */\n      not(0xffffffffffffffffffffffffffffffffffffffffffffffffffffffff)\n      and\n      eq\n        /* \"shoot/3/方法选择器的计算/1.sol\":3716:3756  return (data == this.checkData.selector) */\n      swap1\n      pop\n        /* \"shoot/3/方法选择器的计算/1.sol\":3654:3764  function checkData(bytes4 data)public returns(bool){\r... */\n      swap2\n      swap1\n      pop\n      jump\t// out\n        /* \"shoot/3/方法选择器的计算/1.sol\":4549:4901  function approveAndCall(\r... */\n    tag_29:\n        /* \"shoot/3/方法选择器的计算/1.sol\":4676:4688  bytes memory */\n      0x60\n        /* \"shoot/3/方法选择器的计算/1.sol\":4731:4735  this */\n      address\n        /* \"shoot/3/方法选择器的计算/1.sol\":4709:4736  msg.sender == address(this) */\n      0xffffffffffffffffffffffffffffffffffffffff\n      and\n        /* \"shoot/3/方法选择器的计算/1.sol\":4709:4719  msg.sender */\n      caller\n        /* \"shoot/3/方法选择器的计算/1.sol\":4709:4736  msg.sender == address(this) */\n      0xffffffffffffffffffffffffffffffffffffffff\n      and\n      eq\n        /* \"shoot/3/方法选择器的计算/1.sol\":4701:4737  require(msg.sender == address(this)) */\n      tag_77\n      jumpi\n      0x00\n      dup1\n      revert\n    tag_77:\n        /* \"shoot/3/方法选择器的计算/1.sol\":4751:4763  bool success */\n      0x00\n        /* \"shoot/3/方法选择器的计算/1.sol\":4765:4788  bytes memory returnData */\n      dup1\n        /* \"shoot/3/方法选择器的计算/1.sol\":4800:4806  target */\n      dup7\n        /* \"shoot/3/方法选择器的计算/1.sol\":4792:4812  address(target).call */\n      0xffffffffffffffffffffffffffffffffffffffff\n      and\n        /* \"shoot/3/方法选择器的计算/1.sol\":4813:4817  data */\n      dup6\n      dup6\n        /* \"shoot/3/方法选择器的计算/1.sol\":4792:4818  address(target).call(data) */\n      mload(0x40)\n      tag_78\n      swap3\n      swap2\n      swap1\n      tag_79\n      jump\t// in\n    tag_78:\n      0x00\n      mload(0x40)\n      dup1\n      dup4\n      sub\n      dup2\n      0x00\n      dup7\n      gas\n      call\n      swap2\n      pop\n      pop\n      returndatasize\n      dup1\n      0x00\n      dup2\n      eq\n      tag_82\n      jumpi\n      mload(0x40)\n      swap2\n      pop\n      and(add(returndatasize, 0x3f), not(0x1f))\n      dup3\n      add\n      0x40\n      mstore\n      returndatasize\n      dup3\n      mstore\n      returndatasize\n      0x00\n      0x20\n      dup5\n      add\n      returndatacopy\n      jump(tag_81)\n    tag_82:\n      0x60\n      swap2\n      pop\n    tag_81:\n      pop\n        /* \"shoot/3/方法选择器的计算/1.sol\":4750:4818  (bool success, bytes memory returnData) = address(target).call(data) */\n      swap2\n      pop\n      swap2\n      pop\n        /* \"shoot/3/方法选择器的计算/1.sol\":4837:4844  success */\n      dup2\n        /* \"shoot/3/方法选择器的计算/1.sol\":4853:4863  returnData */\n      dup2\n        /* \"shoot/3/方法选择器的计算/1.sol\":4829:4865  require(success, string(returnData)) */\n      swap1\n      tag_83\n      jumpi\n      mload(0x40)\n      0x08c379a000000000000000000000000000000000000000000000000000000000\n      dup2\n      mstore\n      0x04\n      add\n      tag_84\n      swap2\n      swap1\n      tag_85\n      jump\t// in\n    tag_84:\n      mload(0x40)\n      dup1\n      swap2\n      sub\n      swap1\n      revert\n    tag_83:\n      pop\n        /* \"shoot/3/方法选择器的计算/1.sol\":4883:4893  returnData */\n      dup1\n        /* \"shoot/3/方法选择器的计算/1.sol\":4876:4893  return returnData */\n      swap3\n      pop\n      pop\n      pop\n        /* \"shoot/3/方法选择器的计算/1.sol\":4549:4901  function approveAndCall(\r... */\n      swap5\n      swap4\n      pop\n      pop\n      pop\n      pop\n      jump\t// out\n        /* \"shoot/3/方法选择器的计算/1.sol\":6688:6708  uint256 public score */\n    tag_33:\n      sload(0x01)\n      dup2\n      jump\t// out\n        /* \"#utility.yul\":7:146   */\n    tag_87:\n      0x00\n        /* \"#utility.yul\":91:97   */\n      dup2\n        /* \"#utility.yul\":78:98   */\n      calldataload\n        /* \"#utility.yul\":69:98   */\n      swap1\n      pop\n        /* \"#utility.yul\":107:140   */\n      tag_89\n        /* \"#utility.yul\":134:139   */\n      dup2\n        /* \"#utility.yul\":107:140   */\n      tag_90\n      jump\t// in\n    tag_89:\n        /* \"#utility.yul\":59:146   */\n      swap3\n      swap2\n      pop\n      pop\n      jump\t// out\n        /* \"#utility.yul\":152:285   */\n    tag_91:\n      0x00\n        /* \"#utility.yul\":233:239   */\n      dup2\n        /* \"#utility.yul\":220:240   */\n      calldataload\n        /* \"#utility.yul\":211:240   */\n      swap1\n      pop\n        /* \"#utility.yul\":249:279   */\n      tag_93\n        /* \"#utility.yul\":273:278   */\n      dup2\n        /* \"#utility.yul\":249:279   */\n      tag_94\n      jump\t// in\n    tag_93:\n        /* \"#utility.yul\":201:285   */\n      swap3\n      swap2\n      pop\n      pop\n      jump\t// out\n        /* \"#utility.yul\":291:428   */\n    tag_95:\n      0x00\n        /* \"#utility.yul\":376:382   */\n      dup2\n        /* \"#utility.yul\":370:383   */\n      mload\n        /* \"#utility.yul\":361:383   */\n      swap1\n      pop\n        /* \"#utility.yul\":392:422   */\n      tag_97\n        /* \"#utility.yul\":416:421   */\n      dup2\n        /* \"#utility.yul\":392:422   */\n      tag_94\n      jump\t// in\n    tag_97:\n        /* \"#utility.yul\":351:428   */\n      swap3\n      swap2\n      pop\n      pop\n      jump\t// out\n        /* \"#utility.yul\":434:571   */\n    tag_98:\n      0x00\n        /* \"#utility.yul\":517:523   */\n      dup2\n        /* \"#utility.yul\":504:524   */\n      calldataload\n        /* \"#utility.yul\":495:524   */\n      swap1\n      pop\n        /* \"#utility.yul\":533:565   */\n      tag_100\n        /* \"#utility.yul\":559:564   */\n      dup2\n        /* \"#utility.yul\":533:565   */\n      tag_101\n      jump\t// in\n    tag_100:\n        /* \"#utility.yul\":485:571   */\n      swap3\n      swap2\n      pop\n      pop\n      jump\t// out\n        /* \"#utility.yul\":590:941   */\n    tag_102:\n      0x00\n      dup1\n        /* \"#utility.yul\":707:710   */\n      dup4\n        /* \"#utility.yul\":700:704   */\n      0x1f\n        /* \"#utility.yul\":692:698   */\n      dup5\n        /* \"#utility.yul\":688:705   */\n      add\n        /* \"#utility.yul\":684:711   */\n      slt\n        /* \"#utility.yul\":674:676   */\n      tag_104\n      jumpi\n        /* \"#utility.yul\":725:726   */\n      0x00\n        /* \"#utility.yul\":722:723   */\n      dup1\n        /* \"#utility.yul\":715:727   */\n      revert\n        /* \"#utility.yul\":674:676   */\n    tag_104:\n        /* \"#utility.yul\":761:767   */\n      dup3\n        /* \"#utility.yul\":748:768   */\n      calldataload\n        /* \"#utility.yul\":738:768   */\n      swap1\n      pop\n        /* \"#utility.yul\":791:809   */\n      0xffffffffffffffff\n        /* \"#utility.yul\":783:789   */\n      dup2\n        /* \"#utility.yul\":780:810   */\n      gt\n        /* \"#utility.yul\":777:779   */\n      iszero\n      tag_105\n      jumpi\n        /* \"#utility.yul\":823:824   */\n      0x00\n        /* \"#utility.yul\":820:821   */\n      dup1\n        /* \"#utility.yul\":813:825   */\n      revert\n        /* \"#utility.yul\":777:779   */\n    tag_105:\n        /* \"#utility.yul\":860:864   */\n      0x20\n        /* \"#utility.yul\":852:858   */\n      dup4\n        /* \"#utility.yul\":848:865   */\n      add\n        /* \"#utility.yul\":836:865   */\n      swap2\n      pop\n        /* \"#utility.yul\":914:917   */\n      dup4\n        /* \"#utility.yul\":906:910   */\n      0x01\n        /* \"#utility.yul\":898:904   */\n      dup3\n        /* \"#utility.yul\":894:911   */\n      mul\n        /* \"#utility.yul\":884:892   */\n      dup4\n        /* \"#utility.yul\":880:912   */\n      add\n        /* \"#utility.yul\":877:918   */\n      gt\n        /* \"#utility.yul\":874:876   */\n      iszero\n      tag_106\n      jumpi\n        /* \"#utility.yul\":931:932   */\n      0x00\n        /* \"#utility.yul\":928:929   */\n      dup1\n        /* \"#utility.yul\":921:933   */\n      revert\n        /* \"#utility.yul\":874:876   */\n    tag_106:\n        /* \"#utility.yul\":664:941   */\n      swap3\n      pop\n      swap3\n      swap1\n      pop\n      jump\t// out\n        /* \"#utility.yul\":947:1086   */\n    tag_107:\n      0x00\n        /* \"#utility.yul\":1031:1037   */\n      dup2\n        /* \"#utility.yul\":1018:1038   */\n      calldataload\n        /* \"#utility.yul\":1009:1038   */\n      swap1\n      pop\n        /* \"#utility.yul\":1047:1080   */\n      tag_109\n        /* \"#utility.yul\":1074:1079   */\n      dup2\n        /* \"#utility.yul\":1047:1080   */\n      tag_110\n      jump\t// in\n    tag_109:\n        /* \"#utility.yul\":999:1086   */\n      swap3\n      swap2\n      pop\n      pop\n      jump\t// out\n        /* \"#utility.yul\":1092:1235   */\n    tag_111:\n      0x00\n        /* \"#utility.yul\":1180:1186   */\n      dup2\n        /* \"#utility.yul\":1174:1187   */\n      mload\n        /* \"#utility.yul\":1165:1187   */\n      swap1\n      pop\n        /* \"#utility.yul\":1196:1229   */\n      tag_113\n        /* \"#utility.yul\":1223:1228   */\n      dup2\n        /* \"#utility.yul\":1196:1229   */\n      tag_110\n      jump\t// in\n    tag_113:\n        /* \"#utility.yul\":1155:1235   */\n      swap3\n      swap2\n      pop\n      pop\n      jump\t// out\n        /* \"#utility.yul\":1241:2356   */\n    tag_11:\n      0x00\n      dup1\n      0x00\n      dup1\n      0x00\n      dup1\n      0x00\n        /* \"#utility.yul\":1450:1453   */\n      0xc0\n        /* \"#utility.yul\":1438:1447   */\n      dup9\n        /* \"#utility.yul\":1429:1436   */\n      dup11\n        /* \"#utility.yul\":1425:1448   */\n      sub\n        /* \"#utility.yul\":1421:1454   */\n      slt\n        /* \"#utility.yul\":1418:1420   */\n      iszero\n      tag_115\n      jumpi\n        /* \"#utility.yul\":1467:1468   */\n      0x00\n        /* \"#utility.yul\":1464:1465   */\n      dup1\n        /* \"#utility.yul\":1457:1469   */\n      revert\n        /* \"#utility.yul\":1418:1420   */\n    tag_115:\n        /* \"#utility.yul\":1510:1511   */\n      0x00\n        /* \"#utility.yul\":1535:1588   */\n      tag_116\n        /* \"#utility.yul\":1580:1587   */\n      dup11\n        /* \"#utility.yul\":1571:1577   */\n      dup3\n        /* \"#utility.yul\":1560:1569   */\n      dup12\n        /* \"#utility.yul\":1556:1578   */\n      add\n        /* \"#utility.yul\":1535:1588   */\n      tag_87\n      jump\t// in\n    tag_116:\n        /* \"#utility.yul\":1525:1588   */\n      swap8\n      pop\n        /* \"#utility.yul\":1481:1598   */\n      pop\n        /* \"#utility.yul\":1637:1639   */\n      0x20\n        /* \"#utility.yul\":1663:1716   */\n      tag_117\n        /* \"#utility.yul\":1708:1715   */\n      dup11\n        /* \"#utility.yul\":1699:1705   */\n      dup3\n        /* \"#utility.yul\":1688:1697   */\n      dup12\n        /* \"#utility.yul\":1684:1706   */\n      add\n        /* \"#utility.yul\":1663:1716   */\n      tag_87\n      jump\t// in\n    tag_117:\n        /* \"#utility.yul\":1653:1716   */\n      swap7\n      pop\n        /* \"#utility.yul\":1608:1726   */\n      pop\n        /* \"#utility.yul\":1765:1767   */\n      0x40\n        /* \"#utility.yul\":1791:1844   */\n      tag_118\n        /* \"#utility.yul\":1836:1843   */\n      dup11\n        /* \"#utility.yul\":1827:1833   */\n      dup3\n        /* \"#utility.yul\":1816:1825   */\n      dup12\n        /* \"#utility.yul\":1812:1834   */\n      add\n        /* \"#utility.yul\":1791:1844   */\n      tag_107\n      jump\t// in\n    tag_118:\n        /* \"#utility.yul\":1781:1844   */\n      swap6\n      pop\n        /* \"#utility.yul\":1736:1854   */\n      pop\n        /* \"#utility.yul\":1893:1895   */\n      0x60\n        /* \"#utility.yul\":1919:1972   */\n      tag_119\n        /* \"#utility.yul\":1964:1971   */\n      dup11\n        /* \"#utility.yul\":1955:1961   */\n      dup3\n        /* \"#utility.yul\":1944:1953   */\n      dup12\n        /* \"#utility.yul\":1940:1962   */\n      add\n        /* \"#utility.yul\":1919:1972   */\n      tag_107\n      jump\t// in\n    tag_119:\n        /* \"#utility.yul\":1909:1972   */\n      swap5\n      pop\n        /* \"#utility.yul\":1864:1982   */\n      pop\n        /* \"#utility.yul\":2021:2024   */\n      0x80\n        /* \"#utility.yul\":2048:2098   */\n      tag_120\n        /* \"#utility.yul\":2090:2097   */\n      dup11\n        /* \"#utility.yul\":2081:2087   */\n      dup3\n        /* \"#utility.yul\":2070:2079   */\n      dup12\n        /* \"#utility.yul\":2066:2088   */\n      add\n        /* \"#utility.yul\":2048:2098   */\n      tag_91\n      jump\t// in\n    tag_120:\n        /* \"#utility.yul\":2038:2098   */\n      swap4\n      pop\n        /* \"#utility.yul\":1992:2108   */\n      pop\n        /* \"#utility.yul\":2175:2178   */\n      0xa0\n        /* \"#utility.yul\":2164:2173   */\n      dup9\n        /* \"#utility.yul\":2160:2179   */\n      add\n        /* \"#utility.yul\":2147:2180   */\n      calldataload\n        /* \"#utility.yul\":2207:2225   */\n      0xffffffffffffffff\n        /* \"#utility.yul\":2199:2205   */\n      dup2\n        /* \"#utility.yul\":2196:2226   */\n      gt\n        /* \"#utility.yul\":2193:2195   */\n      iszero\n      tag_121\n      jumpi\n        /* \"#utility.yul\":2239:2240   */\n      0x00\n        /* \"#utility.yul\":2236:2237   */\n      dup1\n        /* \"#utility.yul\":2229:2241   */\n      revert\n        /* \"#utility.yul\":2193:2195   */\n    tag_121:\n        /* \"#utility.yul\":2275:2339   */\n      tag_122\n        /* \"#utility.yul\":2331:2338   */\n      dup11\n        /* \"#utility.yul\":2322:2328   */\n      dup3\n        /* \"#utility.yul\":2311:2320   */\n      dup12\n        /* \"#utility.yul\":2307:2329   */\n      add\n        /* \"#utility.yul\":2275:2339   */\n      tag_102\n      jump\t// in\n    tag_122:\n        /* \"#utility.yul\":2257:2339   */\n      swap3\n      pop\n      swap3\n      pop\n        /* \"#utility.yul\":2118:2349   */\n      pop\n        /* \"#utility.yul\":1408:2356   */\n      swap3\n      swap6\n      swap9\n      swap2\n      swap5\n      swap8\n      pop\n      swap3\n      swap6\n      pop\n      jump\t// out\n        /* \"#utility.yul\":2362:3045   */\n    tag_28:\n      0x00\n      dup1\n      0x00\n      dup1\n        /* \"#utility.yul\":2523:2525   */\n      0x60\n        /* \"#utility.yul\":2511:2520   */\n      dup6\n        /* \"#utility.yul\":2502:2509   */\n      dup8\n        /* \"#utility.yul\":2498:2521   */\n      sub\n        /* \"#utility.yul\":2494:2526   */\n      slt\n        /* \"#utility.yul\":2491:2493   */\n      iszero\n      tag_124\n      jumpi\n        /* \"#utility.yul\":2539:2540   */\n      0x00\n        /* \"#utility.yul\":2536:2537   */\n      dup1\n        /* \"#utility.yul\":2529:2541   */\n      revert\n        /* \"#utility.yul\":2491:2493   */\n    tag_124:\n        /* \"#utility.yul\":2582:2583   */\n      0x00\n        /* \"#utility.yul\":2607:2660   */\n      tag_125\n        /* \"#utility.yul\":2652:2659   */\n      dup8\n        /* \"#utility.yul\":2643:2649   */\n      dup3\n        /* \"#utility.yul\":2632:2641   */\n      dup9\n        /* \"#utility.yul\":2628:2650   */\n      add\n        /* \"#utility.yul\":2607:2660   */\n      tag_87\n      jump\t// in\n    tag_125:\n        /* \"#utility.yul\":2597:2660   */\n      swap5\n      pop\n        /* \"#utility.yul\":2553:2670   */\n      pop\n        /* \"#utility.yul\":2709:2711   */\n      0x20\n        /* \"#utility.yul\":2735:2788   */\n      tag_126\n        /* \"#utility.yul\":2780:2787   */\n      dup8\n        /* \"#utility.yul\":2771:2777   */\n      dup3\n        /* \"#utility.yul\":2760:2769   */\n      dup9\n        /* \"#utility.yul\":2756:2778   */\n      add\n        /* \"#utility.yul\":2735:2788   */\n      tag_107\n      jump\t// in\n    tag_126:\n        /* \"#utility.yul\":2725:2788   */\n      swap4\n      pop\n        /* \"#utility.yul\":2680:2798   */\n      pop\n        /* \"#utility.yul\":2865:2867   */\n      0x40\n        /* \"#utility.yul\":2854:2863   */\n      dup6\n        /* \"#utility.yul\":2850:2868   */\n      add\n        /* \"#utility.yul\":2837:2869   */\n      calldataload\n        /* \"#utility.yul\":2896:2914   */\n      0xffffffffffffffff\n        /* \"#utility.yul\":2888:2894   */\n      dup2\n        /* \"#utility.yul\":2885:2915   */\n      gt\n        /* \"#utility.yul\":2882:2884   */\n      iszero\n      tag_127\n      jumpi\n        /* \"#utility.yul\":2928:2929   */\n      0x00\n        /* \"#utility.yul\":2925:2926   */\n      dup1\n        /* \"#utility.yul\":2918:2930   */\n      revert\n        /* \"#utility.yul\":2882:2884   */\n    tag_127:\n        /* \"#utility.yul\":2964:3028   */\n      tag_128\n        /* \"#utility.yul\":3020:3027   */\n      dup8\n        /* \"#utility.yul\":3011:3017   */\n      dup3\n        /* \"#utility.yul\":3000:3009   */\n      dup9\n        /* \"#utility.yul\":2996:3018   */\n      add\n        /* \"#utility.yul\":2964:3028   */\n      tag_102\n      jump\t// in\n    tag_128:\n        /* \"#utility.yul\":2946:3028   */\n      swap3\n      pop\n      swap3\n      pop\n        /* \"#utility.yul\":2808:3038   */\n      pop\n        /* \"#utility.yul\":2481:3045   */\n      swap3\n      swap6\n      swap2\n      swap5\n      pop\n      swap3\n      pop\n      jump\t// out\n        /* \"#utility.yul\":3051:3329   */\n    tag_50:\n      0x00\n        /* \"#utility.yul\":3167:3169   */\n      0x20\n        /* \"#utility.yul\":3155:3164   */\n      dup3\n        /* \"#utility.yul\":3146:3153   */\n      dup5\n        /* \"#utility.yul\":3142:3165   */\n      sub\n        /* \"#utility.yul\":3138:3170   */\n      slt\n        /* \"#utility.yul\":3135:3137   */\n      iszero\n      tag_130\n      jumpi\n        /* \"#utility.yul\":3183:3184   */\n      0x00\n        /* \"#utility.yul\":3180:3181   */\n      dup1\n        /* \"#utility.yul\":3173:3185   */\n      revert\n        /* \"#utility.yul\":3135:3137   */\n    tag_130:\n        /* \"#utility.yul\":3226:3227   */\n      0x00\n        /* \"#utility.yul\":3251:3312   */\n      tag_131\n        /* \"#utility.yul\":3304:3311   */\n      dup5\n        /* \"#utility.yul\":3295:3301   */\n      dup3\n        /* \"#utility.yul\":3284:3293   */\n      dup6\n        /* \"#utility.yul\":3280:3302   */\n      add\n        /* \"#utility.yul\":3251:3312   */\n      tag_95\n      jump\t// in\n    tag_131:\n        /* \"#utility.yul\":3241:3312   */\n      swap2\n      pop\n        /* \"#utility.yul\":3197:3322   */\n      pop\n        /* \"#utility.yul\":3125:3329   */\n      swap3\n      swap2\n      pop\n      pop\n      jump\t// out\n        /* \"#utility.yul\":3335:3595   */\n    tag_15:\n      0x00\n        /* \"#utility.yul\":3442:3444   */\n      0x20\n        /* \"#utility.yul\":3430:3439   */\n      dup3\n        /* \"#utility.yul\":3421:3428   */\n      dup5\n        /* \"#utility.yul\":3417:3440   */\n      sub\n        /* \"#utility.yul\":3413:3445   */\n      slt\n        /* \"#utility.yul\":3410:3412   */\n      iszero\n      tag_133\n      jumpi\n        /* \"#utility.yul\":3458:3459   */\n      0x00\n        /* \"#utility.yul\":3455:3456   */\n      dup1\n        /* \"#utility.yul\":3448:3460   */\n      revert\n        /* \"#utility.yul\":3410:3412   */\n    tag_133:\n        /* \"#utility.yul\":3501:3502   */\n      0x00\n        /* \"#utility.yul\":3526:3578   */\n      tag_134\n        /* \"#utility.yul\":3570:3577   */\n      dup5\n        /* \"#utility.yul\":3561:3567   */\n      dup3\n        /* \"#utility.yul\":3550:3559   */\n      dup6\n        /* \"#utility.yul\":3546:3568   */\n      add\n        /* \"#utility.yul\":3526:3578   */\n      tag_98\n      jump\t// in\n    tag_134:\n        /* \"#utility.yul\":3516:3578   */\n      swap2\n      pop\n        /* \"#utility.yul\":3472:3588   */\n      pop\n        /* \"#utility.yul\":3400:3595   */\n      swap3\n      swap2\n      pop\n      pop\n      jump\t// out\n        /* \"#utility.yul\":3601:3885   */\n    tag_43:\n      0x00\n        /* \"#utility.yul\":3720:3722   */\n      0x20\n        /* \"#utility.yul\":3708:3717   */\n      dup3\n        /* \"#utility.yul\":3699:3706   */\n      dup5\n        /* \"#utility.yul\":3695:3718   */\n      sub\n        /* \"#utility.yul\":3691:3723   */\n      slt\n        /* \"#utility.yul\":3688:3690   */\n      iszero\n      tag_136\n      jumpi\n        /* \"#utility.yul\":3736:3737   */\n      0x00\n        /* \"#utility.yul\":3733:3734   */\n      dup1\n        /* \"#utility.yul\":3726:3738   */\n      revert\n        /* \"#utility.yul\":3688:3690   */\n    tag_136:\n        /* \"#utility.yul\":3779:3780   */\n      0x00\n        /* \"#utility.yul\":3804:3868   */\n      tag_137\n        /* \"#utility.yul\":3860:3867   */\n      dup5\n        /* \"#utility.yul\":3851:3857   */\n      dup3\n        /* \"#utility.yul\":3840:3849   */\n      dup6\n        /* \"#utility.yul\":3836:3858   */\n      add\n        /* \"#utility.yul\":3804:3868   */\n      tag_111\n      jump\t// in\n    tag_137:\n        /* \"#utility.yul\":3794:3868   */\n      swap2\n      pop\n        /* \"#utility.yul\":3750:3878   */\n      pop\n        /* \"#utility.yul\":3678:3885   */\n      swap3\n      swap2\n      pop\n      pop\n      jump\t// out\n        /* \"#utility.yul\":3891:4009   */\n    tag_138:\n        /* \"#utility.yul\":3978:4002   */\n      tag_140\n        /* \"#utility.yul\":3996:4001   */\n      dup2\n        /* \"#utility.yul\":3978:4002   */\n      tag_141\n      jump\t// in\n    tag_140:\n        /* \"#utility.yul\":3973:3976   */\n      dup3\n        /* \"#utility.yul\":3966:4003   */\n      mstore\n        /* \"#utility.yul\":3956:4009   */\n      pop\n      pop\n      jump\t// out\n        /* \"#utility.yul\":4015:4124   */\n    tag_142:\n        /* \"#utility.yul\":4096:4117   */\n      tag_144\n        /* \"#utility.yul\":4111:4116   */\n      dup2\n        /* \"#utility.yul\":4096:4117   */\n      tag_145\n      jump\t// in\n    tag_144:\n        /* \"#utility.yul\":4091:4094   */\n      dup3\n        /* \"#utility.yul\":4084:4118   */\n      mstore\n        /* \"#utility.yul\":4074:4124   */\n      pop\n      pop\n      jump\t// out\n        /* \"#utility.yul\":4152:4453   */\n    tag_146:\n      0x00\n        /* \"#utility.yul\":4269:4339   */\n      tag_148\n        /* \"#utility.yul\":4332:4338   */\n      dup4\n        /* \"#utility.yul\":4327:4330   */\n      dup6\n        /* \"#utility.yul\":4269:4339   */\n      tag_149\n      jump\t// in\n    tag_148:\n        /* \"#utility.yul\":4262:4339   */\n      swap4\n      pop\n        /* \"#utility.yul\":4349:4392   */\n      tag_150\n        /* \"#utility.yul\":4385:4391   */\n      dup4\n        /* \"#utility.yul\":4380:4383   */\n      dup6\n        /* \"#utility.yul\":4373:4378   */\n      dup5\n        /* \"#utility.yul\":4349:4392   */\n      tag_151\n      jump\t// in\n    tag_150:\n        /* \"#utility.yul\":4417:4446   */\n      tag_152\n        /* \"#utility.yul\":4439:4445   */\n      dup4\n        /* \"#utility.yul\":4417:4446   */\n      tag_153\n      jump\t// in\n    tag_152:\n        /* \"#utility.yul\":4412:4415   */\n      dup5\n        /* \"#utility.yul\":4408:4447   */\n      add\n        /* \"#utility.yul\":4401:4447   */\n      swap1\n      pop\n        /* \"#utility.yul\":4252:4453   */\n      swap4\n      swap3\n      pop\n      pop\n      pop\n      jump\t// out\n        /* \"#utility.yul\":4481:4795   */\n    tag_154:\n      0x00\n        /* \"#utility.yul\":4616:4704   */\n      tag_156\n        /* \"#utility.yul\":4697:4703   */\n      dup4\n        /* \"#utility.yul\":4692:4695   */\n      dup6\n        /* \"#utility.yul\":4616:4704   */\n      tag_157\n      jump\t// in\n    tag_156:\n        /* \"#utility.yul\":4609:4704   */\n      swap4\n      pop\n        /* \"#utility.yul\":4714:4757   */\n      tag_158\n        /* \"#utility.yul\":4750:4756   */\n      dup4\n        /* \"#utility.yul\":4745:4748   */\n      dup6\n        /* \"#utility.yul\":4738:4743   */\n      dup5\n        /* \"#utility.yul\":4714:4757   */\n      tag_151\n      jump\t// in\n    tag_158:\n        /* \"#utility.yul\":4782:4788   */\n      dup3\n        /* \"#utility.yul\":4777:4780   */\n      dup5\n        /* \"#utility.yul\":4773:4789   */\n      add\n        /* \"#utility.yul\":4766:4789   */\n      swap1\n      pop\n        /* \"#utility.yul\":4599:4795   */\n      swap4\n      swap3\n      pop\n      pop\n      pop\n      jump\t// out\n        /* \"#utility.yul\":4801:5161   */\n    tag_159:\n      0x00\n        /* \"#utility.yul\":4915:4953   */\n      tag_161\n        /* \"#utility.yul\":4947:4952   */\n      dup3\n        /* \"#utility.yul\":4915:4953   */\n      tag_162\n      jump\t// in\n    tag_161:\n        /* \"#utility.yul\":4969:5039   */\n      tag_163\n        /* \"#utility.yul\":5032:5038   */\n      dup2\n        /* \"#utility.yul\":5027:5030   */\n      dup6\n        /* \"#utility.yul\":4969:5039   */\n      tag_149\n      jump\t// in\n    tag_163:\n        /* \"#utility.yul\":4962:5039   */\n      swap4\n      pop\n        /* \"#utility.yul\":5048:5100   */\n      tag_164\n        /* \"#utility.yul\":5093:5099   */\n      dup2\n        /* \"#utility.yul\":5088:5091   */\n      dup6\n        /* \"#utility.yul\":5081:5085   */\n      0x20\n        /* \"#utility.yul\":5074:5079   */\n      dup7\n        /* \"#utility.yul\":5070:5086   */\n      add\n        /* \"#utility.yul\":5048:5100   */\n      tag_165\n      jump\t// in\n    tag_164:\n        /* \"#utility.yul\":5125:5154   */\n      tag_166\n        /* \"#utility.yul\":5147:5153   */\n      dup2\n        /* \"#utility.yul\":5125:5154   */\n      tag_153\n      jump\t// in\n    tag_166:\n        /* \"#utility.yul\":5120:5123   */\n      dup5\n        /* \"#utility.yul\":5116:5155   */\n      add\n        /* \"#utility.yul\":5109:5155   */\n      swap2\n      pop\n        /* \"#utility.yul\":4891:5161   */\n      pop\n      swap3\n      swap2\n      pop\n      pop\n      jump\t// out\n        /* \"#utility.yul\":5167:5324   */\n    tag_167:\n        /* \"#utility.yul\":5267:5317   */\n      tag_169\n        /* \"#utility.yul\":5311:5316   */\n      dup2\n        /* \"#utility.yul\":5267:5317   */\n      tag_170\n      jump\t// in\n    tag_169:\n        /* \"#utility.yul\":5262:5265   */\n      dup3\n        /* \"#utility.yul\":5255:5318   */\n      mstore\n        /* \"#utility.yul\":5245:5324   */\n      pop\n      pop\n      jump\t// out\n        /* \"#utility.yul\":5330:5694   */\n    tag_171:\n      0x00\n        /* \"#utility.yul\":5446:5485   */\n      tag_173\n        /* \"#utility.yul\":5479:5484   */\n      dup3\n        /* \"#utility.yul\":5446:5485   */\n      tag_174\n      jump\t// in\n    tag_173:\n        /* \"#utility.yul\":5501:5572   */\n      tag_175\n        /* \"#utility.yul\":5565:5571   */\n      dup2\n        /* \"#utility.yul\":5560:5563   */\n      dup6\n        /* \"#utility.yul\":5501:5572   */\n      tag_176\n      jump\t// in\n    tag_175:\n        /* \"#utility.yul\":5494:5572   */\n      swap4\n      pop\n        /* \"#utility.yul\":5581:5633   */\n      tag_177\n        /* \"#utility.yul\":5626:5632   */\n      dup2\n        /* \"#utility.yul\":5621:5624   */\n      dup6\n        /* \"#utility.yul\":5614:5618   */\n      0x20\n        /* \"#utility.yul\":5607:5612   */\n      dup7\n        /* \"#utility.yul\":5603:5619   */\n      add\n        /* \"#utility.yul\":5581:5633   */\n      tag_165\n      jump\t// in\n    tag_177:\n        /* \"#utility.yul\":5658:5687   */\n      tag_178\n        /* \"#utility.yul\":5680:5686   */\n      dup2\n        /* \"#utility.yul\":5658:5687   */\n      tag_153\n      jump\t// in\n    tag_178:\n        /* \"#utility.yul\":5653:5656   */\n      dup5\n        /* \"#utility.yul\":5649:5688   */\n      add\n        /* \"#utility.yul\":5642:5688   */\n      swap2\n      pop\n        /* \"#utility.yul\":5422:5694   */\n      pop\n      swap3\n      swap2\n      pop\n      pop\n      jump\t// out\n        /* \"#utility.yul\":5700:5818   */\n    tag_179:\n        /* \"#utility.yul\":5787:5811   */\n      tag_181\n        /* \"#utility.yul\":5805:5810   */\n      dup2\n        /* \"#utility.yul\":5787:5811   */\n      tag_182\n      jump\t// in\n    tag_181:\n        /* \"#utility.yul\":5782:5785   */\n      dup3\n        /* \"#utility.yul\":5775:5812   */\n      mstore\n        /* \"#utility.yul\":5765:5818   */\n      pop\n      pop\n      jump\t// out\n        /* \"#utility.yul\":5824:6115   */\n    tag_79:\n      0x00\n        /* \"#utility.yul\":5986:6089   */\n      tag_184\n        /* \"#utility.yul\":6085:6088   */\n      dup3\n        /* \"#utility.yul\":6076:6082   */\n      dup5\n        /* \"#utility.yul\":6068:6074   */\n      dup7\n        /* \"#utility.yul\":5986:6089   */\n      tag_154\n      jump\t// in\n    tag_184:\n        /* \"#utility.yul\":5979:6089   */\n      swap2\n      pop\n        /* \"#utility.yul\":6106:6109   */\n      dup2\n        /* \"#utility.yul\":6099:6109   */\n      swap1\n      pop\n        /* \"#utility.yul\":5968:6115   */\n      swap4\n      swap3\n      pop\n      pop\n      pop\n      jump\t// out\n        /* \"#utility.yul\":6121:6343   */\n    tag_38:\n      0x00\n        /* \"#utility.yul\":6252:6254   */\n      0x20\n        /* \"#utility.yul\":6241:6250   */\n      dup3\n        /* \"#utility.yul\":6237:6255   */\n      add\n        /* \"#utility.yul\":6229:6255   */\n      swap1\n      pop\n        /* \"#utility.yul\":6265:6336   */\n      tag_186\n        /* \"#utility.yul\":6333:6334   */\n      0x00\n        /* \"#utility.yul\":6322:6331   */\n      dup4\n        /* \"#utility.yul\":6318:6335   */\n      add\n        /* \"#utility.yul\":6309:6315   */\n      dup5\n        /* \"#utility.yul\":6265:6336   */\n      tag_138\n      jump\t// in\n    tag_186:\n        /* \"#utility.yul\":6219:6343   */\n      swap3\n      swap2\n      pop\n      pop\n      jump\t// out\n        /* \"#utility.yul\":6349:7108   */\n    tag_52:\n      0x00\n        /* \"#utility.yul\":6614:6617   */\n      0xa0\n        /* \"#utility.yul\":6603:6612   */\n      dup3\n        /* \"#utility.yul\":6599:6618   */\n      add\n        /* \"#utility.yul\":6591:6618   */\n      swap1\n      pop\n        /* \"#utility.yul\":6628:6699   */\n      tag_188\n        /* \"#utility.yul\":6696:6697   */\n      0x00\n        /* \"#utility.yul\":6685:6694   */\n      dup4\n        /* \"#utility.yul\":6681:6698   */\n      add\n        /* \"#utility.yul\":6672:6678   */\n      dup10\n        /* \"#utility.yul\":6628:6699   */\n      tag_138\n      jump\t// in\n    tag_188:\n        /* \"#utility.yul\":6709:6781   */\n      tag_189\n        /* \"#utility.yul\":6777:6779   */\n      0x20\n        /* \"#utility.yul\":6766:6775   */\n      dup4\n        /* \"#utility.yul\":6762:6780   */\n      add\n        /* \"#utility.yul\":6753:6759   */\n      dup9\n        /* \"#utility.yul\":6709:6781   */\n      tag_138\n      jump\t// in\n    tag_189:\n        /* \"#utility.yul\":6791:6863   */\n      tag_190\n        /* \"#utility.yul\":6859:6861   */\n      0x40\n        /* \"#utility.yul\":6848:6857   */\n      dup4\n        /* \"#utility.yul\":6844:6862   */\n      add\n        /* \"#utility.yul\":6835:6841   */\n      dup8\n        /* \"#utility.yul\":6791:6863   */\n      tag_179\n      jump\t// in\n    tag_190:\n        /* \"#utility.yul\":6873:6939   */\n      tag_191\n        /* \"#utility.yul\":6935:6937   */\n      0x60\n        /* \"#utility.yul\":6924:6933   */\n      dup4\n        /* \"#utility.yul\":6920:6938   */\n      add\n        /* \"#utility.yul\":6911:6917   */\n      dup7\n        /* \"#utility.yul\":6873:6939   */\n      tag_142\n      jump\t// in\n    tag_191:\n        /* \"#utility.yul\":6987:6996   */\n      dup2\n        /* \"#utility.yul\":6981:6985   */\n      dup2\n        /* \"#utility.yul\":6977:6997   */\n      sub\n        /* \"#utility.yul\":6971:6974   */\n      0x80\n        /* \"#utility.yul\":6960:6969   */\n      dup4\n        /* \"#utility.yul\":6956:6975   */\n      add\n        /* \"#utility.yul\":6949:6998   */\n      mstore\n        /* \"#utility.yul\":7015:7101   */\n      tag_192\n        /* \"#utility.yul\":7096:7100   */\n      dup2\n        /* \"#utility.yul\":7087:7093   */\n      dup5\n        /* \"#utility.yul\":7079:7085   */\n      dup7\n        /* \"#utility.yul\":7015:7101   */\n      tag_146\n      jump\t// in\n    tag_192:\n        /* \"#utility.yul\":7007:7101   */\n      swap1\n      pop\n        /* \"#utility.yul\":6581:7108   */\n      swap8\n      swap7\n      pop\n      pop\n      pop\n      pop\n      pop\n      pop\n      pop\n      jump\t// out\n        /* \"#utility.yul\":7114:7446   */\n    tag_45:\n      0x00\n        /* \"#utility.yul\":7273:7275   */\n      0x40\n        /* \"#utility.yul\":7262:7271   */\n      dup3\n        /* \"#utility.yul\":7258:7276   */\n      add\n        /* \"#utility.yul\":7250:7276   */\n      swap1\n      pop\n        /* \"#utility.yul\":7286:7357   */\n      tag_194\n        /* \"#utility.yul\":7354:7355   */\n      0x00\n        /* \"#utility.yul\":7343:7352   */\n      dup4\n        /* \"#utility.yul\":7339:7356   */\n      add\n        /* \"#utility.yul\":7330:7336   */\n      dup6\n        /* \"#utility.yul\":7286:7357   */\n      tag_138\n      jump\t// in\n    tag_194:\n        /* \"#utility.yul\":7367:7439   */\n      tag_195\n        /* \"#utility.yul\":7435:7437   */\n      0x20\n        /* \"#utility.yul\":7424:7433   */\n      dup4\n        /* \"#utility.yul\":7420:7438   */\n      add\n        /* \"#utility.yul\":7411:7417   */\n      dup5\n        /* \"#utility.yul\":7367:7439   */\n      tag_179\n      jump\t// in\n    tag_195:\n        /* \"#utility.yul\":7240:7446   */\n      swap4\n      swap3\n      pop\n      pop\n      pop\n      jump\t// out\n        /* \"#utility.yul\":7452:7662   */\n    tag_25:\n      0x00\n        /* \"#utility.yul\":7577:7579   */\n      0x20\n        /* \"#utility.yul\":7566:7575   */\n      dup3\n        /* \"#utility.yul\":7562:7580   */\n      add\n        /* \"#utility.yul\":7554:7580   */\n      swap1\n      pop\n        /* \"#utility.yul\":7590:7655   */\n      tag_197\n        /* \"#utility.yul\":7652:7653   */\n      0x00\n        /* \"#utility.yul\":7641:7650   */\n      dup4\n        /* \"#utility.yul\":7637:7654   */\n      add\n        /* \"#utility.yul\":7628:7634   */\n      dup5\n        /* \"#utility.yul\":7590:7655   */\n      tag_142\n      jump\t// in\n    tag_197:\n        /* \"#utility.yul\":7544:7662   */\n      swap3\n      swap2\n      pop\n      pop\n      jump\t// out\n        /* \"#utility.yul\":7668:7977   */\n    tag_31:\n      0x00\n        /* \"#utility.yul\":7817:7819   */\n      0x20\n        /* \"#utility.yul\":7806:7815   */\n      dup3\n        /* \"#utility.yul\":7802:7820   */\n      add\n        /* \"#utility.yul\":7794:7820   */\n      swap1\n      pop\n        /* \"#utility.yul\":7866:7875   */\n      dup2\n        /* \"#utility.yul\":7860:7864   */\n      dup2\n        /* \"#utility.yul\":7856:7876   */\n      sub\n        /* \"#utility.yul\":7852:7853   */\n      0x00\n        /* \"#utility.yul\":7841:7850   */\n      dup4\n        /* \"#utility.yul\":7837:7854   */\n      add\n        /* \"#utility.yul\":7830:7877   */\n      mstore\n        /* \"#utility.yul\":7894:7970   */\n      tag_199\n        /* \"#utility.yul\":7965:7969   */\n      dup2\n        /* \"#utility.yul\":7956:7962   */\n      dup5\n        /* \"#utility.yul\":7894:7970   */\n      tag_159\n      jump\t// in\n    tag_199:\n        /* \"#utility.yul\":7886:7970   */\n      swap1\n      pop\n        /* \"#utility.yul\":7784:7977   */\n      swap3\n      swap2\n      pop\n      pop\n      jump\t// out\n        /* \"#utility.yul\":7983:8231   */\n    tag_20:\n      0x00\n        /* \"#utility.yul\":8127:8129   */\n      0x20\n        /* \"#utility.yul\":8116:8125   */\n      dup3\n        /* \"#utility.yul\":8112:8130   */\n      add\n        /* \"#utility.yul\":8104:8130   */\n      swap1\n      pop\n        /* \"#utility.yul\":8140:8224   */\n      tag_201\n        /* \"#utility.yul\":8221:8222   */\n      0x00\n        /* \"#utility.yul\":8210:8219   */\n      dup4\n        /* \"#utility.yul\":8206:8223   */\n      add\n        /* \"#utility.yul\":8197:8203   */\n      dup5\n        /* \"#utility.yul\":8140:8224   */\n      tag_167\n      jump\t// in\n    tag_201:\n        /* \"#utility.yul\":8094:8231   */\n      swap3\n      swap2\n      pop\n      pop\n      jump\t// out\n        /* \"#utility.yul\":8237:8550   */\n    tag_85:\n      0x00\n        /* \"#utility.yul\":8388:8390   */\n      0x20\n        /* \"#utility.yul\":8377:8386   */\n      dup3\n        /* \"#utility.yul\":8373:8391   */\n      add\n        /* \"#utility.yul\":8365:8391   */\n      swap1\n      pop\n        /* \"#utility.yul\":8437:8446   */\n      dup2\n        /* \"#utility.yul\":8431:8435   */\n      dup2\n        /* \"#utility.yul\":8427:8447   */\n      sub\n        /* \"#utility.yul\":8423:8424   */\n      0x00\n        /* \"#utility.yul\":8412:8421   */\n      dup4\n        /* \"#utility.yul\":8408:8425   */\n      add\n        /* \"#utility.yul\":8401:8448   */\n      mstore\n        /* \"#utility.yul\":8465:8543   */\n      tag_203\n        /* \"#utility.yul\":8538:8542   */\n      dup2\n        /* \"#utility.yul\":8529:8535   */\n      dup5\n        /* \"#utility.yul\":8465:8543   */\n      tag_171\n      jump\t// in\n    tag_203:\n        /* \"#utility.yul\":8457:8543   */\n      swap1\n      pop\n        /* \"#utility.yul\":8355:8550   */\n      swap3\n      swap2\n      pop\n      pop\n      jump\t// out\n        /* \"#utility.yul\":8556:8778   */\n    tag_35:\n      0x00\n        /* \"#utility.yul\":8687:8689   */\n      0x20\n        /* \"#utility.yul\":8676:8685   */\n      dup3\n        /* \"#utility.yul\":8672:8690   */\n      add\n        /* \"#utility.yul\":8664:8690   */\n      swap1\n      pop\n        /* \"#utility.yul\":8700:8771   */\n      tag_205\n        /* \"#utility.yul\":8768:8769   */\n      0x00\n        /* \"#utility.yul\":8757:8766   */\n      dup4\n        /* \"#utility.yul\":8753:8770   */\n      add\n        /* \"#utility.yul\":8744:8750   */\n      dup5\n        /* \"#utility.yul\":8700:8771   */\n      tag_179\n      jump\t// in\n    tag_205:\n        /* \"#utility.yul\":8654:8778   */\n      swap3\n      swap2\n      pop\n      pop\n      jump\t// out\n        /* \"#utility.yul\":8784:8882   */\n    tag_162:\n      0x00\n        /* \"#utility.yul\":8869:8874   */\n      dup2\n        /* \"#utility.yul\":8863:8875   */\n      mload\n        /* \"#utility.yul\":8853:8875   */\n      swap1\n      pop\n        /* \"#utility.yul\":8842:8882   */\n      swap2\n      swap1\n      pop\n      jump\t// out\n        /* \"#utility.yul\":8888:8987   */\n    tag_174:\n      0x00\n        /* \"#utility.yul\":8974:8979   */\n      dup2\n        /* \"#utility.yul\":8968:8980   */\n      mload\n        /* \"#utility.yul\":8958:8980   */\n      swap1\n      pop\n        /* \"#utility.yul\":8947:8987   */\n      swap2\n      swap1\n      pop\n      jump\t// out\n        /* \"#utility.yul\":8993:9161   */\n    tag_149:\n      0x00\n        /* \"#utility.yul\":9110:9116   */\n      dup3\n        /* \"#utility.yul\":9105:9108   */\n      dup3\n        /* \"#utility.yul\":9098:9117   */\n      mstore\n        /* \"#utility.yul\":9150:9154   */\n      0x20\n        /* \"#utility.yul\":9145:9148   */\n      dup3\n        /* \"#utility.yul\":9141:9155   */\n      add\n        /* \"#utility.yul\":9126:9155   */\n      swap1\n      pop\n        /* \"#utility.yul\":9088:9161   */\n      swap3\n      swap2\n      pop\n      pop\n      jump\t// out\n        /* \"#utility.yul\":9167:9314   */\n    tag_157:\n      0x00\n        /* \"#utility.yul\":9305:9308   */\n      dup2\n        /* \"#utility.yul\":9290:9308   */\n      swap1\n      pop\n        /* \"#utility.yul\":9280:9314   */\n      swap3\n      swap2\n      pop\n      pop\n      jump\t// out\n        /* \"#utility.yul\":9320:9489   */\n    tag_176:\n      0x00\n        /* \"#utility.yul\":9438:9444   */\n      dup3\n        /* \"#utility.yul\":9433:9436   */\n      dup3\n        /* \"#utility.yul\":9426:9445   */\n      mstore\n        /* \"#utility.yul\":9478:9482   */\n      0x20\n        /* \"#utility.yul\":9473:9476   */\n      dup3\n        /* \"#utility.yul\":9469:9483   */\n      add\n        /* \"#utility.yul\":9454:9483   */\n      swap1\n      pop\n        /* \"#utility.yul\":9416:9489   */\n      swap3\n      swap2\n      pop\n      pop\n      jump\t// out\n        /* \"#utility.yul\":9495:9800   */\n    tag_67:\n      0x00\n        /* \"#utility.yul\":9554:9574   */\n      tag_212\n        /* \"#utility.yul\":9572:9573   */\n      dup3\n        /* \"#utility.yul\":9554:9574   */\n      tag_182\n      jump\t// in\n    tag_212:\n        /* \"#utility.yul\":9549:9574   */\n      swap2\n      pop\n        /* \"#utility.yul\":9588:9608   */\n      tag_213\n        /* \"#utility.yul\":9606:9607   */\n      dup4\n        /* \"#utility.yul\":9588:9608   */\n      tag_182\n      jump\t// in\n    tag_213:\n        /* \"#utility.yul\":9583:9608   */\n      swap3\n      pop\n        /* \"#utility.yul\":9742:9743   */\n      dup3\n        /* \"#utility.yul\":9674:9740   */\n      0xffffffffffffffffffffffffffffffffffffffffffffffffffffffffffffffff\n        /* \"#utility.yul\":9670:9744   */\n      sub\n        /* \"#utility.yul\":9667:9668   */\n      dup3\n        /* \"#utility.yul\":9664:9745   */\n      gt\n        /* \"#utility.yul\":9661:9663   */\n      iszero\n      tag_214\n      jumpi\n        /* \"#utility.yul\":9748:9766   */\n      tag_215\n      tag_216\n      jump\t// in\n    tag_215:\n        /* \"#utility.yul\":9661:9663   */\n    tag_214:\n        /* \"#utility.yul\":9792:9793   */\n      dup3\n        /* \"#utility.yul\":9789:9790   */\n      dup3\n        /* \"#utility.yul\":9785:9794   */\n      add\n        /* \"#utility.yul\":9778:9794   */\n      swap1\n      pop\n        /* \"#utility.yul\":9539:9800   */\n      swap3\n      swap2\n      pop\n      pop\n      jump\t// out\n        /* \"#utility.yul\":9806:9902   */\n    tag_141:\n      0x00\n        /* \"#utility.yul\":9872:9896   */\n      tag_218\n        /* \"#utility.yul\":9890:9895   */\n      dup3\n        /* \"#utility.yul\":9872:9896   */\n      tag_219\n      jump\t// in\n    tag_218:\n        /* \"#utility.yul\":9861:9896   */\n      swap1\n      pop\n        /* \"#utility.yul\":9851:9902   */\n      swap2\n      swap1\n      pop\n      jump\t// out\n        /* \"#utility.yul\":9908:9998   */\n    tag_145:\n      0x00\n        /* \"#utility.yul\":9985:9990   */\n      dup2\n        /* \"#utility.yul\":9978:9991   */\n      iszero\n        /* \"#utility.yul\":9971:9992   */\n      iszero\n        /* \"#utility.yul\":9960:9992   */\n      swap1\n      pop\n        /* \"#utility.yul\":9950:9998   */\n      swap2\n      swap1\n      pop\n      jump\t// out\n        /* \"#utility.yul\":10004:10153   */\n    tag_221:\n      0x00\n        /* \"#utility.yul\":10080:10146   */\n      0xffffffff00000000000000000000000000000000000000000000000000000000\n        /* \"#utility.yul\":10073:10078   */\n      dup3\n        /* \"#utility.yul\":10069:10147   */\n      and\n        /* \"#utility.yul\":10058:10147   */\n      swap1\n      pop\n        /* \"#utility.yul\":10048:10153   */\n      swap2\n      swap1\n      pop\n      jump\t// out\n        /* \"#utility.yul\":10159:10285   */\n    tag_219:\n      0x00\n        /* \"#utility.yul\":10236:10278   */\n      0xffffffffffffffffffffffffffffffffffffffff\n        /* \"#utility.yul\":10229:10234   */\n      dup3\n        /* \"#utility.yul\":10225:10279   */\n      and\n        /* \"#utility.yul\":10214:10279   */\n      swap1\n      pop\n        /* \"#utility.yul\":10204:10285   */\n      swap2\n      swap1\n      pop\n      jump\t// out\n        /* \"#utility.yul\":10291:10368   */\n    tag_182:\n      0x00\n        /* \"#utility.yul\":10357:10362   */\n      dup2\n        /* \"#utility.yul\":10346:10362   */\n      swap1\n      pop\n        /* \"#utility.yul\":10336:10368   */\n      swap2\n      swap1\n      pop\n      jump\t// out\n        /* \"#utility.yul\":10374:10526   */\n    tag_170:\n      0x00\n        /* \"#utility.yul\":10470:10520   */\n      tag_226\n        /* \"#utility.yul\":10514:10519   */\n      dup3\n        /* \"#utility.yul\":10470:10520   */\n      tag_227\n      jump\t// in\n    tag_226:\n        /* \"#utility.yul\":10457:10520   */\n      swap1\n      pop\n        /* \"#utility.yul\":10447:10526   */\n      swap2\n      swap1\n      pop\n      jump\t// out\n        /* \"#utility.yul\":10532:10658   */\n    tag_227:\n      0x00\n        /* \"#utility.yul\":10628:10652   */\n      tag_229\n        /* \"#utility.yul\":10646:10651   */\n      dup3\n        /* \"#utility.yul\":10628:10652   */\n      tag_219\n      jump\t// in\n    tag_229:\n        /* \"#utility.yul\":10615:10652   */\n      swap1\n      pop\n        /* \"#utility.yul\":10605:10658   */\n      swap2\n      swap1\n      pop\n      jump\t// out\n        /* \"#utility.yul\":10664:10818   */\n    tag_151:\n        /* \"#utility.yul\":10748:10754   */\n      dup3\n        /* \"#utility.yul\":10743:10746   */\n      dup2\n        /* \"#utility.yul\":10738:10741   */\n      dup4\n        /* \"#utility.yul\":10725:10755   */\n      calldatacopy\n        /* \"#utility.yul\":10810:10811   */\n      0x00\n        /* \"#utility.yul\":10801:10807   */\n      dup4\n        /* \"#utility.yul\":10796:10799   */\n      dup4\n        /* \"#utility.yul\":10792:10808   */\n      add\n        /* \"#utility.yul\":10785:10812   */\n      mstore\n        /* \"#utility.yul\":10715:10818   */\n      pop\n      pop\n      pop\n      jump\t// out\n        /* \"#utility.yul\":10824:11131   */\n    tag_165:\n        /* \"#utility.yul\":10892:10893   */\n      0x00\n        /* \"#utility.yul\":10902:11015   */\n    tag_232:\n        /* \"#utility.yul\":10916:10922   */\n      dup4\n        /* \"#utility.yul\":10913:10914   */\n      dup2\n        /* \"#utility.yul\":10910:10923   */\n      lt\n        /* \"#utility.yul\":10902:11015   */\n      iszero\n      tag_234\n      jumpi\n        /* \"#utility.yul\":11001:11002   */\n      dup1\n        /* \"#utility.yul\":10996:10999   */\n      dup3\n        /* \"#utility.yul\":10992:11003   */\n      add\n        /* \"#utility.yul\":10986:11004   */\n      mload\n        /* \"#utility.yul\":10982:10983   */\n      dup2\n        /* \"#utility.yul\":10977:10980   */\n      dup5\n        /* \"#utility.yul\":10973:10984   */\n      add\n        /* \"#utility.yul\":10966:11005   */\n      mstore\n        /* \"#utility.yul\":10938:10940   */\n      0x20\n        /* \"#utility.yul\":10935:10936   */\n      dup2\n        /* \"#utility.yul\":10931:10941   */\n      add\n        /* \"#utility.yul\":10926:10941   */\n      swap1\n      pop\n        /* \"#utility.yul\":10902:11015   */\n      jump(tag_232)\n    tag_234:\n        /* \"#utility.yul\":11033:11039   */\n      dup4\n        /* \"#utility.yul\":11030:11031   */\n      dup2\n        /* \"#utility.yul\":11027:11040   */\n      gt\n        /* \"#utility.yul\":11024:11026   */\n      iszero\n      tag_235\n      jumpi\n        /* \"#utility.yul\":11113:11114   */\n      0x00\n        /* \"#utility.yul\":11104:11110   */\n      dup5\n        /* \"#utility.yul\":11099:11102   */\n      dup5\n        /* \"#utility.yul\":11095:11111   */\n      add\n        /* \"#utility.yul\":11088:11115   */\n      mstore\n        /* \"#utility.yul\":11024:11026   */\n    tag_235:\n        /* \"#utility.yul\":10873:11131   */\n      pop\n      pop\n      pop\n      pop\n      jump\t// out\n        /* \"#utility.yul\":11137:11317   */\n    tag_216:\n        /* \"#utility.yul\":11185:11262   */\n      0x4e487b7100000000000000000000000000000000000000000000000000000000\n        /* \"#utility.yul\":11182:11183   */\n      0x00\n        /* \"#utility.yul\":11175:11263   */\n      mstore\n        /* \"#utility.yul\":11282:11286   */\n      0x11\n        /* \"#utility.yul\":11279:11280   */\n      0x04\n        /* \"#utility.yul\":11272:11287   */\n      mstore\n        /* \"#utility.yul\":11306:11310   */\n      0x24\n        /* \"#utility.yul\":11303:11304   */\n      0x00\n        /* \"#utility.yul\":11296:11311   */\n      revert\n        /* \"#utility.yul\":11323:11425   */\n    tag_153:\n      0x00\n        /* \"#utility.yul\":11415:11417   */\n      0x1f\n        /* \"#utility.yul\":11411:11418   */\n      not\n        /* \"#utility.yul\":11406:11408   */\n      0x1f\n        /* \"#utility.yul\":11399:11404   */\n      dup4\n        /* \"#utility.yul\":11395:11409   */\n      add\n        /* \"#utility.yul\":11391:11419   */\n      and\n        /* \"#utility.yul\":11381:11419   */\n      swap1\n      pop\n        /* \"#utility.yul\":11371:11425   */\n      swap2\n      swap1\n      pop\n      jump\t// out\n        /* \"#utility.yul\":11431:11553   */\n    tag_90:\n        /* \"#utility.yul\":11504:11528   */\n      tag_239\n        /* \"#utility.yul\":11522:11527   */\n      dup2\n        /* \"#utility.yul\":11504:11528   */\n      tag_141\n      jump\t// in\n    tag_239:\n        /* \"#utility.yul\":11497:11502   */\n      dup2\n        /* \"#utility.yul\":11494:11529   */\n      eq\n        /* \"#utility.yul\":11484:11486   */\n      tag_240\n      jumpi\n        /* \"#utility.yul\":11543:11544   */\n      0x00\n        /* \"#utility.yul\":11540:11541   */\n      dup1\n        /* \"#utility.yul\":11533:11545   */\n      revert\n        /* \"#utility.yul\":11484:11486   */\n    tag_240:\n        /* \"#utility.yul\":11474:11553   */\n      pop\n      jump\t// out\n        /* \"#utility.yul\":11559:11675   */\n    tag_94:\n        /* \"#utility.yul\":11629:11650   */\n      tag_242\n        /* \"#utility.yul\":11644:11649   */\n      dup2\n        /* \"#utility.yul\":11629:11650   */\n      tag_145\n      jump\t// in\n    tag_242:\n        /* \"#utility.yul\":11622:11627   */\n      dup2\n        /* \"#utility.yul\":11619:11651   */\n      eq\n        /* \"#utility.yul\":11609:11611   */\n      tag_243\n      jumpi\n        /* \"#utility.yul\":11665:11666   */\n      0x00\n        /* \"#utility.yul\":11662:11663   */\n      dup1\n        /* \"#utility.yul\":11655:11667   */\n      revert\n        /* \"#utility.yul\":11609:11611   */\n    tag_243:\n        /* \"#utility.yul\":11599:11675   */\n      pop\n      jump\t// out\n        /* \"#utility.yul\":11681:11801   */\n    tag_101:\n        /* \"#utility.yul\":11753:11776   */\n      tag_245\n        /* \"#utility.yul\":11770:11775   */\n      dup2\n        /* \"#utility.yul\":11753:11776   */\n      tag_221\n      jump\t// in\n    tag_245:\n        /* \"#utility.yul\":11746:11751   */\n      dup2\n        /* \"#utility.yul\":11743:11777   */\n      eq\n        /* \"#utility.yul\":11733:11735   */\n      tag_246\n      jumpi\n        /* \"#utility.yul\":11791:11792   */\n      0x00\n        /* \"#utility.yul\":11788:11789   */\n      dup1\n        /* \"#utility.yul\":11781:11793   */\n      revert\n        /* \"#utility.yul\":11733:11735   */\n    tag_246:\n        /* \"#utility.yul\":11723:11801   */\n      pop\n      jump\t// out\n        /* \"#utility.yul\":11807:11929   */\n    tag_110:\n        /* \"#utility.yul\":11880:11904   */\n      tag_248\n        /* \"#utility.yul\":11898:11903   */\n      dup2\n        /* \"#utility.yul\":11880:11904   */\n      tag_182\n      jump\t// in\n    tag_248:\n        /* \"#utility.yul\":11873:11878   */\n      dup2\n        /* \"#utility.yul\":11870:11905   */\n      eq\n        /* \"#utility.yul\":11860:11862   */\n      tag_249\n      jumpi\n        /* \"#utility.yul\":11919:11920   */\n      0x00\n        /* \"#utility.yul\":11916:11917   */\n      dup1\n        /* \"#utility.yul\":11909:11921   */\n      revert\n        /* \"#utility.yul\":11860:11862   */\n    tag_249:\n        /* \"#utility.yul\":11850:11929   */\n      pop\n      jump\t// out\n\n    auxdata: 0xa26469706673582212201bc81b3f221f71f481f9a4b315e4e681520ccb2039b82c255f5a1ff054b848d264736f6c63430008000033\n}\n\nsub_1: assembly {\n        /* \"shoot/3/方法选择器的计算/1.sol\":1600:3564  contract ERC20 is IERC20 {\r... */\n      mstore(0x40, 0x80)\n        /* \"shoot/3/方法选择器的计算/1.sol\":1894:1902  10 ether */\n      0x8ac7230489e80000\n        /* \"shoot/3/方法选择器的计算/1.sol\":1871:1902  uint256 totalSupply_ = 10 ether */\n      0x02\n      sstore\n        /* \"shoot/3/方法选择器的计算/1.sol\":1911:1979  constructor() {\r... */\n      callvalue\n      dup1\n      iszero\n      tag_1\n      jumpi\n      0x00\n      dup1\n      revert\n    tag_1:\n      pop\n        /* \"shoot/3/方法选择器的计算/1.sol\":1959:1971  totalSupply_ */\n      sload(0x02)\n        /* \"shoot/3/方法选择器的计算/1.sol\":1936:1944  balances */\n      0x00\n        /* \"shoot/3/方法选择器的计算/1.sol\":1936:1956  balances[msg.sender] */\n      dup1\n        /* \"shoot/3/方法选择器的计算/1.sol\":1945:1955  msg.sender */\n      caller\n        /* \"shoot/3/方法选择器的计算/1.sol\":1936:1956  balances[msg.sender] */\n      0xffffffffffffffffffffffffffffffffffffffff\n      and\n      0xffffffffffffffffffffffffffffffffffffffff\n      and\n      dup2\n      mstore\n      0x20\n      add\n      swap1\n      dup2\n      mstore\n      0x20\n      add\n      0x00\n      keccak256\n        /* \"shoot/3/方法选择器的计算/1.sol\":1936:1971  balances[msg.sender] = totalSupply_ */\n      dup2\n      swap1\n      sstore\n      pop\n        /* \"shoot/3/方法选择器的计算/1.sol\":1600:3564  contract ERC20 is IERC20 {\r... */\n      dataSize(sub_0)\n      dup1\n      dataOffset(sub_0)\n      0x00\n      codecopy\n      0x00\n      return\n    stop\n\n    sub_0: assembly {\n            /* \"shoot/3/方法选择器的计算/1.sol\":1600:3564  contract ERC20 is IERC20 {\r... */\n          mstore(0x40, 0x80)\n          callvalue\n          dup1\n          iszero\n          tag_1\n          jumpi\n          0x00\n          dup1\n          revert\n        tag_1:\n          pop\n          jumpi(tag_2, lt(calldatasize, 0x04))\n          shr(0xe0, calldataload(0x00))\n          dup1\n          0x313ce567\n          gt\n          tag_12\n          jumpi\n          dup1\n          0x313ce567\n          eq\n          tag_7\n          jumpi\n          dup1\n          0x70a08231\n          eq\n          tag_8\n          jumpi\n          dup1\n          0x95d89b41\n          eq\n          tag_9\n          jumpi\n          dup1\n          0xa9059cbb\n          eq\n          tag_10\n          jumpi\n          dup1\n          0xdd62ed3e\n          eq\n          tag_11\n          jumpi\n          jump(tag_2)\n        tag_12:\n          dup1\n          0x06fdde03\n          eq\n          tag_3\n          jumpi\n          dup1\n          0x095ea7b3\n          eq\n          tag_4\n          jumpi\n          dup1\n          0x18160ddd\n          eq\n          tag_5\n          jumpi\n          dup1\n          0x23b872dd\n          eq\n          tag_6\n          jumpi\n        tag_2:\n          0x00\n          dup1\n          revert\n            /* \"shoot/3/方法选择器的计算/1.sol\":1632:1669  string public constant name = \"ERC20\" */\n        tag_3:\n          tag_13\n          tag_14\n          jump\t// in\n        tag_13:\n          mload(0x40)\n          tag_15\n          swap2\n          swap1\n          tag_16\n          jump\t// in\n        tag_15:\n          mload(0x40)\n          dup1\n          swap2\n          sub\n          swap1\n          return\n            /* \"shoot/3/方法选择器的计算/1.sol\":2600:2844  function approve(address spender, uint256 amount)\r... */\n        tag_4:\n          tag_17\n          0x04\n          dup1\n          calldatasize\n          sub\n          dup2\n          add\n          swap1\n          tag_18\n          swap2\n          swap1\n          tag_19\n          jump\t// in\n        tag_18:\n          tag_20\n          jump\t// in\n        tag_17:\n          mload(0x40)\n          tag_21\n          swap2\n          swap1\n          tag_22\n          jump\t// in\n        tag_21:\n          mload(0x40)\n          dup1\n          swap2\n          sub\n          swap1\n          return\n            /* \"shoot/3/方法选择器的计算/1.sol\":1987:2087  function totalSupply() public view override returns (uint256) {\r... */\n        tag_5:\n          tag_23\n          tag_24\n          jump\t// in\n        tag_23:\n          mload(0x40)\n          tag_25\n          swap2\n          swap1\n          tag_26\n          jump\t// in\n        tag_25:\n          mload(0x40)\n          dup1\n          swap2\n          sub\n          swap1\n          return\n            /* \"shoot/3/方法选择器的计算/1.sol\":3042:3561  function transferFrom(\r... */\n        tag_6:\n          tag_27\n          0x04\n          dup1\n          calldatasize\n          sub\n          dup2\n          add\n          swap1\n          tag_28\n          swap2\n          swap1\n          tag_29\n          jump\t// in\n        tag_28:\n          tag_30\n          jump\t// in\n        tag_27:\n          mload(0x40)\n          tag_31\n          swap2\n          swap1\n          tag_22\n          jump\t// in\n        tag_31:\n          mload(0x40)\n          dup1\n          swap2\n          sub\n          swap1\n          return\n            /* \"shoot/3/方法选择器的计算/1.sol\":1720:1755  uint8 public constant decimals = 18 */\n        tag_7:\n          tag_32\n          tag_33\n          jump\t// in\n        tag_32:\n          mload(0x40)\n          tag_34\n          swap2\n          swap1\n          tag_35\n          jump\t// in\n        tag_34:\n          mload(0x40)\n          dup1\n          swap2\n          sub\n          swap1\n          return\n            /* \"shoot/3/方法选择器的计算/1.sol\":2095:2213  function balanceOf(address account) public view override returns (uint256) {\r... */\n        tag_8:\n          tag_36\n          0x04\n          dup1\n          calldatasize\n          sub\n          dup2\n          add\n          swap1\n          tag_37\n          swap2\n          swap1\n          tag_38\n          jump\t// in\n        tag_37:\n          tag_39\n          jump\t// in\n        tag_36:\n          mload(0x40)\n          tag_40\n          swap2\n          swap1\n          tag_26\n          jump\t// in\n        tag_40:\n          mload(0x40)\n          dup1\n          swap2\n          sub\n          swap1\n          return\n            /* \"shoot/3/方法选择器的计算/1.sol\":1676:1713  string public constant symbol = \"ERC\" */\n        tag_9:\n          tag_41\n          tag_42\n          jump\t// in\n        tag_41:\n          mload(0x40)\n          tag_43\n          swap2\n          swap1\n          tag_16\n          jump\t// in\n        tag_43:\n          mload(0x40)\n          dup1\n          swap2\n          sub\n          swap1\n          return\n            /* \"shoot/3/方法选择器的计算/1.sol\":2221:2592  function transfer(address receiver, uint256 amount)\r... */\n        tag_10:\n          tag_44\n          0x04\n          dup1\n          calldatasize\n          sub\n          dup2\n          add\n          swap1\n          tag_45\n          swap2\n          swap1\n          tag_19\n          jump\t// in\n        tag_45:\n          tag_46\n          jump\t// in\n        tag_44:\n          mload(0x40)\n          tag_47\n          swap2\n          swap1\n          tag_22\n          jump\t// in\n        tag_47:\n          mload(0x40)\n          dup1\n          swap2\n          sub\n          swap1\n          return\n            /* \"shoot/3/方法选择器的计算/1.sol\":2852:3034  function allowance(address sender, address spender)\r... */\n        tag_11:\n          tag_48\n          0x04\n          dup1\n          calldatasize\n          sub\n          dup2\n          add\n          swap1\n          tag_49\n          swap2\n          swap1\n          tag_50\n          jump\t// in\n        tag_49:\n          tag_51\n          jump\t// in\n        tag_48:\n          mload(0x40)\n          tag_52\n          swap2\n          swap1\n          tag_26\n          jump\t// in\n        tag_52:\n          mload(0x40)\n          dup1\n          swap2\n          sub\n          swap1\n          return\n            /* \"shoot/3/方法选择器的计算/1.sol\":1632:1669  string public constant name = \"ERC20\" */\n        tag_14:\n          mload(0x40)\n          dup1\n          0x40\n          add\n          0x40\n          mstore\n          dup1\n          0x05\n          dup2\n          mstore\n          0x20\n          add\n          0x4552433230000000000000000000000000000000000000000000000000000000\n          dup2\n          mstore\n          pop\n          dup2\n          jump\t// out\n            /* \"shoot/3/方法选择器的计算/1.sol\":2600:2844  function approve(address spender, uint256 amount)\r... */\n        tag_20:\n            /* \"shoot/3/方法选择器的计算/1.sol\":2702:2706  bool */\n          0x00\n            /* \"shoot/3/方法选择器的计算/1.sol\":2755:2761  amount */\n          dup2\n            /* \"shoot/3/方法选择器的计算/1.sol\":2724:2731  allowed */\n          0x01\n            /* \"shoot/3/方法选择器的计算/1.sol\":2724:2743  allowed[msg.sender] */\n          0x00\n            /* \"shoot/3/方法选择器的计算/1.sol\":2732:2742  msg.sender */\n          caller\n            /* \"shoot/3/方法选择器的计算/1.sol\":2724:2743  allowed[msg.sender] */\n          0xffffffffffffffffffffffffffffffffffffffff\n          and\n          0xffffffffffffffffffffffffffffffffffffffff\n          and\n          dup2\n          mstore\n          0x20\n          add\n          swap1\n          dup2\n          mstore\n          0x20\n          add\n          0x00\n          keccak256\n            /* \"shoot/3/方法选择器的计算/1.sol\":2724:2752  allowed[msg.sender][spender] */\n          0x00\n            /* \"shoot/3/方法选择器的计算/1.sol\":2744:2751  spender */\n          dup6\n            /* \"shoot/3/方法选择器的计算/1.sol\":2724:2752  allowed[msg.sender][spender] */\n          0xffffffffffffffffffffffffffffffffffffffff\n          and\n          0xffffffffffffffffffffffffffffffffffffffff\n          and\n          dup2\n          mstore\n          0x20\n          add\n          swap1\n          dup2\n          mstore\n          0x20\n          add\n          0x00\n          keccak256\n            /* \"shoot/3/方法选择器的计算/1.sol\":2724:2761  allowed[msg.sender][spender] = amount */\n          dup2\n          swap1\n          sstore\n          pop\n            /* \"shoot/3/方法选择器的计算/1.sol\":2798:2805  spender */\n          dup3\n            /* \"shoot/3/方法选择器的计算/1.sol\":2777:2814  Approval(msg.sender, spender, amount) */\n          0xffffffffffffffffffffffffffffffffffffffff\n          and\n            /* \"shoot/3/方法选择器的计算/1.sol\":2786:2796  msg.sender */\n          caller\n            /* \"shoot/3/方法选择器的计算/1.sol\":2777:2814  Approval(msg.sender, spender, amount) */\n          0xffffffffffffffffffffffffffffffffffffffff\n          and\n          0x8c5be1e5ebec7d5bd14f71427d1e84f3dd0314c0f7b2291e5b200ac8c7c3b925\n            /* \"shoot/3/方法选择器的计算/1.sol\":2807:2813  amount */\n          dup5\n            /* \"shoot/3/方法选择器的计算/1.sol\":2777:2814  Approval(msg.sender, spender, amount) */\n          mload(0x40)\n          tag_54\n          swap2\n          swap1\n          tag_26\n          jump\t// in\n        tag_54:\n          mload(0x40)\n          dup1\n          swap2\n          sub\n          swap1\n          log3\n            /* \"shoot/3/方法选择器的计算/1.sol\":2832:2836  true */\n          0x01\n            /* \"shoot/3/方法选择器的计算/1.sol\":2825:2836  return true */\n          swap1\n          pop\n            /* \"shoot/3/方法选择器的计算/1.sol\":2600:2844  function approve(address spender, uint256 amount)\r... */\n          swap3\n          swap2\n          pop\n          pop\n          jump\t// out\n            /* \"shoot/3/方法选择器的计算/1.sol\":1987:2087  function totalSupply() public view override returns (uint256) {\r... */\n        tag_24:\n            /* \"shoot/3/方法选择器的计算/1.sol\":2040:2047  uint256 */\n          0x00\n            /* \"shoot/3/方法选择器的计算/1.sol\":2067:2079  totalSupply_ */\n          sload(0x02)\n            /* \"shoot/3/方法选择器的计算/1.sol\":2060:2079  return totalSupply_ */\n          swap1\n          pop\n            /* \"shoot/3/方法选择器的计算/1.sol\":1987:2087  function totalSupply() public view override returns (uint256) {\r... */\n          swap1\n          jump\t// out\n            /* \"shoot/3/方法选择器的计算/1.sol\":3042:3561  function transferFrom(\r... */\n        tag_30:\n            /* \"shoot/3/方法选择器的计算/1.sol\":3174:3178  bool */\n          0x00\n            /* \"shoot/3/方法选择器的计算/1.sol\":3209:3217  balances */\n          dup1\n            /* \"shoot/3/方法选择器的计算/1.sol\":3209:3225  balances[sender] */\n          0x00\n            /* \"shoot/3/方法选择器的计算/1.sol\":3218:3224  sender */\n          dup6\n            /* \"shoot/3/方法选择器的计算/1.sol\":3209:3225  balances[sender] */\n          0xffffffffffffffffffffffffffffffffffffffff\n          and\n          0xffffffffffffffffffffffffffffffffffffffff\n          and\n          dup2\n          mstore\n          0x20\n          add\n          swap1\n          dup2\n          mstore\n          0x20\n          add\n          0x00\n          keccak256\n          sload\n            /* \"shoot/3/方法选择器的计算/1.sol\":3199:3205  amount */\n          dup3\n            /* \"shoot/3/方法选择器的计算/1.sol\":3199:3225  amount <= balances[sender] */\n          gt\n          iszero\n            /* \"shoot/3/方法选择器的计算/1.sol\":3191:3226  require(amount <= balances[sender]) */\n          tag_57\n          jumpi\n          0x00\n          dup1\n          revert\n        tag_57:\n            /* \"shoot/3/方法选择器的计算/1.sol\":3257:3264  allowed */\n          0x01\n            /* \"shoot/3/方法选择器的计算/1.sol\":3257:3272  allowed[sender] */\n          0x00\n            /* \"shoot/3/方法选择器的计算/1.sol\":3265:3271  sender */\n          dup6\n            /* \"shoot/3/方法选择器的计算/1.sol\":3257:3272  allowed[sender] */\n          0xffffffffffffffffffffffffffffffffffffffff\n          and\n          0xffffffffffffffffffffffffffffffffffffffff\n          and\n          dup2\n          mstore\n          0x20\n          add\n          swap1\n          dup2\n          mstore\n          0x20\n          add\n          0x00\n          keccak256\n            /* \"shoot/3/方法选择器的计算/1.sol\":3257:3284  allowed[sender][msg.sender] */\n          0x00\n            /* \"shoot/3/方法选择器的计算/1.sol\":3273:3283  msg.sender */\n          caller\n            /* \"shoot/3/方法选择器的计算/1.sol\":3257:3284  allowed[sender][msg.sender] */\n          0xffffffffffffffffffffffffffffffffffffffff\n          and\n          0xffffffffffffffffffffffffffffffffffffffff\n          and\n          dup2\n          mstore\n          0x20\n          add\n          swap1\n          dup2\n          mstore\n          0x20\n          add\n          0x00\n          keccak256\n          sload\n            /* \"shoot/3/方法选择器的计算/1.sol\":3247:3253  amount */\n          dup3\n            /* \"shoot/3/方法选择器的计算/1.sol\":3247:3284  amount <= allowed[sender][msg.sender] */\n          gt\n          iszero\n            /* \"shoot/3/方法选择器的计算/1.sol\":3239:3285  require(amount <= allowed[sender][msg.sender]) */\n          tag_58\n          jumpi\n          0x00\n          dup1\n          revert\n        tag_58:\n            /* \"shoot/3/方法选择器的计算/1.sol\":3336:3342  amount */\n          dup2\n            /* \"shoot/3/方法选择器的计算/1.sol\":3317:3325  balances */\n          0x00\n            /* \"shoot/3/方法选择器的计算/1.sol\":3317:3333  balances[sender] */\n          dup1\n            /* \"shoot/3/方法选择器的计算/1.sol\":3326:3332  sender */\n          dup7\n            /* \"shoot/3/方法选择器的计算/1.sol\":3317:3333  balances[sender] */\n          0xffffffffffffffffffffffffffffffffffffffff\n          and\n          0xffffffffffffffffffffffffffffffffffffffff\n          and\n          dup2\n          mstore\n          0x20\n          add\n          swap1\n          dup2\n          mstore\n          0x20\n          add\n          0x00\n          keccak256\n          sload\n            /* \"shoot/3/方法选择器的计算/1.sol\":3317:3342  balances[sender] - amount */\n          tag_59\n          swap2\n          swap1\n          tag_60\n          jump\t// in\n        tag_59:\n            /* \"shoot/3/方法选择器的计算/1.sol\":3298:3306  balances */\n          0x00\n            /* \"shoot/3/方法选择器的计算/1.sol\":3298:3314  balances[sender] */\n          dup1\n            /* \"shoot/3/方法选择器的计算/1.sol\":3307:3313  sender */\n          dup7\n            /* \"shoot/3/方法选择器的计算/1.sol\":3298:3314  balances[sender] */\n          0xffffffffffffffffffffffffffffffffffffffff\n          and\n          0xffffffffffffffffffffffffffffffffffffffff\n          and\n          dup2\n          mstore\n          0x20\n          add\n          swap1\n          dup2\n          mstore\n          0x20\n          add\n          0x00\n          keccak256\n            /* \"shoot/3/方法选择器的计算/1.sol\":3298:3342  balances[sender] = balances[sender] - amount */\n          dup2\n          swap1\n          sstore\n          pop\n            /* \"shoot/3/方法选择器的计算/1.sol\":3413:3419  amount */\n          dup2\n            /* \"shoot/3/方法选择器的计算/1.sol\":3383:3390  allowed */\n          0x01\n            /* \"shoot/3/方法选择器的计算/1.sol\":3383:3398  allowed[sender] */\n          0x00\n            /* \"shoot/3/方法选择器的计算/1.sol\":3391:3397  sender */\n          dup7\n            /* \"shoot/3/方法选择器的计算/1.sol\":3383:3398  allowed[sender] */\n          0xffffffffffffffffffffffffffffffffffffffff\n          and\n          0xffffffffffffffffffffffffffffffffffffffff\n          and\n          dup2\n          mstore\n          0x20\n          add\n          swap1\n          dup2\n          mstore\n          0x20\n          add\n          0x00\n          keccak256\n            /* \"shoot/3/方法选择器的计算/1.sol\":3383:3410  allowed[sender][msg.sender] */\n          0x00\n            /* \"shoot/3/方法选择器的计算/1.sol\":3399:3409  msg.sender */\n          caller\n            /* \"shoot/3/方法选择器的计算/1.sol\":3383:3410  allowed[sender][msg.sender] */\n          0xffffffffffffffffffffffffffffffffffffffff\n          and\n          0xffffffffffffffffffffffffffffffffffffffff\n          and\n          dup2\n          mstore\n          0x20\n          add\n          swap1\n          dup2\n          mstore\n          0x20\n          add\n          0x00\n          keccak256\n          sload\n            /* \"shoot/3/方法选择器的计算/1.sol\":3383:3419  allowed[sender][msg.sender] - amount */\n          tag_61\n          swap2\n          swap1\n          tag_60\n          jump\t// in\n        tag_61:\n            /* \"shoot/3/方法选择器的计算/1.sol\":3353:3360  allowed */\n          0x01\n            /* \"shoot/3/方法选择器的计算/1.sol\":3353:3368  allowed[sender] */\n          0x00\n            /* \"shoot/3/方法选择器的计算/1.sol\":3361:3367  sender */\n          dup7\n            /* \"shoot/3/方法选择器的计算/1.sol\":3353:3368  allowed[sender] */\n          0xffffffffffffffffffffffffffffffffffffffff\n          and\n          0xffffffffffffffffffffffffffffffffffffffff\n          and\n          dup2\n          mstore\n          0x20\n          add\n          swap1\n          dup2\n          mstore\n          0x20\n          add\n          0x00\n          keccak256\n            /* \"shoot/3/方法选择器的计算/1.sol\":3353:3380  allowed[sender][msg.sender] */\n          0x00\n            /* \"shoot/3/方法选择器的计算/1.sol\":3369:3379  msg.sender */\n          caller\n            /* \"shoot/3/方法选择器的计算/1.sol\":3353:3380  allowed[sender][msg.sender] */\n          0xffffffffffffffffffffffffffffffffffffffff\n          and\n          0xffffffffffffffffffffffffffffffffffffffff\n          and\n          dup2\n          mstore\n          0x20\n          add\n          swap1\n          dup2\n          mstore\n          0x20\n          add\n          0x00\n          keccak256\n            /* \"shoot/3/方法选择器的计算/1.sol\":3353:3419  allowed[sender][msg.sender] = allowed[sender][msg.sender] - amount */\n          dup2\n          swap1\n          sstore\n          pop\n            /* \"shoot/3/方法选择器的计算/1.sol\":3474:3480  amount */\n          dup2\n            /* \"shoot/3/方法选择器的计算/1.sol\":3452:3460  balances */\n          0x00\n            /* \"shoot/3/方法选择器的计算/1.sol\":3452:3471  balances[recipient] */\n          dup1\n            /* \"shoot/3/方法选择器的计算/1.sol\":3461:3470  recipient */\n          dup6\n            /* \"shoot/3/方法选择器的计算/1.sol\":3452:3471  balances[recipient] */\n          0xffffffffffffffffffffffffffffffffffffffff\n          and\n          0xffffffffffffffffffffffffffffffffffffffff\n          and\n          dup2\n          mstore\n          0x20\n          add\n          swap1\n          dup2\n          mstore\n          0x20\n          add\n          0x00\n          keccak256\n          sload\n            /* \"shoot/3/方法选择器的计算/1.sol\":3452:3480  balances[recipient] + amount */\n          tag_62\n          swap2\n          swap1\n          tag_63\n          jump\t// in\n        tag_62:\n            /* \"shoot/3/方法选择器的计算/1.sol\":3430:3438  balances */\n          0x00\n            /* \"shoot/3/方法选择器的计算/1.sol\":3430:3449  balances[recipient] */\n          dup1\n            /* \"shoot/3/方法选择器的计算/1.sol\":3439:3448  recipient */\n          dup6\n            /* \"shoot/3/方法选择器的计算/1.sol\":3430:3449  balances[recipient] */\n          0xffffffffffffffffffffffffffffffffffffffff\n          and\n          0xffffffffffffffffffffffffffffffffffffffff\n          and\n          dup2\n          mstore\n          0x20\n          add\n          swap1\n          dup2\n          mstore\n          0x20\n          add\n          0x00\n          keccak256\n            /* \"shoot/3/方法选择器的计算/1.sol\":3430:3480  balances[recipient] = balances[recipient] + amount */\n          dup2\n          swap1\n          sstore\n          pop\n            /* \"shoot/3/方法选择器的计算/1.sol\":3513:3522  recipient */\n          dup3\n            /* \"shoot/3/方法选择器的计算/1.sol\":3496:3531  Transfer(sender, recipient, amount) */\n          0xffffffffffffffffffffffffffffffffffffffff\n          and\n            /* \"shoot/3/方法选择器的计算/1.sol\":3505:3511  sender */\n          dup5\n            /* \"shoot/3/方法选择器的计算/1.sol\":3496:3531  Transfer(sender, recipient, amount) */\n          0xffffffffffffffffffffffffffffffffffffffff\n          and\n          0xddf252ad1be2c89b69c2b068fc378daa952ba7f163c4a11628f55a4df523b3ef\n            /* \"shoot/3/方法选择器的计算/1.sol\":3524:3530  amount */\n          dup5\n            /* \"shoot/3/方法选择器的计算/1.sol\":3496:3531  Transfer(sender, recipient, amount) */\n          mload(0x40)\n          tag_64\n          swap2\n          swap1\n          tag_26\n          jump\t// in\n        tag_64:\n          mload(0x40)\n          dup1\n          swap2\n          sub\n          swap1\n          log3\n            /* \"shoot/3/方法选择器的计算/1.sol\":3549:3553  true */\n          0x01\n            /* \"shoot/3/方法选择器的计算/1.sol\":3542:3553  return true */\n          swap1\n          pop\n            /* \"shoot/3/方法选择器的计算/1.sol\":3042:3561  function transferFrom(\r... */\n          swap4\n          swap3\n          pop\n          pop\n          pop\n          jump\t// out\n            /* \"shoot/3/方法选择器的计算/1.sol\":1720:1755  uint8 public constant decimals = 18 */\n        tag_33:\n            /* \"shoot/3/方法选择器的计算/1.sol\":1753:1755  18 */\n          0x12\n            /* \"shoot/3/方法选择器的计算/1.sol\":1720:1755  uint8 public constant decimals = 18 */\n          dup2\n          jump\t// out\n            /* \"shoot/3/方法选择器的计算/1.sol\":2095:2213  function balanceOf(address account) public view override returns (uint256) {\r... */\n        tag_39:\n            /* \"shoot/3/方法选择器的计算/1.sol\":2161:2168  uint256 */\n          0x00\n            /* \"shoot/3/方法选择器的计算/1.sol\":2188:2196  balances */\n          dup1\n            /* \"shoot/3/方法选择器的计算/1.sol\":2188:2205  balances[account] */\n          0x00\n            /* \"shoot/3/方法选择器的计算/1.sol\":2197:2204  account */\n          dup4\n            /* \"shoot/3/方法选择器的计算/1.sol\":2188:2205  balances[account] */\n          0xffffffffffffffffffffffffffffffffffffffff\n          and\n          0xffffffffffffffffffffffffffffffffffffffff\n          and\n          dup2\n          mstore\n          0x20\n          add\n          swap1\n          dup2\n          mstore\n          0x20\n          add\n          0x00\n          keccak256\n          sload\n            /* \"shoot/3/方法选择器的计算/1.sol\":2181:2205  return balances[account] */\n          swap1\n          pop\n            /* \"shoot/3/方法选择器的计算/1.sol\":2095:2213  function balanceOf(address account) public view override returns (uint256) {\r... */\n          swap2\n          swap1\n          pop\n          jump\t// out\n            /* \"shoot/3/方法选择器的计算/1.sol\":1676:1713  string public constant symbol = \"ERC\" */\n        tag_42:\n          mload(0x40)\n          dup1\n          0x40\n          add\n          0x40\n          mstore\n          dup1\n          0x03\n          dup2\n          mstore\n          0x20\n          add\n          0x4552430000000000000000000000000000000000000000000000000000000000\n          dup2\n          mstore\n          pop\n          dup2\n          jump\t// out\n            /* \"shoot/3/方法选择器的计算/1.sol\":2221:2592  function transfer(address receiver, uint256 amount)\r... */\n        tag_46:\n            /* \"shoot/3/方法选择器的计算/1.sol\":2325:2329  bool */\n          0x00\n            /* \"shoot/3/方法选择器的计算/1.sol\":2365:2373  balances */\n          dup1\n            /* \"shoot/3/方法选择器的计算/1.sol\":2365:2385  balances[msg.sender] */\n          0x00\n            /* \"shoot/3/方法选择器的计算/1.sol\":2374:2384  msg.sender */\n          caller\n            /* \"shoot/3/方法选择器的计算/1.sol\":2365:2385  balances[msg.sender] */\n          0xffffffffffffffffffffffffffffffffffffffff\n          and\n          0xffffffffffffffffffffffffffffffffffffffff\n          and\n          dup2\n          mstore\n          0x20\n          add\n          swap1\n          dup2\n          mstore\n          0x20\n          add\n          0x00\n          keccak256\n          sload\n            /* \"shoot/3/方法选择器的计算/1.sol\":2355:2361  amount */\n          dup3\n            /* \"shoot/3/方法选择器的计算/1.sol\":2355:2385  amount <= balances[msg.sender] */\n          gt\n          iszero\n            /* \"shoot/3/方法选择器的计算/1.sol\":2347:2386  require(amount <= balances[msg.sender]) */\n          tag_67\n          jumpi\n          0x00\n          dup1\n          revert\n        tag_67:\n            /* \"shoot/3/方法选择器的计算/1.sol\":2443:2449  amount */\n          dup2\n            /* \"shoot/3/方法选择器的计算/1.sol\":2420:2428  balances */\n          0x00\n            /* \"shoot/3/方法选择器的计算/1.sol\":2420:2440  balances[msg.sender] */\n          dup1\n            /* \"shoot/3/方法选择器的计算/1.sol\":2429:2439  msg.sender */\n          caller\n            /* \"shoot/3/方法选择器的计算/1.sol\":2420:2440  balances[msg.sender] */\n          0xffffffffffffffffffffffffffffffffffffffff\n          and\n          0xffffffffffffffffffffffffffffffffffffffff\n          and\n          dup2\n          mstore\n          0x20\n          add\n          swap1\n          dup2\n          mstore\n          0x20\n          add\n          0x00\n          keccak256\n          sload\n            /* \"shoot/3/方法选择器的计算/1.sol\":2420:2449  balances[msg.sender] - amount */\n          tag_68\n          swap2\n          swap1\n          tag_60\n          jump\t// in\n        tag_68:\n            /* \"shoot/3/方法选择器的计算/1.sol\":2397:2405  balances */\n          0x00\n            /* \"shoot/3/方法选择器的计算/1.sol\":2397:2417  balances[msg.sender] */\n          dup1\n            /* \"shoot/3/方法选择器的计算/1.sol\":2406:2416  msg.sender */\n          caller\n            /* \"shoot/3/方法选择器的计算/1.sol\":2397:2417  balances[msg.sender] */\n          0xffffffffffffffffffffffffffffffffffffffff\n          and\n          0xffffffffffffffffffffffffffffffffffffffff\n          and\n          dup2\n          mstore\n          0x20\n          add\n          swap1\n          dup2\n          mstore\n          0x20\n          add\n          0x00\n          keccak256\n            /* \"shoot/3/方法选择器的计算/1.sol\":2397:2449  balances[msg.sender] = balances[msg.sender] - amount */\n          dup2\n          swap1\n          sstore\n          pop\n            /* \"shoot/3/方法选择器的计算/1.sol\":2502:2508  amount */\n          dup2\n            /* \"shoot/3/方法选择器的计算/1.sol\":2481:2489  balances */\n          0x00\n            /* \"shoot/3/方法选择器的计算/1.sol\":2481:2499  balances[receiver] */\n          dup1\n            /* \"shoot/3/方法选择器的计算/1.sol\":2490:2498  receiver */\n          dup6\n            /* \"shoot/3/方法选择器的计算/1.sol\":2481:2499  balances[receiver] */\n          0xffffffffffffffffffffffffffffffffffffffff\n          and\n          0xffffffffffffffffffffffffffffffffffffffff\n          and\n          dup2\n          mstore\n          0x20\n          add\n          swap1\n          dup2\n          mstore\n          0x20\n          add\n          0x00\n          keccak256\n          sload\n            /* \"shoot/3/方法选择器的计算/1.sol\":2481:2508  balances[receiver] + amount */\n          tag_69\n          swap2\n          swap1\n          tag_63\n          jump\t// in\n        tag_69:\n            /* \"shoot/3/方法选择器的计算/1.sol\":2460:2468  balances */\n          0x00\n            /* \"shoot/3/方法选择器的计算/1.sol\":2460:2478  balances[receiver] */\n          dup1\n            /* \"shoot/3/方法选择器的计算/1.sol\":2469:2477  receiver */\n          dup6\n            /* \"shoot/3/方法选择器的计算/1.sol\":2460:2478  balances[receiver] */\n          0xffffffffffffffffffffffffffffffffffffffff\n          and\n          0xffffffffffffffffffffffffffffffffffffffff\n          and\n          dup2\n          mstore\n          0x20\n          add\n          swap1\n          dup2\n          mstore\n          0x20\n          add\n          0x00\n          keccak256\n            /* \"shoot/3/方法选择器的计算/1.sol\":2460:2508  balances[receiver] = balances[receiver] + amount */\n          dup2\n          swap1\n          sstore\n          pop\n            /* \"shoot/3/方法选择器的计算/1.sol\":2545:2553  receiver */\n          dup3\n            /* \"shoot/3/方法选择器的计算/1.sol\":2524:2562  Transfer(msg.sender, receiver, amount) */\n          0xffffffffffffffffffffffffffffffffffffffff\n          and\n            /* \"shoot/3/方法选择器的计算/1.sol\":2533:2543  msg.sender */\n          caller\n            /* \"shoot/3/方法选择器的计算/1.sol\":2524:2562  Transfer(msg.sender, receiver, amount) */\n          0xffffffffffffffffffffffffffffffffffffffff\n          and\n          0xddf252ad1be2c89b69c2b068fc378daa952ba7f163c4a11628f55a4df523b3ef\n            /* \"shoot/3/方法选择器的计算/1.sol\":2555:2561  amount */\n          dup5\n            /* \"shoot/3/方法选择器的计算/1.sol\":2524:2562  Transfer(msg.sender, receiver, amount) */\n          mload(0x40)\n          tag_70\n          swap2\n          swap1\n          tag_26\n          jump\t// in\n        tag_70:\n          mload(0x40)\n          dup1\n          swap2\n          sub\n          swap1\n          log3\n            /* \"shoot/3/方法选择器的计算/1.sol\":2580:2584  true */\n          0x01\n            /* \"shoot/3/方法选择器的计算/1.sol\":2573:2584  return true */\n          swap1\n          pop\n            /* \"shoot/3/方法选择器的计算/1.sol\":2221:2592  function transfer(address receiver, uint256 amount)\r... */\n          swap3\n          swap2\n          pop\n          pop\n          jump\t// out\n            /* \"shoot/3/方法选择器的计算/1.sol\":2852:3034  function allowance(address sender, address spender)\r... */\n        tag_51:\n            /* \"shoot/3/方法选择器的计算/1.sol\":2970:2977  uint256 */\n          0x00\n            /* \"shoot/3/方法选择器的计算/1.sol\":3002:3009  allowed */\n          0x01\n            /* \"shoot/3/方法选择器的计算/1.sol\":3002:3017  allowed[sender] */\n          0x00\n            /* \"shoot/3/方法选择器的计算/1.sol\":3010:3016  sender */\n          dup5\n            /* \"shoot/3/方法选择器的计算/1.sol\":3002:3017  allowed[sender] */\n          0xffffffffffffffffffffffffffffffffffffffff\n          and\n          0xffffffffffffffffffffffffffffffffffffffff\n          and\n          dup2\n          mstore\n          0x20\n          add\n          swap1\n          dup2\n          mstore\n          0x20\n          add\n          0x00\n          keccak256\n            /* \"shoot/3/方法选择器的计算/1.sol\":3002:3026  allowed[sender][spender] */\n          0x00\n            /* \"shoot/3/方法选择器的计算/1.sol\":3018:3025  spender */\n          dup4\n            /* \"shoot/3/方法选择器的计算/1.sol\":3002:3026  allowed[sender][spender] */\n          0xffffffffffffffffffffffffffffffffffffffff\n          and\n          0xffffffffffffffffffffffffffffffffffffffff\n          and\n          dup2\n          mstore\n          0x20\n          add\n          swap1\n          dup2\n          mstore\n          0x20\n          add\n          0x00\n          keccak256\n          sload\n            /* \"shoot/3/方法选择器的计算/1.sol\":2995:3026  return allowed[sender][spender] */\n          swap1\n          pop\n            /* \"shoot/3/方法选择器的计算/1.sol\":2852:3034  function allowance(address sender, address spender)\r... */\n          swap3\n          swap2\n          pop\n          pop\n          jump\t// out\n            /* \"#utility.yul\":7:146   */\n        tag_73:\n          0x00\n            /* \"#utility.yul\":91:97   */\n          dup2\n            /* \"#utility.yul\":78:98   */\n          calldataload\n            /* \"#utility.yul\":69:98   */\n          swap1\n          pop\n            /* \"#utility.yul\":107:140   */\n          tag_75\n            /* \"#utility.yul\":134:139   */\n          dup2\n            /* \"#utility.yul\":107:140   */\n          tag_76\n          jump\t// in\n        tag_75:\n            /* \"#utility.yul\":59:146   */\n          swap3\n          swap2\n          pop\n          pop\n          jump\t// out\n            /* \"#utility.yul\":152:291   */\n        tag_77:\n          0x00\n            /* \"#utility.yul\":236:242   */\n          dup2\n            /* \"#utility.yul\":223:243   */\n          calldataload\n            /* \"#utility.yul\":214:243   */\n          swap1\n          pop\n            /* \"#utility.yul\":252:285   */\n          tag_79\n            /* \"#utility.yul\":279:284   */\n          dup2\n            /* \"#utility.yul\":252:285   */\n          tag_80\n          jump\t// in\n        tag_79:\n            /* \"#utility.yul\":204:291   */\n          swap3\n          swap2\n          pop\n          pop\n          jump\t// out\n            /* \"#utility.yul\":297:559   */\n        tag_38:\n          0x00\n            /* \"#utility.yul\":405:407   */\n          0x20\n            /* \"#utility.yul\":393:402   */\n          dup3\n            /* \"#utility.yul\":384:391   */\n          dup5\n            /* \"#utility.yul\":380:403   */\n          sub\n            /* \"#utility.yul\":376:408   */\n          slt\n            /* \"#utility.yul\":373:375   */\n          iszero\n          tag_82\n          jumpi\n            /* \"#utility.yul\":421:422   */\n          0x00\n            /* \"#utility.yul\":418:419   */\n          dup1\n            /* \"#utility.yul\":411:423   */\n          revert\n            /* \"#utility.yul\":373:375   */\n        tag_82:\n            /* \"#utility.yul\":464:465   */\n          0x00\n            /* \"#utility.yul\":489:542   */\n          tag_83\n            /* \"#utility.yul\":534:541   */\n          dup5\n            /* \"#utility.yul\":525:531   */\n          dup3\n            /* \"#utility.yul\":514:523   */\n          dup6\n            /* \"#utility.yul\":510:532   */\n          add\n            /* \"#utility.yul\":489:542   */\n          tag_73\n          jump\t// in\n        tag_83:\n            /* \"#utility.yul\":479:542   */\n          swap2\n          pop\n            /* \"#utility.yul\":435:552   */\n          pop\n            /* \"#utility.yul\":363:559   */\n          swap3\n          swap2\n          pop\n          pop\n          jump\t// out\n            /* \"#utility.yul\":565:972   */\n        tag_50:\n          0x00\n          dup1\n            /* \"#utility.yul\":690:692   */\n          0x40\n            /* \"#utility.yul\":678:687   */\n          dup4\n            /* \"#utility.yul\":669:676   */\n          dup6\n            /* \"#utility.yul\":665:688   */\n          sub\n            /* \"#utility.yul\":661:693   */\n          slt\n            /* \"#utility.yul\":658:660   */\n          iszero\n          tag_85\n          jumpi\n            /* \"#utility.yul\":706:707   */\n          0x00\n            /* \"#utility.yul\":703:704   */\n          dup1\n            /* \"#utility.yul\":696:708   */\n          revert\n            /* \"#utility.yul\":658:660   */\n        tag_85:\n            /* \"#utility.yul\":749:750   */\n          0x00\n            /* \"#utility.yul\":774:827   */\n          tag_86\n            /* \"#utility.yul\":819:826   */\n          dup6\n            /* \"#utility.yul\":810:816   */\n          dup3\n            /* \"#utility.yul\":799:808   */\n          dup7\n            /* \"#utility.yul\":795:817   */\n          add\n            /* \"#utility.yul\":774:827   */\n          tag_73\n          jump\t// in\n        tag_86:\n            /* \"#utility.yul\":764:827   */\n          swap3\n          pop\n            /* \"#utility.yul\":720:837   */\n          pop\n            /* \"#utility.yul\":876:878   */\n          0x20\n            /* \"#utility.yul\":902:955   */\n          tag_87\n            /* \"#utility.yul\":947:954   */\n          dup6\n            /* \"#utility.yul\":938:944   */\n          dup3\n            /* \"#utility.yul\":927:936   */\n          dup7\n            /* \"#utility.yul\":923:945   */\n          add\n            /* \"#utility.yul\":902:955   */\n          tag_73\n          jump\t// in\n        tag_87:\n            /* \"#utility.yul\":892:955   */\n          swap2\n          pop\n            /* \"#utility.yul\":847:965   */\n          pop\n            /* \"#utility.yul\":648:972   */\n          swap3\n          pop\n          swap3\n          swap1\n          pop\n          jump\t// out\n            /* \"#utility.yul\":978:1530   */\n        tag_29:\n          0x00\n          dup1\n          0x00\n            /* \"#utility.yul\":1120:1122   */\n          0x60\n            /* \"#utility.yul\":1108:1117   */\n          dup5\n            /* \"#utility.yul\":1099:1106   */\n          dup7\n            /* \"#utility.yul\":1095:1118   */\n          sub\n            /* \"#utility.yul\":1091:1123   */\n          slt\n            /* \"#utility.yul\":1088:1090   */\n          iszero\n          tag_89\n          jumpi\n            /* \"#utility.yul\":1136:1137   */\n          0x00\n            /* \"#utility.yul\":1133:1134   */\n          dup1\n            /* \"#utility.yul\":1126:1138   */\n          revert\n            /* \"#utility.yul\":1088:1090   */\n        tag_89:\n            /* \"#utility.yul\":1179:1180   */\n          0x00\n            /* \"#utility.yul\":1204:1257   */\n          tag_90\n            /* \"#utility.yul\":1249:1256   */\n          dup7\n            /* \"#utility.yul\":1240:1246   */\n          dup3\n            /* \"#utility.yul\":1229:1238   */\n          dup8\n            /* \"#utility.yul\":1225:1247   */\n          add\n            /* \"#utility.yul\":1204:1257   */\n          tag_73\n          jump\t// in\n        tag_90:\n            /* \"#utility.yul\":1194:1257   */\n          swap4\n          pop\n            /* \"#utility.yul\":1150:1267   */\n          pop\n            /* \"#utility.yul\":1306:1308   */\n          0x20\n            /* \"#utility.yul\":1332:1385   */\n          tag_91\n            /* \"#utility.yul\":1377:1384   */\n          dup7\n            /* \"#utility.yul\":1368:1374   */\n          dup3\n            /* \"#utility.yul\":1357:1366   */\n          dup8\n            /* \"#utility.yul\":1353:1375   */\n          add\n            /* \"#utility.yul\":1332:1385   */\n          tag_73\n          jump\t// in\n        tag_91:\n            /* \"#utility.yul\":1322:1385   */\n          swap3\n          pop\n            /* \"#utility.yul\":1277:1395   */\n          pop\n            /* \"#utility.yul\":1434:1436   */\n          0x40\n            /* \"#utility.yul\":1460:1513   */\n          tag_92\n            /* \"#utility.yul\":1505:1512   */\n          dup7\n            /* \"#utility.yul\":1496:1502   */\n          dup3\n            /* \"#utility.yul\":1485:1494   */\n          dup8\n            /* \"#utility.yul\":1481:1503   */\n          add\n            /* \"#utility.yul\":1460:1513   */\n          tag_77\n          jump\t// in\n        tag_92:\n            /* \"#utility.yul\":1450:1513   */\n          swap2\n          pop\n            /* \"#utility.yul\":1405:1523   */\n          pop\n            /* \"#utility.yul\":1078:1530   */\n          swap3\n          pop\n          swap3\n          pop\n          swap3\n          jump\t// out\n            /* \"#utility.yul\":1536:1943   */\n        tag_19:\n          0x00\n          dup1\n            /* \"#utility.yul\":1661:1663   */\n          0x40\n            /* \"#utility.yul\":1649:1658   */\n          dup4\n            /* \"#utility.yul\":1640:1647   */\n          dup6\n            /* \"#utility.yul\":1636:1659   */\n          sub\n            /* \"#utility.yul\":1632:1664   */\n          slt\n            /* \"#utility.yul\":1629:1631   */\n          iszero\n          tag_94\n          jumpi\n            /* \"#utility.yul\":1677:1678   */\n          0x00\n            /* \"#utility.yul\":1674:1675   */\n          dup1\n            /* \"#utility.yul\":1667:1679   */\n          revert\n            /* \"#utility.yul\":1629:1631   */\n        tag_94:\n            /* \"#utility.yul\":1720:1721   */\n          0x00\n            /* \"#utility.yul\":1745:1798   */\n          tag_95\n            /* \"#utility.yul\":1790:1797   */\n          dup6\n            /* \"#utility.yul\":1781:1787   */\n          dup3\n            /* \"#utility.yul\":1770:1779   */\n          dup7\n            /* \"#utility.yul\":1766:1788   */\n          add\n            /* \"#utility.yul\":1745:1798   */\n          tag_73\n          jump\t// in\n        tag_95:\n            /* \"#utility.yul\":1735:1798   */\n          swap3\n          pop\n            /* \"#utility.yul\":1691:1808   */\n          pop\n            /* \"#utility.yul\":1847:1849   */\n          0x20\n            /* \"#utility.yul\":1873:1926   */\n          tag_96\n            /* \"#utility.yul\":1918:1925   */\n          dup6\n            /* \"#utility.yul\":1909:1915   */\n          dup3\n            /* \"#utility.yul\":1898:1907   */\n          dup7\n            /* \"#utility.yul\":1894:1916   */\n          add\n            /* \"#utility.yul\":1873:1926   */\n          tag_77\n          jump\t// in\n        tag_96:\n            /* \"#utility.yul\":1863:1926   */\n          swap2\n          pop\n            /* \"#utility.yul\":1818:1936   */\n          pop\n            /* \"#utility.yul\":1619:1943   */\n          swap3\n          pop\n          swap3\n          swap1\n          pop\n          jump\t// out\n            /* \"#utility.yul\":1949:2058   */\n        tag_97:\n            /* \"#utility.yul\":2030:2051   */\n          tag_99\n            /* \"#utility.yul\":2045:2050   */\n          dup2\n            /* \"#utility.yul\":2030:2051   */\n          tag_100\n          jump\t// in\n        tag_99:\n            /* \"#utility.yul\":2025:2028   */\n          dup3\n            /* \"#utility.yul\":2018:2052   */\n          mstore\n            /* \"#utility.yul\":2008:2058   */\n          pop\n          pop\n          jump\t// out\n            /* \"#utility.yul\":2064:2428   */\n        tag_101:\n          0x00\n            /* \"#utility.yul\":2180:2219   */\n          tag_103\n            /* \"#utility.yul\":2213:2218   */\n          dup3\n            /* \"#utility.yul\":2180:2219   */\n          tag_104\n          jump\t// in\n        tag_103:\n            /* \"#utility.yul\":2235:2306   */\n          tag_105\n            /* \"#utility.yul\":2299:2305   */\n          dup2\n            /* \"#utility.yul\":2294:2297   */\n          dup6\n            /* \"#utility.yul\":2235:2306   */\n          tag_106\n          jump\t// in\n        tag_105:\n            /* \"#utility.yul\":2228:2306   */\n          swap4\n          pop\n            /* \"#utility.yul\":2315:2367   */\n          tag_107\n            /* \"#utility.yul\":2360:2366   */\n          dup2\n            /* \"#utility.yul\":2355:2358   */\n          dup6\n            /* \"#utility.yul\":2348:2352   */\n          0x20\n            /* \"#utility.yul\":2341:2346   */\n          dup7\n            /* \"#utility.yul\":2337:2353   */\n          add\n            /* \"#utility.yul\":2315:2367   */\n          tag_108\n          jump\t// in\n        tag_107:\n            /* \"#utility.yul\":2392:2421   */\n          tag_109\n            /* \"#utility.yul\":2414:2420   */\n          dup2\n            /* \"#utility.yul\":2392:2421   */\n          tag_110\n          jump\t// in\n        tag_109:\n            /* \"#utility.yul\":2387:2390   */\n          dup5\n            /* \"#utility.yul\":2383:2422   */\n          add\n            /* \"#utility.yul\":2376:2422   */\n          swap2\n          pop\n            /* \"#utility.yul\":2156:2428   */\n          pop\n          swap3\n          swap2\n          pop\n          pop\n          jump\t// out\n            /* \"#utility.yul\":2434:2552   */\n        tag_111:\n            /* \"#utility.yul\":2521:2545   */\n          tag_113\n            /* \"#utility.yul\":2539:2544   */\n          dup2\n            /* \"#utility.yul\":2521:2545   */\n          tag_114\n          jump\t// in\n        tag_113:\n            /* \"#utility.yul\":2516:2519   */\n          dup3\n            /* \"#utility.yul\":2509:2546   */\n          mstore\n            /* \"#utility.yul\":2499:2552   */\n          pop\n          pop\n          jump\t// out\n            /* \"#utility.yul\":2558:2670   */\n        tag_115:\n            /* \"#utility.yul\":2641:2663   */\n          tag_117\n            /* \"#utility.yul\":2657:2662   */\n          dup2\n            /* \"#utility.yul\":2641:2663   */\n          tag_118\n          jump\t// in\n        tag_117:\n            /* \"#utility.yul\":2636:2639   */\n          dup3\n            /* \"#utility.yul\":2629:2664   */\n          mstore\n            /* \"#utility.yul\":2619:2670   */\n          pop\n          pop\n          jump\t// out\n            /* \"#utility.yul\":2676:2886   */\n        tag_22:\n          0x00\n            /* \"#utility.yul\":2801:2803   */\n          0x20\n            /* \"#utility.yul\":2790:2799   */\n          dup3\n            /* \"#utility.yul\":2786:2804   */\n          add\n            /* \"#utility.yul\":2778:2804   */\n          swap1\n          pop\n            /* \"#utility.yul\":2814:2879   */\n          tag_120\n            /* \"#utility.yul\":2876:2877   */\n          0x00\n            /* \"#utility.yul\":2865:2874   */\n          dup4\n            /* \"#utility.yul\":2861:2878   */\n          add\n            /* \"#utility.yul\":2852:2858   */\n          dup5\n            /* \"#utility.yul\":2814:2879   */\n          tag_97\n          jump\t// in\n        tag_120:\n            /* \"#utility.yul\":2768:2886   */\n          swap3\n          swap2\n          pop\n          pop\n          jump\t// out\n            /* \"#utility.yul\":2892:3205   */\n        tag_16:\n          0x00\n            /* \"#utility.yul\":3043:3045   */\n          0x20\n            /* \"#utility.yul\":3032:3041   */\n          dup3\n            /* \"#utility.yul\":3028:3046   */\n          add\n            /* \"#utility.yul\":3020:3046   */\n          swap1\n          pop\n            /* \"#utility.yul\":3092:3101   */\n          dup2\n            /* \"#utility.yul\":3086:3090   */\n          dup2\n            /* \"#utility.yul\":3082:3102   */\n          sub\n            /* \"#utility.yul\":3078:3079   */\n          0x00\n            /* \"#utility.yul\":3067:3076   */\n          dup4\n            /* \"#utility.yul\":3063:3080   */\n          add\n            /* \"#utility.yul\":3056:3103   */\n          mstore\n            /* \"#utility.yul\":3120:3198   */\n          tag_122\n            /* \"#utility.yul\":3193:3197   */\n          dup2\n            /* \"#utility.yul\":3184:3190   */\n          dup5\n            /* \"#utility.yul\":3120:3198   */\n          tag_101\n          jump\t// in\n        tag_122:\n            /* \"#utility.yul\":3112:3198   */\n          swap1\n          pop\n            /* \"#utility.yul\":3010:3205   */\n          swap3\n          swap2\n          pop\n          pop\n          jump\t// out\n            /* \"#utility.yul\":3211:3433   */\n        tag_26:\n          0x00\n            /* \"#utility.yul\":3342:3344   */\n          0x20\n            /* \"#utility.yul\":3331:3340   */\n          dup3\n            /* \"#utility.yul\":3327:3345   */\n          add\n            /* \"#utility.yul\":3319:3345   */\n          swap1\n          pop\n            /* \"#utility.yul\":3355:3426   */\n          tag_124\n            /* \"#utility.yul\":3423:3424   */\n          0x00\n            /* \"#utility.yul\":3412:3421   */\n          dup4\n            /* \"#utility.yul\":3408:3425   */\n          add\n            /* \"#utility.yul\":3399:3405   */\n          dup5\n            /* \"#utility.yul\":3355:3426   */\n          tag_111\n          jump\t// in\n        tag_124:\n            /* \"#utility.yul\":3309:3433   */\n          swap3\n          swap2\n          pop\n          pop\n          jump\t// out\n            /* \"#utility.yul\":3439:3653   */\n        tag_35:\n          0x00\n            /* \"#utility.yul\":3566:3568   */\n          0x20\n            /* \"#utility.yul\":3555:3564   */\n          dup3\n            /* \"#utility.yul\":3551:3569   */\n          add\n            /* \"#utility.yul\":3543:3569   */\n          swap1\n          pop\n            /* \"#utility.yul\":3579:3646   */\n          tag_126\n            /* \"#utility.yul\":3643:3644   */\n          0x00\n            /* \"#utility.yul\":3632:3641   */\n          dup4\n            /* \"#utility.yul\":3628:3645   */\n          add\n            /* \"#utility.yul\":3619:3625   */\n          dup5\n            /* \"#utility.yul\":3579:3646   */\n          tag_115\n          jump\t// in\n        tag_126:\n            /* \"#utility.yul\":3533:3653   */\n          swap3\n          swap2\n          pop\n          pop\n          jump\t// out\n            /* \"#utility.yul\":3659:3758   */\n        tag_104:\n          0x00\n            /* \"#utility.yul\":3745:3750   */\n          dup2\n            /* \"#utility.yul\":3739:3751   */\n          mload\n            /* \"#utility.yul\":3729:3751   */\n          swap1\n          pop\n            /* \"#utility.yul\":3718:3758   */\n          swap2\n          swap1\n          pop\n          jump\t// out\n            /* \"#utility.yul\":3764:3933   */\n        tag_106:\n          0x00\n            /* \"#utility.yul\":3882:3888   */\n          dup3\n            /* \"#utility.yul\":3877:3880   */\n          dup3\n            /* \"#utility.yul\":3870:3889   */\n          mstore\n            /* \"#utility.yul\":3922:3926   */\n          0x20\n            /* \"#utility.yul\":3917:3920   */\n          dup3\n            /* \"#utility.yul\":3913:3927   */\n          add\n            /* \"#utility.yul\":3898:3927   */\n          swap1\n          pop\n            /* \"#utility.yul\":3860:3933   */\n          swap3\n          swap2\n          pop\n          pop\n          jump\t// out\n            /* \"#utility.yul\":3939:4244   */\n        tag_63:\n          0x00\n            /* \"#utility.yul\":3998:4018   */\n          tag_130\n            /* \"#utility.yul\":4016:4017   */\n          dup3\n            /* \"#utility.yul\":3998:4018   */\n          tag_114\n          jump\t// in\n        tag_130:\n            /* \"#utility.yul\":3993:4018   */\n          swap2\n          pop\n            /* \"#utility.yul\":4032:4052   */\n          tag_131\n            /* \"#utility.yul\":4050:4051   */\n          dup4\n            /* \"#utility.yul\":4032:4052   */\n          tag_114\n          jump\t// in\n        tag_131:\n            /* \"#utility.yul\":4027:4052   */\n          swap3\n          pop\n            /* \"#utility.yul\":4186:4187   */\n          dup3\n            /* \"#utility.yul\":4118:4184   */\n          0xffffffffffffffffffffffffffffffffffffffffffffffffffffffffffffffff\n            /* \"#utility.yul\":4114:4188   */\n          sub\n            /* \"#utility.yul\":4111:4112   */\n          dup3\n            /* \"#utility.yul\":4108:4189   */\n          gt\n            /* \"#utility.yul\":4105:4107   */\n          iszero\n          tag_132\n          jumpi\n            /* \"#utility.yul\":4192:4210   */\n          tag_133\n          tag_134\n          jump\t// in\n        tag_133:\n            /* \"#utility.yul\":4105:4107   */\n        tag_132:\n            /* \"#utility.yul\":4236:4237   */\n          dup3\n            /* \"#utility.yul\":4233:4234   */\n          dup3\n            /* \"#utility.yul\":4229:4238   */\n          add\n            /* \"#utility.yul\":4222:4238   */\n          swap1\n          pop\n            /* \"#utility.yul\":3983:4244   */\n          swap3\n          swap2\n          pop\n          pop\n          jump\t// out\n            /* \"#utility.yul\":4250:4441   */\n        tag_60:\n          0x00\n            /* \"#utility.yul\":4310:4330   */\n          tag_136\n            /* \"#utility.yul\":4328:4329   */\n          dup3\n            /* \"#utility.yul\":4310:4330   */\n          tag_114\n          jump\t// in\n        tag_136:\n            /* \"#utility.yul\":4305:4330   */\n          swap2\n          pop\n            /* \"#utility.yul\":4344:4364   */\n          tag_137\n            /* \"#utility.yul\":4362:4363   */\n          dup4\n            /* \"#utility.yul\":4344:4364   */\n          tag_114\n          jump\t// in\n        tag_137:\n            /* \"#utility.yul\":4339:4364   */\n          swap3\n          pop\n            /* \"#utility.yul\":4383:4384   */\n          dup3\n            /* \"#utility.yul\":4380:4381   */\n          dup3\n            /* \"#utility.yul\":4377:4385   */\n          lt\n            /* \"#utility.yul\":4374:4376   */\n          iszero\n          tag_138\n          jumpi\n            /* \"#utility.yul\":4388:4406   */\n          tag_139\n          tag_134\n          jump\t// in\n        tag_139:\n            /* \"#utility.yul\":4374:4376   */\n        tag_138:\n            /* \"#utility.yul\":4433:4434   */\n          dup3\n            /* \"#utility.yul\":4430:4431   */\n          dup3\n            /* \"#utility.yul\":4426:4435   */\n          sub\n            /* \"#utility.yul\":4418:4435   */\n          swap1\n          pop\n            /* \"#utility.yul\":4295:4441   */\n          swap3\n          swap2\n          pop\n          pop\n          jump\t// out\n            /* \"#utility.yul\":4447:4543   */\n        tag_140:\n          0x00\n            /* \"#utility.yul\":4513:4537   */\n          tag_142\n            /* \"#utility.yul\":4531:4536   */\n          dup3\n            /* \"#utility.yul\":4513:4537   */\n          tag_143\n          jump\t// in\n        tag_142:\n            /* \"#utility.yul\":4502:4537   */\n          swap1\n          pop\n            /* \"#utility.yul\":4492:4543   */\n          swap2\n          swap1\n          pop\n          jump\t// out\n            /* \"#utility.yul\":4549:4639   */\n        tag_100:\n          0x00\n            /* \"#utility.yul\":4626:4631   */\n          dup2\n            /* \"#utility.yul\":4619:4632   */\n          iszero\n            /* \"#utility.yul\":4612:4633   */\n          iszero\n            /* \"#utility.yul\":4601:4633   */\n          swap1\n          pop\n            /* \"#utility.yul\":4591:4639   */\n          swap2\n          swap1\n          pop\n          jump\t// out\n            /* \"#utility.yul\":4645:4771   */\n        tag_143:\n          0x00\n            /* \"#utility.yul\":4722:4764   */\n          0xffffffffffffffffffffffffffffffffffffffff\n            /* \"#utility.yul\":4715:4720   */\n          dup3\n            /* \"#utility.yul\":4711:4765   */\n          and\n            /* \"#utility.yul\":4700:4765   */\n          swap1\n          pop\n            /* \"#utility.yul\":4690:4771   */\n          swap2\n          swap1\n          pop\n          jump\t// out\n            /* \"#utility.yul\":4777:4854   */\n        tag_114:\n          0x00\n            /* \"#utility.yul\":4843:4848   */\n          dup2\n            /* \"#utility.yul\":4832:4848   */\n          swap1\n          pop\n            /* \"#utility.yul\":4822:4854   */\n          swap2\n          swap1\n          pop\n          jump\t// out\n            /* \"#utility.yul\":4860:4946   */\n        tag_118:\n          0x00\n            /* \"#utility.yul\":4935:4939   */\n          0xff\n            /* \"#utility.yul\":4928:4933   */\n          dup3\n            /* \"#utility.yul\":4924:4940   */\n          and\n            /* \"#utility.yul\":4913:4940   */\n          swap1\n          pop\n            /* \"#utility.yul\":4903:4946   */\n          swap2\n          swap1\n          pop\n          jump\t// out\n            /* \"#utility.yul\":4952:5259   */\n        tag_108:\n            /* \"#utility.yul\":5020:5021   */\n          0x00\n            /* \"#utility.yul\":5030:5143   */\n        tag_149:\n            /* \"#utility.yul\":5044:5050   */\n          dup4\n            /* \"#utility.yul\":5041:5042   */\n          dup2\n            /* \"#utility.yul\":5038:5051   */\n          lt\n            /* \"#utility.yul\":5030:5143   */\n          iszero\n          tag_151\n          jumpi\n            /* \"#utility.yul\":5129:5130   */\n          dup1\n            /* \"#utility.yul\":5124:5127   */\n          dup3\n            /* \"#utility.yul\":5120:5131   */\n          add\n            /* \"#utility.yul\":5114:5132   */\n          mload\n            /* \"#utility.yul\":5110:5111   */\n          dup2\n            /* \"#utility.yul\":5105:5108   */\n          dup5\n            /* \"#utility.yul\":5101:5112   */\n          add\n            /* \"#utility.yul\":5094:5133   */\n          mstore\n            /* \"#utility.yul\":5066:5068   */\n          0x20\n            /* \"#utility.yul\":5063:5064   */\n          dup2\n            /* \"#utility.yul\":5059:5069   */\n          add\n            /* \"#utility.yul\":5054:5069   */\n          swap1\n          pop\n            /* \"#utility.yul\":5030:5143   */\n          jump(tag_149)\n        tag_151:\n            /* \"#utility.yul\":5161:5167   */\n          dup4\n            /* \"#utility.yul\":5158:5159   */\n          dup2\n            /* \"#utility.yul\":5155:5168   */\n          gt\n            /* \"#utility.yul\":5152:5154   */\n          iszero\n          tag_152\n          jumpi\n            /* \"#utility.yul\":5241:5242   */\n          0x00\n            /* \"#utility.yul\":5232:5238   */\n          dup5\n            /* \"#utility.yul\":5227:5230   */\n          dup5\n            /* \"#utility.yul\":5223:5239   */\n          add\n            /* \"#utility.yul\":5216:5243   */\n          mstore\n            /* \"#utility.yul\":5152:5154   */\n        tag_152:\n            /* \"#utility.yul\":5001:5259   */\n          pop\n          pop\n          pop\n          pop\n          jump\t// out\n            /* \"#utility.yul\":5265:5445   */\n        tag_134:\n            /* \"#utility.yul\":5313:5390   */\n          0x4e487b7100000000000000000000000000000000000000000000000000000000\n            /* \"#utility.yul\":5310:5311   */\n          0x00\n            /* \"#utility.yul\":5303:5391   */\n          mstore\n            /* \"#utility.yul\":5410:5414   */\n          0x11\n            /* \"#utility.yul\":5407:5408   */\n          0x04\n            /* \"#utility.yul\":5400:5415   */\n          mstore\n            /* \"#utility.yul\":5434:5438   */\n          0x24\n            /* \"#utility.yul\":5431:5432   */\n          0x00\n            /* \"#utility.yul\":5424:5439   */\n          revert\n            /* \"#utility.yul\":5451:5553   */\n        tag_110:\n          0x00\n            /* \"#utility.yul\":5543:5545   */\n          0x1f\n            /* \"#utility.yul\":5539:5546   */\n          not\n            /* \"#utility.yul\":5534:5536   */\n          0x1f\n            /* \"#utility.yul\":5527:5532   */\n          dup4\n            /* \"#utility.yul\":5523:5537   */\n          add\n            /* \"#utility.yul\":5519:5547   */\n          and\n            /* \"#utility.yul\":5509:5547   */\n          swap1\n          pop\n            /* \"#utility.yul\":5499:5553   */\n          swap2\n          swap1\n          pop\n          jump\t// out\n            /* \"#utility.yul\":5559:5681   */\n        tag_76:\n            /* \"#utility.yul\":5632:5656   */\n          tag_156\n            /* \"#utility.yul\":5650:5655   */\n          dup2\n            /* \"#utility.yul\":5632:5656   */\n          tag_140\n          jump\t// in\n        tag_156:\n            /* \"#utility.yul\":5625:5630   */\n          dup2\n            /* \"#utility.yul\":5622:5657   */\n          eq\n            /* \"#utility.yul\":5612:5614   */\n          tag_157\n          jumpi\n            /* \"#utility.yul\":5671:5672   */\n          0x00\n            /* \"#utility.yul\":5668:5669   */\n          dup1\n            /* \"#utility.yul\":5661:5673   */\n          revert\n            /* \"#utility.yul\":5612:5614   */\n        tag_157:\n            /* \"#utility.yul\":5602:5681   */\n          pop\n          jump\t// out\n            /* \"#utility.yul\":5687:5809   */\n        tag_80:\n            /* \"#utility.yul\":5760:5784   */\n          tag_159\n            /* \"#utility.yul\":5778:5783   */\n          dup2\n            /* \"#utility.yul\":5760:5784   */\n          tag_114\n          jump\t// in\n        tag_159:\n            /* \"#utility.yul\":5753:5758   */\n          dup2\n            /* \"#utility.yul\":5750:5785   */\n          eq\n            /* \"#utility.yul\":5740:5742   */\n          tag_160\n          jumpi\n            /* \"#utility.yul\":5799:5800   */\n          0x00\n            /* \"#utility.yul\":5796:5797   */\n          dup1\n            /* \"#utility.yul\":5789:5801   */\n          revert\n            /* \"#utility.yul\":5740:5742   */\n        tag_160:\n            /* \"#utility.yul\":5730:5809   */\n          pop\n          jump\t// out\n\n        auxdata: 0xa2646970667358221220b00ef625b9d00f6eabfe7a81fb9804950a8a12aaa4e99e6ce45778f74bfa04a864736f6c63430008000033\n    }\n}\n",
				"bytecode": {
					"linkReferences": {},
					"object": "60806040526040516100109061007e565b604051809103906000f08015801561002c573d6000803e3d6000fd5b506000806101000a81548173ffffffffffffffffffffffffffffffffffffffff021916908373ffffffffffffffffffffffffffffffffffffffff16021790555034801561007857600080fd5b5061008b565b610db280610db883390190565b610d1e8061009a6000396000f3fe608060405234801561001057600080fd5b50600436106100625760003560e01c80633e666d201461006757806366a3fdb114610083578063785e9e861461009f5780639f29381d146100bd578063cae9ca51146100ed578063efedc6691461011d575b600080fd5b610081600480360381019061007c91906106fd565b61013b565b005b61009d60048036038101906100989190610839565b6103a4565b005b6100a76104be565b6040516100b49190610a81565b60405180910390f35b6100d760048036038101906100d29190610839565b6104e2565b6040516100e49190610a44565b60405180910390f35b610107600480360381019061010291906107a4565b610533565b6040516101149190610a5f565b60405180910390f35b61012561062f565b6040516101329190610abe565b60405180910390f35b60008773ffffffffffffffffffffffffffffffffffffffff166370a08231306040518263ffffffff1660e01b815260040161017691906109a4565b60206040518083038186803b15801561018e57600080fd5b505afa1580156101a2573d6000803e3d6000fd5b505050506040513d601f19601f820116820180604052508101906101c69190610862565b90508773ffffffffffffffffffffffffffffffffffffffff1663a9059cbb33886040518363ffffffff1660e01b8152600401610203929190610a1b565b602060405180830381600087803b15801561021d57600080fd5b505af1158015610231573d6000803e3d6000fd5b505050506040513d601f19601f820116820180604052508101906102559190610810565b5060008060146101000a81548160ff0219169083151502179055508673ffffffffffffffffffffffffffffffffffffffff1663cae9ca518989888888886040518763ffffffff1660e01b81526004016102b3969594939291906109bf565b600060405180830381600087803b1580156102cd57600080fd5b505af11580156102e1573d6000803e3d6000fd5b505050506001600060146101000a81548160ff02191690831515021790555060008873ffffffffffffffffffffffffffffffffffffffff166370a08231306040518263ffffffff1660e01b815260040161033b91906109a4565b60206040518083038186803b15801561035357600080fd5b505afa158015610367573d6000803e3d6000fd5b505050506040513d601f19601f8201168201806040525081019061038b9190610862565b905081811461039957600080fd5b505050505050505050565b600060149054906101000a900460ff166103bd57600080fd5b60006001819055506103ce816104e2565b156103ee576019600160008282546103e69190610b1c565b925050819055505b60008060009054906101000a900473ffffffffffffffffffffffffffffffffffffffff1673ffffffffffffffffffffffffffffffffffffffff166370a08231306040518263ffffffff1660e01b815260040161044a91906109a4565b60206040518083038186803b15801561046257600080fd5b505afa158015610476573d6000803e3d6000fd5b505050506040513d601f19601f8201168201806040525081019061049a9190610862565b14156104bb57604b600160008282546104b39190610b1c565b925050819055505b50565b60008054906101000a900473ffffffffffffffffffffffffffffffffffffffff1681565b6000639f29381d60e01b7bffffffffffffffffffffffffffffffffffffffffffffffffffffffff1916827bffffffffffffffffffffffffffffffffffffffffffffffffffffffff1916149050919050565b60603073ffffffffffffffffffffffffffffffffffffffff163373ffffffffffffffffffffffffffffffffffffffff161461056d57600080fd5b6000808673ffffffffffffffffffffffffffffffffffffffff16858560405161059792919061098b565b6000604051808303816000865af19150503d80600081146105d4576040519150601f19603f3d011682016040523d82523d6000602084013e6105d9565b606091505b5091509150818190610621576040517f08c379a00000000000000000000000000000000000000000000000000000000081526004016106189190610a9c565b60405180910390fd5b508092505050949350505050565b60015481565b60008135905061064481610c8c565b92915050565b60008135905061065981610ca3565b92915050565b60008151905061066e81610ca3565b92915050565b60008135905061068381610cba565b92915050565b60008083601f84011261069b57600080fd5b8235905067ffffffffffffffff8111156106b457600080fd5b6020830191508360018202830111156106cc57600080fd5b9250929050565b6000813590506106e281610cd1565b92915050565b6000815190506106f781610cd1565b92915050565b600080600080600080600060c0888a03121561071857600080fd5b60006107268a828b01610635565b97505060206107378a828b01610635565b96505060406107488a828b016106d3565b95505060606107598a828b016106d3565b945050608061076a8a828b0161064a565b93505060a088013567ffffffffffffffff81111561078757600080fd5b6107938a828b01610689565b925092505092959891949750929550565b600080600080606085870312156107ba57600080fd5b60006107c887828801610635565b94505060206107d9878288016106d3565b935050604085013567ffffffffffffffff8111156107f657600080fd5b61080287828801610689565b925092505092959194509250565b60006020828403121561082257600080fd5b60006108308482850161065f565b91505092915050565b60006020828403121561084b57600080fd5b600061085984828501610674565b91505092915050565b60006020828403121561087457600080fd5b6000610882848285016106e8565b91505092915050565b61089481610b72565b82525050565b6108a381610b84565b82525050565b60006108b58385610aef565b93506108c2838584610c0a565b6108cb83610c7b565b840190509392505050565b60006108e28385610b00565b93506108ef838584610c0a565b82840190509392505050565b600061090682610ad9565b6109108185610aef565b9350610920818560208601610c19565b61092981610c7b565b840191505092915050565b61093d81610be6565b82525050565b600061094e82610ae4565b6109588185610b0b565b9350610968818560208601610c19565b61097181610c7b565b840191505092915050565b61098581610bdc565b82525050565b60006109988284866108d6565b91508190509392505050565b60006020820190506109b9600083018461088b565b92915050565b600060a0820190506109d4600083018961088b565b6109e1602083018861088b565b6109ee604083018761097c565b6109fb606083018661089a565b8181036080830152610a0e8184866108a9565b9050979650505050505050565b6000604082019050610a30600083018561088b565b610a3d602083018461097c565b9392505050565b6000602082019050610a59600083018461089a565b92915050565b60006020820190508181036000830152610a7981846108fb565b905092915050565b6000602082019050610a966000830184610934565b92915050565b60006020820190508181036000830152610ab68184610943565b905092915050565b6000602082019050610ad3600083018461097c565b92915050565b600081519050919050565b600081519050919050565b600082825260208201905092915050565b600081905092915050565b600082825260208201905092915050565b6000610b2782610bdc565b9150610b3283610bdc565b9250827fffffffffffffffffffffffffffffffffffffffffffffffffffffffffffffffff03821115610b6757610b66610c4c565b5b828201905092915050565b6000610b7d82610bbc565b9050919050565b60008115159050919050565b60007fffffffff0000000000000000000000000000000000000000000000000000000082169050919050565b600073ffffffffffffffffffffffffffffffffffffffff82169050919050565b6000819050919050565b6000610bf182610bf8565b9050919050565b6000610c0382610bbc565b9050919050565b82818337600083830152505050565b60005b83811015610c37578082015181840152602081019050610c1c565b83811115610c46576000848401525b50505050565b7f4e487b7100000000000000000000000000000000000000000000000000000000600052601160045260246000fd5b6000601f19601f8301169050919050565b610c9581610b72565b8114610ca057600080fd5b50565b610cac81610b84565b8114610cb757600080fd5b50565b610cc381610b90565b8114610cce57600080fd5b50565b610cda81610bdc565b8114610ce557600080fd5b5056fea26469706673582212201bc81b3f221f71f481f9a4b315e4e681520ccb2039b82c255f5a1ff054b848d264736f6c634300080000336080604052678ac7230489e8000060025534801561001c57600080fd5b506002546000803373ffffffffffffffffffffffffffffffffffffffff1673ffffffffffffffffffffffffffffffffffffffff16815260200190815260200160002081905550610d41806100716000396000f3fe608060405234801561001057600080fd5b50600436106100935760003560e01c8063313ce56711610066578063313ce5671461013457806370a082311461015257806395d89b4114610182578063a9059cbb146101a0578063dd62ed3e146101d057610093565b806306fdde0314610098578063095ea7b3146100b657806318160ddd146100e657806323b872dd14610104575b600080fd5b6100a0610200565b6040516100ad9190610b17565b60405180910390f35b6100d060048036038101906100cb9190610a5a565b610239565b6040516100dd9190610afc565b60405180910390f35b6100ee61032b565b6040516100fb9190610b39565b60405180910390f35b61011e60048036038101906101199190610a0b565b610335565b60405161012b9190610afc565b60405180910390f35b61013c61069b565b6040516101499190610b54565b60405180910390f35b61016c600480360381019061016791906109a6565b6106a0565b6040516101799190610b39565b60405180910390f35b61018a6106e8565b6040516101979190610b17565b60405180910390f35b6101ba60048036038101906101b59190610a5a565b610721565b6040516101c79190610afc565b60405180910390f35b6101ea60048036038101906101e591906109cf565b6108f5565b6040516101f79190610b39565b60405180910390f35b6040518060400160405280600581526020017f455243323000000000000000000000000000000000000000000000000000000081525081565b600081600160003373ffffffffffffffffffffffffffffffffffffffff1673ffffffffffffffffffffffffffffffffffffffff16815260200190815260200160002060008573ffffffffffffffffffffffffffffffffffffffff1673ffffffffffffffffffffffffffffffffffffffff168152602001908152602001600020819055508273ffffffffffffffffffffffffffffffffffffffff163373ffffffffffffffffffffffffffffffffffffffff167f8c5be1e5ebec7d5bd14f71427d1e84f3dd0314c0f7b2291e5b200ac8c7c3b925846040516103199190610b39565b60405180910390a36001905092915050565b6000600254905090565b60008060008573ffffffffffffffffffffffffffffffffffffffff1673ffffffffffffffffffffffffffffffffffffffff1681526020019081526020016000205482111561038257600080fd5b600160008573ffffffffffffffffffffffffffffffffffffffff1673ffffffffffffffffffffffffffffffffffffffff16815260200190815260200160002060003373ffffffffffffffffffffffffffffffffffffffff1673ffffffffffffffffffffffffffffffffffffffff1681526020019081526020016000205482111561040b57600080fd5b816000808673ffffffffffffffffffffffffffffffffffffffff1673ffffffffffffffffffffffffffffffffffffffff168152602001908152602001600020546104559190610be1565b6000808673ffffffffffffffffffffffffffffffffffffffff1673ffffffffffffffffffffffffffffffffffffffff1681526020019081526020016000208190555081600160008673ffffffffffffffffffffffffffffffffffffffff1673ffffffffffffffffffffffffffffffffffffffff16815260200190815260200160002060003373ffffffffffffffffffffffffffffffffffffffff1673ffffffffffffffffffffffffffffffffffffffff1681526020019081526020016000205461051f9190610be1565b600160008673ffffffffffffffffffffffffffffffffffffffff1673ffffffffffffffffffffffffffffffffffffffff16815260200190815260200160002060003373ffffffffffffffffffffffffffffffffffffffff1673ffffffffffffffffffffffffffffffffffffffff16815260200190815260200160002081905550816000808573ffffffffffffffffffffffffffffffffffffffff1673ffffffffffffffffffffffffffffffffffffffff168152602001908152602001600020546105e99190610b8b565b6000808573ffffffffffffffffffffffffffffffffffffffff1673ffffffffffffffffffffffffffffffffffffffff168152602001908152602001600020819055508273ffffffffffffffffffffffffffffffffffffffff168473ffffffffffffffffffffffffffffffffffffffff167fddf252ad1be2c89b69c2b068fc378daa952ba7f163c4a11628f55a4df523b3ef846040516106889190610b39565b60405180910390a3600190509392505050565b601281565b60008060008373ffffffffffffffffffffffffffffffffffffffff1673ffffffffffffffffffffffffffffffffffffffff168152602001908152602001600020549050919050565b6040518060400160405280600381526020017f455243000000000000000000000000000000000000000000000000000000000081525081565b60008060003373ffffffffffffffffffffffffffffffffffffffff1673ffffffffffffffffffffffffffffffffffffffff1681526020019081526020016000205482111561076e57600080fd5b816000803373ffffffffffffffffffffffffffffffffffffffff1673ffffffffffffffffffffffffffffffffffffffff168152602001908152602001600020546107b89190610be1565b6000803373ffffffffffffffffffffffffffffffffffffffff1673ffffffffffffffffffffffffffffffffffffffff16815260200190815260200160002081905550816000808573ffffffffffffffffffffffffffffffffffffffff1673ffffffffffffffffffffffffffffffffffffffff168152602001908152602001600020546108449190610b8b565b6000808573ffffffffffffffffffffffffffffffffffffffff1673ffffffffffffffffffffffffffffffffffffffff168152602001908152602001600020819055508273ffffffffffffffffffffffffffffffffffffffff163373ffffffffffffffffffffffffffffffffffffffff167fddf252ad1be2c89b69c2b068fc378daa952ba7f163c4a11628f55a4df523b3ef846040516108e39190610b39565b60405180910390a36001905092915050565b6000600160008473ffffffffffffffffffffffffffffffffffffffff1673ffffffffffffffffffffffffffffffffffffffff16815260200190815260200160002060008373ffffffffffffffffffffffffffffffffffffffff1673ffffffffffffffffffffffffffffffffffffffff16815260200190815260200160002054905092915050565b60008135905061098b81610cdd565b92915050565b6000813590506109a081610cf4565b92915050565b6000602082840312156109b857600080fd5b60006109c68482850161097c565b91505092915050565b600080604083850312156109e257600080fd5b60006109f08582860161097c565b9250506020610a018582860161097c565b9150509250929050565b600080600060608486031215610a2057600080fd5b6000610a2e8682870161097c565b9350506020610a3f8682870161097c565b9250506040610a5086828701610991565b9150509250925092565b60008060408385031215610a6d57600080fd5b6000610a7b8582860161097c565b9250506020610a8c85828601610991565b9150509250929050565b610a9f81610c27565b82525050565b6000610ab082610b6f565b610aba8185610b7a565b9350610aca818560208601610c6a565b610ad381610ccc565b840191505092915050565b610ae781610c53565b82525050565b610af681610c5d565b82525050565b6000602082019050610b116000830184610a96565b92915050565b60006020820190508181036000830152610b318184610aa5565b905092915050565b6000602082019050610b4e6000830184610ade565b92915050565b6000602082019050610b696000830184610aed565b92915050565b600081519050919050565b600082825260208201905092915050565b6000610b9682610c53565b9150610ba183610c53565b9250827fffffffffffffffffffffffffffffffffffffffffffffffffffffffffffffffff03821115610bd657610bd5610c9d565b5b828201905092915050565b6000610bec82610c53565b9150610bf783610c53565b925082821015610c0a57610c09610c9d565b5b828203905092915050565b6000610c2082610c33565b9050919050565b60008115159050919050565b600073ffffffffffffffffffffffffffffffffffffffff82169050919050565b6000819050919050565b600060ff82169050919050565b60005b83811015610c88578082015181840152602081019050610c6d565b83811115610c97576000848401525b50505050565b7f4e487b7100000000000000000000000000000000000000000000000000000000600052601160045260246000fd5b6000601f19601f8301169050919050565b610ce681610c15565b8114610cf157600080fd5b50565b610cfd81610c53565b8114610d0857600080fd5b5056fea2646970667358221220b00ef625b9d00f6eabfe7a81fb9804950a8a12aaa4e99e6ce45778f74bfa04a864736f6c63430008000033",
					"opcodes": "PUSH1 0x80 PUSH1 0x40 MSTORE PUSH1 0x40 MLOAD PUSH2 0x10 SWAP1 PUSH2 0x7E JUMP JUMPDEST PUSH1 0x40 MLOAD DUP1 SWAP2 SUB SWAP1 PUSH1 0x0 CREATE DUP1 ISZERO DUP1 ISZERO PUSH2 0x2C JUMPI RETURNDATASIZE PUSH1 0x0 DUP1 RETURNDATACOPY RETURNDATASIZE PUSH1 0x0 REVERT JUMPDEST POP PUSH1 0x0 DUP1 PUSH2 0x100 EXP DUP2 SLOAD DUP2 PUSH20 0xFFFFFFFFFFFFFFFFFFFFFFFFFFFFFFFFFFFFFFFF MUL NOT AND SWAP1 DUP4 PUSH20 0xFFFFFFFFFFFFFFFFFFFFFFFFFFFFFFFFFFFFFFFF AND MUL OR SWAP1 SSTORE POP CALLVALUE DUP1 ISZERO PUSH2 0x78 JUMPI PUSH1 0x0 DUP1 REVERT JUMPDEST POP PUSH2 0x8B JUMP JUMPDEST PUSH2 0xDB2 DUP1 PUSH2 0xDB8 DUP4 CODECOPY ADD SWAP1 JUMP JUMPDEST PUSH2 0xD1E DUP1 PUSH2 0x9A PUSH1 0x0 CODECOPY PUSH1 0x0 RETURN INVALID PUSH1 0x80 PUSH1 0x40 MSTORE CALLVALUE DUP1 ISZERO PUSH2 0x10 JUMPI PUSH1 0x0 DUP1 REVERT JUMPDEST POP PUSH1 0x4 CALLDATASIZE LT PUSH2 0x62 JUMPI PUSH1 0x0 CALLDATALOAD PUSH1 0xE0 SHR DUP1 PUSH4 0x3E666D20 EQ PUSH2 0x67 JUMPI DUP1 PUSH4 0x66A3FDB1 EQ PUSH2 0x83 JUMPI DUP1 PUSH4 0x785E9E86 EQ PUSH2 0x9F JUMPI DUP1 PUSH4 0x9F29381D EQ PUSH2 0xBD JUMPI DUP1 PUSH4 0xCAE9CA51 EQ PUSH2 0xED JUMPI DUP1 PUSH4 0xEFEDC669 EQ PUSH2 0x11D JUMPI JUMPDEST PUSH1 0x0 DUP1 REVERT JUMPDEST PUSH2 0x81 PUSH1 0x4 DUP1 CALLDATASIZE SUB DUP2 ADD SWAP1 PUSH2 0x7C SWAP2 SWAP1 PUSH2 0x6FD JUMP JUMPDEST PUSH2 0x13B JUMP JUMPDEST STOP JUMPDEST PUSH2 0x9D PUSH1 0x4 DUP1 CALLDATASIZE SUB DUP2 ADD SWAP1 PUSH2 0x98 SWAP2 SWAP1 PUSH2 0x839 JUMP JUMPDEST PUSH2 0x3A4 JUMP JUMPDEST STOP JUMPDEST PUSH2 0xA7 PUSH2 0x4BE JUMP JUMPDEST PUSH1 0x40 MLOAD PUSH2 0xB4 SWAP2 SWAP1 PUSH2 0xA81 JUMP JUMPDEST PUSH1 0x40 MLOAD DUP1 SWAP2 SUB SWAP1 RETURN JUMPDEST PUSH2 0xD7 PUSH1 0x4 DUP1 CALLDATASIZE SUB DUP2 ADD SWAP1 PUSH2 0xD2 SWAP2 SWAP1 PUSH2 0x839 JUMP JUMPDEST PUSH2 0x4E2 JUMP JUMPDEST PUSH1 0x40 MLOAD PUSH2 0xE4 SWAP2 SWAP1 PUSH2 0xA44 JUMP JUMPDEST PUSH1 0x40 MLOAD DUP1 SWAP2 SUB SWAP1 RETURN JUMPDEST PUSH2 0x107 PUSH1 0x4 DUP1 CALLDATASIZE SUB DUP2 ADD SWAP1 PUSH2 0x102 SWAP2 SWAP1 PUSH2 0x7A4 JUMP JUMPDEST PUSH2 0x533 JUMP JUMPDEST PUSH1 0x40 MLOAD PUSH2 0x114 SWAP2 SWAP1 PUSH2 0xA5F JUMP JUMPDEST PUSH1 0x40 MLOAD DUP1 SWAP2 SUB SWAP1 RETURN JUMPDEST PUSH2 0x125 PUSH2 0x62F JUMP JUMPDEST PUSH1 0x40 MLOAD PUSH2 0x132 SWAP2 SWAP1 PUSH2 0xABE JUMP JUMPDEST PUSH1 0x40 MLOAD DUP1 SWAP2 SUB SWAP1 RETURN JUMPDEST PUSH1 0x0 DUP8 PUSH20 0xFFFFFFFFFFFFFFFFFFFFFFFFFFFFFFFFFFFFFFFF AND PUSH4 0x70A08231 ADDRESS PUSH1 0x40 MLOAD DUP3 PUSH4 0xFFFFFFFF AND PUSH1 0xE0 SHL DUP2 MSTORE PUSH1 0x4 ADD PUSH2 0x176 SWAP2 SWAP1 PUSH2 0x9A4 JUMP JUMPDEST PUSH1 0x20 PUSH1 0x40 MLOAD DUP1 DUP4 SUB DUP2 DUP7 DUP1 EXTCODESIZE ISZERO DUP1 ISZERO PUSH2 0x18E JUMPI PUSH1 0x0 DUP1 REVERT JUMPDEST POP GAS STATICCALL ISZERO DUP1 ISZERO PUSH2 0x1A2 JUMPI RETURNDATASIZE PUSH1 0x0 DUP1 RETURNDATACOPY RETURNDATASIZE PUSH1 0x0 REVERT JUMPDEST POP POP POP POP PUSH1 0x40 MLOAD RETURNDATASIZE PUSH1 0x1F NOT PUSH1 0x1F DUP3 ADD AND DUP3 ADD DUP1 PUSH1 0x40 MSTORE POP DUP2 ADD SWAP1 PUSH2 0x1C6 SWAP2 SWAP1 PUSH2 0x862 JUMP JUMPDEST SWAP1 POP DUP8 PUSH20 0xFFFFFFFFFFFFFFFFFFFFFFFFFFFFFFFFFFFFFFFF AND PUSH4 0xA9059CBB CALLER DUP9 PUSH1 0x40 MLOAD DUP4 PUSH4 0xFFFFFFFF AND PUSH1 0xE0 SHL DUP2 MSTORE PUSH1 0x4 ADD PUSH2 0x203 SWAP3 SWAP2 SWAP1 PUSH2 0xA1B JUMP JUMPDEST PUSH1 0x20 PUSH1 0x40 MLOAD DUP1 DUP4 SUB DUP2 PUSH1 0x0 DUP8 DUP1 EXTCODESIZE ISZERO DUP1 ISZERO PUSH2 0x21D JUMPI PUSH1 0x0 DUP1 REVERT JUMPDEST POP GAS CALL ISZERO DUP1 ISZERO PUSH2 0x231 JUMPI RETURNDATASIZE PUSH1 0x0 DUP1 RETURNDATACOPY RETURNDATASIZE PUSH1 0x0 REVERT JUMPDEST POP POP POP POP PUSH1 0x40 MLOAD RETURNDATASIZE PUSH1 0x1F NOT PUSH1 0x1F DUP3 ADD AND DUP3 ADD DUP1 PUSH1 0x40 MSTORE POP DUP2 ADD SWAP1 PUSH2 0x255 SWAP2 SWAP1 PUSH2 0x810 JUMP JUMPDEST POP PUSH1 0x0 DUP1 PUSH1 0x14 PUSH2 0x100 EXP DUP2 SLOAD DUP2 PUSH1 0xFF MUL NOT AND SWAP1 DUP4 ISZERO ISZERO MUL OR SWAP1 SSTORE POP DUP7 PUSH20 0xFFFFFFFFFFFFFFFFFFFFFFFFFFFFFFFFFFFFFFFF AND PUSH4 0xCAE9CA51 DUP10 DUP10 DUP9 DUP9 DUP9 DUP9 PUSH1 0x40 MLOAD DUP8 PUSH4 0xFFFFFFFF AND PUSH1 0xE0 SHL DUP2 MSTORE PUSH1 0x4 ADD PUSH2 0x2B3 SWAP7 SWAP6 SWAP5 SWAP4 SWAP3 SWAP2 SWAP1 PUSH2 0x9BF JUMP JUMPDEST PUSH1 0x0 PUSH1 0x40 MLOAD DUP1 DUP4 SUB DUP2 PUSH1 0x0 DUP8 DUP1 EXTCODESIZE ISZERO DUP1 ISZERO PUSH2 0x2CD JUMPI PUSH1 0x0 DUP1 REVERT JUMPDEST POP GAS CALL ISZERO DUP1 ISZERO PUSH2 0x2E1 JUMPI RETURNDATASIZE PUSH1 0x0 DUP1 RETURNDATACOPY RETURNDATASIZE PUSH1 0x0 REVERT JUMPDEST POP POP POP POP PUSH1 0x1 PUSH1 0x0 PUSH1 0x14 PUSH2 0x100 EXP DUP2 SLOAD DUP2 PUSH1 0xFF MUL NOT AND SWAP1 DUP4 ISZERO ISZERO MUL OR SWAP1 SSTORE POP PUSH1 0x0 DUP9 PUSH20 0xFFFFFFFFFFFFFFFFFFFFFFFFFFFFFFFFFFFFFFFF AND PUSH4 0x70A08231 ADDRESS PUSH1 0x40 MLOAD DUP3 PUSH4 0xFFFFFFFF AND PUSH1 0xE0 SHL DUP2 MSTORE PUSH1 0x4 ADD PUSH2 0x33B SWAP2 SWAP1 PUSH2 0x9A4 JUMP JUMPDEST PUSH1 0x20 PUSH1 0x40 MLOAD DUP1 DUP4 SUB DUP2 DUP7 DUP1 EXTCODESIZE ISZERO DUP1 ISZERO PUSH2 0x353 JUMPI PUSH1 0x0 DUP1 REVERT JUMPDEST POP GAS STATICCALL ISZERO DUP1 ISZERO PUSH2 0x367 JUMPI RETURNDATASIZE PUSH1 0x0 DUP1 RETURNDATACOPY RETURNDATASIZE PUSH1 0x0 REVERT JUMPDEST POP POP POP POP PUSH1 0x40 MLOAD RETURNDATASIZE PUSH1 0x1F NOT PUSH1 0x1F DUP3 ADD AND DUP3 ADD DUP1 PUSH1 0x40 MSTORE POP DUP2 ADD SWAP1 PUSH2 0x38B SWAP2 SWAP1 PUSH2 0x862 JUMP JUMPDEST SWAP1 POP DUP2 DUP2 EQ PUSH2 0x399 JUMPI PUSH1 0x0 DUP1 REVERT JUMPDEST POP POP POP POP POP POP POP POP POP JUMP JUMPDEST PUSH1 0x0 PUSH1 0x14 SWAP1 SLOAD SWAP1 PUSH2 0x100 EXP SWAP1 DIV PUSH1 0xFF AND PUSH2 0x3BD JUMPI PUSH1 0x0 DUP1 REVERT JUMPDEST PUSH1 0x0 PUSH1 0x1 DUP2 SWAP1 SSTORE POP PUSH2 0x3CE DUP2 PUSH2 0x4E2 JUMP JUMPDEST ISZERO PUSH2 0x3EE JUMPI PUSH1 0x19 PUSH1 0x1 PUSH1 0x0 DUP3 DUP3 SLOAD PUSH2 0x3E6 SWAP2 SWAP1 PUSH2 0xB1C JUMP JUMPDEST SWAP3 POP POP DUP2 SWAP1 SSTORE POP JUMPDEST PUSH1 0x0 DUP1 PUSH1 0x0 SWAP1 SLOAD SWAP1 PUSH2 0x100 EXP SWAP1 DIV PUSH20 0xFFFFFFFFFFFFFFFFFFFFFFFFFFFFFFFFFFFFFFFF AND PUSH20 0xFFFFFFFFFFFFFFFFFFFFFFFFFFFFFFFFFFFFFFFF AND PUSH4 0x70A08231 ADDRESS PUSH1 0x40 MLOAD DUP3 PUSH4 0xFFFFFFFF AND PUSH1 0xE0 SHL DUP2 MSTORE PUSH1 0x4 ADD PUSH2 0x44A SWAP2 SWAP1 PUSH2 0x9A4 JUMP JUMPDEST PUSH1 0x20 PUSH1 0x40 MLOAD DUP1 DUP4 SUB DUP2 DUP7 DUP1 EXTCODESIZE ISZERO DUP1 ISZERO PUSH2 0x462 JUMPI PUSH1 0x0 DUP1 REVERT JUMPDEST POP GAS STATICCALL ISZERO DUP1 ISZERO PUSH2 0x476 JUMPI RETURNDATASIZE PUSH1 0x0 DUP1 RETURNDATACOPY RETURNDATASIZE PUSH1 0x0 REVERT JUMPDEST POP POP POP POP PUSH1 0x40 MLOAD RETURNDATASIZE PUSH1 0x1F NOT PUSH1 0x1F DUP3 ADD AND DUP3 ADD DUP1 PUSH1 0x40 MSTORE POP DUP2 ADD SWAP1 PUSH2 0x49A SWAP2 SWAP1 PUSH2 0x862 JUMP JUMPDEST EQ ISZERO PUSH2 0x4BB JUMPI PUSH1 0x4B PUSH1 0x1 PUSH1 0x0 DUP3 DUP3 SLOAD PUSH2 0x4B3 SWAP2 SWAP1 PUSH2 0xB1C JUMP JUMPDEST SWAP3 POP POP DUP2 SWAP1 SSTORE POP JUMPDEST POP JUMP JUMPDEST PUSH1 0x0 DUP1 SLOAD SWAP1 PUSH2 0x100 EXP SWAP1 DIV PUSH20 0xFFFFFFFFFFFFFFFFFFFFFFFFFFFFFFFFFFFFFFFF AND DUP2 JUMP JUMPDEST PUSH1 0x0 PUSH4 0x9F29381D PUSH1 0xE0 SHL PUSH28 0xFFFFFFFFFFFFFFFFFFFFFFFFFFFFFFFFFFFFFFFFFFFFFFFFFFFFFFFF NOT AND DUP3 PUSH28 0xFFFFFFFFFFFFFFFFFFFFFFFFFFFFFFFFFFFFFFFFFFFFFFFFFFFFFFFF NOT AND EQ SWAP1 POP SWAP2 SWAP1 POP JUMP JUMPDEST PUSH1 0x60 ADDRESS PUSH20 0xFFFFFFFFFFFFFFFFFFFFFFFFFFFFFFFFFFFFFFFF AND CALLER PUSH20 0xFFFFFFFFFFFFFFFFFFFFFFFFFFFFFFFFFFFFFFFF AND EQ PUSH2 0x56D JUMPI PUSH1 0x0 DUP1 REVERT JUMPDEST PUSH1 0x0 DUP1 DUP7 PUSH20 0xFFFFFFFFFFFFFFFFFFFFFFFFFFFFFFFFFFFFFFFF AND DUP6 DUP6 PUSH1 0x40 MLOAD PUSH2 0x597 SWAP3 SWAP2 SWAP1 PUSH2 0x98B JUMP JUMPDEST PUSH1 0x0 PUSH1 0x40 MLOAD DUP1 DUP4 SUB DUP2 PUSH1 0x0 DUP7 GAS CALL SWAP2 POP POP RETURNDATASIZE DUP1 PUSH1 0x0 DUP2 EQ PUSH2 0x5D4 JUMPI PUSH1 0x40 MLOAD SWAP2 POP PUSH1 0x1F NOT PUSH1 0x3F RETURNDATASIZE ADD AND DUP3 ADD PUSH1 0x40 MSTORE RETURNDATASIZE DUP3 MSTORE RETURNDATASIZE PUSH1 0x0 PUSH1 0x20 DUP5 ADD RETURNDATACOPY PUSH2 0x5D9 JUMP JUMPDEST PUSH1 0x60 SWAP2 POP JUMPDEST POP SWAP2 POP SWAP2 POP DUP2 DUP2 SWAP1 PUSH2 0x621 JUMPI PUSH1 0x40 MLOAD PUSH32 0x8C379A000000000000000000000000000000000000000000000000000000000 DUP2 MSTORE PUSH1 0x4 ADD PUSH2 0x618 SWAP2 SWAP1 PUSH2 0xA9C JUMP JUMPDEST PUSH1 0x40 MLOAD DUP1 SWAP2 SUB SWAP1 REVERT JUMPDEST POP DUP1 SWAP3 POP POP POP SWAP5 SWAP4 POP POP POP POP JUMP JUMPDEST PUSH1 0x1 SLOAD DUP2 JUMP JUMPDEST PUSH1 0x0 DUP2 CALLDATALOAD SWAP1 POP PUSH2 0x644 DUP2 PUSH2 0xC8C JUMP JUMPDEST SWAP3 SWAP2 POP POP JUMP JUMPDEST PUSH1 0x0 DUP2 CALLDATALOAD SWAP1 POP PUSH2 0x659 DUP2 PUSH2 0xCA3 JUMP JUMPDEST SWAP3 SWAP2 POP POP JUMP JUMPDEST PUSH1 0x0 DUP2 MLOAD SWAP1 POP PUSH2 0x66E DUP2 PUSH2 0xCA3 JUMP JUMPDEST SWAP3 SWAP2 POP POP JUMP JUMPDEST PUSH1 0x0 DUP2 CALLDATALOAD SWAP1 POP PUSH2 0x683 DUP2 PUSH2 0xCBA JUMP JUMPDEST SWAP3 SWAP2 POP POP JUMP JUMPDEST PUSH1 0x0 DUP1 DUP4 PUSH1 0x1F DUP5 ADD SLT PUSH2 0x69B JUMPI PUSH1 0x0 DUP1 REVERT JUMPDEST DUP3 CALLDATALOAD SWAP1 POP PUSH8 0xFFFFFFFFFFFFFFFF DUP2 GT ISZERO PUSH2 0x6B4 JUMPI PUSH1 0x0 DUP1 REVERT JUMPDEST PUSH1 0x20 DUP4 ADD SWAP2 POP DUP4 PUSH1 0x1 DUP3 MUL DUP4 ADD GT ISZERO PUSH2 0x6CC JUMPI PUSH1 0x0 DUP1 REVERT JUMPDEST SWAP3 POP SWAP3 SWAP1 POP JUMP JUMPDEST PUSH1 0x0 DUP2 CALLDATALOAD SWAP1 POP PUSH2 0x6E2 DUP2 PUSH2 0xCD1 JUMP JUMPDEST SWAP3 SWAP2 POP POP JUMP JUMPDEST PUSH1 0x0 DUP2 MLOAD SWAP1 POP PUSH2 0x6F7 DUP2 PUSH2 0xCD1 JUMP JUMPDEST SWAP3 SWAP2 POP POP JUMP JUMPDEST PUSH1 0x0 DUP1 PUSH1 0x0 DUP1 PUSH1 0x0 DUP1 PUSH1 0x0 PUSH1 0xC0 DUP9 DUP11 SUB SLT ISZERO PUSH2 0x718 JUMPI PUSH1 0x0 DUP1 REVERT JUMPDEST PUSH1 0x0 PUSH2 0x726 DUP11 DUP3 DUP12 ADD PUSH2 0x635 JUMP JUMPDEST SWAP8 POP POP PUSH1 0x20 PUSH2 0x737 DUP11 DUP3 DUP12 ADD PUSH2 0x635 JUMP JUMPDEST SWAP7 POP POP PUSH1 0x40 PUSH2 0x748 DUP11 DUP3 DUP12 ADD PUSH2 0x6D3 JUMP JUMPDEST SWAP6 POP POP PUSH1 0x60 PUSH2 0x759 DUP11 DUP3 DUP12 ADD PUSH2 0x6D3 JUMP JUMPDEST SWAP5 POP POP PUSH1 0x80 PUSH2 0x76A DUP11 DUP3 DUP12 ADD PUSH2 0x64A JUMP JUMPDEST SWAP4 POP POP PUSH1 0xA0 DUP9 ADD CALLDATALOAD PUSH8 0xFFFFFFFFFFFFFFFF DUP2 GT ISZERO PUSH2 0x787 JUMPI PUSH1 0x0 DUP1 REVERT JUMPDEST PUSH2 0x793 DUP11 DUP3 DUP12 ADD PUSH2 0x689 JUMP JUMPDEST SWAP3 POP SWAP3 POP POP SWAP3 SWAP6 SWAP9 SWAP2 SWAP5 SWAP8 POP SWAP3 SWAP6 POP JUMP JUMPDEST PUSH1 0x0 DUP1 PUSH1 0x0 DUP1 PUSH1 0x60 DUP6 DUP8 SUB SLT ISZERO PUSH2 0x7BA JUMPI PUSH1 0x0 DUP1 REVERT JUMPDEST PUSH1 0x0 PUSH2 0x7C8 DUP8 DUP3 DUP9 ADD PUSH2 0x635 JUMP JUMPDEST SWAP5 POP POP PUSH1 0x20 PUSH2 0x7D9 DUP8 DUP3 DUP9 ADD PUSH2 0x6D3 JUMP JUMPDEST SWAP4 POP POP PUSH1 0x40 DUP6 ADD CALLDATALOAD PUSH8 0xFFFFFFFFFFFFFFFF DUP2 GT ISZERO PUSH2 0x7F6 JUMPI PUSH1 0x0 DUP1 REVERT JUMPDEST PUSH2 0x802 DUP8 DUP3 DUP9 ADD PUSH2 0x689 JUMP JUMPDEST SWAP3 POP SWAP3 POP POP SWAP3 SWAP6 SWAP2 SWAP5 POP SWAP3 POP JUMP JUMPDEST PUSH1 0x0 PUSH1 0x20 DUP3 DUP5 SUB SLT ISZERO PUSH2 0x822 JUMPI PUSH1 0x0 DUP1 REVERT JUMPDEST PUSH1 0x0 PUSH2 0x830 DUP5 DUP3 DUP6 ADD PUSH2 0x65F JUMP JUMPDEST SWAP2 POP POP SWAP3 SWAP2 POP POP JUMP JUMPDEST PUSH1 0x0 PUSH1 0x20 DUP3 DUP5 SUB SLT ISZERO PUSH2 0x84B JUMPI PUSH1 0x0 DUP1 REVERT JUMPDEST PUSH1 0x0 PUSH2 0x859 DUP5 DUP3 DUP6 ADD PUSH2 0x674 JUMP JUMPDEST SWAP2 POP POP SWAP3 SWAP2 POP POP JUMP JUMPDEST PUSH1 0x0 PUSH1 0x20 DUP3 DUP5 SUB SLT ISZERO PUSH2 0x874 JUMPI PUSH1 0x0 DUP1 REVERT JUMPDEST PUSH1 0x0 PUSH2 0x882 DUP5 DUP3 DUP6 ADD PUSH2 0x6E8 JUMP JUMPDEST SWAP2 POP POP SWAP3 SWAP2 POP POP JUMP JUMPDEST PUSH2 0x894 DUP2 PUSH2 0xB72 JUMP JUMPDEST DUP3 MSTORE POP POP JUMP JUMPDEST PUSH2 0x8A3 DUP2 PUSH2 0xB84 JUMP JUMPDEST DUP3 MSTORE POP POP JUMP JUMPDEST PUSH1 0x0 PUSH2 0x8B5 DUP4 DUP6 PUSH2 0xAEF JUMP JUMPDEST SWAP4 POP PUSH2 0x8C2 DUP4 DUP6 DUP5 PUSH2 0xC0A JUMP JUMPDEST PUSH2 0x8CB DUP4 PUSH2 0xC7B JUMP JUMPDEST DUP5 ADD SWAP1 POP SWAP4 SWAP3 POP POP POP JUMP JUMPDEST PUSH1 0x0 PUSH2 0x8E2 DUP4 DUP6 PUSH2 0xB00 JUMP JUMPDEST SWAP4 POP PUSH2 0x8EF DUP4 DUP6 DUP5 PUSH2 0xC0A JUMP JUMPDEST DUP3 DUP5 ADD SWAP1 POP SWAP4 SWAP3 POP POP POP JUMP JUMPDEST PUSH1 0x0 PUSH2 0x906 DUP3 PUSH2 0xAD9 JUMP JUMPDEST PUSH2 0x910 DUP2 DUP6 PUSH2 0xAEF JUMP JUMPDEST SWAP4 POP PUSH2 0x920 DUP2 DUP6 PUSH1 0x20 DUP7 ADD PUSH2 0xC19 JUMP JUMPDEST PUSH2 0x929 DUP2 PUSH2 0xC7B JUMP JUMPDEST DUP5 ADD SWAP2 POP POP SWAP3 SWAP2 POP POP JUMP JUMPDEST PUSH2 0x93D DUP2 PUSH2 0xBE6 JUMP JUMPDEST DUP3 MSTORE POP POP JUMP JUMPDEST PUSH1 0x0 PUSH2 0x94E DUP3 PUSH2 0xAE4 JUMP JUMPDEST PUSH2 0x958 DUP2 DUP6 PUSH2 0xB0B JUMP JUMPDEST SWAP4 POP PUSH2 0x968 DUP2 DUP6 PUSH1 0x20 DUP7 ADD PUSH2 0xC19 JUMP JUMPDEST PUSH2 0x971 DUP2 PUSH2 0xC7B JUMP JUMPDEST DUP5 ADD SWAP2 POP POP SWAP3 SWAP2 POP POP JUMP JUMPDEST PUSH2 0x985 DUP2 PUSH2 0xBDC JUMP JUMPDEST DUP3 MSTORE POP POP JUMP JUMPDEST PUSH1 0x0 PUSH2 0x998 DUP3 DUP5 DUP7 PUSH2 0x8D6 JUMP JUMPDEST SWAP2 POP DUP2 SWAP1 POP SWAP4 SWAP3 POP POP POP JUMP JUMPDEST PUSH1 0x0 PUSH1 0x20 DUP3 ADD SWAP1 POP PUSH2 0x9B9 PUSH1 0x0 DUP4 ADD DUP5 PUSH2 0x88B JUMP JUMPDEST SWAP3 SWAP2 POP POP JUMP JUMPDEST PUSH1 0x0 PUSH1 0xA0 DUP3 ADD SWAP1 POP PUSH2 0x9D4 PUSH1 0x0 DUP4 ADD DUP10 PUSH2 0x88B JUMP JUMPDEST PUSH2 0x9E1 PUSH1 0x20 DUP4 ADD DUP9 PUSH2 0x88B JUMP JUMPDEST PUSH2 0x9EE PUSH1 0x40 DUP4 ADD DUP8 PUSH2 0x97C JUMP JUMPDEST PUSH2 0x9FB PUSH1 0x60 DUP4 ADD DUP7 PUSH2 0x89A JUMP JUMPDEST DUP2 DUP2 SUB PUSH1 0x80 DUP4 ADD MSTORE PUSH2 0xA0E DUP2 DUP5 DUP7 PUSH2 0x8A9 JUMP JUMPDEST SWAP1 POP SWAP8 SWAP7 POP POP POP POP POP POP POP JUMP JUMPDEST PUSH1 0x0 PUSH1 0x40 DUP3 ADD SWAP1 POP PUSH2 0xA30 PUSH1 0x0 DUP4 ADD DUP6 PUSH2 0x88B JUMP JUMPDEST PUSH2 0xA3D PUSH1 0x20 DUP4 ADD DUP5 PUSH2 0x97C JUMP JUMPDEST SWAP4 SWAP3 POP POP POP JUMP JUMPDEST PUSH1 0x0 PUSH1 0x20 DUP3 ADD SWAP1 POP PUSH2 0xA59 PUSH1 0x0 DUP4 ADD DUP5 PUSH2 0x89A JUMP JUMPDEST SWAP3 SWAP2 POP POP JUMP JUMPDEST PUSH1 0x0 PUSH1 0x20 DUP3 ADD SWAP1 POP DUP2 DUP2 SUB PUSH1 0x0 DUP4 ADD MSTORE PUSH2 0xA79 DUP2 DUP5 PUSH2 0x8FB JUMP JUMPDEST SWAP1 POP SWAP3 SWAP2 POP POP JUMP JUMPDEST PUSH1 0x0 PUSH1 0x20 DUP3 ADD SWAP1 POP PUSH2 0xA96 PUSH1 0x0 DUP4 ADD DUP5 PUSH2 0x934 JUMP JUMPDEST SWAP3 SWAP2 POP POP JUMP JUMPDEST PUSH1 0x0 PUSH1 0x20 DUP3 ADD SWAP1 POP DUP2 DUP2 SUB PUSH1 0x0 DUP4 ADD MSTORE PUSH2 0xAB6 DUP2 DUP5 PUSH2 0x943 JUMP JUMPDEST SWAP1 POP SWAP3 SWAP2 POP POP JUMP JUMPDEST PUSH1 0x0 PUSH1 0x20 DUP3 ADD SWAP1 POP PUSH2 0xAD3 PUSH1 0x0 DUP4 ADD DUP5 PUSH2 0x97C JUMP JUMPDEST SWAP3 SWAP2 POP POP JUMP JUMPDEST PUSH1 0x0 DUP2 MLOAD SWAP1 POP SWAP2 SWAP1 POP JUMP JUMPDEST PUSH1 0x0 DUP2 MLOAD SWAP1 POP SWAP2 SWAP1 POP JUMP JUMPDEST PUSH1 0x0 DUP3 DUP3 MSTORE PUSH1 0x20 DUP3 ADD SWAP1 POP SWAP3 SWAP2 POP POP JUMP JUMPDEST PUSH1 0x0 DUP2 SWAP1 POP SWAP3 SWAP2 POP POP JUMP JUMPDEST PUSH1 0x0 DUP3 DUP3 MSTORE PUSH1 0x20 DUP3 ADD SWAP1 POP SWAP3 SWAP2 POP POP JUMP JUMPDEST PUSH1 0x0 PUSH2 0xB27 DUP3 PUSH2 0xBDC JUMP JUMPDEST SWAP2 POP PUSH2 0xB32 DUP4 PUSH2 0xBDC JUMP JUMPDEST SWAP3 POP DUP3 PUSH32 0xFFFFFFFFFFFFFFFFFFFFFFFFFFFFFFFFFFFFFFFFFFFFFFFFFFFFFFFFFFFFFFFF SUB DUP3 GT ISZERO PUSH2 0xB67 JUMPI PUSH2 0xB66 PUSH2 0xC4C JUMP JUMPDEST JUMPDEST DUP3 DUP3 ADD SWAP1 POP SWAP3 SWAP2 POP POP JUMP JUMPDEST PUSH1 0x0 PUSH2 0xB7D DUP3 PUSH2 0xBBC JUMP JUMPDEST SWAP1 POP SWAP2 SWAP1 POP JUMP JUMPDEST PUSH1 0x0 DUP2 ISZERO ISZERO SWAP1 POP SWAP2 SWAP1 POP JUMP JUMPDEST PUSH1 0x0 PUSH32 0xFFFFFFFF00000000000000000000000000000000000000000000000000000000 DUP3 AND SWAP1 POP SWAP2 SWAP1 POP JUMP JUMPDEST PUSH1 0x0 PUSH20 0xFFFFFFFFFFFFFFFFFFFFFFFFFFFFFFFFFFFFFFFF DUP3 AND SWAP1 POP SWAP2 SWAP1 POP JUMP JUMPDEST PUSH1 0x0 DUP2 SWAP1 POP SWAP2 SWAP1 POP JUMP JUMPDEST PUSH1 0x0 PUSH2 0xBF1 DUP3 PUSH2 0xBF8 JUMP JUMPDEST SWAP1 POP SWAP2 SWAP1 POP JUMP JUMPDEST PUSH1 0x0 PUSH2 0xC03 DUP3 PUSH2 0xBBC JUMP JUMPDEST SWAP1 POP SWAP2 SWAP1 POP JUMP JUMPDEST DUP3 DUP2 DUP4 CALLDATACOPY PUSH1 0x0 DUP4 DUP4 ADD MSTORE POP POP POP JUMP JUMPDEST PUSH1 0x0 JUMPDEST DUP4 DUP2 LT ISZERO PUSH2 0xC37 JUMPI DUP1 DUP3 ADD MLOAD DUP2 DUP5 ADD MSTORE PUSH1 0x20 DUP2 ADD SWAP1 POP PUSH2 0xC1C JUMP JUMPDEST DUP4 DUP2 GT ISZERO PUSH2 0xC46 JUMPI PUSH1 0x0 DUP5 DUP5 ADD MSTORE JUMPDEST POP POP POP POP JUMP JUMPDEST PUSH32 0x4E487B7100000000000000000000000000000000000000000000000000000000 PUSH1 0x0 MSTORE PUSH1 0x11 PUSH1 0x4 MSTORE PUSH1 0x24 PUSH1 0x0 REVERT JUMPDEST PUSH1 0x0 PUSH1 0x1F NOT PUSH1 0x1F DUP4 ADD AND SWAP1 POP SWAP2 SWAP1 POP JUMP JUMPDEST PUSH2 0xC95 DUP2 PUSH2 0xB72 JUMP JUMPDEST DUP2 EQ PUSH2 0xCA0 JUMPI PUSH1 0x0 DUP1 REVERT JUMPDEST POP JUMP JUMPDEST PUSH2 0xCAC DUP2 PUSH2 0xB84 JUMP JUMPDEST DUP2 EQ PUSH2 0xCB7 JUMPI PUSH1 0x0 DUP1 REVERT JUMPDEST POP JUMP JUMPDEST PUSH2 0xCC3 DUP2 PUSH2 0xB90 JUMP JUMPDEST DUP2 EQ PUSH2 0xCCE JUMPI PUSH1 0x0 DUP1 REVERT JUMPDEST POP JUMP JUMPDEST PUSH2 0xCDA DUP2 PUSH2 0xBDC JUMP JUMPDEST DUP2 EQ PUSH2 0xCE5 JUMPI PUSH1 0x0 DUP1 REVERT JUMPDEST POP JUMP INVALID LOG2 PUSH5 0x6970667358 0x22 SLT KECCAK256 SHL 0xC8 SHL EXTCODEHASH 0x22 0x1F PUSH18 0xF481F9A4B315E4E681520CCB2039B82C255F GAS 0x1F CREATE SLOAD 0xB8 0x48 0xD2 PUSH5 0x736F6C6343 STOP ADDMOD STOP STOP CALLER PUSH1 0x80 PUSH1 0x40 MSTORE PUSH8 0x8AC7230489E80000 PUSH1 0x2 SSTORE CALLVALUE DUP1 ISZERO PUSH2 0x1C JUMPI PUSH1 0x0 DUP1 REVERT JUMPDEST POP PUSH1 0x2 SLOAD PUSH1 0x0 DUP1 CALLER PUSH20 0xFFFFFFFFFFFFFFFFFFFFFFFFFFFFFFFFFFFFFFFF AND PUSH20 0xFFFFFFFFFFFFFFFFFFFFFFFFFFFFFFFFFFFFFFFF AND DUP2 MSTORE PUSH1 0x20 ADD SWAP1 DUP2 MSTORE PUSH1 0x20 ADD PUSH1 0x0 KECCAK256 DUP2 SWAP1 SSTORE POP PUSH2 0xD41 DUP1 PUSH2 0x71 PUSH1 0x0 CODECOPY PUSH1 0x0 RETURN INVALID PUSH1 0x80 PUSH1 0x40 MSTORE CALLVALUE DUP1 ISZERO PUSH2 0x10 JUMPI PUSH1 0x0 DUP1 REVERT JUMPDEST POP PUSH1 0x4 CALLDATASIZE LT PUSH2 0x93 JUMPI PUSH1 0x0 CALLDATALOAD PUSH1 0xE0 SHR DUP1 PUSH4 0x313CE567 GT PUSH2 0x66 JUMPI DUP1 PUSH4 0x313CE567 EQ PUSH2 0x134 JUMPI DUP1 PUSH4 0x70A08231 EQ PUSH2 0x152 JUMPI DUP1 PUSH4 0x95D89B41 EQ PUSH2 0x182 JUMPI DUP1 PUSH4 0xA9059CBB EQ PUSH2 0x1A0 JUMPI DUP1 PUSH4 0xDD62ED3E EQ PUSH2 0x1D0 JUMPI PUSH2 0x93 JUMP JUMPDEST DUP1 PUSH4 0x6FDDE03 EQ PUSH2 0x98 JUMPI DUP1 PUSH4 0x95EA7B3 EQ PUSH2 0xB6 JUMPI DUP1 PUSH4 0x18160DDD EQ PUSH2 0xE6 JUMPI DUP1 PUSH4 0x23B872DD EQ PUSH2 0x104 JUMPI JUMPDEST PUSH1 0x0 DUP1 REVERT JUMPDEST PUSH2 0xA0 PUSH2 0x200 JUMP JUMPDEST PUSH1 0x40 MLOAD PUSH2 0xAD SWAP2 SWAP1 PUSH2 0xB17 JUMP JUMPDEST PUSH1 0x40 MLOAD DUP1 SWAP2 SUB SWAP1 RETURN JUMPDEST PUSH2 0xD0 PUSH1 0x4 DUP1 CALLDATASIZE SUB DUP2 ADD SWAP1 PUSH2 0xCB SWAP2 SWAP1 PUSH2 0xA5A JUMP JUMPDEST PUSH2 0x239 JUMP JUMPDEST PUSH1 0x40 MLOAD PUSH2 0xDD SWAP2 SWAP1 PUSH2 0xAFC JUMP JUMPDEST PUSH1 0x40 MLOAD DUP1 SWAP2 SUB SWAP1 RETURN JUMPDEST PUSH2 0xEE PUSH2 0x32B JUMP JUMPDEST PUSH1 0x40 MLOAD PUSH2 0xFB SWAP2 SWAP1 PUSH2 0xB39 JUMP JUMPDEST PUSH1 0x40 MLOAD DUP1 SWAP2 SUB SWAP1 RETURN JUMPDEST PUSH2 0x11E PUSH1 0x4 DUP1 CALLDATASIZE SUB DUP2 ADD SWAP1 PUSH2 0x119 SWAP2 SWAP1 PUSH2 0xA0B JUMP JUMPDEST PUSH2 0x335 JUMP JUMPDEST PUSH1 0x40 MLOAD PUSH2 0x12B SWAP2 SWAP1 PUSH2 0xAFC JUMP JUMPDEST PUSH1 0x40 MLOAD DUP1 SWAP2 SUB SWAP1 RETURN JUMPDEST PUSH2 0x13C PUSH2 0x69B JUMP JUMPDEST PUSH1 0x40 MLOAD PUSH2 0x149 SWAP2 SWAP1 PUSH2 0xB54 JUMP JUMPDEST PUSH1 0x40 MLOAD DUP1 SWAP2 SUB SWAP1 RETURN JUMPDEST PUSH2 0x16C PUSH1 0x4 DUP1 CALLDATASIZE SUB DUP2 ADD SWAP1 PUSH2 0x167 SWAP2 SWAP1 PUSH2 0x9A6 JUMP JUMPDEST PUSH2 0x6A0 JUMP JUMPDEST PUSH1 0x40 MLOAD PUSH2 0x179 SWAP2 SWAP1 PUSH2 0xB39 JUMP JUMPDEST PUSH1 0x40 MLOAD DUP1 SWAP2 SUB SWAP1 RETURN JUMPDEST PUSH2 0x18A PUSH2 0x6E8 JUMP JUMPDEST PUSH1 0x40 MLOAD PUSH2 0x197 SWAP2 SWAP1 PUSH2 0xB17 JUMP JUMPDEST PUSH1 0x40 MLOAD DUP1 SWAP2 SUB SWAP1 RETURN JUMPDEST PUSH2 0x1BA PUSH1 0x4 DUP1 CALLDATASIZE SUB DUP2 ADD SWAP1 PUSH2 0x1B5 SWAP2 SWAP1 PUSH2 0xA5A JUMP JUMPDEST PUSH2 0x721 JUMP JUMPDEST PUSH1 0x40 MLOAD PUSH2 0x1C7 SWAP2 SWAP1 PUSH2 0xAFC JUMP JUMPDEST PUSH1 0x40 MLOAD DUP1 SWAP2 SUB SWAP1 RETURN JUMPDEST PUSH2 0x1EA PUSH1 0x4 DUP1 CALLDATASIZE SUB DUP2 ADD SWAP1 PUSH2 0x1E5 SWAP2 SWAP1 PUSH2 0x9CF JUMP JUMPDEST PUSH2 0x8F5 JUMP JUMPDEST PUSH1 0x40 MLOAD PUSH2 0x1F7 SWAP2 SWAP1 PUSH2 0xB39 JUMP JUMPDEST PUSH1 0x40 MLOAD DUP1 SWAP2 SUB SWAP1 RETURN JUMPDEST PUSH1 0x40 MLOAD DUP1 PUSH1 0x40 ADD PUSH1 0x40 MSTORE DUP1 PUSH1 0x5 DUP2 MSTORE PUSH1 0x20 ADD PUSH32 0x4552433230000000000000000000000000000000000000000000000000000000 DUP2 MSTORE POP DUP2 JUMP JUMPDEST PUSH1 0x0 DUP2 PUSH1 0x1 PUSH1 0x0 CALLER PUSH20 0xFFFFFFFFFFFFFFFFFFFFFFFFFFFFFFFFFFFFFFFF AND PUSH20 0xFFFFFFFFFFFFFFFFFFFFFFFFFFFFFFFFFFFFFFFF AND DUP2 MSTORE PUSH1 0x20 ADD SWAP1 DUP2 MSTORE PUSH1 0x20 ADD PUSH1 0x0 KECCAK256 PUSH1 0x0 DUP6 PUSH20 0xFFFFFFFFFFFFFFFFFFFFFFFFFFFFFFFFFFFFFFFF AND PUSH20 0xFFFFFFFFFFFFFFFFFFFFFFFFFFFFFFFFFFFFFFFF AND DUP2 MSTORE PUSH1 0x20 ADD SWAP1 DUP2 MSTORE PUSH1 0x20 ADD PUSH1 0x0 KECCAK256 DUP2 SWAP1 SSTORE POP DUP3 PUSH20 0xFFFFFFFFFFFFFFFFFFFFFFFFFFFFFFFFFFFFFFFF AND CALLER PUSH20 0xFFFFFFFFFFFFFFFFFFFFFFFFFFFFFFFFFFFFFFFF AND PUSH32 0x8C5BE1E5EBEC7D5BD14F71427D1E84F3DD0314C0F7B2291E5B200AC8C7C3B925 DUP5 PUSH1 0x40 MLOAD PUSH2 0x319 SWAP2 SWAP1 PUSH2 0xB39 JUMP JUMPDEST PUSH1 0x40 MLOAD DUP1 SWAP2 SUB SWAP1 LOG3 PUSH1 0x1 SWAP1 POP SWAP3 SWAP2 POP POP JUMP JUMPDEST PUSH1 0x0 PUSH1 0x2 SLOAD SWAP1 POP SWAP1 JUMP JUMPDEST PUSH1 0x0 DUP1 PUSH1 0x0 DUP6 PUSH20 0xFFFFFFFFFFFFFFFFFFFFFFFFFFFFFFFFFFFFFFFF AND PUSH20 0xFFFFFFFFFFFFFFFFFFFFFFFFFFFFFFFFFFFFFFFF AND DUP2 MSTORE PUSH1 0x20 ADD SWAP1 DUP2 MSTORE PUSH1 0x20 ADD PUSH1 0x0 KECCAK256 SLOAD DUP3 GT ISZERO PUSH2 0x382 JUMPI PUSH1 0x0 DUP1 REVERT JUMPDEST PUSH1 0x1 PUSH1 0x0 DUP6 PUSH20 0xFFFFFFFFFFFFFFFFFFFFFFFFFFFFFFFFFFFFFFFF AND PUSH20 0xFFFFFFFFFFFFFFFFFFFFFFFFFFFFFFFFFFFFFFFF AND DUP2 MSTORE PUSH1 0x20 ADD SWAP1 DUP2 MSTORE PUSH1 0x20 ADD PUSH1 0x0 KECCAK256 PUSH1 0x0 CALLER PUSH20 0xFFFFFFFFFFFFFFFFFFFFFFFFFFFFFFFFFFFFFFFF AND PUSH20 0xFFFFFFFFFFFFFFFFFFFFFFFFFFFFFFFFFFFFFFFF AND DUP2 MSTORE PUSH1 0x20 ADD SWAP1 DUP2 MSTORE PUSH1 0x20 ADD PUSH1 0x0 KECCAK256 SLOAD DUP3 GT ISZERO PUSH2 0x40B JUMPI PUSH1 0x0 DUP1 REVERT JUMPDEST DUP2 PUSH1 0x0 DUP1 DUP7 PUSH20 0xFFFFFFFFFFFFFFFFFFFFFFFFFFFFFFFFFFFFFFFF AND PUSH20 0xFFFFFFFFFFFFFFFFFFFFFFFFFFFFFFFFFFFFFFFF AND DUP2 MSTORE PUSH1 0x20 ADD SWAP1 DUP2 MSTORE PUSH1 0x20 ADD PUSH1 0x0 KECCAK256 SLOAD PUSH2 0x455 SWAP2 SWAP1 PUSH2 0xBE1 JUMP JUMPDEST PUSH1 0x0 DUP1 DUP7 PUSH20 0xFFFFFFFFFFFFFFFFFFFFFFFFFFFFFFFFFFFFFFFF AND PUSH20 0xFFFFFFFFFFFFFFFFFFFFFFFFFFFFFFFFFFFFFFFF AND DUP2 MSTORE PUSH1 0x20 ADD SWAP1 DUP2 MSTORE PUSH1 0x20 ADD PUSH1 0x0 KECCAK256 DUP2 SWAP1 SSTORE POP DUP2 PUSH1 0x1 PUSH1 0x0 DUP7 PUSH20 0xFFFFFFFFFFFFFFFFFFFFFFFFFFFFFFFFFFFFFFFF AND PUSH20 0xFFFFFFFFFFFFFFFFFFFFFFFFFFFFFFFFFFFFFFFF AND DUP2 MSTORE PUSH1 0x20 ADD SWAP1 DUP2 MSTORE PUSH1 0x20 ADD PUSH1 0x0 KECCAK256 PUSH1 0x0 CALLER PUSH20 0xFFFFFFFFFFFFFFFFFFFFFFFFFFFFFFFFFFFFFFFF AND PUSH20 0xFFFFFFFFFFFFFFFFFFFFFFFFFFFFFFFFFFFFFFFF AND DUP2 MSTORE PUSH1 0x20 ADD SWAP1 DUP2 MSTORE PUSH1 0x20 ADD PUSH1 0x0 KECCAK256 SLOAD PUSH2 0x51F SWAP2 SWAP1 PUSH2 0xBE1 JUMP JUMPDEST PUSH1 0x1 PUSH1 0x0 DUP7 PUSH20 0xFFFFFFFFFFFFFFFFFFFFFFFFFFFFFFFFFFFFFFFF AND PUSH20 0xFFFFFFFFFFFFFFFFFFFFFFFFFFFFFFFFFFFFFFFF AND DUP2 MSTORE PUSH1 0x20 ADD SWAP1 DUP2 MSTORE PUSH1 0x20 ADD PUSH1 0x0 KECCAK256 PUSH1 0x0 CALLER PUSH20 0xFFFFFFFFFFFFFFFFFFFFFFFFFFFFFFFFFFFFFFFF AND PUSH20 0xFFFFFFFFFFFFFFFFFFFFFFFFFFFFFFFFFFFFFFFF AND DUP2 MSTORE PUSH1 0x20 ADD SWAP1 DUP2 MSTORE PUSH1 0x20 ADD PUSH1 0x0 KECCAK256 DUP2 SWAP1 SSTORE POP DUP2 PUSH1 0x0 DUP1 DUP6 PUSH20 0xFFFFFFFFFFFFFFFFFFFFFFFFFFFFFFFFFFFFFFFF AND PUSH20 0xFFFFFFFFFFFFFFFFFFFFFFFFFFFFFFFFFFFFFFFF AND DUP2 MSTORE PUSH1 0x20 ADD SWAP1 DUP2 MSTORE PUSH1 0x20 ADD PUSH1 0x0 KECCAK256 SLOAD PUSH2 0x5E9 SWAP2 SWAP1 PUSH2 0xB8B JUMP JUMPDEST PUSH1 0x0 DUP1 DUP6 PUSH20 0xFFFFFFFFFFFFFFFFFFFFFFFFFFFFFFFFFFFFFFFF AND PUSH20 0xFFFFFFFFFFFFFFFFFFFFFFFFFFFFFFFFFFFFFFFF AND DUP2 MSTORE PUSH1 0x20 ADD SWAP1 DUP2 MSTORE PUSH1 0x20 ADD PUSH1 0x0 KECCAK256 DUP2 SWAP1 SSTORE POP DUP3 PUSH20 0xFFFFFFFFFFFFFFFFFFFFFFFFFFFFFFFFFFFFFFFF AND DUP5 PUSH20 0xFFFFFFFFFFFFFFFFFFFFFFFFFFFFFFFFFFFFFFFF AND PUSH32 0xDDF252AD1BE2C89B69C2B068FC378DAA952BA7F163C4A11628F55A4DF523B3EF DUP5 PUSH1 0x40 MLOAD PUSH2 0x688 SWAP2 SWAP1 PUSH2 0xB39 JUMP JUMPDEST PUSH1 0x40 MLOAD DUP1 SWAP2 SUB SWAP1 LOG3 PUSH1 0x1 SWAP1 POP SWAP4 SWAP3 POP POP POP JUMP JUMPDEST PUSH1 0x12 DUP2 JUMP JUMPDEST PUSH1 0x0 DUP1 PUSH1 0x0 DUP4 PUSH20 0xFFFFFFFFFFFFFFFFFFFFFFFFFFFFFFFFFFFFFFFF AND PUSH20 0xFFFFFFFFFFFFFFFFFFFFFFFFFFFFFFFFFFFFFFFF AND DUP2 MSTORE PUSH1 0x20 ADD SWAP1 DUP2 MSTORE PUSH1 0x20 ADD PUSH1 0x0 KECCAK256 SLOAD SWAP1 POP SWAP2 SWAP1 POP JUMP JUMPDEST PUSH1 0x40 MLOAD DUP1 PUSH1 0x40 ADD PUSH1 0x40 MSTORE DUP1 PUSH1 0x3 DUP2 MSTORE PUSH1 0x20 ADD PUSH32 0x4552430000000000000000000000000000000000000000000000000000000000 DUP2 MSTORE POP DUP2 JUMP JUMPDEST PUSH1 0x0 DUP1 PUSH1 0x0 CALLER PUSH20 0xFFFFFFFFFFFFFFFFFFFFFFFFFFFFFFFFFFFFFFFF AND PUSH20 0xFFFFFFFFFFFFFFFFFFFFFFFFFFFFFFFFFFFFFFFF AND DUP2 MSTORE PUSH1 0x20 ADD SWAP1 DUP2 MSTORE PUSH1 0x20 ADD PUSH1 0x0 KECCAK256 SLOAD DUP3 GT ISZERO PUSH2 0x76E JUMPI PUSH1 0x0 DUP1 REVERT JUMPDEST DUP2 PUSH1 0x0 DUP1 CALLER PUSH20 0xFFFFFFFFFFFFFFFFFFFFFFFFFFFFFFFFFFFFFFFF AND PUSH20 0xFFFFFFFFFFFFFFFFFFFFFFFFFFFFFFFFFFFFFFFF AND DUP2 MSTORE PUSH1 0x20 ADD SWAP1 DUP2 MSTORE PUSH1 0x20 ADD PUSH1 0x0 KECCAK256 SLOAD PUSH2 0x7B8 SWAP2 SWAP1 PUSH2 0xBE1 JUMP JUMPDEST PUSH1 0x0 DUP1 CALLER PUSH20 0xFFFFFFFFFFFFFFFFFFFFFFFFFFFFFFFFFFFFFFFF AND PUSH20 0xFFFFFFFFFFFFFFFFFFFFFFFFFFFFFFFFFFFFFFFF AND DUP2 MSTORE PUSH1 0x20 ADD SWAP1 DUP2 MSTORE PUSH1 0x20 ADD PUSH1 0x0 KECCAK256 DUP2 SWAP1 SSTORE POP DUP2 PUSH1 0x0 DUP1 DUP6 PUSH20 0xFFFFFFFFFFFFFFFFFFFFFFFFFFFFFFFFFFFFFFFF AND PUSH20 0xFFFFFFFFFFFFFFFFFFFFFFFFFFFFFFFFFFFFFFFF AND DUP2 MSTORE PUSH1 0x20 ADD SWAP1 DUP2 MSTORE PUSH1 0x20 ADD PUSH1 0x0 KECCAK256 SLOAD PUSH2 0x844 SWAP2 SWAP1 PUSH2 0xB8B JUMP JUMPDEST PUSH1 0x0 DUP1 DUP6 PUSH20 0xFFFFFFFFFFFFFFFFFFFFFFFFFFFFFFFFFFFFFFFF AND PUSH20 0xFFFFFFFFFFFFFFFFFFFFFFFFFFFFFFFFFFFFFFFF AND DUP2 MSTORE PUSH1 0x20 ADD SWAP1 DUP2 MSTORE PUSH1 0x20 ADD PUSH1 0x0 KECCAK256 DUP2 SWAP1 SSTORE POP DUP3 PUSH20 0xFFFFFFFFFFFFFFFFFFFFFFFFFFFFFFFFFFFFFFFF AND CALLER PUSH20 0xFFFFFFFFFFFFFFFFFFFFFFFFFFFFFFFFFFFFFFFF AND PUSH32 0xDDF252AD1BE2C89B69C2B068FC378DAA952BA7F163C4A11628F55A4DF523B3EF DUP5 PUSH1 0x40 MLOAD PUSH2 0x8E3 SWAP2 SWAP1 PUSH2 0xB39 JUMP JUMPDEST PUSH1 0x40 MLOAD DUP1 SWAP2 SUB SWAP1 LOG3 PUSH1 0x1 SWAP1 POP SWAP3 SWAP2 POP POP JUMP JUMPDEST PUSH1 0x0 PUSH1 0x1 PUSH1 0x0 DUP5 PUSH20 0xFFFFFFFFFFFFFFFFFFFFFFFFFFFFFFFFFFFFFFFF AND PUSH20 0xFFFFFFFFFFFFFFFFFFFFFFFFFFFFFFFFFFFFFFFF AND DUP2 MSTORE PUSH1 0x20 ADD SWAP1 DUP2 MSTORE PUSH1 0x20 ADD PUSH1 0x0 KECCAK256 PUSH1 0x0 DUP4 PUSH20 0xFFFFFFFFFFFFFFFFFFFFFFFFFFFFFFFFFFFFFFFF AND PUSH20 0xFFFFFFFFFFFFFFFFFFFFFFFFFFFFFFFFFFFFFFFF AND DUP2 MSTORE PUSH1 0x20 ADD SWAP1 DUP2 MSTORE PUSH1 0x20 ADD PUSH1 0x0 KECCAK256 SLOAD SWAP1 POP SWAP3 SWAP2 POP POP JUMP JUMPDEST PUSH1 0x0 DUP2 CALLDATALOAD SWAP1 POP PUSH2 0x98B DUP2 PUSH2 0xCDD JUMP JUMPDEST SWAP3 SWAP2 POP POP JUMP JUMPDEST PUSH1 0x0 DUP2 CALLDATALOAD SWAP1 POP PUSH2 0x9A0 DUP2 PUSH2 0xCF4 JUMP JUMPDEST SWAP3 SWAP2 POP POP JUMP JUMPDEST PUSH1 0x0 PUSH1 0x20 DUP3 DUP5 SUB SLT ISZERO PUSH2 0x9B8 JUMPI PUSH1 0x0 DUP1 REVERT JUMPDEST PUSH1 0x0 PUSH2 0x9C6 DUP5 DUP3 DUP6 ADD PUSH2 0x97C JUMP JUMPDEST SWAP2 POP POP SWAP3 SWAP2 POP POP JUMP JUMPDEST PUSH1 0x0 DUP1 PUSH1 0x40 DUP4 DUP6 SUB SLT ISZERO PUSH2 0x9E2 JUMPI PUSH1 0x0 DUP1 REVERT JUMPDEST PUSH1 0x0 PUSH2 0x9F0 DUP6 DUP3 DUP7 ADD PUSH2 0x97C JUMP JUMPDEST SWAP3 POP POP PUSH1 0x20 PUSH2 0xA01 DUP6 DUP3 DUP7 ADD PUSH2 0x97C JUMP JUMPDEST SWAP2 POP POP SWAP3 POP SWAP3 SWAP1 POP JUMP JUMPDEST PUSH1 0x0 DUP1 PUSH1 0x0 PUSH1 0x60 DUP5 DUP7 SUB SLT ISZERO PUSH2 0xA20 JUMPI PUSH1 0x0 DUP1 REVERT JUMPDEST PUSH1 0x0 PUSH2 0xA2E DUP7 DUP3 DUP8 ADD PUSH2 0x97C JUMP JUMPDEST SWAP4 POP POP PUSH1 0x20 PUSH2 0xA3F DUP7 DUP3 DUP8 ADD PUSH2 0x97C JUMP JUMPDEST SWAP3 POP POP PUSH1 0x40 PUSH2 0xA50 DUP7 DUP3 DUP8 ADD PUSH2 0x991 JUMP JUMPDEST SWAP2 POP POP SWAP3 POP SWAP3 POP SWAP3 JUMP JUMPDEST PUSH1 0x0 DUP1 PUSH1 0x40 DUP4 DUP6 SUB SLT ISZERO PUSH2 0xA6D JUMPI PUSH1 0x0 DUP1 REVERT JUMPDEST PUSH1 0x0 PUSH2 0xA7B DUP6 DUP3 DUP7 ADD PUSH2 0x97C JUMP JUMPDEST SWAP3 POP POP PUSH1 0x20 PUSH2 0xA8C DUP6 DUP3 DUP7 ADD PUSH2 0x991 JUMP JUMPDEST SWAP2 POP POP SWAP3 POP SWAP3 SWAP1 POP JUMP JUMPDEST PUSH2 0xA9F DUP2 PUSH2 0xC27 JUMP JUMPDEST DUP3 MSTORE POP POP JUMP JUMPDEST PUSH1 0x0 PUSH2 0xAB0 DUP3 PUSH2 0xB6F JUMP JUMPDEST PUSH2 0xABA DUP2 DUP6 PUSH2 0xB7A JUMP JUMPDEST SWAP4 POP PUSH2 0xACA DUP2 DUP6 PUSH1 0x20 DUP7 ADD PUSH2 0xC6A JUMP JUMPDEST PUSH2 0xAD3 DUP2 PUSH2 0xCCC JUMP JUMPDEST DUP5 ADD SWAP2 POP POP SWAP3 SWAP2 POP POP JUMP JUMPDEST PUSH2 0xAE7 DUP2 PUSH2 0xC53 JUMP JUMPDEST DUP3 MSTORE POP POP JUMP JUMPDEST PUSH2 0xAF6 DUP2 PUSH2 0xC5D JUMP JUMPDEST DUP3 MSTORE POP POP JUMP JUMPDEST PUSH1 0x0 PUSH1 0x20 DUP3 ADD SWAP1 POP PUSH2 0xB11 PUSH1 0x0 DUP4 ADD DUP5 PUSH2 0xA96 JUMP JUMPDEST SWAP3 SWAP2 POP POP JUMP JUMPDEST PUSH1 0x0 PUSH1 0x20 DUP3 ADD SWAP1 POP DUP2 DUP2 SUB PUSH1 0x0 DUP4 ADD MSTORE PUSH2 0xB31 DUP2 DUP5 PUSH2 0xAA5 JUMP JUMPDEST SWAP1 POP SWAP3 SWAP2 POP POP JUMP JUMPDEST PUSH1 0x0 PUSH1 0x20 DUP3 ADD SWAP1 POP PUSH2 0xB4E PUSH1 0x0 DUP4 ADD DUP5 PUSH2 0xADE JUMP JUMPDEST SWAP3 SWAP2 POP POP JUMP JUMPDEST PUSH1 0x0 PUSH1 0x20 DUP3 ADD SWAP1 POP PUSH2 0xB69 PUSH1 0x0 DUP4 ADD DUP5 PUSH2 0xAED JUMP JUMPDEST SWAP3 SWAP2 POP POP JUMP JUMPDEST PUSH1 0x0 DUP2 MLOAD SWAP1 POP SWAP2 SWAP1 POP JUMP JUMPDEST PUSH1 0x0 DUP3 DUP3 MSTORE PUSH1 0x20 DUP3 ADD SWAP1 POP SWAP3 SWAP2 POP POP JUMP JUMPDEST PUSH1 0x0 PUSH2 0xB96 DUP3 PUSH2 0xC53 JUMP JUMPDEST SWAP2 POP PUSH2 0xBA1 DUP4 PUSH2 0xC53 JUMP JUMPDEST SWAP3 POP DUP3 PUSH32 0xFFFFFFFFFFFFFFFFFFFFFFFFFFFFFFFFFFFFFFFFFFFFFFFFFFFFFFFFFFFFFFFF SUB DUP3 GT ISZERO PUSH2 0xBD6 JUMPI PUSH2 0xBD5 PUSH2 0xC9D JUMP JUMPDEST JUMPDEST DUP3 DUP3 ADD SWAP1 POP SWAP3 SWAP2 POP POP JUMP JUMPDEST PUSH1 0x0 PUSH2 0xBEC DUP3 PUSH2 0xC53 JUMP JUMPDEST SWAP2 POP PUSH2 0xBF7 DUP4 PUSH2 0xC53 JUMP JUMPDEST SWAP3 POP DUP3 DUP3 LT ISZERO PUSH2 0xC0A JUMPI PUSH2 0xC09 PUSH2 0xC9D JUMP JUMPDEST JUMPDEST DUP3 DUP3 SUB SWAP1 POP SWAP3 SWAP2 POP POP JUMP JUMPDEST PUSH1 0x0 PUSH2 0xC20 DUP3 PUSH2 0xC33 JUMP JUMPDEST SWAP1 POP SWAP2 SWAP1 POP JUMP JUMPDEST PUSH1 0x0 DUP2 ISZERO ISZERO SWAP1 POP SWAP2 SWAP1 POP JUMP JUMPDEST PUSH1 0x0 PUSH20 0xFFFFFFFFFFFFFFFFFFFFFFFFFFFFFFFFFFFFFFFF DUP3 AND SWAP1 POP SWAP2 SWAP1 POP JUMP JUMPDEST PUSH1 0x0 DUP2 SWAP1 POP SWAP2 SWAP1 POP JUMP JUMPDEST PUSH1 0x0 PUSH1 0xFF DUP3 AND SWAP1 POP SWAP2 SWAP1 POP JUMP JUMPDEST PUSH1 0x0 JUMPDEST DUP4 DUP2 LT ISZERO PUSH2 0xC88 JUMPI DUP1 DUP3 ADD MLOAD DUP2 DUP5 ADD MSTORE PUSH1 0x20 DUP2 ADD SWAP1 POP PUSH2 0xC6D JUMP JUMPDEST DUP4 DUP2 GT ISZERO PUSH2 0xC97 JUMPI PUSH1 0x0 DUP5 DUP5 ADD MSTORE JUMPDEST POP POP POP POP JUMP JUMPDEST PUSH32 0x4E487B7100000000000000000000000000000000000000000000000000000000 PUSH1 0x0 MSTORE PUSH1 0x11 PUSH1 0x4 MSTORE PUSH1 0x24 PUSH1 0x0 REVERT JUMPDEST PUSH1 0x0 PUSH1 0x1F NOT PUSH1 0x1F DUP4 ADD AND SWAP1 POP SWAP2 SWAP1 POP JUMP JUMPDEST PUSH2 0xCE6 DUP2 PUSH2 0xC15 JUMP JUMPDEST DUP2 EQ PUSH2 0xCF1 JUMPI PUSH1 0x0 DUP1 REVERT JUMPDEST POP JUMP JUMPDEST PUSH2 0xCFD DUP2 PUSH2 0xC53 JUMP JUMPDEST DUP2 EQ PUSH2 0xD08 JUMPI PUSH1 0x0 DUP1 REVERT JUMPDEST POP JUMP INVALID LOG2 PUSH5 0x6970667358 0x22 SLT KECCAK256 0xB0 0xE 0xF6 0x25 0xB9 0xD0 0xF PUSH15 0xABFE7A81FB9804950A8A12AAA4E99E PUSH13 0xE45778F74BFA04A864736F6C63 NUMBER STOP ADDMOD STOP STOP CALLER "
				},
				"gasEstimates": {
					"creation": {
						"codeDepositCost": "671600",
						"executionCost": "infinite",
						"totalCost": "infinite"
					},
					"external": {
						"approveAndCall(address,uint256,bytes)": "infinite",
						"checkData(bytes4)": "688",
						"erc20()": "1276",
						"flashloan(address,address,uint256,uint256,bool,bytes)": "infinite",
						"isCompleted(bytes4)": "infinite",
						"score()": "1217"
					}
				},
				"methodIdentifiers": {
					"approveAndCall(address,uint256,bytes)": "cae9ca51",
					"checkData(bytes4)": "9f29381d",
					"erc20()": "785e9e86",
					"flashloan(address,address,uint256,uint256,bool,bytes)": "3e666d20",
					"isCompleted(bytes4)": "66a3fdb1",
					"score()": "efedc669"
				}
			},
			"storageLayout": {
				"storage": [
					{
						"astId": 357,
						"contract": "shoot/3/方法选择器的计算/1.sol:check",
						"label": "erc20",
						"offset": 0,
						"slot": "0",
						"type": "t_contract(ERC20)350"
					},
					{
						"astId": 359,
						"contract": "shoot/3/方法选择器的计算/1.sol:check",
						"label": "lock",
						"offset": 20,
						"slot": "0",
						"type": "t_bool"
					},
					{
						"astId": 635,
						"contract": "shoot/3/方法选择器的计算/1.sol:check",
						"label": "score",
						"offset": 0,
						"slot": "1",
						"type": "t_uint256"
					}
				],
				"types": {
					"t_bool": {
						"encoding": "inplace",
						"label": "bool",
						"numberOfBytes": "1"
					},
					"t_contract(ERC20)350": {
						"encoding": "inplace",
						"label": "contract ERC20",
						"numberOfBytes": "20"
					},
					"t_uint256": {
						"encoding": "inplace",
						"label": "uint256",
						"numberOfBytes": "32"
					}
				}
			},
			"userdoc": {
				"kind": "user",
				"methods": {},
				"version": 1
			}
		}
	}
}