{
	"data": {
		"bytecode": {
			"linkReferences": {},
			"object": "608060405234801561000f575f80fd5b506040516106b53803806106b5833981810160405281019061003191906100e5565b805f806101000a81548173ffffffffffffffffffffffffffffffffffffffff021916908373ffffffffffffffffffffffffffffffffffffffff16021790555050610110565b5f80fd5b5f73ffffffffffffffffffffffffffffffffffffffff82169050919050565b5f6100a38261007a565b9050919050565b5f6100b482610099565b9050919050565b6100c4816100aa565b81146100ce575f80fd5b50565b5f815190506100df816100bb565b92915050565b5f602082840312156100fa576100f9610076565b5b5f610107848285016100d1565b91505092915050565b6105988061011d5f395ff3fe608060405234801561000f575f80fd5b506004361061003f575f3560e01c806332f0a2391461004357806350f35753146100735780638e16c2ca1461007d575b5f80fd5b61005d6004803603810190610058919061029e565b6100ad565b60405161006a91906102f4565b60405180910390f35b61007b6100f8565b005b6100976004803603810190610092919061030d565b610220565b6040516100a491906102f4565b60405180910390f35b5f6003826100bb9190610365565b836040516020016100cc91906103c6565b604051602081830303815290604052805190602001205f1c6100ee91906103e0565b5f1b905092915050565b5f8054906101000a900473ffffffffffffffffffffffffffffffffffffffff1673ffffffffffffffffffffffffffffffffffffffff1663af81c5b9305f6040518363ffffffff1660e01b8152600401610152929190610494565b5f604051808303815f87803b158015610169575f80fd5b505af115801561017b573d5f803e3d5ffd5b505050505f8054906101000a900473ffffffffffffffffffffffffffffffffffffffff1673ffffffffffffffffffffffffffffffffffffffff1663f4a7fe276101c55f60016100ad565b6101cf6001610220565b6001306040518563ffffffff1660e01b81526004016101f194939291906104f4565b5f604051808303815f87803b158015610208575f80fd5b505af115801561021a573d5f803e3d5ffd5b50505050565b5f3073ffffffffffffffffffffffffffffffffffffffff168260405160200161024a929190610537565b604051602081830303815290604052805190602001209050919050565b5f80fd5b5f819050919050565b61027d8161026b565b8114610287575f80fd5b50565b5f8135905061029881610274565b92915050565b5f80604083850312156102b4576102b3610267565b5b5f6102c18582860161028a565b92505060206102d28582860161028a565b9150509250929050565b5f819050919050565b6102ee816102dc565b82525050565b5f6020820190506103075f8301846102e5565b92915050565b5f6020828403121561032257610321610267565b5b5f61032f8482850161028a565b91505092915050565b7f4e487b71000000000000000000000000000000000000000000000000000000005f52601160045260245ffd5b5f61036f8261026b565b915061037a8361026b565b92508282026103888161026b565b9150828204841483151761039f5761039e610338565b5b5092915050565b5f819050919050565b6103c06103bb8261026b565b6103a6565b82525050565b5f6103d182846103af565b60208201915081905092915050565b5f6103ea8261026b565b91506103f58361026b565b925082820190508082111561040d5761040c610338565b5b92915050565b5f73ffffffffffffffffffffffffffffffffffffffff82169050919050565b5f61043c82610413565b9050919050565b61044c81610432565b82525050565b5f819050919050565b5f819050919050565b5f61047e61047961047484610452565b61045b565b61026b565b9050919050565b61048e81610464565b82525050565b5f6040820190506104a75f830185610443565b6104b46020830184610485565b9392505050565b5f819050919050565b5f6104de6104d96104d4846104bb565b61045b565b61026b565b9050919050565b6104ee816104c4565b82525050565b5f6080820190506105075f8301876102e5565b61051460208301866102e5565b61052160408301856104e5565b61052e6060830184610443565b95945050505050565b5f61054282856103af565b60208201915061055282846103af565b602082019150819050939250505056fea2646970667358221220ede8fef49f41f86f37c0f0628f7d0c90b6144a25262996aa51d074074705b05164736f6c63430008140033",
			"opcodes": "PUSH1 0x80 PUSH1 0x40 MSTORE CALLVALUE DUP1 ISZERO PUSH2 0xF JUMPI PUSH0 DUP1 REVERT JUMPDEST POP PUSH1 0x40 MLOAD PUSH2 0x6B5 CODESIZE SUB DUP1 PUSH2 0x6B5 DUP4 CODECOPY DUP2 DUP2 ADD PUSH1 0x40 MSTORE DUP2 ADD SWAP1 PUSH2 0x31 SWAP2 SWAP1 PUSH2 0xE5 JUMP JUMPDEST DUP1 PUSH0 DUP1 PUSH2 0x100 EXP DUP2 SLOAD DUP2 PUSH20 0xFFFFFFFFFFFFFFFFFFFFFFFFFFFFFFFFFFFFFFFF MUL NOT AND SWAP1 DUP4 PUSH20 0xFFFFFFFFFFFFFFFFFFFFFFFFFFFFFFFFFFFFFFFF AND MUL OR SWAP1 SSTORE POP POP PUSH2 0x110 JUMP JUMPDEST PUSH0 DUP1 REVERT JUMPDEST PUSH0 PUSH20 0xFFFFFFFFFFFFFFFFFFFFFFFFFFFFFFFFFFFFFFFF DUP3 AND SWAP1 POP SWAP2 SWAP1 POP JUMP JUMPDEST PUSH0 PUSH2 0xA3 DUP3 PUSH2 0x7A JUMP JUMPDEST SWAP1 POP SWAP2 SWAP1 POP JUMP JUMPDEST PUSH0 PUSH2 0xB4 DUP3 PUSH2 0x99 JUMP JUMPDEST SWAP1 POP SWAP2 SWAP1 POP JUMP JUMPDEST PUSH2 0xC4 DUP2 PUSH2 0xAA JUMP JUMPDEST DUP2 EQ PUSH2 0xCE JUMPI PUSH0 DUP1 REVERT JUMPDEST POP JUMP JUMPDEST PUSH0 DUP2 MLOAD SWAP1 POP PUSH2 0xDF DUP2 PUSH2 0xBB JUMP JUMPDEST SWAP3 SWAP2 POP POP JUMP JUMPDEST PUSH0 PUSH1 0x20 DUP3 DUP5 SUB SLT ISZERO PUSH2 0xFA JUMPI PUSH2 0xF9 PUSH2 0x76 JUMP JUMPDEST JUMPDEST PUSH0 PUSH2 0x107 DUP5 DUP3 DUP6 ADD PUSH2 0xD1 JUMP JUMPDEST SWAP2 POP POP SWAP3 SWAP2 POP POP JUMP JUMPDEST PUSH2 0x598 DUP1 PUSH2 0x11D PUSH0 CODECOPY PUSH0 RETURN INVALID PUSH1 0x80 PUSH1 0x40 MSTORE CALLVALUE DUP1 ISZERO PUSH2 0xF JUMPI PUSH0 DUP1 REVERT JUMPDEST POP PUSH1 0x4 CALLDATASIZE LT PUSH2 0x3F JUMPI PUSH0 CALLDATALOAD PUSH1 0xE0 SHR DUP1 PUSH4 0x32F0A239 EQ PUSH2 0x43 JUMPI DUP1 PUSH4 0x50F35753 EQ PUSH2 0x73 JUMPI DUP1 PUSH4 0x8E16C2CA EQ PUSH2 0x7D JUMPI JUMPDEST PUSH0 DUP1 REVERT JUMPDEST PUSH2 0x5D PUSH1 0x4 DUP1 CALLDATASIZE SUB DUP2 ADD SWAP1 PUSH2 0x58 SWAP2 SWAP1 PUSH2 0x29E JUMP JUMPDEST PUSH2 0xAD JUMP JUMPDEST PUSH1 0x40 MLOAD PUSH2 0x6A SWAP2 SWAP1 PUSH2 0x2F4 JUMP JUMPDEST PUSH1 0x40 MLOAD DUP1 SWAP2 SUB SWAP1 RETURN JUMPDEST PUSH2 0x7B PUSH2 0xF8 JUMP JUMPDEST STOP JUMPDEST PUSH2 0x97 PUSH1 0x4 DUP1 CALLDATASIZE SUB DUP2 ADD SWAP1 PUSH2 0x92 SWAP2 SWAP1 PUSH2 0x30D JUMP JUMPDEST PUSH2 0x220 JUMP JUMPDEST PUSH1 0x40 MLOAD PUSH2 0xA4 SWAP2 SWAP1 PUSH2 0x2F4 JUMP JUMPDEST PUSH1 0x40 MLOAD DUP1 SWAP2 SUB SWAP1 RETURN JUMPDEST PUSH0 PUSH1 0x3 DUP3 PUSH2 0xBB SWAP2 SWAP1 PUSH2 0x365 JUMP JUMPDEST DUP4 PUSH1 0x40 MLOAD PUSH1 0x20 ADD PUSH2 0xCC SWAP2 SWAP1 PUSH2 0x3C6 JUMP JUMPDEST PUSH1 0x40 MLOAD PUSH1 0x20 DUP2 DUP4 SUB SUB DUP2 MSTORE SWAP1 PUSH1 0x40 MSTORE DUP1 MLOAD SWAP1 PUSH1 0x20 ADD KECCAK256 PUSH0 SHR PUSH2 0xEE SWAP2 SWAP1 PUSH2 0x3E0 JUMP JUMPDEST PUSH0 SHL SWAP1 POP SWAP3 SWAP2 POP POP JUMP JUMPDEST PUSH0 DUP1 SLOAD SWAP1 PUSH2 0x100 EXP SWAP1 DIV PUSH20 0xFFFFFFFFFFFFFFFFFFFFFFFFFFFFFFFFFFFFFFFF AND PUSH20 0xFFFFFFFFFFFFFFFFFFFFFFFFFFFFFFFFFFFFFFFF AND PUSH4 0xAF81C5B9 ADDRESS PUSH0 PUSH1 0x40 MLOAD DUP4 PUSH4 0xFFFFFFFF AND PUSH1 0xE0 SHL DUP2 MSTORE PUSH1 0x4 ADD PUSH2 0x152 SWAP3 SWAP2 SWAP1 PUSH2 0x494 JUMP JUMPDEST PUSH0 PUSH1 0x40 MLOAD DUP1 DUP4 SUB DUP2 PUSH0 DUP8 DUP1 EXTCODESIZE ISZERO DUP1 ISZERO PUSH2 0x169 JUMPI PUSH0 DUP1 REVERT JUMPDEST POP GAS CALL ISZERO DUP1 ISZERO PUSH2 0x17B JUMPI RETURNDATASIZE PUSH0 DUP1 RETURNDATACOPY RETURNDATASIZE PUSH0 REVERT JUMPDEST POP POP POP POP PUSH0 DUP1 SLOAD SWAP1 PUSH2 0x100 EXP SWAP1 DIV PUSH20 0xFFFFFFFFFFFFFFFFFFFFFFFFFFFFFFFFFFFFFFFF AND PUSH20 0xFFFFFFFFFFFFFFFFFFFFFFFFFFFFFFFFFFFFFFFF AND PUSH4 0xF4A7FE27 PUSH2 0x1C5 PUSH0 PUSH1 0x1 PUSH2 0xAD JUMP JUMPDEST PUSH2 0x1CF PUSH1 0x1 PUSH2 0x220 JUMP JUMPDEST PUSH1 0x1 ADDRESS PUSH1 0x40 MLOAD DUP6 PUSH4 0xFFFFFFFF AND PUSH1 0xE0 SHL DUP2 MSTORE PUSH1 0x4 ADD PUSH2 0x1F1 SWAP5 SWAP4 SWAP3 SWAP2 SWAP1 PUSH2 0x4F4 JUMP JUMPDEST PUSH0 PUSH1 0x40 MLOAD DUP1 DUP4 SUB DUP2 PUSH0 DUP8 DUP1 EXTCODESIZE ISZERO DUP1 ISZERO PUSH2 0x208 JUMPI PUSH0 DUP1 REVERT JUMPDEST POP GAS CALL ISZERO DUP1 ISZERO PUSH2 0x21A JUMPI RETURNDATASIZE PUSH0 DUP1 RETURNDATACOPY RETURNDATASIZE PUSH0 REVERT JUMPDEST POP POP POP POP JUMP JUMPDEST PUSH0 ADDRESS PUSH20 0xFFFFFFFFFFFFFFFFFFFFFFFFFFFFFFFFFFFFFFFF AND DUP3 PUSH1 0x40 MLOAD PUSH1 0x20 ADD PUSH2 0x24A SWAP3 SWAP2 SWAP1 PUSH2 0x537 JUMP JUMPDEST PUSH1 0x40 MLOAD PUSH1 0x20 DUP2 DUP4 SUB SUB DUP2 MSTORE SWAP1 PUSH1 0x40 MSTORE DUP1 MLOAD SWAP1 PUSH1 0x20 ADD KECCAK256 SWAP1 POP SWAP2 SWAP1 POP JUMP JUMPDEST PUSH0 DUP1 REVERT JUMPDEST PUSH0 DUP2 SWAP1 POP SWAP2 SWAP1 POP JUMP JUMPDEST PUSH2 0x27D DUP2 PUSH2 0x26B JUMP JUMPDEST DUP2 EQ PUSH2 0x287 JUMPI PUSH0 DUP1 REVERT JUMPDEST POP JUMP JUMPDEST PUSH0 DUP2 CALLDATALOAD SWAP1 POP PUSH2 0x298 DUP2 PUSH2 0x274 JUMP JUMPDEST SWAP3 SWAP2 POP POP JUMP JUMPDEST PUSH0 DUP1 PUSH1 0x40 DUP4 DUP6 SUB SLT ISZERO PUSH2 0x2B4 JUMPI PUSH2 0x2B3 PUSH2 0x267 JUMP JUMPDEST JUMPDEST PUSH0 PUSH2 0x2C1 DUP6 DUP3 DUP7 ADD PUSH2 0x28A JUMP JUMPDEST SWAP3 POP POP PUSH1 0x20 PUSH2 0x2D2 DUP6 DUP3 DUP7 ADD PUSH2 0x28A JUMP JUMPDEST SWAP2 POP POP SWAP3 POP SWAP3 SWAP1 POP JUMP JUMPDEST PUSH0 DUP2 SWAP1 POP SWAP2 SWAP1 POP JUMP JUMPDEST PUSH2 0x2EE DUP2 PUSH2 0x2DC JUMP JUMPDEST DUP3 MSTORE POP POP JUMP JUMPDEST PUSH0 PUSH1 0x20 DUP3 ADD SWAP1 POP PUSH2 0x307 PUSH0 DUP4 ADD DUP5 PUSH2 0x2E5 JUMP JUMPDEST SWAP3 SWAP2 POP POP JUMP JUMPDEST PUSH0 PUSH1 0x20 DUP3 DUP5 SUB SLT ISZERO PUSH2 0x322 JUMPI PUSH2 0x321 PUSH2 0x267 JUMP JUMPDEST JUMPDEST PUSH0 PUSH2 0x32F DUP5 DUP3 DUP6 ADD PUSH2 0x28A JUMP JUMPDEST SWAP2 POP POP SWAP3 SWAP2 POP POP JUMP JUMPDEST PUSH32 0x4E487B7100000000000000000000000000000000000000000000000000000000 PUSH0 MSTORE PUSH1 0x11 PUSH1 0x4 MSTORE PUSH1 0x24 PUSH0 REVERT JUMPDEST PUSH0 PUSH2 0x36F DUP3 PUSH2 0x26B JUMP JUMPDEST SWAP2 POP PUSH2 0x37A DUP4 PUSH2 0x26B JUMP JUMPDEST SWAP3 POP DUP3 DUP3 MUL PUSH2 0x388 DUP2 PUSH2 0x26B JUMP JUMPDEST SWAP2 POP DUP3 DUP3 DIV DUP5 EQ DUP4 ISZERO OR PUSH2 0x39F JUMPI PUSH2 0x39E PUSH2 0x338 JUMP JUMPDEST JUMPDEST POP SWAP3 SWAP2 POP POP JUMP JUMPDEST PUSH0 DUP2 SWAP1 POP SWAP2 SWAP1 POP JUMP JUMPDEST PUSH2 0x3C0 PUSH2 0x3BB DUP3 PUSH2 0x26B JUMP JUMPDEST PUSH2 0x3A6 JUMP JUMPDEST DUP3 MSTORE POP POP JUMP JUMPDEST PUSH0 PUSH2 0x3D1 DUP3 DUP5 PUSH2 0x3AF JUMP JUMPDEST PUSH1 0x20 DUP3 ADD SWAP2 POP DUP2 SWAP1 POP SWAP3 SWAP2 POP POP JUMP JUMPDEST PUSH0 PUSH2 0x3EA DUP3 PUSH2 0x26B JUMP JUMPDEST SWAP2 POP PUSH2 0x3F5 DUP4 PUSH2 0x26B JUMP JUMPDEST SWAP3 POP DUP3 DUP3 ADD SWAP1 POP DUP1 DUP3 GT ISZERO PUSH2 0x40D JUMPI PUSH2 0x40C PUSH2 0x338 JUMP JUMPDEST JUMPDEST SWAP3 SWAP2 POP POP JUMP JUMPDEST PUSH0 PUSH20 0xFFFFFFFFFFFFFFFFFFFFFFFFFFFFFFFFFFFFFFFF DUP3 AND SWAP1 POP SWAP2 SWAP1 POP JUMP JUMPDEST PUSH0 PUSH2 0x43C DUP3 PUSH2 0x413 JUMP JUMPDEST SWAP1 POP SWAP2 SWAP1 POP JUMP JUMPDEST PUSH2 0x44C DUP2 PUSH2 0x432 JUMP JUMPDEST DUP3 MSTORE POP POP JUMP JUMPDEST PUSH0 DUP2 SWAP1 POP SWAP2 SWAP1 POP JUMP JUMPDEST PUSH0 DUP2 SWAP1 POP SWAP2 SWAP1 POP JUMP JUMPDEST PUSH0 PUSH2 0x47E PUSH2 0x479 PUSH2 0x474 DUP5 PUSH2 0x452 JUMP JUMPDEST PUSH2 0x45B JUMP JUMPDEST PUSH2 0x26B JUMP JUMPDEST SWAP1 POP SWAP2 SWAP1 POP JUMP JUMPDEST PUSH2 0x48E DUP2 PUSH2 0x464 JUMP JUMPDEST DUP3 MSTORE POP POP JUMP JUMPDEST PUSH0 PUSH1 0x40 DUP3 ADD SWAP1 POP PUSH2 0x4A7 PUSH0 DUP4 ADD DUP6 PUSH2 0x443 JUMP JUMPDEST PUSH2 0x4B4 PUSH1 0x20 DUP4 ADD DUP5 PUSH2 0x485 JUMP JUMPDEST SWAP4 SWAP3 POP POP POP JUMP JUMPDEST PUSH0 DUP2 SWAP1 POP SWAP2 SWAP1 POP JUMP JUMPDEST PUSH0 PUSH2 0x4DE PUSH2 0x4D9 PUSH2 0x4D4 DUP5 PUSH2 0x4BB JUMP JUMPDEST PUSH2 0x45B JUMP JUMPDEST PUSH2 0x26B JUMP JUMPDEST SWAP1 POP SWAP2 SWAP1 POP JUMP JUMPDEST PUSH2 0x4EE DUP2 PUSH2 0x4C4 JUMP JUMPDEST DUP3 MSTORE POP POP JUMP JUMPDEST PUSH0 PUSH1 0x80 DUP3 ADD SWAP1 POP PUSH2 0x507 PUSH0 DUP4 ADD DUP8 PUSH2 0x2E5 JUMP JUMPDEST PUSH2 0x514 PUSH1 0x20 DUP4 ADD DUP7 PUSH2 0x2E5 JUMP JUMPDEST PUSH2 0x521 PUSH1 0x40 DUP4 ADD DUP6 PUSH2 0x4E5 JUMP JUMPDEST PUSH2 0x52E PUSH1 0x60 DUP4 ADD DUP5 PUSH2 0x443 JUMP JUMPDEST SWAP6 SWAP5 POP POP POP POP POP JUMP JUMPDEST PUSH0 PUSH2 0x542 DUP3 DUP6 PUSH2 0x3AF JUMP JUMPDEST PUSH1 0x20 DUP3 ADD SWAP2 POP PUSH2 0x552 DUP3 DUP5 PUSH2 0x3AF JUMP JUMPDEST PUSH1 0x20 DUP3 ADD SWAP2 POP DUP2 SWAP1 POP SWAP4 SWAP3 POP POP POP JUMP INVALID LOG2 PUSH5 0x6970667358 0x22 SLT KECCAK256 0xED 0xE8 INVALID DELEGATECALL SWAP16 COINBASE 0xF8 PUSH16 0x37C0F0628F7D0C90B6144A25262996AA MLOAD 0xD0 PUSH21 0x74705B05164736F6C634300081400330000000000 "
		},
		"gasEstimates": {
			"creation": {
				"codeDepositCost": "286400",
				"executionCost": "infinite",
				"totalCost": "infinite"
			},
			"external": {
				"attract()": "infinite",
				"getMapslot(uint256)": "infinite",
				"getTokensslot(uint256,uint256)": "infinite"
			}
		},
		"methodIdentifiers": {
			"attract()": "50f35753",
			"getMapslot(uint256)": "8e16c2ca",
			"getTokensslot(uint256,uint256)": "32f0a239"
		}
	},
	"abi": [
		{
			"inputs": [
				{
					"internalType": "contract array",
					"name": "addr",
					"type": "address"
				}
			],
			"stateMutability": "nonpayable",
			"type": "constructor"
		},
		{
			"inputs": [],
			"name": "attract",
			"outputs": [],
			"stateMutability": "nonpayable",
			"type": "function"
		},
		{
			"inputs": [
				{
					"internalType": "uint256",
					"name": "x",
					"type": "uint256"
				}
			],
			"name": "getMapslot",
			"outputs": [
				{
					"internalType": "bytes32",
					"name": "",
					"type": "bytes32"
				}
			],
			"stateMutability": "view",
			"type": "function"
		},
		{
			"inputs": [
				{
					"internalType": "uint256",
					"name": "slot",
					"type": "uint256"
				},
				{
					"internalType": "uint256",
					"name": "index",
					"type": "uint256"
				}
			],
			"name": "getTokensslot",
			"outputs": [
				{
					"internalType": "bytes32",
					"name": "",
					"type": "bytes32"
				}
			],
			"stateMutability": "pure",
			"type": "function"
		}
	]
}