{
	"shoot/3/create_create2计算/1.sol": {
		"att": {
			"abi": [
				{
					"inputs": [
						{
							"internalType": "contract check",
							"name": "addr",
							"type": "address"
						}
					],
					"stateMutability": "nonpayable",
					"type": "constructor"
				},
				{
					"stateMutability": "payable",
					"type": "fallback"
				},
				{
					"inputs": [],
					"name": "attract",
					"outputs": [],
					"stateMutability": "payable",
					"type": "function"
				},
				{
					"inputs": [],
					"name": "cuit",
					"outputs": [
						{
							"internalType": "bool",
							"name": "",
							"type": "bool"
						}
					],
					"stateMutability": "nonpayable",
					"type": "function"
				},
				{
					"inputs": [],
					"name": "getbytes2",
					"outputs": [],
					"stateMutability": "nonpayable",
					"type": "function"
				},
				{
					"inputs": [],
					"name": "getbytes3",
					"outputs": [
						{
							"internalType": "bytes32",
							"name": "",
							"type": "bytes32"
						}
					],
					"stateMutability": "view",
					"type": "function"
				},
				{
					"inputs": [],
					"name": "getdeployeraddress",
					"outputs": [
						{
							"internalType": "address",
							"name": "",
							"type": "address"
						}
					],
					"stateMutability": "view",
					"type": "function"
				},
				{
					"inputs": [
						{
							"internalType": "bytes32",
							"name": "salt1",
							"type": "bytes32"
						}
					],
					"name": "getdeployerbytes",
					"outputs": [
						{
							"internalType": "bytes",
							"name": "",
							"type": "bytes"
						}
					],
					"stateMutability": "view",
					"type": "function"
				},
				{
					"inputs": [],
					"name": "getdisposaladdress",
					"outputs": [
						{
							"internalType": "address",
							"name": "",
							"type": "address"
						}
					],
					"stateMutability": "view",
					"type": "function"
				},
				{
					"inputs": [
						{
							"internalType": "address",
							"name": "addr",
							"type": "address"
						}
					],
					"name": "getdisposalbytes",
					"outputs": [
						{
							"internalType": "bytes",
							"name": "",
							"type": "bytes"
						}
					],
					"stateMutability": "view",
					"type": "function"
				},
				{
					"inputs": [],
					"name": "salt",
					"outputs": [
						{
							"internalType": "bytes32",
							"name": "",
							"type": "bytes32"
						}
					],
					"stateMutability": "view",
					"type": "function"
				},
				{
					"stateMutability": "payable",
					"type": "receive"
				}
			],
			"devdoc": {
				"kind": "dev",
				"methods": {},
				"version": 1
			},
			"evm": {
				"assembly": "    /* \"shoot/3/create_create2\\xe8\\xae\\xa1\\xe7\\xae\\x97/1.sol\":1486:3585  contract att{... */\n  mstore(0x40, 0x80)\n    /* \"shoot/3/create_create2\\xe8\\xae\\xa1\\xe7\\xae\\x97/1.sol\":1565:1650  constructor(check addr ) public {... */\n  callvalue\n  dup1\n  iszero\n  tag_1\n  jumpi\n  0x00\n  dup1\n  revert\ntag_1:\n  pop\n  mload(0x40)\n  sub(codesize, bytecodeSize)\n  dup1\n  bytecodeSize\n  dup4\n  codecopy\n  dup2\n  dup2\n  add\n  0x40\n  mstore\n  dup2\n  add\n  swap1\n  tag_2\n  swap2\n  swap1\n  tag_3\n  jump\t// in\ntag_2:\n    /* \"shoot/3/create_create2\\xe8\\xae\\xa1\\xe7\\xae\\x97/1.sol\":1614:1618  addr */\n  dup1\n    /* \"shoot/3/create_create2\\xe8\\xae\\xa1\\xe7\\xae\\x97/1.sol\":1608:1611  che */\n  0x00\n  dup1\n    /* \"shoot/3/create_create2\\xe8\\xae\\xa1\\xe7\\xae\\x97/1.sol\":1608:1618  che = addr */\n  0x0100\n  exp\n  dup2\n  sload\n  dup2\n  0xffffffffffffffffffffffffffffffffffffffff\n  mul\n  not\n  and\n  swap1\n  dup4\n  0xffffffffffffffffffffffffffffffffffffffff\n  and\n  mul\n  or\n  swap1\n  sstore\n  pop\n    /* \"shoot/3/create_create2\\xe8\\xae\\xa1\\xe7\\xae\\x97/1.sol\":1565:1650  constructor(check addr ) public {... */\n  pop\n    /* \"shoot/3/create_create2\\xe8\\xae\\xa1\\xe7\\xae\\x97/1.sol\":1486:3585  contract att{... */\n  jump(tag_6)\n    /* \"#utility.yul\":88:205   */\ntag_8:\n    /* \"#utility.yul\":197:198   */\n  0x00\n    /* \"#utility.yul\":194:195   */\n  dup1\n    /* \"#utility.yul\":187:199   */\n  revert\n    /* \"#utility.yul\":334:460   */\ntag_10:\n    /* \"#utility.yul\":371:378   */\n  0x00\n    /* \"#utility.yul\":411:453   */\n  0xffffffffffffffffffffffffffffffffffffffff\n    /* \"#utility.yul\":404:409   */\n  dup3\n    /* \"#utility.yul\":400:454   */\n  and\n    /* \"#utility.yul\":389:454   */\n  swap1\n  pop\n    /* \"#utility.yul\":334:460   */\n  swap2\n  swap1\n  pop\n  jump\t// out\n    /* \"#utility.yul\":466:562   */\ntag_11:\n    /* \"#utility.yul\":503:510   */\n  0x00\n    /* \"#utility.yul\":532:556   */\n  tag_21\n    /* \"#utility.yul\":550:555   */\n  dup3\n    /* \"#utility.yul\":532:556   */\n  tag_10\n  jump\t// in\ntag_21:\n    /* \"#utility.yul\":521:556   */\n  swap1\n  pop\n    /* \"#utility.yul\":466:562   */\n  swap2\n  swap1\n  pop\n  jump\t// out\n    /* \"#utility.yul\":568:677   */\ntag_12:\n    /* \"#utility.yul\":618:625   */\n  0x00\n    /* \"#utility.yul\":647:671   */\n  tag_23\n    /* \"#utility.yul\":665:670   */\n  dup3\n    /* \"#utility.yul\":647:671   */\n  tag_11\n  jump\t// in\ntag_23:\n    /* \"#utility.yul\":636:671   */\n  swap1\n  pop\n    /* \"#utility.yul\":568:677   */\n  swap2\n  swap1\n  pop\n  jump\t// out\n    /* \"#utility.yul\":683:831   */\ntag_13:\n    /* \"#utility.yul\":769:806   */\n  tag_25\n    /* \"#utility.yul\":800:805   */\n  dup2\n    /* \"#utility.yul\":769:806   */\n  tag_12\n  jump\t// in\ntag_25:\n    /* \"#utility.yul\":762:767   */\n  dup2\n    /* \"#utility.yul\":759:807   */\n  eq\n    /* \"#utility.yul\":749:825   */\n  tag_26\n  jumpi\n    /* \"#utility.yul\":821:822   */\n  0x00\n    /* \"#utility.yul\":818:819   */\n  dup1\n    /* \"#utility.yul\":811:823   */\n  revert\n    /* \"#utility.yul\":749:825   */\ntag_26:\n    /* \"#utility.yul\":683:831   */\n  pop\n  jump\t// out\n    /* \"#utility.yul\":837:1006   */\ntag_14:\n    /* \"#utility.yul\":907:912   */\n  0x00\n    /* \"#utility.yul\":938:944   */\n  dup2\n    /* \"#utility.yul\":932:945   */\n  mload\n    /* \"#utility.yul\":923:945   */\n  swap1\n  pop\n    /* \"#utility.yul\":954:1000   */\n  tag_28\n    /* \"#utility.yul\":994:999   */\n  dup2\n    /* \"#utility.yul\":954:1000   */\n  tag_13\n  jump\t// in\ntag_28:\n    /* \"#utility.yul\":837:1006   */\n  swap3\n  swap2\n  pop\n  pop\n  jump\t// out\n    /* \"#utility.yul\":1012:1389   */\ntag_3:\n    /* \"#utility.yul\":1095:1101   */\n  0x00\n    /* \"#utility.yul\":1144:1146   */\n  0x20\n    /* \"#utility.yul\":1132:1141   */\n  dup3\n    /* \"#utility.yul\":1123:1130   */\n  dup5\n    /* \"#utility.yul\":1119:1142   */\n  sub\n    /* \"#utility.yul\":1115:1147   */\n  slt\n    /* \"#utility.yul\":1112:1231   */\n  iszero\n  tag_30\n  jumpi\n    /* \"#utility.yul\":1150:1229   */\n  tag_31\n  tag_8\n  jump\t// in\ntag_31:\n    /* \"#utility.yul\":1112:1231   */\ntag_30:\n    /* \"#utility.yul\":1270:1271   */\n  0x00\n    /* \"#utility.yul\":1295:1372   */\n  tag_32\n    /* \"#utility.yul\":1364:1371   */\n  dup5\n    /* \"#utility.yul\":1355:1361   */\n  dup3\n    /* \"#utility.yul\":1344:1353   */\n  dup6\n    /* \"#utility.yul\":1340:1362   */\n  add\n    /* \"#utility.yul\":1295:1372   */\n  tag_14\n  jump\t// in\ntag_32:\n    /* \"#utility.yul\":1285:1372   */\n  swap2\n  pop\n    /* \"#utility.yul\":1241:1382   */\n  pop\n    /* \"#utility.yul\":1012:1389   */\n  swap3\n  swap2\n  pop\n  pop\n  jump\t// out\n    /* \"shoot/3/create_create2\\xe8\\xae\\xa1\\xe7\\xae\\x97/1.sol\":1486:3585  contract att{... */\ntag_6:\n  dataSize(sub_0)\n  dup1\n  dataOffset(sub_0)\n  0x00\n  codecopy\n  0x00\n  return\nstop\n\nsub_0: assembly {\n        /* \"shoot/3/create_create2\\xe8\\xae\\xa1\\xe7\\xae\\x97/1.sol\":1486:3585  contract att{... */\n      mstore(0x40, 0x80)\n      jumpi(tag_1, lt(calldatasize, 0x04))\n      shr(0xe0, calldataload(0x00))\n      dup1\n      0x50f35753\n      gt\n      tag_12\n      jumpi\n      dup1\n      0x50f35753\n      eq\n      tag_7\n      jumpi\n      dup1\n      0xbfa0b133\n      eq\n      tag_8\n      jumpi\n      dup1\n      0xd11a61d7\n      eq\n      tag_9\n      jumpi\n      dup1\n      0xe65586dd\n      eq\n      tag_10\n      jumpi\n      dup1\n      0xf300080f\n      eq\n      tag_11\n      jumpi\n      jump(tag_2)\n    tag_12:\n      dup1\n      0x1c6a585f\n      eq\n      tag_3\n      jumpi\n      dup1\n      0x1eb3dd15\n      eq\n      tag_4\n      jumpi\n      dup1\n      0x38fbf2f1\n      eq\n      tag_5\n      jumpi\n      dup1\n      0x3ba9838c\n      eq\n      tag_6\n      jumpi\n      jump(tag_2)\n    tag_1:\n      jumpi(tag_2, calldatasize)\n      stop\n    tag_2:\n        /* \"shoot/3/create_create2\\xe8\\xae\\xa1\\xe7\\xae\\x97/1.sol\":2086:2106  getdisposaladdress() */\n      tag_17\n        /* \"shoot/3/create_create2\\xe8\\xae\\xa1\\xe7\\xae\\x97/1.sol\":2086:2104  getdisposaladdress */\n      tag_18\n        /* \"shoot/3/create_create2\\xe8\\xae\\xa1\\xe7\\xae\\x97/1.sol\":2086:2106  getdisposaladdress() */\n      jump\t// in\n    tag_17:\n        /* \"shoot/3/create_create2\\xe8\\xae\\xa1\\xe7\\xae\\x97/1.sol\":2077:2116  disposal(getdisposaladdress()).withdraw */\n      0xffffffffffffffffffffffffffffffffffffffff\n      and\n      0x3ccfd60b\n        /* \"shoot/3/create_create2\\xe8\\xae\\xa1\\xe7\\xae\\x97/1.sol\":2077:2118  disposal(getdisposaladdress()).withdraw() */\n      mload(0x40)\n      dup2\n      0xffffffff\n      and\n      0xe0\n      shl\n      dup2\n      mstore\n      0x04\n      add\n      0x00\n      mload(0x40)\n      dup1\n      dup4\n      sub\n      dup2\n      0x00\n      dup8\n      dup1\n      extcodesize\n      iszero\n      dup1\n      iszero\n      tag_19\n      jumpi\n      0x00\n      dup1\n      revert\n    tag_19:\n      pop\n      gas\n      call\n      iszero\n      dup1\n      iszero\n      tag_21\n      jumpi\n      returndatasize\n      0x00\n      dup1\n      returndatacopy\n      revert(0x00, returndatasize)\n    tag_21:\n      stop\n        /* \"shoot/3/create_create2\\xe8\\xae\\xa1\\xe7\\xae\\x97/1.sol\":3136:3582  function getdisposaladdress() public view returns(address){... */\n    tag_3:\n      callvalue\n      dup1\n      iszero\n      tag_22\n      jumpi\n      0x00\n      dup1\n      revert\n    tag_22:\n      pop\n      tag_23\n      tag_18\n      jump\t// in\n    tag_23:\n      mload(0x40)\n      tag_24\n      swap2\n      swap1\n      tag_25\n      jump\t// in\n    tag_24:\n      mload(0x40)\n      dup1\n      swap2\n      sub\n      swap1\n      return\n        /* \"shoot/3/create_create2\\xe8\\xae\\xa1\\xe7\\xae\\x97/1.sol\":1771:1874  function getbytes3() public view returns(bytes32) {... */\n    tag_4:\n      callvalue\n      dup1\n      iszero\n      tag_26\n      jumpi\n      0x00\n      dup1\n      revert\n    tag_26:\n      pop\n      tag_27\n      tag_28\n      jump\t// in\n    tag_27:\n      mload(0x40)\n      tag_29\n      swap2\n      swap1\n      tag_30\n      jump\t// in\n    tag_29:\n      mload(0x40)\n      dup1\n      swap2\n      sub\n      swap1\n      return\n        /* \"shoot/3/create_create2\\xe8\\xae\\xa1\\xe7\\xae\\x97/1.sol\":2497:2694  function getdisposalbytes(address addr) public view returns (bytes memory){... */\n    tag_5:\n      callvalue\n      dup1\n      iszero\n      tag_31\n      jumpi\n      0x00\n      dup1\n      revert\n    tag_31:\n      pop\n      tag_32\n      0x04\n      dup1\n      calldatasize\n      sub\n      dup2\n      add\n      swap1\n      tag_33\n      swap2\n      swap1\n      tag_34\n      jump\t// in\n    tag_33:\n      tag_35\n      jump\t// in\n    tag_32:\n      mload(0x40)\n      tag_36\n      swap2\n      swap1\n      tag_37\n      jump\t// in\n    tag_36:\n      mload(0x40)\n      dup1\n      swap2\n      sub\n      swap1\n      return\n        /* \"shoot/3/create_create2\\xe8\\xae\\xa1\\xe7\\xae\\x97/1.sol\":1880:1999  function cuit() public returns(bool) {... */\n    tag_6:\n      callvalue\n      dup1\n      iszero\n      tag_38\n      jumpi\n      0x00\n      dup1\n      revert\n    tag_38:\n      pop\n      tag_39\n      tag_40\n      jump\t// in\n    tag_39:\n      mload(0x40)\n      tag_41\n      swap2\n      swap1\n      tag_42\n      jump\t// in\n    tag_41:\n      mload(0x40)\n      dup1\n      swap2\n      sub\n      swap1\n      return\n        /* \"shoot/3/create_create2\\xe8\\xae\\xa1\\xe7\\xae\\x97/1.sol\":2132:2286  function attract() public payable {... */\n    tag_7:\n      tag_43\n      tag_44\n      jump\t// in\n    tag_43:\n      stop\n        /* \"shoot/3/create_create2\\xe8\\xae\\xa1\\xe7\\xae\\x97/1.sol\":1539:1558  bytes32 public salt */\n    tag_8:\n      callvalue\n      dup1\n      iszero\n      tag_45\n      jumpi\n      0x00\n      dup1\n      revert\n    tag_45:\n      pop\n      tag_46\n      tag_47\n      jump\t// in\n    tag_46:\n      mload(0x40)\n      tag_48\n      swap2\n      swap1\n      tag_30\n      jump\t// in\n    tag_48:\n      mload(0x40)\n      dup1\n      swap2\n      sub\n      swap1\n      return\n        /* \"shoot/3/create_create2\\xe8\\xae\\xa1\\xe7\\xae\\x97/1.sol\":1656:1765  function getbytes2() public {... */\n    tag_9:\n      callvalue\n      dup1\n      iszero\n      tag_49\n      jumpi\n      0x00\n      dup1\n      revert\n    tag_49:\n      pop\n      tag_50\n      tag_51\n      jump\t// in\n    tag_50:\n      stop\n        /* \"shoot/3/create_create2\\xe8\\xae\\xa1\\xe7\\xae\\x97/1.sol\":2700:3130  function getdeployeraddress() public view returns(address){... */\n    tag_10:\n      callvalue\n      dup1\n      iszero\n      tag_52\n      jumpi\n      0x00\n      dup1\n      revert\n    tag_52:\n      pop\n      tag_53\n      tag_54\n      jump\t// in\n    tag_53:\n      mload(0x40)\n      tag_55\n      swap2\n      swap1\n      tag_25\n      jump\t// in\n    tag_55:\n      mload(0x40)\n      dup1\n      swap2\n      sub\n      swap1\n      return\n        /* \"shoot/3/create_create2\\xe8\\xae\\xa1\\xe7\\xae\\x97/1.sol\":2292:2491  function getdeployerbytes(bytes32 salt1) public view returns (bytes memory){... */\n    tag_11:\n      callvalue\n      dup1\n      iszero\n      tag_56\n      jumpi\n      0x00\n      dup1\n      revert\n    tag_56:\n      pop\n      tag_57\n      0x04\n      dup1\n      calldatasize\n      sub\n      dup2\n      add\n      swap1\n      tag_58\n      swap2\n      swap1\n      tag_59\n      jump\t// in\n    tag_58:\n      tag_60\n      jump\t// in\n    tag_57:\n      mload(0x40)\n      tag_61\n      swap2\n      swap1\n      tag_37\n      jump\t// in\n    tag_61:\n      mload(0x40)\n      dup1\n      swap2\n      sub\n      swap1\n      return\n        /* \"shoot/3/create_create2\\xe8\\xae\\xa1\\xe7\\xae\\x97/1.sol\":3136:3582  function getdisposaladdress() public view returns(address){... */\n    tag_18:\n        /* \"shoot/3/create_create2\\xe8\\xae\\xa1\\xe7\\xae\\x97/1.sol\":3186:3193  address */\n      0x00\n        /* \"shoot/3/create_create2\\xe8\\xae\\xa1\\xe7\\xae\\x97/1.sol\":3380:3384  0xff */\n      0xff\n        /* \"shoot/3/create_create2\\xe8\\xae\\xa1\\xe7\\xae\\x97/1.sol\":3373:3385  bytes1(0xff) */\n      0xf8\n      shl\n        /* \"shoot/3/create_create2\\xe8\\xae\\xa1\\xe7\\xae\\x97/1.sol\":3416:3436  getdeployeraddress() */\n      tag_63\n        /* \"shoot/3/create_create2\\xe8\\xae\\xa1\\xe7\\xae\\x97/1.sol\":3416:3434  getdeployeraddress */\n      tag_54\n        /* \"shoot/3/create_create2\\xe8\\xae\\xa1\\xe7\\xae\\x97/1.sol\":3416:3436  getdeployeraddress() */\n      jump\t// in\n    tag_63:\n        /* \"shoot/3/create_create2\\xe8\\xae\\xa1\\xe7\\xae\\x97/1.sol\":3467:3471  salt */\n      sload(0x01)\n        /* \"shoot/3/create_create2\\xe8\\xae\\xa1\\xe7\\xae\\x97/1.sol\":3512:3542  getdisposalbytes(address(che)) */\n      tag_64\n        /* \"shoot/3/create_create2\\xe8\\xae\\xa1\\xe7\\xae\\x97/1.sol\":3537:3540  che */\n      0x00\n      dup1\n      sload\n      swap1\n      0x0100\n      exp\n      swap1\n      div\n      0xffffffffffffffffffffffffffffffffffffffff\n      and\n        /* \"shoot/3/create_create2\\xe8\\xae\\xa1\\xe7\\xae\\x97/1.sol\":3512:3528  getdisposalbytes */\n      tag_35\n        /* \"shoot/3/create_create2\\xe8\\xae\\xa1\\xe7\\xae\\x97/1.sol\":3512:3542  getdisposalbytes(address(che)) */\n      jump\t// in\n    tag_64:\n        /* \"shoot/3/create_create2\\xe8\\xae\\xa1\\xe7\\xae\\x97/1.sol\":3502:3543  keccak256(getdisposalbytes(address(che))) */\n      dup1\n      mload\n      swap1\n      0x20\n      add\n      keccak256\n        /* \"shoot/3/create_create2\\xe8\\xae\\xa1\\xe7\\xae\\x97/1.sol\":3326:3570  abi.encodePacked(... */\n      add(0x20, mload(0x40))\n      tag_65\n      swap5\n      swap4\n      swap3\n      swap2\n      swap1\n      tag_66\n      jump\t// in\n    tag_65:\n      mload(0x40)\n      0x20\n      dup2\n      dup4\n      sub\n      sub\n      dup2\n      mstore\n      swap1\n      0x40\n      mstore\n        /* \"shoot/3/create_create2\\xe8\\xae\\xa1\\xe7\\xae\\x97/1.sol\":3290:3571  keccak256(... */\n      dup1\n      mload\n      swap1\n      0x20\n      add\n      keccak256\n        /* \"shoot/3/create_create2\\xe8\\xae\\xa1\\xe7\\xae\\x97/1.sol\":3260:3572  uint256(... */\n      0x00\n      shr\n        /* \"shoot/3/create_create2\\xe8\\xae\\xa1\\xe7\\xae\\x97/1.sol\":3205:3574  return address(... */\n      swap1\n      pop\n        /* \"shoot/3/create_create2\\xe8\\xae\\xa1\\xe7\\xae\\x97/1.sol\":3136:3582  function getdisposaladdress() public view returns(address){... */\n      swap1\n      jump\t// out\n        /* \"shoot/3/create_create2\\xe8\\xae\\xa1\\xe7\\xae\\x97/1.sol\":1771:1874  function getbytes3() public view returns(bytes32) {... */\n    tag_28:\n        /* \"shoot/3/create_create2\\xe8\\xae\\xa1\\xe7\\xae\\x97/1.sol\":1812:1819  bytes32 */\n      0x00\n        /* \"shoot/3/create_create2\\xe8\\xae\\xa1\\xe7\\xae\\x97/1.sol\":1864:1865  2 */\n      0x02\n        /* \"shoot/3/create_create2\\xe8\\xae\\xa1\\xe7\\xae\\x97/1.sol\":1849:1861  block.number */\n      number\n        /* \"shoot/3/create_create2\\xe8\\xae\\xa1\\xe7\\xae\\x97/1.sol\":1849:1865  block.number - 2 */\n      tag_68\n      swap2\n      swap1\n      tag_69\n      jump\t// in\n    tag_68:\n        /* \"shoot/3/create_create2\\xe8\\xae\\xa1\\xe7\\xae\\x97/1.sol\":1839:1866  blockhash(block.number - 2) */\n      blockhash\n        /* \"shoot/3/create_create2\\xe8\\xae\\xa1\\xe7\\xae\\x97/1.sol\":1832:1866  return blockhash(block.number - 2) */\n      swap1\n      pop\n        /* \"shoot/3/create_create2\\xe8\\xae\\xa1\\xe7\\xae\\x97/1.sol\":1771:1874  function getbytes3() public view returns(bytes32) {... */\n      swap1\n      jump\t// out\n        /* \"shoot/3/create_create2\\xe8\\xae\\xa1\\xe7\\xae\\x97/1.sol\":2497:2694  function getdisposalbytes(address addr) public view returns (bytes memory){... */\n    tag_35:\n        /* \"shoot/3/create_create2\\xe8\\xae\\xa1\\xe7\\xae\\x97/1.sol\":2558:2570  bytes memory */\n      0x60\n        /* \"shoot/3/create_create2\\xe8\\xae\\xa1\\xe7\\xae\\x97/1.sol\":2582:2599  bytes memory code */\n      0x00\n        /* \"shoot/3/create_create2\\xe8\\xae\\xa1\\xe7\\xae\\x97/1.sol\":2602:2629  type(disposal).creationCode */\n      mload(0x40)\n      dup1\n      0x20\n      add\n      tag_71\n      swap1\n      tag_72\n      jump\t// in\n    tag_71:\n      0x20\n      dup3\n      add\n      dup2\n      sub\n      dup3\n      mstore\n      not(0x1f)\n      0x1f\n      dup3\n      add\n      and\n      0x40\n      mstore\n      pop\n        /* \"shoot/3/create_create2\\xe8\\xae\\xa1\\xe7\\xae\\x97/1.sol\":2582:2629  bytes memory code = type(disposal).creationCode */\n      swap1\n      pop\n        /* \"shoot/3/create_create2\\xe8\\xae\\xa1\\xe7\\xae\\x97/1.sol\":2664:2668  code */\n      dup1\n        /* \"shoot/3/create_create2\\xe8\\xae\\xa1\\xe7\\xae\\x97/1.sol\":2680:2684  addr */\n      dup4\n        /* \"shoot/3/create_create2\\xe8\\xae\\xa1\\xe7\\xae\\x97/1.sol\":2669:2685  abi.encode(addr) */\n      add(0x20, mload(0x40))\n      tag_73\n      swap2\n      swap1\n      tag_25\n      jump\t// in\n    tag_73:\n      mload(0x40)\n      0x20\n      dup2\n      dup4\n      sub\n      sub\n      dup2\n      mstore\n      swap1\n      0x40\n      mstore\n        /* \"shoot/3/create_create2\\xe8\\xae\\xa1\\xe7\\xae\\x97/1.sol\":2647:2686  abi.encodePacked(code,abi.encode(addr)) */\n      add(0x20, mload(0x40))\n      tag_74\n      swap3\n      swap2\n      swap1\n      tag_75\n      jump\t// in\n    tag_74:\n      mload(0x40)\n      0x20\n      dup2\n      dup4\n      sub\n      sub\n      dup2\n      mstore\n      swap1\n      0x40\n      mstore\n        /* \"shoot/3/create_create2\\xe8\\xae\\xa1\\xe7\\xae\\x97/1.sol\":2640:2686  return abi.encodePacked(code,abi.encode(addr)) */\n      swap2\n      pop\n      pop\n        /* \"shoot/3/create_create2\\xe8\\xae\\xa1\\xe7\\xae\\x97/1.sol\":2497:2694  function getdisposalbytes(address addr) public view returns (bytes memory){... */\n      swap2\n      swap1\n      pop\n      jump\t// out\n        /* \"shoot/3/create_create2\\xe8\\xae\\xa1\\xe7\\xae\\x97/1.sol\":1880:1999  function cuit() public returns(bool) {... */\n    tag_40:\n        /* \"shoot/3/create_create2\\xe8\\xae\\xa1\\xe7\\xae\\x97/1.sol\":1911:1915  bool */\n      0x00\n        /* \"shoot/3/create_create2\\xe8\\xae\\xa1\\xe7\\xae\\x97/1.sol\":1937:1957  getdisposaladdress() */\n      tag_77\n        /* \"shoot/3/create_create2\\xe8\\xae\\xa1\\xe7\\xae\\x97/1.sol\":1937:1955  getdisposaladdress */\n      tag_18\n        /* \"shoot/3/create_create2\\xe8\\xae\\xa1\\xe7\\xae\\x97/1.sol\":1937:1957  getdisposaladdress() */\n      jump\t// in\n    tag_77:\n        /* \"shoot/3/create_create2\\xe8\\xae\\xa1\\xe7\\xae\\x97/1.sol\":1928:1967  disposal(getdisposaladdress()).withdraw */\n      0xffffffffffffffffffffffffffffffffffffffff\n      and\n      0x3ccfd60b\n        /* \"shoot/3/create_create2\\xe8\\xae\\xa1\\xe7\\xae\\x97/1.sol\":1928:1969  disposal(getdisposaladdress()).withdraw() */\n      mload(0x40)\n      dup2\n      0xffffffff\n      and\n      0xe0\n      shl\n      dup2\n      mstore\n      0x04\n      add\n      0x00\n      mload(0x40)\n      dup1\n      dup4\n      sub\n      dup2\n      0x00\n      dup8\n      dup1\n      extcodesize\n      iszero\n      dup1\n      iszero\n      tag_78\n      jumpi\n      0x00\n      dup1\n      revert\n    tag_78:\n      pop\n      gas\n      call\n      iszero\n      dup1\n      iszero\n      tag_80\n      jumpi\n      returndatasize\n      0x00\n      dup1\n      returndatacopy\n      revert(0x00, returndatasize)\n    tag_80:\n      pop\n      pop\n      pop\n      pop\n        /* \"shoot/3/create_create2\\xe8\\xae\\xa1\\xe7\\xae\\x97/1.sol\":1987:1991  true */\n      0x01\n        /* \"shoot/3/create_create2\\xe8\\xae\\xa1\\xe7\\xae\\x97/1.sol\":1980:1991  return true */\n      swap1\n      pop\n        /* \"shoot/3/create_create2\\xe8\\xae\\xa1\\xe7\\xae\\x97/1.sol\":1880:1999  function cuit() public returns(bool) {... */\n      swap1\n      jump\t// out\n        /* \"shoot/3/create_create2\\xe8\\xae\\xa1\\xe7\\xae\\x97/1.sol\":2132:2286  function attract() public payable {... */\n    tag_44:\n        /* \"shoot/3/create_create2\\xe8\\xae\\xa1\\xe7\\xae\\x97/1.sol\":2209:2210  1 */\n      0x01\n        /* \"shoot/3/create_create2\\xe8\\xae\\xa1\\xe7\\xae\\x97/1.sol\":2194:2206  block.number */\n      number\n        /* \"shoot/3/create_create2\\xe8\\xae\\xa1\\xe7\\xae\\x97/1.sol\":2194:2210  block.number - 1 */\n      tag_82\n      swap2\n      swap1\n      tag_69\n      jump\t// in\n    tag_82:\n        /* \"shoot/3/create_create2\\xe8\\xae\\xa1\\xe7\\xae\\x97/1.sol\":2184:2211  blockhash(block.number - 1) */\n      blockhash\n        /* \"shoot/3/create_create2\\xe8\\xae\\xa1\\xe7\\xae\\x97/1.sol\":2177:2181  salt */\n      0x01\n        /* \"shoot/3/create_create2\\xe8\\xae\\xa1\\xe7\\xae\\x97/1.sol\":2177:2211  salt = blockhash(block.number - 1) */\n      dup2\n      swap1\n      sstore\n      pop\n        /* \"shoot/3/create_create2\\xe8\\xae\\xa1\\xe7\\xae\\x97/1.sol\":2222:2225  che */\n      0x00\n      dup1\n      sload\n      swap1\n      0x0100\n      exp\n      swap1\n      div\n      0xffffffffffffffffffffffffffffffffffffffff\n      and\n        /* \"shoot/3/create_create2\\xe8\\xae\\xa1\\xe7\\xae\\x97/1.sol\":2222:2237  che.isCompleted */\n      0xffffffffffffffffffffffffffffffffffffffff\n      and\n      0x030bd8c9\n        /* \"shoot/3/create_create2\\xe8\\xae\\xa1\\xe7\\xae\\x97/1.sol\":2246:2255  msg.value */\n      callvalue\n        /* \"shoot/3/create_create2\\xe8\\xae\\xa1\\xe7\\xae\\x97/1.sol\":2257:2277  getdisposaladdress() */\n      tag_83\n        /* \"shoot/3/create_create2\\xe8\\xae\\xa1\\xe7\\xae\\x97/1.sol\":2257:2275  getdisposaladdress */\n      tag_18\n        /* \"shoot/3/create_create2\\xe8\\xae\\xa1\\xe7\\xae\\x97/1.sol\":2257:2277  getdisposaladdress() */\n      jump\t// in\n    tag_83:\n        /* \"shoot/3/create_create2\\xe8\\xae\\xa1\\xe7\\xae\\x97/1.sol\":2222:2278  che.isCompleted{value : msg.value}(getdisposaladdress()) */\n      mload(0x40)\n      dup4\n      0xffffffff\n      and\n      0xe0\n      shl\n      dup2\n      mstore\n      0x04\n      add\n      tag_84\n      swap2\n      swap1\n      tag_25\n      jump\t// in\n    tag_84:\n      0x00\n      mload(0x40)\n      dup1\n      dup4\n      sub\n      dup2\n      dup6\n      dup9\n      dup1\n      extcodesize\n      iszero\n      dup1\n      iszero\n      tag_85\n      jumpi\n      0x00\n      dup1\n      revert\n    tag_85:\n      pop\n      gas\n      call\n      iszero\n      dup1\n      iszero\n      tag_87\n      jumpi\n      returndatasize\n      0x00\n      dup1\n      returndatacopy\n      revert(0x00, returndatasize)\n    tag_87:\n      pop\n      pop\n      pop\n      pop\n      pop\n        /* \"shoot/3/create_create2\\xe8\\xae\\xa1\\xe7\\xae\\x97/1.sol\":2132:2286  function attract() public payable {... */\n      jump\t// out\n        /* \"shoot/3/create_create2\\xe8\\xae\\xa1\\xe7\\xae\\x97/1.sol\":1539:1558  bytes32 public salt */\n    tag_47:\n      sload(0x01)\n      dup2\n      jump\t// out\n        /* \"shoot/3/create_create2\\xe8\\xae\\xa1\\xe7\\xae\\x97/1.sol\":1656:1765  function getbytes2() public {... */\n    tag_51:\n        /* \"shoot/3/create_create2\\xe8\\xae\\xa1\\xe7\\xae\\x97/1.sol\":1727:1728  1 */\n      0x01\n        /* \"shoot/3/create_create2\\xe8\\xae\\xa1\\xe7\\xae\\x97/1.sol\":1712:1724  block.number */\n      number\n        /* \"shoot/3/create_create2\\xe8\\xae\\xa1\\xe7\\xae\\x97/1.sol\":1712:1728  block.number - 1 */\n      tag_89\n      swap2\n      swap1\n      tag_69\n      jump\t// in\n    tag_89:\n        /* \"shoot/3/create_create2\\xe8\\xae\\xa1\\xe7\\xae\\x97/1.sol\":1702:1729  blockhash(block.number - 1) */\n      blockhash\n        /* \"shoot/3/create_create2\\xe8\\xae\\xa1\\xe7\\xae\\x97/1.sol\":1695:1699  salt */\n      0x01\n        /* \"shoot/3/create_create2\\xe8\\xae\\xa1\\xe7\\xae\\x97/1.sol\":1695:1729  salt = blockhash(block.number - 1) */\n      dup2\n      swap1\n      sstore\n      pop\n        /* \"shoot/3/create_create2\\xe8\\xae\\xa1\\xe7\\xae\\x97/1.sol\":1656:1765  function getbytes2() public {... */\n      jump\t// out\n        /* \"shoot/3/create_create2\\xe8\\xae\\xa1\\xe7\\xae\\x97/1.sol\":2700:3130  function getdeployeraddress() public view returns(address){... */\n    tag_54:\n        /* \"shoot/3/create_create2\\xe8\\xae\\xa1\\xe7\\xae\\x97/1.sol\":2750:2757  address */\n      0x00\n        /* \"shoot/3/create_create2\\xe8\\xae\\xa1\\xe7\\xae\\x97/1.sol\":2944:2948  0xff */\n      0xff\n        /* \"shoot/3/create_create2\\xe8\\xae\\xa1\\xe7\\xae\\x97/1.sol\":2937:2949  bytes1(0xff) */\n      0xf8\n      shl\n        /* \"shoot/3/create_create2\\xe8\\xae\\xa1\\xe7\\xae\\x97/1.sol\":2988:2991  che */\n      0x00\n      dup1\n      sload\n      swap1\n      0x0100\n      exp\n      swap1\n      div\n      0xffffffffffffffffffffffffffffffffffffffff\n      and\n        /* \"shoot/3/create_create2\\xe8\\xae\\xa1\\xe7\\xae\\x97/1.sol\":3023:3027  salt */\n      sload(0x01)\n        /* \"shoot/3/create_create2\\xe8\\xae\\xa1\\xe7\\xae\\x97/1.sol\":3068:3090  getdeployerbytes(salt) */\n      tag_91\n        /* \"shoot/3/create_create2\\xe8\\xae\\xa1\\xe7\\xae\\x97/1.sol\":3085:3089  salt */\n      sload(0x01)\n        /* \"shoot/3/create_create2\\xe8\\xae\\xa1\\xe7\\xae\\x97/1.sol\":3068:3084  getdeployerbytes */\n      tag_60\n        /* \"shoot/3/create_create2\\xe8\\xae\\xa1\\xe7\\xae\\x97/1.sol\":3068:3090  getdeployerbytes(salt) */\n      jump\t// in\n    tag_91:\n        /* \"shoot/3/create_create2\\xe8\\xae\\xa1\\xe7\\xae\\x97/1.sol\":3058:3091  keccak256(getdeployerbytes(salt)) */\n      dup1\n      mload\n      swap1\n      0x20\n      add\n      keccak256\n        /* \"shoot/3/create_create2\\xe8\\xae\\xa1\\xe7\\xae\\x97/1.sol\":2890:3118  abi.encodePacked(... */\n      add(0x20, mload(0x40))\n      tag_92\n      swap5\n      swap4\n      swap3\n      swap2\n      swap1\n      tag_66\n      jump\t// in\n    tag_92:\n      mload(0x40)\n      0x20\n      dup2\n      dup4\n      sub\n      sub\n      dup2\n      mstore\n      swap1\n      0x40\n      mstore\n        /* \"shoot/3/create_create2\\xe8\\xae\\xa1\\xe7\\xae\\x97/1.sol\":2854:3119  keccak256(... */\n      dup1\n      mload\n      swap1\n      0x20\n      add\n      keccak256\n        /* \"shoot/3/create_create2\\xe8\\xae\\xa1\\xe7\\xae\\x97/1.sol\":2824:3120  uint256(... */\n      0x00\n      shr\n        /* \"shoot/3/create_create2\\xe8\\xae\\xa1\\xe7\\xae\\x97/1.sol\":2769:3122  return address(... */\n      swap1\n      pop\n        /* \"shoot/3/create_create2\\xe8\\xae\\xa1\\xe7\\xae\\x97/1.sol\":2700:3130  function getdeployeraddress() public view returns(address){... */\n      swap1\n      jump\t// out\n        /* \"shoot/3/create_create2\\xe8\\xae\\xa1\\xe7\\xae\\x97/1.sol\":2292:2491  function getdeployerbytes(bytes32 salt1) public view returns (bytes memory){... */\n    tag_60:\n        /* \"shoot/3/create_create2\\xe8\\xae\\xa1\\xe7\\xae\\x97/1.sol\":2354:2366  bytes memory */\n      0x60\n        /* \"shoot/3/create_create2\\xe8\\xae\\xa1\\xe7\\xae\\x97/1.sol\":2378:2395  bytes memory code */\n      0x00\n        /* \"shoot/3/create_create2\\xe8\\xae\\xa1\\xe7\\xae\\x97/1.sol\":2398:2425  type(deployer).creationCode */\n      mload(0x40)\n      dup1\n      0x20\n      add\n      tag_94\n      swap1\n      tag_95\n      jump\t// in\n    tag_94:\n      0x20\n      dup3\n      add\n      dup2\n      sub\n      dup3\n      mstore\n      not(0x1f)\n      0x1f\n      dup3\n      add\n      and\n      0x40\n      mstore\n      pop\n        /* \"shoot/3/create_create2\\xe8\\xae\\xa1\\xe7\\xae\\x97/1.sol\":2378:2425  bytes memory code = type(deployer).creationCode */\n      swap1\n      pop\n        /* \"shoot/3/create_create2\\xe8\\xae\\xa1\\xe7\\xae\\x97/1.sol\":2460:2464  code */\n      dup1\n        /* \"shoot/3/create_create2\\xe8\\xae\\xa1\\xe7\\xae\\x97/1.sol\":2476:2481  salt1 */\n      dup4\n        /* \"shoot/3/create_create2\\xe8\\xae\\xa1\\xe7\\xae\\x97/1.sol\":2465:2482  abi.encode(salt1) */\n      add(0x20, mload(0x40))\n      tag_96\n      swap2\n      swap1\n      tag_30\n      jump\t// in\n    tag_96:\n      mload(0x40)\n      0x20\n      dup2\n      dup4\n      sub\n      sub\n      dup2\n      mstore\n      swap1\n      0x40\n      mstore\n        /* \"shoot/3/create_create2\\xe8\\xae\\xa1\\xe7\\xae\\x97/1.sol\":2443:2483  abi.encodePacked(code,abi.encode(salt1)) */\n      add(0x20, mload(0x40))\n      tag_97\n      swap3\n      swap2\n      swap1\n      tag_75\n      jump\t// in\n    tag_97:\n      mload(0x40)\n      0x20\n      dup2\n      dup4\n      sub\n      sub\n      dup2\n      mstore\n      swap1\n      0x40\n      mstore\n        /* \"shoot/3/create_create2\\xe8\\xae\\xa1\\xe7\\xae\\x97/1.sol\":2436:2483  return abi.encodePacked(code,abi.encode(salt1)) */\n      swap2\n      pop\n      pop\n        /* \"shoot/3/create_create2\\xe8\\xae\\xa1\\xe7\\xae\\x97/1.sol\":2292:2491  function getdeployerbytes(bytes32 salt1) public view returns (bytes memory){... */\n      swap2\n      swap1\n      pop\n      jump\t// out\n    tag_72:\n      dataSize(sub_0)\n      dup1\n      dataOffset(sub_0)\n      dup4\n      codecopy\n      add\n      swap1\n      jump\t// out\n    tag_95:\n      dataSize(sub_1)\n      dup1\n      dataOffset(sub_1)\n      dup4\n      codecopy\n      add\n      swap1\n      jump\t// out\n        /* \"#utility.yul\":7:133   */\n    tag_98:\n        /* \"#utility.yul\":44:51   */\n      0x00\n        /* \"#utility.yul\":84:126   */\n      0xffffffffffffffffffffffffffffffffffffffff\n        /* \"#utility.yul\":77:82   */\n      dup3\n        /* \"#utility.yul\":73:127   */\n      and\n        /* \"#utility.yul\":62:127   */\n      swap1\n      pop\n        /* \"#utility.yul\":7:133   */\n      swap2\n      swap1\n      pop\n      jump\t// out\n        /* \"#utility.yul\":139:235   */\n    tag_99:\n        /* \"#utility.yul\":176:183   */\n      0x00\n        /* \"#utility.yul\":205:229   */\n      tag_133\n        /* \"#utility.yul\":223:228   */\n      dup3\n        /* \"#utility.yul\":205:229   */\n      tag_98\n      jump\t// in\n    tag_133:\n        /* \"#utility.yul\":194:229   */\n      swap1\n      pop\n        /* \"#utility.yul\":139:235   */\n      swap2\n      swap1\n      pop\n      jump\t// out\n        /* \"#utility.yul\":241:359   */\n    tag_100:\n        /* \"#utility.yul\":328:352   */\n      tag_135\n        /* \"#utility.yul\":346:351   */\n      dup2\n        /* \"#utility.yul\":328:352   */\n      tag_99\n      jump\t// in\n    tag_135:\n        /* \"#utility.yul\":323:326   */\n      dup3\n        /* \"#utility.yul\":316:353   */\n      mstore\n        /* \"#utility.yul\":241:359   */\n      pop\n      pop\n      jump\t// out\n        /* \"#utility.yul\":365:587   */\n    tag_25:\n        /* \"#utility.yul\":458:462   */\n      0x00\n        /* \"#utility.yul\":496:498   */\n      0x20\n        /* \"#utility.yul\":485:494   */\n      dup3\n        /* \"#utility.yul\":481:499   */\n      add\n        /* \"#utility.yul\":473:499   */\n      swap1\n      pop\n        /* \"#utility.yul\":509:580   */\n      tag_137\n        /* \"#utility.yul\":577:578   */\n      0x00\n        /* \"#utility.yul\":566:575   */\n      dup4\n        /* \"#utility.yul\":562:579   */\n      add\n        /* \"#utility.yul\":553:559   */\n      dup5\n        /* \"#utility.yul\":509:580   */\n      tag_100\n      jump\t// in\n    tag_137:\n        /* \"#utility.yul\":365:587   */\n      swap3\n      swap2\n      pop\n      pop\n      jump\t// out\n        /* \"#utility.yul\":593:670   */\n    tag_101:\n        /* \"#utility.yul\":630:637   */\n      0x00\n        /* \"#utility.yul\":659:664   */\n      dup2\n        /* \"#utility.yul\":648:664   */\n      swap1\n      pop\n        /* \"#utility.yul\":593:670   */\n      swap2\n      swap1\n      pop\n      jump\t// out\n        /* \"#utility.yul\":676:794   */\n    tag_102:\n        /* \"#utility.yul\":763:787   */\n      tag_140\n        /* \"#utility.yul\":781:786   */\n      dup2\n        /* \"#utility.yul\":763:787   */\n      tag_101\n      jump\t// in\n    tag_140:\n        /* \"#utility.yul\":758:761   */\n      dup3\n        /* \"#utility.yul\":751:788   */\n      mstore\n        /* \"#utility.yul\":676:794   */\n      pop\n      pop\n      jump\t// out\n        /* \"#utility.yul\":800:1022   */\n    tag_30:\n        /* \"#utility.yul\":893:897   */\n      0x00\n        /* \"#utility.yul\":931:933   */\n      0x20\n        /* \"#utility.yul\":920:929   */\n      dup3\n        /* \"#utility.yul\":916:934   */\n      add\n        /* \"#utility.yul\":908:934   */\n      swap1\n      pop\n        /* \"#utility.yul\":944:1015   */\n      tag_142\n        /* \"#utility.yul\":1012:1013   */\n      0x00\n        /* \"#utility.yul\":1001:1010   */\n      dup4\n        /* \"#utility.yul\":997:1014   */\n      add\n        /* \"#utility.yul\":988:994   */\n      dup5\n        /* \"#utility.yul\":944:1015   */\n      tag_102\n      jump\t// in\n    tag_142:\n        /* \"#utility.yul\":800:1022   */\n      swap3\n      swap2\n      pop\n      pop\n      jump\t// out\n        /* \"#utility.yul\":1109:1226   */\n    tag_104:\n        /* \"#utility.yul\":1218:1219   */\n      0x00\n        /* \"#utility.yul\":1215:1216   */\n      dup1\n        /* \"#utility.yul\":1208:1220   */\n      revert\n        /* \"#utility.yul\":1355:1477   */\n    tag_106:\n        /* \"#utility.yul\":1428:1452   */\n      tag_147\n        /* \"#utility.yul\":1446:1451   */\n      dup2\n        /* \"#utility.yul\":1428:1452   */\n      tag_99\n      jump\t// in\n    tag_147:\n        /* \"#utility.yul\":1421:1426   */\n      dup2\n        /* \"#utility.yul\":1418:1453   */\n      eq\n        /* \"#utility.yul\":1408:1471   */\n      tag_148\n      jumpi\n        /* \"#utility.yul\":1467:1468   */\n      0x00\n        /* \"#utility.yul\":1464:1465   */\n      dup1\n        /* \"#utility.yul\":1457:1469   */\n      revert\n        /* \"#utility.yul\":1408:1471   */\n    tag_148:\n        /* \"#utility.yul\":1355:1477   */\n      pop\n      jump\t// out\n        /* \"#utility.yul\":1483:1622   */\n    tag_107:\n        /* \"#utility.yul\":1529:1534   */\n      0x00\n        /* \"#utility.yul\":1567:1573   */\n      dup2\n        /* \"#utility.yul\":1554:1574   */\n      calldataload\n        /* \"#utility.yul\":1545:1574   */\n      swap1\n      pop\n        /* \"#utility.yul\":1583:1616   */\n      tag_150\n        /* \"#utility.yul\":1610:1615   */\n      dup2\n        /* \"#utility.yul\":1583:1616   */\n      tag_106\n      jump\t// in\n    tag_150:\n        /* \"#utility.yul\":1483:1622   */\n      swap3\n      swap2\n      pop\n      pop\n      jump\t// out\n        /* \"#utility.yul\":1628:1957   */\n    tag_34:\n        /* \"#utility.yul\":1687:1693   */\n      0x00\n        /* \"#utility.yul\":1736:1738   */\n      0x20\n        /* \"#utility.yul\":1724:1733   */\n      dup3\n        /* \"#utility.yul\":1715:1722   */\n      dup5\n        /* \"#utility.yul\":1711:1734   */\n      sub\n        /* \"#utility.yul\":1707:1739   */\n      slt\n        /* \"#utility.yul\":1704:1823   */\n      iszero\n      tag_152\n      jumpi\n        /* \"#utility.yul\":1742:1821   */\n      tag_153\n      tag_104\n      jump\t// in\n    tag_153:\n        /* \"#utility.yul\":1704:1823   */\n    tag_152:\n        /* \"#utility.yul\":1862:1863   */\n      0x00\n        /* \"#utility.yul\":1887:1940   */\n      tag_154\n        /* \"#utility.yul\":1932:1939   */\n      dup5\n        /* \"#utility.yul\":1923:1929   */\n      dup3\n        /* \"#utility.yul\":1912:1921   */\n      dup6\n        /* \"#utility.yul\":1908:1930   */\n      add\n        /* \"#utility.yul\":1887:1940   */\n      tag_107\n      jump\t// in\n    tag_154:\n        /* \"#utility.yul\":1877:1940   */\n      swap2\n      pop\n        /* \"#utility.yul\":1833:1950   */\n      pop\n        /* \"#utility.yul\":1628:1957   */\n      swap3\n      swap2\n      pop\n      pop\n      jump\t// out\n        /* \"#utility.yul\":1963:2061   */\n    tag_108:\n        /* \"#utility.yul\":2014:2020   */\n      0x00\n        /* \"#utility.yul\":2048:2053   */\n      dup2\n        /* \"#utility.yul\":2042:2054   */\n      mload\n        /* \"#utility.yul\":2032:2054   */\n      swap1\n      pop\n        /* \"#utility.yul\":1963:2061   */\n      swap2\n      swap1\n      pop\n      jump\t// out\n        /* \"#utility.yul\":2067:2235   */\n    tag_109:\n        /* \"#utility.yul\":2150:2161   */\n      0x00\n        /* \"#utility.yul\":2184:2190   */\n      dup3\n        /* \"#utility.yul\":2179:2182   */\n      dup3\n        /* \"#utility.yul\":2172:2191   */\n      mstore\n        /* \"#utility.yul\":2224:2228   */\n      0x20\n        /* \"#utility.yul\":2219:2222   */\n      dup3\n        /* \"#utility.yul\":2215:2229   */\n      add\n        /* \"#utility.yul\":2200:2229   */\n      swap1\n      pop\n        /* \"#utility.yul\":2067:2235   */\n      swap3\n      swap2\n      pop\n      pop\n      jump\t// out\n        /* \"#utility.yul\":2241:2487   */\n    tag_110:\n        /* \"#utility.yul\":2322:2323   */\n      0x00\n        /* \"#utility.yul\":2332:2445   */\n    tag_158:\n        /* \"#utility.yul\":2346:2352   */\n      dup4\n        /* \"#utility.yul\":2343:2344   */\n      dup2\n        /* \"#utility.yul\":2340:2353   */\n      lt\n        /* \"#utility.yul\":2332:2445   */\n      iszero\n      tag_160\n      jumpi\n        /* \"#utility.yul\":2431:2432   */\n      dup1\n        /* \"#utility.yul\":2426:2429   */\n      dup3\n        /* \"#utility.yul\":2422:2433   */\n      add\n        /* \"#utility.yul\":2416:2434   */\n      mload\n        /* \"#utility.yul\":2412:2413   */\n      dup2\n        /* \"#utility.yul\":2407:2410   */\n      dup5\n        /* \"#utility.yul\":2403:2414   */\n      add\n        /* \"#utility.yul\":2396:2435   */\n      mstore\n        /* \"#utility.yul\":2368:2370   */\n      0x20\n        /* \"#utility.yul\":2365:2366   */\n      dup2\n        /* \"#utility.yul\":2361:2371   */\n      add\n        /* \"#utility.yul\":2356:2371   */\n      swap1\n      pop\n        /* \"#utility.yul\":2332:2445   */\n      jump(tag_158)\n    tag_160:\n        /* \"#utility.yul\":2479:2480   */\n      0x00\n        /* \"#utility.yul\":2470:2476   */\n      dup5\n        /* \"#utility.yul\":2465:2468   */\n      dup5\n        /* \"#utility.yul\":2461:2477   */\n      add\n        /* \"#utility.yul\":2454:2481   */\n      mstore\n        /* \"#utility.yul\":2303:2487   */\n      pop\n        /* \"#utility.yul\":2241:2487   */\n      pop\n      pop\n      pop\n      jump\t// out\n        /* \"#utility.yul\":2493:2595   */\n    tag_111:\n        /* \"#utility.yul\":2534:2540   */\n      0x00\n        /* \"#utility.yul\":2585:2587   */\n      0x1f\n        /* \"#utility.yul\":2581:2588   */\n      not\n        /* \"#utility.yul\":2576:2578   */\n      0x1f\n        /* \"#utility.yul\":2569:2574   */\n      dup4\n        /* \"#utility.yul\":2565:2579   */\n      add\n        /* \"#utility.yul\":2561:2589   */\n      and\n        /* \"#utility.yul\":2551:2589   */\n      swap1\n      pop\n        /* \"#utility.yul\":2493:2595   */\n      swap2\n      swap1\n      pop\n      jump\t// out\n        /* \"#utility.yul\":2601:2974   */\n    tag_112:\n        /* \"#utility.yul\":2687:2690   */\n      0x00\n        /* \"#utility.yul\":2715:2753   */\n      tag_163\n        /* \"#utility.yul\":2747:2752   */\n      dup3\n        /* \"#utility.yul\":2715:2753   */\n      tag_108\n      jump\t// in\n    tag_163:\n        /* \"#utility.yul\":2769:2839   */\n      tag_164\n        /* \"#utility.yul\":2832:2838   */\n      dup2\n        /* \"#utility.yul\":2827:2830   */\n      dup6\n        /* \"#utility.yul\":2769:2839   */\n      tag_109\n      jump\t// in\n    tag_164:\n        /* \"#utility.yul\":2762:2839   */\n      swap4\n      pop\n        /* \"#utility.yul\":2848:2913   */\n      tag_165\n        /* \"#utility.yul\":2906:2912   */\n      dup2\n        /* \"#utility.yul\":2901:2904   */\n      dup6\n        /* \"#utility.yul\":2894:2898   */\n      0x20\n        /* \"#utility.yul\":2887:2892   */\n      dup7\n        /* \"#utility.yul\":2883:2899   */\n      add\n        /* \"#utility.yul\":2848:2913   */\n      tag_110\n      jump\t// in\n    tag_165:\n        /* \"#utility.yul\":2938:2967   */\n      tag_166\n        /* \"#utility.yul\":2960:2966   */\n      dup2\n        /* \"#utility.yul\":2938:2967   */\n      tag_111\n      jump\t// in\n    tag_166:\n        /* \"#utility.yul\":2933:2936   */\n      dup5\n        /* \"#utility.yul\":2929:2968   */\n      add\n        /* \"#utility.yul\":2922:2968   */\n      swap2\n      pop\n        /* \"#utility.yul\":2691:2974   */\n      pop\n        /* \"#utility.yul\":2601:2974   */\n      swap3\n      swap2\n      pop\n      pop\n      jump\t// out\n        /* \"#utility.yul\":2980:3289   */\n    tag_37:\n        /* \"#utility.yul\":3091:3095   */\n      0x00\n        /* \"#utility.yul\":3129:3131   */\n      0x20\n        /* \"#utility.yul\":3118:3127   */\n      dup3\n        /* \"#utility.yul\":3114:3132   */\n      add\n        /* \"#utility.yul\":3106:3132   */\n      swap1\n      pop\n        /* \"#utility.yul\":3178:3187   */\n      dup2\n        /* \"#utility.yul\":3172:3176   */\n      dup2\n        /* \"#utility.yul\":3168:3188   */\n      sub\n        /* \"#utility.yul\":3164:3165   */\n      0x00\n        /* \"#utility.yul\":3153:3162   */\n      dup4\n        /* \"#utility.yul\":3149:3166   */\n      add\n        /* \"#utility.yul\":3142:3189   */\n      mstore\n        /* \"#utility.yul\":3206:3282   */\n      tag_168\n        /* \"#utility.yul\":3277:3281   */\n      dup2\n        /* \"#utility.yul\":3268:3274   */\n      dup5\n        /* \"#utility.yul\":3206:3282   */\n      tag_112\n      jump\t// in\n    tag_168:\n        /* \"#utility.yul\":3198:3282   */\n      swap1\n      pop\n        /* \"#utility.yul\":2980:3289   */\n      swap3\n      swap2\n      pop\n      pop\n      jump\t// out\n        /* \"#utility.yul\":3295:3385   */\n    tag_113:\n        /* \"#utility.yul\":3329:3336   */\n      0x00\n        /* \"#utility.yul\":3372:3377   */\n      dup2\n        /* \"#utility.yul\":3365:3378   */\n      iszero\n        /* \"#utility.yul\":3358:3379   */\n      iszero\n        /* \"#utility.yul\":3347:3379   */\n      swap1\n      pop\n        /* \"#utility.yul\":3295:3385   */\n      swap2\n      swap1\n      pop\n      jump\t// out\n        /* \"#utility.yul\":3391:3500   */\n    tag_114:\n        /* \"#utility.yul\":3472:3493   */\n      tag_171\n        /* \"#utility.yul\":3487:3492   */\n      dup2\n        /* \"#utility.yul\":3472:3493   */\n      tag_113\n      jump\t// in\n    tag_171:\n        /* \"#utility.yul\":3467:3470   */\n      dup3\n        /* \"#utility.yul\":3460:3494   */\n      mstore\n        /* \"#utility.yul\":3391:3500   */\n      pop\n      pop\n      jump\t// out\n        /* \"#utility.yul\":3506:3716   */\n    tag_42:\n        /* \"#utility.yul\":3593:3597   */\n      0x00\n        /* \"#utility.yul\":3631:3633   */\n      0x20\n        /* \"#utility.yul\":3620:3629   */\n      dup3\n        /* \"#utility.yul\":3616:3634   */\n      add\n        /* \"#utility.yul\":3608:3634   */\n      swap1\n      pop\n        /* \"#utility.yul\":3644:3709   */\n      tag_173\n        /* \"#utility.yul\":3706:3707   */\n      0x00\n        /* \"#utility.yul\":3695:3704   */\n      dup4\n        /* \"#utility.yul\":3691:3708   */\n      add\n        /* \"#utility.yul\":3682:3688   */\n      dup5\n        /* \"#utility.yul\":3644:3709   */\n      tag_114\n      jump\t// in\n    tag_173:\n        /* \"#utility.yul\":3506:3716   */\n      swap3\n      swap2\n      pop\n      pop\n      jump\t// out\n        /* \"#utility.yul\":3722:3844   */\n    tag_115:\n        /* \"#utility.yul\":3795:3819   */\n      tag_175\n        /* \"#utility.yul\":3813:3818   */\n      dup2\n        /* \"#utility.yul\":3795:3819   */\n      tag_101\n      jump\t// in\n    tag_175:\n        /* \"#utility.yul\":3788:3793   */\n      dup2\n        /* \"#utility.yul\":3785:3820   */\n      eq\n        /* \"#utility.yul\":3775:3838   */\n      tag_176\n      jumpi\n        /* \"#utility.yul\":3834:3835   */\n      0x00\n        /* \"#utility.yul\":3831:3832   */\n      dup1\n        /* \"#utility.yul\":3824:3836   */\n      revert\n        /* \"#utility.yul\":3775:3838   */\n    tag_176:\n        /* \"#utility.yul\":3722:3844   */\n      pop\n      jump\t// out\n        /* \"#utility.yul\":3850:3989   */\n    tag_116:\n        /* \"#utility.yul\":3896:3901   */\n      0x00\n        /* \"#utility.yul\":3934:3940   */\n      dup2\n        /* \"#utility.yul\":3921:3941   */\n      calldataload\n        /* \"#utility.yul\":3912:3941   */\n      swap1\n      pop\n        /* \"#utility.yul\":3950:3983   */\n      tag_178\n        /* \"#utility.yul\":3977:3982   */\n      dup2\n        /* \"#utility.yul\":3950:3983   */\n      tag_115\n      jump\t// in\n    tag_178:\n        /* \"#utility.yul\":3850:3989   */\n      swap3\n      swap2\n      pop\n      pop\n      jump\t// out\n        /* \"#utility.yul\":3995:4324   */\n    tag_59:\n        /* \"#utility.yul\":4054:4060   */\n      0x00\n        /* \"#utility.yul\":4103:4105   */\n      0x20\n        /* \"#utility.yul\":4091:4100   */\n      dup3\n        /* \"#utility.yul\":4082:4089   */\n      dup5\n        /* \"#utility.yul\":4078:4101   */\n      sub\n        /* \"#utility.yul\":4074:4106   */\n      slt\n        /* \"#utility.yul\":4071:4190   */\n      iszero\n      tag_180\n      jumpi\n        /* \"#utility.yul\":4109:4188   */\n      tag_181\n      tag_104\n      jump\t// in\n    tag_181:\n        /* \"#utility.yul\":4071:4190   */\n    tag_180:\n        /* \"#utility.yul\":4229:4230   */\n      0x00\n        /* \"#utility.yul\":4254:4307   */\n      tag_182\n        /* \"#utility.yul\":4299:4306   */\n      dup5\n        /* \"#utility.yul\":4290:4296   */\n      dup3\n        /* \"#utility.yul\":4279:4288   */\n      dup6\n        /* \"#utility.yul\":4275:4297   */\n      add\n        /* \"#utility.yul\":4254:4307   */\n      tag_116\n      jump\t// in\n    tag_182:\n        /* \"#utility.yul\":4244:4307   */\n      swap2\n      pop\n        /* \"#utility.yul\":4200:4317   */\n      pop\n        /* \"#utility.yul\":3995:4324   */\n      swap3\n      swap2\n      pop\n      pop\n      jump\t// out\n        /* \"#utility.yul\":4330:4479   */\n    tag_117:\n        /* \"#utility.yul\":4366:4373   */\n      0x00\n        /* \"#utility.yul\":4406:4472   */\n      0xff00000000000000000000000000000000000000000000000000000000000000\n        /* \"#utility.yul\":4399:4404   */\n      dup3\n        /* \"#utility.yul\":4395:4473   */\n      and\n        /* \"#utility.yul\":4384:4473   */\n      swap1\n      pop\n        /* \"#utility.yul\":4330:4479   */\n      swap2\n      swap1\n      pop\n      jump\t// out\n        /* \"#utility.yul\":4485:4563   */\n    tag_118:\n        /* \"#utility.yul\":4523:4530   */\n      0x00\n        /* \"#utility.yul\":4552:4557   */\n      dup2\n        /* \"#utility.yul\":4541:4557   */\n      swap1\n      pop\n        /* \"#utility.yul\":4485:4563   */\n      swap2\n      swap1\n      pop\n      jump\t// out\n        /* \"#utility.yul\":4569:4722   */\n    tag_119:\n        /* \"#utility.yul\":4672:4715   */\n      tag_186\n        /* \"#utility.yul\":4691:4714   */\n      tag_187\n        /* \"#utility.yul\":4708:4713   */\n      dup3\n        /* \"#utility.yul\":4691:4714   */\n      tag_117\n      jump\t// in\n    tag_187:\n        /* \"#utility.yul\":4672:4715   */\n      tag_118\n      jump\t// in\n    tag_186:\n        /* \"#utility.yul\":4667:4670   */\n      dup3\n        /* \"#utility.yul\":4660:4716   */\n      mstore\n        /* \"#utility.yul\":4569:4722   */\n      pop\n      pop\n      jump\t// out\n        /* \"#utility.yul\":4728:4822   */\n    tag_120:\n        /* \"#utility.yul\":4761:4769   */\n      0x00\n        /* \"#utility.yul\":4809:4814   */\n      dup2\n        /* \"#utility.yul\":4805:4807   */\n      0x60\n        /* \"#utility.yul\":4801:4815   */\n      shl\n        /* \"#utility.yul\":4780:4815   */\n      swap1\n      pop\n        /* \"#utility.yul\":4728:4822   */\n      swap2\n      swap1\n      pop\n      jump\t// out\n        /* \"#utility.yul\":4828:4922   */\n    tag_121:\n        /* \"#utility.yul\":4867:4874   */\n      0x00\n        /* \"#utility.yul\":4896:4916   */\n      tag_190\n        /* \"#utility.yul\":4910:4915   */\n      dup3\n        /* \"#utility.yul\":4896:4916   */\n      tag_120\n      jump\t// in\n    tag_190:\n        /* \"#utility.yul\":4885:4916   */\n      swap1\n      pop\n        /* \"#utility.yul\":4828:4922   */\n      swap2\n      swap1\n      pop\n      jump\t// out\n        /* \"#utility.yul\":4928:5028   */\n    tag_122:\n        /* \"#utility.yul\":4967:4974   */\n      0x00\n        /* \"#utility.yul\":4996:5022   */\n      tag_192\n        /* \"#utility.yul\":5016:5021   */\n      dup3\n        /* \"#utility.yul\":4996:5022   */\n      tag_121\n      jump\t// in\n    tag_192:\n        /* \"#utility.yul\":4985:5022   */\n      swap1\n      pop\n        /* \"#utility.yul\":4928:5028   */\n      swap2\n      swap1\n      pop\n      jump\t// out\n        /* \"#utility.yul\":5034:5191   */\n    tag_123:\n        /* \"#utility.yul\":5139:5184   */\n      tag_194\n        /* \"#utility.yul\":5159:5183   */\n      tag_195\n        /* \"#utility.yul\":5177:5182   */\n      dup3\n        /* \"#utility.yul\":5159:5183   */\n      tag_99\n      jump\t// in\n    tag_195:\n        /* \"#utility.yul\":5139:5184   */\n      tag_122\n      jump\t// in\n    tag_194:\n        /* \"#utility.yul\":5134:5137   */\n      dup3\n        /* \"#utility.yul\":5127:5185   */\n      mstore\n        /* \"#utility.yul\":5034:5191   */\n      pop\n      pop\n      jump\t// out\n        /* \"#utility.yul\":5197:5276   */\n    tag_124:\n        /* \"#utility.yul\":5236:5243   */\n      0x00\n        /* \"#utility.yul\":5265:5270   */\n      dup2\n        /* \"#utility.yul\":5254:5270   */\n      swap1\n      pop\n        /* \"#utility.yul\":5197:5276   */\n      swap2\n      swap1\n      pop\n      jump\t// out\n        /* \"#utility.yul\":5282:5439   */\n    tag_125:\n        /* \"#utility.yul\":5387:5432   */\n      tag_198\n        /* \"#utility.yul\":5407:5431   */\n      tag_199\n        /* \"#utility.yul\":5425:5430   */\n      dup3\n        /* \"#utility.yul\":5407:5431   */\n      tag_101\n      jump\t// in\n    tag_199:\n        /* \"#utility.yul\":5387:5432   */\n      tag_124\n      jump\t// in\n    tag_198:\n        /* \"#utility.yul\":5382:5385   */\n      dup3\n        /* \"#utility.yul\":5375:5433   */\n      mstore\n        /* \"#utility.yul\":5282:5439   */\n      pop\n      pop\n      jump\t// out\n        /* \"#utility.yul\":5445:6119   */\n    tag_66:\n        /* \"#utility.yul\":5639:5642   */\n      0x00\n        /* \"#utility.yul\":5654:5727   */\n      tag_201\n        /* \"#utility.yul\":5723:5726   */\n      dup3\n        /* \"#utility.yul\":5714:5720   */\n      dup8\n        /* \"#utility.yul\":5654:5727   */\n      tag_119\n      jump\t// in\n    tag_201:\n        /* \"#utility.yul\":5752:5753   */\n      0x01\n        /* \"#utility.yul\":5747:5750   */\n      dup3\n        /* \"#utility.yul\":5743:5754   */\n      add\n        /* \"#utility.yul\":5736:5754   */\n      swap2\n      pop\n        /* \"#utility.yul\":5764:5839   */\n      tag_202\n        /* \"#utility.yul\":5835:5838   */\n      dup3\n        /* \"#utility.yul\":5826:5832   */\n      dup7\n        /* \"#utility.yul\":5764:5839   */\n      tag_123\n      jump\t// in\n    tag_202:\n        /* \"#utility.yul\":5864:5866   */\n      0x14\n        /* \"#utility.yul\":5859:5862   */\n      dup3\n        /* \"#utility.yul\":5855:5867   */\n      add\n        /* \"#utility.yul\":5848:5867   */\n      swap2\n      pop\n        /* \"#utility.yul\":5877:5952   */\n      tag_203\n        /* \"#utility.yul\":5948:5951   */\n      dup3\n        /* \"#utility.yul\":5939:5945   */\n      dup6\n        /* \"#utility.yul\":5877:5952   */\n      tag_125\n      jump\t// in\n    tag_203:\n        /* \"#utility.yul\":5977:5979   */\n      0x20\n        /* \"#utility.yul\":5972:5975   */\n      dup3\n        /* \"#utility.yul\":5968:5980   */\n      add\n        /* \"#utility.yul\":5961:5980   */\n      swap2\n      pop\n        /* \"#utility.yul\":5990:6065   */\n      tag_204\n        /* \"#utility.yul\":6061:6064   */\n      dup3\n        /* \"#utility.yul\":6052:6058   */\n      dup5\n        /* \"#utility.yul\":5990:6065   */\n      tag_125\n      jump\t// in\n    tag_204:\n        /* \"#utility.yul\":6090:6092   */\n      0x20\n        /* \"#utility.yul\":6085:6088   */\n      dup3\n        /* \"#utility.yul\":6081:6093   */\n      add\n        /* \"#utility.yul\":6074:6093   */\n      swap2\n      pop\n        /* \"#utility.yul\":6110:6113   */\n      dup2\n        /* \"#utility.yul\":6103:6113   */\n      swap1\n      pop\n        /* \"#utility.yul\":5445:6119   */\n      swap6\n      swap5\n      pop\n      pop\n      pop\n      pop\n      pop\n      jump\t// out\n        /* \"#utility.yul\":6125:6202   */\n    tag_126:\n        /* \"#utility.yul\":6162:6169   */\n      0x00\n        /* \"#utility.yul\":6191:6196   */\n      dup2\n        /* \"#utility.yul\":6180:6196   */\n      swap1\n      pop\n        /* \"#utility.yul\":6125:6202   */\n      swap2\n      swap1\n      pop\n      jump\t// out\n        /* \"#utility.yul\":6208:6388   */\n    tag_127:\n        /* \"#utility.yul\":6256:6333   */\n      0x4e487b7100000000000000000000000000000000000000000000000000000000\n        /* \"#utility.yul\":6253:6254   */\n      0x00\n        /* \"#utility.yul\":6246:6334   */\n      mstore\n        /* \"#utility.yul\":6353:6357   */\n      0x11\n        /* \"#utility.yul\":6350:6351   */\n      0x04\n        /* \"#utility.yul\":6343:6358   */\n      mstore\n        /* \"#utility.yul\":6377:6381   */\n      0x24\n        /* \"#utility.yul\":6374:6375   */\n      0x00\n        /* \"#utility.yul\":6367:6382   */\n      revert\n        /* \"#utility.yul\":6394:6588   */\n    tag_69:\n        /* \"#utility.yul\":6434:6438   */\n      0x00\n        /* \"#utility.yul\":6454:6474   */\n      tag_208\n        /* \"#utility.yul\":6472:6473   */\n      dup3\n        /* \"#utility.yul\":6454:6474   */\n      tag_126\n      jump\t// in\n    tag_208:\n        /* \"#utility.yul\":6449:6474   */\n      swap2\n      pop\n        /* \"#utility.yul\":6488:6508   */\n      tag_209\n        /* \"#utility.yul\":6506:6507   */\n      dup4\n        /* \"#utility.yul\":6488:6508   */\n      tag_126\n      jump\t// in\n    tag_209:\n        /* \"#utility.yul\":6483:6508   */\n      swap3\n      pop\n        /* \"#utility.yul\":6532:6533   */\n      dup3\n        /* \"#utility.yul\":6529:6530   */\n      dup3\n        /* \"#utility.yul\":6525:6534   */\n      sub\n        /* \"#utility.yul\":6517:6534   */\n      swap1\n      pop\n        /* \"#utility.yul\":6556:6557   */\n      dup2\n        /* \"#utility.yul\":6550:6554   */\n      dup2\n        /* \"#utility.yul\":6547:6558   */\n      gt\n        /* \"#utility.yul\":6544:6581   */\n      iszero\n      tag_210\n      jumpi\n        /* \"#utility.yul\":6561:6579   */\n      tag_211\n      tag_127\n      jump\t// in\n    tag_211:\n        /* \"#utility.yul\":6544:6581   */\n    tag_210:\n        /* \"#utility.yul\":6394:6588   */\n      swap3\n      swap2\n      pop\n      pop\n      jump\t// out\n        /* \"#utility.yul\":6594:6741   */\n    tag_128:\n        /* \"#utility.yul\":6695:6706   */\n      0x00\n        /* \"#utility.yul\":6732:6735   */\n      dup2\n        /* \"#utility.yul\":6717:6735   */\n      swap1\n      pop\n        /* \"#utility.yul\":6594:6741   */\n      swap3\n      swap2\n      pop\n      pop\n      jump\t// out\n        /* \"#utility.yul\":6747:7133   */\n    tag_129:\n        /* \"#utility.yul\":6851:6854   */\n      0x00\n        /* \"#utility.yul\":6879:6917   */\n      tag_214\n        /* \"#utility.yul\":6911:6916   */\n      dup3\n        /* \"#utility.yul\":6879:6917   */\n      tag_108\n      jump\t// in\n    tag_214:\n        /* \"#utility.yul\":6933:7021   */\n      tag_215\n        /* \"#utility.yul\":7014:7020   */\n      dup2\n        /* \"#utility.yul\":7009:7012   */\n      dup6\n        /* \"#utility.yul\":6933:7021   */\n      tag_128\n      jump\t// in\n    tag_215:\n        /* \"#utility.yul\":6926:7021   */\n      swap4\n      pop\n        /* \"#utility.yul\":7030:7095   */\n      tag_216\n        /* \"#utility.yul\":7088:7094   */\n      dup2\n        /* \"#utility.yul\":7083:7086   */\n      dup6\n        /* \"#utility.yul\":7076:7080   */\n      0x20\n        /* \"#utility.yul\":7069:7074   */\n      dup7\n        /* \"#utility.yul\":7065:7081   */\n      add\n        /* \"#utility.yul\":7030:7095   */\n      tag_110\n      jump\t// in\n    tag_216:\n        /* \"#utility.yul\":7120:7126   */\n      dup1\n        /* \"#utility.yul\":7115:7118   */\n      dup5\n        /* \"#utility.yul\":7111:7127   */\n      add\n        /* \"#utility.yul\":7104:7127   */\n      swap2\n      pop\n        /* \"#utility.yul\":6855:7133   */\n      pop\n        /* \"#utility.yul\":6747:7133   */\n      swap3\n      swap2\n      pop\n      pop\n      jump\t// out\n        /* \"#utility.yul\":7139:7566   */\n    tag_75:\n        /* \"#utility.yul\":7315:7318   */\n      0x00\n        /* \"#utility.yul\":7337:7430   */\n      tag_218\n        /* \"#utility.yul\":7426:7429   */\n      dup3\n        /* \"#utility.yul\":7417:7423   */\n      dup6\n        /* \"#utility.yul\":7337:7430   */\n      tag_129\n      jump\t// in\n    tag_218:\n        /* \"#utility.yul\":7330:7430   */\n      swap2\n      pop\n        /* \"#utility.yul\":7447:7540   */\n      tag_219\n        /* \"#utility.yul\":7536:7539   */\n      dup3\n        /* \"#utility.yul\":7527:7533   */\n      dup5\n        /* \"#utility.yul\":7447:7540   */\n      tag_129\n      jump\t// in\n    tag_219:\n        /* \"#utility.yul\":7440:7540   */\n      swap2\n      pop\n        /* \"#utility.yul\":7557:7560   */\n      dup2\n        /* \"#utility.yul\":7550:7560   */\n      swap1\n      pop\n        /* \"#utility.yul\":7139:7566   */\n      swap4\n      swap3\n      pop\n      pop\n      pop\n      jump\t// out\n    stop\n\n    sub_0: assembly {\n            /* \"shoot/3/create_create2\\xe8\\xae\\xa1\\xe7\\xae\\x97/1.sol\":129:412  contract disposal {... */\n          mstore(0x40, 0x80)\n            /* \"shoot/3/create_create2\\xe8\\xae\\xa1\\xe7\\xae\\x97/1.sol\":208:304  constructor(address _owner) payable {... */\n          mload(0x40)\n          sub(codesize, bytecodeSize)\n          dup1\n          bytecodeSize\n          dup4\n          codecopy\n          dup2\n          dup2\n          add\n          0x40\n          mstore\n          dup2\n          add\n          swap1\n          tag_1\n          swap2\n          swap1\n          tag_2\n          jump\t// in\n        tag_1:\n            /* \"shoot/3/create_create2\\xe8\\xae\\xa1\\xe7\\xae\\x97/1.sol\":263:269  _owner */\n          dup1\n            /* \"shoot/3/create_create2\\xe8\\xae\\xa1\\xe7\\xae\\x97/1.sol\":255:260  owner */\n          0x00\n          dup1\n            /* \"shoot/3/create_create2\\xe8\\xae\\xa1\\xe7\\xae\\x97/1.sol\":255:269  owner = _owner */\n          0x0100\n          exp\n          dup2\n          sload\n          dup2\n          0xffffffffffffffffffffffffffffffffffffffff\n          mul\n          not\n          and\n          swap1\n          dup4\n          0xffffffffffffffffffffffffffffffffffffffff\n          and\n          mul\n          or\n          swap1\n          sstore\n          pop\n            /* \"shoot/3/create_create2\\xe8\\xae\\xa1\\xe7\\xae\\x97/1.sol\":286:296  msg.sender */\n          caller\n            /* \"shoot/3/create_create2\\xe8\\xae\\xa1\\xe7\\xae\\x97/1.sol\":280:283  dep */\n          0x01\n          0x00\n            /* \"shoot/3/create_create2\\xe8\\xae\\xa1\\xe7\\xae\\x97/1.sol\":280:296  dep = msg.sender */\n          0x0100\n          exp\n          dup2\n          sload\n          dup2\n          0xffffffffffffffffffffffffffffffffffffffff\n          mul\n          not\n          and\n          swap1\n          dup4\n          0xffffffffffffffffffffffffffffffffffffffff\n          and\n          mul\n          or\n          swap1\n          sstore\n          pop\n            /* \"shoot/3/create_create2\\xe8\\xae\\xa1\\xe7\\xae\\x97/1.sol\":208:304  constructor(address _owner) payable {... */\n          pop\n            /* \"shoot/3/create_create2\\xe8\\xae\\xa1\\xe7\\xae\\x97/1.sol\":129:412  contract disposal {... */\n          jump(tag_5)\n            /* \"#utility.yul\":88:205   */\n        tag_7:\n            /* \"#utility.yul\":197:198   */\n          0x00\n            /* \"#utility.yul\":194:195   */\n          dup1\n            /* \"#utility.yul\":187:199   */\n          revert\n            /* \"#utility.yul\":334:460   */\n        tag_9:\n            /* \"#utility.yul\":371:378   */\n          0x00\n            /* \"#utility.yul\":411:453   */\n          0xffffffffffffffffffffffffffffffffffffffff\n            /* \"#utility.yul\":404:409   */\n          dup3\n            /* \"#utility.yul\":400:454   */\n          and\n            /* \"#utility.yul\":389:454   */\n          swap1\n          pop\n            /* \"#utility.yul\":334:460   */\n          swap2\n          swap1\n          pop\n          jump\t// out\n            /* \"#utility.yul\":466:562   */\n        tag_10:\n            /* \"#utility.yul\":503:510   */\n          0x00\n            /* \"#utility.yul\":532:556   */\n          tag_19\n            /* \"#utility.yul\":550:555   */\n          dup3\n            /* \"#utility.yul\":532:556   */\n          tag_9\n          jump\t// in\n        tag_19:\n            /* \"#utility.yul\":521:556   */\n          swap1\n          pop\n            /* \"#utility.yul\":466:562   */\n          swap2\n          swap1\n          pop\n          jump\t// out\n            /* \"#utility.yul\":568:690   */\n        tag_11:\n            /* \"#utility.yul\":641:665   */\n          tag_21\n            /* \"#utility.yul\":659:664   */\n          dup2\n            /* \"#utility.yul\":641:665   */\n          tag_10\n          jump\t// in\n        tag_21:\n            /* \"#utility.yul\":634:639   */\n          dup2\n            /* \"#utility.yul\":631:666   */\n          eq\n            /* \"#utility.yul\":621:684   */\n          tag_22\n          jumpi\n            /* \"#utility.yul\":680:681   */\n          0x00\n            /* \"#utility.yul\":677:678   */\n          dup1\n            /* \"#utility.yul\":670:682   */\n          revert\n            /* \"#utility.yul\":621:684   */\n        tag_22:\n            /* \"#utility.yul\":568:690   */\n          pop\n          jump\t// out\n            /* \"#utility.yul\":696:839   */\n        tag_12:\n            /* \"#utility.yul\":753:758   */\n          0x00\n            /* \"#utility.yul\":784:790   */\n          dup2\n            /* \"#utility.yul\":778:791   */\n          mload\n            /* \"#utility.yul\":769:791   */\n          swap1\n          pop\n            /* \"#utility.yul\":800:833   */\n          tag_24\n            /* \"#utility.yul\":827:832   */\n          dup2\n            /* \"#utility.yul\":800:833   */\n          tag_11\n          jump\t// in\n        tag_24:\n            /* \"#utility.yul\":696:839   */\n          swap3\n          swap2\n          pop\n          pop\n          jump\t// out\n            /* \"#utility.yul\":845:1196   */\n        tag_2:\n            /* \"#utility.yul\":915:921   */\n          0x00\n            /* \"#utility.yul\":964:966   */\n          0x20\n            /* \"#utility.yul\":952:961   */\n          dup3\n            /* \"#utility.yul\":943:950   */\n          dup5\n            /* \"#utility.yul\":939:962   */\n          sub\n            /* \"#utility.yul\":935:967   */\n          slt\n            /* \"#utility.yul\":932:1051   */\n          iszero\n          tag_26\n          jumpi\n            /* \"#utility.yul\":970:1049   */\n          tag_27\n          tag_7\n          jump\t// in\n        tag_27:\n            /* \"#utility.yul\":932:1051   */\n        tag_26:\n            /* \"#utility.yul\":1090:1091   */\n          0x00\n            /* \"#utility.yul\":1115:1179   */\n          tag_28\n            /* \"#utility.yul\":1171:1178   */\n          dup5\n            /* \"#utility.yul\":1162:1168   */\n          dup3\n            /* \"#utility.yul\":1151:1160   */\n          dup6\n            /* \"#utility.yul\":1147:1169   */\n          add\n            /* \"#utility.yul\":1115:1179   */\n          tag_12\n          jump\t// in\n        tag_28:\n            /* \"#utility.yul\":1105:1179   */\n          swap2\n          pop\n            /* \"#utility.yul\":1061:1189   */\n          pop\n            /* \"#utility.yul\":845:1196   */\n          swap3\n          swap2\n          pop\n          pop\n          jump\t// out\n            /* \"shoot/3/create_create2\\xe8\\xae\\xa1\\xe7\\xae\\x97/1.sol\":129:412  contract disposal {... */\n        tag_5:\n          dataSize(sub_0)\n          dup1\n          dataOffset(sub_0)\n          0x00\n          codecopy\n          0x00\n          return\n        stop\n\n        sub_0: assembly {\n                /* \"shoot/3/create_create2\\xe8\\xae\\xa1\\xe7\\xae\\x97/1.sol\":129:412  contract disposal {... */\n              mstore(0x40, 0x80)\n              callvalue\n              dup1\n              iszero\n              tag_1\n              jumpi\n              0x00\n              dup1\n              revert\n            tag_1:\n              pop\n              jumpi(tag_2, lt(calldatasize, 0x04))\n              shr(0xe0, calldataload(0x00))\n              dup1\n              0x3ccfd60b\n              eq\n              tag_3\n              jumpi\n              dup1\n              0x855a0fe3\n              eq\n              tag_4\n              jumpi\n              dup1\n              0x8da5cb5b\n              eq\n              tag_5\n              jumpi\n            tag_2:\n              0x00\n              dup1\n              revert\n                /* \"shoot/3/create_create2\\xe8\\xae\\xa1\\xe7\\xae\\x97/1.sol\":312:409  function withdraw() public {... */\n            tag_3:\n              tag_6\n              tag_7\n              jump\t// in\n            tag_6:\n              stop\n                /* \"shoot/3/create_create2\\xe8\\xae\\xa1\\xe7\\xae\\x97/1.sol\":181:199  address public dep */\n            tag_4:\n              tag_8\n              tag_9\n              jump\t// in\n            tag_8:\n              mload(0x40)\n              tag_10\n              swap2\n              swap1\n              tag_11\n              jump\t// in\n            tag_10:\n              mload(0x40)\n              dup1\n              swap2\n              sub\n              swap1\n              return\n                /* \"shoot/3/create_create2\\xe8\\xae\\xa1\\xe7\\xae\\x97/1.sol\":154:174  address public owner */\n            tag_5:\n              tag_12\n              tag_13\n              jump\t// in\n            tag_12:\n              mload(0x40)\n              tag_14\n              swap2\n              swap1\n              tag_11\n              jump\t// in\n            tag_14:\n              mload(0x40)\n              dup1\n              swap2\n              sub\n              swap1\n              return\n                /* \"shoot/3/create_create2\\xe8\\xae\\xa1\\xe7\\xae\\x97/1.sol\":312:409  function withdraw() public {... */\n            tag_7:\n                /* \"shoot/3/create_create2\\xe8\\xae\\xa1\\xe7\\xae\\x97/1.sol\":358:368  msg.sender */\n              caller\n                /* \"shoot/3/create_create2\\xe8\\xae\\xa1\\xe7\\xae\\x97/1.sol\":350:378  payable(msg.sender).transfer */\n              0xffffffffffffffffffffffffffffffffffffffff\n              and\n                /* \"shoot/3/create_create2\\xe8\\xae\\xa1\\xe7\\xae\\x97/1.sol\":350:401  payable(msg.sender).transfer(address(this).balance) */\n              0x08fc\n                /* \"shoot/3/create_create2\\xe8\\xae\\xa1\\xe7\\xae\\x97/1.sol\":379:400  address(this).balance */\n              selfbalance\n                /* \"shoot/3/create_create2\\xe8\\xae\\xa1\\xe7\\xae\\x97/1.sol\":350:401  payable(msg.sender).transfer(address(this).balance) */\n              swap1\n              dup2\n              iszero\n              mul\n              swap1\n              mload(0x40)\n              0x00\n              mload(0x40)\n              dup1\n              dup4\n              sub\n              dup2\n              dup6\n              dup9\n              dup9\n              call\n              swap4\n              pop\n              pop\n              pop\n              pop\n              iszero\n              dup1\n              iszero\n              tag_17\n              jumpi\n              returndatasize\n              0x00\n              dup1\n              returndatacopy\n              revert(0x00, returndatasize)\n            tag_17:\n              pop\n                /* \"shoot/3/create_create2\\xe8\\xae\\xa1\\xe7\\xae\\x97/1.sol\":312:409  function withdraw() public {... */\n              jump\t// out\n                /* \"shoot/3/create_create2\\xe8\\xae\\xa1\\xe7\\xae\\x97/1.sol\":181:199  address public dep */\n            tag_9:\n              0x01\n              0x00\n              swap1\n              sload\n              swap1\n              0x0100\n              exp\n              swap1\n              div\n              0xffffffffffffffffffffffffffffffffffffffff\n              and\n              dup2\n              jump\t// out\n                /* \"shoot/3/create_create2\\xe8\\xae\\xa1\\xe7\\xae\\x97/1.sol\":154:174  address public owner */\n            tag_13:\n              0x00\n              dup1\n              sload\n              swap1\n              0x0100\n              exp\n              swap1\n              div\n              0xffffffffffffffffffffffffffffffffffffffff\n              and\n              dup2\n              jump\t// out\n                /* \"#utility.yul\":7:133   */\n            tag_18:\n                /* \"#utility.yul\":44:51   */\n              0x00\n                /* \"#utility.yul\":84:126   */\n              0xffffffffffffffffffffffffffffffffffffffff\n                /* \"#utility.yul\":77:82   */\n              dup3\n                /* \"#utility.yul\":73:127   */\n              and\n                /* \"#utility.yul\":62:127   */\n              swap1\n              pop\n                /* \"#utility.yul\":7:133   */\n              swap2\n              swap1\n              pop\n              jump\t// out\n                /* \"#utility.yul\":139:235   */\n            tag_19:\n                /* \"#utility.yul\":176:183   */\n              0x00\n                /* \"#utility.yul\":205:229   */\n              tag_24\n                /* \"#utility.yul\":223:228   */\n              dup3\n                /* \"#utility.yul\":205:229   */\n              tag_18\n              jump\t// in\n            tag_24:\n                /* \"#utility.yul\":194:229   */\n              swap1\n              pop\n                /* \"#utility.yul\":139:235   */\n              swap2\n              swap1\n              pop\n              jump\t// out\n                /* \"#utility.yul\":241:359   */\n            tag_20:\n                /* \"#utility.yul\":328:352   */\n              tag_26\n                /* \"#utility.yul\":346:351   */\n              dup2\n                /* \"#utility.yul\":328:352   */\n              tag_19\n              jump\t// in\n            tag_26:\n                /* \"#utility.yul\":323:326   */\n              dup3\n                /* \"#utility.yul\":316:353   */\n              mstore\n                /* \"#utility.yul\":241:359   */\n              pop\n              pop\n              jump\t// out\n                /* \"#utility.yul\":365:587   */\n            tag_11:\n                /* \"#utility.yul\":458:462   */\n              0x00\n                /* \"#utility.yul\":496:498   */\n              0x20\n                /* \"#utility.yul\":485:494   */\n              dup3\n                /* \"#utility.yul\":481:499   */\n              add\n                /* \"#utility.yul\":473:499   */\n              swap1\n              pop\n                /* \"#utility.yul\":509:580   */\n              tag_28\n                /* \"#utility.yul\":577:578   */\n              0x00\n                /* \"#utility.yul\":566:575   */\n              dup4\n                /* \"#utility.yul\":562:579   */\n              add\n                /* \"#utility.yul\":553:559   */\n              dup5\n                /* \"#utility.yul\":509:580   */\n              tag_20\n              jump\t// in\n            tag_28:\n                /* \"#utility.yul\":365:587   */\n              swap3\n              swap2\n              pop\n              pop\n              jump\t// out\n\n            auxdata: 0xa2646970667358221220ffd9251a7a54fe8e69cb945a5da505eefcdae8febc26bf7d446d39821286461f64736f6c63430008150033\n        }\n    }\n\n    sub_1: assembly {\n            /* \"shoot/3/create_create2\\xe8\\xae\\xa1\\xe7\\xae\\x97/1.sol\":416:566  contract deployer {... */\n          mstore(0x40, 0x80)\n            /* \"shoot/3/create_create2\\xe8\\xae\\xa1\\xe7\\xae\\x97/1.sol\":441:563  constructor(bytes32 salt) payable {... */\n          mload(0x40)\n          sub(codesize, bytecodeSize)\n          dup1\n          bytecodeSize\n          dup4\n          codecopy\n          dup2\n          dup2\n          add\n          0x40\n          mstore\n          dup2\n          add\n          swap1\n          tag_1\n          swap2\n          swap1\n          tag_2\n          jump\t// in\n        tag_1:\n            /* \"shoot/3/create_create2\\xe8\\xae\\xa1\\xe7\\xae\\x97/1.sol\":486:498  disposal dis */\n          0x00\n            /* \"shoot/3/create_create2\\xe8\\xae\\xa1\\xe7\\xae\\x97/1.sol\":521:530  msg.value */\n          callvalue\n            /* \"shoot/3/create_create2\\xe8\\xae\\xa1\\xe7\\xae\\x97/1.sol\":538:542  salt */\n          dup3\n            /* \"shoot/3/create_create2\\xe8\\xae\\xa1\\xe7\\xae\\x97/1.sol\":501:555  new disposal{value: msg.value, salt: salt}(msg.sender) */\n          swap1\n            /* \"shoot/3/create_create2\\xe8\\xae\\xa1\\xe7\\xae\\x97/1.sol\":544:554  msg.sender */\n          caller\n            /* \"shoot/3/create_create2\\xe8\\xae\\xa1\\xe7\\xae\\x97/1.sol\":501:555  new disposal{value: msg.value, salt: salt}(msg.sender) */\n          mload(0x40)\n          tag_5\n          swap1\n          tag_6\n          jump\t// in\n        tag_5:\n          tag_7\n          swap2\n          swap1\n          tag_8\n          jump\t// in\n        tag_7:\n          dup3\n          swap1\n          mload(0x40)\n          dup1\n          swap2\n          sub\n          swap1\n          dup4\n          create2\n          swap1\n          pop\n          swap1\n          pop\n          dup1\n          iszero\n          dup1\n          iszero\n          tag_9\n          jumpi\n          returndatasize\n          0x00\n          dup1\n          returndatacopy\n          revert(0x00, returndatasize)\n        tag_9:\n          pop\n            /* \"shoot/3/create_create2\\xe8\\xae\\xa1\\xe7\\xae\\x97/1.sol\":486:555  disposal dis = new disposal{value: msg.value, salt: salt}(msg.sender) */\n          swap1\n          pop\n            /* \"shoot/3/create_create2\\xe8\\xae\\xa1\\xe7\\xae\\x97/1.sol\":475:563  {... */\n          pop\n            /* \"shoot/3/create_create2\\xe8\\xae\\xa1\\xe7\\xae\\x97/1.sol\":441:563  constructor(bytes32 salt) payable {... */\n          pop\n            /* \"shoot/3/create_create2\\xe8\\xae\\xa1\\xe7\\xae\\x97/1.sol\":416:566  contract deployer {... */\n          jump(tag_10)\n        tag_6:\n          dataSize(sub_1)\n          dup1\n          dataOffset(sub_1)\n          dup4\n          codecopy\n          add\n          swap1\n          jump\t// out\n            /* \"#utility.yul\":88:205   */\n        tag_12:\n            /* \"#utility.yul\":197:198   */\n          0x00\n            /* \"#utility.yul\":194:195   */\n          dup1\n            /* \"#utility.yul\":187:199   */\n          revert\n            /* \"#utility.yul\":334:411   */\n        tag_14:\n            /* \"#utility.yul\":371:378   */\n          0x00\n            /* \"#utility.yul\":400:405   */\n          dup2\n            /* \"#utility.yul\":389:405   */\n          swap1\n          pop\n            /* \"#utility.yul\":334:411   */\n          swap2\n          swap1\n          pop\n          jump\t// out\n            /* \"#utility.yul\":417:539   */\n        tag_15:\n            /* \"#utility.yul\":490:514   */\n          tag_26\n            /* \"#utility.yul\":508:513   */\n          dup2\n            /* \"#utility.yul\":490:514   */\n          tag_14\n          jump\t// in\n        tag_26:\n            /* \"#utility.yul\":483:488   */\n          dup2\n            /* \"#utility.yul\":480:515   */\n          eq\n            /* \"#utility.yul\":470:533   */\n          tag_27\n          jumpi\n            /* \"#utility.yul\":529:530   */\n          0x00\n            /* \"#utility.yul\":526:527   */\n          dup1\n            /* \"#utility.yul\":519:531   */\n          revert\n            /* \"#utility.yul\":470:533   */\n        tag_27:\n            /* \"#utility.yul\":417:539   */\n          pop\n          jump\t// out\n            /* \"#utility.yul\":545:688   */\n        tag_16:\n            /* \"#utility.yul\":602:607   */\n          0x00\n            /* \"#utility.yul\":633:639   */\n          dup2\n            /* \"#utility.yul\":627:640   */\n          mload\n            /* \"#utility.yul\":618:640   */\n          swap1\n          pop\n            /* \"#utility.yul\":649:682   */\n          tag_29\n            /* \"#utility.yul\":676:681   */\n          dup2\n            /* \"#utility.yul\":649:682   */\n          tag_15\n          jump\t// in\n        tag_29:\n            /* \"#utility.yul\":545:688   */\n          swap3\n          swap2\n          pop\n          pop\n          jump\t// out\n            /* \"#utility.yul\":694:1045   */\n        tag_2:\n            /* \"#utility.yul\":764:770   */\n          0x00\n            /* \"#utility.yul\":813:815   */\n          0x20\n            /* \"#utility.yul\":801:810   */\n          dup3\n            /* \"#utility.yul\":792:799   */\n          dup5\n            /* \"#utility.yul\":788:811   */\n          sub\n            /* \"#utility.yul\":784:816   */\n          slt\n            /* \"#utility.yul\":781:900   */\n          iszero\n          tag_31\n          jumpi\n            /* \"#utility.yul\":819:898   */\n          tag_32\n          tag_12\n          jump\t// in\n        tag_32:\n            /* \"#utility.yul\":781:900   */\n        tag_31:\n            /* \"#utility.yul\":939:940   */\n          0x00\n            /* \"#utility.yul\":964:1028   */\n          tag_33\n            /* \"#utility.yul\":1020:1027   */\n          dup5\n            /* \"#utility.yul\":1011:1017   */\n          dup3\n            /* \"#utility.yul\":1000:1009   */\n          dup6\n            /* \"#utility.yul\":996:1018   */\n          add\n            /* \"#utility.yul\":964:1028   */\n          tag_16\n          jump\t// in\n        tag_33:\n            /* \"#utility.yul\":954:1028   */\n          swap2\n          pop\n            /* \"#utility.yul\":910:1038   */\n          pop\n            /* \"#utility.yul\":694:1045   */\n          swap3\n          swap2\n          pop\n          pop\n          jump\t// out\n            /* \"#utility.yul\":1051:1177   */\n        tag_17:\n            /* \"#utility.yul\":1088:1095   */\n          0x00\n            /* \"#utility.yul\":1128:1170   */\n          0xffffffffffffffffffffffffffffffffffffffff\n            /* \"#utility.yul\":1121:1126   */\n          dup3\n            /* \"#utility.yul\":1117:1171   */\n          and\n            /* \"#utility.yul\":1106:1171   */\n          swap1\n          pop\n            /* \"#utility.yul\":1051:1177   */\n          swap2\n          swap1\n          pop\n          jump\t// out\n            /* \"#utility.yul\":1183:1279   */\n        tag_18:\n            /* \"#utility.yul\":1220:1227   */\n          0x00\n            /* \"#utility.yul\":1249:1273   */\n          tag_36\n            /* \"#utility.yul\":1267:1272   */\n          dup3\n            /* \"#utility.yul\":1249:1273   */\n          tag_17\n          jump\t// in\n        tag_36:\n            /* \"#utility.yul\":1238:1273   */\n          swap1\n          pop\n            /* \"#utility.yul\":1183:1279   */\n          swap2\n          swap1\n          pop\n          jump\t// out\n            /* \"#utility.yul\":1285:1403   */\n        tag_19:\n            /* \"#utility.yul\":1372:1396   */\n          tag_38\n            /* \"#utility.yul\":1390:1395   */\n          dup2\n            /* \"#utility.yul\":1372:1396   */\n          tag_18\n          jump\t// in\n        tag_38:\n            /* \"#utility.yul\":1367:1370   */\n          dup3\n            /* \"#utility.yul\":1360:1397   */\n          mstore\n            /* \"#utility.yul\":1285:1403   */\n          pop\n          pop\n          jump\t// out\n            /* \"#utility.yul\":1409:1631   */\n        tag_8:\n            /* \"#utility.yul\":1502:1506   */\n          0x00\n            /* \"#utility.yul\":1540:1542   */\n          0x20\n            /* \"#utility.yul\":1529:1538   */\n          dup3\n            /* \"#utility.yul\":1525:1543   */\n          add\n            /* \"#utility.yul\":1517:1543   */\n          swap1\n          pop\n            /* \"#utility.yul\":1553:1624   */\n          tag_40\n            /* \"#utility.yul\":1621:1622   */\n          0x00\n            /* \"#utility.yul\":1610:1619   */\n          dup4\n            /* \"#utility.yul\":1606:1623   */\n          add\n            /* \"#utility.yul\":1597:1603   */\n          dup5\n            /* \"#utility.yul\":1553:1624   */\n          tag_19\n          jump\t// in\n        tag_40:\n            /* \"#utility.yul\":1409:1631   */\n          swap3\n          swap2\n          pop\n          pop\n          jump\t// out\n            /* \"shoot/3/create_create2\\xe8\\xae\\xa1\\xe7\\xae\\x97/1.sol\":416:566  contract deployer {... */\n        tag_10:\n          dataSize(sub_0)\n          dup1\n          dataOffset(sub_0)\n          0x00\n          codecopy\n          0x00\n          return\n        stop\n\n        sub_0: assembly {\n                /* \"shoot/3/create_create2\\xe8\\xae\\xa1\\xe7\\xae\\x97/1.sol\":416:566  contract deployer {... */\n              mstore(0x40, 0x80)\n              0x00\n              dup1\n              revert\n\n            auxdata: 0xa26469706673582212201d15cb2a6a194f9eda61fde5893ae3833819f89b5c1661b0550edc06fc9be0a064736f6c63430008150033\n        }\n\n        sub_1: assembly {\n                /* \"shoot/3/create_create2\\xe8\\xae\\xa1\\xe7\\xae\\x97/1.sol\":129:412  contract disposal {... */\n              mstore(0x40, 0x80)\n                /* \"shoot/3/create_create2\\xe8\\xae\\xa1\\xe7\\xae\\x97/1.sol\":208:304  constructor(address _owner) payable {... */\n              mload(0x40)\n              sub(codesize, bytecodeSize)\n              dup1\n              bytecodeSize\n              dup4\n              codecopy\n              dup2\n              dup2\n              add\n              0x40\n              mstore\n              dup2\n              add\n              swap1\n              tag_1\n              swap2\n              swap1\n              tag_2\n              jump\t// in\n            tag_1:\n                /* \"shoot/3/create_create2\\xe8\\xae\\xa1\\xe7\\xae\\x97/1.sol\":263:269  _owner */\n              dup1\n                /* \"shoot/3/create_create2\\xe8\\xae\\xa1\\xe7\\xae\\x97/1.sol\":255:260  owner */\n              0x00\n              dup1\n                /* \"shoot/3/create_create2\\xe8\\xae\\xa1\\xe7\\xae\\x97/1.sol\":255:269  owner = _owner */\n              0x0100\n              exp\n              dup2\n              sload\n              dup2\n              0xffffffffffffffffffffffffffffffffffffffff\n              mul\n              not\n              and\n              swap1\n              dup4\n              0xffffffffffffffffffffffffffffffffffffffff\n              and\n              mul\n              or\n              swap1\n              sstore\n              pop\n                /* \"shoot/3/create_create2\\xe8\\xae\\xa1\\xe7\\xae\\x97/1.sol\":286:296  msg.sender */\n              caller\n                /* \"shoot/3/create_create2\\xe8\\xae\\xa1\\xe7\\xae\\x97/1.sol\":280:283  dep */\n              0x01\n              0x00\n                /* \"shoot/3/create_create2\\xe8\\xae\\xa1\\xe7\\xae\\x97/1.sol\":280:296  dep = msg.sender */\n              0x0100\n              exp\n              dup2\n              sload\n              dup2\n              0xffffffffffffffffffffffffffffffffffffffff\n              mul\n              not\n              and\n              swap1\n              dup4\n              0xffffffffffffffffffffffffffffffffffffffff\n              and\n              mul\n              or\n              swap1\n              sstore\n              pop\n                /* \"shoot/3/create_create2\\xe8\\xae\\xa1\\xe7\\xae\\x97/1.sol\":208:304  constructor(address _owner) payable {... */\n              pop\n                /* \"shoot/3/create_create2\\xe8\\xae\\xa1\\xe7\\xae\\x97/1.sol\":129:412  contract disposal {... */\n              jump(tag_5)\n                /* \"#utility.yul\":88:205   */\n            tag_7:\n                /* \"#utility.yul\":197:198   */\n              0x00\n                /* \"#utility.yul\":194:195   */\n              dup1\n                /* \"#utility.yul\":187:199   */\n              revert\n                /* \"#utility.yul\":334:460   */\n            tag_9:\n                /* \"#utility.yul\":371:378   */\n              0x00\n                /* \"#utility.yul\":411:453   */\n              0xffffffffffffffffffffffffffffffffffffffff\n                /* \"#utility.yul\":404:409   */\n              dup3\n                /* \"#utility.yul\":400:454   */\n              and\n                /* \"#utility.yul\":389:454   */\n              swap1\n              pop\n                /* \"#utility.yul\":334:460   */\n              swap2\n              swap1\n              pop\n              jump\t// out\n                /* \"#utility.yul\":466:562   */\n            tag_10:\n                /* \"#utility.yul\":503:510   */\n              0x00\n                /* \"#utility.yul\":532:556   */\n              tag_19\n                /* \"#utility.yul\":550:555   */\n              dup3\n                /* \"#utility.yul\":532:556   */\n              tag_9\n              jump\t// in\n            tag_19:\n                /* \"#utility.yul\":521:556   */\n              swap1\n              pop\n                /* \"#utility.yul\":466:562   */\n              swap2\n              swap1\n              pop\n              jump\t// out\n                /* \"#utility.yul\":568:690   */\n            tag_11:\n                /* \"#utility.yul\":641:665   */\n              tag_21\n                /* \"#utility.yul\":659:664   */\n              dup2\n                /* \"#utility.yul\":641:665   */\n              tag_10\n              jump\t// in\n            tag_21:\n                /* \"#utility.yul\":634:639   */\n              dup2\n                /* \"#utility.yul\":631:666   */\n              eq\n                /* \"#utility.yul\":621:684   */\n              tag_22\n              jumpi\n                /* \"#utility.yul\":680:681   */\n              0x00\n                /* \"#utility.yul\":677:678   */\n              dup1\n                /* \"#utility.yul\":670:682   */\n              revert\n                /* \"#utility.yul\":621:684   */\n            tag_22:\n                /* \"#utility.yul\":568:690   */\n              pop\n              jump\t// out\n                /* \"#utility.yul\":696:839   */\n            tag_12:\n                /* \"#utility.yul\":753:758   */\n              0x00\n                /* \"#utility.yul\":784:790   */\n              dup2\n                /* \"#utility.yul\":778:791   */\n              mload\n                /* \"#utility.yul\":769:791   */\n              swap1\n              pop\n                /* \"#utility.yul\":800:833   */\n              tag_24\n                /* \"#utility.yul\":827:832   */\n              dup2\n                /* \"#utility.yul\":800:833   */\n              tag_11\n              jump\t// in\n            tag_24:\n                /* \"#utility.yul\":696:839   */\n              swap3\n              swap2\n              pop\n              pop\n              jump\t// out\n                /* \"#utility.yul\":845:1196   */\n            tag_2:\n                /* \"#utility.yul\":915:921   */\n              0x00\n                /* \"#utility.yul\":964:966   */\n              0x20\n                /* \"#utility.yul\":952:961   */\n              dup3\n                /* \"#utility.yul\":943:950   */\n              dup5\n                /* \"#utility.yul\":939:962   */\n              sub\n                /* \"#utility.yul\":935:967   */\n              slt\n                /* \"#utility.yul\":932:1051   */\n              iszero\n              tag_26\n              jumpi\n                /* \"#utility.yul\":970:1049   */\n              tag_27\n              tag_7\n              jump\t// in\n            tag_27:\n                /* \"#utility.yul\":932:1051   */\n            tag_26:\n                /* \"#utility.yul\":1090:1091   */\n              0x00\n                /* \"#utility.yul\":1115:1179   */\n              tag_28\n                /* \"#utility.yul\":1171:1178   */\n              dup5\n                /* \"#utility.yul\":1162:1168   */\n              dup3\n                /* \"#utility.yul\":1151:1160   */\n              dup6\n                /* \"#utility.yul\":1147:1169   */\n              add\n                /* \"#utility.yul\":1115:1179   */\n              tag_12\n              jump\t// in\n            tag_28:\n                /* \"#utility.yul\":1105:1179   */\n              swap2\n              pop\n                /* \"#utility.yul\":1061:1189   */\n              pop\n                /* \"#utility.yul\":845:1196   */\n              swap3\n              swap2\n              pop\n              pop\n              jump\t// out\n                /* \"shoot/3/create_create2\\xe8\\xae\\xa1\\xe7\\xae\\x97/1.sol\":129:412  contract disposal {... */\n            tag_5:\n              dataSize(sub_0)\n              dup1\n              dataOffset(sub_0)\n              0x00\n              codecopy\n              0x00\n              return\n            stop\n\n            sub_0: assembly {\n                    /* \"shoot/3/create_create2\\xe8\\xae\\xa1\\xe7\\xae\\x97/1.sol\":129:412  contract disposal {... */\n                  mstore(0x40, 0x80)\n                  callvalue\n                  dup1\n                  iszero\n                  tag_1\n                  jumpi\n                  0x00\n                  dup1\n                  revert\n                tag_1:\n                  pop\n                  jumpi(tag_2, lt(calldatasize, 0x04))\n                  shr(0xe0, calldataload(0x00))\n                  dup1\n                  0x3ccfd60b\n                  eq\n                  tag_3\n                  jumpi\n                  dup1\n                  0x855a0fe3\n                  eq\n                  tag_4\n                  jumpi\n                  dup1\n                  0x8da5cb5b\n                  eq\n                  tag_5\n                  jumpi\n                tag_2:\n                  0x00\n                  dup1\n                  revert\n                    /* \"shoot/3/create_create2\\xe8\\xae\\xa1\\xe7\\xae\\x97/1.sol\":312:409  function withdraw() public {... */\n                tag_3:\n                  tag_6\n                  tag_7\n                  jump\t// in\n                tag_6:\n                  stop\n                    /* \"shoot/3/create_create2\\xe8\\xae\\xa1\\xe7\\xae\\x97/1.sol\":181:199  address public dep */\n                tag_4:\n                  tag_8\n                  tag_9\n                  jump\t// in\n                tag_8:\n                  mload(0x40)\n                  tag_10\n                  swap2\n                  swap1\n                  tag_11\n                  jump\t// in\n                tag_10:\n                  mload(0x40)\n                  dup1\n                  swap2\n                  sub\n                  swap1\n                  return\n                    /* \"shoot/3/create_create2\\xe8\\xae\\xa1\\xe7\\xae\\x97/1.sol\":154:174  address public owner */\n                tag_5:\n                  tag_12\n                  tag_13\n                  jump\t// in\n                tag_12:\n                  mload(0x40)\n                  tag_14\n                  swap2\n                  swap1\n                  tag_11\n                  jump\t// in\n                tag_14:\n                  mload(0x40)\n                  dup1\n                  swap2\n                  sub\n                  swap1\n                  return\n                    /* \"shoot/3/create_create2\\xe8\\xae\\xa1\\xe7\\xae\\x97/1.sol\":312:409  function withdraw() public {... */\n                tag_7:\n                    /* \"shoot/3/create_create2\\xe8\\xae\\xa1\\xe7\\xae\\x97/1.sol\":358:368  msg.sender */\n                  caller\n                    /* \"shoot/3/create_create2\\xe8\\xae\\xa1\\xe7\\xae\\x97/1.sol\":350:378  payable(msg.sender).transfer */\n                  0xffffffffffffffffffffffffffffffffffffffff\n                  and\n                    /* \"shoot/3/create_create2\\xe8\\xae\\xa1\\xe7\\xae\\x97/1.sol\":350:401  payable(msg.sender).transfer(address(this).balance) */\n                  0x08fc\n                    /* \"shoot/3/create_create2\\xe8\\xae\\xa1\\xe7\\xae\\x97/1.sol\":379:400  address(this).balance */\n                  selfbalance\n                    /* \"shoot/3/create_create2\\xe8\\xae\\xa1\\xe7\\xae\\x97/1.sol\":350:401  payable(msg.sender).transfer(address(this).balance) */\n                  swap1\n                  dup2\n                  iszero\n                  mul\n                  swap1\n                  mload(0x40)\n                  0x00\n                  mload(0x40)\n                  dup1\n                  dup4\n                  sub\n                  dup2\n                  dup6\n                  dup9\n                  dup9\n                  call\n                  swap4\n                  pop\n                  pop\n                  pop\n                  pop\n                  iszero\n                  dup1\n                  iszero\n                  tag_17\n                  jumpi\n                  returndatasize\n                  0x00\n                  dup1\n                  returndatacopy\n                  revert(0x00, returndatasize)\n                tag_17:\n                  pop\n                    /* \"shoot/3/create_create2\\xe8\\xae\\xa1\\xe7\\xae\\x97/1.sol\":312:409  function withdraw() public {... */\n                  jump\t// out\n                    /* \"shoot/3/create_create2\\xe8\\xae\\xa1\\xe7\\xae\\x97/1.sol\":181:199  address public dep */\n                tag_9:\n                  0x01\n                  0x00\n                  swap1\n                  sload\n                  swap1\n                  0x0100\n                  exp\n                  swap1\n                  div\n                  0xffffffffffffffffffffffffffffffffffffffff\n                  and\n                  dup2\n                  jump\t// out\n                    /* \"shoot/3/create_create2\\xe8\\xae\\xa1\\xe7\\xae\\x97/1.sol\":154:174  address public owner */\n                tag_13:\n                  0x00\n                  dup1\n                  sload\n                  swap1\n                  0x0100\n                  exp\n                  swap1\n                  div\n                  0xffffffffffffffffffffffffffffffffffffffff\n                  and\n                  dup2\n                  jump\t// out\n                    /* \"#utility.yul\":7:133   */\n                tag_18:\n                    /* \"#utility.yul\":44:51   */\n                  0x00\n                    /* \"#utility.yul\":84:126   */\n                  0xffffffffffffffffffffffffffffffffffffffff\n                    /* \"#utility.yul\":77:82   */\n                  dup3\n                    /* \"#utility.yul\":73:127   */\n                  and\n                    /* \"#utility.yul\":62:127   */\n                  swap1\n                  pop\n                    /* \"#utility.yul\":7:133   */\n                  swap2\n                  swap1\n                  pop\n                  jump\t// out\n                    /* \"#utility.yul\":139:235   */\n                tag_19:\n                    /* \"#utility.yul\":176:183   */\n                  0x00\n                    /* \"#utility.yul\":205:229   */\n                  tag_24\n                    /* \"#utility.yul\":223:228   */\n                  dup3\n                    /* \"#utility.yul\":205:229   */\n                  tag_18\n                  jump\t// in\n                tag_24:\n                    /* \"#utility.yul\":194:229   */\n                  swap1\n                  pop\n                    /* \"#utility.yul\":139:235   */\n                  swap2\n                  swap1\n                  pop\n                  jump\t// out\n                    /* \"#utility.yul\":241:359   */\n                tag_20:\n                    /* \"#utility.yul\":328:352   */\n                  tag_26\n                    /* \"#utility.yul\":346:351   */\n                  dup2\n                    /* \"#utility.yul\":328:352   */\n                  tag_19\n                  jump\t// in\n                tag_26:\n                    /* \"#utility.yul\":323:326   */\n                  dup3\n                    /* \"#utility.yul\":316:353   */\n                  mstore\n                    /* \"#utility.yul\":241:359   */\n                  pop\n                  pop\n                  jump\t// out\n                    /* \"#utility.yul\":365:587   */\n                tag_11:\n                    /* \"#utility.yul\":458:462   */\n                  0x00\n                    /* \"#utility.yul\":496:498   */\n                  0x20\n                    /* \"#utility.yul\":485:494   */\n                  dup3\n                    /* \"#utility.yul\":481:499   */\n                  add\n                    /* \"#utility.yul\":473:499   */\n                  swap1\n                  pop\n                    /* \"#utility.yul\":509:580   */\n                  tag_28\n                    /* \"#utility.yul\":577:578   */\n                  0x00\n                    /* \"#utility.yul\":566:575   */\n                  dup4\n                    /* \"#utility.yul\":562:579   */\n                  add\n                    /* \"#utility.yul\":553:559   */\n                  dup5\n                    /* \"#utility.yul\":509:580   */\n                  tag_20\n                  jump\t// in\n                tag_28:\n                    /* \"#utility.yul\":365:587   */\n                  swap3\n                  swap2\n                  pop\n                  pop\n                  jump\t// out\n\n                auxdata: 0xa2646970667358221220ffd9251a7a54fe8e69cb945a5da505eefcdae8febc26bf7d446d39821286461f64736f6c63430008150033\n            }\n        }\n    }\n\n    auxdata: 0xa2646970667358221220c95608c1d9acdac7900f50baf2f771052462c2470fd58ab218128b727a72994264736f6c63430008150033\n}\n",
				"bytecode": {
					"linkReferences": {},
					"object": "608060405234801561000f575f80fd5b506040516111df3803806111df833981810160405281019061003191906100e5565b805f806101000a81548173ffffffffffffffffffffffffffffffffffffffff021916908373ffffffffffffffffffffffffffffffffffffffff16021790555050610110565b5f80fd5b5f73ffffffffffffffffffffffffffffffffffffffff82169050919050565b5f6100a38261007a565b9050919050565b5f6100b482610099565b9050919050565b6100c4816100aa565b81146100ce575f80fd5b50565b5f815190506100df816100bb565b92915050565b5f602082840312156100fa576100f9610076565b5b5f610107848285016100d1565b91505092915050565b6110c28061011d5f395ff3fe608060405260043610610089575f3560e01c806350f357531161005857806350f35753146101aa578063bfa0b133146101b4578063d11a61d7146101de578063e65586dd146101f4578063f300080f1461021e57610090565b80631c6a585f146100f05780631eb3dd151461011a57806338fbf2f1146101445780633ba9838c1461018057610090565b3661009057005b61009861025a565b73ffffffffffffffffffffffffffffffffffffffff16633ccfd60b6040518163ffffffff1660e01b81526004015f604051808303815f87803b1580156100dc575f80fd5b505af11580156100ee573d5f803e3d5ffd5b005b3480156100fb575f80fd5b5061010461025a565b60405161011191906105b0565b60405180910390f35b348015610125575f80fd5b5061012e6102ca565b60405161013b91906105e1565b60405180910390f35b34801561014f575f80fd5b5061016a60048036038101906101659190610628565b6102de565b60405161017791906106dd565b60405180910390f35b34801561018b575f80fd5b50610194610350565b6040516101a19190610717565b60405180910390f35b6101b26103ba565b005b3480156101bf575f80fd5b506101c861045e565b6040516101d591906105e1565b60405180910390f35b3480156101e9575f80fd5b506101f2610464565b005b3480156101ff575f80fd5b5061020861047a565b60405161021591906105b0565b60405180910390f35b348015610229575f80fd5b50610244600480360381019061023f919061075a565b6104e5565b60405161025191906106dd565b60405180910390f35b5f60ff60f81b61026861047a565b6001546102935f8054906101000a900473ffffffffffffffffffffffffffffffffffffffff166102de565b805190602001206040516020016102ad9493929190610835565b604051602081830303815290604052805190602001205f1c905090565b5f6002436102d891906108b8565b40905090565b60605f604051806020016102f190610557565b6020820181038252601f19601f820116604052509050808360405160200161031991906105b0565b604051602081830303815290604052604051602001610339929190610925565b604051602081830303815290604052915050919050565b5f61035961025a565b73ffffffffffffffffffffffffffffffffffffffff16633ccfd60b6040518163ffffffff1660e01b81526004015f604051808303815f87803b15801561039d575f80fd5b505af11580156103af573d5f803e3d5ffd5b505050506001905090565b6001436103c791906108b8565b406001819055505f8054906101000a900473ffffffffffffffffffffffffffffffffffffffff1673ffffffffffffffffffffffffffffffffffffffff1663030bd8c93461041261025a565b6040518363ffffffff1660e01b815260040161042e91906105b0565b5f604051808303818588803b158015610445575f80fd5b505af1158015610457573d5f803e3d5ffd5b5050505050565b60015481565b60014361047191906108b8565b40600181905550565b5f60ff60f81b5f8054906101000a900473ffffffffffffffffffffffffffffffffffffffff166001546104ae6001546104e5565b805190602001206040516020016104c89493929190610835565b604051602081830303815290604052805190602001205f1c905090565b60605f604051806020016104f890610564565b6020820181038252601f19601f820116604052509050808360405160200161052091906105e1565b604051602081830303815290604052604051602001610540929190610925565b604051602081830303815290604052915050919050565b6102e58061094983390190565b61045f80610c2e83390190565b5f73ffffffffffffffffffffffffffffffffffffffff82169050919050565b5f61059a82610571565b9050919050565b6105aa81610590565b82525050565b5f6020820190506105c35f8301846105a1565b92915050565b5f819050919050565b6105db816105c9565b82525050565b5f6020820190506105f45f8301846105d2565b92915050565b5f80fd5b61060781610590565b8114610611575f80fd5b50565b5f81359050610622816105fe565b92915050565b5f6020828403121561063d5761063c6105fa565b5b5f61064a84828501610614565b91505092915050565b5f81519050919050565b5f82825260208201905092915050565b5f5b8381101561068a57808201518184015260208101905061066f565b5f8484015250505050565b5f601f19601f8301169050919050565b5f6106af82610653565b6106b9818561065d565b93506106c981856020860161066d565b6106d281610695565b840191505092915050565b5f6020820190508181035f8301526106f581846106a5565b905092915050565b5f8115159050919050565b610711816106fd565b82525050565b5f60208201905061072a5f830184610708565b92915050565b610739816105c9565b8114610743575f80fd5b50565b5f8135905061075481610730565b92915050565b5f6020828403121561076f5761076e6105fa565b5b5f61077c84828501610746565b91505092915050565b5f7fff0000000000000000000000000000000000000000000000000000000000000082169050919050565b5f819050919050565b6107ca6107c582610785565b6107b0565b82525050565b5f8160601b9050919050565b5f6107e6826107d0565b9050919050565b5f6107f7826107dc565b9050919050565b61080f61080a82610590565b6107ed565b82525050565b5f819050919050565b61082f61082a826105c9565b610815565b82525050565b5f61084082876107b9565b60018201915061085082866107fe565b601482019150610860828561081e565b602082019150610870828461081e565b60208201915081905095945050505050565b5f819050919050565b7f4e487b71000000000000000000000000000000000000000000000000000000005f52601160045260245ffd5b5f6108c282610882565b91506108cd83610882565b92508282039050818111156108e5576108e461088b565b5b92915050565b5f81905092915050565b5f6108ff82610653565b61090981856108eb565b935061091981856020860161066d565b80840191505092915050565b5f61093082856108f5565b915061093c82846108f5565b9150819050939250505056fe60806040526040516102e53803806102e583398181016040528101906100259190610108565b805f806101000a81548173ffffffffffffffffffffffffffffffffffffffff021916908373ffffffffffffffffffffffffffffffffffffffff1602179055503360015f6101000a81548173ffffffffffffffffffffffffffffffffffffffff021916908373ffffffffffffffffffffffffffffffffffffffff16021790555050610133565b5f80fd5b5f73ffffffffffffffffffffffffffffffffffffffff82169050919050565b5f6100d7826100ae565b9050919050565b6100e7816100cd565b81146100f1575f80fd5b50565b5f81519050610102816100de565b92915050565b5f6020828403121561011d5761011c6100aa565b5b5f61012a848285016100f4565b91505092915050565b6101a5806101405f395ff3fe608060405234801561000f575f80fd5b506004361061003f575f3560e01c80633ccfd60b14610043578063855a0fe31461004d5780638da5cb5b1461006b575b5f80fd5b61004b610089565b005b6100556100cf565b6040516100629190610156565b60405180910390f35b6100736100f4565b6040516100809190610156565b60405180910390f35b3373ffffffffffffffffffffffffffffffffffffffff166108fc4790811502906040515f60405180830381858888f193505050501580156100cc573d5f803e3d5ffd5b50565b60015f9054906101000a900473ffffffffffffffffffffffffffffffffffffffff1681565b5f8054906101000a900473ffffffffffffffffffffffffffffffffffffffff1681565b5f73ffffffffffffffffffffffffffffffffffffffff82169050919050565b5f61014082610117565b9050919050565b61015081610136565b82525050565b5f6020820190506101695f830184610147565b9291505056fea2646970667358221220ffd9251a7a54fe8e69cb945a5da505eefcdae8febc26bf7d446d39821286461f64736f6c63430008150033608060405260405161045f38038061045f833981810160405281019061002591906100ad565b5f3482903360405161003690610069565b6100409190610117565b82906040518091039083f5905090508015801561005f573d5f803e3d5ffd5b5090505050610130565b6102e58061017a83390190565b5f80fd5b5f819050919050565b61008c8161007a565b8114610096575f80fd5b50565b5f815190506100a781610083565b92915050565b5f602082840312156100c2576100c1610076565b5b5f6100cf84828501610099565b91505092915050565b5f73ffffffffffffffffffffffffffffffffffffffff82169050919050565b5f610101826100d8565b9050919050565b610111816100f7565b82525050565b5f60208201905061012a5f830184610108565b92915050565b603e8061013c5f395ff3fe60806040525f80fdfea26469706673582212201d15cb2a6a194f9eda61fde5893ae3833819f89b5c1661b0550edc06fc9be0a064736f6c6343000815003360806040526040516102e53803806102e583398181016040528101906100259190610108565b805f806101000a81548173ffffffffffffffffffffffffffffffffffffffff021916908373ffffffffffffffffffffffffffffffffffffffff1602179055503360015f6101000a81548173ffffffffffffffffffffffffffffffffffffffff021916908373ffffffffffffffffffffffffffffffffffffffff16021790555050610133565b5f80fd5b5f73ffffffffffffffffffffffffffffffffffffffff82169050919050565b5f6100d7826100ae565b9050919050565b6100e7816100cd565b81146100f1575f80fd5b50565b5f81519050610102816100de565b92915050565b5f6020828403121561011d5761011c6100aa565b5b5f61012a848285016100f4565b91505092915050565b6101a5806101405f395ff3fe608060405234801561000f575f80fd5b506004361061003f575f3560e01c80633ccfd60b14610043578063855a0fe31461004d5780638da5cb5b1461006b575b5f80fd5b61004b610089565b005b6100556100cf565b6040516100629190610156565b60405180910390f35b6100736100f4565b6040516100809190610156565b60405180910390f35b3373ffffffffffffffffffffffffffffffffffffffff166108fc4790811502906040515f60405180830381858888f193505050501580156100cc573d5f803e3d5ffd5b50565b60015f9054906101000a900473ffffffffffffffffffffffffffffffffffffffff1681565b5f8054906101000a900473ffffffffffffffffffffffffffffffffffffffff1681565b5f73ffffffffffffffffffffffffffffffffffffffff82169050919050565b5f61014082610117565b9050919050565b61015081610136565b82525050565b5f6020820190506101695f830184610147565b9291505056fea2646970667358221220ffd9251a7a54fe8e69cb945a5da505eefcdae8febc26bf7d446d39821286461f64736f6c63430008150033a2646970667358221220c95608c1d9acdac7900f50baf2f771052462c2470fd58ab218128b727a72994264736f6c63430008150033",
					"opcodes": "PUSH1 0x80 PUSH1 0x40 MSTORE CALLVALUE DUP1 ISZERO PUSH2 0xF JUMPI PUSH0 DUP1 REVERT JUMPDEST POP PUSH1 0x40 MLOAD PUSH2 0x11DF CODESIZE SUB DUP1 PUSH2 0x11DF DUP4 CODECOPY DUP2 DUP2 ADD PUSH1 0x40 MSTORE DUP2 ADD SWAP1 PUSH2 0x31 SWAP2 SWAP1 PUSH2 0xE5 JUMP JUMPDEST DUP1 PUSH0 DUP1 PUSH2 0x100 EXP DUP2 SLOAD DUP2 PUSH20 0xFFFFFFFFFFFFFFFFFFFFFFFFFFFFFFFFFFFFFFFF MUL NOT AND SWAP1 DUP4 PUSH20 0xFFFFFFFFFFFFFFFFFFFFFFFFFFFFFFFFFFFFFFFF AND MUL OR SWAP1 SSTORE POP POP PUSH2 0x110 JUMP JUMPDEST PUSH0 DUP1 REVERT JUMPDEST PUSH0 PUSH20 0xFFFFFFFFFFFFFFFFFFFFFFFFFFFFFFFFFFFFFFFF DUP3 AND SWAP1 POP SWAP2 SWAP1 POP JUMP JUMPDEST PUSH0 PUSH2 0xA3 DUP3 PUSH2 0x7A JUMP JUMPDEST SWAP1 POP SWAP2 SWAP1 POP JUMP JUMPDEST PUSH0 PUSH2 0xB4 DUP3 PUSH2 0x99 JUMP JUMPDEST SWAP1 POP SWAP2 SWAP1 POP JUMP JUMPDEST PUSH2 0xC4 DUP2 PUSH2 0xAA JUMP JUMPDEST DUP2 EQ PUSH2 0xCE JUMPI PUSH0 DUP1 REVERT JUMPDEST POP JUMP JUMPDEST PUSH0 DUP2 MLOAD SWAP1 POP PUSH2 0xDF DUP2 PUSH2 0xBB JUMP JUMPDEST SWAP3 SWAP2 POP POP JUMP JUMPDEST PUSH0 PUSH1 0x20 DUP3 DUP5 SUB SLT ISZERO PUSH2 0xFA JUMPI PUSH2 0xF9 PUSH2 0x76 JUMP JUMPDEST JUMPDEST PUSH0 PUSH2 0x107 DUP5 DUP3 DUP6 ADD PUSH2 0xD1 JUMP JUMPDEST SWAP2 POP POP SWAP3 SWAP2 POP POP JUMP JUMPDEST PUSH2 0x10C2 DUP1 PUSH2 0x11D PUSH0 CODECOPY PUSH0 RETURN INVALID PUSH1 0x80 PUSH1 0x40 MSTORE PUSH1 0x4 CALLDATASIZE LT PUSH2 0x89 JUMPI PUSH0 CALLDATALOAD PUSH1 0xE0 SHR DUP1 PUSH4 0x50F35753 GT PUSH2 0x58 JUMPI DUP1 PUSH4 0x50F35753 EQ PUSH2 0x1AA JUMPI DUP1 PUSH4 0xBFA0B133 EQ PUSH2 0x1B4 JUMPI DUP1 PUSH4 0xD11A61D7 EQ PUSH2 0x1DE JUMPI DUP1 PUSH4 0xE65586DD EQ PUSH2 0x1F4 JUMPI DUP1 PUSH4 0xF300080F EQ PUSH2 0x21E JUMPI PUSH2 0x90 JUMP JUMPDEST DUP1 PUSH4 0x1C6A585F EQ PUSH2 0xF0 JUMPI DUP1 PUSH4 0x1EB3DD15 EQ PUSH2 0x11A JUMPI DUP1 PUSH4 0x38FBF2F1 EQ PUSH2 0x144 JUMPI DUP1 PUSH4 0x3BA9838C EQ PUSH2 0x180 JUMPI PUSH2 0x90 JUMP JUMPDEST CALLDATASIZE PUSH2 0x90 JUMPI STOP JUMPDEST PUSH2 0x98 PUSH2 0x25A JUMP JUMPDEST PUSH20 0xFFFFFFFFFFFFFFFFFFFFFFFFFFFFFFFFFFFFFFFF AND PUSH4 0x3CCFD60B PUSH1 0x40 MLOAD DUP2 PUSH4 0xFFFFFFFF AND PUSH1 0xE0 SHL DUP2 MSTORE PUSH1 0x4 ADD PUSH0 PUSH1 0x40 MLOAD DUP1 DUP4 SUB DUP2 PUSH0 DUP8 DUP1 EXTCODESIZE ISZERO DUP1 ISZERO PUSH2 0xDC JUMPI PUSH0 DUP1 REVERT JUMPDEST POP GAS CALL ISZERO DUP1 ISZERO PUSH2 0xEE JUMPI RETURNDATASIZE PUSH0 DUP1 RETURNDATACOPY RETURNDATASIZE PUSH0 REVERT JUMPDEST STOP JUMPDEST CALLVALUE DUP1 ISZERO PUSH2 0xFB JUMPI PUSH0 DUP1 REVERT JUMPDEST POP PUSH2 0x104 PUSH2 0x25A JUMP JUMPDEST PUSH1 0x40 MLOAD PUSH2 0x111 SWAP2 SWAP1 PUSH2 0x5B0 JUMP JUMPDEST PUSH1 0x40 MLOAD DUP1 SWAP2 SUB SWAP1 RETURN JUMPDEST CALLVALUE DUP1 ISZERO PUSH2 0x125 JUMPI PUSH0 DUP1 REVERT JUMPDEST POP PUSH2 0x12E PUSH2 0x2CA JUMP JUMPDEST PUSH1 0x40 MLOAD PUSH2 0x13B SWAP2 SWAP1 PUSH2 0x5E1 JUMP JUMPDEST PUSH1 0x40 MLOAD DUP1 SWAP2 SUB SWAP1 RETURN JUMPDEST CALLVALUE DUP1 ISZERO PUSH2 0x14F JUMPI PUSH0 DUP1 REVERT JUMPDEST POP PUSH2 0x16A PUSH1 0x4 DUP1 CALLDATASIZE SUB DUP2 ADD SWAP1 PUSH2 0x165 SWAP2 SWAP1 PUSH2 0x628 JUMP JUMPDEST PUSH2 0x2DE JUMP JUMPDEST PUSH1 0x40 MLOAD PUSH2 0x177 SWAP2 SWAP1 PUSH2 0x6DD JUMP JUMPDEST PUSH1 0x40 MLOAD DUP1 SWAP2 SUB SWAP1 RETURN JUMPDEST CALLVALUE DUP1 ISZERO PUSH2 0x18B JUMPI PUSH0 DUP1 REVERT JUMPDEST POP PUSH2 0x194 PUSH2 0x350 JUMP JUMPDEST PUSH1 0x40 MLOAD PUSH2 0x1A1 SWAP2 SWAP1 PUSH2 0x717 JUMP JUMPDEST PUSH1 0x40 MLOAD DUP1 SWAP2 SUB SWAP1 RETURN JUMPDEST PUSH2 0x1B2 PUSH2 0x3BA JUMP JUMPDEST STOP JUMPDEST CALLVALUE DUP1 ISZERO PUSH2 0x1BF JUMPI PUSH0 DUP1 REVERT JUMPDEST POP PUSH2 0x1C8 PUSH2 0x45E JUMP JUMPDEST PUSH1 0x40 MLOAD PUSH2 0x1D5 SWAP2 SWAP1 PUSH2 0x5E1 JUMP JUMPDEST PUSH1 0x40 MLOAD DUP1 SWAP2 SUB SWAP1 RETURN JUMPDEST CALLVALUE DUP1 ISZERO PUSH2 0x1E9 JUMPI PUSH0 DUP1 REVERT JUMPDEST POP PUSH2 0x1F2 PUSH2 0x464 JUMP JUMPDEST STOP JUMPDEST CALLVALUE DUP1 ISZERO PUSH2 0x1FF JUMPI PUSH0 DUP1 REVERT JUMPDEST POP PUSH2 0x208 PUSH2 0x47A JUMP JUMPDEST PUSH1 0x40 MLOAD PUSH2 0x215 SWAP2 SWAP1 PUSH2 0x5B0 JUMP JUMPDEST PUSH1 0x40 MLOAD DUP1 SWAP2 SUB SWAP1 RETURN JUMPDEST CALLVALUE DUP1 ISZERO PUSH2 0x229 JUMPI PUSH0 DUP1 REVERT JUMPDEST POP PUSH2 0x244 PUSH1 0x4 DUP1 CALLDATASIZE SUB DUP2 ADD SWAP1 PUSH2 0x23F SWAP2 SWAP1 PUSH2 0x75A JUMP JUMPDEST PUSH2 0x4E5 JUMP JUMPDEST PUSH1 0x40 MLOAD PUSH2 0x251 SWAP2 SWAP1 PUSH2 0x6DD JUMP JUMPDEST PUSH1 0x40 MLOAD DUP1 SWAP2 SUB SWAP1 RETURN JUMPDEST PUSH0 PUSH1 0xFF PUSH1 0xF8 SHL PUSH2 0x268 PUSH2 0x47A JUMP JUMPDEST PUSH1 0x1 SLOAD PUSH2 0x293 PUSH0 DUP1 SLOAD SWAP1 PUSH2 0x100 EXP SWAP1 DIV PUSH20 0xFFFFFFFFFFFFFFFFFFFFFFFFFFFFFFFFFFFFFFFF AND PUSH2 0x2DE JUMP JUMPDEST DUP1 MLOAD SWAP1 PUSH1 0x20 ADD KECCAK256 PUSH1 0x40 MLOAD PUSH1 0x20 ADD PUSH2 0x2AD SWAP5 SWAP4 SWAP3 SWAP2 SWAP1 PUSH2 0x835 JUMP JUMPDEST PUSH1 0x40 MLOAD PUSH1 0x20 DUP2 DUP4 SUB SUB DUP2 MSTORE SWAP1 PUSH1 0x40 MSTORE DUP1 MLOAD SWAP1 PUSH1 0x20 ADD KECCAK256 PUSH0 SHR SWAP1 POP SWAP1 JUMP JUMPDEST PUSH0 PUSH1 0x2 NUMBER PUSH2 0x2D8 SWAP2 SWAP1 PUSH2 0x8B8 JUMP JUMPDEST BLOCKHASH SWAP1 POP SWAP1 JUMP JUMPDEST PUSH1 0x60 PUSH0 PUSH1 0x40 MLOAD DUP1 PUSH1 0x20 ADD PUSH2 0x2F1 SWAP1 PUSH2 0x557 JUMP JUMPDEST PUSH1 0x20 DUP3 ADD DUP2 SUB DUP3 MSTORE PUSH1 0x1F NOT PUSH1 0x1F DUP3 ADD AND PUSH1 0x40 MSTORE POP SWAP1 POP DUP1 DUP4 PUSH1 0x40 MLOAD PUSH1 0x20 ADD PUSH2 0x319 SWAP2 SWAP1 PUSH2 0x5B0 JUMP JUMPDEST PUSH1 0x40 MLOAD PUSH1 0x20 DUP2 DUP4 SUB SUB DUP2 MSTORE SWAP1 PUSH1 0x40 MSTORE PUSH1 0x40 MLOAD PUSH1 0x20 ADD PUSH2 0x339 SWAP3 SWAP2 SWAP1 PUSH2 0x925 JUMP JUMPDEST PUSH1 0x40 MLOAD PUSH1 0x20 DUP2 DUP4 SUB SUB DUP2 MSTORE SWAP1 PUSH1 0x40 MSTORE SWAP2 POP POP SWAP2 SWAP1 POP JUMP JUMPDEST PUSH0 PUSH2 0x359 PUSH2 0x25A JUMP JUMPDEST PUSH20 0xFFFFFFFFFFFFFFFFFFFFFFFFFFFFFFFFFFFFFFFF AND PUSH4 0x3CCFD60B PUSH1 0x40 MLOAD DUP2 PUSH4 0xFFFFFFFF AND PUSH1 0xE0 SHL DUP2 MSTORE PUSH1 0x4 ADD PUSH0 PUSH1 0x40 MLOAD DUP1 DUP4 SUB DUP2 PUSH0 DUP8 DUP1 EXTCODESIZE ISZERO DUP1 ISZERO PUSH2 0x39D JUMPI PUSH0 DUP1 REVERT JUMPDEST POP GAS CALL ISZERO DUP1 ISZERO PUSH2 0x3AF JUMPI RETURNDATASIZE PUSH0 DUP1 RETURNDATACOPY RETURNDATASIZE PUSH0 REVERT JUMPDEST POP POP POP POP PUSH1 0x1 SWAP1 POP SWAP1 JUMP JUMPDEST PUSH1 0x1 NUMBER PUSH2 0x3C7 SWAP2 SWAP1 PUSH2 0x8B8 JUMP JUMPDEST BLOCKHASH PUSH1 0x1 DUP2 SWAP1 SSTORE POP PUSH0 DUP1 SLOAD SWAP1 PUSH2 0x100 EXP SWAP1 DIV PUSH20 0xFFFFFFFFFFFFFFFFFFFFFFFFFFFFFFFFFFFFFFFF AND PUSH20 0xFFFFFFFFFFFFFFFFFFFFFFFFFFFFFFFFFFFFFFFF AND PUSH4 0x30BD8C9 CALLVALUE PUSH2 0x412 PUSH2 0x25A JUMP JUMPDEST PUSH1 0x40 MLOAD DUP4 PUSH4 0xFFFFFFFF AND PUSH1 0xE0 SHL DUP2 MSTORE PUSH1 0x4 ADD PUSH2 0x42E SWAP2 SWAP1 PUSH2 0x5B0 JUMP JUMPDEST PUSH0 PUSH1 0x40 MLOAD DUP1 DUP4 SUB DUP2 DUP6 DUP9 DUP1 EXTCODESIZE ISZERO DUP1 ISZERO PUSH2 0x445 JUMPI PUSH0 DUP1 REVERT JUMPDEST POP GAS CALL ISZERO DUP1 ISZERO PUSH2 0x457 JUMPI RETURNDATASIZE PUSH0 DUP1 RETURNDATACOPY RETURNDATASIZE PUSH0 REVERT JUMPDEST POP POP POP POP POP JUMP JUMPDEST PUSH1 0x1 SLOAD DUP2 JUMP JUMPDEST PUSH1 0x1 NUMBER PUSH2 0x471 SWAP2 SWAP1 PUSH2 0x8B8 JUMP JUMPDEST BLOCKHASH PUSH1 0x1 DUP2 SWAP1 SSTORE POP JUMP JUMPDEST PUSH0 PUSH1 0xFF PUSH1 0xF8 SHL PUSH0 DUP1 SLOAD SWAP1 PUSH2 0x100 EXP SWAP1 DIV PUSH20 0xFFFFFFFFFFFFFFFFFFFFFFFFFFFFFFFFFFFFFFFF AND PUSH1 0x1 SLOAD PUSH2 0x4AE PUSH1 0x1 SLOAD PUSH2 0x4E5 JUMP JUMPDEST DUP1 MLOAD SWAP1 PUSH1 0x20 ADD KECCAK256 PUSH1 0x40 MLOAD PUSH1 0x20 ADD PUSH2 0x4C8 SWAP5 SWAP4 SWAP3 SWAP2 SWAP1 PUSH2 0x835 JUMP JUMPDEST PUSH1 0x40 MLOAD PUSH1 0x20 DUP2 DUP4 SUB SUB DUP2 MSTORE SWAP1 PUSH1 0x40 MSTORE DUP1 MLOAD SWAP1 PUSH1 0x20 ADD KECCAK256 PUSH0 SHR SWAP1 POP SWAP1 JUMP JUMPDEST PUSH1 0x60 PUSH0 PUSH1 0x40 MLOAD DUP1 PUSH1 0x20 ADD PUSH2 0x4F8 SWAP1 PUSH2 0x564 JUMP JUMPDEST PUSH1 0x20 DUP3 ADD DUP2 SUB DUP3 MSTORE PUSH1 0x1F NOT PUSH1 0x1F DUP3 ADD AND PUSH1 0x40 MSTORE POP SWAP1 POP DUP1 DUP4 PUSH1 0x40 MLOAD PUSH1 0x20 ADD PUSH2 0x520 SWAP2 SWAP1 PUSH2 0x5E1 JUMP JUMPDEST PUSH1 0x40 MLOAD PUSH1 0x20 DUP2 DUP4 SUB SUB DUP2 MSTORE SWAP1 PUSH1 0x40 MSTORE PUSH1 0x40 MLOAD PUSH1 0x20 ADD PUSH2 0x540 SWAP3 SWAP2 SWAP1 PUSH2 0x925 JUMP JUMPDEST PUSH1 0x40 MLOAD PUSH1 0x20 DUP2 DUP4 SUB SUB DUP2 MSTORE SWAP1 PUSH1 0x40 MSTORE SWAP2 POP POP SWAP2 SWAP1 POP JUMP JUMPDEST PUSH2 0x2E5 DUP1 PUSH2 0x949 DUP4 CODECOPY ADD SWAP1 JUMP JUMPDEST PUSH2 0x45F DUP1 PUSH2 0xC2E DUP4 CODECOPY ADD SWAP1 JUMP JUMPDEST PUSH0 PUSH20 0xFFFFFFFFFFFFFFFFFFFFFFFFFFFFFFFFFFFFFFFF DUP3 AND SWAP1 POP SWAP2 SWAP1 POP JUMP JUMPDEST PUSH0 PUSH2 0x59A DUP3 PUSH2 0x571 JUMP JUMPDEST SWAP1 POP SWAP2 SWAP1 POP JUMP JUMPDEST PUSH2 0x5AA DUP2 PUSH2 0x590 JUMP JUMPDEST DUP3 MSTORE POP POP JUMP JUMPDEST PUSH0 PUSH1 0x20 DUP3 ADD SWAP1 POP PUSH2 0x5C3 PUSH0 DUP4 ADD DUP5 PUSH2 0x5A1 JUMP JUMPDEST SWAP3 SWAP2 POP POP JUMP JUMPDEST PUSH0 DUP2 SWAP1 POP SWAP2 SWAP1 POP JUMP JUMPDEST PUSH2 0x5DB DUP2 PUSH2 0x5C9 JUMP JUMPDEST DUP3 MSTORE POP POP JUMP JUMPDEST PUSH0 PUSH1 0x20 DUP3 ADD SWAP1 POP PUSH2 0x5F4 PUSH0 DUP4 ADD DUP5 PUSH2 0x5D2 JUMP JUMPDEST SWAP3 SWAP2 POP POP JUMP JUMPDEST PUSH0 DUP1 REVERT JUMPDEST PUSH2 0x607 DUP2 PUSH2 0x590 JUMP JUMPDEST DUP2 EQ PUSH2 0x611 JUMPI PUSH0 DUP1 REVERT JUMPDEST POP JUMP JUMPDEST PUSH0 DUP2 CALLDATALOAD SWAP1 POP PUSH2 0x622 DUP2 PUSH2 0x5FE JUMP JUMPDEST SWAP3 SWAP2 POP POP JUMP JUMPDEST PUSH0 PUSH1 0x20 DUP3 DUP5 SUB SLT ISZERO PUSH2 0x63D JUMPI PUSH2 0x63C PUSH2 0x5FA JUMP JUMPDEST JUMPDEST PUSH0 PUSH2 0x64A DUP5 DUP3 DUP6 ADD PUSH2 0x614 JUMP JUMPDEST SWAP2 POP POP SWAP3 SWAP2 POP POP JUMP JUMPDEST PUSH0 DUP2 MLOAD SWAP1 POP SWAP2 SWAP1 POP JUMP JUMPDEST PUSH0 DUP3 DUP3 MSTORE PUSH1 0x20 DUP3 ADD SWAP1 POP SWAP3 SWAP2 POP POP JUMP JUMPDEST PUSH0 JUMPDEST DUP4 DUP2 LT ISZERO PUSH2 0x68A JUMPI DUP1 DUP3 ADD MLOAD DUP2 DUP5 ADD MSTORE PUSH1 0x20 DUP2 ADD SWAP1 POP PUSH2 0x66F JUMP JUMPDEST PUSH0 DUP5 DUP5 ADD MSTORE POP POP POP POP JUMP JUMPDEST PUSH0 PUSH1 0x1F NOT PUSH1 0x1F DUP4 ADD AND SWAP1 POP SWAP2 SWAP1 POP JUMP JUMPDEST PUSH0 PUSH2 0x6AF DUP3 PUSH2 0x653 JUMP JUMPDEST PUSH2 0x6B9 DUP2 DUP6 PUSH2 0x65D JUMP JUMPDEST SWAP4 POP PUSH2 0x6C9 DUP2 DUP6 PUSH1 0x20 DUP7 ADD PUSH2 0x66D JUMP JUMPDEST PUSH2 0x6D2 DUP2 PUSH2 0x695 JUMP JUMPDEST DUP5 ADD SWAP2 POP POP SWAP3 SWAP2 POP POP JUMP JUMPDEST PUSH0 PUSH1 0x20 DUP3 ADD SWAP1 POP DUP2 DUP2 SUB PUSH0 DUP4 ADD MSTORE PUSH2 0x6F5 DUP2 DUP5 PUSH2 0x6A5 JUMP JUMPDEST SWAP1 POP SWAP3 SWAP2 POP POP JUMP JUMPDEST PUSH0 DUP2 ISZERO ISZERO SWAP1 POP SWAP2 SWAP1 POP JUMP JUMPDEST PUSH2 0x711 DUP2 PUSH2 0x6FD JUMP JUMPDEST DUP3 MSTORE POP POP JUMP JUMPDEST PUSH0 PUSH1 0x20 DUP3 ADD SWAP1 POP PUSH2 0x72A PUSH0 DUP4 ADD DUP5 PUSH2 0x708 JUMP JUMPDEST SWAP3 SWAP2 POP POP JUMP JUMPDEST PUSH2 0x739 DUP2 PUSH2 0x5C9 JUMP JUMPDEST DUP2 EQ PUSH2 0x743 JUMPI PUSH0 DUP1 REVERT JUMPDEST POP JUMP JUMPDEST PUSH0 DUP2 CALLDATALOAD SWAP1 POP PUSH2 0x754 DUP2 PUSH2 0x730 JUMP JUMPDEST SWAP3 SWAP2 POP POP JUMP JUMPDEST PUSH0 PUSH1 0x20 DUP3 DUP5 SUB SLT ISZERO PUSH2 0x76F JUMPI PUSH2 0x76E PUSH2 0x5FA JUMP JUMPDEST JUMPDEST PUSH0 PUSH2 0x77C DUP5 DUP3 DUP6 ADD PUSH2 0x746 JUMP JUMPDEST SWAP2 POP POP SWAP3 SWAP2 POP POP JUMP JUMPDEST PUSH0 PUSH32 0xFF00000000000000000000000000000000000000000000000000000000000000 DUP3 AND SWAP1 POP SWAP2 SWAP1 POP JUMP JUMPDEST PUSH0 DUP2 SWAP1 POP SWAP2 SWAP1 POP JUMP JUMPDEST PUSH2 0x7CA PUSH2 0x7C5 DUP3 PUSH2 0x785 JUMP JUMPDEST PUSH2 0x7B0 JUMP JUMPDEST DUP3 MSTORE POP POP JUMP JUMPDEST PUSH0 DUP2 PUSH1 0x60 SHL SWAP1 POP SWAP2 SWAP1 POP JUMP JUMPDEST PUSH0 PUSH2 0x7E6 DUP3 PUSH2 0x7D0 JUMP JUMPDEST SWAP1 POP SWAP2 SWAP1 POP JUMP JUMPDEST PUSH0 PUSH2 0x7F7 DUP3 PUSH2 0x7DC JUMP JUMPDEST SWAP1 POP SWAP2 SWAP1 POP JUMP JUMPDEST PUSH2 0x80F PUSH2 0x80A DUP3 PUSH2 0x590 JUMP JUMPDEST PUSH2 0x7ED JUMP JUMPDEST DUP3 MSTORE POP POP JUMP JUMPDEST PUSH0 DUP2 SWAP1 POP SWAP2 SWAP1 POP JUMP JUMPDEST PUSH2 0x82F PUSH2 0x82A DUP3 PUSH2 0x5C9 JUMP JUMPDEST PUSH2 0x815 JUMP JUMPDEST DUP3 MSTORE POP POP JUMP JUMPDEST PUSH0 PUSH2 0x840 DUP3 DUP8 PUSH2 0x7B9 JUMP JUMPDEST PUSH1 0x1 DUP3 ADD SWAP2 POP PUSH2 0x850 DUP3 DUP7 PUSH2 0x7FE JUMP JUMPDEST PUSH1 0x14 DUP3 ADD SWAP2 POP PUSH2 0x860 DUP3 DUP6 PUSH2 0x81E JUMP JUMPDEST PUSH1 0x20 DUP3 ADD SWAP2 POP PUSH2 0x870 DUP3 DUP5 PUSH2 0x81E JUMP JUMPDEST PUSH1 0x20 DUP3 ADD SWAP2 POP DUP2 SWAP1 POP SWAP6 SWAP5 POP POP POP POP POP JUMP JUMPDEST PUSH0 DUP2 SWAP1 POP SWAP2 SWAP1 POP JUMP JUMPDEST PUSH32 0x4E487B7100000000000000000000000000000000000000000000000000000000 PUSH0 MSTORE PUSH1 0x11 PUSH1 0x4 MSTORE PUSH1 0x24 PUSH0 REVERT JUMPDEST PUSH0 PUSH2 0x8C2 DUP3 PUSH2 0x882 JUMP JUMPDEST SWAP2 POP PUSH2 0x8CD DUP4 PUSH2 0x882 JUMP JUMPDEST SWAP3 POP DUP3 DUP3 SUB SWAP1 POP DUP2 DUP2 GT ISZERO PUSH2 0x8E5 JUMPI PUSH2 0x8E4 PUSH2 0x88B JUMP JUMPDEST JUMPDEST SWAP3 SWAP2 POP POP JUMP JUMPDEST PUSH0 DUP2 SWAP1 POP SWAP3 SWAP2 POP POP JUMP JUMPDEST PUSH0 PUSH2 0x8FF DUP3 PUSH2 0x653 JUMP JUMPDEST PUSH2 0x909 DUP2 DUP6 PUSH2 0x8EB JUMP JUMPDEST SWAP4 POP PUSH2 0x919 DUP2 DUP6 PUSH1 0x20 DUP7 ADD PUSH2 0x66D JUMP JUMPDEST DUP1 DUP5 ADD SWAP2 POP POP SWAP3 SWAP2 POP POP JUMP JUMPDEST PUSH0 PUSH2 0x930 DUP3 DUP6 PUSH2 0x8F5 JUMP JUMPDEST SWAP2 POP PUSH2 0x93C DUP3 DUP5 PUSH2 0x8F5 JUMP JUMPDEST SWAP2 POP DUP2 SWAP1 POP SWAP4 SWAP3 POP POP POP JUMP INVALID PUSH1 0x80 PUSH1 0x40 MSTORE PUSH1 0x40 MLOAD PUSH2 0x2E5 CODESIZE SUB DUP1 PUSH2 0x2E5 DUP4 CODECOPY DUP2 DUP2 ADD PUSH1 0x40 MSTORE DUP2 ADD SWAP1 PUSH2 0x25 SWAP2 SWAP1 PUSH2 0x108 JUMP JUMPDEST DUP1 PUSH0 DUP1 PUSH2 0x100 EXP DUP2 SLOAD DUP2 PUSH20 0xFFFFFFFFFFFFFFFFFFFFFFFFFFFFFFFFFFFFFFFF MUL NOT AND SWAP1 DUP4 PUSH20 0xFFFFFFFFFFFFFFFFFFFFFFFFFFFFFFFFFFFFFFFF AND MUL OR SWAP1 SSTORE POP CALLER PUSH1 0x1 PUSH0 PUSH2 0x100 EXP DUP2 SLOAD DUP2 PUSH20 0xFFFFFFFFFFFFFFFFFFFFFFFFFFFFFFFFFFFFFFFF MUL NOT AND SWAP1 DUP4 PUSH20 0xFFFFFFFFFFFFFFFFFFFFFFFFFFFFFFFFFFFFFFFF AND MUL OR SWAP1 SSTORE POP POP PUSH2 0x133 JUMP JUMPDEST PUSH0 DUP1 REVERT JUMPDEST PUSH0 PUSH20 0xFFFFFFFFFFFFFFFFFFFFFFFFFFFFFFFFFFFFFFFF DUP3 AND SWAP1 POP SWAP2 SWAP1 POP JUMP JUMPDEST PUSH0 PUSH2 0xD7 DUP3 PUSH2 0xAE JUMP JUMPDEST SWAP1 POP SWAP2 SWAP1 POP JUMP JUMPDEST PUSH2 0xE7 DUP2 PUSH2 0xCD JUMP JUMPDEST DUP2 EQ PUSH2 0xF1 JUMPI PUSH0 DUP1 REVERT JUMPDEST POP JUMP JUMPDEST PUSH0 DUP2 MLOAD SWAP1 POP PUSH2 0x102 DUP2 PUSH2 0xDE JUMP JUMPDEST SWAP3 SWAP2 POP POP JUMP JUMPDEST PUSH0 PUSH1 0x20 DUP3 DUP5 SUB SLT ISZERO PUSH2 0x11D JUMPI PUSH2 0x11C PUSH2 0xAA JUMP JUMPDEST JUMPDEST PUSH0 PUSH2 0x12A DUP5 DUP3 DUP6 ADD PUSH2 0xF4 JUMP JUMPDEST SWAP2 POP POP SWAP3 SWAP2 POP POP JUMP JUMPDEST PUSH2 0x1A5 DUP1 PUSH2 0x140 PUSH0 CODECOPY PUSH0 RETURN INVALID PUSH1 0x80 PUSH1 0x40 MSTORE CALLVALUE DUP1 ISZERO PUSH2 0xF JUMPI PUSH0 DUP1 REVERT JUMPDEST POP PUSH1 0x4 CALLDATASIZE LT PUSH2 0x3F JUMPI PUSH0 CALLDATALOAD PUSH1 0xE0 SHR DUP1 PUSH4 0x3CCFD60B EQ PUSH2 0x43 JUMPI DUP1 PUSH4 0x855A0FE3 EQ PUSH2 0x4D JUMPI DUP1 PUSH4 0x8DA5CB5B EQ PUSH2 0x6B JUMPI JUMPDEST PUSH0 DUP1 REVERT JUMPDEST PUSH2 0x4B PUSH2 0x89 JUMP JUMPDEST STOP JUMPDEST PUSH2 0x55 PUSH2 0xCF JUMP JUMPDEST PUSH1 0x40 MLOAD PUSH2 0x62 SWAP2 SWAP1 PUSH2 0x156 JUMP JUMPDEST PUSH1 0x40 MLOAD DUP1 SWAP2 SUB SWAP1 RETURN JUMPDEST PUSH2 0x73 PUSH2 0xF4 JUMP JUMPDEST PUSH1 0x40 MLOAD PUSH2 0x80 SWAP2 SWAP1 PUSH2 0x156 JUMP JUMPDEST PUSH1 0x40 MLOAD DUP1 SWAP2 SUB SWAP1 RETURN JUMPDEST CALLER PUSH20 0xFFFFFFFFFFFFFFFFFFFFFFFFFFFFFFFFFFFFFFFF AND PUSH2 0x8FC SELFBALANCE SWAP1 DUP2 ISZERO MUL SWAP1 PUSH1 0x40 MLOAD PUSH0 PUSH1 0x40 MLOAD DUP1 DUP4 SUB DUP2 DUP6 DUP9 DUP9 CALL SWAP4 POP POP POP POP ISZERO DUP1 ISZERO PUSH2 0xCC JUMPI RETURNDATASIZE PUSH0 DUP1 RETURNDATACOPY RETURNDATASIZE PUSH0 REVERT JUMPDEST POP JUMP JUMPDEST PUSH1 0x1 PUSH0 SWAP1 SLOAD SWAP1 PUSH2 0x100 EXP SWAP1 DIV PUSH20 0xFFFFFFFFFFFFFFFFFFFFFFFFFFFFFFFFFFFFFFFF AND DUP2 JUMP JUMPDEST PUSH0 DUP1 SLOAD SWAP1 PUSH2 0x100 EXP SWAP1 DIV PUSH20 0xFFFFFFFFFFFFFFFFFFFFFFFFFFFFFFFFFFFFFFFF AND DUP2 JUMP JUMPDEST PUSH0 PUSH20 0xFFFFFFFFFFFFFFFFFFFFFFFFFFFFFFFFFFFFFFFF DUP3 AND SWAP1 POP SWAP2 SWAP1 POP JUMP JUMPDEST PUSH0 PUSH2 0x140 DUP3 PUSH2 0x117 JUMP JUMPDEST SWAP1 POP SWAP2 SWAP1 POP JUMP JUMPDEST PUSH2 0x150 DUP2 PUSH2 0x136 JUMP JUMPDEST DUP3 MSTORE POP POP JUMP JUMPDEST PUSH0 PUSH1 0x20 DUP3 ADD SWAP1 POP PUSH2 0x169 PUSH0 DUP4 ADD DUP5 PUSH2 0x147 JUMP JUMPDEST SWAP3 SWAP2 POP POP JUMP INVALID LOG2 PUSH5 0x6970667358 0x22 SLT KECCAK256 SELFDESTRUCT 0xD9 0x25 BYTE PUSH27 0x54FE8E69CB945A5DA505EEFCDAE8FEBC26BF7D446D39821286461F PUSH5 0x736F6C6343 STOP ADDMOD ISZERO STOP CALLER PUSH1 0x80 PUSH1 0x40 MSTORE PUSH1 0x40 MLOAD PUSH2 0x45F CODESIZE SUB DUP1 PUSH2 0x45F DUP4 CODECOPY DUP2 DUP2 ADD PUSH1 0x40 MSTORE DUP2 ADD SWAP1 PUSH2 0x25 SWAP2 SWAP1 PUSH2 0xAD JUMP JUMPDEST PUSH0 CALLVALUE DUP3 SWAP1 CALLER PUSH1 0x40 MLOAD PUSH2 0x36 SWAP1 PUSH2 0x69 JUMP JUMPDEST PUSH2 0x40 SWAP2 SWAP1 PUSH2 0x117 JUMP JUMPDEST DUP3 SWAP1 PUSH1 0x40 MLOAD DUP1 SWAP2 SUB SWAP1 DUP4 CREATE2 SWAP1 POP SWAP1 POP DUP1 ISZERO DUP1 ISZERO PUSH2 0x5F JUMPI RETURNDATASIZE PUSH0 DUP1 RETURNDATACOPY RETURNDATASIZE PUSH0 REVERT JUMPDEST POP SWAP1 POP POP POP PUSH2 0x130 JUMP JUMPDEST PUSH2 0x2E5 DUP1 PUSH2 0x17A DUP4 CODECOPY ADD SWAP1 JUMP JUMPDEST PUSH0 DUP1 REVERT JUMPDEST PUSH0 DUP2 SWAP1 POP SWAP2 SWAP1 POP JUMP JUMPDEST PUSH2 0x8C DUP2 PUSH2 0x7A JUMP JUMPDEST DUP2 EQ PUSH2 0x96 JUMPI PUSH0 DUP1 REVERT JUMPDEST POP JUMP JUMPDEST PUSH0 DUP2 MLOAD SWAP1 POP PUSH2 0xA7 DUP2 PUSH2 0x83 JUMP JUMPDEST SWAP3 SWAP2 POP POP JUMP JUMPDEST PUSH0 PUSH1 0x20 DUP3 DUP5 SUB SLT ISZERO PUSH2 0xC2 JUMPI PUSH2 0xC1 PUSH2 0x76 JUMP JUMPDEST JUMPDEST PUSH0 PUSH2 0xCF DUP5 DUP3 DUP6 ADD PUSH2 0x99 JUMP JUMPDEST SWAP2 POP POP SWAP3 SWAP2 POP POP JUMP JUMPDEST PUSH0 PUSH20 0xFFFFFFFFFFFFFFFFFFFFFFFFFFFFFFFFFFFFFFFF DUP3 AND SWAP1 POP SWAP2 SWAP1 POP JUMP JUMPDEST PUSH0 PUSH2 0x101 DUP3 PUSH2 0xD8 JUMP JUMPDEST SWAP1 POP SWAP2 SWAP1 POP JUMP JUMPDEST PUSH2 0x111 DUP2 PUSH2 0xF7 JUMP JUMPDEST DUP3 MSTORE POP POP JUMP JUMPDEST PUSH0 PUSH1 0x20 DUP3 ADD SWAP1 POP PUSH2 0x12A PUSH0 DUP4 ADD DUP5 PUSH2 0x108 JUMP JUMPDEST SWAP3 SWAP2 POP POP JUMP JUMPDEST PUSH1 0x3E DUP1 PUSH2 0x13C PUSH0 CODECOPY PUSH0 RETURN INVALID PUSH1 0x80 PUSH1 0x40 MSTORE PUSH0 DUP1 REVERT INVALID LOG2 PUSH5 0x6970667358 0x22 SLT KECCAK256 SAR ISZERO 0xCB 0x2A PUSH11 0x194F9EDA61FDE5893AE383 CODESIZE NOT 0xF8 SWAP12 0x5C AND PUSH2 0xB055 0xE 0xDC MOD 0xFC SWAP12 0xE0 LOG0 PUSH5 0x736F6C6343 STOP ADDMOD ISZERO STOP CALLER PUSH1 0x80 PUSH1 0x40 MSTORE PUSH1 0x40 MLOAD PUSH2 0x2E5 CODESIZE SUB DUP1 PUSH2 0x2E5 DUP4 CODECOPY DUP2 DUP2 ADD PUSH1 0x40 MSTORE DUP2 ADD SWAP1 PUSH2 0x25 SWAP2 SWAP1 PUSH2 0x108 JUMP JUMPDEST DUP1 PUSH0 DUP1 PUSH2 0x100 EXP DUP2 SLOAD DUP2 PUSH20 0xFFFFFFFFFFFFFFFFFFFFFFFFFFFFFFFFFFFFFFFF MUL NOT AND SWAP1 DUP4 PUSH20 0xFFFFFFFFFFFFFFFFFFFFFFFFFFFFFFFFFFFFFFFF AND MUL OR SWAP1 SSTORE POP CALLER PUSH1 0x1 PUSH0 PUSH2 0x100 EXP DUP2 SLOAD DUP2 PUSH20 0xFFFFFFFFFFFFFFFFFFFFFFFFFFFFFFFFFFFFFFFF MUL NOT AND SWAP1 DUP4 PUSH20 0xFFFFFFFFFFFFFFFFFFFFFFFFFFFFFFFFFFFFFFFF AND MUL OR SWAP1 SSTORE POP POP PUSH2 0x133 JUMP JUMPDEST PUSH0 DUP1 REVERT JUMPDEST PUSH0 PUSH20 0xFFFFFFFFFFFFFFFFFFFFFFFFFFFFFFFFFFFFFFFF DUP3 AND SWAP1 POP SWAP2 SWAP1 POP JUMP JUMPDEST PUSH0 PUSH2 0xD7 DUP3 PUSH2 0xAE JUMP JUMPDEST SWAP1 POP SWAP2 SWAP1 POP JUMP JUMPDEST PUSH2 0xE7 DUP2 PUSH2 0xCD JUMP JUMPDEST DUP2 EQ PUSH2 0xF1 JUMPI PUSH0 DUP1 REVERT JUMPDEST POP JUMP JUMPDEST PUSH0 DUP2 MLOAD SWAP1 POP PUSH2 0x102 DUP2 PUSH2 0xDE JUMP JUMPDEST SWAP3 SWAP2 POP POP JUMP JUMPDEST PUSH0 PUSH1 0x20 DUP3 DUP5 SUB SLT ISZERO PUSH2 0x11D JUMPI PUSH2 0x11C PUSH2 0xAA JUMP JUMPDEST JUMPDEST PUSH0 PUSH2 0x12A DUP5 DUP3 DUP6 ADD PUSH2 0xF4 JUMP JUMPDEST SWAP2 POP POP SWAP3 SWAP2 POP POP JUMP JUMPDEST PUSH2 0x1A5 DUP1 PUSH2 0x140 PUSH0 CODECOPY PUSH0 RETURN INVALID PUSH1 0x80 PUSH1 0x40 MSTORE CALLVALUE DUP1 ISZERO PUSH2 0xF JUMPI PUSH0 DUP1 REVERT JUMPDEST POP PUSH1 0x4 CALLDATASIZE LT PUSH2 0x3F JUMPI PUSH0 CALLDATALOAD PUSH1 0xE0 SHR DUP1 PUSH4 0x3CCFD60B EQ PUSH2 0x43 JUMPI DUP1 PUSH4 0x855A0FE3 EQ PUSH2 0x4D JUMPI DUP1 PUSH4 0x8DA5CB5B EQ PUSH2 0x6B JUMPI JUMPDEST PUSH0 DUP1 REVERT JUMPDEST PUSH2 0x4B PUSH2 0x89 JUMP JUMPDEST STOP JUMPDEST PUSH2 0x55 PUSH2 0xCF JUMP JUMPDEST PUSH1 0x40 MLOAD PUSH2 0x62 SWAP2 SWAP1 PUSH2 0x156 JUMP JUMPDEST PUSH1 0x40 MLOAD DUP1 SWAP2 SUB SWAP1 RETURN JUMPDEST PUSH2 0x73 PUSH2 0xF4 JUMP JUMPDEST PUSH1 0x40 MLOAD PUSH2 0x80 SWAP2 SWAP1 PUSH2 0x156 JUMP JUMPDEST PUSH1 0x40 MLOAD DUP1 SWAP2 SUB SWAP1 RETURN JUMPDEST CALLER PUSH20 0xFFFFFFFFFFFFFFFFFFFFFFFFFFFFFFFFFFFFFFFF AND PUSH2 0x8FC SELFBALANCE SWAP1 DUP2 ISZERO MUL SWAP1 PUSH1 0x40 MLOAD PUSH0 PUSH1 0x40 MLOAD DUP1 DUP4 SUB DUP2 DUP6 DUP9 DUP9 CALL SWAP4 POP POP POP POP ISZERO DUP1 ISZERO PUSH2 0xCC JUMPI RETURNDATASIZE PUSH0 DUP1 RETURNDATACOPY RETURNDATASIZE PUSH0 REVERT JUMPDEST POP JUMP JUMPDEST PUSH1 0x1 PUSH0 SWAP1 SLOAD SWAP1 PUSH2 0x100 EXP SWAP1 DIV PUSH20 0xFFFFFFFFFFFFFFFFFFFFFFFFFFFFFFFFFFFFFFFF AND DUP2 JUMP JUMPDEST PUSH0 DUP1 SLOAD SWAP1 PUSH2 0x100 EXP SWAP1 DIV PUSH20 0xFFFFFFFFFFFFFFFFFFFFFFFFFFFFFFFFFFFFFFFF AND DUP2 JUMP JUMPDEST PUSH0 PUSH20 0xFFFFFFFFFFFFFFFFFFFFFFFFFFFFFFFFFFFFFFFF DUP3 AND SWAP1 POP SWAP2 SWAP1 POP JUMP JUMPDEST PUSH0 PUSH2 0x140 DUP3 PUSH2 0x117 JUMP JUMPDEST SWAP1 POP SWAP2 SWAP1 POP JUMP JUMPDEST PUSH2 0x150 DUP2 PUSH2 0x136 JUMP JUMPDEST DUP3 MSTORE POP POP JUMP JUMPDEST PUSH0 PUSH1 0x20 DUP3 ADD SWAP1 POP PUSH2 0x169 PUSH0 DUP4 ADD DUP5 PUSH2 0x147 JUMP JUMPDEST SWAP3 SWAP2 POP POP JUMP INVALID LOG2 PUSH5 0x6970667358 0x22 SLT KECCAK256 SELFDESTRUCT 0xD9 0x25 BYTE PUSH27 0x54FE8E69CB945A5DA505EEFCDAE8FEBC26BF7D446D39821286461F PUSH5 0x736F6C6343 STOP ADDMOD ISZERO STOP CALLER LOG2 PUSH5 0x6970667358 0x22 SLT KECCAK256 0xC9 JUMP ADDMOD 0xC1 0xD9 0xAC 0xDA 0xC7 SWAP1 0xF POP 0xBA CALLCODE 0xF7 PUSH18 0x52462C2470FD58AB218128B727A72994264 PUSH20 0x6F6C634300081500330000000000000000000000 "
				},
				"gasEstimates": {
					"creation": {
						"codeDepositCost": "858000",
						"executionCost": "infinite",
						"totalCost": "infinite"
					},
					"external": {
						"": "infinite",
						"attract()": "infinite",
						"cuit()": "infinite",
						"getbytes2()": "infinite",
						"getbytes3()": "infinite",
						"getdeployeraddress()": "infinite",
						"getdeployerbytes(bytes32)": "infinite",
						"getdisposaladdress()": "infinite",
						"getdisposalbytes(address)": "infinite",
						"salt()": "2447"
					}
				},
				"methodIdentifiers": {
					"attract()": "50f35753",
					"cuit()": "3ba9838c",
					"getbytes2()": "d11a61d7",
					"getbytes3()": "1eb3dd15",
					"getdeployeraddress()": "e65586dd",
					"getdeployerbytes(bytes32)": "f300080f",
					"getdisposaladdress()": "1c6a585f",
					"getdisposalbytes(address)": "38fbf2f1",
					"salt()": "bfa0b133"
				}
			},
			"storageLayout": {
				"storage": [
					{
						"astId": 192,
						"contract": "shoot/3/create_create2计算/1.sol:att",
						"label": "che",
						"offset": 0,
						"slot": "0",
						"type": "t_contract(check)168"
					},
					{
						"astId": 194,
						"contract": "shoot/3/create_create2计算/1.sol:att",
						"label": "salt",
						"offset": 0,
						"slot": "1",
						"type": "t_bytes32"
					}
				],
				"types": {
					"t_bytes32": {
						"encoding": "inplace",
						"label": "bytes32",
						"numberOfBytes": "32"
					},
					"t_contract(check)168": {
						"encoding": "inplace",
						"label": "contract check",
						"numberOfBytes": "20"
					}
				}
			},
			"userdoc": {
				"kind": "user",
				"methods": {},
				"version": 1
			}
		}
	}
}