{
	"shoot/摸底3/3/1.sol": {
		"check": {
			"abi": [
				{
					"inputs": [],
					"name": "airdrop",
					"outputs": [],
					"stateMutability": "nonpayable",
					"type": "function"
				},
				{
					"inputs": [
						{
							"internalType": "address",
							"name": "",
							"type": "address"
						}
					],
					"name": "bankBal",
					"outputs": [
						{
							"internalType": "uint256",
							"name": "",
							"type": "uint256"
						}
					],
					"stateMutability": "view",
					"type": "function"
				},
				{
					"inputs": [
						{
							"internalType": "uint256",
							"name": "amount",
							"type": "uint256"
						}
					],
					"name": "deposit",
					"outputs": [],
					"stateMutability": "nonpayable",
					"type": "function"
				},
				{
					"inputs": [
						{
							"internalType": "uint256",
							"name": "borrowAmount",
							"type": "uint256"
						},
						{
							"internalType": "bytes",
							"name": "data",
							"type": "bytes"
						}
					],
					"name": "flashLoan",
					"outputs": [],
					"stateMutability": "nonpayable",
					"type": "function"
				},
				{
					"inputs": [],
					"name": "isCompleted",
					"outputs": [],
					"stateMutability": "nonpayable",
					"type": "function"
				},
				{
					"inputs": [],
					"name": "score",
					"outputs": [
						{
							"internalType": "uint256",
							"name": "",
							"type": "uint256"
						}
					],
					"stateMutability": "view",
					"type": "function"
				},
				{
					"inputs": [],
					"name": "token",
					"outputs": [
						{
							"internalType": "contract ERC20",
							"name": "",
							"type": "address"
						}
					],
					"stateMutability": "view",
					"type": "function"
				},
				{
					"inputs": [
						{
							"internalType": "uint256",
							"name": "amount",
							"type": "uint256"
						}
					],
					"name": "withdraw",
					"outputs": [],
					"stateMutability": "nonpayable",
					"type": "function"
				}
			],
			"devdoc": {
				"kind": "dev",
				"methods": {},
				"version": 1
			},
			"evm": {
				"assembly": "    /* \"shoot/\\xe6\\x91\\xb8\\xe5\\xba\\x953/3/1.sol\":4553:4837  contract check is loanbank{... */\n  mstore(0x40, 0x80)\n    /* \"shoot/\\xe6\\x91\\xb8\\xe5\\xba\\x953/3/1.sol\":2949:2960  new ERC20() */\n  mload(0x40)\n  tag_1\n  swap1\n  tag_2\n  jump\t// in\ntag_1:\n  mload(0x40)\n  dup1\n  swap2\n  sub\n  swap1\n  0x00\n  create\n  dup1\n  iszero\n  dup1\n  iszero\n  tag_3\n  jumpi\n  returndatasize\n  0x00\n  dup1\n  returndatacopy\n  revert(0x00, returndatasize)\ntag_3:\n  pop\n    /* \"shoot/\\xe6\\x91\\xb8\\xe5\\xba\\x953/3/1.sol\":2928:2960  ERC20 public token = new ERC20() */\n  0x00\n  dup1\n  0x0100\n  exp\n  dup2\n  sload\n  dup2\n  0xffffffffffffffffffffffffffffffffffffffff\n  mul\n  not\n  and\n  swap1\n  dup4\n  0xffffffffffffffffffffffffffffffffffffffff\n  and\n  mul\n  or\n  swap1\n  sstore\n  pop\n    /* \"shoot/\\xe6\\x91\\xb8\\xe5\\xba\\x953/3/1.sol\":4553:4837  contract check is loanbank{... */\n  callvalue\n  dup1\n  iszero\n  tag_4\n  jumpi\n  0x00\n  dup1\n  revert\ntag_4:\n  pop\n  jump(tag_5)\ntag_2:\n  dataSize(sub_1)\n  dup1\n  dataOffset(sub_1)\n  dup4\n  codecopy\n  add\n  swap1\n  jump\t// out\ntag_5:\n  dataSize(sub_0)\n  dup1\n  dataOffset(sub_0)\n  0x00\n  codecopy\n  0x00\n  return\nstop\n\nsub_0: assembly {\n        /* \"shoot/\\xe6\\x91\\xb8\\xe5\\xba\\x953/3/1.sol\":4553:4837  contract check is loanbank{... */\n      mstore(0x40, 0x80)\n      callvalue\n      dup1\n      iszero\n      tag_1\n      jumpi\n      0x00\n      dup1\n      revert\n    tag_1:\n      pop\n      jumpi(tag_2, lt(calldatasize, 0x04))\n      shr(0xe0, calldataload(0x00))\n      dup1\n      0xb6b55f25\n      gt\n      tag_11\n      jumpi\n      dup1\n      0xb6b55f25\n      eq\n      tag_7\n      jumpi\n      dup1\n      0xefedc669\n      eq\n      tag_8\n      jumpi\n      dup1\n      0xfa391c64\n      eq\n      tag_9\n      jumpi\n      dup1\n      0xfc0c546a\n      eq\n      tag_10\n      jumpi\n      jump(tag_2)\n    tag_11:\n      dup1\n      0x0512f60b\n      eq\n      tag_3\n      jumpi\n      dup1\n      0x2e1a7d4d\n      eq\n      tag_4\n      jumpi\n      dup1\n      0x3884d635\n      eq\n      tag_5\n      jumpi\n      dup1\n      0x5296a431\n      eq\n      tag_6\n      jumpi\n    tag_2:\n      0x00\n      dup1\n      revert\n        /* \"shoot/\\xe6\\x91\\xb8\\xe5\\xba\\x953/3/1.sol\":3000:3042  mapping(address => uint256) public bankBal */\n    tag_3:\n      tag_12\n      0x04\n      dup1\n      calldatasize\n      sub\n      dup2\n      add\n      swap1\n      tag_13\n      swap2\n      swap1\n      tag_14\n      jump\t// in\n    tag_13:\n      tag_15\n      jump\t// in\n    tag_12:\n      mload(0x40)\n      tag_16\n      swap2\n      swap1\n      tag_17\n      jump\t// in\n    tag_16:\n      mload(0x40)\n      dup1\n      swap2\n      sub\n      swap1\n      return\n        /* \"shoot/\\xe6\\x91\\xb8\\xe5\\xba\\x953/3/1.sol\":3214:3390  function withdraw(uint256 amount)public{... */\n    tag_4:\n      tag_18\n      0x04\n      dup1\n      calldatasize\n      sub\n      dup2\n      add\n      swap1\n      tag_19\n      swap2\n      swap1\n      tag_20\n      jump\t// in\n    tag_19:\n      tag_21\n      jump\t// in\n    tag_18:\n      stop\n        /* \"shoot/\\xe6\\x91\\xb8\\xe5\\xba\\x953/3/1.sol\":3398:3527  function airdrop()public{   ... */\n    tag_5:\n      tag_22\n      tag_23\n      jump\t// in\n    tag_22:\n      stop\n        /* \"shoot/\\xe6\\x91\\xb8\\xe5\\xba\\x953/3/1.sol\":3535:4083  function flashLoan(uint256 borrowAmount, bytes calldata data)... */\n    tag_6:\n      tag_24\n      0x04\n      dup1\n      calldatasize\n      sub\n      dup2\n      add\n      swap1\n      tag_25\n      swap2\n      swap1\n      tag_26\n      jump\t// in\n    tag_25:\n      tag_27\n      jump\t// in\n    tag_24:\n      stop\n        /* \"shoot/\\xe6\\x91\\xb8\\xe5\\xba\\x953/3/1.sol\":3051:3206  function deposit(uint256 amount)public{... */\n    tag_7:\n      tag_28\n      0x04\n      dup1\n      calldatasize\n      sub\n      dup2\n      add\n      swap1\n      tag_29\n      swap2\n      swap1\n      tag_20\n      jump\t// in\n    tag_29:\n      tag_30\n      jump\t// in\n    tag_28:\n      stop\n        /* \"shoot/\\xe6\\x91\\xb8\\xe5\\xba\\x953/3/1.sol\":4586:4606  uint256 public score */\n    tag_8:\n      tag_31\n      tag_32\n      jump\t// in\n    tag_31:\n      mload(0x40)\n      tag_33\n      swap2\n      swap1\n      tag_17\n      jump\t// in\n    tag_33:\n      mload(0x40)\n      dup1\n      swap2\n      sub\n      swap1\n      return\n        /* \"shoot/\\xe6\\x91\\xb8\\xe5\\xba\\x953/3/1.sol\":4613:4834  function isCompleted()public{... */\n    tag_9:\n      tag_34\n      tag_35\n      jump\t// in\n    tag_34:\n      stop\n        /* \"shoot/\\xe6\\x91\\xb8\\xe5\\xba\\x953/3/1.sol\":2928:2960  ERC20 public token = new ERC20() */\n    tag_10:\n      tag_36\n      tag_37\n      jump\t// in\n    tag_36:\n      mload(0x40)\n      tag_38\n      swap2\n      swap1\n      tag_39\n      jump\t// in\n    tag_38:\n      mload(0x40)\n      dup1\n      swap2\n      sub\n      swap1\n      return\n        /* \"shoot/\\xe6\\x91\\xb8\\xe5\\xba\\x953/3/1.sol\":3000:3042  mapping(address => uint256) public bankBal */\n    tag_15:\n      mstore(0x20, 0x01)\n      dup1\n      0x00\n      mstore\n      keccak256(0x00, 0x40)\n      0x00\n      swap2\n      pop\n      swap1\n      pop\n      sload\n      dup2\n      jump\t// out\n        /* \"shoot/\\xe6\\x91\\xb8\\xe5\\xba\\x953/3/1.sol\":3214:3390  function withdraw(uint256 amount)public{... */\n    tag_21:\n        /* \"shoot/\\xe6\\x91\\xb8\\xe5\\xba\\x953/3/1.sol\":3293:3299  amount */\n      dup1\n        /* \"shoot/\\xe6\\x91\\xb8\\xe5\\xba\\x953/3/1.sol\":3272:3279  bankBal */\n      0x01\n        /* \"shoot/\\xe6\\x91\\xb8\\xe5\\xba\\x953/3/1.sol\":3272:3291  bankBal[msg.sender] */\n      0x00\n        /* \"shoot/\\xe6\\x91\\xb8\\xe5\\xba\\x953/3/1.sol\":3280:3290  msg.sender */\n      caller\n        /* \"shoot/\\xe6\\x91\\xb8\\xe5\\xba\\x953/3/1.sol\":3272:3291  bankBal[msg.sender] */\n      0xffffffffffffffffffffffffffffffffffffffff\n      and\n      0xffffffffffffffffffffffffffffffffffffffff\n      and\n      dup2\n      mstore\n      0x20\n      add\n      swap1\n      dup2\n      mstore\n      0x20\n      add\n      0x00\n      keccak256\n      sload\n        /* \"shoot/\\xe6\\x91\\xb8\\xe5\\xba\\x953/3/1.sol\":3272:3299  bankBal[msg.sender]>=amount */\n      lt\n      iszero\n        /* \"shoot/\\xe6\\x91\\xb8\\xe5\\xba\\x953/3/1.sol\":3264:3300  require(bankBal[msg.sender]>=amount) */\n      tag_41\n      jumpi\n      0x00\n      dup1\n      revert\n    tag_41:\n        /* \"shoot/\\xe6\\x91\\xb8\\xe5\\xba\\x953/3/1.sol\":3311:3316  token */\n      0x00\n      dup1\n      sload\n      swap1\n      0x0100\n      exp\n      swap1\n      div\n      0xffffffffffffffffffffffffffffffffffffffff\n      and\n        /* \"shoot/\\xe6\\x91\\xb8\\xe5\\xba\\x953/3/1.sol\":3311:3325  token.transfer */\n      0xffffffffffffffffffffffffffffffffffffffff\n      and\n      0xa9059cbb\n        /* \"shoot/\\xe6\\x91\\xb8\\xe5\\xba\\x953/3/1.sol\":3326:3336  msg.sender */\n      caller\n        /* \"shoot/\\xe6\\x91\\xb8\\xe5\\xba\\x953/3/1.sol\":3337:3343  amount */\n      dup4\n        /* \"shoot/\\xe6\\x91\\xb8\\xe5\\xba\\x953/3/1.sol\":3311:3344  token.transfer(msg.sender,amount) */\n      mload(0x40)\n      dup4\n      0xffffffff\n      and\n      0xe0\n      shl\n      dup2\n      mstore\n      0x04\n      add\n      tag_42\n      swap3\n      swap2\n      swap1\n      tag_43\n      jump\t// in\n    tag_42:\n      0x20\n      mload(0x40)\n      dup1\n      dup4\n      sub\n      dup2\n      0x00\n      dup8\n      gas\n      call\n      iszero\n      dup1\n      iszero\n      tag_45\n      jumpi\n      returndatasize\n      0x00\n      dup1\n      returndatacopy\n      revert(0x00, returndatasize)\n    tag_45:\n      pop\n      pop\n      pop\n      pop\n      mload(0x40)\n      returndatasize\n      not(0x1f)\n      0x1f\n      dup3\n      add\n      and\n      dup3\n      add\n      dup1\n      0x40\n      mstore\n      pop\n      dup2\n      add\n      swap1\n      tag_46\n      swap2\n      swap1\n      tag_47\n      jump\t// in\n    tag_46:\n      pop\n        /* \"shoot/\\xe6\\x91\\xb8\\xe5\\xba\\x953/3/1.sol\":3376:3382  amount */\n      dup1\n        /* \"shoot/\\xe6\\x91\\xb8\\xe5\\xba\\x953/3/1.sol\":3355:3362  bankBal */\n      0x01\n        /* \"shoot/\\xe6\\x91\\xb8\\xe5\\xba\\x953/3/1.sol\":3355:3374  bankBal[msg.sender] */\n      0x00\n        /* \"shoot/\\xe6\\x91\\xb8\\xe5\\xba\\x953/3/1.sol\":3363:3373  msg.sender */\n      caller\n        /* \"shoot/\\xe6\\x91\\xb8\\xe5\\xba\\x953/3/1.sol\":3355:3374  bankBal[msg.sender] */\n      0xffffffffffffffffffffffffffffffffffffffff\n      and\n      0xffffffffffffffffffffffffffffffffffffffff\n      and\n      dup2\n      mstore\n      0x20\n      add\n      swap1\n      dup2\n      mstore\n      0x20\n      add\n      0x00\n      keccak256\n      0x00\n        /* \"shoot/\\xe6\\x91\\xb8\\xe5\\xba\\x953/3/1.sol\":3355:3382  bankBal[msg.sender]-=amount */\n      dup3\n      dup3\n      sload\n      tag_48\n      swap2\n      swap1\n      tag_49\n      jump\t// in\n    tag_48:\n      swap3\n      pop\n      pop\n      dup2\n      swap1\n      sstore\n      pop\n        /* \"shoot/\\xe6\\x91\\xb8\\xe5\\xba\\x953/3/1.sol\":3214:3390  function withdraw(uint256 amount)public{... */\n      pop\n      jump\t// out\n        /* \"shoot/\\xe6\\x91\\xb8\\xe5\\xba\\x953/3/1.sol\":3398:3527  function airdrop()public{   ... */\n    tag_23:\n        /* \"shoot/\\xe6\\x91\\xb8\\xe5\\xba\\x953/3/1.sol\":3445:3450  isAir */\n      0x00\n      0x14\n      swap1\n      sload\n      swap1\n      0x0100\n      exp\n      swap1\n      div\n      0xff\n      and\n        /* \"shoot/\\xe6\\x91\\xb8\\xe5\\xba\\x953/3/1.sol\":3444:3450  !isAir */\n      iszero\n        /* \"shoot/\\xe6\\x91\\xb8\\xe5\\xba\\x953/3/1.sol\":3436:3451  require(!isAir) */\n      tag_51\n      jumpi\n      0x00\n      dup1\n      revert\n    tag_51:\n        /* \"shoot/\\xe6\\x91\\xb8\\xe5\\xba\\x953/3/1.sol\":3468:3472  true */\n      0x01\n        /* \"shoot/\\xe6\\x91\\xb8\\xe5\\xba\\x953/3/1.sol\":3462:3467  isAir */\n      0x00\n      0x14\n        /* \"shoot/\\xe6\\x91\\xb8\\xe5\\xba\\x953/3/1.sol\":3462:3472  isAir=true */\n      0x0100\n      exp\n      dup2\n      sload\n      dup2\n      0xff\n      mul\n      not\n      and\n      swap1\n      dup4\n      iszero\n      iszero\n      mul\n      or\n      swap1\n      sstore\n      pop\n        /* \"shoot/\\xe6\\x91\\xb8\\xe5\\xba\\x953/3/1.sol\":3483:3488  token */\n      0x00\n      dup1\n      sload\n      swap1\n      0x0100\n      exp\n      swap1\n      div\n      0xffffffffffffffffffffffffffffffffffffffff\n      and\n        /* \"shoot/\\xe6\\x91\\xb8\\xe5\\xba\\x953/3/1.sol\":3483:3497  token.transfer */\n      0xffffffffffffffffffffffffffffffffffffffff\n      and\n      0xa9059cbb\n        /* \"shoot/\\xe6\\x91\\xb8\\xe5\\xba\\x953/3/1.sol\":3498:3508  msg.sender */\n      caller\n        /* \"shoot/\\xe6\\x91\\xb8\\xe5\\xba\\x953/3/1.sol\":3509:3518  0.1 ether */\n      0x016345785d8a0000\n        /* \"shoot/\\xe6\\x91\\xb8\\xe5\\xba\\x953/3/1.sol\":3483:3519  token.transfer(msg.sender,0.1 ether) */\n      mload(0x40)\n      dup4\n      0xffffffff\n      and\n      0xe0\n      shl\n      dup2\n      mstore\n      0x04\n      add\n      tag_52\n      swap3\n      swap2\n      swap1\n      tag_53\n      jump\t// in\n    tag_52:\n      0x20\n      mload(0x40)\n      dup1\n      dup4\n      sub\n      dup2\n      0x00\n      dup8\n      gas\n      call\n      iszero\n      dup1\n      iszero\n      tag_55\n      jumpi\n      returndatasize\n      0x00\n      dup1\n      returndatacopy\n      revert(0x00, returndatasize)\n    tag_55:\n      pop\n      pop\n      pop\n      pop\n      mload(0x40)\n      returndatasize\n      not(0x1f)\n      0x1f\n      dup3\n      add\n      and\n      dup3\n      add\n      dup1\n      0x40\n      mstore\n      pop\n      dup2\n      add\n      swap1\n      tag_56\n      swap2\n      swap1\n      tag_47\n      jump\t// in\n    tag_56:\n      pop\n        /* \"shoot/\\xe6\\x91\\xb8\\xe5\\xba\\x953/3/1.sol\":3398:3527  function airdrop()public{   ... */\n      jump\t// out\n        /* \"shoot/\\xe6\\x91\\xb8\\xe5\\xba\\x953/3/1.sol\":3535:4083  function flashLoan(uint256 borrowAmount, bytes calldata data)... */\n    tag_27:\n        /* \"shoot/\\xe6\\x91\\xb8\\xe5\\xba\\x953/3/1.sol\":3631:3652  uint256 balanceBefore */\n      0x00\n        /* \"shoot/\\xe6\\x91\\xb8\\xe5\\xba\\x953/3/1.sol\":3655:3660  token */\n      dup1\n      0x00\n      swap1\n      sload\n      swap1\n      0x0100\n      exp\n      swap1\n      div\n      0xffffffffffffffffffffffffffffffffffffffff\n      and\n        /* \"shoot/\\xe6\\x91\\xb8\\xe5\\xba\\x953/3/1.sol\":3655:3670  token.balanceOf */\n      0xffffffffffffffffffffffffffffffffffffffff\n      and\n      0x70a08231\n        /* \"shoot/\\xe6\\x91\\xb8\\xe5\\xba\\x953/3/1.sol\":3679:3683  this */\n      address\n        /* \"shoot/\\xe6\\x91\\xb8\\xe5\\xba\\x953/3/1.sol\":3655:3685  token.balanceOf(address(this)) */\n      mload(0x40)\n      dup3\n      0xffffffff\n      and\n      0xe0\n      shl\n      dup2\n      mstore\n      0x04\n      add\n      tag_58\n      swap2\n      swap1\n      tag_59\n      jump\t// in\n    tag_58:\n      0x20\n      mload(0x40)\n      dup1\n      dup4\n      sub\n      dup2\n      dup7\n      gas\n      staticcall\n      iszero\n      dup1\n      iszero\n      tag_61\n      jumpi\n      returndatasize\n      0x00\n      dup1\n      returndatacopy\n      revert(0x00, returndatasize)\n    tag_61:\n      pop\n      pop\n      pop\n      pop\n      mload(0x40)\n      returndatasize\n      not(0x1f)\n      0x1f\n      dup3\n      add\n      and\n      dup3\n      add\n      dup1\n      0x40\n      mstore\n      pop\n      dup2\n      add\n      swap1\n      tag_62\n      swap2\n      swap1\n      tag_63\n      jump\t// in\n    tag_62:\n        /* \"shoot/\\xe6\\x91\\xb8\\xe5\\xba\\x953/3/1.sol\":3631:3685  uint256 balanceBefore = token.balanceOf(address(this)) */\n      swap1\n      pop\n        /* \"shoot/\\xe6\\x91\\xb8\\xe5\\xba\\x953/3/1.sol\":3721:3733  borrowAmount */\n      dup4\n        /* \"shoot/\\xe6\\x91\\xb8\\xe5\\xba\\x953/3/1.sol\":3704:3717  balanceBefore */\n      dup2\n        /* \"shoot/\\xe6\\x91\\xb8\\xe5\\xba\\x953/3/1.sol\":3704:3733  balanceBefore >= borrowAmount */\n      lt\n      iszero\n        /* \"shoot/\\xe6\\x91\\xb8\\xe5\\xba\\x953/3/1.sol\":3696:3763  require(balanceBefore >= borrowAmount, \"Not enough tokens in pool\") */\n      tag_64\n      jumpi\n      mload(0x40)\n      0x08c379a000000000000000000000000000000000000000000000000000000000\n      dup2\n      mstore\n      0x04\n      add\n      tag_65\n      swap1\n      tag_66\n      jump\t// in\n    tag_65:\n      mload(0x40)\n      dup1\n      swap2\n      sub\n      swap1\n      revert\n    tag_64:\n        /* \"shoot/\\xe6\\x91\\xb8\\xe5\\xba\\x953/3/1.sol\":3781:3785  true */\n      0x01\n        /* \"shoot/\\xe6\\x91\\xb8\\xe5\\xba\\x953/3/1.sol\":3774:3778  lock */\n      0x00\n      0x15\n        /* \"shoot/\\xe6\\x91\\xb8\\xe5\\xba\\x953/3/1.sol\":3774:3785  lock = true */\n      0x0100\n      exp\n      dup2\n      sload\n      dup2\n      0xff\n      mul\n      not\n      and\n      swap1\n      dup4\n      iszero\n      iszero\n      mul\n      or\n      swap1\n      sstore\n      pop\n        /* \"shoot/\\xe6\\x91\\xb8\\xe5\\xba\\x953/3/1.sol\":3796:3801  token */\n      0x00\n      dup1\n      sload\n      swap1\n      0x0100\n      exp\n      swap1\n      div\n      0xffffffffffffffffffffffffffffffffffffffff\n      and\n        /* \"shoot/\\xe6\\x91\\xb8\\xe5\\xba\\x953/3/1.sol\":3796:3810  token.transfer */\n      0xffffffffffffffffffffffffffffffffffffffff\n      and\n      0xa9059cbb\n        /* \"shoot/\\xe6\\x91\\xb8\\xe5\\xba\\x953/3/1.sol\":3811:3821  msg.sender */\n      caller\n        /* \"shoot/\\xe6\\x91\\xb8\\xe5\\xba\\x953/3/1.sol\":3823:3835  borrowAmount */\n      dup7\n        /* \"shoot/\\xe6\\x91\\xb8\\xe5\\xba\\x953/3/1.sol\":3796:3836  token.transfer(msg.sender, borrowAmount) */\n      mload(0x40)\n      dup4\n      0xffffffff\n      and\n      0xe0\n      shl\n      dup2\n      mstore\n      0x04\n      add\n      tag_67\n      swap3\n      swap2\n      swap1\n      tag_43\n      jump\t// in\n    tag_67:\n      0x20\n      mload(0x40)\n      dup1\n      dup4\n      sub\n      dup2\n      0x00\n      dup8\n      gas\n      call\n      iszero\n      dup1\n      iszero\n      tag_69\n      jumpi\n      returndatasize\n      0x00\n      dup1\n      returndatacopy\n      revert(0x00, returndatasize)\n    tag_69:\n      pop\n      pop\n      pop\n      pop\n      mload(0x40)\n      returndatasize\n      not(0x1f)\n      0x1f\n      dup3\n      add\n      and\n      dup3\n      add\n      dup1\n      0x40\n      mstore\n      pop\n      dup2\n      add\n      swap1\n      tag_70\n      swap2\n      swap1\n      tag_47\n      jump\t// in\n    tag_70:\n      pop\n        /* \"shoot/\\xe6\\x91\\xb8\\xe5\\xba\\x953/3/1.sol\":3847:3857  msg.sender */\n      caller\n        /* \"shoot/\\xe6\\x91\\xb8\\xe5\\xba\\x953/3/1.sol\":3847:3862  msg.sender.call */\n      0xffffffffffffffffffffffffffffffffffffffff\n      and\n        /* \"shoot/\\xe6\\x91\\xb8\\xe5\\xba\\x953/3/1.sol\":3863:3867  data */\n      dup4\n      dup4\n        /* \"shoot/\\xe6\\x91\\xb8\\xe5\\xba\\x953/3/1.sol\":3847:3868  msg.sender.call(data) */\n      mload(0x40)\n      tag_71\n      swap3\n      swap2\n      swap1\n      tag_72\n      jump\t// in\n    tag_71:\n      0x00\n      mload(0x40)\n      dup1\n      dup4\n      sub\n      dup2\n      0x00\n      dup7\n      gas\n      call\n      swap2\n      pop\n      pop\n      returndatasize\n      dup1\n      0x00\n      dup2\n      eq\n      tag_75\n      jumpi\n      mload(0x40)\n      swap2\n      pop\n      and(add(returndatasize, 0x3f), not(0x1f))\n      dup3\n      add\n      0x40\n      mstore\n      returndatasize\n      dup3\n      mstore\n      returndatasize\n      0x00\n      0x20\n      dup5\n      add\n      returndatacopy\n      jump(tag_74)\n    tag_75:\n      0x60\n      swap2\n      pop\n    tag_74:\n      pop\n      pop\n      pop\n        /* \"shoot/\\xe6\\x91\\xb8\\xe5\\xba\\x953/3/1.sol\":3884:3889  false */\n      0x00\n        /* \"shoot/\\xe6\\x91\\xb8\\xe5\\xba\\x953/3/1.sol\":3879:3883  lock */\n      dup1\n      0x15\n        /* \"shoot/\\xe6\\x91\\xb8\\xe5\\xba\\x953/3/1.sol\":3879:3889  lock=false */\n      0x0100\n      exp\n      dup2\n      sload\n      dup2\n      0xff\n      mul\n      not\n      and\n      swap1\n      dup4\n      iszero\n      iszero\n      mul\n      or\n      swap1\n      sstore\n      pop\n        /* \"shoot/\\xe6\\x91\\xb8\\xe5\\xba\\x953/3/1.sol\":3900:3920  uint256 balanceAfter */\n      0x00\n        /* \"shoot/\\xe6\\x91\\xb8\\xe5\\xba\\x953/3/1.sol\":3923:3928  token */\n      dup1\n      0x00\n      swap1\n      sload\n      swap1\n      0x0100\n      exp\n      swap1\n      div\n      0xffffffffffffffffffffffffffffffffffffffff\n      and\n        /* \"shoot/\\xe6\\x91\\xb8\\xe5\\xba\\x953/3/1.sol\":3923:3938  token.balanceOf */\n      0xffffffffffffffffffffffffffffffffffffffff\n      and\n      0x70a08231\n        /* \"shoot/\\xe6\\x91\\xb8\\xe5\\xba\\x953/3/1.sol\":3947:3951  this */\n      address\n        /* \"shoot/\\xe6\\x91\\xb8\\xe5\\xba\\x953/3/1.sol\":3923:3953  token.balanceOf(address(this)) */\n      mload(0x40)\n      dup3\n      0xffffffff\n      and\n      0xe0\n      shl\n      dup2\n      mstore\n      0x04\n      add\n      tag_76\n      swap2\n      swap1\n      tag_59\n      jump\t// in\n    tag_76:\n      0x20\n      mload(0x40)\n      dup1\n      dup4\n      sub\n      dup2\n      dup7\n      gas\n      staticcall\n      iszero\n      dup1\n      iszero\n      tag_78\n      jumpi\n      returndatasize\n      0x00\n      dup1\n      returndatacopy\n      revert(0x00, returndatasize)\n    tag_78:\n      pop\n      pop\n      pop\n      pop\n      mload(0x40)\n      returndatasize\n      not(0x1f)\n      0x1f\n      dup3\n      add\n      and\n      dup3\n      add\n      dup1\n      0x40\n      mstore\n      pop\n      dup2\n      add\n      swap1\n      tag_79\n      swap2\n      swap1\n      tag_63\n      jump\t// in\n    tag_79:\n        /* \"shoot/\\xe6\\x91\\xb8\\xe5\\xba\\x953/3/1.sol\":3900:3953  uint256 balanceAfter = token.balanceOf(address(this)) */\n      swap1\n      pop\n        /* \"shoot/\\xe6\\x91\\xb8\\xe5\\xba\\x953/3/1.sol\":4002:4015  balanceBefore */\n      dup2\n        /* \"shoot/\\xe6\\x91\\xb8\\xe5\\xba\\x953/3/1.sol\":3986:3998  balanceAfter */\n      dup2\n        /* \"shoot/\\xe6\\x91\\xb8\\xe5\\xba\\x953/3/1.sol\":3986:4015  balanceAfter >= balanceBefore */\n      lt\n      iszero\n        /* \"shoot/\\xe6\\x91\\xb8\\xe5\\xba\\x953/3/1.sol\":3964:4075  require(... */\n      tag_80\n      jumpi\n      mload(0x40)\n      0x08c379a000000000000000000000000000000000000000000000000000000000\n      dup2\n      mstore\n      0x04\n      add\n      tag_81\n      swap1\n      tag_82\n      jump\t// in\n    tag_81:\n      mload(0x40)\n      dup1\n      swap2\n      sub\n      swap1\n      revert\n    tag_80:\n        /* \"shoot/\\xe6\\x91\\xb8\\xe5\\xba\\x953/3/1.sol\":3620:4083  {... */\n      pop\n      pop\n        /* \"shoot/\\xe6\\x91\\xb8\\xe5\\xba\\x953/3/1.sol\":3535:4083  function flashLoan(uint256 borrowAmount, bytes calldata data)... */\n      pop\n      pop\n      pop\n      jump\t// out\n        /* \"shoot/\\xe6\\x91\\xb8\\xe5\\xba\\x953/3/1.sol\":3051:3206  function deposit(uint256 amount)public{... */\n    tag_30:\n        /* \"shoot/\\xe6\\x91\\xb8\\xe5\\xba\\x953/3/1.sol\":3108:3113  token */\n      0x00\n      dup1\n      sload\n      swap1\n      0x0100\n      exp\n      swap1\n      div\n      0xffffffffffffffffffffffffffffffffffffffff\n      and\n        /* \"shoot/\\xe6\\x91\\xb8\\xe5\\xba\\x953/3/1.sol\":3108:3126  token.transferFrom */\n      0xffffffffffffffffffffffffffffffffffffffff\n      and\n      0x23b872dd\n        /* \"shoot/\\xe6\\x91\\xb8\\xe5\\xba\\x953/3/1.sol\":3127:3137  msg.sender */\n      caller\n        /* \"shoot/\\xe6\\x91\\xb8\\xe5\\xba\\x953/3/1.sol\":3146:3150  this */\n      address\n        /* \"shoot/\\xe6\\x91\\xb8\\xe5\\xba\\x953/3/1.sol\":3152:3158  amount */\n      dup5\n        /* \"shoot/\\xe6\\x91\\xb8\\xe5\\xba\\x953/3/1.sol\":3108:3159  token.transferFrom(msg.sender,address(this),amount) */\n      mload(0x40)\n      dup5\n      0xffffffff\n      and\n      0xe0\n      shl\n      dup2\n      mstore\n      0x04\n      add\n      tag_84\n      swap4\n      swap3\n      swap2\n      swap1\n      tag_85\n      jump\t// in\n    tag_84:\n      0x20\n      mload(0x40)\n      dup1\n      dup4\n      sub\n      dup2\n      0x00\n      dup8\n      gas\n      call\n      iszero\n      dup1\n      iszero\n      tag_87\n      jumpi\n      returndatasize\n      0x00\n      dup1\n      returndatacopy\n      revert(0x00, returndatasize)\n    tag_87:\n      pop\n      pop\n      pop\n      pop\n      mload(0x40)\n      returndatasize\n      not(0x1f)\n      0x1f\n      dup3\n      add\n      and\n      dup3\n      add\n      dup1\n      0x40\n      mstore\n      pop\n      dup2\n      add\n      swap1\n      tag_88\n      swap2\n      swap1\n      tag_47\n      jump\t// in\n    tag_88:\n        /* \"shoot/\\xe6\\x91\\xb8\\xe5\\xba\\x953/3/1.sol\":3100:3160  require(token.transferFrom(msg.sender,address(this),amount)) */\n      tag_89\n      jumpi\n      0x00\n      dup1\n      revert\n    tag_89:\n        /* \"shoot/\\xe6\\x91\\xb8\\xe5\\xba\\x953/3/1.sol\":3192:3198  amount */\n      dup1\n        /* \"shoot/\\xe6\\x91\\xb8\\xe5\\xba\\x953/3/1.sol\":3171:3178  bankBal */\n      0x01\n        /* \"shoot/\\xe6\\x91\\xb8\\xe5\\xba\\x953/3/1.sol\":3171:3190  bankBal[msg.sender] */\n      0x00\n        /* \"shoot/\\xe6\\x91\\xb8\\xe5\\xba\\x953/3/1.sol\":3179:3189  msg.sender */\n      caller\n        /* \"shoot/\\xe6\\x91\\xb8\\xe5\\xba\\x953/3/1.sol\":3171:3190  bankBal[msg.sender] */\n      0xffffffffffffffffffffffffffffffffffffffff\n      and\n      0xffffffffffffffffffffffffffffffffffffffff\n      and\n      dup2\n      mstore\n      0x20\n      add\n      swap1\n      dup2\n      mstore\n      0x20\n      add\n      0x00\n      keccak256\n      0x00\n        /* \"shoot/\\xe6\\x91\\xb8\\xe5\\xba\\x953/3/1.sol\":3171:3198  bankBal[msg.sender]+=amount */\n      dup3\n      dup3\n      sload\n      tag_90\n      swap2\n      swap1\n      tag_91\n      jump\t// in\n    tag_90:\n      swap3\n      pop\n      pop\n      dup2\n      swap1\n      sstore\n      pop\n        /* \"shoot/\\xe6\\x91\\xb8\\xe5\\xba\\x953/3/1.sol\":3051:3206  function deposit(uint256 amount)public{... */\n      pop\n      jump\t// out\n        /* \"shoot/\\xe6\\x91\\xb8\\xe5\\xba\\x953/3/1.sol\":4586:4606  uint256 public score */\n    tag_32:\n      sload(0x02)\n      dup2\n      jump\t// out\n        /* \"shoot/\\xe6\\x91\\xb8\\xe5\\xba\\x953/3/1.sol\":4613:4834  function isCompleted()public{... */\n    tag_35:\n        /* \"shoot/\\xe6\\x91\\xb8\\xe5\\xba\\x953/3/1.sol\":4661:4665  lock */\n      0x00\n      0x15\n      swap1\n      sload\n      swap1\n      0x0100\n      exp\n      swap1\n      div\n      0xff\n      and\n        /* \"shoot/\\xe6\\x91\\xb8\\xe5\\xba\\x953/3/1.sol\":4660:4665  !lock */\n      iszero\n        /* \"shoot/\\xe6\\x91\\xb8\\xe5\\xba\\x953/3/1.sol\":4652:4666  require(!lock) */\n      tag_93\n      jumpi\n      0x00\n      dup1\n      revert\n    tag_93:\n        /* \"shoot/\\xe6\\x91\\xb8\\xe5\\xba\\x953/3/1.sol\":4694:4704  msg.sender */\n      caller\n        /* \"shoot/\\xe6\\x91\\xb8\\xe5\\xba\\x953/3/1.sol\":4681:4704  tx.origin != msg.sender */\n      0xffffffffffffffffffffffffffffffffffffffff\n      and\n        /* \"shoot/\\xe6\\x91\\xb8\\xe5\\xba\\x953/3/1.sol\":4681:4690  tx.origin */\n      origin\n        /* \"shoot/\\xe6\\x91\\xb8\\xe5\\xba\\x953/3/1.sol\":4681:4704  tx.origin != msg.sender */\n      0xffffffffffffffffffffffffffffffffffffffff\n      and\n      eq\n        /* \"shoot/\\xe6\\x91\\xb8\\xe5\\xba\\x953/3/1.sol\":4677:4741  if (tx.origin != msg.sender){... */\n      tag_94\n      jumpi\n        /* \"shoot/\\xe6\\x91\\xb8\\xe5\\xba\\x953/3/1.sol\":4727:4729  25 */\n      0x19\n        /* \"shoot/\\xe6\\x91\\xb8\\xe5\\xba\\x953/3/1.sol\":4720:4725  score */\n      0x02\n      0x00\n        /* \"shoot/\\xe6\\x91\\xb8\\xe5\\xba\\x953/3/1.sol\":4720:4729  score+=25 */\n      dup3\n      dup3\n      sload\n      tag_95\n      swap2\n      swap1\n      tag_91\n      jump\t// in\n    tag_95:\n      swap3\n      pop\n      pop\n      dup2\n      swap1\n      sstore\n      pop\n        /* \"shoot/\\xe6\\x91\\xb8\\xe5\\xba\\x953/3/1.sol\":4677:4741  if (tx.origin != msg.sender){... */\n    tag_94:\n        /* \"shoot/\\xe6\\x91\\xb8\\xe5\\xba\\x953/3/1.sol\":4789:4790  0 */\n      0x00\n        /* \"shoot/\\xe6\\x91\\xb8\\xe5\\xba\\x953/3/1.sol\":4757:4762  token */\n      dup1\n      0x00\n      swap1\n      sload\n      swap1\n      0x0100\n      exp\n      swap1\n      div\n      0xffffffffffffffffffffffffffffffffffffffff\n      and\n        /* \"shoot/\\xe6\\x91\\xb8\\xe5\\xba\\x953/3/1.sol\":4757:4772  token.balanceOf */\n      0xffffffffffffffffffffffffffffffffffffffff\n      and\n      0x70a08231\n        /* \"shoot/\\xe6\\x91\\xb8\\xe5\\xba\\x953/3/1.sol\":4781:4785  this */\n      address\n        /* \"shoot/\\xe6\\x91\\xb8\\xe5\\xba\\x953/3/1.sol\":4757:4787  token.balanceOf(address(this)) */\n      mload(0x40)\n      dup3\n      0xffffffff\n      and\n      0xe0\n      shl\n      dup2\n      mstore\n      0x04\n      add\n      tag_96\n      swap2\n      swap1\n      tag_59\n      jump\t// in\n    tag_96:\n      0x20\n      mload(0x40)\n      dup1\n      dup4\n      sub\n      dup2\n      dup7\n      gas\n      staticcall\n      iszero\n      dup1\n      iszero\n      tag_98\n      jumpi\n      returndatasize\n      0x00\n      dup1\n      returndatacopy\n      revert(0x00, returndatasize)\n    tag_98:\n      pop\n      pop\n      pop\n      pop\n      mload(0x40)\n      returndatasize\n      not(0x1f)\n      0x1f\n      dup3\n      add\n      and\n      dup3\n      add\n      dup1\n      0x40\n      mstore\n      pop\n      dup2\n      add\n      swap1\n      tag_99\n      swap2\n      swap1\n      tag_63\n      jump\t// in\n    tag_99:\n        /* \"shoot/\\xe6\\x91\\xb8\\xe5\\xba\\x953/3/1.sol\":4757:4790  token.balanceOf(address(this))==0 */\n      sub\n        /* \"shoot/\\xe6\\x91\\xb8\\xe5\\xba\\x953/3/1.sol\":4753:4827  if (token.balanceOf(address(this))==0){... */\n      tag_100\n      jumpi\n        /* \"shoot/\\xe6\\x91\\xb8\\xe5\\xba\\x953/3/1.sol\":4813:4815  75 */\n      0x4b\n        /* \"shoot/\\xe6\\x91\\xb8\\xe5\\xba\\x953/3/1.sol\":4806:4811  score */\n      0x02\n      0x00\n        /* \"shoot/\\xe6\\x91\\xb8\\xe5\\xba\\x953/3/1.sol\":4806:4815  score+=75 */\n      dup3\n      dup3\n      sload\n      tag_101\n      swap2\n      swap1\n      tag_91\n      jump\t// in\n    tag_101:\n      swap3\n      pop\n      pop\n      dup2\n      swap1\n      sstore\n      pop\n        /* \"shoot/\\xe6\\x91\\xb8\\xe5\\xba\\x953/3/1.sol\":4753:4827  if (token.balanceOf(address(this))==0){... */\n    tag_100:\n        /* \"shoot/\\xe6\\x91\\xb8\\xe5\\xba\\x953/3/1.sol\":4613:4834  function isCompleted()public{... */\n      jump\t// out\n        /* \"shoot/\\xe6\\x91\\xb8\\xe5\\xba\\x953/3/1.sol\":2928:2960  ERC20 public token = new ERC20() */\n    tag_37:\n      0x00\n      dup1\n      sload\n      swap1\n      0x0100\n      exp\n      swap1\n      div\n      0xffffffffffffffffffffffffffffffffffffffff\n      and\n      dup2\n      jump\t// out\n        /* \"#utility.yul\":88:205   */\n    tag_103:\n        /* \"#utility.yul\":197:198   */\n      0x00\n        /* \"#utility.yul\":194:195   */\n      dup1\n        /* \"#utility.yul\":187:199   */\n      revert\n        /* \"#utility.yul\":211:328   */\n    tag_104:\n        /* \"#utility.yul\":320:321   */\n      0x00\n        /* \"#utility.yul\":317:318   */\n      dup1\n        /* \"#utility.yul\":310:322   */\n      revert\n        /* \"#utility.yul\":334:460   */\n    tag_105:\n        /* \"#utility.yul\":371:378   */\n      0x00\n        /* \"#utility.yul\":411:453   */\n      0xffffffffffffffffffffffffffffffffffffffff\n        /* \"#utility.yul\":404:409   */\n      dup3\n        /* \"#utility.yul\":400:454   */\n      and\n        /* \"#utility.yul\":389:454   */\n      swap1\n      pop\n        /* \"#utility.yul\":334:460   */\n      swap2\n      swap1\n      pop\n      jump\t// out\n        /* \"#utility.yul\":466:562   */\n    tag_106:\n        /* \"#utility.yul\":503:510   */\n      0x00\n        /* \"#utility.yul\":532:556   */\n      tag_145\n        /* \"#utility.yul\":550:555   */\n      dup3\n        /* \"#utility.yul\":532:556   */\n      tag_105\n      jump\t// in\n    tag_145:\n        /* \"#utility.yul\":521:556   */\n      swap1\n      pop\n        /* \"#utility.yul\":466:562   */\n      swap2\n      swap1\n      pop\n      jump\t// out\n        /* \"#utility.yul\":568:690   */\n    tag_107:\n        /* \"#utility.yul\":641:665   */\n      tag_147\n        /* \"#utility.yul\":659:664   */\n      dup2\n        /* \"#utility.yul\":641:665   */\n      tag_106\n      jump\t// in\n    tag_147:\n        /* \"#utility.yul\":634:639   */\n      dup2\n        /* \"#utility.yul\":631:666   */\n      eq\n        /* \"#utility.yul\":621:684   */\n      tag_148\n      jumpi\n        /* \"#utility.yul\":680:681   */\n      0x00\n        /* \"#utility.yul\":677:678   */\n      dup1\n        /* \"#utility.yul\":670:682   */\n      revert\n        /* \"#utility.yul\":621:684   */\n    tag_148:\n        /* \"#utility.yul\":568:690   */\n      pop\n      jump\t// out\n        /* \"#utility.yul\":696:835   */\n    tag_108:\n        /* \"#utility.yul\":742:747   */\n      0x00\n        /* \"#utility.yul\":780:786   */\n      dup2\n        /* \"#utility.yul\":767:787   */\n      calldataload\n        /* \"#utility.yul\":758:787   */\n      swap1\n      pop\n        /* \"#utility.yul\":796:829   */\n      tag_150\n        /* \"#utility.yul\":823:828   */\n      dup2\n        /* \"#utility.yul\":796:829   */\n      tag_107\n      jump\t// in\n    tag_150:\n        /* \"#utility.yul\":696:835   */\n      swap3\n      swap2\n      pop\n      pop\n      jump\t// out\n        /* \"#utility.yul\":841:1170   */\n    tag_14:\n        /* \"#utility.yul\":900:906   */\n      0x00\n        /* \"#utility.yul\":949:951   */\n      0x20\n        /* \"#utility.yul\":937:946   */\n      dup3\n        /* \"#utility.yul\":928:935   */\n      dup5\n        /* \"#utility.yul\":924:947   */\n      sub\n        /* \"#utility.yul\":920:952   */\n      slt\n        /* \"#utility.yul\":917:1036   */\n      iszero\n      tag_152\n      jumpi\n        /* \"#utility.yul\":955:1034   */\n      tag_153\n      tag_103\n      jump\t// in\n    tag_153:\n        /* \"#utility.yul\":917:1036   */\n    tag_152:\n        /* \"#utility.yul\":1075:1076   */\n      0x00\n        /* \"#utility.yul\":1100:1153   */\n      tag_154\n        /* \"#utility.yul\":1145:1152   */\n      dup5\n        /* \"#utility.yul\":1136:1142   */\n      dup3\n        /* \"#utility.yul\":1125:1134   */\n      dup6\n        /* \"#utility.yul\":1121:1143   */\n      add\n        /* \"#utility.yul\":1100:1153   */\n      tag_108\n      jump\t// in\n    tag_154:\n        /* \"#utility.yul\":1090:1153   */\n      swap2\n      pop\n        /* \"#utility.yul\":1046:1163   */\n      pop\n        /* \"#utility.yul\":841:1170   */\n      swap3\n      swap2\n      pop\n      pop\n      jump\t// out\n        /* \"#utility.yul\":1176:1253   */\n    tag_109:\n        /* \"#utility.yul\":1213:1220   */\n      0x00\n        /* \"#utility.yul\":1242:1247   */\n      dup2\n        /* \"#utility.yul\":1231:1247   */\n      swap1\n      pop\n        /* \"#utility.yul\":1176:1253   */\n      swap2\n      swap1\n      pop\n      jump\t// out\n        /* \"#utility.yul\":1259:1377   */\n    tag_110:\n        /* \"#utility.yul\":1346:1370   */\n      tag_157\n        /* \"#utility.yul\":1364:1369   */\n      dup2\n        /* \"#utility.yul\":1346:1370   */\n      tag_109\n      jump\t// in\n    tag_157:\n        /* \"#utility.yul\":1341:1344   */\n      dup3\n        /* \"#utility.yul\":1334:1371   */\n      mstore\n        /* \"#utility.yul\":1259:1377   */\n      pop\n      pop\n      jump\t// out\n        /* \"#utility.yul\":1383:1605   */\n    tag_17:\n        /* \"#utility.yul\":1476:1480   */\n      0x00\n        /* \"#utility.yul\":1514:1516   */\n      0x20\n        /* \"#utility.yul\":1503:1512   */\n      dup3\n        /* \"#utility.yul\":1499:1517   */\n      add\n        /* \"#utility.yul\":1491:1517   */\n      swap1\n      pop\n        /* \"#utility.yul\":1527:1598   */\n      tag_159\n        /* \"#utility.yul\":1595:1596   */\n      0x00\n        /* \"#utility.yul\":1584:1593   */\n      dup4\n        /* \"#utility.yul\":1580:1597   */\n      add\n        /* \"#utility.yul\":1571:1577   */\n      dup5\n        /* \"#utility.yul\":1527:1598   */\n      tag_110\n      jump\t// in\n    tag_159:\n        /* \"#utility.yul\":1383:1605   */\n      swap3\n      swap2\n      pop\n      pop\n      jump\t// out\n        /* \"#utility.yul\":1611:1733   */\n    tag_111:\n        /* \"#utility.yul\":1684:1708   */\n      tag_161\n        /* \"#utility.yul\":1702:1707   */\n      dup2\n        /* \"#utility.yul\":1684:1708   */\n      tag_109\n      jump\t// in\n    tag_161:\n        /* \"#utility.yul\":1677:1682   */\n      dup2\n        /* \"#utility.yul\":1674:1709   */\n      eq\n        /* \"#utility.yul\":1664:1727   */\n      tag_162\n      jumpi\n        /* \"#utility.yul\":1723:1724   */\n      0x00\n        /* \"#utility.yul\":1720:1721   */\n      dup1\n        /* \"#utility.yul\":1713:1725   */\n      revert\n        /* \"#utility.yul\":1664:1727   */\n    tag_162:\n        /* \"#utility.yul\":1611:1733   */\n      pop\n      jump\t// out\n        /* \"#utility.yul\":1739:1878   */\n    tag_112:\n        /* \"#utility.yul\":1785:1790   */\n      0x00\n        /* \"#utility.yul\":1823:1829   */\n      dup2\n        /* \"#utility.yul\":1810:1830   */\n      calldataload\n        /* \"#utility.yul\":1801:1830   */\n      swap1\n      pop\n        /* \"#utility.yul\":1839:1872   */\n      tag_164\n        /* \"#utility.yul\":1866:1871   */\n      dup2\n        /* \"#utility.yul\":1839:1872   */\n      tag_111\n      jump\t// in\n    tag_164:\n        /* \"#utility.yul\":1739:1878   */\n      swap3\n      swap2\n      pop\n      pop\n      jump\t// out\n        /* \"#utility.yul\":1884:2213   */\n    tag_20:\n        /* \"#utility.yul\":1943:1949   */\n      0x00\n        /* \"#utility.yul\":1992:1994   */\n      0x20\n        /* \"#utility.yul\":1980:1989   */\n      dup3\n        /* \"#utility.yul\":1971:1978   */\n      dup5\n        /* \"#utility.yul\":1967:1990   */\n      sub\n        /* \"#utility.yul\":1963:1995   */\n      slt\n        /* \"#utility.yul\":1960:2079   */\n      iszero\n      tag_166\n      jumpi\n        /* \"#utility.yul\":1998:2077   */\n      tag_167\n      tag_103\n      jump\t// in\n    tag_167:\n        /* \"#utility.yul\":1960:2079   */\n    tag_166:\n        /* \"#utility.yul\":2118:2119   */\n      0x00\n        /* \"#utility.yul\":2143:2196   */\n      tag_168\n        /* \"#utility.yul\":2188:2195   */\n      dup5\n        /* \"#utility.yul\":2179:2185   */\n      dup3\n        /* \"#utility.yul\":2168:2177   */\n      dup6\n        /* \"#utility.yul\":2164:2186   */\n      add\n        /* \"#utility.yul\":2143:2196   */\n      tag_112\n      jump\t// in\n    tag_168:\n        /* \"#utility.yul\":2133:2196   */\n      swap2\n      pop\n        /* \"#utility.yul\":2089:2206   */\n      pop\n        /* \"#utility.yul\":1884:2213   */\n      swap3\n      swap2\n      pop\n      pop\n      jump\t// out\n        /* \"#utility.yul\":2219:2336   */\n    tag_113:\n        /* \"#utility.yul\":2328:2329   */\n      0x00\n        /* \"#utility.yul\":2325:2326   */\n      dup1\n        /* \"#utility.yul\":2318:2330   */\n      revert\n        /* \"#utility.yul\":2342:2459   */\n    tag_114:\n        /* \"#utility.yul\":2451:2452   */\n      0x00\n        /* \"#utility.yul\":2448:2449   */\n      dup1\n        /* \"#utility.yul\":2441:2453   */\n      revert\n        /* \"#utility.yul\":2465:2582   */\n    tag_115:\n        /* \"#utility.yul\":2574:2575   */\n      0x00\n        /* \"#utility.yul\":2571:2572   */\n      dup1\n        /* \"#utility.yul\":2564:2576   */\n      revert\n        /* \"#utility.yul\":2601:3153   */\n    tag_116:\n        /* \"#utility.yul\":2658:2666   */\n      0x00\n        /* \"#utility.yul\":2668:2674   */\n      dup1\n        /* \"#utility.yul\":2718:2721   */\n      dup4\n        /* \"#utility.yul\":2711:2715   */\n      0x1f\n        /* \"#utility.yul\":2703:2709   */\n      dup5\n        /* \"#utility.yul\":2699:2716   */\n      add\n        /* \"#utility.yul\":2695:2722   */\n      slt\n        /* \"#utility.yul\":2685:2807   */\n      tag_173\n      jumpi\n        /* \"#utility.yul\":2726:2805   */\n      tag_174\n      tag_113\n      jump\t// in\n    tag_174:\n        /* \"#utility.yul\":2685:2807   */\n    tag_173:\n        /* \"#utility.yul\":2839:2845   */\n      dup3\n        /* \"#utility.yul\":2826:2846   */\n      calldataload\n        /* \"#utility.yul\":2816:2846   */\n      swap1\n      pop\n        /* \"#utility.yul\":2869:2887   */\n      0xffffffffffffffff\n        /* \"#utility.yul\":2861:2867   */\n      dup2\n        /* \"#utility.yul\":2858:2888   */\n      gt\n        /* \"#utility.yul\":2855:2972   */\n      iszero\n      tag_175\n      jumpi\n        /* \"#utility.yul\":2891:2970   */\n      tag_176\n      tag_114\n      jump\t// in\n    tag_176:\n        /* \"#utility.yul\":2855:2972   */\n    tag_175:\n        /* \"#utility.yul\":3005:3009   */\n      0x20\n        /* \"#utility.yul\":2997:3003   */\n      dup4\n        /* \"#utility.yul\":2993:3010   */\n      add\n        /* \"#utility.yul\":2981:3010   */\n      swap2\n      pop\n        /* \"#utility.yul\":3059:3062   */\n      dup4\n        /* \"#utility.yul\":3051:3055   */\n      0x01\n        /* \"#utility.yul\":3043:3049   */\n      dup3\n        /* \"#utility.yul\":3039:3056   */\n      mul\n        /* \"#utility.yul\":3029:3037   */\n      dup4\n        /* \"#utility.yul\":3025:3057   */\n      add\n        /* \"#utility.yul\":3022:3063   */\n      gt\n        /* \"#utility.yul\":3019:3147   */\n      iszero\n      tag_177\n      jumpi\n        /* \"#utility.yul\":3066:3145   */\n      tag_178\n      tag_115\n      jump\t// in\n    tag_178:\n        /* \"#utility.yul\":3019:3147   */\n    tag_177:\n        /* \"#utility.yul\":2601:3153   */\n      swap3\n      pop\n      swap3\n      swap1\n      pop\n      jump\t// out\n        /* \"#utility.yul\":3159:3831   */\n    tag_26:\n        /* \"#utility.yul\":3238:3244   */\n      0x00\n        /* \"#utility.yul\":3246:3252   */\n      dup1\n        /* \"#utility.yul\":3254:3260   */\n      0x00\n        /* \"#utility.yul\":3303:3305   */\n      0x40\n        /* \"#utility.yul\":3291:3300   */\n      dup5\n        /* \"#utility.yul\":3282:3289   */\n      dup7\n        /* \"#utility.yul\":3278:3301   */\n      sub\n        /* \"#utility.yul\":3274:3306   */\n      slt\n        /* \"#utility.yul\":3271:3390   */\n      iszero\n      tag_180\n      jumpi\n        /* \"#utility.yul\":3309:3388   */\n      tag_181\n      tag_103\n      jump\t// in\n    tag_181:\n        /* \"#utility.yul\":3271:3390   */\n    tag_180:\n        /* \"#utility.yul\":3429:3430   */\n      0x00\n        /* \"#utility.yul\":3454:3507   */\n      tag_182\n        /* \"#utility.yul\":3499:3506   */\n      dup7\n        /* \"#utility.yul\":3490:3496   */\n      dup3\n        /* \"#utility.yul\":3479:3488   */\n      dup8\n        /* \"#utility.yul\":3475:3497   */\n      add\n        /* \"#utility.yul\":3454:3507   */\n      tag_112\n      jump\t// in\n    tag_182:\n        /* \"#utility.yul\":3444:3507   */\n      swap4\n      pop\n        /* \"#utility.yul\":3400:3517   */\n      pop\n        /* \"#utility.yul\":3584:3586   */\n      0x20\n        /* \"#utility.yul\":3573:3582   */\n      dup5\n        /* \"#utility.yul\":3569:3587   */\n      add\n        /* \"#utility.yul\":3556:3588   */\n      calldataload\n        /* \"#utility.yul\":3615:3633   */\n      0xffffffffffffffff\n        /* \"#utility.yul\":3607:3613   */\n      dup2\n        /* \"#utility.yul\":3604:3634   */\n      gt\n        /* \"#utility.yul\":3601:3718   */\n      iszero\n      tag_183\n      jumpi\n        /* \"#utility.yul\":3637:3716   */\n      tag_184\n      tag_104\n      jump\t// in\n    tag_184:\n        /* \"#utility.yul\":3601:3718   */\n    tag_183:\n        /* \"#utility.yul\":3750:3814   */\n      tag_185\n        /* \"#utility.yul\":3806:3813   */\n      dup7\n        /* \"#utility.yul\":3797:3803   */\n      dup3\n        /* \"#utility.yul\":3786:3795   */\n      dup8\n        /* \"#utility.yul\":3782:3804   */\n      add\n        /* \"#utility.yul\":3750:3814   */\n      tag_116\n      jump\t// in\n    tag_185:\n        /* \"#utility.yul\":3732:3814   */\n      swap3\n      pop\n      swap3\n      pop\n        /* \"#utility.yul\":3527:3824   */\n      pop\n        /* \"#utility.yul\":3159:3831   */\n      swap3\n      pop\n      swap3\n      pop\n      swap3\n      jump\t// out\n        /* \"#utility.yul\":3837:3897   */\n    tag_117:\n        /* \"#utility.yul\":3865:3868   */\n      0x00\n        /* \"#utility.yul\":3886:3891   */\n      dup2\n        /* \"#utility.yul\":3879:3891   */\n      swap1\n      pop\n        /* \"#utility.yul\":3837:3897   */\n      swap2\n      swap1\n      pop\n      jump\t// out\n        /* \"#utility.yul\":3903:4045   */\n    tag_118:\n        /* \"#utility.yul\":3953:3962   */\n      0x00\n        /* \"#utility.yul\":3986:4039   */\n      tag_188\n        /* \"#utility.yul\":4004:4038   */\n      tag_189\n        /* \"#utility.yul\":4013:4037   */\n      tag_190\n        /* \"#utility.yul\":4031:4036   */\n      dup5\n        /* \"#utility.yul\":4013:4037   */\n      tag_105\n      jump\t// in\n    tag_190:\n        /* \"#utility.yul\":4004:4038   */\n      tag_117\n      jump\t// in\n    tag_189:\n        /* \"#utility.yul\":3986:4039   */\n      tag_105\n      jump\t// in\n    tag_188:\n        /* \"#utility.yul\":3973:4039   */\n      swap1\n      pop\n        /* \"#utility.yul\":3903:4045   */\n      swap2\n      swap1\n      pop\n      jump\t// out\n        /* \"#utility.yul\":4051:4177   */\n    tag_119:\n        /* \"#utility.yul\":4101:4110   */\n      0x00\n        /* \"#utility.yul\":4134:4171   */\n      tag_192\n        /* \"#utility.yul\":4165:4170   */\n      dup3\n        /* \"#utility.yul\":4134:4171   */\n      tag_118\n      jump\t// in\n    tag_192:\n        /* \"#utility.yul\":4121:4171   */\n      swap1\n      pop\n        /* \"#utility.yul\":4051:4177   */\n      swap2\n      swap1\n      pop\n      jump\t// out\n        /* \"#utility.yul\":4183:4322   */\n    tag_120:\n        /* \"#utility.yul\":4246:4255   */\n      0x00\n        /* \"#utility.yul\":4279:4316   */\n      tag_194\n        /* \"#utility.yul\":4310:4315   */\n      dup3\n        /* \"#utility.yul\":4279:4316   */\n      tag_119\n      jump\t// in\n    tag_194:\n        /* \"#utility.yul\":4266:4316   */\n      swap1\n      pop\n        /* \"#utility.yul\":4183:4322   */\n      swap2\n      swap1\n      pop\n      jump\t// out\n        /* \"#utility.yul\":4328:4485   */\n    tag_121:\n        /* \"#utility.yul\":4428:4478   */\n      tag_196\n        /* \"#utility.yul\":4472:4477   */\n      dup2\n        /* \"#utility.yul\":4428:4478   */\n      tag_120\n      jump\t// in\n    tag_196:\n        /* \"#utility.yul\":4423:4426   */\n      dup3\n        /* \"#utility.yul\":4416:4479   */\n      mstore\n        /* \"#utility.yul\":4328:4485   */\n      pop\n      pop\n      jump\t// out\n        /* \"#utility.yul\":4491:4739   */\n    tag_39:\n        /* \"#utility.yul\":4597:4601   */\n      0x00\n        /* \"#utility.yul\":4635:4637   */\n      0x20\n        /* \"#utility.yul\":4624:4633   */\n      dup3\n        /* \"#utility.yul\":4620:4638   */\n      add\n        /* \"#utility.yul\":4612:4638   */\n      swap1\n      pop\n        /* \"#utility.yul\":4648:4732   */\n      tag_198\n        /* \"#utility.yul\":4729:4730   */\n      0x00\n        /* \"#utility.yul\":4718:4727   */\n      dup4\n        /* \"#utility.yul\":4714:4731   */\n      add\n        /* \"#utility.yul\":4705:4711   */\n      dup5\n        /* \"#utility.yul\":4648:4732   */\n      tag_121\n      jump\t// in\n    tag_198:\n        /* \"#utility.yul\":4491:4739   */\n      swap3\n      swap2\n      pop\n      pop\n      jump\t// out\n        /* \"#utility.yul\":4745:4863   */\n    tag_122:\n        /* \"#utility.yul\":4832:4856   */\n      tag_200\n        /* \"#utility.yul\":4850:4855   */\n      dup2\n        /* \"#utility.yul\":4832:4856   */\n      tag_106\n      jump\t// in\n    tag_200:\n        /* \"#utility.yul\":4827:4830   */\n      dup3\n        /* \"#utility.yul\":4820:4857   */\n      mstore\n        /* \"#utility.yul\":4745:4863   */\n      pop\n      pop\n      jump\t// out\n        /* \"#utility.yul\":4869:5201   */\n    tag_43:\n        /* \"#utility.yul\":4990:4994   */\n      0x00\n        /* \"#utility.yul\":5028:5030   */\n      0x40\n        /* \"#utility.yul\":5017:5026   */\n      dup3\n        /* \"#utility.yul\":5013:5031   */\n      add\n        /* \"#utility.yul\":5005:5031   */\n      swap1\n      pop\n        /* \"#utility.yul\":5041:5112   */\n      tag_202\n        /* \"#utility.yul\":5109:5110   */\n      0x00\n        /* \"#utility.yul\":5098:5107   */\n      dup4\n        /* \"#utility.yul\":5094:5111   */\n      add\n        /* \"#utility.yul\":5085:5091   */\n      dup6\n        /* \"#utility.yul\":5041:5112   */\n      tag_122\n      jump\t// in\n    tag_202:\n        /* \"#utility.yul\":5122:5194   */\n      tag_203\n        /* \"#utility.yul\":5190:5192   */\n      0x20\n        /* \"#utility.yul\":5179:5188   */\n      dup4\n        /* \"#utility.yul\":5175:5193   */\n      add\n        /* \"#utility.yul\":5166:5172   */\n      dup5\n        /* \"#utility.yul\":5122:5194   */\n      tag_110\n      jump\t// in\n    tag_203:\n        /* \"#utility.yul\":4869:5201   */\n      swap4\n      swap3\n      pop\n      pop\n      pop\n      jump\t// out\n        /* \"#utility.yul\":5207:5297   */\n    tag_123:\n        /* \"#utility.yul\":5241:5248   */\n      0x00\n        /* \"#utility.yul\":5284:5289   */\n      dup2\n        /* \"#utility.yul\":5277:5290   */\n      iszero\n        /* \"#utility.yul\":5270:5291   */\n      iszero\n        /* \"#utility.yul\":5259:5291   */\n      swap1\n      pop\n        /* \"#utility.yul\":5207:5297   */\n      swap2\n      swap1\n      pop\n      jump\t// out\n        /* \"#utility.yul\":5303:5419   */\n    tag_124:\n        /* \"#utility.yul\":5373:5394   */\n      tag_206\n        /* \"#utility.yul\":5388:5393   */\n      dup2\n        /* \"#utility.yul\":5373:5394   */\n      tag_123\n      jump\t// in\n    tag_206:\n        /* \"#utility.yul\":5366:5371   */\n      dup2\n        /* \"#utility.yul\":5363:5395   */\n      eq\n        /* \"#utility.yul\":5353:5413   */\n      tag_207\n      jumpi\n        /* \"#utility.yul\":5409:5410   */\n      0x00\n        /* \"#utility.yul\":5406:5407   */\n      dup1\n        /* \"#utility.yul\":5399:5411   */\n      revert\n        /* \"#utility.yul\":5353:5413   */\n    tag_207:\n        /* \"#utility.yul\":5303:5419   */\n      pop\n      jump\t// out\n        /* \"#utility.yul\":5425:5562   */\n    tag_125:\n        /* \"#utility.yul\":5479:5484   */\n      0x00\n        /* \"#utility.yul\":5510:5516   */\n      dup2\n        /* \"#utility.yul\":5504:5517   */\n      mload\n        /* \"#utility.yul\":5495:5517   */\n      swap1\n      pop\n        /* \"#utility.yul\":5526:5556   */\n      tag_209\n        /* \"#utility.yul\":5550:5555   */\n      dup2\n        /* \"#utility.yul\":5526:5556   */\n      tag_124\n      jump\t// in\n    tag_209:\n        /* \"#utility.yul\":5425:5562   */\n      swap3\n      swap2\n      pop\n      pop\n      jump\t// out\n        /* \"#utility.yul\":5568:5913   */\n    tag_47:\n        /* \"#utility.yul\":5635:5641   */\n      0x00\n        /* \"#utility.yul\":5684:5686   */\n      0x20\n        /* \"#utility.yul\":5672:5681   */\n      dup3\n        /* \"#utility.yul\":5663:5670   */\n      dup5\n        /* \"#utility.yul\":5659:5682   */\n      sub\n        /* \"#utility.yul\":5655:5687   */\n      slt\n        /* \"#utility.yul\":5652:5771   */\n      iszero\n      tag_211\n      jumpi\n        /* \"#utility.yul\":5690:5769   */\n      tag_212\n      tag_103\n      jump\t// in\n    tag_212:\n        /* \"#utility.yul\":5652:5771   */\n    tag_211:\n        /* \"#utility.yul\":5810:5811   */\n      0x00\n        /* \"#utility.yul\":5835:5896   */\n      tag_213\n        /* \"#utility.yul\":5888:5895   */\n      dup5\n        /* \"#utility.yul\":5879:5885   */\n      dup3\n        /* \"#utility.yul\":5868:5877   */\n      dup6\n        /* \"#utility.yul\":5864:5886   */\n      add\n        /* \"#utility.yul\":5835:5896   */\n      tag_125\n      jump\t// in\n    tag_213:\n        /* \"#utility.yul\":5825:5896   */\n      swap2\n      pop\n        /* \"#utility.yul\":5781:5906   */\n      pop\n        /* \"#utility.yul\":5568:5913   */\n      swap3\n      swap2\n      pop\n      pop\n      jump\t// out\n        /* \"#utility.yul\":5919:6099   */\n    tag_126:\n        /* \"#utility.yul\":5967:6044   */\n      0x4e487b7100000000000000000000000000000000000000000000000000000000\n        /* \"#utility.yul\":5964:5965   */\n      0x00\n        /* \"#utility.yul\":5957:6045   */\n      mstore\n        /* \"#utility.yul\":6064:6068   */\n      0x11\n        /* \"#utility.yul\":6061:6062   */\n      0x04\n        /* \"#utility.yul\":6054:6069   */\n      mstore\n        /* \"#utility.yul\":6088:6092   */\n      0x24\n        /* \"#utility.yul\":6085:6086   */\n      0x00\n        /* \"#utility.yul\":6078:6093   */\n      revert\n        /* \"#utility.yul\":6105:6299   */\n    tag_49:\n        /* \"#utility.yul\":6145:6149   */\n      0x00\n        /* \"#utility.yul\":6165:6185   */\n      tag_216\n        /* \"#utility.yul\":6183:6184   */\n      dup3\n        /* \"#utility.yul\":6165:6185   */\n      tag_109\n      jump\t// in\n    tag_216:\n        /* \"#utility.yul\":6160:6185   */\n      swap2\n      pop\n        /* \"#utility.yul\":6199:6219   */\n      tag_217\n        /* \"#utility.yul\":6217:6218   */\n      dup4\n        /* \"#utility.yul\":6199:6219   */\n      tag_109\n      jump\t// in\n    tag_217:\n        /* \"#utility.yul\":6194:6219   */\n      swap3\n      pop\n        /* \"#utility.yul\":6243:6244   */\n      dup3\n        /* \"#utility.yul\":6240:6241   */\n      dup3\n        /* \"#utility.yul\":6236:6245   */\n      sub\n        /* \"#utility.yul\":6228:6245   */\n      swap1\n      pop\n        /* \"#utility.yul\":6267:6268   */\n      dup2\n        /* \"#utility.yul\":6261:6265   */\n      dup2\n        /* \"#utility.yul\":6258:6269   */\n      gt\n        /* \"#utility.yul\":6255:6292   */\n      iszero\n      tag_218\n      jumpi\n        /* \"#utility.yul\":6272:6290   */\n      tag_219\n      tag_126\n      jump\t// in\n    tag_219:\n        /* \"#utility.yul\":6255:6292   */\n    tag_218:\n        /* \"#utility.yul\":6105:6299   */\n      swap3\n      swap2\n      pop\n      pop\n      jump\t// out\n        /* \"#utility.yul\":6305:6407   */\n    tag_127:\n        /* \"#utility.yul\":6367:6374   */\n      0x00\n        /* \"#utility.yul\":6396:6401   */\n      dup2\n        /* \"#utility.yul\":6385:6401   */\n      swap1\n      pop\n        /* \"#utility.yul\":6305:6407   */\n      swap2\n      swap1\n      pop\n      jump\t// out\n        /* \"#utility.yul\":6413:6605   */\n    tag_128:\n        /* \"#utility.yul\":6488:6497   */\n      0x00\n        /* \"#utility.yul\":6521:6599   */\n      tag_222\n        /* \"#utility.yul\":6539:6598   */\n      tag_223\n        /* \"#utility.yul\":6548:6597   */\n      tag_224\n        /* \"#utility.yul\":6591:6596   */\n      dup5\n        /* \"#utility.yul\":6548:6597   */\n      tag_127\n      jump\t// in\n    tag_224:\n        /* \"#utility.yul\":6539:6598   */\n      tag_117\n      jump\t// in\n    tag_223:\n        /* \"#utility.yul\":6521:6599   */\n      tag_109\n      jump\t// in\n    tag_222:\n        /* \"#utility.yul\":6508:6599   */\n      swap1\n      pop\n        /* \"#utility.yul\":6413:6605   */\n      swap2\n      swap1\n      pop\n      jump\t// out\n        /* \"#utility.yul\":6611:6792   */\n    tag_129:\n        /* \"#utility.yul\":6723:6785   */\n      tag_226\n        /* \"#utility.yul\":6779:6784   */\n      dup2\n        /* \"#utility.yul\":6723:6785   */\n      tag_128\n      jump\t// in\n    tag_226:\n        /* \"#utility.yul\":6718:6721   */\n      dup3\n        /* \"#utility.yul\":6711:6786   */\n      mstore\n        /* \"#utility.yul\":6611:6792   */\n      pop\n      pop\n      jump\t// out\n        /* \"#utility.yul\":6798:7180   */\n    tag_53:\n        /* \"#utility.yul\":6944:6948   */\n      0x00\n        /* \"#utility.yul\":6982:6984   */\n      0x40\n        /* \"#utility.yul\":6971:6980   */\n      dup3\n        /* \"#utility.yul\":6967:6985   */\n      add\n        /* \"#utility.yul\":6959:6985   */\n      swap1\n      pop\n        /* \"#utility.yul\":6995:7066   */\n      tag_228\n        /* \"#utility.yul\":7063:7064   */\n      0x00\n        /* \"#utility.yul\":7052:7061   */\n      dup4\n        /* \"#utility.yul\":7048:7065   */\n      add\n        /* \"#utility.yul\":7039:7045   */\n      dup6\n        /* \"#utility.yul\":6995:7066   */\n      tag_122\n      jump\t// in\n    tag_228:\n        /* \"#utility.yul\":7076:7173   */\n      tag_229\n        /* \"#utility.yul\":7169:7171   */\n      0x20\n        /* \"#utility.yul\":7158:7167   */\n      dup4\n        /* \"#utility.yul\":7154:7172   */\n      add\n        /* \"#utility.yul\":7145:7151   */\n      dup5\n        /* \"#utility.yul\":7076:7173   */\n      tag_129\n      jump\t// in\n    tag_229:\n        /* \"#utility.yul\":6798:7180   */\n      swap4\n      swap3\n      pop\n      pop\n      pop\n      jump\t// out\n        /* \"#utility.yul\":7186:7408   */\n    tag_59:\n        /* \"#utility.yul\":7279:7283   */\n      0x00\n        /* \"#utility.yul\":7317:7319   */\n      0x20\n        /* \"#utility.yul\":7306:7315   */\n      dup3\n        /* \"#utility.yul\":7302:7320   */\n      add\n        /* \"#utility.yul\":7294:7320   */\n      swap1\n      pop\n        /* \"#utility.yul\":7330:7401   */\n      tag_231\n        /* \"#utility.yul\":7398:7399   */\n      0x00\n        /* \"#utility.yul\":7387:7396   */\n      dup4\n        /* \"#utility.yul\":7383:7400   */\n      add\n        /* \"#utility.yul\":7374:7380   */\n      dup5\n        /* \"#utility.yul\":7330:7401   */\n      tag_122\n      jump\t// in\n    tag_231:\n        /* \"#utility.yul\":7186:7408   */\n      swap3\n      swap2\n      pop\n      pop\n      jump\t// out\n        /* \"#utility.yul\":7414:7557   */\n    tag_130:\n        /* \"#utility.yul\":7471:7476   */\n      0x00\n        /* \"#utility.yul\":7502:7508   */\n      dup2\n        /* \"#utility.yul\":7496:7509   */\n      mload\n        /* \"#utility.yul\":7487:7509   */\n      swap1\n      pop\n        /* \"#utility.yul\":7518:7551   */\n      tag_233\n        /* \"#utility.yul\":7545:7550   */\n      dup2\n        /* \"#utility.yul\":7518:7551   */\n      tag_111\n      jump\t// in\n    tag_233:\n        /* \"#utility.yul\":7414:7557   */\n      swap3\n      swap2\n      pop\n      pop\n      jump\t// out\n        /* \"#utility.yul\":7563:7914   */\n    tag_63:\n        /* \"#utility.yul\":7633:7639   */\n      0x00\n        /* \"#utility.yul\":7682:7684   */\n      0x20\n        /* \"#utility.yul\":7670:7679   */\n      dup3\n        /* \"#utility.yul\":7661:7668   */\n      dup5\n        /* \"#utility.yul\":7657:7680   */\n      sub\n        /* \"#utility.yul\":7653:7685   */\n      slt\n        /* \"#utility.yul\":7650:7769   */\n      iszero\n      tag_235\n      jumpi\n        /* \"#utility.yul\":7688:7767   */\n      tag_236\n      tag_103\n      jump\t// in\n    tag_236:\n        /* \"#utility.yul\":7650:7769   */\n    tag_235:\n        /* \"#utility.yul\":7808:7809   */\n      0x00\n        /* \"#utility.yul\":7833:7897   */\n      tag_237\n        /* \"#utility.yul\":7889:7896   */\n      dup5\n        /* \"#utility.yul\":7880:7886   */\n      dup3\n        /* \"#utility.yul\":7869:7878   */\n      dup6\n        /* \"#utility.yul\":7865:7887   */\n      add\n        /* \"#utility.yul\":7833:7897   */\n      tag_130\n      jump\t// in\n    tag_237:\n        /* \"#utility.yul\":7823:7897   */\n      swap2\n      pop\n        /* \"#utility.yul\":7779:7907   */\n      pop\n        /* \"#utility.yul\":7563:7914   */\n      swap3\n      swap2\n      pop\n      pop\n      jump\t// out\n        /* \"#utility.yul\":7920:8089   */\n    tag_131:\n        /* \"#utility.yul\":8004:8015   */\n      0x00\n        /* \"#utility.yul\":8038:8044   */\n      dup3\n        /* \"#utility.yul\":8033:8036   */\n      dup3\n        /* \"#utility.yul\":8026:8045   */\n      mstore\n        /* \"#utility.yul\":8078:8082   */\n      0x20\n        /* \"#utility.yul\":8073:8076   */\n      dup3\n        /* \"#utility.yul\":8069:8083   */\n      add\n        /* \"#utility.yul\":8054:8083   */\n      swap1\n      pop\n        /* \"#utility.yul\":7920:8089   */\n      swap3\n      swap2\n      pop\n      pop\n      jump\t// out\n        /* \"#utility.yul\":8095:8270   */\n    tag_132:\n        /* \"#utility.yul\":8235:8262   */\n      0x4e6f7420656e6f75676820746f6b656e7320696e20706f6f6c00000000000000\n        /* \"#utility.yul\":8231:8232   */\n      0x00\n        /* \"#utility.yul\":8223:8229   */\n      dup3\n        /* \"#utility.yul\":8219:8233   */\n      add\n        /* \"#utility.yul\":8212:8263   */\n      mstore\n        /* \"#utility.yul\":8095:8270   */\n      pop\n      jump\t// out\n        /* \"#utility.yul\":8276:8642   */\n    tag_133:\n        /* \"#utility.yul\":8418:8421   */\n      0x00\n        /* \"#utility.yul\":8439:8506   */\n      tag_241\n        /* \"#utility.yul\":8503:8505   */\n      0x19\n        /* \"#utility.yul\":8498:8501   */\n      dup4\n        /* \"#utility.yul\":8439:8506   */\n      tag_131\n      jump\t// in\n    tag_241:\n        /* \"#utility.yul\":8432:8506   */\n      swap2\n      pop\n        /* \"#utility.yul\":8515:8608   */\n      tag_242\n        /* \"#utility.yul\":8604:8607   */\n      dup3\n        /* \"#utility.yul\":8515:8608   */\n      tag_132\n      jump\t// in\n    tag_242:\n        /* \"#utility.yul\":8633:8635   */\n      0x20\n        /* \"#utility.yul\":8628:8631   */\n      dup3\n        /* \"#utility.yul\":8624:8636   */\n      add\n        /* \"#utility.yul\":8617:8636   */\n      swap1\n      pop\n        /* \"#utility.yul\":8276:8642   */\n      swap2\n      swap1\n      pop\n      jump\t// out\n        /* \"#utility.yul\":8648:9067   */\n    tag_66:\n        /* \"#utility.yul\":8814:8818   */\n      0x00\n        /* \"#utility.yul\":8852:8854   */\n      0x20\n        /* \"#utility.yul\":8841:8850   */\n      dup3\n        /* \"#utility.yul\":8837:8855   */\n      add\n        /* \"#utility.yul\":8829:8855   */\n      swap1\n      pop\n        /* \"#utility.yul\":8901:8910   */\n      dup2\n        /* \"#utility.yul\":8895:8899   */\n      dup2\n        /* \"#utility.yul\":8891:8911   */\n      sub\n        /* \"#utility.yul\":8887:8888   */\n      0x00\n        /* \"#utility.yul\":8876:8885   */\n      dup4\n        /* \"#utility.yul\":8872:8889   */\n      add\n        /* \"#utility.yul\":8865:8912   */\n      mstore\n        /* \"#utility.yul\":8929:9060   */\n      tag_244\n        /* \"#utility.yul\":9055:9059   */\n      dup2\n        /* \"#utility.yul\":8929:9060   */\n      tag_133\n      jump\t// in\n    tag_244:\n        /* \"#utility.yul\":8921:9060   */\n      swap1\n      pop\n        /* \"#utility.yul\":8648:9067   */\n      swap2\n      swap1\n      pop\n      jump\t// out\n        /* \"#utility.yul\":9073:9220   */\n    tag_134:\n        /* \"#utility.yul\":9174:9185   */\n      0x00\n        /* \"#utility.yul\":9211:9214   */\n      dup2\n        /* \"#utility.yul\":9196:9214   */\n      swap1\n      pop\n        /* \"#utility.yul\":9073:9220   */\n      swap3\n      swap2\n      pop\n      pop\n      jump\t// out\n        /* \"#utility.yul\":9226:9372   */\n    tag_135:\n        /* \"#utility.yul\":9323:9329   */\n      dup3\n        /* \"#utility.yul\":9318:9321   */\n      dup2\n        /* \"#utility.yul\":9313:9316   */\n      dup4\n        /* \"#utility.yul\":9300:9330   */\n      calldatacopy\n        /* \"#utility.yul\":9364:9365   */\n      0x00\n        /* \"#utility.yul\":9355:9361   */\n      dup4\n        /* \"#utility.yul\":9350:9353   */\n      dup4\n        /* \"#utility.yul\":9346:9362   */\n      add\n        /* \"#utility.yul\":9339:9366   */\n      mstore\n        /* \"#utility.yul\":9226:9372   */\n      pop\n      pop\n      pop\n      jump\t// out\n        /* \"#utility.yul\":9400:9727   */\n    tag_136:\n        /* \"#utility.yul\":9514:9517   */\n      0x00\n        /* \"#utility.yul\":9535:9623   */\n      tag_248\n        /* \"#utility.yul\":9616:9622   */\n      dup4\n        /* \"#utility.yul\":9611:9614   */\n      dup6\n        /* \"#utility.yul\":9535:9623   */\n      tag_134\n      jump\t// in\n    tag_248:\n        /* \"#utility.yul\":9528:9623   */\n      swap4\n      pop\n        /* \"#utility.yul\":9633:9689   */\n      tag_249\n        /* \"#utility.yul\":9682:9688   */\n      dup4\n        /* \"#utility.yul\":9677:9680   */\n      dup6\n        /* \"#utility.yul\":9670:9675   */\n      dup5\n        /* \"#utility.yul\":9633:9689   */\n      tag_135\n      jump\t// in\n    tag_249:\n        /* \"#utility.yul\":9714:9720   */\n      dup3\n        /* \"#utility.yul\":9709:9712   */\n      dup5\n        /* \"#utility.yul\":9705:9721   */\n      add\n        /* \"#utility.yul\":9698:9721   */\n      swap1\n      pop\n        /* \"#utility.yul\":9400:9727   */\n      swap4\n      swap3\n      pop\n      pop\n      pop\n      jump\t// out\n        /* \"#utility.yul\":9733:10024   */\n    tag_72:\n        /* \"#utility.yul\":9873:9876   */\n      0x00\n        /* \"#utility.yul\":9895:9998   */\n      tag_251\n        /* \"#utility.yul\":9994:9997   */\n      dup3\n        /* \"#utility.yul\":9985:9991   */\n      dup5\n        /* \"#utility.yul\":9977:9983   */\n      dup7\n        /* \"#utility.yul\":9895:9998   */\n      tag_136\n      jump\t// in\n    tag_251:\n        /* \"#utility.yul\":9888:9998   */\n      swap2\n      pop\n        /* \"#utility.yul\":10015:10018   */\n      dup2\n        /* \"#utility.yul\":10008:10018   */\n      swap1\n      pop\n        /* \"#utility.yul\":9733:10024   */\n      swap4\n      swap3\n      pop\n      pop\n      pop\n      jump\t// out\n        /* \"#utility.yul\":10030:10212   */\n    tag_137:\n        /* \"#utility.yul\":10170:10204   */\n      0x466c617368206c6f616e206861736e2774206265656e2070616964206261636b\n        /* \"#utility.yul\":10166:10167   */\n      0x00\n        /* \"#utility.yul\":10158:10164   */\n      dup3\n        /* \"#utility.yul\":10154:10168   */\n      add\n        /* \"#utility.yul\":10147:10205   */\n      mstore\n        /* \"#utility.yul\":10030:10212   */\n      pop\n      jump\t// out\n        /* \"#utility.yul\":10218:10584   */\n    tag_138:\n        /* \"#utility.yul\":10360:10363   */\n      0x00\n        /* \"#utility.yul\":10381:10448   */\n      tag_254\n        /* \"#utility.yul\":10445:10447   */\n      0x20\n        /* \"#utility.yul\":10440:10443   */\n      dup4\n        /* \"#utility.yul\":10381:10448   */\n      tag_131\n      jump\t// in\n    tag_254:\n        /* \"#utility.yul\":10374:10448   */\n      swap2\n      pop\n        /* \"#utility.yul\":10457:10550   */\n      tag_255\n        /* \"#utility.yul\":10546:10549   */\n      dup3\n        /* \"#utility.yul\":10457:10550   */\n      tag_137\n      jump\t// in\n    tag_255:\n        /* \"#utility.yul\":10575:10577   */\n      0x20\n        /* \"#utility.yul\":10570:10573   */\n      dup3\n        /* \"#utility.yul\":10566:10578   */\n      add\n        /* \"#utility.yul\":10559:10578   */\n      swap1\n      pop\n        /* \"#utility.yul\":10218:10584   */\n      swap2\n      swap1\n      pop\n      jump\t// out\n        /* \"#utility.yul\":10590:11009   */\n    tag_82:\n        /* \"#utility.yul\":10756:10760   */\n      0x00\n        /* \"#utility.yul\":10794:10796   */\n      0x20\n        /* \"#utility.yul\":10783:10792   */\n      dup3\n        /* \"#utility.yul\":10779:10797   */\n      add\n        /* \"#utility.yul\":10771:10797   */\n      swap1\n      pop\n        /* \"#utility.yul\":10843:10852   */\n      dup2\n        /* \"#utility.yul\":10837:10841   */\n      dup2\n        /* \"#utility.yul\":10833:10853   */\n      sub\n        /* \"#utility.yul\":10829:10830   */\n      0x00\n        /* \"#utility.yul\":10818:10827   */\n      dup4\n        /* \"#utility.yul\":10814:10831   */\n      add\n        /* \"#utility.yul\":10807:10854   */\n      mstore\n        /* \"#utility.yul\":10871:11002   */\n      tag_257\n        /* \"#utility.yul\":10997:11001   */\n      dup2\n        /* \"#utility.yul\":10871:11002   */\n      tag_138\n      jump\t// in\n    tag_257:\n        /* \"#utility.yul\":10863:11002   */\n      swap1\n      pop\n        /* \"#utility.yul\":10590:11009   */\n      swap2\n      swap1\n      pop\n      jump\t// out\n        /* \"#utility.yul\":11015:11457   */\n    tag_85:\n        /* \"#utility.yul\":11164:11168   */\n      0x00\n        /* \"#utility.yul\":11202:11204   */\n      0x60\n        /* \"#utility.yul\":11191:11200   */\n      dup3\n        /* \"#utility.yul\":11187:11205   */\n      add\n        /* \"#utility.yul\":11179:11205   */\n      swap1\n      pop\n        /* \"#utility.yul\":11215:11286   */\n      tag_259\n        /* \"#utility.yul\":11283:11284   */\n      0x00\n        /* \"#utility.yul\":11272:11281   */\n      dup4\n        /* \"#utility.yul\":11268:11285   */\n      add\n        /* \"#utility.yul\":11259:11265   */\n      dup7\n        /* \"#utility.yul\":11215:11286   */\n      tag_122\n      jump\t// in\n    tag_259:\n        /* \"#utility.yul\":11296:11368   */\n      tag_260\n        /* \"#utility.yul\":11364:11366   */\n      0x20\n        /* \"#utility.yul\":11353:11362   */\n      dup4\n        /* \"#utility.yul\":11349:11367   */\n      add\n        /* \"#utility.yul\":11340:11346   */\n      dup6\n        /* \"#utility.yul\":11296:11368   */\n      tag_122\n      jump\t// in\n    tag_260:\n        /* \"#utility.yul\":11378:11450   */\n      tag_261\n        /* \"#utility.yul\":11446:11448   */\n      0x40\n        /* \"#utility.yul\":11435:11444   */\n      dup4\n        /* \"#utility.yul\":11431:11449   */\n      add\n        /* \"#utility.yul\":11422:11428   */\n      dup5\n        /* \"#utility.yul\":11378:11450   */\n      tag_110\n      jump\t// in\n    tag_261:\n        /* \"#utility.yul\":11015:11457   */\n      swap5\n      swap4\n      pop\n      pop\n      pop\n      pop\n      jump\t// out\n        /* \"#utility.yul\":11463:11654   */\n    tag_91:\n        /* \"#utility.yul\":11503:11506   */\n      0x00\n        /* \"#utility.yul\":11522:11542   */\n      tag_263\n        /* \"#utility.yul\":11540:11541   */\n      dup3\n        /* \"#utility.yul\":11522:11542   */\n      tag_109\n      jump\t// in\n    tag_263:\n        /* \"#utility.yul\":11517:11542   */\n      swap2\n      pop\n        /* \"#utility.yul\":11556:11576   */\n      tag_264\n        /* \"#utility.yul\":11574:11575   */\n      dup4\n        /* \"#utility.yul\":11556:11576   */\n      tag_109\n      jump\t// in\n    tag_264:\n        /* \"#utility.yul\":11551:11576   */\n      swap3\n      pop\n        /* \"#utility.yul\":11599:11600   */\n      dup3\n        /* \"#utility.yul\":11596:11597   */\n      dup3\n        /* \"#utility.yul\":11592:11601   */\n      add\n        /* \"#utility.yul\":11585:11601   */\n      swap1\n      pop\n        /* \"#utility.yul\":11620:11623   */\n      dup1\n        /* \"#utility.yul\":11617:11618   */\n      dup3\n        /* \"#utility.yul\":11614:11624   */\n      gt\n        /* \"#utility.yul\":11611:11647   */\n      iszero\n      tag_265\n      jumpi\n        /* \"#utility.yul\":11627:11645   */\n      tag_266\n      tag_126\n      jump\t// in\n    tag_266:\n        /* \"#utility.yul\":11611:11647   */\n    tag_265:\n        /* \"#utility.yul\":11463:11654   */\n      swap3\n      swap2\n      pop\n      pop\n      jump\t// out\n\n    auxdata: 0xa26469706673582212207538fc04f75833b0eb88d6a85886574787e004e850fc5f632941702355bb207864736f6c63430008120033\n}\n\nsub_1: assembly {\n        /* \"shoot/\\xe6\\x91\\xb8\\xe5\\xba\\x953/3/1.sol\":751:2852  contract ERC20 is IERC20 {... */\n      mstore(0x40, 0x80)\n        /* \"shoot/\\xe6\\x91\\xb8\\xe5\\xba\\x953/3/1.sol\":1048:1058  1000 ether */\n      0x3635c9adc5dea00000\n        /* \"shoot/\\xe6\\x91\\xb8\\xe5\\xba\\x953/3/1.sol\":1025:1058  uint256 totalSupply_ = 1000 ether */\n      0x02\n      sstore\n        /* \"shoot/\\xe6\\x91\\xb8\\xe5\\xba\\x953/3/1.sol\":1068:1132  constructor() {... */\n      callvalue\n      dup1\n      iszero\n      tag_1\n      jumpi\n      0x00\n      dup1\n      revert\n    tag_1:\n      pop\n        /* \"shoot/\\xe6\\x91\\xb8\\xe5\\xba\\x953/3/1.sol\":1112:1124  totalSupply_ */\n      sload(0x02)\n        /* \"shoot/\\xe6\\x91\\xb8\\xe5\\xba\\x953/3/1.sol\":1089:1097  balances */\n      0x00\n        /* \"shoot/\\xe6\\x91\\xb8\\xe5\\xba\\x953/3/1.sol\":1089:1109  balances[msg.sender] */\n      dup1\n        /* \"shoot/\\xe6\\x91\\xb8\\xe5\\xba\\x953/3/1.sol\":1098:1108  msg.sender */\n      caller\n        /* \"shoot/\\xe6\\x91\\xb8\\xe5\\xba\\x953/3/1.sol\":1089:1109  balances[msg.sender] */\n      0xffffffffffffffffffffffffffffffffffffffff\n      and\n      0xffffffffffffffffffffffffffffffffffffffff\n      and\n      dup2\n      mstore\n      0x20\n      add\n      swap1\n      dup2\n      mstore\n      0x20\n      add\n      0x00\n      keccak256\n        /* \"shoot/\\xe6\\x91\\xb8\\xe5\\xba\\x953/3/1.sol\":1089:1124  balances[msg.sender] = totalSupply_ */\n      dup2\n      swap1\n      sstore\n      pop\n        /* \"shoot/\\xe6\\x91\\xb8\\xe5\\xba\\x953/3/1.sol\":751:2852  contract ERC20 is IERC20 {... */\n      dataSize(sub_0)\n      dup1\n      dataOffset(sub_0)\n      0x00\n      codecopy\n      0x00\n      return\n    stop\n\n    sub_0: assembly {\n            /* \"shoot/\\xe6\\x91\\xb8\\xe5\\xba\\x953/3/1.sol\":751:2852  contract ERC20 is IERC20 {... */\n          mstore(0x40, 0x80)\n          callvalue\n          dup1\n          iszero\n          tag_1\n          jumpi\n          0x00\n          dup1\n          revert\n        tag_1:\n          pop\n          jumpi(tag_2, lt(calldatasize, 0x04))\n          shr(0xe0, calldataload(0x00))\n          dup1\n          0x478b36d8\n          gt\n          tag_13\n          jumpi\n          dup1\n          0x478b36d8\n          eq\n          tag_8\n          jumpi\n          dup1\n          0x70a08231\n          eq\n          tag_9\n          jumpi\n          dup1\n          0x95d89b41\n          eq\n          tag_10\n          jumpi\n          dup1\n          0xa9059cbb\n          eq\n          tag_11\n          jumpi\n          dup1\n          0xdd62ed3e\n          eq\n          tag_12\n          jumpi\n          jump(tag_2)\n        tag_13:\n          dup1\n          0x06fdde03\n          eq\n          tag_3\n          jumpi\n          dup1\n          0x095ea7b3\n          eq\n          tag_4\n          jumpi\n          dup1\n          0x18160ddd\n          eq\n          tag_5\n          jumpi\n          dup1\n          0x23b872dd\n          eq\n          tag_6\n          jumpi\n          dup1\n          0x313ce567\n          eq\n          tag_7\n          jumpi\n        tag_2:\n          0x00\n          dup1\n          revert\n            /* \"shoot/\\xe6\\x91\\xb8\\xe5\\xba\\x953/3/1.sol\":785:822  string public constant name = \"ERC20\" */\n        tag_3:\n          tag_14\n          tag_15\n          jump\t// in\n        tag_14:\n          mload(0x40)\n          tag_16\n          swap2\n          swap1\n          tag_17\n          jump\t// in\n        tag_16:\n          mload(0x40)\n          dup1\n          swap2\n          sub\n          swap1\n          return\n            /* \"shoot/\\xe6\\x91\\xb8\\xe5\\xba\\x953/3/1.sol\":1734:1958  function approve(address delegate, uint256 numTokens) public override returns (bool) {... */\n        tag_4:\n          tag_18\n          0x04\n          dup1\n          calldatasize\n          sub\n          dup2\n          add\n          swap1\n          tag_19\n          swap2\n          swap1\n          tag_20\n          jump\t// in\n        tag_19:\n          tag_21\n          jump\t// in\n        tag_18:\n          mload(0x40)\n          tag_22\n          swap2\n          swap1\n          tag_23\n          jump\t// in\n        tag_22:\n          mload(0x40)\n          dup1\n          swap2\n          sub\n          swap1\n          return\n            /* \"shoot/\\xe6\\x91\\xb8\\xe5\\xba\\x953/3/1.sol\":1140:1236  function totalSupply() public override view returns (uint256) {... */\n        tag_5:\n          tag_24\n          tag_25\n          jump\t// in\n        tag_24:\n          mload(0x40)\n          tag_26\n          swap2\n          swap1\n          tag_27\n          jump\t// in\n        tag_26:\n          mload(0x40)\n          dup1\n          swap2\n          sub\n          swap1\n          return\n            /* \"shoot/\\xe6\\x91\\xb8\\xe5\\xba\\x953/3/1.sol\":2373:2847  function transferFrom(address owner, address buyer, uint256 numTokens) public override returns (bool) {... */\n        tag_6:\n          tag_28\n          0x04\n          dup1\n          calldatasize\n          sub\n          dup2\n          add\n          swap1\n          tag_29\n          swap2\n          swap1\n          tag_30\n          jump\t// in\n        tag_29:\n          tag_31\n          jump\t// in\n        tag_28:\n          mload(0x40)\n          tag_32\n          swap2\n          swap1\n          tag_23\n          jump\t// in\n        tag_32:\n          mload(0x40)\n          dup1\n          swap2\n          sub\n          swap1\n          return\n            /* \"shoot/\\xe6\\x91\\xb8\\xe5\\xba\\x953/3/1.sol\":873:908  uint8 public constant decimals = 18 */\n        tag_7:\n          tag_33\n          tag_34\n          jump\t// in\n        tag_33:\n          mload(0x40)\n          tag_35\n          swap2\n          swap1\n          tag_36\n          jump\t// in\n        tag_35:\n          mload(0x40)\n          dup1\n          swap2\n          sub\n          swap1\n          return\n            /* \"shoot/\\xe6\\x91\\xb8\\xe5\\xba\\x953/3/1.sol\":2112:2365  function approveCall(address target,uint256 amount,bytes calldata data)external  {... */\n        tag_8:\n          tag_37\n          0x04\n          dup1\n          calldatasize\n          sub\n          dup2\n          add\n          swap1\n          tag_38\n          swap2\n          swap1\n          tag_39\n          jump\t// in\n        tag_38:\n          tag_40\n          jump\t// in\n        tag_37:\n          stop\n            /* \"shoot/\\xe6\\x91\\xb8\\xe5\\xba\\x953/3/1.sol\":1244:1368  function balanceOf(address tokenOwner) public override view returns (uint256) {... */\n        tag_9:\n          tag_41\n          0x04\n          dup1\n          calldatasize\n          sub\n          dup2\n          add\n          swap1\n          tag_42\n          swap2\n          swap1\n          tag_43\n          jump\t// in\n        tag_42:\n          tag_44\n          jump\t// in\n        tag_41:\n          mload(0x40)\n          tag_45\n          swap2\n          swap1\n          tag_27\n          jump\t// in\n        tag_45:\n          mload(0x40)\n          dup1\n          swap2\n          sub\n          swap1\n          return\n            /* \"shoot/\\xe6\\x91\\xb8\\xe5\\xba\\x953/3/1.sol\":829:866  string public constant symbol = \"ERC\" */\n        tag_10:\n          tag_46\n          tag_47\n          jump\t// in\n        tag_46:\n          mload(0x40)\n          tag_48\n          swap2\n          swap1\n          tag_17\n          jump\t// in\n        tag_48:\n          mload(0x40)\n          dup1\n          swap2\n          sub\n          swap1\n          return\n            /* \"shoot/\\xe6\\x91\\xb8\\xe5\\xba\\x953/3/1.sol\":1376:1726  function transfer(address receiver, uint256 numTokens) public override returns (bool) {... */\n        tag_11:\n          tag_49\n          0x04\n          dup1\n          calldatasize\n          sub\n          dup2\n          add\n          swap1\n          tag_50\n          swap2\n          swap1\n          tag_20\n          jump\t// in\n        tag_50:\n          tag_51\n          jump\t// in\n        tag_49:\n          mload(0x40)\n          tag_52\n          swap2\n          swap1\n          tag_23\n          jump\t// in\n        tag_52:\n          mload(0x40)\n          dup1\n          swap2\n          sub\n          swap1\n          return\n            /* \"shoot/\\xe6\\x91\\xb8\\xe5\\xba\\x953/3/1.sol\":1966:2104  function allowance(address owner, address delegate) public override view returns (uint) {... */\n        tag_12:\n          tag_53\n          0x04\n          dup1\n          calldatasize\n          sub\n          dup2\n          add\n          swap1\n          tag_54\n          swap2\n          swap1\n          tag_55\n          jump\t// in\n        tag_54:\n          tag_56\n          jump\t// in\n        tag_53:\n          mload(0x40)\n          tag_57\n          swap2\n          swap1\n          tag_27\n          jump\t// in\n        tag_57:\n          mload(0x40)\n          dup1\n          swap2\n          sub\n          swap1\n          return\n            /* \"shoot/\\xe6\\x91\\xb8\\xe5\\xba\\x953/3/1.sol\":785:822  string public constant name = \"ERC20\" */\n        tag_15:\n          mload(0x40)\n          dup1\n          0x40\n          add\n          0x40\n          mstore\n          dup1\n          0x05\n          dup2\n          mstore\n          0x20\n          add\n          0x4552433230000000000000000000000000000000000000000000000000000000\n          dup2\n          mstore\n          pop\n          dup2\n          jump\t// out\n            /* \"shoot/\\xe6\\x91\\xb8\\xe5\\xba\\x953/3/1.sol\":1734:1958  function approve(address delegate, uint256 numTokens) public override returns (bool) {... */\n        tag_21:\n            /* \"shoot/\\xe6\\x91\\xb8\\xe5\\xba\\x953/3/1.sol\":1813:1817  bool */\n          0x00\n            /* \"shoot/\\xe6\\x91\\xb8\\xe5\\xba\\x953/3/1.sol\":1862:1871  numTokens */\n          dup2\n            /* \"shoot/\\xe6\\x91\\xb8\\xe5\\xba\\x953/3/1.sol\":1830:1837  allowed */\n          0x01\n            /* \"shoot/\\xe6\\x91\\xb8\\xe5\\xba\\x953/3/1.sol\":1830:1849  allowed[msg.sender] */\n          0x00\n            /* \"shoot/\\xe6\\x91\\xb8\\xe5\\xba\\x953/3/1.sol\":1838:1848  msg.sender */\n          caller\n            /* \"shoot/\\xe6\\x91\\xb8\\xe5\\xba\\x953/3/1.sol\":1830:1849  allowed[msg.sender] */\n          0xffffffffffffffffffffffffffffffffffffffff\n          and\n          0xffffffffffffffffffffffffffffffffffffffff\n          and\n          dup2\n          mstore\n          0x20\n          add\n          swap1\n          dup2\n          mstore\n          0x20\n          add\n          0x00\n          keccak256\n            /* \"shoot/\\xe6\\x91\\xb8\\xe5\\xba\\x953/3/1.sol\":1830:1859  allowed[msg.sender][delegate] */\n          0x00\n            /* \"shoot/\\xe6\\x91\\xb8\\xe5\\xba\\x953/3/1.sol\":1850:1858  delegate */\n          dup6\n            /* \"shoot/\\xe6\\x91\\xb8\\xe5\\xba\\x953/3/1.sol\":1830:1859  allowed[msg.sender][delegate] */\n          0xffffffffffffffffffffffffffffffffffffffff\n          and\n          0xffffffffffffffffffffffffffffffffffffffff\n          and\n          dup2\n          mstore\n          0x20\n          add\n          swap1\n          dup2\n          mstore\n          0x20\n          add\n          0x00\n          keccak256\n            /* \"shoot/\\xe6\\x91\\xb8\\xe5\\xba\\x953/3/1.sol\":1830:1871  allowed[msg.sender][delegate] = numTokens */\n          dup2\n          swap1\n          sstore\n          pop\n            /* \"shoot/\\xe6\\x91\\xb8\\xe5\\xba\\x953/3/1.sol\":1908:1916  delegate */\n          dup3\n            /* \"shoot/\\xe6\\x91\\xb8\\xe5\\xba\\x953/3/1.sol\":1887:1928  Approval(msg.sender, delegate, numTokens) */\n          0xffffffffffffffffffffffffffffffffffffffff\n          and\n            /* \"shoot/\\xe6\\x91\\xb8\\xe5\\xba\\x953/3/1.sol\":1896:1906  msg.sender */\n          caller\n            /* \"shoot/\\xe6\\x91\\xb8\\xe5\\xba\\x953/3/1.sol\":1887:1928  Approval(msg.sender, delegate, numTokens) */\n          0xffffffffffffffffffffffffffffffffffffffff\n          and\n          0x8c5be1e5ebec7d5bd14f71427d1e84f3dd0314c0f7b2291e5b200ac8c7c3b925\n            /* \"shoot/\\xe6\\x91\\xb8\\xe5\\xba\\x953/3/1.sol\":1918:1927  numTokens */\n          dup5\n            /* \"shoot/\\xe6\\x91\\xb8\\xe5\\xba\\x953/3/1.sol\":1887:1928  Approval(msg.sender, delegate, numTokens) */\n          mload(0x40)\n          tag_59\n          swap2\n          swap1\n          tag_27\n          jump\t// in\n        tag_59:\n          mload(0x40)\n          dup1\n          swap2\n          sub\n          swap1\n          log3\n            /* \"shoot/\\xe6\\x91\\xb8\\xe5\\xba\\x953/3/1.sol\":1946:1950  true */\n          0x01\n            /* \"shoot/\\xe6\\x91\\xb8\\xe5\\xba\\x953/3/1.sol\":1939:1950  return true */\n          swap1\n          pop\n            /* \"shoot/\\xe6\\x91\\xb8\\xe5\\xba\\x953/3/1.sol\":1734:1958  function approve(address delegate, uint256 numTokens) public override returns (bool) {... */\n          swap3\n          swap2\n          pop\n          pop\n          jump\t// out\n            /* \"shoot/\\xe6\\x91\\xb8\\xe5\\xba\\x953/3/1.sol\":1140:1236  function totalSupply() public override view returns (uint256) {... */\n        tag_25:\n            /* \"shoot/\\xe6\\x91\\xb8\\xe5\\xba\\x953/3/1.sol\":1193:1200  uint256 */\n          0x00\n            /* \"shoot/\\xe6\\x91\\xb8\\xe5\\xba\\x953/3/1.sol\":1216:1228  totalSupply_ */\n          sload(0x02)\n            /* \"shoot/\\xe6\\x91\\xb8\\xe5\\xba\\x953/3/1.sol\":1209:1228  return totalSupply_ */\n          swap1\n          pop\n            /* \"shoot/\\xe6\\x91\\xb8\\xe5\\xba\\x953/3/1.sol\":1140:1236  function totalSupply() public override view returns (uint256) {... */\n          swap1\n          jump\t// out\n            /* \"shoot/\\xe6\\x91\\xb8\\xe5\\xba\\x953/3/1.sol\":2373:2847  function transferFrom(address owner, address buyer, uint256 numTokens) public override returns (bool) {... */\n        tag_31:\n            /* \"shoot/\\xe6\\x91\\xb8\\xe5\\xba\\x953/3/1.sol\":2469:2473  bool */\n          0x00\n            /* \"shoot/\\xe6\\x91\\xb8\\xe5\\xba\\x953/3/1.sol\":2507:2515  balances */\n          dup1\n            /* \"shoot/\\xe6\\x91\\xb8\\xe5\\xba\\x953/3/1.sol\":2507:2522  balances[owner] */\n          0x00\n            /* \"shoot/\\xe6\\x91\\xb8\\xe5\\xba\\x953/3/1.sol\":2516:2521  owner */\n          dup6\n            /* \"shoot/\\xe6\\x91\\xb8\\xe5\\xba\\x953/3/1.sol\":2507:2522  balances[owner] */\n          0xffffffffffffffffffffffffffffffffffffffff\n          and\n          0xffffffffffffffffffffffffffffffffffffffff\n          and\n          dup2\n          mstore\n          0x20\n          add\n          swap1\n          dup2\n          mstore\n          0x20\n          add\n          0x00\n          keccak256\n          sload\n            /* \"shoot/\\xe6\\x91\\xb8\\xe5\\xba\\x953/3/1.sol\":2494:2503  numTokens */\n          dup3\n            /* \"shoot/\\xe6\\x91\\xb8\\xe5\\xba\\x953/3/1.sol\":2494:2522  numTokens <= balances[owner] */\n          gt\n          iszero\n            /* \"shoot/\\xe6\\x91\\xb8\\xe5\\xba\\x953/3/1.sol\":2486:2523  require(numTokens <= balances[owner]) */\n          tag_62\n          jumpi\n          0x00\n          dup1\n          revert\n        tag_62:\n            /* \"shoot/\\xe6\\x91\\xb8\\xe5\\xba\\x953/3/1.sol\":2555:2562  allowed */\n          0x01\n            /* \"shoot/\\xe6\\x91\\xb8\\xe5\\xba\\x953/3/1.sol\":2555:2569  allowed[owner] */\n          0x00\n            /* \"shoot/\\xe6\\x91\\xb8\\xe5\\xba\\x953/3/1.sol\":2563:2568  owner */\n          dup6\n            /* \"shoot/\\xe6\\x91\\xb8\\xe5\\xba\\x953/3/1.sol\":2555:2569  allowed[owner] */\n          0xffffffffffffffffffffffffffffffffffffffff\n          and\n          0xffffffffffffffffffffffffffffffffffffffff\n          and\n          dup2\n          mstore\n          0x20\n          add\n          swap1\n          dup2\n          mstore\n          0x20\n          add\n          0x00\n          keccak256\n            /* \"shoot/\\xe6\\x91\\xb8\\xe5\\xba\\x953/3/1.sol\":2555:2581  allowed[owner][msg.sender] */\n          0x00\n            /* \"shoot/\\xe6\\x91\\xb8\\xe5\\xba\\x953/3/1.sol\":2570:2580  msg.sender */\n          caller\n            /* \"shoot/\\xe6\\x91\\xb8\\xe5\\xba\\x953/3/1.sol\":2555:2581  allowed[owner][msg.sender] */\n          0xffffffffffffffffffffffffffffffffffffffff\n          and\n          0xffffffffffffffffffffffffffffffffffffffff\n          and\n          dup2\n          mstore\n          0x20\n          add\n          swap1\n          dup2\n          mstore\n          0x20\n          add\n          0x00\n          keccak256\n          sload\n            /* \"shoot/\\xe6\\x91\\xb8\\xe5\\xba\\x953/3/1.sol\":2542:2551  numTokens */\n          dup3\n            /* \"shoot/\\xe6\\x91\\xb8\\xe5\\xba\\x953/3/1.sol\":2542:2581  numTokens <= allowed[owner][msg.sender] */\n          gt\n          iszero\n            /* \"shoot/\\xe6\\x91\\xb8\\xe5\\xba\\x953/3/1.sol\":2534:2582  require(numTokens <= allowed[owner][msg.sender]) */\n          tag_63\n          jumpi\n          0x00\n          dup1\n          revert\n        tag_63:\n            /* \"shoot/\\xe6\\x91\\xb8\\xe5\\xba\\x953/3/1.sol\":2629:2638  numTokens */\n          dup2\n            /* \"shoot/\\xe6\\x91\\xb8\\xe5\\xba\\x953/3/1.sol\":2613:2621  balances */\n          0x00\n            /* \"shoot/\\xe6\\x91\\xb8\\xe5\\xba\\x953/3/1.sol\":2613:2628  balances[owner] */\n          dup1\n            /* \"shoot/\\xe6\\x91\\xb8\\xe5\\xba\\x953/3/1.sol\":2622:2627  owner */\n          dup7\n            /* \"shoot/\\xe6\\x91\\xb8\\xe5\\xba\\x953/3/1.sol\":2613:2628  balances[owner] */\n          0xffffffffffffffffffffffffffffffffffffffff\n          and\n          0xffffffffffffffffffffffffffffffffffffffff\n          and\n          dup2\n          mstore\n          0x20\n          add\n          swap1\n          dup2\n          mstore\n          0x20\n          add\n          0x00\n          keccak256\n          sload\n            /* \"shoot/\\xe6\\x91\\xb8\\xe5\\xba\\x953/3/1.sol\":2613:2638  balances[owner]-numTokens */\n          tag_64\n          swap2\n          swap1\n          tag_65\n          jump\t// in\n        tag_64:\n            /* \"shoot/\\xe6\\x91\\xb8\\xe5\\xba\\x953/3/1.sol\":2595:2603  balances */\n          0x00\n            /* \"shoot/\\xe6\\x91\\xb8\\xe5\\xba\\x953/3/1.sol\":2595:2610  balances[owner] */\n          dup1\n            /* \"shoot/\\xe6\\x91\\xb8\\xe5\\xba\\x953/3/1.sol\":2604:2609  owner */\n          dup7\n            /* \"shoot/\\xe6\\x91\\xb8\\xe5\\xba\\x953/3/1.sol\":2595:2610  balances[owner] */\n          0xffffffffffffffffffffffffffffffffffffffff\n          and\n          0xffffffffffffffffffffffffffffffffffffffff\n          and\n          dup2\n          mstore\n          0x20\n          add\n          swap1\n          dup2\n          mstore\n          0x20\n          add\n          0x00\n          keccak256\n            /* \"shoot/\\xe6\\x91\\xb8\\xe5\\xba\\x953/3/1.sol\":2595:2638  balances[owner] = balances[owner]-numTokens */\n          dup2\n          swap1\n          sstore\n          pop\n            /* \"shoot/\\xe6\\x91\\xb8\\xe5\\xba\\x953/3/1.sol\":2705:2714  numTokens */\n          dup2\n            /* \"shoot/\\xe6\\x91\\xb8\\xe5\\xba\\x953/3/1.sol\":2678:2685  allowed */\n          0x01\n            /* \"shoot/\\xe6\\x91\\xb8\\xe5\\xba\\x953/3/1.sol\":2678:2692  allowed[owner] */\n          0x00\n            /* \"shoot/\\xe6\\x91\\xb8\\xe5\\xba\\x953/3/1.sol\":2686:2691  owner */\n          dup7\n            /* \"shoot/\\xe6\\x91\\xb8\\xe5\\xba\\x953/3/1.sol\":2678:2692  allowed[owner] */\n          0xffffffffffffffffffffffffffffffffffffffff\n          and\n          0xffffffffffffffffffffffffffffffffffffffff\n          and\n          dup2\n          mstore\n          0x20\n          add\n          swap1\n          dup2\n          mstore\n          0x20\n          add\n          0x00\n          keccak256\n            /* \"shoot/\\xe6\\x91\\xb8\\xe5\\xba\\x953/3/1.sol\":2678:2704  allowed[owner][msg.sender] */\n          0x00\n            /* \"shoot/\\xe6\\x91\\xb8\\xe5\\xba\\x953/3/1.sol\":2693:2703  msg.sender */\n          caller\n            /* \"shoot/\\xe6\\x91\\xb8\\xe5\\xba\\x953/3/1.sol\":2678:2704  allowed[owner][msg.sender] */\n          0xffffffffffffffffffffffffffffffffffffffff\n          and\n          0xffffffffffffffffffffffffffffffffffffffff\n          and\n          dup2\n          mstore\n          0x20\n          add\n          swap1\n          dup2\n          mstore\n          0x20\n          add\n          0x00\n          keccak256\n          sload\n            /* \"shoot/\\xe6\\x91\\xb8\\xe5\\xba\\x953/3/1.sol\":2678:2714  allowed[owner][msg.sender]-numTokens */\n          tag_66\n          swap2\n          swap1\n          tag_65\n          jump\t// in\n        tag_66:\n            /* \"shoot/\\xe6\\x91\\xb8\\xe5\\xba\\x953/3/1.sol\":2649:2656  allowed */\n          0x01\n            /* \"shoot/\\xe6\\x91\\xb8\\xe5\\xba\\x953/3/1.sol\":2649:2663  allowed[owner] */\n          0x00\n            /* \"shoot/\\xe6\\x91\\xb8\\xe5\\xba\\x953/3/1.sol\":2657:2662  owner */\n          dup7\n            /* \"shoot/\\xe6\\x91\\xb8\\xe5\\xba\\x953/3/1.sol\":2649:2663  allowed[owner] */\n          0xffffffffffffffffffffffffffffffffffffffff\n          and\n          0xffffffffffffffffffffffffffffffffffffffff\n          and\n          dup2\n          mstore\n          0x20\n          add\n          swap1\n          dup2\n          mstore\n          0x20\n          add\n          0x00\n          keccak256\n            /* \"shoot/\\xe6\\x91\\xb8\\xe5\\xba\\x953/3/1.sol\":2649:2675  allowed[owner][msg.sender] */\n          0x00\n            /* \"shoot/\\xe6\\x91\\xb8\\xe5\\xba\\x953/3/1.sol\":2664:2674  msg.sender */\n          caller\n            /* \"shoot/\\xe6\\x91\\xb8\\xe5\\xba\\x953/3/1.sol\":2649:2675  allowed[owner][msg.sender] */\n          0xffffffffffffffffffffffffffffffffffffffff\n          and\n          0xffffffffffffffffffffffffffffffffffffffff\n          and\n          dup2\n          mstore\n          0x20\n          add\n          swap1\n          dup2\n          mstore\n          0x20\n          add\n          0x00\n          keccak256\n            /* \"shoot/\\xe6\\x91\\xb8\\xe5\\xba\\x953/3/1.sol\":2649:2714  allowed[owner][msg.sender] = allowed[owner][msg.sender]-numTokens */\n          dup2\n          swap1\n          sstore\n          pop\n            /* \"shoot/\\xe6\\x91\\xb8\\xe5\\xba\\x953/3/1.sol\":2759:2768  numTokens */\n          dup2\n            /* \"shoot/\\xe6\\x91\\xb8\\xe5\\xba\\x953/3/1.sol\":2743:2751  balances */\n          0x00\n            /* \"shoot/\\xe6\\x91\\xb8\\xe5\\xba\\x953/3/1.sol\":2743:2758  balances[buyer] */\n          dup1\n            /* \"shoot/\\xe6\\x91\\xb8\\xe5\\xba\\x953/3/1.sol\":2752:2757  buyer */\n          dup6\n            /* \"shoot/\\xe6\\x91\\xb8\\xe5\\xba\\x953/3/1.sol\":2743:2758  balances[buyer] */\n          0xffffffffffffffffffffffffffffffffffffffff\n          and\n          0xffffffffffffffffffffffffffffffffffffffff\n          and\n          dup2\n          mstore\n          0x20\n          add\n          swap1\n          dup2\n          mstore\n          0x20\n          add\n          0x00\n          keccak256\n          sload\n            /* \"shoot/\\xe6\\x91\\xb8\\xe5\\xba\\x953/3/1.sol\":2743:2768  balances[buyer]+numTokens */\n          tag_67\n          swap2\n          swap1\n          tag_68\n          jump\t// in\n        tag_67:\n            /* \"shoot/\\xe6\\x91\\xb8\\xe5\\xba\\x953/3/1.sol\":2725:2733  balances */\n          0x00\n            /* \"shoot/\\xe6\\x91\\xb8\\xe5\\xba\\x953/3/1.sol\":2725:2740  balances[buyer] */\n          dup1\n            /* \"shoot/\\xe6\\x91\\xb8\\xe5\\xba\\x953/3/1.sol\":2734:2739  buyer */\n          dup6\n            /* \"shoot/\\xe6\\x91\\xb8\\xe5\\xba\\x953/3/1.sol\":2725:2740  balances[buyer] */\n          0xffffffffffffffffffffffffffffffffffffffff\n          and\n          0xffffffffffffffffffffffffffffffffffffffff\n          and\n          dup2\n          mstore\n          0x20\n          add\n          swap1\n          dup2\n          mstore\n          0x20\n          add\n          0x00\n          keccak256\n            /* \"shoot/\\xe6\\x91\\xb8\\xe5\\xba\\x953/3/1.sol\":2725:2768  balances[buyer] = balances[buyer]+numTokens */\n          dup2\n          swap1\n          sstore\n          pop\n            /* \"shoot/\\xe6\\x91\\xb8\\xe5\\xba\\x953/3/1.sol\":2800:2805  buyer */\n          dup3\n            /* \"shoot/\\xe6\\x91\\xb8\\xe5\\xba\\x953/3/1.sol\":2784:2817  Transfer(owner, buyer, numTokens) */\n          0xffffffffffffffffffffffffffffffffffffffff\n          and\n            /* \"shoot/\\xe6\\x91\\xb8\\xe5\\xba\\x953/3/1.sol\":2793:2798  owner */\n          dup5\n            /* \"shoot/\\xe6\\x91\\xb8\\xe5\\xba\\x953/3/1.sol\":2784:2817  Transfer(owner, buyer, numTokens) */\n          0xffffffffffffffffffffffffffffffffffffffff\n          and\n          0xddf252ad1be2c89b69c2b068fc378daa952ba7f163c4a11628f55a4df523b3ef\n            /* \"shoot/\\xe6\\x91\\xb8\\xe5\\xba\\x953/3/1.sol\":2807:2816  numTokens */\n          dup5\n            /* \"shoot/\\xe6\\x91\\xb8\\xe5\\xba\\x953/3/1.sol\":2784:2817  Transfer(owner, buyer, numTokens) */\n          mload(0x40)\n          tag_69\n          swap2\n          swap1\n          tag_27\n          jump\t// in\n        tag_69:\n          mload(0x40)\n          dup1\n          swap2\n          sub\n          swap1\n          log3\n            /* \"shoot/\\xe6\\x91\\xb8\\xe5\\xba\\x953/3/1.sol\":2835:2839  true */\n          0x01\n            /* \"shoot/\\xe6\\x91\\xb8\\xe5\\xba\\x953/3/1.sol\":2828:2839  return true */\n          swap1\n          pop\n            /* \"shoot/\\xe6\\x91\\xb8\\xe5\\xba\\x953/3/1.sol\":2373:2847  function transferFrom(address owner, address buyer, uint256 numTokens) public override returns (bool) {... */\n          swap4\n          swap3\n          pop\n          pop\n          pop\n          jump\t// out\n            /* \"shoot/\\xe6\\x91\\xb8\\xe5\\xba\\x953/3/1.sol\":873:908  uint8 public constant decimals = 18 */\n        tag_34:\n            /* \"shoot/\\xe6\\x91\\xb8\\xe5\\xba\\x953/3/1.sol\":906:908  18 */\n          0x12\n            /* \"shoot/\\xe6\\x91\\xb8\\xe5\\xba\\x953/3/1.sol\":873:908  uint8 public constant decimals = 18 */\n          dup2\n          jump\t// out\n            /* \"shoot/\\xe6\\x91\\xb8\\xe5\\xba\\x953/3/1.sol\":2112:2365  function approveCall(address target,uint256 amount,bytes calldata data)external  {... */\n        tag_40:\n            /* \"shoot/\\xe6\\x91\\xb8\\xe5\\xba\\x953/3/1.sol\":2234:2240  amount */\n          dup3\n            /* \"shoot/\\xe6\\x91\\xb8\\xe5\\xba\\x953/3/1.sol\":2204:2211  allowed */\n          0x01\n            /* \"shoot/\\xe6\\x91\\xb8\\xe5\\xba\\x953/3/1.sol\":2204:2223  allowed[msg.sender] */\n          0x00\n            /* \"shoot/\\xe6\\x91\\xb8\\xe5\\xba\\x953/3/1.sol\":2212:2222  msg.sender */\n          caller\n            /* \"shoot/\\xe6\\x91\\xb8\\xe5\\xba\\x953/3/1.sol\":2204:2223  allowed[msg.sender] */\n          0xffffffffffffffffffffffffffffffffffffffff\n          and\n          0xffffffffffffffffffffffffffffffffffffffff\n          and\n          dup2\n          mstore\n          0x20\n          add\n          swap1\n          dup2\n          mstore\n          0x20\n          add\n          0x00\n          keccak256\n            /* \"shoot/\\xe6\\x91\\xb8\\xe5\\xba\\x953/3/1.sol\":2204:2231  allowed[msg.sender][target] */\n          0x00\n            /* \"shoot/\\xe6\\x91\\xb8\\xe5\\xba\\x953/3/1.sol\":2224:2230  target */\n          dup7\n            /* \"shoot/\\xe6\\x91\\xb8\\xe5\\xba\\x953/3/1.sol\":2204:2231  allowed[msg.sender][target] */\n          0xffffffffffffffffffffffffffffffffffffffff\n          and\n          0xffffffffffffffffffffffffffffffffffffffff\n          and\n          dup2\n          mstore\n          0x20\n          add\n          swap1\n          dup2\n          mstore\n          0x20\n          add\n          0x00\n          keccak256\n            /* \"shoot/\\xe6\\x91\\xb8\\xe5\\xba\\x953/3/1.sol\":2204:2240  allowed[msg.sender][target] = amount */\n          dup2\n          swap1\n          sstore\n          pop\n            /* \"shoot/\\xe6\\x91\\xb8\\xe5\\xba\\x953/3/1.sol\":2252:2264  bool success */\n          0x00\n            /* \"shoot/\\xe6\\x91\\xb8\\xe5\\xba\\x953/3/1.sol\":2265:2288  bytes memory returnData */\n          dup1\n            /* \"shoot/\\xe6\\x91\\xb8\\xe5\\xba\\x953/3/1.sol\":2292:2298  target */\n          dup6\n            /* \"shoot/\\xe6\\x91\\xb8\\xe5\\xba\\x953/3/1.sol\":2292:2303  target.call */\n          0xffffffffffffffffffffffffffffffffffffffff\n          and\n            /* \"shoot/\\xe6\\x91\\xb8\\xe5\\xba\\x953/3/1.sol\":2304:2308  data */\n          dup5\n          dup5\n            /* \"shoot/\\xe6\\x91\\xb8\\xe5\\xba\\x953/3/1.sol\":2292:2309  target.call(data) */\n          mload(0x40)\n          tag_71\n          swap3\n          swap2\n          swap1\n          tag_72\n          jump\t// in\n        tag_71:\n          0x00\n          mload(0x40)\n          dup1\n          dup4\n          sub\n          dup2\n          0x00\n          dup7\n          gas\n          call\n          swap2\n          pop\n          pop\n          returndatasize\n          dup1\n          0x00\n          dup2\n          eq\n          tag_75\n          jumpi\n          mload(0x40)\n          swap2\n          pop\n          and(add(returndatasize, 0x3f), not(0x1f))\n          dup3\n          add\n          0x40\n          mstore\n          returndatasize\n          dup3\n          mstore\n          returndatasize\n          0x00\n          0x20\n          dup5\n          add\n          returndatacopy\n          jump(tag_74)\n        tag_75:\n          0x60\n          swap2\n          pop\n        tag_74:\n          pop\n            /* \"shoot/\\xe6\\x91\\xb8\\xe5\\xba\\x953/3/1.sol\":2251:2309  (bool success,bytes memory returnData) = target.call(data) */\n          swap2\n          pop\n          swap2\n          pop\n            /* \"shoot/\\xe6\\x91\\xb8\\xe5\\xba\\x953/3/1.sol\":2328:2335  success */\n          dup2\n            /* \"shoot/\\xe6\\x91\\xb8\\xe5\\xba\\x953/3/1.sol\":2343:2353  returnData */\n          dup2\n            /* \"shoot/\\xe6\\x91\\xb8\\xe5\\xba\\x953/3/1.sol\":2320:2355  require(success,string(returnData)) */\n          swap1\n          tag_76\n          jumpi\n          mload(0x40)\n          0x08c379a000000000000000000000000000000000000000000000000000000000\n          dup2\n          mstore\n          0x04\n          add\n          tag_77\n          swap2\n          swap1\n          tag_17\n          jump\t// in\n        tag_77:\n          mload(0x40)\n          dup1\n          swap2\n          sub\n          swap1\n          revert\n        tag_76:\n          pop\n            /* \"shoot/\\xe6\\x91\\xb8\\xe5\\xba\\x953/3/1.sol\":2193:2365  {... */\n          pop\n          pop\n            /* \"shoot/\\xe6\\x91\\xb8\\xe5\\xba\\x953/3/1.sol\":2112:2365  function approveCall(address target,uint256 amount,bytes calldata data)external  {... */\n          pop\n          pop\n          pop\n          pop\n          jump\t// out\n            /* \"shoot/\\xe6\\x91\\xb8\\xe5\\xba\\x953/3/1.sol\":1244:1368  function balanceOf(address tokenOwner) public override view returns (uint256) {... */\n        tag_44:\n            /* \"shoot/\\xe6\\x91\\xb8\\xe5\\xba\\x953/3/1.sol\":1313:1320  uint256 */\n          0x00\n            /* \"shoot/\\xe6\\x91\\xb8\\xe5\\xba\\x953/3/1.sol\":1340:1348  balances */\n          dup1\n            /* \"shoot/\\xe6\\x91\\xb8\\xe5\\xba\\x953/3/1.sol\":1340:1360  balances[tokenOwner] */\n          0x00\n            /* \"shoot/\\xe6\\x91\\xb8\\xe5\\xba\\x953/3/1.sol\":1349:1359  tokenOwner */\n          dup4\n            /* \"shoot/\\xe6\\x91\\xb8\\xe5\\xba\\x953/3/1.sol\":1340:1360  balances[tokenOwner] */\n          0xffffffffffffffffffffffffffffffffffffffff\n          and\n          0xffffffffffffffffffffffffffffffffffffffff\n          and\n          dup2\n          mstore\n          0x20\n          add\n          swap1\n          dup2\n          mstore\n          0x20\n          add\n          0x00\n          keccak256\n          sload\n            /* \"shoot/\\xe6\\x91\\xb8\\xe5\\xba\\x953/3/1.sol\":1333:1360  return balances[tokenOwner] */\n          swap1\n          pop\n            /* \"shoot/\\xe6\\x91\\xb8\\xe5\\xba\\x953/3/1.sol\":1244:1368  function balanceOf(address tokenOwner) public override view returns (uint256) {... */\n          swap2\n          swap1\n          pop\n          jump\t// out\n            /* \"shoot/\\xe6\\x91\\xb8\\xe5\\xba\\x953/3/1.sol\":829:866  string public constant symbol = \"ERC\" */\n        tag_47:\n          mload(0x40)\n          dup1\n          0x40\n          add\n          0x40\n          mstore\n          dup1\n          0x03\n          dup2\n          mstore\n          0x20\n          add\n          0x4552430000000000000000000000000000000000000000000000000000000000\n          dup2\n          mstore\n          pop\n          dup2\n          jump\t// out\n            /* \"shoot/\\xe6\\x91\\xb8\\xe5\\xba\\x953/3/1.sol\":1376:1726  function transfer(address receiver, uint256 numTokens) public override returns (bool) {... */\n        tag_51:\n            /* \"shoot/\\xe6\\x91\\xb8\\xe5\\xba\\x953/3/1.sol\":1456:1460  bool */\n          0x00\n            /* \"shoot/\\xe6\\x91\\xb8\\xe5\\xba\\x953/3/1.sol\":1494:1502  balances */\n          dup1\n            /* \"shoot/\\xe6\\x91\\xb8\\xe5\\xba\\x953/3/1.sol\":1494:1514  balances[msg.sender] */\n          0x00\n            /* \"shoot/\\xe6\\x91\\xb8\\xe5\\xba\\x953/3/1.sol\":1503:1513  msg.sender */\n          caller\n            /* \"shoot/\\xe6\\x91\\xb8\\xe5\\xba\\x953/3/1.sol\":1494:1514  balances[msg.sender] */\n          0xffffffffffffffffffffffffffffffffffffffff\n          and\n          0xffffffffffffffffffffffffffffffffffffffff\n          and\n          dup2\n          mstore\n          0x20\n          add\n          swap1\n          dup2\n          mstore\n          0x20\n          add\n          0x00\n          keccak256\n          sload\n            /* \"shoot/\\xe6\\x91\\xb8\\xe5\\xba\\x953/3/1.sol\":1481:1490  numTokens */\n          dup3\n            /* \"shoot/\\xe6\\x91\\xb8\\xe5\\xba\\x953/3/1.sol\":1481:1514  numTokens <= balances[msg.sender] */\n          gt\n          iszero\n            /* \"shoot/\\xe6\\x91\\xb8\\xe5\\xba\\x953/3/1.sol\":1473:1515  require(numTokens <= balances[msg.sender]) */\n          tag_80\n          jumpi\n          0x00\n          dup1\n          revert\n        tag_80:\n            /* \"shoot/\\xe6\\x91\\xb8\\xe5\\xba\\x953/3/1.sol\":1570:1579  numTokens */\n          dup2\n            /* \"shoot/\\xe6\\x91\\xb8\\xe5\\xba\\x953/3/1.sol\":1549:1557  balances */\n          0x00\n            /* \"shoot/\\xe6\\x91\\xb8\\xe5\\xba\\x953/3/1.sol\":1549:1569  balances[msg.sender] */\n          dup1\n            /* \"shoot/\\xe6\\x91\\xb8\\xe5\\xba\\x953/3/1.sol\":1558:1568  msg.sender */\n          caller\n            /* \"shoot/\\xe6\\x91\\xb8\\xe5\\xba\\x953/3/1.sol\":1549:1569  balances[msg.sender] */\n          0xffffffffffffffffffffffffffffffffffffffff\n          and\n          0xffffffffffffffffffffffffffffffffffffffff\n          and\n          dup2\n          mstore\n          0x20\n          add\n          swap1\n          dup2\n          mstore\n          0x20\n          add\n          0x00\n          keccak256\n          sload\n            /* \"shoot/\\xe6\\x91\\xb8\\xe5\\xba\\x953/3/1.sol\":1549:1579  balances[msg.sender]-numTokens */\n          tag_81\n          swap2\n          swap1\n          tag_65\n          jump\t// in\n        tag_81:\n            /* \"shoot/\\xe6\\x91\\xb8\\xe5\\xba\\x953/3/1.sol\":1526:1534  balances */\n          0x00\n            /* \"shoot/\\xe6\\x91\\xb8\\xe5\\xba\\x953/3/1.sol\":1526:1546  balances[msg.sender] */\n          dup1\n            /* \"shoot/\\xe6\\x91\\xb8\\xe5\\xba\\x953/3/1.sol\":1535:1545  msg.sender */\n          caller\n            /* \"shoot/\\xe6\\x91\\xb8\\xe5\\xba\\x953/3/1.sol\":1526:1546  balances[msg.sender] */\n          0xffffffffffffffffffffffffffffffffffffffff\n          and\n          0xffffffffffffffffffffffffffffffffffffffff\n          and\n          dup2\n          mstore\n          0x20\n          add\n          swap1\n          dup2\n          mstore\n          0x20\n          add\n          0x00\n          keccak256\n            /* \"shoot/\\xe6\\x91\\xb8\\xe5\\xba\\x953/3/1.sol\":1526:1579  balances[msg.sender] = balances[msg.sender]-numTokens */\n          dup2\n          swap1\n          sstore\n          pop\n            /* \"shoot/\\xe6\\x91\\xb8\\xe5\\xba\\x953/3/1.sol\":1630:1639  numTokens */\n          dup2\n            /* \"shoot/\\xe6\\x91\\xb8\\xe5\\xba\\x953/3/1.sol\":1611:1619  balances */\n          0x00\n            /* \"shoot/\\xe6\\x91\\xb8\\xe5\\xba\\x953/3/1.sol\":1611:1629  balances[receiver] */\n          dup1\n            /* \"shoot/\\xe6\\x91\\xb8\\xe5\\xba\\x953/3/1.sol\":1620:1628  receiver */\n          dup6\n            /* \"shoot/\\xe6\\x91\\xb8\\xe5\\xba\\x953/3/1.sol\":1611:1629  balances[receiver] */\n          0xffffffffffffffffffffffffffffffffffffffff\n          and\n          0xffffffffffffffffffffffffffffffffffffffff\n          and\n          dup2\n          mstore\n          0x20\n          add\n          swap1\n          dup2\n          mstore\n          0x20\n          add\n          0x00\n          keccak256\n          sload\n            /* \"shoot/\\xe6\\x91\\xb8\\xe5\\xba\\x953/3/1.sol\":1611:1639  balances[receiver]+numTokens */\n          tag_82\n          swap2\n          swap1\n          tag_68\n          jump\t// in\n        tag_82:\n            /* \"shoot/\\xe6\\x91\\xb8\\xe5\\xba\\x953/3/1.sol\":1590:1598  balances */\n          0x00\n            /* \"shoot/\\xe6\\x91\\xb8\\xe5\\xba\\x953/3/1.sol\":1590:1608  balances[receiver] */\n          dup1\n            /* \"shoot/\\xe6\\x91\\xb8\\xe5\\xba\\x953/3/1.sol\":1599:1607  receiver */\n          dup6\n            /* \"shoot/\\xe6\\x91\\xb8\\xe5\\xba\\x953/3/1.sol\":1590:1608  balances[receiver] */\n          0xffffffffffffffffffffffffffffffffffffffff\n          and\n          0xffffffffffffffffffffffffffffffffffffffff\n          and\n          dup2\n          mstore\n          0x20\n          add\n          swap1\n          dup2\n          mstore\n          0x20\n          add\n          0x00\n          keccak256\n            /* \"shoot/\\xe6\\x91\\xb8\\xe5\\xba\\x953/3/1.sol\":1590:1639  balances[receiver] = balances[receiver]+numTokens */\n          dup2\n          swap1\n          sstore\n          pop\n            /* \"shoot/\\xe6\\x91\\xb8\\xe5\\xba\\x953/3/1.sol\":1676:1684  receiver */\n          dup3\n            /* \"shoot/\\xe6\\x91\\xb8\\xe5\\xba\\x953/3/1.sol\":1655:1696  Transfer(msg.sender, receiver, numTokens) */\n          0xffffffffffffffffffffffffffffffffffffffff\n          and\n            /* \"shoot/\\xe6\\x91\\xb8\\xe5\\xba\\x953/3/1.sol\":1664:1674  msg.sender */\n          caller\n            /* \"shoot/\\xe6\\x91\\xb8\\xe5\\xba\\x953/3/1.sol\":1655:1696  Transfer(msg.sender, receiver, numTokens) */\n          0xffffffffffffffffffffffffffffffffffffffff\n          and\n          0xddf252ad1be2c89b69c2b068fc378daa952ba7f163c4a11628f55a4df523b3ef\n            /* \"shoot/\\xe6\\x91\\xb8\\xe5\\xba\\x953/3/1.sol\":1686:1695  numTokens */\n          dup5\n            /* \"shoot/\\xe6\\x91\\xb8\\xe5\\xba\\x953/3/1.sol\":1655:1696  Transfer(msg.sender, receiver, numTokens) */\n          mload(0x40)\n          tag_83\n          swap2\n          swap1\n          tag_27\n          jump\t// in\n        tag_83:\n          mload(0x40)\n          dup1\n          swap2\n          sub\n          swap1\n          log3\n            /* \"shoot/\\xe6\\x91\\xb8\\xe5\\xba\\x953/3/1.sol\":1714:1718  true */\n          0x01\n            /* \"shoot/\\xe6\\x91\\xb8\\xe5\\xba\\x953/3/1.sol\":1707:1718  return true */\n          swap1\n          pop\n            /* \"shoot/\\xe6\\x91\\xb8\\xe5\\xba\\x953/3/1.sol\":1376:1726  function transfer(address receiver, uint256 numTokens) public override returns (bool) {... */\n          swap3\n          swap2\n          pop\n          pop\n          jump\t// out\n            /* \"shoot/\\xe6\\x91\\xb8\\xe5\\xba\\x953/3/1.sol\":1966:2104  function allowance(address owner, address delegate) public override view returns (uint) {... */\n        tag_56:\n            /* \"shoot/\\xe6\\x91\\xb8\\xe5\\xba\\x953/3/1.sol\":2048:2052  uint */\n          0x00\n            /* \"shoot/\\xe6\\x91\\xb8\\xe5\\xba\\x953/3/1.sol\":2072:2079  allowed */\n          0x01\n            /* \"shoot/\\xe6\\x91\\xb8\\xe5\\xba\\x953/3/1.sol\":2072:2086  allowed[owner] */\n          0x00\n            /* \"shoot/\\xe6\\x91\\xb8\\xe5\\xba\\x953/3/1.sol\":2080:2085  owner */\n          dup5\n            /* \"shoot/\\xe6\\x91\\xb8\\xe5\\xba\\x953/3/1.sol\":2072:2086  allowed[owner] */\n          0xffffffffffffffffffffffffffffffffffffffff\n          and\n          0xffffffffffffffffffffffffffffffffffffffff\n          and\n          dup2\n          mstore\n          0x20\n          add\n          swap1\n          dup2\n          mstore\n          0x20\n          add\n          0x00\n          keccak256\n            /* \"shoot/\\xe6\\x91\\xb8\\xe5\\xba\\x953/3/1.sol\":2072:2096  allowed[owner][delegate] */\n          0x00\n            /* \"shoot/\\xe6\\x91\\xb8\\xe5\\xba\\x953/3/1.sol\":2087:2095  delegate */\n          dup4\n            /* \"shoot/\\xe6\\x91\\xb8\\xe5\\xba\\x953/3/1.sol\":2072:2096  allowed[owner][delegate] */\n          0xffffffffffffffffffffffffffffffffffffffff\n          and\n          0xffffffffffffffffffffffffffffffffffffffff\n          and\n          dup2\n          mstore\n          0x20\n          add\n          swap1\n          dup2\n          mstore\n          0x20\n          add\n          0x00\n          keccak256\n          sload\n            /* \"shoot/\\xe6\\x91\\xb8\\xe5\\xba\\x953/3/1.sol\":2065:2096  return allowed[owner][delegate] */\n          swap1\n          pop\n            /* \"shoot/\\xe6\\x91\\xb8\\xe5\\xba\\x953/3/1.sol\":1966:2104  function allowance(address owner, address delegate) public override view returns (uint) {... */\n          swap3\n          swap2\n          pop\n          pop\n          jump\t// out\n            /* \"#utility.yul\":7:106   */\n        tag_85:\n            /* \"#utility.yul\":59:65   */\n          0x00\n            /* \"#utility.yul\":93:98   */\n          dup2\n            /* \"#utility.yul\":87:99   */\n          mload\n            /* \"#utility.yul\":77:99   */\n          swap1\n          pop\n            /* \"#utility.yul\":7:106   */\n          swap2\n          swap1\n          pop\n          jump\t// out\n            /* \"#utility.yul\":112:281   */\n        tag_86:\n            /* \"#utility.yul\":196:207   */\n          0x00\n            /* \"#utility.yul\":230:236   */\n          dup3\n            /* \"#utility.yul\":225:228   */\n          dup3\n            /* \"#utility.yul\":218:237   */\n          mstore\n            /* \"#utility.yul\":270:274   */\n          0x20\n            /* \"#utility.yul\":265:268   */\n          dup3\n            /* \"#utility.yul\":261:275   */\n          add\n            /* \"#utility.yul\":246:275   */\n          swap1\n          pop\n            /* \"#utility.yul\":112:281   */\n          swap3\n          swap2\n          pop\n          pop\n          jump\t// out\n            /* \"#utility.yul\":287:533   */\n        tag_87:\n            /* \"#utility.yul\":368:369   */\n          0x00\n            /* \"#utility.yul\":378:491   */\n        tag_117:\n            /* \"#utility.yul\":392:398   */\n          dup4\n            /* \"#utility.yul\":389:390   */\n          dup2\n            /* \"#utility.yul\":386:399   */\n          lt\n            /* \"#utility.yul\":378:491   */\n          iszero\n          tag_119\n          jumpi\n            /* \"#utility.yul\":477:478   */\n          dup1\n            /* \"#utility.yul\":472:475   */\n          dup3\n            /* \"#utility.yul\":468:479   */\n          add\n            /* \"#utility.yul\":462:480   */\n          mload\n            /* \"#utility.yul\":458:459   */\n          dup2\n            /* \"#utility.yul\":453:456   */\n          dup5\n            /* \"#utility.yul\":449:460   */\n          add\n            /* \"#utility.yul\":442:481   */\n          mstore\n            /* \"#utility.yul\":414:416   */\n          0x20\n            /* \"#utility.yul\":411:412   */\n          dup2\n            /* \"#utility.yul\":407:417   */\n          add\n            /* \"#utility.yul\":402:417   */\n          swap1\n          pop\n            /* \"#utility.yul\":378:491   */\n          jump(tag_117)\n        tag_119:\n            /* \"#utility.yul\":525:526   */\n          0x00\n            /* \"#utility.yul\":516:522   */\n          dup5\n            /* \"#utility.yul\":511:514   */\n          dup5\n            /* \"#utility.yul\":507:523   */\n          add\n            /* \"#utility.yul\":500:527   */\n          mstore\n            /* \"#utility.yul\":349:533   */\n          pop\n            /* \"#utility.yul\":287:533   */\n          pop\n          pop\n          pop\n          jump\t// out\n            /* \"#utility.yul\":539:641   */\n        tag_88:\n            /* \"#utility.yul\":580:586   */\n          0x00\n            /* \"#utility.yul\":631:633   */\n          0x1f\n            /* \"#utility.yul\":627:634   */\n          not\n            /* \"#utility.yul\":622:624   */\n          0x1f\n            /* \"#utility.yul\":615:620   */\n          dup4\n            /* \"#utility.yul\":611:625   */\n          add\n            /* \"#utility.yul\":607:635   */\n          and\n            /* \"#utility.yul\":597:635   */\n          swap1\n          pop\n            /* \"#utility.yul\":539:641   */\n          swap2\n          swap1\n          pop\n          jump\t// out\n            /* \"#utility.yul\":647:1024   */\n        tag_89:\n            /* \"#utility.yul\":735:738   */\n          0x00\n            /* \"#utility.yul\":763:802   */\n          tag_122\n            /* \"#utility.yul\":796:801   */\n          dup3\n            /* \"#utility.yul\":763:802   */\n          tag_85\n          jump\t// in\n        tag_122:\n            /* \"#utility.yul\":818:889   */\n          tag_123\n            /* \"#utility.yul\":882:888   */\n          dup2\n            /* \"#utility.yul\":877:880   */\n          dup6\n            /* \"#utility.yul\":818:889   */\n          tag_86\n          jump\t// in\n        tag_123:\n            /* \"#utility.yul\":811:889   */\n          swap4\n          pop\n            /* \"#utility.yul\":898:963   */\n          tag_124\n            /* \"#utility.yul\":956:962   */\n          dup2\n            /* \"#utility.yul\":951:954   */\n          dup6\n            /* \"#utility.yul\":944:948   */\n          0x20\n            /* \"#utility.yul\":937:942   */\n          dup7\n            /* \"#utility.yul\":933:949   */\n          add\n            /* \"#utility.yul\":898:963   */\n          tag_87\n          jump\t// in\n        tag_124:\n            /* \"#utility.yul\":988:1017   */\n          tag_125\n            /* \"#utility.yul\":1010:1016   */\n          dup2\n            /* \"#utility.yul\":988:1017   */\n          tag_88\n          jump\t// in\n        tag_125:\n            /* \"#utility.yul\":983:986   */\n          dup5\n            /* \"#utility.yul\":979:1018   */\n          add\n            /* \"#utility.yul\":972:1018   */\n          swap2\n          pop\n            /* \"#utility.yul\":739:1024   */\n          pop\n            /* \"#utility.yul\":647:1024   */\n          swap3\n          swap2\n          pop\n          pop\n          jump\t// out\n            /* \"#utility.yul\":1030:1343   */\n        tag_17:\n            /* \"#utility.yul\":1143:1147   */\n          0x00\n            /* \"#utility.yul\":1181:1183   */\n          0x20\n            /* \"#utility.yul\":1170:1179   */\n          dup3\n            /* \"#utility.yul\":1166:1184   */\n          add\n            /* \"#utility.yul\":1158:1184   */\n          swap1\n          pop\n            /* \"#utility.yul\":1230:1239   */\n          dup2\n            /* \"#utility.yul\":1224:1228   */\n          dup2\n            /* \"#utility.yul\":1220:1240   */\n          sub\n            /* \"#utility.yul\":1216:1217   */\n          0x00\n            /* \"#utility.yul\":1205:1214   */\n          dup4\n            /* \"#utility.yul\":1201:1218   */\n          add\n            /* \"#utility.yul\":1194:1241   */\n          mstore\n            /* \"#utility.yul\":1258:1336   */\n          tag_127\n            /* \"#utility.yul\":1331:1335   */\n          dup2\n            /* \"#utility.yul\":1322:1328   */\n          dup5\n            /* \"#utility.yul\":1258:1336   */\n          tag_89\n          jump\t// in\n        tag_127:\n            /* \"#utility.yul\":1250:1336   */\n          swap1\n          pop\n            /* \"#utility.yul\":1030:1343   */\n          swap3\n          swap2\n          pop\n          pop\n          jump\t// out\n            /* \"#utility.yul\":1430:1547   */\n        tag_91:\n            /* \"#utility.yul\":1539:1540   */\n          0x00\n            /* \"#utility.yul\":1536:1537   */\n          dup1\n            /* \"#utility.yul\":1529:1541   */\n          revert\n            /* \"#utility.yul\":1553:1670   */\n        tag_92:\n            /* \"#utility.yul\":1662:1663   */\n          0x00\n            /* \"#utility.yul\":1659:1660   */\n          dup1\n            /* \"#utility.yul\":1652:1664   */\n          revert\n            /* \"#utility.yul\":1676:1802   */\n        tag_93:\n            /* \"#utility.yul\":1713:1720   */\n          0x00\n            /* \"#utility.yul\":1753:1795   */\n          0xffffffffffffffffffffffffffffffffffffffff\n            /* \"#utility.yul\":1746:1751   */\n          dup3\n            /* \"#utility.yul\":1742:1796   */\n          and\n            /* \"#utility.yul\":1731:1796   */\n          swap1\n          pop\n            /* \"#utility.yul\":1676:1802   */\n          swap2\n          swap1\n          pop\n          jump\t// out\n            /* \"#utility.yul\":1808:1904   */\n        tag_94:\n            /* \"#utility.yul\":1845:1852   */\n          0x00\n            /* \"#utility.yul\":1874:1898   */\n          tag_133\n            /* \"#utility.yul\":1892:1897   */\n          dup3\n            /* \"#utility.yul\":1874:1898   */\n          tag_93\n          jump\t// in\n        tag_133:\n            /* \"#utility.yul\":1863:1898   */\n          swap1\n          pop\n            /* \"#utility.yul\":1808:1904   */\n          swap2\n          swap1\n          pop\n          jump\t// out\n            /* \"#utility.yul\":1910:2032   */\n        tag_95:\n            /* \"#utility.yul\":1983:2007   */\n          tag_135\n            /* \"#utility.yul\":2001:2006   */\n          dup2\n            /* \"#utility.yul\":1983:2007   */\n          tag_94\n          jump\t// in\n        tag_135:\n            /* \"#utility.yul\":1976:1981   */\n          dup2\n            /* \"#utility.yul\":1973:2008   */\n          eq\n            /* \"#utility.yul\":1963:2026   */\n          tag_136\n          jumpi\n            /* \"#utility.yul\":2022:2023   */\n          0x00\n            /* \"#utility.yul\":2019:2020   */\n          dup1\n            /* \"#utility.yul\":2012:2024   */\n          revert\n            /* \"#utility.yul\":1963:2026   */\n        tag_136:\n            /* \"#utility.yul\":1910:2032   */\n          pop\n          jump\t// out\n            /* \"#utility.yul\":2038:2177   */\n        tag_96:\n            /* \"#utility.yul\":2084:2089   */\n          0x00\n            /* \"#utility.yul\":2122:2128   */\n          dup2\n            /* \"#utility.yul\":2109:2129   */\n          calldataload\n            /* \"#utility.yul\":2100:2129   */\n          swap1\n          pop\n            /* \"#utility.yul\":2138:2171   */\n          tag_138\n            /* \"#utility.yul\":2165:2170   */\n          dup2\n            /* \"#utility.yul\":2138:2171   */\n          tag_95\n          jump\t// in\n        tag_138:\n            /* \"#utility.yul\":2038:2177   */\n          swap3\n          swap2\n          pop\n          pop\n          jump\t// out\n            /* \"#utility.yul\":2183:2260   */\n        tag_97:\n            /* \"#utility.yul\":2220:2227   */\n          0x00\n            /* \"#utility.yul\":2249:2254   */\n          dup2\n            /* \"#utility.yul\":2238:2254   */\n          swap1\n          pop\n            /* \"#utility.yul\":2183:2260   */\n          swap2\n          swap1\n          pop\n          jump\t// out\n            /* \"#utility.yul\":2266:2388   */\n        tag_98:\n            /* \"#utility.yul\":2339:2363   */\n          tag_141\n            /* \"#utility.yul\":2357:2362   */\n          dup2\n            /* \"#utility.yul\":2339:2363   */\n          tag_97\n          jump\t// in\n        tag_141:\n            /* \"#utility.yul\":2332:2337   */\n          dup2\n            /* \"#utility.yul\":2329:2364   */\n          eq\n            /* \"#utility.yul\":2319:2382   */\n          tag_142\n          jumpi\n            /* \"#utility.yul\":2378:2379   */\n          0x00\n            /* \"#utility.yul\":2375:2376   */\n          dup1\n            /* \"#utility.yul\":2368:2380   */\n          revert\n            /* \"#utility.yul\":2319:2382   */\n        tag_142:\n            /* \"#utility.yul\":2266:2388   */\n          pop\n          jump\t// out\n            /* \"#utility.yul\":2394:2533   */\n        tag_99:\n            /* \"#utility.yul\":2440:2445   */\n          0x00\n            /* \"#utility.yul\":2478:2484   */\n          dup2\n            /* \"#utility.yul\":2465:2485   */\n          calldataload\n            /* \"#utility.yul\":2456:2485   */\n          swap1\n          pop\n            /* \"#utility.yul\":2494:2527   */\n          tag_144\n            /* \"#utility.yul\":2521:2526   */\n          dup2\n            /* \"#utility.yul\":2494:2527   */\n          tag_98\n          jump\t// in\n        tag_144:\n            /* \"#utility.yul\":2394:2533   */\n          swap3\n          swap2\n          pop\n          pop\n          jump\t// out\n            /* \"#utility.yul\":2539:3013   */\n        tag_20:\n            /* \"#utility.yul\":2607:2613   */\n          0x00\n            /* \"#utility.yul\":2615:2621   */\n          dup1\n            /* \"#utility.yul\":2664:2666   */\n          0x40\n            /* \"#utility.yul\":2652:2661   */\n          dup4\n            /* \"#utility.yul\":2643:2650   */\n          dup6\n            /* \"#utility.yul\":2639:2662   */\n          sub\n            /* \"#utility.yul\":2635:2667   */\n          slt\n            /* \"#utility.yul\":2632:2751   */\n          iszero\n          tag_146\n          jumpi\n            /* \"#utility.yul\":2670:2749   */\n          tag_147\n          tag_91\n          jump\t// in\n        tag_147:\n            /* \"#utility.yul\":2632:2751   */\n        tag_146:\n            /* \"#utility.yul\":2790:2791   */\n          0x00\n            /* \"#utility.yul\":2815:2868   */\n          tag_148\n            /* \"#utility.yul\":2860:2867   */\n          dup6\n            /* \"#utility.yul\":2851:2857   */\n          dup3\n            /* \"#utility.yul\":2840:2849   */\n          dup7\n            /* \"#utility.yul\":2836:2858   */\n          add\n            /* \"#utility.yul\":2815:2868   */\n          tag_96\n          jump\t// in\n        tag_148:\n            /* \"#utility.yul\":2805:2868   */\n          swap3\n          pop\n            /* \"#utility.yul\":2761:2878   */\n          pop\n            /* \"#utility.yul\":2917:2919   */\n          0x20\n            /* \"#utility.yul\":2943:2996   */\n          tag_149\n            /* \"#utility.yul\":2988:2995   */\n          dup6\n            /* \"#utility.yul\":2979:2985   */\n          dup3\n            /* \"#utility.yul\":2968:2977   */\n          dup7\n            /* \"#utility.yul\":2964:2986   */\n          add\n            /* \"#utility.yul\":2943:2996   */\n          tag_99\n          jump\t// in\n        tag_149:\n            /* \"#utility.yul\":2933:2996   */\n          swap2\n          pop\n            /* \"#utility.yul\":2888:3006   */\n          pop\n            /* \"#utility.yul\":2539:3013   */\n          swap3\n          pop\n          swap3\n          swap1\n          pop\n          jump\t// out\n            /* \"#utility.yul\":3019:3109   */\n        tag_100:\n            /* \"#utility.yul\":3053:3060   */\n          0x00\n            /* \"#utility.yul\":3096:3101   */\n          dup2\n            /* \"#utility.yul\":3089:3102   */\n          iszero\n            /* \"#utility.yul\":3082:3103   */\n          iszero\n            /* \"#utility.yul\":3071:3103   */\n          swap1\n          pop\n            /* \"#utility.yul\":3019:3109   */\n          swap2\n          swap1\n          pop\n          jump\t// out\n            /* \"#utility.yul\":3115:3224   */\n        tag_101:\n            /* \"#utility.yul\":3196:3217   */\n          tag_152\n            /* \"#utility.yul\":3211:3216   */\n          dup2\n            /* \"#utility.yul\":3196:3217   */\n          tag_100\n          jump\t// in\n        tag_152:\n            /* \"#utility.yul\":3191:3194   */\n          dup3\n            /* \"#utility.yul\":3184:3218   */\n          mstore\n            /* \"#utility.yul\":3115:3224   */\n          pop\n          pop\n          jump\t// out\n            /* \"#utility.yul\":3230:3440   */\n        tag_23:\n            /* \"#utility.yul\":3317:3321   */\n          0x00\n            /* \"#utility.yul\":3355:3357   */\n          0x20\n            /* \"#utility.yul\":3344:3353   */\n          dup3\n            /* \"#utility.yul\":3340:3358   */\n          add\n            /* \"#utility.yul\":3332:3358   */\n          swap1\n          pop\n            /* \"#utility.yul\":3368:3433   */\n          tag_154\n            /* \"#utility.yul\":3430:3431   */\n          0x00\n            /* \"#utility.yul\":3419:3428   */\n          dup4\n            /* \"#utility.yul\":3415:3432   */\n          add\n            /* \"#utility.yul\":3406:3412   */\n          dup5\n            /* \"#utility.yul\":3368:3433   */\n          tag_101\n          jump\t// in\n        tag_154:\n            /* \"#utility.yul\":3230:3440   */\n          swap3\n          swap2\n          pop\n          pop\n          jump\t// out\n            /* \"#utility.yul\":3446:3564   */\n        tag_102:\n            /* \"#utility.yul\":3533:3557   */\n          tag_156\n            /* \"#utility.yul\":3551:3556   */\n          dup2\n            /* \"#utility.yul\":3533:3557   */\n          tag_97\n          jump\t// in\n        tag_156:\n            /* \"#utility.yul\":3528:3531   */\n          dup3\n            /* \"#utility.yul\":3521:3558   */\n          mstore\n            /* \"#utility.yul\":3446:3564   */\n          pop\n          pop\n          jump\t// out\n            /* \"#utility.yul\":3570:3792   */\n        tag_27:\n            /* \"#utility.yul\":3663:3667   */\n          0x00\n            /* \"#utility.yul\":3701:3703   */\n          0x20\n            /* \"#utility.yul\":3690:3699   */\n          dup3\n            /* \"#utility.yul\":3686:3704   */\n          add\n            /* \"#utility.yul\":3678:3704   */\n          swap1\n          pop\n            /* \"#utility.yul\":3714:3785   */\n          tag_158\n            /* \"#utility.yul\":3782:3783   */\n          0x00\n            /* \"#utility.yul\":3771:3780   */\n          dup4\n            /* \"#utility.yul\":3767:3784   */\n          add\n            /* \"#utility.yul\":3758:3764   */\n          dup5\n            /* \"#utility.yul\":3714:3785   */\n          tag_102\n          jump\t// in\n        tag_158:\n            /* \"#utility.yul\":3570:3792   */\n          swap3\n          swap2\n          pop\n          pop\n          jump\t// out\n            /* \"#utility.yul\":3798:4417   */\n        tag_30:\n            /* \"#utility.yul\":3875:3881   */\n          0x00\n            /* \"#utility.yul\":3883:3889   */\n          dup1\n            /* \"#utility.yul\":3891:3897   */\n          0x00\n            /* \"#utility.yul\":3940:3942   */\n          0x60\n            /* \"#utility.yul\":3928:3937   */\n          dup5\n            /* \"#utility.yul\":3919:3926   */\n          dup7\n            /* \"#utility.yul\":3915:3938   */\n          sub\n            /* \"#utility.yul\":3911:3943   */\n          slt\n            /* \"#utility.yul\":3908:4027   */\n          iszero\n          tag_160\n          jumpi\n            /* \"#utility.yul\":3946:4025   */\n          tag_161\n          tag_91\n          jump\t// in\n        tag_161:\n            /* \"#utility.yul\":3908:4027   */\n        tag_160:\n            /* \"#utility.yul\":4066:4067   */\n          0x00\n            /* \"#utility.yul\":4091:4144   */\n          tag_162\n            /* \"#utility.yul\":4136:4143   */\n          dup7\n            /* \"#utility.yul\":4127:4133   */\n          dup3\n            /* \"#utility.yul\":4116:4125   */\n          dup8\n            /* \"#utility.yul\":4112:4134   */\n          add\n            /* \"#utility.yul\":4091:4144   */\n          tag_96\n          jump\t// in\n        tag_162:\n            /* \"#utility.yul\":4081:4144   */\n          swap4\n          pop\n            /* \"#utility.yul\":4037:4154   */\n          pop\n            /* \"#utility.yul\":4193:4195   */\n          0x20\n            /* \"#utility.yul\":4219:4272   */\n          tag_163\n            /* \"#utility.yul\":4264:4271   */\n          dup7\n            /* \"#utility.yul\":4255:4261   */\n          dup3\n            /* \"#utility.yul\":4244:4253   */\n          dup8\n            /* \"#utility.yul\":4240:4262   */\n          add\n            /* \"#utility.yul\":4219:4272   */\n          tag_96\n          jump\t// in\n        tag_163:\n            /* \"#utility.yul\":4209:4272   */\n          swap3\n          pop\n            /* \"#utility.yul\":4164:4282   */\n          pop\n            /* \"#utility.yul\":4321:4323   */\n          0x40\n            /* \"#utility.yul\":4347:4400   */\n          tag_164\n            /* \"#utility.yul\":4392:4399   */\n          dup7\n            /* \"#utility.yul\":4383:4389   */\n          dup3\n            /* \"#utility.yul\":4372:4381   */\n          dup8\n            /* \"#utility.yul\":4368:4390   */\n          add\n            /* \"#utility.yul\":4347:4400   */\n          tag_99\n          jump\t// in\n        tag_164:\n            /* \"#utility.yul\":4337:4400   */\n          swap2\n          pop\n            /* \"#utility.yul\":4292:4410   */\n          pop\n            /* \"#utility.yul\":3798:4417   */\n          swap3\n          pop\n          swap3\n          pop\n          swap3\n          jump\t// out\n            /* \"#utility.yul\":4423:4509   */\n        tag_103:\n            /* \"#utility.yul\":4458:4465   */\n          0x00\n            /* \"#utility.yul\":4498:4502   */\n          0xff\n            /* \"#utility.yul\":4491:4496   */\n          dup3\n            /* \"#utility.yul\":4487:4503   */\n          and\n            /* \"#utility.yul\":4476:4503   */\n          swap1\n          pop\n            /* \"#utility.yul\":4423:4509   */\n          swap2\n          swap1\n          pop\n          jump\t// out\n            /* \"#utility.yul\":4515:4627   */\n        tag_104:\n            /* \"#utility.yul\":4598:4620   */\n          tag_167\n            /* \"#utility.yul\":4614:4619   */\n          dup2\n            /* \"#utility.yul\":4598:4620   */\n          tag_103\n          jump\t// in\n        tag_167:\n            /* \"#utility.yul\":4593:4596   */\n          dup3\n            /* \"#utility.yul\":4586:4621   */\n          mstore\n            /* \"#utility.yul\":4515:4627   */\n          pop\n          pop\n          jump\t// out\n            /* \"#utility.yul\":4633:4847   */\n        tag_36:\n            /* \"#utility.yul\":4722:4726   */\n          0x00\n            /* \"#utility.yul\":4760:4762   */\n          0x20\n            /* \"#utility.yul\":4749:4758   */\n          dup3\n            /* \"#utility.yul\":4745:4763   */\n          add\n            /* \"#utility.yul\":4737:4763   */\n          swap1\n          pop\n            /* \"#utility.yul\":4773:4840   */\n          tag_169\n            /* \"#utility.yul\":4837:4838   */\n          0x00\n            /* \"#utility.yul\":4826:4835   */\n          dup4\n            /* \"#utility.yul\":4822:4839   */\n          add\n            /* \"#utility.yul\":4813:4819   */\n          dup5\n            /* \"#utility.yul\":4773:4840   */\n          tag_104\n          jump\t// in\n        tag_169:\n            /* \"#utility.yul\":4633:4847   */\n          swap3\n          swap2\n          pop\n          pop\n          jump\t// out\n            /* \"#utility.yul\":4853:4970   */\n        tag_105:\n            /* \"#utility.yul\":4962:4963   */\n          0x00\n            /* \"#utility.yul\":4959:4960   */\n          dup1\n            /* \"#utility.yul\":4952:4964   */\n          revert\n            /* \"#utility.yul\":4976:5093   */\n        tag_106:\n            /* \"#utility.yul\":5085:5086   */\n          0x00\n            /* \"#utility.yul\":5082:5083   */\n          dup1\n            /* \"#utility.yul\":5075:5087   */\n          revert\n            /* \"#utility.yul\":5099:5216   */\n        tag_107:\n            /* \"#utility.yul\":5208:5209   */\n          0x00\n            /* \"#utility.yul\":5205:5206   */\n          dup1\n            /* \"#utility.yul\":5198:5210   */\n          revert\n            /* \"#utility.yul\":5235:5787   */\n        tag_108:\n            /* \"#utility.yul\":5292:5300   */\n          0x00\n            /* \"#utility.yul\":5302:5308   */\n          dup1\n            /* \"#utility.yul\":5352:5355   */\n          dup4\n            /* \"#utility.yul\":5345:5349   */\n          0x1f\n            /* \"#utility.yul\":5337:5343   */\n          dup5\n            /* \"#utility.yul\":5333:5350   */\n          add\n            /* \"#utility.yul\":5329:5356   */\n          slt\n            /* \"#utility.yul\":5319:5441   */\n          tag_174\n          jumpi\n            /* \"#utility.yul\":5360:5439   */\n          tag_175\n          tag_105\n          jump\t// in\n        tag_175:\n            /* \"#utility.yul\":5319:5441   */\n        tag_174:\n            /* \"#utility.yul\":5473:5479   */\n          dup3\n            /* \"#utility.yul\":5460:5480   */\n          calldataload\n            /* \"#utility.yul\":5450:5480   */\n          swap1\n          pop\n            /* \"#utility.yul\":5503:5521   */\n          0xffffffffffffffff\n            /* \"#utility.yul\":5495:5501   */\n          dup2\n            /* \"#utility.yul\":5492:5522   */\n          gt\n            /* \"#utility.yul\":5489:5606   */\n          iszero\n          tag_176\n          jumpi\n            /* \"#utility.yul\":5525:5604   */\n          tag_177\n          tag_106\n          jump\t// in\n        tag_177:\n            /* \"#utility.yul\":5489:5606   */\n        tag_176:\n            /* \"#utility.yul\":5639:5643   */\n          0x20\n            /* \"#utility.yul\":5631:5637   */\n          dup4\n            /* \"#utility.yul\":5627:5644   */\n          add\n            /* \"#utility.yul\":5615:5644   */\n          swap2\n          pop\n            /* \"#utility.yul\":5693:5696   */\n          dup4\n            /* \"#utility.yul\":5685:5689   */\n          0x01\n            /* \"#utility.yul\":5677:5683   */\n          dup3\n            /* \"#utility.yul\":5673:5690   */\n          mul\n            /* \"#utility.yul\":5663:5671   */\n          dup4\n            /* \"#utility.yul\":5659:5691   */\n          add\n            /* \"#utility.yul\":5656:5697   */\n          gt\n            /* \"#utility.yul\":5653:5781   */\n          iszero\n          tag_178\n          jumpi\n            /* \"#utility.yul\":5700:5779   */\n          tag_179\n          tag_107\n          jump\t// in\n        tag_179:\n            /* \"#utility.yul\":5653:5781   */\n        tag_178:\n            /* \"#utility.yul\":5235:5787   */\n          swap3\n          pop\n          swap3\n          swap1\n          pop\n          jump\t// out\n            /* \"#utility.yul\":5793:6610   */\n        tag_39:\n            /* \"#utility.yul\":5881:5887   */\n          0x00\n            /* \"#utility.yul\":5889:5895   */\n          dup1\n            /* \"#utility.yul\":5897:5903   */\n          0x00\n            /* \"#utility.yul\":5905:5911   */\n          dup1\n            /* \"#utility.yul\":5954:5956   */\n          0x60\n            /* \"#utility.yul\":5942:5951   */\n          dup6\n            /* \"#utility.yul\":5933:5940   */\n          dup8\n            /* \"#utility.yul\":5929:5952   */\n          sub\n            /* \"#utility.yul\":5925:5957   */\n          slt\n            /* \"#utility.yul\":5922:6041   */\n          iszero\n          tag_181\n          jumpi\n            /* \"#utility.yul\":5960:6039   */\n          tag_182\n          tag_91\n          jump\t// in\n        tag_182:\n            /* \"#utility.yul\":5922:6041   */\n        tag_181:\n            /* \"#utility.yul\":6080:6081   */\n          0x00\n            /* \"#utility.yul\":6105:6158   */\n          tag_183\n            /* \"#utility.yul\":6150:6157   */\n          dup8\n            /* \"#utility.yul\":6141:6147   */\n          dup3\n            /* \"#utility.yul\":6130:6139   */\n          dup9\n            /* \"#utility.yul\":6126:6148   */\n          add\n            /* \"#utility.yul\":6105:6158   */\n          tag_96\n          jump\t// in\n        tag_183:\n            /* \"#utility.yul\":6095:6158   */\n          swap5\n          pop\n            /* \"#utility.yul\":6051:6168   */\n          pop\n            /* \"#utility.yul\":6207:6209   */\n          0x20\n            /* \"#utility.yul\":6233:6286   */\n          tag_184\n            /* \"#utility.yul\":6278:6285   */\n          dup8\n            /* \"#utility.yul\":6269:6275   */\n          dup3\n            /* \"#utility.yul\":6258:6267   */\n          dup9\n            /* \"#utility.yul\":6254:6276   */\n          add\n            /* \"#utility.yul\":6233:6286   */\n          tag_99\n          jump\t// in\n        tag_184:\n            /* \"#utility.yul\":6223:6286   */\n          swap4\n          pop\n            /* \"#utility.yul\":6178:6296   */\n          pop\n            /* \"#utility.yul\":6363:6365   */\n          0x40\n            /* \"#utility.yul\":6352:6361   */\n          dup6\n            /* \"#utility.yul\":6348:6366   */\n          add\n            /* \"#utility.yul\":6335:6367   */\n          calldataload\n            /* \"#utility.yul\":6394:6412   */\n          0xffffffffffffffff\n            /* \"#utility.yul\":6386:6392   */\n          dup2\n            /* \"#utility.yul\":6383:6413   */\n          gt\n            /* \"#utility.yul\":6380:6497   */\n          iszero\n          tag_185\n          jumpi\n            /* \"#utility.yul\":6416:6495   */\n          tag_186\n          tag_92\n          jump\t// in\n        tag_186:\n            /* \"#utility.yul\":6380:6497   */\n        tag_185:\n            /* \"#utility.yul\":6529:6593   */\n          tag_187\n            /* \"#utility.yul\":6585:6592   */\n          dup8\n            /* \"#utility.yul\":6576:6582   */\n          dup3\n            /* \"#utility.yul\":6565:6574   */\n          dup9\n            /* \"#utility.yul\":6561:6583   */\n          add\n            /* \"#utility.yul\":6529:6593   */\n          tag_108\n          jump\t// in\n        tag_187:\n            /* \"#utility.yul\":6511:6593   */\n          swap3\n          pop\n          swap3\n          pop\n            /* \"#utility.yul\":6306:6603   */\n          pop\n            /* \"#utility.yul\":5793:6610   */\n          swap3\n          swap6\n          swap2\n          swap5\n          pop\n          swap3\n          pop\n          jump\t// out\n            /* \"#utility.yul\":6616:6945   */\n        tag_43:\n            /* \"#utility.yul\":6675:6681   */\n          0x00\n            /* \"#utility.yul\":6724:6726   */\n          0x20\n            /* \"#utility.yul\":6712:6721   */\n          dup3\n            /* \"#utility.yul\":6703:6710   */\n          dup5\n            /* \"#utility.yul\":6699:6722   */\n          sub\n            /* \"#utility.yul\":6695:6727   */\n          slt\n            /* \"#utility.yul\":6692:6811   */\n          iszero\n          tag_189\n          jumpi\n            /* \"#utility.yul\":6730:6809   */\n          tag_190\n          tag_91\n          jump\t// in\n        tag_190:\n            /* \"#utility.yul\":6692:6811   */\n        tag_189:\n            /* \"#utility.yul\":6850:6851   */\n          0x00\n            /* \"#utility.yul\":6875:6928   */\n          tag_191\n            /* \"#utility.yul\":6920:6927   */\n          dup5\n            /* \"#utility.yul\":6911:6917   */\n          dup3\n            /* \"#utility.yul\":6900:6909   */\n          dup6\n            /* \"#utility.yul\":6896:6918   */\n          add\n            /* \"#utility.yul\":6875:6928   */\n          tag_96\n          jump\t// in\n        tag_191:\n            /* \"#utility.yul\":6865:6928   */\n          swap2\n          pop\n            /* \"#utility.yul\":6821:6938   */\n          pop\n            /* \"#utility.yul\":6616:6945   */\n          swap3\n          swap2\n          pop\n          pop\n          jump\t// out\n            /* \"#utility.yul\":6951:7425   */\n        tag_55:\n            /* \"#utility.yul\":7019:7025   */\n          0x00\n            /* \"#utility.yul\":7027:7033   */\n          dup1\n            /* \"#utility.yul\":7076:7078   */\n          0x40\n            /* \"#utility.yul\":7064:7073   */\n          dup4\n            /* \"#utility.yul\":7055:7062   */\n          dup6\n            /* \"#utility.yul\":7051:7074   */\n          sub\n            /* \"#utility.yul\":7047:7079   */\n          slt\n            /* \"#utility.yul\":7044:7163   */\n          iszero\n          tag_193\n          jumpi\n            /* \"#utility.yul\":7082:7161   */\n          tag_194\n          tag_91\n          jump\t// in\n        tag_194:\n            /* \"#utility.yul\":7044:7163   */\n        tag_193:\n            /* \"#utility.yul\":7202:7203   */\n          0x00\n            /* \"#utility.yul\":7227:7280   */\n          tag_195\n            /* \"#utility.yul\":7272:7279   */\n          dup6\n            /* \"#utility.yul\":7263:7269   */\n          dup3\n            /* \"#utility.yul\":7252:7261   */\n          dup7\n            /* \"#utility.yul\":7248:7270   */\n          add\n            /* \"#utility.yul\":7227:7280   */\n          tag_96\n          jump\t// in\n        tag_195:\n            /* \"#utility.yul\":7217:7280   */\n          swap3\n          pop\n            /* \"#utility.yul\":7173:7290   */\n          pop\n            /* \"#utility.yul\":7329:7331   */\n          0x20\n            /* \"#utility.yul\":7355:7408   */\n          tag_196\n            /* \"#utility.yul\":7400:7407   */\n          dup6\n            /* \"#utility.yul\":7391:7397   */\n          dup3\n            /* \"#utility.yul\":7380:7389   */\n          dup7\n            /* \"#utility.yul\":7376:7398   */\n          add\n            /* \"#utility.yul\":7355:7408   */\n          tag_96\n          jump\t// in\n        tag_196:\n            /* \"#utility.yul\":7345:7408   */\n          swap2\n          pop\n            /* \"#utility.yul\":7300:7418   */\n          pop\n            /* \"#utility.yul\":6951:7425   */\n          swap3\n          pop\n          swap3\n          swap1\n          pop\n          jump\t// out\n            /* \"#utility.yul\":7431:7611   */\n        tag_109:\n            /* \"#utility.yul\":7479:7556   */\n          0x4e487b7100000000000000000000000000000000000000000000000000000000\n            /* \"#utility.yul\":7476:7477   */\n          0x00\n            /* \"#utility.yul\":7469:7557   */\n          mstore\n            /* \"#utility.yul\":7576:7580   */\n          0x11\n            /* \"#utility.yul\":7573:7574   */\n          0x04\n            /* \"#utility.yul\":7566:7581   */\n          mstore\n            /* \"#utility.yul\":7600:7604   */\n          0x24\n            /* \"#utility.yul\":7597:7598   */\n          0x00\n            /* \"#utility.yul\":7590:7605   */\n          revert\n            /* \"#utility.yul\":7617:7811   */\n        tag_65:\n            /* \"#utility.yul\":7657:7661   */\n          0x00\n            /* \"#utility.yul\":7677:7697   */\n          tag_199\n            /* \"#utility.yul\":7695:7696   */\n          dup3\n            /* \"#utility.yul\":7677:7697   */\n          tag_97\n          jump\t// in\n        tag_199:\n            /* \"#utility.yul\":7672:7697   */\n          swap2\n          pop\n            /* \"#utility.yul\":7711:7731   */\n          tag_200\n            /* \"#utility.yul\":7729:7730   */\n          dup4\n            /* \"#utility.yul\":7711:7731   */\n          tag_97\n          jump\t// in\n        tag_200:\n            /* \"#utility.yul\":7706:7731   */\n          swap3\n          pop\n            /* \"#utility.yul\":7755:7756   */\n          dup3\n            /* \"#utility.yul\":7752:7753   */\n          dup3\n            /* \"#utility.yul\":7748:7757   */\n          sub\n            /* \"#utility.yul\":7740:7757   */\n          swap1\n          pop\n            /* \"#utility.yul\":7779:7780   */\n          dup2\n            /* \"#utility.yul\":7773:7777   */\n          dup2\n            /* \"#utility.yul\":7770:7781   */\n          gt\n            /* \"#utility.yul\":7767:7804   */\n          iszero\n          tag_201\n          jumpi\n            /* \"#utility.yul\":7784:7802   */\n          tag_202\n          tag_109\n          jump\t// in\n        tag_202:\n            /* \"#utility.yul\":7767:7804   */\n        tag_201:\n            /* \"#utility.yul\":7617:7811   */\n          swap3\n          swap2\n          pop\n          pop\n          jump\t// out\n            /* \"#utility.yul\":7817:8008   */\n        tag_68:\n            /* \"#utility.yul\":7857:7860   */\n          0x00\n            /* \"#utility.yul\":7876:7896   */\n          tag_204\n            /* \"#utility.yul\":7894:7895   */\n          dup3\n            /* \"#utility.yul\":7876:7896   */\n          tag_97\n          jump\t// in\n        tag_204:\n            /* \"#utility.yul\":7871:7896   */\n          swap2\n          pop\n            /* \"#utility.yul\":7910:7930   */\n          tag_205\n            /* \"#utility.yul\":7928:7929   */\n          dup4\n            /* \"#utility.yul\":7910:7930   */\n          tag_97\n          jump\t// in\n        tag_205:\n            /* \"#utility.yul\":7905:7930   */\n          swap3\n          pop\n            /* \"#utility.yul\":7953:7954   */\n          dup3\n            /* \"#utility.yul\":7950:7951   */\n          dup3\n            /* \"#utility.yul\":7946:7955   */\n          add\n            /* \"#utility.yul\":7939:7955   */\n          swap1\n          pop\n            /* \"#utility.yul\":7974:7977   */\n          dup1\n            /* \"#utility.yul\":7971:7972   */\n          dup3\n            /* \"#utility.yul\":7968:7978   */\n          gt\n            /* \"#utility.yul\":7965:8001   */\n          iszero\n          tag_206\n          jumpi\n            /* \"#utility.yul\":7981:7999   */\n          tag_207\n          tag_109\n          jump\t// in\n        tag_207:\n            /* \"#utility.yul\":7965:8001   */\n        tag_206:\n            /* \"#utility.yul\":7817:8008   */\n          swap3\n          swap2\n          pop\n          pop\n          jump\t// out\n            /* \"#utility.yul\":8014:8161   */\n        tag_110:\n            /* \"#utility.yul\":8115:8126   */\n          0x00\n            /* \"#utility.yul\":8152:8155   */\n          dup2\n            /* \"#utility.yul\":8137:8155   */\n          swap1\n          pop\n            /* \"#utility.yul\":8014:8161   */\n          swap3\n          swap2\n          pop\n          pop\n          jump\t// out\n            /* \"#utility.yul\":8167:8313   */\n        tag_111:\n            /* \"#utility.yul\":8264:8270   */\n          dup3\n            /* \"#utility.yul\":8259:8262   */\n          dup2\n            /* \"#utility.yul\":8254:8257   */\n          dup4\n            /* \"#utility.yul\":8241:8271   */\n          calldatacopy\n            /* \"#utility.yul\":8305:8306   */\n          0x00\n            /* \"#utility.yul\":8296:8302   */\n          dup4\n            /* \"#utility.yul\":8291:8294   */\n          dup4\n            /* \"#utility.yul\":8287:8303   */\n          add\n            /* \"#utility.yul\":8280:8307   */\n          mstore\n            /* \"#utility.yul\":8167:8313   */\n          pop\n          pop\n          pop\n          jump\t// out\n            /* \"#utility.yul\":8341:8668   */\n        tag_112:\n            /* \"#utility.yul\":8455:8458   */\n          0x00\n            /* \"#utility.yul\":8476:8564   */\n          tag_211\n            /* \"#utility.yul\":8557:8563   */\n          dup4\n            /* \"#utility.yul\":8552:8555   */\n          dup6\n            /* \"#utility.yul\":8476:8564   */\n          tag_110\n          jump\t// in\n        tag_211:\n            /* \"#utility.yul\":8469:8564   */\n          swap4\n          pop\n            /* \"#utility.yul\":8574:8630   */\n          tag_212\n            /* \"#utility.yul\":8623:8629   */\n          dup4\n            /* \"#utility.yul\":8618:8621   */\n          dup6\n            /* \"#utility.yul\":8611:8616   */\n          dup5\n            /* \"#utility.yul\":8574:8630   */\n          tag_111\n          jump\t// in\n        tag_212:\n            /* \"#utility.yul\":8655:8661   */\n          dup3\n            /* \"#utility.yul\":8650:8653   */\n          dup5\n            /* \"#utility.yul\":8646:8662   */\n          add\n            /* \"#utility.yul\":8639:8662   */\n          swap1\n          pop\n            /* \"#utility.yul\":8341:8668   */\n          swap4\n          swap3\n          pop\n          pop\n          pop\n          jump\t// out\n            /* \"#utility.yul\":8674:8965   */\n        tag_72:\n            /* \"#utility.yul\":8814:8817   */\n          0x00\n            /* \"#utility.yul\":8836:8939   */\n          tag_214\n            /* \"#utility.yul\":8935:8938   */\n          dup3\n            /* \"#utility.yul\":8926:8932   */\n          dup5\n            /* \"#utility.yul\":8918:8924   */\n          dup7\n            /* \"#utility.yul\":8836:8939   */\n          tag_112\n          jump\t// in\n        tag_214:\n            /* \"#utility.yul\":8829:8939   */\n          swap2\n          pop\n            /* \"#utility.yul\":8956:8959   */\n          dup2\n            /* \"#utility.yul\":8949:8959   */\n          swap1\n          pop\n            /* \"#utility.yul\":8674:8965   */\n          swap4\n          swap3\n          pop\n          pop\n          pop\n          jump\t// out\n\n        auxdata: 0xa26469706673582212203be25201ac49a9f320c5e99128602283ba8769d132a02fe7a0739559e2d9714664736f6c63430008120033\n    }\n}\n",
				"bytecode": {
					"linkReferences": {},
					"object": "60806040526040516100109061007e565b604051809103906000f08015801561002c573d6000803e3d6000fd5b506000806101000a81548173ffffffffffffffffffffffffffffffffffffffff021916908373ffffffffffffffffffffffffffffffffffffffff16021790555034801561007857600080fd5b5061008b565b61103880610f9783390190565b610efd8061009a6000396000f3fe608060405234801561001057600080fd5b50600436106100885760003560e01c8063b6b55f251161005b578063b6b55f25146100ff578063efedc6691461011b578063fa391c6414610139578063fc0c546a1461014357610088565b80630512f60b1461008d5780632e1a7d4d146100bd5780633884d635146100d95780635296a431146100e3575b600080fd5b6100a760048036038101906100a29190610961565b610161565b6040516100b491906109a7565b60405180910390f35b6100d760048036038101906100d291906109ee565b610179565b005b6100e16102bd565b005b6100fd60048036038101906100f89190610a80565b61039b565b005b610119600480360381019061011491906109ee565b6106a6565b005b6101236107a8565b60405161013091906109a7565b60405180910390f35b6101416107ae565b005b61014b6108d5565b6040516101589190610b3f565b60405180910390f35b60016020528060005260406000206000915090505481565b80600160003373ffffffffffffffffffffffffffffffffffffffff1673ffffffffffffffffffffffffffffffffffffffff1681526020019081526020016000205410156101c557600080fd5b60008054906101000a900473ffffffffffffffffffffffffffffffffffffffff1673ffffffffffffffffffffffffffffffffffffffff1663a9059cbb33836040518363ffffffff1660e01b8152600401610220929190610b69565b6020604051808303816000875af115801561023f573d6000803e3d6000fd5b505050506040513d601f19601f820116820180604052508101906102639190610bca565b5080600160003373ffffffffffffffffffffffffffffffffffffffff1673ffffffffffffffffffffffffffffffffffffffff16815260200190815260200160002060008282546102b39190610c26565b9250508190555050565b600060149054906101000a900460ff16156102d757600080fd5b6001600060146101000a81548160ff02191690831515021790555060008054906101000a900473ffffffffffffffffffffffffffffffffffffffff1673ffffffffffffffffffffffffffffffffffffffff1663a9059cbb3367016345785d8a00006040518363ffffffff1660e01b8152600401610355929190610c95565b6020604051808303816000875af1158015610374573d6000803e3d6000fd5b505050506040513d601f19601f820116820180604052508101906103989190610bca565b50565b60008060009054906101000a900473ffffffffffffffffffffffffffffffffffffffff1673ffffffffffffffffffffffffffffffffffffffff166370a08231306040518263ffffffff1660e01b81526004016103f79190610cbe565b602060405180830381865afa158015610414573d6000803e3d6000fd5b505050506040513d601f19601f820116820180604052508101906104389190610cee565b90508381101561047d576040517f08c379a000000000000000000000000000000000000000000000000000000000815260040161047490610d78565b60405180910390fd5b6001600060156101000a81548160ff02191690831515021790555060008054906101000a900473ffffffffffffffffffffffffffffffffffffffff1673ffffffffffffffffffffffffffffffffffffffff1663a9059cbb33866040518363ffffffff1660e01b81526004016104f3929190610b69565b6020604051808303816000875af1158015610512573d6000803e3d6000fd5b505050506040513d601f19601f820116820180604052508101906105369190610bca565b503373ffffffffffffffffffffffffffffffffffffffff16838360405161055e929190610dd7565b6000604051808303816000865af19150503d806000811461059b576040519150601f19603f3d011682016040523d82523d6000602084013e6105a0565b606091505b50505060008060156101000a81548160ff02191690831515021790555060008060009054906101000a900473ffffffffffffffffffffffffffffffffffffffff1673ffffffffffffffffffffffffffffffffffffffff166370a08231306040518263ffffffff1660e01b81526004016106199190610cbe565b602060405180830381865afa158015610636573d6000803e3d6000fd5b505050506040513d601f19601f8201168201806040525081019061065a9190610cee565b90508181101561069f576040517f08c379a000000000000000000000000000000000000000000000000000000000815260040161069690610e3c565b60405180910390fd5b5050505050565b60008054906101000a900473ffffffffffffffffffffffffffffffffffffffff1673ffffffffffffffffffffffffffffffffffffffff166323b872dd3330846040518463ffffffff1660e01b815260040161070393929190610e5c565b6020604051808303816000875af1158015610722573d6000803e3d6000fd5b505050506040513d601f19601f820116820180604052508101906107469190610bca565b61074f57600080fd5b80600160003373ffffffffffffffffffffffffffffffffffffffff1673ffffffffffffffffffffffffffffffffffffffff168152602001908152602001600020600082825461079e9190610e93565b9250508190555050565b60025481565b600060159054906101000a900460ff16156107c857600080fd5b3373ffffffffffffffffffffffffffffffffffffffff163273ffffffffffffffffffffffffffffffffffffffff16146108165760196002600082825461080e9190610e93565b925050819055505b60008060009054906101000a900473ffffffffffffffffffffffffffffffffffffffff1673ffffffffffffffffffffffffffffffffffffffff166370a08231306040518263ffffffff1660e01b81526004016108729190610cbe565b602060405180830381865afa15801561088f573d6000803e3d6000fd5b505050506040513d601f19601f820116820180604052508101906108b39190610cee565b036108d357604b600260008282546108cb9190610e93565b925050819055505b565b60008054906101000a900473ffffffffffffffffffffffffffffffffffffffff1681565b600080fd5b600080fd5b600073ffffffffffffffffffffffffffffffffffffffff82169050919050565b600061092e82610903565b9050919050565b61093e81610923565b811461094957600080fd5b50565b60008135905061095b81610935565b92915050565b600060208284031215610977576109766108f9565b5b60006109858482850161094c565b91505092915050565b6000819050919050565b6109a18161098e565b82525050565b60006020820190506109bc6000830184610998565b92915050565b6109cb8161098e565b81146109d657600080fd5b50565b6000813590506109e8816109c2565b92915050565b600060208284031215610a0457610a036108f9565b5b6000610a12848285016109d9565b91505092915050565b600080fd5b600080fd5b600080fd5b60008083601f840112610a4057610a3f610a1b565b5b8235905067ffffffffffffffff811115610a5d57610a5c610a20565b5b602083019150836001820283011115610a7957610a78610a25565b5b9250929050565b600080600060408486031215610a9957610a986108f9565b5b6000610aa7868287016109d9565b935050602084013567ffffffffffffffff811115610ac857610ac76108fe565b5b610ad486828701610a2a565b92509250509250925092565b6000819050919050565b6000610b05610b00610afb84610903565b610ae0565b610903565b9050919050565b6000610b1782610aea565b9050919050565b6000610b2982610b0c565b9050919050565b610b3981610b1e565b82525050565b6000602082019050610b546000830184610b30565b92915050565b610b6381610923565b82525050565b6000604082019050610b7e6000830185610b5a565b610b8b6020830184610998565b9392505050565b60008115159050919050565b610ba781610b92565b8114610bb257600080fd5b50565b600081519050610bc481610b9e565b92915050565b600060208284031215610be057610bdf6108f9565b5b6000610bee84828501610bb5565b91505092915050565b7f4e487b7100000000000000000000000000000000000000000000000000000000600052601160045260246000fd5b6000610c318261098e565b9150610c3c8361098e565b9250828203905081811115610c5457610c53610bf7565b5b92915050565b6000819050919050565b6000610c7f610c7a610c7584610c5a565b610ae0565b61098e565b9050919050565b610c8f81610c64565b82525050565b6000604082019050610caa6000830185610b5a565b610cb76020830184610c86565b9392505050565b6000602082019050610cd36000830184610b5a565b92915050565b600081519050610ce8816109c2565b92915050565b600060208284031215610d0457610d036108f9565b5b6000610d1284828501610cd9565b91505092915050565b600082825260208201905092915050565b7f4e6f7420656e6f75676820746f6b656e7320696e20706f6f6c00000000000000600082015250565b6000610d62601983610d1b565b9150610d6d82610d2c565b602082019050919050565b60006020820190508181036000830152610d9181610d55565b9050919050565b600081905092915050565b82818337600083830152505050565b6000610dbe8385610d98565b9350610dcb838584610da3565b82840190509392505050565b6000610de4828486610db2565b91508190509392505050565b7f466c617368206c6f616e206861736e2774206265656e2070616964206261636b600082015250565b6000610e26602083610d1b565b9150610e3182610df0565b602082019050919050565b60006020820190508181036000830152610e5581610e19565b9050919050565b6000606082019050610e716000830186610b5a565b610e7e6020830185610b5a565b610e8b6040830184610998565b949350505050565b6000610e9e8261098e565b9150610ea98361098e565b9250828201905080821115610ec157610ec0610bf7565b5b9291505056fea26469706673582212207538fc04f75833b0eb88d6a85886574787e004e850fc5f632941702355bb207864736f6c634300081200336080604052683635c9adc5dea0000060025534801561001d57600080fd5b506002546000803373ffffffffffffffffffffffffffffffffffffffff1673ffffffffffffffffffffffffffffffffffffffff16815260200190815260200160002081905550610fc6806100726000396000f3fe608060405234801561001057600080fd5b506004361061009e5760003560e01c8063478b36d811610066578063478b36d81461015d57806370a082311461017957806395d89b41146101a9578063a9059cbb146101c7578063dd62ed3e146101f75761009e565b806306fdde03146100a3578063095ea7b3146100c157806318160ddd146100f157806323b872dd1461010f578063313ce5671461013f575b600080fd5b6100ab610227565b6040516100b89190610b71565b60405180910390f35b6100db60048036038101906100d69190610c31565b610260565b6040516100e89190610c8c565b60405180910390f35b6100f9610352565b6040516101069190610cb6565b60405180910390f35b61012960048036038101906101249190610cd1565b61035c565b6040516101369190610c8c565b60405180910390f35b6101476106c2565b6040516101549190610d40565b60405180910390f35b61017760048036038101906101729190610dc0565b6106c7565b005b610193600480360381019061018e9190610e34565b610805565b6040516101a09190610cb6565b60405180910390f35b6101b161084d565b6040516101be9190610b71565b60405180910390f35b6101e160048036038101906101dc9190610c31565b610886565b6040516101ee9190610c8c565b60405180910390f35b610211600480360381019061020c9190610e61565b610a5a565b60405161021e9190610cb6565b60405180910390f35b6040518060400160405280600581526020017f455243323000000000000000000000000000000000000000000000000000000081525081565b600081600160003373ffffffffffffffffffffffffffffffffffffffff1673ffffffffffffffffffffffffffffffffffffffff16815260200190815260200160002060008573ffffffffffffffffffffffffffffffffffffffff1673ffffffffffffffffffffffffffffffffffffffff168152602001908152602001600020819055508273ffffffffffffffffffffffffffffffffffffffff163373ffffffffffffffffffffffffffffffffffffffff167f8c5be1e5ebec7d5bd14f71427d1e84f3dd0314c0f7b2291e5b200ac8c7c3b925846040516103409190610cb6565b60405180910390a36001905092915050565b6000600254905090565b60008060008573ffffffffffffffffffffffffffffffffffffffff1673ffffffffffffffffffffffffffffffffffffffff168152602001908152602001600020548211156103a957600080fd5b600160008573ffffffffffffffffffffffffffffffffffffffff1673ffffffffffffffffffffffffffffffffffffffff16815260200190815260200160002060003373ffffffffffffffffffffffffffffffffffffffff1673ffffffffffffffffffffffffffffffffffffffff1681526020019081526020016000205482111561043257600080fd5b816000808673ffffffffffffffffffffffffffffffffffffffff1673ffffffffffffffffffffffffffffffffffffffff1681526020019081526020016000205461047c9190610ed0565b6000808673ffffffffffffffffffffffffffffffffffffffff1673ffffffffffffffffffffffffffffffffffffffff1681526020019081526020016000208190555081600160008673ffffffffffffffffffffffffffffffffffffffff1673ffffffffffffffffffffffffffffffffffffffff16815260200190815260200160002060003373ffffffffffffffffffffffffffffffffffffffff1673ffffffffffffffffffffffffffffffffffffffff168152602001908152602001600020546105469190610ed0565b600160008673ffffffffffffffffffffffffffffffffffffffff1673ffffffffffffffffffffffffffffffffffffffff16815260200190815260200160002060003373ffffffffffffffffffffffffffffffffffffffff1673ffffffffffffffffffffffffffffffffffffffff16815260200190815260200160002081905550816000808573ffffffffffffffffffffffffffffffffffffffff1673ffffffffffffffffffffffffffffffffffffffff168152602001908152602001600020546106109190610f04565b6000808573ffffffffffffffffffffffffffffffffffffffff1673ffffffffffffffffffffffffffffffffffffffff168152602001908152602001600020819055508273ffffffffffffffffffffffffffffffffffffffff168473ffffffffffffffffffffffffffffffffffffffff167fddf252ad1be2c89b69c2b068fc378daa952ba7f163c4a11628f55a4df523b3ef846040516106af9190610cb6565b60405180910390a3600190509392505050565b601281565b82600160003373ffffffffffffffffffffffffffffffffffffffff1673ffffffffffffffffffffffffffffffffffffffff16815260200190815260200160002060008673ffffffffffffffffffffffffffffffffffffffff1673ffffffffffffffffffffffffffffffffffffffff168152602001908152602001600020819055506000808573ffffffffffffffffffffffffffffffffffffffff168484604051610772929190610f77565b6000604051808303816000865af19150503d80600081146107af576040519150601f19603f3d011682016040523d82523d6000602084013e6107b4565b606091505b50915091508181906107fc576040517f08c379a00000000000000000000000000000000000000000000000000000000081526004016107f39190610b71565b60405180910390fd5b50505050505050565b60008060008373ffffffffffffffffffffffffffffffffffffffff1673ffffffffffffffffffffffffffffffffffffffff168152602001908152602001600020549050919050565b6040518060400160405280600381526020017f455243000000000000000000000000000000000000000000000000000000000081525081565b60008060003373ffffffffffffffffffffffffffffffffffffffff1673ffffffffffffffffffffffffffffffffffffffff168152602001908152602001600020548211156108d357600080fd5b816000803373ffffffffffffffffffffffffffffffffffffffff1673ffffffffffffffffffffffffffffffffffffffff1681526020019081526020016000205461091d9190610ed0565b6000803373ffffffffffffffffffffffffffffffffffffffff1673ffffffffffffffffffffffffffffffffffffffff16815260200190815260200160002081905550816000808573ffffffffffffffffffffffffffffffffffffffff1673ffffffffffffffffffffffffffffffffffffffff168152602001908152602001600020546109a99190610f04565b6000808573ffffffffffffffffffffffffffffffffffffffff1673ffffffffffffffffffffffffffffffffffffffff168152602001908152602001600020819055508273ffffffffffffffffffffffffffffffffffffffff163373ffffffffffffffffffffffffffffffffffffffff167fddf252ad1be2c89b69c2b068fc378daa952ba7f163c4a11628f55a4df523b3ef84604051610a489190610cb6565b60405180910390a36001905092915050565b6000600160008473ffffffffffffffffffffffffffffffffffffffff1673ffffffffffffffffffffffffffffffffffffffff16815260200190815260200160002060008373ffffffffffffffffffffffffffffffffffffffff1673ffffffffffffffffffffffffffffffffffffffff16815260200190815260200160002054905092915050565b600081519050919050565b600082825260208201905092915050565b60005b83811015610b1b578082015181840152602081019050610b00565b60008484015250505050565b6000601f19601f8301169050919050565b6000610b4382610ae1565b610b4d8185610aec565b9350610b5d818560208601610afd565b610b6681610b27565b840191505092915050565b60006020820190508181036000830152610b8b8184610b38565b905092915050565b600080fd5b600080fd5b600073ffffffffffffffffffffffffffffffffffffffff82169050919050565b6000610bc882610b9d565b9050919050565b610bd881610bbd565b8114610be357600080fd5b50565b600081359050610bf581610bcf565b92915050565b6000819050919050565b610c0e81610bfb565b8114610c1957600080fd5b50565b600081359050610c2b81610c05565b92915050565b60008060408385031215610c4857610c47610b93565b5b6000610c5685828601610be6565b9250506020610c6785828601610c1c565b9150509250929050565b60008115159050919050565b610c8681610c71565b82525050565b6000602082019050610ca16000830184610c7d565b92915050565b610cb081610bfb565b82525050565b6000602082019050610ccb6000830184610ca7565b92915050565b600080600060608486031215610cea57610ce9610b93565b5b6000610cf886828701610be6565b9350506020610d0986828701610be6565b9250506040610d1a86828701610c1c565b9150509250925092565b600060ff82169050919050565b610d3a81610d24565b82525050565b6000602082019050610d556000830184610d31565b92915050565b600080fd5b600080fd5b600080fd5b60008083601f840112610d8057610d7f610d5b565b5b8235905067ffffffffffffffff811115610d9d57610d9c610d60565b5b602083019150836001820283011115610db957610db8610d65565b5b9250929050565b60008060008060608587031215610dda57610dd9610b93565b5b6000610de887828801610be6565b9450506020610df987828801610c1c565b935050604085013567ffffffffffffffff811115610e1a57610e19610b98565b5b610e2687828801610d6a565b925092505092959194509250565b600060208284031215610e4a57610e49610b93565b5b6000610e5884828501610be6565b91505092915050565b60008060408385031215610e7857610e77610b93565b5b6000610e8685828601610be6565b9250506020610e9785828601610be6565b9150509250929050565b7f4e487b7100000000000000000000000000000000000000000000000000000000600052601160045260246000fd5b6000610edb82610bfb565b9150610ee683610bfb565b9250828203905081811115610efe57610efd610ea1565b5b92915050565b6000610f0f82610bfb565b9150610f1a83610bfb565b9250828201905080821115610f3257610f31610ea1565b5b92915050565b600081905092915050565b82818337600083830152505050565b6000610f5e8385610f38565b9350610f6b838584610f43565b82840190509392505050565b6000610f84828486610f52565b9150819050939250505056fea26469706673582212203be25201ac49a9f320c5e99128602283ba8769d132a02fe7a0739559e2d9714664736f6c63430008120033",
					"opcodes": "PUSH1 0x80 PUSH1 0x40 MSTORE PUSH1 0x40 MLOAD PUSH2 0x10 SWAP1 PUSH2 0x7E JUMP JUMPDEST PUSH1 0x40 MLOAD DUP1 SWAP2 SUB SWAP1 PUSH1 0x0 CREATE DUP1 ISZERO DUP1 ISZERO PUSH2 0x2C JUMPI RETURNDATASIZE PUSH1 0x0 DUP1 RETURNDATACOPY RETURNDATASIZE PUSH1 0x0 REVERT JUMPDEST POP PUSH1 0x0 DUP1 PUSH2 0x100 EXP DUP2 SLOAD DUP2 PUSH20 0xFFFFFFFFFFFFFFFFFFFFFFFFFFFFFFFFFFFFFFFF MUL NOT AND SWAP1 DUP4 PUSH20 0xFFFFFFFFFFFFFFFFFFFFFFFFFFFFFFFFFFFFFFFF AND MUL OR SWAP1 SSTORE POP CALLVALUE DUP1 ISZERO PUSH2 0x78 JUMPI PUSH1 0x0 DUP1 REVERT JUMPDEST POP PUSH2 0x8B JUMP JUMPDEST PUSH2 0x1038 DUP1 PUSH2 0xF97 DUP4 CODECOPY ADD SWAP1 JUMP JUMPDEST PUSH2 0xEFD DUP1 PUSH2 0x9A PUSH1 0x0 CODECOPY PUSH1 0x0 RETURN INVALID PUSH1 0x80 PUSH1 0x40 MSTORE CALLVALUE DUP1 ISZERO PUSH2 0x10 JUMPI PUSH1 0x0 DUP1 REVERT JUMPDEST POP PUSH1 0x4 CALLDATASIZE LT PUSH2 0x88 JUMPI PUSH1 0x0 CALLDATALOAD PUSH1 0xE0 SHR DUP1 PUSH4 0xB6B55F25 GT PUSH2 0x5B JUMPI DUP1 PUSH4 0xB6B55F25 EQ PUSH2 0xFF JUMPI DUP1 PUSH4 0xEFEDC669 EQ PUSH2 0x11B JUMPI DUP1 PUSH4 0xFA391C64 EQ PUSH2 0x139 JUMPI DUP1 PUSH4 0xFC0C546A EQ PUSH2 0x143 JUMPI PUSH2 0x88 JUMP JUMPDEST DUP1 PUSH4 0x512F60B EQ PUSH2 0x8D JUMPI DUP1 PUSH4 0x2E1A7D4D EQ PUSH2 0xBD JUMPI DUP1 PUSH4 0x3884D635 EQ PUSH2 0xD9 JUMPI DUP1 PUSH4 0x5296A431 EQ PUSH2 0xE3 JUMPI JUMPDEST PUSH1 0x0 DUP1 REVERT JUMPDEST PUSH2 0xA7 PUSH1 0x4 DUP1 CALLDATASIZE SUB DUP2 ADD SWAP1 PUSH2 0xA2 SWAP2 SWAP1 PUSH2 0x961 JUMP JUMPDEST PUSH2 0x161 JUMP JUMPDEST PUSH1 0x40 MLOAD PUSH2 0xB4 SWAP2 SWAP1 PUSH2 0x9A7 JUMP JUMPDEST PUSH1 0x40 MLOAD DUP1 SWAP2 SUB SWAP1 RETURN JUMPDEST PUSH2 0xD7 PUSH1 0x4 DUP1 CALLDATASIZE SUB DUP2 ADD SWAP1 PUSH2 0xD2 SWAP2 SWAP1 PUSH2 0x9EE JUMP JUMPDEST PUSH2 0x179 JUMP JUMPDEST STOP JUMPDEST PUSH2 0xE1 PUSH2 0x2BD JUMP JUMPDEST STOP JUMPDEST PUSH2 0xFD PUSH1 0x4 DUP1 CALLDATASIZE SUB DUP2 ADD SWAP1 PUSH2 0xF8 SWAP2 SWAP1 PUSH2 0xA80 JUMP JUMPDEST PUSH2 0x39B JUMP JUMPDEST STOP JUMPDEST PUSH2 0x119 PUSH1 0x4 DUP1 CALLDATASIZE SUB DUP2 ADD SWAP1 PUSH2 0x114 SWAP2 SWAP1 PUSH2 0x9EE JUMP JUMPDEST PUSH2 0x6A6 JUMP JUMPDEST STOP JUMPDEST PUSH2 0x123 PUSH2 0x7A8 JUMP JUMPDEST PUSH1 0x40 MLOAD PUSH2 0x130 SWAP2 SWAP1 PUSH2 0x9A7 JUMP JUMPDEST PUSH1 0x40 MLOAD DUP1 SWAP2 SUB SWAP1 RETURN JUMPDEST PUSH2 0x141 PUSH2 0x7AE JUMP JUMPDEST STOP JUMPDEST PUSH2 0x14B PUSH2 0x8D5 JUMP JUMPDEST PUSH1 0x40 MLOAD PUSH2 0x158 SWAP2 SWAP1 PUSH2 0xB3F JUMP JUMPDEST PUSH1 0x40 MLOAD DUP1 SWAP2 SUB SWAP1 RETURN JUMPDEST PUSH1 0x1 PUSH1 0x20 MSTORE DUP1 PUSH1 0x0 MSTORE PUSH1 0x40 PUSH1 0x0 KECCAK256 PUSH1 0x0 SWAP2 POP SWAP1 POP SLOAD DUP2 JUMP JUMPDEST DUP1 PUSH1 0x1 PUSH1 0x0 CALLER PUSH20 0xFFFFFFFFFFFFFFFFFFFFFFFFFFFFFFFFFFFFFFFF AND PUSH20 0xFFFFFFFFFFFFFFFFFFFFFFFFFFFFFFFFFFFFFFFF AND DUP2 MSTORE PUSH1 0x20 ADD SWAP1 DUP2 MSTORE PUSH1 0x20 ADD PUSH1 0x0 KECCAK256 SLOAD LT ISZERO PUSH2 0x1C5 JUMPI PUSH1 0x0 DUP1 REVERT JUMPDEST PUSH1 0x0 DUP1 SLOAD SWAP1 PUSH2 0x100 EXP SWAP1 DIV PUSH20 0xFFFFFFFFFFFFFFFFFFFFFFFFFFFFFFFFFFFFFFFF AND PUSH20 0xFFFFFFFFFFFFFFFFFFFFFFFFFFFFFFFFFFFFFFFF AND PUSH4 0xA9059CBB CALLER DUP4 PUSH1 0x40 MLOAD DUP4 PUSH4 0xFFFFFFFF AND PUSH1 0xE0 SHL DUP2 MSTORE PUSH1 0x4 ADD PUSH2 0x220 SWAP3 SWAP2 SWAP1 PUSH2 0xB69 JUMP JUMPDEST PUSH1 0x20 PUSH1 0x40 MLOAD DUP1 DUP4 SUB DUP2 PUSH1 0x0 DUP8 GAS CALL ISZERO DUP1 ISZERO PUSH2 0x23F JUMPI RETURNDATASIZE PUSH1 0x0 DUP1 RETURNDATACOPY RETURNDATASIZE PUSH1 0x0 REVERT JUMPDEST POP POP POP POP PUSH1 0x40 MLOAD RETURNDATASIZE PUSH1 0x1F NOT PUSH1 0x1F DUP3 ADD AND DUP3 ADD DUP1 PUSH1 0x40 MSTORE POP DUP2 ADD SWAP1 PUSH2 0x263 SWAP2 SWAP1 PUSH2 0xBCA JUMP JUMPDEST POP DUP1 PUSH1 0x1 PUSH1 0x0 CALLER PUSH20 0xFFFFFFFFFFFFFFFFFFFFFFFFFFFFFFFFFFFFFFFF AND PUSH20 0xFFFFFFFFFFFFFFFFFFFFFFFFFFFFFFFFFFFFFFFF AND DUP2 MSTORE PUSH1 0x20 ADD SWAP1 DUP2 MSTORE PUSH1 0x20 ADD PUSH1 0x0 KECCAK256 PUSH1 0x0 DUP3 DUP3 SLOAD PUSH2 0x2B3 SWAP2 SWAP1 PUSH2 0xC26 JUMP JUMPDEST SWAP3 POP POP DUP2 SWAP1 SSTORE POP POP JUMP JUMPDEST PUSH1 0x0 PUSH1 0x14 SWAP1 SLOAD SWAP1 PUSH2 0x100 EXP SWAP1 DIV PUSH1 0xFF AND ISZERO PUSH2 0x2D7 JUMPI PUSH1 0x0 DUP1 REVERT JUMPDEST PUSH1 0x1 PUSH1 0x0 PUSH1 0x14 PUSH2 0x100 EXP DUP2 SLOAD DUP2 PUSH1 0xFF MUL NOT AND SWAP1 DUP4 ISZERO ISZERO MUL OR SWAP1 SSTORE POP PUSH1 0x0 DUP1 SLOAD SWAP1 PUSH2 0x100 EXP SWAP1 DIV PUSH20 0xFFFFFFFFFFFFFFFFFFFFFFFFFFFFFFFFFFFFFFFF AND PUSH20 0xFFFFFFFFFFFFFFFFFFFFFFFFFFFFFFFFFFFFFFFF AND PUSH4 0xA9059CBB CALLER PUSH8 0x16345785D8A0000 PUSH1 0x40 MLOAD DUP4 PUSH4 0xFFFFFFFF AND PUSH1 0xE0 SHL DUP2 MSTORE PUSH1 0x4 ADD PUSH2 0x355 SWAP3 SWAP2 SWAP1 PUSH2 0xC95 JUMP JUMPDEST PUSH1 0x20 PUSH1 0x40 MLOAD DUP1 DUP4 SUB DUP2 PUSH1 0x0 DUP8 GAS CALL ISZERO DUP1 ISZERO PUSH2 0x374 JUMPI RETURNDATASIZE PUSH1 0x0 DUP1 RETURNDATACOPY RETURNDATASIZE PUSH1 0x0 REVERT JUMPDEST POP POP POP POP PUSH1 0x40 MLOAD RETURNDATASIZE PUSH1 0x1F NOT PUSH1 0x1F DUP3 ADD AND DUP3 ADD DUP1 PUSH1 0x40 MSTORE POP DUP2 ADD SWAP1 PUSH2 0x398 SWAP2 SWAP1 PUSH2 0xBCA JUMP JUMPDEST POP JUMP JUMPDEST PUSH1 0x0 DUP1 PUSH1 0x0 SWAP1 SLOAD SWAP1 PUSH2 0x100 EXP SWAP1 DIV PUSH20 0xFFFFFFFFFFFFFFFFFFFFFFFFFFFFFFFFFFFFFFFF AND PUSH20 0xFFFFFFFFFFFFFFFFFFFFFFFFFFFFFFFFFFFFFFFF AND PUSH4 0x70A08231 ADDRESS PUSH1 0x40 MLOAD DUP3 PUSH4 0xFFFFFFFF AND PUSH1 0xE0 SHL DUP2 MSTORE PUSH1 0x4 ADD PUSH2 0x3F7 SWAP2 SWAP1 PUSH2 0xCBE JUMP JUMPDEST PUSH1 0x20 PUSH1 0x40 MLOAD DUP1 DUP4 SUB DUP2 DUP7 GAS STATICCALL ISZERO DUP1 ISZERO PUSH2 0x414 JUMPI RETURNDATASIZE PUSH1 0x0 DUP1 RETURNDATACOPY RETURNDATASIZE PUSH1 0x0 REVERT JUMPDEST POP POP POP POP PUSH1 0x40 MLOAD RETURNDATASIZE PUSH1 0x1F NOT PUSH1 0x1F DUP3 ADD AND DUP3 ADD DUP1 PUSH1 0x40 MSTORE POP DUP2 ADD SWAP1 PUSH2 0x438 SWAP2 SWAP1 PUSH2 0xCEE JUMP JUMPDEST SWAP1 POP DUP4 DUP2 LT ISZERO PUSH2 0x47D JUMPI PUSH1 0x40 MLOAD PUSH32 0x8C379A000000000000000000000000000000000000000000000000000000000 DUP2 MSTORE PUSH1 0x4 ADD PUSH2 0x474 SWAP1 PUSH2 0xD78 JUMP JUMPDEST PUSH1 0x40 MLOAD DUP1 SWAP2 SUB SWAP1 REVERT JUMPDEST PUSH1 0x1 PUSH1 0x0 PUSH1 0x15 PUSH2 0x100 EXP DUP2 SLOAD DUP2 PUSH1 0xFF MUL NOT AND SWAP1 DUP4 ISZERO ISZERO MUL OR SWAP1 SSTORE POP PUSH1 0x0 DUP1 SLOAD SWAP1 PUSH2 0x100 EXP SWAP1 DIV PUSH20 0xFFFFFFFFFFFFFFFFFFFFFFFFFFFFFFFFFFFFFFFF AND PUSH20 0xFFFFFFFFFFFFFFFFFFFFFFFFFFFFFFFFFFFFFFFF AND PUSH4 0xA9059CBB CALLER DUP7 PUSH1 0x40 MLOAD DUP4 PUSH4 0xFFFFFFFF AND PUSH1 0xE0 SHL DUP2 MSTORE PUSH1 0x4 ADD PUSH2 0x4F3 SWAP3 SWAP2 SWAP1 PUSH2 0xB69 JUMP JUMPDEST PUSH1 0x20 PUSH1 0x40 MLOAD DUP1 DUP4 SUB DUP2 PUSH1 0x0 DUP8 GAS CALL ISZERO DUP1 ISZERO PUSH2 0x512 JUMPI RETURNDATASIZE PUSH1 0x0 DUP1 RETURNDATACOPY RETURNDATASIZE PUSH1 0x0 REVERT JUMPDEST POP POP POP POP PUSH1 0x40 MLOAD RETURNDATASIZE PUSH1 0x1F NOT PUSH1 0x1F DUP3 ADD AND DUP3 ADD DUP1 PUSH1 0x40 MSTORE POP DUP2 ADD SWAP1 PUSH2 0x536 SWAP2 SWAP1 PUSH2 0xBCA JUMP JUMPDEST POP CALLER PUSH20 0xFFFFFFFFFFFFFFFFFFFFFFFFFFFFFFFFFFFFFFFF AND DUP4 DUP4 PUSH1 0x40 MLOAD PUSH2 0x55E SWAP3 SWAP2 SWAP1 PUSH2 0xDD7 JUMP JUMPDEST PUSH1 0x0 PUSH1 0x40 MLOAD DUP1 DUP4 SUB DUP2 PUSH1 0x0 DUP7 GAS CALL SWAP2 POP POP RETURNDATASIZE DUP1 PUSH1 0x0 DUP2 EQ PUSH2 0x59B JUMPI PUSH1 0x40 MLOAD SWAP2 POP PUSH1 0x1F NOT PUSH1 0x3F RETURNDATASIZE ADD AND DUP3 ADD PUSH1 0x40 MSTORE RETURNDATASIZE DUP3 MSTORE RETURNDATASIZE PUSH1 0x0 PUSH1 0x20 DUP5 ADD RETURNDATACOPY PUSH2 0x5A0 JUMP JUMPDEST PUSH1 0x60 SWAP2 POP JUMPDEST POP POP POP PUSH1 0x0 DUP1 PUSH1 0x15 PUSH2 0x100 EXP DUP2 SLOAD DUP2 PUSH1 0xFF MUL NOT AND SWAP1 DUP4 ISZERO ISZERO MUL OR SWAP1 SSTORE POP PUSH1 0x0 DUP1 PUSH1 0x0 SWAP1 SLOAD SWAP1 PUSH2 0x100 EXP SWAP1 DIV PUSH20 0xFFFFFFFFFFFFFFFFFFFFFFFFFFFFFFFFFFFFFFFF AND PUSH20 0xFFFFFFFFFFFFFFFFFFFFFFFFFFFFFFFFFFFFFFFF AND PUSH4 0x70A08231 ADDRESS PUSH1 0x40 MLOAD DUP3 PUSH4 0xFFFFFFFF AND PUSH1 0xE0 SHL DUP2 MSTORE PUSH1 0x4 ADD PUSH2 0x619 SWAP2 SWAP1 PUSH2 0xCBE JUMP JUMPDEST PUSH1 0x20 PUSH1 0x40 MLOAD DUP1 DUP4 SUB DUP2 DUP7 GAS STATICCALL ISZERO DUP1 ISZERO PUSH2 0x636 JUMPI RETURNDATASIZE PUSH1 0x0 DUP1 RETURNDATACOPY RETURNDATASIZE PUSH1 0x0 REVERT JUMPDEST POP POP POP POP PUSH1 0x40 MLOAD RETURNDATASIZE PUSH1 0x1F NOT PUSH1 0x1F DUP3 ADD AND DUP3 ADD DUP1 PUSH1 0x40 MSTORE POP DUP2 ADD SWAP1 PUSH2 0x65A SWAP2 SWAP1 PUSH2 0xCEE JUMP JUMPDEST SWAP1 POP DUP2 DUP2 LT ISZERO PUSH2 0x69F JUMPI PUSH1 0x40 MLOAD PUSH32 0x8C379A000000000000000000000000000000000000000000000000000000000 DUP2 MSTORE PUSH1 0x4 ADD PUSH2 0x696 SWAP1 PUSH2 0xE3C JUMP JUMPDEST PUSH1 0x40 MLOAD DUP1 SWAP2 SUB SWAP1 REVERT JUMPDEST POP POP POP POP POP JUMP JUMPDEST PUSH1 0x0 DUP1 SLOAD SWAP1 PUSH2 0x100 EXP SWAP1 DIV PUSH20 0xFFFFFFFFFFFFFFFFFFFFFFFFFFFFFFFFFFFFFFFF AND PUSH20 0xFFFFFFFFFFFFFFFFFFFFFFFFFFFFFFFFFFFFFFFF AND PUSH4 0x23B872DD CALLER ADDRESS DUP5 PUSH1 0x40 MLOAD DUP5 PUSH4 0xFFFFFFFF AND PUSH1 0xE0 SHL DUP2 MSTORE PUSH1 0x4 ADD PUSH2 0x703 SWAP4 SWAP3 SWAP2 SWAP1 PUSH2 0xE5C JUMP JUMPDEST PUSH1 0x20 PUSH1 0x40 MLOAD DUP1 DUP4 SUB DUP2 PUSH1 0x0 DUP8 GAS CALL ISZERO DUP1 ISZERO PUSH2 0x722 JUMPI RETURNDATASIZE PUSH1 0x0 DUP1 RETURNDATACOPY RETURNDATASIZE PUSH1 0x0 REVERT JUMPDEST POP POP POP POP PUSH1 0x40 MLOAD RETURNDATASIZE PUSH1 0x1F NOT PUSH1 0x1F DUP3 ADD AND DUP3 ADD DUP1 PUSH1 0x40 MSTORE POP DUP2 ADD SWAP1 PUSH2 0x746 SWAP2 SWAP1 PUSH2 0xBCA JUMP JUMPDEST PUSH2 0x74F JUMPI PUSH1 0x0 DUP1 REVERT JUMPDEST DUP1 PUSH1 0x1 PUSH1 0x0 CALLER PUSH20 0xFFFFFFFFFFFFFFFFFFFFFFFFFFFFFFFFFFFFFFFF AND PUSH20 0xFFFFFFFFFFFFFFFFFFFFFFFFFFFFFFFFFFFFFFFF AND DUP2 MSTORE PUSH1 0x20 ADD SWAP1 DUP2 MSTORE PUSH1 0x20 ADD PUSH1 0x0 KECCAK256 PUSH1 0x0 DUP3 DUP3 SLOAD PUSH2 0x79E SWAP2 SWAP1 PUSH2 0xE93 JUMP JUMPDEST SWAP3 POP POP DUP2 SWAP1 SSTORE POP POP JUMP JUMPDEST PUSH1 0x2 SLOAD DUP2 JUMP JUMPDEST PUSH1 0x0 PUSH1 0x15 SWAP1 SLOAD SWAP1 PUSH2 0x100 EXP SWAP1 DIV PUSH1 0xFF AND ISZERO PUSH2 0x7C8 JUMPI PUSH1 0x0 DUP1 REVERT JUMPDEST CALLER PUSH20 0xFFFFFFFFFFFFFFFFFFFFFFFFFFFFFFFFFFFFFFFF AND ORIGIN PUSH20 0xFFFFFFFFFFFFFFFFFFFFFFFFFFFFFFFFFFFFFFFF AND EQ PUSH2 0x816 JUMPI PUSH1 0x19 PUSH1 0x2 PUSH1 0x0 DUP3 DUP3 SLOAD PUSH2 0x80E SWAP2 SWAP1 PUSH2 0xE93 JUMP JUMPDEST SWAP3 POP POP DUP2 SWAP1 SSTORE POP JUMPDEST PUSH1 0x0 DUP1 PUSH1 0x0 SWAP1 SLOAD SWAP1 PUSH2 0x100 EXP SWAP1 DIV PUSH20 0xFFFFFFFFFFFFFFFFFFFFFFFFFFFFFFFFFFFFFFFF AND PUSH20 0xFFFFFFFFFFFFFFFFFFFFFFFFFFFFFFFFFFFFFFFF AND PUSH4 0x70A08231 ADDRESS PUSH1 0x40 MLOAD DUP3 PUSH4 0xFFFFFFFF AND PUSH1 0xE0 SHL DUP2 MSTORE PUSH1 0x4 ADD PUSH2 0x872 SWAP2 SWAP1 PUSH2 0xCBE JUMP JUMPDEST PUSH1 0x20 PUSH1 0x40 MLOAD DUP1 DUP4 SUB DUP2 DUP7 GAS STATICCALL ISZERO DUP1 ISZERO PUSH2 0x88F JUMPI RETURNDATASIZE PUSH1 0x0 DUP1 RETURNDATACOPY RETURNDATASIZE PUSH1 0x0 REVERT JUMPDEST POP POP POP POP PUSH1 0x40 MLOAD RETURNDATASIZE PUSH1 0x1F NOT PUSH1 0x1F DUP3 ADD AND DUP3 ADD DUP1 PUSH1 0x40 MSTORE POP DUP2 ADD SWAP1 PUSH2 0x8B3 SWAP2 SWAP1 PUSH2 0xCEE JUMP JUMPDEST SUB PUSH2 0x8D3 JUMPI PUSH1 0x4B PUSH1 0x2 PUSH1 0x0 DUP3 DUP3 SLOAD PUSH2 0x8CB SWAP2 SWAP1 PUSH2 0xE93 JUMP JUMPDEST SWAP3 POP POP DUP2 SWAP1 SSTORE POP JUMPDEST JUMP JUMPDEST PUSH1 0x0 DUP1 SLOAD SWAP1 PUSH2 0x100 EXP SWAP1 DIV PUSH20 0xFFFFFFFFFFFFFFFFFFFFFFFFFFFFFFFFFFFFFFFF AND DUP2 JUMP JUMPDEST PUSH1 0x0 DUP1 REVERT JUMPDEST PUSH1 0x0 DUP1 REVERT JUMPDEST PUSH1 0x0 PUSH20 0xFFFFFFFFFFFFFFFFFFFFFFFFFFFFFFFFFFFFFFFF DUP3 AND SWAP1 POP SWAP2 SWAP1 POP JUMP JUMPDEST PUSH1 0x0 PUSH2 0x92E DUP3 PUSH2 0x903 JUMP JUMPDEST SWAP1 POP SWAP2 SWAP1 POP JUMP JUMPDEST PUSH2 0x93E DUP2 PUSH2 0x923 JUMP JUMPDEST DUP2 EQ PUSH2 0x949 JUMPI PUSH1 0x0 DUP1 REVERT JUMPDEST POP JUMP JUMPDEST PUSH1 0x0 DUP2 CALLDATALOAD SWAP1 POP PUSH2 0x95B DUP2 PUSH2 0x935 JUMP JUMPDEST SWAP3 SWAP2 POP POP JUMP JUMPDEST PUSH1 0x0 PUSH1 0x20 DUP3 DUP5 SUB SLT ISZERO PUSH2 0x977 JUMPI PUSH2 0x976 PUSH2 0x8F9 JUMP JUMPDEST JUMPDEST PUSH1 0x0 PUSH2 0x985 DUP5 DUP3 DUP6 ADD PUSH2 0x94C JUMP JUMPDEST SWAP2 POP POP SWAP3 SWAP2 POP POP JUMP JUMPDEST PUSH1 0x0 DUP2 SWAP1 POP SWAP2 SWAP1 POP JUMP JUMPDEST PUSH2 0x9A1 DUP2 PUSH2 0x98E JUMP JUMPDEST DUP3 MSTORE POP POP JUMP JUMPDEST PUSH1 0x0 PUSH1 0x20 DUP3 ADD SWAP1 POP PUSH2 0x9BC PUSH1 0x0 DUP4 ADD DUP5 PUSH2 0x998 JUMP JUMPDEST SWAP3 SWAP2 POP POP JUMP JUMPDEST PUSH2 0x9CB DUP2 PUSH2 0x98E JUMP JUMPDEST DUP2 EQ PUSH2 0x9D6 JUMPI PUSH1 0x0 DUP1 REVERT JUMPDEST POP JUMP JUMPDEST PUSH1 0x0 DUP2 CALLDATALOAD SWAP1 POP PUSH2 0x9E8 DUP2 PUSH2 0x9C2 JUMP JUMPDEST SWAP3 SWAP2 POP POP JUMP JUMPDEST PUSH1 0x0 PUSH1 0x20 DUP3 DUP5 SUB SLT ISZERO PUSH2 0xA04 JUMPI PUSH2 0xA03 PUSH2 0x8F9 JUMP JUMPDEST JUMPDEST PUSH1 0x0 PUSH2 0xA12 DUP5 DUP3 DUP6 ADD PUSH2 0x9D9 JUMP JUMPDEST SWAP2 POP POP SWAP3 SWAP2 POP POP JUMP JUMPDEST PUSH1 0x0 DUP1 REVERT JUMPDEST PUSH1 0x0 DUP1 REVERT JUMPDEST PUSH1 0x0 DUP1 REVERT JUMPDEST PUSH1 0x0 DUP1 DUP4 PUSH1 0x1F DUP5 ADD SLT PUSH2 0xA40 JUMPI PUSH2 0xA3F PUSH2 0xA1B JUMP JUMPDEST JUMPDEST DUP3 CALLDATALOAD SWAP1 POP PUSH8 0xFFFFFFFFFFFFFFFF DUP2 GT ISZERO PUSH2 0xA5D JUMPI PUSH2 0xA5C PUSH2 0xA20 JUMP JUMPDEST JUMPDEST PUSH1 0x20 DUP4 ADD SWAP2 POP DUP4 PUSH1 0x1 DUP3 MUL DUP4 ADD GT ISZERO PUSH2 0xA79 JUMPI PUSH2 0xA78 PUSH2 0xA25 JUMP JUMPDEST JUMPDEST SWAP3 POP SWAP3 SWAP1 POP JUMP JUMPDEST PUSH1 0x0 DUP1 PUSH1 0x0 PUSH1 0x40 DUP5 DUP7 SUB SLT ISZERO PUSH2 0xA99 JUMPI PUSH2 0xA98 PUSH2 0x8F9 JUMP JUMPDEST JUMPDEST PUSH1 0x0 PUSH2 0xAA7 DUP7 DUP3 DUP8 ADD PUSH2 0x9D9 JUMP JUMPDEST SWAP4 POP POP PUSH1 0x20 DUP5 ADD CALLDATALOAD PUSH8 0xFFFFFFFFFFFFFFFF DUP2 GT ISZERO PUSH2 0xAC8 JUMPI PUSH2 0xAC7 PUSH2 0x8FE JUMP JUMPDEST JUMPDEST PUSH2 0xAD4 DUP7 DUP3 DUP8 ADD PUSH2 0xA2A JUMP JUMPDEST SWAP3 POP SWAP3 POP POP SWAP3 POP SWAP3 POP SWAP3 JUMP JUMPDEST PUSH1 0x0 DUP2 SWAP1 POP SWAP2 SWAP1 POP JUMP JUMPDEST PUSH1 0x0 PUSH2 0xB05 PUSH2 0xB00 PUSH2 0xAFB DUP5 PUSH2 0x903 JUMP JUMPDEST PUSH2 0xAE0 JUMP JUMPDEST PUSH2 0x903 JUMP JUMPDEST SWAP1 POP SWAP2 SWAP1 POP JUMP JUMPDEST PUSH1 0x0 PUSH2 0xB17 DUP3 PUSH2 0xAEA JUMP JUMPDEST SWAP1 POP SWAP2 SWAP1 POP JUMP JUMPDEST PUSH1 0x0 PUSH2 0xB29 DUP3 PUSH2 0xB0C JUMP JUMPDEST SWAP1 POP SWAP2 SWAP1 POP JUMP JUMPDEST PUSH2 0xB39 DUP2 PUSH2 0xB1E JUMP JUMPDEST DUP3 MSTORE POP POP JUMP JUMPDEST PUSH1 0x0 PUSH1 0x20 DUP3 ADD SWAP1 POP PUSH2 0xB54 PUSH1 0x0 DUP4 ADD DUP5 PUSH2 0xB30 JUMP JUMPDEST SWAP3 SWAP2 POP POP JUMP JUMPDEST PUSH2 0xB63 DUP2 PUSH2 0x923 JUMP JUMPDEST DUP3 MSTORE POP POP JUMP JUMPDEST PUSH1 0x0 PUSH1 0x40 DUP3 ADD SWAP1 POP PUSH2 0xB7E PUSH1 0x0 DUP4 ADD DUP6 PUSH2 0xB5A JUMP JUMPDEST PUSH2 0xB8B PUSH1 0x20 DUP4 ADD DUP5 PUSH2 0x998 JUMP JUMPDEST SWAP4 SWAP3 POP POP POP JUMP JUMPDEST PUSH1 0x0 DUP2 ISZERO ISZERO SWAP1 POP SWAP2 SWAP1 POP JUMP JUMPDEST PUSH2 0xBA7 DUP2 PUSH2 0xB92 JUMP JUMPDEST DUP2 EQ PUSH2 0xBB2 JUMPI PUSH1 0x0 DUP1 REVERT JUMPDEST POP JUMP JUMPDEST PUSH1 0x0 DUP2 MLOAD SWAP1 POP PUSH2 0xBC4 DUP2 PUSH2 0xB9E JUMP JUMPDEST SWAP3 SWAP2 POP POP JUMP JUMPDEST PUSH1 0x0 PUSH1 0x20 DUP3 DUP5 SUB SLT ISZERO PUSH2 0xBE0 JUMPI PUSH2 0xBDF PUSH2 0x8F9 JUMP JUMPDEST JUMPDEST PUSH1 0x0 PUSH2 0xBEE DUP5 DUP3 DUP6 ADD PUSH2 0xBB5 JUMP JUMPDEST SWAP2 POP POP SWAP3 SWAP2 POP POP JUMP JUMPDEST PUSH32 0x4E487B7100000000000000000000000000000000000000000000000000000000 PUSH1 0x0 MSTORE PUSH1 0x11 PUSH1 0x4 MSTORE PUSH1 0x24 PUSH1 0x0 REVERT JUMPDEST PUSH1 0x0 PUSH2 0xC31 DUP3 PUSH2 0x98E JUMP JUMPDEST SWAP2 POP PUSH2 0xC3C DUP4 PUSH2 0x98E JUMP JUMPDEST SWAP3 POP DUP3 DUP3 SUB SWAP1 POP DUP2 DUP2 GT ISZERO PUSH2 0xC54 JUMPI PUSH2 0xC53 PUSH2 0xBF7 JUMP JUMPDEST JUMPDEST SWAP3 SWAP2 POP POP JUMP JUMPDEST PUSH1 0x0 DUP2 SWAP1 POP SWAP2 SWAP1 POP JUMP JUMPDEST PUSH1 0x0 PUSH2 0xC7F PUSH2 0xC7A PUSH2 0xC75 DUP5 PUSH2 0xC5A JUMP JUMPDEST PUSH2 0xAE0 JUMP JUMPDEST PUSH2 0x98E JUMP JUMPDEST SWAP1 POP SWAP2 SWAP1 POP JUMP JUMPDEST PUSH2 0xC8F DUP2 PUSH2 0xC64 JUMP JUMPDEST DUP3 MSTORE POP POP JUMP JUMPDEST PUSH1 0x0 PUSH1 0x40 DUP3 ADD SWAP1 POP PUSH2 0xCAA PUSH1 0x0 DUP4 ADD DUP6 PUSH2 0xB5A JUMP JUMPDEST PUSH2 0xCB7 PUSH1 0x20 DUP4 ADD DUP5 PUSH2 0xC86 JUMP JUMPDEST SWAP4 SWAP3 POP POP POP JUMP JUMPDEST PUSH1 0x0 PUSH1 0x20 DUP3 ADD SWAP1 POP PUSH2 0xCD3 PUSH1 0x0 DUP4 ADD DUP5 PUSH2 0xB5A JUMP JUMPDEST SWAP3 SWAP2 POP POP JUMP JUMPDEST PUSH1 0x0 DUP2 MLOAD SWAP1 POP PUSH2 0xCE8 DUP2 PUSH2 0x9C2 JUMP JUMPDEST SWAP3 SWAP2 POP POP JUMP JUMPDEST PUSH1 0x0 PUSH1 0x20 DUP3 DUP5 SUB SLT ISZERO PUSH2 0xD04 JUMPI PUSH2 0xD03 PUSH2 0x8F9 JUMP JUMPDEST JUMPDEST PUSH1 0x0 PUSH2 0xD12 DUP5 DUP3 DUP6 ADD PUSH2 0xCD9 JUMP JUMPDEST SWAP2 POP POP SWAP3 SWAP2 POP POP JUMP JUMPDEST PUSH1 0x0 DUP3 DUP3 MSTORE PUSH1 0x20 DUP3 ADD SWAP1 POP SWAP3 SWAP2 POP POP JUMP JUMPDEST PUSH32 0x4E6F7420656E6F75676820746F6B656E7320696E20706F6F6C00000000000000 PUSH1 0x0 DUP3 ADD MSTORE POP JUMP JUMPDEST PUSH1 0x0 PUSH2 0xD62 PUSH1 0x19 DUP4 PUSH2 0xD1B JUMP JUMPDEST SWAP2 POP PUSH2 0xD6D DUP3 PUSH2 0xD2C JUMP JUMPDEST PUSH1 0x20 DUP3 ADD SWAP1 POP SWAP2 SWAP1 POP JUMP JUMPDEST PUSH1 0x0 PUSH1 0x20 DUP3 ADD SWAP1 POP DUP2 DUP2 SUB PUSH1 0x0 DUP4 ADD MSTORE PUSH2 0xD91 DUP2 PUSH2 0xD55 JUMP JUMPDEST SWAP1 POP SWAP2 SWAP1 POP JUMP JUMPDEST PUSH1 0x0 DUP2 SWAP1 POP SWAP3 SWAP2 POP POP JUMP JUMPDEST DUP3 DUP2 DUP4 CALLDATACOPY PUSH1 0x0 DUP4 DUP4 ADD MSTORE POP POP POP JUMP JUMPDEST PUSH1 0x0 PUSH2 0xDBE DUP4 DUP6 PUSH2 0xD98 JUMP JUMPDEST SWAP4 POP PUSH2 0xDCB DUP4 DUP6 DUP5 PUSH2 0xDA3 JUMP JUMPDEST DUP3 DUP5 ADD SWAP1 POP SWAP4 SWAP3 POP POP POP JUMP JUMPDEST PUSH1 0x0 PUSH2 0xDE4 DUP3 DUP5 DUP7 PUSH2 0xDB2 JUMP JUMPDEST SWAP2 POP DUP2 SWAP1 POP SWAP4 SWAP3 POP POP POP JUMP JUMPDEST PUSH32 0x466C617368206C6F616E206861736E2774206265656E2070616964206261636B PUSH1 0x0 DUP3 ADD MSTORE POP JUMP JUMPDEST PUSH1 0x0 PUSH2 0xE26 PUSH1 0x20 DUP4 PUSH2 0xD1B JUMP JUMPDEST SWAP2 POP PUSH2 0xE31 DUP3 PUSH2 0xDF0 JUMP JUMPDEST PUSH1 0x20 DUP3 ADD SWAP1 POP SWAP2 SWAP1 POP JUMP JUMPDEST PUSH1 0x0 PUSH1 0x20 DUP3 ADD SWAP1 POP DUP2 DUP2 SUB PUSH1 0x0 DUP4 ADD MSTORE PUSH2 0xE55 DUP2 PUSH2 0xE19 JUMP JUMPDEST SWAP1 POP SWAP2 SWAP1 POP JUMP JUMPDEST PUSH1 0x0 PUSH1 0x60 DUP3 ADD SWAP1 POP PUSH2 0xE71 PUSH1 0x0 DUP4 ADD DUP7 PUSH2 0xB5A JUMP JUMPDEST PUSH2 0xE7E PUSH1 0x20 DUP4 ADD DUP6 PUSH2 0xB5A JUMP JUMPDEST PUSH2 0xE8B PUSH1 0x40 DUP4 ADD DUP5 PUSH2 0x998 JUMP JUMPDEST SWAP5 SWAP4 POP POP POP POP JUMP JUMPDEST PUSH1 0x0 PUSH2 0xE9E DUP3 PUSH2 0x98E JUMP JUMPDEST SWAP2 POP PUSH2 0xEA9 DUP4 PUSH2 0x98E JUMP JUMPDEST SWAP3 POP DUP3 DUP3 ADD SWAP1 POP DUP1 DUP3 GT ISZERO PUSH2 0xEC1 JUMPI PUSH2 0xEC0 PUSH2 0xBF7 JUMP JUMPDEST JUMPDEST SWAP3 SWAP2 POP POP JUMP INVALID LOG2 PUSH5 0x6970667358 0x22 SLT KECCAK256 PUSH22 0x38FC04F75833B0EB88D6A85886574787E004E850FC5F PUSH4 0x29417023 SSTORE 0xBB KECCAK256 PUSH25 0x64736F6C634300081200336080604052683635C9ADC5DEA000 STOP PUSH1 0x2 SSTORE CALLVALUE DUP1 ISZERO PUSH2 0x1D JUMPI PUSH1 0x0 DUP1 REVERT JUMPDEST POP PUSH1 0x2 SLOAD PUSH1 0x0 DUP1 CALLER PUSH20 0xFFFFFFFFFFFFFFFFFFFFFFFFFFFFFFFFFFFFFFFF AND PUSH20 0xFFFFFFFFFFFFFFFFFFFFFFFFFFFFFFFFFFFFFFFF AND DUP2 MSTORE PUSH1 0x20 ADD SWAP1 DUP2 MSTORE PUSH1 0x20 ADD PUSH1 0x0 KECCAK256 DUP2 SWAP1 SSTORE POP PUSH2 0xFC6 DUP1 PUSH2 0x72 PUSH1 0x0 CODECOPY PUSH1 0x0 RETURN INVALID PUSH1 0x80 PUSH1 0x40 MSTORE CALLVALUE DUP1 ISZERO PUSH2 0x10 JUMPI PUSH1 0x0 DUP1 REVERT JUMPDEST POP PUSH1 0x4 CALLDATASIZE LT PUSH2 0x9E JUMPI PUSH1 0x0 CALLDATALOAD PUSH1 0xE0 SHR DUP1 PUSH4 0x478B36D8 GT PUSH2 0x66 JUMPI DUP1 PUSH4 0x478B36D8 EQ PUSH2 0x15D JUMPI DUP1 PUSH4 0x70A08231 EQ PUSH2 0x179 JUMPI DUP1 PUSH4 0x95D89B41 EQ PUSH2 0x1A9 JUMPI DUP1 PUSH4 0xA9059CBB EQ PUSH2 0x1C7 JUMPI DUP1 PUSH4 0xDD62ED3E EQ PUSH2 0x1F7 JUMPI PUSH2 0x9E JUMP JUMPDEST DUP1 PUSH4 0x6FDDE03 EQ PUSH2 0xA3 JUMPI DUP1 PUSH4 0x95EA7B3 EQ PUSH2 0xC1 JUMPI DUP1 PUSH4 0x18160DDD EQ PUSH2 0xF1 JUMPI DUP1 PUSH4 0x23B872DD EQ PUSH2 0x10F JUMPI DUP1 PUSH4 0x313CE567 EQ PUSH2 0x13F JUMPI JUMPDEST PUSH1 0x0 DUP1 REVERT JUMPDEST PUSH2 0xAB PUSH2 0x227 JUMP JUMPDEST PUSH1 0x40 MLOAD PUSH2 0xB8 SWAP2 SWAP1 PUSH2 0xB71 JUMP JUMPDEST PUSH1 0x40 MLOAD DUP1 SWAP2 SUB SWAP1 RETURN JUMPDEST PUSH2 0xDB PUSH1 0x4 DUP1 CALLDATASIZE SUB DUP2 ADD SWAP1 PUSH2 0xD6 SWAP2 SWAP1 PUSH2 0xC31 JUMP JUMPDEST PUSH2 0x260 JUMP JUMPDEST PUSH1 0x40 MLOAD PUSH2 0xE8 SWAP2 SWAP1 PUSH2 0xC8C JUMP JUMPDEST PUSH1 0x40 MLOAD DUP1 SWAP2 SUB SWAP1 RETURN JUMPDEST PUSH2 0xF9 PUSH2 0x352 JUMP JUMPDEST PUSH1 0x40 MLOAD PUSH2 0x106 SWAP2 SWAP1 PUSH2 0xCB6 JUMP JUMPDEST PUSH1 0x40 MLOAD DUP1 SWAP2 SUB SWAP1 RETURN JUMPDEST PUSH2 0x129 PUSH1 0x4 DUP1 CALLDATASIZE SUB DUP2 ADD SWAP1 PUSH2 0x124 SWAP2 SWAP1 PUSH2 0xCD1 JUMP JUMPDEST PUSH2 0x35C JUMP JUMPDEST PUSH1 0x40 MLOAD PUSH2 0x136 SWAP2 SWAP1 PUSH2 0xC8C JUMP JUMPDEST PUSH1 0x40 MLOAD DUP1 SWAP2 SUB SWAP1 RETURN JUMPDEST PUSH2 0x147 PUSH2 0x6C2 JUMP JUMPDEST PUSH1 0x40 MLOAD PUSH2 0x154 SWAP2 SWAP1 PUSH2 0xD40 JUMP JUMPDEST PUSH1 0x40 MLOAD DUP1 SWAP2 SUB SWAP1 RETURN JUMPDEST PUSH2 0x177 PUSH1 0x4 DUP1 CALLDATASIZE SUB DUP2 ADD SWAP1 PUSH2 0x172 SWAP2 SWAP1 PUSH2 0xDC0 JUMP JUMPDEST PUSH2 0x6C7 JUMP JUMPDEST STOP JUMPDEST PUSH2 0x193 PUSH1 0x4 DUP1 CALLDATASIZE SUB DUP2 ADD SWAP1 PUSH2 0x18E SWAP2 SWAP1 PUSH2 0xE34 JUMP JUMPDEST PUSH2 0x805 JUMP JUMPDEST PUSH1 0x40 MLOAD PUSH2 0x1A0 SWAP2 SWAP1 PUSH2 0xCB6 JUMP JUMPDEST PUSH1 0x40 MLOAD DUP1 SWAP2 SUB SWAP1 RETURN JUMPDEST PUSH2 0x1B1 PUSH2 0x84D JUMP JUMPDEST PUSH1 0x40 MLOAD PUSH2 0x1BE SWAP2 SWAP1 PUSH2 0xB71 JUMP JUMPDEST PUSH1 0x40 MLOAD DUP1 SWAP2 SUB SWAP1 RETURN JUMPDEST PUSH2 0x1E1 PUSH1 0x4 DUP1 CALLDATASIZE SUB DUP2 ADD SWAP1 PUSH2 0x1DC SWAP2 SWAP1 PUSH2 0xC31 JUMP JUMPDEST PUSH2 0x886 JUMP JUMPDEST PUSH1 0x40 MLOAD PUSH2 0x1EE SWAP2 SWAP1 PUSH2 0xC8C JUMP JUMPDEST PUSH1 0x40 MLOAD DUP1 SWAP2 SUB SWAP1 RETURN JUMPDEST PUSH2 0x211 PUSH1 0x4 DUP1 CALLDATASIZE SUB DUP2 ADD SWAP1 PUSH2 0x20C SWAP2 SWAP1 PUSH2 0xE61 JUMP JUMPDEST PUSH2 0xA5A JUMP JUMPDEST PUSH1 0x40 MLOAD PUSH2 0x21E SWAP2 SWAP1 PUSH2 0xCB6 JUMP JUMPDEST PUSH1 0x40 MLOAD DUP1 SWAP2 SUB SWAP1 RETURN JUMPDEST PUSH1 0x40 MLOAD DUP1 PUSH1 0x40 ADD PUSH1 0x40 MSTORE DUP1 PUSH1 0x5 DUP2 MSTORE PUSH1 0x20 ADD PUSH32 0x4552433230000000000000000000000000000000000000000000000000000000 DUP2 MSTORE POP DUP2 JUMP JUMPDEST PUSH1 0x0 DUP2 PUSH1 0x1 PUSH1 0x0 CALLER PUSH20 0xFFFFFFFFFFFFFFFFFFFFFFFFFFFFFFFFFFFFFFFF AND PUSH20 0xFFFFFFFFFFFFFFFFFFFFFFFFFFFFFFFFFFFFFFFF AND DUP2 MSTORE PUSH1 0x20 ADD SWAP1 DUP2 MSTORE PUSH1 0x20 ADD PUSH1 0x0 KECCAK256 PUSH1 0x0 DUP6 PUSH20 0xFFFFFFFFFFFFFFFFFFFFFFFFFFFFFFFFFFFFFFFF AND PUSH20 0xFFFFFFFFFFFFFFFFFFFFFFFFFFFFFFFFFFFFFFFF AND DUP2 MSTORE PUSH1 0x20 ADD SWAP1 DUP2 MSTORE PUSH1 0x20 ADD PUSH1 0x0 KECCAK256 DUP2 SWAP1 SSTORE POP DUP3 PUSH20 0xFFFFFFFFFFFFFFFFFFFFFFFFFFFFFFFFFFFFFFFF AND CALLER PUSH20 0xFFFFFFFFFFFFFFFFFFFFFFFFFFFFFFFFFFFFFFFF AND PUSH32 0x8C5BE1E5EBEC7D5BD14F71427D1E84F3DD0314C0F7B2291E5B200AC8C7C3B925 DUP5 PUSH1 0x40 MLOAD PUSH2 0x340 SWAP2 SWAP1 PUSH2 0xCB6 JUMP JUMPDEST PUSH1 0x40 MLOAD DUP1 SWAP2 SUB SWAP1 LOG3 PUSH1 0x1 SWAP1 POP SWAP3 SWAP2 POP POP JUMP JUMPDEST PUSH1 0x0 PUSH1 0x2 SLOAD SWAP1 POP SWAP1 JUMP JUMPDEST PUSH1 0x0 DUP1 PUSH1 0x0 DUP6 PUSH20 0xFFFFFFFFFFFFFFFFFFFFFFFFFFFFFFFFFFFFFFFF AND PUSH20 0xFFFFFFFFFFFFFFFFFFFFFFFFFFFFFFFFFFFFFFFF AND DUP2 MSTORE PUSH1 0x20 ADD SWAP1 DUP2 MSTORE PUSH1 0x20 ADD PUSH1 0x0 KECCAK256 SLOAD DUP3 GT ISZERO PUSH2 0x3A9 JUMPI PUSH1 0x0 DUP1 REVERT JUMPDEST PUSH1 0x1 PUSH1 0x0 DUP6 PUSH20 0xFFFFFFFFFFFFFFFFFFFFFFFFFFFFFFFFFFFFFFFF AND PUSH20 0xFFFFFFFFFFFFFFFFFFFFFFFFFFFFFFFFFFFFFFFF AND DUP2 MSTORE PUSH1 0x20 ADD SWAP1 DUP2 MSTORE PUSH1 0x20 ADD PUSH1 0x0 KECCAK256 PUSH1 0x0 CALLER PUSH20 0xFFFFFFFFFFFFFFFFFFFFFFFFFFFFFFFFFFFFFFFF AND PUSH20 0xFFFFFFFFFFFFFFFFFFFFFFFFFFFFFFFFFFFFFFFF AND DUP2 MSTORE PUSH1 0x20 ADD SWAP1 DUP2 MSTORE PUSH1 0x20 ADD PUSH1 0x0 KECCAK256 SLOAD DUP3 GT ISZERO PUSH2 0x432 JUMPI PUSH1 0x0 DUP1 REVERT JUMPDEST DUP2 PUSH1 0x0 DUP1 DUP7 PUSH20 0xFFFFFFFFFFFFFFFFFFFFFFFFFFFFFFFFFFFFFFFF AND PUSH20 0xFFFFFFFFFFFFFFFFFFFFFFFFFFFFFFFFFFFFFFFF AND DUP2 MSTORE PUSH1 0x20 ADD SWAP1 DUP2 MSTORE PUSH1 0x20 ADD PUSH1 0x0 KECCAK256 SLOAD PUSH2 0x47C SWAP2 SWAP1 PUSH2 0xED0 JUMP JUMPDEST PUSH1 0x0 DUP1 DUP7 PUSH20 0xFFFFFFFFFFFFFFFFFFFFFFFFFFFFFFFFFFFFFFFF AND PUSH20 0xFFFFFFFFFFFFFFFFFFFFFFFFFFFFFFFFFFFFFFFF AND DUP2 MSTORE PUSH1 0x20 ADD SWAP1 DUP2 MSTORE PUSH1 0x20 ADD PUSH1 0x0 KECCAK256 DUP2 SWAP1 SSTORE POP DUP2 PUSH1 0x1 PUSH1 0x0 DUP7 PUSH20 0xFFFFFFFFFFFFFFFFFFFFFFFFFFFFFFFFFFFFFFFF AND PUSH20 0xFFFFFFFFFFFFFFFFFFFFFFFFFFFFFFFFFFFFFFFF AND DUP2 MSTORE PUSH1 0x20 ADD SWAP1 DUP2 MSTORE PUSH1 0x20 ADD PUSH1 0x0 KECCAK256 PUSH1 0x0 CALLER PUSH20 0xFFFFFFFFFFFFFFFFFFFFFFFFFFFFFFFFFFFFFFFF AND PUSH20 0xFFFFFFFFFFFFFFFFFFFFFFFFFFFFFFFFFFFFFFFF AND DUP2 MSTORE PUSH1 0x20 ADD SWAP1 DUP2 MSTORE PUSH1 0x20 ADD PUSH1 0x0 KECCAK256 SLOAD PUSH2 0x546 SWAP2 SWAP1 PUSH2 0xED0 JUMP JUMPDEST PUSH1 0x1 PUSH1 0x0 DUP7 PUSH20 0xFFFFFFFFFFFFFFFFFFFFFFFFFFFFFFFFFFFFFFFF AND PUSH20 0xFFFFFFFFFFFFFFFFFFFFFFFFFFFFFFFFFFFFFFFF AND DUP2 MSTORE PUSH1 0x20 ADD SWAP1 DUP2 MSTORE PUSH1 0x20 ADD PUSH1 0x0 KECCAK256 PUSH1 0x0 CALLER PUSH20 0xFFFFFFFFFFFFFFFFFFFFFFFFFFFFFFFFFFFFFFFF AND PUSH20 0xFFFFFFFFFFFFFFFFFFFFFFFFFFFFFFFFFFFFFFFF AND DUP2 MSTORE PUSH1 0x20 ADD SWAP1 DUP2 MSTORE PUSH1 0x20 ADD PUSH1 0x0 KECCAK256 DUP2 SWAP1 SSTORE POP DUP2 PUSH1 0x0 DUP1 DUP6 PUSH20 0xFFFFFFFFFFFFFFFFFFFFFFFFFFFFFFFFFFFFFFFF AND PUSH20 0xFFFFFFFFFFFFFFFFFFFFFFFFFFFFFFFFFFFFFFFF AND DUP2 MSTORE PUSH1 0x20 ADD SWAP1 DUP2 MSTORE PUSH1 0x20 ADD PUSH1 0x0 KECCAK256 SLOAD PUSH2 0x610 SWAP2 SWAP1 PUSH2 0xF04 JUMP JUMPDEST PUSH1 0x0 DUP1 DUP6 PUSH20 0xFFFFFFFFFFFFFFFFFFFFFFFFFFFFFFFFFFFFFFFF AND PUSH20 0xFFFFFFFFFFFFFFFFFFFFFFFFFFFFFFFFFFFFFFFF AND DUP2 MSTORE PUSH1 0x20 ADD SWAP1 DUP2 MSTORE PUSH1 0x20 ADD PUSH1 0x0 KECCAK256 DUP2 SWAP1 SSTORE POP DUP3 PUSH20 0xFFFFFFFFFFFFFFFFFFFFFFFFFFFFFFFFFFFFFFFF AND DUP5 PUSH20 0xFFFFFFFFFFFFFFFFFFFFFFFFFFFFFFFFFFFFFFFF AND PUSH32 0xDDF252AD1BE2C89B69C2B068FC378DAA952BA7F163C4A11628F55A4DF523B3EF DUP5 PUSH1 0x40 MLOAD PUSH2 0x6AF SWAP2 SWAP1 PUSH2 0xCB6 JUMP JUMPDEST PUSH1 0x40 MLOAD DUP1 SWAP2 SUB SWAP1 LOG3 PUSH1 0x1 SWAP1 POP SWAP4 SWAP3 POP POP POP JUMP JUMPDEST PUSH1 0x12 DUP2 JUMP JUMPDEST DUP3 PUSH1 0x1 PUSH1 0x0 CALLER PUSH20 0xFFFFFFFFFFFFFFFFFFFFFFFFFFFFFFFFFFFFFFFF AND PUSH20 0xFFFFFFFFFFFFFFFFFFFFFFFFFFFFFFFFFFFFFFFF AND DUP2 MSTORE PUSH1 0x20 ADD SWAP1 DUP2 MSTORE PUSH1 0x20 ADD PUSH1 0x0 KECCAK256 PUSH1 0x0 DUP7 PUSH20 0xFFFFFFFFFFFFFFFFFFFFFFFFFFFFFFFFFFFFFFFF AND PUSH20 0xFFFFFFFFFFFFFFFFFFFFFFFFFFFFFFFFFFFFFFFF AND DUP2 MSTORE PUSH1 0x20 ADD SWAP1 DUP2 MSTORE PUSH1 0x20 ADD PUSH1 0x0 KECCAK256 DUP2 SWAP1 SSTORE POP PUSH1 0x0 DUP1 DUP6 PUSH20 0xFFFFFFFFFFFFFFFFFFFFFFFFFFFFFFFFFFFFFFFF AND DUP5 DUP5 PUSH1 0x40 MLOAD PUSH2 0x772 SWAP3 SWAP2 SWAP1 PUSH2 0xF77 JUMP JUMPDEST PUSH1 0x0 PUSH1 0x40 MLOAD DUP1 DUP4 SUB DUP2 PUSH1 0x0 DUP7 GAS CALL SWAP2 POP POP RETURNDATASIZE DUP1 PUSH1 0x0 DUP2 EQ PUSH2 0x7AF JUMPI PUSH1 0x40 MLOAD SWAP2 POP PUSH1 0x1F NOT PUSH1 0x3F RETURNDATASIZE ADD AND DUP3 ADD PUSH1 0x40 MSTORE RETURNDATASIZE DUP3 MSTORE RETURNDATASIZE PUSH1 0x0 PUSH1 0x20 DUP5 ADD RETURNDATACOPY PUSH2 0x7B4 JUMP JUMPDEST PUSH1 0x60 SWAP2 POP JUMPDEST POP SWAP2 POP SWAP2 POP DUP2 DUP2 SWAP1 PUSH2 0x7FC JUMPI PUSH1 0x40 MLOAD PUSH32 0x8C379A000000000000000000000000000000000000000000000000000000000 DUP2 MSTORE PUSH1 0x4 ADD PUSH2 0x7F3 SWAP2 SWAP1 PUSH2 0xB71 JUMP JUMPDEST PUSH1 0x40 MLOAD DUP1 SWAP2 SUB SWAP1 REVERT JUMPDEST POP POP POP POP POP POP POP JUMP JUMPDEST PUSH1 0x0 DUP1 PUSH1 0x0 DUP4 PUSH20 0xFFFFFFFFFFFFFFFFFFFFFFFFFFFFFFFFFFFFFFFF AND PUSH20 0xFFFFFFFFFFFFFFFFFFFFFFFFFFFFFFFFFFFFFFFF AND DUP2 MSTORE PUSH1 0x20 ADD SWAP1 DUP2 MSTORE PUSH1 0x20 ADD PUSH1 0x0 KECCAK256 SLOAD SWAP1 POP SWAP2 SWAP1 POP JUMP JUMPDEST PUSH1 0x40 MLOAD DUP1 PUSH1 0x40 ADD PUSH1 0x40 MSTORE DUP1 PUSH1 0x3 DUP2 MSTORE PUSH1 0x20 ADD PUSH32 0x4552430000000000000000000000000000000000000000000000000000000000 DUP2 MSTORE POP DUP2 JUMP JUMPDEST PUSH1 0x0 DUP1 PUSH1 0x0 CALLER PUSH20 0xFFFFFFFFFFFFFFFFFFFFFFFFFFFFFFFFFFFFFFFF AND PUSH20 0xFFFFFFFFFFFFFFFFFFFFFFFFFFFFFFFFFFFFFFFF AND DUP2 MSTORE PUSH1 0x20 ADD SWAP1 DUP2 MSTORE PUSH1 0x20 ADD PUSH1 0x0 KECCAK256 SLOAD DUP3 GT ISZERO PUSH2 0x8D3 JUMPI PUSH1 0x0 DUP1 REVERT JUMPDEST DUP2 PUSH1 0x0 DUP1 CALLER PUSH20 0xFFFFFFFFFFFFFFFFFFFFFFFFFFFFFFFFFFFFFFFF AND PUSH20 0xFFFFFFFFFFFFFFFFFFFFFFFFFFFFFFFFFFFFFFFF AND DUP2 MSTORE PUSH1 0x20 ADD SWAP1 DUP2 MSTORE PUSH1 0x20 ADD PUSH1 0x0 KECCAK256 SLOAD PUSH2 0x91D SWAP2 SWAP1 PUSH2 0xED0 JUMP JUMPDEST PUSH1 0x0 DUP1 CALLER PUSH20 0xFFFFFFFFFFFFFFFFFFFFFFFFFFFFFFFFFFFFFFFF AND PUSH20 0xFFFFFFFFFFFFFFFFFFFFFFFFFFFFFFFFFFFFFFFF AND DUP2 MSTORE PUSH1 0x20 ADD SWAP1 DUP2 MSTORE PUSH1 0x20 ADD PUSH1 0x0 KECCAK256 DUP2 SWAP1 SSTORE POP DUP2 PUSH1 0x0 DUP1 DUP6 PUSH20 0xFFFFFFFFFFFFFFFFFFFFFFFFFFFFFFFFFFFFFFFF AND PUSH20 0xFFFFFFFFFFFFFFFFFFFFFFFFFFFFFFFFFFFFFFFF AND DUP2 MSTORE PUSH1 0x20 ADD SWAP1 DUP2 MSTORE PUSH1 0x20 ADD PUSH1 0x0 KECCAK256 SLOAD PUSH2 0x9A9 SWAP2 SWAP1 PUSH2 0xF04 JUMP JUMPDEST PUSH1 0x0 DUP1 DUP6 PUSH20 0xFFFFFFFFFFFFFFFFFFFFFFFFFFFFFFFFFFFFFFFF AND PUSH20 0xFFFFFFFFFFFFFFFFFFFFFFFFFFFFFFFFFFFFFFFF AND DUP2 MSTORE PUSH1 0x20 ADD SWAP1 DUP2 MSTORE PUSH1 0x20 ADD PUSH1 0x0 KECCAK256 DUP2 SWAP1 SSTORE POP DUP3 PUSH20 0xFFFFFFFFFFFFFFFFFFFFFFFFFFFFFFFFFFFFFFFF AND CALLER PUSH20 0xFFFFFFFFFFFFFFFFFFFFFFFFFFFFFFFFFFFFFFFF AND PUSH32 0xDDF252AD1BE2C89B69C2B068FC378DAA952BA7F163C4A11628F55A4DF523B3EF DUP5 PUSH1 0x40 MLOAD PUSH2 0xA48 SWAP2 SWAP1 PUSH2 0xCB6 JUMP JUMPDEST PUSH1 0x40 MLOAD DUP1 SWAP2 SUB SWAP1 LOG3 PUSH1 0x1 SWAP1 POP SWAP3 SWAP2 POP POP JUMP JUMPDEST PUSH1 0x0 PUSH1 0x1 PUSH1 0x0 DUP5 PUSH20 0xFFFFFFFFFFFFFFFFFFFFFFFFFFFFFFFFFFFFFFFF AND PUSH20 0xFFFFFFFFFFFFFFFFFFFFFFFFFFFFFFFFFFFFFFFF AND DUP2 MSTORE PUSH1 0x20 ADD SWAP1 DUP2 MSTORE PUSH1 0x20 ADD PUSH1 0x0 KECCAK256 PUSH1 0x0 DUP4 PUSH20 0xFFFFFFFFFFFFFFFFFFFFFFFFFFFFFFFFFFFFFFFF AND PUSH20 0xFFFFFFFFFFFFFFFFFFFFFFFFFFFFFFFFFFFFFFFF AND DUP2 MSTORE PUSH1 0x20 ADD SWAP1 DUP2 MSTORE PUSH1 0x20 ADD PUSH1 0x0 KECCAK256 SLOAD SWAP1 POP SWAP3 SWAP2 POP POP JUMP JUMPDEST PUSH1 0x0 DUP2 MLOAD SWAP1 POP SWAP2 SWAP1 POP JUMP JUMPDEST PUSH1 0x0 DUP3 DUP3 MSTORE PUSH1 0x20 DUP3 ADD SWAP1 POP SWAP3 SWAP2 POP POP JUMP JUMPDEST PUSH1 0x0 JUMPDEST DUP4 DUP2 LT ISZERO PUSH2 0xB1B JUMPI DUP1 DUP3 ADD MLOAD DUP2 DUP5 ADD MSTORE PUSH1 0x20 DUP2 ADD SWAP1 POP PUSH2 0xB00 JUMP JUMPDEST PUSH1 0x0 DUP5 DUP5 ADD MSTORE POP POP POP POP JUMP JUMPDEST PUSH1 0x0 PUSH1 0x1F NOT PUSH1 0x1F DUP4 ADD AND SWAP1 POP SWAP2 SWAP1 POP JUMP JUMPDEST PUSH1 0x0 PUSH2 0xB43 DUP3 PUSH2 0xAE1 JUMP JUMPDEST PUSH2 0xB4D DUP2 DUP6 PUSH2 0xAEC JUMP JUMPDEST SWAP4 POP PUSH2 0xB5D DUP2 DUP6 PUSH1 0x20 DUP7 ADD PUSH2 0xAFD JUMP JUMPDEST PUSH2 0xB66 DUP2 PUSH2 0xB27 JUMP JUMPDEST DUP5 ADD SWAP2 POP POP SWAP3 SWAP2 POP POP JUMP JUMPDEST PUSH1 0x0 PUSH1 0x20 DUP3 ADD SWAP1 POP DUP2 DUP2 SUB PUSH1 0x0 DUP4 ADD MSTORE PUSH2 0xB8B DUP2 DUP5 PUSH2 0xB38 JUMP JUMPDEST SWAP1 POP SWAP3 SWAP2 POP POP JUMP JUMPDEST PUSH1 0x0 DUP1 REVERT JUMPDEST PUSH1 0x0 DUP1 REVERT JUMPDEST PUSH1 0x0 PUSH20 0xFFFFFFFFFFFFFFFFFFFFFFFFFFFFFFFFFFFFFFFF DUP3 AND SWAP1 POP SWAP2 SWAP1 POP JUMP JUMPDEST PUSH1 0x0 PUSH2 0xBC8 DUP3 PUSH2 0xB9D JUMP JUMPDEST SWAP1 POP SWAP2 SWAP1 POP JUMP JUMPDEST PUSH2 0xBD8 DUP2 PUSH2 0xBBD JUMP JUMPDEST DUP2 EQ PUSH2 0xBE3 JUMPI PUSH1 0x0 DUP1 REVERT JUMPDEST POP JUMP JUMPDEST PUSH1 0x0 DUP2 CALLDATALOAD SWAP1 POP PUSH2 0xBF5 DUP2 PUSH2 0xBCF JUMP JUMPDEST SWAP3 SWAP2 POP POP JUMP JUMPDEST PUSH1 0x0 DUP2 SWAP1 POP SWAP2 SWAP1 POP JUMP JUMPDEST PUSH2 0xC0E DUP2 PUSH2 0xBFB JUMP JUMPDEST DUP2 EQ PUSH2 0xC19 JUMPI PUSH1 0x0 DUP1 REVERT JUMPDEST POP JUMP JUMPDEST PUSH1 0x0 DUP2 CALLDATALOAD SWAP1 POP PUSH2 0xC2B DUP2 PUSH2 0xC05 JUMP JUMPDEST SWAP3 SWAP2 POP POP JUMP JUMPDEST PUSH1 0x0 DUP1 PUSH1 0x40 DUP4 DUP6 SUB SLT ISZERO PUSH2 0xC48 JUMPI PUSH2 0xC47 PUSH2 0xB93 JUMP JUMPDEST JUMPDEST PUSH1 0x0 PUSH2 0xC56 DUP6 DUP3 DUP7 ADD PUSH2 0xBE6 JUMP JUMPDEST SWAP3 POP POP PUSH1 0x20 PUSH2 0xC67 DUP6 DUP3 DUP7 ADD PUSH2 0xC1C JUMP JUMPDEST SWAP2 POP POP SWAP3 POP SWAP3 SWAP1 POP JUMP JUMPDEST PUSH1 0x0 DUP2 ISZERO ISZERO SWAP1 POP SWAP2 SWAP1 POP JUMP JUMPDEST PUSH2 0xC86 DUP2 PUSH2 0xC71 JUMP JUMPDEST DUP3 MSTORE POP POP JUMP JUMPDEST PUSH1 0x0 PUSH1 0x20 DUP3 ADD SWAP1 POP PUSH2 0xCA1 PUSH1 0x0 DUP4 ADD DUP5 PUSH2 0xC7D JUMP JUMPDEST SWAP3 SWAP2 POP POP JUMP JUMPDEST PUSH2 0xCB0 DUP2 PUSH2 0xBFB JUMP JUMPDEST DUP3 MSTORE POP POP JUMP JUMPDEST PUSH1 0x0 PUSH1 0x20 DUP3 ADD SWAP1 POP PUSH2 0xCCB PUSH1 0x0 DUP4 ADD DUP5 PUSH2 0xCA7 JUMP JUMPDEST SWAP3 SWAP2 POP POP JUMP JUMPDEST PUSH1 0x0 DUP1 PUSH1 0x0 PUSH1 0x60 DUP5 DUP7 SUB SLT ISZERO PUSH2 0xCEA JUMPI PUSH2 0xCE9 PUSH2 0xB93 JUMP JUMPDEST JUMPDEST PUSH1 0x0 PUSH2 0xCF8 DUP7 DUP3 DUP8 ADD PUSH2 0xBE6 JUMP JUMPDEST SWAP4 POP POP PUSH1 0x20 PUSH2 0xD09 DUP7 DUP3 DUP8 ADD PUSH2 0xBE6 JUMP JUMPDEST SWAP3 POP POP PUSH1 0x40 PUSH2 0xD1A DUP7 DUP3 DUP8 ADD PUSH2 0xC1C JUMP JUMPDEST SWAP2 POP POP SWAP3 POP SWAP3 POP SWAP3 JUMP JUMPDEST PUSH1 0x0 PUSH1 0xFF DUP3 AND SWAP1 POP SWAP2 SWAP1 POP JUMP JUMPDEST PUSH2 0xD3A DUP2 PUSH2 0xD24 JUMP JUMPDEST DUP3 MSTORE POP POP JUMP JUMPDEST PUSH1 0x0 PUSH1 0x20 DUP3 ADD SWAP1 POP PUSH2 0xD55 PUSH1 0x0 DUP4 ADD DUP5 PUSH2 0xD31 JUMP JUMPDEST SWAP3 SWAP2 POP POP JUMP JUMPDEST PUSH1 0x0 DUP1 REVERT JUMPDEST PUSH1 0x0 DUP1 REVERT JUMPDEST PUSH1 0x0 DUP1 REVERT JUMPDEST PUSH1 0x0 DUP1 DUP4 PUSH1 0x1F DUP5 ADD SLT PUSH2 0xD80 JUMPI PUSH2 0xD7F PUSH2 0xD5B JUMP JUMPDEST JUMPDEST DUP3 CALLDATALOAD SWAP1 POP PUSH8 0xFFFFFFFFFFFFFFFF DUP2 GT ISZERO PUSH2 0xD9D JUMPI PUSH2 0xD9C PUSH2 0xD60 JUMP JUMPDEST JUMPDEST PUSH1 0x20 DUP4 ADD SWAP2 POP DUP4 PUSH1 0x1 DUP3 MUL DUP4 ADD GT ISZERO PUSH2 0xDB9 JUMPI PUSH2 0xDB8 PUSH2 0xD65 JUMP JUMPDEST JUMPDEST SWAP3 POP SWAP3 SWAP1 POP JUMP JUMPDEST PUSH1 0x0 DUP1 PUSH1 0x0 DUP1 PUSH1 0x60 DUP6 DUP8 SUB SLT ISZERO PUSH2 0xDDA JUMPI PUSH2 0xDD9 PUSH2 0xB93 JUMP JUMPDEST JUMPDEST PUSH1 0x0 PUSH2 0xDE8 DUP8 DUP3 DUP9 ADD PUSH2 0xBE6 JUMP JUMPDEST SWAP5 POP POP PUSH1 0x20 PUSH2 0xDF9 DUP8 DUP3 DUP9 ADD PUSH2 0xC1C JUMP JUMPDEST SWAP4 POP POP PUSH1 0x40 DUP6 ADD CALLDATALOAD PUSH8 0xFFFFFFFFFFFFFFFF DUP2 GT ISZERO PUSH2 0xE1A JUMPI PUSH2 0xE19 PUSH2 0xB98 JUMP JUMPDEST JUMPDEST PUSH2 0xE26 DUP8 DUP3 DUP9 ADD PUSH2 0xD6A JUMP JUMPDEST SWAP3 POP SWAP3 POP POP SWAP3 SWAP6 SWAP2 SWAP5 POP SWAP3 POP JUMP JUMPDEST PUSH1 0x0 PUSH1 0x20 DUP3 DUP5 SUB SLT ISZERO PUSH2 0xE4A JUMPI PUSH2 0xE49 PUSH2 0xB93 JUMP JUMPDEST JUMPDEST PUSH1 0x0 PUSH2 0xE58 DUP5 DUP3 DUP6 ADD PUSH2 0xBE6 JUMP JUMPDEST SWAP2 POP POP SWAP3 SWAP2 POP POP JUMP JUMPDEST PUSH1 0x0 DUP1 PUSH1 0x40 DUP4 DUP6 SUB SLT ISZERO PUSH2 0xE78 JUMPI PUSH2 0xE77 PUSH2 0xB93 JUMP JUMPDEST JUMPDEST PUSH1 0x0 PUSH2 0xE86 DUP6 DUP3 DUP7 ADD PUSH2 0xBE6 JUMP JUMPDEST SWAP3 POP POP PUSH1 0x20 PUSH2 0xE97 DUP6 DUP3 DUP7 ADD PUSH2 0xBE6 JUMP JUMPDEST SWAP2 POP POP SWAP3 POP SWAP3 SWAP1 POP JUMP JUMPDEST PUSH32 0x4E487B7100000000000000000000000000000000000000000000000000000000 PUSH1 0x0 MSTORE PUSH1 0x11 PUSH1 0x4 MSTORE PUSH1 0x24 PUSH1 0x0 REVERT JUMPDEST PUSH1 0x0 PUSH2 0xEDB DUP3 PUSH2 0xBFB JUMP JUMPDEST SWAP2 POP PUSH2 0xEE6 DUP4 PUSH2 0xBFB JUMP JUMPDEST SWAP3 POP DUP3 DUP3 SUB SWAP1 POP DUP2 DUP2 GT ISZERO PUSH2 0xEFE JUMPI PUSH2 0xEFD PUSH2 0xEA1 JUMP JUMPDEST JUMPDEST SWAP3 SWAP2 POP POP JUMP JUMPDEST PUSH1 0x0 PUSH2 0xF0F DUP3 PUSH2 0xBFB JUMP JUMPDEST SWAP2 POP PUSH2 0xF1A DUP4 PUSH2 0xBFB JUMP JUMPDEST SWAP3 POP DUP3 DUP3 ADD SWAP1 POP DUP1 DUP3 GT ISZERO PUSH2 0xF32 JUMPI PUSH2 0xF31 PUSH2 0xEA1 JUMP JUMPDEST JUMPDEST SWAP3 SWAP2 POP POP JUMP JUMPDEST PUSH1 0x0 DUP2 SWAP1 POP SWAP3 SWAP2 POP POP JUMP JUMPDEST DUP3 DUP2 DUP4 CALLDATACOPY PUSH1 0x0 DUP4 DUP4 ADD MSTORE POP POP POP JUMP JUMPDEST PUSH1 0x0 PUSH2 0xF5E DUP4 DUP6 PUSH2 0xF38 JUMP JUMPDEST SWAP4 POP PUSH2 0xF6B DUP4 DUP6 DUP5 PUSH2 0xF43 JUMP JUMPDEST DUP3 DUP5 ADD SWAP1 POP SWAP4 SWAP3 POP POP POP JUMP JUMPDEST PUSH1 0x0 PUSH2 0xF84 DUP3 DUP5 DUP7 PUSH2 0xF52 JUMP JUMPDEST SWAP2 POP DUP2 SWAP1 POP SWAP4 SWAP3 POP POP POP JUMP INVALID LOG2 PUSH5 0x6970667358 0x22 SLT KECCAK256 EXTCODESIZE 0xE2 MSTORE ADD 0xAC 0x49 0xA9 RETURN KECCAK256 0xC5 0xE9 SWAP2 0x28 PUSH1 0x22 DUP4 0xBA DUP8 PUSH10 0xD132A02FE7A0739559E2 0xD9 PUSH18 0x4664736F6C63430008120033000000000000 "
				},
				"gasEstimates": {
					"creation": {
						"codeDepositCost": "767400",
						"executionCost": "infinite",
						"totalCost": "infinite"
					},
					"external": {
						"airdrop()": "infinite",
						"bankBal(address)": "2815",
						"deposit(uint256)": "infinite",
						"flashLoan(uint256,bytes)": "infinite",
						"isCompleted()": "infinite",
						"score()": "2451",
						"token()": "infinite",
						"withdraw(uint256)": "infinite"
					}
				},
				"methodIdentifiers": {
					"airdrop()": "3884d635",
					"bankBal(address)": "0512f60b",
					"deposit(uint256)": "b6b55f25",
					"flashLoan(uint256,bytes)": "5296a431",
					"isCompleted()": "fa391c64",
					"score()": "efedc669",
					"token()": "fc0c546a",
					"withdraw(uint256)": "2e1a7d4d"
				}
			},
			"storageLayout": {
				"storage": [
					{
						"astId": 342,
						"contract": "shoot/摸底3/3/1.sol:check",
						"label": "token",
						"offset": 0,
						"slot": "0",
						"type": "t_contract(ERC20)335"
					},
					{
						"astId": 344,
						"contract": "shoot/摸底3/3/1.sol:check",
						"label": "isAir",
						"offset": 20,
						"slot": "0",
						"type": "t_bool"
					},
					{
						"astId": 346,
						"contract": "shoot/摸底3/3/1.sol:check",
						"label": "lock",
						"offset": 21,
						"slot": "0",
						"type": "t_bool"
					},
					{
						"astId": 350,
						"contract": "shoot/摸底3/3/1.sol:check",
						"label": "bankBal",
						"offset": 0,
						"slot": "1",
						"type": "t_mapping(t_address,t_uint256)"
					},
					{
						"astId": 567,
						"contract": "shoot/摸底3/3/1.sol:check",
						"label": "score",
						"offset": 0,
						"slot": "2",
						"type": "t_uint256"
					}
				],
				"types": {
					"t_address": {
						"encoding": "inplace",
						"label": "address",
						"numberOfBytes": "20"
					},
					"t_bool": {
						"encoding": "inplace",
						"label": "bool",
						"numberOfBytes": "1"
					},
					"t_contract(ERC20)335": {
						"encoding": "inplace",
						"label": "contract ERC20",
						"numberOfBytes": "20"
					},
					"t_mapping(t_address,t_uint256)": {
						"encoding": "mapping",
						"key": "t_address",
						"label": "mapping(address => uint256)",
						"numberOfBytes": "32",
						"value": "t_uint256"
					},
					"t_uint256": {
						"encoding": "inplace",
						"label": "uint256",
						"numberOfBytes": "32"
					}
				}
			},
			"userdoc": {
				"kind": "user",
				"methods": {},
				"version": 1
			}
		}
	}
}