{
	"shoot/摸底3/3/1.sol": {
		"ERC20": {
			"abi": [
				{
					"inputs": [],
					"stateMutability": "nonpayable",
					"type": "constructor"
				},
				{
					"anonymous": false,
					"inputs": [
						{
							"indexed": true,
							"internalType": "address",
							"name": "owner",
							"type": "address"
						},
						{
							"indexed": true,
							"internalType": "address",
							"name": "spender",
							"type": "address"
						},
						{
							"indexed": false,
							"internalType": "uint256",
							"name": "value",
							"type": "uint256"
						}
					],
					"name": "Approval",
					"type": "event"
				},
				{
					"anonymous": false,
					"inputs": [
						{
							"indexed": true,
							"internalType": "address",
							"name": "from",
							"type": "address"
						},
						{
							"indexed": true,
							"internalType": "address",
							"name": "to",
							"type": "address"
						},
						{
							"indexed": false,
							"internalType": "uint256",
							"name": "value",
							"type": "uint256"
						}
					],
					"name": "Transfer",
					"type": "event"
				},
				{
					"inputs": [
						{
							"internalType": "address",
							"name": "owner",
							"type": "address"
						},
						{
							"internalType": "address",
							"name": "delegate",
							"type": "address"
						}
					],
					"name": "allowance",
					"outputs": [
						{
							"internalType": "uint256",
							"name": "",
							"type": "uint256"
						}
					],
					"stateMutability": "view",
					"type": "function"
				},
				{
					"inputs": [
						{
							"internalType": "address",
							"name": "delegate",
							"type": "address"
						},
						{
							"internalType": "uint256",
							"name": "numTokens",
							"type": "uint256"
						}
					],
					"name": "approve",
					"outputs": [
						{
							"internalType": "bool",
							"name": "",
							"type": "bool"
						}
					],
					"stateMutability": "nonpayable",
					"type": "function"
				},
				{
					"inputs": [
						{
							"internalType": "address",
							"name": "target",
							"type": "address"
						},
						{
							"internalType": "uint256",
							"name": "amount",
							"type": "uint256"
						},
						{
							"internalType": "bytes",
							"name": "data",
							"type": "bytes"
						}
					],
					"name": "approveCall",
					"outputs": [],
					"stateMutability": "nonpayable",
					"type": "function"
				},
				{
					"inputs": [
						{
							"internalType": "address",
							"name": "tokenOwner",
							"type": "address"
						}
					],
					"name": "balanceOf",
					"outputs": [
						{
							"internalType": "uint256",
							"name": "",
							"type": "uint256"
						}
					],
					"stateMutability": "view",
					"type": "function"
				},
				{
					"inputs": [],
					"name": "decimals",
					"outputs": [
						{
							"internalType": "uint8",
							"name": "",
							"type": "uint8"
						}
					],
					"stateMutability": "view",
					"type": "function"
				},
				{
					"inputs": [],
					"name": "name",
					"outputs": [
						{
							"internalType": "string",
							"name": "",
							"type": "string"
						}
					],
					"stateMutability": "view",
					"type": "function"
				},
				{
					"inputs": [],
					"name": "symbol",
					"outputs": [
						{
							"internalType": "string",
							"name": "",
							"type": "string"
						}
					],
					"stateMutability": "view",
					"type": "function"
				},
				{
					"inputs": [],
					"name": "totalSupply",
					"outputs": [
						{
							"internalType": "uint256",
							"name": "",
							"type": "uint256"
						}
					],
					"stateMutability": "view",
					"type": "function"
				},
				{
					"inputs": [
						{
							"internalType": "address",
							"name": "receiver",
							"type": "address"
						},
						{
							"internalType": "uint256",
							"name": "numTokens",
							"type": "uint256"
						}
					],
					"name": "transfer",
					"outputs": [
						{
							"internalType": "bool",
							"name": "",
							"type": "bool"
						}
					],
					"stateMutability": "nonpayable",
					"type": "function"
				},
				{
					"inputs": [
						{
							"internalType": "address",
							"name": "owner",
							"type": "address"
						},
						{
							"internalType": "address",
							"name": "buyer",
							"type": "address"
						},
						{
							"internalType": "uint256",
							"name": "numTokens",
							"type": "uint256"
						}
					],
					"name": "transferFrom",
					"outputs": [
						{
							"internalType": "bool",
							"name": "",
							"type": "bool"
						}
					],
					"stateMutability": "nonpayable",
					"type": "function"
				}
			],
			"devdoc": {
				"kind": "dev",
				"methods": {},
				"version": 1
			},
			"evm": {
				"assembly": "    /* \"shoot/\\xe6\\x91\\xb8\\xe5\\xba\\x953/3/1.sol\":751:2852  contract ERC20 is IERC20 {... */\n  mstore(0x40, 0x80)\n    /* \"shoot/\\xe6\\x91\\xb8\\xe5\\xba\\x953/3/1.sol\":1048:1058  1000 ether */\n  0x3635c9adc5dea00000\n    /* \"shoot/\\xe6\\x91\\xb8\\xe5\\xba\\x953/3/1.sol\":1025:1058  uint256 totalSupply_ = 1000 ether */\n  0x02\n  sstore\n    /* \"shoot/\\xe6\\x91\\xb8\\xe5\\xba\\x953/3/1.sol\":1068:1132  constructor() {... */\n  callvalue\n  dup1\n  iszero\n  tag_1\n  jumpi\n  0x00\n  dup1\n  revert\ntag_1:\n  pop\n    /* \"shoot/\\xe6\\x91\\xb8\\xe5\\xba\\x953/3/1.sol\":1112:1124  totalSupply_ */\n  sload(0x02)\n    /* \"shoot/\\xe6\\x91\\xb8\\xe5\\xba\\x953/3/1.sol\":1089:1097  balances */\n  0x00\n    /* \"shoot/\\xe6\\x91\\xb8\\xe5\\xba\\x953/3/1.sol\":1089:1109  balances[msg.sender] */\n  dup1\n    /* \"shoot/\\xe6\\x91\\xb8\\xe5\\xba\\x953/3/1.sol\":1098:1108  msg.sender */\n  caller\n    /* \"shoot/\\xe6\\x91\\xb8\\xe5\\xba\\x953/3/1.sol\":1089:1109  balances[msg.sender] */\n  0xffffffffffffffffffffffffffffffffffffffff\n  and\n  0xffffffffffffffffffffffffffffffffffffffff\n  and\n  dup2\n  mstore\n  0x20\n  add\n  swap1\n  dup2\n  mstore\n  0x20\n  add\n  0x00\n  keccak256\n    /* \"shoot/\\xe6\\x91\\xb8\\xe5\\xba\\x953/3/1.sol\":1089:1124  balances[msg.sender] = totalSupply_ */\n  dup2\n  swap1\n  sstore\n  pop\n    /* \"shoot/\\xe6\\x91\\xb8\\xe5\\xba\\x953/3/1.sol\":751:2852  contract ERC20 is IERC20 {... */\n  dataSize(sub_0)\n  dup1\n  dataOffset(sub_0)\n  0x00\n  codecopy\n  0x00\n  return\nstop\n\nsub_0: assembly {\n        /* \"shoot/\\xe6\\x91\\xb8\\xe5\\xba\\x953/3/1.sol\":751:2852  contract ERC20 is IERC20 {... */\n      mstore(0x40, 0x80)\n      callvalue\n      dup1\n      iszero\n      tag_1\n      jumpi\n      0x00\n      dup1\n      revert\n    tag_1:\n      pop\n      jumpi(tag_2, lt(calldatasize, 0x04))\n      shr(0xe0, calldataload(0x00))\n      dup1\n      0x478b36d8\n      gt\n      tag_13\n      jumpi\n      dup1\n      0x478b36d8\n      eq\n      tag_8\n      jumpi\n      dup1\n      0x70a08231\n      eq\n      tag_9\n      jumpi\n      dup1\n      0x95d89b41\n      eq\n      tag_10\n      jumpi\n      dup1\n      0xa9059cbb\n      eq\n      tag_11\n      jumpi\n      dup1\n      0xdd62ed3e\n      eq\n      tag_12\n      jumpi\n      jump(tag_2)\n    tag_13:\n      dup1\n      0x06fdde03\n      eq\n      tag_3\n      jumpi\n      dup1\n      0x095ea7b3\n      eq\n      tag_4\n      jumpi\n      dup1\n      0x18160ddd\n      eq\n      tag_5\n      jumpi\n      dup1\n      0x23b872dd\n      eq\n      tag_6\n      jumpi\n      dup1\n      0x313ce567\n      eq\n      tag_7\n      jumpi\n    tag_2:\n      0x00\n      dup1\n      revert\n        /* \"shoot/\\xe6\\x91\\xb8\\xe5\\xba\\x953/3/1.sol\":785:822  string public constant name = \"ERC20\" */\n    tag_3:\n      tag_14\n      tag_15\n      jump\t// in\n    tag_14:\n      mload(0x40)\n      tag_16\n      swap2\n      swap1\n      tag_17\n      jump\t// in\n    tag_16:\n      mload(0x40)\n      dup1\n      swap2\n      sub\n      swap1\n      return\n        /* \"shoot/\\xe6\\x91\\xb8\\xe5\\xba\\x953/3/1.sol\":1734:1958  function approve(address delegate, uint256 numTokens) public override returns (bool) {... */\n    tag_4:\n      tag_18\n      0x04\n      dup1\n      calldatasize\n      sub\n      dup2\n      add\n      swap1\n      tag_19\n      swap2\n      swap1\n      tag_20\n      jump\t// in\n    tag_19:\n      tag_21\n      jump\t// in\n    tag_18:\n      mload(0x40)\n      tag_22\n      swap2\n      swap1\n      tag_23\n      jump\t// in\n    tag_22:\n      mload(0x40)\n      dup1\n      swap2\n      sub\n      swap1\n      return\n        /* \"shoot/\\xe6\\x91\\xb8\\xe5\\xba\\x953/3/1.sol\":1140:1236  function totalSupply() public override view returns (uint256) {... */\n    tag_5:\n      tag_24\n      tag_25\n      jump\t// in\n    tag_24:\n      mload(0x40)\n      tag_26\n      swap2\n      swap1\n      tag_27\n      jump\t// in\n    tag_26:\n      mload(0x40)\n      dup1\n      swap2\n      sub\n      swap1\n      return\n        /* \"shoot/\\xe6\\x91\\xb8\\xe5\\xba\\x953/3/1.sol\":2373:2847  function transferFrom(address owner, address buyer, uint256 numTokens) public override returns (bool) {... */\n    tag_6:\n      tag_28\n      0x04\n      dup1\n      calldatasize\n      sub\n      dup2\n      add\n      swap1\n      tag_29\n      swap2\n      swap1\n      tag_30\n      jump\t// in\n    tag_29:\n      tag_31\n      jump\t// in\n    tag_28:\n      mload(0x40)\n      tag_32\n      swap2\n      swap1\n      tag_23\n      jump\t// in\n    tag_32:\n      mload(0x40)\n      dup1\n      swap2\n      sub\n      swap1\n      return\n        /* \"shoot/\\xe6\\x91\\xb8\\xe5\\xba\\x953/3/1.sol\":873:908  uint8 public constant decimals = 18 */\n    tag_7:\n      tag_33\n      tag_34\n      jump\t// in\n    tag_33:\n      mload(0x40)\n      tag_35\n      swap2\n      swap1\n      tag_36\n      jump\t// in\n    tag_35:\n      mload(0x40)\n      dup1\n      swap2\n      sub\n      swap1\n      return\n        /* \"shoot/\\xe6\\x91\\xb8\\xe5\\xba\\x953/3/1.sol\":2112:2365  function approveCall(address target,uint256 amount,bytes calldata data)external  {... */\n    tag_8:\n      tag_37\n      0x04\n      dup1\n      calldatasize\n      sub\n      dup2\n      add\n      swap1\n      tag_38\n      swap2\n      swap1\n      tag_39\n      jump\t// in\n    tag_38:\n      tag_40\n      jump\t// in\n    tag_37:\n      stop\n        /* \"shoot/\\xe6\\x91\\xb8\\xe5\\xba\\x953/3/1.sol\":1244:1368  function balanceOf(address tokenOwner) public override view returns (uint256) {... */\n    tag_9:\n      tag_41\n      0x04\n      dup1\n      calldatasize\n      sub\n      dup2\n      add\n      swap1\n      tag_42\n      swap2\n      swap1\n      tag_43\n      jump\t// in\n    tag_42:\n      tag_44\n      jump\t// in\n    tag_41:\n      mload(0x40)\n      tag_45\n      swap2\n      swap1\n      tag_27\n      jump\t// in\n    tag_45:\n      mload(0x40)\n      dup1\n      swap2\n      sub\n      swap1\n      return\n        /* \"shoot/\\xe6\\x91\\xb8\\xe5\\xba\\x953/3/1.sol\":829:866  string public constant symbol = \"ERC\" */\n    tag_10:\n      tag_46\n      tag_47\n      jump\t// in\n    tag_46:\n      mload(0x40)\n      tag_48\n      swap2\n      swap1\n      tag_17\n      jump\t// in\n    tag_48:\n      mload(0x40)\n      dup1\n      swap2\n      sub\n      swap1\n      return\n        /* \"shoot/\\xe6\\x91\\xb8\\xe5\\xba\\x953/3/1.sol\":1376:1726  function transfer(address receiver, uint256 numTokens) public override returns (bool) {... */\n    tag_11:\n      tag_49\n      0x04\n      dup1\n      calldatasize\n      sub\n      dup2\n      add\n      swap1\n      tag_50\n      swap2\n      swap1\n      tag_20\n      jump\t// in\n    tag_50:\n      tag_51\n      jump\t// in\n    tag_49:\n      mload(0x40)\n      tag_52\n      swap2\n      swap1\n      tag_23\n      jump\t// in\n    tag_52:\n      mload(0x40)\n      dup1\n      swap2\n      sub\n      swap1\n      return\n        /* \"shoot/\\xe6\\x91\\xb8\\xe5\\xba\\x953/3/1.sol\":1966:2104  function allowance(address owner, address delegate) public override view returns (uint) {... */\n    tag_12:\n      tag_53\n      0x04\n      dup1\n      calldatasize\n      sub\n      dup2\n      add\n      swap1\n      tag_54\n      swap2\n      swap1\n      tag_55\n      jump\t// in\n    tag_54:\n      tag_56\n      jump\t// in\n    tag_53:\n      mload(0x40)\n      tag_57\n      swap2\n      swap1\n      tag_27\n      jump\t// in\n    tag_57:\n      mload(0x40)\n      dup1\n      swap2\n      sub\n      swap1\n      return\n        /* \"shoot/\\xe6\\x91\\xb8\\xe5\\xba\\x953/3/1.sol\":785:822  string public constant name = \"ERC20\" */\n    tag_15:\n      mload(0x40)\n      dup1\n      0x40\n      add\n      0x40\n      mstore\n      dup1\n      0x05\n      dup2\n      mstore\n      0x20\n      add\n      0x4552433230000000000000000000000000000000000000000000000000000000\n      dup2\n      mstore\n      pop\n      dup2\n      jump\t// out\n        /* \"shoot/\\xe6\\x91\\xb8\\xe5\\xba\\x953/3/1.sol\":1734:1958  function approve(address delegate, uint256 numTokens) public override returns (bool) {... */\n    tag_21:\n        /* \"shoot/\\xe6\\x91\\xb8\\xe5\\xba\\x953/3/1.sol\":1813:1817  bool */\n      0x00\n        /* \"shoot/\\xe6\\x91\\xb8\\xe5\\xba\\x953/3/1.sol\":1862:1871  numTokens */\n      dup2\n        /* \"shoot/\\xe6\\x91\\xb8\\xe5\\xba\\x953/3/1.sol\":1830:1837  allowed */\n      0x01\n        /* \"shoot/\\xe6\\x91\\xb8\\xe5\\xba\\x953/3/1.sol\":1830:1849  allowed[msg.sender] */\n      0x00\n        /* \"shoot/\\xe6\\x91\\xb8\\xe5\\xba\\x953/3/1.sol\":1838:1848  msg.sender */\n      caller\n        /* \"shoot/\\xe6\\x91\\xb8\\xe5\\xba\\x953/3/1.sol\":1830:1849  allowed[msg.sender] */\n      0xffffffffffffffffffffffffffffffffffffffff\n      and\n      0xffffffffffffffffffffffffffffffffffffffff\n      and\n      dup2\n      mstore\n      0x20\n      add\n      swap1\n      dup2\n      mstore\n      0x20\n      add\n      0x00\n      keccak256\n        /* \"shoot/\\xe6\\x91\\xb8\\xe5\\xba\\x953/3/1.sol\":1830:1859  allowed[msg.sender][delegate] */\n      0x00\n        /* \"shoot/\\xe6\\x91\\xb8\\xe5\\xba\\x953/3/1.sol\":1850:1858  delegate */\n      dup6\n        /* \"shoot/\\xe6\\x91\\xb8\\xe5\\xba\\x953/3/1.sol\":1830:1859  allowed[msg.sender][delegate] */\n      0xffffffffffffffffffffffffffffffffffffffff\n      and\n      0xffffffffffffffffffffffffffffffffffffffff\n      and\n      dup2\n      mstore\n      0x20\n      add\n      swap1\n      dup2\n      mstore\n      0x20\n      add\n      0x00\n      keccak256\n        /* \"shoot/\\xe6\\x91\\xb8\\xe5\\xba\\x953/3/1.sol\":1830:1871  allowed[msg.sender][delegate] = numTokens */\n      dup2\n      swap1\n      sstore\n      pop\n        /* \"shoot/\\xe6\\x91\\xb8\\xe5\\xba\\x953/3/1.sol\":1908:1916  delegate */\n      dup3\n        /* \"shoot/\\xe6\\x91\\xb8\\xe5\\xba\\x953/3/1.sol\":1887:1928  Approval(msg.sender, delegate, numTokens) */\n      0xffffffffffffffffffffffffffffffffffffffff\n      and\n        /* \"shoot/\\xe6\\x91\\xb8\\xe5\\xba\\x953/3/1.sol\":1896:1906  msg.sender */\n      caller\n        /* \"shoot/\\xe6\\x91\\xb8\\xe5\\xba\\x953/3/1.sol\":1887:1928  Approval(msg.sender, delegate, numTokens) */\n      0xffffffffffffffffffffffffffffffffffffffff\n      and\n      0x8c5be1e5ebec7d5bd14f71427d1e84f3dd0314c0f7b2291e5b200ac8c7c3b925\n        /* \"shoot/\\xe6\\x91\\xb8\\xe5\\xba\\x953/3/1.sol\":1918:1927  numTokens */\n      dup5\n        /* \"shoot/\\xe6\\x91\\xb8\\xe5\\xba\\x953/3/1.sol\":1887:1928  Approval(msg.sender, delegate, numTokens) */\n      mload(0x40)\n      tag_59\n      swap2\n      swap1\n      tag_27\n      jump\t// in\n    tag_59:\n      mload(0x40)\n      dup1\n      swap2\n      sub\n      swap1\n      log3\n        /* \"shoot/\\xe6\\x91\\xb8\\xe5\\xba\\x953/3/1.sol\":1946:1950  true */\n      0x01\n        /* \"shoot/\\xe6\\x91\\xb8\\xe5\\xba\\x953/3/1.sol\":1939:1950  return true */\n      swap1\n      pop\n        /* \"shoot/\\xe6\\x91\\xb8\\xe5\\xba\\x953/3/1.sol\":1734:1958  function approve(address delegate, uint256 numTokens) public override returns (bool) {... */\n      swap3\n      swap2\n      pop\n      pop\n      jump\t// out\n        /* \"shoot/\\xe6\\x91\\xb8\\xe5\\xba\\x953/3/1.sol\":1140:1236  function totalSupply() public override view returns (uint256) {... */\n    tag_25:\n        /* \"shoot/\\xe6\\x91\\xb8\\xe5\\xba\\x953/3/1.sol\":1193:1200  uint256 */\n      0x00\n        /* \"shoot/\\xe6\\x91\\xb8\\xe5\\xba\\x953/3/1.sol\":1216:1228  totalSupply_ */\n      sload(0x02)\n        /* \"shoot/\\xe6\\x91\\xb8\\xe5\\xba\\x953/3/1.sol\":1209:1228  return totalSupply_ */\n      swap1\n      pop\n        /* \"shoot/\\xe6\\x91\\xb8\\xe5\\xba\\x953/3/1.sol\":1140:1236  function totalSupply() public override view returns (uint256) {... */\n      swap1\n      jump\t// out\n        /* \"shoot/\\xe6\\x91\\xb8\\xe5\\xba\\x953/3/1.sol\":2373:2847  function transferFrom(address owner, address buyer, uint256 numTokens) public override returns (bool) {... */\n    tag_31:\n        /* \"shoot/\\xe6\\x91\\xb8\\xe5\\xba\\x953/3/1.sol\":2469:2473  bool */\n      0x00\n        /* \"shoot/\\xe6\\x91\\xb8\\xe5\\xba\\x953/3/1.sol\":2507:2515  balances */\n      dup1\n        /* \"shoot/\\xe6\\x91\\xb8\\xe5\\xba\\x953/3/1.sol\":2507:2522  balances[owner] */\n      0x00\n        /* \"shoot/\\xe6\\x91\\xb8\\xe5\\xba\\x953/3/1.sol\":2516:2521  owner */\n      dup6\n        /* \"shoot/\\xe6\\x91\\xb8\\xe5\\xba\\x953/3/1.sol\":2507:2522  balances[owner] */\n      0xffffffffffffffffffffffffffffffffffffffff\n      and\n      0xffffffffffffffffffffffffffffffffffffffff\n      and\n      dup2\n      mstore\n      0x20\n      add\n      swap1\n      dup2\n      mstore\n      0x20\n      add\n      0x00\n      keccak256\n      sload\n        /* \"shoot/\\xe6\\x91\\xb8\\xe5\\xba\\x953/3/1.sol\":2494:2503  numTokens */\n      dup3\n        /* \"shoot/\\xe6\\x91\\xb8\\xe5\\xba\\x953/3/1.sol\":2494:2522  numTokens <= balances[owner] */\n      gt\n      iszero\n        /* \"shoot/\\xe6\\x91\\xb8\\xe5\\xba\\x953/3/1.sol\":2486:2523  require(numTokens <= balances[owner]) */\n      tag_62\n      jumpi\n      0x00\n      dup1\n      revert\n    tag_62:\n        /* \"shoot/\\xe6\\x91\\xb8\\xe5\\xba\\x953/3/1.sol\":2555:2562  allowed */\n      0x01\n        /* \"shoot/\\xe6\\x91\\xb8\\xe5\\xba\\x953/3/1.sol\":2555:2569  allowed[owner] */\n      0x00\n        /* \"shoot/\\xe6\\x91\\xb8\\xe5\\xba\\x953/3/1.sol\":2563:2568  owner */\n      dup6\n        /* \"shoot/\\xe6\\x91\\xb8\\xe5\\xba\\x953/3/1.sol\":2555:2569  allowed[owner] */\n      0xffffffffffffffffffffffffffffffffffffffff\n      and\n      0xffffffffffffffffffffffffffffffffffffffff\n      and\n      dup2\n      mstore\n      0x20\n      add\n      swap1\n      dup2\n      mstore\n      0x20\n      add\n      0x00\n      keccak256\n        /* \"shoot/\\xe6\\x91\\xb8\\xe5\\xba\\x953/3/1.sol\":2555:2581  allowed[owner][msg.sender] */\n      0x00\n        /* \"shoot/\\xe6\\x91\\xb8\\xe5\\xba\\x953/3/1.sol\":2570:2580  msg.sender */\n      caller\n        /* \"shoot/\\xe6\\x91\\xb8\\xe5\\xba\\x953/3/1.sol\":2555:2581  allowed[owner][msg.sender] */\n      0xffffffffffffffffffffffffffffffffffffffff\n      and\n      0xffffffffffffffffffffffffffffffffffffffff\n      and\n      dup2\n      mstore\n      0x20\n      add\n      swap1\n      dup2\n      mstore\n      0x20\n      add\n      0x00\n      keccak256\n      sload\n        /* \"shoot/\\xe6\\x91\\xb8\\xe5\\xba\\x953/3/1.sol\":2542:2551  numTokens */\n      dup3\n        /* \"shoot/\\xe6\\x91\\xb8\\xe5\\xba\\x953/3/1.sol\":2542:2581  numTokens <= allowed[owner][msg.sender] */\n      gt\n      iszero\n        /* \"shoot/\\xe6\\x91\\xb8\\xe5\\xba\\x953/3/1.sol\":2534:2582  require(numTokens <= allowed[owner][msg.sender]) */\n      tag_63\n      jumpi\n      0x00\n      dup1\n      revert\n    tag_63:\n        /* \"shoot/\\xe6\\x91\\xb8\\xe5\\xba\\x953/3/1.sol\":2629:2638  numTokens */\n      dup2\n        /* \"shoot/\\xe6\\x91\\xb8\\xe5\\xba\\x953/3/1.sol\":2613:2621  balances */\n      0x00\n        /* \"shoot/\\xe6\\x91\\xb8\\xe5\\xba\\x953/3/1.sol\":2613:2628  balances[owner] */\n      dup1\n        /* \"shoot/\\xe6\\x91\\xb8\\xe5\\xba\\x953/3/1.sol\":2622:2627  owner */\n      dup7\n        /* \"shoot/\\xe6\\x91\\xb8\\xe5\\xba\\x953/3/1.sol\":2613:2628  balances[owner] */\n      0xffffffffffffffffffffffffffffffffffffffff\n      and\n      0xffffffffffffffffffffffffffffffffffffffff\n      and\n      dup2\n      mstore\n      0x20\n      add\n      swap1\n      dup2\n      mstore\n      0x20\n      add\n      0x00\n      keccak256\n      sload\n        /* \"shoot/\\xe6\\x91\\xb8\\xe5\\xba\\x953/3/1.sol\":2613:2638  balances[owner]-numTokens */\n      tag_64\n      swap2\n      swap1\n      tag_65\n      jump\t// in\n    tag_64:\n        /* \"shoot/\\xe6\\x91\\xb8\\xe5\\xba\\x953/3/1.sol\":2595:2603  balances */\n      0x00\n        /* \"shoot/\\xe6\\x91\\xb8\\xe5\\xba\\x953/3/1.sol\":2595:2610  balances[owner] */\n      dup1\n        /* \"shoot/\\xe6\\x91\\xb8\\xe5\\xba\\x953/3/1.sol\":2604:2609  owner */\n      dup7\n        /* \"shoot/\\xe6\\x91\\xb8\\xe5\\xba\\x953/3/1.sol\":2595:2610  balances[owner] */\n      0xffffffffffffffffffffffffffffffffffffffff\n      and\n      0xffffffffffffffffffffffffffffffffffffffff\n      and\n      dup2\n      mstore\n      0x20\n      add\n      swap1\n      dup2\n      mstore\n      0x20\n      add\n      0x00\n      keccak256\n        /* \"shoot/\\xe6\\x91\\xb8\\xe5\\xba\\x953/3/1.sol\":2595:2638  balances[owner] = balances[owner]-numTokens */\n      dup2\n      swap1\n      sstore\n      pop\n        /* \"shoot/\\xe6\\x91\\xb8\\xe5\\xba\\x953/3/1.sol\":2705:2714  numTokens */\n      dup2\n        /* \"shoot/\\xe6\\x91\\xb8\\xe5\\xba\\x953/3/1.sol\":2678:2685  allowed */\n      0x01\n        /* \"shoot/\\xe6\\x91\\xb8\\xe5\\xba\\x953/3/1.sol\":2678:2692  allowed[owner] */\n      0x00\n        /* \"shoot/\\xe6\\x91\\xb8\\xe5\\xba\\x953/3/1.sol\":2686:2691  owner */\n      dup7\n        /* \"shoot/\\xe6\\x91\\xb8\\xe5\\xba\\x953/3/1.sol\":2678:2692  allowed[owner] */\n      0xffffffffffffffffffffffffffffffffffffffff\n      and\n      0xffffffffffffffffffffffffffffffffffffffff\n      and\n      dup2\n      mstore\n      0x20\n      add\n      swap1\n      dup2\n      mstore\n      0x20\n      add\n      0x00\n      keccak256\n        /* \"shoot/\\xe6\\x91\\xb8\\xe5\\xba\\x953/3/1.sol\":2678:2704  allowed[owner][msg.sender] */\n      0x00\n        /* \"shoot/\\xe6\\x91\\xb8\\xe5\\xba\\x953/3/1.sol\":2693:2703  msg.sender */\n      caller\n        /* \"shoot/\\xe6\\x91\\xb8\\xe5\\xba\\x953/3/1.sol\":2678:2704  allowed[owner][msg.sender] */\n      0xffffffffffffffffffffffffffffffffffffffff\n      and\n      0xffffffffffffffffffffffffffffffffffffffff\n      and\n      dup2\n      mstore\n      0x20\n      add\n      swap1\n      dup2\n      mstore\n      0x20\n      add\n      0x00\n      keccak256\n      sload\n        /* \"shoot/\\xe6\\x91\\xb8\\xe5\\xba\\x953/3/1.sol\":2678:2714  allowed[owner][msg.sender]-numTokens */\n      tag_66\n      swap2\n      swap1\n      tag_65\n      jump\t// in\n    tag_66:\n        /* \"shoot/\\xe6\\x91\\xb8\\xe5\\xba\\x953/3/1.sol\":2649:2656  allowed */\n      0x01\n        /* \"shoot/\\xe6\\x91\\xb8\\xe5\\xba\\x953/3/1.sol\":2649:2663  allowed[owner] */\n      0x00\n        /* \"shoot/\\xe6\\x91\\xb8\\xe5\\xba\\x953/3/1.sol\":2657:2662  owner */\n      dup7\n        /* \"shoot/\\xe6\\x91\\xb8\\xe5\\xba\\x953/3/1.sol\":2649:2663  allowed[owner] */\n      0xffffffffffffffffffffffffffffffffffffffff\n      and\n      0xffffffffffffffffffffffffffffffffffffffff\n      and\n      dup2\n      mstore\n      0x20\n      add\n      swap1\n      dup2\n      mstore\n      0x20\n      add\n      0x00\n      keccak256\n        /* \"shoot/\\xe6\\x91\\xb8\\xe5\\xba\\x953/3/1.sol\":2649:2675  allowed[owner][msg.sender] */\n      0x00\n        /* \"shoot/\\xe6\\x91\\xb8\\xe5\\xba\\x953/3/1.sol\":2664:2674  msg.sender */\n      caller\n        /* \"shoot/\\xe6\\x91\\xb8\\xe5\\xba\\x953/3/1.sol\":2649:2675  allowed[owner][msg.sender] */\n      0xffffffffffffffffffffffffffffffffffffffff\n      and\n      0xffffffffffffffffffffffffffffffffffffffff\n      and\n      dup2\n      mstore\n      0x20\n      add\n      swap1\n      dup2\n      mstore\n      0x20\n      add\n      0x00\n      keccak256\n        /* \"shoot/\\xe6\\x91\\xb8\\xe5\\xba\\x953/3/1.sol\":2649:2714  allowed[owner][msg.sender] = allowed[owner][msg.sender]-numTokens */\n      dup2\n      swap1\n      sstore\n      pop\n        /* \"shoot/\\xe6\\x91\\xb8\\xe5\\xba\\x953/3/1.sol\":2759:2768  numTokens */\n      dup2\n        /* \"shoot/\\xe6\\x91\\xb8\\xe5\\xba\\x953/3/1.sol\":2743:2751  balances */\n      0x00\n        /* \"shoot/\\xe6\\x91\\xb8\\xe5\\xba\\x953/3/1.sol\":2743:2758  balances[buyer] */\n      dup1\n        /* \"shoot/\\xe6\\x91\\xb8\\xe5\\xba\\x953/3/1.sol\":2752:2757  buyer */\n      dup6\n        /* \"shoot/\\xe6\\x91\\xb8\\xe5\\xba\\x953/3/1.sol\":2743:2758  balances[buyer] */\n      0xffffffffffffffffffffffffffffffffffffffff\n      and\n      0xffffffffffffffffffffffffffffffffffffffff\n      and\n      dup2\n      mstore\n      0x20\n      add\n      swap1\n      dup2\n      mstore\n      0x20\n      add\n      0x00\n      keccak256\n      sload\n        /* \"shoot/\\xe6\\x91\\xb8\\xe5\\xba\\x953/3/1.sol\":2743:2768  balances[buyer]+numTokens */\n      tag_67\n      swap2\n      swap1\n      tag_68\n      jump\t// in\n    tag_67:\n        /* \"shoot/\\xe6\\x91\\xb8\\xe5\\xba\\x953/3/1.sol\":2725:2733  balances */\n      0x00\n        /* \"shoot/\\xe6\\x91\\xb8\\xe5\\xba\\x953/3/1.sol\":2725:2740  balances[buyer] */\n      dup1\n        /* \"shoot/\\xe6\\x91\\xb8\\xe5\\xba\\x953/3/1.sol\":2734:2739  buyer */\n      dup6\n        /* \"shoot/\\xe6\\x91\\xb8\\xe5\\xba\\x953/3/1.sol\":2725:2740  balances[buyer] */\n      0xffffffffffffffffffffffffffffffffffffffff\n      and\n      0xffffffffffffffffffffffffffffffffffffffff\n      and\n      dup2\n      mstore\n      0x20\n      add\n      swap1\n      dup2\n      mstore\n      0x20\n      add\n      0x00\n      keccak256\n        /* \"shoot/\\xe6\\x91\\xb8\\xe5\\xba\\x953/3/1.sol\":2725:2768  balances[buyer] = balances[buyer]+numTokens */\n      dup2\n      swap1\n      sstore\n      pop\n        /* \"shoot/\\xe6\\x91\\xb8\\xe5\\xba\\x953/3/1.sol\":2800:2805  buyer */\n      dup3\n        /* \"shoot/\\xe6\\x91\\xb8\\xe5\\xba\\x953/3/1.sol\":2784:2817  Transfer(owner, buyer, numTokens) */\n      0xffffffffffffffffffffffffffffffffffffffff\n      and\n        /* \"shoot/\\xe6\\x91\\xb8\\xe5\\xba\\x953/3/1.sol\":2793:2798  owner */\n      dup5\n        /* \"shoot/\\xe6\\x91\\xb8\\xe5\\xba\\x953/3/1.sol\":2784:2817  Transfer(owner, buyer, numTokens) */\n      0xffffffffffffffffffffffffffffffffffffffff\n      and\n      0xddf252ad1be2c89b69c2b068fc378daa952ba7f163c4a11628f55a4df523b3ef\n        /* \"shoot/\\xe6\\x91\\xb8\\xe5\\xba\\x953/3/1.sol\":2807:2816  numTokens */\n      dup5\n        /* \"shoot/\\xe6\\x91\\xb8\\xe5\\xba\\x953/3/1.sol\":2784:2817  Transfer(owner, buyer, numTokens) */\n      mload(0x40)\n      tag_69\n      swap2\n      swap1\n      tag_27\n      jump\t// in\n    tag_69:\n      mload(0x40)\n      dup1\n      swap2\n      sub\n      swap1\n      log3\n        /* \"shoot/\\xe6\\x91\\xb8\\xe5\\xba\\x953/3/1.sol\":2835:2839  true */\n      0x01\n        /* \"shoot/\\xe6\\x91\\xb8\\xe5\\xba\\x953/3/1.sol\":2828:2839  return true */\n      swap1\n      pop\n        /* \"shoot/\\xe6\\x91\\xb8\\xe5\\xba\\x953/3/1.sol\":2373:2847  function transferFrom(address owner, address buyer, uint256 numTokens) public override returns (bool) {... */\n      swap4\n      swap3\n      pop\n      pop\n      pop\n      jump\t// out\n        /* \"shoot/\\xe6\\x91\\xb8\\xe5\\xba\\x953/3/1.sol\":873:908  uint8 public constant decimals = 18 */\n    tag_34:\n        /* \"shoot/\\xe6\\x91\\xb8\\xe5\\xba\\x953/3/1.sol\":906:908  18 */\n      0x12\n        /* \"shoot/\\xe6\\x91\\xb8\\xe5\\xba\\x953/3/1.sol\":873:908  uint8 public constant decimals = 18 */\n      dup2\n      jump\t// out\n        /* \"shoot/\\xe6\\x91\\xb8\\xe5\\xba\\x953/3/1.sol\":2112:2365  function approveCall(address target,uint256 amount,bytes calldata data)external  {... */\n    tag_40:\n        /* \"shoot/\\xe6\\x91\\xb8\\xe5\\xba\\x953/3/1.sol\":2234:2240  amount */\n      dup3\n        /* \"shoot/\\xe6\\x91\\xb8\\xe5\\xba\\x953/3/1.sol\":2204:2211  allowed */\n      0x01\n        /* \"shoot/\\xe6\\x91\\xb8\\xe5\\xba\\x953/3/1.sol\":2204:2223  allowed[msg.sender] */\n      0x00\n        /* \"shoot/\\xe6\\x91\\xb8\\xe5\\xba\\x953/3/1.sol\":2212:2222  msg.sender */\n      caller\n        /* \"shoot/\\xe6\\x91\\xb8\\xe5\\xba\\x953/3/1.sol\":2204:2223  allowed[msg.sender] */\n      0xffffffffffffffffffffffffffffffffffffffff\n      and\n      0xffffffffffffffffffffffffffffffffffffffff\n      and\n      dup2\n      mstore\n      0x20\n      add\n      swap1\n      dup2\n      mstore\n      0x20\n      add\n      0x00\n      keccak256\n        /* \"shoot/\\xe6\\x91\\xb8\\xe5\\xba\\x953/3/1.sol\":2204:2231  allowed[msg.sender][target] */\n      0x00\n        /* \"shoot/\\xe6\\x91\\xb8\\xe5\\xba\\x953/3/1.sol\":2224:2230  target */\n      dup7\n        /* \"shoot/\\xe6\\x91\\xb8\\xe5\\xba\\x953/3/1.sol\":2204:2231  allowed[msg.sender][target] */\n      0xffffffffffffffffffffffffffffffffffffffff\n      and\n      0xffffffffffffffffffffffffffffffffffffffff\n      and\n      dup2\n      mstore\n      0x20\n      add\n      swap1\n      dup2\n      mstore\n      0x20\n      add\n      0x00\n      keccak256\n        /* \"shoot/\\xe6\\x91\\xb8\\xe5\\xba\\x953/3/1.sol\":2204:2240  allowed[msg.sender][target] = amount */\n      dup2\n      swap1\n      sstore\n      pop\n        /* \"shoot/\\xe6\\x91\\xb8\\xe5\\xba\\x953/3/1.sol\":2252:2264  bool success */\n      0x00\n        /* \"shoot/\\xe6\\x91\\xb8\\xe5\\xba\\x953/3/1.sol\":2265:2288  bytes memory returnData */\n      dup1\n        /* \"shoot/\\xe6\\x91\\xb8\\xe5\\xba\\x953/3/1.sol\":2292:2298  target */\n      dup6\n        /* \"shoot/\\xe6\\x91\\xb8\\xe5\\xba\\x953/3/1.sol\":2292:2303  target.call */\n      0xffffffffffffffffffffffffffffffffffffffff\n      and\n        /* \"shoot/\\xe6\\x91\\xb8\\xe5\\xba\\x953/3/1.sol\":2304:2308  data */\n      dup5\n      dup5\n        /* \"shoot/\\xe6\\x91\\xb8\\xe5\\xba\\x953/3/1.sol\":2292:2309  target.call(data) */\n      mload(0x40)\n      tag_71\n      swap3\n      swap2\n      swap1\n      tag_72\n      jump\t// in\n    tag_71:\n      0x00\n      mload(0x40)\n      dup1\n      dup4\n      sub\n      dup2\n      0x00\n      dup7\n      gas\n      call\n      swap2\n      pop\n      pop\n      returndatasize\n      dup1\n      0x00\n      dup2\n      eq\n      tag_75\n      jumpi\n      mload(0x40)\n      swap2\n      pop\n      and(add(returndatasize, 0x3f), not(0x1f))\n      dup3\n      add\n      0x40\n      mstore\n      returndatasize\n      dup3\n      mstore\n      returndatasize\n      0x00\n      0x20\n      dup5\n      add\n      returndatacopy\n      jump(tag_74)\n    tag_75:\n      0x60\n      swap2\n      pop\n    tag_74:\n      pop\n        /* \"shoot/\\xe6\\x91\\xb8\\xe5\\xba\\x953/3/1.sol\":2251:2309  (bool success,bytes memory returnData) = target.call(data) */\n      swap2\n      pop\n      swap2\n      pop\n        /* \"shoot/\\xe6\\x91\\xb8\\xe5\\xba\\x953/3/1.sol\":2328:2335  success */\n      dup2\n        /* \"shoot/\\xe6\\x91\\xb8\\xe5\\xba\\x953/3/1.sol\":2343:2353  returnData */\n      dup2\n        /* \"shoot/\\xe6\\x91\\xb8\\xe5\\xba\\x953/3/1.sol\":2320:2355  require(success,string(returnData)) */\n      swap1\n      tag_76\n      jumpi\n      mload(0x40)\n      0x08c379a000000000000000000000000000000000000000000000000000000000\n      dup2\n      mstore\n      0x04\n      add\n      tag_77\n      swap2\n      swap1\n      tag_17\n      jump\t// in\n    tag_77:\n      mload(0x40)\n      dup1\n      swap2\n      sub\n      swap1\n      revert\n    tag_76:\n      pop\n        /* \"shoot/\\xe6\\x91\\xb8\\xe5\\xba\\x953/3/1.sol\":2193:2365  {... */\n      pop\n      pop\n        /* \"shoot/\\xe6\\x91\\xb8\\xe5\\xba\\x953/3/1.sol\":2112:2365  function approveCall(address target,uint256 amount,bytes calldata data)external  {... */\n      pop\n      pop\n      pop\n      pop\n      jump\t// out\n        /* \"shoot/\\xe6\\x91\\xb8\\xe5\\xba\\x953/3/1.sol\":1244:1368  function balanceOf(address tokenOwner) public override view returns (uint256) {... */\n    tag_44:\n        /* \"shoot/\\xe6\\x91\\xb8\\xe5\\xba\\x953/3/1.sol\":1313:1320  uint256 */\n      0x00\n        /* \"shoot/\\xe6\\x91\\xb8\\xe5\\xba\\x953/3/1.sol\":1340:1348  balances */\n      dup1\n        /* \"shoot/\\xe6\\x91\\xb8\\xe5\\xba\\x953/3/1.sol\":1340:1360  balances[tokenOwner] */\n      0x00\n        /* \"shoot/\\xe6\\x91\\xb8\\xe5\\xba\\x953/3/1.sol\":1349:1359  tokenOwner */\n      dup4\n        /* \"shoot/\\xe6\\x91\\xb8\\xe5\\xba\\x953/3/1.sol\":1340:1360  balances[tokenOwner] */\n      0xffffffffffffffffffffffffffffffffffffffff\n      and\n      0xffffffffffffffffffffffffffffffffffffffff\n      and\n      dup2\n      mstore\n      0x20\n      add\n      swap1\n      dup2\n      mstore\n      0x20\n      add\n      0x00\n      keccak256\n      sload\n        /* \"shoot/\\xe6\\x91\\xb8\\xe5\\xba\\x953/3/1.sol\":1333:1360  return balances[tokenOwner] */\n      swap1\n      pop\n        /* \"shoot/\\xe6\\x91\\xb8\\xe5\\xba\\x953/3/1.sol\":1244:1368  function balanceOf(address tokenOwner) public override view returns (uint256) {... */\n      swap2\n      swap1\n      pop\n      jump\t// out\n        /* \"shoot/\\xe6\\x91\\xb8\\xe5\\xba\\x953/3/1.sol\":829:866  string public constant symbol = \"ERC\" */\n    tag_47:\n      mload(0x40)\n      dup1\n      0x40\n      add\n      0x40\n      mstore\n      dup1\n      0x03\n      dup2\n      mstore\n      0x20\n      add\n      0x4552430000000000000000000000000000000000000000000000000000000000\n      dup2\n      mstore\n      pop\n      dup2\n      jump\t// out\n        /* \"shoot/\\xe6\\x91\\xb8\\xe5\\xba\\x953/3/1.sol\":1376:1726  function transfer(address receiver, uint256 numTokens) public override returns (bool) {... */\n    tag_51:\n        /* \"shoot/\\xe6\\x91\\xb8\\xe5\\xba\\x953/3/1.sol\":1456:1460  bool */\n      0x00\n        /* \"shoot/\\xe6\\x91\\xb8\\xe5\\xba\\x953/3/1.sol\":1494:1502  balances */\n      dup1\n        /* \"shoot/\\xe6\\x91\\xb8\\xe5\\xba\\x953/3/1.sol\":1494:1514  balances[msg.sender] */\n      0x00\n        /* \"shoot/\\xe6\\x91\\xb8\\xe5\\xba\\x953/3/1.sol\":1503:1513  msg.sender */\n      caller\n        /* \"shoot/\\xe6\\x91\\xb8\\xe5\\xba\\x953/3/1.sol\":1494:1514  balances[msg.sender] */\n      0xffffffffffffffffffffffffffffffffffffffff\n      and\n      0xffffffffffffffffffffffffffffffffffffffff\n      and\n      dup2\n      mstore\n      0x20\n      add\n      swap1\n      dup2\n      mstore\n      0x20\n      add\n      0x00\n      keccak256\n      sload\n        /* \"shoot/\\xe6\\x91\\xb8\\xe5\\xba\\x953/3/1.sol\":1481:1490  numTokens */\n      dup3\n        /* \"shoot/\\xe6\\x91\\xb8\\xe5\\xba\\x953/3/1.sol\":1481:1514  numTokens <= balances[msg.sender] */\n      gt\n      iszero\n        /* \"shoot/\\xe6\\x91\\xb8\\xe5\\xba\\x953/3/1.sol\":1473:1515  require(numTokens <= balances[msg.sender]) */\n      tag_80\n      jumpi\n      0x00\n      dup1\n      revert\n    tag_80:\n        /* \"shoot/\\xe6\\x91\\xb8\\xe5\\xba\\x953/3/1.sol\":1570:1579  numTokens */\n      dup2\n        /* \"shoot/\\xe6\\x91\\xb8\\xe5\\xba\\x953/3/1.sol\":1549:1557  balances */\n      0x00\n        /* \"shoot/\\xe6\\x91\\xb8\\xe5\\xba\\x953/3/1.sol\":1549:1569  balances[msg.sender] */\n      dup1\n        /* \"shoot/\\xe6\\x91\\xb8\\xe5\\xba\\x953/3/1.sol\":1558:1568  msg.sender */\n      caller\n        /* \"shoot/\\xe6\\x91\\xb8\\xe5\\xba\\x953/3/1.sol\":1549:1569  balances[msg.sender] */\n      0xffffffffffffffffffffffffffffffffffffffff\n      and\n      0xffffffffffffffffffffffffffffffffffffffff\n      and\n      dup2\n      mstore\n      0x20\n      add\n      swap1\n      dup2\n      mstore\n      0x20\n      add\n      0x00\n      keccak256\n      sload\n        /* \"shoot/\\xe6\\x91\\xb8\\xe5\\xba\\x953/3/1.sol\":1549:1579  balances[msg.sender]-numTokens */\n      tag_81\n      swap2\n      swap1\n      tag_65\n      jump\t// in\n    tag_81:\n        /* \"shoot/\\xe6\\x91\\xb8\\xe5\\xba\\x953/3/1.sol\":1526:1534  balances */\n      0x00\n        /* \"shoot/\\xe6\\x91\\xb8\\xe5\\xba\\x953/3/1.sol\":1526:1546  balances[msg.sender] */\n      dup1\n        /* \"shoot/\\xe6\\x91\\xb8\\xe5\\xba\\x953/3/1.sol\":1535:1545  msg.sender */\n      caller\n        /* \"shoot/\\xe6\\x91\\xb8\\xe5\\xba\\x953/3/1.sol\":1526:1546  balances[msg.sender] */\n      0xffffffffffffffffffffffffffffffffffffffff\n      and\n      0xffffffffffffffffffffffffffffffffffffffff\n      and\n      dup2\n      mstore\n      0x20\n      add\n      swap1\n      dup2\n      mstore\n      0x20\n      add\n      0x00\n      keccak256\n        /* \"shoot/\\xe6\\x91\\xb8\\xe5\\xba\\x953/3/1.sol\":1526:1579  balances[msg.sender] = balances[msg.sender]-numTokens */\n      dup2\n      swap1\n      sstore\n      pop\n        /* \"shoot/\\xe6\\x91\\xb8\\xe5\\xba\\x953/3/1.sol\":1630:1639  numTokens */\n      dup2\n        /* \"shoot/\\xe6\\x91\\xb8\\xe5\\xba\\x953/3/1.sol\":1611:1619  balances */\n      0x00\n        /* \"shoot/\\xe6\\x91\\xb8\\xe5\\xba\\x953/3/1.sol\":1611:1629  balances[receiver] */\n      dup1\n        /* \"shoot/\\xe6\\x91\\xb8\\xe5\\xba\\x953/3/1.sol\":1620:1628  receiver */\n      dup6\n        /* \"shoot/\\xe6\\x91\\xb8\\xe5\\xba\\x953/3/1.sol\":1611:1629  balances[receiver] */\n      0xffffffffffffffffffffffffffffffffffffffff\n      and\n      0xffffffffffffffffffffffffffffffffffffffff\n      and\n      dup2\n      mstore\n      0x20\n      add\n      swap1\n      dup2\n      mstore\n      0x20\n      add\n      0x00\n      keccak256\n      sload\n        /* \"shoot/\\xe6\\x91\\xb8\\xe5\\xba\\x953/3/1.sol\":1611:1639  balances[receiver]+numTokens */\n      tag_82\n      swap2\n      swap1\n      tag_68\n      jump\t// in\n    tag_82:\n        /* \"shoot/\\xe6\\x91\\xb8\\xe5\\xba\\x953/3/1.sol\":1590:1598  balances */\n      0x00\n        /* \"shoot/\\xe6\\x91\\xb8\\xe5\\xba\\x953/3/1.sol\":1590:1608  balances[receiver] */\n      dup1\n        /* \"shoot/\\xe6\\x91\\xb8\\xe5\\xba\\x953/3/1.sol\":1599:1607  receiver */\n      dup6\n        /* \"shoot/\\xe6\\x91\\xb8\\xe5\\xba\\x953/3/1.sol\":1590:1608  balances[receiver] */\n      0xffffffffffffffffffffffffffffffffffffffff\n      and\n      0xffffffffffffffffffffffffffffffffffffffff\n      and\n      dup2\n      mstore\n      0x20\n      add\n      swap1\n      dup2\n      mstore\n      0x20\n      add\n      0x00\n      keccak256\n        /* \"shoot/\\xe6\\x91\\xb8\\xe5\\xba\\x953/3/1.sol\":1590:1639  balances[receiver] = balances[receiver]+numTokens */\n      dup2\n      swap1\n      sstore\n      pop\n        /* \"shoot/\\xe6\\x91\\xb8\\xe5\\xba\\x953/3/1.sol\":1676:1684  receiver */\n      dup3\n        /* \"shoot/\\xe6\\x91\\xb8\\xe5\\xba\\x953/3/1.sol\":1655:1696  Transfer(msg.sender, receiver, numTokens) */\n      0xffffffffffffffffffffffffffffffffffffffff\n      and\n        /* \"shoot/\\xe6\\x91\\xb8\\xe5\\xba\\x953/3/1.sol\":1664:1674  msg.sender */\n      caller\n        /* \"shoot/\\xe6\\x91\\xb8\\xe5\\xba\\x953/3/1.sol\":1655:1696  Transfer(msg.sender, receiver, numTokens) */\n      0xffffffffffffffffffffffffffffffffffffffff\n      and\n      0xddf252ad1be2c89b69c2b068fc378daa952ba7f163c4a11628f55a4df523b3ef\n        /* \"shoot/\\xe6\\x91\\xb8\\xe5\\xba\\x953/3/1.sol\":1686:1695  numTokens */\n      dup5\n        /* \"shoot/\\xe6\\x91\\xb8\\xe5\\xba\\x953/3/1.sol\":1655:1696  Transfer(msg.sender, receiver, numTokens) */\n      mload(0x40)\n      tag_83\n      swap2\n      swap1\n      tag_27\n      jump\t// in\n    tag_83:\n      mload(0x40)\n      dup1\n      swap2\n      sub\n      swap1\n      log3\n        /* \"shoot/\\xe6\\x91\\xb8\\xe5\\xba\\x953/3/1.sol\":1714:1718  true */\n      0x01\n        /* \"shoot/\\xe6\\x91\\xb8\\xe5\\xba\\x953/3/1.sol\":1707:1718  return true */\n      swap1\n      pop\n        /* \"shoot/\\xe6\\x91\\xb8\\xe5\\xba\\x953/3/1.sol\":1376:1726  function transfer(address receiver, uint256 numTokens) public override returns (bool) {... */\n      swap3\n      swap2\n      pop\n      pop\n      jump\t// out\n        /* \"shoot/\\xe6\\x91\\xb8\\xe5\\xba\\x953/3/1.sol\":1966:2104  function allowance(address owner, address delegate) public override view returns (uint) {... */\n    tag_56:\n        /* \"shoot/\\xe6\\x91\\xb8\\xe5\\xba\\x953/3/1.sol\":2048:2052  uint */\n      0x00\n        /* \"shoot/\\xe6\\x91\\xb8\\xe5\\xba\\x953/3/1.sol\":2072:2079  allowed */\n      0x01\n        /* \"shoot/\\xe6\\x91\\xb8\\xe5\\xba\\x953/3/1.sol\":2072:2086  allowed[owner] */\n      0x00\n        /* \"shoot/\\xe6\\x91\\xb8\\xe5\\xba\\x953/3/1.sol\":2080:2085  owner */\n      dup5\n        /* \"shoot/\\xe6\\x91\\xb8\\xe5\\xba\\x953/3/1.sol\":2072:2086  allowed[owner] */\n      0xffffffffffffffffffffffffffffffffffffffff\n      and\n      0xffffffffffffffffffffffffffffffffffffffff\n      and\n      dup2\n      mstore\n      0x20\n      add\n      swap1\n      dup2\n      mstore\n      0x20\n      add\n      0x00\n      keccak256\n        /* \"shoot/\\xe6\\x91\\xb8\\xe5\\xba\\x953/3/1.sol\":2072:2096  allowed[owner][delegate] */\n      0x00\n        /* \"shoot/\\xe6\\x91\\xb8\\xe5\\xba\\x953/3/1.sol\":2087:2095  delegate */\n      dup4\n        /* \"shoot/\\xe6\\x91\\xb8\\xe5\\xba\\x953/3/1.sol\":2072:2096  allowed[owner][delegate] */\n      0xffffffffffffffffffffffffffffffffffffffff\n      and\n      0xffffffffffffffffffffffffffffffffffffffff\n      and\n      dup2\n      mstore\n      0x20\n      add\n      swap1\n      dup2\n      mstore\n      0x20\n      add\n      0x00\n      keccak256\n      sload\n        /* \"shoot/\\xe6\\x91\\xb8\\xe5\\xba\\x953/3/1.sol\":2065:2096  return allowed[owner][delegate] */\n      swap1\n      pop\n        /* \"shoot/\\xe6\\x91\\xb8\\xe5\\xba\\x953/3/1.sol\":1966:2104  function allowance(address owner, address delegate) public override view returns (uint) {... */\n      swap3\n      swap2\n      pop\n      pop\n      jump\t// out\n        /* \"#utility.yul\":7:106   */\n    tag_85:\n        /* \"#utility.yul\":59:65   */\n      0x00\n        /* \"#utility.yul\":93:98   */\n      dup2\n        /* \"#utility.yul\":87:99   */\n      mload\n        /* \"#utility.yul\":77:99   */\n      swap1\n      pop\n        /* \"#utility.yul\":7:106   */\n      swap2\n      swap1\n      pop\n      jump\t// out\n        /* \"#utility.yul\":112:281   */\n    tag_86:\n        /* \"#utility.yul\":196:207   */\n      0x00\n        /* \"#utility.yul\":230:236   */\n      dup3\n        /* \"#utility.yul\":225:228   */\n      dup3\n        /* \"#utility.yul\":218:237   */\n      mstore\n        /* \"#utility.yul\":270:274   */\n      0x20\n        /* \"#utility.yul\":265:268   */\n      dup3\n        /* \"#utility.yul\":261:275   */\n      add\n        /* \"#utility.yul\":246:275   */\n      swap1\n      pop\n        /* \"#utility.yul\":112:281   */\n      swap3\n      swap2\n      pop\n      pop\n      jump\t// out\n        /* \"#utility.yul\":287:533   */\n    tag_87:\n        /* \"#utility.yul\":368:369   */\n      0x00\n        /* \"#utility.yul\":378:491   */\n    tag_117:\n        /* \"#utility.yul\":392:398   */\n      dup4\n        /* \"#utility.yul\":389:390   */\n      dup2\n        /* \"#utility.yul\":386:399   */\n      lt\n        /* \"#utility.yul\":378:491   */\n      iszero\n      tag_119\n      jumpi\n        /* \"#utility.yul\":477:478   */\n      dup1\n        /* \"#utility.yul\":472:475   */\n      dup3\n        /* \"#utility.yul\":468:479   */\n      add\n        /* \"#utility.yul\":462:480   */\n      mload\n        /* \"#utility.yul\":458:459   */\n      dup2\n        /* \"#utility.yul\":453:456   */\n      dup5\n        /* \"#utility.yul\":449:460   */\n      add\n        /* \"#utility.yul\":442:481   */\n      mstore\n        /* \"#utility.yul\":414:416   */\n      0x20\n        /* \"#utility.yul\":411:412   */\n      dup2\n        /* \"#utility.yul\":407:417   */\n      add\n        /* \"#utility.yul\":402:417   */\n      swap1\n      pop\n        /* \"#utility.yul\":378:491   */\n      jump(tag_117)\n    tag_119:\n        /* \"#utility.yul\":525:526   */\n      0x00\n        /* \"#utility.yul\":516:522   */\n      dup5\n        /* \"#utility.yul\":511:514   */\n      dup5\n        /* \"#utility.yul\":507:523   */\n      add\n        /* \"#utility.yul\":500:527   */\n      mstore\n        /* \"#utility.yul\":349:533   */\n      pop\n        /* \"#utility.yul\":287:533   */\n      pop\n      pop\n      pop\n      jump\t// out\n        /* \"#utility.yul\":539:641   */\n    tag_88:\n        /* \"#utility.yul\":580:586   */\n      0x00\n        /* \"#utility.yul\":631:633   */\n      0x1f\n        /* \"#utility.yul\":627:634   */\n      not\n        /* \"#utility.yul\":622:624   */\n      0x1f\n        /* \"#utility.yul\":615:620   */\n      dup4\n        /* \"#utility.yul\":611:625   */\n      add\n        /* \"#utility.yul\":607:635   */\n      and\n        /* \"#utility.yul\":597:635   */\n      swap1\n      pop\n        /* \"#utility.yul\":539:641   */\n      swap2\n      swap1\n      pop\n      jump\t// out\n        /* \"#utility.yul\":647:1024   */\n    tag_89:\n        /* \"#utility.yul\":735:738   */\n      0x00\n        /* \"#utility.yul\":763:802   */\n      tag_122\n        /* \"#utility.yul\":796:801   */\n      dup3\n        /* \"#utility.yul\":763:802   */\n      tag_85\n      jump\t// in\n    tag_122:\n        /* \"#utility.yul\":818:889   */\n      tag_123\n        /* \"#utility.yul\":882:888   */\n      dup2\n        /* \"#utility.yul\":877:880   */\n      dup6\n        /* \"#utility.yul\":818:889   */\n      tag_86\n      jump\t// in\n    tag_123:\n        /* \"#utility.yul\":811:889   */\n      swap4\n      pop\n        /* \"#utility.yul\":898:963   */\n      tag_124\n        /* \"#utility.yul\":956:962   */\n      dup2\n        /* \"#utility.yul\":951:954   */\n      dup6\n        /* \"#utility.yul\":944:948   */\n      0x20\n        /* \"#utility.yul\":937:942   */\n      dup7\n        /* \"#utility.yul\":933:949   */\n      add\n        /* \"#utility.yul\":898:963   */\n      tag_87\n      jump\t// in\n    tag_124:\n        /* \"#utility.yul\":988:1017   */\n      tag_125\n        /* \"#utility.yul\":1010:1016   */\n      dup2\n        /* \"#utility.yul\":988:1017   */\n      tag_88\n      jump\t// in\n    tag_125:\n        /* \"#utility.yul\":983:986   */\n      dup5\n        /* \"#utility.yul\":979:1018   */\n      add\n        /* \"#utility.yul\":972:1018   */\n      swap2\n      pop\n        /* \"#utility.yul\":739:1024   */\n      pop\n        /* \"#utility.yul\":647:1024   */\n      swap3\n      swap2\n      pop\n      pop\n      jump\t// out\n        /* \"#utility.yul\":1030:1343   */\n    tag_17:\n        /* \"#utility.yul\":1143:1147   */\n      0x00\n        /* \"#utility.yul\":1181:1183   */\n      0x20\n        /* \"#utility.yul\":1170:1179   */\n      dup3\n        /* \"#utility.yul\":1166:1184   */\n      add\n        /* \"#utility.yul\":1158:1184   */\n      swap1\n      pop\n        /* \"#utility.yul\":1230:1239   */\n      dup2\n        /* \"#utility.yul\":1224:1228   */\n      dup2\n        /* \"#utility.yul\":1220:1240   */\n      sub\n        /* \"#utility.yul\":1216:1217   */\n      0x00\n        /* \"#utility.yul\":1205:1214   */\n      dup4\n        /* \"#utility.yul\":1201:1218   */\n      add\n        /* \"#utility.yul\":1194:1241   */\n      mstore\n        /* \"#utility.yul\":1258:1336   */\n      tag_127\n        /* \"#utility.yul\":1331:1335   */\n      dup2\n        /* \"#utility.yul\":1322:1328   */\n      dup5\n        /* \"#utility.yul\":1258:1336   */\n      tag_89\n      jump\t// in\n    tag_127:\n        /* \"#utility.yul\":1250:1336   */\n      swap1\n      pop\n        /* \"#utility.yul\":1030:1343   */\n      swap3\n      swap2\n      pop\n      pop\n      jump\t// out\n        /* \"#utility.yul\":1430:1547   */\n    tag_91:\n        /* \"#utility.yul\":1539:1540   */\n      0x00\n        /* \"#utility.yul\":1536:1537   */\n      dup1\n        /* \"#utility.yul\":1529:1541   */\n      revert\n        /* \"#utility.yul\":1553:1670   */\n    tag_92:\n        /* \"#utility.yul\":1662:1663   */\n      0x00\n        /* \"#utility.yul\":1659:1660   */\n      dup1\n        /* \"#utility.yul\":1652:1664   */\n      revert\n        /* \"#utility.yul\":1676:1802   */\n    tag_93:\n        /* \"#utility.yul\":1713:1720   */\n      0x00\n        /* \"#utility.yul\":1753:1795   */\n      0xffffffffffffffffffffffffffffffffffffffff\n        /* \"#utility.yul\":1746:1751   */\n      dup3\n        /* \"#utility.yul\":1742:1796   */\n      and\n        /* \"#utility.yul\":1731:1796   */\n      swap1\n      pop\n        /* \"#utility.yul\":1676:1802   */\n      swap2\n      swap1\n      pop\n      jump\t// out\n        /* \"#utility.yul\":1808:1904   */\n    tag_94:\n        /* \"#utility.yul\":1845:1852   */\n      0x00\n        /* \"#utility.yul\":1874:1898   */\n      tag_133\n        /* \"#utility.yul\":1892:1897   */\n      dup3\n        /* \"#utility.yul\":1874:1898   */\n      tag_93\n      jump\t// in\n    tag_133:\n        /* \"#utility.yul\":1863:1898   */\n      swap1\n      pop\n        /* \"#utility.yul\":1808:1904   */\n      swap2\n      swap1\n      pop\n      jump\t// out\n        /* \"#utility.yul\":1910:2032   */\n    tag_95:\n        /* \"#utility.yul\":1983:2007   */\n      tag_135\n        /* \"#utility.yul\":2001:2006   */\n      dup2\n        /* \"#utility.yul\":1983:2007   */\n      tag_94\n      jump\t// in\n    tag_135:\n        /* \"#utility.yul\":1976:1981   */\n      dup2\n        /* \"#utility.yul\":1973:2008   */\n      eq\n        /* \"#utility.yul\":1963:2026   */\n      tag_136\n      jumpi\n        /* \"#utility.yul\":2022:2023   */\n      0x00\n        /* \"#utility.yul\":2019:2020   */\n      dup1\n        /* \"#utility.yul\":2012:2024   */\n      revert\n        /* \"#utility.yul\":1963:2026   */\n    tag_136:\n        /* \"#utility.yul\":1910:2032   */\n      pop\n      jump\t// out\n        /* \"#utility.yul\":2038:2177   */\n    tag_96:\n        /* \"#utility.yul\":2084:2089   */\n      0x00\n        /* \"#utility.yul\":2122:2128   */\n      dup2\n        /* \"#utility.yul\":2109:2129   */\n      calldataload\n        /* \"#utility.yul\":2100:2129   */\n      swap1\n      pop\n        /* \"#utility.yul\":2138:2171   */\n      tag_138\n        /* \"#utility.yul\":2165:2170   */\n      dup2\n        /* \"#utility.yul\":2138:2171   */\n      tag_95\n      jump\t// in\n    tag_138:\n        /* \"#utility.yul\":2038:2177   */\n      swap3\n      swap2\n      pop\n      pop\n      jump\t// out\n        /* \"#utility.yul\":2183:2260   */\n    tag_97:\n        /* \"#utility.yul\":2220:2227   */\n      0x00\n        /* \"#utility.yul\":2249:2254   */\n      dup2\n        /* \"#utility.yul\":2238:2254   */\n      swap1\n      pop\n        /* \"#utility.yul\":2183:2260   */\n      swap2\n      swap1\n      pop\n      jump\t// out\n        /* \"#utility.yul\":2266:2388   */\n    tag_98:\n        /* \"#utility.yul\":2339:2363   */\n      tag_141\n        /* \"#utility.yul\":2357:2362   */\n      dup2\n        /* \"#utility.yul\":2339:2363   */\n      tag_97\n      jump\t// in\n    tag_141:\n        /* \"#utility.yul\":2332:2337   */\n      dup2\n        /* \"#utility.yul\":2329:2364   */\n      eq\n        /* \"#utility.yul\":2319:2382   */\n      tag_142\n      jumpi\n        /* \"#utility.yul\":2378:2379   */\n      0x00\n        /* \"#utility.yul\":2375:2376   */\n      dup1\n        /* \"#utility.yul\":2368:2380   */\n      revert\n        /* \"#utility.yul\":2319:2382   */\n    tag_142:\n        /* \"#utility.yul\":2266:2388   */\n      pop\n      jump\t// out\n        /* \"#utility.yul\":2394:2533   */\n    tag_99:\n        /* \"#utility.yul\":2440:2445   */\n      0x00\n        /* \"#utility.yul\":2478:2484   */\n      dup2\n        /* \"#utility.yul\":2465:2485   */\n      calldataload\n        /* \"#utility.yul\":2456:2485   */\n      swap1\n      pop\n        /* \"#utility.yul\":2494:2527   */\n      tag_144\n        /* \"#utility.yul\":2521:2526   */\n      dup2\n        /* \"#utility.yul\":2494:2527   */\n      tag_98\n      jump\t// in\n    tag_144:\n        /* \"#utility.yul\":2394:2533   */\n      swap3\n      swap2\n      pop\n      pop\n      jump\t// out\n        /* \"#utility.yul\":2539:3013   */\n    tag_20:\n        /* \"#utility.yul\":2607:2613   */\n      0x00\n        /* \"#utility.yul\":2615:2621   */\n      dup1\n        /* \"#utility.yul\":2664:2666   */\n      0x40\n        /* \"#utility.yul\":2652:2661   */\n      dup4\n        /* \"#utility.yul\":2643:2650   */\n      dup6\n        /* \"#utility.yul\":2639:2662   */\n      sub\n        /* \"#utility.yul\":2635:2667   */\n      slt\n        /* \"#utility.yul\":2632:2751   */\n      iszero\n      tag_146\n      jumpi\n        /* \"#utility.yul\":2670:2749   */\n      tag_147\n      tag_91\n      jump\t// in\n    tag_147:\n        /* \"#utility.yul\":2632:2751   */\n    tag_146:\n        /* \"#utility.yul\":2790:2791   */\n      0x00\n        /* \"#utility.yul\":2815:2868   */\n      tag_148\n        /* \"#utility.yul\":2860:2867   */\n      dup6\n        /* \"#utility.yul\":2851:2857   */\n      dup3\n        /* \"#utility.yul\":2840:2849   */\n      dup7\n        /* \"#utility.yul\":2836:2858   */\n      add\n        /* \"#utility.yul\":2815:2868   */\n      tag_96\n      jump\t// in\n    tag_148:\n        /* \"#utility.yul\":2805:2868   */\n      swap3\n      pop\n        /* \"#utility.yul\":2761:2878   */\n      pop\n        /* \"#utility.yul\":2917:2919   */\n      0x20\n        /* \"#utility.yul\":2943:2996   */\n      tag_149\n        /* \"#utility.yul\":2988:2995   */\n      dup6\n        /* \"#utility.yul\":2979:2985   */\n      dup3\n        /* \"#utility.yul\":2968:2977   */\n      dup7\n        /* \"#utility.yul\":2964:2986   */\n      add\n        /* \"#utility.yul\":2943:2996   */\n      tag_99\n      jump\t// in\n    tag_149:\n        /* \"#utility.yul\":2933:2996   */\n      swap2\n      pop\n        /* \"#utility.yul\":2888:3006   */\n      pop\n        /* \"#utility.yul\":2539:3013   */\n      swap3\n      pop\n      swap3\n      swap1\n      pop\n      jump\t// out\n        /* \"#utility.yul\":3019:3109   */\n    tag_100:\n        /* \"#utility.yul\":3053:3060   */\n      0x00\n        /* \"#utility.yul\":3096:3101   */\n      dup2\n        /* \"#utility.yul\":3089:3102   */\n      iszero\n        /* \"#utility.yul\":3082:3103   */\n      iszero\n        /* \"#utility.yul\":3071:3103   */\n      swap1\n      pop\n        /* \"#utility.yul\":3019:3109   */\n      swap2\n      swap1\n      pop\n      jump\t// out\n        /* \"#utility.yul\":3115:3224   */\n    tag_101:\n        /* \"#utility.yul\":3196:3217   */\n      tag_152\n        /* \"#utility.yul\":3211:3216   */\n      dup2\n        /* \"#utility.yul\":3196:3217   */\n      tag_100\n      jump\t// in\n    tag_152:\n        /* \"#utility.yul\":3191:3194   */\n      dup3\n        /* \"#utility.yul\":3184:3218   */\n      mstore\n        /* \"#utility.yul\":3115:3224   */\n      pop\n      pop\n      jump\t// out\n        /* \"#utility.yul\":3230:3440   */\n    tag_23:\n        /* \"#utility.yul\":3317:3321   */\n      0x00\n        /* \"#utility.yul\":3355:3357   */\n      0x20\n        /* \"#utility.yul\":3344:3353   */\n      dup3\n        /* \"#utility.yul\":3340:3358   */\n      add\n        /* \"#utility.yul\":3332:3358   */\n      swap1\n      pop\n        /* \"#utility.yul\":3368:3433   */\n      tag_154\n        /* \"#utility.yul\":3430:3431   */\n      0x00\n        /* \"#utility.yul\":3419:3428   */\n      dup4\n        /* \"#utility.yul\":3415:3432   */\n      add\n        /* \"#utility.yul\":3406:3412   */\n      dup5\n        /* \"#utility.yul\":3368:3433   */\n      tag_101\n      jump\t// in\n    tag_154:\n        /* \"#utility.yul\":3230:3440   */\n      swap3\n      swap2\n      pop\n      pop\n      jump\t// out\n        /* \"#utility.yul\":3446:3564   */\n    tag_102:\n        /* \"#utility.yul\":3533:3557   */\n      tag_156\n        /* \"#utility.yul\":3551:3556   */\n      dup2\n        /* \"#utility.yul\":3533:3557   */\n      tag_97\n      jump\t// in\n    tag_156:\n        /* \"#utility.yul\":3528:3531   */\n      dup3\n        /* \"#utility.yul\":3521:3558   */\n      mstore\n        /* \"#utility.yul\":3446:3564   */\n      pop\n      pop\n      jump\t// out\n        /* \"#utility.yul\":3570:3792   */\n    tag_27:\n        /* \"#utility.yul\":3663:3667   */\n      0x00\n        /* \"#utility.yul\":3701:3703   */\n      0x20\n        /* \"#utility.yul\":3690:3699   */\n      dup3\n        /* \"#utility.yul\":3686:3704   */\n      add\n        /* \"#utility.yul\":3678:3704   */\n      swap1\n      pop\n        /* \"#utility.yul\":3714:3785   */\n      tag_158\n        /* \"#utility.yul\":3782:3783   */\n      0x00\n        /* \"#utility.yul\":3771:3780   */\n      dup4\n        /* \"#utility.yul\":3767:3784   */\n      add\n        /* \"#utility.yul\":3758:3764   */\n      dup5\n        /* \"#utility.yul\":3714:3785   */\n      tag_102\n      jump\t// in\n    tag_158:\n        /* \"#utility.yul\":3570:3792   */\n      swap3\n      swap2\n      pop\n      pop\n      jump\t// out\n        /* \"#utility.yul\":3798:4417   */\n    tag_30:\n        /* \"#utility.yul\":3875:3881   */\n      0x00\n        /* \"#utility.yul\":3883:3889   */\n      dup1\n        /* \"#utility.yul\":3891:3897   */\n      0x00\n        /* \"#utility.yul\":3940:3942   */\n      0x60\n        /* \"#utility.yul\":3928:3937   */\n      dup5\n        /* \"#utility.yul\":3919:3926   */\n      dup7\n        /* \"#utility.yul\":3915:3938   */\n      sub\n        /* \"#utility.yul\":3911:3943   */\n      slt\n        /* \"#utility.yul\":3908:4027   */\n      iszero\n      tag_160\n      jumpi\n        /* \"#utility.yul\":3946:4025   */\n      tag_161\n      tag_91\n      jump\t// in\n    tag_161:\n        /* \"#utility.yul\":3908:4027   */\n    tag_160:\n        /* \"#utility.yul\":4066:4067   */\n      0x00\n        /* \"#utility.yul\":4091:4144   */\n      tag_162\n        /* \"#utility.yul\":4136:4143   */\n      dup7\n        /* \"#utility.yul\":4127:4133   */\n      dup3\n        /* \"#utility.yul\":4116:4125   */\n      dup8\n        /* \"#utility.yul\":4112:4134   */\n      add\n        /* \"#utility.yul\":4091:4144   */\n      tag_96\n      jump\t// in\n    tag_162:\n        /* \"#utility.yul\":4081:4144   */\n      swap4\n      pop\n        /* \"#utility.yul\":4037:4154   */\n      pop\n        /* \"#utility.yul\":4193:4195   */\n      0x20\n        /* \"#utility.yul\":4219:4272   */\n      tag_163\n        /* \"#utility.yul\":4264:4271   */\n      dup7\n        /* \"#utility.yul\":4255:4261   */\n      dup3\n        /* \"#utility.yul\":4244:4253   */\n      dup8\n        /* \"#utility.yul\":4240:4262   */\n      add\n        /* \"#utility.yul\":4219:4272   */\n      tag_96\n      jump\t// in\n    tag_163:\n        /* \"#utility.yul\":4209:4272   */\n      swap3\n      pop\n        /* \"#utility.yul\":4164:4282   */\n      pop\n        /* \"#utility.yul\":4321:4323   */\n      0x40\n        /* \"#utility.yul\":4347:4400   */\n      tag_164\n        /* \"#utility.yul\":4392:4399   */\n      dup7\n        /* \"#utility.yul\":4383:4389   */\n      dup3\n        /* \"#utility.yul\":4372:4381   */\n      dup8\n        /* \"#utility.yul\":4368:4390   */\n      add\n        /* \"#utility.yul\":4347:4400   */\n      tag_99\n      jump\t// in\n    tag_164:\n        /* \"#utility.yul\":4337:4400   */\n      swap2\n      pop\n        /* \"#utility.yul\":4292:4410   */\n      pop\n        /* \"#utility.yul\":3798:4417   */\n      swap3\n      pop\n      swap3\n      pop\n      swap3\n      jump\t// out\n        /* \"#utility.yul\":4423:4509   */\n    tag_103:\n        /* \"#utility.yul\":4458:4465   */\n      0x00\n        /* \"#utility.yul\":4498:4502   */\n      0xff\n        /* \"#utility.yul\":4491:4496   */\n      dup3\n        /* \"#utility.yul\":4487:4503   */\n      and\n        /* \"#utility.yul\":4476:4503   */\n      swap1\n      pop\n        /* \"#utility.yul\":4423:4509   */\n      swap2\n      swap1\n      pop\n      jump\t// out\n        /* \"#utility.yul\":4515:4627   */\n    tag_104:\n        /* \"#utility.yul\":4598:4620   */\n      tag_167\n        /* \"#utility.yul\":4614:4619   */\n      dup2\n        /* \"#utility.yul\":4598:4620   */\n      tag_103\n      jump\t// in\n    tag_167:\n        /* \"#utility.yul\":4593:4596   */\n      dup3\n        /* \"#utility.yul\":4586:4621   */\n      mstore\n        /* \"#utility.yul\":4515:4627   */\n      pop\n      pop\n      jump\t// out\n        /* \"#utility.yul\":4633:4847   */\n    tag_36:\n        /* \"#utility.yul\":4722:4726   */\n      0x00\n        /* \"#utility.yul\":4760:4762   */\n      0x20\n        /* \"#utility.yul\":4749:4758   */\n      dup3\n        /* \"#utility.yul\":4745:4763   */\n      add\n        /* \"#utility.yul\":4737:4763   */\n      swap1\n      pop\n        /* \"#utility.yul\":4773:4840   */\n      tag_169\n        /* \"#utility.yul\":4837:4838   */\n      0x00\n        /* \"#utility.yul\":4826:4835   */\n      dup4\n        /* \"#utility.yul\":4822:4839   */\n      add\n        /* \"#utility.yul\":4813:4819   */\n      dup5\n        /* \"#utility.yul\":4773:4840   */\n      tag_104\n      jump\t// in\n    tag_169:\n        /* \"#utility.yul\":4633:4847   */\n      swap3\n      swap2\n      pop\n      pop\n      jump\t// out\n        /* \"#utility.yul\":4853:4970   */\n    tag_105:\n        /* \"#utility.yul\":4962:4963   */\n      0x00\n        /* \"#utility.yul\":4959:4960   */\n      dup1\n        /* \"#utility.yul\":4952:4964   */\n      revert\n        /* \"#utility.yul\":4976:5093   */\n    tag_106:\n        /* \"#utility.yul\":5085:5086   */\n      0x00\n        /* \"#utility.yul\":5082:5083   */\n      dup1\n        /* \"#utility.yul\":5075:5087   */\n      revert\n        /* \"#utility.yul\":5099:5216   */\n    tag_107:\n        /* \"#utility.yul\":5208:5209   */\n      0x00\n        /* \"#utility.yul\":5205:5206   */\n      dup1\n        /* \"#utility.yul\":5198:5210   */\n      revert\n        /* \"#utility.yul\":5235:5787   */\n    tag_108:\n        /* \"#utility.yul\":5292:5300   */\n      0x00\n        /* \"#utility.yul\":5302:5308   */\n      dup1\n        /* \"#utility.yul\":5352:5355   */\n      dup4\n        /* \"#utility.yul\":5345:5349   */\n      0x1f\n        /* \"#utility.yul\":5337:5343   */\n      dup5\n        /* \"#utility.yul\":5333:5350   */\n      add\n        /* \"#utility.yul\":5329:5356   */\n      slt\n        /* \"#utility.yul\":5319:5441   */\n      tag_174\n      jumpi\n        /* \"#utility.yul\":5360:5439   */\n      tag_175\n      tag_105\n      jump\t// in\n    tag_175:\n        /* \"#utility.yul\":5319:5441   */\n    tag_174:\n        /* \"#utility.yul\":5473:5479   */\n      dup3\n        /* \"#utility.yul\":5460:5480   */\n      calldataload\n        /* \"#utility.yul\":5450:5480   */\n      swap1\n      pop\n        /* \"#utility.yul\":5503:5521   */\n      0xffffffffffffffff\n        /* \"#utility.yul\":5495:5501   */\n      dup2\n        /* \"#utility.yul\":5492:5522   */\n      gt\n        /* \"#utility.yul\":5489:5606   */\n      iszero\n      tag_176\n      jumpi\n        /* \"#utility.yul\":5525:5604   */\n      tag_177\n      tag_106\n      jump\t// in\n    tag_177:\n        /* \"#utility.yul\":5489:5606   */\n    tag_176:\n        /* \"#utility.yul\":5639:5643   */\n      0x20\n        /* \"#utility.yul\":5631:5637   */\n      dup4\n        /* \"#utility.yul\":5627:5644   */\n      add\n        /* \"#utility.yul\":5615:5644   */\n      swap2\n      pop\n        /* \"#utility.yul\":5693:5696   */\n      dup4\n        /* \"#utility.yul\":5685:5689   */\n      0x01\n        /* \"#utility.yul\":5677:5683   */\n      dup3\n        /* \"#utility.yul\":5673:5690   */\n      mul\n        /* \"#utility.yul\":5663:5671   */\n      dup4\n        /* \"#utility.yul\":5659:5691   */\n      add\n        /* \"#utility.yul\":5656:5697   */\n      gt\n        /* \"#utility.yul\":5653:5781   */\n      iszero\n      tag_178\n      jumpi\n        /* \"#utility.yul\":5700:5779   */\n      tag_179\n      tag_107\n      jump\t// in\n    tag_179:\n        /* \"#utility.yul\":5653:5781   */\n    tag_178:\n        /* \"#utility.yul\":5235:5787   */\n      swap3\n      pop\n      swap3\n      swap1\n      pop\n      jump\t// out\n        /* \"#utility.yul\":5793:6610   */\n    tag_39:\n        /* \"#utility.yul\":5881:5887   */\n      0x00\n        /* \"#utility.yul\":5889:5895   */\n      dup1\n        /* \"#utility.yul\":5897:5903   */\n      0x00\n        /* \"#utility.yul\":5905:5911   */\n      dup1\n        /* \"#utility.yul\":5954:5956   */\n      0x60\n        /* \"#utility.yul\":5942:5951   */\n      dup6\n        /* \"#utility.yul\":5933:5940   */\n      dup8\n        /* \"#utility.yul\":5929:5952   */\n      sub\n        /* \"#utility.yul\":5925:5957   */\n      slt\n        /* \"#utility.yul\":5922:6041   */\n      iszero\n      tag_181\n      jumpi\n        /* \"#utility.yul\":5960:6039   */\n      tag_182\n      tag_91\n      jump\t// in\n    tag_182:\n        /* \"#utility.yul\":5922:6041   */\n    tag_181:\n        /* \"#utility.yul\":6080:6081   */\n      0x00\n        /* \"#utility.yul\":6105:6158   */\n      tag_183\n        /* \"#utility.yul\":6150:6157   */\n      dup8\n        /* \"#utility.yul\":6141:6147   */\n      dup3\n        /* \"#utility.yul\":6130:6139   */\n      dup9\n        /* \"#utility.yul\":6126:6148   */\n      add\n        /* \"#utility.yul\":6105:6158   */\n      tag_96\n      jump\t// in\n    tag_183:\n        /* \"#utility.yul\":6095:6158   */\n      swap5\n      pop\n        /* \"#utility.yul\":6051:6168   */\n      pop\n        /* \"#utility.yul\":6207:6209   */\n      0x20\n        /* \"#utility.yul\":6233:6286   */\n      tag_184\n        /* \"#utility.yul\":6278:6285   */\n      dup8\n        /* \"#utility.yul\":6269:6275   */\n      dup3\n        /* \"#utility.yul\":6258:6267   */\n      dup9\n        /* \"#utility.yul\":6254:6276   */\n      add\n        /* \"#utility.yul\":6233:6286   */\n      tag_99\n      jump\t// in\n    tag_184:\n        /* \"#utility.yul\":6223:6286   */\n      swap4\n      pop\n        /* \"#utility.yul\":6178:6296   */\n      pop\n        /* \"#utility.yul\":6363:6365   */\n      0x40\n        /* \"#utility.yul\":6352:6361   */\n      dup6\n        /* \"#utility.yul\":6348:6366   */\n      add\n        /* \"#utility.yul\":6335:6367   */\n      calldataload\n        /* \"#utility.yul\":6394:6412   */\n      0xffffffffffffffff\n        /* \"#utility.yul\":6386:6392   */\n      dup2\n        /* \"#utility.yul\":6383:6413   */\n      gt\n        /* \"#utility.yul\":6380:6497   */\n      iszero\n      tag_185\n      jumpi\n        /* \"#utility.yul\":6416:6495   */\n      tag_186\n      tag_92\n      jump\t// in\n    tag_186:\n        /* \"#utility.yul\":6380:6497   */\n    tag_185:\n        /* \"#utility.yul\":6529:6593   */\n      tag_187\n        /* \"#utility.yul\":6585:6592   */\n      dup8\n        /* \"#utility.yul\":6576:6582   */\n      dup3\n        /* \"#utility.yul\":6565:6574   */\n      dup9\n        /* \"#utility.yul\":6561:6583   */\n      add\n        /* \"#utility.yul\":6529:6593   */\n      tag_108\n      jump\t// in\n    tag_187:\n        /* \"#utility.yul\":6511:6593   */\n      swap3\n      pop\n      swap3\n      pop\n        /* \"#utility.yul\":6306:6603   */\n      pop\n        /* \"#utility.yul\":5793:6610   */\n      swap3\n      swap6\n      swap2\n      swap5\n      pop\n      swap3\n      pop\n      jump\t// out\n        /* \"#utility.yul\":6616:6945   */\n    tag_43:\n        /* \"#utility.yul\":6675:6681   */\n      0x00\n        /* \"#utility.yul\":6724:6726   */\n      0x20\n        /* \"#utility.yul\":6712:6721   */\n      dup3\n        /* \"#utility.yul\":6703:6710   */\n      dup5\n        /* \"#utility.yul\":6699:6722   */\n      sub\n        /* \"#utility.yul\":6695:6727   */\n      slt\n        /* \"#utility.yul\":6692:6811   */\n      iszero\n      tag_189\n      jumpi\n        /* \"#utility.yul\":6730:6809   */\n      tag_190\n      tag_91\n      jump\t// in\n    tag_190:\n        /* \"#utility.yul\":6692:6811   */\n    tag_189:\n        /* \"#utility.yul\":6850:6851   */\n      0x00\n        /* \"#utility.yul\":6875:6928   */\n      tag_191\n        /* \"#utility.yul\":6920:6927   */\n      dup5\n        /* \"#utility.yul\":6911:6917   */\n      dup3\n        /* \"#utility.yul\":6900:6909   */\n      dup6\n        /* \"#utility.yul\":6896:6918   */\n      add\n        /* \"#utility.yul\":6875:6928   */\n      tag_96\n      jump\t// in\n    tag_191:\n        /* \"#utility.yul\":6865:6928   */\n      swap2\n      pop\n        /* \"#utility.yul\":6821:6938   */\n      pop\n        /* \"#utility.yul\":6616:6945   */\n      swap3\n      swap2\n      pop\n      pop\n      jump\t// out\n        /* \"#utility.yul\":6951:7425   */\n    tag_55:\n        /* \"#utility.yul\":7019:7025   */\n      0x00\n        /* \"#utility.yul\":7027:7033   */\n      dup1\n        /* \"#utility.yul\":7076:7078   */\n      0x40\n        /* \"#utility.yul\":7064:7073   */\n      dup4\n        /* \"#utility.yul\":7055:7062   */\n      dup6\n        /* \"#utility.yul\":7051:7074   */\n      sub\n        /* \"#utility.yul\":7047:7079   */\n      slt\n        /* \"#utility.yul\":7044:7163   */\n      iszero\n      tag_193\n      jumpi\n        /* \"#utility.yul\":7082:7161   */\n      tag_194\n      tag_91\n      jump\t// in\n    tag_194:\n        /* \"#utility.yul\":7044:7163   */\n    tag_193:\n        /* \"#utility.yul\":7202:7203   */\n      0x00\n        /* \"#utility.yul\":7227:7280   */\n      tag_195\n        /* \"#utility.yul\":7272:7279   */\n      dup6\n        /* \"#utility.yul\":7263:7269   */\n      dup3\n        /* \"#utility.yul\":7252:7261   */\n      dup7\n        /* \"#utility.yul\":7248:7270   */\n      add\n        /* \"#utility.yul\":7227:7280   */\n      tag_96\n      jump\t// in\n    tag_195:\n        /* \"#utility.yul\":7217:7280   */\n      swap3\n      pop\n        /* \"#utility.yul\":7173:7290   */\n      pop\n        /* \"#utility.yul\":7329:7331   */\n      0x20\n        /* \"#utility.yul\":7355:7408   */\n      tag_196\n        /* \"#utility.yul\":7400:7407   */\n      dup6\n        /* \"#utility.yul\":7391:7397   */\n      dup3\n        /* \"#utility.yul\":7380:7389   */\n      dup7\n        /* \"#utility.yul\":7376:7398   */\n      add\n        /* \"#utility.yul\":7355:7408   */\n      tag_96\n      jump\t// in\n    tag_196:\n        /* \"#utility.yul\":7345:7408   */\n      swap2\n      pop\n        /* \"#utility.yul\":7300:7418   */\n      pop\n        /* \"#utility.yul\":6951:7425   */\n      swap3\n      pop\n      swap3\n      swap1\n      pop\n      jump\t// out\n        /* \"#utility.yul\":7431:7611   */\n    tag_109:\n        /* \"#utility.yul\":7479:7556   */\n      0x4e487b7100000000000000000000000000000000000000000000000000000000\n        /* \"#utility.yul\":7476:7477   */\n      0x00\n        /* \"#utility.yul\":7469:7557   */\n      mstore\n        /* \"#utility.yul\":7576:7580   */\n      0x11\n        /* \"#utility.yul\":7573:7574   */\n      0x04\n        /* \"#utility.yul\":7566:7581   */\n      mstore\n        /* \"#utility.yul\":7600:7604   */\n      0x24\n        /* \"#utility.yul\":7597:7598   */\n      0x00\n        /* \"#utility.yul\":7590:7605   */\n      revert\n        /* \"#utility.yul\":7617:7811   */\n    tag_65:\n        /* \"#utility.yul\":7657:7661   */\n      0x00\n        /* \"#utility.yul\":7677:7697   */\n      tag_199\n        /* \"#utility.yul\":7695:7696   */\n      dup3\n        /* \"#utility.yul\":7677:7697   */\n      tag_97\n      jump\t// in\n    tag_199:\n        /* \"#utility.yul\":7672:7697   */\n      swap2\n      pop\n        /* \"#utility.yul\":7711:7731   */\n      tag_200\n        /* \"#utility.yul\":7729:7730   */\n      dup4\n        /* \"#utility.yul\":7711:7731   */\n      tag_97\n      jump\t// in\n    tag_200:\n        /* \"#utility.yul\":7706:7731   */\n      swap3\n      pop\n        /* \"#utility.yul\":7755:7756   */\n      dup3\n        /* \"#utility.yul\":7752:7753   */\n      dup3\n        /* \"#utility.yul\":7748:7757   */\n      sub\n        /* \"#utility.yul\":7740:7757   */\n      swap1\n      pop\n        /* \"#utility.yul\":7779:7780   */\n      dup2\n        /* \"#utility.yul\":7773:7777   */\n      dup2\n        /* \"#utility.yul\":7770:7781   */\n      gt\n        /* \"#utility.yul\":7767:7804   */\n      iszero\n      tag_201\n      jumpi\n        /* \"#utility.yul\":7784:7802   */\n      tag_202\n      tag_109\n      jump\t// in\n    tag_202:\n        /* \"#utility.yul\":7767:7804   */\n    tag_201:\n        /* \"#utility.yul\":7617:7811   */\n      swap3\n      swap2\n      pop\n      pop\n      jump\t// out\n        /* \"#utility.yul\":7817:8008   */\n    tag_68:\n        /* \"#utility.yul\":7857:7860   */\n      0x00\n        /* \"#utility.yul\":7876:7896   */\n      tag_204\n        /* \"#utility.yul\":7894:7895   */\n      dup3\n        /* \"#utility.yul\":7876:7896   */\n      tag_97\n      jump\t// in\n    tag_204:\n        /* \"#utility.yul\":7871:7896   */\n      swap2\n      pop\n        /* \"#utility.yul\":7910:7930   */\n      tag_205\n        /* \"#utility.yul\":7928:7929   */\n      dup4\n        /* \"#utility.yul\":7910:7930   */\n      tag_97\n      jump\t// in\n    tag_205:\n        /* \"#utility.yul\":7905:7930   */\n      swap3\n      pop\n        /* \"#utility.yul\":7953:7954   */\n      dup3\n        /* \"#utility.yul\":7950:7951   */\n      dup3\n        /* \"#utility.yul\":7946:7955   */\n      add\n        /* \"#utility.yul\":7939:7955   */\n      swap1\n      pop\n        /* \"#utility.yul\":7974:7977   */\n      dup1\n        /* \"#utility.yul\":7971:7972   */\n      dup3\n        /* \"#utility.yul\":7968:7978   */\n      gt\n        /* \"#utility.yul\":7965:8001   */\n      iszero\n      tag_206\n      jumpi\n        /* \"#utility.yul\":7981:7999   */\n      tag_207\n      tag_109\n      jump\t// in\n    tag_207:\n        /* \"#utility.yul\":7965:8001   */\n    tag_206:\n        /* \"#utility.yul\":7817:8008   */\n      swap3\n      swap2\n      pop\n      pop\n      jump\t// out\n        /* \"#utility.yul\":8014:8161   */\n    tag_110:\n        /* \"#utility.yul\":8115:8126   */\n      0x00\n        /* \"#utility.yul\":8152:8155   */\n      dup2\n        /* \"#utility.yul\":8137:8155   */\n      swap1\n      pop\n        /* \"#utility.yul\":8014:8161   */\n      swap3\n      swap2\n      pop\n      pop\n      jump\t// out\n        /* \"#utility.yul\":8167:8313   */\n    tag_111:\n        /* \"#utility.yul\":8264:8270   */\n      dup3\n        /* \"#utility.yul\":8259:8262   */\n      dup2\n        /* \"#utility.yul\":8254:8257   */\n      dup4\n        /* \"#utility.yul\":8241:8271   */\n      calldatacopy\n        /* \"#utility.yul\":8305:8306   */\n      0x00\n        /* \"#utility.yul\":8296:8302   */\n      dup4\n        /* \"#utility.yul\":8291:8294   */\n      dup4\n        /* \"#utility.yul\":8287:8303   */\n      add\n        /* \"#utility.yul\":8280:8307   */\n      mstore\n        /* \"#utility.yul\":8167:8313   */\n      pop\n      pop\n      pop\n      jump\t// out\n        /* \"#utility.yul\":8341:8668   */\n    tag_112:\n        /* \"#utility.yul\":8455:8458   */\n      0x00\n        /* \"#utility.yul\":8476:8564   */\n      tag_211\n        /* \"#utility.yul\":8557:8563   */\n      dup4\n        /* \"#utility.yul\":8552:8555   */\n      dup6\n        /* \"#utility.yul\":8476:8564   */\n      tag_110\n      jump\t// in\n    tag_211:\n        /* \"#utility.yul\":8469:8564   */\n      swap4\n      pop\n        /* \"#utility.yul\":8574:8630   */\n      tag_212\n        /* \"#utility.yul\":8623:8629   */\n      dup4\n        /* \"#utility.yul\":8618:8621   */\n      dup6\n        /* \"#utility.yul\":8611:8616   */\n      dup5\n        /* \"#utility.yul\":8574:8630   */\n      tag_111\n      jump\t// in\n    tag_212:\n        /* \"#utility.yul\":8655:8661   */\n      dup3\n        /* \"#utility.yul\":8650:8653   */\n      dup5\n        /* \"#utility.yul\":8646:8662   */\n      add\n        /* \"#utility.yul\":8639:8662   */\n      swap1\n      pop\n        /* \"#utility.yul\":8341:8668   */\n      swap4\n      swap3\n      pop\n      pop\n      pop\n      jump\t// out\n        /* \"#utility.yul\":8674:8965   */\n    tag_72:\n        /* \"#utility.yul\":8814:8817   */\n      0x00\n        /* \"#utility.yul\":8836:8939   */\n      tag_214\n        /* \"#utility.yul\":8935:8938   */\n      dup3\n        /* \"#utility.yul\":8926:8932   */\n      dup5\n        /* \"#utility.yul\":8918:8924   */\n      dup7\n        /* \"#utility.yul\":8836:8939   */\n      tag_112\n      jump\t// in\n    tag_214:\n        /* \"#utility.yul\":8829:8939   */\n      swap2\n      pop\n        /* \"#utility.yul\":8956:8959   */\n      dup2\n        /* \"#utility.yul\":8949:8959   */\n      swap1\n      pop\n        /* \"#utility.yul\":8674:8965   */\n      swap4\n      swap3\n      pop\n      pop\n      pop\n      jump\t// out\n\n    auxdata: 0xa26469706673582212203be25201ac49a9f320c5e99128602283ba8769d132a02fe7a0739559e2d9714664736f6c63430008120033\n}\n",
				"bytecode": {
					"linkReferences": {},
					"object": "6080604052683635c9adc5dea0000060025534801561001d57600080fd5b506002546000803373ffffffffffffffffffffffffffffffffffffffff1673ffffffffffffffffffffffffffffffffffffffff16815260200190815260200160002081905550610fc6806100726000396000f3fe608060405234801561001057600080fd5b506004361061009e5760003560e01c8063478b36d811610066578063478b36d81461015d57806370a082311461017957806395d89b41146101a9578063a9059cbb146101c7578063dd62ed3e146101f75761009e565b806306fdde03146100a3578063095ea7b3146100c157806318160ddd146100f157806323b872dd1461010f578063313ce5671461013f575b600080fd5b6100ab610227565b6040516100b89190610b71565b60405180910390f35b6100db60048036038101906100d69190610c31565b610260565b6040516100e89190610c8c565b60405180910390f35b6100f9610352565b6040516101069190610cb6565b60405180910390f35b61012960048036038101906101249190610cd1565b61035c565b6040516101369190610c8c565b60405180910390f35b6101476106c2565b6040516101549190610d40565b60405180910390f35b61017760048036038101906101729190610dc0565b6106c7565b005b610193600480360381019061018e9190610e34565b610805565b6040516101a09190610cb6565b60405180910390f35b6101b161084d565b6040516101be9190610b71565b60405180910390f35b6101e160048036038101906101dc9190610c31565b610886565b6040516101ee9190610c8c565b60405180910390f35b610211600480360381019061020c9190610e61565b610a5a565b60405161021e9190610cb6565b60405180910390f35b6040518060400160405280600581526020017f455243323000000000000000000000000000000000000000000000000000000081525081565b600081600160003373ffffffffffffffffffffffffffffffffffffffff1673ffffffffffffffffffffffffffffffffffffffff16815260200190815260200160002060008573ffffffffffffffffffffffffffffffffffffffff1673ffffffffffffffffffffffffffffffffffffffff168152602001908152602001600020819055508273ffffffffffffffffffffffffffffffffffffffff163373ffffffffffffffffffffffffffffffffffffffff167f8c5be1e5ebec7d5bd14f71427d1e84f3dd0314c0f7b2291e5b200ac8c7c3b925846040516103409190610cb6565b60405180910390a36001905092915050565b6000600254905090565b60008060008573ffffffffffffffffffffffffffffffffffffffff1673ffffffffffffffffffffffffffffffffffffffff168152602001908152602001600020548211156103a957600080fd5b600160008573ffffffffffffffffffffffffffffffffffffffff1673ffffffffffffffffffffffffffffffffffffffff16815260200190815260200160002060003373ffffffffffffffffffffffffffffffffffffffff1673ffffffffffffffffffffffffffffffffffffffff1681526020019081526020016000205482111561043257600080fd5b816000808673ffffffffffffffffffffffffffffffffffffffff1673ffffffffffffffffffffffffffffffffffffffff1681526020019081526020016000205461047c9190610ed0565b6000808673ffffffffffffffffffffffffffffffffffffffff1673ffffffffffffffffffffffffffffffffffffffff1681526020019081526020016000208190555081600160008673ffffffffffffffffffffffffffffffffffffffff1673ffffffffffffffffffffffffffffffffffffffff16815260200190815260200160002060003373ffffffffffffffffffffffffffffffffffffffff1673ffffffffffffffffffffffffffffffffffffffff168152602001908152602001600020546105469190610ed0565b600160008673ffffffffffffffffffffffffffffffffffffffff1673ffffffffffffffffffffffffffffffffffffffff16815260200190815260200160002060003373ffffffffffffffffffffffffffffffffffffffff1673ffffffffffffffffffffffffffffffffffffffff16815260200190815260200160002081905550816000808573ffffffffffffffffffffffffffffffffffffffff1673ffffffffffffffffffffffffffffffffffffffff168152602001908152602001600020546106109190610f04565b6000808573ffffffffffffffffffffffffffffffffffffffff1673ffffffffffffffffffffffffffffffffffffffff168152602001908152602001600020819055508273ffffffffffffffffffffffffffffffffffffffff168473ffffffffffffffffffffffffffffffffffffffff167fddf252ad1be2c89b69c2b068fc378daa952ba7f163c4a11628f55a4df523b3ef846040516106af9190610cb6565b60405180910390a3600190509392505050565b601281565b82600160003373ffffffffffffffffffffffffffffffffffffffff1673ffffffffffffffffffffffffffffffffffffffff16815260200190815260200160002060008673ffffffffffffffffffffffffffffffffffffffff1673ffffffffffffffffffffffffffffffffffffffff168152602001908152602001600020819055506000808573ffffffffffffffffffffffffffffffffffffffff168484604051610772929190610f77565b6000604051808303816000865af19150503d80600081146107af576040519150601f19603f3d011682016040523d82523d6000602084013e6107b4565b606091505b50915091508181906107fc576040517f08c379a00000000000000000000000000000000000000000000000000000000081526004016107f39190610b71565b60405180910390fd5b50505050505050565b60008060008373ffffffffffffffffffffffffffffffffffffffff1673ffffffffffffffffffffffffffffffffffffffff168152602001908152602001600020549050919050565b6040518060400160405280600381526020017f455243000000000000000000000000000000000000000000000000000000000081525081565b60008060003373ffffffffffffffffffffffffffffffffffffffff1673ffffffffffffffffffffffffffffffffffffffff168152602001908152602001600020548211156108d357600080fd5b816000803373ffffffffffffffffffffffffffffffffffffffff1673ffffffffffffffffffffffffffffffffffffffff1681526020019081526020016000205461091d9190610ed0565b6000803373ffffffffffffffffffffffffffffffffffffffff1673ffffffffffffffffffffffffffffffffffffffff16815260200190815260200160002081905550816000808573ffffffffffffffffffffffffffffffffffffffff1673ffffffffffffffffffffffffffffffffffffffff168152602001908152602001600020546109a99190610f04565b6000808573ffffffffffffffffffffffffffffffffffffffff1673ffffffffffffffffffffffffffffffffffffffff168152602001908152602001600020819055508273ffffffffffffffffffffffffffffffffffffffff163373ffffffffffffffffffffffffffffffffffffffff167fddf252ad1be2c89b69c2b068fc378daa952ba7f163c4a11628f55a4df523b3ef84604051610a489190610cb6565b60405180910390a36001905092915050565b6000600160008473ffffffffffffffffffffffffffffffffffffffff1673ffffffffffffffffffffffffffffffffffffffff16815260200190815260200160002060008373ffffffffffffffffffffffffffffffffffffffff1673ffffffffffffffffffffffffffffffffffffffff16815260200190815260200160002054905092915050565b600081519050919050565b600082825260208201905092915050565b60005b83811015610b1b578082015181840152602081019050610b00565b60008484015250505050565b6000601f19601f8301169050919050565b6000610b4382610ae1565b610b4d8185610aec565b9350610b5d818560208601610afd565b610b6681610b27565b840191505092915050565b60006020820190508181036000830152610b8b8184610b38565b905092915050565b600080fd5b600080fd5b600073ffffffffffffffffffffffffffffffffffffffff82169050919050565b6000610bc882610b9d565b9050919050565b610bd881610bbd565b8114610be357600080fd5b50565b600081359050610bf581610bcf565b92915050565b6000819050919050565b610c0e81610bfb565b8114610c1957600080fd5b50565b600081359050610c2b81610c05565b92915050565b60008060408385031215610c4857610c47610b93565b5b6000610c5685828601610be6565b9250506020610c6785828601610c1c565b9150509250929050565b60008115159050919050565b610c8681610c71565b82525050565b6000602082019050610ca16000830184610c7d565b92915050565b610cb081610bfb565b82525050565b6000602082019050610ccb6000830184610ca7565b92915050565b600080600060608486031215610cea57610ce9610b93565b5b6000610cf886828701610be6565b9350506020610d0986828701610be6565b9250506040610d1a86828701610c1c565b9150509250925092565b600060ff82169050919050565b610d3a81610d24565b82525050565b6000602082019050610d556000830184610d31565b92915050565b600080fd5b600080fd5b600080fd5b60008083601f840112610d8057610d7f610d5b565b5b8235905067ffffffffffffffff811115610d9d57610d9c610d60565b5b602083019150836001820283011115610db957610db8610d65565b5b9250929050565b60008060008060608587031215610dda57610dd9610b93565b5b6000610de887828801610be6565b9450506020610df987828801610c1c565b935050604085013567ffffffffffffffff811115610e1a57610e19610b98565b5b610e2687828801610d6a565b925092505092959194509250565b600060208284031215610e4a57610e49610b93565b5b6000610e5884828501610be6565b91505092915050565b60008060408385031215610e7857610e77610b93565b5b6000610e8685828601610be6565b9250506020610e9785828601610be6565b9150509250929050565b7f4e487b7100000000000000000000000000000000000000000000000000000000600052601160045260246000fd5b6000610edb82610bfb565b9150610ee683610bfb565b9250828203905081811115610efe57610efd610ea1565b5b92915050565b6000610f0f82610bfb565b9150610f1a83610bfb565b9250828201905080821115610f3257610f31610ea1565b5b92915050565b600081905092915050565b82818337600083830152505050565b6000610f5e8385610f38565b9350610f6b838584610f43565b82840190509392505050565b6000610f84828486610f52565b9150819050939250505056fea26469706673582212203be25201ac49a9f320c5e99128602283ba8769d132a02fe7a0739559e2d9714664736f6c63430008120033",
					"opcodes": "PUSH1 0x80 PUSH1 0x40 MSTORE PUSH9 0x3635C9ADC5DEA00000 PUSH1 0x2 SSTORE CALLVALUE DUP1 ISZERO PUSH2 0x1D JUMPI PUSH1 0x0 DUP1 REVERT JUMPDEST POP PUSH1 0x2 SLOAD PUSH1 0x0 DUP1 CALLER PUSH20 0xFFFFFFFFFFFFFFFFFFFFFFFFFFFFFFFFFFFFFFFF AND PUSH20 0xFFFFFFFFFFFFFFFFFFFFFFFFFFFFFFFFFFFFFFFF AND DUP2 MSTORE PUSH1 0x20 ADD SWAP1 DUP2 MSTORE PUSH1 0x20 ADD PUSH1 0x0 KECCAK256 DUP2 SWAP1 SSTORE POP PUSH2 0xFC6 DUP1 PUSH2 0x72 PUSH1 0x0 CODECOPY PUSH1 0x0 RETURN INVALID PUSH1 0x80 PUSH1 0x40 MSTORE CALLVALUE DUP1 ISZERO PUSH2 0x10 JUMPI PUSH1 0x0 DUP1 REVERT JUMPDEST POP PUSH1 0x4 CALLDATASIZE LT PUSH2 0x9E JUMPI PUSH1 0x0 CALLDATALOAD PUSH1 0xE0 SHR DUP1 PUSH4 0x478B36D8 GT PUSH2 0x66 JUMPI DUP1 PUSH4 0x478B36D8 EQ PUSH2 0x15D JUMPI DUP1 PUSH4 0x70A08231 EQ PUSH2 0x179 JUMPI DUP1 PUSH4 0x95D89B41 EQ PUSH2 0x1A9 JUMPI DUP1 PUSH4 0xA9059CBB EQ PUSH2 0x1C7 JUMPI DUP1 PUSH4 0xDD62ED3E EQ PUSH2 0x1F7 JUMPI PUSH2 0x9E JUMP JUMPDEST DUP1 PUSH4 0x6FDDE03 EQ PUSH2 0xA3 JUMPI DUP1 PUSH4 0x95EA7B3 EQ PUSH2 0xC1 JUMPI DUP1 PUSH4 0x18160DDD EQ PUSH2 0xF1 JUMPI DUP1 PUSH4 0x23B872DD EQ PUSH2 0x10F JUMPI DUP1 PUSH4 0x313CE567 EQ PUSH2 0x13F JUMPI JUMPDEST PUSH1 0x0 DUP1 REVERT JUMPDEST PUSH2 0xAB PUSH2 0x227 JUMP JUMPDEST PUSH1 0x40 MLOAD PUSH2 0xB8 SWAP2 SWAP1 PUSH2 0xB71 JUMP JUMPDEST PUSH1 0x40 MLOAD DUP1 SWAP2 SUB SWAP1 RETURN JUMPDEST PUSH2 0xDB PUSH1 0x4 DUP1 CALLDATASIZE SUB DUP2 ADD SWAP1 PUSH2 0xD6 SWAP2 SWAP1 PUSH2 0xC31 JUMP JUMPDEST PUSH2 0x260 JUMP JUMPDEST PUSH1 0x40 MLOAD PUSH2 0xE8 SWAP2 SWAP1 PUSH2 0xC8C JUMP JUMPDEST PUSH1 0x40 MLOAD DUP1 SWAP2 SUB SWAP1 RETURN JUMPDEST PUSH2 0xF9 PUSH2 0x352 JUMP JUMPDEST PUSH1 0x40 MLOAD PUSH2 0x106 SWAP2 SWAP1 PUSH2 0xCB6 JUMP JUMPDEST PUSH1 0x40 MLOAD DUP1 SWAP2 SUB SWAP1 RETURN JUMPDEST PUSH2 0x129 PUSH1 0x4 DUP1 CALLDATASIZE SUB DUP2 ADD SWAP1 PUSH2 0x124 SWAP2 SWAP1 PUSH2 0xCD1 JUMP JUMPDEST PUSH2 0x35C JUMP JUMPDEST PUSH1 0x40 MLOAD PUSH2 0x136 SWAP2 SWAP1 PUSH2 0xC8C JUMP JUMPDEST PUSH1 0x40 MLOAD DUP1 SWAP2 SUB SWAP1 RETURN JUMPDEST PUSH2 0x147 PUSH2 0x6C2 JUMP JUMPDEST PUSH1 0x40 MLOAD PUSH2 0x154 SWAP2 SWAP1 PUSH2 0xD40 JUMP JUMPDEST PUSH1 0x40 MLOAD DUP1 SWAP2 SUB SWAP1 RETURN JUMPDEST PUSH2 0x177 PUSH1 0x4 DUP1 CALLDATASIZE SUB DUP2 ADD SWAP1 PUSH2 0x172 SWAP2 SWAP1 PUSH2 0xDC0 JUMP JUMPDEST PUSH2 0x6C7 JUMP JUMPDEST STOP JUMPDEST PUSH2 0x193 PUSH1 0x4 DUP1 CALLDATASIZE SUB DUP2 ADD SWAP1 PUSH2 0x18E SWAP2 SWAP1 PUSH2 0xE34 JUMP JUMPDEST PUSH2 0x805 JUMP JUMPDEST PUSH1 0x40 MLOAD PUSH2 0x1A0 SWAP2 SWAP1 PUSH2 0xCB6 JUMP JUMPDEST PUSH1 0x40 MLOAD DUP1 SWAP2 SUB SWAP1 RETURN JUMPDEST PUSH2 0x1B1 PUSH2 0x84D JUMP JUMPDEST PUSH1 0x40 MLOAD PUSH2 0x1BE SWAP2 SWAP1 PUSH2 0xB71 JUMP JUMPDEST PUSH1 0x40 MLOAD DUP1 SWAP2 SUB SWAP1 RETURN JUMPDEST PUSH2 0x1E1 PUSH1 0x4 DUP1 CALLDATASIZE SUB DUP2 ADD SWAP1 PUSH2 0x1DC SWAP2 SWAP1 PUSH2 0xC31 JUMP JUMPDEST PUSH2 0x886 JUMP JUMPDEST PUSH1 0x40 MLOAD PUSH2 0x1EE SWAP2 SWAP1 PUSH2 0xC8C JUMP JUMPDEST PUSH1 0x40 MLOAD DUP1 SWAP2 SUB SWAP1 RETURN JUMPDEST PUSH2 0x211 PUSH1 0x4 DUP1 CALLDATASIZE SUB DUP2 ADD SWAP1 PUSH2 0x20C SWAP2 SWAP1 PUSH2 0xE61 JUMP JUMPDEST PUSH2 0xA5A JUMP JUMPDEST PUSH1 0x40 MLOAD PUSH2 0x21E SWAP2 SWAP1 PUSH2 0xCB6 JUMP JUMPDEST PUSH1 0x40 MLOAD DUP1 SWAP2 SUB SWAP1 RETURN JUMPDEST PUSH1 0x40 MLOAD DUP1 PUSH1 0x40 ADD PUSH1 0x40 MSTORE DUP1 PUSH1 0x5 DUP2 MSTORE PUSH1 0x20 ADD PUSH32 0x4552433230000000000000000000000000000000000000000000000000000000 DUP2 MSTORE POP DUP2 JUMP JUMPDEST PUSH1 0x0 DUP2 PUSH1 0x1 PUSH1 0x0 CALLER PUSH20 0xFFFFFFFFFFFFFFFFFFFFFFFFFFFFFFFFFFFFFFFF AND PUSH20 0xFFFFFFFFFFFFFFFFFFFFFFFFFFFFFFFFFFFFFFFF AND DUP2 MSTORE PUSH1 0x20 ADD SWAP1 DUP2 MSTORE PUSH1 0x20 ADD PUSH1 0x0 KECCAK256 PUSH1 0x0 DUP6 PUSH20 0xFFFFFFFFFFFFFFFFFFFFFFFFFFFFFFFFFFFFFFFF AND PUSH20 0xFFFFFFFFFFFFFFFFFFFFFFFFFFFFFFFFFFFFFFFF AND DUP2 MSTORE PUSH1 0x20 ADD SWAP1 DUP2 MSTORE PUSH1 0x20 ADD PUSH1 0x0 KECCAK256 DUP2 SWAP1 SSTORE POP DUP3 PUSH20 0xFFFFFFFFFFFFFFFFFFFFFFFFFFFFFFFFFFFFFFFF AND CALLER PUSH20 0xFFFFFFFFFFFFFFFFFFFFFFFFFFFFFFFFFFFFFFFF AND PUSH32 0x8C5BE1E5EBEC7D5BD14F71427D1E84F3DD0314C0F7B2291E5B200AC8C7C3B925 DUP5 PUSH1 0x40 MLOAD PUSH2 0x340 SWAP2 SWAP1 PUSH2 0xCB6 JUMP JUMPDEST PUSH1 0x40 MLOAD DUP1 SWAP2 SUB SWAP1 LOG3 PUSH1 0x1 SWAP1 POP SWAP3 SWAP2 POP POP JUMP JUMPDEST PUSH1 0x0 PUSH1 0x2 SLOAD SWAP1 POP SWAP1 JUMP JUMPDEST PUSH1 0x0 DUP1 PUSH1 0x0 DUP6 PUSH20 0xFFFFFFFFFFFFFFFFFFFFFFFFFFFFFFFFFFFFFFFF AND PUSH20 0xFFFFFFFFFFFFFFFFFFFFFFFFFFFFFFFFFFFFFFFF AND DUP2 MSTORE PUSH1 0x20 ADD SWAP1 DUP2 MSTORE PUSH1 0x20 ADD PUSH1 0x0 KECCAK256 SLOAD DUP3 GT ISZERO PUSH2 0x3A9 JUMPI PUSH1 0x0 DUP1 REVERT JUMPDEST PUSH1 0x1 PUSH1 0x0 DUP6 PUSH20 0xFFFFFFFFFFFFFFFFFFFFFFFFFFFFFFFFFFFFFFFF AND PUSH20 0xFFFFFFFFFFFFFFFFFFFFFFFFFFFFFFFFFFFFFFFF AND DUP2 MSTORE PUSH1 0x20 ADD SWAP1 DUP2 MSTORE PUSH1 0x20 ADD PUSH1 0x0 KECCAK256 PUSH1 0x0 CALLER PUSH20 0xFFFFFFFFFFFFFFFFFFFFFFFFFFFFFFFFFFFFFFFF AND PUSH20 0xFFFFFFFFFFFFFFFFFFFFFFFFFFFFFFFFFFFFFFFF AND DUP2 MSTORE PUSH1 0x20 ADD SWAP1 DUP2 MSTORE PUSH1 0x20 ADD PUSH1 0x0 KECCAK256 SLOAD DUP3 GT ISZERO PUSH2 0x432 JUMPI PUSH1 0x0 DUP1 REVERT JUMPDEST DUP2 PUSH1 0x0 DUP1 DUP7 PUSH20 0xFFFFFFFFFFFFFFFFFFFFFFFFFFFFFFFFFFFFFFFF AND PUSH20 0xFFFFFFFFFFFFFFFFFFFFFFFFFFFFFFFFFFFFFFFF AND DUP2 MSTORE PUSH1 0x20 ADD SWAP1 DUP2 MSTORE PUSH1 0x20 ADD PUSH1 0x0 KECCAK256 SLOAD PUSH2 0x47C SWAP2 SWAP1 PUSH2 0xED0 JUMP JUMPDEST PUSH1 0x0 DUP1 DUP7 PUSH20 0xFFFFFFFFFFFFFFFFFFFFFFFFFFFFFFFFFFFFFFFF AND PUSH20 0xFFFFFFFFFFFFFFFFFFFFFFFFFFFFFFFFFFFFFFFF AND DUP2 MSTORE PUSH1 0x20 ADD SWAP1 DUP2 MSTORE PUSH1 0x20 ADD PUSH1 0x0 KECCAK256 DUP2 SWAP1 SSTORE POP DUP2 PUSH1 0x1 PUSH1 0x0 DUP7 PUSH20 0xFFFFFFFFFFFFFFFFFFFFFFFFFFFFFFFFFFFFFFFF AND PUSH20 0xFFFFFFFFFFFFFFFFFFFFFFFFFFFFFFFFFFFFFFFF AND DUP2 MSTORE PUSH1 0x20 ADD SWAP1 DUP2 MSTORE PUSH1 0x20 ADD PUSH1 0x0 KECCAK256 PUSH1 0x0 CALLER PUSH20 0xFFFFFFFFFFFFFFFFFFFFFFFFFFFFFFFFFFFFFFFF AND PUSH20 0xFFFFFFFFFFFFFFFFFFFFFFFFFFFFFFFFFFFFFFFF AND DUP2 MSTORE PUSH1 0x20 ADD SWAP1 DUP2 MSTORE PUSH1 0x20 ADD PUSH1 0x0 KECCAK256 SLOAD PUSH2 0x546 SWAP2 SWAP1 PUSH2 0xED0 JUMP JUMPDEST PUSH1 0x1 PUSH1 0x0 DUP7 PUSH20 0xFFFFFFFFFFFFFFFFFFFFFFFFFFFFFFFFFFFFFFFF AND PUSH20 0xFFFFFFFFFFFFFFFFFFFFFFFFFFFFFFFFFFFFFFFF AND DUP2 MSTORE PUSH1 0x20 ADD SWAP1 DUP2 MSTORE PUSH1 0x20 ADD PUSH1 0x0 KECCAK256 PUSH1 0x0 CALLER PUSH20 0xFFFFFFFFFFFFFFFFFFFFFFFFFFFFFFFFFFFFFFFF AND PUSH20 0xFFFFFFFFFFFFFFFFFFFFFFFFFFFFFFFFFFFFFFFF AND DUP2 MSTORE PUSH1 0x20 ADD SWAP1 DUP2 MSTORE PUSH1 0x20 ADD PUSH1 0x0 KECCAK256 DUP2 SWAP1 SSTORE POP DUP2 PUSH1 0x0 DUP1 DUP6 PUSH20 0xFFFFFFFFFFFFFFFFFFFFFFFFFFFFFFFFFFFFFFFF AND PUSH20 0xFFFFFFFFFFFFFFFFFFFFFFFFFFFFFFFFFFFFFFFF AND DUP2 MSTORE PUSH1 0x20 ADD SWAP1 DUP2 MSTORE PUSH1 0x20 ADD PUSH1 0x0 KECCAK256 SLOAD PUSH2 0x610 SWAP2 SWAP1 PUSH2 0xF04 JUMP JUMPDEST PUSH1 0x0 DUP1 DUP6 PUSH20 0xFFFFFFFFFFFFFFFFFFFFFFFFFFFFFFFFFFFFFFFF AND PUSH20 0xFFFFFFFFFFFFFFFFFFFFFFFFFFFFFFFFFFFFFFFF AND DUP2 MSTORE PUSH1 0x20 ADD SWAP1 DUP2 MSTORE PUSH1 0x20 ADD PUSH1 0x0 KECCAK256 DUP2 SWAP1 SSTORE POP DUP3 PUSH20 0xFFFFFFFFFFFFFFFFFFFFFFFFFFFFFFFFFFFFFFFF AND DUP5 PUSH20 0xFFFFFFFFFFFFFFFFFFFFFFFFFFFFFFFFFFFFFFFF AND PUSH32 0xDDF252AD1BE2C89B69C2B068FC378DAA952BA7F163C4A11628F55A4DF523B3EF DUP5 PUSH1 0x40 MLOAD PUSH2 0x6AF SWAP2 SWAP1 PUSH2 0xCB6 JUMP JUMPDEST PUSH1 0x40 MLOAD DUP1 SWAP2 SUB SWAP1 LOG3 PUSH1 0x1 SWAP1 POP SWAP4 SWAP3 POP POP POP JUMP JUMPDEST PUSH1 0x12 DUP2 JUMP JUMPDEST DUP3 PUSH1 0x1 PUSH1 0x0 CALLER PUSH20 0xFFFFFFFFFFFFFFFFFFFFFFFFFFFFFFFFFFFFFFFF AND PUSH20 0xFFFFFFFFFFFFFFFFFFFFFFFFFFFFFFFFFFFFFFFF AND DUP2 MSTORE PUSH1 0x20 ADD SWAP1 DUP2 MSTORE PUSH1 0x20 ADD PUSH1 0x0 KECCAK256 PUSH1 0x0 DUP7 PUSH20 0xFFFFFFFFFFFFFFFFFFFFFFFFFFFFFFFFFFFFFFFF AND PUSH20 0xFFFFFFFFFFFFFFFFFFFFFFFFFFFFFFFFFFFFFFFF AND DUP2 MSTORE PUSH1 0x20 ADD SWAP1 DUP2 MSTORE PUSH1 0x20 ADD PUSH1 0x0 KECCAK256 DUP2 SWAP1 SSTORE POP PUSH1 0x0 DUP1 DUP6 PUSH20 0xFFFFFFFFFFFFFFFFFFFFFFFFFFFFFFFFFFFFFFFF AND DUP5 DUP5 PUSH1 0x40 MLOAD PUSH2 0x772 SWAP3 SWAP2 SWAP1 PUSH2 0xF77 JUMP JUMPDEST PUSH1 0x0 PUSH1 0x40 MLOAD DUP1 DUP4 SUB DUP2 PUSH1 0x0 DUP7 GAS CALL SWAP2 POP POP RETURNDATASIZE DUP1 PUSH1 0x0 DUP2 EQ PUSH2 0x7AF JUMPI PUSH1 0x40 MLOAD SWAP2 POP PUSH1 0x1F NOT PUSH1 0x3F RETURNDATASIZE ADD AND DUP3 ADD PUSH1 0x40 MSTORE RETURNDATASIZE DUP3 MSTORE RETURNDATASIZE PUSH1 0x0 PUSH1 0x20 DUP5 ADD RETURNDATACOPY PUSH2 0x7B4 JUMP JUMPDEST PUSH1 0x60 SWAP2 POP JUMPDEST POP SWAP2 POP SWAP2 POP DUP2 DUP2 SWAP1 PUSH2 0x7FC JUMPI PUSH1 0x40 MLOAD PUSH32 0x8C379A000000000000000000000000000000000000000000000000000000000 DUP2 MSTORE PUSH1 0x4 ADD PUSH2 0x7F3 SWAP2 SWAP1 PUSH2 0xB71 JUMP JUMPDEST PUSH1 0x40 MLOAD DUP1 SWAP2 SUB SWAP1 REVERT JUMPDEST POP POP POP POP POP POP POP JUMP JUMPDEST PUSH1 0x0 DUP1 PUSH1 0x0 DUP4 PUSH20 0xFFFFFFFFFFFFFFFFFFFFFFFFFFFFFFFFFFFFFFFF AND PUSH20 0xFFFFFFFFFFFFFFFFFFFFFFFFFFFFFFFFFFFFFFFF AND DUP2 MSTORE PUSH1 0x20 ADD SWAP1 DUP2 MSTORE PUSH1 0x20 ADD PUSH1 0x0 KECCAK256 SLOAD SWAP1 POP SWAP2 SWAP1 POP JUMP JUMPDEST PUSH1 0x40 MLOAD DUP1 PUSH1 0x40 ADD PUSH1 0x40 MSTORE DUP1 PUSH1 0x3 DUP2 MSTORE PUSH1 0x20 ADD PUSH32 0x4552430000000000000000000000000000000000000000000000000000000000 DUP2 MSTORE POP DUP2 JUMP JUMPDEST PUSH1 0x0 DUP1 PUSH1 0x0 CALLER PUSH20 0xFFFFFFFFFFFFFFFFFFFFFFFFFFFFFFFFFFFFFFFF AND PUSH20 0xFFFFFFFFFFFFFFFFFFFFFFFFFFFFFFFFFFFFFFFF AND DUP2 MSTORE PUSH1 0x20 ADD SWAP1 DUP2 MSTORE PUSH1 0x20 ADD PUSH1 0x0 KECCAK256 SLOAD DUP3 GT ISZERO PUSH2 0x8D3 JUMPI PUSH1 0x0 DUP1 REVERT JUMPDEST DUP2 PUSH1 0x0 DUP1 CALLER PUSH20 0xFFFFFFFFFFFFFFFFFFFFFFFFFFFFFFFFFFFFFFFF AND PUSH20 0xFFFFFFFFFFFFFFFFFFFFFFFFFFFFFFFFFFFFFFFF AND DUP2 MSTORE PUSH1 0x20 ADD SWAP1 DUP2 MSTORE PUSH1 0x20 ADD PUSH1 0x0 KECCAK256 SLOAD PUSH2 0x91D SWAP2 SWAP1 PUSH2 0xED0 JUMP JUMPDEST PUSH1 0x0 DUP1 CALLER PUSH20 0xFFFFFFFFFFFFFFFFFFFFFFFFFFFFFFFFFFFFFFFF AND PUSH20 0xFFFFFFFFFFFFFFFFFFFFFFFFFFFFFFFFFFFFFFFF AND DUP2 MSTORE PUSH1 0x20 ADD SWAP1 DUP2 MSTORE PUSH1 0x20 ADD PUSH1 0x0 KECCAK256 DUP2 SWAP1 SSTORE POP DUP2 PUSH1 0x0 DUP1 DUP6 PUSH20 0xFFFFFFFFFFFFFFFFFFFFFFFFFFFFFFFFFFFFFFFF AND PUSH20 0xFFFFFFFFFFFFFFFFFFFFFFFFFFFFFFFFFFFFFFFF AND DUP2 MSTORE PUSH1 0x20 ADD SWAP1 DUP2 MSTORE PUSH1 0x20 ADD PUSH1 0x0 KECCAK256 SLOAD PUSH2 0x9A9 SWAP2 SWAP1 PUSH2 0xF04 JUMP JUMPDEST PUSH1 0x0 DUP1 DUP6 PUSH20 0xFFFFFFFFFFFFFFFFFFFFFFFFFFFFFFFFFFFFFFFF AND PUSH20 0xFFFFFFFFFFFFFFFFFFFFFFFFFFFFFFFFFFFFFFFF AND DUP2 MSTORE PUSH1 0x20 ADD SWAP1 DUP2 MSTORE PUSH1 0x20 ADD PUSH1 0x0 KECCAK256 DUP2 SWAP1 SSTORE POP DUP3 PUSH20 0xFFFFFFFFFFFFFFFFFFFFFFFFFFFFFFFFFFFFFFFF AND CALLER PUSH20 0xFFFFFFFFFFFFFFFFFFFFFFFFFFFFFFFFFFFFFFFF AND PUSH32 0xDDF252AD1BE2C89B69C2B068FC378DAA952BA7F163C4A11628F55A4DF523B3EF DUP5 PUSH1 0x40 MLOAD PUSH2 0xA48 SWAP2 SWAP1 PUSH2 0xCB6 JUMP JUMPDEST PUSH1 0x40 MLOAD DUP1 SWAP2 SUB SWAP1 LOG3 PUSH1 0x1 SWAP1 POP SWAP3 SWAP2 POP POP JUMP JUMPDEST PUSH1 0x0 PUSH1 0x1 PUSH1 0x0 DUP5 PUSH20 0xFFFFFFFFFFFFFFFFFFFFFFFFFFFFFFFFFFFFFFFF AND PUSH20 0xFFFFFFFFFFFFFFFFFFFFFFFFFFFFFFFFFFFFFFFF AND DUP2 MSTORE PUSH1 0x20 ADD SWAP1 DUP2 MSTORE PUSH1 0x20 ADD PUSH1 0x0 KECCAK256 PUSH1 0x0 DUP4 PUSH20 0xFFFFFFFFFFFFFFFFFFFFFFFFFFFFFFFFFFFFFFFF AND PUSH20 0xFFFFFFFFFFFFFFFFFFFFFFFFFFFFFFFFFFFFFFFF AND DUP2 MSTORE PUSH1 0x20 ADD SWAP1 DUP2 MSTORE PUSH1 0x20 ADD PUSH1 0x0 KECCAK256 SLOAD SWAP1 POP SWAP3 SWAP2 POP POP JUMP JUMPDEST PUSH1 0x0 DUP2 MLOAD SWAP1 POP SWAP2 SWAP1 POP JUMP JUMPDEST PUSH1 0x0 DUP3 DUP3 MSTORE PUSH1 0x20 DUP3 ADD SWAP1 POP SWAP3 SWAP2 POP POP JUMP JUMPDEST PUSH1 0x0 JUMPDEST DUP4 DUP2 LT ISZERO PUSH2 0xB1B JUMPI DUP1 DUP3 ADD MLOAD DUP2 DUP5 ADD MSTORE PUSH1 0x20 DUP2 ADD SWAP1 POP PUSH2 0xB00 JUMP JUMPDEST PUSH1 0x0 DUP5 DUP5 ADD MSTORE POP POP POP POP JUMP JUMPDEST PUSH1 0x0 PUSH1 0x1F NOT PUSH1 0x1F DUP4 ADD AND SWAP1 POP SWAP2 SWAP1 POP JUMP JUMPDEST PUSH1 0x0 PUSH2 0xB43 DUP3 PUSH2 0xAE1 JUMP JUMPDEST PUSH2 0xB4D DUP2 DUP6 PUSH2 0xAEC JUMP JUMPDEST SWAP4 POP PUSH2 0xB5D DUP2 DUP6 PUSH1 0x20 DUP7 ADD PUSH2 0xAFD JUMP JUMPDEST PUSH2 0xB66 DUP2 PUSH2 0xB27 JUMP JUMPDEST DUP5 ADD SWAP2 POP POP SWAP3 SWAP2 POP POP JUMP JUMPDEST PUSH1 0x0 PUSH1 0x20 DUP3 ADD SWAP1 POP DUP2 DUP2 SUB PUSH1 0x0 DUP4 ADD MSTORE PUSH2 0xB8B DUP2 DUP5 PUSH2 0xB38 JUMP JUMPDEST SWAP1 POP SWAP3 SWAP2 POP POP JUMP JUMPDEST PUSH1 0x0 DUP1 REVERT JUMPDEST PUSH1 0x0 DUP1 REVERT JUMPDEST PUSH1 0x0 PUSH20 0xFFFFFFFFFFFFFFFFFFFFFFFFFFFFFFFFFFFFFFFF DUP3 AND SWAP1 POP SWAP2 SWAP1 POP JUMP JUMPDEST PUSH1 0x0 PUSH2 0xBC8 DUP3 PUSH2 0xB9D JUMP JUMPDEST SWAP1 POP SWAP2 SWAP1 POP JUMP JUMPDEST PUSH2 0xBD8 DUP2 PUSH2 0xBBD JUMP JUMPDEST DUP2 EQ PUSH2 0xBE3 JUMPI PUSH1 0x0 DUP1 REVERT JUMPDEST POP JUMP JUMPDEST PUSH1 0x0 DUP2 CALLDATALOAD SWAP1 POP PUSH2 0xBF5 DUP2 PUSH2 0xBCF JUMP JUMPDEST SWAP3 SWAP2 POP POP JUMP JUMPDEST PUSH1 0x0 DUP2 SWAP1 POP SWAP2 SWAP1 POP JUMP JUMPDEST PUSH2 0xC0E DUP2 PUSH2 0xBFB JUMP JUMPDEST DUP2 EQ PUSH2 0xC19 JUMPI PUSH1 0x0 DUP1 REVERT JUMPDEST POP JUMP JUMPDEST PUSH1 0x0 DUP2 CALLDATALOAD SWAP1 POP PUSH2 0xC2B DUP2 PUSH2 0xC05 JUMP JUMPDEST SWAP3 SWAP2 POP POP JUMP JUMPDEST PUSH1 0x0 DUP1 PUSH1 0x40 DUP4 DUP6 SUB SLT ISZERO PUSH2 0xC48 JUMPI PUSH2 0xC47 PUSH2 0xB93 JUMP JUMPDEST JUMPDEST PUSH1 0x0 PUSH2 0xC56 DUP6 DUP3 DUP7 ADD PUSH2 0xBE6 JUMP JUMPDEST SWAP3 POP POP PUSH1 0x20 PUSH2 0xC67 DUP6 DUP3 DUP7 ADD PUSH2 0xC1C JUMP JUMPDEST SWAP2 POP POP SWAP3 POP SWAP3 SWAP1 POP JUMP JUMPDEST PUSH1 0x0 DUP2 ISZERO ISZERO SWAP1 POP SWAP2 SWAP1 POP JUMP JUMPDEST PUSH2 0xC86 DUP2 PUSH2 0xC71 JUMP JUMPDEST DUP3 MSTORE POP POP JUMP JUMPDEST PUSH1 0x0 PUSH1 0x20 DUP3 ADD SWAP1 POP PUSH2 0xCA1 PUSH1 0x0 DUP4 ADD DUP5 PUSH2 0xC7D JUMP JUMPDEST SWAP3 SWAP2 POP POP JUMP JUMPDEST PUSH2 0xCB0 DUP2 PUSH2 0xBFB JUMP JUMPDEST DUP3 MSTORE POP POP JUMP JUMPDEST PUSH1 0x0 PUSH1 0x20 DUP3 ADD SWAP1 POP PUSH2 0xCCB PUSH1 0x0 DUP4 ADD DUP5 PUSH2 0xCA7 JUMP JUMPDEST SWAP3 SWAP2 POP POP JUMP JUMPDEST PUSH1 0x0 DUP1 PUSH1 0x0 PUSH1 0x60 DUP5 DUP7 SUB SLT ISZERO PUSH2 0xCEA JUMPI PUSH2 0xCE9 PUSH2 0xB93 JUMP JUMPDEST JUMPDEST PUSH1 0x0 PUSH2 0xCF8 DUP7 DUP3 DUP8 ADD PUSH2 0xBE6 JUMP JUMPDEST SWAP4 POP POP PUSH1 0x20 PUSH2 0xD09 DUP7 DUP3 DUP8 ADD PUSH2 0xBE6 JUMP JUMPDEST SWAP3 POP POP PUSH1 0x40 PUSH2 0xD1A DUP7 DUP3 DUP8 ADD PUSH2 0xC1C JUMP JUMPDEST SWAP2 POP POP SWAP3 POP SWAP3 POP SWAP3 JUMP JUMPDEST PUSH1 0x0 PUSH1 0xFF DUP3 AND SWAP1 POP SWAP2 SWAP1 POP JUMP JUMPDEST PUSH2 0xD3A DUP2 PUSH2 0xD24 JUMP JUMPDEST DUP3 MSTORE POP POP JUMP JUMPDEST PUSH1 0x0 PUSH1 0x20 DUP3 ADD SWAP1 POP PUSH2 0xD55 PUSH1 0x0 DUP4 ADD DUP5 PUSH2 0xD31 JUMP JUMPDEST SWAP3 SWAP2 POP POP JUMP JUMPDEST PUSH1 0x0 DUP1 REVERT JUMPDEST PUSH1 0x0 DUP1 REVERT JUMPDEST PUSH1 0x0 DUP1 REVERT JUMPDEST PUSH1 0x0 DUP1 DUP4 PUSH1 0x1F DUP5 ADD SLT PUSH2 0xD80 JUMPI PUSH2 0xD7F PUSH2 0xD5B JUMP JUMPDEST JUMPDEST DUP3 CALLDATALOAD SWAP1 POP PUSH8 0xFFFFFFFFFFFFFFFF DUP2 GT ISZERO PUSH2 0xD9D JUMPI PUSH2 0xD9C PUSH2 0xD60 JUMP JUMPDEST JUMPDEST PUSH1 0x20 DUP4 ADD SWAP2 POP DUP4 PUSH1 0x1 DUP3 MUL DUP4 ADD GT ISZERO PUSH2 0xDB9 JUMPI PUSH2 0xDB8 PUSH2 0xD65 JUMP JUMPDEST JUMPDEST SWAP3 POP SWAP3 SWAP1 POP JUMP JUMPDEST PUSH1 0x0 DUP1 PUSH1 0x0 DUP1 PUSH1 0x60 DUP6 DUP8 SUB SLT ISZERO PUSH2 0xDDA JUMPI PUSH2 0xDD9 PUSH2 0xB93 JUMP JUMPDEST JUMPDEST PUSH1 0x0 PUSH2 0xDE8 DUP8 DUP3 DUP9 ADD PUSH2 0xBE6 JUMP JUMPDEST SWAP5 POP POP PUSH1 0x20 PUSH2 0xDF9 DUP8 DUP3 DUP9 ADD PUSH2 0xC1C JUMP JUMPDEST SWAP4 POP POP PUSH1 0x40 DUP6 ADD CALLDATALOAD PUSH8 0xFFFFFFFFFFFFFFFF DUP2 GT ISZERO PUSH2 0xE1A JUMPI PUSH2 0xE19 PUSH2 0xB98 JUMP JUMPDEST JUMPDEST PUSH2 0xE26 DUP8 DUP3 DUP9 ADD PUSH2 0xD6A JUMP JUMPDEST SWAP3 POP SWAP3 POP POP SWAP3 SWAP6 SWAP2 SWAP5 POP SWAP3 POP JUMP JUMPDEST PUSH1 0x0 PUSH1 0x20 DUP3 DUP5 SUB SLT ISZERO PUSH2 0xE4A JUMPI PUSH2 0xE49 PUSH2 0xB93 JUMP JUMPDEST JUMPDEST PUSH1 0x0 PUSH2 0xE58 DUP5 DUP3 DUP6 ADD PUSH2 0xBE6 JUMP JUMPDEST SWAP2 POP POP SWAP3 SWAP2 POP POP JUMP JUMPDEST PUSH1 0x0 DUP1 PUSH1 0x40 DUP4 DUP6 SUB SLT ISZERO PUSH2 0xE78 JUMPI PUSH2 0xE77 PUSH2 0xB93 JUMP JUMPDEST JUMPDEST PUSH1 0x0 PUSH2 0xE86 DUP6 DUP3 DUP7 ADD PUSH2 0xBE6 JUMP JUMPDEST SWAP3 POP POP PUSH1 0x20 PUSH2 0xE97 DUP6 DUP3 DUP7 ADD PUSH2 0xBE6 JUMP JUMPDEST SWAP2 POP POP SWAP3 POP SWAP3 SWAP1 POP JUMP JUMPDEST PUSH32 0x4E487B7100000000000000000000000000000000000000000000000000000000 PUSH1 0x0 MSTORE PUSH1 0x11 PUSH1 0x4 MSTORE PUSH1 0x24 PUSH1 0x0 REVERT JUMPDEST PUSH1 0x0 PUSH2 0xEDB DUP3 PUSH2 0xBFB JUMP JUMPDEST SWAP2 POP PUSH2 0xEE6 DUP4 PUSH2 0xBFB JUMP JUMPDEST SWAP3 POP DUP3 DUP3 SUB SWAP1 POP DUP2 DUP2 GT ISZERO PUSH2 0xEFE JUMPI PUSH2 0xEFD PUSH2 0xEA1 JUMP JUMPDEST JUMPDEST SWAP3 SWAP2 POP POP JUMP JUMPDEST PUSH1 0x0 PUSH2 0xF0F DUP3 PUSH2 0xBFB JUMP JUMPDEST SWAP2 POP PUSH2 0xF1A DUP4 PUSH2 0xBFB JUMP JUMPDEST SWAP3 POP DUP3 DUP3 ADD SWAP1 POP DUP1 DUP3 GT ISZERO PUSH2 0xF32 JUMPI PUSH2 0xF31 PUSH2 0xEA1 JUMP JUMPDEST JUMPDEST SWAP3 SWAP2 POP POP JUMP JUMPDEST PUSH1 0x0 DUP2 SWAP1 POP SWAP3 SWAP2 POP POP JUMP JUMPDEST DUP3 DUP2 DUP4 CALLDATACOPY PUSH1 0x0 DUP4 DUP4 ADD MSTORE POP POP POP JUMP JUMPDEST PUSH1 0x0 PUSH2 0xF5E DUP4 DUP6 PUSH2 0xF38 JUMP JUMPDEST SWAP4 POP PUSH2 0xF6B DUP4 DUP6 DUP5 PUSH2 0xF43 JUMP JUMPDEST DUP3 DUP5 ADD SWAP1 POP SWAP4 SWAP3 POP POP POP JUMP JUMPDEST PUSH1 0x0 PUSH2 0xF84 DUP3 DUP5 DUP7 PUSH2 0xF52 JUMP JUMPDEST SWAP2 POP DUP2 SWAP1 POP SWAP4 SWAP3 POP POP POP JUMP INVALID LOG2 PUSH5 0x6970667358 0x22 SLT KECCAK256 EXTCODESIZE 0xE2 MSTORE ADD 0xAC 0x49 0xA9 RETURN KECCAK256 0xC5 0xE9 SWAP2 0x28 PUSH1 0x22 DUP4 0xBA DUP8 PUSH10 0xD132A02FE7A0739559E2 0xD9 PUSH18 0x4664736F6C63430008120033000000000000 "
				},
				"gasEstimates": {
					"creation": {
						"codeDepositCost": "807600",
						"executionCost": "47253",
						"totalCost": "854853"
					},
					"external": {
						"allowance(address,address)": "infinite",
						"approve(address,uint256)": "infinite",
						"approveCall(address,uint256,bytes)": "infinite",
						"balanceOf(address)": "2863",
						"decimals()": "424",
						"name()": "infinite",
						"symbol()": "infinite",
						"totalSupply()": "2482",
						"transfer(address,uint256)": "infinite",
						"transferFrom(address,address,uint256)": "infinite"
					}
				},
				"methodIdentifiers": {
					"allowance(address,address)": "dd62ed3e",
					"approve(address,uint256)": "095ea7b3",
					"approveCall(address,uint256,bytes)": "478b36d8",
					"balanceOf(address)": "70a08231",
					"decimals()": "313ce567",
					"name()": "06fdde03",
					"symbol()": "95d89b41",
					"totalSupply()": "18160ddd",
					"transfer(address,uint256)": "a9059cbb",
					"transferFrom(address,address,uint256)": "23b872dd"
				}
			},
			"storageLayout": {
				"storage": [
					{
						"astId": 83,
						"contract": "shoot/摸底3/3/1.sol:ERC20",
						"label": "balances",
						"offset": 0,
						"slot": "0",
						"type": "t_mapping(t_address,t_uint256)"
					},
					{
						"astId": 89,
						"contract": "shoot/摸底3/3/1.sol:ERC20",
						"label": "allowed",
						"offset": 0,
						"slot": "1",
						"type": "t_mapping(t_address,t_mapping(t_address,t_uint256))"
					},
					{
						"astId": 92,
						"contract": "shoot/摸底3/3/1.sol:ERC20",
						"label": "totalSupply_",
						"offset": 0,
						"slot": "2",
						"type": "t_uint256"
					}
				],
				"types": {
					"t_address": {
						"encoding": "inplace",
						"label": "address",
						"numberOfBytes": "20"
					},
					"t_mapping(t_address,t_mapping(t_address,t_uint256))": {
						"encoding": "mapping",
						"key": "t_address",
						"label": "mapping(address => mapping(address => uint256))",
						"numberOfBytes": "32",
						"value": "t_mapping(t_address,t_uint256)"
					},
					"t_mapping(t_address,t_uint256)": {
						"encoding": "mapping",
						"key": "t_address",
						"label": "mapping(address => uint256)",
						"numberOfBytes": "32",
						"value": "t_uint256"
					},
					"t_uint256": {
						"encoding": "inplace",
						"label": "uint256",
						"numberOfBytes": "32"
					}
				}
			},
			"userdoc": {
				"kind": "user",
				"methods": {},
				"version": 1
			}
		}
	}
}