{
	"shoot/1/tx.origin误用/1.sol": {
		"Pulling": {
			"abi": [
				{
					"inputs": [],
					"name": "changeOwner",
					"outputs": [],
					"stateMutability": "nonpayable",
					"type": "function"
				},
				{
					"inputs": [],
					"name": "isComplete",
					"outputs": [],
					"stateMutability": "nonpayable",
					"type": "function"
				},
				{
					"inputs": [],
					"name": "owner",
					"outputs": [
						{
							"internalType": "address",
							"name": "",
							"type": "address"
						}
					],
					"stateMutability": "view",
					"type": "function"
				},
				{
					"inputs": [],
					"name": "score",
					"outputs": [
						{
							"internalType": "uint256",
							"name": "",
							"type": "uint256"
						}
					],
					"stateMutability": "view",
					"type": "function"
				}
			],
			"devdoc": {
				"kind": "dev",
				"methods": {},
				"version": 1
			},
			"evm": {
				"assembly": "    /* \"shoot/1/tx.origin\\xe8\\xaf\\xaf\\xe7\\x94\\xa8/1.sol\":115:581  contract Pulling{... */\n  mstore(0x40, 0x80)\n  callvalue\n  dup1\n  iszero\n  tag_1\n  jumpi\n  0x00\n  dup1\n  revert\ntag_1:\n  pop\n  dataSize(sub_0)\n  dup1\n  dataOffset(sub_0)\n  0x00\n  codecopy\n  0x00\n  return\nstop\n\nsub_0: assembly {\n        /* \"shoot/1/tx.origin\\xe8\\xaf\\xaf\\xe7\\x94\\xa8/1.sol\":115:581  contract Pulling{... */\n      mstore(0x40, 0x80)\n      callvalue\n      dup1\n      iszero\n      tag_1\n      jumpi\n      0x00\n      dup1\n      revert\n    tag_1:\n      pop\n      jumpi(tag_2, lt(calldatasize, 0x04))\n      shr(0xe0, calldataload(0x00))\n      dup1\n      0x62a09477\n      eq\n      tag_3\n      jumpi\n      dup1\n      0x8da5cb5b\n      eq\n      tag_4\n      jumpi\n      dup1\n      0xb2fa1c9e\n      eq\n      tag_5\n      jumpi\n      dup1\n      0xefedc669\n      eq\n      tag_6\n      jumpi\n    tag_2:\n      0x00\n      dup1\n      revert\n        /* \"shoot/1/tx.origin\\xe8\\xaf\\xaf\\xe7\\x94\\xa8/1.sol\":204:385  function changeOwner() public  {... */\n    tag_3:\n      tag_7\n      tag_8\n      jump\t// in\n    tag_7:\n      stop\n        /* \"shoot/1/tx.origin\\xe8\\xaf\\xaf\\xe7\\x94\\xa8/1.sol\":143:163  address public owner */\n    tag_4:\n      tag_9\n      tag_10\n      jump\t// in\n    tag_9:\n      mload(0x40)\n      tag_11\n      swap2\n      swap1\n      tag_12\n      jump\t// in\n    tag_11:\n      mload(0x40)\n      dup1\n      swap2\n      sub\n      swap1\n      return\n        /* \"shoot/1/tx.origin\\xe8\\xaf\\xaf\\xe7\\x94\\xa8/1.sol\":391:578  function isComplete()public {... */\n    tag_5:\n      tag_13\n      tag_14\n      jump\t// in\n    tag_13:\n      stop\n        /* \"shoot/1/tx.origin\\xe8\\xaf\\xaf\\xe7\\x94\\xa8/1.sol\":170:190  uint256 public score */\n    tag_6:\n      tag_15\n      tag_16\n      jump\t// in\n    tag_15:\n      mload(0x40)\n      tag_17\n      swap2\n      swap1\n      tag_18\n      jump\t// in\n    tag_17:\n      mload(0x40)\n      dup1\n      swap2\n      sub\n      swap1\n      return\n        /* \"shoot/1/tx.origin\\xe8\\xaf\\xaf\\xe7\\x94\\xa8/1.sol\":204:385  function changeOwner() public  {... */\n    tag_8:\n        /* \"shoot/1/tx.origin\\xe8\\xaf\\xaf\\xe7\\x94\\xa8/1.sol\":277:281  1000 */\n      0x03e8\n        /* \"shoot/1/tx.origin\\xe8\\xaf\\xaf\\xe7\\x94\\xa8/1.sol\":254:275  address(this).balance */\n      selfbalance\n        /* \"shoot/1/tx.origin\\xe8\\xaf\\xaf\\xe7\\x94\\xa8/1.sol\":254:281  address(this).balance>=1000 */\n      lt\n      iszero\n        /* \"shoot/1/tx.origin\\xe8\\xaf\\xaf\\xe7\\x94\\xa8/1.sol\":246:302  require(address(this).balance>=1000 ,\"Not enough money\") */\n      tag_20\n      jumpi\n      mload(0x40)\n      0x08c379a000000000000000000000000000000000000000000000000000000000\n      dup2\n      mstore\n      0x04\n      add\n      tag_21\n      swap1\n      tag_22\n      jump\t// in\n    tag_21:\n      mload(0x40)\n      dup1\n      swap2\n      sub\n      swap1\n      revert\n    tag_20:\n        /* \"shoot/1/tx.origin\\xe8\\xaf\\xaf\\xe7\\x94\\xa8/1.sol\":336:346  msg.sender */\n      caller\n        /* \"shoot/1/tx.origin\\xe8\\xaf\\xaf\\xe7\\x94\\xa8/1.sol\":323:346  tx.origin != msg.sender */\n      0xffffffffffffffffffffffffffffffffffffffff\n      and\n        /* \"shoot/1/tx.origin\\xe8\\xaf\\xaf\\xe7\\x94\\xa8/1.sol\":323:332  tx.origin */\n      origin\n        /* \"shoot/1/tx.origin\\xe8\\xaf\\xaf\\xe7\\x94\\xa8/1.sol\":323:346  tx.origin != msg.sender */\n      0xffffffffffffffffffffffffffffffffffffffff\n      and\n      sub\n        /* \"shoot/1/tx.origin\\xe8\\xaf\\xaf\\xe7\\x94\\xa8/1.sol\":315:347  require(tx.origin != msg.sender) */\n      tag_23\n      jumpi\n      0x00\n      dup1\n      revert\n    tag_23:\n        /* \"shoot/1/tx.origin\\xe8\\xaf\\xaf\\xe7\\x94\\xa8/1.sol\":367:377  msg.sender */\n      caller\n        /* \"shoot/1/tx.origin\\xe8\\xaf\\xaf\\xe7\\x94\\xa8/1.sol\":361:366  owner */\n      0x00\n      dup1\n        /* \"shoot/1/tx.origin\\xe8\\xaf\\xaf\\xe7\\x94\\xa8/1.sol\":361:377  owner=msg.sender */\n      0x0100\n      exp\n      dup2\n      sload\n      dup2\n      0xffffffffffffffffffffffffffffffffffffffff\n      mul\n      not\n      and\n      swap1\n      dup4\n      0xffffffffffffffffffffffffffffffffffffffff\n      and\n      mul\n      or\n      swap1\n      sstore\n      pop\n        /* \"shoot/1/tx.origin\\xe8\\xaf\\xaf\\xe7\\x94\\xa8/1.sol\":204:385  function changeOwner() public  {... */\n      jump\t// out\n        /* \"shoot/1/tx.origin\\xe8\\xaf\\xaf\\xe7\\x94\\xa8/1.sol\":143:163  address public owner */\n    tag_10:\n      0x00\n      dup1\n      sload\n      swap1\n      0x0100\n      exp\n      swap1\n      div\n      0xffffffffffffffffffffffffffffffffffffffff\n      and\n      dup2\n      jump\t// out\n        /* \"shoot/1/tx.origin\\xe8\\xaf\\xaf\\xe7\\x94\\xa8/1.sol\":391:578  function isComplete()public {... */\n    tag_14:\n        /* \"shoot/1/tx.origin\\xe8\\xaf\\xaf\\xe7\\x94\\xa8/1.sol\":435:436  0 */\n      0x00\n        /* \"shoot/1/tx.origin\\xe8\\xaf\\xaf\\xe7\\x94\\xa8/1.sol\":429:434  score */\n      0x01\n        /* \"shoot/1/tx.origin\\xe8\\xaf\\xaf\\xe7\\x94\\xa8/1.sol\":429:436  score=0 */\n      dup2\n      swap1\n      sstore\n      pop\n        /* \"shoot/1/tx.origin\\xe8\\xaf\\xaf\\xe7\\x94\\xa8/1.sol\":464:465  0 */\n      0x00\n        /* \"shoot/1/tx.origin\\xe8\\xaf\\xaf\\xe7\\x94\\xa8/1.sol\":449:466  owner!=address(0) */\n      0xffffffffffffffffffffffffffffffffffffffff\n      and\n        /* \"shoot/1/tx.origin\\xe8\\xaf\\xaf\\xe7\\x94\\xa8/1.sol\":449:454  owner */\n      0x00\n      dup1\n      sload\n      swap1\n      0x0100\n      exp\n      swap1\n      div\n      0xffffffffffffffffffffffffffffffffffffffff\n      and\n        /* \"shoot/1/tx.origin\\xe8\\xaf\\xaf\\xe7\\x94\\xa8/1.sol\":449:466  owner!=address(0) */\n      0xffffffffffffffffffffffffffffffffffffffff\n      and\n      eq\n        /* \"shoot/1/tx.origin\\xe8\\xaf\\xaf\\xe7\\x94\\xa8/1.sol\":446:501  if(owner!=address(0)){... */\n      tag_25\n      jumpi\n        /* \"shoot/1/tx.origin\\xe8\\xaf\\xaf\\xe7\\x94\\xa8/1.sol\":488:490  50 */\n      0x32\n        /* \"shoot/1/tx.origin\\xe8\\xaf\\xaf\\xe7\\x94\\xa8/1.sol\":481:486  score */\n      0x01\n      0x00\n        /* \"shoot/1/tx.origin\\xe8\\xaf\\xaf\\xe7\\x94\\xa8/1.sol\":481:490  score+=50 */\n      dup3\n      dup3\n      sload\n      tag_26\n      swap2\n      swap1\n      tag_27\n      jump\t// in\n    tag_26:\n      swap3\n      pop\n      pop\n      dup2\n      swap1\n      sstore\n      pop\n        /* \"shoot/1/tx.origin\\xe8\\xaf\\xaf\\xe7\\x94\\xa8/1.sol\":446:501  if(owner!=address(0)){... */\n    tag_25:\n        /* \"shoot/1/tx.origin\\xe8\\xaf\\xaf\\xe7\\x94\\xa8/1.sol\":535:536  0 */\n      0x00\n        /* \"shoot/1/tx.origin\\xe8\\xaf\\xaf\\xe7\\x94\\xa8/1.sol\":513:534  address(this).balance */\n      selfbalance\n        /* \"shoot/1/tx.origin\\xe8\\xaf\\xaf\\xe7\\x94\\xa8/1.sol\":513:536  address(this).balance>0 */\n      gt\n        /* \"shoot/1/tx.origin\\xe8\\xaf\\xaf\\xe7\\x94\\xa8/1.sol\":510:571  if(address(this).balance>0){... */\n      iszero\n      tag_28\n      jumpi\n        /* \"shoot/1/tx.origin\\xe8\\xaf\\xaf\\xe7\\x94\\xa8/1.sol\":558:560  50 */\n      0x32\n        /* \"shoot/1/tx.origin\\xe8\\xaf\\xaf\\xe7\\x94\\xa8/1.sol\":551:556  score */\n      0x01\n      0x00\n        /* \"shoot/1/tx.origin\\xe8\\xaf\\xaf\\xe7\\x94\\xa8/1.sol\":551:560  score+=50 */\n      dup3\n      dup3\n      sload\n      tag_29\n      swap2\n      swap1\n      tag_27\n      jump\t// in\n    tag_29:\n      swap3\n      pop\n      pop\n      dup2\n      swap1\n      sstore\n      pop\n        /* \"shoot/1/tx.origin\\xe8\\xaf\\xaf\\xe7\\x94\\xa8/1.sol\":510:571  if(address(this).balance>0){... */\n    tag_28:\n        /* \"shoot/1/tx.origin\\xe8\\xaf\\xaf\\xe7\\x94\\xa8/1.sol\":391:578  function isComplete()public {... */\n      jump\t// out\n        /* \"shoot/1/tx.origin\\xe8\\xaf\\xaf\\xe7\\x94\\xa8/1.sol\":170:190  uint256 public score */\n    tag_16:\n      sload(0x01)\n      dup2\n      jump\t// out\n        /* \"#utility.yul\":7:133   */\n    tag_30:\n        /* \"#utility.yul\":44:51   */\n      0x00\n        /* \"#utility.yul\":84:126   */\n      0xffffffffffffffffffffffffffffffffffffffff\n        /* \"#utility.yul\":77:82   */\n      dup3\n        /* \"#utility.yul\":73:127   */\n      and\n        /* \"#utility.yul\":62:127   */\n      swap1\n      pop\n        /* \"#utility.yul\":7:133   */\n      swap2\n      swap1\n      pop\n      jump\t// out\n        /* \"#utility.yul\":139:235   */\n    tag_31:\n        /* \"#utility.yul\":176:183   */\n      0x00\n        /* \"#utility.yul\":205:229   */\n      tag_42\n        /* \"#utility.yul\":223:228   */\n      dup3\n        /* \"#utility.yul\":205:229   */\n      tag_30\n      jump\t// in\n    tag_42:\n        /* \"#utility.yul\":194:229   */\n      swap1\n      pop\n        /* \"#utility.yul\":139:235   */\n      swap2\n      swap1\n      pop\n      jump\t// out\n        /* \"#utility.yul\":241:359   */\n    tag_32:\n        /* \"#utility.yul\":328:352   */\n      tag_44\n        /* \"#utility.yul\":346:351   */\n      dup2\n        /* \"#utility.yul\":328:352   */\n      tag_31\n      jump\t// in\n    tag_44:\n        /* \"#utility.yul\":323:326   */\n      dup3\n        /* \"#utility.yul\":316:353   */\n      mstore\n        /* \"#utility.yul\":241:359   */\n      pop\n      pop\n      jump\t// out\n        /* \"#utility.yul\":365:587   */\n    tag_12:\n        /* \"#utility.yul\":458:462   */\n      0x00\n        /* \"#utility.yul\":496:498   */\n      0x20\n        /* \"#utility.yul\":485:494   */\n      dup3\n        /* \"#utility.yul\":481:499   */\n      add\n        /* \"#utility.yul\":473:499   */\n      swap1\n      pop\n        /* \"#utility.yul\":509:580   */\n      tag_46\n        /* \"#utility.yul\":577:578   */\n      0x00\n        /* \"#utility.yul\":566:575   */\n      dup4\n        /* \"#utility.yul\":562:579   */\n      add\n        /* \"#utility.yul\":553:559   */\n      dup5\n        /* \"#utility.yul\":509:580   */\n      tag_32\n      jump\t// in\n    tag_46:\n        /* \"#utility.yul\":365:587   */\n      swap3\n      swap2\n      pop\n      pop\n      jump\t// out\n        /* \"#utility.yul\":593:670   */\n    tag_33:\n        /* \"#utility.yul\":630:637   */\n      0x00\n        /* \"#utility.yul\":659:664   */\n      dup2\n        /* \"#utility.yul\":648:664   */\n      swap1\n      pop\n        /* \"#utility.yul\":593:670   */\n      swap2\n      swap1\n      pop\n      jump\t// out\n        /* \"#utility.yul\":676:794   */\n    tag_34:\n        /* \"#utility.yul\":763:787   */\n      tag_49\n        /* \"#utility.yul\":781:786   */\n      dup2\n        /* \"#utility.yul\":763:787   */\n      tag_33\n      jump\t// in\n    tag_49:\n        /* \"#utility.yul\":758:761   */\n      dup3\n        /* \"#utility.yul\":751:788   */\n      mstore\n        /* \"#utility.yul\":676:794   */\n      pop\n      pop\n      jump\t// out\n        /* \"#utility.yul\":800:1022   */\n    tag_18:\n        /* \"#utility.yul\":893:897   */\n      0x00\n        /* \"#utility.yul\":931:933   */\n      0x20\n        /* \"#utility.yul\":920:929   */\n      dup3\n        /* \"#utility.yul\":916:934   */\n      add\n        /* \"#utility.yul\":908:934   */\n      swap1\n      pop\n        /* \"#utility.yul\":944:1015   */\n      tag_51\n        /* \"#utility.yul\":1012:1013   */\n      0x00\n        /* \"#utility.yul\":1001:1010   */\n      dup4\n        /* \"#utility.yul\":997:1014   */\n      add\n        /* \"#utility.yul\":988:994   */\n      dup5\n        /* \"#utility.yul\":944:1015   */\n      tag_34\n      jump\t// in\n    tag_51:\n        /* \"#utility.yul\":800:1022   */\n      swap3\n      swap2\n      pop\n      pop\n      jump\t// out\n        /* \"#utility.yul\":1028:1197   */\n    tag_35:\n        /* \"#utility.yul\":1112:1123   */\n      0x00\n        /* \"#utility.yul\":1146:1152   */\n      dup3\n        /* \"#utility.yul\":1141:1144   */\n      dup3\n        /* \"#utility.yul\":1134:1153   */\n      mstore\n        /* \"#utility.yul\":1186:1190   */\n      0x20\n        /* \"#utility.yul\":1181:1184   */\n      dup3\n        /* \"#utility.yul\":1177:1191   */\n      add\n        /* \"#utility.yul\":1162:1191   */\n      swap1\n      pop\n        /* \"#utility.yul\":1028:1197   */\n      swap3\n      swap2\n      pop\n      pop\n      jump\t// out\n        /* \"#utility.yul\":1203:1369   */\n    tag_36:\n        /* \"#utility.yul\":1343:1361   */\n      0x4e6f7420656e6f756768206d6f6e657900000000000000000000000000000000\n        /* \"#utility.yul\":1339:1340   */\n      0x00\n        /* \"#utility.yul\":1331:1337   */\n      dup3\n        /* \"#utility.yul\":1327:1341   */\n      add\n        /* \"#utility.yul\":1320:1362   */\n      mstore\n        /* \"#utility.yul\":1203:1369   */\n      pop\n      jump\t// out\n        /* \"#utility.yul\":1375:1741   */\n    tag_37:\n        /* \"#utility.yul\":1517:1520   */\n      0x00\n        /* \"#utility.yul\":1538:1605   */\n      tag_55\n        /* \"#utility.yul\":1602:1604   */\n      0x10\n        /* \"#utility.yul\":1597:1600   */\n      dup4\n        /* \"#utility.yul\":1538:1605   */\n      tag_35\n      jump\t// in\n    tag_55:\n        /* \"#utility.yul\":1531:1605   */\n      swap2\n      pop\n        /* \"#utility.yul\":1614:1707   */\n      tag_56\n        /* \"#utility.yul\":1703:1706   */\n      dup3\n        /* \"#utility.yul\":1614:1707   */\n      tag_36\n      jump\t// in\n    tag_56:\n        /* \"#utility.yul\":1732:1734   */\n      0x20\n        /* \"#utility.yul\":1727:1730   */\n      dup3\n        /* \"#utility.yul\":1723:1735   */\n      add\n        /* \"#utility.yul\":1716:1735   */\n      swap1\n      pop\n        /* \"#utility.yul\":1375:1741   */\n      swap2\n      swap1\n      pop\n      jump\t// out\n        /* \"#utility.yul\":1747:2166   */\n    tag_22:\n        /* \"#utility.yul\":1913:1917   */\n      0x00\n        /* \"#utility.yul\":1951:1953   */\n      0x20\n        /* \"#utility.yul\":1940:1949   */\n      dup3\n        /* \"#utility.yul\":1936:1954   */\n      add\n        /* \"#utility.yul\":1928:1954   */\n      swap1\n      pop\n        /* \"#utility.yul\":2000:2009   */\n      dup2\n        /* \"#utility.yul\":1994:1998   */\n      dup2\n        /* \"#utility.yul\":1990:2010   */\n      sub\n        /* \"#utility.yul\":1986:1987   */\n      0x00\n        /* \"#utility.yul\":1975:1984   */\n      dup4\n        /* \"#utility.yul\":1971:1988   */\n      add\n        /* \"#utility.yul\":1964:2011   */\n      mstore\n        /* \"#utility.yul\":2028:2159   */\n      tag_58\n        /* \"#utility.yul\":2154:2158   */\n      dup2\n        /* \"#utility.yul\":2028:2159   */\n      tag_37\n      jump\t// in\n    tag_58:\n        /* \"#utility.yul\":2020:2159   */\n      swap1\n      pop\n        /* \"#utility.yul\":1747:2166   */\n      swap2\n      swap1\n      pop\n      jump\t// out\n        /* \"#utility.yul\":2172:2352   */\n    tag_38:\n        /* \"#utility.yul\":2220:2297   */\n      0x4e487b7100000000000000000000000000000000000000000000000000000000\n        /* \"#utility.yul\":2217:2218   */\n      0x00\n        /* \"#utility.yul\":2210:2298   */\n      mstore\n        /* \"#utility.yul\":2317:2321   */\n      0x11\n        /* \"#utility.yul\":2314:2315   */\n      0x04\n        /* \"#utility.yul\":2307:2322   */\n      mstore\n        /* \"#utility.yul\":2341:2345   */\n      0x24\n        /* \"#utility.yul\":2338:2339   */\n      0x00\n        /* \"#utility.yul\":2331:2346   */\n      revert\n        /* \"#utility.yul\":2358:2549   */\n    tag_27:\n        /* \"#utility.yul\":2398:2401   */\n      0x00\n        /* \"#utility.yul\":2417:2437   */\n      tag_61\n        /* \"#utility.yul\":2435:2436   */\n      dup3\n        /* \"#utility.yul\":2417:2437   */\n      tag_33\n      jump\t// in\n    tag_61:\n        /* \"#utility.yul\":2412:2437   */\n      swap2\n      pop\n        /* \"#utility.yul\":2451:2471   */\n      tag_62\n        /* \"#utility.yul\":2469:2470   */\n      dup4\n        /* \"#utility.yul\":2451:2471   */\n      tag_33\n      jump\t// in\n    tag_62:\n        /* \"#utility.yul\":2446:2471   */\n      swap3\n      pop\n        /* \"#utility.yul\":2494:2495   */\n      dup3\n        /* \"#utility.yul\":2491:2492   */\n      dup3\n        /* \"#utility.yul\":2487:2496   */\n      add\n        /* \"#utility.yul\":2480:2496   */\n      swap1\n      pop\n        /* \"#utility.yul\":2515:2518   */\n      dup1\n        /* \"#utility.yul\":2512:2513   */\n      dup3\n        /* \"#utility.yul\":2509:2519   */\n      gt\n        /* \"#utility.yul\":2506:2542   */\n      iszero\n      tag_63\n      jumpi\n        /* \"#utility.yul\":2522:2540   */\n      tag_64\n      tag_38\n      jump\t// in\n    tag_64:\n        /* \"#utility.yul\":2506:2542   */\n    tag_63:\n        /* \"#utility.yul\":2358:2549   */\n      swap3\n      swap2\n      pop\n      pop\n      jump\t// out\n\n    auxdata: 0xa2646970667358221220c2fc162e79b642dcd439010a8c85a41ec7610109c1e3ac67deda75e64084ee9a64736f6c63430008120033\n}\n",
				"bytecode": {
					"linkReferences": {},
					"object": "608060405234801561001057600080fd5b506103cd806100206000396000f3fe608060405234801561001057600080fd5b506004361061004c5760003560e01c806362a09477146100515780638da5cb5b1461005b578063b2fa1c9e14610079578063efedc66914610083575b600080fd5b6100596100a1565b005b610063610160565b6040516100709190610268565b60405180910390f35b610081610184565b005b61008b610221565b604051610098919061029c565b60405180910390f35b6103e84710156100e6576040517f08c379a00000000000000000000000000000000000000000000000000000000081526004016100dd90610314565b60405180910390fd5b3373ffffffffffffffffffffffffffffffffffffffff163273ffffffffffffffffffffffffffffffffffffffff160361011e57600080fd5b336000806101000a81548173ffffffffffffffffffffffffffffffffffffffff021916908373ffffffffffffffffffffffffffffffffffffffff160217905550565b60008054906101000a900473ffffffffffffffffffffffffffffffffffffffff1681565b6000600181905550600073ffffffffffffffffffffffffffffffffffffffff1660008054906101000a900473ffffffffffffffffffffffffffffffffffffffff1673ffffffffffffffffffffffffffffffffffffffff16146101fb576032600160008282546101f39190610363565b925050819055505b600047111561021f576032600160008282546102179190610363565b925050819055505b565b60015481565b600073ffffffffffffffffffffffffffffffffffffffff82169050919050565b600061025282610227565b9050919050565b61026281610247565b82525050565b600060208201905061027d6000830184610259565b92915050565b6000819050919050565b61029681610283565b82525050565b60006020820190506102b1600083018461028d565b92915050565b600082825260208201905092915050565b7f4e6f7420656e6f756768206d6f6e657900000000000000000000000000000000600082015250565b60006102fe6010836102b7565b9150610309826102c8565b602082019050919050565b6000602082019050818103600083015261032d816102f1565b9050919050565b7f4e487b7100000000000000000000000000000000000000000000000000000000600052601160045260246000fd5b600061036e82610283565b915061037983610283565b925082820190508082111561039157610390610334565b5b9291505056fea2646970667358221220c2fc162e79b642dcd439010a8c85a41ec7610109c1e3ac67deda75e64084ee9a64736f6c63430008120033",
					"opcodes": "PUSH1 0x80 PUSH1 0x40 MSTORE CALLVALUE DUP1 ISZERO PUSH2 0x10 JUMPI PUSH1 0x0 DUP1 REVERT JUMPDEST POP PUSH2 0x3CD DUP1 PUSH2 0x20 PUSH1 0x0 CODECOPY PUSH1 0x0 RETURN INVALID PUSH1 0x80 PUSH1 0x40 MSTORE CALLVALUE DUP1 ISZERO PUSH2 0x10 JUMPI PUSH1 0x0 DUP1 REVERT JUMPDEST POP PUSH1 0x4 CALLDATASIZE LT PUSH2 0x4C JUMPI PUSH1 0x0 CALLDATALOAD PUSH1 0xE0 SHR DUP1 PUSH4 0x62A09477 EQ PUSH2 0x51 JUMPI DUP1 PUSH4 0x8DA5CB5B EQ PUSH2 0x5B JUMPI DUP1 PUSH4 0xB2FA1C9E EQ PUSH2 0x79 JUMPI DUP1 PUSH4 0xEFEDC669 EQ PUSH2 0x83 JUMPI JUMPDEST PUSH1 0x0 DUP1 REVERT JUMPDEST PUSH2 0x59 PUSH2 0xA1 JUMP JUMPDEST STOP JUMPDEST PUSH2 0x63 PUSH2 0x160 JUMP JUMPDEST PUSH1 0x40 MLOAD PUSH2 0x70 SWAP2 SWAP1 PUSH2 0x268 JUMP JUMPDEST PUSH1 0x40 MLOAD DUP1 SWAP2 SUB SWAP1 RETURN JUMPDEST PUSH2 0x81 PUSH2 0x184 JUMP JUMPDEST STOP JUMPDEST PUSH2 0x8B PUSH2 0x221 JUMP JUMPDEST PUSH1 0x40 MLOAD PUSH2 0x98 SWAP2 SWAP1 PUSH2 0x29C JUMP JUMPDEST PUSH1 0x40 MLOAD DUP1 SWAP2 SUB SWAP1 RETURN JUMPDEST PUSH2 0x3E8 SELFBALANCE LT ISZERO PUSH2 0xE6 JUMPI PUSH1 0x40 MLOAD PUSH32 0x8C379A000000000000000000000000000000000000000000000000000000000 DUP2 MSTORE PUSH1 0x4 ADD PUSH2 0xDD SWAP1 PUSH2 0x314 JUMP JUMPDEST PUSH1 0x40 MLOAD DUP1 SWAP2 SUB SWAP1 REVERT JUMPDEST CALLER PUSH20 0xFFFFFFFFFFFFFFFFFFFFFFFFFFFFFFFFFFFFFFFF AND ORIGIN PUSH20 0xFFFFFFFFFFFFFFFFFFFFFFFFFFFFFFFFFFFFFFFF AND SUB PUSH2 0x11E JUMPI PUSH1 0x0 DUP1 REVERT JUMPDEST CALLER PUSH1 0x0 DUP1 PUSH2 0x100 EXP DUP2 SLOAD DUP2 PUSH20 0xFFFFFFFFFFFFFFFFFFFFFFFFFFFFFFFFFFFFFFFF MUL NOT AND SWAP1 DUP4 PUSH20 0xFFFFFFFFFFFFFFFFFFFFFFFFFFFFFFFFFFFFFFFF AND MUL OR SWAP1 SSTORE POP JUMP JUMPDEST PUSH1 0x0 DUP1 SLOAD SWAP1 PUSH2 0x100 EXP SWAP1 DIV PUSH20 0xFFFFFFFFFFFFFFFFFFFFFFFFFFFFFFFFFFFFFFFF AND DUP2 JUMP JUMPDEST PUSH1 0x0 PUSH1 0x1 DUP2 SWAP1 SSTORE POP PUSH1 0x0 PUSH20 0xFFFFFFFFFFFFFFFFFFFFFFFFFFFFFFFFFFFFFFFF AND PUSH1 0x0 DUP1 SLOAD SWAP1 PUSH2 0x100 EXP SWAP1 DIV PUSH20 0xFFFFFFFFFFFFFFFFFFFFFFFFFFFFFFFFFFFFFFFF AND PUSH20 0xFFFFFFFFFFFFFFFFFFFFFFFFFFFFFFFFFFFFFFFF AND EQ PUSH2 0x1FB JUMPI PUSH1 0x32 PUSH1 0x1 PUSH1 0x0 DUP3 DUP3 SLOAD PUSH2 0x1F3 SWAP2 SWAP1 PUSH2 0x363 JUMP JUMPDEST SWAP3 POP POP DUP2 SWAP1 SSTORE POP JUMPDEST PUSH1 0x0 SELFBALANCE GT ISZERO PUSH2 0x21F JUMPI PUSH1 0x32 PUSH1 0x1 PUSH1 0x0 DUP3 DUP3 SLOAD PUSH2 0x217 SWAP2 SWAP1 PUSH2 0x363 JUMP JUMPDEST SWAP3 POP POP DUP2 SWAP1 SSTORE POP JUMPDEST JUMP JUMPDEST PUSH1 0x1 SLOAD DUP2 JUMP JUMPDEST PUSH1 0x0 PUSH20 0xFFFFFFFFFFFFFFFFFFFFFFFFFFFFFFFFFFFFFFFF DUP3 AND SWAP1 POP SWAP2 SWAP1 POP JUMP JUMPDEST PUSH1 0x0 PUSH2 0x252 DUP3 PUSH2 0x227 JUMP JUMPDEST SWAP1 POP SWAP2 SWAP1 POP JUMP JUMPDEST PUSH2 0x262 DUP2 PUSH2 0x247 JUMP JUMPDEST DUP3 MSTORE POP POP JUMP JUMPDEST PUSH1 0x0 PUSH1 0x20 DUP3 ADD SWAP1 POP PUSH2 0x27D PUSH1 0x0 DUP4 ADD DUP5 PUSH2 0x259 JUMP JUMPDEST SWAP3 SWAP2 POP POP JUMP JUMPDEST PUSH1 0x0 DUP2 SWAP1 POP SWAP2 SWAP1 POP JUMP JUMPDEST PUSH2 0x296 DUP2 PUSH2 0x283 JUMP JUMPDEST DUP3 MSTORE POP POP JUMP JUMPDEST PUSH1 0x0 PUSH1 0x20 DUP3 ADD SWAP1 POP PUSH2 0x2B1 PUSH1 0x0 DUP4 ADD DUP5 PUSH2 0x28D JUMP JUMPDEST SWAP3 SWAP2 POP POP JUMP JUMPDEST PUSH1 0x0 DUP3 DUP3 MSTORE PUSH1 0x20 DUP3 ADD SWAP1 POP SWAP3 SWAP2 POP POP JUMP JUMPDEST PUSH32 0x4E6F7420656E6F756768206D6F6E657900000000000000000000000000000000 PUSH1 0x0 DUP3 ADD MSTORE POP JUMP JUMPDEST PUSH1 0x0 PUSH2 0x2FE PUSH1 0x10 DUP4 PUSH2 0x2B7 JUMP JUMPDEST SWAP2 POP PUSH2 0x309 DUP3 PUSH2 0x2C8 JUMP JUMPDEST PUSH1 0x20 DUP3 ADD SWAP1 POP SWAP2 SWAP1 POP JUMP JUMPDEST PUSH1 0x0 PUSH1 0x20 DUP3 ADD SWAP1 POP DUP2 DUP2 SUB PUSH1 0x0 DUP4 ADD MSTORE PUSH2 0x32D DUP2 PUSH2 0x2F1 JUMP JUMPDEST SWAP1 POP SWAP2 SWAP1 POP JUMP JUMPDEST PUSH32 0x4E487B7100000000000000000000000000000000000000000000000000000000 PUSH1 0x0 MSTORE PUSH1 0x11 PUSH1 0x4 MSTORE PUSH1 0x24 PUSH1 0x0 REVERT JUMPDEST PUSH1 0x0 PUSH2 0x36E DUP3 PUSH2 0x283 JUMP JUMPDEST SWAP2 POP PUSH2 0x379 DUP4 PUSH2 0x283 JUMP JUMPDEST SWAP3 POP DUP3 DUP3 ADD SWAP1 POP DUP1 DUP3 GT ISZERO PUSH2 0x391 JUMPI PUSH2 0x390 PUSH2 0x334 JUMP JUMPDEST JUMPDEST SWAP3 SWAP2 POP POP JUMP INVALID LOG2 PUSH5 0x6970667358 0x22 SLT KECCAK256 0xC2 0xFC AND 0x2E PUSH26 0xB642DCD439010A8C85A41EC7610109C1E3AC67DEDA75E64084EE SWAP11 PUSH5 0x736F6C6343 STOP ADDMOD SLT STOP CALLER "
				},
				"gasEstimates": {
					"creation": {
						"codeDepositCost": "194600",
						"executionCost": "238",
						"totalCost": "194838"
					},
					"external": {
						"changeOwner()": "24449",
						"isComplete()": "infinite",
						"owner()": "2511",
						"score()": "2473"
					}
				},
				"methodIdentifiers": {
					"changeOwner()": "62a09477",
					"isComplete()": "b2fa1c9e",
					"owner()": "8da5cb5b",
					"score()": "efedc669"
				}
			},
			"storageLayout": {
				"storage": [
					{
						"astId": 3,
						"contract": "shoot/1/tx.origin误用/1.sol:Pulling",
						"label": "owner",
						"offset": 0,
						"slot": "0",
						"type": "t_address"
					},
					{
						"astId": 5,
						"contract": "shoot/1/tx.origin误用/1.sol:Pulling",
						"label": "score",
						"offset": 0,
						"slot": "1",
						"type": "t_uint256"
					}
				],
				"types": {
					"t_address": {
						"encoding": "inplace",
						"label": "address",
						"numberOfBytes": "20"
					},
					"t_uint256": {
						"encoding": "inplace",
						"label": "uint256",
						"numberOfBytes": "32"
					}
				}
			},
			"userdoc": {
				"kind": "user",
				"methods": {},
				"version": 1
			}
		}
	}
}