{
	"shoot/1/数组长度溢出/1.sol": {
		"array2": {
			"abi": [
				{
					"constant": true,
					"inputs": [],
					"name": "getArrayLength",
					"outputs": [
						{
							"name": "",
							"type": "uint256"
						}
					],
					"payable": false,
					"stateMutability": "view",
					"type": "function"
				},
				{
					"constant": true,
					"inputs": [
						{
							"name": "",
							"type": "uint256"
						}
					],
					"name": "array",
					"outputs": [
						{
							"name": "",
							"type": "uint256"
						}
					],
					"payable": false,
					"stateMutability": "view",
					"type": "function"
				},
				{
					"constant": true,
					"inputs": [],
					"name": "flag",
					"outputs": [
						{
							"name": "",
							"type": "bool"
						}
					],
					"payable": false,
					"stateMutability": "view",
					"type": "function"
				},
				{
					"constant": false,
					"inputs": [
						{
							"name": "index",
							"type": "uint256"
						},
						{
							"name": "value",
							"type": "uint256"
						}
					],
					"name": "addElement",
					"outputs": [],
					"payable": false,
					"stateMutability": "nonpayable",
					"type": "function"
				},
				{
					"constant": false,
					"inputs": [],
					"name": "deleteElement",
					"outputs": [],
					"payable": false,
					"stateMutability": "nonpayable",
					"type": "function"
				}
			],
			"devdoc": {
				"methods": {}
			},
			"evm": {
				"assembly": "    /* \"shoot/1/数组长度溢出/1.sol\":70:530  contract array2{\r... */\n  mstore(0x40, 0x80)\n  callvalue\n    /* \"--CODEGEN--\":8:17   */\n  dup1\n    /* \"--CODEGEN--\":5:7   */\n  iszero\n  tag_1\n  jumpi\n    /* \"--CODEGEN--\":30:31   */\n  0x0\n    /* \"--CODEGEN--\":27:28   */\n  dup1\n    /* \"--CODEGEN--\":20:32   */\n  revert\n    /* \"--CODEGEN--\":5:7   */\ntag_1:\n    /* \"shoot/1/数组长度溢出/1.sol\":70:530  contract array2{\r... */\n  pop\n  dataSize(sub_0)\n  dup1\n  dataOffset(sub_0)\n  0x0\n  codecopy\n  0x0\n  return\nstop\n\nsub_0: assembly {\n        /* \"shoot/1/数组长度溢出/1.sol\":70:530  contract array2{\r... */\n      mstore(0x40, 0x80)\n      jumpi(tag_1, lt(calldatasize, 0x4))\n      calldataload(0x0)\n      0x100000000000000000000000000000000000000000000000000000000\n      swap1\n      div\n      0xffffffff\n      and\n      dup1\n      0x849cc99\n      eq\n      tag_2\n      jumpi\n      dup1\n      0x38d94193\n      eq\n      tag_3\n      jumpi\n      dup1\n      0x890eba68\n      eq\n      tag_4\n      jumpi\n      dup1\n      0x958c4065\n      eq\n      tag_5\n      jumpi\n      dup1\n      0xfd57e9f9\n      eq\n      tag_6\n      jumpi\n    tag_1:\n      0x0\n      dup1\n      revert\n        /* \"shoot/1/数组长度溢出/1.sol\":432:523  function getArrayLength()public view returns(uint256){\r... */\n    tag_2:\n      callvalue\n        /* \"--CODEGEN--\":8:17   */\n      dup1\n        /* \"--CODEGEN--\":5:7   */\n      iszero\n      tag_7\n      jumpi\n        /* \"--CODEGEN--\":30:31   */\n      0x0\n        /* \"--CODEGEN--\":27:28   */\n      dup1\n        /* \"--CODEGEN--\":20:32   */\n      revert\n        /* \"--CODEGEN--\":5:7   */\n    tag_7:\n        /* \"shoot/1/数组长度溢出/1.sol\":432:523  function getArrayLength()public view returns(uint256){\r... */\n      pop\n      tag_8\n      jump(tag_9)\n    tag_8:\n      mload(0x40)\n      dup1\n      dup3\n      dup2\n      mstore\n      0x20\n      add\n      swap2\n      pop\n      pop\n      mload(0x40)\n      dup1\n      swap2\n      sub\n      swap1\n      return\n        /* \"shoot/1/数组长度溢出/1.sol\":115:137  uint256[] public array */\n    tag_3:\n      callvalue\n        /* \"--CODEGEN--\":8:17   */\n      dup1\n        /* \"--CODEGEN--\":5:7   */\n      iszero\n      tag_10\n      jumpi\n        /* \"--CODEGEN--\":30:31   */\n      0x0\n        /* \"--CODEGEN--\":27:28   */\n      dup1\n        /* \"--CODEGEN--\":20:32   */\n      revert\n        /* \"--CODEGEN--\":5:7   */\n    tag_10:\n        /* \"shoot/1/数组长度溢出/1.sol\":115:137  uint256[] public array */\n      pop\n      tag_11\n      0x4\n      dup1\n      calldatasize\n      sub\n      dup2\n      add\n      swap1\n      dup1\n      dup1\n      calldataload\n      swap1\n      0x20\n      add\n      swap1\n      swap3\n      swap2\n      swap1\n      pop\n      pop\n      pop\n      jump(tag_12)\n    tag_11:\n      mload(0x40)\n      dup1\n      dup3\n      dup2\n      mstore\n      0x20\n      add\n      swap2\n      pop\n      pop\n      mload(0x40)\n      dup1\n      swap2\n      sub\n      swap1\n      return\n        /* \"shoot/1/数组长度溢出/1.sol\":92:108  bool public flag */\n    tag_4:\n      callvalue\n        /* \"--CODEGEN--\":8:17   */\n      dup1\n        /* \"--CODEGEN--\":5:7   */\n      iszero\n      tag_13\n      jumpi\n        /* \"--CODEGEN--\":30:31   */\n      0x0\n        /* \"--CODEGEN--\":27:28   */\n      dup1\n        /* \"--CODEGEN--\":20:32   */\n      revert\n        /* \"--CODEGEN--\":5:7   */\n    tag_13:\n        /* \"shoot/1/数组长度溢出/1.sol\":92:108  bool public flag */\n      pop\n      tag_14\n      jump(tag_15)\n    tag_14:\n      mload(0x40)\n      dup1\n      dup3\n      iszero\n      iszero\n      iszero\n      iszero\n      dup2\n      mstore\n      0x20\n      add\n      swap2\n      pop\n      pop\n      mload(0x40)\n      dup1\n      swap2\n      sub\n      swap1\n      return\n        /* \"shoot/1/数组长度溢出/1.sol\":146:319  function addElement(uint256 index,uint256 value)public{\r... */\n    tag_5:\n      callvalue\n        /* \"--CODEGEN--\":8:17   */\n      dup1\n        /* \"--CODEGEN--\":5:7   */\n      iszero\n      tag_16\n      jumpi\n        /* \"--CODEGEN--\":30:31   */\n      0x0\n        /* \"--CODEGEN--\":27:28   */\n      dup1\n        /* \"--CODEGEN--\":20:32   */\n      revert\n        /* \"--CODEGEN--\":5:7   */\n    tag_16:\n        /* \"shoot/1/数组长度溢出/1.sol\":146:319  function addElement(uint256 index,uint256 value)public{\r... */\n      pop\n      tag_17\n      0x4\n      dup1\n      calldatasize\n      sub\n      dup2\n      add\n      swap1\n      dup1\n      dup1\n      calldataload\n      swap1\n      0x20\n      add\n      swap1\n      swap3\n      swap2\n      swap1\n      dup1\n      calldataload\n      swap1\n      0x20\n      add\n      swap1\n      swap3\n      swap2\n      swap1\n      pop\n      pop\n      pop\n      jump(tag_18)\n    tag_17:\n      stop\n        /* \"shoot/1/数组长度溢出/1.sol\":327:424  function deleteElement()public{\r... */\n    tag_6:\n      callvalue\n        /* \"--CODEGEN--\":8:17   */\n      dup1\n        /* \"--CODEGEN--\":5:7   */\n      iszero\n      tag_19\n      jumpi\n        /* \"--CODEGEN--\":30:31   */\n      0x0\n        /* \"--CODEGEN--\":27:28   */\n      dup1\n        /* \"--CODEGEN--\":20:32   */\n      revert\n        /* \"--CODEGEN--\":5:7   */\n    tag_19:\n        /* \"shoot/1/数组长度溢出/1.sol\":327:424  function deleteElement()public{\r... */\n      pop\n      tag_20\n      jump(tag_21)\n    tag_20:\n      stop\n        /* \"shoot/1/数组长度溢出/1.sol\":432:523  function getArrayLength()public view returns(uint256){\r... */\n    tag_9:\n        /* \"shoot/1/数组长度溢出/1.sol\":477:484  uint256 */\n      0x0\n        /* \"shoot/1/数组长度溢出/1.sol\":503:508  array */\n      0x1\n        /* \"shoot/1/数组长度溢出/1.sol\":503:515  array.length */\n      dup1\n      sload\n      swap1\n      pop\n        /* \"shoot/1/数组长度溢出/1.sol\":496:515  return array.length */\n      swap1\n      pop\n        /* \"shoot/1/数组长度溢出/1.sol\":432:523  function getArrayLength()public view returns(uint256){\r... */\n      swap1\n      jump\t// out\n        /* \"shoot/1/数组长度溢出/1.sol\":115:137  uint256[] public array */\n    tag_12:\n      0x1\n      dup2\n      dup2\n      sload\n      dup2\n      lt\n      iszero\n      iszero\n      tag_23\n      jumpi\n      invalid\n    tag_23:\n      swap1\n      0x0\n      mstore\n      keccak256(0x0, 0x20)\n      add\n      0x0\n      swap2\n      pop\n      swap1\n      pop\n      sload\n      dup2\n      jump\t// out\n        /* \"shoot/1/数组长度溢出/1.sol\":92:108  bool public flag */\n    tag_15:\n      0x0\n      dup1\n      swap1\n      sload\n      swap1\n      0x100\n      exp\n      swap1\n      div\n      0xff\n      and\n      dup2\n      jump\t// out\n        /* \"shoot/1/数组长度溢出/1.sol\":146:319  function addElement(uint256 index,uint256 value)public{\r... */\n    tag_18:\n        /* \"shoot/1/数组长度溢出/1.sol\":221:226  array */\n      0x1\n        /* \"shoot/1/数组长度溢出/1.sol\":221:233  array.length */\n      dup1\n      sload\n      swap1\n      pop\n        /* \"shoot/1/数组长度溢出/1.sol\":214:219  index */\n      dup3\n        /* \"shoot/1/数组长度溢出/1.sol\":214:233  index>=array.length */\n      lt\n      iszero\n        /* \"shoot/1/数组长度溢出/1.sol\":211:281  if(index>=array.length){\r... */\n      iszero\n      tag_26\n      jumpi\n        /* \"shoot/1/数组长度溢出/1.sol\":268:269  1 */\n      0x1\n        /* \"shoot/1/数组长度溢出/1.sol\":262:267  index */\n      dup3\n        /* \"shoot/1/数组长度溢出/1.sol\":262:269  index+1 */\n      add\n        /* \"shoot/1/数组长度溢出/1.sol\":249:254  array */\n      0x1\n        /* \"shoot/1/数组长度溢出/1.sol\":249:269  array.length=index+1 */\n      dup2\n      tag_27\n      swap2\n      swap1\n      jump\t// in(tag_28)\n    tag_27:\n      pop\n        /* \"shoot/1/数组长度溢出/1.sol\":211:281  if(index>=array.length){\r... */\n    tag_26:\n        /* \"shoot/1/数组长度溢出/1.sol\":306:311  value */\n      dup1\n        /* \"shoot/1/数组长度溢出/1.sol\":291:296  array */\n      0x1\n        /* \"shoot/1/数组长度溢出/1.sol\":297:302  index */\n      dup4\n        /* \"shoot/1/数组长度溢出/1.sol\":291:303  array[index] */\n      dup2\n      sload\n      dup2\n      lt\n      iszero\n      iszero\n      tag_29\n      jumpi\n      invalid\n    tag_29:\n      swap1\n      0x0\n      mstore\n      keccak256(0x0, 0x20)\n      add\n        /* \"shoot/1/数组长度溢出/1.sol\":291:311  array[index] = value */\n      dup2\n      swap1\n      sstore\n      pop\n        /* \"shoot/1/数组长度溢出/1.sol\":146:319  function addElement(uint256 index,uint256 value)public{\r... */\n      pop\n      pop\n      jump\t// out\n        /* \"shoot/1/数组长度溢出/1.sol\":327:424  function deleteElement()public{\r... */\n    tag_21:\n        /* \"shoot/1/数组长度溢出/1.sol\":389:390  0 */\n      0x0\n        /* \"shoot/1/数组长度溢出/1.sol\":376:381  array */\n      0x1\n        /* \"shoot/1/数组长度溢出/1.sol\":376:388  array.length */\n      dup1\n      sload\n      swap1\n      pop\n        /* \"shoot/1/数组长度溢出/1.sol\":376:390  array.length>0 */\n      gt\n        /* \"shoot/1/数组长度溢出/1.sol\":368:391  require(array.length>0) */\n      iszero\n      iszero\n      tag_32\n      jumpi\n      0x0\n      dup1\n      revert\n    tag_32:\n        /* \"shoot/1/数组长度溢出/1.sol\":402:407  array */\n      0x1\n        /* \"shoot/1/数组长度溢出/1.sol\":402:416  array.length-- */\n      dup1\n      sload\n      dup1\n      swap2\n      swap1\n      0x1\n      swap1\n      sub\n      tag_33\n      swap2\n      swap1\n      jump\t// in(tag_28)\n    tag_33:\n      pop\n        /* \"shoot/1/数组长度溢出/1.sol\":327:424  function deleteElement()public{\r... */\n      jump\t// out\n        /* \"shoot/1/数组长度溢出/1.sol\":70:530  contract array2{\r... */\n    tag_28:\n      dup2\n      sload\n      dup2\n      dup4\n      sstore\n      dup2\n      dup2\n      gt\n      iszero\n      tag_34\n      jumpi\n      dup2\n      dup4\n      0x0\n      mstore\n      keccak256(0x0, 0x20)\n      swap2\n      dup3\n      add\n      swap2\n      add\n      tag_35\n      swap2\n      swap1\n      jump\t// in(tag_36)\n    tag_35:\n    tag_34:\n      pop\n      pop\n      pop\n      jump\t// out\n    tag_36:\n      tag_37\n      swap2\n      swap1\n    tag_38:\n      dup1\n      dup3\n      gt\n      iszero\n      tag_39\n      jumpi\n      0x0\n      dup2\n      0x0\n      swap1\n      sstore\n      pop\n      0x1\n      add\n      jump(tag_38)\n    tag_39:\n      pop\n      swap1\n      jump\n    tag_37:\n      swap1\n      jump\t// out\n\n    auxdata: 0xa165627a7a723058207dc7cec0f3a53398b85cced1f4831b3ea318cd4423b11bc69ac43a1455a18a1e0029\n}\n",
				"bytecode": {
					"linkReferences": {},
					"object": "608060405234801561001057600080fd5b50610289806100206000396000f30060806040526004361061006d576000357c0100000000000000000000000000000000000000000000000000000000900463ffffffff1680630849cc991461007257806338d941931461009d578063890eba68146100de578063958c40651461010d578063fd57e9f914610144575b600080fd5b34801561007e57600080fd5b5061008761015b565b6040518082815260200191505060405180910390f35b3480156100a957600080fd5b506100c860048036038101908080359060200190929190505050610168565b6040518082815260200191505060405180910390f35b3480156100ea57600080fd5b506100f361018b565b604051808215151515815260200191505060405180910390f35b34801561011957600080fd5b50610142600480360381019080803590602001909291908035906020019092919050505061019d565b005b34801561015057600080fd5b506101596101e0565b005b6000600180549050905090565b60018181548110151561017757fe5b906000526020600020016000915090505481565b6000809054906101000a900460ff1681565b600180549050821015156101be57600182016001816101bc919061020c565b505b806001838154811015156101ce57fe5b90600052602060002001819055505050565b60006001805490501115156101f457600080fd5b6001805480919060019003610209919061020c565b50565b815481835581811115610233578183600052602060002091820191016102329190610238565b5b505050565b61025a91905b8082111561025657600081600090555060010161023e565b5090565b905600a165627a7a723058207dc7cec0f3a53398b85cced1f4831b3ea318cd4423b11bc69ac43a1455a18a1e0029",
					"opcodes": "PUSH1 0x80 PUSH1 0x40 MSTORE CALLVALUE DUP1 ISZERO PUSH2 0x10 JUMPI PUSH1 0x0 DUP1 REVERT JUMPDEST POP PUSH2 0x289 DUP1 PUSH2 0x20 PUSH1 0x0 CODECOPY PUSH1 0x0 RETURN STOP PUSH1 0x80 PUSH1 0x40 MSTORE PUSH1 0x4 CALLDATASIZE LT PUSH2 0x6D JUMPI PUSH1 0x0 CALLDATALOAD PUSH29 0x100000000000000000000000000000000000000000000000000000000 SWAP1 DIV PUSH4 0xFFFFFFFF AND DUP1 PUSH4 0x849CC99 EQ PUSH2 0x72 JUMPI DUP1 PUSH4 0x38D94193 EQ PUSH2 0x9D JUMPI DUP1 PUSH4 0x890EBA68 EQ PUSH2 0xDE JUMPI DUP1 PUSH4 0x958C4065 EQ PUSH2 0x10D JUMPI DUP1 PUSH4 0xFD57E9F9 EQ PUSH2 0x144 JUMPI JUMPDEST PUSH1 0x0 DUP1 REVERT JUMPDEST CALLVALUE DUP1 ISZERO PUSH2 0x7E JUMPI PUSH1 0x0 DUP1 REVERT JUMPDEST POP PUSH2 0x87 PUSH2 0x15B JUMP JUMPDEST PUSH1 0x40 MLOAD DUP1 DUP3 DUP2 MSTORE PUSH1 0x20 ADD SWAP2 POP POP PUSH1 0x40 MLOAD DUP1 SWAP2 SUB SWAP1 RETURN JUMPDEST CALLVALUE DUP1 ISZERO PUSH2 0xA9 JUMPI PUSH1 0x0 DUP1 REVERT JUMPDEST POP PUSH2 0xC8 PUSH1 0x4 DUP1 CALLDATASIZE SUB DUP2 ADD SWAP1 DUP1 DUP1 CALLDATALOAD SWAP1 PUSH1 0x20 ADD SWAP1 SWAP3 SWAP2 SWAP1 POP POP POP PUSH2 0x168 JUMP JUMPDEST PUSH1 0x40 MLOAD DUP1 DUP3 DUP2 MSTORE PUSH1 0x20 ADD SWAP2 POP POP PUSH1 0x40 MLOAD DUP1 SWAP2 SUB SWAP1 RETURN JUMPDEST CALLVALUE DUP1 ISZERO PUSH2 0xEA JUMPI PUSH1 0x0 DUP1 REVERT JUMPDEST POP PUSH2 0xF3 PUSH2 0x18B JUMP JUMPDEST PUSH1 0x40 MLOAD DUP1 DUP3 ISZERO ISZERO ISZERO ISZERO DUP2 MSTORE PUSH1 0x20 ADD SWAP2 POP POP PUSH1 0x40 MLOAD DUP1 SWAP2 SUB SWAP1 RETURN JUMPDEST CALLVALUE DUP1 ISZERO PUSH2 0x119 JUMPI PUSH1 0x0 DUP1 REVERT JUMPDEST POP PUSH2 0x142 PUSH1 0x4 DUP1 CALLDATASIZE SUB DUP2 ADD SWAP1 DUP1 DUP1 CALLDATALOAD SWAP1 PUSH1 0x20 ADD SWAP1 SWAP3 SWAP2 SWAP1 DUP1 CALLDATALOAD SWAP1 PUSH1 0x20 ADD SWAP1 SWAP3 SWAP2 SWAP1 POP POP POP PUSH2 0x19D JUMP JUMPDEST STOP JUMPDEST CALLVALUE DUP1 ISZERO PUSH2 0x150 JUMPI PUSH1 0x0 DUP1 REVERT JUMPDEST POP PUSH2 0x159 PUSH2 0x1E0 JUMP JUMPDEST STOP JUMPDEST PUSH1 0x0 PUSH1 0x1 DUP1 SLOAD SWAP1 POP SWAP1 POP SWAP1 JUMP JUMPDEST PUSH1 0x1 DUP2 DUP2 SLOAD DUP2 LT ISZERO ISZERO PUSH2 0x177 JUMPI INVALID JUMPDEST SWAP1 PUSH1 0x0 MSTORE PUSH1 0x20 PUSH1 0x0 KECCAK256 ADD PUSH1 0x0 SWAP2 POP SWAP1 POP SLOAD DUP2 JUMP JUMPDEST PUSH1 0x0 DUP1 SWAP1 SLOAD SWAP1 PUSH2 0x100 EXP SWAP1 DIV PUSH1 0xFF AND DUP2 JUMP JUMPDEST PUSH1 0x1 DUP1 SLOAD SWAP1 POP DUP3 LT ISZERO ISZERO PUSH2 0x1BE JUMPI PUSH1 0x1 DUP3 ADD PUSH1 0x1 DUP2 PUSH2 0x1BC SWAP2 SWAP1 PUSH2 0x20C JUMP JUMPDEST POP JUMPDEST DUP1 PUSH1 0x1 DUP4 DUP2 SLOAD DUP2 LT ISZERO ISZERO PUSH2 0x1CE JUMPI INVALID JUMPDEST SWAP1 PUSH1 0x0 MSTORE PUSH1 0x20 PUSH1 0x0 KECCAK256 ADD DUP2 SWAP1 SSTORE POP POP POP JUMP JUMPDEST PUSH1 0x0 PUSH1 0x1 DUP1 SLOAD SWAP1 POP GT ISZERO ISZERO PUSH2 0x1F4 JUMPI PUSH1 0x0 DUP1 REVERT JUMPDEST PUSH1 0x1 DUP1 SLOAD DUP1 SWAP2 SWAP1 PUSH1 0x1 SWAP1 SUB PUSH2 0x209 SWAP2 SWAP1 PUSH2 0x20C JUMP JUMPDEST POP JUMP JUMPDEST DUP2 SLOAD DUP2 DUP4 SSTORE DUP2 DUP2 GT ISZERO PUSH2 0x233 JUMPI DUP2 DUP4 PUSH1 0x0 MSTORE PUSH1 0x20 PUSH1 0x0 KECCAK256 SWAP2 DUP3 ADD SWAP2 ADD PUSH2 0x232 SWAP2 SWAP1 PUSH2 0x238 JUMP JUMPDEST JUMPDEST POP POP POP JUMP JUMPDEST PUSH2 0x25A SWAP2 SWAP1 JUMPDEST DUP1 DUP3 GT ISZERO PUSH2 0x256 JUMPI PUSH1 0x0 DUP2 PUSH1 0x0 SWAP1 SSTORE POP PUSH1 0x1 ADD PUSH2 0x23E JUMP JUMPDEST POP SWAP1 JUMP JUMPDEST SWAP1 JUMP STOP LOG1 PUSH6 0x627A7A723058 KECCAK256 PUSH30 0xC7CEC0F3A53398B85CCED1F4831B3EA318CD4423B11BC69AC43A1455A18A 0x1e STOP 0x29 "
				},
				"gasEstimates": {
					"creation": {
						"codeDepositCost": "129800",
						"executionCost": "177",
						"totalCost": "129977"
					},
					"external": {
						"addElement(uint256,uint256)": "infinite",
						"array(uint256)": "771",
						"deleteElement()": "infinite",
						"flag()": "486",
						"getArrayLength()": "410"
					}
				},
				"methodIdentifiers": {
					"addElement(uint256,uint256)": "958c4065",
					"array(uint256)": "38d94193",
					"deleteElement()": "fd57e9f9",
					"flag()": "890eba68",
					"getArrayLength()": "0849cc99"
				}
			},
			"userdoc": {
				"methods": {}
			}
		}
	}
}