{
	"data": {
		"bytecode": {
			"linkReferences": {},
			"object": "608060405234801561001057600080fd5b5060405161001d9061007f565b604051809103906000f080158015610039573d6000803e3d6000fd5b50600160006101000a81548173ffffffffffffffffffffffffffffffffffffffff021916908373ffffffffffffffffffffffffffffffffffffffff16021790555061008c565b61066d806102b983390190565b61021e8061009b6000396000f3fe608060405234801561001057600080fd5b50600436106100415760003560e01c8063102c4c6514610046578063efedc6691461007a578063fa391c6414610098575b600080fd5b61004e6100a2565b604051808273ffffffffffffffffffffffffffffffffffffffff16815260200191505060405180910390f35b6100826100c8565b6040518082815260200191505060405180910390f35b6100a06100ce565b005b600160009054906101000a900473ffffffffffffffffffffffffffffffffffffffff1681565b60005481565b600080819055506100de336101d5565b156100f0576019600054016000819055505b3373ffffffffffffffffffffffffffffffffffffffff16600160009054906101000a900473ffffffffffffffffffffffffffffffffffffffff1673ffffffffffffffffffffffffffffffffffffffff16638da5cb5b6040518163ffffffff1660e01b815260040160206040518083038186803b15801561016f57600080fd5b505afa158015610183573d6000803e3d6000fd5b505050506040513d602081101561019957600080fd5b810190808051906020019092919050505073ffffffffffffffffffffffffffffffffffffffff1614156101d357604b600054016000819055505b565b600080823b90506000811191505091905056fea2646970667358221220b2ca9ebc07a4550f8553c300406b86bbb91e45f070a05c0eae66bbcedd9f9d7464736f6c634300060c0033608060405234801561001057600080fd5b5060405161001d90610128565b604051809103906000f080158015610039573d6000803e3d6000fd5b506000806101000a81548173ffffffffffffffffffffffffffffffffffffffff021916908373ffffffffffffffffffffffffffffffffffffffff16021790555060405161008590610128565b604051809103906000f0801580156100a1573d6000803e3d6000fd5b50600160006101000a81548173ffffffffffffffffffffffffffffffffffffffff021916908373ffffffffffffffffffffffffffffffffffffffff16021790555033600260006101000a81548173ffffffffffffffffffffffffffffffffffffffff021916908373ffffffffffffffffffffffffffffffffffffffff160217905550610134565b60b6806105b783390190565b610474806101436000396000f3fe608060405234801561001057600080fd5b50600436106100575760003560e01c806327d6974f1461005c5780633dc79422146100905780635bda8fa4146100c45780638da5cb5b146100f2578063f1e0262014610126575b600080fd5b610064610154565b604051808273ffffffffffffffffffffffffffffffffffffffff16815260200191505060405180910390f35b61009861017a565b604051808273ffffffffffffffffffffffffffffffffffffffff16815260200191505060405180910390f35b6100f0600480360360208110156100da57600080fd5b810190808035906020019092919050505061019e565b005b6100fa6102dc565b604051808273ffffffffffffffffffffffffffffffffffffffff16815260200191505060405180910390f35b6101526004803603602081101561013c57600080fd5b8101908080359060200190929190505050610302565b005b600160009054906101000a900473ffffffffffffffffffffffffffffffffffffffff1681565b60008054906101000a900473ffffffffffffffffffffffffffffffffffffffff1681565b600160009054906101000a900473ffffffffffffffffffffffffffffffffffffffff1673ffffffffffffffffffffffffffffffffffffffff167f3beb26c427d03ceadbdaedc2f7aac4d9fc345b4fcbfc4b80654fee46dd7c349a8260405160200180837bffffffffffffffffffffffffffffffffffffffffffffffffffffffff19168152600401828152602001925050506040516020818303038152906040526040518082805190602001908083835b60208310610271578051825260208201915060208101905060208303925061024e565b6001836020036101000a038019825116818451168082178552505050505050905001915050600060405180830381855af49150503d80600081146102d1576040519150601f19603f3d011682016040523d82523d6000602084013e6102d6565b606091505b50505050565b600260009054906101000a900473ffffffffffffffffffffffffffffffffffffffff1681565b60008054906101000a900473ffffffffffffffffffffffffffffffffffffffff1673ffffffffffffffffffffffffffffffffffffffff167f3beb26c427d03ceadbdaedc2f7aac4d9fc345b4fcbfc4b80654fee46dd7c349a8260405160200180837bffffffffffffffffffffffffffffffffffffffffffffffffffffffff19168152600401828152602001925050506040516020818303038152906040526040518082805190602001908083835b602083106103d357805182526020820191506020810190506020830392506103b0565b6001836020036101000a038019825116818451168082178552505050505050905001915050600060405180830381855af49150503d8060008114610433576040519150601f19603f3d011682016040523d82523d6000602084013e610438565b606091505b5050505056fea264697066735822122067bc0216ac7fa2a309290dbee6d0b2f5c5e3148397b8e6e4477e4768459e252964736f6c634300060c00336080604052348015600f57600080fd5b5060988061001e6000396000f3fe6080604052348015600f57600080fd5b506004361060285760003560e01c80633beb26c414602d575b600080fd5b605660048036036020811015604157600080fd5b81019080803590602001909291905050506058565b005b806000819055505056fea26469706673582212209d7b40d5b47aa91c94a38bc9e6702a7eddcb7564dce1986ed13f867dc00b68cd64736f6c634300060c0033",
			"opcodes": "PUSH1 0x80 PUSH1 0x40 MSTORE CALLVALUE DUP1 ISZERO PUSH2 0x10 JUMPI PUSH1 0x0 DUP1 REVERT JUMPDEST POP PUSH1 0x40 MLOAD PUSH2 0x1D SWAP1 PUSH2 0x7F JUMP JUMPDEST PUSH1 0x40 MLOAD DUP1 SWAP2 SUB SWAP1 PUSH1 0x0 CREATE DUP1 ISZERO DUP1 ISZERO PUSH2 0x39 JUMPI RETURNDATASIZE PUSH1 0x0 DUP1 RETURNDATACOPY RETURNDATASIZE PUSH1 0x0 REVERT JUMPDEST POP PUSH1 0x1 PUSH1 0x0 PUSH2 0x100 EXP DUP2 SLOAD DUP2 PUSH20 0xFFFFFFFFFFFFFFFFFFFFFFFFFFFFFFFFFFFFFFFF MUL NOT AND SWAP1 DUP4 PUSH20 0xFFFFFFFFFFFFFFFFFFFFFFFFFFFFFFFFFFFFFFFF AND MUL OR SWAP1 SSTORE POP PUSH2 0x8C JUMP JUMPDEST PUSH2 0x66D DUP1 PUSH2 0x2B9 DUP4 CODECOPY ADD SWAP1 JUMP JUMPDEST PUSH2 0x21E DUP1 PUSH2 0x9B PUSH1 0x0 CODECOPY PUSH1 0x0 RETURN INVALID PUSH1 0x80 PUSH1 0x40 MSTORE CALLVALUE DUP1 ISZERO PUSH2 0x10 JUMPI PUSH1 0x0 DUP1 REVERT JUMPDEST POP PUSH1 0x4 CALLDATASIZE LT PUSH2 0x41 JUMPI PUSH1 0x0 CALLDATALOAD PUSH1 0xE0 SHR DUP1 PUSH4 0x102C4C65 EQ PUSH2 0x46 JUMPI DUP1 PUSH4 0xEFEDC669 EQ PUSH2 0x7A JUMPI DUP1 PUSH4 0xFA391C64 EQ PUSH2 0x98 JUMPI JUMPDEST PUSH1 0x0 DUP1 REVERT JUMPDEST PUSH2 0x4E PUSH2 0xA2 JUMP JUMPDEST PUSH1 0x40 MLOAD DUP1 DUP3 PUSH20 0xFFFFFFFFFFFFFFFFFFFFFFFFFFFFFFFFFFFFFFFF AND DUP2 MSTORE PUSH1 0x20 ADD SWAP2 POP POP PUSH1 0x40 MLOAD DUP1 SWAP2 SUB SWAP1 RETURN JUMPDEST PUSH2 0x82 PUSH2 0xC8 JUMP JUMPDEST PUSH1 0x40 MLOAD DUP1 DUP3 DUP2 MSTORE PUSH1 0x20 ADD SWAP2 POP POP PUSH1 0x40 MLOAD DUP1 SWAP2 SUB SWAP1 RETURN JUMPDEST PUSH2 0xA0 PUSH2 0xCE JUMP JUMPDEST STOP JUMPDEST PUSH1 0x1 PUSH1 0x0 SWAP1 SLOAD SWAP1 PUSH2 0x100 EXP SWAP1 DIV PUSH20 0xFFFFFFFFFFFFFFFFFFFFFFFFFFFFFFFFFFFFFFFF AND DUP2 JUMP JUMPDEST PUSH1 0x0 SLOAD DUP2 JUMP JUMPDEST PUSH1 0x0 DUP1 DUP2 SWAP1 SSTORE POP PUSH2 0xDE CALLER PUSH2 0x1D5 JUMP JUMPDEST ISZERO PUSH2 0xF0 JUMPI PUSH1 0x19 PUSH1 0x0 SLOAD ADD PUSH1 0x0 DUP2 SWAP1 SSTORE POP JUMPDEST CALLER PUSH20 0xFFFFFFFFFFFFFFFFFFFFFFFFFFFFFFFFFFFFFFFF AND PUSH1 0x1 PUSH1 0x0 SWAP1 SLOAD SWAP1 PUSH2 0x100 EXP SWAP1 DIV PUSH20 0xFFFFFFFFFFFFFFFFFFFFFFFFFFFFFFFFFFFFFFFF AND PUSH20 0xFFFFFFFFFFFFFFFFFFFFFFFFFFFFFFFFFFFFFFFF AND PUSH4 0x8DA5CB5B PUSH1 0x40 MLOAD DUP2 PUSH4 0xFFFFFFFF AND PUSH1 0xE0 SHL DUP2 MSTORE PUSH1 0x4 ADD PUSH1 0x20 PUSH1 0x40 MLOAD DUP1 DUP4 SUB DUP2 DUP7 DUP1 EXTCODESIZE ISZERO DUP1 ISZERO PUSH2 0x16F JUMPI PUSH1 0x0 DUP1 REVERT JUMPDEST POP GAS STATICCALL ISZERO DUP1 ISZERO PUSH2 0x183 JUMPI RETURNDATASIZE PUSH1 0x0 DUP1 RETURNDATACOPY RETURNDATASIZE PUSH1 0x0 REVERT JUMPDEST POP POP POP POP PUSH1 0x40 MLOAD RETURNDATASIZE PUSH1 0x20 DUP2 LT ISZERO PUSH2 0x199 JUMPI PUSH1 0x0 DUP1 REVERT JUMPDEST DUP2 ADD SWAP1 DUP1 DUP1 MLOAD SWAP1 PUSH1 0x20 ADD SWAP1 SWAP3 SWAP2 SWAP1 POP POP POP PUSH20 0xFFFFFFFFFFFFFFFFFFFFFFFFFFFFFFFFFFFFFFFF AND EQ ISZERO PUSH2 0x1D3 JUMPI PUSH1 0x4B PUSH1 0x0 SLOAD ADD PUSH1 0x0 DUP2 SWAP1 SSTORE POP JUMPDEST JUMP JUMPDEST PUSH1 0x0 DUP1 DUP3 EXTCODESIZE SWAP1 POP PUSH1 0x0 DUP2 GT SWAP2 POP POP SWAP2 SWAP1 POP JUMP INVALID LOG2 PUSH5 0x6970667358 0x22 SLT KECCAK256 0xB2 0xCA SWAP15 0xBC SMOD LOG4 SSTORE 0xF DUP6 MSTORE8 0xC3 STOP BLOCKHASH PUSH12 0x86BBB91E45F070A05C0EAE66 0xBB 0xCE 0xDD SWAP16 SWAP14 PUSH21 0x64736F6C634300060C003360806040523480156100 LT JUMPI PUSH1 0x0 DUP1 REVERT JUMPDEST POP PUSH1 0x40 MLOAD PUSH2 0x1D SWAP1 PUSH2 0x128 JUMP JUMPDEST PUSH1 0x40 MLOAD DUP1 SWAP2 SUB SWAP1 PUSH1 0x0 CREATE DUP1 ISZERO DUP1 ISZERO PUSH2 0x39 JUMPI RETURNDATASIZE PUSH1 0x0 DUP1 RETURNDATACOPY RETURNDATASIZE PUSH1 0x0 REVERT JUMPDEST POP PUSH1 0x0 DUP1 PUSH2 0x100 EXP DUP2 SLOAD DUP2 PUSH20 0xFFFFFFFFFFFFFFFFFFFFFFFFFFFFFFFFFFFFFFFF MUL NOT AND SWAP1 DUP4 PUSH20 0xFFFFFFFFFFFFFFFFFFFFFFFFFFFFFFFFFFFFFFFF AND MUL OR SWAP1 SSTORE POP PUSH1 0x40 MLOAD PUSH2 0x85 SWAP1 PUSH2 0x128 JUMP JUMPDEST PUSH1 0x40 MLOAD DUP1 SWAP2 SUB SWAP1 PUSH1 0x0 CREATE DUP1 ISZERO DUP1 ISZERO PUSH2 0xA1 JUMPI RETURNDATASIZE PUSH1 0x0 DUP1 RETURNDATACOPY RETURNDATASIZE PUSH1 0x0 REVERT JUMPDEST POP PUSH1 0x1 PUSH1 0x0 PUSH2 0x100 EXP DUP2 SLOAD DUP2 PUSH20 0xFFFFFFFFFFFFFFFFFFFFFFFFFFFFFFFFFFFFFFFF MUL NOT AND SWAP1 DUP4 PUSH20 0xFFFFFFFFFFFFFFFFFFFFFFFFFFFFFFFFFFFFFFFF AND MUL OR SWAP1 SSTORE POP CALLER PUSH1 0x2 PUSH1 0x0 PUSH2 0x100 EXP DUP2 SLOAD DUP2 PUSH20 0xFFFFFFFFFFFFFFFFFFFFFFFFFFFFFFFFFFFFFFFF MUL NOT AND SWAP1 DUP4 PUSH20 0xFFFFFFFFFFFFFFFFFFFFFFFFFFFFFFFFFFFFFFFF AND MUL OR SWAP1 SSTORE POP PUSH2 0x134 JUMP JUMPDEST PUSH1 0xB6 DUP1 PUSH2 0x5B7 DUP4 CODECOPY ADD SWAP1 JUMP JUMPDEST PUSH2 0x474 DUP1 PUSH2 0x143 PUSH1 0x0 CODECOPY PUSH1 0x0 RETURN INVALID PUSH1 0x80 PUSH1 0x40 MSTORE CALLVALUE DUP1 ISZERO PUSH2 0x10 JUMPI PUSH1 0x0 DUP1 REVERT JUMPDEST POP PUSH1 0x4 CALLDATASIZE LT PUSH2 0x57 JUMPI PUSH1 0x0 CALLDATALOAD PUSH1 0xE0 SHR DUP1 PUSH4 0x27D6974F EQ PUSH2 0x5C JUMPI DUP1 PUSH4 0x3DC79422 EQ PUSH2 0x90 JUMPI DUP1 PUSH4 0x5BDA8FA4 EQ PUSH2 0xC4 JUMPI DUP1 PUSH4 0x8DA5CB5B EQ PUSH2 0xF2 JUMPI DUP1 PUSH4 0xF1E02620 EQ PUSH2 0x126 JUMPI JUMPDEST PUSH1 0x0 DUP1 REVERT JUMPDEST PUSH2 0x64 PUSH2 0x154 JUMP JUMPDEST PUSH1 0x40 MLOAD DUP1 DUP3 PUSH20 0xFFFFFFFFFFFFFFFFFFFFFFFFFFFFFFFFFFFFFFFF AND DUP2 MSTORE PUSH1 0x20 ADD SWAP2 POP POP PUSH1 0x40 MLOAD DUP1 SWAP2 SUB SWAP1 RETURN JUMPDEST PUSH2 0x98 PUSH2 0x17A JUMP JUMPDEST PUSH1 0x40 MLOAD DUP1 DUP3 PUSH20 0xFFFFFFFFFFFFFFFFFFFFFFFFFFFFFFFFFFFFFFFF AND DUP2 MSTORE PUSH1 0x20 ADD SWAP2 POP POP PUSH1 0x40 MLOAD DUP1 SWAP2 SUB SWAP1 RETURN JUMPDEST PUSH2 0xF0 PUSH1 0x4 DUP1 CALLDATASIZE SUB PUSH1 0x20 DUP2 LT ISZERO PUSH2 0xDA JUMPI PUSH1 0x0 DUP1 REVERT JUMPDEST DUP2 ADD SWAP1 DUP1 DUP1 CALLDATALOAD SWAP1 PUSH1 0x20 ADD SWAP1 SWAP3 SWAP2 SWAP1 POP POP POP PUSH2 0x19E JUMP JUMPDEST STOP JUMPDEST PUSH2 0xFA PUSH2 0x2DC JUMP JUMPDEST PUSH1 0x40 MLOAD DUP1 DUP3 PUSH20 0xFFFFFFFFFFFFFFFFFFFFFFFFFFFFFFFFFFFFFFFF AND DUP2 MSTORE PUSH1 0x20 ADD SWAP2 POP POP PUSH1 0x40 MLOAD DUP1 SWAP2 SUB SWAP1 RETURN JUMPDEST PUSH2 0x152 PUSH1 0x4 DUP1 CALLDATASIZE SUB PUSH1 0x20 DUP2 LT ISZERO PUSH2 0x13C JUMPI PUSH1 0x0 DUP1 REVERT JUMPDEST DUP2 ADD SWAP1 DUP1 DUP1 CALLDATALOAD SWAP1 PUSH1 0x20 ADD SWAP1 SWAP3 SWAP2 SWAP1 POP POP POP PUSH2 0x302 JUMP JUMPDEST STOP JUMPDEST PUSH1 0x1 PUSH1 0x0 SWAP1 SLOAD SWAP1 PUSH2 0x100 EXP SWAP1 DIV PUSH20 0xFFFFFFFFFFFFFFFFFFFFFFFFFFFFFFFFFFFFFFFF AND DUP2 JUMP JUMPDEST PUSH1 0x0 DUP1 SLOAD SWAP1 PUSH2 0x100 EXP SWAP1 DIV PUSH20 0xFFFFFFFFFFFFFFFFFFFFFFFFFFFFFFFFFFFFFFFF AND DUP2 JUMP JUMPDEST PUSH1 0x1 PUSH1 0x0 SWAP1 SLOAD SWAP1 PUSH2 0x100 EXP SWAP1 DIV PUSH20 0xFFFFFFFFFFFFFFFFFFFFFFFFFFFFFFFFFFFFFFFF AND PUSH20 0xFFFFFFFFFFFFFFFFFFFFFFFFFFFFFFFFFFFFFFFF AND PUSH32 0x3BEB26C427D03CEADBDAEDC2F7AAC4D9FC345B4FCBFC4B80654FEE46DD7C349A DUP3 PUSH1 0x40 MLOAD PUSH1 0x20 ADD DUP1 DUP4 PUSH28 0xFFFFFFFFFFFFFFFFFFFFFFFFFFFFFFFFFFFFFFFFFFFFFFFFFFFFFFFF NOT AND DUP2 MSTORE PUSH1 0x4 ADD DUP3 DUP2 MSTORE PUSH1 0x20 ADD SWAP3 POP POP POP PUSH1 0x40 MLOAD PUSH1 0x20 DUP2 DUP4 SUB SUB DUP2 MSTORE SWAP1 PUSH1 0x40 MSTORE PUSH1 0x40 MLOAD DUP1 DUP3 DUP1 MLOAD SWAP1 PUSH1 0x20 ADD SWAP1 DUP1 DUP4 DUP4 JUMPDEST PUSH1 0x20 DUP4 LT PUSH2 0x271 JUMPI DUP1 MLOAD DUP3 MSTORE PUSH1 0x20 DUP3 ADD SWAP2 POP PUSH1 0x20 DUP2 ADD SWAP1 POP PUSH1 0x20 DUP4 SUB SWAP3 POP PUSH2 0x24E JUMP JUMPDEST PUSH1 0x1 DUP4 PUSH1 0x20 SUB PUSH2 0x100 EXP SUB DUP1 NOT DUP3 MLOAD AND DUP2 DUP5 MLOAD AND DUP1 DUP3 OR DUP6 MSTORE POP POP POP POP POP POP SWAP1 POP ADD SWAP2 POP POP PUSH1 0x0 PUSH1 0x40 MLOAD DUP1 DUP4 SUB DUP2 DUP6 GAS DELEGATECALL SWAP2 POP POP RETURNDATASIZE DUP1 PUSH1 0x0 DUP2 EQ PUSH2 0x2D1 JUMPI PUSH1 0x40 MLOAD SWAP2 POP PUSH1 0x1F NOT PUSH1 0x3F RETURNDATASIZE ADD AND DUP3 ADD PUSH1 0x40 MSTORE RETURNDATASIZE DUP3 MSTORE RETURNDATASIZE PUSH1 0x0 PUSH1 0x20 DUP5 ADD RETURNDATACOPY PUSH2 0x2D6 JUMP JUMPDEST PUSH1 0x60 SWAP2 POP JUMPDEST POP POP POP POP JUMP JUMPDEST PUSH1 0x2 PUSH1 0x0 SWAP1 SLOAD SWAP1 PUSH2 0x100 EXP SWAP1 DIV PUSH20 0xFFFFFFFFFFFFFFFFFFFFFFFFFFFFFFFFFFFFFFFF AND DUP2 JUMP JUMPDEST PUSH1 0x0 DUP1 SLOAD SWAP1 PUSH2 0x100 EXP SWAP1 DIV PUSH20 0xFFFFFFFFFFFFFFFFFFFFFFFFFFFFFFFFFFFFFFFF AND PUSH20 0xFFFFFFFFFFFFFFFFFFFFFFFFFFFFFFFFFFFFFFFF AND PUSH32 0x3BEB26C427D03CEADBDAEDC2F7AAC4D9FC345B4FCBFC4B80654FEE46DD7C349A DUP3 PUSH1 0x40 MLOAD PUSH1 0x20 ADD DUP1 DUP4 PUSH28 0xFFFFFFFFFFFFFFFFFFFFFFFFFFFFFFFFFFFFFFFFFFFFFFFFFFFFFFFF NOT AND DUP2 MSTORE PUSH1 0x4 ADD DUP3 DUP2 MSTORE PUSH1 0x20 ADD SWAP3 POP POP POP PUSH1 0x40 MLOAD PUSH1 0x20 DUP2 DUP4 SUB SUB DUP2 MSTORE SWAP1 PUSH1 0x40 MSTORE PUSH1 0x40 MLOAD DUP1 DUP3 DUP1 MLOAD SWAP1 PUSH1 0x20 ADD SWAP1 DUP1 DUP4 DUP4 JUMPDEST PUSH1 0x20 DUP4 LT PUSH2 0x3D3 JUMPI DUP1 MLOAD DUP3 MSTORE PUSH1 0x20 DUP3 ADD SWAP2 POP PUSH1 0x20 DUP2 ADD SWAP1 POP PUSH1 0x20 DUP4 SUB SWAP3 POP PUSH2 0x3B0 JUMP JUMPDEST PUSH1 0x1 DUP4 PUSH1 0x20 SUB PUSH2 0x100 EXP SUB DUP1 NOT DUP3 MLOAD AND DUP2 DUP5 MLOAD AND DUP1 DUP3 OR DUP6 MSTORE POP POP POP POP POP POP SWAP1 POP ADD SWAP2 POP POP PUSH1 0x0 PUSH1 0x40 MLOAD DUP1 DUP4 SUB DUP2 DUP6 GAS DELEGATECALL SWAP2 POP POP RETURNDATASIZE DUP1 PUSH1 0x0 DUP2 EQ PUSH2 0x433 JUMPI PUSH1 0x40 MLOAD SWAP2 POP PUSH1 0x1F NOT PUSH1 0x3F RETURNDATASIZE ADD AND DUP3 ADD PUSH1 0x40 MSTORE RETURNDATASIZE DUP3 MSTORE RETURNDATASIZE PUSH1 0x0 PUSH1 0x20 DUP5 ADD RETURNDATACOPY PUSH2 0x438 JUMP JUMPDEST PUSH1 0x60 SWAP2 POP JUMPDEST POP POP POP POP JUMP INVALID LOG2 PUSH5 0x6970667358 0x22 SLT KECCAK256 PUSH8 0xBC0216AC7FA2A309 0x29 0xD 0xBE 0xE6 0xD0 0xB2 CREATE2 0xC5 0xE3 EQ DUP4 SWAP8 0xB8 0xE6 0xE4 SELFBALANCE PUSH31 0x4768459E252964736F6C634300060C00336080604052348015600F57600080 REVERT JUMPDEST POP PUSH1 0x98 DUP1 PUSH2 0x1E PUSH1 0x0 CODECOPY PUSH1 0x0 RETURN INVALID PUSH1 0x80 PUSH1 0x40 MSTORE CALLVALUE DUP1 ISZERO PUSH1 0xF JUMPI PUSH1 0x0 DUP1 REVERT JUMPDEST POP PUSH1 0x4 CALLDATASIZE LT PUSH1 0x28 JUMPI PUSH1 0x0 CALLDATALOAD PUSH1 0xE0 SHR DUP1 PUSH4 0x3BEB26C4 EQ PUSH1 0x2D JUMPI JUMPDEST PUSH1 0x0 DUP1 REVERT JUMPDEST PUSH1 0x56 PUSH1 0x4 DUP1 CALLDATASIZE SUB PUSH1 0x20 DUP2 LT ISZERO PUSH1 0x41 JUMPI PUSH1 0x0 DUP1 REVERT JUMPDEST DUP2 ADD SWAP1 DUP1 DUP1 CALLDATALOAD SWAP1 PUSH1 0x20 ADD SWAP1 SWAP3 SWAP2 SWAP1 POP POP POP PUSH1 0x58 JUMP JUMPDEST STOP JUMPDEST DUP1 PUSH1 0x0 DUP2 SWAP1 SSTORE POP POP JUMP INVALID LOG2 PUSH5 0x6970667358 0x22 SLT KECCAK256 SWAP14 PUSH28 0x40D5B47AA91C94A38BC9E6702A7EDDCB7564DCE1986ED13F867DC00B PUSH9 0xCD64736F6C63430006 0xC STOP CALLER "
		},
		"gasEstimates": {
			"creation": {
				"codeDepositCost": "108400",
				"executionCost": "infinite",
				"totalCost": "infinite"
			},
			"external": {
				"isCompleted()": "infinite",
				"score()": "1005",
				"timeZone()": "1025"
			},
			"internal": {
				"isContract(address)": "747"
			}
		},
		"methodIdentifiers": {
			"isCompleted()": "fa391c64",
			"score()": "efedc669",
			"timeZone()": "102c4c65"
		}
	},
	"abi": [
		{
			"inputs": [],
			"stateMutability": "nonpayable",
			"type": "constructor"
		},
		{
			"inputs": [],
			"name": "isCompleted",
			"outputs": [],
			"stateMutability": "nonpayable",
			"type": "function"
		},
		{
			"inputs": [],
			"name": "score",
			"outputs": [
				{
					"internalType": "uint256",
					"name": "",
					"type": "uint256"
				}
			],
			"stateMutability": "view",
			"type": "function"
		},
		{
			"inputs": [],
			"name": "timeZone",
			"outputs": [
				{
					"internalType": "contract TimeZone",
					"name": "",
					"type": "address"
				}
			],
			"stateMutability": "view",
			"type": "function"
		}
	]
}