{
	"shoot/1/未初始化的局部strong/1.sol": {
		"Struct": {
			"abi": [
				{
					"constant": true,
					"inputs": [
						{
							"name": "",
							"type": "uint256"
						}
					],
					"name": "students",
					"outputs": [
						{
							"name": "score",
							"type": "uint256"
						},
						{
							"name": "time",
							"type": "uint256"
						}
					],
					"payable": false,
					"stateMutability": "view",
					"type": "function"
				},
				{
					"constant": true,
					"inputs": [],
					"name": "owner",
					"outputs": [
						{
							"name": "",
							"type": "address"
						}
					],
					"payable": false,
					"stateMutability": "view",
					"type": "function"
				},
				{
					"constant": false,
					"inputs": [
						{
							"name": "index",
							"type": "uint256"
						}
					],
					"name": "deleteStudent",
					"outputs": [],
					"payable": false,
					"stateMutability": "nonpayable",
					"type": "function"
				},
				{
					"constant": true,
					"inputs": [],
					"name": "score",
					"outputs": [
						{
							"name": "",
							"type": "uint256"
						}
					],
					"payable": false,
					"stateMutability": "view",
					"type": "function"
				},
				{
					"constant": false,
					"inputs": [],
					"name": "isCompleted",
					"outputs": [],
					"payable": false,
					"stateMutability": "nonpayable",
					"type": "function"
				},
				{
					"constant": false,
					"inputs": [
						{
							"name": "_score",
							"type": "uint256"
						},
						{
							"name": "_time",
							"type": "uint256"
						}
					],
					"name": "addStudent",
					"outputs": [],
					"payable": false,
					"stateMutability": "nonpayable",
					"type": "function"
				}
			],
			"devdoc": {
				"methods": {}
			},
			"evm": {
				"assembly": "    /* \"shoot/1/未初始化的局部strong/1.sol\":28:891  contract Struct{\r... */\n  mstore(0x40, 0x80)\n  callvalue\n    /* \"--CODEGEN--\":8:17   */\n  dup1\n    /* \"--CODEGEN--\":5:7   */\n  iszero\n  tag_1\n  jumpi\n    /* \"--CODEGEN--\":30:31   */\n  0x0\n    /* \"--CODEGEN--\":27:28   */\n  dup1\n    /* \"--CODEGEN--\":20:32   */\n  revert\n    /* \"--CODEGEN--\":5:7   */\ntag_1:\n    /* \"shoot/1/未初始化的局部strong/1.sol\":28:891  contract Struct{\r... */\n  pop\n  dataSize(sub_0)\n  dup1\n  dataOffset(sub_0)\n  0x0\n  codecopy\n  0x0\n  return\nstop\n\nsub_0: assembly {\n        /* \"shoot/1/未初始化的局部strong/1.sol\":28:891  contract Struct{\r... */\n      mstore(0x40, 0x80)\n      jumpi(tag_1, lt(calldatasize, 0x4))\n      calldataload(0x0)\n      0x100000000000000000000000000000000000000000000000000000000\n      swap1\n      div\n      0xffffffff\n      and\n      dup1\n      0x6ead22e\n      eq\n      tag_2\n      jumpi\n      dup1\n      0x8da5cb5b\n      eq\n      tag_3\n      jumpi\n      dup1\n      0xb645307d\n      eq\n      tag_4\n      jumpi\n      dup1\n      0xefedc669\n      eq\n      tag_5\n      jumpi\n      dup1\n      0xfa391c64\n      eq\n      tag_6\n      jumpi\n      dup1\n      0xfc8cbf46\n      eq\n      tag_7\n      jumpi\n    tag_1:\n      0x0\n      dup1\n      revert\n        /* \"shoot/1/未初始化的局部strong/1.sol\":155:180  Student[] public students */\n    tag_2:\n      callvalue\n        /* \"--CODEGEN--\":8:17   */\n      dup1\n        /* \"--CODEGEN--\":5:7   */\n      iszero\n      tag_8\n      jumpi\n        /* \"--CODEGEN--\":30:31   */\n      0x0\n        /* \"--CODEGEN--\":27:28   */\n      dup1\n        /* \"--CODEGEN--\":20:32   */\n      revert\n        /* \"--CODEGEN--\":5:7   */\n    tag_8:\n        /* \"shoot/1/未初始化的局部strong/1.sol\":155:180  Student[] public students */\n      pop\n      tag_9\n      0x4\n      dup1\n      calldatasize\n      sub\n      dup2\n      add\n      swap1\n      dup1\n      dup1\n      calldataload\n      swap1\n      0x20\n      add\n      swap1\n      swap3\n      swap2\n      swap1\n      pop\n      pop\n      pop\n      jump(tag_10)\n    tag_9:\n      mload(0x40)\n      dup1\n      dup4\n      dup2\n      mstore\n      0x20\n      add\n      dup3\n      dup2\n      mstore\n      0x20\n      add\n      swap3\n      pop\n      pop\n      pop\n      mload(0x40)\n      dup1\n      swap2\n      sub\n      swap1\n      return\n        /* \"shoot/1/未初始化的局部strong/1.sol\":125:145  address public owner */\n    tag_3:\n      callvalue\n        /* \"--CODEGEN--\":8:17   */\n      dup1\n        /* \"--CODEGEN--\":5:7   */\n      iszero\n      tag_11\n      jumpi\n        /* \"--CODEGEN--\":30:31   */\n      0x0\n        /* \"--CODEGEN--\":27:28   */\n      dup1\n        /* \"--CODEGEN--\":20:32   */\n      revert\n        /* \"--CODEGEN--\":5:7   */\n    tag_11:\n        /* \"shoot/1/未初始化的局部strong/1.sol\":125:145  address public owner */\n      pop\n      tag_12\n      jump(tag_13)\n    tag_12:\n      mload(0x40)\n      dup1\n      dup3\n      0xffffffffffffffffffffffffffffffffffffffff\n      and\n      0xffffffffffffffffffffffffffffffffffffffff\n      and\n      dup2\n      mstore\n      0x20\n      add\n      swap2\n      pop\n      pop\n      mload(0x40)\n      dup1\n      swap2\n      sub\n      swap1\n      return\n        /* \"shoot/1/未初始化的局部strong/1.sol\":411:672  function deleteStudent(uint256 index)public{\r... */\n    tag_4:\n      callvalue\n        /* \"--CODEGEN--\":8:17   */\n      dup1\n        /* \"--CODEGEN--\":5:7   */\n      iszero\n      tag_14\n      jumpi\n        /* \"--CODEGEN--\":30:31   */\n      0x0\n        /* \"--CODEGEN--\":27:28   */\n      dup1\n        /* \"--CODEGEN--\":20:32   */\n      revert\n        /* \"--CODEGEN--\":5:7   */\n    tag_14:\n        /* \"shoot/1/未初始化的局部strong/1.sol\":411:672  function deleteStudent(uint256 index)public{\r... */\n      pop\n      tag_15\n      0x4\n      dup1\n      calldatasize\n      sub\n      dup2\n      add\n      swap1\n      dup1\n      dup1\n      calldataload\n      swap1\n      0x20\n      add\n      swap1\n      swap3\n      swap2\n      swap1\n      pop\n      pop\n      pop\n      jump(tag_16)\n    tag_15:\n      stop\n        /* \"shoot/1/未初始化的局部strong/1.sol\":190:210  uint256 public score */\n    tag_5:\n      callvalue\n        /* \"--CODEGEN--\":8:17   */\n      dup1\n        /* \"--CODEGEN--\":5:7   */\n      iszero\n      tag_17\n      jumpi\n        /* \"--CODEGEN--\":30:31   */\n      0x0\n        /* \"--CODEGEN--\":27:28   */\n      dup1\n        /* \"--CODEGEN--\":20:32   */\n      revert\n        /* \"--CODEGEN--\":5:7   */\n    tag_17:\n        /* \"shoot/1/未初始化的局部strong/1.sol\":190:210  uint256 public score */\n      pop\n      tag_18\n      jump(tag_19)\n    tag_18:\n      mload(0x40)\n      dup1\n      dup3\n      dup2\n      mstore\n      0x20\n      add\n      swap2\n      pop\n      pop\n      mload(0x40)\n      dup1\n      swap2\n      sub\n      swap1\n      return\n        /* \"shoot/1/未初始化的局部strong/1.sol\":685:888  function isCompleted()public{\r... */\n    tag_6:\n      callvalue\n        /* \"--CODEGEN--\":8:17   */\n      dup1\n        /* \"--CODEGEN--\":5:7   */\n      iszero\n      tag_20\n      jumpi\n        /* \"--CODEGEN--\":30:31   */\n      0x0\n        /* \"--CODEGEN--\":27:28   */\n      dup1\n        /* \"--CODEGEN--\":20:32   */\n      revert\n        /* \"--CODEGEN--\":5:7   */\n    tag_20:\n        /* \"shoot/1/未初始化的局部strong/1.sol\":685:888  function isCompleted()public{\r... */\n      pop\n      tag_21\n      jump(tag_22)\n    tag_21:\n      stop\n        /* \"shoot/1/未初始化的局部strong/1.sol\":219:403  function addStudent(uint256 _score,uint256 _time)public{\r... */\n    tag_7:\n      callvalue\n        /* \"--CODEGEN--\":8:17   */\n      dup1\n        /* \"--CODEGEN--\":5:7   */\n      iszero\n      tag_23\n      jumpi\n        /* \"--CODEGEN--\":30:31   */\n      0x0\n        /* \"--CODEGEN--\":27:28   */\n      dup1\n        /* \"--CODEGEN--\":20:32   */\n      revert\n        /* \"--CODEGEN--\":5:7   */\n    tag_23:\n        /* \"shoot/1/未初始化的局部strong/1.sol\":219:403  function addStudent(uint256 _score,uint256 _time)public{\r... */\n      pop\n      tag_24\n      0x4\n      dup1\n      calldatasize\n      sub\n      dup2\n      add\n      swap1\n      dup1\n      dup1\n      calldataload\n      swap1\n      0x20\n      add\n      swap1\n      swap3\n      swap2\n      swap1\n      dup1\n      calldataload\n      swap1\n      0x20\n      add\n      swap1\n      swap3\n      swap2\n      swap1\n      pop\n      pop\n      pop\n      jump(tag_25)\n    tag_24:\n      stop\n        /* \"shoot/1/未初始化的局部strong/1.sol\":155:180  Student[] public students */\n    tag_10:\n      0x1\n      dup2\n      dup2\n      sload\n      dup2\n      lt\n      iszero\n      iszero\n      tag_26\n      jumpi\n      invalid\n    tag_26:\n      swap1\n      0x0\n      mstore\n      keccak256(0x0, 0x20)\n      swap1\n      0x2\n      mul\n      add\n      0x0\n      swap2\n      pop\n      swap1\n      pop\n      dup1\n      0x0\n      add\n      sload\n      swap1\n      dup1\n      0x1\n      add\n      sload\n      swap1\n      pop\n      dup3\n      jump\t// out\n        /* \"shoot/1/未初始化的局部strong/1.sol\":125:145  address public owner */\n    tag_13:\n      0x0\n      dup1\n      swap1\n      sload\n      swap1\n      0x100\n      exp\n      swap1\n      div\n      0xffffffffffffffffffffffffffffffffffffffff\n      and\n      dup2\n      jump\t// out\n        /* \"shoot/1/未初始化的局部strong/1.sol\":411:672  function deleteStudent(uint256 index)public{\r... */\n    tag_16:\n        /* \"shoot/1/未初始化的局部strong/1.sol\":502:521  Student memory temp */\n      tag_28\n      jump\t// in(tag_29)\n    tag_28:\n        /* \"shoot/1/未初始化的局部strong/1.sol\":489:490  0 */\n      0x0\n        /* \"shoot/1/未初始化的局部strong/1.sol\":473:481  students */\n      0x1\n        /* \"shoot/1/未初始化的局部strong/1.sol\":473:488  students.length */\n      dup1\n      sload\n      swap1\n      pop\n        /* \"shoot/1/未初始化的局部strong/1.sol\":473:490  students.length>0 */\n      gt\n        /* \"shoot/1/未初始化的局部strong/1.sol\":465:491  require(students.length>0) */\n      iszero\n      iszero\n      tag_31\n      jumpi\n      0x0\n      dup1\n      revert\n    tag_31:\n        /* \"shoot/1/未初始化的局部strong/1.sol\":524:532  students */\n      0x1\n        /* \"shoot/1/未初始化的局部strong/1.sol\":533:538  index */\n      dup3\n        /* \"shoot/1/未初始化的局部strong/1.sol\":524:539  students[index] */\n      dup2\n      sload\n      dup2\n      lt\n      iszero\n      iszero\n      tag_32\n      jumpi\n      invalid\n    tag_32:\n      swap1\n      0x0\n      mstore\n      keccak256(0x0, 0x20)\n      swap1\n      0x2\n      mul\n      add\n        /* \"shoot/1/未初始化的局部strong/1.sol\":502:539  Student memory temp = students[index] */\n      0x40\n      dup1\n      mload\n      swap1\n      dup2\n      add\n      0x40\n      mstore\n      swap1\n      dup2\n      0x0\n      dup3\n      add\n      sload\n      dup2\n      mstore\n      0x20\n      add\n      0x1\n      dup3\n      add\n      sload\n      dup2\n      mstore\n      pop\n      pop\n      swap1\n      pop\n        /* \"shoot/1/未初始化的局部strong/1.sol\":566:574  students */\n      0x1\n        /* \"shoot/1/未初始化的局部strong/1.sol\":591:592  1 */\n      dup1\n        /* \"shoot/1/未初始化的局部strong/1.sol\":575:583  students */\n      dup1\n        /* \"shoot/1/未初始化的局部strong/1.sol\":575:590  students.length */\n      dup1\n      sload\n      swap1\n      pop\n        /* \"shoot/1/未初始化的局部strong/1.sol\":575:592  students.length-1 */\n      sub\n        /* \"shoot/1/未初始化的局部strong/1.sol\":566:593  students[students.length-1] */\n      dup2\n      sload\n      dup2\n      lt\n      iszero\n      iszero\n      tag_34\n      jumpi\n      invalid\n    tag_34:\n      swap1\n      0x0\n      mstore\n      keccak256(0x0, 0x20)\n      swap1\n      0x2\n      mul\n      add\n        /* \"shoot/1/未初始化的局部strong/1.sol\":550:558  students */\n      0x1\n        /* \"shoot/1/未初始化的局部strong/1.sol\":559:564  index */\n      dup4\n        /* \"shoot/1/未初始化的局部strong/1.sol\":550:565  students[index] */\n      dup2\n      sload\n      dup2\n      lt\n      iszero\n      iszero\n      tag_36\n      jumpi\n      invalid\n    tag_36:\n      swap1\n      0x0\n      mstore\n      keccak256(0x0, 0x20)\n      swap1\n      0x2\n      mul\n      add\n        /* \"shoot/1/未初始化的局部strong/1.sol\":550:593  students[index]=students[students.length-1] */\n      0x0\n      dup3\n      add\n      sload\n      dup2\n      0x0\n      add\n      sstore\n      0x1\n      dup3\n      add\n      sload\n      dup2\n      0x1\n      add\n      sstore\n      swap1\n      pop\n      pop\n        /* \"shoot/1/未初始化的局部strong/1.sol\":632:636  temp */\n      dup1\n        /* \"shoot/1/未初始化的局部strong/1.sol\":604:612  students */\n      0x1\n        /* \"shoot/1/未初始化的局部strong/1.sol\":629:630  1 */\n      dup1\n        /* \"shoot/1/未初始化的局部strong/1.sol\":613:621  students */\n      dup1\n        /* \"shoot/1/未初始化的局部strong/1.sol\":613:628  students.length */\n      dup1\n      sload\n      swap1\n      pop\n        /* \"shoot/1/未初始化的局部strong/1.sol\":613:630  students.length-1 */\n      sub\n        /* \"shoot/1/未初始化的局部strong/1.sol\":604:631  students[students.length-1] */\n      dup2\n      sload\n      dup2\n      lt\n      iszero\n      iszero\n      tag_38\n      jumpi\n      invalid\n    tag_38:\n      swap1\n      0x0\n      mstore\n      keccak256(0x0, 0x20)\n      swap1\n      0x2\n      mul\n      add\n        /* \"shoot/1/未初始化的局部strong/1.sol\":604:636  students[students.length-1]=temp */\n      0x0\n      dup3\n      add\n      mload\n      dup2\n      0x0\n      add\n      sstore\n      0x20\n      dup3\n      add\n      mload\n      dup2\n      0x1\n      add\n      sstore\n      swap1\n      pop\n      pop\n        /* \"shoot/1/未初始化的局部strong/1.sol\":647:655  students */\n      0x1\n        /* \"shoot/1/未初始化的局部strong/1.sol\":647:664  students.length-- */\n      dup1\n      sload\n      dup1\n      swap2\n      swap1\n      0x1\n      swap1\n      sub\n      tag_40\n      swap2\n      swap1\n      jump\t// in(tag_41)\n    tag_40:\n      pop\n        /* \"shoot/1/未初始化的局部strong/1.sol\":411:672  function deleteStudent(uint256 index)public{\r... */\n      pop\n      pop\n      jump\t// out\n        /* \"shoot/1/未初始化的局部strong/1.sol\":190:210  uint256 public score */\n    tag_19:\n      sload(0x2)\n      dup2\n      jump\t// out\n        /* \"shoot/1/未初始化的局部strong/1.sol\":685:888  function isCompleted()public{\r... */\n    tag_22:\n        /* \"shoot/1/未初始化的局部strong/1.sol\":730:731  0 */\n      0x0\n        /* \"shoot/1/未初始化的局部strong/1.sol\":724:729  score */\n      0x2\n        /* \"shoot/1/未初始化的局部strong/1.sol\":724:731  score=0 */\n      dup2\n      swap1\n      sstore\n      pop\n        /* \"shoot/1/未初始化的局部strong/1.sol\":757:762  owner */\n      0x0\n      dup1\n      swap1\n      sload\n      swap1\n      0x100\n      exp\n      swap1\n      div\n      0xffffffffffffffffffffffffffffffffffffffff\n      and\n        /* \"shoot/1/未初始化的局部strong/1.sol\":745:762  msg.sender==owner */\n      0xffffffffffffffffffffffffffffffffffffffff\n      and\n        /* \"shoot/1/未初始化的局部strong/1.sol\":745:755  msg.sender */\n      caller\n        /* \"shoot/1/未初始化的局部strong/1.sol\":745:762  msg.sender==owner */\n      0xffffffffffffffffffffffffffffffffffffffff\n      and\n      eq\n        /* \"shoot/1/未初始化的局部strong/1.sol\":742:798  if(msg.sender==owner){\r... */\n      iszero\n      tag_43\n      jumpi\n        /* \"shoot/1/未初始化的局部strong/1.sol\":784:786  50 */\n      0x32\n        /* \"shoot/1/未初始化的局部strong/1.sol\":778:783  score */\n      0x2\n        /* \"shoot/1/未初始化的局部strong/1.sol\":778:786  score=50 */\n      dup2\n      swap1\n      sstore\n      pop\n        /* \"shoot/1/未初始化的局部strong/1.sol\":742:798  if(msg.sender==owner){\r... */\n    tag_43:\n        /* \"shoot/1/未初始化的局部strong/1.sol\":828:844  1000000000000000 */\n      0x38d7ea4c68000\n        /* \"shoot/1/未初始化的局部strong/1.sol\":811:819  students */\n      0x1\n        /* \"shoot/1/未初始化的局部strong/1.sol\":811:826  students.length */\n      dup1\n      sload\n      swap1\n      pop\n        /* \"shoot/1/未初始化的局部strong/1.sol\":811:844  students.length>=1000000000000000 */\n      lt\n      iszero\n        /* \"shoot/1/未初始化的局部strong/1.sol\":808:881  if(students.length>=1000000000000000){\r... */\n      iszero\n      tag_44\n      jumpi\n        /* \"shoot/1/未初始化的局部strong/1.sol\":866:869  100 */\n      0x64\n        /* \"shoot/1/未初始化的局部strong/1.sol\":860:865  score */\n      0x2\n        /* \"shoot/1/未初始化的局部strong/1.sol\":860:869  score=100 */\n      dup2\n      swap1\n      sstore\n      pop\n        /* \"shoot/1/未初始化的局部strong/1.sol\":808:881  if(students.length>=1000000000000000){\r... */\n    tag_44:\n        /* \"shoot/1/未初始化的局部strong/1.sol\":685:888  function isCompleted()public{\r... */\n      jump\t// out\n        /* \"shoot/1/未初始化的局部strong/1.sol\":219:403  function addStudent(uint256 _score,uint256 _time)public{\r... */\n    tag_25:\n        /* \"shoot/1/未初始化的局部strong/1.sol\":285:300  Student student */\n      0x0\n        /* \"shoot/1/未初始化的局部strong/1.sol\":325:331  _score */\n      dup3\n        /* \"shoot/1/未初始化的局部strong/1.sol\":311:318  student */\n      dup2\n        /* \"shoot/1/未初始化的局部strong/1.sol\":311:324  student.score */\n      0x0\n      add\n        /* \"shoot/1/未初始化的局部strong/1.sol\":311:331  student.score=_score */\n      dup2\n      swap1\n      sstore\n      pop\n        /* \"shoot/1/未初始化的局部strong/1.sol\":357:362  _time */\n      dup2\n        /* \"shoot/1/未初始化的局部strong/1.sol\":342:349  student */\n      dup2\n        /* \"shoot/1/未初始化的局部strong/1.sol\":342:354  student.time */\n      0x1\n      add\n        /* \"shoot/1/未初始化的局部strong/1.sol\":342:362  student.time = _time */\n      dup2\n      swap1\n      sstore\n      pop\n        /* \"shoot/1/未初始化的局部strong/1.sol\":373:381  students */\n      0x1\n        /* \"shoot/1/未初始化的局部strong/1.sol\":387:394  student */\n      dup2\n        /* \"shoot/1/未初始化的局部strong/1.sol\":373:395  students.push(student) */\n      swap1\n      dup1\n        /* \"--CODEGEN--\":39:40   */\n      0x1\n        /* \"--CODEGEN--\":33:36   */\n      dup2\n        /* \"--CODEGEN--\":27:37   */\n      sload\n        /* \"--CODEGEN--\":23:41   */\n      add\n        /* \"--CODEGEN--\":57:67   */\n      dup1\n        /* \"--CODEGEN--\":52:55   */\n      dup3\n        /* \"--CODEGEN--\":45:68   */\n      sstore\n        /* \"--CODEGEN--\":79:89   */\n      dup1\n        /* \"--CODEGEN--\":72:89   */\n      swap2\n      pop\n        /* \"--CODEGEN--\":0:93   */\n      pop\n        /* \"shoot/1/未初始化的局部strong/1.sol\":373:395  students.push(student) */\n      swap1\n      0x1\n      dup3\n      sub\n      swap1\n      0x0\n      mstore\n      keccak256(0x0, 0x20)\n      swap1\n      0x2\n      mul\n      add\n      0x0\n      swap1\n      swap2\n      swap3\n      swap1\n      swap2\n      swap1\n      swap2\n      pop\n      0x0\n      dup3\n      add\n      sload\n      dup2\n      0x0\n      add\n      sstore\n      0x1\n      dup3\n      add\n      sload\n      dup2\n      0x1\n      add\n      sstore\n      pop\n      pop\n      pop\n        /* \"shoot/1/未初始化的局部strong/1.sol\":219:403  function addStudent(uint256 _score,uint256 _time)public{\r... */\n      pop\n      pop\n      pop\n      jump\t// out\n        /* \"shoot/1/未初始化的局部strong/1.sol\":28:891  contract Struct{\r... */\n    tag_29:\n      0x40\n      dup1\n      mload\n      swap1\n      dup2\n      add\n      0x40\n      mstore\n      dup1\n      0x0\n      dup2\n      mstore\n      0x20\n      add\n      0x0\n      dup2\n      mstore\n      pop\n      swap1\n      jump\t// out\n    tag_41:\n      dup2\n      sload\n      dup2\n      dup4\n      sstore\n      dup2\n      dup2\n      gt\n      iszero\n      tag_47\n      jumpi\n      0x2\n      mul\n      dup2\n      0x2\n      mul\n      dup4\n      0x0\n      mstore\n      keccak256(0x0, 0x20)\n      swap2\n      dup3\n      add\n      swap2\n      add\n      tag_48\n      swap2\n      swap1\n      jump\t// in(tag_49)\n    tag_48:\n    tag_47:\n      pop\n      pop\n      pop\n      jump\t// out\n    tag_49:\n      tag_50\n      swap2\n      swap1\n    tag_51:\n      dup1\n      dup3\n      gt\n      iszero\n      tag_52\n      jumpi\n      0x0\n      dup1\n      dup3\n      add\n      0x0\n      swap1\n      sstore\n      0x1\n      dup3\n      add\n      0x0\n      swap1\n      sstore\n      pop\n      0x2\n      add\n      jump(tag_51)\n    tag_52:\n      pop\n      swap1\n      jump\n    tag_50:\n      swap1\n      jump\t// out\n\n    auxdata: 0xa165627a7a723058206aaca508cb509ac455065a69dbdf5a2204525c821214ecf744efeaaac60337920029\n}\n",
				"bytecode": {
					"linkReferences": {},
					"object": "608060405234801561001057600080fd5b506104b1806100206000396000f300608060405260043610610078576000357c0100000000000000000000000000000000000000000000000000000000900463ffffffff16806306ead22e1461007d5780638da5cb5b146100c5578063b645307d1461011c578063efedc66914610149578063fa391c6414610174578063fc8cbf461461018b575b600080fd5b34801561008957600080fd5b506100a8600480360381019080803590602001909291905050506101c2565b604051808381526020018281526020019250505060405180910390f35b3480156100d157600080fd5b506100da6101f5565b604051808273ffffffffffffffffffffffffffffffffffffffff1673ffffffffffffffffffffffffffffffffffffffff16815260200191505060405180910390f35b34801561012857600080fd5b506101476004803603810190808035906020019092919050505061021a565b005b34801561015557600080fd5b5061015e610320565b6040518082815260200191505060405180910390f35b34801561018057600080fd5b50610189610326565b005b34801561019757600080fd5b506101c060048036038101908080359060200190929190803590602001909291905050506103ac565b005b6001818154811015156101d157fe5b90600052602060002090600202016000915090508060000154908060010154905082565b6000809054906101000a900473ffffffffffffffffffffffffffffffffffffffff1681565b61022261040a565b600060018054905011151561023657600080fd5b60018281548110151561024557fe5b906000526020600020906002020160408051908101604052908160008201548152602001600182015481525050905060018080805490500381548110151561028957fe5b90600052602060002090600202016001838154811015156102a657fe5b90600052602060002090600202016000820154816000015560018201548160010155905050806001808080549050038154811015156102e157fe5b90600052602060002090600202016000820151816000015560208201518160010155905050600180548091906001900361031b9190610424565b505050565b60025481565b60006002819055506000809054906101000a900473ffffffffffffffffffffffffffffffffffffffff1673ffffffffffffffffffffffffffffffffffffffff163373ffffffffffffffffffffffffffffffffffffffff16141561038c5760326002819055505b66038d7ea4c680006001805490501015156103aa5760646002819055505b565b6000828160000181905550818160010181905550600181908060018154018082558091505090600182039060005260206000209060020201600090919290919091506000820154816000015560018201548160010155505050505050565b604080519081016040528060008152602001600081525090565b815481835581811115610451576002028160020283600052602060002091820191016104509190610456565b5b505050565b61048291905b8082111561047e5760008082016000905560018201600090555060020161045c565b5090565b905600a165627a7a723058206aaca508cb509ac455065a69dbdf5a2204525c821214ecf744efeaaac60337920029",
					"opcodes": "PUSH1 0x80 PUSH1 0x40 MSTORE CALLVALUE DUP1 ISZERO PUSH2 0x10 JUMPI PUSH1 0x0 DUP1 REVERT JUMPDEST POP PUSH2 0x4B1 DUP1 PUSH2 0x20 PUSH1 0x0 CODECOPY PUSH1 0x0 RETURN STOP PUSH1 0x80 PUSH1 0x40 MSTORE PUSH1 0x4 CALLDATASIZE LT PUSH2 0x78 JUMPI PUSH1 0x0 CALLDATALOAD PUSH29 0x100000000000000000000000000000000000000000000000000000000 SWAP1 DIV PUSH4 0xFFFFFFFF AND DUP1 PUSH4 0x6EAD22E EQ PUSH2 0x7D JUMPI DUP1 PUSH4 0x8DA5CB5B EQ PUSH2 0xC5 JUMPI DUP1 PUSH4 0xB645307D EQ PUSH2 0x11C JUMPI DUP1 PUSH4 0xEFEDC669 EQ PUSH2 0x149 JUMPI DUP1 PUSH4 0xFA391C64 EQ PUSH2 0x174 JUMPI DUP1 PUSH4 0xFC8CBF46 EQ PUSH2 0x18B JUMPI JUMPDEST PUSH1 0x0 DUP1 REVERT JUMPDEST CALLVALUE DUP1 ISZERO PUSH2 0x89 JUMPI PUSH1 0x0 DUP1 REVERT JUMPDEST POP PUSH2 0xA8 PUSH1 0x4 DUP1 CALLDATASIZE SUB DUP2 ADD SWAP1 DUP1 DUP1 CALLDATALOAD SWAP1 PUSH1 0x20 ADD SWAP1 SWAP3 SWAP2 SWAP1 POP POP POP PUSH2 0x1C2 JUMP JUMPDEST PUSH1 0x40 MLOAD DUP1 DUP4 DUP2 MSTORE PUSH1 0x20 ADD DUP3 DUP2 MSTORE PUSH1 0x20 ADD SWAP3 POP POP POP PUSH1 0x40 MLOAD DUP1 SWAP2 SUB SWAP1 RETURN JUMPDEST CALLVALUE DUP1 ISZERO PUSH2 0xD1 JUMPI PUSH1 0x0 DUP1 REVERT JUMPDEST POP PUSH2 0xDA PUSH2 0x1F5 JUMP JUMPDEST PUSH1 0x40 MLOAD DUP1 DUP3 PUSH20 0xFFFFFFFFFFFFFFFFFFFFFFFFFFFFFFFFFFFFFFFF AND PUSH20 0xFFFFFFFFFFFFFFFFFFFFFFFFFFFFFFFFFFFFFFFF AND DUP2 MSTORE PUSH1 0x20 ADD SWAP2 POP POP PUSH1 0x40 MLOAD DUP1 SWAP2 SUB SWAP1 RETURN JUMPDEST CALLVALUE DUP1 ISZERO PUSH2 0x128 JUMPI PUSH1 0x0 DUP1 REVERT JUMPDEST POP PUSH2 0x147 PUSH1 0x4 DUP1 CALLDATASIZE SUB DUP2 ADD SWAP1 DUP1 DUP1 CALLDATALOAD SWAP1 PUSH1 0x20 ADD SWAP1 SWAP3 SWAP2 SWAP1 POP POP POP PUSH2 0x21A JUMP JUMPDEST STOP JUMPDEST CALLVALUE DUP1 ISZERO PUSH2 0x155 JUMPI PUSH1 0x0 DUP1 REVERT JUMPDEST POP PUSH2 0x15E PUSH2 0x320 JUMP JUMPDEST PUSH1 0x40 MLOAD DUP1 DUP3 DUP2 MSTORE PUSH1 0x20 ADD SWAP2 POP POP PUSH1 0x40 MLOAD DUP1 SWAP2 SUB SWAP1 RETURN JUMPDEST CALLVALUE DUP1 ISZERO PUSH2 0x180 JUMPI PUSH1 0x0 DUP1 REVERT JUMPDEST POP PUSH2 0x189 PUSH2 0x326 JUMP JUMPDEST STOP JUMPDEST CALLVALUE DUP1 ISZERO PUSH2 0x197 JUMPI PUSH1 0x0 DUP1 REVERT JUMPDEST POP PUSH2 0x1C0 PUSH1 0x4 DUP1 CALLDATASIZE SUB DUP2 ADD SWAP1 DUP1 DUP1 CALLDATALOAD SWAP1 PUSH1 0x20 ADD SWAP1 SWAP3 SWAP2 SWAP1 DUP1 CALLDATALOAD SWAP1 PUSH1 0x20 ADD SWAP1 SWAP3 SWAP2 SWAP1 POP POP POP PUSH2 0x3AC JUMP JUMPDEST STOP JUMPDEST PUSH1 0x1 DUP2 DUP2 SLOAD DUP2 LT ISZERO ISZERO PUSH2 0x1D1 JUMPI INVALID JUMPDEST SWAP1 PUSH1 0x0 MSTORE PUSH1 0x20 PUSH1 0x0 KECCAK256 SWAP1 PUSH1 0x2 MUL ADD PUSH1 0x0 SWAP2 POP SWAP1 POP DUP1 PUSH1 0x0 ADD SLOAD SWAP1 DUP1 PUSH1 0x1 ADD SLOAD SWAP1 POP DUP3 JUMP JUMPDEST PUSH1 0x0 DUP1 SWAP1 SLOAD SWAP1 PUSH2 0x100 EXP SWAP1 DIV PUSH20 0xFFFFFFFFFFFFFFFFFFFFFFFFFFFFFFFFFFFFFFFF AND DUP2 JUMP JUMPDEST PUSH2 0x222 PUSH2 0x40A JUMP JUMPDEST PUSH1 0x0 PUSH1 0x1 DUP1 SLOAD SWAP1 POP GT ISZERO ISZERO PUSH2 0x236 JUMPI PUSH1 0x0 DUP1 REVERT JUMPDEST PUSH1 0x1 DUP3 DUP2 SLOAD DUP2 LT ISZERO ISZERO PUSH2 0x245 JUMPI INVALID JUMPDEST SWAP1 PUSH1 0x0 MSTORE PUSH1 0x20 PUSH1 0x0 KECCAK256 SWAP1 PUSH1 0x2 MUL ADD PUSH1 0x40 DUP1 MLOAD SWAP1 DUP2 ADD PUSH1 0x40 MSTORE SWAP1 DUP2 PUSH1 0x0 DUP3 ADD SLOAD DUP2 MSTORE PUSH1 0x20 ADD PUSH1 0x1 DUP3 ADD SLOAD DUP2 MSTORE POP POP SWAP1 POP PUSH1 0x1 DUP1 DUP1 DUP1 SLOAD SWAP1 POP SUB DUP2 SLOAD DUP2 LT ISZERO ISZERO PUSH2 0x289 JUMPI INVALID JUMPDEST SWAP1 PUSH1 0x0 MSTORE PUSH1 0x20 PUSH1 0x0 KECCAK256 SWAP1 PUSH1 0x2 MUL ADD PUSH1 0x1 DUP4 DUP2 SLOAD DUP2 LT ISZERO ISZERO PUSH2 0x2A6 JUMPI INVALID JUMPDEST SWAP1 PUSH1 0x0 MSTORE PUSH1 0x20 PUSH1 0x0 KECCAK256 SWAP1 PUSH1 0x2 MUL ADD PUSH1 0x0 DUP3 ADD SLOAD DUP2 PUSH1 0x0 ADD SSTORE PUSH1 0x1 DUP3 ADD SLOAD DUP2 PUSH1 0x1 ADD SSTORE SWAP1 POP POP DUP1 PUSH1 0x1 DUP1 DUP1 DUP1 SLOAD SWAP1 POP SUB DUP2 SLOAD DUP2 LT ISZERO ISZERO PUSH2 0x2E1 JUMPI INVALID JUMPDEST SWAP1 PUSH1 0x0 MSTORE PUSH1 0x20 PUSH1 0x0 KECCAK256 SWAP1 PUSH1 0x2 MUL ADD PUSH1 0x0 DUP3 ADD MLOAD DUP2 PUSH1 0x0 ADD SSTORE PUSH1 0x20 DUP3 ADD MLOAD DUP2 PUSH1 0x1 ADD SSTORE SWAP1 POP POP PUSH1 0x1 DUP1 SLOAD DUP1 SWAP2 SWAP1 PUSH1 0x1 SWAP1 SUB PUSH2 0x31B SWAP2 SWAP1 PUSH2 0x424 JUMP JUMPDEST POP POP POP JUMP JUMPDEST PUSH1 0x2 SLOAD DUP2 JUMP JUMPDEST PUSH1 0x0 PUSH1 0x2 DUP2 SWAP1 SSTORE POP PUSH1 0x0 DUP1 SWAP1 SLOAD SWAP1 PUSH2 0x100 EXP SWAP1 DIV PUSH20 0xFFFFFFFFFFFFFFFFFFFFFFFFFFFFFFFFFFFFFFFF AND PUSH20 0xFFFFFFFFFFFFFFFFFFFFFFFFFFFFFFFFFFFFFFFF AND CALLER PUSH20 0xFFFFFFFFFFFFFFFFFFFFFFFFFFFFFFFFFFFFFFFF AND EQ ISZERO PUSH2 0x38C JUMPI PUSH1 0x32 PUSH1 0x2 DUP2 SWAP1 SSTORE POP JUMPDEST PUSH7 0x38D7EA4C68000 PUSH1 0x1 DUP1 SLOAD SWAP1 POP LT ISZERO ISZERO PUSH2 0x3AA JUMPI PUSH1 0x64 PUSH1 0x2 DUP2 SWAP1 SSTORE POP JUMPDEST JUMP JUMPDEST PUSH1 0x0 DUP3 DUP2 PUSH1 0x0 ADD DUP2 SWAP1 SSTORE POP DUP2 DUP2 PUSH1 0x1 ADD DUP2 SWAP1 SSTORE POP PUSH1 0x1 DUP2 SWAP1 DUP1 PUSH1 0x1 DUP2 SLOAD ADD DUP1 DUP3 SSTORE DUP1 SWAP2 POP POP SWAP1 PUSH1 0x1 DUP3 SUB SWAP1 PUSH1 0x0 MSTORE PUSH1 0x20 PUSH1 0x0 KECCAK256 SWAP1 PUSH1 0x2 MUL ADD PUSH1 0x0 SWAP1 SWAP2 SWAP3 SWAP1 SWAP2 SWAP1 SWAP2 POP PUSH1 0x0 DUP3 ADD SLOAD DUP2 PUSH1 0x0 ADD SSTORE PUSH1 0x1 DUP3 ADD SLOAD DUP2 PUSH1 0x1 ADD SSTORE POP POP POP POP POP POP JUMP JUMPDEST PUSH1 0x40 DUP1 MLOAD SWAP1 DUP2 ADD PUSH1 0x40 MSTORE DUP1 PUSH1 0x0 DUP2 MSTORE PUSH1 0x20 ADD PUSH1 0x0 DUP2 MSTORE POP SWAP1 JUMP JUMPDEST DUP2 SLOAD DUP2 DUP4 SSTORE DUP2 DUP2 GT ISZERO PUSH2 0x451 JUMPI PUSH1 0x2 MUL DUP2 PUSH1 0x2 MUL DUP4 PUSH1 0x0 MSTORE PUSH1 0x20 PUSH1 0x0 KECCAK256 SWAP2 DUP3 ADD SWAP2 ADD PUSH2 0x450 SWAP2 SWAP1 PUSH2 0x456 JUMP JUMPDEST JUMPDEST POP POP POP JUMP JUMPDEST PUSH2 0x482 SWAP2 SWAP1 JUMPDEST DUP1 DUP3 GT ISZERO PUSH2 0x47E JUMPI PUSH1 0x0 DUP1 DUP3 ADD PUSH1 0x0 SWAP1 SSTORE PUSH1 0x1 DUP3 ADD PUSH1 0x0 SWAP1 SSTORE POP PUSH1 0x2 ADD PUSH2 0x45C JUMP JUMPDEST POP SWAP1 JUMP JUMPDEST SWAP1 JUMP STOP LOG1 PUSH6 0x627A7A723058 KECCAK256 PUSH11 0xACA508CB509AC455065A69 0xdb 0xdf GAS 0x22 DIV MSTORE 0x5c DUP3 SLT EQ 0xec 0xf7 DIFFICULTY 0xef 0xea 0xaa 0xc6 SUB CALLDATACOPY SWAP3 STOP 0x29 "
				},
				"gasEstimates": {
					"creation": {
						"codeDepositCost": "240200",
						"executionCost": "281",
						"totalCost": "240481"
					},
					"external": {
						"addStudent(uint256,uint256)": "101157",
						"deleteStudent(uint256)": "infinite",
						"isCompleted()": "30773",
						"owner()": "464",
						"score()": "460",
						"students(uint256)": "1006"
					}
				},
				"methodIdentifiers": {
					"addStudent(uint256,uint256)": "fc8cbf46",
					"deleteStudent(uint256)": "b645307d",
					"isCompleted()": "fa391c64",
					"owner()": "8da5cb5b",
					"score()": "efedc669",
					"students(uint256)": "06ead22e"
				}
			},
			"userdoc": {
				"methods": {}
			}
		}
	}
}