{
	"shoot/2/可预测的随机数/2.sol": {
		"bet": {
			"abi": [
				{
					"inputs": [
						{
							"internalType": "address",
							"name": "",
							"type": "address"
						}
					],
					"name": "balance",
					"outputs": [
						{
							"internalType": "uint256",
							"name": "",
							"type": "uint256"
						}
					],
					"stateMutability": "view",
					"type": "function"
				},
				{
					"inputs": [],
					"name": "bet2profit",
					"outputs": [],
					"stateMutability": "nonpayable",
					"type": "function"
				},
				{
					"inputs": [
						{
							"internalType": "address",
							"name": "",
							"type": "address"
						}
					],
					"name": "betted",
					"outputs": [
						{
							"internalType": "bool",
							"name": "",
							"type": "bool"
						}
					],
					"stateMutability": "view",
					"type": "function"
				},
				{
					"inputs": [
						{
							"internalType": "bytes32",
							"name": "answer",
							"type": "bytes32"
						}
					],
					"name": "cseNumber",
					"outputs": [],
					"stateMutability": "nonpayable",
					"type": "function"
				},
				{
					"inputs": [],
					"name": "isComplete",
					"outputs": [
						{
							"internalType": "uint256",
							"name": "",
							"type": "uint256"
						}
					],
					"stateMutability": "nonpayable",
					"type": "function"
				},
				{
					"inputs": [
						{
							"internalType": "address",
							"name": "to",
							"type": "address"
						},
						{
							"internalType": "uint256",
							"name": "amount",
							"type": "uint256"
						}
					],
					"name": "mint",
					"outputs": [],
					"stateMutability": "nonpayable",
					"type": "function"
				},
				{
					"inputs": [],
					"name": "s",
					"outputs": [
						{
							"internalType": "uint256",
							"name": "",
							"type": "uint256"
						}
					],
					"stateMutability": "view",
					"type": "function"
				},
				{
					"inputs": [],
					"name": "score",
					"outputs": [
						{
							"internalType": "uint256",
							"name": "",
							"type": "uint256"
						}
					],
					"stateMutability": "view",
					"type": "function"
				}
			],
			"devdoc": {
				"kind": "dev",
				"methods": {},
				"version": 1
			},
			"evm": {
				"assembly": "    /* \"shoot/2/可预测的随机数/2.sol\":555:1996  contract bet{\r... */\n  mstore(0x40, 0x80)\n  callvalue\n  dup1\n  iszero\n  tag_1\n  jumpi\n  0x00\n  dup1\n  revert\ntag_1:\n  pop\n  dataSize(sub_0)\n  dup1\n  dataOffset(sub_0)\n  0x00\n  codecopy\n  0x00\n  return\nstop\n\nsub_0: assembly {\n        /* \"shoot/2/可预测的随机数/2.sol\":555:1996  contract bet{\r... */\n      mstore(0x40, 0x80)\n      callvalue\n      dup1\n      iszero\n      tag_1\n      jumpi\n      0x00\n      dup1\n      revert\n    tag_1:\n      pop\n      jumpi(tag_2, lt(calldatasize, 0x04))\n      shr(0xe0, calldataload(0x00))\n      dup1\n      0xb2fa1c9e\n      gt\n      tag_11\n      jumpi\n      dup1\n      0xb2fa1c9e\n      eq\n      tag_7\n      jumpi\n      dup1\n      0xe20ae97e\n      eq\n      tag_8\n      jumpi\n      dup1\n      0xe3d670d7\n      eq\n      tag_9\n      jumpi\n      dup1\n      0xefedc669\n      eq\n      tag_10\n      jumpi\n      jump(tag_2)\n    tag_11:\n      dup1\n      0x40c10f19\n      eq\n      tag_3\n      jumpi\n      dup1\n      0x735389ce\n      eq\n      tag_4\n      jumpi\n      dup1\n      0x7c3e4356\n      eq\n      tag_5\n      jumpi\n      dup1\n      0x86b714e2\n      eq\n      tag_6\n      jumpi\n    tag_2:\n      0x00\n      dup1\n      revert\n        /* \"shoot/2/可预测的随机数/2.sol\":765:891  function mint(address to,uint amount)public{\r... */\n    tag_3:\n      tag_12\n      0x04\n      dup1\n      calldatasize\n      sub\n      0x40\n      dup2\n      lt\n      iszero\n      tag_13\n      jumpi\n      0x00\n      dup1\n      revert\n    tag_13:\n      dup2\n      add\n      swap1\n      dup1\n      dup1\n      calldataload\n      0xffffffffffffffffffffffffffffffffffffffff\n      and\n      swap1\n      0x20\n      add\n      swap1\n      swap3\n      swap2\n      swap1\n      dup1\n      calldataload\n      swap1\n      0x20\n      add\n      swap1\n      swap3\n      swap2\n      swap1\n      pop\n      pop\n      pop\n      tag_14\n      jump\t// in\n    tag_12:\n      stop\n        /* \"shoot/2/可预测的随机数/2.sol\":721:756  mapping(address=>bool)public betted */\n    tag_4:\n      tag_15\n      0x04\n      dup1\n      calldatasize\n      sub\n      0x20\n      dup2\n      lt\n      iszero\n      tag_16\n      jumpi\n      0x00\n      dup1\n      revert\n    tag_16:\n      dup2\n      add\n      swap1\n      dup1\n      dup1\n      calldataload\n      0xffffffffffffffffffffffffffffffffffffffff\n      and\n      swap1\n      0x20\n      add\n      swap1\n      swap3\n      swap2\n      swap1\n      pop\n      pop\n      pop\n      tag_17\n      jump\t// in\n    tag_15:\n      mload(0x40)\n      dup1\n      dup3\n      iszero\n      iszero\n      dup2\n      mstore\n      0x20\n      add\n      swap2\n      pop\n      pop\n      mload(0x40)\n      dup1\n      swap2\n      sub\n      swap1\n      return\n        /* \"shoot/2/可预测的随机数/2.sol\":1218:1859  function bet2profit()public{\r... */\n    tag_5:\n      tag_18\n      tag_19\n      jump\t// in\n    tag_18:\n      stop\n        /* \"shoot/2/可预测的随机数/2.sol\":634:647  uint public s */\n    tag_6:\n      tag_20\n      tag_21\n      jump\t// in\n    tag_20:\n      mload(0x40)\n      dup1\n      dup3\n      dup2\n      mstore\n      0x20\n      add\n      swap2\n      pop\n      pop\n      mload(0x40)\n      dup1\n      swap2\n      sub\n      swap1\n      return\n        /* \"shoot/2/可预测的随机数/2.sol\":1867:1993  function isComplete()public returns(uint){\r... */\n    tag_7:\n      tag_22\n      tag_23\n      jump\t// in\n    tag_22:\n      mload(0x40)\n      dup1\n      dup3\n      dup2\n      mstore\n      0x20\n      add\n      swap2\n      pop\n      pop\n      mload(0x40)\n      dup1\n      swap2\n      sub\n      swap1\n      return\n        /* \"shoot/2/可预测的随机数/2.sol\":899:1029  function cseNumber(bytes32 answer)public{\r... */\n    tag_8:\n      tag_24\n      0x04\n      dup1\n      calldatasize\n      sub\n      0x20\n      dup2\n      lt\n      iszero\n      tag_25\n      jumpi\n      0x00\n      dup1\n      revert\n    tag_25:\n      dup2\n      add\n      swap1\n      dup1\n      dup1\n      calldataload\n      swap1\n      0x20\n      add\n      swap1\n      swap3\n      swap2\n      swap1\n      pop\n      pop\n      pop\n      tag_26\n      jump\t// in\n    tag_24:\n      stop\n        /* \"shoot/2/可预测的随机数/2.sol\":678:714  mapping(address=>uint)public balance */\n    tag_9:\n      tag_27\n      0x04\n      dup1\n      calldatasize\n      sub\n      0x20\n      dup2\n      lt\n      iszero\n      tag_28\n      jumpi\n      0x00\n      dup1\n      revert\n    tag_28:\n      dup2\n      add\n      swap1\n      dup1\n      dup1\n      calldataload\n      0xffffffffffffffffffffffffffffffffffffffff\n      and\n      swap1\n      0x20\n      add\n      swap1\n      swap3\n      swap2\n      swap1\n      pop\n      pop\n      pop\n      tag_29\n      jump\t// in\n    tag_27:\n      mload(0x40)\n      dup1\n      dup3\n      dup2\n      mstore\n      0x20\n      add\n      swap2\n      pop\n      pop\n      mload(0x40)\n      dup1\n      swap2\n      sub\n      swap1\n      return\n        /* \"shoot/2/可预测的随机数/2.sol\":654:671  uint public score */\n    tag_10:\n      tag_30\n      tag_31\n      jump\t// in\n    tag_30:\n      mload(0x40)\n      dup1\n      dup3\n      dup2\n      mstore\n      0x20\n      add\n      swap2\n      pop\n      pop\n      mload(0x40)\n      dup1\n      swap2\n      sub\n      swap1\n      return\n        /* \"shoot/2/可预测的随机数/2.sol\":765:891  function mint(address to,uint amount)public{\r... */\n    tag_14:\n        /* \"shoot/2/可预测的随机数/2.sol\":847:851  this */\n      address\n        /* \"shoot/2/可预测的随机数/2.sol\":827:852  msg.sender==address(this) */\n      0xffffffffffffffffffffffffffffffffffffffff\n      and\n        /* \"shoot/2/可预测的随机数/2.sol\":827:837  msg.sender */\n      caller\n        /* \"shoot/2/可预测的随机数/2.sol\":827:852  msg.sender==address(this) */\n      0xffffffffffffffffffffffffffffffffffffffff\n      and\n      eq\n        /* \"shoot/2/可预测的随机数/2.sol\":819:853  require(msg.sender==address(this)) */\n      tag_33\n      jumpi\n      0x00\n      dup1\n      revert\n    tag_33:\n        /* \"shoot/2/可预测的随机数/2.sol\":877:883  amount */\n      dup1\n        /* \"shoot/2/可预测的随机数/2.sol\":864:871  balance */\n      0x04\n        /* \"shoot/2/可预测的随机数/2.sol\":864:875  balance[to] */\n      0x00\n        /* \"shoot/2/可预测的随机数/2.sol\":872:874  to */\n      dup5\n        /* \"shoot/2/可预测的随机数/2.sol\":864:875  balance[to] */\n      0xffffffffffffffffffffffffffffffffffffffff\n      and\n      0xffffffffffffffffffffffffffffffffffffffff\n      and\n      dup2\n      mstore\n      0x20\n      add\n      swap1\n      dup2\n      mstore\n      0x20\n      add\n      0x00\n      keccak256\n      0x00\n        /* \"shoot/2/可预测的随机数/2.sol\":864:883  balance[to]+=amount */\n      dup3\n      dup3\n      sload\n      add\n      swap3\n      pop\n      pop\n      dup2\n      swap1\n      sstore\n      pop\n        /* \"shoot/2/可预测的随机数/2.sol\":765:891  function mint(address to,uint amount)public{\r... */\n      pop\n      pop\n      jump\t// out\n        /* \"shoot/2/可预测的随机数/2.sol\":721:756  mapping(address=>bool)public betted */\n    tag_17:\n      mstore(0x20, 0x05)\n      dup1\n      0x00\n      mstore\n      keccak256(0x00, 0x40)\n      0x00\n      swap2\n      pop\n      sload\n      swap1\n      0x0100\n      exp\n      swap1\n      div\n      0xff\n      and\n      dup2\n      jump\t// out\n        /* \"shoot/2/可预测的随机数/2.sol\":1218:1859  function bet2profit()public{\r... */\n    tag_19:\n        /* \"shoot/2/可预测的随机数/2.sol\":1265:1271  betted */\n      0x05\n        /* \"shoot/2/可预测的随机数/2.sol\":1265:1283  betted[msg.sender] */\n      0x00\n        /* \"shoot/2/可预测的随机数/2.sol\":1272:1282  msg.sender */\n      caller\n        /* \"shoot/2/可预测的随机数/2.sol\":1265:1283  betted[msg.sender] */\n      0xffffffffffffffffffffffffffffffffffffffff\n      and\n      0xffffffffffffffffffffffffffffffffffffffff\n      and\n      dup2\n      mstore\n      0x20\n      add\n      swap1\n      dup2\n      mstore\n      0x20\n      add\n      0x00\n      keccak256\n      0x00\n      swap1\n      sload\n      swap1\n      0x0100\n      exp\n      swap1\n      div\n      0xff\n      and\n        /* \"shoot/2/可预测的随机数/2.sol\":1264:1283  !betted[msg.sender] */\n      iszero\n        /* \"shoot/2/可预测的随机数/2.sol\":1256:1284  require(!betted[msg.sender]) */\n      tag_35\n      jumpi\n      0x00\n      dup1\n      revert\n    tag_35:\n        /* \"shoot/2/可预测的随机数/2.sol\":1295:1309  bytes32 result */\n      0x00\n        /* \"shoot/2/可预测的随机数/2.sol\":1310:1317  check() */\n      tag_36\n        /* \"shoot/2/可预测的随机数/2.sol\":1310:1315  check */\n      tag_37\n        /* \"shoot/2/可预测的随机数/2.sol\":1310:1317  check() */\n      jump\t// in\n    tag_36:\n        /* \"shoot/2/可预测的随机数/2.sol\":1295:1317  bytes32 result=check() */\n      swap1\n      pop\n        /* \"shoot/2/可预测的随机数/2.sol\":1330:1331  0 */\n      0x00\n        /* \"shoot/2/可预测的随机数/2.sol\":1328:1329  s */\n      0x02\n        /* \"shoot/2/可预测的随机数/2.sol\":1328:1331  s=0 */\n      dup2\n      swap1\n      sstore\n      pop\n        /* \"shoot/2/可预测的随机数/2.sol\":1373:1374  0 */\n      0x00\n        /* \"shoot/2/可预测的随机数/2.sol\":1364:1370  result */\n      dup2\n        /* \"shoot/2/可预测的随机数/2.sol\":1359:1371  uint(result) */\n      0x00\n      shr\n        /* \"shoot/2/可预测的随机数/2.sol\":1351:1357  number */\n      sload(0x00)\n        /* \"shoot/2/可预测的随机数/2.sol\":1346:1358  uint(number) */\n      0x00\n      shr\n        /* \"shoot/2/可预测的随机数/2.sol\":1346:1371  uint(number)-uint(result) */\n      sub\n        /* \"shoot/2/可预测的随机数/2.sol\":1346:1374  uint(number)-uint(result)==0 */\n      eq\n        /* \"shoot/2/可预测的随机数/2.sol\":1346:1404  uint(number)-uint(result)==0||uint(result)-uint(number)==0 */\n      dup1\n      tag_38\n      jumpi\n      pop\n        /* \"shoot/2/可预测的随机数/2.sol\":1403:1404  0 */\n      0x00\n        /* \"shoot/2/可预测的随机数/2.sol\":1394:1400  number */\n      dup1\n      sload\n        /* \"shoot/2/可预测的随机数/2.sol\":1389:1401  uint(number) */\n      0x00\n      shr\n        /* \"shoot/2/可预测的随机数/2.sol\":1381:1387  result */\n      dup3\n        /* \"shoot/2/可预测的随机数/2.sol\":1376:1388  uint(result) */\n      0x00\n      shr\n        /* \"shoot/2/可预测的随机数/2.sol\":1376:1401  uint(result)-uint(number) */\n      sub\n        /* \"shoot/2/可预测的随机数/2.sol\":1376:1404  uint(result)-uint(number)==0 */\n      eq\n        /* \"shoot/2/可预测的随机数/2.sol\":1346:1404  uint(number)-uint(result)==0||uint(result)-uint(number)==0 */\n    tag_38:\n        /* \"shoot/2/可预测的随机数/2.sol\":1342:1818  if (uint(number)-uint(result)==0||uint(result)-uint(number)==0){\r... */\n      iszero\n      tag_39\n      jumpi\n        /* \"shoot/2/可预测的随机数/2.sol\":1420:1424  this */\n      address\n        /* \"shoot/2/可预测的随机数/2.sol\":1420:1429  this.mint */\n      0xffffffffffffffffffffffffffffffffffffffff\n      and\n      0x40c10f19\n        /* \"shoot/2/可预测的随机数/2.sol\":1430:1440  msg.sender */\n      caller\n        /* \"shoot/2/可预测的随机数/2.sol\":1441:1444  100 */\n      0x64\n        /* \"shoot/2/可预测的随机数/2.sol\":1420:1445  this.mint(msg.sender,100) */\n      mload(0x40)\n      dup4\n      0xffffffff\n      and\n      0xe0\n      shl\n      dup2\n      mstore\n      0x04\n      add\n      dup1\n      dup4\n      0xffffffffffffffffffffffffffffffffffffffff\n      and\n      dup2\n      mstore\n      0x20\n      add\n      dup3\n      dup2\n      mstore\n      0x20\n      add\n      swap3\n      pop\n      pop\n      pop\n      0x00\n      mload(0x40)\n      dup1\n      dup4\n      sub\n      dup2\n      0x00\n      dup8\n      dup1\n      extcodesize\n      iszero\n      dup1\n      iszero\n      tag_40\n      jumpi\n      0x00\n      dup1\n      revert\n    tag_40:\n      pop\n      gas\n      call\n      iszero\n      dup1\n      iszero\n      tag_42\n      jumpi\n      returndatasize\n      0x00\n      dup1\n      returndatacopy\n      revert(0x00, returndatasize)\n    tag_42:\n      pop\n      pop\n      pop\n      pop\n        /* \"shoot/2/可预测的随机数/2.sol\":1342:1818  if (uint(number)-uint(result)==0||uint(result)-uint(number)==0){\r... */\n      jump(tag_43)\n    tag_39:\n        /* \"shoot/2/可预测的随机数/2.sol\":1476:1488  bytes32 mask */\n      0x00\n        /* \"shoot/2/可预测的随机数/2.sol\":1489:1555  0xf000000000000000000000000000000000000000000000000000000000000000 */\n      0xf000000000000000000000000000000000000000000000000000000000000000\n        /* \"shoot/2/可预测的随机数/2.sol\":1476:1555  bytes32 mask=0xf000000000000000000000000000000000000000000000000000000000000000 */\n      0x00\n      shl\n      swap1\n      pop\n        /* \"shoot/2/可预测的随机数/2.sol\":1575:1581  uint i */\n      0x00\n        /* \"shoot/2/可预测的随机数/2.sol\":1570:1767  for (uint i=0;i<63;i++){\r... */\n    tag_44:\n        /* \"shoot/2/可预测的随机数/2.sol\":1586:1588  63 */\n      0x3f\n        /* \"shoot/2/可预测的随机数/2.sol\":1584:1585  i */\n      dup2\n        /* \"shoot/2/可预测的随机数/2.sol\":1584:1588  i<63 */\n      lt\n        /* \"shoot/2/可预测的随机数/2.sol\":1570:1767  for (uint i=0;i<63;i++){\r... */\n      iszero\n      tag_45\n      jumpi\n        /* \"shoot/2/可预测的随机数/2.sol\":1633:1639  number */\n      sload(0x00)\n        /* \"shoot/2/可预测的随机数/2.sol\":1628:1632  mask */\n      dup3\n        /* \"shoot/2/可预测的随机数/2.sol\":1628:1639  mask&number */\n      and\n        /* \"shoot/2/可预测的随机数/2.sol\":1620:1626  result */\n      dup4\n        /* \"shoot/2/可预测的随机数/2.sol\":1615:1619  mask */\n      dup4\n        /* \"shoot/2/可预测的随机数/2.sol\":1615:1626  mask&result */\n      and\n        /* \"shoot/2/可预测的随机数/2.sol\":1615:1639  mask&result==mask&number */\n      eq\n        /* \"shoot/2/可预测的随机数/2.sol\":1612:1725  if(mask&result==mask&number){\r... */\n      iszero\n      tag_47\n      jumpi\n        /* \"shoot/2/可预测的随机数/2.sol\":1663:1664  s */\n      0x02\n      0x00\n        /* \"shoot/2/可预测的随机数/2.sol\":1663:1666  s++ */\n      dup2\n      sload\n      dup1\n      swap3\n      swap2\n      swap1\n      0x01\n      add\n      swap2\n      swap1\n      pop\n      sstore\n      pop\n        /* \"shoot/2/可预测的随机数/2.sol\":1695:1697  10 */\n      0x0a\n        /* \"shoot/2/可预测的随机数/2.sol\":1692:1693  s */\n      sload(0x02)\n        /* \"shoot/2/可预测的随机数/2.sol\":1692:1697  s>=10 */\n      lt\n        /* \"shoot/2/可预测的随机数/2.sol\":1689:1706  if(s>=10){break;} */\n      tag_48\n      jumpi\n        /* \"shoot/2/可预测的随机数/2.sol\":1699:1704  break */\n      jump(tag_45)\n        /* \"shoot/2/可预测的随机数/2.sol\":1689:1706  if(s>=10){break;} */\n    tag_48:\n        /* \"shoot/2/可预测的随机数/2.sol\":1612:1725  if(mask&result==mask&number){\r... */\n    tag_47:\n        /* \"shoot/2/可预测的随机数/2.sol\":1750:1751  4 */\n      0x04\n        /* \"shoot/2/可预测的随机数/2.sol\":1743:1751  mask>>=4 */\n      dup3\n      swap1\n      shr\n      swap2\n      pop\n        /* \"shoot/2/可预测的随机数/2.sol\":1589:1592  i++ */\n      dup1\n      dup1\n      0x01\n      add\n      swap2\n      pop\n      pop\n        /* \"shoot/2/可预测的随机数/2.sol\":1570:1767  for (uint i=0;i<63;i++){\r... */\n      jump(tag_44)\n    tag_45:\n      pop\n        /* \"shoot/2/可预测的随机数/2.sol\":1781:1785  this */\n      address\n        /* \"shoot/2/可预测的随机数/2.sol\":1781:1790  this.mint */\n      0xffffffffffffffffffffffffffffffffffffffff\n      and\n      0x40c10f19\n        /* \"shoot/2/可预测的随机数/2.sol\":1791:1801  msg.sender */\n      caller\n        /* \"shoot/2/可预测的随机数/2.sol\":1804:1805  5 */\n      0x05\n        /* \"shoot/2/可预测的随机数/2.sol\":1802:1803  s */\n      sload(0x02)\n        /* \"shoot/2/可预测的随机数/2.sol\":1802:1805  s*5 */\n      mul\n        /* \"shoot/2/可预测的随机数/2.sol\":1781:1806  this.mint(msg.sender,s*5) */\n      mload(0x40)\n      dup4\n      0xffffffff\n      and\n      0xe0\n      shl\n      dup2\n      mstore\n      0x04\n      add\n      dup1\n      dup4\n      0xffffffffffffffffffffffffffffffffffffffff\n      and\n      dup2\n      mstore\n      0x20\n      add\n      dup3\n      dup2\n      mstore\n      0x20\n      add\n      swap3\n      pop\n      pop\n      pop\n      0x00\n      mload(0x40)\n      dup1\n      dup4\n      sub\n      dup2\n      0x00\n      dup8\n      dup1\n      extcodesize\n      iszero\n      dup1\n      iszero\n      tag_49\n      jumpi\n      0x00\n      dup1\n      revert\n    tag_49:\n      pop\n      gas\n      call\n      iszero\n      dup1\n      iszero\n      tag_51\n      jumpi\n      returndatasize\n      0x00\n      dup1\n      returndatacopy\n      revert(0x00, returndatasize)\n    tag_51:\n      pop\n      pop\n      pop\n      pop\n        /* \"shoot/2/可预测的随机数/2.sol\":1342:1818  if (uint(number)-uint(result)==0||uint(result)-uint(number)==0){\r... */\n      pop\n    tag_43:\n        /* \"shoot/2/可预测的随机数/2.sol\":1847:1851  true */\n      0x01\n        /* \"shoot/2/可预测的随机数/2.sol\":1828:1834  betted */\n      0x05\n        /* \"shoot/2/可预测的随机数/2.sol\":1828:1846  betted[msg.sender] */\n      0x00\n        /* \"shoot/2/可预测的随机数/2.sol\":1835:1845  msg.sender */\n      caller\n        /* \"shoot/2/可预测的随机数/2.sol\":1828:1846  betted[msg.sender] */\n      0xffffffffffffffffffffffffffffffffffffffff\n      and\n      0xffffffffffffffffffffffffffffffffffffffff\n      and\n      dup2\n      mstore\n      0x20\n      add\n      swap1\n      dup2\n      mstore\n      0x20\n      add\n      0x00\n      keccak256\n      0x00\n        /* \"shoot/2/可预测的随机数/2.sol\":1828:1851  betted[msg.sender]=true */\n      0x0100\n      exp\n      dup2\n      sload\n      dup2\n      0xff\n      mul\n      not\n      and\n      swap1\n      dup4\n      iszero\n      iszero\n      mul\n      or\n      swap1\n      sstore\n      pop\n        /* \"shoot/2/可预测的随机数/2.sol\":1218:1859  function bet2profit()public{\r... */\n      pop\n      jump\t// out\n        /* \"shoot/2/可预测的随机数/2.sol\":634:647  uint public s */\n    tag_21:\n      sload(0x02)\n      dup2\n      jump\t// out\n        /* \"shoot/2/可预测的随机数/2.sol\":1867:1993  function isComplete()public returns(uint){\r... */\n    tag_23:\n        /* \"shoot/2/可预测的随机数/2.sol\":1903:1907  uint */\n      0x00\n        /* \"shoot/2/可预测的随机数/2.sol\":1925:1926  0 */\n      dup1\n        /* \"shoot/2/可预测的随机数/2.sol\":1919:1924  score */\n      0x03\n        /* \"shoot/2/可预测的随机数/2.sol\":1919:1926  score=0 */\n      dup2\n      swap1\n      sstore\n      pop\n        /* \"shoot/2/可预测的随机数/2.sol\":1943:1950  balance */\n      0x04\n        /* \"shoot/2/可预测的随机数/2.sol\":1943:1962  balance[msg.sender] */\n      0x00\n        /* \"shoot/2/可预测的随机数/2.sol\":1951:1961  msg.sender */\n      caller\n        /* \"shoot/2/可预测的随机数/2.sol\":1943:1962  balance[msg.sender] */\n      0xffffffffffffffffffffffffffffffffffffffff\n      and\n      0xffffffffffffffffffffffffffffffffffffffff\n      and\n      dup2\n      mstore\n      0x20\n      add\n      swap1\n      dup2\n      mstore\n      0x20\n      add\n      0x00\n      keccak256\n      sload\n        /* \"shoot/2/可预测的随机数/2.sol\":1937:1942  score */\n      0x03\n        /* \"shoot/2/可预测的随机数/2.sol\":1937:1962  score=balance[msg.sender] */\n      dup2\n      swap1\n      sstore\n      pop\n        /* \"shoot/2/可预测的随机数/2.sol\":1980:1985  score */\n      sload(0x03)\n        /* \"shoot/2/可预测的随机数/2.sol\":1973:1985  return score */\n      swap1\n      pop\n        /* \"shoot/2/可预测的随机数/2.sol\":1867:1993  function isComplete()public returns(uint){\r... */\n      swap1\n      jump\t// out\n        /* \"shoot/2/可预测的随机数/2.sol\":899:1029  function cseNumber(bytes32 answer)public{\r... */\n    tag_26:\n        /* \"shoot/2/可预测的随机数/2.sol\":957:963  answer */\n      dup1\n        /* \"shoot/2/可预测的随机数/2.sol\":950:956  number */\n      0x00\n        /* \"shoot/2/可预测的随机数/2.sol\":950:963  number=answer */\n      dup2\n      swap1\n      sstore\n      pop\n        /* \"shoot/2/可预测的随机数/2.sol\":1009:1021  block.number */\n      number\n        /* \"shoot/2/可预测的随机数/2.sol\":997:1008  lotteryTime */\n      0x01\n        /* \"shoot/2/可预测的随机数/2.sol\":997:1021  lotteryTime=block.number */\n      dup2\n      swap1\n      sstore\n      pop\n        /* \"shoot/2/可预测的随机数/2.sol\":899:1029  function cseNumber(bytes32 answer)public{\r... */\n      pop\n      jump\t// out\n        /* \"shoot/2/可预测的随机数/2.sol\":678:714  mapping(address=>uint)public balance */\n    tag_29:\n      mstore(0x20, 0x04)\n      dup1\n      0x00\n      mstore\n      keccak256(0x00, 0x40)\n      0x00\n      swap2\n      pop\n      swap1\n      pop\n      sload\n      dup2\n      jump\t// out\n        /* \"shoot/2/可预测的随机数/2.sol\":654:671  uint public score */\n    tag_31:\n      sload(0x03)\n      dup2\n      jump\t// out\n        /* \"shoot/2/可预测的随机数/2.sol\":1037:1210  function check()internal view returns(bytes32){\r... */\n    tag_37:\n        /* \"shoot/2/可预测的随机数/2.sol\":1075:1082  bytes32 */\n      0x00\n        /* \"shoot/2/可预测的随机数/2.sol\":1128:1129  1 */\n      0x01\n        /* \"shoot/2/可预测的随机数/2.sol\":1116:1127  lotteryTime */\n      dup1\n      sload\n        /* \"shoot/2/可预测的随机数/2.sol\":1116:1129  lotteryTime+1 */\n      add\n        /* \"shoot/2/可预测的随机数/2.sol\":1102:1114  block.number */\n      number\n        /* \"shoot/2/可预测的随机数/2.sol\":1102:1129  block.number>=lotteryTime+1 */\n      lt\n      iszero\n        /* \"shoot/2/可预测的随机数/2.sol\":1094:1130  require(block.number>=lotteryTime+1) */\n      tag_55\n      jumpi\n      0x00\n      dup1\n      revert\n    tag_55:\n        /* \"shoot/2/可预测的随机数/2.sol\":1141:1155  bytes32 result */\n      0x00\n        /* \"shoot/2/可预测的随机数/2.sol\":1166:1177  lotteryTime */\n      sload(0x01)\n        /* \"shoot/2/可预测的随机数/2.sol\":1156:1178  blockhash(lotteryTime) */\n      blockhash\n        /* \"shoot/2/可预测的随机数/2.sol\":1141:1178  bytes32 result=blockhash(lotteryTime) */\n      swap1\n      pop\n        /* \"shoot/2/可预测的随机数/2.sol\":1196:1202  result */\n      dup1\n        /* \"shoot/2/可预测的随机数/2.sol\":1189:1202  return result */\n      swap2\n      pop\n      pop\n        /* \"shoot/2/可预测的随机数/2.sol\":1037:1210  function check()internal view returns(bytes32){\r... */\n      swap1\n      jump\t// out\n\n    auxdata: 0xa26469706673582212205120c532d0a565fe8beb800fbad53938a020a41532433716b9ca8d236c99c66f64736f6c634300060c0033\n}\n",
				"bytecode": {
					"linkReferences": {},
					"object": "608060405234801561001057600080fd5b50610631806100206000396000f3fe608060405234801561001057600080fd5b50600436106100885760003560e01c8063b2fa1c9e1161005b578063b2fa1c9e1461015d578063e20ae97e1461017b578063e3d670d7146101a9578063efedc6691461020157610088565b806340c10f191461008d578063735389ce146100db5780637c3e43561461013557806386b714e21461013f575b600080fd5b6100d9600480360360408110156100a357600080fd5b81019080803573ffffffffffffffffffffffffffffffffffffffff1690602001909291908035906020019092919050505061021f565b005b61011d600480360360208110156100f157600080fd5b81019080803573ffffffffffffffffffffffffffffffffffffffff1690602001909291905050506102a8565b60405180821515815260200191505060405180910390f35b61013d6102c8565b005b61014761054d565b6040518082815260200191505060405180910390f35b610165610553565b6040518082815260200191505060405180910390f35b6101a76004803603602081101561019157600080fd5b81019080803590602001909291905050506105aa565b005b6101eb600480360360208110156101bf57600080fd5b81019080803573ffffffffffffffffffffffffffffffffffffffff1690602001909291905050506105bb565b6040518082815260200191505060405180910390f35b6102096105d3565b6040518082815260200191505060405180910390f35b3073ffffffffffffffffffffffffffffffffffffffff163373ffffffffffffffffffffffffffffffffffffffff161461025757600080fd5b80600460008473ffffffffffffffffffffffffffffffffffffffff1673ffffffffffffffffffffffffffffffffffffffff168152602001908152602001600020600082825401925050819055505050565b60056020528060005260406000206000915054906101000a900460ff1681565b600560003373ffffffffffffffffffffffffffffffffffffffff1673ffffffffffffffffffffffffffffffffffffffff16815260200190815260200160002060009054906101000a900460ff161561031f57600080fd5b60006103296105d9565b9050600060028190555060008160001c60005460001c03148061035557506000805460001c8260001c03145b156103e9573073ffffffffffffffffffffffffffffffffffffffff166340c10f193360646040518363ffffffff1660e01b8152600401808373ffffffffffffffffffffffffffffffffffffffff16815260200182815260200192505050600060405180830381600087803b1580156103cc57600080fd5b505af11580156103e0573d6000803e3d6000fd5b505050506104f2565b60007ff00000000000000000000000000000000000000000000000000000000000000060001b905060005b603f811015610461576000548216838316141561044d57600260008154809291906001019190505550600a6002541061044c57610461565b5b600482901c91508080600101915050610414565b503073ffffffffffffffffffffffffffffffffffffffff166340c10f19336005600254026040518363ffffffff1660e01b8152600401808373ffffffffffffffffffffffffffffffffffffffff16815260200182815260200192505050600060405180830381600087803b1580156104d857600080fd5b505af11580156104ec573d6000803e3d6000fd5b50505050505b6001600560003373ffffffffffffffffffffffffffffffffffffffff1673ffffffffffffffffffffffffffffffffffffffff16815260200190815260200160002060006101000a81548160ff02191690831515021790555050565b60025481565b600080600381905550600460003373ffffffffffffffffffffffffffffffffffffffff1673ffffffffffffffffffffffffffffffffffffffff16815260200190815260200160002054600381905550600354905090565b806000819055504360018190555050565b60046020528060005260406000206000915090505481565b60035481565b600060018054014310156105ec57600080fd5b6000600154409050809150509056fea26469706673582212205120c532d0a565fe8beb800fbad53938a020a41532433716b9ca8d236c99c66f64736f6c634300060c0033",
					"opcodes": "PUSH1 0x80 PUSH1 0x40 MSTORE CALLVALUE DUP1 ISZERO PUSH2 0x10 JUMPI PUSH1 0x0 DUP1 REVERT JUMPDEST POP PUSH2 0x631 DUP1 PUSH2 0x20 PUSH1 0x0 CODECOPY PUSH1 0x0 RETURN INVALID PUSH1 0x80 PUSH1 0x40 MSTORE CALLVALUE DUP1 ISZERO PUSH2 0x10 JUMPI PUSH1 0x0 DUP1 REVERT JUMPDEST POP PUSH1 0x4 CALLDATASIZE LT PUSH2 0x88 JUMPI PUSH1 0x0 CALLDATALOAD PUSH1 0xE0 SHR DUP1 PUSH4 0xB2FA1C9E GT PUSH2 0x5B JUMPI DUP1 PUSH4 0xB2FA1C9E EQ PUSH2 0x15D JUMPI DUP1 PUSH4 0xE20AE97E EQ PUSH2 0x17B JUMPI DUP1 PUSH4 0xE3D670D7 EQ PUSH2 0x1A9 JUMPI DUP1 PUSH4 0xEFEDC669 EQ PUSH2 0x201 JUMPI PUSH2 0x88 JUMP JUMPDEST DUP1 PUSH4 0x40C10F19 EQ PUSH2 0x8D JUMPI DUP1 PUSH4 0x735389CE EQ PUSH2 0xDB JUMPI DUP1 PUSH4 0x7C3E4356 EQ PUSH2 0x135 JUMPI DUP1 PUSH4 0x86B714E2 EQ PUSH2 0x13F JUMPI JUMPDEST PUSH1 0x0 DUP1 REVERT JUMPDEST PUSH2 0xD9 PUSH1 0x4 DUP1 CALLDATASIZE SUB PUSH1 0x40 DUP2 LT ISZERO PUSH2 0xA3 JUMPI PUSH1 0x0 DUP1 REVERT JUMPDEST DUP2 ADD SWAP1 DUP1 DUP1 CALLDATALOAD PUSH20 0xFFFFFFFFFFFFFFFFFFFFFFFFFFFFFFFFFFFFFFFF AND SWAP1 PUSH1 0x20 ADD SWAP1 SWAP3 SWAP2 SWAP1 DUP1 CALLDATALOAD SWAP1 PUSH1 0x20 ADD SWAP1 SWAP3 SWAP2 SWAP1 POP POP POP PUSH2 0x21F JUMP JUMPDEST STOP JUMPDEST PUSH2 0x11D PUSH1 0x4 DUP1 CALLDATASIZE SUB PUSH1 0x20 DUP2 LT ISZERO PUSH2 0xF1 JUMPI PUSH1 0x0 DUP1 REVERT JUMPDEST DUP2 ADD SWAP1 DUP1 DUP1 CALLDATALOAD PUSH20 0xFFFFFFFFFFFFFFFFFFFFFFFFFFFFFFFFFFFFFFFF AND SWAP1 PUSH1 0x20 ADD SWAP1 SWAP3 SWAP2 SWAP1 POP POP POP PUSH2 0x2A8 JUMP JUMPDEST PUSH1 0x40 MLOAD DUP1 DUP3 ISZERO ISZERO DUP2 MSTORE PUSH1 0x20 ADD SWAP2 POP POP PUSH1 0x40 MLOAD DUP1 SWAP2 SUB SWAP1 RETURN JUMPDEST PUSH2 0x13D PUSH2 0x2C8 JUMP JUMPDEST STOP JUMPDEST PUSH2 0x147 PUSH2 0x54D JUMP JUMPDEST PUSH1 0x40 MLOAD DUP1 DUP3 DUP2 MSTORE PUSH1 0x20 ADD SWAP2 POP POP PUSH1 0x40 MLOAD DUP1 SWAP2 SUB SWAP1 RETURN JUMPDEST PUSH2 0x165 PUSH2 0x553 JUMP JUMPDEST PUSH1 0x40 MLOAD DUP1 DUP3 DUP2 MSTORE PUSH1 0x20 ADD SWAP2 POP POP PUSH1 0x40 MLOAD DUP1 SWAP2 SUB SWAP1 RETURN JUMPDEST PUSH2 0x1A7 PUSH1 0x4 DUP1 CALLDATASIZE SUB PUSH1 0x20 DUP2 LT ISZERO PUSH2 0x191 JUMPI PUSH1 0x0 DUP1 REVERT JUMPDEST DUP2 ADD SWAP1 DUP1 DUP1 CALLDATALOAD SWAP1 PUSH1 0x20 ADD SWAP1 SWAP3 SWAP2 SWAP1 POP POP POP PUSH2 0x5AA JUMP JUMPDEST STOP JUMPDEST PUSH2 0x1EB PUSH1 0x4 DUP1 CALLDATASIZE SUB PUSH1 0x20 DUP2 LT ISZERO PUSH2 0x1BF JUMPI PUSH1 0x0 DUP1 REVERT JUMPDEST DUP2 ADD SWAP1 DUP1 DUP1 CALLDATALOAD PUSH20 0xFFFFFFFFFFFFFFFFFFFFFFFFFFFFFFFFFFFFFFFF AND SWAP1 PUSH1 0x20 ADD SWAP1 SWAP3 SWAP2 SWAP1 POP POP POP PUSH2 0x5BB JUMP JUMPDEST PUSH1 0x40 MLOAD DUP1 DUP3 DUP2 MSTORE PUSH1 0x20 ADD SWAP2 POP POP PUSH1 0x40 MLOAD DUP1 SWAP2 SUB SWAP1 RETURN JUMPDEST PUSH2 0x209 PUSH2 0x5D3 JUMP JUMPDEST PUSH1 0x40 MLOAD DUP1 DUP3 DUP2 MSTORE PUSH1 0x20 ADD SWAP2 POP POP PUSH1 0x40 MLOAD DUP1 SWAP2 SUB SWAP1 RETURN JUMPDEST ADDRESS PUSH20 0xFFFFFFFFFFFFFFFFFFFFFFFFFFFFFFFFFFFFFFFF AND CALLER PUSH20 0xFFFFFFFFFFFFFFFFFFFFFFFFFFFFFFFFFFFFFFFF AND EQ PUSH2 0x257 JUMPI PUSH1 0x0 DUP1 REVERT JUMPDEST DUP1 PUSH1 0x4 PUSH1 0x0 DUP5 PUSH20 0xFFFFFFFFFFFFFFFFFFFFFFFFFFFFFFFFFFFFFFFF AND PUSH20 0xFFFFFFFFFFFFFFFFFFFFFFFFFFFFFFFFFFFFFFFF AND DUP2 MSTORE PUSH1 0x20 ADD SWAP1 DUP2 MSTORE PUSH1 0x20 ADD PUSH1 0x0 KECCAK256 PUSH1 0x0 DUP3 DUP3 SLOAD ADD SWAP3 POP POP DUP2 SWAP1 SSTORE POP POP POP JUMP JUMPDEST PUSH1 0x5 PUSH1 0x20 MSTORE DUP1 PUSH1 0x0 MSTORE PUSH1 0x40 PUSH1 0x0 KECCAK256 PUSH1 0x0 SWAP2 POP SLOAD SWAP1 PUSH2 0x100 EXP SWAP1 DIV PUSH1 0xFF AND DUP2 JUMP JUMPDEST PUSH1 0x5 PUSH1 0x0 CALLER PUSH20 0xFFFFFFFFFFFFFFFFFFFFFFFFFFFFFFFFFFFFFFFF AND PUSH20 0xFFFFFFFFFFFFFFFFFFFFFFFFFFFFFFFFFFFFFFFF AND DUP2 MSTORE PUSH1 0x20 ADD SWAP1 DUP2 MSTORE PUSH1 0x20 ADD PUSH1 0x0 KECCAK256 PUSH1 0x0 SWAP1 SLOAD SWAP1 PUSH2 0x100 EXP SWAP1 DIV PUSH1 0xFF AND ISZERO PUSH2 0x31F JUMPI PUSH1 0x0 DUP1 REVERT JUMPDEST PUSH1 0x0 PUSH2 0x329 PUSH2 0x5D9 JUMP JUMPDEST SWAP1 POP PUSH1 0x0 PUSH1 0x2 DUP2 SWAP1 SSTORE POP PUSH1 0x0 DUP2 PUSH1 0x0 SHR PUSH1 0x0 SLOAD PUSH1 0x0 SHR SUB EQ DUP1 PUSH2 0x355 JUMPI POP PUSH1 0x0 DUP1 SLOAD PUSH1 0x0 SHR DUP3 PUSH1 0x0 SHR SUB EQ JUMPDEST ISZERO PUSH2 0x3E9 JUMPI ADDRESS PUSH20 0xFFFFFFFFFFFFFFFFFFFFFFFFFFFFFFFFFFFFFFFF AND PUSH4 0x40C10F19 CALLER PUSH1 0x64 PUSH1 0x40 MLOAD DUP4 PUSH4 0xFFFFFFFF AND PUSH1 0xE0 SHL DUP2 MSTORE PUSH1 0x4 ADD DUP1 DUP4 PUSH20 0xFFFFFFFFFFFFFFFFFFFFFFFFFFFFFFFFFFFFFFFF AND DUP2 MSTORE PUSH1 0x20 ADD DUP3 DUP2 MSTORE PUSH1 0x20 ADD SWAP3 POP POP POP PUSH1 0x0 PUSH1 0x40 MLOAD DUP1 DUP4 SUB DUP2 PUSH1 0x0 DUP8 DUP1 EXTCODESIZE ISZERO DUP1 ISZERO PUSH2 0x3CC JUMPI PUSH1 0x0 DUP1 REVERT JUMPDEST POP GAS CALL ISZERO DUP1 ISZERO PUSH2 0x3E0 JUMPI RETURNDATASIZE PUSH1 0x0 DUP1 RETURNDATACOPY RETURNDATASIZE PUSH1 0x0 REVERT JUMPDEST POP POP POP POP PUSH2 0x4F2 JUMP JUMPDEST PUSH1 0x0 PUSH32 0xF000000000000000000000000000000000000000000000000000000000000000 PUSH1 0x0 SHL SWAP1 POP PUSH1 0x0 JUMPDEST PUSH1 0x3F DUP2 LT ISZERO PUSH2 0x461 JUMPI PUSH1 0x0 SLOAD DUP3 AND DUP4 DUP4 AND EQ ISZERO PUSH2 0x44D JUMPI PUSH1 0x2 PUSH1 0x0 DUP2 SLOAD DUP1 SWAP3 SWAP2 SWAP1 PUSH1 0x1 ADD SWAP2 SWAP1 POP SSTORE POP PUSH1 0xA PUSH1 0x2 SLOAD LT PUSH2 0x44C JUMPI PUSH2 0x461 JUMP JUMPDEST JUMPDEST PUSH1 0x4 DUP3 SWAP1 SHR SWAP2 POP DUP1 DUP1 PUSH1 0x1 ADD SWAP2 POP POP PUSH2 0x414 JUMP JUMPDEST POP ADDRESS PUSH20 0xFFFFFFFFFFFFFFFFFFFFFFFFFFFFFFFFFFFFFFFF AND PUSH4 0x40C10F19 CALLER PUSH1 0x5 PUSH1 0x2 SLOAD MUL PUSH1 0x40 MLOAD DUP4 PUSH4 0xFFFFFFFF AND PUSH1 0xE0 SHL DUP2 MSTORE PUSH1 0x4 ADD DUP1 DUP4 PUSH20 0xFFFFFFFFFFFFFFFFFFFFFFFFFFFFFFFFFFFFFFFF AND DUP2 MSTORE PUSH1 0x20 ADD DUP3 DUP2 MSTORE PUSH1 0x20 ADD SWAP3 POP POP POP PUSH1 0x0 PUSH1 0x40 MLOAD DUP1 DUP4 SUB DUP2 PUSH1 0x0 DUP8 DUP1 EXTCODESIZE ISZERO DUP1 ISZERO PUSH2 0x4D8 JUMPI PUSH1 0x0 DUP1 REVERT JUMPDEST POP GAS CALL ISZERO DUP1 ISZERO PUSH2 0x4EC JUMPI RETURNDATASIZE PUSH1 0x0 DUP1 RETURNDATACOPY RETURNDATASIZE PUSH1 0x0 REVERT JUMPDEST POP POP POP POP POP JUMPDEST PUSH1 0x1 PUSH1 0x5 PUSH1 0x0 CALLER PUSH20 0xFFFFFFFFFFFFFFFFFFFFFFFFFFFFFFFFFFFFFFFF AND PUSH20 0xFFFFFFFFFFFFFFFFFFFFFFFFFFFFFFFFFFFFFFFF AND DUP2 MSTORE PUSH1 0x20 ADD SWAP1 DUP2 MSTORE PUSH1 0x20 ADD PUSH1 0x0 KECCAK256 PUSH1 0x0 PUSH2 0x100 EXP DUP2 SLOAD DUP2 PUSH1 0xFF MUL NOT AND SWAP1 DUP4 ISZERO ISZERO MUL OR SWAP1 SSTORE POP POP JUMP JUMPDEST PUSH1 0x2 SLOAD DUP2 JUMP JUMPDEST PUSH1 0x0 DUP1 PUSH1 0x3 DUP2 SWAP1 SSTORE POP PUSH1 0x4 PUSH1 0x0 CALLER PUSH20 0xFFFFFFFFFFFFFFFFFFFFFFFFFFFFFFFFFFFFFFFF AND PUSH20 0xFFFFFFFFFFFFFFFFFFFFFFFFFFFFFFFFFFFFFFFF AND DUP2 MSTORE PUSH1 0x20 ADD SWAP1 DUP2 MSTORE PUSH1 0x20 ADD PUSH1 0x0 KECCAK256 SLOAD PUSH1 0x3 DUP2 SWAP1 SSTORE POP PUSH1 0x3 SLOAD SWAP1 POP SWAP1 JUMP JUMPDEST DUP1 PUSH1 0x0 DUP2 SWAP1 SSTORE POP NUMBER PUSH1 0x1 DUP2 SWAP1 SSTORE POP POP JUMP JUMPDEST PUSH1 0x4 PUSH1 0x20 MSTORE DUP1 PUSH1 0x0 MSTORE PUSH1 0x40 PUSH1 0x0 KECCAK256 PUSH1 0x0 SWAP2 POP SWAP1 POP SLOAD DUP2 JUMP JUMPDEST PUSH1 0x3 SLOAD DUP2 JUMP JUMPDEST PUSH1 0x0 PUSH1 0x1 DUP1 SLOAD ADD NUMBER LT ISZERO PUSH2 0x5EC JUMPI PUSH1 0x0 DUP1 REVERT JUMPDEST PUSH1 0x0 PUSH1 0x1 SLOAD BLOCKHASH SWAP1 POP DUP1 SWAP2 POP POP SWAP1 JUMP INVALID LOG2 PUSH5 0x6970667358 0x22 SLT KECCAK256 MLOAD KECCAK256 0xC5 ORIGIN 0xD0 0xA5 PUSH6 0xFE8BEB800FBA 0xD5 CODECOPY CODESIZE LOG0 KECCAK256 LOG4 ISZERO ORIGIN NUMBER CALLDATACOPY AND 0xB9 0xCA DUP14 0x23 PUSH13 0x99C66F64736F6C634300060C00 CALLER "
				},
				"gasEstimates": {
					"creation": {
						"codeDepositCost": "317000",
						"executionCost": "355",
						"totalCost": "317355"
					},
					"external": {
						"balance(address)": "1213",
						"bet2profit()": "infinite",
						"betted(address)": "1223",
						"cseNumber(bytes32)": "40277",
						"isComplete()": "26930",
						"mint(address,uint256)": "21220",
						"s()": "1072",
						"score()": "1071"
					},
					"internal": {
						"check()": "1687"
					}
				},
				"methodIdentifiers": {
					"balance(address)": "e3d670d7",
					"bet2profit()": "7c3e4356",
					"betted(address)": "735389ce",
					"cseNumber(bytes32)": "e20ae97e",
					"isComplete()": "b2fa1c9e",
					"mint(address,uint256)": "40c10f19",
					"s()": "86b714e2",
					"score()": "efedc669"
				}
			},
			"storageLayout": {
				"storage": [
					{
						"astId": 65,
						"contract": "shoot/2/可预测的随机数/2.sol:bet",
						"label": "number",
						"offset": 0,
						"slot": "0",
						"type": "t_bytes32"
					},
					{
						"astId": 67,
						"contract": "shoot/2/可预测的随机数/2.sol:bet",
						"label": "lotteryTime",
						"offset": 0,
						"slot": "1",
						"type": "t_uint256"
					},
					{
						"astId": 69,
						"contract": "shoot/2/可预测的随机数/2.sol:bet",
						"label": "s",
						"offset": 0,
						"slot": "2",
						"type": "t_uint256"
					},
					{
						"astId": 71,
						"contract": "shoot/2/可预测的随机数/2.sol:bet",
						"label": "score",
						"offset": 0,
						"slot": "3",
						"type": "t_uint256"
					},
					{
						"astId": 75,
						"contract": "shoot/2/可预测的随机数/2.sol:bet",
						"label": "balance",
						"offset": 0,
						"slot": "4",
						"type": "t_mapping(t_address,t_uint256)"
					},
					{
						"astId": 79,
						"contract": "shoot/2/可预测的随机数/2.sol:bet",
						"label": "betted",
						"offset": 0,
						"slot": "5",
						"type": "t_mapping(t_address,t_bool)"
					}
				],
				"types": {
					"t_address": {
						"encoding": "inplace",
						"label": "address",
						"numberOfBytes": "20"
					},
					"t_bool": {
						"encoding": "inplace",
						"label": "bool",
						"numberOfBytes": "1"
					},
					"t_bytes32": {
						"encoding": "inplace",
						"label": "bytes32",
						"numberOfBytes": "32"
					},
					"t_mapping(t_address,t_bool)": {
						"encoding": "mapping",
						"key": "t_address",
						"label": "mapping(address => bool)",
						"numberOfBytes": "32",
						"value": "t_bool"
					},
					"t_mapping(t_address,t_uint256)": {
						"encoding": "mapping",
						"key": "t_address",
						"label": "mapping(address => uint256)",
						"numberOfBytes": "32",
						"value": "t_uint256"
					},
					"t_uint256": {
						"encoding": "inplace",
						"label": "uint256",
						"numberOfBytes": "32"
					}
				}
			},
			"userdoc": {
				"kind": "user",
				"methods": {},
				"version": 1
			}
		}
	}
}