{
	"data": {
		"bytecode": {
			"linkReferences": {},
			"object": "6080604052336000806101000a81548173ffffffffffffffffffffffffffffffffffffffff021916908373ffffffffffffffffffffffffffffffffffffffff160217905550610551806100536000396000f30060806040526004361061008e576000357c0100000000000000000000000000000000000000000000000000000000900463ffffffff1680632e1a7d4d14610093578063521eb273146100b357806370a08231146100de578063b145a5b814610135578063d0e30db014610164578063efedc6691461016e578063f8ef108514610199578063fa391c64146101a3575b600080fd5b6100b1600480360381019080803590602001909291905050506101ba565b005b3480156100bf57600080fd5b506100c86102ab565b6040518082815260200191505060405180910390f35b3480156100ea57600080fd5b5061011f600480360381019080803573ffffffffffffffffffffffffffffffffffffffff1690602001909291905050506102ca565b6040518082815260200191505060405180910390f35b34801561014157600080fd5b5061014a610313565b604051808215151515815260200191505060405180910390f35b61016c610326565b005b34801561017a57600080fd5b50610183610375565b6040518082815260200191505060405180910390f35b6101a161037b565b005b3480156101af57600080fd5b506101b8610444565b005b80600160003373ffffffffffffffffffffffffffffffffffffffff1673ffffffffffffffffffffffffffffffffffffffff168152602001908152602001600020541015151561020857600080fd5b803073ffffffffffffffffffffffffffffffffffffffff16311015151561022e57600080fd5b3373ffffffffffffffffffffffffffffffffffffffff168160405160006040518083038185875af1925050505080600160003373ffffffffffffffffffffffffffffffffffffffff1673ffffffffffffffffffffffffffffffffffffffff1681526020019081526020016000206000828254039250508190555050565b60003073ffffffffffffffffffffffffffffffffffffffff1631905090565b6000600160008373ffffffffffffffffffffffffffffffffffffffff1673ffffffffffffffffffffffffffffffffffffffff168152602001908152602001600020549050919050565b600360009054906101000a900460ff1681565b34600160003373ffffffffffffffffffffffffffffffffffffffff1673ffffffffffffffffffffffffffffffffffffffff16815260200190815260200160002060008282540192505081905550565b60025481565b600360009054906101000a900460ff1615156104425766038d7ea4c680003073ffffffffffffffffffffffffffffffffffffffff1631141515610426576040517f08c379a000000000000000000000000000000000000000000000000000000000815260040180806020018281038252601c8152602001807f73686f756c6420696e6974207769746820302e3030312065746865720000000081525060200191505060405180910390fd5b6001600360006101000a81548160ff0219169083151502179055505b565b600360009054906101000a900460ff1615156104c8576040517f08c379a000000000000000000000000000000000000000000000000000000000815260040180806020018281038252601c8152602001807f596f752063616e277420646f20697420776974686f757420696e69740000000081525060200191505060405180910390fd5b60006002819055506104d933610512565b156104e75760196002819055505b60003073ffffffffffffffffffffffffffffffffffffffff163114156105105760646002819055505b565b600080823b9050600081119150509190505600a165627a7a723058205f76876efc87e17411e45b771f9c3b288578ac266420252c85e1e31e7a7a393a0029",
			"opcodes": "PUSH1 0x80 PUSH1 0x40 MSTORE CALLER PUSH1 0x0 DUP1 PUSH2 0x100 EXP DUP2 SLOAD DUP2 PUSH20 0xFFFFFFFFFFFFFFFFFFFFFFFFFFFFFFFFFFFFFFFF MUL NOT AND SWAP1 DUP4 PUSH20 0xFFFFFFFFFFFFFFFFFFFFFFFFFFFFFFFFFFFFFFFF AND MUL OR SWAP1 SSTORE POP PUSH2 0x551 DUP1 PUSH2 0x53 PUSH1 0x0 CODECOPY PUSH1 0x0 RETURN STOP PUSH1 0x80 PUSH1 0x40 MSTORE PUSH1 0x4 CALLDATASIZE LT PUSH2 0x8E JUMPI PUSH1 0x0 CALLDATALOAD PUSH29 0x100000000000000000000000000000000000000000000000000000000 SWAP1 DIV PUSH4 0xFFFFFFFF AND DUP1 PUSH4 0x2E1A7D4D EQ PUSH2 0x93 JUMPI DUP1 PUSH4 0x521EB273 EQ PUSH2 0xB3 JUMPI DUP1 PUSH4 0x70A08231 EQ PUSH2 0xDE JUMPI DUP1 PUSH4 0xB145A5B8 EQ PUSH2 0x135 JUMPI DUP1 PUSH4 0xD0E30DB0 EQ PUSH2 0x164 JUMPI DUP1 PUSH4 0xEFEDC669 EQ PUSH2 0x16E JUMPI DUP1 PUSH4 0xF8EF1085 EQ PUSH2 0x199 JUMPI DUP1 PUSH4 0xFA391C64 EQ PUSH2 0x1A3 JUMPI JUMPDEST PUSH1 0x0 DUP1 REVERT JUMPDEST PUSH2 0xB1 PUSH1 0x4 DUP1 CALLDATASIZE SUB DUP2 ADD SWAP1 DUP1 DUP1 CALLDATALOAD SWAP1 PUSH1 0x20 ADD SWAP1 SWAP3 SWAP2 SWAP1 POP POP POP PUSH2 0x1BA JUMP JUMPDEST STOP JUMPDEST CALLVALUE DUP1 ISZERO PUSH2 0xBF JUMPI PUSH1 0x0 DUP1 REVERT JUMPDEST POP PUSH2 0xC8 PUSH2 0x2AB JUMP JUMPDEST PUSH1 0x40 MLOAD DUP1 DUP3 DUP2 MSTORE PUSH1 0x20 ADD SWAP2 POP POP PUSH1 0x40 MLOAD DUP1 SWAP2 SUB SWAP1 RETURN JUMPDEST CALLVALUE DUP1 ISZERO PUSH2 0xEA JUMPI PUSH1 0x0 DUP1 REVERT JUMPDEST POP PUSH2 0x11F PUSH1 0x4 DUP1 CALLDATASIZE SUB DUP2 ADD SWAP1 DUP1 DUP1 CALLDATALOAD PUSH20 0xFFFFFFFFFFFFFFFFFFFFFFFFFFFFFFFFFFFFFFFF AND SWAP1 PUSH1 0x20 ADD SWAP1 SWAP3 SWAP2 SWAP1 POP POP POP PUSH2 0x2CA JUMP JUMPDEST PUSH1 0x40 MLOAD DUP1 DUP3 DUP2 MSTORE PUSH1 0x20 ADD SWAP2 POP POP PUSH1 0x40 MLOAD DUP1 SWAP2 SUB SWAP1 RETURN JUMPDEST CALLVALUE DUP1 ISZERO PUSH2 0x141 JUMPI PUSH1 0x0 DUP1 REVERT JUMPDEST POP PUSH2 0x14A PUSH2 0x313 JUMP JUMPDEST PUSH1 0x40 MLOAD DUP1 DUP3 ISZERO ISZERO ISZERO ISZERO DUP2 MSTORE PUSH1 0x20 ADD SWAP2 POP POP PUSH1 0x40 MLOAD DUP1 SWAP2 SUB SWAP1 RETURN JUMPDEST PUSH2 0x16C PUSH2 0x326 JUMP JUMPDEST STOP JUMPDEST CALLVALUE DUP1 ISZERO PUSH2 0x17A JUMPI PUSH1 0x0 DUP1 REVERT JUMPDEST POP PUSH2 0x183 PUSH2 0x375 JUMP JUMPDEST PUSH1 0x40 MLOAD DUP1 DUP3 DUP2 MSTORE PUSH1 0x20 ADD SWAP2 POP POP PUSH1 0x40 MLOAD DUP1 SWAP2 SUB SWAP1 RETURN JUMPDEST PUSH2 0x1A1 PUSH2 0x37B JUMP JUMPDEST STOP JUMPDEST CALLVALUE DUP1 ISZERO PUSH2 0x1AF JUMPI PUSH1 0x0 DUP1 REVERT JUMPDEST POP PUSH2 0x1B8 PUSH2 0x444 JUMP JUMPDEST STOP JUMPDEST DUP1 PUSH1 0x1 PUSH1 0x0 CALLER PUSH20 0xFFFFFFFFFFFFFFFFFFFFFFFFFFFFFFFFFFFFFFFF AND PUSH20 0xFFFFFFFFFFFFFFFFFFFFFFFFFFFFFFFFFFFFFFFF AND DUP2 MSTORE PUSH1 0x20 ADD SWAP1 DUP2 MSTORE PUSH1 0x20 ADD PUSH1 0x0 KECCAK256 SLOAD LT ISZERO ISZERO ISZERO PUSH2 0x208 JUMPI PUSH1 0x0 DUP1 REVERT JUMPDEST DUP1 ADDRESS PUSH20 0xFFFFFFFFFFFFFFFFFFFFFFFFFFFFFFFFFFFFFFFF AND BALANCE LT ISZERO ISZERO ISZERO PUSH2 0x22E JUMPI PUSH1 0x0 DUP1 REVERT JUMPDEST CALLER PUSH20 0xFFFFFFFFFFFFFFFFFFFFFFFFFFFFFFFFFFFFFFFF AND DUP2 PUSH1 0x40 MLOAD PUSH1 0x0 PUSH1 0x40 MLOAD DUP1 DUP4 SUB DUP2 DUP6 DUP8 GAS CALL SWAP3 POP POP POP POP DUP1 PUSH1 0x1 PUSH1 0x0 CALLER PUSH20 0xFFFFFFFFFFFFFFFFFFFFFFFFFFFFFFFFFFFFFFFF AND PUSH20 0xFFFFFFFFFFFFFFFFFFFFFFFFFFFFFFFFFFFFFFFF AND DUP2 MSTORE PUSH1 0x20 ADD SWAP1 DUP2 MSTORE PUSH1 0x20 ADD PUSH1 0x0 KECCAK256 PUSH1 0x0 DUP3 DUP3 SLOAD SUB SWAP3 POP POP DUP2 SWAP1 SSTORE POP POP JUMP JUMPDEST PUSH1 0x0 ADDRESS PUSH20 0xFFFFFFFFFFFFFFFFFFFFFFFFFFFFFFFFFFFFFFFF AND BALANCE SWAP1 POP SWAP1 JUMP JUMPDEST PUSH1 0x0 PUSH1 0x1 PUSH1 0x0 DUP4 PUSH20 0xFFFFFFFFFFFFFFFFFFFFFFFFFFFFFFFFFFFFFFFF AND PUSH20 0xFFFFFFFFFFFFFFFFFFFFFFFFFFFFFFFFFFFFFFFF AND DUP2 MSTORE PUSH1 0x20 ADD SWAP1 DUP2 MSTORE PUSH1 0x20 ADD PUSH1 0x0 KECCAK256 SLOAD SWAP1 POP SWAP2 SWAP1 POP JUMP JUMPDEST PUSH1 0x3 PUSH1 0x0 SWAP1 SLOAD SWAP1 PUSH2 0x100 EXP SWAP1 DIV PUSH1 0xFF AND DUP2 JUMP JUMPDEST CALLVALUE PUSH1 0x1 PUSH1 0x0 CALLER PUSH20 0xFFFFFFFFFFFFFFFFFFFFFFFFFFFFFFFFFFFFFFFF AND PUSH20 0xFFFFFFFFFFFFFFFFFFFFFFFFFFFFFFFFFFFFFFFF AND DUP2 MSTORE PUSH1 0x20 ADD SWAP1 DUP2 MSTORE PUSH1 0x20 ADD PUSH1 0x0 KECCAK256 PUSH1 0x0 DUP3 DUP3 SLOAD ADD SWAP3 POP POP DUP2 SWAP1 SSTORE POP JUMP JUMPDEST PUSH1 0x2 SLOAD DUP2 JUMP JUMPDEST PUSH1 0x3 PUSH1 0x0 SWAP1 SLOAD SWAP1 PUSH2 0x100 EXP SWAP1 DIV PUSH1 0xFF AND ISZERO ISZERO PUSH2 0x442 JUMPI PUSH7 0x38D7EA4C68000 ADDRESS PUSH20 0xFFFFFFFFFFFFFFFFFFFFFFFFFFFFFFFFFFFFFFFF AND BALANCE EQ ISZERO ISZERO PUSH2 0x426 JUMPI PUSH1 0x40 MLOAD PUSH32 0x8C379A000000000000000000000000000000000000000000000000000000000 DUP2 MSTORE PUSH1 0x4 ADD DUP1 DUP1 PUSH1 0x20 ADD DUP3 DUP2 SUB DUP3 MSTORE PUSH1 0x1C DUP2 MSTORE PUSH1 0x20 ADD DUP1 PUSH32 0x73686F756C6420696E6974207769746820302E30303120657468657200000000 DUP2 MSTORE POP PUSH1 0x20 ADD SWAP2 POP POP PUSH1 0x40 MLOAD DUP1 SWAP2 SUB SWAP1 REVERT JUMPDEST PUSH1 0x1 PUSH1 0x3 PUSH1 0x0 PUSH2 0x100 EXP DUP2 SLOAD DUP2 PUSH1 0xFF MUL NOT AND SWAP1 DUP4 ISZERO ISZERO MUL OR SWAP1 SSTORE POP JUMPDEST JUMP JUMPDEST PUSH1 0x3 PUSH1 0x0 SWAP1 SLOAD SWAP1 PUSH2 0x100 EXP SWAP1 DIV PUSH1 0xFF AND ISZERO ISZERO PUSH2 0x4C8 JUMPI PUSH1 0x40 MLOAD PUSH32 0x8C379A000000000000000000000000000000000000000000000000000000000 DUP2 MSTORE PUSH1 0x4 ADD DUP1 DUP1 PUSH1 0x20 ADD DUP3 DUP2 SUB DUP3 MSTORE PUSH1 0x1C DUP2 MSTORE PUSH1 0x20 ADD DUP1 PUSH32 0x596F752063616E277420646F20697420776974686F757420696E697400000000 DUP2 MSTORE POP PUSH1 0x20 ADD SWAP2 POP POP PUSH1 0x40 MLOAD DUP1 SWAP2 SUB SWAP1 REVERT JUMPDEST PUSH1 0x0 PUSH1 0x2 DUP2 SWAP1 SSTORE POP PUSH2 0x4D9 CALLER PUSH2 0x512 JUMP JUMPDEST ISZERO PUSH2 0x4E7 JUMPI PUSH1 0x19 PUSH1 0x2 DUP2 SWAP1 SSTORE POP JUMPDEST PUSH1 0x0 ADDRESS PUSH20 0xFFFFFFFFFFFFFFFFFFFFFFFFFFFFFFFFFFFFFFFF AND BALANCE EQ ISZERO PUSH2 0x510 JUMPI PUSH1 0x64 PUSH1 0x2 DUP2 SWAP1 SSTORE POP JUMPDEST JUMP JUMPDEST PUSH1 0x0 DUP1 DUP3 EXTCODESIZE SWAP1 POP PUSH1 0x0 DUP2 GT SWAP2 POP POP SWAP2 SWAP1 POP JUMP STOP LOG1 PUSH6 0x627A7A723058 KECCAK256 0x5f PUSH23 0x876EFC87E17411E45B771F9C3B288578AC266420252C85 0xe1 0xe3 0x1e PUSH27 0x7A393A002900000000000000000000000000000000000000000000 "
		},
		"gasEstimates": {
			"creation": {
				"codeDepositCost": "272200",
				"executionCost": "20554",
				"totalCost": "292754"
			},
			"external": {
				"balanceOf(address)": "603",
				"deposit()": "20518",
				"initWithValue()": "21201",
				"isCompleted()": "31800",
				"isInit()": "508",
				"score()": "504",
				"wallet()": "629",
				"withdraw(uint256)": "infinite"
			},
			"internal": {
				"isContract(address)": "747"
			}
		},
		"methodIdentifiers": {
			"balanceOf(address)": "70a08231",
			"deposit()": "d0e30db0",
			"initWithValue()": "f8ef1085",
			"isCompleted()": "fa391c64",
			"isInit()": "b145a5b8",
			"score()": "efedc669",
			"wallet()": "521eb273",
			"withdraw(uint256)": "2e1a7d4d"
		}
	},
	"abi": [
		{
			"constant": false,
			"inputs": [
				{
					"name": "amount",
					"type": "uint256"
				}
			],
			"name": "withdraw",
			"outputs": [],
			"payable": true,
			"stateMutability": "payable",
			"type": "function"
		},
		{
			"constant": true,
			"inputs": [],
			"name": "wallet",
			"outputs": [
				{
					"name": "result",
					"type": "uint256"
				}
			],
			"payable": false,
			"stateMutability": "view",
			"type": "function"
		},
		{
			"constant": true,
			"inputs": [
				{
					"name": "adre",
					"type": "address"
				}
			],
			"name": "balanceOf",
			"outputs": [
				{
					"name": "",
					"type": "uint256"
				}
			],
			"payable": false,
			"stateMutability": "view",
			"type": "function"
		},
		{
			"constant": true,
			"inputs": [],
			"name": "isInit",
			"outputs": [
				{
					"name": "",
					"type": "bool"
				}
			],
			"payable": false,
			"stateMutability": "view",
			"type": "function"
		},
		{
			"constant": false,
			"inputs": [],
			"name": "deposit",
			"outputs": [],
			"payable": true,
			"stateMutability": "payable",
			"type": "function"
		},
		{
			"constant": true,
			"inputs": [],
			"name": "score",
			"outputs": [
				{
					"name": "",
					"type": "uint256"
				}
			],
			"payable": false,
			"stateMutability": "view",
			"type": "function"
		},
		{
			"constant": false,
			"inputs": [],
			"name": "initWithValue",
			"outputs": [],
			"payable": true,
			"stateMutability": "payable",
			"type": "function"
		},
		{
			"constant": false,
			"inputs": [],
			"name": "isCompleted",
			"outputs": [],
			"payable": false,
			"stateMutability": "nonpayable",
			"type": "function"
		},
		{
			"inputs": [],
			"payable": true,
			"stateMutability": "payable",
			"type": "constructor"
		}
	]
}