{
	"data": {
		"bytecode": {
			"linkReferences": {},
			"object": "608060405234801561000f575f80fd5b506040516105e93803806105e9833981810160405281019061003191906100e5565b805f806101000a81548173ffffffffffffffffffffffffffffffffffffffff021916908373ffffffffffffffffffffffffffffffffffffffff16021790555050610110565b5f80fd5b5f73ffffffffffffffffffffffffffffffffffffffff82169050919050565b5f6100a38261007a565b9050919050565b5f6100b482610099565b9050919050565b6100c4816100aa565b81146100ce575f80fd5b50565b5f815190506100df816100bb565b92915050565b5f602082840312156100fa576100f9610076565b5b5f610107848285016100d1565b91505092915050565b6104cc8061011d5f395ff3fe608060405234801561000f575f80fd5b506004361061004a575f3560e01c80636b3ab3371461004e578063a1e2d47a14610058578063b80777ea14610062578063eb20bf9814610080575b5f80fd5b61005661008a565b005b61006061018c565b005b61006a610208565b6040516100779190610370565b60405180910390f35b610088610256565b005b5f8054906101000a900473ffffffffffffffffffffffffffffffffffffffff1673ffffffffffffffffffffffffffffffffffffffff16635858d16160176040518263ffffffff1660e01b81526004016100e391906103cb565b5f604051808303815f87803b1580156100fa575f80fd5b505af115801561010c573d5f803e3d5ffd5b505050505f8054906101000a900473ffffffffffffffffffffffffffffffffffffffff1673ffffffffffffffffffffffffffffffffffffffff1663e320bee56040518163ffffffff1660e01b81526004015f604051808303815f87803b158015610174575f80fd5b505af1158015610186573d5f803e3d5ffd5b50505050565b5f8054906101000a900473ffffffffffffffffffffffffffffffffffffffff1673ffffffffffffffffffffffffffffffffffffffff1663d56b28896040518163ffffffff1660e01b81526004015f604051808303815f87803b1580156101f0575f80fd5b505af1158015610202573d5f803e3d5ffd5b50505050565b5f805f60149054906101000a900460ff1661024b57600a4361022a9190610411565b905060015f60146101000a81548160ff02191690831515021790555061024f565b5f90505b8091505090565b5f8054906101000a900473ffffffffffffffffffffffffffffffffffffffff1673ffffffffffffffffffffffffffffffffffffffff16635858d161600a6040518263ffffffff1660e01b81526004016102af919061047d565b5f604051808303815f87803b1580156102c6575f80fd5b505af11580156102d8573d5f803e3d5ffd5b505050505f8054906101000a900473ffffffffffffffffffffffffffffffffffffffff1673ffffffffffffffffffffffffffffffffffffffff1663fa391c646040518163ffffffff1660e01b81526004015f604051808303815f87803b158015610340575f80fd5b505af1158015610352573d5f803e3d5ffd5b50505050565b5f819050919050565b61036a81610358565b82525050565b5f6020820190506103835f830184610361565b92915050565b5f819050919050565b5f819050919050565b5f6103b56103b06103ab84610389565b610392565b610358565b9050919050565b6103c58161039b565b82525050565b5f6020820190506103de5f8301846103bc565b92915050565b7f4e487b71000000000000000000000000000000000000000000000000000000005f52601160045260245ffd5b5f61041b82610358565b915061042683610358565b925082820190508082111561043e5761043d6103e4565b5b92915050565b5f819050919050565b5f61046761046261045d84610444565b610392565b610358565b9050919050565b6104778161044d565b82525050565b5f6020820190506104905f83018461046e565b9291505056fea264697066735822122057879101cbf5133d807c591a5858172a5c362722b537b4adff1a648b086aeb7d64736f6c63430008150033",
			"opcodes": "PUSH1 0x80 PUSH1 0x40 MSTORE CALLVALUE DUP1 ISZERO PUSH2 0xF JUMPI PUSH0 DUP1 REVERT JUMPDEST POP PUSH1 0x40 MLOAD PUSH2 0x5E9 CODESIZE SUB DUP1 PUSH2 0x5E9 DUP4 CODECOPY DUP2 DUP2 ADD PUSH1 0x40 MSTORE DUP2 ADD SWAP1 PUSH2 0x31 SWAP2 SWAP1 PUSH2 0xE5 JUMP JUMPDEST DUP1 PUSH0 DUP1 PUSH2 0x100 EXP DUP2 SLOAD DUP2 PUSH20 0xFFFFFFFFFFFFFFFFFFFFFFFFFFFFFFFFFFFFFFFF MUL NOT AND SWAP1 DUP4 PUSH20 0xFFFFFFFFFFFFFFFFFFFFFFFFFFFFFFFFFFFFFFFF AND MUL OR SWAP1 SSTORE POP POP PUSH2 0x110 JUMP JUMPDEST PUSH0 DUP1 REVERT JUMPDEST PUSH0 PUSH20 0xFFFFFFFFFFFFFFFFFFFFFFFFFFFFFFFFFFFFFFFF DUP3 AND SWAP1 POP SWAP2 SWAP1 POP JUMP JUMPDEST PUSH0 PUSH2 0xA3 DUP3 PUSH2 0x7A JUMP JUMPDEST SWAP1 POP SWAP2 SWAP1 POP JUMP JUMPDEST PUSH0 PUSH2 0xB4 DUP3 PUSH2 0x99 JUMP JUMPDEST SWAP1 POP SWAP2 SWAP1 POP JUMP JUMPDEST PUSH2 0xC4 DUP2 PUSH2 0xAA JUMP JUMPDEST DUP2 EQ PUSH2 0xCE JUMPI PUSH0 DUP1 REVERT JUMPDEST POP JUMP JUMPDEST PUSH0 DUP2 MLOAD SWAP1 POP PUSH2 0xDF DUP2 PUSH2 0xBB JUMP JUMPDEST SWAP3 SWAP2 POP POP JUMP JUMPDEST PUSH0 PUSH1 0x20 DUP3 DUP5 SUB SLT ISZERO PUSH2 0xFA JUMPI PUSH2 0xF9 PUSH2 0x76 JUMP JUMPDEST JUMPDEST PUSH0 PUSH2 0x107 DUP5 DUP3 DUP6 ADD PUSH2 0xD1 JUMP JUMPDEST SWAP2 POP POP SWAP3 SWAP2 POP POP JUMP JUMPDEST PUSH2 0x4CC DUP1 PUSH2 0x11D PUSH0 CODECOPY PUSH0 RETURN INVALID PUSH1 0x80 PUSH1 0x40 MSTORE CALLVALUE DUP1 ISZERO PUSH2 0xF JUMPI PUSH0 DUP1 REVERT JUMPDEST POP PUSH1 0x4 CALLDATASIZE LT PUSH2 0x4A JUMPI PUSH0 CALLDATALOAD PUSH1 0xE0 SHR DUP1 PUSH4 0x6B3AB337 EQ PUSH2 0x4E JUMPI DUP1 PUSH4 0xA1E2D47A EQ PUSH2 0x58 JUMPI DUP1 PUSH4 0xB80777EA EQ PUSH2 0x62 JUMPI DUP1 PUSH4 0xEB20BF98 EQ PUSH2 0x80 JUMPI JUMPDEST PUSH0 DUP1 REVERT JUMPDEST PUSH2 0x56 PUSH2 0x8A JUMP JUMPDEST STOP JUMPDEST PUSH2 0x60 PUSH2 0x18C JUMP JUMPDEST STOP JUMPDEST PUSH2 0x6A PUSH2 0x208 JUMP JUMPDEST PUSH1 0x40 MLOAD PUSH2 0x77 SWAP2 SWAP1 PUSH2 0x370 JUMP JUMPDEST PUSH1 0x40 MLOAD DUP1 SWAP2 SUB SWAP1 RETURN JUMPDEST PUSH2 0x88 PUSH2 0x256 JUMP JUMPDEST STOP JUMPDEST PUSH0 DUP1 SLOAD SWAP1 PUSH2 0x100 EXP SWAP1 DIV PUSH20 0xFFFFFFFFFFFFFFFFFFFFFFFFFFFFFFFFFFFFFFFF AND PUSH20 0xFFFFFFFFFFFFFFFFFFFFFFFFFFFFFFFFFFFFFFFF AND PUSH4 0x5858D161 PUSH1 0x17 PUSH1 0x40 MLOAD DUP3 PUSH4 0xFFFFFFFF AND PUSH1 0xE0 SHL DUP2 MSTORE PUSH1 0x4 ADD PUSH2 0xE3 SWAP2 SWAP1 PUSH2 0x3CB JUMP JUMPDEST PUSH0 PUSH1 0x40 MLOAD DUP1 DUP4 SUB DUP2 PUSH0 DUP8 DUP1 EXTCODESIZE ISZERO DUP1 ISZERO PUSH2 0xFA JUMPI PUSH0 DUP1 REVERT JUMPDEST POP GAS CALL ISZERO DUP1 ISZERO PUSH2 0x10C JUMPI RETURNDATASIZE PUSH0 DUP1 RETURNDATACOPY RETURNDATASIZE PUSH0 REVERT JUMPDEST POP POP POP POP PUSH0 DUP1 SLOAD SWAP1 PUSH2 0x100 EXP SWAP1 DIV PUSH20 0xFFFFFFFFFFFFFFFFFFFFFFFFFFFFFFFFFFFFFFFF AND PUSH20 0xFFFFFFFFFFFFFFFFFFFFFFFFFFFFFFFFFFFFFFFF AND PUSH4 0xE320BEE5 PUSH1 0x40 MLOAD DUP2 PUSH4 0xFFFFFFFF AND PUSH1 0xE0 SHL DUP2 MSTORE PUSH1 0x4 ADD PUSH0 PUSH1 0x40 MLOAD DUP1 DUP4 SUB DUP2 PUSH0 DUP8 DUP1 EXTCODESIZE ISZERO DUP1 ISZERO PUSH2 0x174 JUMPI PUSH0 DUP1 REVERT JUMPDEST POP GAS CALL ISZERO DUP1 ISZERO PUSH2 0x186 JUMPI RETURNDATASIZE PUSH0 DUP1 RETURNDATACOPY RETURNDATASIZE PUSH0 REVERT JUMPDEST POP POP POP POP JUMP JUMPDEST PUSH0 DUP1 SLOAD SWAP1 PUSH2 0x100 EXP SWAP1 DIV PUSH20 0xFFFFFFFFFFFFFFFFFFFFFFFFFFFFFFFFFFFFFFFF AND PUSH20 0xFFFFFFFFFFFFFFFFFFFFFFFFFFFFFFFFFFFFFFFF AND PUSH4 0xD56B2889 PUSH1 0x40 MLOAD DUP2 PUSH4 0xFFFFFFFF AND PUSH1 0xE0 SHL DUP2 MSTORE PUSH1 0x4 ADD PUSH0 PUSH1 0x40 MLOAD DUP1 DUP4 SUB DUP2 PUSH0 DUP8 DUP1 EXTCODESIZE ISZERO DUP1 ISZERO PUSH2 0x1F0 JUMPI PUSH0 DUP1 REVERT JUMPDEST POP GAS CALL ISZERO DUP1 ISZERO PUSH2 0x202 JUMPI RETURNDATASIZE PUSH0 DUP1 RETURNDATACOPY RETURNDATASIZE PUSH0 REVERT JUMPDEST POP POP POP POP JUMP JUMPDEST PUSH0 DUP1 PUSH0 PUSH1 0x14 SWAP1 SLOAD SWAP1 PUSH2 0x100 EXP SWAP1 DIV PUSH1 0xFF AND PUSH2 0x24B JUMPI PUSH1 0xA NUMBER PUSH2 0x22A SWAP2 SWAP1 PUSH2 0x411 JUMP JUMPDEST SWAP1 POP PUSH1 0x1 PUSH0 PUSH1 0x14 PUSH2 0x100 EXP DUP2 SLOAD DUP2 PUSH1 0xFF MUL NOT AND SWAP1 DUP4 ISZERO ISZERO MUL OR SWAP1 SSTORE POP PUSH2 0x24F JUMP JUMPDEST PUSH0 SWAP1 POP JUMPDEST DUP1 SWAP2 POP POP SWAP1 JUMP JUMPDEST PUSH0 DUP1 SLOAD SWAP1 PUSH2 0x100 EXP SWAP1 DIV PUSH20 0xFFFFFFFFFFFFFFFFFFFFFFFFFFFFFFFFFFFFFFFF AND PUSH20 0xFFFFFFFFFFFFFFFFFFFFFFFFFFFFFFFFFFFFFFFF AND PUSH4 0x5858D161 PUSH1 0xA PUSH1 0x40 MLOAD DUP3 PUSH4 0xFFFFFFFF AND PUSH1 0xE0 SHL DUP2 MSTORE PUSH1 0x4 ADD PUSH2 0x2AF SWAP2 SWAP1 PUSH2 0x47D JUMP JUMPDEST PUSH0 PUSH1 0x40 MLOAD DUP1 DUP4 SUB DUP2 PUSH0 DUP8 DUP1 EXTCODESIZE ISZERO DUP1 ISZERO PUSH2 0x2C6 JUMPI PUSH0 DUP1 REVERT JUMPDEST POP GAS CALL ISZERO DUP1 ISZERO PUSH2 0x2D8 JUMPI RETURNDATASIZE PUSH0 DUP1 RETURNDATACOPY RETURNDATASIZE PUSH0 REVERT JUMPDEST POP POP POP POP PUSH0 DUP1 SLOAD SWAP1 PUSH2 0x100 EXP SWAP1 DIV PUSH20 0xFFFFFFFFFFFFFFFFFFFFFFFFFFFFFFFFFFFFFFFF AND PUSH20 0xFFFFFFFFFFFFFFFFFFFFFFFFFFFFFFFFFFFFFFFF AND PUSH4 0xFA391C64 PUSH1 0x40 MLOAD DUP2 PUSH4 0xFFFFFFFF AND PUSH1 0xE0 SHL DUP2 MSTORE PUSH1 0x4 ADD PUSH0 PUSH1 0x40 MLOAD DUP1 DUP4 SUB DUP2 PUSH0 DUP8 DUP1 EXTCODESIZE ISZERO DUP1 ISZERO PUSH2 0x340 JUMPI PUSH0 DUP1 REVERT JUMPDEST POP GAS CALL ISZERO DUP1 ISZERO PUSH2 0x352 JUMPI RETURNDATASIZE PUSH0 DUP1 RETURNDATACOPY RETURNDATASIZE PUSH0 REVERT JUMPDEST POP POP POP POP JUMP JUMPDEST PUSH0 DUP2 SWAP1 POP SWAP2 SWAP1 POP JUMP JUMPDEST PUSH2 0x36A DUP2 PUSH2 0x358 JUMP JUMPDEST DUP3 MSTORE POP POP JUMP JUMPDEST PUSH0 PUSH1 0x20 DUP3 ADD SWAP1 POP PUSH2 0x383 PUSH0 DUP4 ADD DUP5 PUSH2 0x361 JUMP JUMPDEST SWAP3 SWAP2 POP POP JUMP JUMPDEST PUSH0 DUP2 SWAP1 POP SWAP2 SWAP1 POP JUMP JUMPDEST PUSH0 DUP2 SWAP1 POP SWAP2 SWAP1 POP JUMP JUMPDEST PUSH0 PUSH2 0x3B5 PUSH2 0x3B0 PUSH2 0x3AB DUP5 PUSH2 0x389 JUMP JUMPDEST PUSH2 0x392 JUMP JUMPDEST PUSH2 0x358 JUMP JUMPDEST SWAP1 POP SWAP2 SWAP1 POP JUMP JUMPDEST PUSH2 0x3C5 DUP2 PUSH2 0x39B JUMP JUMPDEST DUP3 MSTORE POP POP JUMP JUMPDEST PUSH0 PUSH1 0x20 DUP3 ADD SWAP1 POP PUSH2 0x3DE PUSH0 DUP4 ADD DUP5 PUSH2 0x3BC JUMP JUMPDEST SWAP3 SWAP2 POP POP JUMP JUMPDEST PUSH32 0x4E487B7100000000000000000000000000000000000000000000000000000000 PUSH0 MSTORE PUSH1 0x11 PUSH1 0x4 MSTORE PUSH1 0x24 PUSH0 REVERT JUMPDEST PUSH0 PUSH2 0x41B DUP3 PUSH2 0x358 JUMP JUMPDEST SWAP2 POP PUSH2 0x426 DUP4 PUSH2 0x358 JUMP JUMPDEST SWAP3 POP DUP3 DUP3 ADD SWAP1 POP DUP1 DUP3 GT ISZERO PUSH2 0x43E JUMPI PUSH2 0x43D PUSH2 0x3E4 JUMP JUMPDEST JUMPDEST SWAP3 SWAP2 POP POP JUMP JUMPDEST PUSH0 DUP2 SWAP1 POP SWAP2 SWAP1 POP JUMP JUMPDEST PUSH0 PUSH2 0x467 PUSH2 0x462 PUSH2 0x45D DUP5 PUSH2 0x444 JUMP JUMPDEST PUSH2 0x392 JUMP JUMPDEST PUSH2 0x358 JUMP JUMPDEST SWAP1 POP SWAP2 SWAP1 POP JUMP JUMPDEST PUSH2 0x477 DUP2 PUSH2 0x44D JUMP JUMPDEST DUP3 MSTORE POP POP JUMP JUMPDEST PUSH0 PUSH1 0x20 DUP3 ADD SWAP1 POP PUSH2 0x490 PUSH0 DUP4 ADD DUP5 PUSH2 0x46E JUMP JUMPDEST SWAP3 SWAP2 POP POP JUMP INVALID LOG2 PUSH5 0x6970667358 0x22 SLT KECCAK256 JUMPI DUP8 SWAP2 ADD 0xCB CREATE2 SGT RETURNDATASIZE DUP1 PUSH29 0x591A5858172A5C362722B537B4ADFF1A648B086AEB7D64736F6C634300 ADDMOD ISZERO STOP CALLER "
		},
		"gasEstimates": {
			"creation": {
				"codeDepositCost": "245600",
				"executionCost": "infinite",
				"totalCost": "infinite"
			},
			"external": {
				"attrack()": "infinite",
				"attrack2()": "infinite",
				"attrack3()": "infinite",
				"timestamp()": "infinite"
			}
		},
		"methodIdentifiers": {
			"attrack()": "6b3ab337",
			"attrack2()": "a1e2d47a",
			"attrack3()": "eb20bf98",
			"timestamp()": "b80777ea"
		}
	},
	"abi": [
		{
			"inputs": [
				{
					"internalType": "contract check",
					"name": "addr",
					"type": "address"
				}
			],
			"stateMutability": "nonpayable",
			"type": "constructor"
		},
		{
			"inputs": [],
			"name": "attrack",
			"outputs": [],
			"stateMutability": "nonpayable",
			"type": "function"
		},
		{
			"inputs": [],
			"name": "attrack2",
			"outputs": [],
			"stateMutability": "nonpayable",
			"type": "function"
		},
		{
			"inputs": [],
			"name": "attrack3",
			"outputs": [],
			"stateMutability": "nonpayable",
			"type": "function"
		},
		{
			"inputs": [],
			"name": "timestamp",
			"outputs": [
				{
					"internalType": "uint256",
					"name": "",
					"type": "uint256"
				}
			],
			"stateMutability": "nonpayable",
			"type": "function"
		}
	]
}