{
	"SecLessonPoc-main/contracts/random/check/block.sol": {
		"blocker": {
			"abi": [
				{
					"inputs": [],
					"name": "guessFlag",
					"outputs": [
						{
							"internalType": "uint256",
							"name": "",
							"type": "uint256"
						}
					],
					"stateMutability": "view",
					"type": "function"
				},
				{
					"inputs": [],
					"name": "guessed",
					"outputs": [],
					"stateMutability": "nonpayable",
					"type": "function"
				},
				{
					"inputs": [
						{
							"internalType": "bytes32",
							"name": "n",
							"type": "bytes32"
						}
					],
					"name": "guesser",
					"outputs": [],
					"stateMutability": "payable",
					"type": "function"
				},
				{
					"inputs": [],
					"name": "isCompleted",
					"outputs": [],
					"stateMutability": "nonpayable",
					"type": "function"
				},
				{
					"inputs": [
						{
							"internalType": "uint8",
							"name": "n",
							"type": "uint8"
						}
					],
					"name": "lockInGuess",
					"outputs": [],
					"stateMutability": "payable",
					"type": "function"
				},
				{
					"inputs": [],
					"name": "score",
					"outputs": [
						{
							"internalType": "uint256",
							"name": "",
							"type": "uint256"
						}
					],
					"stateMutability": "view",
					"type": "function"
				}
			],
			"devdoc": {
				"kind": "dev",
				"methods": {},
				"version": 1
			},
			"evm": {
				"assembly": "    /* \"SecLessonPoc-main/contracts/random/check/block.sol\":177:1298  contract blocker{... */\n  mstore(0x40, 0x80)\n  callvalue\n  dup1\n  iszero\n  tag_1\n  jumpi\n  0x00\n  dup1\n  revert\ntag_1:\n  pop\n  dataSize(sub_0)\n  dup1\n  dataOffset(sub_0)\n  0x00\n  codecopy\n  0x00\n  return\nstop\n\nsub_0: assembly {\n        /* \"SecLessonPoc-main/contracts/random/check/block.sol\":177:1298  contract blocker{... */\n      mstore(0x40, 0x80)\n      jumpi(tag_1, lt(calldatasize, 0x04))\n      shr(0xe0, calldataload(0x00))\n      dup1\n      0x2c0e0054\n      eq\n      tag_2\n      jumpi\n      dup1\n      0x65104fea\n      eq\n      tag_3\n      jumpi\n      dup1\n      0x7984201e\n      eq\n      tag_4\n      jumpi\n      dup1\n      0xaf8b41ed\n      eq\n      tag_5\n      jumpi\n      dup1\n      0xefedc669\n      eq\n      tag_6\n      jumpi\n      dup1\n      0xfa391c64\n      eq\n      tag_7\n      jumpi\n    tag_1:\n      0x00\n      dup1\n      revert\n        /* \"SecLessonPoc-main/contracts/random/check/block.sol\":598:767  function lockInGuess(uint8 n) public payable  {... */\n    tag_2:\n      tag_8\n      0x04\n      dup1\n      calldatasize\n      sub\n      dup2\n      add\n      swap1\n      tag_9\n      swap2\n      swap1\n      tag_10\n      jump\t// in\n    tag_9:\n      tag_11\n      jump\t// in\n    tag_8:\n      stop\n        /* \"SecLessonPoc-main/contracts/random/check/block.sol\":312:590  function guesser(bytes32 n) public payable {... */\n    tag_3:\n      tag_12\n      0x04\n      dup1\n      calldatasize\n      sub\n      dup2\n      add\n      swap1\n      tag_13\n      swap2\n      swap1\n      tag_14\n      jump\t// in\n    tag_13:\n      tag_15\n      jump\t// in\n    tag_12:\n      stop\n        /* \"SecLessonPoc-main/contracts/random/check/block.sol\":200:224  uint256 public guessFlag */\n    tag_4:\n      callvalue\n      dup1\n      iszero\n      tag_16\n      jumpi\n      0x00\n      dup1\n      revert\n    tag_16:\n      pop\n      tag_17\n      tag_18\n      jump\t// in\n    tag_17:\n      mload(0x40)\n      tag_19\n      swap2\n      swap1\n      tag_20\n      jump\t// in\n    tag_19:\n      mload(0x40)\n      dup1\n      swap2\n      sub\n      swap1\n      return\n        /* \"SecLessonPoc-main/contracts/random/check/block.sol\":775:1089  function guessed() public {... */\n    tag_5:\n      callvalue\n      dup1\n      iszero\n      tag_21\n      jumpi\n      0x00\n      dup1\n      revert\n    tag_21:\n      pop\n      tag_22\n      tag_23\n      jump\t// in\n    tag_22:\n      stop\n        /* \"SecLessonPoc-main/contracts/random/check/block.sol\":231:251  uint256 public score */\n    tag_6:\n      callvalue\n      dup1\n      iszero\n      tag_24\n      jumpi\n      0x00\n      dup1\n      revert\n    tag_24:\n      pop\n      tag_25\n      tag_26\n      jump\t// in\n    tag_25:\n      mload(0x40)\n      tag_27\n      swap2\n      swap1\n      tag_20\n      jump\t// in\n    tag_27:\n      mload(0x40)\n      dup1\n      swap2\n      sub\n      swap1\n      return\n        /* \"SecLessonPoc-main/contracts/random/check/block.sol\":1097:1295  function isCompleted()public{... */\n    tag_7:\n      callvalue\n      dup1\n      iszero\n      tag_28\n      jumpi\n      0x00\n      dup1\n      revert\n    tag_28:\n      pop\n      tag_29\n      tag_30\n      jump\t// in\n    tag_29:\n      stop\n        /* \"SecLessonPoc-main/contracts/random/check/block.sol\":598:767  function lockInGuess(uint8 n) public payable  {... */\n    tag_11:\n        /* \"SecLessonPoc-main/contracts/random/check/block.sol\":676:687  0.001 ether */\n      0x038d7ea4c68000\n        /* \"SecLessonPoc-main/contracts/random/check/block.sol\":663:672  msg.value */\n      callvalue\n        /* \"SecLessonPoc-main/contracts/random/check/block.sol\":663:687  msg.value == 0.001 ether */\n      eq\n        /* \"SecLessonPoc-main/contracts/random/check/block.sol\":655:688  require(msg.value == 0.001 ether) */\n      tag_32\n      jumpi\n      0x00\n      dup1\n      revert\n    tag_32:\n        /* \"SecLessonPoc-main/contracts/random/check/block.sol\":707:708  n */\n      dup1\n        /* \"SecLessonPoc-main/contracts/random/check/block.sol\":699:704  guess */\n      0x02\n      0x00\n        /* \"SecLessonPoc-main/contracts/random/check/block.sol\":699:708  guess = n */\n      0x0100\n      exp\n      dup2\n      sload\n      dup2\n      0xff\n      mul\n      not\n      and\n      swap1\n      dup4\n      0xff\n      and\n      mul\n      or\n      swap1\n      sstore\n      pop\n        /* \"SecLessonPoc-main/contracts/random/check/block.sol\":758:759  1 */\n      0x01\n        /* \"SecLessonPoc-main/contracts/random/check/block.sol\":743:755  block.number */\n      number\n        /* \"SecLessonPoc-main/contracts/random/check/block.sol\":743:759  block.number + 1 */\n      tag_33\n      swap2\n      swap1\n      tag_34\n      jump\t// in\n    tag_33:\n        /* \"SecLessonPoc-main/contracts/random/check/block.sol\":719:740  settlementBlockNumber */\n      0x03\n        /* \"SecLessonPoc-main/contracts/random/check/block.sol\":719:759  settlementBlockNumber = block.number + 1 */\n      dup2\n      swap1\n      sstore\n      pop\n        /* \"SecLessonPoc-main/contracts/random/check/block.sol\":598:767  function lockInGuess(uint8 n) public payable  {... */\n      pop\n      jump\t// out\n        /* \"SecLessonPoc-main/contracts/random/check/block.sol\":312:590  function guesser(bytes32 n) public payable {... */\n    tag_15:\n        /* \"SecLessonPoc-main/contracts/random/check/block.sol\":387:398  0.001 ether */\n      0x038d7ea4c68000\n        /* \"SecLessonPoc-main/contracts/random/check/block.sol\":374:383  msg.value */\n      callvalue\n        /* \"SecLessonPoc-main/contracts/random/check/block.sol\":374:398  msg.value == 0.001 ether */\n      eq\n        /* \"SecLessonPoc-main/contracts/random/check/block.sol\":366:399  require(msg.value == 0.001 ether) */\n      tag_36\n      jumpi\n      0x00\n      dup1\n      revert\n    tag_36:\n        /* \"SecLessonPoc-main/contracts/random/check/block.sol\":410:424  bytes32 answer */\n      0x00\n        /* \"SecLessonPoc-main/contracts/random/check/block.sol\":479:480  1 */\n      0x01\n        /* \"SecLessonPoc-main/contracts/random/check/block.sol\":464:476  block.number */\n      number\n        /* \"SecLessonPoc-main/contracts/random/check/block.sol\":464:480  block.number - 1 */\n      tag_37\n      swap2\n      swap1\n      tag_38\n      jump\t// in\n    tag_37:\n        /* \"SecLessonPoc-main/contracts/random/check/block.sol\":454:481  blockhash(block.number - 1) */\n      blockhash\n        /* \"SecLessonPoc-main/contracts/random/check/block.sol\":483:498  block.timestamp */\n      timestamp\n        /* \"SecLessonPoc-main/contracts/random/check/block.sol\":437:499  abi.encodePacked(blockhash(block.number - 1), block.timestamp) */\n      add(0x20, mload(0x40))\n      tag_39\n      swap3\n      swap2\n      swap1\n      tag_40\n      jump\t// in\n    tag_39:\n      mload(0x40)\n      0x20\n      dup2\n      dup4\n      sub\n      sub\n      dup2\n      mstore\n      swap1\n      0x40\n      mstore\n        /* \"SecLessonPoc-main/contracts/random/check/block.sol\":427:500  keccak256(abi.encodePacked(blockhash(block.number - 1), block.timestamp)) */\n      dup1\n      mload\n      swap1\n      0x20\n      add\n      keccak256\n        /* \"SecLessonPoc-main/contracts/random/check/block.sol\":410:500  bytes32 answer = keccak256(abi.encodePacked(blockhash(block.number - 1), block.timestamp)) */\n      swap1\n      pop\n        /* \"SecLessonPoc-main/contracts/random/check/block.sol\":520:526  answer */\n      dup1\n        /* \"SecLessonPoc-main/contracts/random/check/block.sol\":515:516  n */\n      dup3\n        /* \"SecLessonPoc-main/contracts/random/check/block.sol\":515:526  n == answer */\n      eq\n        /* \"SecLessonPoc-main/contracts/random/check/block.sol\":515:542  n == answer && guessFlag==0 */\n      dup1\n      iszero\n      tag_41\n      jumpi\n      pop\n        /* \"SecLessonPoc-main/contracts/random/check/block.sol\":541:542  0 */\n      0x00\n        /* \"SecLessonPoc-main/contracts/random/check/block.sol\":530:539  guessFlag */\n      dup1\n      sload\n        /* \"SecLessonPoc-main/contracts/random/check/block.sol\":530:542  guessFlag==0 */\n      eq\n        /* \"SecLessonPoc-main/contracts/random/check/block.sol\":515:542  n == answer && guessFlag==0 */\n    tag_41:\n        /* \"SecLessonPoc-main/contracts/random/check/block.sol\":511:583  if (n == answer && guessFlag==0) {... */\n      iszero\n      tag_42\n      jumpi\n        /* \"SecLessonPoc-main/contracts/random/check/block.sol\":570:571  5 */\n      0x05\n        /* \"SecLessonPoc-main/contracts/random/check/block.sol\":559:568  guessFlag */\n      0x00\n      dup1\n        /* \"SecLessonPoc-main/contracts/random/check/block.sol\":559:571  guessFlag+=5 */\n      dup3\n      dup3\n      sload\n      tag_43\n      swap2\n      swap1\n      tag_34\n      jump\t// in\n    tag_43:\n      swap3\n      pop\n      pop\n      dup2\n      swap1\n      sstore\n      pop\n        /* \"SecLessonPoc-main/contracts/random/check/block.sol\":511:583  if (n == answer && guessFlag==0) {... */\n    tag_42:\n        /* \"SecLessonPoc-main/contracts/random/check/block.sol\":355:590  {... */\n      pop\n        /* \"SecLessonPoc-main/contracts/random/check/block.sol\":312:590  function guesser(bytes32 n) public payable {... */\n      pop\n      jump\t// out\n        /* \"SecLessonPoc-main/contracts/random/check/block.sol\":200:224  uint256 public guessFlag */\n    tag_18:\n      sload(0x00)\n      dup2\n      jump\t// out\n        /* \"SecLessonPoc-main/contracts/random/check/block.sol\":775:1089  function guessed() public {... */\n    tag_23:\n        /* \"SecLessonPoc-main/contracts/random/check/block.sol\":835:856  settlementBlockNumber */\n      sload(0x03)\n        /* \"SecLessonPoc-main/contracts/random/check/block.sol\":820:832  block.number */\n      number\n        /* \"SecLessonPoc-main/contracts/random/check/block.sol\":820:856  block.number > settlementBlockNumber */\n      gt\n        /* \"SecLessonPoc-main/contracts/random/check/block.sol\":812:875  require(block.number > settlementBlockNumber,\"try again later\") */\n      tag_45\n      jumpi\n      mload(0x40)\n      0x08c379a000000000000000000000000000000000000000000000000000000000\n      dup2\n      mstore\n      0x04\n      add\n      tag_46\n      swap1\n      tag_47\n      jump\t// in\n    tag_46:\n      mload(0x40)\n      dup1\n      swap2\n      sub\n      swap1\n      revert\n    tag_45:\n        /* \"SecLessonPoc-main/contracts/random/check/block.sol\":886:898  uint8 answer */\n      0x00\n        /* \"SecLessonPoc-main/contracts/random/check/block.sol\":993:995  10 */\n      0x0a\n        /* \"SecLessonPoc-main/contracts/random/check/block.sol\":967:968  1 */\n      0x01\n        /* \"SecLessonPoc-main/contracts/random/check/block.sol\":952:964  block.number */\n      number\n        /* \"SecLessonPoc-main/contracts/random/check/block.sol\":952:968  block.number - 1 */\n      tag_48\n      swap2\n      swap1\n      tag_38\n      jump\t// in\n    tag_48:\n        /* \"SecLessonPoc-main/contracts/random/check/block.sol\":942:969  blockhash(block.number - 1) */\n      blockhash\n        /* \"SecLessonPoc-main/contracts/random/check/block.sol\":971:986  block.timestamp */\n      timestamp\n        /* \"SecLessonPoc-main/contracts/random/check/block.sol\":925:987  abi.encodePacked(blockhash(block.number - 1), block.timestamp) */\n      add(0x20, mload(0x40))\n      tag_49\n      swap3\n      swap2\n      swap1\n      tag_40\n      jump\t// in\n    tag_49:\n      mload(0x40)\n      0x20\n      dup2\n      dup4\n      sub\n      sub\n      dup2\n      mstore\n      swap1\n      0x40\n      mstore\n        /* \"SecLessonPoc-main/contracts/random/check/block.sol\":915:988  keccak256(abi.encodePacked(blockhash(block.number - 1), block.timestamp)) */\n      dup1\n      mload\n      swap1\n      0x20\n      add\n      keccak256\n        /* \"SecLessonPoc-main/contracts/random/check/block.sol\":907:989  uint256(keccak256(abi.encodePacked(blockhash(block.number - 1), block.timestamp))) */\n      0x00\n      shr\n        /* \"SecLessonPoc-main/contracts/random/check/block.sol\":901:995  uint8(uint256(keccak256(abi.encodePacked(blockhash(block.number - 1), block.timestamp)))) % 10 */\n      tag_50\n      swap2\n      swap1\n      tag_51\n      jump\t// in\n    tag_50:\n        /* \"SecLessonPoc-main/contracts/random/check/block.sol\":886:995  uint8 answer = uint8(uint256(keccak256(abi.encodePacked(blockhash(block.number - 1), block.timestamp)))) % 10 */\n      swap1\n      pop\n        /* \"SecLessonPoc-main/contracts/random/check/block.sol\":1019:1025  answer */\n      dup1\n        /* \"SecLessonPoc-main/contracts/random/check/block.sol\":1010:1025  guess == answer */\n      0xff\n      and\n        /* \"SecLessonPoc-main/contracts/random/check/block.sol\":1010:1015  guess */\n      0x02\n      0x00\n      swap1\n      sload\n      swap1\n      0x0100\n      exp\n      swap1\n      div\n      0xff\n      and\n        /* \"SecLessonPoc-main/contracts/random/check/block.sol\":1010:1025  guess == answer */\n      0xff\n      and\n      eq\n        /* \"SecLessonPoc-main/contracts/random/check/block.sol\":1010:1041  guess == answer && guessFlag==5 */\n      dup1\n      iszero\n      tag_52\n      jumpi\n      pop\n        /* \"SecLessonPoc-main/contracts/random/check/block.sol\":1040:1041  5 */\n      0x05\n        /* \"SecLessonPoc-main/contracts/random/check/block.sol\":1029:1038  guessFlag */\n      sload(0x00)\n        /* \"SecLessonPoc-main/contracts/random/check/block.sol\":1029:1041  guessFlag==5 */\n      eq\n        /* \"SecLessonPoc-main/contracts/random/check/block.sol\":1010:1041  guess == answer && guessFlag==5 */\n    tag_52:\n        /* \"SecLessonPoc-main/contracts/random/check/block.sol\":1006:1082  if (guess == answer && guessFlag==5) {... */\n      iszero\n      tag_53\n      jumpi\n        /* \"SecLessonPoc-main/contracts/random/check/block.sol\":1069:1070  5 */\n      0x05\n        /* \"SecLessonPoc-main/contracts/random/check/block.sol\":1058:1067  guessFlag */\n      0x00\n      dup1\n        /* \"SecLessonPoc-main/contracts/random/check/block.sol\":1058:1070  guessFlag+=5 */\n      dup3\n      dup3\n      sload\n      tag_54\n      swap2\n      swap1\n      tag_34\n      jump\t// in\n    tag_54:\n      swap3\n      pop\n      pop\n      dup2\n      swap1\n      sstore\n      pop\n        /* \"SecLessonPoc-main/contracts/random/check/block.sol\":1006:1082  if (guess == answer && guessFlag==5) {... */\n    tag_53:\n        /* \"SecLessonPoc-main/contracts/random/check/block.sol\":801:1089  {... */\n      pop\n        /* \"SecLessonPoc-main/contracts/random/check/block.sol\":775:1089  function guessed() public {... */\n      jump\t// out\n        /* \"SecLessonPoc-main/contracts/random/check/block.sol\":231:251  uint256 public score */\n    tag_26:\n      sload(0x01)\n      dup2\n      jump\t// out\n        /* \"SecLessonPoc-main/contracts/random/check/block.sol\":1097:1295  function isCompleted()public{... */\n    tag_30:\n        /* \"SecLessonPoc-main/contracts/random/check/block.sol\":1144:1145  0 */\n      0x00\n        /* \"SecLessonPoc-main/contracts/random/check/block.sol\":1136:1141  score */\n      0x01\n        /* \"SecLessonPoc-main/contracts/random/check/block.sol\":1136:1145  score = 0 */\n      dup2\n      swap1\n      sstore\n      pop\n        /* \"SecLessonPoc-main/contracts/random/check/block.sol\":1176:1185  guessFlag */\n      sload(0x00)\n        /* \"SecLessonPoc-main/contracts/random/check/block.sol\":1164:1173  guessFlag */\n      sload(0x00)\n        /* \"SecLessonPoc-main/contracts/random/check/block.sol\":1164:1185  guessFlag * guessFlag */\n      tag_56\n      swap2\n      swap1\n      tag_57\n      jump\t// in\n    tag_56:\n        /* \"SecLessonPoc-main/contracts/random/check/block.sol\":1156:1161  score */\n      0x01\n        /* \"SecLessonPoc-main/contracts/random/check/block.sol\":1156:1185  score = guessFlag * guessFlag */\n      dup2\n      swap1\n      sstore\n      pop\n        /* \"SecLessonPoc-main/contracts/random/check/block.sol\":1206:1209  100 */\n      0x64\n        /* \"SecLessonPoc-main/contracts/random/check/block.sol\":1199:1204  score */\n      sload(0x01)\n        /* \"SecLessonPoc-main/contracts/random/check/block.sol\":1199:1209  score==100 */\n      sub\n        /* \"SecLessonPoc-main/contracts/random/check/block.sol\":1196:1288  if(score==100){... */\n      tag_58\n      jumpi\n        /* \"SecLessonPoc-main/contracts/random/check/block.sol\":1233:1243  msg.sender */\n      caller\n        /* \"SecLessonPoc-main/contracts/random/check/block.sol\":1225:1253  payable(msg.sender).transfer */\n      0xffffffffffffffffffffffffffffffffffffffff\n      and\n        /* \"SecLessonPoc-main/contracts/random/check/block.sol\":1225:1276  payable(msg.sender).transfer(address(this).balance) */\n      0x08fc\n        /* \"SecLessonPoc-main/contracts/random/check/block.sol\":1254:1275  address(this).balance */\n      selfbalance\n        /* \"SecLessonPoc-main/contracts/random/check/block.sol\":1225:1276  payable(msg.sender).transfer(address(this).balance) */\n      swap1\n      dup2\n      iszero\n      mul\n      swap1\n      mload(0x40)\n      0x00\n      mload(0x40)\n      dup1\n      dup4\n      sub\n      dup2\n      dup6\n      dup9\n      dup9\n      call\n      swap4\n      pop\n      pop\n      pop\n      pop\n      iszero\n      dup1\n      iszero\n      tag_60\n      jumpi\n      returndatasize\n      0x00\n      dup1\n      returndatacopy\n      revert(0x00, returndatasize)\n    tag_60:\n      pop\n        /* \"SecLessonPoc-main/contracts/random/check/block.sol\":1196:1288  if(score==100){... */\n    tag_58:\n        /* \"SecLessonPoc-main/contracts/random/check/block.sol\":1097:1295  function isCompleted()public{... */\n      jump\t// out\n        /* \"#utility.yul\":88:205   */\n    tag_62:\n        /* \"#utility.yul\":197:198   */\n      0x00\n        /* \"#utility.yul\":194:195   */\n      dup1\n        /* \"#utility.yul\":187:199   */\n      revert\n        /* \"#utility.yul\":334:420   */\n    tag_64:\n        /* \"#utility.yul\":369:376   */\n      0x00\n        /* \"#utility.yul\":409:413   */\n      0xff\n        /* \"#utility.yul\":402:407   */\n      dup3\n        /* \"#utility.yul\":398:414   */\n      and\n        /* \"#utility.yul\":387:414   */\n      swap1\n      pop\n        /* \"#utility.yul\":334:420   */\n      swap2\n      swap1\n      pop\n      jump\t// out\n        /* \"#utility.yul\":426:544   */\n    tag_65:\n        /* \"#utility.yul\":497:519   */\n      tag_87\n        /* \"#utility.yul\":513:518   */\n      dup2\n        /* \"#utility.yul\":497:519   */\n      tag_64\n      jump\t// in\n    tag_87:\n        /* \"#utility.yul\":490:495   */\n      dup2\n        /* \"#utility.yul\":487:520   */\n      eq\n        /* \"#utility.yul\":477:538   */\n      tag_88\n      jumpi\n        /* \"#utility.yul\":534:535   */\n      0x00\n        /* \"#utility.yul\":531:532   */\n      dup1\n        /* \"#utility.yul\":524:536   */\n      revert\n        /* \"#utility.yul\":477:538   */\n    tag_88:\n        /* \"#utility.yul\":426:544   */\n      pop\n      jump\t// out\n        /* \"#utility.yul\":550:685   */\n    tag_66:\n        /* \"#utility.yul\":594:599   */\n      0x00\n        /* \"#utility.yul\":632:638   */\n      dup2\n        /* \"#utility.yul\":619:639   */\n      calldataload\n        /* \"#utility.yul\":610:639   */\n      swap1\n      pop\n        /* \"#utility.yul\":648:679   */\n      tag_90\n        /* \"#utility.yul\":673:678   */\n      dup2\n        /* \"#utility.yul\":648:679   */\n      tag_65\n      jump\t// in\n    tag_90:\n        /* \"#utility.yul\":550:685   */\n      swap3\n      swap2\n      pop\n      pop\n      jump\t// out\n        /* \"#utility.yul\":691:1016   */\n    tag_10:\n        /* \"#utility.yul\":748:754   */\n      0x00\n        /* \"#utility.yul\":797:799   */\n      0x20\n        /* \"#utility.yul\":785:794   */\n      dup3\n        /* \"#utility.yul\":776:783   */\n      dup5\n        /* \"#utility.yul\":772:795   */\n      sub\n        /* \"#utility.yul\":768:800   */\n      slt\n        /* \"#utility.yul\":765:884   */\n      iszero\n      tag_92\n      jumpi\n        /* \"#utility.yul\":803:882   */\n      tag_93\n      tag_62\n      jump\t// in\n    tag_93:\n        /* \"#utility.yul\":765:884   */\n    tag_92:\n        /* \"#utility.yul\":923:924   */\n      0x00\n        /* \"#utility.yul\":948:999   */\n      tag_94\n        /* \"#utility.yul\":991:998   */\n      dup5\n        /* \"#utility.yul\":982:988   */\n      dup3\n        /* \"#utility.yul\":971:980   */\n      dup6\n        /* \"#utility.yul\":967:989   */\n      add\n        /* \"#utility.yul\":948:999   */\n      tag_66\n      jump\t// in\n    tag_94:\n        /* \"#utility.yul\":938:999   */\n      swap2\n      pop\n        /* \"#utility.yul\":894:1009   */\n      pop\n        /* \"#utility.yul\":691:1016   */\n      swap3\n      swap2\n      pop\n      pop\n      jump\t// out\n        /* \"#utility.yul\":1022:1099   */\n    tag_67:\n        /* \"#utility.yul\":1059:1066   */\n      0x00\n        /* \"#utility.yul\":1088:1093   */\n      dup2\n        /* \"#utility.yul\":1077:1093   */\n      swap1\n      pop\n        /* \"#utility.yul\":1022:1099   */\n      swap2\n      swap1\n      pop\n      jump\t// out\n        /* \"#utility.yul\":1105:1227   */\n    tag_68:\n        /* \"#utility.yul\":1178:1202   */\n      tag_97\n        /* \"#utility.yul\":1196:1201   */\n      dup2\n        /* \"#utility.yul\":1178:1202   */\n      tag_67\n      jump\t// in\n    tag_97:\n        /* \"#utility.yul\":1171:1176   */\n      dup2\n        /* \"#utility.yul\":1168:1203   */\n      eq\n        /* \"#utility.yul\":1158:1221   */\n      tag_98\n      jumpi\n        /* \"#utility.yul\":1217:1218   */\n      0x00\n        /* \"#utility.yul\":1214:1215   */\n      dup1\n        /* \"#utility.yul\":1207:1219   */\n      revert\n        /* \"#utility.yul\":1158:1221   */\n    tag_98:\n        /* \"#utility.yul\":1105:1227   */\n      pop\n      jump\t// out\n        /* \"#utility.yul\":1233:1372   */\n    tag_69:\n        /* \"#utility.yul\":1279:1284   */\n      0x00\n        /* \"#utility.yul\":1317:1323   */\n      dup2\n        /* \"#utility.yul\":1304:1324   */\n      calldataload\n        /* \"#utility.yul\":1295:1324   */\n      swap1\n      pop\n        /* \"#utility.yul\":1333:1366   */\n      tag_100\n        /* \"#utility.yul\":1360:1365   */\n      dup2\n        /* \"#utility.yul\":1333:1366   */\n      tag_68\n      jump\t// in\n    tag_100:\n        /* \"#utility.yul\":1233:1372   */\n      swap3\n      swap2\n      pop\n      pop\n      jump\t// out\n        /* \"#utility.yul\":1378:1707   */\n    tag_14:\n        /* \"#utility.yul\":1437:1443   */\n      0x00\n        /* \"#utility.yul\":1486:1488   */\n      0x20\n        /* \"#utility.yul\":1474:1483   */\n      dup3\n        /* \"#utility.yul\":1465:1472   */\n      dup5\n        /* \"#utility.yul\":1461:1484   */\n      sub\n        /* \"#utility.yul\":1457:1489   */\n      slt\n        /* \"#utility.yul\":1454:1573   */\n      iszero\n      tag_102\n      jumpi\n        /* \"#utility.yul\":1492:1571   */\n      tag_103\n      tag_62\n      jump\t// in\n    tag_103:\n        /* \"#utility.yul\":1454:1573   */\n    tag_102:\n        /* \"#utility.yul\":1612:1613   */\n      0x00\n        /* \"#utility.yul\":1637:1690   */\n      tag_104\n        /* \"#utility.yul\":1682:1689   */\n      dup5\n        /* \"#utility.yul\":1673:1679   */\n      dup3\n        /* \"#utility.yul\":1662:1671   */\n      dup6\n        /* \"#utility.yul\":1658:1680   */\n      add\n        /* \"#utility.yul\":1637:1690   */\n      tag_69\n      jump\t// in\n    tag_104:\n        /* \"#utility.yul\":1627:1690   */\n      swap2\n      pop\n        /* \"#utility.yul\":1583:1700   */\n      pop\n        /* \"#utility.yul\":1378:1707   */\n      swap3\n      swap2\n      pop\n      pop\n      jump\t// out\n        /* \"#utility.yul\":1713:1790   */\n    tag_70:\n        /* \"#utility.yul\":1750:1757   */\n      0x00\n        /* \"#utility.yul\":1779:1784   */\n      dup2\n        /* \"#utility.yul\":1768:1784   */\n      swap1\n      pop\n        /* \"#utility.yul\":1713:1790   */\n      swap2\n      swap1\n      pop\n      jump\t// out\n        /* \"#utility.yul\":1796:1914   */\n    tag_71:\n        /* \"#utility.yul\":1883:1907   */\n      tag_107\n        /* \"#utility.yul\":1901:1906   */\n      dup2\n        /* \"#utility.yul\":1883:1907   */\n      tag_70\n      jump\t// in\n    tag_107:\n        /* \"#utility.yul\":1878:1881   */\n      dup3\n        /* \"#utility.yul\":1871:1908   */\n      mstore\n        /* \"#utility.yul\":1796:1914   */\n      pop\n      pop\n      jump\t// out\n        /* \"#utility.yul\":1920:2142   */\n    tag_20:\n        /* \"#utility.yul\":2013:2017   */\n      0x00\n        /* \"#utility.yul\":2051:2053   */\n      0x20\n        /* \"#utility.yul\":2040:2049   */\n      dup3\n        /* \"#utility.yul\":2036:2054   */\n      add\n        /* \"#utility.yul\":2028:2054   */\n      swap1\n      pop\n        /* \"#utility.yul\":2064:2135   */\n      tag_109\n        /* \"#utility.yul\":2132:2133   */\n      0x00\n        /* \"#utility.yul\":2121:2130   */\n      dup4\n        /* \"#utility.yul\":2117:2134   */\n      add\n        /* \"#utility.yul\":2108:2114   */\n      dup5\n        /* \"#utility.yul\":2064:2135   */\n      tag_71\n      jump\t// in\n    tag_109:\n        /* \"#utility.yul\":1920:2142   */\n      swap3\n      swap2\n      pop\n      pop\n      jump\t// out\n        /* \"#utility.yul\":2148:2328   */\n    tag_72:\n        /* \"#utility.yul\":2196:2273   */\n      0x4e487b7100000000000000000000000000000000000000000000000000000000\n        /* \"#utility.yul\":2193:2194   */\n      0x00\n        /* \"#utility.yul\":2186:2274   */\n      mstore\n        /* \"#utility.yul\":2293:2297   */\n      0x11\n        /* \"#utility.yul\":2290:2291   */\n      0x04\n        /* \"#utility.yul\":2283:2298   */\n      mstore\n        /* \"#utility.yul\":2317:2321   */\n      0x24\n        /* \"#utility.yul\":2314:2315   */\n      0x00\n        /* \"#utility.yul\":2307:2322   */\n      revert\n        /* \"#utility.yul\":2334:2525   */\n    tag_34:\n        /* \"#utility.yul\":2374:2377   */\n      0x00\n        /* \"#utility.yul\":2393:2413   */\n      tag_112\n        /* \"#utility.yul\":2411:2412   */\n      dup3\n        /* \"#utility.yul\":2393:2413   */\n      tag_70\n      jump\t// in\n    tag_112:\n        /* \"#utility.yul\":2388:2413   */\n      swap2\n      pop\n        /* \"#utility.yul\":2427:2447   */\n      tag_113\n        /* \"#utility.yul\":2445:2446   */\n      dup4\n        /* \"#utility.yul\":2427:2447   */\n      tag_70\n      jump\t// in\n    tag_113:\n        /* \"#utility.yul\":2422:2447   */\n      swap3\n      pop\n        /* \"#utility.yul\":2470:2471   */\n      dup3\n        /* \"#utility.yul\":2467:2468   */\n      dup3\n        /* \"#utility.yul\":2463:2472   */\n      add\n        /* \"#utility.yul\":2456:2472   */\n      swap1\n      pop\n        /* \"#utility.yul\":2491:2494   */\n      dup1\n        /* \"#utility.yul\":2488:2489   */\n      dup3\n        /* \"#utility.yul\":2485:2495   */\n      gt\n        /* \"#utility.yul\":2482:2518   */\n      iszero\n      tag_114\n      jumpi\n        /* \"#utility.yul\":2498:2516   */\n      tag_115\n      tag_72\n      jump\t// in\n    tag_115:\n        /* \"#utility.yul\":2482:2518   */\n    tag_114:\n        /* \"#utility.yul\":2334:2525   */\n      swap3\n      swap2\n      pop\n      pop\n      jump\t// out\n        /* \"#utility.yul\":2531:2725   */\n    tag_38:\n        /* \"#utility.yul\":2571:2575   */\n      0x00\n        /* \"#utility.yul\":2591:2611   */\n      tag_117\n        /* \"#utility.yul\":2609:2610   */\n      dup3\n        /* \"#utility.yul\":2591:2611   */\n      tag_70\n      jump\t// in\n    tag_117:\n        /* \"#utility.yul\":2586:2611   */\n      swap2\n      pop\n        /* \"#utility.yul\":2625:2645   */\n      tag_118\n        /* \"#utility.yul\":2643:2644   */\n      dup4\n        /* \"#utility.yul\":2625:2645   */\n      tag_70\n      jump\t// in\n    tag_118:\n        /* \"#utility.yul\":2620:2645   */\n      swap3\n      pop\n        /* \"#utility.yul\":2669:2670   */\n      dup3\n        /* \"#utility.yul\":2666:2667   */\n      dup3\n        /* \"#utility.yul\":2662:2671   */\n      sub\n        /* \"#utility.yul\":2654:2671   */\n      swap1\n      pop\n        /* \"#utility.yul\":2693:2694   */\n      dup2\n        /* \"#utility.yul\":2687:2691   */\n      dup2\n        /* \"#utility.yul\":2684:2695   */\n      gt\n        /* \"#utility.yul\":2681:2718   */\n      iszero\n      tag_119\n      jumpi\n        /* \"#utility.yul\":2698:2716   */\n      tag_120\n      tag_72\n      jump\t// in\n    tag_120:\n        /* \"#utility.yul\":2681:2718   */\n    tag_119:\n        /* \"#utility.yul\":2531:2725   */\n      swap3\n      swap2\n      pop\n      pop\n      jump\t// out\n        /* \"#utility.yul\":2731:2810   */\n    tag_73:\n        /* \"#utility.yul\":2770:2777   */\n      0x00\n        /* \"#utility.yul\":2799:2804   */\n      dup2\n        /* \"#utility.yul\":2788:2804   */\n      swap1\n      pop\n        /* \"#utility.yul\":2731:2810   */\n      swap2\n      swap1\n      pop\n      jump\t// out\n        /* \"#utility.yul\":2816:2973   */\n    tag_74:\n        /* \"#utility.yul\":2921:2966   */\n      tag_123\n        /* \"#utility.yul\":2941:2965   */\n      tag_124\n        /* \"#utility.yul\":2959:2964   */\n      dup3\n        /* \"#utility.yul\":2941:2965   */\n      tag_67\n      jump\t// in\n    tag_124:\n        /* \"#utility.yul\":2921:2966   */\n      tag_73\n      jump\t// in\n    tag_123:\n        /* \"#utility.yul\":2916:2919   */\n      dup3\n        /* \"#utility.yul\":2909:2967   */\n      mstore\n        /* \"#utility.yul\":2816:2973   */\n      pop\n      pop\n      jump\t// out\n        /* \"#utility.yul\":2979:3058   */\n    tag_75:\n        /* \"#utility.yul\":3018:3025   */\n      0x00\n        /* \"#utility.yul\":3047:3052   */\n      dup2\n        /* \"#utility.yul\":3036:3052   */\n      swap1\n      pop\n        /* \"#utility.yul\":2979:3058   */\n      swap2\n      swap1\n      pop\n      jump\t// out\n        /* \"#utility.yul\":3064:3221   */\n    tag_76:\n        /* \"#utility.yul\":3169:3214   */\n      tag_127\n        /* \"#utility.yul\":3189:3213   */\n      tag_128\n        /* \"#utility.yul\":3207:3212   */\n      dup3\n        /* \"#utility.yul\":3189:3213   */\n      tag_70\n      jump\t// in\n    tag_128:\n        /* \"#utility.yul\":3169:3214   */\n      tag_75\n      jump\t// in\n    tag_127:\n        /* \"#utility.yul\":3164:3167   */\n      dup3\n        /* \"#utility.yul\":3157:3215   */\n      mstore\n        /* \"#utility.yul\":3064:3221   */\n      pop\n      pop\n      jump\t// out\n        /* \"#utility.yul\":3227:3624   */\n    tag_40:\n        /* \"#utility.yul\":3367:3370   */\n      0x00\n        /* \"#utility.yul\":3382:3457   */\n      tag_130\n        /* \"#utility.yul\":3453:3456   */\n      dup3\n        /* \"#utility.yul\":3444:3450   */\n      dup6\n        /* \"#utility.yul\":3382:3457   */\n      tag_74\n      jump\t// in\n    tag_130:\n        /* \"#utility.yul\":3482:3484   */\n      0x20\n        /* \"#utility.yul\":3477:3480   */\n      dup3\n        /* \"#utility.yul\":3473:3485   */\n      add\n        /* \"#utility.yul\":3466:3485   */\n      swap2\n      pop\n        /* \"#utility.yul\":3495:3570   */\n      tag_131\n        /* \"#utility.yul\":3566:3569   */\n      dup3\n        /* \"#utility.yul\":3557:3563   */\n      dup5\n        /* \"#utility.yul\":3495:3570   */\n      tag_76\n      jump\t// in\n    tag_131:\n        /* \"#utility.yul\":3595:3597   */\n      0x20\n        /* \"#utility.yul\":3590:3593   */\n      dup3\n        /* \"#utility.yul\":3586:3598   */\n      add\n        /* \"#utility.yul\":3579:3598   */\n      swap2\n      pop\n        /* \"#utility.yul\":3615:3618   */\n      dup2\n        /* \"#utility.yul\":3608:3618   */\n      swap1\n      pop\n        /* \"#utility.yul\":3227:3624   */\n      swap4\n      swap3\n      pop\n      pop\n      pop\n      jump\t// out\n        /* \"#utility.yul\":3630:3799   */\n    tag_77:\n        /* \"#utility.yul\":3714:3725   */\n      0x00\n        /* \"#utility.yul\":3748:3754   */\n      dup3\n        /* \"#utility.yul\":3743:3746   */\n      dup3\n        /* \"#utility.yul\":3736:3755   */\n      mstore\n        /* \"#utility.yul\":3788:3792   */\n      0x20\n        /* \"#utility.yul\":3783:3786   */\n      dup3\n        /* \"#utility.yul\":3779:3793   */\n      add\n        /* \"#utility.yul\":3764:3793   */\n      swap1\n      pop\n        /* \"#utility.yul\":3630:3799   */\n      swap3\n      swap2\n      pop\n      pop\n      jump\t// out\n        /* \"#utility.yul\":3805:3970   */\n    tag_78:\n        /* \"#utility.yul\":3945:3962   */\n      0x74727920616761696e206c617465720000000000000000000000000000000000\n        /* \"#utility.yul\":3941:3942   */\n      0x00\n        /* \"#utility.yul\":3933:3939   */\n      dup3\n        /* \"#utility.yul\":3929:3943   */\n      add\n        /* \"#utility.yul\":3922:3963   */\n      mstore\n        /* \"#utility.yul\":3805:3970   */\n      pop\n      jump\t// out\n        /* \"#utility.yul\":3976:4342   */\n    tag_79:\n        /* \"#utility.yul\":4118:4121   */\n      0x00\n        /* \"#utility.yul\":4139:4206   */\n      tag_135\n        /* \"#utility.yul\":4203:4205   */\n      0x0f\n        /* \"#utility.yul\":4198:4201   */\n      dup4\n        /* \"#utility.yul\":4139:4206   */\n      tag_77\n      jump\t// in\n    tag_135:\n        /* \"#utility.yul\":4132:4206   */\n      swap2\n      pop\n        /* \"#utility.yul\":4215:4308   */\n      tag_136\n        /* \"#utility.yul\":4304:4307   */\n      dup3\n        /* \"#utility.yul\":4215:4308   */\n      tag_78\n      jump\t// in\n    tag_136:\n        /* \"#utility.yul\":4333:4335   */\n      0x20\n        /* \"#utility.yul\":4328:4331   */\n      dup3\n        /* \"#utility.yul\":4324:4336   */\n      add\n        /* \"#utility.yul\":4317:4336   */\n      swap1\n      pop\n        /* \"#utility.yul\":3976:4342   */\n      swap2\n      swap1\n      pop\n      jump\t// out\n        /* \"#utility.yul\":4348:4767   */\n    tag_47:\n        /* \"#utility.yul\":4514:4518   */\n      0x00\n        /* \"#utility.yul\":4552:4554   */\n      0x20\n        /* \"#utility.yul\":4541:4550   */\n      dup3\n        /* \"#utility.yul\":4537:4555   */\n      add\n        /* \"#utility.yul\":4529:4555   */\n      swap1\n      pop\n        /* \"#utility.yul\":4601:4610   */\n      dup2\n        /* \"#utility.yul\":4595:4599   */\n      dup2\n        /* \"#utility.yul\":4591:4611   */\n      sub\n        /* \"#utility.yul\":4587:4588   */\n      0x00\n        /* \"#utility.yul\":4576:4585   */\n      dup4\n        /* \"#utility.yul\":4572:4589   */\n      add\n        /* \"#utility.yul\":4565:4612   */\n      mstore\n        /* \"#utility.yul\":4629:4760   */\n      tag_138\n        /* \"#utility.yul\":4755:4759   */\n      dup2\n        /* \"#utility.yul\":4629:4760   */\n      tag_79\n      jump\t// in\n    tag_138:\n        /* \"#utility.yul\":4621:4760   */\n      swap1\n      pop\n        /* \"#utility.yul\":4348:4767   */\n      swap2\n      swap1\n      pop\n      jump\t// out\n        /* \"#utility.yul\":4773:4953   */\n    tag_80:\n        /* \"#utility.yul\":4821:4898   */\n      0x4e487b7100000000000000000000000000000000000000000000000000000000\n        /* \"#utility.yul\":4818:4819   */\n      0x00\n        /* \"#utility.yul\":4811:4899   */\n      mstore\n        /* \"#utility.yul\":4918:4922   */\n      0x12\n        /* \"#utility.yul\":4915:4916   */\n      0x04\n        /* \"#utility.yul\":4908:4923   */\n      mstore\n        /* \"#utility.yul\":4942:4946   */\n      0x24\n        /* \"#utility.yul\":4939:4940   */\n      0x00\n        /* \"#utility.yul\":4932:4947   */\n      revert\n        /* \"#utility.yul\":4959:5129   */\n    tag_51:\n        /* \"#utility.yul\":4989:4990   */\n      0x00\n        /* \"#utility.yul\":5006:5024   */\n      tag_141\n        /* \"#utility.yul\":5022:5023   */\n      dup3\n        /* \"#utility.yul\":5006:5024   */\n      tag_64\n      jump\t// in\n    tag_141:\n        /* \"#utility.yul\":5001:5024   */\n      swap2\n      pop\n        /* \"#utility.yul\":5038:5056   */\n      tag_142\n        /* \"#utility.yul\":5054:5055   */\n      dup4\n        /* \"#utility.yul\":5038:5056   */\n      tag_64\n      jump\t// in\n    tag_142:\n        /* \"#utility.yul\":5033:5056   */\n      swap3\n      pop\n        /* \"#utility.yul\":5075:5076   */\n      dup3\n        /* \"#utility.yul\":5065:5100   */\n      tag_143\n      jumpi\n        /* \"#utility.yul\":5080:5098   */\n      tag_144\n      tag_80\n      jump\t// in\n    tag_144:\n        /* \"#utility.yul\":5065:5100   */\n    tag_143:\n        /* \"#utility.yul\":5121:5122   */\n      dup3\n        /* \"#utility.yul\":5118:5119   */\n      dup3\n        /* \"#utility.yul\":5114:5123   */\n      mod\n        /* \"#utility.yul\":5109:5123   */\n      swap1\n      pop\n        /* \"#utility.yul\":4959:5129   */\n      swap3\n      swap2\n      pop\n      pop\n      jump\t// out\n        /* \"#utility.yul\":5135:5545   */\n    tag_57:\n        /* \"#utility.yul\":5175:5182   */\n      0x00\n        /* \"#utility.yul\":5198:5218   */\n      tag_146\n        /* \"#utility.yul\":5216:5217   */\n      dup3\n        /* \"#utility.yul\":5198:5218   */\n      tag_70\n      jump\t// in\n    tag_146:\n        /* \"#utility.yul\":5193:5218   */\n      swap2\n      pop\n        /* \"#utility.yul\":5232:5252   */\n      tag_147\n        /* \"#utility.yul\":5250:5251   */\n      dup4\n        /* \"#utility.yul\":5232:5252   */\n      tag_70\n      jump\t// in\n    tag_147:\n        /* \"#utility.yul\":5227:5252   */\n      swap3\n      pop\n        /* \"#utility.yul\":5287:5288   */\n      dup3\n        /* \"#utility.yul\":5284:5285   */\n      dup3\n        /* \"#utility.yul\":5280:5289   */\n      mul\n        /* \"#utility.yul\":5309:5339   */\n      tag_148\n        /* \"#utility.yul\":5327:5338   */\n      dup2\n        /* \"#utility.yul\":5309:5339   */\n      tag_70\n      jump\t// in\n    tag_148:\n        /* \"#utility.yul\":5298:5339   */\n      swap2\n      pop\n        /* \"#utility.yul\":5488:5489   */\n      dup3\n        /* \"#utility.yul\":5479:5486   */\n      dup3\n        /* \"#utility.yul\":5475:5490   */\n      div\n        /* \"#utility.yul\":5472:5473   */\n      dup5\n        /* \"#utility.yul\":5469:5491   */\n      eq\n        /* \"#utility.yul\":5449:5450   */\n      dup4\n        /* \"#utility.yul\":5442:5451   */\n      iszero\n        /* \"#utility.yul\":5422:5505   */\n      or\n        /* \"#utility.yul\":5399:5538   */\n      tag_149\n      jumpi\n        /* \"#utility.yul\":5518:5536   */\n      tag_150\n      tag_72\n      jump\t// in\n    tag_150:\n        /* \"#utility.yul\":5399:5538   */\n    tag_149:\n        /* \"#utility.yul\":5183:5545   */\n      pop\n        /* \"#utility.yul\":5135:5545   */\n      swap3\n      swap2\n      pop\n      pop\n      jump\t// out\n\n    auxdata: 0xa2646970667358221220f9d41c39e03dbd699fe07ce328ebdd143e524f0004ceebe0666438a8846a4bf664736f6c63430008130033\n}\n",
				"bytecode": {
					"linkReferences": {},
					"object": "608060405234801561001057600080fd5b50610689806100206000396000f3fe6080604052600436106100555760003560e01c80632c0e00541461005a57806365104fea146100765780637984201e14610092578063af8b41ed146100bd578063efedc669146100d4578063fa391c64146100ff575b600080fd5b610074600480360381019061006f919061036b565b610116565b005b610090600480360381019061008b91906103ce565b61015a565b005b34801561009e57600080fd5b506100a76101da565b6040516100b49190610414565b60405180910390f35b3480156100c957600080fd5b506100d26101e0565b005b3480156100e057600080fd5b506100e96102b5565b6040516100f69190610414565b60405180910390f35b34801561010b57600080fd5b506101146102bb565b005b66038d7ea4c68000341461012957600080fd5b80600260006101000a81548160ff021916908360ff160217905550600143610151919061045e565b60038190555050565b66038d7ea4c68000341461016d57600080fd5b600060014361017c9190610492565b404260405160200161018f929190610508565b60405160208183030381529060405280519060200120905080821480156101b7575060008054145b156101d65760056000808282546101ce919061045e565b925050819055505b5050565b60005481565b6003544311610224576040517f08c379a000000000000000000000000000000000000000000000000000000000815260040161021b90610591565b60405180910390fd5b6000600a6001436102359190610492565b4042604051602001610248929190610508565b6040516020818303038152906040528051906020012060001c61026b91906105e0565b90508060ff16600260009054906101000a900460ff1660ff1614801561029357506005600054145b156102b25760056000808282546102aa919061045e565b925050819055505b50565b60015481565b60006001819055506000546000546102d39190610611565b60018190555060646001540361032b573373ffffffffffffffffffffffffffffffffffffffff166108fc479081150290604051600060405180830381858888f19350505050158015610329573d6000803e3d6000fd5b505b565b600080fd5b600060ff82169050919050565b61034881610332565b811461035357600080fd5b50565b6000813590506103658161033f565b92915050565b6000602082840312156103815761038061032d565b5b600061038f84828501610356565b91505092915050565b6000819050919050565b6103ab81610398565b81146103b657600080fd5b50565b6000813590506103c8816103a2565b92915050565b6000602082840312156103e4576103e361032d565b5b60006103f2848285016103b9565b91505092915050565b6000819050919050565b61040e816103fb565b82525050565b60006020820190506104296000830184610405565b92915050565b7f4e487b7100000000000000000000000000000000000000000000000000000000600052601160045260246000fd5b6000610469826103fb565b9150610474836103fb565b925082820190508082111561048c5761048b61042f565b5b92915050565b600061049d826103fb565b91506104a8836103fb565b92508282039050818111156104c0576104bf61042f565b5b92915050565b6000819050919050565b6104e16104dc82610398565b6104c6565b82525050565b6000819050919050565b6105026104fd826103fb565b6104e7565b82525050565b600061051482856104d0565b60208201915061052482846104f1565b6020820191508190509392505050565b600082825260208201905092915050565b7f74727920616761696e206c617465720000000000000000000000000000000000600082015250565b600061057b600f83610534565b915061058682610545565b602082019050919050565b600060208201905081810360008301526105aa8161056e565b9050919050565b7f4e487b7100000000000000000000000000000000000000000000000000000000600052601260045260246000fd5b60006105eb82610332565b91506105f683610332565b925082610606576106056105b1565b5b828206905092915050565b600061061c826103fb565b9150610627836103fb565b9250828202610635816103fb565b9150828204841483151761064c5761064b61042f565b5b509291505056fea2646970667358221220f9d41c39e03dbd699fe07ce328ebdd143e524f0004ceebe0666438a8846a4bf664736f6c63430008130033",
					"opcodes": "PUSH1 0x80 PUSH1 0x40 MSTORE CALLVALUE DUP1 ISZERO PUSH2 0x10 JUMPI PUSH1 0x0 DUP1 REVERT JUMPDEST POP PUSH2 0x689 DUP1 PUSH2 0x20 PUSH1 0x0 CODECOPY PUSH1 0x0 RETURN INVALID PUSH1 0x80 PUSH1 0x40 MSTORE PUSH1 0x4 CALLDATASIZE LT PUSH2 0x55 JUMPI PUSH1 0x0 CALLDATALOAD PUSH1 0xE0 SHR DUP1 PUSH4 0x2C0E0054 EQ PUSH2 0x5A JUMPI DUP1 PUSH4 0x65104FEA EQ PUSH2 0x76 JUMPI DUP1 PUSH4 0x7984201E EQ PUSH2 0x92 JUMPI DUP1 PUSH4 0xAF8B41ED EQ PUSH2 0xBD JUMPI DUP1 PUSH4 0xEFEDC669 EQ PUSH2 0xD4 JUMPI DUP1 PUSH4 0xFA391C64 EQ PUSH2 0xFF JUMPI JUMPDEST PUSH1 0x0 DUP1 REVERT JUMPDEST PUSH2 0x74 PUSH1 0x4 DUP1 CALLDATASIZE SUB DUP2 ADD SWAP1 PUSH2 0x6F SWAP2 SWAP1 PUSH2 0x36B JUMP JUMPDEST PUSH2 0x116 JUMP JUMPDEST STOP JUMPDEST PUSH2 0x90 PUSH1 0x4 DUP1 CALLDATASIZE SUB DUP2 ADD SWAP1 PUSH2 0x8B SWAP2 SWAP1 PUSH2 0x3CE JUMP JUMPDEST PUSH2 0x15A JUMP JUMPDEST STOP JUMPDEST CALLVALUE DUP1 ISZERO PUSH2 0x9E JUMPI PUSH1 0x0 DUP1 REVERT JUMPDEST POP PUSH2 0xA7 PUSH2 0x1DA JUMP JUMPDEST PUSH1 0x40 MLOAD PUSH2 0xB4 SWAP2 SWAP1 PUSH2 0x414 JUMP JUMPDEST PUSH1 0x40 MLOAD DUP1 SWAP2 SUB SWAP1 RETURN JUMPDEST CALLVALUE DUP1 ISZERO PUSH2 0xC9 JUMPI PUSH1 0x0 DUP1 REVERT JUMPDEST POP PUSH2 0xD2 PUSH2 0x1E0 JUMP JUMPDEST STOP JUMPDEST CALLVALUE DUP1 ISZERO PUSH2 0xE0 JUMPI PUSH1 0x0 DUP1 REVERT JUMPDEST POP PUSH2 0xE9 PUSH2 0x2B5 JUMP JUMPDEST PUSH1 0x40 MLOAD PUSH2 0xF6 SWAP2 SWAP1 PUSH2 0x414 JUMP JUMPDEST PUSH1 0x40 MLOAD DUP1 SWAP2 SUB SWAP1 RETURN JUMPDEST CALLVALUE DUP1 ISZERO PUSH2 0x10B JUMPI PUSH1 0x0 DUP1 REVERT JUMPDEST POP PUSH2 0x114 PUSH2 0x2BB JUMP JUMPDEST STOP JUMPDEST PUSH7 0x38D7EA4C68000 CALLVALUE EQ PUSH2 0x129 JUMPI PUSH1 0x0 DUP1 REVERT JUMPDEST DUP1 PUSH1 0x2 PUSH1 0x0 PUSH2 0x100 EXP DUP2 SLOAD DUP2 PUSH1 0xFF MUL NOT AND SWAP1 DUP4 PUSH1 0xFF AND MUL OR SWAP1 SSTORE POP PUSH1 0x1 NUMBER PUSH2 0x151 SWAP2 SWAP1 PUSH2 0x45E JUMP JUMPDEST PUSH1 0x3 DUP2 SWAP1 SSTORE POP POP JUMP JUMPDEST PUSH7 0x38D7EA4C68000 CALLVALUE EQ PUSH2 0x16D JUMPI PUSH1 0x0 DUP1 REVERT JUMPDEST PUSH1 0x0 PUSH1 0x1 NUMBER PUSH2 0x17C SWAP2 SWAP1 PUSH2 0x492 JUMP JUMPDEST BLOCKHASH TIMESTAMP PUSH1 0x40 MLOAD PUSH1 0x20 ADD PUSH2 0x18F SWAP3 SWAP2 SWAP1 PUSH2 0x508 JUMP JUMPDEST PUSH1 0x40 MLOAD PUSH1 0x20 DUP2 DUP4 SUB SUB DUP2 MSTORE SWAP1 PUSH1 0x40 MSTORE DUP1 MLOAD SWAP1 PUSH1 0x20 ADD KECCAK256 SWAP1 POP DUP1 DUP3 EQ DUP1 ISZERO PUSH2 0x1B7 JUMPI POP PUSH1 0x0 DUP1 SLOAD EQ JUMPDEST ISZERO PUSH2 0x1D6 JUMPI PUSH1 0x5 PUSH1 0x0 DUP1 DUP3 DUP3 SLOAD PUSH2 0x1CE SWAP2 SWAP1 PUSH2 0x45E JUMP JUMPDEST SWAP3 POP POP DUP2 SWAP1 SSTORE POP JUMPDEST POP POP JUMP JUMPDEST PUSH1 0x0 SLOAD DUP2 JUMP JUMPDEST PUSH1 0x3 SLOAD NUMBER GT PUSH2 0x224 JUMPI PUSH1 0x40 MLOAD PUSH32 0x8C379A000000000000000000000000000000000000000000000000000000000 DUP2 MSTORE PUSH1 0x4 ADD PUSH2 0x21B SWAP1 PUSH2 0x591 JUMP JUMPDEST PUSH1 0x40 MLOAD DUP1 SWAP2 SUB SWAP1 REVERT JUMPDEST PUSH1 0x0 PUSH1 0xA PUSH1 0x1 NUMBER PUSH2 0x235 SWAP2 SWAP1 PUSH2 0x492 JUMP JUMPDEST BLOCKHASH TIMESTAMP PUSH1 0x40 MLOAD PUSH1 0x20 ADD PUSH2 0x248 SWAP3 SWAP2 SWAP1 PUSH2 0x508 JUMP JUMPDEST PUSH1 0x40 MLOAD PUSH1 0x20 DUP2 DUP4 SUB SUB DUP2 MSTORE SWAP1 PUSH1 0x40 MSTORE DUP1 MLOAD SWAP1 PUSH1 0x20 ADD KECCAK256 PUSH1 0x0 SHR PUSH2 0x26B SWAP2 SWAP1 PUSH2 0x5E0 JUMP JUMPDEST SWAP1 POP DUP1 PUSH1 0xFF AND PUSH1 0x2 PUSH1 0x0 SWAP1 SLOAD SWAP1 PUSH2 0x100 EXP SWAP1 DIV PUSH1 0xFF AND PUSH1 0xFF AND EQ DUP1 ISZERO PUSH2 0x293 JUMPI POP PUSH1 0x5 PUSH1 0x0 SLOAD EQ JUMPDEST ISZERO PUSH2 0x2B2 JUMPI PUSH1 0x5 PUSH1 0x0 DUP1 DUP3 DUP3 SLOAD PUSH2 0x2AA SWAP2 SWAP1 PUSH2 0x45E JUMP JUMPDEST SWAP3 POP POP DUP2 SWAP1 SSTORE POP JUMPDEST POP JUMP JUMPDEST PUSH1 0x1 SLOAD DUP2 JUMP JUMPDEST PUSH1 0x0 PUSH1 0x1 DUP2 SWAP1 SSTORE POP PUSH1 0x0 SLOAD PUSH1 0x0 SLOAD PUSH2 0x2D3 SWAP2 SWAP1 PUSH2 0x611 JUMP JUMPDEST PUSH1 0x1 DUP2 SWAP1 SSTORE POP PUSH1 0x64 PUSH1 0x1 SLOAD SUB PUSH2 0x32B JUMPI CALLER PUSH20 0xFFFFFFFFFFFFFFFFFFFFFFFFFFFFFFFFFFFFFFFF AND PUSH2 0x8FC SELFBALANCE SWAP1 DUP2 ISZERO MUL SWAP1 PUSH1 0x40 MLOAD PUSH1 0x0 PUSH1 0x40 MLOAD DUP1 DUP4 SUB DUP2 DUP6 DUP9 DUP9 CALL SWAP4 POP POP POP POP ISZERO DUP1 ISZERO PUSH2 0x329 JUMPI RETURNDATASIZE PUSH1 0x0 DUP1 RETURNDATACOPY RETURNDATASIZE PUSH1 0x0 REVERT JUMPDEST POP JUMPDEST JUMP JUMPDEST PUSH1 0x0 DUP1 REVERT JUMPDEST PUSH1 0x0 PUSH1 0xFF DUP3 AND SWAP1 POP SWAP2 SWAP1 POP JUMP JUMPDEST PUSH2 0x348 DUP2 PUSH2 0x332 JUMP JUMPDEST DUP2 EQ PUSH2 0x353 JUMPI PUSH1 0x0 DUP1 REVERT JUMPDEST POP JUMP JUMPDEST PUSH1 0x0 DUP2 CALLDATALOAD SWAP1 POP PUSH2 0x365 DUP2 PUSH2 0x33F JUMP JUMPDEST SWAP3 SWAP2 POP POP JUMP JUMPDEST PUSH1 0x0 PUSH1 0x20 DUP3 DUP5 SUB SLT ISZERO PUSH2 0x381 JUMPI PUSH2 0x380 PUSH2 0x32D JUMP JUMPDEST JUMPDEST PUSH1 0x0 PUSH2 0x38F DUP5 DUP3 DUP6 ADD PUSH2 0x356 JUMP JUMPDEST SWAP2 POP POP SWAP3 SWAP2 POP POP JUMP JUMPDEST PUSH1 0x0 DUP2 SWAP1 POP SWAP2 SWAP1 POP JUMP JUMPDEST PUSH2 0x3AB DUP2 PUSH2 0x398 JUMP JUMPDEST DUP2 EQ PUSH2 0x3B6 JUMPI PUSH1 0x0 DUP1 REVERT JUMPDEST POP JUMP JUMPDEST PUSH1 0x0 DUP2 CALLDATALOAD SWAP1 POP PUSH2 0x3C8 DUP2 PUSH2 0x3A2 JUMP JUMPDEST SWAP3 SWAP2 POP POP JUMP JUMPDEST PUSH1 0x0 PUSH1 0x20 DUP3 DUP5 SUB SLT ISZERO PUSH2 0x3E4 JUMPI PUSH2 0x3E3 PUSH2 0x32D JUMP JUMPDEST JUMPDEST PUSH1 0x0 PUSH2 0x3F2 DUP5 DUP3 DUP6 ADD PUSH2 0x3B9 JUMP JUMPDEST SWAP2 POP POP SWAP3 SWAP2 POP POP JUMP JUMPDEST PUSH1 0x0 DUP2 SWAP1 POP SWAP2 SWAP1 POP JUMP JUMPDEST PUSH2 0x40E DUP2 PUSH2 0x3FB JUMP JUMPDEST DUP3 MSTORE POP POP JUMP JUMPDEST PUSH1 0x0 PUSH1 0x20 DUP3 ADD SWAP1 POP PUSH2 0x429 PUSH1 0x0 DUP4 ADD DUP5 PUSH2 0x405 JUMP JUMPDEST SWAP3 SWAP2 POP POP JUMP JUMPDEST PUSH32 0x4E487B7100000000000000000000000000000000000000000000000000000000 PUSH1 0x0 MSTORE PUSH1 0x11 PUSH1 0x4 MSTORE PUSH1 0x24 PUSH1 0x0 REVERT JUMPDEST PUSH1 0x0 PUSH2 0x469 DUP3 PUSH2 0x3FB JUMP JUMPDEST SWAP2 POP PUSH2 0x474 DUP4 PUSH2 0x3FB JUMP JUMPDEST SWAP3 POP DUP3 DUP3 ADD SWAP1 POP DUP1 DUP3 GT ISZERO PUSH2 0x48C JUMPI PUSH2 0x48B PUSH2 0x42F JUMP JUMPDEST JUMPDEST SWAP3 SWAP2 POP POP JUMP JUMPDEST PUSH1 0x0 PUSH2 0x49D DUP3 PUSH2 0x3FB JUMP JUMPDEST SWAP2 POP PUSH2 0x4A8 DUP4 PUSH2 0x3FB JUMP JUMPDEST SWAP3 POP DUP3 DUP3 SUB SWAP1 POP DUP2 DUP2 GT ISZERO PUSH2 0x4C0 JUMPI PUSH2 0x4BF PUSH2 0x42F JUMP JUMPDEST JUMPDEST SWAP3 SWAP2 POP POP JUMP JUMPDEST PUSH1 0x0 DUP2 SWAP1 POP SWAP2 SWAP1 POP JUMP JUMPDEST PUSH2 0x4E1 PUSH2 0x4DC DUP3 PUSH2 0x398 JUMP JUMPDEST PUSH2 0x4C6 JUMP JUMPDEST DUP3 MSTORE POP POP JUMP JUMPDEST PUSH1 0x0 DUP2 SWAP1 POP SWAP2 SWAP1 POP JUMP JUMPDEST PUSH2 0x502 PUSH2 0x4FD DUP3 PUSH2 0x3FB JUMP JUMPDEST PUSH2 0x4E7 JUMP JUMPDEST DUP3 MSTORE POP POP JUMP JUMPDEST PUSH1 0x0 PUSH2 0x514 DUP3 DUP6 PUSH2 0x4D0 JUMP JUMPDEST PUSH1 0x20 DUP3 ADD SWAP2 POP PUSH2 0x524 DUP3 DUP5 PUSH2 0x4F1 JUMP JUMPDEST PUSH1 0x20 DUP3 ADD SWAP2 POP DUP2 SWAP1 POP SWAP4 SWAP3 POP POP POP JUMP JUMPDEST PUSH1 0x0 DUP3 DUP3 MSTORE PUSH1 0x20 DUP3 ADD SWAP1 POP SWAP3 SWAP2 POP POP JUMP JUMPDEST PUSH32 0x74727920616761696E206C617465720000000000000000000000000000000000 PUSH1 0x0 DUP3 ADD MSTORE POP JUMP JUMPDEST PUSH1 0x0 PUSH2 0x57B PUSH1 0xF DUP4 PUSH2 0x534 JUMP JUMPDEST SWAP2 POP PUSH2 0x586 DUP3 PUSH2 0x545 JUMP JUMPDEST PUSH1 0x20 DUP3 ADD SWAP1 POP SWAP2 SWAP1 POP JUMP JUMPDEST PUSH1 0x0 PUSH1 0x20 DUP3 ADD SWAP1 POP DUP2 DUP2 SUB PUSH1 0x0 DUP4 ADD MSTORE PUSH2 0x5AA DUP2 PUSH2 0x56E JUMP JUMPDEST SWAP1 POP SWAP2 SWAP1 POP JUMP JUMPDEST PUSH32 0x4E487B7100000000000000000000000000000000000000000000000000000000 PUSH1 0x0 MSTORE PUSH1 0x12 PUSH1 0x4 MSTORE PUSH1 0x24 PUSH1 0x0 REVERT JUMPDEST PUSH1 0x0 PUSH2 0x5EB DUP3 PUSH2 0x332 JUMP JUMPDEST SWAP2 POP PUSH2 0x5F6 DUP4 PUSH2 0x332 JUMP JUMPDEST SWAP3 POP DUP3 PUSH2 0x606 JUMPI PUSH2 0x605 PUSH2 0x5B1 JUMP JUMPDEST JUMPDEST DUP3 DUP3 MOD SWAP1 POP SWAP3 SWAP2 POP POP JUMP JUMPDEST PUSH1 0x0 PUSH2 0x61C DUP3 PUSH2 0x3FB JUMP JUMPDEST SWAP2 POP PUSH2 0x627 DUP4 PUSH2 0x3FB JUMP JUMPDEST SWAP3 POP DUP3 DUP3 MUL PUSH2 0x635 DUP2 PUSH2 0x3FB JUMP JUMPDEST SWAP2 POP DUP3 DUP3 DIV DUP5 EQ DUP4 ISZERO OR PUSH2 0x64C JUMPI PUSH2 0x64B PUSH2 0x42F JUMP JUMPDEST JUMPDEST POP SWAP3 SWAP2 POP POP JUMP INVALID LOG2 PUSH5 0x6970667358 0x22 SLT KECCAK256 0xF9 0xD4 SHR CODECOPY 0xE0 RETURNDATASIZE 0xBD PUSH10 0x9FE07CE328EBDD143E52 0x4F STOP DIV 0xCE 0xEB 0xE0 PUSH7 0x6438A8846A4BF6 PUSH5 0x736F6C6343 STOP ADDMOD SGT STOP CALLER "
				},
				"gasEstimates": {
					"creation": {
						"codeDepositCost": "334600",
						"executionCost": "374",
						"totalCost": "334974"
					},
					"external": {
						"guessFlag()": "2451",
						"guessed()": "infinite",
						"guesser(bytes32)": "infinite",
						"isCompleted()": "infinite",
						"lockInGuess(uint8)": "infinite",
						"score()": "2495"
					}
				},
				"methodIdentifiers": {
					"guessFlag()": "7984201e",
					"guessed()": "af8b41ed",
					"guesser(bytes32)": "65104fea",
					"isCompleted()": "fa391c64",
					"lockInGuess(uint8)": "2c0e0054",
					"score()": "efedc669"
				}
			},
			"storageLayout": {
				"storage": [
					{
						"astId": 3,
						"contract": "SecLessonPoc-main/contracts/random/check/block.sol:blocker",
						"label": "guessFlag",
						"offset": 0,
						"slot": "0",
						"type": "t_uint256"
					},
					{
						"astId": 5,
						"contract": "SecLessonPoc-main/contracts/random/check/block.sol:blocker",
						"label": "score",
						"offset": 0,
						"slot": "1",
						"type": "t_uint256"
					},
					{
						"astId": 7,
						"contract": "SecLessonPoc-main/contracts/random/check/block.sol:blocker",
						"label": "guess",
						"offset": 0,
						"slot": "2",
						"type": "t_uint8"
					},
					{
						"astId": 9,
						"contract": "SecLessonPoc-main/contracts/random/check/block.sol:blocker",
						"label": "settlementBlockNumber",
						"offset": 0,
						"slot": "3",
						"type": "t_uint256"
					}
				],
				"types": {
					"t_uint256": {
						"encoding": "inplace",
						"label": "uint256",
						"numberOfBytes": "32"
					},
					"t_uint8": {
						"encoding": "inplace",
						"label": "uint8",
						"numberOfBytes": "1"
					}
				}
			},
			"userdoc": {
				"kind": "user",
				"methods": {},
				"version": 1
			}
		}
	}
}