{
	"shoot/2/整型溢出/1.sol": {
		"amountOut": {
			"abi": [
				{
					"inputs": [],
					"name": "airdrop",
					"outputs": [],
					"stateMutability": "nonpayable",
					"type": "function"
				},
				{
					"inputs": [
						{
							"internalType": "address",
							"name": "",
							"type": "address"
						}
					],
					"name": "balances",
					"outputs": [
						{
							"internalType": "uint256",
							"name": "",
							"type": "uint256"
						}
					],
					"stateMutability": "view",
					"type": "function"
				},
				{
					"inputs": [
						{
							"internalType": "uint256",
							"name": "amount",
							"type": "uint256"
						}
					],
					"name": "deposit",
					"outputs": [],
					"stateMutability": "nonpayable",
					"type": "function"
				},
				{
					"inputs": [],
					"name": "token",
					"outputs": [
						{
							"internalType": "contract ERC20",
							"name": "",
							"type": "address"
						}
					],
					"stateMutability": "view",
					"type": "function"
				},
				{
					"inputs": [
						{
							"internalType": "address[]",
							"name": "_receivers",
							"type": "address[]"
						},
						{
							"internalType": "uint256",
							"name": "amount",
							"type": "uint256"
						}
					],
					"name": "transfers",
					"outputs": [
						{
							"internalType": "bool",
							"name": "",
							"type": "bool"
						}
					],
					"stateMutability": "nonpayable",
					"type": "function"
				},
				{
					"inputs": [
						{
							"internalType": "uint256",
							"name": "amount",
							"type": "uint256"
						}
					],
					"name": "withdraw",
					"outputs": [],
					"stateMutability": "nonpayable",
					"type": "function"
				}
			],
			"devdoc": {
				"kind": "dev",
				"methods": {},
				"version": 1
			},
			"evm": {
				"assembly": "    /* \"shoot/2/整型溢出/1.sol\":2910:4233  contract amountOut {\r... */\n  mstore(0x40, 0x80)\n    /* \"shoot/2/整型溢出/1.sol\":2955:2962  1 ether */\n  0x0de0b6b3a7640000\n    /* \"shoot/2/整型溢出/1.sol\":2936:2962  uint256 decimals = 1 ether */\n  0x00\n  sstore\n    /* \"shoot/2/整型溢出/1.sol\":3061:3072  new ERC20() */\n  mload(0x40)\n  tag_1\n  swap1\n  tag_2\n  jump\t// in\ntag_1:\n  mload(0x40)\n  dup1\n  swap2\n  sub\n  swap1\n  0x00\n  create\n  dup1\n  iszero\n  dup1\n  iszero\n  tag_3\n  jumpi\n  returndatasize\n  0x00\n  dup1\n  returndatacopy\n  revert(0x00, returndatasize)\ntag_3:\n  pop\n    /* \"shoot/2/整型溢出/1.sol\":3040:3072  ERC20 public token = new ERC20() */\n  0x02\n  exp(0x0100, 0x01)\n  dup2\n  sload\n  dup2\n  0xffffffffffffffffffffffffffffffffffffffff\n  mul\n  not\n  and\n  swap1\n  dup4\n  0xffffffffffffffffffffffffffffffffffffffff\n  and\n  mul\n  or\n  swap1\n  sstore\n  pop\n    /* \"shoot/2/整型溢出/1.sol\":2910:4233  contract amountOut {\r... */\n  callvalue\n  dup1\n  iszero\n  tag_4\n  jumpi\n  0x00\n  dup1\n  revert\ntag_4:\n  pop\n  jump(tag_5)\ntag_2:\n  dataSize(sub_1)\n  dup1\n  dataOffset(sub_1)\n  dup4\n  codecopy\n  add\n  swap1\n  jump\t// out\ntag_5:\n  dataSize(sub_0)\n  dup1\n  dataOffset(sub_0)\n  0x00\n  codecopy\n  0x00\n  return\nstop\n\nsub_0: assembly {\n        /* \"shoot/2/整型溢出/1.sol\":2910:4233  contract amountOut {\r... */\n      mstore(0x40, 0x80)\n      callvalue\n      dup1\n      iszero\n      tag_1\n      jumpi\n      0x00\n      dup1\n      revert\n    tag_1:\n      pop\n      jumpi(tag_2, lt(calldatasize, 0x04))\n      shr(0xe0, calldataload(0x00))\n      dup1\n      0x27e235e3\n      eq\n      tag_3\n      jumpi\n      dup1\n      0x2e1a7d4d\n      eq\n      tag_4\n      jumpi\n      dup1\n      0x3884d635\n      eq\n      tag_5\n      jumpi\n      dup1\n      0x95f709d9\n      eq\n      tag_6\n      jumpi\n      dup1\n      0xb6b55f25\n      eq\n      tag_7\n      jumpi\n      dup1\n      0xfc0c546a\n      eq\n      tag_8\n      jumpi\n    tag_2:\n      0x00\n      dup1\n      revert\n        /* \"shoot/2/整型溢出/1.sol\":2969:3012  mapping(address => uint256) public balances */\n    tag_3:\n      tag_9\n      0x04\n      dup1\n      calldatasize\n      sub\n      0x20\n      dup2\n      lt\n      iszero\n      tag_10\n      jumpi\n      0x00\n      dup1\n      revert\n    tag_10:\n      dup2\n      add\n      swap1\n      dup1\n      dup1\n      calldataload\n      0xffffffffffffffffffffffffffffffffffffffff\n      and\n      swap1\n      0x20\n      add\n      swap1\n      swap3\n      swap2\n      swap1\n      pop\n      pop\n      pop\n      tag_11\n      jump\t// in\n    tag_9:\n      mload(0x40)\n      dup1\n      dup3\n      dup2\n      mstore\n      0x20\n      add\n      swap2\n      pop\n      pop\n      mload(0x40)\n      dup1\n      swap2\n      sub\n      swap1\n      return\n        /* \"shoot/2/整型溢出/1.sol\":3350:3577  function withdraw(uint256 amount) public {\r... */\n    tag_4:\n      tag_12\n      0x04\n      dup1\n      calldatasize\n      sub\n      0x20\n      dup2\n      lt\n      iszero\n      tag_13\n      jumpi\n      0x00\n      dup1\n      revert\n    tag_13:\n      dup2\n      add\n      swap1\n      dup1\n      dup1\n      calldataload\n      swap1\n      0x20\n      add\n      swap1\n      swap3\n      swap2\n      swap1\n      pop\n      pop\n      pop\n      tag_14\n      jump\t// in\n    tag_12:\n      stop\n        /* \"shoot/2/整型溢出/1.sol\":4105:4230  function airdrop() public {\r... */\n    tag_5:\n      tag_15\n      tag_16\n      jump\t// in\n    tag_15:\n      stop\n        /* \"shoot/2/整型溢出/1.sol\":3585:4097  function transfers(address[] memory _receivers, uint256 amount)\r... */\n    tag_6:\n      tag_17\n      0x04\n      dup1\n      calldatasize\n      sub\n      0x40\n      dup2\n      lt\n      iszero\n      tag_18\n      jumpi\n      0x00\n      dup1\n      revert\n    tag_18:\n      dup2\n      add\n      swap1\n      dup1\n      dup1\n      calldataload\n      swap1\n      0x20\n      add\n      swap1\n      0x0100000000\n      dup2\n      gt\n      iszero\n      tag_19\n      jumpi\n      0x00\n      dup1\n      revert\n    tag_19:\n      dup3\n      add\n      dup4\n      0x20\n      dup3\n      add\n      gt\n      iszero\n      tag_20\n      jumpi\n      0x00\n      dup1\n      revert\n    tag_20:\n      dup1\n      calldataload\n      swap1\n      0x20\n      add\n      swap2\n      dup5\n      0x20\n      dup4\n      mul\n      dup5\n      add\n      gt\n      0x0100000000\n      dup4\n      gt\n      or\n      iszero\n      tag_21\n      jumpi\n      0x00\n      dup1\n      revert\n    tag_21:\n      swap2\n      swap1\n      dup1\n      dup1\n      0x20\n      mul\n      0x20\n      add\n      mload(0x40)\n      swap1\n      dup2\n      add\n      0x40\n      mstore\n      dup1\n      swap4\n      swap3\n      swap2\n      swap1\n      dup2\n      dup2\n      mstore\n      0x20\n      add\n      dup4\n      dup4\n      0x20\n      mul\n      dup1\n      dup3\n      dup5\n      calldatacopy\n      0x00\n      dup2\n      dup5\n      add\n      mstore\n      not(0x1f)\n      0x1f\n      dup3\n      add\n      and\n      swap1\n      pop\n      dup1\n      dup4\n      add\n      swap3\n      pop\n      pop\n      pop\n      pop\n      pop\n      pop\n      pop\n      swap2\n      swap3\n      swap2\n      swap3\n      swap1\n      dup1\n      calldataload\n      swap1\n      0x20\n      add\n      swap1\n      swap3\n      swap2\n      swap1\n      pop\n      pop\n      pop\n      tag_22\n      jump\t// in\n    tag_17:\n      mload(0x40)\n      dup1\n      dup3\n      iszero\n      iszero\n      dup2\n      mstore\n      0x20\n      add\n      swap2\n      pop\n      pop\n      mload(0x40)\n      dup1\n      swap2\n      sub\n      swap1\n      return\n        /* \"shoot/2/整型溢出/1.sol\":3081:3342  function deposit(uint256 amount) public {\r... */\n    tag_7:\n      tag_23\n      0x04\n      dup1\n      calldatasize\n      sub\n      0x20\n      dup2\n      lt\n      iszero\n      tag_24\n      jumpi\n      0x00\n      dup1\n      revert\n    tag_24:\n      dup2\n      add\n      swap1\n      dup1\n      dup1\n      calldataload\n      swap1\n      0x20\n      add\n      swap1\n      swap3\n      swap2\n      swap1\n      pop\n      pop\n      pop\n      tag_25\n      jump\t// in\n    tag_23:\n      stop\n        /* \"shoot/2/整型溢出/1.sol\":3040:3072  ERC20 public token = new ERC20() */\n    tag_8:\n      tag_26\n      tag_27\n      jump\t// in\n    tag_26:\n      mload(0x40)\n      dup1\n      dup3\n      0xffffffffffffffffffffffffffffffffffffffff\n      and\n      dup2\n      mstore\n      0x20\n      add\n      swap2\n      pop\n      pop\n      mload(0x40)\n      dup1\n      swap2\n      sub\n      swap1\n      return\n        /* \"shoot/2/整型溢出/1.sol\":2969:3012  mapping(address => uint256) public balances */\n    tag_11:\n      mstore(0x20, 0x01)\n      dup1\n      0x00\n      mstore\n      keccak256(0x00, 0x40)\n      0x00\n      swap2\n      pop\n      swap1\n      pop\n      sload\n      dup2\n      jump\t// out\n        /* \"shoot/2/整型溢出/1.sol\":3350:3577  function withdraw(uint256 amount) public {\r... */\n    tag_14:\n        /* \"shoot/2/整型溢出/1.sol\":3402:3415  uint256 value */\n      0x00\n        /* \"shoot/2/整型溢出/1.sol\":3427:3435  decimals */\n      dup1\n      sload\n        /* \"shoot/2/整型溢出/1.sol\":3418:3424  amount */\n      dup3\n        /* \"shoot/2/整型溢出/1.sol\":3418:3435  amount * decimals */\n      mul\n        /* \"shoot/2/整型溢出/1.sol\":3402:3435  uint256 value = amount * decimals */\n      swap1\n      pop\n        /* \"shoot/2/整型溢出/1.sol\":3477:3483  amount */\n      dup2\n        /* \"shoot/2/整型溢出/1.sol\":3454:3462  balances */\n      0x01\n        /* \"shoot/2/整型溢出/1.sol\":3454:3474  balances[msg.sender] */\n      0x00\n        /* \"shoot/2/整型溢出/1.sol\":3463:3473  msg.sender */\n      caller\n        /* \"shoot/2/整型溢出/1.sol\":3454:3474  balances[msg.sender] */\n      0xffffffffffffffffffffffffffffffffffffffff\n      and\n      0xffffffffffffffffffffffffffffffffffffffff\n      and\n      dup2\n      mstore\n      0x20\n      add\n      swap1\n      dup2\n      mstore\n      0x20\n      add\n      0x00\n      keccak256\n      sload\n        /* \"shoot/2/整型溢出/1.sol\":3454:3483  balances[msg.sender] > amount */\n      gt\n        /* \"shoot/2/整型溢出/1.sol\":3446:3484  require(balances[msg.sender] > amount) */\n      tag_29\n      jumpi\n      0x00\n      dup1\n      revert\n    tag_29:\n        /* \"shoot/2/整型溢出/1.sol\":3519:3525  amount */\n      dup2\n        /* \"shoot/2/整型溢出/1.sol\":3495:3503  balances */\n      0x01\n        /* \"shoot/2/整型溢出/1.sol\":3495:3515  balances[msg.sender] */\n      0x00\n        /* \"shoot/2/整型溢出/1.sol\":3504:3514  msg.sender */\n      caller\n        /* \"shoot/2/整型溢出/1.sol\":3495:3515  balances[msg.sender] */\n      0xffffffffffffffffffffffffffffffffffffffff\n      and\n      0xffffffffffffffffffffffffffffffffffffffff\n      and\n      dup2\n      mstore\n      0x20\n      add\n      swap1\n      dup2\n      mstore\n      0x20\n      add\n      0x00\n      keccak256\n      0x00\n        /* \"shoot/2/整型溢出/1.sol\":3495:3525  balances[msg.sender] -= amount */\n      dup3\n      dup3\n      sload\n      sub\n      swap3\n      pop\n      pop\n      dup2\n      swap1\n      sstore\n      pop\n        /* \"shoot/2/整型溢出/1.sol\":3536:3541  token */\n      0x02\n      0x01\n      swap1\n      sload\n      swap1\n      0x0100\n      exp\n      swap1\n      div\n      0xffffffffffffffffffffffffffffffffffffffff\n      and\n        /* \"shoot/2/整型溢出/1.sol\":3536:3550  token.transfer */\n      0xffffffffffffffffffffffffffffffffffffffff\n      and\n      0xa9059cbb\n        /* \"shoot/2/整型溢出/1.sol\":3551:3561  msg.sender */\n      caller\n        /* \"shoot/2/整型溢出/1.sol\":3563:3568  value */\n      dup4\n        /* \"shoot/2/整型溢出/1.sol\":3536:3569  token.transfer(msg.sender, value) */\n      mload(0x40)\n      dup4\n      0xffffffff\n      and\n      0xe0\n      shl\n      dup2\n      mstore\n      0x04\n      add\n      dup1\n      dup4\n      0xffffffffffffffffffffffffffffffffffffffff\n      and\n      dup2\n      mstore\n      0x20\n      add\n      dup3\n      dup2\n      mstore\n      0x20\n      add\n      swap3\n      pop\n      pop\n      pop\n      0x20\n      mload(0x40)\n      dup1\n      dup4\n      sub\n      dup2\n      0x00\n      dup8\n      dup1\n      extcodesize\n      iszero\n      dup1\n      iszero\n      tag_30\n      jumpi\n      0x00\n      dup1\n      revert\n    tag_30:\n      pop\n      gas\n      call\n      iszero\n      dup1\n      iszero\n      tag_32\n      jumpi\n      returndatasize\n      0x00\n      dup1\n      returndatacopy\n      revert(0x00, returndatasize)\n    tag_32:\n      pop\n      pop\n      pop\n      pop\n      mload(0x40)\n      returndatasize\n      0x20\n      dup2\n      lt\n      iszero\n      tag_33\n      jumpi\n      0x00\n      dup1\n      revert\n    tag_33:\n      dup2\n      add\n      swap1\n      dup1\n      dup1\n      mload\n      swap1\n      0x20\n      add\n      swap1\n      swap3\n      swap2\n      swap1\n      pop\n      pop\n      pop\n      pop\n        /* \"shoot/2/整型溢出/1.sol\":3350:3577  function withdraw(uint256 amount) public {\r... */\n      pop\n      pop\n      jump\t// out\n        /* \"shoot/2/整型溢出/1.sol\":4105:4230  function airdrop() public {\r... */\n    tag_16:\n        /* \"shoot/2/整型溢出/1.sol\":4151:4160  airdroped */\n      0x02\n      0x00\n      swap1\n      sload\n      swap1\n      0x0100\n      exp\n      swap1\n      div\n      0xff\n      and\n        /* \"shoot/2/整型溢出/1.sol\":4150:4160  !airdroped */\n      iszero\n        /* \"shoot/2/整型溢出/1.sol\":4142:4161  require(!airdroped) */\n      tag_35\n      jumpi\n      0x00\n      dup1\n      revert\n    tag_35:\n        /* \"shoot/2/整型溢出/1.sol\":4184:4188  true */\n      0x01\n        /* \"shoot/2/整型溢出/1.sol\":4172:4181  airdroped */\n      0x02\n      0x00\n        /* \"shoot/2/整型溢出/1.sol\":4172:4188  airdroped = true */\n      0x0100\n      exp\n      dup2\n      sload\n      dup2\n      0xff\n      mul\n      not\n      and\n      swap1\n      dup4\n      iszero\n      iszero\n      mul\n      or\n      swap1\n      sstore\n      pop\n        /* \"shoot/2/整型溢出/1.sol\":4221:4222  2 */\n      0x02\n        /* \"shoot/2/整型溢出/1.sol\":4199:4207  balances */\n      0x01\n        /* \"shoot/2/整型溢出/1.sol\":4199:4219  balances[msg.sender] */\n      0x00\n        /* \"shoot/2/整型溢出/1.sol\":4208:4218  msg.sender */\n      caller\n        /* \"shoot/2/整型溢出/1.sol\":4199:4219  balances[msg.sender] */\n      0xffffffffffffffffffffffffffffffffffffffff\n      and\n      0xffffffffffffffffffffffffffffffffffffffff\n      and\n      dup2\n      mstore\n      0x20\n      add\n      swap1\n      dup2\n      mstore\n      0x20\n      add\n      0x00\n      keccak256\n      0x00\n        /* \"shoot/2/整型溢出/1.sol\":4199:4222  balances[msg.sender]+=2 */\n      dup3\n      dup3\n      sload\n      add\n      swap3\n      pop\n      pop\n      dup2\n      swap1\n      sstore\n      pop\n        /* \"shoot/2/整型溢出/1.sol\":4105:4230  function airdrop() public {\r... */\n      jump\t// out\n        /* \"shoot/2/整型溢出/1.sol\":3585:4097  function transfers(address[] memory _receivers, uint256 amount)\r... */\n    tag_22:\n        /* \"shoot/2/整型溢出/1.sol\":3683:3687  bool */\n      0x00\n        /* \"shoot/2/整型溢出/1.sol\":3705:3716  uint256 cnt */\n      dup1\n        /* \"shoot/2/整型溢出/1.sol\":3719:3729  _receivers */\n      dup4\n        /* \"shoot/2/整型溢出/1.sol\":3719:3736  _receivers.length */\n      mload\n        /* \"shoot/2/整型溢出/1.sol\":3705:3736  uint256 cnt = _receivers.length */\n      swap1\n      pop\n        /* \"shoot/2/整型溢出/1.sol\":3747:3760  uint256 value */\n      0x00\n        /* \"shoot/2/整型溢出/1.sol\":3778:3784  amount */\n      dup4\n        /* \"shoot/2/整型溢出/1.sol\":3771:3774  cnt */\n      dup3\n        /* \"shoot/2/整型溢出/1.sol\":3763:3784  uint256(cnt) * amount */\n      mul\n        /* \"shoot/2/整型溢出/1.sol\":3747:3784  uint256 value = uint256(cnt) * amount */\n      swap1\n      pop\n        /* \"shoot/2/整型溢出/1.sol\":3811:3812  0 */\n      0x00\n        /* \"shoot/2/整型溢出/1.sol\":3805:3808  cnt */\n      dup3\n        /* \"shoot/2/整型溢出/1.sol\":3805:3812  cnt > 0 */\n      gt\n        /* \"shoot/2/整型溢出/1.sol\":3805:3825  cnt > 0 && cnt <= 20 */\n      dup1\n      iszero\n      tag_37\n      jumpi\n      pop\n        /* \"shoot/2/整型溢出/1.sol\":3823:3825  20 */\n      0x14\n        /* \"shoot/2/整型溢出/1.sol\":3816:3819  cnt */\n      dup3\n        /* \"shoot/2/整型溢出/1.sol\":3816:3825  cnt <= 20 */\n      gt\n      iszero\n        /* \"shoot/2/整型溢出/1.sol\":3805:3825  cnt > 0 && cnt <= 20 */\n    tag_37:\n        /* \"shoot/2/整型溢出/1.sol\":3797:3844  require(cnt > 0 && cnt <= 20,\"too long length\") */\n      tag_38\n      jumpi\n      mload(0x40)\n      0x08c379a000000000000000000000000000000000000000000000000000000000\n      dup2\n      mstore\n      0x04\n      add\n      dup1\n      dup1\n      0x20\n      add\n      dup3\n      dup2\n      sub\n      dup3\n      mstore\n      0x0f\n      dup2\n      mstore\n      0x20\n      add\n      dup1\n      0x746f6f206c6f6e67206c656e6774680000000000000000000000000000000000\n      dup2\n      mstore\n      pop\n      0x20\n      add\n      swap2\n      pop\n      pop\n      mload(0x40)\n      dup1\n      swap2\n      sub\n      swap1\n      revert\n    tag_38:\n        /* \"shoot/2/整型溢出/1.sol\":3872:3873  0 */\n      0x00\n        /* \"shoot/2/整型溢出/1.sol\":3863:3869  amount */\n      dup5\n        /* \"shoot/2/整型溢出/1.sol\":3863:3873  amount > 0 */\n      gt\n        /* \"shoot/2/整型溢出/1.sol\":3863:3906  amount > 0 && balances[msg.sender] >= value */\n      dup1\n      iszero\n      tag_39\n      jumpi\n      pop\n        /* \"shoot/2/整型溢出/1.sol\":3901:3906  value */\n      dup1\n        /* \"shoot/2/整型溢出/1.sol\":3877:3885  balances */\n      0x01\n        /* \"shoot/2/整型溢出/1.sol\":3877:3897  balances[msg.sender] */\n      0x00\n        /* \"shoot/2/整型溢出/1.sol\":3886:3896  msg.sender */\n      caller\n        /* \"shoot/2/整型溢出/1.sol\":3877:3897  balances[msg.sender] */\n      0xffffffffffffffffffffffffffffffffffffffff\n      and\n      0xffffffffffffffffffffffffffffffffffffffff\n      and\n      dup2\n      mstore\n      0x20\n      add\n      swap1\n      dup2\n      mstore\n      0x20\n      add\n      0x00\n      keccak256\n      sload\n        /* \"shoot/2/整型溢出/1.sol\":3877:3906  balances[msg.sender] >= value */\n      lt\n      iszero\n        /* \"shoot/2/整型溢出/1.sol\":3863:3906  amount > 0 && balances[msg.sender] >= value */\n    tag_39:\n        /* \"shoot/2/整型溢出/1.sol\":3855:3927  require(amount > 0 && balances[msg.sender] >= value,\"balance or amount\") */\n      tag_40\n      jumpi\n      mload(0x40)\n      0x08c379a000000000000000000000000000000000000000000000000000000000\n      dup2\n      mstore\n      0x04\n      add\n      dup1\n      dup1\n      0x20\n      add\n      dup3\n      dup2\n      sub\n      dup3\n      mstore\n      0x11\n      dup2\n      mstore\n      0x20\n      add\n      dup1\n      0x62616c616e6365206f7220616d6f756e74000000000000000000000000000000\n      dup2\n      mstore\n      pop\n      0x20\n      add\n      swap2\n      pop\n      pop\n      mload(0x40)\n      dup1\n      swap2\n      sub\n      swap1\n      revert\n    tag_40:\n        /* \"shoot/2/整型溢出/1.sol\":3960:3965  value */\n      dup1\n        /* \"shoot/2/整型溢出/1.sol\":3938:3946  balances */\n      0x01\n        /* \"shoot/2/整型溢出/1.sol\":3938:3958  balances[msg.sender] */\n      0x00\n        /* \"shoot/2/整型溢出/1.sol\":3947:3957  msg.sender */\n      caller\n        /* \"shoot/2/整型溢出/1.sol\":3938:3958  balances[msg.sender] */\n      0xffffffffffffffffffffffffffffffffffffffff\n      and\n      0xffffffffffffffffffffffffffffffffffffffff\n      and\n      dup2\n      mstore\n      0x20\n      add\n      swap1\n      dup2\n      mstore\n      0x20\n      add\n      0x00\n      keccak256\n      0x00\n        /* \"shoot/2/整型溢出/1.sol\":3938:3965  balances[msg.sender]-=value */\n      dup3\n      dup3\n      sload\n      sub\n      swap3\n      pop\n      pop\n      dup2\n      swap1\n      sstore\n      pop\n        /* \"shoot/2/整型溢出/1.sol\":3981:3990  uint256 i */\n      0x00\n        /* \"shoot/2/整型溢出/1.sol\":3976:4068  for (uint256 i = 0; i < cnt; i++) {\r... */\n    tag_41:\n        /* \"shoot/2/整型溢出/1.sol\":4000:4003  cnt */\n      dup3\n        /* \"shoot/2/整型溢出/1.sol\":3996:3997  i */\n      dup2\n        /* \"shoot/2/整型溢出/1.sol\":3996:4003  i < cnt */\n      lt\n        /* \"shoot/2/整型溢出/1.sol\":3976:4068  for (uint256 i = 0; i < cnt; i++) {\r... */\n      iszero\n      tag_42\n      jumpi\n        /* \"shoot/2/整型溢出/1.sol\":4050:4056  amount */\n      dup5\n        /* \"shoot/2/整型溢出/1.sol\":4025:4033  balances */\n      0x01\n        /* \"shoot/2/整型溢出/1.sol\":4025:4048  balances[_receivers[i]] */\n      0x00\n        /* \"shoot/2/整型溢出/1.sol\":4034:4044  _receivers */\n      dup9\n        /* \"shoot/2/整型溢出/1.sol\":4045:4046  i */\n      dup5\n        /* \"shoot/2/整型溢出/1.sol\":4034:4047  _receivers[i] */\n      dup2\n      mload\n      dup2\n      lt\n      tag_44\n      jumpi\n      invalid\n    tag_44:\n      0x20\n      mul\n      0x20\n      add\n      add\n      mload\n        /* \"shoot/2/整型溢出/1.sol\":4025:4048  balances[_receivers[i]] */\n      0xffffffffffffffffffffffffffffffffffffffff\n      and\n      0xffffffffffffffffffffffffffffffffffffffff\n      and\n      dup2\n      mstore\n      0x20\n      add\n      swap1\n      dup2\n      mstore\n      0x20\n      add\n      0x00\n      keccak256\n      0x00\n        /* \"shoot/2/整型溢出/1.sol\":4025:4056  balances[_receivers[i]]+=amount */\n      dup3\n      dup3\n      sload\n      add\n      swap3\n      pop\n      pop\n      dup2\n      swap1\n      sstore\n      pop\n        /* \"shoot/2/整型溢出/1.sol\":4005:4008  i++ */\n      dup1\n      dup1\n      0x01\n      add\n      swap2\n      pop\n      pop\n        /* \"shoot/2/整型溢出/1.sol\":3976:4068  for (uint256 i = 0; i < cnt; i++) {\r... */\n      jump(tag_41)\n    tag_42:\n      pop\n        /* \"shoot/2/整型溢出/1.sol\":4085:4089  true */\n      0x01\n        /* \"shoot/2/整型溢出/1.sol\":4078:4089  return true */\n      swap3\n      pop\n      pop\n      pop\n        /* \"shoot/2/整型溢出/1.sol\":3585:4097  function transfers(address[] memory _receivers, uint256 amount)\r... */\n      swap3\n      swap2\n      pop\n      pop\n      jump\t// out\n        /* \"shoot/2/整型溢出/1.sol\":3081:3342  function deposit(uint256 amount) public {\r... */\n    tag_25:\n        /* \"shoot/2/整型溢出/1.sol\":3132:3145  uint256 value */\n      0x00\n        /* \"shoot/2/整型溢出/1.sol\":3157:3165  decimals */\n      dup1\n      sload\n        /* \"shoot/2/整型溢出/1.sol\":3148:3154  amount */\n      dup3\n        /* \"shoot/2/整型溢出/1.sol\":3148:3165  amount * decimals */\n      mul\n        /* \"shoot/2/整型溢出/1.sol\":3132:3165  uint256 value = amount * decimals */\n      swap1\n      pop\n        /* \"shoot/2/整型溢出/1.sol\":3215:3220  value */\n      dup1\n        /* \"shoot/2/整型溢出/1.sol\":3184:3189  token */\n      0x02\n      0x01\n      swap1\n      sload\n      swap1\n      0x0100\n      exp\n      swap1\n      div\n      0xffffffffffffffffffffffffffffffffffffffff\n      and\n        /* \"shoot/2/整型溢出/1.sol\":3184:3199  token.balanceOf */\n      0xffffffffffffffffffffffffffffffffffffffff\n      and\n      0x70a08231\n        /* \"shoot/2/整型溢出/1.sol\":3200:3210  msg.sender */\n      caller\n        /* \"shoot/2/整型溢出/1.sol\":3184:3211  token.balanceOf(msg.sender) */\n      mload(0x40)\n      dup3\n      0xffffffff\n      and\n      0xe0\n      shl\n      dup2\n      mstore\n      0x04\n      add\n      dup1\n      dup3\n      0xffffffffffffffffffffffffffffffffffffffff\n      and\n      dup2\n      mstore\n      0x20\n      add\n      swap2\n      pop\n      pop\n      0x20\n      mload(0x40)\n      dup1\n      dup4\n      sub\n      dup2\n      dup7\n      dup1\n      extcodesize\n      iszero\n      dup1\n      iszero\n      tag_46\n      jumpi\n      0x00\n      dup1\n      revert\n    tag_46:\n      pop\n      gas\n      staticcall\n      iszero\n      dup1\n      iszero\n      tag_48\n      jumpi\n      returndatasize\n      0x00\n      dup1\n      returndatacopy\n      revert(0x00, returndatasize)\n    tag_48:\n      pop\n      pop\n      pop\n      pop\n      mload(0x40)\n      returndatasize\n      0x20\n      dup2\n      lt\n      iszero\n      tag_49\n      jumpi\n      0x00\n      dup1\n      revert\n    tag_49:\n      dup2\n      add\n      swap1\n      dup1\n      dup1\n      mload\n      swap1\n      0x20\n      add\n      swap1\n      swap3\n      swap2\n      swap1\n      pop\n      pop\n      pop\n        /* \"shoot/2/整型溢出/1.sol\":3184:3220  token.balanceOf(msg.sender) >= value */\n      lt\n      iszero\n        /* \"shoot/2/整型溢出/1.sol\":3176:3221  require(token.balanceOf(msg.sender) >= value) */\n      tag_50\n      jumpi\n      0x00\n      dup1\n      revert\n    tag_50:\n        /* \"shoot/2/整型溢出/1.sol\":3240:3245  token */\n      0x02\n      0x01\n      swap1\n      sload\n      swap1\n      0x0100\n      exp\n      swap1\n      div\n      0xffffffffffffffffffffffffffffffffffffffff\n      and\n        /* \"shoot/2/整型溢出/1.sol\":3240:3258  token.transferFrom */\n      0xffffffffffffffffffffffffffffffffffffffff\n      and\n      0x23b872dd\n        /* \"shoot/2/整型溢出/1.sol\":3259:3269  msg.sender */\n      caller\n        /* \"shoot/2/整型溢出/1.sol\":3279:3283  this */\n      address\n        /* \"shoot/2/整型溢出/1.sol\":3286:3291  value */\n      dup5\n        /* \"shoot/2/整型溢出/1.sol\":3240:3292  token.transferFrom(msg.sender, address(this), value) */\n      mload(0x40)\n      dup5\n      0xffffffff\n      and\n      0xe0\n      shl\n      dup2\n      mstore\n      0x04\n      add\n      dup1\n      dup5\n      0xffffffffffffffffffffffffffffffffffffffff\n      and\n      dup2\n      mstore\n      0x20\n      add\n      dup4\n      0xffffffffffffffffffffffffffffffffffffffff\n      and\n      dup2\n      mstore\n      0x20\n      add\n      dup3\n      dup2\n      mstore\n      0x20\n      add\n      swap4\n      pop\n      pop\n      pop\n      pop\n      0x20\n      mload(0x40)\n      dup1\n      dup4\n      sub\n      dup2\n      0x00\n      dup8\n      dup1\n      extcodesize\n      iszero\n      dup1\n      iszero\n      tag_51\n      jumpi\n      0x00\n      dup1\n      revert\n    tag_51:\n      pop\n      gas\n      call\n      iszero\n      dup1\n      iszero\n      tag_53\n      jumpi\n      returndatasize\n      0x00\n      dup1\n      returndatacopy\n      revert(0x00, returndatasize)\n    tag_53:\n      pop\n      pop\n      pop\n      pop\n      mload(0x40)\n      returndatasize\n      0x20\n      dup2\n      lt\n      iszero\n      tag_54\n      jumpi\n      0x00\n      dup1\n      revert\n    tag_54:\n      dup2\n      add\n      swap1\n      dup1\n      dup1\n      mload\n      swap1\n      0x20\n      add\n      swap1\n      swap3\n      swap2\n      swap1\n      pop\n      pop\n      pop\n        /* \"shoot/2/整型溢出/1.sol\":3232:3293  require(token.transferFrom(msg.sender, address(this), value)) */\n      tag_55\n      jumpi\n      0x00\n      dup1\n      revert\n    tag_55:\n        /* \"shoot/2/整型溢出/1.sol\":3328:3334  amount */\n      dup2\n        /* \"shoot/2/整型溢出/1.sol\":3304:3312  balances */\n      0x01\n        /* \"shoot/2/整型溢出/1.sol\":3304:3324  balances[msg.sender] */\n      0x00\n        /* \"shoot/2/整型溢出/1.sol\":3313:3323  msg.sender */\n      caller\n        /* \"shoot/2/整型溢出/1.sol\":3304:3324  balances[msg.sender] */\n      0xffffffffffffffffffffffffffffffffffffffff\n      and\n      0xffffffffffffffffffffffffffffffffffffffff\n      and\n      dup2\n      mstore\n      0x20\n      add\n      swap1\n      dup2\n      mstore\n      0x20\n      add\n      0x00\n      keccak256\n      0x00\n        /* \"shoot/2/整型溢出/1.sol\":3304:3334  balances[msg.sender] += amount */\n      dup3\n      dup3\n      sload\n      add\n      swap3\n      pop\n      pop\n      dup2\n      swap1\n      sstore\n      pop\n        /* \"shoot/2/整型溢出/1.sol\":3081:3342  function deposit(uint256 amount) public {\r... */\n      pop\n      pop\n      jump\t// out\n        /* \"shoot/2/整型溢出/1.sol\":3040:3072  ERC20 public token = new ERC20() */\n    tag_27:\n      0x02\n      0x01\n      swap1\n      sload\n      swap1\n      0x0100\n      exp\n      swap1\n      div\n      0xffffffffffffffffffffffffffffffffffffffff\n      and\n      dup2\n      jump\t// out\n\n    auxdata: 0xa26469706673582212206d65cccbc22668eae583edb65a9dfd0ea93d0422c40bcabd31cdea876abaa4c464736f6c634300060c0033\n}\n\nsub_1: assembly {\n        /* \"shoot/2/整型溢出/1.sol\":905:2908  contract ERC20 is IERC20 {\r... */\n      mstore(0x40, 0x80)\n        /* \"shoot/2/整型溢出/1.sol\":1199:1211  500000 ether */\n      0x69e10de76676d0800000\n        /* \"shoot/2/整型溢出/1.sol\":1176:1211  uint256 totalSupply_ = 500000 ether */\n      0x02\n      sstore\n        /* \"shoot/2/整型溢出/1.sol\":1220:1295  constructor() public {\r... */\n      callvalue\n      dup1\n      iszero\n      tag_1\n      jumpi\n      0x00\n      dup1\n      revert\n    tag_1:\n      pop\n        /* \"shoot/2/整型溢出/1.sol\":1275:1287  totalSupply_ */\n      sload(0x02)\n        /* \"shoot/2/整型溢出/1.sol\":1252:1260  balances */\n      0x00\n        /* \"shoot/2/整型溢出/1.sol\":1252:1272  balances[msg.sender] */\n      dup1\n        /* \"shoot/2/整型溢出/1.sol\":1261:1271  msg.sender */\n      caller\n        /* \"shoot/2/整型溢出/1.sol\":1252:1272  balances[msg.sender] */\n      0xffffffffffffffffffffffffffffffffffffffff\n      and\n      0xffffffffffffffffffffffffffffffffffffffff\n      and\n      dup2\n      mstore\n      0x20\n      add\n      swap1\n      dup2\n      mstore\n      0x20\n      add\n      0x00\n      keccak256\n        /* \"shoot/2/整型溢出/1.sol\":1252:1287  balances[msg.sender] = totalSupply_ */\n      dup2\n      swap1\n      sstore\n      pop\n        /* \"shoot/2/整型溢出/1.sol\":905:2908  contract ERC20 is IERC20 {\r... */\n      dataSize(sub_0)\n      dup1\n      dataOffset(sub_0)\n      0x00\n      codecopy\n      0x00\n      return\n    stop\n\n    sub_0: assembly {\n            /* \"shoot/2/整型溢出/1.sol\":905:2908  contract ERC20 is IERC20 {\r... */\n          mstore(0x40, 0x80)\n          callvalue\n          dup1\n          iszero\n          tag_1\n          jumpi\n          0x00\n          dup1\n          revert\n        tag_1:\n          pop\n          jumpi(tag_2, lt(calldatasize, 0x04))\n          shr(0xe0, calldataload(0x00))\n          dup1\n          0x313ce567\n          gt\n          tag_12\n          jumpi\n          dup1\n          0x313ce567\n          eq\n          tag_7\n          jumpi\n          dup1\n          0x70a08231\n          eq\n          tag_8\n          jumpi\n          dup1\n          0x95d89b41\n          eq\n          tag_9\n          jumpi\n          dup1\n          0xa9059cbb\n          eq\n          tag_10\n          jumpi\n          dup1\n          0xdd62ed3e\n          eq\n          tag_11\n          jumpi\n          jump(tag_2)\n        tag_12:\n          dup1\n          0x06fdde03\n          eq\n          tag_3\n          jumpi\n          dup1\n          0x095ea7b3\n          eq\n          tag_4\n          jumpi\n          dup1\n          0x18160ddd\n          eq\n          tag_5\n          jumpi\n          dup1\n          0x23b872dd\n          eq\n          tag_6\n          jumpi\n        tag_2:\n          0x00\n          dup1\n          revert\n            /* \"shoot/2/整型溢出/1.sol\":937:974  string public constant name = \"ERC20\" */\n        tag_3:\n          tag_13\n          tag_14\n          jump\t// in\n        tag_13:\n          mload(0x40)\n          dup1\n          dup1\n          0x20\n          add\n          dup3\n          dup2\n          sub\n          dup3\n          mstore\n          dup4\n          dup2\n          dup2\n          mload\n          dup2\n          mstore\n          0x20\n          add\n          swap2\n          pop\n          dup1\n          mload\n          swap1\n          0x20\n          add\n          swap1\n          dup1\n          dup4\n          dup4\n          0x00\n        tag_15:\n          dup4\n          dup2\n          lt\n          iszero\n          tag_17\n          jumpi\n          dup1\n          dup3\n          add\n          mload\n          dup2\n          dup5\n          add\n          mstore\n          0x20\n          dup2\n          add\n          swap1\n          pop\n          jump(tag_15)\n        tag_17:\n          pop\n          pop\n          pop\n          pop\n          swap1\n          pop\n          swap1\n          dup2\n          add\n          swap1\n          0x1f\n          and\n          dup1\n          iszero\n          tag_18\n          jumpi\n          dup1\n          dup3\n          sub\n          dup1\n          mload\n          0x01\n          dup4\n          0x20\n          sub\n          0x0100\n          exp\n          sub\n          not\n          and\n          dup2\n          mstore\n          0x20\n          add\n          swap2\n          pop\n        tag_18:\n          pop\n          swap3\n          pop\n          pop\n          pop\n          mload(0x40)\n          dup1\n          swap2\n          sub\n          swap1\n          return\n            /* \"shoot/2/整型溢出/1.sol\":1937:2193  function approve(address delegate, uint256 numTokens)\r... */\n        tag_4:\n          tag_19\n          0x04\n          dup1\n          calldatasize\n          sub\n          0x40\n          dup2\n          lt\n          iszero\n          tag_20\n          jumpi\n          0x00\n          dup1\n          revert\n        tag_20:\n          dup2\n          add\n          swap1\n          dup1\n          dup1\n          calldataload\n          0xffffffffffffffffffffffffffffffffffffffff\n          and\n          swap1\n          0x20\n          add\n          swap1\n          swap3\n          swap2\n          swap1\n          dup1\n          calldataload\n          swap1\n          0x20\n          add\n          swap1\n          swap3\n          swap2\n          swap1\n          pop\n          pop\n          pop\n          tag_21\n          jump\t// in\n        tag_19:\n          mload(0x40)\n          dup1\n          dup3\n          iszero\n          iszero\n          dup2\n          mstore\n          0x20\n          add\n          swap2\n          pop\n          pop\n          mload(0x40)\n          dup1\n          swap2\n          sub\n          swap1\n          return\n            /* \"shoot/2/整型溢出/1.sol\":1303:1403  function totalSupply() public override view returns (uint256) {\r... */\n        tag_5:\n          tag_22\n          tag_23\n          jump\t// in\n        tag_22:\n          mload(0x40)\n          dup1\n          dup3\n          dup2\n          mstore\n          0x20\n          add\n          swap2\n          pop\n          pop\n          mload(0x40)\n          dup1\n          swap2\n          sub\n          swap1\n          return\n            /* \"shoot/2/整型溢出/1.sol\":2391:2905  function transferFrom(\r... */\n        tag_6:\n          tag_24\n          0x04\n          dup1\n          calldatasize\n          sub\n          0x60\n          dup2\n          lt\n          iszero\n          tag_25\n          jumpi\n          0x00\n          dup1\n          revert\n        tag_25:\n          dup2\n          add\n          swap1\n          dup1\n          dup1\n          calldataload\n          0xffffffffffffffffffffffffffffffffffffffff\n          and\n          swap1\n          0x20\n          add\n          swap1\n          swap3\n          swap2\n          swap1\n          dup1\n          calldataload\n          0xffffffffffffffffffffffffffffffffffffffff\n          and\n          swap1\n          0x20\n          add\n          swap1\n          swap3\n          swap2\n          swap1\n          dup1\n          calldataload\n          swap1\n          0x20\n          add\n          swap1\n          swap3\n          swap2\n          swap1\n          pop\n          pop\n          pop\n          tag_26\n          jump\t// in\n        tag_24:\n          mload(0x40)\n          dup1\n          dup3\n          iszero\n          iszero\n          dup2\n          mstore\n          0x20\n          add\n          swap2\n          pop\n          pop\n          mload(0x40)\n          dup1\n          swap2\n          sub\n          swap1\n          return\n            /* \"shoot/2/整型溢出/1.sol\":1025:1060  uint8 public constant decimals = 18 */\n        tag_7:\n          tag_27\n          tag_28\n          jump\t// in\n        tag_27:\n          mload(0x40)\n          dup1\n          dup3\n          0xff\n          and\n          dup2\n          mstore\n          0x20\n          add\n          swap2\n          pop\n          pop\n          mload(0x40)\n          dup1\n          swap2\n          sub\n          swap1\n          return\n            /* \"shoot/2/整型溢出/1.sol\":1411:1535  function balanceOf(address tokenOwner) public override view returns (uint256) {\r... */\n        tag_8:\n          tag_29\n          0x04\n          dup1\n          calldatasize\n          sub\n          0x20\n          dup2\n          lt\n          iszero\n          tag_30\n          jumpi\n          0x00\n          dup1\n          revert\n        tag_30:\n          dup2\n          add\n          swap1\n          dup1\n          dup1\n          calldataload\n          0xffffffffffffffffffffffffffffffffffffffff\n          and\n          swap1\n          0x20\n          add\n          swap1\n          swap3\n          swap2\n          swap1\n          pop\n          pop\n          pop\n          tag_31\n          jump\t// in\n        tag_29:\n          mload(0x40)\n          dup1\n          dup3\n          dup2\n          mstore\n          0x20\n          add\n          swap2\n          pop\n          pop\n          mload(0x40)\n          dup1\n          swap2\n          sub\n          swap1\n          return\n            /* \"shoot/2/整型溢出/1.sol\":981:1018  string public constant symbol = \"ERC\" */\n        tag_9:\n          tag_32\n          tag_33\n          jump\t// in\n        tag_32:\n          mload(0x40)\n          dup1\n          dup1\n          0x20\n          add\n          dup3\n          dup2\n          sub\n          dup3\n          mstore\n          dup4\n          dup2\n          dup2\n          mload\n          dup2\n          mstore\n          0x20\n          add\n          swap2\n          pop\n          dup1\n          mload\n          swap1\n          0x20\n          add\n          swap1\n          dup1\n          dup4\n          dup4\n          0x00\n        tag_34:\n          dup4\n          dup2\n          lt\n          iszero\n          tag_36\n          jumpi\n          dup1\n          dup3\n          add\n          mload\n          dup2\n          dup5\n          add\n          mstore\n          0x20\n          dup2\n          add\n          swap1\n          pop\n          jump(tag_34)\n        tag_36:\n          pop\n          pop\n          pop\n          pop\n          swap1\n          pop\n          swap1\n          dup2\n          add\n          swap1\n          0x1f\n          and\n          dup1\n          iszero\n          tag_37\n          jumpi\n          dup1\n          dup3\n          sub\n          dup1\n          mload\n          0x01\n          dup4\n          0x20\n          sub\n          0x0100\n          exp\n          sub\n          not\n          and\n          dup2\n          mstore\n          0x20\n          add\n          swap2\n          pop\n        tag_37:\n          pop\n          swap3\n          pop\n          pop\n          pop\n          mload(0x40)\n          dup1\n          swap2\n          sub\n          swap1\n          return\n            /* \"shoot/2/整型溢出/1.sol\":1543:1929  function transfer(address receiver, uint256 numTokens)\r... */\n        tag_10:\n          tag_38\n          0x04\n          dup1\n          calldatasize\n          sub\n          0x40\n          dup2\n          lt\n          iszero\n          tag_39\n          jumpi\n          0x00\n          dup1\n          revert\n        tag_39:\n          dup2\n          add\n          swap1\n          dup1\n          dup1\n          calldataload\n          0xffffffffffffffffffffffffffffffffffffffff\n          and\n          swap1\n          0x20\n          add\n          swap1\n          swap3\n          swap2\n          swap1\n          dup1\n          calldataload\n          swap1\n          0x20\n          add\n          swap1\n          swap3\n          swap2\n          swap1\n          pop\n          pop\n          pop\n          tag_40\n          jump\t// in\n        tag_38:\n          mload(0x40)\n          dup1\n          dup3\n          iszero\n          iszero\n          dup2\n          mstore\n          0x20\n          add\n          swap2\n          pop\n          pop\n          mload(0x40)\n          dup1\n          swap2\n          sub\n          swap1\n          return\n            /* \"shoot/2/整型溢出/1.sol\":2201:2383  function allowance(address owner, address delegate)\r... */\n        tag_11:\n          tag_41\n          0x04\n          dup1\n          calldatasize\n          sub\n          0x40\n          dup2\n          lt\n          iszero\n          tag_42\n          jumpi\n          0x00\n          dup1\n          revert\n        tag_42:\n          dup2\n          add\n          swap1\n          dup1\n          dup1\n          calldataload\n          0xffffffffffffffffffffffffffffffffffffffff\n          and\n          swap1\n          0x20\n          add\n          swap1\n          swap3\n          swap2\n          swap1\n          dup1\n          calldataload\n          0xffffffffffffffffffffffffffffffffffffffff\n          and\n          swap1\n          0x20\n          add\n          swap1\n          swap3\n          swap2\n          swap1\n          pop\n          pop\n          pop\n          tag_43\n          jump\t// in\n        tag_41:\n          mload(0x40)\n          dup1\n          dup3\n          dup2\n          mstore\n          0x20\n          add\n          swap2\n          pop\n          pop\n          mload(0x40)\n          dup1\n          swap2\n          sub\n          swap1\n          return\n            /* \"shoot/2/整型溢出/1.sol\":937:974  string public constant name = \"ERC20\" */\n        tag_14:\n          mload(0x40)\n          dup1\n          0x40\n          add\n          0x40\n          mstore\n          dup1\n          0x05\n          dup2\n          mstore\n          0x20\n          add\n          0x4552433230000000000000000000000000000000000000000000000000000000\n          dup2\n          mstore\n          pop\n          dup2\n          jump\t// out\n            /* \"shoot/2/整型溢出/1.sol\":1937:2193  function approve(address delegate, uint256 numTokens)\r... */\n        tag_21:\n            /* \"shoot/2/整型溢出/1.sol\":2043:2047  bool */\n          0x00\n            /* \"shoot/2/整型溢出/1.sol\":2097:2106  numTokens */\n          dup2\n            /* \"shoot/2/整型溢出/1.sol\":2065:2072  allowed */\n          0x01\n            /* \"shoot/2/整型溢出/1.sol\":2065:2084  allowed[msg.sender] */\n          0x00\n            /* \"shoot/2/整型溢出/1.sol\":2073:2083  msg.sender */\n          caller\n            /* \"shoot/2/整型溢出/1.sol\":2065:2084  allowed[msg.sender] */\n          0xffffffffffffffffffffffffffffffffffffffff\n          and\n          0xffffffffffffffffffffffffffffffffffffffff\n          and\n          dup2\n          mstore\n          0x20\n          add\n          swap1\n          dup2\n          mstore\n          0x20\n          add\n          0x00\n          keccak256\n            /* \"shoot/2/整型溢出/1.sol\":2065:2094  allowed[msg.sender][delegate] */\n          0x00\n            /* \"shoot/2/整型溢出/1.sol\":2085:2093  delegate */\n          dup6\n            /* \"shoot/2/整型溢出/1.sol\":2065:2094  allowed[msg.sender][delegate] */\n          0xffffffffffffffffffffffffffffffffffffffff\n          and\n          0xffffffffffffffffffffffffffffffffffffffff\n          and\n          dup2\n          mstore\n          0x20\n          add\n          swap1\n          dup2\n          mstore\n          0x20\n          add\n          0x00\n          keccak256\n            /* \"shoot/2/整型溢出/1.sol\":2065:2106  allowed[msg.sender][delegate] = numTokens */\n          dup2\n          swap1\n          sstore\n          pop\n            /* \"shoot/2/整型溢出/1.sol\":2143:2151  delegate */\n          dup3\n            /* \"shoot/2/整型溢出/1.sol\":2122:2163  Approval(msg.sender, delegate, numTokens) */\n          0xffffffffffffffffffffffffffffffffffffffff\n          and\n            /* \"shoot/2/整型溢出/1.sol\":2131:2141  msg.sender */\n          caller\n            /* \"shoot/2/整型溢出/1.sol\":2122:2163  Approval(msg.sender, delegate, numTokens) */\n          0xffffffffffffffffffffffffffffffffffffffff\n          and\n          0x8c5be1e5ebec7d5bd14f71427d1e84f3dd0314c0f7b2291e5b200ac8c7c3b925\n            /* \"shoot/2/整型溢出/1.sol\":2153:2162  numTokens */\n          dup5\n            /* \"shoot/2/整型溢出/1.sol\":2122:2163  Approval(msg.sender, delegate, numTokens) */\n          mload(0x40)\n          dup1\n          dup3\n          dup2\n          mstore\n          0x20\n          add\n          swap2\n          pop\n          pop\n          mload(0x40)\n          dup1\n          swap2\n          sub\n          swap1\n          log3\n            /* \"shoot/2/整型溢出/1.sol\":2181:2185  true */\n          0x01\n            /* \"shoot/2/整型溢出/1.sol\":2174:2185  return true */\n          swap1\n          pop\n            /* \"shoot/2/整型溢出/1.sol\":1937:2193  function approve(address delegate, uint256 numTokens)\r... */\n          swap3\n          swap2\n          pop\n          pop\n          jump\t// out\n            /* \"shoot/2/整型溢出/1.sol\":1303:1403  function totalSupply() public override view returns (uint256) {\r... */\n        tag_23:\n            /* \"shoot/2/整型溢出/1.sol\":1356:1363  uint256 */\n          0x00\n            /* \"shoot/2/整型溢出/1.sol\":1383:1395  totalSupply_ */\n          sload(0x02)\n            /* \"shoot/2/整型溢出/1.sol\":1376:1395  return totalSupply_ */\n          swap1\n          pop\n            /* \"shoot/2/整型溢出/1.sol\":1303:1403  function totalSupply() public override view returns (uint256) {\r... */\n          swap1\n          jump\t// out\n            /* \"shoot/2/整型溢出/1.sol\":2391:2905  function transferFrom(\r... */\n        tag_26:\n            /* \"shoot/2/整型溢出/1.sol\":2521:2525  bool */\n          0x00\n            /* \"shoot/2/整型溢出/1.sol\":2559:2567  balances */\n          dup1\n            /* \"shoot/2/整型溢出/1.sol\":2559:2574  balances[owner] */\n          0x00\n            /* \"shoot/2/整型溢出/1.sol\":2568:2573  owner */\n          dup6\n            /* \"shoot/2/整型溢出/1.sol\":2559:2574  balances[owner] */\n          0xffffffffffffffffffffffffffffffffffffffff\n          and\n          0xffffffffffffffffffffffffffffffffffffffff\n          and\n          dup2\n          mstore\n          0x20\n          add\n          swap1\n          dup2\n          mstore\n          0x20\n          add\n          0x00\n          keccak256\n          sload\n            /* \"shoot/2/整型溢出/1.sol\":2546:2555  numTokens */\n          dup3\n            /* \"shoot/2/整型溢出/1.sol\":2546:2574  numTokens <= balances[owner] */\n          gt\n          iszero\n            /* \"shoot/2/整型溢出/1.sol\":2538:2575  require(numTokens <= balances[owner]) */\n          tag_47\n          jumpi\n          0x00\n          dup1\n          revert\n        tag_47:\n            /* \"shoot/2/整型溢出/1.sol\":2607:2614  allowed */\n          0x01\n            /* \"shoot/2/整型溢出/1.sol\":2607:2621  allowed[owner] */\n          0x00\n            /* \"shoot/2/整型溢出/1.sol\":2615:2620  owner */\n          dup6\n            /* \"shoot/2/整型溢出/1.sol\":2607:2621  allowed[owner] */\n          0xffffffffffffffffffffffffffffffffffffffff\n          and\n          0xffffffffffffffffffffffffffffffffffffffff\n          and\n          dup2\n          mstore\n          0x20\n          add\n          swap1\n          dup2\n          mstore\n          0x20\n          add\n          0x00\n          keccak256\n            /* \"shoot/2/整型溢出/1.sol\":2607:2633  allowed[owner][msg.sender] */\n          0x00\n            /* \"shoot/2/整型溢出/1.sol\":2622:2632  msg.sender */\n          caller\n            /* \"shoot/2/整型溢出/1.sol\":2607:2633  allowed[owner][msg.sender] */\n          0xffffffffffffffffffffffffffffffffffffffff\n          and\n          0xffffffffffffffffffffffffffffffffffffffff\n          and\n          dup2\n          mstore\n          0x20\n          add\n          swap1\n          dup2\n          mstore\n          0x20\n          add\n          0x00\n          keccak256\n          sload\n            /* \"shoot/2/整型溢出/1.sol\":2594:2603  numTokens */\n          dup3\n            /* \"shoot/2/整型溢出/1.sol\":2594:2633  numTokens <= allowed[owner][msg.sender] */\n          gt\n          iszero\n            /* \"shoot/2/整型溢出/1.sol\":2586:2634  require(numTokens <= allowed[owner][msg.sender]) */\n          tag_48\n          jumpi\n          0x00\n          dup1\n          revert\n        tag_48:\n            /* \"shoot/2/整型溢出/1.sol\":2683:2692  numTokens */\n          dup2\n            /* \"shoot/2/整型溢出/1.sol\":2665:2673  balances */\n          0x00\n            /* \"shoot/2/整型溢出/1.sol\":2665:2680  balances[owner] */\n          dup1\n            /* \"shoot/2/整型溢出/1.sol\":2674:2679  owner */\n          dup7\n            /* \"shoot/2/整型溢出/1.sol\":2665:2680  balances[owner] */\n          0xffffffffffffffffffffffffffffffffffffffff\n          and\n          0xffffffffffffffffffffffffffffffffffffffff\n          and\n          dup2\n          mstore\n          0x20\n          add\n          swap1\n          dup2\n          mstore\n          0x20\n          add\n          0x00\n          keccak256\n          sload\n            /* \"shoot/2/整型溢出/1.sol\":2665:2692  balances[owner] - numTokens */\n          sub\n            /* \"shoot/2/整型溢出/1.sol\":2647:2655  balances */\n          0x00\n            /* \"shoot/2/整型溢出/1.sol\":2647:2662  balances[owner] */\n          dup1\n            /* \"shoot/2/整型溢出/1.sol\":2656:2661  owner */\n          dup7\n            /* \"shoot/2/整型溢出/1.sol\":2647:2662  balances[owner] */\n          0xffffffffffffffffffffffffffffffffffffffff\n          and\n          0xffffffffffffffffffffffffffffffffffffffff\n          and\n          dup2\n          mstore\n          0x20\n          add\n          swap1\n          dup2\n          mstore\n          0x20\n          add\n          0x00\n          keccak256\n            /* \"shoot/2/整型溢出/1.sol\":2647:2692  balances[owner] = balances[owner] - numTokens */\n          dup2\n          swap1\n          sstore\n          pop\n            /* \"shoot/2/整型溢出/1.sol\":2761:2770  numTokens */\n          dup2\n            /* \"shoot/2/整型溢出/1.sol\":2732:2739  allowed */\n          0x01\n            /* \"shoot/2/整型溢出/1.sol\":2732:2746  allowed[owner] */\n          0x00\n            /* \"shoot/2/整型溢出/1.sol\":2740:2745  owner */\n          dup7\n            /* \"shoot/2/整型溢出/1.sol\":2732:2746  allowed[owner] */\n          0xffffffffffffffffffffffffffffffffffffffff\n          and\n          0xffffffffffffffffffffffffffffffffffffffff\n          and\n          dup2\n          mstore\n          0x20\n          add\n          swap1\n          dup2\n          mstore\n          0x20\n          add\n          0x00\n          keccak256\n            /* \"shoot/2/整型溢出/1.sol\":2732:2758  allowed[owner][msg.sender] */\n          0x00\n            /* \"shoot/2/整型溢出/1.sol\":2747:2757  msg.sender */\n          caller\n            /* \"shoot/2/整型溢出/1.sol\":2732:2758  allowed[owner][msg.sender] */\n          0xffffffffffffffffffffffffffffffffffffffff\n          and\n          0xffffffffffffffffffffffffffffffffffffffff\n          and\n          dup2\n          mstore\n          0x20\n          add\n          swap1\n          dup2\n          mstore\n          0x20\n          add\n          0x00\n          keccak256\n          sload\n            /* \"shoot/2/整型溢出/1.sol\":2732:2770  allowed[owner][msg.sender] - numTokens */\n          sub\n            /* \"shoot/2/整型溢出/1.sol\":2703:2710  allowed */\n          0x01\n            /* \"shoot/2/整型溢出/1.sol\":2703:2717  allowed[owner] */\n          0x00\n            /* \"shoot/2/整型溢出/1.sol\":2711:2716  owner */\n          dup7\n            /* \"shoot/2/整型溢出/1.sol\":2703:2717  allowed[owner] */\n          0xffffffffffffffffffffffffffffffffffffffff\n          and\n          0xffffffffffffffffffffffffffffffffffffffff\n          and\n          dup2\n          mstore\n          0x20\n          add\n          swap1\n          dup2\n          mstore\n          0x20\n          add\n          0x00\n          keccak256\n            /* \"shoot/2/整型溢出/1.sol\":2703:2729  allowed[owner][msg.sender] */\n          0x00\n            /* \"shoot/2/整型溢出/1.sol\":2718:2728  msg.sender */\n          caller\n            /* \"shoot/2/整型溢出/1.sol\":2703:2729  allowed[owner][msg.sender] */\n          0xffffffffffffffffffffffffffffffffffffffff\n          and\n          0xffffffffffffffffffffffffffffffffffffffff\n          and\n          dup2\n          mstore\n          0x20\n          add\n          swap1\n          dup2\n          mstore\n          0x20\n          add\n          0x00\n          keccak256\n            /* \"shoot/2/整型溢出/1.sol\":2703:2770  allowed[owner][msg.sender] = allowed[owner][msg.sender] - numTokens */\n          dup2\n          swap1\n          sstore\n          pop\n            /* \"shoot/2/整型溢出/1.sol\":2817:2826  numTokens */\n          dup2\n            /* \"shoot/2/整型溢出/1.sol\":2799:2807  balances */\n          0x00\n            /* \"shoot/2/整型溢出/1.sol\":2799:2814  balances[buyer] */\n          dup1\n            /* \"shoot/2/整型溢出/1.sol\":2808:2813  buyer */\n          dup6\n            /* \"shoot/2/整型溢出/1.sol\":2799:2814  balances[buyer] */\n          0xffffffffffffffffffffffffffffffffffffffff\n          and\n          0xffffffffffffffffffffffffffffffffffffffff\n          and\n          dup2\n          mstore\n          0x20\n          add\n          swap1\n          dup2\n          mstore\n          0x20\n          add\n          0x00\n          keccak256\n          sload\n            /* \"shoot/2/整型溢出/1.sol\":2799:2826  balances[buyer] + numTokens */\n          add\n            /* \"shoot/2/整型溢出/1.sol\":2781:2789  balances */\n          0x00\n            /* \"shoot/2/整型溢出/1.sol\":2781:2796  balances[buyer] */\n          dup1\n            /* \"shoot/2/整型溢出/1.sol\":2790:2795  buyer */\n          dup6\n            /* \"shoot/2/整型溢出/1.sol\":2781:2796  balances[buyer] */\n          0xffffffffffffffffffffffffffffffffffffffff\n          and\n          0xffffffffffffffffffffffffffffffffffffffff\n          and\n          dup2\n          mstore\n          0x20\n          add\n          swap1\n          dup2\n          mstore\n          0x20\n          add\n          0x00\n          keccak256\n            /* \"shoot/2/整型溢出/1.sol\":2781:2826  balances[buyer] = balances[buyer] + numTokens */\n          dup2\n          swap1\n          sstore\n          pop\n            /* \"shoot/2/整型溢出/1.sol\":2858:2863  buyer */\n          dup3\n            /* \"shoot/2/整型溢出/1.sol\":2842:2875  Transfer(owner, buyer, numTokens) */\n          0xffffffffffffffffffffffffffffffffffffffff\n          and\n            /* \"shoot/2/整型溢出/1.sol\":2851:2856  owner */\n          dup5\n            /* \"shoot/2/整型溢出/1.sol\":2842:2875  Transfer(owner, buyer, numTokens) */\n          0xffffffffffffffffffffffffffffffffffffffff\n          and\n          0xddf252ad1be2c89b69c2b068fc378daa952ba7f163c4a11628f55a4df523b3ef\n            /* \"shoot/2/整型溢出/1.sol\":2865:2874  numTokens */\n          dup5\n            /* \"shoot/2/整型溢出/1.sol\":2842:2875  Transfer(owner, buyer, numTokens) */\n          mload(0x40)\n          dup1\n          dup3\n          dup2\n          mstore\n          0x20\n          add\n          swap2\n          pop\n          pop\n          mload(0x40)\n          dup1\n          swap2\n          sub\n          swap1\n          log3\n            /* \"shoot/2/整型溢出/1.sol\":2893:2897  true */\n          0x01\n            /* \"shoot/2/整型溢出/1.sol\":2886:2897  return true */\n          swap1\n          pop\n            /* \"shoot/2/整型溢出/1.sol\":2391:2905  function transferFrom(\r... */\n          swap4\n          swap3\n          pop\n          pop\n          pop\n          jump\t// out\n            /* \"shoot/2/整型溢出/1.sol\":1025:1060  uint8 public constant decimals = 18 */\n        tag_28:\n            /* \"shoot/2/整型溢出/1.sol\":1058:1060  18 */\n          0x12\n            /* \"shoot/2/整型溢出/1.sol\":1025:1060  uint8 public constant decimals = 18 */\n          dup2\n          jump\t// out\n            /* \"shoot/2/整型溢出/1.sol\":1411:1535  function balanceOf(address tokenOwner) public override view returns (uint256) {\r... */\n        tag_31:\n            /* \"shoot/2/整型溢出/1.sol\":1480:1487  uint256 */\n          0x00\n            /* \"shoot/2/整型溢出/1.sol\":1507:1515  balances */\n          dup1\n            /* \"shoot/2/整型溢出/1.sol\":1507:1527  balances[tokenOwner] */\n          0x00\n            /* \"shoot/2/整型溢出/1.sol\":1516:1526  tokenOwner */\n          dup4\n            /* \"shoot/2/整型溢出/1.sol\":1507:1527  balances[tokenOwner] */\n          0xffffffffffffffffffffffffffffffffffffffff\n          and\n          0xffffffffffffffffffffffffffffffffffffffff\n          and\n          dup2\n          mstore\n          0x20\n          add\n          swap1\n          dup2\n          mstore\n          0x20\n          add\n          0x00\n          keccak256\n          sload\n            /* \"shoot/2/整型溢出/1.sol\":1500:1527  return balances[tokenOwner] */\n          swap1\n          pop\n            /* \"shoot/2/整型溢出/1.sol\":1411:1535  function balanceOf(address tokenOwner) public override view returns (uint256) {\r... */\n          swap2\n          swap1\n          pop\n          jump\t// out\n            /* \"shoot/2/整型溢出/1.sol\":981:1018  string public constant symbol = \"ERC\" */\n        tag_33:\n          mload(0x40)\n          dup1\n          0x40\n          add\n          0x40\n          mstore\n          dup1\n          0x03\n          dup2\n          mstore\n          0x20\n          add\n          0x4552430000000000000000000000000000000000000000000000000000000000\n          dup2\n          mstore\n          pop\n          dup2\n          jump\t// out\n            /* \"shoot/2/整型溢出/1.sol\":1543:1929  function transfer(address receiver, uint256 numTokens)\r... */\n        tag_40:\n            /* \"shoot/2/整型溢出/1.sol\":1650:1654  bool */\n          0x00\n            /* \"shoot/2/整型溢出/1.sol\":1693:1701  balances */\n          dup1\n            /* \"shoot/2/整型溢出/1.sol\":1693:1713  balances[msg.sender] */\n          0x00\n            /* \"shoot/2/整型溢出/1.sol\":1702:1712  msg.sender */\n          caller\n            /* \"shoot/2/整型溢出/1.sol\":1693:1713  balances[msg.sender] */\n          0xffffffffffffffffffffffffffffffffffffffff\n          and\n          0xffffffffffffffffffffffffffffffffffffffff\n          and\n          dup2\n          mstore\n          0x20\n          add\n          swap1\n          dup2\n          mstore\n          0x20\n          add\n          0x00\n          keccak256\n          sload\n            /* \"shoot/2/整型溢出/1.sol\":1680:1689  numTokens */\n          dup3\n            /* \"shoot/2/整型溢出/1.sol\":1680:1713  numTokens <= balances[msg.sender] */\n          gt\n          iszero\n            /* \"shoot/2/整型溢出/1.sol\":1672:1714  require(numTokens <= balances[msg.sender]) */\n          tag_51\n          jumpi\n          0x00\n          dup1\n          revert\n        tag_51:\n            /* \"shoot/2/整型溢出/1.sol\":1771:1780  numTokens */\n          dup2\n            /* \"shoot/2/整型溢出/1.sol\":1748:1756  balances */\n          0x00\n            /* \"shoot/2/整型溢出/1.sol\":1748:1768  balances[msg.sender] */\n          dup1\n            /* \"shoot/2/整型溢出/1.sol\":1757:1767  msg.sender */\n          caller\n            /* \"shoot/2/整型溢出/1.sol\":1748:1768  balances[msg.sender] */\n          0xffffffffffffffffffffffffffffffffffffffff\n          and\n          0xffffffffffffffffffffffffffffffffffffffff\n          and\n          dup2\n          mstore\n          0x20\n          add\n          swap1\n          dup2\n          mstore\n          0x20\n          add\n          0x00\n          keccak256\n          sload\n            /* \"shoot/2/整型溢出/1.sol\":1748:1780  balances[msg.sender] - numTokens */\n          sub\n            /* \"shoot/2/整型溢出/1.sol\":1725:1733  balances */\n          0x00\n            /* \"shoot/2/整型溢出/1.sol\":1725:1745  balances[msg.sender] */\n          dup1\n            /* \"shoot/2/整型溢出/1.sol\":1734:1744  msg.sender */\n          caller\n            /* \"shoot/2/整型溢出/1.sol\":1725:1745  balances[msg.sender] */\n          0xffffffffffffffffffffffffffffffffffffffff\n          and\n          0xffffffffffffffffffffffffffffffffffffffff\n          and\n          dup2\n          mstore\n          0x20\n          add\n          swap1\n          dup2\n          mstore\n          0x20\n          add\n          0x00\n          keccak256\n            /* \"shoot/2/整型溢出/1.sol\":1725:1780  balances[msg.sender] = balances[msg.sender] - numTokens */\n          dup2\n          swap1\n          sstore\n          pop\n            /* \"shoot/2/整型溢出/1.sol\":1833:1842  numTokens */\n          dup2\n            /* \"shoot/2/整型溢出/1.sol\":1812:1820  balances */\n          0x00\n            /* \"shoot/2/整型溢出/1.sol\":1812:1830  balances[receiver] */\n          dup1\n            /* \"shoot/2/整型溢出/1.sol\":1821:1829  receiver */\n          dup6\n            /* \"shoot/2/整型溢出/1.sol\":1812:1830  balances[receiver] */\n          0xffffffffffffffffffffffffffffffffffffffff\n          and\n          0xffffffffffffffffffffffffffffffffffffffff\n          and\n          dup2\n          mstore\n          0x20\n          add\n          swap1\n          dup2\n          mstore\n          0x20\n          add\n          0x00\n          keccak256\n          sload\n            /* \"shoot/2/整型溢出/1.sol\":1812:1842  balances[receiver] + numTokens */\n          add\n            /* \"shoot/2/整型溢出/1.sol\":1791:1799  balances */\n          0x00\n            /* \"shoot/2/整型溢出/1.sol\":1791:1809  balances[receiver] */\n          dup1\n            /* \"shoot/2/整型溢出/1.sol\":1800:1808  receiver */\n          dup6\n            /* \"shoot/2/整型溢出/1.sol\":1791:1809  balances[receiver] */\n          0xffffffffffffffffffffffffffffffffffffffff\n          and\n          0xffffffffffffffffffffffffffffffffffffffff\n          and\n          dup2\n          mstore\n          0x20\n          add\n          swap1\n          dup2\n          mstore\n          0x20\n          add\n          0x00\n          keccak256\n            /* \"shoot/2/整型溢出/1.sol\":1791:1842  balances[receiver] = balances[receiver] + numTokens */\n          dup2\n          swap1\n          sstore\n          pop\n            /* \"shoot/2/整型溢出/1.sol\":1879:1887  receiver */\n          dup3\n            /* \"shoot/2/整型溢出/1.sol\":1858:1899  Transfer(msg.sender, receiver, numTokens) */\n          0xffffffffffffffffffffffffffffffffffffffff\n          and\n            /* \"shoot/2/整型溢出/1.sol\":1867:1877  msg.sender */\n          caller\n            /* \"shoot/2/整型溢出/1.sol\":1858:1899  Transfer(msg.sender, receiver, numTokens) */\n          0xffffffffffffffffffffffffffffffffffffffff\n          and\n          0xddf252ad1be2c89b69c2b068fc378daa952ba7f163c4a11628f55a4df523b3ef\n            /* \"shoot/2/整型溢出/1.sol\":1889:1898  numTokens */\n          dup5\n            /* \"shoot/2/整型溢出/1.sol\":1858:1899  Transfer(msg.sender, receiver, numTokens) */\n          mload(0x40)\n          dup1\n          dup3\n          dup2\n          mstore\n          0x20\n          add\n          swap2\n          pop\n          pop\n          mload(0x40)\n          dup1\n          swap2\n          sub\n          swap1\n          log3\n            /* \"shoot/2/整型溢出/1.sol\":1917:1921  true */\n          0x01\n            /* \"shoot/2/整型溢出/1.sol\":1910:1921  return true */\n          swap1\n          pop\n            /* \"shoot/2/整型溢出/1.sol\":1543:1929  function transfer(address receiver, uint256 numTokens)\r... */\n          swap3\n          swap2\n          pop\n          pop\n          jump\t// out\n            /* \"shoot/2/整型溢出/1.sol\":2201:2383  function allowance(address owner, address delegate)\r... */\n        tag_43:\n            /* \"shoot/2/整型溢出/1.sol\":2319:2326  uint256 */\n          0x00\n            /* \"shoot/2/整型溢出/1.sol\":2351:2358  allowed */\n          0x01\n            /* \"shoot/2/整型溢出/1.sol\":2351:2365  allowed[owner] */\n          0x00\n            /* \"shoot/2/整型溢出/1.sol\":2359:2364  owner */\n          dup5\n            /* \"shoot/2/整型溢出/1.sol\":2351:2365  allowed[owner] */\n          0xffffffffffffffffffffffffffffffffffffffff\n          and\n          0xffffffffffffffffffffffffffffffffffffffff\n          and\n          dup2\n          mstore\n          0x20\n          add\n          swap1\n          dup2\n          mstore\n          0x20\n          add\n          0x00\n          keccak256\n            /* \"shoot/2/整型溢出/1.sol\":2351:2375  allowed[owner][delegate] */\n          0x00\n            /* \"shoot/2/整型溢出/1.sol\":2366:2374  delegate */\n          dup4\n            /* \"shoot/2/整型溢出/1.sol\":2351:2375  allowed[owner][delegate] */\n          0xffffffffffffffffffffffffffffffffffffffff\n          and\n          0xffffffffffffffffffffffffffffffffffffffff\n          and\n          dup2\n          mstore\n          0x20\n          add\n          swap1\n          dup2\n          mstore\n          0x20\n          add\n          0x00\n          keccak256\n          sload\n            /* \"shoot/2/整型溢出/1.sol\":2344:2375  return allowed[owner][delegate] */\n          swap1\n          pop\n            /* \"shoot/2/整型溢出/1.sol\":2201:2383  function allowance(address owner, address delegate)\r... */\n          swap3\n          swap2\n          pop\n          pop\n          jump\t// out\n\n        auxdata: 0xa264697066735822122003b0fb002353b3d1fd4c8dccb4d05680814b236fa03c79ad83d9c625047d8e9364736f6c634300060c0033\n    }\n}\n",
				"bytecode": {
					"linkReferences": {},
					"object": "6080604052670de0b6b3a764000060005560405161001c9061008b565b604051809103906000f080158015610038573d6000803e3d6000fd5b50600260016101000a81548173ffffffffffffffffffffffffffffffffffffffff021916908373ffffffffffffffffffffffffffffffffffffffff16021790555034801561008557600080fd5b50610098565b610bf18061098683390190565b6108df806100a76000396000f3fe608060405234801561001057600080fd5b50600436106100625760003560e01c806327e235e3146100675780632e1a7d4d146100bf5780633884d635146100ed57806395f709d9146100f7578063b6b55f25146101cf578063fc0c546a146101fd575b600080fd5b6100a96004803603602081101561007d57600080fd5b81019080803573ffffffffffffffffffffffffffffffffffffffff169060200190929190505050610231565b6040518082815260200191505060405180910390f35b6100eb600480360360208110156100d557600080fd5b8101908080359060200190929190505050610249565b005b6100f56103bc565b005b6101b76004803603604081101561010d57600080fd5b810190808035906020019064010000000081111561012a57600080fd5b82018360208201111561013c57600080fd5b8035906020019184602083028401116401000000008311171561015e57600080fd5b919080806020026020016040519081016040528093929190818152602001838360200280828437600081840152601f19601f82011690508083019250505050505050919291929080359060200190929190505050610441565b60405180821515815260200191505060405180910390f35b6101fb600480360360208110156101e557600080fd5b8101908080359060200190929190505050610665565b005b610205610883565b604051808273ffffffffffffffffffffffffffffffffffffffff16815260200191505060405180910390f35b60016020528060005260406000206000915090505481565b600080548202905081600160003373ffffffffffffffffffffffffffffffffffffffff1673ffffffffffffffffffffffffffffffffffffffff168152602001908152602001600020541161029c57600080fd5b81600160003373ffffffffffffffffffffffffffffffffffffffff1673ffffffffffffffffffffffffffffffffffffffff16815260200190815260200160002060008282540392505081905550600260019054906101000a900473ffffffffffffffffffffffffffffffffffffffff1673ffffffffffffffffffffffffffffffffffffffff1663a9059cbb33836040518363ffffffff1660e01b8152600401808373ffffffffffffffffffffffffffffffffffffffff16815260200182815260200192505050602060405180830381600087803b15801561037c57600080fd5b505af1158015610390573d6000803e3d6000fd5b505050506040513d60208110156103a657600080fd5b8101908080519060200190929190505050505050565b600260009054906101000a900460ff16156103d657600080fd5b6001600260006101000a81548160ff0219169083151502179055506002600160003373ffffffffffffffffffffffffffffffffffffffff1673ffffffffffffffffffffffffffffffffffffffff16815260200190815260200160002060008282540192505081905550565b6000808351905060008382029050600082118015610460575060148211155b6104d2576040517f08c379a000000000000000000000000000000000000000000000000000000000815260040180806020018281038252600f8152602001807f746f6f206c6f6e67206c656e677468000000000000000000000000000000000081525060200191505060405180910390fd5b600084118015610521575080600160003373ffffffffffffffffffffffffffffffffffffffff1673ffffffffffffffffffffffffffffffffffffffff1681526020019081526020016000205410155b610593576040517f08c379a00000000000000000000000000000000000000000000000000000000081526004018080602001828103825260118152602001807f62616c616e6365206f7220616d6f756e7400000000000000000000000000000081525060200191505060405180910390fd5b80600160003373ffffffffffffffffffffffffffffffffffffffff1673ffffffffffffffffffffffffffffffffffffffff1681526020019081526020016000206000828254039250508190555060005b828110156106585784600160008884815181106105fc57fe5b602002602001015173ffffffffffffffffffffffffffffffffffffffff1673ffffffffffffffffffffffffffffffffffffffff1681526020019081526020016000206000828254019250508190555080806001019150506105e3565b5060019250505092915050565b600080548202905080600260019054906101000a900473ffffffffffffffffffffffffffffffffffffffff1673ffffffffffffffffffffffffffffffffffffffff166370a08231336040518263ffffffff1660e01b8152600401808273ffffffffffffffffffffffffffffffffffffffff16815260200191505060206040518083038186803b1580156106f757600080fd5b505afa15801561070b573d6000803e3d6000fd5b505050506040513d602081101561072157600080fd5b8101908080519060200190929190505050101561073d57600080fd5b600260019054906101000a900473ffffffffffffffffffffffffffffffffffffffff1673ffffffffffffffffffffffffffffffffffffffff166323b872dd3330846040518463ffffffff1660e01b8152600401808473ffffffffffffffffffffffffffffffffffffffff1681526020018373ffffffffffffffffffffffffffffffffffffffff1681526020018281526020019350505050602060405180830381600087803b1580156107ee57600080fd5b505af1158015610802573d6000803e3d6000fd5b505050506040513d602081101561081857600080fd5b810190808051906020019092919050505061083257600080fd5b81600160003373ffffffffffffffffffffffffffffffffffffffff1673ffffffffffffffffffffffffffffffffffffffff168152602001908152602001600020600082825401925050819055505050565b600260019054906101000a900473ffffffffffffffffffffffffffffffffffffffff168156fea26469706673582212206d65cccbc22668eae583edb65a9dfd0ea93d0422c40bcabd31cdea876abaa4c464736f6c634300060c003360806040526969e10de76676d080000060025534801561001e57600080fd5b506002546000803373ffffffffffffffffffffffffffffffffffffffff1673ffffffffffffffffffffffffffffffffffffffff16815260200190815260200160002081905550610b7e806100736000396000f3fe608060405234801561001057600080fd5b50600436106100935760003560e01c8063313ce56711610066578063313ce5671461022157806370a082311461024257806395d89b411461029a578063a9059cbb1461031d578063dd62ed3e1461038157610093565b806306fdde0314610098578063095ea7b31461011b57806318160ddd1461017f57806323b872dd1461019d575b600080fd5b6100a06103f9565b6040518080602001828103825283818151815260200191508051906020019080838360005b838110156100e05780820151818401526020810190506100c5565b50505050905090810190601f16801561010d5780820380516001836020036101000a031916815260200191505b509250505060405180910390f35b6101676004803603604081101561013157600080fd5b81019080803573ffffffffffffffffffffffffffffffffffffffff16906020019092919080359060200190929190505050610432565b60405180821515815260200191505060405180910390f35b610187610524565b6040518082815260200191505060405180910390f35b610209600480360360608110156101b357600080fd5b81019080803573ffffffffffffffffffffffffffffffffffffffff169060200190929190803573ffffffffffffffffffffffffffffffffffffffff1690602001909291908035906020019092919050505061052e565b60405180821515815260200191505060405180910390f35b610229610879565b604051808260ff16815260200191505060405180910390f35b6102846004803603602081101561025857600080fd5b81019080803573ffffffffffffffffffffffffffffffffffffffff16906020019092919050505061087e565b6040518082815260200191505060405180910390f35b6102a26108c6565b6040518080602001828103825283818151815260200191508051906020019080838360005b838110156102e25780820151818401526020810190506102c7565b50505050905090810190601f16801561030f5780820380516001836020036101000a031916815260200191505b509250505060405180910390f35b6103696004803603604081101561033357600080fd5b81019080803573ffffffffffffffffffffffffffffffffffffffff169060200190929190803590602001909291905050506108ff565b60405180821515815260200191505060405180910390f35b6103e36004803603604081101561039757600080fd5b81019080803573ffffffffffffffffffffffffffffffffffffffff169060200190929190803573ffffffffffffffffffffffffffffffffffffffff169060200190929190505050610ac1565b6040518082815260200191505060405180910390f35b6040518060400160405280600581526020017f455243323000000000000000000000000000000000000000000000000000000081525081565b600081600160003373ffffffffffffffffffffffffffffffffffffffff1673ffffffffffffffffffffffffffffffffffffffff16815260200190815260200160002060008573ffffffffffffffffffffffffffffffffffffffff1673ffffffffffffffffffffffffffffffffffffffff168152602001908152602001600020819055508273ffffffffffffffffffffffffffffffffffffffff163373ffffffffffffffffffffffffffffffffffffffff167f8c5be1e5ebec7d5bd14f71427d1e84f3dd0314c0f7b2291e5b200ac8c7c3b925846040518082815260200191505060405180910390a36001905092915050565b6000600254905090565b60008060008573ffffffffffffffffffffffffffffffffffffffff1673ffffffffffffffffffffffffffffffffffffffff1681526020019081526020016000205482111561057b57600080fd5b600160008573ffffffffffffffffffffffffffffffffffffffff1673ffffffffffffffffffffffffffffffffffffffff16815260200190815260200160002060003373ffffffffffffffffffffffffffffffffffffffff1673ffffffffffffffffffffffffffffffffffffffff1681526020019081526020016000205482111561060457600080fd5b816000808673ffffffffffffffffffffffffffffffffffffffff1673ffffffffffffffffffffffffffffffffffffffff16815260200190815260200160002054036000808673ffffffffffffffffffffffffffffffffffffffff1673ffffffffffffffffffffffffffffffffffffffff1681526020019081526020016000208190555081600160008673ffffffffffffffffffffffffffffffffffffffff1673ffffffffffffffffffffffffffffffffffffffff16815260200190815260200160002060003373ffffffffffffffffffffffffffffffffffffffff1673ffffffffffffffffffffffffffffffffffffffff1681526020019081526020016000205403600160008673ffffffffffffffffffffffffffffffffffffffff1673ffffffffffffffffffffffffffffffffffffffff16815260200190815260200160002060003373ffffffffffffffffffffffffffffffffffffffff1673ffffffffffffffffffffffffffffffffffffffff16815260200190815260200160002081905550816000808573ffffffffffffffffffffffffffffffffffffffff1673ffffffffffffffffffffffffffffffffffffffff16815260200190815260200160002054016000808573ffffffffffffffffffffffffffffffffffffffff1673ffffffffffffffffffffffffffffffffffffffff168152602001908152602001600020819055508273ffffffffffffffffffffffffffffffffffffffff168473ffffffffffffffffffffffffffffffffffffffff167fddf252ad1be2c89b69c2b068fc378daa952ba7f163c4a11628f55a4df523b3ef846040518082815260200191505060405180910390a3600190509392505050565b601281565b60008060008373ffffffffffffffffffffffffffffffffffffffff1673ffffffffffffffffffffffffffffffffffffffff168152602001908152602001600020549050919050565b6040518060400160405280600381526020017f455243000000000000000000000000000000000000000000000000000000000081525081565b60008060003373ffffffffffffffffffffffffffffffffffffffff1673ffffffffffffffffffffffffffffffffffffffff1681526020019081526020016000205482111561094c57600080fd5b816000803373ffffffffffffffffffffffffffffffffffffffff1673ffffffffffffffffffffffffffffffffffffffff16815260200190815260200160002054036000803373ffffffffffffffffffffffffffffffffffffffff1673ffffffffffffffffffffffffffffffffffffffff16815260200190815260200160002081905550816000808573ffffffffffffffffffffffffffffffffffffffff1673ffffffffffffffffffffffffffffffffffffffff16815260200190815260200160002054016000808573ffffffffffffffffffffffffffffffffffffffff1673ffffffffffffffffffffffffffffffffffffffff168152602001908152602001600020819055508273ffffffffffffffffffffffffffffffffffffffff163373ffffffffffffffffffffffffffffffffffffffff167fddf252ad1be2c89b69c2b068fc378daa952ba7f163c4a11628f55a4df523b3ef846040518082815260200191505060405180910390a36001905092915050565b6000600160008473ffffffffffffffffffffffffffffffffffffffff1673ffffffffffffffffffffffffffffffffffffffff16815260200190815260200160002060008373ffffffffffffffffffffffffffffffffffffffff1673ffffffffffffffffffffffffffffffffffffffff1681526020019081526020016000205490509291505056fea264697066735822122003b0fb002353b3d1fd4c8dccb4d05680814b236fa03c79ad83d9c625047d8e9364736f6c634300060c0033",
					"opcodes": "PUSH1 0x80 PUSH1 0x40 MSTORE PUSH8 0xDE0B6B3A7640000 PUSH1 0x0 SSTORE PUSH1 0x40 MLOAD PUSH2 0x1C SWAP1 PUSH2 0x8B JUMP JUMPDEST PUSH1 0x40 MLOAD DUP1 SWAP2 SUB SWAP1 PUSH1 0x0 CREATE DUP1 ISZERO DUP1 ISZERO PUSH2 0x38 JUMPI RETURNDATASIZE PUSH1 0x0 DUP1 RETURNDATACOPY RETURNDATASIZE PUSH1 0x0 REVERT JUMPDEST POP PUSH1 0x2 PUSH1 0x1 PUSH2 0x100 EXP DUP2 SLOAD DUP2 PUSH20 0xFFFFFFFFFFFFFFFFFFFFFFFFFFFFFFFFFFFFFFFF MUL NOT AND SWAP1 DUP4 PUSH20 0xFFFFFFFFFFFFFFFFFFFFFFFFFFFFFFFFFFFFFFFF AND MUL OR SWAP1 SSTORE POP CALLVALUE DUP1 ISZERO PUSH2 0x85 JUMPI PUSH1 0x0 DUP1 REVERT JUMPDEST POP PUSH2 0x98 JUMP JUMPDEST PUSH2 0xBF1 DUP1 PUSH2 0x986 DUP4 CODECOPY ADD SWAP1 JUMP JUMPDEST PUSH2 0x8DF DUP1 PUSH2 0xA7 PUSH1 0x0 CODECOPY PUSH1 0x0 RETURN INVALID PUSH1 0x80 PUSH1 0x40 MSTORE CALLVALUE DUP1 ISZERO PUSH2 0x10 JUMPI PUSH1 0x0 DUP1 REVERT JUMPDEST POP PUSH1 0x4 CALLDATASIZE LT PUSH2 0x62 JUMPI PUSH1 0x0 CALLDATALOAD PUSH1 0xE0 SHR DUP1 PUSH4 0x27E235E3 EQ PUSH2 0x67 JUMPI DUP1 PUSH4 0x2E1A7D4D EQ PUSH2 0xBF JUMPI DUP1 PUSH4 0x3884D635 EQ PUSH2 0xED JUMPI DUP1 PUSH4 0x95F709D9 EQ PUSH2 0xF7 JUMPI DUP1 PUSH4 0xB6B55F25 EQ PUSH2 0x1CF JUMPI DUP1 PUSH4 0xFC0C546A EQ PUSH2 0x1FD JUMPI JUMPDEST PUSH1 0x0 DUP1 REVERT JUMPDEST PUSH2 0xA9 PUSH1 0x4 DUP1 CALLDATASIZE SUB PUSH1 0x20 DUP2 LT ISZERO PUSH2 0x7D JUMPI PUSH1 0x0 DUP1 REVERT JUMPDEST DUP2 ADD SWAP1 DUP1 DUP1 CALLDATALOAD PUSH20 0xFFFFFFFFFFFFFFFFFFFFFFFFFFFFFFFFFFFFFFFF AND SWAP1 PUSH1 0x20 ADD SWAP1 SWAP3 SWAP2 SWAP1 POP POP POP PUSH2 0x231 JUMP JUMPDEST PUSH1 0x40 MLOAD DUP1 DUP3 DUP2 MSTORE PUSH1 0x20 ADD SWAP2 POP POP PUSH1 0x40 MLOAD DUP1 SWAP2 SUB SWAP1 RETURN JUMPDEST PUSH2 0xEB PUSH1 0x4 DUP1 CALLDATASIZE SUB PUSH1 0x20 DUP2 LT ISZERO PUSH2 0xD5 JUMPI PUSH1 0x0 DUP1 REVERT JUMPDEST DUP2 ADD SWAP1 DUP1 DUP1 CALLDATALOAD SWAP1 PUSH1 0x20 ADD SWAP1 SWAP3 SWAP2 SWAP1 POP POP POP PUSH2 0x249 JUMP JUMPDEST STOP JUMPDEST PUSH2 0xF5 PUSH2 0x3BC JUMP JUMPDEST STOP JUMPDEST PUSH2 0x1B7 PUSH1 0x4 DUP1 CALLDATASIZE SUB PUSH1 0x40 DUP2 LT ISZERO PUSH2 0x10D JUMPI PUSH1 0x0 DUP1 REVERT JUMPDEST DUP2 ADD SWAP1 DUP1 DUP1 CALLDATALOAD SWAP1 PUSH1 0x20 ADD SWAP1 PUSH5 0x100000000 DUP2 GT ISZERO PUSH2 0x12A JUMPI PUSH1 0x0 DUP1 REVERT JUMPDEST DUP3 ADD DUP4 PUSH1 0x20 DUP3 ADD GT ISZERO PUSH2 0x13C JUMPI PUSH1 0x0 DUP1 REVERT JUMPDEST DUP1 CALLDATALOAD SWAP1 PUSH1 0x20 ADD SWAP2 DUP5 PUSH1 0x20 DUP4 MUL DUP5 ADD GT PUSH5 0x100000000 DUP4 GT OR ISZERO PUSH2 0x15E JUMPI PUSH1 0x0 DUP1 REVERT JUMPDEST SWAP2 SWAP1 DUP1 DUP1 PUSH1 0x20 MUL PUSH1 0x20 ADD PUSH1 0x40 MLOAD SWAP1 DUP2 ADD PUSH1 0x40 MSTORE DUP1 SWAP4 SWAP3 SWAP2 SWAP1 DUP2 DUP2 MSTORE PUSH1 0x20 ADD DUP4 DUP4 PUSH1 0x20 MUL DUP1 DUP3 DUP5 CALLDATACOPY PUSH1 0x0 DUP2 DUP5 ADD MSTORE PUSH1 0x1F NOT PUSH1 0x1F DUP3 ADD AND SWAP1 POP DUP1 DUP4 ADD SWAP3 POP POP POP POP POP POP POP SWAP2 SWAP3 SWAP2 SWAP3 SWAP1 DUP1 CALLDATALOAD SWAP1 PUSH1 0x20 ADD SWAP1 SWAP3 SWAP2 SWAP1 POP POP POP PUSH2 0x441 JUMP JUMPDEST PUSH1 0x40 MLOAD DUP1 DUP3 ISZERO ISZERO DUP2 MSTORE PUSH1 0x20 ADD SWAP2 POP POP PUSH1 0x40 MLOAD DUP1 SWAP2 SUB SWAP1 RETURN JUMPDEST PUSH2 0x1FB PUSH1 0x4 DUP1 CALLDATASIZE SUB PUSH1 0x20 DUP2 LT ISZERO PUSH2 0x1E5 JUMPI PUSH1 0x0 DUP1 REVERT JUMPDEST DUP2 ADD SWAP1 DUP1 DUP1 CALLDATALOAD SWAP1 PUSH1 0x20 ADD SWAP1 SWAP3 SWAP2 SWAP1 POP POP POP PUSH2 0x665 JUMP JUMPDEST STOP JUMPDEST PUSH2 0x205 PUSH2 0x883 JUMP JUMPDEST PUSH1 0x40 MLOAD DUP1 DUP3 PUSH20 0xFFFFFFFFFFFFFFFFFFFFFFFFFFFFFFFFFFFFFFFF AND DUP2 MSTORE PUSH1 0x20 ADD SWAP2 POP POP PUSH1 0x40 MLOAD DUP1 SWAP2 SUB SWAP1 RETURN JUMPDEST PUSH1 0x1 PUSH1 0x20 MSTORE DUP1 PUSH1 0x0 MSTORE PUSH1 0x40 PUSH1 0x0 KECCAK256 PUSH1 0x0 SWAP2 POP SWAP1 POP SLOAD DUP2 JUMP JUMPDEST PUSH1 0x0 DUP1 SLOAD DUP3 MUL SWAP1 POP DUP2 PUSH1 0x1 PUSH1 0x0 CALLER PUSH20 0xFFFFFFFFFFFFFFFFFFFFFFFFFFFFFFFFFFFFFFFF AND PUSH20 0xFFFFFFFFFFFFFFFFFFFFFFFFFFFFFFFFFFFFFFFF AND DUP2 MSTORE PUSH1 0x20 ADD SWAP1 DUP2 MSTORE PUSH1 0x20 ADD PUSH1 0x0 KECCAK256 SLOAD GT PUSH2 0x29C JUMPI PUSH1 0x0 DUP1 REVERT JUMPDEST DUP2 PUSH1 0x1 PUSH1 0x0 CALLER PUSH20 0xFFFFFFFFFFFFFFFFFFFFFFFFFFFFFFFFFFFFFFFF AND PUSH20 0xFFFFFFFFFFFFFFFFFFFFFFFFFFFFFFFFFFFFFFFF AND DUP2 MSTORE PUSH1 0x20 ADD SWAP1 DUP2 MSTORE PUSH1 0x20 ADD PUSH1 0x0 KECCAK256 PUSH1 0x0 DUP3 DUP3 SLOAD SUB SWAP3 POP POP DUP2 SWAP1 SSTORE POP PUSH1 0x2 PUSH1 0x1 SWAP1 SLOAD SWAP1 PUSH2 0x100 EXP SWAP1 DIV PUSH20 0xFFFFFFFFFFFFFFFFFFFFFFFFFFFFFFFFFFFFFFFF AND PUSH20 0xFFFFFFFFFFFFFFFFFFFFFFFFFFFFFFFFFFFFFFFF AND PUSH4 0xA9059CBB CALLER DUP4 PUSH1 0x40 MLOAD DUP4 PUSH4 0xFFFFFFFF AND PUSH1 0xE0 SHL DUP2 MSTORE PUSH1 0x4 ADD DUP1 DUP4 PUSH20 0xFFFFFFFFFFFFFFFFFFFFFFFFFFFFFFFFFFFFFFFF AND DUP2 MSTORE PUSH1 0x20 ADD DUP3 DUP2 MSTORE PUSH1 0x20 ADD SWAP3 POP POP POP PUSH1 0x20 PUSH1 0x40 MLOAD DUP1 DUP4 SUB DUP2 PUSH1 0x0 DUP8 DUP1 EXTCODESIZE ISZERO DUP1 ISZERO PUSH2 0x37C JUMPI PUSH1 0x0 DUP1 REVERT JUMPDEST POP GAS CALL ISZERO DUP1 ISZERO PUSH2 0x390 JUMPI RETURNDATASIZE PUSH1 0x0 DUP1 RETURNDATACOPY RETURNDATASIZE PUSH1 0x0 REVERT JUMPDEST POP POP POP POP PUSH1 0x40 MLOAD RETURNDATASIZE PUSH1 0x20 DUP2 LT ISZERO PUSH2 0x3A6 JUMPI PUSH1 0x0 DUP1 REVERT JUMPDEST DUP2 ADD SWAP1 DUP1 DUP1 MLOAD SWAP1 PUSH1 0x20 ADD SWAP1 SWAP3 SWAP2 SWAP1 POP POP POP POP POP POP JUMP JUMPDEST PUSH1 0x2 PUSH1 0x0 SWAP1 SLOAD SWAP1 PUSH2 0x100 EXP SWAP1 DIV PUSH1 0xFF AND ISZERO PUSH2 0x3D6 JUMPI PUSH1 0x0 DUP1 REVERT JUMPDEST PUSH1 0x1 PUSH1 0x2 PUSH1 0x0 PUSH2 0x100 EXP DUP2 SLOAD DUP2 PUSH1 0xFF MUL NOT AND SWAP1 DUP4 ISZERO ISZERO MUL OR SWAP1 SSTORE POP PUSH1 0x2 PUSH1 0x1 PUSH1 0x0 CALLER PUSH20 0xFFFFFFFFFFFFFFFFFFFFFFFFFFFFFFFFFFFFFFFF AND PUSH20 0xFFFFFFFFFFFFFFFFFFFFFFFFFFFFFFFFFFFFFFFF AND DUP2 MSTORE PUSH1 0x20 ADD SWAP1 DUP2 MSTORE PUSH1 0x20 ADD PUSH1 0x0 KECCAK256 PUSH1 0x0 DUP3 DUP3 SLOAD ADD SWAP3 POP POP DUP2 SWAP1 SSTORE POP JUMP JUMPDEST PUSH1 0x0 DUP1 DUP4 MLOAD SWAP1 POP PUSH1 0x0 DUP4 DUP3 MUL SWAP1 POP PUSH1 0x0 DUP3 GT DUP1 ISZERO PUSH2 0x460 JUMPI POP PUSH1 0x14 DUP3 GT ISZERO JUMPDEST PUSH2 0x4D2 JUMPI PUSH1 0x40 MLOAD PUSH32 0x8C379A000000000000000000000000000000000000000000000000000000000 DUP2 MSTORE PUSH1 0x4 ADD DUP1 DUP1 PUSH1 0x20 ADD DUP3 DUP2 SUB DUP3 MSTORE PUSH1 0xF DUP2 MSTORE PUSH1 0x20 ADD DUP1 PUSH32 0x746F6F206C6F6E67206C656E6774680000000000000000000000000000000000 DUP2 MSTORE POP PUSH1 0x20 ADD SWAP2 POP POP PUSH1 0x40 MLOAD DUP1 SWAP2 SUB SWAP1 REVERT JUMPDEST PUSH1 0x0 DUP5 GT DUP1 ISZERO PUSH2 0x521 JUMPI POP DUP1 PUSH1 0x1 PUSH1 0x0 CALLER PUSH20 0xFFFFFFFFFFFFFFFFFFFFFFFFFFFFFFFFFFFFFFFF AND PUSH20 0xFFFFFFFFFFFFFFFFFFFFFFFFFFFFFFFFFFFFFFFF AND DUP2 MSTORE PUSH1 0x20 ADD SWAP1 DUP2 MSTORE PUSH1 0x20 ADD PUSH1 0x0 KECCAK256 SLOAD LT ISZERO JUMPDEST PUSH2 0x593 JUMPI PUSH1 0x40 MLOAD PUSH32 0x8C379A000000000000000000000000000000000000000000000000000000000 DUP2 MSTORE PUSH1 0x4 ADD DUP1 DUP1 PUSH1 0x20 ADD DUP3 DUP2 SUB DUP3 MSTORE PUSH1 0x11 DUP2 MSTORE PUSH1 0x20 ADD DUP1 PUSH32 0x62616C616E6365206F7220616D6F756E74000000000000000000000000000000 DUP2 MSTORE POP PUSH1 0x20 ADD SWAP2 POP POP PUSH1 0x40 MLOAD DUP1 SWAP2 SUB SWAP1 REVERT JUMPDEST DUP1 PUSH1 0x1 PUSH1 0x0 CALLER PUSH20 0xFFFFFFFFFFFFFFFFFFFFFFFFFFFFFFFFFFFFFFFF AND PUSH20 0xFFFFFFFFFFFFFFFFFFFFFFFFFFFFFFFFFFFFFFFF AND DUP2 MSTORE PUSH1 0x20 ADD SWAP1 DUP2 MSTORE PUSH1 0x20 ADD PUSH1 0x0 KECCAK256 PUSH1 0x0 DUP3 DUP3 SLOAD SUB SWAP3 POP POP DUP2 SWAP1 SSTORE POP PUSH1 0x0 JUMPDEST DUP3 DUP2 LT ISZERO PUSH2 0x658 JUMPI DUP5 PUSH1 0x1 PUSH1 0x0 DUP9 DUP5 DUP2 MLOAD DUP2 LT PUSH2 0x5FC JUMPI INVALID JUMPDEST PUSH1 0x20 MUL PUSH1 0x20 ADD ADD MLOAD PUSH20 0xFFFFFFFFFFFFFFFFFFFFFFFFFFFFFFFFFFFFFFFF AND PUSH20 0xFFFFFFFFFFFFFFFFFFFFFFFFFFFFFFFFFFFFFFFF AND DUP2 MSTORE PUSH1 0x20 ADD SWAP1 DUP2 MSTORE PUSH1 0x20 ADD PUSH1 0x0 KECCAK256 PUSH1 0x0 DUP3 DUP3 SLOAD ADD SWAP3 POP POP DUP2 SWAP1 SSTORE POP DUP1 DUP1 PUSH1 0x1 ADD SWAP2 POP POP PUSH2 0x5E3 JUMP JUMPDEST POP PUSH1 0x1 SWAP3 POP POP POP SWAP3 SWAP2 POP POP JUMP JUMPDEST PUSH1 0x0 DUP1 SLOAD DUP3 MUL SWAP1 POP DUP1 PUSH1 0x2 PUSH1 0x1 SWAP1 SLOAD SWAP1 PUSH2 0x100 EXP SWAP1 DIV PUSH20 0xFFFFFFFFFFFFFFFFFFFFFFFFFFFFFFFFFFFFFFFF AND PUSH20 0xFFFFFFFFFFFFFFFFFFFFFFFFFFFFFFFFFFFFFFFF AND PUSH4 0x70A08231 CALLER PUSH1 0x40 MLOAD DUP3 PUSH4 0xFFFFFFFF AND PUSH1 0xE0 SHL DUP2 MSTORE PUSH1 0x4 ADD DUP1 DUP3 PUSH20 0xFFFFFFFFFFFFFFFFFFFFFFFFFFFFFFFFFFFFFFFF AND DUP2 MSTORE PUSH1 0x20 ADD SWAP2 POP POP PUSH1 0x20 PUSH1 0x40 MLOAD DUP1 DUP4 SUB DUP2 DUP7 DUP1 EXTCODESIZE ISZERO DUP1 ISZERO PUSH2 0x6F7 JUMPI PUSH1 0x0 DUP1 REVERT JUMPDEST POP GAS STATICCALL ISZERO DUP1 ISZERO PUSH2 0x70B JUMPI RETURNDATASIZE PUSH1 0x0 DUP1 RETURNDATACOPY RETURNDATASIZE PUSH1 0x0 REVERT JUMPDEST POP POP POP POP PUSH1 0x40 MLOAD RETURNDATASIZE PUSH1 0x20 DUP2 LT ISZERO PUSH2 0x721 JUMPI PUSH1 0x0 DUP1 REVERT JUMPDEST DUP2 ADD SWAP1 DUP1 DUP1 MLOAD SWAP1 PUSH1 0x20 ADD SWAP1 SWAP3 SWAP2 SWAP1 POP POP POP LT ISZERO PUSH2 0x73D JUMPI PUSH1 0x0 DUP1 REVERT JUMPDEST PUSH1 0x2 PUSH1 0x1 SWAP1 SLOAD SWAP1 PUSH2 0x100 EXP SWAP1 DIV PUSH20 0xFFFFFFFFFFFFFFFFFFFFFFFFFFFFFFFFFFFFFFFF AND PUSH20 0xFFFFFFFFFFFFFFFFFFFFFFFFFFFFFFFFFFFFFFFF AND PUSH4 0x23B872DD CALLER ADDRESS DUP5 PUSH1 0x40 MLOAD DUP5 PUSH4 0xFFFFFFFF AND PUSH1 0xE0 SHL DUP2 MSTORE PUSH1 0x4 ADD DUP1 DUP5 PUSH20 0xFFFFFFFFFFFFFFFFFFFFFFFFFFFFFFFFFFFFFFFF AND DUP2 MSTORE PUSH1 0x20 ADD DUP4 PUSH20 0xFFFFFFFFFFFFFFFFFFFFFFFFFFFFFFFFFFFFFFFF AND DUP2 MSTORE PUSH1 0x20 ADD DUP3 DUP2 MSTORE PUSH1 0x20 ADD SWAP4 POP POP POP POP PUSH1 0x20 PUSH1 0x40 MLOAD DUP1 DUP4 SUB DUP2 PUSH1 0x0 DUP8 DUP1 EXTCODESIZE ISZERO DUP1 ISZERO PUSH2 0x7EE JUMPI PUSH1 0x0 DUP1 REVERT JUMPDEST POP GAS CALL ISZERO DUP1 ISZERO PUSH2 0x802 JUMPI RETURNDATASIZE PUSH1 0x0 DUP1 RETURNDATACOPY RETURNDATASIZE PUSH1 0x0 REVERT JUMPDEST POP POP POP POP PUSH1 0x40 MLOAD RETURNDATASIZE PUSH1 0x20 DUP2 LT ISZERO PUSH2 0x818 JUMPI PUSH1 0x0 DUP1 REVERT JUMPDEST DUP2 ADD SWAP1 DUP1 DUP1 MLOAD SWAP1 PUSH1 0x20 ADD SWAP1 SWAP3 SWAP2 SWAP1 POP POP POP PUSH2 0x832 JUMPI PUSH1 0x0 DUP1 REVERT JUMPDEST DUP2 PUSH1 0x1 PUSH1 0x0 CALLER PUSH20 0xFFFFFFFFFFFFFFFFFFFFFFFFFFFFFFFFFFFFFFFF AND PUSH20 0xFFFFFFFFFFFFFFFFFFFFFFFFFFFFFFFFFFFFFFFF AND DUP2 MSTORE PUSH1 0x20 ADD SWAP1 DUP2 MSTORE PUSH1 0x20 ADD PUSH1 0x0 KECCAK256 PUSH1 0x0 DUP3 DUP3 SLOAD ADD SWAP3 POP POP DUP2 SWAP1 SSTORE POP POP POP JUMP JUMPDEST PUSH1 0x2 PUSH1 0x1 SWAP1 SLOAD SWAP1 PUSH2 0x100 EXP SWAP1 DIV PUSH20 0xFFFFFFFFFFFFFFFFFFFFFFFFFFFFFFFFFFFFFFFF AND DUP2 JUMP INVALID LOG2 PUSH5 0x6970667358 0x22 SLT KECCAK256 PUSH14 0x65CCCBC22668EAE583EDB65A9DFD 0xE 0xA9 RETURNDATASIZE DIV 0x22 0xC4 SIGNEXTEND 0xCA 0xBD BALANCE 0xCD 0xEA DUP8 PUSH11 0xBAA4C464736F6C63430006 0xC STOP CALLER PUSH1 0x80 PUSH1 0x40 MSTORE PUSH10 0x69E10DE76676D0800000 PUSH1 0x2 SSTORE CALLVALUE DUP1 ISZERO PUSH2 0x1E JUMPI PUSH1 0x0 DUP1 REVERT JUMPDEST POP PUSH1 0x2 SLOAD PUSH1 0x0 DUP1 CALLER PUSH20 0xFFFFFFFFFFFFFFFFFFFFFFFFFFFFFFFFFFFFFFFF AND PUSH20 0xFFFFFFFFFFFFFFFFFFFFFFFFFFFFFFFFFFFFFFFF AND DUP2 MSTORE PUSH1 0x20 ADD SWAP1 DUP2 MSTORE PUSH1 0x20 ADD PUSH1 0x0 KECCAK256 DUP2 SWAP1 SSTORE POP PUSH2 0xB7E DUP1 PUSH2 0x73 PUSH1 0x0 CODECOPY PUSH1 0x0 RETURN INVALID PUSH1 0x80 PUSH1 0x40 MSTORE CALLVALUE DUP1 ISZERO PUSH2 0x10 JUMPI PUSH1 0x0 DUP1 REVERT JUMPDEST POP PUSH1 0x4 CALLDATASIZE LT PUSH2 0x93 JUMPI PUSH1 0x0 CALLDATALOAD PUSH1 0xE0 SHR DUP1 PUSH4 0x313CE567 GT PUSH2 0x66 JUMPI DUP1 PUSH4 0x313CE567 EQ PUSH2 0x221 JUMPI DUP1 PUSH4 0x70A08231 EQ PUSH2 0x242 JUMPI DUP1 PUSH4 0x95D89B41 EQ PUSH2 0x29A JUMPI DUP1 PUSH4 0xA9059CBB EQ PUSH2 0x31D JUMPI DUP1 PUSH4 0xDD62ED3E EQ PUSH2 0x381 JUMPI PUSH2 0x93 JUMP JUMPDEST DUP1 PUSH4 0x6FDDE03 EQ PUSH2 0x98 JUMPI DUP1 PUSH4 0x95EA7B3 EQ PUSH2 0x11B JUMPI DUP1 PUSH4 0x18160DDD EQ PUSH2 0x17F JUMPI DUP1 PUSH4 0x23B872DD EQ PUSH2 0x19D JUMPI JUMPDEST PUSH1 0x0 DUP1 REVERT JUMPDEST PUSH2 0xA0 PUSH2 0x3F9 JUMP JUMPDEST PUSH1 0x40 MLOAD DUP1 DUP1 PUSH1 0x20 ADD DUP3 DUP2 SUB DUP3 MSTORE DUP4 DUP2 DUP2 MLOAD DUP2 MSTORE PUSH1 0x20 ADD SWAP2 POP DUP1 MLOAD SWAP1 PUSH1 0x20 ADD SWAP1 DUP1 DUP4 DUP4 PUSH1 0x0 JUMPDEST DUP4 DUP2 LT ISZERO PUSH2 0xE0 JUMPI DUP1 DUP3 ADD MLOAD DUP2 DUP5 ADD MSTORE PUSH1 0x20 DUP2 ADD SWAP1 POP PUSH2 0xC5 JUMP JUMPDEST POP POP POP POP SWAP1 POP SWAP1 DUP2 ADD SWAP1 PUSH1 0x1F AND DUP1 ISZERO PUSH2 0x10D JUMPI DUP1 DUP3 SUB DUP1 MLOAD PUSH1 0x1 DUP4 PUSH1 0x20 SUB PUSH2 0x100 EXP SUB NOT AND DUP2 MSTORE PUSH1 0x20 ADD SWAP2 POP JUMPDEST POP SWAP3 POP POP POP PUSH1 0x40 MLOAD DUP1 SWAP2 SUB SWAP1 RETURN JUMPDEST PUSH2 0x167 PUSH1 0x4 DUP1 CALLDATASIZE SUB PUSH1 0x40 DUP2 LT ISZERO PUSH2 0x131 JUMPI PUSH1 0x0 DUP1 REVERT JUMPDEST DUP2 ADD SWAP1 DUP1 DUP1 CALLDATALOAD PUSH20 0xFFFFFFFFFFFFFFFFFFFFFFFFFFFFFFFFFFFFFFFF AND SWAP1 PUSH1 0x20 ADD SWAP1 SWAP3 SWAP2 SWAP1 DUP1 CALLDATALOAD SWAP1 PUSH1 0x20 ADD SWAP1 SWAP3 SWAP2 SWAP1 POP POP POP PUSH2 0x432 JUMP JUMPDEST PUSH1 0x40 MLOAD DUP1 DUP3 ISZERO ISZERO DUP2 MSTORE PUSH1 0x20 ADD SWAP2 POP POP PUSH1 0x40 MLOAD DUP1 SWAP2 SUB SWAP1 RETURN JUMPDEST PUSH2 0x187 PUSH2 0x524 JUMP JUMPDEST PUSH1 0x40 MLOAD DUP1 DUP3 DUP2 MSTORE PUSH1 0x20 ADD SWAP2 POP POP PUSH1 0x40 MLOAD DUP1 SWAP2 SUB SWAP1 RETURN JUMPDEST PUSH2 0x209 PUSH1 0x4 DUP1 CALLDATASIZE SUB PUSH1 0x60 DUP2 LT ISZERO PUSH2 0x1B3 JUMPI PUSH1 0x0 DUP1 REVERT JUMPDEST DUP2 ADD SWAP1 DUP1 DUP1 CALLDATALOAD PUSH20 0xFFFFFFFFFFFFFFFFFFFFFFFFFFFFFFFFFFFFFFFF AND SWAP1 PUSH1 0x20 ADD SWAP1 SWAP3 SWAP2 SWAP1 DUP1 CALLDATALOAD PUSH20 0xFFFFFFFFFFFFFFFFFFFFFFFFFFFFFFFFFFFFFFFF AND SWAP1 PUSH1 0x20 ADD SWAP1 SWAP3 SWAP2 SWAP1 DUP1 CALLDATALOAD SWAP1 PUSH1 0x20 ADD SWAP1 SWAP3 SWAP2 SWAP1 POP POP POP PUSH2 0x52E JUMP JUMPDEST PUSH1 0x40 MLOAD DUP1 DUP3 ISZERO ISZERO DUP2 MSTORE PUSH1 0x20 ADD SWAP2 POP POP PUSH1 0x40 MLOAD DUP1 SWAP2 SUB SWAP1 RETURN JUMPDEST PUSH2 0x229 PUSH2 0x879 JUMP JUMPDEST PUSH1 0x40 MLOAD DUP1 DUP3 PUSH1 0xFF AND DUP2 MSTORE PUSH1 0x20 ADD SWAP2 POP POP PUSH1 0x40 MLOAD DUP1 SWAP2 SUB SWAP1 RETURN JUMPDEST PUSH2 0x284 PUSH1 0x4 DUP1 CALLDATASIZE SUB PUSH1 0x20 DUP2 LT ISZERO PUSH2 0x258 JUMPI PUSH1 0x0 DUP1 REVERT JUMPDEST DUP2 ADD SWAP1 DUP1 DUP1 CALLDATALOAD PUSH20 0xFFFFFFFFFFFFFFFFFFFFFFFFFFFFFFFFFFFFFFFF AND SWAP1 PUSH1 0x20 ADD SWAP1 SWAP3 SWAP2 SWAP1 POP POP POP PUSH2 0x87E JUMP JUMPDEST PUSH1 0x40 MLOAD DUP1 DUP3 DUP2 MSTORE PUSH1 0x20 ADD SWAP2 POP POP PUSH1 0x40 MLOAD DUP1 SWAP2 SUB SWAP1 RETURN JUMPDEST PUSH2 0x2A2 PUSH2 0x8C6 JUMP JUMPDEST PUSH1 0x40 MLOAD DUP1 DUP1 PUSH1 0x20 ADD DUP3 DUP2 SUB DUP3 MSTORE DUP4 DUP2 DUP2 MLOAD DUP2 MSTORE PUSH1 0x20 ADD SWAP2 POP DUP1 MLOAD SWAP1 PUSH1 0x20 ADD SWAP1 DUP1 DUP4 DUP4 PUSH1 0x0 JUMPDEST DUP4 DUP2 LT ISZERO PUSH2 0x2E2 JUMPI DUP1 DUP3 ADD MLOAD DUP2 DUP5 ADD MSTORE PUSH1 0x20 DUP2 ADD SWAP1 POP PUSH2 0x2C7 JUMP JUMPDEST POP POP POP POP SWAP1 POP SWAP1 DUP2 ADD SWAP1 PUSH1 0x1F AND DUP1 ISZERO PUSH2 0x30F JUMPI DUP1 DUP3 SUB DUP1 MLOAD PUSH1 0x1 DUP4 PUSH1 0x20 SUB PUSH2 0x100 EXP SUB NOT AND DUP2 MSTORE PUSH1 0x20 ADD SWAP2 POP JUMPDEST POP SWAP3 POP POP POP PUSH1 0x40 MLOAD DUP1 SWAP2 SUB SWAP1 RETURN JUMPDEST PUSH2 0x369 PUSH1 0x4 DUP1 CALLDATASIZE SUB PUSH1 0x40 DUP2 LT ISZERO PUSH2 0x333 JUMPI PUSH1 0x0 DUP1 REVERT JUMPDEST DUP2 ADD SWAP1 DUP1 DUP1 CALLDATALOAD PUSH20 0xFFFFFFFFFFFFFFFFFFFFFFFFFFFFFFFFFFFFFFFF AND SWAP1 PUSH1 0x20 ADD SWAP1 SWAP3 SWAP2 SWAP1 DUP1 CALLDATALOAD SWAP1 PUSH1 0x20 ADD SWAP1 SWAP3 SWAP2 SWAP1 POP POP POP PUSH2 0x8FF JUMP JUMPDEST PUSH1 0x40 MLOAD DUP1 DUP3 ISZERO ISZERO DUP2 MSTORE PUSH1 0x20 ADD SWAP2 POP POP PUSH1 0x40 MLOAD DUP1 SWAP2 SUB SWAP1 RETURN JUMPDEST PUSH2 0x3E3 PUSH1 0x4 DUP1 CALLDATASIZE SUB PUSH1 0x40 DUP2 LT ISZERO PUSH2 0x397 JUMPI PUSH1 0x0 DUP1 REVERT JUMPDEST DUP2 ADD SWAP1 DUP1 DUP1 CALLDATALOAD PUSH20 0xFFFFFFFFFFFFFFFFFFFFFFFFFFFFFFFFFFFFFFFF AND SWAP1 PUSH1 0x20 ADD SWAP1 SWAP3 SWAP2 SWAP1 DUP1 CALLDATALOAD PUSH20 0xFFFFFFFFFFFFFFFFFFFFFFFFFFFFFFFFFFFFFFFF AND SWAP1 PUSH1 0x20 ADD SWAP1 SWAP3 SWAP2 SWAP1 POP POP POP PUSH2 0xAC1 JUMP JUMPDEST PUSH1 0x40 MLOAD DUP1 DUP3 DUP2 MSTORE PUSH1 0x20 ADD SWAP2 POP POP PUSH1 0x40 MLOAD DUP1 SWAP2 SUB SWAP1 RETURN JUMPDEST PUSH1 0x40 MLOAD DUP1 PUSH1 0x40 ADD PUSH1 0x40 MSTORE DUP1 PUSH1 0x5 DUP2 MSTORE PUSH1 0x20 ADD PUSH32 0x4552433230000000000000000000000000000000000000000000000000000000 DUP2 MSTORE POP DUP2 JUMP JUMPDEST PUSH1 0x0 DUP2 PUSH1 0x1 PUSH1 0x0 CALLER PUSH20 0xFFFFFFFFFFFFFFFFFFFFFFFFFFFFFFFFFFFFFFFF AND PUSH20 0xFFFFFFFFFFFFFFFFFFFFFFFFFFFFFFFFFFFFFFFF AND DUP2 MSTORE PUSH1 0x20 ADD SWAP1 DUP2 MSTORE PUSH1 0x20 ADD PUSH1 0x0 KECCAK256 PUSH1 0x0 DUP6 PUSH20 0xFFFFFFFFFFFFFFFFFFFFFFFFFFFFFFFFFFFFFFFF AND PUSH20 0xFFFFFFFFFFFFFFFFFFFFFFFFFFFFFFFFFFFFFFFF AND DUP2 MSTORE PUSH1 0x20 ADD SWAP1 DUP2 MSTORE PUSH1 0x20 ADD PUSH1 0x0 KECCAK256 DUP2 SWAP1 SSTORE POP DUP3 PUSH20 0xFFFFFFFFFFFFFFFFFFFFFFFFFFFFFFFFFFFFFFFF AND CALLER PUSH20 0xFFFFFFFFFFFFFFFFFFFFFFFFFFFFFFFFFFFFFFFF AND PUSH32 0x8C5BE1E5EBEC7D5BD14F71427D1E84F3DD0314C0F7B2291E5B200AC8C7C3B925 DUP5 PUSH1 0x40 MLOAD DUP1 DUP3 DUP2 MSTORE PUSH1 0x20 ADD SWAP2 POP POP PUSH1 0x40 MLOAD DUP1 SWAP2 SUB SWAP1 LOG3 PUSH1 0x1 SWAP1 POP SWAP3 SWAP2 POP POP JUMP JUMPDEST PUSH1 0x0 PUSH1 0x2 SLOAD SWAP1 POP SWAP1 JUMP JUMPDEST PUSH1 0x0 DUP1 PUSH1 0x0 DUP6 PUSH20 0xFFFFFFFFFFFFFFFFFFFFFFFFFFFFFFFFFFFFFFFF AND PUSH20 0xFFFFFFFFFFFFFFFFFFFFFFFFFFFFFFFFFFFFFFFF AND DUP2 MSTORE PUSH1 0x20 ADD SWAP1 DUP2 MSTORE PUSH1 0x20 ADD PUSH1 0x0 KECCAK256 SLOAD DUP3 GT ISZERO PUSH2 0x57B JUMPI PUSH1 0x0 DUP1 REVERT JUMPDEST PUSH1 0x1 PUSH1 0x0 DUP6 PUSH20 0xFFFFFFFFFFFFFFFFFFFFFFFFFFFFFFFFFFFFFFFF AND PUSH20 0xFFFFFFFFFFFFFFFFFFFFFFFFFFFFFFFFFFFFFFFF AND DUP2 MSTORE PUSH1 0x20 ADD SWAP1 DUP2 MSTORE PUSH1 0x20 ADD PUSH1 0x0 KECCAK256 PUSH1 0x0 CALLER PUSH20 0xFFFFFFFFFFFFFFFFFFFFFFFFFFFFFFFFFFFFFFFF AND PUSH20 0xFFFFFFFFFFFFFFFFFFFFFFFFFFFFFFFFFFFFFFFF AND DUP2 MSTORE PUSH1 0x20 ADD SWAP1 DUP2 MSTORE PUSH1 0x20 ADD PUSH1 0x0 KECCAK256 SLOAD DUP3 GT ISZERO PUSH2 0x604 JUMPI PUSH1 0x0 DUP1 REVERT JUMPDEST DUP2 PUSH1 0x0 DUP1 DUP7 PUSH20 0xFFFFFFFFFFFFFFFFFFFFFFFFFFFFFFFFFFFFFFFF AND PUSH20 0xFFFFFFFFFFFFFFFFFFFFFFFFFFFFFFFFFFFFFFFF AND DUP2 MSTORE PUSH1 0x20 ADD SWAP1 DUP2 MSTORE PUSH1 0x20 ADD PUSH1 0x0 KECCAK256 SLOAD SUB PUSH1 0x0 DUP1 DUP7 PUSH20 0xFFFFFFFFFFFFFFFFFFFFFFFFFFFFFFFFFFFFFFFF AND PUSH20 0xFFFFFFFFFFFFFFFFFFFFFFFFFFFFFFFFFFFFFFFF AND DUP2 MSTORE PUSH1 0x20 ADD SWAP1 DUP2 MSTORE PUSH1 0x20 ADD PUSH1 0x0 KECCAK256 DUP2 SWAP1 SSTORE POP DUP2 PUSH1 0x1 PUSH1 0x0 DUP7 PUSH20 0xFFFFFFFFFFFFFFFFFFFFFFFFFFFFFFFFFFFFFFFF AND PUSH20 0xFFFFFFFFFFFFFFFFFFFFFFFFFFFFFFFFFFFFFFFF AND DUP2 MSTORE PUSH1 0x20 ADD SWAP1 DUP2 MSTORE PUSH1 0x20 ADD PUSH1 0x0 KECCAK256 PUSH1 0x0 CALLER PUSH20 0xFFFFFFFFFFFFFFFFFFFFFFFFFFFFFFFFFFFFFFFF AND PUSH20 0xFFFFFFFFFFFFFFFFFFFFFFFFFFFFFFFFFFFFFFFF AND DUP2 MSTORE PUSH1 0x20 ADD SWAP1 DUP2 MSTORE PUSH1 0x20 ADD PUSH1 0x0 KECCAK256 SLOAD SUB PUSH1 0x1 PUSH1 0x0 DUP7 PUSH20 0xFFFFFFFFFFFFFFFFFFFFFFFFFFFFFFFFFFFFFFFF AND PUSH20 0xFFFFFFFFFFFFFFFFFFFFFFFFFFFFFFFFFFFFFFFF AND DUP2 MSTORE PUSH1 0x20 ADD SWAP1 DUP2 MSTORE PUSH1 0x20 ADD PUSH1 0x0 KECCAK256 PUSH1 0x0 CALLER PUSH20 0xFFFFFFFFFFFFFFFFFFFFFFFFFFFFFFFFFFFFFFFF AND PUSH20 0xFFFFFFFFFFFFFFFFFFFFFFFFFFFFFFFFFFFFFFFF AND DUP2 MSTORE PUSH1 0x20 ADD SWAP1 DUP2 MSTORE PUSH1 0x20 ADD PUSH1 0x0 KECCAK256 DUP2 SWAP1 SSTORE POP DUP2 PUSH1 0x0 DUP1 DUP6 PUSH20 0xFFFFFFFFFFFFFFFFFFFFFFFFFFFFFFFFFFFFFFFF AND PUSH20 0xFFFFFFFFFFFFFFFFFFFFFFFFFFFFFFFFFFFFFFFF AND DUP2 MSTORE PUSH1 0x20 ADD SWAP1 DUP2 MSTORE PUSH1 0x20 ADD PUSH1 0x0 KECCAK256 SLOAD ADD PUSH1 0x0 DUP1 DUP6 PUSH20 0xFFFFFFFFFFFFFFFFFFFFFFFFFFFFFFFFFFFFFFFF AND PUSH20 0xFFFFFFFFFFFFFFFFFFFFFFFFFFFFFFFFFFFFFFFF AND DUP2 MSTORE PUSH1 0x20 ADD SWAP1 DUP2 MSTORE PUSH1 0x20 ADD PUSH1 0x0 KECCAK256 DUP2 SWAP1 SSTORE POP DUP3 PUSH20 0xFFFFFFFFFFFFFFFFFFFFFFFFFFFFFFFFFFFFFFFF AND DUP5 PUSH20 0xFFFFFFFFFFFFFFFFFFFFFFFFFFFFFFFFFFFFFFFF AND PUSH32 0xDDF252AD1BE2C89B69C2B068FC378DAA952BA7F163C4A11628F55A4DF523B3EF DUP5 PUSH1 0x40 MLOAD DUP1 DUP3 DUP2 MSTORE PUSH1 0x20 ADD SWAP2 POP POP PUSH1 0x40 MLOAD DUP1 SWAP2 SUB SWAP1 LOG3 PUSH1 0x1 SWAP1 POP SWAP4 SWAP3 POP POP POP JUMP JUMPDEST PUSH1 0x12 DUP2 JUMP JUMPDEST PUSH1 0x0 DUP1 PUSH1 0x0 DUP4 PUSH20 0xFFFFFFFFFFFFFFFFFFFFFFFFFFFFFFFFFFFFFFFF AND PUSH20 0xFFFFFFFFFFFFFFFFFFFFFFFFFFFFFFFFFFFFFFFF AND DUP2 MSTORE PUSH1 0x20 ADD SWAP1 DUP2 MSTORE PUSH1 0x20 ADD PUSH1 0x0 KECCAK256 SLOAD SWAP1 POP SWAP2 SWAP1 POP JUMP JUMPDEST PUSH1 0x40 MLOAD DUP1 PUSH1 0x40 ADD PUSH1 0x40 MSTORE DUP1 PUSH1 0x3 DUP2 MSTORE PUSH1 0x20 ADD PUSH32 0x4552430000000000000000000000000000000000000000000000000000000000 DUP2 MSTORE POP DUP2 JUMP JUMPDEST PUSH1 0x0 DUP1 PUSH1 0x0 CALLER PUSH20 0xFFFFFFFFFFFFFFFFFFFFFFFFFFFFFFFFFFFFFFFF AND PUSH20 0xFFFFFFFFFFFFFFFFFFFFFFFFFFFFFFFFFFFFFFFF AND DUP2 MSTORE PUSH1 0x20 ADD SWAP1 DUP2 MSTORE PUSH1 0x20 ADD PUSH1 0x0 KECCAK256 SLOAD DUP3 GT ISZERO PUSH2 0x94C JUMPI PUSH1 0x0 DUP1 REVERT JUMPDEST DUP2 PUSH1 0x0 DUP1 CALLER PUSH20 0xFFFFFFFFFFFFFFFFFFFFFFFFFFFFFFFFFFFFFFFF AND PUSH20 0xFFFFFFFFFFFFFFFFFFFFFFFFFFFFFFFFFFFFFFFF AND DUP2 MSTORE PUSH1 0x20 ADD SWAP1 DUP2 MSTORE PUSH1 0x20 ADD PUSH1 0x0 KECCAK256 SLOAD SUB PUSH1 0x0 DUP1 CALLER PUSH20 0xFFFFFFFFFFFFFFFFFFFFFFFFFFFFFFFFFFFFFFFF AND PUSH20 0xFFFFFFFFFFFFFFFFFFFFFFFFFFFFFFFFFFFFFFFF AND DUP2 MSTORE PUSH1 0x20 ADD SWAP1 DUP2 MSTORE PUSH1 0x20 ADD PUSH1 0x0 KECCAK256 DUP2 SWAP1 SSTORE POP DUP2 PUSH1 0x0 DUP1 DUP6 PUSH20 0xFFFFFFFFFFFFFFFFFFFFFFFFFFFFFFFFFFFFFFFF AND PUSH20 0xFFFFFFFFFFFFFFFFFFFFFFFFFFFFFFFFFFFFFFFF AND DUP2 MSTORE PUSH1 0x20 ADD SWAP1 DUP2 MSTORE PUSH1 0x20 ADD PUSH1 0x0 KECCAK256 SLOAD ADD PUSH1 0x0 DUP1 DUP6 PUSH20 0xFFFFFFFFFFFFFFFFFFFFFFFFFFFFFFFFFFFFFFFF AND PUSH20 0xFFFFFFFFFFFFFFFFFFFFFFFFFFFFFFFFFFFFFFFF AND DUP2 MSTORE PUSH1 0x20 ADD SWAP1 DUP2 MSTORE PUSH1 0x20 ADD PUSH1 0x0 KECCAK256 DUP2 SWAP1 SSTORE POP DUP3 PUSH20 0xFFFFFFFFFFFFFFFFFFFFFFFFFFFFFFFFFFFFFFFF AND CALLER PUSH20 0xFFFFFFFFFFFFFFFFFFFFFFFFFFFFFFFFFFFFFFFF AND PUSH32 0xDDF252AD1BE2C89B69C2B068FC378DAA952BA7F163C4A11628F55A4DF523B3EF DUP5 PUSH1 0x40 MLOAD DUP1 DUP3 DUP2 MSTORE PUSH1 0x20 ADD SWAP2 POP POP PUSH1 0x40 MLOAD DUP1 SWAP2 SUB SWAP1 LOG3 PUSH1 0x1 SWAP1 POP SWAP3 SWAP2 POP POP JUMP JUMPDEST PUSH1 0x0 PUSH1 0x1 PUSH1 0x0 DUP5 PUSH20 0xFFFFFFFFFFFFFFFFFFFFFFFFFFFFFFFFFFFFFFFF AND PUSH20 0xFFFFFFFFFFFFFFFFFFFFFFFFFFFFFFFFFFFFFFFF AND DUP2 MSTORE PUSH1 0x20 ADD SWAP1 DUP2 MSTORE PUSH1 0x20 ADD PUSH1 0x0 KECCAK256 PUSH1 0x0 DUP4 PUSH20 0xFFFFFFFFFFFFFFFFFFFFFFFFFFFFFFFFFFFFFFFF AND PUSH20 0xFFFFFFFFFFFFFFFFFFFFFFFFFFFFFFFFFFFFFFFF AND DUP2 MSTORE PUSH1 0x20 ADD SWAP1 DUP2 MSTORE PUSH1 0x20 ADD PUSH1 0x0 KECCAK256 SLOAD SWAP1 POP SWAP3 SWAP2 POP POP JUMP INVALID LOG2 PUSH5 0x6970667358 0x22 SLT KECCAK256 SUB 0xB0 0xFB STOP 0x23 MSTORE8 0xB3 0xD1 REVERT 0x4C DUP14 0xCC 0xB4 0xD0 JUMP DUP1 DUP2 0x4B 0x23 PUSH16 0xA03C79AD83D9C625047D8E9364736F6C PUSH4 0x4300060C STOP CALLER "
				},
				"gasEstimates": {
					"creation": {
						"codeDepositCost": "454200",
						"executionCost": "infinite",
						"totalCost": "infinite"
					},
					"external": {
						"airdrop()": "42811",
						"balances(address)": "1147",
						"deposit(uint256)": "infinite",
						"token()": "1185",
						"transfers(address[],uint256)": "infinite",
						"withdraw(uint256)": "infinite"
					}
				},
				"methodIdentifiers": {
					"airdrop()": "3884d635",
					"balances(address)": "27e235e3",
					"deposit(uint256)": "b6b55f25",
					"token()": "fc0c546a",
					"transfers(address[],uint256)": "95f709d9",
					"withdraw(uint256)": "2e1a7d4d"
				}
			},
			"storageLayout": {
				"storage": [
					{
						"astId": 302,
						"contract": "shoot/2/整型溢出/1.sol:amountOut",
						"label": "decimals",
						"offset": 0,
						"slot": "0",
						"type": "t_uint256"
					},
					{
						"astId": 306,
						"contract": "shoot/2/整型溢出/1.sol:amountOut",
						"label": "balances",
						"offset": 0,
						"slot": "1",
						"type": "t_mapping(t_address,t_uint256)"
					},
					{
						"astId": 308,
						"contract": "shoot/2/整型溢出/1.sol:amountOut",
						"label": "airdroped",
						"offset": 0,
						"slot": "2",
						"type": "t_bool"
					},
					{
						"astId": 313,
						"contract": "shoot/2/整型溢出/1.sol:amountOut",
						"label": "token",
						"offset": 1,
						"slot": "2",
						"type": "t_contract(ERC20)299"
					}
				],
				"types": {
					"t_address": {
						"encoding": "inplace",
						"label": "address",
						"numberOfBytes": "20"
					},
					"t_bool": {
						"encoding": "inplace",
						"label": "bool",
						"numberOfBytes": "1"
					},
					"t_contract(ERC20)299": {
						"encoding": "inplace",
						"label": "contract ERC20",
						"numberOfBytes": "20"
					},
					"t_mapping(t_address,t_uint256)": {
						"encoding": "mapping",
						"key": "t_address",
						"label": "mapping(address => uint256)",
						"numberOfBytes": "32",
						"value": "t_uint256"
					},
					"t_uint256": {
						"encoding": "inplace",
						"label": "uint256",
						"numberOfBytes": "32"
					}
				}
			},
			"userdoc": {
				"kind": "user",
				"methods": {},
				"version": 1
			}
		}
	}
}