{
	"shoot/1/dos/dos.sol": {
		"Check": {
			"abi": [
				{
					"inputs": [],
					"stateMutability": "nonpayable",
					"type": "constructor"
				},
				{
					"stateMutability": "payable",
					"type": "fallback"
				},
				{
					"inputs": [],
					"name": "check",
					"outputs": [],
					"stateMutability": "payable",
					"type": "function"
				},
				{
					"inputs": [],
					"name": "getPriceNow",
					"outputs": [],
					"stateMutability": "nonpayable",
					"type": "function"
				},
				{
					"inputs": [],
					"name": "isCompleted",
					"outputs": [],
					"stateMutability": "payable",
					"type": "function"
				},
				{
					"inputs": [],
					"name": "king",
					"outputs": [
						{
							"internalType": "contract King",
							"name": "",
							"type": "address"
						}
					],
					"stateMutability": "view",
					"type": "function"
				},
				{
					"inputs": [],
					"name": "prize",
					"outputs": [
						{
							"internalType": "uint256",
							"name": "",
							"type": "uint256"
						}
					],
					"stateMutability": "view",
					"type": "function"
				},
				{
					"inputs": [],
					"name": "score",
					"outputs": [
						{
							"internalType": "uint256",
							"name": "",
							"type": "uint256"
						}
					],
					"stateMutability": "view",
					"type": "function"
				},
				{
					"inputs": [],
					"name": "victim",
					"outputs": [
						{
							"internalType": "address",
							"name": "",
							"type": "address"
						}
					],
					"stateMutability": "view",
					"type": "function"
				},
				{
					"stateMutability": "payable",
					"type": "receive"
				}
			],
			"devdoc": {
				"kind": "dev",
				"methods": {},
				"version": 1
			},
			"evm": {
				"assembly": "    /* \"shoot/1/dos/dos.sol\":692:2149  contract Check {\r... */\n  mstore(0x40, 0x80)\n    /* \"shoot/1/dos/dos.sol\":986:1105  constructor() public {\r... */\n  callvalue\n  dup1\n  iszero\n  tag_1\n  jumpi\n  0x00\n  dup1\n  revert\ntag_1:\n  pop\n    /* \"shoot/1/dos/dos.sol\":1025:1035  new King() */\n  mload(0x40)\n  tag_4\n  swap1\n  tag_5\n  jump\t// in\ntag_4:\n  mload(0x40)\n  dup1\n  swap2\n  sub\n  swap1\n  0x00\n  create\n  dup1\n  iszero\n  dup1\n  iszero\n  tag_6\n  jumpi\n  returndatasize\n  0x00\n  dup1\n  returndatacopy\n  revert(0x00, returndatasize)\ntag_6:\n  pop\n    /* \"shoot/1/dos/dos.sol\":1018:1022  king */\n  0x01\n  0x00\n    /* \"shoot/1/dos/dos.sol\":1018:1035  king = new King() */\n  0x0100\n  exp\n  dup2\n  sload\n  dup2\n  0xffffffffffffffffffffffffffffffffffffffff\n  mul\n  not\n  and\n  swap1\n  dup4\n  0xffffffffffffffffffffffffffffffffffffffff\n  and\n  mul\n  or\n  swap1\n  sstore\n  pop\n    /* \"shoot/1/dos/dos.sol\":1063:1067  king */\n  0x01\n  0x00\n  swap1\n  sload\n  swap1\n  0x0100\n  exp\n  swap1\n  div\n  0xffffffffffffffffffffffffffffffffffffffff\n  and\n    /* \"shoot/1/dos/dos.sol\":1046:1052  victim */\n  0x00\n  dup1\n    /* \"shoot/1/dos/dos.sol\":1046:1068  victim = address(king) */\n  0x0100\n  exp\n  dup2\n  sload\n  dup2\n  0xffffffffffffffffffffffffffffffffffffffff\n  mul\n  not\n  and\n  swap1\n  dup4\n  0xffffffffffffffffffffffffffffffffffffffff\n  and\n  mul\n  or\n  swap1\n  sstore\n  pop\n    /* \"shoot/1/dos/dos.sol\":1087:1097  msg.sender */\n  caller\n    /* \"shoot/1/dos/dos.sol\":1079:1084  owner */\n  0x04\n  0x00\n    /* \"shoot/1/dos/dos.sol\":1079:1097  owner = msg.sender */\n  0x0100\n  exp\n  dup2\n  sload\n  dup2\n  0xffffffffffffffffffffffffffffffffffffffff\n  mul\n  not\n  and\n  swap1\n  dup4\n  0xffffffffffffffffffffffffffffffffffffffff\n  and\n  mul\n  or\n  swap1\n  sstore\n  pop\n    /* \"shoot/1/dos/dos.sol\":692:2149  contract Check {\r... */\n  jump(tag_7)\ntag_5:\n  dataSize(sub_1)\n  dup1\n  dataOffset(sub_1)\n  dup4\n  codecopy\n  add\n  swap1\n  jump\t// out\ntag_7:\n  dataSize(sub_0)\n  dup1\n  dataOffset(sub_0)\n  0x00\n  codecopy\n  0x00\n  return\nstop\n\nsub_0: assembly {\n        /* \"shoot/1/dos/dos.sol\":692:2149  contract Check {\r... */\n      mstore(0x40, 0x80)\n      jumpi(tag_1, lt(calldatasize, 0x04))\n      shr(0xe0, calldataload(0x00))\n      dup1\n      0xcc181ca8\n      gt\n      tag_10\n      jumpi\n      dup1\n      0xcc181ca8\n      eq\n      tag_6\n      jumpi\n      dup1\n      0xe3ac5d26\n      eq\n      tag_7\n      jumpi\n      dup1\n      0xefedc669\n      eq\n      tag_8\n      jumpi\n      dup1\n      0xfa391c64\n      eq\n      tag_9\n      jumpi\n      jump(tag_2)\n    tag_10:\n      dup1\n      0x5c854680\n      eq\n      tag_3\n      jumpi\n      dup1\n      0x919840ad\n      eq\n      tag_4\n      jumpi\n      dup1\n      0x930c2003\n      eq\n      tag_5\n      jumpi\n      jump(tag_2)\n    tag_1:\n      jumpi(tag_2, calldatasize)\n      stop\n    tag_2:\n      stop\n        /* \"shoot/1/dos/dos.sol\":1113:1182  function getPriceNow() public {\r... */\n    tag_3:\n      callvalue\n      dup1\n      iszero\n      tag_15\n      jumpi\n      0x00\n      dup1\n      revert\n    tag_15:\n      pop\n      tag_16\n      tag_17\n      jump\t// in\n    tag_16:\n      stop\n        /* \"shoot/1/dos/dos.sol\":1190:1345  function check() public onlyWhitelist payable{\r... */\n    tag_4:\n      tag_18\n      tag_19\n      jump\t// in\n    tag_18:\n      stop\n        /* \"shoot/1/dos/dos.sol\":714:735  address public victim */\n    tag_5:\n      callvalue\n      dup1\n      iszero\n      tag_20\n      jumpi\n      0x00\n      dup1\n      revert\n    tag_20:\n      pop\n      tag_21\n      tag_22\n      jump\t// in\n    tag_21:\n      mload(0x40)\n      dup1\n      dup3\n      0xffffffffffffffffffffffffffffffffffffffff\n      and\n      dup2\n      mstore\n      0x20\n      add\n      swap2\n      pop\n      pop\n      mload(0x40)\n      dup1\n      swap2\n      sub\n      swap1\n      return\n        /* \"shoot/1/dos/dos.sol\":742:758  King public king */\n    tag_6:\n      callvalue\n      dup1\n      iszero\n      tag_23\n      jumpi\n      0x00\n      dup1\n      revert\n    tag_23:\n      pop\n      tag_24\n      tag_25\n      jump\t// in\n    tag_24:\n      mload(0x40)\n      dup1\n      dup3\n      0xffffffffffffffffffffffffffffffffffffffff\n      and\n      dup2\n      mstore\n      0x20\n      add\n      swap2\n      pop\n      pop\n      mload(0x40)\n      dup1\n      swap2\n      sub\n      swap1\n      return\n        /* \"shoot/1/dos/dos.sol\":765:782  uint public prize */\n    tag_7:\n      callvalue\n      dup1\n      iszero\n      tag_26\n      jumpi\n      0x00\n      dup1\n      revert\n    tag_26:\n      pop\n      tag_27\n      tag_28\n      jump\t// in\n    tag_27:\n      mload(0x40)\n      dup1\n      dup3\n      dup2\n      mstore\n      0x20\n      add\n      swap2\n      pop\n      pop\n      mload(0x40)\n      dup1\n      swap2\n      sub\n      swap1\n      return\n        /* \"shoot/1/dos/dos.sol\":809:829  uint256 public score */\n    tag_8:\n      callvalue\n      dup1\n      iszero\n      tag_29\n      jumpi\n      0x00\n      dup1\n      revert\n    tag_29:\n      pop\n      tag_30\n      tag_31\n      jump\t// in\n    tag_30:\n      mload(0x40)\n      dup1\n      dup3\n      dup2\n      mstore\n      0x20\n      add\n      swap2\n      pop\n      pop\n      mload(0x40)\n      dup1\n      swap2\n      sub\n      swap1\n      return\n        /* \"shoot/1/dos/dos.sol\":1548:2034  function isCompleted() public payable{\r... */\n    tag_9:\n      tag_32\n      tag_33\n      jump\t// in\n    tag_32:\n      stop\n        /* \"shoot/1/dos/dos.sol\":1113:1182  function getPriceNow() public {\r... */\n    tag_17:\n        /* \"shoot/1/dos/dos.sol\":1162:1166  king */\n      0x01\n      0x00\n      swap1\n      sload\n      swap1\n      0x0100\n      exp\n      swap1\n      div\n      0xffffffffffffffffffffffffffffffffffffffff\n      and\n        /* \"shoot/1/dos/dos.sol\":1162:1172  king.prize */\n      0xffffffffffffffffffffffffffffffffffffffff\n      and\n      0xe3ac5d26\n        /* \"shoot/1/dos/dos.sol\":1162:1174  king.prize() */\n      mload(0x40)\n      dup2\n      0xffffffff\n      and\n      0xe0\n      shl\n      dup2\n      mstore\n      0x04\n      add\n      0x20\n      mload(0x40)\n      dup1\n      dup4\n      sub\n      dup2\n      dup7\n      dup1\n      extcodesize\n      iszero\n      dup1\n      iszero\n      tag_35\n      jumpi\n      0x00\n      dup1\n      revert\n    tag_35:\n      pop\n      gas\n      staticcall\n      iszero\n      dup1\n      iszero\n      tag_37\n      jumpi\n      returndatasize\n      0x00\n      dup1\n      returndatacopy\n      revert(0x00, returndatasize)\n    tag_37:\n      pop\n      pop\n      pop\n      pop\n      mload(0x40)\n      returndatasize\n      0x20\n      dup2\n      lt\n      iszero\n      tag_38\n      jumpi\n      0x00\n      dup1\n      revert\n    tag_38:\n      dup2\n      add\n      swap1\n      dup1\n      dup1\n      mload\n      swap1\n      0x20\n      add\n      swap1\n      swap3\n      swap2\n      swap1\n      pop\n      pop\n      pop\n        /* \"shoot/1/dos/dos.sol\":1154:1159  prize */\n      0x02\n        /* \"shoot/1/dos/dos.sol\":1154:1174  prize = king.prize() */\n      dup2\n      swap1\n      sstore\n      pop\n        /* \"shoot/1/dos/dos.sol\":1113:1182  function getPriceNow() public {\r... */\n      jump\t// out\n        /* \"shoot/1/dos/dos.sol\":1190:1345  function check() public onlyWhitelist payable{\r... */\n    tag_19:\n        /* \"shoot/1/dos/dos.sol\":923:928  owner */\n      0x04\n      0x00\n      swap1\n      sload\n      swap1\n      0x0100\n      exp\n      swap1\n      div\n      0xffffffffffffffffffffffffffffffffffffffff\n      and\n        /* \"shoot/1/dos/dos.sol\":909:928  msg.sender == owner */\n      0xffffffffffffffffffffffffffffffffffffffff\n      and\n        /* \"shoot/1/dos/dos.sol\":909:919  msg.sender */\n      caller\n        /* \"shoot/1/dos/dos.sol\":909:928  msg.sender == owner */\n      0xffffffffffffffffffffffffffffffffffffffff\n      and\n      eq\n        /* \"shoot/1/dos/dos.sol\":909:959  msg.sender == owner || msg.sender == address(this) */\n      dup1\n      tag_40\n      jumpi\n      pop\n        /* \"shoot/1/dos/dos.sol\":954:958  this */\n      address\n        /* \"shoot/1/dos/dos.sol\":932:959  msg.sender == address(this) */\n      0xffffffffffffffffffffffffffffffffffffffff\n      and\n        /* \"shoot/1/dos/dos.sol\":932:942  msg.sender */\n      caller\n        /* \"shoot/1/dos/dos.sol\":932:959  msg.sender == address(this) */\n      0xffffffffffffffffffffffffffffffffffffffff\n      and\n      eq\n        /* \"shoot/1/dos/dos.sol\":909:959  msg.sender == owner || msg.sender == address(this) */\n    tag_40:\n        /* \"shoot/1/dos/dos.sol\":901:960  require(msg.sender == owner || msg.sender == address(this)) */\n      tag_41\n      jumpi\n      0x00\n      dup1\n      revert\n    tag_41:\n        /* \"shoot/1/dos/dos.sol\":1266:1270  king */\n      0x01\n      0x00\n      swap1\n      sload\n      swap1\n      0x0100\n      exp\n      swap1\n      div\n      0xffffffffffffffffffffffffffffffffffffffff\n      and\n        /* \"shoot/1/dos/dos.sol\":1266:1276  king.prize */\n      0xffffffffffffffffffffffffffffffffffffffff\n      and\n      0xe3ac5d26\n        /* \"shoot/1/dos/dos.sol\":1266:1278  king.prize() */\n      mload(0x40)\n      dup2\n      0xffffffff\n      and\n      0xe0\n      shl\n      dup2\n      mstore\n      0x04\n      add\n      0x20\n      mload(0x40)\n      dup1\n      dup4\n      sub\n      dup2\n      dup7\n      dup1\n      extcodesize\n      iszero\n      dup1\n      iszero\n      tag_43\n      jumpi\n      0x00\n      dup1\n      revert\n    tag_43:\n      pop\n      gas\n      staticcall\n      iszero\n      dup1\n      iszero\n      tag_45\n      jumpi\n      returndatasize\n      0x00\n      dup1\n      returndatacopy\n      revert(0x00, returndatasize)\n    tag_45:\n      pop\n      pop\n      pop\n      pop\n      mload(0x40)\n      returndatasize\n      0x20\n      dup2\n      lt\n      iszero\n      tag_46\n      jumpi\n      0x00\n      dup1\n      revert\n    tag_46:\n      dup2\n      add\n      swap1\n      dup1\n      dup1\n      mload\n      swap1\n      0x20\n      add\n      swap1\n      swap3\n      swap2\n      swap1\n      pop\n      pop\n      pop\n        /* \"shoot/1/dos/dos.sol\":1254:1263  msg.value */\n      callvalue\n        /* \"shoot/1/dos/dos.sol\":1254:1278  msg.value > king.prize() */\n      gt\n        /* \"shoot/1/dos/dos.sol\":1246:1279  require(msg.value > king.prize()) */\n      tag_47\n      jumpi\n      0x00\n      dup1\n      revert\n    tag_47:\n        /* \"shoot/1/dos/dos.sol\":1290:1296  victim */\n      0x00\n      dup1\n      sload\n      swap1\n      0x0100\n      exp\n      swap1\n      div\n      0xffffffffffffffffffffffffffffffffffffffff\n      and\n        /* \"shoot/1/dos/dos.sol\":1290:1301  victim.call */\n      0xffffffffffffffffffffffffffffffffffffffff\n      and\n        /* \"shoot/1/dos/dos.sol\":1306:1313  1000000 */\n      0x0f4240\n        /* \"shoot/1/dos/dos.sol\":1323:1332  msg.value */\n      callvalue\n        /* \"shoot/1/dos/dos.sol\":1290:1337  victim.call{gas:1000000}{value : msg.value}(\"\") */\n      mload(0x40)\n      dup1\n      0x00\n      add\n      swap1\n      pop\n      0x00\n      mload(0x40)\n      dup1\n      dup4\n      sub\n      dup2\n      dup6\n      dup9\n      dup9\n      call\n      swap4\n      pop\n      pop\n      pop\n      pop\n      returndatasize\n      dup1\n      0x00\n      dup2\n      eq\n      tag_50\n      jumpi\n      mload(0x40)\n      swap2\n      pop\n      and(add(returndatasize, 0x3f), not(0x1f))\n      dup3\n      add\n      0x40\n      mstore\n      returndatasize\n      dup3\n      mstore\n      returndatasize\n      0x00\n      0x20\n      dup5\n      add\n      returndatacopy\n      jump(tag_49)\n    tag_50:\n      0x60\n      swap2\n      pop\n    tag_49:\n      pop\n      pop\n      pop\n        /* \"shoot/1/dos/dos.sol\":1190:1345  function check() public onlyWhitelist payable{\r... */\n      jump\t// out\n        /* \"shoot/1/dos/dos.sol\":714:735  address public victim */\n    tag_22:\n      0x00\n      dup1\n      sload\n      swap1\n      0x0100\n      exp\n      swap1\n      div\n      0xffffffffffffffffffffffffffffffffffffffff\n      and\n      dup2\n      jump\t// out\n        /* \"shoot/1/dos/dos.sol\":742:758  King public king */\n    tag_25:\n      0x01\n      0x00\n      swap1\n      sload\n      swap1\n      0x0100\n      exp\n      swap1\n      div\n      0xffffffffffffffffffffffffffffffffffffffff\n      and\n      dup2\n      jump\t// out\n        /* \"shoot/1/dos/dos.sol\":765:782  uint public prize */\n    tag_28:\n      sload(0x02)\n      dup2\n      jump\t// out\n        /* \"shoot/1/dos/dos.sol\":809:829  uint256 public score */\n    tag_31:\n      sload(0x03)\n      dup2\n      jump\t// out\n        /* \"shoot/1/dos/dos.sol\":1548:2034  function isCompleted() public payable{\r... */\n    tag_33:\n        /* \"shoot/1/dos/dos.sol\":1604:1605  0 */\n      0x00\n        /* \"shoot/1/dos/dos.sol\":1596:1601  score */\n      0x03\n        /* \"shoot/1/dos/dos.sol\":1596:1605  score = 0 */\n      dup2\n      swap1\n      sstore\n      pop\n        /* \"shoot/1/dos/dos.sol\":1686:1687  1 */\n      0x01\n        /* \"shoot/1/dos/dos.sol\":1671:1675  king */\n      dup1\n      0x00\n      swap1\n      sload\n      swap1\n      0x0100\n      exp\n      swap1\n      div\n      0xffffffffffffffffffffffffffffffffffffffff\n      and\n        /* \"shoot/1/dos/dos.sol\":1671:1680  king.nums */\n      0xffffffffffffffffffffffffffffffffffffffff\n      and\n      0xd5b13259\n        /* \"shoot/1/dos/dos.sol\":1671:1682  king.nums() */\n      mload(0x40)\n      dup2\n      0xffffffff\n      and\n      0xe0\n      shl\n      dup2\n      mstore\n      0x04\n      add\n      0x20\n      mload(0x40)\n      dup1\n      dup4\n      sub\n      dup2\n      dup7\n      dup1\n      extcodesize\n      iszero\n      dup1\n      iszero\n      tag_52\n      jumpi\n      0x00\n      dup1\n      revert\n    tag_52:\n      pop\n      gas\n      staticcall\n      iszero\n      dup1\n      iszero\n      tag_54\n      jumpi\n      returndatasize\n      0x00\n      dup1\n      returndatacopy\n      revert(0x00, returndatasize)\n    tag_54:\n      pop\n      pop\n      pop\n      pop\n      mload(0x40)\n      returndatasize\n      0x20\n      dup2\n      lt\n      iszero\n      tag_55\n      jumpi\n      0x00\n      dup1\n      revert\n    tag_55:\n      dup2\n      add\n      swap1\n      dup1\n      dup1\n      mload\n      swap1\n      0x20\n      add\n      swap1\n      swap3\n      swap2\n      swap1\n      pop\n      pop\n      pop\n        /* \"shoot/1/dos/dos.sol\":1671:1687  king.nums() >= 1 */\n      lt\n        /* \"shoot/1/dos/dos.sol\":1668:2017  if(king.nums() >= 1){\r... */\n      tag_56\n      jumpi\n        /* \"shoot/1/dos/dos.sol\":1711:1713  50 */\n      0x32\n        /* \"shoot/1/dos/dos.sol\":1703:1708  score */\n      0x03\n        /* \"shoot/1/dos/dos.sol\":1703:1713  score = 50 */\n      dup2\n      swap1\n      sstore\n      pop\n        /* \"shoot/1/dos/dos.sol\":1728:1746  address kingbefore */\n      0x00\n        /* \"shoot/1/dos/dos.sol\":1749:1753  king */\n      0x01\n      0x00\n      swap1\n      sload\n      swap1\n      0x0100\n      exp\n      swap1\n      div\n      0xffffffffffffffffffffffffffffffffffffffff\n      and\n        /* \"shoot/1/dos/dos.sol\":1749:1759  king._king */\n      0xffffffffffffffffffffffffffffffffffffffff\n      and\n      0x29cc6d6f\n        /* \"shoot/1/dos/dos.sol\":1749:1761  king._king() */\n      mload(0x40)\n      dup2\n      0xffffffff\n      and\n      0xe0\n      shl\n      dup2\n      mstore\n      0x04\n      add\n      0x20\n      mload(0x40)\n      dup1\n      dup4\n      sub\n      dup2\n      dup7\n      dup1\n      extcodesize\n      iszero\n      dup1\n      iszero\n      tag_57\n      jumpi\n      0x00\n      dup1\n      revert\n    tag_57:\n      pop\n      gas\n      staticcall\n      iszero\n      dup1\n      iszero\n      tag_59\n      jumpi\n      returndatasize\n      0x00\n      dup1\n      returndatacopy\n      revert(0x00, returndatasize)\n    tag_59:\n      pop\n      pop\n      pop\n      pop\n      mload(0x40)\n      returndatasize\n      0x20\n      dup2\n      lt\n      iszero\n      tag_60\n      jumpi\n      0x00\n      dup1\n      revert\n    tag_60:\n      dup2\n      add\n      swap1\n      dup1\n      dup1\n      mload\n      swap1\n      0x20\n      add\n      swap1\n      swap3\n      swap2\n      swap1\n      pop\n      pop\n      pop\n        /* \"shoot/1/dos/dos.sol\":1728:1761  address kingbefore = king._king() */\n      swap1\n      pop\n        /* \"shoot/1/dos/dos.sol\":1776:1780  this */\n      address\n        /* \"shoot/1/dos/dos.sol\":1776:1786  this.check */\n      0xffffffffffffffffffffffffffffffffffffffff\n      and\n      0x919840ad\n        /* \"shoot/1/dos/dos.sol\":1795:1804  msg.value */\n      callvalue\n        /* \"shoot/1/dos/dos.sol\":1776:1807  this.check{value : msg.value}() */\n      mload(0x40)\n      dup3\n      0xffffffff\n      and\n      0xe0\n      shl\n      dup2\n      mstore\n      0x04\n      add\n      0x00\n      mload(0x40)\n      dup1\n      dup4\n      sub\n      dup2\n      dup6\n      dup9\n      dup1\n      extcodesize\n      iszero\n      dup1\n      iszero\n      tag_61\n      jumpi\n      0x00\n      dup1\n      revert\n    tag_61:\n      pop\n      gas\n      call\n      iszero\n      dup1\n      iszero\n      tag_63\n      jumpi\n      returndatasize\n      0x00\n      dup1\n      returndatacopy\n      revert(0x00, returndatasize)\n    tag_63:\n      pop\n      pop\n      pop\n      pop\n      pop\n        /* \"shoot/1/dos/dos.sol\":1822:1839  address kingafter */\n      0x00\n        /* \"shoot/1/dos/dos.sol\":1842:1846  king */\n      0x01\n      0x00\n      swap1\n      sload\n      swap1\n      0x0100\n      exp\n      swap1\n      div\n      0xffffffffffffffffffffffffffffffffffffffff\n      and\n        /* \"shoot/1/dos/dos.sol\":1842:1852  king._king */\n      0xffffffffffffffffffffffffffffffffffffffff\n      and\n      0x29cc6d6f\n        /* \"shoot/1/dos/dos.sol\":1842:1854  king._king() */\n      mload(0x40)\n      dup2\n      0xffffffff\n      and\n      0xe0\n      shl\n      dup2\n      mstore\n      0x04\n      add\n      0x20\n      mload(0x40)\n      dup1\n      dup4\n      sub\n      dup2\n      dup7\n      dup1\n      extcodesize\n      iszero\n      dup1\n      iszero\n      tag_64\n      jumpi\n      0x00\n      dup1\n      revert\n    tag_64:\n      pop\n      gas\n      staticcall\n      iszero\n      dup1\n      iszero\n      tag_66\n      jumpi\n      returndatasize\n      0x00\n      dup1\n      returndatacopy\n      revert(0x00, returndatasize)\n    tag_66:\n      pop\n      pop\n      pop\n      pop\n      mload(0x40)\n      returndatasize\n      0x20\n      dup2\n      lt\n      iszero\n      tag_67\n      jumpi\n      0x00\n      dup1\n      revert\n    tag_67:\n      dup2\n      add\n      swap1\n      dup1\n      dup1\n      mload\n      swap1\n      0x20\n      add\n      swap1\n      swap3\n      swap2\n      swap1\n      pop\n      pop\n      pop\n        /* \"shoot/1/dos/dos.sol\":1822:1854  address kingafter = king._king() */\n      swap1\n      pop\n        /* \"shoot/1/dos/dos.sol\":1950:1959  kingafter */\n      dup1\n        /* \"shoot/1/dos/dos.sol\":1936:1959  kingbefore == kingafter */\n      0xffffffffffffffffffffffffffffffffffffffff\n      and\n        /* \"shoot/1/dos/dos.sol\":1936:1946  kingbefore */\n      dup3\n        /* \"shoot/1/dos/dos.sol\":1936:1959  kingbefore == kingafter */\n      0xffffffffffffffffffffffffffffffffffffffff\n      and\n      eq\n        /* \"shoot/1/dos/dos.sol\":1933:2006  if(kingbefore == kingafter){\r... */\n      iszero\n      tag_68\n      jumpi\n        /* \"shoot/1/dos/dos.sol\":1987:1990  100 */\n      0x64\n        /* \"shoot/1/dos/dos.sol\":1979:1984  score */\n      0x03\n        /* \"shoot/1/dos/dos.sol\":1979:1990  score = 100 */\n      dup2\n      swap1\n      sstore\n      pop\n        /* \"shoot/1/dos/dos.sol\":1933:2006  if(kingbefore == kingafter){\r... */\n    tag_68:\n        /* \"shoot/1/dos/dos.sol\":1668:2017  if(king.nums() >= 1){\r... */\n      pop\n      pop\n    tag_56:\n        /* \"shoot/1/dos/dos.sol\":1548:2034  function isCompleted() public payable{\r... */\n      jump\t// out\n\n    auxdata: 0xa264697066735822122060b9934797c2e5bc48b35644ac04adf220932ba1b2367e0036a862da06dae4b764736f6c634300060c0033\n}\n\nsub_1: assembly {\n        /* \"shoot/1/dos/dos.sol\":92:688  contract King {\r... */\n      mstore(0x40, 0x80)\n        /* \"shoot/1/dos/dos.sol\":160:161  0 */\n      0x00\n        /* \"shoot/1/dos/dos.sol\":140:161  uint public prize = 0 */\n      0x01\n      sstore\n        /* \"shoot/1/dos/dos.sol\":306:316  msg.sender */\n      caller\n        /* \"shoot/1/dos/dos.sol\":298:303  owner */\n      0x02\n      0x00\n        /* \"shoot/1/dos/dos.sol\":298:316  owner = msg.sender */\n      0x0100\n      exp\n      dup2\n      sload\n      dup2\n      0xffffffffffffffffffffffffffffffffffffffff\n      mul\n      not\n      and\n      swap1\n      dup4\n      0xffffffffffffffffffffffffffffffffffffffff\n      and\n      mul\n      or\n      swap1\n      sstore\n      pop\n        /* \"shoot/1/dos/dos.sol\":336:346  msg.sender */\n      caller\n        /* \"shoot/1/dos/dos.sol\":329:333  king */\n      0x00\n      dup1\n        /* \"shoot/1/dos/dos.sol\":329:346  king = msg.sender */\n      0x0100\n      exp\n      dup2\n      sload\n      dup2\n      0xffffffffffffffffffffffffffffffffffffffff\n      mul\n      not\n      and\n      swap1\n      dup4\n      0xffffffffffffffffffffffffffffffffffffffff\n      and\n      mul\n      or\n      swap1\n      sstore\n      pop\n        /* \"shoot/1/dos/dos.sol\":92:688  contract King {\r... */\n      dataSize(sub_0)\n      dup1\n      dataOffset(sub_0)\n      0x00\n      codecopy\n      0x00\n      return\n    stop\n\n    sub_0: assembly {\n            /* \"shoot/1/dos/dos.sol\":92:688  contract King {\r... */\n          mstore(0x40, 0x80)\n          jumpi(tag_1, lt(calldatasize, 0x04))\n          shr(0xe0, calldataload(0x00))\n          dup1\n          0x29cc6d6f\n          eq\n          tag_3\n          jumpi\n          dup1\n          0x8da5cb5b\n          eq\n          tag_4\n          jumpi\n          dup1\n          0xd5b13259\n          eq\n          tag_5\n          jumpi\n          dup1\n          0xe3ac5d26\n          eq\n          tag_6\n          jumpi\n          dup1\n          0xefedc669\n          eq\n          tag_7\n          jumpi\n          jump(tag_2)\n        tag_1:\n          jumpi(tag_2, calldatasize)\n            /* \"shoot/1/dos/dos.sol\":420:425  prize */\n          sload(0x01)\n            /* \"shoot/1/dos/dos.sol\":408:417  msg.value */\n          callvalue\n            /* \"shoot/1/dos/dos.sol\":408:425  msg.value > prize */\n          gt\n            /* \"shoot/1/dos/dos.sol\":408:448  msg.value > prize || msg.sender == owner */\n          dup1\n          tag_10\n          jumpi\n          pop\n            /* \"shoot/1/dos/dos.sol\":443:448  owner */\n          0x02\n          0x00\n          swap1\n          sload\n          swap1\n          0x0100\n          exp\n          swap1\n          div\n          0xffffffffffffffffffffffffffffffffffffffff\n          and\n            /* \"shoot/1/dos/dos.sol\":429:448  msg.sender == owner */\n          0xffffffffffffffffffffffffffffffffffffffff\n          and\n            /* \"shoot/1/dos/dos.sol\":429:439  msg.sender */\n          caller\n            /* \"shoot/1/dos/dos.sol\":429:448  msg.sender == owner */\n          0xffffffffffffffffffffffffffffffffffffffff\n          and\n          eq\n            /* \"shoot/1/dos/dos.sol\":408:448  msg.value > prize || msg.sender == owner */\n        tag_10:\n            /* \"shoot/1/dos/dos.sol\":400:459  require(msg.value > prize || msg.sender == owner, \"error1\") */\n          tag_11\n          jumpi\n          mload(0x40)\n          0x08c379a000000000000000000000000000000000000000000000000000000000\n          dup2\n          mstore\n          0x04\n          add\n          dup1\n          dup1\n          0x20\n          add\n          dup3\n          dup2\n          sub\n          dup3\n          mstore\n          0x06\n          dup2\n          mstore\n          0x20\n          add\n          dup1\n          0x6572726f72310000000000000000000000000000000000000000000000000000\n          dup2\n          mstore\n          pop\n          0x20\n          add\n          swap2\n          pop\n          pop\n          mload(0x40)\n          dup1\n          swap2\n          sub\n          swap1\n          revert\n        tag_11:\n            /* \"shoot/1/dos/dos.sol\":478:482  king */\n          0x00\n          dup1\n          sload\n          swap1\n          0x0100\n          exp\n          swap1\n          div\n          0xffffffffffffffffffffffffffffffffffffffff\n          and\n            /* \"shoot/1/dos/dos.sol\":478:487  king.send */\n          0xffffffffffffffffffffffffffffffffffffffff\n          and\n            /* \"shoot/1/dos/dos.sol\":478:498  king.send(msg.value) */\n          0x08fc\n            /* \"shoot/1/dos/dos.sol\":488:497  msg.value */\n          callvalue\n            /* \"shoot/1/dos/dos.sol\":478:498  king.send(msg.value) */\n          swap1\n          dup2\n          iszero\n          mul\n          swap1\n          mload(0x40)\n          0x00\n          mload(0x40)\n          dup1\n          dup4\n          sub\n          dup2\n          dup6\n          dup9\n          dup9\n          call\n          swap4\n          pop\n          pop\n          pop\n          pop\n            /* \"shoot/1/dos/dos.sol\":470:509  require(king.send(msg.value), \"error2\") */\n          tag_13\n          jumpi\n          mload(0x40)\n          0x08c379a000000000000000000000000000000000000000000000000000000000\n          dup2\n          mstore\n          0x04\n          add\n          dup1\n          dup1\n          0x20\n          add\n          dup3\n          dup2\n          sub\n          dup3\n          mstore\n          0x06\n          dup2\n          mstore\n          0x20\n          add\n          dup1\n          0x6572726f72320000000000000000000000000000000000000000000000000000\n          dup2\n          mstore\n          pop\n          0x20\n          add\n          swap2\n          pop\n          pop\n          mload(0x40)\n          dup1\n          swap2\n          sub\n          swap1\n          revert\n        tag_13:\n            /* \"shoot/1/dos/dos.sol\":527:537  msg.sender */\n          caller\n            /* \"shoot/1/dos/dos.sol\":520:524  king */\n          0x00\n          dup1\n            /* \"shoot/1/dos/dos.sol\":520:537  king = msg.sender */\n          0x0100\n          exp\n          dup2\n          sload\n          dup2\n          0xffffffffffffffffffffffffffffffffffffffff\n          mul\n          not\n          and\n          swap1\n          dup4\n          0xffffffffffffffffffffffffffffffffffffffff\n          and\n          mul\n          or\n          swap1\n          sstore\n          pop\n            /* \"shoot/1/dos/dos.sol\":556:565  msg.value */\n          callvalue\n            /* \"shoot/1/dos/dos.sol\":548:553  prize */\n          0x01\n            /* \"shoot/1/dos/dos.sol\":548:565  prize = msg.value */\n          dup2\n          swap1\n          sstore\n          pop\n            /* \"shoot/1/dos/dos.sol\":578:582  nums */\n          0x04\n          0x00\n            /* \"shoot/1/dos/dos.sol\":578:584  nums++ */\n          dup2\n          sload\n          dup1\n          swap3\n          swap2\n          swap1\n          0x01\n          add\n          swap2\n          swap1\n          pop\n          sstore\n          pop\n            /* \"shoot/1/dos/dos.sol\":92:688  contract King {\r... */\n          stop\n        tag_2:\n          0x00\n          dup1\n          revert\n            /* \"shoot/1/dos/dos.sol\":600:685  function _king() public view returns (address payable) {\r... */\n        tag_3:\n          callvalue\n          dup1\n          iszero\n          tag_14\n          jumpi\n          0x00\n          dup1\n          revert\n        tag_14:\n          pop\n          tag_15\n          tag_16\n          jump\t// in\n        tag_15:\n          mload(0x40)\n          dup1\n          dup3\n          0xffffffffffffffffffffffffffffffffffffffff\n          and\n          dup2\n          mstore\n          0x20\n          add\n          swap2\n          pop\n          pop\n          mload(0x40)\n          dup1\n          swap2\n          sub\n          swap1\n          return\n            /* \"shoot/1/dos/dos.sol\":168:196  address payable public owner */\n        tag_4:\n          callvalue\n          dup1\n          iszero\n          tag_17\n          jumpi\n          0x00\n          dup1\n          revert\n        tag_17:\n          pop\n          tag_18\n          tag_19\n          jump\t// in\n        tag_18:\n          mload(0x40)\n          dup1\n          dup3\n          0xffffffffffffffffffffffffffffffffffffffff\n          and\n          dup2\n          mstore\n          0x20\n          add\n          swap2\n          pop\n          pop\n          mload(0x40)\n          dup1\n          swap2\n          sub\n          swap1\n          return\n            /* \"shoot/1/dos/dos.sol\":230:249  uint256 public nums */\n        tag_5:\n          callvalue\n          dup1\n          iszero\n          tag_20\n          jumpi\n          0x00\n          dup1\n          revert\n        tag_20:\n          pop\n          tag_21\n          tag_22\n          jump\t// in\n        tag_21:\n          mload(0x40)\n          dup1\n          dup3\n          dup2\n          mstore\n          0x20\n          add\n          swap2\n          pop\n          pop\n          mload(0x40)\n          dup1\n          swap2\n          sub\n          swap1\n          return\n            /* \"shoot/1/dos/dos.sol\":140:161  uint public prize = 0 */\n        tag_6:\n          callvalue\n          dup1\n          iszero\n          tag_23\n          jumpi\n          0x00\n          dup1\n          revert\n        tag_23:\n          pop\n          tag_24\n          tag_25\n          jump\t// in\n        tag_24:\n          mload(0x40)\n          dup1\n          dup3\n          dup2\n          mstore\n          0x20\n          add\n          swap2\n          pop\n          pop\n          mload(0x40)\n          dup1\n          swap2\n          sub\n          swap1\n          return\n            /* \"shoot/1/dos/dos.sol\":203:223  uint256 public score */\n        tag_7:\n          callvalue\n          dup1\n          iszero\n          tag_26\n          jumpi\n          0x00\n          dup1\n          revert\n        tag_26:\n          pop\n          tag_27\n          tag_28\n          jump\t// in\n        tag_27:\n          mload(0x40)\n          dup1\n          dup3\n          dup2\n          mstore\n          0x20\n          add\n          swap2\n          pop\n          pop\n          mload(0x40)\n          dup1\n          swap2\n          sub\n          swap1\n          return\n            /* \"shoot/1/dos/dos.sol\":600:685  function _king() public view returns (address payable) {\r... */\n        tag_16:\n            /* \"shoot/1/dos/dos.sol\":638:653  address payable */\n          0x00\n            /* \"shoot/1/dos/dos.sol\":673:677  king */\n          dup1\n          0x00\n          swap1\n          sload\n          swap1\n          0x0100\n          exp\n          swap1\n          div\n          0xffffffffffffffffffffffffffffffffffffffff\n          and\n            /* \"shoot/1/dos/dos.sol\":666:677  return king */\n          swap1\n          pop\n            /* \"shoot/1/dos/dos.sol\":600:685  function _king() public view returns (address payable) {\r... */\n          swap1\n          jump\t// out\n            /* \"shoot/1/dos/dos.sol\":168:196  address payable public owner */\n        tag_19:\n          0x02\n          0x00\n          swap1\n          sload\n          swap1\n          0x0100\n          exp\n          swap1\n          div\n          0xffffffffffffffffffffffffffffffffffffffff\n          and\n          dup2\n          jump\t// out\n            /* \"shoot/1/dos/dos.sol\":230:249  uint256 public nums */\n        tag_22:\n          sload(0x04)\n          dup2\n          jump\t// out\n            /* \"shoot/1/dos/dos.sol\":140:161  uint public prize = 0 */\n        tag_25:\n          sload(0x01)\n          dup2\n          jump\t// out\n            /* \"shoot/1/dos/dos.sol\":203:223  uint256 public score */\n        tag_28:\n          sload(0x03)\n          dup2\n          jump\t// out\n\n        auxdata: 0xa26469706673582212201ff124dd3ec0d34ddf10894fe76bb12b96cf2d57d4ec88b46d181afb79ca76e364736f6c634300060c0033\n    }\n}\n",
				"bytecode": {
					"linkReferences": {},
					"object": "608060405234801561001057600080fd5b5060405161001d90610122565b604051809103906000f080158015610039573d6000803e3d6000fd5b50600160006101000a81548173ffffffffffffffffffffffffffffffffffffffff021916908373ffffffffffffffffffffffffffffffffffffffff160217905550600160009054906101000a900473ffffffffffffffffffffffffffffffffffffffff166000806101000a81548173ffffffffffffffffffffffffffffffffffffffff021916908373ffffffffffffffffffffffffffffffffffffffff16021790555033600460006101000a81548173ffffffffffffffffffffffffffffffffffffffff021916908373ffffffffffffffffffffffffffffffffffffffff16021790555061012f565b61047c8061086a83390190565b61072c8061013e6000396000f3fe6080604052600436106100745760003560e01c8063cc181ca81161004e578063cc181ca8146100df578063e3ac5d2614610120578063efedc6691461014b578063fa391c64146101765761007b565b80635c8546801461007d578063919840ad14610094578063930c20031461009e5761007b565b3661007b57005b005b34801561008957600080fd5b50610092610180565b005b61009c61022b565b005b3480156100aa57600080fd5b506100b36103f6565b604051808273ffffffffffffffffffffffffffffffffffffffff16815260200191505060405180910390f35b3480156100eb57600080fd5b506100f461041a565b604051808273ffffffffffffffffffffffffffffffffffffffff16815260200191505060405180910390f35b34801561012c57600080fd5b50610135610440565b6040518082815260200191505060405180910390f35b34801561015757600080fd5b50610160610446565b6040518082815260200191505060405180910390f35b61017e61044c565b005b600160009054906101000a900473ffffffffffffffffffffffffffffffffffffffff1673ffffffffffffffffffffffffffffffffffffffff1663e3ac5d266040518163ffffffff1660e01b815260040160206040518083038186803b1580156101e857600080fd5b505afa1580156101fc573d6000803e3d6000fd5b505050506040513d602081101561021257600080fd5b8101908080519060200190929190505050600281905550565b600460009054906101000a900473ffffffffffffffffffffffffffffffffffffffff1673ffffffffffffffffffffffffffffffffffffffff163373ffffffffffffffffffffffffffffffffffffffff1614806102b257503073ffffffffffffffffffffffffffffffffffffffff163373ffffffffffffffffffffffffffffffffffffffff16145b6102bb57600080fd5b600160009054906101000a900473ffffffffffffffffffffffffffffffffffffffff1673ffffffffffffffffffffffffffffffffffffffff1663e3ac5d266040518163ffffffff1660e01b815260040160206040518083038186803b15801561032357600080fd5b505afa158015610337573d6000803e3d6000fd5b505050506040513d602081101561034d57600080fd5b8101908080519060200190929190505050341161036957600080fd5b60008054906101000a900473ffffffffffffffffffffffffffffffffffffffff1673ffffffffffffffffffffffffffffffffffffffff16620f424034604051806000019050600060405180830381858888f193505050503d80600081146103ec576040519150601f19603f3d011682016040523d82523d6000602084013e6103f1565b606091505b505050565b60008054906101000a900473ffffffffffffffffffffffffffffffffffffffff1681565b600160009054906101000a900473ffffffffffffffffffffffffffffffffffffffff1681565b60025481565b60035481565b600060038190555060018060009054906101000a900473ffffffffffffffffffffffffffffffffffffffff1673ffffffffffffffffffffffffffffffffffffffff1663d5b132596040518163ffffffff1660e01b815260040160206040518083038186803b1580156104bd57600080fd5b505afa1580156104d1573d6000803e3d6000fd5b505050506040513d60208110156104e757600080fd5b8101908080519060200190929190505050106106f45760326003819055506000600160009054906101000a900473ffffffffffffffffffffffffffffffffffffffff1673ffffffffffffffffffffffffffffffffffffffff166329cc6d6f6040518163ffffffff1660e01b815260040160206040518083038186803b15801561056f57600080fd5b505afa158015610583573d6000803e3d6000fd5b505050506040513d602081101561059957600080fd5b810190808051906020019092919050505090503073ffffffffffffffffffffffffffffffffffffffff1663919840ad346040518263ffffffff1660e01b81526004016000604051808303818588803b1580156105f457600080fd5b505af1158015610608573d6000803e3d6000fd5b50505050506000600160009054906101000a900473ffffffffffffffffffffffffffffffffffffffff1673ffffffffffffffffffffffffffffffffffffffff166329cc6d6f6040518163ffffffff1660e01b815260040160206040518083038186803b15801561067757600080fd5b505afa15801561068b573d6000803e3d6000fd5b505050506040513d60208110156106a157600080fd5b810190808051906020019092919050505090508073ffffffffffffffffffffffffffffffffffffffff168273ffffffffffffffffffffffffffffffffffffffff1614156106f15760646003819055505b50505b56fea264697066735822122060b9934797c2e5bc48b35644ac04adf220932ba1b2367e0036a862da06dae4b764736f6c634300060c00336080604052600060015533600260006101000a81548173ffffffffffffffffffffffffffffffffffffffff021916908373ffffffffffffffffffffffffffffffffffffffff160217905550336000806101000a81548173ffffffffffffffffffffffffffffffffffffffff021916908373ffffffffffffffffffffffffffffffffffffffff1602179055506103e3806100996000396000f3fe60806040526004361061004e5760003560e01c806329cc6d6f146102495780638da5cb5b1461028a578063d5b13259146102cb578063e3ac5d26146102f6578063efedc6691461032157610244565b36610244576001543411806100b05750600260009054906101000a900473ffffffffffffffffffffffffffffffffffffffff1673ffffffffffffffffffffffffffffffffffffffff163373ffffffffffffffffffffffffffffffffffffffff16145b610122576040517f08c379a00000000000000000000000000000000000000000000000000000000081526004018080602001828103825260068152602001807f6572726f7231000000000000000000000000000000000000000000000000000081525060200191505060405180910390fd5b60008054906101000a900473ffffffffffffffffffffffffffffffffffffffff1673ffffffffffffffffffffffffffffffffffffffff166108fc349081150290604051600060405180830381858888f193505050506101e9576040517f08c379a00000000000000000000000000000000000000000000000000000000081526004018080602001828103825260068152602001807f6572726f7232000000000000000000000000000000000000000000000000000081525060200191505060405180910390fd5b336000806101000a81548173ffffffffffffffffffffffffffffffffffffffff021916908373ffffffffffffffffffffffffffffffffffffffff16021790555034600181905550600460008154809291906001019190505550005b600080fd5b34801561025557600080fd5b5061025e61034c565b604051808273ffffffffffffffffffffffffffffffffffffffff16815260200191505060405180910390f35b34801561029657600080fd5b5061029f610375565b604051808273ffffffffffffffffffffffffffffffffffffffff16815260200191505060405180910390f35b3480156102d757600080fd5b506102e061039b565b6040518082815260200191505060405180910390f35b34801561030257600080fd5b5061030b6103a1565b6040518082815260200191505060405180910390f35b34801561032d57600080fd5b506103366103a7565b6040518082815260200191505060405180910390f35b60008060009054906101000a900473ffffffffffffffffffffffffffffffffffffffff16905090565b600260009054906101000a900473ffffffffffffffffffffffffffffffffffffffff1681565b60045481565b60015481565b6003548156fea26469706673582212201ff124dd3ec0d34ddf10894fe76bb12b96cf2d57d4ec88b46d181afb79ca76e364736f6c634300060c0033",
					"opcodes": "PUSH1 0x80 PUSH1 0x40 MSTORE CALLVALUE DUP1 ISZERO PUSH2 0x10 JUMPI PUSH1 0x0 DUP1 REVERT JUMPDEST POP PUSH1 0x40 MLOAD PUSH2 0x1D SWAP1 PUSH2 0x122 JUMP JUMPDEST PUSH1 0x40 MLOAD DUP1 SWAP2 SUB SWAP1 PUSH1 0x0 CREATE DUP1 ISZERO DUP1 ISZERO PUSH2 0x39 JUMPI RETURNDATASIZE PUSH1 0x0 DUP1 RETURNDATACOPY RETURNDATASIZE PUSH1 0x0 REVERT JUMPDEST POP PUSH1 0x1 PUSH1 0x0 PUSH2 0x100 EXP DUP2 SLOAD DUP2 PUSH20 0xFFFFFFFFFFFFFFFFFFFFFFFFFFFFFFFFFFFFFFFF MUL NOT AND SWAP1 DUP4 PUSH20 0xFFFFFFFFFFFFFFFFFFFFFFFFFFFFFFFFFFFFFFFF AND MUL OR SWAP1 SSTORE POP PUSH1 0x1 PUSH1 0x0 SWAP1 SLOAD SWAP1 PUSH2 0x100 EXP SWAP1 DIV PUSH20 0xFFFFFFFFFFFFFFFFFFFFFFFFFFFFFFFFFFFFFFFF AND PUSH1 0x0 DUP1 PUSH2 0x100 EXP DUP2 SLOAD DUP2 PUSH20 0xFFFFFFFFFFFFFFFFFFFFFFFFFFFFFFFFFFFFFFFF MUL NOT AND SWAP1 DUP4 PUSH20 0xFFFFFFFFFFFFFFFFFFFFFFFFFFFFFFFFFFFFFFFF AND MUL OR SWAP1 SSTORE POP CALLER PUSH1 0x4 PUSH1 0x0 PUSH2 0x100 EXP DUP2 SLOAD DUP2 PUSH20 0xFFFFFFFFFFFFFFFFFFFFFFFFFFFFFFFFFFFFFFFF MUL NOT AND SWAP1 DUP4 PUSH20 0xFFFFFFFFFFFFFFFFFFFFFFFFFFFFFFFFFFFFFFFF AND MUL OR SWAP1 SSTORE POP PUSH2 0x12F JUMP JUMPDEST PUSH2 0x47C DUP1 PUSH2 0x86A DUP4 CODECOPY ADD SWAP1 JUMP JUMPDEST PUSH2 0x72C DUP1 PUSH2 0x13E PUSH1 0x0 CODECOPY PUSH1 0x0 RETURN INVALID PUSH1 0x80 PUSH1 0x40 MSTORE PUSH1 0x4 CALLDATASIZE LT PUSH2 0x74 JUMPI PUSH1 0x0 CALLDATALOAD PUSH1 0xE0 SHR DUP1 PUSH4 0xCC181CA8 GT PUSH2 0x4E JUMPI DUP1 PUSH4 0xCC181CA8 EQ PUSH2 0xDF JUMPI DUP1 PUSH4 0xE3AC5D26 EQ PUSH2 0x120 JUMPI DUP1 PUSH4 0xEFEDC669 EQ PUSH2 0x14B JUMPI DUP1 PUSH4 0xFA391C64 EQ PUSH2 0x176 JUMPI PUSH2 0x7B JUMP JUMPDEST DUP1 PUSH4 0x5C854680 EQ PUSH2 0x7D JUMPI DUP1 PUSH4 0x919840AD EQ PUSH2 0x94 JUMPI DUP1 PUSH4 0x930C2003 EQ PUSH2 0x9E JUMPI PUSH2 0x7B JUMP JUMPDEST CALLDATASIZE PUSH2 0x7B JUMPI STOP JUMPDEST STOP JUMPDEST CALLVALUE DUP1 ISZERO PUSH2 0x89 JUMPI PUSH1 0x0 DUP1 REVERT JUMPDEST POP PUSH2 0x92 PUSH2 0x180 JUMP JUMPDEST STOP JUMPDEST PUSH2 0x9C PUSH2 0x22B JUMP JUMPDEST STOP JUMPDEST CALLVALUE DUP1 ISZERO PUSH2 0xAA JUMPI PUSH1 0x0 DUP1 REVERT JUMPDEST POP PUSH2 0xB3 PUSH2 0x3F6 JUMP JUMPDEST PUSH1 0x40 MLOAD DUP1 DUP3 PUSH20 0xFFFFFFFFFFFFFFFFFFFFFFFFFFFFFFFFFFFFFFFF AND DUP2 MSTORE PUSH1 0x20 ADD SWAP2 POP POP PUSH1 0x40 MLOAD DUP1 SWAP2 SUB SWAP1 RETURN JUMPDEST CALLVALUE DUP1 ISZERO PUSH2 0xEB JUMPI PUSH1 0x0 DUP1 REVERT JUMPDEST POP PUSH2 0xF4 PUSH2 0x41A JUMP JUMPDEST PUSH1 0x40 MLOAD DUP1 DUP3 PUSH20 0xFFFFFFFFFFFFFFFFFFFFFFFFFFFFFFFFFFFFFFFF AND DUP2 MSTORE PUSH1 0x20 ADD SWAP2 POP POP PUSH1 0x40 MLOAD DUP1 SWAP2 SUB SWAP1 RETURN JUMPDEST CALLVALUE DUP1 ISZERO PUSH2 0x12C JUMPI PUSH1 0x0 DUP1 REVERT JUMPDEST POP PUSH2 0x135 PUSH2 0x440 JUMP JUMPDEST PUSH1 0x40 MLOAD DUP1 DUP3 DUP2 MSTORE PUSH1 0x20 ADD SWAP2 POP POP PUSH1 0x40 MLOAD DUP1 SWAP2 SUB SWAP1 RETURN JUMPDEST CALLVALUE DUP1 ISZERO PUSH2 0x157 JUMPI PUSH1 0x0 DUP1 REVERT JUMPDEST POP PUSH2 0x160 PUSH2 0x446 JUMP JUMPDEST PUSH1 0x40 MLOAD DUP1 DUP3 DUP2 MSTORE PUSH1 0x20 ADD SWAP2 POP POP PUSH1 0x40 MLOAD DUP1 SWAP2 SUB SWAP1 RETURN JUMPDEST PUSH2 0x17E PUSH2 0x44C JUMP JUMPDEST STOP JUMPDEST PUSH1 0x1 PUSH1 0x0 SWAP1 SLOAD SWAP1 PUSH2 0x100 EXP SWAP1 DIV PUSH20 0xFFFFFFFFFFFFFFFFFFFFFFFFFFFFFFFFFFFFFFFF AND PUSH20 0xFFFFFFFFFFFFFFFFFFFFFFFFFFFFFFFFFFFFFFFF AND PUSH4 0xE3AC5D26 PUSH1 0x40 MLOAD DUP2 PUSH4 0xFFFFFFFF AND PUSH1 0xE0 SHL DUP2 MSTORE PUSH1 0x4 ADD PUSH1 0x20 PUSH1 0x40 MLOAD DUP1 DUP4 SUB DUP2 DUP7 DUP1 EXTCODESIZE ISZERO DUP1 ISZERO PUSH2 0x1E8 JUMPI PUSH1 0x0 DUP1 REVERT JUMPDEST POP GAS STATICCALL ISZERO DUP1 ISZERO PUSH2 0x1FC JUMPI RETURNDATASIZE PUSH1 0x0 DUP1 RETURNDATACOPY RETURNDATASIZE PUSH1 0x0 REVERT JUMPDEST POP POP POP POP PUSH1 0x40 MLOAD RETURNDATASIZE PUSH1 0x20 DUP2 LT ISZERO PUSH2 0x212 JUMPI PUSH1 0x0 DUP1 REVERT JUMPDEST DUP2 ADD SWAP1 DUP1 DUP1 MLOAD SWAP1 PUSH1 0x20 ADD SWAP1 SWAP3 SWAP2 SWAP1 POP POP POP PUSH1 0x2 DUP2 SWAP1 SSTORE POP JUMP JUMPDEST PUSH1 0x4 PUSH1 0x0 SWAP1 SLOAD SWAP1 PUSH2 0x100 EXP SWAP1 DIV PUSH20 0xFFFFFFFFFFFFFFFFFFFFFFFFFFFFFFFFFFFFFFFF AND PUSH20 0xFFFFFFFFFFFFFFFFFFFFFFFFFFFFFFFFFFFFFFFF AND CALLER PUSH20 0xFFFFFFFFFFFFFFFFFFFFFFFFFFFFFFFFFFFFFFFF AND EQ DUP1 PUSH2 0x2B2 JUMPI POP ADDRESS PUSH20 0xFFFFFFFFFFFFFFFFFFFFFFFFFFFFFFFFFFFFFFFF AND CALLER PUSH20 0xFFFFFFFFFFFFFFFFFFFFFFFFFFFFFFFFFFFFFFFF AND EQ JUMPDEST PUSH2 0x2BB JUMPI PUSH1 0x0 DUP1 REVERT JUMPDEST PUSH1 0x1 PUSH1 0x0 SWAP1 SLOAD SWAP1 PUSH2 0x100 EXP SWAP1 DIV PUSH20 0xFFFFFFFFFFFFFFFFFFFFFFFFFFFFFFFFFFFFFFFF AND PUSH20 0xFFFFFFFFFFFFFFFFFFFFFFFFFFFFFFFFFFFFFFFF AND PUSH4 0xE3AC5D26 PUSH1 0x40 MLOAD DUP2 PUSH4 0xFFFFFFFF AND PUSH1 0xE0 SHL DUP2 MSTORE PUSH1 0x4 ADD PUSH1 0x20 PUSH1 0x40 MLOAD DUP1 DUP4 SUB DUP2 DUP7 DUP1 EXTCODESIZE ISZERO DUP1 ISZERO PUSH2 0x323 JUMPI PUSH1 0x0 DUP1 REVERT JUMPDEST POP GAS STATICCALL ISZERO DUP1 ISZERO PUSH2 0x337 JUMPI RETURNDATASIZE PUSH1 0x0 DUP1 RETURNDATACOPY RETURNDATASIZE PUSH1 0x0 REVERT JUMPDEST POP POP POP POP PUSH1 0x40 MLOAD RETURNDATASIZE PUSH1 0x20 DUP2 LT ISZERO PUSH2 0x34D JUMPI PUSH1 0x0 DUP1 REVERT JUMPDEST DUP2 ADD SWAP1 DUP1 DUP1 MLOAD SWAP1 PUSH1 0x20 ADD SWAP1 SWAP3 SWAP2 SWAP1 POP POP POP CALLVALUE GT PUSH2 0x369 JUMPI PUSH1 0x0 DUP1 REVERT JUMPDEST PUSH1 0x0 DUP1 SLOAD SWAP1 PUSH2 0x100 EXP SWAP1 DIV PUSH20 0xFFFFFFFFFFFFFFFFFFFFFFFFFFFFFFFFFFFFFFFF AND PUSH20 0xFFFFFFFFFFFFFFFFFFFFFFFFFFFFFFFFFFFFFFFF AND PUSH3 0xF4240 CALLVALUE PUSH1 0x40 MLOAD DUP1 PUSH1 0x0 ADD SWAP1 POP PUSH1 0x0 PUSH1 0x40 MLOAD DUP1 DUP4 SUB DUP2 DUP6 DUP9 DUP9 CALL SWAP4 POP POP POP POP RETURNDATASIZE DUP1 PUSH1 0x0 DUP2 EQ PUSH2 0x3EC JUMPI PUSH1 0x40 MLOAD SWAP2 POP PUSH1 0x1F NOT PUSH1 0x3F RETURNDATASIZE ADD AND DUP3 ADD PUSH1 0x40 MSTORE RETURNDATASIZE DUP3 MSTORE RETURNDATASIZE PUSH1 0x0 PUSH1 0x20 DUP5 ADD RETURNDATACOPY PUSH2 0x3F1 JUMP JUMPDEST PUSH1 0x60 SWAP2 POP JUMPDEST POP POP POP JUMP JUMPDEST PUSH1 0x0 DUP1 SLOAD SWAP1 PUSH2 0x100 EXP SWAP1 DIV PUSH20 0xFFFFFFFFFFFFFFFFFFFFFFFFFFFFFFFFFFFFFFFF AND DUP2 JUMP JUMPDEST PUSH1 0x1 PUSH1 0x0 SWAP1 SLOAD SWAP1 PUSH2 0x100 EXP SWAP1 DIV PUSH20 0xFFFFFFFFFFFFFFFFFFFFFFFFFFFFFFFFFFFFFFFF AND DUP2 JUMP JUMPDEST PUSH1 0x2 SLOAD DUP2 JUMP JUMPDEST PUSH1 0x3 SLOAD DUP2 JUMP JUMPDEST PUSH1 0x0 PUSH1 0x3 DUP2 SWAP1 SSTORE POP PUSH1 0x1 DUP1 PUSH1 0x0 SWAP1 SLOAD SWAP1 PUSH2 0x100 EXP SWAP1 DIV PUSH20 0xFFFFFFFFFFFFFFFFFFFFFFFFFFFFFFFFFFFFFFFF AND PUSH20 0xFFFFFFFFFFFFFFFFFFFFFFFFFFFFFFFFFFFFFFFF AND PUSH4 0xD5B13259 PUSH1 0x40 MLOAD DUP2 PUSH4 0xFFFFFFFF AND PUSH1 0xE0 SHL DUP2 MSTORE PUSH1 0x4 ADD PUSH1 0x20 PUSH1 0x40 MLOAD DUP1 DUP4 SUB DUP2 DUP7 DUP1 EXTCODESIZE ISZERO DUP1 ISZERO PUSH2 0x4BD JUMPI PUSH1 0x0 DUP1 REVERT JUMPDEST POP GAS STATICCALL ISZERO DUP1 ISZERO PUSH2 0x4D1 JUMPI RETURNDATASIZE PUSH1 0x0 DUP1 RETURNDATACOPY RETURNDATASIZE PUSH1 0x0 REVERT JUMPDEST POP POP POP POP PUSH1 0x40 MLOAD RETURNDATASIZE PUSH1 0x20 DUP2 LT ISZERO PUSH2 0x4E7 JUMPI PUSH1 0x0 DUP1 REVERT JUMPDEST DUP2 ADD SWAP1 DUP1 DUP1 MLOAD SWAP1 PUSH1 0x20 ADD SWAP1 SWAP3 SWAP2 SWAP1 POP POP POP LT PUSH2 0x6F4 JUMPI PUSH1 0x32 PUSH1 0x3 DUP2 SWAP1 SSTORE POP PUSH1 0x0 PUSH1 0x1 PUSH1 0x0 SWAP1 SLOAD SWAP1 PUSH2 0x100 EXP SWAP1 DIV PUSH20 0xFFFFFFFFFFFFFFFFFFFFFFFFFFFFFFFFFFFFFFFF AND PUSH20 0xFFFFFFFFFFFFFFFFFFFFFFFFFFFFFFFFFFFFFFFF AND PUSH4 0x29CC6D6F PUSH1 0x40 MLOAD DUP2 PUSH4 0xFFFFFFFF AND PUSH1 0xE0 SHL DUP2 MSTORE PUSH1 0x4 ADD PUSH1 0x20 PUSH1 0x40 MLOAD DUP1 DUP4 SUB DUP2 DUP7 DUP1 EXTCODESIZE ISZERO DUP1 ISZERO PUSH2 0x56F JUMPI PUSH1 0x0 DUP1 REVERT JUMPDEST POP GAS STATICCALL ISZERO DUP1 ISZERO PUSH2 0x583 JUMPI RETURNDATASIZE PUSH1 0x0 DUP1 RETURNDATACOPY RETURNDATASIZE PUSH1 0x0 REVERT JUMPDEST POP POP POP POP PUSH1 0x40 MLOAD RETURNDATASIZE PUSH1 0x20 DUP2 LT ISZERO PUSH2 0x599 JUMPI PUSH1 0x0 DUP1 REVERT JUMPDEST DUP2 ADD SWAP1 DUP1 DUP1 MLOAD SWAP1 PUSH1 0x20 ADD SWAP1 SWAP3 SWAP2 SWAP1 POP POP POP SWAP1 POP ADDRESS PUSH20 0xFFFFFFFFFFFFFFFFFFFFFFFFFFFFFFFFFFFFFFFF AND PUSH4 0x919840AD CALLVALUE PUSH1 0x40 MLOAD DUP3 PUSH4 0xFFFFFFFF AND PUSH1 0xE0 SHL DUP2 MSTORE PUSH1 0x4 ADD PUSH1 0x0 PUSH1 0x40 MLOAD DUP1 DUP4 SUB DUP2 DUP6 DUP9 DUP1 EXTCODESIZE ISZERO DUP1 ISZERO PUSH2 0x5F4 JUMPI PUSH1 0x0 DUP1 REVERT JUMPDEST POP GAS CALL ISZERO DUP1 ISZERO PUSH2 0x608 JUMPI RETURNDATASIZE PUSH1 0x0 DUP1 RETURNDATACOPY RETURNDATASIZE PUSH1 0x0 REVERT JUMPDEST POP POP POP POP POP PUSH1 0x0 PUSH1 0x1 PUSH1 0x0 SWAP1 SLOAD SWAP1 PUSH2 0x100 EXP SWAP1 DIV PUSH20 0xFFFFFFFFFFFFFFFFFFFFFFFFFFFFFFFFFFFFFFFF AND PUSH20 0xFFFFFFFFFFFFFFFFFFFFFFFFFFFFFFFFFFFFFFFF AND PUSH4 0x29CC6D6F PUSH1 0x40 MLOAD DUP2 PUSH4 0xFFFFFFFF AND PUSH1 0xE0 SHL DUP2 MSTORE PUSH1 0x4 ADD PUSH1 0x20 PUSH1 0x40 MLOAD DUP1 DUP4 SUB DUP2 DUP7 DUP1 EXTCODESIZE ISZERO DUP1 ISZERO PUSH2 0x677 JUMPI PUSH1 0x0 DUP1 REVERT JUMPDEST POP GAS STATICCALL ISZERO DUP1 ISZERO PUSH2 0x68B JUMPI RETURNDATASIZE PUSH1 0x0 DUP1 RETURNDATACOPY RETURNDATASIZE PUSH1 0x0 REVERT JUMPDEST POP POP POP POP PUSH1 0x40 MLOAD RETURNDATASIZE PUSH1 0x20 DUP2 LT ISZERO PUSH2 0x6A1 JUMPI PUSH1 0x0 DUP1 REVERT JUMPDEST DUP2 ADD SWAP1 DUP1 DUP1 MLOAD SWAP1 PUSH1 0x20 ADD SWAP1 SWAP3 SWAP2 SWAP1 POP POP POP SWAP1 POP DUP1 PUSH20 0xFFFFFFFFFFFFFFFFFFFFFFFFFFFFFFFFFFFFFFFF AND DUP3 PUSH20 0xFFFFFFFFFFFFFFFFFFFFFFFFFFFFFFFFFFFFFFFF AND EQ ISZERO PUSH2 0x6F1 JUMPI PUSH1 0x64 PUSH1 0x3 DUP2 SWAP1 SSTORE POP JUMPDEST POP POP JUMPDEST JUMP INVALID LOG2 PUSH5 0x6970667358 0x22 SLT KECCAK256 PUSH1 0xB9 SWAP4 SELFBALANCE SWAP8 0xC2 0xE5 0xBC 0x48 0xB3 JUMP DIFFICULTY 0xAC DIV 0xAD CALLCODE KECCAK256 SWAP4 0x2B LOG1 0xB2 CALLDATASIZE PUSH31 0x36A862DA06DAE4B764736F6C634300060C00336080604052600060015533 PUSH1 0x2 PUSH1 0x0 PUSH2 0x100 EXP DUP2 SLOAD DUP2 PUSH20 0xFFFFFFFFFFFFFFFFFFFFFFFFFFFFFFFFFFFFFFFF MUL NOT AND SWAP1 DUP4 PUSH20 0xFFFFFFFFFFFFFFFFFFFFFFFFFFFFFFFFFFFFFFFF AND MUL OR SWAP1 SSTORE POP CALLER PUSH1 0x0 DUP1 PUSH2 0x100 EXP DUP2 SLOAD DUP2 PUSH20 0xFFFFFFFFFFFFFFFFFFFFFFFFFFFFFFFFFFFFFFFF MUL NOT AND SWAP1 DUP4 PUSH20 0xFFFFFFFFFFFFFFFFFFFFFFFFFFFFFFFFFFFFFFFF AND MUL OR SWAP1 SSTORE POP PUSH2 0x3E3 DUP1 PUSH2 0x99 PUSH1 0x0 CODECOPY PUSH1 0x0 RETURN INVALID PUSH1 0x80 PUSH1 0x40 MSTORE PUSH1 0x4 CALLDATASIZE LT PUSH2 0x4E JUMPI PUSH1 0x0 CALLDATALOAD PUSH1 0xE0 SHR DUP1 PUSH4 0x29CC6D6F EQ PUSH2 0x249 JUMPI DUP1 PUSH4 0x8DA5CB5B EQ PUSH2 0x28A JUMPI DUP1 PUSH4 0xD5B13259 EQ PUSH2 0x2CB JUMPI DUP1 PUSH4 0xE3AC5D26 EQ PUSH2 0x2F6 JUMPI DUP1 PUSH4 0xEFEDC669 EQ PUSH2 0x321 JUMPI PUSH2 0x244 JUMP JUMPDEST CALLDATASIZE PUSH2 0x244 JUMPI PUSH1 0x1 SLOAD CALLVALUE GT DUP1 PUSH2 0xB0 JUMPI POP PUSH1 0x2 PUSH1 0x0 SWAP1 SLOAD SWAP1 PUSH2 0x100 EXP SWAP1 DIV PUSH20 0xFFFFFFFFFFFFFFFFFFFFFFFFFFFFFFFFFFFFFFFF AND PUSH20 0xFFFFFFFFFFFFFFFFFFFFFFFFFFFFFFFFFFFFFFFF AND CALLER PUSH20 0xFFFFFFFFFFFFFFFFFFFFFFFFFFFFFFFFFFFFFFFF AND EQ JUMPDEST PUSH2 0x122 JUMPI PUSH1 0x40 MLOAD PUSH32 0x8C379A000000000000000000000000000000000000000000000000000000000 DUP2 MSTORE PUSH1 0x4 ADD DUP1 DUP1 PUSH1 0x20 ADD DUP3 DUP2 SUB DUP3 MSTORE PUSH1 0x6 DUP2 MSTORE PUSH1 0x20 ADD DUP1 PUSH32 0x6572726F72310000000000000000000000000000000000000000000000000000 DUP2 MSTORE POP PUSH1 0x20 ADD SWAP2 POP POP PUSH1 0x40 MLOAD DUP1 SWAP2 SUB SWAP1 REVERT JUMPDEST PUSH1 0x0 DUP1 SLOAD SWAP1 PUSH2 0x100 EXP SWAP1 DIV PUSH20 0xFFFFFFFFFFFFFFFFFFFFFFFFFFFFFFFFFFFFFFFF AND PUSH20 0xFFFFFFFFFFFFFFFFFFFFFFFFFFFFFFFFFFFFFFFF AND PUSH2 0x8FC CALLVALUE SWAP1 DUP2 ISZERO MUL SWAP1 PUSH1 0x40 MLOAD PUSH1 0x0 PUSH1 0x40 MLOAD DUP1 DUP4 SUB DUP2 DUP6 DUP9 DUP9 CALL SWAP4 POP POP POP POP PUSH2 0x1E9 JUMPI PUSH1 0x40 MLOAD PUSH32 0x8C379A000000000000000000000000000000000000000000000000000000000 DUP2 MSTORE PUSH1 0x4 ADD DUP1 DUP1 PUSH1 0x20 ADD DUP3 DUP2 SUB DUP3 MSTORE PUSH1 0x6 DUP2 MSTORE PUSH1 0x20 ADD DUP1 PUSH32 0x6572726F72320000000000000000000000000000000000000000000000000000 DUP2 MSTORE POP PUSH1 0x20 ADD SWAP2 POP POP PUSH1 0x40 MLOAD DUP1 SWAP2 SUB SWAP1 REVERT JUMPDEST CALLER PUSH1 0x0 DUP1 PUSH2 0x100 EXP DUP2 SLOAD DUP2 PUSH20 0xFFFFFFFFFFFFFFFFFFFFFFFFFFFFFFFFFFFFFFFF MUL NOT AND SWAP1 DUP4 PUSH20 0xFFFFFFFFFFFFFFFFFFFFFFFFFFFFFFFFFFFFFFFF AND MUL OR SWAP1 SSTORE POP CALLVALUE PUSH1 0x1 DUP2 SWAP1 SSTORE POP PUSH1 0x4 PUSH1 0x0 DUP2 SLOAD DUP1 SWAP3 SWAP2 SWAP1 PUSH1 0x1 ADD SWAP2 SWAP1 POP SSTORE POP STOP JUMPDEST PUSH1 0x0 DUP1 REVERT JUMPDEST CALLVALUE DUP1 ISZERO PUSH2 0x255 JUMPI PUSH1 0x0 DUP1 REVERT JUMPDEST POP PUSH2 0x25E PUSH2 0x34C JUMP JUMPDEST PUSH1 0x40 MLOAD DUP1 DUP3 PUSH20 0xFFFFFFFFFFFFFFFFFFFFFFFFFFFFFFFFFFFFFFFF AND DUP2 MSTORE PUSH1 0x20 ADD SWAP2 POP POP PUSH1 0x40 MLOAD DUP1 SWAP2 SUB SWAP1 RETURN JUMPDEST CALLVALUE DUP1 ISZERO PUSH2 0x296 JUMPI PUSH1 0x0 DUP1 REVERT JUMPDEST POP PUSH2 0x29F PUSH2 0x375 JUMP JUMPDEST PUSH1 0x40 MLOAD DUP1 DUP3 PUSH20 0xFFFFFFFFFFFFFFFFFFFFFFFFFFFFFFFFFFFFFFFF AND DUP2 MSTORE PUSH1 0x20 ADD SWAP2 POP POP PUSH1 0x40 MLOAD DUP1 SWAP2 SUB SWAP1 RETURN JUMPDEST CALLVALUE DUP1 ISZERO PUSH2 0x2D7 JUMPI PUSH1 0x0 DUP1 REVERT JUMPDEST POP PUSH2 0x2E0 PUSH2 0x39B JUMP JUMPDEST PUSH1 0x40 MLOAD DUP1 DUP3 DUP2 MSTORE PUSH1 0x20 ADD SWAP2 POP POP PUSH1 0x40 MLOAD DUP1 SWAP2 SUB SWAP1 RETURN JUMPDEST CALLVALUE DUP1 ISZERO PUSH2 0x302 JUMPI PUSH1 0x0 DUP1 REVERT JUMPDEST POP PUSH2 0x30B PUSH2 0x3A1 JUMP JUMPDEST PUSH1 0x40 MLOAD DUP1 DUP3 DUP2 MSTORE PUSH1 0x20 ADD SWAP2 POP POP PUSH1 0x40 MLOAD DUP1 SWAP2 SUB SWAP1 RETURN JUMPDEST CALLVALUE DUP1 ISZERO PUSH2 0x32D JUMPI PUSH1 0x0 DUP1 REVERT JUMPDEST POP PUSH2 0x336 PUSH2 0x3A7 JUMP JUMPDEST PUSH1 0x40 MLOAD DUP1 DUP3 DUP2 MSTORE PUSH1 0x20 ADD SWAP2 POP POP PUSH1 0x40 MLOAD DUP1 SWAP2 SUB SWAP1 RETURN JUMPDEST PUSH1 0x0 DUP1 PUSH1 0x0 SWAP1 SLOAD SWAP1 PUSH2 0x100 EXP SWAP1 DIV PUSH20 0xFFFFFFFFFFFFFFFFFFFFFFFFFFFFFFFFFFFFFFFF AND SWAP1 POP SWAP1 JUMP JUMPDEST PUSH1 0x2 PUSH1 0x0 SWAP1 SLOAD SWAP1 PUSH2 0x100 EXP SWAP1 DIV PUSH20 0xFFFFFFFFFFFFFFFFFFFFFFFFFFFFFFFFFFFFFFFF AND DUP2 JUMP JUMPDEST PUSH1 0x4 SLOAD DUP2 JUMP JUMPDEST PUSH1 0x1 SLOAD DUP2 JUMP JUMPDEST PUSH1 0x3 SLOAD DUP2 JUMP INVALID LOG2 PUSH5 0x6970667358 0x22 SLT KECCAK256 0x1F CALL 0x24 0xDD RETURNDATACOPY 0xC0 0xD3 0x4D 0xDF LT DUP10 0x4F 0xE7 PUSH12 0xB12B96CF2D57D4EC88B46D18 BYTE 0xFB PUSH26 0xCA76E364736F6C634300060C0033000000000000000000000000 "
				},
				"gasEstimates": {
					"creation": {
						"codeDepositCost": "367200",
						"executionCost": "infinite",
						"totalCost": "infinite"
					},
					"external": {
						"": "152",
						"check()": "infinite",
						"getPriceNow()": "infinite",
						"isCompleted()": "infinite",
						"king()": "1047",
						"prize()": "1027",
						"score()": "1049",
						"victim()": "1089"
					}
				},
				"methodIdentifiers": {
					"check()": "919840ad",
					"getPriceNow()": "5c854680",
					"isCompleted()": "fa391c64",
					"king()": "cc181ca8",
					"prize()": "e3ac5d26",
					"score()": "efedc669",
					"victim()": "930c2003"
				}
			},
			"storageLayout": {
				"storage": [
					{
						"astId": 76,
						"contract": "shoot/1/dos/dos.sol:Check",
						"label": "victim",
						"offset": 0,
						"slot": "0",
						"type": "t_address"
					},
					{
						"astId": 78,
						"contract": "shoot/1/dos/dos.sol:Check",
						"label": "king",
						"offset": 0,
						"slot": "1",
						"type": "t_contract(King)74"
					},
					{
						"astId": 80,
						"contract": "shoot/1/dos/dos.sol:Check",
						"label": "prize",
						"offset": 0,
						"slot": "2",
						"type": "t_uint256"
					},
					{
						"astId": 82,
						"contract": "shoot/1/dos/dos.sol:Check",
						"label": "score",
						"offset": 0,
						"slot": "3",
						"type": "t_uint256"
					},
					{
						"astId": 84,
						"contract": "shoot/1/dos/dos.sol:Check",
						"label": "owner",
						"offset": 0,
						"slot": "4",
						"type": "t_address"
					}
				],
				"types": {
					"t_address": {
						"encoding": "inplace",
						"label": "address",
						"numberOfBytes": "20"
					},
					"t_contract(King)74": {
						"encoding": "inplace",
						"label": "contract King",
						"numberOfBytes": "20"
					},
					"t_uint256": {
						"encoding": "inplace",
						"label": "uint256",
						"numberOfBytes": "32"
					}
				}
			},
			"userdoc": {
				"kind": "user",
				"methods": {},
				"version": 1
			}
		}
	}
}