{
	"shoot/2/create_create计算/1.sol": {
		"solve": {
			"abi": [
				{
					"inputs": [],
					"stateMutability": "payable",
					"type": "constructor"
				},
				{
					"inputs": [
						{
							"internalType": "bytes32",
							"name": "_salt",
							"type": "bytes32"
						},
						{
							"internalType": "address",
							"name": "addr",
							"type": "address"
						}
					],
					"name": "getAddressAndSend",
					"outputs": [],
					"stateMutability": "nonpayable",
					"type": "function"
				}
			],
			"devdoc": {
				"kind": "dev",
				"methods": {},
				"version": 1
			},
			"evm": {
				"assembly": "    /* \"shoot/2/create_create\\xe8\\xae\\xa1\\xe7\\xae\\x97/1.sol\":2266:2802  contract solve{... */\n  mstore(0x40, 0x80)\n  dataSize(sub_0)\n  dup1\n  dataOffset(sub_0)\n  0x00\n  codecopy\n  0x00\n  return\nstop\n\nsub_0: assembly {\n        /* \"shoot/2/create_create\\xe8\\xae\\xa1\\xe7\\xae\\x97/1.sol\":2266:2802  contract solve{... */\n      mstore(0x40, 0x80)\n      callvalue\n      dup1\n      iszero\n      tag_1\n      jumpi\n      0x00\n      dup1\n      revert\n    tag_1:\n      pop\n      jumpi(tag_2, lt(calldatasize, 0x04))\n      shr(0xe0, calldataload(0x00))\n      dup1\n      0x7ac28e8d\n      eq\n      tag_3\n      jumpi\n    tag_2:\n      0x00\n      dup1\n      revert\n        /* \"shoot/2/create_create\\xe8\\xae\\xa1\\xe7\\xae\\x97/1.sol\":2329:2799  function getAddressAndSend(bytes32 _salt,address addr) public {... */\n    tag_3:\n      tag_4\n      0x04\n      dup1\n      calldatasize\n      sub\n      dup2\n      add\n      swap1\n      tag_5\n      swap2\n      swap1\n      tag_6\n      jump\t// in\n    tag_5:\n      tag_7\n      jump\t// in\n    tag_4:\n      stop\n    tag_7:\n        /* \"shoot/2/create_create\\xe8\\xae\\xa1\\xe7\\xae\\x97/1.sol\":2435:2446  0.001 ether */\n      0x038d7ea4c68000\n        /* \"shoot/2/create_create\\xe8\\xae\\xa1\\xe7\\xae\\x97/1.sol\":2410:2431  address(this).balance */\n      selfbalance\n        /* \"shoot/2/create_create\\xe8\\xae\\xa1\\xe7\\xae\\x97/1.sol\":2410:2446  address(this).balance >= 0.001 ether */\n      lt\n      iszero\n        /* \"shoot/2/create_create\\xe8\\xae\\xa1\\xe7\\xae\\x97/1.sol\":2402:2447  require(address(this).balance >= 0.001 ether) */\n      tag_9\n      jumpi\n      0x00\n      dup1\n      revert\n    tag_9:\n        /* \"shoot/2/create_create\\xe8\\xae\\xa1\\xe7\\xae\\x97/1.sol\":2458:2479  bytes memory bytecode */\n      0x00\n        /* \"shoot/2/create_create\\xe8\\xae\\xa1\\xe7\\xae\\x97/1.sol\":2482:2506  type(found).creationCode */\n      mload(0x40)\n      dup1\n      0x20\n      add\n      tag_10\n      swap1\n      tag_11\n      jump\t// in\n    tag_10:\n      0x20\n      dup3\n      add\n      dup2\n      sub\n      dup3\n      mstore\n      not(0x1f)\n      0x1f\n      dup3\n      add\n      and\n      0x40\n      mstore\n      pop\n        /* \"shoot/2/create_create\\xe8\\xae\\xa1\\xe7\\xae\\x97/1.sol\":2458:2506  bytes memory bytecode = type(found).creationCode */\n      swap1\n      pop\n        /* \"shoot/2/create_create\\xe8\\xae\\xa1\\xe7\\xae\\x97/1.sol\":2517:2529  bytes32 hash */\n      0x00\n        /* \"shoot/2/create_create\\xe8\\xae\\xa1\\xe7\\xae\\x97/1.sol\":2590:2594  0xff */\n      0xff\n        /* \"shoot/2/create_create\\xe8\\xae\\xa1\\xe7\\xae\\x97/1.sol\":2583:2595  bytes1(0xff) */\n      0xf8\n      shl\n        /* \"shoot/2/create_create\\xe8\\xae\\xa1\\xe7\\xae\\x97/1.sol\":2610:2614  addr */\n      dup4\n        /* \"shoot/2/create_create\\xe8\\xae\\xa1\\xe7\\xae\\x97/1.sol\":2629:2634  _salt */\n      dup6\n        /* \"shoot/2/create_create\\xe8\\xae\\xa1\\xe7\\xae\\x97/1.sol\":2659:2667  bytecode */\n      dup5\n        /* \"shoot/2/create_create\\xe8\\xae\\xa1\\xe7\\xae\\x97/1.sol\":2649:2668  keccak256(bytecode) */\n      dup1\n      mload\n      swap1\n      0x20\n      add\n      keccak256\n        /* \"shoot/2/create_create\\xe8\\xae\\xa1\\xe7\\xae\\x97/1.sol\":2552:2679  abi.encodePacked(... */\n      add(0x20, mload(0x40))\n      tag_12\n      swap5\n      swap4\n      swap3\n      swap2\n      swap1\n      tag_13\n      jump\t// in\n    tag_12:\n      mload(0x40)\n      0x20\n      dup2\n      dup4\n      sub\n      sub\n      dup2\n      mstore\n      swap1\n      0x40\n      mstore\n        /* \"shoot/2/create_create\\xe8\\xae\\xa1\\xe7\\xae\\x97/1.sol\":2532:2686  keccak256(... */\n      dup1\n      mload\n      swap1\n      0x20\n      add\n      keccak256\n        /* \"shoot/2/create_create\\xe8\\xae\\xa1\\xe7\\xae\\x97/1.sol\":2517:2686  bytes32 hash = keccak256(... */\n      swap1\n      pop\n        /* \"shoot/2/create_create\\xe8\\xae\\xa1\\xe7\\xae\\x97/1.sol\":2697:2709  address _add */\n      0x00\n        /* \"shoot/2/create_create\\xe8\\xae\\xa1\\xe7\\xae\\x97/1.sol\":2736:2740  hash */\n      dup2\n        /* \"shoot/2/create_create\\xe8\\xae\\xa1\\xe7\\xae\\x97/1.sol\":2728:2741  uint256(hash) */\n      0x00\n      shr\n        /* \"shoot/2/create_create\\xe8\\xae\\xa1\\xe7\\xae\\x97/1.sol\":2697:2743  address _add = address(uint160(uint256(hash))) */\n      swap1\n      pop\n        /* \"shoot/2/create_create\\xe8\\xae\\xa1\\xe7\\xae\\x97/1.sol\":2775:2779  _add */\n      dup1\n        /* \"shoot/2/create_create\\xe8\\xae\\xa1\\xe7\\xae\\x97/1.sol\":2754:2781  selfdestruct(payable(_add)) */\n      0xffffffffffffffffffffffffffffffffffffffff\n      and\n      selfdestruct\n    tag_11:\n      dataSize(sub_0)\n      dup1\n      dataOffset(sub_0)\n      dup4\n      codecopy\n      add\n      swap1\n      jump\t// out\n        /* \"#utility.yul\":88:205   */\n    tag_15:\n        /* \"#utility.yul\":197:198   */\n      0x00\n        /* \"#utility.yul\":194:195   */\n      dup1\n        /* \"#utility.yul\":187:199   */\n      revert\n        /* \"#utility.yul\":334:411   */\n    tag_17:\n        /* \"#utility.yul\":371:378   */\n      0x00\n        /* \"#utility.yul\":400:405   */\n      dup2\n        /* \"#utility.yul\":389:405   */\n      swap1\n      pop\n        /* \"#utility.yul\":334:411   */\n      swap2\n      swap1\n      pop\n      jump\t// out\n        /* \"#utility.yul\":417:539   */\n    tag_18:\n        /* \"#utility.yul\":490:514   */\n      tag_39\n        /* \"#utility.yul\":508:513   */\n      dup2\n        /* \"#utility.yul\":490:514   */\n      tag_17\n      jump\t// in\n    tag_39:\n        /* \"#utility.yul\":483:488   */\n      dup2\n        /* \"#utility.yul\":480:515   */\n      eq\n        /* \"#utility.yul\":470:533   */\n      tag_40\n      jumpi\n        /* \"#utility.yul\":529:530   */\n      0x00\n        /* \"#utility.yul\":526:527   */\n      dup1\n        /* \"#utility.yul\":519:531   */\n      revert\n        /* \"#utility.yul\":470:533   */\n    tag_40:\n        /* \"#utility.yul\":417:539   */\n      pop\n      jump\t// out\n        /* \"#utility.yul\":545:684   */\n    tag_19:\n        /* \"#utility.yul\":591:596   */\n      0x00\n        /* \"#utility.yul\":629:635   */\n      dup2\n        /* \"#utility.yul\":616:636   */\n      calldataload\n        /* \"#utility.yul\":607:636   */\n      swap1\n      pop\n        /* \"#utility.yul\":645:678   */\n      tag_42\n        /* \"#utility.yul\":672:677   */\n      dup2\n        /* \"#utility.yul\":645:678   */\n      tag_18\n      jump\t// in\n    tag_42:\n        /* \"#utility.yul\":545:684   */\n      swap3\n      swap2\n      pop\n      pop\n      jump\t// out\n        /* \"#utility.yul\":690:816   */\n    tag_20:\n        /* \"#utility.yul\":727:734   */\n      0x00\n        /* \"#utility.yul\":767:809   */\n      0xffffffffffffffffffffffffffffffffffffffff\n        /* \"#utility.yul\":760:765   */\n      dup3\n        /* \"#utility.yul\":756:810   */\n      and\n        /* \"#utility.yul\":745:810   */\n      swap1\n      pop\n        /* \"#utility.yul\":690:816   */\n      swap2\n      swap1\n      pop\n      jump\t// out\n        /* \"#utility.yul\":822:918   */\n    tag_21:\n        /* \"#utility.yul\":859:866   */\n      0x00\n        /* \"#utility.yul\":888:912   */\n      tag_45\n        /* \"#utility.yul\":906:911   */\n      dup3\n        /* \"#utility.yul\":888:912   */\n      tag_20\n      jump\t// in\n    tag_45:\n        /* \"#utility.yul\":877:912   */\n      swap1\n      pop\n        /* \"#utility.yul\":822:918   */\n      swap2\n      swap1\n      pop\n      jump\t// out\n        /* \"#utility.yul\":924:1046   */\n    tag_22:\n        /* \"#utility.yul\":997:1021   */\n      tag_47\n        /* \"#utility.yul\":1015:1020   */\n      dup2\n        /* \"#utility.yul\":997:1021   */\n      tag_21\n      jump\t// in\n    tag_47:\n        /* \"#utility.yul\":990:995   */\n      dup2\n        /* \"#utility.yul\":987:1022   */\n      eq\n        /* \"#utility.yul\":977:1040   */\n      tag_48\n      jumpi\n        /* \"#utility.yul\":1036:1037   */\n      0x00\n        /* \"#utility.yul\":1033:1034   */\n      dup1\n        /* \"#utility.yul\":1026:1038   */\n      revert\n        /* \"#utility.yul\":977:1040   */\n    tag_48:\n        /* \"#utility.yul\":924:1046   */\n      pop\n      jump\t// out\n        /* \"#utility.yul\":1052:1191   */\n    tag_23:\n        /* \"#utility.yul\":1098:1103   */\n      0x00\n        /* \"#utility.yul\":1136:1142   */\n      dup2\n        /* \"#utility.yul\":1123:1143   */\n      calldataload\n        /* \"#utility.yul\":1114:1143   */\n      swap1\n      pop\n        /* \"#utility.yul\":1152:1185   */\n      tag_50\n        /* \"#utility.yul\":1179:1184   */\n      dup2\n        /* \"#utility.yul\":1152:1185   */\n      tag_22\n      jump\t// in\n    tag_50:\n        /* \"#utility.yul\":1052:1191   */\n      swap3\n      swap2\n      pop\n      pop\n      jump\t// out\n        /* \"#utility.yul\":1197:1671   */\n    tag_6:\n        /* \"#utility.yul\":1265:1271   */\n      0x00\n        /* \"#utility.yul\":1273:1279   */\n      dup1\n        /* \"#utility.yul\":1322:1324   */\n      0x40\n        /* \"#utility.yul\":1310:1319   */\n      dup4\n        /* \"#utility.yul\":1301:1308   */\n      dup6\n        /* \"#utility.yul\":1297:1320   */\n      sub\n        /* \"#utility.yul\":1293:1325   */\n      slt\n        /* \"#utility.yul\":1290:1409   */\n      iszero\n      tag_52\n      jumpi\n        /* \"#utility.yul\":1328:1407   */\n      tag_53\n      tag_15\n      jump\t// in\n    tag_53:\n        /* \"#utility.yul\":1290:1409   */\n    tag_52:\n        /* \"#utility.yul\":1448:1449   */\n      0x00\n        /* \"#utility.yul\":1473:1526   */\n      tag_54\n        /* \"#utility.yul\":1518:1525   */\n      dup6\n        /* \"#utility.yul\":1509:1515   */\n      dup3\n        /* \"#utility.yul\":1498:1507   */\n      dup7\n        /* \"#utility.yul\":1494:1516   */\n      add\n        /* \"#utility.yul\":1473:1526   */\n      tag_19\n      jump\t// in\n    tag_54:\n        /* \"#utility.yul\":1463:1526   */\n      swap3\n      pop\n        /* \"#utility.yul\":1419:1536   */\n      pop\n        /* \"#utility.yul\":1575:1577   */\n      0x20\n        /* \"#utility.yul\":1601:1654   */\n      tag_55\n        /* \"#utility.yul\":1646:1653   */\n      dup6\n        /* \"#utility.yul\":1637:1643   */\n      dup3\n        /* \"#utility.yul\":1626:1635   */\n      dup7\n        /* \"#utility.yul\":1622:1644   */\n      add\n        /* \"#utility.yul\":1601:1654   */\n      tag_23\n      jump\t// in\n    tag_55:\n        /* \"#utility.yul\":1591:1654   */\n      swap2\n      pop\n        /* \"#utility.yul\":1546:1664   */\n      pop\n        /* \"#utility.yul\":1197:1671   */\n      swap3\n      pop\n      swap3\n      swap1\n      pop\n      jump\t// out\n        /* \"#utility.yul\":1677:1826   */\n    tag_24:\n        /* \"#utility.yul\":1713:1720   */\n      0x00\n        /* \"#utility.yul\":1753:1819   */\n      0xff00000000000000000000000000000000000000000000000000000000000000\n        /* \"#utility.yul\":1746:1751   */\n      dup3\n        /* \"#utility.yul\":1742:1820   */\n      and\n        /* \"#utility.yul\":1731:1820   */\n      swap1\n      pop\n        /* \"#utility.yul\":1677:1826   */\n      swap2\n      swap1\n      pop\n      jump\t// out\n        /* \"#utility.yul\":1832:1910   */\n    tag_25:\n        /* \"#utility.yul\":1870:1877   */\n      0x00\n        /* \"#utility.yul\":1899:1904   */\n      dup2\n        /* \"#utility.yul\":1888:1904   */\n      swap1\n      pop\n        /* \"#utility.yul\":1832:1910   */\n      swap2\n      swap1\n      pop\n      jump\t// out\n        /* \"#utility.yul\":1916:2069   */\n    tag_26:\n        /* \"#utility.yul\":2019:2062   */\n      tag_59\n        /* \"#utility.yul\":2038:2061   */\n      tag_60\n        /* \"#utility.yul\":2055:2060   */\n      dup3\n        /* \"#utility.yul\":2038:2061   */\n      tag_24\n      jump\t// in\n    tag_60:\n        /* \"#utility.yul\":2019:2062   */\n      tag_25\n      jump\t// in\n    tag_59:\n        /* \"#utility.yul\":2014:2017   */\n      dup3\n        /* \"#utility.yul\":2007:2063   */\n      mstore\n        /* \"#utility.yul\":1916:2069   */\n      pop\n      pop\n      jump\t// out\n        /* \"#utility.yul\":2075:2169   */\n    tag_27:\n        /* \"#utility.yul\":2108:2116   */\n      0x00\n        /* \"#utility.yul\":2156:2161   */\n      dup2\n        /* \"#utility.yul\":2152:2154   */\n      0x60\n        /* \"#utility.yul\":2148:2162   */\n      shl\n        /* \"#utility.yul\":2127:2162   */\n      swap1\n      pop\n        /* \"#utility.yul\":2075:2169   */\n      swap2\n      swap1\n      pop\n      jump\t// out\n        /* \"#utility.yul\":2175:2269   */\n    tag_28:\n        /* \"#utility.yul\":2214:2221   */\n      0x00\n        /* \"#utility.yul\":2243:2263   */\n      tag_63\n        /* \"#utility.yul\":2257:2262   */\n      dup3\n        /* \"#utility.yul\":2243:2263   */\n      tag_27\n      jump\t// in\n    tag_63:\n        /* \"#utility.yul\":2232:2263   */\n      swap1\n      pop\n        /* \"#utility.yul\":2175:2269   */\n      swap2\n      swap1\n      pop\n      jump\t// out\n        /* \"#utility.yul\":2275:2375   */\n    tag_29:\n        /* \"#utility.yul\":2314:2321   */\n      0x00\n        /* \"#utility.yul\":2343:2369   */\n      tag_65\n        /* \"#utility.yul\":2363:2368   */\n      dup3\n        /* \"#utility.yul\":2343:2369   */\n      tag_28\n      jump\t// in\n    tag_65:\n        /* \"#utility.yul\":2332:2369   */\n      swap1\n      pop\n        /* \"#utility.yul\":2275:2375   */\n      swap2\n      swap1\n      pop\n      jump\t// out\n        /* \"#utility.yul\":2381:2538   */\n    tag_30:\n        /* \"#utility.yul\":2486:2531   */\n      tag_67\n        /* \"#utility.yul\":2506:2530   */\n      tag_68\n        /* \"#utility.yul\":2524:2529   */\n      dup3\n        /* \"#utility.yul\":2506:2530   */\n      tag_21\n      jump\t// in\n    tag_68:\n        /* \"#utility.yul\":2486:2531   */\n      tag_29\n      jump\t// in\n    tag_67:\n        /* \"#utility.yul\":2481:2484   */\n      dup3\n        /* \"#utility.yul\":2474:2532   */\n      mstore\n        /* \"#utility.yul\":2381:2538   */\n      pop\n      pop\n      jump\t// out\n        /* \"#utility.yul\":2544:2623   */\n    tag_31:\n        /* \"#utility.yul\":2583:2590   */\n      0x00\n        /* \"#utility.yul\":2612:2617   */\n      dup2\n        /* \"#utility.yul\":2601:2617   */\n      swap1\n      pop\n        /* \"#utility.yul\":2544:2623   */\n      swap2\n      swap1\n      pop\n      jump\t// out\n        /* \"#utility.yul\":2629:2786   */\n    tag_32:\n        /* \"#utility.yul\":2734:2779   */\n      tag_71\n        /* \"#utility.yul\":2754:2778   */\n      tag_72\n        /* \"#utility.yul\":2772:2777   */\n      dup3\n        /* \"#utility.yul\":2754:2778   */\n      tag_17\n      jump\t// in\n    tag_72:\n        /* \"#utility.yul\":2734:2779   */\n      tag_31\n      jump\t// in\n    tag_71:\n        /* \"#utility.yul\":2729:2732   */\n      dup3\n        /* \"#utility.yul\":2722:2780   */\n      mstore\n        /* \"#utility.yul\":2629:2786   */\n      pop\n      pop\n      jump\t// out\n        /* \"#utility.yul\":2792:3466   */\n    tag_13:\n        /* \"#utility.yul\":2986:2989   */\n      0x00\n        /* \"#utility.yul\":3001:3074   */\n      tag_74\n        /* \"#utility.yul\":3070:3073   */\n      dup3\n        /* \"#utility.yul\":3061:3067   */\n      dup8\n        /* \"#utility.yul\":3001:3074   */\n      tag_26\n      jump\t// in\n    tag_74:\n        /* \"#utility.yul\":3099:3100   */\n      0x01\n        /* \"#utility.yul\":3094:3097   */\n      dup3\n        /* \"#utility.yul\":3090:3101   */\n      add\n        /* \"#utility.yul\":3083:3101   */\n      swap2\n      pop\n        /* \"#utility.yul\":3111:3186   */\n      tag_75\n        /* \"#utility.yul\":3182:3185   */\n      dup3\n        /* \"#utility.yul\":3173:3179   */\n      dup7\n        /* \"#utility.yul\":3111:3186   */\n      tag_30\n      jump\t// in\n    tag_75:\n        /* \"#utility.yul\":3211:3213   */\n      0x14\n        /* \"#utility.yul\":3206:3209   */\n      dup3\n        /* \"#utility.yul\":3202:3214   */\n      add\n        /* \"#utility.yul\":3195:3214   */\n      swap2\n      pop\n        /* \"#utility.yul\":3224:3299   */\n      tag_76\n        /* \"#utility.yul\":3295:3298   */\n      dup3\n        /* \"#utility.yul\":3286:3292   */\n      dup6\n        /* \"#utility.yul\":3224:3299   */\n      tag_32\n      jump\t// in\n    tag_76:\n        /* \"#utility.yul\":3324:3326   */\n      0x20\n        /* \"#utility.yul\":3319:3322   */\n      dup3\n        /* \"#utility.yul\":3315:3327   */\n      add\n        /* \"#utility.yul\":3308:3327   */\n      swap2\n      pop\n        /* \"#utility.yul\":3337:3412   */\n      tag_77\n        /* \"#utility.yul\":3408:3411   */\n      dup3\n        /* \"#utility.yul\":3399:3405   */\n      dup5\n        /* \"#utility.yul\":3337:3412   */\n      tag_32\n      jump\t// in\n    tag_77:\n        /* \"#utility.yul\":3437:3439   */\n      0x20\n        /* \"#utility.yul\":3432:3435   */\n      dup3\n        /* \"#utility.yul\":3428:3440   */\n      add\n        /* \"#utility.yul\":3421:3440   */\n      swap2\n      pop\n        /* \"#utility.yul\":3457:3460   */\n      dup2\n        /* \"#utility.yul\":3450:3460   */\n      swap1\n      pop\n        /* \"#utility.yul\":2792:3466   */\n      swap6\n      swap5\n      pop\n      pop\n      pop\n      pop\n      pop\n      jump\t// out\n    stop\n\n    sub_0: assembly {\n            /* \"shoot/2/create_create\\xe8\\xae\\xa1\\xe7\\xae\\x97/1.sol\":128:394  contract found{... */\n          mstore(0x40, 0x80)\n            /* \"shoot/2/create_create\\xe8\\xae\\xa1\\xe7\\xae\\x97/1.sol\":170:175  false */\n          0x00\n            /* \"shoot/2/create_create\\xe8\\xae\\xa1\\xe7\\xae\\x97/1.sol\":149:175  bool public resove = false */\n          dup1\n          exp(0x0100, 0x00)\n          dup2\n          sload\n          dup2\n          0xff\n          mul\n          not\n          and\n          swap1\n          dup4\n          iszero\n          iszero\n          mul\n          or\n          swap1\n          sstore\n          pop\n            /* \"shoot/2/create_create\\xe8\\xae\\xa1\\xe7\\xae\\x97/1.sol\":188:301  constructor(){... */\n          callvalue\n          dup1\n          iszero\n          tag_1\n          jumpi\n          0x00\n          dup1\n          revert\n        tag_1:\n          pop\n            /* \"shoot/2/create_create\\xe8\\xae\\xa1\\xe7\\xae\\x97/1.sol\":240:251  0.001 ether */\n          0x038d7ea4c68000\n            /* \"shoot/2/create_create\\xe8\\xae\\xa1\\xe7\\xae\\x97/1.sol\":215:236  address(this).balance */\n          selfbalance\n            /* \"shoot/2/create_create\\xe8\\xae\\xa1\\xe7\\xae\\x97/1.sol\":215:251  address(this).balance >= 0.001 ether */\n          lt\n            /* \"shoot/2/create_create\\xe8\\xae\\xa1\\xe7\\xae\\x97/1.sol\":212:292  if(address(this).balance >= 0.001 ether){... */\n          tag_4\n          jumpi\n            /* \"shoot/2/create_create\\xe8\\xae\\xa1\\xe7\\xae\\x97/1.sol\":276:280  true */\n          0x01\n            /* \"shoot/2/create_create\\xe8\\xae\\xa1\\xe7\\xae\\x97/1.sol\":267:273  resove */\n          0x00\n          dup1\n            /* \"shoot/2/create_create\\xe8\\xae\\xa1\\xe7\\xae\\x97/1.sol\":267:280  resove = true */\n          0x0100\n          exp\n          dup2\n          sload\n          dup2\n          0xff\n          mul\n          not\n          and\n          swap1\n          dup4\n          iszero\n          iszero\n          mul\n          or\n          swap1\n          sstore\n          pop\n            /* \"shoot/2/create_create\\xe8\\xae\\xa1\\xe7\\xae\\x97/1.sol\":212:292  if(address(this).balance >= 0.001 ether){... */\n        tag_4:\n            /* \"shoot/2/create_create\\xe8\\xae\\xa1\\xe7\\xae\\x97/1.sol\":128:394  contract found{... */\n          dataSize(sub_0)\n          dup1\n          dataOffset(sub_0)\n          0x00\n          codecopy\n          0x00\n          return\n        stop\n\n        sub_0: assembly {\n                /* \"shoot/2/create_create\\xe8\\xae\\xa1\\xe7\\xae\\x97/1.sol\":128:394  contract found{... */\n              mstore(0x40, 0x80)\n              callvalue\n              dup1\n              iszero\n              tag_1\n              jumpi\n              0x00\n              dup1\n              revert\n            tag_1:\n              pop\n              jumpi(tag_2, lt(calldatasize, 0x04))\n              shr(0xe0, calldataload(0x00))\n              dup1\n              0x4c0f7987\n              eq\n              tag_3\n              jumpi\n              dup1\n              0xac51c67d\n              eq\n              tag_4\n              jumpi\n            tag_2:\n              0x00\n              dup1\n              revert\n                /* \"shoot/2/create_create\\xe8\\xae\\xa1\\xe7\\xae\\x97/1.sol\":313:391  function getResove() public view returns(bool){... */\n            tag_3:\n              tag_5\n              tag_6\n              jump\t// in\n            tag_5:\n              mload(0x40)\n              tag_7\n              swap2\n              swap1\n              tag_8\n              jump\t// in\n            tag_7:\n              mload(0x40)\n              dup1\n              swap2\n              sub\n              swap1\n              return\n                /* \"shoot/2/create_create\\xe8\\xae\\xa1\\xe7\\xae\\x97/1.sol\":149:175  bool public resove = false */\n            tag_4:\n              tag_9\n              tag_10\n              jump\t// in\n            tag_9:\n              mload(0x40)\n              tag_11\n              swap2\n              swap1\n              tag_8\n              jump\t// in\n            tag_11:\n              mload(0x40)\n              dup1\n              swap2\n              sub\n              swap1\n              return\n                /* \"shoot/2/create_create\\xe8\\xae\\xa1\\xe7\\xae\\x97/1.sol\":313:391  function getResove() public view returns(bool){... */\n            tag_6:\n                /* \"shoot/2/create_create\\xe8\\xae\\xa1\\xe7\\xae\\x97/1.sol\":354:358  bool */\n              0x00\n                /* \"shoot/2/create_create\\xe8\\xae\\xa1\\xe7\\xae\\x97/1.sol\":377:383  resove */\n              dup1\n              0x00\n              swap1\n              sload\n              swap1\n              0x0100\n              exp\n              swap1\n              div\n              0xff\n              and\n                /* \"shoot/2/create_create\\xe8\\xae\\xa1\\xe7\\xae\\x97/1.sol\":370:383  return resove */\n              swap1\n              pop\n                /* \"shoot/2/create_create\\xe8\\xae\\xa1\\xe7\\xae\\x97/1.sol\":313:391  function getResove() public view returns(bool){... */\n              swap1\n              jump\t// out\n                /* \"shoot/2/create_create\\xe8\\xae\\xa1\\xe7\\xae\\x97/1.sol\":149:175  bool public resove = false */\n            tag_10:\n              0x00\n              dup1\n              sload\n              swap1\n              0x0100\n              exp\n              swap1\n              div\n              0xff\n              and\n              dup2\n              jump\t// out\n                /* \"#utility.yul\":7:97   */\n            tag_13:\n                /* \"#utility.yul\":41:48   */\n              0x00\n                /* \"#utility.yul\":84:89   */\n              dup2\n                /* \"#utility.yul\":77:90   */\n              iszero\n                /* \"#utility.yul\":70:91   */\n              iszero\n                /* \"#utility.yul\":59:91   */\n              swap1\n              pop\n                /* \"#utility.yul\":7:97   */\n              swap2\n              swap1\n              pop\n              jump\t// out\n                /* \"#utility.yul\":103:212   */\n            tag_14:\n                /* \"#utility.yul\":184:205   */\n              tag_18\n                /* \"#utility.yul\":199:204   */\n              dup2\n                /* \"#utility.yul\":184:205   */\n              tag_13\n              jump\t// in\n            tag_18:\n                /* \"#utility.yul\":179:182   */\n              dup3\n                /* \"#utility.yul\":172:206   */\n              mstore\n                /* \"#utility.yul\":103:212   */\n              pop\n              pop\n              jump\t// out\n                /* \"#utility.yul\":218:428   */\n            tag_8:\n                /* \"#utility.yul\":305:309   */\n              0x00\n                /* \"#utility.yul\":343:345   */\n              0x20\n                /* \"#utility.yul\":332:341   */\n              dup3\n                /* \"#utility.yul\":328:346   */\n              add\n                /* \"#utility.yul\":320:346   */\n              swap1\n              pop\n                /* \"#utility.yul\":356:421   */\n              tag_20\n                /* \"#utility.yul\":418:419   */\n              0x00\n                /* \"#utility.yul\":407:416   */\n              dup4\n                /* \"#utility.yul\":403:420   */\n              add\n                /* \"#utility.yul\":394:400   */\n              dup5\n                /* \"#utility.yul\":356:421   */\n              tag_14\n              jump\t// in\n            tag_20:\n                /* \"#utility.yul\":218:428   */\n              swap3\n              swap2\n              pop\n              pop\n              jump\t// out\n\n            auxdata: 0xa26469706673582212200259156a9f5842f0743c0b146c2ba3571e6524b62428346437df5c22e9393ed664736f6c63430008150033\n        }\n    }\n\n    auxdata: 0xa264697066735822122035d472248fbbe5feb6be0d3982bb5ce6ecfd53333faaec97ead6c4f31722d4dc64736f6c63430008150033\n}\n",
				"bytecode": {
					"linkReferences": {},
					"object": "6080604052610439806100115f395ff3fe608060405234801561000f575f80fd5b5060043610610029575f3560e01c80637ac28e8d1461002d575b5f80fd5b6100476004803603810190610042919061017b565b610049565b005b66038d7ea4c6800047101561005c575f80fd5b5f6040518060200161006d906100dd565b6020820181038252601f19601f8201166040525090505f60ff60f81b838584805190602001206040516020016100a69493929190610269565b6040516020818303038152906040528051906020012090505f815f1c90508073ffffffffffffffffffffffffffffffffffffffff16ff5b61014d806102b783390190565b5f80fd5b5f819050919050565b610100816100ee565b811461010a575f80fd5b50565b5f8135905061011b816100f7565b92915050565b5f73ffffffffffffffffffffffffffffffffffffffff82169050919050565b5f61014a82610121565b9050919050565b61015a81610140565b8114610164575f80fd5b50565b5f8135905061017581610151565b92915050565b5f8060408385031215610191576101906100ea565b5b5f61019e8582860161010d565b92505060206101af85828601610167565b9150509250929050565b5f7fff0000000000000000000000000000000000000000000000000000000000000082169050919050565b5f819050919050565b6101fe6101f9826101b9565b6101e4565b82525050565b5f8160601b9050919050565b5f61021a82610204565b9050919050565b5f61022b82610210565b9050919050565b61024361023e82610140565b610221565b82525050565b5f819050919050565b61026361025e826100ee565b610249565b82525050565b5f61027482876101ed565b6001820191506102848286610232565b6014820191506102948285610252565b6020820191506102a48284610252565b6020820191508190509594505050505056fe60806040525f805f6101000a81548160ff021916908315150217905550348015610027575f80fd5b5066038d7ea4c6800047106100505760015f806101000a81548160ff0219169083151502179055505b60f18061005c5f395ff3fe6080604052348015600e575f80fd5b50600436106030575f3560e01c80634c0f7987146034578063ac51c67d14604e575b5f80fd5b603a6068565b6040516045919060a4565b60405180910390f35b6054607c565b604051605f919060a4565b60405180910390f35b5f805f9054906101000a900460ff16905090565b5f8054906101000a900460ff1681565b5f8115159050919050565b609e81608c565b82525050565b5f60208201905060b55f8301846097565b9291505056fea26469706673582212200259156a9f5842f0743c0b146c2ba3571e6524b62428346437df5c22e9393ed664736f6c63430008150033a264697066735822122035d472248fbbe5feb6be0d3982bb5ce6ecfd53333faaec97ead6c4f31722d4dc64736f6c63430008150033",
					"opcodes": "PUSH1 0x80 PUSH1 0x40 MSTORE PUSH2 0x439 DUP1 PUSH2 0x11 PUSH0 CODECOPY PUSH0 RETURN INVALID PUSH1 0x80 PUSH1 0x40 MSTORE CALLVALUE DUP1 ISZERO PUSH2 0xF JUMPI PUSH0 DUP1 REVERT JUMPDEST POP PUSH1 0x4 CALLDATASIZE LT PUSH2 0x29 JUMPI PUSH0 CALLDATALOAD PUSH1 0xE0 SHR DUP1 PUSH4 0x7AC28E8D EQ PUSH2 0x2D JUMPI JUMPDEST PUSH0 DUP1 REVERT JUMPDEST PUSH2 0x47 PUSH1 0x4 DUP1 CALLDATASIZE SUB DUP2 ADD SWAP1 PUSH2 0x42 SWAP2 SWAP1 PUSH2 0x17B JUMP JUMPDEST PUSH2 0x49 JUMP JUMPDEST STOP JUMPDEST PUSH7 0x38D7EA4C68000 SELFBALANCE LT ISZERO PUSH2 0x5C JUMPI PUSH0 DUP1 REVERT JUMPDEST PUSH0 PUSH1 0x40 MLOAD DUP1 PUSH1 0x20 ADD PUSH2 0x6D SWAP1 PUSH2 0xDD JUMP JUMPDEST PUSH1 0x20 DUP3 ADD DUP2 SUB DUP3 MSTORE PUSH1 0x1F NOT PUSH1 0x1F DUP3 ADD AND PUSH1 0x40 MSTORE POP SWAP1 POP PUSH0 PUSH1 0xFF PUSH1 0xF8 SHL DUP4 DUP6 DUP5 DUP1 MLOAD SWAP1 PUSH1 0x20 ADD KECCAK256 PUSH1 0x40 MLOAD PUSH1 0x20 ADD PUSH2 0xA6 SWAP5 SWAP4 SWAP3 SWAP2 SWAP1 PUSH2 0x269 JUMP JUMPDEST PUSH1 0x40 MLOAD PUSH1 0x20 DUP2 DUP4 SUB SUB DUP2 MSTORE SWAP1 PUSH1 0x40 MSTORE DUP1 MLOAD SWAP1 PUSH1 0x20 ADD KECCAK256 SWAP1 POP PUSH0 DUP2 PUSH0 SHR SWAP1 POP DUP1 PUSH20 0xFFFFFFFFFFFFFFFFFFFFFFFFFFFFFFFFFFFFFFFF AND SELFDESTRUCT JUMPDEST PUSH2 0x14D DUP1 PUSH2 0x2B7 DUP4 CODECOPY ADD SWAP1 JUMP JUMPDEST PUSH0 DUP1 REVERT JUMPDEST PUSH0 DUP2 SWAP1 POP SWAP2 SWAP1 POP JUMP JUMPDEST PUSH2 0x100 DUP2 PUSH2 0xEE JUMP JUMPDEST DUP2 EQ PUSH2 0x10A JUMPI PUSH0 DUP1 REVERT JUMPDEST POP JUMP JUMPDEST PUSH0 DUP2 CALLDATALOAD SWAP1 POP PUSH2 0x11B DUP2 PUSH2 0xF7 JUMP JUMPDEST SWAP3 SWAP2 POP POP JUMP JUMPDEST PUSH0 PUSH20 0xFFFFFFFFFFFFFFFFFFFFFFFFFFFFFFFFFFFFFFFF DUP3 AND SWAP1 POP SWAP2 SWAP1 POP JUMP JUMPDEST PUSH0 PUSH2 0x14A DUP3 PUSH2 0x121 JUMP JUMPDEST SWAP1 POP SWAP2 SWAP1 POP JUMP JUMPDEST PUSH2 0x15A DUP2 PUSH2 0x140 JUMP JUMPDEST DUP2 EQ PUSH2 0x164 JUMPI PUSH0 DUP1 REVERT JUMPDEST POP JUMP JUMPDEST PUSH0 DUP2 CALLDATALOAD SWAP1 POP PUSH2 0x175 DUP2 PUSH2 0x151 JUMP JUMPDEST SWAP3 SWAP2 POP POP JUMP JUMPDEST PUSH0 DUP1 PUSH1 0x40 DUP4 DUP6 SUB SLT ISZERO PUSH2 0x191 JUMPI PUSH2 0x190 PUSH2 0xEA JUMP JUMPDEST JUMPDEST PUSH0 PUSH2 0x19E DUP6 DUP3 DUP7 ADD PUSH2 0x10D JUMP JUMPDEST SWAP3 POP POP PUSH1 0x20 PUSH2 0x1AF DUP6 DUP3 DUP7 ADD PUSH2 0x167 JUMP JUMPDEST SWAP2 POP POP SWAP3 POP SWAP3 SWAP1 POP JUMP JUMPDEST PUSH0 PUSH32 0xFF00000000000000000000000000000000000000000000000000000000000000 DUP3 AND SWAP1 POP SWAP2 SWAP1 POP JUMP JUMPDEST PUSH0 DUP2 SWAP1 POP SWAP2 SWAP1 POP JUMP JUMPDEST PUSH2 0x1FE PUSH2 0x1F9 DUP3 PUSH2 0x1B9 JUMP JUMPDEST PUSH2 0x1E4 JUMP JUMPDEST DUP3 MSTORE POP POP JUMP JUMPDEST PUSH0 DUP2 PUSH1 0x60 SHL SWAP1 POP SWAP2 SWAP1 POP JUMP JUMPDEST PUSH0 PUSH2 0x21A DUP3 PUSH2 0x204 JUMP JUMPDEST SWAP1 POP SWAP2 SWAP1 POP JUMP JUMPDEST PUSH0 PUSH2 0x22B DUP3 PUSH2 0x210 JUMP JUMPDEST SWAP1 POP SWAP2 SWAP1 POP JUMP JUMPDEST PUSH2 0x243 PUSH2 0x23E DUP3 PUSH2 0x140 JUMP JUMPDEST PUSH2 0x221 JUMP JUMPDEST DUP3 MSTORE POP POP JUMP JUMPDEST PUSH0 DUP2 SWAP1 POP SWAP2 SWAP1 POP JUMP JUMPDEST PUSH2 0x263 PUSH2 0x25E DUP3 PUSH2 0xEE JUMP JUMPDEST PUSH2 0x249 JUMP JUMPDEST DUP3 MSTORE POP POP JUMP JUMPDEST PUSH0 PUSH2 0x274 DUP3 DUP8 PUSH2 0x1ED JUMP JUMPDEST PUSH1 0x1 DUP3 ADD SWAP2 POP PUSH2 0x284 DUP3 DUP7 PUSH2 0x232 JUMP JUMPDEST PUSH1 0x14 DUP3 ADD SWAP2 POP PUSH2 0x294 DUP3 DUP6 PUSH2 0x252 JUMP JUMPDEST PUSH1 0x20 DUP3 ADD SWAP2 POP PUSH2 0x2A4 DUP3 DUP5 PUSH2 0x252 JUMP JUMPDEST PUSH1 0x20 DUP3 ADD SWAP2 POP DUP2 SWAP1 POP SWAP6 SWAP5 POP POP POP POP POP JUMP INVALID PUSH1 0x80 PUSH1 0x40 MSTORE PUSH0 DUP1 PUSH0 PUSH2 0x100 EXP DUP2 SLOAD DUP2 PUSH1 0xFF MUL NOT AND SWAP1 DUP4 ISZERO ISZERO MUL OR SWAP1 SSTORE POP CALLVALUE DUP1 ISZERO PUSH2 0x27 JUMPI PUSH0 DUP1 REVERT JUMPDEST POP PUSH7 0x38D7EA4C68000 SELFBALANCE LT PUSH2 0x50 JUMPI PUSH1 0x1 PUSH0 DUP1 PUSH2 0x100 EXP DUP2 SLOAD DUP2 PUSH1 0xFF MUL NOT AND SWAP1 DUP4 ISZERO ISZERO MUL OR SWAP1 SSTORE POP JUMPDEST PUSH1 0xF1 DUP1 PUSH2 0x5C PUSH0 CODECOPY PUSH0 RETURN INVALID PUSH1 0x80 PUSH1 0x40 MSTORE CALLVALUE DUP1 ISZERO PUSH1 0xE JUMPI PUSH0 DUP1 REVERT JUMPDEST POP PUSH1 0x4 CALLDATASIZE LT PUSH1 0x30 JUMPI PUSH0 CALLDATALOAD PUSH1 0xE0 SHR DUP1 PUSH4 0x4C0F7987 EQ PUSH1 0x34 JUMPI DUP1 PUSH4 0xAC51C67D EQ PUSH1 0x4E JUMPI JUMPDEST PUSH0 DUP1 REVERT JUMPDEST PUSH1 0x3A PUSH1 0x68 JUMP JUMPDEST PUSH1 0x40 MLOAD PUSH1 0x45 SWAP2 SWAP1 PUSH1 0xA4 JUMP JUMPDEST PUSH1 0x40 MLOAD DUP1 SWAP2 SUB SWAP1 RETURN JUMPDEST PUSH1 0x54 PUSH1 0x7C JUMP JUMPDEST PUSH1 0x40 MLOAD PUSH1 0x5F SWAP2 SWAP1 PUSH1 0xA4 JUMP JUMPDEST PUSH1 0x40 MLOAD DUP1 SWAP2 SUB SWAP1 RETURN JUMPDEST PUSH0 DUP1 PUSH0 SWAP1 SLOAD SWAP1 PUSH2 0x100 EXP SWAP1 DIV PUSH1 0xFF AND SWAP1 POP SWAP1 JUMP JUMPDEST PUSH0 DUP1 SLOAD SWAP1 PUSH2 0x100 EXP SWAP1 DIV PUSH1 0xFF AND DUP2 JUMP JUMPDEST PUSH0 DUP2 ISZERO ISZERO SWAP1 POP SWAP2 SWAP1 POP JUMP JUMPDEST PUSH1 0x9E DUP2 PUSH1 0x8C JUMP JUMPDEST DUP3 MSTORE POP POP JUMP JUMPDEST PUSH0 PUSH1 0x20 DUP3 ADD SWAP1 POP PUSH1 0xB5 PUSH0 DUP4 ADD DUP5 PUSH1 0x97 JUMP JUMPDEST SWAP3 SWAP2 POP POP JUMP INVALID LOG2 PUSH5 0x6970667358 0x22 SLT KECCAK256 MUL MSIZE ISZERO PUSH11 0x9F5842F0743C0B146C2BA3 JUMPI 0x1E PUSH6 0x24B624283464 CALLDATACOPY 0xDF 0x5C 0x22 0xE9 CODECOPY RETURNDATACOPY 0xD6 PUSH5 0x736F6C6343 STOP ADDMOD ISZERO STOP CALLER LOG2 PUSH5 0x6970667358 0x22 SLT KECCAK256 CALLDATALOAD 0xD4 PUSH19 0x248FBBE5FEB6BE0D3982BB5CE6ECFD53333FAA 0xEC SWAP8 0xEA 0xD6 0xC4 RETURN OR 0x22 0xD4 0xDC PUSH5 0x736F6C6343 STOP ADDMOD ISZERO STOP CALLER "
				},
				"gasEstimates": {
					"creation": {
						"codeDepositCost": "216200",
						"executionCost": "231",
						"totalCost": "216431"
					},
					"external": {
						"getAddressAndSend(bytes32,address)": "infinite"
					}
				},
				"methodIdentifiers": {
					"getAddressAndSend(bytes32,address)": "7ac28e8d"
				}
			},
			"storageLayout": {
				"storage": [],
				"types": null
			},
			"userdoc": {
				"kind": "user",
				"methods": {},
				"version": 1
			}
		}
	}
}