{
	"shoot/2/create_create计算/1.sol": {
		"check": {
			"abi": [
				{
					"inputs": [
						{
							"internalType": "bytes32",
							"name": "_salt",
							"type": "bytes32"
						}
					],
					"name": "depoly",
					"outputs": [
						{
							"internalType": "address",
							"name": "",
							"type": "address"
						}
					],
					"stateMutability": "nonpayable",
					"type": "function"
				},
				{
					"inputs": [],
					"name": "isCompleted",
					"outputs": [],
					"stateMutability": "nonpayable",
					"type": "function"
				},
				{
					"inputs": [],
					"name": "score",
					"outputs": [
						{
							"internalType": "uint256",
							"name": "",
							"type": "uint256"
						}
					],
					"stateMutability": "view",
					"type": "function"
				},
				{
					"inputs": [],
					"name": "target",
					"outputs": [
						{
							"internalType": "contract found",
							"name": "",
							"type": "address"
						}
					],
					"stateMutability": "view",
					"type": "function"
				}
			],
			"devdoc": {
				"kind": "dev",
				"methods": {},
				"version": 1
			},
			"evm": {
				"assembly": "    /* \"shoot/2/create_create\\xe8\\xae\\xa1\\xe7\\xae\\x97/1.sol\":396:830  contract check{... */\n  mstore(0x40, 0x80)\n  callvalue\n  dup1\n  iszero\n  tag_1\n  jumpi\n  0x00\n  dup1\n  revert\ntag_1:\n  pop\n  dataSize(sub_0)\n  dup1\n  dataOffset(sub_0)\n  0x00\n  codecopy\n  0x00\n  return\nstop\n\nsub_0: assembly {\n        /* \"shoot/2/create_create\\xe8\\xae\\xa1\\xe7\\xae\\x97/1.sol\":396:830  contract check{... */\n      mstore(0x40, 0x80)\n      callvalue\n      dup1\n      iszero\n      tag_1\n      jumpi\n      0x00\n      dup1\n      revert\n    tag_1:\n      pop\n      jumpi(tag_2, lt(calldatasize, 0x04))\n      shr(0xe0, calldataload(0x00))\n      dup1\n      0xd4b83992\n      eq\n      tag_3\n      jumpi\n      dup1\n      0xd93f4900\n      eq\n      tag_4\n      jumpi\n      dup1\n      0xefedc669\n      eq\n      tag_5\n      jumpi\n      dup1\n      0xfa391c64\n      eq\n      tag_6\n      jumpi\n    tag_2:\n      0x00\n      dup1\n      revert\n        /* \"shoot/2/create_create\\xe8\\xae\\xa1\\xe7\\xae\\x97/1.sol\":417:436  found public target */\n    tag_3:\n      tag_7\n      tag_8\n      jump\t// in\n    tag_7:\n      mload(0x40)\n      tag_9\n      swap2\n      swap1\n      tag_10\n      jump\t// in\n    tag_9:\n      mload(0x40)\n      dup1\n      swap2\n      sub\n      swap1\n      return\n        /* \"shoot/2/create_create\\xe8\\xae\\xa1\\xe7\\xae\\x97/1.sol\":473:612  function depoly(bytes32 _salt) public returns(address){... */\n    tag_4:\n      tag_11\n      0x04\n      dup1\n      calldatasize\n      sub\n      dup2\n      add\n      swap1\n      tag_12\n      swap2\n      swap1\n      tag_13\n      jump\t// in\n    tag_12:\n      tag_14\n      jump\t// in\n    tag_11:\n      mload(0x40)\n      tag_15\n      swap2\n      swap1\n      tag_16\n      jump\t// in\n    tag_15:\n      mload(0x40)\n      dup1\n      swap2\n      sub\n      swap1\n      return\n        /* \"shoot/2/create_create\\xe8\\xae\\xa1\\xe7\\xae\\x97/1.sol\":443:460  uint public score */\n    tag_5:\n      tag_17\n      tag_18\n      jump\t// in\n    tag_17:\n      mload(0x40)\n      tag_19\n      swap2\n      swap1\n      tag_20\n      jump\t// in\n    tag_19:\n      mload(0x40)\n      dup1\n      swap2\n      sub\n      swap1\n      return\n        /* \"shoot/2/create_create\\xe8\\xae\\xa1\\xe7\\xae\\x97/1.sol\":618:827  function isCompleted() public {... */\n    tag_6:\n      tag_21\n      tag_22\n      jump\t// in\n    tag_21:\n      stop\n        /* \"shoot/2/create_create\\xe8\\xae\\xa1\\xe7\\xae\\x97/1.sol\":417:436  found public target */\n    tag_8:\n      0x00\n      dup1\n      sload\n      swap1\n      0x0100\n      exp\n      swap1\n      div\n      0xffffffffffffffffffffffffffffffffffffffff\n      and\n      dup2\n      jump\t// out\n        /* \"shoot/2/create_create\\xe8\\xae\\xa1\\xe7\\xae\\x97/1.sol\":473:612  function depoly(bytes32 _salt) public returns(address){... */\n    tag_14:\n        /* \"shoot/2/create_create\\xe8\\xae\\xa1\\xe7\\xae\\x97/1.sol\":519:526  address */\n      0x00\n        /* \"shoot/2/create_create\\xe8\\xae\\xa1\\xe7\\xae\\x97/1.sol\":563:568  _salt */\n      dup2\n        /* \"shoot/2/create_create\\xe8\\xae\\xa1\\xe7\\xae\\x97/1.sol\":547:571  new found{salt: _salt}() */\n      mload(0x40)\n      tag_24\n      swap1\n      tag_25\n      jump\t// in\n    tag_24:\n      dup2\n      swap1\n      mload(0x40)\n      dup1\n      swap2\n      sub\n      swap1\n      0x00\n      create2\n      swap1\n      pop\n      dup1\n      iszero\n      dup1\n      iszero\n      tag_26\n      jumpi\n      returndatasize\n      0x00\n      dup1\n      returndatacopy\n      revert(0x00, returndatasize)\n    tag_26:\n      pop\n        /* \"shoot/2/create_create\\xe8\\xae\\xa1\\xe7\\xae\\x97/1.sol\":538:544  target */\n      0x00\n      dup1\n        /* \"shoot/2/create_create\\xe8\\xae\\xa1\\xe7\\xae\\x97/1.sol\":538:571  target = new found{salt: _salt}() */\n      0x0100\n      exp\n      dup2\n      sload\n      dup2\n      0xffffffffffffffffffffffffffffffffffffffff\n      mul\n      not\n      and\n      swap1\n      dup4\n      0xffffffffffffffffffffffffffffffffffffffff\n      and\n      mul\n      or\n      swap1\n      sstore\n      pop\n        /* \"shoot/2/create_create\\xe8\\xae\\xa1\\xe7\\xae\\x97/1.sol\":597:603  target */\n      0x00\n      dup1\n      sload\n      swap1\n      0x0100\n      exp\n      swap1\n      div\n      0xffffffffffffffffffffffffffffffffffffffff\n      and\n        /* \"shoot/2/create_create\\xe8\\xae\\xa1\\xe7\\xae\\x97/1.sol\":582:604  return address(target) */\n      swap1\n      pop\n        /* \"shoot/2/create_create\\xe8\\xae\\xa1\\xe7\\xae\\x97/1.sol\":473:612  function depoly(bytes32 _salt) public returns(address){... */\n      swap2\n      swap1\n      pop\n      jump\t// out\n        /* \"shoot/2/create_create\\xe8\\xae\\xa1\\xe7\\xae\\x97/1.sol\":443:460  uint public score */\n    tag_18:\n      sload(0x01)\n      dup2\n      jump\t// out\n        /* \"shoot/2/create_create\\xe8\\xae\\xa1\\xe7\\xae\\x97/1.sol\":618:827  function isCompleted() public {... */\n    tag_22:\n        /* \"shoot/2/create_create\\xe8\\xae\\xa1\\xe7\\xae\\x97/1.sol\":667:668  0 */\n      0x00\n        /* \"shoot/2/create_create\\xe8\\xae\\xa1\\xe7\\xae\\x97/1.sol\":659:664  score */\n      0x01\n        /* \"shoot/2/create_create\\xe8\\xae\\xa1\\xe7\\xae\\x97/1.sol\":659:668  score = 0 */\n      dup2\n      swap1\n      sstore\n      pop\n        /* \"shoot/2/create_create\\xe8\\xae\\xa1\\xe7\\xae\\x97/1.sol\":709:710  0 */\n      0x00\n        /* \"shoot/2/create_create\\xe8\\xae\\xa1\\xe7\\xae\\x97/1.sol\":682:711  address(target) != address(0) */\n      0xffffffffffffffffffffffffffffffffffffffff\n      and\n        /* \"shoot/2/create_create\\xe8\\xae\\xa1\\xe7\\xae\\x97/1.sol\":690:696  target */\n      0x00\n      dup1\n      sload\n      swap1\n      0x0100\n      exp\n      swap1\n      div\n      0xffffffffffffffffffffffffffffffffffffffff\n      and\n        /* \"shoot/2/create_create\\xe8\\xae\\xa1\\xe7\\xae\\x97/1.sol\":682:711  address(target) != address(0) */\n      0xffffffffffffffffffffffffffffffffffffffff\n      and\n      eq\n        /* \"shoot/2/create_create\\xe8\\xae\\xa1\\xe7\\xae\\x97/1.sol\":679:750  if(address(target) != address(0)){... */\n      tag_28\n      jumpi\n        /* \"shoot/2/create_create\\xe8\\xae\\xa1\\xe7\\xae\\x97/1.sol\":736:738  30 */\n      0x1e\n        /* \"shoot/2/create_create\\xe8\\xae\\xa1\\xe7\\xae\\x97/1.sol\":727:732  score */\n      0x01\n      0x00\n        /* \"shoot/2/create_create\\xe8\\xae\\xa1\\xe7\\xae\\x97/1.sol\":727:738  score += 30 */\n      dup3\n      dup3\n      sload\n      tag_29\n      swap2\n      swap1\n      tag_30\n      jump\t// in\n    tag_29:\n      swap3\n      pop\n      pop\n      dup2\n      swap1\n      sstore\n      pop\n        /* \"shoot/2/create_create\\xe8\\xae\\xa1\\xe7\\xae\\x97/1.sol\":679:750  if(address(target) != address(0)){... */\n    tag_28:\n        /* \"shoot/2/create_create\\xe8\\xae\\xa1\\xe7\\xae\\x97/1.sol\":763:769  target */\n      0x00\n      dup1\n      sload\n      swap1\n      0x0100\n      exp\n      swap1\n      div\n      0xffffffffffffffffffffffffffffffffffffffff\n      and\n        /* \"shoot/2/create_create\\xe8\\xae\\xa1\\xe7\\xae\\x97/1.sol\":763:779  target.getResove */\n      0xffffffffffffffffffffffffffffffffffffffff\n      and\n      0x4c0f7987\n        /* \"shoot/2/create_create\\xe8\\xae\\xa1\\xe7\\xae\\x97/1.sol\":763:781  target.getResove() */\n      mload(0x40)\n      dup2\n      0xffffffff\n      and\n      0xe0\n      shl\n      dup2\n      mstore\n      0x04\n      add\n      0x20\n      mload(0x40)\n      dup1\n      dup4\n      sub\n      dup2\n      dup7\n      gas\n      staticcall\n      iszero\n      dup1\n      iszero\n      tag_32\n      jumpi\n      returndatasize\n      0x00\n      dup1\n      returndatacopy\n      revert(0x00, returndatasize)\n    tag_32:\n      pop\n      pop\n      pop\n      pop\n      mload(0x40)\n      returndatasize\n      not(0x1f)\n      0x1f\n      dup3\n      add\n      and\n      dup3\n      add\n      dup1\n      0x40\n      mstore\n      pop\n      dup2\n      add\n      swap1\n      tag_33\n      swap2\n      swap1\n      tag_34\n      jump\t// in\n    tag_33:\n        /* \"shoot/2/create_create\\xe8\\xae\\xa1\\xe7\\xae\\x97/1.sol\":760:820  if(target.getResove()){... */\n      iszero\n      tag_35\n      jumpi\n        /* \"shoot/2/create_create\\xe8\\xae\\xa1\\xe7\\xae\\x97/1.sol\":806:808  70 */\n      0x46\n        /* \"shoot/2/create_create\\xe8\\xae\\xa1\\xe7\\xae\\x97/1.sol\":797:802  score */\n      0x01\n      0x00\n        /* \"shoot/2/create_create\\xe8\\xae\\xa1\\xe7\\xae\\x97/1.sol\":797:808  score += 70 */\n      dup3\n      dup3\n      sload\n      tag_36\n      swap2\n      swap1\n      tag_30\n      jump\t// in\n    tag_36:\n      swap3\n      pop\n      pop\n      dup2\n      swap1\n      sstore\n      pop\n        /* \"shoot/2/create_create\\xe8\\xae\\xa1\\xe7\\xae\\x97/1.sol\":760:820  if(target.getResove()){... */\n    tag_35:\n        /* \"shoot/2/create_create\\xe8\\xae\\xa1\\xe7\\xae\\x97/1.sol\":618:827  function isCompleted() public {... */\n      jump\t// out\n    tag_25:\n      dataSize(sub_0)\n      dup1\n      dataOffset(sub_0)\n      dup4\n      codecopy\n      add\n      swap1\n      jump\t// out\n        /* \"#utility.yul\":7:133   */\n    tag_37:\n        /* \"#utility.yul\":44:51   */\n      0x00\n        /* \"#utility.yul\":84:126   */\n      0xffffffffffffffffffffffffffffffffffffffff\n        /* \"#utility.yul\":77:82   */\n      dup3\n        /* \"#utility.yul\":73:127   */\n      and\n        /* \"#utility.yul\":62:127   */\n      swap1\n      pop\n        /* \"#utility.yul\":7:133   */\n      swap2\n      swap1\n      pop\n      jump\t// out\n        /* \"#utility.yul\":139:199   */\n    tag_38:\n        /* \"#utility.yul\":167:170   */\n      0x00\n        /* \"#utility.yul\":188:193   */\n      dup2\n        /* \"#utility.yul\":181:193   */\n      swap1\n      pop\n        /* \"#utility.yul\":139:199   */\n      swap2\n      swap1\n      pop\n      jump\t// out\n        /* \"#utility.yul\":205:347   */\n    tag_39:\n        /* \"#utility.yul\":255:264   */\n      0x00\n        /* \"#utility.yul\":288:341   */\n      tag_61\n        /* \"#utility.yul\":306:340   */\n      tag_62\n        /* \"#utility.yul\":315:339   */\n      tag_63\n        /* \"#utility.yul\":333:338   */\n      dup5\n        /* \"#utility.yul\":315:339   */\n      tag_37\n      jump\t// in\n    tag_63:\n        /* \"#utility.yul\":306:340   */\n      tag_38\n      jump\t// in\n    tag_62:\n        /* \"#utility.yul\":288:341   */\n      tag_37\n      jump\t// in\n    tag_61:\n        /* \"#utility.yul\":275:341   */\n      swap1\n      pop\n        /* \"#utility.yul\":205:347   */\n      swap2\n      swap1\n      pop\n      jump\t// out\n        /* \"#utility.yul\":353:479   */\n    tag_40:\n        /* \"#utility.yul\":403:412   */\n      0x00\n        /* \"#utility.yul\":436:473   */\n      tag_65\n        /* \"#utility.yul\":467:472   */\n      dup3\n        /* \"#utility.yul\":436:473   */\n      tag_39\n      jump\t// in\n    tag_65:\n        /* \"#utility.yul\":423:473   */\n      swap1\n      pop\n        /* \"#utility.yul\":353:479   */\n      swap2\n      swap1\n      pop\n      jump\t// out\n        /* \"#utility.yul\":485:623   */\n    tag_41:\n        /* \"#utility.yul\":547:556   */\n      0x00\n        /* \"#utility.yul\":580:617   */\n      tag_67\n        /* \"#utility.yul\":611:616   */\n      dup3\n        /* \"#utility.yul\":580:617   */\n      tag_40\n      jump\t// in\n    tag_67:\n        /* \"#utility.yul\":567:617   */\n      swap1\n      pop\n        /* \"#utility.yul\":485:623   */\n      swap2\n      swap1\n      pop\n      jump\t// out\n        /* \"#utility.yul\":629:784   */\n    tag_42:\n        /* \"#utility.yul\":728:777   */\n      tag_69\n        /* \"#utility.yul\":771:776   */\n      dup2\n        /* \"#utility.yul\":728:777   */\n      tag_41\n      jump\t// in\n    tag_69:\n        /* \"#utility.yul\":723:726   */\n      dup3\n        /* \"#utility.yul\":716:778   */\n      mstore\n        /* \"#utility.yul\":629:784   */\n      pop\n      pop\n      jump\t// out\n        /* \"#utility.yul\":790:1036   */\n    tag_10:\n        /* \"#utility.yul\":895:899   */\n      0x00\n        /* \"#utility.yul\":933:935   */\n      0x20\n        /* \"#utility.yul\":922:931   */\n      dup3\n        /* \"#utility.yul\":918:936   */\n      add\n        /* \"#utility.yul\":910:936   */\n      swap1\n      pop\n        /* \"#utility.yul\":946:1029   */\n      tag_71\n        /* \"#utility.yul\":1026:1027   */\n      0x00\n        /* \"#utility.yul\":1015:1024   */\n      dup4\n        /* \"#utility.yul\":1011:1028   */\n      add\n        /* \"#utility.yul\":1002:1008   */\n      dup5\n        /* \"#utility.yul\":946:1029   */\n      tag_42\n      jump\t// in\n    tag_71:\n        /* \"#utility.yul\":790:1036   */\n      swap3\n      swap2\n      pop\n      pop\n      jump\t// out\n        /* \"#utility.yul\":1123:1240   */\n    tag_44:\n        /* \"#utility.yul\":1232:1233   */\n      0x00\n        /* \"#utility.yul\":1229:1230   */\n      dup1\n        /* \"#utility.yul\":1222:1234   */\n      revert\n        /* \"#utility.yul\":1369:1446   */\n    tag_46:\n        /* \"#utility.yul\":1406:1413   */\n      0x00\n        /* \"#utility.yul\":1435:1440   */\n      dup2\n        /* \"#utility.yul\":1424:1440   */\n      swap1\n      pop\n        /* \"#utility.yul\":1369:1446   */\n      swap2\n      swap1\n      pop\n      jump\t// out\n        /* \"#utility.yul\":1452:1574   */\n    tag_47:\n        /* \"#utility.yul\":1525:1549   */\n      tag_77\n        /* \"#utility.yul\":1543:1548   */\n      dup2\n        /* \"#utility.yul\":1525:1549   */\n      tag_46\n      jump\t// in\n    tag_77:\n        /* \"#utility.yul\":1518:1523   */\n      dup2\n        /* \"#utility.yul\":1515:1550   */\n      eq\n        /* \"#utility.yul\":1505:1568   */\n      tag_78\n      jumpi\n        /* \"#utility.yul\":1564:1565   */\n      0x00\n        /* \"#utility.yul\":1561:1562   */\n      dup1\n        /* \"#utility.yul\":1554:1566   */\n      revert\n        /* \"#utility.yul\":1505:1568   */\n    tag_78:\n        /* \"#utility.yul\":1452:1574   */\n      pop\n      jump\t// out\n        /* \"#utility.yul\":1580:1719   */\n    tag_48:\n        /* \"#utility.yul\":1626:1631   */\n      0x00\n        /* \"#utility.yul\":1664:1670   */\n      dup2\n        /* \"#utility.yul\":1651:1671   */\n      calldataload\n        /* \"#utility.yul\":1642:1671   */\n      swap1\n      pop\n        /* \"#utility.yul\":1680:1713   */\n      tag_80\n        /* \"#utility.yul\":1707:1712   */\n      dup2\n        /* \"#utility.yul\":1680:1713   */\n      tag_47\n      jump\t// in\n    tag_80:\n        /* \"#utility.yul\":1580:1719   */\n      swap3\n      swap2\n      pop\n      pop\n      jump\t// out\n        /* \"#utility.yul\":1725:2054   */\n    tag_13:\n        /* \"#utility.yul\":1784:1790   */\n      0x00\n        /* \"#utility.yul\":1833:1835   */\n      0x20\n        /* \"#utility.yul\":1821:1830   */\n      dup3\n        /* \"#utility.yul\":1812:1819   */\n      dup5\n        /* \"#utility.yul\":1808:1831   */\n      sub\n        /* \"#utility.yul\":1804:1836   */\n      slt\n        /* \"#utility.yul\":1801:1920   */\n      iszero\n      tag_82\n      jumpi\n        /* \"#utility.yul\":1839:1918   */\n      tag_83\n      tag_44\n      jump\t// in\n    tag_83:\n        /* \"#utility.yul\":1801:1920   */\n    tag_82:\n        /* \"#utility.yul\":1959:1960   */\n      0x00\n        /* \"#utility.yul\":1984:2037   */\n      tag_84\n        /* \"#utility.yul\":2029:2036   */\n      dup5\n        /* \"#utility.yul\":2020:2026   */\n      dup3\n        /* \"#utility.yul\":2009:2018   */\n      dup6\n        /* \"#utility.yul\":2005:2027   */\n      add\n        /* \"#utility.yul\":1984:2037   */\n      tag_48\n      jump\t// in\n    tag_84:\n        /* \"#utility.yul\":1974:2037   */\n      swap2\n      pop\n        /* \"#utility.yul\":1930:2047   */\n      pop\n        /* \"#utility.yul\":1725:2054   */\n      swap3\n      swap2\n      pop\n      pop\n      jump\t// out\n        /* \"#utility.yul\":2060:2156   */\n    tag_49:\n        /* \"#utility.yul\":2097:2104   */\n      0x00\n        /* \"#utility.yul\":2126:2150   */\n      tag_86\n        /* \"#utility.yul\":2144:2149   */\n      dup3\n        /* \"#utility.yul\":2126:2150   */\n      tag_37\n      jump\t// in\n    tag_86:\n        /* \"#utility.yul\":2115:2150   */\n      swap1\n      pop\n        /* \"#utility.yul\":2060:2156   */\n      swap2\n      swap1\n      pop\n      jump\t// out\n        /* \"#utility.yul\":2162:2280   */\n    tag_50:\n        /* \"#utility.yul\":2249:2273   */\n      tag_88\n        /* \"#utility.yul\":2267:2272   */\n      dup2\n        /* \"#utility.yul\":2249:2273   */\n      tag_49\n      jump\t// in\n    tag_88:\n        /* \"#utility.yul\":2244:2247   */\n      dup3\n        /* \"#utility.yul\":2237:2274   */\n      mstore\n        /* \"#utility.yul\":2162:2280   */\n      pop\n      pop\n      jump\t// out\n        /* \"#utility.yul\":2286:2508   */\n    tag_16:\n        /* \"#utility.yul\":2379:2383   */\n      0x00\n        /* \"#utility.yul\":2417:2419   */\n      0x20\n        /* \"#utility.yul\":2406:2415   */\n      dup3\n        /* \"#utility.yul\":2402:2420   */\n      add\n        /* \"#utility.yul\":2394:2420   */\n      swap1\n      pop\n        /* \"#utility.yul\":2430:2501   */\n      tag_90\n        /* \"#utility.yul\":2498:2499   */\n      0x00\n        /* \"#utility.yul\":2487:2496   */\n      dup4\n        /* \"#utility.yul\":2483:2500   */\n      add\n        /* \"#utility.yul\":2474:2480   */\n      dup5\n        /* \"#utility.yul\":2430:2501   */\n      tag_50\n      jump\t// in\n    tag_90:\n        /* \"#utility.yul\":2286:2508   */\n      swap3\n      swap2\n      pop\n      pop\n      jump\t// out\n        /* \"#utility.yul\":2514:2591   */\n    tag_51:\n        /* \"#utility.yul\":2551:2558   */\n      0x00\n        /* \"#utility.yul\":2580:2585   */\n      dup2\n        /* \"#utility.yul\":2569:2585   */\n      swap1\n      pop\n        /* \"#utility.yul\":2514:2591   */\n      swap2\n      swap1\n      pop\n      jump\t// out\n        /* \"#utility.yul\":2597:2715   */\n    tag_52:\n        /* \"#utility.yul\":2684:2708   */\n      tag_93\n        /* \"#utility.yul\":2702:2707   */\n      dup2\n        /* \"#utility.yul\":2684:2708   */\n      tag_51\n      jump\t// in\n    tag_93:\n        /* \"#utility.yul\":2679:2682   */\n      dup3\n        /* \"#utility.yul\":2672:2709   */\n      mstore\n        /* \"#utility.yul\":2597:2715   */\n      pop\n      pop\n      jump\t// out\n        /* \"#utility.yul\":2721:2943   */\n    tag_20:\n        /* \"#utility.yul\":2814:2818   */\n      0x00\n        /* \"#utility.yul\":2852:2854   */\n      0x20\n        /* \"#utility.yul\":2841:2850   */\n      dup3\n        /* \"#utility.yul\":2837:2855   */\n      add\n        /* \"#utility.yul\":2829:2855   */\n      swap1\n      pop\n        /* \"#utility.yul\":2865:2936   */\n      tag_95\n        /* \"#utility.yul\":2933:2934   */\n      0x00\n        /* \"#utility.yul\":2922:2931   */\n      dup4\n        /* \"#utility.yul\":2918:2935   */\n      add\n        /* \"#utility.yul\":2909:2915   */\n      dup5\n        /* \"#utility.yul\":2865:2936   */\n      tag_52\n      jump\t// in\n    tag_95:\n        /* \"#utility.yul\":2721:2943   */\n      swap3\n      swap2\n      pop\n      pop\n      jump\t// out\n        /* \"#utility.yul\":2949:3129   */\n    tag_53:\n        /* \"#utility.yul\":2997:3074   */\n      0x4e487b7100000000000000000000000000000000000000000000000000000000\n        /* \"#utility.yul\":2994:2995   */\n      0x00\n        /* \"#utility.yul\":2987:3075   */\n      mstore\n        /* \"#utility.yul\":3094:3098   */\n      0x11\n        /* \"#utility.yul\":3091:3092   */\n      0x04\n        /* \"#utility.yul\":3084:3099   */\n      mstore\n        /* \"#utility.yul\":3118:3122   */\n      0x24\n        /* \"#utility.yul\":3115:3116   */\n      0x00\n        /* \"#utility.yul\":3108:3123   */\n      revert\n        /* \"#utility.yul\":3135:3326   */\n    tag_30:\n        /* \"#utility.yul\":3175:3178   */\n      0x00\n        /* \"#utility.yul\":3194:3214   */\n      tag_98\n        /* \"#utility.yul\":3212:3213   */\n      dup3\n        /* \"#utility.yul\":3194:3214   */\n      tag_51\n      jump\t// in\n    tag_98:\n        /* \"#utility.yul\":3189:3214   */\n      swap2\n      pop\n        /* \"#utility.yul\":3228:3248   */\n      tag_99\n        /* \"#utility.yul\":3246:3247   */\n      dup4\n        /* \"#utility.yul\":3228:3248   */\n      tag_51\n      jump\t// in\n    tag_99:\n        /* \"#utility.yul\":3223:3248   */\n      swap3\n      pop\n        /* \"#utility.yul\":3271:3272   */\n      dup3\n        /* \"#utility.yul\":3268:3269   */\n      dup3\n        /* \"#utility.yul\":3264:3273   */\n      add\n        /* \"#utility.yul\":3257:3273   */\n      swap1\n      pop\n        /* \"#utility.yul\":3292:3295   */\n      dup1\n        /* \"#utility.yul\":3289:3290   */\n      dup3\n        /* \"#utility.yul\":3286:3296   */\n      gt\n        /* \"#utility.yul\":3283:3319   */\n      iszero\n      tag_100\n      jumpi\n        /* \"#utility.yul\":3299:3317   */\n      tag_101\n      tag_53\n      jump\t// in\n    tag_101:\n        /* \"#utility.yul\":3283:3319   */\n    tag_100:\n        /* \"#utility.yul\":3135:3326   */\n      swap3\n      swap2\n      pop\n      pop\n      jump\t// out\n        /* \"#utility.yul\":3332:3422   */\n    tag_54:\n        /* \"#utility.yul\":3366:3373   */\n      0x00\n        /* \"#utility.yul\":3409:3414   */\n      dup2\n        /* \"#utility.yul\":3402:3415   */\n      iszero\n        /* \"#utility.yul\":3395:3416   */\n      iszero\n        /* \"#utility.yul\":3384:3416   */\n      swap1\n      pop\n        /* \"#utility.yul\":3332:3422   */\n      swap2\n      swap1\n      pop\n      jump\t// out\n        /* \"#utility.yul\":3428:3544   */\n    tag_55:\n        /* \"#utility.yul\":3498:3519   */\n      tag_104\n        /* \"#utility.yul\":3513:3518   */\n      dup2\n        /* \"#utility.yul\":3498:3519   */\n      tag_54\n      jump\t// in\n    tag_104:\n        /* \"#utility.yul\":3491:3496   */\n      dup2\n        /* \"#utility.yul\":3488:3520   */\n      eq\n        /* \"#utility.yul\":3478:3538   */\n      tag_105\n      jumpi\n        /* \"#utility.yul\":3534:3535   */\n      0x00\n        /* \"#utility.yul\":3531:3532   */\n      dup1\n        /* \"#utility.yul\":3524:3536   */\n      revert\n        /* \"#utility.yul\":3478:3538   */\n    tag_105:\n        /* \"#utility.yul\":3428:3544   */\n      pop\n      jump\t// out\n        /* \"#utility.yul\":3550:3687   */\n    tag_56:\n        /* \"#utility.yul\":3604:3609   */\n      0x00\n        /* \"#utility.yul\":3635:3641   */\n      dup2\n        /* \"#utility.yul\":3629:3642   */\n      mload\n        /* \"#utility.yul\":3620:3642   */\n      swap1\n      pop\n        /* \"#utility.yul\":3651:3681   */\n      tag_107\n        /* \"#utility.yul\":3675:3680   */\n      dup2\n        /* \"#utility.yul\":3651:3681   */\n      tag_55\n      jump\t// in\n    tag_107:\n        /* \"#utility.yul\":3550:3687   */\n      swap3\n      swap2\n      pop\n      pop\n      jump\t// out\n        /* \"#utility.yul\":3693:4038   */\n    tag_34:\n        /* \"#utility.yul\":3760:3766   */\n      0x00\n        /* \"#utility.yul\":3809:3811   */\n      0x20\n        /* \"#utility.yul\":3797:3806   */\n      dup3\n        /* \"#utility.yul\":3788:3795   */\n      dup5\n        /* \"#utility.yul\":3784:3807   */\n      sub\n        /* \"#utility.yul\":3780:3812   */\n      slt\n        /* \"#utility.yul\":3777:3896   */\n      iszero\n      tag_109\n      jumpi\n        /* \"#utility.yul\":3815:3894   */\n      tag_110\n      tag_44\n      jump\t// in\n    tag_110:\n        /* \"#utility.yul\":3777:3896   */\n    tag_109:\n        /* \"#utility.yul\":3935:3936   */\n      0x00\n        /* \"#utility.yul\":3960:4021   */\n      tag_111\n        /* \"#utility.yul\":4013:4020   */\n      dup5\n        /* \"#utility.yul\":4004:4010   */\n      dup3\n        /* \"#utility.yul\":3993:4002   */\n      dup6\n        /* \"#utility.yul\":3989:4011   */\n      add\n        /* \"#utility.yul\":3960:4021   */\n      tag_56\n      jump\t// in\n    tag_111:\n        /* \"#utility.yul\":3950:4021   */\n      swap2\n      pop\n        /* \"#utility.yul\":3906:4031   */\n      pop\n        /* \"#utility.yul\":3693:4038   */\n      swap3\n      swap2\n      pop\n      pop\n      jump\t// out\n    stop\n\n    sub_0: assembly {\n            /* \"shoot/2/create_create\\xe8\\xae\\xa1\\xe7\\xae\\x97/1.sol\":128:394  contract found{... */\n          mstore(0x40, 0x80)\n            /* \"shoot/2/create_create\\xe8\\xae\\xa1\\xe7\\xae\\x97/1.sol\":170:175  false */\n          0x00\n            /* \"shoot/2/create_create\\xe8\\xae\\xa1\\xe7\\xae\\x97/1.sol\":149:175  bool public resove = false */\n          dup1\n          exp(0x0100, 0x00)\n          dup2\n          sload\n          dup2\n          0xff\n          mul\n          not\n          and\n          swap1\n          dup4\n          iszero\n          iszero\n          mul\n          or\n          swap1\n          sstore\n          pop\n            /* \"shoot/2/create_create\\xe8\\xae\\xa1\\xe7\\xae\\x97/1.sol\":188:301  constructor(){... */\n          callvalue\n          dup1\n          iszero\n          tag_1\n          jumpi\n          0x00\n          dup1\n          revert\n        tag_1:\n          pop\n            /* \"shoot/2/create_create\\xe8\\xae\\xa1\\xe7\\xae\\x97/1.sol\":240:251  0.001 ether */\n          0x038d7ea4c68000\n            /* \"shoot/2/create_create\\xe8\\xae\\xa1\\xe7\\xae\\x97/1.sol\":215:236  address(this).balance */\n          selfbalance\n            /* \"shoot/2/create_create\\xe8\\xae\\xa1\\xe7\\xae\\x97/1.sol\":215:251  address(this).balance >= 0.001 ether */\n          lt\n            /* \"shoot/2/create_create\\xe8\\xae\\xa1\\xe7\\xae\\x97/1.sol\":212:292  if(address(this).balance >= 0.001 ether){... */\n          tag_4\n          jumpi\n            /* \"shoot/2/create_create\\xe8\\xae\\xa1\\xe7\\xae\\x97/1.sol\":276:280  true */\n          0x01\n            /* \"shoot/2/create_create\\xe8\\xae\\xa1\\xe7\\xae\\x97/1.sol\":267:273  resove */\n          0x00\n          dup1\n            /* \"shoot/2/create_create\\xe8\\xae\\xa1\\xe7\\xae\\x97/1.sol\":267:280  resove = true */\n          0x0100\n          exp\n          dup2\n          sload\n          dup2\n          0xff\n          mul\n          not\n          and\n          swap1\n          dup4\n          iszero\n          iszero\n          mul\n          or\n          swap1\n          sstore\n          pop\n            /* \"shoot/2/create_create\\xe8\\xae\\xa1\\xe7\\xae\\x97/1.sol\":212:292  if(address(this).balance >= 0.001 ether){... */\n        tag_4:\n            /* \"shoot/2/create_create\\xe8\\xae\\xa1\\xe7\\xae\\x97/1.sol\":128:394  contract found{... */\n          dataSize(sub_0)\n          dup1\n          dataOffset(sub_0)\n          0x00\n          codecopy\n          0x00\n          return\n        stop\n\n        sub_0: assembly {\n                /* \"shoot/2/create_create\\xe8\\xae\\xa1\\xe7\\xae\\x97/1.sol\":128:394  contract found{... */\n              mstore(0x40, 0x80)\n              callvalue\n              dup1\n              iszero\n              tag_1\n              jumpi\n              0x00\n              dup1\n              revert\n            tag_1:\n              pop\n              jumpi(tag_2, lt(calldatasize, 0x04))\n              shr(0xe0, calldataload(0x00))\n              dup1\n              0x4c0f7987\n              eq\n              tag_3\n              jumpi\n              dup1\n              0xac51c67d\n              eq\n              tag_4\n              jumpi\n            tag_2:\n              0x00\n              dup1\n              revert\n                /* \"shoot/2/create_create\\xe8\\xae\\xa1\\xe7\\xae\\x97/1.sol\":313:391  function getResove() public view returns(bool){... */\n            tag_3:\n              tag_5\n              tag_6\n              jump\t// in\n            tag_5:\n              mload(0x40)\n              tag_7\n              swap2\n              swap1\n              tag_8\n              jump\t// in\n            tag_7:\n              mload(0x40)\n              dup1\n              swap2\n              sub\n              swap1\n              return\n                /* \"shoot/2/create_create\\xe8\\xae\\xa1\\xe7\\xae\\x97/1.sol\":149:175  bool public resove = false */\n            tag_4:\n              tag_9\n              tag_10\n              jump\t// in\n            tag_9:\n              mload(0x40)\n              tag_11\n              swap2\n              swap1\n              tag_8\n              jump\t// in\n            tag_11:\n              mload(0x40)\n              dup1\n              swap2\n              sub\n              swap1\n              return\n                /* \"shoot/2/create_create\\xe8\\xae\\xa1\\xe7\\xae\\x97/1.sol\":313:391  function getResove() public view returns(bool){... */\n            tag_6:\n                /* \"shoot/2/create_create\\xe8\\xae\\xa1\\xe7\\xae\\x97/1.sol\":354:358  bool */\n              0x00\n                /* \"shoot/2/create_create\\xe8\\xae\\xa1\\xe7\\xae\\x97/1.sol\":377:383  resove */\n              dup1\n              0x00\n              swap1\n              sload\n              swap1\n              0x0100\n              exp\n              swap1\n              div\n              0xff\n              and\n                /* \"shoot/2/create_create\\xe8\\xae\\xa1\\xe7\\xae\\x97/1.sol\":370:383  return resove */\n              swap1\n              pop\n                /* \"shoot/2/create_create\\xe8\\xae\\xa1\\xe7\\xae\\x97/1.sol\":313:391  function getResove() public view returns(bool){... */\n              swap1\n              jump\t// out\n                /* \"shoot/2/create_create\\xe8\\xae\\xa1\\xe7\\xae\\x97/1.sol\":149:175  bool public resove = false */\n            tag_10:\n              0x00\n              dup1\n              sload\n              swap1\n              0x0100\n              exp\n              swap1\n              div\n              0xff\n              and\n              dup2\n              jump\t// out\n                /* \"#utility.yul\":7:97   */\n            tag_13:\n                /* \"#utility.yul\":41:48   */\n              0x00\n                /* \"#utility.yul\":84:89   */\n              dup2\n                /* \"#utility.yul\":77:90   */\n              iszero\n                /* \"#utility.yul\":70:91   */\n              iszero\n                /* \"#utility.yul\":59:91   */\n              swap1\n              pop\n                /* \"#utility.yul\":7:97   */\n              swap2\n              swap1\n              pop\n              jump\t// out\n                /* \"#utility.yul\":103:212   */\n            tag_14:\n                /* \"#utility.yul\":184:205   */\n              tag_18\n                /* \"#utility.yul\":199:204   */\n              dup2\n                /* \"#utility.yul\":184:205   */\n              tag_13\n              jump\t// in\n            tag_18:\n                /* \"#utility.yul\":179:182   */\n              dup3\n                /* \"#utility.yul\":172:206   */\n              mstore\n                /* \"#utility.yul\":103:212   */\n              pop\n              pop\n              jump\t// out\n                /* \"#utility.yul\":218:428   */\n            tag_8:\n                /* \"#utility.yul\":305:309   */\n              0x00\n                /* \"#utility.yul\":343:345   */\n              0x20\n                /* \"#utility.yul\":332:341   */\n              dup3\n                /* \"#utility.yul\":328:346   */\n              add\n                /* \"#utility.yul\":320:346   */\n              swap1\n              pop\n                /* \"#utility.yul\":356:421   */\n              tag_20\n                /* \"#utility.yul\":418:419   */\n              0x00\n                /* \"#utility.yul\":407:416   */\n              dup4\n                /* \"#utility.yul\":403:420   */\n              add\n                /* \"#utility.yul\":394:400   */\n              dup5\n                /* \"#utility.yul\":356:421   */\n              tag_14\n              jump\t// in\n            tag_20:\n                /* \"#utility.yul\":218:428   */\n              swap3\n              swap2\n              pop\n              pop\n              jump\t// out\n\n            auxdata: 0xa26469706673582212200259156a9f5842f0743c0b146c2ba3571e6524b62428346437df5c22e9393ed664736f6c63430008150033\n        }\n    }\n\n    auxdata: 0xa26469706673582212206d0821d98cd12a8441df1835cbf57a7327ebd3071c59ffb6e64193147af65de164736f6c63430008150033\n}\n",
				"bytecode": {
					"linkReferences": {},
					"object": "608060405234801561000f575f80fd5b5061064d8061001d5f395ff3fe608060405234801561000f575f80fd5b506004361061004a575f3560e01c8063d4b839921461004e578063d93f49001461006c578063efedc6691461009c578063fa391c64146100ba575b5f80fd5b6100566100c4565b6040516100639190610325565b60405180910390f35b61008660048036038101906100819190610375565b6100e7565b60405161009391906103c0565b60405180910390f35b6100a4610178565b6040516100b191906103f1565b60405180910390f35b6100c261017e565b005b5f8054906101000a900473ffffffffffffffffffffffffffffffffffffffff1681565b5f816040516100f59061029e565b8190604051809103905ff5905080158015610112573d5f803e3d5ffd5b505f806101000a81548173ffffffffffffffffffffffffffffffffffffffff021916908373ffffffffffffffffffffffffffffffffffffffff1602179055505f8054906101000a900473ffffffffffffffffffffffffffffffffffffffff169050919050565b60015481565b5f6001819055505f73ffffffffffffffffffffffffffffffffffffffff165f8054906101000a900473ffffffffffffffffffffffffffffffffffffffff1673ffffffffffffffffffffffffffffffffffffffff16146101f157601e60015f8282546101e99190610437565b925050819055505b5f8054906101000a900473ffffffffffffffffffffffffffffffffffffffff1673ffffffffffffffffffffffffffffffffffffffff16634c0f79876040518163ffffffff1660e01b8152600401602060405180830381865afa158015610259573d5f803e3d5ffd5b505050506040513d601f19601f8201168201806040525081019061027d919061049f565b1561029c57604660015f8282546102949190610437565b925050819055505b565b61014d806104cb83390190565b5f73ffffffffffffffffffffffffffffffffffffffff82169050919050565b5f819050919050565b5f6102ed6102e86102e3846102ab565b6102ca565b6102ab565b9050919050565b5f6102fe826102d3565b9050919050565b5f61030f826102f4565b9050919050565b61031f81610305565b82525050565b5f6020820190506103385f830184610316565b92915050565b5f80fd5b5f819050919050565b61035481610342565b811461035e575f80fd5b50565b5f8135905061036f8161034b565b92915050565b5f6020828403121561038a5761038961033e565b5b5f61039784828501610361565b91505092915050565b5f6103aa826102ab565b9050919050565b6103ba816103a0565b82525050565b5f6020820190506103d35f8301846103b1565b92915050565b5f819050919050565b6103eb816103d9565b82525050565b5f6020820190506104045f8301846103e2565b92915050565b7f4e487b71000000000000000000000000000000000000000000000000000000005f52601160045260245ffd5b5f610441826103d9565b915061044c836103d9565b92508282019050808211156104645761046361040a565b5b92915050565b5f8115159050919050565b61047e8161046a565b8114610488575f80fd5b50565b5f8151905061049981610475565b92915050565b5f602082840312156104b4576104b361033e565b5b5f6104c18482850161048b565b9150509291505056fe60806040525f805f6101000a81548160ff021916908315150217905550348015610027575f80fd5b5066038d7ea4c6800047106100505760015f806101000a81548160ff0219169083151502179055505b60f18061005c5f395ff3fe6080604052348015600e575f80fd5b50600436106030575f3560e01c80634c0f7987146034578063ac51c67d14604e575b5f80fd5b603a6068565b6040516045919060a4565b60405180910390f35b6054607c565b604051605f919060a4565b60405180910390f35b5f805f9054906101000a900460ff16905090565b5f8054906101000a900460ff1681565b5f8115159050919050565b609e81608c565b82525050565b5f60208201905060b55f8301846097565b9291505056fea26469706673582212200259156a9f5842f0743c0b146c2ba3571e6524b62428346437df5c22e9393ed664736f6c63430008150033a26469706673582212206d0821d98cd12a8441df1835cbf57a7327ebd3071c59ffb6e64193147af65de164736f6c63430008150033",
					"opcodes": "PUSH1 0x80 PUSH1 0x40 MSTORE CALLVALUE DUP1 ISZERO PUSH2 0xF JUMPI PUSH0 DUP1 REVERT JUMPDEST POP PUSH2 0x64D DUP1 PUSH2 0x1D PUSH0 CODECOPY PUSH0 RETURN INVALID PUSH1 0x80 PUSH1 0x40 MSTORE CALLVALUE DUP1 ISZERO PUSH2 0xF JUMPI PUSH0 DUP1 REVERT JUMPDEST POP PUSH1 0x4 CALLDATASIZE LT PUSH2 0x4A JUMPI PUSH0 CALLDATALOAD PUSH1 0xE0 SHR DUP1 PUSH4 0xD4B83992 EQ PUSH2 0x4E JUMPI DUP1 PUSH4 0xD93F4900 EQ PUSH2 0x6C JUMPI DUP1 PUSH4 0xEFEDC669 EQ PUSH2 0x9C JUMPI DUP1 PUSH4 0xFA391C64 EQ PUSH2 0xBA JUMPI JUMPDEST PUSH0 DUP1 REVERT JUMPDEST PUSH2 0x56 PUSH2 0xC4 JUMP JUMPDEST PUSH1 0x40 MLOAD PUSH2 0x63 SWAP2 SWAP1 PUSH2 0x325 JUMP JUMPDEST PUSH1 0x40 MLOAD DUP1 SWAP2 SUB SWAP1 RETURN JUMPDEST PUSH2 0x86 PUSH1 0x4 DUP1 CALLDATASIZE SUB DUP2 ADD SWAP1 PUSH2 0x81 SWAP2 SWAP1 PUSH2 0x375 JUMP JUMPDEST PUSH2 0xE7 JUMP JUMPDEST PUSH1 0x40 MLOAD PUSH2 0x93 SWAP2 SWAP1 PUSH2 0x3C0 JUMP JUMPDEST PUSH1 0x40 MLOAD DUP1 SWAP2 SUB SWAP1 RETURN JUMPDEST PUSH2 0xA4 PUSH2 0x178 JUMP JUMPDEST PUSH1 0x40 MLOAD PUSH2 0xB1 SWAP2 SWAP1 PUSH2 0x3F1 JUMP JUMPDEST PUSH1 0x40 MLOAD DUP1 SWAP2 SUB SWAP1 RETURN JUMPDEST PUSH2 0xC2 PUSH2 0x17E JUMP JUMPDEST STOP JUMPDEST PUSH0 DUP1 SLOAD SWAP1 PUSH2 0x100 EXP SWAP1 DIV PUSH20 0xFFFFFFFFFFFFFFFFFFFFFFFFFFFFFFFFFFFFFFFF AND DUP2 JUMP JUMPDEST PUSH0 DUP2 PUSH1 0x40 MLOAD PUSH2 0xF5 SWAP1 PUSH2 0x29E JUMP JUMPDEST DUP2 SWAP1 PUSH1 0x40 MLOAD DUP1 SWAP2 SUB SWAP1 PUSH0 CREATE2 SWAP1 POP DUP1 ISZERO DUP1 ISZERO PUSH2 0x112 JUMPI RETURNDATASIZE PUSH0 DUP1 RETURNDATACOPY RETURNDATASIZE PUSH0 REVERT JUMPDEST POP PUSH0 DUP1 PUSH2 0x100 EXP DUP2 SLOAD DUP2 PUSH20 0xFFFFFFFFFFFFFFFFFFFFFFFFFFFFFFFFFFFFFFFF MUL NOT AND SWAP1 DUP4 PUSH20 0xFFFFFFFFFFFFFFFFFFFFFFFFFFFFFFFFFFFFFFFF AND MUL OR SWAP1 SSTORE POP PUSH0 DUP1 SLOAD SWAP1 PUSH2 0x100 EXP SWAP1 DIV PUSH20 0xFFFFFFFFFFFFFFFFFFFFFFFFFFFFFFFFFFFFFFFF AND SWAP1 POP SWAP2 SWAP1 POP JUMP JUMPDEST PUSH1 0x1 SLOAD DUP2 JUMP JUMPDEST PUSH0 PUSH1 0x1 DUP2 SWAP1 SSTORE POP PUSH0 PUSH20 0xFFFFFFFFFFFFFFFFFFFFFFFFFFFFFFFFFFFFFFFF AND PUSH0 DUP1 SLOAD SWAP1 PUSH2 0x100 EXP SWAP1 DIV PUSH20 0xFFFFFFFFFFFFFFFFFFFFFFFFFFFFFFFFFFFFFFFF AND PUSH20 0xFFFFFFFFFFFFFFFFFFFFFFFFFFFFFFFFFFFFFFFF AND EQ PUSH2 0x1F1 JUMPI PUSH1 0x1E PUSH1 0x1 PUSH0 DUP3 DUP3 SLOAD PUSH2 0x1E9 SWAP2 SWAP1 PUSH2 0x437 JUMP JUMPDEST SWAP3 POP POP DUP2 SWAP1 SSTORE POP JUMPDEST PUSH0 DUP1 SLOAD SWAP1 PUSH2 0x100 EXP SWAP1 DIV PUSH20 0xFFFFFFFFFFFFFFFFFFFFFFFFFFFFFFFFFFFFFFFF AND PUSH20 0xFFFFFFFFFFFFFFFFFFFFFFFFFFFFFFFFFFFFFFFF AND PUSH4 0x4C0F7987 PUSH1 0x40 MLOAD DUP2 PUSH4 0xFFFFFFFF AND PUSH1 0xE0 SHL DUP2 MSTORE PUSH1 0x4 ADD PUSH1 0x20 PUSH1 0x40 MLOAD DUP1 DUP4 SUB DUP2 DUP7 GAS STATICCALL ISZERO DUP1 ISZERO PUSH2 0x259 JUMPI RETURNDATASIZE PUSH0 DUP1 RETURNDATACOPY RETURNDATASIZE PUSH0 REVERT JUMPDEST POP POP POP POP PUSH1 0x40 MLOAD RETURNDATASIZE PUSH1 0x1F NOT PUSH1 0x1F DUP3 ADD AND DUP3 ADD DUP1 PUSH1 0x40 MSTORE POP DUP2 ADD SWAP1 PUSH2 0x27D SWAP2 SWAP1 PUSH2 0x49F JUMP JUMPDEST ISZERO PUSH2 0x29C JUMPI PUSH1 0x46 PUSH1 0x1 PUSH0 DUP3 DUP3 SLOAD PUSH2 0x294 SWAP2 SWAP1 PUSH2 0x437 JUMP JUMPDEST SWAP3 POP POP DUP2 SWAP1 SSTORE POP JUMPDEST JUMP JUMPDEST PUSH2 0x14D DUP1 PUSH2 0x4CB DUP4 CODECOPY ADD SWAP1 JUMP JUMPDEST PUSH0 PUSH20 0xFFFFFFFFFFFFFFFFFFFFFFFFFFFFFFFFFFFFFFFF DUP3 AND SWAP1 POP SWAP2 SWAP1 POP JUMP JUMPDEST PUSH0 DUP2 SWAP1 POP SWAP2 SWAP1 POP JUMP JUMPDEST PUSH0 PUSH2 0x2ED PUSH2 0x2E8 PUSH2 0x2E3 DUP5 PUSH2 0x2AB JUMP JUMPDEST PUSH2 0x2CA JUMP JUMPDEST PUSH2 0x2AB JUMP JUMPDEST SWAP1 POP SWAP2 SWAP1 POP JUMP JUMPDEST PUSH0 PUSH2 0x2FE DUP3 PUSH2 0x2D3 JUMP JUMPDEST SWAP1 POP SWAP2 SWAP1 POP JUMP JUMPDEST PUSH0 PUSH2 0x30F DUP3 PUSH2 0x2F4 JUMP JUMPDEST SWAP1 POP SWAP2 SWAP1 POP JUMP JUMPDEST PUSH2 0x31F DUP2 PUSH2 0x305 JUMP JUMPDEST DUP3 MSTORE POP POP JUMP JUMPDEST PUSH0 PUSH1 0x20 DUP3 ADD SWAP1 POP PUSH2 0x338 PUSH0 DUP4 ADD DUP5 PUSH2 0x316 JUMP JUMPDEST SWAP3 SWAP2 POP POP JUMP JUMPDEST PUSH0 DUP1 REVERT JUMPDEST PUSH0 DUP2 SWAP1 POP SWAP2 SWAP1 POP JUMP JUMPDEST PUSH2 0x354 DUP2 PUSH2 0x342 JUMP JUMPDEST DUP2 EQ PUSH2 0x35E JUMPI PUSH0 DUP1 REVERT JUMPDEST POP JUMP JUMPDEST PUSH0 DUP2 CALLDATALOAD SWAP1 POP PUSH2 0x36F DUP2 PUSH2 0x34B JUMP JUMPDEST SWAP3 SWAP2 POP POP JUMP JUMPDEST PUSH0 PUSH1 0x20 DUP3 DUP5 SUB SLT ISZERO PUSH2 0x38A JUMPI PUSH2 0x389 PUSH2 0x33E JUMP JUMPDEST JUMPDEST PUSH0 PUSH2 0x397 DUP5 DUP3 DUP6 ADD PUSH2 0x361 JUMP JUMPDEST SWAP2 POP POP SWAP3 SWAP2 POP POP JUMP JUMPDEST PUSH0 PUSH2 0x3AA DUP3 PUSH2 0x2AB JUMP JUMPDEST SWAP1 POP SWAP2 SWAP1 POP JUMP JUMPDEST PUSH2 0x3BA DUP2 PUSH2 0x3A0 JUMP JUMPDEST DUP3 MSTORE POP POP JUMP JUMPDEST PUSH0 PUSH1 0x20 DUP3 ADD SWAP1 POP PUSH2 0x3D3 PUSH0 DUP4 ADD DUP5 PUSH2 0x3B1 JUMP JUMPDEST SWAP3 SWAP2 POP POP JUMP JUMPDEST PUSH0 DUP2 SWAP1 POP SWAP2 SWAP1 POP JUMP JUMPDEST PUSH2 0x3EB DUP2 PUSH2 0x3D9 JUMP JUMPDEST DUP3 MSTORE POP POP JUMP JUMPDEST PUSH0 PUSH1 0x20 DUP3 ADD SWAP1 POP PUSH2 0x404 PUSH0 DUP4 ADD DUP5 PUSH2 0x3E2 JUMP JUMPDEST SWAP3 SWAP2 POP POP JUMP JUMPDEST PUSH32 0x4E487B7100000000000000000000000000000000000000000000000000000000 PUSH0 MSTORE PUSH1 0x11 PUSH1 0x4 MSTORE PUSH1 0x24 PUSH0 REVERT JUMPDEST PUSH0 PUSH2 0x441 DUP3 PUSH2 0x3D9 JUMP JUMPDEST SWAP2 POP PUSH2 0x44C DUP4 PUSH2 0x3D9 JUMP JUMPDEST SWAP3 POP DUP3 DUP3 ADD SWAP1 POP DUP1 DUP3 GT ISZERO PUSH2 0x464 JUMPI PUSH2 0x463 PUSH2 0x40A JUMP JUMPDEST JUMPDEST SWAP3 SWAP2 POP POP JUMP JUMPDEST PUSH0 DUP2 ISZERO ISZERO SWAP1 POP SWAP2 SWAP1 POP JUMP JUMPDEST PUSH2 0x47E DUP2 PUSH2 0x46A JUMP JUMPDEST DUP2 EQ PUSH2 0x488 JUMPI PUSH0 DUP1 REVERT JUMPDEST POP JUMP JUMPDEST PUSH0 DUP2 MLOAD SWAP1 POP PUSH2 0x499 DUP2 PUSH2 0x475 JUMP JUMPDEST SWAP3 SWAP2 POP POP JUMP JUMPDEST PUSH0 PUSH1 0x20 DUP3 DUP5 SUB SLT ISZERO PUSH2 0x4B4 JUMPI PUSH2 0x4B3 PUSH2 0x33E JUMP JUMPDEST JUMPDEST PUSH0 PUSH2 0x4C1 DUP5 DUP3 DUP6 ADD PUSH2 0x48B JUMP JUMPDEST SWAP2 POP POP SWAP3 SWAP2 POP POP JUMP INVALID PUSH1 0x80 PUSH1 0x40 MSTORE PUSH0 DUP1 PUSH0 PUSH2 0x100 EXP DUP2 SLOAD DUP2 PUSH1 0xFF MUL NOT AND SWAP1 DUP4 ISZERO ISZERO MUL OR SWAP1 SSTORE POP CALLVALUE DUP1 ISZERO PUSH2 0x27 JUMPI PUSH0 DUP1 REVERT JUMPDEST POP PUSH7 0x38D7EA4C68000 SELFBALANCE LT PUSH2 0x50 JUMPI PUSH1 0x1 PUSH0 DUP1 PUSH2 0x100 EXP DUP2 SLOAD DUP2 PUSH1 0xFF MUL NOT AND SWAP1 DUP4 ISZERO ISZERO MUL OR SWAP1 SSTORE POP JUMPDEST PUSH1 0xF1 DUP1 PUSH2 0x5C PUSH0 CODECOPY PUSH0 RETURN INVALID PUSH1 0x80 PUSH1 0x40 MSTORE CALLVALUE DUP1 ISZERO PUSH1 0xE JUMPI PUSH0 DUP1 REVERT JUMPDEST POP PUSH1 0x4 CALLDATASIZE LT PUSH1 0x30 JUMPI PUSH0 CALLDATALOAD PUSH1 0xE0 SHR DUP1 PUSH4 0x4C0F7987 EQ PUSH1 0x34 JUMPI DUP1 PUSH4 0xAC51C67D EQ PUSH1 0x4E JUMPI JUMPDEST PUSH0 DUP1 REVERT JUMPDEST PUSH1 0x3A PUSH1 0x68 JUMP JUMPDEST PUSH1 0x40 MLOAD PUSH1 0x45 SWAP2 SWAP1 PUSH1 0xA4 JUMP JUMPDEST PUSH1 0x40 MLOAD DUP1 SWAP2 SUB SWAP1 RETURN JUMPDEST PUSH1 0x54 PUSH1 0x7C JUMP JUMPDEST PUSH1 0x40 MLOAD PUSH1 0x5F SWAP2 SWAP1 PUSH1 0xA4 JUMP JUMPDEST PUSH1 0x40 MLOAD DUP1 SWAP2 SUB SWAP1 RETURN JUMPDEST PUSH0 DUP1 PUSH0 SWAP1 SLOAD SWAP1 PUSH2 0x100 EXP SWAP1 DIV PUSH1 0xFF AND SWAP1 POP SWAP1 JUMP JUMPDEST PUSH0 DUP1 SLOAD SWAP1 PUSH2 0x100 EXP SWAP1 DIV PUSH1 0xFF AND DUP2 JUMP JUMPDEST PUSH0 DUP2 ISZERO ISZERO SWAP1 POP SWAP2 SWAP1 POP JUMP JUMPDEST PUSH1 0x9E DUP2 PUSH1 0x8C JUMP JUMPDEST DUP3 MSTORE POP POP JUMP JUMPDEST PUSH0 PUSH1 0x20 DUP3 ADD SWAP1 POP PUSH1 0xB5 PUSH0 DUP4 ADD DUP5 PUSH1 0x97 JUMP JUMPDEST SWAP3 SWAP2 POP POP JUMP INVALID LOG2 PUSH5 0x6970667358 0x22 SLT KECCAK256 MUL MSIZE ISZERO PUSH11 0x9F5842F0743C0B146C2BA3 JUMPI 0x1E PUSH6 0x24B624283464 CALLDATACOPY 0xDF 0x5C 0x22 0xE9 CODECOPY RETURNDATACOPY 0xD6 PUSH5 0x736F6C6343 STOP ADDMOD ISZERO STOP CALLER LOG2 PUSH5 0x6970667358 0x22 SLT KECCAK256 PUSH14 0x821D98CD12A8441DF1835CBF57A PUSH20 0x27EBD3071C59FFB6E64193147AF65DE164736F6C PUSH4 0x43000815 STOP CALLER "
				},
				"gasEstimates": {
					"creation": {
						"codeDepositCost": "322600",
						"executionCost": "360",
						"totalCost": "322960"
					},
					"external": {
						"depoly(bytes32)": "infinite",
						"isCompleted()": "infinite",
						"score()": "2447",
						"target()": "infinite"
					}
				},
				"methodIdentifiers": {
					"depoly(bytes32)": "d93f4900",
					"isCompleted()": "fa391c64",
					"score()": "efedc669",
					"target()": "d4b83992"
				}
			},
			"storageLayout": {
				"storage": [
					{
						"astId": 33,
						"contract": "shoot/2/create_create计算/1.sol:check",
						"label": "target",
						"offset": 0,
						"slot": "0",
						"type": "t_contract(found)30"
					},
					{
						"astId": 35,
						"contract": "shoot/2/create_create计算/1.sol:check",
						"label": "score",
						"offset": 0,
						"slot": "1",
						"type": "t_uint256"
					}
				],
				"types": {
					"t_contract(found)30": {
						"encoding": "inplace",
						"label": "contract found",
						"numberOfBytes": "20"
					},
					"t_uint256": {
						"encoding": "inplace",
						"label": "uint256",
						"numberOfBytes": "32"
					}
				}
			},
			"userdoc": {
				"kind": "user",
				"methods": {},
				"version": 1
			}
		}
	}
}