{
	"shoot/2/create_create计算/1.sol": {
		"getnewcontract": {
			"abi": [
				{
					"inputs": [],
					"stateMutability": "payable",
					"type": "constructor"
				},
				{
					"inputs": [],
					"name": "creatcode1",
					"outputs": [
						{
							"internalType": "bytes",
							"name": "",
							"type": "bytes"
						}
					],
					"stateMutability": "view",
					"type": "function"
				},
				{
					"inputs": [],
					"name": "g",
					"outputs": [
						{
							"internalType": "bytes32",
							"name": "",
							"type": "bytes32"
						}
					],
					"stateMutability": "view",
					"type": "function"
				},
				{
					"inputs": [
						{
							"internalType": "address",
							"name": "target",
							"type": "address"
						},
						{
							"internalType": "bytes32",
							"name": "salt",
							"type": "bytes32"
						}
					],
					"name": "getaddress",
					"outputs": [],
					"stateMutability": "nonpayable",
					"type": "function"
				}
			],
			"devdoc": {
				"kind": "dev",
				"methods": {},
				"version": 1
			},
			"evm": {
				"assembly": "    /* \"shoot/2/create_create\\xe8\\xae\\xa1\\xe7\\xae\\x97/1.sol\":832:1357  contract getnewcontract{... */\n  mstore(0x40, 0x80)\n    /* \"shoot/2/create_create\\xe8\\xae\\xa1\\xe7\\xae\\x97/1.sol\":889:913  type(found).creationCode */\n  mload(0x40)\n  dup1\n  0x20\n  add\n  tag_1\n  swap1\n  tag_2\n  jump\t// in\ntag_1:\n  0x20\n  dup3\n  add\n  dup2\n  sub\n  dup3\n  mstore\n  not(0x1f)\n  0x1f\n  dup3\n  add\n  and\n  0x40\n  mstore\n  pop\n    /* \"shoot/2/create_create\\xe8\\xae\\xa1\\xe7\\xae\\x97/1.sol\":862:913  bytes public  creatcode1 = type(found).creationCode */\n  0x00\n  swap1\n  dup2\n  tag_3\n  swap2\n  swap1\n  tag_4\n  jump\t// in\ntag_3:\n  pop\n    /* \"shoot/2/create_create\\xe8\\xae\\xa1\\xe7\\xae\\x97/1.sol\":949:959  creatcode1 */\n  0x00\n    /* \"shoot/2/create_create\\xe8\\xae\\xa1\\xe7\\xae\\x97/1.sol\":939:960  keccak256(creatcode1) */\n  mload(0x40)\n  tag_5\n  swap2\n  swap1\n  tag_6\n  jump\t// in\ntag_5:\n  mload(0x40)\n  dup1\n  swap2\n  sub\n  swap1\n  keccak256\n    /* \"shoot/2/create_create\\xe8\\xae\\xa1\\xe7\\xae\\x97/1.sol\":920:960  bytes32 public g = keccak256(creatcode1) */\n  0x01\n  sstore\n    /* \"shoot/2/create_create\\xe8\\xae\\xa1\\xe7\\xae\\x97/1.sol\":832:1357  contract getnewcontract{... */\n  jump(tag_9)\ntag_2:\n  dataSize(sub_1)\n  dup1\n  dataOffset(sub_1)\n  dup4\n  codecopy\n  add\n  swap1\n  jump\t// out\n    /* \"#utility.yul\":7:105   */\ntag_10:\n    /* \"#utility.yul\":58:64   */\n  0x00\n    /* \"#utility.yul\":92:97   */\n  dup2\n    /* \"#utility.yul\":86:98   */\n  mload\n    /* \"#utility.yul\":76:98   */\n  swap1\n  pop\n    /* \"#utility.yul\":7:105   */\n  swap2\n  swap1\n  pop\n  jump\t// out\n    /* \"#utility.yul\":111:291   */\ntag_11:\n    /* \"#utility.yul\":159:236   */\n  0x4e487b7100000000000000000000000000000000000000000000000000000000\n    /* \"#utility.yul\":156:157   */\n  0x00\n    /* \"#utility.yul\":149:237   */\n  mstore\n    /* \"#utility.yul\":256:260   */\n  0x41\n    /* \"#utility.yul\":253:254   */\n  0x04\n    /* \"#utility.yul\":246:261   */\n  mstore\n    /* \"#utility.yul\":280:284   */\n  0x24\n    /* \"#utility.yul\":277:278   */\n  0x00\n    /* \"#utility.yul\":270:285   */\n  revert\n    /* \"#utility.yul\":297:477   */\ntag_12:\n    /* \"#utility.yul\":345:422   */\n  0x4e487b7100000000000000000000000000000000000000000000000000000000\n    /* \"#utility.yul\":342:343   */\n  0x00\n    /* \"#utility.yul\":335:423   */\n  mstore\n    /* \"#utility.yul\":442:446   */\n  0x22\n    /* \"#utility.yul\":439:440   */\n  0x04\n    /* \"#utility.yul\":432:447   */\n  mstore\n    /* \"#utility.yul\":466:470   */\n  0x24\n    /* \"#utility.yul\":463:464   */\n  0x00\n    /* \"#utility.yul\":456:471   */\n  revert\n    /* \"#utility.yul\":483:803   */\ntag_13:\n    /* \"#utility.yul\":527:533   */\n  0x00\n    /* \"#utility.yul\":564:565   */\n  0x02\n    /* \"#utility.yul\":558:562   */\n  dup3\n    /* \"#utility.yul\":554:566   */\n  div\n    /* \"#utility.yul\":544:566   */\n  swap1\n  pop\n    /* \"#utility.yul\":611:612   */\n  0x01\n    /* \"#utility.yul\":605:609   */\n  dup3\n    /* \"#utility.yul\":601:613   */\n  and\n    /* \"#utility.yul\":632:650   */\n  dup1\n    /* \"#utility.yul\":622:703   */\n  tag_37\n  jumpi\n    /* \"#utility.yul\":688:692   */\n  0x7f\n    /* \"#utility.yul\":680:686   */\n  dup3\n    /* \"#utility.yul\":676:693   */\n  and\n    /* \"#utility.yul\":666:693   */\n  swap2\n  pop\n    /* \"#utility.yul\":622:703   */\ntag_37:\n    /* \"#utility.yul\":750:752   */\n  0x20\n    /* \"#utility.yul\":742:748   */\n  dup3\n    /* \"#utility.yul\":739:753   */\n  lt\n    /* \"#utility.yul\":719:737   */\n  dup2\n    /* \"#utility.yul\":716:754   */\n  sub\n    /* \"#utility.yul\":713:797   */\n  tag_38\n  jumpi\n    /* \"#utility.yul\":769:787   */\n  tag_39\n  tag_12\n  jump\t// in\ntag_39:\n    /* \"#utility.yul\":713:797   */\ntag_38:\n    /* \"#utility.yul\":534:803   */\n  pop\n    /* \"#utility.yul\":483:803   */\n  swap2\n  swap1\n  pop\n  jump\t// out\n    /* \"#utility.yul\":809:949   */\ntag_14:\n    /* \"#utility.yul\":857:861   */\n  0x00\n    /* \"#utility.yul\":880:883   */\n  dup2\n    /* \"#utility.yul\":872:883   */\n  swap1\n  pop\n    /* \"#utility.yul\":903:906   */\n  dup2\n    /* \"#utility.yul\":900:901   */\n  0x00\n    /* \"#utility.yul\":893:907   */\n  mstore\n    /* \"#utility.yul\":937:941   */\n  0x20\n    /* \"#utility.yul\":934:935   */\n  0x00\n    /* \"#utility.yul\":924:942   */\n  keccak256\n    /* \"#utility.yul\":916:942   */\n  swap1\n  pop\n    /* \"#utility.yul\":809:949   */\n  swap2\n  swap1\n  pop\n  jump\t// out\n    /* \"#utility.yul\":955:1048   */\ntag_15:\n    /* \"#utility.yul\":992:998   */\n  0x00\n    /* \"#utility.yul\":1039:1041   */\n  0x20\n    /* \"#utility.yul\":1034:1036   */\n  0x1f\n    /* \"#utility.yul\":1027:1032   */\n  dup4\n    /* \"#utility.yul\":1023:1037   */\n  add\n    /* \"#utility.yul\":1019:1042   */\n  div\n    /* \"#utility.yul\":1009:1042   */\n  swap1\n  pop\n    /* \"#utility.yul\":955:1048   */\n  swap2\n  swap1\n  pop\n  jump\t// out\n    /* \"#utility.yul\":1054:1161   */\ntag_16:\n    /* \"#utility.yul\":1098:1106   */\n  0x00\n    /* \"#utility.yul\":1148:1153   */\n  dup3\n    /* \"#utility.yul\":1142:1146   */\n  dup3\n    /* \"#utility.yul\":1138:1154   */\n  shl\n    /* \"#utility.yul\":1117:1154   */\n  swap1\n  pop\n    /* \"#utility.yul\":1054:1161   */\n  swap3\n  swap2\n  pop\n  pop\n  jump\t// out\n    /* \"#utility.yul\":1167:1560   */\ntag_17:\n    /* \"#utility.yul\":1236:1242   */\n  0x00\n    /* \"#utility.yul\":1286:1287   */\n  0x08\n    /* \"#utility.yul\":1274:1284   */\n  dup4\n    /* \"#utility.yul\":1270:1288   */\n  mul\n    /* \"#utility.yul\":1309:1406   */\n  tag_44\n    /* \"#utility.yul\":1339:1405   */\n  0xffffffffffffffffffffffffffffffffffffffffffffffffffffffffffffffff\n    /* \"#utility.yul\":1328:1337   */\n  dup3\n    /* \"#utility.yul\":1309:1406   */\n  tag_16\n  jump\t// in\ntag_44:\n    /* \"#utility.yul\":1427:1466   */\n  tag_45\n    /* \"#utility.yul\":1457:1465   */\n  dup7\n    /* \"#utility.yul\":1446:1455   */\n  dup4\n    /* \"#utility.yul\":1427:1466   */\n  tag_16\n  jump\t// in\ntag_45:\n    /* \"#utility.yul\":1415:1466   */\n  swap6\n  pop\n    /* \"#utility.yul\":1499:1503   */\n  dup1\n    /* \"#utility.yul\":1495:1504   */\n  not\n    /* \"#utility.yul\":1488:1493   */\n  dup5\n    /* \"#utility.yul\":1484:1505   */\n  and\n    /* \"#utility.yul\":1475:1505   */\n  swap4\n  pop\n    /* \"#utility.yul\":1548:1552   */\n  dup1\n    /* \"#utility.yul\":1538:1546   */\n  dup7\n    /* \"#utility.yul\":1534:1553   */\n  and\n    /* \"#utility.yul\":1527:1532   */\n  dup5\n    /* \"#utility.yul\":1524:1554   */\n  or\n    /* \"#utility.yul\":1514:1554   */\n  swap3\n  pop\n    /* \"#utility.yul\":1243:1560   */\n  pop\n  pop\n    /* \"#utility.yul\":1167:1560   */\n  swap4\n  swap3\n  pop\n  pop\n  pop\n  jump\t// out\n    /* \"#utility.yul\":1566:1643   */\ntag_18:\n    /* \"#utility.yul\":1603:1610   */\n  0x00\n    /* \"#utility.yul\":1632:1637   */\n  dup2\n    /* \"#utility.yul\":1621:1637   */\n  swap1\n  pop\n    /* \"#utility.yul\":1566:1643   */\n  swap2\n  swap1\n  pop\n  jump\t// out\n    /* \"#utility.yul\":1649:1709   */\ntag_19:\n    /* \"#utility.yul\":1677:1680   */\n  0x00\n    /* \"#utility.yul\":1698:1703   */\n  dup2\n    /* \"#utility.yul\":1691:1703   */\n  swap1\n  pop\n    /* \"#utility.yul\":1649:1709   */\n  swap2\n  swap1\n  pop\n  jump\t// out\n    /* \"#utility.yul\":1715:1857   */\ntag_20:\n    /* \"#utility.yul\":1765:1774   */\n  0x00\n    /* \"#utility.yul\":1798:1851   */\n  tag_49\n    /* \"#utility.yul\":1816:1850   */\n  tag_50\n    /* \"#utility.yul\":1825:1849   */\n  tag_51\n    /* \"#utility.yul\":1843:1848   */\n  dup5\n    /* \"#utility.yul\":1825:1849   */\n  tag_18\n  jump\t// in\ntag_51:\n    /* \"#utility.yul\":1816:1850   */\n  tag_19\n  jump\t// in\ntag_50:\n    /* \"#utility.yul\":1798:1851   */\n  tag_18\n  jump\t// in\ntag_49:\n    /* \"#utility.yul\":1785:1851   */\n  swap1\n  pop\n    /* \"#utility.yul\":1715:1857   */\n  swap2\n  swap1\n  pop\n  jump\t// out\n    /* \"#utility.yul\":1863:1938   */\ntag_21:\n    /* \"#utility.yul\":1906:1909   */\n  0x00\n    /* \"#utility.yul\":1927:1932   */\n  dup2\n    /* \"#utility.yul\":1920:1932   */\n  swap1\n  pop\n    /* \"#utility.yul\":1863:1938   */\n  swap2\n  swap1\n  pop\n  jump\t// out\n    /* \"#utility.yul\":1944:2213   */\ntag_22:\n    /* \"#utility.yul\":2054:2093   */\n  tag_54\n    /* \"#utility.yul\":2085:2092   */\n  dup4\n    /* \"#utility.yul\":2054:2093   */\n  tag_20\n  jump\t// in\ntag_54:\n    /* \"#utility.yul\":2115:2206   */\n  tag_55\n    /* \"#utility.yul\":2164:2205   */\n  tag_56\n    /* \"#utility.yul\":2188:2204   */\n  dup3\n    /* \"#utility.yul\":2164:2205   */\n  tag_21\n  jump\t// in\ntag_56:\n    /* \"#utility.yul\":2156:2162   */\n  dup5\n    /* \"#utility.yul\":2149:2153   */\n  dup5\n    /* \"#utility.yul\":2143:2154   */\n  sload\n    /* \"#utility.yul\":2115:2206   */\n  tag_17\n  jump\t// in\ntag_55:\n    /* \"#utility.yul\":2109:2113   */\n  dup3\n    /* \"#utility.yul\":2102:2207   */\n  sstore\n    /* \"#utility.yul\":2020:2213   */\n  pop\n    /* \"#utility.yul\":1944:2213   */\n  pop\n  pop\n  pop\n  jump\t// out\n    /* \"#utility.yul\":2219:2292   */\ntag_23:\n    /* \"#utility.yul\":2264:2267   */\n  0x00\n    /* \"#utility.yul\":2219:2292   */\n  swap1\n  jump\t// out\n    /* \"#utility.yul\":2298:2487   */\ntag_24:\n    /* \"#utility.yul\":2375:2407   */\n  tag_59\n  tag_23\n  jump\t// in\ntag_59:\n    /* \"#utility.yul\":2416:2481   */\n  tag_60\n    /* \"#utility.yul\":2474:2480   */\n  dup2\n    /* \"#utility.yul\":2466:2472   */\n  dup5\n    /* \"#utility.yul\":2460:2464   */\n  dup5\n    /* \"#utility.yul\":2416:2481   */\n  tag_22\n  jump\t// in\ntag_60:\n    /* \"#utility.yul\":2351:2487   */\n  pop\n    /* \"#utility.yul\":2298:2487   */\n  pop\n  pop\n  jump\t// out\n    /* \"#utility.yul\":2493:2679   */\ntag_25:\n    /* \"#utility.yul\":2553:2673   */\ntag_62:\n    /* \"#utility.yul\":2570:2573   */\n  dup2\n    /* \"#utility.yul\":2563:2568   */\n  dup2\n    /* \"#utility.yul\":2560:2574   */\n  lt\n    /* \"#utility.yul\":2553:2673   */\n  iszero\n  tag_64\n  jumpi\n    /* \"#utility.yul\":2624:2663   */\n  tag_65\n    /* \"#utility.yul\":2661:2662   */\n  0x00\n    /* \"#utility.yul\":2654:2659   */\n  dup3\n    /* \"#utility.yul\":2624:2663   */\n  tag_24\n  jump\t// in\ntag_65:\n    /* \"#utility.yul\":2597:2598   */\n  0x01\n    /* \"#utility.yul\":2590:2595   */\n  dup2\n    /* \"#utility.yul\":2586:2599   */\n  add\n    /* \"#utility.yul\":2577:2599   */\n  swap1\n  pop\n    /* \"#utility.yul\":2553:2673   */\n  jump(tag_62)\ntag_64:\n    /* \"#utility.yul\":2493:2679   */\n  pop\n  pop\n  jump\t// out\n    /* \"#utility.yul\":2685:3226   */\ntag_26:\n    /* \"#utility.yul\":2785:2787   */\n  0x1f\n    /* \"#utility.yul\":2780:2783   */\n  dup3\n    /* \"#utility.yul\":2777:2788   */\n  gt\n    /* \"#utility.yul\":2774:3219   */\n  iszero\n  tag_67\n  jumpi\n    /* \"#utility.yul\":2819:2856   */\n  tag_68\n    /* \"#utility.yul\":2850:2855   */\n  dup2\n    /* \"#utility.yul\":2819:2856   */\n  tag_14\n  jump\t// in\ntag_68:\n    /* \"#utility.yul\":2902:2931   */\n  tag_69\n    /* \"#utility.yul\":2920:2930   */\n  dup5\n    /* \"#utility.yul\":2902:2931   */\n  tag_15\n  jump\t// in\ntag_69:\n    /* \"#utility.yul\":2892:2900   */\n  dup2\n    /* \"#utility.yul\":2888:2932   */\n  add\n    /* \"#utility.yul\":3085:3087   */\n  0x20\n    /* \"#utility.yul\":3073:3083   */\n  dup6\n    /* \"#utility.yul\":3070:3088   */\n  lt\n    /* \"#utility.yul\":3067:3116   */\n  iszero\n  tag_70\n  jumpi\n    /* \"#utility.yul\":3106:3114   */\n  dup2\n    /* \"#utility.yul\":3091:3114   */\n  swap1\n  pop\n    /* \"#utility.yul\":3067:3116   */\ntag_70:\n    /* \"#utility.yul\":3129:3209   */\n  tag_71\n    /* \"#utility.yul\":3185:3207   */\n  tag_72\n    /* \"#utility.yul\":3203:3206   */\n  dup6\n    /* \"#utility.yul\":3185:3207   */\n  tag_15\n  jump\t// in\ntag_72:\n    /* \"#utility.yul\":3175:3183   */\n  dup4\n    /* \"#utility.yul\":3171:3208   */\n  add\n    /* \"#utility.yul\":3158:3169   */\n  dup3\n    /* \"#utility.yul\":3129:3209   */\n  tag_25\n  jump\t// in\ntag_71:\n    /* \"#utility.yul\":2789:3219   */\n  pop\n  pop\n    /* \"#utility.yul\":2774:3219   */\ntag_67:\n    /* \"#utility.yul\":2685:3226   */\n  pop\n  pop\n  pop\n  jump\t// out\n    /* \"#utility.yul\":3232:3349   */\ntag_27:\n    /* \"#utility.yul\":3286:3294   */\n  0x00\n    /* \"#utility.yul\":3336:3341   */\n  dup3\n    /* \"#utility.yul\":3330:3334   */\n  dup3\n    /* \"#utility.yul\":3326:3342   */\n  shr\n    /* \"#utility.yul\":3305:3342   */\n  swap1\n  pop\n    /* \"#utility.yul\":3232:3349   */\n  swap3\n  swap2\n  pop\n  pop\n  jump\t// out\n    /* \"#utility.yul\":3355:3524   */\ntag_28:\n    /* \"#utility.yul\":3399:3405   */\n  0x00\n    /* \"#utility.yul\":3432:3483   */\n  tag_75\n    /* \"#utility.yul\":3480:3481   */\n  0x00\n    /* \"#utility.yul\":3476:3482   */\n  not\n    /* \"#utility.yul\":3468:3473   */\n  dup5\n    /* \"#utility.yul\":3465:3466   */\n  0x08\n    /* \"#utility.yul\":3461:3474   */\n  mul\n    /* \"#utility.yul\":3432:3483   */\n  tag_27\n  jump\t// in\ntag_75:\n    /* \"#utility.yul\":3428:3484   */\n  not\n    /* \"#utility.yul\":3513:3517   */\n  dup1\n    /* \"#utility.yul\":3507:3511   */\n  dup4\n    /* \"#utility.yul\":3503:3518   */\n  and\n    /* \"#utility.yul\":3493:3518   */\n  swap2\n  pop\n    /* \"#utility.yul\":3406:3524   */\n  pop\n    /* \"#utility.yul\":3355:3524   */\n  swap3\n  swap2\n  pop\n  pop\n  jump\t// out\n    /* \"#utility.yul\":3529:3824   */\ntag_29:\n    /* \"#utility.yul\":3605:3609   */\n  0x00\n    /* \"#utility.yul\":3751:3780   */\n  tag_77\n    /* \"#utility.yul\":3776:3779   */\n  dup4\n    /* \"#utility.yul\":3770:3774   */\n  dup4\n    /* \"#utility.yul\":3751:3780   */\n  tag_28\n  jump\t// in\ntag_77:\n    /* \"#utility.yul\":3743:3780   */\n  swap2\n  pop\n    /* \"#utility.yul\":3813:3816   */\n  dup3\n    /* \"#utility.yul\":3810:3811   */\n  0x02\n    /* \"#utility.yul\":3806:3817   */\n  mul\n    /* \"#utility.yul\":3800:3804   */\n  dup3\n    /* \"#utility.yul\":3797:3818   */\n  or\n    /* \"#utility.yul\":3789:3818   */\n  swap1\n  pop\n    /* \"#utility.yul\":3529:3824   */\n  swap3\n  swap2\n  pop\n  pop\n  jump\t// out\n    /* \"#utility.yul\":3829:5219   */\ntag_4:\n    /* \"#utility.yul\":3944:3980   */\n  tag_79\n    /* \"#utility.yul\":3976:3979   */\n  dup3\n    /* \"#utility.yul\":3944:3980   */\n  tag_10\n  jump\t// in\ntag_79:\n    /* \"#utility.yul\":4045:4063   */\n  0xffffffffffffffff\n    /* \"#utility.yul\":4037:4043   */\n  dup2\n    /* \"#utility.yul\":4034:4064   */\n  gt\n    /* \"#utility.yul\":4031:4087   */\n  iszero\n  tag_80\n  jumpi\n    /* \"#utility.yul\":4067:4085   */\n  tag_81\n  tag_11\n  jump\t// in\ntag_81:\n    /* \"#utility.yul\":4031:4087   */\ntag_80:\n    /* \"#utility.yul\":4111:4149   */\n  tag_82\n    /* \"#utility.yul\":4143:4147   */\n  dup3\n    /* \"#utility.yul\":4137:4148   */\n  sload\n    /* \"#utility.yul\":4111:4149   */\n  tag_13\n  jump\t// in\ntag_82:\n    /* \"#utility.yul\":4196:4262   */\n  tag_83\n    /* \"#utility.yul\":4255:4261   */\n  dup3\n    /* \"#utility.yul\":4247:4253   */\n  dup3\n    /* \"#utility.yul\":4241:4245   */\n  dup6\n    /* \"#utility.yul\":4196:4262   */\n  tag_26\n  jump\t// in\ntag_83:\n    /* \"#utility.yul\":4289:4290   */\n  0x00\n    /* \"#utility.yul\":4313:4317   */\n  0x20\n    /* \"#utility.yul\":4300:4317   */\n  swap1\n  pop\n    /* \"#utility.yul\":4345:4347   */\n  0x1f\n    /* \"#utility.yul\":4337:4343   */\n  dup4\n    /* \"#utility.yul\":4334:4348   */\n  gt\n    /* \"#utility.yul\":4362:4363   */\n  0x01\n    /* \"#utility.yul\":4357:4974   */\n  dup2\n  eq\n  tag_85\n  jumpi\n    /* \"#utility.yul\":5018:5019   */\n  0x00\n    /* \"#utility.yul\":5035:5041   */\n  dup5\n    /* \"#utility.yul\":5032:5109   */\n  iszero\n  tag_86\n  jumpi\n    /* \"#utility.yul\":5084:5093   */\n  dup3\n    /* \"#utility.yul\":5079:5082   */\n  dup8\n    /* \"#utility.yul\":5075:5094   */\n  add\n    /* \"#utility.yul\":5069:5095   */\n  mload\n    /* \"#utility.yul\":5060:5095   */\n  swap1\n  pop\n    /* \"#utility.yul\":5032:5109   */\ntag_86:\n    /* \"#utility.yul\":5135:5202   */\n  tag_87\n    /* \"#utility.yul\":5195:5201   */\n  dup6\n    /* \"#utility.yul\":5188:5193   */\n  dup3\n    /* \"#utility.yul\":5135:5202   */\n  tag_29\n  jump\t// in\ntag_87:\n    /* \"#utility.yul\":5129:5133   */\n  dup7\n    /* \"#utility.yul\":5122:5203   */\n  sstore\n    /* \"#utility.yul\":4991:5213   */\n  pop\n    /* \"#utility.yul\":4327:5213   */\n  jump(tag_84)\n    /* \"#utility.yul\":4357:4974   */\ntag_85:\n    /* \"#utility.yul\":4409:4413   */\n  0x1f\n    /* \"#utility.yul\":4405:4414   */\n  not\n    /* \"#utility.yul\":4397:4403   */\n  dup5\n    /* \"#utility.yul\":4393:4415   */\n  and\n    /* \"#utility.yul\":4443:4479   */\n  tag_88\n    /* \"#utility.yul\":4474:4478   */\n  dup7\n    /* \"#utility.yul\":4443:4479   */\n  tag_14\n  jump\t// in\ntag_88:\n    /* \"#utility.yul\":4501:4502   */\n  0x00\n    /* \"#utility.yul\":4515:4723   */\ntag_89:\n    /* \"#utility.yul\":4529:4536   */\n  dup3\n    /* \"#utility.yul\":4526:4527   */\n  dup2\n    /* \"#utility.yul\":4523:4537   */\n  lt\n    /* \"#utility.yul\":4515:4723   */\n  iszero\n  tag_91\n  jumpi\n    /* \"#utility.yul\":4608:4617   */\n  dup5\n    /* \"#utility.yul\":4603:4606   */\n  dup10\n    /* \"#utility.yul\":4599:4618   */\n  add\n    /* \"#utility.yul\":4593:4619   */\n  mload\n    /* \"#utility.yul\":4585:4591   */\n  dup3\n    /* \"#utility.yul\":4578:4620   */\n  sstore\n    /* \"#utility.yul\":4659:4660   */\n  0x01\n    /* \"#utility.yul\":4651:4657   */\n  dup3\n    /* \"#utility.yul\":4647:4661   */\n  add\n    /* \"#utility.yul\":4637:4661   */\n  swap2\n  pop\n    /* \"#utility.yul\":4706:4708   */\n  0x20\n    /* \"#utility.yul\":4695:4704   */\n  dup6\n    /* \"#utility.yul\":4691:4709   */\n  add\n    /* \"#utility.yul\":4678:4709   */\n  swap5\n  pop\n    /* \"#utility.yul\":4552:4556   */\n  0x20\n    /* \"#utility.yul\":4549:4550   */\n  dup2\n    /* \"#utility.yul\":4545:4557   */\n  add\n    /* \"#utility.yul\":4540:4557   */\n  swap1\n  pop\n    /* \"#utility.yul\":4515:4723   */\n  jump(tag_89)\ntag_91:\n    /* \"#utility.yul\":4751:4757   */\n  dup7\n    /* \"#utility.yul\":4742:4749   */\n  dup4\n    /* \"#utility.yul\":4739:4758   */\n  lt\n    /* \"#utility.yul\":4736:4915   */\n  iszero\n  tag_92\n  jumpi\n    /* \"#utility.yul\":4809:4818   */\n  dup5\n    /* \"#utility.yul\":4804:4807   */\n  dup10\n    /* \"#utility.yul\":4800:4819   */\n  add\n    /* \"#utility.yul\":4794:4820   */\n  mload\n    /* \"#utility.yul\":4852:4900   */\n  tag_93\n    /* \"#utility.yul\":4894:4898   */\n  0x1f\n    /* \"#utility.yul\":4886:4892   */\n  dup10\n    /* \"#utility.yul\":4882:4899   */\n  and\n    /* \"#utility.yul\":4871:4880   */\n  dup3\n    /* \"#utility.yul\":4852:4900   */\n  tag_28\n  jump\t// in\ntag_93:\n    /* \"#utility.yul\":4844:4850   */\n  dup4\n    /* \"#utility.yul\":4837:4901   */\n  sstore\n    /* \"#utility.yul\":4759:4915   */\n  pop\n    /* \"#utility.yul\":4736:4915   */\ntag_92:\n    /* \"#utility.yul\":4961:4962   */\n  0x01\n    /* \"#utility.yul\":4957:4958   */\n  0x02\n    /* \"#utility.yul\":4949:4955   */\n  dup9\n    /* \"#utility.yul\":4945:4959   */\n  mul\n    /* \"#utility.yul\":4941:4963   */\n  add\n    /* \"#utility.yul\":4935:4939   */\n  dup9\n    /* \"#utility.yul\":4928:4964   */\n  sstore\n    /* \"#utility.yul\":4364:4974   */\n  pop\n  pop\n  pop\n    /* \"#utility.yul\":4327:5213   */\ntag_84:\n  pop\n    /* \"#utility.yul\":3919:5219   */\n  pop\n  pop\n  pop\n    /* \"#utility.yul\":3829:5219   */\n  pop\n  pop\n  jump\t// out\n    /* \"#utility.yul\":5225:5372   */\ntag_30:\n    /* \"#utility.yul\":5326:5337   */\n  0x00\n    /* \"#utility.yul\":5363:5366   */\n  dup2\n    /* \"#utility.yul\":5348:5366   */\n  swap1\n  pop\n    /* \"#utility.yul\":5225:5372   */\n  swap3\n  swap2\n  pop\n  pop\n  jump\t// out\n    /* \"#utility.yul\":5400:6270   */\ntag_31:\n    /* \"#utility.yul\":5501:5504   */\n  0x00\n    /* \"#utility.yul\":5538:5543   */\n  dup2\n    /* \"#utility.yul\":5532:5544   */\n  sload\n    /* \"#utility.yul\":5567:5603   */\n  tag_96\n    /* \"#utility.yul\":5593:5602   */\n  dup2\n    /* \"#utility.yul\":5567:5603   */\n  tag_13\n  jump\t// in\ntag_96:\n    /* \"#utility.yul\":5619:5707   */\n  tag_97\n    /* \"#utility.yul\":5700:5706   */\n  dup2\n    /* \"#utility.yul\":5695:5698   */\n  dup7\n    /* \"#utility.yul\":5619:5707   */\n  tag_30\n  jump\t// in\ntag_97:\n    /* \"#utility.yul\":5612:5707   */\n  swap5\n  pop\n    /* \"#utility.yul\":5738:5739   */\n  0x01\n    /* \"#utility.yul\":5727:5736   */\n  dup3\n    /* \"#utility.yul\":5723:5740   */\n  and\n    /* \"#utility.yul\":5754:5755   */\n  0x00\n    /* \"#utility.yul\":5749:5915   */\n  dup2\n  eq\n  tag_99\n  jumpi\n    /* \"#utility.yul\":5929:5930   */\n  0x01\n    /* \"#utility.yul\":5924:6264   */\n  dup2\n  eq\n  tag_100\n  jumpi\n    /* \"#utility.yul\":5716:6264   */\n  jump(tag_98)\n    /* \"#utility.yul\":5749:5915   */\ntag_99:\n    /* \"#utility.yul\":5833:5837   */\n  0xff\n    /* \"#utility.yul\":5829:5838   */\n  not\n    /* \"#utility.yul\":5818:5827   */\n  dup4\n    /* \"#utility.yul\":5814:5839   */\n  and\n    /* \"#utility.yul\":5809:5812   */\n  dup7\n    /* \"#utility.yul\":5802:5840   */\n  mstore\n    /* \"#utility.yul\":5895:5901   */\n  dup2\n    /* \"#utility.yul\":5888:5902   */\n  iszero\n    /* \"#utility.yul\":5881:5903   */\n  iszero\n    /* \"#utility.yul\":5873:5879   */\n  dup3\n    /* \"#utility.yul\":5869:5904   */\n  mul\n    /* \"#utility.yul\":5864:5867   */\n  dup7\n    /* \"#utility.yul\":5860:5905   */\n  add\n    /* \"#utility.yul\":5853:5905   */\n  swap4\n  pop\n    /* \"#utility.yul\":5749:5915   */\n  jump(tag_98)\n    /* \"#utility.yul\":5924:6264   */\ntag_100:\n    /* \"#utility.yul\":5991:6028   */\n  tag_101\n    /* \"#utility.yul\":6022:6027   */\n  dup6\n    /* \"#utility.yul\":5991:6028   */\n  tag_14\n  jump\t// in\ntag_101:\n    /* \"#utility.yul\":6050:6051   */\n  0x00\n    /* \"#utility.yul\":6064:6218   */\ntag_102:\n    /* \"#utility.yul\":6078:6084   */\n  dup4\n    /* \"#utility.yul\":6075:6076   */\n  dup2\n    /* \"#utility.yul\":6072:6085   */\n  lt\n    /* \"#utility.yul\":6064:6218   */\n  iszero\n  tag_104\n  jumpi\n    /* \"#utility.yul\":6152:6159   */\n  dup2\n    /* \"#utility.yul\":6146:6160   */\n  sload\n    /* \"#utility.yul\":6142:6143   */\n  dup2\n    /* \"#utility.yul\":6137:6140   */\n  dup10\n    /* \"#utility.yul\":6133:6144   */\n  add\n    /* \"#utility.yul\":6126:6161   */\n  mstore\n    /* \"#utility.yul\":6202:6203   */\n  0x01\n    /* \"#utility.yul\":6193:6200   */\n  dup3\n    /* \"#utility.yul\":6189:6204   */\n  add\n    /* \"#utility.yul\":6178:6204   */\n  swap2\n  pop\n    /* \"#utility.yul\":6100:6104   */\n  0x20\n    /* \"#utility.yul\":6097:6098   */\n  dup2\n    /* \"#utility.yul\":6093:6105   */\n  add\n    /* \"#utility.yul\":6088:6105   */\n  swap1\n  pop\n    /* \"#utility.yul\":6064:6218   */\n  jump(tag_102)\ntag_104:\n    /* \"#utility.yul\":6247:6253   */\n  dup4\n    /* \"#utility.yul\":6242:6245   */\n  dup9\n    /* \"#utility.yul\":6238:6254   */\n  add\n    /* \"#utility.yul\":6231:6254   */\n  swap6\n  pop\n    /* \"#utility.yul\":5931:6264   */\n  pop\n  pop\n    /* \"#utility.yul\":5716:6264   */\ntag_98:\n  pop\n    /* \"#utility.yul\":5505:6270   */\n  pop\n  pop\n    /* \"#utility.yul\":5400:6270   */\n  swap3\n  swap2\n  pop\n  pop\n  jump\t// out\n    /* \"#utility.yul\":6276:6541   */\ntag_6:\n    /* \"#utility.yul\":6403:6406   */\n  0x00\n    /* \"#utility.yul\":6425:6515   */\n  tag_106\n    /* \"#utility.yul\":6511:6514   */\n  dup3\n    /* \"#utility.yul\":6502:6508   */\n  dup5\n    /* \"#utility.yul\":6425:6515   */\n  tag_31\n  jump\t// in\ntag_106:\n    /* \"#utility.yul\":6418:6515   */\n  swap2\n  pop\n    /* \"#utility.yul\":6532:6535   */\n  dup2\n    /* \"#utility.yul\":6525:6535   */\n  swap1\n  pop\n    /* \"#utility.yul\":6276:6541   */\n  swap3\n  swap2\n  pop\n  pop\n  jump\t// out\n    /* \"shoot/2/create_create\\xe8\\xae\\xa1\\xe7\\xae\\x97/1.sol\":832:1357  contract getnewcontract{... */\ntag_9:\n  dataSize(sub_0)\n  dup1\n  dataOffset(sub_0)\n  0x00\n  codecopy\n  0x00\n  return\nstop\n\nsub_0: assembly {\n        /* \"shoot/2/create_create\\xe8\\xae\\xa1\\xe7\\xae\\x97/1.sol\":832:1357  contract getnewcontract{... */\n      mstore(0x40, 0x80)\n      callvalue\n      dup1\n      iszero\n      tag_1\n      jumpi\n      0x00\n      dup1\n      revert\n    tag_1:\n      pop\n      jumpi(tag_2, lt(calldatasize, 0x04))\n      shr(0xe0, calldataload(0x00))\n      dup1\n      0x08684d38\n      eq\n      tag_3\n      jumpi\n      dup1\n      0xcccecb14\n      eq\n      tag_4\n      jumpi\n      dup1\n      0xe2179b8e\n      eq\n      tag_5\n      jumpi\n    tag_2:\n      0x00\n      dup1\n      revert\n        /* \"shoot/2/create_create\\xe8\\xae\\xa1\\xe7\\xae\\x97/1.sol\":1004:1354  function getaddress(address target,bytes32 salt) public{... */\n    tag_3:\n      tag_6\n      0x04\n      dup1\n      calldatasize\n      sub\n      dup2\n      add\n      swap1\n      tag_7\n      swap2\n      swap1\n      tag_8\n      jump\t// in\n    tag_7:\n      tag_9\n      jump\t// in\n    tag_6:\n      stop\n        /* \"shoot/2/create_create\\xe8\\xae\\xa1\\xe7\\xae\\x97/1.sol\":862:913  bytes public  creatcode1 = type(found).creationCode */\n    tag_4:\n      tag_10\n      tag_11\n      jump\t// in\n    tag_10:\n      mload(0x40)\n      tag_12\n      swap2\n      swap1\n      tag_13\n      jump\t// in\n    tag_12:\n      mload(0x40)\n      dup1\n      swap2\n      sub\n      swap1\n      return\n        /* \"shoot/2/create_create\\xe8\\xae\\xa1\\xe7\\xae\\x97/1.sol\":920:960  bytes32 public g = keccak256(creatcode1) */\n    tag_5:\n      tag_14\n      tag_15\n      jump\t// in\n    tag_14:\n      mload(0x40)\n      tag_16\n      swap2\n      swap1\n      tag_17\n      jump\t// in\n    tag_16:\n      mload(0x40)\n      dup1\n      swap2\n      sub\n      swap1\n      return\n        /* \"shoot/2/create_create\\xe8\\xae\\xa1\\xe7\\xae\\x97/1.sol\":1004:1354  function getaddress(address target,bytes32 salt) public{... */\n    tag_9:\n        /* \"shoot/2/create_create\\xe8\\xae\\xa1\\xe7\\xae\\x97/1.sol\":1133:1142  address a */\n      0x00\n        /* \"shoot/2/create_create\\xe8\\xae\\xa1\\xe7\\xae\\x97/1.sol\":1214:1218  0xff */\n      0xff\n        /* \"shoot/2/create_create\\xe8\\xae\\xa1\\xe7\\xae\\x97/1.sol\":1207:1219  bytes1(0xff) */\n      0xf8\n      shl\n        /* \"shoot/2/create_create\\xe8\\xae\\xa1\\xe7\\xae\\x97/1.sol\":1234:1240  target */\n      dup4\n        /* \"shoot/2/create_create\\xe8\\xae\\xa1\\xe7\\xae\\x97/1.sol\":1255:1259  salt */\n      dup4\n        /* \"shoot/2/create_create\\xe8\\xae\\xa1\\xe7\\xae\\x97/1.sol\":1284:1294  creatcode1 */\n      0x00\n        /* \"shoot/2/create_create\\xe8\\xae\\xa1\\xe7\\xae\\x97/1.sol\":1274:1295  keccak256(creatcode1) */\n      mload(0x40)\n      tag_19\n      swap2\n      swap1\n      tag_20\n      jump\t// in\n    tag_19:\n      mload(0x40)\n      dup1\n      swap2\n      sub\n      swap1\n      keccak256\n        /* \"shoot/2/create_create\\xe8\\xae\\xa1\\xe7\\xae\\x97/1.sol\":1176:1306  abi.encodePacked(... */\n      add(0x20, mload(0x40))\n      tag_21\n      swap5\n      swap4\n      swap3\n      swap2\n      swap1\n      tag_22\n      jump\t// in\n    tag_21:\n      mload(0x40)\n      0x20\n      dup2\n      dup4\n      sub\n      sub\n      dup2\n      mstore\n      swap1\n      0x40\n      mstore\n        /* \"shoot/2/create_create\\xe8\\xae\\xa1\\xe7\\xae\\x97/1.sol\":1166:1307  keccak256(abi.encodePacked(... */\n      dup1\n      mload\n      swap1\n      0x20\n      add\n      keccak256\n        /* \"shoot/2/create_create\\xe8\\xae\\xa1\\xe7\\xae\\x97/1.sol\":1161:1308  uint(keccak256(abi.encodePacked(... */\n      0x00\n      shr\n        /* \"shoot/2/create_create\\xe8\\xae\\xa1\\xe7\\xae\\x97/1.sol\":1133:1310  address a = address(uint160(uint(keccak256(abi.encodePacked(... */\n      swap1\n      pop\n        /* \"shoot/2/create_create\\xe8\\xae\\xa1\\xe7\\xae\\x97/1.sol\":1343:1344  a */\n      dup1\n        /* \"shoot/2/create_create\\xe8\\xae\\xa1\\xe7\\xae\\x97/1.sol\":1322:1346  selfdestruct(payable(a)) */\n      0xffffffffffffffffffffffffffffffffffffffff\n      and\n      selfdestruct\n        /* \"shoot/2/create_create\\xe8\\xae\\xa1\\xe7\\xae\\x97/1.sol\":862:913  bytes public  creatcode1 = type(found).creationCode */\n    tag_11:\n      0x00\n      dup1\n      sload\n      tag_23\n      swap1\n      tag_24\n      jump\t// in\n    tag_23:\n      dup1\n      0x1f\n      add\n      0x20\n      dup1\n      swap2\n      div\n      mul\n      0x20\n      add\n      mload(0x40)\n      swap1\n      dup2\n      add\n      0x40\n      mstore\n      dup1\n      swap3\n      swap2\n      swap1\n      dup2\n      dup2\n      mstore\n      0x20\n      add\n      dup3\n      dup1\n      sload\n      tag_25\n      swap1\n      tag_24\n      jump\t// in\n    tag_25:\n      dup1\n      iszero\n      tag_26\n      jumpi\n      dup1\n      0x1f\n      lt\n      tag_27\n      jumpi\n      0x0100\n      dup1\n      dup4\n      sload\n      div\n      mul\n      dup4\n      mstore\n      swap2\n      0x20\n      add\n      swap2\n      jump(tag_26)\n    tag_27:\n      dup3\n      add\n      swap2\n      swap1\n      0x00\n      mstore\n      keccak256(0x00, 0x20)\n      swap1\n    tag_28:\n      dup2\n      sload\n      dup2\n      mstore\n      swap1\n      0x01\n      add\n      swap1\n      0x20\n      add\n      dup1\n      dup4\n      gt\n      tag_28\n      jumpi\n      dup3\n      swap1\n      sub\n      0x1f\n      and\n      dup3\n      add\n      swap2\n    tag_26:\n      pop\n      pop\n      pop\n      pop\n      pop\n      dup2\n      jump\t// out\n        /* \"shoot/2/create_create\\xe8\\xae\\xa1\\xe7\\xae\\x97/1.sol\":920:960  bytes32 public g = keccak256(creatcode1) */\n    tag_15:\n      sload(0x01)\n      dup2\n      jump\t// out\n        /* \"#utility.yul\":88:205   */\n    tag_30:\n        /* \"#utility.yul\":197:198   */\n      0x00\n        /* \"#utility.yul\":194:195   */\n      dup1\n        /* \"#utility.yul\":187:199   */\n      revert\n        /* \"#utility.yul\":334:460   */\n    tag_32:\n        /* \"#utility.yul\":371:378   */\n      0x00\n        /* \"#utility.yul\":411:453   */\n      0xffffffffffffffffffffffffffffffffffffffff\n        /* \"#utility.yul\":404:409   */\n      dup3\n        /* \"#utility.yul\":400:454   */\n      and\n        /* \"#utility.yul\":389:454   */\n      swap1\n      pop\n        /* \"#utility.yul\":334:460   */\n      swap2\n      swap1\n      pop\n      jump\t// out\n        /* \"#utility.yul\":466:562   */\n    tag_33:\n        /* \"#utility.yul\":503:510   */\n      0x00\n        /* \"#utility.yul\":532:556   */\n      tag_64\n        /* \"#utility.yul\":550:555   */\n      dup3\n        /* \"#utility.yul\":532:556   */\n      tag_32\n      jump\t// in\n    tag_64:\n        /* \"#utility.yul\":521:556   */\n      swap1\n      pop\n        /* \"#utility.yul\":466:562   */\n      swap2\n      swap1\n      pop\n      jump\t// out\n        /* \"#utility.yul\":568:690   */\n    tag_34:\n        /* \"#utility.yul\":641:665   */\n      tag_66\n        /* \"#utility.yul\":659:664   */\n      dup2\n        /* \"#utility.yul\":641:665   */\n      tag_33\n      jump\t// in\n    tag_66:\n        /* \"#utility.yul\":634:639   */\n      dup2\n        /* \"#utility.yul\":631:666   */\n      eq\n        /* \"#utility.yul\":621:684   */\n      tag_67\n      jumpi\n        /* \"#utility.yul\":680:681   */\n      0x00\n        /* \"#utility.yul\":677:678   */\n      dup1\n        /* \"#utility.yul\":670:682   */\n      revert\n        /* \"#utility.yul\":621:684   */\n    tag_67:\n        /* \"#utility.yul\":568:690   */\n      pop\n      jump\t// out\n        /* \"#utility.yul\":696:835   */\n    tag_35:\n        /* \"#utility.yul\":742:747   */\n      0x00\n        /* \"#utility.yul\":780:786   */\n      dup2\n        /* \"#utility.yul\":767:787   */\n      calldataload\n        /* \"#utility.yul\":758:787   */\n      swap1\n      pop\n        /* \"#utility.yul\":796:829   */\n      tag_69\n        /* \"#utility.yul\":823:828   */\n      dup2\n        /* \"#utility.yul\":796:829   */\n      tag_34\n      jump\t// in\n    tag_69:\n        /* \"#utility.yul\":696:835   */\n      swap3\n      swap2\n      pop\n      pop\n      jump\t// out\n        /* \"#utility.yul\":841:918   */\n    tag_36:\n        /* \"#utility.yul\":878:885   */\n      0x00\n        /* \"#utility.yul\":907:912   */\n      dup2\n        /* \"#utility.yul\":896:912   */\n      swap1\n      pop\n        /* \"#utility.yul\":841:918   */\n      swap2\n      swap1\n      pop\n      jump\t// out\n        /* \"#utility.yul\":924:1046   */\n    tag_37:\n        /* \"#utility.yul\":997:1021   */\n      tag_72\n        /* \"#utility.yul\":1015:1020   */\n      dup2\n        /* \"#utility.yul\":997:1021   */\n      tag_36\n      jump\t// in\n    tag_72:\n        /* \"#utility.yul\":990:995   */\n      dup2\n        /* \"#utility.yul\":987:1022   */\n      eq\n        /* \"#utility.yul\":977:1040   */\n      tag_73\n      jumpi\n        /* \"#utility.yul\":1036:1037   */\n      0x00\n        /* \"#utility.yul\":1033:1034   */\n      dup1\n        /* \"#utility.yul\":1026:1038   */\n      revert\n        /* \"#utility.yul\":977:1040   */\n    tag_73:\n        /* \"#utility.yul\":924:1046   */\n      pop\n      jump\t// out\n        /* \"#utility.yul\":1052:1191   */\n    tag_38:\n        /* \"#utility.yul\":1098:1103   */\n      0x00\n        /* \"#utility.yul\":1136:1142   */\n      dup2\n        /* \"#utility.yul\":1123:1143   */\n      calldataload\n        /* \"#utility.yul\":1114:1143   */\n      swap1\n      pop\n        /* \"#utility.yul\":1152:1185   */\n      tag_75\n        /* \"#utility.yul\":1179:1184   */\n      dup2\n        /* \"#utility.yul\":1152:1185   */\n      tag_37\n      jump\t// in\n    tag_75:\n        /* \"#utility.yul\":1052:1191   */\n      swap3\n      swap2\n      pop\n      pop\n      jump\t// out\n        /* \"#utility.yul\":1197:1671   */\n    tag_8:\n        /* \"#utility.yul\":1265:1271   */\n      0x00\n        /* \"#utility.yul\":1273:1279   */\n      dup1\n        /* \"#utility.yul\":1322:1324   */\n      0x40\n        /* \"#utility.yul\":1310:1319   */\n      dup4\n        /* \"#utility.yul\":1301:1308   */\n      dup6\n        /* \"#utility.yul\":1297:1320   */\n      sub\n        /* \"#utility.yul\":1293:1325   */\n      slt\n        /* \"#utility.yul\":1290:1409   */\n      iszero\n      tag_77\n      jumpi\n        /* \"#utility.yul\":1328:1407   */\n      tag_78\n      tag_30\n      jump\t// in\n    tag_78:\n        /* \"#utility.yul\":1290:1409   */\n    tag_77:\n        /* \"#utility.yul\":1448:1449   */\n      0x00\n        /* \"#utility.yul\":1473:1526   */\n      tag_79\n        /* \"#utility.yul\":1518:1525   */\n      dup6\n        /* \"#utility.yul\":1509:1515   */\n      dup3\n        /* \"#utility.yul\":1498:1507   */\n      dup7\n        /* \"#utility.yul\":1494:1516   */\n      add\n        /* \"#utility.yul\":1473:1526   */\n      tag_35\n      jump\t// in\n    tag_79:\n        /* \"#utility.yul\":1463:1526   */\n      swap3\n      pop\n        /* \"#utility.yul\":1419:1536   */\n      pop\n        /* \"#utility.yul\":1575:1577   */\n      0x20\n        /* \"#utility.yul\":1601:1654   */\n      tag_80\n        /* \"#utility.yul\":1646:1653   */\n      dup6\n        /* \"#utility.yul\":1637:1643   */\n      dup3\n        /* \"#utility.yul\":1626:1635   */\n      dup7\n        /* \"#utility.yul\":1622:1644   */\n      add\n        /* \"#utility.yul\":1601:1654   */\n      tag_38\n      jump\t// in\n    tag_80:\n        /* \"#utility.yul\":1591:1654   */\n      swap2\n      pop\n        /* \"#utility.yul\":1546:1664   */\n      pop\n        /* \"#utility.yul\":1197:1671   */\n      swap3\n      pop\n      swap3\n      swap1\n      pop\n      jump\t// out\n        /* \"#utility.yul\":1677:1775   */\n    tag_39:\n        /* \"#utility.yul\":1728:1734   */\n      0x00\n        /* \"#utility.yul\":1762:1767   */\n      dup2\n        /* \"#utility.yul\":1756:1768   */\n      mload\n        /* \"#utility.yul\":1746:1768   */\n      swap1\n      pop\n        /* \"#utility.yul\":1677:1775   */\n      swap2\n      swap1\n      pop\n      jump\t// out\n        /* \"#utility.yul\":1781:1949   */\n    tag_40:\n        /* \"#utility.yul\":1864:1875   */\n      0x00\n        /* \"#utility.yul\":1898:1904   */\n      dup3\n        /* \"#utility.yul\":1893:1896   */\n      dup3\n        /* \"#utility.yul\":1886:1905   */\n      mstore\n        /* \"#utility.yul\":1938:1942   */\n      0x20\n        /* \"#utility.yul\":1933:1936   */\n      dup3\n        /* \"#utility.yul\":1929:1943   */\n      add\n        /* \"#utility.yul\":1914:1943   */\n      swap1\n      pop\n        /* \"#utility.yul\":1781:1949   */\n      swap3\n      swap2\n      pop\n      pop\n      jump\t// out\n        /* \"#utility.yul\":1955:2201   */\n    tag_41:\n        /* \"#utility.yul\":2036:2037   */\n      0x00\n        /* \"#utility.yul\":2046:2159   */\n    tag_84:\n        /* \"#utility.yul\":2060:2066   */\n      dup4\n        /* \"#utility.yul\":2057:2058   */\n      dup2\n        /* \"#utility.yul\":2054:2067   */\n      lt\n        /* \"#utility.yul\":2046:2159   */\n      iszero\n      tag_86\n      jumpi\n        /* \"#utility.yul\":2145:2146   */\n      dup1\n        /* \"#utility.yul\":2140:2143   */\n      dup3\n        /* \"#utility.yul\":2136:2147   */\n      add\n        /* \"#utility.yul\":2130:2148   */\n      mload\n        /* \"#utility.yul\":2126:2127   */\n      dup2\n        /* \"#utility.yul\":2121:2124   */\n      dup5\n        /* \"#utility.yul\":2117:2128   */\n      add\n        /* \"#utility.yul\":2110:2149   */\n      mstore\n        /* \"#utility.yul\":2082:2084   */\n      0x20\n        /* \"#utility.yul\":2079:2080   */\n      dup2\n        /* \"#utility.yul\":2075:2085   */\n      add\n        /* \"#utility.yul\":2070:2085   */\n      swap1\n      pop\n        /* \"#utility.yul\":2046:2159   */\n      jump(tag_84)\n    tag_86:\n        /* \"#utility.yul\":2193:2194   */\n      0x00\n        /* \"#utility.yul\":2184:2190   */\n      dup5\n        /* \"#utility.yul\":2179:2182   */\n      dup5\n        /* \"#utility.yul\":2175:2191   */\n      add\n        /* \"#utility.yul\":2168:2195   */\n      mstore\n        /* \"#utility.yul\":2017:2201   */\n      pop\n        /* \"#utility.yul\":1955:2201   */\n      pop\n      pop\n      pop\n      jump\t// out\n        /* \"#utility.yul\":2207:2309   */\n    tag_42:\n        /* \"#utility.yul\":2248:2254   */\n      0x00\n        /* \"#utility.yul\":2299:2301   */\n      0x1f\n        /* \"#utility.yul\":2295:2302   */\n      not\n        /* \"#utility.yul\":2290:2292   */\n      0x1f\n        /* \"#utility.yul\":2283:2288   */\n      dup4\n        /* \"#utility.yul\":2279:2293   */\n      add\n        /* \"#utility.yul\":2275:2303   */\n      and\n        /* \"#utility.yul\":2265:2303   */\n      swap1\n      pop\n        /* \"#utility.yul\":2207:2309   */\n      swap2\n      swap1\n      pop\n      jump\t// out\n        /* \"#utility.yul\":2315:2688   */\n    tag_43:\n        /* \"#utility.yul\":2401:2404   */\n      0x00\n        /* \"#utility.yul\":2429:2467   */\n      tag_89\n        /* \"#utility.yul\":2461:2466   */\n      dup3\n        /* \"#utility.yul\":2429:2467   */\n      tag_39\n      jump\t// in\n    tag_89:\n        /* \"#utility.yul\":2483:2553   */\n      tag_90\n        /* \"#utility.yul\":2546:2552   */\n      dup2\n        /* \"#utility.yul\":2541:2544   */\n      dup6\n        /* \"#utility.yul\":2483:2553   */\n      tag_40\n      jump\t// in\n    tag_90:\n        /* \"#utility.yul\":2476:2553   */\n      swap4\n      pop\n        /* \"#utility.yul\":2562:2627   */\n      tag_91\n        /* \"#utility.yul\":2620:2626   */\n      dup2\n        /* \"#utility.yul\":2615:2618   */\n      dup6\n        /* \"#utility.yul\":2608:2612   */\n      0x20\n        /* \"#utility.yul\":2601:2606   */\n      dup7\n        /* \"#utility.yul\":2597:2613   */\n      add\n        /* \"#utility.yul\":2562:2627   */\n      tag_41\n      jump\t// in\n    tag_91:\n        /* \"#utility.yul\":2652:2681   */\n      tag_92\n        /* \"#utility.yul\":2674:2680   */\n      dup2\n        /* \"#utility.yul\":2652:2681   */\n      tag_42\n      jump\t// in\n    tag_92:\n        /* \"#utility.yul\":2647:2650   */\n      dup5\n        /* \"#utility.yul\":2643:2682   */\n      add\n        /* \"#utility.yul\":2636:2682   */\n      swap2\n      pop\n        /* \"#utility.yul\":2405:2688   */\n      pop\n        /* \"#utility.yul\":2315:2688   */\n      swap3\n      swap2\n      pop\n      pop\n      jump\t// out\n        /* \"#utility.yul\":2694:3003   */\n    tag_13:\n        /* \"#utility.yul\":2805:2809   */\n      0x00\n        /* \"#utility.yul\":2843:2845   */\n      0x20\n        /* \"#utility.yul\":2832:2841   */\n      dup3\n        /* \"#utility.yul\":2828:2846   */\n      add\n        /* \"#utility.yul\":2820:2846   */\n      swap1\n      pop\n        /* \"#utility.yul\":2892:2901   */\n      dup2\n        /* \"#utility.yul\":2886:2890   */\n      dup2\n        /* \"#utility.yul\":2882:2902   */\n      sub\n        /* \"#utility.yul\":2878:2879   */\n      0x00\n        /* \"#utility.yul\":2867:2876   */\n      dup4\n        /* \"#utility.yul\":2863:2880   */\n      add\n        /* \"#utility.yul\":2856:2903   */\n      mstore\n        /* \"#utility.yul\":2920:2996   */\n      tag_94\n        /* \"#utility.yul\":2991:2995   */\n      dup2\n        /* \"#utility.yul\":2982:2988   */\n      dup5\n        /* \"#utility.yul\":2920:2996   */\n      tag_43\n      jump\t// in\n    tag_94:\n        /* \"#utility.yul\":2912:2996   */\n      swap1\n      pop\n        /* \"#utility.yul\":2694:3003   */\n      swap3\n      swap2\n      pop\n      pop\n      jump\t// out\n        /* \"#utility.yul\":3009:3127   */\n    tag_44:\n        /* \"#utility.yul\":3096:3120   */\n      tag_96\n        /* \"#utility.yul\":3114:3119   */\n      dup2\n        /* \"#utility.yul\":3096:3120   */\n      tag_36\n      jump\t// in\n    tag_96:\n        /* \"#utility.yul\":3091:3094   */\n      dup3\n        /* \"#utility.yul\":3084:3121   */\n      mstore\n        /* \"#utility.yul\":3009:3127   */\n      pop\n      pop\n      jump\t// out\n        /* \"#utility.yul\":3133:3355   */\n    tag_17:\n        /* \"#utility.yul\":3226:3230   */\n      0x00\n        /* \"#utility.yul\":3264:3266   */\n      0x20\n        /* \"#utility.yul\":3253:3262   */\n      dup3\n        /* \"#utility.yul\":3249:3267   */\n      add\n        /* \"#utility.yul\":3241:3267   */\n      swap1\n      pop\n        /* \"#utility.yul\":3277:3348   */\n      tag_98\n        /* \"#utility.yul\":3345:3346   */\n      0x00\n        /* \"#utility.yul\":3334:3343   */\n      dup4\n        /* \"#utility.yul\":3330:3347   */\n      add\n        /* \"#utility.yul\":3321:3327   */\n      dup5\n        /* \"#utility.yul\":3277:3348   */\n      tag_44\n      jump\t// in\n    tag_98:\n        /* \"#utility.yul\":3133:3355   */\n      swap3\n      swap2\n      pop\n      pop\n      jump\t// out\n        /* \"#utility.yul\":3361:3541   */\n    tag_45:\n        /* \"#utility.yul\":3409:3486   */\n      0x4e487b7100000000000000000000000000000000000000000000000000000000\n        /* \"#utility.yul\":3406:3407   */\n      0x00\n        /* \"#utility.yul\":3399:3487   */\n      mstore\n        /* \"#utility.yul\":3506:3510   */\n      0x22\n        /* \"#utility.yul\":3503:3504   */\n      0x04\n        /* \"#utility.yul\":3496:3511   */\n      mstore\n        /* \"#utility.yul\":3530:3534   */\n      0x24\n        /* \"#utility.yul\":3527:3528   */\n      0x00\n        /* \"#utility.yul\":3520:3535   */\n      revert\n        /* \"#utility.yul\":3547:3867   */\n    tag_24:\n        /* \"#utility.yul\":3591:3597   */\n      0x00\n        /* \"#utility.yul\":3628:3629   */\n      0x02\n        /* \"#utility.yul\":3622:3626   */\n      dup3\n        /* \"#utility.yul\":3618:3630   */\n      div\n        /* \"#utility.yul\":3608:3630   */\n      swap1\n      pop\n        /* \"#utility.yul\":3675:3676   */\n      0x01\n        /* \"#utility.yul\":3669:3673   */\n      dup3\n        /* \"#utility.yul\":3665:3677   */\n      and\n        /* \"#utility.yul\":3696:3714   */\n      dup1\n        /* \"#utility.yul\":3686:3767   */\n      tag_101\n      jumpi\n        /* \"#utility.yul\":3752:3756   */\n      0x7f\n        /* \"#utility.yul\":3744:3750   */\n      dup3\n        /* \"#utility.yul\":3740:3757   */\n      and\n        /* \"#utility.yul\":3730:3757   */\n      swap2\n      pop\n        /* \"#utility.yul\":3686:3767   */\n    tag_101:\n        /* \"#utility.yul\":3814:3816   */\n      0x20\n        /* \"#utility.yul\":3806:3812   */\n      dup3\n        /* \"#utility.yul\":3803:3817   */\n      lt\n        /* \"#utility.yul\":3783:3801   */\n      dup2\n        /* \"#utility.yul\":3780:3818   */\n      sub\n        /* \"#utility.yul\":3777:3861   */\n      tag_102\n      jumpi\n        /* \"#utility.yul\":3833:3851   */\n      tag_103\n      tag_45\n      jump\t// in\n    tag_103:\n        /* \"#utility.yul\":3777:3861   */\n    tag_102:\n        /* \"#utility.yul\":3598:3867   */\n      pop\n        /* \"#utility.yul\":3547:3867   */\n      swap2\n      swap1\n      pop\n      jump\t// out\n        /* \"#utility.yul\":3873:4020   */\n    tag_46:\n        /* \"#utility.yul\":3974:3985   */\n      0x00\n        /* \"#utility.yul\":4011:4014   */\n      dup2\n        /* \"#utility.yul\":3996:4014   */\n      swap1\n      pop\n        /* \"#utility.yul\":3873:4020   */\n      swap3\n      swap2\n      pop\n      pop\n      jump\t// out\n        /* \"#utility.yul\":4026:4166   */\n    tag_47:\n        /* \"#utility.yul\":4074:4078   */\n      0x00\n        /* \"#utility.yul\":4097:4100   */\n      dup2\n        /* \"#utility.yul\":4089:4100   */\n      swap1\n      pop\n        /* \"#utility.yul\":4120:4123   */\n      dup2\n        /* \"#utility.yul\":4117:4118   */\n      0x00\n        /* \"#utility.yul\":4110:4124   */\n      mstore\n        /* \"#utility.yul\":4154:4158   */\n      0x20\n        /* \"#utility.yul\":4151:4152   */\n      0x00\n        /* \"#utility.yul\":4141:4159   */\n      keccak256\n        /* \"#utility.yul\":4133:4159   */\n      swap1\n      pop\n        /* \"#utility.yul\":4026:4166   */\n      swap2\n      swap1\n      pop\n      jump\t// out\n        /* \"#utility.yul\":4194:5064   */\n    tag_48:\n        /* \"#utility.yul\":4295:4298   */\n      0x00\n        /* \"#utility.yul\":4332:4337   */\n      dup2\n        /* \"#utility.yul\":4326:4338   */\n      sload\n        /* \"#utility.yul\":4361:4397   */\n      tag_107\n        /* \"#utility.yul\":4387:4396   */\n      dup2\n        /* \"#utility.yul\":4361:4397   */\n      tag_24\n      jump\t// in\n    tag_107:\n        /* \"#utility.yul\":4413:4501   */\n      tag_108\n        /* \"#utility.yul\":4494:4500   */\n      dup2\n        /* \"#utility.yul\":4489:4492   */\n      dup7\n        /* \"#utility.yul\":4413:4501   */\n      tag_46\n      jump\t// in\n    tag_108:\n        /* \"#utility.yul\":4406:4501   */\n      swap5\n      pop\n        /* \"#utility.yul\":4532:4533   */\n      0x01\n        /* \"#utility.yul\":4521:4530   */\n      dup3\n        /* \"#utility.yul\":4517:4534   */\n      and\n        /* \"#utility.yul\":4548:4549   */\n      0x00\n        /* \"#utility.yul\":4543:4709   */\n      dup2\n      eq\n      tag_110\n      jumpi\n        /* \"#utility.yul\":4723:4724   */\n      0x01\n        /* \"#utility.yul\":4718:5058   */\n      dup2\n      eq\n      tag_111\n      jumpi\n        /* \"#utility.yul\":4510:5058   */\n      jump(tag_109)\n        /* \"#utility.yul\":4543:4709   */\n    tag_110:\n        /* \"#utility.yul\":4627:4631   */\n      0xff\n        /* \"#utility.yul\":4623:4632   */\n      not\n        /* \"#utility.yul\":4612:4621   */\n      dup4\n        /* \"#utility.yul\":4608:4633   */\n      and\n        /* \"#utility.yul\":4603:4606   */\n      dup7\n        /* \"#utility.yul\":4596:4634   */\n      mstore\n        /* \"#utility.yul\":4689:4695   */\n      dup2\n        /* \"#utility.yul\":4682:4696   */\n      iszero\n        /* \"#utility.yul\":4675:4697   */\n      iszero\n        /* \"#utility.yul\":4667:4673   */\n      dup3\n        /* \"#utility.yul\":4663:4698   */\n      mul\n        /* \"#utility.yul\":4658:4661   */\n      dup7\n        /* \"#utility.yul\":4654:4699   */\n      add\n        /* \"#utility.yul\":4647:4699   */\n      swap4\n      pop\n        /* \"#utility.yul\":4543:4709   */\n      jump(tag_109)\n        /* \"#utility.yul\":4718:5058   */\n    tag_111:\n        /* \"#utility.yul\":4785:4822   */\n      tag_112\n        /* \"#utility.yul\":4816:4821   */\n      dup6\n        /* \"#utility.yul\":4785:4822   */\n      tag_47\n      jump\t// in\n    tag_112:\n        /* \"#utility.yul\":4844:4845   */\n      0x00\n        /* \"#utility.yul\":4858:5012   */\n    tag_113:\n        /* \"#utility.yul\":4872:4878   */\n      dup4\n        /* \"#utility.yul\":4869:4870   */\n      dup2\n        /* \"#utility.yul\":4866:4879   */\n      lt\n        /* \"#utility.yul\":4858:5012   */\n      iszero\n      tag_115\n      jumpi\n        /* \"#utility.yul\":4946:4953   */\n      dup2\n        /* \"#utility.yul\":4940:4954   */\n      sload\n        /* \"#utility.yul\":4936:4937   */\n      dup2\n        /* \"#utility.yul\":4931:4934   */\n      dup10\n        /* \"#utility.yul\":4927:4938   */\n      add\n        /* \"#utility.yul\":4920:4955   */\n      mstore\n        /* \"#utility.yul\":4996:4997   */\n      0x01\n        /* \"#utility.yul\":4987:4994   */\n      dup3\n        /* \"#utility.yul\":4983:4998   */\n      add\n        /* \"#utility.yul\":4972:4998   */\n      swap2\n      pop\n        /* \"#utility.yul\":4894:4898   */\n      0x20\n        /* \"#utility.yul\":4891:4892   */\n      dup2\n        /* \"#utility.yul\":4887:4899   */\n      add\n        /* \"#utility.yul\":4882:4899   */\n      swap1\n      pop\n        /* \"#utility.yul\":4858:5012   */\n      jump(tag_113)\n    tag_115:\n        /* \"#utility.yul\":5041:5047   */\n      dup4\n        /* \"#utility.yul\":5036:5039   */\n      dup9\n        /* \"#utility.yul\":5032:5048   */\n      add\n        /* \"#utility.yul\":5025:5048   */\n      swap6\n      pop\n        /* \"#utility.yul\":4725:5058   */\n      pop\n      pop\n        /* \"#utility.yul\":4510:5058   */\n    tag_109:\n      pop\n        /* \"#utility.yul\":4299:5064   */\n      pop\n      pop\n        /* \"#utility.yul\":4194:5064   */\n      swap3\n      swap2\n      pop\n      pop\n      jump\t// out\n        /* \"#utility.yul\":5070:5335   */\n    tag_20:\n        /* \"#utility.yul\":5197:5200   */\n      0x00\n        /* \"#utility.yul\":5219:5309   */\n      tag_117\n        /* \"#utility.yul\":5305:5308   */\n      dup3\n        /* \"#utility.yul\":5296:5302   */\n      dup5\n        /* \"#utility.yul\":5219:5309   */\n      tag_48\n      jump\t// in\n    tag_117:\n        /* \"#utility.yul\":5212:5309   */\n      swap2\n      pop\n        /* \"#utility.yul\":5326:5329   */\n      dup2\n        /* \"#utility.yul\":5319:5329   */\n      swap1\n      pop\n        /* \"#utility.yul\":5070:5335   */\n      swap3\n      swap2\n      pop\n      pop\n      jump\t// out\n        /* \"#utility.yul\":5341:5490   */\n    tag_49:\n        /* \"#utility.yul\":5377:5384   */\n      0x00\n        /* \"#utility.yul\":5417:5483   */\n      0xff00000000000000000000000000000000000000000000000000000000000000\n        /* \"#utility.yul\":5410:5415   */\n      dup3\n        /* \"#utility.yul\":5406:5484   */\n      and\n        /* \"#utility.yul\":5395:5484   */\n      swap1\n      pop\n        /* \"#utility.yul\":5341:5490   */\n      swap2\n      swap1\n      pop\n      jump\t// out\n        /* \"#utility.yul\":5496:5574   */\n    tag_50:\n        /* \"#utility.yul\":5534:5541   */\n      0x00\n        /* \"#utility.yul\":5563:5568   */\n      dup2\n        /* \"#utility.yul\":5552:5568   */\n      swap1\n      pop\n        /* \"#utility.yul\":5496:5574   */\n      swap2\n      swap1\n      pop\n      jump\t// out\n        /* \"#utility.yul\":5580:5733   */\n    tag_51:\n        /* \"#utility.yul\":5683:5726   */\n      tag_121\n        /* \"#utility.yul\":5702:5725   */\n      tag_122\n        /* \"#utility.yul\":5719:5724   */\n      dup3\n        /* \"#utility.yul\":5702:5725   */\n      tag_49\n      jump\t// in\n    tag_122:\n        /* \"#utility.yul\":5683:5726   */\n      tag_50\n      jump\t// in\n    tag_121:\n        /* \"#utility.yul\":5678:5681   */\n      dup3\n        /* \"#utility.yul\":5671:5727   */\n      mstore\n        /* \"#utility.yul\":5580:5733   */\n      pop\n      pop\n      jump\t// out\n        /* \"#utility.yul\":5739:5833   */\n    tag_52:\n        /* \"#utility.yul\":5772:5780   */\n      0x00\n        /* \"#utility.yul\":5820:5825   */\n      dup2\n        /* \"#utility.yul\":5816:5818   */\n      0x60\n        /* \"#utility.yul\":5812:5826   */\n      shl\n        /* \"#utility.yul\":5791:5826   */\n      swap1\n      pop\n        /* \"#utility.yul\":5739:5833   */\n      swap2\n      swap1\n      pop\n      jump\t// out\n        /* \"#utility.yul\":5839:5933   */\n    tag_53:\n        /* \"#utility.yul\":5878:5885   */\n      0x00\n        /* \"#utility.yul\":5907:5927   */\n      tag_125\n        /* \"#utility.yul\":5921:5926   */\n      dup3\n        /* \"#utility.yul\":5907:5927   */\n      tag_52\n      jump\t// in\n    tag_125:\n        /* \"#utility.yul\":5896:5927   */\n      swap1\n      pop\n        /* \"#utility.yul\":5839:5933   */\n      swap2\n      swap1\n      pop\n      jump\t// out\n        /* \"#utility.yul\":5939:6039   */\n    tag_54:\n        /* \"#utility.yul\":5978:5985   */\n      0x00\n        /* \"#utility.yul\":6007:6033   */\n      tag_127\n        /* \"#utility.yul\":6027:6032   */\n      dup3\n        /* \"#utility.yul\":6007:6033   */\n      tag_53\n      jump\t// in\n    tag_127:\n        /* \"#utility.yul\":5996:6033   */\n      swap1\n      pop\n        /* \"#utility.yul\":5939:6039   */\n      swap2\n      swap1\n      pop\n      jump\t// out\n        /* \"#utility.yul\":6045:6202   */\n    tag_55:\n        /* \"#utility.yul\":6150:6195   */\n      tag_129\n        /* \"#utility.yul\":6170:6194   */\n      tag_130\n        /* \"#utility.yul\":6188:6193   */\n      dup3\n        /* \"#utility.yul\":6170:6194   */\n      tag_33\n      jump\t// in\n    tag_130:\n        /* \"#utility.yul\":6150:6195   */\n      tag_54\n      jump\t// in\n    tag_129:\n        /* \"#utility.yul\":6145:6148   */\n      dup3\n        /* \"#utility.yul\":6138:6196   */\n      mstore\n        /* \"#utility.yul\":6045:6202   */\n      pop\n      pop\n      jump\t// out\n        /* \"#utility.yul\":6208:6287   */\n    tag_56:\n        /* \"#utility.yul\":6247:6254   */\n      0x00\n        /* \"#utility.yul\":6276:6281   */\n      dup2\n        /* \"#utility.yul\":6265:6281   */\n      swap1\n      pop\n        /* \"#utility.yul\":6208:6287   */\n      swap2\n      swap1\n      pop\n      jump\t// out\n        /* \"#utility.yul\":6293:6450   */\n    tag_57:\n        /* \"#utility.yul\":6398:6443   */\n      tag_133\n        /* \"#utility.yul\":6418:6442   */\n      tag_134\n        /* \"#utility.yul\":6436:6441   */\n      dup3\n        /* \"#utility.yul\":6418:6442   */\n      tag_36\n      jump\t// in\n    tag_134:\n        /* \"#utility.yul\":6398:6443   */\n      tag_56\n      jump\t// in\n    tag_133:\n        /* \"#utility.yul\":6393:6396   */\n      dup3\n        /* \"#utility.yul\":6386:6444   */\n      mstore\n        /* \"#utility.yul\":6293:6450   */\n      pop\n      pop\n      jump\t// out\n        /* \"#utility.yul\":6456:7130   */\n    tag_22:\n        /* \"#utility.yul\":6650:6653   */\n      0x00\n        /* \"#utility.yul\":6665:6738   */\n      tag_136\n        /* \"#utility.yul\":6734:6737   */\n      dup3\n        /* \"#utility.yul\":6725:6731   */\n      dup8\n        /* \"#utility.yul\":6665:6738   */\n      tag_51\n      jump\t// in\n    tag_136:\n        /* \"#utility.yul\":6763:6764   */\n      0x01\n        /* \"#utility.yul\":6758:6761   */\n      dup3\n        /* \"#utility.yul\":6754:6765   */\n      add\n        /* \"#utility.yul\":6747:6765   */\n      swap2\n      pop\n        /* \"#utility.yul\":6775:6850   */\n      tag_137\n        /* \"#utility.yul\":6846:6849   */\n      dup3\n        /* \"#utility.yul\":6837:6843   */\n      dup7\n        /* \"#utility.yul\":6775:6850   */\n      tag_55\n      jump\t// in\n    tag_137:\n        /* \"#utility.yul\":6875:6877   */\n      0x14\n        /* \"#utility.yul\":6870:6873   */\n      dup3\n        /* \"#utility.yul\":6866:6878   */\n      add\n        /* \"#utility.yul\":6859:6878   */\n      swap2\n      pop\n        /* \"#utility.yul\":6888:6963   */\n      tag_138\n        /* \"#utility.yul\":6959:6962   */\n      dup3\n        /* \"#utility.yul\":6950:6956   */\n      dup6\n        /* \"#utility.yul\":6888:6963   */\n      tag_57\n      jump\t// in\n    tag_138:\n        /* \"#utility.yul\":6988:6990   */\n      0x20\n        /* \"#utility.yul\":6983:6986   */\n      dup3\n        /* \"#utility.yul\":6979:6991   */\n      add\n        /* \"#utility.yul\":6972:6991   */\n      swap2\n      pop\n        /* \"#utility.yul\":7001:7076   */\n      tag_139\n        /* \"#utility.yul\":7072:7075   */\n      dup3\n        /* \"#utility.yul\":7063:7069   */\n      dup5\n        /* \"#utility.yul\":7001:7076   */\n      tag_57\n      jump\t// in\n    tag_139:\n        /* \"#utility.yul\":7101:7103   */\n      0x20\n        /* \"#utility.yul\":7096:7099   */\n      dup3\n        /* \"#utility.yul\":7092:7104   */\n      add\n        /* \"#utility.yul\":7085:7104   */\n      swap2\n      pop\n        /* \"#utility.yul\":7121:7124   */\n      dup2\n        /* \"#utility.yul\":7114:7124   */\n      swap1\n      pop\n        /* \"#utility.yul\":6456:7130   */\n      swap6\n      swap5\n      pop\n      pop\n      pop\n      pop\n      pop\n      jump\t// out\n\n    auxdata: 0xa264697066735822122056f569b9504221e1c66e8126fbb897032d22412a2462b964fd48815ef61a96b764736f6c63430008150033\n}\n\nsub_1: assembly {\n        /* \"shoot/2/create_create\\xe8\\xae\\xa1\\xe7\\xae\\x97/1.sol\":128:394  contract found{... */\n      mstore(0x40, 0x80)\n        /* \"shoot/2/create_create\\xe8\\xae\\xa1\\xe7\\xae\\x97/1.sol\":170:175  false */\n      0x00\n        /* \"shoot/2/create_create\\xe8\\xae\\xa1\\xe7\\xae\\x97/1.sol\":149:175  bool public resove = false */\n      dup1\n      exp(0x0100, 0x00)\n      dup2\n      sload\n      dup2\n      0xff\n      mul\n      not\n      and\n      swap1\n      dup4\n      iszero\n      iszero\n      mul\n      or\n      swap1\n      sstore\n      pop\n        /* \"shoot/2/create_create\\xe8\\xae\\xa1\\xe7\\xae\\x97/1.sol\":188:301  constructor(){... */\n      callvalue\n      dup1\n      iszero\n      tag_1\n      jumpi\n      0x00\n      dup1\n      revert\n    tag_1:\n      pop\n        /* \"shoot/2/create_create\\xe8\\xae\\xa1\\xe7\\xae\\x97/1.sol\":240:251  0.001 ether */\n      0x038d7ea4c68000\n        /* \"shoot/2/create_create\\xe8\\xae\\xa1\\xe7\\xae\\x97/1.sol\":215:236  address(this).balance */\n      selfbalance\n        /* \"shoot/2/create_create\\xe8\\xae\\xa1\\xe7\\xae\\x97/1.sol\":215:251  address(this).balance >= 0.001 ether */\n      lt\n        /* \"shoot/2/create_create\\xe8\\xae\\xa1\\xe7\\xae\\x97/1.sol\":212:292  if(address(this).balance >= 0.001 ether){... */\n      tag_4\n      jumpi\n        /* \"shoot/2/create_create\\xe8\\xae\\xa1\\xe7\\xae\\x97/1.sol\":276:280  true */\n      0x01\n        /* \"shoot/2/create_create\\xe8\\xae\\xa1\\xe7\\xae\\x97/1.sol\":267:273  resove */\n      0x00\n      dup1\n        /* \"shoot/2/create_create\\xe8\\xae\\xa1\\xe7\\xae\\x97/1.sol\":267:280  resove = true */\n      0x0100\n      exp\n      dup2\n      sload\n      dup2\n      0xff\n      mul\n      not\n      and\n      swap1\n      dup4\n      iszero\n      iszero\n      mul\n      or\n      swap1\n      sstore\n      pop\n        /* \"shoot/2/create_create\\xe8\\xae\\xa1\\xe7\\xae\\x97/1.sol\":212:292  if(address(this).balance >= 0.001 ether){... */\n    tag_4:\n        /* \"shoot/2/create_create\\xe8\\xae\\xa1\\xe7\\xae\\x97/1.sol\":128:394  contract found{... */\n      dataSize(sub_0)\n      dup1\n      dataOffset(sub_0)\n      0x00\n      codecopy\n      0x00\n      return\n    stop\n\n    sub_0: assembly {\n            /* \"shoot/2/create_create\\xe8\\xae\\xa1\\xe7\\xae\\x97/1.sol\":128:394  contract found{... */\n          mstore(0x40, 0x80)\n          callvalue\n          dup1\n          iszero\n          tag_1\n          jumpi\n          0x00\n          dup1\n          revert\n        tag_1:\n          pop\n          jumpi(tag_2, lt(calldatasize, 0x04))\n          shr(0xe0, calldataload(0x00))\n          dup1\n          0x4c0f7987\n          eq\n          tag_3\n          jumpi\n          dup1\n          0xac51c67d\n          eq\n          tag_4\n          jumpi\n        tag_2:\n          0x00\n          dup1\n          revert\n            /* \"shoot/2/create_create\\xe8\\xae\\xa1\\xe7\\xae\\x97/1.sol\":313:391  function getResove() public view returns(bool){... */\n        tag_3:\n          tag_5\n          tag_6\n          jump\t// in\n        tag_5:\n          mload(0x40)\n          tag_7\n          swap2\n          swap1\n          tag_8\n          jump\t// in\n        tag_7:\n          mload(0x40)\n          dup1\n          swap2\n          sub\n          swap1\n          return\n            /* \"shoot/2/create_create\\xe8\\xae\\xa1\\xe7\\xae\\x97/1.sol\":149:175  bool public resove = false */\n        tag_4:\n          tag_9\n          tag_10\n          jump\t// in\n        tag_9:\n          mload(0x40)\n          tag_11\n          swap2\n          swap1\n          tag_8\n          jump\t// in\n        tag_11:\n          mload(0x40)\n          dup1\n          swap2\n          sub\n          swap1\n          return\n            /* \"shoot/2/create_create\\xe8\\xae\\xa1\\xe7\\xae\\x97/1.sol\":313:391  function getResove() public view returns(bool){... */\n        tag_6:\n            /* \"shoot/2/create_create\\xe8\\xae\\xa1\\xe7\\xae\\x97/1.sol\":354:358  bool */\n          0x00\n            /* \"shoot/2/create_create\\xe8\\xae\\xa1\\xe7\\xae\\x97/1.sol\":377:383  resove */\n          dup1\n          0x00\n          swap1\n          sload\n          swap1\n          0x0100\n          exp\n          swap1\n          div\n          0xff\n          and\n            /* \"shoot/2/create_create\\xe8\\xae\\xa1\\xe7\\xae\\x97/1.sol\":370:383  return resove */\n          swap1\n          pop\n            /* \"shoot/2/create_create\\xe8\\xae\\xa1\\xe7\\xae\\x97/1.sol\":313:391  function getResove() public view returns(bool){... */\n          swap1\n          jump\t// out\n            /* \"shoot/2/create_create\\xe8\\xae\\xa1\\xe7\\xae\\x97/1.sol\":149:175  bool public resove = false */\n        tag_10:\n          0x00\n          dup1\n          sload\n          swap1\n          0x0100\n          exp\n          swap1\n          div\n          0xff\n          and\n          dup2\n          jump\t// out\n            /* \"#utility.yul\":7:97   */\n        tag_13:\n            /* \"#utility.yul\":41:48   */\n          0x00\n            /* \"#utility.yul\":84:89   */\n          dup2\n            /* \"#utility.yul\":77:90   */\n          iszero\n            /* \"#utility.yul\":70:91   */\n          iszero\n            /* \"#utility.yul\":59:91   */\n          swap1\n          pop\n            /* \"#utility.yul\":7:97   */\n          swap2\n          swap1\n          pop\n          jump\t// out\n            /* \"#utility.yul\":103:212   */\n        tag_14:\n            /* \"#utility.yul\":184:205   */\n          tag_18\n            /* \"#utility.yul\":199:204   */\n          dup2\n            /* \"#utility.yul\":184:205   */\n          tag_13\n          jump\t// in\n        tag_18:\n            /* \"#utility.yul\":179:182   */\n          dup3\n            /* \"#utility.yul\":172:206   */\n          mstore\n            /* \"#utility.yul\":103:212   */\n          pop\n          pop\n          jump\t// out\n            /* \"#utility.yul\":218:428   */\n        tag_8:\n            /* \"#utility.yul\":305:309   */\n          0x00\n            /* \"#utility.yul\":343:345   */\n          0x20\n            /* \"#utility.yul\":332:341   */\n          dup3\n            /* \"#utility.yul\":328:346   */\n          add\n            /* \"#utility.yul\":320:346   */\n          swap1\n          pop\n            /* \"#utility.yul\":356:421   */\n          tag_20\n            /* \"#utility.yul\":418:419   */\n          0x00\n            /* \"#utility.yul\":407:416   */\n          dup4\n            /* \"#utility.yul\":403:420   */\n          add\n            /* \"#utility.yul\":394:400   */\n          dup5\n            /* \"#utility.yul\":356:421   */\n          tag_14\n          jump\t// in\n        tag_20:\n            /* \"#utility.yul\":218:428   */\n          swap3\n          swap2\n          pop\n          pop\n          jump\t// out\n\n        auxdata: 0xa26469706673582212200259156a9f5842f0743c0b146c2ba3571e6524b62428346437df5c22e9393ed664736f6c63430008150033\n    }\n}\n",
				"bytecode": {
					"linkReferences": {},
					"object": "60806040526040518060200162000016906200005b565b6020820181038252601f19601f820116604052505f9081620000399190620002cd565b505f6040516200004a919062000447565b60405180910390206001556200045f565b61014d80620009e083390190565b5f81519050919050565b7f4e487b71000000000000000000000000000000000000000000000000000000005f52604160045260245ffd5b7f4e487b71000000000000000000000000000000000000000000000000000000005f52602260045260245ffd5b5f6002820490506001821680620000e557607f821691505b602082108103620000fb57620000fa620000a0565b5b50919050565b5f819050815f5260205f209050919050565b5f6020601f8301049050919050565b5f82821b905092915050565b5f600883026200015f7fffffffffffffffffffffffffffffffffffffffffffffffffffffffffffffffff8262000122565b6200016b868362000122565b95508019841693508086168417925050509392505050565b5f819050919050565b5f819050919050565b5f620001b5620001af620001a98462000183565b6200018c565b62000183565b9050919050565b5f819050919050565b620001d08362000195565b620001e8620001df82620001bc565b8484546200012e565b825550505050565b5f90565b620001fe620001f0565b6200020b818484620001c5565b505050565b5b818110156200023257620002265f82620001f4565b60018101905062000211565b5050565b601f82111562000281576200024b8162000101565b620002568462000113565b8101602085101562000266578190505b6200027e620002758562000113565b83018262000210565b50505b505050565b5f82821c905092915050565b5f620002a35f198460080262000286565b1980831691505092915050565b5f620002bd838362000292565b9150826002028217905092915050565b620002d88262000069565b67ffffffffffffffff811115620002f457620002f362000073565b5b620003008254620000cd565b6200030d82828562000236565b5f60209050601f83116001811462000343575f84156200032e578287015190505b6200033a8582620002b0565b865550620003a9565b601f198416620003538662000101565b5f5b828110156200037c5784890151825560018201915060208501945060208101905062000355565b868310156200039c578489015162000398601f89168262000292565b8355505b6001600288020188555050505b505050505050565b5f81905092915050565b5f8154620003c981620000cd565b620003d58186620003b1565b9450600182165f8114620003f2576001811462000408576200043e565b60ff19831686528115158202860193506200043e565b620004138562000101565b5f5b83811015620004365781548189015260018201915060208101905062000415565b838801955050505b50505092915050565b5f620004548284620003bb565b915081905092915050565b610573806200046d5f395ff3fe608060405234801561000f575f80fd5b506004361061003f575f3560e01c806308684d3814610043578063cccecb141461005f578063e2179b8e1461007d575b5f80fd5b61005d60048036038101906100589190610221565b61009b565b005b6100676100ff565b60405161007491906102e9565b60405180910390f35b61008561018a565b6040516100929190610318565b60405180910390f35b5f60ff60f81b83835f6040516100b1919061042a565b60405180910390206040516020016100cc94939291906104f0565b604051602081830303815290604052805190602001205f1c90508073ffffffffffffffffffffffffffffffffffffffff16ff5b5f805461010b9061035e565b80601f01602080910402602001604051908101604052809291908181526020018280546101379061035e565b80156101825780601f1061015957610100808354040283529160200191610182565b820191905f5260205f20905b81548152906001019060200180831161016557829003601f168201915b505050505081565b60015481565b5f80fd5b5f73ffffffffffffffffffffffffffffffffffffffff82169050919050565b5f6101bd82610194565b9050919050565b6101cd816101b3565b81146101d7575f80fd5b50565b5f813590506101e8816101c4565b92915050565b5f819050919050565b610200816101ee565b811461020a575f80fd5b50565b5f8135905061021b816101f7565b92915050565b5f806040838503121561023757610236610190565b5b5f610244858286016101da565b92505060206102558582860161020d565b9150509250929050565b5f81519050919050565b5f82825260208201905092915050565b5f5b8381101561029657808201518184015260208101905061027b565b5f8484015250505050565b5f601f19601f8301169050919050565b5f6102bb8261025f565b6102c58185610269565b93506102d5818560208601610279565b6102de816102a1565b840191505092915050565b5f6020820190508181035f83015261030181846102b1565b905092915050565b610312816101ee565b82525050565b5f60208201905061032b5f830184610309565b92915050565b7f4e487b71000000000000000000000000000000000000000000000000000000005f52602260045260245ffd5b5f600282049050600182168061037557607f821691505b60208210810361038857610387610331565b5b50919050565b5f81905092915050565b5f819050815f5260205f209050919050565b5f81546103b68161035e565b6103c0818661038e565b9450600182165f81146103da57600181146103ef57610421565b60ff1983168652811515820286019350610421565b6103f885610398565b5f5b83811015610419578154818901526001820191506020810190506103fa565b838801955050505b50505092915050565b5f61043582846103aa565b915081905092915050565b5f7fff0000000000000000000000000000000000000000000000000000000000000082169050919050565b5f819050919050565b61048561048082610440565b61046b565b82525050565b5f8160601b9050919050565b5f6104a18261048b565b9050919050565b5f6104b282610497565b9050919050565b6104ca6104c5826101b3565b6104a8565b82525050565b5f819050919050565b6104ea6104e5826101ee565b6104d0565b82525050565b5f6104fb8287610474565b60018201915061050b82866104b9565b60148201915061051b82856104d9565b60208201915061052b82846104d9565b6020820191508190509594505050505056fea264697066735822122056f569b9504221e1c66e8126fbb897032d22412a2462b964fd48815ef61a96b764736f6c6343000815003360806040525f805f6101000a81548160ff021916908315150217905550348015610027575f80fd5b5066038d7ea4c6800047106100505760015f806101000a81548160ff0219169083151502179055505b60f18061005c5f395ff3fe6080604052348015600e575f80fd5b50600436106030575f3560e01c80634c0f7987146034578063ac51c67d14604e575b5f80fd5b603a6068565b6040516045919060a4565b60405180910390f35b6054607c565b604051605f919060a4565b60405180910390f35b5f805f9054906101000a900460ff16905090565b5f8054906101000a900460ff1681565b5f8115159050919050565b609e81608c565b82525050565b5f60208201905060b55f8301846097565b9291505056fea26469706673582212200259156a9f5842f0743c0b146c2ba3571e6524b62428346437df5c22e9393ed664736f6c63430008150033",
					"opcodes": "PUSH1 0x80 PUSH1 0x40 MSTORE PUSH1 0x40 MLOAD DUP1 PUSH1 0x20 ADD PUSH3 0x16 SWAP1 PUSH3 0x5B JUMP JUMPDEST PUSH1 0x20 DUP3 ADD DUP2 SUB DUP3 MSTORE PUSH1 0x1F NOT PUSH1 0x1F DUP3 ADD AND PUSH1 0x40 MSTORE POP PUSH0 SWAP1 DUP2 PUSH3 0x39 SWAP2 SWAP1 PUSH3 0x2CD JUMP JUMPDEST POP PUSH0 PUSH1 0x40 MLOAD PUSH3 0x4A SWAP2 SWAP1 PUSH3 0x447 JUMP JUMPDEST PUSH1 0x40 MLOAD DUP1 SWAP2 SUB SWAP1 KECCAK256 PUSH1 0x1 SSTORE PUSH3 0x45F JUMP JUMPDEST PUSH2 0x14D DUP1 PUSH3 0x9E0 DUP4 CODECOPY ADD SWAP1 JUMP JUMPDEST PUSH0 DUP2 MLOAD SWAP1 POP SWAP2 SWAP1 POP JUMP JUMPDEST PUSH32 0x4E487B7100000000000000000000000000000000000000000000000000000000 PUSH0 MSTORE PUSH1 0x41 PUSH1 0x4 MSTORE PUSH1 0x24 PUSH0 REVERT JUMPDEST PUSH32 0x4E487B7100000000000000000000000000000000000000000000000000000000 PUSH0 MSTORE PUSH1 0x22 PUSH1 0x4 MSTORE PUSH1 0x24 PUSH0 REVERT JUMPDEST PUSH0 PUSH1 0x2 DUP3 DIV SWAP1 POP PUSH1 0x1 DUP3 AND DUP1 PUSH3 0xE5 JUMPI PUSH1 0x7F DUP3 AND SWAP2 POP JUMPDEST PUSH1 0x20 DUP3 LT DUP2 SUB PUSH3 0xFB JUMPI PUSH3 0xFA PUSH3 0xA0 JUMP JUMPDEST JUMPDEST POP SWAP2 SWAP1 POP JUMP JUMPDEST PUSH0 DUP2 SWAP1 POP DUP2 PUSH0 MSTORE PUSH1 0x20 PUSH0 KECCAK256 SWAP1 POP SWAP2 SWAP1 POP JUMP JUMPDEST PUSH0 PUSH1 0x20 PUSH1 0x1F DUP4 ADD DIV SWAP1 POP SWAP2 SWAP1 POP JUMP JUMPDEST PUSH0 DUP3 DUP3 SHL SWAP1 POP SWAP3 SWAP2 POP POP JUMP JUMPDEST PUSH0 PUSH1 0x8 DUP4 MUL PUSH3 0x15F PUSH32 0xFFFFFFFFFFFFFFFFFFFFFFFFFFFFFFFFFFFFFFFFFFFFFFFFFFFFFFFFFFFFFFFF DUP3 PUSH3 0x122 JUMP JUMPDEST PUSH3 0x16B DUP7 DUP4 PUSH3 0x122 JUMP JUMPDEST SWAP6 POP DUP1 NOT DUP5 AND SWAP4 POP DUP1 DUP7 AND DUP5 OR SWAP3 POP POP POP SWAP4 SWAP3 POP POP POP JUMP JUMPDEST PUSH0 DUP2 SWAP1 POP SWAP2 SWAP1 POP JUMP JUMPDEST PUSH0 DUP2 SWAP1 POP SWAP2 SWAP1 POP JUMP JUMPDEST PUSH0 PUSH3 0x1B5 PUSH3 0x1AF PUSH3 0x1A9 DUP5 PUSH3 0x183 JUMP JUMPDEST PUSH3 0x18C JUMP JUMPDEST PUSH3 0x183 JUMP JUMPDEST SWAP1 POP SWAP2 SWAP1 POP JUMP JUMPDEST PUSH0 DUP2 SWAP1 POP SWAP2 SWAP1 POP JUMP JUMPDEST PUSH3 0x1D0 DUP4 PUSH3 0x195 JUMP JUMPDEST PUSH3 0x1E8 PUSH3 0x1DF DUP3 PUSH3 0x1BC JUMP JUMPDEST DUP5 DUP5 SLOAD PUSH3 0x12E JUMP JUMPDEST DUP3 SSTORE POP POP POP POP JUMP JUMPDEST PUSH0 SWAP1 JUMP JUMPDEST PUSH3 0x1FE PUSH3 0x1F0 JUMP JUMPDEST PUSH3 0x20B DUP2 DUP5 DUP5 PUSH3 0x1C5 JUMP JUMPDEST POP POP POP JUMP JUMPDEST JUMPDEST DUP2 DUP2 LT ISZERO PUSH3 0x232 JUMPI PUSH3 0x226 PUSH0 DUP3 PUSH3 0x1F4 JUMP JUMPDEST PUSH1 0x1 DUP2 ADD SWAP1 POP PUSH3 0x211 JUMP JUMPDEST POP POP JUMP JUMPDEST PUSH1 0x1F DUP3 GT ISZERO PUSH3 0x281 JUMPI PUSH3 0x24B DUP2 PUSH3 0x101 JUMP JUMPDEST PUSH3 0x256 DUP5 PUSH3 0x113 JUMP JUMPDEST DUP2 ADD PUSH1 0x20 DUP6 LT ISZERO PUSH3 0x266 JUMPI DUP2 SWAP1 POP JUMPDEST PUSH3 0x27E PUSH3 0x275 DUP6 PUSH3 0x113 JUMP JUMPDEST DUP4 ADD DUP3 PUSH3 0x210 JUMP JUMPDEST POP POP JUMPDEST POP POP POP JUMP JUMPDEST PUSH0 DUP3 DUP3 SHR SWAP1 POP SWAP3 SWAP2 POP POP JUMP JUMPDEST PUSH0 PUSH3 0x2A3 PUSH0 NOT DUP5 PUSH1 0x8 MUL PUSH3 0x286 JUMP JUMPDEST NOT DUP1 DUP4 AND SWAP2 POP POP SWAP3 SWAP2 POP POP JUMP JUMPDEST PUSH0 PUSH3 0x2BD DUP4 DUP4 PUSH3 0x292 JUMP JUMPDEST SWAP2 POP DUP3 PUSH1 0x2 MUL DUP3 OR SWAP1 POP SWAP3 SWAP2 POP POP JUMP JUMPDEST PUSH3 0x2D8 DUP3 PUSH3 0x69 JUMP JUMPDEST PUSH8 0xFFFFFFFFFFFFFFFF DUP2 GT ISZERO PUSH3 0x2F4 JUMPI PUSH3 0x2F3 PUSH3 0x73 JUMP JUMPDEST JUMPDEST PUSH3 0x300 DUP3 SLOAD PUSH3 0xCD JUMP JUMPDEST PUSH3 0x30D DUP3 DUP3 DUP6 PUSH3 0x236 JUMP JUMPDEST PUSH0 PUSH1 0x20 SWAP1 POP PUSH1 0x1F DUP4 GT PUSH1 0x1 DUP2 EQ PUSH3 0x343 JUMPI PUSH0 DUP5 ISZERO PUSH3 0x32E JUMPI DUP3 DUP8 ADD MLOAD SWAP1 POP JUMPDEST PUSH3 0x33A DUP6 DUP3 PUSH3 0x2B0 JUMP JUMPDEST DUP7 SSTORE POP PUSH3 0x3A9 JUMP JUMPDEST PUSH1 0x1F NOT DUP5 AND PUSH3 0x353 DUP7 PUSH3 0x101 JUMP JUMPDEST PUSH0 JUMPDEST DUP3 DUP2 LT ISZERO PUSH3 0x37C JUMPI DUP5 DUP10 ADD MLOAD DUP3 SSTORE PUSH1 0x1 DUP3 ADD SWAP2 POP PUSH1 0x20 DUP6 ADD SWAP5 POP PUSH1 0x20 DUP2 ADD SWAP1 POP PUSH3 0x355 JUMP JUMPDEST DUP7 DUP4 LT ISZERO PUSH3 0x39C JUMPI DUP5 DUP10 ADD MLOAD PUSH3 0x398 PUSH1 0x1F DUP10 AND DUP3 PUSH3 0x292 JUMP JUMPDEST DUP4 SSTORE POP JUMPDEST PUSH1 0x1 PUSH1 0x2 DUP9 MUL ADD DUP9 SSTORE POP POP POP JUMPDEST POP POP POP POP POP POP JUMP JUMPDEST PUSH0 DUP2 SWAP1 POP SWAP3 SWAP2 POP POP JUMP JUMPDEST PUSH0 DUP2 SLOAD PUSH3 0x3C9 DUP2 PUSH3 0xCD JUMP JUMPDEST PUSH3 0x3D5 DUP2 DUP7 PUSH3 0x3B1 JUMP JUMPDEST SWAP5 POP PUSH1 0x1 DUP3 AND PUSH0 DUP2 EQ PUSH3 0x3F2 JUMPI PUSH1 0x1 DUP2 EQ PUSH3 0x408 JUMPI PUSH3 0x43E JUMP JUMPDEST PUSH1 0xFF NOT DUP4 AND DUP7 MSTORE DUP2 ISZERO ISZERO DUP3 MUL DUP7 ADD SWAP4 POP PUSH3 0x43E JUMP JUMPDEST PUSH3 0x413 DUP6 PUSH3 0x101 JUMP JUMPDEST PUSH0 JUMPDEST DUP4 DUP2 LT ISZERO PUSH3 0x436 JUMPI DUP2 SLOAD DUP2 DUP10 ADD MSTORE PUSH1 0x1 DUP3 ADD SWAP2 POP PUSH1 0x20 DUP2 ADD SWAP1 POP PUSH3 0x415 JUMP JUMPDEST DUP4 DUP9 ADD SWAP6 POP POP POP JUMPDEST POP POP POP SWAP3 SWAP2 POP POP JUMP JUMPDEST PUSH0 PUSH3 0x454 DUP3 DUP5 PUSH3 0x3BB JUMP JUMPDEST SWAP2 POP DUP2 SWAP1 POP SWAP3 SWAP2 POP POP JUMP JUMPDEST PUSH2 0x573 DUP1 PUSH3 0x46D PUSH0 CODECOPY PUSH0 RETURN INVALID PUSH1 0x80 PUSH1 0x40 MSTORE CALLVALUE DUP1 ISZERO PUSH2 0xF JUMPI PUSH0 DUP1 REVERT JUMPDEST POP PUSH1 0x4 CALLDATASIZE LT PUSH2 0x3F JUMPI PUSH0 CALLDATALOAD PUSH1 0xE0 SHR DUP1 PUSH4 0x8684D38 EQ PUSH2 0x43 JUMPI DUP1 PUSH4 0xCCCECB14 EQ PUSH2 0x5F JUMPI DUP1 PUSH4 0xE2179B8E EQ PUSH2 0x7D JUMPI JUMPDEST PUSH0 DUP1 REVERT JUMPDEST PUSH2 0x5D PUSH1 0x4 DUP1 CALLDATASIZE SUB DUP2 ADD SWAP1 PUSH2 0x58 SWAP2 SWAP1 PUSH2 0x221 JUMP JUMPDEST PUSH2 0x9B JUMP JUMPDEST STOP JUMPDEST PUSH2 0x67 PUSH2 0xFF JUMP JUMPDEST PUSH1 0x40 MLOAD PUSH2 0x74 SWAP2 SWAP1 PUSH2 0x2E9 JUMP JUMPDEST PUSH1 0x40 MLOAD DUP1 SWAP2 SUB SWAP1 RETURN JUMPDEST PUSH2 0x85 PUSH2 0x18A JUMP JUMPDEST PUSH1 0x40 MLOAD PUSH2 0x92 SWAP2 SWAP1 PUSH2 0x318 JUMP JUMPDEST PUSH1 0x40 MLOAD DUP1 SWAP2 SUB SWAP1 RETURN JUMPDEST PUSH0 PUSH1 0xFF PUSH1 0xF8 SHL DUP4 DUP4 PUSH0 PUSH1 0x40 MLOAD PUSH2 0xB1 SWAP2 SWAP1 PUSH2 0x42A JUMP JUMPDEST PUSH1 0x40 MLOAD DUP1 SWAP2 SUB SWAP1 KECCAK256 PUSH1 0x40 MLOAD PUSH1 0x20 ADD PUSH2 0xCC SWAP5 SWAP4 SWAP3 SWAP2 SWAP1 PUSH2 0x4F0 JUMP JUMPDEST PUSH1 0x40 MLOAD PUSH1 0x20 DUP2 DUP4 SUB SUB DUP2 MSTORE SWAP1 PUSH1 0x40 MSTORE DUP1 MLOAD SWAP1 PUSH1 0x20 ADD KECCAK256 PUSH0 SHR SWAP1 POP DUP1 PUSH20 0xFFFFFFFFFFFFFFFFFFFFFFFFFFFFFFFFFFFFFFFF AND SELFDESTRUCT JUMPDEST PUSH0 DUP1 SLOAD PUSH2 0x10B SWAP1 PUSH2 0x35E JUMP JUMPDEST DUP1 PUSH1 0x1F ADD PUSH1 0x20 DUP1 SWAP2 DIV MUL PUSH1 0x20 ADD PUSH1 0x40 MLOAD SWAP1 DUP2 ADD PUSH1 0x40 MSTORE DUP1 SWAP3 SWAP2 SWAP1 DUP2 DUP2 MSTORE PUSH1 0x20 ADD DUP3 DUP1 SLOAD PUSH2 0x137 SWAP1 PUSH2 0x35E JUMP JUMPDEST DUP1 ISZERO PUSH2 0x182 JUMPI DUP1 PUSH1 0x1F LT PUSH2 0x159 JUMPI PUSH2 0x100 DUP1 DUP4 SLOAD DIV MUL DUP4 MSTORE SWAP2 PUSH1 0x20 ADD SWAP2 PUSH2 0x182 JUMP JUMPDEST DUP3 ADD SWAP2 SWAP1 PUSH0 MSTORE PUSH1 0x20 PUSH0 KECCAK256 SWAP1 JUMPDEST DUP2 SLOAD DUP2 MSTORE SWAP1 PUSH1 0x1 ADD SWAP1 PUSH1 0x20 ADD DUP1 DUP4 GT PUSH2 0x165 JUMPI DUP3 SWAP1 SUB PUSH1 0x1F AND DUP3 ADD SWAP2 JUMPDEST POP POP POP POP POP DUP2 JUMP JUMPDEST PUSH1 0x1 SLOAD DUP2 JUMP JUMPDEST PUSH0 DUP1 REVERT JUMPDEST PUSH0 PUSH20 0xFFFFFFFFFFFFFFFFFFFFFFFFFFFFFFFFFFFFFFFF DUP3 AND SWAP1 POP SWAP2 SWAP1 POP JUMP JUMPDEST PUSH0 PUSH2 0x1BD DUP3 PUSH2 0x194 JUMP JUMPDEST SWAP1 POP SWAP2 SWAP1 POP JUMP JUMPDEST PUSH2 0x1CD DUP2 PUSH2 0x1B3 JUMP JUMPDEST DUP2 EQ PUSH2 0x1D7 JUMPI PUSH0 DUP1 REVERT JUMPDEST POP JUMP JUMPDEST PUSH0 DUP2 CALLDATALOAD SWAP1 POP PUSH2 0x1E8 DUP2 PUSH2 0x1C4 JUMP JUMPDEST SWAP3 SWAP2 POP POP JUMP JUMPDEST PUSH0 DUP2 SWAP1 POP SWAP2 SWAP1 POP JUMP JUMPDEST PUSH2 0x200 DUP2 PUSH2 0x1EE JUMP JUMPDEST DUP2 EQ PUSH2 0x20A JUMPI PUSH0 DUP1 REVERT JUMPDEST POP JUMP JUMPDEST PUSH0 DUP2 CALLDATALOAD SWAP1 POP PUSH2 0x21B DUP2 PUSH2 0x1F7 JUMP JUMPDEST SWAP3 SWAP2 POP POP JUMP JUMPDEST PUSH0 DUP1 PUSH1 0x40 DUP4 DUP6 SUB SLT ISZERO PUSH2 0x237 JUMPI PUSH2 0x236 PUSH2 0x190 JUMP JUMPDEST JUMPDEST PUSH0 PUSH2 0x244 DUP6 DUP3 DUP7 ADD PUSH2 0x1DA JUMP JUMPDEST SWAP3 POP POP PUSH1 0x20 PUSH2 0x255 DUP6 DUP3 DUP7 ADD PUSH2 0x20D JUMP JUMPDEST SWAP2 POP POP SWAP3 POP SWAP3 SWAP1 POP JUMP JUMPDEST PUSH0 DUP2 MLOAD SWAP1 POP SWAP2 SWAP1 POP JUMP JUMPDEST PUSH0 DUP3 DUP3 MSTORE PUSH1 0x20 DUP3 ADD SWAP1 POP SWAP3 SWAP2 POP POP JUMP JUMPDEST PUSH0 JUMPDEST DUP4 DUP2 LT ISZERO PUSH2 0x296 JUMPI DUP1 DUP3 ADD MLOAD DUP2 DUP5 ADD MSTORE PUSH1 0x20 DUP2 ADD SWAP1 POP PUSH2 0x27B JUMP JUMPDEST PUSH0 DUP5 DUP5 ADD MSTORE POP POP POP POP JUMP JUMPDEST PUSH0 PUSH1 0x1F NOT PUSH1 0x1F DUP4 ADD AND SWAP1 POP SWAP2 SWAP1 POP JUMP JUMPDEST PUSH0 PUSH2 0x2BB DUP3 PUSH2 0x25F JUMP JUMPDEST PUSH2 0x2C5 DUP2 DUP6 PUSH2 0x269 JUMP JUMPDEST SWAP4 POP PUSH2 0x2D5 DUP2 DUP6 PUSH1 0x20 DUP7 ADD PUSH2 0x279 JUMP JUMPDEST PUSH2 0x2DE DUP2 PUSH2 0x2A1 JUMP JUMPDEST DUP5 ADD SWAP2 POP POP SWAP3 SWAP2 POP POP JUMP JUMPDEST PUSH0 PUSH1 0x20 DUP3 ADD SWAP1 POP DUP2 DUP2 SUB PUSH0 DUP4 ADD MSTORE PUSH2 0x301 DUP2 DUP5 PUSH2 0x2B1 JUMP JUMPDEST SWAP1 POP SWAP3 SWAP2 POP POP JUMP JUMPDEST PUSH2 0x312 DUP2 PUSH2 0x1EE JUMP JUMPDEST DUP3 MSTORE POP POP JUMP JUMPDEST PUSH0 PUSH1 0x20 DUP3 ADD SWAP1 POP PUSH2 0x32B PUSH0 DUP4 ADD DUP5 PUSH2 0x309 JUMP JUMPDEST SWAP3 SWAP2 POP POP JUMP JUMPDEST PUSH32 0x4E487B7100000000000000000000000000000000000000000000000000000000 PUSH0 MSTORE PUSH1 0x22 PUSH1 0x4 MSTORE PUSH1 0x24 PUSH0 REVERT JUMPDEST PUSH0 PUSH1 0x2 DUP3 DIV SWAP1 POP PUSH1 0x1 DUP3 AND DUP1 PUSH2 0x375 JUMPI PUSH1 0x7F DUP3 AND SWAP2 POP JUMPDEST PUSH1 0x20 DUP3 LT DUP2 SUB PUSH2 0x388 JUMPI PUSH2 0x387 PUSH2 0x331 JUMP JUMPDEST JUMPDEST POP SWAP2 SWAP1 POP JUMP JUMPDEST PUSH0 DUP2 SWAP1 POP SWAP3 SWAP2 POP POP JUMP JUMPDEST PUSH0 DUP2 SWAP1 POP DUP2 PUSH0 MSTORE PUSH1 0x20 PUSH0 KECCAK256 SWAP1 POP SWAP2 SWAP1 POP JUMP JUMPDEST PUSH0 DUP2 SLOAD PUSH2 0x3B6 DUP2 PUSH2 0x35E JUMP JUMPDEST PUSH2 0x3C0 DUP2 DUP7 PUSH2 0x38E JUMP JUMPDEST SWAP5 POP PUSH1 0x1 DUP3 AND PUSH0 DUP2 EQ PUSH2 0x3DA JUMPI PUSH1 0x1 DUP2 EQ PUSH2 0x3EF JUMPI PUSH2 0x421 JUMP JUMPDEST PUSH1 0xFF NOT DUP4 AND DUP7 MSTORE DUP2 ISZERO ISZERO DUP3 MUL DUP7 ADD SWAP4 POP PUSH2 0x421 JUMP JUMPDEST PUSH2 0x3F8 DUP6 PUSH2 0x398 JUMP JUMPDEST PUSH0 JUMPDEST DUP4 DUP2 LT ISZERO PUSH2 0x419 JUMPI DUP2 SLOAD DUP2 DUP10 ADD MSTORE PUSH1 0x1 DUP3 ADD SWAP2 POP PUSH1 0x20 DUP2 ADD SWAP1 POP PUSH2 0x3FA JUMP JUMPDEST DUP4 DUP9 ADD SWAP6 POP POP POP JUMPDEST POP POP POP SWAP3 SWAP2 POP POP JUMP JUMPDEST PUSH0 PUSH2 0x435 DUP3 DUP5 PUSH2 0x3AA JUMP JUMPDEST SWAP2 POP DUP2 SWAP1 POP SWAP3 SWAP2 POP POP JUMP JUMPDEST PUSH0 PUSH32 0xFF00000000000000000000000000000000000000000000000000000000000000 DUP3 AND SWAP1 POP SWAP2 SWAP1 POP JUMP JUMPDEST PUSH0 DUP2 SWAP1 POP SWAP2 SWAP1 POP JUMP JUMPDEST PUSH2 0x485 PUSH2 0x480 DUP3 PUSH2 0x440 JUMP JUMPDEST PUSH2 0x46B JUMP JUMPDEST DUP3 MSTORE POP POP JUMP JUMPDEST PUSH0 DUP2 PUSH1 0x60 SHL SWAP1 POP SWAP2 SWAP1 POP JUMP JUMPDEST PUSH0 PUSH2 0x4A1 DUP3 PUSH2 0x48B JUMP JUMPDEST SWAP1 POP SWAP2 SWAP1 POP JUMP JUMPDEST PUSH0 PUSH2 0x4B2 DUP3 PUSH2 0x497 JUMP JUMPDEST SWAP1 POP SWAP2 SWAP1 POP JUMP JUMPDEST PUSH2 0x4CA PUSH2 0x4C5 DUP3 PUSH2 0x1B3 JUMP JUMPDEST PUSH2 0x4A8 JUMP JUMPDEST DUP3 MSTORE POP POP JUMP JUMPDEST PUSH0 DUP2 SWAP1 POP SWAP2 SWAP1 POP JUMP JUMPDEST PUSH2 0x4EA PUSH2 0x4E5 DUP3 PUSH2 0x1EE JUMP JUMPDEST PUSH2 0x4D0 JUMP JUMPDEST DUP3 MSTORE POP POP JUMP JUMPDEST PUSH0 PUSH2 0x4FB DUP3 DUP8 PUSH2 0x474 JUMP JUMPDEST PUSH1 0x1 DUP3 ADD SWAP2 POP PUSH2 0x50B DUP3 DUP7 PUSH2 0x4B9 JUMP JUMPDEST PUSH1 0x14 DUP3 ADD SWAP2 POP PUSH2 0x51B DUP3 DUP6 PUSH2 0x4D9 JUMP JUMPDEST PUSH1 0x20 DUP3 ADD SWAP2 POP PUSH2 0x52B DUP3 DUP5 PUSH2 0x4D9 JUMP JUMPDEST PUSH1 0x20 DUP3 ADD SWAP2 POP DUP2 SWAP1 POP SWAP6 SWAP5 POP POP POP POP POP JUMP INVALID LOG2 PUSH5 0x6970667358 0x22 SLT KECCAK256 JUMP CREATE2 PUSH10 0xB9504221E1C66E8126FB 0xB8 SWAP8 SUB 0x2D 0x22 COINBASE 0x2A 0x24 PUSH3 0xB964FD BASEFEE DUP2 0x5E 0xF6 BYTE SWAP7 0xB7 PUSH5 0x736F6C6343 STOP ADDMOD ISZERO STOP CALLER PUSH1 0x80 PUSH1 0x40 MSTORE PUSH0 DUP1 PUSH0 PUSH2 0x100 EXP DUP2 SLOAD DUP2 PUSH1 0xFF MUL NOT AND SWAP1 DUP4 ISZERO ISZERO MUL OR SWAP1 SSTORE POP CALLVALUE DUP1 ISZERO PUSH2 0x27 JUMPI PUSH0 DUP1 REVERT JUMPDEST POP PUSH7 0x38D7EA4C68000 SELFBALANCE LT PUSH2 0x50 JUMPI PUSH1 0x1 PUSH0 DUP1 PUSH2 0x100 EXP DUP2 SLOAD DUP2 PUSH1 0xFF MUL NOT AND SWAP1 DUP4 ISZERO ISZERO MUL OR SWAP1 SSTORE POP JUMPDEST PUSH1 0xF1 DUP1 PUSH2 0x5C PUSH0 CODECOPY PUSH0 RETURN INVALID PUSH1 0x80 PUSH1 0x40 MSTORE CALLVALUE DUP1 ISZERO PUSH1 0xE JUMPI PUSH0 DUP1 REVERT JUMPDEST POP PUSH1 0x4 CALLDATASIZE LT PUSH1 0x30 JUMPI PUSH0 CALLDATALOAD PUSH1 0xE0 SHR DUP1 PUSH4 0x4C0F7987 EQ PUSH1 0x34 JUMPI DUP1 PUSH4 0xAC51C67D EQ PUSH1 0x4E JUMPI JUMPDEST PUSH0 DUP1 REVERT JUMPDEST PUSH1 0x3A PUSH1 0x68 JUMP JUMPDEST PUSH1 0x40 MLOAD PUSH1 0x45 SWAP2 SWAP1 PUSH1 0xA4 JUMP JUMPDEST PUSH1 0x40 MLOAD DUP1 SWAP2 SUB SWAP1 RETURN JUMPDEST PUSH1 0x54 PUSH1 0x7C JUMP JUMPDEST PUSH1 0x40 MLOAD PUSH1 0x5F SWAP2 SWAP1 PUSH1 0xA4 JUMP JUMPDEST PUSH1 0x40 MLOAD DUP1 SWAP2 SUB SWAP1 RETURN JUMPDEST PUSH0 DUP1 PUSH0 SWAP1 SLOAD SWAP1 PUSH2 0x100 EXP SWAP1 DIV PUSH1 0xFF AND SWAP1 POP SWAP1 JUMP JUMPDEST PUSH0 DUP1 SLOAD SWAP1 PUSH2 0x100 EXP SWAP1 DIV PUSH1 0xFF AND DUP2 JUMP JUMPDEST PUSH0 DUP2 ISZERO ISZERO SWAP1 POP SWAP2 SWAP1 POP JUMP JUMPDEST PUSH1 0x9E DUP2 PUSH1 0x8C JUMP JUMPDEST DUP3 MSTORE POP POP JUMP JUMPDEST PUSH0 PUSH1 0x20 DUP3 ADD SWAP1 POP PUSH1 0xB5 PUSH0 DUP4 ADD DUP5 PUSH1 0x97 JUMP JUMPDEST SWAP3 SWAP2 POP POP JUMP INVALID LOG2 PUSH5 0x6970667358 0x22 SLT KECCAK256 MUL MSIZE ISZERO PUSH11 0x9F5842F0743C0B146C2BA3 JUMPI 0x1E PUSH6 0x24B624283464 CALLDATACOPY 0xDF 0x5C 0x22 0xE9 CODECOPY RETURNDATACOPY 0xD6 PUSH5 0x736F6C6343 STOP ADDMOD ISZERO STOP CALLER "
				},
				"gasEstimates": {
					"creation": {
						"codeDepositCost": "279000",
						"executionCost": "infinite",
						"totalCost": "infinite"
					},
					"external": {
						"creatcode1()": "infinite",
						"g()": "2447",
						"getaddress(address,bytes32)": "infinite"
					}
				},
				"methodIdentifiers": {
					"creatcode1()": "cccecb14",
					"g()": "e2179b8e",
					"getaddress(address,bytes32)": "08684d38"
				}
			},
			"storageLayout": {
				"storage": [
					{
						"astId": 96,
						"contract": "shoot/2/create_create计算/1.sol:getnewcontract",
						"label": "creatcode1",
						"offset": 0,
						"slot": "0",
						"type": "t_bytes_storage"
					},
					{
						"astId": 101,
						"contract": "shoot/2/create_create计算/1.sol:getnewcontract",
						"label": "g",
						"offset": 0,
						"slot": "1",
						"type": "t_bytes32"
					}
				],
				"types": {
					"t_bytes32": {
						"encoding": "inplace",
						"label": "bytes32",
						"numberOfBytes": "32"
					},
					"t_bytes_storage": {
						"encoding": "bytes",
						"label": "bytes",
						"numberOfBytes": "32"
					}
				}
			},
			"userdoc": {
				"kind": "user",
				"methods": {},
				"version": 1
			}
		}
	}
}