{
	"shoot/2/create_create计算/1.sol": {
		"att": {
			"abi": [
				{
					"inputs": [
						{
							"internalType": "contract check",
							"name": "addr",
							"type": "address"
						}
					],
					"stateMutability": "nonpayable",
					"type": "constructor"
				},
				{
					"inputs": [
						{
							"internalType": "bytes32",
							"name": "salt",
							"type": "bytes32"
						}
					],
					"name": "attract",
					"outputs": [],
					"stateMutability": "payable",
					"type": "function"
				},
				{
					"inputs": [],
					"name": "creatcode1",
					"outputs": [
						{
							"internalType": "bytes",
							"name": "",
							"type": "bytes"
						}
					],
					"stateMutability": "view",
					"type": "function"
				},
				{
					"inputs": [],
					"name": "creatcode2",
					"outputs": [
						{
							"internalType": "bytes32",
							"name": "",
							"type": "bytes32"
						}
					],
					"stateMutability": "view",
					"type": "function"
				},
				{
					"inputs": [],
					"name": "g",
					"outputs": [
						{
							"internalType": "bytes32",
							"name": "",
							"type": "bytes32"
						}
					],
					"stateMutability": "view",
					"type": "function"
				},
				{
					"inputs": [
						{
							"internalType": "address",
							"name": "target",
							"type": "address"
						},
						{
							"internalType": "bytes32",
							"name": "salt",
							"type": "bytes32"
						}
					],
					"name": "getaddress",
					"outputs": [
						{
							"internalType": "address",
							"name": "a",
							"type": "address"
						}
					],
					"stateMutability": "nonpayable",
					"type": "function"
				}
			],
			"devdoc": {
				"kind": "dev",
				"methods": {},
				"version": 1
			},
			"evm": {
				"assembly": "    /* \"shoot/2/create_create\\xe8\\xae\\xa1\\xe7\\xae\\x97/1.sol\":1359:2185  contract att{... */\n  mstore(0x40, 0x80)\n    /* \"shoot/2/create_create\\xe8\\xae\\xa1\\xe7\\xae\\x97/1.sol\":1480:1504  type(found).creationCode */\n  mload(0x40)\n  dup1\n  0x20\n  add\n  tag_1\n  swap1\n  tag_2\n  jump\t// in\ntag_1:\n  0x20\n  dup3\n  add\n  dup2\n  sub\n  dup3\n  mstore\n  not(0x1f)\n  0x1f\n  dup3\n  add\n  and\n  0x40\n  mstore\n  pop\n    /* \"shoot/2/create_create\\xe8\\xae\\xa1\\xe7\\xae\\x97/1.sol\":1453:1504  bytes public  creatcode1 = type(found).creationCode */\n  0x01\n  swap1\n  dup2\n  tag_3\n  swap2\n  swap1\n  tag_4\n  jump\t// in\ntag_3:\n  pop\n    /* \"shoot/2/create_create\\xe8\\xae\\xa1\\xe7\\xae\\x97/1.sol\":1540:1550  creatcode1 */\n  0x01\n    /* \"shoot/2/create_create\\xe8\\xae\\xa1\\xe7\\xae\\x97/1.sol\":1530:1551  keccak256(creatcode1) */\n  mload(0x40)\n  tag_5\n  swap2\n  swap1\n  tag_6\n  jump\t// in\ntag_5:\n  mload(0x40)\n  dup1\n  swap2\n  sub\n  swap1\n  keccak256\n    /* \"shoot/2/create_create\\xe8\\xae\\xa1\\xe7\\xae\\x97/1.sol\":1511:1551  bytes32 public g = keccak256(creatcode1) */\n  0x02\n  sstore\n    /* \"shoot/2/create_create\\xe8\\xae\\xa1\\xe7\\xae\\x97/1.sol\":1394:1447  constructor(check addr) {... */\n  callvalue\n  dup1\n  iszero\n  tag_7\n  jumpi\n  0x00\n  dup1\n  revert\ntag_7:\n  pop\n  mload(0x40)\n  sub(codesize, bytecodeSize)\n  dup1\n  bytecodeSize\n  dup4\n  codecopy\n  dup2\n  dup2\n  add\n  0x40\n  mstore\n  dup2\n  add\n  swap1\n  tag_8\n  swap2\n  swap1\n  tag_9\n  jump\t// in\ntag_8:\n    /* \"shoot/2/create_create\\xe8\\xae\\xa1\\xe7\\xae\\x97/1.sol\":1435:1439  addr */\n  dup1\n    /* \"shoot/2/create_create\\xe8\\xae\\xa1\\xe7\\xae\\x97/1.sol\":1429:1432  che */\n  0x00\n  dup1\n    /* \"shoot/2/create_create\\xe8\\xae\\xa1\\xe7\\xae\\x97/1.sol\":1429:1439  che = addr */\n  0x0100\n  exp\n  dup2\n  sload\n  dup2\n  0xffffffffffffffffffffffffffffffffffffffff\n  mul\n  not\n  and\n  swap1\n  dup4\n  0xffffffffffffffffffffffffffffffffffffffff\n  and\n  mul\n  or\n  swap1\n  sstore\n  pop\n    /* \"shoot/2/create_create\\xe8\\xae\\xa1\\xe7\\xae\\x97/1.sol\":1394:1447  constructor(check addr) {... */\n  pop\n    /* \"shoot/2/create_create\\xe8\\xae\\xa1\\xe7\\xae\\x97/1.sol\":1359:2185  contract att{... */\n  jump(tag_12)\ntag_2:\n  dataSize(sub_1)\n  dup1\n  dataOffset(sub_1)\n  dup4\n  codecopy\n  add\n  swap1\n  jump\t// out\n    /* \"#utility.yul\":7:105   */\ntag_13:\n    /* \"#utility.yul\":58:64   */\n  0x00\n    /* \"#utility.yul\":92:97   */\n  dup2\n    /* \"#utility.yul\":86:98   */\n  mload\n    /* \"#utility.yul\":76:98   */\n  swap1\n  pop\n    /* \"#utility.yul\":7:105   */\n  swap2\n  swap1\n  pop\n  jump\t// out\n    /* \"#utility.yul\":111:291   */\ntag_14:\n    /* \"#utility.yul\":159:236   */\n  0x4e487b7100000000000000000000000000000000000000000000000000000000\n    /* \"#utility.yul\":156:157   */\n  0x00\n    /* \"#utility.yul\":149:237   */\n  mstore\n    /* \"#utility.yul\":256:260   */\n  0x41\n    /* \"#utility.yul\":253:254   */\n  0x04\n    /* \"#utility.yul\":246:261   */\n  mstore\n    /* \"#utility.yul\":280:284   */\n  0x24\n    /* \"#utility.yul\":277:278   */\n  0x00\n    /* \"#utility.yul\":270:285   */\n  revert\n    /* \"#utility.yul\":297:477   */\ntag_15:\n    /* \"#utility.yul\":345:422   */\n  0x4e487b7100000000000000000000000000000000000000000000000000000000\n    /* \"#utility.yul\":342:343   */\n  0x00\n    /* \"#utility.yul\":335:423   */\n  mstore\n    /* \"#utility.yul\":442:446   */\n  0x22\n    /* \"#utility.yul\":439:440   */\n  0x04\n    /* \"#utility.yul\":432:447   */\n  mstore\n    /* \"#utility.yul\":466:470   */\n  0x24\n    /* \"#utility.yul\":463:464   */\n  0x00\n    /* \"#utility.yul\":456:471   */\n  revert\n    /* \"#utility.yul\":483:803   */\ntag_16:\n    /* \"#utility.yul\":527:533   */\n  0x00\n    /* \"#utility.yul\":564:565   */\n  0x02\n    /* \"#utility.yul\":558:562   */\n  dup3\n    /* \"#utility.yul\":554:566   */\n  div\n    /* \"#utility.yul\":544:566   */\n  swap1\n  pop\n    /* \"#utility.yul\":611:612   */\n  0x01\n    /* \"#utility.yul\":605:609   */\n  dup3\n    /* \"#utility.yul\":601:613   */\n  and\n    /* \"#utility.yul\":632:650   */\n  dup1\n    /* \"#utility.yul\":622:703   */\n  tag_48\n  jumpi\n    /* \"#utility.yul\":688:692   */\n  0x7f\n    /* \"#utility.yul\":680:686   */\n  dup3\n    /* \"#utility.yul\":676:693   */\n  and\n    /* \"#utility.yul\":666:693   */\n  swap2\n  pop\n    /* \"#utility.yul\":622:703   */\ntag_48:\n    /* \"#utility.yul\":750:752   */\n  0x20\n    /* \"#utility.yul\":742:748   */\n  dup3\n    /* \"#utility.yul\":739:753   */\n  lt\n    /* \"#utility.yul\":719:737   */\n  dup2\n    /* \"#utility.yul\":716:754   */\n  sub\n    /* \"#utility.yul\":713:797   */\n  tag_49\n  jumpi\n    /* \"#utility.yul\":769:787   */\n  tag_50\n  tag_15\n  jump\t// in\ntag_50:\n    /* \"#utility.yul\":713:797   */\ntag_49:\n    /* \"#utility.yul\":534:803   */\n  pop\n    /* \"#utility.yul\":483:803   */\n  swap2\n  swap1\n  pop\n  jump\t// out\n    /* \"#utility.yul\":809:949   */\ntag_17:\n    /* \"#utility.yul\":857:861   */\n  0x00\n    /* \"#utility.yul\":880:883   */\n  dup2\n    /* \"#utility.yul\":872:883   */\n  swap1\n  pop\n    /* \"#utility.yul\":903:906   */\n  dup2\n    /* \"#utility.yul\":900:901   */\n  0x00\n    /* \"#utility.yul\":893:907   */\n  mstore\n    /* \"#utility.yul\":937:941   */\n  0x20\n    /* \"#utility.yul\":934:935   */\n  0x00\n    /* \"#utility.yul\":924:942   */\n  keccak256\n    /* \"#utility.yul\":916:942   */\n  swap1\n  pop\n    /* \"#utility.yul\":809:949   */\n  swap2\n  swap1\n  pop\n  jump\t// out\n    /* \"#utility.yul\":955:1048   */\ntag_18:\n    /* \"#utility.yul\":992:998   */\n  0x00\n    /* \"#utility.yul\":1039:1041   */\n  0x20\n    /* \"#utility.yul\":1034:1036   */\n  0x1f\n    /* \"#utility.yul\":1027:1032   */\n  dup4\n    /* \"#utility.yul\":1023:1037   */\n  add\n    /* \"#utility.yul\":1019:1042   */\n  div\n    /* \"#utility.yul\":1009:1042   */\n  swap1\n  pop\n    /* \"#utility.yul\":955:1048   */\n  swap2\n  swap1\n  pop\n  jump\t// out\n    /* \"#utility.yul\":1054:1161   */\ntag_19:\n    /* \"#utility.yul\":1098:1106   */\n  0x00\n    /* \"#utility.yul\":1148:1153   */\n  dup3\n    /* \"#utility.yul\":1142:1146   */\n  dup3\n    /* \"#utility.yul\":1138:1154   */\n  shl\n    /* \"#utility.yul\":1117:1154   */\n  swap1\n  pop\n    /* \"#utility.yul\":1054:1161   */\n  swap3\n  swap2\n  pop\n  pop\n  jump\t// out\n    /* \"#utility.yul\":1167:1560   */\ntag_20:\n    /* \"#utility.yul\":1236:1242   */\n  0x00\n    /* \"#utility.yul\":1286:1287   */\n  0x08\n    /* \"#utility.yul\":1274:1284   */\n  dup4\n    /* \"#utility.yul\":1270:1288   */\n  mul\n    /* \"#utility.yul\":1309:1406   */\n  tag_55\n    /* \"#utility.yul\":1339:1405   */\n  0xffffffffffffffffffffffffffffffffffffffffffffffffffffffffffffffff\n    /* \"#utility.yul\":1328:1337   */\n  dup3\n    /* \"#utility.yul\":1309:1406   */\n  tag_19\n  jump\t// in\ntag_55:\n    /* \"#utility.yul\":1427:1466   */\n  tag_56\n    /* \"#utility.yul\":1457:1465   */\n  dup7\n    /* \"#utility.yul\":1446:1455   */\n  dup4\n    /* \"#utility.yul\":1427:1466   */\n  tag_19\n  jump\t// in\ntag_56:\n    /* \"#utility.yul\":1415:1466   */\n  swap6\n  pop\n    /* \"#utility.yul\":1499:1503   */\n  dup1\n    /* \"#utility.yul\":1495:1504   */\n  not\n    /* \"#utility.yul\":1488:1493   */\n  dup5\n    /* \"#utility.yul\":1484:1505   */\n  and\n    /* \"#utility.yul\":1475:1505   */\n  swap4\n  pop\n    /* \"#utility.yul\":1548:1552   */\n  dup1\n    /* \"#utility.yul\":1538:1546   */\n  dup7\n    /* \"#utility.yul\":1534:1553   */\n  and\n    /* \"#utility.yul\":1527:1532   */\n  dup5\n    /* \"#utility.yul\":1524:1554   */\n  or\n    /* \"#utility.yul\":1514:1554   */\n  swap3\n  pop\n    /* \"#utility.yul\":1243:1560   */\n  pop\n  pop\n    /* \"#utility.yul\":1167:1560   */\n  swap4\n  swap3\n  pop\n  pop\n  pop\n  jump\t// out\n    /* \"#utility.yul\":1566:1643   */\ntag_21:\n    /* \"#utility.yul\":1603:1610   */\n  0x00\n    /* \"#utility.yul\":1632:1637   */\n  dup2\n    /* \"#utility.yul\":1621:1637   */\n  swap1\n  pop\n    /* \"#utility.yul\":1566:1643   */\n  swap2\n  swap1\n  pop\n  jump\t// out\n    /* \"#utility.yul\":1649:1709   */\ntag_22:\n    /* \"#utility.yul\":1677:1680   */\n  0x00\n    /* \"#utility.yul\":1698:1703   */\n  dup2\n    /* \"#utility.yul\":1691:1703   */\n  swap1\n  pop\n    /* \"#utility.yul\":1649:1709   */\n  swap2\n  swap1\n  pop\n  jump\t// out\n    /* \"#utility.yul\":1715:1857   */\ntag_23:\n    /* \"#utility.yul\":1765:1774   */\n  0x00\n    /* \"#utility.yul\":1798:1851   */\n  tag_60\n    /* \"#utility.yul\":1816:1850   */\n  tag_61\n    /* \"#utility.yul\":1825:1849   */\n  tag_62\n    /* \"#utility.yul\":1843:1848   */\n  dup5\n    /* \"#utility.yul\":1825:1849   */\n  tag_21\n  jump\t// in\ntag_62:\n    /* \"#utility.yul\":1816:1850   */\n  tag_22\n  jump\t// in\ntag_61:\n    /* \"#utility.yul\":1798:1851   */\n  tag_21\n  jump\t// in\ntag_60:\n    /* \"#utility.yul\":1785:1851   */\n  swap1\n  pop\n    /* \"#utility.yul\":1715:1857   */\n  swap2\n  swap1\n  pop\n  jump\t// out\n    /* \"#utility.yul\":1863:1938   */\ntag_24:\n    /* \"#utility.yul\":1906:1909   */\n  0x00\n    /* \"#utility.yul\":1927:1932   */\n  dup2\n    /* \"#utility.yul\":1920:1932   */\n  swap1\n  pop\n    /* \"#utility.yul\":1863:1938   */\n  swap2\n  swap1\n  pop\n  jump\t// out\n    /* \"#utility.yul\":1944:2213   */\ntag_25:\n    /* \"#utility.yul\":2054:2093   */\n  tag_65\n    /* \"#utility.yul\":2085:2092   */\n  dup4\n    /* \"#utility.yul\":2054:2093   */\n  tag_23\n  jump\t// in\ntag_65:\n    /* \"#utility.yul\":2115:2206   */\n  tag_66\n    /* \"#utility.yul\":2164:2205   */\n  tag_67\n    /* \"#utility.yul\":2188:2204   */\n  dup3\n    /* \"#utility.yul\":2164:2205   */\n  tag_24\n  jump\t// in\ntag_67:\n    /* \"#utility.yul\":2156:2162   */\n  dup5\n    /* \"#utility.yul\":2149:2153   */\n  dup5\n    /* \"#utility.yul\":2143:2154   */\n  sload\n    /* \"#utility.yul\":2115:2206   */\n  tag_20\n  jump\t// in\ntag_66:\n    /* \"#utility.yul\":2109:2113   */\n  dup3\n    /* \"#utility.yul\":2102:2207   */\n  sstore\n    /* \"#utility.yul\":2020:2213   */\n  pop\n    /* \"#utility.yul\":1944:2213   */\n  pop\n  pop\n  pop\n  jump\t// out\n    /* \"#utility.yul\":2219:2292   */\ntag_26:\n    /* \"#utility.yul\":2264:2267   */\n  0x00\n    /* \"#utility.yul\":2219:2292   */\n  swap1\n  jump\t// out\n    /* \"#utility.yul\":2298:2487   */\ntag_27:\n    /* \"#utility.yul\":2375:2407   */\n  tag_70\n  tag_26\n  jump\t// in\ntag_70:\n    /* \"#utility.yul\":2416:2481   */\n  tag_71\n    /* \"#utility.yul\":2474:2480   */\n  dup2\n    /* \"#utility.yul\":2466:2472   */\n  dup5\n    /* \"#utility.yul\":2460:2464   */\n  dup5\n    /* \"#utility.yul\":2416:2481   */\n  tag_25\n  jump\t// in\ntag_71:\n    /* \"#utility.yul\":2351:2487   */\n  pop\n    /* \"#utility.yul\":2298:2487   */\n  pop\n  pop\n  jump\t// out\n    /* \"#utility.yul\":2493:2679   */\ntag_28:\n    /* \"#utility.yul\":2553:2673   */\ntag_73:\n    /* \"#utility.yul\":2570:2573   */\n  dup2\n    /* \"#utility.yul\":2563:2568   */\n  dup2\n    /* \"#utility.yul\":2560:2574   */\n  lt\n    /* \"#utility.yul\":2553:2673   */\n  iszero\n  tag_75\n  jumpi\n    /* \"#utility.yul\":2624:2663   */\n  tag_76\n    /* \"#utility.yul\":2661:2662   */\n  0x00\n    /* \"#utility.yul\":2654:2659   */\n  dup3\n    /* \"#utility.yul\":2624:2663   */\n  tag_27\n  jump\t// in\ntag_76:\n    /* \"#utility.yul\":2597:2598   */\n  0x01\n    /* \"#utility.yul\":2590:2595   */\n  dup2\n    /* \"#utility.yul\":2586:2599   */\n  add\n    /* \"#utility.yul\":2577:2599   */\n  swap1\n  pop\n    /* \"#utility.yul\":2553:2673   */\n  jump(tag_73)\ntag_75:\n    /* \"#utility.yul\":2493:2679   */\n  pop\n  pop\n  jump\t// out\n    /* \"#utility.yul\":2685:3226   */\ntag_29:\n    /* \"#utility.yul\":2785:2787   */\n  0x1f\n    /* \"#utility.yul\":2780:2783   */\n  dup3\n    /* \"#utility.yul\":2777:2788   */\n  gt\n    /* \"#utility.yul\":2774:3219   */\n  iszero\n  tag_78\n  jumpi\n    /* \"#utility.yul\":2819:2856   */\n  tag_79\n    /* \"#utility.yul\":2850:2855   */\n  dup2\n    /* \"#utility.yul\":2819:2856   */\n  tag_17\n  jump\t// in\ntag_79:\n    /* \"#utility.yul\":2902:2931   */\n  tag_80\n    /* \"#utility.yul\":2920:2930   */\n  dup5\n    /* \"#utility.yul\":2902:2931   */\n  tag_18\n  jump\t// in\ntag_80:\n    /* \"#utility.yul\":2892:2900   */\n  dup2\n    /* \"#utility.yul\":2888:2932   */\n  add\n    /* \"#utility.yul\":3085:3087   */\n  0x20\n    /* \"#utility.yul\":3073:3083   */\n  dup6\n    /* \"#utility.yul\":3070:3088   */\n  lt\n    /* \"#utility.yul\":3067:3116   */\n  iszero\n  tag_81\n  jumpi\n    /* \"#utility.yul\":3106:3114   */\n  dup2\n    /* \"#utility.yul\":3091:3114   */\n  swap1\n  pop\n    /* \"#utility.yul\":3067:3116   */\ntag_81:\n    /* \"#utility.yul\":3129:3209   */\n  tag_82\n    /* \"#utility.yul\":3185:3207   */\n  tag_83\n    /* \"#utility.yul\":3203:3206   */\n  dup6\n    /* \"#utility.yul\":3185:3207   */\n  tag_18\n  jump\t// in\ntag_83:\n    /* \"#utility.yul\":3175:3183   */\n  dup4\n    /* \"#utility.yul\":3171:3208   */\n  add\n    /* \"#utility.yul\":3158:3169   */\n  dup3\n    /* \"#utility.yul\":3129:3209   */\n  tag_28\n  jump\t// in\ntag_82:\n    /* \"#utility.yul\":2789:3219   */\n  pop\n  pop\n    /* \"#utility.yul\":2774:3219   */\ntag_78:\n    /* \"#utility.yul\":2685:3226   */\n  pop\n  pop\n  pop\n  jump\t// out\n    /* \"#utility.yul\":3232:3349   */\ntag_30:\n    /* \"#utility.yul\":3286:3294   */\n  0x00\n    /* \"#utility.yul\":3336:3341   */\n  dup3\n    /* \"#utility.yul\":3330:3334   */\n  dup3\n    /* \"#utility.yul\":3326:3342   */\n  shr\n    /* \"#utility.yul\":3305:3342   */\n  swap1\n  pop\n    /* \"#utility.yul\":3232:3349   */\n  swap3\n  swap2\n  pop\n  pop\n  jump\t// out\n    /* \"#utility.yul\":3355:3524   */\ntag_31:\n    /* \"#utility.yul\":3399:3405   */\n  0x00\n    /* \"#utility.yul\":3432:3483   */\n  tag_86\n    /* \"#utility.yul\":3480:3481   */\n  0x00\n    /* \"#utility.yul\":3476:3482   */\n  not\n    /* \"#utility.yul\":3468:3473   */\n  dup5\n    /* \"#utility.yul\":3465:3466   */\n  0x08\n    /* \"#utility.yul\":3461:3474   */\n  mul\n    /* \"#utility.yul\":3432:3483   */\n  tag_30\n  jump\t// in\ntag_86:\n    /* \"#utility.yul\":3428:3484   */\n  not\n    /* \"#utility.yul\":3513:3517   */\n  dup1\n    /* \"#utility.yul\":3507:3511   */\n  dup4\n    /* \"#utility.yul\":3503:3518   */\n  and\n    /* \"#utility.yul\":3493:3518   */\n  swap2\n  pop\n    /* \"#utility.yul\":3406:3524   */\n  pop\n    /* \"#utility.yul\":3355:3524   */\n  swap3\n  swap2\n  pop\n  pop\n  jump\t// out\n    /* \"#utility.yul\":3529:3824   */\ntag_32:\n    /* \"#utility.yul\":3605:3609   */\n  0x00\n    /* \"#utility.yul\":3751:3780   */\n  tag_88\n    /* \"#utility.yul\":3776:3779   */\n  dup4\n    /* \"#utility.yul\":3770:3774   */\n  dup4\n    /* \"#utility.yul\":3751:3780   */\n  tag_31\n  jump\t// in\ntag_88:\n    /* \"#utility.yul\":3743:3780   */\n  swap2\n  pop\n    /* \"#utility.yul\":3813:3816   */\n  dup3\n    /* \"#utility.yul\":3810:3811   */\n  0x02\n    /* \"#utility.yul\":3806:3817   */\n  mul\n    /* \"#utility.yul\":3800:3804   */\n  dup3\n    /* \"#utility.yul\":3797:3818   */\n  or\n    /* \"#utility.yul\":3789:3818   */\n  swap1\n  pop\n    /* \"#utility.yul\":3529:3824   */\n  swap3\n  swap2\n  pop\n  pop\n  jump\t// out\n    /* \"#utility.yul\":3829:5219   */\ntag_4:\n    /* \"#utility.yul\":3944:3980   */\n  tag_90\n    /* \"#utility.yul\":3976:3979   */\n  dup3\n    /* \"#utility.yul\":3944:3980   */\n  tag_13\n  jump\t// in\ntag_90:\n    /* \"#utility.yul\":4045:4063   */\n  0xffffffffffffffff\n    /* \"#utility.yul\":4037:4043   */\n  dup2\n    /* \"#utility.yul\":4034:4064   */\n  gt\n    /* \"#utility.yul\":4031:4087   */\n  iszero\n  tag_91\n  jumpi\n    /* \"#utility.yul\":4067:4085   */\n  tag_92\n  tag_14\n  jump\t// in\ntag_92:\n    /* \"#utility.yul\":4031:4087   */\ntag_91:\n    /* \"#utility.yul\":4111:4149   */\n  tag_93\n    /* \"#utility.yul\":4143:4147   */\n  dup3\n    /* \"#utility.yul\":4137:4148   */\n  sload\n    /* \"#utility.yul\":4111:4149   */\n  tag_16\n  jump\t// in\ntag_93:\n    /* \"#utility.yul\":4196:4262   */\n  tag_94\n    /* \"#utility.yul\":4255:4261   */\n  dup3\n    /* \"#utility.yul\":4247:4253   */\n  dup3\n    /* \"#utility.yul\":4241:4245   */\n  dup6\n    /* \"#utility.yul\":4196:4262   */\n  tag_29\n  jump\t// in\ntag_94:\n    /* \"#utility.yul\":4289:4290   */\n  0x00\n    /* \"#utility.yul\":4313:4317   */\n  0x20\n    /* \"#utility.yul\":4300:4317   */\n  swap1\n  pop\n    /* \"#utility.yul\":4345:4347   */\n  0x1f\n    /* \"#utility.yul\":4337:4343   */\n  dup4\n    /* \"#utility.yul\":4334:4348   */\n  gt\n    /* \"#utility.yul\":4362:4363   */\n  0x01\n    /* \"#utility.yul\":4357:4974   */\n  dup2\n  eq\n  tag_96\n  jumpi\n    /* \"#utility.yul\":5018:5019   */\n  0x00\n    /* \"#utility.yul\":5035:5041   */\n  dup5\n    /* \"#utility.yul\":5032:5109   */\n  iszero\n  tag_97\n  jumpi\n    /* \"#utility.yul\":5084:5093   */\n  dup3\n    /* \"#utility.yul\":5079:5082   */\n  dup8\n    /* \"#utility.yul\":5075:5094   */\n  add\n    /* \"#utility.yul\":5069:5095   */\n  mload\n    /* \"#utility.yul\":5060:5095   */\n  swap1\n  pop\n    /* \"#utility.yul\":5032:5109   */\ntag_97:\n    /* \"#utility.yul\":5135:5202   */\n  tag_98\n    /* \"#utility.yul\":5195:5201   */\n  dup6\n    /* \"#utility.yul\":5188:5193   */\n  dup3\n    /* \"#utility.yul\":5135:5202   */\n  tag_32\n  jump\t// in\ntag_98:\n    /* \"#utility.yul\":5129:5133   */\n  dup7\n    /* \"#utility.yul\":5122:5203   */\n  sstore\n    /* \"#utility.yul\":4991:5213   */\n  pop\n    /* \"#utility.yul\":4327:5213   */\n  jump(tag_95)\n    /* \"#utility.yul\":4357:4974   */\ntag_96:\n    /* \"#utility.yul\":4409:4413   */\n  0x1f\n    /* \"#utility.yul\":4405:4414   */\n  not\n    /* \"#utility.yul\":4397:4403   */\n  dup5\n    /* \"#utility.yul\":4393:4415   */\n  and\n    /* \"#utility.yul\":4443:4479   */\n  tag_99\n    /* \"#utility.yul\":4474:4478   */\n  dup7\n    /* \"#utility.yul\":4443:4479   */\n  tag_17\n  jump\t// in\ntag_99:\n    /* \"#utility.yul\":4501:4502   */\n  0x00\n    /* \"#utility.yul\":4515:4723   */\ntag_100:\n    /* \"#utility.yul\":4529:4536   */\n  dup3\n    /* \"#utility.yul\":4526:4527   */\n  dup2\n    /* \"#utility.yul\":4523:4537   */\n  lt\n    /* \"#utility.yul\":4515:4723   */\n  iszero\n  tag_102\n  jumpi\n    /* \"#utility.yul\":4608:4617   */\n  dup5\n    /* \"#utility.yul\":4603:4606   */\n  dup10\n    /* \"#utility.yul\":4599:4618   */\n  add\n    /* \"#utility.yul\":4593:4619   */\n  mload\n    /* \"#utility.yul\":4585:4591   */\n  dup3\n    /* \"#utility.yul\":4578:4620   */\n  sstore\n    /* \"#utility.yul\":4659:4660   */\n  0x01\n    /* \"#utility.yul\":4651:4657   */\n  dup3\n    /* \"#utility.yul\":4647:4661   */\n  add\n    /* \"#utility.yul\":4637:4661   */\n  swap2\n  pop\n    /* \"#utility.yul\":4706:4708   */\n  0x20\n    /* \"#utility.yul\":4695:4704   */\n  dup6\n    /* \"#utility.yul\":4691:4709   */\n  add\n    /* \"#utility.yul\":4678:4709   */\n  swap5\n  pop\n    /* \"#utility.yul\":4552:4556   */\n  0x20\n    /* \"#utility.yul\":4549:4550   */\n  dup2\n    /* \"#utility.yul\":4545:4557   */\n  add\n    /* \"#utility.yul\":4540:4557   */\n  swap1\n  pop\n    /* \"#utility.yul\":4515:4723   */\n  jump(tag_100)\ntag_102:\n    /* \"#utility.yul\":4751:4757   */\n  dup7\n    /* \"#utility.yul\":4742:4749   */\n  dup4\n    /* \"#utility.yul\":4739:4758   */\n  lt\n    /* \"#utility.yul\":4736:4915   */\n  iszero\n  tag_103\n  jumpi\n    /* \"#utility.yul\":4809:4818   */\n  dup5\n    /* \"#utility.yul\":4804:4807   */\n  dup10\n    /* \"#utility.yul\":4800:4819   */\n  add\n    /* \"#utility.yul\":4794:4820   */\n  mload\n    /* \"#utility.yul\":4852:4900   */\n  tag_104\n    /* \"#utility.yul\":4894:4898   */\n  0x1f\n    /* \"#utility.yul\":4886:4892   */\n  dup10\n    /* \"#utility.yul\":4882:4899   */\n  and\n    /* \"#utility.yul\":4871:4880   */\n  dup3\n    /* \"#utility.yul\":4852:4900   */\n  tag_31\n  jump\t// in\ntag_104:\n    /* \"#utility.yul\":4844:4850   */\n  dup4\n    /* \"#utility.yul\":4837:4901   */\n  sstore\n    /* \"#utility.yul\":4759:4915   */\n  pop\n    /* \"#utility.yul\":4736:4915   */\ntag_103:\n    /* \"#utility.yul\":4961:4962   */\n  0x01\n    /* \"#utility.yul\":4957:4958   */\n  0x02\n    /* \"#utility.yul\":4949:4955   */\n  dup9\n    /* \"#utility.yul\":4945:4959   */\n  mul\n    /* \"#utility.yul\":4941:4963   */\n  add\n    /* \"#utility.yul\":4935:4939   */\n  dup9\n    /* \"#utility.yul\":4928:4964   */\n  sstore\n    /* \"#utility.yul\":4364:4974   */\n  pop\n  pop\n  pop\n    /* \"#utility.yul\":4327:5213   */\ntag_95:\n  pop\n    /* \"#utility.yul\":3919:5219   */\n  pop\n  pop\n  pop\n    /* \"#utility.yul\":3829:5219   */\n  pop\n  pop\n  jump\t// out\n    /* \"#utility.yul\":5225:5372   */\ntag_33:\n    /* \"#utility.yul\":5326:5337   */\n  0x00\n    /* \"#utility.yul\":5363:5366   */\n  dup2\n    /* \"#utility.yul\":5348:5366   */\n  swap1\n  pop\n    /* \"#utility.yul\":5225:5372   */\n  swap3\n  swap2\n  pop\n  pop\n  jump\t// out\n    /* \"#utility.yul\":5400:6270   */\ntag_34:\n    /* \"#utility.yul\":5501:5504   */\n  0x00\n    /* \"#utility.yul\":5538:5543   */\n  dup2\n    /* \"#utility.yul\":5532:5544   */\n  sload\n    /* \"#utility.yul\":5567:5603   */\n  tag_107\n    /* \"#utility.yul\":5593:5602   */\n  dup2\n    /* \"#utility.yul\":5567:5603   */\n  tag_16\n  jump\t// in\ntag_107:\n    /* \"#utility.yul\":5619:5707   */\n  tag_108\n    /* \"#utility.yul\":5700:5706   */\n  dup2\n    /* \"#utility.yul\":5695:5698   */\n  dup7\n    /* \"#utility.yul\":5619:5707   */\n  tag_33\n  jump\t// in\ntag_108:\n    /* \"#utility.yul\":5612:5707   */\n  swap5\n  pop\n    /* \"#utility.yul\":5738:5739   */\n  0x01\n    /* \"#utility.yul\":5727:5736   */\n  dup3\n    /* \"#utility.yul\":5723:5740   */\n  and\n    /* \"#utility.yul\":5754:5755   */\n  0x00\n    /* \"#utility.yul\":5749:5915   */\n  dup2\n  eq\n  tag_110\n  jumpi\n    /* \"#utility.yul\":5929:5930   */\n  0x01\n    /* \"#utility.yul\":5924:6264   */\n  dup2\n  eq\n  tag_111\n  jumpi\n    /* \"#utility.yul\":5716:6264   */\n  jump(tag_109)\n    /* \"#utility.yul\":5749:5915   */\ntag_110:\n    /* \"#utility.yul\":5833:5837   */\n  0xff\n    /* \"#utility.yul\":5829:5838   */\n  not\n    /* \"#utility.yul\":5818:5827   */\n  dup4\n    /* \"#utility.yul\":5814:5839   */\n  and\n    /* \"#utility.yul\":5809:5812   */\n  dup7\n    /* \"#utility.yul\":5802:5840   */\n  mstore\n    /* \"#utility.yul\":5895:5901   */\n  dup2\n    /* \"#utility.yul\":5888:5902   */\n  iszero\n    /* \"#utility.yul\":5881:5903   */\n  iszero\n    /* \"#utility.yul\":5873:5879   */\n  dup3\n    /* \"#utility.yul\":5869:5904   */\n  mul\n    /* \"#utility.yul\":5864:5867   */\n  dup7\n    /* \"#utility.yul\":5860:5905   */\n  add\n    /* \"#utility.yul\":5853:5905   */\n  swap4\n  pop\n    /* \"#utility.yul\":5749:5915   */\n  jump(tag_109)\n    /* \"#utility.yul\":5924:6264   */\ntag_111:\n    /* \"#utility.yul\":5991:6028   */\n  tag_112\n    /* \"#utility.yul\":6022:6027   */\n  dup6\n    /* \"#utility.yul\":5991:6028   */\n  tag_17\n  jump\t// in\ntag_112:\n    /* \"#utility.yul\":6050:6051   */\n  0x00\n    /* \"#utility.yul\":6064:6218   */\ntag_113:\n    /* \"#utility.yul\":6078:6084   */\n  dup4\n    /* \"#utility.yul\":6075:6076   */\n  dup2\n    /* \"#utility.yul\":6072:6085   */\n  lt\n    /* \"#utility.yul\":6064:6218   */\n  iszero\n  tag_115\n  jumpi\n    /* \"#utility.yul\":6152:6159   */\n  dup2\n    /* \"#utility.yul\":6146:6160   */\n  sload\n    /* \"#utility.yul\":6142:6143   */\n  dup2\n    /* \"#utility.yul\":6137:6140   */\n  dup10\n    /* \"#utility.yul\":6133:6144   */\n  add\n    /* \"#utility.yul\":6126:6161   */\n  mstore\n    /* \"#utility.yul\":6202:6203   */\n  0x01\n    /* \"#utility.yul\":6193:6200   */\n  dup3\n    /* \"#utility.yul\":6189:6204   */\n  add\n    /* \"#utility.yul\":6178:6204   */\n  swap2\n  pop\n    /* \"#utility.yul\":6100:6104   */\n  0x20\n    /* \"#utility.yul\":6097:6098   */\n  dup2\n    /* \"#utility.yul\":6093:6105   */\n  add\n    /* \"#utility.yul\":6088:6105   */\n  swap1\n  pop\n    /* \"#utility.yul\":6064:6218   */\n  jump(tag_113)\ntag_115:\n    /* \"#utility.yul\":6247:6253   */\n  dup4\n    /* \"#utility.yul\":6242:6245   */\n  dup9\n    /* \"#utility.yul\":6238:6254   */\n  add\n    /* \"#utility.yul\":6231:6254   */\n  swap6\n  pop\n    /* \"#utility.yul\":5931:6264   */\n  pop\n  pop\n    /* \"#utility.yul\":5716:6264   */\ntag_109:\n  pop\n    /* \"#utility.yul\":5505:6270   */\n  pop\n  pop\n    /* \"#utility.yul\":5400:6270   */\n  swap3\n  swap2\n  pop\n  pop\n  jump\t// out\n    /* \"#utility.yul\":6276:6541   */\ntag_6:\n    /* \"#utility.yul\":6403:6406   */\n  0x00\n    /* \"#utility.yul\":6425:6515   */\n  tag_117\n    /* \"#utility.yul\":6511:6514   */\n  dup3\n    /* \"#utility.yul\":6502:6508   */\n  dup5\n    /* \"#utility.yul\":6425:6515   */\n  tag_34\n  jump\t// in\ntag_117:\n    /* \"#utility.yul\":6418:6515   */\n  swap2\n  pop\n    /* \"#utility.yul\":6532:6535   */\n  dup2\n    /* \"#utility.yul\":6525:6535   */\n  swap1\n  pop\n    /* \"#utility.yul\":6276:6541   */\n  swap3\n  swap2\n  pop\n  pop\n  jump\t// out\n    /* \"#utility.yul\":6628:6745   */\ntag_36:\n    /* \"#utility.yul\":6737:6738   */\n  0x00\n    /* \"#utility.yul\":6734:6735   */\n  dup1\n    /* \"#utility.yul\":6727:6739   */\n  revert\n    /* \"#utility.yul\":6874:7000   */\ntag_38:\n    /* \"#utility.yul\":6911:6918   */\n  0x00\n    /* \"#utility.yul\":6951:6993   */\n  0xffffffffffffffffffffffffffffffffffffffff\n    /* \"#utility.yul\":6944:6949   */\n  dup3\n    /* \"#utility.yul\":6940:6994   */\n  and\n    /* \"#utility.yul\":6929:6994   */\n  swap1\n  pop\n    /* \"#utility.yul\":6874:7000   */\n  swap2\n  swap1\n  pop\n  jump\t// out\n    /* \"#utility.yul\":7006:7102   */\ntag_39:\n    /* \"#utility.yul\":7043:7050   */\n  0x00\n    /* \"#utility.yul\":7072:7096   */\n  tag_123\n    /* \"#utility.yul\":7090:7095   */\n  dup3\n    /* \"#utility.yul\":7072:7096   */\n  tag_38\n  jump\t// in\ntag_123:\n    /* \"#utility.yul\":7061:7096   */\n  swap1\n  pop\n    /* \"#utility.yul\":7006:7102   */\n  swap2\n  swap1\n  pop\n  jump\t// out\n    /* \"#utility.yul\":7108:7216   */\ntag_40:\n    /* \"#utility.yul\":7157:7164   */\n  0x00\n    /* \"#utility.yul\":7186:7210   */\n  tag_125\n    /* \"#utility.yul\":7204:7209   */\n  dup3\n    /* \"#utility.yul\":7186:7210   */\n  tag_39\n  jump\t// in\ntag_125:\n    /* \"#utility.yul\":7175:7210   */\n  swap1\n  pop\n    /* \"#utility.yul\":7108:7216   */\n  swap2\n  swap1\n  pop\n  jump\t// out\n    /* \"#utility.yul\":7222:7368   */\ntag_41:\n    /* \"#utility.yul\":7307:7343   */\n  tag_127\n    /* \"#utility.yul\":7337:7342   */\n  dup2\n    /* \"#utility.yul\":7307:7343   */\n  tag_40\n  jump\t// in\ntag_127:\n    /* \"#utility.yul\":7300:7305   */\n  dup2\n    /* \"#utility.yul\":7297:7344   */\n  eq\n    /* \"#utility.yul\":7287:7362   */\n  tag_128\n  jumpi\n    /* \"#utility.yul\":7358:7359   */\n  0x00\n    /* \"#utility.yul\":7355:7356   */\n  dup1\n    /* \"#utility.yul\":7348:7360   */\n  revert\n    /* \"#utility.yul\":7287:7362   */\ntag_128:\n    /* \"#utility.yul\":7222:7368   */\n  pop\n  jump\t// out\n    /* \"#utility.yul\":7374:7541   */\ntag_42:\n    /* \"#utility.yul\":7443:7448   */\n  0x00\n    /* \"#utility.yul\":7474:7480   */\n  dup2\n    /* \"#utility.yul\":7468:7481   */\n  mload\n    /* \"#utility.yul\":7459:7481   */\n  swap1\n  pop\n    /* \"#utility.yul\":7490:7535   */\n  tag_130\n    /* \"#utility.yul\":7529:7534   */\n  dup2\n    /* \"#utility.yul\":7490:7535   */\n  tag_41\n  jump\t// in\ntag_130:\n    /* \"#utility.yul\":7374:7541   */\n  swap3\n  swap2\n  pop\n  pop\n  jump\t// out\n    /* \"#utility.yul\":7547:7922   */\ntag_9:\n    /* \"#utility.yul\":7629:7635   */\n  0x00\n    /* \"#utility.yul\":7678:7680   */\n  0x20\n    /* \"#utility.yul\":7666:7675   */\n  dup3\n    /* \"#utility.yul\":7657:7664   */\n  dup5\n    /* \"#utility.yul\":7653:7676   */\n  sub\n    /* \"#utility.yul\":7649:7681   */\n  slt\n    /* \"#utility.yul\":7646:7765   */\n  iszero\n  tag_132\n  jumpi\n    /* \"#utility.yul\":7684:7763   */\n  tag_133\n  tag_36\n  jump\t// in\ntag_133:\n    /* \"#utility.yul\":7646:7765   */\ntag_132:\n    /* \"#utility.yul\":7804:7805   */\n  0x00\n    /* \"#utility.yul\":7829:7905   */\n  tag_134\n    /* \"#utility.yul\":7897:7904   */\n  dup5\n    /* \"#utility.yul\":7888:7894   */\n  dup3\n    /* \"#utility.yul\":7877:7886   */\n  dup6\n    /* \"#utility.yul\":7873:7895   */\n  add\n    /* \"#utility.yul\":7829:7905   */\n  tag_42\n  jump\t// in\ntag_134:\n    /* \"#utility.yul\":7819:7905   */\n  swap2\n  pop\n    /* \"#utility.yul\":7775:7915   */\n  pop\n    /* \"#utility.yul\":7547:7922   */\n  swap3\n  swap2\n  pop\n  pop\n  jump\t// out\n    /* \"shoot/2/create_create\\xe8\\xae\\xa1\\xe7\\xae\\x97/1.sol\":1359:2185  contract att{... */\ntag_12:\n  dataSize(sub_0)\n  dup1\n  dataOffset(sub_0)\n  0x00\n  codecopy\n  0x00\n  return\nstop\n\nsub_0: assembly {\n        /* \"shoot/2/create_create\\xe8\\xae\\xa1\\xe7\\xae\\x97/1.sol\":1359:2185  contract att{... */\n      mstore(0x40, 0x80)\n      jumpi(tag_1, lt(calldatasize, 0x04))\n      shr(0xe0, calldataload(0x00))\n      dup1\n      0x08684d38\n      eq\n      tag_2\n      jumpi\n      dup1\n      0x71690caf\n      eq\n      tag_3\n      jumpi\n      dup1\n      0xc2f3b482\n      eq\n      tag_4\n      jumpi\n      dup1\n      0xcccecb14\n      eq\n      tag_5\n      jumpi\n      dup1\n      0xe2179b8e\n      eq\n      tag_6\n      jumpi\n    tag_1:\n      0x00\n      dup1\n      revert\n        /* \"shoot/2/create_create\\xe8\\xae\\xa1\\xe7\\xae\\x97/1.sol\":1817:2182  function getaddress(address target,bytes32 salt) public returns(address a){... */\n    tag_2:\n      callvalue\n      dup1\n      iszero\n      tag_7\n      jumpi\n      0x00\n      dup1\n      revert\n    tag_7:\n      pop\n      tag_8\n      0x04\n      dup1\n      calldatasize\n      sub\n      dup2\n      add\n      swap1\n      tag_9\n      swap2\n      swap1\n      tag_10\n      jump\t// in\n    tag_9:\n      tag_11\n      jump\t// in\n    tag_8:\n      mload(0x40)\n      tag_12\n      swap2\n      swap1\n      tag_13\n      jump\t// in\n    tag_12:\n      mload(0x40)\n      dup1\n      swap2\n      sub\n      swap1\n      return\n        /* \"shoot/2/create_create\\xe8\\xae\\xa1\\xe7\\xae\\x97/1.sol\":1558:1583  bytes32 public creatcode2 */\n    tag_3:\n      callvalue\n      dup1\n      iszero\n      tag_14\n      jumpi\n      0x00\n      dup1\n      revert\n    tag_14:\n      pop\n      tag_15\n      tag_16\n      jump\t// in\n    tag_15:\n      mload(0x40)\n      tag_17\n      swap2\n      swap1\n      tag_18\n      jump\t// in\n    tag_17:\n      mload(0x40)\n      dup1\n      swap2\n      sub\n      swap1\n      return\n        /* \"shoot/2/create_create\\xe8\\xae\\xa1\\xe7\\xae\\x97/1.sol\":1590:1811  function attract(bytes32 salt) public payable {... */\n    tag_4:\n      tag_19\n      0x04\n      dup1\n      calldatasize\n      sub\n      dup2\n      add\n      swap1\n      tag_20\n      swap2\n      swap1\n      tag_21\n      jump\t// in\n    tag_20:\n      tag_22\n      jump\t// in\n    tag_19:\n      stop\n        /* \"shoot/2/create_create\\xe8\\xae\\xa1\\xe7\\xae\\x97/1.sol\":1453:1504  bytes public  creatcode1 = type(found).creationCode */\n    tag_5:\n      callvalue\n      dup1\n      iszero\n      tag_23\n      jumpi\n      0x00\n      dup1\n      revert\n    tag_23:\n      pop\n      tag_24\n      tag_25\n      jump\t// in\n    tag_24:\n      mload(0x40)\n      tag_26\n      swap2\n      swap1\n      tag_27\n      jump\t// in\n    tag_26:\n      mload(0x40)\n      dup1\n      swap2\n      sub\n      swap1\n      return\n        /* \"shoot/2/create_create\\xe8\\xae\\xa1\\xe7\\xae\\x97/1.sol\":1511:1551  bytes32 public g = keccak256(creatcode1) */\n    tag_6:\n      callvalue\n      dup1\n      iszero\n      tag_28\n      jumpi\n      0x00\n      dup1\n      revert\n    tag_28:\n      pop\n      tag_29\n      tag_30\n      jump\t// in\n    tag_29:\n      mload(0x40)\n      tag_31\n      swap2\n      swap1\n      tag_18\n      jump\t// in\n    tag_31:\n      mload(0x40)\n      dup1\n      swap2\n      sub\n      swap1\n      return\n        /* \"shoot/2/create_create\\xe8\\xae\\xa1\\xe7\\xae\\x97/1.sol\":1817:2182  function getaddress(address target,bytes32 salt) public returns(address a){... */\n    tag_11:\n        /* \"shoot/2/create_create\\xe8\\xae\\xa1\\xe7\\xae\\x97/1.sol\":1881:1890  address a */\n      0x00\n        /* \"shoot/2/create_create\\xe8\\xae\\xa1\\xe7\\xae\\x97/1.sol\":1902:1924  bytes memory creatcode */\n      dup1\n        /* \"shoot/2/create_create\\xe8\\xae\\xa1\\xe7\\xae\\x97/1.sol\":1927:1951  type(found).creationCode */\n      mload(0x40)\n      dup1\n      0x20\n      add\n      tag_33\n      swap1\n      tag_34\n      jump\t// in\n    tag_33:\n      0x20\n      dup3\n      add\n      dup2\n      sub\n      dup3\n      mstore\n      not(0x1f)\n      0x1f\n      dup3\n      add\n      and\n      0x40\n      mstore\n      pop\n        /* \"shoot/2/create_create\\xe8\\xae\\xa1\\xe7\\xae\\x97/1.sol\":1902:1951  bytes memory creatcode = type(found).creationCode */\n      swap1\n      pop\n        /* \"shoot/2/create_create\\xe8\\xae\\xa1\\xe7\\xae\\x97/1.sol\":1985:1994  creatcode */\n      dup1\n        /* \"shoot/2/create_create\\xe8\\xae\\xa1\\xe7\\xae\\x97/1.sol\":1975:1995  keccak256(creatcode) */\n      dup1\n      mload\n      swap1\n      0x20\n      add\n      keccak256\n        /* \"shoot/2/create_create\\xe8\\xae\\xa1\\xe7\\xae\\x97/1.sol\":1962:1972  creatcode2 */\n      0x03\n        /* \"shoot/2/create_create\\xe8\\xae\\xa1\\xe7\\xae\\x97/1.sol\":1962:1995  creatcode2 = keccak256(creatcode) */\n      dup2\n      swap1\n      sstore\n      pop\n        /* \"shoot/2/create_create\\xe8\\xae\\xa1\\xe7\\xae\\x97/1.sol\":2079:2083  0xff */\n      0xff\n        /* \"shoot/2/create_create\\xe8\\xae\\xa1\\xe7\\xae\\x97/1.sol\":2072:2084  bytes1(0xff) */\n      0xf8\n      shl\n        /* \"shoot/2/create_create\\xe8\\xae\\xa1\\xe7\\xae\\x97/1.sol\":2099:2105  target */\n      dup5\n        /* \"shoot/2/create_create\\xe8\\xae\\xa1\\xe7\\xae\\x97/1.sol\":2120:2124  salt */\n      dup5\n        /* \"shoot/2/create_create\\xe8\\xae\\xa1\\xe7\\xae\\x97/1.sol\":2149:2158  creatcode */\n      dup4\n        /* \"shoot/2/create_create\\xe8\\xae\\xa1\\xe7\\xae\\x97/1.sol\":2139:2159  keccak256(creatcode) */\n      dup1\n      mload\n      swap1\n      0x20\n      add\n      keccak256\n        /* \"shoot/2/create_create\\xe8\\xae\\xa1\\xe7\\xae\\x97/1.sol\":2041:2170  abi.encodePacked(... */\n      add(0x20, mload(0x40))\n      tag_35\n      swap5\n      swap4\n      swap3\n      swap2\n      swap1\n      tag_36\n      jump\t// in\n    tag_35:\n      mload(0x40)\n      0x20\n      dup2\n      dup4\n      sub\n      sub\n      dup2\n      mstore\n      swap1\n      0x40\n      mstore\n        /* \"shoot/2/create_create\\xe8\\xae\\xa1\\xe7\\xae\\x97/1.sol\":2031:2171  keccak256(abi.encodePacked(... */\n      dup1\n      mload\n      swap1\n      0x20\n      add\n      keccak256\n        /* \"shoot/2/create_create\\xe8\\xae\\xa1\\xe7\\xae\\x97/1.sol\":2026:2172  uint(keccak256(abi.encodePacked(... */\n      0x00\n      shr\n        /* \"shoot/2/create_create\\xe8\\xae\\xa1\\xe7\\xae\\x97/1.sol\":2006:2174  a = address(uint160(uint(keccak256(abi.encodePacked(... */\n      swap2\n      pop\n        /* \"shoot/2/create_create\\xe8\\xae\\xa1\\xe7\\xae\\x97/1.sol\":1891:2182  {... */\n      pop\n        /* \"shoot/2/create_create\\xe8\\xae\\xa1\\xe7\\xae\\x97/1.sol\":1817:2182  function getaddress(address target,bytes32 salt) public returns(address a){... */\n      swap3\n      swap2\n      pop\n      pop\n      jump\t// out\n        /* \"shoot/2/create_create\\xe8\\xae\\xa1\\xe7\\xae\\x97/1.sol\":1558:1583  bytes32 public creatcode2 */\n    tag_16:\n      sload(0x03)\n      dup2\n      jump\t// out\n        /* \"shoot/2/create_create\\xe8\\xae\\xa1\\xe7\\xae\\x97/1.sol\":1590:1811  function attract(bytes32 salt) public payable {... */\n    tag_22:\n        /* \"shoot/2/create_create\\xe8\\xae\\xa1\\xe7\\xae\\x97/1.sol\":1647:1663  getnewcontract A */\n      0x00\n        /* \"shoot/2/create_create\\xe8\\xae\\xa1\\xe7\\xae\\x97/1.sol\":1692:1703  0.001 ether */\n      0x038d7ea4c68000\n        /* \"shoot/2/create_create\\xe8\\xae\\xa1\\xe7\\xae\\x97/1.sol\":1666:1706  new getnewcontract{value: 0.001 ether}() */\n      mload(0x40)\n      tag_38\n      swap1\n      tag_39\n      jump\t// in\n    tag_38:\n      mload(0x40)\n      dup1\n      swap2\n      sub\n      swap1\n      dup3\n      create\n      swap1\n      pop\n      dup1\n      iszero\n      dup1\n      iszero\n      tag_40\n      jumpi\n      returndatasize\n      0x00\n      dup1\n      returndatacopy\n      revert(0x00, returndatasize)\n    tag_40:\n      pop\n        /* \"shoot/2/create_create\\xe8\\xae\\xa1\\xe7\\xae\\x97/1.sol\":1647:1706  getnewcontract A = new getnewcontract{value: 0.001 ether}() */\n      swap1\n      pop\n        /* \"shoot/2/create_create\\xe8\\xae\\xa1\\xe7\\xae\\x97/1.sol\":1717:1718  A */\n      dup1\n        /* \"shoot/2/create_create\\xe8\\xae\\xa1\\xe7\\xae\\x97/1.sol\":1717:1729  A.getaddress */\n      0xffffffffffffffffffffffffffffffffffffffff\n      and\n      0x08684d38\n        /* \"shoot/2/create_create\\xe8\\xae\\xa1\\xe7\\xae\\x97/1.sol\":1738:1741  che */\n      0x00\n      dup1\n      sload\n      swap1\n      0x0100\n      exp\n      swap1\n      div\n      0xffffffffffffffffffffffffffffffffffffffff\n      and\n        /* \"shoot/2/create_create\\xe8\\xae\\xa1\\xe7\\xae\\x97/1.sol\":1743:1747  salt */\n      dup5\n        /* \"shoot/2/create_create\\xe8\\xae\\xa1\\xe7\\xae\\x97/1.sol\":1717:1748  A.getaddress(address(che),salt) */\n      mload(0x40)\n      dup4\n      0xffffffff\n      and\n      0xe0\n      shl\n      dup2\n      mstore\n      0x04\n      add\n      tag_41\n      swap3\n      swap2\n      swap1\n      tag_42\n      jump\t// in\n    tag_41:\n      0x00\n      mload(0x40)\n      dup1\n      dup4\n      sub\n      dup2\n      0x00\n      dup8\n      dup1\n      extcodesize\n      iszero\n      dup1\n      iszero\n      tag_43\n      jumpi\n      0x00\n      dup1\n      revert\n    tag_43:\n      pop\n      gas\n      call\n      iszero\n      dup1\n      iszero\n      tag_45\n      jumpi\n      returndatasize\n      0x00\n      dup1\n      returndatacopy\n      revert(0x00, returndatasize)\n    tag_45:\n      pop\n      pop\n      pop\n      pop\n        /* \"shoot/2/create_create\\xe8\\xae\\xa1\\xe7\\xae\\x97/1.sol\":1759:1762  che */\n      0x00\n      dup1\n      sload\n      swap1\n      0x0100\n      exp\n      swap1\n      div\n      0xffffffffffffffffffffffffffffffffffffffff\n      and\n        /* \"shoot/2/create_create\\xe8\\xae\\xa1\\xe7\\xae\\x97/1.sol\":1759:1769  che.depoly */\n      0xffffffffffffffffffffffffffffffffffffffff\n      and\n      0xd93f4900\n        /* \"shoot/2/create_create\\xe8\\xae\\xa1\\xe7\\xae\\x97/1.sol\":1770:1774  salt */\n      dup4\n        /* \"shoot/2/create_create\\xe8\\xae\\xa1\\xe7\\xae\\x97/1.sol\":1759:1775  che.depoly(salt) */\n      mload(0x40)\n      dup3\n      0xffffffff\n      and\n      0xe0\n      shl\n      dup2\n      mstore\n      0x04\n      add\n      tag_46\n      swap2\n      swap1\n      tag_18\n      jump\t// in\n    tag_46:\n      0x20\n      mload(0x40)\n      dup1\n      dup4\n      sub\n      dup2\n      0x00\n      dup8\n      gas\n      call\n      iszero\n      dup1\n      iszero\n      tag_48\n      jumpi\n      returndatasize\n      0x00\n      dup1\n      returndatacopy\n      revert(0x00, returndatasize)\n    tag_48:\n      pop\n      pop\n      pop\n      pop\n      mload(0x40)\n      returndatasize\n      not(0x1f)\n      0x1f\n      dup3\n      add\n      and\n      dup3\n      add\n      dup1\n      0x40\n      mstore\n      pop\n      dup2\n      add\n      swap1\n      tag_49\n      swap2\n      swap1\n      tag_50\n      jump\t// in\n    tag_49:\n      pop\n        /* \"shoot/2/create_create\\xe8\\xae\\xa1\\xe7\\xae\\x97/1.sol\":1786:1789  che */\n      0x00\n      dup1\n      sload\n      swap1\n      0x0100\n      exp\n      swap1\n      div\n      0xffffffffffffffffffffffffffffffffffffffff\n      and\n        /* \"shoot/2/create_create\\xe8\\xae\\xa1\\xe7\\xae\\x97/1.sol\":1786:1801  che.isCompleted */\n      0xffffffffffffffffffffffffffffffffffffffff\n      and\n      0xfa391c64\n        /* \"shoot/2/create_create\\xe8\\xae\\xa1\\xe7\\xae\\x97/1.sol\":1786:1803  che.isCompleted() */\n      mload(0x40)\n      dup2\n      0xffffffff\n      and\n      0xe0\n      shl\n      dup2\n      mstore\n      0x04\n      add\n      0x00\n      mload(0x40)\n      dup1\n      dup4\n      sub\n      dup2\n      0x00\n      dup8\n      dup1\n      extcodesize\n      iszero\n      dup1\n      iszero\n      tag_51\n      jumpi\n      0x00\n      dup1\n      revert\n    tag_51:\n      pop\n      gas\n      call\n      iszero\n      dup1\n      iszero\n      tag_53\n      jumpi\n      returndatasize\n      0x00\n      dup1\n      returndatacopy\n      revert(0x00, returndatasize)\n    tag_53:\n      pop\n      pop\n      pop\n      pop\n        /* \"shoot/2/create_create\\xe8\\xae\\xa1\\xe7\\xae\\x97/1.sol\":1636:1811  {... */\n      pop\n        /* \"shoot/2/create_create\\xe8\\xae\\xa1\\xe7\\xae\\x97/1.sol\":1590:1811  function attract(bytes32 salt) public payable {... */\n      pop\n      jump\t// out\n        /* \"shoot/2/create_create\\xe8\\xae\\xa1\\xe7\\xae\\x97/1.sol\":1453:1504  bytes public  creatcode1 = type(found).creationCode */\n    tag_25:\n      0x01\n      dup1\n      sload\n      tag_54\n      swap1\n      tag_55\n      jump\t// in\n    tag_54:\n      dup1\n      0x1f\n      add\n      0x20\n      dup1\n      swap2\n      div\n      mul\n      0x20\n      add\n      mload(0x40)\n      swap1\n      dup2\n      add\n      0x40\n      mstore\n      dup1\n      swap3\n      swap2\n      swap1\n      dup2\n      dup2\n      mstore\n      0x20\n      add\n      dup3\n      dup1\n      sload\n      tag_56\n      swap1\n      tag_55\n      jump\t// in\n    tag_56:\n      dup1\n      iszero\n      tag_57\n      jumpi\n      dup1\n      0x1f\n      lt\n      tag_58\n      jumpi\n      0x0100\n      dup1\n      dup4\n      sload\n      div\n      mul\n      dup4\n      mstore\n      swap2\n      0x20\n      add\n      swap2\n      jump(tag_57)\n    tag_58:\n      dup3\n      add\n      swap2\n      swap1\n      0x00\n      mstore\n      keccak256(0x00, 0x20)\n      swap1\n    tag_59:\n      dup2\n      sload\n      dup2\n      mstore\n      swap1\n      0x01\n      add\n      swap1\n      0x20\n      add\n      dup1\n      dup4\n      gt\n      tag_59\n      jumpi\n      dup3\n      swap1\n      sub\n      0x1f\n      and\n      dup3\n      add\n      swap2\n    tag_57:\n      pop\n      pop\n      pop\n      pop\n      pop\n      dup2\n      jump\t// out\n        /* \"shoot/2/create_create\\xe8\\xae\\xa1\\xe7\\xae\\x97/1.sol\":1511:1551  bytes32 public g = keccak256(creatcode1) */\n    tag_30:\n      sload(0x02)\n      dup2\n      jump\t// out\n    tag_34:\n      dataSize(sub_0)\n      dup1\n      dataOffset(sub_0)\n      dup4\n      codecopy\n      add\n      swap1\n      jump\t// out\n    tag_39:\n      dataSize(sub_1)\n      dup1\n      dataOffset(sub_1)\n      dup4\n      codecopy\n      add\n      swap1\n      jump\t// out\n        /* \"#utility.yul\":88:205   */\n    tag_61:\n        /* \"#utility.yul\":197:198   */\n      0x00\n        /* \"#utility.yul\":194:195   */\n      dup1\n        /* \"#utility.yul\":187:199   */\n      revert\n        /* \"#utility.yul\":334:460   */\n    tag_63:\n        /* \"#utility.yul\":371:378   */\n      0x00\n        /* \"#utility.yul\":411:453   */\n      0xffffffffffffffffffffffffffffffffffffffff\n        /* \"#utility.yul\":404:409   */\n      dup3\n        /* \"#utility.yul\":400:454   */\n      and\n        /* \"#utility.yul\":389:454   */\n      swap1\n      pop\n        /* \"#utility.yul\":334:460   */\n      swap2\n      swap1\n      pop\n      jump\t// out\n        /* \"#utility.yul\":466:562   */\n    tag_64:\n        /* \"#utility.yul\":503:510   */\n      0x00\n        /* \"#utility.yul\":532:556   */\n      tag_94\n        /* \"#utility.yul\":550:555   */\n      dup3\n        /* \"#utility.yul\":532:556   */\n      tag_63\n      jump\t// in\n    tag_94:\n        /* \"#utility.yul\":521:556   */\n      swap1\n      pop\n        /* \"#utility.yul\":466:562   */\n      swap2\n      swap1\n      pop\n      jump\t// out\n        /* \"#utility.yul\":568:690   */\n    tag_65:\n        /* \"#utility.yul\":641:665   */\n      tag_96\n        /* \"#utility.yul\":659:664   */\n      dup2\n        /* \"#utility.yul\":641:665   */\n      tag_64\n      jump\t// in\n    tag_96:\n        /* \"#utility.yul\":634:639   */\n      dup2\n        /* \"#utility.yul\":631:666   */\n      eq\n        /* \"#utility.yul\":621:684   */\n      tag_97\n      jumpi\n        /* \"#utility.yul\":680:681   */\n      0x00\n        /* \"#utility.yul\":677:678   */\n      dup1\n        /* \"#utility.yul\":670:682   */\n      revert\n        /* \"#utility.yul\":621:684   */\n    tag_97:\n        /* \"#utility.yul\":568:690   */\n      pop\n      jump\t// out\n        /* \"#utility.yul\":696:835   */\n    tag_66:\n        /* \"#utility.yul\":742:747   */\n      0x00\n        /* \"#utility.yul\":780:786   */\n      dup2\n        /* \"#utility.yul\":767:787   */\n      calldataload\n        /* \"#utility.yul\":758:787   */\n      swap1\n      pop\n        /* \"#utility.yul\":796:829   */\n      tag_99\n        /* \"#utility.yul\":823:828   */\n      dup2\n        /* \"#utility.yul\":796:829   */\n      tag_65\n      jump\t// in\n    tag_99:\n        /* \"#utility.yul\":696:835   */\n      swap3\n      swap2\n      pop\n      pop\n      jump\t// out\n        /* \"#utility.yul\":841:918   */\n    tag_67:\n        /* \"#utility.yul\":878:885   */\n      0x00\n        /* \"#utility.yul\":907:912   */\n      dup2\n        /* \"#utility.yul\":896:912   */\n      swap1\n      pop\n        /* \"#utility.yul\":841:918   */\n      swap2\n      swap1\n      pop\n      jump\t// out\n        /* \"#utility.yul\":924:1046   */\n    tag_68:\n        /* \"#utility.yul\":997:1021   */\n      tag_102\n        /* \"#utility.yul\":1015:1020   */\n      dup2\n        /* \"#utility.yul\":997:1021   */\n      tag_67\n      jump\t// in\n    tag_102:\n        /* \"#utility.yul\":990:995   */\n      dup2\n        /* \"#utility.yul\":987:1022   */\n      eq\n        /* \"#utility.yul\":977:1040   */\n      tag_103\n      jumpi\n        /* \"#utility.yul\":1036:1037   */\n      0x00\n        /* \"#utility.yul\":1033:1034   */\n      dup1\n        /* \"#utility.yul\":1026:1038   */\n      revert\n        /* \"#utility.yul\":977:1040   */\n    tag_103:\n        /* \"#utility.yul\":924:1046   */\n      pop\n      jump\t// out\n        /* \"#utility.yul\":1052:1191   */\n    tag_69:\n        /* \"#utility.yul\":1098:1103   */\n      0x00\n        /* \"#utility.yul\":1136:1142   */\n      dup2\n        /* \"#utility.yul\":1123:1143   */\n      calldataload\n        /* \"#utility.yul\":1114:1143   */\n      swap1\n      pop\n        /* \"#utility.yul\":1152:1185   */\n      tag_105\n        /* \"#utility.yul\":1179:1184   */\n      dup2\n        /* \"#utility.yul\":1152:1185   */\n      tag_68\n      jump\t// in\n    tag_105:\n        /* \"#utility.yul\":1052:1191   */\n      swap3\n      swap2\n      pop\n      pop\n      jump\t// out\n        /* \"#utility.yul\":1197:1671   */\n    tag_10:\n        /* \"#utility.yul\":1265:1271   */\n      0x00\n        /* \"#utility.yul\":1273:1279   */\n      dup1\n        /* \"#utility.yul\":1322:1324   */\n      0x40\n        /* \"#utility.yul\":1310:1319   */\n      dup4\n        /* \"#utility.yul\":1301:1308   */\n      dup6\n        /* \"#utility.yul\":1297:1320   */\n      sub\n        /* \"#utility.yul\":1293:1325   */\n      slt\n        /* \"#utility.yul\":1290:1409   */\n      iszero\n      tag_107\n      jumpi\n        /* \"#utility.yul\":1328:1407   */\n      tag_108\n      tag_61\n      jump\t// in\n    tag_108:\n        /* \"#utility.yul\":1290:1409   */\n    tag_107:\n        /* \"#utility.yul\":1448:1449   */\n      0x00\n        /* \"#utility.yul\":1473:1526   */\n      tag_109\n        /* \"#utility.yul\":1518:1525   */\n      dup6\n        /* \"#utility.yul\":1509:1515   */\n      dup3\n        /* \"#utility.yul\":1498:1507   */\n      dup7\n        /* \"#utility.yul\":1494:1516   */\n      add\n        /* \"#utility.yul\":1473:1526   */\n      tag_66\n      jump\t// in\n    tag_109:\n        /* \"#utility.yul\":1463:1526   */\n      swap3\n      pop\n        /* \"#utility.yul\":1419:1536   */\n      pop\n        /* \"#utility.yul\":1575:1577   */\n      0x20\n        /* \"#utility.yul\":1601:1654   */\n      tag_110\n        /* \"#utility.yul\":1646:1653   */\n      dup6\n        /* \"#utility.yul\":1637:1643   */\n      dup3\n        /* \"#utility.yul\":1626:1635   */\n      dup7\n        /* \"#utility.yul\":1622:1644   */\n      add\n        /* \"#utility.yul\":1601:1654   */\n      tag_69\n      jump\t// in\n    tag_110:\n        /* \"#utility.yul\":1591:1654   */\n      swap2\n      pop\n        /* \"#utility.yul\":1546:1664   */\n      pop\n        /* \"#utility.yul\":1197:1671   */\n      swap3\n      pop\n      swap3\n      swap1\n      pop\n      jump\t// out\n        /* \"#utility.yul\":1677:1795   */\n    tag_70:\n        /* \"#utility.yul\":1764:1788   */\n      tag_112\n        /* \"#utility.yul\":1782:1787   */\n      dup2\n        /* \"#utility.yul\":1764:1788   */\n      tag_64\n      jump\t// in\n    tag_112:\n        /* \"#utility.yul\":1759:1762   */\n      dup3\n        /* \"#utility.yul\":1752:1789   */\n      mstore\n        /* \"#utility.yul\":1677:1795   */\n      pop\n      pop\n      jump\t// out\n        /* \"#utility.yul\":1801:2023   */\n    tag_13:\n        /* \"#utility.yul\":1894:1898   */\n      0x00\n        /* \"#utility.yul\":1932:1934   */\n      0x20\n        /* \"#utility.yul\":1921:1930   */\n      dup3\n        /* \"#utility.yul\":1917:1935   */\n      add\n        /* \"#utility.yul\":1909:1935   */\n      swap1\n      pop\n        /* \"#utility.yul\":1945:2016   */\n      tag_114\n        /* \"#utility.yul\":2013:2014   */\n      0x00\n        /* \"#utility.yul\":2002:2011   */\n      dup4\n        /* \"#utility.yul\":1998:2015   */\n      add\n        /* \"#utility.yul\":1989:1995   */\n      dup5\n        /* \"#utility.yul\":1945:2016   */\n      tag_70\n      jump\t// in\n    tag_114:\n        /* \"#utility.yul\":1801:2023   */\n      swap3\n      swap2\n      pop\n      pop\n      jump\t// out\n        /* \"#utility.yul\":2029:2147   */\n    tag_71:\n        /* \"#utility.yul\":2116:2140   */\n      tag_116\n        /* \"#utility.yul\":2134:2139   */\n      dup2\n        /* \"#utility.yul\":2116:2140   */\n      tag_67\n      jump\t// in\n    tag_116:\n        /* \"#utility.yul\":2111:2114   */\n      dup3\n        /* \"#utility.yul\":2104:2141   */\n      mstore\n        /* \"#utility.yul\":2029:2147   */\n      pop\n      pop\n      jump\t// out\n        /* \"#utility.yul\":2153:2375   */\n    tag_18:\n        /* \"#utility.yul\":2246:2250   */\n      0x00\n        /* \"#utility.yul\":2284:2286   */\n      0x20\n        /* \"#utility.yul\":2273:2282   */\n      dup3\n        /* \"#utility.yul\":2269:2287   */\n      add\n        /* \"#utility.yul\":2261:2287   */\n      swap1\n      pop\n        /* \"#utility.yul\":2297:2368   */\n      tag_118\n        /* \"#utility.yul\":2365:2366   */\n      0x00\n        /* \"#utility.yul\":2354:2363   */\n      dup4\n        /* \"#utility.yul\":2350:2367   */\n      add\n        /* \"#utility.yul\":2341:2347   */\n      dup5\n        /* \"#utility.yul\":2297:2368   */\n      tag_71\n      jump\t// in\n    tag_118:\n        /* \"#utility.yul\":2153:2375   */\n      swap3\n      swap2\n      pop\n      pop\n      jump\t// out\n        /* \"#utility.yul\":2381:2710   */\n    tag_21:\n        /* \"#utility.yul\":2440:2446   */\n      0x00\n        /* \"#utility.yul\":2489:2491   */\n      0x20\n        /* \"#utility.yul\":2477:2486   */\n      dup3\n        /* \"#utility.yul\":2468:2475   */\n      dup5\n        /* \"#utility.yul\":2464:2487   */\n      sub\n        /* \"#utility.yul\":2460:2492   */\n      slt\n        /* \"#utility.yul\":2457:2576   */\n      iszero\n      tag_120\n      jumpi\n        /* \"#utility.yul\":2495:2574   */\n      tag_121\n      tag_61\n      jump\t// in\n    tag_121:\n        /* \"#utility.yul\":2457:2576   */\n    tag_120:\n        /* \"#utility.yul\":2615:2616   */\n      0x00\n        /* \"#utility.yul\":2640:2693   */\n      tag_122\n        /* \"#utility.yul\":2685:2692   */\n      dup5\n        /* \"#utility.yul\":2676:2682   */\n      dup3\n        /* \"#utility.yul\":2665:2674   */\n      dup6\n        /* \"#utility.yul\":2661:2683   */\n      add\n        /* \"#utility.yul\":2640:2693   */\n      tag_69\n      jump\t// in\n    tag_122:\n        /* \"#utility.yul\":2630:2693   */\n      swap2\n      pop\n        /* \"#utility.yul\":2586:2703   */\n      pop\n        /* \"#utility.yul\":2381:2710   */\n      swap3\n      swap2\n      pop\n      pop\n      jump\t// out\n        /* \"#utility.yul\":2716:2814   */\n    tag_72:\n        /* \"#utility.yul\":2767:2773   */\n      0x00\n        /* \"#utility.yul\":2801:2806   */\n      dup2\n        /* \"#utility.yul\":2795:2807   */\n      mload\n        /* \"#utility.yul\":2785:2807   */\n      swap1\n      pop\n        /* \"#utility.yul\":2716:2814   */\n      swap2\n      swap1\n      pop\n      jump\t// out\n        /* \"#utility.yul\":2820:2988   */\n    tag_73:\n        /* \"#utility.yul\":2903:2914   */\n      0x00\n        /* \"#utility.yul\":2937:2943   */\n      dup3\n        /* \"#utility.yul\":2932:2935   */\n      dup3\n        /* \"#utility.yul\":2925:2944   */\n      mstore\n        /* \"#utility.yul\":2977:2981   */\n      0x20\n        /* \"#utility.yul\":2972:2975   */\n      dup3\n        /* \"#utility.yul\":2968:2982   */\n      add\n        /* \"#utility.yul\":2953:2982   */\n      swap1\n      pop\n        /* \"#utility.yul\":2820:2988   */\n      swap3\n      swap2\n      pop\n      pop\n      jump\t// out\n        /* \"#utility.yul\":2994:3240   */\n    tag_74:\n        /* \"#utility.yul\":3075:3076   */\n      0x00\n        /* \"#utility.yul\":3085:3198   */\n    tag_126:\n        /* \"#utility.yul\":3099:3105   */\n      dup4\n        /* \"#utility.yul\":3096:3097   */\n      dup2\n        /* \"#utility.yul\":3093:3106   */\n      lt\n        /* \"#utility.yul\":3085:3198   */\n      iszero\n      tag_128\n      jumpi\n        /* \"#utility.yul\":3184:3185   */\n      dup1\n        /* \"#utility.yul\":3179:3182   */\n      dup3\n        /* \"#utility.yul\":3175:3186   */\n      add\n        /* \"#utility.yul\":3169:3187   */\n      mload\n        /* \"#utility.yul\":3165:3166   */\n      dup2\n        /* \"#utility.yul\":3160:3163   */\n      dup5\n        /* \"#utility.yul\":3156:3167   */\n      add\n        /* \"#utility.yul\":3149:3188   */\n      mstore\n        /* \"#utility.yul\":3121:3123   */\n      0x20\n        /* \"#utility.yul\":3118:3119   */\n      dup2\n        /* \"#utility.yul\":3114:3124   */\n      add\n        /* \"#utility.yul\":3109:3124   */\n      swap1\n      pop\n        /* \"#utility.yul\":3085:3198   */\n      jump(tag_126)\n    tag_128:\n        /* \"#utility.yul\":3232:3233   */\n      0x00\n        /* \"#utility.yul\":3223:3229   */\n      dup5\n        /* \"#utility.yul\":3218:3221   */\n      dup5\n        /* \"#utility.yul\":3214:3230   */\n      add\n        /* \"#utility.yul\":3207:3234   */\n      mstore\n        /* \"#utility.yul\":3056:3240   */\n      pop\n        /* \"#utility.yul\":2994:3240   */\n      pop\n      pop\n      pop\n      jump\t// out\n        /* \"#utility.yul\":3246:3348   */\n    tag_75:\n        /* \"#utility.yul\":3287:3293   */\n      0x00\n        /* \"#utility.yul\":3338:3340   */\n      0x1f\n        /* \"#utility.yul\":3334:3341   */\n      not\n        /* \"#utility.yul\":3329:3331   */\n      0x1f\n        /* \"#utility.yul\":3322:3327   */\n      dup4\n        /* \"#utility.yul\":3318:3332   */\n      add\n        /* \"#utility.yul\":3314:3342   */\n      and\n        /* \"#utility.yul\":3304:3342   */\n      swap1\n      pop\n        /* \"#utility.yul\":3246:3348   */\n      swap2\n      swap1\n      pop\n      jump\t// out\n        /* \"#utility.yul\":3354:3727   */\n    tag_76:\n        /* \"#utility.yul\":3440:3443   */\n      0x00\n        /* \"#utility.yul\":3468:3506   */\n      tag_131\n        /* \"#utility.yul\":3500:3505   */\n      dup3\n        /* \"#utility.yul\":3468:3506   */\n      tag_72\n      jump\t// in\n    tag_131:\n        /* \"#utility.yul\":3522:3592   */\n      tag_132\n        /* \"#utility.yul\":3585:3591   */\n      dup2\n        /* \"#utility.yul\":3580:3583   */\n      dup6\n        /* \"#utility.yul\":3522:3592   */\n      tag_73\n      jump\t// in\n    tag_132:\n        /* \"#utility.yul\":3515:3592   */\n      swap4\n      pop\n        /* \"#utility.yul\":3601:3666   */\n      tag_133\n        /* \"#utility.yul\":3659:3665   */\n      dup2\n        /* \"#utility.yul\":3654:3657   */\n      dup6\n        /* \"#utility.yul\":3647:3651   */\n      0x20\n        /* \"#utility.yul\":3640:3645   */\n      dup7\n        /* \"#utility.yul\":3636:3652   */\n      add\n        /* \"#utility.yul\":3601:3666   */\n      tag_74\n      jump\t// in\n    tag_133:\n        /* \"#utility.yul\":3691:3720   */\n      tag_134\n        /* \"#utility.yul\":3713:3719   */\n      dup2\n        /* \"#utility.yul\":3691:3720   */\n      tag_75\n      jump\t// in\n    tag_134:\n        /* \"#utility.yul\":3686:3689   */\n      dup5\n        /* \"#utility.yul\":3682:3721   */\n      add\n        /* \"#utility.yul\":3675:3721   */\n      swap2\n      pop\n        /* \"#utility.yul\":3444:3727   */\n      pop\n        /* \"#utility.yul\":3354:3727   */\n      swap3\n      swap2\n      pop\n      pop\n      jump\t// out\n        /* \"#utility.yul\":3733:4042   */\n    tag_27:\n        /* \"#utility.yul\":3844:3848   */\n      0x00\n        /* \"#utility.yul\":3882:3884   */\n      0x20\n        /* \"#utility.yul\":3871:3880   */\n      dup3\n        /* \"#utility.yul\":3867:3885   */\n      add\n        /* \"#utility.yul\":3859:3885   */\n      swap1\n      pop\n        /* \"#utility.yul\":3931:3940   */\n      dup2\n        /* \"#utility.yul\":3925:3929   */\n      dup2\n        /* \"#utility.yul\":3921:3941   */\n      sub\n        /* \"#utility.yul\":3917:3918   */\n      0x00\n        /* \"#utility.yul\":3906:3915   */\n      dup4\n        /* \"#utility.yul\":3902:3919   */\n      add\n        /* \"#utility.yul\":3895:3942   */\n      mstore\n        /* \"#utility.yul\":3959:4035   */\n      tag_136\n        /* \"#utility.yul\":4030:4034   */\n      dup2\n        /* \"#utility.yul\":4021:4027   */\n      dup5\n        /* \"#utility.yul\":3959:4035   */\n      tag_76\n      jump\t// in\n    tag_136:\n        /* \"#utility.yul\":3951:4035   */\n      swap1\n      pop\n        /* \"#utility.yul\":3733:4042   */\n      swap3\n      swap2\n      pop\n      pop\n      jump\t// out\n        /* \"#utility.yul\":4048:4197   */\n    tag_77:\n        /* \"#utility.yul\":4084:4091   */\n      0x00\n        /* \"#utility.yul\":4124:4190   */\n      0xff00000000000000000000000000000000000000000000000000000000000000\n        /* \"#utility.yul\":4117:4122   */\n      dup3\n        /* \"#utility.yul\":4113:4191   */\n      and\n        /* \"#utility.yul\":4102:4191   */\n      swap1\n      pop\n        /* \"#utility.yul\":4048:4197   */\n      swap2\n      swap1\n      pop\n      jump\t// out\n        /* \"#utility.yul\":4203:4281   */\n    tag_78:\n        /* \"#utility.yul\":4241:4248   */\n      0x00\n        /* \"#utility.yul\":4270:4275   */\n      dup2\n        /* \"#utility.yul\":4259:4275   */\n      swap1\n      pop\n        /* \"#utility.yul\":4203:4281   */\n      swap2\n      swap1\n      pop\n      jump\t// out\n        /* \"#utility.yul\":4287:4440   */\n    tag_79:\n        /* \"#utility.yul\":4390:4433   */\n      tag_140\n        /* \"#utility.yul\":4409:4432   */\n      tag_141\n        /* \"#utility.yul\":4426:4431   */\n      dup3\n        /* \"#utility.yul\":4409:4432   */\n      tag_77\n      jump\t// in\n    tag_141:\n        /* \"#utility.yul\":4390:4433   */\n      tag_78\n      jump\t// in\n    tag_140:\n        /* \"#utility.yul\":4385:4388   */\n      dup3\n        /* \"#utility.yul\":4378:4434   */\n      mstore\n        /* \"#utility.yul\":4287:4440   */\n      pop\n      pop\n      jump\t// out\n        /* \"#utility.yul\":4446:4540   */\n    tag_80:\n        /* \"#utility.yul\":4479:4487   */\n      0x00\n        /* \"#utility.yul\":4527:4532   */\n      dup2\n        /* \"#utility.yul\":4523:4525   */\n      0x60\n        /* \"#utility.yul\":4519:4533   */\n      shl\n        /* \"#utility.yul\":4498:4533   */\n      swap1\n      pop\n        /* \"#utility.yul\":4446:4540   */\n      swap2\n      swap1\n      pop\n      jump\t// out\n        /* \"#utility.yul\":4546:4640   */\n    tag_81:\n        /* \"#utility.yul\":4585:4592   */\n      0x00\n        /* \"#utility.yul\":4614:4634   */\n      tag_144\n        /* \"#utility.yul\":4628:4633   */\n      dup3\n        /* \"#utility.yul\":4614:4634   */\n      tag_80\n      jump\t// in\n    tag_144:\n        /* \"#utility.yul\":4603:4634   */\n      swap1\n      pop\n        /* \"#utility.yul\":4546:4640   */\n      swap2\n      swap1\n      pop\n      jump\t// out\n        /* \"#utility.yul\":4646:4746   */\n    tag_82:\n        /* \"#utility.yul\":4685:4692   */\n      0x00\n        /* \"#utility.yul\":4714:4740   */\n      tag_146\n        /* \"#utility.yul\":4734:4739   */\n      dup3\n        /* \"#utility.yul\":4714:4740   */\n      tag_81\n      jump\t// in\n    tag_146:\n        /* \"#utility.yul\":4703:4740   */\n      swap1\n      pop\n        /* \"#utility.yul\":4646:4746   */\n      swap2\n      swap1\n      pop\n      jump\t// out\n        /* \"#utility.yul\":4752:4909   */\n    tag_83:\n        /* \"#utility.yul\":4857:4902   */\n      tag_148\n        /* \"#utility.yul\":4877:4901   */\n      tag_149\n        /* \"#utility.yul\":4895:4900   */\n      dup3\n        /* \"#utility.yul\":4877:4901   */\n      tag_64\n      jump\t// in\n    tag_149:\n        /* \"#utility.yul\":4857:4902   */\n      tag_82\n      jump\t// in\n    tag_148:\n        /* \"#utility.yul\":4852:4855   */\n      dup3\n        /* \"#utility.yul\":4845:4903   */\n      mstore\n        /* \"#utility.yul\":4752:4909   */\n      pop\n      pop\n      jump\t// out\n        /* \"#utility.yul\":4915:4994   */\n    tag_84:\n        /* \"#utility.yul\":4954:4961   */\n      0x00\n        /* \"#utility.yul\":4983:4988   */\n      dup2\n        /* \"#utility.yul\":4972:4988   */\n      swap1\n      pop\n        /* \"#utility.yul\":4915:4994   */\n      swap2\n      swap1\n      pop\n      jump\t// out\n        /* \"#utility.yul\":5000:5157   */\n    tag_85:\n        /* \"#utility.yul\":5105:5150   */\n      tag_152\n        /* \"#utility.yul\":5125:5149   */\n      tag_153\n        /* \"#utility.yul\":5143:5148   */\n      dup3\n        /* \"#utility.yul\":5125:5149   */\n      tag_67\n      jump\t// in\n    tag_153:\n        /* \"#utility.yul\":5105:5150   */\n      tag_84\n      jump\t// in\n    tag_152:\n        /* \"#utility.yul\":5100:5103   */\n      dup3\n        /* \"#utility.yul\":5093:5151   */\n      mstore\n        /* \"#utility.yul\":5000:5157   */\n      pop\n      pop\n      jump\t// out\n        /* \"#utility.yul\":5163:5837   */\n    tag_36:\n        /* \"#utility.yul\":5357:5360   */\n      0x00\n        /* \"#utility.yul\":5372:5445   */\n      tag_155\n        /* \"#utility.yul\":5441:5444   */\n      dup3\n        /* \"#utility.yul\":5432:5438   */\n      dup8\n        /* \"#utility.yul\":5372:5445   */\n      tag_79\n      jump\t// in\n    tag_155:\n        /* \"#utility.yul\":5470:5471   */\n      0x01\n        /* \"#utility.yul\":5465:5468   */\n      dup3\n        /* \"#utility.yul\":5461:5472   */\n      add\n        /* \"#utility.yul\":5454:5472   */\n      swap2\n      pop\n        /* \"#utility.yul\":5482:5557   */\n      tag_156\n        /* \"#utility.yul\":5553:5556   */\n      dup3\n        /* \"#utility.yul\":5544:5550   */\n      dup7\n        /* \"#utility.yul\":5482:5557   */\n      tag_83\n      jump\t// in\n    tag_156:\n        /* \"#utility.yul\":5582:5584   */\n      0x14\n        /* \"#utility.yul\":5577:5580   */\n      dup3\n        /* \"#utility.yul\":5573:5585   */\n      add\n        /* \"#utility.yul\":5566:5585   */\n      swap2\n      pop\n        /* \"#utility.yul\":5595:5670   */\n      tag_157\n        /* \"#utility.yul\":5666:5669   */\n      dup3\n        /* \"#utility.yul\":5657:5663   */\n      dup6\n        /* \"#utility.yul\":5595:5670   */\n      tag_85\n      jump\t// in\n    tag_157:\n        /* \"#utility.yul\":5695:5697   */\n      0x20\n        /* \"#utility.yul\":5690:5693   */\n      dup3\n        /* \"#utility.yul\":5686:5698   */\n      add\n        /* \"#utility.yul\":5679:5698   */\n      swap2\n      pop\n        /* \"#utility.yul\":5708:5783   */\n      tag_158\n        /* \"#utility.yul\":5779:5782   */\n      dup3\n        /* \"#utility.yul\":5770:5776   */\n      dup5\n        /* \"#utility.yul\":5708:5783   */\n      tag_85\n      jump\t// in\n    tag_158:\n        /* \"#utility.yul\":5808:5810   */\n      0x20\n        /* \"#utility.yul\":5803:5806   */\n      dup3\n        /* \"#utility.yul\":5799:5811   */\n      add\n        /* \"#utility.yul\":5792:5811   */\n      swap2\n      pop\n        /* \"#utility.yul\":5828:5831   */\n      dup2\n        /* \"#utility.yul\":5821:5831   */\n      swap1\n      pop\n        /* \"#utility.yul\":5163:5837   */\n      swap6\n      swap5\n      pop\n      pop\n      pop\n      pop\n      pop\n      jump\t// out\n        /* \"#utility.yul\":5843:6175   */\n    tag_42:\n        /* \"#utility.yul\":5964:5968   */\n      0x00\n        /* \"#utility.yul\":6002:6004   */\n      0x40\n        /* \"#utility.yul\":5991:6000   */\n      dup3\n        /* \"#utility.yul\":5987:6005   */\n      add\n        /* \"#utility.yul\":5979:6005   */\n      swap1\n      pop\n        /* \"#utility.yul\":6015:6086   */\n      tag_160\n        /* \"#utility.yul\":6083:6084   */\n      0x00\n        /* \"#utility.yul\":6072:6081   */\n      dup4\n        /* \"#utility.yul\":6068:6085   */\n      add\n        /* \"#utility.yul\":6059:6065   */\n      dup6\n        /* \"#utility.yul\":6015:6086   */\n      tag_70\n      jump\t// in\n    tag_160:\n        /* \"#utility.yul\":6096:6168   */\n      tag_161\n        /* \"#utility.yul\":6164:6166   */\n      0x20\n        /* \"#utility.yul\":6153:6162   */\n      dup4\n        /* \"#utility.yul\":6149:6167   */\n      add\n        /* \"#utility.yul\":6140:6146   */\n      dup5\n        /* \"#utility.yul\":6096:6168   */\n      tag_71\n      jump\t// in\n    tag_161:\n        /* \"#utility.yul\":5843:6175   */\n      swap4\n      swap3\n      pop\n      pop\n      pop\n      jump\t// out\n        /* \"#utility.yul\":6181:6324   */\n    tag_86:\n        /* \"#utility.yul\":6238:6243   */\n      0x00\n        /* \"#utility.yul\":6269:6275   */\n      dup2\n        /* \"#utility.yul\":6263:6276   */\n      mload\n        /* \"#utility.yul\":6254:6276   */\n      swap1\n      pop\n        /* \"#utility.yul\":6285:6318   */\n      tag_163\n        /* \"#utility.yul\":6312:6317   */\n      dup2\n        /* \"#utility.yul\":6285:6318   */\n      tag_65\n      jump\t// in\n    tag_163:\n        /* \"#utility.yul\":6181:6324   */\n      swap3\n      swap2\n      pop\n      pop\n      jump\t// out\n        /* \"#utility.yul\":6330:6681   */\n    tag_50:\n        /* \"#utility.yul\":6400:6406   */\n      0x00\n        /* \"#utility.yul\":6449:6451   */\n      0x20\n        /* \"#utility.yul\":6437:6446   */\n      dup3\n        /* \"#utility.yul\":6428:6435   */\n      dup5\n        /* \"#utility.yul\":6424:6447   */\n      sub\n        /* \"#utility.yul\":6420:6452   */\n      slt\n        /* \"#utility.yul\":6417:6536   */\n      iszero\n      tag_165\n      jumpi\n        /* \"#utility.yul\":6455:6534   */\n      tag_166\n      tag_61\n      jump\t// in\n    tag_166:\n        /* \"#utility.yul\":6417:6536   */\n    tag_165:\n        /* \"#utility.yul\":6575:6576   */\n      0x00\n        /* \"#utility.yul\":6600:6664   */\n      tag_167\n        /* \"#utility.yul\":6656:6663   */\n      dup5\n        /* \"#utility.yul\":6647:6653   */\n      dup3\n        /* \"#utility.yul\":6636:6645   */\n      dup6\n        /* \"#utility.yul\":6632:6654   */\n      add\n        /* \"#utility.yul\":6600:6664   */\n      tag_86\n      jump\t// in\n    tag_167:\n        /* \"#utility.yul\":6590:6664   */\n      swap2\n      pop\n        /* \"#utility.yul\":6546:6674   */\n      pop\n        /* \"#utility.yul\":6330:6681   */\n      swap3\n      swap2\n      pop\n      pop\n      jump\t// out\n        /* \"#utility.yul\":6687:6867   */\n    tag_87:\n        /* \"#utility.yul\":6735:6812   */\n      0x4e487b7100000000000000000000000000000000000000000000000000000000\n        /* \"#utility.yul\":6732:6733   */\n      0x00\n        /* \"#utility.yul\":6725:6813   */\n      mstore\n        /* \"#utility.yul\":6832:6836   */\n      0x22\n        /* \"#utility.yul\":6829:6830   */\n      0x04\n        /* \"#utility.yul\":6822:6837   */\n      mstore\n        /* \"#utility.yul\":6856:6860   */\n      0x24\n        /* \"#utility.yul\":6853:6854   */\n      0x00\n        /* \"#utility.yul\":6846:6861   */\n      revert\n        /* \"#utility.yul\":6873:7193   */\n    tag_55:\n        /* \"#utility.yul\":6917:6923   */\n      0x00\n        /* \"#utility.yul\":6954:6955   */\n      0x02\n        /* \"#utility.yul\":6948:6952   */\n      dup3\n        /* \"#utility.yul\":6944:6956   */\n      div\n        /* \"#utility.yul\":6934:6956   */\n      swap1\n      pop\n        /* \"#utility.yul\":7001:7002   */\n      0x01\n        /* \"#utility.yul\":6995:6999   */\n      dup3\n        /* \"#utility.yul\":6991:7003   */\n      and\n        /* \"#utility.yul\":7022:7040   */\n      dup1\n        /* \"#utility.yul\":7012:7093   */\n      tag_170\n      jumpi\n        /* \"#utility.yul\":7078:7082   */\n      0x7f\n        /* \"#utility.yul\":7070:7076   */\n      dup3\n        /* \"#utility.yul\":7066:7083   */\n      and\n        /* \"#utility.yul\":7056:7083   */\n      swap2\n      pop\n        /* \"#utility.yul\":7012:7093   */\n    tag_170:\n        /* \"#utility.yul\":7140:7142   */\n      0x20\n        /* \"#utility.yul\":7132:7138   */\n      dup3\n        /* \"#utility.yul\":7129:7143   */\n      lt\n        /* \"#utility.yul\":7109:7127   */\n      dup2\n        /* \"#utility.yul\":7106:7144   */\n      sub\n        /* \"#utility.yul\":7103:7187   */\n      tag_171\n      jumpi\n        /* \"#utility.yul\":7159:7177   */\n      tag_172\n      tag_87\n      jump\t// in\n    tag_172:\n        /* \"#utility.yul\":7103:7187   */\n    tag_171:\n        /* \"#utility.yul\":6924:7193   */\n      pop\n        /* \"#utility.yul\":6873:7193   */\n      swap2\n      swap1\n      pop\n      jump\t// out\n    stop\n\n    sub_0: assembly {\n            /* \"shoot/2/create_create\\xe8\\xae\\xa1\\xe7\\xae\\x97/1.sol\":128:394  contract found{... */\n          mstore(0x40, 0x80)\n            /* \"shoot/2/create_create\\xe8\\xae\\xa1\\xe7\\xae\\x97/1.sol\":170:175  false */\n          0x00\n            /* \"shoot/2/create_create\\xe8\\xae\\xa1\\xe7\\xae\\x97/1.sol\":149:175  bool public resove = false */\n          dup1\n          exp(0x0100, 0x00)\n          dup2\n          sload\n          dup2\n          0xff\n          mul\n          not\n          and\n          swap1\n          dup4\n          iszero\n          iszero\n          mul\n          or\n          swap1\n          sstore\n          pop\n            /* \"shoot/2/create_create\\xe8\\xae\\xa1\\xe7\\xae\\x97/1.sol\":188:301  constructor(){... */\n          callvalue\n          dup1\n          iszero\n          tag_1\n          jumpi\n          0x00\n          dup1\n          revert\n        tag_1:\n          pop\n            /* \"shoot/2/create_create\\xe8\\xae\\xa1\\xe7\\xae\\x97/1.sol\":240:251  0.001 ether */\n          0x038d7ea4c68000\n            /* \"shoot/2/create_create\\xe8\\xae\\xa1\\xe7\\xae\\x97/1.sol\":215:236  address(this).balance */\n          selfbalance\n            /* \"shoot/2/create_create\\xe8\\xae\\xa1\\xe7\\xae\\x97/1.sol\":215:251  address(this).balance >= 0.001 ether */\n          lt\n            /* \"shoot/2/create_create\\xe8\\xae\\xa1\\xe7\\xae\\x97/1.sol\":212:292  if(address(this).balance >= 0.001 ether){... */\n          tag_4\n          jumpi\n            /* \"shoot/2/create_create\\xe8\\xae\\xa1\\xe7\\xae\\x97/1.sol\":276:280  true */\n          0x01\n            /* \"shoot/2/create_create\\xe8\\xae\\xa1\\xe7\\xae\\x97/1.sol\":267:273  resove */\n          0x00\n          dup1\n            /* \"shoot/2/create_create\\xe8\\xae\\xa1\\xe7\\xae\\x97/1.sol\":267:280  resove = true */\n          0x0100\n          exp\n          dup2\n          sload\n          dup2\n          0xff\n          mul\n          not\n          and\n          swap1\n          dup4\n          iszero\n          iszero\n          mul\n          or\n          swap1\n          sstore\n          pop\n            /* \"shoot/2/create_create\\xe8\\xae\\xa1\\xe7\\xae\\x97/1.sol\":212:292  if(address(this).balance >= 0.001 ether){... */\n        tag_4:\n            /* \"shoot/2/create_create\\xe8\\xae\\xa1\\xe7\\xae\\x97/1.sol\":128:394  contract found{... */\n          dataSize(sub_0)\n          dup1\n          dataOffset(sub_0)\n          0x00\n          codecopy\n          0x00\n          return\n        stop\n\n        sub_0: assembly {\n                /* \"shoot/2/create_create\\xe8\\xae\\xa1\\xe7\\xae\\x97/1.sol\":128:394  contract found{... */\n              mstore(0x40, 0x80)\n              callvalue\n              dup1\n              iszero\n              tag_1\n              jumpi\n              0x00\n              dup1\n              revert\n            tag_1:\n              pop\n              jumpi(tag_2, lt(calldatasize, 0x04))\n              shr(0xe0, calldataload(0x00))\n              dup1\n              0x4c0f7987\n              eq\n              tag_3\n              jumpi\n              dup1\n              0xac51c67d\n              eq\n              tag_4\n              jumpi\n            tag_2:\n              0x00\n              dup1\n              revert\n                /* \"shoot/2/create_create\\xe8\\xae\\xa1\\xe7\\xae\\x97/1.sol\":313:391  function getResove() public view returns(bool){... */\n            tag_3:\n              tag_5\n              tag_6\n              jump\t// in\n            tag_5:\n              mload(0x40)\n              tag_7\n              swap2\n              swap1\n              tag_8\n              jump\t// in\n            tag_7:\n              mload(0x40)\n              dup1\n              swap2\n              sub\n              swap1\n              return\n                /* \"shoot/2/create_create\\xe8\\xae\\xa1\\xe7\\xae\\x97/1.sol\":149:175  bool public resove = false */\n            tag_4:\n              tag_9\n              tag_10\n              jump\t// in\n            tag_9:\n              mload(0x40)\n              tag_11\n              swap2\n              swap1\n              tag_8\n              jump\t// in\n            tag_11:\n              mload(0x40)\n              dup1\n              swap2\n              sub\n              swap1\n              return\n                /* \"shoot/2/create_create\\xe8\\xae\\xa1\\xe7\\xae\\x97/1.sol\":313:391  function getResove() public view returns(bool){... */\n            tag_6:\n                /* \"shoot/2/create_create\\xe8\\xae\\xa1\\xe7\\xae\\x97/1.sol\":354:358  bool */\n              0x00\n                /* \"shoot/2/create_create\\xe8\\xae\\xa1\\xe7\\xae\\x97/1.sol\":377:383  resove */\n              dup1\n              0x00\n              swap1\n              sload\n              swap1\n              0x0100\n              exp\n              swap1\n              div\n              0xff\n              and\n                /* \"shoot/2/create_create\\xe8\\xae\\xa1\\xe7\\xae\\x97/1.sol\":370:383  return resove */\n              swap1\n              pop\n                /* \"shoot/2/create_create\\xe8\\xae\\xa1\\xe7\\xae\\x97/1.sol\":313:391  function getResove() public view returns(bool){... */\n              swap1\n              jump\t// out\n                /* \"shoot/2/create_create\\xe8\\xae\\xa1\\xe7\\xae\\x97/1.sol\":149:175  bool public resove = false */\n            tag_10:\n              0x00\n              dup1\n              sload\n              swap1\n              0x0100\n              exp\n              swap1\n              div\n              0xff\n              and\n              dup2\n              jump\t// out\n                /* \"#utility.yul\":7:97   */\n            tag_13:\n                /* \"#utility.yul\":41:48   */\n              0x00\n                /* \"#utility.yul\":84:89   */\n              dup2\n                /* \"#utility.yul\":77:90   */\n              iszero\n                /* \"#utility.yul\":70:91   */\n              iszero\n                /* \"#utility.yul\":59:91   */\n              swap1\n              pop\n                /* \"#utility.yul\":7:97   */\n              swap2\n              swap1\n              pop\n              jump\t// out\n                /* \"#utility.yul\":103:212   */\n            tag_14:\n                /* \"#utility.yul\":184:205   */\n              tag_18\n                /* \"#utility.yul\":199:204   */\n              dup2\n                /* \"#utility.yul\":184:205   */\n              tag_13\n              jump\t// in\n            tag_18:\n                /* \"#utility.yul\":179:182   */\n              dup3\n                /* \"#utility.yul\":172:206   */\n              mstore\n                /* \"#utility.yul\":103:212   */\n              pop\n              pop\n              jump\t// out\n                /* \"#utility.yul\":218:428   */\n            tag_8:\n                /* \"#utility.yul\":305:309   */\n              0x00\n                /* \"#utility.yul\":343:345   */\n              0x20\n                /* \"#utility.yul\":332:341   */\n              dup3\n                /* \"#utility.yul\":328:346   */\n              add\n                /* \"#utility.yul\":320:346   */\n              swap1\n              pop\n                /* \"#utility.yul\":356:421   */\n              tag_20\n                /* \"#utility.yul\":418:419   */\n              0x00\n                /* \"#utility.yul\":407:416   */\n              dup4\n                /* \"#utility.yul\":403:420   */\n              add\n                /* \"#utility.yul\":394:400   */\n              dup5\n                /* \"#utility.yul\":356:421   */\n              tag_14\n              jump\t// in\n            tag_20:\n                /* \"#utility.yul\":218:428   */\n              swap3\n              swap2\n              pop\n              pop\n              jump\t// out\n\n            auxdata: 0xa26469706673582212200259156a9f5842f0743c0b146c2ba3571e6524b62428346437df5c22e9393ed664736f6c63430008150033\n        }\n    }\n\n    sub_1: assembly {\n            /* \"shoot/2/create_create\\xe8\\xae\\xa1\\xe7\\xae\\x97/1.sol\":832:1357  contract getnewcontract{... */\n          mstore(0x40, 0x80)\n            /* \"shoot/2/create_create\\xe8\\xae\\xa1\\xe7\\xae\\x97/1.sol\":889:913  type(found).creationCode */\n          mload(0x40)\n          dup1\n          0x20\n          add\n          tag_1\n          swap1\n          tag_2\n          jump\t// in\n        tag_1:\n          0x20\n          dup3\n          add\n          dup2\n          sub\n          dup3\n          mstore\n          not(0x1f)\n          0x1f\n          dup3\n          add\n          and\n          0x40\n          mstore\n          pop\n            /* \"shoot/2/create_create\\xe8\\xae\\xa1\\xe7\\xae\\x97/1.sol\":862:913  bytes public  creatcode1 = type(found).creationCode */\n          0x00\n          swap1\n          dup2\n          tag_3\n          swap2\n          swap1\n          tag_4\n          jump\t// in\n        tag_3:\n          pop\n            /* \"shoot/2/create_create\\xe8\\xae\\xa1\\xe7\\xae\\x97/1.sol\":949:959  creatcode1 */\n          0x00\n            /* \"shoot/2/create_create\\xe8\\xae\\xa1\\xe7\\xae\\x97/1.sol\":939:960  keccak256(creatcode1) */\n          mload(0x40)\n          tag_5\n          swap2\n          swap1\n          tag_6\n          jump\t// in\n        tag_5:\n          mload(0x40)\n          dup1\n          swap2\n          sub\n          swap1\n          keccak256\n            /* \"shoot/2/create_create\\xe8\\xae\\xa1\\xe7\\xae\\x97/1.sol\":920:960  bytes32 public g = keccak256(creatcode1) */\n          0x01\n          sstore\n            /* \"shoot/2/create_create\\xe8\\xae\\xa1\\xe7\\xae\\x97/1.sol\":832:1357  contract getnewcontract{... */\n          jump(tag_9)\n        tag_2:\n          dataSize(sub_1)\n          dup1\n          dataOffset(sub_1)\n          dup4\n          codecopy\n          add\n          swap1\n          jump\t// out\n            /* \"#utility.yul\":7:105   */\n        tag_10:\n            /* \"#utility.yul\":58:64   */\n          0x00\n            /* \"#utility.yul\":92:97   */\n          dup2\n            /* \"#utility.yul\":86:98   */\n          mload\n            /* \"#utility.yul\":76:98   */\n          swap1\n          pop\n            /* \"#utility.yul\":7:105   */\n          swap2\n          swap1\n          pop\n          jump\t// out\n            /* \"#utility.yul\":111:291   */\n        tag_11:\n            /* \"#utility.yul\":159:236   */\n          0x4e487b7100000000000000000000000000000000000000000000000000000000\n            /* \"#utility.yul\":156:157   */\n          0x00\n            /* \"#utility.yul\":149:237   */\n          mstore\n            /* \"#utility.yul\":256:260   */\n          0x41\n            /* \"#utility.yul\":253:254   */\n          0x04\n            /* \"#utility.yul\":246:261   */\n          mstore\n            /* \"#utility.yul\":280:284   */\n          0x24\n            /* \"#utility.yul\":277:278   */\n          0x00\n            /* \"#utility.yul\":270:285   */\n          revert\n            /* \"#utility.yul\":297:477   */\n        tag_12:\n            /* \"#utility.yul\":345:422   */\n          0x4e487b7100000000000000000000000000000000000000000000000000000000\n            /* \"#utility.yul\":342:343   */\n          0x00\n            /* \"#utility.yul\":335:423   */\n          mstore\n            /* \"#utility.yul\":442:446   */\n          0x22\n            /* \"#utility.yul\":439:440   */\n          0x04\n            /* \"#utility.yul\":432:447   */\n          mstore\n            /* \"#utility.yul\":466:470   */\n          0x24\n            /* \"#utility.yul\":463:464   */\n          0x00\n            /* \"#utility.yul\":456:471   */\n          revert\n            /* \"#utility.yul\":483:803   */\n        tag_13:\n            /* \"#utility.yul\":527:533   */\n          0x00\n            /* \"#utility.yul\":564:565   */\n          0x02\n            /* \"#utility.yul\":558:562   */\n          dup3\n            /* \"#utility.yul\":554:566   */\n          div\n            /* \"#utility.yul\":544:566   */\n          swap1\n          pop\n            /* \"#utility.yul\":611:612   */\n          0x01\n            /* \"#utility.yul\":605:609   */\n          dup3\n            /* \"#utility.yul\":601:613   */\n          and\n            /* \"#utility.yul\":632:650   */\n          dup1\n            /* \"#utility.yul\":622:703   */\n          tag_37\n          jumpi\n            /* \"#utility.yul\":688:692   */\n          0x7f\n            /* \"#utility.yul\":680:686   */\n          dup3\n            /* \"#utility.yul\":676:693   */\n          and\n            /* \"#utility.yul\":666:693   */\n          swap2\n          pop\n            /* \"#utility.yul\":622:703   */\n        tag_37:\n            /* \"#utility.yul\":750:752   */\n          0x20\n            /* \"#utility.yul\":742:748   */\n          dup3\n            /* \"#utility.yul\":739:753   */\n          lt\n            /* \"#utility.yul\":719:737   */\n          dup2\n            /* \"#utility.yul\":716:754   */\n          sub\n            /* \"#utility.yul\":713:797   */\n          tag_38\n          jumpi\n            /* \"#utility.yul\":769:787   */\n          tag_39\n          tag_12\n          jump\t// in\n        tag_39:\n            /* \"#utility.yul\":713:797   */\n        tag_38:\n            /* \"#utility.yul\":534:803   */\n          pop\n            /* \"#utility.yul\":483:803   */\n          swap2\n          swap1\n          pop\n          jump\t// out\n            /* \"#utility.yul\":809:949   */\n        tag_14:\n            /* \"#utility.yul\":857:861   */\n          0x00\n            /* \"#utility.yul\":880:883   */\n          dup2\n            /* \"#utility.yul\":872:883   */\n          swap1\n          pop\n            /* \"#utility.yul\":903:906   */\n          dup2\n            /* \"#utility.yul\":900:901   */\n          0x00\n            /* \"#utility.yul\":893:907   */\n          mstore\n            /* \"#utility.yul\":937:941   */\n          0x20\n            /* \"#utility.yul\":934:935   */\n          0x00\n            /* \"#utility.yul\":924:942   */\n          keccak256\n            /* \"#utility.yul\":916:942   */\n          swap1\n          pop\n            /* \"#utility.yul\":809:949   */\n          swap2\n          swap1\n          pop\n          jump\t// out\n            /* \"#utility.yul\":955:1048   */\n        tag_15:\n            /* \"#utility.yul\":992:998   */\n          0x00\n            /* \"#utility.yul\":1039:1041   */\n          0x20\n            /* \"#utility.yul\":1034:1036   */\n          0x1f\n            /* \"#utility.yul\":1027:1032   */\n          dup4\n            /* \"#utility.yul\":1023:1037   */\n          add\n            /* \"#utility.yul\":1019:1042   */\n          div\n            /* \"#utility.yul\":1009:1042   */\n          swap1\n          pop\n            /* \"#utility.yul\":955:1048   */\n          swap2\n          swap1\n          pop\n          jump\t// out\n            /* \"#utility.yul\":1054:1161   */\n        tag_16:\n            /* \"#utility.yul\":1098:1106   */\n          0x00\n            /* \"#utility.yul\":1148:1153   */\n          dup3\n            /* \"#utility.yul\":1142:1146   */\n          dup3\n            /* \"#utility.yul\":1138:1154   */\n          shl\n            /* \"#utility.yul\":1117:1154   */\n          swap1\n          pop\n            /* \"#utility.yul\":1054:1161   */\n          swap3\n          swap2\n          pop\n          pop\n          jump\t// out\n            /* \"#utility.yul\":1167:1560   */\n        tag_17:\n            /* \"#utility.yul\":1236:1242   */\n          0x00\n            /* \"#utility.yul\":1286:1287   */\n          0x08\n            /* \"#utility.yul\":1274:1284   */\n          dup4\n            /* \"#utility.yul\":1270:1288   */\n          mul\n            /* \"#utility.yul\":1309:1406   */\n          tag_44\n            /* \"#utility.yul\":1339:1405   */\n          0xffffffffffffffffffffffffffffffffffffffffffffffffffffffffffffffff\n            /* \"#utility.yul\":1328:1337   */\n          dup3\n            /* \"#utility.yul\":1309:1406   */\n          tag_16\n          jump\t// in\n        tag_44:\n            /* \"#utility.yul\":1427:1466   */\n          tag_45\n            /* \"#utility.yul\":1457:1465   */\n          dup7\n            /* \"#utility.yul\":1446:1455   */\n          dup4\n            /* \"#utility.yul\":1427:1466   */\n          tag_16\n          jump\t// in\n        tag_45:\n            /* \"#utility.yul\":1415:1466   */\n          swap6\n          pop\n            /* \"#utility.yul\":1499:1503   */\n          dup1\n            /* \"#utility.yul\":1495:1504   */\n          not\n            /* \"#utility.yul\":1488:1493   */\n          dup5\n            /* \"#utility.yul\":1484:1505   */\n          and\n            /* \"#utility.yul\":1475:1505   */\n          swap4\n          pop\n            /* \"#utility.yul\":1548:1552   */\n          dup1\n            /* \"#utility.yul\":1538:1546   */\n          dup7\n            /* \"#utility.yul\":1534:1553   */\n          and\n            /* \"#utility.yul\":1527:1532   */\n          dup5\n            /* \"#utility.yul\":1524:1554   */\n          or\n            /* \"#utility.yul\":1514:1554   */\n          swap3\n          pop\n            /* \"#utility.yul\":1243:1560   */\n          pop\n          pop\n            /* \"#utility.yul\":1167:1560   */\n          swap4\n          swap3\n          pop\n          pop\n          pop\n          jump\t// out\n            /* \"#utility.yul\":1566:1643   */\n        tag_18:\n            /* \"#utility.yul\":1603:1610   */\n          0x00\n            /* \"#utility.yul\":1632:1637   */\n          dup2\n            /* \"#utility.yul\":1621:1637   */\n          swap1\n          pop\n            /* \"#utility.yul\":1566:1643   */\n          swap2\n          swap1\n          pop\n          jump\t// out\n            /* \"#utility.yul\":1649:1709   */\n        tag_19:\n            /* \"#utility.yul\":1677:1680   */\n          0x00\n            /* \"#utility.yul\":1698:1703   */\n          dup2\n            /* \"#utility.yul\":1691:1703   */\n          swap1\n          pop\n            /* \"#utility.yul\":1649:1709   */\n          swap2\n          swap1\n          pop\n          jump\t// out\n            /* \"#utility.yul\":1715:1857   */\n        tag_20:\n            /* \"#utility.yul\":1765:1774   */\n          0x00\n            /* \"#utility.yul\":1798:1851   */\n          tag_49\n            /* \"#utility.yul\":1816:1850   */\n          tag_50\n            /* \"#utility.yul\":1825:1849   */\n          tag_51\n            /* \"#utility.yul\":1843:1848   */\n          dup5\n            /* \"#utility.yul\":1825:1849   */\n          tag_18\n          jump\t// in\n        tag_51:\n            /* \"#utility.yul\":1816:1850   */\n          tag_19\n          jump\t// in\n        tag_50:\n            /* \"#utility.yul\":1798:1851   */\n          tag_18\n          jump\t// in\n        tag_49:\n            /* \"#utility.yul\":1785:1851   */\n          swap1\n          pop\n            /* \"#utility.yul\":1715:1857   */\n          swap2\n          swap1\n          pop\n          jump\t// out\n            /* \"#utility.yul\":1863:1938   */\n        tag_21:\n            /* \"#utility.yul\":1906:1909   */\n          0x00\n            /* \"#utility.yul\":1927:1932   */\n          dup2\n            /* \"#utility.yul\":1920:1932   */\n          swap1\n          pop\n            /* \"#utility.yul\":1863:1938   */\n          swap2\n          swap1\n          pop\n          jump\t// out\n            /* \"#utility.yul\":1944:2213   */\n        tag_22:\n            /* \"#utility.yul\":2054:2093   */\n          tag_54\n            /* \"#utility.yul\":2085:2092   */\n          dup4\n            /* \"#utility.yul\":2054:2093   */\n          tag_20\n          jump\t// in\n        tag_54:\n            /* \"#utility.yul\":2115:2206   */\n          tag_55\n            /* \"#utility.yul\":2164:2205   */\n          tag_56\n            /* \"#utility.yul\":2188:2204   */\n          dup3\n            /* \"#utility.yul\":2164:2205   */\n          tag_21\n          jump\t// in\n        tag_56:\n            /* \"#utility.yul\":2156:2162   */\n          dup5\n            /* \"#utility.yul\":2149:2153   */\n          dup5\n            /* \"#utility.yul\":2143:2154   */\n          sload\n            /* \"#utility.yul\":2115:2206   */\n          tag_17\n          jump\t// in\n        tag_55:\n            /* \"#utility.yul\":2109:2113   */\n          dup3\n            /* \"#utility.yul\":2102:2207   */\n          sstore\n            /* \"#utility.yul\":2020:2213   */\n          pop\n            /* \"#utility.yul\":1944:2213   */\n          pop\n          pop\n          pop\n          jump\t// out\n            /* \"#utility.yul\":2219:2292   */\n        tag_23:\n            /* \"#utility.yul\":2264:2267   */\n          0x00\n            /* \"#utility.yul\":2219:2292   */\n          swap1\n          jump\t// out\n            /* \"#utility.yul\":2298:2487   */\n        tag_24:\n            /* \"#utility.yul\":2375:2407   */\n          tag_59\n          tag_23\n          jump\t// in\n        tag_59:\n            /* \"#utility.yul\":2416:2481   */\n          tag_60\n            /* \"#utility.yul\":2474:2480   */\n          dup2\n            /* \"#utility.yul\":2466:2472   */\n          dup5\n            /* \"#utility.yul\":2460:2464   */\n          dup5\n            /* \"#utility.yul\":2416:2481   */\n          tag_22\n          jump\t// in\n        tag_60:\n            /* \"#utility.yul\":2351:2487   */\n          pop\n            /* \"#utility.yul\":2298:2487   */\n          pop\n          pop\n          jump\t// out\n            /* \"#utility.yul\":2493:2679   */\n        tag_25:\n            /* \"#utility.yul\":2553:2673   */\n        tag_62:\n            /* \"#utility.yul\":2570:2573   */\n          dup2\n            /* \"#utility.yul\":2563:2568   */\n          dup2\n            /* \"#utility.yul\":2560:2574   */\n          lt\n            /* \"#utility.yul\":2553:2673   */\n          iszero\n          tag_64\n          jumpi\n            /* \"#utility.yul\":2624:2663   */\n          tag_65\n            /* \"#utility.yul\":2661:2662   */\n          0x00\n            /* \"#utility.yul\":2654:2659   */\n          dup3\n            /* \"#utility.yul\":2624:2663   */\n          tag_24\n          jump\t// in\n        tag_65:\n            /* \"#utility.yul\":2597:2598   */\n          0x01\n            /* \"#utility.yul\":2590:2595   */\n          dup2\n            /* \"#utility.yul\":2586:2599   */\n          add\n            /* \"#utility.yul\":2577:2599   */\n          swap1\n          pop\n            /* \"#utility.yul\":2553:2673   */\n          jump(tag_62)\n        tag_64:\n            /* \"#utility.yul\":2493:2679   */\n          pop\n          pop\n          jump\t// out\n            /* \"#utility.yul\":2685:3226   */\n        tag_26:\n            /* \"#utility.yul\":2785:2787   */\n          0x1f\n            /* \"#utility.yul\":2780:2783   */\n          dup3\n            /* \"#utility.yul\":2777:2788   */\n          gt\n            /* \"#utility.yul\":2774:3219   */\n          iszero\n          tag_67\n          jumpi\n            /* \"#utility.yul\":2819:2856   */\n          tag_68\n            /* \"#utility.yul\":2850:2855   */\n          dup2\n            /* \"#utility.yul\":2819:2856   */\n          tag_14\n          jump\t// in\n        tag_68:\n            /* \"#utility.yul\":2902:2931   */\n          tag_69\n            /* \"#utility.yul\":2920:2930   */\n          dup5\n            /* \"#utility.yul\":2902:2931   */\n          tag_15\n          jump\t// in\n        tag_69:\n            /* \"#utility.yul\":2892:2900   */\n          dup2\n            /* \"#utility.yul\":2888:2932   */\n          add\n            /* \"#utility.yul\":3085:3087   */\n          0x20\n            /* \"#utility.yul\":3073:3083   */\n          dup6\n            /* \"#utility.yul\":3070:3088   */\n          lt\n            /* \"#utility.yul\":3067:3116   */\n          iszero\n          tag_70\n          jumpi\n            /* \"#utility.yul\":3106:3114   */\n          dup2\n            /* \"#utility.yul\":3091:3114   */\n          swap1\n          pop\n            /* \"#utility.yul\":3067:3116   */\n        tag_70:\n            /* \"#utility.yul\":3129:3209   */\n          tag_71\n            /* \"#utility.yul\":3185:3207   */\n          tag_72\n            /* \"#utility.yul\":3203:3206   */\n          dup6\n            /* \"#utility.yul\":3185:3207   */\n          tag_15\n          jump\t// in\n        tag_72:\n            /* \"#utility.yul\":3175:3183   */\n          dup4\n            /* \"#utility.yul\":3171:3208   */\n          add\n            /* \"#utility.yul\":3158:3169   */\n          dup3\n            /* \"#utility.yul\":3129:3209   */\n          tag_25\n          jump\t// in\n        tag_71:\n            /* \"#utility.yul\":2789:3219   */\n          pop\n          pop\n            /* \"#utility.yul\":2774:3219   */\n        tag_67:\n            /* \"#utility.yul\":2685:3226   */\n          pop\n          pop\n          pop\n          jump\t// out\n            /* \"#utility.yul\":3232:3349   */\n        tag_27:\n            /* \"#utility.yul\":3286:3294   */\n          0x00\n            /* \"#utility.yul\":3336:3341   */\n          dup3\n            /* \"#utility.yul\":3330:3334   */\n          dup3\n            /* \"#utility.yul\":3326:3342   */\n          shr\n            /* \"#utility.yul\":3305:3342   */\n          swap1\n          pop\n            /* \"#utility.yul\":3232:3349   */\n          swap3\n          swap2\n          pop\n          pop\n          jump\t// out\n            /* \"#utility.yul\":3355:3524   */\n        tag_28:\n            /* \"#utility.yul\":3399:3405   */\n          0x00\n            /* \"#utility.yul\":3432:3483   */\n          tag_75\n            /* \"#utility.yul\":3480:3481   */\n          0x00\n            /* \"#utility.yul\":3476:3482   */\n          not\n            /* \"#utility.yul\":3468:3473   */\n          dup5\n            /* \"#utility.yul\":3465:3466   */\n          0x08\n            /* \"#utility.yul\":3461:3474   */\n          mul\n            /* \"#utility.yul\":3432:3483   */\n          tag_27\n          jump\t// in\n        tag_75:\n            /* \"#utility.yul\":3428:3484   */\n          not\n            /* \"#utility.yul\":3513:3517   */\n          dup1\n            /* \"#utility.yul\":3507:3511   */\n          dup4\n            /* \"#utility.yul\":3503:3518   */\n          and\n            /* \"#utility.yul\":3493:3518   */\n          swap2\n          pop\n            /* \"#utility.yul\":3406:3524   */\n          pop\n            /* \"#utility.yul\":3355:3524   */\n          swap3\n          swap2\n          pop\n          pop\n          jump\t// out\n            /* \"#utility.yul\":3529:3824   */\n        tag_29:\n            /* \"#utility.yul\":3605:3609   */\n          0x00\n            /* \"#utility.yul\":3751:3780   */\n          tag_77\n            /* \"#utility.yul\":3776:3779   */\n          dup4\n            /* \"#utility.yul\":3770:3774   */\n          dup4\n            /* \"#utility.yul\":3751:3780   */\n          tag_28\n          jump\t// in\n        tag_77:\n            /* \"#utility.yul\":3743:3780   */\n          swap2\n          pop\n            /* \"#utility.yul\":3813:3816   */\n          dup3\n            /* \"#utility.yul\":3810:3811   */\n          0x02\n            /* \"#utility.yul\":3806:3817   */\n          mul\n            /* \"#utility.yul\":3800:3804   */\n          dup3\n            /* \"#utility.yul\":3797:3818   */\n          or\n            /* \"#utility.yul\":3789:3818   */\n          swap1\n          pop\n            /* \"#utility.yul\":3529:3824   */\n          swap3\n          swap2\n          pop\n          pop\n          jump\t// out\n            /* \"#utility.yul\":3829:5219   */\n        tag_4:\n            /* \"#utility.yul\":3944:3980   */\n          tag_79\n            /* \"#utility.yul\":3976:3979   */\n          dup3\n            /* \"#utility.yul\":3944:3980   */\n          tag_10\n          jump\t// in\n        tag_79:\n            /* \"#utility.yul\":4045:4063   */\n          0xffffffffffffffff\n            /* \"#utility.yul\":4037:4043   */\n          dup2\n            /* \"#utility.yul\":4034:4064   */\n          gt\n            /* \"#utility.yul\":4031:4087   */\n          iszero\n          tag_80\n          jumpi\n            /* \"#utility.yul\":4067:4085   */\n          tag_81\n          tag_11\n          jump\t// in\n        tag_81:\n            /* \"#utility.yul\":4031:4087   */\n        tag_80:\n            /* \"#utility.yul\":4111:4149   */\n          tag_82\n            /* \"#utility.yul\":4143:4147   */\n          dup3\n            /* \"#utility.yul\":4137:4148   */\n          sload\n            /* \"#utility.yul\":4111:4149   */\n          tag_13\n          jump\t// in\n        tag_82:\n            /* \"#utility.yul\":4196:4262   */\n          tag_83\n            /* \"#utility.yul\":4255:4261   */\n          dup3\n            /* \"#utility.yul\":4247:4253   */\n          dup3\n            /* \"#utility.yul\":4241:4245   */\n          dup6\n            /* \"#utility.yul\":4196:4262   */\n          tag_26\n          jump\t// in\n        tag_83:\n            /* \"#utility.yul\":4289:4290   */\n          0x00\n            /* \"#utility.yul\":4313:4317   */\n          0x20\n            /* \"#utility.yul\":4300:4317   */\n          swap1\n          pop\n            /* \"#utility.yul\":4345:4347   */\n          0x1f\n            /* \"#utility.yul\":4337:4343   */\n          dup4\n            /* \"#utility.yul\":4334:4348   */\n          gt\n            /* \"#utility.yul\":4362:4363   */\n          0x01\n            /* \"#utility.yul\":4357:4974   */\n          dup2\n          eq\n          tag_85\n          jumpi\n            /* \"#utility.yul\":5018:5019   */\n          0x00\n            /* \"#utility.yul\":5035:5041   */\n          dup5\n            /* \"#utility.yul\":5032:5109   */\n          iszero\n          tag_86\n          jumpi\n            /* \"#utility.yul\":5084:5093   */\n          dup3\n            /* \"#utility.yul\":5079:5082   */\n          dup8\n            /* \"#utility.yul\":5075:5094   */\n          add\n            /* \"#utility.yul\":5069:5095   */\n          mload\n            /* \"#utility.yul\":5060:5095   */\n          swap1\n          pop\n            /* \"#utility.yul\":5032:5109   */\n        tag_86:\n            /* \"#utility.yul\":5135:5202   */\n          tag_87\n            /* \"#utility.yul\":5195:5201   */\n          dup6\n            /* \"#utility.yul\":5188:5193   */\n          dup3\n            /* \"#utility.yul\":5135:5202   */\n          tag_29\n          jump\t// in\n        tag_87:\n            /* \"#utility.yul\":5129:5133   */\n          dup7\n            /* \"#utility.yul\":5122:5203   */\n          sstore\n            /* \"#utility.yul\":4991:5213   */\n          pop\n            /* \"#utility.yul\":4327:5213   */\n          jump(tag_84)\n            /* \"#utility.yul\":4357:4974   */\n        tag_85:\n            /* \"#utility.yul\":4409:4413   */\n          0x1f\n            /* \"#utility.yul\":4405:4414   */\n          not\n            /* \"#utility.yul\":4397:4403   */\n          dup5\n            /* \"#utility.yul\":4393:4415   */\n          and\n            /* \"#utility.yul\":4443:4479   */\n          tag_88\n            /* \"#utility.yul\":4474:4478   */\n          dup7\n            /* \"#utility.yul\":4443:4479   */\n          tag_14\n          jump\t// in\n        tag_88:\n            /* \"#utility.yul\":4501:4502   */\n          0x00\n            /* \"#utility.yul\":4515:4723   */\n        tag_89:\n            /* \"#utility.yul\":4529:4536   */\n          dup3\n            /* \"#utility.yul\":4526:4527   */\n          dup2\n            /* \"#utility.yul\":4523:4537   */\n          lt\n            /* \"#utility.yul\":4515:4723   */\n          iszero\n          tag_91\n          jumpi\n            /* \"#utility.yul\":4608:4617   */\n          dup5\n            /* \"#utility.yul\":4603:4606   */\n          dup10\n            /* \"#utility.yul\":4599:4618   */\n          add\n            /* \"#utility.yul\":4593:4619   */\n          mload\n            /* \"#utility.yul\":4585:4591   */\n          dup3\n            /* \"#utility.yul\":4578:4620   */\n          sstore\n            /* \"#utility.yul\":4659:4660   */\n          0x01\n            /* \"#utility.yul\":4651:4657   */\n          dup3\n            /* \"#utility.yul\":4647:4661   */\n          add\n            /* \"#utility.yul\":4637:4661   */\n          swap2\n          pop\n            /* \"#utility.yul\":4706:4708   */\n          0x20\n            /* \"#utility.yul\":4695:4704   */\n          dup6\n            /* \"#utility.yul\":4691:4709   */\n          add\n            /* \"#utility.yul\":4678:4709   */\n          swap5\n          pop\n            /* \"#utility.yul\":4552:4556   */\n          0x20\n            /* \"#utility.yul\":4549:4550   */\n          dup2\n            /* \"#utility.yul\":4545:4557   */\n          add\n            /* \"#utility.yul\":4540:4557   */\n          swap1\n          pop\n            /* \"#utility.yul\":4515:4723   */\n          jump(tag_89)\n        tag_91:\n            /* \"#utility.yul\":4751:4757   */\n          dup7\n            /* \"#utility.yul\":4742:4749   */\n          dup4\n            /* \"#utility.yul\":4739:4758   */\n          lt\n            /* \"#utility.yul\":4736:4915   */\n          iszero\n          tag_92\n          jumpi\n            /* \"#utility.yul\":4809:4818   */\n          dup5\n            /* \"#utility.yul\":4804:4807   */\n          dup10\n            /* \"#utility.yul\":4800:4819   */\n          add\n            /* \"#utility.yul\":4794:4820   */\n          mload\n            /* \"#utility.yul\":4852:4900   */\n          tag_93\n            /* \"#utility.yul\":4894:4898   */\n          0x1f\n            /* \"#utility.yul\":4886:4892   */\n          dup10\n            /* \"#utility.yul\":4882:4899   */\n          and\n            /* \"#utility.yul\":4871:4880   */\n          dup3\n            /* \"#utility.yul\":4852:4900   */\n          tag_28\n          jump\t// in\n        tag_93:\n            /* \"#utility.yul\":4844:4850   */\n          dup4\n            /* \"#utility.yul\":4837:4901   */\n          sstore\n            /* \"#utility.yul\":4759:4915   */\n          pop\n            /* \"#utility.yul\":4736:4915   */\n        tag_92:\n            /* \"#utility.yul\":4961:4962   */\n          0x01\n            /* \"#utility.yul\":4957:4958   */\n          0x02\n            /* \"#utility.yul\":4949:4955   */\n          dup9\n            /* \"#utility.yul\":4945:4959   */\n          mul\n            /* \"#utility.yul\":4941:4963   */\n          add\n            /* \"#utility.yul\":4935:4939   */\n          dup9\n            /* \"#utility.yul\":4928:4964   */\n          sstore\n            /* \"#utility.yul\":4364:4974   */\n          pop\n          pop\n          pop\n            /* \"#utility.yul\":4327:5213   */\n        tag_84:\n          pop\n            /* \"#utility.yul\":3919:5219   */\n          pop\n          pop\n          pop\n            /* \"#utility.yul\":3829:5219   */\n          pop\n          pop\n          jump\t// out\n            /* \"#utility.yul\":5225:5372   */\n        tag_30:\n            /* \"#utility.yul\":5326:5337   */\n          0x00\n            /* \"#utility.yul\":5363:5366   */\n          dup2\n            /* \"#utility.yul\":5348:5366   */\n          swap1\n          pop\n            /* \"#utility.yul\":5225:5372   */\n          swap3\n          swap2\n          pop\n          pop\n          jump\t// out\n            /* \"#utility.yul\":5400:6270   */\n        tag_31:\n            /* \"#utility.yul\":5501:5504   */\n          0x00\n            /* \"#utility.yul\":5538:5543   */\n          dup2\n            /* \"#utility.yul\":5532:5544   */\n          sload\n            /* \"#utility.yul\":5567:5603   */\n          tag_96\n            /* \"#utility.yul\":5593:5602   */\n          dup2\n            /* \"#utility.yul\":5567:5603   */\n          tag_13\n          jump\t// in\n        tag_96:\n            /* \"#utility.yul\":5619:5707   */\n          tag_97\n            /* \"#utility.yul\":5700:5706   */\n          dup2\n            /* \"#utility.yul\":5695:5698   */\n          dup7\n            /* \"#utility.yul\":5619:5707   */\n          tag_30\n          jump\t// in\n        tag_97:\n            /* \"#utility.yul\":5612:5707   */\n          swap5\n          pop\n            /* \"#utility.yul\":5738:5739   */\n          0x01\n            /* \"#utility.yul\":5727:5736   */\n          dup3\n            /* \"#utility.yul\":5723:5740   */\n          and\n            /* \"#utility.yul\":5754:5755   */\n          0x00\n            /* \"#utility.yul\":5749:5915   */\n          dup2\n          eq\n          tag_99\n          jumpi\n            /* \"#utility.yul\":5929:5930   */\n          0x01\n            /* \"#utility.yul\":5924:6264   */\n          dup2\n          eq\n          tag_100\n          jumpi\n            /* \"#utility.yul\":5716:6264   */\n          jump(tag_98)\n            /* \"#utility.yul\":5749:5915   */\n        tag_99:\n            /* \"#utility.yul\":5833:5837   */\n          0xff\n            /* \"#utility.yul\":5829:5838   */\n          not\n            /* \"#utility.yul\":5818:5827   */\n          dup4\n            /* \"#utility.yul\":5814:5839   */\n          and\n            /* \"#utility.yul\":5809:5812   */\n          dup7\n            /* \"#utility.yul\":5802:5840   */\n          mstore\n            /* \"#utility.yul\":5895:5901   */\n          dup2\n            /* \"#utility.yul\":5888:5902   */\n          iszero\n            /* \"#utility.yul\":5881:5903   */\n          iszero\n            /* \"#utility.yul\":5873:5879   */\n          dup3\n            /* \"#utility.yul\":5869:5904   */\n          mul\n            /* \"#utility.yul\":5864:5867   */\n          dup7\n            /* \"#utility.yul\":5860:5905   */\n          add\n            /* \"#utility.yul\":5853:5905   */\n          swap4\n          pop\n            /* \"#utility.yul\":5749:5915   */\n          jump(tag_98)\n            /* \"#utility.yul\":5924:6264   */\n        tag_100:\n            /* \"#utility.yul\":5991:6028   */\n          tag_101\n            /* \"#utility.yul\":6022:6027   */\n          dup6\n            /* \"#utility.yul\":5991:6028   */\n          tag_14\n          jump\t// in\n        tag_101:\n            /* \"#utility.yul\":6050:6051   */\n          0x00\n            /* \"#utility.yul\":6064:6218   */\n        tag_102:\n            /* \"#utility.yul\":6078:6084   */\n          dup4\n            /* \"#utility.yul\":6075:6076   */\n          dup2\n            /* \"#utility.yul\":6072:6085   */\n          lt\n            /* \"#utility.yul\":6064:6218   */\n          iszero\n          tag_104\n          jumpi\n            /* \"#utility.yul\":6152:6159   */\n          dup2\n            /* \"#utility.yul\":6146:6160   */\n          sload\n            /* \"#utility.yul\":6142:6143   */\n          dup2\n            /* \"#utility.yul\":6137:6140   */\n          dup10\n            /* \"#utility.yul\":6133:6144   */\n          add\n            /* \"#utility.yul\":6126:6161   */\n          mstore\n            /* \"#utility.yul\":6202:6203   */\n          0x01\n            /* \"#utility.yul\":6193:6200   */\n          dup3\n            /* \"#utility.yul\":6189:6204   */\n          add\n            /* \"#utility.yul\":6178:6204   */\n          swap2\n          pop\n            /* \"#utility.yul\":6100:6104   */\n          0x20\n            /* \"#utility.yul\":6097:6098   */\n          dup2\n            /* \"#utility.yul\":6093:6105   */\n          add\n            /* \"#utility.yul\":6088:6105   */\n          swap1\n          pop\n            /* \"#utility.yul\":6064:6218   */\n          jump(tag_102)\n        tag_104:\n            /* \"#utility.yul\":6247:6253   */\n          dup4\n            /* \"#utility.yul\":6242:6245   */\n          dup9\n            /* \"#utility.yul\":6238:6254   */\n          add\n            /* \"#utility.yul\":6231:6254   */\n          swap6\n          pop\n            /* \"#utility.yul\":5931:6264   */\n          pop\n          pop\n            /* \"#utility.yul\":5716:6264   */\n        tag_98:\n          pop\n            /* \"#utility.yul\":5505:6270   */\n          pop\n          pop\n            /* \"#utility.yul\":5400:6270   */\n          swap3\n          swap2\n          pop\n          pop\n          jump\t// out\n            /* \"#utility.yul\":6276:6541   */\n        tag_6:\n            /* \"#utility.yul\":6403:6406   */\n          0x00\n            /* \"#utility.yul\":6425:6515   */\n          tag_106\n            /* \"#utility.yul\":6511:6514   */\n          dup3\n            /* \"#utility.yul\":6502:6508   */\n          dup5\n            /* \"#utility.yul\":6425:6515   */\n          tag_31\n          jump\t// in\n        tag_106:\n            /* \"#utility.yul\":6418:6515   */\n          swap2\n          pop\n            /* \"#utility.yul\":6532:6535   */\n          dup2\n            /* \"#utility.yul\":6525:6535   */\n          swap1\n          pop\n            /* \"#utility.yul\":6276:6541   */\n          swap3\n          swap2\n          pop\n          pop\n          jump\t// out\n            /* \"shoot/2/create_create\\xe8\\xae\\xa1\\xe7\\xae\\x97/1.sol\":832:1357  contract getnewcontract{... */\n        tag_9:\n          dataSize(sub_0)\n          dup1\n          dataOffset(sub_0)\n          0x00\n          codecopy\n          0x00\n          return\n        stop\n\n        sub_0: assembly {\n                /* \"shoot/2/create_create\\xe8\\xae\\xa1\\xe7\\xae\\x97/1.sol\":832:1357  contract getnewcontract{... */\n              mstore(0x40, 0x80)\n              callvalue\n              dup1\n              iszero\n              tag_1\n              jumpi\n              0x00\n              dup1\n              revert\n            tag_1:\n              pop\n              jumpi(tag_2, lt(calldatasize, 0x04))\n              shr(0xe0, calldataload(0x00))\n              dup1\n              0x08684d38\n              eq\n              tag_3\n              jumpi\n              dup1\n              0xcccecb14\n              eq\n              tag_4\n              jumpi\n              dup1\n              0xe2179b8e\n              eq\n              tag_5\n              jumpi\n            tag_2:\n              0x00\n              dup1\n              revert\n                /* \"shoot/2/create_create\\xe8\\xae\\xa1\\xe7\\xae\\x97/1.sol\":1004:1354  function getaddress(address target,bytes32 salt) public{... */\n            tag_3:\n              tag_6\n              0x04\n              dup1\n              calldatasize\n              sub\n              dup2\n              add\n              swap1\n              tag_7\n              swap2\n              swap1\n              tag_8\n              jump\t// in\n            tag_7:\n              tag_9\n              jump\t// in\n            tag_6:\n              stop\n                /* \"shoot/2/create_create\\xe8\\xae\\xa1\\xe7\\xae\\x97/1.sol\":862:913  bytes public  creatcode1 = type(found).creationCode */\n            tag_4:\n              tag_10\n              tag_11\n              jump\t// in\n            tag_10:\n              mload(0x40)\n              tag_12\n              swap2\n              swap1\n              tag_13\n              jump\t// in\n            tag_12:\n              mload(0x40)\n              dup1\n              swap2\n              sub\n              swap1\n              return\n                /* \"shoot/2/create_create\\xe8\\xae\\xa1\\xe7\\xae\\x97/1.sol\":920:960  bytes32 public g = keccak256(creatcode1) */\n            tag_5:\n              tag_14\n              tag_15\n              jump\t// in\n            tag_14:\n              mload(0x40)\n              tag_16\n              swap2\n              swap1\n              tag_17\n              jump\t// in\n            tag_16:\n              mload(0x40)\n              dup1\n              swap2\n              sub\n              swap1\n              return\n                /* \"shoot/2/create_create\\xe8\\xae\\xa1\\xe7\\xae\\x97/1.sol\":1004:1354  function getaddress(address target,bytes32 salt) public{... */\n            tag_9:\n                /* \"shoot/2/create_create\\xe8\\xae\\xa1\\xe7\\xae\\x97/1.sol\":1133:1142  address a */\n              0x00\n                /* \"shoot/2/create_create\\xe8\\xae\\xa1\\xe7\\xae\\x97/1.sol\":1214:1218  0xff */\n              0xff\n                /* \"shoot/2/create_create\\xe8\\xae\\xa1\\xe7\\xae\\x97/1.sol\":1207:1219  bytes1(0xff) */\n              0xf8\n              shl\n                /* \"shoot/2/create_create\\xe8\\xae\\xa1\\xe7\\xae\\x97/1.sol\":1234:1240  target */\n              dup4\n                /* \"shoot/2/create_create\\xe8\\xae\\xa1\\xe7\\xae\\x97/1.sol\":1255:1259  salt */\n              dup4\n                /* \"shoot/2/create_create\\xe8\\xae\\xa1\\xe7\\xae\\x97/1.sol\":1284:1294  creatcode1 */\n              0x00\n                /* \"shoot/2/create_create\\xe8\\xae\\xa1\\xe7\\xae\\x97/1.sol\":1274:1295  keccak256(creatcode1) */\n              mload(0x40)\n              tag_19\n              swap2\n              swap1\n              tag_20\n              jump\t// in\n            tag_19:\n              mload(0x40)\n              dup1\n              swap2\n              sub\n              swap1\n              keccak256\n                /* \"shoot/2/create_create\\xe8\\xae\\xa1\\xe7\\xae\\x97/1.sol\":1176:1306  abi.encodePacked(... */\n              add(0x20, mload(0x40))\n              tag_21\n              swap5\n              swap4\n              swap3\n              swap2\n              swap1\n              tag_22\n              jump\t// in\n            tag_21:\n              mload(0x40)\n              0x20\n              dup2\n              dup4\n              sub\n              sub\n              dup2\n              mstore\n              swap1\n              0x40\n              mstore\n                /* \"shoot/2/create_create\\xe8\\xae\\xa1\\xe7\\xae\\x97/1.sol\":1166:1307  keccak256(abi.encodePacked(... */\n              dup1\n              mload\n              swap1\n              0x20\n              add\n              keccak256\n                /* \"shoot/2/create_create\\xe8\\xae\\xa1\\xe7\\xae\\x97/1.sol\":1161:1308  uint(keccak256(abi.encodePacked(... */\n              0x00\n              shr\n                /* \"shoot/2/create_create\\xe8\\xae\\xa1\\xe7\\xae\\x97/1.sol\":1133:1310  address a = address(uint160(uint(keccak256(abi.encodePacked(... */\n              swap1\n              pop\n                /* \"shoot/2/create_create\\xe8\\xae\\xa1\\xe7\\xae\\x97/1.sol\":1343:1344  a */\n              dup1\n                /* \"shoot/2/create_create\\xe8\\xae\\xa1\\xe7\\xae\\x97/1.sol\":1322:1346  selfdestruct(payable(a)) */\n              0xffffffffffffffffffffffffffffffffffffffff\n              and\n              selfdestruct\n                /* \"shoot/2/create_create\\xe8\\xae\\xa1\\xe7\\xae\\x97/1.sol\":862:913  bytes public  creatcode1 = type(found).creationCode */\n            tag_11:\n              0x00\n              dup1\n              sload\n              tag_23\n              swap1\n              tag_24\n              jump\t// in\n            tag_23:\n              dup1\n              0x1f\n              add\n              0x20\n              dup1\n              swap2\n              div\n              mul\n              0x20\n              add\n              mload(0x40)\n              swap1\n              dup2\n              add\n              0x40\n              mstore\n              dup1\n              swap3\n              swap2\n              swap1\n              dup2\n              dup2\n              mstore\n              0x20\n              add\n              dup3\n              dup1\n              sload\n              tag_25\n              swap1\n              tag_24\n              jump\t// in\n            tag_25:\n              dup1\n              iszero\n              tag_26\n              jumpi\n              dup1\n              0x1f\n              lt\n              tag_27\n              jumpi\n              0x0100\n              dup1\n              dup4\n              sload\n              div\n              mul\n              dup4\n              mstore\n              swap2\n              0x20\n              add\n              swap2\n              jump(tag_26)\n            tag_27:\n              dup3\n              add\n              swap2\n              swap1\n              0x00\n              mstore\n              keccak256(0x00, 0x20)\n              swap1\n            tag_28:\n              dup2\n              sload\n              dup2\n              mstore\n              swap1\n              0x01\n              add\n              swap1\n              0x20\n              add\n              dup1\n              dup4\n              gt\n              tag_28\n              jumpi\n              dup3\n              swap1\n              sub\n              0x1f\n              and\n              dup3\n              add\n              swap2\n            tag_26:\n              pop\n              pop\n              pop\n              pop\n              pop\n              dup2\n              jump\t// out\n                /* \"shoot/2/create_create\\xe8\\xae\\xa1\\xe7\\xae\\x97/1.sol\":920:960  bytes32 public g = keccak256(creatcode1) */\n            tag_15:\n              sload(0x01)\n              dup2\n              jump\t// out\n                /* \"#utility.yul\":88:205   */\n            tag_30:\n                /* \"#utility.yul\":197:198   */\n              0x00\n                /* \"#utility.yul\":194:195   */\n              dup1\n                /* \"#utility.yul\":187:199   */\n              revert\n                /* \"#utility.yul\":334:460   */\n            tag_32:\n                /* \"#utility.yul\":371:378   */\n              0x00\n                /* \"#utility.yul\":411:453   */\n              0xffffffffffffffffffffffffffffffffffffffff\n                /* \"#utility.yul\":404:409   */\n              dup3\n                /* \"#utility.yul\":400:454   */\n              and\n                /* \"#utility.yul\":389:454   */\n              swap1\n              pop\n                /* \"#utility.yul\":334:460   */\n              swap2\n              swap1\n              pop\n              jump\t// out\n                /* \"#utility.yul\":466:562   */\n            tag_33:\n                /* \"#utility.yul\":503:510   */\n              0x00\n                /* \"#utility.yul\":532:556   */\n              tag_64\n                /* \"#utility.yul\":550:555   */\n              dup3\n                /* \"#utility.yul\":532:556   */\n              tag_32\n              jump\t// in\n            tag_64:\n                /* \"#utility.yul\":521:556   */\n              swap1\n              pop\n                /* \"#utility.yul\":466:562   */\n              swap2\n              swap1\n              pop\n              jump\t// out\n                /* \"#utility.yul\":568:690   */\n            tag_34:\n                /* \"#utility.yul\":641:665   */\n              tag_66\n                /* \"#utility.yul\":659:664   */\n              dup2\n                /* \"#utility.yul\":641:665   */\n              tag_33\n              jump\t// in\n            tag_66:\n                /* \"#utility.yul\":634:639   */\n              dup2\n                /* \"#utility.yul\":631:666   */\n              eq\n                /* \"#utility.yul\":621:684   */\n              tag_67\n              jumpi\n                /* \"#utility.yul\":680:681   */\n              0x00\n                /* \"#utility.yul\":677:678   */\n              dup1\n                /* \"#utility.yul\":670:682   */\n              revert\n                /* \"#utility.yul\":621:684   */\n            tag_67:\n                /* \"#utility.yul\":568:690   */\n              pop\n              jump\t// out\n                /* \"#utility.yul\":696:835   */\n            tag_35:\n                /* \"#utility.yul\":742:747   */\n              0x00\n                /* \"#utility.yul\":780:786   */\n              dup2\n                /* \"#utility.yul\":767:787   */\n              calldataload\n                /* \"#utility.yul\":758:787   */\n              swap1\n              pop\n                /* \"#utility.yul\":796:829   */\n              tag_69\n                /* \"#utility.yul\":823:828   */\n              dup2\n                /* \"#utility.yul\":796:829   */\n              tag_34\n              jump\t// in\n            tag_69:\n                /* \"#utility.yul\":696:835   */\n              swap3\n              swap2\n              pop\n              pop\n              jump\t// out\n                /* \"#utility.yul\":841:918   */\n            tag_36:\n                /* \"#utility.yul\":878:885   */\n              0x00\n                /* \"#utility.yul\":907:912   */\n              dup2\n                /* \"#utility.yul\":896:912   */\n              swap1\n              pop\n                /* \"#utility.yul\":841:918   */\n              swap2\n              swap1\n              pop\n              jump\t// out\n                /* \"#utility.yul\":924:1046   */\n            tag_37:\n                /* \"#utility.yul\":997:1021   */\n              tag_72\n                /* \"#utility.yul\":1015:1020   */\n              dup2\n                /* \"#utility.yul\":997:1021   */\n              tag_36\n              jump\t// in\n            tag_72:\n                /* \"#utility.yul\":990:995   */\n              dup2\n                /* \"#utility.yul\":987:1022   */\n              eq\n                /* \"#utility.yul\":977:1040   */\n              tag_73\n              jumpi\n                /* \"#utility.yul\":1036:1037   */\n              0x00\n                /* \"#utility.yul\":1033:1034   */\n              dup1\n                /* \"#utility.yul\":1026:1038   */\n              revert\n                /* \"#utility.yul\":977:1040   */\n            tag_73:\n                /* \"#utility.yul\":924:1046   */\n              pop\n              jump\t// out\n                /* \"#utility.yul\":1052:1191   */\n            tag_38:\n                /* \"#utility.yul\":1098:1103   */\n              0x00\n                /* \"#utility.yul\":1136:1142   */\n              dup2\n                /* \"#utility.yul\":1123:1143   */\n              calldataload\n                /* \"#utility.yul\":1114:1143   */\n              swap1\n              pop\n                /* \"#utility.yul\":1152:1185   */\n              tag_75\n                /* \"#utility.yul\":1179:1184   */\n              dup2\n                /* \"#utility.yul\":1152:1185   */\n              tag_37\n              jump\t// in\n            tag_75:\n                /* \"#utility.yul\":1052:1191   */\n              swap3\n              swap2\n              pop\n              pop\n              jump\t// out\n                /* \"#utility.yul\":1197:1671   */\n            tag_8:\n                /* \"#utility.yul\":1265:1271   */\n              0x00\n                /* \"#utility.yul\":1273:1279   */\n              dup1\n                /* \"#utility.yul\":1322:1324   */\n              0x40\n                /* \"#utility.yul\":1310:1319   */\n              dup4\n                /* \"#utility.yul\":1301:1308   */\n              dup6\n                /* \"#utility.yul\":1297:1320   */\n              sub\n                /* \"#utility.yul\":1293:1325   */\n              slt\n                /* \"#utility.yul\":1290:1409   */\n              iszero\n              tag_77\n              jumpi\n                /* \"#utility.yul\":1328:1407   */\n              tag_78\n              tag_30\n              jump\t// in\n            tag_78:\n                /* \"#utility.yul\":1290:1409   */\n            tag_77:\n                /* \"#utility.yul\":1448:1449   */\n              0x00\n                /* \"#utility.yul\":1473:1526   */\n              tag_79\n                /* \"#utility.yul\":1518:1525   */\n              dup6\n                /* \"#utility.yul\":1509:1515   */\n              dup3\n                /* \"#utility.yul\":1498:1507   */\n              dup7\n                /* \"#utility.yul\":1494:1516   */\n              add\n                /* \"#utility.yul\":1473:1526   */\n              tag_35\n              jump\t// in\n            tag_79:\n                /* \"#utility.yul\":1463:1526   */\n              swap3\n              pop\n                /* \"#utility.yul\":1419:1536   */\n              pop\n                /* \"#utility.yul\":1575:1577   */\n              0x20\n                /* \"#utility.yul\":1601:1654   */\n              tag_80\n                /* \"#utility.yul\":1646:1653   */\n              dup6\n                /* \"#utility.yul\":1637:1643   */\n              dup3\n                /* \"#utility.yul\":1626:1635   */\n              dup7\n                /* \"#utility.yul\":1622:1644   */\n              add\n                /* \"#utility.yul\":1601:1654   */\n              tag_38\n              jump\t// in\n            tag_80:\n                /* \"#utility.yul\":1591:1654   */\n              swap2\n              pop\n                /* \"#utility.yul\":1546:1664   */\n              pop\n                /* \"#utility.yul\":1197:1671   */\n              swap3\n              pop\n              swap3\n              swap1\n              pop\n              jump\t// out\n                /* \"#utility.yul\":1677:1775   */\n            tag_39:\n                /* \"#utility.yul\":1728:1734   */\n              0x00\n                /* \"#utility.yul\":1762:1767   */\n              dup2\n                /* \"#utility.yul\":1756:1768   */\n              mload\n                /* \"#utility.yul\":1746:1768   */\n              swap1\n              pop\n                /* \"#utility.yul\":1677:1775   */\n              swap2\n              swap1\n              pop\n              jump\t// out\n                /* \"#utility.yul\":1781:1949   */\n            tag_40:\n                /* \"#utility.yul\":1864:1875   */\n              0x00\n                /* \"#utility.yul\":1898:1904   */\n              dup3\n                /* \"#utility.yul\":1893:1896   */\n              dup3\n                /* \"#utility.yul\":1886:1905   */\n              mstore\n                /* \"#utility.yul\":1938:1942   */\n              0x20\n                /* \"#utility.yul\":1933:1936   */\n              dup3\n                /* \"#utility.yul\":1929:1943   */\n              add\n                /* \"#utility.yul\":1914:1943   */\n              swap1\n              pop\n                /* \"#utility.yul\":1781:1949   */\n              swap3\n              swap2\n              pop\n              pop\n              jump\t// out\n                /* \"#utility.yul\":1955:2201   */\n            tag_41:\n                /* \"#utility.yul\":2036:2037   */\n              0x00\n                /* \"#utility.yul\":2046:2159   */\n            tag_84:\n                /* \"#utility.yul\":2060:2066   */\n              dup4\n                /* \"#utility.yul\":2057:2058   */\n              dup2\n                /* \"#utility.yul\":2054:2067   */\n              lt\n                /* \"#utility.yul\":2046:2159   */\n              iszero\n              tag_86\n              jumpi\n                /* \"#utility.yul\":2145:2146   */\n              dup1\n                /* \"#utility.yul\":2140:2143   */\n              dup3\n                /* \"#utility.yul\":2136:2147   */\n              add\n                /* \"#utility.yul\":2130:2148   */\n              mload\n                /* \"#utility.yul\":2126:2127   */\n              dup2\n                /* \"#utility.yul\":2121:2124   */\n              dup5\n                /* \"#utility.yul\":2117:2128   */\n              add\n                /* \"#utility.yul\":2110:2149   */\n              mstore\n                /* \"#utility.yul\":2082:2084   */\n              0x20\n                /* \"#utility.yul\":2079:2080   */\n              dup2\n                /* \"#utility.yul\":2075:2085   */\n              add\n                /* \"#utility.yul\":2070:2085   */\n              swap1\n              pop\n                /* \"#utility.yul\":2046:2159   */\n              jump(tag_84)\n            tag_86:\n                /* \"#utility.yul\":2193:2194   */\n              0x00\n                /* \"#utility.yul\":2184:2190   */\n              dup5\n                /* \"#utility.yul\":2179:2182   */\n              dup5\n                /* \"#utility.yul\":2175:2191   */\n              add\n                /* \"#utility.yul\":2168:2195   */\n              mstore\n                /* \"#utility.yul\":2017:2201   */\n              pop\n                /* \"#utility.yul\":1955:2201   */\n              pop\n              pop\n              pop\n              jump\t// out\n                /* \"#utility.yul\":2207:2309   */\n            tag_42:\n                /* \"#utility.yul\":2248:2254   */\n              0x00\n                /* \"#utility.yul\":2299:2301   */\n              0x1f\n                /* \"#utility.yul\":2295:2302   */\n              not\n                /* \"#utility.yul\":2290:2292   */\n              0x1f\n                /* \"#utility.yul\":2283:2288   */\n              dup4\n                /* \"#utility.yul\":2279:2293   */\n              add\n                /* \"#utility.yul\":2275:2303   */\n              and\n                /* \"#utility.yul\":2265:2303   */\n              swap1\n              pop\n                /* \"#utility.yul\":2207:2309   */\n              swap2\n              swap1\n              pop\n              jump\t// out\n                /* \"#utility.yul\":2315:2688   */\n            tag_43:\n                /* \"#utility.yul\":2401:2404   */\n              0x00\n                /* \"#utility.yul\":2429:2467   */\n              tag_89\n                /* \"#utility.yul\":2461:2466   */\n              dup3\n                /* \"#utility.yul\":2429:2467   */\n              tag_39\n              jump\t// in\n            tag_89:\n                /* \"#utility.yul\":2483:2553   */\n              tag_90\n                /* \"#utility.yul\":2546:2552   */\n              dup2\n                /* \"#utility.yul\":2541:2544   */\n              dup6\n                /* \"#utility.yul\":2483:2553   */\n              tag_40\n              jump\t// in\n            tag_90:\n                /* \"#utility.yul\":2476:2553   */\n              swap4\n              pop\n                /* \"#utility.yul\":2562:2627   */\n              tag_91\n                /* \"#utility.yul\":2620:2626   */\n              dup2\n                /* \"#utility.yul\":2615:2618   */\n              dup6\n                /* \"#utility.yul\":2608:2612   */\n              0x20\n                /* \"#utility.yul\":2601:2606   */\n              dup7\n                /* \"#utility.yul\":2597:2613   */\n              add\n                /* \"#utility.yul\":2562:2627   */\n              tag_41\n              jump\t// in\n            tag_91:\n                /* \"#utility.yul\":2652:2681   */\n              tag_92\n                /* \"#utility.yul\":2674:2680   */\n              dup2\n                /* \"#utility.yul\":2652:2681   */\n              tag_42\n              jump\t// in\n            tag_92:\n                /* \"#utility.yul\":2647:2650   */\n              dup5\n                /* \"#utility.yul\":2643:2682   */\n              add\n                /* \"#utility.yul\":2636:2682   */\n              swap2\n              pop\n                /* \"#utility.yul\":2405:2688   */\n              pop\n                /* \"#utility.yul\":2315:2688   */\n              swap3\n              swap2\n              pop\n              pop\n              jump\t// out\n                /* \"#utility.yul\":2694:3003   */\n            tag_13:\n                /* \"#utility.yul\":2805:2809   */\n              0x00\n                /* \"#utility.yul\":2843:2845   */\n              0x20\n                /* \"#utility.yul\":2832:2841   */\n              dup3\n                /* \"#utility.yul\":2828:2846   */\n              add\n                /* \"#utility.yul\":2820:2846   */\n              swap1\n              pop\n                /* \"#utility.yul\":2892:2901   */\n              dup2\n                /* \"#utility.yul\":2886:2890   */\n              dup2\n                /* \"#utility.yul\":2882:2902   */\n              sub\n                /* \"#utility.yul\":2878:2879   */\n              0x00\n                /* \"#utility.yul\":2867:2876   */\n              dup4\n                /* \"#utility.yul\":2863:2880   */\n              add\n                /* \"#utility.yul\":2856:2903   */\n              mstore\n                /* \"#utility.yul\":2920:2996   */\n              tag_94\n                /* \"#utility.yul\":2991:2995   */\n              dup2\n                /* \"#utility.yul\":2982:2988   */\n              dup5\n                /* \"#utility.yul\":2920:2996   */\n              tag_43\n              jump\t// in\n            tag_94:\n                /* \"#utility.yul\":2912:2996   */\n              swap1\n              pop\n                /* \"#utility.yul\":2694:3003   */\n              swap3\n              swap2\n              pop\n              pop\n              jump\t// out\n                /* \"#utility.yul\":3009:3127   */\n            tag_44:\n                /* \"#utility.yul\":3096:3120   */\n              tag_96\n                /* \"#utility.yul\":3114:3119   */\n              dup2\n                /* \"#utility.yul\":3096:3120   */\n              tag_36\n              jump\t// in\n            tag_96:\n                /* \"#utility.yul\":3091:3094   */\n              dup3\n                /* \"#utility.yul\":3084:3121   */\n              mstore\n                /* \"#utility.yul\":3009:3127   */\n              pop\n              pop\n              jump\t// out\n                /* \"#utility.yul\":3133:3355   */\n            tag_17:\n                /* \"#utility.yul\":3226:3230   */\n              0x00\n                /* \"#utility.yul\":3264:3266   */\n              0x20\n                /* \"#utility.yul\":3253:3262   */\n              dup3\n                /* \"#utility.yul\":3249:3267   */\n              add\n                /* \"#utility.yul\":3241:3267   */\n              swap1\n              pop\n                /* \"#utility.yul\":3277:3348   */\n              tag_98\n                /* \"#utility.yul\":3345:3346   */\n              0x00\n                /* \"#utility.yul\":3334:3343   */\n              dup4\n                /* \"#utility.yul\":3330:3347   */\n              add\n                /* \"#utility.yul\":3321:3327   */\n              dup5\n                /* \"#utility.yul\":3277:3348   */\n              tag_44\n              jump\t// in\n            tag_98:\n                /* \"#utility.yul\":3133:3355   */\n              swap3\n              swap2\n              pop\n              pop\n              jump\t// out\n                /* \"#utility.yul\":3361:3541   */\n            tag_45:\n                /* \"#utility.yul\":3409:3486   */\n              0x4e487b7100000000000000000000000000000000000000000000000000000000\n                /* \"#utility.yul\":3406:3407   */\n              0x00\n                /* \"#utility.yul\":3399:3487   */\n              mstore\n                /* \"#utility.yul\":3506:3510   */\n              0x22\n                /* \"#utility.yul\":3503:3504   */\n              0x04\n                /* \"#utility.yul\":3496:3511   */\n              mstore\n                /* \"#utility.yul\":3530:3534   */\n              0x24\n                /* \"#utility.yul\":3527:3528   */\n              0x00\n                /* \"#utility.yul\":3520:3535   */\n              revert\n                /* \"#utility.yul\":3547:3867   */\n            tag_24:\n                /* \"#utility.yul\":3591:3597   */\n              0x00\n                /* \"#utility.yul\":3628:3629   */\n              0x02\n                /* \"#utility.yul\":3622:3626   */\n              dup3\n                /* \"#utility.yul\":3618:3630   */\n              div\n                /* \"#utility.yul\":3608:3630   */\n              swap1\n              pop\n                /* \"#utility.yul\":3675:3676   */\n              0x01\n                /* \"#utility.yul\":3669:3673   */\n              dup3\n                /* \"#utility.yul\":3665:3677   */\n              and\n                /* \"#utility.yul\":3696:3714   */\n              dup1\n                /* \"#utility.yul\":3686:3767   */\n              tag_101\n              jumpi\n                /* \"#utility.yul\":3752:3756   */\n              0x7f\n                /* \"#utility.yul\":3744:3750   */\n              dup3\n                /* \"#utility.yul\":3740:3757   */\n              and\n                /* \"#utility.yul\":3730:3757   */\n              swap2\n              pop\n                /* \"#utility.yul\":3686:3767   */\n            tag_101:\n                /* \"#utility.yul\":3814:3816   */\n              0x20\n                /* \"#utility.yul\":3806:3812   */\n              dup3\n                /* \"#utility.yul\":3803:3817   */\n              lt\n                /* \"#utility.yul\":3783:3801   */\n              dup2\n                /* \"#utility.yul\":3780:3818   */\n              sub\n                /* \"#utility.yul\":3777:3861   */\n              tag_102\n              jumpi\n                /* \"#utility.yul\":3833:3851   */\n              tag_103\n              tag_45\n              jump\t// in\n            tag_103:\n                /* \"#utility.yul\":3777:3861   */\n            tag_102:\n                /* \"#utility.yul\":3598:3867   */\n              pop\n                /* \"#utility.yul\":3547:3867   */\n              swap2\n              swap1\n              pop\n              jump\t// out\n                /* \"#utility.yul\":3873:4020   */\n            tag_46:\n                /* \"#utility.yul\":3974:3985   */\n              0x00\n                /* \"#utility.yul\":4011:4014   */\n              dup2\n                /* \"#utility.yul\":3996:4014   */\n              swap1\n              pop\n                /* \"#utility.yul\":3873:4020   */\n              swap3\n              swap2\n              pop\n              pop\n              jump\t// out\n                /* \"#utility.yul\":4026:4166   */\n            tag_47:\n                /* \"#utility.yul\":4074:4078   */\n              0x00\n                /* \"#utility.yul\":4097:4100   */\n              dup2\n                /* \"#utility.yul\":4089:4100   */\n              swap1\n              pop\n                /* \"#utility.yul\":4120:4123   */\n              dup2\n                /* \"#utility.yul\":4117:4118   */\n              0x00\n                /* \"#utility.yul\":4110:4124   */\n              mstore\n                /* \"#utility.yul\":4154:4158   */\n              0x20\n                /* \"#utility.yul\":4151:4152   */\n              0x00\n                /* \"#utility.yul\":4141:4159   */\n              keccak256\n                /* \"#utility.yul\":4133:4159   */\n              swap1\n              pop\n                /* \"#utility.yul\":4026:4166   */\n              swap2\n              swap1\n              pop\n              jump\t// out\n                /* \"#utility.yul\":4194:5064   */\n            tag_48:\n                /* \"#utility.yul\":4295:4298   */\n              0x00\n                /* \"#utility.yul\":4332:4337   */\n              dup2\n                /* \"#utility.yul\":4326:4338   */\n              sload\n                /* \"#utility.yul\":4361:4397   */\n              tag_107\n                /* \"#utility.yul\":4387:4396   */\n              dup2\n                /* \"#utility.yul\":4361:4397   */\n              tag_24\n              jump\t// in\n            tag_107:\n                /* \"#utility.yul\":4413:4501   */\n              tag_108\n                /* \"#utility.yul\":4494:4500   */\n              dup2\n                /* \"#utility.yul\":4489:4492   */\n              dup7\n                /* \"#utility.yul\":4413:4501   */\n              tag_46\n              jump\t// in\n            tag_108:\n                /* \"#utility.yul\":4406:4501   */\n              swap5\n              pop\n                /* \"#utility.yul\":4532:4533   */\n              0x01\n                /* \"#utility.yul\":4521:4530   */\n              dup3\n                /* \"#utility.yul\":4517:4534   */\n              and\n                /* \"#utility.yul\":4548:4549   */\n              0x00\n                /* \"#utility.yul\":4543:4709   */\n              dup2\n              eq\n              tag_110\n              jumpi\n                /* \"#utility.yul\":4723:4724   */\n              0x01\n                /* \"#utility.yul\":4718:5058   */\n              dup2\n              eq\n              tag_111\n              jumpi\n                /* \"#utility.yul\":4510:5058   */\n              jump(tag_109)\n                /* \"#utility.yul\":4543:4709   */\n            tag_110:\n                /* \"#utility.yul\":4627:4631   */\n              0xff\n                /* \"#utility.yul\":4623:4632   */\n              not\n                /* \"#utility.yul\":4612:4621   */\n              dup4\n                /* \"#utility.yul\":4608:4633   */\n              and\n                /* \"#utility.yul\":4603:4606   */\n              dup7\n                /* \"#utility.yul\":4596:4634   */\n              mstore\n                /* \"#utility.yul\":4689:4695   */\n              dup2\n                /* \"#utility.yul\":4682:4696   */\n              iszero\n                /* \"#utility.yul\":4675:4697   */\n              iszero\n                /* \"#utility.yul\":4667:4673   */\n              dup3\n                /* \"#utility.yul\":4663:4698   */\n              mul\n                /* \"#utility.yul\":4658:4661   */\n              dup7\n                /* \"#utility.yul\":4654:4699   */\n              add\n                /* \"#utility.yul\":4647:4699   */\n              swap4\n              pop\n                /* \"#utility.yul\":4543:4709   */\n              jump(tag_109)\n                /* \"#utility.yul\":4718:5058   */\n            tag_111:\n                /* \"#utility.yul\":4785:4822   */\n              tag_112\n                /* \"#utility.yul\":4816:4821   */\n              dup6\n                /* \"#utility.yul\":4785:4822   */\n              tag_47\n              jump\t// in\n            tag_112:\n                /* \"#utility.yul\":4844:4845   */\n              0x00\n                /* \"#utility.yul\":4858:5012   */\n            tag_113:\n                /* \"#utility.yul\":4872:4878   */\n              dup4\n                /* \"#utility.yul\":4869:4870   */\n              dup2\n                /* \"#utility.yul\":4866:4879   */\n              lt\n                /* \"#utility.yul\":4858:5012   */\n              iszero\n              tag_115\n              jumpi\n                /* \"#utility.yul\":4946:4953   */\n              dup2\n                /* \"#utility.yul\":4940:4954   */\n              sload\n                /* \"#utility.yul\":4936:4937   */\n              dup2\n                /* \"#utility.yul\":4931:4934   */\n              dup10\n                /* \"#utility.yul\":4927:4938   */\n              add\n                /* \"#utility.yul\":4920:4955   */\n              mstore\n                /* \"#utility.yul\":4996:4997   */\n              0x01\n                /* \"#utility.yul\":4987:4994   */\n              dup3\n                /* \"#utility.yul\":4983:4998   */\n              add\n                /* \"#utility.yul\":4972:4998   */\n              swap2\n              pop\n                /* \"#utility.yul\":4894:4898   */\n              0x20\n                /* \"#utility.yul\":4891:4892   */\n              dup2\n                /* \"#utility.yul\":4887:4899   */\n              add\n                /* \"#utility.yul\":4882:4899   */\n              swap1\n              pop\n                /* \"#utility.yul\":4858:5012   */\n              jump(tag_113)\n            tag_115:\n                /* \"#utility.yul\":5041:5047   */\n              dup4\n                /* \"#utility.yul\":5036:5039   */\n              dup9\n                /* \"#utility.yul\":5032:5048   */\n              add\n                /* \"#utility.yul\":5025:5048   */\n              swap6\n              pop\n                /* \"#utility.yul\":4725:5058   */\n              pop\n              pop\n                /* \"#utility.yul\":4510:5058   */\n            tag_109:\n              pop\n                /* \"#utility.yul\":4299:5064   */\n              pop\n              pop\n                /* \"#utility.yul\":4194:5064   */\n              swap3\n              swap2\n              pop\n              pop\n              jump\t// out\n                /* \"#utility.yul\":5070:5335   */\n            tag_20:\n                /* \"#utility.yul\":5197:5200   */\n              0x00\n                /* \"#utility.yul\":5219:5309   */\n              tag_117\n                /* \"#utility.yul\":5305:5308   */\n              dup3\n                /* \"#utility.yul\":5296:5302   */\n              dup5\n                /* \"#utility.yul\":5219:5309   */\n              tag_48\n              jump\t// in\n            tag_117:\n                /* \"#utility.yul\":5212:5309   */\n              swap2\n              pop\n                /* \"#utility.yul\":5326:5329   */\n              dup2\n                /* \"#utility.yul\":5319:5329   */\n              swap1\n              pop\n                /* \"#utility.yul\":5070:5335   */\n              swap3\n              swap2\n              pop\n              pop\n              jump\t// out\n                /* \"#utility.yul\":5341:5490   */\n            tag_49:\n                /* \"#utility.yul\":5377:5384   */\n              0x00\n                /* \"#utility.yul\":5417:5483   */\n              0xff00000000000000000000000000000000000000000000000000000000000000\n                /* \"#utility.yul\":5410:5415   */\n              dup3\n                /* \"#utility.yul\":5406:5484   */\n              and\n                /* \"#utility.yul\":5395:5484   */\n              swap1\n              pop\n                /* \"#utility.yul\":5341:5490   */\n              swap2\n              swap1\n              pop\n              jump\t// out\n                /* \"#utility.yul\":5496:5574   */\n            tag_50:\n                /* \"#utility.yul\":5534:5541   */\n              0x00\n                /* \"#utility.yul\":5563:5568   */\n              dup2\n                /* \"#utility.yul\":5552:5568   */\n              swap1\n              pop\n                /* \"#utility.yul\":5496:5574   */\n              swap2\n              swap1\n              pop\n              jump\t// out\n                /* \"#utility.yul\":5580:5733   */\n            tag_51:\n                /* \"#utility.yul\":5683:5726   */\n              tag_121\n                /* \"#utility.yul\":5702:5725   */\n              tag_122\n                /* \"#utility.yul\":5719:5724   */\n              dup3\n                /* \"#utility.yul\":5702:5725   */\n              tag_49\n              jump\t// in\n            tag_122:\n                /* \"#utility.yul\":5683:5726   */\n              tag_50\n              jump\t// in\n            tag_121:\n                /* \"#utility.yul\":5678:5681   */\n              dup3\n                /* \"#utility.yul\":5671:5727   */\n              mstore\n                /* \"#utility.yul\":5580:5733   */\n              pop\n              pop\n              jump\t// out\n                /* \"#utility.yul\":5739:5833   */\n            tag_52:\n                /* \"#utility.yul\":5772:5780   */\n              0x00\n                /* \"#utility.yul\":5820:5825   */\n              dup2\n                /* \"#utility.yul\":5816:5818   */\n              0x60\n                /* \"#utility.yul\":5812:5826   */\n              shl\n                /* \"#utility.yul\":5791:5826   */\n              swap1\n              pop\n                /* \"#utility.yul\":5739:5833   */\n              swap2\n              swap1\n              pop\n              jump\t// out\n                /* \"#utility.yul\":5839:5933   */\n            tag_53:\n                /* \"#utility.yul\":5878:5885   */\n              0x00\n                /* \"#utility.yul\":5907:5927   */\n              tag_125\n                /* \"#utility.yul\":5921:5926   */\n              dup3\n                /* \"#utility.yul\":5907:5927   */\n              tag_52\n              jump\t// in\n            tag_125:\n                /* \"#utility.yul\":5896:5927   */\n              swap1\n              pop\n                /* \"#utility.yul\":5839:5933   */\n              swap2\n              swap1\n              pop\n              jump\t// out\n                /* \"#utility.yul\":5939:6039   */\n            tag_54:\n                /* \"#utility.yul\":5978:5985   */\n              0x00\n                /* \"#utility.yul\":6007:6033   */\n              tag_127\n                /* \"#utility.yul\":6027:6032   */\n              dup3\n                /* \"#utility.yul\":6007:6033   */\n              tag_53\n              jump\t// in\n            tag_127:\n                /* \"#utility.yul\":5996:6033   */\n              swap1\n              pop\n                /* \"#utility.yul\":5939:6039   */\n              swap2\n              swap1\n              pop\n              jump\t// out\n                /* \"#utility.yul\":6045:6202   */\n            tag_55:\n                /* \"#utility.yul\":6150:6195   */\n              tag_129\n                /* \"#utility.yul\":6170:6194   */\n              tag_130\n                /* \"#utility.yul\":6188:6193   */\n              dup3\n                /* \"#utility.yul\":6170:6194   */\n              tag_33\n              jump\t// in\n            tag_130:\n                /* \"#utility.yul\":6150:6195   */\n              tag_54\n              jump\t// in\n            tag_129:\n                /* \"#utility.yul\":6145:6148   */\n              dup3\n                /* \"#utility.yul\":6138:6196   */\n              mstore\n                /* \"#utility.yul\":6045:6202   */\n              pop\n              pop\n              jump\t// out\n                /* \"#utility.yul\":6208:6287   */\n            tag_56:\n                /* \"#utility.yul\":6247:6254   */\n              0x00\n                /* \"#utility.yul\":6276:6281   */\n              dup2\n                /* \"#utility.yul\":6265:6281   */\n              swap1\n              pop\n                /* \"#utility.yul\":6208:6287   */\n              swap2\n              swap1\n              pop\n              jump\t// out\n                /* \"#utility.yul\":6293:6450   */\n            tag_57:\n                /* \"#utility.yul\":6398:6443   */\n              tag_133\n                /* \"#utility.yul\":6418:6442   */\n              tag_134\n                /* \"#utility.yul\":6436:6441   */\n              dup3\n                /* \"#utility.yul\":6418:6442   */\n              tag_36\n              jump\t// in\n            tag_134:\n                /* \"#utility.yul\":6398:6443   */\n              tag_56\n              jump\t// in\n            tag_133:\n                /* \"#utility.yul\":6393:6396   */\n              dup3\n                /* \"#utility.yul\":6386:6444   */\n              mstore\n                /* \"#utility.yul\":6293:6450   */\n              pop\n              pop\n              jump\t// out\n                /* \"#utility.yul\":6456:7130   */\n            tag_22:\n                /* \"#utility.yul\":6650:6653   */\n              0x00\n                /* \"#utility.yul\":6665:6738   */\n              tag_136\n                /* \"#utility.yul\":6734:6737   */\n              dup3\n                /* \"#utility.yul\":6725:6731   */\n              dup8\n                /* \"#utility.yul\":6665:6738   */\n              tag_51\n              jump\t// in\n            tag_136:\n                /* \"#utility.yul\":6763:6764   */\n              0x01\n                /* \"#utility.yul\":6758:6761   */\n              dup3\n                /* \"#utility.yul\":6754:6765   */\n              add\n                /* \"#utility.yul\":6747:6765   */\n              swap2\n              pop\n                /* \"#utility.yul\":6775:6850   */\n              tag_137\n                /* \"#utility.yul\":6846:6849   */\n              dup3\n                /* \"#utility.yul\":6837:6843   */\n              dup7\n                /* \"#utility.yul\":6775:6850   */\n              tag_55\n              jump\t// in\n            tag_137:\n                /* \"#utility.yul\":6875:6877   */\n              0x14\n                /* \"#utility.yul\":6870:6873   */\n              dup3\n                /* \"#utility.yul\":6866:6878   */\n              add\n                /* \"#utility.yul\":6859:6878   */\n              swap2\n              pop\n                /* \"#utility.yul\":6888:6963   */\n              tag_138\n                /* \"#utility.yul\":6959:6962   */\n              dup3\n                /* \"#utility.yul\":6950:6956   */\n              dup6\n                /* \"#utility.yul\":6888:6963   */\n              tag_57\n              jump\t// in\n            tag_138:\n                /* \"#utility.yul\":6988:6990   */\n              0x20\n                /* \"#utility.yul\":6983:6986   */\n              dup3\n                /* \"#utility.yul\":6979:6991   */\n              add\n                /* \"#utility.yul\":6972:6991   */\n              swap2\n              pop\n                /* \"#utility.yul\":7001:7076   */\n              tag_139\n                /* \"#utility.yul\":7072:7075   */\n              dup3\n                /* \"#utility.yul\":7063:7069   */\n              dup5\n                /* \"#utility.yul\":7001:7076   */\n              tag_57\n              jump\t// in\n            tag_139:\n                /* \"#utility.yul\":7101:7103   */\n              0x20\n                /* \"#utility.yul\":7096:7099   */\n              dup3\n                /* \"#utility.yul\":7092:7104   */\n              add\n                /* \"#utility.yul\":7085:7104   */\n              swap2\n              pop\n                /* \"#utility.yul\":7121:7124   */\n              dup2\n                /* \"#utility.yul\":7114:7124   */\n              swap1\n              pop\n                /* \"#utility.yul\":6456:7130   */\n              swap6\n              swap5\n              pop\n              pop\n              pop\n              pop\n              pop\n              jump\t// out\n\n            auxdata: 0xa264697066735822122056f569b9504221e1c66e8126fbb897032d22412a2462b964fd48815ef61a96b764736f6c63430008150033\n        }\n\n        sub_1: assembly {\n                /* \"shoot/2/create_create\\xe8\\xae\\xa1\\xe7\\xae\\x97/1.sol\":128:394  contract found{... */\n              mstore(0x40, 0x80)\n                /* \"shoot/2/create_create\\xe8\\xae\\xa1\\xe7\\xae\\x97/1.sol\":170:175  false */\n              0x00\n                /* \"shoot/2/create_create\\xe8\\xae\\xa1\\xe7\\xae\\x97/1.sol\":149:175  bool public resove = false */\n              dup1\n              exp(0x0100, 0x00)\n              dup2\n              sload\n              dup2\n              0xff\n              mul\n              not\n              and\n              swap1\n              dup4\n              iszero\n              iszero\n              mul\n              or\n              swap1\n              sstore\n              pop\n                /* \"shoot/2/create_create\\xe8\\xae\\xa1\\xe7\\xae\\x97/1.sol\":188:301  constructor(){... */\n              callvalue\n              dup1\n              iszero\n              tag_1\n              jumpi\n              0x00\n              dup1\n              revert\n            tag_1:\n              pop\n                /* \"shoot/2/create_create\\xe8\\xae\\xa1\\xe7\\xae\\x97/1.sol\":240:251  0.001 ether */\n              0x038d7ea4c68000\n                /* \"shoot/2/create_create\\xe8\\xae\\xa1\\xe7\\xae\\x97/1.sol\":215:236  address(this).balance */\n              selfbalance\n                /* \"shoot/2/create_create\\xe8\\xae\\xa1\\xe7\\xae\\x97/1.sol\":215:251  address(this).balance >= 0.001 ether */\n              lt\n                /* \"shoot/2/create_create\\xe8\\xae\\xa1\\xe7\\xae\\x97/1.sol\":212:292  if(address(this).balance >= 0.001 ether){... */\n              tag_4\n              jumpi\n                /* \"shoot/2/create_create\\xe8\\xae\\xa1\\xe7\\xae\\x97/1.sol\":276:280  true */\n              0x01\n                /* \"shoot/2/create_create\\xe8\\xae\\xa1\\xe7\\xae\\x97/1.sol\":267:273  resove */\n              0x00\n              dup1\n                /* \"shoot/2/create_create\\xe8\\xae\\xa1\\xe7\\xae\\x97/1.sol\":267:280  resove = true */\n              0x0100\n              exp\n              dup2\n              sload\n              dup2\n              0xff\n              mul\n              not\n              and\n              swap1\n              dup4\n              iszero\n              iszero\n              mul\n              or\n              swap1\n              sstore\n              pop\n                /* \"shoot/2/create_create\\xe8\\xae\\xa1\\xe7\\xae\\x97/1.sol\":212:292  if(address(this).balance >= 0.001 ether){... */\n            tag_4:\n                /* \"shoot/2/create_create\\xe8\\xae\\xa1\\xe7\\xae\\x97/1.sol\":128:394  contract found{... */\n              dataSize(sub_0)\n              dup1\n              dataOffset(sub_0)\n              0x00\n              codecopy\n              0x00\n              return\n            stop\n\n            sub_0: assembly {\n                    /* \"shoot/2/create_create\\xe8\\xae\\xa1\\xe7\\xae\\x97/1.sol\":128:394  contract found{... */\n                  mstore(0x40, 0x80)\n                  callvalue\n                  dup1\n                  iszero\n                  tag_1\n                  jumpi\n                  0x00\n                  dup1\n                  revert\n                tag_1:\n                  pop\n                  jumpi(tag_2, lt(calldatasize, 0x04))\n                  shr(0xe0, calldataload(0x00))\n                  dup1\n                  0x4c0f7987\n                  eq\n                  tag_3\n                  jumpi\n                  dup1\n                  0xac51c67d\n                  eq\n                  tag_4\n                  jumpi\n                tag_2:\n                  0x00\n                  dup1\n                  revert\n                    /* \"shoot/2/create_create\\xe8\\xae\\xa1\\xe7\\xae\\x97/1.sol\":313:391  function getResove() public view returns(bool){... */\n                tag_3:\n                  tag_5\n                  tag_6\n                  jump\t// in\n                tag_5:\n                  mload(0x40)\n                  tag_7\n                  swap2\n                  swap1\n                  tag_8\n                  jump\t// in\n                tag_7:\n                  mload(0x40)\n                  dup1\n                  swap2\n                  sub\n                  swap1\n                  return\n                    /* \"shoot/2/create_create\\xe8\\xae\\xa1\\xe7\\xae\\x97/1.sol\":149:175  bool public resove = false */\n                tag_4:\n                  tag_9\n                  tag_10\n                  jump\t// in\n                tag_9:\n                  mload(0x40)\n                  tag_11\n                  swap2\n                  swap1\n                  tag_8\n                  jump\t// in\n                tag_11:\n                  mload(0x40)\n                  dup1\n                  swap2\n                  sub\n                  swap1\n                  return\n                    /* \"shoot/2/create_create\\xe8\\xae\\xa1\\xe7\\xae\\x97/1.sol\":313:391  function getResove() public view returns(bool){... */\n                tag_6:\n                    /* \"shoot/2/create_create\\xe8\\xae\\xa1\\xe7\\xae\\x97/1.sol\":354:358  bool */\n                  0x00\n                    /* \"shoot/2/create_create\\xe8\\xae\\xa1\\xe7\\xae\\x97/1.sol\":377:383  resove */\n                  dup1\n                  0x00\n                  swap1\n                  sload\n                  swap1\n                  0x0100\n                  exp\n                  swap1\n                  div\n                  0xff\n                  and\n                    /* \"shoot/2/create_create\\xe8\\xae\\xa1\\xe7\\xae\\x97/1.sol\":370:383  return resove */\n                  swap1\n                  pop\n                    /* \"shoot/2/create_create\\xe8\\xae\\xa1\\xe7\\xae\\x97/1.sol\":313:391  function getResove() public view returns(bool){... */\n                  swap1\n                  jump\t// out\n                    /* \"shoot/2/create_create\\xe8\\xae\\xa1\\xe7\\xae\\x97/1.sol\":149:175  bool public resove = false */\n                tag_10:\n                  0x00\n                  dup1\n                  sload\n                  swap1\n                  0x0100\n                  exp\n                  swap1\n                  div\n                  0xff\n                  and\n                  dup2\n                  jump\t// out\n                    /* \"#utility.yul\":7:97   */\n                tag_13:\n                    /* \"#utility.yul\":41:48   */\n                  0x00\n                    /* \"#utility.yul\":84:89   */\n                  dup2\n                    /* \"#utility.yul\":77:90   */\n                  iszero\n                    /* \"#utility.yul\":70:91   */\n                  iszero\n                    /* \"#utility.yul\":59:91   */\n                  swap1\n                  pop\n                    /* \"#utility.yul\":7:97   */\n                  swap2\n                  swap1\n                  pop\n                  jump\t// out\n                    /* \"#utility.yul\":103:212   */\n                tag_14:\n                    /* \"#utility.yul\":184:205   */\n                  tag_18\n                    /* \"#utility.yul\":199:204   */\n                  dup2\n                    /* \"#utility.yul\":184:205   */\n                  tag_13\n                  jump\t// in\n                tag_18:\n                    /* \"#utility.yul\":179:182   */\n                  dup3\n                    /* \"#utility.yul\":172:206   */\n                  mstore\n                    /* \"#utility.yul\":103:212   */\n                  pop\n                  pop\n                  jump\t// out\n                    /* \"#utility.yul\":218:428   */\n                tag_8:\n                    /* \"#utility.yul\":305:309   */\n                  0x00\n                    /* \"#utility.yul\":343:345   */\n                  0x20\n                    /* \"#utility.yul\":332:341   */\n                  dup3\n                    /* \"#utility.yul\":328:346   */\n                  add\n                    /* \"#utility.yul\":320:346   */\n                  swap1\n                  pop\n                    /* \"#utility.yul\":356:421   */\n                  tag_20\n                    /* \"#utility.yul\":418:419   */\n                  0x00\n                    /* \"#utility.yul\":407:416   */\n                  dup4\n                    /* \"#utility.yul\":403:420   */\n                  add\n                    /* \"#utility.yul\":394:400   */\n                  dup5\n                    /* \"#utility.yul\":356:421   */\n                  tag_14\n                  jump\t// in\n                tag_20:\n                    /* \"#utility.yul\":218:428   */\n                  swap3\n                  swap2\n                  pop\n                  pop\n                  jump\t// out\n\n                auxdata: 0xa26469706673582212200259156a9f5842f0743c0b146c2ba3571e6524b62428346437df5c22e9393ed664736f6c63430008150033\n            }\n        }\n    }\n\n    auxdata: 0xa264697066735822122096c55024cb41a8fe0767c101368b43b1fe3bc3b0ed7a9cbaddf69538336e069064736f6c63430008150033\n}\n\nsub_1: assembly {\n        /* \"shoot/2/create_create\\xe8\\xae\\xa1\\xe7\\xae\\x97/1.sol\":128:394  contract found{... */\n      mstore(0x40, 0x80)\n        /* \"shoot/2/create_create\\xe8\\xae\\xa1\\xe7\\xae\\x97/1.sol\":170:175  false */\n      0x00\n        /* \"shoot/2/create_create\\xe8\\xae\\xa1\\xe7\\xae\\x97/1.sol\":149:175  bool public resove = false */\n      dup1\n      exp(0x0100, 0x00)\n      dup2\n      sload\n      dup2\n      0xff\n      mul\n      not\n      and\n      swap1\n      dup4\n      iszero\n      iszero\n      mul\n      or\n      swap1\n      sstore\n      pop\n        /* \"shoot/2/create_create\\xe8\\xae\\xa1\\xe7\\xae\\x97/1.sol\":188:301  constructor(){... */\n      callvalue\n      dup1\n      iszero\n      tag_1\n      jumpi\n      0x00\n      dup1\n      revert\n    tag_1:\n      pop\n        /* \"shoot/2/create_create\\xe8\\xae\\xa1\\xe7\\xae\\x97/1.sol\":240:251  0.001 ether */\n      0x038d7ea4c68000\n        /* \"shoot/2/create_create\\xe8\\xae\\xa1\\xe7\\xae\\x97/1.sol\":215:236  address(this).balance */\n      selfbalance\n        /* \"shoot/2/create_create\\xe8\\xae\\xa1\\xe7\\xae\\x97/1.sol\":215:251  address(this).balance >= 0.001 ether */\n      lt\n        /* \"shoot/2/create_create\\xe8\\xae\\xa1\\xe7\\xae\\x97/1.sol\":212:292  if(address(this).balance >= 0.001 ether){... */\n      tag_4\n      jumpi\n        /* \"shoot/2/create_create\\xe8\\xae\\xa1\\xe7\\xae\\x97/1.sol\":276:280  true */\n      0x01\n        /* \"shoot/2/create_create\\xe8\\xae\\xa1\\xe7\\xae\\x97/1.sol\":267:273  resove */\n      0x00\n      dup1\n        /* \"shoot/2/create_create\\xe8\\xae\\xa1\\xe7\\xae\\x97/1.sol\":267:280  resove = true */\n      0x0100\n      exp\n      dup2\n      sload\n      dup2\n      0xff\n      mul\n      not\n      and\n      swap1\n      dup4\n      iszero\n      iszero\n      mul\n      or\n      swap1\n      sstore\n      pop\n        /* \"shoot/2/create_create\\xe8\\xae\\xa1\\xe7\\xae\\x97/1.sol\":212:292  if(address(this).balance >= 0.001 ether){... */\n    tag_4:\n        /* \"shoot/2/create_create\\xe8\\xae\\xa1\\xe7\\xae\\x97/1.sol\":128:394  contract found{... */\n      dataSize(sub_0)\n      dup1\n      dataOffset(sub_0)\n      0x00\n      codecopy\n      0x00\n      return\n    stop\n\n    sub_0: assembly {\n            /* \"shoot/2/create_create\\xe8\\xae\\xa1\\xe7\\xae\\x97/1.sol\":128:394  contract found{... */\n          mstore(0x40, 0x80)\n          callvalue\n          dup1\n          iszero\n          tag_1\n          jumpi\n          0x00\n          dup1\n          revert\n        tag_1:\n          pop\n          jumpi(tag_2, lt(calldatasize, 0x04))\n          shr(0xe0, calldataload(0x00))\n          dup1\n          0x4c0f7987\n          eq\n          tag_3\n          jumpi\n          dup1\n          0xac51c67d\n          eq\n          tag_4\n          jumpi\n        tag_2:\n          0x00\n          dup1\n          revert\n            /* \"shoot/2/create_create\\xe8\\xae\\xa1\\xe7\\xae\\x97/1.sol\":313:391  function getResove() public view returns(bool){... */\n        tag_3:\n          tag_5\n          tag_6\n          jump\t// in\n        tag_5:\n          mload(0x40)\n          tag_7\n          swap2\n          swap1\n          tag_8\n          jump\t// in\n        tag_7:\n          mload(0x40)\n          dup1\n          swap2\n          sub\n          swap1\n          return\n            /* \"shoot/2/create_create\\xe8\\xae\\xa1\\xe7\\xae\\x97/1.sol\":149:175  bool public resove = false */\n        tag_4:\n          tag_9\n          tag_10\n          jump\t// in\n        tag_9:\n          mload(0x40)\n          tag_11\n          swap2\n          swap1\n          tag_8\n          jump\t// in\n        tag_11:\n          mload(0x40)\n          dup1\n          swap2\n          sub\n          swap1\n          return\n            /* \"shoot/2/create_create\\xe8\\xae\\xa1\\xe7\\xae\\x97/1.sol\":313:391  function getResove() public view returns(bool){... */\n        tag_6:\n            /* \"shoot/2/create_create\\xe8\\xae\\xa1\\xe7\\xae\\x97/1.sol\":354:358  bool */\n          0x00\n            /* \"shoot/2/create_create\\xe8\\xae\\xa1\\xe7\\xae\\x97/1.sol\":377:383  resove */\n          dup1\n          0x00\n          swap1\n          sload\n          swap1\n          0x0100\n          exp\n          swap1\n          div\n          0xff\n          and\n            /* \"shoot/2/create_create\\xe8\\xae\\xa1\\xe7\\xae\\x97/1.sol\":370:383  return resove */\n          swap1\n          pop\n            /* \"shoot/2/create_create\\xe8\\xae\\xa1\\xe7\\xae\\x97/1.sol\":313:391  function getResove() public view returns(bool){... */\n          swap1\n          jump\t// out\n            /* \"shoot/2/create_create\\xe8\\xae\\xa1\\xe7\\xae\\x97/1.sol\":149:175  bool public resove = false */\n        tag_10:\n          0x00\n          dup1\n          sload\n          swap1\n          0x0100\n          exp\n          swap1\n          div\n          0xff\n          and\n          dup2\n          jump\t// out\n            /* \"#utility.yul\":7:97   */\n        tag_13:\n            /* \"#utility.yul\":41:48   */\n          0x00\n            /* \"#utility.yul\":84:89   */\n          dup2\n            /* \"#utility.yul\":77:90   */\n          iszero\n            /* \"#utility.yul\":70:91   */\n          iszero\n            /* \"#utility.yul\":59:91   */\n          swap1\n          pop\n            /* \"#utility.yul\":7:97   */\n          swap2\n          swap1\n          pop\n          jump\t// out\n            /* \"#utility.yul\":103:212   */\n        tag_14:\n            /* \"#utility.yul\":184:205   */\n          tag_18\n            /* \"#utility.yul\":199:204   */\n          dup2\n            /* \"#utility.yul\":184:205   */\n          tag_13\n          jump\t// in\n        tag_18:\n            /* \"#utility.yul\":179:182   */\n          dup3\n            /* \"#utility.yul\":172:206   */\n          mstore\n            /* \"#utility.yul\":103:212   */\n          pop\n          pop\n          jump\t// out\n            /* \"#utility.yul\":218:428   */\n        tag_8:\n            /* \"#utility.yul\":305:309   */\n          0x00\n            /* \"#utility.yul\":343:345   */\n          0x20\n            /* \"#utility.yul\":332:341   */\n          dup3\n            /* \"#utility.yul\":328:346   */\n          add\n            /* \"#utility.yul\":320:346   */\n          swap1\n          pop\n            /* \"#utility.yul\":356:421   */\n          tag_20\n            /* \"#utility.yul\":418:419   */\n          0x00\n            /* \"#utility.yul\":407:416   */\n          dup4\n            /* \"#utility.yul\":403:420   */\n          add\n            /* \"#utility.yul\":394:400   */\n          dup5\n            /* \"#utility.yul\":356:421   */\n          tag_14\n          jump\t// in\n        tag_20:\n            /* \"#utility.yul\":218:428   */\n          swap3\n          swap2\n          pop\n          pop\n          jump\t// out\n\n        auxdata: 0xa26469706673582212200259156a9f5842f0743c0b146c2ba3571e6524b62428346437df5c22e9393ed664736f6c63430008150033\n    }\n}\n",
				"bytecode": {
					"linkReferences": {},
					"object": "6080604052604051806020016200001690620000cf565b6020820181038252601f19601f82011660405250600190816200003a919062000341565b5060016040516200004c9190620004bb565b604051809103902060025534801562000063575f80fd5b5060405162001be838038062001be883398181016040528101906200008991906200054b565b805f806101000a81548173ffffffffffffffffffffffffffffffffffffffff021916908373ffffffffffffffffffffffffffffffffffffffff160217905550506200057b565b61014d8062001a9b83390190565b5f81519050919050565b7f4e487b71000000000000000000000000000000000000000000000000000000005f52604160045260245ffd5b7f4e487b71000000000000000000000000000000000000000000000000000000005f52602260045260245ffd5b5f60028204905060018216806200015957607f821691505b6020821081036200016f576200016e62000114565b5b50919050565b5f819050815f5260205f209050919050565b5f6020601f8301049050919050565b5f82821b905092915050565b5f60088302620001d37fffffffffffffffffffffffffffffffffffffffffffffffffffffffffffffffff8262000196565b620001df868362000196565b95508019841693508086168417925050509392505050565b5f819050919050565b5f819050919050565b5f62000229620002236200021d84620001f7565b62000200565b620001f7565b9050919050565b5f819050919050565b620002448362000209565b6200025c620002538262000230565b848454620001a2565b825550505050565b5f90565b6200027262000264565b6200027f81848462000239565b505050565b5b81811015620002a6576200029a5f8262000268565b60018101905062000285565b5050565b601f821115620002f557620002bf8162000175565b620002ca8462000187565b81016020851015620002da578190505b620002f2620002e98562000187565b83018262000284565b50505b505050565b5f82821c905092915050565b5f620003175f1984600802620002fa565b1980831691505092915050565b5f62000331838362000306565b9150826002028217905092915050565b6200034c82620000dd565b67ffffffffffffffff811115620003685762000367620000e7565b5b62000374825462000141565b62000381828285620002aa565b5f60209050601f831160018114620003b7575f8415620003a2578287015190505b620003ae858262000324565b8655506200041d565b601f198416620003c78662000175565b5f5b82811015620003f057848901518255600182019150602085019450602081019050620003c9565b868310156200041057848901516200040c601f89168262000306565b8355505b6001600288020188555050505b505050505050565b5f81905092915050565b5f81546200043d8162000141565b62000449818662000425565b9450600182165f81146200046657600181146200047c57620004b2565b60ff1983168652811515820286019350620004b2565b620004878562000175565b5f5b83811015620004aa5781548189015260018201915060208101905062000489565b838801955050505b50505092915050565b5f620004c882846200042f565b915081905092915050565b5f80fd5b5f73ffffffffffffffffffffffffffffffffffffffff82169050919050565b5f6200050282620004d7565b9050919050565b5f6200051582620004f6565b9050919050565b620005278162000509565b811462000532575f80fd5b50565b5f8151905062000545816200051c565b92915050565b5f60208284031215620005635762000562620004d3565b5b5f620005728482850162000535565b91505092915050565b61151280620005895f395ff3fe6080604052600436106200004f575f3560e01c806308684d38146200005357806371690caf1462000096578063c2f3b48214620000c5578063cccecb1414620000e5578063e2179b8e1462000114575b5f80fd5b3480156200005f575f80fd5b506200007e6004803603810190620000789190620004f8565b62000143565b6040516200008d91906200054e565b60405180910390f35b348015620000a2575f80fd5b50620000ad620001c0565b604051620000bc91906200057a565b60405180910390f35b620000e36004803603810190620000dd919062000595565b620001c6565b005b348015620000f1575f80fd5b50620000fc620003a5565b6040516200010b919062000659565b60405180910390f35b34801562000120575f80fd5b506200012b62000439565b6040516200013a91906200057a565b60405180910390f35b5f806040518060200162000157906200043f565b6020820181038252601f19601f820116604052509050808051906020012060038190555060ff60f81b848483805190602001206040516020016200019f94939291906200073b565b604051602081830303815290604052805190602001205f1c91505092915050565b60035481565b5f66038d7ea4c68000604051620001dd906200044d565b6040518091039082f0905080158015620001f9573d5f803e3d5ffd5b5090508073ffffffffffffffffffffffffffffffffffffffff166308684d385f8054906101000a900473ffffffffffffffffffffffffffffffffffffffff16846040518363ffffffff1660e01b81526004016200025892919062000790565b5f604051808303815f87803b15801562000270575f80fd5b505af115801562000283573d5f803e3d5ffd5b505050505f8054906101000a900473ffffffffffffffffffffffffffffffffffffffff1673ffffffffffffffffffffffffffffffffffffffff1663d93f4900836040518263ffffffff1660e01b8152600401620002e191906200057a565b6020604051808303815f875af1158015620002fe573d5f803e3d5ffd5b505050506040513d601f19601f82011682018060405250810190620003249190620007d1565b505f8054906101000a900473ffffffffffffffffffffffffffffffffffffffff1673ffffffffffffffffffffffffffffffffffffffff1663fa391c646040518163ffffffff1660e01b81526004015f604051808303815f87803b1580156200038a575f80fd5b505af11580156200039d573d5f803e3d5ffd5b505050505050565b60018054620003b4906200082e565b80601f0160208091040260200160405190810160405280929190818152602001828054620003e2906200082e565b8015620004315780601f10620004075761010080835404028352916020019162000431565b820191905f5260205f20905b8154815290600101906020018083116200041357829003601f168201915b505050505081565b60025481565b61014d806200086383390190565b610b2d80620009b083390190565b5f80fd5b5f73ffffffffffffffffffffffffffffffffffffffff82169050919050565b5f6200048a826200045f565b9050919050565b6200049c816200047e565b8114620004a7575f80fd5b50565b5f81359050620004ba8162000491565b92915050565b5f819050919050565b620004d481620004c0565b8114620004df575f80fd5b50565b5f81359050620004f281620004c9565b92915050565b5f80604083850312156200051157620005106200045b565b5b5f6200052085828601620004aa565b92505060206200053385828601620004e2565b9150509250929050565b62000548816200047e565b82525050565b5f602082019050620005635f8301846200053d565b92915050565b6200057481620004c0565b82525050565b5f6020820190506200058f5f83018462000569565b92915050565b5f60208284031215620005ad57620005ac6200045b565b5b5f620005bc84828501620004e2565b91505092915050565b5f81519050919050565b5f82825260208201905092915050565b5f5b83811015620005fe578082015181840152602081019050620005e1565b5f8484015250505050565b5f601f19601f8301169050919050565b5f6200062582620005c5565b620006318185620005cf565b935062000643818560208601620005df565b6200064e8162000609565b840191505092915050565b5f6020820190508181035f83015262000673818462000619565b905092915050565b5f7fff0000000000000000000000000000000000000000000000000000000000000082169050919050565b5f819050919050565b620006c4620006be826200067b565b620006a6565b82525050565b5f8160601b9050919050565b5f620006e282620006ca565b9050919050565b5f620006f582620006d6565b9050919050565b620007116200070b826200047e565b620006e9565b82525050565b5f819050919050565b620007356200072f82620004c0565b62000717565b82525050565b5f620007488287620006af565b6001820191506200075a8286620006fc565b6014820191506200076c828562000720565b6020820191506200077e828462000720565b60208201915081905095945050505050565b5f604082019050620007a55f8301856200053d565b620007b4602083018462000569565b9392505050565b5f81519050620007cb8162000491565b92915050565b5f60208284031215620007e957620007e86200045b565b5b5f620007f884828501620007bb565b91505092915050565b7f4e487b71000000000000000000000000000000000000000000000000000000005f52602260045260245ffd5b5f60028204905060018216806200084657607f821691505b6020821081036200085c576200085b62000801565b5b5091905056fe60806040525f805f6101000a81548160ff021916908315150217905550348015610027575f80fd5b5066038d7ea4c6800047106100505760015f806101000a81548160ff0219169083151502179055505b60f18061005c5f395ff3fe6080604052348015600e575f80fd5b50600436106030575f3560e01c80634c0f7987146034578063ac51c67d14604e575b5f80fd5b603a6068565b6040516045919060a4565b60405180910390f35b6054607c565b604051605f919060a4565b60405180910390f35b5f805f9054906101000a900460ff16905090565b5f8054906101000a900460ff1681565b5f8115159050919050565b609e81608c565b82525050565b5f60208201905060b55f8301846097565b9291505056fea26469706673582212200259156a9f5842f0743c0b146c2ba3571e6524b62428346437df5c22e9393ed664736f6c6343000815003360806040526040518060200162000016906200005b565b6020820181038252601f19601f820116604052505f9081620000399190620002cd565b505f6040516200004a919062000447565b60405180910390206001556200045f565b61014d80620009e083390190565b5f81519050919050565b7f4e487b71000000000000000000000000000000000000000000000000000000005f52604160045260245ffd5b7f4e487b71000000000000000000000000000000000000000000000000000000005f52602260045260245ffd5b5f6002820490506001821680620000e557607f821691505b602082108103620000fb57620000fa620000a0565b5b50919050565b5f819050815f5260205f209050919050565b5f6020601f8301049050919050565b5f82821b905092915050565b5f600883026200015f7fffffffffffffffffffffffffffffffffffffffffffffffffffffffffffffffff8262000122565b6200016b868362000122565b95508019841693508086168417925050509392505050565b5f819050919050565b5f819050919050565b5f620001b5620001af620001a98462000183565b6200018c565b62000183565b9050919050565b5f819050919050565b620001d08362000195565b620001e8620001df82620001bc565b8484546200012e565b825550505050565b5f90565b620001fe620001f0565b6200020b818484620001c5565b505050565b5b818110156200023257620002265f82620001f4565b60018101905062000211565b5050565b601f82111562000281576200024b8162000101565b620002568462000113565b8101602085101562000266578190505b6200027e620002758562000113565b83018262000210565b50505b505050565b5f82821c905092915050565b5f620002a35f198460080262000286565b1980831691505092915050565b5f620002bd838362000292565b9150826002028217905092915050565b620002d88262000069565b67ffffffffffffffff811115620002f457620002f362000073565b5b620003008254620000cd565b6200030d82828562000236565b5f60209050601f83116001811462000343575f84156200032e578287015190505b6200033a8582620002b0565b865550620003a9565b601f198416620003538662000101565b5f5b828110156200037c5784890151825560018201915060208501945060208101905062000355565b868310156200039c578489015162000398601f89168262000292565b8355505b6001600288020188555050505b505050505050565b5f81905092915050565b5f8154620003c981620000cd565b620003d58186620003b1565b9450600182165f8114620003f2576001811462000408576200043e565b60ff19831686528115158202860193506200043e565b620004138562000101565b5f5b83811015620004365781548189015260018201915060208101905062000415565b838801955050505b50505092915050565b5f620004548284620003bb565b915081905092915050565b610573806200046d5f395ff3fe608060405234801561000f575f80fd5b506004361061003f575f3560e01c806308684d3814610043578063cccecb141461005f578063e2179b8e1461007d575b5f80fd5b61005d60048036038101906100589190610221565b61009b565b005b6100676100ff565b60405161007491906102e9565b60405180910390f35b61008561018a565b6040516100929190610318565b60405180910390f35b5f60ff60f81b83835f6040516100b1919061042a565b60405180910390206040516020016100cc94939291906104f0565b604051602081830303815290604052805190602001205f1c90508073ffffffffffffffffffffffffffffffffffffffff16ff5b5f805461010b9061035e565b80601f01602080910402602001604051908101604052809291908181526020018280546101379061035e565b80156101825780601f1061015957610100808354040283529160200191610182565b820191905f5260205f20905b81548152906001019060200180831161016557829003601f168201915b505050505081565b60015481565b5f80fd5b5f73ffffffffffffffffffffffffffffffffffffffff82169050919050565b5f6101bd82610194565b9050919050565b6101cd816101b3565b81146101d7575f80fd5b50565b5f813590506101e8816101c4565b92915050565b5f819050919050565b610200816101ee565b811461020a575f80fd5b50565b5f8135905061021b816101f7565b92915050565b5f806040838503121561023757610236610190565b5b5f610244858286016101da565b92505060206102558582860161020d565b9150509250929050565b5f81519050919050565b5f82825260208201905092915050565b5f5b8381101561029657808201518184015260208101905061027b565b5f8484015250505050565b5f601f19601f8301169050919050565b5f6102bb8261025f565b6102c58185610269565b93506102d5818560208601610279565b6102de816102a1565b840191505092915050565b5f6020820190508181035f83015261030181846102b1565b905092915050565b610312816101ee565b82525050565b5f60208201905061032b5f830184610309565b92915050565b7f4e487b71000000000000000000000000000000000000000000000000000000005f52602260045260245ffd5b5f600282049050600182168061037557607f821691505b60208210810361038857610387610331565b5b50919050565b5f81905092915050565b5f819050815f5260205f209050919050565b5f81546103b68161035e565b6103c0818661038e565b9450600182165f81146103da57600181146103ef57610421565b60ff1983168652811515820286019350610421565b6103f885610398565b5f5b83811015610419578154818901526001820191506020810190506103fa565b838801955050505b50505092915050565b5f61043582846103aa565b915081905092915050565b5f7fff0000000000000000000000000000000000000000000000000000000000000082169050919050565b5f819050919050565b61048561048082610440565b61046b565b82525050565b5f8160601b9050919050565b5f6104a18261048b565b9050919050565b5f6104b282610497565b9050919050565b6104ca6104c5826101b3565b6104a8565b82525050565b5f819050919050565b6104ea6104e5826101ee565b6104d0565b82525050565b5f6104fb8287610474565b60018201915061050b82866104b9565b60148201915061051b82856104d9565b60208201915061052b82846104d9565b6020820191508190509594505050505056fea264697066735822122056f569b9504221e1c66e8126fbb897032d22412a2462b964fd48815ef61a96b764736f6c6343000815003360806040525f805f6101000a81548160ff021916908315150217905550348015610027575f80fd5b5066038d7ea4c6800047106100505760015f806101000a81548160ff0219169083151502179055505b60f18061005c5f395ff3fe6080604052348015600e575f80fd5b50600436106030575f3560e01c80634c0f7987146034578063ac51c67d14604e575b5f80fd5b603a6068565b6040516045919060a4565b60405180910390f35b6054607c565b604051605f919060a4565b60405180910390f35b5f805f9054906101000a900460ff16905090565b5f8054906101000a900460ff1681565b5f8115159050919050565b609e81608c565b82525050565b5f60208201905060b55f8301846097565b9291505056fea26469706673582212200259156a9f5842f0743c0b146c2ba3571e6524b62428346437df5c22e9393ed664736f6c63430008150033a264697066735822122096c55024cb41a8fe0767c101368b43b1fe3bc3b0ed7a9cbaddf69538336e069064736f6c6343000815003360806040525f805f6101000a81548160ff021916908315150217905550348015610027575f80fd5b5066038d7ea4c6800047106100505760015f806101000a81548160ff0219169083151502179055505b60f18061005c5f395ff3fe6080604052348015600e575f80fd5b50600436106030575f3560e01c80634c0f7987146034578063ac51c67d14604e575b5f80fd5b603a6068565b6040516045919060a4565b60405180910390f35b6054607c565b604051605f919060a4565b60405180910390f35b5f805f9054906101000a900460ff16905090565b5f8054906101000a900460ff1681565b5f8115159050919050565b609e81608c565b82525050565b5f60208201905060b55f8301846097565b9291505056fea26469706673582212200259156a9f5842f0743c0b146c2ba3571e6524b62428346437df5c22e9393ed664736f6c63430008150033",
					"opcodes": "PUSH1 0x80 PUSH1 0x40 MSTORE PUSH1 0x40 MLOAD DUP1 PUSH1 0x20 ADD PUSH3 0x16 SWAP1 PUSH3 0xCF JUMP JUMPDEST PUSH1 0x20 DUP3 ADD DUP2 SUB DUP3 MSTORE PUSH1 0x1F NOT PUSH1 0x1F DUP3 ADD AND PUSH1 0x40 MSTORE POP PUSH1 0x1 SWAP1 DUP2 PUSH3 0x3A SWAP2 SWAP1 PUSH3 0x341 JUMP JUMPDEST POP PUSH1 0x1 PUSH1 0x40 MLOAD PUSH3 0x4C SWAP2 SWAP1 PUSH3 0x4BB JUMP JUMPDEST PUSH1 0x40 MLOAD DUP1 SWAP2 SUB SWAP1 KECCAK256 PUSH1 0x2 SSTORE CALLVALUE DUP1 ISZERO PUSH3 0x63 JUMPI PUSH0 DUP1 REVERT JUMPDEST POP PUSH1 0x40 MLOAD PUSH3 0x1BE8 CODESIZE SUB DUP1 PUSH3 0x1BE8 DUP4 CODECOPY DUP2 DUP2 ADD PUSH1 0x40 MSTORE DUP2 ADD SWAP1 PUSH3 0x89 SWAP2 SWAP1 PUSH3 0x54B JUMP JUMPDEST DUP1 PUSH0 DUP1 PUSH2 0x100 EXP DUP2 SLOAD DUP2 PUSH20 0xFFFFFFFFFFFFFFFFFFFFFFFFFFFFFFFFFFFFFFFF MUL NOT AND SWAP1 DUP4 PUSH20 0xFFFFFFFFFFFFFFFFFFFFFFFFFFFFFFFFFFFFFFFF AND MUL OR SWAP1 SSTORE POP POP PUSH3 0x57B JUMP JUMPDEST PUSH2 0x14D DUP1 PUSH3 0x1A9B DUP4 CODECOPY ADD SWAP1 JUMP JUMPDEST PUSH0 DUP2 MLOAD SWAP1 POP SWAP2 SWAP1 POP JUMP JUMPDEST PUSH32 0x4E487B7100000000000000000000000000000000000000000000000000000000 PUSH0 MSTORE PUSH1 0x41 PUSH1 0x4 MSTORE PUSH1 0x24 PUSH0 REVERT JUMPDEST PUSH32 0x4E487B7100000000000000000000000000000000000000000000000000000000 PUSH0 MSTORE PUSH1 0x22 PUSH1 0x4 MSTORE PUSH1 0x24 PUSH0 REVERT JUMPDEST PUSH0 PUSH1 0x2 DUP3 DIV SWAP1 POP PUSH1 0x1 DUP3 AND DUP1 PUSH3 0x159 JUMPI PUSH1 0x7F DUP3 AND SWAP2 POP JUMPDEST PUSH1 0x20 DUP3 LT DUP2 SUB PUSH3 0x16F JUMPI PUSH3 0x16E PUSH3 0x114 JUMP JUMPDEST JUMPDEST POP SWAP2 SWAP1 POP JUMP JUMPDEST PUSH0 DUP2 SWAP1 POP DUP2 PUSH0 MSTORE PUSH1 0x20 PUSH0 KECCAK256 SWAP1 POP SWAP2 SWAP1 POP JUMP JUMPDEST PUSH0 PUSH1 0x20 PUSH1 0x1F DUP4 ADD DIV SWAP1 POP SWAP2 SWAP1 POP JUMP JUMPDEST PUSH0 DUP3 DUP3 SHL SWAP1 POP SWAP3 SWAP2 POP POP JUMP JUMPDEST PUSH0 PUSH1 0x8 DUP4 MUL PUSH3 0x1D3 PUSH32 0xFFFFFFFFFFFFFFFFFFFFFFFFFFFFFFFFFFFFFFFFFFFFFFFFFFFFFFFFFFFFFFFF DUP3 PUSH3 0x196 JUMP JUMPDEST PUSH3 0x1DF DUP7 DUP4 PUSH3 0x196 JUMP JUMPDEST SWAP6 POP DUP1 NOT DUP5 AND SWAP4 POP DUP1 DUP7 AND DUP5 OR SWAP3 POP POP POP SWAP4 SWAP3 POP POP POP JUMP JUMPDEST PUSH0 DUP2 SWAP1 POP SWAP2 SWAP1 POP JUMP JUMPDEST PUSH0 DUP2 SWAP1 POP SWAP2 SWAP1 POP JUMP JUMPDEST PUSH0 PUSH3 0x229 PUSH3 0x223 PUSH3 0x21D DUP5 PUSH3 0x1F7 JUMP JUMPDEST PUSH3 0x200 JUMP JUMPDEST PUSH3 0x1F7 JUMP JUMPDEST SWAP1 POP SWAP2 SWAP1 POP JUMP JUMPDEST PUSH0 DUP2 SWAP1 POP SWAP2 SWAP1 POP JUMP JUMPDEST PUSH3 0x244 DUP4 PUSH3 0x209 JUMP JUMPDEST PUSH3 0x25C PUSH3 0x253 DUP3 PUSH3 0x230 JUMP JUMPDEST DUP5 DUP5 SLOAD PUSH3 0x1A2 JUMP JUMPDEST DUP3 SSTORE POP POP POP POP JUMP JUMPDEST PUSH0 SWAP1 JUMP JUMPDEST PUSH3 0x272 PUSH3 0x264 JUMP JUMPDEST PUSH3 0x27F DUP2 DUP5 DUP5 PUSH3 0x239 JUMP JUMPDEST POP POP POP JUMP JUMPDEST JUMPDEST DUP2 DUP2 LT ISZERO PUSH3 0x2A6 JUMPI PUSH3 0x29A PUSH0 DUP3 PUSH3 0x268 JUMP JUMPDEST PUSH1 0x1 DUP2 ADD SWAP1 POP PUSH3 0x285 JUMP JUMPDEST POP POP JUMP JUMPDEST PUSH1 0x1F DUP3 GT ISZERO PUSH3 0x2F5 JUMPI PUSH3 0x2BF DUP2 PUSH3 0x175 JUMP JUMPDEST PUSH3 0x2CA DUP5 PUSH3 0x187 JUMP JUMPDEST DUP2 ADD PUSH1 0x20 DUP6 LT ISZERO PUSH3 0x2DA JUMPI DUP2 SWAP1 POP JUMPDEST PUSH3 0x2F2 PUSH3 0x2E9 DUP6 PUSH3 0x187 JUMP JUMPDEST DUP4 ADD DUP3 PUSH3 0x284 JUMP JUMPDEST POP POP JUMPDEST POP POP POP JUMP JUMPDEST PUSH0 DUP3 DUP3 SHR SWAP1 POP SWAP3 SWAP2 POP POP JUMP JUMPDEST PUSH0 PUSH3 0x317 PUSH0 NOT DUP5 PUSH1 0x8 MUL PUSH3 0x2FA JUMP JUMPDEST NOT DUP1 DUP4 AND SWAP2 POP POP SWAP3 SWAP2 POP POP JUMP JUMPDEST PUSH0 PUSH3 0x331 DUP4 DUP4 PUSH3 0x306 JUMP JUMPDEST SWAP2 POP DUP3 PUSH1 0x2 MUL DUP3 OR SWAP1 POP SWAP3 SWAP2 POP POP JUMP JUMPDEST PUSH3 0x34C DUP3 PUSH3 0xDD JUMP JUMPDEST PUSH8 0xFFFFFFFFFFFFFFFF DUP2 GT ISZERO PUSH3 0x368 JUMPI PUSH3 0x367 PUSH3 0xE7 JUMP JUMPDEST JUMPDEST PUSH3 0x374 DUP3 SLOAD PUSH3 0x141 JUMP JUMPDEST PUSH3 0x381 DUP3 DUP3 DUP6 PUSH3 0x2AA JUMP JUMPDEST PUSH0 PUSH1 0x20 SWAP1 POP PUSH1 0x1F DUP4 GT PUSH1 0x1 DUP2 EQ PUSH3 0x3B7 JUMPI PUSH0 DUP5 ISZERO PUSH3 0x3A2 JUMPI DUP3 DUP8 ADD MLOAD SWAP1 POP JUMPDEST PUSH3 0x3AE DUP6 DUP3 PUSH3 0x324 JUMP JUMPDEST DUP7 SSTORE POP PUSH3 0x41D JUMP JUMPDEST PUSH1 0x1F NOT DUP5 AND PUSH3 0x3C7 DUP7 PUSH3 0x175 JUMP JUMPDEST PUSH0 JUMPDEST DUP3 DUP2 LT ISZERO PUSH3 0x3F0 JUMPI DUP5 DUP10 ADD MLOAD DUP3 SSTORE PUSH1 0x1 DUP3 ADD SWAP2 POP PUSH1 0x20 DUP6 ADD SWAP5 POP PUSH1 0x20 DUP2 ADD SWAP1 POP PUSH3 0x3C9 JUMP JUMPDEST DUP7 DUP4 LT ISZERO PUSH3 0x410 JUMPI DUP5 DUP10 ADD MLOAD PUSH3 0x40C PUSH1 0x1F DUP10 AND DUP3 PUSH3 0x306 JUMP JUMPDEST DUP4 SSTORE POP JUMPDEST PUSH1 0x1 PUSH1 0x2 DUP9 MUL ADD DUP9 SSTORE POP POP POP JUMPDEST POP POP POP POP POP POP JUMP JUMPDEST PUSH0 DUP2 SWAP1 POP SWAP3 SWAP2 POP POP JUMP JUMPDEST PUSH0 DUP2 SLOAD PUSH3 0x43D DUP2 PUSH3 0x141 JUMP JUMPDEST PUSH3 0x449 DUP2 DUP7 PUSH3 0x425 JUMP JUMPDEST SWAP5 POP PUSH1 0x1 DUP3 AND PUSH0 DUP2 EQ PUSH3 0x466 JUMPI PUSH1 0x1 DUP2 EQ PUSH3 0x47C JUMPI PUSH3 0x4B2 JUMP JUMPDEST PUSH1 0xFF NOT DUP4 AND DUP7 MSTORE DUP2 ISZERO ISZERO DUP3 MUL DUP7 ADD SWAP4 POP PUSH3 0x4B2 JUMP JUMPDEST PUSH3 0x487 DUP6 PUSH3 0x175 JUMP JUMPDEST PUSH0 JUMPDEST DUP4 DUP2 LT ISZERO PUSH3 0x4AA JUMPI DUP2 SLOAD DUP2 DUP10 ADD MSTORE PUSH1 0x1 DUP3 ADD SWAP2 POP PUSH1 0x20 DUP2 ADD SWAP1 POP PUSH3 0x489 JUMP JUMPDEST DUP4 DUP9 ADD SWAP6 POP POP POP JUMPDEST POP POP POP SWAP3 SWAP2 POP POP JUMP JUMPDEST PUSH0 PUSH3 0x4C8 DUP3 DUP5 PUSH3 0x42F JUMP JUMPDEST SWAP2 POP DUP2 SWAP1 POP SWAP3 SWAP2 POP POP JUMP JUMPDEST PUSH0 DUP1 REVERT JUMPDEST PUSH0 PUSH20 0xFFFFFFFFFFFFFFFFFFFFFFFFFFFFFFFFFFFFFFFF DUP3 AND SWAP1 POP SWAP2 SWAP1 POP JUMP JUMPDEST PUSH0 PUSH3 0x502 DUP3 PUSH3 0x4D7 JUMP JUMPDEST SWAP1 POP SWAP2 SWAP1 POP JUMP JUMPDEST PUSH0 PUSH3 0x515 DUP3 PUSH3 0x4F6 JUMP JUMPDEST SWAP1 POP SWAP2 SWAP1 POP JUMP JUMPDEST PUSH3 0x527 DUP2 PUSH3 0x509 JUMP JUMPDEST DUP2 EQ PUSH3 0x532 JUMPI PUSH0 DUP1 REVERT JUMPDEST POP JUMP JUMPDEST PUSH0 DUP2 MLOAD SWAP1 POP PUSH3 0x545 DUP2 PUSH3 0x51C JUMP JUMPDEST SWAP3 SWAP2 POP POP JUMP JUMPDEST PUSH0 PUSH1 0x20 DUP3 DUP5 SUB SLT ISZERO PUSH3 0x563 JUMPI PUSH3 0x562 PUSH3 0x4D3 JUMP JUMPDEST JUMPDEST PUSH0 PUSH3 0x572 DUP5 DUP3 DUP6 ADD PUSH3 0x535 JUMP JUMPDEST SWAP2 POP POP SWAP3 SWAP2 POP POP JUMP JUMPDEST PUSH2 0x1512 DUP1 PUSH3 0x589 PUSH0 CODECOPY PUSH0 RETURN INVALID PUSH1 0x80 PUSH1 0x40 MSTORE PUSH1 0x4 CALLDATASIZE LT PUSH3 0x4F JUMPI PUSH0 CALLDATALOAD PUSH1 0xE0 SHR DUP1 PUSH4 0x8684D38 EQ PUSH3 0x53 JUMPI DUP1 PUSH4 0x71690CAF EQ PUSH3 0x96 JUMPI DUP1 PUSH4 0xC2F3B482 EQ PUSH3 0xC5 JUMPI DUP1 PUSH4 0xCCCECB14 EQ PUSH3 0xE5 JUMPI DUP1 PUSH4 0xE2179B8E EQ PUSH3 0x114 JUMPI JUMPDEST PUSH0 DUP1 REVERT JUMPDEST CALLVALUE DUP1 ISZERO PUSH3 0x5F JUMPI PUSH0 DUP1 REVERT JUMPDEST POP PUSH3 0x7E PUSH1 0x4 DUP1 CALLDATASIZE SUB DUP2 ADD SWAP1 PUSH3 0x78 SWAP2 SWAP1 PUSH3 0x4F8 JUMP JUMPDEST PUSH3 0x143 JUMP JUMPDEST PUSH1 0x40 MLOAD PUSH3 0x8D SWAP2 SWAP1 PUSH3 0x54E JUMP JUMPDEST PUSH1 0x40 MLOAD DUP1 SWAP2 SUB SWAP1 RETURN JUMPDEST CALLVALUE DUP1 ISZERO PUSH3 0xA2 JUMPI PUSH0 DUP1 REVERT JUMPDEST POP PUSH3 0xAD PUSH3 0x1C0 JUMP JUMPDEST PUSH1 0x40 MLOAD PUSH3 0xBC SWAP2 SWAP1 PUSH3 0x57A JUMP JUMPDEST PUSH1 0x40 MLOAD DUP1 SWAP2 SUB SWAP1 RETURN JUMPDEST PUSH3 0xE3 PUSH1 0x4 DUP1 CALLDATASIZE SUB DUP2 ADD SWAP1 PUSH3 0xDD SWAP2 SWAP1 PUSH3 0x595 JUMP JUMPDEST PUSH3 0x1C6 JUMP JUMPDEST STOP JUMPDEST CALLVALUE DUP1 ISZERO PUSH3 0xF1 JUMPI PUSH0 DUP1 REVERT JUMPDEST POP PUSH3 0xFC PUSH3 0x3A5 JUMP JUMPDEST PUSH1 0x40 MLOAD PUSH3 0x10B SWAP2 SWAP1 PUSH3 0x659 JUMP JUMPDEST PUSH1 0x40 MLOAD DUP1 SWAP2 SUB SWAP1 RETURN JUMPDEST CALLVALUE DUP1 ISZERO PUSH3 0x120 JUMPI PUSH0 DUP1 REVERT JUMPDEST POP PUSH3 0x12B PUSH3 0x439 JUMP JUMPDEST PUSH1 0x40 MLOAD PUSH3 0x13A SWAP2 SWAP1 PUSH3 0x57A JUMP JUMPDEST PUSH1 0x40 MLOAD DUP1 SWAP2 SUB SWAP1 RETURN JUMPDEST PUSH0 DUP1 PUSH1 0x40 MLOAD DUP1 PUSH1 0x20 ADD PUSH3 0x157 SWAP1 PUSH3 0x43F JUMP JUMPDEST PUSH1 0x20 DUP3 ADD DUP2 SUB DUP3 MSTORE PUSH1 0x1F NOT PUSH1 0x1F DUP3 ADD AND PUSH1 0x40 MSTORE POP SWAP1 POP DUP1 DUP1 MLOAD SWAP1 PUSH1 0x20 ADD KECCAK256 PUSH1 0x3 DUP2 SWAP1 SSTORE POP PUSH1 0xFF PUSH1 0xF8 SHL DUP5 DUP5 DUP4 DUP1 MLOAD SWAP1 PUSH1 0x20 ADD KECCAK256 PUSH1 0x40 MLOAD PUSH1 0x20 ADD PUSH3 0x19F SWAP5 SWAP4 SWAP3 SWAP2 SWAP1 PUSH3 0x73B JUMP JUMPDEST PUSH1 0x40 MLOAD PUSH1 0x20 DUP2 DUP4 SUB SUB DUP2 MSTORE SWAP1 PUSH1 0x40 MSTORE DUP1 MLOAD SWAP1 PUSH1 0x20 ADD KECCAK256 PUSH0 SHR SWAP2 POP POP SWAP3 SWAP2 POP POP JUMP JUMPDEST PUSH1 0x3 SLOAD DUP2 JUMP JUMPDEST PUSH0 PUSH7 0x38D7EA4C68000 PUSH1 0x40 MLOAD PUSH3 0x1DD SWAP1 PUSH3 0x44D JUMP JUMPDEST PUSH1 0x40 MLOAD DUP1 SWAP2 SUB SWAP1 DUP3 CREATE SWAP1 POP DUP1 ISZERO DUP1 ISZERO PUSH3 0x1F9 JUMPI RETURNDATASIZE PUSH0 DUP1 RETURNDATACOPY RETURNDATASIZE PUSH0 REVERT JUMPDEST POP SWAP1 POP DUP1 PUSH20 0xFFFFFFFFFFFFFFFFFFFFFFFFFFFFFFFFFFFFFFFF AND PUSH4 0x8684D38 PUSH0 DUP1 SLOAD SWAP1 PUSH2 0x100 EXP SWAP1 DIV PUSH20 0xFFFFFFFFFFFFFFFFFFFFFFFFFFFFFFFFFFFFFFFF AND DUP5 PUSH1 0x40 MLOAD DUP4 PUSH4 0xFFFFFFFF AND PUSH1 0xE0 SHL DUP2 MSTORE PUSH1 0x4 ADD PUSH3 0x258 SWAP3 SWAP2 SWAP1 PUSH3 0x790 JUMP JUMPDEST PUSH0 PUSH1 0x40 MLOAD DUP1 DUP4 SUB DUP2 PUSH0 DUP8 DUP1 EXTCODESIZE ISZERO DUP1 ISZERO PUSH3 0x270 JUMPI PUSH0 DUP1 REVERT JUMPDEST POP GAS CALL ISZERO DUP1 ISZERO PUSH3 0x283 JUMPI RETURNDATASIZE PUSH0 DUP1 RETURNDATACOPY RETURNDATASIZE PUSH0 REVERT JUMPDEST POP POP POP POP PUSH0 DUP1 SLOAD SWAP1 PUSH2 0x100 EXP SWAP1 DIV PUSH20 0xFFFFFFFFFFFFFFFFFFFFFFFFFFFFFFFFFFFFFFFF AND PUSH20 0xFFFFFFFFFFFFFFFFFFFFFFFFFFFFFFFFFFFFFFFF AND PUSH4 0xD93F4900 DUP4 PUSH1 0x40 MLOAD DUP3 PUSH4 0xFFFFFFFF AND PUSH1 0xE0 SHL DUP2 MSTORE PUSH1 0x4 ADD PUSH3 0x2E1 SWAP2 SWAP1 PUSH3 0x57A JUMP JUMPDEST PUSH1 0x20 PUSH1 0x40 MLOAD DUP1 DUP4 SUB DUP2 PUSH0 DUP8 GAS CALL ISZERO DUP1 ISZERO PUSH3 0x2FE JUMPI RETURNDATASIZE PUSH0 DUP1 RETURNDATACOPY RETURNDATASIZE PUSH0 REVERT JUMPDEST POP POP POP POP PUSH1 0x40 MLOAD RETURNDATASIZE PUSH1 0x1F NOT PUSH1 0x1F DUP3 ADD AND DUP3 ADD DUP1 PUSH1 0x40 MSTORE POP DUP2 ADD SWAP1 PUSH3 0x324 SWAP2 SWAP1 PUSH3 0x7D1 JUMP JUMPDEST POP PUSH0 DUP1 SLOAD SWAP1 PUSH2 0x100 EXP SWAP1 DIV PUSH20 0xFFFFFFFFFFFFFFFFFFFFFFFFFFFFFFFFFFFFFFFF AND PUSH20 0xFFFFFFFFFFFFFFFFFFFFFFFFFFFFFFFFFFFFFFFF AND PUSH4 0xFA391C64 PUSH1 0x40 MLOAD DUP2 PUSH4 0xFFFFFFFF AND PUSH1 0xE0 SHL DUP2 MSTORE PUSH1 0x4 ADD PUSH0 PUSH1 0x40 MLOAD DUP1 DUP4 SUB DUP2 PUSH0 DUP8 DUP1 EXTCODESIZE ISZERO DUP1 ISZERO PUSH3 0x38A JUMPI PUSH0 DUP1 REVERT JUMPDEST POP GAS CALL ISZERO DUP1 ISZERO PUSH3 0x39D JUMPI RETURNDATASIZE PUSH0 DUP1 RETURNDATACOPY RETURNDATASIZE PUSH0 REVERT JUMPDEST POP POP POP POP POP POP JUMP JUMPDEST PUSH1 0x1 DUP1 SLOAD PUSH3 0x3B4 SWAP1 PUSH3 0x82E JUMP JUMPDEST DUP1 PUSH1 0x1F ADD PUSH1 0x20 DUP1 SWAP2 DIV MUL PUSH1 0x20 ADD PUSH1 0x40 MLOAD SWAP1 DUP2 ADD PUSH1 0x40 MSTORE DUP1 SWAP3 SWAP2 SWAP1 DUP2 DUP2 MSTORE PUSH1 0x20 ADD DUP3 DUP1 SLOAD PUSH3 0x3E2 SWAP1 PUSH3 0x82E JUMP JUMPDEST DUP1 ISZERO PUSH3 0x431 JUMPI DUP1 PUSH1 0x1F LT PUSH3 0x407 JUMPI PUSH2 0x100 DUP1 DUP4 SLOAD DIV MUL DUP4 MSTORE SWAP2 PUSH1 0x20 ADD SWAP2 PUSH3 0x431 JUMP JUMPDEST DUP3 ADD SWAP2 SWAP1 PUSH0 MSTORE PUSH1 0x20 PUSH0 KECCAK256 SWAP1 JUMPDEST DUP2 SLOAD DUP2 MSTORE SWAP1 PUSH1 0x1 ADD SWAP1 PUSH1 0x20 ADD DUP1 DUP4 GT PUSH3 0x413 JUMPI DUP3 SWAP1 SUB PUSH1 0x1F AND DUP3 ADD SWAP2 JUMPDEST POP POP POP POP POP DUP2 JUMP JUMPDEST PUSH1 0x2 SLOAD DUP2 JUMP JUMPDEST PUSH2 0x14D DUP1 PUSH3 0x863 DUP4 CODECOPY ADD SWAP1 JUMP JUMPDEST PUSH2 0xB2D DUP1 PUSH3 0x9B0 DUP4 CODECOPY ADD SWAP1 JUMP JUMPDEST PUSH0 DUP1 REVERT JUMPDEST PUSH0 PUSH20 0xFFFFFFFFFFFFFFFFFFFFFFFFFFFFFFFFFFFFFFFF DUP3 AND SWAP1 POP SWAP2 SWAP1 POP JUMP JUMPDEST PUSH0 PUSH3 0x48A DUP3 PUSH3 0x45F JUMP JUMPDEST SWAP1 POP SWAP2 SWAP1 POP JUMP JUMPDEST PUSH3 0x49C DUP2 PUSH3 0x47E JUMP JUMPDEST DUP2 EQ PUSH3 0x4A7 JUMPI PUSH0 DUP1 REVERT JUMPDEST POP JUMP JUMPDEST PUSH0 DUP2 CALLDATALOAD SWAP1 POP PUSH3 0x4BA DUP2 PUSH3 0x491 JUMP JUMPDEST SWAP3 SWAP2 POP POP JUMP JUMPDEST PUSH0 DUP2 SWAP1 POP SWAP2 SWAP1 POP JUMP JUMPDEST PUSH3 0x4D4 DUP2 PUSH3 0x4C0 JUMP JUMPDEST DUP2 EQ PUSH3 0x4DF JUMPI PUSH0 DUP1 REVERT JUMPDEST POP JUMP JUMPDEST PUSH0 DUP2 CALLDATALOAD SWAP1 POP PUSH3 0x4F2 DUP2 PUSH3 0x4C9 JUMP JUMPDEST SWAP3 SWAP2 POP POP JUMP JUMPDEST PUSH0 DUP1 PUSH1 0x40 DUP4 DUP6 SUB SLT ISZERO PUSH3 0x511 JUMPI PUSH3 0x510 PUSH3 0x45B JUMP JUMPDEST JUMPDEST PUSH0 PUSH3 0x520 DUP6 DUP3 DUP7 ADD PUSH3 0x4AA JUMP JUMPDEST SWAP3 POP POP PUSH1 0x20 PUSH3 0x533 DUP6 DUP3 DUP7 ADD PUSH3 0x4E2 JUMP JUMPDEST SWAP2 POP POP SWAP3 POP SWAP3 SWAP1 POP JUMP JUMPDEST PUSH3 0x548 DUP2 PUSH3 0x47E JUMP JUMPDEST DUP3 MSTORE POP POP JUMP JUMPDEST PUSH0 PUSH1 0x20 DUP3 ADD SWAP1 POP PUSH3 0x563 PUSH0 DUP4 ADD DUP5 PUSH3 0x53D JUMP JUMPDEST SWAP3 SWAP2 POP POP JUMP JUMPDEST PUSH3 0x574 DUP2 PUSH3 0x4C0 JUMP JUMPDEST DUP3 MSTORE POP POP JUMP JUMPDEST PUSH0 PUSH1 0x20 DUP3 ADD SWAP1 POP PUSH3 0x58F PUSH0 DUP4 ADD DUP5 PUSH3 0x569 JUMP JUMPDEST SWAP3 SWAP2 POP POP JUMP JUMPDEST PUSH0 PUSH1 0x20 DUP3 DUP5 SUB SLT ISZERO PUSH3 0x5AD JUMPI PUSH3 0x5AC PUSH3 0x45B JUMP JUMPDEST JUMPDEST PUSH0 PUSH3 0x5BC DUP5 DUP3 DUP6 ADD PUSH3 0x4E2 JUMP JUMPDEST SWAP2 POP POP SWAP3 SWAP2 POP POP JUMP JUMPDEST PUSH0 DUP2 MLOAD SWAP1 POP SWAP2 SWAP1 POP JUMP JUMPDEST PUSH0 DUP3 DUP3 MSTORE PUSH1 0x20 DUP3 ADD SWAP1 POP SWAP3 SWAP2 POP POP JUMP JUMPDEST PUSH0 JUMPDEST DUP4 DUP2 LT ISZERO PUSH3 0x5FE JUMPI DUP1 DUP3 ADD MLOAD DUP2 DUP5 ADD MSTORE PUSH1 0x20 DUP2 ADD SWAP1 POP PUSH3 0x5E1 JUMP JUMPDEST PUSH0 DUP5 DUP5 ADD MSTORE POP POP POP POP JUMP JUMPDEST PUSH0 PUSH1 0x1F NOT PUSH1 0x1F DUP4 ADD AND SWAP1 POP SWAP2 SWAP1 POP JUMP JUMPDEST PUSH0 PUSH3 0x625 DUP3 PUSH3 0x5C5 JUMP JUMPDEST PUSH3 0x631 DUP2 DUP6 PUSH3 0x5CF JUMP JUMPDEST SWAP4 POP PUSH3 0x643 DUP2 DUP6 PUSH1 0x20 DUP7 ADD PUSH3 0x5DF JUMP JUMPDEST PUSH3 0x64E DUP2 PUSH3 0x609 JUMP JUMPDEST DUP5 ADD SWAP2 POP POP SWAP3 SWAP2 POP POP JUMP JUMPDEST PUSH0 PUSH1 0x20 DUP3 ADD SWAP1 POP DUP2 DUP2 SUB PUSH0 DUP4 ADD MSTORE PUSH3 0x673 DUP2 DUP5 PUSH3 0x619 JUMP JUMPDEST SWAP1 POP SWAP3 SWAP2 POP POP JUMP JUMPDEST PUSH0 PUSH32 0xFF00000000000000000000000000000000000000000000000000000000000000 DUP3 AND SWAP1 POP SWAP2 SWAP1 POP JUMP JUMPDEST PUSH0 DUP2 SWAP1 POP SWAP2 SWAP1 POP JUMP JUMPDEST PUSH3 0x6C4 PUSH3 0x6BE DUP3 PUSH3 0x67B JUMP JUMPDEST PUSH3 0x6A6 JUMP JUMPDEST DUP3 MSTORE POP POP JUMP JUMPDEST PUSH0 DUP2 PUSH1 0x60 SHL SWAP1 POP SWAP2 SWAP1 POP JUMP JUMPDEST PUSH0 PUSH3 0x6E2 DUP3 PUSH3 0x6CA JUMP JUMPDEST SWAP1 POP SWAP2 SWAP1 POP JUMP JUMPDEST PUSH0 PUSH3 0x6F5 DUP3 PUSH3 0x6D6 JUMP JUMPDEST SWAP1 POP SWAP2 SWAP1 POP JUMP JUMPDEST PUSH3 0x711 PUSH3 0x70B DUP3 PUSH3 0x47E JUMP JUMPDEST PUSH3 0x6E9 JUMP JUMPDEST DUP3 MSTORE POP POP JUMP JUMPDEST PUSH0 DUP2 SWAP1 POP SWAP2 SWAP1 POP JUMP JUMPDEST PUSH3 0x735 PUSH3 0x72F DUP3 PUSH3 0x4C0 JUMP JUMPDEST PUSH3 0x717 JUMP JUMPDEST DUP3 MSTORE POP POP JUMP JUMPDEST PUSH0 PUSH3 0x748 DUP3 DUP8 PUSH3 0x6AF JUMP JUMPDEST PUSH1 0x1 DUP3 ADD SWAP2 POP PUSH3 0x75A DUP3 DUP7 PUSH3 0x6FC JUMP JUMPDEST PUSH1 0x14 DUP3 ADD SWAP2 POP PUSH3 0x76C DUP3 DUP6 PUSH3 0x720 JUMP JUMPDEST PUSH1 0x20 DUP3 ADD SWAP2 POP PUSH3 0x77E DUP3 DUP5 PUSH3 0x720 JUMP JUMPDEST PUSH1 0x20 DUP3 ADD SWAP2 POP DUP2 SWAP1 POP SWAP6 SWAP5 POP POP POP POP POP JUMP JUMPDEST PUSH0 PUSH1 0x40 DUP3 ADD SWAP1 POP PUSH3 0x7A5 PUSH0 DUP4 ADD DUP6 PUSH3 0x53D JUMP JUMPDEST PUSH3 0x7B4 PUSH1 0x20 DUP4 ADD DUP5 PUSH3 0x569 JUMP JUMPDEST SWAP4 SWAP3 POP POP POP JUMP JUMPDEST PUSH0 DUP2 MLOAD SWAP1 POP PUSH3 0x7CB DUP2 PUSH3 0x491 JUMP JUMPDEST SWAP3 SWAP2 POP POP JUMP JUMPDEST PUSH0 PUSH1 0x20 DUP3 DUP5 SUB SLT ISZERO PUSH3 0x7E9 JUMPI PUSH3 0x7E8 PUSH3 0x45B JUMP JUMPDEST JUMPDEST PUSH0 PUSH3 0x7F8 DUP5 DUP3 DUP6 ADD PUSH3 0x7BB JUMP JUMPDEST SWAP2 POP POP SWAP3 SWAP2 POP POP JUMP JUMPDEST PUSH32 0x4E487B7100000000000000000000000000000000000000000000000000000000 PUSH0 MSTORE PUSH1 0x22 PUSH1 0x4 MSTORE PUSH1 0x24 PUSH0 REVERT JUMPDEST PUSH0 PUSH1 0x2 DUP3 DIV SWAP1 POP PUSH1 0x1 DUP3 AND DUP1 PUSH3 0x846 JUMPI PUSH1 0x7F DUP3 AND SWAP2 POP JUMPDEST PUSH1 0x20 DUP3 LT DUP2 SUB PUSH3 0x85C JUMPI PUSH3 0x85B PUSH3 0x801 JUMP JUMPDEST JUMPDEST POP SWAP2 SWAP1 POP JUMP INVALID PUSH1 0x80 PUSH1 0x40 MSTORE PUSH0 DUP1 PUSH0 PUSH2 0x100 EXP DUP2 SLOAD DUP2 PUSH1 0xFF MUL NOT AND SWAP1 DUP4 ISZERO ISZERO MUL OR SWAP1 SSTORE POP CALLVALUE DUP1 ISZERO PUSH2 0x27 JUMPI PUSH0 DUP1 REVERT JUMPDEST POP PUSH7 0x38D7EA4C68000 SELFBALANCE LT PUSH2 0x50 JUMPI PUSH1 0x1 PUSH0 DUP1 PUSH2 0x100 EXP DUP2 SLOAD DUP2 PUSH1 0xFF MUL NOT AND SWAP1 DUP4 ISZERO ISZERO MUL OR SWAP1 SSTORE POP JUMPDEST PUSH1 0xF1 DUP1 PUSH2 0x5C PUSH0 CODECOPY PUSH0 RETURN INVALID PUSH1 0x80 PUSH1 0x40 MSTORE CALLVALUE DUP1 ISZERO PUSH1 0xE JUMPI PUSH0 DUP1 REVERT JUMPDEST POP PUSH1 0x4 CALLDATASIZE LT PUSH1 0x30 JUMPI PUSH0 CALLDATALOAD PUSH1 0xE0 SHR DUP1 PUSH4 0x4C0F7987 EQ PUSH1 0x34 JUMPI DUP1 PUSH4 0xAC51C67D EQ PUSH1 0x4E JUMPI JUMPDEST PUSH0 DUP1 REVERT JUMPDEST PUSH1 0x3A PUSH1 0x68 JUMP JUMPDEST PUSH1 0x40 MLOAD PUSH1 0x45 SWAP2 SWAP1 PUSH1 0xA4 JUMP JUMPDEST PUSH1 0x40 MLOAD DUP1 SWAP2 SUB SWAP1 RETURN JUMPDEST PUSH1 0x54 PUSH1 0x7C JUMP JUMPDEST PUSH1 0x40 MLOAD PUSH1 0x5F SWAP2 SWAP1 PUSH1 0xA4 JUMP JUMPDEST PUSH1 0x40 MLOAD DUP1 SWAP2 SUB SWAP1 RETURN JUMPDEST PUSH0 DUP1 PUSH0 SWAP1 SLOAD SWAP1 PUSH2 0x100 EXP SWAP1 DIV PUSH1 0xFF AND SWAP1 POP SWAP1 JUMP JUMPDEST PUSH0 DUP1 SLOAD SWAP1 PUSH2 0x100 EXP SWAP1 DIV PUSH1 0xFF AND DUP2 JUMP JUMPDEST PUSH0 DUP2 ISZERO ISZERO SWAP1 POP SWAP2 SWAP1 POP JUMP JUMPDEST PUSH1 0x9E DUP2 PUSH1 0x8C JUMP JUMPDEST DUP3 MSTORE POP POP JUMP JUMPDEST PUSH0 PUSH1 0x20 DUP3 ADD SWAP1 POP PUSH1 0xB5 PUSH0 DUP4 ADD DUP5 PUSH1 0x97 JUMP JUMPDEST SWAP3 SWAP2 POP POP JUMP INVALID LOG2 PUSH5 0x6970667358 0x22 SLT KECCAK256 MUL MSIZE ISZERO PUSH11 0x9F5842F0743C0B146C2BA3 JUMPI 0x1E PUSH6 0x24B624283464 CALLDATACOPY 0xDF 0x5C 0x22 0xE9 CODECOPY RETURNDATACOPY 0xD6 PUSH5 0x736F6C6343 STOP ADDMOD ISZERO STOP CALLER PUSH1 0x80 PUSH1 0x40 MSTORE PUSH1 0x40 MLOAD DUP1 PUSH1 0x20 ADD PUSH3 0x16 SWAP1 PUSH3 0x5B JUMP JUMPDEST PUSH1 0x20 DUP3 ADD DUP2 SUB DUP3 MSTORE PUSH1 0x1F NOT PUSH1 0x1F DUP3 ADD AND PUSH1 0x40 MSTORE POP PUSH0 SWAP1 DUP2 PUSH3 0x39 SWAP2 SWAP1 PUSH3 0x2CD JUMP JUMPDEST POP PUSH0 PUSH1 0x40 MLOAD PUSH3 0x4A SWAP2 SWAP1 PUSH3 0x447 JUMP JUMPDEST PUSH1 0x40 MLOAD DUP1 SWAP2 SUB SWAP1 KECCAK256 PUSH1 0x1 SSTORE PUSH3 0x45F JUMP JUMPDEST PUSH2 0x14D DUP1 PUSH3 0x9E0 DUP4 CODECOPY ADD SWAP1 JUMP JUMPDEST PUSH0 DUP2 MLOAD SWAP1 POP SWAP2 SWAP1 POP JUMP JUMPDEST PUSH32 0x4E487B7100000000000000000000000000000000000000000000000000000000 PUSH0 MSTORE PUSH1 0x41 PUSH1 0x4 MSTORE PUSH1 0x24 PUSH0 REVERT JUMPDEST PUSH32 0x4E487B7100000000000000000000000000000000000000000000000000000000 PUSH0 MSTORE PUSH1 0x22 PUSH1 0x4 MSTORE PUSH1 0x24 PUSH0 REVERT JUMPDEST PUSH0 PUSH1 0x2 DUP3 DIV SWAP1 POP PUSH1 0x1 DUP3 AND DUP1 PUSH3 0xE5 JUMPI PUSH1 0x7F DUP3 AND SWAP2 POP JUMPDEST PUSH1 0x20 DUP3 LT DUP2 SUB PUSH3 0xFB JUMPI PUSH3 0xFA PUSH3 0xA0 JUMP JUMPDEST JUMPDEST POP SWAP2 SWAP1 POP JUMP JUMPDEST PUSH0 DUP2 SWAP1 POP DUP2 PUSH0 MSTORE PUSH1 0x20 PUSH0 KECCAK256 SWAP1 POP SWAP2 SWAP1 POP JUMP JUMPDEST PUSH0 PUSH1 0x20 PUSH1 0x1F DUP4 ADD DIV SWAP1 POP SWAP2 SWAP1 POP JUMP JUMPDEST PUSH0 DUP3 DUP3 SHL SWAP1 POP SWAP3 SWAP2 POP POP JUMP JUMPDEST PUSH0 PUSH1 0x8 DUP4 MUL PUSH3 0x15F PUSH32 0xFFFFFFFFFFFFFFFFFFFFFFFFFFFFFFFFFFFFFFFFFFFFFFFFFFFFFFFFFFFFFFFF DUP3 PUSH3 0x122 JUMP JUMPDEST PUSH3 0x16B DUP7 DUP4 PUSH3 0x122 JUMP JUMPDEST SWAP6 POP DUP1 NOT DUP5 AND SWAP4 POP DUP1 DUP7 AND DUP5 OR SWAP3 POP POP POP SWAP4 SWAP3 POP POP POP JUMP JUMPDEST PUSH0 DUP2 SWAP1 POP SWAP2 SWAP1 POP JUMP JUMPDEST PUSH0 DUP2 SWAP1 POP SWAP2 SWAP1 POP JUMP JUMPDEST PUSH0 PUSH3 0x1B5 PUSH3 0x1AF PUSH3 0x1A9 DUP5 PUSH3 0x183 JUMP JUMPDEST PUSH3 0x18C JUMP JUMPDEST PUSH3 0x183 JUMP JUMPDEST SWAP1 POP SWAP2 SWAP1 POP JUMP JUMPDEST PUSH0 DUP2 SWAP1 POP SWAP2 SWAP1 POP JUMP JUMPDEST PUSH3 0x1D0 DUP4 PUSH3 0x195 JUMP JUMPDEST PUSH3 0x1E8 PUSH3 0x1DF DUP3 PUSH3 0x1BC JUMP JUMPDEST DUP5 DUP5 SLOAD PUSH3 0x12E JUMP JUMPDEST DUP3 SSTORE POP POP POP POP JUMP JUMPDEST PUSH0 SWAP1 JUMP JUMPDEST PUSH3 0x1FE PUSH3 0x1F0 JUMP JUMPDEST PUSH3 0x20B DUP2 DUP5 DUP5 PUSH3 0x1C5 JUMP JUMPDEST POP POP POP JUMP JUMPDEST JUMPDEST DUP2 DUP2 LT ISZERO PUSH3 0x232 JUMPI PUSH3 0x226 PUSH0 DUP3 PUSH3 0x1F4 JUMP JUMPDEST PUSH1 0x1 DUP2 ADD SWAP1 POP PUSH3 0x211 JUMP JUMPDEST POP POP JUMP JUMPDEST PUSH1 0x1F DUP3 GT ISZERO PUSH3 0x281 JUMPI PUSH3 0x24B DUP2 PUSH3 0x101 JUMP JUMPDEST PUSH3 0x256 DUP5 PUSH3 0x113 JUMP JUMPDEST DUP2 ADD PUSH1 0x20 DUP6 LT ISZERO PUSH3 0x266 JUMPI DUP2 SWAP1 POP JUMPDEST PUSH3 0x27E PUSH3 0x275 DUP6 PUSH3 0x113 JUMP JUMPDEST DUP4 ADD DUP3 PUSH3 0x210 JUMP JUMPDEST POP POP JUMPDEST POP POP POP JUMP JUMPDEST PUSH0 DUP3 DUP3 SHR SWAP1 POP SWAP3 SWAP2 POP POP JUMP JUMPDEST PUSH0 PUSH3 0x2A3 PUSH0 NOT DUP5 PUSH1 0x8 MUL PUSH3 0x286 JUMP JUMPDEST NOT DUP1 DUP4 AND SWAP2 POP POP SWAP3 SWAP2 POP POP JUMP JUMPDEST PUSH0 PUSH3 0x2BD DUP4 DUP4 PUSH3 0x292 JUMP JUMPDEST SWAP2 POP DUP3 PUSH1 0x2 MUL DUP3 OR SWAP1 POP SWAP3 SWAP2 POP POP JUMP JUMPDEST PUSH3 0x2D8 DUP3 PUSH3 0x69 JUMP JUMPDEST PUSH8 0xFFFFFFFFFFFFFFFF DUP2 GT ISZERO PUSH3 0x2F4 JUMPI PUSH3 0x2F3 PUSH3 0x73 JUMP JUMPDEST JUMPDEST PUSH3 0x300 DUP3 SLOAD PUSH3 0xCD JUMP JUMPDEST PUSH3 0x30D DUP3 DUP3 DUP6 PUSH3 0x236 JUMP JUMPDEST PUSH0 PUSH1 0x20 SWAP1 POP PUSH1 0x1F DUP4 GT PUSH1 0x1 DUP2 EQ PUSH3 0x343 JUMPI PUSH0 DUP5 ISZERO PUSH3 0x32E JUMPI DUP3 DUP8 ADD MLOAD SWAP1 POP JUMPDEST PUSH3 0x33A DUP6 DUP3 PUSH3 0x2B0 JUMP JUMPDEST DUP7 SSTORE POP PUSH3 0x3A9 JUMP JUMPDEST PUSH1 0x1F NOT DUP5 AND PUSH3 0x353 DUP7 PUSH3 0x101 JUMP JUMPDEST PUSH0 JUMPDEST DUP3 DUP2 LT ISZERO PUSH3 0x37C JUMPI DUP5 DUP10 ADD MLOAD DUP3 SSTORE PUSH1 0x1 DUP3 ADD SWAP2 POP PUSH1 0x20 DUP6 ADD SWAP5 POP PUSH1 0x20 DUP2 ADD SWAP1 POP PUSH3 0x355 JUMP JUMPDEST DUP7 DUP4 LT ISZERO PUSH3 0x39C JUMPI DUP5 DUP10 ADD MLOAD PUSH3 0x398 PUSH1 0x1F DUP10 AND DUP3 PUSH3 0x292 JUMP JUMPDEST DUP4 SSTORE POP JUMPDEST PUSH1 0x1 PUSH1 0x2 DUP9 MUL ADD DUP9 SSTORE POP POP POP JUMPDEST POP POP POP POP POP POP JUMP JUMPDEST PUSH0 DUP2 SWAP1 POP SWAP3 SWAP2 POP POP JUMP JUMPDEST PUSH0 DUP2 SLOAD PUSH3 0x3C9 DUP2 PUSH3 0xCD JUMP JUMPDEST PUSH3 0x3D5 DUP2 DUP7 PUSH3 0x3B1 JUMP JUMPDEST SWAP5 POP PUSH1 0x1 DUP3 AND PUSH0 DUP2 EQ PUSH3 0x3F2 JUMPI PUSH1 0x1 DUP2 EQ PUSH3 0x408 JUMPI PUSH3 0x43E JUMP JUMPDEST PUSH1 0xFF NOT DUP4 AND DUP7 MSTORE DUP2 ISZERO ISZERO DUP3 MUL DUP7 ADD SWAP4 POP PUSH3 0x43E JUMP JUMPDEST PUSH3 0x413 DUP6 PUSH3 0x101 JUMP JUMPDEST PUSH0 JUMPDEST DUP4 DUP2 LT ISZERO PUSH3 0x436 JUMPI DUP2 SLOAD DUP2 DUP10 ADD MSTORE PUSH1 0x1 DUP3 ADD SWAP2 POP PUSH1 0x20 DUP2 ADD SWAP1 POP PUSH3 0x415 JUMP JUMPDEST DUP4 DUP9 ADD SWAP6 POP POP POP JUMPDEST POP POP POP SWAP3 SWAP2 POP POP JUMP JUMPDEST PUSH0 PUSH3 0x454 DUP3 DUP5 PUSH3 0x3BB JUMP JUMPDEST SWAP2 POP DUP2 SWAP1 POP SWAP3 SWAP2 POP POP JUMP JUMPDEST PUSH2 0x573 DUP1 PUSH3 0x46D PUSH0 CODECOPY PUSH0 RETURN INVALID PUSH1 0x80 PUSH1 0x40 MSTORE CALLVALUE DUP1 ISZERO PUSH2 0xF JUMPI PUSH0 DUP1 REVERT JUMPDEST POP PUSH1 0x4 CALLDATASIZE LT PUSH2 0x3F JUMPI PUSH0 CALLDATALOAD PUSH1 0xE0 SHR DUP1 PUSH4 0x8684D38 EQ PUSH2 0x43 JUMPI DUP1 PUSH4 0xCCCECB14 EQ PUSH2 0x5F JUMPI DUP1 PUSH4 0xE2179B8E EQ PUSH2 0x7D JUMPI JUMPDEST PUSH0 DUP1 REVERT JUMPDEST PUSH2 0x5D PUSH1 0x4 DUP1 CALLDATASIZE SUB DUP2 ADD SWAP1 PUSH2 0x58 SWAP2 SWAP1 PUSH2 0x221 JUMP JUMPDEST PUSH2 0x9B JUMP JUMPDEST STOP JUMPDEST PUSH2 0x67 PUSH2 0xFF JUMP JUMPDEST PUSH1 0x40 MLOAD PUSH2 0x74 SWAP2 SWAP1 PUSH2 0x2E9 JUMP JUMPDEST PUSH1 0x40 MLOAD DUP1 SWAP2 SUB SWAP1 RETURN JUMPDEST PUSH2 0x85 PUSH2 0x18A JUMP JUMPDEST PUSH1 0x40 MLOAD PUSH2 0x92 SWAP2 SWAP1 PUSH2 0x318 JUMP JUMPDEST PUSH1 0x40 MLOAD DUP1 SWAP2 SUB SWAP1 RETURN JUMPDEST PUSH0 PUSH1 0xFF PUSH1 0xF8 SHL DUP4 DUP4 PUSH0 PUSH1 0x40 MLOAD PUSH2 0xB1 SWAP2 SWAP1 PUSH2 0x42A JUMP JUMPDEST PUSH1 0x40 MLOAD DUP1 SWAP2 SUB SWAP1 KECCAK256 PUSH1 0x40 MLOAD PUSH1 0x20 ADD PUSH2 0xCC SWAP5 SWAP4 SWAP3 SWAP2 SWAP1 PUSH2 0x4F0 JUMP JUMPDEST PUSH1 0x40 MLOAD PUSH1 0x20 DUP2 DUP4 SUB SUB DUP2 MSTORE SWAP1 PUSH1 0x40 MSTORE DUP1 MLOAD SWAP1 PUSH1 0x20 ADD KECCAK256 PUSH0 SHR SWAP1 POP DUP1 PUSH20 0xFFFFFFFFFFFFFFFFFFFFFFFFFFFFFFFFFFFFFFFF AND SELFDESTRUCT JUMPDEST PUSH0 DUP1 SLOAD PUSH2 0x10B SWAP1 PUSH2 0x35E JUMP JUMPDEST DUP1 PUSH1 0x1F ADD PUSH1 0x20 DUP1 SWAP2 DIV MUL PUSH1 0x20 ADD PUSH1 0x40 MLOAD SWAP1 DUP2 ADD PUSH1 0x40 MSTORE DUP1 SWAP3 SWAP2 SWAP1 DUP2 DUP2 MSTORE PUSH1 0x20 ADD DUP3 DUP1 SLOAD PUSH2 0x137 SWAP1 PUSH2 0x35E JUMP JUMPDEST DUP1 ISZERO PUSH2 0x182 JUMPI DUP1 PUSH1 0x1F LT PUSH2 0x159 JUMPI PUSH2 0x100 DUP1 DUP4 SLOAD DIV MUL DUP4 MSTORE SWAP2 PUSH1 0x20 ADD SWAP2 PUSH2 0x182 JUMP JUMPDEST DUP3 ADD SWAP2 SWAP1 PUSH0 MSTORE PUSH1 0x20 PUSH0 KECCAK256 SWAP1 JUMPDEST DUP2 SLOAD DUP2 MSTORE SWAP1 PUSH1 0x1 ADD SWAP1 PUSH1 0x20 ADD DUP1 DUP4 GT PUSH2 0x165 JUMPI DUP3 SWAP1 SUB PUSH1 0x1F AND DUP3 ADD SWAP2 JUMPDEST POP POP POP POP POP DUP2 JUMP JUMPDEST PUSH1 0x1 SLOAD DUP2 JUMP JUMPDEST PUSH0 DUP1 REVERT JUMPDEST PUSH0 PUSH20 0xFFFFFFFFFFFFFFFFFFFFFFFFFFFFFFFFFFFFFFFF DUP3 AND SWAP1 POP SWAP2 SWAP1 POP JUMP JUMPDEST PUSH0 PUSH2 0x1BD DUP3 PUSH2 0x194 JUMP JUMPDEST SWAP1 POP SWAP2 SWAP1 POP JUMP JUMPDEST PUSH2 0x1CD DUP2 PUSH2 0x1B3 JUMP JUMPDEST DUP2 EQ PUSH2 0x1D7 JUMPI PUSH0 DUP1 REVERT JUMPDEST POP JUMP JUMPDEST PUSH0 DUP2 CALLDATALOAD SWAP1 POP PUSH2 0x1E8 DUP2 PUSH2 0x1C4 JUMP JUMPDEST SWAP3 SWAP2 POP POP JUMP JUMPDEST PUSH0 DUP2 SWAP1 POP SWAP2 SWAP1 POP JUMP JUMPDEST PUSH2 0x200 DUP2 PUSH2 0x1EE JUMP JUMPDEST DUP2 EQ PUSH2 0x20A JUMPI PUSH0 DUP1 REVERT JUMPDEST POP JUMP JUMPDEST PUSH0 DUP2 CALLDATALOAD SWAP1 POP PUSH2 0x21B DUP2 PUSH2 0x1F7 JUMP JUMPDEST SWAP3 SWAP2 POP POP JUMP JUMPDEST PUSH0 DUP1 PUSH1 0x40 DUP4 DUP6 SUB SLT ISZERO PUSH2 0x237 JUMPI PUSH2 0x236 PUSH2 0x190 JUMP JUMPDEST JUMPDEST PUSH0 PUSH2 0x244 DUP6 DUP3 DUP7 ADD PUSH2 0x1DA JUMP JUMPDEST SWAP3 POP POP PUSH1 0x20 PUSH2 0x255 DUP6 DUP3 DUP7 ADD PUSH2 0x20D JUMP JUMPDEST SWAP2 POP POP SWAP3 POP SWAP3 SWAP1 POP JUMP JUMPDEST PUSH0 DUP2 MLOAD SWAP1 POP SWAP2 SWAP1 POP JUMP JUMPDEST PUSH0 DUP3 DUP3 MSTORE PUSH1 0x20 DUP3 ADD SWAP1 POP SWAP3 SWAP2 POP POP JUMP JUMPDEST PUSH0 JUMPDEST DUP4 DUP2 LT ISZERO PUSH2 0x296 JUMPI DUP1 DUP3 ADD MLOAD DUP2 DUP5 ADD MSTORE PUSH1 0x20 DUP2 ADD SWAP1 POP PUSH2 0x27B JUMP JUMPDEST PUSH0 DUP5 DUP5 ADD MSTORE POP POP POP POP JUMP JUMPDEST PUSH0 PUSH1 0x1F NOT PUSH1 0x1F DUP4 ADD AND SWAP1 POP SWAP2 SWAP1 POP JUMP JUMPDEST PUSH0 PUSH2 0x2BB DUP3 PUSH2 0x25F JUMP JUMPDEST PUSH2 0x2C5 DUP2 DUP6 PUSH2 0x269 JUMP JUMPDEST SWAP4 POP PUSH2 0x2D5 DUP2 DUP6 PUSH1 0x20 DUP7 ADD PUSH2 0x279 JUMP JUMPDEST PUSH2 0x2DE DUP2 PUSH2 0x2A1 JUMP JUMPDEST DUP5 ADD SWAP2 POP POP SWAP3 SWAP2 POP POP JUMP JUMPDEST PUSH0 PUSH1 0x20 DUP3 ADD SWAP1 POP DUP2 DUP2 SUB PUSH0 DUP4 ADD MSTORE PUSH2 0x301 DUP2 DUP5 PUSH2 0x2B1 JUMP JUMPDEST SWAP1 POP SWAP3 SWAP2 POP POP JUMP JUMPDEST PUSH2 0x312 DUP2 PUSH2 0x1EE JUMP JUMPDEST DUP3 MSTORE POP POP JUMP JUMPDEST PUSH0 PUSH1 0x20 DUP3 ADD SWAP1 POP PUSH2 0x32B PUSH0 DUP4 ADD DUP5 PUSH2 0x309 JUMP JUMPDEST SWAP3 SWAP2 POP POP JUMP JUMPDEST PUSH32 0x4E487B7100000000000000000000000000000000000000000000000000000000 PUSH0 MSTORE PUSH1 0x22 PUSH1 0x4 MSTORE PUSH1 0x24 PUSH0 REVERT JUMPDEST PUSH0 PUSH1 0x2 DUP3 DIV SWAP1 POP PUSH1 0x1 DUP3 AND DUP1 PUSH2 0x375 JUMPI PUSH1 0x7F DUP3 AND SWAP2 POP JUMPDEST PUSH1 0x20 DUP3 LT DUP2 SUB PUSH2 0x388 JUMPI PUSH2 0x387 PUSH2 0x331 JUMP JUMPDEST JUMPDEST POP SWAP2 SWAP1 POP JUMP JUMPDEST PUSH0 DUP2 SWAP1 POP SWAP3 SWAP2 POP POP JUMP JUMPDEST PUSH0 DUP2 SWAP1 POP DUP2 PUSH0 MSTORE PUSH1 0x20 PUSH0 KECCAK256 SWAP1 POP SWAP2 SWAP1 POP JUMP JUMPDEST PUSH0 DUP2 SLOAD PUSH2 0x3B6 DUP2 PUSH2 0x35E JUMP JUMPDEST PUSH2 0x3C0 DUP2 DUP7 PUSH2 0x38E JUMP JUMPDEST SWAP5 POP PUSH1 0x1 DUP3 AND PUSH0 DUP2 EQ PUSH2 0x3DA JUMPI PUSH1 0x1 DUP2 EQ PUSH2 0x3EF JUMPI PUSH2 0x421 JUMP JUMPDEST PUSH1 0xFF NOT DUP4 AND DUP7 MSTORE DUP2 ISZERO ISZERO DUP3 MUL DUP7 ADD SWAP4 POP PUSH2 0x421 JUMP JUMPDEST PUSH2 0x3F8 DUP6 PUSH2 0x398 JUMP JUMPDEST PUSH0 JUMPDEST DUP4 DUP2 LT ISZERO PUSH2 0x419 JUMPI DUP2 SLOAD DUP2 DUP10 ADD MSTORE PUSH1 0x1 DUP3 ADD SWAP2 POP PUSH1 0x20 DUP2 ADD SWAP1 POP PUSH2 0x3FA JUMP JUMPDEST DUP4 DUP9 ADD SWAP6 POP POP POP JUMPDEST POP POP POP SWAP3 SWAP2 POP POP JUMP JUMPDEST PUSH0 PUSH2 0x435 DUP3 DUP5 PUSH2 0x3AA JUMP JUMPDEST SWAP2 POP DUP2 SWAP1 POP SWAP3 SWAP2 POP POP JUMP JUMPDEST PUSH0 PUSH32 0xFF00000000000000000000000000000000000000000000000000000000000000 DUP3 AND SWAP1 POP SWAP2 SWAP1 POP JUMP JUMPDEST PUSH0 DUP2 SWAP1 POP SWAP2 SWAP1 POP JUMP JUMPDEST PUSH2 0x485 PUSH2 0x480 DUP3 PUSH2 0x440 JUMP JUMPDEST PUSH2 0x46B JUMP JUMPDEST DUP3 MSTORE POP POP JUMP JUMPDEST PUSH0 DUP2 PUSH1 0x60 SHL SWAP1 POP SWAP2 SWAP1 POP JUMP JUMPDEST PUSH0 PUSH2 0x4A1 DUP3 PUSH2 0x48B JUMP JUMPDEST SWAP1 POP SWAP2 SWAP1 POP JUMP JUMPDEST PUSH0 PUSH2 0x4B2 DUP3 PUSH2 0x497 JUMP JUMPDEST SWAP1 POP SWAP2 SWAP1 POP JUMP JUMPDEST PUSH2 0x4CA PUSH2 0x4C5 DUP3 PUSH2 0x1B3 JUMP JUMPDEST PUSH2 0x4A8 JUMP JUMPDEST DUP3 MSTORE POP POP JUMP JUMPDEST PUSH0 DUP2 SWAP1 POP SWAP2 SWAP1 POP JUMP JUMPDEST PUSH2 0x4EA PUSH2 0x4E5 DUP3 PUSH2 0x1EE JUMP JUMPDEST PUSH2 0x4D0 JUMP JUMPDEST DUP3 MSTORE POP POP JUMP JUMPDEST PUSH0 PUSH2 0x4FB DUP3 DUP8 PUSH2 0x474 JUMP JUMPDEST PUSH1 0x1 DUP3 ADD SWAP2 POP PUSH2 0x50B DUP3 DUP7 PUSH2 0x4B9 JUMP JUMPDEST PUSH1 0x14 DUP3 ADD SWAP2 POP PUSH2 0x51B DUP3 DUP6 PUSH2 0x4D9 JUMP JUMPDEST PUSH1 0x20 DUP3 ADD SWAP2 POP PUSH2 0x52B DUP3 DUP5 PUSH2 0x4D9 JUMP JUMPDEST PUSH1 0x20 DUP3 ADD SWAP2 POP DUP2 SWAP1 POP SWAP6 SWAP5 POP POP POP POP POP JUMP INVALID LOG2 PUSH5 0x6970667358 0x22 SLT KECCAK256 JUMP CREATE2 PUSH10 0xB9504221E1C66E8126FB 0xB8 SWAP8 SUB 0x2D 0x22 COINBASE 0x2A 0x24 PUSH3 0xB964FD BASEFEE DUP2 0x5E 0xF6 BYTE SWAP7 0xB7 PUSH5 0x736F6C6343 STOP ADDMOD ISZERO STOP CALLER PUSH1 0x80 PUSH1 0x40 MSTORE PUSH0 DUP1 PUSH0 PUSH2 0x100 EXP DUP2 SLOAD DUP2 PUSH1 0xFF MUL NOT AND SWAP1 DUP4 ISZERO ISZERO MUL OR SWAP1 SSTORE POP CALLVALUE DUP1 ISZERO PUSH2 0x27 JUMPI PUSH0 DUP1 REVERT JUMPDEST POP PUSH7 0x38D7EA4C68000 SELFBALANCE LT PUSH2 0x50 JUMPI PUSH1 0x1 PUSH0 DUP1 PUSH2 0x100 EXP DUP2 SLOAD DUP2 PUSH1 0xFF MUL NOT AND SWAP1 DUP4 ISZERO ISZERO MUL OR SWAP1 SSTORE POP JUMPDEST PUSH1 0xF1 DUP1 PUSH2 0x5C PUSH0 CODECOPY PUSH0 RETURN INVALID PUSH1 0x80 PUSH1 0x40 MSTORE CALLVALUE DUP1 ISZERO PUSH1 0xE JUMPI PUSH0 DUP1 REVERT JUMPDEST POP PUSH1 0x4 CALLDATASIZE LT PUSH1 0x30 JUMPI PUSH0 CALLDATALOAD PUSH1 0xE0 SHR DUP1 PUSH4 0x4C0F7987 EQ PUSH1 0x34 JUMPI DUP1 PUSH4 0xAC51C67D EQ PUSH1 0x4E JUMPI JUMPDEST PUSH0 DUP1 REVERT JUMPDEST PUSH1 0x3A PUSH1 0x68 JUMP JUMPDEST PUSH1 0x40 MLOAD PUSH1 0x45 SWAP2 SWAP1 PUSH1 0xA4 JUMP JUMPDEST PUSH1 0x40 MLOAD DUP1 SWAP2 SUB SWAP1 RETURN JUMPDEST PUSH1 0x54 PUSH1 0x7C JUMP JUMPDEST PUSH1 0x40 MLOAD PUSH1 0x5F SWAP2 SWAP1 PUSH1 0xA4 JUMP JUMPDEST PUSH1 0x40 MLOAD DUP1 SWAP2 SUB SWAP1 RETURN JUMPDEST PUSH0 DUP1 PUSH0 SWAP1 SLOAD SWAP1 PUSH2 0x100 EXP SWAP1 DIV PUSH1 0xFF AND SWAP1 POP SWAP1 JUMP JUMPDEST PUSH0 DUP1 SLOAD SWAP1 PUSH2 0x100 EXP SWAP1 DIV PUSH1 0xFF AND DUP2 JUMP JUMPDEST PUSH0 DUP2 ISZERO ISZERO SWAP1 POP SWAP2 SWAP1 POP JUMP JUMPDEST PUSH1 0x9E DUP2 PUSH1 0x8C JUMP JUMPDEST DUP3 MSTORE POP POP JUMP JUMPDEST PUSH0 PUSH1 0x20 DUP3 ADD SWAP1 POP PUSH1 0xB5 PUSH0 DUP4 ADD DUP5 PUSH1 0x97 JUMP JUMPDEST SWAP3 SWAP2 POP POP JUMP INVALID LOG2 PUSH5 0x6970667358 0x22 SLT KECCAK256 MUL MSIZE ISZERO PUSH11 0x9F5842F0743C0B146C2BA3 JUMPI 0x1E PUSH6 0x24B624283464 CALLDATACOPY 0xDF 0x5C 0x22 0xE9 CODECOPY RETURNDATACOPY 0xD6 PUSH5 0x736F6C6343 STOP ADDMOD ISZERO STOP CALLER LOG2 PUSH5 0x6970667358 0x22 SLT KECCAK256 SWAP7 0xC5 POP 0x24 0xCB COINBASE 0xA8 INVALID SMOD PUSH8 0xC101368B43B1FE3B 0xC3 0xB0 0xED PUSH27 0x9CBADDF69538336E069064736F6C6343000815003360806040525F DUP1 PUSH0 PUSH2 0x100 EXP DUP2 SLOAD DUP2 PUSH1 0xFF MUL NOT AND SWAP1 DUP4 ISZERO ISZERO MUL OR SWAP1 SSTORE POP CALLVALUE DUP1 ISZERO PUSH2 0x27 JUMPI PUSH0 DUP1 REVERT JUMPDEST POP PUSH7 0x38D7EA4C68000 SELFBALANCE LT PUSH2 0x50 JUMPI PUSH1 0x1 PUSH0 DUP1 PUSH2 0x100 EXP DUP2 SLOAD DUP2 PUSH1 0xFF MUL NOT AND SWAP1 DUP4 ISZERO ISZERO MUL OR SWAP1 SSTORE POP JUMPDEST PUSH1 0xF1 DUP1 PUSH2 0x5C PUSH0 CODECOPY PUSH0 RETURN INVALID PUSH1 0x80 PUSH1 0x40 MSTORE CALLVALUE DUP1 ISZERO PUSH1 0xE JUMPI PUSH0 DUP1 REVERT JUMPDEST POP PUSH1 0x4 CALLDATASIZE LT PUSH1 0x30 JUMPI PUSH0 CALLDATALOAD PUSH1 0xE0 SHR DUP1 PUSH4 0x4C0F7987 EQ PUSH1 0x34 JUMPI DUP1 PUSH4 0xAC51C67D EQ PUSH1 0x4E JUMPI JUMPDEST PUSH0 DUP1 REVERT JUMPDEST PUSH1 0x3A PUSH1 0x68 JUMP JUMPDEST PUSH1 0x40 MLOAD PUSH1 0x45 SWAP2 SWAP1 PUSH1 0xA4 JUMP JUMPDEST PUSH1 0x40 MLOAD DUP1 SWAP2 SUB SWAP1 RETURN JUMPDEST PUSH1 0x54 PUSH1 0x7C JUMP JUMPDEST PUSH1 0x40 MLOAD PUSH1 0x5F SWAP2 SWAP1 PUSH1 0xA4 JUMP JUMPDEST PUSH1 0x40 MLOAD DUP1 SWAP2 SUB SWAP1 RETURN JUMPDEST PUSH0 DUP1 PUSH0 SWAP1 SLOAD SWAP1 PUSH2 0x100 EXP SWAP1 DIV PUSH1 0xFF AND SWAP1 POP SWAP1 JUMP JUMPDEST PUSH0 DUP1 SLOAD SWAP1 PUSH2 0x100 EXP SWAP1 DIV PUSH1 0xFF AND DUP2 JUMP JUMPDEST PUSH0 DUP2 ISZERO ISZERO SWAP1 POP SWAP2 SWAP1 POP JUMP JUMPDEST PUSH1 0x9E DUP2 PUSH1 0x8C JUMP JUMPDEST DUP3 MSTORE POP POP JUMP JUMPDEST PUSH0 PUSH1 0x20 DUP3 ADD SWAP1 POP PUSH1 0xB5 PUSH0 DUP4 ADD DUP5 PUSH1 0x97 JUMP JUMPDEST SWAP3 SWAP2 POP POP JUMP INVALID LOG2 PUSH5 0x6970667358 0x22 SLT KECCAK256 MUL MSIZE ISZERO PUSH11 0x9F5842F0743C0B146C2BA3 JUMPI 0x1E PUSH6 0x24B624283464 CALLDATACOPY 0xDF 0x5C 0x22 0xE9 CODECOPY RETURNDATACOPY 0xD6 PUSH5 0x736F6C6343 STOP ADDMOD ISZERO STOP CALLER "
				},
				"gasEstimates": {
					"creation": {
						"codeDepositCost": "1078800",
						"executionCost": "infinite",
						"totalCost": "infinite"
					},
					"external": {
						"attract(bytes32)": "infinite",
						"creatcode1()": "infinite",
						"creatcode2()": "2425",
						"g()": "2491",
						"getaddress(address,bytes32)": "infinite"
					}
				},
				"methodIdentifiers": {
					"attract(bytes32)": "c2f3b482",
					"creatcode1()": "cccecb14",
					"creatcode2()": "71690caf",
					"g()": "e2179b8e",
					"getaddress(address,bytes32)": "08684d38"
				}
			},
			"storageLayout": {
				"storage": [
					{
						"astId": 150,
						"contract": "shoot/2/create_create计算/1.sol:att",
						"label": "che",
						"offset": 0,
						"slot": "0",
						"type": "t_contract(check)90"
					},
					{
						"astId": 167,
						"contract": "shoot/2/create_create计算/1.sol:att",
						"label": "creatcode1",
						"offset": 0,
						"slot": "1",
						"type": "t_bytes_storage"
					},
					{
						"astId": 172,
						"contract": "shoot/2/create_create计算/1.sol:att",
						"label": "g",
						"offset": 0,
						"slot": "2",
						"type": "t_bytes32"
					},
					{
						"astId": 174,
						"contract": "shoot/2/create_create计算/1.sol:att",
						"label": "creatcode2",
						"offset": 0,
						"slot": "3",
						"type": "t_bytes32"
					}
				],
				"types": {
					"t_bytes32": {
						"encoding": "inplace",
						"label": "bytes32",
						"numberOfBytes": "32"
					},
					"t_bytes_storage": {
						"encoding": "bytes",
						"label": "bytes",
						"numberOfBytes": "32"
					},
					"t_contract(check)90": {
						"encoding": "inplace",
						"label": "contract check",
						"numberOfBytes": "20"
					}
				}
			},
			"userdoc": {
				"kind": "user",
				"methods": {},
				"version": 1
			}
		}
	}
}