{
	"shoot/2/create_create计算/1.sol": {
		"found": {
			"abi": [
				{
					"inputs": [],
					"stateMutability": "nonpayable",
					"type": "constructor"
				},
				{
					"inputs": [],
					"name": "getResove",
					"outputs": [
						{
							"internalType": "bool",
							"name": "",
							"type": "bool"
						}
					],
					"stateMutability": "view",
					"type": "function"
				},
				{
					"inputs": [],
					"name": "resove",
					"outputs": [
						{
							"internalType": "bool",
							"name": "",
							"type": "bool"
						}
					],
					"stateMutability": "view",
					"type": "function"
				}
			],
			"devdoc": {
				"kind": "dev",
				"methods": {},
				"version": 1
			},
			"evm": {
				"assembly": "    /* \"shoot/2/create_create\\xe8\\xae\\xa1\\xe7\\xae\\x97/1.sol\":128:394  contract found{... */\n  mstore(0x40, 0x80)\n    /* \"shoot/2/create_create\\xe8\\xae\\xa1\\xe7\\xae\\x97/1.sol\":170:175  false */\n  0x00\n    /* \"shoot/2/create_create\\xe8\\xae\\xa1\\xe7\\xae\\x97/1.sol\":149:175  bool public resove = false */\n  dup1\n  exp(0x0100, 0x00)\n  dup2\n  sload\n  dup2\n  0xff\n  mul\n  not\n  and\n  swap1\n  dup4\n  iszero\n  iszero\n  mul\n  or\n  swap1\n  sstore\n  pop\n    /* \"shoot/2/create_create\\xe8\\xae\\xa1\\xe7\\xae\\x97/1.sol\":188:301  constructor(){... */\n  callvalue\n  dup1\n  iszero\n  tag_1\n  jumpi\n  0x00\n  dup1\n  revert\ntag_1:\n  pop\n    /* \"shoot/2/create_create\\xe8\\xae\\xa1\\xe7\\xae\\x97/1.sol\":240:251  0.001 ether */\n  0x038d7ea4c68000\n    /* \"shoot/2/create_create\\xe8\\xae\\xa1\\xe7\\xae\\x97/1.sol\":215:236  address(this).balance */\n  selfbalance\n    /* \"shoot/2/create_create\\xe8\\xae\\xa1\\xe7\\xae\\x97/1.sol\":215:251  address(this).balance >= 0.001 ether */\n  lt\n    /* \"shoot/2/create_create\\xe8\\xae\\xa1\\xe7\\xae\\x97/1.sol\":212:292  if(address(this).balance >= 0.001 ether){... */\n  tag_4\n  jumpi\n    /* \"shoot/2/create_create\\xe8\\xae\\xa1\\xe7\\xae\\x97/1.sol\":276:280  true */\n  0x01\n    /* \"shoot/2/create_create\\xe8\\xae\\xa1\\xe7\\xae\\x97/1.sol\":267:273  resove */\n  0x00\n  dup1\n    /* \"shoot/2/create_create\\xe8\\xae\\xa1\\xe7\\xae\\x97/1.sol\":267:280  resove = true */\n  0x0100\n  exp\n  dup2\n  sload\n  dup2\n  0xff\n  mul\n  not\n  and\n  swap1\n  dup4\n  iszero\n  iszero\n  mul\n  or\n  swap1\n  sstore\n  pop\n    /* \"shoot/2/create_create\\xe8\\xae\\xa1\\xe7\\xae\\x97/1.sol\":212:292  if(address(this).balance >= 0.001 ether){... */\ntag_4:\n    /* \"shoot/2/create_create\\xe8\\xae\\xa1\\xe7\\xae\\x97/1.sol\":128:394  contract found{... */\n  dataSize(sub_0)\n  dup1\n  dataOffset(sub_0)\n  0x00\n  codecopy\n  0x00\n  return\nstop\n\nsub_0: assembly {\n        /* \"shoot/2/create_create\\xe8\\xae\\xa1\\xe7\\xae\\x97/1.sol\":128:394  contract found{... */\n      mstore(0x40, 0x80)\n      callvalue\n      dup1\n      iszero\n      tag_1\n      jumpi\n      0x00\n      dup1\n      revert\n    tag_1:\n      pop\n      jumpi(tag_2, lt(calldatasize, 0x04))\n      shr(0xe0, calldataload(0x00))\n      dup1\n      0x4c0f7987\n      eq\n      tag_3\n      jumpi\n      dup1\n      0xac51c67d\n      eq\n      tag_4\n      jumpi\n    tag_2:\n      0x00\n      dup1\n      revert\n        /* \"shoot/2/create_create\\xe8\\xae\\xa1\\xe7\\xae\\x97/1.sol\":313:391  function getResove() public view returns(bool){... */\n    tag_3:\n      tag_5\n      tag_6\n      jump\t// in\n    tag_5:\n      mload(0x40)\n      tag_7\n      swap2\n      swap1\n      tag_8\n      jump\t// in\n    tag_7:\n      mload(0x40)\n      dup1\n      swap2\n      sub\n      swap1\n      return\n        /* \"shoot/2/create_create\\xe8\\xae\\xa1\\xe7\\xae\\x97/1.sol\":149:175  bool public resove = false */\n    tag_4:\n      tag_9\n      tag_10\n      jump\t// in\n    tag_9:\n      mload(0x40)\n      tag_11\n      swap2\n      swap1\n      tag_8\n      jump\t// in\n    tag_11:\n      mload(0x40)\n      dup1\n      swap2\n      sub\n      swap1\n      return\n        /* \"shoot/2/create_create\\xe8\\xae\\xa1\\xe7\\xae\\x97/1.sol\":313:391  function getResove() public view returns(bool){... */\n    tag_6:\n        /* \"shoot/2/create_create\\xe8\\xae\\xa1\\xe7\\xae\\x97/1.sol\":354:358  bool */\n      0x00\n        /* \"shoot/2/create_create\\xe8\\xae\\xa1\\xe7\\xae\\x97/1.sol\":377:383  resove */\n      dup1\n      0x00\n      swap1\n      sload\n      swap1\n      0x0100\n      exp\n      swap1\n      div\n      0xff\n      and\n        /* \"shoot/2/create_create\\xe8\\xae\\xa1\\xe7\\xae\\x97/1.sol\":370:383  return resove */\n      swap1\n      pop\n        /* \"shoot/2/create_create\\xe8\\xae\\xa1\\xe7\\xae\\x97/1.sol\":313:391  function getResove() public view returns(bool){... */\n      swap1\n      jump\t// out\n        /* \"shoot/2/create_create\\xe8\\xae\\xa1\\xe7\\xae\\x97/1.sol\":149:175  bool public resove = false */\n    tag_10:\n      0x00\n      dup1\n      sload\n      swap1\n      0x0100\n      exp\n      swap1\n      div\n      0xff\n      and\n      dup2\n      jump\t// out\n        /* \"#utility.yul\":7:97   */\n    tag_13:\n        /* \"#utility.yul\":41:48   */\n      0x00\n        /* \"#utility.yul\":84:89   */\n      dup2\n        /* \"#utility.yul\":77:90   */\n      iszero\n        /* \"#utility.yul\":70:91   */\n      iszero\n        /* \"#utility.yul\":59:91   */\n      swap1\n      pop\n        /* \"#utility.yul\":7:97   */\n      swap2\n      swap1\n      pop\n      jump\t// out\n        /* \"#utility.yul\":103:212   */\n    tag_14:\n        /* \"#utility.yul\":184:205   */\n      tag_18\n        /* \"#utility.yul\":199:204   */\n      dup2\n        /* \"#utility.yul\":184:205   */\n      tag_13\n      jump\t// in\n    tag_18:\n        /* \"#utility.yul\":179:182   */\n      dup3\n        /* \"#utility.yul\":172:206   */\n      mstore\n        /* \"#utility.yul\":103:212   */\n      pop\n      pop\n      jump\t// out\n        /* \"#utility.yul\":218:428   */\n    tag_8:\n        /* \"#utility.yul\":305:309   */\n      0x00\n        /* \"#utility.yul\":343:345   */\n      0x20\n        /* \"#utility.yul\":332:341   */\n      dup3\n        /* \"#utility.yul\":328:346   */\n      add\n        /* \"#utility.yul\":320:346   */\n      swap1\n      pop\n        /* \"#utility.yul\":356:421   */\n      tag_20\n        /* \"#utility.yul\":418:419   */\n      0x00\n        /* \"#utility.yul\":407:416   */\n      dup4\n        /* \"#utility.yul\":403:420   */\n      add\n        /* \"#utility.yul\":394:400   */\n      dup5\n        /* \"#utility.yul\":356:421   */\n      tag_14\n      jump\t// in\n    tag_20:\n        /* \"#utility.yul\":218:428   */\n      swap3\n      swap2\n      pop\n      pop\n      jump\t// out\n\n    auxdata: 0xa26469706673582212200259156a9f5842f0743c0b146c2ba3571e6524b62428346437df5c22e9393ed664736f6c63430008150033\n}\n",
				"bytecode": {
					"linkReferences": {},
					"object": "60806040525f805f6101000a81548160ff021916908315150217905550348015610027575f80fd5b5066038d7ea4c6800047106100505760015f806101000a81548160ff0219169083151502179055505b60f18061005c5f395ff3fe6080604052348015600e575f80fd5b50600436106030575f3560e01c80634c0f7987146034578063ac51c67d14604e575b5f80fd5b603a6068565b6040516045919060a4565b60405180910390f35b6054607c565b604051605f919060a4565b60405180910390f35b5f805f9054906101000a900460ff16905090565b5f8054906101000a900460ff1681565b5f8115159050919050565b609e81608c565b82525050565b5f60208201905060b55f8301846097565b9291505056fea26469706673582212200259156a9f5842f0743c0b146c2ba3571e6524b62428346437df5c22e9393ed664736f6c63430008150033",
					"opcodes": "PUSH1 0x80 PUSH1 0x40 MSTORE PUSH0 DUP1 PUSH0 PUSH2 0x100 EXP DUP2 SLOAD DUP2 PUSH1 0xFF MUL NOT AND SWAP1 DUP4 ISZERO ISZERO MUL OR SWAP1 SSTORE POP CALLVALUE DUP1 ISZERO PUSH2 0x27 JUMPI PUSH0 DUP1 REVERT JUMPDEST POP PUSH7 0x38D7EA4C68000 SELFBALANCE LT PUSH2 0x50 JUMPI PUSH1 0x1 PUSH0 DUP1 PUSH2 0x100 EXP DUP2 SLOAD DUP2 PUSH1 0xFF MUL NOT AND SWAP1 DUP4 ISZERO ISZERO MUL OR SWAP1 SSTORE POP JUMPDEST PUSH1 0xF1 DUP1 PUSH2 0x5C PUSH0 CODECOPY PUSH0 RETURN INVALID PUSH1 0x80 PUSH1 0x40 MSTORE CALLVALUE DUP1 ISZERO PUSH1 0xE JUMPI PUSH0 DUP1 REVERT JUMPDEST POP PUSH1 0x4 CALLDATASIZE LT PUSH1 0x30 JUMPI PUSH0 CALLDATALOAD PUSH1 0xE0 SHR DUP1 PUSH4 0x4C0F7987 EQ PUSH1 0x34 JUMPI DUP1 PUSH4 0xAC51C67D EQ PUSH1 0x4E JUMPI JUMPDEST PUSH0 DUP1 REVERT JUMPDEST PUSH1 0x3A PUSH1 0x68 JUMP JUMPDEST PUSH1 0x40 MLOAD PUSH1 0x45 SWAP2 SWAP1 PUSH1 0xA4 JUMP JUMPDEST PUSH1 0x40 MLOAD DUP1 SWAP2 SUB SWAP1 RETURN JUMPDEST PUSH1 0x54 PUSH1 0x7C JUMP JUMPDEST PUSH1 0x40 MLOAD PUSH1 0x5F SWAP2 SWAP1 PUSH1 0xA4 JUMP JUMPDEST PUSH1 0x40 MLOAD DUP1 SWAP2 SUB SWAP1 RETURN JUMPDEST PUSH0 DUP1 PUSH0 SWAP1 SLOAD SWAP1 PUSH2 0x100 EXP SWAP1 DIV PUSH1 0xFF AND SWAP1 POP SWAP1 JUMP JUMPDEST PUSH0 DUP1 SLOAD SWAP1 PUSH2 0x100 EXP SWAP1 DIV PUSH1 0xFF AND DUP2 JUMP JUMPDEST PUSH0 DUP2 ISZERO ISZERO SWAP1 POP SWAP2 SWAP1 POP JUMP JUMPDEST PUSH1 0x9E DUP2 PUSH1 0x8C JUMP JUMPDEST DUP3 MSTORE POP POP JUMP JUMPDEST PUSH0 PUSH1 0x20 DUP3 ADD SWAP1 POP PUSH1 0xB5 PUSH0 DUP4 ADD DUP5 PUSH1 0x97 JUMP JUMPDEST SWAP3 SWAP2 POP POP JUMP INVALID LOG2 PUSH5 0x6970667358 0x22 SLT KECCAK256 MUL MSIZE ISZERO PUSH11 0x9F5842F0743C0B146C2BA3 JUMPI 0x1E PUSH6 0x24B624283464 CALLDATACOPY 0xDF 0x5C 0x22 0xE9 CODECOPY RETURNDATACOPY 0xD6 PUSH5 0x736F6C6343 STOP ADDMOD ISZERO STOP CALLER "
				},
				"gasEstimates": {
					"creation": {
						"codeDepositCost": "48200",
						"executionCost": "48653",
						"totalCost": "96853"
					},
					"external": {
						"getResove()": "2451",
						"resove()": "2463"
					}
				},
				"methodIdentifiers": {
					"getResove()": "4c0f7987",
					"resove()": "ac51c67d"
				}
			},
			"storageLayout": {
				"storage": [
					{
						"astId": 4,
						"contract": "shoot/2/create_create计算/1.sol:found",
						"label": "resove",
						"offset": 0,
						"slot": "0",
						"type": "t_bool"
					}
				],
				"types": {
					"t_bool": {
						"encoding": "inplace",
						"label": "bool",
						"numberOfBytes": "1"
					}
				}
			},
			"userdoc": {
				"kind": "user",
				"methods": {},
				"version": 1
			}
		}
	}
}