{
	"data": {
		"bytecode": {
			"linkReferences": {},
			"object": "60806040525f8054906101000a900473ffffffffffffffffffffffffffffffffffffffff1673ffffffffffffffffffffffffffffffffffffffff165f1b5f801b604051602001620000529291906200028d565b60405160208183030381529060405280519060200120600255600254604051602001620000809190620002bc565b6040516020818303038152906040528051906020012060035560026003545f1c620000ac91906200030e565b5f1b60045560015f9054906101000a900473ffffffffffffffffffffffffffffffffffffffff1673ffffffffffffffffffffffffffffffffffffffff165f1b600454604051602001620001019291906200028d565b6040516020818303038152906040528051906020012060055534801562000126575f80fd5b5060405162000dc938038062000dc983398181016040528101906200014c9190620003ad565b805f806101000a81548173ffffffffffffffffffffffffffffffffffffffff021916908373ffffffffffffffffffffffffffffffffffffffff1602179055505f8054906101000a900473ffffffffffffffffffffffffffffffffffffffff1673ffffffffffffffffffffffffffffffffffffffff1663bea293af6040518163ffffffff1660e01b8152600401602060405180830381865afa158015620001f4573d5f803e3d5ffd5b505050506040513d601f19601f820116820180604052508101906200021a91906200041f565b60015f6101000a81548173ffffffffffffffffffffffffffffffffffffffff021916908373ffffffffffffffffffffffffffffffffffffffff160217905550506200044f565b5f819050919050565b5f819050919050565b62000287620002818262000260565b62000269565b82525050565b5f6200029a828562000272565b602082019150620002ac828462000272565b6020820191508190509392505050565b5f620002c9828462000272565b60208201915081905092915050565b5f819050919050565b7f4e487b71000000000000000000000000000000000000000000000000000000005f52601160045260245ffd5b5f6200031a82620002d8565b91506200032783620002d8565b9250828201905080821115620003425762000341620002e1565b5b92915050565b5f80fd5b5f73ffffffffffffffffffffffffffffffffffffffff82169050919050565b5f62000377826200034c565b9050919050565b62000389816200036b565b811462000394575f80fd5b50565b5f81519050620003a7816200037e565b92915050565b5f60208284031215620003c557620003c462000348565b5b5f620003d48482850162000397565b91505092915050565b5f620003e9826200036b565b9050919050565b620003fb81620003dd565b811462000406575f80fd5b50565b5f815190506200041981620003f0565b92915050565b5f6020828403121562000437576200043662000348565b5b5f620004468482850162000409565b91505092915050565b61096c806200045d5f395ff3fe608060405234801561000f575f80fd5b5060043610610086575f3560e01c80638e2eb0ca116100595780638e2eb0ca14610114578063ceeaf20d14610132578063d91f9dbb14610162578063e2c10a4f1461019257610086565b80631b5e8b931461008a5780634111a864146100a857806350f35753146100d8578063785e9e86146100f6575b5f80fd5b6100926101c2565b60405161009f9190610595565b60405180910390f35b6100c260048036038101906100bd9190610618565b6101e5565b6040516100cf9190610665565b60405180910390f35b6100e06101fe565b6040516100ed9190610665565b60405180910390f35b6100fe61041b565b60405161010b919061069e565b60405180910390f35b61011c610440565b6040516101299190610665565b60405180910390f35b61014c600480360381019061014791906106f2565b610446565b6040516101599190610665565b60405180910390f35b61017c60048036038101906101779190610618565b610492565b6040516101899190610665565b60405180910390f35b6101ac60048036038101906101a79190610730565b6104d1565b6040516101b99190610665565b60405180910390f35b5f8054906101000a900473ffffffffffffffffffffffffffffffffffffffff1681565b5f81835f1c6101f4919061079b565b5f1b905092915050565b5f805f9054906101000a900473ffffffffffffffffffffffffffffffffffffffff1673ffffffffffffffffffffffffffffffffffffffff166301f04e9a60015f9054906101000a900473ffffffffffffffffffffffffffffffffffffffff165f6040518363ffffffff1660e01b815260040161027b929190610870565b5f604051808303815f87803b158015610292575f80fd5b505af11580156102a4573d5f803e3d5ffd5b505050505f61030f6102e86102e16102db5f8054906101000a900473ffffffffffffffffffffffffffffffffffffffff165f610446565b5f610492565b60026101e5565b60015f9054906101000a900473ffffffffffffffffffffffffffffffffffffffff166104d1565b90505f8054906101000a900473ffffffffffffffffffffffffffffffffffffffff1673ffffffffffffffffffffffffffffffffffffffff1663d3607ed9825f801b6040518363ffffffff1660e01b815260040161036d9291906108aa565b5f604051808303815f87803b158015610384575f80fd5b505af1158015610396573d5f803e3d5ffd5b505050505f8054906101000a900473ffffffffffffffffffffffffffffffffffffffff1673ffffffffffffffffffffffffffffffffffffffff1663fa391c646040518163ffffffff1660e01b81526004015f604051808303815f87803b1580156103fe575f80fd5b505af1158015610410573d5f803e3d5ffd5b505050508091505090565b60015f9054906101000a900473ffffffffffffffffffffffffffffffffffffffff1681565b60055481565b5f8273ffffffffffffffffffffffffffffffffffffffff165f1b825f1b6040516020016104749291906108f1565b60405160208183030381529060405280519060200120905092915050565b5f81836040516020016104a5919061091c565b604051602081830303815290604052805190602001205f1c6104c7919061079b565b5f1b905092915050565b5f8173ffffffffffffffffffffffffffffffffffffffff165f1b836040516020016104fd9291906108f1565b60405160208183030381529060405280519060200120905092915050565b5f73ffffffffffffffffffffffffffffffffffffffff82169050919050565b5f819050919050565b5f61055d6105586105538461051b565b61053a565b61051b565b9050919050565b5f61056e82610543565b9050919050565b5f61057f82610564565b9050919050565b61058f81610575565b82525050565b5f6020820190506105a85f830184610586565b92915050565b5f80fd5b5f819050919050565b6105c4816105b2565b81146105ce575f80fd5b50565b5f813590506105df816105bb565b92915050565b5f819050919050565b6105f7816105e5565b8114610601575f80fd5b50565b5f81359050610612816105ee565b92915050565b5f806040838503121561062e5761062d6105ae565b5b5f61063b858286016105d1565b925050602061064c85828601610604565b9150509250929050565b61065f816105b2565b82525050565b5f6020820190506106785f830184610656565b92915050565b5f61068882610564565b9050919050565b6106988161067e565b82525050565b5f6020820190506106b15f83018461068f565b92915050565b5f6106c18261051b565b9050919050565b6106d1816106b7565b81146106db575f80fd5b50565b5f813590506106ec816106c8565b92915050565b5f8060408385031215610708576107076105ae565b5b5f610715858286016106de565b925050602061072685828601610604565b9150509250929050565b5f8060408385031215610746576107456105ae565b5b5f610753858286016105d1565b9250506020610764858286016106de565b9150509250929050565b7f4e487b71000000000000000000000000000000000000000000000000000000005f52601160045260245ffd5b5f6107a5826105e5565b91506107b0836105e5565b92508282019050808211156107c8576107c761076e565b5b92915050565b5f82825260208201905092915050565b7f7a700000000000000000000000000000000000000000000000000000000000005f82015250565b5f6108126002836107ce565b915061081d826107de565b602082019050919050565b610831816106b7565b82525050565b5f819050919050565b5f61085a61085561085084610837565b61053a565b6105e5565b9050919050565b61086a81610840565b82525050565b5f6060820190508181035f83015261088781610806565b90506108966020830185610828565b6108a36040830184610861565b9392505050565b5f6040820190506108bd5f830185610656565b6108ca6020830184610656565b9392505050565b5f819050919050565b6108eb6108e6826105b2565b6108d1565b82525050565b5f6108fc82856108da565b60208201915061090c82846108da565b6020820191508190509392505050565b5f61092782846108da565b6020820191508190509291505056fea26469706673582212201d906d522e04f3dc79bcf009cacaa8d5fae33b9c46b903c5f17422da15918bd064736f6c63430008150033",
			"opcodes": "PUSH1 0x80 PUSH1 0x40 MSTORE PUSH0 DUP1 SLOAD SWAP1 PUSH2 0x100 EXP SWAP1 DIV PUSH20 0xFFFFFFFFFFFFFFFFFFFFFFFFFFFFFFFFFFFFFFFF AND PUSH20 0xFFFFFFFFFFFFFFFFFFFFFFFFFFFFFFFFFFFFFFFF AND PUSH0 SHL PUSH0 DUP1 SHL PUSH1 0x40 MLOAD PUSH1 0x20 ADD PUSH3 0x52 SWAP3 SWAP2 SWAP1 PUSH3 0x28D JUMP JUMPDEST PUSH1 0x40 MLOAD PUSH1 0x20 DUP2 DUP4 SUB SUB DUP2 MSTORE SWAP1 PUSH1 0x40 MSTORE DUP1 MLOAD SWAP1 PUSH1 0x20 ADD KECCAK256 PUSH1 0x2 SSTORE PUSH1 0x2 SLOAD PUSH1 0x40 MLOAD PUSH1 0x20 ADD PUSH3 0x80 SWAP2 SWAP1 PUSH3 0x2BC JUMP JUMPDEST PUSH1 0x40 MLOAD PUSH1 0x20 DUP2 DUP4 SUB SUB DUP2 MSTORE SWAP1 PUSH1 0x40 MSTORE DUP1 MLOAD SWAP1 PUSH1 0x20 ADD KECCAK256 PUSH1 0x3 SSTORE PUSH1 0x2 PUSH1 0x3 SLOAD PUSH0 SHR PUSH3 0xAC SWAP2 SWAP1 PUSH3 0x30E JUMP JUMPDEST PUSH0 SHL PUSH1 0x4 SSTORE PUSH1 0x1 PUSH0 SWAP1 SLOAD SWAP1 PUSH2 0x100 EXP SWAP1 DIV PUSH20 0xFFFFFFFFFFFFFFFFFFFFFFFFFFFFFFFFFFFFFFFF AND PUSH20 0xFFFFFFFFFFFFFFFFFFFFFFFFFFFFFFFFFFFFFFFF AND PUSH0 SHL PUSH1 0x4 SLOAD PUSH1 0x40 MLOAD PUSH1 0x20 ADD PUSH3 0x101 SWAP3 SWAP2 SWAP1 PUSH3 0x28D JUMP JUMPDEST PUSH1 0x40 MLOAD PUSH1 0x20 DUP2 DUP4 SUB SUB DUP2 MSTORE SWAP1 PUSH1 0x40 MSTORE DUP1 MLOAD SWAP1 PUSH1 0x20 ADD KECCAK256 PUSH1 0x5 SSTORE CALLVALUE DUP1 ISZERO PUSH3 0x126 JUMPI PUSH0 DUP1 REVERT JUMPDEST POP PUSH1 0x40 MLOAD PUSH3 0xDC9 CODESIZE SUB DUP1 PUSH3 0xDC9 DUP4 CODECOPY DUP2 DUP2 ADD PUSH1 0x40 MSTORE DUP2 ADD SWAP1 PUSH3 0x14C SWAP2 SWAP1 PUSH3 0x3AD JUMP JUMPDEST DUP1 PUSH0 DUP1 PUSH2 0x100 EXP DUP2 SLOAD DUP2 PUSH20 0xFFFFFFFFFFFFFFFFFFFFFFFFFFFFFFFFFFFFFFFF MUL NOT AND SWAP1 DUP4 PUSH20 0xFFFFFFFFFFFFFFFFFFFFFFFFFFFFFFFFFFFFFFFF AND MUL OR SWAP1 SSTORE POP PUSH0 DUP1 SLOAD SWAP1 PUSH2 0x100 EXP SWAP1 DIV PUSH20 0xFFFFFFFFFFFFFFFFFFFFFFFFFFFFFFFFFFFFFFFF AND PUSH20 0xFFFFFFFFFFFFFFFFFFFFFFFFFFFFFFFFFFFFFFFF AND PUSH4 0xBEA293AF PUSH1 0x40 MLOAD DUP2 PUSH4 0xFFFFFFFF AND PUSH1 0xE0 SHL DUP2 MSTORE PUSH1 0x4 ADD PUSH1 0x20 PUSH1 0x40 MLOAD DUP1 DUP4 SUB DUP2 DUP7 GAS STATICCALL ISZERO DUP1 ISZERO PUSH3 0x1F4 JUMPI RETURNDATASIZE PUSH0 DUP1 RETURNDATACOPY RETURNDATASIZE PUSH0 REVERT JUMPDEST POP POP POP POP PUSH1 0x40 MLOAD RETURNDATASIZE PUSH1 0x1F NOT PUSH1 0x1F DUP3 ADD AND DUP3 ADD DUP1 PUSH1 0x40 MSTORE POP DUP2 ADD SWAP1 PUSH3 0x21A SWAP2 SWAP1 PUSH3 0x41F JUMP JUMPDEST PUSH1 0x1 PUSH0 PUSH2 0x100 EXP DUP2 SLOAD DUP2 PUSH20 0xFFFFFFFFFFFFFFFFFFFFFFFFFFFFFFFFFFFFFFFF MUL NOT AND SWAP1 DUP4 PUSH20 0xFFFFFFFFFFFFFFFFFFFFFFFFFFFFFFFFFFFFFFFF AND MUL OR SWAP1 SSTORE POP POP PUSH3 0x44F JUMP JUMPDEST PUSH0 DUP2 SWAP1 POP SWAP2 SWAP1 POP JUMP JUMPDEST PUSH0 DUP2 SWAP1 POP SWAP2 SWAP1 POP JUMP JUMPDEST PUSH3 0x287 PUSH3 0x281 DUP3 PUSH3 0x260 JUMP JUMPDEST PUSH3 0x269 JUMP JUMPDEST DUP3 MSTORE POP POP JUMP JUMPDEST PUSH0 PUSH3 0x29A DUP3 DUP6 PUSH3 0x272 JUMP JUMPDEST PUSH1 0x20 DUP3 ADD SWAP2 POP PUSH3 0x2AC DUP3 DUP5 PUSH3 0x272 JUMP JUMPDEST PUSH1 0x20 DUP3 ADD SWAP2 POP DUP2 SWAP1 POP SWAP4 SWAP3 POP POP POP JUMP JUMPDEST PUSH0 PUSH3 0x2C9 DUP3 DUP5 PUSH3 0x272 JUMP JUMPDEST PUSH1 0x20 DUP3 ADD SWAP2 POP DUP2 SWAP1 POP SWAP3 SWAP2 POP POP JUMP JUMPDEST PUSH0 DUP2 SWAP1 POP SWAP2 SWAP1 POP JUMP JUMPDEST PUSH32 0x4E487B7100000000000000000000000000000000000000000000000000000000 PUSH0 MSTORE PUSH1 0x11 PUSH1 0x4 MSTORE PUSH1 0x24 PUSH0 REVERT JUMPDEST PUSH0 PUSH3 0x31A DUP3 PUSH3 0x2D8 JUMP JUMPDEST SWAP2 POP PUSH3 0x327 DUP4 PUSH3 0x2D8 JUMP JUMPDEST SWAP3 POP DUP3 DUP3 ADD SWAP1 POP DUP1 DUP3 GT ISZERO PUSH3 0x342 JUMPI PUSH3 0x341 PUSH3 0x2E1 JUMP JUMPDEST JUMPDEST SWAP3 SWAP2 POP POP JUMP JUMPDEST PUSH0 DUP1 REVERT JUMPDEST PUSH0 PUSH20 0xFFFFFFFFFFFFFFFFFFFFFFFFFFFFFFFFFFFFFFFF DUP3 AND SWAP1 POP SWAP2 SWAP1 POP JUMP JUMPDEST PUSH0 PUSH3 0x377 DUP3 PUSH3 0x34C JUMP JUMPDEST SWAP1 POP SWAP2 SWAP1 POP JUMP JUMPDEST PUSH3 0x389 DUP2 PUSH3 0x36B JUMP JUMPDEST DUP2 EQ PUSH3 0x394 JUMPI PUSH0 DUP1 REVERT JUMPDEST POP JUMP JUMPDEST PUSH0 DUP2 MLOAD SWAP1 POP PUSH3 0x3A7 DUP2 PUSH3 0x37E JUMP JUMPDEST SWAP3 SWAP2 POP POP JUMP JUMPDEST PUSH0 PUSH1 0x20 DUP3 DUP5 SUB SLT ISZERO PUSH3 0x3C5 JUMPI PUSH3 0x3C4 PUSH3 0x348 JUMP JUMPDEST JUMPDEST PUSH0 PUSH3 0x3D4 DUP5 DUP3 DUP6 ADD PUSH3 0x397 JUMP JUMPDEST SWAP2 POP POP SWAP3 SWAP2 POP POP JUMP JUMPDEST PUSH0 PUSH3 0x3E9 DUP3 PUSH3 0x36B JUMP JUMPDEST SWAP1 POP SWAP2 SWAP1 POP JUMP JUMPDEST PUSH3 0x3FB DUP2 PUSH3 0x3DD JUMP JUMPDEST DUP2 EQ PUSH3 0x406 JUMPI PUSH0 DUP1 REVERT JUMPDEST POP JUMP JUMPDEST PUSH0 DUP2 MLOAD SWAP1 POP PUSH3 0x419 DUP2 PUSH3 0x3F0 JUMP JUMPDEST SWAP3 SWAP2 POP POP JUMP JUMPDEST PUSH0 PUSH1 0x20 DUP3 DUP5 SUB SLT ISZERO PUSH3 0x437 JUMPI PUSH3 0x436 PUSH3 0x348 JUMP JUMPDEST JUMPDEST PUSH0 PUSH3 0x446 DUP5 DUP3 DUP6 ADD PUSH3 0x409 JUMP JUMPDEST SWAP2 POP POP SWAP3 SWAP2 POP POP JUMP JUMPDEST PUSH2 0x96C DUP1 PUSH3 0x45D PUSH0 CODECOPY PUSH0 RETURN INVALID PUSH1 0x80 PUSH1 0x40 MSTORE CALLVALUE DUP1 ISZERO PUSH2 0xF JUMPI PUSH0 DUP1 REVERT JUMPDEST POP PUSH1 0x4 CALLDATASIZE LT PUSH2 0x86 JUMPI PUSH0 CALLDATALOAD PUSH1 0xE0 SHR DUP1 PUSH4 0x8E2EB0CA GT PUSH2 0x59 JUMPI DUP1 PUSH4 0x8E2EB0CA EQ PUSH2 0x114 JUMPI DUP1 PUSH4 0xCEEAF20D EQ PUSH2 0x132 JUMPI DUP1 PUSH4 0xD91F9DBB EQ PUSH2 0x162 JUMPI DUP1 PUSH4 0xE2C10A4F EQ PUSH2 0x192 JUMPI PUSH2 0x86 JUMP JUMPDEST DUP1 PUSH4 0x1B5E8B93 EQ PUSH2 0x8A JUMPI DUP1 PUSH4 0x4111A864 EQ PUSH2 0xA8 JUMPI DUP1 PUSH4 0x50F35753 EQ PUSH2 0xD8 JUMPI DUP1 PUSH4 0x785E9E86 EQ PUSH2 0xF6 JUMPI JUMPDEST PUSH0 DUP1 REVERT JUMPDEST PUSH2 0x92 PUSH2 0x1C2 JUMP JUMPDEST PUSH1 0x40 MLOAD PUSH2 0x9F SWAP2 SWAP1 PUSH2 0x595 JUMP JUMPDEST PUSH1 0x40 MLOAD DUP1 SWAP2 SUB SWAP1 RETURN JUMPDEST PUSH2 0xC2 PUSH1 0x4 DUP1 CALLDATASIZE SUB DUP2 ADD SWAP1 PUSH2 0xBD SWAP2 SWAP1 PUSH2 0x618 JUMP JUMPDEST PUSH2 0x1E5 JUMP JUMPDEST PUSH1 0x40 MLOAD PUSH2 0xCF SWAP2 SWAP1 PUSH2 0x665 JUMP JUMPDEST PUSH1 0x40 MLOAD DUP1 SWAP2 SUB SWAP1 RETURN JUMPDEST PUSH2 0xE0 PUSH2 0x1FE JUMP JUMPDEST PUSH1 0x40 MLOAD PUSH2 0xED SWAP2 SWAP1 PUSH2 0x665 JUMP JUMPDEST PUSH1 0x40 MLOAD DUP1 SWAP2 SUB SWAP1 RETURN JUMPDEST PUSH2 0xFE PUSH2 0x41B JUMP JUMPDEST PUSH1 0x40 MLOAD PUSH2 0x10B SWAP2 SWAP1 PUSH2 0x69E JUMP JUMPDEST PUSH1 0x40 MLOAD DUP1 SWAP2 SUB SWAP1 RETURN JUMPDEST PUSH2 0x11C PUSH2 0x440 JUMP JUMPDEST PUSH1 0x40 MLOAD PUSH2 0x129 SWAP2 SWAP1 PUSH2 0x665 JUMP JUMPDEST PUSH1 0x40 MLOAD DUP1 SWAP2 SUB SWAP1 RETURN JUMPDEST PUSH2 0x14C PUSH1 0x4 DUP1 CALLDATASIZE SUB DUP2 ADD SWAP1 PUSH2 0x147 SWAP2 SWAP1 PUSH2 0x6F2 JUMP JUMPDEST PUSH2 0x446 JUMP JUMPDEST PUSH1 0x40 MLOAD PUSH2 0x159 SWAP2 SWAP1 PUSH2 0x665 JUMP JUMPDEST PUSH1 0x40 MLOAD DUP1 SWAP2 SUB SWAP1 RETURN JUMPDEST PUSH2 0x17C PUSH1 0x4 DUP1 CALLDATASIZE SUB DUP2 ADD SWAP1 PUSH2 0x177 SWAP2 SWAP1 PUSH2 0x618 JUMP JUMPDEST PUSH2 0x492 JUMP JUMPDEST PUSH1 0x40 MLOAD PUSH2 0x189 SWAP2 SWAP1 PUSH2 0x665 JUMP JUMPDEST PUSH1 0x40 MLOAD DUP1 SWAP2 SUB SWAP1 RETURN JUMPDEST PUSH2 0x1AC PUSH1 0x4 DUP1 CALLDATASIZE SUB DUP2 ADD SWAP1 PUSH2 0x1A7 SWAP2 SWAP1 PUSH2 0x730 JUMP JUMPDEST PUSH2 0x4D1 JUMP JUMPDEST PUSH1 0x40 MLOAD PUSH2 0x1B9 SWAP2 SWAP1 PUSH2 0x665 JUMP JUMPDEST PUSH1 0x40 MLOAD DUP1 SWAP2 SUB SWAP1 RETURN JUMPDEST PUSH0 DUP1 SLOAD SWAP1 PUSH2 0x100 EXP SWAP1 DIV PUSH20 0xFFFFFFFFFFFFFFFFFFFFFFFFFFFFFFFFFFFFFFFF AND DUP2 JUMP JUMPDEST PUSH0 DUP2 DUP4 PUSH0 SHR PUSH2 0x1F4 SWAP2 SWAP1 PUSH2 0x79B JUMP JUMPDEST PUSH0 SHL SWAP1 POP SWAP3 SWAP2 POP POP JUMP JUMPDEST PUSH0 DUP1 PUSH0 SWAP1 SLOAD SWAP1 PUSH2 0x100 EXP SWAP1 DIV PUSH20 0xFFFFFFFFFFFFFFFFFFFFFFFFFFFFFFFFFFFFFFFF AND PUSH20 0xFFFFFFFFFFFFFFFFFFFFFFFFFFFFFFFFFFFFFFFF AND PUSH4 0x1F04E9A PUSH1 0x1 PUSH0 SWAP1 SLOAD SWAP1 PUSH2 0x100 EXP SWAP1 DIV PUSH20 0xFFFFFFFFFFFFFFFFFFFFFFFFFFFFFFFFFFFFFFFF AND PUSH0 PUSH1 0x40 MLOAD DUP4 PUSH4 0xFFFFFFFF AND PUSH1 0xE0 SHL DUP2 MSTORE PUSH1 0x4 ADD PUSH2 0x27B SWAP3 SWAP2 SWAP1 PUSH2 0x870 JUMP JUMPDEST PUSH0 PUSH1 0x40 MLOAD DUP1 DUP4 SUB DUP2 PUSH0 DUP8 DUP1 EXTCODESIZE ISZERO DUP1 ISZERO PUSH2 0x292 JUMPI PUSH0 DUP1 REVERT JUMPDEST POP GAS CALL ISZERO DUP1 ISZERO PUSH2 0x2A4 JUMPI RETURNDATASIZE PUSH0 DUP1 RETURNDATACOPY RETURNDATASIZE PUSH0 REVERT JUMPDEST POP POP POP POP PUSH0 PUSH2 0x30F PUSH2 0x2E8 PUSH2 0x2E1 PUSH2 0x2DB PUSH0 DUP1 SLOAD SWAP1 PUSH2 0x100 EXP SWAP1 DIV PUSH20 0xFFFFFFFFFFFFFFFFFFFFFFFFFFFFFFFFFFFFFFFF AND PUSH0 PUSH2 0x446 JUMP JUMPDEST PUSH0 PUSH2 0x492 JUMP JUMPDEST PUSH1 0x2 PUSH2 0x1E5 JUMP JUMPDEST PUSH1 0x1 PUSH0 SWAP1 SLOAD SWAP1 PUSH2 0x100 EXP SWAP1 DIV PUSH20 0xFFFFFFFFFFFFFFFFFFFFFFFFFFFFFFFFFFFFFFFF AND PUSH2 0x4D1 JUMP JUMPDEST SWAP1 POP PUSH0 DUP1 SLOAD SWAP1 PUSH2 0x100 EXP SWAP1 DIV PUSH20 0xFFFFFFFFFFFFFFFFFFFFFFFFFFFFFFFFFFFFFFFF AND PUSH20 0xFFFFFFFFFFFFFFFFFFFFFFFFFFFFFFFFFFFFFFFF AND PUSH4 0xD3607ED9 DUP3 PUSH0 DUP1 SHL PUSH1 0x40 MLOAD DUP4 PUSH4 0xFFFFFFFF AND PUSH1 0xE0 SHL DUP2 MSTORE PUSH1 0x4 ADD PUSH2 0x36D SWAP3 SWAP2 SWAP1 PUSH2 0x8AA JUMP JUMPDEST PUSH0 PUSH1 0x40 MLOAD DUP1 DUP4 SUB DUP2 PUSH0 DUP8 DUP1 EXTCODESIZE ISZERO DUP1 ISZERO PUSH2 0x384 JUMPI PUSH0 DUP1 REVERT JUMPDEST POP GAS CALL ISZERO DUP1 ISZERO PUSH2 0x396 JUMPI RETURNDATASIZE PUSH0 DUP1 RETURNDATACOPY RETURNDATASIZE PUSH0 REVERT JUMPDEST POP POP POP POP PUSH0 DUP1 SLOAD SWAP1 PUSH2 0x100 EXP SWAP1 DIV PUSH20 0xFFFFFFFFFFFFFFFFFFFFFFFFFFFFFFFFFFFFFFFF AND PUSH20 0xFFFFFFFFFFFFFFFFFFFFFFFFFFFFFFFFFFFFFFFF AND PUSH4 0xFA391C64 PUSH1 0x40 MLOAD DUP2 PUSH4 0xFFFFFFFF AND PUSH1 0xE0 SHL DUP2 MSTORE PUSH1 0x4 ADD PUSH0 PUSH1 0x40 MLOAD DUP1 DUP4 SUB DUP2 PUSH0 DUP8 DUP1 EXTCODESIZE ISZERO DUP1 ISZERO PUSH2 0x3FE JUMPI PUSH0 DUP1 REVERT JUMPDEST POP GAS CALL ISZERO DUP1 ISZERO PUSH2 0x410 JUMPI RETURNDATASIZE PUSH0 DUP1 RETURNDATACOPY RETURNDATASIZE PUSH0 REVERT JUMPDEST POP POP POP POP DUP1 SWAP2 POP POP SWAP1 JUMP JUMPDEST PUSH1 0x1 PUSH0 SWAP1 SLOAD SWAP1 PUSH2 0x100 EXP SWAP1 DIV PUSH20 0xFFFFFFFFFFFFFFFFFFFFFFFFFFFFFFFFFFFFFFFF AND DUP2 JUMP JUMPDEST PUSH1 0x5 SLOAD DUP2 JUMP JUMPDEST PUSH0 DUP3 PUSH20 0xFFFFFFFFFFFFFFFFFFFFFFFFFFFFFFFFFFFFFFFF AND PUSH0 SHL DUP3 PUSH0 SHL PUSH1 0x40 MLOAD PUSH1 0x20 ADD PUSH2 0x474 SWAP3 SWAP2 SWAP1 PUSH2 0x8F1 JUMP JUMPDEST PUSH1 0x40 MLOAD PUSH1 0x20 DUP2 DUP4 SUB SUB DUP2 MSTORE SWAP1 PUSH1 0x40 MSTORE DUP1 MLOAD SWAP1 PUSH1 0x20 ADD KECCAK256 SWAP1 POP SWAP3 SWAP2 POP POP JUMP JUMPDEST PUSH0 DUP2 DUP4 PUSH1 0x40 MLOAD PUSH1 0x20 ADD PUSH2 0x4A5 SWAP2 SWAP1 PUSH2 0x91C JUMP JUMPDEST PUSH1 0x40 MLOAD PUSH1 0x20 DUP2 DUP4 SUB SUB DUP2 MSTORE SWAP1 PUSH1 0x40 MSTORE DUP1 MLOAD SWAP1 PUSH1 0x20 ADD KECCAK256 PUSH0 SHR PUSH2 0x4C7 SWAP2 SWAP1 PUSH2 0x79B JUMP JUMPDEST PUSH0 SHL SWAP1 POP SWAP3 SWAP2 POP POP JUMP JUMPDEST PUSH0 DUP2 PUSH20 0xFFFFFFFFFFFFFFFFFFFFFFFFFFFFFFFFFFFFFFFF AND PUSH0 SHL DUP4 PUSH1 0x40 MLOAD PUSH1 0x20 ADD PUSH2 0x4FD SWAP3 SWAP2 SWAP1 PUSH2 0x8F1 JUMP JUMPDEST PUSH1 0x40 MLOAD PUSH1 0x20 DUP2 DUP4 SUB SUB DUP2 MSTORE SWAP1 PUSH1 0x40 MSTORE DUP1 MLOAD SWAP1 PUSH1 0x20 ADD KECCAK256 SWAP1 POP SWAP3 SWAP2 POP POP JUMP JUMPDEST PUSH0 PUSH20 0xFFFFFFFFFFFFFFFFFFFFFFFFFFFFFFFFFFFFFFFF DUP3 AND SWAP1 POP SWAP2 SWAP1 POP JUMP JUMPDEST PUSH0 DUP2 SWAP1 POP SWAP2 SWAP1 POP JUMP JUMPDEST PUSH0 PUSH2 0x55D PUSH2 0x558 PUSH2 0x553 DUP5 PUSH2 0x51B JUMP JUMPDEST PUSH2 0x53A JUMP JUMPDEST PUSH2 0x51B JUMP JUMPDEST SWAP1 POP SWAP2 SWAP1 POP JUMP JUMPDEST PUSH0 PUSH2 0x56E DUP3 PUSH2 0x543 JUMP JUMPDEST SWAP1 POP SWAP2 SWAP1 POP JUMP JUMPDEST PUSH0 PUSH2 0x57F DUP3 PUSH2 0x564 JUMP JUMPDEST SWAP1 POP SWAP2 SWAP1 POP JUMP JUMPDEST PUSH2 0x58F DUP2 PUSH2 0x575 JUMP JUMPDEST DUP3 MSTORE POP POP JUMP JUMPDEST PUSH0 PUSH1 0x20 DUP3 ADD SWAP1 POP PUSH2 0x5A8 PUSH0 DUP4 ADD DUP5 PUSH2 0x586 JUMP JUMPDEST SWAP3 SWAP2 POP POP JUMP JUMPDEST PUSH0 DUP1 REVERT JUMPDEST PUSH0 DUP2 SWAP1 POP SWAP2 SWAP1 POP JUMP JUMPDEST PUSH2 0x5C4 DUP2 PUSH2 0x5B2 JUMP JUMPDEST DUP2 EQ PUSH2 0x5CE JUMPI PUSH0 DUP1 REVERT JUMPDEST POP JUMP JUMPDEST PUSH0 DUP2 CALLDATALOAD SWAP1 POP PUSH2 0x5DF DUP2 PUSH2 0x5BB JUMP JUMPDEST SWAP3 SWAP2 POP POP JUMP JUMPDEST PUSH0 DUP2 SWAP1 POP SWAP2 SWAP1 POP JUMP JUMPDEST PUSH2 0x5F7 DUP2 PUSH2 0x5E5 JUMP JUMPDEST DUP2 EQ PUSH2 0x601 JUMPI PUSH0 DUP1 REVERT JUMPDEST POP JUMP JUMPDEST PUSH0 DUP2 CALLDATALOAD SWAP1 POP PUSH2 0x612 DUP2 PUSH2 0x5EE JUMP JUMPDEST SWAP3 SWAP2 POP POP JUMP JUMPDEST PUSH0 DUP1 PUSH1 0x40 DUP4 DUP6 SUB SLT ISZERO PUSH2 0x62E JUMPI PUSH2 0x62D PUSH2 0x5AE JUMP JUMPDEST JUMPDEST PUSH0 PUSH2 0x63B DUP6 DUP3 DUP7 ADD PUSH2 0x5D1 JUMP JUMPDEST SWAP3 POP POP PUSH1 0x20 PUSH2 0x64C DUP6 DUP3 DUP7 ADD PUSH2 0x604 JUMP JUMPDEST SWAP2 POP POP SWAP3 POP SWAP3 SWAP1 POP JUMP JUMPDEST PUSH2 0x65F DUP2 PUSH2 0x5B2 JUMP JUMPDEST DUP3 MSTORE POP POP JUMP JUMPDEST PUSH0 PUSH1 0x20 DUP3 ADD SWAP1 POP PUSH2 0x678 PUSH0 DUP4 ADD DUP5 PUSH2 0x656 JUMP JUMPDEST SWAP3 SWAP2 POP POP JUMP JUMPDEST PUSH0 PUSH2 0x688 DUP3 PUSH2 0x564 JUMP JUMPDEST SWAP1 POP SWAP2 SWAP1 POP JUMP JUMPDEST PUSH2 0x698 DUP2 PUSH2 0x67E JUMP JUMPDEST DUP3 MSTORE POP POP JUMP JUMPDEST PUSH0 PUSH1 0x20 DUP3 ADD SWAP1 POP PUSH2 0x6B1 PUSH0 DUP4 ADD DUP5 PUSH2 0x68F JUMP JUMPDEST SWAP3 SWAP2 POP POP JUMP JUMPDEST PUSH0 PUSH2 0x6C1 DUP3 PUSH2 0x51B JUMP JUMPDEST SWAP1 POP SWAP2 SWAP1 POP JUMP JUMPDEST PUSH2 0x6D1 DUP2 PUSH2 0x6B7 JUMP JUMPDEST DUP2 EQ PUSH2 0x6DB JUMPI PUSH0 DUP1 REVERT JUMPDEST POP JUMP JUMPDEST PUSH0 DUP2 CALLDATALOAD SWAP1 POP PUSH2 0x6EC DUP2 PUSH2 0x6C8 JUMP JUMPDEST SWAP3 SWAP2 POP POP JUMP JUMPDEST PUSH0 DUP1 PUSH1 0x40 DUP4 DUP6 SUB SLT ISZERO PUSH2 0x708 JUMPI PUSH2 0x707 PUSH2 0x5AE JUMP JUMPDEST JUMPDEST PUSH0 PUSH2 0x715 DUP6 DUP3 DUP7 ADD PUSH2 0x6DE JUMP JUMPDEST SWAP3 POP POP PUSH1 0x20 PUSH2 0x726 DUP6 DUP3 DUP7 ADD PUSH2 0x604 JUMP JUMPDEST SWAP2 POP POP SWAP3 POP SWAP3 SWAP1 POP JUMP JUMPDEST PUSH0 DUP1 PUSH1 0x40 DUP4 DUP6 SUB SLT ISZERO PUSH2 0x746 JUMPI PUSH2 0x745 PUSH2 0x5AE JUMP JUMPDEST JUMPDEST PUSH0 PUSH2 0x753 DUP6 DUP3 DUP7 ADD PUSH2 0x5D1 JUMP JUMPDEST SWAP3 POP POP PUSH1 0x20 PUSH2 0x764 DUP6 DUP3 DUP7 ADD PUSH2 0x6DE JUMP JUMPDEST SWAP2 POP POP SWAP3 POP SWAP3 SWAP1 POP JUMP JUMPDEST PUSH32 0x4E487B7100000000000000000000000000000000000000000000000000000000 PUSH0 MSTORE PUSH1 0x11 PUSH1 0x4 MSTORE PUSH1 0x24 PUSH0 REVERT JUMPDEST PUSH0 PUSH2 0x7A5 DUP3 PUSH2 0x5E5 JUMP JUMPDEST SWAP2 POP PUSH2 0x7B0 DUP4 PUSH2 0x5E5 JUMP JUMPDEST SWAP3 POP DUP3 DUP3 ADD SWAP1 POP DUP1 DUP3 GT ISZERO PUSH2 0x7C8 JUMPI PUSH2 0x7C7 PUSH2 0x76E JUMP JUMPDEST JUMPDEST SWAP3 SWAP2 POP POP JUMP JUMPDEST PUSH0 DUP3 DUP3 MSTORE PUSH1 0x20 DUP3 ADD SWAP1 POP SWAP3 SWAP2 POP POP JUMP JUMPDEST PUSH32 0x7A70000000000000000000000000000000000000000000000000000000000000 PUSH0 DUP3 ADD MSTORE POP JUMP JUMPDEST PUSH0 PUSH2 0x812 PUSH1 0x2 DUP4 PUSH2 0x7CE JUMP JUMPDEST SWAP2 POP PUSH2 0x81D DUP3 PUSH2 0x7DE JUMP JUMPDEST PUSH1 0x20 DUP3 ADD SWAP1 POP SWAP2 SWAP1 POP JUMP JUMPDEST PUSH2 0x831 DUP2 PUSH2 0x6B7 JUMP JUMPDEST DUP3 MSTORE POP POP JUMP JUMPDEST PUSH0 DUP2 SWAP1 POP SWAP2 SWAP1 POP JUMP JUMPDEST PUSH0 PUSH2 0x85A PUSH2 0x855 PUSH2 0x850 DUP5 PUSH2 0x837 JUMP JUMPDEST PUSH2 0x53A JUMP JUMPDEST PUSH2 0x5E5 JUMP JUMPDEST SWAP1 POP SWAP2 SWAP1 POP JUMP JUMPDEST PUSH2 0x86A DUP2 PUSH2 0x840 JUMP JUMPDEST DUP3 MSTORE POP POP JUMP JUMPDEST PUSH0 PUSH1 0x60 DUP3 ADD SWAP1 POP DUP2 DUP2 SUB PUSH0 DUP4 ADD MSTORE PUSH2 0x887 DUP2 PUSH2 0x806 JUMP JUMPDEST SWAP1 POP PUSH2 0x896 PUSH1 0x20 DUP4 ADD DUP6 PUSH2 0x828 JUMP JUMPDEST PUSH2 0x8A3 PUSH1 0x40 DUP4 ADD DUP5 PUSH2 0x861 JUMP JUMPDEST SWAP4 SWAP3 POP POP POP JUMP JUMPDEST PUSH0 PUSH1 0x40 DUP3 ADD SWAP1 POP PUSH2 0x8BD PUSH0 DUP4 ADD DUP6 PUSH2 0x656 JUMP JUMPDEST PUSH2 0x8CA PUSH1 0x20 DUP4 ADD DUP5 PUSH2 0x656 JUMP JUMPDEST SWAP4 SWAP3 POP POP POP JUMP JUMPDEST PUSH0 DUP2 SWAP1 POP SWAP2 SWAP1 POP JUMP JUMPDEST PUSH2 0x8EB PUSH2 0x8E6 DUP3 PUSH2 0x5B2 JUMP JUMPDEST PUSH2 0x8D1 JUMP JUMPDEST DUP3 MSTORE POP POP JUMP JUMPDEST PUSH0 PUSH2 0x8FC DUP3 DUP6 PUSH2 0x8DA JUMP JUMPDEST PUSH1 0x20 DUP3 ADD SWAP2 POP PUSH2 0x90C DUP3 DUP5 PUSH2 0x8DA JUMP JUMPDEST PUSH1 0x20 DUP3 ADD SWAP2 POP DUP2 SWAP1 POP SWAP4 SWAP3 POP POP POP JUMP JUMPDEST PUSH0 PUSH2 0x927 DUP3 DUP5 PUSH2 0x8DA JUMP JUMPDEST PUSH1 0x20 DUP3 ADD SWAP2 POP DUP2 SWAP1 POP SWAP3 SWAP2 POP POP JUMP INVALID LOG2 PUSH5 0x6970667358 0x22 SLT KECCAK256 SAR SWAP1 PUSH14 0x522E04F3DC79BCF009CACAA8D5FA 0xE3 EXTCODESIZE SWAP13 CHAINID 0xB9 SUB 0xC5 CALL PUSH21 0x22DA15918BD064736F6C6343000815003300000000 "
		},
		"gasEstimates": {
			"creation": {
				"codeDepositCost": "482400",
				"executionCost": "infinite",
				"totalCost": "infinite"
			},
			"external": {
				"WalletBalancesSoltIndex()": "2425",
				"attract()": "infinite",
				"check1()": "infinite",
				"erc20()": "infinite",
				"getArrayIndexSolt(bytes32,uint256)": "infinite",
				"getArraySolt(address,uint256)": "infinite",
				"getWalletBalancesSolt(bytes32,uint256)": "infinite",
				"getWalletBalancesSoltIndex(bytes32,address)": "infinite"
			}
		},
		"methodIdentifiers": {
			"WalletBalancesSoltIndex()": "8e2eb0ca",
			"attract()": "50f35753",
			"check1()": "1b5e8b93",
			"erc20()": "785e9e86",
			"getArrayIndexSolt(bytes32,uint256)": "d91f9dbb",
			"getArraySolt(address,uint256)": "ceeaf20d",
			"getWalletBalancesSolt(bytes32,uint256)": "4111a864",
			"getWalletBalancesSoltIndex(bytes32,address)": "e2c10a4f"
		}
	},
	"abi": [
		{
			"inputs": [
				{
					"internalType": "address",
					"name": "addr",
					"type": "address"
				}
			],
			"stateMutability": "nonpayable",
			"type": "constructor"
		},
		{
			"inputs": [],
			"name": "WalletBalancesSoltIndex",
			"outputs": [
				{
					"internalType": "bytes32",
					"name": "",
					"type": "bytes32"
				}
			],
			"stateMutability": "view",
			"type": "function"
		},
		{
			"inputs": [],
			"name": "attract",
			"outputs": [
				{
					"internalType": "bytes32",
					"name": "",
					"type": "bytes32"
				}
			],
			"stateMutability": "nonpayable",
			"type": "function"
		},
		{
			"inputs": [],
			"name": "check1",
			"outputs": [
				{
					"internalType": "contract check",
					"name": "",
					"type": "address"
				}
			],
			"stateMutability": "view",
			"type": "function"
		},
		{
			"inputs": [],
			"name": "erc20",
			"outputs": [
				{
					"internalType": "contract ERC20",
					"name": "",
					"type": "address"
				}
			],
			"stateMutability": "view",
			"type": "function"
		},
		{
			"inputs": [
				{
					"internalType": "bytes32",
					"name": "solt",
					"type": "bytes32"
				},
				{
					"internalType": "uint256",
					"name": "index",
					"type": "uint256"
				}
			],
			"name": "getArrayIndexSolt",
			"outputs": [
				{
					"internalType": "bytes32",
					"name": "",
					"type": "bytes32"
				}
			],
			"stateMutability": "pure",
			"type": "function"
		},
		{
			"inputs": [
				{
					"internalType": "address",
					"name": "addr",
					"type": "address"
				},
				{
					"internalType": "uint256",
					"name": "Solt",
					"type": "uint256"
				}
			],
			"name": "getArraySolt",
			"outputs": [
				{
					"internalType": "bytes32",
					"name": "",
					"type": "bytes32"
				}
			],
			"stateMutability": "pure",
			"type": "function"
		},
		{
			"inputs": [
				{
					"internalType": "bytes32",
					"name": "solt",
					"type": "bytes32"
				},
				{
					"internalType": "uint256",
					"name": "index",
					"type": "uint256"
				}
			],
			"name": "getWalletBalancesSolt",
			"outputs": [
				{
					"internalType": "bytes32",
					"name": "",
					"type": "bytes32"
				}
			],
			"stateMutability": "pure",
			"type": "function"
		},
		{
			"inputs": [
				{
					"internalType": "bytes32",
					"name": "solt",
					"type": "bytes32"
				},
				{
					"internalType": "address",
					"name": "addr",
					"type": "address"
				}
			],
			"name": "getWalletBalancesSoltIndex",
			"outputs": [
				{
					"internalType": "bytes32",
					"name": "",
					"type": "bytes32"
				}
			],
			"stateMutability": "pure",
			"type": "function"
		}
	]
}