{
	"shoot/3/未初始化的局部stroage/1.sol": {
		"cooperate": {
			"abi": [
				{
					"constant": true,
					"inputs": [
						{
							"name": "",
							"type": "uint256"
						}
					],
					"name": "events",
					"outputs": [
						{
							"name": "",
							"type": "uint256"
						}
					],
					"payable": false,
					"stateMutability": "view",
					"type": "function"
				},
				{
					"constant": true,
					"inputs": [
						{
							"name": "",
							"type": "address"
						}
					],
					"name": "borrows",
					"outputs": [
						{
							"name": "",
							"type": "uint256"
						}
					],
					"payable": false,
					"stateMutability": "view",
					"type": "function"
				},
				{
					"constant": true,
					"inputs": [],
					"name": "contractName",
					"outputs": [
						{
							"name": "",
							"type": "string"
						}
					],
					"payable": false,
					"stateMutability": "view",
					"type": "function"
				},
				{
					"constant": false,
					"inputs": [
						{
							"name": "_name",
							"type": "string"
						},
						{
							"name": "_debt",
							"type": "uint256"
						}
					],
					"name": "borrow",
					"outputs": [],
					"payable": true,
					"stateMutability": "payable",
					"type": "function"
				},
				{
					"constant": false,
					"inputs": [],
					"name": "init",
					"outputs": [],
					"payable": true,
					"stateMutability": "payable",
					"type": "function"
				},
				{
					"constant": true,
					"inputs": [],
					"name": "score",
					"outputs": [
						{
							"name": "",
							"type": "uint256"
						}
					],
					"payable": false,
					"stateMutability": "view",
					"type": "function"
				},
				{
					"constant": false,
					"inputs": [],
					"name": "isCompleted",
					"outputs": [],
					"payable": false,
					"stateMutability": "nonpayable",
					"type": "function"
				}
			],
			"devdoc": {
				"methods": {}
			},
			"evm": {
				"assembly": "    /* \"shoot/3/未初始化的局部stroage/1.sol\":1210:2777  contract cooperate{\r... */\n  mstore(0x40, 0x80)\n    /* \"shoot/3/未初始化的局部stroage/1.sol\":1439:1499  string public contractName = \"cuit is the best school in CN\" */\n  0x40\n  dup1\n  mload\n  swap1\n  dup2\n  add\n  0x40\n  mstore\n  dup1\n  0x1d\n  dup2\n  mstore\n  0x20\n  add\n  0x63756974206973207468652062657374207363686f6f6c20696e20434e000000\n  dup2\n  mstore\n  pop\n  0x2\n  swap1\n  dup1\n  mload\n  swap1\n  0x20\n  add\n  swap1\n  tag_1\n  swap3\n  swap2\n  swap1\n  jump\t// in(tag_2)\ntag_1:\n  pop\n    /* \"shoot/3/未初始化的局部stroage/1.sol\":1210:2777  contract cooperate{\r... */\n  callvalue\n    /* \"--CODEGEN--\":8:17   */\n  dup1\n    /* \"--CODEGEN--\":5:7   */\n  iszero\n  tag_3\n  jumpi\n    /* \"--CODEGEN--\":30:31   */\n  0x0\n    /* \"--CODEGEN--\":27:28   */\n  dup1\n    /* \"--CODEGEN--\":20:32   */\n  revert\n    /* \"--CODEGEN--\":5:7   */\ntag_3:\n    /* \"shoot/3/未初始化的局部stroage/1.sol\":1210:2777  contract cooperate{\r... */\n  pop\n  jump(tag_4)\ntag_2:\n  dup3\n  dup1\n  sload\n  0x1\n  dup2\n  0x1\n  and\n  iszero\n  0x100\n  mul\n  sub\n  and\n  0x2\n  swap1\n  div\n  swap1\n  0x0\n  mstore\n  keccak256(0x0, 0x20)\n  swap1\n  0x1f\n  add\n  0x20\n  swap1\n  div\n  dup2\n  add\n  swap3\n  dup3\n  0x1f\n  lt\n  tag_6\n  jumpi\n  dup1\n  mload\n  not(0xff)\n  and\n  dup4\n  dup1\n  add\n  or\n  dup6\n  sstore\n  jump(tag_5)\ntag_6:\n  dup3\n  dup1\n  add\n  0x1\n  add\n  dup6\n  sstore\n  dup3\n  iszero\n  tag_5\n  jumpi\n  swap2\n  dup3\n  add\ntag_7:\n  dup3\n  dup2\n  gt\n  iszero\n  tag_8\n  jumpi\n  dup3\n  mload\n  dup3\n  sstore\n  swap2\n  0x20\n  add\n  swap2\n  swap1\n  0x1\n  add\n  swap1\n  jump(tag_7)\ntag_8:\ntag_5:\n  pop\n  swap1\n  pop\n  tag_9\n  swap2\n  swap1\n  jump\t// in(tag_10)\ntag_9:\n  pop\n  swap1\n  jump\t// out\ntag_10:\n  tag_11\n  swap2\n  swap1\ntag_12:\n  dup1\n  dup3\n  gt\n  iszero\n  tag_13\n  jumpi\n  0x0\n  dup2\n  0x0\n  swap1\n  sstore\n  pop\n  0x1\n  add\n  jump(tag_12)\ntag_13:\n  pop\n  swap1\n  jump\ntag_11:\n  swap1\n  jump\t// out\ntag_4:\n  dataSize(sub_0)\n  dup1\n  dataOffset(sub_0)\n  0x0\n  codecopy\n  0x0\n  return\nstop\n\nsub_0: assembly {\n        /* \"shoot/3/未初始化的局部stroage/1.sol\":1210:2777  contract cooperate{\r... */\n      mstore(0x40, 0x80)\n      jumpi(tag_1, lt(calldatasize, 0x4))\n      calldataload(0x0)\n      0x100000000000000000000000000000000000000000000000000000000\n      swap1\n      div\n      0xffffffff\n      and\n      dup1\n      0xb791430\n      eq\n      tag_2\n      jumpi\n      dup1\n      0x54a5706f\n      eq\n      tag_3\n      jumpi\n      dup1\n      0x75d0c0dc\n      eq\n      tag_4\n      jumpi\n      dup1\n      0xb0afe8bf\n      eq\n      tag_5\n      jumpi\n      dup1\n      0xe1c7392a\n      eq\n      tag_6\n      jumpi\n      dup1\n      0xefedc669\n      eq\n      tag_7\n      jumpi\n      dup1\n      0xfa391c64\n      eq\n      tag_8\n      jumpi\n    tag_1:\n      0x0\n      dup1\n      revert\n        /* \"shoot/3/未初始化的局部stroage/1.sol\":1354:1377  uint256[] public events */\n    tag_2:\n      callvalue\n        /* \"--CODEGEN--\":8:17   */\n      dup1\n        /* \"--CODEGEN--\":5:7   */\n      iszero\n      tag_9\n      jumpi\n        /* \"--CODEGEN--\":30:31   */\n      0x0\n        /* \"--CODEGEN--\":27:28   */\n      dup1\n        /* \"--CODEGEN--\":20:32   */\n      revert\n        /* \"--CODEGEN--\":5:7   */\n    tag_9:\n        /* \"shoot/3/未初始化的局部stroage/1.sol\":1354:1377  uint256[] public events */\n      pop\n      tag_10\n      0x4\n      dup1\n      calldatasize\n      sub\n      dup2\n      add\n      swap1\n      dup1\n      dup1\n      calldataload\n      swap1\n      0x20\n      add\n      swap1\n      swap3\n      swap2\n      swap1\n      pop\n      pop\n      pop\n      jump(tag_11)\n    tag_10:\n      mload(0x40)\n      dup1\n      dup3\n      dup2\n      mstore\n      0x20\n      add\n      swap2\n      pop\n      pop\n      mload(0x40)\n      dup1\n      swap2\n      sub\n      swap1\n      return\n        /* \"shoot/3/未初始化的局部stroage/1.sol\":1387:1429  mapping(address => uint256) public borrows */\n    tag_3:\n      callvalue\n        /* \"--CODEGEN--\":8:17   */\n      dup1\n        /* \"--CODEGEN--\":5:7   */\n      iszero\n      tag_12\n      jumpi\n        /* \"--CODEGEN--\":30:31   */\n      0x0\n        /* \"--CODEGEN--\":27:28   */\n      dup1\n        /* \"--CODEGEN--\":20:32   */\n      revert\n        /* \"--CODEGEN--\":5:7   */\n    tag_12:\n        /* \"shoot/3/未初始化的局部stroage/1.sol\":1387:1429  mapping(address => uint256) public borrows */\n      pop\n      tag_13\n      0x4\n      dup1\n      calldatasize\n      sub\n      dup2\n      add\n      swap1\n      dup1\n      dup1\n      calldataload\n      0xffffffffffffffffffffffffffffffffffffffff\n      and\n      swap1\n      0x20\n      add\n      swap1\n      swap3\n      swap2\n      swap1\n      pop\n      pop\n      pop\n      jump(tag_14)\n    tag_13:\n      mload(0x40)\n      dup1\n      dup3\n      dup2\n      mstore\n      0x20\n      add\n      swap2\n      pop\n      pop\n      mload(0x40)\n      dup1\n      swap2\n      sub\n      swap1\n      return\n        /* \"shoot/3/未初始化的局部stroage/1.sol\":1439:1499  string public contractName = \"cuit is the best school in CN\" */\n    tag_4:\n      callvalue\n        /* \"--CODEGEN--\":8:17   */\n      dup1\n        /* \"--CODEGEN--\":5:7   */\n      iszero\n      tag_15\n      jumpi\n        /* \"--CODEGEN--\":30:31   */\n      0x0\n        /* \"--CODEGEN--\":27:28   */\n      dup1\n        /* \"--CODEGEN--\":20:32   */\n      revert\n        /* \"--CODEGEN--\":5:7   */\n    tag_15:\n        /* \"shoot/3/未初始化的局部stroage/1.sol\":1439:1499  string public contractName = \"cuit is the best school in CN\" */\n      pop\n      tag_16\n      jump(tag_17)\n    tag_16:\n      mload(0x40)\n      dup1\n      dup1\n      0x20\n      add\n      dup3\n      dup2\n      sub\n      dup3\n      mstore\n      dup4\n      dup2\n      dup2\n      mload\n      dup2\n      mstore\n      0x20\n      add\n      swap2\n      pop\n      dup1\n      mload\n      swap1\n      0x20\n      add\n      swap1\n      dup1\n      dup4\n      dup4\n        /* \"--CODEGEN--\":23:24   */\n      0x0\n        /* \"--CODEGEN--\":8:108   */\n    tag_18:\n        /* \"--CODEGEN--\":33:36   */\n      dup4\n        /* \"--CODEGEN--\":30:31   */\n      dup2\n        /* \"--CODEGEN--\":27:37   */\n      lt\n        /* \"--CODEGEN--\":8:108   */\n      iszero\n      tag_19\n      jumpi\n        /* \"--CODEGEN--\":99:100   */\n      dup1\n        /* \"--CODEGEN--\":94:97   */\n      dup3\n        /* \"--CODEGEN--\":90:101   */\n      add\n        /* \"--CODEGEN--\":84:102   */\n      mload\n        /* \"--CODEGEN--\":80:81   */\n      dup2\n        /* \"--CODEGEN--\":75:78   */\n      dup5\n        /* \"--CODEGEN--\":71:82   */\n      add\n        /* \"--CODEGEN--\":64:103   */\n      mstore\n        /* \"--CODEGEN--\":52:54   */\n      0x20\n        /* \"--CODEGEN--\":49:50   */\n      dup2\n        /* \"--CODEGEN--\":45:55   */\n      add\n        /* \"--CODEGEN--\":40:55   */\n      swap1\n      pop\n        /* \"--CODEGEN--\":8:108   */\n      jump(tag_18)\n    tag_19:\n        /* \"--CODEGEN--\":12:26   */\n      pop\n        /* \"shoot/3/未初始化的局部stroage/1.sol\":1439:1499  string public contractName = \"cuit is the best school in CN\" */\n      pop\n      pop\n      pop\n      swap1\n      pop\n      swap1\n      dup2\n      add\n      swap1\n      0x1f\n      and\n      dup1\n      iszero\n      tag_21\n      jumpi\n      dup1\n      dup3\n      sub\n      dup1\n      mload\n      0x1\n      dup4\n      0x20\n      sub\n      0x100\n      exp\n      sub\n      not\n      and\n      dup2\n      mstore\n      0x20\n      add\n      swap2\n      pop\n    tag_21:\n      pop\n      swap3\n      pop\n      pop\n      pop\n      mload(0x40)\n      dup1\n      swap2\n      sub\n      swap1\n      return\n        /* \"shoot/3/未初始化的局部stroage/1.sol\":1824:2315  function borrow(string memory _name,uint256 _debt)public payable{\r... */\n    tag_5:\n      tag_22\n      0x4\n      dup1\n      calldatasize\n      sub\n      dup2\n      add\n      swap1\n      dup1\n      dup1\n      calldataload\n      swap1\n      0x20\n      add\n      swap1\n      dup3\n      add\n      dup1\n      calldataload\n      swap1\n      0x20\n      add\n      swap1\n      dup1\n      dup1\n      0x1f\n      add\n      0x20\n      dup1\n      swap2\n      div\n      mul\n      0x20\n      add\n      mload(0x40)\n      swap1\n      dup2\n      add\n      0x40\n      mstore\n      dup1\n      swap4\n      swap3\n      swap2\n      swap1\n      dup2\n      dup2\n      mstore\n      0x20\n      add\n      dup4\n      dup4\n      dup1\n      dup3\n      dup5\n      calldatacopy\n      dup3\n      add\n      swap2\n      pop\n      pop\n      pop\n      pop\n      pop\n      pop\n      swap2\n      swap3\n      swap2\n      swap3\n      swap1\n      dup1\n      calldataload\n      swap1\n      0x20\n      add\n      swap1\n      swap3\n      swap2\n      swap1\n      pop\n      pop\n      pop\n      jump(tag_23)\n    tag_22:\n      stop\n        /* \"shoot/3/未初始化的局部stroage/1.sol\":1600:1816  function init()public payable{\r... */\n    tag_6:\n      tag_24\n      jump(tag_25)\n    tag_24:\n      stop\n        /* \"shoot/3/未初始化的局部stroage/1.sol\":1549:1569  uint256 public score */\n    tag_7:\n      callvalue\n        /* \"--CODEGEN--\":8:17   */\n      dup1\n        /* \"--CODEGEN--\":5:7   */\n      iszero\n      tag_26\n      jumpi\n        /* \"--CODEGEN--\":30:31   */\n      0x0\n        /* \"--CODEGEN--\":27:28   */\n      dup1\n        /* \"--CODEGEN--\":20:32   */\n      revert\n        /* \"--CODEGEN--\":5:7   */\n    tag_26:\n        /* \"shoot/3/未初始化的局部stroage/1.sol\":1549:1569  uint256 public score */\n      pop\n      tag_27\n      jump(tag_28)\n    tag_27:\n      mload(0x40)\n      dup1\n      dup3\n      dup2\n      mstore\n      0x20\n      add\n      swap2\n      pop\n      pop\n      mload(0x40)\n      dup1\n      swap2\n      sub\n      swap1\n      return\n        /* \"shoot/3/未初始化的局部stroage/1.sol\":2323:2774  function isCompleted()public{\r... */\n    tag_8:\n      callvalue\n        /* \"--CODEGEN--\":8:17   */\n      dup1\n        /* \"--CODEGEN--\":5:7   */\n      iszero\n      tag_29\n      jumpi\n        /* \"--CODEGEN--\":30:31   */\n      0x0\n        /* \"--CODEGEN--\":27:28   */\n      dup1\n        /* \"--CODEGEN--\":20:32   */\n      revert\n        /* \"--CODEGEN--\":5:7   */\n    tag_29:\n        /* \"shoot/3/未初始化的局部stroage/1.sol\":2323:2774  function isCompleted()public{\r... */\n      pop\n      tag_30\n      jump(tag_31)\n    tag_30:\n      stop\n        /* \"shoot/3/未初始化的局部stroage/1.sol\":1354:1377  uint256[] public events */\n    tag_11:\n      0x0\n      dup2\n      dup2\n      sload\n      dup2\n      lt\n      iszero\n      iszero\n      tag_32\n      jumpi\n      invalid\n    tag_32:\n      swap1\n      0x0\n      mstore\n      keccak256(0x0, 0x20)\n      add\n      0x0\n      swap2\n      pop\n      swap1\n      pop\n      sload\n      dup2\n      jump\t// out\n        /* \"shoot/3/未初始化的局部stroage/1.sol\":1387:1429  mapping(address => uint256) public borrows */\n    tag_14:\n      mstore(0x20, 0x1)\n      dup1\n      0x0\n      mstore\n      keccak256(0x0, 0x40)\n      0x0\n      swap2\n      pop\n      swap1\n      pop\n      sload\n      dup2\n      jump\t// out\n        /* \"shoot/3/未初始化的局部stroage/1.sol\":1439:1499  string public contractName = \"cuit is the best school in CN\" */\n    tag_17:\n      0x2\n      dup1\n      sload\n      0x1\n      dup2\n      0x1\n      and\n      iszero\n      0x100\n      mul\n      sub\n      and\n      0x2\n      swap1\n      div\n      dup1\n      0x1f\n      add\n      0x20\n      dup1\n      swap2\n      div\n      mul\n      0x20\n      add\n      mload(0x40)\n      swap1\n      dup2\n      add\n      0x40\n      mstore\n      dup1\n      swap3\n      swap2\n      swap1\n      dup2\n      dup2\n      mstore\n      0x20\n      add\n      dup3\n      dup1\n      sload\n      0x1\n      dup2\n      0x1\n      and\n      iszero\n      0x100\n      mul\n      sub\n      and\n      0x2\n      swap1\n      div\n      dup1\n      iszero\n      tag_34\n      jumpi\n      dup1\n      0x1f\n      lt\n      tag_35\n      jumpi\n      0x100\n      dup1\n      dup4\n      sload\n      div\n      mul\n      dup4\n      mstore\n      swap2\n      0x20\n      add\n      swap2\n      jump(tag_34)\n    tag_35:\n      dup3\n      add\n      swap2\n      swap1\n      0x0\n      mstore\n      keccak256(0x0, 0x20)\n      swap1\n    tag_36:\n      dup2\n      sload\n      dup2\n      mstore\n      swap1\n      0x1\n      add\n      swap1\n      0x20\n      add\n      dup1\n      dup4\n      gt\n      tag_36\n      jumpi\n      dup3\n      swap1\n      sub\n      0x1f\n      and\n      dup3\n      add\n      swap2\n    tag_34:\n      pop\n      pop\n      pop\n      pop\n      pop\n      dup2\n      jump\t// out\n        /* \"shoot/3/未初始化的局部stroage/1.sol\":1824:2315  function borrow(string memory _name,uint256 _debt)public payable{\r... */\n    tag_23:\n        /* \"shoot/3/未初始化的局部stroage/1.sol\":1930:1947  User storage user */\n      0x0\n        /* \"shoot/3/未初始化的局部stroage/1.sol\":1913:1914  0 */\n      dup1\n        /* \"shoot/3/未初始化的局部stroage/1.sol\":1903:1912  msg.value */\n      callvalue\n        /* \"shoot/3/未初始化的局部stroage/1.sol\":1903:1914  msg.value>0 */\n      gt\n        /* \"shoot/3/未初始化的局部stroage/1.sol\":1899:2308  if (msg.value>0){\r... */\n      iszero\n      tag_38\n      jumpi\n        /* \"shoot/3/未初始化的局部stroage/1.sol\":1950:1955  users */\n      0x3\n        /* \"shoot/3/未初始化的局部stroage/1.sol\":1950:1967  users[msg.sender] */\n      0x0\n        /* \"shoot/3/未初始化的局部stroage/1.sol\":1956:1966  msg.sender */\n      caller\n        /* \"shoot/3/未初始化的局部stroage/1.sol\":1950:1967  users[msg.sender] */\n      0xffffffffffffffffffffffffffffffffffffffff\n      and\n      0xffffffffffffffffffffffffffffffffffffffff\n      and\n      dup2\n      mstore\n      0x20\n      add\n      swap1\n      dup2\n      mstore\n      0x20\n      add\n      0x0\n      keccak256\n        /* \"shoot/3/未初始化的局部stroage/1.sol\":1930:1967  User storage user = users[msg.sender] */\n      swap1\n      pop\n        /* \"shoot/3/未初始化的局部stroage/1.sol\":1982:1988  events */\n      0x0\n        /* \"shoot/3/未初始化的局部stroage/1.sol\":1994:1995  1 */\n      0x1\n        /* \"shoot/3/未初始化的局部stroage/1.sol\":1982:1996  events.push(1) */\n      swap1\n      dup1\n        /* \"--CODEGEN--\":39:40   */\n      0x1\n        /* \"--CODEGEN--\":33:36   */\n      dup2\n        /* \"--CODEGEN--\":27:37   */\n      sload\n        /* \"--CODEGEN--\":23:41   */\n      add\n        /* \"--CODEGEN--\":57:67   */\n      dup1\n        /* \"--CODEGEN--\":52:55   */\n      dup3\n        /* \"--CODEGEN--\":45:68   */\n      sstore\n        /* \"--CODEGEN--\":79:89   */\n      dup1\n        /* \"--CODEGEN--\":72:89   */\n      swap2\n      pop\n        /* \"--CODEGEN--\":0:93   */\n      pop\n        /* \"shoot/3/未初始化的局部stroage/1.sol\":1982:1996  events.push(1) */\n      swap1\n      0x1\n      dup3\n      sub\n      swap1\n      0x0\n      mstore\n      keccak256(0x0, 0x20)\n      add\n      0x0\n      swap1\n      swap2\n      swap3\n      swap1\n      swap2\n      swap1\n      swap2\n      pop\n      sstore\n      pop\n        /* \"shoot/3/未初始化的局部stroage/1.sol\":2032:2041  msg.value */\n      callvalue\n        /* \"shoot/3/未初始化的局部stroage/1.sol\":2011:2018  borrows */\n      0x1\n        /* \"shoot/3/未初始化的局部stroage/1.sol\":2011:2030  borrows[msg.sender] */\n      0x0\n        /* \"shoot/3/未初始化的局部stroage/1.sol\":2019:2029  msg.sender */\n      caller\n        /* \"shoot/3/未初始化的局部stroage/1.sol\":2011:2030  borrows[msg.sender] */\n      0xffffffffffffffffffffffffffffffffffffffff\n      and\n      0xffffffffffffffffffffffffffffffffffffffff\n      and\n      dup2\n      mstore\n      0x20\n      add\n      swap1\n      dup2\n      mstore\n      0x20\n      add\n      0x0\n      keccak256\n      0x0\n        /* \"shoot/3/未初始化的局部stroage/1.sol\":2011:2041  borrows[msg.sender]+=msg.value */\n      dup3\n      dup3\n      sload\n      add\n      swap3\n      pop\n      pop\n      dup2\n      swap1\n      sstore\n      pop\n        /* \"shoot/3/未初始化的局部stroage/1.sol\":2068:2073  _name */\n      dup3\n        /* \"shoot/3/未初始化的局部stroage/1.sol\":2056:2060  user */\n      dup2\n        /* \"shoot/3/未初始化的局部stroage/1.sol\":2056:2065  user.name */\n      0x0\n      add\n        /* \"shoot/3/未初始化的局部stroage/1.sol\":2056:2073  user.name = _name */\n      swap1\n      dup1\n      mload\n      swap1\n      0x20\n      add\n      swap1\n      tag_40\n      swap3\n      swap2\n      swap1\n      jump\t// in(tag_41)\n    tag_40:\n      pop\n        /* \"shoot/3/未初始化的局部stroage/1.sol\":2113:2122  msg.value */\n      callvalue\n        /* \"shoot/3/未初始化的局部stroage/1.sol\":2088:2092  user */\n      dup2\n        /* \"shoot/3/未初始化的局部stroage/1.sol\":2088:2098  user.debts */\n      0x1\n      add\n        /* \"shoot/3/未初始化的局部stroage/1.sol\":2088:2110  user.debts[msg.sender] */\n      0x0\n        /* \"shoot/3/未初始化的局部stroage/1.sol\":2099:2109  msg.sender */\n      caller\n        /* \"shoot/3/未初始化的局部stroage/1.sol\":2088:2110  user.debts[msg.sender] */\n      0xffffffffffffffffffffffffffffffffffffffff\n      and\n      0xffffffffffffffffffffffffffffffffffffffff\n      and\n      dup2\n      mstore\n      0x20\n      add\n      swap1\n      dup2\n      mstore\n      0x20\n      add\n      0x0\n      keccak256\n        /* \"shoot/3/未初始化的局部stroage/1.sol\":2088:2122  user.debts[msg.sender] = msg.value */\n      dup2\n      swap1\n      sstore\n      pop\n        /* \"shoot/3/未初始化的局部stroage/1.sol\":2137:2141  user */\n      dup1\n        /* \"shoot/3/未初始化的局部stroage/1.sol\":2137:2150  user.balances */\n      0x2\n      add\n        /* \"shoot/3/未初始化的局部stroage/1.sol\":2156:2165  msg.value */\n      callvalue\n        /* \"shoot/3/未初始化的局部stroage/1.sol\":2137:2166  user.balances.push(msg.value) */\n      swap1\n      dup1\n        /* \"--CODEGEN--\":39:40   */\n      0x1\n        /* \"--CODEGEN--\":33:36   */\n      dup2\n        /* \"--CODEGEN--\":27:37   */\n      sload\n        /* \"--CODEGEN--\":23:41   */\n      add\n        /* \"--CODEGEN--\":57:67   */\n      dup1\n        /* \"--CODEGEN--\":52:55   */\n      dup3\n        /* \"--CODEGEN--\":45:68   */\n      sstore\n        /* \"--CODEGEN--\":79:89   */\n      dup1\n        /* \"--CODEGEN--\":72:89   */\n      swap2\n      pop\n        /* \"--CODEGEN--\":0:93   */\n      pop\n        /* \"shoot/3/未初始化的局部stroage/1.sol\":2137:2166  user.balances.push(msg.value) */\n      swap1\n      0x1\n      dup3\n      sub\n      swap1\n      0x0\n      mstore\n      keccak256(0x0, 0x20)\n      add\n      0x0\n      swap1\n      swap2\n      swap3\n      swap1\n      swap2\n      swap1\n      swap2\n      pop\n      sstore\n      pop\n        /* \"shoot/3/未初始化的局部stroage/1.sol\":1899:2308  if (msg.value>0){\r... */\n      jump(tag_43)\n    tag_38:\n        /* \"shoot/3/未初始化的局部stroage/1.sol\":2209:2214  _name */\n      dup3\n        /* \"shoot/3/未初始化的局部stroage/1.sol\":2197:2201  user */\n      dup2\n        /* \"shoot/3/未初始化的局部stroage/1.sol\":2197:2206  user.name */\n      0x0\n      add\n        /* \"shoot/3/未初始化的局部stroage/1.sol\":2197:2214  user.name = _name */\n      swap1\n      dup1\n      mload\n      swap1\n      0x20\n      add\n      swap1\n      tag_44\n      swap3\n      swap2\n      swap1\n      jump\t// in(tag_41)\n    tag_44:\n      pop\n        /* \"shoot/3/未初始化的局部stroage/1.sol\":2255:2260  _debt */\n      dup2\n        /* \"shoot/3/未初始化的局部stroage/1.sol\":2229:2233  user */\n      dup2\n        /* \"shoot/3/未初始化的局部stroage/1.sol\":2229:2239  user.debts */\n      0x1\n      add\n        /* \"shoot/3/未初始化的局部stroage/1.sol\":2229:2254  user.debts[address(this)] */\n      0x0\n        /* \"shoot/3/未初始化的局部stroage/1.sol\":2248:2252  this */\n      address\n        /* \"shoot/3/未初始化的局部stroage/1.sol\":2229:2254  user.debts[address(this)] */\n      0xffffffffffffffffffffffffffffffffffffffff\n      and\n      0xffffffffffffffffffffffffffffffffffffffff\n      and\n      dup2\n      mstore\n      0x20\n      add\n      swap1\n      dup2\n      mstore\n      0x20\n      add\n      0x0\n      keccak256\n        /* \"shoot/3/未初始化的局部stroage/1.sol\":2229:2260  user.debts[address(this)]=_debt */\n      dup2\n      swap1\n      sstore\n      pop\n        /* \"shoot/3/未初始化的局部stroage/1.sol\":2275:2279  user */\n      dup1\n        /* \"shoot/3/未初始化的局部stroage/1.sol\":2275:2288  user.balances */\n      0x2\n      add\n        /* \"shoot/3/未初始化的局部stroage/1.sol\":2294:2295  0 */\n      0x0\n        /* \"shoot/3/未初始化的局部stroage/1.sol\":2275:2296  user.balances.push(0) */\n      swap1\n      dup1\n        /* \"--CODEGEN--\":39:40   */\n      0x1\n        /* \"--CODEGEN--\":33:36   */\n      dup2\n        /* \"--CODEGEN--\":27:37   */\n      sload\n        /* \"--CODEGEN--\":23:41   */\n      add\n        /* \"--CODEGEN--\":57:67   */\n      dup1\n        /* \"--CODEGEN--\":52:55   */\n      dup3\n        /* \"--CODEGEN--\":45:68   */\n      sstore\n        /* \"--CODEGEN--\":79:89   */\n      dup1\n        /* \"--CODEGEN--\":72:89   */\n      swap2\n      pop\n        /* \"--CODEGEN--\":0:93   */\n      pop\n        /* \"shoot/3/未初始化的局部stroage/1.sol\":2275:2296  user.balances.push(0) */\n      swap1\n      0x1\n      dup3\n      sub\n      swap1\n      0x0\n      mstore\n      keccak256(0x0, 0x20)\n      add\n      0x0\n      swap1\n      swap2\n      swap3\n      swap1\n      swap2\n      swap1\n      swap2\n      pop\n      sstore\n      pop\n        /* \"shoot/3/未初始化的局部stroage/1.sol\":1899:2308  if (msg.value>0){\r... */\n    tag_43:\n        /* \"shoot/3/未初始化的局部stroage/1.sol\":1824:2315  function borrow(string memory _name,uint256 _debt)public payable{\r... */\n      pop\n      pop\n      pop\n      jump\t// out\n        /* \"shoot/3/未初始化的局部stroage/1.sol\":1600:1816  function init()public payable{\r... */\n    tag_25:\n        /* \"shoot/3/未初始化的局部stroage/1.sol\":1649:1655  isInit */\n      0x5\n      0x0\n      swap1\n      sload\n      swap1\n      0x100\n      exp\n      swap1\n      div\n      0xff\n      and\n        /* \"shoot/3/未初始化的局部stroage/1.sol\":1648:1655  !isInit */\n      iszero\n        /* \"shoot/3/未初始化的局部stroage/1.sol\":1640:1672  require(!isInit,\"you have init\") */\n      iszero\n      iszero\n      tag_47\n      jumpi\n      mload(0x40)\n      0x8c379a000000000000000000000000000000000000000000000000000000000\n      dup2\n      mstore\n      0x4\n      add\n      dup1\n      dup1\n      0x20\n      add\n      dup3\n      dup2\n      sub\n      dup3\n      mstore\n      0xd\n      dup2\n      mstore\n      0x20\n      add\n      dup1\n      0x796f75206861766520696e697400000000000000000000000000000000000000\n      dup2\n      mstore\n      pop\n      0x20\n      add\n      swap2\n      pop\n      pop\n      mload(0x40)\n      dup1\n      swap2\n      sub\n      swap1\n      revert\n    tag_47:\n        /* \"shoot/3/未初始化的局部stroage/1.sol\":1702:1713  0.001 ether */\n      0x38d7ea4c68000\n        /* \"shoot/3/未初始化的局部stroage/1.sol\":1691:1700  msg.value */\n      callvalue\n        /* \"shoot/3/未初始化的局部stroage/1.sol\":1691:1713  msg.value>=0.001 ether */\n      lt\n      iszero\n        /* \"shoot/3/未初始化的局部stroage/1.sol\":1683:1714  require(msg.value>=0.001 ether) */\n      iszero\n      iszero\n      tag_48\n      jumpi\n      0x0\n      dup1\n      revert\n    tag_48:\n        /* \"shoot/3/未初始化的局部stroage/1.sol\":1725:1731  events */\n      0x0\n        /* \"shoot/3/未初始化的局部stroage/1.sol\":1737:1738  1 */\n      0x1\n        /* \"shoot/3/未初始化的局部stroage/1.sol\":1725:1739  events.push(1) */\n      swap1\n      dup1\n        /* \"--CODEGEN--\":39:40   */\n      0x1\n        /* \"--CODEGEN--\":33:36   */\n      dup2\n        /* \"--CODEGEN--\":27:37   */\n      sload\n        /* \"--CODEGEN--\":23:41   */\n      add\n        /* \"--CODEGEN--\":57:67   */\n      dup1\n        /* \"--CODEGEN--\":52:55   */\n      dup3\n        /* \"--CODEGEN--\":45:68   */\n      sstore\n        /* \"--CODEGEN--\":79:89   */\n      dup1\n        /* \"--CODEGEN--\":72:89   */\n      swap2\n      pop\n        /* \"--CODEGEN--\":0:93   */\n      pop\n        /* \"shoot/3/未初始化的局部stroage/1.sol\":1725:1739  events.push(1) */\n      swap1\n      0x1\n      dup3\n      sub\n      swap1\n      0x0\n      mstore\n      keccak256(0x0, 0x20)\n      add\n      0x0\n      swap1\n      swap2\n      swap3\n      swap1\n      swap2\n      swap1\n      swap2\n      pop\n      sstore\n      pop\n        /* \"shoot/3/未初始化的局部stroage/1.sol\":1775:1784  msg.value */\n      callvalue\n        /* \"shoot/3/未初始化的局部stroage/1.sol\":1750:1757  borrows */\n      0x1\n        /* \"shoot/3/未初始化的局部stroage/1.sol\":1750:1772  borrows[address(this)] */\n      0x0\n        /* \"shoot/3/未初始化的局部stroage/1.sol\":1766:1770  this */\n      address\n        /* \"shoot/3/未初始化的局部stroage/1.sol\":1750:1772  borrows[address(this)] */\n      0xffffffffffffffffffffffffffffffffffffffff\n      and\n      0xffffffffffffffffffffffffffffffffffffffff\n      and\n      dup2\n      mstore\n      0x20\n      add\n      swap1\n      dup2\n      mstore\n      0x20\n      add\n      0x0\n      keccak256\n        /* \"shoot/3/未初始化的局部stroage/1.sol\":1750:1784  borrows[address(this)] = msg.value */\n      dup2\n      swap1\n      sstore\n      pop\n        /* \"shoot/3/未初始化的局部stroage/1.sol\":1804:1808  true */\n      0x1\n        /* \"shoot/3/未初始化的局部stroage/1.sol\":1795:1801  isInit */\n      0x5\n      0x0\n        /* \"shoot/3/未初始化的局部stroage/1.sol\":1795:1808  isInit = true */\n      0x100\n      exp\n      dup2\n      sload\n      dup2\n      0xff\n      mul\n      not\n      and\n      swap1\n      dup4\n      iszero\n      iszero\n      mul\n      or\n      swap1\n      sstore\n      pop\n        /* \"shoot/3/未初始化的局部stroage/1.sol\":1600:1816  function init()public payable{\r... */\n      jump\t// out\n        /* \"shoot/3/未初始化的局部stroage/1.sol\":1549:1569  uint256 public score */\n    tag_28:\n      sload(0x4)\n      dup2\n      jump\t// out\n        /* \"shoot/3/未初始化的局部stroage/1.sol\":2323:2774  function isCompleted()public{\r... */\n    tag_31:\n        /* \"shoot/3/未初始化的局部stroage/1.sol\":2408:2421  bytes32 slot2 */\n      0x0\n        /* \"shoot/3/未初始化的局部stroage/1.sol\":2370:2376  isInit */\n      0x5\n      0x0\n      swap1\n      sload\n      swap1\n      0x100\n      exp\n      swap1\n      div\n      0xff\n      and\n        /* \"shoot/3/未初始化的局部stroage/1.sol\":2362:2377  require(isInit) */\n      iszero\n      iszero\n      tag_51\n      jumpi\n      0x0\n      dup1\n      revert\n    tag_51:\n        /* \"shoot/3/未初始化的局部stroage/1.sol\":2395:2396  0 */\n      0x0\n        /* \"shoot/3/未初始化的局部stroage/1.sol\":2388:2393  score */\n      0x4\n        /* \"shoot/3/未初始化的局部stroage/1.sol\":2388:2396  score =0 */\n      dup2\n      swap1\n      sstore\n      pop\n        /* \"shoot/3/未初始化的局部stroage/1.sol\":2468:2469  2 */\n      0x2\n        /* \"shoot/3/未初始化的局部stroage/1.sol\":2462:2470  sload(2) */\n      sload\n        /* \"shoot/3/未初始化的局部stroage/1.sol\":2455:2470  slot2:=sload(2) */\n      swap1\n      pop\n        /* \"shoot/3/未初始化的局部stroage/1.sol\":2504:2514  1000 ether */\n      0x3635c9adc5dea00000\n        /* \"shoot/3/未初始化的局部stroage/1.sol\":2494:2500  events */\n      0x0\n        /* \"shoot/3/未初始化的局部stroage/1.sol\":2501:2502  0 */\n      dup1\n        /* \"shoot/3/未初始化的局部stroage/1.sol\":2494:2503  events[0] */\n      dup2\n      sload\n      dup2\n      lt\n      iszero\n      iszero\n      tag_52\n      jumpi\n      invalid\n    tag_52:\n      swap1\n      0x0\n      mstore\n      keccak256(0x0, 0x20)\n      add\n      sload\n        /* \"shoot/3/未初始化的局部stroage/1.sol\":2494:2514  events[0]>1000 ether */\n      gt\n        /* \"shoot/3/未初始化的局部stroage/1.sol\":2491:2551  if(events[0]>1000 ether){\r... */\n      iszero\n      tag_54\n      jumpi\n        /* \"shoot/3/未初始化的局部stroage/1.sol\":2537:2539  30 */\n      0x1e\n        /* \"shoot/3/未初始化的局部stroage/1.sol\":2530:2535  score */\n      0x4\n      0x0\n        /* \"shoot/3/未初始化的局部stroage/1.sol\":2530:2539  score+=30 */\n      dup3\n      dup3\n      sload\n      add\n      swap3\n      pop\n      pop\n      dup2\n      swap1\n      sstore\n      pop\n        /* \"shoot/3/未初始化的局部stroage/1.sol\":2491:2551  if(events[0]>1000 ether){\r... */\n    tag_54:\n        /* \"shoot/3/未初始化的局部stroage/1.sol\":2588:2589  0 */\n      0x0\n        /* \"shoot/3/未初始化的局部stroage/1.sol\":2564:2571  borrows */\n      0x1\n        /* \"shoot/3/未初始化的局部stroage/1.sol\":2564:2586  borrows[address(this)] */\n      0x0\n        /* \"shoot/3/未初始化的局部stroage/1.sol\":2580:2584  this */\n      address\n        /* \"shoot/3/未初始化的局部stroage/1.sol\":2564:2586  borrows[address(this)] */\n      0xffffffffffffffffffffffffffffffffffffffff\n      and\n      0xffffffffffffffffffffffffffffffffffffffff\n      and\n      dup2\n      mstore\n      0x20\n      add\n      swap1\n      dup2\n      mstore\n      0x20\n      add\n      0x0\n      keccak256\n      sload\n        /* \"shoot/3/未初始化的局部stroage/1.sol\":2564:2589  borrows[address(this)]==0 */\n      eq\n        /* \"shoot/3/未初始化的局部stroage/1.sol\":2561:2626  if(borrows[address(this)]==0){\r... */\n      iszero\n      tag_55\n      jumpi\n        /* \"shoot/3/未初始化的局部stroage/1.sol\":2612:2614  30 */\n      0x1e\n        /* \"shoot/3/未初始化的局部stroage/1.sol\":2605:2610  score */\n      0x4\n      0x0\n        /* \"shoot/3/未初始化的局部stroage/1.sol\":2605:2614  score+=30 */\n      dup3\n      dup3\n      sload\n      add\n      swap3\n      pop\n      pop\n      dup2\n      swap1\n      sstore\n      pop\n        /* \"shoot/3/未初始化的局部stroage/1.sol\":2561:2626  if(borrows[address(this)]==0){\r... */\n    tag_55:\n        /* \"shoot/3/未初始化的局部stroage/1.sol\":2654:2720  0x63756974206973207468652062657374207363686f6f6c20696e20434e00003c */\n      0x63756974206973207468652062657374207363686f6f6c20696e20434e00003c\n        /* \"shoot/3/未初始化的局部stroage/1.sol\":2647:2652  slot2 */\n      dup2\n        /* \"shoot/3/未初始化的局部stroage/1.sol\":2639:2653  uint256(slot2) */\n      0x1\n      swap1\n      div\n        /* \"shoot/3/未初始化的局部stroage/1.sol\":2639:2720  uint256(slot2)>0x63756974206973207468652062657374207363686f6f6c20696e20434e00003c */\n      gt\n        /* \"shoot/3/未初始化的局部stroage/1.sol\":2636:2757  if(uint256(slot2)>0x63756974206973207468652062657374207363686f6f6c20696e20434e00003c){\r... */\n      iszero\n      tag_56\n      jumpi\n        /* \"shoot/3/未初始化的局部stroage/1.sol\":2743:2745  40 */\n      0x28\n        /* \"shoot/3/未初始化的局部stroage/1.sol\":2736:2741  score */\n      0x4\n      0x0\n        /* \"shoot/3/未初始化的局部stroage/1.sol\":2736:2745  score+=40 */\n      dup3\n      dup3\n      sload\n      add\n      swap3\n      pop\n      pop\n      dup2\n      swap1\n      sstore\n      pop\n        /* \"shoot/3/未初始化的局部stroage/1.sol\":2636:2757  if(uint256(slot2)>0x63756974206973207468652062657374207363686f6f6c20696e20434e00003c){\r... */\n    tag_56:\n        /* \"shoot/3/未初始化的局部stroage/1.sol\":2323:2774  function isCompleted()public{\r... */\n      pop\n      jump\t// out\n        /* \"shoot/3/未初始化的局部stroage/1.sol\":1210:2777  contract cooperate{\r... */\n    tag_41:\n      dup3\n      dup1\n      sload\n      0x1\n      dup2\n      0x1\n      and\n      iszero\n      0x100\n      mul\n      sub\n      and\n      0x2\n      swap1\n      div\n      swap1\n      0x0\n      mstore\n      keccak256(0x0, 0x20)\n      swap1\n      0x1f\n      add\n      0x20\n      swap1\n      div\n      dup2\n      add\n      swap3\n      dup3\n      0x1f\n      lt\n      tag_58\n      jumpi\n      dup1\n      mload\n      not(0xff)\n      and\n      dup4\n      dup1\n      add\n      or\n      dup6\n      sstore\n      jump(tag_57)\n    tag_58:\n      dup3\n      dup1\n      add\n      0x1\n      add\n      dup6\n      sstore\n      dup3\n      iszero\n      tag_57\n      jumpi\n      swap2\n      dup3\n      add\n    tag_59:\n      dup3\n      dup2\n      gt\n      iszero\n      tag_60\n      jumpi\n      dup3\n      mload\n      dup3\n      sstore\n      swap2\n      0x20\n      add\n      swap2\n      swap1\n      0x1\n      add\n      swap1\n      jump(tag_59)\n    tag_60:\n    tag_57:\n      pop\n      swap1\n      pop\n      tag_61\n      swap2\n      swap1\n      jump\t// in(tag_62)\n    tag_61:\n      pop\n      swap1\n      jump\t// out\n    tag_62:\n      tag_63\n      swap2\n      swap1\n    tag_64:\n      dup1\n      dup3\n      gt\n      iszero\n      tag_65\n      jumpi\n      0x0\n      dup2\n      0x0\n      swap1\n      sstore\n      pop\n      0x1\n      add\n      jump(tag_64)\n    tag_65:\n      pop\n      swap1\n      jump\n    tag_63:\n      swap1\n      jump\t// out\n\n    auxdata: 0xa165627a7a7230582029bab680e05df4a6020a66fe6145934f0ec112ec0709490f9c0eeaf03aa0ddce0029\n}\n",
				"bytecode": {
					"linkReferences": {},
					"object": "60806040526040805190810160405280601d81526020017f63756974206973207468652062657374207363686f6f6c20696e20434e0000008152506002908051906020019061004f929190610062565b5034801561005c57600080fd5b50610107565b828054600181600116156101000203166002900490600052602060002090601f016020900481019282601f106100a357805160ff19168380011785556100d1565b828001600101855582156100d1579182015b828111156100d05782518255916020019190600101906100b5565b5b5090506100de91906100e2565b5090565b61010491905b808211156101005760008160009055506001016100e8565b5090565b90565b610827806101166000396000f300608060405260043610610083576000357c0100000000000000000000000000000000000000000000000000000000900463ffffffff1680630b7914301461008857806354a5706f146100c957806375d0c0dc14610120578063b0afe8bf146101b0578063e1c7392a14610216578063efedc66914610220578063fa391c641461024b575b600080fd5b34801561009457600080fd5b506100b360048036038101908080359060200190929190505050610262565b6040518082815260200191505060405180910390f35b3480156100d557600080fd5b5061010a600480360381019080803573ffffffffffffffffffffffffffffffffffffffff169060200190929190505050610285565b6040518082815260200191505060405180910390f35b34801561012c57600080fd5b5061013561029d565b6040518080602001828103825283818151815260200191508051906020019080838360005b8381101561017557808201518184015260208101905061015a565b50505050905090810190601f1680156101a25780820380516001836020036101000a031916815260200191505b509250505060405180910390f35b610214600480360381019080803590602001908201803590602001908080601f01602080910402602001604051908101604052809392919081815260200183838082843782019150505050505091929192908035906020019092919050505061033b565b005b61021e610526565b005b34801561022c57600080fd5b5061023561064f565b6040518082815260200191505060405180910390f35b34801561025757600080fd5b50610260610655565b005b60008181548110151561027157fe5b906000526020600020016000915090505481565b60016020528060005260406000206000915090505481565b60028054600181600116156101000203166002900480601f0160208091040260200160405190810160405280929190818152602001828054600181600116156101000203166002900480156103335780601f1061030857610100808354040283529160200191610333565b820191906000526020600020905b81548152906001019060200180831161031657829003601f168201915b505050505081565b60008034111561049257600360003373ffffffffffffffffffffffffffffffffffffffff1673ffffffffffffffffffffffffffffffffffffffff168152602001908152602001600020905060006001908060018154018082558091505090600182039060005260206000200160009091929091909150555034600160003373ffffffffffffffffffffffffffffffffffffffff1673ffffffffffffffffffffffffffffffffffffffff1681526020019081526020016000206000828254019250508190555082816000019080519060200190610418929190610756565b50348160010160003373ffffffffffffffffffffffffffffffffffffffff1673ffffffffffffffffffffffffffffffffffffffff1681526020019081526020016000208190555080600201349080600181540180825580915050906001820390600052602060002001600090919290919091505550610521565b828160000190805190602001906104aa929190610756565b50818160010160003073ffffffffffffffffffffffffffffffffffffffff1673ffffffffffffffffffffffffffffffffffffffff1681526020019081526020016000208190555080600201600090806001815401808255809150509060018203906000526020600020016000909192909190915055505b505050565b600560009054906101000a900460ff161515156105ab576040517f08c379a000000000000000000000000000000000000000000000000000000000815260040180806020018281038252600d8152602001807f796f75206861766520696e69740000000000000000000000000000000000000081525060200191505060405180910390fd5b66038d7ea4c6800034101515156105c157600080fd5b60006001908060018154018082558091505090600182039060005260206000200160009091929091909150555034600160003073ffffffffffffffffffffffffffffffffffffffff1673ffffffffffffffffffffffffffffffffffffffff168152602001908152602001600020819055506001600560006101000a81548160ff021916908315150217905550565b60045481565b6000600560009054906101000a900460ff16151561067257600080fd5b60006004819055506002549050683635c9adc5dea0000060008081548110151561069857fe5b906000526020600020015411156106bb57601e6004600082825401925050819055505b6000600160003073ffffffffffffffffffffffffffffffffffffffff1673ffffffffffffffffffffffffffffffffffffffff16815260200190815260200160002054141561071557601e6004600082825401925050819055505b7f63756974206973207468652062657374207363686f6f6c20696e20434e00003c816001900411156107535760286004600082825401925050819055505b50565b828054600181600116156101000203166002900490600052602060002090601f016020900481019282601f1061079757805160ff19168380011785556107c5565b828001600101855582156107c5579182015b828111156107c45782518255916020019190600101906107a9565b5b5090506107d291906107d6565b5090565b6107f891905b808211156107f45760008160009055506001016107dc565b5090565b905600a165627a7a7230582029bab680e05df4a6020a66fe6145934f0ec112ec0709490f9c0eeaf03aa0ddce0029",
					"opcodes": "PUSH1 0x80 PUSH1 0x40 MSTORE PUSH1 0x40 DUP1 MLOAD SWAP1 DUP2 ADD PUSH1 0x40 MSTORE DUP1 PUSH1 0x1D DUP2 MSTORE PUSH1 0x20 ADD PUSH32 0x63756974206973207468652062657374207363686F6F6C20696E20434E000000 DUP2 MSTORE POP PUSH1 0x2 SWAP1 DUP1 MLOAD SWAP1 PUSH1 0x20 ADD SWAP1 PUSH2 0x4F SWAP3 SWAP2 SWAP1 PUSH2 0x62 JUMP JUMPDEST POP CALLVALUE DUP1 ISZERO PUSH2 0x5C JUMPI PUSH1 0x0 DUP1 REVERT JUMPDEST POP PUSH2 0x107 JUMP JUMPDEST DUP3 DUP1 SLOAD PUSH1 0x1 DUP2 PUSH1 0x1 AND ISZERO PUSH2 0x100 MUL SUB AND PUSH1 0x2 SWAP1 DIV SWAP1 PUSH1 0x0 MSTORE PUSH1 0x20 PUSH1 0x0 KECCAK256 SWAP1 PUSH1 0x1F ADD PUSH1 0x20 SWAP1 DIV DUP2 ADD SWAP3 DUP3 PUSH1 0x1F LT PUSH2 0xA3 JUMPI DUP1 MLOAD PUSH1 0xFF NOT AND DUP4 DUP1 ADD OR DUP6 SSTORE PUSH2 0xD1 JUMP JUMPDEST DUP3 DUP1 ADD PUSH1 0x1 ADD DUP6 SSTORE DUP3 ISZERO PUSH2 0xD1 JUMPI SWAP2 DUP3 ADD JUMPDEST DUP3 DUP2 GT ISZERO PUSH2 0xD0 JUMPI DUP3 MLOAD DUP3 SSTORE SWAP2 PUSH1 0x20 ADD SWAP2 SWAP1 PUSH1 0x1 ADD SWAP1 PUSH2 0xB5 JUMP JUMPDEST JUMPDEST POP SWAP1 POP PUSH2 0xDE SWAP2 SWAP1 PUSH2 0xE2 JUMP JUMPDEST POP SWAP1 JUMP JUMPDEST PUSH2 0x104 SWAP2 SWAP1 JUMPDEST DUP1 DUP3 GT ISZERO PUSH2 0x100 JUMPI PUSH1 0x0 DUP2 PUSH1 0x0 SWAP1 SSTORE POP PUSH1 0x1 ADD PUSH2 0xE8 JUMP JUMPDEST POP SWAP1 JUMP JUMPDEST SWAP1 JUMP JUMPDEST PUSH2 0x827 DUP1 PUSH2 0x116 PUSH1 0x0 CODECOPY PUSH1 0x0 RETURN STOP PUSH1 0x80 PUSH1 0x40 MSTORE PUSH1 0x4 CALLDATASIZE LT PUSH2 0x83 JUMPI PUSH1 0x0 CALLDATALOAD PUSH29 0x100000000000000000000000000000000000000000000000000000000 SWAP1 DIV PUSH4 0xFFFFFFFF AND DUP1 PUSH4 0xB791430 EQ PUSH2 0x88 JUMPI DUP1 PUSH4 0x54A5706F EQ PUSH2 0xC9 JUMPI DUP1 PUSH4 0x75D0C0DC EQ PUSH2 0x120 JUMPI DUP1 PUSH4 0xB0AFE8BF EQ PUSH2 0x1B0 JUMPI DUP1 PUSH4 0xE1C7392A EQ PUSH2 0x216 JUMPI DUP1 PUSH4 0xEFEDC669 EQ PUSH2 0x220 JUMPI DUP1 PUSH4 0xFA391C64 EQ PUSH2 0x24B JUMPI JUMPDEST PUSH1 0x0 DUP1 REVERT JUMPDEST CALLVALUE DUP1 ISZERO PUSH2 0x94 JUMPI PUSH1 0x0 DUP1 REVERT JUMPDEST POP PUSH2 0xB3 PUSH1 0x4 DUP1 CALLDATASIZE SUB DUP2 ADD SWAP1 DUP1 DUP1 CALLDATALOAD SWAP1 PUSH1 0x20 ADD SWAP1 SWAP3 SWAP2 SWAP1 POP POP POP PUSH2 0x262 JUMP JUMPDEST PUSH1 0x40 MLOAD DUP1 DUP3 DUP2 MSTORE PUSH1 0x20 ADD SWAP2 POP POP PUSH1 0x40 MLOAD DUP1 SWAP2 SUB SWAP1 RETURN JUMPDEST CALLVALUE DUP1 ISZERO PUSH2 0xD5 JUMPI PUSH1 0x0 DUP1 REVERT JUMPDEST POP PUSH2 0x10A PUSH1 0x4 DUP1 CALLDATASIZE SUB DUP2 ADD SWAP1 DUP1 DUP1 CALLDATALOAD PUSH20 0xFFFFFFFFFFFFFFFFFFFFFFFFFFFFFFFFFFFFFFFF AND SWAP1 PUSH1 0x20 ADD SWAP1 SWAP3 SWAP2 SWAP1 POP POP POP PUSH2 0x285 JUMP JUMPDEST PUSH1 0x40 MLOAD DUP1 DUP3 DUP2 MSTORE PUSH1 0x20 ADD SWAP2 POP POP PUSH1 0x40 MLOAD DUP1 SWAP2 SUB SWAP1 RETURN JUMPDEST CALLVALUE DUP1 ISZERO PUSH2 0x12C JUMPI PUSH1 0x0 DUP1 REVERT JUMPDEST POP PUSH2 0x135 PUSH2 0x29D JUMP JUMPDEST PUSH1 0x40 MLOAD DUP1 DUP1 PUSH1 0x20 ADD DUP3 DUP2 SUB DUP3 MSTORE DUP4 DUP2 DUP2 MLOAD DUP2 MSTORE PUSH1 0x20 ADD SWAP2 POP DUP1 MLOAD SWAP1 PUSH1 0x20 ADD SWAP1 DUP1 DUP4 DUP4 PUSH1 0x0 JUMPDEST DUP4 DUP2 LT ISZERO PUSH2 0x175 JUMPI DUP1 DUP3 ADD MLOAD DUP2 DUP5 ADD MSTORE PUSH1 0x20 DUP2 ADD SWAP1 POP PUSH2 0x15A JUMP JUMPDEST POP POP POP POP SWAP1 POP SWAP1 DUP2 ADD SWAP1 PUSH1 0x1F AND DUP1 ISZERO PUSH2 0x1A2 JUMPI DUP1 DUP3 SUB DUP1 MLOAD PUSH1 0x1 DUP4 PUSH1 0x20 SUB PUSH2 0x100 EXP SUB NOT AND DUP2 MSTORE PUSH1 0x20 ADD SWAP2 POP JUMPDEST POP SWAP3 POP POP POP PUSH1 0x40 MLOAD DUP1 SWAP2 SUB SWAP1 RETURN JUMPDEST PUSH2 0x214 PUSH1 0x4 DUP1 CALLDATASIZE SUB DUP2 ADD SWAP1 DUP1 DUP1 CALLDATALOAD SWAP1 PUSH1 0x20 ADD SWAP1 DUP3 ADD DUP1 CALLDATALOAD SWAP1 PUSH1 0x20 ADD SWAP1 DUP1 DUP1 PUSH1 0x1F ADD PUSH1 0x20 DUP1 SWAP2 DIV MUL PUSH1 0x20 ADD PUSH1 0x40 MLOAD SWAP1 DUP2 ADD PUSH1 0x40 MSTORE DUP1 SWAP4 SWAP3 SWAP2 SWAP1 DUP2 DUP2 MSTORE PUSH1 0x20 ADD DUP4 DUP4 DUP1 DUP3 DUP5 CALLDATACOPY DUP3 ADD SWAP2 POP POP POP POP POP POP SWAP2 SWAP3 SWAP2 SWAP3 SWAP1 DUP1 CALLDATALOAD SWAP1 PUSH1 0x20 ADD SWAP1 SWAP3 SWAP2 SWAP1 POP POP POP PUSH2 0x33B JUMP JUMPDEST STOP JUMPDEST PUSH2 0x21E PUSH2 0x526 JUMP JUMPDEST STOP JUMPDEST CALLVALUE DUP1 ISZERO PUSH2 0x22C JUMPI PUSH1 0x0 DUP1 REVERT JUMPDEST POP PUSH2 0x235 PUSH2 0x64F JUMP JUMPDEST PUSH1 0x40 MLOAD DUP1 DUP3 DUP2 MSTORE PUSH1 0x20 ADD SWAP2 POP POP PUSH1 0x40 MLOAD DUP1 SWAP2 SUB SWAP1 RETURN JUMPDEST CALLVALUE DUP1 ISZERO PUSH2 0x257 JUMPI PUSH1 0x0 DUP1 REVERT JUMPDEST POP PUSH2 0x260 PUSH2 0x655 JUMP JUMPDEST STOP JUMPDEST PUSH1 0x0 DUP2 DUP2 SLOAD DUP2 LT ISZERO ISZERO PUSH2 0x271 JUMPI INVALID JUMPDEST SWAP1 PUSH1 0x0 MSTORE PUSH1 0x20 PUSH1 0x0 KECCAK256 ADD PUSH1 0x0 SWAP2 POP SWAP1 POP SLOAD DUP2 JUMP JUMPDEST PUSH1 0x1 PUSH1 0x20 MSTORE DUP1 PUSH1 0x0 MSTORE PUSH1 0x40 PUSH1 0x0 KECCAK256 PUSH1 0x0 SWAP2 POP SWAP1 POP SLOAD DUP2 JUMP JUMPDEST PUSH1 0x2 DUP1 SLOAD PUSH1 0x1 DUP2 PUSH1 0x1 AND ISZERO PUSH2 0x100 MUL SUB AND PUSH1 0x2 SWAP1 DIV DUP1 PUSH1 0x1F ADD PUSH1 0x20 DUP1 SWAP2 DIV MUL PUSH1 0x20 ADD PUSH1 0x40 MLOAD SWAP1 DUP2 ADD PUSH1 0x40 MSTORE DUP1 SWAP3 SWAP2 SWAP1 DUP2 DUP2 MSTORE PUSH1 0x20 ADD DUP3 DUP1 SLOAD PUSH1 0x1 DUP2 PUSH1 0x1 AND ISZERO PUSH2 0x100 MUL SUB AND PUSH1 0x2 SWAP1 DIV DUP1 ISZERO PUSH2 0x333 JUMPI DUP1 PUSH1 0x1F LT PUSH2 0x308 JUMPI PUSH2 0x100 DUP1 DUP4 SLOAD DIV MUL DUP4 MSTORE SWAP2 PUSH1 0x20 ADD SWAP2 PUSH2 0x333 JUMP JUMPDEST DUP3 ADD SWAP2 SWAP1 PUSH1 0x0 MSTORE PUSH1 0x20 PUSH1 0x0 KECCAK256 SWAP1 JUMPDEST DUP2 SLOAD DUP2 MSTORE SWAP1 PUSH1 0x1 ADD SWAP1 PUSH1 0x20 ADD DUP1 DUP4 GT PUSH2 0x316 JUMPI DUP3 SWAP1 SUB PUSH1 0x1F AND DUP3 ADD SWAP2 JUMPDEST POP POP POP POP POP DUP2 JUMP JUMPDEST PUSH1 0x0 DUP1 CALLVALUE GT ISZERO PUSH2 0x492 JUMPI PUSH1 0x3 PUSH1 0x0 CALLER PUSH20 0xFFFFFFFFFFFFFFFFFFFFFFFFFFFFFFFFFFFFFFFF AND PUSH20 0xFFFFFFFFFFFFFFFFFFFFFFFFFFFFFFFFFFFFFFFF AND DUP2 MSTORE PUSH1 0x20 ADD SWAP1 DUP2 MSTORE PUSH1 0x20 ADD PUSH1 0x0 KECCAK256 SWAP1 POP PUSH1 0x0 PUSH1 0x1 SWAP1 DUP1 PUSH1 0x1 DUP2 SLOAD ADD DUP1 DUP3 SSTORE DUP1 SWAP2 POP POP SWAP1 PUSH1 0x1 DUP3 SUB SWAP1 PUSH1 0x0 MSTORE PUSH1 0x20 PUSH1 0x0 KECCAK256 ADD PUSH1 0x0 SWAP1 SWAP2 SWAP3 SWAP1 SWAP2 SWAP1 SWAP2 POP SSTORE POP CALLVALUE PUSH1 0x1 PUSH1 0x0 CALLER PUSH20 0xFFFFFFFFFFFFFFFFFFFFFFFFFFFFFFFFFFFFFFFF AND PUSH20 0xFFFFFFFFFFFFFFFFFFFFFFFFFFFFFFFFFFFFFFFF AND DUP2 MSTORE PUSH1 0x20 ADD SWAP1 DUP2 MSTORE PUSH1 0x20 ADD PUSH1 0x0 KECCAK256 PUSH1 0x0 DUP3 DUP3 SLOAD ADD SWAP3 POP POP DUP2 SWAP1 SSTORE POP DUP3 DUP2 PUSH1 0x0 ADD SWAP1 DUP1 MLOAD SWAP1 PUSH1 0x20 ADD SWAP1 PUSH2 0x418 SWAP3 SWAP2 SWAP1 PUSH2 0x756 JUMP JUMPDEST POP CALLVALUE DUP2 PUSH1 0x1 ADD PUSH1 0x0 CALLER PUSH20 0xFFFFFFFFFFFFFFFFFFFFFFFFFFFFFFFFFFFFFFFF AND PUSH20 0xFFFFFFFFFFFFFFFFFFFFFFFFFFFFFFFFFFFFFFFF AND DUP2 MSTORE PUSH1 0x20 ADD SWAP1 DUP2 MSTORE PUSH1 0x20 ADD PUSH1 0x0 KECCAK256 DUP2 SWAP1 SSTORE POP DUP1 PUSH1 0x2 ADD CALLVALUE SWAP1 DUP1 PUSH1 0x1 DUP2 SLOAD ADD DUP1 DUP3 SSTORE DUP1 SWAP2 POP POP SWAP1 PUSH1 0x1 DUP3 SUB SWAP1 PUSH1 0x0 MSTORE PUSH1 0x20 PUSH1 0x0 KECCAK256 ADD PUSH1 0x0 SWAP1 SWAP2 SWAP3 SWAP1 SWAP2 SWAP1 SWAP2 POP SSTORE POP PUSH2 0x521 JUMP JUMPDEST DUP3 DUP2 PUSH1 0x0 ADD SWAP1 DUP1 MLOAD SWAP1 PUSH1 0x20 ADD SWAP1 PUSH2 0x4AA SWAP3 SWAP2 SWAP1 PUSH2 0x756 JUMP JUMPDEST POP DUP2 DUP2 PUSH1 0x1 ADD PUSH1 0x0 ADDRESS PUSH20 0xFFFFFFFFFFFFFFFFFFFFFFFFFFFFFFFFFFFFFFFF AND PUSH20 0xFFFFFFFFFFFFFFFFFFFFFFFFFFFFFFFFFFFFFFFF AND DUP2 MSTORE PUSH1 0x20 ADD SWAP1 DUP2 MSTORE PUSH1 0x20 ADD PUSH1 0x0 KECCAK256 DUP2 SWAP1 SSTORE POP DUP1 PUSH1 0x2 ADD PUSH1 0x0 SWAP1 DUP1 PUSH1 0x1 DUP2 SLOAD ADD DUP1 DUP3 SSTORE DUP1 SWAP2 POP POP SWAP1 PUSH1 0x1 DUP3 SUB SWAP1 PUSH1 0x0 MSTORE PUSH1 0x20 PUSH1 0x0 KECCAK256 ADD PUSH1 0x0 SWAP1 SWAP2 SWAP3 SWAP1 SWAP2 SWAP1 SWAP2 POP SSTORE POP JUMPDEST POP POP POP JUMP JUMPDEST PUSH1 0x5 PUSH1 0x0 SWAP1 SLOAD SWAP1 PUSH2 0x100 EXP SWAP1 DIV PUSH1 0xFF AND ISZERO ISZERO ISZERO PUSH2 0x5AB JUMPI PUSH1 0x40 MLOAD PUSH32 0x8C379A000000000000000000000000000000000000000000000000000000000 DUP2 MSTORE PUSH1 0x4 ADD DUP1 DUP1 PUSH1 0x20 ADD DUP3 DUP2 SUB DUP3 MSTORE PUSH1 0xD DUP2 MSTORE PUSH1 0x20 ADD DUP1 PUSH32 0x796F75206861766520696E697400000000000000000000000000000000000000 DUP2 MSTORE POP PUSH1 0x20 ADD SWAP2 POP POP PUSH1 0x40 MLOAD DUP1 SWAP2 SUB SWAP1 REVERT JUMPDEST PUSH7 0x38D7EA4C68000 CALLVALUE LT ISZERO ISZERO ISZERO PUSH2 0x5C1 JUMPI PUSH1 0x0 DUP1 REVERT JUMPDEST PUSH1 0x0 PUSH1 0x1 SWAP1 DUP1 PUSH1 0x1 DUP2 SLOAD ADD DUP1 DUP3 SSTORE DUP1 SWAP2 POP POP SWAP1 PUSH1 0x1 DUP3 SUB SWAP1 PUSH1 0x0 MSTORE PUSH1 0x20 PUSH1 0x0 KECCAK256 ADD PUSH1 0x0 SWAP1 SWAP2 SWAP3 SWAP1 SWAP2 SWAP1 SWAP2 POP SSTORE POP CALLVALUE PUSH1 0x1 PUSH1 0x0 ADDRESS PUSH20 0xFFFFFFFFFFFFFFFFFFFFFFFFFFFFFFFFFFFFFFFF AND PUSH20 0xFFFFFFFFFFFFFFFFFFFFFFFFFFFFFFFFFFFFFFFF AND DUP2 MSTORE PUSH1 0x20 ADD SWAP1 DUP2 MSTORE PUSH1 0x20 ADD PUSH1 0x0 KECCAK256 DUP2 SWAP1 SSTORE POP PUSH1 0x1 PUSH1 0x5 PUSH1 0x0 PUSH2 0x100 EXP DUP2 SLOAD DUP2 PUSH1 0xFF MUL NOT AND SWAP1 DUP4 ISZERO ISZERO MUL OR SWAP1 SSTORE POP JUMP JUMPDEST PUSH1 0x4 SLOAD DUP2 JUMP JUMPDEST PUSH1 0x0 PUSH1 0x5 PUSH1 0x0 SWAP1 SLOAD SWAP1 PUSH2 0x100 EXP SWAP1 DIV PUSH1 0xFF AND ISZERO ISZERO PUSH2 0x672 JUMPI PUSH1 0x0 DUP1 REVERT JUMPDEST PUSH1 0x0 PUSH1 0x4 DUP2 SWAP1 SSTORE POP PUSH1 0x2 SLOAD SWAP1 POP PUSH9 0x3635C9ADC5DEA00000 PUSH1 0x0 DUP1 DUP2 SLOAD DUP2 LT ISZERO ISZERO PUSH2 0x698 JUMPI INVALID JUMPDEST SWAP1 PUSH1 0x0 MSTORE PUSH1 0x20 PUSH1 0x0 KECCAK256 ADD SLOAD GT ISZERO PUSH2 0x6BB JUMPI PUSH1 0x1E PUSH1 0x4 PUSH1 0x0 DUP3 DUP3 SLOAD ADD SWAP3 POP POP DUP2 SWAP1 SSTORE POP JUMPDEST PUSH1 0x0 PUSH1 0x1 PUSH1 0x0 ADDRESS PUSH20 0xFFFFFFFFFFFFFFFFFFFFFFFFFFFFFFFFFFFFFFFF AND PUSH20 0xFFFFFFFFFFFFFFFFFFFFFFFFFFFFFFFFFFFFFFFF AND DUP2 MSTORE PUSH1 0x20 ADD SWAP1 DUP2 MSTORE PUSH1 0x20 ADD PUSH1 0x0 KECCAK256 SLOAD EQ ISZERO PUSH2 0x715 JUMPI PUSH1 0x1E PUSH1 0x4 PUSH1 0x0 DUP3 DUP3 SLOAD ADD SWAP3 POP POP DUP2 SWAP1 SSTORE POP JUMPDEST PUSH32 0x63756974206973207468652062657374207363686F6F6C20696E20434E00003C DUP2 PUSH1 0x1 SWAP1 DIV GT ISZERO PUSH2 0x753 JUMPI PUSH1 0x28 PUSH1 0x4 PUSH1 0x0 DUP3 DUP3 SLOAD ADD SWAP3 POP POP DUP2 SWAP1 SSTORE POP JUMPDEST POP JUMP JUMPDEST DUP3 DUP1 SLOAD PUSH1 0x1 DUP2 PUSH1 0x1 AND ISZERO PUSH2 0x100 MUL SUB AND PUSH1 0x2 SWAP1 DIV SWAP1 PUSH1 0x0 MSTORE PUSH1 0x20 PUSH1 0x0 KECCAK256 SWAP1 PUSH1 0x1F ADD PUSH1 0x20 SWAP1 DIV DUP2 ADD SWAP3 DUP3 PUSH1 0x1F LT PUSH2 0x797 JUMPI DUP1 MLOAD PUSH1 0xFF NOT AND DUP4 DUP1 ADD OR DUP6 SSTORE PUSH2 0x7C5 JUMP JUMPDEST DUP3 DUP1 ADD PUSH1 0x1 ADD DUP6 SSTORE DUP3 ISZERO PUSH2 0x7C5 JUMPI SWAP2 DUP3 ADD JUMPDEST DUP3 DUP2 GT ISZERO PUSH2 0x7C4 JUMPI DUP3 MLOAD DUP3 SSTORE SWAP2 PUSH1 0x20 ADD SWAP2 SWAP1 PUSH1 0x1 ADD SWAP1 PUSH2 0x7A9 JUMP JUMPDEST JUMPDEST POP SWAP1 POP PUSH2 0x7D2 SWAP2 SWAP1 PUSH2 0x7D6 JUMP JUMPDEST POP SWAP1 JUMP JUMPDEST PUSH2 0x7F8 SWAP2 SWAP1 JUMPDEST DUP1 DUP3 GT ISZERO PUSH2 0x7F4 JUMPI PUSH1 0x0 DUP2 PUSH1 0x0 SWAP1 SSTORE POP PUSH1 0x1 ADD PUSH2 0x7DC JUMP JUMPDEST POP SWAP1 JUMP JUMPDEST SWAP1 JUMP STOP LOG1 PUSH6 0x627A7A723058 KECCAK256 0x29 0xba 0xb6 DUP1 0xe0 0x5d DELEGATECALL 0xa6 MUL EXP PUSH7 0xFE6145934F0EC1 SLT 0xec SMOD MULMOD 0x49 0xf SWAP13 0xe 0xea CREATE GASPRICE LOG0 0xdd 0xce STOP 0x29 "
				},
				"gasEstimates": {
					"creation": {
						"codeDepositCost": "417400",
						"executionCost": "infinite",
						"totalCost": "infinite"
					},
					"external": {
						"borrow(string,uint256)": "infinite",
						"borrows(address)": "554",
						"contractName()": "infinite",
						"events(uint256)": "749",
						"init()": "81190",
						"isCompleted()": "37314",
						"score()": "504"
					}
				},
				"methodIdentifiers": {
					"borrow(string,uint256)": "b0afe8bf",
					"borrows(address)": "54a5706f",
					"contractName()": "75d0c0dc",
					"events(uint256)": "0b791430",
					"init()": "e1c7392a",
					"isCompleted()": "fa391c64",
					"score()": "efedc669"
				}
			},
			"userdoc": {
				"methods": {}
			}
		}
	}
}