{
	"SecLessonPoc-main/contracts/reentrancy/check/Withdraw.sol": {
		"Reentrance": {
			"abi": [
				{
					"constant": false,
					"inputs": [
						{
							"name": "amount",
							"type": "uint256"
						}
					],
					"name": "withdraw",
					"outputs": [],
					"payable": true,
					"stateMutability": "payable",
					"type": "function"
				},
				{
					"constant": true,
					"inputs": [],
					"name": "wallet",
					"outputs": [
						{
							"name": "result",
							"type": "uint256"
						}
					],
					"payable": false,
					"stateMutability": "view",
					"type": "function"
				},
				{
					"constant": true,
					"inputs": [
						{
							"name": "adre",
							"type": "address"
						}
					],
					"name": "balanceOf",
					"outputs": [
						{
							"name": "",
							"type": "uint256"
						}
					],
					"payable": false,
					"stateMutability": "view",
					"type": "function"
				},
				{
					"constant": true,
					"inputs": [],
					"name": "isInit",
					"outputs": [
						{
							"name": "",
							"type": "bool"
						}
					],
					"payable": false,
					"stateMutability": "view",
					"type": "function"
				},
				{
					"constant": false,
					"inputs": [],
					"name": "deposit",
					"outputs": [],
					"payable": true,
					"stateMutability": "payable",
					"type": "function"
				},
				{
					"constant": true,
					"inputs": [],
					"name": "score",
					"outputs": [
						{
							"name": "",
							"type": "uint256"
						}
					],
					"payable": false,
					"stateMutability": "view",
					"type": "function"
				},
				{
					"constant": false,
					"inputs": [],
					"name": "initWithValue",
					"outputs": [],
					"payable": true,
					"stateMutability": "payable",
					"type": "function"
				},
				{
					"constant": false,
					"inputs": [],
					"name": "isCompleted",
					"outputs": [],
					"payable": false,
					"stateMutability": "nonpayable",
					"type": "function"
				},
				{
					"inputs": [],
					"payable": true,
					"stateMutability": "payable",
					"type": "constructor"
				}
			],
			"devdoc": {
				"methods": {}
			},
			"evm": {
				"assembly": "    /* \"SecLessonPoc-main/contracts/reentrancy/check/Withdraw.sol\":238:1661  contract Reentrance{... */\n  mstore(0x40, 0x80)\n    /* \"SecLessonPoc-main/contracts/reentrancy/check/Withdraw.sol\":430:440  msg.sender */\n  caller\n    /* \"SecLessonPoc-main/contracts/reentrancy/check/Withdraw.sol\":421:427  _owner */\n  0x0\n  dup1\n    /* \"SecLessonPoc-main/contracts/reentrancy/check/Withdraw.sol\":421:440  _owner = msg.sender */\n  0x100\n  exp\n  dup2\n  sload\n  dup2\n  0xffffffffffffffffffffffffffffffffffffffff\n  mul\n  not\n  and\n  swap1\n  dup4\n  0xffffffffffffffffffffffffffffffffffffffff\n  and\n  mul\n  or\n  swap1\n  sstore\n  pop\n    /* \"SecLessonPoc-main/contracts/reentrancy/check/Withdraw.sol\":238:1661  contract Reentrance{... */\n  dataSize(sub_0)\n  dup1\n  dataOffset(sub_0)\n  0x0\n  codecopy\n  0x0\n  return\nstop\n\nsub_0: assembly {\n        /* \"SecLessonPoc-main/contracts/reentrancy/check/Withdraw.sol\":238:1661  contract Reentrance{... */\n      mstore(0x40, 0x80)\n      jumpi(tag_1, lt(calldatasize, 0x4))\n      calldataload(0x0)\n      0x100000000000000000000000000000000000000000000000000000000\n      swap1\n      div\n      0xffffffff\n      and\n      dup1\n      0x2e1a7d4d\n      eq\n      tag_2\n      jumpi\n      dup1\n      0x521eb273\n      eq\n      tag_3\n      jumpi\n      dup1\n      0x70a08231\n      eq\n      tag_4\n      jumpi\n      dup1\n      0xb145a5b8\n      eq\n      tag_5\n      jumpi\n      dup1\n      0xd0e30db0\n      eq\n      tag_6\n      jumpi\n      dup1\n      0xefedc669\n      eq\n      tag_7\n      jumpi\n      dup1\n      0xf8ef1085\n      eq\n      tag_8\n      jumpi\n      dup1\n      0xfa391c64\n      eq\n      tag_9\n      jumpi\n    tag_1:\n      0x0\n      dup1\n      revert\n        /* \"SecLessonPoc-main/contracts/reentrancy/check/Withdraw.sol\":695:930  function withdraw(uint256 amount) public payable{... */\n    tag_2:\n      tag_10\n      0x4\n      dup1\n      calldatasize\n      sub\n      dup2\n      add\n      swap1\n      dup1\n      dup1\n      calldataload\n      swap1\n      0x20\n      add\n      swap1\n      swap3\n      swap2\n      swap1\n      pop\n      pop\n      pop\n      jump(tag_11)\n    tag_10:\n      stop\n        /* \"SecLessonPoc-main/contracts/reentrancy/check/Withdraw.sol\":1130:1229  function wallet() public  view returns(uint256 result){... */\n    tag_3:\n      callvalue\n        /* \"--CODEGEN--\":8:17   */\n      dup1\n        /* \"--CODEGEN--\":5:7   */\n      iszero\n      tag_12\n      jumpi\n        /* \"--CODEGEN--\":30:31   */\n      0x0\n        /* \"--CODEGEN--\":27:28   */\n      dup1\n        /* \"--CODEGEN--\":20:32   */\n      revert\n        /* \"--CODEGEN--\":5:7   */\n    tag_12:\n        /* \"SecLessonPoc-main/contracts/reentrancy/check/Withdraw.sol\":1130:1229  function wallet() public  view returns(uint256 result){... */\n      pop\n      tag_13\n      jump(tag_14)\n    tag_13:\n      mload(0x40)\n      dup1\n      dup3\n      dup2\n      mstore\n      0x20\n      add\n      swap2\n      pop\n      pop\n      mload(0x40)\n      dup1\n      swap2\n      sub\n      swap1\n      return\n        /* \"SecLessonPoc-main/contracts/reentrancy/check/Withdraw.sol\":1025:1124  function balanceOf(address adre) public view returns(uint256){... */\n    tag_4:\n      callvalue\n        /* \"--CODEGEN--\":8:17   */\n      dup1\n        /* \"--CODEGEN--\":5:7   */\n      iszero\n      tag_15\n      jumpi\n        /* \"--CODEGEN--\":30:31   */\n      0x0\n        /* \"--CODEGEN--\":27:28   */\n      dup1\n        /* \"--CODEGEN--\":20:32   */\n      revert\n        /* \"--CODEGEN--\":5:7   */\n    tag_15:\n        /* \"SecLessonPoc-main/contracts/reentrancy/check/Withdraw.sol\":1025:1124  function balanceOf(address adre) public view returns(uint256){... */\n      pop\n      tag_16\n      0x4\n      dup1\n      calldatasize\n      sub\n      dup2\n      add\n      swap1\n      dup1\n      dup1\n      calldataload\n      0xffffffffffffffffffffffffffffffffffffffff\n      and\n      swap1\n      0x20\n      add\n      swap1\n      swap3\n      swap2\n      swap1\n      pop\n      pop\n      pop\n      jump(tag_17)\n    tag_16:\n      mload(0x40)\n      dup1\n      dup3\n      dup2\n      mstore\n      0x20\n      add\n      swap2\n      pop\n      pop\n      mload(0x40)\n      dup1\n      swap2\n      sub\n      swap1\n      return\n        /* \"SecLessonPoc-main/contracts/reentrancy/check/Withdraw.sol\":352:370  bool public isInit */\n    tag_5:\n      callvalue\n        /* \"--CODEGEN--\":8:17   */\n      dup1\n        /* \"--CODEGEN--\":5:7   */\n      iszero\n      tag_18\n      jumpi\n        /* \"--CODEGEN--\":30:31   */\n      0x0\n        /* \"--CODEGEN--\":27:28   */\n      dup1\n        /* \"--CODEGEN--\":20:32   */\n      revert\n        /* \"--CODEGEN--\":5:7   */\n    tag_18:\n        /* \"SecLessonPoc-main/contracts/reentrancy/check/Withdraw.sol\":352:370  bool public isInit */\n      pop\n      tag_19\n      jump(tag_20)\n    tag_19:\n      mload(0x40)\n      dup1\n      dup3\n      iszero\n      iszero\n      iszero\n      iszero\n      dup2\n      mstore\n      0x20\n      add\n      swap2\n      pop\n      pop\n      mload(0x40)\n      dup1\n      swap2\n      sub\n      swap1\n      return\n        /* \"SecLessonPoc-main/contracts/reentrancy/check/Withdraw.sol\":936:1019  function deposit() public payable{... */\n    tag_6:\n      tag_21\n      jump(tag_22)\n    tag_21:\n      stop\n        /* \"SecLessonPoc-main/contracts/reentrancy/check/Withdraw.sol\":326:346  uint256 public score */\n    tag_7:\n      callvalue\n        /* \"--CODEGEN--\":8:17   */\n      dup1\n        /* \"--CODEGEN--\":5:7   */\n      iszero\n      tag_23\n      jumpi\n        /* \"--CODEGEN--\":30:31   */\n      0x0\n        /* \"--CODEGEN--\":27:28   */\n      dup1\n        /* \"--CODEGEN--\":20:32   */\n      revert\n        /* \"--CODEGEN--\":5:7   */\n    tag_23:\n        /* \"SecLessonPoc-main/contracts/reentrancy/check/Withdraw.sol\":326:346  uint256 public score */\n      pop\n      tag_24\n      jump(tag_25)\n    tag_24:\n      mload(0x40)\n      dup1\n      dup3\n      dup2\n      mstore\n      0x20\n      add\n      swap2\n      pop\n      pop\n      mload(0x40)\n      dup1\n      swap2\n      sub\n      swap1\n      return\n        /* \"SecLessonPoc-main/contracts/reentrancy/check/Withdraw.sol\":485:689  function initWithValue() public payable{... */\n    tag_8:\n      tag_26\n      jump(tag_27)\n    tag_26:\n      stop\n        /* \"SecLessonPoc-main/contracts/reentrancy/check/Withdraw.sol\":1235:1493  function isCompleted() public {... */\n    tag_9:\n      callvalue\n        /* \"--CODEGEN--\":8:17   */\n      dup1\n        /* \"--CODEGEN--\":5:7   */\n      iszero\n      tag_28\n      jumpi\n        /* \"--CODEGEN--\":30:31   */\n      0x0\n        /* \"--CODEGEN--\":27:28   */\n      dup1\n        /* \"--CODEGEN--\":20:32   */\n      revert\n        /* \"--CODEGEN--\":5:7   */\n    tag_28:\n        /* \"SecLessonPoc-main/contracts/reentrancy/check/Withdraw.sol\":1235:1493  function isCompleted() public {... */\n      pop\n      tag_29\n      jump(tag_30)\n    tag_29:\n      stop\n        /* \"SecLessonPoc-main/contracts/reentrancy/check/Withdraw.sol\":695:930  function withdraw(uint256 amount) public payable{... */\n    tag_11:\n        /* \"SecLessonPoc-main/contracts/reentrancy/check/Withdraw.sol\":785:791  amount */\n      dup1\n        /* \"SecLessonPoc-main/contracts/reentrancy/check/Withdraw.sol\":761:769  balances */\n      0x1\n        /* \"SecLessonPoc-main/contracts/reentrancy/check/Withdraw.sol\":761:781  balances[msg.sender] */\n      0x0\n        /* \"SecLessonPoc-main/contracts/reentrancy/check/Withdraw.sol\":770:780  msg.sender */\n      caller\n        /* \"SecLessonPoc-main/contracts/reentrancy/check/Withdraw.sol\":761:781  balances[msg.sender] */\n      0xffffffffffffffffffffffffffffffffffffffff\n      and\n      0xffffffffffffffffffffffffffffffffffffffff\n      and\n      dup2\n      mstore\n      0x20\n      add\n      swap1\n      dup2\n      mstore\n      0x20\n      add\n      0x0\n      keccak256\n      sload\n        /* \"SecLessonPoc-main/contracts/reentrancy/check/Withdraw.sol\":761:791  balances[msg.sender] >= amount */\n      lt\n      iszero\n        /* \"SecLessonPoc-main/contracts/reentrancy/check/Withdraw.sol\":753:792  require(balances[msg.sender] >= amount) */\n      iszero\n      iszero\n      tag_32\n      jumpi\n      0x0\n      dup1\n      revert\n    tag_32:\n        /* \"SecLessonPoc-main/contracts/reentrancy/check/Withdraw.sol\":835:841  amount */\n      dup1\n        /* \"SecLessonPoc-main/contracts/reentrancy/check/Withdraw.sol\":818:822  this */\n      address\n        /* \"SecLessonPoc-main/contracts/reentrancy/check/Withdraw.sol\":810:831  address(this).balance */\n      0xffffffffffffffffffffffffffffffffffffffff\n      and\n      balance\n        /* \"SecLessonPoc-main/contracts/reentrancy/check/Withdraw.sol\":810:841  address(this).balance >= amount */\n      lt\n      iszero\n        /* \"SecLessonPoc-main/contracts/reentrancy/check/Withdraw.sol\":802:842  require(address(this).balance >= amount) */\n      iszero\n      iszero\n      tag_33\n      jumpi\n      0x0\n      dup1\n      revert\n    tag_33:\n        /* \"SecLessonPoc-main/contracts/reentrancy/check/Withdraw.sol\":852:862  msg.sender */\n      caller\n        /* \"SecLessonPoc-main/contracts/reentrancy/check/Withdraw.sol\":852:867  msg.sender.call */\n      0xffffffffffffffffffffffffffffffffffffffff\n      and\n        /* \"SecLessonPoc-main/contracts/reentrancy/check/Withdraw.sol\":874:880  amount */\n      dup2\n        /* \"SecLessonPoc-main/contracts/reentrancy/check/Withdraw.sol\":852:883  msg.sender.call.value(amount)() */\n      mload(0x40)\n      0x0\n      mload(0x40)\n      dup1\n      dup4\n      sub\n      dup2\n      dup6\n      dup8\n      gas\n      call\n      swap3\n      pop\n      pop\n      pop\n      pop\n        /* \"SecLessonPoc-main/contracts/reentrancy/check/Withdraw.sol\":917:923  amount */\n      dup1\n        /* \"SecLessonPoc-main/contracts/reentrancy/check/Withdraw.sol\":893:901  balances */\n      0x1\n        /* \"SecLessonPoc-main/contracts/reentrancy/check/Withdraw.sol\":893:913  balances[msg.sender] */\n      0x0\n        /* \"SecLessonPoc-main/contracts/reentrancy/check/Withdraw.sol\":902:912  msg.sender */\n      caller\n        /* \"SecLessonPoc-main/contracts/reentrancy/check/Withdraw.sol\":893:913  balances[msg.sender] */\n      0xffffffffffffffffffffffffffffffffffffffff\n      and\n      0xffffffffffffffffffffffffffffffffffffffff\n      and\n      dup2\n      mstore\n      0x20\n      add\n      swap1\n      dup2\n      mstore\n      0x20\n      add\n      0x0\n      keccak256\n      0x0\n        /* \"SecLessonPoc-main/contracts/reentrancy/check/Withdraw.sol\":893:923  balances[msg.sender] -= amount */\n      dup3\n      dup3\n      sload\n      sub\n      swap3\n      pop\n      pop\n      dup2\n      swap1\n      sstore\n      pop\n        /* \"SecLessonPoc-main/contracts/reentrancy/check/Withdraw.sol\":695:930  function withdraw(uint256 amount) public payable{... */\n      pop\n      jump\t// out\n        /* \"SecLessonPoc-main/contracts/reentrancy/check/Withdraw.sol\":1130:1229  function wallet() public  view returns(uint256 result){... */\n    tag_14:\n        /* \"SecLessonPoc-main/contracts/reentrancy/check/Withdraw.sol\":1169:1183  uint256 result */\n      0x0\n        /* \"SecLessonPoc-main/contracts/reentrancy/check/Withdraw.sol\":1209:1213  this */\n      address\n        /* \"SecLessonPoc-main/contracts/reentrancy/check/Withdraw.sol\":1201:1222  address(this).balance */\n      0xffffffffffffffffffffffffffffffffffffffff\n      and\n      balance\n        /* \"SecLessonPoc-main/contracts/reentrancy/check/Withdraw.sol\":1194:1222  return address(this).balance */\n      swap1\n      pop\n        /* \"SecLessonPoc-main/contracts/reentrancy/check/Withdraw.sol\":1130:1229  function wallet() public  view returns(uint256 result){... */\n      swap1\n      jump\t// out\n        /* \"SecLessonPoc-main/contracts/reentrancy/check/Withdraw.sol\":1025:1124  function balanceOf(address adre) public view returns(uint256){... */\n    tag_17:\n        /* \"SecLessonPoc-main/contracts/reentrancy/check/Withdraw.sol\":1078:1085  uint256 */\n      0x0\n        /* \"SecLessonPoc-main/contracts/reentrancy/check/Withdraw.sol\":1103:1111  balances */\n      0x1\n        /* \"SecLessonPoc-main/contracts/reentrancy/check/Withdraw.sol\":1103:1117  balances[adre] */\n      0x0\n        /* \"SecLessonPoc-main/contracts/reentrancy/check/Withdraw.sol\":1112:1116  adre */\n      dup4\n        /* \"SecLessonPoc-main/contracts/reentrancy/check/Withdraw.sol\":1103:1117  balances[adre] */\n      0xffffffffffffffffffffffffffffffffffffffff\n      and\n      0xffffffffffffffffffffffffffffffffffffffff\n      and\n      dup2\n      mstore\n      0x20\n      add\n      swap1\n      dup2\n      mstore\n      0x20\n      add\n      0x0\n      keccak256\n      sload\n        /* \"SecLessonPoc-main/contracts/reentrancy/check/Withdraw.sol\":1096:1117  return balances[adre] */\n      swap1\n      pop\n        /* \"SecLessonPoc-main/contracts/reentrancy/check/Withdraw.sol\":1025:1124  function balanceOf(address adre) public view returns(uint256){... */\n      swap2\n      swap1\n      pop\n      jump\t// out\n        /* \"SecLessonPoc-main/contracts/reentrancy/check/Withdraw.sol\":352:370  bool public isInit */\n    tag_20:\n      0x3\n      0x0\n      swap1\n      sload\n      swap1\n      0x100\n      exp\n      swap1\n      div\n      0xff\n      and\n      dup2\n      jump\t// out\n        /* \"SecLessonPoc-main/contracts/reentrancy/check/Withdraw.sol\":936:1019  function deposit() public payable{... */\n    tag_22:\n        /* \"SecLessonPoc-main/contracts/reentrancy/check/Withdraw.sol\":1003:1012  msg.value */\n      callvalue\n        /* \"SecLessonPoc-main/contracts/reentrancy/check/Withdraw.sol\":979:987  balances */\n      0x1\n        /* \"SecLessonPoc-main/contracts/reentrancy/check/Withdraw.sol\":979:999  balances[msg.sender] */\n      0x0\n        /* \"SecLessonPoc-main/contracts/reentrancy/check/Withdraw.sol\":988:998  msg.sender */\n      caller\n        /* \"SecLessonPoc-main/contracts/reentrancy/check/Withdraw.sol\":979:999  balances[msg.sender] */\n      0xffffffffffffffffffffffffffffffffffffffff\n      and\n      0xffffffffffffffffffffffffffffffffffffffff\n      and\n      dup2\n      mstore\n      0x20\n      add\n      swap1\n      dup2\n      mstore\n      0x20\n      add\n      0x0\n      keccak256\n      0x0\n        /* \"SecLessonPoc-main/contracts/reentrancy/check/Withdraw.sol\":979:1012  balances[msg.sender] += msg.value */\n      dup3\n      dup3\n      sload\n      add\n      swap3\n      pop\n      pop\n      dup2\n      swap1\n      sstore\n      pop\n        /* \"SecLessonPoc-main/contracts/reentrancy/check/Withdraw.sol\":936:1019  function deposit() public payable{... */\n      jump\t// out\n        /* \"SecLessonPoc-main/contracts/reentrancy/check/Withdraw.sol\":326:346  uint256 public score */\n    tag_25:\n      sload(0x2)\n      dup2\n      jump\t// out\n        /* \"SecLessonPoc-main/contracts/reentrancy/check/Withdraw.sol\":485:689  function initWithValue() public payable{... */\n    tag_27:\n        /* \"SecLessonPoc-main/contracts/reentrancy/check/Withdraw.sol\":538:544  isInit */\n      0x3\n      0x0\n      swap1\n      sload\n      swap1\n      0x100\n      exp\n      swap1\n      div\n      0xff\n      and\n        /* \"SecLessonPoc-main/contracts/reentrancy/check/Withdraw.sol\":537:544  !isInit */\n      iszero\n        /* \"SecLessonPoc-main/contracts/reentrancy/check/Withdraw.sol\":534:683  if(!isInit){... */\n      iszero\n      tag_38\n      jumpi\n        /* \"SecLessonPoc-main/contracts/reentrancy/check/Withdraw.sol\":592:612  1000000000000000 wei */\n      0x38d7ea4c68000\n        /* \"SecLessonPoc-main/contracts/reentrancy/check/Withdraw.sol\":575:579  this */\n      address\n        /* \"SecLessonPoc-main/contracts/reentrancy/check/Withdraw.sol\":567:588  address(this).balance */\n      0xffffffffffffffffffffffffffffffffffffffff\n      and\n      balance\n        /* \"SecLessonPoc-main/contracts/reentrancy/check/Withdraw.sol\":567:612  address(this).balance == 1000000000000000 wei */\n      eq\n        /* \"SecLessonPoc-main/contracts/reentrancy/check/Withdraw.sol\":559:645  require(address(this).balance == 1000000000000000 wei, \"should init with 0.001 ether\") */\n      iszero\n      iszero\n      tag_39\n      jumpi\n      mload(0x40)\n      0x8c379a000000000000000000000000000000000000000000000000000000000\n      dup2\n      mstore\n      0x4\n      add\n      dup1\n      dup1\n      0x20\n      add\n      dup3\n      dup2\n      sub\n      dup3\n      mstore\n      0x1c\n      dup2\n      mstore\n      0x20\n      add\n      dup1\n      0x73686f756c6420696e6974207769746820302e30303120657468657200000000\n      dup2\n      mstore\n      pop\n      0x20\n      add\n      swap2\n      pop\n      pop\n      mload(0x40)\n      dup1\n      swap2\n      sub\n      swap1\n      revert\n    tag_39:\n        /* \"SecLessonPoc-main/contracts/reentrancy/check/Withdraw.sol\":668:672  true */\n      0x1\n        /* \"SecLessonPoc-main/contracts/reentrancy/check/Withdraw.sol\":659:665  isInit */\n      0x3\n      0x0\n        /* \"SecLessonPoc-main/contracts/reentrancy/check/Withdraw.sol\":659:672  isInit = true */\n      0x100\n      exp\n      dup2\n      sload\n      dup2\n      0xff\n      mul\n      not\n      and\n      swap1\n      dup4\n      iszero\n      iszero\n      mul\n      or\n      swap1\n      sstore\n      pop\n        /* \"SecLessonPoc-main/contracts/reentrancy/check/Withdraw.sol\":534:683  if(!isInit){... */\n    tag_38:\n        /* \"SecLessonPoc-main/contracts/reentrancy/check/Withdraw.sol\":485:689  function initWithValue() public payable{... */\n      jump\t// out\n        /* \"SecLessonPoc-main/contracts/reentrancy/check/Withdraw.sol\":1235:1493  function isCompleted() public {... */\n    tag_30:\n        /* \"SecLessonPoc-main/contracts/reentrancy/check/Withdraw.sol\":1283:1289  isInit */\n      0x3\n      0x0\n      swap1\n      sload\n      swap1\n      0x100\n      exp\n      swap1\n      div\n      0xff\n      and\n        /* \"SecLessonPoc-main/contracts/reentrancy/check/Withdraw.sol\":1275:1322  require(isInit, \"You can't do it without init\") */\n      iszero\n      iszero\n      tag_41\n      jumpi\n      mload(0x40)\n      0x8c379a000000000000000000000000000000000000000000000000000000000\n      dup2\n      mstore\n      0x4\n      add\n      dup1\n      dup1\n      0x20\n      add\n      dup3\n      dup2\n      sub\n      dup3\n      mstore\n      0x1c\n      dup2\n      mstore\n      0x20\n      add\n      dup1\n      0x596f752063616e277420646f20697420776974686f757420696e697400000000\n      dup2\n      mstore\n      pop\n      0x20\n      add\n      swap2\n      pop\n      pop\n      mload(0x40)\n      dup1\n      swap2\n      sub\n      swap1\n      revert\n    tag_41:\n        /* \"SecLessonPoc-main/contracts/reentrancy/check/Withdraw.sol\":1340:1341  0 */\n      0x0\n        /* \"SecLessonPoc-main/contracts/reentrancy/check/Withdraw.sol\":1332:1337  score */\n      0x2\n        /* \"SecLessonPoc-main/contracts/reentrancy/check/Withdraw.sol\":1332:1341  score = 0 */\n      dup2\n      swap1\n      sstore\n      pop\n        /* \"SecLessonPoc-main/contracts/reentrancy/check/Withdraw.sol\":1354:1376  isContract(msg.sender) */\n      tag_42\n        /* \"SecLessonPoc-main/contracts/reentrancy/check/Withdraw.sol\":1365:1375  msg.sender */\n      caller\n        /* \"SecLessonPoc-main/contracts/reentrancy/check/Withdraw.sol\":1354:1364  isContract */\n      tag_43\n        /* \"SecLessonPoc-main/contracts/reentrancy/check/Withdraw.sol\":1354:1376  isContract(msg.sender) */\n      jump\t// in\n    tag_42:\n        /* \"SecLessonPoc-main/contracts/reentrancy/check/Withdraw.sol\":1351:1412  if(isContract(msg.sender)){... */\n      iszero\n      tag_44\n      jumpi\n        /* \"SecLessonPoc-main/contracts/reentrancy/check/Withdraw.sol\":1399:1401  25 */\n      0x19\n        /* \"SecLessonPoc-main/contracts/reentrancy/check/Withdraw.sol\":1391:1396  score */\n      0x2\n        /* \"SecLessonPoc-main/contracts/reentrancy/check/Withdraw.sol\":1391:1401  score = 25 */\n      dup2\n      swap1\n      sstore\n      pop\n        /* \"SecLessonPoc-main/contracts/reentrancy/check/Withdraw.sol\":1351:1412  if(isContract(msg.sender)){... */\n    tag_44:\n        /* \"SecLessonPoc-main/contracts/reentrancy/check/Withdraw.sol\":1449:1450  0 */\n      0x0\n        /* \"SecLessonPoc-main/contracts/reentrancy/check/Withdraw.sol\":1432:1436  this */\n      address\n        /* \"SecLessonPoc-main/contracts/reentrancy/check/Withdraw.sol\":1424:1445  address(this).balance */\n      0xffffffffffffffffffffffffffffffffffffffff\n      and\n      balance\n        /* \"SecLessonPoc-main/contracts/reentrancy/check/Withdraw.sol\":1424:1450  address(this).balance == 0 */\n      eq\n        /* \"SecLessonPoc-main/contracts/reentrancy/check/Withdraw.sol\":1421:1487  if(address(this).balance == 0){... */\n      iszero\n      tag_45\n      jumpi\n        /* \"SecLessonPoc-main/contracts/reentrancy/check/Withdraw.sol\":1473:1476  100 */\n      0x64\n        /* \"SecLessonPoc-main/contracts/reentrancy/check/Withdraw.sol\":1465:1470  score */\n      0x2\n        /* \"SecLessonPoc-main/contracts/reentrancy/check/Withdraw.sol\":1465:1476  score = 100 */\n      dup2\n      swap1\n      sstore\n      pop\n        /* \"SecLessonPoc-main/contracts/reentrancy/check/Withdraw.sol\":1421:1487  if(address(this).balance == 0){... */\n    tag_45:\n        /* \"SecLessonPoc-main/contracts/reentrancy/check/Withdraw.sol\":1235:1493  function isCompleted() public {... */\n      jump\t// out\n        /* \"SecLessonPoc-main/contracts/reentrancy/check/Withdraw.sol\":1499:1659  function isContract(address addr) private view returns (bool) {... */\n    tag_43:\n        /* \"SecLessonPoc-main/contracts/reentrancy/check/Withdraw.sol\":1555:1559  bool */\n      0x0\n        /* \"SecLessonPoc-main/contracts/reentrancy/check/Withdraw.sol\":1571:1580  uint size */\n      dup1\n        /* \"SecLessonPoc-main/contracts/reentrancy/check/Withdraw.sol\":1621:1625  addr */\n      dup3\n        /* \"SecLessonPoc-main/contracts/reentrancy/check/Withdraw.sol\":1609:1626  extcodesize(addr) */\n      extcodesize\n        /* \"SecLessonPoc-main/contracts/reentrancy/check/Withdraw.sol\":1601:1626  size := extcodesize(addr) */\n      swap1\n      pop\n        /* \"SecLessonPoc-main/contracts/reentrancy/check/Withdraw.sol\":1651:1652  0 */\n      0x0\n        /* \"SecLessonPoc-main/contracts/reentrancy/check/Withdraw.sol\":1644:1648  size */\n      dup2\n        /* \"SecLessonPoc-main/contracts/reentrancy/check/Withdraw.sol\":1644:1652  size > 0 */\n      gt\n        /* \"SecLessonPoc-main/contracts/reentrancy/check/Withdraw.sol\":1637:1652  return size > 0 */\n      swap2\n      pop\n        /* \"SecLessonPoc-main/contracts/reentrancy/check/Withdraw.sol\":1499:1659  function isContract(address addr) private view returns (bool) {... */\n      pop\n      swap2\n      swap1\n      pop\n      jump\t// out\n\n    auxdata: 0xa165627a7a72305820212eb198f3444806e6ce8426d31473103bd32953ebeb04b6f43c512acc6928500029\n}\n",
				"bytecode": {
					"linkReferences": {},
					"object": "6080604052336000806101000a81548173ffffffffffffffffffffffffffffffffffffffff021916908373ffffffffffffffffffffffffffffffffffffffff160217905550610551806100536000396000f30060806040526004361061008e576000357c0100000000000000000000000000000000000000000000000000000000900463ffffffff1680632e1a7d4d14610093578063521eb273146100b357806370a08231146100de578063b145a5b814610135578063d0e30db014610164578063efedc6691461016e578063f8ef108514610199578063fa391c64146101a3575b600080fd5b6100b1600480360381019080803590602001909291905050506101ba565b005b3480156100bf57600080fd5b506100c86102ab565b6040518082815260200191505060405180910390f35b3480156100ea57600080fd5b5061011f600480360381019080803573ffffffffffffffffffffffffffffffffffffffff1690602001909291905050506102ca565b6040518082815260200191505060405180910390f35b34801561014157600080fd5b5061014a610313565b604051808215151515815260200191505060405180910390f35b61016c610326565b005b34801561017a57600080fd5b50610183610375565b6040518082815260200191505060405180910390f35b6101a161037b565b005b3480156101af57600080fd5b506101b8610444565b005b80600160003373ffffffffffffffffffffffffffffffffffffffff1673ffffffffffffffffffffffffffffffffffffffff168152602001908152602001600020541015151561020857600080fd5b803073ffffffffffffffffffffffffffffffffffffffff16311015151561022e57600080fd5b3373ffffffffffffffffffffffffffffffffffffffff168160405160006040518083038185875af1925050505080600160003373ffffffffffffffffffffffffffffffffffffffff1673ffffffffffffffffffffffffffffffffffffffff1681526020019081526020016000206000828254039250508190555050565b60003073ffffffffffffffffffffffffffffffffffffffff1631905090565b6000600160008373ffffffffffffffffffffffffffffffffffffffff1673ffffffffffffffffffffffffffffffffffffffff168152602001908152602001600020549050919050565b600360009054906101000a900460ff1681565b34600160003373ffffffffffffffffffffffffffffffffffffffff1673ffffffffffffffffffffffffffffffffffffffff16815260200190815260200160002060008282540192505081905550565b60025481565b600360009054906101000a900460ff1615156104425766038d7ea4c680003073ffffffffffffffffffffffffffffffffffffffff1631141515610426576040517f08c379a000000000000000000000000000000000000000000000000000000000815260040180806020018281038252601c8152602001807f73686f756c6420696e6974207769746820302e3030312065746865720000000081525060200191505060405180910390fd5b6001600360006101000a81548160ff0219169083151502179055505b565b600360009054906101000a900460ff1615156104c8576040517f08c379a000000000000000000000000000000000000000000000000000000000815260040180806020018281038252601c8152602001807f596f752063616e277420646f20697420776974686f757420696e69740000000081525060200191505060405180910390fd5b60006002819055506104d933610512565b156104e75760196002819055505b60003073ffffffffffffffffffffffffffffffffffffffff163114156105105760646002819055505b565b600080823b9050600081119150509190505600a165627a7a72305820212eb198f3444806e6ce8426d31473103bd32953ebeb04b6f43c512acc6928500029",
					"opcodes": "PUSH1 0x80 PUSH1 0x40 MSTORE CALLER PUSH1 0x0 DUP1 PUSH2 0x100 EXP DUP2 SLOAD DUP2 PUSH20 0xFFFFFFFFFFFFFFFFFFFFFFFFFFFFFFFFFFFFFFFF MUL NOT AND SWAP1 DUP4 PUSH20 0xFFFFFFFFFFFFFFFFFFFFFFFFFFFFFFFFFFFFFFFF AND MUL OR SWAP1 SSTORE POP PUSH2 0x551 DUP1 PUSH2 0x53 PUSH1 0x0 CODECOPY PUSH1 0x0 RETURN STOP PUSH1 0x80 PUSH1 0x40 MSTORE PUSH1 0x4 CALLDATASIZE LT PUSH2 0x8E JUMPI PUSH1 0x0 CALLDATALOAD PUSH29 0x100000000000000000000000000000000000000000000000000000000 SWAP1 DIV PUSH4 0xFFFFFFFF AND DUP1 PUSH4 0x2E1A7D4D EQ PUSH2 0x93 JUMPI DUP1 PUSH4 0x521EB273 EQ PUSH2 0xB3 JUMPI DUP1 PUSH4 0x70A08231 EQ PUSH2 0xDE JUMPI DUP1 PUSH4 0xB145A5B8 EQ PUSH2 0x135 JUMPI DUP1 PUSH4 0xD0E30DB0 EQ PUSH2 0x164 JUMPI DUP1 PUSH4 0xEFEDC669 EQ PUSH2 0x16E JUMPI DUP1 PUSH4 0xF8EF1085 EQ PUSH2 0x199 JUMPI DUP1 PUSH4 0xFA391C64 EQ PUSH2 0x1A3 JUMPI JUMPDEST PUSH1 0x0 DUP1 REVERT JUMPDEST PUSH2 0xB1 PUSH1 0x4 DUP1 CALLDATASIZE SUB DUP2 ADD SWAP1 DUP1 DUP1 CALLDATALOAD SWAP1 PUSH1 0x20 ADD SWAP1 SWAP3 SWAP2 SWAP1 POP POP POP PUSH2 0x1BA JUMP JUMPDEST STOP JUMPDEST CALLVALUE DUP1 ISZERO PUSH2 0xBF JUMPI PUSH1 0x0 DUP1 REVERT JUMPDEST POP PUSH2 0xC8 PUSH2 0x2AB JUMP JUMPDEST PUSH1 0x40 MLOAD DUP1 DUP3 DUP2 MSTORE PUSH1 0x20 ADD SWAP2 POP POP PUSH1 0x40 MLOAD DUP1 SWAP2 SUB SWAP1 RETURN JUMPDEST CALLVALUE DUP1 ISZERO PUSH2 0xEA JUMPI PUSH1 0x0 DUP1 REVERT JUMPDEST POP PUSH2 0x11F PUSH1 0x4 DUP1 CALLDATASIZE SUB DUP2 ADD SWAP1 DUP1 DUP1 CALLDATALOAD PUSH20 0xFFFFFFFFFFFFFFFFFFFFFFFFFFFFFFFFFFFFFFFF AND SWAP1 PUSH1 0x20 ADD SWAP1 SWAP3 SWAP2 SWAP1 POP POP POP PUSH2 0x2CA JUMP JUMPDEST PUSH1 0x40 MLOAD DUP1 DUP3 DUP2 MSTORE PUSH1 0x20 ADD SWAP2 POP POP PUSH1 0x40 MLOAD DUP1 SWAP2 SUB SWAP1 RETURN JUMPDEST CALLVALUE DUP1 ISZERO PUSH2 0x141 JUMPI PUSH1 0x0 DUP1 REVERT JUMPDEST POP PUSH2 0x14A PUSH2 0x313 JUMP JUMPDEST PUSH1 0x40 MLOAD DUP1 DUP3 ISZERO ISZERO ISZERO ISZERO DUP2 MSTORE PUSH1 0x20 ADD SWAP2 POP POP PUSH1 0x40 MLOAD DUP1 SWAP2 SUB SWAP1 RETURN JUMPDEST PUSH2 0x16C PUSH2 0x326 JUMP JUMPDEST STOP JUMPDEST CALLVALUE DUP1 ISZERO PUSH2 0x17A JUMPI PUSH1 0x0 DUP1 REVERT JUMPDEST POP PUSH2 0x183 PUSH2 0x375 JUMP JUMPDEST PUSH1 0x40 MLOAD DUP1 DUP3 DUP2 MSTORE PUSH1 0x20 ADD SWAP2 POP POP PUSH1 0x40 MLOAD DUP1 SWAP2 SUB SWAP1 RETURN JUMPDEST PUSH2 0x1A1 PUSH2 0x37B JUMP JUMPDEST STOP JUMPDEST CALLVALUE DUP1 ISZERO PUSH2 0x1AF JUMPI PUSH1 0x0 DUP1 REVERT JUMPDEST POP PUSH2 0x1B8 PUSH2 0x444 JUMP JUMPDEST STOP JUMPDEST DUP1 PUSH1 0x1 PUSH1 0x0 CALLER PUSH20 0xFFFFFFFFFFFFFFFFFFFFFFFFFFFFFFFFFFFFFFFF AND PUSH20 0xFFFFFFFFFFFFFFFFFFFFFFFFFFFFFFFFFFFFFFFF AND DUP2 MSTORE PUSH1 0x20 ADD SWAP1 DUP2 MSTORE PUSH1 0x20 ADD PUSH1 0x0 KECCAK256 SLOAD LT ISZERO ISZERO ISZERO PUSH2 0x208 JUMPI PUSH1 0x0 DUP1 REVERT JUMPDEST DUP1 ADDRESS PUSH20 0xFFFFFFFFFFFFFFFFFFFFFFFFFFFFFFFFFFFFFFFF AND BALANCE LT ISZERO ISZERO ISZERO PUSH2 0x22E JUMPI PUSH1 0x0 DUP1 REVERT JUMPDEST CALLER PUSH20 0xFFFFFFFFFFFFFFFFFFFFFFFFFFFFFFFFFFFFFFFF AND DUP2 PUSH1 0x40 MLOAD PUSH1 0x0 PUSH1 0x40 MLOAD DUP1 DUP4 SUB DUP2 DUP6 DUP8 GAS CALL SWAP3 POP POP POP POP DUP1 PUSH1 0x1 PUSH1 0x0 CALLER PUSH20 0xFFFFFFFFFFFFFFFFFFFFFFFFFFFFFFFFFFFFFFFF AND PUSH20 0xFFFFFFFFFFFFFFFFFFFFFFFFFFFFFFFFFFFFFFFF AND DUP2 MSTORE PUSH1 0x20 ADD SWAP1 DUP2 MSTORE PUSH1 0x20 ADD PUSH1 0x0 KECCAK256 PUSH1 0x0 DUP3 DUP3 SLOAD SUB SWAP3 POP POP DUP2 SWAP1 SSTORE POP POP JUMP JUMPDEST PUSH1 0x0 ADDRESS PUSH20 0xFFFFFFFFFFFFFFFFFFFFFFFFFFFFFFFFFFFFFFFF AND BALANCE SWAP1 POP SWAP1 JUMP JUMPDEST PUSH1 0x0 PUSH1 0x1 PUSH1 0x0 DUP4 PUSH20 0xFFFFFFFFFFFFFFFFFFFFFFFFFFFFFFFFFFFFFFFF AND PUSH20 0xFFFFFFFFFFFFFFFFFFFFFFFFFFFFFFFFFFFFFFFF AND DUP2 MSTORE PUSH1 0x20 ADD SWAP1 DUP2 MSTORE PUSH1 0x20 ADD PUSH1 0x0 KECCAK256 SLOAD SWAP1 POP SWAP2 SWAP1 POP JUMP JUMPDEST PUSH1 0x3 PUSH1 0x0 SWAP1 SLOAD SWAP1 PUSH2 0x100 EXP SWAP1 DIV PUSH1 0xFF AND DUP2 JUMP JUMPDEST CALLVALUE PUSH1 0x1 PUSH1 0x0 CALLER PUSH20 0xFFFFFFFFFFFFFFFFFFFFFFFFFFFFFFFFFFFFFFFF AND PUSH20 0xFFFFFFFFFFFFFFFFFFFFFFFFFFFFFFFFFFFFFFFF AND DUP2 MSTORE PUSH1 0x20 ADD SWAP1 DUP2 MSTORE PUSH1 0x20 ADD PUSH1 0x0 KECCAK256 PUSH1 0x0 DUP3 DUP3 SLOAD ADD SWAP3 POP POP DUP2 SWAP1 SSTORE POP JUMP JUMPDEST PUSH1 0x2 SLOAD DUP2 JUMP JUMPDEST PUSH1 0x3 PUSH1 0x0 SWAP1 SLOAD SWAP1 PUSH2 0x100 EXP SWAP1 DIV PUSH1 0xFF AND ISZERO ISZERO PUSH2 0x442 JUMPI PUSH7 0x38D7EA4C68000 ADDRESS PUSH20 0xFFFFFFFFFFFFFFFFFFFFFFFFFFFFFFFFFFFFFFFF AND BALANCE EQ ISZERO ISZERO PUSH2 0x426 JUMPI PUSH1 0x40 MLOAD PUSH32 0x8C379A000000000000000000000000000000000000000000000000000000000 DUP2 MSTORE PUSH1 0x4 ADD DUP1 DUP1 PUSH1 0x20 ADD DUP3 DUP2 SUB DUP3 MSTORE PUSH1 0x1C DUP2 MSTORE PUSH1 0x20 ADD DUP1 PUSH32 0x73686F756C6420696E6974207769746820302E30303120657468657200000000 DUP2 MSTORE POP PUSH1 0x20 ADD SWAP2 POP POP PUSH1 0x40 MLOAD DUP1 SWAP2 SUB SWAP1 REVERT JUMPDEST PUSH1 0x1 PUSH1 0x3 PUSH1 0x0 PUSH2 0x100 EXP DUP2 SLOAD DUP2 PUSH1 0xFF MUL NOT AND SWAP1 DUP4 ISZERO ISZERO MUL OR SWAP1 SSTORE POP JUMPDEST JUMP JUMPDEST PUSH1 0x3 PUSH1 0x0 SWAP1 SLOAD SWAP1 PUSH2 0x100 EXP SWAP1 DIV PUSH1 0xFF AND ISZERO ISZERO PUSH2 0x4C8 JUMPI PUSH1 0x40 MLOAD PUSH32 0x8C379A000000000000000000000000000000000000000000000000000000000 DUP2 MSTORE PUSH1 0x4 ADD DUP1 DUP1 PUSH1 0x20 ADD DUP3 DUP2 SUB DUP3 MSTORE PUSH1 0x1C DUP2 MSTORE PUSH1 0x20 ADD DUP1 PUSH32 0x596F752063616E277420646F20697420776974686F757420696E697400000000 DUP2 MSTORE POP PUSH1 0x20 ADD SWAP2 POP POP PUSH1 0x40 MLOAD DUP1 SWAP2 SUB SWAP1 REVERT JUMPDEST PUSH1 0x0 PUSH1 0x2 DUP2 SWAP1 SSTORE POP PUSH2 0x4D9 CALLER PUSH2 0x512 JUMP JUMPDEST ISZERO PUSH2 0x4E7 JUMPI PUSH1 0x19 PUSH1 0x2 DUP2 SWAP1 SSTORE POP JUMPDEST PUSH1 0x0 ADDRESS PUSH20 0xFFFFFFFFFFFFFFFFFFFFFFFFFFFFFFFFFFFFFFFF AND BALANCE EQ ISZERO PUSH2 0x510 JUMPI PUSH1 0x64 PUSH1 0x2 DUP2 SWAP1 SSTORE POP JUMPDEST JUMP JUMPDEST PUSH1 0x0 DUP1 DUP3 EXTCODESIZE SWAP1 POP PUSH1 0x0 DUP2 GT SWAP2 POP POP SWAP2 SWAP1 POP JUMP STOP LOG1 PUSH6 0x627A7A723058 KECCAK256 0x21 0x2e 0xb1 SWAP9 RETURN DIFFICULTY 0x48 MOD 0xe6 0xce DUP5 0x26 0xd3 EQ PUSH20 0x103BD32953EBEB04B6F43C512ACC692850002900 "
				},
				"gasEstimates": {
					"creation": {
						"codeDepositCost": "272200",
						"executionCost": "20554",
						"totalCost": "292754"
					},
					"external": {
						"balanceOf(address)": "603",
						"deposit()": "20518",
						"initWithValue()": "21201",
						"isCompleted()": "31800",
						"isInit()": "508",
						"score()": "504",
						"wallet()": "629",
						"withdraw(uint256)": "infinite"
					},
					"internal": {
						"isContract(address)": "747"
					}
				},
				"methodIdentifiers": {
					"balanceOf(address)": "70a08231",
					"deposit()": "d0e30db0",
					"initWithValue()": "f8ef1085",
					"isCompleted()": "fa391c64",
					"isInit()": "b145a5b8",
					"score()": "efedc669",
					"wallet()": "521eb273",
					"withdraw(uint256)": "2e1a7d4d"
				}
			},
			"userdoc": {
				"methods": {}
			}
		}
	}
}