{
	"SecLessonPoc-main/contracts/externalContract/check/bank2.sol": {
		"check": {
			"abi": [
				{
					"inputs": [
						{
							"internalType": "address",
							"name": "_token",
							"type": "address"
						},
						{
							"internalType": "uint256",
							"name": "amount",
							"type": "uint256"
						}
					],
					"name": "depositToken",
					"outputs": [],
					"stateMutability": "nonpayable",
					"type": "function"
				},
				{
					"inputs": [],
					"name": "getOneToken",
					"outputs": [],
					"stateMutability": "nonpayable",
					"type": "function"
				},
				{
					"inputs": [
						{
							"internalType": "address",
							"name": "_token",
							"type": "address"
						}
					],
					"name": "isCompleted",
					"outputs": [],
					"stateMutability": "nonpayable",
					"type": "function"
				},
				{
					"inputs": [],
					"name": "score",
					"outputs": [
						{
							"internalType": "uint256",
							"name": "",
							"type": "uint256"
						}
					],
					"stateMutability": "view",
					"type": "function"
				},
				{
					"inputs": [],
					"name": "token",
					"outputs": [
						{
							"internalType": "contract ERC20",
							"name": "",
							"type": "address"
						}
					],
					"stateMutability": "view",
					"type": "function"
				},
				{
					"inputs": [
						{
							"internalType": "address",
							"name": "_token",
							"type": "address"
						},
						{
							"internalType": "uint256",
							"name": "amount",
							"type": "uint256"
						}
					],
					"name": "withdrawToken",
					"outputs": [],
					"stateMutability": "nonpayable",
					"type": "function"
				}
			],
			"devdoc": {
				"kind": "dev",
				"methods": {},
				"version": 1
			},
			"evm": {
				"assembly": "    /* \"SecLessonPoc-main/contracts/externalContract/check/bank2.sol\":4327:4667  contract check is bank2{\r... */\n  mstore(0x40, 0x80)\n  callvalue\n  dup1\n  iszero\n  tag_1\n  jumpi\n  0x00\n  dup1\n  revert\ntag_1:\n  pop\n    /* \"SecLessonPoc-main/contracts/externalContract/check/bank2.sol\":3256:3267  new ERC20() */\n  mload(0x40)\n  tag_4\n  swap1\n  tag_5\n  jump\t// in\ntag_4:\n  mload(0x40)\n  dup1\n  swap2\n  sub\n  swap1\n  0x00\n  create\n  dup1\n  iszero\n  dup1\n  iszero\n  tag_6\n  jumpi\n  returndatasize\n  0x00\n  dup1\n  returndatacopy\n  revert(0x00, returndatasize)\ntag_6:\n  pop\n    /* \"SecLessonPoc-main/contracts/externalContract/check/bank2.sol\":3248:3253  token */\n  0x01\n  0x00\n    /* \"SecLessonPoc-main/contracts/externalContract/check/bank2.sol\":3248:3267  token = new ERC20() */\n  0x0100\n  exp\n  dup2\n  sload\n  dup2\n  0xffffffffffffffffffffffffffffffffffffffff\n  mul\n  not\n  and\n  swap1\n  dup4\n  0xffffffffffffffffffffffffffffffffffffffff\n  and\n  mul\n  or\n  swap1\n  sstore\n  pop\n    /* \"SecLessonPoc-main/contracts/externalContract/check/bank2.sol\":4327:4667  contract check is bank2{\r... */\n  jump(tag_7)\ntag_5:\n  dataSize(sub_1)\n  dup1\n  dataOffset(sub_1)\n  dup4\n  codecopy\n  add\n  swap1\n  jump\t// out\ntag_7:\n  dataSize(sub_0)\n  dup1\n  dataOffset(sub_0)\n  0x00\n  codecopy\n  0x00\n  return\nstop\n\nsub_0: assembly {\n        /* \"SecLessonPoc-main/contracts/externalContract/check/bank2.sol\":4327:4667  contract check is bank2{\r... */\n      mstore(0x40, 0x80)\n      callvalue\n      dup1\n      iszero\n      tag_1\n      jumpi\n      0x00\n      dup1\n      revert\n    tag_1:\n      pop\n      jumpi(tag_2, lt(calldatasize, 0x04))\n      shr(0xe0, calldataload(0x00))\n      dup1\n      0x030bd8c9\n      eq\n      tag_3\n      jumpi\n      dup1\n      0x338b5dea\n      eq\n      tag_4\n      jumpi\n      dup1\n      0x9e281a98\n      eq\n      tag_5\n      jumpi\n      dup1\n      0xbb15dade\n      eq\n      tag_6\n      jumpi\n      dup1\n      0xefedc669\n      eq\n      tag_7\n      jumpi\n      dup1\n      0xfc0c546a\n      eq\n      tag_8\n      jumpi\n    tag_2:\n      0x00\n      dup1\n      revert\n        /* \"SecLessonPoc-main/contracts/externalContract/check/bank2.sol\":4384:4664  function isCompleted(address _token)public{\r... */\n    tag_3:\n      tag_9\n      0x04\n      dup1\n      calldatasize\n      sub\n      0x20\n      dup2\n      lt\n      iszero\n      tag_10\n      jumpi\n      0x00\n      dup1\n      revert\n    tag_10:\n      dup2\n      add\n      swap1\n      dup1\n      dup1\n      calldataload\n      0xffffffffffffffffffffffffffffffffffffffff\n      and\n      swap1\n      0x20\n      add\n      swap1\n      swap3\n      swap2\n      swap1\n      pop\n      pop\n      pop\n      tag_11\n      jump\t// in\n    tag_9:\n      stop\n        /* \"SecLessonPoc-main/contracts/externalContract/check/bank2.sol\":3484:4039  function depositToken(address _token,uint256 amount)public{\r... */\n    tag_4:\n      tag_12\n      0x04\n      dup1\n      calldatasize\n      sub\n      0x40\n      dup2\n      lt\n      iszero\n      tag_13\n      jumpi\n      0x00\n      dup1\n      revert\n    tag_13:\n      dup2\n      add\n      swap1\n      dup1\n      dup1\n      calldataload\n      0xffffffffffffffffffffffffffffffffffffffff\n      and\n      swap1\n      0x20\n      add\n      swap1\n      swap3\n      swap2\n      swap1\n      dup1\n      calldataload\n      swap1\n      0x20\n      add\n      swap1\n      swap3\n      swap2\n      swap1\n      pop\n      pop\n      pop\n      tag_14\n      jump\t// in\n    tag_12:\n      stop\n        /* \"SecLessonPoc-main/contracts/externalContract/check/bank2.sol\":4047:4312  function withdrawToken(address _token,uint256 amount)public{\r... */\n    tag_5:\n      tag_15\n      0x04\n      dup1\n      calldatasize\n      sub\n      0x40\n      dup2\n      lt\n      iszero\n      tag_16\n      jumpi\n      0x00\n      dup1\n      revert\n    tag_16:\n      dup2\n      add\n      swap1\n      dup1\n      dup1\n      calldataload\n      0xffffffffffffffffffffffffffffffffffffffff\n      and\n      swap1\n      0x20\n      add\n      swap1\n      swap3\n      swap2\n      swap1\n      dup1\n      calldataload\n      swap1\n      0x20\n      add\n      swap1\n      swap3\n      swap2\n      swap1\n      pop\n      pop\n      pop\n      tag_17\n      jump\t// in\n    tag_15:\n      stop\n        /* \"SecLessonPoc-main/contracts/externalContract/check/bank2.sol\":3281:3478  function getOneToken()public{\r... */\n    tag_6:\n      tag_18\n      tag_19\n      jump\t// in\n    tag_18:\n      stop\n        /* \"SecLessonPoc-main/contracts/externalContract/check/bank2.sol\":4357:4377  uint256 public score */\n    tag_7:\n      tag_20\n      tag_21\n      jump\t// in\n    tag_20:\n      mload(0x40)\n      dup1\n      dup3\n      dup2\n      mstore\n      0x20\n      add\n      swap2\n      pop\n      pop\n      mload(0x40)\n      dup1\n      swap2\n      sub\n      swap1\n      return\n        /* \"SecLessonPoc-main/contracts/externalContract/check/bank2.sol\":3199:3217  ERC20 public token */\n    tag_8:\n      tag_22\n      tag_23\n      jump\t// in\n    tag_22:\n      mload(0x40)\n      dup1\n      dup3\n      0xffffffffffffffffffffffffffffffffffffffff\n      and\n      dup2\n      mstore\n      0x20\n      add\n      swap2\n      pop\n      pop\n      mload(0x40)\n      dup1\n      swap2\n      sub\n      swap1\n      return\n        /* \"SecLessonPoc-main/contracts/externalContract/check/bank2.sol\":4384:4664  function isCompleted(address _token)public{\r... */\n    tag_11:\n        /* \"SecLessonPoc-main/contracts/externalContract/check/bank2.sol\":4444:4445  0 */\n      0x00\n        /* \"SecLessonPoc-main/contracts/externalContract/check/bank2.sol\":4437:4442  score */\n      0x02\n        /* \"SecLessonPoc-main/contracts/externalContract/check/bank2.sol\":4437:4445  score =0 */\n      dup2\n      swap1\n      sstore\n      pop\n        /* \"SecLessonPoc-main/contracts/externalContract/check/bank2.sol\":4497:4505  10 ether */\n      0x8ac7230489e80000\n        /* \"SecLessonPoc-main/contracts/externalContract/check/bank2.sol\":4459:4467  accounts */\n      0x00\n        /* \"SecLessonPoc-main/contracts/externalContract/check/bank2.sol\":4459:4479  accounts[msg.sender] */\n      dup1\n        /* \"SecLessonPoc-main/contracts/externalContract/check/bank2.sol\":4468:4478  msg.sender */\n      caller\n        /* \"SecLessonPoc-main/contracts/externalContract/check/bank2.sol\":4459:4479  accounts[msg.sender] */\n      0xffffffffffffffffffffffffffffffffffffffff\n      and\n      0xffffffffffffffffffffffffffffffffffffffff\n      and\n      dup2\n      mstore\n      0x20\n      add\n      swap1\n      dup2\n      mstore\n      0x20\n      add\n      0x00\n      keccak256\n        /* \"SecLessonPoc-main/contracts/externalContract/check/bank2.sol\":4459:4495  accounts[msg.sender][address(token)] */\n      0x00\n        /* \"SecLessonPoc-main/contracts/externalContract/check/bank2.sol\":4488:4493  token */\n      0x01\n      0x00\n      swap1\n      sload\n      swap1\n      0x0100\n      exp\n      swap1\n      div\n      0xffffffffffffffffffffffffffffffffffffffff\n      and\n        /* \"SecLessonPoc-main/contracts/externalContract/check/bank2.sol\":4459:4495  accounts[msg.sender][address(token)] */\n      0xffffffffffffffffffffffffffffffffffffffff\n      and\n      0xffffffffffffffffffffffffffffffffffffffff\n      and\n      dup2\n      mstore\n      0x20\n      add\n      swap1\n      dup2\n      mstore\n      0x20\n      add\n      0x00\n      keccak256\n      sload\n        /* \"SecLessonPoc-main/contracts/externalContract/check/bank2.sol\":4459:4505  accounts[msg.sender][address(token)]>=10 ether */\n      lt\n        /* \"SecLessonPoc-main/contracts/externalContract/check/bank2.sol\":4456:4542  if(accounts[msg.sender][address(token)]>=10 ether){\r... */\n      tag_25\n      jumpi\n        /* \"SecLessonPoc-main/contracts/externalContract/check/bank2.sol\":4528:4530  25 */\n      0x19\n        /* \"SecLessonPoc-main/contracts/externalContract/check/bank2.sol\":4521:4526  score */\n      0x02\n      0x00\n        /* \"SecLessonPoc-main/contracts/externalContract/check/bank2.sol\":4521:4530  score+=25 */\n      dup3\n      dup3\n      sload\n      add\n      swap3\n      pop\n      pop\n      dup2\n      swap1\n      sstore\n      pop\n        /* \"SecLessonPoc-main/contracts/externalContract/check/bank2.sol\":4456:4542  if(accounts[msg.sender][address(token)]>=10 ether){\r... */\n    tag_25:\n        /* \"SecLessonPoc-main/contracts/externalContract/check/bank2.sol\":4584:4608  999999999999999999 ether */\n      0xc097ce7bc90715a56ae85c589c0000\n        /* \"SecLessonPoc-main/contracts/externalContract/check/bank2.sol\":4555:4563  accounts */\n      0x00\n        /* \"SecLessonPoc-main/contracts/externalContract/check/bank2.sol\":4555:4575  accounts[msg.sender] */\n      dup1\n        /* \"SecLessonPoc-main/contracts/externalContract/check/bank2.sol\":4564:4574  msg.sender */\n      caller\n        /* \"SecLessonPoc-main/contracts/externalContract/check/bank2.sol\":4555:4575  accounts[msg.sender] */\n      0xffffffffffffffffffffffffffffffffffffffff\n      and\n      0xffffffffffffffffffffffffffffffffffffffff\n      and\n      dup2\n      mstore\n      0x20\n      add\n      swap1\n      dup2\n      mstore\n      0x20\n      add\n      0x00\n      keccak256\n        /* \"SecLessonPoc-main/contracts/externalContract/check/bank2.sol\":4555:4583  accounts[msg.sender][_token] */\n      0x00\n        /* \"SecLessonPoc-main/contracts/externalContract/check/bank2.sol\":4576:4582  _token */\n      dup4\n        /* \"SecLessonPoc-main/contracts/externalContract/check/bank2.sol\":4555:4583  accounts[msg.sender][_token] */\n      0xffffffffffffffffffffffffffffffffffffffff\n      and\n      0xffffffffffffffffffffffffffffffffffffffff\n      and\n      dup2\n      mstore\n      0x20\n      add\n      swap1\n      dup2\n      mstore\n      0x20\n      add\n      0x00\n      keccak256\n      sload\n        /* \"SecLessonPoc-main/contracts/externalContract/check/bank2.sol\":4555:4608  accounts[msg.sender][_token]>999999999999999999 ether */\n      gt\n        /* \"SecLessonPoc-main/contracts/externalContract/check/bank2.sol\":4552:4645  if(accounts[msg.sender][_token]>999999999999999999 ether){\r... */\n      iszero\n      tag_26\n      jumpi\n        /* \"SecLessonPoc-main/contracts/externalContract/check/bank2.sol\":4631:4633  75 */\n      0x4b\n        /* \"SecLessonPoc-main/contracts/externalContract/check/bank2.sol\":4624:4629  score */\n      0x02\n      0x00\n        /* \"SecLessonPoc-main/contracts/externalContract/check/bank2.sol\":4624:4633  score+=75 */\n      dup3\n      dup3\n      sload\n      add\n      swap3\n      pop\n      pop\n      dup2\n      swap1\n      sstore\n      pop\n        /* \"SecLessonPoc-main/contracts/externalContract/check/bank2.sol\":4552:4645  if(accounts[msg.sender][_token]>999999999999999999 ether){\r... */\n    tag_26:\n        /* \"SecLessonPoc-main/contracts/externalContract/check/bank2.sol\":4384:4664  function isCompleted(address _token)public{\r... */\n      pop\n      jump\t// out\n        /* \"SecLessonPoc-main/contracts/externalContract/check/bank2.sol\":3484:4039  function depositToken(address _token,uint256 amount)public{\r... */\n    tag_14:\n        /* \"SecLessonPoc-main/contracts/externalContract/check/bank2.sol\":3569:3579  0.01 ether */\n      0x2386f26fc10000\n        /* \"SecLessonPoc-main/contracts/externalContract/check/bank2.sol\":3561:3567  amount */\n      dup2\n        /* \"SecLessonPoc-main/contracts/externalContract/check/bank2.sol\":3561:3579  amount==0.01 ether */\n      eq\n        /* \"SecLessonPoc-main/contracts/externalContract/check/bank2.sol\":3553:3580  require(amount==0.01 ether) */\n      tag_28\n      jumpi\n      0x00\n      dup1\n      revert\n    tag_28:\n        /* \"SecLessonPoc-main/contracts/externalContract/check/bank2.sol\":3591:3634  mapping(address => uint256) storage account */\n      0x00\n        /* \"SecLessonPoc-main/contracts/externalContract/check/bank2.sol\":3637:3645  accounts */\n      dup1\n        /* \"SecLessonPoc-main/contracts/externalContract/check/bank2.sol\":3637:3657  accounts[msg.sender] */\n      0x00\n        /* \"SecLessonPoc-main/contracts/externalContract/check/bank2.sol\":3646:3656  msg.sender */\n      caller\n        /* \"SecLessonPoc-main/contracts/externalContract/check/bank2.sol\":3637:3657  accounts[msg.sender] */\n      0xffffffffffffffffffffffffffffffffffffffff\n      and\n      0xffffffffffffffffffffffffffffffffffffffff\n      and\n      dup2\n      mstore\n      0x20\n      add\n      swap1\n      dup2\n      mstore\n      0x20\n      add\n      0x00\n      keccak256\n        /* \"SecLessonPoc-main/contracts/externalContract/check/bank2.sol\":3591:3657  mapping(address => uint256) storage account = accounts[msg.sender] */\n      swap1\n      pop\n        /* \"SecLessonPoc-main/contracts/externalContract/check/bank2.sol\":3668:3689  uint256 balanceBefore */\n      0x00\n        /* \"SecLessonPoc-main/contracts/externalContract/check/bank2.sol\":3703:3709  _token */\n      dup4\n        /* \"SecLessonPoc-main/contracts/externalContract/check/bank2.sol\":3692:3720  IERC20like(_token).balanceOf */\n      0xffffffffffffffffffffffffffffffffffffffff\n      and\n      0x70a08231\n        /* \"SecLessonPoc-main/contracts/externalContract/check/bank2.sol\":3729:3733  this */\n      address\n        /* \"SecLessonPoc-main/contracts/externalContract/check/bank2.sol\":3692:3735  IERC20like(_token).balanceOf(address(this)) */\n      mload(0x40)\n      dup3\n      0xffffffff\n      and\n      0xe0\n      shl\n      dup2\n      mstore\n      0x04\n      add\n      dup1\n      dup3\n      0xffffffffffffffffffffffffffffffffffffffff\n      and\n      dup2\n      mstore\n      0x20\n      add\n      swap2\n      pop\n      pop\n      0x20\n      mload(0x40)\n      dup1\n      dup4\n      sub\n      dup2\n      dup7\n      dup1\n      extcodesize\n      iszero\n      dup1\n      iszero\n      tag_29\n      jumpi\n      0x00\n      dup1\n      revert\n    tag_29:\n      pop\n      gas\n      staticcall\n      iszero\n      dup1\n      iszero\n      tag_31\n      jumpi\n      returndatasize\n      0x00\n      dup1\n      returndatacopy\n      revert(0x00, returndatasize)\n    tag_31:\n      pop\n      pop\n      pop\n      pop\n      mload(0x40)\n      returndatasize\n      0x20\n      dup2\n      lt\n      iszero\n      tag_32\n      jumpi\n      0x00\n      dup1\n      revert\n    tag_32:\n      dup2\n      add\n      swap1\n      dup1\n      dup1\n      mload\n      swap1\n      0x20\n      add\n      swap1\n      swap3\n      swap2\n      swap1\n      pop\n      pop\n      pop\n        /* \"SecLessonPoc-main/contracts/externalContract/check/bank2.sol\":3668:3735  uint256 balanceBefore = IERC20like(_token).balanceOf(address(this)) */\n      swap1\n      pop\n        /* \"SecLessonPoc-main/contracts/externalContract/check/bank2.sol\":3767:3773  _token */\n      dup4\n        /* \"SecLessonPoc-main/contracts/externalContract/check/bank2.sol\":3756:3787  IERC20like(_token).transferFrom */\n      0xffffffffffffffffffffffffffffffffffffffff\n      and\n      0x23b872dd\n        /* \"SecLessonPoc-main/contracts/externalContract/check/bank2.sol\":3788:3798  msg.sender */\n      caller\n        /* \"SecLessonPoc-main/contracts/externalContract/check/bank2.sol\":3807:3811  this */\n      address\n        /* \"SecLessonPoc-main/contracts/externalContract/check/bank2.sol\":3813:3819  amount */\n      dup7\n        /* \"SecLessonPoc-main/contracts/externalContract/check/bank2.sol\":3756:3820  IERC20like(_token).transferFrom(msg.sender,address(this),amount) */\n      mload(0x40)\n      dup5\n      0xffffffff\n      and\n      0xe0\n      shl\n      dup2\n      mstore\n      0x04\n      add\n      dup1\n      dup5\n      0xffffffffffffffffffffffffffffffffffffffff\n      and\n      dup2\n      mstore\n      0x20\n      add\n      dup4\n      0xffffffffffffffffffffffffffffffffffffffff\n      and\n      dup2\n      mstore\n      0x20\n      add\n      dup3\n      dup2\n      mstore\n      0x20\n      add\n      swap4\n      pop\n      pop\n      pop\n      pop\n      0x20\n      mload(0x40)\n      dup1\n      dup4\n      sub\n      dup2\n      0x00\n      dup8\n      dup1\n      extcodesize\n      iszero\n      dup1\n      iszero\n      tag_33\n      jumpi\n      0x00\n      dup1\n      revert\n    tag_33:\n      pop\n      gas\n      call\n      iszero\n      dup1\n      iszero\n      tag_35\n      jumpi\n      returndatasize\n      0x00\n      dup1\n      returndatacopy\n      revert(0x00, returndatasize)\n    tag_35:\n      pop\n      pop\n      pop\n      pop\n      mload(0x40)\n      returndatasize\n      0x20\n      dup2\n      lt\n      iszero\n      tag_36\n      jumpi\n      0x00\n      dup1\n      revert\n    tag_36:\n      dup2\n      add\n      swap1\n      dup1\n      dup1\n      mload\n      swap1\n      0x20\n      add\n      swap1\n      swap3\n      swap2\n      swap1\n      pop\n      pop\n      pop\n        /* \"SecLessonPoc-main/contracts/externalContract/check/bank2.sol\":3748:3843  require(IERC20like(_token).transferFrom(msg.sender,address(this),amount),\"transferFrom failed\") */\n      tag_37\n      jumpi\n      mload(0x40)\n      0x08c379a000000000000000000000000000000000000000000000000000000000\n      dup2\n      mstore\n      0x04\n      add\n      dup1\n      dup1\n      0x20\n      add\n      dup3\n      dup2\n      sub\n      dup3\n      mstore\n      0x13\n      dup2\n      mstore\n      0x20\n      add\n      dup1\n      0x7472616e7366657246726f6d206661696c656400000000000000000000000000\n      dup2\n      mstore\n      pop\n      0x20\n      add\n      swap2\n      pop\n      pop\n      mload(0x40)\n      dup1\n      swap2\n      sub\n      swap1\n      revert\n    tag_37:\n        /* \"SecLessonPoc-main/contracts/externalContract/check/bank2.sol\":3856:3876  uint256 balanceAfter */\n      0x00\n        /* \"SecLessonPoc-main/contracts/externalContract/check/bank2.sol\":3890:3896  _token */\n      dup5\n        /* \"SecLessonPoc-main/contracts/externalContract/check/bank2.sol\":3879:3907  IERC20like(_token).balanceOf */\n      0xffffffffffffffffffffffffffffffffffffffff\n      and\n      0x70a08231\n        /* \"SecLessonPoc-main/contracts/externalContract/check/bank2.sol\":3916:3920  this */\n      address\n        /* \"SecLessonPoc-main/contracts/externalContract/check/bank2.sol\":3879:3922  IERC20like(_token).balanceOf(address(this)) */\n      mload(0x40)\n      dup3\n      0xffffffff\n      and\n      0xe0\n      shl\n      dup2\n      mstore\n      0x04\n      add\n      dup1\n      dup3\n      0xffffffffffffffffffffffffffffffffffffffff\n      and\n      dup2\n      mstore\n      0x20\n      add\n      swap2\n      pop\n      pop\n      0x20\n      mload(0x40)\n      dup1\n      dup4\n      sub\n      dup2\n      dup7\n      dup1\n      extcodesize\n      iszero\n      dup1\n      iszero\n      tag_38\n      jumpi\n      0x00\n      dup1\n      revert\n    tag_38:\n      pop\n      gas\n      staticcall\n      iszero\n      dup1\n      iszero\n      tag_40\n      jumpi\n      returndatasize\n      0x00\n      dup1\n      returndatacopy\n      revert(0x00, returndatasize)\n    tag_40:\n      pop\n      pop\n      pop\n      pop\n      mload(0x40)\n      returndatasize\n      0x20\n      dup2\n      lt\n      iszero\n      tag_41\n      jumpi\n      0x00\n      dup1\n      revert\n    tag_41:\n      dup2\n      add\n      swap1\n      dup1\n      dup1\n      mload\n      swap1\n      0x20\n      add\n      swap1\n      swap3\n      swap2\n      swap1\n      pop\n      pop\n      pop\n        /* \"SecLessonPoc-main/contracts/externalContract/check/bank2.sol\":3856:3922  uint256 balanceAfter = IERC20like(_token).balanceOf(address(this)) */\n      swap1\n      pop\n        /* \"SecLessonPoc-main/contracts/externalContract/check/bank2.sol\":3971:3977  amount */\n      dup4\n        /* \"SecLessonPoc-main/contracts/externalContract/check/bank2.sol\":3956:3969  balanceBefore */\n      dup3\n        /* \"SecLessonPoc-main/contracts/externalContract/check/bank2.sol\":3941:3953  balanceAfter */\n      dup3\n        /* \"SecLessonPoc-main/contracts/externalContract/check/bank2.sol\":3941:3969  balanceAfter - balanceBefore */\n      sub\n        /* \"SecLessonPoc-main/contracts/externalContract/check/bank2.sol\":3941:3977  balanceAfter - balanceBefore==amount */\n      eq\n        /* \"SecLessonPoc-main/contracts/externalContract/check/bank2.sol\":3933:3995  require(balanceAfter - balanceBefore==amount,\"deposit failed\") */\n      tag_42\n      jumpi\n      mload(0x40)\n      0x08c379a000000000000000000000000000000000000000000000000000000000\n      dup2\n      mstore\n      0x04\n      add\n      dup1\n      dup1\n      0x20\n      add\n      dup3\n      dup2\n      sub\n      dup3\n      mstore\n      0x0e\n      dup2\n      mstore\n      0x20\n      add\n      dup1\n      0x6465706f736974206661696c6564000000000000000000000000000000000000\n      dup2\n      mstore\n      pop\n      0x20\n      add\n      swap2\n      pop\n      pop\n      mload(0x40)\n      dup1\n      swap2\n      sub\n      swap1\n      revert\n    tag_42:\n        /* \"SecLessonPoc-main/contracts/externalContract/check/bank2.sol\":4025:4031  amount */\n      dup4\n        /* \"SecLessonPoc-main/contracts/externalContract/check/bank2.sol\":4008:4015  account */\n      dup4\n        /* \"SecLessonPoc-main/contracts/externalContract/check/bank2.sol\":4008:4023  account[_token] */\n      0x00\n        /* \"SecLessonPoc-main/contracts/externalContract/check/bank2.sol\":4016:4022  _token */\n      dup8\n        /* \"SecLessonPoc-main/contracts/externalContract/check/bank2.sol\":4008:4023  account[_token] */\n      0xffffffffffffffffffffffffffffffffffffffff\n      and\n      0xffffffffffffffffffffffffffffffffffffffff\n      and\n      dup2\n      mstore\n      0x20\n      add\n      swap1\n      dup2\n      mstore\n      0x20\n      add\n      0x00\n      keccak256\n      0x00\n        /* \"SecLessonPoc-main/contracts/externalContract/check/bank2.sol\":4008:4031  account[_token]+=amount */\n      dup3\n      dup3\n      sload\n      add\n      swap3\n      pop\n      pop\n      dup2\n      swap1\n      sstore\n      pop\n        /* \"SecLessonPoc-main/contracts/externalContract/check/bank2.sol\":3484:4039  function depositToken(address _token,uint256 amount)public{\r... */\n      pop\n      pop\n      pop\n      pop\n      pop\n      jump\t// out\n        /* \"SecLessonPoc-main/contracts/externalContract/check/bank2.sol\":4047:4312  function withdrawToken(address _token,uint256 amount)public{\r... */\n    tag_17:\n        /* \"SecLessonPoc-main/contracts/externalContract/check/bank2.sol\":4117:4132  uint256 balance */\n      0x00\n        /* \"SecLessonPoc-main/contracts/externalContract/check/bank2.sol\":4135:4143  accounts */\n      dup1\n        /* \"SecLessonPoc-main/contracts/externalContract/check/bank2.sol\":4135:4155  accounts[msg.sender] */\n      0x00\n        /* \"SecLessonPoc-main/contracts/externalContract/check/bank2.sol\":4144:4154  msg.sender */\n      caller\n        /* \"SecLessonPoc-main/contracts/externalContract/check/bank2.sol\":4135:4155  accounts[msg.sender] */\n      0xffffffffffffffffffffffffffffffffffffffff\n      and\n      0xffffffffffffffffffffffffffffffffffffffff\n      and\n      dup2\n      mstore\n      0x20\n      add\n      swap1\n      dup2\n      mstore\n      0x20\n      add\n      0x00\n      keccak256\n        /* \"SecLessonPoc-main/contracts/externalContract/check/bank2.sol\":4135:4163  accounts[msg.sender][_token] */\n      0x00\n        /* \"SecLessonPoc-main/contracts/externalContract/check/bank2.sol\":4156:4162  _token */\n      dup5\n        /* \"SecLessonPoc-main/contracts/externalContract/check/bank2.sol\":4135:4163  accounts[msg.sender][_token] */\n      0xffffffffffffffffffffffffffffffffffffffff\n      and\n      0xffffffffffffffffffffffffffffffffffffffff\n      and\n      dup2\n      mstore\n      0x20\n      add\n      swap1\n      dup2\n      mstore\n      0x20\n      add\n      0x00\n      keccak256\n      sload\n        /* \"SecLessonPoc-main/contracts/externalContract/check/bank2.sol\":4117:4163  uint256 balance = accounts[msg.sender][_token] */\n      swap1\n      pop\n        /* \"SecLessonPoc-main/contracts/externalContract/check/bank2.sol\":4190:4197  balance */\n      dup1\n        /* \"SecLessonPoc-main/contracts/externalContract/check/bank2.sol\":4182:4188  amount */\n      dup3\n        /* \"SecLessonPoc-main/contracts/externalContract/check/bank2.sol\":4182:4197  amount<=balance */\n      gt\n      iszero\n        /* \"SecLessonPoc-main/contracts/externalContract/check/bank2.sol\":4174:4198  require(amount<=balance) */\n      tag_44\n      jumpi\n      0x00\n      dup1\n      revert\n    tag_44:\n        /* \"SecLessonPoc-main/contracts/externalContract/check/bank2.sol\":4222:4228  _token */\n      dup3\n        /* \"SecLessonPoc-main/contracts/externalContract/check/bank2.sol\":4211:4238  IERC20like(_token).transfer */\n      0xffffffffffffffffffffffffffffffffffffffff\n      and\n      0xa9059cbb\n        /* \"SecLessonPoc-main/contracts/externalContract/check/bank2.sol\":4239:4249  msg.sender */\n      caller\n        /* \"SecLessonPoc-main/contracts/externalContract/check/bank2.sol\":4250:4256  amount */\n      dup5\n        /* \"SecLessonPoc-main/contracts/externalContract/check/bank2.sol\":4211:4257  IERC20like(_token).transfer(msg.sender,amount) */\n      mload(0x40)\n      dup4\n      0xffffffff\n      and\n      0xe0\n      shl\n      dup2\n      mstore\n      0x04\n      add\n      dup1\n      dup4\n      0xffffffffffffffffffffffffffffffffffffffff\n      and\n      dup2\n      mstore\n      0x20\n      add\n      dup3\n      dup2\n      mstore\n      0x20\n      add\n      swap3\n      pop\n      pop\n      pop\n      0x20\n      mload(0x40)\n      dup1\n      dup4\n      sub\n      dup2\n      0x00\n      dup8\n      dup1\n      extcodesize\n      iszero\n      dup1\n      iszero\n      tag_45\n      jumpi\n      0x00\n      dup1\n      revert\n    tag_45:\n      pop\n      gas\n      call\n      iszero\n      dup1\n      iszero\n      tag_47\n      jumpi\n      returndatasize\n      0x00\n      dup1\n      returndatacopy\n      revert(0x00, returndatasize)\n    tag_47:\n      pop\n      pop\n      pop\n      pop\n      mload(0x40)\n      returndatasize\n      0x20\n      dup2\n      lt\n      iszero\n      tag_48\n      jumpi\n      0x00\n      dup1\n      revert\n    tag_48:\n      dup2\n      add\n      swap1\n      dup1\n      dup1\n      mload\n      swap1\n      0x20\n      add\n      swap1\n      swap3\n      swap2\n      swap1\n      pop\n      pop\n      pop\n      pop\n        /* \"SecLessonPoc-main/contracts/externalContract/check/bank2.sol\":4298:4304  amount */\n      dup2\n        /* \"SecLessonPoc-main/contracts/externalContract/check/bank2.sol\":4268:4276  accounts */\n      0x00\n        /* \"SecLessonPoc-main/contracts/externalContract/check/bank2.sol\":4268:4288  accounts[msg.sender] */\n      dup1\n        /* \"SecLessonPoc-main/contracts/externalContract/check/bank2.sol\":4277:4287  msg.sender */\n      caller\n        /* \"SecLessonPoc-main/contracts/externalContract/check/bank2.sol\":4268:4288  accounts[msg.sender] */\n      0xffffffffffffffffffffffffffffffffffffffff\n      and\n      0xffffffffffffffffffffffffffffffffffffffff\n      and\n      dup2\n      mstore\n      0x20\n      add\n      swap1\n      dup2\n      mstore\n      0x20\n      add\n      0x00\n      keccak256\n        /* \"SecLessonPoc-main/contracts/externalContract/check/bank2.sol\":4268:4296  accounts[msg.sender][_token] */\n      0x00\n        /* \"SecLessonPoc-main/contracts/externalContract/check/bank2.sol\":4289:4295  _token */\n      dup6\n        /* \"SecLessonPoc-main/contracts/externalContract/check/bank2.sol\":4268:4296  accounts[msg.sender][_token] */\n      0xffffffffffffffffffffffffffffffffffffffff\n      and\n      0xffffffffffffffffffffffffffffffffffffffff\n      and\n      dup2\n      mstore\n      0x20\n      add\n      swap1\n      dup2\n      mstore\n      0x20\n      add\n      0x00\n      keccak256\n      0x00\n        /* \"SecLessonPoc-main/contracts/externalContract/check/bank2.sol\":4268:4304  accounts[msg.sender][_token]-=amount */\n      dup3\n      dup3\n      sload\n      sub\n      swap3\n      pop\n      pop\n      dup2\n      swap1\n      sstore\n      pop\n        /* \"SecLessonPoc-main/contracts/externalContract/check/bank2.sol\":4047:4312  function withdrawToken(address _token,uint256 amount)public{\r... */\n      pop\n      pop\n      pop\n      jump\t// out\n        /* \"SecLessonPoc-main/contracts/externalContract/check/bank2.sol\":3281:3478  function getOneToken()public{\r... */\n    tag_19:\n        /* \"SecLessonPoc-main/contracts/externalContract/check/bank2.sol\":3347:3348  0 */\n      0x00\n        /* \"SecLessonPoc-main/contracts/externalContract/check/bank2.sol\":3343:3345  44 */\n      0x2c\n        /* \"SecLessonPoc-main/contracts/externalContract/check/bank2.sol\":3331:3341  msg.sender */\n      caller\n        /* \"SecLessonPoc-main/contracts/externalContract/check/bank2.sol\":3323:3345  uint160(msg.sender)%44 */\n      0xffffffffffffffffffffffffffffffffffffffff\n      and\n      dup2\n      tag_50\n      jumpi\n      invalid\n    tag_50:\n      mod\n        /* \"SecLessonPoc-main/contracts/externalContract/check/bank2.sol\":3323:3348  uint160(msg.sender)%44==0 */\n      0xffffffffffffffffffffffffffffffffffffffff\n      and\n      eq\n        /* \"SecLessonPoc-main/contracts/externalContract/check/bank2.sol\":3320:3471  if(uint160(msg.sender)%44==0){\r... */\n      iszero\n      tag_51\n      jumpi\n        /* \"SecLessonPoc-main/contracts/externalContract/check/bank2.sol\":3364:3369  token */\n      0x01\n      0x00\n      swap1\n      sload\n      swap1\n      0x0100\n      exp\n      swap1\n      div\n      0xffffffffffffffffffffffffffffffffffffffff\n      and\n        /* \"SecLessonPoc-main/contracts/externalContract/check/bank2.sol\":3364:3378  token.transfer */\n      0xffffffffffffffffffffffffffffffffffffffff\n      and\n      0xa9059cbb\n        /* \"SecLessonPoc-main/contracts/externalContract/check/bank2.sol\":3379:3389  msg.sender */\n      caller\n        /* \"SecLessonPoc-main/contracts/externalContract/check/bank2.sol\":3390:3398  10 ether */\n      0x8ac7230489e80000\n        /* \"SecLessonPoc-main/contracts/externalContract/check/bank2.sol\":3364:3399  token.transfer(msg.sender,10 ether) */\n      mload(0x40)\n      dup4\n      0xffffffff\n      and\n      0xe0\n      shl\n      dup2\n      mstore\n      0x04\n      add\n      dup1\n      dup4\n      0xffffffffffffffffffffffffffffffffffffffff\n      and\n      dup2\n      mstore\n      0x20\n      add\n      dup3\n      dup2\n      mstore\n      0x20\n      add\n      swap3\n      pop\n      pop\n      pop\n      0x20\n      mload(0x40)\n      dup1\n      dup4\n      sub\n      dup2\n      0x00\n      dup8\n      dup1\n      extcodesize\n      iszero\n      dup1\n      iszero\n      tag_52\n      jumpi\n      0x00\n      dup1\n      revert\n    tag_52:\n      pop\n      gas\n      call\n      iszero\n      dup1\n      iszero\n      tag_54\n      jumpi\n      returndatasize\n      0x00\n      dup1\n      returndatacopy\n      revert(0x00, returndatasize)\n    tag_54:\n      pop\n      pop\n      pop\n      pop\n      mload(0x40)\n      returndatasize\n      0x20\n      dup2\n      lt\n      iszero\n      tag_55\n      jumpi\n      0x00\n      dup1\n      revert\n    tag_55:\n      dup2\n      add\n      swap1\n      dup1\n      dup1\n      mload\n      swap1\n      0x20\n      add\n      swap1\n      swap3\n      swap2\n      swap1\n      pop\n      pop\n      pop\n      pop\n        /* \"SecLessonPoc-main/contracts/externalContract/check/bank2.sol\":3451:3459  10 ether */\n      0x8ac7230489e80000\n        /* \"SecLessonPoc-main/contracts/externalContract/check/bank2.sol\":3414:3422  accounts */\n      0x00\n        /* \"SecLessonPoc-main/contracts/externalContract/check/bank2.sol\":3414:3434  accounts[msg.sender] */\n      dup1\n        /* \"SecLessonPoc-main/contracts/externalContract/check/bank2.sol\":3423:3433  msg.sender */\n      caller\n        /* \"SecLessonPoc-main/contracts/externalContract/check/bank2.sol\":3414:3434  accounts[msg.sender] */\n      0xffffffffffffffffffffffffffffffffffffffff\n      and\n      0xffffffffffffffffffffffffffffffffffffffff\n      and\n      dup2\n      mstore\n      0x20\n      add\n      swap1\n      dup2\n      mstore\n      0x20\n      add\n      0x00\n      keccak256\n        /* \"SecLessonPoc-main/contracts/externalContract/check/bank2.sol\":3414:3450  accounts[msg.sender][address(token)] */\n      0x00\n        /* \"SecLessonPoc-main/contracts/externalContract/check/bank2.sol\":3443:3448  token */\n      0x01\n      0x00\n      swap1\n      sload\n      swap1\n      0x0100\n      exp\n      swap1\n      div\n      0xffffffffffffffffffffffffffffffffffffffff\n      and\n        /* \"SecLessonPoc-main/contracts/externalContract/check/bank2.sol\":3414:3450  accounts[msg.sender][address(token)] */\n      0xffffffffffffffffffffffffffffffffffffffff\n      and\n      0xffffffffffffffffffffffffffffffffffffffff\n      and\n      dup2\n      mstore\n      0x20\n      add\n      swap1\n      dup2\n      mstore\n      0x20\n      add\n      0x00\n      keccak256\n        /* \"SecLessonPoc-main/contracts/externalContract/check/bank2.sol\":3414:3459  accounts[msg.sender][address(token)]=10 ether */\n      dup2\n      swap1\n      sstore\n      pop\n        /* \"SecLessonPoc-main/contracts/externalContract/check/bank2.sol\":3320:3471  if(uint160(msg.sender)%44==0){\r... */\n    tag_51:\n        /* \"SecLessonPoc-main/contracts/externalContract/check/bank2.sol\":3281:3478  function getOneToken()public{\r... */\n      jump\t// out\n        /* \"SecLessonPoc-main/contracts/externalContract/check/bank2.sol\":4357:4377  uint256 public score */\n    tag_21:\n      sload(0x02)\n      dup2\n      jump\t// out\n        /* \"SecLessonPoc-main/contracts/externalContract/check/bank2.sol\":3199:3217  ERC20 public token */\n    tag_23:\n      0x01\n      0x00\n      swap1\n      sload\n      swap1\n      0x0100\n      exp\n      swap1\n      div\n      0xffffffffffffffffffffffffffffffffffffffff\n      and\n      dup2\n      jump\t// out\n\n    auxdata: 0xa264697066735822122075e5de1947b6f1b5450b63c4fa8223c78f28e59ef09882cdf9d4bd4fae7efa3e64736f6c63430007060033\n}\n\nsub_1: assembly {\n        /* \"SecLessonPoc-main/contracts/externalContract/check/bank2.sol\":1287:3105  contract ERC20 is IERC20 {\r... */\n      mstore(0x40, 0x80)\n        /* \"SecLessonPoc-main/contracts/externalContract/check/bank2.sol\":1584:1592  10 ether */\n      0x8ac7230489e80000\n        /* \"SecLessonPoc-main/contracts/externalContract/check/bank2.sol\":1561:1592  uint256 totalSupply_ = 10 ether */\n      0x02\n      sstore\n        /* \"SecLessonPoc-main/contracts/externalContract/check/bank2.sol\":1602:1666  constructor() {\r... */\n      callvalue\n      dup1\n      iszero\n      tag_1\n      jumpi\n      0x00\n      dup1\n      revert\n    tag_1:\n      pop\n        /* \"SecLessonPoc-main/contracts/externalContract/check/bank2.sol\":1646:1658  totalSupply_ */\n      sload(0x02)\n        /* \"SecLessonPoc-main/contracts/externalContract/check/bank2.sol\":1623:1631  balances */\n      0x00\n        /* \"SecLessonPoc-main/contracts/externalContract/check/bank2.sol\":1623:1643  balances[msg.sender] */\n      dup1\n        /* \"SecLessonPoc-main/contracts/externalContract/check/bank2.sol\":1632:1642  msg.sender */\n      caller\n        /* \"SecLessonPoc-main/contracts/externalContract/check/bank2.sol\":1623:1643  balances[msg.sender] */\n      0xffffffffffffffffffffffffffffffffffffffff\n      and\n      0xffffffffffffffffffffffffffffffffffffffff\n      and\n      dup2\n      mstore\n      0x20\n      add\n      swap1\n      dup2\n      mstore\n      0x20\n      add\n      0x00\n      keccak256\n        /* \"SecLessonPoc-main/contracts/externalContract/check/bank2.sol\":1623:1658  balances[msg.sender] = totalSupply_ */\n      dup2\n      swap1\n      sstore\n      pop\n        /* \"SecLessonPoc-main/contracts/externalContract/check/bank2.sol\":1287:3105  contract ERC20 is IERC20 {\r... */\n      dataSize(sub_0)\n      dup1\n      dataOffset(sub_0)\n      0x00\n      codecopy\n      0x00\n      return\n    stop\n\n    sub_0: assembly {\n            /* \"SecLessonPoc-main/contracts/externalContract/check/bank2.sol\":1287:3105  contract ERC20 is IERC20 {\r... */\n          mstore(0x40, 0x80)\n          callvalue\n          dup1\n          iszero\n          tag_1\n          jumpi\n          0x00\n          dup1\n          revert\n        tag_1:\n          pop\n          jumpi(tag_2, lt(calldatasize, 0x04))\n          shr(0xe0, calldataload(0x00))\n          dup1\n          0x313ce567\n          gt\n          tag_12\n          jumpi\n          dup1\n          0x313ce567\n          eq\n          tag_7\n          jumpi\n          dup1\n          0x70a08231\n          eq\n          tag_8\n          jumpi\n          dup1\n          0x95d89b41\n          eq\n          tag_9\n          jumpi\n          dup1\n          0xa9059cbb\n          eq\n          tag_10\n          jumpi\n          dup1\n          0xdd62ed3e\n          eq\n          tag_11\n          jumpi\n          jump(tag_2)\n        tag_12:\n          dup1\n          0x06fdde03\n          eq\n          tag_3\n          jumpi\n          dup1\n          0x095ea7b3\n          eq\n          tag_4\n          jumpi\n          dup1\n          0x18160ddd\n          eq\n          tag_5\n          jumpi\n          dup1\n          0x23b872dd\n          eq\n          tag_6\n          jumpi\n        tag_2:\n          0x00\n          dup1\n          revert\n            /* \"SecLessonPoc-main/contracts/externalContract/check/bank2.sol\":1321:1358  string public constant name = \"ERC20\" */\n        tag_3:\n          tag_13\n          tag_14\n          jump\t// in\n        tag_13:\n          mload(0x40)\n          dup1\n          dup1\n          0x20\n          add\n          dup3\n          dup2\n          sub\n          dup3\n          mstore\n          dup4\n          dup2\n          dup2\n          mload\n          dup2\n          mstore\n          0x20\n          add\n          swap2\n          pop\n          dup1\n          mload\n          swap1\n          0x20\n          add\n          swap1\n          dup1\n          dup4\n          dup4\n          0x00\n        tag_15:\n          dup4\n          dup2\n          lt\n          iszero\n          tag_17\n          jumpi\n          dup1\n          dup3\n          add\n          mload\n          dup2\n          dup5\n          add\n          mstore\n          0x20\n          dup2\n          add\n          swap1\n          pop\n          jump(tag_15)\n        tag_17:\n          pop\n          pop\n          pop\n          pop\n          swap1\n          pop\n          swap1\n          dup2\n          add\n          swap1\n          0x1f\n          and\n          dup1\n          iszero\n          tag_18\n          jumpi\n          dup1\n          dup3\n          sub\n          dup1\n          mload\n          0x01\n          dup4\n          0x20\n          sub\n          0x0100\n          exp\n          sub\n          not\n          and\n          dup2\n          mstore\n          0x20\n          add\n          swap2\n          pop\n        tag_18:\n          pop\n          swap3\n          pop\n          pop\n          pop\n          mload(0x40)\n          dup1\n          swap2\n          sub\n          swap1\n          return\n            /* \"SecLessonPoc-main/contracts/externalContract/check/bank2.sol\":2249:2461  function approve(address spender, uint256 amount) public override returns (bool) {\r... */\n        tag_4:\n          tag_19\n          0x04\n          dup1\n          calldatasize\n          sub\n          0x40\n          dup2\n          lt\n          iszero\n          tag_20\n          jumpi\n          0x00\n          dup1\n          revert\n        tag_20:\n          dup2\n          add\n          swap1\n          dup1\n          dup1\n          calldataload\n          0xffffffffffffffffffffffffffffffffffffffff\n          and\n          swap1\n          0x20\n          add\n          swap1\n          swap3\n          swap2\n          swap1\n          dup1\n          calldataload\n          swap1\n          0x20\n          add\n          swap1\n          swap3\n          swap2\n          swap1\n          pop\n          pop\n          pop\n          tag_21\n          jump\t// in\n        tag_19:\n          mload(0x40)\n          dup1\n          dup3\n          iszero\n          iszero\n          dup2\n          mstore\n          0x20\n          add\n          swap2\n          pop\n          pop\n          mload(0x40)\n          dup1\n          swap2\n          sub\n          swap1\n          return\n            /* \"SecLessonPoc-main/contracts/externalContract/check/bank2.sol\":1672:1772  function totalSupply() public override view returns (uint256) {\r... */\n        tag_5:\n          tag_22\n          tag_23\n          jump\t// in\n        tag_22:\n          mload(0x40)\n          dup1\n          dup3\n          dup2\n          mstore\n          0x20\n          add\n          swap2\n          pop\n          pop\n          mload(0x40)\n          dup1\n          swap2\n          sub\n          swap1\n          return\n            /* \"SecLessonPoc-main/contracts/externalContract/check/bank2.sol\":2615:3102  function transferFrom(address sender, address recipient, uint256 amount) public override returns (bool) {\r... */\n        tag_6:\n          tag_24\n          0x04\n          dup1\n          calldatasize\n          sub\n          0x60\n          dup2\n          lt\n          iszero\n          tag_25\n          jumpi\n          0x00\n          dup1\n          revert\n        tag_25:\n          dup2\n          add\n          swap1\n          dup1\n          dup1\n          calldataload\n          0xffffffffffffffffffffffffffffffffffffffff\n          and\n          swap1\n          0x20\n          add\n          swap1\n          swap3\n          swap2\n          swap1\n          dup1\n          calldataload\n          0xffffffffffffffffffffffffffffffffffffffff\n          and\n          swap1\n          0x20\n          add\n          swap1\n          swap3\n          swap2\n          swap1\n          dup1\n          calldataload\n          swap1\n          0x20\n          add\n          swap1\n          swap3\n          swap2\n          swap1\n          pop\n          pop\n          pop\n          tag_26\n          jump\t// in\n        tag_24:\n          mload(0x40)\n          dup1\n          dup3\n          iszero\n          iszero\n          dup2\n          mstore\n          0x20\n          add\n          swap2\n          pop\n          pop\n          mload(0x40)\n          dup1\n          swap2\n          sub\n          swap1\n          return\n            /* \"SecLessonPoc-main/contracts/externalContract/check/bank2.sol\":1409:1444  uint8 public constant decimals = 18 */\n        tag_7:\n          tag_27\n          tag_28\n          jump\t// in\n        tag_27:\n          mload(0x40)\n          dup1\n          dup3\n          0xff\n          and\n          dup2\n          mstore\n          0x20\n          add\n          swap2\n          pop\n          pop\n          mload(0x40)\n          dup1\n          swap2\n          sub\n          swap1\n          return\n            /* \"SecLessonPoc-main/contracts/externalContract/check/bank2.sol\":1780:1898  function balanceOf(address account) public override view returns (uint256) {\r... */\n        tag_8:\n          tag_29\n          0x04\n          dup1\n          calldatasize\n          sub\n          0x20\n          dup2\n          lt\n          iszero\n          tag_30\n          jumpi\n          0x00\n          dup1\n          revert\n        tag_30:\n          dup2\n          add\n          swap1\n          dup1\n          dup1\n          calldataload\n          0xffffffffffffffffffffffffffffffffffffffff\n          and\n          swap1\n          0x20\n          add\n          swap1\n          swap3\n          swap2\n          swap1\n          pop\n          pop\n          pop\n          tag_31\n          jump\t// in\n        tag_29:\n          mload(0x40)\n          dup1\n          dup3\n          dup2\n          mstore\n          0x20\n          add\n          swap2\n          pop\n          pop\n          mload(0x40)\n          dup1\n          swap2\n          sub\n          swap1\n          return\n            /* \"SecLessonPoc-main/contracts/externalContract/check/bank2.sol\":1365:1402  string public constant symbol = \"ERC\" */\n        tag_9:\n          tag_32\n          tag_33\n          jump\t// in\n        tag_32:\n          mload(0x40)\n          dup1\n          dup1\n          0x20\n          add\n          dup3\n          dup2\n          sub\n          dup3\n          mstore\n          dup4\n          dup2\n          dup2\n          mload\n          dup2\n          mstore\n          0x20\n          add\n          swap2\n          pop\n          dup1\n          mload\n          swap1\n          0x20\n          add\n          swap1\n          dup1\n          dup4\n          dup4\n          0x00\n        tag_34:\n          dup4\n          dup2\n          lt\n          iszero\n          tag_36\n          jumpi\n          dup1\n          dup3\n          add\n          mload\n          dup2\n          dup5\n          add\n          mstore\n          0x20\n          dup2\n          add\n          swap1\n          pop\n          jump(tag_34)\n        tag_36:\n          pop\n          pop\n          pop\n          pop\n          swap1\n          pop\n          swap1\n          dup2\n          add\n          swap1\n          0x1f\n          and\n          dup1\n          iszero\n          tag_37\n          jumpi\n          dup1\n          dup3\n          sub\n          dup1\n          mload\n          0x01\n          dup4\n          0x20\n          sub\n          0x0100\n          exp\n          sub\n          not\n          and\n          dup2\n          mstore\n          0x20\n          add\n          swap2\n          pop\n        tag_37:\n          pop\n          swap3\n          pop\n          pop\n          pop\n          mload(0x40)\n          dup1\n          swap2\n          sub\n          swap1\n          return\n            /* \"SecLessonPoc-main/contracts/externalContract/check/bank2.sol\":1906:2241  function transfer(address receiver, uint256 amount) public override returns (bool) {\r... */\n        tag_10:\n          tag_38\n          0x04\n          dup1\n          calldatasize\n          sub\n          0x40\n          dup2\n          lt\n          iszero\n          tag_39\n          jumpi\n          0x00\n          dup1\n          revert\n        tag_39:\n          dup2\n          add\n          swap1\n          dup1\n          dup1\n          calldataload\n          0xffffffffffffffffffffffffffffffffffffffff\n          and\n          swap1\n          0x20\n          add\n          swap1\n          swap3\n          swap2\n          swap1\n          dup1\n          calldataload\n          swap1\n          0x20\n          add\n          swap1\n          swap3\n          swap2\n          swap1\n          pop\n          pop\n          pop\n          tag_40\n          jump\t// in\n        tag_38:\n          mload(0x40)\n          dup1\n          dup3\n          iszero\n          iszero\n          dup2\n          mstore\n          0x20\n          add\n          swap2\n          pop\n          pop\n          mload(0x40)\n          dup1\n          swap2\n          sub\n          swap1\n          return\n            /* \"SecLessonPoc-main/contracts/externalContract/check/bank2.sol\":2469:2607  function allowance(address sender, address spender) public override view returns (uint) {\r... */\n        tag_11:\n          tag_41\n          0x04\n          dup1\n          calldatasize\n          sub\n          0x40\n          dup2\n          lt\n          iszero\n          tag_42\n          jumpi\n          0x00\n          dup1\n          revert\n        tag_42:\n          dup2\n          add\n          swap1\n          dup1\n          dup1\n          calldataload\n          0xffffffffffffffffffffffffffffffffffffffff\n          and\n          swap1\n          0x20\n          add\n          swap1\n          swap3\n          swap2\n          swap1\n          dup1\n          calldataload\n          0xffffffffffffffffffffffffffffffffffffffff\n          and\n          swap1\n          0x20\n          add\n          swap1\n          swap3\n          swap2\n          swap1\n          pop\n          pop\n          pop\n          tag_43\n          jump\t// in\n        tag_41:\n          mload(0x40)\n          dup1\n          dup3\n          dup2\n          mstore\n          0x20\n          add\n          swap2\n          pop\n          pop\n          mload(0x40)\n          dup1\n          swap2\n          sub\n          swap1\n          return\n            /* \"SecLessonPoc-main/contracts/externalContract/check/bank2.sol\":1321:1358  string public constant name = \"ERC20\" */\n        tag_14:\n          mload(0x40)\n          dup1\n          0x40\n          add\n          0x40\n          mstore\n          dup1\n          0x05\n          dup2\n          mstore\n          0x20\n          add\n          0x4552433230000000000000000000000000000000000000000000000000000000\n          dup2\n          mstore\n          pop\n          dup2\n          jump\t// out\n            /* \"SecLessonPoc-main/contracts/externalContract/check/bank2.sol\":2249:2461  function approve(address spender, uint256 amount) public override returns (bool) {\r... */\n        tag_21:\n            /* \"SecLessonPoc-main/contracts/externalContract/check/bank2.sol\":2324:2328  bool */\n          0x00\n            /* \"SecLessonPoc-main/contracts/externalContract/check/bank2.sol\":2372:2378  amount */\n          dup2\n            /* \"SecLessonPoc-main/contracts/externalContract/check/bank2.sol\":2341:2348  allowed */\n          0x01\n            /* \"SecLessonPoc-main/contracts/externalContract/check/bank2.sol\":2341:2360  allowed[msg.sender] */\n          0x00\n            /* \"SecLessonPoc-main/contracts/externalContract/check/bank2.sol\":2349:2359  msg.sender */\n          caller\n            /* \"SecLessonPoc-main/contracts/externalContract/check/bank2.sol\":2341:2360  allowed[msg.sender] */\n          0xffffffffffffffffffffffffffffffffffffffff\n          and\n          0xffffffffffffffffffffffffffffffffffffffff\n          and\n          dup2\n          mstore\n          0x20\n          add\n          swap1\n          dup2\n          mstore\n          0x20\n          add\n          0x00\n          keccak256\n            /* \"SecLessonPoc-main/contracts/externalContract/check/bank2.sol\":2341:2369  allowed[msg.sender][spender] */\n          0x00\n            /* \"SecLessonPoc-main/contracts/externalContract/check/bank2.sol\":2361:2368  spender */\n          dup6\n            /* \"SecLessonPoc-main/contracts/externalContract/check/bank2.sol\":2341:2369  allowed[msg.sender][spender] */\n          0xffffffffffffffffffffffffffffffffffffffff\n          and\n          0xffffffffffffffffffffffffffffffffffffffff\n          and\n          dup2\n          mstore\n          0x20\n          add\n          swap1\n          dup2\n          mstore\n          0x20\n          add\n          0x00\n          keccak256\n            /* \"SecLessonPoc-main/contracts/externalContract/check/bank2.sol\":2341:2378  allowed[msg.sender][spender] = amount */\n          dup2\n          swap1\n          sstore\n          pop\n            /* \"SecLessonPoc-main/contracts/externalContract/check/bank2.sol\":2415:2422  spender */\n          dup3\n            /* \"SecLessonPoc-main/contracts/externalContract/check/bank2.sol\":2394:2431  Approval(msg.sender, spender, amount) */\n          0xffffffffffffffffffffffffffffffffffffffff\n          and\n            /* \"SecLessonPoc-main/contracts/externalContract/check/bank2.sol\":2403:2413  msg.sender */\n          caller\n            /* \"SecLessonPoc-main/contracts/externalContract/check/bank2.sol\":2394:2431  Approval(msg.sender, spender, amount) */\n          0xffffffffffffffffffffffffffffffffffffffff\n          and\n          0x8c5be1e5ebec7d5bd14f71427d1e84f3dd0314c0f7b2291e5b200ac8c7c3b925\n            /* \"SecLessonPoc-main/contracts/externalContract/check/bank2.sol\":2424:2430  amount */\n          dup5\n            /* \"SecLessonPoc-main/contracts/externalContract/check/bank2.sol\":2394:2431  Approval(msg.sender, spender, amount) */\n          mload(0x40)\n          dup1\n          dup3\n          dup2\n          mstore\n          0x20\n          add\n          swap2\n          pop\n          pop\n          mload(0x40)\n          dup1\n          swap2\n          sub\n          swap1\n          log3\n            /* \"SecLessonPoc-main/contracts/externalContract/check/bank2.sol\":2449:2453  true */\n          0x01\n            /* \"SecLessonPoc-main/contracts/externalContract/check/bank2.sol\":2442:2453  return true */\n          swap1\n          pop\n            /* \"SecLessonPoc-main/contracts/externalContract/check/bank2.sol\":2249:2461  function approve(address spender, uint256 amount) public override returns (bool) {\r... */\n          swap3\n          swap2\n          pop\n          pop\n          jump\t// out\n            /* \"SecLessonPoc-main/contracts/externalContract/check/bank2.sol\":1672:1772  function totalSupply() public override view returns (uint256) {\r... */\n        tag_23:\n            /* \"SecLessonPoc-main/contracts/externalContract/check/bank2.sol\":1725:1732  uint256 */\n          0x00\n            /* \"SecLessonPoc-main/contracts/externalContract/check/bank2.sol\":1752:1764  totalSupply_ */\n          sload(0x02)\n            /* \"SecLessonPoc-main/contracts/externalContract/check/bank2.sol\":1745:1764  return totalSupply_ */\n          swap1\n          pop\n            /* \"SecLessonPoc-main/contracts/externalContract/check/bank2.sol\":1672:1772  function totalSupply() public override view returns (uint256) {\r... */\n          swap1\n          jump\t// out\n            /* \"SecLessonPoc-main/contracts/externalContract/check/bank2.sol\":2615:3102  function transferFrom(address sender, address recipient, uint256 amount) public override returns (bool) {\r... */\n        tag_26:\n            /* \"SecLessonPoc-main/contracts/externalContract/check/bank2.sol\":2713:2717  bool */\n          0x00\n            /* \"SecLessonPoc-main/contracts/externalContract/check/bank2.sol\":2748:2756  balances */\n          dup1\n            /* \"SecLessonPoc-main/contracts/externalContract/check/bank2.sol\":2748:2764  balances[sender] */\n          0x00\n            /* \"SecLessonPoc-main/contracts/externalContract/check/bank2.sol\":2757:2763  sender */\n          dup6\n            /* \"SecLessonPoc-main/contracts/externalContract/check/bank2.sol\":2748:2764  balances[sender] */\n          0xffffffffffffffffffffffffffffffffffffffff\n          and\n          0xffffffffffffffffffffffffffffffffffffffff\n          and\n          dup2\n          mstore\n          0x20\n          add\n          swap1\n          dup2\n          mstore\n          0x20\n          add\n          0x00\n          keccak256\n          sload\n            /* \"SecLessonPoc-main/contracts/externalContract/check/bank2.sol\":2738:2744  amount */\n          dup3\n            /* \"SecLessonPoc-main/contracts/externalContract/check/bank2.sol\":2738:2764  amount <= balances[sender] */\n          gt\n          iszero\n            /* \"SecLessonPoc-main/contracts/externalContract/check/bank2.sol\":2730:2765  require(amount <= balances[sender]) */\n          tag_47\n          jumpi\n          0x00\n          dup1\n          revert\n        tag_47:\n            /* \"SecLessonPoc-main/contracts/externalContract/check/bank2.sol\":2804:2811  allowed */\n          0x01\n            /* \"SecLessonPoc-main/contracts/externalContract/check/bank2.sol\":2804:2819  allowed[sender] */\n          0x00\n            /* \"SecLessonPoc-main/contracts/externalContract/check/bank2.sol\":2812:2818  sender */\n          dup6\n            /* \"SecLessonPoc-main/contracts/externalContract/check/bank2.sol\":2804:2819  allowed[sender] */\n          0xffffffffffffffffffffffffffffffffffffffff\n          and\n          0xffffffffffffffffffffffffffffffffffffffff\n          and\n          dup2\n          mstore\n          0x20\n          add\n          swap1\n          dup2\n          mstore\n          0x20\n          add\n          0x00\n          keccak256\n            /* \"SecLessonPoc-main/contracts/externalContract/check/bank2.sol\":2804:2831  allowed[sender][msg.sender] */\n          0x00\n            /* \"SecLessonPoc-main/contracts/externalContract/check/bank2.sol\":2820:2830  msg.sender */\n          caller\n            /* \"SecLessonPoc-main/contracts/externalContract/check/bank2.sol\":2804:2831  allowed[sender][msg.sender] */\n          0xffffffffffffffffffffffffffffffffffffffff\n          and\n          0xffffffffffffffffffffffffffffffffffffffff\n          and\n          dup2\n          mstore\n          0x20\n          add\n          swap1\n          dup2\n          mstore\n          0x20\n          add\n          0x00\n          keccak256\n          sload\n            /* \"SecLessonPoc-main/contracts/externalContract/check/bank2.sol\":2794:2800  amount */\n          dup3\n            /* \"SecLessonPoc-main/contracts/externalContract/check/bank2.sol\":2794:2831  amount <= allowed[sender][msg.sender] */\n          gt\n          iszero\n            /* \"SecLessonPoc-main/contracts/externalContract/check/bank2.sol\":2786:2832  require(amount <= allowed[sender][msg.sender]) */\n          tag_48\n          jumpi\n          0x00\n          dup1\n          revert\n        tag_48:\n            /* \"SecLessonPoc-main/contracts/externalContract/check/bank2.sol\":2881:2887  amount */\n          dup2\n            /* \"SecLessonPoc-main/contracts/externalContract/check/bank2.sol\":2864:2872  balances */\n          0x00\n            /* \"SecLessonPoc-main/contracts/externalContract/check/bank2.sol\":2864:2880  balances[sender] */\n          dup1\n            /* \"SecLessonPoc-main/contracts/externalContract/check/bank2.sol\":2873:2879  sender */\n          dup7\n            /* \"SecLessonPoc-main/contracts/externalContract/check/bank2.sol\":2864:2880  balances[sender] */\n          0xffffffffffffffffffffffffffffffffffffffff\n          and\n          0xffffffffffffffffffffffffffffffffffffffff\n          and\n          dup2\n          mstore\n          0x20\n          add\n          swap1\n          dup2\n          mstore\n          0x20\n          add\n          0x00\n          keccak256\n          sload\n            /* \"SecLessonPoc-main/contracts/externalContract/check/bank2.sol\":2864:2887  balances[sender]-amount */\n          sub\n            /* \"SecLessonPoc-main/contracts/externalContract/check/bank2.sol\":2845:2853  balances */\n          0x00\n            /* \"SecLessonPoc-main/contracts/externalContract/check/bank2.sol\":2845:2861  balances[sender] */\n          dup1\n            /* \"SecLessonPoc-main/contracts/externalContract/check/bank2.sol\":2854:2860  sender */\n          dup7\n            /* \"SecLessonPoc-main/contracts/externalContract/check/bank2.sol\":2845:2861  balances[sender] */\n          0xffffffffffffffffffffffffffffffffffffffff\n          and\n          0xffffffffffffffffffffffffffffffffffffffff\n          and\n          dup2\n          mstore\n          0x20\n          add\n          swap1\n          dup2\n          mstore\n          0x20\n          add\n          0x00\n          keccak256\n            /* \"SecLessonPoc-main/contracts/externalContract/check/bank2.sol\":2845:2887  balances[sender] = balances[sender]-amount */\n          dup2\n          swap1\n          sstore\n          pop\n            /* \"SecLessonPoc-main/contracts/externalContract/check/bank2.sol\":2956:2962  amount */\n          dup2\n            /* \"SecLessonPoc-main/contracts/externalContract/check/bank2.sol\":2928:2935  allowed */\n          0x01\n            /* \"SecLessonPoc-main/contracts/externalContract/check/bank2.sol\":2928:2943  allowed[sender] */\n          0x00\n            /* \"SecLessonPoc-main/contracts/externalContract/check/bank2.sol\":2936:2942  sender */\n          dup7\n            /* \"SecLessonPoc-main/contracts/externalContract/check/bank2.sol\":2928:2943  allowed[sender] */\n          0xffffffffffffffffffffffffffffffffffffffff\n          and\n          0xffffffffffffffffffffffffffffffffffffffff\n          and\n          dup2\n          mstore\n          0x20\n          add\n          swap1\n          dup2\n          mstore\n          0x20\n          add\n          0x00\n          keccak256\n            /* \"SecLessonPoc-main/contracts/externalContract/check/bank2.sol\":2928:2955  allowed[sender][msg.sender] */\n          0x00\n            /* \"SecLessonPoc-main/contracts/externalContract/check/bank2.sol\":2944:2954  msg.sender */\n          caller\n            /* \"SecLessonPoc-main/contracts/externalContract/check/bank2.sol\":2928:2955  allowed[sender][msg.sender] */\n          0xffffffffffffffffffffffffffffffffffffffff\n          and\n          0xffffffffffffffffffffffffffffffffffffffff\n          and\n          dup2\n          mstore\n          0x20\n          add\n          swap1\n          dup2\n          mstore\n          0x20\n          add\n          0x00\n          keccak256\n          sload\n            /* \"SecLessonPoc-main/contracts/externalContract/check/bank2.sol\":2928:2962  allowed[sender][msg.sender]-amount */\n          sub\n            /* \"SecLessonPoc-main/contracts/externalContract/check/bank2.sol\":2898:2905  allowed */\n          0x01\n            /* \"SecLessonPoc-main/contracts/externalContract/check/bank2.sol\":2898:2913  allowed[sender] */\n          0x00\n            /* \"SecLessonPoc-main/contracts/externalContract/check/bank2.sol\":2906:2912  sender */\n          dup7\n            /* \"SecLessonPoc-main/contracts/externalContract/check/bank2.sol\":2898:2913  allowed[sender] */\n          0xffffffffffffffffffffffffffffffffffffffff\n          and\n          0xffffffffffffffffffffffffffffffffffffffff\n          and\n          dup2\n          mstore\n          0x20\n          add\n          swap1\n          dup2\n          mstore\n          0x20\n          add\n          0x00\n          keccak256\n            /* \"SecLessonPoc-main/contracts/externalContract/check/bank2.sol\":2898:2925  allowed[sender][msg.sender] */\n          0x00\n            /* \"SecLessonPoc-main/contracts/externalContract/check/bank2.sol\":2914:2924  msg.sender */\n          caller\n            /* \"SecLessonPoc-main/contracts/externalContract/check/bank2.sol\":2898:2925  allowed[sender][msg.sender] */\n          0xffffffffffffffffffffffffffffffffffffffff\n          and\n          0xffffffffffffffffffffffffffffffffffffffff\n          and\n          dup2\n          mstore\n          0x20\n          add\n          swap1\n          dup2\n          mstore\n          0x20\n          add\n          0x00\n          keccak256\n            /* \"SecLessonPoc-main/contracts/externalContract/check/bank2.sol\":2898:2962  allowed[sender][msg.sender] = allowed[sender][msg.sender]-amount */\n          dup2\n          swap1\n          sstore\n          pop\n            /* \"SecLessonPoc-main/contracts/externalContract/check/bank2.sol\":3015:3021  amount */\n          dup2\n            /* \"SecLessonPoc-main/contracts/externalContract/check/bank2.sol\":2995:3003  balances */\n          0x00\n            /* \"SecLessonPoc-main/contracts/externalContract/check/bank2.sol\":2995:3014  balances[recipient] */\n          dup1\n            /* \"SecLessonPoc-main/contracts/externalContract/check/bank2.sol\":3004:3013  recipient */\n          dup6\n            /* \"SecLessonPoc-main/contracts/externalContract/check/bank2.sol\":2995:3014  balances[recipient] */\n          0xffffffffffffffffffffffffffffffffffffffff\n          and\n          0xffffffffffffffffffffffffffffffffffffffff\n          and\n          dup2\n          mstore\n          0x20\n          add\n          swap1\n          dup2\n          mstore\n          0x20\n          add\n          0x00\n          keccak256\n          sload\n            /* \"SecLessonPoc-main/contracts/externalContract/check/bank2.sol\":2995:3021  balances[recipient]+amount */\n          add\n            /* \"SecLessonPoc-main/contracts/externalContract/check/bank2.sol\":2973:2981  balances */\n          0x00\n            /* \"SecLessonPoc-main/contracts/externalContract/check/bank2.sol\":2973:2992  balances[recipient] */\n          dup1\n            /* \"SecLessonPoc-main/contracts/externalContract/check/bank2.sol\":2982:2991  recipient */\n          dup6\n            /* \"SecLessonPoc-main/contracts/externalContract/check/bank2.sol\":2973:2992  balances[recipient] */\n          0xffffffffffffffffffffffffffffffffffffffff\n          and\n          0xffffffffffffffffffffffffffffffffffffffff\n          and\n          dup2\n          mstore\n          0x20\n          add\n          swap1\n          dup2\n          mstore\n          0x20\n          add\n          0x00\n          keccak256\n            /* \"SecLessonPoc-main/contracts/externalContract/check/bank2.sol\":2973:3021  balances[recipient] = balances[recipient]+amount */\n          dup2\n          swap1\n          sstore\n          pop\n            /* \"SecLessonPoc-main/contracts/externalContract/check/bank2.sol\":3054:3063  recipient */\n          dup3\n            /* \"SecLessonPoc-main/contracts/externalContract/check/bank2.sol\":3037:3072  Transfer(sender, recipient, amount) */\n          0xffffffffffffffffffffffffffffffffffffffff\n          and\n            /* \"SecLessonPoc-main/contracts/externalContract/check/bank2.sol\":3046:3052  sender */\n          dup5\n            /* \"SecLessonPoc-main/contracts/externalContract/check/bank2.sol\":3037:3072  Transfer(sender, recipient, amount) */\n          0xffffffffffffffffffffffffffffffffffffffff\n          and\n          0xddf252ad1be2c89b69c2b068fc378daa952ba7f163c4a11628f55a4df523b3ef\n            /* \"SecLessonPoc-main/contracts/externalContract/check/bank2.sol\":3065:3071  amount */\n          dup5\n            /* \"SecLessonPoc-main/contracts/externalContract/check/bank2.sol\":3037:3072  Transfer(sender, recipient, amount) */\n          mload(0x40)\n          dup1\n          dup3\n          dup2\n          mstore\n          0x20\n          add\n          swap2\n          pop\n          pop\n          mload(0x40)\n          dup1\n          swap2\n          sub\n          swap1\n          log3\n            /* \"SecLessonPoc-main/contracts/externalContract/check/bank2.sol\":3090:3094  true */\n          0x01\n            /* \"SecLessonPoc-main/contracts/externalContract/check/bank2.sol\":3083:3094  return true */\n          swap1\n          pop\n            /* \"SecLessonPoc-main/contracts/externalContract/check/bank2.sol\":2615:3102  function transferFrom(address sender, address recipient, uint256 amount) public override returns (bool) {\r... */\n          swap4\n          swap3\n          pop\n          pop\n          pop\n          jump\t// out\n            /* \"SecLessonPoc-main/contracts/externalContract/check/bank2.sol\":1409:1444  uint8 public constant decimals = 18 */\n        tag_28:\n            /* \"SecLessonPoc-main/contracts/externalContract/check/bank2.sol\":1442:1444  18 */\n          0x12\n            /* \"SecLessonPoc-main/contracts/externalContract/check/bank2.sol\":1409:1444  uint8 public constant decimals = 18 */\n          dup2\n          jump\t// out\n            /* \"SecLessonPoc-main/contracts/externalContract/check/bank2.sol\":1780:1898  function balanceOf(address account) public override view returns (uint256) {\r... */\n        tag_31:\n            /* \"SecLessonPoc-main/contracts/externalContract/check/bank2.sol\":1846:1853  uint256 */\n          0x00\n            /* \"SecLessonPoc-main/contracts/externalContract/check/bank2.sol\":1873:1881  balances */\n          dup1\n            /* \"SecLessonPoc-main/contracts/externalContract/check/bank2.sol\":1873:1890  balances[account] */\n          0x00\n            /* \"SecLessonPoc-main/contracts/externalContract/check/bank2.sol\":1882:1889  account */\n          dup4\n            /* \"SecLessonPoc-main/contracts/externalContract/check/bank2.sol\":1873:1890  balances[account] */\n          0xffffffffffffffffffffffffffffffffffffffff\n          and\n          0xffffffffffffffffffffffffffffffffffffffff\n          and\n          dup2\n          mstore\n          0x20\n          add\n          swap1\n          dup2\n          mstore\n          0x20\n          add\n          0x00\n          keccak256\n          sload\n            /* \"SecLessonPoc-main/contracts/externalContract/check/bank2.sol\":1866:1890  return balances[account] */\n          swap1\n          pop\n            /* \"SecLessonPoc-main/contracts/externalContract/check/bank2.sol\":1780:1898  function balanceOf(address account) public override view returns (uint256) {\r... */\n          swap2\n          swap1\n          pop\n          jump\t// out\n            /* \"SecLessonPoc-main/contracts/externalContract/check/bank2.sol\":1365:1402  string public constant symbol = \"ERC\" */\n        tag_33:\n          mload(0x40)\n          dup1\n          0x40\n          add\n          0x40\n          mstore\n          dup1\n          0x03\n          dup2\n          mstore\n          0x20\n          add\n          0x4552430000000000000000000000000000000000000000000000000000000000\n          dup2\n          mstore\n          pop\n          dup2\n          jump\t// out\n            /* \"SecLessonPoc-main/contracts/externalContract/check/bank2.sol\":1906:2241  function transfer(address receiver, uint256 amount) public override returns (bool) {\r... */\n        tag_40:\n            /* \"SecLessonPoc-main/contracts/externalContract/check/bank2.sol\":1983:1987  bool */\n          0x00\n            /* \"SecLessonPoc-main/contracts/externalContract/check/bank2.sol\":2018:2026  balances */\n          dup1\n            /* \"SecLessonPoc-main/contracts/externalContract/check/bank2.sol\":2018:2038  balances[msg.sender] */\n          0x00\n            /* \"SecLessonPoc-main/contracts/externalContract/check/bank2.sol\":2027:2037  msg.sender */\n          caller\n            /* \"SecLessonPoc-main/contracts/externalContract/check/bank2.sol\":2018:2038  balances[msg.sender] */\n          0xffffffffffffffffffffffffffffffffffffffff\n          and\n          0xffffffffffffffffffffffffffffffffffffffff\n          and\n          dup2\n          mstore\n          0x20\n          add\n          swap1\n          dup2\n          mstore\n          0x20\n          add\n          0x00\n          keccak256\n          sload\n            /* \"SecLessonPoc-main/contracts/externalContract/check/bank2.sol\":2008:2014  amount */\n          dup3\n            /* \"SecLessonPoc-main/contracts/externalContract/check/bank2.sol\":2008:2038  amount <= balances[msg.sender] */\n          gt\n          iszero\n            /* \"SecLessonPoc-main/contracts/externalContract/check/bank2.sol\":2000:2039  require(amount <= balances[msg.sender]) */\n          tag_51\n          jumpi\n          0x00\n          dup1\n          revert\n        tag_51:\n            /* \"SecLessonPoc-main/contracts/externalContract/check/bank2.sol\":2094:2100  amount */\n          dup2\n            /* \"SecLessonPoc-main/contracts/externalContract/check/bank2.sol\":2073:2081  balances */\n          0x00\n            /* \"SecLessonPoc-main/contracts/externalContract/check/bank2.sol\":2073:2093  balances[msg.sender] */\n          dup1\n            /* \"SecLessonPoc-main/contracts/externalContract/check/bank2.sol\":2082:2092  msg.sender */\n          caller\n            /* \"SecLessonPoc-main/contracts/externalContract/check/bank2.sol\":2073:2093  balances[msg.sender] */\n          0xffffffffffffffffffffffffffffffffffffffff\n          and\n          0xffffffffffffffffffffffffffffffffffffffff\n          and\n          dup2\n          mstore\n          0x20\n          add\n          swap1\n          dup2\n          mstore\n          0x20\n          add\n          0x00\n          keccak256\n          sload\n            /* \"SecLessonPoc-main/contracts/externalContract/check/bank2.sol\":2073:2100  balances[msg.sender]-amount */\n          sub\n            /* \"SecLessonPoc-main/contracts/externalContract/check/bank2.sol\":2050:2058  balances */\n          0x00\n            /* \"SecLessonPoc-main/contracts/externalContract/check/bank2.sol\":2050:2070  balances[msg.sender] */\n          dup1\n            /* \"SecLessonPoc-main/contracts/externalContract/check/bank2.sol\":2059:2069  msg.sender */\n          caller\n            /* \"SecLessonPoc-main/contracts/externalContract/check/bank2.sol\":2050:2070  balances[msg.sender] */\n          0xffffffffffffffffffffffffffffffffffffffff\n          and\n          0xffffffffffffffffffffffffffffffffffffffff\n          and\n          dup2\n          mstore\n          0x20\n          add\n          swap1\n          dup2\n          mstore\n          0x20\n          add\n          0x00\n          keccak256\n            /* \"SecLessonPoc-main/contracts/externalContract/check/bank2.sol\":2050:2100  balances[msg.sender] = balances[msg.sender]-amount */\n          dup2\n          swap1\n          sstore\n          pop\n            /* \"SecLessonPoc-main/contracts/externalContract/check/bank2.sol\":2151:2157  amount */\n          dup2\n            /* \"SecLessonPoc-main/contracts/externalContract/check/bank2.sol\":2132:2140  balances */\n          0x00\n            /* \"SecLessonPoc-main/contracts/externalContract/check/bank2.sol\":2132:2150  balances[receiver] */\n          dup1\n            /* \"SecLessonPoc-main/contracts/externalContract/check/bank2.sol\":2141:2149  receiver */\n          dup6\n            /* \"SecLessonPoc-main/contracts/externalContract/check/bank2.sol\":2132:2150  balances[receiver] */\n          0xffffffffffffffffffffffffffffffffffffffff\n          and\n          0xffffffffffffffffffffffffffffffffffffffff\n          and\n          dup2\n          mstore\n          0x20\n          add\n          swap1\n          dup2\n          mstore\n          0x20\n          add\n          0x00\n          keccak256\n          sload\n            /* \"SecLessonPoc-main/contracts/externalContract/check/bank2.sol\":2132:2157  balances[receiver]+amount */\n          add\n            /* \"SecLessonPoc-main/contracts/externalContract/check/bank2.sol\":2111:2119  balances */\n          0x00\n            /* \"SecLessonPoc-main/contracts/externalContract/check/bank2.sol\":2111:2129  balances[receiver] */\n          dup1\n            /* \"SecLessonPoc-main/contracts/externalContract/check/bank2.sol\":2120:2128  receiver */\n          dup6\n            /* \"SecLessonPoc-main/contracts/externalContract/check/bank2.sol\":2111:2129  balances[receiver] */\n          0xffffffffffffffffffffffffffffffffffffffff\n          and\n          0xffffffffffffffffffffffffffffffffffffffff\n          and\n          dup2\n          mstore\n          0x20\n          add\n          swap1\n          dup2\n          mstore\n          0x20\n          add\n          0x00\n          keccak256\n            /* \"SecLessonPoc-main/contracts/externalContract/check/bank2.sol\":2111:2157  balances[receiver] = balances[receiver]+amount */\n          dup2\n          swap1\n          sstore\n          pop\n            /* \"SecLessonPoc-main/contracts/externalContract/check/bank2.sol\":2194:2202  receiver */\n          dup3\n            /* \"SecLessonPoc-main/contracts/externalContract/check/bank2.sol\":2173:2211  Transfer(msg.sender, receiver, amount) */\n          0xffffffffffffffffffffffffffffffffffffffff\n          and\n            /* \"SecLessonPoc-main/contracts/externalContract/check/bank2.sol\":2182:2192  msg.sender */\n          caller\n            /* \"SecLessonPoc-main/contracts/externalContract/check/bank2.sol\":2173:2211  Transfer(msg.sender, receiver, amount) */\n          0xffffffffffffffffffffffffffffffffffffffff\n          and\n          0xddf252ad1be2c89b69c2b068fc378daa952ba7f163c4a11628f55a4df523b3ef\n            /* \"SecLessonPoc-main/contracts/externalContract/check/bank2.sol\":2204:2210  amount */\n          dup5\n            /* \"SecLessonPoc-main/contracts/externalContract/check/bank2.sol\":2173:2211  Transfer(msg.sender, receiver, amount) */\n          mload(0x40)\n          dup1\n          dup3\n          dup2\n          mstore\n          0x20\n          add\n          swap2\n          pop\n          pop\n          mload(0x40)\n          dup1\n          swap2\n          sub\n          swap1\n          log3\n            /* \"SecLessonPoc-main/contracts/externalContract/check/bank2.sol\":2229:2233  true */\n          0x01\n            /* \"SecLessonPoc-main/contracts/externalContract/check/bank2.sol\":2222:2233  return true */\n          swap1\n          pop\n            /* \"SecLessonPoc-main/contracts/externalContract/check/bank2.sol\":1906:2241  function transfer(address receiver, uint256 amount) public override returns (bool) {\r... */\n          swap3\n          swap2\n          pop\n          pop\n          jump\t// out\n            /* \"SecLessonPoc-main/contracts/externalContract/check/bank2.sol\":2469:2607  function allowance(address sender, address spender) public override view returns (uint) {\r... */\n        tag_43:\n            /* \"SecLessonPoc-main/contracts/externalContract/check/bank2.sol\":2551:2555  uint */\n          0x00\n            /* \"SecLessonPoc-main/contracts/externalContract/check/bank2.sol\":2575:2582  allowed */\n          0x01\n            /* \"SecLessonPoc-main/contracts/externalContract/check/bank2.sol\":2575:2590  allowed[sender] */\n          0x00\n            /* \"SecLessonPoc-main/contracts/externalContract/check/bank2.sol\":2583:2589  sender */\n          dup5\n            /* \"SecLessonPoc-main/contracts/externalContract/check/bank2.sol\":2575:2590  allowed[sender] */\n          0xffffffffffffffffffffffffffffffffffffffff\n          and\n          0xffffffffffffffffffffffffffffffffffffffff\n          and\n          dup2\n          mstore\n          0x20\n          add\n          swap1\n          dup2\n          mstore\n          0x20\n          add\n          0x00\n          keccak256\n            /* \"SecLessonPoc-main/contracts/externalContract/check/bank2.sol\":2575:2599  allowed[sender][spender] */\n          0x00\n            /* \"SecLessonPoc-main/contracts/externalContract/check/bank2.sol\":2591:2598  spender */\n          dup4\n            /* \"SecLessonPoc-main/contracts/externalContract/check/bank2.sol\":2575:2599  allowed[sender][spender] */\n          0xffffffffffffffffffffffffffffffffffffffff\n          and\n          0xffffffffffffffffffffffffffffffffffffffff\n          and\n          dup2\n          mstore\n          0x20\n          add\n          swap1\n          dup2\n          mstore\n          0x20\n          add\n          0x00\n          keccak256\n          sload\n            /* \"SecLessonPoc-main/contracts/externalContract/check/bank2.sol\":2568:2599  return allowed[sender][spender] */\n          swap1\n          pop\n            /* \"SecLessonPoc-main/contracts/externalContract/check/bank2.sol\":2469:2607  function allowance(address sender, address spender) public override view returns (uint) {\r... */\n          swap3\n          swap2\n          pop\n          pop\n          jump\t// out\n\n        auxdata: 0xa2646970667358221220a669b2383b30dc3ef8bcc0aa396c763b52c58f3a214eca34a519619e5695dfc564736f6c63430007060033\n    }\n}\n",
				"bytecode": {
					"linkReferences": {},
					"object": "608060405234801561001057600080fd5b5060405161001d9061007f565b604051809103906000f080158015610039573d6000803e3d6000fd5b50600160006101000a81548173ffffffffffffffffffffffffffffffffffffffff021916908373ffffffffffffffffffffffffffffffffffffffff16021790555061008c565b610bef80610b3f83390190565b610aa48061009b6000396000f3fe608060405234801561001057600080fd5b50600436106100625760003560e01c8063030bd8c914610067578063338b5dea146100ab5780639e281a98146100f9578063bb15dade14610147578063efedc66914610151578063fc0c546a1461016f575b600080fd5b6100a96004803603602081101561007d57600080fd5b81019080803573ffffffffffffffffffffffffffffffffffffffff1690602001909291905050506101a3565b005b6100f7600480360360408110156100c157600080fd5b81019080803573ffffffffffffffffffffffffffffffffffffffff16906020019092919080359060200190929190505050610310565b005b6101456004803603604081101561010f57600080fd5b81019080803573ffffffffffffffffffffffffffffffffffffffff169060200190929190803590602001909291905050506106b7565b005b61014f61087f565b005b610159610a42565b6040518082815260200191505060405180910390f35b610177610a48565b604051808273ffffffffffffffffffffffffffffffffffffffff16815260200191505060405180910390f35b6000600281905550678ac7230489e800006000803373ffffffffffffffffffffffffffffffffffffffff1673ffffffffffffffffffffffffffffffffffffffff1681526020019081526020016000206000600160009054906101000a900473ffffffffffffffffffffffffffffffffffffffff1673ffffffffffffffffffffffffffffffffffffffff1673ffffffffffffffffffffffffffffffffffffffff16815260200190815260200160002054106102695760196002600082825401925050819055505b6ec097ce7bc90715a56ae85c589c00006000803373ffffffffffffffffffffffffffffffffffffffff1673ffffffffffffffffffffffffffffffffffffffff16815260200190815260200160002060008373ffffffffffffffffffffffffffffffffffffffff1673ffffffffffffffffffffffffffffffffffffffff16815260200190815260200160002054111561030d57604b6002600082825401925050819055505b50565b662386f26fc10000811461032357600080fd5b60008060003373ffffffffffffffffffffffffffffffffffffffff1673ffffffffffffffffffffffffffffffffffffffff168152602001908152602001600020905060008373ffffffffffffffffffffffffffffffffffffffff166370a08231306040518263ffffffff1660e01b8152600401808273ffffffffffffffffffffffffffffffffffffffff16815260200191505060206040518083038186803b1580156103ce57600080fd5b505afa1580156103e2573d6000803e3d6000fd5b505050506040513d60208110156103f857600080fd5b810190808051906020019092919050505090508373ffffffffffffffffffffffffffffffffffffffff166323b872dd3330866040518463ffffffff1660e01b8152600401808473ffffffffffffffffffffffffffffffffffffffff1681526020018373ffffffffffffffffffffffffffffffffffffffff1681526020018281526020019350505050602060405180830381600087803b15801561049a57600080fd5b505af11580156104ae573d6000803e3d6000fd5b505050506040513d60208110156104c457600080fd5b8101908080519060200190929190505050610547576040517f08c379a00000000000000000000000000000000000000000000000000000000081526004018080602001828103825260138152602001807f7472616e7366657246726f6d206661696c65640000000000000000000000000081525060200191505060405180910390fd5b60008473ffffffffffffffffffffffffffffffffffffffff166370a08231306040518263ffffffff1660e01b8152600401808273ffffffffffffffffffffffffffffffffffffffff16815260200191505060206040518083038186803b1580156105b057600080fd5b505afa1580156105c4573d6000803e3d6000fd5b505050506040513d60208110156105da57600080fd5b810190808051906020019092919050505090508382820314610664576040517f08c379a000000000000000000000000000000000000000000000000000000000815260040180806020018281038252600e8152602001807f6465706f736974206661696c656400000000000000000000000000000000000081525060200191505060405180910390fd5b838360008773ffffffffffffffffffffffffffffffffffffffff1673ffffffffffffffffffffffffffffffffffffffff168152602001908152602001600020600082825401925050819055505050505050565b60008060003373ffffffffffffffffffffffffffffffffffffffff1673ffffffffffffffffffffffffffffffffffffffff16815260200190815260200160002060008473ffffffffffffffffffffffffffffffffffffffff1673ffffffffffffffffffffffffffffffffffffffff1681526020019081526020016000205490508082111561074457600080fd5b8273ffffffffffffffffffffffffffffffffffffffff1663a9059cbb33846040518363ffffffff1660e01b8152600401808373ffffffffffffffffffffffffffffffffffffffff16815260200182815260200192505050602060405180830381600087803b1580156107b557600080fd5b505af11580156107c9573d6000803e3d6000fd5b505050506040513d60208110156107df57600080fd5b810190808051906020019092919050505050816000803373ffffffffffffffffffffffffffffffffffffffff1673ffffffffffffffffffffffffffffffffffffffff16815260200190815260200160002060008573ffffffffffffffffffffffffffffffffffffffff1673ffffffffffffffffffffffffffffffffffffffff16815260200190815260200160002060008282540392505081905550505050565b6000602c3373ffffffffffffffffffffffffffffffffffffffff16816108a157fe5b0673ffffffffffffffffffffffffffffffffffffffff161415610a4057600160009054906101000a900473ffffffffffffffffffffffffffffffffffffffff1673ffffffffffffffffffffffffffffffffffffffff1663a9059cbb33678ac7230489e800006040518363ffffffff1660e01b8152600401808373ffffffffffffffffffffffffffffffffffffffff16815260200182815260200192505050602060405180830381600087803b15801561095957600080fd5b505af115801561096d573d6000803e3d6000fd5b505050506040513d602081101561098357600080fd5b810190808051906020019092919050505050678ac7230489e800006000803373ffffffffffffffffffffffffffffffffffffffff1673ffffffffffffffffffffffffffffffffffffffff1681526020019081526020016000206000600160009054906101000a900473ffffffffffffffffffffffffffffffffffffffff1673ffffffffffffffffffffffffffffffffffffffff1673ffffffffffffffffffffffffffffffffffffffff168152602001908152602001600020819055505b565b60025481565b600160009054906101000a900473ffffffffffffffffffffffffffffffffffffffff168156fea264697066735822122075e5de1947b6f1b5450b63c4fa8223c78f28e59ef09882cdf9d4bd4fae7efa3e64736f6c634300070600336080604052678ac7230489e8000060025534801561001c57600080fd5b506002546000803373ffffffffffffffffffffffffffffffffffffffff1673ffffffffffffffffffffffffffffffffffffffff16815260200190815260200160002081905550610b7e806100716000396000f3fe608060405234801561001057600080fd5b50600436106100935760003560e01c8063313ce56711610066578063313ce5671461022157806370a082311461024257806395d89b411461029a578063a9059cbb1461031d578063dd62ed3e1461038157610093565b806306fdde0314610098578063095ea7b31461011b57806318160ddd1461017f57806323b872dd1461019d575b600080fd5b6100a06103f9565b6040518080602001828103825283818151815260200191508051906020019080838360005b838110156100e05780820151818401526020810190506100c5565b50505050905090810190601f16801561010d5780820380516001836020036101000a031916815260200191505b509250505060405180910390f35b6101676004803603604081101561013157600080fd5b81019080803573ffffffffffffffffffffffffffffffffffffffff16906020019092919080359060200190929190505050610432565b60405180821515815260200191505060405180910390f35b610187610524565b6040518082815260200191505060405180910390f35b610209600480360360608110156101b357600080fd5b81019080803573ffffffffffffffffffffffffffffffffffffffff169060200190929190803573ffffffffffffffffffffffffffffffffffffffff1690602001909291908035906020019092919050505061052e565b60405180821515815260200191505060405180910390f35b610229610879565b604051808260ff16815260200191505060405180910390f35b6102846004803603602081101561025857600080fd5b81019080803573ffffffffffffffffffffffffffffffffffffffff16906020019092919050505061087e565b6040518082815260200191505060405180910390f35b6102a26108c6565b6040518080602001828103825283818151815260200191508051906020019080838360005b838110156102e25780820151818401526020810190506102c7565b50505050905090810190601f16801561030f5780820380516001836020036101000a031916815260200191505b509250505060405180910390f35b6103696004803603604081101561033357600080fd5b81019080803573ffffffffffffffffffffffffffffffffffffffff169060200190929190803590602001909291905050506108ff565b60405180821515815260200191505060405180910390f35b6103e36004803603604081101561039757600080fd5b81019080803573ffffffffffffffffffffffffffffffffffffffff169060200190929190803573ffffffffffffffffffffffffffffffffffffffff169060200190929190505050610ac1565b6040518082815260200191505060405180910390f35b6040518060400160405280600581526020017f455243323000000000000000000000000000000000000000000000000000000081525081565b600081600160003373ffffffffffffffffffffffffffffffffffffffff1673ffffffffffffffffffffffffffffffffffffffff16815260200190815260200160002060008573ffffffffffffffffffffffffffffffffffffffff1673ffffffffffffffffffffffffffffffffffffffff168152602001908152602001600020819055508273ffffffffffffffffffffffffffffffffffffffff163373ffffffffffffffffffffffffffffffffffffffff167f8c5be1e5ebec7d5bd14f71427d1e84f3dd0314c0f7b2291e5b200ac8c7c3b925846040518082815260200191505060405180910390a36001905092915050565b6000600254905090565b60008060008573ffffffffffffffffffffffffffffffffffffffff1673ffffffffffffffffffffffffffffffffffffffff1681526020019081526020016000205482111561057b57600080fd5b600160008573ffffffffffffffffffffffffffffffffffffffff1673ffffffffffffffffffffffffffffffffffffffff16815260200190815260200160002060003373ffffffffffffffffffffffffffffffffffffffff1673ffffffffffffffffffffffffffffffffffffffff1681526020019081526020016000205482111561060457600080fd5b816000808673ffffffffffffffffffffffffffffffffffffffff1673ffffffffffffffffffffffffffffffffffffffff16815260200190815260200160002054036000808673ffffffffffffffffffffffffffffffffffffffff1673ffffffffffffffffffffffffffffffffffffffff1681526020019081526020016000208190555081600160008673ffffffffffffffffffffffffffffffffffffffff1673ffffffffffffffffffffffffffffffffffffffff16815260200190815260200160002060003373ffffffffffffffffffffffffffffffffffffffff1673ffffffffffffffffffffffffffffffffffffffff1681526020019081526020016000205403600160008673ffffffffffffffffffffffffffffffffffffffff1673ffffffffffffffffffffffffffffffffffffffff16815260200190815260200160002060003373ffffffffffffffffffffffffffffffffffffffff1673ffffffffffffffffffffffffffffffffffffffff16815260200190815260200160002081905550816000808573ffffffffffffffffffffffffffffffffffffffff1673ffffffffffffffffffffffffffffffffffffffff16815260200190815260200160002054016000808573ffffffffffffffffffffffffffffffffffffffff1673ffffffffffffffffffffffffffffffffffffffff168152602001908152602001600020819055508273ffffffffffffffffffffffffffffffffffffffff168473ffffffffffffffffffffffffffffffffffffffff167fddf252ad1be2c89b69c2b068fc378daa952ba7f163c4a11628f55a4df523b3ef846040518082815260200191505060405180910390a3600190509392505050565b601281565b60008060008373ffffffffffffffffffffffffffffffffffffffff1673ffffffffffffffffffffffffffffffffffffffff168152602001908152602001600020549050919050565b6040518060400160405280600381526020017f455243000000000000000000000000000000000000000000000000000000000081525081565b60008060003373ffffffffffffffffffffffffffffffffffffffff1673ffffffffffffffffffffffffffffffffffffffff1681526020019081526020016000205482111561094c57600080fd5b816000803373ffffffffffffffffffffffffffffffffffffffff1673ffffffffffffffffffffffffffffffffffffffff16815260200190815260200160002054036000803373ffffffffffffffffffffffffffffffffffffffff1673ffffffffffffffffffffffffffffffffffffffff16815260200190815260200160002081905550816000808573ffffffffffffffffffffffffffffffffffffffff1673ffffffffffffffffffffffffffffffffffffffff16815260200190815260200160002054016000808573ffffffffffffffffffffffffffffffffffffffff1673ffffffffffffffffffffffffffffffffffffffff168152602001908152602001600020819055508273ffffffffffffffffffffffffffffffffffffffff163373ffffffffffffffffffffffffffffffffffffffff167fddf252ad1be2c89b69c2b068fc378daa952ba7f163c4a11628f55a4df523b3ef846040518082815260200191505060405180910390a36001905092915050565b6000600160008473ffffffffffffffffffffffffffffffffffffffff1673ffffffffffffffffffffffffffffffffffffffff16815260200190815260200160002060008373ffffffffffffffffffffffffffffffffffffffff1673ffffffffffffffffffffffffffffffffffffffff1681526020019081526020016000205490509291505056fea2646970667358221220a669b2383b30dc3ef8bcc0aa396c763b52c58f3a214eca34a519619e5695dfc564736f6c63430007060033",
					"opcodes": "PUSH1 0x80 PUSH1 0x40 MSTORE CALLVALUE DUP1 ISZERO PUSH2 0x10 JUMPI PUSH1 0x0 DUP1 REVERT JUMPDEST POP PUSH1 0x40 MLOAD PUSH2 0x1D SWAP1 PUSH2 0x7F JUMP JUMPDEST PUSH1 0x40 MLOAD DUP1 SWAP2 SUB SWAP1 PUSH1 0x0 CREATE DUP1 ISZERO DUP1 ISZERO PUSH2 0x39 JUMPI RETURNDATASIZE PUSH1 0x0 DUP1 RETURNDATACOPY RETURNDATASIZE PUSH1 0x0 REVERT JUMPDEST POP PUSH1 0x1 PUSH1 0x0 PUSH2 0x100 EXP DUP2 SLOAD DUP2 PUSH20 0xFFFFFFFFFFFFFFFFFFFFFFFFFFFFFFFFFFFFFFFF MUL NOT AND SWAP1 DUP4 PUSH20 0xFFFFFFFFFFFFFFFFFFFFFFFFFFFFFFFFFFFFFFFF AND MUL OR SWAP1 SSTORE POP PUSH2 0x8C JUMP JUMPDEST PUSH2 0xBEF DUP1 PUSH2 0xB3F DUP4 CODECOPY ADD SWAP1 JUMP JUMPDEST PUSH2 0xAA4 DUP1 PUSH2 0x9B PUSH1 0x0 CODECOPY PUSH1 0x0 RETURN INVALID PUSH1 0x80 PUSH1 0x40 MSTORE CALLVALUE DUP1 ISZERO PUSH2 0x10 JUMPI PUSH1 0x0 DUP1 REVERT JUMPDEST POP PUSH1 0x4 CALLDATASIZE LT PUSH2 0x62 JUMPI PUSH1 0x0 CALLDATALOAD PUSH1 0xE0 SHR DUP1 PUSH4 0x30BD8C9 EQ PUSH2 0x67 JUMPI DUP1 PUSH4 0x338B5DEA EQ PUSH2 0xAB JUMPI DUP1 PUSH4 0x9E281A98 EQ PUSH2 0xF9 JUMPI DUP1 PUSH4 0xBB15DADE EQ PUSH2 0x147 JUMPI DUP1 PUSH4 0xEFEDC669 EQ PUSH2 0x151 JUMPI DUP1 PUSH4 0xFC0C546A EQ PUSH2 0x16F JUMPI JUMPDEST PUSH1 0x0 DUP1 REVERT JUMPDEST PUSH2 0xA9 PUSH1 0x4 DUP1 CALLDATASIZE SUB PUSH1 0x20 DUP2 LT ISZERO PUSH2 0x7D JUMPI PUSH1 0x0 DUP1 REVERT JUMPDEST DUP2 ADD SWAP1 DUP1 DUP1 CALLDATALOAD PUSH20 0xFFFFFFFFFFFFFFFFFFFFFFFFFFFFFFFFFFFFFFFF AND SWAP1 PUSH1 0x20 ADD SWAP1 SWAP3 SWAP2 SWAP1 POP POP POP PUSH2 0x1A3 JUMP JUMPDEST STOP JUMPDEST PUSH2 0xF7 PUSH1 0x4 DUP1 CALLDATASIZE SUB PUSH1 0x40 DUP2 LT ISZERO PUSH2 0xC1 JUMPI PUSH1 0x0 DUP1 REVERT JUMPDEST DUP2 ADD SWAP1 DUP1 DUP1 CALLDATALOAD PUSH20 0xFFFFFFFFFFFFFFFFFFFFFFFFFFFFFFFFFFFFFFFF AND SWAP1 PUSH1 0x20 ADD SWAP1 SWAP3 SWAP2 SWAP1 DUP1 CALLDATALOAD SWAP1 PUSH1 0x20 ADD SWAP1 SWAP3 SWAP2 SWAP1 POP POP POP PUSH2 0x310 JUMP JUMPDEST STOP JUMPDEST PUSH2 0x145 PUSH1 0x4 DUP1 CALLDATASIZE SUB PUSH1 0x40 DUP2 LT ISZERO PUSH2 0x10F JUMPI PUSH1 0x0 DUP1 REVERT JUMPDEST DUP2 ADD SWAP1 DUP1 DUP1 CALLDATALOAD PUSH20 0xFFFFFFFFFFFFFFFFFFFFFFFFFFFFFFFFFFFFFFFF AND SWAP1 PUSH1 0x20 ADD SWAP1 SWAP3 SWAP2 SWAP1 DUP1 CALLDATALOAD SWAP1 PUSH1 0x20 ADD SWAP1 SWAP3 SWAP2 SWAP1 POP POP POP PUSH2 0x6B7 JUMP JUMPDEST STOP JUMPDEST PUSH2 0x14F PUSH2 0x87F JUMP JUMPDEST STOP JUMPDEST PUSH2 0x159 PUSH2 0xA42 JUMP JUMPDEST PUSH1 0x40 MLOAD DUP1 DUP3 DUP2 MSTORE PUSH1 0x20 ADD SWAP2 POP POP PUSH1 0x40 MLOAD DUP1 SWAP2 SUB SWAP1 RETURN JUMPDEST PUSH2 0x177 PUSH2 0xA48 JUMP JUMPDEST PUSH1 0x40 MLOAD DUP1 DUP3 PUSH20 0xFFFFFFFFFFFFFFFFFFFFFFFFFFFFFFFFFFFFFFFF AND DUP2 MSTORE PUSH1 0x20 ADD SWAP2 POP POP PUSH1 0x40 MLOAD DUP1 SWAP2 SUB SWAP1 RETURN JUMPDEST PUSH1 0x0 PUSH1 0x2 DUP2 SWAP1 SSTORE POP PUSH8 0x8AC7230489E80000 PUSH1 0x0 DUP1 CALLER PUSH20 0xFFFFFFFFFFFFFFFFFFFFFFFFFFFFFFFFFFFFFFFF AND PUSH20 0xFFFFFFFFFFFFFFFFFFFFFFFFFFFFFFFFFFFFFFFF AND DUP2 MSTORE PUSH1 0x20 ADD SWAP1 DUP2 MSTORE PUSH1 0x20 ADD PUSH1 0x0 KECCAK256 PUSH1 0x0 PUSH1 0x1 PUSH1 0x0 SWAP1 SLOAD SWAP1 PUSH2 0x100 EXP SWAP1 DIV PUSH20 0xFFFFFFFFFFFFFFFFFFFFFFFFFFFFFFFFFFFFFFFF AND PUSH20 0xFFFFFFFFFFFFFFFFFFFFFFFFFFFFFFFFFFFFFFFF AND PUSH20 0xFFFFFFFFFFFFFFFFFFFFFFFFFFFFFFFFFFFFFFFF AND DUP2 MSTORE PUSH1 0x20 ADD SWAP1 DUP2 MSTORE PUSH1 0x20 ADD PUSH1 0x0 KECCAK256 SLOAD LT PUSH2 0x269 JUMPI PUSH1 0x19 PUSH1 0x2 PUSH1 0x0 DUP3 DUP3 SLOAD ADD SWAP3 POP POP DUP2 SWAP1 SSTORE POP JUMPDEST PUSH15 0xC097CE7BC90715A56AE85C589C0000 PUSH1 0x0 DUP1 CALLER PUSH20 0xFFFFFFFFFFFFFFFFFFFFFFFFFFFFFFFFFFFFFFFF AND PUSH20 0xFFFFFFFFFFFFFFFFFFFFFFFFFFFFFFFFFFFFFFFF AND DUP2 MSTORE PUSH1 0x20 ADD SWAP1 DUP2 MSTORE PUSH1 0x20 ADD PUSH1 0x0 KECCAK256 PUSH1 0x0 DUP4 PUSH20 0xFFFFFFFFFFFFFFFFFFFFFFFFFFFFFFFFFFFFFFFF AND PUSH20 0xFFFFFFFFFFFFFFFFFFFFFFFFFFFFFFFFFFFFFFFF AND DUP2 MSTORE PUSH1 0x20 ADD SWAP1 DUP2 MSTORE PUSH1 0x20 ADD PUSH1 0x0 KECCAK256 SLOAD GT ISZERO PUSH2 0x30D JUMPI PUSH1 0x4B PUSH1 0x2 PUSH1 0x0 DUP3 DUP3 SLOAD ADD SWAP3 POP POP DUP2 SWAP1 SSTORE POP JUMPDEST POP JUMP JUMPDEST PUSH7 0x2386F26FC10000 DUP2 EQ PUSH2 0x323 JUMPI PUSH1 0x0 DUP1 REVERT JUMPDEST PUSH1 0x0 DUP1 PUSH1 0x0 CALLER PUSH20 0xFFFFFFFFFFFFFFFFFFFFFFFFFFFFFFFFFFFFFFFF AND PUSH20 0xFFFFFFFFFFFFFFFFFFFFFFFFFFFFFFFFFFFFFFFF AND DUP2 MSTORE PUSH1 0x20 ADD SWAP1 DUP2 MSTORE PUSH1 0x20 ADD PUSH1 0x0 KECCAK256 SWAP1 POP PUSH1 0x0 DUP4 PUSH20 0xFFFFFFFFFFFFFFFFFFFFFFFFFFFFFFFFFFFFFFFF AND PUSH4 0x70A08231 ADDRESS PUSH1 0x40 MLOAD DUP3 PUSH4 0xFFFFFFFF AND PUSH1 0xE0 SHL DUP2 MSTORE PUSH1 0x4 ADD DUP1 DUP3 PUSH20 0xFFFFFFFFFFFFFFFFFFFFFFFFFFFFFFFFFFFFFFFF AND DUP2 MSTORE PUSH1 0x20 ADD SWAP2 POP POP PUSH1 0x20 PUSH1 0x40 MLOAD DUP1 DUP4 SUB DUP2 DUP7 DUP1 EXTCODESIZE ISZERO DUP1 ISZERO PUSH2 0x3CE JUMPI PUSH1 0x0 DUP1 REVERT JUMPDEST POP GAS STATICCALL ISZERO DUP1 ISZERO PUSH2 0x3E2 JUMPI RETURNDATASIZE PUSH1 0x0 DUP1 RETURNDATACOPY RETURNDATASIZE PUSH1 0x0 REVERT JUMPDEST POP POP POP POP PUSH1 0x40 MLOAD RETURNDATASIZE PUSH1 0x20 DUP2 LT ISZERO PUSH2 0x3F8 JUMPI PUSH1 0x0 DUP1 REVERT JUMPDEST DUP2 ADD SWAP1 DUP1 DUP1 MLOAD SWAP1 PUSH1 0x20 ADD SWAP1 SWAP3 SWAP2 SWAP1 POP POP POP SWAP1 POP DUP4 PUSH20 0xFFFFFFFFFFFFFFFFFFFFFFFFFFFFFFFFFFFFFFFF AND PUSH4 0x23B872DD CALLER ADDRESS DUP7 PUSH1 0x40 MLOAD DUP5 PUSH4 0xFFFFFFFF AND PUSH1 0xE0 SHL DUP2 MSTORE PUSH1 0x4 ADD DUP1 DUP5 PUSH20 0xFFFFFFFFFFFFFFFFFFFFFFFFFFFFFFFFFFFFFFFF AND DUP2 MSTORE PUSH1 0x20 ADD DUP4 PUSH20 0xFFFFFFFFFFFFFFFFFFFFFFFFFFFFFFFFFFFFFFFF AND DUP2 MSTORE PUSH1 0x20 ADD DUP3 DUP2 MSTORE PUSH1 0x20 ADD SWAP4 POP POP POP POP PUSH1 0x20 PUSH1 0x40 MLOAD DUP1 DUP4 SUB DUP2 PUSH1 0x0 DUP8 DUP1 EXTCODESIZE ISZERO DUP1 ISZERO PUSH2 0x49A JUMPI PUSH1 0x0 DUP1 REVERT JUMPDEST POP GAS CALL ISZERO DUP1 ISZERO PUSH2 0x4AE JUMPI RETURNDATASIZE PUSH1 0x0 DUP1 RETURNDATACOPY RETURNDATASIZE PUSH1 0x0 REVERT JUMPDEST POP POP POP POP PUSH1 0x40 MLOAD RETURNDATASIZE PUSH1 0x20 DUP2 LT ISZERO PUSH2 0x4C4 JUMPI PUSH1 0x0 DUP1 REVERT JUMPDEST DUP2 ADD SWAP1 DUP1 DUP1 MLOAD SWAP1 PUSH1 0x20 ADD SWAP1 SWAP3 SWAP2 SWAP1 POP POP POP PUSH2 0x547 JUMPI PUSH1 0x40 MLOAD PUSH32 0x8C379A000000000000000000000000000000000000000000000000000000000 DUP2 MSTORE PUSH1 0x4 ADD DUP1 DUP1 PUSH1 0x20 ADD DUP3 DUP2 SUB DUP3 MSTORE PUSH1 0x13 DUP2 MSTORE PUSH1 0x20 ADD DUP1 PUSH32 0x7472616E7366657246726F6D206661696C656400000000000000000000000000 DUP2 MSTORE POP PUSH1 0x20 ADD SWAP2 POP POP PUSH1 0x40 MLOAD DUP1 SWAP2 SUB SWAP1 REVERT JUMPDEST PUSH1 0x0 DUP5 PUSH20 0xFFFFFFFFFFFFFFFFFFFFFFFFFFFFFFFFFFFFFFFF AND PUSH4 0x70A08231 ADDRESS PUSH1 0x40 MLOAD DUP3 PUSH4 0xFFFFFFFF AND PUSH1 0xE0 SHL DUP2 MSTORE PUSH1 0x4 ADD DUP1 DUP3 PUSH20 0xFFFFFFFFFFFFFFFFFFFFFFFFFFFFFFFFFFFFFFFF AND DUP2 MSTORE PUSH1 0x20 ADD SWAP2 POP POP PUSH1 0x20 PUSH1 0x40 MLOAD DUP1 DUP4 SUB DUP2 DUP7 DUP1 EXTCODESIZE ISZERO DUP1 ISZERO PUSH2 0x5B0 JUMPI PUSH1 0x0 DUP1 REVERT JUMPDEST POP GAS STATICCALL ISZERO DUP1 ISZERO PUSH2 0x5C4 JUMPI RETURNDATASIZE PUSH1 0x0 DUP1 RETURNDATACOPY RETURNDATASIZE PUSH1 0x0 REVERT JUMPDEST POP POP POP POP PUSH1 0x40 MLOAD RETURNDATASIZE PUSH1 0x20 DUP2 LT ISZERO PUSH2 0x5DA JUMPI PUSH1 0x0 DUP1 REVERT JUMPDEST DUP2 ADD SWAP1 DUP1 DUP1 MLOAD SWAP1 PUSH1 0x20 ADD SWAP1 SWAP3 SWAP2 SWAP1 POP POP POP SWAP1 POP DUP4 DUP3 DUP3 SUB EQ PUSH2 0x664 JUMPI PUSH1 0x40 MLOAD PUSH32 0x8C379A000000000000000000000000000000000000000000000000000000000 DUP2 MSTORE PUSH1 0x4 ADD DUP1 DUP1 PUSH1 0x20 ADD DUP3 DUP2 SUB DUP3 MSTORE PUSH1 0xE DUP2 MSTORE PUSH1 0x20 ADD DUP1 PUSH32 0x6465706F736974206661696C6564000000000000000000000000000000000000 DUP2 MSTORE POP PUSH1 0x20 ADD SWAP2 POP POP PUSH1 0x40 MLOAD DUP1 SWAP2 SUB SWAP1 REVERT JUMPDEST DUP4 DUP4 PUSH1 0x0 DUP8 PUSH20 0xFFFFFFFFFFFFFFFFFFFFFFFFFFFFFFFFFFFFFFFF AND PUSH20 0xFFFFFFFFFFFFFFFFFFFFFFFFFFFFFFFFFFFFFFFF AND DUP2 MSTORE PUSH1 0x20 ADD SWAP1 DUP2 MSTORE PUSH1 0x20 ADD PUSH1 0x0 KECCAK256 PUSH1 0x0 DUP3 DUP3 SLOAD ADD SWAP3 POP POP DUP2 SWAP1 SSTORE POP POP POP POP POP POP JUMP JUMPDEST PUSH1 0x0 DUP1 PUSH1 0x0 CALLER PUSH20 0xFFFFFFFFFFFFFFFFFFFFFFFFFFFFFFFFFFFFFFFF AND PUSH20 0xFFFFFFFFFFFFFFFFFFFFFFFFFFFFFFFFFFFFFFFF AND DUP2 MSTORE PUSH1 0x20 ADD SWAP1 DUP2 MSTORE PUSH1 0x20 ADD PUSH1 0x0 KECCAK256 PUSH1 0x0 DUP5 PUSH20 0xFFFFFFFFFFFFFFFFFFFFFFFFFFFFFFFFFFFFFFFF AND PUSH20 0xFFFFFFFFFFFFFFFFFFFFFFFFFFFFFFFFFFFFFFFF AND DUP2 MSTORE PUSH1 0x20 ADD SWAP1 DUP2 MSTORE PUSH1 0x20 ADD PUSH1 0x0 KECCAK256 SLOAD SWAP1 POP DUP1 DUP3 GT ISZERO PUSH2 0x744 JUMPI PUSH1 0x0 DUP1 REVERT JUMPDEST DUP3 PUSH20 0xFFFFFFFFFFFFFFFFFFFFFFFFFFFFFFFFFFFFFFFF AND PUSH4 0xA9059CBB CALLER DUP5 PUSH1 0x40 MLOAD DUP4 PUSH4 0xFFFFFFFF AND PUSH1 0xE0 SHL DUP2 MSTORE PUSH1 0x4 ADD DUP1 DUP4 PUSH20 0xFFFFFFFFFFFFFFFFFFFFFFFFFFFFFFFFFFFFFFFF AND DUP2 MSTORE PUSH1 0x20 ADD DUP3 DUP2 MSTORE PUSH1 0x20 ADD SWAP3 POP POP POP PUSH1 0x20 PUSH1 0x40 MLOAD DUP1 DUP4 SUB DUP2 PUSH1 0x0 DUP8 DUP1 EXTCODESIZE ISZERO DUP1 ISZERO PUSH2 0x7B5 JUMPI PUSH1 0x0 DUP1 REVERT JUMPDEST POP GAS CALL ISZERO DUP1 ISZERO PUSH2 0x7C9 JUMPI RETURNDATASIZE PUSH1 0x0 DUP1 RETURNDATACOPY RETURNDATASIZE PUSH1 0x0 REVERT JUMPDEST POP POP POP POP PUSH1 0x40 MLOAD RETURNDATASIZE PUSH1 0x20 DUP2 LT ISZERO PUSH2 0x7DF JUMPI PUSH1 0x0 DUP1 REVERT JUMPDEST DUP2 ADD SWAP1 DUP1 DUP1 MLOAD SWAP1 PUSH1 0x20 ADD SWAP1 SWAP3 SWAP2 SWAP1 POP POP POP POP DUP2 PUSH1 0x0 DUP1 CALLER PUSH20 0xFFFFFFFFFFFFFFFFFFFFFFFFFFFFFFFFFFFFFFFF AND PUSH20 0xFFFFFFFFFFFFFFFFFFFFFFFFFFFFFFFFFFFFFFFF AND DUP2 MSTORE PUSH1 0x20 ADD SWAP1 DUP2 MSTORE PUSH1 0x20 ADD PUSH1 0x0 KECCAK256 PUSH1 0x0 DUP6 PUSH20 0xFFFFFFFFFFFFFFFFFFFFFFFFFFFFFFFFFFFFFFFF AND PUSH20 0xFFFFFFFFFFFFFFFFFFFFFFFFFFFFFFFFFFFFFFFF AND DUP2 MSTORE PUSH1 0x20 ADD SWAP1 DUP2 MSTORE PUSH1 0x20 ADD PUSH1 0x0 KECCAK256 PUSH1 0x0 DUP3 DUP3 SLOAD SUB SWAP3 POP POP DUP2 SWAP1 SSTORE POP POP POP POP JUMP JUMPDEST PUSH1 0x0 PUSH1 0x2C CALLER PUSH20 0xFFFFFFFFFFFFFFFFFFFFFFFFFFFFFFFFFFFFFFFF AND DUP2 PUSH2 0x8A1 JUMPI INVALID JUMPDEST MOD PUSH20 0xFFFFFFFFFFFFFFFFFFFFFFFFFFFFFFFFFFFFFFFF AND EQ ISZERO PUSH2 0xA40 JUMPI PUSH1 0x1 PUSH1 0x0 SWAP1 SLOAD SWAP1 PUSH2 0x100 EXP SWAP1 DIV PUSH20 0xFFFFFFFFFFFFFFFFFFFFFFFFFFFFFFFFFFFFFFFF AND PUSH20 0xFFFFFFFFFFFFFFFFFFFFFFFFFFFFFFFFFFFFFFFF AND PUSH4 0xA9059CBB CALLER PUSH8 0x8AC7230489E80000 PUSH1 0x40 MLOAD DUP4 PUSH4 0xFFFFFFFF AND PUSH1 0xE0 SHL DUP2 MSTORE PUSH1 0x4 ADD DUP1 DUP4 PUSH20 0xFFFFFFFFFFFFFFFFFFFFFFFFFFFFFFFFFFFFFFFF AND DUP2 MSTORE PUSH1 0x20 ADD DUP3 DUP2 MSTORE PUSH1 0x20 ADD SWAP3 POP POP POP PUSH1 0x20 PUSH1 0x40 MLOAD DUP1 DUP4 SUB DUP2 PUSH1 0x0 DUP8 DUP1 EXTCODESIZE ISZERO DUP1 ISZERO PUSH2 0x959 JUMPI PUSH1 0x0 DUP1 REVERT JUMPDEST POP GAS CALL ISZERO DUP1 ISZERO PUSH2 0x96D JUMPI RETURNDATASIZE PUSH1 0x0 DUP1 RETURNDATACOPY RETURNDATASIZE PUSH1 0x0 REVERT JUMPDEST POP POP POP POP PUSH1 0x40 MLOAD RETURNDATASIZE PUSH1 0x20 DUP2 LT ISZERO PUSH2 0x983 JUMPI PUSH1 0x0 DUP1 REVERT JUMPDEST DUP2 ADD SWAP1 DUP1 DUP1 MLOAD SWAP1 PUSH1 0x20 ADD SWAP1 SWAP3 SWAP2 SWAP1 POP POP POP POP PUSH8 0x8AC7230489E80000 PUSH1 0x0 DUP1 CALLER PUSH20 0xFFFFFFFFFFFFFFFFFFFFFFFFFFFFFFFFFFFFFFFF AND PUSH20 0xFFFFFFFFFFFFFFFFFFFFFFFFFFFFFFFFFFFFFFFF AND DUP2 MSTORE PUSH1 0x20 ADD SWAP1 DUP2 MSTORE PUSH1 0x20 ADD PUSH1 0x0 KECCAK256 PUSH1 0x0 PUSH1 0x1 PUSH1 0x0 SWAP1 SLOAD SWAP1 PUSH2 0x100 EXP SWAP1 DIV PUSH20 0xFFFFFFFFFFFFFFFFFFFFFFFFFFFFFFFFFFFFFFFF AND PUSH20 0xFFFFFFFFFFFFFFFFFFFFFFFFFFFFFFFFFFFFFFFF AND PUSH20 0xFFFFFFFFFFFFFFFFFFFFFFFFFFFFFFFFFFFFFFFF AND DUP2 MSTORE PUSH1 0x20 ADD SWAP1 DUP2 MSTORE PUSH1 0x20 ADD PUSH1 0x0 KECCAK256 DUP2 SWAP1 SSTORE POP JUMPDEST JUMP JUMPDEST PUSH1 0x2 SLOAD DUP2 JUMP JUMPDEST PUSH1 0x1 PUSH1 0x0 SWAP1 SLOAD SWAP1 PUSH2 0x100 EXP SWAP1 DIV PUSH20 0xFFFFFFFFFFFFFFFFFFFFFFFFFFFFFFFFFFFFFFFF AND DUP2 JUMP INVALID LOG2 PUSH5 0x6970667358 0x22 SLT KECCAK256 PUSH22 0xE5DE1947B6F1B5450B63C4FA8223C78F28E59EF09882 0xCD 0xF9 0xD4 0xBD 0x4F 0xAE PUSH31 0xFA3E64736F6C634300070600336080604052678AC7230489E8000060025534 DUP1 ISZERO PUSH2 0x1C JUMPI PUSH1 0x0 DUP1 REVERT JUMPDEST POP PUSH1 0x2 SLOAD PUSH1 0x0 DUP1 CALLER PUSH20 0xFFFFFFFFFFFFFFFFFFFFFFFFFFFFFFFFFFFFFFFF AND PUSH20 0xFFFFFFFFFFFFFFFFFFFFFFFFFFFFFFFFFFFFFFFF AND DUP2 MSTORE PUSH1 0x20 ADD SWAP1 DUP2 MSTORE PUSH1 0x20 ADD PUSH1 0x0 KECCAK256 DUP2 SWAP1 SSTORE POP PUSH2 0xB7E DUP1 PUSH2 0x71 PUSH1 0x0 CODECOPY PUSH1 0x0 RETURN INVALID PUSH1 0x80 PUSH1 0x40 MSTORE CALLVALUE DUP1 ISZERO PUSH2 0x10 JUMPI PUSH1 0x0 DUP1 REVERT JUMPDEST POP PUSH1 0x4 CALLDATASIZE LT PUSH2 0x93 JUMPI PUSH1 0x0 CALLDATALOAD PUSH1 0xE0 SHR DUP1 PUSH4 0x313CE567 GT PUSH2 0x66 JUMPI DUP1 PUSH4 0x313CE567 EQ PUSH2 0x221 JUMPI DUP1 PUSH4 0x70A08231 EQ PUSH2 0x242 JUMPI DUP1 PUSH4 0x95D89B41 EQ PUSH2 0x29A JUMPI DUP1 PUSH4 0xA9059CBB EQ PUSH2 0x31D JUMPI DUP1 PUSH4 0xDD62ED3E EQ PUSH2 0x381 JUMPI PUSH2 0x93 JUMP JUMPDEST DUP1 PUSH4 0x6FDDE03 EQ PUSH2 0x98 JUMPI DUP1 PUSH4 0x95EA7B3 EQ PUSH2 0x11B JUMPI DUP1 PUSH4 0x18160DDD EQ PUSH2 0x17F JUMPI DUP1 PUSH4 0x23B872DD EQ PUSH2 0x19D JUMPI JUMPDEST PUSH1 0x0 DUP1 REVERT JUMPDEST PUSH2 0xA0 PUSH2 0x3F9 JUMP JUMPDEST PUSH1 0x40 MLOAD DUP1 DUP1 PUSH1 0x20 ADD DUP3 DUP2 SUB DUP3 MSTORE DUP4 DUP2 DUP2 MLOAD DUP2 MSTORE PUSH1 0x20 ADD SWAP2 POP DUP1 MLOAD SWAP1 PUSH1 0x20 ADD SWAP1 DUP1 DUP4 DUP4 PUSH1 0x0 JUMPDEST DUP4 DUP2 LT ISZERO PUSH2 0xE0 JUMPI DUP1 DUP3 ADD MLOAD DUP2 DUP5 ADD MSTORE PUSH1 0x20 DUP2 ADD SWAP1 POP PUSH2 0xC5 JUMP JUMPDEST POP POP POP POP SWAP1 POP SWAP1 DUP2 ADD SWAP1 PUSH1 0x1F AND DUP1 ISZERO PUSH2 0x10D JUMPI DUP1 DUP3 SUB DUP1 MLOAD PUSH1 0x1 DUP4 PUSH1 0x20 SUB PUSH2 0x100 EXP SUB NOT AND DUP2 MSTORE PUSH1 0x20 ADD SWAP2 POP JUMPDEST POP SWAP3 POP POP POP PUSH1 0x40 MLOAD DUP1 SWAP2 SUB SWAP1 RETURN JUMPDEST PUSH2 0x167 PUSH1 0x4 DUP1 CALLDATASIZE SUB PUSH1 0x40 DUP2 LT ISZERO PUSH2 0x131 JUMPI PUSH1 0x0 DUP1 REVERT JUMPDEST DUP2 ADD SWAP1 DUP1 DUP1 CALLDATALOAD PUSH20 0xFFFFFFFFFFFFFFFFFFFFFFFFFFFFFFFFFFFFFFFF AND SWAP1 PUSH1 0x20 ADD SWAP1 SWAP3 SWAP2 SWAP1 DUP1 CALLDATALOAD SWAP1 PUSH1 0x20 ADD SWAP1 SWAP3 SWAP2 SWAP1 POP POP POP PUSH2 0x432 JUMP JUMPDEST PUSH1 0x40 MLOAD DUP1 DUP3 ISZERO ISZERO DUP2 MSTORE PUSH1 0x20 ADD SWAP2 POP POP PUSH1 0x40 MLOAD DUP1 SWAP2 SUB SWAP1 RETURN JUMPDEST PUSH2 0x187 PUSH2 0x524 JUMP JUMPDEST PUSH1 0x40 MLOAD DUP1 DUP3 DUP2 MSTORE PUSH1 0x20 ADD SWAP2 POP POP PUSH1 0x40 MLOAD DUP1 SWAP2 SUB SWAP1 RETURN JUMPDEST PUSH2 0x209 PUSH1 0x4 DUP1 CALLDATASIZE SUB PUSH1 0x60 DUP2 LT ISZERO PUSH2 0x1B3 JUMPI PUSH1 0x0 DUP1 REVERT JUMPDEST DUP2 ADD SWAP1 DUP1 DUP1 CALLDATALOAD PUSH20 0xFFFFFFFFFFFFFFFFFFFFFFFFFFFFFFFFFFFFFFFF AND SWAP1 PUSH1 0x20 ADD SWAP1 SWAP3 SWAP2 SWAP1 DUP1 CALLDATALOAD PUSH20 0xFFFFFFFFFFFFFFFFFFFFFFFFFFFFFFFFFFFFFFFF AND SWAP1 PUSH1 0x20 ADD SWAP1 SWAP3 SWAP2 SWAP1 DUP1 CALLDATALOAD SWAP1 PUSH1 0x20 ADD SWAP1 SWAP3 SWAP2 SWAP1 POP POP POP PUSH2 0x52E JUMP JUMPDEST PUSH1 0x40 MLOAD DUP1 DUP3 ISZERO ISZERO DUP2 MSTORE PUSH1 0x20 ADD SWAP2 POP POP PUSH1 0x40 MLOAD DUP1 SWAP2 SUB SWAP1 RETURN JUMPDEST PUSH2 0x229 PUSH2 0x879 JUMP JUMPDEST PUSH1 0x40 MLOAD DUP1 DUP3 PUSH1 0xFF AND DUP2 MSTORE PUSH1 0x20 ADD SWAP2 POP POP PUSH1 0x40 MLOAD DUP1 SWAP2 SUB SWAP1 RETURN JUMPDEST PUSH2 0x284 PUSH1 0x4 DUP1 CALLDATASIZE SUB PUSH1 0x20 DUP2 LT ISZERO PUSH2 0x258 JUMPI PUSH1 0x0 DUP1 REVERT JUMPDEST DUP2 ADD SWAP1 DUP1 DUP1 CALLDATALOAD PUSH20 0xFFFFFFFFFFFFFFFFFFFFFFFFFFFFFFFFFFFFFFFF AND SWAP1 PUSH1 0x20 ADD SWAP1 SWAP3 SWAP2 SWAP1 POP POP POP PUSH2 0x87E JUMP JUMPDEST PUSH1 0x40 MLOAD DUP1 DUP3 DUP2 MSTORE PUSH1 0x20 ADD SWAP2 POP POP PUSH1 0x40 MLOAD DUP1 SWAP2 SUB SWAP1 RETURN JUMPDEST PUSH2 0x2A2 PUSH2 0x8C6 JUMP JUMPDEST PUSH1 0x40 MLOAD DUP1 DUP1 PUSH1 0x20 ADD DUP3 DUP2 SUB DUP3 MSTORE DUP4 DUP2 DUP2 MLOAD DUP2 MSTORE PUSH1 0x20 ADD SWAP2 POP DUP1 MLOAD SWAP1 PUSH1 0x20 ADD SWAP1 DUP1 DUP4 DUP4 PUSH1 0x0 JUMPDEST DUP4 DUP2 LT ISZERO PUSH2 0x2E2 JUMPI DUP1 DUP3 ADD MLOAD DUP2 DUP5 ADD MSTORE PUSH1 0x20 DUP2 ADD SWAP1 POP PUSH2 0x2C7 JUMP JUMPDEST POP POP POP POP SWAP1 POP SWAP1 DUP2 ADD SWAP1 PUSH1 0x1F AND DUP1 ISZERO PUSH2 0x30F JUMPI DUP1 DUP3 SUB DUP1 MLOAD PUSH1 0x1 DUP4 PUSH1 0x20 SUB PUSH2 0x100 EXP SUB NOT AND DUP2 MSTORE PUSH1 0x20 ADD SWAP2 POP JUMPDEST POP SWAP3 POP POP POP PUSH1 0x40 MLOAD DUP1 SWAP2 SUB SWAP1 RETURN JUMPDEST PUSH2 0x369 PUSH1 0x4 DUP1 CALLDATASIZE SUB PUSH1 0x40 DUP2 LT ISZERO PUSH2 0x333 JUMPI PUSH1 0x0 DUP1 REVERT JUMPDEST DUP2 ADD SWAP1 DUP1 DUP1 CALLDATALOAD PUSH20 0xFFFFFFFFFFFFFFFFFFFFFFFFFFFFFFFFFFFFFFFF AND SWAP1 PUSH1 0x20 ADD SWAP1 SWAP3 SWAP2 SWAP1 DUP1 CALLDATALOAD SWAP1 PUSH1 0x20 ADD SWAP1 SWAP3 SWAP2 SWAP1 POP POP POP PUSH2 0x8FF JUMP JUMPDEST PUSH1 0x40 MLOAD DUP1 DUP3 ISZERO ISZERO DUP2 MSTORE PUSH1 0x20 ADD SWAP2 POP POP PUSH1 0x40 MLOAD DUP1 SWAP2 SUB SWAP1 RETURN JUMPDEST PUSH2 0x3E3 PUSH1 0x4 DUP1 CALLDATASIZE SUB PUSH1 0x40 DUP2 LT ISZERO PUSH2 0x397 JUMPI PUSH1 0x0 DUP1 REVERT JUMPDEST DUP2 ADD SWAP1 DUP1 DUP1 CALLDATALOAD PUSH20 0xFFFFFFFFFFFFFFFFFFFFFFFFFFFFFFFFFFFFFFFF AND SWAP1 PUSH1 0x20 ADD SWAP1 SWAP3 SWAP2 SWAP1 DUP1 CALLDATALOAD PUSH20 0xFFFFFFFFFFFFFFFFFFFFFFFFFFFFFFFFFFFFFFFF AND SWAP1 PUSH1 0x20 ADD SWAP1 SWAP3 SWAP2 SWAP1 POP POP POP PUSH2 0xAC1 JUMP JUMPDEST PUSH1 0x40 MLOAD DUP1 DUP3 DUP2 MSTORE PUSH1 0x20 ADD SWAP2 POP POP PUSH1 0x40 MLOAD DUP1 SWAP2 SUB SWAP1 RETURN JUMPDEST PUSH1 0x40 MLOAD DUP1 PUSH1 0x40 ADD PUSH1 0x40 MSTORE DUP1 PUSH1 0x5 DUP2 MSTORE PUSH1 0x20 ADD PUSH32 0x4552433230000000000000000000000000000000000000000000000000000000 DUP2 MSTORE POP DUP2 JUMP JUMPDEST PUSH1 0x0 DUP2 PUSH1 0x1 PUSH1 0x0 CALLER PUSH20 0xFFFFFFFFFFFFFFFFFFFFFFFFFFFFFFFFFFFFFFFF AND PUSH20 0xFFFFFFFFFFFFFFFFFFFFFFFFFFFFFFFFFFFFFFFF AND DUP2 MSTORE PUSH1 0x20 ADD SWAP1 DUP2 MSTORE PUSH1 0x20 ADD PUSH1 0x0 KECCAK256 PUSH1 0x0 DUP6 PUSH20 0xFFFFFFFFFFFFFFFFFFFFFFFFFFFFFFFFFFFFFFFF AND PUSH20 0xFFFFFFFFFFFFFFFFFFFFFFFFFFFFFFFFFFFFFFFF AND DUP2 MSTORE PUSH1 0x20 ADD SWAP1 DUP2 MSTORE PUSH1 0x20 ADD PUSH1 0x0 KECCAK256 DUP2 SWAP1 SSTORE POP DUP3 PUSH20 0xFFFFFFFFFFFFFFFFFFFFFFFFFFFFFFFFFFFFFFFF AND CALLER PUSH20 0xFFFFFFFFFFFFFFFFFFFFFFFFFFFFFFFFFFFFFFFF AND PUSH32 0x8C5BE1E5EBEC7D5BD14F71427D1E84F3DD0314C0F7B2291E5B200AC8C7C3B925 DUP5 PUSH1 0x40 MLOAD DUP1 DUP3 DUP2 MSTORE PUSH1 0x20 ADD SWAP2 POP POP PUSH1 0x40 MLOAD DUP1 SWAP2 SUB SWAP1 LOG3 PUSH1 0x1 SWAP1 POP SWAP3 SWAP2 POP POP JUMP JUMPDEST PUSH1 0x0 PUSH1 0x2 SLOAD SWAP1 POP SWAP1 JUMP JUMPDEST PUSH1 0x0 DUP1 PUSH1 0x0 DUP6 PUSH20 0xFFFFFFFFFFFFFFFFFFFFFFFFFFFFFFFFFFFFFFFF AND PUSH20 0xFFFFFFFFFFFFFFFFFFFFFFFFFFFFFFFFFFFFFFFF AND DUP2 MSTORE PUSH1 0x20 ADD SWAP1 DUP2 MSTORE PUSH1 0x20 ADD PUSH1 0x0 KECCAK256 SLOAD DUP3 GT ISZERO PUSH2 0x57B JUMPI PUSH1 0x0 DUP1 REVERT JUMPDEST PUSH1 0x1 PUSH1 0x0 DUP6 PUSH20 0xFFFFFFFFFFFFFFFFFFFFFFFFFFFFFFFFFFFFFFFF AND PUSH20 0xFFFFFFFFFFFFFFFFFFFFFFFFFFFFFFFFFFFFFFFF AND DUP2 MSTORE PUSH1 0x20 ADD SWAP1 DUP2 MSTORE PUSH1 0x20 ADD PUSH1 0x0 KECCAK256 PUSH1 0x0 CALLER PUSH20 0xFFFFFFFFFFFFFFFFFFFFFFFFFFFFFFFFFFFFFFFF AND PUSH20 0xFFFFFFFFFFFFFFFFFFFFFFFFFFFFFFFFFFFFFFFF AND DUP2 MSTORE PUSH1 0x20 ADD SWAP1 DUP2 MSTORE PUSH1 0x20 ADD PUSH1 0x0 KECCAK256 SLOAD DUP3 GT ISZERO PUSH2 0x604 JUMPI PUSH1 0x0 DUP1 REVERT JUMPDEST DUP2 PUSH1 0x0 DUP1 DUP7 PUSH20 0xFFFFFFFFFFFFFFFFFFFFFFFFFFFFFFFFFFFFFFFF AND PUSH20 0xFFFFFFFFFFFFFFFFFFFFFFFFFFFFFFFFFFFFFFFF AND DUP2 MSTORE PUSH1 0x20 ADD SWAP1 DUP2 MSTORE PUSH1 0x20 ADD PUSH1 0x0 KECCAK256 SLOAD SUB PUSH1 0x0 DUP1 DUP7 PUSH20 0xFFFFFFFFFFFFFFFFFFFFFFFFFFFFFFFFFFFFFFFF AND PUSH20 0xFFFFFFFFFFFFFFFFFFFFFFFFFFFFFFFFFFFFFFFF AND DUP2 MSTORE PUSH1 0x20 ADD SWAP1 DUP2 MSTORE PUSH1 0x20 ADD PUSH1 0x0 KECCAK256 DUP2 SWAP1 SSTORE POP DUP2 PUSH1 0x1 PUSH1 0x0 DUP7 PUSH20 0xFFFFFFFFFFFFFFFFFFFFFFFFFFFFFFFFFFFFFFFF AND PUSH20 0xFFFFFFFFFFFFFFFFFFFFFFFFFFFFFFFFFFFFFFFF AND DUP2 MSTORE PUSH1 0x20 ADD SWAP1 DUP2 MSTORE PUSH1 0x20 ADD PUSH1 0x0 KECCAK256 PUSH1 0x0 CALLER PUSH20 0xFFFFFFFFFFFFFFFFFFFFFFFFFFFFFFFFFFFFFFFF AND PUSH20 0xFFFFFFFFFFFFFFFFFFFFFFFFFFFFFFFFFFFFFFFF AND DUP2 MSTORE PUSH1 0x20 ADD SWAP1 DUP2 MSTORE PUSH1 0x20 ADD PUSH1 0x0 KECCAK256 SLOAD SUB PUSH1 0x1 PUSH1 0x0 DUP7 PUSH20 0xFFFFFFFFFFFFFFFFFFFFFFFFFFFFFFFFFFFFFFFF AND PUSH20 0xFFFFFFFFFFFFFFFFFFFFFFFFFFFFFFFFFFFFFFFF AND DUP2 MSTORE PUSH1 0x20 ADD SWAP1 DUP2 MSTORE PUSH1 0x20 ADD PUSH1 0x0 KECCAK256 PUSH1 0x0 CALLER PUSH20 0xFFFFFFFFFFFFFFFFFFFFFFFFFFFFFFFFFFFFFFFF AND PUSH20 0xFFFFFFFFFFFFFFFFFFFFFFFFFFFFFFFFFFFFFFFF AND DUP2 MSTORE PUSH1 0x20 ADD SWAP1 DUP2 MSTORE PUSH1 0x20 ADD PUSH1 0x0 KECCAK256 DUP2 SWAP1 SSTORE POP DUP2 PUSH1 0x0 DUP1 DUP6 PUSH20 0xFFFFFFFFFFFFFFFFFFFFFFFFFFFFFFFFFFFFFFFF AND PUSH20 0xFFFFFFFFFFFFFFFFFFFFFFFFFFFFFFFFFFFFFFFF AND DUP2 MSTORE PUSH1 0x20 ADD SWAP1 DUP2 MSTORE PUSH1 0x20 ADD PUSH1 0x0 KECCAK256 SLOAD ADD PUSH1 0x0 DUP1 DUP6 PUSH20 0xFFFFFFFFFFFFFFFFFFFFFFFFFFFFFFFFFFFFFFFF AND PUSH20 0xFFFFFFFFFFFFFFFFFFFFFFFFFFFFFFFFFFFFFFFF AND DUP2 MSTORE PUSH1 0x20 ADD SWAP1 DUP2 MSTORE PUSH1 0x20 ADD PUSH1 0x0 KECCAK256 DUP2 SWAP1 SSTORE POP DUP3 PUSH20 0xFFFFFFFFFFFFFFFFFFFFFFFFFFFFFFFFFFFFFFFF AND DUP5 PUSH20 0xFFFFFFFFFFFFFFFFFFFFFFFFFFFFFFFFFFFFFFFF AND PUSH32 0xDDF252AD1BE2C89B69C2B068FC378DAA952BA7F163C4A11628F55A4DF523B3EF DUP5 PUSH1 0x40 MLOAD DUP1 DUP3 DUP2 MSTORE PUSH1 0x20 ADD SWAP2 POP POP PUSH1 0x40 MLOAD DUP1 SWAP2 SUB SWAP1 LOG3 PUSH1 0x1 SWAP1 POP SWAP4 SWAP3 POP POP POP JUMP JUMPDEST PUSH1 0x12 DUP2 JUMP JUMPDEST PUSH1 0x0 DUP1 PUSH1 0x0 DUP4 PUSH20 0xFFFFFFFFFFFFFFFFFFFFFFFFFFFFFFFFFFFFFFFF AND PUSH20 0xFFFFFFFFFFFFFFFFFFFFFFFFFFFFFFFFFFFFFFFF AND DUP2 MSTORE PUSH1 0x20 ADD SWAP1 DUP2 MSTORE PUSH1 0x20 ADD PUSH1 0x0 KECCAK256 SLOAD SWAP1 POP SWAP2 SWAP1 POP JUMP JUMPDEST PUSH1 0x40 MLOAD DUP1 PUSH1 0x40 ADD PUSH1 0x40 MSTORE DUP1 PUSH1 0x3 DUP2 MSTORE PUSH1 0x20 ADD PUSH32 0x4552430000000000000000000000000000000000000000000000000000000000 DUP2 MSTORE POP DUP2 JUMP JUMPDEST PUSH1 0x0 DUP1 PUSH1 0x0 CALLER PUSH20 0xFFFFFFFFFFFFFFFFFFFFFFFFFFFFFFFFFFFFFFFF AND PUSH20 0xFFFFFFFFFFFFFFFFFFFFFFFFFFFFFFFFFFFFFFFF AND DUP2 MSTORE PUSH1 0x20 ADD SWAP1 DUP2 MSTORE PUSH1 0x20 ADD PUSH1 0x0 KECCAK256 SLOAD DUP3 GT ISZERO PUSH2 0x94C JUMPI PUSH1 0x0 DUP1 REVERT JUMPDEST DUP2 PUSH1 0x0 DUP1 CALLER PUSH20 0xFFFFFFFFFFFFFFFFFFFFFFFFFFFFFFFFFFFFFFFF AND PUSH20 0xFFFFFFFFFFFFFFFFFFFFFFFFFFFFFFFFFFFFFFFF AND DUP2 MSTORE PUSH1 0x20 ADD SWAP1 DUP2 MSTORE PUSH1 0x20 ADD PUSH1 0x0 KECCAK256 SLOAD SUB PUSH1 0x0 DUP1 CALLER PUSH20 0xFFFFFFFFFFFFFFFFFFFFFFFFFFFFFFFFFFFFFFFF AND PUSH20 0xFFFFFFFFFFFFFFFFFFFFFFFFFFFFFFFFFFFFFFFF AND DUP2 MSTORE PUSH1 0x20 ADD SWAP1 DUP2 MSTORE PUSH1 0x20 ADD PUSH1 0x0 KECCAK256 DUP2 SWAP1 SSTORE POP DUP2 PUSH1 0x0 DUP1 DUP6 PUSH20 0xFFFFFFFFFFFFFFFFFFFFFFFFFFFFFFFFFFFFFFFF AND PUSH20 0xFFFFFFFFFFFFFFFFFFFFFFFFFFFFFFFFFFFFFFFF AND DUP2 MSTORE PUSH1 0x20 ADD SWAP1 DUP2 MSTORE PUSH1 0x20 ADD PUSH1 0x0 KECCAK256 SLOAD ADD PUSH1 0x0 DUP1 DUP6 PUSH20 0xFFFFFFFFFFFFFFFFFFFFFFFFFFFFFFFFFFFFFFFF AND PUSH20 0xFFFFFFFFFFFFFFFFFFFFFFFFFFFFFFFFFFFFFFFF AND DUP2 MSTORE PUSH1 0x20 ADD SWAP1 DUP2 MSTORE PUSH1 0x20 ADD PUSH1 0x0 KECCAK256 DUP2 SWAP1 SSTORE POP DUP3 PUSH20 0xFFFFFFFFFFFFFFFFFFFFFFFFFFFFFFFFFFFFFFFF AND CALLER PUSH20 0xFFFFFFFFFFFFFFFFFFFFFFFFFFFFFFFFFFFFFFFF AND PUSH32 0xDDF252AD1BE2C89B69C2B068FC378DAA952BA7F163C4A11628F55A4DF523B3EF DUP5 PUSH1 0x40 MLOAD DUP1 DUP3 DUP2 MSTORE PUSH1 0x20 ADD SWAP2 POP POP PUSH1 0x40 MLOAD DUP1 SWAP2 SUB SWAP1 LOG3 PUSH1 0x1 SWAP1 POP SWAP3 SWAP2 POP POP JUMP JUMPDEST PUSH1 0x0 PUSH1 0x1 PUSH1 0x0 DUP5 PUSH20 0xFFFFFFFFFFFFFFFFFFFFFFFFFFFFFFFFFFFFFFFF AND PUSH20 0xFFFFFFFFFFFFFFFFFFFFFFFFFFFFFFFFFFFFFFFF AND DUP2 MSTORE PUSH1 0x20 ADD SWAP1 DUP2 MSTORE PUSH1 0x20 ADD PUSH1 0x0 KECCAK256 PUSH1 0x0 DUP4 PUSH20 0xFFFFFFFFFFFFFFFFFFFFFFFFFFFFFFFFFFFFFFFF AND PUSH20 0xFFFFFFFFFFFFFFFFFFFFFFFFFFFFFFFFFFFFFFFF AND DUP2 MSTORE PUSH1 0x20 ADD SWAP1 DUP2 MSTORE PUSH1 0x20 ADD PUSH1 0x0 KECCAK256 SLOAD SWAP1 POP SWAP3 SWAP2 POP POP JUMP INVALID LOG2 PUSH5 0x6970667358 0x22 SLT KECCAK256 0xA6 PUSH10 0xB2383B30DC3EF8BCC0AA CODECOPY PUSH13 0x763B52C58F3A214ECA34A51961 SWAP15 JUMP SWAP6 0xDF 0xC5 PUSH5 0x736F6C6343 STOP SMOD MOD STOP CALLER "
				},
				"gasEstimates": {
					"creation": {
						"codeDepositCost": "544800",
						"executionCost": "infinite",
						"totalCost": "infinite"
					},
					"external": {
						"depositToken(address,uint256)": "infinite",
						"getOneToken()": "infinite",
						"isCompleted(address)": "34735",
						"score()": "1071",
						"token()": "1135",
						"withdrawToken(address,uint256)": "infinite"
					}
				},
				"methodIdentifiers": {
					"depositToken(address,uint256)": "338b5dea",
					"getOneToken()": "bb15dade",
					"isCompleted(address)": "030bd8c9",
					"score()": "efedc669",
					"token()": "fc0c546a",
					"withdrawToken(address,uint256)": "9e281a98"
				}
			},
			"storageLayout": {
				"storage": [
					{
						"astId": 342,
						"contract": "SecLessonPoc-main/contracts/externalContract/check/bank2.sol:check",
						"label": "accounts",
						"offset": 0,
						"slot": "0",
						"type": "t_mapping(t_address,t_mapping(t_address,t_uint256))"
					},
					{
						"astId": 344,
						"contract": "SecLessonPoc-main/contracts/externalContract/check/bank2.sol:check",
						"label": "token",
						"offset": 0,
						"slot": "1",
						"type": "t_contract(ERC20)336"
					},
					{
						"astId": 513,
						"contract": "SecLessonPoc-main/contracts/externalContract/check/bank2.sol:check",
						"label": "score",
						"offset": 0,
						"slot": "2",
						"type": "t_uint256"
					}
				],
				"types": {
					"t_address": {
						"encoding": "inplace",
						"label": "address",
						"numberOfBytes": "20"
					},
					"t_contract(ERC20)336": {
						"encoding": "inplace",
						"label": "contract ERC20",
						"numberOfBytes": "20"
					},
					"t_mapping(t_address,t_mapping(t_address,t_uint256))": {
						"encoding": "mapping",
						"key": "t_address",
						"label": "mapping(address => mapping(address => uint256))",
						"numberOfBytes": "32",
						"value": "t_mapping(t_address,t_uint256)"
					},
					"t_mapping(t_address,t_uint256)": {
						"encoding": "mapping",
						"key": "t_address",
						"label": "mapping(address => uint256)",
						"numberOfBytes": "32",
						"value": "t_uint256"
					},
					"t_uint256": {
						"encoding": "inplace",
						"label": "uint256",
						"numberOfBytes": "32"
					}
				}
			},
			"userdoc": {
				"kind": "user",
				"methods": {},
				"version": 1
			}
		}
	}
}