{
	"shoot/1/动态数据类型的存储方式/1.sol": {
		"stringer": {
			"abi": [
				{
					"inputs": [
						{
							"internalType": "uint256",
							"name": "slot",
							"type": "uint256"
						}
					],
					"name": "getStorageAt",
					"outputs": [
						{
							"internalType": "bytes32",
							"name": "ret",
							"type": "bytes32"
						}
					],
					"stateMutability": "view",
					"type": "function"
				},
				{
					"inputs": [],
					"name": "getstring",
					"outputs": [
						{
							"internalType": "bytes",
							"name": "",
							"type": "bytes"
						},
						{
							"internalType": "uint256",
							"name": "",
							"type": "uint256"
						}
					],
					"stateMutability": "view",
					"type": "function"
				},
				{
					"inputs": [],
					"name": "isCompleted",
					"outputs": [],
					"stateMutability": "nonpayable",
					"type": "function"
				},
				{
					"inputs": [],
					"name": "score",
					"outputs": [
						{
							"internalType": "uint256",
							"name": "",
							"type": "uint256"
						}
					],
					"stateMutability": "view",
					"type": "function"
				},
				{
					"inputs": [
						{
							"internalType": "bytes32",
							"name": "slot",
							"type": "bytes32"
						},
						{
							"internalType": "bytes32",
							"name": "value",
							"type": "bytes32"
						}
					],
					"name": "setSlot",
					"outputs": [],
					"stateMutability": "nonpayable",
					"type": "function"
				}
			],
			"devdoc": {
				"kind": "dev",
				"methods": {},
				"version": 1
			},
			"evm": {
				"assembly": "    /* \"shoot/1/\\xe5\\x8a\\xa8\\xe6\\x80\\x81\\xe6\\x95\\xb0\\xe6\\x8d\\xae\\xe7\\xb1\\xbb\\xe5\\x9e\\x8b\\xe7\\x9a\\x84\\xe5\\xad\\x98\\xe5\\x82\\xa8\\xe6\\x96\\xb9\\xe5\\xbc\\x8f/1.sol\":606:1794  contract stringer{... */\n  mstore(0x40, 0x80)\n    /* \"shoot/1/\\xe5\\x8a\\xa8\\xe6\\x80\\x81\\xe6\\x95\\xb0\\xe6\\x8d\\xae\\xe7\\xb1\\xbb\\xe5\\x9e\\x8b\\xe7\\x9a\\x84\\xe5\\xad\\x98\\xe5\\x82\\xa8\\xe6\\x96\\xb9\\xe5\\xbc\\x8f/1.sol\":630:661  string private string1 = \"cuit\" */\n  mload(0x40)\n  dup1\n  0x40\n  add\n  0x40\n  mstore\n  dup1\n  0x04\n  dup2\n  mstore\n  0x20\n  add\n  0x6375697400000000000000000000000000000000000000000000000000000000\n  dup2\n  mstore\n  pop\n  0x00\n  swap1\n  dup2\n  tag_1\n  swap2\n  swap1\n  tag_2\n  jump\t// in\ntag_1:\n  pop\n    /* \"shoot/1/\\xe5\\x8a\\xa8\\xe6\\x80\\x81\\xe6\\x95\\xb0\\xe6\\x8d\\xae\\xe7\\xb1\\xbb\\xe5\\x9e\\x8b\\xe7\\x9a\\x84\\xe5\\xad\\x98\\xe5\\x82\\xa8\\xe6\\x96\\xb9\\xe5\\xbc\\x8f/1.sol\":671:733  string private string2 = \"cuit, the best school of blockchain\" */\n  mload(0x40)\n  dup1\n  0x60\n  add\n  0x40\n  mstore\n  dup1\n  0x23\n  dup2\n  mstore\n  0x20\n  add\n  data_5ed921eac8675589ca212f311e66a13f32e180dfd4bfc08b7c7594d368eb71dc\n  0x23\n  swap2\n  codecopy\n  0x01\n  swap1\n  dup2\n  tag_3\n  swap2\n  swap1\n  tag_2\n  jump\t// in\ntag_3:\n  pop\n    /* \"shoot/1/\\xe5\\x8a\\xa8\\xe6\\x80\\x81\\xe6\\x95\\xb0\\xe6\\x8d\\xae\\xe7\\xb1\\xbb\\xe5\\x9e\\x8b\\xe7\\x9a\\x84\\xe5\\xad\\x98\\xe5\\x82\\xa8\\xe6\\x96\\xb9\\xe5\\xbc\\x8f/1.sol\":606:1794  contract stringer{... */\n  callvalue\n  dup1\n  iszero\n  tag_4\n  jumpi\n  0x00\n  dup1\n  revert\ntag_4:\n  pop\n  jump(tag_5)\n    /* \"#utility.yul\":7:106   */\ntag_6:\n    /* \"#utility.yul\":59:65   */\n  0x00\n    /* \"#utility.yul\":93:98   */\n  dup2\n    /* \"#utility.yul\":87:99   */\n  mload\n    /* \"#utility.yul\":77:99   */\n  swap1\n  pop\n    /* \"#utility.yul\":7:106   */\n  swap2\n  swap1\n  pop\n  jump\t// out\n    /* \"#utility.yul\":112:292   */\ntag_7:\n    /* \"#utility.yul\":160:237   */\n  0x4e487b7100000000000000000000000000000000000000000000000000000000\n    /* \"#utility.yul\":157:158   */\n  0x00\n    /* \"#utility.yul\":150:238   */\n  mstore\n    /* \"#utility.yul\":257:261   */\n  0x41\n    /* \"#utility.yul\":254:255   */\n  0x04\n    /* \"#utility.yul\":247:262   */\n  mstore\n    /* \"#utility.yul\":281:285   */\n  0x24\n    /* \"#utility.yul\":278:279   */\n  0x00\n    /* \"#utility.yul\":271:286   */\n  revert\n    /* \"#utility.yul\":298:478   */\ntag_8:\n    /* \"#utility.yul\":346:423   */\n  0x4e487b7100000000000000000000000000000000000000000000000000000000\n    /* \"#utility.yul\":343:344   */\n  0x00\n    /* \"#utility.yul\":336:424   */\n  mstore\n    /* \"#utility.yul\":443:447   */\n  0x22\n    /* \"#utility.yul\":440:441   */\n  0x04\n    /* \"#utility.yul\":433:448   */\n  mstore\n    /* \"#utility.yul\":467:471   */\n  0x24\n    /* \"#utility.yul\":464:465   */\n  0x00\n    /* \"#utility.yul\":457:472   */\n  revert\n    /* \"#utility.yul\":484:804   */\ntag_9:\n    /* \"#utility.yul\":528:534   */\n  0x00\n    /* \"#utility.yul\":565:566   */\n  0x02\n    /* \"#utility.yul\":559:563   */\n  dup3\n    /* \"#utility.yul\":555:567   */\n  div\n    /* \"#utility.yul\":545:567   */\n  swap1\n  pop\n    /* \"#utility.yul\":612:613   */\n  0x01\n    /* \"#utility.yul\":606:610   */\n  dup3\n    /* \"#utility.yul\":602:614   */\n  and\n    /* \"#utility.yul\":633:651   */\n  dup1\n    /* \"#utility.yul\":623:704   */\n  tag_31\n  jumpi\n    /* \"#utility.yul\":689:693   */\n  0x7f\n    /* \"#utility.yul\":681:687   */\n  dup3\n    /* \"#utility.yul\":677:694   */\n  and\n    /* \"#utility.yul\":667:694   */\n  swap2\n  pop\n    /* \"#utility.yul\":623:704   */\ntag_31:\n    /* \"#utility.yul\":751:753   */\n  0x20\n    /* \"#utility.yul\":743:749   */\n  dup3\n    /* \"#utility.yul\":740:754   */\n  lt\n    /* \"#utility.yul\":720:738   */\n  dup2\n    /* \"#utility.yul\":717:755   */\n  sub\n    /* \"#utility.yul\":714:798   */\n  tag_32\n  jumpi\n    /* \"#utility.yul\":770:788   */\n  tag_33\n  tag_8\n  jump\t// in\ntag_33:\n    /* \"#utility.yul\":714:798   */\ntag_32:\n    /* \"#utility.yul\":535:804   */\n  pop\n    /* \"#utility.yul\":484:804   */\n  swap2\n  swap1\n  pop\n  jump\t// out\n    /* \"#utility.yul\":810:951   */\ntag_10:\n    /* \"#utility.yul\":859:863   */\n  0x00\n    /* \"#utility.yul\":882:885   */\n  dup2\n    /* \"#utility.yul\":874:885   */\n  swap1\n  pop\n    /* \"#utility.yul\":905:908   */\n  dup2\n    /* \"#utility.yul\":902:903   */\n  0x00\n    /* \"#utility.yul\":895:909   */\n  mstore\n    /* \"#utility.yul\":939:943   */\n  0x20\n    /* \"#utility.yul\":936:937   */\n  0x00\n    /* \"#utility.yul\":926:944   */\n  keccak256\n    /* \"#utility.yul\":918:944   */\n  swap1\n  pop\n    /* \"#utility.yul\":810:951   */\n  swap2\n  swap1\n  pop\n  jump\t// out\n    /* \"#utility.yul\":957:1050   */\ntag_11:\n    /* \"#utility.yul\":994:1000   */\n  0x00\n    /* \"#utility.yul\":1041:1043   */\n  0x20\n    /* \"#utility.yul\":1036:1038   */\n  0x1f\n    /* \"#utility.yul\":1029:1034   */\n  dup4\n    /* \"#utility.yul\":1025:1039   */\n  add\n    /* \"#utility.yul\":1021:1044   */\n  div\n    /* \"#utility.yul\":1011:1044   */\n  swap1\n  pop\n    /* \"#utility.yul\":957:1050   */\n  swap2\n  swap1\n  pop\n  jump\t// out\n    /* \"#utility.yul\":1056:1163   */\ntag_12:\n    /* \"#utility.yul\":1100:1108   */\n  0x00\n    /* \"#utility.yul\":1150:1155   */\n  dup3\n    /* \"#utility.yul\":1144:1148   */\n  dup3\n    /* \"#utility.yul\":1140:1156   */\n  shl\n    /* \"#utility.yul\":1119:1156   */\n  swap1\n  pop\n    /* \"#utility.yul\":1056:1163   */\n  swap3\n  swap2\n  pop\n  pop\n  jump\t// out\n    /* \"#utility.yul\":1169:1562   */\ntag_13:\n    /* \"#utility.yul\":1238:1244   */\n  0x00\n    /* \"#utility.yul\":1288:1289   */\n  0x08\n    /* \"#utility.yul\":1276:1286   */\n  dup4\n    /* \"#utility.yul\":1272:1290   */\n  mul\n    /* \"#utility.yul\":1311:1408   */\n  tag_38\n    /* \"#utility.yul\":1341:1407   */\n  0xffffffffffffffffffffffffffffffffffffffffffffffffffffffffffffffff\n    /* \"#utility.yul\":1330:1339   */\n  dup3\n    /* \"#utility.yul\":1311:1408   */\n  tag_12\n  jump\t// in\ntag_38:\n    /* \"#utility.yul\":1429:1468   */\n  tag_39\n    /* \"#utility.yul\":1459:1467   */\n  dup7\n    /* \"#utility.yul\":1448:1457   */\n  dup4\n    /* \"#utility.yul\":1429:1468   */\n  tag_12\n  jump\t// in\ntag_39:\n    /* \"#utility.yul\":1417:1468   */\n  swap6\n  pop\n    /* \"#utility.yul\":1501:1505   */\n  dup1\n    /* \"#utility.yul\":1497:1506   */\n  not\n    /* \"#utility.yul\":1490:1495   */\n  dup5\n    /* \"#utility.yul\":1486:1507   */\n  and\n    /* \"#utility.yul\":1477:1507   */\n  swap4\n  pop\n    /* \"#utility.yul\":1550:1554   */\n  dup1\n    /* \"#utility.yul\":1540:1548   */\n  dup7\n    /* \"#utility.yul\":1536:1555   */\n  and\n    /* \"#utility.yul\":1529:1534   */\n  dup5\n    /* \"#utility.yul\":1526:1556   */\n  or\n    /* \"#utility.yul\":1516:1556   */\n  swap3\n  pop\n    /* \"#utility.yul\":1245:1562   */\n  pop\n  pop\n    /* \"#utility.yul\":1169:1562   */\n  swap4\n  swap3\n  pop\n  pop\n  pop\n  jump\t// out\n    /* \"#utility.yul\":1568:1645   */\ntag_14:\n    /* \"#utility.yul\":1605:1612   */\n  0x00\n    /* \"#utility.yul\":1634:1639   */\n  dup2\n    /* \"#utility.yul\":1623:1639   */\n  swap1\n  pop\n    /* \"#utility.yul\":1568:1645   */\n  swap2\n  swap1\n  pop\n  jump\t// out\n    /* \"#utility.yul\":1651:1711   */\ntag_15:\n    /* \"#utility.yul\":1679:1682   */\n  0x00\n    /* \"#utility.yul\":1700:1705   */\n  dup2\n    /* \"#utility.yul\":1693:1705   */\n  swap1\n  pop\n    /* \"#utility.yul\":1651:1711   */\n  swap2\n  swap1\n  pop\n  jump\t// out\n    /* \"#utility.yul\":1717:1859   */\ntag_16:\n    /* \"#utility.yul\":1767:1776   */\n  0x00\n    /* \"#utility.yul\":1800:1853   */\n  tag_43\n    /* \"#utility.yul\":1818:1852   */\n  tag_44\n    /* \"#utility.yul\":1827:1851   */\n  tag_45\n    /* \"#utility.yul\":1845:1850   */\n  dup5\n    /* \"#utility.yul\":1827:1851   */\n  tag_14\n  jump\t// in\ntag_45:\n    /* \"#utility.yul\":1818:1852   */\n  tag_15\n  jump\t// in\ntag_44:\n    /* \"#utility.yul\":1800:1853   */\n  tag_14\n  jump\t// in\ntag_43:\n    /* \"#utility.yul\":1787:1853   */\n  swap1\n  pop\n    /* \"#utility.yul\":1717:1859   */\n  swap2\n  swap1\n  pop\n  jump\t// out\n    /* \"#utility.yul\":1865:1940   */\ntag_17:\n    /* \"#utility.yul\":1908:1911   */\n  0x00\n    /* \"#utility.yul\":1929:1934   */\n  dup2\n    /* \"#utility.yul\":1922:1934   */\n  swap1\n  pop\n    /* \"#utility.yul\":1865:1940   */\n  swap2\n  swap1\n  pop\n  jump\t// out\n    /* \"#utility.yul\":1946:2215   */\ntag_18:\n    /* \"#utility.yul\":2056:2095   */\n  tag_48\n    /* \"#utility.yul\":2087:2094   */\n  dup4\n    /* \"#utility.yul\":2056:2095   */\n  tag_16\n  jump\t// in\ntag_48:\n    /* \"#utility.yul\":2117:2208   */\n  tag_49\n    /* \"#utility.yul\":2166:2207   */\n  tag_50\n    /* \"#utility.yul\":2190:2206   */\n  dup3\n    /* \"#utility.yul\":2166:2207   */\n  tag_17\n  jump\t// in\ntag_50:\n    /* \"#utility.yul\":2158:2164   */\n  dup5\n    /* \"#utility.yul\":2151:2155   */\n  dup5\n    /* \"#utility.yul\":2145:2156   */\n  sload\n    /* \"#utility.yul\":2117:2208   */\n  tag_13\n  jump\t// in\ntag_49:\n    /* \"#utility.yul\":2111:2115   */\n  dup3\n    /* \"#utility.yul\":2104:2209   */\n  sstore\n    /* \"#utility.yul\":2022:2215   */\n  pop\n    /* \"#utility.yul\":1946:2215   */\n  pop\n  pop\n  pop\n  jump\t// out\n    /* \"#utility.yul\":2221:2294   */\ntag_19:\n    /* \"#utility.yul\":2266:2269   */\n  0x00\n    /* \"#utility.yul\":2221:2294   */\n  swap1\n  jump\t// out\n    /* \"#utility.yul\":2300:2489   */\ntag_20:\n    /* \"#utility.yul\":2377:2409   */\n  tag_53\n  tag_19\n  jump\t// in\ntag_53:\n    /* \"#utility.yul\":2418:2483   */\n  tag_54\n    /* \"#utility.yul\":2476:2482   */\n  dup2\n    /* \"#utility.yul\":2468:2474   */\n  dup5\n    /* \"#utility.yul\":2462:2466   */\n  dup5\n    /* \"#utility.yul\":2418:2483   */\n  tag_18\n  jump\t// in\ntag_54:\n    /* \"#utility.yul\":2353:2489   */\n  pop\n    /* \"#utility.yul\":2300:2489   */\n  pop\n  pop\n  jump\t// out\n    /* \"#utility.yul\":2495:2681   */\ntag_21:\n    /* \"#utility.yul\":2555:2675   */\ntag_56:\n    /* \"#utility.yul\":2572:2575   */\n  dup2\n    /* \"#utility.yul\":2565:2570   */\n  dup2\n    /* \"#utility.yul\":2562:2576   */\n  lt\n    /* \"#utility.yul\":2555:2675   */\n  iszero\n  tag_58\n  jumpi\n    /* \"#utility.yul\":2626:2665   */\n  tag_59\n    /* \"#utility.yul\":2663:2664   */\n  0x00\n    /* \"#utility.yul\":2656:2661   */\n  dup3\n    /* \"#utility.yul\":2626:2665   */\n  tag_20\n  jump\t// in\ntag_59:\n    /* \"#utility.yul\":2599:2600   */\n  0x01\n    /* \"#utility.yul\":2592:2597   */\n  dup2\n    /* \"#utility.yul\":2588:2601   */\n  add\n    /* \"#utility.yul\":2579:2601   */\n  swap1\n  pop\n    /* \"#utility.yul\":2555:2675   */\n  jump(tag_56)\ntag_58:\n    /* \"#utility.yul\":2495:2681   */\n  pop\n  pop\n  jump\t// out\n    /* \"#utility.yul\":2687:3230   */\ntag_22:\n    /* \"#utility.yul\":2788:2790   */\n  0x1f\n    /* \"#utility.yul\":2783:2786   */\n  dup3\n    /* \"#utility.yul\":2780:2791   */\n  gt\n    /* \"#utility.yul\":2777:3223   */\n  iszero\n  tag_61\n  jumpi\n    /* \"#utility.yul\":2822:2860   */\n  tag_62\n    /* \"#utility.yul\":2854:2859   */\n  dup2\n    /* \"#utility.yul\":2822:2860   */\n  tag_10\n  jump\t// in\ntag_62:\n    /* \"#utility.yul\":2906:2935   */\n  tag_63\n    /* \"#utility.yul\":2924:2934   */\n  dup5\n    /* \"#utility.yul\":2906:2935   */\n  tag_11\n  jump\t// in\ntag_63:\n    /* \"#utility.yul\":2896:2904   */\n  dup2\n    /* \"#utility.yul\":2892:2936   */\n  add\n    /* \"#utility.yul\":3089:3091   */\n  0x20\n    /* \"#utility.yul\":3077:3087   */\n  dup6\n    /* \"#utility.yul\":3074:3092   */\n  lt\n    /* \"#utility.yul\":3071:3120   */\n  iszero\n  tag_64\n  jumpi\n    /* \"#utility.yul\":3110:3118   */\n  dup2\n    /* \"#utility.yul\":3095:3118   */\n  swap1\n  pop\n    /* \"#utility.yul\":3071:3120   */\ntag_64:\n    /* \"#utility.yul\":3133:3213   */\n  tag_65\n    /* \"#utility.yul\":3189:3211   */\n  tag_66\n    /* \"#utility.yul\":3207:3210   */\n  dup6\n    /* \"#utility.yul\":3189:3211   */\n  tag_11\n  jump\t// in\ntag_66:\n    /* \"#utility.yul\":3179:3187   */\n  dup4\n    /* \"#utility.yul\":3175:3212   */\n  add\n    /* \"#utility.yul\":3162:3173   */\n  dup3\n    /* \"#utility.yul\":3133:3213   */\n  tag_21\n  jump\t// in\ntag_65:\n    /* \"#utility.yul\":2792:3223   */\n  pop\n  pop\n    /* \"#utility.yul\":2777:3223   */\ntag_61:\n    /* \"#utility.yul\":2687:3230   */\n  pop\n  pop\n  pop\n  jump\t// out\n    /* \"#utility.yul\":3236:3353   */\ntag_23:\n    /* \"#utility.yul\":3290:3298   */\n  0x00\n    /* \"#utility.yul\":3340:3345   */\n  dup3\n    /* \"#utility.yul\":3334:3338   */\n  dup3\n    /* \"#utility.yul\":3330:3346   */\n  shr\n    /* \"#utility.yul\":3309:3346   */\n  swap1\n  pop\n    /* \"#utility.yul\":3236:3353   */\n  swap3\n  swap2\n  pop\n  pop\n  jump\t// out\n    /* \"#utility.yul\":3359:3528   */\ntag_24:\n    /* \"#utility.yul\":3403:3409   */\n  0x00\n    /* \"#utility.yul\":3436:3487   */\n  tag_69\n    /* \"#utility.yul\":3484:3485   */\n  0x00\n    /* \"#utility.yul\":3480:3486   */\n  not\n    /* \"#utility.yul\":3472:3477   */\n  dup5\n    /* \"#utility.yul\":3469:3470   */\n  0x08\n    /* \"#utility.yul\":3465:3478   */\n  mul\n    /* \"#utility.yul\":3436:3487   */\n  tag_23\n  jump\t// in\ntag_69:\n    /* \"#utility.yul\":3432:3488   */\n  not\n    /* \"#utility.yul\":3517:3521   */\n  dup1\n    /* \"#utility.yul\":3511:3515   */\n  dup4\n    /* \"#utility.yul\":3507:3522   */\n  and\n    /* \"#utility.yul\":3497:3522   */\n  swap2\n  pop\n    /* \"#utility.yul\":3410:3528   */\n  pop\n    /* \"#utility.yul\":3359:3528   */\n  swap3\n  swap2\n  pop\n  pop\n  jump\t// out\n    /* \"#utility.yul\":3533:3828   */\ntag_25:\n    /* \"#utility.yul\":3609:3613   */\n  0x00\n    /* \"#utility.yul\":3755:3784   */\n  tag_71\n    /* \"#utility.yul\":3780:3783   */\n  dup4\n    /* \"#utility.yul\":3774:3778   */\n  dup4\n    /* \"#utility.yul\":3755:3784   */\n  tag_24\n  jump\t// in\ntag_71:\n    /* \"#utility.yul\":3747:3784   */\n  swap2\n  pop\n    /* \"#utility.yul\":3817:3820   */\n  dup3\n    /* \"#utility.yul\":3814:3815   */\n  0x02\n    /* \"#utility.yul\":3810:3821   */\n  mul\n    /* \"#utility.yul\":3804:3808   */\n  dup3\n    /* \"#utility.yul\":3801:3822   */\n  or\n    /* \"#utility.yul\":3793:3822   */\n  swap1\n  pop\n    /* \"#utility.yul\":3533:3828   */\n  swap3\n  swap2\n  pop\n  pop\n  jump\t// out\n    /* \"#utility.yul\":3833:5228   */\ntag_2:\n    /* \"#utility.yul\":3950:3987   */\n  tag_73\n    /* \"#utility.yul\":3983:3986   */\n  dup3\n    /* \"#utility.yul\":3950:3987   */\n  tag_6\n  jump\t// in\ntag_73:\n    /* \"#utility.yul\":4052:4070   */\n  0xffffffffffffffff\n    /* \"#utility.yul\":4044:4050   */\n  dup2\n    /* \"#utility.yul\":4041:4071   */\n  gt\n    /* \"#utility.yul\":4038:4094   */\n  iszero\n  tag_74\n  jumpi\n    /* \"#utility.yul\":4074:4092   */\n  tag_75\n  tag_7\n  jump\t// in\ntag_75:\n    /* \"#utility.yul\":4038:4094   */\ntag_74:\n    /* \"#utility.yul\":4118:4156   */\n  tag_76\n    /* \"#utility.yul\":4150:4154   */\n  dup3\n    /* \"#utility.yul\":4144:4155   */\n  sload\n    /* \"#utility.yul\":4118:4156   */\n  tag_9\n  jump\t// in\ntag_76:\n    /* \"#utility.yul\":4203:4270   */\n  tag_77\n    /* \"#utility.yul\":4263:4269   */\n  dup3\n    /* \"#utility.yul\":4255:4261   */\n  dup3\n    /* \"#utility.yul\":4249:4253   */\n  dup6\n    /* \"#utility.yul\":4203:4270   */\n  tag_22\n  jump\t// in\ntag_77:\n    /* \"#utility.yul\":4297:4298   */\n  0x00\n    /* \"#utility.yul\":4321:4325   */\n  0x20\n    /* \"#utility.yul\":4308:4325   */\n  swap1\n  pop\n    /* \"#utility.yul\":4353:4355   */\n  0x1f\n    /* \"#utility.yul\":4345:4351   */\n  dup4\n    /* \"#utility.yul\":4342:4356   */\n  gt\n    /* \"#utility.yul\":4370:4371   */\n  0x01\n    /* \"#utility.yul\":4365:4983   */\n  dup2\n  eq\n  tag_79\n  jumpi\n    /* \"#utility.yul\":5027:5028   */\n  0x00\n    /* \"#utility.yul\":5044:5050   */\n  dup5\n    /* \"#utility.yul\":5041:5118   */\n  iszero\n  tag_80\n  jumpi\n    /* \"#utility.yul\":5093:5102   */\n  dup3\n    /* \"#utility.yul\":5088:5091   */\n  dup8\n    /* \"#utility.yul\":5084:5103   */\n  add\n    /* \"#utility.yul\":5078:5104   */\n  mload\n    /* \"#utility.yul\":5069:5104   */\n  swap1\n  pop\n    /* \"#utility.yul\":5041:5118   */\ntag_80:\n    /* \"#utility.yul\":5144:5211   */\n  tag_81\n    /* \"#utility.yul\":5204:5210   */\n  dup6\n    /* \"#utility.yul\":5197:5202   */\n  dup3\n    /* \"#utility.yul\":5144:5211   */\n  tag_25\n  jump\t// in\ntag_81:\n    /* \"#utility.yul\":5138:5142   */\n  dup7\n    /* \"#utility.yul\":5131:5212   */\n  sstore\n    /* \"#utility.yul\":5000:5222   */\n  pop\n    /* \"#utility.yul\":4335:5222   */\n  jump(tag_78)\n    /* \"#utility.yul\":4365:4983   */\ntag_79:\n    /* \"#utility.yul\":4417:4421   */\n  0x1f\n    /* \"#utility.yul\":4413:4422   */\n  not\n    /* \"#utility.yul\":4405:4411   */\n  dup5\n    /* \"#utility.yul\":4401:4423   */\n  and\n    /* \"#utility.yul\":4451:4488   */\n  tag_82\n    /* \"#utility.yul\":4483:4487   */\n  dup7\n    /* \"#utility.yul\":4451:4488   */\n  tag_10\n  jump\t// in\ntag_82:\n    /* \"#utility.yul\":4510:4511   */\n  0x00\n    /* \"#utility.yul\":4524:4732   */\ntag_83:\n    /* \"#utility.yul\":4538:4545   */\n  dup3\n    /* \"#utility.yul\":4535:4536   */\n  dup2\n    /* \"#utility.yul\":4532:4546   */\n  lt\n    /* \"#utility.yul\":4524:4732   */\n  iszero\n  tag_85\n  jumpi\n    /* \"#utility.yul\":4617:4626   */\n  dup5\n    /* \"#utility.yul\":4612:4615   */\n  dup10\n    /* \"#utility.yul\":4608:4627   */\n  add\n    /* \"#utility.yul\":4602:4628   */\n  mload\n    /* \"#utility.yul\":4594:4600   */\n  dup3\n    /* \"#utility.yul\":4587:4629   */\n  sstore\n    /* \"#utility.yul\":4668:4669   */\n  0x01\n    /* \"#utility.yul\":4660:4666   */\n  dup3\n    /* \"#utility.yul\":4656:4670   */\n  add\n    /* \"#utility.yul\":4646:4670   */\n  swap2\n  pop\n    /* \"#utility.yul\":4715:4717   */\n  0x20\n    /* \"#utility.yul\":4704:4713   */\n  dup6\n    /* \"#utility.yul\":4700:4718   */\n  add\n    /* \"#utility.yul\":4687:4718   */\n  swap5\n  pop\n    /* \"#utility.yul\":4561:4565   */\n  0x20\n    /* \"#utility.yul\":4558:4559   */\n  dup2\n    /* \"#utility.yul\":4554:4566   */\n  add\n    /* \"#utility.yul\":4549:4566   */\n  swap1\n  pop\n    /* \"#utility.yul\":4524:4732   */\n  jump(tag_83)\ntag_85:\n    /* \"#utility.yul\":4760:4766   */\n  dup7\n    /* \"#utility.yul\":4751:4758   */\n  dup4\n    /* \"#utility.yul\":4748:4767   */\n  lt\n    /* \"#utility.yul\":4745:4924   */\n  iszero\n  tag_86\n  jumpi\n    /* \"#utility.yul\":4818:4827   */\n  dup5\n    /* \"#utility.yul\":4813:4816   */\n  dup10\n    /* \"#utility.yul\":4809:4828   */\n  add\n    /* \"#utility.yul\":4803:4829   */\n  mload\n    /* \"#utility.yul\":4861:4909   */\n  tag_87\n    /* \"#utility.yul\":4903:4907   */\n  0x1f\n    /* \"#utility.yul\":4895:4901   */\n  dup10\n    /* \"#utility.yul\":4891:4908   */\n  and\n    /* \"#utility.yul\":4880:4889   */\n  dup3\n    /* \"#utility.yul\":4861:4909   */\n  tag_24\n  jump\t// in\ntag_87:\n    /* \"#utility.yul\":4853:4859   */\n  dup4\n    /* \"#utility.yul\":4846:4910   */\n  sstore\n    /* \"#utility.yul\":4768:4924   */\n  pop\n    /* \"#utility.yul\":4745:4924   */\ntag_86:\n    /* \"#utility.yul\":4970:4971   */\n  0x01\n    /* \"#utility.yul\":4966:4967   */\n  0x02\n    /* \"#utility.yul\":4958:4964   */\n  dup9\n    /* \"#utility.yul\":4954:4968   */\n  mul\n    /* \"#utility.yul\":4950:4972   */\n  add\n    /* \"#utility.yul\":4944:4948   */\n  dup9\n    /* \"#utility.yul\":4937:4973   */\n  sstore\n    /* \"#utility.yul\":4372:4983   */\n  pop\n  pop\n  pop\n    /* \"#utility.yul\":4335:5222   */\ntag_78:\n  pop\n    /* \"#utility.yul\":3925:5228   */\n  pop\n  pop\n  pop\n    /* \"#utility.yul\":3833:5228   */\n  pop\n  pop\n  jump\t// out\n    /* \"shoot/1/\\xe5\\x8a\\xa8\\xe6\\x80\\x81\\xe6\\x95\\xb0\\xe6\\x8d\\xae\\xe7\\xb1\\xbb\\xe5\\x9e\\x8b\\xe7\\x9a\\x84\\xe5\\xad\\x98\\xe5\\x82\\xa8\\xe6\\x96\\xb9\\xe5\\xbc\\x8f/1.sol\":606:1794  contract stringer{... */\ntag_5:\n  dataSize(sub_0)\n  dup1\n  dataOffset(sub_0)\n  0x00\n  codecopy\n  0x00\n  return\nstop\ndata_5ed921eac8675589ca212f311e66a13f32e180dfd4bfc08b7c7594d368eb71dc 637569742c207468652062657374207363686f6f6c206f6620626c6f636b636861696e\n\nsub_0: assembly {\n        /* \"shoot/1/\\xe5\\x8a\\xa8\\xe6\\x80\\x81\\xe6\\x95\\xb0\\xe6\\x8d\\xae\\xe7\\xb1\\xbb\\xe5\\x9e\\x8b\\xe7\\x9a\\x84\\xe5\\xad\\x98\\xe5\\x82\\xa8\\xe6\\x96\\xb9\\xe5\\xbc\\x8f/1.sol\":606:1794  contract stringer{... */\n      mstore(0x40, 0x80)\n      callvalue\n      dup1\n      iszero\n      tag_1\n      jumpi\n      0x00\n      dup1\n      revert\n    tag_1:\n      pop\n      jumpi(tag_2, lt(calldatasize, 0x04))\n      shr(0xe0, calldataload(0x00))\n      dup1\n      0xd3607ed9\n      eq\n      tag_3\n      jumpi\n      dup1\n      0xe2f5cc0d\n      eq\n      tag_4\n      jumpi\n      dup1\n      0xefedc669\n      eq\n      tag_5\n      jumpi\n      dup1\n      0xf6baafa5\n      eq\n      tag_6\n      jumpi\n      dup1\n      0xfa391c64\n      eq\n      tag_7\n      jumpi\n    tag_2:\n      0x00\n      dup1\n      revert\n        /* \"shoot/1/\\xe5\\x8a\\xa8\\xe6\\x80\\x81\\xe6\\x95\\xb0\\xe6\\x8d\\xae\\xe7\\xb1\\xbb\\xe5\\x9e\\x8b\\xe7\\x9a\\x84\\xe5\\xad\\x98\\xe5\\x82\\xa8\\xe6\\x96\\xb9\\xe5\\xbc\\x8f/1.sol\":777:950  function setSlot(bytes32 slot,bytes32 value)public {... */\n    tag_3:\n      tag_8\n      0x04\n      dup1\n      calldatasize\n      sub\n      dup2\n      add\n      swap1\n      tag_9\n      swap2\n      swap1\n      tag_10\n      jump\t// in\n    tag_9:\n      tag_11\n      jump\t// in\n    tag_8:\n      stop\n        /* \"shoot/1/\\xe5\\x8a\\xa8\\xe6\\x80\\x81\\xe6\\x95\\xb0\\xe6\\x8d\\xae\\xe7\\xb1\\xbb\\xe5\\x9e\\x8b\\xe7\\x9a\\x84\\xe5\\xad\\x98\\xe5\\x82\\xa8\\xe6\\x96\\xb9\\xe5\\xbc\\x8f/1.sol\":956:1098  function getstring() public view returns(bytes memory,uint256){... */\n    tag_4:\n      tag_12\n      tag_13\n      jump\t// in\n    tag_12:\n      mload(0x40)\n      tag_14\n      swap3\n      swap2\n      swap1\n      tag_15\n      jump\t// in\n    tag_14:\n      mload(0x40)\n      dup1\n      swap2\n      sub\n      swap1\n      return\n        /* \"shoot/1/\\xe5\\x8a\\xa8\\xe6\\x80\\x81\\xe6\\x95\\xb0\\xe6\\x8d\\xae\\xe7\\xb1\\xbb\\xe5\\x9e\\x8b\\xe7\\x9a\\x84\\xe5\\xad\\x98\\xe5\\x82\\xa8\\xe6\\x96\\xb9\\xe5\\xbc\\x8f/1.sol\":744:764  uint256 public score */\n    tag_5:\n      tag_16\n      tag_17\n      jump\t// in\n    tag_16:\n      mload(0x40)\n      tag_18\n      swap2\n      swap1\n      tag_19\n      jump\t// in\n    tag_18:\n      mload(0x40)\n      dup1\n      swap2\n      sub\n      swap1\n      return\n        /* \"shoot/1/\\xe5\\x8a\\xa8\\xe6\\x80\\x81\\xe6\\x95\\xb0\\xe6\\x8d\\xae\\xe7\\xb1\\xbb\\xe5\\x9e\\x8b\\xe7\\x9a\\x84\\xe5\\xad\\x98\\xe5\\x82\\xa8\\xe6\\x96\\xb9\\xe5\\xbc\\x8f/1.sol\":1104:1242  function getStorageAt(uint slot) public view returns (bytes32 ret) {... */\n    tag_6:\n      tag_20\n      0x04\n      dup1\n      calldatasize\n      sub\n      dup2\n      add\n      swap1\n      tag_21\n      swap2\n      swap1\n      tag_22\n      jump\t// in\n    tag_21:\n      tag_23\n      jump\t// in\n    tag_20:\n      mload(0x40)\n      tag_24\n      swap2\n      swap1\n      tag_25\n      jump\t// in\n    tag_24:\n      mload(0x40)\n      dup1\n      swap2\n      sub\n      swap1\n      return\n        /* \"shoot/1/\\xe5\\x8a\\xa8\\xe6\\x80\\x81\\xe6\\x95\\xb0\\xe6\\x8d\\xae\\xe7\\xb1\\xbb\\xe5\\x9e\\x8b\\xe7\\x9a\\x84\\xe5\\xad\\x98\\xe5\\x82\\xa8\\xe6\\x96\\xb9\\xe5\\xbc\\x8f/1.sol\":1248:1791  function isCompleted()public{... */\n    tag_7:\n      tag_26\n      tag_27\n      jump\t// in\n    tag_26:\n      stop\n        /* \"shoot/1/\\xe5\\x8a\\xa8\\xe6\\x80\\x81\\xe6\\x95\\xb0\\xe6\\x8d\\xae\\xe7\\xb1\\xbb\\xe5\\x9e\\x8b\\xe7\\x9a\\x84\\xe5\\xad\\x98\\xe5\\x82\\xa8\\xe6\\x96\\xb9\\xe5\\xbc\\x8f/1.sol\":777:950  function setSlot(bytes32 slot,bytes32 value)public {... */\n    tag_11:\n        /* \"shoot/1/\\xe5\\x8a\\xa8\\xe6\\x80\\x81\\xe6\\x95\\xb0\\xe6\\x8d\\xae\\xe7\\xb1\\xbb\\xe5\\x9e\\x8b\\xe7\\x9a\\x84\\xe5\\xad\\x98\\xe5\\x82\\xa8\\xe6\\x96\\xb9\\xe5\\xbc\\x8f/1.sol\":870:871  2 */\n      0x02\n        /* \"shoot/1/\\xe5\\x8a\\xa8\\xe6\\x80\\x81\\xe6\\x95\\xb0\\xe6\\x8d\\xae\\xe7\\xb1\\xbb\\xe5\\x9e\\x8b\\xe7\\x9a\\x84\\xe5\\xad\\x98\\xe5\\x82\\xa8\\xe6\\x96\\xb9\\xe5\\xbc\\x8f/1.sol\":854:873  bytes32(uint256(2)) */\n      0x00\n      shl\n        /* \"shoot/1/\\xe5\\x8a\\xa8\\xe6\\x80\\x81\\xe6\\x95\\xb0\\xe6\\x8d\\xae\\xe7\\xb1\\xbb\\xe5\\x9e\\x8b\\xe7\\x9a\\x84\\xe5\\xad\\x98\\xe5\\x82\\xa8\\xe6\\x96\\xb9\\xe5\\xbc\\x8f/1.sol\":847:851  slot */\n      dup3\n        /* \"shoot/1/\\xe5\\x8a\\xa8\\xe6\\x80\\x81\\xe6\\x95\\xb0\\xe6\\x8d\\xae\\xe7\\xb1\\xbb\\xe5\\x9e\\x8b\\xe7\\x9a\\x84\\xe5\\xad\\x98\\xe5\\x82\\xa8\\xe6\\x96\\xb9\\xe5\\xbc\\x8f/1.sol\":847:873  slot !=bytes32(uint256(2)) */\n      sub\n        /* \"shoot/1/\\xe5\\x8a\\xa8\\xe6\\x80\\x81\\xe6\\x95\\xb0\\xe6\\x8d\\xae\\xe7\\xb1\\xbb\\xe5\\x9e\\x8b\\xe7\\x9a\\x84\\xe5\\xad\\x98\\xe5\\x82\\xa8\\xe6\\x96\\xb9\\xe5\\xbc\\x8f/1.sol\":839:874  require(slot !=bytes32(uint256(2))) */\n      tag_29\n      jumpi\n      0x00\n      dup1\n      revert\n    tag_29:\n        /* \"shoot/1/\\xe5\\x8a\\xa8\\xe6\\x80\\x81\\xe6\\x95\\xb0\\xe6\\x8d\\xae\\xe7\\xb1\\xbb\\xe5\\x9e\\x8b\\xe7\\x9a\\x84\\xe5\\xad\\x98\\xe5\\x82\\xa8\\xe6\\x96\\xb9\\xe5\\xbc\\x8f/1.sol\":937:942  value */\n      dup1\n        /* \"shoot/1/\\xe5\\x8a\\xa8\\xe6\\x80\\x81\\xe6\\x95\\xb0\\xe6\\x8d\\xae\\xe7\\xb1\\xbb\\xe5\\x9e\\x8b\\xe7\\x9a\\x84\\xe5\\xad\\x98\\xe5\\x82\\xa8\\xe6\\x96\\xb9\\xe5\\xbc\\x8f/1.sol\":885:928  StorageSlotUpgradeable.getBytes32Slot(slot) */\n      tag_30\n        /* \"shoot/1/\\xe5\\x8a\\xa8\\xe6\\x80\\x81\\xe6\\x95\\xb0\\xe6\\x8d\\xae\\xe7\\xb1\\xbb\\xe5\\x9e\\x8b\\xe7\\x9a\\x84\\xe5\\xad\\x98\\xe5\\x82\\xa8\\xe6\\x96\\xb9\\xe5\\xbc\\x8f/1.sol\":923:927  slot */\n      dup4\n        /* \"shoot/1/\\xe5\\x8a\\xa8\\xe6\\x80\\x81\\xe6\\x95\\xb0\\xe6\\x8d\\xae\\xe7\\xb1\\xbb\\xe5\\x9e\\x8b\\xe7\\x9a\\x84\\xe5\\xad\\x98\\xe5\\x82\\xa8\\xe6\\x96\\xb9\\xe5\\xbc\\x8f/1.sol\":885:922  StorageSlotUpgradeable.getBytes32Slot */\n      tag_31\n        /* \"shoot/1/\\xe5\\x8a\\xa8\\xe6\\x80\\x81\\xe6\\x95\\xb0\\xe6\\x8d\\xae\\xe7\\xb1\\xbb\\xe5\\x9e\\x8b\\xe7\\x9a\\x84\\xe5\\xad\\x98\\xe5\\x82\\xa8\\xe6\\x96\\xb9\\xe5\\xbc\\x8f/1.sol\":885:928  StorageSlotUpgradeable.getBytes32Slot(slot) */\n      jump\t// in\n    tag_30:\n        /* \"shoot/1/\\xe5\\x8a\\xa8\\xe6\\x80\\x81\\xe6\\x95\\xb0\\xe6\\x8d\\xae\\xe7\\xb1\\xbb\\xe5\\x9e\\x8b\\xe7\\x9a\\x84\\xe5\\xad\\x98\\xe5\\x82\\xa8\\xe6\\x96\\xb9\\xe5\\xbc\\x8f/1.sol\":885:934  StorageSlotUpgradeable.getBytes32Slot(slot).value */\n      0x00\n      add\n        /* \"shoot/1/\\xe5\\x8a\\xa8\\xe6\\x80\\x81\\xe6\\x95\\xb0\\xe6\\x8d\\xae\\xe7\\xb1\\xbb\\xe5\\x9e\\x8b\\xe7\\x9a\\x84\\xe5\\xad\\x98\\xe5\\x82\\xa8\\xe6\\x96\\xb9\\xe5\\xbc\\x8f/1.sol\":885:942  StorageSlotUpgradeable.getBytes32Slot(slot).value = value */\n      dup2\n      swap1\n      sstore\n      pop\n        /* \"shoot/1/\\xe5\\x8a\\xa8\\xe6\\x80\\x81\\xe6\\x95\\xb0\\xe6\\x8d\\xae\\xe7\\xb1\\xbb\\xe5\\x9e\\x8b\\xe7\\x9a\\x84\\xe5\\xad\\x98\\xe5\\x82\\xa8\\xe6\\x96\\xb9\\xe5\\xbc\\x8f/1.sol\":777:950  function setSlot(bytes32 slot,bytes32 value)public {... */\n      pop\n      pop\n      jump\t// out\n        /* \"shoot/1/\\xe5\\x8a\\xa8\\xe6\\x80\\x81\\xe6\\x95\\xb0\\xe6\\x8d\\xae\\xe7\\xb1\\xbb\\xe5\\x9e\\x8b\\xe7\\x9a\\x84\\xe5\\xad\\x98\\xe5\\x82\\xa8\\xe6\\x96\\xb9\\xe5\\xbc\\x8f/1.sol\":956:1098  function getstring() public view returns(bytes memory,uint256){... */\n    tag_13:\n        /* \"shoot/1/\\xe5\\x8a\\xa8\\xe6\\x80\\x81\\xe6\\x95\\xb0\\xe6\\x8d\\xae\\xe7\\xb1\\xbb\\xe5\\x9e\\x8b\\xe7\\x9a\\x84\\xe5\\xad\\x98\\xe5\\x82\\xa8\\xe6\\x96\\xb9\\xe5\\xbc\\x8f/1.sol\":997:1009  bytes memory */\n      0x60\n        /* \"shoot/1/\\xe5\\x8a\\xa8\\xe6\\x80\\x81\\xe6\\x95\\xb0\\xe6\\x8d\\xae\\xe7\\xb1\\xbb\\xe5\\x9e\\x8b\\xe7\\x9a\\x84\\xe5\\xad\\x98\\xe5\\x82\\xa8\\xe6\\x96\\xb9\\xe5\\xbc\\x8f/1.sol\":1010:1017  uint256 */\n      0x00\n        /* \"shoot/1/\\xe5\\x8a\\xa8\\xe6\\x80\\x81\\xe6\\x95\\xb0\\xe6\\x8d\\xae\\xe7\\xb1\\xbb\\xe5\\x9e\\x8b\\xe7\\x9a\\x84\\xe5\\xad\\x98\\xe5\\x82\\xa8\\xe6\\x96\\xb9\\xe5\\xbc\\x8f/1.sol\":1029:1043  bytes memory a */\n      dup1\n        /* \"shoot/1/\\xe5\\x8a\\xa8\\xe6\\x80\\x81\\xe6\\x95\\xb0\\xe6\\x8d\\xae\\xe7\\xb1\\xbb\\xe5\\x9e\\x8b\\xe7\\x9a\\x84\\xe5\\xad\\x98\\xe5\\x82\\xa8\\xe6\\x96\\xb9\\xe5\\xbc\\x8f/1.sol\":1052:1059  string1 */\n      0x00\n        /* \"shoot/1/\\xe5\\x8a\\xa8\\xe6\\x80\\x81\\xe6\\x95\\xb0\\xe6\\x8d\\xae\\xe7\\xb1\\xbb\\xe5\\x9e\\x8b\\xe7\\x9a\\x84\\xe5\\xad\\x98\\xe5\\x82\\xa8\\xe6\\x96\\xb9\\xe5\\xbc\\x8f/1.sol\":1029:1060  bytes memory a = bytes(string1) */\n      dup1\n      sload\n      tag_33\n      swap1\n      tag_34\n      jump\t// in\n    tag_33:\n      dup1\n      0x1f\n      add\n      0x20\n      dup1\n      swap2\n      div\n      mul\n      0x20\n      add\n      mload(0x40)\n      swap1\n      dup2\n      add\n      0x40\n      mstore\n      dup1\n      swap3\n      swap2\n      swap1\n      dup2\n      dup2\n      mstore\n      0x20\n      add\n      dup3\n      dup1\n      sload\n      tag_35\n      swap1\n      tag_34\n      jump\t// in\n    tag_35:\n      dup1\n      iszero\n      tag_36\n      jumpi\n      dup1\n      0x1f\n      lt\n      tag_37\n      jumpi\n      0x0100\n      dup1\n      dup4\n      sload\n      div\n      mul\n      dup4\n      mstore\n      swap2\n      0x20\n      add\n      swap2\n      jump(tag_36)\n    tag_37:\n      dup3\n      add\n      swap2\n      swap1\n      0x00\n      mstore\n      keccak256(0x00, 0x20)\n      swap1\n    tag_38:\n      dup2\n      sload\n      dup2\n      mstore\n      swap1\n      0x01\n      add\n      swap1\n      0x20\n      add\n      dup1\n      dup4\n      gt\n      tag_38\n      jumpi\n      dup3\n      swap1\n      sub\n      0x1f\n      and\n      dup3\n      add\n      swap2\n    tag_36:\n      pop\n      pop\n      pop\n      pop\n      pop\n      swap1\n      pop\n        /* \"shoot/1/\\xe5\\x8a\\xa8\\xe6\\x80\\x81\\xe6\\x95\\xb0\\xe6\\x8d\\xae\\xe7\\xb1\\xbb\\xe5\\x9e\\x8b\\xe7\\x9a\\x84\\xe5\\xad\\x98\\xe5\\x82\\xa8\\xe6\\x96\\xb9\\xe5\\xbc\\x8f/1.sol\":1079:1080  a */\n      dup1\n        /* \"shoot/1/\\xe5\\x8a\\xa8\\xe6\\x80\\x81\\xe6\\x95\\xb0\\xe6\\x8d\\xae\\xe7\\xb1\\xbb\\xe5\\x9e\\x8b\\xe7\\x9a\\x84\\xe5\\xad\\x98\\xe5\\x82\\xa8\\xe6\\x96\\xb9\\xe5\\xbc\\x8f/1.sol\":1081:1082  a */\n      dup2\n        /* \"shoot/1/\\xe5\\x8a\\xa8\\xe6\\x80\\x81\\xe6\\x95\\xb0\\xe6\\x8d\\xae\\xe7\\xb1\\xbb\\xe5\\x9e\\x8b\\xe7\\x9a\\x84\\xe5\\xad\\x98\\xe5\\x82\\xa8\\xe6\\x96\\xb9\\xe5\\xbc\\x8f/1.sol\":1081:1089  a.length */\n      mload\n        /* \"shoot/1/\\xe5\\x8a\\xa8\\xe6\\x80\\x81\\xe6\\x95\\xb0\\xe6\\x8d\\xae\\xe7\\xb1\\xbb\\xe5\\x9e\\x8b\\xe7\\x9a\\x84\\xe5\\xad\\x98\\xe5\\x82\\xa8\\xe6\\x96\\xb9\\xe5\\xbc\\x8f/1.sol\":1071:1090  return (a,a.length) */\n      swap3\n      pop\n      swap3\n      pop\n      pop\n        /* \"shoot/1/\\xe5\\x8a\\xa8\\xe6\\x80\\x81\\xe6\\x95\\xb0\\xe6\\x8d\\xae\\xe7\\xb1\\xbb\\xe5\\x9e\\x8b\\xe7\\x9a\\x84\\xe5\\xad\\x98\\xe5\\x82\\xa8\\xe6\\x96\\xb9\\xe5\\xbc\\x8f/1.sol\":956:1098  function getstring() public view returns(bytes memory,uint256){... */\n      swap1\n      swap2\n      jump\t// out\n        /* \"shoot/1/\\xe5\\x8a\\xa8\\xe6\\x80\\x81\\xe6\\x95\\xb0\\xe6\\x8d\\xae\\xe7\\xb1\\xbb\\xe5\\x9e\\x8b\\xe7\\x9a\\x84\\xe5\\xad\\x98\\xe5\\x82\\xa8\\xe6\\x96\\xb9\\xe5\\xbc\\x8f/1.sol\":744:764  uint256 public score */\n    tag_17:\n      sload(0x02)\n      dup2\n      jump\t// out\n        /* \"shoot/1/\\xe5\\x8a\\xa8\\xe6\\x80\\x81\\xe6\\x95\\xb0\\xe6\\x8d\\xae\\xe7\\xb1\\xbb\\xe5\\x9e\\x8b\\xe7\\x9a\\x84\\xe5\\xad\\x98\\xe5\\x82\\xa8\\xe6\\x96\\xb9\\xe5\\xbc\\x8f/1.sol\":1104:1242  function getStorageAt(uint slot) public view returns (bytes32 ret) {... */\n    tag_23:\n        /* \"shoot/1/\\xe5\\x8a\\xa8\\xe6\\x80\\x81\\xe6\\x95\\xb0\\xe6\\x8d\\xae\\xe7\\xb1\\xbb\\xe5\\x9e\\x8b\\xe7\\x9a\\x84\\xe5\\xad\\x98\\xe5\\x82\\xa8\\xe6\\x96\\xb9\\xe5\\xbc\\x8f/1.sol\":1158:1169  bytes32 ret */\n      0x00\n        /* \"shoot/1/\\xe5\\x8a\\xa8\\xe6\\x80\\x81\\xe6\\x95\\xb0\\xe6\\x8d\\xae\\xe7\\xb1\\xbb\\xe5\\x9e\\x8b\\xe7\\x9a\\x84\\xe5\\xad\\x98\\xe5\\x82\\xa8\\xe6\\x96\\xb9\\xe5\\xbc\\x8f/1.sol\":1219:1223  slot */\n      dup2\n        /* \"shoot/1/\\xe5\\x8a\\xa8\\xe6\\x80\\x81\\xe6\\x95\\xb0\\xe6\\x8d\\xae\\xe7\\xb1\\xbb\\xe5\\x9e\\x8b\\xe7\\x9a\\x84\\xe5\\xad\\x98\\xe5\\x82\\xa8\\xe6\\x96\\xb9\\xe5\\xbc\\x8f/1.sol\":1213:1224  sload(slot) */\n      sload\n        /* \"shoot/1/\\xe5\\x8a\\xa8\\xe6\\x80\\x81\\xe6\\x95\\xb0\\xe6\\x8d\\xae\\xe7\\xb1\\xbb\\xe5\\x9e\\x8b\\xe7\\x9a\\x84\\xe5\\xad\\x98\\xe5\\x82\\xa8\\xe6\\x96\\xb9\\xe5\\xbc\\x8f/1.sol\":1206:1224  ret := sload(slot) */\n      swap1\n      pop\n        /* \"shoot/1/\\xe5\\x8a\\xa8\\xe6\\x80\\x81\\xe6\\x95\\xb0\\xe6\\x8d\\xae\\xe7\\xb1\\xbb\\xe5\\x9e\\x8b\\xe7\\x9a\\x84\\xe5\\xad\\x98\\xe5\\x82\\xa8\\xe6\\x96\\xb9\\xe5\\xbc\\x8f/1.sol\":1104:1242  function getStorageAt(uint slot) public view returns (bytes32 ret) {... */\n      swap2\n      swap1\n      pop\n      jump\t// out\n        /* \"shoot/1/\\xe5\\x8a\\xa8\\xe6\\x80\\x81\\xe6\\x95\\xb0\\xe6\\x8d\\xae\\xe7\\xb1\\xbb\\xe5\\x9e\\x8b\\xe7\\x9a\\x84\\xe5\\xad\\x98\\xe5\\x82\\xa8\\xe6\\x96\\xb9\\xe5\\xbc\\x8f/1.sol\":1248:1791  function isCompleted()public{... */\n    tag_27:\n        /* \"shoot/1/\\xe5\\x8a\\xa8\\xe6\\x80\\x81\\xe6\\x95\\xb0\\xe6\\x8d\\xae\\xe7\\xb1\\xbb\\xe5\\x9e\\x8b\\xe7\\x9a\\x84\\xe5\\xad\\x98\\xe5\\x82\\xa8\\xe6\\x96\\xb9\\xe5\\xbc\\x8f/1.sol\":1294:1295  0 */\n      0x00\n        /* \"shoot/1/\\xe5\\x8a\\xa8\\xe6\\x80\\x81\\xe6\\x95\\xb0\\xe6\\x8d\\xae\\xe7\\xb1\\xbb\\xe5\\x9e\\x8b\\xe7\\x9a\\x84\\xe5\\xad\\x98\\xe5\\x82\\xa8\\xe6\\x96\\xb9\\xe5\\xbc\\x8f/1.sol\":1287:1292  score */\n      0x02\n        /* \"shoot/1/\\xe5\\x8a\\xa8\\xe6\\x80\\x81\\xe6\\x95\\xb0\\xe6\\x8d\\xae\\xe7\\xb1\\xbb\\xe5\\x9e\\x8b\\xe7\\x9a\\x84\\xe5\\xad\\x98\\xe5\\x82\\xa8\\xe6\\x96\\xb9\\xe5\\xbc\\x8f/1.sol\":1287:1295  score =0 */\n      dup2\n      swap1\n      sstore\n      pop\n        /* \"shoot/1/\\xe5\\x8a\\xa8\\xe6\\x80\\x81\\xe6\\x95\\xb0\\xe6\\x8d\\xae\\xe7\\xb1\\xbb\\xe5\\x9e\\x8b\\xe7\\x9a\\x84\\xe5\\xad\\x98\\xe5\\x82\\xa8\\xe6\\x96\\xb9\\xe5\\xbc\\x8f/1.sol\":1306:1323  bytes memory str1 */\n      0x00\n        /* \"shoot/1/\\xe5\\x8a\\xa8\\xe6\\x80\\x81\\xe6\\x95\\xb0\\xe6\\x8d\\xae\\xe7\\xb1\\xbb\\xe5\\x9e\\x8b\\xe7\\x9a\\x84\\xe5\\xad\\x98\\xe5\\x82\\xa8\\xe6\\x96\\xb9\\xe5\\xbc\\x8f/1.sol\":1332:1339  string1 */\n      dup1\n        /* \"shoot/1/\\xe5\\x8a\\xa8\\xe6\\x80\\x81\\xe6\\x95\\xb0\\xe6\\x8d\\xae\\xe7\\xb1\\xbb\\xe5\\x9e\\x8b\\xe7\\x9a\\x84\\xe5\\xad\\x98\\xe5\\x82\\xa8\\xe6\\x96\\xb9\\xe5\\xbc\\x8f/1.sol\":1306:1340  bytes memory str1 = bytes(string1) */\n      dup1\n      sload\n      tag_41\n      swap1\n      tag_34\n      jump\t// in\n    tag_41:\n      dup1\n      0x1f\n      add\n      0x20\n      dup1\n      swap2\n      div\n      mul\n      0x20\n      add\n      mload(0x40)\n      swap1\n      dup2\n      add\n      0x40\n      mstore\n      dup1\n      swap3\n      swap2\n      swap1\n      dup2\n      dup2\n      mstore\n      0x20\n      add\n      dup3\n      dup1\n      sload\n      tag_42\n      swap1\n      tag_34\n      jump\t// in\n    tag_42:\n      dup1\n      iszero\n      tag_43\n      jumpi\n      dup1\n      0x1f\n      lt\n      tag_44\n      jumpi\n      0x0100\n      dup1\n      dup4\n      sload\n      div\n      mul\n      dup4\n      mstore\n      swap2\n      0x20\n      add\n      swap2\n      jump(tag_43)\n    tag_44:\n      dup3\n      add\n      swap2\n      swap1\n      0x00\n      mstore\n      keccak256(0x00, 0x20)\n      swap1\n    tag_45:\n      dup2\n      sload\n      dup2\n      mstore\n      swap1\n      0x01\n      add\n      swap1\n      0x20\n      add\n      dup1\n      dup4\n      gt\n      tag_45\n      jumpi\n      dup3\n      swap1\n      sub\n      0x1f\n      and\n      dup3\n      add\n      swap2\n    tag_43:\n      pop\n      pop\n      pop\n      pop\n      pop\n      swap1\n      pop\n        /* \"shoot/1/\\xe5\\x8a\\xa8\\xe6\\x80\\x81\\xe6\\x95\\xb0\\xe6\\x8d\\xae\\xe7\\xb1\\xbb\\xe5\\x9e\\x8b\\xe7\\x9a\\x84\\xe5\\xad\\x98\\xe5\\x82\\xa8\\xe6\\x96\\xb9\\xe5\\xbc\\x8f/1.sol\":1356:1362  uint i */\n      0x00\n        /* \"shoot/1/\\xe5\\x8a\\xa8\\xe6\\x80\\x81\\xe6\\x95\\xb0\\xe6\\x8d\\xae\\xe7\\xb1\\xbb\\xe5\\x9e\\x8b\\xe7\\x9a\\x84\\xe5\\xad\\x98\\xe5\\x82\\xa8\\xe6\\x96\\xb9\\xe5\\xbc\\x8f/1.sol\":1351:1535  for (uint i =0;i<str1.length;i++){... */\n    tag_46:\n        /* \"shoot/1/\\xe5\\x8a\\xa8\\xe6\\x80\\x81\\xe6\\x95\\xb0\\xe6\\x8d\\xae\\xe7\\xb1\\xbb\\xe5\\x9e\\x8b\\xe7\\x9a\\x84\\xe5\\xad\\x98\\xe5\\x82\\xa8\\xe6\\x96\\xb9\\xe5\\xbc\\x8f/1.sol\":1368:1372  str1 */\n      dup2\n        /* \"shoot/1/\\xe5\\x8a\\xa8\\xe6\\x80\\x81\\xe6\\x95\\xb0\\xe6\\x8d\\xae\\xe7\\xb1\\xbb\\xe5\\x9e\\x8b\\xe7\\x9a\\x84\\xe5\\xad\\x98\\xe5\\x82\\xa8\\xe6\\x96\\xb9\\xe5\\xbc\\x8f/1.sol\":1368:1379  str1.length */\n      mload\n        /* \"shoot/1/\\xe5\\x8a\\xa8\\xe6\\x80\\x81\\xe6\\x95\\xb0\\xe6\\x8d\\xae\\xe7\\xb1\\xbb\\xe5\\x9e\\x8b\\xe7\\x9a\\x84\\xe5\\xad\\x98\\xe5\\x82\\xa8\\xe6\\x96\\xb9\\xe5\\xbc\\x8f/1.sol\":1366:1367  i */\n      dup2\n        /* \"shoot/1/\\xe5\\x8a\\xa8\\xe6\\x80\\x81\\xe6\\x95\\xb0\\xe6\\x8d\\xae\\xe7\\xb1\\xbb\\xe5\\x9e\\x8b\\xe7\\x9a\\x84\\xe5\\xad\\x98\\xe5\\x82\\xa8\\xe6\\x96\\xb9\\xe5\\xbc\\x8f/1.sol\":1366:1379  i<str1.length */\n      lt\n        /* \"shoot/1/\\xe5\\x8a\\xa8\\xe6\\x80\\x81\\xe6\\x95\\xb0\\xe6\\x8d\\xae\\xe7\\xb1\\xbb\\xe5\\x9e\\x8b\\xe7\\x9a\\x84\\xe5\\xad\\x98\\xe5\\x82\\xa8\\xe6\\x96\\xb9\\xe5\\xbc\\x8f/1.sol\":1351:1535  for (uint i =0;i<str1.length;i++){... */\n      iszero\n      tag_47\n      jumpi\n        /* \"shoot/1/\\xe5\\x8a\\xa8\\xe6\\x80\\x81\\xe6\\x95\\xb0\\xe6\\x8d\\xae\\xe7\\xb1\\xbb\\xe5\\x9e\\x8b\\xe7\\x9a\\x84\\xe5\\xad\\x98\\xe5\\x82\\xa8\\xe6\\x96\\xb9\\xe5\\xbc\\x8f/1.sol\":1412:1413  0 */\n      0x00\n        /* \"shoot/1/\\xe5\\x8a\\xa8\\xe6\\x80\\x81\\xe6\\x95\\xb0\\xe6\\x8d\\xae\\xe7\\xb1\\xbb\\xe5\\x9e\\x8b\\xe7\\x9a\\x84\\xe5\\xad\\x98\\xe5\\x82\\xa8\\xe6\\x96\\xb9\\xe5\\xbc\\x8f/1.sol\":1403:1413  str1[i]!=0 */\n      0xf8\n      shl\n        /* \"shoot/1/\\xe5\\x8a\\xa8\\xe6\\x80\\x81\\xe6\\x95\\xb0\\xe6\\x8d\\xae\\xe7\\xb1\\xbb\\xe5\\x9e\\x8b\\xe7\\x9a\\x84\\xe5\\xad\\x98\\xe5\\x82\\xa8\\xe6\\x96\\xb9\\xe5\\xbc\\x8f/1.sol\":1403:1407  str1 */\n      dup3\n        /* \"shoot/1/\\xe5\\x8a\\xa8\\xe6\\x80\\x81\\xe6\\x95\\xb0\\xe6\\x8d\\xae\\xe7\\xb1\\xbb\\xe5\\x9e\\x8b\\xe7\\x9a\\x84\\xe5\\xad\\x98\\xe5\\x82\\xa8\\xe6\\x96\\xb9\\xe5\\xbc\\x8f/1.sol\":1408:1409  i */\n      dup3\n        /* \"shoot/1/\\xe5\\x8a\\xa8\\xe6\\x80\\x81\\xe6\\x95\\xb0\\xe6\\x8d\\xae\\xe7\\xb1\\xbb\\xe5\\x9e\\x8b\\xe7\\x9a\\x84\\xe5\\xad\\x98\\xe5\\x82\\xa8\\xe6\\x96\\xb9\\xe5\\xbc\\x8f/1.sol\":1403:1410  str1[i] */\n      dup2\n      mload\n      dup2\n      lt\n      tag_49\n      jumpi\n      tag_50\n      tag_51\n      jump\t// in\n    tag_50:\n    tag_49:\n      0x20\n      add\n      add\n      mload\n      0xf8\n      shr\n      0xf8\n      shl\n        /* \"shoot/1/\\xe5\\x8a\\xa8\\xe6\\x80\\x81\\xe6\\x95\\xb0\\xe6\\x8d\\xae\\xe7\\xb1\\xbb\\xe5\\x9e\\x8b\\xe7\\x9a\\x84\\xe5\\xad\\x98\\xe5\\x82\\xa8\\xe6\\x96\\xb9\\xe5\\xbc\\x8f/1.sol\":1403:1413  str1[i]!=0 */\n      not(0xffffffffffffffffffffffffffffffffffffffffffffffffffffffffffffff)\n      and\n      sub\n        /* \"shoot/1/\\xe5\\x8a\\xa8\\xe6\\x80\\x81\\xe6\\x95\\xb0\\xe6\\x8d\\xae\\xe7\\xb1\\xbb\\xe5\\x9e\\x8b\\xe7\\x9a\\x84\\xe5\\xad\\x98\\xe5\\x82\\xa8\\xe6\\x96\\xb9\\xe5\\xbc\\x8f/1.sol\":1433:1438  break */\n      tag_47\n        /* \"shoot/1/\\xe5\\x8a\\xa8\\xe6\\x80\\x81\\xe6\\x95\\xb0\\xe6\\x8d\\xae\\xe7\\xb1\\xbb\\xe5\\x9e\\x8b\\xe7\\x9a\\x84\\xe5\\xad\\x98\\xe5\\x82\\xa8\\xe6\\x96\\xb9\\xe5\\xbc\\x8f/1.sol\":1399:1454  if (str1[i]!=0){... */\n      jumpi\n        /* \"shoot/1/\\xe5\\x8a\\xa8\\xe6\\x80\\x81\\xe6\\x95\\xb0\\xe6\\x8d\\xae\\xe7\\xb1\\xbb\\xe5\\x9e\\x8b\\xe7\\x9a\\x84\\xe5\\xad\\x98\\xe5\\x82\\xa8\\xe6\\x96\\xb9\\xe5\\xbc\\x8f/1.sol\":1477:1479  50 */\n      0x32\n        /* \"shoot/1/\\xe5\\x8a\\xa8\\xe6\\x80\\x81\\xe6\\x95\\xb0\\xe6\\x8d\\xae\\xe7\\xb1\\xbb\\xe5\\x9e\\x8b\\xe7\\x9a\\x84\\xe5\\xad\\x98\\xe5\\x82\\xa8\\xe6\\x96\\xb9\\xe5\\xbc\\x8f/1.sol\":1471:1476  score */\n      sload(0x02)\n        /* \"shoot/1/\\xe5\\x8a\\xa8\\xe6\\x80\\x81\\xe6\\x95\\xb0\\xe6\\x8d\\xae\\xe7\\xb1\\xbb\\xe5\\x9e\\x8b\\xe7\\x9a\\x84\\xe5\\xad\\x98\\xe5\\x82\\xa8\\xe6\\x96\\xb9\\xe5\\xbc\\x8f/1.sol\":1471:1479  score<50 */\n      lt\n        /* \"shoot/1/\\xe5\\x8a\\xa8\\xe6\\x80\\x81\\xe6\\x95\\xb0\\xe6\\x8d\\xae\\xe7\\xb1\\xbb\\xe5\\x9e\\x8b\\xe7\\x9a\\x84\\xe5\\xad\\x98\\xe5\\x82\\xa8\\xe6\\x96\\xb9\\xe5\\xbc\\x8f/1.sol\":1468:1524  if(score<50){... */\n      iszero\n      tag_53\n      jumpi\n        /* \"shoot/1/\\xe5\\x8a\\xa8\\xe6\\x80\\x81\\xe6\\x95\\xb0\\xe6\\x8d\\xae\\xe7\\xb1\\xbb\\xe5\\x9e\\x8b\\xe7\\x9a\\x84\\xe5\\xad\\x98\\xe5\\x82\\xa8\\xe6\\x96\\xb9\\xe5\\xbc\\x8f/1.sol\":1506:1508  10 */\n      0x0a\n        /* \"shoot/1/\\xe5\\x8a\\xa8\\xe6\\x80\\x81\\xe6\\x95\\xb0\\xe6\\x8d\\xae\\xe7\\xb1\\xbb\\xe5\\x9e\\x8b\\xe7\\x9a\\x84\\xe5\\xad\\x98\\xe5\\x82\\xa8\\xe6\\x96\\xb9\\xe5\\xbc\\x8f/1.sol\":1499:1504  score */\n      0x02\n      0x00\n        /* \"shoot/1/\\xe5\\x8a\\xa8\\xe6\\x80\\x81\\xe6\\x95\\xb0\\xe6\\x8d\\xae\\xe7\\xb1\\xbb\\xe5\\x9e\\x8b\\xe7\\x9a\\x84\\xe5\\xad\\x98\\xe5\\x82\\xa8\\xe6\\x96\\xb9\\xe5\\xbc\\x8f/1.sol\":1499:1508  score+=10 */\n      dup3\n      dup3\n      sload\n      tag_54\n      swap2\n      swap1\n      tag_55\n      jump\t// in\n    tag_54:\n      swap3\n      pop\n      pop\n      dup2\n      swap1\n      sstore\n      pop\n        /* \"shoot/1/\\xe5\\x8a\\xa8\\xe6\\x80\\x81\\xe6\\x95\\xb0\\xe6\\x8d\\xae\\xe7\\xb1\\xbb\\xe5\\x9e\\x8b\\xe7\\x9a\\x84\\xe5\\xad\\x98\\xe5\\x82\\xa8\\xe6\\x96\\xb9\\xe5\\xbc\\x8f/1.sol\":1468:1524  if(score<50){... */\n    tag_53:\n        /* \"shoot/1/\\xe5\\x8a\\xa8\\xe6\\x80\\x81\\xe6\\x95\\xb0\\xe6\\x8d\\xae\\xe7\\xb1\\xbb\\xe5\\x9e\\x8b\\xe7\\x9a\\x84\\xe5\\xad\\x98\\xe5\\x82\\xa8\\xe6\\x96\\xb9\\xe5\\xbc\\x8f/1.sol\":1380:1383  i++ */\n      dup1\n      dup1\n      tag_56\n      swap1\n      tag_57\n      jump\t// in\n    tag_56:\n      swap2\n      pop\n      pop\n        /* \"shoot/1/\\xe5\\x8a\\xa8\\xe6\\x80\\x81\\xe6\\x95\\xb0\\xe6\\x8d\\xae\\xe7\\xb1\\xbb\\xe5\\x9e\\x8b\\xe7\\x9a\\x84\\xe5\\xad\\x98\\xe5\\x82\\xa8\\xe6\\x96\\xb9\\xe5\\xbc\\x8f/1.sol\":1351:1535  for (uint i =0;i<str1.length;i++){... */\n      jump(tag_46)\n    tag_47:\n      pop\n        /* \"shoot/1/\\xe5\\x8a\\xa8\\xe6\\x80\\x81\\xe6\\x95\\xb0\\xe6\\x8d\\xae\\xe7\\xb1\\xbb\\xe5\\x9e\\x8b\\xe7\\x9a\\x84\\xe5\\xad\\x98\\xe5\\x82\\xa8\\xe6\\x96\\xb9\\xe5\\xbc\\x8f/1.sol\":1547:1564  bytes memory str2 */\n      0x00\n        /* \"shoot/1/\\xe5\\x8a\\xa8\\xe6\\x80\\x81\\xe6\\x95\\xb0\\xe6\\x8d\\xae\\xe7\\xb1\\xbb\\xe5\\x9e\\x8b\\xe7\\x9a\\x84\\xe5\\xad\\x98\\xe5\\x82\\xa8\\xe6\\x96\\xb9\\xe5\\xbc\\x8f/1.sol\":1573:1580  string2 */\n      0x01\n        /* \"shoot/1/\\xe5\\x8a\\xa8\\xe6\\x80\\x81\\xe6\\x95\\xb0\\xe6\\x8d\\xae\\xe7\\xb1\\xbb\\xe5\\x9e\\x8b\\xe7\\x9a\\x84\\xe5\\xad\\x98\\xe5\\x82\\xa8\\xe6\\x96\\xb9\\xe5\\xbc\\x8f/1.sol\":1547:1581  bytes memory str2 = bytes(string2) */\n      dup1\n      sload\n      tag_58\n      swap1\n      tag_34\n      jump\t// in\n    tag_58:\n      dup1\n      0x1f\n      add\n      0x20\n      dup1\n      swap2\n      div\n      mul\n      0x20\n      add\n      mload(0x40)\n      swap1\n      dup2\n      add\n      0x40\n      mstore\n      dup1\n      swap3\n      swap2\n      swap1\n      dup2\n      dup2\n      mstore\n      0x20\n      add\n      dup3\n      dup1\n      sload\n      tag_59\n      swap1\n      tag_34\n      jump\t// in\n    tag_59:\n      dup1\n      iszero\n      tag_60\n      jumpi\n      dup1\n      0x1f\n      lt\n      tag_61\n      jumpi\n      0x0100\n      dup1\n      dup4\n      sload\n      div\n      mul\n      dup4\n      mstore\n      swap2\n      0x20\n      add\n      swap2\n      jump(tag_60)\n    tag_61:\n      dup3\n      add\n      swap2\n      swap1\n      0x00\n      mstore\n      keccak256(0x00, 0x20)\n      swap1\n    tag_62:\n      dup2\n      sload\n      dup2\n      mstore\n      swap1\n      0x01\n      add\n      swap1\n      0x20\n      add\n      dup1\n      dup4\n      gt\n      tag_62\n      jumpi\n      dup3\n      swap1\n      sub\n      0x1f\n      and\n      dup3\n      add\n      swap2\n    tag_60:\n      pop\n      pop\n      pop\n      pop\n      pop\n      swap1\n      pop\n        /* \"shoot/1/\\xe5\\x8a\\xa8\\xe6\\x80\\x81\\xe6\\x95\\xb0\\xe6\\x8d\\xae\\xe7\\xb1\\xbb\\xe5\\x9e\\x8b\\xe7\\x9a\\x84\\xe5\\xad\\x98\\xe5\\x82\\xa8\\xe6\\x96\\xb9\\xe5\\xbc\\x8f/1.sol\":1597:1603  uint i */\n      0x00\n        /* \"shoot/1/\\xe5\\x8a\\xa8\\xe6\\x80\\x81\\xe6\\x95\\xb0\\xe6\\x8d\\xae\\xe7\\xb1\\xbb\\xe5\\x9e\\x8b\\xe7\\x9a\\x84\\xe5\\xad\\x98\\xe5\\x82\\xa8\\xe6\\x96\\xb9\\xe5\\xbc\\x8f/1.sol\":1592:1784  for (uint i =0;i<str2.length;i++){... */\n    tag_63:\n        /* \"shoot/1/\\xe5\\x8a\\xa8\\xe6\\x80\\x81\\xe6\\x95\\xb0\\xe6\\x8d\\xae\\xe7\\xb1\\xbb\\xe5\\x9e\\x8b\\xe7\\x9a\\x84\\xe5\\xad\\x98\\xe5\\x82\\xa8\\xe6\\x96\\xb9\\xe5\\xbc\\x8f/1.sol\":1609:1613  str2 */\n      dup2\n        /* \"shoot/1/\\xe5\\x8a\\xa8\\xe6\\x80\\x81\\xe6\\x95\\xb0\\xe6\\x8d\\xae\\xe7\\xb1\\xbb\\xe5\\x9e\\x8b\\xe7\\x9a\\x84\\xe5\\xad\\x98\\xe5\\x82\\xa8\\xe6\\x96\\xb9\\xe5\\xbc\\x8f/1.sol\":1609:1620  str2.length */\n      mload\n        /* \"shoot/1/\\xe5\\x8a\\xa8\\xe6\\x80\\x81\\xe6\\x95\\xb0\\xe6\\x8d\\xae\\xe7\\xb1\\xbb\\xe5\\x9e\\x8b\\xe7\\x9a\\x84\\xe5\\xad\\x98\\xe5\\x82\\xa8\\xe6\\x96\\xb9\\xe5\\xbc\\x8f/1.sol\":1607:1608  i */\n      dup2\n        /* \"shoot/1/\\xe5\\x8a\\xa8\\xe6\\x80\\x81\\xe6\\x95\\xb0\\xe6\\x8d\\xae\\xe7\\xb1\\xbb\\xe5\\x9e\\x8b\\xe7\\x9a\\x84\\xe5\\xad\\x98\\xe5\\x82\\xa8\\xe6\\x96\\xb9\\xe5\\xbc\\x8f/1.sol\":1607:1620  i<str2.length */\n      lt\n        /* \"shoot/1/\\xe5\\x8a\\xa8\\xe6\\x80\\x81\\xe6\\x95\\xb0\\xe6\\x8d\\xae\\xe7\\xb1\\xbb\\xe5\\x9e\\x8b\\xe7\\x9a\\x84\\xe5\\xad\\x98\\xe5\\x82\\xa8\\xe6\\x96\\xb9\\xe5\\xbc\\x8f/1.sol\":1592:1784  for (uint i =0;i<str2.length;i++){... */\n      iszero\n      tag_64\n      jumpi\n        /* \"shoot/1/\\xe5\\x8a\\xa8\\xe6\\x80\\x81\\xe6\\x95\\xb0\\xe6\\x8d\\xae\\xe7\\xb1\\xbb\\xe5\\x9e\\x8b\\xe7\\x9a\\x84\\xe5\\xad\\x98\\xe5\\x82\\xa8\\xe6\\x96\\xb9\\xe5\\xbc\\x8f/1.sol\":1653:1654  0 */\n      0x00\n        /* \"shoot/1/\\xe5\\x8a\\xa8\\xe6\\x80\\x81\\xe6\\x95\\xb0\\xe6\\x8d\\xae\\xe7\\xb1\\xbb\\xe5\\x9e\\x8b\\xe7\\x9a\\x84\\xe5\\xad\\x98\\xe5\\x82\\xa8\\xe6\\x96\\xb9\\xe5\\xbc\\x8f/1.sol\":1644:1654  str2[i]!=0 */\n      0xf8\n      shl\n        /* \"shoot/1/\\xe5\\x8a\\xa8\\xe6\\x80\\x81\\xe6\\x95\\xb0\\xe6\\x8d\\xae\\xe7\\xb1\\xbb\\xe5\\x9e\\x8b\\xe7\\x9a\\x84\\xe5\\xad\\x98\\xe5\\x82\\xa8\\xe6\\x96\\xb9\\xe5\\xbc\\x8f/1.sol\":1644:1648  str2 */\n      dup3\n        /* \"shoot/1/\\xe5\\x8a\\xa8\\xe6\\x80\\x81\\xe6\\x95\\xb0\\xe6\\x8d\\xae\\xe7\\xb1\\xbb\\xe5\\x9e\\x8b\\xe7\\x9a\\x84\\xe5\\xad\\x98\\xe5\\x82\\xa8\\xe6\\x96\\xb9\\xe5\\xbc\\x8f/1.sol\":1649:1650  i */\n      dup3\n        /* \"shoot/1/\\xe5\\x8a\\xa8\\xe6\\x80\\x81\\xe6\\x95\\xb0\\xe6\\x8d\\xae\\xe7\\xb1\\xbb\\xe5\\x9e\\x8b\\xe7\\x9a\\x84\\xe5\\xad\\x98\\xe5\\x82\\xa8\\xe6\\x96\\xb9\\xe5\\xbc\\x8f/1.sol\":1644:1651  str2[i] */\n      dup2\n      mload\n      dup2\n      lt\n      tag_66\n      jumpi\n      tag_67\n      tag_51\n      jump\t// in\n    tag_67:\n    tag_66:\n      0x20\n      add\n      add\n      mload\n      0xf8\n      shr\n      0xf8\n      shl\n        /* \"shoot/1/\\xe5\\x8a\\xa8\\xe6\\x80\\x81\\xe6\\x95\\xb0\\xe6\\x8d\\xae\\xe7\\xb1\\xbb\\xe5\\x9e\\x8b\\xe7\\x9a\\x84\\xe5\\xad\\x98\\xe5\\x82\\xa8\\xe6\\x96\\xb9\\xe5\\xbc\\x8f/1.sol\":1644:1654  str2[i]!=0 */\n      not(0xffffffffffffffffffffffffffffffffffffffffffffffffffffffffffffff)\n      and\n      sub\n        /* \"shoot/1/\\xe5\\x8a\\xa8\\xe6\\x80\\x81\\xe6\\x95\\xb0\\xe6\\x8d\\xae\\xe7\\xb1\\xbb\\xe5\\x9e\\x8b\\xe7\\x9a\\x84\\xe5\\xad\\x98\\xe5\\x82\\xa8\\xe6\\x96\\xb9\\xe5\\xbc\\x8f/1.sol\":1674:1679  break */\n      tag_64\n        /* \"shoot/1/\\xe5\\x8a\\xa8\\xe6\\x80\\x81\\xe6\\x95\\xb0\\xe6\\x8d\\xae\\xe7\\xb1\\xbb\\xe5\\x9e\\x8b\\xe7\\x9a\\x84\\xe5\\xad\\x98\\xe5\\x82\\xa8\\xe6\\x96\\xb9\\xe5\\xbc\\x8f/1.sol\":1640:1695  if (str2[i]!=0){... */\n      jumpi\n        /* \"shoot/1/\\xe5\\x8a\\xa8\\xe6\\x80\\x81\\xe6\\x95\\xb0\\xe6\\x8d\\xae\\xe7\\xb1\\xbb\\xe5\\x9e\\x8b\\xe7\\x9a\\x84\\xe5\\xad\\x98\\xe5\\x82\\xa8\\xe6\\x96\\xb9\\xe5\\xbc\\x8f/1.sol\":1727:1728  1 */\n      0x01\n        /* \"shoot/1/\\xe5\\x8a\\xa8\\xe6\\x80\\x81\\xe6\\x95\\xb0\\xe6\\x8d\\xae\\xe7\\xb1\\xbb\\xe5\\x9e\\x8b\\xe7\\x9a\\x84\\xe5\\xad\\x98\\xe5\\x82\\xa8\\xe6\\x96\\xb9\\xe5\\xbc\\x8f/1.sol\":1715:1719  str2 */\n      dup3\n        /* \"shoot/1/\\xe5\\x8a\\xa8\\xe6\\x80\\x81\\xe6\\x95\\xb0\\xe6\\x8d\\xae\\xe7\\xb1\\xbb\\xe5\\x9e\\x8b\\xe7\\x9a\\x84\\xe5\\xad\\x98\\xe5\\x82\\xa8\\xe6\\x96\\xb9\\xe5\\xbc\\x8f/1.sol\":1715:1726  str2.length */\n      mload\n        /* \"shoot/1/\\xe5\\x8a\\xa8\\xe6\\x80\\x81\\xe6\\x95\\xb0\\xe6\\x8d\\xae\\xe7\\xb1\\xbb\\xe5\\x9e\\x8b\\xe7\\x9a\\x84\\xe5\\xad\\x98\\xe5\\x82\\xa8\\xe6\\x96\\xb9\\xe5\\xbc\\x8f/1.sol\":1715:1728  str2.length-1 */\n      tag_69\n      swap2\n      swap1\n      tag_70\n      jump\t// in\n    tag_69:\n        /* \"shoot/1/\\xe5\\x8a\\xa8\\xe6\\x80\\x81\\xe6\\x95\\xb0\\xe6\\x8d\\xae\\xe7\\xb1\\xbb\\xe5\\x9e\\x8b\\xe7\\x9a\\x84\\xe5\\xad\\x98\\xe5\\x82\\xa8\\xe6\\x96\\xb9\\xe5\\xbc\\x8f/1.sol\":1712:1713  i */\n      dup2\n        /* \"shoot/1/\\xe5\\x8a\\xa8\\xe6\\x80\\x81\\xe6\\x95\\xb0\\xe6\\x8d\\xae\\xe7\\xb1\\xbb\\xe5\\x9e\\x8b\\xe7\\x9a\\x84\\xe5\\xad\\x98\\xe5\\x82\\xa8\\xe6\\x96\\xb9\\xe5\\xbc\\x8f/1.sol\":1712:1728  i==str2.length-1 */\n      sub\n        /* \"shoot/1/\\xe5\\x8a\\xa8\\xe6\\x80\\x81\\xe6\\x95\\xb0\\xe6\\x8d\\xae\\xe7\\xb1\\xbb\\xe5\\x9e\\x8b\\xe7\\x9a\\x84\\xe5\\xad\\x98\\xe5\\x82\\xa8\\xe6\\x96\\xb9\\xe5\\xbc\\x8f/1.sol\":1709:1773  if(i==str2.length-1){... */\n      tag_71\n      jumpi\n        /* \"shoot/1/\\xe5\\x8a\\xa8\\xe6\\x80\\x81\\xe6\\x95\\xb0\\xe6\\x8d\\xae\\xe7\\xb1\\xbb\\xe5\\x9e\\x8b\\xe7\\x9a\\x84\\xe5\\xad\\x98\\xe5\\x82\\xa8\\xe6\\x96\\xb9\\xe5\\xbc\\x8f/1.sol\":1755:1757  50 */\n      0x32\n        /* \"shoot/1/\\xe5\\x8a\\xa8\\xe6\\x80\\x81\\xe6\\x95\\xb0\\xe6\\x8d\\xae\\xe7\\xb1\\xbb\\xe5\\x9e\\x8b\\xe7\\x9a\\x84\\xe5\\xad\\x98\\xe5\\x82\\xa8\\xe6\\x96\\xb9\\xe5\\xbc\\x8f/1.sol\":1748:1753  score */\n      0x02\n      0x00\n        /* \"shoot/1/\\xe5\\x8a\\xa8\\xe6\\x80\\x81\\xe6\\x95\\xb0\\xe6\\x8d\\xae\\xe7\\xb1\\xbb\\xe5\\x9e\\x8b\\xe7\\x9a\\x84\\xe5\\xad\\x98\\xe5\\x82\\xa8\\xe6\\x96\\xb9\\xe5\\xbc\\x8f/1.sol\":1748:1757  score+=50 */\n      dup3\n      dup3\n      sload\n      tag_72\n      swap2\n      swap1\n      tag_55\n      jump\t// in\n    tag_72:\n      swap3\n      pop\n      pop\n      dup2\n      swap1\n      sstore\n      pop\n        /* \"shoot/1/\\xe5\\x8a\\xa8\\xe6\\x80\\x81\\xe6\\x95\\xb0\\xe6\\x8d\\xae\\xe7\\xb1\\xbb\\xe5\\x9e\\x8b\\xe7\\x9a\\x84\\xe5\\xad\\x98\\xe5\\x82\\xa8\\xe6\\x96\\xb9\\xe5\\xbc\\x8f/1.sol\":1709:1773  if(i==str2.length-1){... */\n    tag_71:\n        /* \"shoot/1/\\xe5\\x8a\\xa8\\xe6\\x80\\x81\\xe6\\x95\\xb0\\xe6\\x8d\\xae\\xe7\\xb1\\xbb\\xe5\\x9e\\x8b\\xe7\\x9a\\x84\\xe5\\xad\\x98\\xe5\\x82\\xa8\\xe6\\x96\\xb9\\xe5\\xbc\\x8f/1.sol\":1621:1624  i++ */\n      dup1\n      dup1\n      tag_73\n      swap1\n      tag_57\n      jump\t// in\n    tag_73:\n      swap2\n      pop\n      pop\n        /* \"shoot/1/\\xe5\\x8a\\xa8\\xe6\\x80\\x81\\xe6\\x95\\xb0\\xe6\\x8d\\xae\\xe7\\xb1\\xbb\\xe5\\x9e\\x8b\\xe7\\x9a\\x84\\xe5\\xad\\x98\\xe5\\x82\\xa8\\xe6\\x96\\xb9\\xe5\\xbc\\x8f/1.sol\":1592:1784  for (uint i =0;i<str2.length;i++){... */\n      jump(tag_63)\n    tag_64:\n      pop\n        /* \"shoot/1/\\xe5\\x8a\\xa8\\xe6\\x80\\x81\\xe6\\x95\\xb0\\xe6\\x8d\\xae\\xe7\\xb1\\xbb\\xe5\\x9e\\x8b\\xe7\\x9a\\x84\\xe5\\xad\\x98\\xe5\\x82\\xa8\\xe6\\x96\\xb9\\xe5\\xbc\\x8f/1.sol\":1276:1791  {... */\n      pop\n      pop\n        /* \"shoot/1/\\xe5\\x8a\\xa8\\xe6\\x80\\x81\\xe6\\x95\\xb0\\xe6\\x8d\\xae\\xe7\\xb1\\xbb\\xe5\\x9e\\x8b\\xe7\\x9a\\x84\\xe5\\xad\\x98\\xe5\\x82\\xa8\\xe6\\x96\\xb9\\xe5\\xbc\\x8f/1.sol\":1248:1791  function isCompleted()public{... */\n      jump\t// out\n        /* \"@openzeppelin/contracts-upgradeable/utils/StorageSlotUpgradeable.sol\":2446:2636  function getBytes32Slot(bytes32 slot) internal pure returns (Bytes32Slot storage r) {... */\n    tag_31:\n        /* \"@openzeppelin/contracts-upgradeable/utils/StorageSlotUpgradeable.sol\":2507:2528  Bytes32Slot storage r */\n      0x00\n        /* \"@openzeppelin/contracts-upgradeable/utils/StorageSlotUpgradeable.sol\":2616:2620  slot */\n      dup2\n        /* \"@openzeppelin/contracts-upgradeable/utils/StorageSlotUpgradeable.sol\":2606:2620  r.slot := slot */\n      swap1\n      pop\n        /* \"@openzeppelin/contracts-upgradeable/utils/StorageSlotUpgradeable.sol\":2446:2636  function getBytes32Slot(bytes32 slot) internal pure returns (Bytes32Slot storage r) {... */\n      swap2\n      swap1\n      pop\n      jump\t// out\n        /* \"#utility.yul\":88:205   */\n    tag_76:\n        /* \"#utility.yul\":197:198   */\n      0x00\n        /* \"#utility.yul\":194:195   */\n      dup1\n        /* \"#utility.yul\":187:199   */\n      revert\n        /* \"#utility.yul\":334:411   */\n    tag_78:\n        /* \"#utility.yul\":371:378   */\n      0x00\n        /* \"#utility.yul\":400:405   */\n      dup2\n        /* \"#utility.yul\":389:405   */\n      swap1\n      pop\n        /* \"#utility.yul\":334:411   */\n      swap2\n      swap1\n      pop\n      jump\t// out\n        /* \"#utility.yul\":417:539   */\n    tag_79:\n        /* \"#utility.yul\":490:514   */\n      tag_99\n        /* \"#utility.yul\":508:513   */\n      dup2\n        /* \"#utility.yul\":490:514   */\n      tag_78\n      jump\t// in\n    tag_99:\n        /* \"#utility.yul\":483:488   */\n      dup2\n        /* \"#utility.yul\":480:515   */\n      eq\n        /* \"#utility.yul\":470:533   */\n      tag_100\n      jumpi\n        /* \"#utility.yul\":529:530   */\n      0x00\n        /* \"#utility.yul\":526:527   */\n      dup1\n        /* \"#utility.yul\":519:531   */\n      revert\n        /* \"#utility.yul\":470:533   */\n    tag_100:\n        /* \"#utility.yul\":417:539   */\n      pop\n      jump\t// out\n        /* \"#utility.yul\":545:684   */\n    tag_80:\n        /* \"#utility.yul\":591:596   */\n      0x00\n        /* \"#utility.yul\":629:635   */\n      dup2\n        /* \"#utility.yul\":616:636   */\n      calldataload\n        /* \"#utility.yul\":607:636   */\n      swap1\n      pop\n        /* \"#utility.yul\":645:678   */\n      tag_102\n        /* \"#utility.yul\":672:677   */\n      dup2\n        /* \"#utility.yul\":645:678   */\n      tag_79\n      jump\t// in\n    tag_102:\n        /* \"#utility.yul\":545:684   */\n      swap3\n      swap2\n      pop\n      pop\n      jump\t// out\n        /* \"#utility.yul\":690:1164   */\n    tag_10:\n        /* \"#utility.yul\":758:764   */\n      0x00\n        /* \"#utility.yul\":766:772   */\n      dup1\n        /* \"#utility.yul\":815:817   */\n      0x40\n        /* \"#utility.yul\":803:812   */\n      dup4\n        /* \"#utility.yul\":794:801   */\n      dup6\n        /* \"#utility.yul\":790:813   */\n      sub\n        /* \"#utility.yul\":786:818   */\n      slt\n        /* \"#utility.yul\":783:902   */\n      iszero\n      tag_104\n      jumpi\n        /* \"#utility.yul\":821:900   */\n      tag_105\n      tag_76\n      jump\t// in\n    tag_105:\n        /* \"#utility.yul\":783:902   */\n    tag_104:\n        /* \"#utility.yul\":941:942   */\n      0x00\n        /* \"#utility.yul\":966:1019   */\n      tag_106\n        /* \"#utility.yul\":1011:1018   */\n      dup6\n        /* \"#utility.yul\":1002:1008   */\n      dup3\n        /* \"#utility.yul\":991:1000   */\n      dup7\n        /* \"#utility.yul\":987:1009   */\n      add\n        /* \"#utility.yul\":966:1019   */\n      tag_80\n      jump\t// in\n    tag_106:\n        /* \"#utility.yul\":956:1019   */\n      swap3\n      pop\n        /* \"#utility.yul\":912:1029   */\n      pop\n        /* \"#utility.yul\":1068:1070   */\n      0x20\n        /* \"#utility.yul\":1094:1147   */\n      tag_107\n        /* \"#utility.yul\":1139:1146   */\n      dup6\n        /* \"#utility.yul\":1130:1136   */\n      dup3\n        /* \"#utility.yul\":1119:1128   */\n      dup7\n        /* \"#utility.yul\":1115:1137   */\n      add\n        /* \"#utility.yul\":1094:1147   */\n      tag_80\n      jump\t// in\n    tag_107:\n        /* \"#utility.yul\":1084:1147   */\n      swap2\n      pop\n        /* \"#utility.yul\":1039:1157   */\n      pop\n        /* \"#utility.yul\":690:1164   */\n      swap3\n      pop\n      swap3\n      swap1\n      pop\n      jump\t// out\n        /* \"#utility.yul\":1170:1268   */\n    tag_81:\n        /* \"#utility.yul\":1221:1227   */\n      0x00\n        /* \"#utility.yul\":1255:1260   */\n      dup2\n        /* \"#utility.yul\":1249:1261   */\n      mload\n        /* \"#utility.yul\":1239:1261   */\n      swap1\n      pop\n        /* \"#utility.yul\":1170:1268   */\n      swap2\n      swap1\n      pop\n      jump\t// out\n        /* \"#utility.yul\":1274:1442   */\n    tag_82:\n        /* \"#utility.yul\":1357:1368   */\n      0x00\n        /* \"#utility.yul\":1391:1397   */\n      dup3\n        /* \"#utility.yul\":1386:1389   */\n      dup3\n        /* \"#utility.yul\":1379:1398   */\n      mstore\n        /* \"#utility.yul\":1431:1435   */\n      0x20\n        /* \"#utility.yul\":1426:1429   */\n      dup3\n        /* \"#utility.yul\":1422:1436   */\n      add\n        /* \"#utility.yul\":1407:1436   */\n      swap1\n      pop\n        /* \"#utility.yul\":1274:1442   */\n      swap3\n      swap2\n      pop\n      pop\n      jump\t// out\n        /* \"#utility.yul\":1448:1694   */\n    tag_83:\n        /* \"#utility.yul\":1529:1530   */\n      0x00\n        /* \"#utility.yul\":1539:1652   */\n    tag_111:\n        /* \"#utility.yul\":1553:1559   */\n      dup4\n        /* \"#utility.yul\":1550:1551   */\n      dup2\n        /* \"#utility.yul\":1547:1560   */\n      lt\n        /* \"#utility.yul\":1539:1652   */\n      iszero\n      tag_113\n      jumpi\n        /* \"#utility.yul\":1638:1639   */\n      dup1\n        /* \"#utility.yul\":1633:1636   */\n      dup3\n        /* \"#utility.yul\":1629:1640   */\n      add\n        /* \"#utility.yul\":1623:1641   */\n      mload\n        /* \"#utility.yul\":1619:1620   */\n      dup2\n        /* \"#utility.yul\":1614:1617   */\n      dup5\n        /* \"#utility.yul\":1610:1621   */\n      add\n        /* \"#utility.yul\":1603:1642   */\n      mstore\n        /* \"#utility.yul\":1575:1577   */\n      0x20\n        /* \"#utility.yul\":1572:1573   */\n      dup2\n        /* \"#utility.yul\":1568:1578   */\n      add\n        /* \"#utility.yul\":1563:1578   */\n      swap1\n      pop\n        /* \"#utility.yul\":1539:1652   */\n      jump(tag_111)\n    tag_113:\n        /* \"#utility.yul\":1686:1687   */\n      0x00\n        /* \"#utility.yul\":1677:1683   */\n      dup5\n        /* \"#utility.yul\":1672:1675   */\n      dup5\n        /* \"#utility.yul\":1668:1684   */\n      add\n        /* \"#utility.yul\":1661:1688   */\n      mstore\n        /* \"#utility.yul\":1510:1694   */\n      pop\n        /* \"#utility.yul\":1448:1694   */\n      pop\n      pop\n      pop\n      jump\t// out\n        /* \"#utility.yul\":1700:1802   */\n    tag_84:\n        /* \"#utility.yul\":1741:1747   */\n      0x00\n        /* \"#utility.yul\":1792:1794   */\n      0x1f\n        /* \"#utility.yul\":1788:1795   */\n      not\n        /* \"#utility.yul\":1783:1785   */\n      0x1f\n        /* \"#utility.yul\":1776:1781   */\n      dup4\n        /* \"#utility.yul\":1772:1786   */\n      add\n        /* \"#utility.yul\":1768:1796   */\n      and\n        /* \"#utility.yul\":1758:1796   */\n      swap1\n      pop\n        /* \"#utility.yul\":1700:1802   */\n      swap2\n      swap1\n      pop\n      jump\t// out\n        /* \"#utility.yul\":1808:2181   */\n    tag_85:\n        /* \"#utility.yul\":1894:1897   */\n      0x00\n        /* \"#utility.yul\":1922:1960   */\n      tag_116\n        /* \"#utility.yul\":1954:1959   */\n      dup3\n        /* \"#utility.yul\":1922:1960   */\n      tag_81\n      jump\t// in\n    tag_116:\n        /* \"#utility.yul\":1976:2046   */\n      tag_117\n        /* \"#utility.yul\":2039:2045   */\n      dup2\n        /* \"#utility.yul\":2034:2037   */\n      dup6\n        /* \"#utility.yul\":1976:2046   */\n      tag_82\n      jump\t// in\n    tag_117:\n        /* \"#utility.yul\":1969:2046   */\n      swap4\n      pop\n        /* \"#utility.yul\":2055:2120   */\n      tag_118\n        /* \"#utility.yul\":2113:2119   */\n      dup2\n        /* \"#utility.yul\":2108:2111   */\n      dup6\n        /* \"#utility.yul\":2101:2105   */\n      0x20\n        /* \"#utility.yul\":2094:2099   */\n      dup7\n        /* \"#utility.yul\":2090:2106   */\n      add\n        /* \"#utility.yul\":2055:2120   */\n      tag_83\n      jump\t// in\n    tag_118:\n        /* \"#utility.yul\":2145:2174   */\n      tag_119\n        /* \"#utility.yul\":2167:2173   */\n      dup2\n        /* \"#utility.yul\":2145:2174   */\n      tag_84\n      jump\t// in\n    tag_119:\n        /* \"#utility.yul\":2140:2143   */\n      dup5\n        /* \"#utility.yul\":2136:2175   */\n      add\n        /* \"#utility.yul\":2129:2175   */\n      swap2\n      pop\n        /* \"#utility.yul\":1898:2181   */\n      pop\n        /* \"#utility.yul\":1808:2181   */\n      swap3\n      swap2\n      pop\n      pop\n      jump\t// out\n        /* \"#utility.yul\":2187:2264   */\n    tag_86:\n        /* \"#utility.yul\":2224:2231   */\n      0x00\n        /* \"#utility.yul\":2253:2258   */\n      dup2\n        /* \"#utility.yul\":2242:2258   */\n      swap1\n      pop\n        /* \"#utility.yul\":2187:2264   */\n      swap2\n      swap1\n      pop\n      jump\t// out\n        /* \"#utility.yul\":2270:2388   */\n    tag_87:\n        /* \"#utility.yul\":2357:2381   */\n      tag_122\n        /* \"#utility.yul\":2375:2380   */\n      dup2\n        /* \"#utility.yul\":2357:2381   */\n      tag_86\n      jump\t// in\n    tag_122:\n        /* \"#utility.yul\":2352:2355   */\n      dup3\n        /* \"#utility.yul\":2345:2382   */\n      mstore\n        /* \"#utility.yul\":2270:2388   */\n      pop\n      pop\n      jump\t// out\n        /* \"#utility.yul\":2394:2813   */\n    tag_15:\n        /* \"#utility.yul\":2533:2537   */\n      0x00\n        /* \"#utility.yul\":2571:2573   */\n      0x40\n        /* \"#utility.yul\":2560:2569   */\n      dup3\n        /* \"#utility.yul\":2556:2574   */\n      add\n        /* \"#utility.yul\":2548:2574   */\n      swap1\n      pop\n        /* \"#utility.yul\":2620:2629   */\n      dup2\n        /* \"#utility.yul\":2614:2618   */\n      dup2\n        /* \"#utility.yul\":2610:2630   */\n      sub\n        /* \"#utility.yul\":2606:2607   */\n      0x00\n        /* \"#utility.yul\":2595:2604   */\n      dup4\n        /* \"#utility.yul\":2591:2608   */\n      add\n        /* \"#utility.yul\":2584:2631   */\n      mstore\n        /* \"#utility.yul\":2648:2724   */\n      tag_124\n        /* \"#utility.yul\":2719:2723   */\n      dup2\n        /* \"#utility.yul\":2710:2716   */\n      dup6\n        /* \"#utility.yul\":2648:2724   */\n      tag_85\n      jump\t// in\n    tag_124:\n        /* \"#utility.yul\":2640:2724   */\n      swap1\n      pop\n        /* \"#utility.yul\":2734:2806   */\n      tag_125\n        /* \"#utility.yul\":2802:2804   */\n      0x20\n        /* \"#utility.yul\":2791:2800   */\n      dup4\n        /* \"#utility.yul\":2787:2805   */\n      add\n        /* \"#utility.yul\":2778:2784   */\n      dup5\n        /* \"#utility.yul\":2734:2806   */\n      tag_87\n      jump\t// in\n    tag_125:\n        /* \"#utility.yul\":2394:2813   */\n      swap4\n      swap3\n      pop\n      pop\n      pop\n      jump\t// out\n        /* \"#utility.yul\":2819:3041   */\n    tag_19:\n        /* \"#utility.yul\":2912:2916   */\n      0x00\n        /* \"#utility.yul\":2950:2952   */\n      0x20\n        /* \"#utility.yul\":2939:2948   */\n      dup3\n        /* \"#utility.yul\":2935:2953   */\n      add\n        /* \"#utility.yul\":2927:2953   */\n      swap1\n      pop\n        /* \"#utility.yul\":2963:3034   */\n      tag_127\n        /* \"#utility.yul\":3031:3032   */\n      0x00\n        /* \"#utility.yul\":3020:3029   */\n      dup4\n        /* \"#utility.yul\":3016:3033   */\n      add\n        /* \"#utility.yul\":3007:3013   */\n      dup5\n        /* \"#utility.yul\":2963:3034   */\n      tag_87\n      jump\t// in\n    tag_127:\n        /* \"#utility.yul\":2819:3041   */\n      swap3\n      swap2\n      pop\n      pop\n      jump\t// out\n        /* \"#utility.yul\":3047:3169   */\n    tag_88:\n        /* \"#utility.yul\":3120:3144   */\n      tag_129\n        /* \"#utility.yul\":3138:3143   */\n      dup2\n        /* \"#utility.yul\":3120:3144   */\n      tag_86\n      jump\t// in\n    tag_129:\n        /* \"#utility.yul\":3113:3118   */\n      dup2\n        /* \"#utility.yul\":3110:3145   */\n      eq\n        /* \"#utility.yul\":3100:3163   */\n      tag_130\n      jumpi\n        /* \"#utility.yul\":3159:3160   */\n      0x00\n        /* \"#utility.yul\":3156:3157   */\n      dup1\n        /* \"#utility.yul\":3149:3161   */\n      revert\n        /* \"#utility.yul\":3100:3163   */\n    tag_130:\n        /* \"#utility.yul\":3047:3169   */\n      pop\n      jump\t// out\n        /* \"#utility.yul\":3175:3314   */\n    tag_89:\n        /* \"#utility.yul\":3221:3226   */\n      0x00\n        /* \"#utility.yul\":3259:3265   */\n      dup2\n        /* \"#utility.yul\":3246:3266   */\n      calldataload\n        /* \"#utility.yul\":3237:3266   */\n      swap1\n      pop\n        /* \"#utility.yul\":3275:3308   */\n      tag_132\n        /* \"#utility.yul\":3302:3307   */\n      dup2\n        /* \"#utility.yul\":3275:3308   */\n      tag_88\n      jump\t// in\n    tag_132:\n        /* \"#utility.yul\":3175:3314   */\n      swap3\n      swap2\n      pop\n      pop\n      jump\t// out\n        /* \"#utility.yul\":3320:3649   */\n    tag_22:\n        /* \"#utility.yul\":3379:3385   */\n      0x00\n        /* \"#utility.yul\":3428:3430   */\n      0x20\n        /* \"#utility.yul\":3416:3425   */\n      dup3\n        /* \"#utility.yul\":3407:3414   */\n      dup5\n        /* \"#utility.yul\":3403:3426   */\n      sub\n        /* \"#utility.yul\":3399:3431   */\n      slt\n        /* \"#utility.yul\":3396:3515   */\n      iszero\n      tag_134\n      jumpi\n        /* \"#utility.yul\":3434:3513   */\n      tag_135\n      tag_76\n      jump\t// in\n    tag_135:\n        /* \"#utility.yul\":3396:3515   */\n    tag_134:\n        /* \"#utility.yul\":3554:3555   */\n      0x00\n        /* \"#utility.yul\":3579:3632   */\n      tag_136\n        /* \"#utility.yul\":3624:3631   */\n      dup5\n        /* \"#utility.yul\":3615:3621   */\n      dup3\n        /* \"#utility.yul\":3604:3613   */\n      dup6\n        /* \"#utility.yul\":3600:3622   */\n      add\n        /* \"#utility.yul\":3579:3632   */\n      tag_89\n      jump\t// in\n    tag_136:\n        /* \"#utility.yul\":3569:3632   */\n      swap2\n      pop\n        /* \"#utility.yul\":3525:3642   */\n      pop\n        /* \"#utility.yul\":3320:3649   */\n      swap3\n      swap2\n      pop\n      pop\n      jump\t// out\n        /* \"#utility.yul\":3655:3773   */\n    tag_90:\n        /* \"#utility.yul\":3742:3766   */\n      tag_138\n        /* \"#utility.yul\":3760:3765   */\n      dup2\n        /* \"#utility.yul\":3742:3766   */\n      tag_78\n      jump\t// in\n    tag_138:\n        /* \"#utility.yul\":3737:3740   */\n      dup3\n        /* \"#utility.yul\":3730:3767   */\n      mstore\n        /* \"#utility.yul\":3655:3773   */\n      pop\n      pop\n      jump\t// out\n        /* \"#utility.yul\":3779:4001   */\n    tag_25:\n        /* \"#utility.yul\":3872:3876   */\n      0x00\n        /* \"#utility.yul\":3910:3912   */\n      0x20\n        /* \"#utility.yul\":3899:3908   */\n      dup3\n        /* \"#utility.yul\":3895:3913   */\n      add\n        /* \"#utility.yul\":3887:3913   */\n      swap1\n      pop\n        /* \"#utility.yul\":3923:3994   */\n      tag_140\n        /* \"#utility.yul\":3991:3992   */\n      0x00\n        /* \"#utility.yul\":3980:3989   */\n      dup4\n        /* \"#utility.yul\":3976:3993   */\n      add\n        /* \"#utility.yul\":3967:3973   */\n      dup5\n        /* \"#utility.yul\":3923:3994   */\n      tag_90\n      jump\t// in\n    tag_140:\n        /* \"#utility.yul\":3779:4001   */\n      swap3\n      swap2\n      pop\n      pop\n      jump\t// out\n        /* \"#utility.yul\":4007:4187   */\n    tag_91:\n        /* \"#utility.yul\":4055:4132   */\n      0x4e487b7100000000000000000000000000000000000000000000000000000000\n        /* \"#utility.yul\":4052:4053   */\n      0x00\n        /* \"#utility.yul\":4045:4133   */\n      mstore\n        /* \"#utility.yul\":4152:4156   */\n      0x22\n        /* \"#utility.yul\":4149:4150   */\n      0x04\n        /* \"#utility.yul\":4142:4157   */\n      mstore\n        /* \"#utility.yul\":4176:4180   */\n      0x24\n        /* \"#utility.yul\":4173:4174   */\n      0x00\n        /* \"#utility.yul\":4166:4181   */\n      revert\n        /* \"#utility.yul\":4193:4513   */\n    tag_34:\n        /* \"#utility.yul\":4237:4243   */\n      0x00\n        /* \"#utility.yul\":4274:4275   */\n      0x02\n        /* \"#utility.yul\":4268:4272   */\n      dup3\n        /* \"#utility.yul\":4264:4276   */\n      div\n        /* \"#utility.yul\":4254:4276   */\n      swap1\n      pop\n        /* \"#utility.yul\":4321:4322   */\n      0x01\n        /* \"#utility.yul\":4315:4319   */\n      dup3\n        /* \"#utility.yul\":4311:4323   */\n      and\n        /* \"#utility.yul\":4342:4360   */\n      dup1\n        /* \"#utility.yul\":4332:4413   */\n      tag_143\n      jumpi\n        /* \"#utility.yul\":4398:4402   */\n      0x7f\n        /* \"#utility.yul\":4390:4396   */\n      dup3\n        /* \"#utility.yul\":4386:4403   */\n      and\n        /* \"#utility.yul\":4376:4403   */\n      swap2\n      pop\n        /* \"#utility.yul\":4332:4413   */\n    tag_143:\n        /* \"#utility.yul\":4460:4462   */\n      0x20\n        /* \"#utility.yul\":4452:4458   */\n      dup3\n        /* \"#utility.yul\":4449:4463   */\n      lt\n        /* \"#utility.yul\":4429:4447   */\n      dup2\n        /* \"#utility.yul\":4426:4464   */\n      sub\n        /* \"#utility.yul\":4423:4507   */\n      tag_144\n      jumpi\n        /* \"#utility.yul\":4479:4497   */\n      tag_145\n      tag_91\n      jump\t// in\n    tag_145:\n        /* \"#utility.yul\":4423:4507   */\n    tag_144:\n        /* \"#utility.yul\":4244:4513   */\n      pop\n        /* \"#utility.yul\":4193:4513   */\n      swap2\n      swap1\n      pop\n      jump\t// out\n        /* \"#utility.yul\":4519:4699   */\n    tag_51:\n        /* \"#utility.yul\":4567:4644   */\n      0x4e487b7100000000000000000000000000000000000000000000000000000000\n        /* \"#utility.yul\":4564:4565   */\n      0x00\n        /* \"#utility.yul\":4557:4645   */\n      mstore\n        /* \"#utility.yul\":4664:4668   */\n      0x32\n        /* \"#utility.yul\":4661:4662   */\n      0x04\n        /* \"#utility.yul\":4654:4669   */\n      mstore\n        /* \"#utility.yul\":4688:4692   */\n      0x24\n        /* \"#utility.yul\":4685:4686   */\n      0x00\n        /* \"#utility.yul\":4678:4693   */\n      revert\n        /* \"#utility.yul\":4705:4885   */\n    tag_92:\n        /* \"#utility.yul\":4753:4830   */\n      0x4e487b7100000000000000000000000000000000000000000000000000000000\n        /* \"#utility.yul\":4750:4751   */\n      0x00\n        /* \"#utility.yul\":4743:4831   */\n      mstore\n        /* \"#utility.yul\":4850:4854   */\n      0x11\n        /* \"#utility.yul\":4847:4848   */\n      0x04\n        /* \"#utility.yul\":4840:4855   */\n      mstore\n        /* \"#utility.yul\":4874:4878   */\n      0x24\n        /* \"#utility.yul\":4871:4872   */\n      0x00\n        /* \"#utility.yul\":4864:4879   */\n      revert\n        /* \"#utility.yul\":4891:5082   */\n    tag_55:\n        /* \"#utility.yul\":4931:4934   */\n      0x00\n        /* \"#utility.yul\":4950:4970   */\n      tag_149\n        /* \"#utility.yul\":4968:4969   */\n      dup3\n        /* \"#utility.yul\":4950:4970   */\n      tag_86\n      jump\t// in\n    tag_149:\n        /* \"#utility.yul\":4945:4970   */\n      swap2\n      pop\n        /* \"#utility.yul\":4984:5004   */\n      tag_150\n        /* \"#utility.yul\":5002:5003   */\n      dup4\n        /* \"#utility.yul\":4984:5004   */\n      tag_86\n      jump\t// in\n    tag_150:\n        /* \"#utility.yul\":4979:5004   */\n      swap3\n      pop\n        /* \"#utility.yul\":5027:5028   */\n      dup3\n        /* \"#utility.yul\":5024:5025   */\n      dup3\n        /* \"#utility.yul\":5020:5029   */\n      add\n        /* \"#utility.yul\":5013:5029   */\n      swap1\n      pop\n        /* \"#utility.yul\":5048:5051   */\n      dup1\n        /* \"#utility.yul\":5045:5046   */\n      dup3\n        /* \"#utility.yul\":5042:5052   */\n      gt\n        /* \"#utility.yul\":5039:5075   */\n      iszero\n      tag_151\n      jumpi\n        /* \"#utility.yul\":5055:5073   */\n      tag_152\n      tag_92\n      jump\t// in\n    tag_152:\n        /* \"#utility.yul\":5039:5075   */\n    tag_151:\n        /* \"#utility.yul\":4891:5082   */\n      swap3\n      swap2\n      pop\n      pop\n      jump\t// out\n        /* \"#utility.yul\":5088:5321   */\n    tag_57:\n        /* \"#utility.yul\":5127:5130   */\n      0x00\n        /* \"#utility.yul\":5150:5174   */\n      tag_154\n        /* \"#utility.yul\":5168:5173   */\n      dup3\n        /* \"#utility.yul\":5150:5174   */\n      tag_86\n      jump\t// in\n    tag_154:\n        /* \"#utility.yul\":5141:5174   */\n      swap2\n      pop\n        /* \"#utility.yul\":5196:5262   */\n      0xffffffffffffffffffffffffffffffffffffffffffffffffffffffffffffffff\n        /* \"#utility.yul\":5189:5194   */\n      dup3\n        /* \"#utility.yul\":5186:5263   */\n      sub\n        /* \"#utility.yul\":5183:5286   */\n      tag_155\n      jumpi\n        /* \"#utility.yul\":5266:5284   */\n      tag_156\n      tag_92\n      jump\t// in\n    tag_156:\n        /* \"#utility.yul\":5183:5286   */\n    tag_155:\n        /* \"#utility.yul\":5313:5314   */\n      0x01\n        /* \"#utility.yul\":5306:5311   */\n      dup3\n        /* \"#utility.yul\":5302:5315   */\n      add\n        /* \"#utility.yul\":5295:5315   */\n      swap1\n      pop\n        /* \"#utility.yul\":5088:5321   */\n      swap2\n      swap1\n      pop\n      jump\t// out\n        /* \"#utility.yul\":5327:5521   */\n    tag_70:\n        /* \"#utility.yul\":5367:5371   */\n      0x00\n        /* \"#utility.yul\":5387:5407   */\n      tag_158\n        /* \"#utility.yul\":5405:5406   */\n      dup3\n        /* \"#utility.yul\":5387:5407   */\n      tag_86\n      jump\t// in\n    tag_158:\n        /* \"#utility.yul\":5382:5407   */\n      swap2\n      pop\n        /* \"#utility.yul\":5421:5441   */\n      tag_159\n        /* \"#utility.yul\":5439:5440   */\n      dup4\n        /* \"#utility.yul\":5421:5441   */\n      tag_86\n      jump\t// in\n    tag_159:\n        /* \"#utility.yul\":5416:5441   */\n      swap3\n      pop\n        /* \"#utility.yul\":5465:5466   */\n      dup3\n        /* \"#utility.yul\":5462:5463   */\n      dup3\n        /* \"#utility.yul\":5458:5467   */\n      sub\n        /* \"#utility.yul\":5450:5467   */\n      swap1\n      pop\n        /* \"#utility.yul\":5489:5490   */\n      dup2\n        /* \"#utility.yul\":5483:5487   */\n      dup2\n        /* \"#utility.yul\":5480:5491   */\n      gt\n        /* \"#utility.yul\":5477:5514   */\n      iszero\n      tag_160\n      jumpi\n        /* \"#utility.yul\":5494:5512   */\n      tag_161\n      tag_92\n      jump\t// in\n    tag_161:\n        /* \"#utility.yul\":5477:5514   */\n    tag_160:\n        /* \"#utility.yul\":5327:5521   */\n      swap3\n      swap2\n      pop\n      pop\n      jump\t// out\n\n    auxdata: 0xa2646970667358221220f585f096beedb020a9cc1806d4ac4b9e729e50ee7d07fd9083c88186549f3cd664736f6c63430008150033\n}\n",
				"bytecode": {
					"linkReferences": {},
					"object": "60806040526040518060400160405280600481526020017f63756974000000000000000000000000000000000000000000000000000000008152505f9081620000499190620002ec565b5060405180606001604052806023815260200162000b596023913960019081620000749190620002ec565b5034801562000081575f80fd5b50620003d0565b5f81519050919050565b7f4e487b71000000000000000000000000000000000000000000000000000000005f52604160045260245ffd5b7f4e487b71000000000000000000000000000000000000000000000000000000005f52602260045260245ffd5b5f60028204905060018216806200010457607f821691505b6020821081036200011a5762000119620000bf565b5b50919050565b5f819050815f5260205f209050919050565b5f6020601f8301049050919050565b5f82821b905092915050565b5f600883026200017e7fffffffffffffffffffffffffffffffffffffffffffffffffffffffffffffffff8262000141565b6200018a868362000141565b95508019841693508086168417925050509392505050565b5f819050919050565b5f819050919050565b5f620001d4620001ce620001c884620001a2565b620001ab565b620001a2565b9050919050565b5f819050919050565b620001ef83620001b4565b62000207620001fe82620001db565b8484546200014d565b825550505050565b5f90565b6200021d6200020f565b6200022a818484620001e4565b505050565b5b818110156200025157620002455f8262000213565b60018101905062000230565b5050565b601f821115620002a0576200026a8162000120565b620002758462000132565b8101602085101562000285578190505b6200029d620002948562000132565b8301826200022f565b50505b505050565b5f82821c905092915050565b5f620002c25f1984600802620002a5565b1980831691505092915050565b5f620002dc8383620002b1565b9150826002028217905092915050565b620002f78262000088565b67ffffffffffffffff81111562000313576200031262000092565b5b6200031f8254620000ec565b6200032c82828562000255565b5f60209050601f83116001811462000362575f84156200034d578287015190505b620003598582620002cf565b865550620003c8565b601f198416620003728662000120565b5f5b828110156200039b5784890151825560018201915060208501945060208101905062000374565b86831015620003bb5784890151620003b7601f891682620002b1565b8355505b6001600288020188555050505b505050505050565b61077b80620003de5f395ff3fe608060405234801561000f575f80fd5b5060043610610055575f3560e01c8063d3607ed914610059578063e2f5cc0d14610075578063efedc66914610094578063f6baafa5146100b2578063fa391c64146100e2575b5f80fd5b610073600480360381019061006e919061043d565b6100ec565b005b61007d61010e565b60405161008b92919061051d565b60405180910390f35b61009c6101a8565b6040516100a9919061054b565b60405180910390f35b6100cc60048036038101906100c7919061058e565b6101ae565b6040516100d991906105c8565b60405180910390f35b6100ea6101b8565b005b60025f1b82036100fa575f80fd5b80610104836103fd565b5f01819055505050565b60605f805f805461011e9061060e565b80601f016020809104026020016040519081016040528092919081815260200182805461014a9061060e565b80156101955780601f1061016c57610100808354040283529160200191610195565b820191905f5260205f20905b81548152906001019060200180831161017857829003601f168201915b5050505050905080815192509250509091565b60025481565b5f81549050919050565b5f6002819055505f8080546101cc9061060e565b80601f01602080910402602001604051908101604052809291908181526020018280546101f89061060e565b80156102435780601f1061021a57610100808354040283529160200191610243565b820191905f5260205f20905b81548152906001019060200180831161022657829003601f168201915b505050505090505f5b81518110156102d6575f60f81b82828151811061026c5761026b61063e565b5b602001015160f81c60f81b7effffffffffffffffffffffffffffffffffffffffffffffffffffffffffffff1916036102d657603260025410156102c357600a60025f8282546102bb9190610698565b925050819055505b80806102ce906106cb565b91505061024c565b505f600180546102e59061060e565b80601f01602080910402602001604051908101604052809291908181526020018280546103119061060e565b801561035c5780601f106103335761010080835404028352916020019161035c565b820191905f5260205f20905b81548152906001019060200180831161033f57829003601f168201915b505050505090505f5b81518110156103f8575f60f81b8282815181106103855761038461063e565b5b602001015160f81c60f81b7effffffffffffffffffffffffffffffffffffffffffffffffffffffffffffff1916036103f857600182516103c59190610712565b81036103e557603260025f8282546103dd9190610698565b925050819055505b80806103f0906106cb565b915050610365565b505050565b5f819050919050565b5f80fd5b5f819050919050565b61041c8161040a565b8114610426575f80fd5b50565b5f8135905061043781610413565b92915050565b5f806040838503121561045357610452610406565b5b5f61046085828601610429565b925050602061047185828601610429565b9150509250929050565b5f81519050919050565b5f82825260208201905092915050565b5f5b838110156104b2578082015181840152602081019050610497565b5f8484015250505050565b5f601f19601f8301169050919050565b5f6104d78261047b565b6104e18185610485565b93506104f1818560208601610495565b6104fa816104bd565b840191505092915050565b5f819050919050565b61051781610505565b82525050565b5f6040820190508181035f83015261053581856104cd565b9050610544602083018461050e565b9392505050565b5f60208201905061055e5f83018461050e565b92915050565b61056d81610505565b8114610577575f80fd5b50565b5f8135905061058881610564565b92915050565b5f602082840312156105a3576105a2610406565b5b5f6105b08482850161057a565b91505092915050565b6105c28161040a565b82525050565b5f6020820190506105db5f8301846105b9565b92915050565b7f4e487b71000000000000000000000000000000000000000000000000000000005f52602260045260245ffd5b5f600282049050600182168061062557607f821691505b602082108103610638576106376105e1565b5b50919050565b7f4e487b71000000000000000000000000000000000000000000000000000000005f52603260045260245ffd5b7f4e487b71000000000000000000000000000000000000000000000000000000005f52601160045260245ffd5b5f6106a282610505565b91506106ad83610505565b92508282019050808211156106c5576106c461066b565b5b92915050565b5f6106d582610505565b91507fffffffffffffffffffffffffffffffffffffffffffffffffffffffffffffffff82036107075761070661066b565b5b600182019050919050565b5f61071c82610505565b915061072783610505565b925082820390508181111561073f5761073e61066b565b5b9291505056fea2646970667358221220f585f096beedb020a9cc1806d4ac4b9e729e50ee7d07fd9083c88186549f3cd664736f6c63430008150033637569742c207468652062657374207363686f6f6c206f6620626c6f636b636861696e",
					"opcodes": "PUSH1 0x80 PUSH1 0x40 MSTORE PUSH1 0x40 MLOAD DUP1 PUSH1 0x40 ADD PUSH1 0x40 MSTORE DUP1 PUSH1 0x4 DUP2 MSTORE PUSH1 0x20 ADD PUSH32 0x6375697400000000000000000000000000000000000000000000000000000000 DUP2 MSTORE POP PUSH0 SWAP1 DUP2 PUSH3 0x49 SWAP2 SWAP1 PUSH3 0x2EC JUMP JUMPDEST POP PUSH1 0x40 MLOAD DUP1 PUSH1 0x60 ADD PUSH1 0x40 MSTORE DUP1 PUSH1 0x23 DUP2 MSTORE PUSH1 0x20 ADD PUSH3 0xB59 PUSH1 0x23 SWAP2 CODECOPY PUSH1 0x1 SWAP1 DUP2 PUSH3 0x74 SWAP2 SWAP1 PUSH3 0x2EC JUMP JUMPDEST POP CALLVALUE DUP1 ISZERO PUSH3 0x81 JUMPI PUSH0 DUP1 REVERT JUMPDEST POP PUSH3 0x3D0 JUMP JUMPDEST PUSH0 DUP2 MLOAD SWAP1 POP SWAP2 SWAP1 POP JUMP JUMPDEST PUSH32 0x4E487B7100000000000000000000000000000000000000000000000000000000 PUSH0 MSTORE PUSH1 0x41 PUSH1 0x4 MSTORE PUSH1 0x24 PUSH0 REVERT JUMPDEST PUSH32 0x4E487B7100000000000000000000000000000000000000000000000000000000 PUSH0 MSTORE PUSH1 0x22 PUSH1 0x4 MSTORE PUSH1 0x24 PUSH0 REVERT JUMPDEST PUSH0 PUSH1 0x2 DUP3 DIV SWAP1 POP PUSH1 0x1 DUP3 AND DUP1 PUSH3 0x104 JUMPI PUSH1 0x7F DUP3 AND SWAP2 POP JUMPDEST PUSH1 0x20 DUP3 LT DUP2 SUB PUSH3 0x11A JUMPI PUSH3 0x119 PUSH3 0xBF JUMP JUMPDEST JUMPDEST POP SWAP2 SWAP1 POP JUMP JUMPDEST PUSH0 DUP2 SWAP1 POP DUP2 PUSH0 MSTORE PUSH1 0x20 PUSH0 KECCAK256 SWAP1 POP SWAP2 SWAP1 POP JUMP JUMPDEST PUSH0 PUSH1 0x20 PUSH1 0x1F DUP4 ADD DIV SWAP1 POP SWAP2 SWAP1 POP JUMP JUMPDEST PUSH0 DUP3 DUP3 SHL SWAP1 POP SWAP3 SWAP2 POP POP JUMP JUMPDEST PUSH0 PUSH1 0x8 DUP4 MUL PUSH3 0x17E PUSH32 0xFFFFFFFFFFFFFFFFFFFFFFFFFFFFFFFFFFFFFFFFFFFFFFFFFFFFFFFFFFFFFFFF DUP3 PUSH3 0x141 JUMP JUMPDEST PUSH3 0x18A DUP7 DUP4 PUSH3 0x141 JUMP JUMPDEST SWAP6 POP DUP1 NOT DUP5 AND SWAP4 POP DUP1 DUP7 AND DUP5 OR SWAP3 POP POP POP SWAP4 SWAP3 POP POP POP JUMP JUMPDEST PUSH0 DUP2 SWAP1 POP SWAP2 SWAP1 POP JUMP JUMPDEST PUSH0 DUP2 SWAP1 POP SWAP2 SWAP1 POP JUMP JUMPDEST PUSH0 PUSH3 0x1D4 PUSH3 0x1CE PUSH3 0x1C8 DUP5 PUSH3 0x1A2 JUMP JUMPDEST PUSH3 0x1AB JUMP JUMPDEST PUSH3 0x1A2 JUMP JUMPDEST SWAP1 POP SWAP2 SWAP1 POP JUMP JUMPDEST PUSH0 DUP2 SWAP1 POP SWAP2 SWAP1 POP JUMP JUMPDEST PUSH3 0x1EF DUP4 PUSH3 0x1B4 JUMP JUMPDEST PUSH3 0x207 PUSH3 0x1FE DUP3 PUSH3 0x1DB JUMP JUMPDEST DUP5 DUP5 SLOAD PUSH3 0x14D JUMP JUMPDEST DUP3 SSTORE POP POP POP POP JUMP JUMPDEST PUSH0 SWAP1 JUMP JUMPDEST PUSH3 0x21D PUSH3 0x20F JUMP JUMPDEST PUSH3 0x22A DUP2 DUP5 DUP5 PUSH3 0x1E4 JUMP JUMPDEST POP POP POP JUMP JUMPDEST JUMPDEST DUP2 DUP2 LT ISZERO PUSH3 0x251 JUMPI PUSH3 0x245 PUSH0 DUP3 PUSH3 0x213 JUMP JUMPDEST PUSH1 0x1 DUP2 ADD SWAP1 POP PUSH3 0x230 JUMP JUMPDEST POP POP JUMP JUMPDEST PUSH1 0x1F DUP3 GT ISZERO PUSH3 0x2A0 JUMPI PUSH3 0x26A DUP2 PUSH3 0x120 JUMP JUMPDEST PUSH3 0x275 DUP5 PUSH3 0x132 JUMP JUMPDEST DUP2 ADD PUSH1 0x20 DUP6 LT ISZERO PUSH3 0x285 JUMPI DUP2 SWAP1 POP JUMPDEST PUSH3 0x29D PUSH3 0x294 DUP6 PUSH3 0x132 JUMP JUMPDEST DUP4 ADD DUP3 PUSH3 0x22F JUMP JUMPDEST POP POP JUMPDEST POP POP POP JUMP JUMPDEST PUSH0 DUP3 DUP3 SHR SWAP1 POP SWAP3 SWAP2 POP POP JUMP JUMPDEST PUSH0 PUSH3 0x2C2 PUSH0 NOT DUP5 PUSH1 0x8 MUL PUSH3 0x2A5 JUMP JUMPDEST NOT DUP1 DUP4 AND SWAP2 POP POP SWAP3 SWAP2 POP POP JUMP JUMPDEST PUSH0 PUSH3 0x2DC DUP4 DUP4 PUSH3 0x2B1 JUMP JUMPDEST SWAP2 POP DUP3 PUSH1 0x2 MUL DUP3 OR SWAP1 POP SWAP3 SWAP2 POP POP JUMP JUMPDEST PUSH3 0x2F7 DUP3 PUSH3 0x88 JUMP JUMPDEST PUSH8 0xFFFFFFFFFFFFFFFF DUP2 GT ISZERO PUSH3 0x313 JUMPI PUSH3 0x312 PUSH3 0x92 JUMP JUMPDEST JUMPDEST PUSH3 0x31F DUP3 SLOAD PUSH3 0xEC JUMP JUMPDEST PUSH3 0x32C DUP3 DUP3 DUP6 PUSH3 0x255 JUMP JUMPDEST PUSH0 PUSH1 0x20 SWAP1 POP PUSH1 0x1F DUP4 GT PUSH1 0x1 DUP2 EQ PUSH3 0x362 JUMPI PUSH0 DUP5 ISZERO PUSH3 0x34D JUMPI DUP3 DUP8 ADD MLOAD SWAP1 POP JUMPDEST PUSH3 0x359 DUP6 DUP3 PUSH3 0x2CF JUMP JUMPDEST DUP7 SSTORE POP PUSH3 0x3C8 JUMP JUMPDEST PUSH1 0x1F NOT DUP5 AND PUSH3 0x372 DUP7 PUSH3 0x120 JUMP JUMPDEST PUSH0 JUMPDEST DUP3 DUP2 LT ISZERO PUSH3 0x39B JUMPI DUP5 DUP10 ADD MLOAD DUP3 SSTORE PUSH1 0x1 DUP3 ADD SWAP2 POP PUSH1 0x20 DUP6 ADD SWAP5 POP PUSH1 0x20 DUP2 ADD SWAP1 POP PUSH3 0x374 JUMP JUMPDEST DUP7 DUP4 LT ISZERO PUSH3 0x3BB JUMPI DUP5 DUP10 ADD MLOAD PUSH3 0x3B7 PUSH1 0x1F DUP10 AND DUP3 PUSH3 0x2B1 JUMP JUMPDEST DUP4 SSTORE POP JUMPDEST PUSH1 0x1 PUSH1 0x2 DUP9 MUL ADD DUP9 SSTORE POP POP POP JUMPDEST POP POP POP POP POP POP JUMP JUMPDEST PUSH2 0x77B DUP1 PUSH3 0x3DE PUSH0 CODECOPY PUSH0 RETURN INVALID PUSH1 0x80 PUSH1 0x40 MSTORE CALLVALUE DUP1 ISZERO PUSH2 0xF JUMPI PUSH0 DUP1 REVERT JUMPDEST POP PUSH1 0x4 CALLDATASIZE LT PUSH2 0x55 JUMPI PUSH0 CALLDATALOAD PUSH1 0xE0 SHR DUP1 PUSH4 0xD3607ED9 EQ PUSH2 0x59 JUMPI DUP1 PUSH4 0xE2F5CC0D EQ PUSH2 0x75 JUMPI DUP1 PUSH4 0xEFEDC669 EQ PUSH2 0x94 JUMPI DUP1 PUSH4 0xF6BAAFA5 EQ PUSH2 0xB2 JUMPI DUP1 PUSH4 0xFA391C64 EQ PUSH2 0xE2 JUMPI JUMPDEST PUSH0 DUP1 REVERT JUMPDEST PUSH2 0x73 PUSH1 0x4 DUP1 CALLDATASIZE SUB DUP2 ADD SWAP1 PUSH2 0x6E SWAP2 SWAP1 PUSH2 0x43D JUMP JUMPDEST PUSH2 0xEC JUMP JUMPDEST STOP JUMPDEST PUSH2 0x7D PUSH2 0x10E JUMP JUMPDEST PUSH1 0x40 MLOAD PUSH2 0x8B SWAP3 SWAP2 SWAP1 PUSH2 0x51D JUMP JUMPDEST PUSH1 0x40 MLOAD DUP1 SWAP2 SUB SWAP1 RETURN JUMPDEST PUSH2 0x9C PUSH2 0x1A8 JUMP JUMPDEST PUSH1 0x40 MLOAD PUSH2 0xA9 SWAP2 SWAP1 PUSH2 0x54B JUMP JUMPDEST PUSH1 0x40 MLOAD DUP1 SWAP2 SUB SWAP1 RETURN JUMPDEST PUSH2 0xCC PUSH1 0x4 DUP1 CALLDATASIZE SUB DUP2 ADD SWAP1 PUSH2 0xC7 SWAP2 SWAP1 PUSH2 0x58E JUMP JUMPDEST PUSH2 0x1AE JUMP JUMPDEST PUSH1 0x40 MLOAD PUSH2 0xD9 SWAP2 SWAP1 PUSH2 0x5C8 JUMP JUMPDEST PUSH1 0x40 MLOAD DUP1 SWAP2 SUB SWAP1 RETURN JUMPDEST PUSH2 0xEA PUSH2 0x1B8 JUMP JUMPDEST STOP JUMPDEST PUSH1 0x2 PUSH0 SHL DUP3 SUB PUSH2 0xFA JUMPI PUSH0 DUP1 REVERT JUMPDEST DUP1 PUSH2 0x104 DUP4 PUSH2 0x3FD JUMP JUMPDEST PUSH0 ADD DUP2 SWAP1 SSTORE POP POP POP JUMP JUMPDEST PUSH1 0x60 PUSH0 DUP1 PUSH0 DUP1 SLOAD PUSH2 0x11E SWAP1 PUSH2 0x60E JUMP JUMPDEST DUP1 PUSH1 0x1F ADD PUSH1 0x20 DUP1 SWAP2 DIV MUL PUSH1 0x20 ADD PUSH1 0x40 MLOAD SWAP1 DUP2 ADD PUSH1 0x40 MSTORE DUP1 SWAP3 SWAP2 SWAP1 DUP2 DUP2 MSTORE PUSH1 0x20 ADD DUP3 DUP1 SLOAD PUSH2 0x14A SWAP1 PUSH2 0x60E JUMP JUMPDEST DUP1 ISZERO PUSH2 0x195 JUMPI DUP1 PUSH1 0x1F LT PUSH2 0x16C JUMPI PUSH2 0x100 DUP1 DUP4 SLOAD DIV MUL DUP4 MSTORE SWAP2 PUSH1 0x20 ADD SWAP2 PUSH2 0x195 JUMP JUMPDEST DUP3 ADD SWAP2 SWAP1 PUSH0 MSTORE PUSH1 0x20 PUSH0 KECCAK256 SWAP1 JUMPDEST DUP2 SLOAD DUP2 MSTORE SWAP1 PUSH1 0x1 ADD SWAP1 PUSH1 0x20 ADD DUP1 DUP4 GT PUSH2 0x178 JUMPI DUP3 SWAP1 SUB PUSH1 0x1F AND DUP3 ADD SWAP2 JUMPDEST POP POP POP POP POP SWAP1 POP DUP1 DUP2 MLOAD SWAP3 POP SWAP3 POP POP SWAP1 SWAP2 JUMP JUMPDEST PUSH1 0x2 SLOAD DUP2 JUMP JUMPDEST PUSH0 DUP2 SLOAD SWAP1 POP SWAP2 SWAP1 POP JUMP JUMPDEST PUSH0 PUSH1 0x2 DUP2 SWAP1 SSTORE POP PUSH0 DUP1 DUP1 SLOAD PUSH2 0x1CC SWAP1 PUSH2 0x60E JUMP JUMPDEST DUP1 PUSH1 0x1F ADD PUSH1 0x20 DUP1 SWAP2 DIV MUL PUSH1 0x20 ADD PUSH1 0x40 MLOAD SWAP1 DUP2 ADD PUSH1 0x40 MSTORE DUP1 SWAP3 SWAP2 SWAP1 DUP2 DUP2 MSTORE PUSH1 0x20 ADD DUP3 DUP1 SLOAD PUSH2 0x1F8 SWAP1 PUSH2 0x60E JUMP JUMPDEST DUP1 ISZERO PUSH2 0x243 JUMPI DUP1 PUSH1 0x1F LT PUSH2 0x21A JUMPI PUSH2 0x100 DUP1 DUP4 SLOAD DIV MUL DUP4 MSTORE SWAP2 PUSH1 0x20 ADD SWAP2 PUSH2 0x243 JUMP JUMPDEST DUP3 ADD SWAP2 SWAP1 PUSH0 MSTORE PUSH1 0x20 PUSH0 KECCAK256 SWAP1 JUMPDEST DUP2 SLOAD DUP2 MSTORE SWAP1 PUSH1 0x1 ADD SWAP1 PUSH1 0x20 ADD DUP1 DUP4 GT PUSH2 0x226 JUMPI DUP3 SWAP1 SUB PUSH1 0x1F AND DUP3 ADD SWAP2 JUMPDEST POP POP POP POP POP SWAP1 POP PUSH0 JUMPDEST DUP2 MLOAD DUP2 LT ISZERO PUSH2 0x2D6 JUMPI PUSH0 PUSH1 0xF8 SHL DUP3 DUP3 DUP2 MLOAD DUP2 LT PUSH2 0x26C JUMPI PUSH2 0x26B PUSH2 0x63E JUMP JUMPDEST JUMPDEST PUSH1 0x20 ADD ADD MLOAD PUSH1 0xF8 SHR PUSH1 0xF8 SHL PUSH31 0xFFFFFFFFFFFFFFFFFFFFFFFFFFFFFFFFFFFFFFFFFFFFFFFFFFFFFFFFFFFFFF NOT AND SUB PUSH2 0x2D6 JUMPI PUSH1 0x32 PUSH1 0x2 SLOAD LT ISZERO PUSH2 0x2C3 JUMPI PUSH1 0xA PUSH1 0x2 PUSH0 DUP3 DUP3 SLOAD PUSH2 0x2BB SWAP2 SWAP1 PUSH2 0x698 JUMP JUMPDEST SWAP3 POP POP DUP2 SWAP1 SSTORE POP JUMPDEST DUP1 DUP1 PUSH2 0x2CE SWAP1 PUSH2 0x6CB JUMP JUMPDEST SWAP2 POP POP PUSH2 0x24C JUMP JUMPDEST POP PUSH0 PUSH1 0x1 DUP1 SLOAD PUSH2 0x2E5 SWAP1 PUSH2 0x60E JUMP JUMPDEST DUP1 PUSH1 0x1F ADD PUSH1 0x20 DUP1 SWAP2 DIV MUL PUSH1 0x20 ADD PUSH1 0x40 MLOAD SWAP1 DUP2 ADD PUSH1 0x40 MSTORE DUP1 SWAP3 SWAP2 SWAP1 DUP2 DUP2 MSTORE PUSH1 0x20 ADD DUP3 DUP1 SLOAD PUSH2 0x311 SWAP1 PUSH2 0x60E JUMP JUMPDEST DUP1 ISZERO PUSH2 0x35C JUMPI DUP1 PUSH1 0x1F LT PUSH2 0x333 JUMPI PUSH2 0x100 DUP1 DUP4 SLOAD DIV MUL DUP4 MSTORE SWAP2 PUSH1 0x20 ADD SWAP2 PUSH2 0x35C JUMP JUMPDEST DUP3 ADD SWAP2 SWAP1 PUSH0 MSTORE PUSH1 0x20 PUSH0 KECCAK256 SWAP1 JUMPDEST DUP2 SLOAD DUP2 MSTORE SWAP1 PUSH1 0x1 ADD SWAP1 PUSH1 0x20 ADD DUP1 DUP4 GT PUSH2 0x33F JUMPI DUP3 SWAP1 SUB PUSH1 0x1F AND DUP3 ADD SWAP2 JUMPDEST POP POP POP POP POP SWAP1 POP PUSH0 JUMPDEST DUP2 MLOAD DUP2 LT ISZERO PUSH2 0x3F8 JUMPI PUSH0 PUSH1 0xF8 SHL DUP3 DUP3 DUP2 MLOAD DUP2 LT PUSH2 0x385 JUMPI PUSH2 0x384 PUSH2 0x63E JUMP JUMPDEST JUMPDEST PUSH1 0x20 ADD ADD MLOAD PUSH1 0xF8 SHR PUSH1 0xF8 SHL PUSH31 0xFFFFFFFFFFFFFFFFFFFFFFFFFFFFFFFFFFFFFFFFFFFFFFFFFFFFFFFFFFFFFF NOT AND SUB PUSH2 0x3F8 JUMPI PUSH1 0x1 DUP3 MLOAD PUSH2 0x3C5 SWAP2 SWAP1 PUSH2 0x712 JUMP JUMPDEST DUP2 SUB PUSH2 0x3E5 JUMPI PUSH1 0x32 PUSH1 0x2 PUSH0 DUP3 DUP3 SLOAD PUSH2 0x3DD SWAP2 SWAP1 PUSH2 0x698 JUMP JUMPDEST SWAP3 POP POP DUP2 SWAP1 SSTORE POP JUMPDEST DUP1 DUP1 PUSH2 0x3F0 SWAP1 PUSH2 0x6CB JUMP JUMPDEST SWAP2 POP POP PUSH2 0x365 JUMP JUMPDEST POP POP POP JUMP JUMPDEST PUSH0 DUP2 SWAP1 POP SWAP2 SWAP1 POP JUMP JUMPDEST PUSH0 DUP1 REVERT JUMPDEST PUSH0 DUP2 SWAP1 POP SWAP2 SWAP1 POP JUMP JUMPDEST PUSH2 0x41C DUP2 PUSH2 0x40A JUMP JUMPDEST DUP2 EQ PUSH2 0x426 JUMPI PUSH0 DUP1 REVERT JUMPDEST POP JUMP JUMPDEST PUSH0 DUP2 CALLDATALOAD SWAP1 POP PUSH2 0x437 DUP2 PUSH2 0x413 JUMP JUMPDEST SWAP3 SWAP2 POP POP JUMP JUMPDEST PUSH0 DUP1 PUSH1 0x40 DUP4 DUP6 SUB SLT ISZERO PUSH2 0x453 JUMPI PUSH2 0x452 PUSH2 0x406 JUMP JUMPDEST JUMPDEST PUSH0 PUSH2 0x460 DUP6 DUP3 DUP7 ADD PUSH2 0x429 JUMP JUMPDEST SWAP3 POP POP PUSH1 0x20 PUSH2 0x471 DUP6 DUP3 DUP7 ADD PUSH2 0x429 JUMP JUMPDEST SWAP2 POP POP SWAP3 POP SWAP3 SWAP1 POP JUMP JUMPDEST PUSH0 DUP2 MLOAD SWAP1 POP SWAP2 SWAP1 POP JUMP JUMPDEST PUSH0 DUP3 DUP3 MSTORE PUSH1 0x20 DUP3 ADD SWAP1 POP SWAP3 SWAP2 POP POP JUMP JUMPDEST PUSH0 JUMPDEST DUP4 DUP2 LT ISZERO PUSH2 0x4B2 JUMPI DUP1 DUP3 ADD MLOAD DUP2 DUP5 ADD MSTORE PUSH1 0x20 DUP2 ADD SWAP1 POP PUSH2 0x497 JUMP JUMPDEST PUSH0 DUP5 DUP5 ADD MSTORE POP POP POP POP JUMP JUMPDEST PUSH0 PUSH1 0x1F NOT PUSH1 0x1F DUP4 ADD AND SWAP1 POP SWAP2 SWAP1 POP JUMP JUMPDEST PUSH0 PUSH2 0x4D7 DUP3 PUSH2 0x47B JUMP JUMPDEST PUSH2 0x4E1 DUP2 DUP6 PUSH2 0x485 JUMP JUMPDEST SWAP4 POP PUSH2 0x4F1 DUP2 DUP6 PUSH1 0x20 DUP7 ADD PUSH2 0x495 JUMP JUMPDEST PUSH2 0x4FA DUP2 PUSH2 0x4BD JUMP JUMPDEST DUP5 ADD SWAP2 POP POP SWAP3 SWAP2 POP POP JUMP JUMPDEST PUSH0 DUP2 SWAP1 POP SWAP2 SWAP1 POP JUMP JUMPDEST PUSH2 0x517 DUP2 PUSH2 0x505 JUMP JUMPDEST DUP3 MSTORE POP POP JUMP JUMPDEST PUSH0 PUSH1 0x40 DUP3 ADD SWAP1 POP DUP2 DUP2 SUB PUSH0 DUP4 ADD MSTORE PUSH2 0x535 DUP2 DUP6 PUSH2 0x4CD JUMP JUMPDEST SWAP1 POP PUSH2 0x544 PUSH1 0x20 DUP4 ADD DUP5 PUSH2 0x50E JUMP JUMPDEST SWAP4 SWAP3 POP POP POP JUMP JUMPDEST PUSH0 PUSH1 0x20 DUP3 ADD SWAP1 POP PUSH2 0x55E PUSH0 DUP4 ADD DUP5 PUSH2 0x50E JUMP JUMPDEST SWAP3 SWAP2 POP POP JUMP JUMPDEST PUSH2 0x56D DUP2 PUSH2 0x505 JUMP JUMPDEST DUP2 EQ PUSH2 0x577 JUMPI PUSH0 DUP1 REVERT JUMPDEST POP JUMP JUMPDEST PUSH0 DUP2 CALLDATALOAD SWAP1 POP PUSH2 0x588 DUP2 PUSH2 0x564 JUMP JUMPDEST SWAP3 SWAP2 POP POP JUMP JUMPDEST PUSH0 PUSH1 0x20 DUP3 DUP5 SUB SLT ISZERO PUSH2 0x5A3 JUMPI PUSH2 0x5A2 PUSH2 0x406 JUMP JUMPDEST JUMPDEST PUSH0 PUSH2 0x5B0 DUP5 DUP3 DUP6 ADD PUSH2 0x57A JUMP JUMPDEST SWAP2 POP POP SWAP3 SWAP2 POP POP JUMP JUMPDEST PUSH2 0x5C2 DUP2 PUSH2 0x40A JUMP JUMPDEST DUP3 MSTORE POP POP JUMP JUMPDEST PUSH0 PUSH1 0x20 DUP3 ADD SWAP1 POP PUSH2 0x5DB PUSH0 DUP4 ADD DUP5 PUSH2 0x5B9 JUMP JUMPDEST SWAP3 SWAP2 POP POP JUMP JUMPDEST PUSH32 0x4E487B7100000000000000000000000000000000000000000000000000000000 PUSH0 MSTORE PUSH1 0x22 PUSH1 0x4 MSTORE PUSH1 0x24 PUSH0 REVERT JUMPDEST PUSH0 PUSH1 0x2 DUP3 DIV SWAP1 POP PUSH1 0x1 DUP3 AND DUP1 PUSH2 0x625 JUMPI PUSH1 0x7F DUP3 AND SWAP2 POP JUMPDEST PUSH1 0x20 DUP3 LT DUP2 SUB PUSH2 0x638 JUMPI PUSH2 0x637 PUSH2 0x5E1 JUMP JUMPDEST JUMPDEST POP SWAP2 SWAP1 POP JUMP JUMPDEST PUSH32 0x4E487B7100000000000000000000000000000000000000000000000000000000 PUSH0 MSTORE PUSH1 0x32 PUSH1 0x4 MSTORE PUSH1 0x24 PUSH0 REVERT JUMPDEST PUSH32 0x4E487B7100000000000000000000000000000000000000000000000000000000 PUSH0 MSTORE PUSH1 0x11 PUSH1 0x4 MSTORE PUSH1 0x24 PUSH0 REVERT JUMPDEST PUSH0 PUSH2 0x6A2 DUP3 PUSH2 0x505 JUMP JUMPDEST SWAP2 POP PUSH2 0x6AD DUP4 PUSH2 0x505 JUMP JUMPDEST SWAP3 POP DUP3 DUP3 ADD SWAP1 POP DUP1 DUP3 GT ISZERO PUSH2 0x6C5 JUMPI PUSH2 0x6C4 PUSH2 0x66B JUMP JUMPDEST JUMPDEST SWAP3 SWAP2 POP POP JUMP JUMPDEST PUSH0 PUSH2 0x6D5 DUP3 PUSH2 0x505 JUMP JUMPDEST SWAP2 POP PUSH32 0xFFFFFFFFFFFFFFFFFFFFFFFFFFFFFFFFFFFFFFFFFFFFFFFFFFFFFFFFFFFFFFFF DUP3 SUB PUSH2 0x707 JUMPI PUSH2 0x706 PUSH2 0x66B JUMP JUMPDEST JUMPDEST PUSH1 0x1 DUP3 ADD SWAP1 POP SWAP2 SWAP1 POP JUMP JUMPDEST PUSH0 PUSH2 0x71C DUP3 PUSH2 0x505 JUMP JUMPDEST SWAP2 POP PUSH2 0x727 DUP4 PUSH2 0x505 JUMP JUMPDEST SWAP3 POP DUP3 DUP3 SUB SWAP1 POP DUP2 DUP2 GT ISZERO PUSH2 0x73F JUMPI PUSH2 0x73E PUSH2 0x66B JUMP JUMPDEST JUMPDEST SWAP3 SWAP2 POP POP JUMP INVALID LOG2 PUSH5 0x6970667358 0x22 SLT KECCAK256 CREATE2 DUP6 CREATE SWAP7 0xBE 0xED 0xB0 KECCAK256 0xA9 0xCC XOR MOD 0xD4 0xAC 0x4B SWAP15 PUSH19 0x9E50EE7D07FD9083C88186549F3CD664736F6C PUSH4 0x43000815 STOP CALLER PUSH4 0x7569742C KECCAK256 PUSH21 0x68652062657374207363686F6F6C206F6620626C6F PUSH4 0x6B636861 PUSH10 0x6E000000000000000000 "
				},
				"gasEstimates": {
					"creation": {
						"codeDepositCost": "383000",
						"executionCost": "infinite",
						"totalCost": "infinite"
					},
					"external": {
						"getStorageAt(uint256)": "2737",
						"getstring()": "infinite",
						"isCompleted()": "infinite",
						"score()": "2447",
						"setSlot(bytes32,bytes32)": "infinite"
					}
				},
				"methodIdentifiers": {
					"getStorageAt(uint256)": "f6baafa5",
					"getstring()": "e2f5cc0d",
					"isCompleted()": "fa391c64",
					"score()": "efedc669",
					"setSlot(bytes32,bytes32)": "d3607ed9"
				}
			},
			"storageLayout": {
				"storage": [
					{
						"astId": 115,
						"contract": "shoot/1/动态数据类型的存储方式/1.sol:stringer",
						"label": "string1",
						"offset": 0,
						"slot": "0",
						"type": "t_string_storage"
					},
					{
						"astId": 118,
						"contract": "shoot/1/动态数据类型的存储方式/1.sol:stringer",
						"label": "string2",
						"offset": 0,
						"slot": "1",
						"type": "t_string_storage"
					},
					{
						"astId": 120,
						"contract": "shoot/1/动态数据类型的存储方式/1.sol:stringer",
						"label": "score",
						"offset": 0,
						"slot": "2",
						"type": "t_uint256"
					}
				],
				"types": {
					"t_string_storage": {
						"encoding": "bytes",
						"label": "string",
						"numberOfBytes": "32"
					},
					"t_uint256": {
						"encoding": "inplace",
						"label": "uint256",
						"numberOfBytes": "32"
					}
				}
			},
			"userdoc": {
				"kind": "user",
				"methods": {},
				"version": 1
			}
		}
	}
}