{
	"data": {
		"bytecode": {
			"linkReferences": {},
			"object": "60806040526040518060200162000016906200004e565b6020820181038252601f19601f82011660405250600190816200003a9190620002c0565b5034801562000047575f80fd5b50620003a4565b6103168062000d6983390190565b5f81519050919050565b7f4e487b71000000000000000000000000000000000000000000000000000000005f52604160045260245ffd5b7f4e487b71000000000000000000000000000000000000000000000000000000005f52602260045260245ffd5b5f6002820490506001821680620000d857607f821691505b602082108103620000ee57620000ed62000093565b5b50919050565b5f819050815f5260205f209050919050565b5f6020601f8301049050919050565b5f82821b905092915050565b5f60088302620001527fffffffffffffffffffffffffffffffffffffffffffffffffffffffffffffffff8262000115565b6200015e868362000115565b95508019841693508086168417925050509392505050565b5f819050919050565b5f819050919050565b5f620001a8620001a26200019c8462000176565b6200017f565b62000176565b9050919050565b5f819050919050565b620001c38362000188565b620001db620001d282620001af565b84845462000121565b825550505050565b5f90565b620001f1620001e3565b620001fe818484620001b8565b505050565b5b818110156200022557620002195f82620001e7565b60018101905062000204565b5050565b601f82111562000274576200023e81620000f4565b620002498462000106565b8101602085101562000259578190505b62000271620002688562000106565b83018262000203565b50505b505050565b5f82821c905092915050565b5f620002965f198460080262000279565b1980831691505092915050565b5f620002b0838362000285565b9150826002028217905092915050565b620002cb826200005c565b67ffffffffffffffff811115620002e757620002e662000066565b5b620002f38254620000c0565b6200030082828562000229565b5f60209050601f83116001811462000336575f841562000321578287015190505b6200032d8582620002a3565b8655506200039c565b601f1984166200034686620000f4565b5f5b828110156200036f5784890151825560018201915060208501945060208101905062000348565b868310156200038f57848901516200038b601f89168262000285565b8355505b6001600288020188555050505b505050505050565b6109b780620003b25f395ff3fe608060405234801561000f575f80fd5b506004361061004a575f3560e01c80630560280e1461004e578063494a1ae51461006c57806391e2fd091461008a578063f905c15a146100a8575b5f80fd5b6100566100b2565b604051610063919061030c565b60405180910390f35b61007461013e565b6040516100819190610344565b60405180910390f35b6100926101e0565b60405161009f91906103d7565b60405180910390f35b6100b0610203565b005b600180546100bf9061041d565b80601f01602080910402602001604051908101604052809291908181526020018280546100eb9061041d565b80156101365780601f1061010d57610100808354040283529160200191610136565b820191905f5260205f20905b81548152906001019060200180831161011957829003601f168201915b505050505081565b5f805f805f90505b5f81106101d55760ff30845f1b600160405161016291906104e9565b604051809103902060405160200161017d94939291906105b5565b604051602081830303815290604052805190602001205f1c915061202263ffffffff1661ffff831673ffffffffffffffffffffffffffffffffffffffff1603156101d5576001836101ce9190610638565b9250610146565b50815f1b9250505090565b5f8054906101000a900473ffffffffffffffffffffffffffffffffffffffff1681565b61020b61013e565b60405161021790610275565b8190604051809103905ff5905080158015610234573d5f803e3d5ffd5b505f806101000a81548173ffffffffffffffffffffffffffffffffffffffff021916908373ffffffffffffffffffffffffffffffffffffffff160217905550565b6103168061066c83390190565b5f81519050919050565b5f82825260208201905092915050565b5f5b838110156102b957808201518184015260208101905061029e565b5f8484015250505050565b5f601f19601f8301169050919050565b5f6102de82610282565b6102e8818561028c565b93506102f881856020860161029c565b610301816102c4565b840191505092915050565b5f6020820190508181035f83015261032481846102d4565b905092915050565b5f819050919050565b61033e8161032c565b82525050565b5f6020820190506103575f830184610335565b92915050565b5f73ffffffffffffffffffffffffffffffffffffffff82169050919050565b5f819050919050565b5f61039f61039a6103958461035d565b61037c565b61035d565b9050919050565b5f6103b082610385565b9050919050565b5f6103c1826103a6565b9050919050565b6103d1816103b7565b82525050565b5f6020820190506103ea5f8301846103c8565b92915050565b7f4e487b71000000000000000000000000000000000000000000000000000000005f52602260045260245ffd5b5f600282049050600182168061043457607f821691505b602082108103610447576104466103f0565b5b50919050565b5f81905092915050565b5f819050815f5260205f209050919050565b5f81546104758161041d565b61047f818661044d565b9450600182165f811461049957600181146104ae576104e0565b60ff19831686528115158202860193506104e0565b6104b785610457565b5f5b838110156104d8578154818901526001820191506020810190506104b9565b838801955050505b50505092915050565b5f6104f48284610469565b915081905092915050565b5f60ff82169050919050565b5f8160f81b9050919050565b5f6105218261050b565b9050919050565b610539610534826104ff565b610517565b82525050565b5f6105498261035d565b9050919050565b5f8160601b9050919050565b5f61056682610550565b9050919050565b5f6105778261055c565b9050919050565b61058f61058a8261053f565b61056d565b82525050565b5f819050919050565b6105af6105aa8261032c565b610595565b82525050565b5f6105c08287610528565b6001820191506105d0828661057e565b6014820191506105e0828561059e565b6020820191506105f0828461059e565b60208201915081905095945050505050565b5f819050919050565b7f4e487b71000000000000000000000000000000000000000000000000000000005f52601160045260245ffd5b5f61064282610602565b915061064d83610602565b92508282019050808211156106655761066461060b565b5b9291505056fe608060405234801561000f575f80fd5b506102f98061001d5f395ff3fe608060405234801561000f575f80fd5b5060043610610029575f3560e01c8063dbf168731461002d575b5f80fd5b61004760048036038101906100429190610234565b610049565b005b8073ffffffffffffffffffffffffffffffffffffffff1663e90e2fed6040518163ffffffff1660e01b81526004015f604051808303815f87803b15801561008e575f80fd5b505af11580156100a0573d5f803e3d5ffd5b505050508073ffffffffffffffffffffffffffffffffffffffff1663a2b40d195f6040518263ffffffff1660e01b81526004016100dd91906102aa565b5f604051808303815f87803b1580156100f4575f80fd5b505af1158015610106573d5f803e3d5ffd5b505050508073ffffffffffffffffffffffffffffffffffffffff1663a6f2ae3a5f6040518263ffffffff1660e01b81526004015f604051808303818588803b158015610150575f80fd5b505af1158015610162573d5f803e3d5ffd5b50505050508073ffffffffffffffffffffffffffffffffffffffff1663fa391c646040518163ffffffff1660e01b81526004015f604051808303815f87803b1580156101ac575f80fd5b505af11580156101be573d5f803e3d5ffd5b5050505050565b5f80fd5b5f73ffffffffffffffffffffffffffffffffffffffff82169050919050565b5f6101f2826101c9565b9050919050565b5f610203826101e8565b9050919050565b610213816101f9565b811461021d575f80fd5b50565b5f8135905061022e8161020a565b92915050565b5f60208284031215610249576102486101c5565b5b5f61025684828501610220565b91505092915050565b5f819050919050565b5f819050919050565b5f819050919050565b5f61029461028f61028a8461025f565b610271565b610268565b9050919050565b6102a48161027a565b82525050565b5f6020820190506102bd5f83018461029b565b9291505056fea2646970667358221220e541a3e3edccf6d283f27a437eeaf64741a129fdf8d51368758f6d4f9764a49464736f6c63430008150033a264697066735822122055dceab58888002de41bdc6c3335123ce1fea9ae43677e04ed4fba5ecf121ec864736f6c63430008150033608060405234801561000f575f80fd5b506102f98061001d5f395ff3fe608060405234801561000f575f80fd5b5060043610610029575f3560e01c8063dbf168731461002d575b5f80fd5b61004760048036038101906100429190610234565b610049565b005b8073ffffffffffffffffffffffffffffffffffffffff1663e90e2fed6040518163ffffffff1660e01b81526004015f604051808303815f87803b15801561008e575f80fd5b505af11580156100a0573d5f803e3d5ffd5b505050508073ffffffffffffffffffffffffffffffffffffffff1663a2b40d195f6040518263ffffffff1660e01b81526004016100dd91906102aa565b5f604051808303815f87803b1580156100f4575f80fd5b505af1158015610106573d5f803e3d5ffd5b505050508073ffffffffffffffffffffffffffffffffffffffff1663a6f2ae3a5f6040518263ffffffff1660e01b81526004015f604051808303818588803b158015610150575f80fd5b505af1158015610162573d5f803e3d5ffd5b50505050508073ffffffffffffffffffffffffffffffffffffffff1663fa391c646040518163ffffffff1660e01b81526004015f604051808303815f87803b1580156101ac575f80fd5b505af11580156101be573d5f803e3d5ffd5b5050505050565b5f80fd5b5f73ffffffffffffffffffffffffffffffffffffffff82169050919050565b5f6101f2826101c9565b9050919050565b5f610203826101e8565b9050919050565b610213816101f9565b811461021d575f80fd5b50565b5f8135905061022e8161020a565b92915050565b5f60208284031215610249576102486101c5565b5b5f61025684828501610220565b91505092915050565b5f819050919050565b5f819050919050565b5f819050919050565b5f61029461028f61028a8461025f565b610271565b610268565b9050919050565b6102a48161027a565b82525050565b5f6020820190506102bd5f83018461029b565b9291505056fea2646970667358221220e541a3e3edccf6d283f27a437eeaf64741a129fdf8d51368758f6d4f9764a49464736f6c63430008150033",
			"opcodes": "PUSH1 0x80 PUSH1 0x40 MSTORE PUSH1 0x40 MLOAD DUP1 PUSH1 0x20 ADD PUSH3 0x16 SWAP1 PUSH3 0x4E JUMP JUMPDEST PUSH1 0x20 DUP3 ADD DUP2 SUB DUP3 MSTORE PUSH1 0x1F NOT PUSH1 0x1F DUP3 ADD AND PUSH1 0x40 MSTORE POP PUSH1 0x1 SWAP1 DUP2 PUSH3 0x3A SWAP2 SWAP1 PUSH3 0x2C0 JUMP JUMPDEST POP CALLVALUE DUP1 ISZERO PUSH3 0x47 JUMPI PUSH0 DUP1 REVERT JUMPDEST POP PUSH3 0x3A4 JUMP JUMPDEST PUSH2 0x316 DUP1 PUSH3 0xD69 DUP4 CODECOPY ADD SWAP1 JUMP JUMPDEST PUSH0 DUP2 MLOAD SWAP1 POP SWAP2 SWAP1 POP JUMP JUMPDEST PUSH32 0x4E487B7100000000000000000000000000000000000000000000000000000000 PUSH0 MSTORE PUSH1 0x41 PUSH1 0x4 MSTORE PUSH1 0x24 PUSH0 REVERT JUMPDEST PUSH32 0x4E487B7100000000000000000000000000000000000000000000000000000000 PUSH0 MSTORE PUSH1 0x22 PUSH1 0x4 MSTORE PUSH1 0x24 PUSH0 REVERT JUMPDEST PUSH0 PUSH1 0x2 DUP3 DIV SWAP1 POP PUSH1 0x1 DUP3 AND DUP1 PUSH3 0xD8 JUMPI PUSH1 0x7F DUP3 AND SWAP2 POP JUMPDEST PUSH1 0x20 DUP3 LT DUP2 SUB PUSH3 0xEE JUMPI PUSH3 0xED PUSH3 0x93 JUMP JUMPDEST JUMPDEST POP SWAP2 SWAP1 POP JUMP JUMPDEST PUSH0 DUP2 SWAP1 POP DUP2 PUSH0 MSTORE PUSH1 0x20 PUSH0 KECCAK256 SWAP1 POP SWAP2 SWAP1 POP JUMP JUMPDEST PUSH0 PUSH1 0x20 PUSH1 0x1F DUP4 ADD DIV SWAP1 POP SWAP2 SWAP1 POP JUMP JUMPDEST PUSH0 DUP3 DUP3 SHL SWAP1 POP SWAP3 SWAP2 POP POP JUMP JUMPDEST PUSH0 PUSH1 0x8 DUP4 MUL PUSH3 0x152 PUSH32 0xFFFFFFFFFFFFFFFFFFFFFFFFFFFFFFFFFFFFFFFFFFFFFFFFFFFFFFFFFFFFFFFF DUP3 PUSH3 0x115 JUMP JUMPDEST PUSH3 0x15E DUP7 DUP4 PUSH3 0x115 JUMP JUMPDEST SWAP6 POP DUP1 NOT DUP5 AND SWAP4 POP DUP1 DUP7 AND DUP5 OR SWAP3 POP POP POP SWAP4 SWAP3 POP POP POP JUMP JUMPDEST PUSH0 DUP2 SWAP1 POP SWAP2 SWAP1 POP JUMP JUMPDEST PUSH0 DUP2 SWAP1 POP SWAP2 SWAP1 POP JUMP JUMPDEST PUSH0 PUSH3 0x1A8 PUSH3 0x1A2 PUSH3 0x19C DUP5 PUSH3 0x176 JUMP JUMPDEST PUSH3 0x17F JUMP JUMPDEST PUSH3 0x176 JUMP JUMPDEST SWAP1 POP SWAP2 SWAP1 POP JUMP JUMPDEST PUSH0 DUP2 SWAP1 POP SWAP2 SWAP1 POP JUMP JUMPDEST PUSH3 0x1C3 DUP4 PUSH3 0x188 JUMP JUMPDEST PUSH3 0x1DB PUSH3 0x1D2 DUP3 PUSH3 0x1AF JUMP JUMPDEST DUP5 DUP5 SLOAD PUSH3 0x121 JUMP JUMPDEST DUP3 SSTORE POP POP POP POP JUMP JUMPDEST PUSH0 SWAP1 JUMP JUMPDEST PUSH3 0x1F1 PUSH3 0x1E3 JUMP JUMPDEST PUSH3 0x1FE DUP2 DUP5 DUP5 PUSH3 0x1B8 JUMP JUMPDEST POP POP POP JUMP JUMPDEST JUMPDEST DUP2 DUP2 LT ISZERO PUSH3 0x225 JUMPI PUSH3 0x219 PUSH0 DUP3 PUSH3 0x1E7 JUMP JUMPDEST PUSH1 0x1 DUP2 ADD SWAP1 POP PUSH3 0x204 JUMP JUMPDEST POP POP JUMP JUMPDEST PUSH1 0x1F DUP3 GT ISZERO PUSH3 0x274 JUMPI PUSH3 0x23E DUP2 PUSH3 0xF4 JUMP JUMPDEST PUSH3 0x249 DUP5 PUSH3 0x106 JUMP JUMPDEST DUP2 ADD PUSH1 0x20 DUP6 LT ISZERO PUSH3 0x259 JUMPI DUP2 SWAP1 POP JUMPDEST PUSH3 0x271 PUSH3 0x268 DUP6 PUSH3 0x106 JUMP JUMPDEST DUP4 ADD DUP3 PUSH3 0x203 JUMP JUMPDEST POP POP JUMPDEST POP POP POP JUMP JUMPDEST PUSH0 DUP3 DUP3 SHR SWAP1 POP SWAP3 SWAP2 POP POP JUMP JUMPDEST PUSH0 PUSH3 0x296 PUSH0 NOT DUP5 PUSH1 0x8 MUL PUSH3 0x279 JUMP JUMPDEST NOT DUP1 DUP4 AND SWAP2 POP POP SWAP3 SWAP2 POP POP JUMP JUMPDEST PUSH0 PUSH3 0x2B0 DUP4 DUP4 PUSH3 0x285 JUMP JUMPDEST SWAP2 POP DUP3 PUSH1 0x2 MUL DUP3 OR SWAP1 POP SWAP3 SWAP2 POP POP JUMP JUMPDEST PUSH3 0x2CB DUP3 PUSH3 0x5C JUMP JUMPDEST PUSH8 0xFFFFFFFFFFFFFFFF DUP2 GT ISZERO PUSH3 0x2E7 JUMPI PUSH3 0x2E6 PUSH3 0x66 JUMP JUMPDEST JUMPDEST PUSH3 0x2F3 DUP3 SLOAD PUSH3 0xC0 JUMP JUMPDEST PUSH3 0x300 DUP3 DUP3 DUP6 PUSH3 0x229 JUMP JUMPDEST PUSH0 PUSH1 0x20 SWAP1 POP PUSH1 0x1F DUP4 GT PUSH1 0x1 DUP2 EQ PUSH3 0x336 JUMPI PUSH0 DUP5 ISZERO PUSH3 0x321 JUMPI DUP3 DUP8 ADD MLOAD SWAP1 POP JUMPDEST PUSH3 0x32D DUP6 DUP3 PUSH3 0x2A3 JUMP JUMPDEST DUP7 SSTORE POP PUSH3 0x39C JUMP JUMPDEST PUSH1 0x1F NOT DUP5 AND PUSH3 0x346 DUP7 PUSH3 0xF4 JUMP JUMPDEST PUSH0 JUMPDEST DUP3 DUP2 LT ISZERO PUSH3 0x36F JUMPI DUP5 DUP10 ADD MLOAD DUP3 SSTORE PUSH1 0x1 DUP3 ADD SWAP2 POP PUSH1 0x20 DUP6 ADD SWAP5 POP PUSH1 0x20 DUP2 ADD SWAP1 POP PUSH3 0x348 JUMP JUMPDEST DUP7 DUP4 LT ISZERO PUSH3 0x38F JUMPI DUP5 DUP10 ADD MLOAD PUSH3 0x38B PUSH1 0x1F DUP10 AND DUP3 PUSH3 0x285 JUMP JUMPDEST DUP4 SSTORE POP JUMPDEST PUSH1 0x1 PUSH1 0x2 DUP9 MUL ADD DUP9 SSTORE POP POP POP JUMPDEST POP POP POP POP POP POP JUMP JUMPDEST PUSH2 0x9B7 DUP1 PUSH3 0x3B2 PUSH0 CODECOPY PUSH0 RETURN INVALID PUSH1 0x80 PUSH1 0x40 MSTORE CALLVALUE DUP1 ISZERO PUSH2 0xF JUMPI PUSH0 DUP1 REVERT JUMPDEST POP PUSH1 0x4 CALLDATASIZE LT PUSH2 0x4A JUMPI PUSH0 CALLDATALOAD PUSH1 0xE0 SHR DUP1 PUSH4 0x560280E EQ PUSH2 0x4E JUMPI DUP1 PUSH4 0x494A1AE5 EQ PUSH2 0x6C JUMPI DUP1 PUSH4 0x91E2FD09 EQ PUSH2 0x8A JUMPI DUP1 PUSH4 0xF905C15A EQ PUSH2 0xA8 JUMPI JUMPDEST PUSH0 DUP1 REVERT JUMPDEST PUSH2 0x56 PUSH2 0xB2 JUMP JUMPDEST PUSH1 0x40 MLOAD PUSH2 0x63 SWAP2 SWAP1 PUSH2 0x30C JUMP JUMPDEST PUSH1 0x40 MLOAD DUP1 SWAP2 SUB SWAP1 RETURN JUMPDEST PUSH2 0x74 PUSH2 0x13E JUMP JUMPDEST PUSH1 0x40 MLOAD PUSH2 0x81 SWAP2 SWAP1 PUSH2 0x344 JUMP JUMPDEST PUSH1 0x40 MLOAD DUP1 SWAP2 SUB SWAP1 RETURN JUMPDEST PUSH2 0x92 PUSH2 0x1E0 JUMP JUMPDEST PUSH1 0x40 MLOAD PUSH2 0x9F SWAP2 SWAP1 PUSH2 0x3D7 JUMP JUMPDEST PUSH1 0x40 MLOAD DUP1 SWAP2 SUB SWAP1 RETURN JUMPDEST PUSH2 0xB0 PUSH2 0x203 JUMP JUMPDEST STOP JUMPDEST PUSH1 0x1 DUP1 SLOAD PUSH2 0xBF SWAP1 PUSH2 0x41D JUMP JUMPDEST DUP1 PUSH1 0x1F ADD PUSH1 0x20 DUP1 SWAP2 DIV MUL PUSH1 0x20 ADD PUSH1 0x40 MLOAD SWAP1 DUP2 ADD PUSH1 0x40 MSTORE DUP1 SWAP3 SWAP2 SWAP1 DUP2 DUP2 MSTORE PUSH1 0x20 ADD DUP3 DUP1 SLOAD PUSH2 0xEB SWAP1 PUSH2 0x41D JUMP JUMPDEST DUP1 ISZERO PUSH2 0x136 JUMPI DUP1 PUSH1 0x1F LT PUSH2 0x10D JUMPI PUSH2 0x100 DUP1 DUP4 SLOAD DIV MUL DUP4 MSTORE SWAP2 PUSH1 0x20 ADD SWAP2 PUSH2 0x136 JUMP JUMPDEST DUP3 ADD SWAP2 SWAP1 PUSH0 MSTORE PUSH1 0x20 PUSH0 KECCAK256 SWAP1 JUMPDEST DUP2 SLOAD DUP2 MSTORE SWAP1 PUSH1 0x1 ADD SWAP1 PUSH1 0x20 ADD DUP1 DUP4 GT PUSH2 0x119 JUMPI DUP3 SWAP1 SUB PUSH1 0x1F AND DUP3 ADD SWAP2 JUMPDEST POP POP POP POP POP DUP2 JUMP JUMPDEST PUSH0 DUP1 PUSH0 DUP1 PUSH0 SWAP1 POP JUMPDEST PUSH0 DUP2 LT PUSH2 0x1D5 JUMPI PUSH1 0xFF ADDRESS DUP5 PUSH0 SHL PUSH1 0x1 PUSH1 0x40 MLOAD PUSH2 0x162 SWAP2 SWAP1 PUSH2 0x4E9 JUMP JUMPDEST PUSH1 0x40 MLOAD DUP1 SWAP2 SUB SWAP1 KECCAK256 PUSH1 0x40 MLOAD PUSH1 0x20 ADD PUSH2 0x17D SWAP5 SWAP4 SWAP3 SWAP2 SWAP1 PUSH2 0x5B5 JUMP JUMPDEST PUSH1 0x40 MLOAD PUSH1 0x20 DUP2 DUP4 SUB SUB DUP2 MSTORE SWAP1 PUSH1 0x40 MSTORE DUP1 MLOAD SWAP1 PUSH1 0x20 ADD KECCAK256 PUSH0 SHR SWAP2 POP PUSH2 0x2022 PUSH4 0xFFFFFFFF AND PUSH2 0xFFFF DUP4 AND PUSH20 0xFFFFFFFFFFFFFFFFFFFFFFFFFFFFFFFFFFFFFFFF AND SUB ISZERO PUSH2 0x1D5 JUMPI PUSH1 0x1 DUP4 PUSH2 0x1CE SWAP2 SWAP1 PUSH2 0x638 JUMP JUMPDEST SWAP3 POP PUSH2 0x146 JUMP JUMPDEST POP DUP2 PUSH0 SHL SWAP3 POP POP POP SWAP1 JUMP JUMPDEST PUSH0 DUP1 SLOAD SWAP1 PUSH2 0x100 EXP SWAP1 DIV PUSH20 0xFFFFFFFFFFFFFFFFFFFFFFFFFFFFFFFFFFFFFFFF AND DUP2 JUMP JUMPDEST PUSH2 0x20B PUSH2 0x13E JUMP JUMPDEST PUSH1 0x40 MLOAD PUSH2 0x217 SWAP1 PUSH2 0x275 JUMP JUMPDEST DUP2 SWAP1 PUSH1 0x40 MLOAD DUP1 SWAP2 SUB SWAP1 PUSH0 CREATE2 SWAP1 POP DUP1 ISZERO DUP1 ISZERO PUSH2 0x234 JUMPI RETURNDATASIZE PUSH0 DUP1 RETURNDATACOPY RETURNDATASIZE PUSH0 REVERT JUMPDEST POP PUSH0 DUP1 PUSH2 0x100 EXP DUP2 SLOAD DUP2 PUSH20 0xFFFFFFFFFFFFFFFFFFFFFFFFFFFFFFFFFFFFFFFF MUL NOT AND SWAP1 DUP4 PUSH20 0xFFFFFFFFFFFFFFFFFFFFFFFFFFFFFFFFFFFFFFFF AND MUL OR SWAP1 SSTORE POP JUMP JUMPDEST PUSH2 0x316 DUP1 PUSH2 0x66C DUP4 CODECOPY ADD SWAP1 JUMP JUMPDEST PUSH0 DUP2 MLOAD SWAP1 POP SWAP2 SWAP1 POP JUMP JUMPDEST PUSH0 DUP3 DUP3 MSTORE PUSH1 0x20 DUP3 ADD SWAP1 POP SWAP3 SWAP2 POP POP JUMP JUMPDEST PUSH0 JUMPDEST DUP4 DUP2 LT ISZERO PUSH2 0x2B9 JUMPI DUP1 DUP3 ADD MLOAD DUP2 DUP5 ADD MSTORE PUSH1 0x20 DUP2 ADD SWAP1 POP PUSH2 0x29E JUMP JUMPDEST PUSH0 DUP5 DUP5 ADD MSTORE POP POP POP POP JUMP JUMPDEST PUSH0 PUSH1 0x1F NOT PUSH1 0x1F DUP4 ADD AND SWAP1 POP SWAP2 SWAP1 POP JUMP JUMPDEST PUSH0 PUSH2 0x2DE DUP3 PUSH2 0x282 JUMP JUMPDEST PUSH2 0x2E8 DUP2 DUP6 PUSH2 0x28C JUMP JUMPDEST SWAP4 POP PUSH2 0x2F8 DUP2 DUP6 PUSH1 0x20 DUP7 ADD PUSH2 0x29C JUMP JUMPDEST PUSH2 0x301 DUP2 PUSH2 0x2C4 JUMP JUMPDEST DUP5 ADD SWAP2 POP POP SWAP3 SWAP2 POP POP JUMP JUMPDEST PUSH0 PUSH1 0x20 DUP3 ADD SWAP1 POP DUP2 DUP2 SUB PUSH0 DUP4 ADD MSTORE PUSH2 0x324 DUP2 DUP5 PUSH2 0x2D4 JUMP JUMPDEST SWAP1 POP SWAP3 SWAP2 POP POP JUMP JUMPDEST PUSH0 DUP2 SWAP1 POP SWAP2 SWAP1 POP JUMP JUMPDEST PUSH2 0x33E DUP2 PUSH2 0x32C JUMP JUMPDEST DUP3 MSTORE POP POP JUMP JUMPDEST PUSH0 PUSH1 0x20 DUP3 ADD SWAP1 POP PUSH2 0x357 PUSH0 DUP4 ADD DUP5 PUSH2 0x335 JUMP JUMPDEST SWAP3 SWAP2 POP POP JUMP JUMPDEST PUSH0 PUSH20 0xFFFFFFFFFFFFFFFFFFFFFFFFFFFFFFFFFFFFFFFF DUP3 AND SWAP1 POP SWAP2 SWAP1 POP JUMP JUMPDEST PUSH0 DUP2 SWAP1 POP SWAP2 SWAP1 POP JUMP JUMPDEST PUSH0 PUSH2 0x39F PUSH2 0x39A PUSH2 0x395 DUP5 PUSH2 0x35D JUMP JUMPDEST PUSH2 0x37C JUMP JUMPDEST PUSH2 0x35D JUMP JUMPDEST SWAP1 POP SWAP2 SWAP1 POP JUMP JUMPDEST PUSH0 PUSH2 0x3B0 DUP3 PUSH2 0x385 JUMP JUMPDEST SWAP1 POP SWAP2 SWAP1 POP JUMP JUMPDEST PUSH0 PUSH2 0x3C1 DUP3 PUSH2 0x3A6 JUMP JUMPDEST SWAP1 POP SWAP2 SWAP1 POP JUMP JUMPDEST PUSH2 0x3D1 DUP2 PUSH2 0x3B7 JUMP JUMPDEST DUP3 MSTORE POP POP JUMP JUMPDEST PUSH0 PUSH1 0x20 DUP3 ADD SWAP1 POP PUSH2 0x3EA PUSH0 DUP4 ADD DUP5 PUSH2 0x3C8 JUMP JUMPDEST SWAP3 SWAP2 POP POP JUMP JUMPDEST PUSH32 0x4E487B7100000000000000000000000000000000000000000000000000000000 PUSH0 MSTORE PUSH1 0x22 PUSH1 0x4 MSTORE PUSH1 0x24 PUSH0 REVERT JUMPDEST PUSH0 PUSH1 0x2 DUP3 DIV SWAP1 POP PUSH1 0x1 DUP3 AND DUP1 PUSH2 0x434 JUMPI PUSH1 0x7F DUP3 AND SWAP2 POP JUMPDEST PUSH1 0x20 DUP3 LT DUP2 SUB PUSH2 0x447 JUMPI PUSH2 0x446 PUSH2 0x3F0 JUMP JUMPDEST JUMPDEST POP SWAP2 SWAP1 POP JUMP JUMPDEST PUSH0 DUP2 SWAP1 POP SWAP3 SWAP2 POP POP JUMP JUMPDEST PUSH0 DUP2 SWAP1 POP DUP2 PUSH0 MSTORE PUSH1 0x20 PUSH0 KECCAK256 SWAP1 POP SWAP2 SWAP1 POP JUMP JUMPDEST PUSH0 DUP2 SLOAD PUSH2 0x475 DUP2 PUSH2 0x41D JUMP JUMPDEST PUSH2 0x47F DUP2 DUP7 PUSH2 0x44D JUMP JUMPDEST SWAP5 POP PUSH1 0x1 DUP3 AND PUSH0 DUP2 EQ PUSH2 0x499 JUMPI PUSH1 0x1 DUP2 EQ PUSH2 0x4AE JUMPI PUSH2 0x4E0 JUMP JUMPDEST PUSH1 0xFF NOT DUP4 AND DUP7 MSTORE DUP2 ISZERO ISZERO DUP3 MUL DUP7 ADD SWAP4 POP PUSH2 0x4E0 JUMP JUMPDEST PUSH2 0x4B7 DUP6 PUSH2 0x457 JUMP JUMPDEST PUSH0 JUMPDEST DUP4 DUP2 LT ISZERO PUSH2 0x4D8 JUMPI DUP2 SLOAD DUP2 DUP10 ADD MSTORE PUSH1 0x1 DUP3 ADD SWAP2 POP PUSH1 0x20 DUP2 ADD SWAP1 POP PUSH2 0x4B9 JUMP JUMPDEST DUP4 DUP9 ADD SWAP6 POP POP POP JUMPDEST POP POP POP SWAP3 SWAP2 POP POP JUMP JUMPDEST PUSH0 PUSH2 0x4F4 DUP3 DUP5 PUSH2 0x469 JUMP JUMPDEST SWAP2 POP DUP2 SWAP1 POP SWAP3 SWAP2 POP POP JUMP JUMPDEST PUSH0 PUSH1 0xFF DUP3 AND SWAP1 POP SWAP2 SWAP1 POP JUMP JUMPDEST PUSH0 DUP2 PUSH1 0xF8 SHL SWAP1 POP SWAP2 SWAP1 POP JUMP JUMPDEST PUSH0 PUSH2 0x521 DUP3 PUSH2 0x50B JUMP JUMPDEST SWAP1 POP SWAP2 SWAP1 POP JUMP JUMPDEST PUSH2 0x539 PUSH2 0x534 DUP3 PUSH2 0x4FF JUMP JUMPDEST PUSH2 0x517 JUMP JUMPDEST DUP3 MSTORE POP POP JUMP JUMPDEST PUSH0 PUSH2 0x549 DUP3 PUSH2 0x35D JUMP JUMPDEST SWAP1 POP SWAP2 SWAP1 POP JUMP JUMPDEST PUSH0 DUP2 PUSH1 0x60 SHL SWAP1 POP SWAP2 SWAP1 POP JUMP JUMPDEST PUSH0 PUSH2 0x566 DUP3 PUSH2 0x550 JUMP JUMPDEST SWAP1 POP SWAP2 SWAP1 POP JUMP JUMPDEST PUSH0 PUSH2 0x577 DUP3 PUSH2 0x55C JUMP JUMPDEST SWAP1 POP SWAP2 SWAP1 POP JUMP JUMPDEST PUSH2 0x58F PUSH2 0x58A DUP3 PUSH2 0x53F JUMP JUMPDEST PUSH2 0x56D JUMP JUMPDEST DUP3 MSTORE POP POP JUMP JUMPDEST PUSH0 DUP2 SWAP1 POP SWAP2 SWAP1 POP JUMP JUMPDEST PUSH2 0x5AF PUSH2 0x5AA DUP3 PUSH2 0x32C JUMP JUMPDEST PUSH2 0x595 JUMP JUMPDEST DUP3 MSTORE POP POP JUMP JUMPDEST PUSH0 PUSH2 0x5C0 DUP3 DUP8 PUSH2 0x528 JUMP JUMPDEST PUSH1 0x1 DUP3 ADD SWAP2 POP PUSH2 0x5D0 DUP3 DUP7 PUSH2 0x57E JUMP JUMPDEST PUSH1 0x14 DUP3 ADD SWAP2 POP PUSH2 0x5E0 DUP3 DUP6 PUSH2 0x59E JUMP JUMPDEST PUSH1 0x20 DUP3 ADD SWAP2 POP PUSH2 0x5F0 DUP3 DUP5 PUSH2 0x59E JUMP JUMPDEST PUSH1 0x20 DUP3 ADD SWAP2 POP DUP2 SWAP1 POP SWAP6 SWAP5 POP POP POP POP POP JUMP JUMPDEST PUSH0 DUP2 SWAP1 POP SWAP2 SWAP1 POP JUMP JUMPDEST PUSH32 0x4E487B7100000000000000000000000000000000000000000000000000000000 PUSH0 MSTORE PUSH1 0x11 PUSH1 0x4 MSTORE PUSH1 0x24 PUSH0 REVERT JUMPDEST PUSH0 PUSH2 0x642 DUP3 PUSH2 0x602 JUMP JUMPDEST SWAP2 POP PUSH2 0x64D DUP4 PUSH2 0x602 JUMP JUMPDEST SWAP3 POP DUP3 DUP3 ADD SWAP1 POP DUP1 DUP3 GT ISZERO PUSH2 0x665 JUMPI PUSH2 0x664 PUSH2 0x60B JUMP JUMPDEST JUMPDEST SWAP3 SWAP2 POP POP JUMP INVALID PUSH1 0x80 PUSH1 0x40 MSTORE CALLVALUE DUP1 ISZERO PUSH2 0xF JUMPI PUSH0 DUP1 REVERT JUMPDEST POP PUSH2 0x2F9 DUP1 PUSH2 0x1D PUSH0 CODECOPY PUSH0 RETURN INVALID PUSH1 0x80 PUSH1 0x40 MSTORE CALLVALUE DUP1 ISZERO PUSH2 0xF JUMPI PUSH0 DUP1 REVERT JUMPDEST POP PUSH1 0x4 CALLDATASIZE LT PUSH2 0x29 JUMPI PUSH0 CALLDATALOAD PUSH1 0xE0 SHR DUP1 PUSH4 0xDBF16873 EQ PUSH2 0x2D JUMPI JUMPDEST PUSH0 DUP1 REVERT JUMPDEST PUSH2 0x47 PUSH1 0x4 DUP1 CALLDATASIZE SUB DUP2 ADD SWAP1 PUSH2 0x42 SWAP2 SWAP1 PUSH2 0x234 JUMP JUMPDEST PUSH2 0x49 JUMP JUMPDEST STOP JUMPDEST DUP1 PUSH20 0xFFFFFFFFFFFFFFFFFFFFFFFFFFFFFFFFFFFFFFFF AND PUSH4 0xE90E2FED PUSH1 0x40 MLOAD DUP2 PUSH4 0xFFFFFFFF AND PUSH1 0xE0 SHL DUP2 MSTORE PUSH1 0x4 ADD PUSH0 PUSH1 0x40 MLOAD DUP1 DUP4 SUB DUP2 PUSH0 DUP8 DUP1 EXTCODESIZE ISZERO DUP1 ISZERO PUSH2 0x8E JUMPI PUSH0 DUP1 REVERT JUMPDEST POP GAS CALL ISZERO DUP1 ISZERO PUSH2 0xA0 JUMPI RETURNDATASIZE PUSH0 DUP1 RETURNDATACOPY RETURNDATASIZE PUSH0 REVERT JUMPDEST POP POP POP POP DUP1 PUSH20 0xFFFFFFFFFFFFFFFFFFFFFFFFFFFFFFFFFFFFFFFF AND PUSH4 0xA2B40D19 PUSH0 PUSH1 0x40 MLOAD DUP3 PUSH4 0xFFFFFFFF AND PUSH1 0xE0 SHL DUP2 MSTORE PUSH1 0x4 ADD PUSH2 0xDD SWAP2 SWAP1 PUSH2 0x2AA JUMP JUMPDEST PUSH0 PUSH1 0x40 MLOAD DUP1 DUP4 SUB DUP2 PUSH0 DUP8 DUP1 EXTCODESIZE ISZERO DUP1 ISZERO PUSH2 0xF4 JUMPI PUSH0 DUP1 REVERT JUMPDEST POP GAS CALL ISZERO DUP1 ISZERO PUSH2 0x106 JUMPI RETURNDATASIZE PUSH0 DUP1 RETURNDATACOPY RETURNDATASIZE PUSH0 REVERT JUMPDEST POP POP POP POP DUP1 PUSH20 0xFFFFFFFFFFFFFFFFFFFFFFFFFFFFFFFFFFFFFFFF AND PUSH4 0xA6F2AE3A PUSH0 PUSH1 0x40 MLOAD DUP3 PUSH4 0xFFFFFFFF AND PUSH1 0xE0 SHL DUP2 MSTORE PUSH1 0x4 ADD PUSH0 PUSH1 0x40 MLOAD DUP1 DUP4 SUB DUP2 DUP6 DUP9 DUP1 EXTCODESIZE ISZERO DUP1 ISZERO PUSH2 0x150 JUMPI PUSH0 DUP1 REVERT JUMPDEST POP GAS CALL ISZERO DUP1 ISZERO PUSH2 0x162 JUMPI RETURNDATASIZE PUSH0 DUP1 RETURNDATACOPY RETURNDATASIZE PUSH0 REVERT JUMPDEST POP POP POP POP POP DUP1 PUSH20 0xFFFFFFFFFFFFFFFFFFFFFFFFFFFFFFFFFFFFFFFF AND PUSH4 0xFA391C64 PUSH1 0x40 MLOAD DUP2 PUSH4 0xFFFFFFFF AND PUSH1 0xE0 SHL DUP2 MSTORE PUSH1 0x4 ADD PUSH0 PUSH1 0x40 MLOAD DUP1 DUP4 SUB DUP2 PUSH0 DUP8 DUP1 EXTCODESIZE ISZERO DUP1 ISZERO PUSH2 0x1AC JUMPI PUSH0 DUP1 REVERT JUMPDEST POP GAS CALL ISZERO DUP1 ISZERO PUSH2 0x1BE JUMPI RETURNDATASIZE PUSH0 DUP1 RETURNDATACOPY RETURNDATASIZE PUSH0 REVERT JUMPDEST POP POP POP POP POP JUMP JUMPDEST PUSH0 DUP1 REVERT JUMPDEST PUSH0 PUSH20 0xFFFFFFFFFFFFFFFFFFFFFFFFFFFFFFFFFFFFFFFF DUP3 AND SWAP1 POP SWAP2 SWAP1 POP JUMP JUMPDEST PUSH0 PUSH2 0x1F2 DUP3 PUSH2 0x1C9 JUMP JUMPDEST SWAP1 POP SWAP2 SWAP1 POP JUMP JUMPDEST PUSH0 PUSH2 0x203 DUP3 PUSH2 0x1E8 JUMP JUMPDEST SWAP1 POP SWAP2 SWAP1 POP JUMP JUMPDEST PUSH2 0x213 DUP2 PUSH2 0x1F9 JUMP JUMPDEST DUP2 EQ PUSH2 0x21D JUMPI PUSH0 DUP1 REVERT JUMPDEST POP JUMP JUMPDEST PUSH0 DUP2 CALLDATALOAD SWAP1 POP PUSH2 0x22E DUP2 PUSH2 0x20A JUMP JUMPDEST SWAP3 SWAP2 POP POP JUMP JUMPDEST PUSH0 PUSH1 0x20 DUP3 DUP5 SUB SLT ISZERO PUSH2 0x249 JUMPI PUSH2 0x248 PUSH2 0x1C5 JUMP JUMPDEST JUMPDEST PUSH0 PUSH2 0x256 DUP5 DUP3 DUP6 ADD PUSH2 0x220 JUMP JUMPDEST SWAP2 POP POP SWAP3 SWAP2 POP POP JUMP JUMPDEST PUSH0 DUP2 SWAP1 POP SWAP2 SWAP1 POP JUMP JUMPDEST PUSH0 DUP2 SWAP1 POP SWAP2 SWAP1 POP JUMP JUMPDEST PUSH0 DUP2 SWAP1 POP SWAP2 SWAP1 POP JUMP JUMPDEST PUSH0 PUSH2 0x294 PUSH2 0x28F PUSH2 0x28A DUP5 PUSH2 0x25F JUMP JUMPDEST PUSH2 0x271 JUMP JUMPDEST PUSH2 0x268 JUMP JUMPDEST SWAP1 POP SWAP2 SWAP1 POP JUMP JUMPDEST PUSH2 0x2A4 DUP2 PUSH2 0x27A JUMP JUMPDEST DUP3 MSTORE POP POP JUMP JUMPDEST PUSH0 PUSH1 0x20 DUP3 ADD SWAP1 POP PUSH2 0x2BD PUSH0 DUP4 ADD DUP5 PUSH2 0x29B JUMP JUMPDEST SWAP3 SWAP2 POP POP JUMP INVALID LOG2 PUSH5 0x6970667358 0x22 SLT KECCAK256 0xE5 COINBASE LOG3 0xE3 0xED 0xCC 0xF6 0xD2 DUP4 CALLCODE PUSH27 0x437EEAF64741A129FDF8D51368758F6D4F9764A49464736F6C6343 STOP ADDMOD ISZERO STOP CALLER LOG2 PUSH5 0x6970667358 0x22 SLT KECCAK256 SSTORE 0xDC 0xEA 0xB5 DUP9 DUP9 STOP 0x2D 0xE4 SHL 0xDC PUSH13 0x3335123CE1FEA9AE43677E04ED 0x4F 0xBA 0x5E 0xCF SLT 0x1E 0xC8 PUSH5 0x736F6C6343 STOP ADDMOD ISZERO STOP CALLER PUSH1 0x80 PUSH1 0x40 MSTORE CALLVALUE DUP1 ISZERO PUSH2 0xF JUMPI PUSH0 DUP1 REVERT JUMPDEST POP PUSH2 0x2F9 DUP1 PUSH2 0x1D PUSH0 CODECOPY PUSH0 RETURN INVALID PUSH1 0x80 PUSH1 0x40 MSTORE CALLVALUE DUP1 ISZERO PUSH2 0xF JUMPI PUSH0 DUP1 REVERT JUMPDEST POP PUSH1 0x4 CALLDATASIZE LT PUSH2 0x29 JUMPI PUSH0 CALLDATALOAD PUSH1 0xE0 SHR DUP1 PUSH4 0xDBF16873 EQ PUSH2 0x2D JUMPI JUMPDEST PUSH0 DUP1 REVERT JUMPDEST PUSH2 0x47 PUSH1 0x4 DUP1 CALLDATASIZE SUB DUP2 ADD SWAP1 PUSH2 0x42 SWAP2 SWAP1 PUSH2 0x234 JUMP JUMPDEST PUSH2 0x49 JUMP JUMPDEST STOP JUMPDEST DUP1 PUSH20 0xFFFFFFFFFFFFFFFFFFFFFFFFFFFFFFFFFFFFFFFF AND PUSH4 0xE90E2FED PUSH1 0x40 MLOAD DUP2 PUSH4 0xFFFFFFFF AND PUSH1 0xE0 SHL DUP2 MSTORE PUSH1 0x4 ADD PUSH0 PUSH1 0x40 MLOAD DUP1 DUP4 SUB DUP2 PUSH0 DUP8 DUP1 EXTCODESIZE ISZERO DUP1 ISZERO PUSH2 0x8E JUMPI PUSH0 DUP1 REVERT JUMPDEST POP GAS CALL ISZERO DUP1 ISZERO PUSH2 0xA0 JUMPI RETURNDATASIZE PUSH0 DUP1 RETURNDATACOPY RETURNDATASIZE PUSH0 REVERT JUMPDEST POP POP POP POP DUP1 PUSH20 0xFFFFFFFFFFFFFFFFFFFFFFFFFFFFFFFFFFFFFFFF AND PUSH4 0xA2B40D19 PUSH0 PUSH1 0x40 MLOAD DUP3 PUSH4 0xFFFFFFFF AND PUSH1 0xE0 SHL DUP2 MSTORE PUSH1 0x4 ADD PUSH2 0xDD SWAP2 SWAP1 PUSH2 0x2AA JUMP JUMPDEST PUSH0 PUSH1 0x40 MLOAD DUP1 DUP4 SUB DUP2 PUSH0 DUP8 DUP1 EXTCODESIZE ISZERO DUP1 ISZERO PUSH2 0xF4 JUMPI PUSH0 DUP1 REVERT JUMPDEST POP GAS CALL ISZERO DUP1 ISZERO PUSH2 0x106 JUMPI RETURNDATASIZE PUSH0 DUP1 RETURNDATACOPY RETURNDATASIZE PUSH0 REVERT JUMPDEST POP POP POP POP DUP1 PUSH20 0xFFFFFFFFFFFFFFFFFFFFFFFFFFFFFFFFFFFFFFFF AND PUSH4 0xA6F2AE3A PUSH0 PUSH1 0x40 MLOAD DUP3 PUSH4 0xFFFFFFFF AND PUSH1 0xE0 SHL DUP2 MSTORE PUSH1 0x4 ADD PUSH0 PUSH1 0x40 MLOAD DUP1 DUP4 SUB DUP2 DUP6 DUP9 DUP1 EXTCODESIZE ISZERO DUP1 ISZERO PUSH2 0x150 JUMPI PUSH0 DUP1 REVERT JUMPDEST POP GAS CALL ISZERO DUP1 ISZERO PUSH2 0x162 JUMPI RETURNDATASIZE PUSH0 DUP1 RETURNDATACOPY RETURNDATASIZE PUSH0 REVERT JUMPDEST POP POP POP POP POP DUP1 PUSH20 0xFFFFFFFFFFFFFFFFFFFFFFFFFFFFFFFFFFFFFFFF AND PUSH4 0xFA391C64 PUSH1 0x40 MLOAD DUP2 PUSH4 0xFFFFFFFF AND PUSH1 0xE0 SHL DUP2 MSTORE PUSH1 0x4 ADD PUSH0 PUSH1 0x40 MLOAD DUP1 DUP4 SUB DUP2 PUSH0 DUP8 DUP1 EXTCODESIZE ISZERO DUP1 ISZERO PUSH2 0x1AC JUMPI PUSH0 DUP1 REVERT JUMPDEST POP GAS CALL ISZERO DUP1 ISZERO PUSH2 0x1BE JUMPI RETURNDATASIZE PUSH0 DUP1 RETURNDATACOPY RETURNDATASIZE PUSH0 REVERT JUMPDEST POP POP POP POP POP JUMP JUMPDEST PUSH0 DUP1 REVERT JUMPDEST PUSH0 PUSH20 0xFFFFFFFFFFFFFFFFFFFFFFFFFFFFFFFFFFFFFFFF DUP3 AND SWAP1 POP SWAP2 SWAP1 POP JUMP JUMPDEST PUSH0 PUSH2 0x1F2 DUP3 PUSH2 0x1C9 JUMP JUMPDEST SWAP1 POP SWAP2 SWAP1 POP JUMP JUMPDEST PUSH0 PUSH2 0x203 DUP3 PUSH2 0x1E8 JUMP JUMPDEST SWAP1 POP SWAP2 SWAP1 POP JUMP JUMPDEST PUSH2 0x213 DUP2 PUSH2 0x1F9 JUMP JUMPDEST DUP2 EQ PUSH2 0x21D JUMPI PUSH0 DUP1 REVERT JUMPDEST POP JUMP JUMPDEST PUSH0 DUP2 CALLDATALOAD SWAP1 POP PUSH2 0x22E DUP2 PUSH2 0x20A JUMP JUMPDEST SWAP3 SWAP2 POP POP JUMP JUMPDEST PUSH0 PUSH1 0x20 DUP3 DUP5 SUB SLT ISZERO PUSH2 0x249 JUMPI PUSH2 0x248 PUSH2 0x1C5 JUMP JUMPDEST JUMPDEST PUSH0 PUSH2 0x256 DUP5 DUP3 DUP6 ADD PUSH2 0x220 JUMP JUMPDEST SWAP2 POP POP SWAP3 SWAP2 POP POP JUMP JUMPDEST PUSH0 DUP2 SWAP1 POP SWAP2 SWAP1 POP JUMP JUMPDEST PUSH0 DUP2 SWAP1 POP SWAP2 SWAP1 POP JUMP JUMPDEST PUSH0 DUP2 SWAP1 POP SWAP2 SWAP1 POP JUMP JUMPDEST PUSH0 PUSH2 0x294 PUSH2 0x28F PUSH2 0x28A DUP5 PUSH2 0x25F JUMP JUMPDEST PUSH2 0x271 JUMP JUMPDEST PUSH2 0x268 JUMP JUMPDEST SWAP1 POP SWAP2 SWAP1 POP JUMP JUMPDEST PUSH2 0x2A4 DUP2 PUSH2 0x27A JUMP JUMPDEST DUP3 MSTORE POP POP JUMP JUMPDEST PUSH0 PUSH1 0x20 DUP3 ADD SWAP1 POP PUSH2 0x2BD PUSH0 DUP4 ADD DUP5 PUSH2 0x29B JUMP JUMPDEST SWAP3 SWAP2 POP POP JUMP INVALID LOG2 PUSH5 0x6970667358 0x22 SLT KECCAK256 0xE5 COINBASE LOG3 0xE3 0xED 0xCC 0xF6 0xD2 DUP4 CALLCODE PUSH27 0x437EEAF64741A129FDF8D51368758F6D4F9764A49464736F6C6343 STOP ADDMOD ISZERO STOP CALLER "
		},
		"gasEstimates": {
			"creation": {
				"codeDepositCost": "497400",
				"executionCost": "infinite",
				"totalCost": "infinite"
			},
			"external": {
				"byteCode()": "infinite",
				"deployed()": "infinite",
				"figSalt()": "infinite",
				"ha1()": "infinite"
			}
		},
		"methodIdentifiers": {
			"byteCode()": "0560280e",
			"deployed()": "f905c15a",
			"figSalt()": "494a1ae5",
			"ha1()": "91e2fd09"
		}
	},
	"abi": [
		{
			"inputs": [],
			"name": "byteCode",
			"outputs": [
				{
					"internalType": "bytes",
					"name": "",
					"type": "bytes"
				}
			],
			"stateMutability": "view",
			"type": "function"
		},
		{
			"inputs": [],
			"name": "deployed",
			"outputs": [],
			"stateMutability": "nonpayable",
			"type": "function"
		},
		{
			"inputs": [],
			"name": "figSalt",
			"outputs": [
				{
					"internalType": "bytes32",
					"name": "",
					"type": "bytes32"
				}
			],
			"stateMutability": "nonpayable",
			"type": "function"
		},
		{
			"inputs": [],
			"name": "ha1",
			"outputs": [
				{
					"internalType": "contract att",
					"name": "",
					"type": "address"
				}
			],
			"stateMutability": "view",
			"type": "function"
		}
	]
}