{
	"data": {
		"bytecode": {
			"linkReferences": {},
			"object": "6080604052305f806101000a81548173ffffffffffffffffffffffffffffffffffffffff021916908373ffffffffffffffffffffffffffffffffffffffff1602179055506a52b7d2cee7561f3c9c00006001553060025f6101000a81548173ffffffffffffffffffffffffffffffffffffffff021916908373ffffffffffffffffffffffffffffffffffffffff16021790555034801561009d575f80fd5b506105dd806100ab5f395ff3fe60806040526004361061006f575f3560e01c8063a6f2ae3a1161004d578063a6f2ae3a146100ef578063e90e2fed146100f9578063efedc6691461010f578063fa391c64146101395761006f565b806308551a53146100735780638da5cb5b1461009d578063a2b40d19146100c7575b5f80fd5b34801561007e575f80fd5b5061008761014f565b604051610094919061048c565b60405180910390f35b3480156100a8575f80fd5b506100b1610172565b6040516100be919061048c565b60405180910390f35b3480156100d2575f80fd5b506100ed60048036038101906100e891906104dc565b610197565b005b6100f76101f7565b005b348015610104575f80fd5b5061010d6102dc565b005b34801561011a575f80fd5b50610123610379565b6040516101309190610516565b60405180910390f35b348015610144575f80fd5b5061014d61037f565b005b5f8054906101000a900473ffffffffffffffffffffffffffffffffffffffff1681565b60025f9054906101000a900473ffffffffffffffffffffffffffffffffffffffff1681565b5f8054906101000a900473ffffffffffffffffffffffffffffffffffffffff1673ffffffffffffffffffffffffffffffffffffffff163373ffffffffffffffffffffffffffffffffffffffff16146101ed575f80fd5b8060018190555050565b3373ffffffffffffffffffffffffffffffffffffffff163273ffffffffffffffffffffffffffffffffffffffff160361022e575f80fd5b61202261ffff331673ffffffffffffffffffffffffffffffffffffffff1614610255575f80fd5b60015434101561029a576040517f08c379a000000000000000000000000000000000000000000000000000000000815260040161029190610589565b60405180910390fd5b3360025f6101000a81548173ffffffffffffffffffffffffffffffffffffffff021916908373ffffffffffffffffffffffffffffffffffffffff160217905550565b3373ffffffffffffffffffffffffffffffffffffffff163273ffffffffffffffffffffffffffffffffffffffff1603610313575f80fd5b61ffff80331673ffffffffffffffffffffffffffffffffffffffff1614610338575f80fd5b335f806101000a81548173ffffffffffffffffffffffffffffffffffffffff021916908373ffffffffffffffffffffffffffffffffffffffff160217905550565b60035481565b5f6003819055503373ffffffffffffffffffffffffffffffffffffffff163273ffffffffffffffffffffffffffffffffffffffff16146103c25760196003819055505b61202261ffff331673ffffffffffffffffffffffffffffffffffffffff16036103ee57604b6003819055505b60025f9054906101000a900473ffffffffffffffffffffffffffffffffffffffff1673ffffffffffffffffffffffffffffffffffffffff163373ffffffffffffffffffffffffffffffffffffffff160361044b5760646003819055505b565b5f73ffffffffffffffffffffffffffffffffffffffff82169050919050565b5f6104768261044d565b9050919050565b6104868161046c565b82525050565b5f60208201905061049f5f83018461047d565b92915050565b5f80fd5b5f819050919050565b6104bb816104a9565b81146104c5575f80fd5b50565b5f813590506104d6816104b2565b92915050565b5f602082840312156104f1576104f06104a5565b5b5f6104fe848285016104c8565b91505092915050565b610510816104a9565b82525050565b5f6020820190506105295f830184610507565b92915050565b5f82825260208201905092915050565b7f696e73756666696369656e7420616d6f756e74000000000000000000000000005f82015250565b5f61057360138361052f565b915061057e8261053f565b602082019050919050565b5f6020820190508181035f8301526105a081610567565b905091905056fea26469706673582212206c773ea686d0dd823f9ca51ad0aee9447ed076bbca97d1089f45aa7c0365152664736f6c63430008150033",
			"opcodes": "PUSH1 0x80 PUSH1 0x40 MSTORE ADDRESS PUSH0 DUP1 PUSH2 0x100 EXP DUP2 SLOAD DUP2 PUSH20 0xFFFFFFFFFFFFFFFFFFFFFFFFFFFFFFFFFFFFFFFF MUL NOT AND SWAP1 DUP4 PUSH20 0xFFFFFFFFFFFFFFFFFFFFFFFFFFFFFFFFFFFFFFFF AND MUL OR SWAP1 SSTORE POP PUSH11 0x52B7D2CEE7561F3C9C0000 PUSH1 0x1 SSTORE ADDRESS PUSH1 0x2 PUSH0 PUSH2 0x100 EXP DUP2 SLOAD DUP2 PUSH20 0xFFFFFFFFFFFFFFFFFFFFFFFFFFFFFFFFFFFFFFFF MUL NOT AND SWAP1 DUP4 PUSH20 0xFFFFFFFFFFFFFFFFFFFFFFFFFFFFFFFFFFFFFFFF AND MUL OR SWAP1 SSTORE POP CALLVALUE DUP1 ISZERO PUSH2 0x9D JUMPI PUSH0 DUP1 REVERT JUMPDEST POP PUSH2 0x5DD DUP1 PUSH2 0xAB PUSH0 CODECOPY PUSH0 RETURN INVALID PUSH1 0x80 PUSH1 0x40 MSTORE PUSH1 0x4 CALLDATASIZE LT PUSH2 0x6F JUMPI PUSH0 CALLDATALOAD PUSH1 0xE0 SHR DUP1 PUSH4 0xA6F2AE3A GT PUSH2 0x4D JUMPI DUP1 PUSH4 0xA6F2AE3A EQ PUSH2 0xEF JUMPI DUP1 PUSH4 0xE90E2FED EQ PUSH2 0xF9 JUMPI DUP1 PUSH4 0xEFEDC669 EQ PUSH2 0x10F JUMPI DUP1 PUSH4 0xFA391C64 EQ PUSH2 0x139 JUMPI PUSH2 0x6F JUMP JUMPDEST DUP1 PUSH4 0x8551A53 EQ PUSH2 0x73 JUMPI DUP1 PUSH4 0x8DA5CB5B EQ PUSH2 0x9D JUMPI DUP1 PUSH4 0xA2B40D19 EQ PUSH2 0xC7 JUMPI JUMPDEST PUSH0 DUP1 REVERT JUMPDEST CALLVALUE DUP1 ISZERO PUSH2 0x7E JUMPI PUSH0 DUP1 REVERT JUMPDEST POP PUSH2 0x87 PUSH2 0x14F JUMP JUMPDEST PUSH1 0x40 MLOAD PUSH2 0x94 SWAP2 SWAP1 PUSH2 0x48C JUMP JUMPDEST PUSH1 0x40 MLOAD DUP1 SWAP2 SUB SWAP1 RETURN JUMPDEST CALLVALUE DUP1 ISZERO PUSH2 0xA8 JUMPI PUSH0 DUP1 REVERT JUMPDEST POP PUSH2 0xB1 PUSH2 0x172 JUMP JUMPDEST PUSH1 0x40 MLOAD PUSH2 0xBE SWAP2 SWAP1 PUSH2 0x48C JUMP JUMPDEST PUSH1 0x40 MLOAD DUP1 SWAP2 SUB SWAP1 RETURN JUMPDEST CALLVALUE DUP1 ISZERO PUSH2 0xD2 JUMPI PUSH0 DUP1 REVERT JUMPDEST POP PUSH2 0xED PUSH1 0x4 DUP1 CALLDATASIZE SUB DUP2 ADD SWAP1 PUSH2 0xE8 SWAP2 SWAP1 PUSH2 0x4DC JUMP JUMPDEST PUSH2 0x197 JUMP JUMPDEST STOP JUMPDEST PUSH2 0xF7 PUSH2 0x1F7 JUMP JUMPDEST STOP JUMPDEST CALLVALUE DUP1 ISZERO PUSH2 0x104 JUMPI PUSH0 DUP1 REVERT JUMPDEST POP PUSH2 0x10D PUSH2 0x2DC JUMP JUMPDEST STOP JUMPDEST CALLVALUE DUP1 ISZERO PUSH2 0x11A JUMPI PUSH0 DUP1 REVERT JUMPDEST POP PUSH2 0x123 PUSH2 0x379 JUMP JUMPDEST PUSH1 0x40 MLOAD PUSH2 0x130 SWAP2 SWAP1 PUSH2 0x516 JUMP JUMPDEST PUSH1 0x40 MLOAD DUP1 SWAP2 SUB SWAP1 RETURN JUMPDEST CALLVALUE DUP1 ISZERO PUSH2 0x144 JUMPI PUSH0 DUP1 REVERT JUMPDEST POP PUSH2 0x14D PUSH2 0x37F JUMP JUMPDEST STOP JUMPDEST PUSH0 DUP1 SLOAD SWAP1 PUSH2 0x100 EXP SWAP1 DIV PUSH20 0xFFFFFFFFFFFFFFFFFFFFFFFFFFFFFFFFFFFFFFFF AND DUP2 JUMP JUMPDEST PUSH1 0x2 PUSH0 SWAP1 SLOAD SWAP1 PUSH2 0x100 EXP SWAP1 DIV PUSH20 0xFFFFFFFFFFFFFFFFFFFFFFFFFFFFFFFFFFFFFFFF AND DUP2 JUMP JUMPDEST PUSH0 DUP1 SLOAD SWAP1 PUSH2 0x100 EXP SWAP1 DIV PUSH20 0xFFFFFFFFFFFFFFFFFFFFFFFFFFFFFFFFFFFFFFFF AND PUSH20 0xFFFFFFFFFFFFFFFFFFFFFFFFFFFFFFFFFFFFFFFF AND CALLER PUSH20 0xFFFFFFFFFFFFFFFFFFFFFFFFFFFFFFFFFFFFFFFF AND EQ PUSH2 0x1ED JUMPI PUSH0 DUP1 REVERT JUMPDEST DUP1 PUSH1 0x1 DUP2 SWAP1 SSTORE POP POP JUMP JUMPDEST CALLER PUSH20 0xFFFFFFFFFFFFFFFFFFFFFFFFFFFFFFFFFFFFFFFF AND ORIGIN PUSH20 0xFFFFFFFFFFFFFFFFFFFFFFFFFFFFFFFFFFFFFFFF AND SUB PUSH2 0x22E JUMPI PUSH0 DUP1 REVERT JUMPDEST PUSH2 0x2022 PUSH2 0xFFFF CALLER AND PUSH20 0xFFFFFFFFFFFFFFFFFFFFFFFFFFFFFFFFFFFFFFFF AND EQ PUSH2 0x255 JUMPI PUSH0 DUP1 REVERT JUMPDEST PUSH1 0x1 SLOAD CALLVALUE LT ISZERO PUSH2 0x29A JUMPI PUSH1 0x40 MLOAD PUSH32 0x8C379A000000000000000000000000000000000000000000000000000000000 DUP2 MSTORE PUSH1 0x4 ADD PUSH2 0x291 SWAP1 PUSH2 0x589 JUMP JUMPDEST PUSH1 0x40 MLOAD DUP1 SWAP2 SUB SWAP1 REVERT JUMPDEST CALLER PUSH1 0x2 PUSH0 PUSH2 0x100 EXP DUP2 SLOAD DUP2 PUSH20 0xFFFFFFFFFFFFFFFFFFFFFFFFFFFFFFFFFFFFFFFF MUL NOT AND SWAP1 DUP4 PUSH20 0xFFFFFFFFFFFFFFFFFFFFFFFFFFFFFFFFFFFFFFFF AND MUL OR SWAP1 SSTORE POP JUMP JUMPDEST CALLER PUSH20 0xFFFFFFFFFFFFFFFFFFFFFFFFFFFFFFFFFFFFFFFF AND ORIGIN PUSH20 0xFFFFFFFFFFFFFFFFFFFFFFFFFFFFFFFFFFFFFFFF AND SUB PUSH2 0x313 JUMPI PUSH0 DUP1 REVERT JUMPDEST PUSH2 0xFFFF DUP1 CALLER AND PUSH20 0xFFFFFFFFFFFFFFFFFFFFFFFFFFFFFFFFFFFFFFFF AND EQ PUSH2 0x338 JUMPI PUSH0 DUP1 REVERT JUMPDEST CALLER PUSH0 DUP1 PUSH2 0x100 EXP DUP2 SLOAD DUP2 PUSH20 0xFFFFFFFFFFFFFFFFFFFFFFFFFFFFFFFFFFFFFFFF MUL NOT AND SWAP1 DUP4 PUSH20 0xFFFFFFFFFFFFFFFFFFFFFFFFFFFFFFFFFFFFFFFF AND MUL OR SWAP1 SSTORE POP JUMP JUMPDEST PUSH1 0x3 SLOAD DUP2 JUMP JUMPDEST PUSH0 PUSH1 0x3 DUP2 SWAP1 SSTORE POP CALLER PUSH20 0xFFFFFFFFFFFFFFFFFFFFFFFFFFFFFFFFFFFFFFFF AND ORIGIN PUSH20 0xFFFFFFFFFFFFFFFFFFFFFFFFFFFFFFFFFFFFFFFF AND EQ PUSH2 0x3C2 JUMPI PUSH1 0x19 PUSH1 0x3 DUP2 SWAP1 SSTORE POP JUMPDEST PUSH2 0x2022 PUSH2 0xFFFF CALLER AND PUSH20 0xFFFFFFFFFFFFFFFFFFFFFFFFFFFFFFFFFFFFFFFF AND SUB PUSH2 0x3EE JUMPI PUSH1 0x4B PUSH1 0x3 DUP2 SWAP1 SSTORE POP JUMPDEST PUSH1 0x2 PUSH0 SWAP1 SLOAD SWAP1 PUSH2 0x100 EXP SWAP1 DIV PUSH20 0xFFFFFFFFFFFFFFFFFFFFFFFFFFFFFFFFFFFFFFFF AND PUSH20 0xFFFFFFFFFFFFFFFFFFFFFFFFFFFFFFFFFFFFFFFF AND CALLER PUSH20 0xFFFFFFFFFFFFFFFFFFFFFFFFFFFFFFFFFFFFFFFF AND SUB PUSH2 0x44B JUMPI PUSH1 0x64 PUSH1 0x3 DUP2 SWAP1 SSTORE POP JUMPDEST JUMP JUMPDEST PUSH0 PUSH20 0xFFFFFFFFFFFFFFFFFFFFFFFFFFFFFFFFFFFFFFFF DUP3 AND SWAP1 POP SWAP2 SWAP1 POP JUMP JUMPDEST PUSH0 PUSH2 0x476 DUP3 PUSH2 0x44D JUMP JUMPDEST SWAP1 POP SWAP2 SWAP1 POP JUMP JUMPDEST PUSH2 0x486 DUP2 PUSH2 0x46C JUMP JUMPDEST DUP3 MSTORE POP POP JUMP JUMPDEST PUSH0 PUSH1 0x20 DUP3 ADD SWAP1 POP PUSH2 0x49F PUSH0 DUP4 ADD DUP5 PUSH2 0x47D JUMP JUMPDEST SWAP3 SWAP2 POP POP JUMP JUMPDEST PUSH0 DUP1 REVERT JUMPDEST PUSH0 DUP2 SWAP1 POP SWAP2 SWAP1 POP JUMP JUMPDEST PUSH2 0x4BB DUP2 PUSH2 0x4A9 JUMP JUMPDEST DUP2 EQ PUSH2 0x4C5 JUMPI PUSH0 DUP1 REVERT JUMPDEST POP JUMP JUMPDEST PUSH0 DUP2 CALLDATALOAD SWAP1 POP PUSH2 0x4D6 DUP2 PUSH2 0x4B2 JUMP JUMPDEST SWAP3 SWAP2 POP POP JUMP JUMPDEST PUSH0 PUSH1 0x20 DUP3 DUP5 SUB SLT ISZERO PUSH2 0x4F1 JUMPI PUSH2 0x4F0 PUSH2 0x4A5 JUMP JUMPDEST JUMPDEST PUSH0 PUSH2 0x4FE DUP5 DUP3 DUP6 ADD PUSH2 0x4C8 JUMP JUMPDEST SWAP2 POP POP SWAP3 SWAP2 POP POP JUMP JUMPDEST PUSH2 0x510 DUP2 PUSH2 0x4A9 JUMP JUMPDEST DUP3 MSTORE POP POP JUMP JUMPDEST PUSH0 PUSH1 0x20 DUP3 ADD SWAP1 POP PUSH2 0x529 PUSH0 DUP4 ADD DUP5 PUSH2 0x507 JUMP JUMPDEST SWAP3 SWAP2 POP POP JUMP JUMPDEST PUSH0 DUP3 DUP3 MSTORE PUSH1 0x20 DUP3 ADD SWAP1 POP SWAP3 SWAP2 POP POP JUMP JUMPDEST PUSH32 0x696E73756666696369656E7420616D6F756E7400000000000000000000000000 PUSH0 DUP3 ADD MSTORE POP JUMP JUMPDEST PUSH0 PUSH2 0x573 PUSH1 0x13 DUP4 PUSH2 0x52F JUMP JUMPDEST SWAP2 POP PUSH2 0x57E DUP3 PUSH2 0x53F JUMP JUMPDEST PUSH1 0x20 DUP3 ADD SWAP1 POP SWAP2 SWAP1 POP JUMP JUMPDEST PUSH0 PUSH1 0x20 DUP3 ADD SWAP1 POP DUP2 DUP2 SUB PUSH0 DUP4 ADD MSTORE PUSH2 0x5A0 DUP2 PUSH2 0x567 JUMP JUMPDEST SWAP1 POP SWAP2 SWAP1 POP JUMP INVALID LOG2 PUSH5 0x6970667358 0x22 SLT KECCAK256 PUSH13 0x773EA686D0DD823F9CA51AD0AE 0xE9 PREVRANDAO PUSH31 0xD076BBCA97D1089F45AA7C0365152664736F6C634300081500330000000000 "
		},
		"gasEstimates": {
			"creation": {
				"codeDepositCost": "300200",
				"executionCost": "70971",
				"totalCost": "371171"
			},
			"external": {
				"buy()": "26576",
				"changePrice(uint256)": "24726",
				"changeSeller()": "24497",
				"isCompleted()": "39600",
				"owner()": "2531",
				"score()": "2469",
				"seller()": "2506"
			}
		},
		"methodIdentifiers": {
			"buy()": "a6f2ae3a",
			"changePrice(uint256)": "a2b40d19",
			"changeSeller()": "e90e2fed",
			"isCompleted()": "fa391c64",
			"owner()": "8da5cb5b",
			"score()": "efedc669",
			"seller()": "08551a53"
		}
	},
	"abi": [
		{
			"inputs": [],
			"name": "buy",
			"outputs": [],
			"stateMutability": "payable",
			"type": "function"
		},
		{
			"inputs": [
				{
					"internalType": "uint256",
					"name": "_price",
					"type": "uint256"
				}
			],
			"name": "changePrice",
			"outputs": [],
			"stateMutability": "nonpayable",
			"type": "function"
		},
		{
			"inputs": [],
			"name": "changeSeller",
			"outputs": [],
			"stateMutability": "nonpayable",
			"type": "function"
		},
		{
			"inputs": [],
			"name": "isCompleted",
			"outputs": [],
			"stateMutability": "nonpayable",
			"type": "function"
		},
		{
			"inputs": [],
			"name": "owner",
			"outputs": [
				{
					"internalType": "address",
					"name": "",
					"type": "address"
				}
			],
			"stateMutability": "view",
			"type": "function"
		},
		{
			"inputs": [],
			"name": "score",
			"outputs": [
				{
					"internalType": "uint256",
					"name": "",
					"type": "uint256"
				}
			],
			"stateMutability": "view",
			"type": "function"
		},
		{
			"inputs": [],
			"name": "seller",
			"outputs": [
				{
					"internalType": "address",
					"name": "",
					"type": "address"
				}
			],
			"stateMutability": "view",
			"type": "function"
		}
	]
}